{
  "_format": "hh-sol-artifact-1",
  "contractName": "MixinLockMetadata",
  "sourceName": "contracts/mixins/MixinLockMetadata.sol",
  "abi": [
    {
      "anonymous": false,
      "inputs": [
        {
          "indexed": true,
          "internalType": "address",
          "name": "owner",
          "type": "address"
        },
        {
          "indexed": true,
          "internalType": "address",
          "name": "approved",
          "type": "address"
        },
        {
          "indexed": true,
          "internalType": "uint256",
          "name": "tokenId",
          "type": "uint256"
        }
      ],
      "name": "Approval",
      "type": "event"
    },
    {
      "anonymous": false,
      "inputs": [
        {
          "indexed": true,
          "internalType": "address",
          "name": "owner",
          "type": "address"
        },
        {
          "indexed": true,
          "internalType": "address",
          "name": "operator",
          "type": "address"
        },
        {
          "indexed": false,
          "internalType": "bool",
          "name": "approved",
          "type": "bool"
        }
      ],
      "name": "ApprovalForAll",
      "type": "event"
    },
    {
      "anonymous": false,
      "inputs": [],
      "name": "Disable",
      "type": "event"
    },
    {
      "anonymous": false,
      "inputs": [
        {
          "indexed": true,
          "internalType": "uint256",
          "name": "_tokenId",
          "type": "uint256"
        },
        {
          "indexed": false,
          "internalType": "uint256",
          "name": "_amount",
          "type": "uint256"
        },
        {
          "indexed": false,
          "internalType": "bool",
          "name": "_timeAdded",
          "type": "bool"
        }
      ],
      "name": "ExpirationChanged",
      "type": "event"
    },
    {
      "anonymous": false,
      "inputs": [
        {
          "indexed": true,
          "internalType": "uint256",
          "name": "tokenId",
          "type": "uint256"
        }
      ],
      "name": "ExpireKey",
      "type": "event"
    },
    {
      "anonymous": false,
      "inputs": [
        {
          "indexed": true,
          "internalType": "address",
          "name": "account",
          "type": "address"
        }
      ],
      "name": "KeyGranterAdded",
      "type": "event"
    },
    {
      "anonymous": false,
      "inputs": [
        {
          "indexed": true,
          "internalType": "address",
          "name": "account",
          "type": "address"
        }
      ],
      "name": "KeyGranterRemoved",
      "type": "event"
    },
    {
      "anonymous": false,
      "inputs": [
        {
          "indexed": true,
          "internalType": "uint256",
          "name": "_tokenId",
          "type": "uint256"
        },
        {
          "indexed": true,
          "internalType": "address",
          "name": "_newManager",
          "type": "address"
        }
      ],
      "name": "KeyManagerChanged",
      "type": "event"
    },
    {
      "anonymous": false,
      "inputs": [
        {
          "indexed": true,
          "internalType": "address",
          "name": "account",
          "type": "address"
        }
      ],
      "name": "LockManagerAdded",
      "type": "event"
    },
    {
      "anonymous": false,
      "inputs": [
        {
          "indexed": true,
          "internalType": "address",
          "name": "account",
          "type": "address"
        }
      ],
      "name": "LockManagerRemoved",
      "type": "event"
    },
    {
      "anonymous": false,
      "inputs": [
        {
          "indexed": false,
          "internalType": "string",
          "name": "symbol",
          "type": "string"
        }
      ],
      "name": "NewLockSymbol",
      "type": "event"
    },
    {
      "anonymous": false,
      "inputs": [
        {
          "indexed": false,
          "internalType": "uint256",
          "name": "oldKeyPrice",
          "type": "uint256"
        },
        {
          "indexed": false,
          "internalType": "uint256",
          "name": "keyPrice",
          "type": "uint256"
        },
        {
          "indexed": false,
          "internalType": "address",
          "name": "oldTokenAddress",
          "type": "address"
        },
        {
          "indexed": false,
          "internalType": "address",
          "name": "tokenAddress",
          "type": "address"
        }
      ],
      "name": "PricingChanged",
      "type": "event"
    },
    {
      "anonymous": false,
      "inputs": [
        {
          "indexed": true,
          "internalType": "bytes32",
          "name": "role",
          "type": "bytes32"
        },
        {
          "indexed": true,
          "internalType": "bytes32",
          "name": "previousAdminRole",
          "type": "bytes32"
        },
        {
          "indexed": true,
          "internalType": "bytes32",
          "name": "newAdminRole",
          "type": "bytes32"
        }
      ],
      "name": "RoleAdminChanged",
      "type": "event"
    },
    {
      "anonymous": false,
      "inputs": [
        {
          "indexed": true,
          "internalType": "bytes32",
          "name": "role",
          "type": "bytes32"
        },
        {
          "indexed": true,
          "internalType": "address",
          "name": "account",
          "type": "address"
        },
        {
          "indexed": true,
          "internalType": "address",
          "name": "sender",
          "type": "address"
        }
      ],
      "name": "RoleGranted",
      "type": "event"
    },
    {
      "anonymous": false,
      "inputs": [
        {
          "indexed": true,
          "internalType": "bytes32",
          "name": "role",
          "type": "bytes32"
        },
        {
          "indexed": true,
          "internalType": "address",
          "name": "account",
          "type": "address"
        },
        {
          "indexed": true,
          "internalType": "address",
          "name": "sender",
          "type": "address"
        }
      ],
      "name": "RoleRevoked",
      "type": "event"
    },
    {
      "anonymous": false,
      "inputs": [
        {
          "indexed": true,
          "internalType": "address",
          "name": "from",
          "type": "address"
        },
        {
          "indexed": true,
          "internalType": "address",
          "name": "to",
          "type": "address"
        },
        {
          "indexed": true,
          "internalType": "uint256",
          "name": "tokenId",
          "type": "uint256"
        }
      ],
      "name": "Transfer",
      "type": "event"
    },
    {
      "anonymous": false,
      "inputs": [
        {
          "indexed": true,
          "internalType": "address",
          "name": "sender",
          "type": "address"
        },
        {
          "indexed": true,
          "internalType": "address",
          "name": "tokenAddress",
          "type": "address"
        },
        {
          "indexed": true,
          "internalType": "address",
          "name": "beneficiary",
          "type": "address"
        },
        {
          "indexed": false,
          "internalType": "uint256",
          "name": "amount",
          "type": "uint256"
        }
      ],
      "name": "Withdrawal",
      "type": "event"
    },
    {
      "inputs": [],
      "name": "DEFAULT_ADMIN_ROLE",
      "outputs": [
        {
          "internalType": "bytes32",
          "name": "",
          "type": "bytes32"
        }
      ],
      "stateMutability": "view",
      "type": "function"
    },
    {
      "inputs": [],
      "name": "KEY_GRANTER_ROLE",
      "outputs": [
        {
          "internalType": "bytes32",
          "name": "",
          "type": "bytes32"
        }
      ],
      "stateMutability": "view",
      "type": "function"
    },
    {
      "inputs": [],
      "name": "LOCK_MANAGER_ROLE",
      "outputs": [
        {
          "internalType": "bytes32",
          "name": "",
          "type": "bytes32"
        }
      ],
      "stateMutability": "view",
      "type": "function"
    },
    {
      "inputs": [
        {
          "internalType": "address",
          "name": "account",
          "type": "address"
        }
      ],
      "name": "addKeyGranter",
      "outputs": [],
      "stateMutability": "nonpayable",
      "type": "function"
    },
    {
      "inputs": [
        {
          "internalType": "address",
          "name": "account",
          "type": "address"
        }
      ],
      "name": "addLockManager",
      "outputs": [],
      "stateMutability": "nonpayable",
      "type": "function"
    },
    {
      "inputs": [
        {
          "internalType": "address",
          "name": "_approved",
          "type": "address"
        },
        {
          "internalType": "uint256",
          "name": "_tokenId",
          "type": "uint256"
        }
      ],
      "name": "approve",
      "outputs": [],
      "stateMutability": "nonpayable",
      "type": "function"
    },
    {
      "inputs": [
        {
          "internalType": "address",
          "name": "_spender",
          "type": "address"
        },
        {
          "internalType": "uint256",
          "name": "_amount",
          "type": "uint256"
        }
      ],
      "name": "approveBeneficiary",
      "outputs": [
        {
          "internalType": "bool",
          "name": "",
          "type": "bool"
        }
      ],
      "stateMutability": "nonpayable",
      "type": "function"
    },
    {
      "inputs": [
        {
          "internalType": "address",
          "name": "_keyOwner",
          "type": "address"
        }
      ],
      "name": "balanceOf",
      "outputs": [
        {
          "internalType": "uint256",
          "name": "",
          "type": "uint256"
        }
      ],
      "stateMutability": "view",
      "type": "function"
    },
    {
      "inputs": [],
      "name": "beneficiary",
      "outputs": [
        {
          "internalType": "address payable",
          "name": "",
          "type": "address"
        }
      ],
      "stateMutability": "view",
      "type": "function"
    },
    {
      "inputs": [],
      "name": "disableLock",
      "outputs": [],
      "stateMutability": "nonpayable",
      "type": "function"
    },
    {
      "inputs": [],
      "name": "expirationDuration",
      "outputs": [
        {
          "internalType": "uint256",
          "name": "",
          "type": "uint256"
        }
      ],
      "stateMutability": "view",
      "type": "function"
    },
    {
      "inputs": [
        {
          "internalType": "uint256",
          "name": "_tokenId",
          "type": "uint256"
        }
      ],
      "name": "getApproved",
      "outputs": [
        {
          "internalType": "address",
          "name": "",
          "type": "address"
        }
      ],
      "stateMutability": "view",
      "type": "function"
    },
    {
      "inputs": [
        {
          "internalType": "address",
          "name": "_keyOwner",
          "type": "address"
        }
      ],
      "name": "getHasValidKey",
      "outputs": [
        {
          "internalType": "bool",
          "name": "",
          "type": "bool"
        }
      ],
      "stateMutability": "view",
      "type": "function"
    },
    {
      "inputs": [
        {
          "internalType": "bytes32",
          "name": "role",
          "type": "bytes32"
        }
      ],
      "name": "getRoleAdmin",
      "outputs": [
        {
          "internalType": "bytes32",
          "name": "",
          "type": "bytes32"
        }
      ],
      "stateMutability": "view",
      "type": "function"
    },
    {
      "inputs": [
        {
          "internalType": "address",
          "name": "_account",
          "type": "address"
        }
      ],
      "name": "getTokenIdFor",
      "outputs": [
        {
          "internalType": "uint256",
          "name": "",
          "type": "uint256"
        }
      ],
      "stateMutability": "view",
      "type": "function"
    },
    {
      "inputs": [
        {
          "internalType": "bytes32",
          "name": "role",
          "type": "bytes32"
        },
        {
          "internalType": "address",
          "name": "account",
          "type": "address"
        }
      ],
      "name": "grantRole",
      "outputs": [],
      "stateMutability": "nonpayable",
      "type": "function"
    },
    {
      "inputs": [
        {
          "internalType": "bytes32",
          "name": "role",
          "type": "bytes32"
        },
        {
          "internalType": "address",
          "name": "account",
          "type": "address"
        }
      ],
      "name": "hasRole",
      "outputs": [
        {
          "internalType": "bool",
          "name": "",
          "type": "bool"
        }
      ],
      "stateMutability": "view",
      "type": "function"
    },
    {
      "inputs": [],
      "name": "isAlive",
      "outputs": [
        {
          "internalType": "bool",
          "name": "",
          "type": "bool"
        }
      ],
      "stateMutability": "view",
      "type": "function"
    },
    {
      "inputs": [
        {
          "internalType": "address",
          "name": "_owner",
          "type": "address"
        },
        {
          "internalType": "address",
          "name": "_operator",
          "type": "address"
        }
      ],
      "name": "isApprovedForAll",
      "outputs": [
        {
          "internalType": "bool",
          "name": "",
          "type": "bool"
        }
      ],
      "stateMutability": "view",
      "type": "function"
    },
    {
      "inputs": [
        {
          "internalType": "address",
          "name": "account",
          "type": "address"
        }
      ],
      "name": "isKeyGranter",
      "outputs": [
        {
          "internalType": "bool",
          "name": "",
          "type": "bool"
        }
      ],
      "stateMutability": "view",
      "type": "function"
    },
    {
      "inputs": [
        {
          "internalType": "address",
          "name": "account",
          "type": "address"
        }
      ],
      "name": "isLockManager",
      "outputs": [
        {
          "internalType": "bool",
          "name": "",
          "type": "bool"
        }
      ],
      "stateMutability": "view",
      "type": "function"
    },
    {
      "inputs": [
        {
          "internalType": "address",
          "name": "_keyOwner",
          "type": "address"
        }
      ],
      "name": "keyExpirationTimestampFor",
      "outputs": [
        {
          "internalType": "uint256",
          "name": "",
          "type": "uint256"
        }
      ],
      "stateMutability": "view",
      "type": "function"
    },
    {
      "inputs": [
        {
          "internalType": "uint256",
          "name": "",
          "type": "uint256"
        }
      ],
      "name": "keyManagerOf",
      "outputs": [
        {
          "internalType": "address",
          "name": "",
          "type": "address"
        }
      ],
      "stateMutability": "view",
      "type": "function"
    },
    {
      "inputs": [],
      "name": "keyPrice",
      "outputs": [
        {
          "internalType": "uint256",
          "name": "",
          "type": "uint256"
        }
      ],
      "stateMutability": "view",
      "type": "function"
    },
    {
      "inputs": [],
      "name": "maxNumberOfKeys",
      "outputs": [
        {
          "internalType": "uint256",
          "name": "",
          "type": "uint256"
        }
      ],
      "stateMutability": "view",
      "type": "function"
    },
    {
      "inputs": [],
      "name": "name",
      "outputs": [
        {
          "internalType": "string",
          "name": "",
          "type": "string"
        }
      ],
      "stateMutability": "view",
      "type": "function"
    },
    {
      "inputs": [],
      "name": "numberOfOwners",
      "outputs": [
        {
          "internalType": "uint256",
          "name": "",
          "type": "uint256"
        }
      ],
      "stateMutability": "view",
      "type": "function"
    },
    {
      "inputs": [],
      "name": "onKeyCancelHook",
      "outputs": [
        {
          "internalType": "contract ILockKeyCancelHook",
          "name": "",
          "type": "address"
        }
      ],
      "stateMutability": "view",
      "type": "function"
    },
    {
      "inputs": [],
      "name": "onKeyPurchaseHook",
      "outputs": [
        {
          "internalType": "contract ILockKeyPurchaseHook",
          "name": "",
          "type": "address"
        }
      ],
      "stateMutability": "view",
      "type": "function"
    },
    {
      "inputs": [
        {
          "internalType": "uint256",
          "name": "_tokenId",
          "type": "uint256"
        }
      ],
      "name": "ownerOf",
      "outputs": [
        {
          "internalType": "address",
          "name": "",
          "type": "address"
        }
      ],
      "stateMutability": "view",
      "type": "function"
    },
    {
      "inputs": [
        {
          "internalType": "uint256",
          "name": "",
          "type": "uint256"
        }
      ],
      "name": "owners",
      "outputs": [
        {
          "internalType": "address",
          "name": "",
          "type": "address"
        }
      ],
      "stateMutability": "view",
      "type": "function"
    },
    {
      "inputs": [],
      "name": "publicLockVersion",
      "outputs": [
        {
          "internalType": "uint16",
          "name": "",
          "type": "uint16"
        }
      ],
      "stateMutability": "pure",
      "type": "function"
    },
    {
      "inputs": [],
      "name": "renounceLockManager",
      "outputs": [],
      "stateMutability": "nonpayable",
      "type": "function"
    },
    {
      "inputs": [
        {
          "internalType": "bytes32",
          "name": "role",
          "type": "bytes32"
        },
        {
          "internalType": "address",
          "name": "account",
          "type": "address"
        }
      ],
      "name": "renounceRole",
      "outputs": [],
      "stateMutability": "nonpayable",
      "type": "function"
    },
    {
      "inputs": [
        {
          "internalType": "address",
          "name": "_granter",
          "type": "address"
        }
      ],
      "name": "revokeKeyGranter",
      "outputs": [],
      "stateMutability": "nonpayable",
      "type": "function"
    },
    {
      "inputs": [
        {
          "internalType": "bytes32",
          "name": "role",
          "type": "bytes32"
        },
        {
          "internalType": "address",
          "name": "account",
          "type": "address"
        }
      ],
      "name": "revokeRole",
      "outputs": [],
      "stateMutability": "nonpayable",
      "type": "function"
    },
    {
      "inputs": [
        {
          "internalType": "address",
          "name": "_to",
          "type": "address"
        },
        {
          "internalType": "bool",
          "name": "_approved",
          "type": "bool"
        }
      ],
      "name": "setApprovalForAll",
      "outputs": [],
      "stateMutability": "nonpayable",
      "type": "function"
    },
    {
      "inputs": [
        {
          "internalType": "string",
          "name": "_baseTokenURI",
          "type": "string"
        }
      ],
      "name": "setBaseTokenURI",
      "outputs": [],
      "stateMutability": "nonpayable",
      "type": "function"
    },
    {
      "inputs": [
        {
          "internalType": "address",
          "name": "_onKeyPurchaseHook",
          "type": "address"
        },
        {
          "internalType": "address",
          "name": "_onKeyCancelHook",
          "type": "address"
        }
      ],
      "name": "setEventHooks",
      "outputs": [],
      "stateMutability": "nonpayable",
      "type": "function"
    },
    {
      "inputs": [
        {
          "internalType": "uint256",
          "name": "_tokenId",
          "type": "uint256"
        },
        {
          "internalType": "address",
          "name": "_keyManager",
          "type": "address"
        }
      ],
      "name": "setKeyManagerOf",
      "outputs": [],
      "stateMutability": "nonpayable",
      "type": "function"
    },
    {
      "inputs": [
        {
          "internalType": "bytes4",
          "name": "interfaceId",
          "type": "bytes4"
        }
      ],
      "name": "supportsInterface",
      "outputs": [
        {
          "internalType": "bool",
          "name": "",
          "type": "bool"
        }
      ],
      "stateMutability": "view",
      "type": "function"
    },
    {
      "inputs": [],
      "name": "symbol",
      "outputs": [
        {
          "internalType": "string",
          "name": "",
          "type": "string"
        }
      ],
      "stateMutability": "view",
      "type": "function"
    },
    {
      "inputs": [],
      "name": "tokenAddress",
      "outputs": [
        {
          "internalType": "address",
          "name": "",
          "type": "address"
        }
      ],
      "stateMutability": "view",
      "type": "function"
    },
    {
      "inputs": [
        {
          "internalType": "uint256",
          "name": "_tokenId",
          "type": "uint256"
        }
      ],
      "name": "tokenURI",
      "outputs": [
        {
          "internalType": "string",
          "name": "",
          "type": "string"
        }
      ],
      "stateMutability": "view",
      "type": "function"
    },
    {
      "inputs": [],
      "name": "totalSupply",
      "outputs": [
        {
          "internalType": "uint256",
          "name": "",
          "type": "uint256"
        }
      ],
      "stateMutability": "view",
      "type": "function"
    },
    {
      "inputs": [],
      "name": "unlockProtocol",
      "outputs": [
        {
          "internalType": "contract IUnlock",
          "name": "",
          "type": "address"
        }
      ],
      "stateMutability": "view",
      "type": "function"
    },
    {
      "inputs": [
        {
          "internalType": "address payable",
          "name": "_beneficiary",
          "type": "address"
        }
      ],
      "name": "updateBeneficiary",
      "outputs": [],
      "stateMutability": "nonpayable",
      "type": "function"
    },
    {
      "inputs": [
        {
          "internalType": "uint256",
          "name": "_keyPrice",
          "type": "uint256"
        },
        {
          "internalType": "address",
          "name": "_tokenAddress",
          "type": "address"
        }
      ],
      "name": "updateKeyPricing",
      "outputs": [],
      "stateMutability": "nonpayable",
      "type": "function"
    },
    {
      "inputs": [
        {
          "internalType": "string",
          "name": "_lockName",
          "type": "string"
        }
      ],
      "name": "updateLockName",
      "outputs": [],
      "stateMutability": "nonpayable",
      "type": "function"
    },
    {
      "inputs": [
        {
          "internalType": "string",
          "name": "_lockSymbol",
          "type": "string"
        }
      ],
      "name": "updateLockSymbol",
      "outputs": [],
      "stateMutability": "nonpayable",
      "type": "function"
    },
    {
      "inputs": [
        {
          "internalType": "address",
          "name": "_tokenAddress",
          "type": "address"
        },
        {
          "internalType": "uint256",
          "name": "_amount",
          "type": "uint256"
        }
      ],
      "name": "withdraw",
      "outputs": [],
      "stateMutability": "nonpayable",
      "type": "function"
    }
  ],
  "bytecode": "0x608060405234801561001057600080fd5b50612d92806100206000396000f3fe608060405234801561001057600080fd5b50600436106102f15760003560e01c80636d8ea5b41161019d578063aae4b8f7116100e9578063c87b56dd116100a2578063d547741f1161007c578063d547741f146106e4578063e985e9c5146106f7578063f0ba60401461070a578063f3fef3a31461071257600080fd5b8063c87b56dd146106af578063d1bbd49c146106c2578063d2503485146106d157600080fd5b8063aae4b8f71461062f578063abdf82ce14610642578063ad0e0a4d1461066e578063b11d7ec114610681578063b585a6d514610694578063c1c98d03146106a757600080fd5b806393fd1844116101565780639d76ea58116101305780639d76ea58146105ee578063a217fddf14610601578063a22cb46514610609578063a2e4cd2e1461061c57600080fd5b806393fd1844146105b557806395d89b41146105bd578063970aaeb7146105c557600080fd5b80636d8ea5b41461053057806370a082311461055e57806374b6c10614610571578063782a4ade1461057a5780638ca2fbad1461058d57806391d14854146105a257600080fd5b8063248a9ca31161025c57806338af3eed1161021557806352b0f638116101ef57806352b0f638146104ce578063550ef3a8146104e1578063564aa99d146104f45780636352211e1461050757600080fd5b806338af3eed1461047e5780634136aa35146104915780634d025fed146104a557600080fd5b8063248a9ca3146103fc5780632af9162a1461041f5780632d33dd5b146104325780632f2ff15d1461044557806330176e131461045857806336568abe1461046b57600080fd5b80630f15023b116102ae5780630f15023b1461039957806310e56973146103ac57806311a4c03a146103c357806318160ddd146103cc578063217751bc146103d457806323100509146103e757600080fd5b806301ffc9a7146102f6578063025e7c271461031e57806306fdde0314610349578063081812fc1461035e578063095ea7b3146103715780630aaffd2a14610386575b600080fd5b610309610304366004612894565b610725565b60405190151581526020015b60405180910390f35b61033161032c366004612858565b610736565b6040516001600160a01b039091168152602001610315565b610351610760565b6040516103159190612af6565b61033161036c366004612858565b6107ee565b61038461037f366004612811565b610868565b005b610384610394366004612790565b6109e1565b60ca54610331906001600160a01b031681565b6103b560cc5481565b604051908152602001610315565b6103b560cb5481565b60ce546103b5565b60d154610331906001600160a01b031681565b6103b5600080516020612d1d83398151915281565b6103b561040a366004612858565b60009081526097602052604090206001015490565b61038461042d366004612790565b610ab4565b60d054610331906001600160a01b031681565b610384610453366004612870565b610b37565b6103846104663660046128bc565b610b62565b610384610479366004612870565b610ba2565b60cf54610331906001600160a01b031681565b60c95461030990600160a01b900460ff1681565b6103316104b3366004612858565b60d5602052600090815260409020546001600160a01b031681565b6103096104dc366004612790565b610c20565b6103846104ef3660046128bc565b610c3a565b610384610502366004612790565b610c7a565b610331610515366004612858565b600090815260d360205260409020546001600160a01b031690565b61030961053e366004612790565b6001600160a01b0316600090815260d26020526040902060010154421090565b6103b561056c366004612790565b610cfd565b6103b560cd5481565b6103846105883660046128bc565b610d7c565b6103b5600080516020612d3d83398151915281565b6103096105b0366004612870565b610dfa565b60d4546103b5565b610351610e25565b6103b56105d3366004612790565b6001600160a01b0316600090815260d2602052604090205490565b60c954610331906001600160a01b031681565b6103b5600081565b6103846106173660046127e4565b610f5b565b61038461062a366004612870565b611038565b61030961063d366004612790565b6111d2565b6103b5610650366004612790565b6001600160a01b0316600090815260d2602052604090206001015490565b61038461067c3660046127ac565b6111ec565b61038461068f366004612870565b611324565b6103096106a2366004612811565b6113e7565b6103846114e0565b6103516106bd366004612858565b611575565b60405160098152602001610315565b6103846106df366004612790565b61173b565b6103846106f2366004612870565b6117be565b6103096107053660046127ac565b6117e4565b610384611879565b610384610720366004612811565b6118be565b600061073082611a7e565b92915050565b60d4818154811061074657600080fd5b6000918252602090912001546001600160a01b0316905081565b60d8805461076d90612c7d565b80601f016020809104026020016040519081016040528092919081815260200182805461079990612c7d565b80156107e65780601f106107bb576101008083540402835291602001916107e6565b820191906000526020600020905b8154815290600101906020018083116107c957829003601f168201915b505050505081565b600081815260d3602052604081205482906001600160a01b03166108475760405162461bcd60e51b815260206004820152600b60248201526a4e4f5f535543485f4b455960a81b60448201526064015b60405180910390fd5b600083815260d660205260409020546001600160a01b031691505b50919050565b60c954600160a01b900460ff166108915760405162461bcd60e51b815260040161083e90612b7e565b8061089c8133611aa3565b806108bd5750600081815260d660205260409020546001600160a01b031633145b806108e55750600081815260d360205260409020546108e5906001600160a01b0316336117e4565b6109315760405162461bcd60e51b815260206004820152601c60248201527f4f4e4c595f4b45595f4d414e414745525f4f525f415050524f56454400000000604482015260640161083e565b336001600160a01b03841614156109795760405162461bcd60e51b815260206004820152600c60248201526b20a8282927ab22afa9a2a62360a11b604482015260640161083e565b600082815260d66020908152604080832080546001600160a01b0319166001600160a01b0388811691821790925560d3909352818420549151869492909116917f8c5be1e5ebec7d5bd14f71427d1e84f3dd0314c0f7b2291e5b200ac8c7c3b92591a4505050565b60cf546001600160a01b03163314806109fe57506109fe336111d2565b610a4a5760405162461bcd60e51b815260206004820152601f60248201527f4f4e4c595f42454e45464943494152595f4f525f4c4f434b4d414e4147455200604482015260640161083e565b6001600160a01b038116610a925760405162461bcd60e51b815260206004820152600f60248201526e494e56414c49445f4144445245535360881b604482015260640161083e565b60cf80546001600160a01b0319166001600160a01b0392909216919091179055565b610acc600080516020612d3d83398151915233610dfa565b610ae85760405162461bcd60e51b815260040161083e90612b29565b610b00600080516020612d1d833981519152826117be565b6040516001600160a01b038216907f766f6199fea59554b9ff688e413302b9200f85d74811c053c12d945ac6d8dd7a90600090a250565b600082815260976020526040902060010154610b538133611b19565b610b5d8383611b7d565b505050565b610b7a600080516020612d3d83398151915233610dfa565b610b965760405162461bcd60e51b815260040161083e90612b29565b610b5d60da83836126f7565b6001600160a01b0381163314610c125760405162461bcd60e51b815260206004820152602f60248201527f416363657373436f6e74726f6c3a2063616e206f6e6c792072656e6f756e636560448201526e103937b632b9903337b91039b2b63360891b606482015260840161083e565b610c1c8282611c03565b5050565b6000610730600080516020612d1d83398151915283610dfa565b610c52600080516020612d3d83398151915233610dfa565b610c6e5760405162461bcd60e51b815260040161083e90612b29565b610b5d60d883836126f7565b610c92600080516020612d3d83398151915233610dfa565b610cae5760405162461bcd60e51b815260040161083e90612b29565b610cc6600080516020612d1d83398151915282610b37565b6040516001600160a01b038216907f684f8a71407db0c334454ebe9c9b288549317893a20b10dc779ec5c118dcd12190600090a250565b60006001600160a01b038216610d475760405162461bcd60e51b815260206004820152600f60248201526e494e56414c49445f4144445245535360881b604482015260640161083e565b6001600160a01b038216600090815260d260205260409020600101544210610d70576000610d73565b60015b60ff1692915050565b610d94600080516020612d3d83398151915233610dfa565b610db05760405162461bcd60e51b815260040161083e90612b29565b610dbc60d983836126f7565b507f8868e22e84ebf32da89b2ebcb0ac642816304ea3863b257f240df9098719cb978282604051610dee929190612ac7565b60405180910390a15050565b60009182526097602090815260408084206001600160a01b0393909316845291905290205460ff1690565b606060d98054610e3490612c7d565b15159050610ecb5760ca60009054906101000a90046001600160a01b03166001600160a01b031663cec410526040518163ffffffff1660e01b815260040160006040518083038186803b158015610e8a57600080fd5b505afa158015610e9e573d6000803e3d6000fd5b505050506040513d6000823e601f3d908101601f19168201604052610ec69190810190612929565b905090565b60d98054610ed890612c7d565b80601f0160208091040260200160405190810160405280929190818152602001828054610f0490612c7d565b8015610f515780601f10610f2657610100808354040283529160200191610f51565b820191906000526020600020905b815481529060010190602001808311610f3457829003601f168201915b5050505050905090565b60c954600160a01b900460ff16610f845760405162461bcd60e51b815260040161083e90612b7e565b6001600160a01b038216331415610fcc5760405162461bcd60e51b815260206004820152600c60248201526b20a8282927ab22afa9a2a62360a11b604482015260640161083e565b33600081815260d7602090815260408083206001600160a01b03871680855290835292819020805460ff191686151590811790915590519081529192917f17307eab39ab6107e8899845ad3d59bd9653f200f220920489ca2b5937696c31910160405180910390a35050565b611050600080516020612d3d83398151915233610dfa565b61106c5760405162461bcd60e51b815260040161083e90612b29565b60c954600160a01b900460ff166110955760405162461bcd60e51b815260040161083e90612b7e565b60cc5460c9546001600160a01b03908116908316158061112557506000836001600160a01b03166318160ddd6040518163ffffffff1660e01b815260040160206040518083038186803b1580156110eb57600080fd5b505afa1580156110ff573d6000803e3d6000fd5b505050506040513d601f19601f8201168201806040525081019061112391906129c7565b115b6111615760405162461bcd60e51b815260206004820152600d60248201526c24a72b20a624a22faa27a5a2a760991b604482015260640161083e565b60cc84905560c980546001600160a01b0319166001600160a01b0385811691821790925560408051858152602081018890529284169083015260608201527f3615065ccf48367ac483ac86701248e2e5ff55bdd9be845007d34a3b68d719d49060800160405180910390a150505050565b6000610730600080516020612d3d83398151915283610dfa565b611204600080516020612d3d83398151915233610dfa565b6112205760405162461bcd60e51b815260040161083e90612b29565b6001600160a01b038216158061123f57506001600160a01b0382163b15155b61128b5760405162461bcd60e51b815260206004820152601860248201527f494e56414c49445f4f4e5f4b45595f534f4c445f484f4f4b0000000000000000604482015260640161083e565b6001600160a01b03811615806112aa57506001600160a01b0381163b15155b6112f65760405162461bcd60e51b815260206004820152601a60248201527f494e56414c49445f4f4e5f4b45595f43414e43454c5f484f4f4b000000000000604482015260640161083e565b60d080546001600160a01b039384166001600160a01b03199182161790915560d18054929093169116179055565b600082815260d3602052604090205482906001600160a01b03166113785760405162461bcd60e51b815260206004820152600b60248201526a4e4f5f535543485f4b455960a81b604482015260640161083e565b6113828333611aa3565b806113915750611391336111d2565b6113dd5760405162461bcd60e51b815260206004820152601f60248201527f554e415554484f52495a45445f4b45595f4d414e414745525f55504441544500604482015260640161083e565b610b5d8383611c6a565b60006113f2336111d2565b80611407575060cf546001600160a01b031633145b6114535760405162461bcd60e51b815260206004820181905260248201527f4f4e4c595f4c4f434b5f4d414e414745525f4f525f42454e4546494349415259604482015260640161083e565b60c95460405163095ea7b360e01b81526001600160a01b038581166004830152602482018590529091169063095ea7b390604401602060405180830381600087803b1580156114a157600080fd5b505af11580156114b5573d6000803e3d6000fd5b505050506040513d601f19601f820116820180604052508101906114d9919061283c565b9392505050565b6114f8600080516020612d3d83398151915233610dfa565b6115145760405162461bcd60e51b815260040161083e90612b29565b60c954600160a01b900460ff1661153d5760405162461bcd60e51b815260040161083e90612b7e565b6040517f25a311358326fb18c62efc24bc28d3126acee8d2a67fd8b2145b757dc8bd1bc190600090a160c9805460ff60a01b19169055565b60608080600061158430611cec565b90506060851561159e5761159786611f47565b92506115b1565b6040518060200160405280600081525092505b60da80546115be90612c7d565b151590506116735760ca60009054906101000a90046001600160a01b03166001600160a01b031663a998e9fb6040518163ffffffff1660e01b815260040160006040518083038186803b15801561161457600080fd5b505afa158015611628573d6000803e3d6000fd5b505050506040513d6000823e601f3d908101601f191682016040526116509190810190612929565b9350604051806040016040528060018152602001602f60f81b8152509050611725565b60da805461168090612c7d565b80601f01602080910402602001604051908101604052809291908181526020018280546116ac90612c7d565b80156116f95780601f106116ce576101008083540402835291602001916116f9565b820191906000526020600020905b8154815290600101906020018083116116dc57829003601f168201915b505050505093506040518060200160405280600081525090506040518060200160405280600081525091505b61173184838386612090565b9695505050505050565b611753600080516020612d3d83398151915233610dfa565b61176f5760405162461bcd60e51b815260040161083e90612b29565b611787600080516020612d3d83398151915282610b37565b6040516001600160a01b038216907f91d5c045d5bd98bf59a379b259ebca05b93bf79af1845fdf87e3172385d4c7f790600090a250565b6000828152609760205260409020600101546117da8133611b19565b610b5d8383611c03565b6001600160a01b03808316600090815260d2602090815260408083205480845260d5909252822054919290911680611847575050506001600160a01b03808316600090815260d7602090815260408083209385168352929052205460ff16610730565b6001600160a01b03908116600090815260d7602090815260408083209387168352929052205460ff1691506107309050565b611891600080516020612d3d83398151915233610ba2565b60405133907f42885193b8178d25fca25a38e6fcc93918501e91be06d85e0c8afb3bad95238090600090a2565b6118c7336111d2565b806118dc575060cf546001600160a01b031633145b6119285760405162461bcd60e51b815260206004820181905260248201527f4f4e4c595f4c4f434b5f4d414e414745525f4f525f42454e4546494349415259604482015260640161083e565b60006001600160a01b03831661193f5750476119b9565b6040516370a0823160e01b81523060048201526001600160a01b038416906370a082319060240160206040518083038186803b15801561197e57600080fd5b505afa158015611992573d6000803e3d6000fd5b505050506040513d601f19601f820116820180604052508101906119b691906129c7565b90505b60008215806119c757508183115b15611a165760008211611a0f5760405162461bcd60e51b815260206004820152601060248201526f4e4f545f454e4f5547485f46554e445360801b604482015260640161083e565b5080611a19565b50815b60cf546040518281526001600160a01b039182169186169033907f342e7ff505a8a0364cd0dc2ff195c315e43bce86b204846ecd36913e117b109e9060200160405180910390a460cf54611a789085906001600160a01b0316836120c2565b50505050565b60006001600160e01b03198216637965db0b60e01b14806107305750610730826120fe565b600082815260d560205260408120546001600160a01b0383811691161480611b045750600083815260d560205260409020546001600160a01b0316158015611b045750600083815260d360205260409020546001600160a01b038381169116145b15611b1157506001610730565b506000610730565b611b238282610dfa565b610c1c57611b3b816001600160a01b0316601461213a565b611b4683602061213a565b604051602001611b57929190612a52565b60408051601f198184030181529082905262461bcd60e51b825261083e91600401612af6565b611b878282610dfa565b610c1c5760008281526097602090815260408083206001600160a01b03851684529091529020805460ff19166001179055611bbf3390565b6001600160a01b0316816001600160a01b0316837f2f8788117e7eff1d82e926ec794901d17c78024a50270940304540a733656f0d60405160405180910390a45050565b611c0d8282610dfa565b15610c1c5760008281526097602090815260408083206001600160a01b0385168085529252808320805460ff1916905551339285917ff6391f5c32d9c69d2a47ea670b442974b53935d1edc7fd64eb21e047a839171b9190a45050565b600082815260d560205260409020546001600160a01b03828116911614610c1c57600082815260d56020526040902080546001600160a01b0319166001600160a01b038316179055611cbb8261231c565b60405160009083907f9d2895c45a420624de863a2f437b022d879f457bf7a829044055a10c5a6fd5e3908390a35050565b604080518082018252601081526f181899199a1a9b1b9c1cb0b131b232b360811b60208201528151602a80825260608281019094526001600160a01b0385169291600091602082018180368337019050509050600360fc1b81600081518110611d6557634e487b7160e01b600052603260045260246000fd5b60200101906001600160f81b031916908160001a905350600f60fb1b81600181518110611da257634e487b7160e01b600052603260045260246000fd5b60200101906001600160f81b031916908160001a90535060005b6014811015611f3e5782600485611dd484600c612ba7565b60208110611df257634e487b7160e01b600052603260045260246000fd5b1a60f81b6001600160f81b031916901c60f81c60ff1681518110611e2657634e487b7160e01b600052603260045260246000fd5b01602001516001600160f81b03191682611e41836002612c04565b611e4c906002612ba7565b81518110611e6a57634e487b7160e01b600052603260045260246000fd5b60200101906001600160f81b031916908160001a9053508284611e8e83600c612ba7565b60208110611eac57634e487b7160e01b600052603260045260246000fd5b825191901a600f16908110611ed157634e487b7160e01b600052603260045260246000fd5b01602001516001600160f81b03191682611eec836002612c04565b611ef7906003612ba7565b81518110611f1557634e487b7160e01b600052603260045260246000fd5b60200101906001600160f81b031916908160001a90535080611f3681612cb2565b915050611dbc565b50949350505050565b60608180611f6e5750506040805180820190915260018152600360fc1b6020820152919050565b8260005b8115611f985780611f8281612cb2565b9150611f919050600a83612be4565b9150611f72565b60008167ffffffffffffffff811115611fc157634e487b7160e01b600052604160045260246000fd5b6040519080825280601f01601f191660200182016040528015611feb576020820181803683370190505b509050815b841561208657612001600182612c23565b90506000612010600a87612be4565b61201b90600a612c04565b6120259087612c23565b612030906030612bbf565b905060008160f81b90508084848151811061205b57634e487b7160e01b600052603260045260246000fd5b60200101906001600160f81b031916908160001a90535061207d600a88612be4565b96505050611ff0565b5095945050505050565b6060848484846040516020016120a994939291906129fb565b6040516020818303038152906040529050949350505050565b8015610b5d576001600160a01b0383166120e957610b5d6001600160a01b03831682612359565b82611a786001600160a01b0382168484612472565b60006301ffc9a760e01b6001600160e01b0319831614806107305750506001600160e01b03191660009081526065602052604090205460ff1690565b60606000612149836002612c04565b612154906002612ba7565b67ffffffffffffffff81111561217a57634e487b7160e01b600052604160045260246000fd5b6040519080825280601f01601f1916602001820160405280156121a4576020820181803683370190505b509050600360fc1b816000815181106121cd57634e487b7160e01b600052603260045260246000fd5b60200101906001600160f81b031916908160001a905350600f60fb1b8160018151811061220a57634e487b7160e01b600052603260045260246000fd5b60200101906001600160f81b031916908160001a905350600061222e846002612c04565b612239906001612ba7565b90505b60018111156122cd576f181899199a1a9b1b9c1cb0b131b232b360811b85600f166010811061227b57634e487b7160e01b600052603260045260246000fd5b1a60f81b82828151811061229f57634e487b7160e01b600052603260045260246000fd5b60200101906001600160f81b031916908160001a90535060049490941c936122c681612c66565b905061223c565b5083156114d95760405162461bcd60e51b815260206004820181905260248201527f537472696e67733a20686578206c656e67746820696e73756666696369656e74604482015260640161083e565b600081815260d660205260409020546001600160a01b03161561235657600081815260d66020526040902080546001600160a01b03191690555b50565b804710156123a95760405162461bcd60e51b815260206004820152601d60248201527f416464726573733a20696e73756666696369656e742062616c616e6365000000604482015260640161083e565b6000826001600160a01b03168260405160006040518083038185875af1925050503d80600081146123f6576040519150601f19603f3d011682016040523d82523d6000602084013e6123fb565b606091505b5050905080610b5d5760405162461bcd60e51b815260206004820152603a60248201527f416464726573733a20756e61626c6520746f2073656e642076616c75652c207260448201527f6563697069656e74206d61792068617665207265766572746564000000000000606482015260840161083e565b604080516001600160a01b03848116602483015260448083018590528351808403909101815260649092018352602080830180516001600160e01b031663a9059cbb60e01b17905283518085019094528084527f5361666545524332303a206c6f772d6c6576656c2063616c6c206661696c656490840152610b5d9286929160009161250291851690849061257f565b805190915015610b5d5780806020019051810190612520919061283c565b610b5d5760405162461bcd60e51b815260206004820152602a60248201527f5361666545524332303a204552433230206f7065726174696f6e20646964206e6044820152691bdd081cdd58d8d9595960b21b606482015260840161083e565b606061258e8484600085612596565b949350505050565b6060824710156125f75760405162461bcd60e51b815260206004820152602660248201527f416464726573733a20696e73756666696369656e742062616c616e636520666f6044820152651c8818d85b1b60d21b606482015260840161083e565b843b6126455760405162461bcd60e51b815260206004820152601d60248201527f416464726573733a2063616c6c20746f206e6f6e2d636f6e7472616374000000604482015260640161083e565b600080866001600160a01b0316858760405161266191906129df565b60006040518083038185875af1925050503d806000811461269e576040519150601f19603f3d011682016040523d82523d6000602084013e6126a3565b606091505b50915091506126b38282866126be565b979650505050505050565b606083156126cd5750816114d9565b8251156126dd5782518084602001fd5b8160405162461bcd60e51b815260040161083e9190612af6565b82805461270390612c7d565b90600052602060002090601f016020900481019282612725576000855561276b565b82601f1061273e5782800160ff1982351617855561276b565b8280016001018555821561276b579182015b8281111561276b578235825591602001919060010190612750565b5061277792915061277b565b5090565b5b80821115612777576000815560010161277c565b6000602082840312156127a1578081fd5b81356114d981612cf9565b600080604083850312156127be578081fd5b82356127c981612cf9565b915060208301356127d981612cf9565b809150509250929050565b600080604083850312156127f6578182fd5b823561280181612cf9565b915060208301356127d981612d0e565b60008060408385031215612823578182fd5b823561282e81612cf9565b946020939093013593505050565b60006020828403121561284d578081fd5b81516114d981612d0e565b600060208284031215612869578081fd5b5035919050565b60008060408385031215612882578182fd5b8235915060208301356127d981612cf9565b6000602082840312156128a5578081fd5b81356001600160e01b0319811681146114d9578182fd5b600080602083850312156128ce578182fd5b823567ffffffffffffffff808211156128e5578384fd5b818501915085601f8301126128f8578384fd5b813581811115612906578485fd5b866020828501011115612917578485fd5b60209290920196919550909350505050565b60006020828403121561293a578081fd5b815167ffffffffffffffff80821115612951578283fd5b818401915084601f830112612964578283fd5b81518181111561297657612976612ce3565b604051601f8201601f19908116603f0116810190838211818310171561299e5761299e612ce3565b816040528281528760208487010111156129b6578586fd5b6126b3836020830160208801612c3a565b6000602082840312156129d8578081fd5b5051919050565b600082516129f1818460208701612c3a565b9190910192915050565b60008551612a0d818460208a01612c3a565b855190830190612a21818360208a01612c3a565b8551910190612a34818360208901612c3a565b8451910190612a47818360208801612c3a565b019695505050505050565b7f416363657373436f6e74726f6c3a206163636f756e7420000000000000000000815260008351612a8a816017850160208801612c3a565b7001034b99036b4b9b9b4b733903937b6329607d1b6017918401918201528351612abb816028840160208801612c3a565b01602801949350505050565b60208152816020820152818360408301376000818301604090810191909152601f909201601f19160101919050565b6020815260008251806020840152612b15816040850160208701612c3a565b601f01601f19169190910160400192915050565b60208082526035908201527f4d6978696e526f6c65733a2063616c6c657220646f6573206e6f74206861766560408201527420746865204c6f636b4d616e6167657220726f6c6560581b606082015260800190565b6020808252600f908201526e1313d0d2d7d11154149150d0551151608a1b604082015260600190565b60008219821115612bba57612bba612ccd565b500190565b600060ff821660ff84168060ff03821115612bdc57612bdc612ccd565b019392505050565b600082612bff57634e487b7160e01b81526012600452602481fd5b500490565b6000816000190483118215151615612c1e57612c1e612ccd565b500290565b600082821015612c3557612c35612ccd565b500390565b60005b83811015612c55578181015183820152602001612c3d565b83811115611a785750506000910152565b600081612c7557612c75612ccd565b506000190190565b600181811c90821680612c9157607f821691505b6020821081141561086257634e487b7160e01b600052602260045260246000fd5b6000600019821415612cc657612cc6612ccd565b5060010190565b634e487b7160e01b600052601160045260246000fd5b634e487b7160e01b600052604160045260246000fd5b6001600160a01b038116811461235657600080fd5b801515811461235657600080fdfeb309c40027c81d382c3b58d8de24207a34b27e1db369b1434e4a11311f154b5eb89cdd26cddd51301940bf2715f765b626b8a5a9e2681ac62dc83cc2db2530c0a26469706673582212200936d023c144abd3e17c41dbaae3b95777be81e54a84df4446989e7eb581571a64736f6c63430008040033",
  "linkReferences": {},
  "deployedLinkReferences": {}
}