{
  "_format": "hh-sol-artifact-1",
  "contractName": "Vault",
  "sourceName": "contracts/v3/Vault.sol",
  "abi": [
    {
      "inputs": [
        {
          "internalType": "string",
          "name": "_name",
          "type": "string"
        },
        {
          "internalType": "string",
          "name": "_symbol",
          "type": "string"
        },
        {
          "internalType": "address",
          "name": "_manager",
          "type": "address"
        }
      ],
      "stateMutability": "nonpayable",
      "type": "constructor"
    },
    {
      "anonymous": false,
      "inputs": [
        {
          "indexed": true,
          "internalType": "address",
          "name": "owner",
          "type": "address"
        },
        {
          "indexed": true,
          "internalType": "address",
          "name": "spender",
          "type": "address"
        },
        {
          "indexed": false,
          "internalType": "uint256",
          "name": "value",
          "type": "uint256"
        }
      ],
      "name": "Approval",
      "type": "event"
    },
    {
      "anonymous": false,
      "inputs": [
        {
          "indexed": true,
          "internalType": "address",
          "name": "account",
          "type": "address"
        },
        {
          "indexed": false,
          "internalType": "uint256",
          "name": "amount",
          "type": "uint256"
        }
      ],
      "name": "Deposit",
      "type": "event"
    },
    {
      "anonymous": false,
      "inputs": [
        {
          "indexed": true,
          "internalType": "address",
          "name": "token",
          "type": "address"
        },
        {
          "indexed": false,
          "internalType": "uint256",
          "name": "amount",
          "type": "uint256"
        }
      ],
      "name": "Earn",
      "type": "event"
    },
    {
      "anonymous": false,
      "inputs": [
        {
          "indexed": true,
          "internalType": "address",
          "name": "from",
          "type": "address"
        },
        {
          "indexed": true,
          "internalType": "address",
          "name": "to",
          "type": "address"
        },
        {
          "indexed": false,
          "internalType": "uint256",
          "name": "value",
          "type": "uint256"
        },
        {
          "indexed": false,
          "internalType": "bytes",
          "name": "data",
          "type": "bytes"
        }
      ],
      "name": "Transfer",
      "type": "event"
    },
    {
      "anonymous": false,
      "inputs": [
        {
          "indexed": true,
          "internalType": "address",
          "name": "from",
          "type": "address"
        },
        {
          "indexed": true,
          "internalType": "address",
          "name": "to",
          "type": "address"
        },
        {
          "indexed": false,
          "internalType": "uint256",
          "name": "value",
          "type": "uint256"
        }
      ],
      "name": "Transfer",
      "type": "event"
    },
    {
      "anonymous": false,
      "inputs": [
        {
          "indexed": true,
          "internalType": "address",
          "name": "account",
          "type": "address"
        },
        {
          "indexed": false,
          "internalType": "uint256",
          "name": "amount",
          "type": "uint256"
        }
      ],
      "name": "Withdraw",
      "type": "event"
    },
    {
      "inputs": [],
      "name": "MAX",
      "outputs": [
        {
          "internalType": "uint256",
          "name": "",
          "type": "uint256"
        }
      ],
      "stateMutability": "view",
      "type": "function"
    },
    {
      "inputs": [
        {
          "internalType": "address",
          "name": "owner",
          "type": "address"
        },
        {
          "internalType": "address",
          "name": "spender",
          "type": "address"
        }
      ],
      "name": "allowance",
      "outputs": [
        {
          "internalType": "uint256",
          "name": "",
          "type": "uint256"
        }
      ],
      "stateMutability": "view",
      "type": "function"
    },
    {
      "inputs": [
        {
          "internalType": "address",
          "name": "spender",
          "type": "address"
        },
        {
          "internalType": "uint256",
          "name": "amount",
          "type": "uint256"
        }
      ],
      "name": "approve",
      "outputs": [
        {
          "internalType": "bool",
          "name": "",
          "type": "bool"
        }
      ],
      "stateMutability": "nonpayable",
      "type": "function"
    },
    {
      "inputs": [
        {
          "internalType": "address",
          "name": "_token",
          "type": "address"
        }
      ],
      "name": "available",
      "outputs": [
        {
          "internalType": "uint256",
          "name": "",
          "type": "uint256"
        }
      ],
      "stateMutability": "view",
      "type": "function"
    },
    {
      "inputs": [],
      "name": "balance",
      "outputs": [
        {
          "internalType": "uint256",
          "name": "_balance",
          "type": "uint256"
        }
      ],
      "stateMutability": "view",
      "type": "function"
    },
    {
      "inputs": [
        {
          "internalType": "address",
          "name": "account",
          "type": "address"
        }
      ],
      "name": "balanceOf",
      "outputs": [
        {
          "internalType": "uint256",
          "name": "",
          "type": "uint256"
        }
      ],
      "stateMutability": "view",
      "type": "function"
    },
    {
      "inputs": [],
      "name": "balanceOfThis",
      "outputs": [
        {
          "internalType": "uint256",
          "name": "_balance",
          "type": "uint256"
        }
      ],
      "stateMutability": "view",
      "type": "function"
    },
    {
      "inputs": [],
      "name": "decimals",
      "outputs": [
        {
          "internalType": "uint8",
          "name": "",
          "type": "uint8"
        }
      ],
      "stateMutability": "view",
      "type": "function"
    },
    {
      "inputs": [
        {
          "internalType": "address",
          "name": "spender",
          "type": "address"
        },
        {
          "internalType": "uint256",
          "name": "subtractedValue",
          "type": "uint256"
        }
      ],
      "name": "decreaseAllowance",
      "outputs": [
        {
          "internalType": "bool",
          "name": "",
          "type": "bool"
        }
      ],
      "stateMutability": "nonpayable",
      "type": "function"
    },
    {
      "inputs": [
        {
          "internalType": "address",
          "name": "spender",
          "type": "address"
        },
        {
          "internalType": "uint256",
          "name": "subtractedValue",
          "type": "uint256"
        }
      ],
      "name": "decreaseApproval",
      "outputs": [
        {
          "internalType": "bool",
          "name": "",
          "type": "bool"
        }
      ],
      "stateMutability": "nonpayable",
      "type": "function"
    },
    {
      "inputs": [
        {
          "internalType": "address",
          "name": "_token",
          "type": "address"
        },
        {
          "internalType": "uint256",
          "name": "_amount",
          "type": "uint256"
        }
      ],
      "name": "deposit",
      "outputs": [
        {
          "internalType": "uint256",
          "name": "_shares",
          "type": "uint256"
        }
      ],
      "stateMutability": "nonpayable",
      "type": "function"
    },
    {
      "inputs": [
        {
          "internalType": "address[]",
          "name": "_tokens",
          "type": "address[]"
        },
        {
          "internalType": "uint256[]",
          "name": "_amounts",
          "type": "uint256[]"
        }
      ],
      "name": "depositMultiple",
      "outputs": [
        {
          "internalType": "uint256",
          "name": "_shares",
          "type": "uint256"
        }
      ],
      "stateMutability": "nonpayable",
      "type": "function"
    },
    {
      "inputs": [
        {
          "internalType": "address",
          "name": "_token",
          "type": "address"
        },
        {
          "internalType": "address",
          "name": "_strategy",
          "type": "address"
        }
      ],
      "name": "earn",
      "outputs": [],
      "stateMutability": "nonpayable",
      "type": "function"
    },
    {
      "inputs": [],
      "name": "gauge",
      "outputs": [
        {
          "internalType": "address",
          "name": "",
          "type": "address"
        }
      ],
      "stateMutability": "view",
      "type": "function"
    },
    {
      "inputs": [],
      "name": "getPricePerFullShare",
      "outputs": [
        {
          "internalType": "uint256",
          "name": "",
          "type": "uint256"
        }
      ],
      "stateMutability": "view",
      "type": "function"
    },
    {
      "inputs": [],
      "name": "getTokens",
      "outputs": [
        {
          "internalType": "address[]",
          "name": "",
          "type": "address[]"
        }
      ],
      "stateMutability": "view",
      "type": "function"
    },
    {
      "inputs": [
        {
          "internalType": "address",
          "name": "spender",
          "type": "address"
        },
        {
          "internalType": "uint256",
          "name": "addedValue",
          "type": "uint256"
        }
      ],
      "name": "increaseAllowance",
      "outputs": [
        {
          "internalType": "bool",
          "name": "",
          "type": "bool"
        }
      ],
      "stateMutability": "nonpayable",
      "type": "function"
    },
    {
      "inputs": [
        {
          "internalType": "address",
          "name": "spender",
          "type": "address"
        },
        {
          "internalType": "uint256",
          "name": "addedValue",
          "type": "uint256"
        }
      ],
      "name": "increaseApproval",
      "outputs": [
        {
          "internalType": "bool",
          "name": "",
          "type": "bool"
        }
      ],
      "stateMutability": "nonpayable",
      "type": "function"
    },
    {
      "inputs": [],
      "name": "manager",
      "outputs": [
        {
          "internalType": "contract IManager",
          "name": "",
          "type": "address"
        }
      ],
      "stateMutability": "view",
      "type": "function"
    },
    {
      "inputs": [],
      "name": "min",
      "outputs": [
        {
          "internalType": "uint256",
          "name": "",
          "type": "uint256"
        }
      ],
      "stateMutability": "view",
      "type": "function"
    },
    {
      "inputs": [],
      "name": "name",
      "outputs": [
        {
          "internalType": "string",
          "name": "",
          "type": "string"
        }
      ],
      "stateMutability": "view",
      "type": "function"
    },
    {
      "inputs": [
        {
          "internalType": "address",
          "name": "_gauge",
          "type": "address"
        }
      ],
      "name": "setGauge",
      "outputs": [],
      "stateMutability": "nonpayable",
      "type": "function"
    },
    {
      "inputs": [
        {
          "internalType": "uint256",
          "name": "_min",
          "type": "uint256"
        }
      ],
      "name": "setMin",
      "outputs": [],
      "stateMutability": "nonpayable",
      "type": "function"
    },
    {
      "inputs": [
        {
          "internalType": "uint256",
          "name": "_totalDepositCap",
          "type": "uint256"
        }
      ],
      "name": "setTotalDepositCap",
      "outputs": [],
      "stateMutability": "nonpayable",
      "type": "function"
    },
    {
      "inputs": [
        {
          "internalType": "address",
          "name": "_token0",
          "type": "address"
        },
        {
          "internalType": "address",
          "name": "_token1",
          "type": "address"
        },
        {
          "internalType": "uint256",
          "name": "_expectedAmount",
          "type": "uint256"
        }
      ],
      "name": "swap",
      "outputs": [
        {
          "internalType": "uint256",
          "name": "_balance",
          "type": "uint256"
        }
      ],
      "stateMutability": "nonpayable",
      "type": "function"
    },
    {
      "inputs": [],
      "name": "symbol",
      "outputs": [
        {
          "internalType": "string",
          "name": "",
          "type": "string"
        }
      ],
      "stateMutability": "view",
      "type": "function"
    },
    {
      "inputs": [],
      "name": "totalDepositCap",
      "outputs": [
        {
          "internalType": "uint256",
          "name": "",
          "type": "uint256"
        }
      ],
      "stateMutability": "view",
      "type": "function"
    },
    {
      "inputs": [],
      "name": "totalSupply",
      "outputs": [
        {
          "internalType": "uint256",
          "name": "",
          "type": "uint256"
        }
      ],
      "stateMutability": "view",
      "type": "function"
    },
    {
      "inputs": [
        {
          "internalType": "address",
          "name": "recipient",
          "type": "address"
        },
        {
          "internalType": "uint256",
          "name": "amount",
          "type": "uint256"
        }
      ],
      "name": "transfer",
      "outputs": [
        {
          "internalType": "bool",
          "name": "",
          "type": "bool"
        }
      ],
      "stateMutability": "nonpayable",
      "type": "function"
    },
    {
      "inputs": [
        {
          "internalType": "address",
          "name": "_to",
          "type": "address"
        },
        {
          "internalType": "uint256",
          "name": "_value",
          "type": "uint256"
        },
        {
          "internalType": "bytes",
          "name": "_data",
          "type": "bytes"
        }
      ],
      "name": "transferAndCall",
      "outputs": [
        {
          "internalType": "bool",
          "name": "success",
          "type": "bool"
        }
      ],
      "stateMutability": "nonpayable",
      "type": "function"
    },
    {
      "inputs": [
        {
          "internalType": "address",
          "name": "sender",
          "type": "address"
        },
        {
          "internalType": "address",
          "name": "recipient",
          "type": "address"
        },
        {
          "internalType": "uint256",
          "name": "amount",
          "type": "uint256"
        }
      ],
      "name": "transferFrom",
      "outputs": [
        {
          "internalType": "bool",
          "name": "",
          "type": "bool"
        }
      ],
      "stateMutability": "nonpayable",
      "type": "function"
    },
    {
      "inputs": [
        {
          "internalType": "uint256",
          "name": "_shares",
          "type": "uint256"
        },
        {
          "internalType": "address",
          "name": "_output",
          "type": "address"
        }
      ],
      "name": "withdraw",
      "outputs": [],
      "stateMutability": "nonpayable",
      "type": "function"
    },
    {
      "inputs": [
        {
          "internalType": "address",
          "name": "_output",
          "type": "address"
        }
      ],
      "name": "withdrawAll",
      "outputs": [],
      "stateMutability": "nonpayable",
      "type": "function"
    },
    {
      "inputs": [
        {
          "internalType": "uint256",
          "name": "_amount",
          "type": "uint256"
        }
      ],
      "name": "withdrawFee",
      "outputs": [
        {
          "internalType": "uint256",
          "name": "",
          "type": "uint256"
        }
      ],
      "stateMutability": "view",
      "type": "function"
    }
  ],
  "bytecode": "0x60a06040523480156200001157600080fd5b5060405162003c0438038062003c04833981810160405260608110156200003757600080fd5b81019080805160405193929190846401000000008211156200005857600080fd5b9083019060208201858111156200006e57600080fd5b82516401000000008111828201881017156200008957600080fd5b82525081516020918201929091019080838360005b83811015620000b85781810151838201526020016200009e565b50505050905090810190601f168015620000e65780820380516001836020036101000a031916815260200191505b50604052602001805160405193929190846401000000008211156200010a57600080fd5b9083019060208201858111156200012057600080fd5b82516401000000008111828201881017156200013b57600080fd5b82525081516020918201929091019080838360005b838110156200016a57818101518382015260200162000150565b50505050905090810190601f168015620001985780820380516001836020036101000a031916815260200191505b506040526020908101518551909350859250849183918391620001c19160039185019062000218565b508051620001d790600490602084019062000218565b505060058054601260ff1990911617905550505060601b6001600160601b031916608052505061251c6006556a084595161401484a000000600755620002b4565b828054600181600116156101000203166002900490600052602060002090601f016020900481019282601f106200025b57805160ff19168380011785556200028b565b828001600101855582156200028b579182015b828111156200028b5782518255916020019190600101906200026e565b50620002999291506200029d565b5090565b5b808211156200029957600081556001016200029e565b60805160601c6138b0620003546000398061082252806108cc52806109de5280610b14528061108a528061114a5280611260528061130a52806113e952806116ec528061171052806117d052806118da52806119845280611a635280611b235280611bf15280611cca528061202752806122b552806123f3528061251952806125b15280612671528061274252806129725280612a3252506138b06000f3fe608060405234801561001057600080fd5b50600436106102055760003560e01c806377c7b8fc1161011a578063b69ef8a8116100ad578063dd62ed3e1161007c578063dd62ed3e14610770578063df791e501461079e578063ebbf5c17146107d4578063f8897945146107f1578063fa09e630146107f957610205565b8063b69ef8a814610717578063be3576161461071f578063d49d51811461073c578063d73dd6231461074457610205565b8063a457c2d7116100e9578063a457c2d71461065f578063a6f19c841461068b578063a9059cbb14610693578063aa6ca808146106bf57610205565b806377c7b8fc14610589578063797e566c1461059157806395d89b411461064f578063999eb6b11461065757610205565b80634000aea01161019d57806355a68ed31161016c57806355a68ed3146104db5780635db88e851461050157806366188463146105095780636bc9a5a91461053557806370a082311461056357610205565b80634000aea0146103b557806345dc3dd81461046e57806347e7ef241461048b578063481c6a75146104b757610205565b806318160ddd116101d957806318160ddd1461032d57806323b872dd14610335578063313ce5671461036b578063395093511461038957610205565b8062f714ce1461020a57806306fdde0314610238578063095ea7b3146102b557806310098ad5146102f5575b600080fd5b6102366004803603604081101561022057600080fd5b50803590602001356001600160a01b031661081f565b005b610240610d86565b6040805160208082528351818301528351919283929083019185019080838360005b8381101561027a578181015183820152602001610262565b50505050905090810190601f1680156102a75780820380516001836020036101000a031916815260200191505b509250505060405180910390f35b6102e1600480360360408110156102cb57600080fd5b506001600160a01b038135169060200135610e1d565b604080519115158252519081900360200190f35b61031b6004803603602081101561030b57600080fd5b50356001600160a01b0316610e3b565b60408051918252519081900360200190f35b61031b610ec8565b6102e16004803603606081101561034b57600080fd5b506001600160a01b03813581169160208101359091169060400135610ece565b610373610f56565b6040805160ff9092168252519081900360200190f35b6102e16004803603604081101561039f57600080fd5b506001600160a01b038135169060200135610f5f565b6102e1600480360360608110156103cb57600080fd5b6001600160a01b0382351691602081013591810190606081016040820135600160201b8111156103fa57600080fd5b82018360208201111561040c57600080fd5b803590602001918460018302840111600160201b8311171561042d57600080fd5b91908080601f016020809104026020016040519081016040528093929190818152602001838380828437600092019190915250929550610fad945050505050565b6102366004803603602081101561048457600080fd5b5035611088565b61031b600480360360408110156104a157600080fd5b506001600160a01b03813516906020013561125b565b6104bf6116ea565b604080516001600160a01b039092168252519081900360200190f35b610236600480360360208110156104f157600080fd5b50356001600160a01b031661170e565b61031b6118c5565b6102e16004803603604081101561051f57600080fd5b506001600160a01b0381351690602001356118cb565b6102366004803603604081101561054b57600080fd5b506001600160a01b03813581169160200135166118d7565b61031b6004803603602081101561057957600080fd5b50356001600160a01b0316611ebe565b61031b611ed9565b61031b600480360360408110156105a757600080fd5b810190602081018135600160201b8111156105c157600080fd5b8201836020820111156105d357600080fd5b803590602001918460208302840111600160201b831117156105f457600080fd5b919390929091602081019035600160201b81111561061157600080fd5b82018360208201111561062357600080fd5b803590602001918460208302840111600160201b8311171561064457600080fd5b509092509050611f18565b610240611fc0565b61031b612021565b6102e16004803603604081101561067557600080fd5b506001600160a01b038135169060200135612221565b6104bf612289565b6102e1600480360360408110156106a957600080fd5b506001600160a01b03813516906020013561229d565b6106c76122b1565b60408051602080825283518183015283519192839290830191858101910280838360005b838110156107035781810151838201526020016106eb565b505050509050019250505060405180910390f35b61031b6123ec565b61031b6004803603602081101561073557600080fd5b503561250b565b61031b612570565b6102e16004803603604081101561075a57600080fd5b506001600160a01b038135169060200135612576565b61031b6004803603604081101561078657600080fd5b506001600160a01b0381358116916020013516612582565b61031b600480360360608110156107b457600080fd5b506001600160a01b038135811691602081013590911690604001356125ad565b610236600480360360208110156107ea57600080fd5b5035612970565b61031b612b04565b6102366004803603602081101561080f57600080fd5b50356001600160a01b0316612b0a565b807f00000000000000000000000000000000000000000000000000000000000000006001600160a01b031663e744092e826040518263ffffffff1660e01b815260040180826001600160a01b0316815260200191505060206040518083038186803b15801561088d57600080fd5b505afa1580156108a1573d6000803e3d6000fd5b505050506040513d60208110156108b757600080fd5b5051801561096e5750306001600160a01b03167f00000000000000000000000000000000000000000000000000000000000000006001600160a01b031663a622ee7c836040518263ffffffff1660e01b815260040180826001600160a01b0316815260200191505060206040518083038186803b15801561093757600080fd5b505afa15801561094b573d6000803e3d6000fd5b505050506040513d602081101561096157600080fd5b50516001600160a01b0316145b6109a9576040805162461bcd60e51b815260206004820152600760248201526610afba37b5b2b760c91b604482015290519081900360640190fd5b60006109ce6109b6610ec8565b6109c8866109c26123ec565b90612b1f565b90612b78565b90506109da3385612bdf565b60007f00000000000000000000000000000000000000000000000000000000000000006001600160a01b031663825139096040518163ffffffff1660e01b815260040160206040518083038186803b158015610a3557600080fd5b505afa158015610a49573d6000803e3d6000fd5b505050506040513d6020811015610a5f57600080fd5b505190508015610a8b576000610a7b6127106109c88585612b1f565b9050610a878382612cdb565b9250505b6000846001600160a01b03166370a08231306040518263ffffffff1660e01b815260040180826001600160a01b0316815260200191505060206040518083038186803b158015610ada57600080fd5b505afa158015610aee573d6000803e3d6000fd5b505050506040513d6020811015610b0457600080fd5b5051905082811015610d345760007f00000000000000000000000000000000000000000000000000000000000000006001600160a01b031663da8c229e306040518263ffffffff1660e01b815260040180826001600160a01b0316815260200191505060206040518083038186803b158015610b7f57600080fd5b505afa158015610b93573d6000803e3d6000fd5b505050506040513d6020811015610ba957600080fd5b505190506000610bb98584612cdb565b90506000826001600160a01b031663d9f9027f6040518163ffffffff1660e01b815260040160206040518083038186803b158015610bf657600080fd5b505afa158015610c0a573d6000803e3d6000fd5b505050506040513d6020811015610c2057600080fd5b50511115610c9857816001600160a01b031663f3fef3a388836040518363ffffffff1660e01b815260040180836001600160a01b0316815260200182815260200192505050600060405180830381600087803b158015610c7f57600080fd5b505af1158015610c93573d6000803e3d6000fd5b505050505b6000876001600160a01b03166370a08231306040518263ffffffff1660e01b815260040180826001600160a01b0316815260200191505060206040518083038186803b158015610ce757600080fd5b505afa158015610cfb573d6000803e3d6000fd5b505050506040513d6020811015610d1157600080fd5b505190506000610d218286612cdb565b905082811015610d2f578196505b505050505b610d486001600160a01b0386163385612d38565b60408051848152905133917f884edad9ce6fa2440d8a54cc123490eb96d2768479d49ff9c7366125a9424364919081900360200190a2505050505050565b60038054604080516020601f6002600019610100600188161502019095169490940493840181900481028201810190925282815260609390929091830182828015610e125780601f10610de757610100808354040283529160200191610e12565b820191906000526020600020905b815481529060010190602001808311610df557829003601f168201915b505050505090505b90565b6000610e31610e2a612d8f565b8484612d93565b5060015b92915050565b6000610e356127106109c8600654856001600160a01b03166370a08231306040518263ffffffff1660e01b815260040180826001600160a01b0316815260200191505060206040518083038186803b158015610e9657600080fd5b505afa158015610eaa573d6000803e3d6000fd5b505050506040513d6020811015610ec057600080fd5b505190612b1f565b60025490565b6000610edb848484612ded565b610f4b84610ee7612d8f565b610f468560405180606001604052806028815260200161379a602891396001600160a01b038a16600090815260016020526040812090610f25612d8f565b6001600160a01b031681526020810191909152604001600020549190612e47565b612d93565b5060015b9392505050565b60055460ff1690565b6000610e31610f6c612d8f565b84610f468560016000610f7d612d8f565b6001600160a01b03908116825260208083019390935260409182016000908120918c168152925290205490612ede565b6000610fb9848461229d565b50836001600160a01b0316336001600160a01b03167fe19260aff97b920c7df27010903aeb9c8d2be5d310a2c67824cf3f15396e4c1685856040518083815260200180602001828103825283818151815260200191508051906020019080838360005b8381101561103457818101518382015260200161101c565b50505050905090810190601f1680156110615780820380516001836020036101000a031916815260200191505b50935050505060405180910390a361107884612f38565b15610f4b57610f4b848484612f3e565b7f00000000000000000000000000000000000000000000000000000000000000006001600160a01b031663b9b8af0b6040518163ffffffff1660e01b815260040160206040518083038186803b1580156110e157600080fd5b505afa1580156110f5573d6000803e3d6000fd5b505050506040513d602081101561110b57600080fd5b505115611148576040805162461bcd60e51b81526020600482015260066024820152651a185b1d195960d21b604482015290519081900360640190fd5b7f00000000000000000000000000000000000000000000000000000000000000006001600160a01b0316631fe4a6866040518163ffffffff1660e01b815260040160206040518083038186803b1580156111a157600080fd5b505afa1580156111b5573d6000803e3d6000fd5b505050506040513d60208110156111cb57600080fd5b50516001600160a01b03163314611217576040805162461bcd60e51b815260206004820152600b60248201526a085cdd1c985d1959da5cdd60aa1b604482015290519081900360640190fd5b612710811115611256576040805162461bcd60e51b815260206004820152600560248201526410afb6b4b760d91b604482015290519081900360640190fd5b600655565b6000827f00000000000000000000000000000000000000000000000000000000000000006001600160a01b031663e744092e826040518263ffffffff1660e01b815260040180826001600160a01b0316815260200191505060206040518083038186803b1580156112cb57600080fd5b505afa1580156112df573d6000803e3d6000fd5b505050506040513d60208110156112f557600080fd5b505180156113ac5750306001600160a01b03167f00000000000000000000000000000000000000000000000000000000000000006001600160a01b031663a622ee7c836040518263ffffffff1660e01b815260040180826001600160a01b0316815260200191505060206040518083038186803b15801561137557600080fd5b505afa158015611389573d6000803e3d6000fd5b505050506040513d602081101561139f57600080fd5b50516001600160a01b0316145b6113e7576040805162461bcd60e51b815260206004820152600760248201526610afba37b5b2b760c91b604482015290519081900360640190fd5b7f00000000000000000000000000000000000000000000000000000000000000006001600160a01b031663b9b8af0b6040518163ffffffff1660e01b815260040160206040518083038186803b15801561144057600080fd5b505afa158015611454573d6000803e3d6000fd5b505050506040513d602081101561146a57600080fd5b5051156114a7576040805162461bcd60e51b81526020600482015260066024820152651a185b1d195960d21b604482015290519081900360640190fd5b600083116114e7576040805162461bcd60e51b81526020600482015260086024820152670857d85b5bdd5b9d60c21b604482015290519081900360640190fd5b60006114f16123ec565b90506000856001600160a01b03166370a08231306040518263ffffffff1660e01b815260040180826001600160a01b0316815260200191505060206040518083038186803b15801561154257600080fd5b505afa158015611556573d6000803e3d6000fd5b505050506040513d602081101561156c57600080fd5b505190506115856001600160a01b038716333088613018565b61160881876001600160a01b03166370a08231306040518263ffffffff1660e01b815260040180826001600160a01b0316815260200191505060206040518083038186803b1580156115d657600080fd5b505afa1580156115ea573d6000803e3d6000fd5b505050506040513d602081101561160057600080fd5b505190612cdb565b945084156116495761161a8686613072565b94506000611626610ec8565b111561164557611642826109c861163b610ec8565b8890612b1f565b94505b8493505b83156116e1576116593385613104565b600754611664610ec8565b11156116aa576040805162461bcd60e51b815260206004820152601060248201526f03e746f74616c4465706f7369744361760841b604482015290519081900360640190fd5b60408051858152905133917fe1fffcc4923d04b559f4d29a8bfc6cda04eb5b0d3c460751c2402c5c5cc9109c919081900360200190a25b50505092915050565b7f000000000000000000000000000000000000000000000000000000000000000081565b7f00000000000000000000000000000000000000000000000000000000000000006001600160a01b031663b9b8af0b6040518163ffffffff1660e01b815260040160206040518083038186803b15801561176757600080fd5b505afa15801561177b573d6000803e3d6000fd5b505050506040513d602081101561179157600080fd5b5051156117ce576040805162461bcd60e51b81526020600482015260066024820152651a185b1d195960d21b604482015290519081900360640190fd5b7f00000000000000000000000000000000000000000000000000000000000000006001600160a01b0316631fe4a6866040518163ffffffff1660e01b815260040160206040518083038186803b15801561182757600080fd5b505afa15801561183b573d6000803e3d6000fd5b505050506040513d602081101561185157600080fd5b50516001600160a01b0316331461189d576040805162461bcd60e51b815260206004820152600b60248201526a085cdd1c985d1959da5cdd60aa1b604482015290519081900360640190fd5b600580546001600160a01b0390921661010002610100600160a81b0319909216919091179055565b60075481565b6000610f4f8383612221565b817f00000000000000000000000000000000000000000000000000000000000000006001600160a01b031663e744092e826040518263ffffffff1660e01b815260040180826001600160a01b0316815260200191505060206040518083038186803b15801561194557600080fd5b505afa158015611959573d6000803e3d6000fd5b505050506040513d602081101561196f57600080fd5b50518015611a265750306001600160a01b03167f00000000000000000000000000000000000000000000000000000000000000006001600160a01b031663a622ee7c836040518263ffffffff1660e01b815260040180826001600160a01b0316815260200191505060206040518083038186803b1580156119ef57600080fd5b505afa158015611a03573d6000803e3d6000fd5b505050506040513d6020811015611a1957600080fd5b50516001600160a01b0316145b611a61576040805162461bcd60e51b815260206004820152600760248201526610afba37b5b2b760c91b604482015290519081900360640190fd5b7f00000000000000000000000000000000000000000000000000000000000000006001600160a01b031663b9b8af0b6040518163ffffffff1660e01b815260040160206040518083038186803b158015611aba57600080fd5b505afa158015611ace573d6000803e3d6000fd5b505050506040513d6020811015611ae457600080fd5b505115611b21576040805162461bcd60e51b81526020600482015260066024820152651a185b1d195960d21b604482015290519081900360640190fd5b7f00000000000000000000000000000000000000000000000000000000000000006001600160a01b0316634bdaeac16040518163ffffffff1660e01b815260040160206040518083038186803b158015611b7a57600080fd5b505afa158015611b8e573d6000803e3d6000fd5b505050506040513d6020811015611ba457600080fd5b50516001600160a01b03163314611bef576040805162461bcd60e51b815260206004820152600a60248201526910b430b93b32b9ba32b960b11b604482015290519081900360640190fd5b7f00000000000000000000000000000000000000000000000000000000000000006001600160a01b0316637ae6c8d4836040518263ffffffff1660e01b815260040180826001600160a01b0316815260200191505060206040518083038186803b158015611c5c57600080fd5b505afa158015611c70573d6000803e3d6000fd5b505050506040513d6020811015611c8657600080fd5b5051611cc6576040805162461bcd60e51b815260206004820152600a602482015269215f737472617465677960b01b604482015290519081900360640190fd5b60007f00000000000000000000000000000000000000000000000000000000000000006001600160a01b031663da8c229e306040518263ffffffff1660e01b815260040180826001600160a01b0316815260200191505060206040518083038186803b158015611d3557600080fd5b505afa158015611d49573d6000803e3d6000fd5b505050506040513d6020811015611d5f57600080fd5b5051604080516371f4f3fb60e01b815290519192506001600160a01b038316916371f4f3fb91600480820192602092909190829003018186803b158015611da557600080fd5b505afa158015611db9573d6000803e3d6000fd5b505050506040513d6020811015611dcf57600080fd5b505115611eb8576000611de185610e3b565b9050611df76001600160a01b0386168383612d38565b816001600160a01b03166338e886108587846040518463ffffffff1660e01b815260040180846001600160a01b03168152602001836001600160a01b031681526020018281526020019350505050600060405180830381600087803b158015611e5f57600080fd5b505af1158015611e73573d6000803e3d6000fd5b50506040805184815290516001600160a01b03891693507f9b883692663cf2cc636d9eda0392f2c7ff1a3163a5cef27fa1f8bb438ec73ab592509081900360200190a2505b50505050565b6001600160a01b031660009081526020819052604090205490565b600080611ee4610ec8565b1115611f1057611f09611ef5610ec8565b6109c8670de0b6b3a76400006109c26123ec565b9050610e1a565b611f096123ec565b6000838214611f58576040805162461bcd60e51b8152602060048201526007602482015266042d8cadccee8d60cb1b604482015290519081900360640190fd5b60005b60ff8116831115611fb757611fad611fa687878460ff16818110611f7b57fe5b905060200201356001600160a01b031686868560ff16818110611f9a57fe5b9050602002013561125b565b8390612ede565b9150600101611f5b565b50949350505050565b60048054604080516020601f6002600019610100600188161502019095169490940493840181900481028201810190925282815260609390929091830182828015610e125780601f10610de757610100808354040283529160200191610e12565b600060607f00000000000000000000000000000000000000000000000000000000000000006001600160a01b031663450efe21306040518263ffffffff1660e01b815260040180826001600160a01b0316815260200191505060006040518083038186803b15801561209257600080fd5b505afa1580156120a6573d6000803e3d6000fd5b505050506040513d6000823e601f3d908101601f1916820160405260208110156120cf57600080fd5b8101908080516040519392919084600160201b8211156120ee57600080fd5b90830190602082018581111561210357600080fd5b82518660208202830111600160201b8211171561211f57600080fd5b82525081516020918201928201910280838360005b8381101561214c578181015183820152602001612134565b50505050905001604052505050905060005b81518160ff16101561221c576000828260ff168151811061217b57fe5b6020026020010151905061221161220a82836001600160a01b03166370a08231306040518263ffffffff1660e01b815260040180826001600160a01b0316815260200191505060206040518083038186803b1580156121d957600080fd5b505afa1580156121ed573d6000803e3d6000fd5b505050506040513d602081101561220357600080fd5b5051613072565b8590612ede565b93505060010161215e565b505090565b6000610e3161222e612d8f565b84610f46856040518060600160405280602581526020016138566025913960016000612258612d8f565b6001600160a01b03908116825260208083019390935260409182016000908120918d16815292529020549190612e47565b60055461010090046001600160a01b031681565b6000610e316122aa612d8f565b8484612ded565b60607f00000000000000000000000000000000000000000000000000000000000000006001600160a01b031663450efe21306040518263ffffffff1660e01b815260040180826001600160a01b0316815260200191505060006040518083038186803b15801561232057600080fd5b505afa158015612334573d6000803e3d6000fd5b505050506040513d6000823e601f3d908101601f19168201604052602081101561235d57600080fd5b8101908080516040519392919084600160201b82111561237c57600080fd5b90830190602082018581111561239157600080fd5b82518660208202830111600160201b821117156123ad57600080fd5b82525081516020918201928201910280838360005b838110156123da5781810151838201526020016123c2565b50505050905001604052505050905090565b60006125067f00000000000000000000000000000000000000000000000000000000000000006001600160a01b031663da8c229e306040518263ffffffff1660e01b815260040180826001600160a01b0316815260200191505060206040518083038186803b15801561245e57600080fd5b505afa158015612472573d6000803e3d6000fd5b505050506040513d602081101561248857600080fd5b50516040805163722713f760e01b815290516001600160a01b039092169163722713f791600480820192602092909190829003018186803b1580156124cc57600080fd5b505afa1580156124e0573d6000803e3d6000fd5b505050506040513d60208110156124f657600080fd5b5051612500612021565b90612ede565b905090565b6000610e356127106109c8847f00000000000000000000000000000000000000000000000000000000000000006001600160a01b031663825139096040518163ffffffff1660e01b815260040160206040518083038186803b158015610e9657600080fd5b61271081565b6000610f4f8383610f5f565b6001600160a01b03918216600090815260016020908152604080832093909416825291909152205490565b60007f00000000000000000000000000000000000000000000000000000000000000006001600160a01b031663b9b8af0b6040518163ffffffff1660e01b815260040160206040518083038186803b15801561260857600080fd5b505afa15801561261c573d6000803e3d6000fd5b505050506040513d602081101561263257600080fd5b50511561266f576040805162461bcd60e51b81526020600482015260066024820152651a185b1d195960d21b604482015290519081900360640190fd5b7f00000000000000000000000000000000000000000000000000000000000000006001600160a01b0316631fe4a6866040518163ffffffff1660e01b815260040160206040518083038186803b1580156126c857600080fd5b505afa1580156126dc573d6000803e3d6000fd5b505050506040513d60208110156126f257600080fd5b50516001600160a01b0316331461273e576040805162461bcd60e51b815260206004820152600b60248201526a085cdd1c985d1959da5cdd60aa1b604482015290519081900360640190fd5b60007f00000000000000000000000000000000000000000000000000000000000000006001600160a01b031663da8c229e306040518263ffffffff1660e01b815260040180826001600160a01b0316815260200191505060206040518083038186803b1580156127ad57600080fd5b505afa1580156127c1573d6000803e3d6000fd5b505050506040513d60208110156127d757600080fd5b5051604080516306e0b4f960e41b815230600482015290516001600160a01b0390921691636e0b4f9091602480820192602092909190829003018186803b15801561282157600080fd5b505afa158015612835573d6000803e3d6000fd5b505050506040513d602081101561284b57600080fd5b5051604080516370a0823160e01b815230600482015290519192506001600160a01b038716916370a0823191602480820192602092909190829003018186803b15801561289757600080fd5b505afa1580156128ab573d6000803e3d6000fd5b505050506040513d60208110156128c157600080fd5b505191506128d96001600160a01b0386168284612d38565b604080516375892cf160e01b81526001600160a01b038781166004830152868116602483015260448201859052606482018690529151918316916375892cf1916084808201926020929091908290030181600087803b15801561293b57600080fd5b505af115801561294f573d6000803e3d6000fd5b505050506040513d602081101561296557600080fd5b505195945050505050565b7f00000000000000000000000000000000000000000000000000000000000000006001600160a01b031663b9b8af0b6040518163ffffffff1660e01b815260040160206040518083038186803b1580156129c957600080fd5b505afa1580156129dd573d6000803e3d6000fd5b505050506040513d60208110156129f357600080fd5b505115612a30576040805162461bcd60e51b81526020600482015260066024820152651a185b1d195960d21b604482015290519081900360640190fd5b7f00000000000000000000000000000000000000000000000000000000000000006001600160a01b0316631fe4a6866040518163ffffffff1660e01b815260040160206040518083038186803b158015612a8957600080fd5b505afa158015612a9d573d6000803e3d6000fd5b505050506040513d6020811015612ab357600080fd5b50516001600160a01b03163314612aff576040805162461bcd60e51b815260206004820152600b60248201526a085cdd1c985d1959da5cdd60aa1b604482015290519081900360640190fd5b600755565b60065481565b612b1c612b1633611ebe565b8261081f565b50565b600082612b2e57506000610e35565b82820282848281612b3b57fe5b0414610f4f5760405162461bcd60e51b81526004018080602001828103825260218152602001806137796021913960400191505060405180910390fd5b6000808211612bce576040805162461bcd60e51b815260206004820152601a60248201527f536166654d6174683a206469766973696f6e206279207a65726f000000000000604482015290519081900360640190fd5b818381612bd757fe5b049392505050565b6001600160a01b038216612c245760405162461bcd60e51b81526004018080602001828103825260218152602001806137c26021913960400191505060405180910390fd5b612c3082600083612d8a565b612c6d816040518060600160405280602281526020016136e9602291396001600160a01b0385166000908152602081905260409020549190612e47565b6001600160a01b038316600090815260208190526040902055600254612c939082612cdb565b6002556040805182815290516000916001600160a01b038516917fddf252ad1be2c89b69c2b068fc378daa952ba7f163c4a11628f55a4df523b3ef9181900360200190a35050565b600082821115612d32576040805162461bcd60e51b815260206004820152601e60248201527f536166654d6174683a207375627472616374696f6e206f766572666c6f770000604482015290519081900360640190fd5b50900390565b604080516001600160a01b038416602482015260448082018490528251808303909101815260649091019091526020810180516001600160e01b031663a9059cbb60e01b179052612d8a9084906131f4565b505050565b3390565b816001600160a01b038116301415612de2576040805162461bcd60e51b815260206004820152600d60248201526c2176616c69644164647265737360981b604482015290519081900360640190fd5b611eb88484846132a5565b816001600160a01b038116301415612e3c576040805162461bcd60e51b815260206004820152600d60248201526c2176616c69644164647265737360981b604482015290519081900360640190fd5b611eb8848484613391565b60008184841115612ed65760405162461bcd60e51b81526004018080602001828103825283818151815260200191508051906020019080838360005b83811015612e9b578181015183820152602001612e83565b50505050905090810190601f168015612ec85780820380516001836020036101000a031916815260200191505b509250505060405180910390fd5b505050900390565b600082820183811015610f4f576040805162461bcd60e51b815260206004820152601b60248201527f536166654d6174683a206164646974696f6e206f766572666c6f770000000000604482015290519081900360640190fd5b3b151590565b604051635260769b60e11b815233600482018181526024830185905260606044840190815284516064850152845187946001600160a01b0386169463a4c0ed369490938993899360840190602085019080838360005b83811015612fac578181015183820152602001612f94565b50505050905090810190601f168015612fd95780820380516001836020036101000a031916815260200191505b50945050505050600060405180830381600087803b158015612ffa57600080fd5b505af115801561300e573d6000803e3d6000fd5b5050505050505050565b604080516001600160a01b0380861660248301528416604482015260648082018490528251808303909101815260849091019091526020810180516001600160e01b03166323b872dd60e01b179052611eb89085906131f4565b600080836001600160a01b031663313ce5676040518163ffffffff1660e01b815260040160206040518083038186803b1580156130ae57600080fd5b505afa1580156130c2573d6000803e3d6000fd5b505050506040513d60208110156130d857600080fd5b505160ff16905060128110156130fc576130f9836012839003600a0a612b1f565b92505b509092915050565b6001600160a01b03821661315f576040805162461bcd60e51b815260206004820152601f60248201527f45524332303a206d696e7420746f20746865207a65726f206164647265737300604482015290519081900360640190fd5b61316b60008383612d8a565b6002546131789082612ede565b6002556001600160a01b03821660009081526020819052604090205461319e9082612ede565b6001600160a01b0383166000818152602081815260408083209490945583518581529351929391927fddf252ad1be2c89b69c2b068fc378daa952ba7f163c4a11628f55a4df523b3ef9281900390910190a35050565b6060613249826040518060400160405280602081526020017f5361666545524332303a206c6f772d6c6576656c2063616c6c206661696c6564815250856001600160a01b03166134ec9092919063ffffffff16565b805190915015612d8a5780806020019051602081101561326857600080fd5b5051612d8a5760405162461bcd60e51b815260040180806020018281038252602a81526020018061382c602a913960400191505060405180910390fd5b6001600160a01b0383166132ea5760405162461bcd60e51b81526004018080602001828103825260248152602001806138086024913960400191505060405180910390fd5b6001600160a01b03821661332f5760405162461bcd60e51b815260040180806020018281038252602281526020018061370b6022913960400191505060405180910390fd5b6001600160a01b03808416600081815260016020908152604080832094871680845294825291829020859055815185815291517f8c5be1e5ebec7d5bd14f71427d1e84f3dd0314c0f7b2291e5b200ac8c7c3b9259281900390910190a3505050565b6001600160a01b0383166133d65760405162461bcd60e51b81526004018080602001828103825260258152602001806137e36025913960400191505060405180910390fd5b6001600160a01b03821661341b5760405162461bcd60e51b81526004018080602001828103825260238152602001806136c66023913960400191505060405180910390fd5b613426838383612d8a565b6134638160405180606001604052806026815260200161372d602691396001600160a01b0386166000908152602081905260409020549190612e47565b6001600160a01b0380851660009081526020819052604080822093909355908416815220546134929082612ede565b6001600160a01b038084166000818152602081815260409182902094909455805185815290519193928716927fddf252ad1be2c89b69c2b068fc378daa952ba7f163c4a11628f55a4df523b3ef92918290030190a3505050565b60606134fb8484600085613503565b949350505050565b6060824710156135445760405162461bcd60e51b81526004018080602001828103825260268152602001806137536026913960400191505060405180910390fd5b61354d85612f38565b61359e576040805162461bcd60e51b815260206004820152601d60248201527f416464726573733a2063616c6c20746f206e6f6e2d636f6e7472616374000000604482015290519081900360640190fd5b60006060866001600160a01b031685876040518082805190602001908083835b602083106135dd5780518252601f1990920191602091820191016135be565b6001836020036101000a03801982511681845116808217855250505050505090500191505060006040518083038185875af1925050503d806000811461363f576040519150601f19603f3d011682016040523d82523d6000602084013e613644565b606091505b509150915061365482828661365f565b979650505050505050565b6060831561366e575081610f4f565b82511561367e5782518084602001fd5b60405162461bcd60e51b8152602060048201818152845160248401528451859391928392604401919085019080838360008315612e9b578181015183820152602001612e8356fe45524332303a207472616e7366657220746f20746865207a65726f206164647265737345524332303a206275726e20616d6f756e7420657863656564732062616c616e636545524332303a20617070726f766520746f20746865207a65726f206164647265737345524332303a207472616e7366657220616d6f756e7420657863656564732062616c616e6365416464726573733a20696e73756666696369656e742062616c616e636520666f722063616c6c536166654d6174683a206d756c7469706c69636174696f6e206f766572666c6f7745524332303a207472616e7366657220616d6f756e74206578636565647320616c6c6f77616e636545524332303a206275726e2066726f6d20746865207a65726f206164647265737345524332303a207472616e736665722066726f6d20746865207a65726f206164647265737345524332303a20617070726f76652066726f6d20746865207a65726f20616464726573735361666545524332303a204552433230206f7065726174696f6e20646964206e6f74207375636365656445524332303a2064656372656173656420616c6c6f77616e63652062656c6f77207a65726fa2646970667358221220a27fd7b1854f7fd1d81f5861977e5ad73d7cf489488e70d0e9d213415f55a7b164736f6c634300060c0033",
  "linkReferences": {},
  "deployedLinkReferences": {}
}