{"abi":[{"type":"constructor","inputs":[{"name":"_weth","type":"address","internalType":"address"},{"name":"_treasury","type":"address","internalType":"address"},{"name":"_savingsAccount","type":"address","internalType":"address"}],"stateMutability":"nonpayable"},{"type":"receive","stateMutability":"payable"},{"type":"function","name":"SAVINGS_ACCOUNT","inputs":[],"outputs":[{"name":"","type":"address","internalType":"address"}],"stateMutability":"view"},{"type":"function","name":"TREASURY","inputs":[],"outputs":[{"name":"","type":"address","internalType":"address"}],"stateMutability":"view"},{"type":"function","name":"WETH","inputs":[],"outputs":[{"name":"","type":"address","internalType":"address"}],"stateMutability":"view"},{"type":"function","name":"addTokenAddress","inputs":[{"name":"_asset","type":"address","internalType":"address"},{"name":"_liquidityToken","type":"address","internalType":"address"}],"outputs":[],"stateMutability":"nonpayable"},{"type":"function","name":"claimCompTokens","inputs":[{"name":"_comptroller","type":"address","internalType":"address"},{"name":"_compToken","type":"address","internalType":"address"}],"outputs":[{"name":"","type":"uint256","internalType":"uint256"}],"stateMutability":"nonpayable"},{"type":"function","name":"depositLimit","inputs":[{"name":"","type":"address","internalType":"address"}],"outputs":[{"name":"","type":"uint256","internalType":"uint256"}],"stateMutability":"view"},{"type":"function","name":"emergencyWithdraw","inputs":[{"name":"_asset","type":"address","internalType":"address"},{"name":"_wallet","type":"address","internalType":"address"}],"outputs":[{"name":"","type":"uint256","internalType":"uint256"}],"stateMutability":"nonpayable"},{"type":"function","name":"forceUpdateTokenAddress","inputs":[{"name":"_asset","type":"address","internalType":"address"},{"name":"_liquidityToken","type":"address","internalType":"address"}],"outputs":[],"stateMutability":"nonpayable"},{"type":"function","name":"getSharesForTokens","inputs":[{"name":"_amount","type":"uint256","internalType":"uint256"},{"name":"_asset","type":"address","internalType":"address"}],"outputs":[{"name":"","type":"uint256","internalType":"uint256"}],"stateMutability":"nonpayable"},{"type":"function","name":"getTokensForShares","inputs":[{"name":"_shares","type":"uint256","internalType":"uint256"},{"name":"_asset","type":"address","internalType":"address"}],"outputs":[{"name":"","type":"uint256","internalType":"uint256"}],"stateMutability":"nonpayable"},{"type":"function","name":"initialize","inputs":[{"name":"_owner","type":"address","internalType":"address"}],"outputs":[],"stateMutability":"nonpayable"},{"type":"function","name":"liquidityToken","inputs":[{"name":"","type":"address","internalType":"address"}],"outputs":[{"name":"","type":"address","internalType":"address"}],"stateMutability":"view"},{"type":"function","name":"lockTokens","inputs":[{"name":"_user","type":"address","internalType":"address"},{"name":"_asset","type":"address","internalType":"address"},{"name":"_amount","type":"uint256","internalType":"uint256"}],"outputs":[{"name":"","type":"uint256","internalType":"uint256"}],"stateMutability":"nonpayable"},{"type":"function","name":"owner","inputs":[],"outputs":[{"name":"","type":"address","internalType":"address"}],"stateMutability":"view"},{"type":"function","name":"removeTokenAddress","inputs":[{"name":"_asset","type":"address","internalType":"address"},{"name":"_liquidityToken","type":"address","internalType":"address"}],"outputs":[],"stateMutability":"nonpayable"},{"type":"function","name":"renounceOwnership","inputs":[],"outputs":[],"stateMutability":"nonpayable"},{"type":"function","name":"setDepositLimit","inputs":[{"name":"_asset","type":"address","internalType":"address"},{"name":"_limit","type":"uint256","internalType":"uint256"}],"outputs":[],"stateMutability":"nonpayable"},{"type":"function","name":"transferOwnership","inputs":[{"name":"newOwner","type":"address","internalType":"address"}],"outputs":[],"stateMutability":"nonpayable"},{"type":"function","name":"unlockShares","inputs":[{"name":"_asset","type":"address","internalType":"address"},{"name":"_to","type":"address","internalType":"address"},{"name":"_shares","type":"uint256","internalType":"uint256"}],"outputs":[{"name":"","type":"uint256","internalType":"uint256"}],"stateMutability":"nonpayable"},{"type":"function","name":"unlockTokens","inputs":[{"name":"_asset","type":"address","internalType":"address"},{"name":"_to","type":"address","internalType":"address"},{"name":"_shares","type":"uint256","internalType":"uint256"}],"outputs":[{"name":"","type":"uint256","internalType":"uint256"}],"stateMutability":"nonpayable"},{"type":"event","name":"EmergencyWithdraw","inputs":[{"name":"asset","type":"address","indexed":true,"internalType":"address"},{"name":"withdrawTo","type":"address","indexed":true,"internalType":"address"},{"name":"tokensReceived","type":"uint256","indexed":false,"internalType":"uint256"}],"anonymous":false},{"type":"event","name":"LockedTokens","inputs":[{"name":"user","type":"address","indexed":true,"internalType":"address"},{"name":"investedTo","type":"address","indexed":true,"internalType":"address"},{"name":"lpTokensReceived","type":"uint256","indexed":false,"internalType":"uint256"}],"anonymous":false},{"type":"event","name":"OwnershipTransferred","inputs":[{"name":"previousOwner","type":"address","indexed":true,"internalType":"address"},{"name":"newOwner","type":"address","indexed":true,"internalType":"address"}],"anonymous":false},{"type":"event","name":"SavingsAccountUpdated","inputs":[{"name":"savingsAccount","type":"address","indexed":true,"internalType":"address"}],"anonymous":false},{"type":"event","name":"TokenAddressesUpdated","inputs":[{"name":"asset","type":"address","indexed":true,"internalType":"address"},{"name":"protocolToken","type":"address","indexed":true,"internalType":"address"}],"anonymous":false},{"type":"event","name":"UnlockedShares","inputs":[{"name":"asset","type":"address","indexed":true,"internalType":"address"},{"name":"sharesReleased","type":"uint256","indexed":false,"internalType":"uint256"}],"anonymous":false},{"type":"event","name":"UnlockedTokens","inputs":[{"name":"investedTo","type":"address","indexed":true,"internalType":"address"},{"name":"collateralReceived","type":"uint256","indexed":false,"internalType":"uint256"}],"anonymous":false}],"bytecode":{"object":"0x60e06040523480156200001157600080fd5b506040516200487738038062004877833981810160405260608110156200003757600080fd5b81019080805190602001909291908051906020019092919080519060200190929190505050600073ffffffffffffffffffffffffffffffffffffffff168373ffffffffffffffffffffffffffffffffffffffff16141562000100576040517f08c379a00000000000000000000000000000000000000000000000000000000081526004018080602001828103825260058152602001807f43593a433100000000000000000000000000000000000000000000000000000081525060200191505060405180910390fd5b600073ffffffffffffffffffffffffffffffffffffffff168273ffffffffffffffffffffffffffffffffffffffff161415620001a4576040517f08c379a00000000000000000000000000000000000000000000000000000000081526004018080602001828103825260058152602001807f43593a433200000000000000000000000000000000000000000000000000000081525060200191505060405180910390fd5b600073ffffffffffffffffffffffffffffffffffffffff168173ffffffffffffffffffffffffffffffffffffffff16141562000248576040517f08c379a00000000000000000000000000000000000000000000000000000000081526004018080602001828103825260058152602001807f43593a433300000000000000000000000000000000000000000000000000000081525060200191505060405180910390fd5b8273ffffffffffffffffffffffffffffffffffffffff1660a08173ffffffffffffffffffffffffffffffffffffffff1660601b815250508173ffffffffffffffffffffffffffffffffffffffff1660808173ffffffffffffffffffffffffffffffffffffffff1660601b815250508073ffffffffffffffffffffffffffffffffffffffff1660c08173ffffffffffffffffffffffffffffffffffffffff1660601b8152505050505060805160601c60a05160601c60c05160601c6145156200036260003980610d62528061108d5280611f8a52806125ca52508061012e52806101de5280610f0a5280610f6a52806113cf52806114235280611c885280611ce85280612172525080610d3c5280612a9d52506145156000f3fe6080604052600436106101235760003560e01c80637b2a2d1f116100a0578063b6ffc60311610064578063b6ffc6031461086a578063c4d66de8146108f9578063dd4ddaf41461094a578063f2fde38b146109cf578063ff98c1e714610a20576102a0565b80637b2a2d1f146106c75780638da5cb5b14610708578063934a525214610749578063ad5c4648146107b8578063af56b256146107f9576102a0565b80634767ceee116100e75780634767ceee146104bc578063477ff1201461054b57806359846d29146105bc5780636382d9ad1461062b578063715018a6146106b0576102a0565b80630ce44064146102a55780631391abc714610316578063272d177d146103915780632d2c5565146103ec5780632d4526581461042d576102a0565b366102a057609860007f000000000000000000000000000000000000000000000000000000000000000073ffffffffffffffffffffffffffffffffffffffff1673ffffffffffffffffffffffffffffffffffffffff16815260200190815260200160002060009054906101000a900473ffffffffffffffffffffffffffffffffffffffff1673ffffffffffffffffffffffffffffffffffffffff163373ffffffffffffffffffffffffffffffffffffffff16148061022c57507f000000000000000000000000000000000000000000000000000000000000000073ffffffffffffffffffffffffffffffffffffffff163373ffffffffffffffffffffffffffffffffffffffff16145b61029e576040517f08c379a00000000000000000000000000000000000000000000000000000000081526004018080602001828103825260058152602001807f43593a523100000000000000000000000000000000000000000000000000000081525060200191505060405180910390fd5b005b600080fd5b3480156102b157600080fd5b50610314600480360360408110156102c857600080fd5b81019080803573ffffffffffffffffffffffffffffffffffffffff169060200190929190803573ffffffffffffffffffffffffffffffffffffffff169060200190929190505050610a85565b005b34801561032257600080fd5b506103656004803603602081101561033957600080fd5b81019080803573ffffffffffffffffffffffffffffffffffffffff169060200190929190505050610c10565b604051808273ffffffffffffffffffffffffffffffffffffffff16815260200191505060405180910390f35b34801561039d57600080fd5b506103ea600480360360408110156103b457600080fd5b81019080803573ffffffffffffffffffffffffffffffffffffffff16906020019092919080359060200190929190505050610c43565b005b3480156103f857600080fd5b50610401610d3a565b604051808273ffffffffffffffffffffffffffffffffffffffff16815260200191505060405180910390f35b34801561043957600080fd5b506104a66004803603606081101561045057600080fd5b81019080803573ffffffffffffffffffffffffffffffffffffffff169060200190929190803573ffffffffffffffffffffffffffffffffffffffff16906020019092919080359060200190929190505050610d5e565b6040518082815260200191505060405180910390f35b3480156104c857600080fd5b50610535600480360360608110156104df57600080fd5b81019080803573ffffffffffffffffffffffffffffffffffffffff169060200190929190803573ffffffffffffffffffffffffffffffffffffffff16906020019092919080359060200190929190505050611089565b6040518082815260200191505060405180910390f35b34801561055757600080fd5b506105ba6004803603604081101561056e57600080fd5b81019080803573ffffffffffffffffffffffffffffffffffffffff169060200190929190803573ffffffffffffffffffffffffffffffffffffffff169060200190929190505050611545565b005b3480156105c857600080fd5b50610615600480360360408110156105df57600080fd5b8101908080359060200190929190803573ffffffffffffffffffffffffffffffffffffffff1690602001909291905050506117d1565b6040518082815260200191505060405180910390f35b34801561063757600080fd5b5061069a6004803603604081101561064e57600080fd5b81019080803573ffffffffffffffffffffffffffffffffffffffff169060200190929190803573ffffffffffffffffffffffffffffffffffffffff169060200190929190505050611984565b6040518082815260200191505060405180910390f35b3480156106bc57600080fd5b506106c5611e18565b005b3480156106d357600080fd5b506106dc611f88565b604051808273ffffffffffffffffffffffffffffffffffffffff16815260200191505060405180910390f35b34801561071457600080fd5b5061071d611fac565b604051808273ffffffffffffffffffffffffffffffffffffffff16815260200191505060405180910390f35b34801561075557600080fd5b506107a26004803603604081101561076c57600080fd5b8101908080359060200190929190803573ffffffffffffffffffffffffffffffffffffffff169060200190929190505050611fd6565b6040518082815260200191505060405180910390f35b3480156107c457600080fd5b506107cd612170565b604051808273ffffffffffffffffffffffffffffffffffffffff16815260200191505060405180910390f35b34801561080557600080fd5b506108686004803603604081101561081c57600080fd5b81019080803573ffffffffffffffffffffffffffffffffffffffff169060200190929190803573ffffffffffffffffffffffffffffffffffffffff169060200190929190505050612194565b005b34801561087657600080fd5b506108e36004803603606081101561088d57600080fd5b81019080803573ffffffffffffffffffffffffffffffffffffffff169060200190929190803573ffffffffffffffffffffffffffffffffffffffff169060200190929190803590602001909291905050506125c6565b6040518082815260200191505060405180910390f35b34801561090557600080fd5b506109486004803603602081101561091c57600080fd5b81019080803573ffffffffffffffffffffffffffffffffffffffff1690602001909291905050506127a8565b005b34801561095657600080fd5b506109b96004803603604081101561096d57600080fd5b81019080803573ffffffffffffffffffffffffffffffffffffffff169060200190929190803573ffffffffffffffffffffffffffffffffffffffff1690602001909291905050506128c0565b6040518082815260200191505060405180910390f35b3480156109db57600080fd5b50610a1e600480360360208110156109f257600080fd5b81019080803573ffffffffffffffffffffffffffffffffffffffff169060200190929190505050612aed565b005b348015610a2c57600080fd5b50610a6f60048036036020811015610a4357600080fd5b81019080803573ffffffffffffffffffffffffffffffffffffffff169060200190929190505050612ce2565b6040518082815260200191505060405180910390f35b610a8d612cfa565b73ffffffffffffffffffffffffffffffffffffffff16610aab611fac565b73ffffffffffffffffffffffffffffffffffffffff1614610b34576040517f08c379a00000000000000000000000000000000000000000000000000000000081526004018080602001828103825260208152602001807f4f776e61626c653a2063616c6c6572206973206e6f7420746865206f776e657281525060200191505060405180910390fd5b80609860008473ffffffffffffffffffffffffffffffffffffffff1673ffffffffffffffffffffffffffffffffffffffff16815260200190815260200160002060006101000a81548173ffffffffffffffffffffffffffffffffffffffff021916908373ffffffffffffffffffffffffffffffffffffffff1602179055508073ffffffffffffffffffffffffffffffffffffffff168273ffffffffffffffffffffffffffffffffffffffff167faa48a91a0ecea2b4005db160bd44d0db34e860a7bc8f46ad29dbba52abcb2cc760405160405180910390a35050565b60986020528060005260406000206000915054906101000a900473ffffffffffffffffffffffffffffffffffffffff1681565b610c4b612cfa565b73ffffffffffffffffffffffffffffffffffffffff16610c69611fac565b73ffffffffffffffffffffffffffffffffffffffff1614610cf2576040517f08c379a00000000000000000000000000000000000000000000000000000000081526004018080602001828103825260208152602001807f4f776e61626c653a2063616c6c6572206973206e6f7420746865206f776e657281525060200191505060405180910390fd5b80609760008473ffffffffffffffffffffffffffffffffffffffff1673ffffffffffffffffffffffffffffffffffffffff168152602001908152602001600020819055505050565b7f000000000000000000000000000000000000000000000000000000000000000081565b60007f000000000000000000000000000000000000000000000000000000000000000073ffffffffffffffffffffffffffffffffffffffff163373ffffffffffffffffffffffffffffffffffffffff1614610e21576040517f08c379a00000000000000000000000000000000000000000000000000000000081526004018080602001828103825260078152602001807f43593a4f5341310000000000000000000000000000000000000000000000000081525060200191505060405180910390fd5b60026065541415610e9a576040517f08c379a000000000000000000000000000000000000000000000000000000000815260040180806020018281038252601f8152602001807f5265656e7472616e637947756172643a207265656e7472616e742063616c6c0081525060200191505060405180910390fd5b60026065819055506000609860008673ffffffffffffffffffffffffffffffffffffffff1673ffffffffffffffffffffffffffffffffffffffff16815260200190815260200160002060009054906101000a900473ffffffffffffffffffffffffffffffffffffffff16905060007f000000000000000000000000000000000000000000000000000000000000000073ffffffffffffffffffffffffffffffffffffffff168673ffffffffffffffffffffffffffffffffffffffff161415610fee57610f668285612d02565b90507f000000000000000000000000000000000000000000000000000000000000000073ffffffffffffffffffffffffffffffffffffffff1663d0e30db0826040518263ffffffff1660e01b81526004016000604051808303818588803b158015610fd057600080fd5b505af1158015610fe4573d6000803e3d6000fd5b5050505050610ffc565b610ff9868386612e27565b90505b61102785828873ffffffffffffffffffffffffffffffffffffffff166130959092919063ffffffff16565b8573ffffffffffffffffffffffffffffffffffffffff167faf08a4db36432bb5cbbfdfcf5af1040246483dc0dae8a9616cc79816c432fee9826040518082815260200191505060405180910390a2809250505060016065819055509392505050565b60007f000000000000000000000000000000000000000000000000000000000000000073ffffffffffffffffffffffffffffffffffffffff163373ffffffffffffffffffffffffffffffffffffffff161461114c576040517f08c379a00000000000000000000000000000000000000000000000000000000081526004018080602001828103825260078152602001807f43593a4f5341310000000000000000000000000000000000000000000000000081525060200191505060405180910390fd5b600260655414156111c5576040517f08c379a000000000000000000000000000000000000000000000000000000000815260040180806020018281038252601f8152602001807f5265656e7472616e637947756172643a207265656e7472616e742063616c6c0081525060200191505060405180910390fd5b6002606581905550600080609860008673ffffffffffffffffffffffffffffffffffffffff1673ffffffffffffffffffffffffffffffffffffffff16815260200190815260200160002060009054906101000a900473ffffffffffffffffffffffffffffffffffffffff16905060008173ffffffffffffffffffffffffffffffffffffffff16633af9e669306040518263ffffffff1660e01b8152600401808273ffffffffffffffffffffffffffffffffffffffff168152602001915050602060405180830381600087803b15801561129d57600080fd5b505af11580156112b1573d6000803e3d6000fd5b505050506040513d60208110156112c757600080fd5b810190808051906020019092919050505090506112ed858261313790919063ffffffff16565b609760008873ffffffffffffffffffffffffffffffffffffffff1673ffffffffffffffffffffffffffffffffffffffff16815260200190815260200160002054116113a0576040517f08c379a00000000000000000000000000000000000000000000000000000000081526004018080602001828103825260068152602001807f43593a4c5431000000000000000000000000000000000000000000000000000081525060200191505060405180910390fd5b6113cd8730878973ffffffffffffffffffffffffffffffffffffffff166131bf909392919063ffffffff16565b7f000000000000000000000000000000000000000000000000000000000000000073ffffffffffffffffffffffffffffffffffffffff168673ffffffffffffffffffffffffffffffffffffffff1614156114bd577f000000000000000000000000000000000000000000000000000000000000000073ffffffffffffffffffffffffffffffffffffffff16632e1a7d4d866040518263ffffffff1660e01b815260040180828152602001915050600060405180830381600087803b15801561149457600080fd5b505af11580156114a8573d6000803e3d6000fd5b505050506114b68286613280565b92506114cb565b6114c8868387613451565b92505b8173ffffffffffffffffffffffffffffffffffffffff168773ffffffffffffffffffffffffffffffffffffffff167f71538b5e30c18b86003771476b5887a8f118d796b2a4a2a5960e0ac1b10962d3856040518082815260200191505060405180910390a382935050505060016065819055509392505050565b61154d612cfa565b73ffffffffffffffffffffffffffffffffffffffff1661156b611fac565b73ffffffffffffffffffffffffffffffffffffffff16146115f4576040517f08c379a00000000000000000000000000000000000000000000000000000000081526004018080602001828103825260208152602001807f4f776e61626c653a2063616c6c6572206973206e6f7420746865206f776e657281525060200191505060405180910390fd5b600073ffffffffffffffffffffffffffffffffffffffff16609860008473ffffffffffffffffffffffffffffffffffffffff1673ffffffffffffffffffffffffffffffffffffffff16815260200190815260200160002060009054906101000a900473ffffffffffffffffffffffffffffffffffffffff1673ffffffffffffffffffffffffffffffffffffffff16146116f5576040517f08c379a00000000000000000000000000000000000000000000000000000000081526004018080602001828103825260078152602001807f43593a415441310000000000000000000000000000000000000000000000000081525060200191505060405180910390fd5b80609860008473ffffffffffffffffffffffffffffffffffffffff1673ffffffffffffffffffffffffffffffffffffffff16815260200190815260200160002060006101000a81548173ffffffffffffffffffffffffffffffffffffffff021916908373ffffffffffffffffffffffffffffffffffffffff1602179055508073ffffffffffffffffffffffffffffffffffffffff168273ffffffffffffffffffffffffffffffffffffffff167faa48a91a0ecea2b4005db160bd44d0db34e860a7bc8f46ad29dbba52abcb2cc760405160405180910390a35050565b6000808314156117e4576000905061197e565b6000609860008473ffffffffffffffffffffffffffffffffffffffff1673ffffffffffffffffffffffffffffffffffffffff16815260200190815260200160002060009054906101000a900473ffffffffffffffffffffffffffffffffffffffff16905060008173ffffffffffffffffffffffffffffffffffffffff1663bd6d894d6040518163ffffffff1660e01b8152600401602060405180830381600087803b15801561189257600080fd5b505af11580156118a6573d6000803e3d6000fd5b505050506040513d60208110156118bc57600080fd5b810190808051906020019092919050505090506000811415611946576040517f08c379a00000000000000000000000000000000000000000000000000000000081526004018080602001828103825260088152602001807f43593a475446533100000000000000000000000000000000000000000000000081525060200191505060405180910390fd5b6000611975670de0b6b3a7640000611967888561371c90919063ffffffff16565b6137a290919063ffffffff16565b90508093505050505b92915050565b600061198e612cfa565b73ffffffffffffffffffffffffffffffffffffffff166119ac611fac565b73ffffffffffffffffffffffffffffffffffffffff1614611a35576040517f08c379a00000000000000000000000000000000000000000000000000000000081526004018080602001828103825260208152602001807f4f776e61626c653a2063616c6c6572206973206e6f7420746865206f776e657281525060200191505060405180910390fd5b600073ffffffffffffffffffffffffffffffffffffffff168273ffffffffffffffffffffffffffffffffffffffff161415611ad8576040517f08c379a00000000000000000000000000000000000000000000000000000000081526004018080602001828103825260068152602001807f43593a455731000000000000000000000000000000000000000000000000000081525060200191505060405180910390fd5b6000609860008573ffffffffffffffffffffffffffffffffffffffff1673ffffffffffffffffffffffffffffffffffffffff16815260200190815260200160002060009054906101000a900473ffffffffffffffffffffffffffffffffffffffff1690506000808273ffffffffffffffffffffffffffffffffffffffff16633af9e669306040518263ffffffff1660e01b8152600401808273ffffffffffffffffffffffffffffffffffffffff168152602001915050602060405180830381600087803b158015611ba857600080fd5b505af1158015611bbc573d6000803e3d6000fd5b505050506040513d6020811015611bd257600080fd5b8101908080519060200190929190505050905060008373ffffffffffffffffffffffffffffffffffffffff16633b1d21a26040518163ffffffff1660e01b8152600401602060405180830381600087803b158015611c2f57600080fd5b505af1158015611c43573d6000803e3d6000fd5b505050506040513d6020811015611c5957600080fd5b8101908080519060200190929190505050905080821115611c78578091505b6000611c848389611fd6565b90507f000000000000000000000000000000000000000000000000000000000000000073ffffffffffffffffffffffffffffffffffffffff168873ffffffffffffffffffffffffffffffffffffffff161415611d6c57611ce48582612d02565b93507f000000000000000000000000000000000000000000000000000000000000000073ffffffffffffffffffffffffffffffffffffffff1663d0e30db0856040518263ffffffff1660e01b81526004016000604051808303818588803b158015611d4e57600080fd5b505af1158015611d62573d6000803e3d6000fd5b5050505050611d7a565b611d77888683612e27565b93505b611da587858a73ffffffffffffffffffffffffffffffffffffffff166130959092919063ffffffff16565b8673ffffffffffffffffffffffffffffffffffffffff168873ffffffffffffffffffffffffffffffffffffffff167ff24ef89f38eadc1bde50701ad6e4d6d11a2dc24f7cf834a486991f3883328504866040518082815260200191505060405180910390a3839550505050505092915050565b611e20612cfa565b73ffffffffffffffffffffffffffffffffffffffff16611e3e611fac565b73ffffffffffffffffffffffffffffffffffffffff1614611ec7576040517f08c379a00000000000000000000000000000000000000000000000000000000081526004018080602001828103825260208152602001807f4f776e61626c653a2063616c6c6572206973206e6f7420746865206f776e657281525060200191505060405180910390fd5b600073ffffffffffffffffffffffffffffffffffffffff16603360009054906101000a900473ffffffffffffffffffffffffffffffffffffffff1673ffffffffffffffffffffffffffffffffffffffff167f8be0079c531659141344cd1fd0a4f28419497f9722a3daafe3b4186f6b6457e060405160405180910390a36000603360006101000a81548173ffffffffffffffffffffffffffffffffffffffff021916908373ffffffffffffffffffffffffffffffffffffffff160217905550565b7f000000000000000000000000000000000000000000000000000000000000000081565b6000603360009054906101000a900473ffffffffffffffffffffffffffffffffffffffff16905090565b600080609860008473ffffffffffffffffffffffffffffffffffffffff1673ffffffffffffffffffffffffffffffffffffffff16815260200190815260200160002060009054906101000a900473ffffffffffffffffffffffffffffffffffffffff16905060008173ffffffffffffffffffffffffffffffffffffffff1663bd6d894d6040518163ffffffff1660e01b8152600401602060405180830381600087803b15801561208557600080fd5b505af1158015612099573d6000803e3d6000fd5b505050506040513d60208110156120af57600080fd5b810190808051906020019092919050505090506000811415612139576040517f08c379a00000000000000000000000000000000000000000000000000000000081526004018080602001828103825260088152602001807f43593a475346543100000000000000000000000000000000000000000000000081525060200191505060405180910390fd5b61216681612158670de0b6b3a76400008861371c90919063ffffffff16565b6137a290919063ffffffff16565b9250505092915050565b7f000000000000000000000000000000000000000000000000000000000000000081565b61219c612cfa565b73ffffffffffffffffffffffffffffffffffffffff166121ba611fac565b73ffffffffffffffffffffffffffffffffffffffff1614612243576040517f08c379a00000000000000000000000000000000000000000000000000000000081526004018080602001828103825260208152602001807f4f776e61626c653a2063616c6c6572206973206e6f7420746865206f776e657281525060200191505060405180910390fd5b6000609860008473ffffffffffffffffffffffffffffffffffffffff1673ffffffffffffffffffffffffffffffffffffffff16815260200190815260200160002060009054906101000a900473ffffffffffffffffffffffffffffffffffffffff169050600073ffffffffffffffffffffffffffffffffffffffff168173ffffffffffffffffffffffffffffffffffffffff16141561234a576040517f08c379a00000000000000000000000000000000000000000000000000000000081526004018080602001828103825260078152602001807f43593a525441310000000000000000000000000000000000000000000000000081525060200191505060405180910390fd5b8173ffffffffffffffffffffffffffffffffffffffff168173ffffffffffffffffffffffffffffffffffffffff16146123eb576040517f08c379a00000000000000000000000000000000000000000000000000000000081526004018080602001828103825260078152602001807f43593a525441320000000000000000000000000000000000000000000000000081525060200191505060405180910390fd5b60008173ffffffffffffffffffffffffffffffffffffffff16633af9e669306040518263ffffffff1660e01b8152600401808273ffffffffffffffffffffffffffffffffffffffff168152602001915050602060405180830381600087803b15801561245657600080fd5b505af115801561246a573d6000803e3d6000fd5b505050506040513d602081101561248057600080fd5b810190808051906020019092919050505014612504576040517f08c379a00000000000000000000000000000000000000000000000000000000081526004018080602001828103825260078152602001807f43593a525441330000000000000000000000000000000000000000000000000081525060200191505060405180910390fd5b609860008473ffffffffffffffffffffffffffffffffffffffff1673ffffffffffffffffffffffffffffffffffffffff16815260200190815260200160002060006101000a81549073ffffffffffffffffffffffffffffffffffffffff0219169055600073ffffffffffffffffffffffffffffffffffffffff168373ffffffffffffffffffffffffffffffffffffffff167faa48a91a0ecea2b4005db160bd44d0db34e860a7bc8f46ad29dbba52abcb2cc760405160405180910390a3505050565b60007f000000000000000000000000000000000000000000000000000000000000000073ffffffffffffffffffffffffffffffffffffffff163373ffffffffffffffffffffffffffffffffffffffff1614612689576040517f08c379a00000000000000000000000000000000000000000000000000000000081526004018080602001828103825260078152602001807f43593a4f5341310000000000000000000000000000000000000000000000000081525060200191505060405180910390fd5b60026065541415612702576040517f08c379a000000000000000000000000000000000000000000000000000000000815260040180806020018281038252601f8152602001807f5265656e7472616e637947756172643a207265656e7472616e742063616c6c0081525060200191505060405180910390fd5b6002606581905550600082141561271c5760009050612799565b61274783838673ffffffffffffffffffffffffffffffffffffffff166130959092919063ffffffff16565b8373ffffffffffffffffffffffffffffffffffffffff167f176b3c3d1f486b4519305078c763e6ca126c940ea1a8a024bdb0316c08ad6ede836040518082815260200191505060405180910390a28190505b60016065819055509392505050565b600060019054906101000a900460ff16806127c757506127c661382b565b5b806127dd575060008054906101000a900460ff16155b612832576040517f08c379a000000000000000000000000000000000000000000000000000000000815260040180806020018281038252602e815260200180614431602e913960400191505060405180910390fd5b60008060019054906101000a900460ff161590508015612882576001600060016101000a81548160ff02191690831515021790555060016000806101000a81548160ff0219169083151502179055505b61288a61383c565b61289382612aed565b61289b61394a565b80156128bc5760008060016101000a81548160ff0219169083151502179055505b5050565b60006128ca612cfa565b73ffffffffffffffffffffffffffffffffffffffff166128e8611fac565b73ffffffffffffffffffffffffffffffffffffffff1614612971576040517f08c379a00000000000000000000000000000000000000000000000000000000081526004018080602001828103825260208152602001807f4f776e61626c653a2063616c6c6572206973206e6f7420746865206f776e657281525060200191505060405180910390fd5b8273ffffffffffffffffffffffffffffffffffffffff1663e9af0292306040518263ffffffff1660e01b8152600401808273ffffffffffffffffffffffffffffffffffffffff168152602001915050600060405180830381600087803b1580156129da57600080fd5b505af11580156129ee573d6000803e3d6000fd5b5050505060008273ffffffffffffffffffffffffffffffffffffffff166370a08231306040518263ffffffff1660e01b8152600401808273ffffffffffffffffffffffffffffffffffffffff16815260200191505060206040518083038186803b158015612a5b57600080fd5b505afa158015612a6f573d6000803e3d6000fd5b505050506040513d6020811015612a8557600080fd5b81019080805190602001909291905050509050612ae37f0000000000000000000000000000000000000000000000000000000000000000828573ffffffffffffffffffffffffffffffffffffffff166130959092919063ffffffff16565b8091505092915050565b612af5612cfa565b73ffffffffffffffffffffffffffffffffffffffff16612b13611fac565b73ffffffffffffffffffffffffffffffffffffffff1614612b9c576040517f08c379a00000000000000000000000000000000000000000000000000000000081526004018080602001828103825260208152602001807f4f776e61626c653a2063616c6c6572206973206e6f7420746865206f776e657281525060200191505060405180910390fd5b600073ffffffffffffffffffffffffffffffffffffffff168173ffffffffffffffffffffffffffffffffffffffff161415612c22576040517f08c379a00000000000000000000000000000000000000000000000000000000081526004018080602001828103825260268152602001806143e56026913960400191505060405180910390fd5b8073ffffffffffffffffffffffffffffffffffffffff16603360009054906101000a900473ffffffffffffffffffffffffffffffffffffffff1673ffffffffffffffffffffffffffffffffffffffff167f8be0079c531659141344cd1fd0a4f28419497f9722a3daafe3b4186f6b6457e060405160405180910390a380603360006101000a81548173ffffffffffffffffffffffffffffffffffffffff021916908373ffffffffffffffffffffffffffffffffffffffff16021790555050565b60976020528060005260406000206000915090505481565b600033905090565b60008047905060008473ffffffffffffffffffffffffffffffffffffffff1663db006a75856040518263ffffffff1660e01b815260040180828152602001915050602060405180830381600087803b158015612d5d57600080fd5b505af1158015612d71573d6000803e3d6000fd5b505050506040513d6020811015612d8757600080fd5b810190808051906020019092919050505014612e0b576040517f08c379a00000000000000000000000000000000000000000000000000000000081526004018080602001828103825260078152602001807f43593a495745310000000000000000000000000000000000000000000000000081525060200191505060405180910390fd5b612e1e8147613a5090919063ffffffff16565b91505092915050565b6000808473ffffffffffffffffffffffffffffffffffffffff166370a08231306040518263ffffffff1660e01b8152600401808273ffffffffffffffffffffffffffffffffffffffff16815260200191505060206040518083038186803b158015612e9157600080fd5b505afa158015612ea5573d6000803e3d6000fd5b505050506040513d6020811015612ebb57600080fd5b8101908080519060200190929190505050905060008473ffffffffffffffffffffffffffffffffffffffff1663db006a75856040518263ffffffff1660e01b815260040180828152602001915050602060405180830381600087803b158015612f2357600080fd5b505af1158015612f37573d6000803e3d6000fd5b505050506040513d6020811015612f4d57600080fd5b810190808051906020019092919050505014612fd1576040517f08c379a00000000000000000000000000000000000000000000000000000000081526004018080602001828103825260098152602001807f43593a495745524331000000000000000000000000000000000000000000000081525060200191505060405180910390fd5b6000613087828773ffffffffffffffffffffffffffffffffffffffff166370a08231306040518263ffffffff1660e01b8152600401808273ffffffffffffffffffffffffffffffffffffffff16815260200191505060206040518083038186803b15801561303e57600080fd5b505afa158015613052573d6000803e3d6000fd5b505050506040513d602081101561306857600080fd5b8101908080519060200190929190505050613a5090919063ffffffff16565b905080925050509392505050565b6131328363a9059cbb60e01b8484604051602401808373ffffffffffffffffffffffffffffffffffffffff16815260200182815260200192505050604051602081830303815290604052907bffffffffffffffffffffffffffffffffffffffffffffffffffffffff19166020820180517bffffffffffffffffffffffffffffffffffffffffffffffffffffffff8381831617835250505050613ad3565b505050565b6000808284019050838110156131b5576040517f08c379a000000000000000000000000000000000000000000000000000000000815260040180806020018281038252601b8152602001807f536166654d6174683a206164646974696f6e206f766572666c6f77000000000081525060200191505060405180910390fd5b8091505092915050565b61327a846323b872dd60e01b858585604051602401808473ffffffffffffffffffffffffffffffffffffffff1681526020018373ffffffffffffffffffffffffffffffffffffffff1681526020018281526020019350505050604051602081830303815290604052907bffffffffffffffffffffffffffffffffffffffffffffffffffffffff19166020820180517bffffffffffffffffffffffffffffffffffffffffffffffffffffffff8381831617835250505050613ad3565b50505050565b6000808373ffffffffffffffffffffffffffffffffffffffff166370a08231306040518263ffffffff1660e01b8152600401808273ffffffffffffffffffffffffffffffffffffffff16815260200191505060206040518083038186803b1580156132ea57600080fd5b505afa1580156132fe573d6000803e3d6000fd5b505050506040513d602081101561331457600080fd5b810190808051906020019092919050505090508373ffffffffffffffffffffffffffffffffffffffff16631249c58b846040518263ffffffff1660e01b81526004016000604051808303818588803b15801561336f57600080fd5b505af1158015613383573d6000803e3d6000fd5b505050505060008473ffffffffffffffffffffffffffffffffffffffff166370a08231306040518263ffffffff1660e01b8152600401808273ffffffffffffffffffffffffffffffffffffffff16815260200191505060206040518083038186803b1580156133f157600080fd5b505afa158015613405573d6000803e3d6000fd5b505050506040513d602081101561341b57600080fd5b8101908080519060200190929190505050905060006134438383613a5090919063ffffffff16565b905080935050505092915050565b6000808373ffffffffffffffffffffffffffffffffffffffff166370a08231306040518263ffffffff1660e01b8152600401808273ffffffffffffffffffffffffffffffffffffffff16815260200191505060206040518083038186803b1580156134bb57600080fd5b505afa1580156134cf573d6000803e3d6000fd5b505050506040513d60208110156134e557600080fd5b810190808051906020019092919050505090506135248460008773ffffffffffffffffffffffffffffffffffffffff16613bc29092919063ffffffff16565b61354f84848773ffffffffffffffffffffffffffffffffffffffff16613bc29092919063ffffffff16565b60008473ffffffffffffffffffffffffffffffffffffffff1663a0712d68856040518263ffffffff1660e01b815260040180828152602001915050602060405180830381600087803b1580156135a457600080fd5b505af11580156135b8573d6000803e3d6000fd5b505050506040513d60208110156135ce57600080fd5b810190808051906020019092919050505014613652576040517f08c379a00000000000000000000000000000000000000000000000000000000081526004018080602001828103825260098152602001807f43593a494445524331000000000000000000000000000000000000000000000081525060200191505060405180910390fd5b60008473ffffffffffffffffffffffffffffffffffffffff166370a08231306040518263ffffffff1660e01b8152600401808273ffffffffffffffffffffffffffffffffffffffff16815260200191505060206040518083038186803b1580156136bb57600080fd5b505afa1580156136cf573d6000803e3d6000fd5b505050506040513d60208110156136e557600080fd5b81019080805190602001909291905050509050600061370d8383613a5090919063ffffffff16565b90508093505050509392505050565b60008083141561372f576000905061379c565b600082840290508284828161374057fe5b0414613797576040517f08c379a000000000000000000000000000000000000000000000000000000000815260040180806020018281038252602181526020018061445f6021913960400191505060405180910390fd5b809150505b92915050565b6000808211613819576040517f08c379a000000000000000000000000000000000000000000000000000000000815260040180806020018281038252601a8152602001807f536166654d6174683a206469766973696f6e206279207a65726f00000000000081525060200191505060405180910390fd5b81838161382257fe5b04905092915050565b600061383630613d87565b15905090565b600060019054906101000a900460ff168061385b575061385a61382b565b5b80613871575060008054906101000a900460ff16155b6138c6576040517f08c379a000000000000000000000000000000000000000000000000000000000815260040180806020018281038252602e815260200180614431602e913960400191505060405180910390fd5b60008060019054906101000a900460ff161590508015613916576001600060016101000a81548160ff02191690831515021790555060016000806101000a81548160ff0219169083151502179055505b61391e613d9a565b613926613e98565b80156139475760008060016101000a81548160ff0219169083151502179055505b50565b600060019054906101000a900460ff1680613969575061396861382b565b5b8061397f575060008054906101000a900460ff16155b6139d4576040517f08c379a000000000000000000000000000000000000000000000000000000000815260040180806020018281038252602e815260200180614431602e913960400191505060405180910390fd5b60008060019054906101000a900460ff161590508015613a24576001600060016101000a81548160ff02191690831515021790555060016000806101000a81548160ff0219169083151502179055505b613a2c61403f565b8015613a4d5760008060016101000a81548160ff0219169083151502179055505b50565b600082821115613ac8576040517f08c379a000000000000000000000000000000000000000000000000000000000815260040180806020018281038252601e8152602001807f536166654d6174683a207375627472616374696f6e206f766572666c6f77000081525060200191505060405180910390fd5b818303905092915050565b6000613b35826040518060400160405280602081526020017f5361666545524332303a206c6f772d6c6576656c2063616c6c206661696c65648152508573ffffffffffffffffffffffffffffffffffffffff166141459092919063ffffffff16565b9050600081511115613bbd57808060200190516020811015613b5657600080fd5b8101908080519060200190929190505050613bbc576040517f08c379a000000000000000000000000000000000000000000000000000000000815260040180806020018281038252602a815260200180614480602a913960400191505060405180910390fd5b5b505050565b6000811480613c90575060008373ffffffffffffffffffffffffffffffffffffffff1663dd62ed3e30856040518363ffffffff1660e01b8152600401808373ffffffffffffffffffffffffffffffffffffffff1681526020018273ffffffffffffffffffffffffffffffffffffffff1681526020019250505060206040518083038186803b158015613c5357600080fd5b505afa158015613c67573d6000803e3d6000fd5b505050506040513d6020811015613c7d57600080fd5b8101908080519060200190929190505050145b613ce5576040517f08c379a00000000000000000000000000000000000000000000000000000000081526004018080602001828103825260368152602001806144aa6036913960400191505060405180910390fd5b613d828363095ea7b360e01b8484604051602401808373ffffffffffffffffffffffffffffffffffffffff16815260200182815260200192505050604051602081830303815290604052907bffffffffffffffffffffffffffffffffffffffffffffffffffffffff19166020820180517bffffffffffffffffffffffffffffffffffffffffffffffffffffffff8381831617835250505050613ad3565b505050565b600080823b905060008111915050919050565b600060019054906101000a900460ff1680613db95750613db861382b565b5b80613dcf575060008054906101000a900460ff16155b613e24576040517f08c379a000000000000000000000000000000000000000000000000000000000815260040180806020018281038252602e815260200180614431602e913960400191505060405180910390fd5b60008060019054906101000a900460ff161590508015613e74576001600060016101000a81548160ff02191690831515021790555060016000806101000a81548160ff0219169083151502179055505b8015613e955760008060016101000a81548160ff0219169083151502179055505b50565b600060019054906101000a900460ff1680613eb75750613eb661382b565b5b80613ecd575060008054906101000a900460ff16155b613f22576040517f08c379a000000000000000000000000000000000000000000000000000000000815260040180806020018281038252602e815260200180614431602e913960400191505060405180910390fd5b60008060019054906101000a900460ff161590508015613f72576001600060016101000a81548160ff02191690831515021790555060016000806101000a81548160ff0219169083151502179055505b6000613f7c612cfa565b905080603360006101000a81548173ffffffffffffffffffffffffffffffffffffffff021916908373ffffffffffffffffffffffffffffffffffffffff1602179055508073ffffffffffffffffffffffffffffffffffffffff16600073ffffffffffffffffffffffffffffffffffffffff167f8be0079c531659141344cd1fd0a4f28419497f9722a3daafe3b4186f6b6457e060405160405180910390a350801561403c5760008060016101000a81548160ff0219169083151502179055505b50565b600060019054906101000a900460ff168061405e575061405d61382b565b5b80614074575060008054906101000a900460ff16155b6140c9576040517f08c379a000000000000000000000000000000000000000000000000000000000815260040180806020018281038252602e815260200180614431602e913960400191505060405180910390fd5b60008060019054906101000a900460ff161590508015614119576001600060016101000a81548160ff02191690831515021790555060016000806101000a81548160ff0219169083151502179055505b600160658190555080156141425760008060016101000a81548160ff0219169083151502179055505b50565b6060614154848460008561415d565b90509392505050565b6060824710156141b8576040517f08c379a000000000000000000000000000000000000000000000000000000000815260040180806020018281038252602681526020018061440b6026913960400191505060405180910390fd5b6141c185614305565b614233576040517f08c379a000000000000000000000000000000000000000000000000000000000815260040180806020018281038252601d8152602001807f416464726573733a2063616c6c20746f206e6f6e2d636f6e747261637400000081525060200191505060405180910390fd5b6000808673ffffffffffffffffffffffffffffffffffffffff1685876040518082805190602001908083835b60208310614282578051825260208201915060208101905060208303925061425f565b6001836020036101000a03801982511681845116808217855250505050505090500191505060006040518083038185875af1925050503d80600081146142e4576040519150601f19603f3d011682016040523d82523d6000602084013e6142e9565b606091505b50915091506142f9828286614318565b92505050949350505050565b600080823b905060008111915050919050565b60608315614328578290506143dd565b60008351111561433b5782518084602001fd5b816040517f08c379a00000000000000000000000000000000000000000000000000000000081526004018080602001828103825283818151815260200191508051906020019080838360005b838110156143a2578082015181840152602081019050614387565b50505050905090810190601f1680156143cf5780820380516001836020036101000a031916815260200191505b509250505060405180910390fd5b939250505056fe4f776e61626c653a206e6577206f776e657220697320746865207a65726f2061646472657373416464726573733a20696e73756666696369656e742062616c616e636520666f722063616c6c496e697469616c697a61626c653a20636f6e747261637420697320616c726561647920696e697469616c697a6564536166654d6174683a206d756c7469706c69636174696f6e206f766572666c6f775361666545524332303a204552433230206f7065726174696f6e20646964206e6f7420737563636565645361666545524332303a20617070726f76652066726f6d206e6f6e2d7a65726f20746f206e6f6e2d7a65726f20616c6c6f77616e6365a26469706673582212208a61763253d38974d56a1f4adb9321e688f0a7efdedc5956ccaa42cfe4ab465964736f6c63430007060033","linkReferences":{}},"methodIdentifiers":{"SAVINGS_ACCOUNT()":"7b2a2d1f","TREASURY()":"2d2c5565","WETH()":"ad5c4648","addTokenAddress(address,address)":"477ff120","claimCompTokens(address,address)":"dd4ddaf4","depositLimit(address)":"ff98c1e7","emergencyWithdraw(address,address)":"6382d9ad","forceUpdateTokenAddress(address,address)":"0ce44064","getSharesForTokens(uint256,address)":"934a5252","getTokensForShares(uint256,address)":"59846d29","initialize(address)":"c4d66de8","liquidityToken(address)":"1391abc7","lockTokens(address,address,uint256)":"4767ceee","owner()":"8da5cb5b","removeTokenAddress(address,address)":"af56b256","renounceOwnership()":"715018a6","setDepositLimit(address,uint256)":"272d177d","transferOwnership(address)":"f2fde38b","unlockShares(address,address,uint256)":"b6ffc603","unlockTokens(address,address,uint256)":"2d452658"},"id":52}