{
  "_format": "hh-sol-artifact-1",
  "contractName": "RealitioMockup",
  "sourceName": "contracts/mockups/RealitioMockup.sol",
  "abi": [
    {
      "anonymous": false,
      "inputs": [
        {
          "indexed": true,
          "internalType": "bytes32",
          "name": "question_id",
          "type": "bytes32"
        },
        {
          "indexed": true,
          "internalType": "address",
          "name": "user",
          "type": "address"
        },
        {
          "indexed": false,
          "internalType": "uint256",
          "name": "template_id",
          "type": "uint256"
        },
        {
          "indexed": false,
          "internalType": "string",
          "name": "question",
          "type": "string"
        },
        {
          "indexed": true,
          "internalType": "bytes32",
          "name": "content_hash",
          "type": "bytes32"
        },
        {
          "indexed": false,
          "internalType": "address",
          "name": "arbitrator",
          "type": "address"
        },
        {
          "indexed": false,
          "internalType": "uint32",
          "name": "timeout",
          "type": "uint32"
        },
        {
          "indexed": false,
          "internalType": "uint32",
          "name": "opening_ts",
          "type": "uint32"
        },
        {
          "indexed": false,
          "internalType": "uint256",
          "name": "nonce",
          "type": "uint256"
        },
        {
          "indexed": false,
          "internalType": "uint256",
          "name": "created",
          "type": "uint256"
        }
      ],
      "name": "LogNewQuestion",
      "type": "event"
    },
    {
      "anonymous": false,
      "inputs": [
        {
          "indexed": true,
          "internalType": "address",
          "name": "previousOwner",
          "type": "address"
        },
        {
          "indexed": true,
          "internalType": "address",
          "name": "newOwner",
          "type": "address"
        }
      ],
      "name": "OwnershipTransferred",
      "type": "event"
    },
    {
      "inputs": [
        {
          "internalType": "uint256",
          "name": "template_id",
          "type": "uint256"
        },
        {
          "internalType": "string",
          "name": "question",
          "type": "string"
        },
        {
          "internalType": "address",
          "name": "arbitrator",
          "type": "address"
        },
        {
          "internalType": "uint32",
          "name": "timeout",
          "type": "uint32"
        },
        {
          "internalType": "uint32",
          "name": "opening_ts",
          "type": "uint32"
        },
        {
          "internalType": "uint256",
          "name": "nonce",
          "type": "uint256"
        }
      ],
      "name": "askQuestion",
      "outputs": [
        {
          "internalType": "bytes32",
          "name": "",
          "type": "bytes32"
        }
      ],
      "stateMutability": "payable",
      "type": "function"
    },
    {
      "inputs": [
        {
          "internalType": "bytes32",
          "name": "question_id",
          "type": "bytes32"
        }
      ],
      "name": "getContentHash",
      "outputs": [
        {
          "internalType": "bytes32",
          "name": "",
          "type": "bytes32"
        }
      ],
      "stateMutability": "view",
      "type": "function"
    },
    {
      "inputs": [
        {
          "internalType": "address",
          "name": "_market",
          "type": "address"
        }
      ],
      "name": "getMarketQuestion",
      "outputs": [
        {
          "internalType": "string",
          "name": "",
          "type": "string"
        }
      ],
      "stateMutability": "view",
      "type": "function"
    },
    {
      "inputs": [
        {
          "internalType": "address",
          "name": "_market",
          "type": "address"
        }
      ],
      "name": "getMarketQuestionId",
      "outputs": [
        {
          "internalType": "bytes32",
          "name": "",
          "type": "bytes32"
        }
      ],
      "stateMutability": "view",
      "type": "function"
    },
    {
      "inputs": [
        {
          "internalType": "bytes32",
          "name": "question_id",
          "type": "bytes32"
        }
      ],
      "name": "getTimeout",
      "outputs": [
        {
          "internalType": "uint32",
          "name": "",
          "type": "uint32"
        }
      ],
      "stateMutability": "view",
      "type": "function"
    },
    {
      "inputs": [
        {
          "internalType": "bytes32",
          "name": "question_id",
          "type": "bytes32"
        }
      ],
      "name": "isFinalized",
      "outputs": [
        {
          "internalType": "bool",
          "name": "",
          "type": "bool"
        }
      ],
      "stateMutability": "view",
      "type": "function"
    },
    {
      "inputs": [
        {
          "internalType": "address",
          "name": "",
          "type": "address"
        }
      ],
      "name": "marketQuestion",
      "outputs": [
        {
          "internalType": "bytes32",
          "name": "",
          "type": "bytes32"
        }
      ],
      "stateMutability": "view",
      "type": "function"
    },
    {
      "inputs": [],
      "name": "owner",
      "outputs": [
        {
          "internalType": "address",
          "name": "",
          "type": "address"
        }
      ],
      "stateMutability": "view",
      "type": "function"
    },
    {
      "inputs": [
        {
          "internalType": "bytes32",
          "name": "",
          "type": "bytes32"
        }
      ],
      "name": "questions",
      "outputs": [
        {
          "internalType": "bytes32",
          "name": "content_hash",
          "type": "bytes32"
        },
        {
          "internalType": "uint256",
          "name": "template_id",
          "type": "uint256"
        },
        {
          "internalType": "string",
          "name": "question",
          "type": "string"
        },
        {
          "internalType": "address",
          "name": "arbitrator",
          "type": "address"
        },
        {
          "internalType": "uint32",
          "name": "timeout",
          "type": "uint32"
        },
        {
          "internalType": "uint32",
          "name": "opening_ts",
          "type": "uint32"
        },
        {
          "internalType": "uint256",
          "name": "answer",
          "type": "uint256"
        },
        {
          "internalType": "bool",
          "name": "finalised",
          "type": "bool"
        }
      ],
      "stateMutability": "view",
      "type": "function"
    },
    {
      "inputs": [],
      "name": "renounceOwnership",
      "outputs": [],
      "stateMutability": "nonpayable",
      "type": "function"
    },
    {
      "inputs": [
        {
          "internalType": "bytes32",
          "name": "question_id",
          "type": "bytes32"
        }
      ],
      "name": "resultFor",
      "outputs": [
        {
          "internalType": "bytes32",
          "name": "",
          "type": "bytes32"
        }
      ],
      "stateMutability": "view",
      "type": "function"
    },
    {
      "inputs": [
        {
          "internalType": "bytes32",
          "name": "question_id",
          "type": "bytes32"
        },
        {
          "internalType": "uint256",
          "name": "_result",
          "type": "uint256"
        }
      ],
      "name": "setResult",
      "outputs": [],
      "stateMutability": "nonpayable",
      "type": "function"
    },
    {
      "inputs": [
        {
          "internalType": "address",
          "name": "_market",
          "type": "address"
        },
        {
          "internalType": "uint256",
          "name": "_result",
          "type": "uint256"
        }
      ],
      "name": "setResult",
      "outputs": [],
      "stateMutability": "nonpayable",
      "type": "function"
    },
    {
      "inputs": [
        {
          "internalType": "address",
          "name": "newOwner",
          "type": "address"
        }
      ],
      "name": "transferOwnership",
      "outputs": [],
      "stateMutability": "nonpayable",
      "type": "function"
    }
  ],
  "bytecode": "0x608060405234801561001057600080fd5b5061001a3361001f565b61006f565b600080546001600160a01b038381166001600160a01b0319831681178455604051919092169283917f8be0079c531659141344cd1fd0a4f28419497f9722a3daafe3b4186f6b6457e09190a35050565b610d668061007e6000396000f3fe6080604052600436106100dd5760003560e01c80638da5cb5b1161007f5780639f1025c6116100595780639f1025c61461029f578063d09cc57e146102f1578063e4635d3c14610311578063f2fde38b1461033157600080fd5b80638da5cb5b1461022357806392549bf21461024b57806395addb901461026b57600080fd5b8063715018a6116100bb578063715018a614610189578063762c38fd146101a05780637f8d429e146101b35780638d8b378b146101f657600080fd5b806318059a35146100e25780631e2836581461011857806351577ea91461015c575b600080fd5b3480156100ee57600080fd5b506101026100fd366004610a13565b610351565b60405161010f9190610c2c565b60405180910390f35b34801561012457600080fd5b5061014e610133366004610a13565b6001600160a01b031660009081526002602052604090205490565b60405190815260200161010f565b34801561016857600080fd5b5061014e610177366004610a5f565b60009081526001602052604090205490565b34801561019557600080fd5b5061019e61048e565b005b61014e6101ae366004610a9a565b6104cd565b3480156101bf57600080fd5b506101e66101ce366004610a5f565b60009081526001602052604090206005015460ff1690565b604051901515815260200161010f565b34801561020257600080fd5b5061014e610211366004610a13565b60026020526000908152604090205481565b34801561022f57600080fd5b506000546040516001600160a01b03909116815260200161010f565b34801561025757600080fd5b5061019e610266366004610a78565b610644565b34801561027757600080fd5b5061028b610286366004610a5f565b610697565b60405161010f989796959493929190610bce565b3480156102ab57600080fd5b506102dc6102ba366004610a5f565b600090815260016020526040902060030154600160a01b900463ffffffff1690565b60405163ffffffff909116815260200161010f565b3480156102fd57600080fd5b5061014e61030c366004610a5f565b61077d565b34801561031d57600080fd5b5061019e61032c366004610a35565b6107f2565b34801561033d57600080fd5b5061019e61034c366004610a13565b61085f565b6001600160a01b038116600090815260026020818152604080842054845260019091528220018054606092919061038790610cdf565b9050905060008167ffffffffffffffff8111156103a6576103a6610d1a565b6040519080825280601f01601f1916602001820160405280156103d0576020820181803683370190505b506001600160a01b038516600090815260026020818152604080842054845260019091529091200180549192509061040790610cdf565b80601f016020809104026020016040519081016040528092919081815260200182805461043390610cdf565b80156104805780601f1061045557610100808354040283529160200191610480565b820191906000526020600020905b81548152906001019060200180831161046357829003601f168201915b509398975050505050505050565b6000546001600160a01b031633146104c15760405162461bcd60e51b81526004016104b890610c3f565b60405180910390fd5b6104cb60006108fa565b565b600080888489896040516020016104e79493929190610b9f565b60408051601f1981840301815282825280516020918201208184018190526bffffffffffffffffffffffff1960608b811b8216868601526001600160e01b031960e08c901b16605487015233901b166058850152606c80850188905283518086039091018152608c90940183528351938201939093206000818152600192839052929092208381559081018c905591925090610587906002018a8a61094a565b506000818152600160209081526040808320600301805463ffffffff8a8116600160c01b0263ffffffff60c01b19918d16600160a01b026001600160c01b03199093166001600160a01b038f1617929092171617905533808452600290925291829020839055905183919083907ffe2dac156a3890636ce13f65f4fdf41dcaee11526e4a5374531572d92194796c9061062f908f908f908f908f908f908f908f904290610c74565b60405180910390a49998505050505050505050565b6000546001600160a01b0316331461066e5760405162461bcd60e51b81526004016104b890610c3f565b60009182526001602081905260409092206004810191909155600501805460ff19169091179055565b60016020819052600091825260409091208054918101546002820180549192916106c090610cdf565b80601f01602080910402602001604051908101604052809291908181526020018280546106ec90610cdf565b80156107395780601f1061070e57610100808354040283529160200191610739565b820191906000526020600020905b81548152906001019060200180831161071c57829003601f168201915b5050506003840154600485015460059095015493946001600160a01b0382169463ffffffff600160a01b840481169550600160c01b90930490921692509060ff1688565b600081815260016020819052604082206005015460ff161515146107dc5760405162461bcd60e51b8152602060048201526016602482015275145d595cdd1a5bdb881b9bdd08199a5b985b1a5cd95960521b60448201526064016104b8565b5060009081526001602052604090206004015490565b6000546001600160a01b0316331461081c5760405162461bcd60e51b81526004016104b890610c3f565b6001600160a01b0391909116600090815260026020908152604080832054835260019182905290912060048101929092556005909101805460ff19169091179055565b6000546001600160a01b031633146108895760405162461bcd60e51b81526004016104b890610c3f565b6001600160a01b0381166108ee5760405162461bcd60e51b815260206004820152602660248201527f4f776e61626c653a206e6577206f776e657220697320746865207a65726f206160448201526564647265737360d01b60648201526084016104b8565b6108f7816108fa565b50565b600080546001600160a01b038381166001600160a01b0319831681178455604051919092169283917f8be0079c531659141344cd1fd0a4f28419497f9722a3daafe3b4186f6b6457e09190a35050565b82805461095690610cdf565b90600052602060002090601f01602090048101928261097857600085556109be565b82601f106109915782800160ff198235161785556109be565b828001600101855582156109be579182015b828111156109be5782358255916020019190600101906109a3565b506109ca9291506109ce565b5090565b5b808211156109ca57600081556001016109cf565b80356001600160a01b03811681146109fa57600080fd5b919050565b803563ffffffff811681146109fa57600080fd5b600060208284031215610a2557600080fd5b610a2e826109e3565b9392505050565b60008060408385031215610a4857600080fd5b610a51836109e3565b946020939093013593505050565b600060208284031215610a7157600080fd5b5035919050565b60008060408385031215610a8b57600080fd5b50508035926020909101359150565b600080600080600080600060c0888a031215610ab557600080fd5b87359650602088013567ffffffffffffffff80821115610ad457600080fd5b818a0191508a601f830112610ae857600080fd5b813581811115610af757600080fd5b8b6020828501011115610b0957600080fd5b602083019850809750505050610b21604089016109e3565b9350610b2f606089016109ff565b9250610b3d608089016109ff565b915060a0880135905092959891949750929550565b6000815180845260005b81811015610b7857602081850181015186830182015201610b5c565b81811115610b8a576000602083870101525b50601f01601f19169290920160200192915050565b84815260e084901b6001600160e01b031916602082015281836024830137600091016024019081529392505050565b60006101008a8352896020840152806040840152610bee8184018a610b52565b6001600160a01b03989098166060840152505063ffffffff94851660808201529290931660a083015260c082015290151560e0909101529392505050565b602081526000610a2e6020830184610b52565b6020808252818101527f4f776e61626c653a2063616c6c6572206973206e6f7420746865206f776e6572604082015260600190565b88815260e060208201528660e08201526000610100888a828501376000838a018201526001600160a01b039790971660408301525063ffffffff948516606082015292909316608083015260a082015260c0810191909152601f909201601f19169091010192915050565b600181811c90821680610cf357607f821691505b60208210811415610d1457634e487b7160e01b600052602260045260246000fd5b50919050565b634e487b7160e01b600052604160045260246000fdfea26469706673582212204e966a5e7ca89abfaf681226e893224f11cd0aa3bd947978663128b6dbf026a164736f6c63430008070033",
  "linkReferences": {},
  "deployedLinkReferences": {}
}