{
  "_format": "hh-sol-artifact-1",
  "contractName": "TimeswapMath",
  "sourceName": "contracts/libraries/TimeswapMath.sol",
  "abi": [
    {
      "inputs": [
        {
          "internalType": "uint256",
          "name": "maturity",
          "type": "uint256"
        },
        {
          "components": [
            {
              "components": [
                {
                  "internalType": "uint128",
                  "name": "asset",
                  "type": "uint128"
                },
                {
                  "internalType": "uint128",
                  "name": "collateral",
                  "type": "uint128"
                }
              ],
              "internalType": "struct IPair.Tokens",
              "name": "reserves",
              "type": "tuple"
            },
            {
              "internalType": "uint256",
              "name": "feeStored",
              "type": "uint256"
            },
            {
              "internalType": "uint256",
              "name": "totalLiquidity",
              "type": "uint256"
            },
            {
              "components": [
                {
                  "internalType": "uint112",
                  "name": "bondPrincipal",
                  "type": "uint112"
                },
                {
                  "internalType": "uint112",
                  "name": "bondInterest",
                  "type": "uint112"
                },
                {
                  "internalType": "uint112",
                  "name": "insurancePrincipal",
                  "type": "uint112"
                },
                {
                  "internalType": "uint112",
                  "name": "insuranceInterest",
                  "type": "uint112"
                }
              ],
              "internalType": "struct IPair.Claims",
              "name": "totalClaims",
              "type": "tuple"
            },
            {
              "internalType": "uint120",
              "name": "totalDebtCreated",
              "type": "uint120"
            },
            {
              "internalType": "uint112",
              "name": "x",
              "type": "uint112"
            },
            {
              "internalType": "uint112",
              "name": "y",
              "type": "uint112"
            },
            {
              "internalType": "uint112",
              "name": "z",
              "type": "uint112"
            }
          ],
          "internalType": "struct IPair.State",
          "name": "state",
          "type": "tuple"
        },
        {
          "internalType": "uint112",
          "name": "xDecrease",
          "type": "uint112"
        },
        {
          "internalType": "uint112",
          "name": "yIncrease",
          "type": "uint112"
        },
        {
          "internalType": "uint112",
          "name": "zIncrease",
          "type": "uint112"
        },
        {
          "internalType": "uint16",
          "name": "fee",
          "type": "uint16"
        },
        {
          "internalType": "uint16",
          "name": "protocolFee",
          "type": "uint16"
        }
      ],
      "name": "borrow",
      "outputs": [
        {
          "components": [
            {
              "internalType": "uint112",
              "name": "debt",
              "type": "uint112"
            },
            {
              "internalType": "uint112",
              "name": "collateral",
              "type": "uint112"
            },
            {
              "internalType": "uint32",
              "name": "startBlock",
              "type": "uint32"
            }
          ],
          "internalType": "struct IPair.Due",
          "name": "dueOut",
          "type": "tuple"
        },
        {
          "internalType": "uint256",
          "name": "feeStoredIncrease",
          "type": "uint256"
        },
        {
          "internalType": "uint256",
          "name": "protocolFeeStoredIncrease",
          "type": "uint256"
        }
      ],
      "stateMutability": "view",
      "type": "function"
    },
    {
      "inputs": [
        {
          "components": [
            {
              "components": [
                {
                  "internalType": "uint128",
                  "name": "asset",
                  "type": "uint128"
                },
                {
                  "internalType": "uint128",
                  "name": "collateral",
                  "type": "uint128"
                }
              ],
              "internalType": "struct IPair.Tokens",
              "name": "reserves",
              "type": "tuple"
            },
            {
              "internalType": "uint256",
              "name": "feeStored",
              "type": "uint256"
            },
            {
              "internalType": "uint256",
              "name": "totalLiquidity",
              "type": "uint256"
            },
            {
              "components": [
                {
                  "internalType": "uint112",
                  "name": "bondPrincipal",
                  "type": "uint112"
                },
                {
                  "internalType": "uint112",
                  "name": "bondInterest",
                  "type": "uint112"
                },
                {
                  "internalType": "uint112",
                  "name": "insurancePrincipal",
                  "type": "uint112"
                },
                {
                  "internalType": "uint112",
                  "name": "insuranceInterest",
                  "type": "uint112"
                }
              ],
              "internalType": "struct IPair.Claims",
              "name": "totalClaims",
              "type": "tuple"
            },
            {
              "internalType": "uint120",
              "name": "totalDebtCreated",
              "type": "uint120"
            },
            {
              "internalType": "uint112",
              "name": "x",
              "type": "uint112"
            },
            {
              "internalType": "uint112",
              "name": "y",
              "type": "uint112"
            },
            {
              "internalType": "uint112",
              "name": "z",
              "type": "uint112"
            }
          ],
          "internalType": "struct IPair.State",
          "name": "state",
          "type": "tuple"
        },
        {
          "internalType": "uint256",
          "name": "liquidityIn",
          "type": "uint256"
        }
      ],
      "name": "burn",
      "outputs": [
        {
          "internalType": "uint128",
          "name": "assetOut",
          "type": "uint128"
        },
        {
          "internalType": "uint128",
          "name": "collateralOut",
          "type": "uint128"
        },
        {
          "internalType": "uint256",
          "name": "feeOut",
          "type": "uint256"
        }
      ],
      "stateMutability": "pure",
      "type": "function"
    },
    {
      "inputs": [
        {
          "internalType": "uint256",
          "name": "maturity",
          "type": "uint256"
        },
        {
          "components": [
            {
              "components": [
                {
                  "internalType": "uint128",
                  "name": "asset",
                  "type": "uint128"
                },
                {
                  "internalType": "uint128",
                  "name": "collateral",
                  "type": "uint128"
                }
              ],
              "internalType": "struct IPair.Tokens",
              "name": "reserves",
              "type": "tuple"
            },
            {
              "internalType": "uint256",
              "name": "feeStored",
              "type": "uint256"
            },
            {
              "internalType": "uint256",
              "name": "totalLiquidity",
              "type": "uint256"
            },
            {
              "components": [
                {
                  "internalType": "uint112",
                  "name": "bondPrincipal",
                  "type": "uint112"
                },
                {
                  "internalType": "uint112",
                  "name": "bondInterest",
                  "type": "uint112"
                },
                {
                  "internalType": "uint112",
                  "name": "insurancePrincipal",
                  "type": "uint112"
                },
                {
                  "internalType": "uint112",
                  "name": "insuranceInterest",
                  "type": "uint112"
                }
              ],
              "internalType": "struct IPair.Claims",
              "name": "totalClaims",
              "type": "tuple"
            },
            {
              "internalType": "uint120",
              "name": "totalDebtCreated",
              "type": "uint120"
            },
            {
              "internalType": "uint112",
              "name": "x",
              "type": "uint112"
            },
            {
              "internalType": "uint112",
              "name": "y",
              "type": "uint112"
            },
            {
              "internalType": "uint112",
              "name": "z",
              "type": "uint112"
            }
          ],
          "internalType": "struct IPair.State",
          "name": "state",
          "type": "tuple"
        },
        {
          "internalType": "uint112",
          "name": "xIncrease",
          "type": "uint112"
        },
        {
          "internalType": "uint112",
          "name": "yDecrease",
          "type": "uint112"
        },
        {
          "internalType": "uint112",
          "name": "zDecrease",
          "type": "uint112"
        },
        {
          "internalType": "uint16",
          "name": "fee",
          "type": "uint16"
        },
        {
          "internalType": "uint16",
          "name": "protocolFee",
          "type": "uint16"
        }
      ],
      "name": "lend",
      "outputs": [
        {
          "components": [
            {
              "internalType": "uint112",
              "name": "bondPrincipal",
              "type": "uint112"
            },
            {
              "internalType": "uint112",
              "name": "bondInterest",
              "type": "uint112"
            },
            {
              "internalType": "uint112",
              "name": "insurancePrincipal",
              "type": "uint112"
            },
            {
              "internalType": "uint112",
              "name": "insuranceInterest",
              "type": "uint112"
            }
          ],
          "internalType": "struct IPair.Claims",
          "name": "claimsOut",
          "type": "tuple"
        },
        {
          "internalType": "uint256",
          "name": "feeStoredIncrease",
          "type": "uint256"
        },
        {
          "internalType": "uint256",
          "name": "protocolFeeStoredIncrease",
          "type": "uint256"
        }
      ],
      "stateMutability": "view",
      "type": "function"
    },
    {
      "inputs": [
        {
          "internalType": "uint256",
          "name": "maturity",
          "type": "uint256"
        },
        {
          "components": [
            {
              "components": [
                {
                  "internalType": "uint128",
                  "name": "asset",
                  "type": "uint128"
                },
                {
                  "internalType": "uint128",
                  "name": "collateral",
                  "type": "uint128"
                }
              ],
              "internalType": "struct IPair.Tokens",
              "name": "reserves",
              "type": "tuple"
            },
            {
              "internalType": "uint256",
              "name": "feeStored",
              "type": "uint256"
            },
            {
              "internalType": "uint256",
              "name": "totalLiquidity",
              "type": "uint256"
            },
            {
              "components": [
                {
                  "internalType": "uint112",
                  "name": "bondPrincipal",
                  "type": "uint112"
                },
                {
                  "internalType": "uint112",
                  "name": "bondInterest",
                  "type": "uint112"
                },
                {
                  "internalType": "uint112",
                  "name": "insurancePrincipal",
                  "type": "uint112"
                },
                {
                  "internalType": "uint112",
                  "name": "insuranceInterest",
                  "type": "uint112"
                }
              ],
              "internalType": "struct IPair.Claims",
              "name": "totalClaims",
              "type": "tuple"
            },
            {
              "internalType": "uint120",
              "name": "totalDebtCreated",
              "type": "uint120"
            },
            {
              "internalType": "uint112",
              "name": "x",
              "type": "uint112"
            },
            {
              "internalType": "uint112",
              "name": "y",
              "type": "uint112"
            },
            {
              "internalType": "uint112",
              "name": "z",
              "type": "uint112"
            }
          ],
          "internalType": "struct IPair.State",
          "name": "state",
          "type": "tuple"
        },
        {
          "internalType": "uint112",
          "name": "xIncrease",
          "type": "uint112"
        },
        {
          "internalType": "uint112",
          "name": "yIncrease",
          "type": "uint112"
        },
        {
          "internalType": "uint112",
          "name": "zIncrease",
          "type": "uint112"
        }
      ],
      "name": "mint",
      "outputs": [
        {
          "internalType": "uint256",
          "name": "liquidityOut",
          "type": "uint256"
        },
        {
          "components": [
            {
              "internalType": "uint112",
              "name": "debt",
              "type": "uint112"
            },
            {
              "internalType": "uint112",
              "name": "collateral",
              "type": "uint112"
            },
            {
              "internalType": "uint32",
              "name": "startBlock",
              "type": "uint32"
            }
          ],
          "internalType": "struct IPair.Due",
          "name": "dueOut",
          "type": "tuple"
        },
        {
          "internalType": "uint256",
          "name": "feeStoredIncrease",
          "type": "uint256"
        }
      ],
      "stateMutability": "view",
      "type": "function"
    },
    {
      "inputs": [
        {
          "components": [
            {
              "components": [
                {
                  "internalType": "uint128",
                  "name": "asset",
                  "type": "uint128"
                },
                {
                  "internalType": "uint128",
                  "name": "collateral",
                  "type": "uint128"
                }
              ],
              "internalType": "struct IPair.Tokens",
              "name": "reserves",
              "type": "tuple"
            },
            {
              "internalType": "uint256",
              "name": "feeStored",
              "type": "uint256"
            },
            {
              "internalType": "uint256",
              "name": "totalLiquidity",
              "type": "uint256"
            },
            {
              "components": [
                {
                  "internalType": "uint112",
                  "name": "bondPrincipal",
                  "type": "uint112"
                },
                {
                  "internalType": "uint112",
                  "name": "bondInterest",
                  "type": "uint112"
                },
                {
                  "internalType": "uint112",
                  "name": "insurancePrincipal",
                  "type": "uint112"
                },
                {
                  "internalType": "uint112",
                  "name": "insuranceInterest",
                  "type": "uint112"
                }
              ],
              "internalType": "struct IPair.Claims",
              "name": "totalClaims",
              "type": "tuple"
            },
            {
              "internalType": "uint120",
              "name": "totalDebtCreated",
              "type": "uint120"
            },
            {
              "internalType": "uint112",
              "name": "x",
              "type": "uint112"
            },
            {
              "internalType": "uint112",
              "name": "y",
              "type": "uint112"
            },
            {
              "internalType": "uint112",
              "name": "z",
              "type": "uint112"
            }
          ],
          "internalType": "struct IPair.State",
          "name": "state",
          "type": "tuple"
        },
        {
          "components": [
            {
              "internalType": "uint112",
              "name": "bondPrincipal",
              "type": "uint112"
            },
            {
              "internalType": "uint112",
              "name": "bondInterest",
              "type": "uint112"
            },
            {
              "internalType": "uint112",
              "name": "insurancePrincipal",
              "type": "uint112"
            },
            {
              "internalType": "uint112",
              "name": "insuranceInterest",
              "type": "uint112"
            }
          ],
          "internalType": "struct IPair.Claims",
          "name": "claimsIn",
          "type": "tuple"
        }
      ],
      "name": "withdraw",
      "outputs": [
        {
          "components": [
            {
              "internalType": "uint128",
              "name": "asset",
              "type": "uint128"
            },
            {
              "internalType": "uint128",
              "name": "collateral",
              "type": "uint128"
            }
          ],
          "internalType": "struct IPair.Tokens",
          "name": "tokensOut",
          "type": "tuple"
        }
      ],
      "stateMutability": "pure",
      "type": "function"
    }
  ],
  "bytecode": "0x6115a761003a600b82828239805160001a60731461002d57634e487b7160e01b600052600060045260246000fd5b30600052607381538281f3fe73000000000000000000000000000000000000000030146080604052600436106100615760003560e01c806317db9b6b1461006657806329b65e10146100a557806379469a7a146100de57806384ab449b1461014357806397b3791414610199575b600080fd5b610079610074366004611272565b6101bb565b6040805182516001600160801b0390811682526020938401511692810192909252015b60405180910390f35b6100b86100b33660046112a8565b61049a565b604080516001600160801b0394851681529390921660208401529082015260600161009c565b6100f16100ec366004611336565b6105e8565b60405161009c9392919083516001600160701b0390811682526020808601518216908301526040808601518216908301526060948501511693810193909352608083019190915260a082015260c00190565b610156610151366004611336565b61068c565b6040805184516001600160701b039081168252602080870151909116908201529381015163ffffffff16908401526060830191909152608082015260a00161009c565b6101ac6101a73660046112d4565b610705565b60405161009c939291906113bb565b6040805180820190915260008082526020820152825151606084015180516020909101516001600160801b03909216916001600160701b03918216911681610203828261148c565b90508084106102435785516001600160701b03908116808752602088015190911690869061023290839061146a565b6001600160801b0316905250610490565b8284106102a8576020860151838503906001600160701b031661026682826114b8565b905061027284826114a4565b885190915061028a906001600160701b03168261148c565b90506102958161096c565b6001600160801b03168752506102e19050565b85516001600160701b03166102bd85826114b8565b90506102c984826114a4565b90506102d48161096c565b6001600160801b03168652505b606087015160400151848203906001600160701b031661030182826114b8565b6060808b015101519091506001600160701b031661031f83826114b8565b90508161032c828261148c565b8b51602001519091506001600160801b031661034886826114b8565b90508181106103a95760408b015160608c01516001600160701b039182169161037291168261148c565b905061037e86826114b8565b905061038a87826114a4565b90506103958161096c565b6001600160801b031660208c01525061048a565b83811061043c5760608b0151848203906001600160701b03166103cc87826114b8565b9050846103d989826114b8565b90506103e6828483610986565b60408f01519092506001600160701b031661040189826114b8565b905061040d8a826114a4565b9050610419818461148c565b92506104248361096c565b6001600160801b031660208f01525061048a92505050565b60408b01516001600160701b031661045486826114b8565b90508461046188826114b8565b905061046e828483610986565b91506104798261096c565b6001600160801b031660208d015250505b50505050505b5050505092915050565b8151805160209182015160608501518051930151600093849384936001600160801b03918216939116916001600160701b03908116916104db91168261148c565b9050808310610530576040880151818403906104fa9082908a90610986565b90506105058161096c565b60408a0151909750839061051c9082908b90610986565b90506105278161096c565b965050506105c7565b6060808901516040810151910151848303916001600160701b039081169161055991168261148c565b905061056581836114b8565b61056f84866114b8565b11156105c457838261058183826114b8565b905061058d8186610a31565b905061059981836114ff565b91506105b48b8d60400151846109869092919063ffffffff16565b91506105bf8261096c565b985050505b50505b604088015160208901516105dc918990610986565b93505050509250925092565b6040805160808101825260008082526020820181905291810182905260608101829052908061061989898989610a62565b6001600160701b038816835261062f8a88610abf565b6001600160701b031660208401526106478989610aef565b6001600160701b0316604084015261065f8a87610b4f565b6001600160701b031660608401526106798a898787610b7f565b939b909a50929850919650505050505050565b6040805160608101825260008082526020820181905291810182905290806106b689898989610c21565b6106c18a8989610d6a565b6001600160701b031683526106d88a8a8a89610db9565b6001600160701b031660208401526106ee610e57565b63ffffffff1660408401526106798a898787610e67565b60408051606081018252600080825260208201819052918101829052600086604001516000141561074e576fffffffffffffffffffffffffffff0000601087901b169250610897565b600061077f876001600160701b03168960a001516001600160701b03168a604001516109869092919063ffffffff16565b905060006107b2876001600160701b03168a60c001516001600160701b03168b604001516109869092919063ffffffff16565b905060006107e5876001600160701b03168b60e001516001600160701b03168c604001516109869092919063ffffffff16565b9050828211156108295760405162461bcd60e51b815260040161082090602080825260049082015263114c8c4d60e21b604082015260600190565b60405180910390fd5b828111156108625760405162461bcd60e51b8152600401610820906020808252600490820152634532313560e01b604082015260600190565b808211156108705780610872565b815b9550610891868b604001518c60200151610eec9092919063ffffffff16565b93505050505b876108a242826114ff565b90506108b76001600160701b038716826114b8565b90506108c4816020610f29565b90506108d96001600160701b0388168261148c565b90506108e481610f44565b6001600160701b03168352886108fa42826114ff565b905061090f6001600160701b038716826114b8565b905061091c816019610f29565b90506109316001600160701b0387168261148c565b905061093c81610f44565b6001600160701b03166020850152610952610e57565b63ffffffff16604085015250929891975095509350505050565b60006001600160801b0382111561098257600080fd5b5090565b60008060006109958686610f5a565b9150915080600014156109b757836109ac57600080fd5b508290049050610a2a565b8084116109c357600080fd5b6000848688096000868103871696879004966002600389028118808a02820302808a02820302808a02820302808a02820302808a02820302808a02909103029181900381900460010186841190950394909402919094039290920491909117919091029150505b9392505050565b6000610a3d82846114a4565b9050610a498284611531565b15610a5c5780610a5881611516565b9150505b92915050565b6000838560a00151610a74919061143f565b90506000838660c00151610a8891906114d7565b90506000838760e00151610a9c91906114d7565b9050610ab687846001600160701b03808616908516610f79565b50505050505050565b600082610acc42826114ff565b9050610ae16001600160701b038416826114b8565b60201c9050610a5881610f44565b60e08201516000906001600160701b0390811690610b0f908416826114b8565b60a08501519091506001600160701b0390811690610b2f9085168261148c565b9050610b3b81836114a4565b9150610b4682610f44565b95945050505050565b600082610b5c42826114ff565b9050610b716001600160701b038416826114b8565b60191c9050610a5881610f44565b60008061ffff80851690610b959085168261148c565b905086610ba242826114ff565b9050610bae82826114b8565b9050610bbe600160281b8261148c565b90506001600160701b038716610bd482826114b8565b9050610be481600160281b610a31565b6001600160701b03891681039550905084610c0361ffff8916826114b8565b9550610c0f84876114a4565b9a908b90039950975050505050505050565b6000838560a00151610c3391906114d7565b90506000838660c00151610c47919061143f565b90506000838760e00151610c5b919061143f565b9050610c7587846001600160701b03808616908516610f79565b60c08701516001600160701b0380881691610c919116826114b8565b9050610ca6816001600160701b038616610a31565b905080866001600160701b03161115610cea5760405162461bcd60e51b815260040161082090602080825260049082015263114c8c4d60e21b604082015260600190565b60e08801516001600160701b0380891691610d069116826114b8565b9050610d1b816001600160701b038716610a31565b905080866001600160701b03161115610d5f5760405162461bcd60e51b8152600401610820906020808252600490820152634532313560e01b604082015260600190565b505050505050505050565b600083610d7742826114ff565b9050610d8c6001600160701b038416826114b8565b9050610d99816020610f29565b9050610dae6001600160701b0385168261148c565b9050610b4681610f44565b600084610dc642826114ff565b9050610ddb6001600160701b038416826114b8565b9050610de8816019610f29565b60e08601519091506001600160701b0390811690610e08908616826114b8565b60a08701519091506001600160701b0390811690610e28908716826114ff565b9050610e348282610a31565b9150610e40828461148c565b9250610e4b83610f44565b98975050505050505050565b6000610e624361106d565b905090565b60008061ffff80851690610e7d9085168261148c565b905086610e8a42826114ff565b9050610e9682826114b8565b9050610ea6600160281b8261148c565b90506001600160701b038716610ec0600160281b826114b8565b9050610ecc82826114a4565b6001600160701b0389168190039550905084610c0361ffff8916826114b8565b6000610ef9848484610986565b90508180610f1757634e487b7160e01b600052601260045260246000fd5b83850915610a2a5780610b4681611516565b60ff811682811c9081901b8314610a5c5780610a5881611516565b60006001600160701b0382111561098257600080fd5b6000806000198385098385029250828110838203039150509250929050565b600080610fa56001600160701b038616610f9f6001600160801b038087169088166114b8565b90610f5a565b91509150600080610fe38860a001516001600160701b03168960e001516001600160701b03168a60c001516001600160701b0316610f9f91906114b8565b91509150808310156110215760405162461bcd60e51b81526020600482015260076024820152664533303128312960c81b6044820152606401610820565b8083141561106357818410156110635760405162461bcd60e51b81526020600482015260076024820152664533303128322960c81b6044820152606401610820565b5050505050505050565b6000610a5c64010000000083611531565b60006080828403121561108f578081fd5b6040516080810181811067ffffffffffffffff821117156110be57634e487b7160e01b83526041600452602483fd5b6040529050806110cd8361120e565b81526110db6020840161120e565b60208201526110ec6040840161120e565b60408201526110fd6060840161120e565b60608201525092915050565b6000610180828403121561111b578081fd5b611123611407565b905061112f83836111a5565b81526040820135602082015260608201356040820152611152836080840161107e565b6060820152611164610100830161122a565b6080820152611176610120830161120e565b60a0820152611188610140830161120e565b60c082015261119a610160830161120e565b60e082015292915050565b6000604082840312156111b6578081fd5b6040516040810181811067ffffffffffffffff821117156111e557634e487b7160e01b83526041600452602483fd5b6040529050806111f483611249565b815261120260208401611249565b60208201525092915050565b80356001600160701b038116811461122557600080fd5b919050565b80356effffffffffffffffffffffffffffff8116811461122557600080fd5b80356001600160801b038116811461122557600080fd5b803561ffff8116811461122557600080fd5b6000806102008385031215611285578182fd5b61128f8484611109565b915061129f84610180850161107e565b90509250929050565b6000806101a083850312156112bb578182fd5b6112c58484611109565b94610180939093013593505050565b600080600080600061020086880312156112ec578081fd5b853594506112fd8760208801611109565b935061130c6101a0870161120e565b925061131b6101c0870161120e565b915061132a6101e0870161120e565b90509295509295909350565b6000806000806000806000610240888a031215611351578182fd5b873596506113628960208a01611109565b95506113716101a0890161120e565b94506113806101c0890161120e565b935061138f6101e0890161120e565b925061139e6102008901611260565b91506113ad6102208901611260565b905092959891949750929550565b83815260a081016113f960208301856001600160701b038082511683528060208301511660208401525063ffffffff60408201511660408301525050565b826080830152949350505050565b604051610100810167ffffffffffffffff8111828210171561143957634e487b7160e01b600052604160045260246000fd5b60405290565b60006001600160701b0380831681851680830382111561146157611461611545565b01949350505050565b60006001600160801b0380831681851680830382111561146157611461611545565b6000821982111561149f5761149f611545565b500190565b6000826114b3576114b361155b565b500490565b60008160001904831182151516156114d2576114d2611545565b500290565b60006001600160701b03838116908316818110156114f7576114f7611545565b039392505050565b60008282101561151157611511611545565b500390565b600060001982141561152a5761152a611545565b5060010190565b6000826115405761154061155b565b500690565b634e487b7160e01b600052601160045260246000fd5b634e487b7160e01b600052601260045260246000fdfea2646970667358221220c2e1b01806b99b50fd7ed86af8970b351e1f2a056dd3f41b20d6ef1013f1063564736f6c63430008040033",
  "linkReferences": {},
  "deployedLinkReferences": {}
}