{
  "_format": "hh-sol-artifact-1",
  "contractName": "XTokenUpgradeable",
  "sourceName": "contracts/solidity/token/XTokenUpgradeable.sol",
  "abi": [
    {
      "anonymous": false,
      "inputs": [
        {
          "indexed": true,
          "internalType": "address",
          "name": "owner",
          "type": "address"
        },
        {
          "indexed": true,
          "internalType": "address",
          "name": "spender",
          "type": "address"
        },
        {
          "indexed": false,
          "internalType": "uint256",
          "name": "value",
          "type": "uint256"
        }
      ],
      "name": "Approval",
      "type": "event"
    },
    {
      "anonymous": false,
      "inputs": [
        {
          "indexed": true,
          "internalType": "address",
          "name": "previousOwner",
          "type": "address"
        },
        {
          "indexed": true,
          "internalType": "address",
          "name": "newOwner",
          "type": "address"
        }
      ],
      "name": "OwnershipTransferred",
      "type": "event"
    },
    {
      "anonymous": false,
      "inputs": [
        {
          "indexed": false,
          "internalType": "address",
          "name": "user",
          "type": "address"
        },
        {
          "indexed": false,
          "internalType": "uint256",
          "name": "until",
          "type": "uint256"
        }
      ],
      "name": "Timelocked",
      "type": "event"
    },
    {
      "anonymous": false,
      "inputs": [
        {
          "indexed": true,
          "internalType": "address",
          "name": "from",
          "type": "address"
        },
        {
          "indexed": true,
          "internalType": "address",
          "name": "to",
          "type": "address"
        },
        {
          "indexed": false,
          "internalType": "uint256",
          "name": "value",
          "type": "uint256"
        }
      ],
      "name": "Transfer",
      "type": "event"
    },
    {
      "inputs": [
        {
          "internalType": "address",
          "name": "_baseToken",
          "type": "address"
        },
        {
          "internalType": "string",
          "name": "name",
          "type": "string"
        },
        {
          "internalType": "string",
          "name": "symbol",
          "type": "string"
        }
      ],
      "name": "__XToken_init",
      "outputs": [],
      "stateMutability": "nonpayable",
      "type": "function"
    },
    {
      "inputs": [
        {
          "internalType": "address",
          "name": "owner",
          "type": "address"
        },
        {
          "internalType": "address",
          "name": "spender",
          "type": "address"
        }
      ],
      "name": "allowance",
      "outputs": [
        {
          "internalType": "uint256",
          "name": "",
          "type": "uint256"
        }
      ],
      "stateMutability": "view",
      "type": "function"
    },
    {
      "inputs": [
        {
          "internalType": "address",
          "name": "spender",
          "type": "address"
        },
        {
          "internalType": "uint256",
          "name": "amount",
          "type": "uint256"
        }
      ],
      "name": "approve",
      "outputs": [
        {
          "internalType": "bool",
          "name": "",
          "type": "bool"
        }
      ],
      "stateMutability": "nonpayable",
      "type": "function"
    },
    {
      "inputs": [
        {
          "internalType": "address",
          "name": "account",
          "type": "address"
        }
      ],
      "name": "balanceOf",
      "outputs": [
        {
          "internalType": "uint256",
          "name": "",
          "type": "uint256"
        }
      ],
      "stateMutability": "view",
      "type": "function"
    },
    {
      "inputs": [],
      "name": "baseToken",
      "outputs": [
        {
          "internalType": "contract IERC20Upgradeable",
          "name": "",
          "type": "address"
        }
      ],
      "stateMutability": "view",
      "type": "function"
    },
    {
      "inputs": [
        {
          "internalType": "address",
          "name": "who",
          "type": "address"
        },
        {
          "internalType": "uint256",
          "name": "_share",
          "type": "uint256"
        }
      ],
      "name": "burnXTokens",
      "outputs": [
        {
          "internalType": "uint256",
          "name": "",
          "type": "uint256"
        }
      ],
      "stateMutability": "nonpayable",
      "type": "function"
    },
    {
      "inputs": [],
      "name": "decimals",
      "outputs": [
        {
          "internalType": "uint8",
          "name": "",
          "type": "uint8"
        }
      ],
      "stateMutability": "view",
      "type": "function"
    },
    {
      "inputs": [
        {
          "internalType": "address",
          "name": "spender",
          "type": "address"
        },
        {
          "internalType": "uint256",
          "name": "subtractedValue",
          "type": "uint256"
        }
      ],
      "name": "decreaseAllowance",
      "outputs": [
        {
          "internalType": "bool",
          "name": "",
          "type": "bool"
        }
      ],
      "stateMutability": "nonpayable",
      "type": "function"
    },
    {
      "inputs": [
        {
          "internalType": "address",
          "name": "spender",
          "type": "address"
        },
        {
          "internalType": "uint256",
          "name": "addedValue",
          "type": "uint256"
        }
      ],
      "name": "increaseAllowance",
      "outputs": [
        {
          "internalType": "bool",
          "name": "",
          "type": "bool"
        }
      ],
      "stateMutability": "nonpayable",
      "type": "function"
    },
    {
      "inputs": [
        {
          "internalType": "address",
          "name": "account",
          "type": "address"
        },
        {
          "internalType": "uint256",
          "name": "_amount",
          "type": "uint256"
        },
        {
          "internalType": "uint256",
          "name": "timelockLength",
          "type": "uint256"
        }
      ],
      "name": "mintXTokens",
      "outputs": [
        {
          "internalType": "uint256",
          "name": "",
          "type": "uint256"
        }
      ],
      "stateMutability": "nonpayable",
      "type": "function"
    },
    {
      "inputs": [],
      "name": "name",
      "outputs": [
        {
          "internalType": "string",
          "name": "",
          "type": "string"
        }
      ],
      "stateMutability": "view",
      "type": "function"
    },
    {
      "inputs": [],
      "name": "owner",
      "outputs": [
        {
          "internalType": "address",
          "name": "",
          "type": "address"
        }
      ],
      "stateMutability": "view",
      "type": "function"
    },
    {
      "inputs": [],
      "name": "renounceOwnership",
      "outputs": [],
      "stateMutability": "nonpayable",
      "type": "function"
    },
    {
      "inputs": [],
      "name": "symbol",
      "outputs": [
        {
          "internalType": "string",
          "name": "",
          "type": "string"
        }
      ],
      "stateMutability": "view",
      "type": "function"
    },
    {
      "inputs": [
        {
          "internalType": "address",
          "name": "account",
          "type": "address"
        },
        {
          "internalType": "uint256",
          "name": "timelockLength",
          "type": "uint256"
        }
      ],
      "name": "timelockAccount",
      "outputs": [],
      "stateMutability": "nonpayable",
      "type": "function"
    },
    {
      "inputs": [
        {
          "internalType": "address",
          "name": "account",
          "type": "address"
        }
      ],
      "name": "timelockUntil",
      "outputs": [
        {
          "internalType": "uint256",
          "name": "",
          "type": "uint256"
        }
      ],
      "stateMutability": "view",
      "type": "function"
    },
    {
      "inputs": [],
      "name": "totalSupply",
      "outputs": [
        {
          "internalType": "uint256",
          "name": "",
          "type": "uint256"
        }
      ],
      "stateMutability": "view",
      "type": "function"
    },
    {
      "inputs": [
        {
          "internalType": "address",
          "name": "recipient",
          "type": "address"
        },
        {
          "internalType": "uint256",
          "name": "amount",
          "type": "uint256"
        }
      ],
      "name": "transfer",
      "outputs": [
        {
          "internalType": "bool",
          "name": "",
          "type": "bool"
        }
      ],
      "stateMutability": "nonpayable",
      "type": "function"
    },
    {
      "inputs": [
        {
          "internalType": "address",
          "name": "sender",
          "type": "address"
        },
        {
          "internalType": "address",
          "name": "recipient",
          "type": "address"
        },
        {
          "internalType": "uint256",
          "name": "amount",
          "type": "uint256"
        }
      ],
      "name": "transferFrom",
      "outputs": [
        {
          "internalType": "bool",
          "name": "",
          "type": "bool"
        }
      ],
      "stateMutability": "nonpayable",
      "type": "function"
    },
    {
      "inputs": [
        {
          "internalType": "address",
          "name": "newOwner",
          "type": "address"
        }
      ],
      "name": "transferOwnership",
      "outputs": [],
      "stateMutability": "nonpayable",
      "type": "function"
    }
  ],
  "bytecode": "0x608060405234801561001057600080fd5b50611bad806100206000396000f3fe608060405234801561001057600080fd5b506004361061016c5760003560e01c80637efe41b1116100cd578063b068498d11610081578063c55dae6311610066578063c55dae63146102f4578063dd62ed3e14610307578063f2fde38b1461034057600080fd5b8063b068498d146102b8578063c19ea053146102cb57600080fd5b806395d89b41116100b257806395d89b411461028a578063a457c2d714610292578063a9059cbb146102a557600080fd5b80637efe41b1146102525780638da5cb5b1461026557600080fd5b806330fe73fd116101245780633950935111610109578063395093511461020e57806370a0823114610221578063715018a61461024a57600080fd5b806330fe73fd146101ea578063313ce567146101ff57600080fd5b806318160ddd1161015557806318160ddd146101b257806319e616a3146101c457806323b872dd146101d757600080fd5b806306fdde0314610171578063095ea7b31461018f575b600080fd5b610179610353565b6040516101869190611a4f565b60405180910390f35b6101a261019d3660046119bc565b6103e5565b6040519015158152602001610186565b6067545b604051908152602001610186565b6101b66101d23660046119bc565b6103fb565b6101a26101e5366004611910565b6105b1565b6101fd6101f836600461194b565b610679565b005b60405160128152602001610186565b6101a261021c3660046119bc565b610769565b6101b661022f3660046118c4565b6001600160a01b031660009081526065602052604090205490565b6101fd6107a0565b6101b66102603660046119e5565b610851565b6033546001600160a01b03165b6040516001600160a01b039091168152602001610186565b61017961098c565b6101a26102a03660046119bc565b61099b565b6101a26102b33660046119bc565b610a4e565b6101fd6102c63660046119bc565b610a5b565b6101b66102d93660046118c4565b6001600160a01b031660009081526098602052604090205490565b609754610272906001600160a01b031681565b6101b66103153660046118de565b6001600160a01b03918216600090815260666020908152604080832093909416825291909152205490565b6101fd61034e3660046118c4565b610b1d565b60606068805461036290611b10565b80601f016020809104026020016040519081016040528092919081815260200182805461038e90611b10565b80156103db5780601f106103b0576101008083540402835291602001916103db565b820191906000526020600020905b8154815290600101906020018083116103be57829003601f168201915b5050505050905090565b60006103f2338484610c5c565b50600192915050565b6033546000906001600160a01b0316331461045d5760405162461bcd60e51b815260206004820181905260248201527f4f776e61626c653a2063616c6c6572206973206e6f7420746865206f776e657260448201526064015b60405180910390fd5b600061046860675490565b6097546040516370a0823160e01b815230600482015291925060009183916001600160a01b0316906370a082319060240160206040518083038186803b1580156104b157600080fd5b505afa1580156104c5573d6000803e3d6000fd5b505050506040513d601f19601f820116820180604052508101906104e99190611a37565b6104f39086611ada565b6104fd9190611aba565b90506105098585610db5565b6097546040517fa9059cbb0000000000000000000000000000000000000000000000000000000081526001600160a01b038781166004830152602482018490529091169063a9059cbb90604401602060405180830381600087803b15801561057057600080fd5b505af1158015610584573d6000803e3d6000fd5b505050506040513d601f19601f820116820180604052508101906105a89190611a17565b50949350505050565b60006105be848484610e18565b6001600160a01b0384166000908152606660209081526040808320338452909152902054828110156106585760405162461bcd60e51b815260206004820152602860248201527f45524332303a207472616e7366657220616d6f756e742065786365656473206160448201527f6c6c6f77616e63650000000000000000000000000000000000000000000000006064820152608401610454565b61066c85336106678685611af9565b610c5c565b60019150505b9392505050565b600054610100900460ff1680610692575060005460ff16155b6106f55760405162461bcd60e51b815260206004820152602e60248201527f496e697469616c697a61626c653a20636f6e747261637420697320616c72656160448201526d191e481a5b9a5d1a585b1a5e995960921b6064820152608401610454565b600054610100900460ff16158015610717576000805461ffff19166101011790555b61071f610e7d565b6107298383610f40565b6097805473ffffffffffffffffffffffffffffffffffffffff19166001600160a01b0386161790558015610763576000805461ff00191690555b50505050565b3360008181526066602090815260408083206001600160a01b038716845290915281205490916103f2918590610667908690611aa2565b6033546001600160a01b031633146107fa5760405162461bcd60e51b815260206004820181905260248201527f4f776e61626c653a2063616c6c6572206973206e6f7420746865206f776e65726044820152606401610454565b6033546040516000916001600160a01b0316907f8be0079c531659141344cd1fd0a4f28419497f9722a3daafe3b4186f6b6457e0908390a36033805473ffffffffffffffffffffffffffffffffffffffff19169055565b6033546000906001600160a01b031633146108ae5760405162461bcd60e51b815260206004820181905260248201527f4f776e61626c653a2063616c6c6572206973206e6f7420746865206f776e65726044820152606401610454565b6097546040516370a0823160e01b81523060048201526000916001600160a01b0316906370a082319060240160206040518083038186803b1580156108f257600080fd5b505afa158015610906573d6000803e3d6000fd5b505050506040513d601f19601f8201168201806040525081019061092a9190611a37565b9050600061093760675490565b9050801580610944575081155b1561095e57610954868686611006565b8492505050610672565b60008261096b8388611ada565b6109759190611aba565b9050610982878287611006565b9250610672915050565b60606069805461036290611b10565b3360009081526066602090815260408083206001600160a01b038616845290915281205482811015610a355760405162461bcd60e51b815260206004820152602560248201527f45524332303a2064656372656173656420616c6c6f77616e63652062656c6f7760448201527f207a65726f0000000000000000000000000000000000000000000000000000006064820152608401610454565b610a4433856106678685611af9565b5060019392505050565b60006103f2338484610e18565b6033546001600160a01b03163314610ab55760405162461bcd60e51b815260206004820181905260248201527f4f776e61626c653a2063616c6c6572206973206e6f7420746865206f776e65726044820152606401610454565b6000610ac18242611aa2565b6001600160a01b038416600081815260986020908152604091829020849055815192835282018390529192507f38f63775093182d55eb9f15cb41c506fd976eadb1b4544ba0aeaed494ee70cde910160405180910390a1505050565b6033546001600160a01b03163314610b775760405162461bcd60e51b815260206004820181905260248201527f4f776e61626c653a2063616c6c6572206973206e6f7420746865206f776e65726044820152606401610454565b6001600160a01b038116610bf35760405162461bcd60e51b815260206004820152602660248201527f4f776e61626c653a206e6577206f776e657220697320746865207a65726f206160448201527f64647265737300000000000000000000000000000000000000000000000000006064820152608401610454565b6033546040516001600160a01b038084169216907f8be0079c531659141344cd1fd0a4f28419497f9722a3daafe3b4186f6b6457e090600090a36033805473ffffffffffffffffffffffffffffffffffffffff19166001600160a01b0392909216919091179055565b6001600160a01b038316610cd75760405162461bcd60e51b8152602060048201526024808201527f45524332303a20617070726f76652066726f6d20746865207a65726f2061646460448201527f72657373000000000000000000000000000000000000000000000000000000006064820152608401610454565b6001600160a01b038216610d535760405162461bcd60e51b815260206004820152602260248201527f45524332303a20617070726f766520746f20746865207a65726f20616464726560448201527f73730000000000000000000000000000000000000000000000000000000000006064820152608401610454565b6001600160a01b0383811660008181526066602090815260408083209487168084529482529182902085905590518481527f8c5be1e5ebec7d5bd14f71427d1e84f3dd0314c0f7b2291e5b200ac8c7c3b92591015b60405180910390a3505050565b6001600160a01b0382166000908152609860205260409020544211610e0a5760405162461bcd60e51b815260206004820152600b60248201526a155cd95c881b1bd8dad95960aa1b6044820152606401610454565b610e148282611073565b5050565b6001600160a01b0383166000908152609860205260409020544211610e6d5760405162461bcd60e51b815260206004820152600b60248201526a155cd95c881b1bd8dad95960aa1b6044820152606401610454565b610e788383836111f9565b505050565b600054610100900460ff1680610e96575060005460ff16155b610ef95760405162461bcd60e51b815260206004820152602e60248201527f496e697469616c697a61626c653a20636f6e747261637420697320616c72656160448201526d191e481a5b9a5d1a585b1a5e995960921b6064820152608401610454565b600054610100900460ff16158015610f1b576000805461ffff19166101011790555b610f2361141a565b610f2b6114cb565b8015610f3d576000805461ff00191690555b50565b600054610100900460ff1680610f59575060005460ff16155b610fbc5760405162461bcd60e51b815260206004820152602e60248201527f496e697469616c697a61626c653a20636f6e747261637420697320616c72656160448201526d191e481a5b9a5d1a585b1a5e995960921b6064820152608401610454565b600054610100900460ff16158015610fde576000805461ffff19166101011790555b610fe661141a565b610ff083836115cd565b8015610e78576000805461ff0019169055505050565b60006110128242611aa2565b6001600160a01b038516600081815260986020908152604091829020849055815192835282018390529192507f38f63775093182d55eb9f15cb41c506fd976eadb1b4544ba0aeaed494ee70cde910160405180910390a161076384846116a9565b6001600160a01b0382166110ef5760405162461bcd60e51b815260206004820152602160248201527f45524332303a206275726e2066726f6d20746865207a65726f2061646472657360448201527f73000000000000000000000000000000000000000000000000000000000000006064820152608401610454565b6001600160a01b0382166000908152606560205260409020548181101561117e5760405162461bcd60e51b815260206004820152602260248201527f45524332303a206275726e20616d6f756e7420657863656564732062616c616e60448201527f63650000000000000000000000000000000000000000000000000000000000006064820152608401610454565b6111888282611af9565b6001600160a01b038416600090815260656020526040812091909155606780548492906111b6908490611af9565b90915550506040518281526000906001600160a01b038516907fddf252ad1be2c89b69c2b068fc378daa952ba7f163c4a11628f55a4df523b3ef90602001610da8565b6001600160a01b0383166112755760405162461bcd60e51b815260206004820152602560248201527f45524332303a207472616e736665722066726f6d20746865207a65726f20616460448201527f64726573730000000000000000000000000000000000000000000000000000006064820152608401610454565b6001600160a01b0382166112f15760405162461bcd60e51b815260206004820152602360248201527f45524332303a207472616e7366657220746f20746865207a65726f206164647260448201527f65737300000000000000000000000000000000000000000000000000000000006064820152608401610454565b6001600160a01b038316600090815260656020526040902054818110156113805760405162461bcd60e51b815260206004820152602660248201527f45524332303a207472616e7366657220616d6f756e742065786365656473206260448201527f616c616e636500000000000000000000000000000000000000000000000000006064820152608401610454565b61138a8282611af9565b6001600160a01b0380861660009081526065602052604080822093909355908516815290812080548492906113c0908490611aa2565b92505081905550826001600160a01b0316846001600160a01b03167fddf252ad1be2c89b69c2b068fc378daa952ba7f163c4a11628f55a4df523b3ef8460405161140c91815260200190565b60405180910390a350505050565b600054610100900460ff1680611433575060005460ff16155b6114965760405162461bcd60e51b815260206004820152602e60248201527f496e697469616c697a61626c653a20636f6e747261637420697320616c72656160448201526d191e481a5b9a5d1a585b1a5e995960921b6064820152608401610454565b600054610100900460ff16158015610f2b576000805461ffff19166101011790558015610f3d576000805461ff001916905550565b600054610100900460ff16806114e4575060005460ff16155b6115475760405162461bcd60e51b815260206004820152602e60248201527f496e697469616c697a61626c653a20636f6e747261637420697320616c72656160448201526d191e481a5b9a5d1a585b1a5e995960921b6064820152608401610454565b600054610100900460ff16158015611569576000805461ffff19166101011790555b6033805473ffffffffffffffffffffffffffffffffffffffff19163390811790915560405181906000907f8be0079c531659141344cd1fd0a4f28419497f9722a3daafe3b4186f6b6457e0908290a3508015610f3d576000805461ff001916905550565b600054610100900460ff16806115e6575060005460ff16155b6116495760405162461bcd60e51b815260206004820152602e60248201527f496e697469616c697a61626c653a20636f6e747261637420697320616c72656160448201526d191e481a5b9a5d1a585b1a5e995960921b6064820152608401610454565b600054610100900460ff1615801561166b576000805461ffff19166101011790555b825161167e906068906020860190611788565b508151611692906069906020850190611788565b508015610e78576000805461ff0019169055505050565b6001600160a01b0382166116ff5760405162461bcd60e51b815260206004820152601f60248201527f45524332303a206d696e7420746f20746865207a65726f2061646472657373006044820152606401610454565b80606760008282546117119190611aa2565b90915550506001600160a01b0382166000908152606560205260408120805483929061173e908490611aa2565b90915550506040518181526001600160a01b038316906000907fddf252ad1be2c89b69c2b068fc378daa952ba7f163c4a11628f55a4df523b3ef9060200160405180910390a35050565b82805461179490611b10565b90600052602060002090601f0160209004810192826117b657600085556117fc565b82601f106117cf57805160ff19168380011785556117fc565b828001600101855582156117fc579182015b828111156117fc5782518255916020019190600101906117e1565b5061180892915061180c565b5090565b5b80821115611808576000815560010161180d565b80356001600160a01b038116811461183857600080fd5b919050565b600082601f83011261184d578081fd5b813567ffffffffffffffff8082111561186857611868611b61565b604051601f8301601f19908116603f0116810190828211818310171561189057611890611b61565b816040528381528660208588010111156118a8578485fd5b8360208701602083013792830160200193909352509392505050565b6000602082840312156118d5578081fd5b61067282611821565b600080604083850312156118f0578081fd5b6118f983611821565b915061190760208401611821565b90509250929050565b600080600060608486031215611924578081fd5b61192d84611821565b925061193b60208501611821565b9150604084013590509250925092565b60008060006060848603121561195f578283fd5b61196884611821565b9250602084013567ffffffffffffffff80821115611984578384fd5b6119908783880161183d565b935060408601359150808211156119a5578283fd5b506119b28682870161183d565b9150509250925092565b600080604083850312156119ce578182fd5b6119d783611821565b946020939093013593505050565b6000806000606084860312156119f9578283fd5b611a0284611821565b95602085013595506040909401359392505050565b600060208284031215611a28578081fd5b81518015158114610672578182fd5b600060208284031215611a48578081fd5b5051919050565b6000602080835283518082850152825b81811015611a7b57858101830151858201604001528201611a5f565b81811115611a8c5783604083870101525b50601f01601f1916929092016040019392505050565b60008219821115611ab557611ab5611b4b565b500190565b600082611ad557634e487b7160e01b81526012600452602481fd5b500490565b6000816000190483118215151615611af457611af4611b4b565b500290565b600082821015611b0b57611b0b611b4b565b500390565b600181811c90821680611b2457607f821691505b60208210811415611b4557634e487b7160e01b600052602260045260246000fd5b50919050565b634e487b7160e01b600052601160045260246000fd5b634e487b7160e01b600052604160045260246000fdfea26469706673582212207edd9c5032f2879a0b24892d5637f182b70baef12a43c310d7b3d2363a73649e64736f6c63430008040033",
  "linkReferences": {},
  "deployedLinkReferences": {}
}