{
  "_format": "hh-sol-artifact-1",
  "contractName": "TestEarningsPoolNoTranscoderRewardFeePool",
  "sourceName": "contracts/test/TestEarningsPoolNoTranscoderRewardFeePool.sol",
  "abi": [
    {
      "constant": false,
      "inputs": [],
      "name": "test_feePoolShare_notTranscoder",
      "outputs": [],
      "payable": false,
      "stateMutability": "nonpayable",
      "type": "function"
    },
    {
      "constant": false,
      "inputs": [],
      "name": "test_addToRewardPool_zero",
      "outputs": [],
      "payable": false,
      "stateMutability": "nonpayable",
      "type": "function"
    },
    {
      "constant": false,
      "inputs": [],
      "name": "test_hasClaimableShares_nonZeroClaimableStake",
      "outputs": [],
      "payable": false,
      "stateMutability": "nonpayable",
      "type": "function"
    },
    {
      "constant": false,
      "inputs": [],
      "name": "test_feePoolShare_noClaimableStake",
      "outputs": [],
      "payable": false,
      "stateMutability": "nonpayable",
      "type": "function"
    },
    {
      "constant": false,
      "inputs": [],
      "name": "beforeEach",
      "outputs": [],
      "payable": false,
      "stateMutability": "nonpayable",
      "type": "function"
    },
    {
      "constant": false,
      "inputs": [],
      "name": "test_rewardPoolShare_noClaimableStake",
      "outputs": [],
      "payable": false,
      "stateMutability": "nonpayable",
      "type": "function"
    },
    {
      "constant": false,
      "inputs": [],
      "name": "test_rewardPoolShare_isTranscoder",
      "outputs": [],
      "payable": false,
      "stateMutability": "nonpayable",
      "type": "function"
    },
    {
      "constant": false,
      "inputs": [],
      "name": "test_hasTranscoderRewardFeePool",
      "outputs": [],
      "payable": false,
      "stateMutability": "nonpayable",
      "type": "function"
    },
    {
      "constant": false,
      "inputs": [],
      "name": "test_rewardPoolShare_notTranscoder",
      "outputs": [],
      "payable": false,
      "stateMutability": "nonpayable",
      "type": "function"
    },
    {
      "constant": false,
      "inputs": [],
      "name": "test_addToFeePool_zero",
      "outputs": [],
      "payable": false,
      "stateMutability": "nonpayable",
      "type": "function"
    },
    {
      "constant": false,
      "inputs": [],
      "name": "test_addToRewardPool",
      "outputs": [],
      "payable": false,
      "stateMutability": "nonpayable",
      "type": "function"
    },
    {
      "constant": false,
      "inputs": [],
      "name": "test_addToFeePool",
      "outputs": [],
      "payable": false,
      "stateMutability": "nonpayable",
      "type": "function"
    },
    {
      "constant": false,
      "inputs": [],
      "name": "test_hasClaimableShares_zeroClaimableStake",
      "outputs": [],
      "payable": false,
      "stateMutability": "nonpayable",
      "type": "function"
    },
    {
      "constant": false,
      "inputs": [],
      "name": "test_feePoolShare_isTranscoder",
      "outputs": [],
      "payable": false,
      "stateMutability": "nonpayable",
      "type": "function"
    }
  ],
  "bytecode": "0x608060405234801561001057600080fd5b50612407806100206000396000f3fe608060405234801561001057600080fd5b50600436106100ea5760003560e01c806373b928cc1161008c578063942dab9711610066578063942dab971461014157806399c2b74e14610149578063c68f7dfc14610151578063f03c58ca14610159576100ea565b806373b928cc14610129578063790a091e146101315780637a663db514610139576100ea565b8063626452df116100c8578063626452df146101095780636331e7d41461011157806363a375031461011957806368afc7c414610121576100ea565b80632f2035ed146100ef5780633aff0397146100f95780634e725b7a14610101575b600080fd5b6100f7610161565b005b6100f761026b565b6100f76103fc565b6100f761048f565b6100f76106c2565b6100f7610892565b6100f7610a78565b6100f7610b7e565b6100f7610c2c565b6100f7610d33565b6100f7610ec4565b6100f7610fc3565b6100f76110c2565b6100f76112ec565b600080546040805163696c7b7760e01b81526103e8600482015290516001600160a01b039092169263696c7b779260248084019382900301818387803b1580156101aa57600080fd5b505af11580156101be573d6000803e3d6000fd5b505060008054604080516307fedea160e11b81526101f4600482015260248101939093525161026894506001600160a01b039091169250630ffdbd4291604480820192602092909190829003018186803b15801561021b57600080fd5b505afa15801561022f573d6000803e3d6000fd5b505050506040513d602081101561024557600080fd5b50516040805160608101909152602b80825260fa919061219660208301396113ee565b50565b6000805460408051635caffde760e11b81526004810184905290516001600160a01b039092169263b95ffbce9260248084019382900301818387803b1580156102b357600080fd5b505af11580156102c7573d6000803e3d6000fd5b505050506103686000809054906101000a90046001600160a01b03166001600160a01b0316631b8b13a76040518163ffffffff1660e01b815260040160206040518083038186803b15801561031b57600080fd5b505afa15801561032f573d6000803e3d6000fd5b505050506040513d602081101561034557600080fd5b50516040805160608101909152602d808252600091906122ad60208301396113ee565b5060005460408051630bc4b70960e11b81529051610268926001600160a01b0316916317896e12916004808301926020929190829003018186803b1580156103af57600080fd5b505afa1580156103c3573d6000803e3d6000fd5b505050506040513d60208110156103d957600080fd5b50516040805160608101909152602e8082526000919061213960208301396113ee565b60005460408051630423018560e51b81529051610268926001600160a01b03169163846030a0916004808301926020929190829003018186803b15801561044257600080fd5b505afa158015610456573d6000803e3d6000fd5b505050506040513d602081101561046c57600080fd5b505160408051606081019091526039808252600191906121c160208301396114e5565b60008054604080516335d9db5360e01b81526004810184905290516001600160a01b03909216926335d9db539260248084019382900301818387803b1580156104d757600080fd5b505af11580156104eb573d6000803e3d6000fd5b5050600080546040805163262728df60e21b81526004810184905290516001600160a01b03909216945063989ca37c9350602480820193929182900301818387803b15801561053957600080fd5b505af115801561054d573d6000803e3d6000fd5b505060008054604080516328b3d05b60e11b8152600481018490526024810184905290516001600160a01b039092169450635167a0b69350604480820193929182900301818387803b1580156105a257600080fd5b505af11580156105b6573d6000803e3d6000fd5b5050600080546040805163211efd4960e01b81526004810184905290516001600160a01b03909216945063211efd499350602480820193929182900301818387803b15801561060457600080fd5b505af1158015610618573d6000803e3d6000fd5b505060008054604080516307fedea160e11b81526101f4600482015260248101939093525161026894506001600160a01b039091169250630ffdbd4291604480820192602092909190829003018186803b15801561067557600080fd5b505afa158015610689573d6000803e3d6000fd5b505050506040513d602081101561069f57600080fd5b5051604080516060810190915260258082526000919061233160208301396113ee565b6040516106ce90611562565b604051809103906000f0801580156106ea573d6000803e3d6000fd5b50600080546001600160a01b0319166001600160a01b0392831617808255604080516335d9db5360e01b81526103e86004820152905191909316926335d9db5392602480830193919282900301818387803b15801561074857600080fd5b505af115801561075c573d6000803e3d6000fd5b5050600080546040805163262728df60e21b81526103e8600482015290516001600160a01b03909216945063989ca37c9350602480820193929182900301818387803b1580156107ab57600080fd5b505af11580156107bf573d6000803e3d6000fd5b505060008054604080516328b3d05b60e11b81526207a12060048201819052602482015290516001600160a01b039092169450635167a0b69350604480820193929182900301818387803b15801561081657600080fd5b505af115801561082a573d6000803e3d6000fd5b5050600080546040805163211efd4960e01b81526004810184905290516001600160a01b03909216945063211efd499350602480820193929182900301818387803b15801561087857600080fd5b505af115801561088c573d6000803e3d6000fd5b50505050565b60008054604080516335d9db5360e01b81526004810184905290516001600160a01b03909216926335d9db539260248084019382900301818387803b1580156108da57600080fd5b505af11580156108ee573d6000803e3d6000fd5b5050600080546040805163262728df60e21b81526004810184905290516001600160a01b03909216945063989ca37c9350602480820193929182900301818387803b15801561093c57600080fd5b505af1158015610950573d6000803e3d6000fd5b505060008054604080516328b3d05b60e11b8152600481018490526024810184905290516001600160a01b039092169450635167a0b69350604480820193929182900301818387803b1580156109a557600080fd5b505af11580156109b9573d6000803e3d6000fd5b5050600080546040805163211efd4960e01b81526004810184905290516001600160a01b03909216945063211efd499350602480820193929182900301818387803b158015610a0757600080fd5b505af1158015610a1b573d6000803e3d6000fd5b5050600080546040805163059ebb9160e21b81526101f4600482015260248101939093525161026894506001600160a01b03909116925063167aee4491604480820192602092909190829003018186803b15801561067557600080fd5b6000805460408051635caffde760e11b81526103e8600482015290516001600160a01b039092169263b95ffbce9260248084019382900301818387803b158015610ac157600080fd5b505af1158015610ad5573d6000803e3d6000fd5b50506000546040805163059ebb9160e21b81526101f4600482015260016024820152905161026894506001600160a01b03909216925063167aee44916044808301926020929190829003018186803b158015610b3057600080fd5b505afa158015610b44573d6000803e3d6000fd5b505050506040513d6020811015610b5a57600080fd5b5051604080516080810190915260578082526102ee91906122da60208301396113ee565b60005460408051630478cd4760e21b81529051610268926001600160a01b0316916311e3351c916004808301926020929190829003018186803b158015610bc457600080fd5b505afa158015610bd8573d6000803e3d6000fd5b505050506040513d6020811015610bee57600080fd5b50516040805180820190915260208082527f77726f6e67206861735472616e73636f646572526577617264466565506f6f6c908201526000906114e5565b6000805460408051635caffde760e11b81526103e8600482015290516001600160a01b039092169263b95ffbce9260248084019382900301818387803b158015610c7557600080fd5b505af1158015610c89573d6000803e3d6000fd5b5050600080546040805163059ebb9160e21b81526101f4600482015260248101939093525161026894506001600160a01b03909116925063167aee4491604480820192602092909190829003018186803b158015610ce657600080fd5b505afa158015610cfa573d6000803e3d6000fd5b505050506040513d6020811015610d1057600080fd5b50516040805160608101909152602e80825260fa919061237e60208301396113ee565b600080546040805163696c7b7760e01b81526004810184905290516001600160a01b039092169263696c7b779260248084019382900301818387803b158015610d7b57600080fd5b505af1158015610d8f573d6000803e3d6000fd5b50505050610e306000809054906101000a90046001600160a01b03166001600160a01b031663385160646040518163ffffffff1660e01b815260040160206040518083038186803b158015610de357600080fd5b505afa158015610df7573d6000803e3d6000fd5b505050506040513d6020811015610e0d57600080fd5b505160408051606081019091526027808252600091906123ac60208301396113ee565b506000546040805163222ccad560e11b81529051610268926001600160a01b03169163445995aa916004808301926020929190829003018186803b158015610e7757600080fd5b505afa158015610e8b573d6000803e3d6000fd5b505050506040513d6020811015610ea157600080fd5b5051604080516060810190915260288082526000919061235660208301396113ee565b6000805460408051635caffde760e11b81526103e8600482015290516001600160a01b039092169263b95ffbce9260248084019382900301818387803b158015610f0d57600080fd5b505af1158015610f21573d6000803e3d6000fd5b505050506103686000809054906101000a90046001600160a01b03166001600160a01b0316631b8b13a76040518163ffffffff1660e01b815260040160206040518083038186803b158015610f7557600080fd5b505afa158015610f89573d6000803e3d6000fd5b505050506040513d6020811015610f9f57600080fd5b50516040805160608101909152602f8082526103e8919061216760208301396113ee565b600080546040805163696c7b7760e01b81526103e8600482015290516001600160a01b039092169263696c7b779260248084019382900301818387803b15801561100c57600080fd5b505af1158015611020573d6000803e3d6000fd5b50505050610e306000809054906101000a90046001600160a01b03166001600160a01b031663385160646040518163ffffffff1660e01b815260040160206040518083038186803b15801561107457600080fd5b505afa158015611088573d6000803e3d6000fd5b505050506040513d602081101561109e57600080fd5b5051604080516060810190915260298082526103e8919061228460208301396113ee565b60008054604080516335d9db5360e01b81526004810184905290516001600160a01b03909216926335d9db539260248084019382900301818387803b15801561110a57600080fd5b505af115801561111e573d6000803e3d6000fd5b5050600080546040805163262728df60e21b81526004810184905290516001600160a01b03909216945063989ca37c9350602480820193929182900301818387803b15801561116c57600080fd5b505af1158015611180573d6000803e3d6000fd5b505060008054604080516328b3d05b60e11b8152600481018490526024810184905290516001600160a01b039092169450635167a0b69350604480820193929182900301818387803b1580156111d557600080fd5b505af11580156111e9573d6000803e3d6000fd5b5050600080546040805163211efd4960e01b81526004810184905290516001600160a01b03909216945063211efd499350602480820193929182900301818387803b15801561123757600080fd5b505af115801561124b573d6000803e3d6000fd5b505050506102686000809054906101000a90046001600160a01b03166001600160a01b031663846030a06040518163ffffffff1660e01b815260040160206040518083038186803b15801561129f57600080fd5b505afa1580156112b3573d6000803e3d6000fd5b505050506040513d60208110156112c957600080fd5b5051604080516060810190915260368082526000919061224e60208301396114e5565b600080546040805163696c7b7760e01b81526103e8600482015290516001600160a01b039092169263696c7b779260248084019382900301818387803b15801561133557600080fd5b505af1158015611349573d6000803e3d6000fd5b5050600054604080516307fedea160e11b81526101f4600482015260016024820152905161026894506001600160a01b039092169250630ffdbd42916044808301926020929190829003018186803b1580156113a457600080fd5b505afa1580156113b8573d6000803e3d6000fd5b505050506040513d60208110156113ce57600080fd5b5051604080516080810190915260548082526102ee91906121fa60208301395b600073__$e901dca744fb84f4a971fc691ff70ddea6$__63abcd79608585856040518463ffffffff1660e01b81526004018084815260200183815260200180602001828103825283818151815260200191508051906020019080838360005b8381101561146557818101518382015260200161144d565b50505050905090810190601f1680156114925780820380516001836020036101000a031916815260200191505b5094505050505060206040518083038186803b1580156114b157600080fd5b505af41580156114c5573d6000803e3d6000fd5b505050506040513d60208110156114db57600080fd5b5051949350505050565b60405163767392b360e01b815283151560048201908152831515602483015260606044830190815283516064840152835160009373__$c251312a8326b3dca0be11840a52f0a21e$__9363767392b393899389938993929160849091019060208501908083838d831561146557818101518382015260200161144d565b610bc9806115708339019056fe608060405234801561001057600080fd5b50610ba9806100206000396000f3fe608060405234801561001057600080fd5b50600436106101425760003560e01c8063696c7b77116100b857806398a8179b1161007c57806398a8179b1461029a578063a3af8c50146102bd578063a846e629146102c5578063b61f16e3146102e2578063b95ffbce14610331578063d69bb56a1461034e57610142565b8063696c7b77146102485780637bc74225146102655780637de0d23c1461026d578063846030a014610275578063989ca37c1461027d57610142565b8063211efd491161010a578063211efd49146101cf57806335d9db53146101f0578063385160641461020d578063445995aa146102155780635167a0b61461021d578063575a41871461024057610142565b80630ffdbd421461014757806311e3351c1461017e578063167aee441461019a57806317896e12146101bf5780631b8b13a7146101c7575b600080fd5b61016c6004803603604081101561015d57600080fd5b5080359060200135151561036b565b60408051918252519081900360200190f35b610186610388565b604080519115158252519081900360200190f35b61016c600480360360408110156101b057600080fd5b50803590602001351515610391565b61016c6103a5565b61016c6103ab565b6101ee600480360360208110156101e557600080fd5b503515156103b1565b005b6101ee6004803603602081101561020657600080fd5b50356103c4565b61016c6103d8565b61016c6103de565b6101ee6004803603604081101561023357600080fd5b50803590602001356103e4565b61016c6103fa565b6101ee6004803603602081101561025e57600080fd5b5035610400565b61016c610479565b61016c61047f565b610186610485565b6101ee6004803603602081101561029357600080fd5b5035610496565b6101ee600480360360408110156102b057600080fd5b508035906020013561049b565b61016c6104a6565b6101ee600480360360208110156102db57600080fd5b50356104ac565b6102ea610529565b60408051998a5260208a0198909852888801969096526060880194909452911515608087015260a086015260c085015260e084015261010083015251908190036101200190f35b6101ee6004803603602081101561034757600080fd5b5035610555565b6101ee6004803603602081101561036457600080fd5b50356105cd565b600061037f600b848463ffffffff61064a16565b90505b92915050565b60135460ff1690565b600061037f600b848463ffffffff61069e16565b60115490565b600b5490565b6013805460ff1916911515919091179055565b6103d5600b8263ffffffff6106c816565b50565b600c5490565b60125490565b6103f6600b838363ffffffff6106d016565b5050565b600e5490565b60135460ff161561046057600061041c82600b600501546106e0565b600c54909150610432908263ffffffff61070516565b600c55610457610448838363ffffffff61075f16565b6012549063ffffffff61070516565b601255506103d5565b600c54610473908263ffffffff61070516565b600c5550565b600d5490565b60155490565b6000610491600b6107bc565b905090565b600e55565b600a91909155600955565b60145490565b604080516101608101825260005481526001546020820152600254918101919091526003546060820152600454608082015260055460a082015260065460c082015260075460e082015260085460ff161515610100820152600954610120820152600a546101408201526103d590600b908363ffffffff6107c516565b600b54600c54601154601254601354600d54600e54600f5460105460ff90941693909192939495969798565b60135460ff16156105b457600061057182600b600401546106e0565b9050610595610586838363ffffffff61075f16565b600b549063ffffffff61070516565b600b556011546105ab908263ffffffff61070516565b601155506103d5565b600b546105c7908263ffffffff61070516565b600b5550565b604080516101608101825260005481526001546020820152600254918101919091526003546060820152600454608082015260055460a082015260065460c082015260075460e082015260085460ff161515610100820152600954610120820152600a546101408201526103d590600b908363ffffffff61081b16565b60088301546000908190819060ff1615610673576106698686866108b0565b9092509050610684565b61067e8686866108fe565b90925090505b610694828263ffffffff61070516565b9695505050505050565b60088301546000908190819060ff16156106bd5761066986868661096e565b61067e8686866109b6565b600290910155565b6004830191909155600590910155565b600061037f620f42406106f9858563ffffffff610a1016565b9063ffffffff610a6916565b60008282018381101561037f576040805162461bcd60e51b815260206004820152601b60248201527f536166654d6174683a206164646974696f6e206f766572666c6f770000000000604482015290519081900360640190fd5b6000828211156107b6576040805162461bcd60e51b815260206004820152601e60248201527f536166654d6174683a207375627472616374696f6e206f766572666c6f770000604482015290519081900360640190fd5b50900390565b60030154151590565b6000826101200151600014156107e5576107e0600180610ad3565b6107ec565b8261012001515b905061080d61080082848760020154610af5565b829063ffffffff61070516565b846009018190555050505050565b61014082015161012083015160009061083e57610839600180610ad3565b610845565b8361012001515b905084600a0154600014156108805761087361086682858860020154610af5565b839063ffffffff61070516565b600a860155506108ab9050565b6108a361089282858860020154610af5565b600a8701549063ffffffff61070516565b600a86015550505b505050565b6000806000808660030154116108c75760006108da565b6108da8660010154868860030154610b29565b9050836108e9578060006108f0565b8086600701545b92509250505b935093915050565b600383015460009081908190819015610952576000610925886001015489600501546106e0565b600189015490915061093d908263ffffffff61075f16565b925061094e81888a60030154610b29565b9150505b841561096157925090506108f6565b9250600091506108f69050565b600080600080866003015411610985576000610998565b6109988660000154868860030154610b29565b9050836109a7578060006108f0565b60069095015494959350505050565b600383015460009081908190819015610952576109db876000015488600401546106e0565b87549092506109ff906109f4908463ffffffff61075f16565b878960030154610b29565b9050841561096157925090506108f6565b600082610a1f57506000610382565b82820282848281610a2c57fe5b041461037f5760405162461bcd60e51b8152600401808060200182810382526021815260200180610b546021913960400191505060405180910390fd5b6000808211610abf576040805162461bcd60e51b815260206004820152601a60248201527f536166654d6174683a206469766973696f6e206279207a65726f000000000000604482015290519081900360640190fd5b6000828481610aca57fe5b04949350505050565b600061037f826106f9856b033b2e3c9fd0803ce800000063ffffffff610a1016565b6000610b216b033b2e3c9fd0803ce80000006106f9610b148686610ad3565b879063ffffffff610a1016565b949350505050565b6000610b21620f42406106f9610b148686600061037f826106f985620f424063ffffffff610a101656fe536166654d6174683a206d756c7469706c69636174696f6e206f766572666c6f77a265627a7a72315820f6af5ff1ac507a93ed7745aae3554b60e23a0dacc40291492ee9eabe559e671a64736f6c634300050b003273686f756c64207075742030207265776172647320696e207472616e73636f6465722072657761726420706f6f6c73686f756c642070757420616c6c207265776172647320696e2064656c656761746f722072657761726420706f6f6c73686f756c642072657475726e2064656c656761746f722773207368617265206f662066656520706f6f6c73686f756c642072657475726e2074727565207768656e20706f6f6c20686173206e6f6e2d7a65726f20636c61696d61626c65207374616b6573686f756c642072657475726e207472616e73636f6465722773207368617265206f662066656520706f6f6c20776869636820696e636c756465732069747320736861726520617320612064656c656761746f7273686f756c642072657475726e2066616c7365207768656e20706f6f6c20686173207a65726f20636c61696d61626c65207374616b6573686f756c642070757420616c6c206665657320696e2064656c656761746f722066656520706f6f6c73686f756c64207075742030207265776172647320696e2064656c656761746f722072657761726420706f6f6c73686f756c642072657475726e207472616e73636f6465722773207368617265206f662072657761726420706f6f6c20776869636820696e636c756465732069747320736861726520617320612064656c656761746f7273686f756c642072657475726e2030206966206e6f20636c61696d61626c65207374616b6573686f756c64207075742030206665657320696e207472616e73636f6465722066656520706f6f6c73686f756c642072657475726e2064656c656761746f722773207368617265206f662072657761726420706f6f6c73686f756c64207075742030206665657320696e2064656c656761746f722066656520706f6f6ca265627a7a72315820349b8d58a332fac23bf76ebb870cf8f91f0ead5390431387c416361e36d8838e64736f6c634300050b0032",
  "linkReferences": {
    "contracts/test/helpers/truffle/AssertBool.sol": {
      "AssertBool": [
        {
          "length": 20,
          "start": 5435
        }
      ]
    },
    "contracts/test/helpers/truffle/AssertUint.sol": {
      "AssertUint": [
        {
          "length": 20,
          "start": 5138
        }
      ]
    }
  },
  "deployedLinkReferences": {
    "contracts/test/helpers/truffle/AssertBool.sol": {
      "AssertBool": [
        {
          "length": 20,
          "start": 5403
        }
      ]
    },
    "contracts/test/helpers/truffle/AssertUint.sol": {
      "AssertUint": [
        {
          "length": 20,
          "start": 5106
        }
      ]
    }
  }
}