{
  "_format": "hh-sol-artifact-1",
  "contractName": "AvalancheUSDT",
  "sourceName": "contracts/hyphen/token/svg-helpers/Avalanche/Avalanche.USDT.sol",
  "abi": [
    {
      "inputs": [
        {
          "internalType": "uint256",
          "name": "_decimals",
          "type": "uint256"
        }
      ],
      "stateMutability": "nonpayable",
      "type": "constructor"
    },
    {
      "anonymous": false,
      "inputs": [
        {
          "indexed": false,
          "internalType": "string",
          "name": "newBackgroundUrl",
          "type": "string"
        }
      ],
      "name": "BackgroundUrlUpdated",
      "type": "event"
    },
    {
      "anonymous": false,
      "inputs": [
        {
          "indexed": true,
          "internalType": "address",
          "name": "previousOwner",
          "type": "address"
        },
        {
          "indexed": true,
          "internalType": "address",
          "name": "newOwner",
          "type": "address"
        }
      ],
      "name": "OwnershipTransferred",
      "type": "event"
    },
    {
      "anonymous": false,
      "inputs": [
        {
          "indexed": false,
          "internalType": "uint256",
          "name": "newTokenDecimals",
          "type": "uint256"
        }
      ],
      "name": "TokenDecimalsUpdated",
      "type": "event"
    },
    {
      "inputs": [
        {
          "internalType": "uint256",
          "name": "_suppliedLiquidity",
          "type": "uint256"
        },
        {
          "internalType": "uint256",
          "name": "_totalSuppliedLiquidity",
          "type": "uint256"
        }
      ],
      "name": "getAttributes",
      "outputs": [
        {
          "internalType": "string",
          "name": "",
          "type": "string"
        }
      ],
      "stateMutability": "view",
      "type": "function"
    },
    {
      "inputs": [],
      "name": "getChainName",
      "outputs": [
        {
          "internalType": "string",
          "name": "",
          "type": "string"
        }
      ],
      "stateMutability": "pure",
      "type": "function"
    },
    {
      "inputs": [
        {
          "internalType": "uint256",
          "name": "_suppliedLiquidity",
          "type": "uint256"
        },
        {
          "internalType": "uint256",
          "name": "_totalSuppliedLiquidity",
          "type": "uint256"
        }
      ],
      "name": "getDescription",
      "outputs": [
        {
          "internalType": "string",
          "name": "",
          "type": "string"
        }
      ],
      "stateMutability": "view",
      "type": "function"
    },
    {
      "inputs": [
        {
          "internalType": "uint256",
          "name": "_tokenId",
          "type": "uint256"
        },
        {
          "internalType": "uint256",
          "name": "_suppliedLiquidity",
          "type": "uint256"
        },
        {
          "internalType": "uint256",
          "name": "_totalSuppliedLiquidity",
          "type": "uint256"
        }
      ],
      "name": "getTokenSvg",
      "outputs": [
        {
          "internalType": "string",
          "name": "",
          "type": "string"
        }
      ],
      "stateMutability": "view",
      "type": "function"
    },
    {
      "inputs": [],
      "name": "owner",
      "outputs": [
        {
          "internalType": "address",
          "name": "",
          "type": "address"
        }
      ],
      "stateMutability": "view",
      "type": "function"
    },
    {
      "inputs": [],
      "name": "renounceOwnership",
      "outputs": [],
      "stateMutability": "nonpayable",
      "type": "function"
    },
    {
      "inputs": [
        {
          "internalType": "uint256",
          "name": "_tokenDecimals",
          "type": "uint256"
        }
      ],
      "name": "setTokenDecimals",
      "outputs": [],
      "stateMutability": "nonpayable",
      "type": "function"
    },
    {
      "inputs": [],
      "name": "tokenDecimals",
      "outputs": [
        {
          "internalType": "uint256",
          "name": "",
          "type": "uint256"
        }
      ],
      "stateMutability": "view",
      "type": "function"
    },
    {
      "inputs": [
        {
          "internalType": "address",
          "name": "newOwner",
          "type": "address"
        }
      ],
      "name": "transferOwnership",
      "outputs": [],
      "stateMutability": "nonpayable",
      "type": "function"
    }
  ],
  "bytecode": "0x60806040523480156200001157600080fd5b50604051620031b0380380620031b08339810160408190526200003491620000a7565b80620000496200004362000053565b62000057565b60015550620000c0565b3390565b600080546001600160a01b038381166001600160a01b0319831681178455604051919092169283917f8be0079c531659141344cd1fd0a4f28419497f9722a3daafe3b4186f6b6457e09190a35050565b600060208284031215620000b9578081fd5b5051919050565b6130e080620000d06000396000f3fe608060405234801561001057600080fd5b50600436106100935760003560e01c80638da5cb5b116100665780638da5cb5b146100f3578063b97af2c814610108578063d722b0bc1461011b578063d94017b214610123578063f2fde38b1461013657610093565b80633b97e8561461009857806360072b11146100b6578063617a3cd8146100d6578063715018a6146100e9575b600080fd5b6100a0610149565b6040516100ad9190612e89565b60405180910390f35b6100c96100c43660046107bc565b61014f565b6040516100ad9190612ddb565b6100c96100e43660046107dd565b61019d565b6100f16101fd565b005b6100fb610251565b6040516100ad9190612dc7565b6100f16101163660046107a4565b610260565b6100c96102df565b6100c96101313660046107bc565b610302565b6100f161014436600461077d565b610333565b60015481565b606060006101618460015460036103a4565b9050600061016f85856104fc565b90508181604051602001610184929190610e4f565b6040516020818303038152906040529250505092915050565b606060006101aa85610528565b905060006101bc8560015460036103a4565b905060006101ca86866104fc565b90508181846040516020016101e193929190610f3d565b60405160208183030381529060405293505050505b9392505050565b61020561064d565b6001600160a01b0316610216610251565b6001600160a01b0316146102455760405162461bcd60e51b815260040161023c90612e54565b60405180910390fd5b61024f6000610651565b565b6000546001600160a01b031690565b61026861064d565b6001600160a01b0316610279610251565b6001600160a01b03161461029f5760405162461bcd60e51b815260040161023c90612e54565b60018190556040517f03843ff361861286e264d715d7e39e4f0d8babbee80357c8467b29fd6225a0c5906102d4908390612e89565b60405180910390a150565b6040805180820190915260098152684176616c616e63686560b81b602082015290565b606061030c6102df565b60405160200161031c9190612cef565b604051602081830303815290604052905092915050565b61033b61064d565b6001600160a01b031661034c610251565b6001600160a01b0316146103725760405162461bcd60e51b815260040161023c90612e54565b6001600160a01b0381166103985760405162461bcd60e51b815260040161023c90612e0e565b6103a181610651565b50565b606060006103b384600a612f04565b6103bd9086612eaa565b90506000806103cd86600a612f04565b6103d7908861306a565b905085811561044c575b81158015906103f857506103f6600a8361306a565b155b1561042357610408600a83612eaa565b9150801561041e578061041a81613038565b9150505b6103e1565b808061042e846106a1565b101561044a5761043d836106a1565b6104479082612ff1565b93505b505b816104655761045a84610528565b9450505050506101f6565b60008684610472856106a1565b61047c9190612e92565b116104885760006104a7565b8684610493856106a1565b61049d9190612e92565b6104a79190612ff1565b90506104b285610528565b6104bb856106ce565b6104cd6104c88685610731565b610528565b6040516020016104df93929190610dfc565b604051602081830303815290604052955050505050509392505050565b60606101f6826105158568056bc75e2d63100000612fd2565b61051f9190612eaa565b601260026103a4565b60608161054d57506040805180820190915260018152600360fc1b6020820152610648565b8160005b811561057757806105618161304f565b91506105709050600a83612eaa565b9150610551565b60008167ffffffffffffffff8111156105a057634e487b7160e01b600052604160045260246000fd5b6040519080825280601f01601f1916602001820160405280156105ca576020820181803683370190505b5090505b8415610643576105df600183612ff1565b91506105ec600a8661306a565b6105f7906030612e92565b60f81b81838151811061061a57634e487b7160e01b600052603260045260246000fd5b60200101906001600160f81b031916908160001a90535061063c600a86612eaa565b94506105ce565b925050505b919050565b3390565b600080546001600160a01b038381166001600160a01b0319831681178455604051919092169283917f8be0079c531659141344cd1fd0a4f28419497f9722a3daafe3b4186f6b6457e09190a35050565b6000805b82156106c8576106b48161304f565b90506106c1600a84612eaa565b92506106a5565b92915050565b6060816106ea5750604080516020810190915260008152610648565b606060005b8381101561072a57816040516020016107089190610dd7565b6040516020818303038152906040529150806107239061304f565b90506106ef565b5092915050565b60008061073f83600a612f04565b6107499085612eaa565b93508390505b80158015906107665750610764600a8261306a565b155b156101f657610776600a82612eaa565b905061074f565b60006020828403121561078e578081fd5b81356001600160a01b03811681146101f6578182fd5b6000602082840312156107b5578081fd5b5035919050565b600080604083850312156107ce578081fd5b50508035926020909101359150565b6000806000606084860312156107f1578081fd5b505081359360208301359350604090920135919050565b6000815161081a818560208601613008565b9290920192915050565b7f20555344543c2f746578743e3c74657874207472616e73666f726d3d22726f7481527f617465282d3930203231332e3631203134332e303932292220636c6173733d2260208201527f7072656669785f5f737432207072656669785f5f73743238207072656669785f6040820152662fb9ba191c911f60c91b606082015260670190565b7f3c2f746578743e3c672066696c6c2d72756c653d226576656e6f64642220636c81527f69702d72756c653d226576656e6f6464223e3c7061746820643d224d35342e3860208201527f2035312e31386c2d332e3120362e3531612e31342e313420302030302e30332e60408201527f31356c382e333720382e3032632e30352e30352e31332e30352e313820306c3860608201527f2e33372d382e3032632e30342d2e30342e30352d2e312e30332d2e31356c2d3360808201527f2e312d362e3531612e3133362e31333620302030302d2e31312d2e303748353460a08201527f2e3931632d2e30352d2e30312d2e30392e30322d2e31312e30377a222066696c60c08201527f6c3d2223353061663935222f3e3c7061746820643d224d36312e32362035382e60e08201527f3336632d2e303620302d2e33372e30322d312e30362e30322d2e353520302d2e6101008201527f39342d2e30322d312e30382d2e30322d322e31332d2e30392d332e37322d2e346101208201527f362d332e37322d2e393120302d2e343420312e35392d2e383120332e37322d2e6101408201527f393176312e3435632e31342e30312e35342e303320312e30392e30332e3636206101608201527f30202e39392d2e303320312e30352d2e3033762d312e343563322e31322e30396101808201527f20332e37312e343720332e37312e3931732d312e35392e38312d332e37312e396101a08201527f317a6d302d312e3937762d312e3368322e3937762d312e3938682d382e3037766101c08201527f312e393868322e393676312e33632d322e34312e31312d342e32322e35392d346101e08201527f2e323220312e313673312e383120312e303520342e323220312e313676342e316102008201527f3568322e3134762d342e313563322e342d2e313120342e32312d2e353920342e6102208201527f32312d312e3136732d312e382d312e30352d342e32312d312e31367a6d3020306102408201527f222066696c6c3d2223666666222f3e3c2f673e3c673e3c7061746820643d224d6102608201527f3134322e34342037372e32334835362e3639632d322e373620302d3520322e326102808201527f342d35203576372e3437633020322e373620322e32342035203520356838352e6102a08201527f373563322e3736203020352d322e323420352d35762d372e343763302d322e376102c08201527f362d322e32342d352d352d357a222066696c6c3d2223653834313432222f3e3c6102e08201527f74657874207472616e73666f726d3d227472616e736c6174652835362e3638356103008201527f2038392e373036292220636c6173733d227072656669785f5f7374322220666f6103208201527f6e742d73697a653d2231322220666f6e742d66616d696c793d22436f757269656103408201527f722d426f6c64223e4f4e204156414c414e4348453c2f746578743e3c2f673e3c6103608201526417b9bb339f60d91b6103808201526103850190565b7f253c2f746578743e3c706174682066696c6c3d226e6f6e6522207374726f6b6581527f3d222366666622207374726f6b652d6d697465726c696d69743d22313022206460208201527f3d224d36312e3836203236372e3132563131342e3731222f3e3c74657874207460408201527f72616e73666f726d3d227472616e736c6174652837392e39313520333535292260608201527f20636c6173733d227072656669785f5f737432207072656669785f5f73743238608082015274011103337b73a16b9b4bd329e911898111f24a21d1605d1b60a082015260b50190565b60008251610de9818460208701613008565b600360fc1b920191825250600101919050565b60008451610e0e818460208901613008565b601760f91b9083019081528451610e2c816001840160208901613008565b8451910190610e42816001840160208801613008565b0160010195945050505050565b605b60f81b81527f7b202274726169745f74797065223a2022537570706c696564204c697175696460018201527f697479222c2022646973706c61795f74797065223a20226e756d626572222c206021820152680113b30b63ab2911d160bd1b60418201528251600090610eca81604a850160208801613008565b7f7d2c7b202274726169745f74797065223a202253686172652050657263656e74604a918401918201526f30b3b2911610113b30b63ab2911d101160811b606a8201528351610f2081607a840160208801613008565b6325227d5d60e01b607a9290910191820152607e01949350505050565b7f3c7376672076657273696f6e3d22312e31222069643d227072656669785f5f4c81527f617965725f312220786d6c6e733d22687474703a2f2f7777772e77332e6f726760208201527f2f323030302f7376672220783d22302220793d2230222076696577426f783d2260408201527f30203020343035203430352220786d6c3a73706163653d22707265736572766560608201527f223e3c7374796c653e2e7072656669785f5f7374327b66696c6c3a236666667d60808201527f2e7072656669785f5f737432387b666f6e742d66616d696c793a2661706f733b60a08201527f436f75726965722661706f733b7d2e7072656669785f5f737432397b666f6e7460c08201527f2d73697a653a323470787d3c2f7374796c653e3c72616469616c47726164696560e08201527f6e742069643d227072656669785f5f53564749445f315f222063783d22322e376101008201527f3737222063793d222d3530352220723d223122206772616469656e745472616e6101208201527f73666f726d3d226d61747269782830203332372e343939203332372e343939206101408201527f30203136353538392e35202d3930392e3437362922206772616469656e74556e6101608201527f6974733d227573657253706163654f6e557365223e3c73746f70206f666673656101808201527f743d2230222073746f702d636f6c6f723d2223653834313432222f3e3c73746f6101a08201527f70206f66667365743d2231222f3e3c2f72616469616c4772616469656e743e3c6101c08201527f7061746820643d224d33302030683334356331362e353720302033302031332e6101e08201527f34332033302033307633343563302031362e35372d31332e34332033302d33306102008201527f203330483330632d31362e353720302d33302d31332e34332d33302d333056336102208201527f3043302031332e34332031332e3433203020333020307a222066696c6c3d22756102408201527f726c28237072656669785f5f53564749445f315f29222f3e3c72616469616c476102608201527f72616469656e742069643d227072656669785f5f53564749445f3030303030306102808201527f39363034363134393038333930363136393034303030303030363833383236386102a08201527f3839363536303032363237375f222063783d22332e333536222063793d222d356102c08201527f30352220723d223122206772616469656e745472616e73666f726d3d226d61746102e08201527f7269782830203237302e393935203136372e35333820302038343830392e32306103008201527f33202d3833312e3937362922206772616469656e74556e6974733d22757365726103208201527f53706163654f6e557365223e3c73746f70206f66667365743d2230222073746f6103408201527f702d636f6c6f723d2223666666222f3e3c73746f70206f66667365743d222e376103608201527f3131222073746f702d636f6c6f723d2223353061663935222f3e3c73746f70206103808201527f6f66667365743d2231222073746f702d6f7061636974793d2230222f3e3c73746103a08201527f6f70206f66667365743d2231222073746f702d6f7061636974793d2230222f3e6103c08201527f3c2f72616469616c4772616469656e743e3c7061746820643d224d3231342e396103e08201527f332039352e3838632d352e39342d382e382d31382e39332d382e382d32342e386104008201527f3720302d34332e35362036342e34392d37302e39203130372e33332d37302e396104208201527f203134392e303720302034352e362033372e32382038322e35352038332e33336104408201527f2038322e35357338332e33332d33362e39352038332e33332d38322e3535632e6104608201527f30312d34312e37342d32372e33332d38342e35382d37302e38392d3134392e306104808201527f377a222066696c6c3d2275726c28237072656669785f5f53564749445f3030306104a08201527f30303039363034363134393038333930363136393034303030303030363833386104c08201527f3236383839363536303032363237375f29222f3e3c7061746820636c6173733d6104e08201527f227072656669785f5f7374322220643d224d3237312e3431203333382e3632616105008201527f2e382e3820302030302d2e35392d2e3234682d312e3636612e382e38203020306105208201527f302d2e35392e32342e382e3820302030302d2e32342e353976356330202e31316105408201527f2d2e30322e32322d2e30362e33322d2e30342e312d2e312e322d2e31382e32376105608201527f612e382e3820302030312d2e35392e3234682d382e3333632d2e313120302d2e6105808201527f32322d2e30322d2e33322d2e3036732d2e322d2e312d2e32372d2e31382d2e316105a08201527f342d2e31372d2e31382d2e3237612e3836362e38363620302030312d2e30362d6105c08201527f2e3332762d35612e382e3820302030302d2e32342d2e35392e382e38203020306105e08201527f302d2e35392d2e3234682d312e3637632d2e323220302d2e34332e30392d2e356106008201527f392e3234732d2e32342e33372d2e32342e3539763135612e382e3820302030306106208201527f2e32342e35392e382e3820302030302e35392e323468312e3637612e382e38206106408201527f302030302e35392d2e32342e382e3820302030302e32342d2e3539762d35612e6106608201527f382e3820302030312e32342d2e35392e382e3820302030312e35392d2e3234686106808201527f382e3333612e382e3820302030312e35392e32342e382e3820302030312e32346106a08201527f2e353976356330202e31312e30322e32322e30362e33322e30342e312e312e326106c08201527f2e31382e3237732e31372e31342e32372e31382e32312e30362e33322e3036686106e08201527f312e3636632e31312030202e32322d2e30322e33322d2e30362e312d2e30342e6107008201527f322d2e312e32372d2e3138732e31342d2e31372e31382d2e3237632e30342d2e6107208201527f312e30362d2e32312e30362d2e3332762d313563302d2e31312d2e30322d2e326107408201527f322d2e30362d2e33322d2e30342d2e31312d2e312d2e322d2e31382d2e32377a6107608201527f4d3332312e3431203334312e3931612e382e3820302030302d2e35392d2e32346107808201527f682d352e3833762e3034682d322e35612e382e3820302030312d2e35392d2e326107a08201527f342e382e3820302030312d2e32342d2e3539762d35612e382e3820302030302d6107c08201527f2e32342d2e35392e382e3820302030302d2e35392d2e3234682d312e3636632d6107e08201527f2e313120302d2e32322e30322d2e33322e30362d2e312e30342d2e322e312d2e6108008201527f32372e3138612e382e3820302030302d2e32342e35397631382e33336330202e6108208201527f31312e30322e32322e30362e33322e30342e312e312e322e31382e3237612e386108408201527f2e3820302030302e35392e323468312e3636632e31312030202e32322d2e30326108608201527f2e33322d2e30362e312d2e30342e322d2e312e32372d2e3138612e382e3820306108808201527f2030302e32342d2e3539762d382e3333612e382e3820302030312e32342d2e356108a08201527f392e382e3820302030312e35392d2e32346835612e382e3820302030312e35396108c08201527f2e32342e382e3820302030312e32342e353976382e33336330202e31312e30326108e08201527f2e32322e30362e33322e30342e312e312e322e31382e3237612e382e382030206109008201527f30302e35392e323468312e3636632e31312030202e32322d2e30322e33322d2e6109208201527f30362e312d2e30342e322d2e312e32372d2e3138612e382e3820302030302e326109408201527f342d2e3539762d31312e3763302d2e31312d2e30322d2e32322d2e30362d2e336109608201527f32612e3632342e36323420302030302d2e31372d2e32387a4d3333382e3038206109808201527f3334312e3931612e382e3820302030302d2e35392d2e3234682d31312e3637636109a08201527f2d2e313120302d2e32322e30322d2e33322e3036612e39382e393820302030306109c08201527f2d2e32372e31382e382e3820302030302d2e32342e35397631312e3636612e386109e08201527f2e3820302030302e32342e35392e382e3820302030302e35392e32346831312e610a008201527f3637612e382e3820302030302e35392d2e32342e382e3820302030302e32342d610a208201527f2e3539762d312e363663302d2e31312d2e30322d2e32322d2e30362d2e33322d610a408201527f2e30342d2e312d2e312d2e322d2e31382d2e3237612e382e3820302030302d2e610a608201527f35392d2e3234682d382e3333632d2e323220302d2e34332d2e30392d2e35392d610a808201527f2e32342d2e31362d2e31362d2e32342d2e33372d2e32342d2e3539732e30392d610aa08201527f2e34332e32342d2e3539632e31362d2e31362e33372d2e32342e35392d2e3234610ac08201527f68382e3333612e382e3820302030302e35392d2e32342e382e3820302030302e610ae08201527f32342d2e3539762d362e363663302d2e31312d2e30322d2e32322d2e30362d2e610b008201527f3332612e3834312e38343120302030302d2e31382d2e32397a6d2d332e313620610b208201527f342e3234612e382e3820302030312d2e31382e32372e382e3820302030312d2e610b408201527f35392e3234682d35612e382e3820302030312d2e35392d2e32342e382e382030610b608201527f2030312d2e32342d2e35392e382e3820302030312e32342d2e35392e382e3820610b808201527f302030312e35392d2e32346835612e382e3820302030312e35392e32342e382e610ba08201527f3820302030312e32342e35396330202e31312d2e30322e32322d2e30362e3332610bc08201527f7a4d3335342e3734203334312e3931612e382e3820302030302d2e35392d2e32610be08201527f346c2d322e352e3034682d392e3137612e382e3820302030302d2e35392e3234610c008201527f2e382e3820302030302d2e32342e35397631312e36366330202e31312e30322e610c208201527f32322e30362e33322e30342e312e312e322e31382e3237612e382e3820302030610c408201527f302e35392e323468312e3637612e382e3820302030302e35392d2e32342e382e610c608201527f3820302030302e32342d2e3539762d382e3333612e382e3820302030312e3234610c808201527f2d2e35392e382e3820302030312e35392d2e32346835632e31312030202e3232610ca08201527f2e30322e33322e30362e312e30342e322e312e32372e3138612e382e38203020610cc08201527f30312e32342e353976382e33336330202e31312e30322e32322e30362e33322e610ce08201527f30342e312e312e322e31382e3237612e382e3820302030302e35392e32346831610d008201527f2e3637612e382e3820302030302e35392d2e32342e382e3820302030302e3234610d208201527f2d2e3539762d31312e3763302d2e31312d2e30322d2e32322d2e30362d2e3332610d408201527f612e36352e363520302030302d2e31372d2e32377a4d3238382e303820333431610d608201527f2e3931612e382e3820302030302d2e35392d2e3234682d312e3637632d2e3131610d808201527f20302d2e32322e30322d2e33322e3036612e39382e393820302030302d2e3237610da08201527f2e31382e382e3820302030302d2e32342e353976382e3333612e382e38203020610dc08201527f30312d2e32342e35392e382e3820302030312d2e35392e3234682d35632d2e31610de08201527f3120302d2e32322d2e30322d2e33322d2e30362d2e312d2e30342d2e322d2e31610e008201527f2d2e32372d2e3138612e382e3820302030312d2e32342d2e3539762d382e3333610e208201527f63302d2e31312d2e30322d2e32322d2e30362d2e33322d2e30342d2e312d2e31610e408201527f2d2e322d2e31382d2e3237612e382e3820302030302d2e35392d2e3234682d31610e608201527f2e3637632d2e313120302d2e32322e30322d2e33322e3036612e39382e393820610e808201527f302030302d2e32372e31382e382e3820302030302d2e32342e35397631312e36610ea08201527f36612e382e3820302030302e32342e35392e382e3820302030302e35392e3234610ec08201527f68382e3334632e32322030202e34332e30392e35392e32342e31362e31362e32610ee08201527f342e33372e32342e3539732d2e30392e34332d2e32342e3539632d2e31362e31610f008201527f362d2e33372e32342d2e35392e3234682d35632d2e313120302d2e32322e3032610f208201527f2d2e33322e3036732d2e322e312d2e32372e31382d2e31342e31372d2e31382e610f408201527f3237632d2e30342e312d2e30362e32312d2e30362e333276312e36366330202e610f608201527f31312e30322e32322e30362e33322e30342e312e312e322e31382e3237732e31610f808201527f372e31342e32372e31382e32312e30362e33322e303668382e3333612e382e38610fa08201527f20302030302e35392d2e32342e382e3820302030302e32342d2e3539762d3136610fc08201527f2e363663302d2e31312d2e30322d2e32322d2e30362d2e33322d2e30352d2e30610fe08201527f382d2e31322d2e31372d2e31392d2e32357a4d3330342e3734203334312e39316110008201527f612e382e3820302030302d2e35392d2e3234682d31312e3637612e382e3820306110208201527f2030302d2e35392e32342e382e3820302030302d2e32342e35397631362e36366110408201527f6330202e31312e30322e32322e30362e33322e30342e312e312e322e31382e326110608201527f37612e382e3820302030302e35392e323468312e3637612e382e3820302030306110808201527f2e35392d2e32342e382e3820302030302e32342d2e3539762d332e3333612e386110a08201527f2e3820302030312e32342d2e35392e382e3820302030312e35392d2e323468386110c08201527f2e3334612e382e3820302030302e35392d2e32342e382e3820302030302e32346110e08201527f2d2e3539762d31312e3636612e3836362e38363620302030302d2e32342d2e366111008201527f7a6d2d332e303920382e3933612e382e3820302030312d2e35322e3737632d2e6111208201527f312e30342d2e32312e30362d2e33322e3036682d35612e382e3820302030312d6111408201527f2e35392d2e32342e382e3820302030312d2e32342d2e3539762d35612e382e386111608201527f20302030312e32342d2e35392e382e3820302030312e35392d2e32346835612e6111808201527f3836362e38363620302030312e362e32342e382e3820302030312e32342e35396111a08201527f76357a4d3332392e39372039362e3539632e32382030202e35372d2e30352e386111c08201527f332d2e3136732e352d2e32372e372d2e343761322e31313620322e31313620306111e08201527f2030302e36332d312e35335638312e343961322e31383220322e3138322030206112008201527f30302d2e36322d312e353220322e31303520322e31303520302030302d312e356112208201527f322d2e3633682d342e3331632d2e353720302d312e31322e32332d312e35322e6112408201527f36332d2e342e342d2e36332e39352d2e363320312e353276342e33316330202e6112608201527f32382d2e30352e35372d2e31362e3833732d2e32372e352d2e34372e3761322e61128082018190527f31313620322e31313620302030312d312e35332e3633682d342e3331632d2e326112a08301527f3820302d2e35372d2e30352d2e38332d2e3136732d2e352d2e32372d2e372d2e6112c08301527f343761322e31313620322e31313620302030312d2e36332d312e35335636342e6112e08301527f323463302d2e32382e30352d2e35372e31362d2e3833732e32372d2e352e34376113008301527f2d2e3761322e31313620322e3131362030203031312e35332d2e363368312e326113208301527f35632e34322030202e38342d2e313220312e322d2e33362e33352d2e32342e366113408301527f332d2e35372e37392d2e393761322e31333820322e31333820302030302d2e346113608301527f392d322e33336c2d372e36382d372e3736632d2e322d2e32312d2e34342d2e336113808301527f372d2e372d2e343861322e31323420322e31323420302030302d312e363620306113a08301527f632d2e32362e31312d2e352e32372d2e372e34386c2d372e373220372e3736636113c08301527f2d2e332e332d2e35312e36382d2e353920312e3039732d2e30342e38352e31326113e08301527f20312e32342e34332e37332e37382e3936632e33352e32342e37362e333720316114008301527f2e31392e333768312e3235632e32392030202e35372e30352e38332e3136732e6114208301527f352e32372e372e3437632e322e322e33362e34342e34372e372e31312e32362e6114408301527f31362e35352e31362e38337633302e326330202e32382e30352e35372e31362e6114608301527f3833732e32372e352e34372e3761322e31313620322e3131362030203030312e6114808301527f35332e36336832312e35357a222f3e3c7061746820636c6173733d22707265666114a08301527f69785f5f7374322220643d224d3332342e31342037302e303861322e313136206114c08301527f322e3131362030203030312e35332e363368342e3331632e32382030202e35376114e08301527f2d2e30352e38332d2e3136732e352d2e32372e372d2e343761322e31313620326115008301527f2e31313620302030302e36332d312e3533762d342e333163302d2e32382e30356115208301527f2d2e35372e31362d2e3833732e32372d2e352e34372d2e3761322e31313620326115408301527f2e3131362030203031312e35332d2e363368342e3332632e32382030202e35376115608301527f2e30352e38332e3136732e352e32372e372e3437632e322e322e33362e34342e6115808301527f34372e372e31312e32362e31362e35352e31362e38337632312e35376330202e6115a08301526115c08201527f31313620322e31313620302030312d312e35332e3633682d312e3236632d2e346115e08201527f3220302d2e38342e31332d312e322e33362d2e33352e32342d2e36332e35372d6116008201527f2e37392e39372d2e31362e33392d2e322e38332d2e313120312e32342e30392e6116208201527f34322e332e382e3620312e316c372e373320372e3732632e322e322e34342e336116408201527f372e372e343861322e31323420322e3132342030203030322e33362d2e34386c6116608201527f372e37322d372e3732632e332d2e332e352d2e36392e35382d312e312e30382d6116808201527f2e34322e30342d2e38352d2e31322d312e323461322e313220322e31322030206116a08201527f30302d2e37392d2e3936632d2e33352d2e32342d2e37372d2e33362d312e31396116c08201527f2d2e3336682d312e3239632d2e323820302d2e35372d2e30352d2e38332d2e316116e08201527f36732d2e352d2e32372d2e372d2e343761322e31313620322e313136203020306117008201527f312d2e36332d312e35335635352e3663302d2e32382d2e30352d2e35372d2e316117208201527f362d2e3833732d2e32372d2e352d2e34372d2e37632d2e322d2e322d2e34342d6117408201527f2e33362d2e372d2e34372d2e32362d2e31312d2e35352d2e31362d2e38332d2e6117608201527f3136682d32312e3537632d2e323820302d2e35372e30352d2e38332e3136732d6117808201527f2e352e32372d2e372e343761322e31313620322e31313620302030302d2e36336117a08201527f20312e35337631322e39356330202e32382e30352e35372e31362e3833732e326117c08201527f372e352e34372e377a222f3e3c74657874207472616e73666f726d3d227472616117e08201527f6e736c6174652837332e363836203637292220636c6173733d227072656669786118008201527f5f5f737432207072656669785f5f73743238207072656669785f5f7374323922611820820152601f60f91b6118408201526000612ce6612ce1612cdb612cd6612cd0612ccb61184188018b610808565b610824565b88610808565b610cf8565b85610808565b6108a9565b95945050505050565b60007f54686973204e465420726570726573656e747320796f757220706f736974696f82527f6e206173204c69717569646974792050726f7669646572206f6e20487970686560208301526b03710213934b233b29037b7160a51b60408301528251612d6281604c850160208701613008565b7f2e20546f20766973697420746865206272696467652c207669736974205b4879604c9390910192830152507f7068656e5d2868747470733a2f2f68797068656e2e6269636f6e6f6d792e696f606c82015261149760f11b608c820152608e01919050565b6001600160a01b0391909116815260200190565b6000602082528251806020840152612dfa816040850160208701613008565b601f01601f19169190910160400192915050565b60208082526026908201527f4f776e61626c653a206e6577206f776e657220697320746865207a65726f206160408201526564647265737360d01b606082015260800190565b6020808252818101527f4f776e61626c653a2063616c6c6572206973206e6f7420746865206f776e6572604082015260600190565b90815260200190565b60008219821115612ea557612ea561307e565b500190565b600082612eb957612eb9613094565b500490565b80825b6001808611612ed05750612efb565b818704821115612ee257612ee261307e565b80861615612eef57918102915b9490941c938002612ec1565b94509492505050565b60006101f66000198484600082612f1d575060016101f6565b81612f2a575060006101f6565b8160018114612f405760028114612f4a57612f77565b60019150506101f6565b60ff841115612f5b57612f5b61307e565b6001841b915084821115612f7157612f7161307e565b506101f6565b5060208310610133831016604e8410600b8410161715612faa575081810a83811115612fa557612fa561307e565b6101f6565b612fb78484846001612ebe565b808604821115612fc957612fc961307e565b02949350505050565b6000816000190483118215151615612fec57612fec61307e565b500290565b6000828210156130035761300361307e565b500390565b60005b8381101561302357818101518382015260200161300b565b83811115613032576000848401525b50505050565b6000816130475761304761307e565b506000190190565b60006000198214156130635761306361307e565b5060010190565b60008261307957613079613094565b500690565b634e487b7160e01b600052601160045260246000fd5b634e487b7160e01b600052601260045260246000fdfea264697066735822122076bda128011a269c2491883ef83f6b8fed806e55cde2dca774bb93498f00b04e64736f6c63430008000033",
  "linkReferences": {},
  "deployedLinkReferences": {}
}