{
  "_format": "hh-sol-artifact-1",
  "contractName": "LiquidityProvidersMaliciousReentrant",
  "sourceName": "contracts/test/LiquidityProvidersMaliciousReentrant.sol",
  "abi": [
    {
      "inputs": [
        {
          "internalType": "address",
          "name": "_lpaddress",
          "type": "address"
        }
      ],
      "stateMutability": "nonpayable",
      "type": "constructor"
    },
    {
      "stateMutability": "payable",
      "type": "fallback"
    },
    {
      "inputs": [],
      "name": "destruct",
      "outputs": [],
      "stateMutability": "nonpayable",
      "type": "function"
    },
    {
      "inputs": [
        {
          "internalType": "address",
          "name": "target",
          "type": "address"
        }
      ],
      "name": "getBalance",
      "outputs": [
        {
          "internalType": "uint256",
          "name": "",
          "type": "uint256"
        }
      ],
      "stateMutability": "view",
      "type": "function"
    },
    {
      "inputs": [],
      "name": "lpool",
      "outputs": [
        {
          "internalType": "contract LiquidityPool",
          "name": "",
          "type": "address"
        }
      ],
      "stateMutability": "view",
      "type": "function"
    },
    {
      "stateMutability": "payable",
      "type": "receive"
    }
  ],
  "bytecode": "0x608060405234801561001057600080fd5b5060405161038038038061038083398101604081905261002f91610062565b60018054336001600160a01b031991821617909155600080549091166001600160a01b0392909216919091179055610090565b600060208284031215610073578081fd5b81516001600160a01b0381168114610089578182fd5b9392505050565b6102e18061009f6000396000f3fe6080604052600436106100385760003560e01c80632248c85d1461014c5780632b68b9c614610177578063f8b2cb4f1461018c576100df565b366100df57600054670de0b6b3a76400006001600160a01b0390911631106100dd576000546040516317d5759960e31b81526001600160a01b039091169063beabacc8906100aa9073eeeeeeeeeeeeeeeeeeeeeeeeeeeeeeeeeeeeeeee903090670de0b6b3a764000090600401610244565b600060405180830381600087803b1580156100c457600080fd5b505af11580156100d8573d6000803e3d6000fd5b505050505b005b600054670de0b6b3a76400006001600160a01b0390911631106100dd576000546040516317d5759960e31b81526001600160a01b039091169063beabacc8906100aa9073eeeeeeeeeeeeeeeeeeeeeeeeeeeeeeeeeeeeeeee903090670de0b6b3a764000090600401610244565b34801561015857600080fd5b506101616101b9565b60405161016e9190610268565b60405180910390f35b34801561018357600080fd5b506100dd6101c8565b34801561019857600080fd5b506101ac6101a7366004610216565b610209565b60405161016e91906102a2565b6000546001600160a01b031681565b6001546001600160a01b031633146101fb5760405162461bcd60e51b81526004016101f29061027c565b60405180910390fd5b6001546001600160a01b0316ff5b6001600160a01b03163190565b600060208284031215610227578081fd5b81356001600160a01b038116811461023d578182fd5b9392505050565b6001600160a01b039384168152919092166020820152604081019190915260600190565b6001600160a01b0391909116815260200190565b6020808252600c908201526b155b985d5d1a1bdc9a5e995960a21b604082015260600190565b9081526020019056fea2646970667358221220d32769f3b51d16c764887caaeaca5cdb3f3100dfd79ca5f78f493af6e38b297464736f6c63430008000033",
  "linkReferences": {},
  "deployedLinkReferences": {}
}