{
  "_format": "hh-sol-artifact-1",
  "contractName": "TokenMintingReentrancy",
  "sourceName": "contracts/test/TokenMintingReentrancy.sol",
  "abi": [
    {
      "inputs": [
        {
          "internalType": "address",
          "name": "_lproviders",
          "type": "address"
        }
      ],
      "stateMutability": "nonpayable",
      "type": "constructor"
    },
    {
      "inputs": [],
      "name": "attack",
      "outputs": [],
      "stateMutability": "payable",
      "type": "function"
    },
    {
      "inputs": [],
      "name": "liquidityproviders",
      "outputs": [
        {
          "internalType": "contract LiquidityProviders",
          "name": "",
          "type": "address"
        }
      ],
      "stateMutability": "view",
      "type": "function"
    },
    {
      "inputs": [
        {
          "internalType": "address",
          "name": "",
          "type": "address"
        },
        {
          "internalType": "address",
          "name": "",
          "type": "address"
        },
        {
          "internalType": "uint256",
          "name": "tokenId",
          "type": "uint256"
        },
        {
          "internalType": "bytes",
          "name": "",
          "type": "bytes"
        }
      ],
      "name": "onERC721Received",
      "outputs": [
        {
          "internalType": "bytes4",
          "name": "",
          "type": "bytes4"
        }
      ],
      "stateMutability": "nonpayable",
      "type": "function"
    },
    {
      "stateMutability": "payable",
      "type": "receive"
    }
  ],
  "bytecode": "0x608060405234801561001057600080fd5b5060405161034a38038061034a83398101604081905261002f91610054565b600080546001600160a01b0319166001600160a01b0392909216919091179055610082565b600060208284031215610065578081fd5b81516001600160a01b038116811461007b578182fd5b9392505050565b6102b9806100916000396000f3fe6080604052600436106100385760003560e01c8063150b7a021461004457806373444df11461007a5780639e5faafc1461009c5761003f565b3661003f57005b600080fd5b34801561005057600080fd5b5061006461005f3660046101c4565b6100a6565b604051610071919061025a565b60405180910390f35b34801561008657600080fd5b5061008f610130565b604051610071919061026f565b6100a461013f565b005b6000600a84101561011e5760008054906101000a90046001600160a01b03166001600160a01b031663b238b53364e8d4a510006040518263ffffffff1660e01b81526004016000604051808303818588803b15801561010457600080fd5b505af1158015610118573d6000803e3d6000fd5b50505050505b50630a85bd0160e11b95945050505050565b6000546001600160a01b031681565b60008054906101000a90046001600160a01b03166001600160a01b031663b238b533346040518263ffffffff1660e01b81526004016000604051808303818588803b15801561018d57600080fd5b505af11580156101a1573d6000803e3d6000fd5b5050505050565b80356001600160a01b03811681146101bf57600080fd5b919050565b6000806000806000608086880312156101db578081fd5b6101e4866101a8565b94506101f2602087016101a8565b935060408601359250606086013567ffffffffffffffff80821115610215578283fd5b818801915088601f830112610228578283fd5b813581811115610236578384fd5b896020828501011115610247578384fd5b9699959850939650602001949392505050565b6001600160e01b031991909116815260200190565b6001600160a01b039190911681526020019056fea26469706673582212207a36d7b5009d0f12c48a42ff581cc16e93170acd4e60a35775f472933cbe745b64736f6c63430008000033",
  "linkReferences": {},
  "deployedLinkReferences": {}
}