{
  "_format": "hh-sol-artifact-1",
  "contractName": "TimeMachineMock",
  "sourceName": "contracts/mocks/TimeMachineMock.sol",
  "abi": [
    {
      "anonymous": false,
      "inputs": [
        {
          "indexed": true,
          "internalType": "address",
          "name": "owner",
          "type": "address"
        },
        {
          "indexed": true,
          "internalType": "address",
          "name": "approved",
          "type": "address"
        },
        {
          "indexed": true,
          "internalType": "uint256",
          "name": "tokenId",
          "type": "uint256"
        }
      ],
      "name": "Approval",
      "type": "event"
    },
    {
      "anonymous": false,
      "inputs": [
        {
          "indexed": true,
          "internalType": "address",
          "name": "owner",
          "type": "address"
        },
        {
          "indexed": true,
          "internalType": "address",
          "name": "operator",
          "type": "address"
        },
        {
          "indexed": false,
          "internalType": "bool",
          "name": "approved",
          "type": "bool"
        }
      ],
      "name": "ApprovalForAll",
      "type": "event"
    },
    {
      "anonymous": false,
      "inputs": [
        {
          "indexed": true,
          "internalType": "uint256",
          "name": "tokenId",
          "type": "uint256"
        },
        {
          "indexed": true,
          "internalType": "address",
          "name": "owner",
          "type": "address"
        },
        {
          "indexed": true,
          "internalType": "address",
          "name": "sendTo",
          "type": "address"
        },
        {
          "indexed": false,
          "internalType": "uint256",
          "name": "refund",
          "type": "uint256"
        }
      ],
      "name": "CancelKey",
      "type": "event"
    },
    {
      "anonymous": false,
      "inputs": [],
      "name": "Disable",
      "type": "event"
    },
    {
      "anonymous": false,
      "inputs": [
        {
          "indexed": true,
          "internalType": "uint256",
          "name": "_tokenId",
          "type": "uint256"
        },
        {
          "indexed": false,
          "internalType": "uint256",
          "name": "_amount",
          "type": "uint256"
        },
        {
          "indexed": false,
          "internalType": "bool",
          "name": "_timeAdded",
          "type": "bool"
        }
      ],
      "name": "ExpirationChanged",
      "type": "event"
    },
    {
      "anonymous": false,
      "inputs": [
        {
          "indexed": true,
          "internalType": "uint256",
          "name": "tokenId",
          "type": "uint256"
        }
      ],
      "name": "ExpireKey",
      "type": "event"
    },
    {
      "anonymous": false,
      "inputs": [
        {
          "indexed": true,
          "internalType": "address",
          "name": "account",
          "type": "address"
        }
      ],
      "name": "KeyGranterAdded",
      "type": "event"
    },
    {
      "anonymous": false,
      "inputs": [
        {
          "indexed": true,
          "internalType": "address",
          "name": "account",
          "type": "address"
        }
      ],
      "name": "KeyGranterRemoved",
      "type": "event"
    },
    {
      "anonymous": false,
      "inputs": [
        {
          "indexed": true,
          "internalType": "uint256",
          "name": "_tokenId",
          "type": "uint256"
        },
        {
          "indexed": true,
          "internalType": "address",
          "name": "_newManager",
          "type": "address"
        }
      ],
      "name": "KeyManagerChanged",
      "type": "event"
    },
    {
      "anonymous": false,
      "inputs": [
        {
          "indexed": true,
          "internalType": "address",
          "name": "account",
          "type": "address"
        }
      ],
      "name": "LockManagerAdded",
      "type": "event"
    },
    {
      "anonymous": false,
      "inputs": [
        {
          "indexed": true,
          "internalType": "address",
          "name": "account",
          "type": "address"
        }
      ],
      "name": "LockManagerRemoved",
      "type": "event"
    },
    {
      "anonymous": false,
      "inputs": [
        {
          "indexed": false,
          "internalType": "string",
          "name": "symbol",
          "type": "string"
        }
      ],
      "name": "NewLockSymbol",
      "type": "event"
    },
    {
      "anonymous": false,
      "inputs": [
        {
          "indexed": false,
          "internalType": "uint256",
          "name": "oldKeyPrice",
          "type": "uint256"
        },
        {
          "indexed": false,
          "internalType": "uint256",
          "name": "keyPrice",
          "type": "uint256"
        },
        {
          "indexed": false,
          "internalType": "address",
          "name": "oldTokenAddress",
          "type": "address"
        },
        {
          "indexed": false,
          "internalType": "address",
          "name": "tokenAddress",
          "type": "address"
        }
      ],
      "name": "PricingChanged",
      "type": "event"
    },
    {
      "anonymous": false,
      "inputs": [
        {
          "indexed": false,
          "internalType": "uint256",
          "name": "freeTrialLength",
          "type": "uint256"
        },
        {
          "indexed": false,
          "internalType": "uint256",
          "name": "refundPenaltyBasisPoints",
          "type": "uint256"
        }
      ],
      "name": "RefundPenaltyChanged",
      "type": "event"
    },
    {
      "anonymous": false,
      "inputs": [
        {
          "indexed": true,
          "internalType": "address",
          "name": "owner",
          "type": "address"
        },
        {
          "indexed": false,
          "internalType": "uint256",
          "name": "newExpiration",
          "type": "uint256"
        }
      ],
      "name": "RenewKeyPurchase",
      "type": "event"
    },
    {
      "anonymous": false,
      "inputs": [
        {
          "indexed": true,
          "internalType": "bytes32",
          "name": "role",
          "type": "bytes32"
        },
        {
          "indexed": true,
          "internalType": "bytes32",
          "name": "previousAdminRole",
          "type": "bytes32"
        },
        {
          "indexed": true,
          "internalType": "bytes32",
          "name": "newAdminRole",
          "type": "bytes32"
        }
      ],
      "name": "RoleAdminChanged",
      "type": "event"
    },
    {
      "anonymous": false,
      "inputs": [
        {
          "indexed": true,
          "internalType": "bytes32",
          "name": "role",
          "type": "bytes32"
        },
        {
          "indexed": true,
          "internalType": "address",
          "name": "account",
          "type": "address"
        },
        {
          "indexed": true,
          "internalType": "address",
          "name": "sender",
          "type": "address"
        }
      ],
      "name": "RoleGranted",
      "type": "event"
    },
    {
      "anonymous": false,
      "inputs": [
        {
          "indexed": true,
          "internalType": "bytes32",
          "name": "role",
          "type": "bytes32"
        },
        {
          "indexed": true,
          "internalType": "address",
          "name": "account",
          "type": "address"
        },
        {
          "indexed": true,
          "internalType": "address",
          "name": "sender",
          "type": "address"
        }
      ],
      "name": "RoleRevoked",
      "type": "event"
    },
    {
      "anonymous": false,
      "inputs": [
        {
          "indexed": true,
          "internalType": "address",
          "name": "from",
          "type": "address"
        },
        {
          "indexed": true,
          "internalType": "address",
          "name": "to",
          "type": "address"
        },
        {
          "indexed": true,
          "internalType": "uint256",
          "name": "tokenId",
          "type": "uint256"
        }
      ],
      "name": "Transfer",
      "type": "event"
    },
    {
      "anonymous": false,
      "inputs": [
        {
          "indexed": false,
          "internalType": "uint256",
          "name": "transferFeeBasisPoints",
          "type": "uint256"
        }
      ],
      "name": "TransferFeeChanged",
      "type": "event"
    },
    {
      "anonymous": false,
      "inputs": [
        {
          "indexed": true,
          "internalType": "address",
          "name": "sender",
          "type": "address"
        },
        {
          "indexed": true,
          "internalType": "address",
          "name": "tokenAddress",
          "type": "address"
        },
        {
          "indexed": true,
          "internalType": "address",
          "name": "beneficiary",
          "type": "address"
        },
        {
          "indexed": false,
          "internalType": "uint256",
          "name": "amount",
          "type": "uint256"
        }
      ],
      "name": "Withdrawal",
      "type": "event"
    },
    {
      "stateMutability": "payable",
      "type": "fallback"
    },
    {
      "inputs": [],
      "name": "DEFAULT_ADMIN_ROLE",
      "outputs": [
        {
          "internalType": "bytes32",
          "name": "",
          "type": "bytes32"
        }
      ],
      "stateMutability": "view",
      "type": "function"
    },
    {
      "inputs": [],
      "name": "KEY_GRANTER_ROLE",
      "outputs": [
        {
          "internalType": "bytes32",
          "name": "",
          "type": "bytes32"
        }
      ],
      "stateMutability": "view",
      "type": "function"
    },
    {
      "inputs": [],
      "name": "LOCK_MANAGER_ROLE",
      "outputs": [
        {
          "internalType": "bytes32",
          "name": "",
          "type": "bytes32"
        }
      ],
      "stateMutability": "view",
      "type": "function"
    },
    {
      "inputs": [
        {
          "internalType": "address",
          "name": "account",
          "type": "address"
        }
      ],
      "name": "addKeyGranter",
      "outputs": [],
      "stateMutability": "nonpayable",
      "type": "function"
    },
    {
      "inputs": [
        {
          "internalType": "address",
          "name": "account",
          "type": "address"
        }
      ],
      "name": "addLockManager",
      "outputs": [],
      "stateMutability": "nonpayable",
      "type": "function"
    },
    {
      "inputs": [
        {
          "internalType": "address",
          "name": "_approved",
          "type": "address"
        },
        {
          "internalType": "uint256",
          "name": "_tokenId",
          "type": "uint256"
        }
      ],
      "name": "approve",
      "outputs": [],
      "stateMutability": "nonpayable",
      "type": "function"
    },
    {
      "inputs": [
        {
          "internalType": "address",
          "name": "_spender",
          "type": "address"
        },
        {
          "internalType": "uint256",
          "name": "_amount",
          "type": "uint256"
        }
      ],
      "name": "approveBeneficiary",
      "outputs": [
        {
          "internalType": "bool",
          "name": "",
          "type": "bool"
        }
      ],
      "stateMutability": "nonpayable",
      "type": "function"
    },
    {
      "inputs": [
        {
          "internalType": "address",
          "name": "_keyOwner",
          "type": "address"
        }
      ],
      "name": "balanceOf",
      "outputs": [
        {
          "internalType": "uint256",
          "name": "",
          "type": "uint256"
        }
      ],
      "stateMutability": "view",
      "type": "function"
    },
    {
      "inputs": [],
      "name": "beneficiary",
      "outputs": [
        {
          "internalType": "address payable",
          "name": "",
          "type": "address"
        }
      ],
      "stateMutability": "view",
      "type": "function"
    },
    {
      "inputs": [
        {
          "internalType": "uint256",
          "name": "_tokenId",
          "type": "uint256"
        }
      ],
      "name": "cancelAndRefund",
      "outputs": [],
      "stateMutability": "nonpayable",
      "type": "function"
    },
    {
      "inputs": [],
      "name": "disableLock",
      "outputs": [],
      "stateMutability": "nonpayable",
      "type": "function"
    },
    {
      "inputs": [],
      "name": "expirationDuration",
      "outputs": [
        {
          "internalType": "uint256",
          "name": "",
          "type": "uint256"
        }
      ],
      "stateMutability": "view",
      "type": "function"
    },
    {
      "inputs": [
        {
          "internalType": "address payable",
          "name": "_keyOwner",
          "type": "address"
        },
        {
          "internalType": "uint256",
          "name": "amount",
          "type": "uint256"
        }
      ],
      "name": "expireAndRefundFor",
      "outputs": [],
      "stateMutability": "nonpayable",
      "type": "function"
    },
    {
      "inputs": [],
      "name": "freeTrialLength",
      "outputs": [
        {
          "internalType": "uint256",
          "name": "",
          "type": "uint256"
        }
      ],
      "stateMutability": "view",
      "type": "function"
    },
    {
      "inputs": [
        {
          "internalType": "uint256",
          "name": "_tokenId",
          "type": "uint256"
        }
      ],
      "name": "getApproved",
      "outputs": [
        {
          "internalType": "address",
          "name": "",
          "type": "address"
        }
      ],
      "stateMutability": "view",
      "type": "function"
    },
    {
      "inputs": [
        {
          "internalType": "address",
          "name": "_keyOwner",
          "type": "address"
        }
      ],
      "name": "getCancelAndRefundValueFor",
      "outputs": [
        {
          "internalType": "uint256",
          "name": "refund",
          "type": "uint256"
        }
      ],
      "stateMutability": "view",
      "type": "function"
    },
    {
      "inputs": [
        {
          "internalType": "address",
          "name": "_keyOwner",
          "type": "address"
        }
      ],
      "name": "getHasValidKey",
      "outputs": [
        {
          "internalType": "bool",
          "name": "",
          "type": "bool"
        }
      ],
      "stateMutability": "view",
      "type": "function"
    },
    {
      "inputs": [
        {
          "internalType": "bytes32",
          "name": "role",
          "type": "bytes32"
        }
      ],
      "name": "getRoleAdmin",
      "outputs": [
        {
          "internalType": "bytes32",
          "name": "",
          "type": "bytes32"
        }
      ],
      "stateMutability": "view",
      "type": "function"
    },
    {
      "inputs": [
        {
          "internalType": "address",
          "name": "_account",
          "type": "address"
        }
      ],
      "name": "getTokenIdFor",
      "outputs": [
        {
          "internalType": "uint256",
          "name": "",
          "type": "uint256"
        }
      ],
      "stateMutability": "view",
      "type": "function"
    },
    {
      "inputs": [
        {
          "internalType": "address",
          "name": "_keyOwner",
          "type": "address"
        },
        {
          "internalType": "uint256",
          "name": "_time",
          "type": "uint256"
        }
      ],
      "name": "getTransferFee",
      "outputs": [
        {
          "internalType": "uint256",
          "name": "",
          "type": "uint256"
        }
      ],
      "stateMutability": "view",
      "type": "function"
    },
    {
      "inputs": [
        {
          "internalType": "address[]",
          "name": "_recipients",
          "type": "address[]"
        },
        {
          "internalType": "uint256[]",
          "name": "_expirationTimestamps",
          "type": "uint256[]"
        },
        {
          "internalType": "address[]",
          "name": "_keyManagers",
          "type": "address[]"
        }
      ],
      "name": "grantKeys",
      "outputs": [],
      "stateMutability": "nonpayable",
      "type": "function"
    },
    {
      "inputs": [
        {
          "internalType": "bytes32",
          "name": "role",
          "type": "bytes32"
        },
        {
          "internalType": "address",
          "name": "account",
          "type": "address"
        }
      ],
      "name": "grantRole",
      "outputs": [],
      "stateMutability": "nonpayable",
      "type": "function"
    },
    {
      "inputs": [
        {
          "internalType": "bytes32",
          "name": "role",
          "type": "bytes32"
        },
        {
          "internalType": "address",
          "name": "account",
          "type": "address"
        }
      ],
      "name": "hasRole",
      "outputs": [
        {
          "internalType": "bool",
          "name": "",
          "type": "bool"
        }
      ],
      "stateMutability": "view",
      "type": "function"
    },
    {
      "inputs": [
        {
          "internalType": "address payable",
          "name": "_lockCreator",
          "type": "address"
        },
        {
          "internalType": "uint256",
          "name": "_expirationDuration",
          "type": "uint256"
        },
        {
          "internalType": "address",
          "name": "_tokenAddress",
          "type": "address"
        },
        {
          "internalType": "uint256",
          "name": "_keyPrice",
          "type": "uint256"
        },
        {
          "internalType": "uint256",
          "name": "_maxNumberOfKeys",
          "type": "uint256"
        },
        {
          "internalType": "string",
          "name": "_lockName",
          "type": "string"
        }
      ],
      "name": "initialize",
      "outputs": [],
      "stateMutability": "nonpayable",
      "type": "function"
    },
    {
      "inputs": [],
      "name": "isAlive",
      "outputs": [
        {
          "internalType": "bool",
          "name": "",
          "type": "bool"
        }
      ],
      "stateMutability": "view",
      "type": "function"
    },
    {
      "inputs": [
        {
          "internalType": "address",
          "name": "_owner",
          "type": "address"
        },
        {
          "internalType": "address",
          "name": "_operator",
          "type": "address"
        }
      ],
      "name": "isApprovedForAll",
      "outputs": [
        {
          "internalType": "bool",
          "name": "",
          "type": "bool"
        }
      ],
      "stateMutability": "view",
      "type": "function"
    },
    {
      "inputs": [
        {
          "internalType": "address",
          "name": "account",
          "type": "address"
        }
      ],
      "name": "isKeyGranter",
      "outputs": [
        {
          "internalType": "bool",
          "name": "",
          "type": "bool"
        }
      ],
      "stateMutability": "view",
      "type": "function"
    },
    {
      "inputs": [
        {
          "internalType": "address",
          "name": "account",
          "type": "address"
        }
      ],
      "name": "isLockManager",
      "outputs": [
        {
          "internalType": "bool",
          "name": "",
          "type": "bool"
        }
      ],
      "stateMutability": "view",
      "type": "function"
    },
    {
      "inputs": [
        {
          "internalType": "address",
          "name": "_keyOwner",
          "type": "address"
        }
      ],
      "name": "keyExpirationTimestampFor",
      "outputs": [
        {
          "internalType": "uint256",
          "name": "",
          "type": "uint256"
        }
      ],
      "stateMutability": "view",
      "type": "function"
    },
    {
      "inputs": [
        {
          "internalType": "uint256",
          "name": "",
          "type": "uint256"
        }
      ],
      "name": "keyManagerOf",
      "outputs": [
        {
          "internalType": "address",
          "name": "",
          "type": "address"
        }
      ],
      "stateMutability": "view",
      "type": "function"
    },
    {
      "inputs": [],
      "name": "keyPrice",
      "outputs": [
        {
          "internalType": "uint256",
          "name": "",
          "type": "uint256"
        }
      ],
      "stateMutability": "view",
      "type": "function"
    },
    {
      "inputs": [],
      "name": "maxNumberOfKeys",
      "outputs": [
        {
          "internalType": "uint256",
          "name": "",
          "type": "uint256"
        }
      ],
      "stateMutability": "view",
      "type": "function"
    },
    {
      "inputs": [],
      "name": "name",
      "outputs": [
        {
          "internalType": "string",
          "name": "",
          "type": "string"
        }
      ],
      "stateMutability": "view",
      "type": "function"
    },
    {
      "inputs": [],
      "name": "numberOfOwners",
      "outputs": [
        {
          "internalType": "uint256",
          "name": "",
          "type": "uint256"
        }
      ],
      "stateMutability": "view",
      "type": "function"
    },
    {
      "inputs": [],
      "name": "onKeyCancelHook",
      "outputs": [
        {
          "internalType": "contract ILockKeyCancelHook",
          "name": "",
          "type": "address"
        }
      ],
      "stateMutability": "view",
      "type": "function"
    },
    {
      "inputs": [],
      "name": "onKeyPurchaseHook",
      "outputs": [
        {
          "internalType": "contract ILockKeyPurchaseHook",
          "name": "",
          "type": "address"
        }
      ],
      "stateMutability": "view",
      "type": "function"
    },
    {
      "inputs": [
        {
          "internalType": "uint256",
          "name": "_tokenId",
          "type": "uint256"
        }
      ],
      "name": "ownerOf",
      "outputs": [
        {
          "internalType": "address",
          "name": "",
          "type": "address"
        }
      ],
      "stateMutability": "view",
      "type": "function"
    },
    {
      "inputs": [
        {
          "internalType": "uint256",
          "name": "",
          "type": "uint256"
        }
      ],
      "name": "owners",
      "outputs": [
        {
          "internalType": "address",
          "name": "",
          "type": "address"
        }
      ],
      "stateMutability": "view",
      "type": "function"
    },
    {
      "inputs": [],
      "name": "publicLockVersion",
      "outputs": [
        {
          "internalType": "uint16",
          "name": "",
          "type": "uint16"
        }
      ],
      "stateMutability": "pure",
      "type": "function"
    },
    {
      "inputs": [
        {
          "internalType": "uint256",
          "name": "_value",
          "type": "uint256"
        },
        {
          "internalType": "address",
          "name": "_recipient",
          "type": "address"
        },
        {
          "internalType": "address",
          "name": "_referrer",
          "type": "address"
        },
        {
          "internalType": "bytes",
          "name": "_data",
          "type": "bytes"
        }
      ],
      "name": "purchase",
      "outputs": [],
      "stateMutability": "payable",
      "type": "function"
    },
    {
      "inputs": [
        {
          "internalType": "address",
          "name": "_recipient",
          "type": "address"
        },
        {
          "internalType": "address",
          "name": "_referrer",
          "type": "address"
        },
        {
          "internalType": "bytes",
          "name": "_data",
          "type": "bytes"
        }
      ],
      "name": "purchasePriceFor",
      "outputs": [
        {
          "internalType": "uint256",
          "name": "minKeyPrice",
          "type": "uint256"
        }
      ],
      "stateMutability": "view",
      "type": "function"
    },
    {
      "inputs": [],
      "name": "refundPenaltyBasisPoints",
      "outputs": [
        {
          "internalType": "uint256",
          "name": "",
          "type": "uint256"
        }
      ],
      "stateMutability": "view",
      "type": "function"
    },
    {
      "inputs": [],
      "name": "renounceLockManager",
      "outputs": [],
      "stateMutability": "nonpayable",
      "type": "function"
    },
    {
      "inputs": [
        {
          "internalType": "bytes32",
          "name": "role",
          "type": "bytes32"
        },
        {
          "internalType": "address",
          "name": "account",
          "type": "address"
        }
      ],
      "name": "renounceRole",
      "outputs": [],
      "stateMutability": "nonpayable",
      "type": "function"
    },
    {
      "inputs": [
        {
          "internalType": "address",
          "name": "_granter",
          "type": "address"
        }
      ],
      "name": "revokeKeyGranter",
      "outputs": [],
      "stateMutability": "nonpayable",
      "type": "function"
    },
    {
      "inputs": [
        {
          "internalType": "bytes32",
          "name": "role",
          "type": "bytes32"
        },
        {
          "internalType": "address",
          "name": "account",
          "type": "address"
        }
      ],
      "name": "revokeRole",
      "outputs": [],
      "stateMutability": "nonpayable",
      "type": "function"
    },
    {
      "inputs": [
        {
          "internalType": "address",
          "name": "_from",
          "type": "address"
        },
        {
          "internalType": "address",
          "name": "_to",
          "type": "address"
        },
        {
          "internalType": "uint256",
          "name": "_tokenId",
          "type": "uint256"
        }
      ],
      "name": "safeTransferFrom",
      "outputs": [],
      "stateMutability": "nonpayable",
      "type": "function"
    },
    {
      "inputs": [
        {
          "internalType": "address",
          "name": "_from",
          "type": "address"
        },
        {
          "internalType": "address",
          "name": "_to",
          "type": "address"
        },
        {
          "internalType": "uint256",
          "name": "_tokenId",
          "type": "uint256"
        },
        {
          "internalType": "bytes",
          "name": "_data",
          "type": "bytes"
        }
      ],
      "name": "safeTransferFrom",
      "outputs": [],
      "stateMutability": "nonpayable",
      "type": "function"
    },
    {
      "inputs": [
        {
          "internalType": "address",
          "name": "_to",
          "type": "address"
        },
        {
          "internalType": "bool",
          "name": "_approved",
          "type": "bool"
        }
      ],
      "name": "setApprovalForAll",
      "outputs": [],
      "stateMutability": "nonpayable",
      "type": "function"
    },
    {
      "inputs": [
        {
          "internalType": "string",
          "name": "_baseTokenURI",
          "type": "string"
        }
      ],
      "name": "setBaseTokenURI",
      "outputs": [],
      "stateMutability": "nonpayable",
      "type": "function"
    },
    {
      "inputs": [
        {
          "internalType": "address",
          "name": "_onKeyPurchaseHook",
          "type": "address"
        },
        {
          "internalType": "address",
          "name": "_onKeyCancelHook",
          "type": "address"
        }
      ],
      "name": "setEventHooks",
      "outputs": [],
      "stateMutability": "nonpayable",
      "type": "function"
    },
    {
      "inputs": [
        {
          "internalType": "uint256",
          "name": "_tokenId",
          "type": "uint256"
        },
        {
          "internalType": "address",
          "name": "_keyManager",
          "type": "address"
        }
      ],
      "name": "setKeyManagerOf",
      "outputs": [],
      "stateMutability": "nonpayable",
      "type": "function"
    },
    {
      "inputs": [
        {
          "internalType": "address",
          "name": "_to",
          "type": "address"
        },
        {
          "internalType": "uint256",
          "name": "_tokenId",
          "type": "uint256"
        },
        {
          "internalType": "uint256",
          "name": "_timeShared",
          "type": "uint256"
        }
      ],
      "name": "shareKey",
      "outputs": [],
      "stateMutability": "nonpayable",
      "type": "function"
    },
    {
      "inputs": [
        {
          "internalType": "bytes4",
          "name": "interfaceId",
          "type": "bytes4"
        }
      ],
      "name": "supportsInterface",
      "outputs": [
        {
          "internalType": "bool",
          "name": "",
          "type": "bool"
        }
      ],
      "stateMutability": "view",
      "type": "function"
    },
    {
      "inputs": [],
      "name": "symbol",
      "outputs": [
        {
          "internalType": "string",
          "name": "",
          "type": "string"
        }
      ],
      "stateMutability": "view",
      "type": "function"
    },
    {
      "inputs": [
        {
          "internalType": "uint256",
          "name": "_tokenId",
          "type": "uint256"
        },
        {
          "internalType": "uint256",
          "name": "_deltaT",
          "type": "uint256"
        },
        {
          "internalType": "bool",
          "name": "_addTime",
          "type": "bool"
        }
      ],
      "name": "timeMachine",
      "outputs": [],
      "stateMutability": "nonpayable",
      "type": "function"
    },
    {
      "inputs": [],
      "name": "tokenAddress",
      "outputs": [
        {
          "internalType": "address",
          "name": "",
          "type": "address"
        }
      ],
      "stateMutability": "view",
      "type": "function"
    },
    {
      "inputs": [
        {
          "internalType": "uint256",
          "name": "_index",
          "type": "uint256"
        }
      ],
      "name": "tokenByIndex",
      "outputs": [
        {
          "internalType": "uint256",
          "name": "",
          "type": "uint256"
        }
      ],
      "stateMutability": "view",
      "type": "function"
    },
    {
      "inputs": [
        {
          "internalType": "address",
          "name": "_keyOwner",
          "type": "address"
        },
        {
          "internalType": "uint256",
          "name": "_index",
          "type": "uint256"
        }
      ],
      "name": "tokenOfOwnerByIndex",
      "outputs": [
        {
          "internalType": "uint256",
          "name": "",
          "type": "uint256"
        }
      ],
      "stateMutability": "view",
      "type": "function"
    },
    {
      "inputs": [
        {
          "internalType": "uint256",
          "name": "_tokenId",
          "type": "uint256"
        }
      ],
      "name": "tokenURI",
      "outputs": [
        {
          "internalType": "string",
          "name": "",
          "type": "string"
        }
      ],
      "stateMutability": "view",
      "type": "function"
    },
    {
      "inputs": [],
      "name": "totalSupply",
      "outputs": [
        {
          "internalType": "uint256",
          "name": "",
          "type": "uint256"
        }
      ],
      "stateMutability": "view",
      "type": "function"
    },
    {
      "inputs": [
        {
          "internalType": "address",
          "name": "_to",
          "type": "address"
        },
        {
          "internalType": "uint256",
          "name": "_value",
          "type": "uint256"
        }
      ],
      "name": "transfer",
      "outputs": [
        {
          "internalType": "bool",
          "name": "success",
          "type": "bool"
        }
      ],
      "stateMutability": "nonpayable",
      "type": "function"
    },
    {
      "inputs": [],
      "name": "transferFeeBasisPoints",
      "outputs": [
        {
          "internalType": "uint256",
          "name": "",
          "type": "uint256"
        }
      ],
      "stateMutability": "view",
      "type": "function"
    },
    {
      "inputs": [
        {
          "internalType": "address",
          "name": "_from",
          "type": "address"
        },
        {
          "internalType": "address",
          "name": "_recipient",
          "type": "address"
        },
        {
          "internalType": "uint256",
          "name": "_tokenId",
          "type": "uint256"
        }
      ],
      "name": "transferFrom",
      "outputs": [],
      "stateMutability": "nonpayable",
      "type": "function"
    },
    {
      "inputs": [],
      "name": "unlockProtocol",
      "outputs": [
        {
          "internalType": "contract IUnlock",
          "name": "",
          "type": "address"
        }
      ],
      "stateMutability": "view",
      "type": "function"
    },
    {
      "inputs": [
        {
          "internalType": "address payable",
          "name": "_beneficiary",
          "type": "address"
        }
      ],
      "name": "updateBeneficiary",
      "outputs": [],
      "stateMutability": "nonpayable",
      "type": "function"
    },
    {
      "inputs": [
        {
          "internalType": "uint256",
          "name": "_keyPrice",
          "type": "uint256"
        },
        {
          "internalType": "address",
          "name": "_tokenAddress",
          "type": "address"
        }
      ],
      "name": "updateKeyPricing",
      "outputs": [],
      "stateMutability": "nonpayable",
      "type": "function"
    },
    {
      "inputs": [
        {
          "internalType": "string",
          "name": "_lockName",
          "type": "string"
        }
      ],
      "name": "updateLockName",
      "outputs": [],
      "stateMutability": "nonpayable",
      "type": "function"
    },
    {
      "inputs": [
        {
          "internalType": "string",
          "name": "_lockSymbol",
          "type": "string"
        }
      ],
      "name": "updateLockSymbol",
      "outputs": [],
      "stateMutability": "nonpayable",
      "type": "function"
    },
    {
      "inputs": [
        {
          "internalType": "uint256",
          "name": "_freeTrialLength",
          "type": "uint256"
        },
        {
          "internalType": "uint256",
          "name": "_refundPenaltyBasisPoints",
          "type": "uint256"
        }
      ],
      "name": "updateRefundPenalty",
      "outputs": [],
      "stateMutability": "nonpayable",
      "type": "function"
    },
    {
      "inputs": [
        {
          "internalType": "uint256",
          "name": "_transferFeeBasisPoints",
          "type": "uint256"
        }
      ],
      "name": "updateTransferFee",
      "outputs": [],
      "stateMutability": "nonpayable",
      "type": "function"
    },
    {
      "inputs": [
        {
          "internalType": "address",
          "name": "_tokenAddress",
          "type": "address"
        },
        {
          "internalType": "uint256",
          "name": "_amount",
          "type": "uint256"
        }
      ],
      "name": "withdraw",
      "outputs": [],
      "stateMutability": "nonpayable",
      "type": "function"
    },
    {
      "stateMutability": "payable",
      "type": "receive"
    }
  ],
  "bytecode": "0x608060405234801561001057600080fd5b50615424806100206000396000f3fe6080604052600436106103ef5760003560e01c80636d8ea5b411610206578063a9059cbb11610117578063d1bbd49c116100a5578063e985e9c511610077578063e985e9c514610c81578063f0ba604014610ca1578063f12c6b6e14610cb6578063f3fef3a314610cd6578063fc42b58f14610cf657005b8063d1bbd49c14610c05578063d250348514610c21578063d32bfb6c14610c41578063d547741f14610c6157005b8063b11d7ec1116100e9578063b11d7ec114610b70578063b585a6d514610b90578063b88d4fde14610bb0578063c1c98d0314610bd0578063c87b56dd14610be557005b8063a9059cbb14610ad7578063aae4b8f714610af7578063abdf82ce14610b17578063ad0e0a4d14610b5057005b806393fd1844116101945780639d76ea58116101665780639d76ea5814610a4c578063a217fddf14610a6c578063a22cb46514610a81578063a2e4cd2e14610aa1578063a375cb0514610ac157005b806393fd1844146109cc57806395d89b41146109e1578063970aaeb7146109f657806397aa390a14610a2c57005b8063782a4ade116101d8578063782a4ade1461092a57806381a3c9431461094a5780638577a6d51461096a5780638ca2fbad1461098a57806391d14854146109ac57005b80636d8ea5b4146108b45780636eadde43146108d457806370a08231146108f457806374b6c1061461091457005b80632f2ff15d116103005780634d025fed1161028e578063550ef3a811610260578063550ef3a814610808578063564aa99d1461082857806356e0d51f146108485780636352211e1461085e578063692713a61461089457005b80634d025fed146107725780634f6ccce7146107a857806352b0f638146107c857806352d6a8e4146107e857005b806338af3eed116102d257806338af3eed146106de57806339f46986146106fe5780633f33133a1461071e5780634136aa351461073157806342842e0e1461075257005b80632f2ff15d1461065e5780632f745c591461067e57806330176e131461069e57806336568abe146106be57005b806311a4c03a1161037d578063231005091161034f57806323100509146105ac57806323b872dd146105ce578063248a9ca3146105ee5780632af9162a1461061e5780632d33dd5b1461063e57005b806311a4c03a1461054b57806318160ddd14610561578063183767da14610576578063217751bc1461058c57005b8063095ea7b3116103c1578063095ea7b3146104a7578063097ba333146104c75780630aaffd2a146104f55780630f15023b1461051557806310e569731461053557005b806301ffc9a7146103f8578063025e7c271461042d57806306fdde0314610465578063081812fc1461048757005b366103f657005b005b34801561040457600080fd5b50610418610413366004614c56565b610d16565b60405190151581526020015b60405180910390f35b34801561043957600080fd5b5061044d610448366004614c1a565b610d27565b6040516001600160a01b039091168152602001610424565b34801561047157600080fd5b5061047a610d51565b6040516104249190615046565b34801561049357600080fd5b5061044d6104a2366004614c1a565b610ddf565b3480156104b357600080fd5b506103f66104c2366004614b23565b610e59565b3480156104d357600080fd5b506104e76104e23660046149ae565b610f91565b604051908152602001610424565b34801561050157600080fd5b506103f66105103660046148ac565b610fe0565b34801561052157600080fd5b5060ca5461044d906001600160a01b031681565b34801561054157600080fd5b506104e760cc5481565b34801561055757600080fd5b506104e760cb5481565b34801561056d57600080fd5b5060ce546104e7565b34801561058257600080fd5b506104e760db5481565b34801561059857600080fd5b5060d15461044d906001600160a01b031681565b3480156105b857600080fd5b506104e760008051602061538f83398151915281565b3480156105da57600080fd5b506103f66105e9366004614a10565b611091565b3480156105fa57600080fd5b506104e7610609366004614c1a565b60009081526097602052604090206001015490565b34801561062a57600080fd5b506103f66106393660046148ac565b611307565b34801561064a57600080fd5b5060d05461044d906001600160a01b031681565b34801561066a57600080fd5b506103f6610679366004614c32565b61138a565b34801561068a57600080fd5b506104e7610699366004614b23565b6113b5565b3480156106aa57600080fd5b506103f66106b9366004614c8e565b61141f565b3480156106ca57600080fd5b506103f66106d9366004614c32565b61145f565b3480156106ea57600080fd5b5060cf5461044d906001600160a01b031681565b34801561070a57600080fd5b506103f6610719366004614dc7565b6114dd565b6103f661072c366004614d57565b611555565b34801561073d57600080fd5b5060c95461041890600160a01b900460ff1681565b34801561075e57600080fd5b506103f661076d366004614a10565b6119cf565b34801561077e57600080fd5b5061044d61078d366004614c1a565b60d5602052600090815260409020546001600160a01b031681565b3480156107b457600080fd5b506104e76107c3366004614c1a565b6119ea565b3480156107d457600080fd5b506104186107e33660046148ac565b611a30565b3480156107f457600080fd5b506104e76108033660046148ac565b611a4a565b34801561081457600080fd5b506103f6610823366004614c8e565b611a55565b34801561083457600080fd5b506103f66108433660046148ac565b611a95565b34801561085457600080fd5b506104e760dc5481565b34801561086a57600080fd5b5061044d610879366004614c1a565b600090815260d360205260409020546001600160a01b031690565b3480156108a057600080fd5b506103f66108af366004614e0b565b611b18565b3480156108c057600080fd5b506104186108cf3660046148ac565b611b23565b3480156108e057600080fd5b506103f66108ef3660046148f3565b611b43565b34801561090057600080fd5b506104e761090f3660046148ac565b611c19565b34801561092057600080fd5b506104e760cd5481565b34801561093657600080fd5b506103f6610945366004614c8e565b611c61565b34801561095657600080fd5b506103f6610965366004614b69565b611cdf565b34801561097657600080fd5b506103f6610985366004614c1a565b611f4c565b34801561099657600080fd5b506104e76000805160206153cf83398151915281565b3480156109b857600080fd5b506104186109c7366004614c32565b611fb8565b3480156109d857600080fd5b5060d4546104e7565b3480156109ed57600080fd5b5061047a611fe3565b348015610a0257600080fd5b506104e7610a113660046148ac565b6001600160a01b0316600090815260d2602052604090205490565b348015610a3857600080fd5b506103f6610a473660046148c8565b612119565b348015610a5857600080fd5b5060c95461044d906001600160a01b031681565b348015610a7857600080fd5b506104e7600081565b348015610a8d57600080fd5b506103f6610a9c366004614af6565b61217d565b348015610aad57600080fd5b506103f6610abc366004614c32565b61225a565b348015610acd57600080fd5b506104e760dd5481565b348015610ae357600080fd5b50610418610af2366004614b23565b6123f4565b348015610b0357600080fd5b50610418610b123660046148ac565b612461565b348015610b2357600080fd5b506104e7610b323660046148ac565b6001600160a01b0316600090815260d2602052604090206001015490565b348015610b5c57600080fd5b506103f6610b6b366004614976565b61247b565b348015610b7c57600080fd5b506103f6610b8b366004614c32565b6125b3565b348015610b9c57600080fd5b50610418610bab366004614b23565b612676565b348015610bbc57600080fd5b506103f6610bcb366004614a50565b612768565b348015610bdc57600080fd5b506103f66127d1565b348015610bf157600080fd5b5061047a610c00366004614c1a565b612866565b348015610c1157600080fd5b5060405160098152602001610424565b348015610c2d57600080fd5b506103f6610c3c3660046148ac565b612a2c565b348015610c4d57600080fd5b506103f6610c5c366004614c1a565b612aaf565b348015610c6d57600080fd5b506103f6610c7c366004614c32565b612b3c565b348015610c8d57600080fd5b50610418610c9c366004614976565b612b62565b348015610cad57600080fd5b506103f6612bf7565b348015610cc257600080fd5b506103f6610cd1366004614b35565b612c3c565b348015610ce257600080fd5b506103f6610cf1366004614b23565b612f30565b348015610d0257600080fd5b506104e7610d11366004614b23565b6130ea565b6000610d2182613161565b92915050565b60d48181548110610d3757600080fd5b6000918252602090912001546001600160a01b0316905081565b60d88054610d5e906152d9565b80601f0160208091040260200160405190810160405280929190818152602001828054610d8a906152d9565b8015610dd75780601f10610dac57610100808354040283529160200191610dd7565b820191906000526020600020905b815481529060010190602001808311610dba57829003601f168201915b505050505081565b600081815260d3602052604081205482906001600160a01b0316610e385760405162461bcd60e51b815260206004820152600b60248201526a4e4f5f535543485f4b455960a81b60448201526064015b60405180910390fd5b600083815260d660205260409020546001600160a01b031691505b50919050565b60c954600160a01b900460ff16610e825760405162461bcd60e51b8152600401610e2f90615183565b80610e8d813361316c565b80610e9d5750610e9d81336131e2565b80610ec55750600081815260d36020526040902054610ec5906001600160a01b031633612b62565b610ee15760405162461bcd60e51b8152600401610e2f906150a9565b336001600160a01b0384161415610f295760405162461bcd60e51b815260206004820152600c60248201526b20a8282927ab22afa9a2a62360a11b6044820152606401610e2f565b600082815260d66020908152604080832080546001600160a01b0319166001600160a01b0388811691821790925560d3909352818420549151869492909116917f8c5be1e5ebec7d5bd14f71427d1e84f3dd0314c0f7b2291e5b200ac8c7c3b92591a4505050565b6000610fd4858585858080601f01602080910402602001604051908101604052809392919081815260200183838082843760009201919091525061320392505050565b50909695505050505050565b60cf546001600160a01b0316331480610ffd5750610ffd33612461565b6110495760405162461bcd60e51b815260206004820152601f60248201527f4f4e4c595f42454e45464943494152595f4f525f4c4f434b4d414e41474552006044820152606401610e2f565b6001600160a01b03811661106f5760405162461bcd60e51b8152600401610e2f90615059565b60cf80546001600160a01b0319166001600160a01b0392909216919091179055565b60c954600160a01b900460ff166110ba5760405162461bcd60e51b8152600401610e2f90615183565b826110c481611b23565b6110e05760405162461bcd60e51b8152600401610e2f90615082565b816110eb813361316c565b806110fb57506110fb81336131e2565b806111235750600081815260d36020526040902054611123906001600160a01b031633612b62565b61113f5760405162461bcd60e51b8152600401610e2f906150a9565b600083815260d360205260409020546001600160a01b038681169116146111a85760405162461bcd60e51b815260206004820152601c60248201527f5452414e534645525f46524f4d3a204e4f545f4b45595f4f574e4552000000006044820152606401610e2f565b61271060db54106111f45760405162461bcd60e51b815260206004820152601660248201527512d15657d514905394d1915494d7d11254d05093115160521b6044820152606401610e2f565b6001600160a01b03841661121a5760405162461bcd60e51b8152600401610e2f90615059565b60006112278660006130ea565b6001600160a01b03808816600090815260d2602052604080822092891682528120600181015493945091929061126090889086906133a2565b815461127c5786825561127388886134a3565b61127c8761352a565b4281116112aa576001808401549083015586825561129b876000613567565b6112a588886134a3565b6112cb565b428184600101546112bb9190615203565b6112c5919061527f565b60018301555b426001840155600080845560405188916001600160a01b03808c1692908d16916000805160206153af83398151915291a4505050505050505050565b61131f6000805160206153cf83398151915233611fb8565b61133b5760405162461bcd60e51b8152600401610e2f9061512e565b61135360008051602061538f83398151915282612b3c565b6040516001600160a01b038216907f766f6199fea59554b9ff688e413302b9200f85d74811c053c12d945ac6d8dd7a90600090a250565b6000828152609760205260409020600101546113a681336135e9565b6113b0838361364d565b505050565b600081156113fe5760405162461bcd60e51b815260206004820152601660248201527527a7262cafa7a722afa5a2acafa822a92fa7aba722a960511b6044820152606401610e2f565b6001600160a01b038316600090815260d260205260409020545b9392505050565b6114376000805160206153cf83398151915233611fb8565b6114535760405162461bcd60e51b8152600401610e2f9061512e565b6113b060da8383614794565b6001600160a01b03811633146114cf5760405162461bcd60e51b815260206004820152602f60248201527f416363657373436f6e74726f6c3a2063616e206f6e6c792072656e6f756e636560448201526e103937b632b9903337b91039b2b63360891b6064820152608401610e2f565b6114d982826136d3565b5050565b6114f56000805160206153cf83398151915233611fb8565b6115115760405162461bcd60e51b8152600401610e2f9061512e565b60408051838152602081018390527fd6867bc538320e67d7bdc35860c27c08486eb490b4fd9b820fff18fb28381d3c910160405180910390a160dd9190915560dc55565b60c954600160a01b900460ff1661157e5760405162461bcd60e51b8152600401610e2f90615183565b60ce5460cd54116115c15760405162461bcd60e51b815260206004820152600d60248201526c1313d0d2d7d4d3d31117d3d555609a1b6044820152606401610e2f565b6001600160a01b0384166115e75760405162461bcd60e51b8152600401610e2f90615059565b6001600160a01b038416600090815260d2602052604081208054909181611661576116118361373a565b8254915061161f87836134a3565b60cb5461162c9042615203565b6001840181905560405190915082906001600160a01b038916906000906000805160206153af833981519152908290a4611731565b42836001015411156116cc5760cb54836001015461167f9190615203565b600184018190556040518181529091506001600160a01b038816907f872bd7c99ad5e7b6ed7f0a890f348839cb8e225c9deaa3909afedae54c93d17d9060200160405180910390a2611731565b60cb546116d99042615203565b6001840181905590506116ed826000613567565b866001600160a01b03167f872bd7c99ad5e7b6ed7f0a890f348839cb8e225c9deaa3909afedae54c93d17d8260405161172891815260200190565b60405180910390a25b60008060006117778a8a8a8a8080601f01602080910402602001604051908101604052809392919081815260200183838082843760009201919091525061320392505050565b9194509250905081156117ea5760ca54604051633652466360e01b815260048101849052602481018390526001600160a01b0390911690633652466390604401600060405180830381600087803b1580156117d157600080fd5b505af11580156117e5573d6000803e3d6000fd5b505050505b60ca5460405163939d9f1f60e01b8152600481018590526001600160a01b038b811660248301529091169063939d9f1f90604401600060405180830381600087803b15801561183857600080fd5b505af115801561184c573d6000803e3d6000fd5b505060c954600092506001600160a01b03161590506118f9575060c9546040516323b872dd60e01b8152336004820152306024820152604481018d90528c916001600160a01b03169081906323b872dd90606401602060405180830381600087803b1580156118ba57600080fd5b505af11580156118ce573d6000803e3d6000fd5b505050506040513d601f19601f820116820180604052508101906118f29190614bfe565b50506118fc565b50345b838110156119415760405162461bcd60e51b8152602060048201526012602482015271494e53554646494349454e545f56414c554560701b6044820152606401610e2f565b60d0546001600160a01b0316156119c15760d054604051639849965760e01b81526001600160a01b039091169063984996579061198e9033908f908f908f908f908c908a90600401614f80565b600060405180830381600087803b1580156119a857600080fd5b505af11580156119bc573d6000803e3d6000fd5b505050505b505050505050505050505050565b6113b083838360405180602001604052806000815250612768565b600060ce548210611a2c5760405162461bcd60e51b815260206004820152600c60248201526b4f55545f4f465f52414e474560a01b6044820152606401610e2f565b5090565b6000610d2160008051602061538f83398151915283611fb8565b6000610d218261375c565b611a6d6000805160206153cf83398151915233611fb8565b611a895760405162461bcd60e51b8152600401610e2f9061512e565b6113b060d88383614794565b611aad6000805160206153cf83398151915233611fb8565b611ac95760405162461bcd60e51b8152600401610e2f9061512e565b611ae160008051602061538f8339815191528261138a565b6040516001600160a01b038216907f684f8a71407db0c334454ebe9c9b288549317893a20b10dc779ec5c118dcd12190600090a250565b6113b08383836133a2565b6001600160a01b0316600090815260d26020526040902060010154421090565b600054610100900460ff1680611b5c575060005460ff16155b611b785760405162461bcd60e51b8152600401610e2f906150e0565b600054610100900460ff16158015611b9a576000805461ffff19166101011790555b611ba386613859565b611bbb60c9805460ff60a01b1916600160a01b179055565b611bc78888878761392f565b611bd183836139c0565b611bd96139e5565b611be46103e860dc55565b611bed886139f7565b611bfd6380ac58cd60e01b613a7f565b8015611c0f576000805461ff00191690555b5050505050505050565b60006001600160a01b038216611c415760405162461bcd60e51b8152600401610e2f90615059565b611c4a82611b23565b611c55576000611c58565b60015b60ff1692915050565b611c796000805160206153cf83398151915233611fb8565b611c955760405162461bcd60e51b8152600401610e2f9061512e565b611ca160d98383614794565b507f8868e22e84ebf32da89b2ebcb0ac642816304ea3863b257f240df9098719cb978282604051611cd3929190615032565b60405180910390a15050565b611ce833611a30565b80611cf75750611cf733612461565b611d755760405162461bcd60e51b815260206004820152604360248201527f4d6978696e526f6c65733a2063616c6c657220646f6573206e6f74206861766560448201527f20746865204b65794772616e746572206f72204c6f636b4d616e6167657220726064820152626f6c6560e81b608482015260a401610e2f565b60005b85811015611f43576000878783818110611da257634e487b7160e01b600052603260045260246000fd5b9050602002016020810190611db791906148ac565b90506000868684818110611ddb57634e487b7160e01b600052603260045260246000fd5b9050602002013590506000858585818110611e0657634e487b7160e01b600052603260045260246000fd5b9050602002016020810190611e1b91906148ac565b90506001600160a01b038316611e435760405162461bcd60e51b8152600401610e2f90615059565b6001600160a01b038316600090815260d26020526040902060018101548311611ea15760405162461bcd60e51b815260206004820152601060248201526f414c52454144595f4f574e535f4b455960801b6044820152606401610e2f565b805480611ebe57611eb18261373a565b508054611ebe85826134a3565b611ec88184613567565b6040516001600160a01b0384169082907f9d2895c45a420624de863a2f437b022d879f457bf7a829044055a10c5a6fd5e390600090a36001820184905560405181906001600160a01b038716906000906000805160206153af833981519152908290a450505050508080611f3b9061530e565b915050611d78565b50505050505050565b611f646000805160206153cf83398151915233611fb8565b611f805760405162461bcd60e51b8152600401610e2f9061512e565b6040518181527f0496ed1e61eb69727f9659a8e859288db4758ffb1f744d1c1424634f90a257f49060200160405180910390a160db55565b60009182526097602090815260408084206001600160a01b0393909316845291905290205460ff1690565b606060d98054611ff2906152d9565b151590506120895760ca60009054906101000a90046001600160a01b03166001600160a01b031663cec410526040518163ffffffff1660e01b815260040160006040518083038186803b15801561204857600080fd5b505afa15801561205c573d6000803e3d6000fd5b505050506040513d6000823e601f3d908101601f191682016040526120849190810190614ccd565b905090565b60d98054612096906152d9565b80601f01602080910402602001604051908101604052809291908181526020018280546120c2906152d9565b801561210f5780601f106120e45761010080835404028352916020019161210f565b820191906000526020600020905b8154815290600101906020018083116120f257829003601f168201915b5050505050905090565b6121316000805160206153cf83398151915233611fb8565b61214d5760405162461bcd60e51b8152600401610e2f9061512e565b8161215781611b23565b6121735760405162461bcd60e51b8152600401610e2f90615082565b6113b08383613afe565b60c954600160a01b900460ff166121a65760405162461bcd60e51b8152600401610e2f90615183565b6001600160a01b0382163314156121ee5760405162461bcd60e51b815260206004820152600c60248201526b20a8282927ab22afa9a2a62360a11b6044820152606401610e2f565b33600081815260d7602090815260408083206001600160a01b03871680855290835292819020805460ff191686151590811790915590519081529192917f17307eab39ab6107e8899845ad3d59bd9653f200f220920489ca2b5937696c31910160405180910390a35050565b6122726000805160206153cf83398151915233611fb8565b61228e5760405162461bcd60e51b8152600401610e2f9061512e565b60c954600160a01b900460ff166122b75760405162461bcd60e51b8152600401610e2f90615183565b60cc5460c9546001600160a01b03908116908316158061234757506000836001600160a01b03166318160ddd6040518163ffffffff1660e01b815260040160206040518083038186803b15801561230d57600080fd5b505afa158015612321573d6000803e3d6000fd5b505050506040513d601f19601f820116820180604052508101906123459190614d3f565b115b6123835760405162461bcd60e51b815260206004820152600d60248201526c24a72b20a624a22faa27a5a2a760991b6044820152606401610e2f565b60cc84905560c980546001600160a01b0319166001600160a01b0385811691821790925560408051858152602081018890529284169083015260608201527f3615065ccf48367ac483ac86701248e2e5ff55bdd9be845007d34a3b68d719d49060800160405180910390a150505050565b60008060cb54836124059190615260565b33600090815260d26020526040812060018101549293509161242890429061527f565b9050808310156124465761244186836000015485612c3c565b612455565b61245533878460000154611091565b50600195945050505050565b6000610d216000805160206153cf83398151915283611fb8565b6124936000805160206153cf83398151915233611fb8565b6124af5760405162461bcd60e51b8152600401610e2f9061512e565b6001600160a01b03821615806124ce57506001600160a01b0382163b15155b61251a5760405162461bcd60e51b815260206004820152601860248201527f494e56414c49445f4f4e5f4b45595f534f4c445f484f4f4b00000000000000006044820152606401610e2f565b6001600160a01b038116158061253957506001600160a01b0381163b15155b6125855760405162461bcd60e51b815260206004820152601a60248201527f494e56414c49445f4f4e5f4b45595f43414e43454c5f484f4f4b0000000000006044820152606401610e2f565b60d080546001600160a01b039384166001600160a01b03199182161790915560d18054929093169116179055565b600082815260d3602052604090205482906001600160a01b03166126075760405162461bcd60e51b815260206004820152600b60248201526a4e4f5f535543485f4b455960a81b6044820152606401610e2f565b612611833361316c565b80612620575061262033612461565b61266c5760405162461bcd60e51b815260206004820152601f60248201527f554e415554484f52495a45445f4b45595f4d414e414745525f555044415445006044820152606401610e2f565b6113b08383613567565b600061268133612461565b80612696575060cf546001600160a01b031633145b6126e25760405162461bcd60e51b815260206004820181905260248201527f4f4e4c595f4c4f434b5f4d414e414745525f4f525f42454e45464943494152596044820152606401610e2f565b60c95460405163095ea7b360e01b81526001600160a01b038581166004830152602482018590529091169063095ea7b390604401602060405180830381600087803b15801561273057600080fd5b505af1158015612744573d6000803e3d6000fd5b505050506040513d601f19601f820116820180604052508101906114189190614bfe565b612773848484611091565b61277f84848484613bf5565b6127cb5760405162461bcd60e51b815260206004820152601d60248201527f4e4f4e5f434f4d504c49414e545f4552433732315f52454345495645520000006044820152606401610e2f565b50505050565b6127e96000805160206153cf83398151915233611fb8565b6128055760405162461bcd60e51b8152600401610e2f9061512e565b60c954600160a01b900460ff1661282e5760405162461bcd60e51b8152600401610e2f90615183565b6040517f25a311358326fb18c62efc24bc28d3126acee8d2a67fd8b2145b757dc8bd1bc190600090a160c9805460ff60a01b19169055565b60608080600061287530613cb4565b90506060851561288f5761288886613f0f565b92506128a2565b6040518060200160405280600081525092505b60da80546128af906152d9565b151590506129645760ca60009054906101000a90046001600160a01b03166001600160a01b031663a998e9fb6040518163ffffffff1660e01b815260040160006040518083038186803b15801561290557600080fd5b505afa158015612919573d6000803e3d6000fd5b505050506040513d6000823e601f3d908101601f191682016040526129419190810190614ccd565b9350604051806040016040528060018152602001602f60f81b8152509050612a16565b60da8054612971906152d9565b80601f016020809104026020016040519081016040528092919081815260200182805461299d906152d9565b80156129ea5780601f106129bf576101008083540402835291602001916129ea565b820191906000526020600020905b8154815290600101906020018083116129cd57829003601f168201915b505050505093506040518060200160405280600081525090506040518060200160405280600081525091505b612a2284838386614057565b9695505050505050565b612a446000805160206153cf83398151915233611fb8565b612a605760405162461bcd60e51b8152600401610e2f9061512e565b612a786000805160206153cf8339815191528261138a565b6040516001600160a01b038216907f91d5c045d5bd98bf59a379b259ebca05b93bf79af1845fdf87e3172385d4c7f790600090a250565b80612aba813361316c565b80612aca5750612aca81336131e2565b80612af25750600081815260d36020526040902054612af2906001600160a01b031633612b62565b612b0e5760405162461bcd60e51b8152600401610e2f906150a9565b600082815260d360205260408120546001600160a01b031690612b308261375c565b90506127cb8282613afe565b600082815260976020526040902060010154612b5881336135e9565b6113b083836136d3565b6001600160a01b03808316600090815260d2602090815260408083205480845260d5909252822054919290911680612bc5575050506001600160a01b03808316600090815260d7602090815260408083209385168352929052205460ff16610d21565b6001600160a01b03908116600090815260d7602090815260408083209387168352929052205460ff169150610d219050565b612c0f6000805160206153cf8339815191523361145f565b60405133907f42885193b8178d25fca25a38e6fcc93918501e91be06d85e0c8afb3bad95238090600090a2565b60c954600160a01b900460ff16612c655760405162461bcd60e51b8152600401610e2f90615183565b81612c70813361316c565b80612c805750612c8081336131e2565b80612ca85750600081815260d36020526040902054612ca8906001600160a01b031633612b62565b612cc45760405162461bcd60e51b8152600401610e2f906150a9565b61271060db5410612d105760405162461bcd60e51b815260206004820152601660248201527512d15657d514905394d1915494d7d11254d05093115160521b6044820152606401610e2f565b6001600160a01b038416612d365760405162461bcd60e51b8152600401610e2f90615059565b600083815260d360205260409020546001600160a01b0316612d5781611b23565b612d735760405162461bcd60e51b8152600401610e2f90615082565b6001600160a01b03808216600090815260d260205260408082209288168252812080546001840154919290918190612dac90429061527f565b90506000612dba878a6130ea565b90506000612dc8828b615203565b905082811015612de657899350612de18b8260006133a2565b612e31565b612df088846130ea565b9150612dfc828461527f565b4260018901556040519094508b907f59f2fe866dd27a1c2d34115520888c3150365cbc931aab97fa88c4b9ab40b79590600090a25b84612e7857612e3f8661373a565b85549450612e4d8c866134a3565b60405185906001600160a01b038e16906000906000805160206153af833981519152908290a4612e8e565b42866001015411612e8e57612e8e856000613567565b612e9a858560016133a2565b848c6001600160a01b0316896001600160a01b03166000805160206153af83398151915260405160405180910390a4612ee4888d8d60405180602001604052806000815250613bf5565b6119c15760405162461bcd60e51b815260206004820152601d60248201527f4e4f4e5f434f4d504c49414e545f4552433732315f52454345495645520000006044820152606401610e2f565b612f3933612461565b80612f4e575060cf546001600160a01b031633145b612f9a5760405162461bcd60e51b815260206004820181905260248201527f4f4e4c595f4c4f434b5f4d414e414745525f4f525f42454e45464943494152596044820152606401610e2f565b60006001600160a01b038316612fb157504761302b565b6040516370a0823160e01b81523060048201526001600160a01b038416906370a082319060240160206040518083038186803b158015612ff057600080fd5b505afa158015613004573d6000803e3d6000fd5b505050506040513d601f19601f820116820180604052508101906130289190614d3f565b90505b600082158061303957508183115b1561308857600082116130815760405162461bcd60e51b815260206004820152601060248201526f4e4f545f454e4f5547485f46554e445360801b6044820152606401610e2f565b508061308b565b50815b60cf546040518281526001600160a01b039182169186169033907f342e7ff505a8a0364cd0dc2ff195c315e43bce86b204846ecd36913e117b109e9060200160405180910390a460cf546127cb9085906001600160a01b031683614089565b60006130f583611b23565b61310157506000610d21565b6001600160a01b038316600090815260d26020526040812090808461313757428360010154613130919061527f565b915061313b565b8491505b61271060db548361314c9190615260565b6131569190615240565b9350610d2192505050565b6000610d21826140c5565b600082815260d560205260408120546001600160a01b03838116911614806131cd5750600083815260d560205260409020546001600160a01b03161580156131cd5750600083815260d360205260409020546001600160a01b038381169116145b156131da57506001610d21565b506000610d21565b600091825260d66020526040909120546001600160a01b0391821691161490565b60d054600090819081906001600160a01b0316156132a85760d05460405163221c1fd160e01b81526001600160a01b039091169063221c1fd1906132519033908a908a908a90600401614fcb565b60206040518083038186803b15801561326957600080fd5b505afa15801561327d573d6000803e3d6000fd5b505050506040513d601f19601f820116820180604052508101906132a19190614d3f565b92506132ae565b60cc5492505b82156133995760ca54604051630cb175e360e01b81526001600160a01b0388811660048301526024820186905290911690630cb175e390604401604080518083038186803b1580156132ff57600080fd5b505afa158015613313573d6000803e3d6000fd5b505050506040513d601f19601f820116820180604052508101906133379190614de8565b90925090508282111561338c5760405162461bcd60e51b815260206004820152601c60248201527f494e56414c49445f444953434f554e545f46524f4d5f554e4c4f434b000000006044820152606401610e2f565b613396828461527f565b92505b93509350939050565b600083815260d360205260409020546001600160a01b0316806133fa5760405162461bcd60e51b815260206004820152601060248201526f4e4f4e5f4558495354454e545f4b455960801b6044820152606401610e2f565b6001600160a01b038116600090815260d2602052604081206001810154909161342284611b23565b9050841561344e5780156134445761343a8683615203565b600184015561345e565b61343a8642615203565b613458868361527f565b60018401555b60408051878152861515602082015288917fe9408df99703ae33a9d01185bcad328ea8683fb1f920da9c30959c192f21b5b3910160405180910390a250505050505050565b600081815260d360205260409020546001600160a01b038381169116146114d95760d48054600181019091557f9780e26d96b1f2a9a18ef8fc72d589dbf03ef788137b64f43897e83a91e7feec0180546001600160a01b0384166001600160a01b03199182168117909255600083815260d360205260409020805490911690911790555050565b600081815260d660205260409020546001600160a01b03161561356457600081815260d66020526040902080546001600160a01b03191690555b50565b600082815260d560205260409020546001600160a01b038281169116146114d957600082815260d56020526040902080546001600160a01b0319166001600160a01b0383161790556135b88261352a565b60405160009083907f9d2895c45a420624de863a2f437b022d879f457bf7a829044055a10c5a6fd5e3908390a35050565b6135f38282611fb8565b6114d95761360b816001600160a01b031660146140d0565b6136168360206140d0565b604051602001613627929190614f0b565b60408051601f198184030181529082905262461bcd60e51b8252610e2f91600401615046565b6136578282611fb8565b6114d95760008281526097602090815260408083206001600160a01b03851684529091529020805460ff1916600117905561368f3390565b6001600160a01b0316816001600160a01b0316837f2f8788117e7eff1d82e926ec794901d17c78024a50270940304540a733656f0d60405160405180910390a45050565b6136dd8282611fb8565b156114d95760008281526097602090815260408083206001600160a01b0385168085529252808320805460ff1916905551339285917ff6391f5c32d9c69d2a47ea670b442974b53935d1edc7fd64eb21e047a839171b9190a45050565b80546135645760ce80549060006137508361530e565b909155505060ce549055565b60008161376881611b23565b6137845760405162461bcd60e51b8152600401610e2f90615082565b6001600160a01b038316600090815260d26020526040812060018101549091906137af90429061527f565b905060cb5460dd54826137c29190615203565b106137d15760cc5493506137ef565b60cb548160cc546137e29190615260565b6137ec9190615240565b93505b60dd54158061380b575060cb5460dd546138099083615203565b105b1561385157600061271060dc5460cc546138259190615260565b61382f9190615240565b90508085111561384a57613843818661527f565b945061384f565b600094505b505b505050919050565b60c980546001600160a01b0319166001600160a01b03831690811790915515806138f357506000816001600160a01b03166318160ddd6040518163ffffffff1660e01b815260040160206040518083038186803b1580156138b957600080fd5b505afa1580156138cd573d6000803e3d6000fd5b505050506040513d601f19601f820116820180604052508101906138f19190614d3f565b115b6135645760405162461bcd60e51b815260206004820152600d60248201526c24a72b20a624a22faa27a5a2a760991b6044820152606401610e2f565b63bbf81e008311156139835760405162461bcd60e51b815260206004820152601860248201527f4d41585f45585049524154494f4e5f3130305f594541525300000000000000006044820152606401610e2f565b60ca8054336001600160a01b03199182161790915560cf80549091166001600160a01b03959095169490941790935560cb9190915560cc5560cd55565b6139c86142b1565b6139d460d88383614794565b506114d9635b5e139f60e01b613a7f565b6139f563780e9d6360e01b613a7f565b565b613a0f6000805160206153cf8339815191528061432c565b613a3560008051602061538f8339815191526000805160206153cf83398151915261432c565b613a3e81612461565b613a5a57613a5a6000805160206153cf83398151915282614377565b613a6381611a30565b6135645761356460008051602061538f83398151915282614377565b6001600160e01b03198082161415613ad95760405162461bcd60e51b815260206004820152601c60248201527f4552433136353a20696e76616c696420696e74657266616365206964000000006044820152606401610e2f565b6001600160e01b0319166000908152606560205260409020805460ff19166001179055565b6001600160a01b038216600081815260d2602052604090819020805491519092339290917f0a7068a9989857441c039a14a42b67ed71dd1fcfe5a9b17cc87b252e47bce52890613b519087815260200190565b60405180910390a44260018201558115613b7c5760c954613b7c906001600160a01b03168484614089565b60d1546001600160a01b0316156113b05760d15460405163b499b6c560e01b81523360048201526001600160a01b038581166024830152604482018590529091169063b499b6c590606401600060405180830381600087803b158015613be157600080fd5b505af1158015611f43573d6000803e3d6000fd5b60006001600160a01b0384163b613c0e57506001613cac565b604051630a85bd0160e11b81526000906001600160a01b0386169063150b7a0290613c439033908a9089908990600401614fff565b602060405180830381600087803b158015613c5d57600080fd5b505af1158015613c71573d6000803e3d6000fd5b505050506040513d601f19601f82011682018060405250810190613c959190614c72565b6001600160e01b031916630a85bd0160e11b149150505b949350505050565b604080518082018252601081526f181899199a1a9b1b9c1cb0b131b232b360811b60208201528151602a80825260608281019094526001600160a01b0385169291600091602082018180368337019050509050600360fc1b81600081518110613d2d57634e487b7160e01b600052603260045260246000fd5b60200101906001600160f81b031916908160001a905350600f60fb1b81600181518110613d6a57634e487b7160e01b600052603260045260246000fd5b60200101906001600160f81b031916908160001a90535060005b6014811015613f065782600485613d9c84600c615203565b60208110613dba57634e487b7160e01b600052603260045260246000fd5b1a60f81b6001600160f81b031916901c60f81c60ff1681518110613dee57634e487b7160e01b600052603260045260246000fd5b01602001516001600160f81b03191682613e09836002615260565b613e14906002615203565b81518110613e3257634e487b7160e01b600052603260045260246000fd5b60200101906001600160f81b031916908160001a9053508284613e5683600c615203565b60208110613e7457634e487b7160e01b600052603260045260246000fd5b825191901a600f16908110613e9957634e487b7160e01b600052603260045260246000fd5b01602001516001600160f81b03191682613eb4836002615260565b613ebf906003615203565b81518110613edd57634e487b7160e01b600052603260045260246000fd5b60200101906001600160f81b031916908160001a90535080613efe8161530e565b915050613d84565b50949350505050565b60608180613f365750506040805180820190915260018152600360fc1b6020820152919050565b8260005b8115613f605780613f4a8161530e565b9150613f599050600a83615240565b9150613f3a565b6000816001600160401b03811115613f8857634e487b7160e01b600052604160045260246000fd5b6040519080825280601f01601f191660200182016040528015613fb2576020820181803683370190505b509050815b841561404d57613fc860018261527f565b90506000613fd7600a87615240565b613fe290600a615260565b613fec908761527f565b613ff790603061521b565b905060008160f81b90508084848151811061402257634e487b7160e01b600052603260045260246000fd5b60200101906001600160f81b031916908160001a905350614044600a88615240565b96505050613fb7565b5095945050505050565b6060848484846040516020016140709493929190614eb4565b6040516020818303038152906040529050949350505050565b80156113b0576001600160a01b0383166140b0576113b06001600160a01b03831682614381565b826127cb6001600160a01b038216848461449a565b6000610d21826144ec565b606060006140df836002615260565b6140ea906002615203565b6001600160401b0381111561410f57634e487b7160e01b600052604160045260246000fd5b6040519080825280601f01601f191660200182016040528015614139576020820181803683370190505b509050600360fc1b8160008151811061416257634e487b7160e01b600052603260045260246000fd5b60200101906001600160f81b031916908160001a905350600f60fb1b8160018151811061419f57634e487b7160e01b600052603260045260246000fd5b60200101906001600160f81b031916908160001a90535060006141c3846002615260565b6141ce906001615203565b90505b6001811115614262576f181899199a1a9b1b9c1cb0b131b232b360811b85600f166010811061421057634e487b7160e01b600052603260045260246000fd5b1a60f81b82828151811061423457634e487b7160e01b600052603260045260246000fd5b60200101906001600160f81b031916908160001a90535060049490941c9361425b816152c2565b90506141d1565b5083156114185760405162461bcd60e51b815260206004820181905260248201527f537472696e67733a20686578206c656e67746820696e73756666696369656e746044820152606401610e2f565b600054610100900460ff16806142ca575060005460ff16155b6142e65760405162461bcd60e51b8152600401610e2f906150e0565b600054610100900460ff16158015614308576000805461ffff19166101011790555b614310614511565b614318614511565b8015613564576000805461ff001916905550565b600082815260976020526040808220600101805490849055905190918391839186917fbd79b86ffe0ab8e8776151514217cd7cacd52c909f66475c3af44e129f0b00ff9190a4505050565b6114d9828261364d565b804710156143d15760405162461bcd60e51b815260206004820152601d60248201527f416464726573733a20696e73756666696369656e742062616c616e63650000006044820152606401610e2f565b6000826001600160a01b03168260405160006040518083038185875af1925050503d806000811461441e576040519150601f19603f3d011682016040523d82523d6000602084013e614423565b606091505b50509050806113b05760405162461bcd60e51b815260206004820152603a60248201527f416464726573733a20756e61626c6520746f2073656e642076616c75652c207260448201527f6563697069656e74206d617920686176652072657665727465640000000000006064820152608401610e2f565b604080516001600160a01b038416602482015260448082018490528251808303909101815260649091019091526020810180516001600160e01b031663a9059cbb60e01b1790526113b090849061457b565b60006001600160e01b03198216637965db0b60e01b1480610d215750610d218261464d565b600054610100900460ff168061452a575060005460ff16155b6145465760405162461bcd60e51b8152600401610e2f906150e0565b600054610100900460ff16158015614318576000805461ffff19166101011790558015613564576000805461ff001916905550565b60006145d0826040518060400160405280602081526020017f5361666545524332303a206c6f772d6c6576656c2063616c6c206661696c6564815250856001600160a01b03166146899092919063ffffffff16565b8051909150156113b057808060200190518101906145ee9190614bfe565b6113b05760405162461bcd60e51b815260206004820152602a60248201527f5361666545524332303a204552433230206f7065726174696f6e20646964206e6044820152691bdd081cdd58d8d9595960b21b6064820152608401610e2f565b60006301ffc9a760e01b6001600160e01b031983161480610d215750506001600160e01b03191660009081526065602052604090205460ff1690565b6060613cac848460008585843b6146e25760405162461bcd60e51b815260206004820152601d60248201527f416464726573733a2063616c6c20746f206e6f6e2d636f6e74726163740000006044820152606401610e2f565b600080866001600160a01b031685876040516146fe9190614e98565b60006040518083038185875af1925050503d806000811461473b576040519150601f19603f3d011682016040523d82523d6000602084013e614740565b606091505b509150915061475082828661475b565b979650505050505050565b6060831561476a575081611418565b82511561477a5782518084602001fd5b8160405162461bcd60e51b8152600401610e2f9190615046565b8280546147a0906152d9565b90600052602060002090601f0160209004810192826147c25760008555614808565b82601f106147db5782800160ff19823516178555614808565b82800160010185558215614808579182015b828111156148085782358255916020019190600101906147ed565b50611a2c9291505b80821115611a2c5760008155600101614810565b60008083601f840112614835578182fd5b5081356001600160401b0381111561484b578182fd5b6020830191508360208260051b850101111561486657600080fd5b9250929050565b60008083601f84011261487e578182fd5b5081356001600160401b03811115614894578182fd5b60208301915083602082850101111561486657600080fd5b6000602082840312156148bd578081fd5b813561141881615355565b600080604083850312156148da578081fd5b82356148e581615355565b946020939093013593505050565b600080600080600080600060c0888a03121561490d578283fd5b873561491881615355565b965060208801359550604088013561492f81615355565b9450606088013593506080880135925060a08801356001600160401b03811115614957578283fd5b6149638a828b0161486d565b989b979a50959850939692959293505050565b60008060408385031215614988578182fd5b823561499381615355565b915060208301356149a381615355565b809150509250929050565b600080600080606085870312156149c3578384fd5b84356149ce81615355565b935060208501356149de81615355565b925060408501356001600160401b038111156149f8578283fd5b614a048782880161486d565b95989497509550505050565b600080600060608486031215614a24578283fd5b8335614a2f81615355565b92506020840135614a3f81615355565b929592945050506040919091013590565b60008060008060808587031215614a65578182fd5b8435614a7081615355565b93506020850135614a8081615355565b92506040850135915060608501356001600160401b03811115614aa1578182fd5b8501601f81018713614ab1578182fd5b8035614ac4614abf826151dc565b6151ac565b818152886020838501011115614ad8578384fd5b81602084016020830137908101602001929092525092959194509250565b60008060408385031215614b08578182fd5b8235614b1381615355565b915060208301356149a38161536a565b600080604083850312156148da578182fd5b600080600060608486031215614b49578081fd5b8335614b5481615355565b95602085013595506040909401359392505050565b60008060008060008060608789031215614b81578384fd5b86356001600160401b0380821115614b97578586fd5b614ba38a838b01614824565b90985096506020890135915080821115614bbb578586fd5b614bc78a838b01614824565b90965094506040890135915080821115614bdf578384fd5b50614bec89828a01614824565b979a9699509497509295939492505050565b600060208284031215614c0f578081fd5b81516114188161536a565b600060208284031215614c2b578081fd5b5035919050565b60008060408385031215614c44578182fd5b8235915060208301356149a381615355565b600060208284031215614c67578081fd5b813561141881615378565b600060208284031215614c83578081fd5b815161141881615378565b60008060208385031215614ca0578182fd5b82356001600160401b03811115614cb5578283fd5b614cc18582860161486d565b90969095509350505050565b600060208284031215614cde578081fd5b81516001600160401b03811115614cf3578182fd5b8201601f81018413614d03578182fd5b8051614d11614abf826151dc565b818152856020838501011115614d25578384fd5b614d36826020830160208601615296565b95945050505050565b600060208284031215614d50578081fd5b5051919050565b600080600080600060808688031215614d6e578283fd5b853594506020860135614d8081615355565b93506040860135614d9081615355565b925060608601356001600160401b03811115614daa578182fd5b614db68882890161486d565b969995985093965092949392505050565b60008060408385031215614dd9578182fd5b50508035926020909101359150565b60008060408385031215614dfa578182fd5b505080516020909101519092909150565b600080600060608486031215614e1f578081fd5b83359250602084013591506040840135614e388161536a565b809150509250925092565b81835281816020850137506000828201602090810191909152601f909101601f19169091010190565b60008151808452614e84816020860160208601615296565b601f01601f19169290920160200192915050565b60008251614eaa818460208701615296565b9190910192915050565b60008551614ec6818460208a01615296565b855190830190614eda818360208a01615296565b8551910190614eed818360208901615296565b8451910190614f00818360208801615296565b019695505050505050565b7f416363657373436f6e74726f6c3a206163636f756e7420000000000000000000815260008351614f43816017850160208801615296565b7001034b99036b4b9b9b4b733903937b6329607d1b6017918401918201528351614f74816028840160208801615296565b01602801949350505050565b6001600160a01b03888116825287811660208301528616604082015260c060608201819052600090614fb59083018688614e43565b60808301949094525060a0015295945050505050565b6001600160a01b038581168252848116602083015283166040820152608060608201819052600090612a2290830184614e6c565b6001600160a01b0385811682528416602082015260408101839052608060608201819052600090612a2290830184614e6c565b602081526000613cac602083018486614e43565b6020815260006114186020830184614e6c565b6020808252600f908201526e494e56414c49445f4144445245535360881b604082015260600190565b6020808252600d908201526c12d15657d393d517d590531251609a1b604082015260600190565b6020808252601c908201527f4f4e4c595f4b45595f4d414e414745525f4f525f415050524f56454400000000604082015260600190565b6020808252602e908201527f496e697469616c697a61626c653a20636f6e747261637420697320616c72656160408201526d191e481a5b9a5d1a585b1a5e995960921b606082015260800190565b60208082526035908201527f4d6978696e526f6c65733a2063616c6c657220646f6573206e6f74206861766560408201527420746865204c6f636b4d616e6167657220726f6c6560581b606082015260800190565b6020808252600f908201526e1313d0d2d7d11154149150d0551151608a1b604082015260600190565b604051601f8201601f191681016001600160401b03811182821017156151d4576151d461533f565b604052919050565b60006001600160401b038211156151f5576151f561533f565b50601f01601f191660200190565b6000821982111561521657615216615329565b500190565b600060ff821660ff84168060ff0382111561523857615238615329565b019392505050565b60008261525b57634e487b7160e01b81526012600452602481fd5b500490565b600081600019048311821515161561527a5761527a615329565b500290565b60008282101561529157615291615329565b500390565b60005b838110156152b1578181015183820152602001615299565b838111156127cb5750506000910152565b6000816152d1576152d1615329565b506000190190565b600181811c908216806152ed57607f821691505b60208210811415610e5357634e487b7160e01b600052602260045260246000fd5b600060001982141561532257615322615329565b5060010190565b634e487b7160e01b600052601160045260246000fd5b634e487b7160e01b600052604160045260246000fd5b6001600160a01b038116811461356457600080fd5b801515811461356457600080fd5b6001600160e01b03198116811461356457600080fdfeb309c40027c81d382c3b58d8de24207a34b27e1db369b1434e4a11311f154b5eddf252ad1be2c89b69c2b068fc378daa952ba7f163c4a11628f55a4df523b3efb89cdd26cddd51301940bf2715f765b626b8a5a9e2681ac62dc83cc2db2530c0a26469706673582212202d176e83f882991a1239e4ff3a8e30b99bc3c013543bdb90d46464ae98d6ac5964736f6c63430008040033",
  "linkReferences": {},
  "deployedLinkReferences": {}
}