{
  "_format": "hh-sol-artifact-1",
  "contractName": "NFTXUniqueEligibility",
  "sourceName": "contracts/solidity/eligibility/NFTXUniqueEligibility.sol",
  "abi": [
    {
      "anonymous": false,
      "inputs": [
        {
          "indexed": false,
          "internalType": "address",
          "name": "owner",
          "type": "address"
        },
        {
          "indexed": false,
          "internalType": "address",
          "name": "vault",
          "type": "address"
        },
        {
          "indexed": false,
          "internalType": "bool",
          "name": "negateElig",
          "type": "bool"
        },
        {
          "indexed": false,
          "internalType": "bool",
          "name": "finalize",
          "type": "bool"
        },
        {
          "indexed": false,
          "internalType": "uint256[]",
          "name": "tokenIds",
          "type": "uint256[]"
        }
      ],
      "name": "NFTXEligibilityInit",
      "type": "event"
    },
    {
      "anonymous": false,
      "inputs": [
        {
          "indexed": true,
          "internalType": "address",
          "name": "previousOwner",
          "type": "address"
        },
        {
          "indexed": true,
          "internalType": "address",
          "name": "newOwner",
          "type": "address"
        }
      ],
      "name": "OwnershipTransferred",
      "type": "event"
    },
    {
      "anonymous": false,
      "inputs": [
        {
          "indexed": false,
          "internalType": "uint256[]",
          "name": "tokenIds",
          "type": "uint256[]"
        },
        {
          "indexed": false,
          "internalType": "bool",
          "name": "isEligible",
          "type": "bool"
        }
      ],
      "name": "UniqueEligibilitiesSet",
      "type": "event"
    },
    {
      "anonymous": false,
      "inputs": [
        {
          "indexed": false,
          "internalType": "bool",
          "name": "negateElig",
          "type": "bool"
        }
      ],
      "name": "negateEligilityOnRedeemSet",
      "type": "event"
    },
    {
      "inputs": [
        {
          "internalType": "address",
          "name": "_owner",
          "type": "address"
        },
        {
          "internalType": "address",
          "name": "_vault",
          "type": "address"
        },
        {
          "internalType": "bool",
          "name": "negateElig",
          "type": "bool"
        },
        {
          "internalType": "bool",
          "name": "finalize",
          "type": "bool"
        },
        {
          "internalType": "uint256[]",
          "name": "tokenIds",
          "type": "uint256[]"
        }
      ],
      "name": "__NFTXEligibility_init",
      "outputs": [],
      "stateMutability": "nonpayable",
      "type": "function"
    },
    {
      "inputs": [
        {
          "internalType": "bytes",
          "name": "_configData",
          "type": "bytes"
        }
      ],
      "name": "__NFTXEligibility_init_bytes",
      "outputs": [],
      "stateMutability": "nonpayable",
      "type": "function"
    },
    {
      "inputs": [
        {
          "internalType": "uint256[]",
          "name": "tokenIds",
          "type": "uint256[]"
        }
      ],
      "name": "afterMintHook",
      "outputs": [],
      "stateMutability": "nonpayable",
      "type": "function"
    },
    {
      "inputs": [
        {
          "internalType": "uint256[]",
          "name": "tokenIds",
          "type": "uint256[]"
        }
      ],
      "name": "afterRedeemHook",
      "outputs": [],
      "stateMutability": "nonpayable",
      "type": "function"
    },
    {
      "inputs": [
        {
          "internalType": "uint256[]",
          "name": "tokenIds",
          "type": "uint256[]"
        }
      ],
      "name": "beforeMintHook",
      "outputs": [],
      "stateMutability": "nonpayable",
      "type": "function"
    },
    {
      "inputs": [
        {
          "internalType": "uint256[]",
          "name": "tokenIds",
          "type": "uint256[]"
        }
      ],
      "name": "beforeRedeemHook",
      "outputs": [],
      "stateMutability": "nonpayable",
      "type": "function"
    },
    {
      "inputs": [
        {
          "internalType": "uint256[]",
          "name": "tokenIds",
          "type": "uint256[]"
        }
      ],
      "name": "checkAllEligible",
      "outputs": [
        {
          "internalType": "bool",
          "name": "",
          "type": "bool"
        }
      ],
      "stateMutability": "view",
      "type": "function"
    },
    {
      "inputs": [
        {
          "internalType": "uint256[]",
          "name": "tokenIds",
          "type": "uint256[]"
        }
      ],
      "name": "checkAllIneligible",
      "outputs": [
        {
          "internalType": "bool",
          "name": "",
          "type": "bool"
        }
      ],
      "stateMutability": "view",
      "type": "function"
    },
    {
      "inputs": [
        {
          "internalType": "uint256[]",
          "name": "tokenIds",
          "type": "uint256[]"
        }
      ],
      "name": "checkEligible",
      "outputs": [
        {
          "internalType": "bool[]",
          "name": "",
          "type": "bool[]"
        }
      ],
      "stateMutability": "view",
      "type": "function"
    },
    {
      "inputs": [
        {
          "internalType": "uint256",
          "name": "tokenId",
          "type": "uint256"
        }
      ],
      "name": "checkIsEligible",
      "outputs": [
        {
          "internalType": "bool",
          "name": "",
          "type": "bool"
        }
      ],
      "stateMutability": "view",
      "type": "function"
    },
    {
      "inputs": [],
      "name": "finalized",
      "outputs": [
        {
          "internalType": "bool",
          "name": "",
          "type": "bool"
        }
      ],
      "stateMutability": "view",
      "type": "function"
    },
    {
      "inputs": [],
      "name": "isInitialized",
      "outputs": [
        {
          "internalType": "bool",
          "name": "",
          "type": "bool"
        }
      ],
      "stateMutability": "view",
      "type": "function"
    },
    {
      "inputs": [
        {
          "internalType": "uint256",
          "name": "tokenId",
          "type": "uint256"
        }
      ],
      "name": "isUniqueEligible",
      "outputs": [
        {
          "internalType": "bool",
          "name": "",
          "type": "bool"
        }
      ],
      "stateMutability": "view",
      "type": "function"
    },
    {
      "inputs": [],
      "name": "name",
      "outputs": [
        {
          "internalType": "string",
          "name": "",
          "type": "string"
        }
      ],
      "stateMutability": "pure",
      "type": "function"
    },
    {
      "inputs": [],
      "name": "negateEligOnRedeem",
      "outputs": [
        {
          "internalType": "bool",
          "name": "",
          "type": "bool"
        }
      ],
      "stateMutability": "view",
      "type": "function"
    },
    {
      "inputs": [],
      "name": "owner",
      "outputs": [
        {
          "internalType": "address",
          "name": "",
          "type": "address"
        }
      ],
      "stateMutability": "view",
      "type": "function"
    },
    {
      "inputs": [],
      "name": "renounceOwnership",
      "outputs": [],
      "stateMutability": "nonpayable",
      "type": "function"
    },
    {
      "inputs": [
        {
          "internalType": "bool",
          "name": "_negateEligOnRedeem",
          "type": "bool"
        }
      ],
      "name": "setEligibilityPreferences",
      "outputs": [],
      "stateMutability": "nonpayable",
      "type": "function"
    },
    {
      "inputs": [
        {
          "internalType": "uint256[]",
          "name": "tokenIds",
          "type": "uint256[]"
        },
        {
          "internalType": "bool",
          "name": "_isEligible",
          "type": "bool"
        }
      ],
      "name": "setUniqueEligibilities",
      "outputs": [],
      "stateMutability": "nonpayable",
      "type": "function"
    },
    {
      "inputs": [],
      "name": "targetAsset",
      "outputs": [
        {
          "internalType": "address",
          "name": "",
          "type": "address"
        }
      ],
      "stateMutability": "pure",
      "type": "function"
    },
    {
      "inputs": [
        {
          "internalType": "address",
          "name": "newOwner",
          "type": "address"
        }
      ],
      "name": "transferOwnership",
      "outputs": [],
      "stateMutability": "nonpayable",
      "type": "function"
    }
  ],
  "bytecode": "0x608060405234801561001057600080fd5b5061156e806100206000396000f3fe608060405234801561001057600080fd5b50600436106101775760003560e01c80636cd91260116100d8578063bd8affde1161008c578063d6eed93711610066578063d6eed937146102f0578063f2fde38b14610304578063fbd5cb201461031757600080fd5b8063bd8affde146101d9578063ca373f28146102ca578063d2a096e8146102dd57600080fd5b806384ca9f85116100bd57806384ca9f851461029e5780638da5cb5b146102b1578063b3f05b97146102c257600080fd5b80636cd9126014610276578063715018a61461029657600080fd5b80633d4403ac1161012f5780634998b7f3116101145780634998b7f3146102505780635e2f9b52146102635780636c47d595146101d957600080fd5b80633d4403ac14610222578063423515c41461023d57600080fd5b806336eb08621161016057806336eb0862146101d9578063392e53cd146101eb5780633942cf361461020f57600080fd5b806306fdde031461017c5780630a7e4096146101c4575b600080fd5b604080518082018252600681527f556e697175650000000000000000000000000000000000000000000000000000602082015290516101bb91906113f2565b60405180910390f35b6101d76101d2366004611100565b61032a565b005b6101d76101e7366004611186565b5050565b6066546101ff90600160a01b900460ff1681565b60405190151581526020016101bb565b6101ff61021d3660046112ef565b61054d565b60005b6040516001600160a01b0390911681526020016101bb565b6101d761024b366004611246565b610580565b6101d761025e366004611262565b610632565b6101d7610271366004611186565b610725565b610289610284366004611186565b61078a565b6040516101bb9190611388565b6101d7610867565b6101ff6102ac366004611186565b610918565b6033546001600160a01b0316610225565b6101ff610971565b6101ff6102d8366004611186565b6109ac565b6101ff6102eb3660046112ef565b6109fc565b6066546101ff90600160a81b900460ff1681565b6101d7610312366004610fff565b610a07565b6101d76103253660046111f6565b610b46565b600054610100900460ff1680610343575060005460ff16155b6103ab5760405162461bcd60e51b815260206004820152602e60248201527f496e697469616c697a61626c653a20636f6e747261637420697320616c72656160448201526d191e481a5b9a5d1a585b1a5e995960921b60648201526084015b60405180910390fd5b600054610100900460ff161580156103cd576000805461ffff19166101011790555b6103d5610baa565b6001600160a01b03861661042b5760405162461bcd60e51b815260206004820152601360248201527f4f776e657220213d20616464726573732830290000000000000000000000000060448201526064016103a2565b6001600160a01b0385166104815760405162461bcd60e51b815260206004820152601360248201527f5661756c7420213d20616464726573732830290000000000000000000000000060448201526064016103a2565b60668054600160a01b7fffffffffffffffffffffff0000000000000000000000000000000000000000009091166001600160a01b038816171760ff60a81b1916600160a81b861515021790556104d8826001610c6d565b7fab54c710aa0ff99f4b7667b84e94caebe3d960186b2588d4309acd5cdf0ab2b7868686868660405161050f959493929190611341565b60405180910390a1821561052a57610525610867565b610533565b61053386610a07565b8015610545576000805461ff00191690555b505050505050565b60008061055c6101008461149a565b6000818152606560205260409020549091506105788185610d7d565b949350505050565b6033546001600160a01b031633146105da5760405162461bcd60e51b815260206004820181905260248201527f4f776e61626c653a2063616c6c6572206973206e6f7420746865206f776e657260448201526064016103a2565b60668054821515600160a81b0260ff60a81b199091161790556040517f9038d4f71df700fd5979d0e9b93f30d31a3e528411cf593749e474ee836568599061062790831515815260200190565b60405180910390a150565b600054610100900460ff168061064b575060005460ff16155b6106ae5760405162461bcd60e51b815260206004820152602e60248201527f496e697469616c697a61626c653a20636f6e747261637420697320616c72656160448201526d191e481a5b9a5d1a585b1a5e995960921b60648201526084016103a2565b600054610100900460ff161580156106d0576000805461ffff19166101011790555b6106d8610baa565b6000806000806000868060200190518101906106f4919061101b565b9450945094509450945061070b858584868561032a565b505050505080156101e7576000805461ff00191690555050565b6066546001600160a01b0316331461073c57600080fd5b606654600160a81b900460ff16156101e7576101e782828080602002602001604051908101604052809392919081815260200183836020028082843760009201829052509250610c6d915050565b606060008267ffffffffffffffff8111156107b557634e487b7160e01b600052604160045260246000fd5b6040519080825280602002602001820160405280156107de578160200160208202803683370190505b50905060005b8381101561085d5761081b85858381811061080f57634e487b7160e01b600052603260045260246000fd5b90506020020135610d9d565b82828151811061083b57634e487b7160e01b600052603260045260246000fd5b9115156020928302919091019091015280610855816114ae565b9150506107e4565b5090505b92915050565b6033546001600160a01b031633146108c15760405162461bcd60e51b815260206004820181905260248201527f4f776e61626c653a2063616c6c6572206973206e6f7420746865206f776e657260448201526064016103a2565b6033546040516000916001600160a01b0316907f8be0079c531659141344cd1fd0a4f28419497f9722a3daafe3b4186f6b6457e0908390a36033805473ffffffffffffffffffffffffffffffffffffffff19169055565b6000805b828110156109675761094784848381811061080f57634e487b7160e01b600052603260045260246000fd5b610955576000915050610861565b8061095f816114ae565b91505061091c565b5060019392505050565b606654600090600160a01b900460ff1680156109a75750600061099c6033546001600160a01b031690565b6001600160a01b0316145b905090565b6000805b82811015610967576109db84848381811061080f57634e487b7160e01b600052603260045260246000fd5b156109ea576000915050610861565b806109f4816114ae565b9150506109b0565b600061086182610d9d565b6033546001600160a01b03163314610a615760405162461bcd60e51b815260206004820181905260248201527f4f776e61626c653a2063616c6c6572206973206e6f7420746865206f776e657260448201526064016103a2565b6001600160a01b038116610add5760405162461bcd60e51b815260206004820152602660248201527f4f776e61626c653a206e6577206f776e657220697320746865207a65726f206160448201527f646472657373000000000000000000000000000000000000000000000000000060648201526084016103a2565b6033546040516001600160a01b038084169216907f8be0079c531659141344cd1fd0a4f28419497f9722a3daafe3b4186f6b6457e090600090a36033805473ffffffffffffffffffffffffffffffffffffffff19166001600160a01b0392909216919091179055565b6033546001600160a01b03163314610ba05760405162461bcd60e51b815260206004820181905260248201527f4f776e61626c653a2063616c6c6572206973206e6f7420746865206f776e657260448201526064016103a2565b6101e78282610c6d565b600054610100900460ff1680610bc3575060005460ff16155b610c265760405162461bcd60e51b815260206004820152602e60248201527f496e697469616c697a61626c653a20636f6e747261637420697320616c72656160448201526d191e481a5b9a5d1a585b1a5e995960921b60648201526084016103a2565b600054610100900460ff16158015610c48576000805461ffff19166101011790555b610c50610da8565b610c58610e59565b8015610c6a576000805461ff00191690555b50565b600080805260656020527fffdfc1249c027f9191656349feb0761381bb32c9f557e01f419fd08754bf5a1b5490805b8451811015610d2b576000858281518110610cc757634e487b7160e01b600052603260045260246000fd5b60200260200101519050600061010082610ce1919061149a565b9050838114610d09576000938452606560205260408085209590955580845293909220549291825b610d14858388610f5b565b945050508080610d23906114ae565b915050610c9c565b5060008181526065602052604090819020839055517ffacde3821ab1224682dd0ab6a805f71860b6ca6982ad044c8c4927ea4c6f140190610d6f90869086906113ce565b60405180910390a150505050565b600080610d8c610100846114d5565b9390931c6001908116149392505050565b60006108618261054d565b600054610100900460ff1680610dc1575060005460ff16155b610e245760405162461bcd60e51b815260206004820152602e60248201527f496e697469616c697a61626c653a20636f6e747261637420697320616c72656160448201526d191e481a5b9a5d1a585b1a5e995960921b60648201526084016103a2565b600054610100900460ff16158015610c58576000805461ffff19166101011790558015610c6a576000805461ff001916905550565b600054610100900460ff1680610e72575060005460ff16155b610ed55760405162461bcd60e51b815260206004820152602e60248201527f496e697469616c697a61626c653a20636f6e747261637420697320616c72656160448201526d191e481a5b9a5d1a585b1a5e995960921b60648201526084016103a2565b600054610100900460ff16158015610ef7576000805461ffff19166101011790555b6033805473ffffffffffffffffffffffffffffffffffffffff19163390811790915560405181906000907f8be0079c531659141344cd1fd0a4f28419497f9722a3daafe3b4186f6b6457e0908290a3508015610c6a576000805461ff001916905550565b600080610f6a610100856114d5565b90508215610f7f576001901b84179050610f89565b6001901b19841690505b9392505050565b600082601f830112610fa0578081fd5b81356020610fb5610fb083611476565b611445565b80838252828201915082860187848660051b8901011115610fd4578586fd5b855b85811015610ff257813584529284019290840190600101610fd6565b5090979650505050505050565b600060208284031215611010578081fd5b8135610f8981611515565b600080600080600060a08688031215611032578081fd5b855161103d81611515565b8095505060208087015161105081611515565b60408801519095506110618161152a565b60608801519094506110728161152a565b608088015190935067ffffffffffffffff81111561108e578283fd5b8701601f8101891361109e578283fd5b80516110ac610fb082611476565b8082825284820191508484018c868560051b87010111156110cb578687fd5b8694505b838510156110ed5780518352600194909401939185019185016110cf565b5080955050505050509295509295909350565b600080600080600060a08688031215611117578081fd5b853561112281611515565b9450602086013561113281611515565b935060408601356111428161152a565b925060608601356111528161152a565b9150608086013567ffffffffffffffff81111561116d578182fd5b61117988828901610f90565b9150509295509295909350565b60008060208385031215611198578182fd5b823567ffffffffffffffff808211156111af578384fd5b818501915085601f8301126111c2578384fd5b8135818111156111d0578485fd5b8660208260051b85010111156111e4578485fd5b60209290920196919550909350505050565b60008060408385031215611208578182fd5b823567ffffffffffffffff81111561121e578283fd5b61122a85828601610f90565b925050602083013561123b8161152a565b809150509250929050565b600060208284031215611257578081fd5b8135610f898161152a565b60006020808385031215611274578182fd5b823567ffffffffffffffff8082111561128b578384fd5b818501915085601f83011261129e578384fd5b8135818111156112b0576112b06114ff565b6112c2601f8201601f19168501611445565b915080825286848285010111156112d7578485fd5b80848401858401378101909201929092529392505050565b600060208284031215611300578081fd5b5035919050565b6000815180845260208085019450808401835b838110156113365781518752958201959082019060010161131a565b509495945050505050565b60006001600160a01b0380881683528087166020840152508415156040830152831515606083015260a0608083015261137d60a0830184611307565b979650505050505050565b6020808252825182820181905260009190848201906040850190845b818110156113c25783511515835292840192918401916001016113a4565b50909695505050505050565b6040815260006113e16040830185611307565b905082151560208301529392505050565b6000602080835283518082850152825b8181101561141e57858101830151858201604001528201611402565b8181111561142f5783604083870101525b50601f01601f1916929092016040019392505050565b604051601f8201601f1916810167ffffffffffffffff8111828210171561146e5761146e6114ff565b604052919050565b600067ffffffffffffffff821115611490576114906114ff565b5060051b60200190565b6000826114a9576114a96114e9565b500490565b60006000198214156114ce57634e487b7160e01b81526011600452602481fd5b5060010190565b6000826114e4576114e46114e9565b500690565b634e487b7160e01b600052601260045260246000fd5b634e487b7160e01b600052604160045260246000fd5b6001600160a01b0381168114610c6a57600080fd5b8015158114610c6a57600080fdfea2646970667358221220ebe8c61bc79d33c0779fd0e1a6e30d3da0ac12358ee73908031709f6d20e78db64736f6c63430008040033",
  "linkReferences": {},
  "deployedLinkReferences": {}
}