{
  "_format": "hh-sol-artifact-1",
  "contractName": "GatewayVaultTest",
  "sourceName": "contracts/test/GatewayVaultTest.sol",
  "abi": [
    {
      "inputs": [
        {
          "internalType": "contract IVaultGovernance",
          "name": "vaultGovernance_",
          "type": "address"
        },
        {
          "internalType": "address[]",
          "name": "vaultTokens_",
          "type": "address[]"
        }
      ],
      "stateMutability": "nonpayable",
      "type": "constructor"
    },
    {
      "anonymous": false,
      "inputs": [
        {
          "indexed": false,
          "internalType": "address",
          "name": "protocolTreasury",
          "type": "address"
        },
        {
          "indexed": false,
          "internalType": "address[]",
          "name": "tokens",
          "type": "address[]"
        },
        {
          "indexed": false,
          "internalType": "uint256[]",
          "name": "amounts",
          "type": "uint256[]"
        }
      ],
      "name": "CollectProtocolFees",
      "type": "event"
    },
    {
      "anonymous": false,
      "inputs": [
        {
          "indexed": false,
          "internalType": "address",
          "name": "strategyTreasury",
          "type": "address"
        },
        {
          "indexed": false,
          "internalType": "address[]",
          "name": "tokens",
          "type": "address[]"
        },
        {
          "indexed": false,
          "internalType": "uint256[]",
          "name": "amounts",
          "type": "uint256[]"
        }
      ],
      "name": "CollectStrategyFees",
      "type": "event"
    },
    {
      "anonymous": false,
      "inputs": [
        {
          "indexed": false,
          "internalType": "address",
          "name": "to",
          "type": "address"
        },
        {
          "indexed": false,
          "internalType": "uint256[]",
          "name": "tokenAmounts",
          "type": "uint256[]"
        }
      ],
      "name": "Pull",
      "type": "event"
    },
    {
      "anonymous": false,
      "inputs": [
        {
          "indexed": false,
          "internalType": "uint256[]",
          "name": "tokenAmounts",
          "type": "uint256[]"
        }
      ],
      "name": "Push",
      "type": "event"
    },
    {
      "anonymous": false,
      "inputs": [
        {
          "indexed": false,
          "internalType": "address",
          "name": "to",
          "type": "address"
        },
        {
          "indexed": false,
          "internalType": "address[]",
          "name": "tokens",
          "type": "address[]"
        },
        {
          "indexed": false,
          "internalType": "uint256[]",
          "name": "tokenAmounts",
          "type": "uint256[]"
        }
      ],
      "name": "ReclaimTokens",
      "type": "event"
    },
    {
      "inputs": [
        {
          "internalType": "uint256[]",
          "name": "nfts",
          "type": "uint256[]"
        }
      ],
      "name": "addSubvaults",
      "outputs": [],
      "stateMutability": "nonpayable",
      "type": "function"
    },
    {
      "inputs": [
        {
          "internalType": "address",
          "name": "from",
          "type": "address"
        },
        {
          "internalType": "bytes",
          "name": "data",
          "type": "bytes"
        }
      ],
      "name": "claimRewards",
      "outputs": [],
      "stateMutability": "nonpayable",
      "type": "function"
    },
    {
      "inputs": [
        {
          "internalType": "address",
          "name": "vault",
          "type": "address"
        }
      ],
      "name": "hasSubvault",
      "outputs": [
        {
          "internalType": "bool",
          "name": "",
          "type": "bool"
        }
      ],
      "stateMutability": "view",
      "type": "function"
    },
    {
      "inputs": [
        {
          "internalType": "uint256",
          "name": "nft_",
          "type": "uint256"
        }
      ],
      "name": "initialize",
      "outputs": [],
      "stateMutability": "nonpayable",
      "type": "function"
    },
    {
      "inputs": [
        {
          "internalType": "address",
          "name": "sender",
          "type": "address"
        }
      ],
      "name": "isApprovedOrOwner",
      "outputs": [
        {
          "internalType": "bool",
          "name": "",
          "type": "bool"
        }
      ],
      "stateMutability": "view",
      "type": "function"
    },
    {
      "inputs": [
        {
          "internalType": "address",
          "name": "to",
          "type": "address"
        }
      ],
      "name": "isValidPullDestination",
      "outputs": [
        {
          "internalType": "bool",
          "name": "",
          "type": "bool"
        }
      ],
      "stateMutability": "view",
      "type": "function"
    },
    {
      "inputs": [
        {
          "internalType": "address",
          "name": "token",
          "type": "address"
        }
      ],
      "name": "isVaultToken",
      "outputs": [
        {
          "internalType": "bool",
          "name": "",
          "type": "bool"
        }
      ],
      "stateMutability": "view",
      "type": "function"
    },
    {
      "inputs": [],
      "name": "nft",
      "outputs": [
        {
          "internalType": "uint256",
          "name": "",
          "type": "uint256"
        }
      ],
      "stateMutability": "view",
      "type": "function"
    },
    {
      "inputs": [
        {
          "internalType": "address",
          "name": "",
          "type": "address"
        },
        {
          "internalType": "address",
          "name": "",
          "type": "address"
        },
        {
          "internalType": "uint256",
          "name": "tokenId",
          "type": "uint256"
        },
        {
          "internalType": "bytes",
          "name": "",
          "type": "bytes"
        }
      ],
      "name": "onERC721Received",
      "outputs": [
        {
          "internalType": "bytes4",
          "name": "",
          "type": "bytes4"
        }
      ],
      "stateMutability": "nonpayable",
      "type": "function"
    },
    {
      "inputs": [
        {
          "internalType": "address",
          "name": "to",
          "type": "address"
        },
        {
          "internalType": "address[]",
          "name": "tokens",
          "type": "address[]"
        },
        {
          "internalType": "uint256[]",
          "name": "tokenAmounts",
          "type": "uint256[]"
        },
        {
          "internalType": "bytes",
          "name": "options",
          "type": "bytes"
        }
      ],
      "name": "pull",
      "outputs": [
        {
          "internalType": "uint256[]",
          "name": "actualTokenAmounts",
          "type": "uint256[]"
        }
      ],
      "stateMutability": "nonpayable",
      "type": "function"
    },
    {
      "inputs": [
        {
          "internalType": "address[]",
          "name": "tokens",
          "type": "address[]"
        },
        {
          "internalType": "uint256[]",
          "name": "tokenAmounts",
          "type": "uint256[]"
        },
        {
          "internalType": "bytes",
          "name": "options",
          "type": "bytes"
        }
      ],
      "name": "push",
      "outputs": [
        {
          "internalType": "uint256[]",
          "name": "actualTokenAmounts",
          "type": "uint256[]"
        }
      ],
      "stateMutability": "nonpayable",
      "type": "function"
    },
    {
      "inputs": [
        {
          "internalType": "address",
          "name": "to",
          "type": "address"
        },
        {
          "internalType": "address[]",
          "name": "tokens",
          "type": "address[]"
        }
      ],
      "name": "reclaimTokens",
      "outputs": [],
      "stateMutability": "nonpayable",
      "type": "function"
    },
    {
      "inputs": [
        {
          "internalType": "address",
          "name": "strategy",
          "type": "address"
        },
        {
          "internalType": "uint256[]",
          "name": "nfts",
          "type": "uint256[]"
        }
      ],
      "name": "setApprovalsForStrategy",
      "outputs": [],
      "stateMutability": "nonpayable",
      "type": "function"
    },
    {
      "inputs": [
        {
          "internalType": "uint256[]",
          "name": "nfts",
          "type": "uint256[]"
        }
      ],
      "name": "setSubvaultNfts",
      "outputs": [],
      "stateMutability": "nonpayable",
      "type": "function"
    },
    {
      "inputs": [
        {
          "internalType": "address",
          "name": "newVaultGovernance",
          "type": "address"
        }
      ],
      "name": "setVaultGovernance",
      "outputs": [],
      "stateMutability": "nonpayable",
      "type": "function"
    },
    {
      "inputs": [
        {
          "internalType": "address[]",
          "name": "tokens",
          "type": "address[]"
        }
      ],
      "name": "setVaultTokens",
      "outputs": [],
      "stateMutability": "nonpayable",
      "type": "function"
    },
    {
      "inputs": [],
      "name": "subvaultNfts",
      "outputs": [
        {
          "internalType": "uint256[]",
          "name": "",
          "type": "uint256[]"
        }
      ],
      "stateMutability": "view",
      "type": "function"
    },
    {
      "inputs": [
        {
          "internalType": "uint256",
          "name": "vaultNum",
          "type": "uint256"
        }
      ],
      "name": "subvaultTvl",
      "outputs": [
        {
          "internalType": "uint256[]",
          "name": "",
          "type": "uint256[]"
        }
      ],
      "stateMutability": "view",
      "type": "function"
    },
    {
      "inputs": [],
      "name": "subvaultsTvl",
      "outputs": [
        {
          "internalType": "uint256[][]",
          "name": "tokenAmounts",
          "type": "uint256[][]"
        }
      ],
      "stateMutability": "view",
      "type": "function"
    },
    {
      "inputs": [
        {
          "internalType": "address",
          "name": "from",
          "type": "address"
        },
        {
          "internalType": "address[]",
          "name": "tokens",
          "type": "address[]"
        },
        {
          "internalType": "uint256[]",
          "name": "tokenAmounts",
          "type": "uint256[]"
        },
        {
          "internalType": "bytes",
          "name": "options",
          "type": "bytes"
        }
      ],
      "name": "transferAndPush",
      "outputs": [
        {
          "internalType": "uint256[]",
          "name": "actualTokenAmounts",
          "type": "uint256[]"
        }
      ],
      "stateMutability": "nonpayable",
      "type": "function"
    },
    {
      "inputs": [],
      "name": "tvl",
      "outputs": [
        {
          "internalType": "uint256[]",
          "name": "tokenAmounts",
          "type": "uint256[]"
        }
      ],
      "stateMutability": "view",
      "type": "function"
    },
    {
      "inputs": [],
      "name": "vaultGovernance",
      "outputs": [
        {
          "internalType": "contract IVaultGovernance",
          "name": "",
          "type": "address"
        }
      ],
      "stateMutability": "view",
      "type": "function"
    },
    {
      "inputs": [],
      "name": "vaultTokens",
      "outputs": [
        {
          "internalType": "address[]",
          "name": "",
          "type": "address[]"
        }
      ],
      "stateMutability": "view",
      "type": "function"
    }
  ],
  "bytecode": "0x60806040523480156200001157600080fd5b506040516200511f3803806200511f8339810160408190526200003491620002c1565b81818181600160008190555062000056816200014a60201b6200227f1760201c565b6040518060400160405280600381526020016253415560e81b815250906200009c5760405162461bcd60e51b8152600401620000939190620003ac565b60405180910390fd5b50600180546001600160a01b0319166001600160a01b0384161790558051620000cd906002906020840190620001ff565b5060005b81518110156200013d57600160036000848481518110620000f657620000f662000404565b6020908102919091018101516001600160a01b03168252810191909152604001600020805460ff191691151591909117905580620001348162000430565b915050620000d1565b5050505050505062000483565b60006002825110156200015f57506001919050565b60005b600183516200017291906200044e565b811015620001f657826200018882600162000468565b815181106200019b576200019b62000404565b60200260200101516001600160a01b0316838281518110620001c157620001c162000404565b60200260200101516001600160a01b031610620001e15750600092915050565b80620001ed8162000430565b91505062000162565b50600192915050565b82805482825590600052602060002090810192821562000257579160200282015b828111156200025757825182546001600160a01b0319166001600160a01b0390911617825560209092019160019091019062000220565b506200026592915062000269565b5090565b5b808211156200026557600081556001016200026a565b6001600160a01b03811681146200029657600080fd5b50565b634e487b7160e01b600052604160045260246000fd5b8051620002bc8162000280565b919050565b60008060408385031215620002d557600080fd5b8251620002e28162000280565b602084810151919350906001600160401b03808211156200030257600080fd5b818601915086601f8301126200031757600080fd5b8151818111156200032c576200032c62000299565b8060051b604051601f19603f8301168101818110858211171562000354576200035462000299565b6040529182528482019250838101850191898311156200037357600080fd5b938501935b828510156200039c576200038c85620002af565b8452938501939285019262000378565b8096505050505050509250929050565b600060208083528351808285015260005b81811015620003db57858101830151858201604001528201620003bd565b81811115620003ee576000604083870101525b50601f01601f1916929092016040019392505050565b634e487b7160e01b600052603260045260246000fd5b634e487b7160e01b600052601160045260246000fd5b60006000198214156200044757620004476200041a565b5060010190565b6000828210156200046357620004636200041a565b500390565b600082198211156200047e576200047e6200041a565b500190565b614c8c80620004936000396000f3fe608060405234801561001057600080fd5b506004361061014d5760003560e01c806376c33dfa116100c3578063da5ae2881161007c578063da5ae288146102ff578063e5328e0614610312578063e8216b891461031a578063fac4cecb1461032d578063fe255a5e14610340578063fe4b84df1461035b57600080fd5b806376c33dfa14610279578063791839731461028c5780638333903b14610294578063a03ba1ea146102a7578063a4612a5d146102bc578063b9d487f2146102ec57600080fd5b8063338c4ccb11610115578063338c4ccb146101de57806347ccca021461021a578063566ca6b41461022b5780635f9020f11461023e57806369722233146102515780636d0a866e1461026657600080fd5b8063150b7a021461015257806318b4d37f146101835780632062d7541461019857806326829ad1146101b857806327a35e5a146101cb575b600080fd5b6101656101603660046140c2565b61036e565b6040516001600160e01b031990911681526020015b60405180910390f35b610196610191366004614223565b6104ca565b005b6101ab6101a6366004614354565b610709565b60405161017a9190614429565b6101966101c636600461443c565b610976565b6101ab6101d9366004614354565b610dbf565b61020a6101ec366004614470565b6001600160a01b031660009081526003602052604090205460ff1690565b604051901515815260200161017a565b60045460405190815260200161017a565b6101ab61023936600461448d565b610f48565b61019661024c36600461443c565b61125d565b610259611270565b60405161017a919061454d565b6101ab610274366004614560565b6112d2565b61020a610287366004614470565b61146a565b6101ab61147b565b61020a6102a2366004614470565b6114d2565b6102af611615565b60405161017a9190614579565b6101966102ca366004614470565b600180546001600160a01b0319166001600160a01b0392909216919091179055565b6101966102fa366004614603565b6118fb565b61019661030d366004614648565b611aab565b6101ab611abe565b61019661032836600461467c565b611d2b565b61020a61033b366004614470565b6120cb565b6001546040516001600160a01b03909116815260200161017a565b610196610369366004614560565b6120d6565b6000610378612324565b60015460408051637ac46fbb60e01b815281516000936001600160a01b031692637ac46fbb9260048082019391829003018186803b1580156103b957600080fd5b505afa1580156103cd573d6000803e3d6000fd5b505050506040513d601f19601f820116820180604052508101906103f191906146c1565b602001519050806001600160a01b0316336001600160a01b0316146040518060400160405280600581526020016427232a2b2960d91b815250906104515760405162461bcd60e51b81526004016104489190614777565b60405180910390fd5b50604051634dcbc73960e01b8152600481018690526001600160a01b03821690634dcbc73990602401600060405180830381600087803b15801561049457600080fd5b505af11580156104a8573d6000803e3d6000fd5b50630a85bd0160e11b9450505050506104c16001600055565b95945050505050565b6104d2612324565b600060045411604051806040016040528060048152602001631253925560e21b815250906105135760405162461bcd60e51b81526004016104489190614777565b5061051d3361237e565b60405180604001604052806002815260200161494f60f01b815250906105565760405162461bcd60e51b81526004016104489190614777565b5060015460408051637ac46fbb60e01b815281516000936001600160a01b031692637ac46fbb9260048082019391829003018186803b15801561059857600080fd5b505afa1580156105ac573d6000803e3d6000fd5b505050506040513d601f19601f820116820180604052508101906105d091906146c1565b5160405163884289e360e01b81526001600160a01b0385811660048301529192509082169063884289e39060240160206040518083038186803b15801561061657600080fd5b505afa15801561062a573d6000803e3d6000fd5b505050506040513d601f19601f8201168201806040525081019061064e919061479f565b60405180604001604052806002815260200161414360f01b815250906106875760405162461bcd60e51b81526004016104489190614777565b50600080846001600160a01b0316846040516106a391906147ba565b6000604051808303816000865af19150503d80600081146106e0576040519150601f19603f3d011682016040523d82523d6000602084013e6106e5565b606091505b5091509150816106f85780518082602001fd5b5050506107056001600055565b5050565b6060610713612324565b61071c3361237e565b61074d5760405162461bcd60e51b8152602060048201526002602482015261494f60f01b6044820152606401610448565b60015460408051637ac46fbb60e01b815281516000936001600160a01b031692637ac46fbb9260048082019391829003018186803b15801561078e57600080fd5b505afa1580156107a2573d6000803e3d6000fd5b505050506040513d601f19601f820116820180604052508101906107c691906146c1565b60200151600480546040516331a9108f60e11b8152918201529091506000906001600160a01b03831690636352211e9060240160206040518083038186803b15801561081157600080fd5b505afa158015610825573d6000803e3d6000fd5b505050506040513d601f19601f8201168201806040525081019061084991906147d6565b90506001600160a01b038116331480610866575061086687612530565b60405180604001604052806005815260200164494e54524160d81b815250906108a25760405162461bcd60e51b81526004016104489190614777565b5060006108af87876127fe565b905060006108be8983886128e7565b905061092588600280548060200260200160405190810160405280929190818152602001828054801561091a57602002820191906000526020600020905b81546001600160a01b031681526001909101906020018083116108fc575b505050505083612ded565b94507f54f9e6ef58e36de62f59f9ee6c4b878af84989c53a3642eba415ac3ac4e11cda89866040516109589291906147f3565b60405180910390a15050505061096e6001600055565b949350505050565b600154604080518082019091526002815261564760f01b6020820152906001600160a01b031633146109bb5760405162461bcd60e51b81526004016104489190614777565b5060055460408051808201909152600481526329a124a760e11b602082015290156109f95760405162461bcd60e51b81526004016104489190614777565b5060008151116040518060400160405280600381526020016214d09360ea1b81525090610a395760405162461bcd60e51b81526004016104489190614777565b5060006002805480602002602001604051908101604052809291908181526020018280548015610a9257602002820191906000526020600020905b81546001600160a01b03168152600190910190602001808311610a74575b505050505090506000600160009054906101000a90046001600160a01b03166001600160a01b0316637ac46fbb6040518163ffffffff1660e01b8152600401604080518083038186803b158015610ae857600080fd5b505afa158015610afc573d6000803e3d6000fd5b505050506040513d601f19601f82011682018060405250810190610b2091906146c1565b60200151905060005b8351811015610db9576000848281518110610b4657610b46614817565b60200260200101519050600081116040518060400160405280600481526020016304e4654360e41b81525090610b8f5760405162461bcd60e51b81526004016104489190614777565b50604051639c94d85360e01b8152600481018290526000906001600160a01b03851690639c94d8539060240160206040518083038186803b158015610bd357600080fd5b505afa158015610be7573d6000803e3d6000fd5b505050506040513d601f19601f82011682018060405250810190610c0b91906147d6565b90506000816001600160a01b031663697222336040518163ffffffff1660e01b815260040160006040518083038186803b158015610c4857600080fd5b505afa158015610c5c573d6000803e3d6000fd5b505050506040513d6000823e601f3d908101601f19168201604052610c84919081019061482d565b90508051865114604051806040016040528060018152602001601360fa1b81525090610cc35760405162461bcd60e51b81526004016104489190614777565b5060005b8651811015610d6357818181518110610ce257610ce2614817565b60200260200101516001600160a01b0316878281518110610d0557610d05614817565b60200260200101516001600160a01b03161460405180604001604052806002815260200161159560f21b81525090610d505760405162461bcd60e51b81526004016104489190614777565b5080610d5b816148d1565b915050610cc7565b505060058054600181019091557f036b6384b5eca791c62761152d0c79bb0604c104a5fb6f4eb0703f3154bb3db00182905550600090815260066020526040902081905580610db1816148d1565b915050610b29565b50505050565b606060005b8451811015610e53576000848281518110610de157610de1614817565b60200260200101511115610e4157610e418630868481518110610e0657610e06614817565b6020026020010151888581518110610e2057610e20614817565b60200260200101516001600160a01b031661300e909392919063ffffffff16565b80610e4b816148d1565b915050610dc4565b50610e5f848484610f48565b905060005b8451811015610f3f576000848281518110610e8157610e81614817565b6020026020010151838381518110610e9b57610e9b614817565b602002602001015110610eaf576000610eed565b828281518110610ec157610ec1614817565b6020026020010151858381518110610edb57610edb614817565b6020026020010151610eed91906148ec565b90508015610f2c57610f2c8782888581518110610f0c57610f0c614817565b60200260200101516001600160a01b03166130799092919063ffffffff16565b5080610f37816148d1565b915050610e64565b50949350505050565b6060610f52612324565b6004805460408051808201909152918252631253925560e21b60208301529081610f8f5760405162461bcd60e51b81526004016104489190614777565b50610f993361237e565b60405180604001604052806002815260200161494f60f01b81525090610fd25760405162461bcd60e51b81526004016104489190614777565b5060015460408051637ac46fbb60e01b815281516000936001600160a01b031692637ac46fbb9260048082019391829003018186803b15801561101457600080fd5b505afa158015611028573d6000803e3d6000fd5b505050506040513d601f19601f8201168201806040525081019061104c91906146c1565b602001516040516331a9108f60e11b8152600481018490529091506000906001600160a01b03831690636352211e9060240160206040518083038186803b15801561109657600080fd5b505afa1580156110aa573d6000803e3d6000fd5b505050506040513d601f19601f820116820180604052508101906110ce91906147d6565b60405163fcdabd2760e01b81526001600160a01b03808316600483015291925060009184169063fcdabd279060240160206040518083038186803b15801561111557600080fd5b505afa158015611129573d6000803e3d6000fd5b505050506040513d601f19601f8201168201806040525081019061114d9190614903565b9050600081116040518060400160405280600381526020016227abab60e91b8152509061118d5760405162461bcd60e51b81526004016104489190614777565b50600061119a89896127fe565b905060006111a882896130ae565b905061120d8a600280548060200260200160405190810160405280929190818152602001828054801561091a576020028201919060005260206000209081546001600160a01b031681526001909101906020018083116108fc57505050505083612ded565b96507f08e404e978692dd1b8275016b7a7b0b3ae4afd06b0cec7228060bb2da18c84fd8160405161123e9190614429565b60405180910390a15050505050506112566001600055565b9392505050565b8051610705906005906020840190613ff5565b606060028054806020026020016040519081016040528092919081815260200182805480156112c857602002820191906000526020600020905b81546001600160a01b031681526001909101906020018083116112aa575b5050505050905090565b60015460408051637ac46fbb60e01b815281516060936000936001600160a01b0390911692637ac46fbb9260048083019392829003018186803b15801561131857600080fd5b505afa15801561132c573d6000803e3d6000fd5b505050506040513d601f19601f8201168201806040525081019061135091906146c1565b6020015190506000816001600160a01b0316639c94d8536005868154811061137a5761137a614817565b90600052602060002001546040518263ffffffff1660e01b81526004016113a391815260200190565b60206040518083038186803b1580156113bb57600080fd5b505afa1580156113cf573d6000803e3d6000fd5b505050506040513d601f19601f820116820180604052508101906113f391906147d6565b9050806001600160a01b031663e5328e066040518163ffffffff1660e01b815260040160006040518083038186803b15801561142e57600080fd5b505afa158015611442573d6000803e3d6000fd5b505050506040513d6000823e601f3d908101601f1916820160405261096e9190810190614977565b60006114758261237e565b92915050565b606060058054806020026020016040519081016040528092919081815260200182805480156112c857602002820191906000526020600020905b8154815260200190600101908083116114b5575050505050905090565b60015460408051637ac46fbb60e01b8152815160009384936001600160a01b0390911692637ac46fbb9260048083019392829003018186803b15801561151757600080fd5b505afa15801561152b573d6000803e3d6000fd5b505050506040513d601f19601f8201168201806040525081019061154f91906146c1565b6020015160405163fcdabd2760e01b81526001600160a01b03858116600483015291925060009183169063fcdabd279060240160206040518083038186803b15801561159a57600080fd5b505afa1580156115ae573d6000803e3d6000fd5b505050506040513d601f19601f820116820180604052508101906115d29190614903565b60008181526006602052604090205490915015158061096e575080600560008154811061160157611601614817565b906000526020600020015414949350505050565b60015460408051637ac46fbb60e01b815281516060936000936001600160a01b0390911692637ac46fbb9260048083019392829003018186803b15801561165b57600080fd5b505afa15801561166f573d6000803e3d6000fd5b505050506040513d601f19601f8201168201806040525081019061169391906146c1565b60200151600254600554919250906001600160401b038111156116b8576116b8614160565b6040519080825280602002602001820160405280156116eb57816020015b60608152602001906001900390816116d65790505b50925060005b6005548110156118f5576000836001600160a01b0316639c94d8536005848154811061171f5761171f614817565b90600052602060002001546040518263ffffffff1660e01b815260040161174891815260200190565b60206040518083038186803b15801561176057600080fd5b505afa158015611774573d6000803e3d6000fd5b505050506040513d601f19601f8201168201806040525081019061179891906147d6565b90506000816001600160a01b031663e5328e066040518163ffffffff1660e01b815260040160006040518083038186803b1580156117d557600080fd5b505afa1580156117e9573d6000803e3d6000fd5b505050506040513d6000823e601f3d908101601f191682016040526118119190810190614977565b9050836001600160401b0381111561182b5761182b614160565b604051908082528060200260200182016040528015611854578160200160208202803683370190505b5086848151811061186757611867614817565b602002602001018190525060005b848110156118df5781818151811061188f5761188f614817565b60200260200101518785815181106118a9576118a9614817565b602002602001015182815181106118c2576118c2614817565b6020908102919091010152806118d7816148d1565b915050611875565b50505080806118ed906148d1565b9150506116f1565b50505090565b600154604080518082019091526002815261564760f01b6020820152906001600160a01b031633146119405760405162461bcd60e51b81526004016104489190614777565b506040805180820190915260028152615a5360f01b60208201526001600160a01b0383166119815760405162461bcd60e51b81526004016104489190614777565b5060015460408051637ac46fbb60e01b815281516000936001600160a01b031692637ac46fbb9260048082019391829003018186803b1580156119c357600080fd5b505afa1580156119d7573d6000803e3d6000fd5b505050506040513d601f19601f820116820180604052508101906119fb91906146c1565b60200151905060005b8251811015610db957816001600160a01b031663095ea7b385858481518110611a2f57611a2f614817565b60200260200101516040518363ffffffff1660e01b8152600401611a689291906001600160a01b03929092168252602082015260400190565b600060405180830381600087803b158015611a8257600080fd5b505af1158015611a96573d6000803e3d6000fd5b5050505080611aa4906148d1565b9050611a04565b8051610705906002906020840190614040565b60015460408051637ac46fbb60e01b815281516060936000936001600160a01b0390911692637ac46fbb9260048083019392829003018186803b158015611b0457600080fd5b505afa158015611b18573d6000803e3d6000fd5b505050506040513d601f19601f82011682018060405250810190611b3c91906146c1565b602001516002549091506001600160401b03811115611b5d57611b5d614160565b604051908082528060200260200182016040528015611b86578160200160208202803683370190505b50915060005b600554811015611d26576000826001600160a01b0316639c94d85360058481548110611bba57611bba614817565b90600052602060002001546040518263ffffffff1660e01b8152600401611be391815260200190565b60206040518083038186803b158015611bfb57600080fd5b505afa158015611c0f573d6000803e3d6000fd5b505050506040513d601f19601f82011682018060405250810190611c3391906147d6565b90506000816001600160a01b031663e5328e066040518163ffffffff1660e01b815260040160006040518083038186803b158015611c7057600080fd5b505afa158015611c84573d6000803e3d6000fd5b505050506040513d6000823e601f3d908101601f19168201604052611cac9190810190614977565b905060005b600254811015611d1057818181518110611ccd57611ccd614817565b6020026020010151868281518110611ce757611ce7614817565b60200260200101818151611cfb91906149ab565b90525080611d08816148d1565b915050611cb1565b5050508080611d1e906148d1565b915050611b8c565b505090565b611d33612324565b600060045411604051806040016040528060048152602001631253925560e21b81525090611d745760405162461bcd60e51b81526004016104489190614777565b5060015460408051637ac46fbb60e01b815281516000936001600160a01b031692637ac46fbb9260048082019391829003018186803b158015611db657600080fd5b505afa158015611dca573d6000803e3d6000fd5b505050506040513d601f19601f82011682018060405250810190611dee91906146c1565b51604051630935e01b60e21b81523360048201529091506000906001600160a01b038316906324d7806c9060240160206040518083038186803b158015611e3457600080fd5b505afa158015611e48573d6000803e3d6000fd5b505050506040513d601f19601f82011682018060405250810190611e6c919061479f565b90508080611e7e5750611e7e3361237e565b6040518060400160405280600381526020016241444d60e81b81525090611eb85760405162461bcd60e51b81526004016104489190614777565b5080611f0557611ec784612530565b60405180604001604052806005815260200164494e54524160d81b81525090611f035760405162461bcd60e51b81526004016104489190614777565b505b600083516001600160401b03811115611f2057611f20614160565b604051908082528060200260200182016040528015611f49578160200160208202803683370190505b50905060005b8451811015612082576000858281518110611f6c57611f6c614817565b60209081029190910101516040516370a0823160e01b81523060048201529091506001600160a01b038216906370a082319060240160206040518083038186803b158015611fb957600080fd5b505afa158015611fcd573d6000803e3d6000fd5b505050506040513d601f19601f82011682018060405250810190611ff19190614903565b83838151811061200357612003614817565b60200260200101818152505082828151811061202157612021614817565b6020026020010151600014156120375750612070565b61206e8784848151811061204d5761204d614817565b6020026020010151836001600160a01b03166130799092919063ffffffff16565b505b8061207a816148d1565b915050611f4f565b507f9efcb26e0cf572bd9171640e114f387cef91cd3e38532ed6b3f80c7f2e758f878585836040516120b6939291906149c3565b60405180910390a15050506107056001600055565b600061147582612530565b600154604080518082019091526002815261564760f01b6020820152906001600160a01b0316331461211b5760405162461bcd60e51b81526004016104489190614777565b5060408051808201909152600481526304e4654360e41b6020820152816121555760405162461bcd60e51b81526004016104489190614777565b506004805460408051808201909152918252631253925560e21b6020830152156121925760405162461bcd60e51b81526004016104489190614777565b50600481815560015460408051637ac46fbb60e01b815281516000946001600160a01b0390941693637ac46fbb938382019390929190829003018186803b1580156121dc57600080fd5b505afa1580156121f0573d6000803e3d6000fd5b505050506040513d601f19601f8201168201806040525081019061221491906146c1565b6020015160405163a22cb46560e01b81526001600160a01b038216600482018190526001602483015291925063a22cb46590604401600060405180830381600087803b15801561226357600080fd5b505af1158015612277573d6000803e3d6000fd5b505050505050565b600060028251101561229357506001919050565b60005b600183516122a491906148ec565b81101561231b57826122b78260016149ab565b815181106122c7576122c7614817565b60200260200101516001600160a01b03168382815181106122ea576122ea614817565b60200260200101516001600160a01b0316106123095750600092915050565b80612313816148d1565b915050612296565b50600192915050565b600260005414156123775760405162461bcd60e51b815260206004820152601f60248201527f5265656e7472616e637947756172643a207265656e7472616e742063616c6c006044820152606401610448565b6002600055565b60015460408051637ac46fbb60e01b8152815160009384936001600160a01b0390911692637ac46fbb9260048083019392829003018186803b1580156123c357600080fd5b505afa1580156123d7573d6000803e3d6000fd5b505050506040513d601f19601f820116820180604052508101906123fb91906146c1565b6020015160045490915080612414575060009392505050565b60405163020604bf60e21b8152600481018290526001600160a01b03808616919084169063081812fc9060240160206040518083038186803b15801561245957600080fd5b505afa15801561246d573d6000803e3d6000fd5b505050506040513d601f19601f8201168201806040525081019061249191906147d6565b6001600160a01b0316148061096e57506040516331a9108f60e11b8152600481018290526001600160a01b038086169190841690636352211e9060240160206040518083038186803b1580156124e657600080fd5b505afa1580156124fa573d6000803e3d6000fd5b505050506040513d601f19601f8201168201806040525081019061251e91906147d6565b6001600160a01b031614949350505050565b6000813b63ffffffff1661254657506000919050565b60015460408051637ac46fbb60e01b815281516000936001600160a01b031692637ac46fbb9260048082019391829003018186803b15801561258757600080fd5b505afa15801561259b573d6000803e3d6000fd5b505050506040513d601f19601f820116820180604052508101906125bf91906146c1565b602001519050600454600014156125d95750600092915050565b600480546040516331a9108f60e11b8152918201526000906001600160a01b03831690636352211e9060240160206040518083038186803b15801561261d57600080fd5b505afa158015612631573d6000803e3d6000fd5b505050506040513d601f19601f8201168201806040525081019061265591906147d6565b60405163fcdabd2760e01b81526001600160a01b03808316600483015291925060009184169063fcdabd279060240160206040518083038186803b15801561269c57600080fd5b505afa1580156126b0573d6000803e3d6000fd5b505050506040513d601f19601f820116820180604052508101906126d49190614903565b9050806126e657506000949350505050565b604051638333903b60e01b815230600482015282906001600160a01b03821690638333903b9060240160206040518083038186803b15801561272757600080fd5b505afa15801561273b573d6000803e3d6000fd5b505050506040513d601f19601f8201168201806040525081019061275f919061479f565b15806127e15750604051638333903b60e01b81526001600160a01b038781166004830152821690638333903b9060240160206040518083038186803b1580156127a757600080fd5b505afa1580156127bb573d6000803e3d6000fd5b505050506040513d601f19601f820116820180604052508101906127df919061479f565b155b156127f25750600095945050505050565b50600195945050505050565b60606128098361227f565b6040518060400160405280600381526020016253415560e81b815250906128435760405162461bcd60e51b81526004016104489190614777565b508151835114604051806040016040528060018152602001601360fa1b815250906128815760405162461bcd60e51b81526004016104489190614777565b5061125660028054806020026020016040519081016040528092919081815260200182805480156128db57602002820191906000526020600020905b81546001600160a01b031681526001909101906020018083116128bd575b50505050508484612ded565b60606000806128f58461385e565b6005546040805180820190915260048152631253925560e21b60208201529294509092506129365760405162461bcd60e51b81526004016104489190614777565b5060015460408051637ac46fbb60e01b815281516000936001600160a01b031692637ac46fbb9260048082019391829003018186803b15801561297857600080fd5b505afa15801561298c573d6000803e3d6000fd5b505050506040513d601f19601f820116820180604052508101906129b091906146c1565b60200151905060006129c0611615565b905060006129ce88836138e3565b6001546004805460405163110c1a4960e31b8152918201529192506000916001600160a01b0390911690638860d2489060240160006040518083038186803b158015612a1957600080fd5b505afa158015612a2d573d6000803e3d6000fd5b505050506040513d6000823e601f3d908101601f19168201604052612a559190810190614a67565b519050858015612a66575060008151115b15612bb65760005b600554811015612bb457818181518110612a8a57612a8a614817565b602002602001015160001415612a9f57612ba2565b60005b600254811015612ba057600060066000858581518110612ac457612ac4614817565b60200260200101518152602001908152602001600020549050848381518110612aef57612aef614817565b60200260200101518281518110612b0857612b08614817565b6020026020010151858281518110612b2257612b22614817565b60200260200101518381518110612b3b57612b3b614817565b60200260200101818151612b4f91906149ab565b9052508451600090869085908110612b6957612b69614817565b60200260200101518381518110612b8257612b82614817565b60209081029190910101525080612b98816148d1565b915050612aa2565b505b80612bac816148d1565b915050612a6e565b505b6002546001600160401b03811115612bd057612bd0614160565b604051908082528060200260200182016040528015612bf9578160200160208202803683370190505b50965060005b600554811015612ddf576000856001600160a01b0316639c94d85360058481548110612c2d57612c2d614817565b90600052602060002001546040518263ffffffff1660e01b8152600401612c5691815260200190565b60206040518083038186803b158015612c6e57600080fd5b505afa158015612c82573d6000803e3d6000fd5b505050506040513d601f19601f82011682018060405250810190612ca691906147d6565b90506000816001600160a01b0316632062d7548e6002888781518110612cce57612cce614817565b60200260200101518c8881518110612ce857612ce8614817565b60200260200101516040518563ffffffff1660e01b8152600401612d0f9493929190614a9b565b600060405180830381600087803b158015612d2957600080fd5b505af1158015612d3d573d6000803e3d6000fd5b505050506040513d6000823e601f3d908101601f19168201604052612d659190810190614977565b905060005b600254811015612dc957818181518110612d8657612d86614817565b60200260200101518b8281518110612da057612da0614817565b60200260200101818151612db491906149ab565b90525080612dc1816148d1565b915050612d6a565b5050508080612dd7906148d1565b915050612bff565b505050505050509392505050565b6060600084516001600160401b03811115612e0a57612e0a614160565b604051908082528060200260200182016040528015612e33578160200160208202803683370190505b5090506000805b865182108015612e4a5750855181105b15612fc957858181518110612e6157612e61614817565b60200260200101516001600160a01b0316878381518110612e8457612e84614817565b60200260200101516001600160a01b03161015612ecc576000838381518110612eaf57612eaf614817565b602090810291909101015281612ec4816148d1565b925050612e3a565b858181518110612ede57612ede614817565b60200260200101516001600160a01b0316878381518110612f0157612f01614817565b60200260200101516001600160a01b03161115612f7a57848181518110612f2a57612f2a614817565b602002602001015160001415612f4c5780612f44816148d1565b915050612e3a565b60405162461bcd60e51b815260206004820152600360248201526254505360e81b6044820152606401610448565b848181518110612f8c57612f8c614817565b6020026020010151838381518110612fa657612fa6614817565b602090810291909101015281612fbb816148d1565b9250508080612f44906148d1565b8651821015613003576000838381518110612fe657612fe6614817565b602090810291909101015281612ffb816148d1565b925050612fc9565b509095945050505050565b6040516001600160a01b0380851660248301528316604482015260648101829052610db99085906323b872dd60e01b906084015b60408051601f198184030181529190526020810180516001600160e01b03166001600160e01b031990931692909217909152613ceb565b6040516001600160a01b0383166024820152604481018290526130a990849063a9059cbb60e01b90606401613042565b505050565b6005546040805180820190915260048152631253925560e21b60208201526060916130ec5760405162461bcd60e51b81526004016104489190614777565b50600060606130fa8461385e565b60015460408051637ac46fbb60e01b815281519496509294506000936001600160a01b0390921692637ac46fbb9260048083019392829003018186803b15801561314357600080fd5b505afa158015613157573d6000803e3d6000fd5b505050506040513d601f19601f8201168201806040525081019061317b91906146c1565b602001519050600061318b611615565b6002549091506000906001600160401b038111156131ab576131ab614160565b6040519080825280602002602001820160405280156131d4578160200160208202803683370190505b50905060006131e389846138e3565b6001546004805460405163110c1a4960e31b8152918201529192506000916001600160a01b0390911690638860d2489060240160006040518083038186803b15801561322e57600080fd5b505afa158015613242573d6000803e3d6000fd5b505050506040513d6000823e601f3d908101601f1916820160405261326a9190810190614a67565b905086801561327a575080515115155b156133d05760005b6005548110156133ce5781518051829081106132a0576132a0614817565b6020026020010151600014156132b5576133bc565b60005b6002548110156133ba57600060066000856000015185815181106132de576132de614817565b6020026020010151815260200190815260200160002054905084838151811061330957613309614817565b6020026020010151828151811061332257613322614817565b602002602001015185828151811061333c5761333c614817565b6020026020010151838151811061335557613355614817565b6020026020010181815161336991906149ab565b905250845160009086908590811061338357613383614817565b6020026020010151838151811061339c5761339c614817565b602090810291909101015250806133b2816148d1565b9150506132b8565b505b806133c6816148d1565b915050613282565b505b6002546001600160401b038111156133ea576133ea614160565b604051908082528060200260200182016040528015613413578160200160208202803683370190505b50975060005b6005548110156137165787801561344c5750815180518290811061343f5761343f614817565b6020026020010151600014155b1561345657613704565b6000866001600160a01b0316639c94d8536005848154811061347a5761347a614817565b90600052602060002001546040518263ffffffff1660e01b81526004016134a391815260200190565b60206040518083038186803b1580156134bb57600080fd5b505afa1580156134cf573d6000803e3d6000fd5b505050506040513d601f19601f820116820180604052508101906134f391906147d6565b905060005b60025481101561358057600085848151811061351657613516614817565b6020026020010151828151811061352f5761352f614817565b6020026020010151111561356e5761356e6002828154811061355357613553614817565b6000918252602090912001546001600160a01b031683613dc0565b80613578816148d1565b9150506134f8565b506000816001600160a01b03166327a35e5a3060028887815181106135a7576135a7614817565b60200260200101518d88815181106135c1576135c1614817565b60200260200101516040518563ffffffff1660e01b81526004016135e89493929190614a9b565b600060405180830381600087803b15801561360257600080fd5b505af1158015613616573d6000803e3d6000fd5b505050506040513d6000823e601f3d908101601f1916820160405261363e9190810190614977565b905060005b6002548110156137005781818151811061365f5761365f614817565b60200260200101518c828151811061367957613679614817565b6020026020010181815161368d91906149ab565b90525087518890859081106136a4576136a4614817565b602002602001015181815181106136bd576136bd614817565b60200260200101518782815181106136d7576136d7614817565b602002602001018181516136eb91906149ab565b905250806136f8816148d1565b915050613643565b5050505b8061370e816148d1565b915050613419565b5060015460048054604051630248cd6d60e31b8152918201526000916001600160a01b0316906312466b689060240160006040518083038186803b15801561375d57600080fd5b505afa158015613771573d6000803e3d6000fd5b505050506040513d6000823e601f3d908101601f191682016040526137999190810190614a67565b51905060005b60025481101561384f578181815181106137bb576137bb614817565b60200260200101518a82815181106137d5576137d5614817565b60200260200101518683815181106137ef576137ef614817565b602002602001015161380191906149ab565b10604051806040016040528060038152602001624c494d60e81b8152509061383c5760405162461bcd60e51b81526004016104489190614777565b5080613847816148d1565b91505061379f565b50505050505050505092915050565b600060608251600014156138c6576005546000906001600160401b0381111561388957613889614160565b6040519080825280602002602001820160405280156138bc57816020015b60608152602001906001900390816138a75790505b5091509150915091565b828060200190518101906138da9190614b17565b91509150915091565b80516060908061391e5760405162461bcd60e51b81526004016104489060208082526004908201526304b4754360e41b604082015260600190565b8351806139565760405162461bcd60e51b81526004016104489060208082526004908201526304e4754360e41b604082015260600190565b6000816001600160401b0381111561397057613970614160565b604051908082528060200260200182016040528015613999578160200160208202803683370190505b50905060005b83811015613a0757828682815181106139ba576139ba614817565b602002602001015151146139f55760405162461bcd60e51b8152602060048201526002602482015261272b60f11b6044820152606401610448565b806139ff816148d1565b91505061399f565b5060005b82811015613abf576000828281518110613a2757613a27614817565b60200260200101818152505060005b84811015613aac57868181518110613a5057613a50614817565b60200260200101518281518110613a6957613a69614817565b6020026020010151838381518110613a8357613a83614817565b60200260200101818151613a9791906149ab565b90525080613aa4816148d1565b915050613a36565b5080613ab7816148d1565b915050613a0b565b506000836001600160401b03811115613ada57613ada614160565b604051908082528060200260200182016040528015613b0d57816020015b6060815260200190600190039081613af85790505b50905060005b84811015613ce057836001600160401b03811115613b3357613b33614160565b604051908082528060200260200182016040528015613b5c578160200160208202803683370190505b50828281518110613b6f57613b6f614817565b602002602001018190525060005b84811015613ccd57838181518110613b9757613b97614817565b602002602001015160001415613c085785898281518110613bba57613bba614817565b6020026020010151613bcc9190614c15565b838381518110613bde57613bde614817565b60200260200101518281518110613bf757613bf7614817565b602002602001018181525050613cbb565b838181518110613c1a57613c1a614817565b6020026020010151888381518110613c3457613c34614817565b60200260200101518281518110613c4d57613c4d614817565b60200260200101518a8381518110613c6757613c67614817565b6020026020010151613c799190614c37565b613c839190614c15565b838381518110613c9557613c95614817565b60200260200101518281518110613cae57613cae614817565b6020026020010181815250505b80613cc5816148d1565b915050613b7d565b5080613cd8816148d1565b915050613b13565b509695505050505050565b6000613d40826040518060400160405280602081526020017f5361666545524332303a206c6f772d6c6576656c2063616c6c206661696c6564815250856001600160a01b0316613ed59092919063ffffffff16565b9050805160001480613d61575080806020019051810190613d61919061479f565b6130a95760405162461bcd60e51b815260206004820152602a60248201527f5361666545524332303a204552433230206f7065726174696f6e20646964206e6044820152691bdd081cdd58d8d9595960b21b6064820152608401610448565b613dcd6002600019614c15565b604051636eb1769f60e11b81523060048201526001600160a01b03838116602483015284169063dd62ed3e9060440160206040518083038186803b158015613e1457600080fd5b505afa158015613e28573d6000803e3d6000fd5b505050506040513d601f19601f82011682018060405250810190613e4c9190614903565b10156107055760405163095ea7b360e01b81526001600160a01b038281166004830152600019602483015283169063095ea7b390604401602060405180830381600087803b158015613e9d57600080fd5b505af1158015613eb1573d6000803e3d6000fd5b505050506040513d601f19601f820116820180604052508101906130a9919061479f565b606061096e848460008585600080866001600160a01b03168587604051613efc91906147ba565b60006040518083038185875af1925050503d8060008114613f39576040519150601f19603f3d011682016040523d82523d6000602084013e613f3e565b606091505b5091509150613f4f87838387613f5a565b979650505050505050565b60608315613fc6578251613fbf576001600160a01b0385163b613fbf5760405162461bcd60e51b815260206004820152601d60248201527f416464726573733a2063616c6c20746f206e6f6e2d636f6e74726163740000006044820152606401610448565b508161096e565b61096e8383815115613fdb5781518083602001fd5b8060405162461bcd60e51b81526004016104489190614777565b828054828255906000526020600020908101928215614030579160200282015b82811115614030578251825591602001919060010190614015565b5061403c929150614095565b5090565b828054828255906000526020600020908101928215614030579160200282015b8281111561403057825182546001600160a01b0319166001600160a01b03909116178255602090920191600190910190614060565b5b8082111561403c5760008155600101614096565b6001600160a01b03811681146140bf57600080fd5b50565b6000806000806000608086880312156140da57600080fd5b85356140e5816140aa565b945060208601356140f5816140aa565b93506040860135925060608601356001600160401b038082111561411857600080fd5b818801915088601f83011261412c57600080fd5b81358181111561413b57600080fd5b89602082850101111561414d57600080fd5b9699959850939650602001949392505050565b634e487b7160e01b600052604160045260246000fd5b604051601f8201601f191681016001600160401b038111828210171561419e5761419e614160565b604052919050565b60006001600160401b038211156141bf576141bf614160565b50601f01601f191660200190565b600082601f8301126141de57600080fd5b81356141f16141ec826141a6565b614176565b81815284602083860101111561420657600080fd5b816020850160208301376000918101602001919091529392505050565b6000806040838503121561423657600080fd5b8235614241816140aa565b915060208301356001600160401b0381111561425c57600080fd5b614268858286016141cd565b9150509250929050565b60006001600160401b0382111561428b5761428b614160565b5060051b60200190565b600082601f8301126142a657600080fd5b813560206142b66141ec83614272565b82815260059290921b840181019181810190868411156142d557600080fd5b8286015b84811015613ce05780356142ec816140aa565b83529183019183016142d9565b600082601f83011261430a57600080fd5b8135602061431a6141ec83614272565b82815260059290921b8401810191818101908684111561433957600080fd5b8286015b84811015613ce0578035835291830191830161433d565b6000806000806080858703121561436a57600080fd5b8435614375816140aa565b935060208501356001600160401b038082111561439157600080fd5b61439d88838901614295565b945060408701359150808211156143b357600080fd5b6143bf888389016142f9565b935060608701359150808211156143d557600080fd5b506143e2878288016141cd565b91505092959194509250565b600081518084526020808501945080840160005b8381101561441e57815187529582019590820190600101614402565b509495945050505050565b60208152600061125660208301846143ee565b60006020828403121561444e57600080fd5b81356001600160401b0381111561446457600080fd5b61096e848285016142f9565b60006020828403121561448257600080fd5b8135611256816140aa565b6000806000606084860312156144a257600080fd5b83356001600160401b03808211156144b957600080fd5b6144c587838801614295565b945060208601359150808211156144db57600080fd5b6144e7878388016142f9565b935060408601359150808211156144fd57600080fd5b5061450a868287016141cd565b9150509250925092565b600081518084526020808501945080840160005b8381101561441e5781516001600160a01b031687529582019590820190600101614528565b6020815260006112566020830184614514565b60006020828403121561457257600080fd5b5035919050565b6000602080830181845280855180835260408601915060408160051b87010192508387016000805b838110156145f557888603603f19018552825180518088529088019088880190845b818110156145df5783518352928a0192918a01916001016145c3565b50909750505093860193918601916001016145a1565b509398975050505050505050565b6000806040838503121561461657600080fd5b8235614621816140aa565b915060208301356001600160401b0381111561463c57600080fd5b614268858286016142f9565b60006020828403121561465a57600080fd5b81356001600160401b0381111561467057600080fd5b61096e84828501614295565b6000806040838503121561468f57600080fd5b823561469a816140aa565b915060208301356001600160401b038111156146b557600080fd5b61426885828601614295565b6000604082840312156146d357600080fd5b604051604081018181106001600160401b03821117156146f5576146f5614160565b6040528251614703816140aa565b81526020830151614713816140aa565b60208201529392505050565b60005b8381101561473a578181015183820152602001614722565b83811115610db95750506000910152565b6000815180845261476381602086016020860161471f565b601f01601f19169290920160200192915050565b602081526000611256602083018461474b565b8051801515811461479a57600080fd5b919050565b6000602082840312156147b157600080fd5b6112568261478a565b600082516147cc81846020870161471f565b9190910192915050565b6000602082840312156147e857600080fd5b8151611256816140aa565b6001600160a01b038316815260406020820181905260009061096e908301846143ee565b634e487b7160e01b600052603260045260246000fd5b6000602080838503121561484057600080fd5b82516001600160401b0381111561485657600080fd5b8301601f8101851361486757600080fd5b80516148756141ec82614272565b81815260059190911b8201830190838101908783111561489457600080fd5b928401925b82841015613f4f5783516148ac816140aa565b82529284019290840190614899565b634e487b7160e01b600052601160045260246000fd5b60006000198214156148e5576148e56148bb565b5060010190565b6000828210156148fe576148fe6148bb565b500390565b60006020828403121561491557600080fd5b5051919050565b600082601f83011261492d57600080fd5b8151602061493d6141ec83614272565b82815260059290921b8401810191818101908684111561495c57600080fd5b8286015b84811015613ce05780518352918301918301614960565b60006020828403121561498957600080fd5b81516001600160401b0381111561499f57600080fd5b61096e8482850161491c565b600082198211156149be576149be6148bb565b500190565b6001600160a01b03841681526060602082018190526000906149e790830185614514565b82810360408401526149f981856143ee565b9695505050505050565b600060208284031215614a1557600080fd5b604051602081016001600160401b038282108183111715614a3857614a38614160565b816040528293508451915080821115614a5057600080fd5b50614a5d8582860161491c565b8252505092915050565b600060208284031215614a7957600080fd5b81516001600160401b03811115614a8f57600080fd5b61096e84828501614a03565b60006080820160018060a01b038088168452602060808186015282885480855260a0870191508960005282600020945060005b81811015614aec578554851683526001958601959284019201614ace565b50508581036040870152614b0081896143ee565b93505050508281036060840152613f4f818561474b565b6000806040808486031215614b2b57600080fd5b614b348461478a565b92506020808501516001600160401b0380821115614b5157600080fd5b818701915087601f830112614b6557600080fd5b8151614b736141ec82614272565b81815260059190911b8301840190848101908a831115614b9257600080fd5b8585015b83811015614c0357805185811115614bae5760008081fd5b8601603f81018d13614bc05760008081fd5b87810151614bd06141ec826141a6565b8181528e8b838501011115614be55760008081fd5b614bf4828b83018d860161471f565b85525050918601918601614b96565b50809750505050505050509250929050565b600082614c3257634e487b7160e01b600052601260045260246000fd5b500490565b6000816000190483118215151615614c5157614c516148bb565b50029056fea264697066735822122087e05a9bd6e79e6c3bf3e7179487225ede3b50bb4b4044198810780bc65fa66964736f6c63430008090033",
  "linkReferences": {},
  "deployedLinkReferences": {}
}