{
  "_format": "hh-sol-artifact-1",
  "contractName": "DaiMockup",
  "sourceName": "contracts/mockups/DaiMockup.sol",
  "abi": [
    {
      "inputs": [
        {
          "internalType": "address",
          "name": "_address",
          "type": "address"
        },
        {
          "internalType": "uint256",
          "name": "_amount",
          "type": "uint256"
        }
      ],
      "name": "approve",
      "outputs": [
        {
          "internalType": "bool",
          "name": "",
          "type": "bool"
        }
      ],
      "stateMutability": "pure",
      "type": "function"
    },
    {
      "inputs": [
        {
          "internalType": "address",
          "name": "",
          "type": "address"
        },
        {
          "internalType": "address",
          "name": "",
          "type": "address"
        },
        {
          "internalType": "uint256",
          "name": "",
          "type": "uint256"
        }
      ],
      "name": "transferFrom",
      "outputs": [
        {
          "internalType": "bool",
          "name": "",
          "type": "bool"
        }
      ],
      "stateMutability": "pure",
      "type": "function"
    }
  ],
  "bytecode": "0x608060405234801561001057600080fd5b50610121806100206000396000f3fe6080604052348015600f57600080fd5b506004361060325760003560e01c8063095ea7b314603757806323b872dd14605e575b600080fd5b604a604236600460c4565b600192915050565b604051901515815260200160405180910390f35b604a6069366004608d565b60019392505050565b80356001600160a01b0381168114608857600080fd5b919050565b60008060006060848603121560a157600080fd5b60a8846072565b925060b4602085016072565b9150604084013590509250925092565b6000806040838503121560d657600080fd5b60dd836072565b94602093909301359350505056fea2646970667358221220bf7dce510d9c046307a3b1da5e78312aac23ced13b656aa108563e6a90f3aff964736f6c63430008070033",
  "linkReferences": {},
  "deployedLinkReferences": {}
}