{
  "_format": "hh-sol-artifact-1",
  "contractName": "UnlockUtilsMock",
  "sourceName": "contracts/mocks/UnlockUtilsMock.sol",
  "abi": [
    {
      "inputs": [
        {
          "internalType": "address",
          "name": "_addr",
          "type": "address"
        }
      ],
      "name": "address2Str",
      "outputs": [
        {
          "internalType": "string",
          "name": "",
          "type": "string"
        }
      ],
      "stateMutability": "pure",
      "type": "function"
    },
    {
      "inputs": [
        {
          "internalType": "string",
          "name": "_a",
          "type": "string"
        },
        {
          "internalType": "string",
          "name": "_b",
          "type": "string"
        },
        {
          "internalType": "string",
          "name": "_c",
          "type": "string"
        },
        {
          "internalType": "string",
          "name": "_d",
          "type": "string"
        }
      ],
      "name": "strConcat",
      "outputs": [
        {
          "internalType": "string",
          "name": "_concatenatedString",
          "type": "string"
        }
      ],
      "stateMutability": "pure",
      "type": "function"
    },
    {
      "inputs": [
        {
          "internalType": "uint256",
          "name": "_i",
          "type": "uint256"
        }
      ],
      "name": "uint2Str",
      "outputs": [
        {
          "internalType": "string",
          "name": "_uintAsString",
          "type": "string"
        }
      ],
      "stateMutability": "pure",
      "type": "function"
    }
  ],
  "bytecode": "0x608060405234801561001057600080fd5b506107e6806100206000396000f3fe608060405234801561001057600080fd5b50600436106100415760003560e01c806345e965cd146100465780634c7a12a01461006f5780635fdb97e114610082575b600080fd5b61005961005436600461055c565b610095565b6040516100669190610673565b60405180910390f35b61005961007d366004610604565b6100ac565b61005961009036600461052e565b6100bd565b60606100a3858585856100d1565b95945050505050565b60606100b782610103565b92915050565b60606100b7826001600160a01b031661024c565b6060848484846040516020016100ea949392919061061c565b6040516020818303038152906040529050949350505050565b6060818061012a5750506040805180820190915260018152600360fc1b6020820152919050565b8260005b8115610154578061013e81610769565b915061014d9050600a836106e3565b915061012e565b60008167ffffffffffffffff81111561017d57634e487b7160e01b600052604160045260246000fd5b6040519080825280601f01601f1916602001820160405280156101a7576020820181803683370190505b509050815b8415610242576101bd600182610722565b905060006101cc600a876106e3565b6101d790600a610703565b6101e19087610722565b6101ec9060306106be565b905060008160f81b90508084848151811061021757634e487b7160e01b600052603260045260246000fd5b60200101906001600160f81b031916908160001a905350610239600a886106e3565b965050506101ac565b5095945050505050565b604080518082018252601081526f181899199a1a9b1b9c1cb0b131b232b360811b60208201528151602a80825260608281019094526001600160a01b0385169291600091602082018180368337019050509050600360fc1b816000815181106102c557634e487b7160e01b600052603260045260246000fd5b60200101906001600160f81b031916908160001a905350600f60fb1b8160018151811061030257634e487b7160e01b600052603260045260246000fd5b60200101906001600160f81b031916908160001a90535060005b601481101561049e578260048561033484600c6106a6565b6020811061035257634e487b7160e01b600052603260045260246000fd5b1a60f81b6001600160f81b031916901c60f81c60ff168151811061038657634e487b7160e01b600052603260045260246000fd5b01602001516001600160f81b031916826103a1836002610703565b6103ac9060026106a6565b815181106103ca57634e487b7160e01b600052603260045260246000fd5b60200101906001600160f81b031916908160001a90535082846103ee83600c6106a6565b6020811061040c57634e487b7160e01b600052603260045260246000fd5b825191901a600f1690811061043157634e487b7160e01b600052603260045260246000fd5b01602001516001600160f81b0319168261044c836002610703565b6104579060036106a6565b8151811061047557634e487b7160e01b600052603260045260246000fd5b60200101906001600160f81b031916908160001a9053508061049681610769565b91505061031c565b50949350505050565b600082601f8301126104b7578081fd5b813567ffffffffffffffff808211156104d2576104d261079a565b604051601f8301601f19908116603f011681019082821181831017156104fa576104fa61079a565b81604052838152866020858801011115610512578485fd5b8360208701602083013792830160200193909352509392505050565b60006020828403121561053f578081fd5b81356001600160a01b0381168114610555578182fd5b9392505050565b60008060008060808587031215610571578283fd5b843567ffffffffffffffff80821115610588578485fd5b610594888389016104a7565b955060208701359150808211156105a9578485fd5b6105b5888389016104a7565b945060408701359150808211156105ca578384fd5b6105d6888389016104a7565b935060608701359150808211156105eb578283fd5b506105f8878288016104a7565b91505092959194509250565b600060208284031215610615578081fd5b5035919050565b6000855161062e818460208a01610739565b855190830190610642818360208a01610739565b8551910190610655818360208901610739565b8451910190610668818360208801610739565b019695505050505050565b6020815260008251806020840152610692816040850160208701610739565b601f01601f19169190910160400192915050565b600082198211156106b9576106b9610784565b500190565b600060ff821660ff84168060ff038211156106db576106db610784565b019392505050565b6000826106fe57634e487b7160e01b81526012600452602481fd5b500490565b600081600019048311821515161561071d5761071d610784565b500290565b60008282101561073457610734610784565b500390565b60005b8381101561075457818101518382015260200161073c565b83811115610763576000848401525b50505050565b600060001982141561077d5761077d610784565b5060010190565b634e487b7160e01b600052601160045260246000fd5b634e487b7160e01b600052604160045260246000fdfea2646970667358221220b71622312f796e6f8080a8cb3f78acf42892a70839bdadcb0ae3b42d304d7ee564736f6c63430008040033",
  "linkReferences": {},
  "deployedLinkReferences": {}
}