{
  "_format": "hh-sol-artifact-1",
  "contractName": "RCNftHubL1",
  "sourceName": "contracts/nfthubs/RCNftHubL1.sol",
  "abi": [
    {
      "inputs": [
        {
          "internalType": "address",
          "name": "_predicate",
          "type": "address"
        }
      ],
      "stateMutability": "nonpayable",
      "type": "constructor"
    },
    {
      "anonymous": false,
      "inputs": [
        {
          "indexed": true,
          "internalType": "address",
          "name": "owner",
          "type": "address"
        },
        {
          "indexed": true,
          "internalType": "address",
          "name": "approved",
          "type": "address"
        },
        {
          "indexed": true,
          "internalType": "uint256",
          "name": "tokenId",
          "type": "uint256"
        }
      ],
      "name": "Approval",
      "type": "event"
    },
    {
      "anonymous": false,
      "inputs": [
        {
          "indexed": true,
          "internalType": "address",
          "name": "owner",
          "type": "address"
        },
        {
          "indexed": true,
          "internalType": "address",
          "name": "operator",
          "type": "address"
        },
        {
          "indexed": false,
          "internalType": "bool",
          "name": "approved",
          "type": "bool"
        }
      ],
      "name": "ApprovalForAll",
      "type": "event"
    },
    {
      "anonymous": false,
      "inputs": [
        {
          "indexed": false,
          "internalType": "address",
          "name": "userAddress",
          "type": "address"
        },
        {
          "indexed": false,
          "internalType": "address",
          "name": "relayerAddress",
          "type": "address"
        },
        {
          "indexed": false,
          "internalType": "bytes",
          "name": "functionSignature",
          "type": "bytes"
        }
      ],
      "name": "MetaTransactionExecuted",
      "type": "event"
    },
    {
      "anonymous": false,
      "inputs": [
        {
          "indexed": true,
          "internalType": "bytes32",
          "name": "role",
          "type": "bytes32"
        },
        {
          "indexed": true,
          "internalType": "bytes32",
          "name": "previousAdminRole",
          "type": "bytes32"
        },
        {
          "indexed": true,
          "internalType": "bytes32",
          "name": "newAdminRole",
          "type": "bytes32"
        }
      ],
      "name": "RoleAdminChanged",
      "type": "event"
    },
    {
      "anonymous": false,
      "inputs": [
        {
          "indexed": true,
          "internalType": "bytes32",
          "name": "role",
          "type": "bytes32"
        },
        {
          "indexed": true,
          "internalType": "address",
          "name": "account",
          "type": "address"
        },
        {
          "indexed": true,
          "internalType": "address",
          "name": "sender",
          "type": "address"
        }
      ],
      "name": "RoleGranted",
      "type": "event"
    },
    {
      "anonymous": false,
      "inputs": [
        {
          "indexed": true,
          "internalType": "bytes32",
          "name": "role",
          "type": "bytes32"
        },
        {
          "indexed": true,
          "internalType": "address",
          "name": "account",
          "type": "address"
        },
        {
          "indexed": true,
          "internalType": "address",
          "name": "sender",
          "type": "address"
        }
      ],
      "name": "RoleRevoked",
      "type": "event"
    },
    {
      "anonymous": false,
      "inputs": [
        {
          "indexed": true,
          "internalType": "address",
          "name": "from",
          "type": "address"
        },
        {
          "indexed": true,
          "internalType": "address",
          "name": "to",
          "type": "address"
        },
        {
          "indexed": true,
          "internalType": "uint256",
          "name": "tokenId",
          "type": "uint256"
        }
      ],
      "name": "Transfer",
      "type": "event"
    },
    {
      "inputs": [],
      "name": "DEFAULT_ADMIN_ROLE",
      "outputs": [
        {
          "internalType": "bytes32",
          "name": "",
          "type": "bytes32"
        }
      ],
      "stateMutability": "view",
      "type": "function"
    },
    {
      "inputs": [],
      "name": "PREDICATE_ROLE",
      "outputs": [
        {
          "internalType": "bytes32",
          "name": "",
          "type": "bytes32"
        }
      ],
      "stateMutability": "view",
      "type": "function"
    },
    {
      "inputs": [
        {
          "internalType": "address",
          "name": "to",
          "type": "address"
        },
        {
          "internalType": "uint256",
          "name": "tokenId",
          "type": "uint256"
        }
      ],
      "name": "approve",
      "outputs": [],
      "stateMutability": "nonpayable",
      "type": "function"
    },
    {
      "inputs": [
        {
          "internalType": "address",
          "name": "owner",
          "type": "address"
        }
      ],
      "name": "balanceOf",
      "outputs": [
        {
          "internalType": "uint256",
          "name": "",
          "type": "uint256"
        }
      ],
      "stateMutability": "view",
      "type": "function"
    },
    {
      "inputs": [
        {
          "internalType": "address",
          "name": "userAddress",
          "type": "address"
        },
        {
          "internalType": "bytes",
          "name": "functionSignature",
          "type": "bytes"
        },
        {
          "internalType": "bytes32",
          "name": "sigR",
          "type": "bytes32"
        },
        {
          "internalType": "bytes32",
          "name": "sigS",
          "type": "bytes32"
        },
        {
          "internalType": "uint8",
          "name": "sigV",
          "type": "uint8"
        }
      ],
      "name": "executeMetaTransaction",
      "outputs": [
        {
          "internalType": "bytes",
          "name": "",
          "type": "bytes"
        }
      ],
      "stateMutability": "payable",
      "type": "function"
    },
    {
      "inputs": [
        {
          "internalType": "uint256",
          "name": "tokenId",
          "type": "uint256"
        }
      ],
      "name": "exists",
      "outputs": [
        {
          "internalType": "bool",
          "name": "",
          "type": "bool"
        }
      ],
      "stateMutability": "view",
      "type": "function"
    },
    {
      "inputs": [
        {
          "internalType": "uint256",
          "name": "tokenId",
          "type": "uint256"
        }
      ],
      "name": "getApproved",
      "outputs": [
        {
          "internalType": "address",
          "name": "",
          "type": "address"
        }
      ],
      "stateMutability": "view",
      "type": "function"
    },
    {
      "inputs": [],
      "name": "getChainId",
      "outputs": [
        {
          "internalType": "uint256",
          "name": "",
          "type": "uint256"
        }
      ],
      "stateMutability": "view",
      "type": "function"
    },
    {
      "inputs": [],
      "name": "getDomainSeperator",
      "outputs": [
        {
          "internalType": "bytes32",
          "name": "",
          "type": "bytes32"
        }
      ],
      "stateMutability": "view",
      "type": "function"
    },
    {
      "inputs": [
        {
          "internalType": "address",
          "name": "user",
          "type": "address"
        }
      ],
      "name": "getNonce",
      "outputs": [
        {
          "internalType": "uint256",
          "name": "nonce",
          "type": "uint256"
        }
      ],
      "stateMutability": "view",
      "type": "function"
    },
    {
      "inputs": [
        {
          "internalType": "bytes32",
          "name": "role",
          "type": "bytes32"
        }
      ],
      "name": "getRoleAdmin",
      "outputs": [
        {
          "internalType": "bytes32",
          "name": "",
          "type": "bytes32"
        }
      ],
      "stateMutability": "view",
      "type": "function"
    },
    {
      "inputs": [
        {
          "internalType": "bytes32",
          "name": "role",
          "type": "bytes32"
        },
        {
          "internalType": "address",
          "name": "account",
          "type": "address"
        }
      ],
      "name": "grantRole",
      "outputs": [],
      "stateMutability": "nonpayable",
      "type": "function"
    },
    {
      "inputs": [
        {
          "internalType": "bytes32",
          "name": "role",
          "type": "bytes32"
        },
        {
          "internalType": "address",
          "name": "account",
          "type": "address"
        }
      ],
      "name": "hasRole",
      "outputs": [
        {
          "internalType": "bool",
          "name": "",
          "type": "bool"
        }
      ],
      "stateMutability": "view",
      "type": "function"
    },
    {
      "inputs": [
        {
          "internalType": "address",
          "name": "owner",
          "type": "address"
        },
        {
          "internalType": "address",
          "name": "operator",
          "type": "address"
        }
      ],
      "name": "isApprovedForAll",
      "outputs": [
        {
          "internalType": "bool",
          "name": "",
          "type": "bool"
        }
      ],
      "stateMutability": "view",
      "type": "function"
    },
    {
      "inputs": [
        {
          "internalType": "address",
          "name": "user",
          "type": "address"
        },
        {
          "internalType": "uint256",
          "name": "tokenId",
          "type": "uint256"
        }
      ],
      "name": "mint",
      "outputs": [],
      "stateMutability": "nonpayable",
      "type": "function"
    },
    {
      "inputs": [
        {
          "internalType": "address",
          "name": "user",
          "type": "address"
        },
        {
          "internalType": "uint256",
          "name": "tokenId",
          "type": "uint256"
        },
        {
          "internalType": "bytes",
          "name": "metaData",
          "type": "bytes"
        }
      ],
      "name": "mint",
      "outputs": [],
      "stateMutability": "nonpayable",
      "type": "function"
    },
    {
      "inputs": [],
      "name": "name",
      "outputs": [
        {
          "internalType": "string",
          "name": "",
          "type": "string"
        }
      ],
      "stateMutability": "view",
      "type": "function"
    },
    {
      "inputs": [
        {
          "internalType": "uint256",
          "name": "tokenId",
          "type": "uint256"
        }
      ],
      "name": "ownerOf",
      "outputs": [
        {
          "internalType": "address",
          "name": "",
          "type": "address"
        }
      ],
      "stateMutability": "view",
      "type": "function"
    },
    {
      "inputs": [
        {
          "internalType": "bytes32",
          "name": "role",
          "type": "bytes32"
        },
        {
          "internalType": "address",
          "name": "account",
          "type": "address"
        }
      ],
      "name": "renounceRole",
      "outputs": [],
      "stateMutability": "nonpayable",
      "type": "function"
    },
    {
      "inputs": [
        {
          "internalType": "bytes32",
          "name": "role",
          "type": "bytes32"
        },
        {
          "internalType": "address",
          "name": "account",
          "type": "address"
        }
      ],
      "name": "revokeRole",
      "outputs": [],
      "stateMutability": "nonpayable",
      "type": "function"
    },
    {
      "inputs": [
        {
          "internalType": "address",
          "name": "from",
          "type": "address"
        },
        {
          "internalType": "address",
          "name": "to",
          "type": "address"
        },
        {
          "internalType": "uint256",
          "name": "tokenId",
          "type": "uint256"
        }
      ],
      "name": "safeTransferFrom",
      "outputs": [],
      "stateMutability": "nonpayable",
      "type": "function"
    },
    {
      "inputs": [
        {
          "internalType": "address",
          "name": "from",
          "type": "address"
        },
        {
          "internalType": "address",
          "name": "to",
          "type": "address"
        },
        {
          "internalType": "uint256",
          "name": "tokenId",
          "type": "uint256"
        },
        {
          "internalType": "bytes",
          "name": "_data",
          "type": "bytes"
        }
      ],
      "name": "safeTransferFrom",
      "outputs": [],
      "stateMutability": "nonpayable",
      "type": "function"
    },
    {
      "inputs": [
        {
          "internalType": "address",
          "name": "operator",
          "type": "address"
        },
        {
          "internalType": "bool",
          "name": "approved",
          "type": "bool"
        }
      ],
      "name": "setApprovalForAll",
      "outputs": [],
      "stateMutability": "nonpayable",
      "type": "function"
    },
    {
      "inputs": [
        {
          "internalType": "uint256",
          "name": "_tokenId",
          "type": "uint256"
        },
        {
          "internalType": "string",
          "name": "_tokenURI",
          "type": "string"
        }
      ],
      "name": "setTokenURI",
      "outputs": [],
      "stateMutability": "nonpayable",
      "type": "function"
    },
    {
      "inputs": [
        {
          "internalType": "bytes4",
          "name": "interfaceId",
          "type": "bytes4"
        }
      ],
      "name": "supportsInterface",
      "outputs": [
        {
          "internalType": "bool",
          "name": "",
          "type": "bool"
        }
      ],
      "stateMutability": "view",
      "type": "function"
    },
    {
      "inputs": [],
      "name": "symbol",
      "outputs": [
        {
          "internalType": "string",
          "name": "",
          "type": "string"
        }
      ],
      "stateMutability": "view",
      "type": "function"
    },
    {
      "inputs": [
        {
          "internalType": "uint256",
          "name": "tokenId",
          "type": "uint256"
        }
      ],
      "name": "tokenURI",
      "outputs": [
        {
          "internalType": "string",
          "name": "",
          "type": "string"
        }
      ],
      "stateMutability": "view",
      "type": "function"
    },
    {
      "inputs": [
        {
          "internalType": "address",
          "name": "from",
          "type": "address"
        },
        {
          "internalType": "address",
          "name": "to",
          "type": "address"
        },
        {
          "internalType": "uint256",
          "name": "tokenId",
          "type": "uint256"
        }
      ],
      "name": "transferFrom",
      "outputs": [],
      "stateMutability": "nonpayable",
      "type": "function"
    }
  ],
  "bytecode": "0x60806040523480156200001157600080fd5b5060405162002ca138038062002ca1833981016040819052620000349162000423565b604080518082018252600c81526b5265616c697479436172647360a01b602080830191825283518085019094526002845261524360f01b90840152815191929162000082916000916200037d565b508051620000989060019060208401906200037d565b505050620000fb6040518060400160405280601481526020017f5265616c69747943617264734e66744875624c31000000000000000000000000815250604051806040016040528060018152602001603160f81b8152506200013b60201b60201c565b6200010860003362000234565b620001347f12ff340d0cd9c652c747ca35727e68c547d0f0bfa7758d2e77f75acef481b4f28262000234565b5062000492565b600854610100900460ff168062000155575060085460ff16155b620001bd5760405162461bcd60e51b815260206004820152602e60248201527f496e697469616c697a61626c653a20636f6e747261637420697320616c72656160448201526d191e481a5b9a5d1a585b1a5e995960921b606482015260840160405180910390fd5b600854610100900460ff16158015620001e0576008805461ffff19166101011790555b46600a558251620001f990600b9060208601906200037d565b5081516200020f90600c9060208501906200037d565b506200021c838362000248565b80156200022f576008805461ff00191690555b505050565b620002408282620002d9565b5050565b4690565b6040518060800160405280604f815260200162002c52604f91398051906020012082805190602001208280519060200120306200028a6200024460201b60201c565b60408051602081019690965285019390935260608401919091526001600160a01b0316608083015260a082015260c00160408051601f1981840301815291905280516020909101206009555050565b60008281526007602090815260408083206001600160a01b038516845290915290205460ff16620002405760008281526007602090815260408083206001600160a01b03851684529091529020805460ff19166001179055620003393390565b6001600160a01b0316816001600160a01b0316837f2f8788117e7eff1d82e926ec794901d17c78024a50270940304540a733656f0d60405160405180910390a45050565b8280546200038b9062000455565b90600052602060002090601f016020900481019282620003af5760008555620003fa565b82601f10620003ca57805160ff1916838001178555620003fa565b82800160010185558215620003fa579182015b82811115620003fa578251825591602001919060010190620003dd565b50620004089291506200040c565b5090565b5b808211156200040857600081556001016200040d565b6000602082840312156200043657600080fd5b81516001600160a01b03811681146200044e57600080fd5b9392505050565b600181811c908216806200046a57607f821691505b602082108114156200048c57634e487b7160e01b600052602260045260246000fd5b50919050565b6127b080620004a26000396000f3fe6080604052600436106101b75760003560e01c806342842e0e116100ec578063a217fddf1161008a578063c87b56dd11610064578063c87b56dd146104e6578063d547741f14610506578063e72db5fd14610526578063e985e9c51461055a57600080fd5b8063a217fddf14610491578063a22cb465146104a6578063b88d4fde146104c657600080fd5b806370a08231116100c657806370a082311461041c57806391d148541461043c57806394d008ef1461045c57806395d89b411461047c57600080fd5b806342842e0e146103bc5780634f558e79146103dc5780636352211e146103fc57600080fd5b806323b872dd116101595780632f2ff15d116101335780632f2ff15d146103495780633408e4701461036957806336568abe1461037c57806340c10f191461039c57600080fd5b806323b872dd146102c3578063248a9ca3146102e35780632d0335ab1461031357600080fd5b8063095ea7b311610195578063095ea7b31461024b5780630c53c51c1461026d578063162094c41461028057806320379ee5146102a057600080fd5b806301ffc9a7146101bc57806306fdde03146101f1578063081812fc14610213575b600080fd5b3480156101c857600080fd5b506101dc6101d7366004612134565b6105a3565b60405190151581526020015b60405180910390f35b3480156101fd57600080fd5b506102066105ce565b6040516101e89190612459565b34801561021f57600080fd5b5061023361022e3660046120f8565b610660565b6040516001600160a01b0390911681526020016101e8565b34801561025757600080fd5b5061026b610266366004612074565b6106ed565b005b61020661027b366004611ff8565b610803565b34801561028c57600080fd5b5061026b61029b3660046121e5565b6109ed565b3480156102ac57600080fd5b506102b5610a3f565b6040519081526020016101e8565b3480156102cf57600080fd5b5061026b6102de366004611f18565b610af9565b3480156102ef57600080fd5b506102b56102fe3660046120f8565b60009081526007602052604090206001015490565b34801561031f57600080fd5b506102b561032e366004611eca565b6001600160a01b03166000908152600d602052604090205490565b34801561035557600080fd5b5061026b610364366004612111565b610b2a565b34801561037557600080fd5b50466102b5565b34801561038857600080fd5b5061026b610397366004612111565b610b50565b3480156103a857600080fd5b5061026b6103b7366004612074565b610bce565b3480156103c857600080fd5b5061026b6103d7366004611f18565b610c03565b3480156103e857600080fd5b506101dc6103f73660046120f8565b610c1e565b34801561040857600080fd5b506102336104173660046120f8565b610c29565b34801561042857600080fd5b506102b5610437366004611eca565b610ca0565b34801561044857600080fd5b506101dc610457366004612111565b610d27565b34801561046857600080fd5b5061026b61047736600461209e565b610d52565b34801561048857600080fd5b50610206610dce565b34801561049d57600080fd5b506102b5600081565b3480156104b257600080fd5b5061026b6104c1366004611fbc565b610ddd565b3480156104d257600080fd5b5061026b6104e1366004611f54565b610ea2565b3480156104f257600080fd5b506102066105013660046120f8565b610ed4565b34801561051257600080fd5b5061026b610521366004612111565b61104b565b34801561053257600080fd5b506102b57f12ff340d0cd9c652c747ca35727e68c547d0f0bfa7758d2e77f75acef481b4f281565b34801561056657600080fd5b506101dc610575366004611ee5565b6001600160a01b03918216600090815260056020908152604080832093909416825291909152205460ff1690565b60006001600160e01b03198216639b44898f60e01b14806105c857506105c882611071565b92915050565b6060600080546105dd9061260d565b80601f01602080910402602001604051908101604052809291908181526020018280546106099061260d565b80156106565780601f1061062b57610100808354040283529160200191610656565b820191906000526020600020905b81548152906001019060200180831161063957829003601f168201915b5050505050905090565b600061066b82611096565b6106d15760405162461bcd60e51b815260206004820152602c60248201527f4552433732313a20617070726f76656420717565727920666f72206e6f6e657860448201526b34b9ba32b73a103a37b5b2b760a11b60648201526084015b60405180910390fd5b506000908152600460205260409020546001600160a01b031690565b60006106f882610c29565b9050806001600160a01b0316836001600160a01b031614156107665760405162461bcd60e51b815260206004820152602160248201527f4552433732313a20617070726f76616c20746f2063757272656e74206f776e656044820152603960f91b60648201526084016106c8565b336001600160a01b038216148061078257506107828133610575565b6107f45760405162461bcd60e51b815260206004820152603860248201527f4552433732313a20617070726f76652063616c6c6572206973206e6f74206f7760448201527f6e6572206e6f7220617070726f76656420666f7220616c6c000000000000000060648201526084016106c8565b6107fe83836110b3565b505050565b60408051606081810183526001600160a01b0388166000818152600d6020908152908590205484528301529181018690526108418782878787611121565b6108975760405162461bcd60e51b815260206004820152602160248201527f5369676e657220616e64207369676e617475726520646f206e6f74206d6174636044820152600d60fb1b60648201526084016106c8565b6001600160a01b0387166000908152600d60205260409020546108bb906001612568565b6001600160a01b0388166000908152600d60205260409081902091909155517f5845892132946850460bff5a0083f71031bc5bf9aadcd40f1de79423eac9b10b9061090b90899033908a906123f0565b60405180910390a1600080306001600160a01b0316888a604051602001610933929190612279565b60408051601f198184030181529082905261094d9161225d565b6000604051808303816000865af19150503d806000811461098a576040519150601f19603f3d011682016040523d82523d6000602084013e61098f565b606091505b5091509150816109e15760405162461bcd60e51b815260206004820152601c60248201527f46756e6374696f6e2063616c6c206e6f74207375636365737366756c0000000060448201526064016106c8565b98975050505050505050565b60006109f98133611211565b610a398484848080601f01602080910402602001604051908101604052809392919081815260200183838082843760009201919091525061127592505050565b50505050565b6000600a54610a4b4690565b1415610a58575060095490565b6040518060800160405280604f815260200161272c604f913980519060200120600b604051610a8791906122b0565b6040518091039020600c604051610a9e91906122b0565b604051809103902030610aae4690565b60408051602081019690965285019390935260608401919091526001600160a01b0316608083015260a082015260c00160405160208183030381529060405280519060200120905090565b610b033382611300565b610b1f5760405162461bcd60e51b81526004016106c8906124be565b6107fe8383836113e6565b600082815260076020526040902060010154610b468133611211565b6107fe8383611586565b6001600160a01b0381163314610bc05760405162461bcd60e51b815260206004820152602f60248201527f416363657373436f6e74726f6c3a2063616e206f6e6c792072656e6f756e636560448201526e103937b632b9903337b91039b2b63360891b60648201526084016106c8565b610bca828261160c565b5050565b7f12ff340d0cd9c652c747ca35727e68c547d0f0bfa7758d2e77f75acef481b4f2610bf98133611211565b6107fe8383611673565b6107fe83838360405180602001604052806000815250610ea2565b60006105c882611096565b6000818152600260205260408120546001600160a01b0316806105c85760405162461bcd60e51b815260206004820152602960248201527f4552433732313a206f776e657220717565727920666f72206e6f6e657869737460448201526832b73a103a37b5b2b760b91b60648201526084016106c8565b60006001600160a01b038216610d0b5760405162461bcd60e51b815260206004820152602a60248201527f4552433732313a2062616c616e636520717565727920666f7220746865207a65604482015269726f206164647265737360b01b60648201526084016106c8565b506001600160a01b031660009081526003602052604090205490565b60009182526007602090815260408084206001600160a01b0393909316845291905290205460ff1690565b7f12ff340d0cd9c652c747ca35727e68c547d0f0bfa7758d2e77f75acef481b4f2610d7d8133611211565b610d878585611673565b610dc78484848080601f0160208091040260200160405190810160405280939291908181526020018383808284376000920191909152506117a692505050565b5050505050565b6060600180546105dd9061260d565b6001600160a01b038216331415610e365760405162461bcd60e51b815260206004820152601960248201527f4552433732313a20617070726f766520746f2063616c6c65720000000000000060448201526064016106c8565b3360008181526005602090815260408083206001600160a01b03871680855290835292819020805460ff191686151590811790915590519081529192917f17307eab39ab6107e8899845ad3d59bd9653f200f220920489ca2b5937696c31910160405180910390a35050565b610eac3383611300565b610ec85760405162461bcd60e51b81526004016106c8906124be565b610a39848484846117c8565b6060610edf82611096565b610f455760405162461bcd60e51b815260206004820152603160248201527f45524337323155524953746f726167653a2055524920717565727920666f72206044820152703737b732bc34b9ba32b73a103a37b5b2b760791b60648201526084016106c8565b60008281526006602052604081208054610f5e9061260d565b80601f0160208091040260200160405190810160405280929190818152602001828054610f8a9061260d565b8015610fd75780601f10610fac57610100808354040283529160200191610fd7565b820191906000526020600020905b815481529060010190602001808311610fba57829003601f168201915b505050505090506000610ff560408051602081019091526000815290565b9050805160001415611008575092915050565b81511561103a57808260405160200161102292919061234c565b60405160208183030381529060405292505050919050565b611043846117fb565b949350505050565b6000828152600760205260409020600101546110678133611211565b6107fe838361160c565b60006001600160e01b03198216637965db0b60e01b14806105c857506105c8826118d3565b6000908152600260205260409020546001600160a01b0316151590565b600081815260046020526040902080546001600160a01b0319166001600160a01b03841690811790915581906110e882610c29565b6001600160a01b03167f8c5be1e5ebec7d5bd14f71427d1e84f3dd0314c0f7b2291e5b200ac8c7c3b92560405160405180910390a45050565b60006001600160a01b0386166111875760405162461bcd60e51b815260206004820152602560248201527f4e61746976654d6574615472616e73616374696f6e3a20494e56414c49445f5360448201526424a3a722a960d91b60648201526084016106c8565b600161119a61119587611923565b6119a0565b6040805160008152602081018083529290925260ff851690820152606081018690526080810185905260a0016020604051602081039080840390855afa1580156111e8573d6000803e3d6000fd5b505050602060405103516001600160a01b0316866001600160a01b031614905095945050505050565b61121b8282610d27565b610bca57611233816001600160a01b031660146119cf565b61123e8360206119cf565b60405160200161124f92919061237b565b60408051601f198184030181529082905262461bcd60e51b82526106c891600401612459565b61127e82611096565b6112e15760405162461bcd60e51b815260206004820152602e60248201527f45524337323155524953746f726167653a2055524920736574206f66206e6f6e60448201526d32bc34b9ba32b73a103a37b5b2b760911b60648201526084016106c8565b600082815260066020908152604090912082516107fe92840190611d76565b600061130b82611096565b61136c5760405162461bcd60e51b815260206004820152602c60248201527f4552433732313a206f70657261746f7220717565727920666f72206e6f6e657860448201526b34b9ba32b73a103a37b5b2b760a11b60648201526084016106c8565b600061137783610c29565b9050806001600160a01b0316846001600160a01b031614806113b25750836001600160a01b03166113a784610660565b6001600160a01b0316145b8061104357506001600160a01b0380821660009081526005602090815260408083209388168352929052205460ff16611043565b826001600160a01b03166113f982610c29565b6001600160a01b0316146114615760405162461bcd60e51b815260206004820152602960248201527f4552433732313a207472616e73666572206f6620746f6b656e2074686174206960448201526839903737ba1037bbb760b91b60648201526084016106c8565b6001600160a01b0382166114c35760405162461bcd60e51b8152602060048201526024808201527f4552433732313a207472616e7366657220746f20746865207a65726f206164646044820152637265737360e01b60648201526084016106c8565b6114ce6000826110b3565b6001600160a01b03831660009081526003602052604081208054600192906114f79084906125b3565b90915550506001600160a01b0382166000908152600360205260408120805460019290611525908490612568565b909155505060008181526002602052604080822080546001600160a01b0319166001600160a01b0386811691821790925591518493918716917fddf252ad1be2c89b69c2b068fc378daa952ba7f163c4a11628f55a4df523b3ef91a4505050565b6115908282610d27565b610bca5760008281526007602090815260408083206001600160a01b03851684529091529020805460ff191660011790556115c83390565b6001600160a01b0316816001600160a01b0316837f2f8788117e7eff1d82e926ec794901d17c78024a50270940304540a733656f0d60405160405180910390a45050565b6116168282610d27565b15610bca5760008281526007602090815260408083206001600160a01b0385168085529252808320805460ff1916905551339285917ff6391f5c32d9c69d2a47ea670b442974b53935d1edc7fd64eb21e047a839171b9190a45050565b6001600160a01b0382166116c95760405162461bcd60e51b815260206004820181905260248201527f4552433732313a206d696e7420746f20746865207a65726f206164647265737360448201526064016106c8565b6116d281611096565b1561171f5760405162461bcd60e51b815260206004820152601c60248201527f4552433732313a20746f6b656e20616c7265616479206d696e7465640000000060448201526064016106c8565b6001600160a01b0382166000908152600360205260408120805460019290611748908490612568565b909155505060008181526002602052604080822080546001600160a01b0319166001600160a01b03861690811790915590518392907fddf252ad1be2c89b69c2b068fc378daa952ba7f163c4a11628f55a4df523b3ef908290a45050565b6000818060200190518101906117bc919061216e565b90506107fe8382611275565b6117d38484846113e6565b6117df84848484611b6b565b610a395760405162461bcd60e51b81526004016106c89061246c565b606061180682611096565b61186a5760405162461bcd60e51b815260206004820152602f60248201527f4552433732314d657461646174613a2055524920717565727920666f72206e6f60448201526e3732bc34b9ba32b73a103a37b5b2b760891b60648201526084016106c8565b600061188160408051602081019091526000815290565b905060008151116118a157604051806020016040528060008152506118cc565b806118ab84611c78565b6040516020016118bc92919061234c565b6040516020818303038152906040525b9392505050565b60006001600160e01b031982166380ac58cd60e01b148061190457506001600160e01b03198216635b5e139f60e01b145b806105c857506301ffc9a760e01b6001600160e01b03198316146105c8565b60006040518060800160405280604381526020016126e96043913980516020918201208351848301516040808701518051908601209051611983950193845260208401929092526001600160a01b03166040830152606082015260800190565b604051602081830303815290604052805190602001209050919050565b60006119aa610a3f565b60405161190160f01b6020820152602281019190915260428101839052606201611983565b606060006119de836002612594565b6119e9906002612568565b67ffffffffffffffff811115611a0157611a016126b9565b6040519080825280601f01601f191660200182016040528015611a2b576020820181803683370190505b509050600360fc1b81600081518110611a4657611a466126a3565b60200101906001600160f81b031916908160001a905350600f60fb1b81600181518110611a7557611a756126a3565b60200101906001600160f81b031916908160001a9053506000611a99846002612594565b611aa4906001612568565b90505b6001811115611b1c576f181899199a1a9b1b9c1cb0b131b232b360811b85600f1660108110611ad857611ad86126a3565b1a60f81b828281518110611aee57611aee6126a3565b60200101906001600160f81b031916908160001a90535060049490941c93611b15816125f6565b9050611aa7565b5083156118cc5760405162461bcd60e51b815260206004820181905260248201527f537472696e67733a20686578206c656e67746820696e73756666696369656e7460448201526064016106c8565b60006001600160a01b0384163b15611c6d57604051630a85bd0160e11b81526001600160a01b0385169063150b7a0290611baf90339089908890889060040161241c565b602060405180830381600087803b158015611bc957600080fd5b505af1925050508015611bf9575060408051601f3d908101601f19168201909252611bf691810190612151565b60015b611c53573d808015611c27576040519150601f19603f3d011682016040523d82523d6000602084013e611c2c565b606091505b508051611c4b5760405162461bcd60e51b81526004016106c89061246c565b805181602001fd5b6001600160e01b031916630a85bd0160e11b149050611043565b506001949350505050565b606081611c9c5750506040805180820190915260018152600360fc1b602082015290565b8160005b8115611cc65780611cb081612648565b9150611cbf9050600a83612580565b9150611ca0565b60008167ffffffffffffffff811115611ce157611ce16126b9565b6040519080825280601f01601f191660200182016040528015611d0b576020820181803683370190505b5090505b841561104357611d206001836125b3565b9150611d2d600a86612663565b611d38906030612568565b60f81b818381518110611d4d57611d4d6126a3565b60200101906001600160f81b031916908160001a905350611d6f600a86612580565b9450611d0f565b828054611d829061260d565b90600052602060002090601f016020900481019282611da45760008555611dea565b82601f10611dbd57805160ff1916838001178555611dea565b82800160010185558215611dea579182015b82811115611dea578251825591602001919060010190611dcf565b50611df6929150611dfa565b5090565b5b80821115611df65760008155600101611dfb565b80356001600160a01b0381168114611e2657600080fd5b919050565b60008083601f840112611e3d57600080fd5b50813567ffffffffffffffff811115611e5557600080fd5b602083019150836020828501011115611e6d57600080fd5b9250929050565b600082601f830112611e8557600080fd5b8135611e98611e9382612540565b61250f565b818152846020838601011115611ead57600080fd5b816020850160208301376000918101602001919091529392505050565b600060208284031215611edc57600080fd5b6118cc82611e0f565b60008060408385031215611ef857600080fd5b611f0183611e0f565b9150611f0f60208401611e0f565b90509250929050565b600080600060608486031215611f2d57600080fd5b611f3684611e0f565b9250611f4460208501611e0f565b9150604084013590509250925092565b60008060008060808587031215611f6a57600080fd5b611f7385611e0f565b9350611f8160208601611e0f565b925060408501359150606085013567ffffffffffffffff811115611fa457600080fd5b611fb087828801611e74565b91505092959194509250565b60008060408385031215611fcf57600080fd5b611fd883611e0f565b915060208301358015158114611fed57600080fd5b809150509250929050565b600080600080600060a0868803121561201057600080fd5b61201986611e0f565b9450602086013567ffffffffffffffff81111561203557600080fd5b61204188828901611e74565b9450506040860135925060608601359150608086013560ff8116811461206657600080fd5b809150509295509295909350565b6000806040838503121561208757600080fd5b61209083611e0f565b946020939093013593505050565b600080600080606085870312156120b457600080fd5b6120bd85611e0f565b935060208501359250604085013567ffffffffffffffff8111156120e057600080fd5b6120ec87828801611e2b565b95989497509550505050565b60006020828403121561210a57600080fd5b5035919050565b6000806040838503121561212457600080fd5b82359150611f0f60208401611e0f565b60006020828403121561214657600080fd5b81356118cc816126cf565b60006020828403121561216357600080fd5b81516118cc816126cf565b60006020828403121561218057600080fd5b815167ffffffffffffffff81111561219757600080fd5b8201601f810184136121a857600080fd5b80516121b6611e9382612540565b8181528560208385010111156121cb57600080fd5b6121dc8260208301602086016125ca565b95945050505050565b6000806000604084860312156121fa57600080fd5b83359250602084013567ffffffffffffffff81111561221857600080fd5b61222486828701611e2b565b9497909650939450505050565b600081518084526122498160208601602086016125ca565b601f01601f19169290920160200192915050565b6000825161226f8184602087016125ca565b9190910192915050565b6000835161228b8184602088016125ca565b60609390931b6bffffffffffffffffffffffff19169190920190815260140192915050565b600080835481600182811c9150808316806122cc57607f831692505b60208084108214156122ec57634e487b7160e01b86526022600452602486fd5b81801561230057600181146123115761233e565b60ff1986168952848901965061233e565b60008a81526020902060005b868110156123365781548b82015290850190830161231d565b505084890196505b509498975050505050505050565b6000835161235e8184602088016125ca565b8351908301906123728183602088016125ca565b01949350505050565b7f416363657373436f6e74726f6c3a206163636f756e74200000000000000000008152600083516123b38160178501602088016125ca565b7001034b99036b4b9b9b4b733903937b6329607d1b60179184019182015283516123e48160288401602088016125ca565b01602801949350505050565b6001600160a01b038481168252831660208201526060604082018190526000906121dc90830184612231565b6001600160a01b038581168252841660208201526040810183905260806060820181905260009061244f90830184612231565b9695505050505050565b6020815260006118cc6020830184612231565b60208082526032908201527f4552433732313a207472616e7366657220746f206e6f6e20455243373231526560408201527131b2b4bb32b91034b6b83632b6b2b73a32b960711b606082015260800190565b60208082526031908201527f4552433732313a207472616e736665722063616c6c6572206973206e6f74206f6040820152701ddb995c881b9bdc88185c1c1c9bdd9959607a1b606082015260800190565b604051601f8201601f1916810167ffffffffffffffff81118282101715612538576125386126b9565b604052919050565b600067ffffffffffffffff82111561255a5761255a6126b9565b50601f01601f191660200190565b6000821982111561257b5761257b612677565b500190565b60008261258f5761258f61268d565b500490565b60008160001904831182151516156125ae576125ae612677565b500290565b6000828210156125c5576125c5612677565b500390565b60005b838110156125e55781810151838201526020016125cd565b83811115610a395750506000910152565b60008161260557612605612677565b506000190190565b600181811c9082168061262157607f821691505b6020821081141561264257634e487b7160e01b600052602260045260246000fd5b50919050565b600060001982141561265c5761265c612677565b5060010190565b6000826126725761267261268d565b500690565b634e487b7160e01b600052601160045260246000fd5b634e487b7160e01b600052601260045260246000fd5b634e487b7160e01b600052603260045260246000fd5b634e487b7160e01b600052604160045260246000fd5b6001600160e01b0319811681146126e557600080fd5b5056fe4d6574615472616e73616374696f6e2875696e74323536206e6f6e63652c616464726573732066726f6d2c62797465732066756e6374696f6e5369676e617475726529454950373132446f6d61696e28737472696e67206e616d652c737472696e672076657273696f6e2c6164647265737320766572696679696e67436f6e74726163742c627974657333322073616c7429a2646970667358221220430d91e9d9b9978779b44ba51173a6cbba9f92e40a8996dcc1512869a5d84d3264736f6c63430008070033454950373132446f6d61696e28737472696e67206e616d652c737472696e672076657273696f6e2c6164647265737320766572696679696e67436f6e74726163742c627974657333322073616c7429",
  "linkReferences": {},
  "deployedLinkReferences": {}
}