{
  "_format": "hh-sol-artifact-1",
  "contractName": "AaveVaultGovernanceTest",
  "sourceName": "contracts/test/AaveVaultGovernanceTest.sol",
  "abi": [
    {
      "inputs": [
        {
          "components": [
            {
              "internalType": "contract IProtocolGovernance",
              "name": "protocolGovernance",
              "type": "address"
            },
            {
              "internalType": "contract IVaultRegistry",
              "name": "registry",
              "type": "address"
            }
          ],
          "internalType": "struct IVaultGovernance.InternalParams",
          "name": "internalParams_",
          "type": "tuple"
        },
        {
          "components": [
            {
              "internalType": "contract ILendingPool",
              "name": "lendingPool",
              "type": "address"
            }
          ],
          "internalType": "struct IAaveVaultGovernance.DelayedProtocolParams",
          "name": "delayedProtocolParams_",
          "type": "tuple"
        }
      ],
      "stateMutability": "nonpayable",
      "type": "constructor"
    },
    {
      "anonymous": false,
      "inputs": [
        {
          "indexed": true,
          "internalType": "address",
          "name": "origin",
          "type": "address"
        },
        {
          "indexed": true,
          "internalType": "address",
          "name": "sender",
          "type": "address"
        },
        {
          "components": [
            {
              "internalType": "contract ILendingPool",
              "name": "lendingPool",
              "type": "address"
            }
          ],
          "indexed": false,
          "internalType": "struct IAaveVaultGovernance.DelayedProtocolParams",
          "name": "params",
          "type": "tuple"
        }
      ],
      "name": "CommitDelayedProtocolParams",
      "type": "event"
    },
    {
      "anonymous": false,
      "inputs": [
        {
          "indexed": true,
          "internalType": "address",
          "name": "origin",
          "type": "address"
        },
        {
          "indexed": true,
          "internalType": "address",
          "name": "sender",
          "type": "address"
        },
        {
          "components": [
            {
              "internalType": "contract IProtocolGovernance",
              "name": "protocolGovernance",
              "type": "address"
            },
            {
              "internalType": "contract IVaultRegistry",
              "name": "registry",
              "type": "address"
            }
          ],
          "indexed": false,
          "internalType": "struct IVaultGovernance.InternalParams",
          "name": "params",
          "type": "tuple"
        }
      ],
      "name": "CommitedInternalParams",
      "type": "event"
    },
    {
      "anonymous": false,
      "inputs": [
        {
          "indexed": true,
          "internalType": "address",
          "name": "origin",
          "type": "address"
        },
        {
          "indexed": true,
          "internalType": "address",
          "name": "sender",
          "type": "address"
        },
        {
          "indexed": false,
          "internalType": "address[]",
          "name": "vaultTokens",
          "type": "address[]"
        },
        {
          "indexed": false,
          "internalType": "bytes",
          "name": "options",
          "type": "bytes"
        },
        {
          "indexed": false,
          "internalType": "address",
          "name": "owner",
          "type": "address"
        },
        {
          "indexed": false,
          "internalType": "address",
          "name": "vaultAddress",
          "type": "address"
        },
        {
          "indexed": false,
          "internalType": "uint256",
          "name": "vaultNft",
          "type": "uint256"
        }
      ],
      "name": "DeployedVault",
      "type": "event"
    },
    {
      "anonymous": false,
      "inputs": [
        {
          "indexed": true,
          "internalType": "address",
          "name": "origin",
          "type": "address"
        },
        {
          "indexed": true,
          "internalType": "address",
          "name": "sender",
          "type": "address"
        },
        {
          "components": [
            {
              "internalType": "contract ILendingPool",
              "name": "lendingPool",
              "type": "address"
            }
          ],
          "indexed": false,
          "internalType": "struct IAaveVaultGovernance.DelayedProtocolParams",
          "name": "params",
          "type": "tuple"
        },
        {
          "indexed": false,
          "internalType": "uint256",
          "name": "when",
          "type": "uint256"
        }
      ],
      "name": "StageDelayedProtocolParams",
      "type": "event"
    },
    {
      "anonymous": false,
      "inputs": [
        {
          "indexed": true,
          "internalType": "address",
          "name": "origin",
          "type": "address"
        },
        {
          "indexed": true,
          "internalType": "address",
          "name": "sender",
          "type": "address"
        },
        {
          "components": [
            {
              "internalType": "contract IProtocolGovernance",
              "name": "protocolGovernance",
              "type": "address"
            },
            {
              "internalType": "contract IVaultRegistry",
              "name": "registry",
              "type": "address"
            }
          ],
          "indexed": false,
          "internalType": "struct IVaultGovernance.InternalParams",
          "name": "params",
          "type": "tuple"
        },
        {
          "indexed": false,
          "internalType": "uint256",
          "name": "when",
          "type": "uint256"
        }
      ],
      "name": "StagedInternalParams",
      "type": "event"
    },
    {
      "inputs": [],
      "name": "commitDelayedProtocolParams",
      "outputs": [],
      "stateMutability": "nonpayable",
      "type": "function"
    },
    {
      "inputs": [],
      "name": "commitInternalParams",
      "outputs": [],
      "stateMutability": "nonpayable",
      "type": "function"
    },
    {
      "inputs": [],
      "name": "delayedProtocolParams",
      "outputs": [
        {
          "components": [
            {
              "internalType": "contract ILendingPool",
              "name": "lendingPool",
              "type": "address"
            }
          ],
          "internalType": "struct IAaveVaultGovernance.DelayedProtocolParams",
          "name": "",
          "type": "tuple"
        }
      ],
      "stateMutability": "view",
      "type": "function"
    },
    {
      "inputs": [],
      "name": "delayedProtocolParamsTimestamp",
      "outputs": [
        {
          "internalType": "uint256",
          "name": "",
          "type": "uint256"
        }
      ],
      "stateMutability": "view",
      "type": "function"
    },
    {
      "inputs": [
        {
          "internalType": "uint256",
          "name": "nft",
          "type": "uint256"
        }
      ],
      "name": "delayedProtocolPerVaultParamsTimestamp",
      "outputs": [
        {
          "internalType": "uint256",
          "name": "",
          "type": "uint256"
        }
      ],
      "stateMutability": "view",
      "type": "function"
    },
    {
      "inputs": [
        {
          "internalType": "uint256",
          "name": "nft",
          "type": "uint256"
        }
      ],
      "name": "delayedStrategyParamsTimestamp",
      "outputs": [
        {
          "internalType": "uint256",
          "name": "",
          "type": "uint256"
        }
      ],
      "stateMutability": "view",
      "type": "function"
    },
    {
      "inputs": [
        {
          "internalType": "address[]",
          "name": "vaultTokens",
          "type": "address[]"
        },
        {
          "internalType": "bytes",
          "name": "options",
          "type": "bytes"
        },
        {
          "internalType": "address",
          "name": "owner",
          "type": "address"
        }
      ],
      "name": "deployVault",
      "outputs": [
        {
          "internalType": "contract IVault",
          "name": "vault",
          "type": "address"
        },
        {
          "internalType": "uint256",
          "name": "nft",
          "type": "uint256"
        }
      ],
      "stateMutability": "nonpayable",
      "type": "function"
    },
    {
      "inputs": [],
      "name": "factory",
      "outputs": [
        {
          "internalType": "contract IVaultFactory",
          "name": "",
          "type": "address"
        }
      ],
      "stateMutability": "view",
      "type": "function"
    },
    {
      "inputs": [
        {
          "internalType": "contract IVaultFactory",
          "name": "factory_",
          "type": "address"
        }
      ],
      "name": "initialize",
      "outputs": [],
      "stateMutability": "nonpayable",
      "type": "function"
    },
    {
      "inputs": [],
      "name": "initialized",
      "outputs": [
        {
          "internalType": "bool",
          "name": "",
          "type": "bool"
        }
      ],
      "stateMutability": "view",
      "type": "function"
    },
    {
      "inputs": [],
      "name": "internalParams",
      "outputs": [
        {
          "components": [
            {
              "internalType": "contract IProtocolGovernance",
              "name": "protocolGovernance",
              "type": "address"
            },
            {
              "internalType": "contract IVaultRegistry",
              "name": "registry",
              "type": "address"
            }
          ],
          "internalType": "struct IVaultGovernance.InternalParams",
          "name": "",
          "type": "tuple"
        }
      ],
      "stateMutability": "view",
      "type": "function"
    },
    {
      "inputs": [],
      "name": "internalParamsTimestamp",
      "outputs": [
        {
          "internalType": "uint256",
          "name": "",
          "type": "uint256"
        }
      ],
      "stateMutability": "view",
      "type": "function"
    },
    {
      "inputs": [
        {
          "components": [
            {
              "internalType": "contract ILendingPool",
              "name": "lendingPool",
              "type": "address"
            }
          ],
          "internalType": "struct IAaveVaultGovernance.DelayedProtocolParams",
          "name": "params",
          "type": "tuple"
        }
      ],
      "name": "stageDelayedProtocolParams",
      "outputs": [],
      "stateMutability": "nonpayable",
      "type": "function"
    },
    {
      "inputs": [
        {
          "components": [
            {
              "internalType": "contract IProtocolGovernance",
              "name": "protocolGovernance",
              "type": "address"
            },
            {
              "internalType": "contract IVaultRegistry",
              "name": "registry",
              "type": "address"
            }
          ],
          "internalType": "struct IVaultGovernance.InternalParams",
          "name": "newParams",
          "type": "tuple"
        }
      ],
      "name": "stageInternalParams",
      "outputs": [],
      "stateMutability": "nonpayable",
      "type": "function"
    },
    {
      "inputs": [],
      "name": "stagedDelayedProtocolParams",
      "outputs": [
        {
          "components": [
            {
              "internalType": "contract ILendingPool",
              "name": "lendingPool",
              "type": "address"
            }
          ],
          "internalType": "struct IAaveVaultGovernance.DelayedProtocolParams",
          "name": "",
          "type": "tuple"
        }
      ],
      "stateMutability": "view",
      "type": "function"
    },
    {
      "inputs": [],
      "name": "stagedInternalParams",
      "outputs": [
        {
          "components": [
            {
              "internalType": "contract IProtocolGovernance",
              "name": "protocolGovernance",
              "type": "address"
            },
            {
              "internalType": "contract IVaultRegistry",
              "name": "registry",
              "type": "address"
            }
          ],
          "internalType": "struct IVaultGovernance.InternalParams",
          "name": "",
          "type": "tuple"
        }
      ],
      "stateMutability": "view",
      "type": "function"
    }
  ],
  "bytecode": "0x60806040523480156200001157600080fd5b506040516200171a3803806200171a8339810160408190526200003491620001ec565b8151600080546001600160a01b03199081166001600160a01b039384161790915560208085015160018054909316908416179091556040805184519093168383015280518084038301815292810190528151849284926200009c92600b9290910190620000b7565b505050600b6000620000af919062000146565b5050620002e5565b828054620000c590620002a8565b90600052602060002090601f016020900481019282620000e9576000855562000134565b82601f106200010457805160ff191683800117855562000134565b8280016001018555821562000134579182015b828111156200013457825182559160200191906001019062000117565b506200014292915062000188565b5090565b5080546200015490620002a8565b6000825580601f1062000165575050565b601f01602090049060005260206000209081019062000185919062000188565b50565b5b8082111562000142576000815560010162000189565b604051602081016001600160401b0381118282101715620001d057634e487b7160e01b600052604160045260246000fd5b60405290565b6001600160a01b03811681146200018557600080fd5b60008082840360608112156200020157600080fd5b60408112156200021057600080fd5b604080519081016001600160401b03811182821017156200024157634e487b7160e01b600052604160045260246000fd5b60405284516200025181620001d6565b815260208501516200026381620001d6565b602082810191909152909350603f19820112156200028057600080fd5b506200028b6200019f565b60408401516200029b81620001d6565b8152919491935090915050565b600181811c90821680620002bd57607f821691505b60208210811415620002df57634e487b7160e01b600052602260045260246000fd5b50919050565b61142580620002f56000396000f3fe608060405234801561001057600080fd5b50600436106101005760003560e01c8063c2cbdc6711610097578063d4a07d3411610066578063d4a07d341461027e578063e4af6e7914610286578063f50506ab1461028e578063fc7a8117146102c057600080fd5b8063c2cbdc6714610218578063c45a015514610238578063c4d66de814610263578063d34cc3801461027657600080fd5b80637ac46fbb116100d35780637ac46fbb1461018057806386c6be3e146101c257806398347a5d146101fb578063b32c12d81461020557600080fd5b8063158ef93e146101055780631c7f4c731461012e578063511ce798146101405780636707acee14610160575b600080fd5b60105461011990600160a01b900460ff1681565b60405190151581526020015b60405180910390f35b6004545b604051908152602001610125565b61013261014e366004610e96565b6000908152600a602052604090205490565b61013261016e366004610e96565b60009081526007602052604090205490565b604080518082018252600080825260209182018190528251808401909352546001600160a01b03908116835260015416908201525b6040516101259190610eaf565b604080518082018252600080825260209182015281518083019092526002546001600160a01b03908116835260035416908201526101b5565b6102036102d3565b005b610203610213366004610ed9565b6103cc565b610220610437565b60405190516001600160a01b03168152602001610125565b60105461024b906001600160a01b031681565b6040516001600160a01b039091168152602001610125565b610203610271366004610f06565b610511565b610220610589565b6102036105cd565b600d54610132565b6102a161029c366004610ff1565b6106cc565b604080516001600160a01b039093168352602083019190915201610125565b6102036102ce3660046110d5565b610a09565b6102db610afc565b336001600160a01b0316326001600160a01b03167fd0bd0864aed00de35801c29364a347e4a81f620231a4f13dc3ada2bddff7dfc1600b805461031d90611134565b80601f016020809104026020016040519081016040528092919081815260200182805461034990611134565b80156103965780601f1061036b57610100808354040283529160200191610396565b820191906000526020600020905b81548152906001019060200180831161037957829003601f168201915b50505050508060200190518101906103ae9190611169565b60405190516001600160a01b031681526020015b60405180910390a3565b6103f4816040516020016103e091906111b5565b604051602081830303815290604052610bb5565b600d54604051339132917f56b6c947728bda5a1251d4300168d688a46ddb97148c0e3f0034f2776418c2759161042c918691906111d5565b60405180910390a350565b604080516020810190915260008152600c805461045390611134565b1515905061046e575060408051602081019091526000815290565b600c805461047b90611134565b80601f01602080910402602001604051908101604052809291908181526020018280546104a790611134565b80156104f45780601f106104c9576101008083540402835291602001916104f4565b820191906000526020600020905b8154815290600101906020018083116104d757829003601f168201915b505050505080602001905181019061050c9190611169565b905090565b6010546040805180820190915260048152631253925560e21b602082015290600160a01b900460ff16156105615760405162461bcd60e51b8152600401610558919061124a565b60405180910390fd5b50601080546001600160a81b0319166001600160a01b0390921691909117600160a01b179055565b604080516020810190915260008152600b80546105a590611134565b151590506105c0575060408051602081019091526000815290565b600b805461047b90611134565b6105d5610c90565b600060045411604051806040016040528060048152602001631395531360e21b815250906106165760405162461bcd60e51b8152600401610558919061124a565b5060045442101560405180604001604052806002815260200161545360f01b815250906106565760405162461bcd60e51b8152600401610558919061124a565b50600254600080546001600160a01b039283166001600160a01b031991821681178355600354600180549190951692168217909355600491909155604080519283526020830191909152339132917f1e35451923245ee6ebcfa4eaa530093af09bcf5278d751ff4b9897ca024d02b491016103c2565b6010546040805180820190915260048152631253925560e21b6020820152600091829190600160a01b900460ff166107175760405162461bcd60e51b8152600401610558919061124a565b506000546040805163a1256f9f60e01b815290516001600160a01b0390921691829163a1256f9f916004808301926020929190829003018186803b15801561075e57600080fd5b505afa158015610772573d6000803e3d6000fd5b505050506040513d601f19601f82011682018060405250810190610796919061125d565b806108135750604051630935e01b60e21b81523360048201526001600160a01b038216906324d7806c9060240160206040518083038186803b1580156107db57600080fd5b505afa1580156107ef573d6000803e3d6000fd5b505050506040513d601f19601f82011682018060405250810190610813919061125d565b60405180604001604052806003815260200162504f4160e81b8152509061084d5760405162461bcd60e51b8152600401610558919061124a565b50601054604051636e1e2ffd60e01b81526001600160a01b0390911690636e1e2ffd9061088090899089906004016112c3565b602060405180830381600087803b15801561089a57600080fd5b505af11580156108ae573d6000803e3d6000fd5b505050506040513d601f19601f820116820180604052508101906108d291906112f1565b6001546040516305c4fdf960e01b81526001600160a01b03808416600483015280881660248301529295508692909116906305c4fdf990604401602060405180830381600087803b15801561092657600080fd5b505af115801561093a573d6000803e3d6000fd5b505050506040513d601f19601f8201168201806040525081019061095e919061130e565b60405163fe4b84df60e01b8152600481018290529093506001600160a01b0385169063fe4b84df90602401600060405180830381600087803b1580156109a357600080fd5b505af11580156109b7573d6000803e3d6000fd5b50506040513392503291507f8a4513c05d15df8ece912856923273e166e39f5c9c2b43d2b38594023494a0e0906109f7908b908b9087908b908b90611327565b60405180910390a35050935093915050565b610a11610c90565b8051600280546001600160a01b03199081166001600160a01b039384161790915560208084015160038054909316908416179091556000546040805163bba3293960e01b81529051919093169263bba32939926004808301939192829003018186803b158015610a8057600080fd5b505afa158015610a94573d6000803e3d6000fd5b505050506040513d601f19601f82011682018060405250810190610ab8919061130e565b610ac29042611387565b6004819055604051339132917f4b5caddc4df608f00754b735b313f6450a3c994df1519ef40bdd5cd315206e719161042c9186919061139f565b610b04610c90565b6000600d5411604051806040016040528060048152602001631395531360e21b81525090610b455760405162461bcd60e51b8152600401610558919061124a565b50600d5442101560405180604001604052806002815260200161545360f01b81525090610b855760405162461bcd60e51b8152600401610558919061124a565b50600c600b908054610b9690611134565b610ba1929190610d48565b50610bae600c6000610dd3565b6000600d55565b610bbd610c90565b6000600b8054610bcc90611134565b159050610bda576001610bdd565b60005b60ff16905081600c9080519060200190610bf8929190610e0d565b506000546040805163bba3293960e01b8152905183926001600160a01b03169163bba32939916004808301926020929190829003018186803b158015610c3d57600080fd5b505afa158015610c51573d6000803e3d6000fd5b505050506040513d601f19601f82011682018060405250810190610c75919061130e565b610c7f91906113d0565b610c899042611387565b600d555050565b600054604051630935e01b60e21b81523360048201526001600160a01b03909116906324d7806c9060240160206040518083038186803b158015610cd357600080fd5b505afa158015610ce7573d6000803e3d6000fd5b505050506040513d601f19601f82011682018060405250810190610d0b919061125d565b6040518060400160405280600381526020016241444d60e81b81525090610d455760405162461bcd60e51b8152600401610558919061124a565b50565b828054610d5490611134565b90600052602060002090601f016020900481019282610d765760008555610dc3565b82601f10610d875780548555610dc3565b82800160010185558215610dc357600052602060002091601f016020900482015b82811115610dc3578254825591600101919060010190610da8565b50610dcf929150610e81565b5090565b508054610ddf90611134565b6000825580601f10610def575050565b601f016020900490600052602060002090810190610d459190610e81565b828054610e1990611134565b90600052602060002090601f016020900481019282610e3b5760008555610dc3565b82601f10610e5457805160ff1916838001178555610dc3565b82800160010185558215610dc3579182015b82811115610dc3578251825591602001919060010190610e66565b5b80821115610dcf5760008155600101610e82565b600060208284031215610ea857600080fd5b5035919050565b60408101610ed3828480516001600160a01b03908116835260209182015116910152565b92915050565b600060208284031215610eeb57600080fd5b50919050565b6001600160a01b0381168114610d4557600080fd5b600060208284031215610f1857600080fd5b8135610f2381610ef1565b9392505050565b634e487b7160e01b600052604160045260246000fd5b604051601f8201601f1916810167ffffffffffffffff81118282101715610f6957610f69610f2a565b604052919050565b8035610f7c81610ef1565b919050565b600082601f830112610f9257600080fd5b813567ffffffffffffffff811115610fac57610fac610f2a565b610fbf601f8201601f1916602001610f40565b818152846020838601011115610fd457600080fd5b816020850160208301376000918101602001919091529392505050565b60008060006060848603121561100657600080fd5b833567ffffffffffffffff8082111561101e57600080fd5b818601915086601f83011261103257600080fd5b813560208282111561104657611046610f2a565b8160051b611055828201610f40565b928352848101820192828101908b85111561106f57600080fd5b958301955b84871015611099578635925061108983610ef1565b8282529583019590830190611074565b98505050870135925050808211156110b057600080fd5b506110bd86828701610f81565b9250506110cc60408501610f71565b90509250925092565b6000604082840312156110e757600080fd5b6040516040810181811067ffffffffffffffff8211171561110a5761110a610f2a565b604052823561111881610ef1565b8152602083013561112881610ef1565b60208201529392505050565b600181811c9082168061114857607f821691505b60208210811415610eeb57634e487b7160e01b600052602260045260246000fd5b60006020828403121561117b57600080fd5b6040516020810181811067ffffffffffffffff8211171561119e5761119e610f2a565b60405282516111ac81610ef1565b81529392505050565b6020810182356111c481610ef1565b6001600160a01b0316909152919050565b6040810183356111e481610ef1565b6001600160a01b03168252602090910191909152919050565b6000815180845260005b8181101561122357602081850181015186830182015201611207565b81811115611235576000602083870101525b50601f01601f19169290920160200192915050565b602081526000610f2360208301846111fd565b60006020828403121561126f57600080fd5b81518015158114610f2357600080fd5b600081518084526020808501945080840160005b838110156112b85781516001600160a01b031687529582019590820190600101611293565b509495945050505050565b6040815260006112d6604083018561127f565b82810360208401526112e881856111fd565b95945050505050565b60006020828403121561130357600080fd5b8151610f2381610ef1565b60006020828403121561132057600080fd5b5051919050565b60a08152600061133a60a083018861127f565b828103602084015261134c81886111fd565b6001600160a01b03968716604085015294909516606083015250608001529392505050565b634e487b7160e01b600052601160045260246000fd5b6000821982111561139a5761139a611371565b500190565b606081016113c3828580516001600160a01b03908116835260209182015116910152565b8260408301529392505050565b60008160001904831182151516156113ea576113ea611371565b50029056fea2646970667358221220d2f1dd1b5efc533fa7b2bc0d24f2831a7d37983b3dcd4c7bfbcb4ea23c2eda2e64736f6c63430008090033",
  "linkReferences": {},
  "deployedLinkReferences": {}
}