{
  "_format": "hh-sol-artifact-1",
  "contractName": "NFTXRangeExtendedEligibility",
  "sourceName": "contracts/solidity/eligibility/NFTXRangeExtendedEligibility.sol",
  "abi": [
    {
      "anonymous": false,
      "inputs": [
        {
          "indexed": false,
          "internalType": "address",
          "name": "owner",
          "type": "address"
        },
        {
          "indexed": false,
          "internalType": "uint256",
          "name": "rangeStart",
          "type": "uint256"
        },
        {
          "indexed": false,
          "internalType": "uint256",
          "name": "rangeEnd",
          "type": "uint256"
        }
      ],
      "name": "NFTXEligibilityInit",
      "type": "event"
    },
    {
      "anonymous": false,
      "inputs": [
        {
          "indexed": true,
          "internalType": "address",
          "name": "previousOwner",
          "type": "address"
        },
        {
          "indexed": true,
          "internalType": "address",
          "name": "newOwner",
          "type": "address"
        }
      ],
      "name": "OwnershipTransferred",
      "type": "event"
    },
    {
      "anonymous": false,
      "inputs": [
        {
          "indexed": false,
          "internalType": "uint256",
          "name": "rangeStart",
          "type": "uint256"
        },
        {
          "indexed": false,
          "internalType": "uint256",
          "name": "rangeEnd",
          "type": "uint256"
        }
      ],
      "name": "RangeSet",
      "type": "event"
    },
    {
      "anonymous": false,
      "inputs": [
        {
          "indexed": false,
          "internalType": "uint256[]",
          "name": "tokenIds",
          "type": "uint256[]"
        },
        {
          "indexed": false,
          "internalType": "bool",
          "name": "isEligible",
          "type": "bool"
        }
      ],
      "name": "UniqueEligibilitiesSet",
      "type": "event"
    },
    {
      "inputs": [
        {
          "internalType": "address",
          "name": "_owner",
          "type": "address"
        },
        {
          "internalType": "uint256",
          "name": "_rangeStart",
          "type": "uint256"
        },
        {
          "internalType": "uint256",
          "name": "_rangeEnd",
          "type": "uint256"
        }
      ],
      "name": "__NFTXEligibility_init",
      "outputs": [],
      "stateMutability": "nonpayable",
      "type": "function"
    },
    {
      "inputs": [
        {
          "internalType": "bytes",
          "name": "_configData",
          "type": "bytes"
        }
      ],
      "name": "__NFTXEligibility_init_bytes",
      "outputs": [],
      "stateMutability": "nonpayable",
      "type": "function"
    },
    {
      "inputs": [
        {
          "internalType": "uint256[]",
          "name": "tokenIds",
          "type": "uint256[]"
        }
      ],
      "name": "afterMintHook",
      "outputs": [],
      "stateMutability": "nonpayable",
      "type": "function"
    },
    {
      "inputs": [
        {
          "internalType": "uint256[]",
          "name": "tokenIds",
          "type": "uint256[]"
        }
      ],
      "name": "afterRedeemHook",
      "outputs": [],
      "stateMutability": "nonpayable",
      "type": "function"
    },
    {
      "inputs": [
        {
          "internalType": "uint256[]",
          "name": "tokenIds",
          "type": "uint256[]"
        }
      ],
      "name": "beforeMintHook",
      "outputs": [],
      "stateMutability": "nonpayable",
      "type": "function"
    },
    {
      "inputs": [
        {
          "internalType": "uint256[]",
          "name": "tokenIds",
          "type": "uint256[]"
        }
      ],
      "name": "beforeRedeemHook",
      "outputs": [],
      "stateMutability": "nonpayable",
      "type": "function"
    },
    {
      "inputs": [
        {
          "internalType": "uint256[]",
          "name": "tokenIds",
          "type": "uint256[]"
        }
      ],
      "name": "checkAllEligible",
      "outputs": [
        {
          "internalType": "bool",
          "name": "",
          "type": "bool"
        }
      ],
      "stateMutability": "view",
      "type": "function"
    },
    {
      "inputs": [
        {
          "internalType": "uint256[]",
          "name": "tokenIds",
          "type": "uint256[]"
        }
      ],
      "name": "checkAllIneligible",
      "outputs": [
        {
          "internalType": "bool",
          "name": "",
          "type": "bool"
        }
      ],
      "stateMutability": "view",
      "type": "function"
    },
    {
      "inputs": [
        {
          "internalType": "uint256[]",
          "name": "tokenIds",
          "type": "uint256[]"
        }
      ],
      "name": "checkEligible",
      "outputs": [
        {
          "internalType": "bool[]",
          "name": "",
          "type": "bool[]"
        }
      ],
      "stateMutability": "view",
      "type": "function"
    },
    {
      "inputs": [
        {
          "internalType": "uint256",
          "name": "tokenId",
          "type": "uint256"
        }
      ],
      "name": "checkIsEligible",
      "outputs": [
        {
          "internalType": "bool",
          "name": "",
          "type": "bool"
        }
      ],
      "stateMutability": "view",
      "type": "function"
    },
    {
      "inputs": [],
      "name": "finalized",
      "outputs": [
        {
          "internalType": "bool",
          "name": "",
          "type": "bool"
        }
      ],
      "stateMutability": "view",
      "type": "function"
    },
    {
      "inputs": [],
      "name": "isInitialized",
      "outputs": [
        {
          "internalType": "bool",
          "name": "",
          "type": "bool"
        }
      ],
      "stateMutability": "view",
      "type": "function"
    },
    {
      "inputs": [
        {
          "internalType": "uint256",
          "name": "tokenId",
          "type": "uint256"
        }
      ],
      "name": "isUniqueEligible",
      "outputs": [
        {
          "internalType": "bool",
          "name": "",
          "type": "bool"
        }
      ],
      "stateMutability": "view",
      "type": "function"
    },
    {
      "inputs": [],
      "name": "name",
      "outputs": [
        {
          "internalType": "string",
          "name": "",
          "type": "string"
        }
      ],
      "stateMutability": "pure",
      "type": "function"
    },
    {
      "inputs": [],
      "name": "owner",
      "outputs": [
        {
          "internalType": "address",
          "name": "",
          "type": "address"
        }
      ],
      "stateMutability": "view",
      "type": "function"
    },
    {
      "inputs": [],
      "name": "rangeEnd",
      "outputs": [
        {
          "internalType": "uint256",
          "name": "",
          "type": "uint256"
        }
      ],
      "stateMutability": "view",
      "type": "function"
    },
    {
      "inputs": [],
      "name": "rangeStart",
      "outputs": [
        {
          "internalType": "uint256",
          "name": "",
          "type": "uint256"
        }
      ],
      "stateMutability": "view",
      "type": "function"
    },
    {
      "inputs": [],
      "name": "renounceOwnership",
      "outputs": [],
      "stateMutability": "nonpayable",
      "type": "function"
    },
    {
      "inputs": [
        {
          "internalType": "uint256",
          "name": "_rangeStart",
          "type": "uint256"
        },
        {
          "internalType": "uint256",
          "name": "_rangeEnd",
          "type": "uint256"
        }
      ],
      "name": "setEligibilityPreferences",
      "outputs": [],
      "stateMutability": "nonpayable",
      "type": "function"
    },
    {
      "inputs": [
        {
          "internalType": "uint256[]",
          "name": "tokenIds",
          "type": "uint256[]"
        },
        {
          "internalType": "bool",
          "name": "_isEligible",
          "type": "bool"
        }
      ],
      "name": "setUniqueEligibilities",
      "outputs": [],
      "stateMutability": "nonpayable",
      "type": "function"
    },
    {
      "inputs": [],
      "name": "targetAsset",
      "outputs": [
        {
          "internalType": "address",
          "name": "",
          "type": "address"
        }
      ],
      "stateMutability": "pure",
      "type": "function"
    },
    {
      "inputs": [
        {
          "internalType": "address",
          "name": "newOwner",
          "type": "address"
        }
      ],
      "name": "transferOwnership",
      "outputs": [],
      "stateMutability": "nonpayable",
      "type": "function"
    }
  ],
  "bytecode": "0x608060405234801561001057600080fd5b50611315806100206000396000f3fe608060405234801561001057600080fd5b50600436106101825760003560e01c8063715018a6116100d8578063bcd925fd1161008c578063d2a096e811610066578063d2a096e8146102ee578063f2fde38b14610301578063fbd5cb201461031457600080fd5b8063bcd925fd146102c8578063bd8affde146101cf578063ca373f28146102db57600080fd5b806384ca9f85116100bd57806384ca9f851461029c5780638da5cb5b146102af578063b3f05b97146102c057600080fd5b8063715018a61461028b5780637920c1271461029357600080fd5b80633e7ea26c1161013a5780635e2f9b52116101145780635e2f9b52146101cf5780636c47d595146101cf5780636cd912601461026b57600080fd5b80633e7ea26c1461022e5780634998b7f3146102415780635c99ee011461025457600080fd5b8063392e53cd1161016b578063392e53cd146101e35780633942cf36146102005780633d4403ac1461021357600080fd5b806306fdde031461018757806336eb0862146101cf575b600080fd5b604080518082018252600d81527f52616e6765457874656e64656400000000000000000000000000000000000000602082015290516101c691906111fc565b60405180910390f35b6101e16101dd366004610fef565b5050565b005b6066546101f09060ff1681565b60405190151581526020016101c6565b6101f061020e366004611132565b610327565b60005b6040516001600160a01b0390911681526020016101c6565b6101e161023c36600461114a565b61035a565b6101e161024f366004611088565b61043c565b61025d60685481565b6040519081526020016101c6565b61027e610279366004610fef565b61051c565b6040516101c6919061116b565b6101e16105f9565b61025d60675481565b6101f06102aa366004610fef565b6106aa565b6033546001600160a01b0316610216565b6101f0610703565b6101e16102d6366004610fbb565b610737565b6101f06102e9366004610fef565b6108d4565b6101f06102fc366004611132565b610924565b6101e161030f366004610f69565b61092f565b6101e161032236600461102f565b610a6e565b6000806103366101008461124f565b6000818152606560205260409020549091506103528185610b0b565b949350505050565b6033546001600160a01b031633146103b95760405162461bcd60e51b815260206004820181905260248201527f4f776e61626c653a2063616c6c6572206973206e6f7420746865206f776e657260448201526064015b60405180910390fd5b808211156103f55760405162461bcd60e51b8152602060048201526009602482015268139bdd081d985b1a5960ba1b60448201526064016103b0565b6067829055606881905560408051838152602081018390527f2aa006707091dbb6a3c123c2b234325bd71d72a53ba791b7227967655a550957910160405180910390a15050565b600054610100900460ff1680610455575060005460ff16155b6104b85760405162461bcd60e51b815260206004820152602e60248201527f496e697469616c697a61626c653a20636f6e747261637420697320616c72656160448201526d191e481a5b9a5d1a585b1a5e995960921b60648201526084016103b0565b600054610100900460ff161580156104da576000805461ffff19166101011790555b6000806000848060200190518101906104f39190610f85565b925092509250610504838383610737565b50505080156101dd576000805461ff00191690555050565b606060008267ffffffffffffffff81111561054757634e487b7160e01b600052604160045260246000fd5b604051908082528060200260200182016040528015610570578160200160208202803683370190505b50905060005b838110156105ef576105ad8585838181106105a157634e487b7160e01b600052603260045260246000fd5b90506020020135610b2b565b8282815181106105cd57634e487b7160e01b600052603260045260246000fd5b91151560209283029190910190910152806105e781611263565b915050610576565b5090505b92915050565b6033546001600160a01b031633146106535760405162461bcd60e51b815260206004820181905260248201527f4f776e61626c653a2063616c6c6572206973206e6f7420746865206f776e657260448201526064016103b0565b6033546040516000916001600160a01b0316907f8be0079c531659141344cd1fd0a4f28419497f9722a3daafe3b4186f6b6457e0908390a36033805473ffffffffffffffffffffffffffffffffffffffff19169055565b6000805b828110156106f9576106d98484838181106105a157634e487b7160e01b600052603260045260246000fd5b6106e75760009150506105f3565b806106f181611263565b9150506106ae565b5060019392505050565b60665460009060ff168015610732575060006107276033546001600160a01b031690565b6001600160a01b0316145b905090565b600054610100900460ff1680610750575060005460ff16155b6107b35760405162461bcd60e51b815260206004820152602e60248201527f496e697469616c697a61626c653a20636f6e747261637420697320616c72656160448201526d191e481a5b9a5d1a585b1a5e995960921b60648201526084016103b0565b600054610100900460ff161580156107d5576000805461ffff19166101011790555b6107dd610b65565b6066805460ff19166001179055818311156108265760405162461bcd60e51b8152602060048201526009602482015268139bdd081d985b1a5960ba1b60448201526064016103b0565b6067839055606882905560408051848152602081018490527f2aa006707091dbb6a3c123c2b234325bd71d72a53ba791b7227967655a550957910160405180910390a1604080516001600160a01b0386168152602081018590529081018390527f9fa39868c0c87f00f712ceb0ce6f0afff58fbf7824d3e47ee76362a48893bd299060600160405180910390a16108bc8461092f565b80156108ce576000805461ff00191690555b50505050565b6000805b828110156106f9576109038484838181106105a157634e487b7160e01b600052603260045260246000fd5b156109125760009150506105f3565b8061091c81611263565b9150506108d8565b60006105f382610b2b565b6033546001600160a01b031633146109895760405162461bcd60e51b815260206004820181905260248201527f4f776e61626c653a2063616c6c6572206973206e6f7420746865206f776e657260448201526064016103b0565b6001600160a01b038116610a055760405162461bcd60e51b815260206004820152602660248201527f4f776e61626c653a206e6577206f776e657220697320746865207a65726f206160448201527f646472657373000000000000000000000000000000000000000000000000000060648201526084016103b0565b6033546040516001600160a01b038084169216907f8be0079c531659141344cd1fd0a4f28419497f9722a3daafe3b4186f6b6457e090600090a36033805473ffffffffffffffffffffffffffffffffffffffff19166001600160a01b0392909216919091179055565b6033546001600160a01b03163314610ac85760405162461bcd60e51b815260206004820181905260248201527f4f776e61626c653a2063616c6c6572206973206e6f7420746865206f776e657260448201526064016103b0565b610b06838380806020026020016040519081016040528093929190818152602001838360200280828437600092019190915250859250610c28915050565b505050565b600080610b1a6101008461128a565b9390931c6001908116149392505050565b60008060006068541115610b50576067548310158015610b4d57506068548311155b90505b806105f357610b5e83610327565b9392505050565b600054610100900460ff1680610b7e575060005460ff16155b610be15760405162461bcd60e51b815260206004820152602e60248201527f496e697469616c697a61626c653a20636f6e747261637420697320616c72656160448201526d191e481a5b9a5d1a585b1a5e995960921b60648201526084016103b0565b600054610100900460ff16158015610c03576000805461ffff19166101011790555b610c0b610d38565b610c13610de9565b8015610c25576000805461ff00191690555b50565b600080805260656020527fffdfc1249c027f9191656349feb0761381bb32c9f557e01f419fd08754bf5a1b5490805b8451811015610ce6576000858281518110610c8257634e487b7160e01b600052603260045260246000fd5b60200260200101519050600061010082610c9c919061124f565b9050838114610cc4576000938452606560205260408085209590955580845293909220549291825b610ccf858388610eeb565b945050508080610cde90611263565b915050610c57565b5060008181526065602052604090819020839055517ffacde3821ab1224682dd0ab6a805f71860b6ca6982ad044c8c4927ea4c6f140190610d2a90869086906111b1565b60405180910390a150505050565b600054610100900460ff1680610d51575060005460ff16155b610db45760405162461bcd60e51b815260206004820152602e60248201527f496e697469616c697a61626c653a20636f6e747261637420697320616c72656160448201526d191e481a5b9a5d1a585b1a5e995960921b60648201526084016103b0565b600054610100900460ff16158015610c13576000805461ffff19166101011790558015610c25576000805461ff001916905550565b600054610100900460ff1680610e02575060005460ff16155b610e655760405162461bcd60e51b815260206004820152602e60248201527f496e697469616c697a61626c653a20636f6e747261637420697320616c72656160448201526d191e481a5b9a5d1a585b1a5e995960921b60648201526084016103b0565b600054610100900460ff16158015610e87576000805461ffff19166101011790555b6033805473ffffffffffffffffffffffffffffffffffffffff19163390811790915560405181906000907f8be0079c531659141344cd1fd0a4f28419497f9722a3daafe3b4186f6b6457e0908290a3508015610c25576000805461ff001916905550565b600080610efa6101008561128a565b90508215610f0f576001901b84179050610b5e565b6001901b19841690509392505050565b60008083601f840112610f30578081fd5b50813567ffffffffffffffff811115610f47578182fd5b6020830191508360208260051b8501011115610f6257600080fd5b9250929050565b600060208284031215610f7a578081fd5b8135610b5e816112ca565b600080600060608486031215610f99578182fd5b8351610fa4816112ca565b602085015160409095015190969495509392505050565b600080600060608486031215610fcf578283fd5b8335610fda816112ca565b95602085013595506040909401359392505050565b60008060208385031215611001578182fd5b823567ffffffffffffffff811115611017578283fd5b61102385828601610f1f565b90969095509350505050565b600080600060408486031215611043578283fd5b833567ffffffffffffffff811115611059578384fd5b61106586828701610f1f565b9094509250506020840135801515811461107d578182fd5b809150509250925092565b600060208284031215611099578081fd5b813567ffffffffffffffff808211156110b0578283fd5b818401915084601f8301126110c3578283fd5b8135818111156110d5576110d56112b4565b604051601f8201601f19908116603f011681019083821181831017156110fd576110fd6112b4565b81604052828152876020848701011115611115578586fd5b826020860160208301379182016020019490945295945050505050565b600060208284031215611143578081fd5b5035919050565b6000806040838503121561115c578182fd5b50508035926020909101359150565b6020808252825182820181905260009190848201906040850190845b818110156111a5578351151583529284019291840191600101611187565b50909695505050505050565b604080825283519082018190526000906020906060840190828701845b828110156111ea578151845292840192908401906001016111ce565b50505093151592019190915250919050565b6000602080835283518082850152825b818110156112285785810183015185820160400152820161120c565b818111156112395783604083870101525b50601f01601f1916929092016040019392505050565b60008261125e5761125e61129e565b500490565b600060001982141561128357634e487b7160e01b81526011600452602481fd5b5060010190565b6000826112995761129961129e565b500690565b634e487b7160e01b600052601260045260246000fd5b634e487b7160e01b600052604160045260246000fd5b6001600160a01b0381168114610c2557600080fdfea26469706673582212201b45ef5db054916fa98328b133ad6832e2f0fa190326203a3cc6f8717c1eddf664736f6c63430008040033",
  "linkReferences": {},
  "deployedLinkReferences": {}
}