{
  "_format": "hh-sol-artifact-1",
  "contractName": "PairsHelper",
  "sourceName": "contracts/Helper/PairsHelper.sol",
  "abi": [
    {
      "inputs": [
        {
          "internalType": "address",
          "name": "_wethAddress",
          "type": "address"
        },
        {
          "internalType": "address",
          "name": "_uniqueAddressesHelperAddress",
          "type": "address"
        }
      ],
      "stateMutability": "nonpayable",
      "type": "constructor"
    },
    {
      "inputs": [],
      "name": "owner",
      "outputs": [
        {
          "internalType": "address",
          "name": "",
          "type": "address"
        }
      ],
      "stateMutability": "view",
      "type": "function"
    },
    {
      "inputs": [
        {
          "internalType": "address",
          "name": "factoryAddress",
          "type": "address"
        },
        {
          "internalType": "uint256",
          "name": "pageSize",
          "type": "uint256"
        },
        {
          "internalType": "uint256",
          "name": "offset",
          "type": "uint256"
        }
      ],
      "name": "pagesLength",
      "outputs": [
        {
          "internalType": "uint256",
          "name": "",
          "type": "uint256"
        }
      ],
      "stateMutability": "view",
      "type": "function"
    },
    {
      "inputs": [
        {
          "internalType": "address",
          "name": "factoryAddress",
          "type": "address"
        },
        {
          "internalType": "uint256",
          "name": "pageSize",
          "type": "uint256"
        }
      ],
      "name": "pagesLength",
      "outputs": [
        {
          "internalType": "uint256",
          "name": "",
          "type": "uint256"
        }
      ],
      "stateMutability": "view",
      "type": "function"
    },
    {
      "inputs": [
        {
          "internalType": "address",
          "name": "factoryAddress",
          "type": "address"
        }
      ],
      "name": "pairsAddresses",
      "outputs": [
        {
          "internalType": "address[]",
          "name": "",
          "type": "address[]"
        }
      ],
      "stateMutability": "view",
      "type": "function"
    },
    {
      "inputs": [
        {
          "internalType": "address",
          "name": "factoryAddress",
          "type": "address"
        },
        {
          "internalType": "uint256",
          "name": "pageSize",
          "type": "uint256"
        },
        {
          "internalType": "uint256",
          "name": "pageNbr",
          "type": "uint256"
        },
        {
          "internalType": "uint256",
          "name": "offset",
          "type": "uint256"
        }
      ],
      "name": "pairsAddresses",
      "outputs": [
        {
          "internalType": "address[]",
          "name": "",
          "type": "address[]"
        }
      ],
      "stateMutability": "view",
      "type": "function"
    },
    {
      "inputs": [
        {
          "internalType": "address",
          "name": "factoryAddress",
          "type": "address"
        },
        {
          "internalType": "uint256",
          "name": "pageSize",
          "type": "uint256"
        },
        {
          "internalType": "uint256",
          "name": "pageNbr",
          "type": "uint256"
        }
      ],
      "name": "pairsAddresses",
      "outputs": [
        {
          "internalType": "address[]",
          "name": "",
          "type": "address[]"
        }
      ],
      "stateMutability": "view",
      "type": "function"
    },
    {
      "inputs": [
        {
          "internalType": "address",
          "name": "factoryAddress",
          "type": "address"
        }
      ],
      "name": "pairsLength",
      "outputs": [
        {
          "internalType": "uint256",
          "name": "",
          "type": "uint256"
        }
      ],
      "stateMutability": "view",
      "type": "function"
    },
    {
      "inputs": [
        {
          "internalType": "address",
          "name": "factoryAddress",
          "type": "address"
        }
      ],
      "name": "tokensAddresses",
      "outputs": [
        {
          "internalType": "address[]",
          "name": "",
          "type": "address[]"
        }
      ],
      "stateMutability": "view",
      "type": "function"
    },
    {
      "inputs": [
        {
          "internalType": "address",
          "name": "factoryAddress",
          "type": "address"
        },
        {
          "internalType": "uint256",
          "name": "pageSize",
          "type": "uint256"
        },
        {
          "internalType": "uint256",
          "name": "pageNbr",
          "type": "uint256"
        },
        {
          "internalType": "uint256",
          "name": "offset",
          "type": "uint256"
        }
      ],
      "name": "tokensAddresses",
      "outputs": [
        {
          "internalType": "address[]",
          "name": "",
          "type": "address[]"
        }
      ],
      "stateMutability": "view",
      "type": "function"
    },
    {
      "inputs": [
        {
          "internalType": "address",
          "name": "factoryAddress",
          "type": "address"
        },
        {
          "internalType": "uint256",
          "name": "pageSize",
          "type": "uint256"
        },
        {
          "internalType": "uint256",
          "name": "pageNbr",
          "type": "uint256"
        }
      ],
      "name": "tokensAddresses",
      "outputs": [
        {
          "internalType": "address[]",
          "name": "",
          "type": "address[]"
        }
      ],
      "stateMutability": "view",
      "type": "function"
    },
    {
      "inputs": [],
      "name": "uniqueAddressesHelperAddress",
      "outputs": [
        {
          "internalType": "address",
          "name": "",
          "type": "address"
        }
      ],
      "stateMutability": "view",
      "type": "function"
    },
    {
      "inputs": [
        {
          "internalType": "bytes32",
          "name": "slot",
          "type": "bytes32"
        },
        {
          "internalType": "bytes32",
          "name": "value",
          "type": "bytes32"
        }
      ],
      "name": "updateSlot",
      "outputs": [],
      "stateMutability": "nonpayable",
      "type": "function"
    },
    {
      "inputs": [],
      "name": "wethAddress",
      "outputs": [
        {
          "internalType": "address",
          "name": "",
          "type": "address"
        }
      ],
      "stateMutability": "view",
      "type": "function"
    }
  ],
  "bytecode": "0x608060405234801561001057600080fd5b50604051610bb9380380610bb98339818101604052604081101561003357600080fd5b508051602090910151600280546001600160a01b039283166001600160a01b031991821617918290556003805482169284169290921790915560018054929093169116179055610b31806100886000396000f3fe608060405234801561001057600080fd5b50600436106100cf5760003560e01c80636b5de5721161008c57806391ea83e81161006657806391ea83e81461027e578063b3119993146102a3578063bb261c9a146102d5578063ecb74b8614610307576100cf565b80636b5de5721461021857806373dee485146102505780638da5cb5b14610276576100cf565b80631b9dd067146100d45780632a0d40f8146101185780633687bb4b1461018e57806346677af3146101b45780634f0e0ef3146101ec578063699fd8c314610210575b600080fd5b610106600480360360608110156100ea57600080fd5b506001600160a01b038135169060208101359060400135610333565b60408051918252519081900360200190f35b61013e6004803603602081101561012e57600080fd5b50356001600160a01b031661035c565b60408051602080825283518183015283519192839290830191858101910280838360005b8381101561017a578181015183820152602001610162565b505050509050019250505060405180910390f35b61013e600480360360208110156101a457600080fd5b50356001600160a01b031661037f565b61013e600480360360808110156101ca57600080fd5b506001600160a01b038135169060208101359060408101359060600135610397565b6101f46105d8565b604080516001600160a01b039092168252519081900360200190f35b6101f46105e7565b61013e6004803603608081101561022e57600080fd5b506001600160a01b0381351690602081013590604081013590606001356105f6565b6101066004803603602081101561026657600080fd5b50356001600160a01b0316610a20565b6101f4610a8d565b6102a16004803603604081101561029457600080fd5b5080359060200135610a9c565b005b61013e600480360360608110156102b957600080fd5b506001600160a01b038135169060208101359060400135610ab7565b61013e600480360360608110156102eb57600080fd5b506001600160a01b038135169060208101359060400135610ac6565b6101066004803603604081101561031d57600080fd5b506001600160a01b038135169060200135610ad5565b60008061033f85610a20565b90506000848483038161034e57fe5b046001019695505050505050565b6060600061036983610a20565b905061037883826000806105f6565b9392505050565b6060600061038c83610a20565b905061037883826000805b606060006103a486610a20565b9050838502830180860160001983018111156103c1575060001982015b60608367ffffffffffffffff811180156103da57600080fd5b50604051908082528060200260200182016040528015610404578160200160208202803683370190505b50905060005b82848201116104bb5760008a6001600160a01b0316631e3dd18b8684016040518263ffffffff1660e01b81526004018082815260200191505060206040518083038186803b15801561045b57600080fd5b505afa15801561046f573d6000803e3d6000fd5b505050506040513d602081101561048557600080fd5b50518351909150819084908490811061049a57fe5b6001600160a01b03909216602092830291909101909101525060010161040a565b6060826040516020018080602001828103825283818151815260200191508051906020019060200280838360005b838110156105015781810151838201526020016104e9565b5050505090500192505050604051602081830303815290604052905081604082015280806020019051602081101561053857600080fd5b810190808051604051939291908464010000000082111561055857600080fd5b90830190602082018581111561056d57600080fd5b825186602082028301116401000000008211171561058a57600080fd5b82525081516020918201928201910280838360005b838110156105b757818101518382015260200161059f565b5050505090500160405250505092508296505050505050505b949350505050565b6001546001600160a01b031681565b6002546001600160a01b031681565b60608061060586868686610397565b80519091506001600282020160608167ffffffffffffffff8111801561062a57600080fd5b50604051908082528060200260200182016040528015610654578160200160208202803683370190505b5090508261067757505060408051600081526020810190915292506105d0915050565b60015481516001600160a01b0390911690829060009061069357fe5b6001600160a01b0390921660209283029190910190910152600160005b848110156108435760008682815181106106c657fe5b6020026020010151905060008190506000816001600160a01b0316630dfe16816040518163ffffffff1660e01b815260040160206040518083038186803b15801561071057600080fd5b505afa158015610724573d6000803e3d6000fd5b505050506040513d602081101561073a57600080fd5b50516040805163d21220a760e01b815290519192506000916001600160a01b0385169163d21220a7916004808301926020929190829003018186803b15801561078257600080fd5b505afa158015610796573d6000803e3d6000fd5b505050506040513d60208110156107ac57600080fd5b50516001549091506001600160a01b038381169116146107f257818787815181106107d357fe5b6001600160a01b03909216602092830291909101909101526001909501945b6001546001600160a01b03828116911614610833578087878151811061081457fe5b6001600160a01b03909216602092830291909101909101526001909501945b5050600190920191506106b09050565b506060826040516020018080602001828103825283818151815260200191508051906020019060200280838360005b8381101561088a578181015183820152602001610872565b50505050905001925050506040516020818303038152906040529050816040820152600360009054906101000a90046001600160a01b03166001600160a01b031663d9f5ff418280602001905160208110156108e557600080fd5b810190808051604051939291908464010000000082111561090557600080fd5b90830190602082018581111561091a57600080fd5b825186602082028301116401000000008211171561093757600080fd5b82525081516020918201928201910280838360005b8381101561096457818101518382015260200161094c565b505050509050016040525050506040518263ffffffff1660e01b81526004018080602001828103825283818151815260200191508051906020019060200280838360005b838110156109c05781810151838201526020016109a8565b505050509050019250505060006040518083038186803b1580156109e357600080fd5b505afa1580156109f7573d6000803e3d6000fd5b505050506040513d6000823e601f3d908101601f19168201604052602081101561053857600080fd5b6000816001600160a01b031663574f2ba36040518163ffffffff1660e01b815260040160206040518083038186803b158015610a5b57600080fd5b505afa158015610a6f573d6000803e3d6000fd5b505050506040513d6020811015610a8557600080fd5b505192915050565b6000546001600160a01b031681565b6000546001600160a01b03163314610ab357600080fd5b9055565b60606105d08484846000610397565b60606105d084848460006105f6565b600080610ae184610a20565b90506000838281610aee57fe5b046001019594505050505056fea2646970667358221220e5582f25c112ec3739e192d72b8c5f22e280bf98abb920a404a49ca742f44b2664736f6c634300060c0033",
  "linkReferences": {},
  "deployedLinkReferences": {}
}