{
  "_format": "hh-sol-artifact-1",
  "contractName": "BridgeMockup",
  "sourceName": "contracts/mockups/BridgeMockup.sol",
  "abi": [
    {
      "inputs": [],
      "name": "messageSender",
      "outputs": [
        {
          "internalType": "address",
          "name": "",
          "type": "address"
        }
      ],
      "stateMutability": "view",
      "type": "function"
    },
    {
      "inputs": [],
      "name": "oracleProxyMainnetAddress",
      "outputs": [
        {
          "internalType": "address",
          "name": "",
          "type": "address"
        }
      ],
      "stateMutability": "view",
      "type": "function"
    },
    {
      "inputs": [],
      "name": "oracleProxyXdaiAddress",
      "outputs": [
        {
          "internalType": "address",
          "name": "",
          "type": "address"
        }
      ],
      "stateMutability": "view",
      "type": "function"
    },
    {
      "inputs": [
        {
          "internalType": "address",
          "name": "_RCProxyAddress",
          "type": "address"
        },
        {
          "internalType": "bytes",
          "name": "_data",
          "type": "bytes"
        },
        {
          "internalType": "uint256",
          "name": "_gasLimit",
          "type": "uint256"
        }
      ],
      "name": "requireToPassMessage",
      "outputs": [],
      "stateMutability": "nonpayable",
      "type": "function"
    },
    {
      "inputs": [
        {
          "internalType": "address",
          "name": "_newAddress",
          "type": "address"
        }
      ],
      "name": "setProxyL1Address",
      "outputs": [],
      "stateMutability": "nonpayable",
      "type": "function"
    },
    {
      "inputs": [
        {
          "internalType": "address",
          "name": "_newAddress",
          "type": "address"
        }
      ],
      "name": "setProxyL2Address",
      "outputs": [],
      "stateMutability": "nonpayable",
      "type": "function"
    }
  ],
  "bytecode": "0x608060405234801561001057600080fd5b5061033a806100206000396000f3fe608060405234801561001057600080fd5b50600436106100625760003560e01c806313357f7a14610067578063715e6d46146100965780637e3bcaab146100a9578063bb59e923146100db578063d67bdd251461010b578063dc8601b314610113575b600080fd5b60015461007a906001600160a01b031681565b6040516001600160a01b03909116815260200160405180910390f35b60005461007a906001600160a01b031681565b6100d96100b7366004610249565b600080546001600160a01b0319166001600160a01b0392909216919091179055565b005b6100d96100e9366004610249565b600180546001600160a01b0319166001600160a01b0392909216919091179055565b61007a610126565b6100d961012136600461026b565b61015a565b600080546001600160a01b031633141561014a57506001546001600160a01b031690565b506000546001600160a01b031690565b6000846001600160a01b0316600085856040516101789291906102f4565b60006040518083038185875af1925050503d80600081146101b5576040519150601f19603f3d011682016040523d82523d6000602084013e6101ba565b606091505b50506000549091506001600160a01b031673f39fd6e51aad88f6f4ce6ab8827279cfffb922661461022657806102265760405162461bcd60e51b815260206004820152600d60248201526c109c9a5919d94819985a5b1959609a1b604482015260640160405180910390fd5b5050505050565b80356001600160a01b038116811461024457600080fd5b919050565b60006020828403121561025b57600080fd5b6102648261022d565b9392505050565b6000806000806060858703121561028157600080fd5b61028a8561022d565b9350602085013567ffffffffffffffff808211156102a757600080fd5b818701915087601f8301126102bb57600080fd5b8135818111156102ca57600080fd5b8860208285010111156102dc57600080fd5b95986020929092019750949560400135945092505050565b818382376000910190815291905056fea264697066735822122041dd6c491b9a8adea0a1d5fa941d149f827cbb265eb7296f9096583d89b5f31b64736f6c63430008070033",
  "linkReferences": {},
  "deployedLinkReferences": {}
}