{
  "_format": "hh-sol-artifact-1",
  "contractName": "UniV3Trader",
  "sourceName": "contracts/trader/UniV3Trader.sol",
  "abi": [
    {
      "inputs": [
        {
          "internalType": "address",
          "name": "_swapRouter",
          "type": "address"
        }
      ],
      "stateMutability": "nonpayable",
      "type": "constructor"
    },
    {
      "inputs": [
        {
          "internalType": "bytes4",
          "name": "interfaceId",
          "type": "bytes4"
        }
      ],
      "name": "supportsInterface",
      "outputs": [
        {
          "internalType": "bool",
          "name": "",
          "type": "bool"
        }
      ],
      "stateMutability": "pure",
      "type": "function"
    },
    {
      "inputs": [
        {
          "internalType": "uint256",
          "name": "",
          "type": "uint256"
        },
        {
          "internalType": "uint256",
          "name": "amount",
          "type": "uint256"
        },
        {
          "internalType": "address",
          "name": "recipient",
          "type": "address"
        },
        {
          "components": [
            {
              "internalType": "address",
              "name": "token0",
              "type": "address"
            },
            {
              "internalType": "address",
              "name": "token1",
              "type": "address"
            },
            {
              "internalType": "bytes",
              "name": "options",
              "type": "bytes"
            }
          ],
          "internalType": "struct ITrader.PathItem[]",
          "name": "path",
          "type": "tuple[]"
        },
        {
          "internalType": "bytes",
          "name": "options",
          "type": "bytes"
        }
      ],
      "name": "swapExactInput",
      "outputs": [
        {
          "internalType": "uint256",
          "name": "",
          "type": "uint256"
        }
      ],
      "stateMutability": "nonpayable",
      "type": "function"
    },
    {
      "inputs": [
        {
          "internalType": "uint256",
          "name": "",
          "type": "uint256"
        },
        {
          "internalType": "uint256",
          "name": "amount",
          "type": "uint256"
        },
        {
          "internalType": "address",
          "name": "recipient",
          "type": "address"
        },
        {
          "components": [
            {
              "internalType": "address",
              "name": "token0",
              "type": "address"
            },
            {
              "internalType": "address",
              "name": "token1",
              "type": "address"
            },
            {
              "internalType": "bytes",
              "name": "options",
              "type": "bytes"
            }
          ],
          "internalType": "struct ITrader.PathItem[]",
          "name": "path",
          "type": "tuple[]"
        },
        {
          "internalType": "bytes",
          "name": "options",
          "type": "bytes"
        }
      ],
      "name": "swapExactOutput",
      "outputs": [
        {
          "internalType": "uint256",
          "name": "",
          "type": "uint256"
        }
      ],
      "stateMutability": "nonpayable",
      "type": "function"
    },
    {
      "inputs": [],
      "name": "swapRouter",
      "outputs": [
        {
          "internalType": "contract ISwapRouter",
          "name": "",
          "type": "address"
        }
      ],
      "stateMutability": "view",
      "type": "function"
    }
  ],
  "bytecode": "0x608060405234801561001057600080fd5b5060405161149d38038061149d83398101604081905261002f91610054565b600080546001600160a01b0319166001600160a01b0392909216919091179055610084565b60006020828403121561006657600080fd5b81516001600160a01b038116811461007d57600080fd5b9392505050565b61140a806100936000396000f3fe608060405234801561001057600080fd5b506004361061004c5760003560e01c806301ffc9a714610051578063671918af14610079578063b80757ad1461009a578063c31c9c07146100ad575b600080fd5b61006461005f366004610dc7565b6100d8565b60405190151581526020015b60405180910390f35b61008c610087366004610ef0565b61010f565b604051908152602001610070565b61008c6100a8366004610ef0565b6101e6565b6000546100c0906001600160a01b031681565b6040516001600160a01b039091168152602001610070565b60006001600160e01b031982166301ffc9a760e01b148061010957506001600160e01b03198216636f8f278160e11b145b92915050565b600080828060200190518101906101269190611088565b90508351600114156101835761017b84600081518110610148576101486110fb565b60200260200101516000015185600081518110610167576101676110fb565b6020026020010151602001518888856102a1565b9150506101dd565b61018c846103b3565b60405180604001604052806002815260200161054560f41b815250906101ce5760405162461bcd60e51b81526004016101c59190611169565b60405180910390fd5b5061017b8686868461045f565b505b95945050505050565b600080828060200190518101906101fd9190611088565b90508351600014156102525761017b8460008151811061021f5761021f6110fb565b6020026020010151600001518560008151811061023e5761023e6110fb565b60200260200101516020015188888561052e565b61025b846103b3565b60405180604001604052806002815260200161054560f41b815250906102945760405162461bcd60e51b81526004016101c59190611169565b5061017b86868684610698565b60408051610100810182526001600160a01b03808816808352878216602080850191909152855162ffffff168486015286831660608086019190915294860151608085015260a084018890529385015160c0840152928401511660e082015260009161030f90333088610804565b6000546103269088906001600160a01b0316610864565b60005460405163414bf38960e01b81526001600160a01b039091169063414bf3899061035690849060040161117c565b602060405180830381600087803b15801561037057600080fd5b505af1158015610384573d6000803e3d6000fd5b505050506040513d601f19601f820116820180604052508101906103a891906111e6565b979650505050505050565b60008151600014156103c757506000919050565b60005b600183516103d89190611215565b81101561045657826103eb82600161122c565b815181106103fb576103fb6110fb565b6020026020010151600001516001600160a01b031683600081518110610423576104236110fb565b6020026020010151602001516001600160a01b0316146104465750600092915050565b61044f81611244565b90506103ca565b50600192915050565b60008083600081518110610475576104756110fb565b602002602001015160000151905060006040518060a001604052806104998761097f565b8152602001876001600160a01b0316815260200185604001518152602001888152602001856060015181525090506104e7333089856001600160a01b0316610804909392919063ffffffff16565b6000546104fe9083906001600160a01b0316610864565b60005460405163c04b8d5960e01b81526001600160a01b039091169063c04b8d59906103569084906004016112b0565b600080604051806101000160405280886001600160a01b03168152602001876001600160a01b03168152602001846000015162ffffff168152602001856001600160a01b03168152602001846040015181526020018681526020018460600151815260200184602001516001600160a01b031681525090506105ca333085606001518a6001600160a01b0316610804909392919063ffffffff16565b6000546105e19088906001600160a01b0316610864565b600054604051631b67c43360e31b81526001600160a01b039091169063db3e21989061061190849060040161117c565b602060405180830381600087803b15801561062b57600080fd5b505af115801561063f573d6000803e3d6000fd5b505050506040513d601f19601f8201168201806040525081019061066391906111e6565b915082606001518210156101db576101db30858486606001516106869190611215565b6001600160a01b038b16929190610804565b600080836000815181106106ae576106ae6110fb565b602002602001015160000151905060006040518060a001604052806106da6106d58861097f565b610af3565b8152602001876001600160a01b03168152602001856040015181526020018881526020018560600151815250905061072c33308660600151856001600160a01b0316610804909392919063ffffffff16565b6000546107439083906001600160a01b0316610864565b600054604051631e51809360e31b81526001600160a01b039091169063f28c0498906107739084906004016112b0565b602060405180830381600087803b15801561078d57600080fd5b505af11580156107a1573d6000803e3d6000fd5b505050506040513d601f19601f820116820180604052508101906107c591906111e6565b925083606001518310156107fa576107fa30878587606001516107e89190611215565b6001600160a01b038616929190610804565b5050949350505050565b604080516001600160a01b0385811660248301528416604482015260648082018490528251808303909101815260849091019091526020810180516001600160e01b03166323b872dd60e01b17905261085e908590610b75565b50505050565b61087160026000196112c3565b604051636eb1769f60e11b81526001600160a01b03838116600483015230602483015284169063dd62ed3e9060440160206040518083038186803b1580156108b857600080fd5b505afa1580156108cc573d6000803e3d6000fd5b505050506040513d601f19601f820116820180604052508101906108f091906111e6565b101561097b5760405163095ea7b360e01b81526001600160a01b038281166004830152600019602483015283169063095ea7b390604401602060405180830381600087803b15801561094157600080fd5b505af1158015610955573d6000803e3d6000fd5b505050506040513d601f19601f8201168201806040525081019061097991906112e5565b505b5050565b60608060005b8351811015610a695760008482815181106109a2576109a26110fb565b6020026020010151604001518060200190518101906109c19190611307565b9050828583815181106109d6576109d66110fb565b6020026020010151600001518260000151604051602001610a0a919060e89190911b6001600160e81b031916815260030190565b60408051601f1981840301815290829052610a289291602001611351565b60408051601f1981840301815290829052610a469291602001611389565b60405160208183030381529060405292505080610a6290611244565b9050610985565b50808360018551610a7a9190611215565b81518110610a8a57610a8a6110fb565b602002602001015160200151604051602001610abe919060609190911b6bffffffffffffffffffffffff1916815260140190565b60408051601f1981840301815290829052610adc9291602001611389565b60408051601f198184030181529190529392505050565b606060005b8251811015610b6f57828160018551610b119190611215565b610b1b9190611215565b81518110610b2b57610b2b6110fb565b602001015160f81c60f81b828281518110610b4857610b486110fb565b60200101906001600160f81b031916908160001a905350610b6881611244565b9050610af8565b50919050565b6000610bca826040518060400160405280602081526020017f5361666545524332303a206c6f772d6c6576656c2063616c6c206661696c6564815250856001600160a01b0316610c4a9092919063ffffffff16565b9050805160001480610beb575080806020019051810190610beb91906112e5565b6109795760405162461bcd60e51b815260206004820152602a60248201527f5361666545524332303a204552433230206f7065726174696f6e20646964206e6044820152691bdd081cdd58d8d9595960b21b60648201526084016101c5565b6060610c598484600085610c61565b949350505050565b606082471015610cc25760405162461bcd60e51b815260206004820152602660248201527f416464726573733a20696e73756666696369656e742062616c616e636520666f6044820152651c8818d85b1b60d21b60648201526084016101c5565b600080866001600160a01b03168587604051610cde91906113b8565b60006040518083038185875af1925050503d8060008114610d1b576040519150601f19603f3d011682016040523d82523d6000602084013e610d20565b606091505b50915091506103a88783838760608315610d98578251610d91576001600160a01b0385163b610d915760405162461bcd60e51b815260206004820152601d60248201527f416464726573733a2063616c6c20746f206e6f6e2d636f6e747261637400000060448201526064016101c5565b5081610c59565b610c598383815115610dad5781518083602001fd5b8060405162461bcd60e51b81526004016101c59190611169565b600060208284031215610dd957600080fd5b81356001600160e01b031981168114610df157600080fd5b9392505050565b6001600160a01b0381168114610e0d57600080fd5b50565b634e487b7160e01b600052604160045260246000fd5b6040516060810167ffffffffffffffff81118282101715610e4957610e49610e10565b60405290565b604051601f8201601f1916810167ffffffffffffffff81118282101715610e7857610e78610e10565b604052919050565b600082601f830112610e9157600080fd5b813567ffffffffffffffff811115610eab57610eab610e10565b610ebe601f8201601f1916602001610e4f565b818152846020838601011115610ed357600080fd5b816020850160208301376000918101602001919091529392505050565b600080600080600060a08688031215610f0857600080fd5b8535945060208601359350610f206040870135610df8565b6040860135925067ffffffffffffffff8060608801351115610f4157600080fd5b6060870135870188601f820112610f5757600080fd5b8181351115610f6857610f68610e10565b610f786020823560051b01610e4f565b81358082526020808301929160051b8401018b1015610f9657600080fd5b602083015b6020843560051b85010181101561103d578481351115610fba57600080fd5b803584016060818e03601f19011215610fd257600080fd5b610fda610e26565b610fe76020830135610df8565b60208201358152610ffb6040830135610df8565b60408201356020820152866060830135111561101657600080fd5b6110298e60206060850135850101610e80565b604082015284525060209283019201610f9b565b5094505050608087013581101561105357600080fd5b506110648760808801358801610e80565b90509295509295909350565b805162ffffff8116811461108357600080fd5b919050565b60006080828403121561109a57600080fd5b6040516080810181811067ffffffffffffffff821117156110bd576110bd610e10565b6040526110c983611070565b815260208301516110d981610df8565b6020820152604083810151908201526060928301519281019290925250919050565b634e487b7160e01b600052603260045260246000fd5b60005b8381101561112c578181015183820152602001611114565b8381111561085e5750506000910152565b60008151808452611155816020860160208601611111565b601f01601f19169290920160200192915050565b602081526000610df1602083018461113d565b6101008101610109828480516001600160a01b03908116835260208083015182169084015260408083015162ffffff16908401526060808301518216908401526080808301519084015260a0828101519084015260c0808301519084015260e09182015116910152565b6000602082840312156111f857600080fd5b5051919050565b634e487b7160e01b600052601160045260246000fd5b600082821015611227576112276111ff565b500390565b6000821982111561123f5761123f6111ff565b500190565b6000600019821415611258576112586111ff565b5060010190565b6000815160a0845261127460a085018261113d565b6020848101516001600160a01b031690860152604080850151908601526060808501519086015260809384015193909401929092525090919050565b602081526000610df1602083018461125f565b6000826112e057634e487b7160e01b600052601260045260246000fd5b500490565b6000602082840312156112f757600080fd5b81518015158114610df157600080fd5b60006020828403121561131957600080fd5b6040516020810181811067ffffffffffffffff8211171561133c5761133c610e10565b60405261134883611070565b81529392505050565b6bffffffffffffffffffffffff198360601b1681526000825161137b816014850160208701611111565b919091016014019392505050565b6000835161139b818460208801611111565b8351908301906113af818360208801611111565b01949350505050565b600082516113ca818460208701611111565b919091019291505056fea2646970667358221220d36f93bf6292b4b9deb92dec5b9326637d62ed0f14bdb2269465055a48466dd064736f6c63430008090033",
  "linkReferences": {},
  "deployedLinkReferences": {}
}