{
  "_format": "hh-sol-artifact-1",
  "contractName": "AirdropDistribution",
  "sourceName": "contracts/AirdropDistribution.sol",
  "abi": [
    {
      "inputs": [
        {
          "internalType": "contract IERC20",
          "name": "_mainToken",
          "type": "address"
        },
        {
          "internalType": "contract IVesting",
          "name": "_vestLock",
          "type": "address"
        }
      ],
      "stateMutability": "nonpayable",
      "type": "constructor"
    },
    {
      "anonymous": false,
      "inputs": [
        {
          "indexed": false,
          "internalType": "address",
          "name": "account",
          "type": "address"
        }
      ],
      "name": "Paused",
      "type": "event"
    },
    {
      "anonymous": false,
      "inputs": [
        {
          "indexed": false,
          "internalType": "address",
          "name": "account",
          "type": "address"
        }
      ],
      "name": "Unpaused",
      "type": "event"
    },
    {
      "anonymous": false,
      "inputs": [
        {
          "indexed": true,
          "internalType": "address",
          "name": "investor",
          "type": "address"
        },
        {
          "indexed": false,
          "internalType": "uint256",
          "name": "amount",
          "type": "uint256"
        },
        {
          "indexed": false,
          "internalType": "uint256",
          "name": "timeStamp",
          "type": "uint256"
        }
      ],
      "name": "Validated",
      "type": "event"
    },
    {
      "anonymous": false,
      "inputs": [
        {
          "indexed": true,
          "internalType": "address",
          "name": "investor",
          "type": "address"
        },
        {
          "indexed": false,
          "internalType": "uint256",
          "name": "amount",
          "type": "uint256"
        },
        {
          "indexed": false,
          "internalType": "uint256",
          "name": "timeStamp",
          "type": "uint256"
        }
      ],
      "name": "Vested",
      "type": "event"
    },
    {
      "anonymous": false,
      "inputs": [
        {
          "indexed": false,
          "internalType": "uint256",
          "name": "time",
          "type": "uint256"
        },
        {
          "indexed": false,
          "internalType": "uint256",
          "name": "rate",
          "type": "uint256"
        },
        {
          "indexed": false,
          "internalType": "uint256",
          "name": "supply",
          "type": "uint256"
        }
      ],
      "name": "updateMiningParameters",
      "type": "event"
    },
    {
      "inputs": [
        {
          "internalType": "address",
          "name": "",
          "type": "address"
        }
      ],
      "name": "airdrop",
      "outputs": [
        {
          "internalType": "uint256",
          "name": "amount",
          "type": "uint256"
        },
        {
          "internalType": "uint256",
          "name": "claimed",
          "type": "uint256"
        },
        {
          "internalType": "uint256",
          "name": "total_tokens",
          "type": "uint256"
        },
        {
          "internalType": "uint256",
          "name": "fraction",
          "type": "uint256"
        }
      ],
      "stateMutability": "view",
      "type": "function"
    },
    {
      "inputs": [],
      "name": "available_supply",
      "outputs": [
        {
          "internalType": "uint256",
          "name": "",
          "type": "uint256"
        }
      ],
      "stateMutability": "view",
      "type": "function"
    },
    {
      "inputs": [],
      "name": "claim",
      "outputs": [],
      "stateMutability": "nonpayable",
      "type": "function"
    },
    {
      "inputs": [
        {
          "internalType": "uint256",
          "name": "_value",
          "type": "uint256"
        }
      ],
      "name": "claimExact",
      "outputs": [],
      "stateMutability": "nonpayable",
      "type": "function"
    },
    {
      "inputs": [],
      "name": "mainToken",
      "outputs": [
        {
          "internalType": "contract IERC20",
          "name": "",
          "type": "address"
        }
      ],
      "stateMutability": "view",
      "type": "function"
    },
    {
      "inputs": [],
      "name": "miningEpoch",
      "outputs": [
        {
          "internalType": "uint256",
          "name": "",
          "type": "uint256"
        }
      ],
      "stateMutability": "view",
      "type": "function"
    },
    {
      "inputs": [],
      "name": "paused",
      "outputs": [
        {
          "internalType": "bool",
          "name": "",
          "type": "bool"
        }
      ],
      "stateMutability": "view",
      "type": "function"
    },
    {
      "inputs": [],
      "name": "rate",
      "outputs": [
        {
          "internalType": "uint256",
          "name": "",
          "type": "uint256"
        }
      ],
      "stateMutability": "view",
      "type": "function"
    },
    {
      "inputs": [],
      "name": "startEpochTime",
      "outputs": [
        {
          "internalType": "uint256",
          "name": "",
          "type": "uint256"
        }
      ],
      "stateMutability": "view",
      "type": "function"
    },
    {
      "inputs": [],
      "name": "updateEmission",
      "outputs": [],
      "stateMutability": "nonpayable",
      "type": "function"
    },
    {
      "inputs": [],
      "name": "validate",
      "outputs": [],
      "stateMutability": "nonpayable",
      "type": "function"
    },
    {
      "inputs": [
        {
          "internalType": "address",
          "name": "",
          "type": "address"
        }
      ],
      "name": "validated",
      "outputs": [
        {
          "internalType": "uint256",
          "name": "",
          "type": "uint256"
        }
      ],
      "stateMutability": "view",
      "type": "function"
    },
    {
      "inputs": [],
      "name": "vestLock",
      "outputs": [
        {
          "internalType": "contract IVesting",
          "name": "",
          "type": "address"
        }
      ],
      "stateMutability": "view",
      "type": "function"
    }
  ],
  "bytecode": "0x611ac06040527328d6037edeaf8ec2c91c9b2cf9a1643111d8f198608090815273cfc50541c3deaf725ce738ef87ace2ad778ba0c560a05273f9e11762d522ea29dd78178c9baf83b7b093aacc60c05273ed60d8590019e5e145ea81455c01f3e817fe54eb60e05273052564eb0fd8b340803df55def89c25c432f43f4610100527321f3b2c8646b4ffa809406bb31de325a3e5e9b9f6101205273d9a93390c487b954eb1ad4c8a4acc738404098696101405273e15dd1510e39e9980c0dc47e404eb7298872bc6461016052733ba21b6477f48273f41d241aa3722ffb9e07e24761018052732326d4fb2737666dda96bd6314e3d4418246cfe86101a05273a0f75491720835b36edc92d06ddc468d201e9b736101c05273ac6559df1f410feba9a6cbf395272189461d84636101e05273ae60c874ee07f44fb7bbbd1a5087cdb66e90bed86102005273600b8a34ec1cfd8b8af78cfc49708419a16ea2e8610220527389689db564bf4b67bd7116b3f71e68a379faad986102405273caedcaafe4c596e89704c5e6b499b8d3474f750f6102605273bc90b3ce40fc3ed921d910f3e046c65954fff7cb6102805273303985ba2209b5c0c745885fa6fdd2ec1feb81a56102a052733991adbdf461d6817734555efdc8ef056fefbf216102c05273adeeb9d09b8bcee10943198fb6f6a4229bab36756102e05273b9a954bf995bdeacbdfe4b1f5f85cd6122c6e341610300527386af94e5e8d3d583575bbafdd2dcb6b898a555e46103205273270d2924ca13f54632601647fb225db8eb61fb49610340527302e05dbbf4df5d17cb3a0140f9643fe68cc4ae396103605273d8d3d8ab22e30c5402ab2a2e216a4a53f4e09e9e610380527328a55c4b4f9615fde3cdaddf6cc01fcf2e38a6b06103a0527378bc49be7bae5e0eec08780c86f0e8278b8b035b6103c05273f0e12c7218cb38df7a3a231bb91ee82f732625b66103e0527399eb33756a2eaa32f5964a747722c4b59e6af3516104005273b0ff496df3860504ebdff61590a13c1d810c97cc610420527340d2ce4c14f04bd91c59c6a1cd6e28f2a0fc81f86104405273f07f2b6c340d8d303615710451c11e93fe56774d61046052736979b914f3a1d8c0fec2c1fd602f0e674cdf9862610480527390be4e1da4bb2f464576749abac99774148bc9a26104a05273681148725731f213b0187a3cbef215c291d85a3e6104c052731678b549be696b1dfce9f0639d996a82409e1ea16104e052734f58985b75eec8f14c536878a19eadf4a1960d6c610500527355b9c56668365d11f5af18e8b7232bc6e4d206586105205273a423fe4cfb811e9cf6a61a02e80e372c0970d4b061054052737432b5212f19af018b33b73a55d1996960e59c5161056052730af14239faa4f19034f3334502ed592b0083e10861058052739fa933f60bcc5e63f75f210929839f91f55b919c6105a05273b680f628c56c8fa368dacbb0c27beef8c98355b96105c052734ec7cdf61405758f5ced5e454c0b4b0f4f043df06105e05273fca7c5cf95821f3d45b9949de6e2846d66af819f6106005273a7758b30e93d2ed6cea7c85e5b12a1d46f0f091f610620527384740f97aea62c5dc36756dfd9f749412534220e6106405273ce968c0fc101c4fb8e08eb5db73e7e169a2a35626106605273c151ae135f50aabe78e0b9d13a90fbb2d648aabb6106805273975f5ffb9c3b624351634889944355d47ab8a3676106a052739b5ea8c719e29a5bd0959faf79c9e5c8206d04996106c05273f1fb5dea21337feb46963c29d04a95f6ca8b71e66106e0527371f12a5b0e60d2ff8a87fd34e7dcff3c10c914b06107005273918a97ad195dd111c54ea82e2f8b8d22e9f48726610720527325431341a5800759268a6ac1d3cd91c029d7d9ca610740527352ad87832400485de7e7dc965d8ad890f4e826996107605273f38140985b5a5746f160f133049e83f79cc0b8196107805273be93d14c5defb8f41af8fb092f58e3c71c712b856107a05273a0a6dc36041fb386378458006fecbddd02555ddd6107c052735f82c97e9b1755237692a946ae814998bc0e21246107e05273dd709cae362972cb3b92dcead77127f7b8d5820261080052738b7b509c01838a0d197a8154c5bf00a3f56ff6156108205273640e0118b2c5a3c0ea29b94a62d9108ce2c6ced761084052731b51cce51e2531c478daa9b68eb80d47247dcbec6108605273cca71809e8870afeb72c4720d0fe50d5c3230e0561088052732de640a18fe3480aa802aca91f70177ada1033916108a0527314ce500a86f1e3ace039571e657783e0696436176108c052736019d32e59ef480f2215ee9773ae507645b47bdc6108e05273b67d92dc830f1a24e4bffd1a6794fcf8f497c7de61090052736f9bb7e454f5b3eb2310343f0e99269dc2bb8a1d6109205273e95d3daba7495d42dcc20810f33eeb5207512a9f610940527339c09fdc4e5c5ab72f6319ddbc2cae40e67b2a606109605273fadafce89ea2221fa33005640acf2c923312f2b961098052737122fc3588fb9e9b93b7c42ba02fc85ef15c442b6109a0527325afd857c7831c91951cd94ba63af237d28604d06109c052736fcf92925e0281d957b0076d3751cad76916c96b6109e05273d026bfdb74fe1baf1e1f1058f0d008cd1eeed8b5610a005273bdc38612397355e10a2d6dd697a92f35bf1c9935610a205273339dab47bdd20b4c05950c4306821896cfb1ff1a610a4052731ebb814c9ef016e6012be299ed834f1ddced1529610a605273f625dca051b5ae56f684c072c09969c9aa91478a610a8052735ebdc5c097f9378c3113dc2f9e8b51246e641896610aa05273d45fbd8f2b0a84743d2606de8094f86fac5b6ed3610ac052733e89f0ecacdc9b1f8bb892367610cad0ce421c92610ae05273c77c0edc7067a76972481484b87c1226e410547c610b0052730f763341b448bb0f02370f4037fe4a2c84c9283f610b20527235fc5208ef989c28d47e552e92b0c507d2b318610b405273b8c30017b375bf675c2836c4c6b6ed5be214739d610b605273286ed1111c29592cc6240194b8d66e64b1c05e50610b8052734cd52b37fddd19ccd24b0d0e9a048785c7aafcef610ba052730d779d67a428457cabec145a0f94703d14cd496b610bc05271a441fbb1fbaadf246539bf253a42abd31494610be05273ecb949c68c825650fd9d0aebe0cd3796fd126e66610c0052738c4d5f3eac04072245654e0ba480f1a5e1d91dd5610c205273fca32b89d0981e69c8dadcdcc0668b0e01c810cf610c40527322fa8cc33a42320385cbd3690ed60a021891cb32610c60527323be060093db74f38b1a3daf57afdc1a23db0077610c805273fc80d0867822b8ed010bafcc195c21617c01f943610ca05273526c7665c5dd9cd7102c6d42d407a0d9dc1e431d610cc052736c5384bbae7af65ed1b6784213a81dae18e528b2610ce05273ae667ed58c0d9198fc0b9261156d48296c1bb3da610d005273e1de283eab72a68f7ff972fca13f8953c6e15e51610d205273dae88e81e10d848ba6b0ad64b19783e807064696610d4052730a8a06071c878df9ec2b5f9663a4b08b0f8c08f4610d6052733e95fef1176acf5e5d2ef67d9c856e4ecac73e1f610d8052739c3c75c9d269aa8282bde7be3352d81cc91c2b6a610da05273d72b03b7f2e0b8d92b868e73e12b1f888befbeda610dc05273c23ef3adf050f4ca50b30998d37eb6464e387577610de05273d56705548111f08ccb3e1a73806c53dc706f2e75610e00527332802f989b4348a51dd0e61d23b78be1a0543469610e205273c7ca02dc88a2750031dc04515438c3a505bcc994610e4052731eccd61c9fa53a8d2e823a26cd72a7efd7d0e92e610e605273a53a6fe2d8ad977ad926c485343ba39f32d3a3f6610e8052736b30e020e9517c519c408f51c2593e12d55b55fa610ea0527357d1e246d2e32f6f9d10ec55fc41e8b2e2988308610ec05273ed557994671ddda053a582e73f2e8aa32bde7d68610ee05273cea077172675bf31e879bba71fb46c3188591070610f0052733fc925e779f148f2d843cfd63296e5e12c36d632610f205273c369b30c8ec960260631e20081a32e4c61e5ea9d610f4052738d4bfe71379a197ae0c3ea8b41b75f30294d6afb610f605273455d7eb74860d0937423b9184f9e8461aa354ebb610f80527314559df3fbe66cab6f893d8dd53f7bfe68de9c65610fa05273238f24101876377e9178d125d0747de7fad9c3b2610fc052734bb633f0e7e0f3fbc95a7f7fd223652882977573610fe052739bdfaeb9cb28dc05b09b37c0f14ecbc9a876cee061100052737904adb48351af7b835cb061316795d5226b7f1a6110205273f96da4775776ea43c42795b116c7a6eccd6e71b56110405273418efa84214f9810af9119909d5bee2c56ebd5eb61106052732c9db5597a4a9d2ba6780cd9722e25a9140552ee6110805273e1163dcfb598f74da146a83cc878731d553abbfe6110a052730991d02f28a5283338e9591cbf7de2eb25da46cd6110c052737374bb48a5fdc16c9b216f3fcc60b105c73d18066110e05273e4f9e812fe379128f17258a2b3db7cf28613f19061110052732ca3a2b525e75b2f20f59deccae3ffa4bdf3eaa261112052738522885d735f75b3faeea5cd39ab3d1291da2c776111405273a4bd4e4d2e8c72720839823f6c20f411f7ddb1f161116052731729f93e3c3c74b503b8130516984ced70bf47d9611180527394da725dba289b96f115ec955adcaaa806d2085d6111a0527338857ed3a8fc5951289e58e20fb56a00e88f0bbd6111c05273767d222a509d107522e50161ca17ffcf0e5aa3de6111e05273a4f2b2557d78e31d48e1ffa8af8b25db8524ea3c6112005273dec1bcdf22a6e77f10e3bf7df8a5f6a6a38e63766112205273c1a0fc4a40253b04a1ae2f40655d73b16caf268c6112405273285e4f019a531e20f673b634d31922d40897079861126052732848b9f2d4faebaa4838c41071684c70688b455d6112805273a734288da3ace7f9a5e5caa6df929126f2e67d526112a05273d18001f022154654149ed45888c9c29def6d3ce66112c052737ea1a45f0657d2dbd77839a916ab83112bdb55906112e05273058b10cbe1872ad139b00326686ee8ccef274c586113005273c78ce4e51611ed720ec96bf584bf1b1658fd23796113205273fbed5277e524113df313f9f6b29fde8677f4e9366113405273a652565db815ad3b138fd98830d14cfd1826693a611360527343e553fc1d064c125764e9d534a4f7d89b9bb1be61138052731712fddc84efa346d51261f0fa5a809ff457abdc6113a05273d0a5266b2515c3b575e30cbc0cfc775fa4fc66606113c05273507e964a2fabe1921278b640b0813a56268441456113e0527351a7ead10340af963c3124b026b86dd2807c2b1c6114005273215d67998dacd9da4118e4a4899bec60b79987a061142052738fc548b6b071bf0f2fe64ad1aa6032a6d20373666114405273102902245322aad61d55cfad8213472a5702a59361146052734b4de68ef03ae45c0d1026801da71258ddc6bcf6611480527332a59b87352e980dd6ab1baf462696d28e63525d6114a05273e582794320fa7424a1f9db360a46446244065cb56114c05273d71c552a4954673a30893bf1db0a77f1afa1accd6114e05273ee4a267e98260acf829ca9dc6c9f3d5d82183bce611500527354683a50f0d2b3f3d1b32780524ae01aa1a583c26115205273dc34f2a567dfe0e7512108b24ecea2d92754751c6115405273d09c6b71b1a7841e7dfb244d90d2a146201bf78b6115605273bb48c430c3ca821755547e514a8fe9cc82bdd97561158052737f326ea697ef0dd2bbd628b62f569017c1d43fcb6115a052737f048fe4176ab39e225907f777f658a6efdd42ce6115c0527366ea1467282fff8df570a1f732f0c6ab8749154e6115e05273c1cad6df277106222dd45cf5b0300fbd4d1193d56116005273963d071201275fd5fa3dc9bb34fd3d0275ba97a761162052730707fd320c96b54182475b22a9d47b4045e746686116405273fe2353c808f2409ccb81508005a62cef294577066116605273e580ab95ebe6156c9717e20d513dd788b341934c61168052734ec355d5780c9554ebdf1b40e9734a573d81052c6116a052733ddbbbb4c18f1e745a3f65ffc84e9197629ac6b46116c0527305c0f2d1978a1da91e5d82b8935c610b3f93f36b6116e052735221ce255906a61cf3dc2506143cd38d46a92be16117005273573fa57407bb0e4b761dbe801b5cbd160a8e8c2161172052734dacd010e15e220bc6c5c3210d166505d2b6c63a61174052732fa26ad1bfae9e66b5c3f364a9e8ecec8520db4a6117605273a357cb3ce710a4f90fb9d56979c2c3634e3965ba61178052731b74fcf3a084d13a9d910db124692519889854136117a05273a948de8a9205f1fe473490d2114c6616a90fd8d66117c05273101d5810f8841bce68cb3e8cfbadb3f8c71fdff06117e052739f7610115501abd147d1d82ce92cea2a716690ed6118005273f600fd970bc2054d81afb1646b50531d7567b22c611820527359cc72743488aa24caa92a521e74e633bb1f9096611840527320bfffdb086d35e1ee06b1e0beb849ee0a0e945c6118605273a2040d6b10595ecba2f751737b4a931a868f065561188052730900a13fb9382c6668a74500ccce70eb96385e0c6118a0527333d01f8baa2319882440fe8cf2978fb137b59dc16118c052737329c9ead9b5bb0ad240b75c3cfdc2828ac2efcf6118e0527377cb8c64e42ea076594a0c1e08115d8444fa9fac6119005273228a671629be7a9436019af909a1629c94bf4caf61192052737ff3552031c441f3f01aedeb0c2c680fba6dd5df61194052732d52f7bae61912f7217351443ea8a226996a3def61196052736bac48867bc94ff20b4c62b21d484a44d04d342c6119805273a42830ee059c77caf8c8200b44aa9813cb0720c56119a05273f88d3412764873872ab1fded5f168a6c1a3bf7bb6119c052733aa667d05a6aa1115cf4a533c29bb538acd1300c6119e05273b92667e34cb6753449adf464f18ce1833caf26e0611a0052737bfee91193d9df2ac0bfe90191d40f23c773c060611a2052731f0a6d7db80e0c5af146fdb836e04fac0b1e8202611a4052732053e0218793eec7107ec50b09b696d4431c1ff8611a605273b8c2c00cc883d087c0cbd443cec51a4d04f8b147611a805273c8e99dd497ae1fc981c1dd48f49fb804fbfcb99d611aa052620014929060029060d262001df4565b5060408051611a4081018252624192b48152621a5f6660208201526216f7ed9181019190915262145323606080830191909152620b19d260808301526202c81360a0830152620b748260c08301526209899c60e08301526207b4b561010083015262071c0c610120830152620768dd61014080840191909152620609bd61016084015261f8856101808085019190915262044e4e6101a085015262052fdb6101c0850152620100966101e08501526202cfba610200850152620400c96102208501526203a59a610240850152620326266102608501526203359a6102808501526202efa96102a0850152620303276102c08501526201034b6102e08501526202a36961030085015262026a40610320850152620252c1610340850152620289f1610360850152620290b5610380850152618f8b6103a08501526112986103c08501526201ccc16103e08501526201b2536104008501526201ad4a61042085015262015f2a610440850152620170b661046085015262014d4b610480850152620142876104a085015262013d516104c085015262013c606104e085015262010c2061050085015261fa8a61052085015261f3df61054085015261e8fc61056085015261f54f61058085015261eec96105a085015261d78b6105c085015261cacb6105e085015261bcb161060085015261b91361062085015261b13161064085015261aea661066085015261a9c361068085015261aacd6106a085015261a6c46106c0850152619e186106e085015261ab52610700850152618e9a61072085015261025961074085015261841e610760850152617f6461078085015261021e6107a0850152617c1d6107c0850152616f106107e085015261532b6108008501526164376108208501526163106108408501526162aa610860850152615c27610880850152615b466108a0850152615b7e6108c08501526153756108e0850152614e2c610900850152614dcf610920850152614b28610940850152614cb66109608501526149c46109808501526142ed6109a08501526140ff6109c0850152613be96109e08501526139b5610a008501526139e8610a20850152613934610a408501526131d8610a608501526130d7610a808501526009610aa0850152612fb0610ac085015261082c610ae08501819052612e53610b00860152612d98610b20860152612bb8610b40860152612851610b6086015261065d610b8086015261283f610ba0860152612543610bc08601526123f0610be086015261239b610c00860152610f55610c208601526122be610c40860152612153610c608601526120cf610c80860152611fd7610ca0860152611df1610cc0860152611dd2610ce086015260a5610d00860152610253610d20860152611ad1610d4086015261197a610d60860152611960610d808601819052611936610da08701526118e6610dc0870152610f78610de087015261026e610e00870152611769610e20870152611753610e4087015261172a610e608701819052610e8087015261165a610ea087015261160d610ec0870152607b610ee08701526113f1610f008701526113b0610f2087015261032d610f408701526108ac610f6087015261120a610f80870152611182610fa0870152611160610fc0870181905261115f610fe088015260e9611000880152611019611020880152610f17611040880152610ef9611060880152610f23611080880152610efc6110a0880152610e366110c0880152610de66110e0880152610ca9611100880152610b9561112088018190526111408801819052602291880182905261118088018190526111a0880152610a8b6111c0880152610a7f6111e0880152608b61120088015261094461122088015261085261124088015261126087019390935261087c6112808701526112a08601919091526108236112c086015261013a6112e086015261081b6113008601526101db6113208601526106e961134086018190526113608601526106176113808601526105e76113a08601526105d26113c08601526105ca6113e086015260f86114008601526105516114208601526104e36114408601526104dd61146086015261049c61148086018190526114a086015260de6114c08601526103f26114e08601526103c56115008601526103b361152086015261037961154086015261026c611560860152601c61158086015261032a6115a08601526102ff6115c086015261026b6115e08601526116008501939093526102516116208501526101ee61164085015260dd6116608501526101da61168085015260546116a08501526116c08401919091526101bd6116e084015261016a611700840152603861172084015261014b61174084015261011861176084015261011061178084015260266117a08401526117c083015260056117e08301526076611800830152601161182083015260596118408301526058611860830152603b61188083015260086118a083015260016118c0830152601e6118e0830152601d6119008301526207b3d961192083015262068fb661194083015261988590820152613b536119808201526120536119a0820152620227f76119c082015260c36119e08201526201b9d6611a00820152620142b7611a2082015262001c219060d49060d262001e51565b506a10ad0bca349e3bb80000006101a85534801562001c3f57600080fd5b5060405162002ee238038062002ee283398101604081905262001c629162001ec9565b6000805460ff19169055600180556001600160a01b03821662001cbe5760405162461bcd60e51b815260206004820152600f60248201526e496e76616c6964206164647265737360881b60448201526064015b60405180910390fd5b6001600160a01b03811662001d085760405162461bcd60e51b815260206004820152600f60248201526e496e76616c6964206164647265737360881b604482015260640162001cb5565b6101ad80546001600160a01b038085166001600160a01b0319928316179092556101ae80549284169290911691909117905562001d5362093a8069345c1991a5c71cb8000062001f07565b6101ab55426101aa556101ad546101ae5460405163095ea7b360e01b81526001600160a01b039182166004820152600019602482015291169063095ea7b390604401602060405180830381600087803b15801562001db057600080fd5b505af115801562001dc5573d6000803e3d6000fd5b505050506040513d601f19601f8201168201806040525081019062001deb919062001ea0565b50505062001f41565b8260d2810192821562001e3f579160200282015b8281111562001e3f57825182546001600160a01b0319166001600160a01b0390911617825560209092019160019091019062001e08565b5062001e4d92915062001e89565b5090565b8260d2810192821562001e3f579160200282015b8281111562001e3f578251829062ffffff1690559160200191906001019062001e65565b5b8082111562001e4d576000815560010162001e8a565b60006020828403121562001eb2578081fd5b8151801515811462001ec2578182fd5b9392505050565b6000806040838503121562001edc578081fd5b825162001ee98162001f28565b602084015190925062001efc8162001f28565b809150509250929050565b60008262001f2357634e487b7160e01b81526012600452602481fd5b500490565b6001600160a01b038116811462001f3e57600080fd5b50565b610f918062001f516000396000f3fe608060405234801561001057600080fd5b50600436106100df5760003560e01c80634e71d92d1161008c57806364ef6dd41161006657806364ef6dd4146101ea5780636901f668146101f4578063c4121545146101fc578063f8e47cd61461021d57600080fd5b80634e71d92d146101c45780635c975abb146101cc5780635dc93e1d146101e257600080fd5b806324f92a25116100bd57806324f92a251461016c5780632c4e722e146101745780633fc15f151461017e57600080fd5b806306a82ce1146100e45780631814a5b1146100f957806321860a0514610116575b600080fd5b6100f76100f2366004610e36565b61023e565b005b6101036101aa5481565b6040519081526020015b60405180910390f35b61014c610124366004610de2565b6101a66020526000908152604090208054600182015460028301546003909301549192909184565b60408051948552602085019390935291830152606082015260800161010d565b61010361050e565b6101036101ab5481565b6101ad5461019f9073ffffffffffffffffffffffffffffffffffffffff1681565b60405173ffffffffffffffffffffffffffffffffffffffff909116815260200161010d565b6100f7610587565b60005460ff16604051901515815260200161010d565b6100f7610998565b6101036101a95481565b6100f7610a1b565b6101ae5461019f9073ffffffffffffffffffffffffffffffffffffffff1681565b61010361022b366004610de2565b6101a76020526000908152604090205481565b610246610c4e565b3361025057600080fd5b3360009081526101a6602052604090205461026a57600080fd5b600061027461050e565b3360009081526101a6602052604081206003015491925090670de0b6b3a7640000906102a09084610e9f565b6102aa9190610e66565b3360009081526101a66020526040902060010154909150156102e7573360009081526101a660205260409020600101546102e49082610edc565b90505b3360009081526101a6602052604090205481111561030457600080fd5b8083111561031157600080fd5b3360009081526101a6602052604081208054859290610331908490610edc565b90915550503360009081526101a6602052604081206001018054859290610359908490610e4e565b9091555060009050600a61036e856003610e9f565b6103789190610e66565b6101ad546040517fa9059cbb0000000000000000000000000000000000000000000000000000000081523360048201526024810183905291925073ffffffffffffffffffffffffffffffffffffffff169063a9059cbb90604401602060405180830381600087803b1580156103ec57600080fd5b505af1158015610400573d6000803e3d6000fd5b505050506040513d601f19601f820116820180604052508101906104249190610e16565b5060006104318286610edc565b6101ae546040517f2546de10000000000000000000000000000000000000000000000000000000008152336004820152602481018390526000604482015291925073ffffffffffffffffffffffffffffffffffffffff1690632546de1090606401600060405180830381600087803b1580156104ac57600080fd5b505af11580156104c0573d6000803e3d6000fd5b5050604080518881524260208201523393507ffbeff59d2bfda0d79ea8a29f8c57c66d48c7a13eabbdb90908d9115ec41c9dc692500160405180910390a25050505061050b60018055565b50565b600062093a806101aa54426105239190610edc565b1115610558577f4e487b7100000000000000000000000000000000000000000000000000000000600052600160045260246000fd5b6101ab546101aa5461056a9042610edc565b6105749190610e9f565b6101ac546105829190610e4e565b905090565b61058f610c4e565b3361059957600080fd5b3360009081526101a76020526040902054600114610618576040517f08c379a000000000000000000000000000000000000000000000000000000000815260206004820152601f60248201527f41646472657373206e6f742076616c69646174656420746f20636c61696d2e0060448201526064015b60405180910390fd5b3360009081526101a6602052604090205461063257600080fd5b600061063c61050e565b9050600081116106a8576040517f08c379a000000000000000000000000000000000000000000000000000000000815260206004820152601860248201527f4e6f7468696e6720636c61696d61626c6520287965743f290000000000000000604482015260640161060f565b3360009081526101a66020526040812060030154670de0b6b3a7640000906106d09084610e9f565b6106da9190610e66565b905060008111610713577f4e487b7100000000000000000000000000000000000000000000000000000000600052600160045260246000fd5b3360009081526101a660205260409020600101541561074d573360009081526101a6602052604090206001015461074a9082610edc565b90505b3360009081526101a66020526040902054610769908290610edc565b61079c577f4e487b7100000000000000000000000000000000000000000000000000000000600052600160045260246000fd5b3360009081526101a66020526040812080548392906107bc908490610edc565b90915550503360009081526101a66020526040812060010180548392906107e4908490610e4e565b9091555060009050600a6107f9836003610e9f565b6108039190610e66565b6101ad546040517fa9059cbb0000000000000000000000000000000000000000000000000000000081523360048201526024810183905291925073ffffffffffffffffffffffffffffffffffffffff169063a9059cbb90604401602060405180830381600087803b15801561087757600080fd5b505af115801561088b573d6000803e3d6000fd5b505050506040513d601f19601f820116820180604052508101906108af9190610e16565b5060006108bc8284610edc565b6101ae546040517f2546de10000000000000000000000000000000000000000000000000000000008152336004820152602481018390526000604482015291925073ffffffffffffffffffffffffffffffffffffffff1690632546de1090606401600060405180830381600087803b15801561093757600080fd5b505af115801561094b573d6000803e3d6000fd5b5050604080518681524260208201523393507ffbeff59d2bfda0d79ea8a29f8c57c66d48c7a13eabbdb90908d9115ec41c9dc692500160405180910390a25050505061099660018055565b565b62093a806101aa546109aa9190610e4e565b421015610a13576040517f08c379a000000000000000000000000000000000000000000000000000000000815260206004820152600860248201527f546f6f20736f6f6e000000000000000000000000000000000000000000000000604482015260640161060f565b610996610cc2565b610a23610c4e565b33610a2d57600080fd5b3360009081526101a6602052604090205415610aa5576040517f08c379a000000000000000000000000000000000000000000000000000000000815260206004820152601260248201527f416c72656164792076616c6964617465642e0000000000000000000000000000604482015260640161060f565b60005b60d2811015610c44573360028260d28110610aec577f4e487b7100000000000000000000000000000000000000000000000000000000600052603260045260246000fd5b015473ffffffffffffffffffffffffffffffffffffffff161415610c3257600060d48260d28110610b46577f4e487b7100000000000000000000000000000000000000000000000000000000600052603260045260246000fd5b0154610b5a90670de0b6b3a7640000610e9f565b905060006040518060800160405280838152602001600081526020018381526020016101a85484670de0b6b3a7640000610b949190610e9f565b610b9e9190610e66565b90523360008181526101a660209081526040808320855181558286015160018083019190915582870151600283015560608701516003909201919091556101a7909252918290205551919250907f09858c35f1ffd3d303d6b053271b64edfb9fd54d71ea43480aa71fb08dabb5fd90610c239085904290918252602082015260400190565b60405180910390a25050610c44565b80610c3c81610ef3565b915050610aa8565b5061099660018055565b60026001541415610cbb576040517f08c379a000000000000000000000000000000000000000000000000000000000815260206004820152601f60248201527f5265656e7472616e637947756172643a207265656e7472616e742063616c6c00604482015260640161060f565b6002600155565b62093a806101aa54610cd49190610e4e565b42106109965760016101a96000828254610cee9190610e4e565b90915550506101aa54610d049062093a80610db7565b6101aa556101ab54610d2790610d1d9062093a80610dca565b6101ac5490610db7565b6101ac556101a9546101041115610d6757610d5e620186a0610d586201820f6101ab54610dca90919063ffffffff16565b90610dd6565b6101ab55610d6e565b60006101ab555b6101ab546101ac546040805142815260208101939093528201527f10636cc8bff36c7d54ed46ec7b5a256fb409c289793b1a21385aa0281a2db11c9060600160405180910390a1565b6000610dc38284610e4e565b9392505050565b6000610dc38284610e9f565b6000610dc38284610e66565b600060208284031215610df3578081fd5b813573ffffffffffffffffffffffffffffffffffffffff81168114610dc3578182fd5b600060208284031215610e27578081fd5b81518015158114610dc3578182fd5b600060208284031215610e47578081fd5b5035919050565b60008219821115610e6157610e61610f2c565b500190565b600082610e9a577f4e487b710000000000000000000000000000000000000000000000000000000081526012600452602481fd5b500490565b6000817fffffffffffffffffffffffffffffffffffffffffffffffffffffffffffffffff0483118215151615610ed757610ed7610f2c565b500290565b600082821015610eee57610eee610f2c565b500390565b60007fffffffffffffffffffffffffffffffffffffffffffffffffffffffffffffffff821415610f2557610f25610f2c565b5060010190565b7f4e487b7100000000000000000000000000000000000000000000000000000000600052601160045260246000fdfea264697066735822122067f7e8ed3ab465f9d965087c4eaf61311de8ad7f3cdf936f8dd85d671373b5c164736f6c63430008040033",
  "linkReferences": {},
  "deployedLinkReferences": {}
}