{"contracts/AirdropDistribution.sol":{"AirdropDistribution":{"abi":[{"inputs":[{"internalType":"contract IERC20","name":"_mainToken","type":"address"},{"internalType":"contract IVesting","name":"_vestLock","type":"address"}],"stateMutability":"nonpayable","type":"constructor"},{"anonymous":false,"inputs":[{"indexed":false,"internalType":"address","name":"account","type":"address"}],"name":"Paused","type":"event"},{"anonymous":false,"inputs":[{"indexed":false,"internalType":"address","name":"account","type":"address"}],"name":"Unpaused","type":"event"},{"anonymous":false,"inputs":[{"indexed":true,"internalType":"address","name":"investor","type":"address"},{"indexed":false,"internalType":"uint256","name":"amount","type":"uint256"},{"indexed":false,"internalType":"uint256","name":"timeStamp","type":"uint256"}],"name":"Validated","type":"event"},{"anonymous":false,"inputs":[{"indexed":true,"internalType":"address","name":"investor","type":"address"},{"indexed":false,"internalType":"uint256","name":"amount","type":"uint256"},{"indexed":false,"internalType":"uint256","name":"timeStamp","type":"uint256"}],"name":"Vested","type":"event"},{"anonymous":false,"inputs":[{"indexed":false,"internalType":"uint256","name":"time","type":"uint256"},{"indexed":false,"internalType":"uint256","name":"rate","type":"uint256"},{"indexed":false,"internalType":"uint256","name":"supply","type":"uint256"}],"name":"updateMiningParameters","type":"event"},{"inputs":[{"internalType":"address","name":"","type":"address"}],"name":"airdrop","outputs":[{"internalType":"uint256","name":"amount","type":"uint256"},{"internalType":"uint256","name":"claimed","type":"uint256"},{"internalType":"uint256","name":"total_tokens","type":"uint256"},{"internalType":"uint256","name":"fraction","type":"uint256"}],"stateMutability":"view","type":"function"},{"inputs":[],"name":"available_supply","outputs":[{"internalType":"uint256","name":"","type":"uint256"}],"stateMutability":"view","type":"function"},{"inputs":[],"name":"claim","outputs":[],"stateMutability":"nonpayable","type":"function"},{"inputs":[{"internalType":"uint256","name":"_value","type":"uint256"}],"name":"claimExact","outputs":[],"stateMutability":"nonpayable","type":"function"},{"inputs":[],"name":"mainToken","outputs":[{"internalType":"contract IERC20","name":"","type":"address"}],"stateMutability":"view","type":"function"},{"inputs":[],"name":"miningEpoch","outputs":[{"internalType":"uint256","name":"","type":"uint256"}],"stateMutability":"view","type":"function"},{"inputs":[],"name":"paused","outputs":[{"internalType":"bool","name":"","type":"bool"}],"stateMutability":"view","type":"function"},{"inputs":[],"name":"rate","outputs":[{"internalType":"uint256","name":"","type":"uint256"}],"stateMutability":"view","type":"function"},{"inputs":[],"name":"startEpochTime","outputs":[{"internalType":"uint256","name":"","type":"uint256"}],"stateMutability":"view","type":"function"},{"inputs":[],"name":"updateEmission","outputs":[],"stateMutability":"nonpayable","type":"function"},{"inputs":[],"name":"validate","outputs":[],"stateMutability":"nonpayable","type":"function"},{"inputs":[{"internalType":"address","name":"","type":"address"}],"name":"validated","outputs":[{"internalType":"uint256","name":"","type":"uint256"}],"stateMutability":"view","type":"function"},{"inputs":[],"name":"vestLock","outputs":[{"internalType":"contract IVesting","name":"","type":"address"}],"stateMutability":"view","type":"function"}],"evm":{"bytecode":{"linkReferences":{},"object":"611ac06040527328d6037edeaf8ec2c91c9b2cf9a1643111d8f198608090815273cfc50541c3deaf725ce738ef87ace2ad778ba0c560a05273f9e11762d522ea29dd78178c9baf83b7b093aacc60c05273ed60d8590019e5e145ea81455c01f3e817fe54eb60e05273052564eb0fd8b340803df55def89c25c432f43f4610100527321f3b2c8646b4ffa809406bb31de325a3e5e9b9f6101205273d9a93390c487b954eb1ad4c8a4acc738404098696101405273e15dd1510e39e9980c0dc47e404eb7298872bc6461016052733ba21b6477f48273f41d241aa3722ffb9e07e24761018052732326d4fb2737666dda96bd6314e3d4418246cfe86101a05273a0f75491720835b36edc92d06ddc468d201e9b736101c05273ac6559df1f410feba9a6cbf395272189461d84636101e05273ae60c874ee07f44fb7bbbd1a5087cdb66e90bed86102005273600b8a34ec1cfd8b8af78cfc49708419a16ea2e8610220527389689db564bf4b67bd7116b3f71e68a379faad986102405273caedcaafe4c596e89704c5e6b499b8d3474f750f6102605273bc90b3ce40fc3ed921d910f3e046c65954fff7cb6102805273303985ba2209b5c0c745885fa6fdd2ec1feb81a56102a052733991adbdf461d6817734555efdc8ef056fefbf216102c05273adeeb9d09b8bcee10943198fb6f6a4229bab36756102e05273b9a954bf995bdeacbdfe4b1f5f85cd6122c6e341610300527386af94e5e8d3d583575bbafdd2dcb6b898a555e46103205273270d2924ca13f54632601647fb225db8eb61fb49610340527302e05dbbf4df5d17cb3a0140f9643fe68cc4ae396103605273d8d3d8ab22e30c5402ab2a2e216a4a53f4e09e9e610380527328a55c4b4f9615fde3cdaddf6cc01fcf2e38a6b06103a0527378bc49be7bae5e0eec08780c86f0e8278b8b035b6103c05273f0e12c7218cb38df7a3a231bb91ee82f732625b66103e0527399eb33756a2eaa32f5964a747722c4b59e6af3516104005273b0ff496df3860504ebdff61590a13c1d810c97cc610420527340d2ce4c14f04bd91c59c6a1cd6e28f2a0fc81f86104405273f07f2b6c340d8d303615710451c11e93fe56774d61046052736979b914f3a1d8c0fec2c1fd602f0e674cdf9862610480527390be4e1da4bb2f464576749abac99774148bc9a26104a05273681148725731f213b0187a3cbef215c291d85a3e6104c052731678b549be696b1dfce9f0639d996a82409e1ea16104e052734f58985b75eec8f14c536878a19eadf4a1960d6c610500527355b9c56668365d11f5af18e8b7232bc6e4d206586105205273a423fe4cfb811e9cf6a61a02e80e372c0970d4b061054052737432b5212f19af018b33b73a55d1996960e59c5161056052730af14239faa4f19034f3334502ed592b0083e10861058052739fa933f60bcc5e63f75f210929839f91f55b919c6105a05273b680f628c56c8fa368dacbb0c27beef8c98355b96105c052734ec7cdf61405758f5ced5e454c0b4b0f4f043df06105e05273fca7c5cf95821f3d45b9949de6e2846d66af819f6106005273a7758b30e93d2ed6cea7c85e5b12a1d46f0f091f610620527384740f97aea62c5dc36756dfd9f749412534220e6106405273ce968c0fc101c4fb8e08eb5db73e7e169a2a35626106605273c151ae135f50aabe78e0b9d13a90fbb2d648aabb6106805273975f5ffb9c3b624351634889944355d47ab8a3676106a052739b5ea8c719e29a5bd0959faf79c9e5c8206d04996106c05273f1fb5dea21337feb46963c29d04a95f6ca8b71e66106e0527371f12a5b0e60d2ff8a87fd34e7dcff3c10c914b06107005273918a97ad195dd111c54ea82e2f8b8d22e9f48726610720527325431341a5800759268a6ac1d3cd91c029d7d9ca610740527352ad87832400485de7e7dc965d8ad890f4e826996107605273f38140985b5a5746f160f133049e83f79cc0b8196107805273be93d14c5defb8f41af8fb092f58e3c71c712b856107a05273a0a6dc36041fb386378458006fecbddd02555ddd6107c052735f82c97e9b1755237692a946ae814998bc0e21246107e05273dd709cae362972cb3b92dcead77127f7b8d5820261080052738b7b509c01838a0d197a8154c5bf00a3f56ff6156108205273640e0118b2c5a3c0ea29b94a62d9108ce2c6ced761084052731b51cce51e2531c478daa9b68eb80d47247dcbec6108605273cca71809e8870afeb72c4720d0fe50d5c3230e0561088052732de640a18fe3480aa802aca91f70177ada1033916108a0527314ce500a86f1e3ace039571e657783e0696436176108c052736019d32e59ef480f2215ee9773ae507645b47bdc6108e05273b67d92dc830f1a24e4bffd1a6794fcf8f497c7de61090052736f9bb7e454f5b3eb2310343f0e99269dc2bb8a1d6109205273e95d3daba7495d42dcc20810f33eeb5207512a9f610940527339c09fdc4e5c5ab72f6319ddbc2cae40e67b2a606109605273fadafce89ea2221fa33005640acf2c923312f2b961098052737122fc3588fb9e9b93b7c42ba02fc85ef15c442b6109a0527325afd857c7831c91951cd94ba63af237d28604d06109c052736fcf92925e0281d957b0076d3751cad76916c96b6109e05273d026bfdb74fe1baf1e1f1058f0d008cd1eeed8b5610a005273bdc38612397355e10a2d6dd697a92f35bf1c9935610a205273339dab47bdd20b4c05950c4306821896cfb1ff1a610a4052731ebb814c9ef016e6012be299ed834f1ddced1529610a605273f625dca051b5ae56f684c072c09969c9aa91478a610a8052735ebdc5c097f9378c3113dc2f9e8b51246e641896610aa05273d45fbd8f2b0a84743d2606de8094f86fac5b6ed3610ac052733e89f0ecacdc9b1f8bb892367610cad0ce421c92610ae05273c77c0edc7067a76972481484b87c1226e410547c610b0052730f763341b448bb0f02370f4037fe4a2c84c9283f610b20527235fc5208ef989c28d47e552e92b0c507d2b318610b405273b8c30017b375bf675c2836c4c6b6ed5be214739d610b605273286ed1111c29592cc6240194b8d66e64b1c05e50610b8052734cd52b37fddd19ccd24b0d0e9a048785c7aafcef610ba052730d779d67a428457cabec145a0f94703d14cd496b610bc05271a441fbb1fbaadf246539bf253a42abd31494610be05273ecb949c68c825650fd9d0aebe0cd3796fd126e66610c0052738c4d5f3eac04072245654e0ba480f1a5e1d91dd5610c205273fca32b89d0981e69c8dadcdcc0668b0e01c810cf610c40527322fa8cc33a42320385cbd3690ed60a021891cb32610c60527323be060093db74f38b1a3daf57afdc1a23db0077610c805273fc80d0867822b8ed010bafcc195c21617c01f943610ca05273526c7665c5dd9cd7102c6d42d407a0d9dc1e431d610cc052736c5384bbae7af65ed1b6784213a81dae18e528b2610ce05273ae667ed58c0d9198fc0b9261156d48296c1bb3da610d005273e1de283eab72a68f7ff972fca13f8953c6e15e51610d205273dae88e81e10d848ba6b0ad64b19783e807064696610d4052730a8a06071c878df9ec2b5f9663a4b08b0f8c08f4610d6052733e95fef1176acf5e5d2ef67d9c856e4ecac73e1f610d8052739c3c75c9d269aa8282bde7be3352d81cc91c2b6a610da05273d72b03b7f2e0b8d92b868e73e12b1f888befbeda610dc05273c23ef3adf050f4ca50b30998d37eb6464e387577610de05273d56705548111f08ccb3e1a73806c53dc706f2e75610e00527332802f989b4348a51dd0e61d23b78be1a0543469610e205273c7ca02dc88a2750031dc04515438c3a505bcc994610e4052731eccd61c9fa53a8d2e823a26cd72a7efd7d0e92e610e605273a53a6fe2d8ad977ad926c485343ba39f32d3a3f6610e8052736b30e020e9517c519c408f51c2593e12d55b55fa610ea0527357d1e246d2e32f6f9d10ec55fc41e8b2e2988308610ec05273ed557994671ddda053a582e73f2e8aa32bde7d68610ee05273cea077172675bf31e879bba71fb46c3188591070610f0052733fc925e779f148f2d843cfd63296e5e12c36d632610f205273c369b30c8ec960260631e20081a32e4c61e5ea9d610f4052738d4bfe71379a197ae0c3ea8b41b75f30294d6afb610f605273455d7eb74860d0937423b9184f9e8461aa354ebb610f80527314559df3fbe66cab6f893d8dd53f7bfe68de9c65610fa05273238f24101876377e9178d125d0747de7fad9c3b2610fc052734bb633f0e7e0f3fbc95a7f7fd223652882977573610fe052739bdfaeb9cb28dc05b09b37c0f14ecbc9a876cee061100052737904adb48351af7b835cb061316795d5226b7f1a6110205273f96da4775776ea43c42795b116c7a6eccd6e71b56110405273418efa84214f9810af9119909d5bee2c56ebd5eb61106052732c9db5597a4a9d2ba6780cd9722e25a9140552ee6110805273e1163dcfb598f74da146a83cc878731d553abbfe6110a052730991d02f28a5283338e9591cbf7de2eb25da46cd6110c052737374bb48a5fdc16c9b216f3fcc60b105c73d18066110e05273e4f9e812fe379128f17258a2b3db7cf28613f19061110052732ca3a2b525e75b2f20f59deccae3ffa4bdf3eaa261112052738522885d735f75b3faeea5cd39ab3d1291da2c776111405273a4bd4e4d2e8c72720839823f6c20f411f7ddb1f161116052731729f93e3c3c74b503b8130516984ced70bf47d9611180527394da725dba289b96f115ec955adcaaa806d2085d6111a0527338857ed3a8fc5951289e58e20fb56a00e88f0bbd6111c05273767d222a509d107522e50161ca17ffcf0e5aa3de6111e05273a4f2b2557d78e31d48e1ffa8af8b25db8524ea3c6112005273dec1bcdf22a6e77f10e3bf7df8a5f6a6a38e63766112205273c1a0fc4a40253b04a1ae2f40655d73b16caf268c6112405273285e4f019a531e20f673b634d31922d40897079861126052732848b9f2d4faebaa4838c41071684c70688b455d6112805273a734288da3ace7f9a5e5caa6df929126f2e67d526112a05273d18001f022154654149ed45888c9c29def6d3ce66112c052737ea1a45f0657d2dbd77839a916ab83112bdb55906112e05273058b10cbe1872ad139b00326686ee8ccef274c586113005273c78ce4e51611ed720ec96bf584bf1b1658fd23796113205273fbed5277e524113df313f9f6b29fde8677f4e9366113405273a652565db815ad3b138fd98830d14cfd1826693a611360527343e553fc1d064c125764e9d534a4f7d89b9bb1be61138052731712fddc84efa346d51261f0fa5a809ff457abdc6113a05273d0a5266b2515c3b575e30cbc0cfc775fa4fc66606113c05273507e964a2fabe1921278b640b0813a56268441456113e0527351a7ead10340af963c3124b026b86dd2807c2b1c6114005273215d67998dacd9da4118e4a4899bec60b79987a061142052738fc548b6b071bf0f2fe64ad1aa6032a6d20373666114405273102902245322aad61d55cfad8213472a5702a59361146052734b4de68ef03ae45c0d1026801da71258ddc6bcf6611480527332a59b87352e980dd6ab1baf462696d28e63525d6114a05273e582794320fa7424a1f9db360a46446244065cb56114c05273d71c552a4954673a30893bf1db0a77f1afa1accd6114e05273ee4a267e98260acf829ca9dc6c9f3d5d82183bce611500527354683a50f0d2b3f3d1b32780524ae01aa1a583c26115205273dc34f2a567dfe0e7512108b24ecea2d92754751c6115405273d09c6b71b1a7841e7dfb244d90d2a146201bf78b6115605273bb48c430c3ca821755547e514a8fe9cc82bdd97561158052737f326ea697ef0dd2bbd628b62f569017c1d43fcb6115a052737f048fe4176ab39e225907f777f658a6efdd42ce6115c0527366ea1467282fff8df570a1f732f0c6ab8749154e6115e05273c1cad6df277106222dd45cf5b0300fbd4d1193d56116005273963d071201275fd5fa3dc9bb34fd3d0275ba97a761162052730707fd320c96b54182475b22a9d47b4045e746686116405273fe2353c808f2409ccb81508005a62cef294577066116605273e580ab95ebe6156c9717e20d513dd788b341934c61168052734ec355d5780c9554ebdf1b40e9734a573d81052c6116a052733ddbbbb4c18f1e745a3f65ffc84e9197629ac6b46116c0527305c0f2d1978a1da91e5d82b8935c610b3f93f36b6116e052735221ce255906a61cf3dc2506143cd38d46a92be16117005273573fa57407bb0e4b761dbe801b5cbd160a8e8c2161172052734dacd010e15e220bc6c5c3210d166505d2b6c63a61174052732fa26ad1bfae9e66b5c3f364a9e8ecec8520db4a6117605273a357cb3ce710a4f90fb9d56979c2c3634e3965ba61178052731b74fcf3a084d13a9d910db124692519889854136117a05273a948de8a9205f1fe473490d2114c6616a90fd8d66117c05273101d5810f8841bce68cb3e8cfbadb3f8c71fdff06117e052739f7610115501abd147d1d82ce92cea2a716690ed6118005273f600fd970bc2054d81afb1646b50531d7567b22c611820527359cc72743488aa24caa92a521e74e633bb1f9096611840527320bfffdb086d35e1ee06b1e0beb849ee0a0e945c6118605273a2040d6b10595ecba2f751737b4a931a868f065561188052730900a13fb9382c6668a74500ccce70eb96385e0c6118a0527333d01f8baa2319882440fe8cf2978fb137b59dc16118c052737329c9ead9b5bb0ad240b75c3cfdc2828ac2efcf6118e0527377cb8c64e42ea076594a0c1e08115d8444fa9fac6119005273228a671629be7a9436019af909a1629c94bf4caf61192052737ff3552031c441f3f01aedeb0c2c680fba6dd5df61194052732d52f7bae61912f7217351443ea8a226996a3def61196052736bac48867bc94ff20b4c62b21d484a44d04d342c6119805273a42830ee059c77caf8c8200b44aa9813cb0720c56119a05273f88d3412764873872ab1fded5f168a6c1a3bf7bb6119c052733aa667d05a6aa1115cf4a533c29bb538acd1300c6119e05273b92667e34cb6753449adf464f18ce1833caf26e0611a0052737bfee91193d9df2ac0bfe90191d40f23c773c060611a2052731f0a6d7db80e0c5af146fdb836e04fac0b1e8202611a4052732053e0218793eec7107ec50b09b696d4431c1ff8611a605273b8c2c00cc883d087c0cbd443cec51a4d04f8b147611a805273c8e99dd497ae1fc981c1dd48f49fb804fbfcb99d611aa052620014929060029060d262001df4565b5060408051611a4081018252624192b48152621a5f6660208201526216f7ed9181019190915262145323606080830191909152620b19d260808301526202c81360a0830152620b748260c08301526209899c60e08301526207b4b561010083015262071c0c610120830152620768dd61014080840191909152620609bd61016084015261f8856101808085019190915262044e4e6101a085015262052fdb6101c0850152620100966101e08501526202cfba610200850152620400c96102208501526203a59a610240850152620326266102608501526203359a6102808501526202efa96102a0850152620303276102c08501526201034b6102e08501526202a36961030085015262026a40610320850152620252c1610340850152620289f1610360850152620290b5610380850152618f8b6103a08501526112986103c08501526201ccc16103e08501526201b2536104008501526201ad4a61042085015262015f2a610440850152620170b661046085015262014d4b610480850152620142876104a085015262013d516104c085015262013c606104e085015262010c2061050085015261fa8a61052085015261f3df61054085015261e8fc61056085015261f54f61058085015261eec96105a085015261d78b6105c085015261cacb6105e085015261bcb161060085015261b91361062085015261b13161064085015261aea661066085015261a9c361068085015261aacd6106a085015261a6c46106c0850152619e186106e085015261ab52610700850152618e9a61072085015261025961074085015261841e610760850152617f6461078085015261021e6107a0850152617c1d6107c0850152616f106107e085015261532b6108008501526164376108208501526163106108408501526162aa610860850152615c27610880850152615b466108a0850152615b7e6108c08501526153756108e0850152614e2c610900850152614dcf610920850152614b28610940850152614cb66109608501526149c46109808501526142ed6109a08501526140ff6109c0850152613be96109e08501526139b5610a008501526139e8610a20850152613934610a408501526131d8610a608501526130d7610a808501526009610aa0850152612fb0610ac085015261082c610ae08501819052612e53610b00860152612d98610b20860152612bb8610b40860152612851610b6086015261065d610b8086015261283f610ba0860152612543610bc08601526123f0610be086015261239b610c00860152610f55610c208601526122be610c40860152612153610c608601526120cf610c80860152611fd7610ca0860152611df1610cc0860152611dd2610ce086015260a5610d00860152610253610d20860152611ad1610d4086015261197a610d60860152611960610d808601819052611936610da08701526118e6610dc0870152610f78610de087015261026e610e00870152611769610e20870152611753610e4087015261172a610e608701819052610e8087015261165a610ea087015261160d610ec0870152607b610ee08701526113f1610f008701526113b0610f2087015261032d610f408701526108ac610f6087015261120a610f80870152611182610fa0870152611160610fc0870181905261115f610fe088015260e9611000880152611019611020880152610f17611040880152610ef9611060880152610f23611080880152610efc6110a0880152610e366110c0880152610de66110e0880152610ca9611100880152610b9561112088018190526111408801819052602291880182905261118088018190526111a0880152610a8b6111c0880152610a7f6111e0880152608b61120088015261094461122088015261085261124088015261126087019390935261087c6112808701526112a08601919091526108236112c086015261013a6112e086015261081b6113008601526101db6113208601526106e961134086018190526113608601526106176113808601526105e76113a08601526105d26113c08601526105ca6113e086015260f86114008601526105516114208601526104e36114408601526104dd61146086015261049c61148086018190526114a086015260de6114c08601526103f26114e08601526103c56115008601526103b361152086015261037961154086015261026c611560860152601c61158086015261032a6115a08601526102ff6115c086015261026b6115e08601526116008501939093526102516116208501526101ee61164085015260dd6116608501526101da61168085015260546116a08501526116c08401919091526101bd6116e084015261016a611700840152603861172084015261014b61174084015261011861176084015261011061178084015260266117a08401526117c083015260056117e08301526076611800830152601161182083015260596118408301526058611860830152603b61188083015260086118a083015260016118c0830152601e6118e0830152601d6119008301526207b3d961192083015262068fb661194083015261988590820152613b536119808201526120536119a0820152620227f76119c082015260c36119e08201526201b9d6611a00820152620142b7611a2082015262001c219060d49060d262001e51565b506a10ad0bca349e3bb80000006101a85534801562001c3f57600080fd5b5060405162002ee238038062002ee283398101604081905262001c629162001ec9565b6000805460ff19169055600180556001600160a01b03821662001cbe5760405162461bcd60e51b815260206004820152600f60248201526e496e76616c6964206164647265737360881b60448201526064015b60405180910390fd5b6001600160a01b03811662001d085760405162461bcd60e51b815260206004820152600f60248201526e496e76616c6964206164647265737360881b604482015260640162001cb5565b6101ad80546001600160a01b038085166001600160a01b0319928316179092556101ae80549284169290911691909117905562001d5362093a8069345c1991a5c71cb8000062001f07565b6101ab55426101aa556101ad546101ae5460405163095ea7b360e01b81526001600160a01b039182166004820152600019602482015291169063095ea7b390604401602060405180830381600087803b15801562001db057600080fd5b505af115801562001dc5573d6000803e3d6000fd5b505050506040513d601f19601f8201168201806040525081019062001deb919062001ea0565b50505062001f41565b8260d2810192821562001e3f579160200282015b8281111562001e3f57825182546001600160a01b0319166001600160a01b0390911617825560209092019160019091019062001e08565b5062001e4d92915062001e89565b5090565b8260d2810192821562001e3f579160200282015b8281111562001e3f578251829062ffffff1690559160200191906001019062001e65565b5b8082111562001e4d576000815560010162001e8a565b60006020828403121562001eb2578081fd5b8151801515811462001ec2578182fd5b9392505050565b6000806040838503121562001edc578081fd5b825162001ee98162001f28565b602084015190925062001efc8162001f28565b809150509250929050565b60008262001f2357634e487b7160e01b81526012600452602481fd5b500490565b6001600160a01b038116811462001f3e57600080fd5b50565b610f918062001f516000396000f3fe608060405234801561001057600080fd5b50600436106100df5760003560e01c80634e71d92d1161008c57806364ef6dd41161006657806364ef6dd4146101ea5780636901f668146101f4578063c4121545146101fc578063f8e47cd61461021d57600080fd5b80634e71d92d146101c45780635c975abb146101cc5780635dc93e1d146101e257600080fd5b806324f92a25116100bd57806324f92a251461016c5780632c4e722e146101745780633fc15f151461017e57600080fd5b806306a82ce1146100e45780631814a5b1146100f957806321860a0514610116575b600080fd5b6100f76100f2366004610e36565b61023e565b005b6101036101aa5481565b6040519081526020015b60405180910390f35b61014c610124366004610de2565b6101a66020526000908152604090208054600182015460028301546003909301549192909184565b60408051948552602085019390935291830152606082015260800161010d565b61010361050e565b6101036101ab5481565b6101ad5461019f9073ffffffffffffffffffffffffffffffffffffffff1681565b60405173ffffffffffffffffffffffffffffffffffffffff909116815260200161010d565b6100f7610587565b60005460ff16604051901515815260200161010d565b6100f7610998565b6101036101a95481565b6100f7610a1b565b6101ae5461019f9073ffffffffffffffffffffffffffffffffffffffff1681565b61010361022b366004610de2565b6101a76020526000908152604090205481565b610246610c4e565b3361025057600080fd5b3360009081526101a6602052604090205461026a57600080fd5b600061027461050e565b3360009081526101a6602052604081206003015491925090670de0b6b3a7640000906102a09084610e9f565b6102aa9190610e66565b3360009081526101a66020526040902060010154909150156102e7573360009081526101a660205260409020600101546102e49082610edc565b90505b3360009081526101a6602052604090205481111561030457600080fd5b8083111561031157600080fd5b3360009081526101a6602052604081208054859290610331908490610edc565b90915550503360009081526101a6602052604081206001018054859290610359908490610e4e565b9091555060009050600a61036e856003610e9f565b6103789190610e66565b6101ad546040517fa9059cbb0000000000000000000000000000000000000000000000000000000081523360048201526024810183905291925073ffffffffffffffffffffffffffffffffffffffff169063a9059cbb90604401602060405180830381600087803b1580156103ec57600080fd5b505af1158015610400573d6000803e3d6000fd5b505050506040513d601f19601f820116820180604052508101906104249190610e16565b5060006104318286610edc565b6101ae546040517f2546de10000000000000000000000000000000000000000000000000000000008152336004820152602481018390526000604482015291925073ffffffffffffffffffffffffffffffffffffffff1690632546de1090606401600060405180830381600087803b1580156104ac57600080fd5b505af11580156104c0573d6000803e3d6000fd5b5050604080518881524260208201523393507ffbeff59d2bfda0d79ea8a29f8c57c66d48c7a13eabbdb90908d9115ec41c9dc692500160405180910390a25050505061050b60018055565b50565b600062093a806101aa54426105239190610edc565b1115610558577f4e487b7100000000000000000000000000000000000000000000000000000000600052600160045260246000fd5b6101ab546101aa5461056a9042610edc565b6105749190610e9f565b6101ac546105829190610e4e565b905090565b61058f610c4e565b3361059957600080fd5b3360009081526101a76020526040902054600114610618576040517f08c379a000000000000000000000000000000000000000000000000000000000815260206004820152601f60248201527f41646472657373206e6f742076616c69646174656420746f20636c61696d2e0060448201526064015b60405180910390fd5b3360009081526101a6602052604090205461063257600080fd5b600061063c61050e565b9050600081116106a8576040517f08c379a000000000000000000000000000000000000000000000000000000000815260206004820152601860248201527f4e6f7468696e6720636c61696d61626c6520287965743f290000000000000000604482015260640161060f565b3360009081526101a66020526040812060030154670de0b6b3a7640000906106d09084610e9f565b6106da9190610e66565b905060008111610713577f4e487b7100000000000000000000000000000000000000000000000000000000600052600160045260246000fd5b3360009081526101a660205260409020600101541561074d573360009081526101a6602052604090206001015461074a9082610edc565b90505b3360009081526101a66020526040902054610769908290610edc565b61079c577f4e487b7100000000000000000000000000000000000000000000000000000000600052600160045260246000fd5b3360009081526101a66020526040812080548392906107bc908490610edc565b90915550503360009081526101a66020526040812060010180548392906107e4908490610e4e565b9091555060009050600a6107f9836003610e9f565b6108039190610e66565b6101ad546040517fa9059cbb0000000000000000000000000000000000000000000000000000000081523360048201526024810183905291925073ffffffffffffffffffffffffffffffffffffffff169063a9059cbb90604401602060405180830381600087803b15801561087757600080fd5b505af115801561088b573d6000803e3d6000fd5b505050506040513d601f19601f820116820180604052508101906108af9190610e16565b5060006108bc8284610edc565b6101ae546040517f2546de10000000000000000000000000000000000000000000000000000000008152336004820152602481018390526000604482015291925073ffffffffffffffffffffffffffffffffffffffff1690632546de1090606401600060405180830381600087803b15801561093757600080fd5b505af115801561094b573d6000803e3d6000fd5b5050604080518681524260208201523393507ffbeff59d2bfda0d79ea8a29f8c57c66d48c7a13eabbdb90908d9115ec41c9dc692500160405180910390a25050505061099660018055565b565b62093a806101aa546109aa9190610e4e565b421015610a13576040517f08c379a000000000000000000000000000000000000000000000000000000000815260206004820152600860248201527f546f6f20736f6f6e000000000000000000000000000000000000000000000000604482015260640161060f565b610996610cc2565b610a23610c4e565b33610a2d57600080fd5b3360009081526101a6602052604090205415610aa5576040517f08c379a000000000000000000000000000000000000000000000000000000000815260206004820152601260248201527f416c72656164792076616c6964617465642e0000000000000000000000000000604482015260640161060f565b60005b60d2811015610c44573360028260d28110610aec577f4e487b7100000000000000000000000000000000000000000000000000000000600052603260045260246000fd5b015473ffffffffffffffffffffffffffffffffffffffff161415610c3257600060d48260d28110610b46577f4e487b7100000000000000000000000000000000000000000000000000000000600052603260045260246000fd5b0154610b5a90670de0b6b3a7640000610e9f565b905060006040518060800160405280838152602001600081526020018381526020016101a85484670de0b6b3a7640000610b949190610e9f565b610b9e9190610e66565b90523360008181526101a660209081526040808320855181558286015160018083019190915582870151600283015560608701516003909201919091556101a7909252918290205551919250907f09858c35f1ffd3d303d6b053271b64edfb9fd54d71ea43480aa71fb08dabb5fd90610c239085904290918252602082015260400190565b60405180910390a25050610c44565b80610c3c81610ef3565b915050610aa8565b5061099660018055565b60026001541415610cbb576040517f08c379a000000000000000000000000000000000000000000000000000000000815260206004820152601f60248201527f5265656e7472616e637947756172643a207265656e7472616e742063616c6c00604482015260640161060f565b6002600155565b62093a806101aa54610cd49190610e4e565b42106109965760016101a96000828254610cee9190610e4e565b90915550506101aa54610d049062093a80610db7565b6101aa556101ab54610d2790610d1d9062093a80610dca565b6101ac5490610db7565b6101ac556101a9546101041115610d6757610d5e620186a0610d586201820f6101ab54610dca90919063ffffffff16565b90610dd6565b6101ab55610d6e565b60006101ab555b6101ab546101ac546040805142815260208101939093528201527f10636cc8bff36c7d54ed46ec7b5a256fb409c289793b1a21385aa0281a2db11c9060600160405180910390a1565b6000610dc38284610e4e565b9392505050565b6000610dc38284610e9f565b6000610dc38284610e66565b600060208284031215610df3578081fd5b813573ffffffffffffffffffffffffffffffffffffffff81168114610dc3578182fd5b600060208284031215610e27578081fd5b81518015158114610dc3578182fd5b600060208284031215610e47578081fd5b5035919050565b60008219821115610e6157610e61610f2c565b500190565b600082610e9a577f4e487b710000000000000000000000000000000000000000000000000000000081526012600452602481fd5b500490565b6000817fffffffffffffffffffffffffffffffffffffffffffffffffffffffffffffffff0483118215151615610ed757610ed7610f2c565b500290565b600082821015610eee57610eee610f2c565b500390565b60007fffffffffffffffffffffffffffffffffffffffffffffffffffffffffffffffff821415610f2557610f25610f2c565b5060010190565b7f4e487b7100000000000000000000000000000000000000000000000000000000600052601160045260246000fdfea264697066735822122067f7e8ed3ab465f9d965087c4eaf61311de8ad7f3cdf936f8dd85d671373b5c164736f6c63430008040033","opcodes":"PUSH2 0x1AC0 PUSH1 0x40 MSTORE PUSH20 0x28D6037EDEAF8EC2C91C9B2CF9A1643111D8F198 PUSH1 0x80 SWAP1 DUP2 MSTORE PUSH20 0xCFC50541C3DEAF725CE738EF87ACE2AD778BA0C5 PUSH1 0xA0 MSTORE PUSH20 0xF9E11762D522EA29DD78178C9BAF83B7B093AACC PUSH1 0xC0 MSTORE PUSH20 0xED60D8590019E5E145EA81455C01F3E817FE54EB PUSH1 0xE0 MSTORE PUSH20 0x52564EB0FD8B340803DF55DEF89C25C432F43F4 PUSH2 0x100 MSTORE PUSH20 0x21F3B2C8646B4FFA809406BB31DE325A3E5E9B9F PUSH2 0x120 MSTORE PUSH20 0xD9A93390C487B954EB1AD4C8A4ACC73840409869 PUSH2 0x140 MSTORE PUSH20 0xE15DD1510E39E9980C0DC47E404EB7298872BC64 PUSH2 0x160 MSTORE PUSH20 0x3BA21B6477F48273F41D241AA3722FFB9E07E247 PUSH2 0x180 MSTORE PUSH20 0x2326D4FB2737666DDA96BD6314E3D4418246CFE8 PUSH2 0x1A0 MSTORE PUSH20 0xA0F75491720835B36EDC92D06DDC468D201E9B73 PUSH2 0x1C0 MSTORE PUSH20 0xAC6559DF1F410FEBA9A6CBF395272189461D8463 PUSH2 0x1E0 MSTORE PUSH20 0xAE60C874EE07F44FB7BBBD1A5087CDB66E90BED8 PUSH2 0x200 MSTORE PUSH20 0x600B8A34EC1CFD8B8AF78CFC49708419A16EA2E8 PUSH2 0x220 MSTORE PUSH20 0x89689DB564BF4B67BD7116B3F71E68A379FAAD98 PUSH2 0x240 MSTORE PUSH20 0xCAEDCAAFE4C596E89704C5E6B499B8D3474F750F PUSH2 0x260 MSTORE PUSH20 0xBC90B3CE40FC3ED921D910F3E046C65954FFF7CB PUSH2 0x280 MSTORE PUSH20 0x303985BA2209B5C0C745885FA6FDD2EC1FEB81A5 PUSH2 0x2A0 MSTORE PUSH20 0x3991ADBDF461D6817734555EFDC8EF056FEFBF21 PUSH2 0x2C0 MSTORE PUSH20 0xADEEB9D09B8BCEE10943198FB6F6A4229BAB3675 PUSH2 0x2E0 MSTORE PUSH20 0xB9A954BF995BDEACBDFE4B1F5F85CD6122C6E341 PUSH2 0x300 MSTORE PUSH20 0x86AF94E5E8D3D583575BBAFDD2DCB6B898A555E4 PUSH2 0x320 MSTORE PUSH20 0x270D2924CA13F54632601647FB225DB8EB61FB49 PUSH2 0x340 MSTORE PUSH20 0x2E05DBBF4DF5D17CB3A0140F9643FE68CC4AE39 PUSH2 0x360 MSTORE PUSH20 0xD8D3D8AB22E30C5402AB2A2E216A4A53F4E09E9E PUSH2 0x380 MSTORE PUSH20 0x28A55C4B4F9615FDE3CDADDF6CC01FCF2E38A6B0 PUSH2 0x3A0 MSTORE PUSH20 0x78BC49BE7BAE5E0EEC08780C86F0E8278B8B035B PUSH2 0x3C0 MSTORE PUSH20 0xF0E12C7218CB38DF7A3A231BB91EE82F732625B6 PUSH2 0x3E0 MSTORE PUSH20 0x99EB33756A2EAA32F5964A747722C4B59E6AF351 PUSH2 0x400 MSTORE PUSH20 0xB0FF496DF3860504EBDFF61590A13C1D810C97CC PUSH2 0x420 MSTORE PUSH20 0x40D2CE4C14F04BD91C59C6A1CD6E28F2A0FC81F8 PUSH2 0x440 MSTORE PUSH20 0xF07F2B6C340D8D303615710451C11E93FE56774D PUSH2 0x460 MSTORE PUSH20 0x6979B914F3A1D8C0FEC2C1FD602F0E674CDF9862 PUSH2 0x480 MSTORE PUSH20 0x90BE4E1DA4BB2F464576749ABAC99774148BC9A2 PUSH2 0x4A0 MSTORE PUSH20 0x681148725731F213B0187A3CBEF215C291D85A3E PUSH2 0x4C0 MSTORE PUSH20 0x1678B549BE696B1DFCE9F0639D996A82409E1EA1 PUSH2 0x4E0 MSTORE PUSH20 0x4F58985B75EEC8F14C536878A19EADF4A1960D6C PUSH2 0x500 MSTORE PUSH20 0x55B9C56668365D11F5AF18E8B7232BC6E4D20658 PUSH2 0x520 MSTORE PUSH20 0xA423FE4CFB811E9CF6A61A02E80E372C0970D4B0 PUSH2 0x540 MSTORE PUSH20 0x7432B5212F19AF018B33B73A55D1996960E59C51 PUSH2 0x560 MSTORE PUSH20 0xAF14239FAA4F19034F3334502ED592B0083E108 PUSH2 0x580 MSTORE PUSH20 0x9FA933F60BCC5E63F75F210929839F91F55B919C PUSH2 0x5A0 MSTORE PUSH20 0xB680F628C56C8FA368DACBB0C27BEEF8C98355B9 PUSH2 0x5C0 MSTORE PUSH20 0x4EC7CDF61405758F5CED5E454C0B4B0F4F043DF0 PUSH2 0x5E0 MSTORE PUSH20 0xFCA7C5CF95821F3D45B9949DE6E2846D66AF819F PUSH2 0x600 MSTORE PUSH20 0xA7758B30E93D2ED6CEA7C85E5B12A1D46F0F091F PUSH2 0x620 MSTORE PUSH20 0x84740F97AEA62C5DC36756DFD9F749412534220E PUSH2 0x640 MSTORE PUSH20 0xCE968C0FC101C4FB8E08EB5DB73E7E169A2A3562 PUSH2 0x660 MSTORE PUSH20 0xC151AE135F50AABE78E0B9D13A90FBB2D648AABB PUSH2 0x680 MSTORE PUSH20 0x975F5FFB9C3B624351634889944355D47AB8A367 PUSH2 0x6A0 MSTORE PUSH20 0x9B5EA8C719E29A5BD0959FAF79C9E5C8206D0499 PUSH2 0x6C0 MSTORE PUSH20 0xF1FB5DEA21337FEB46963C29D04A95F6CA8B71E6 PUSH2 0x6E0 MSTORE PUSH20 0x71F12A5B0E60D2FF8A87FD34E7DCFF3C10C914B0 PUSH2 0x700 MSTORE PUSH20 0x918A97AD195DD111C54EA82E2F8B8D22E9F48726 PUSH2 0x720 MSTORE PUSH20 0x25431341A5800759268A6AC1D3CD91C029D7D9CA PUSH2 0x740 MSTORE PUSH20 0x52AD87832400485DE7E7DC965D8AD890F4E82699 PUSH2 0x760 MSTORE PUSH20 0xF38140985B5A5746F160F133049E83F79CC0B819 PUSH2 0x780 MSTORE PUSH20 0xBE93D14C5DEFB8F41AF8FB092F58E3C71C712B85 PUSH2 0x7A0 MSTORE PUSH20 0xA0A6DC36041FB386378458006FECBDDD02555DDD PUSH2 0x7C0 MSTORE PUSH20 0x5F82C97E9B1755237692A946AE814998BC0E2124 PUSH2 0x7E0 MSTORE PUSH20 0xDD709CAE362972CB3B92DCEAD77127F7B8D58202 PUSH2 0x800 MSTORE PUSH20 0x8B7B509C01838A0D197A8154C5BF00A3F56FF615 PUSH2 0x820 MSTORE PUSH20 0x640E0118B2C5A3C0EA29B94A62D9108CE2C6CED7 PUSH2 0x840 MSTORE PUSH20 0x1B51CCE51E2531C478DAA9B68EB80D47247DCBEC PUSH2 0x860 MSTORE PUSH20 0xCCA71809E8870AFEB72C4720D0FE50D5C3230E05 PUSH2 0x880 MSTORE PUSH20 0x2DE640A18FE3480AA802ACA91F70177ADA103391 PUSH2 0x8A0 MSTORE PUSH20 0x14CE500A86F1E3ACE039571E657783E069643617 PUSH2 0x8C0 MSTORE PUSH20 0x6019D32E59EF480F2215EE9773AE507645B47BDC PUSH2 0x8E0 MSTORE PUSH20 0xB67D92DC830F1A24E4BFFD1A6794FCF8F497C7DE PUSH2 0x900 MSTORE PUSH20 0x6F9BB7E454F5B3EB2310343F0E99269DC2BB8A1D PUSH2 0x920 MSTORE PUSH20 0xE95D3DABA7495D42DCC20810F33EEB5207512A9F PUSH2 0x940 MSTORE PUSH20 0x39C09FDC4E5C5AB72F6319DDBC2CAE40E67B2A60 PUSH2 0x960 MSTORE PUSH20 0xFADAFCE89EA2221FA33005640ACF2C923312F2B9 PUSH2 0x980 MSTORE PUSH20 0x7122FC3588FB9E9B93B7C42BA02FC85EF15C442B PUSH2 0x9A0 MSTORE PUSH20 0x25AFD857C7831C91951CD94BA63AF237D28604D0 PUSH2 0x9C0 MSTORE PUSH20 0x6FCF92925E0281D957B0076D3751CAD76916C96B PUSH2 0x9E0 MSTORE PUSH20 0xD026BFDB74FE1BAF1E1F1058F0D008CD1EEED8B5 PUSH2 0xA00 MSTORE PUSH20 0xBDC38612397355E10A2D6DD697A92F35BF1C9935 PUSH2 0xA20 MSTORE PUSH20 0x339DAB47BDD20B4C05950C4306821896CFB1FF1A PUSH2 0xA40 MSTORE PUSH20 0x1EBB814C9EF016E6012BE299ED834F1DDCED1529 PUSH2 0xA60 MSTORE PUSH20 0xF625DCA051B5AE56F684C072C09969C9AA91478A PUSH2 0xA80 MSTORE PUSH20 0x5EBDC5C097F9378C3113DC2F9E8B51246E641896 PUSH2 0xAA0 MSTORE PUSH20 0xD45FBD8F2B0A84743D2606DE8094F86FAC5B6ED3 PUSH2 0xAC0 MSTORE PUSH20 0x3E89F0ECACDC9B1F8BB892367610CAD0CE421C92 PUSH2 0xAE0 MSTORE PUSH20 0xC77C0EDC7067A76972481484B87C1226E410547C PUSH2 0xB00 MSTORE PUSH20 0xF763341B448BB0F02370F4037FE4A2C84C9283F PUSH2 0xB20 MSTORE PUSH19 0x35FC5208EF989C28D47E552E92B0C507D2B318 PUSH2 0xB40 MSTORE PUSH20 0xB8C30017B375BF675C2836C4C6B6ED5BE214739D PUSH2 0xB60 MSTORE PUSH20 0x286ED1111C29592CC6240194B8D66E64B1C05E50 PUSH2 0xB80 MSTORE PUSH20 0x4CD52B37FDDD19CCD24B0D0E9A048785C7AAFCEF PUSH2 0xBA0 MSTORE PUSH20 0xD779D67A428457CABEC145A0F94703D14CD496B PUSH2 0xBC0 MSTORE PUSH18 0xA441FBB1FBAADF246539BF253A42ABD31494 PUSH2 0xBE0 MSTORE PUSH20 0xECB949C68C825650FD9D0AEBE0CD3796FD126E66 PUSH2 0xC00 MSTORE PUSH20 0x8C4D5F3EAC04072245654E0BA480F1A5E1D91DD5 PUSH2 0xC20 MSTORE PUSH20 0xFCA32B89D0981E69C8DADCDCC0668B0E01C810CF PUSH2 0xC40 MSTORE PUSH20 0x22FA8CC33A42320385CBD3690ED60A021891CB32 PUSH2 0xC60 MSTORE PUSH20 0x23BE060093DB74F38B1A3DAF57AFDC1A23DB0077 PUSH2 0xC80 MSTORE PUSH20 0xFC80D0867822B8ED010BAFCC195C21617C01F943 PUSH2 0xCA0 MSTORE PUSH20 0x526C7665C5DD9CD7102C6D42D407A0D9DC1E431D PUSH2 0xCC0 MSTORE PUSH20 0x6C5384BBAE7AF65ED1B6784213A81DAE18E528B2 PUSH2 0xCE0 MSTORE PUSH20 0xAE667ED58C0D9198FC0B9261156D48296C1BB3DA PUSH2 0xD00 MSTORE PUSH20 0xE1DE283EAB72A68F7FF972FCA13F8953C6E15E51 PUSH2 0xD20 MSTORE PUSH20 0xDAE88E81E10D848BA6B0AD64B19783E807064696 PUSH2 0xD40 MSTORE PUSH20 0xA8A06071C878DF9EC2B5F9663A4B08B0F8C08F4 PUSH2 0xD60 MSTORE PUSH20 0x3E95FEF1176ACF5E5D2EF67D9C856E4ECAC73E1F PUSH2 0xD80 MSTORE PUSH20 0x9C3C75C9D269AA8282BDE7BE3352D81CC91C2B6A PUSH2 0xDA0 MSTORE PUSH20 0xD72B03B7F2E0B8D92B868E73E12B1F888BEFBEDA PUSH2 0xDC0 MSTORE PUSH20 0xC23EF3ADF050F4CA50B30998D37EB6464E387577 PUSH2 0xDE0 MSTORE PUSH20 0xD56705548111F08CCB3E1A73806C53DC706F2E75 PUSH2 0xE00 MSTORE PUSH20 0x32802F989B4348A51DD0E61D23B78BE1A0543469 PUSH2 0xE20 MSTORE PUSH20 0xC7CA02DC88A2750031DC04515438C3A505BCC994 PUSH2 0xE40 MSTORE PUSH20 0x1ECCD61C9FA53A8D2E823A26CD72A7EFD7D0E92E PUSH2 0xE60 MSTORE PUSH20 0xA53A6FE2D8AD977AD926C485343BA39F32D3A3F6 PUSH2 0xE80 MSTORE PUSH20 0x6B30E020E9517C519C408F51C2593E12D55B55FA PUSH2 0xEA0 MSTORE PUSH20 0x57D1E246D2E32F6F9D10EC55FC41E8B2E2988308 PUSH2 0xEC0 MSTORE PUSH20 0xED557994671DDDA053A582E73F2E8AA32BDE7D68 PUSH2 0xEE0 MSTORE PUSH20 0xCEA077172675BF31E879BBA71FB46C3188591070 PUSH2 0xF00 MSTORE PUSH20 0x3FC925E779F148F2D843CFD63296E5E12C36D632 PUSH2 0xF20 MSTORE PUSH20 0xC369B30C8EC960260631E20081A32E4C61E5EA9D PUSH2 0xF40 MSTORE PUSH20 0x8D4BFE71379A197AE0C3EA8B41B75F30294D6AFB PUSH2 0xF60 MSTORE PUSH20 0x455D7EB74860D0937423B9184F9E8461AA354EBB PUSH2 0xF80 MSTORE PUSH20 0x14559DF3FBE66CAB6F893D8DD53F7BFE68DE9C65 PUSH2 0xFA0 MSTORE PUSH20 0x238F24101876377E9178D125D0747DE7FAD9C3B2 PUSH2 0xFC0 MSTORE PUSH20 0x4BB633F0E7E0F3FBC95A7F7FD223652882977573 PUSH2 0xFE0 MSTORE PUSH20 0x9BDFAEB9CB28DC05B09B37C0F14ECBC9A876CEE0 PUSH2 0x1000 MSTORE PUSH20 0x7904ADB48351AF7B835CB061316795D5226B7F1A PUSH2 0x1020 MSTORE PUSH20 0xF96DA4775776EA43C42795B116C7A6ECCD6E71B5 PUSH2 0x1040 MSTORE PUSH20 0x418EFA84214F9810AF9119909D5BEE2C56EBD5EB PUSH2 0x1060 MSTORE PUSH20 0x2C9DB5597A4A9D2BA6780CD9722E25A9140552EE PUSH2 0x1080 MSTORE PUSH20 0xE1163DCFB598F74DA146A83CC878731D553ABBFE PUSH2 0x10A0 MSTORE PUSH20 0x991D02F28A5283338E9591CBF7DE2EB25DA46CD PUSH2 0x10C0 MSTORE PUSH20 0x7374BB48A5FDC16C9B216F3FCC60B105C73D1806 PUSH2 0x10E0 MSTORE PUSH20 0xE4F9E812FE379128F17258A2B3DB7CF28613F190 PUSH2 0x1100 MSTORE PUSH20 0x2CA3A2B525E75B2F20F59DECCAE3FFA4BDF3EAA2 PUSH2 0x1120 MSTORE PUSH20 0x8522885D735F75B3FAEEA5CD39AB3D1291DA2C77 PUSH2 0x1140 MSTORE PUSH20 0xA4BD4E4D2E8C72720839823F6C20F411F7DDB1F1 PUSH2 0x1160 MSTORE PUSH20 0x1729F93E3C3C74B503B8130516984CED70BF47D9 PUSH2 0x1180 MSTORE PUSH20 0x94DA725DBA289B96F115EC955ADCAAA806D2085D PUSH2 0x11A0 MSTORE PUSH20 0x38857ED3A8FC5951289E58E20FB56A00E88F0BBD PUSH2 0x11C0 MSTORE PUSH20 0x767D222A509D107522E50161CA17FFCF0E5AA3DE PUSH2 0x11E0 MSTORE PUSH20 0xA4F2B2557D78E31D48E1FFA8AF8B25DB8524EA3C PUSH2 0x1200 MSTORE PUSH20 0xDEC1BCDF22A6E77F10E3BF7DF8A5F6A6A38E6376 PUSH2 0x1220 MSTORE PUSH20 0xC1A0FC4A40253B04A1AE2F40655D73B16CAF268C PUSH2 0x1240 MSTORE PUSH20 0x285E4F019A531E20F673B634D31922D408970798 PUSH2 0x1260 MSTORE PUSH20 0x2848B9F2D4FAEBAA4838C41071684C70688B455D PUSH2 0x1280 MSTORE PUSH20 0xA734288DA3ACE7F9A5E5CAA6DF929126F2E67D52 PUSH2 0x12A0 MSTORE PUSH20 0xD18001F022154654149ED45888C9C29DEF6D3CE6 PUSH2 0x12C0 MSTORE PUSH20 0x7EA1A45F0657D2DBD77839A916AB83112BDB5590 PUSH2 0x12E0 MSTORE PUSH20 0x58B10CBE1872AD139B00326686EE8CCEF274C58 PUSH2 0x1300 MSTORE PUSH20 0xC78CE4E51611ED720EC96BF584BF1B1658FD2379 PUSH2 0x1320 MSTORE PUSH20 0xFBED5277E524113DF313F9F6B29FDE8677F4E936 PUSH2 0x1340 MSTORE PUSH20 0xA652565DB815AD3B138FD98830D14CFD1826693A PUSH2 0x1360 MSTORE PUSH20 0x43E553FC1D064C125764E9D534A4F7D89B9BB1BE PUSH2 0x1380 MSTORE PUSH20 0x1712FDDC84EFA346D51261F0FA5A809FF457ABDC PUSH2 0x13A0 MSTORE PUSH20 0xD0A5266B2515C3B575E30CBC0CFC775FA4FC6660 PUSH2 0x13C0 MSTORE PUSH20 0x507E964A2FABE1921278B640B0813A5626844145 PUSH2 0x13E0 MSTORE PUSH20 0x51A7EAD10340AF963C3124B026B86DD2807C2B1C PUSH2 0x1400 MSTORE PUSH20 0x215D67998DACD9DA4118E4A4899BEC60B79987A0 PUSH2 0x1420 MSTORE PUSH20 0x8FC548B6B071BF0F2FE64AD1AA6032A6D2037366 PUSH2 0x1440 MSTORE PUSH20 0x102902245322AAD61D55CFAD8213472A5702A593 PUSH2 0x1460 MSTORE PUSH20 0x4B4DE68EF03AE45C0D1026801DA71258DDC6BCF6 PUSH2 0x1480 MSTORE PUSH20 0x32A59B87352E980DD6AB1BAF462696D28E63525D PUSH2 0x14A0 MSTORE PUSH20 0xE582794320FA7424A1F9DB360A46446244065CB5 PUSH2 0x14C0 MSTORE PUSH20 0xD71C552A4954673A30893BF1DB0A77F1AFA1ACCD PUSH2 0x14E0 MSTORE PUSH20 0xEE4A267E98260ACF829CA9DC6C9F3D5D82183BCE PUSH2 0x1500 MSTORE PUSH20 0x54683A50F0D2B3F3D1B32780524AE01AA1A583C2 PUSH2 0x1520 MSTORE PUSH20 0xDC34F2A567DFE0E7512108B24ECEA2D92754751C PUSH2 0x1540 MSTORE PUSH20 0xD09C6B71B1A7841E7DFB244D90D2A146201BF78B PUSH2 0x1560 MSTORE PUSH20 0xBB48C430C3CA821755547E514A8FE9CC82BDD975 PUSH2 0x1580 MSTORE PUSH20 0x7F326EA697EF0DD2BBD628B62F569017C1D43FCB PUSH2 0x15A0 MSTORE PUSH20 0x7F048FE4176AB39E225907F777F658A6EFDD42CE PUSH2 0x15C0 MSTORE PUSH20 0x66EA1467282FFF8DF570A1F732F0C6AB8749154E PUSH2 0x15E0 MSTORE PUSH20 0xC1CAD6DF277106222DD45CF5B0300FBD4D1193D5 PUSH2 0x1600 MSTORE PUSH20 0x963D071201275FD5FA3DC9BB34FD3D0275BA97A7 PUSH2 0x1620 MSTORE PUSH20 0x707FD320C96B54182475B22A9D47B4045E74668 PUSH2 0x1640 MSTORE PUSH20 0xFE2353C808F2409CCB81508005A62CEF29457706 PUSH2 0x1660 MSTORE PUSH20 0xE580AB95EBE6156C9717E20D513DD788B341934C PUSH2 0x1680 MSTORE PUSH20 0x4EC355D5780C9554EBDF1B40E9734A573D81052C PUSH2 0x16A0 MSTORE PUSH20 0x3DDBBBB4C18F1E745A3F65FFC84E9197629AC6B4 PUSH2 0x16C0 MSTORE PUSH20 0x5C0F2D1978A1DA91E5D82B8935C610B3F93F36B PUSH2 0x16E0 MSTORE PUSH20 0x5221CE255906A61CF3DC2506143CD38D46A92BE1 PUSH2 0x1700 MSTORE PUSH20 0x573FA57407BB0E4B761DBE801B5CBD160A8E8C21 PUSH2 0x1720 MSTORE PUSH20 0x4DACD010E15E220BC6C5C3210D166505D2B6C63A PUSH2 0x1740 MSTORE PUSH20 0x2FA26AD1BFAE9E66B5C3F364A9E8ECEC8520DB4A PUSH2 0x1760 MSTORE PUSH20 0xA357CB3CE710A4F90FB9D56979C2C3634E3965BA PUSH2 0x1780 MSTORE PUSH20 0x1B74FCF3A084D13A9D910DB12469251988985413 PUSH2 0x17A0 MSTORE PUSH20 0xA948DE8A9205F1FE473490D2114C6616A90FD8D6 PUSH2 0x17C0 MSTORE PUSH20 0x101D5810F8841BCE68CB3E8CFBADB3F8C71FDFF0 PUSH2 0x17E0 MSTORE PUSH20 0x9F7610115501ABD147D1D82CE92CEA2A716690ED PUSH2 0x1800 MSTORE PUSH20 0xF600FD970BC2054D81AFB1646B50531D7567B22C PUSH2 0x1820 MSTORE PUSH20 0x59CC72743488AA24CAA92A521E74E633BB1F9096 PUSH2 0x1840 MSTORE PUSH20 0x20BFFFDB086D35E1EE06B1E0BEB849EE0A0E945C PUSH2 0x1860 MSTORE PUSH20 0xA2040D6B10595ECBA2F751737B4A931A868F0655 PUSH2 0x1880 MSTORE PUSH20 0x900A13FB9382C6668A74500CCCE70EB96385E0C PUSH2 0x18A0 MSTORE PUSH20 0x33D01F8BAA2319882440FE8CF2978FB137B59DC1 PUSH2 0x18C0 MSTORE PUSH20 0x7329C9EAD9B5BB0AD240B75C3CFDC2828AC2EFCF PUSH2 0x18E0 MSTORE PUSH20 0x77CB8C64E42EA076594A0C1E08115D8444FA9FAC PUSH2 0x1900 MSTORE PUSH20 0x228A671629BE7A9436019AF909A1629C94BF4CAF PUSH2 0x1920 MSTORE PUSH20 0x7FF3552031C441F3F01AEDEB0C2C680FBA6DD5DF PUSH2 0x1940 MSTORE PUSH20 0x2D52F7BAE61912F7217351443EA8A226996A3DEF PUSH2 0x1960 MSTORE PUSH20 0x6BAC48867BC94FF20B4C62B21D484A44D04D342C PUSH2 0x1980 MSTORE PUSH20 0xA42830EE059C77CAF8C8200B44AA9813CB0720C5 PUSH2 0x19A0 MSTORE PUSH20 0xF88D3412764873872AB1FDED5F168A6C1A3BF7BB PUSH2 0x19C0 MSTORE PUSH20 0x3AA667D05A6AA1115CF4A533C29BB538ACD1300C PUSH2 0x19E0 MSTORE PUSH20 0xB92667E34CB6753449ADF464F18CE1833CAF26E0 PUSH2 0x1A00 MSTORE PUSH20 0x7BFEE91193D9DF2AC0BFE90191D40F23C773C060 PUSH2 0x1A20 MSTORE PUSH20 0x1F0A6D7DB80E0C5AF146FDB836E04FAC0B1E8202 PUSH2 0x1A40 MSTORE PUSH20 0x2053E0218793EEC7107EC50B09B696D4431C1FF8 PUSH2 0x1A60 MSTORE PUSH20 0xB8C2C00CC883D087C0CBD443CEC51A4D04F8B147 PUSH2 0x1A80 MSTORE PUSH20 0xC8E99DD497AE1FC981C1DD48F49FB804FBFCB99D PUSH2 0x1AA0 MSTORE PUSH3 0x1492 SWAP1 PUSH1 0x2 SWAP1 PUSH1 0xD2 PUSH3 0x1DF4 JUMP JUMPDEST POP PUSH1 0x40 DUP1 MLOAD PUSH2 0x1A40 DUP2 ADD DUP3 MSTORE PUSH3 0x4192B4 DUP2 MSTORE PUSH3 0x1A5F66 PUSH1 0x20 DUP3 ADD MSTORE PUSH3 0x16F7ED SWAP2 DUP2 ADD SWAP2 SWAP1 SWAP2 MSTORE PUSH3 0x145323 PUSH1 0x60 DUP1 DUP4 ADD SWAP2 SWAP1 SWAP2 MSTORE PUSH3 0xB19D2 PUSH1 0x80 DUP4 ADD MSTORE PUSH3 0x2C813 PUSH1 0xA0 DUP4 ADD MSTORE PUSH3 0xB7482 PUSH1 0xC0 DUP4 ADD MSTORE PUSH3 0x9899C PUSH1 0xE0 DUP4 ADD MSTORE PUSH3 0x7B4B5 PUSH2 0x100 DUP4 ADD MSTORE PUSH3 0x71C0C PUSH2 0x120 DUP4 ADD MSTORE PUSH3 0x768DD PUSH2 0x140 DUP1 DUP5 ADD SWAP2 SWAP1 SWAP2 MSTORE PUSH3 0x609BD PUSH2 0x160 DUP5 ADD MSTORE PUSH2 0xF885 PUSH2 0x180 DUP1 DUP6 ADD SWAP2 SWAP1 SWAP2 MSTORE PUSH3 0x44E4E PUSH2 0x1A0 DUP6 ADD MSTORE PUSH3 0x52FDB PUSH2 0x1C0 DUP6 ADD MSTORE PUSH3 0x10096 PUSH2 0x1E0 DUP6 ADD MSTORE PUSH3 0x2CFBA PUSH2 0x200 DUP6 ADD MSTORE PUSH3 0x400C9 PUSH2 0x220 DUP6 ADD MSTORE PUSH3 0x3A59A PUSH2 0x240 DUP6 ADD MSTORE PUSH3 0x32626 PUSH2 0x260 DUP6 ADD MSTORE PUSH3 0x3359A PUSH2 0x280 DUP6 ADD MSTORE PUSH3 0x2EFA9 PUSH2 0x2A0 DUP6 ADD MSTORE PUSH3 0x30327 PUSH2 0x2C0 DUP6 ADD MSTORE PUSH3 0x1034B PUSH2 0x2E0 DUP6 ADD MSTORE PUSH3 0x2A369 PUSH2 0x300 DUP6 ADD MSTORE PUSH3 0x26A40 PUSH2 0x320 DUP6 ADD MSTORE PUSH3 0x252C1 PUSH2 0x340 DUP6 ADD MSTORE PUSH3 0x289F1 PUSH2 0x360 DUP6 ADD MSTORE PUSH3 0x290B5 PUSH2 0x380 DUP6 ADD MSTORE PUSH2 0x8F8B PUSH2 0x3A0 DUP6 ADD MSTORE PUSH2 0x1298 PUSH2 0x3C0 DUP6 ADD MSTORE PUSH3 0x1CCC1 PUSH2 0x3E0 DUP6 ADD MSTORE PUSH3 0x1B253 PUSH2 0x400 DUP6 ADD MSTORE PUSH3 0x1AD4A PUSH2 0x420 DUP6 ADD MSTORE PUSH3 0x15F2A PUSH2 0x440 DUP6 ADD MSTORE PUSH3 0x170B6 PUSH2 0x460 DUP6 ADD MSTORE PUSH3 0x14D4B PUSH2 0x480 DUP6 ADD MSTORE PUSH3 0x14287 PUSH2 0x4A0 DUP6 ADD MSTORE PUSH3 0x13D51 PUSH2 0x4C0 DUP6 ADD MSTORE PUSH3 0x13C60 PUSH2 0x4E0 DUP6 ADD MSTORE PUSH3 0x10C20 PUSH2 0x500 DUP6 ADD MSTORE PUSH2 0xFA8A PUSH2 0x520 DUP6 ADD MSTORE PUSH2 0xF3DF PUSH2 0x540 DUP6 ADD MSTORE PUSH2 0xE8FC PUSH2 0x560 DUP6 ADD MSTORE PUSH2 0xF54F PUSH2 0x580 DUP6 ADD MSTORE PUSH2 0xEEC9 PUSH2 0x5A0 DUP6 ADD MSTORE PUSH2 0xD78B PUSH2 0x5C0 DUP6 ADD MSTORE PUSH2 0xCACB PUSH2 0x5E0 DUP6 ADD MSTORE PUSH2 0xBCB1 PUSH2 0x600 DUP6 ADD MSTORE PUSH2 0xB913 PUSH2 0x620 DUP6 ADD MSTORE PUSH2 0xB131 PUSH2 0x640 DUP6 ADD MSTORE PUSH2 0xAEA6 PUSH2 0x660 DUP6 ADD MSTORE PUSH2 0xA9C3 PUSH2 0x680 DUP6 ADD MSTORE PUSH2 0xAACD PUSH2 0x6A0 DUP6 ADD MSTORE PUSH2 0xA6C4 PUSH2 0x6C0 DUP6 ADD MSTORE PUSH2 0x9E18 PUSH2 0x6E0 DUP6 ADD MSTORE PUSH2 0xAB52 PUSH2 0x700 DUP6 ADD MSTORE PUSH2 0x8E9A PUSH2 0x720 DUP6 ADD MSTORE PUSH2 0x259 PUSH2 0x740 DUP6 ADD MSTORE PUSH2 0x841E PUSH2 0x760 DUP6 ADD MSTORE PUSH2 0x7F64 PUSH2 0x780 DUP6 ADD MSTORE PUSH2 0x21E PUSH2 0x7A0 DUP6 ADD MSTORE PUSH2 0x7C1D PUSH2 0x7C0 DUP6 ADD MSTORE PUSH2 0x6F10 PUSH2 0x7E0 DUP6 ADD MSTORE PUSH2 0x532B PUSH2 0x800 DUP6 ADD MSTORE PUSH2 0x6437 PUSH2 0x820 DUP6 ADD MSTORE PUSH2 0x6310 PUSH2 0x840 DUP6 ADD MSTORE PUSH2 0x62AA PUSH2 0x860 DUP6 ADD MSTORE PUSH2 0x5C27 PUSH2 0x880 DUP6 ADD MSTORE PUSH2 0x5B46 PUSH2 0x8A0 DUP6 ADD MSTORE PUSH2 0x5B7E PUSH2 0x8C0 DUP6 ADD MSTORE PUSH2 0x5375 PUSH2 0x8E0 DUP6 ADD MSTORE PUSH2 0x4E2C PUSH2 0x900 DUP6 ADD MSTORE PUSH2 0x4DCF PUSH2 0x920 DUP6 ADD MSTORE PUSH2 0x4B28 PUSH2 0x940 DUP6 ADD MSTORE PUSH2 0x4CB6 PUSH2 0x960 DUP6 ADD MSTORE PUSH2 0x49C4 PUSH2 0x980 DUP6 ADD MSTORE PUSH2 0x42ED PUSH2 0x9A0 DUP6 ADD MSTORE PUSH2 0x40FF PUSH2 0x9C0 DUP6 ADD MSTORE PUSH2 0x3BE9 PUSH2 0x9E0 DUP6 ADD MSTORE PUSH2 0x39B5 PUSH2 0xA00 DUP6 ADD MSTORE PUSH2 0x39E8 PUSH2 0xA20 DUP6 ADD MSTORE PUSH2 0x3934 PUSH2 0xA40 DUP6 ADD MSTORE PUSH2 0x31D8 PUSH2 0xA60 DUP6 ADD MSTORE PUSH2 0x30D7 PUSH2 0xA80 DUP6 ADD MSTORE PUSH1 0x9 PUSH2 0xAA0 DUP6 ADD MSTORE PUSH2 0x2FB0 PUSH2 0xAC0 DUP6 ADD MSTORE PUSH2 0x82C PUSH2 0xAE0 DUP6 ADD DUP2 SWAP1 MSTORE PUSH2 0x2E53 PUSH2 0xB00 DUP7 ADD MSTORE PUSH2 0x2D98 PUSH2 0xB20 DUP7 ADD MSTORE PUSH2 0x2BB8 PUSH2 0xB40 DUP7 ADD MSTORE PUSH2 0x2851 PUSH2 0xB60 DUP7 ADD MSTORE PUSH2 0x65D PUSH2 0xB80 DUP7 ADD MSTORE PUSH2 0x283F PUSH2 0xBA0 DUP7 ADD MSTORE PUSH2 0x2543 PUSH2 0xBC0 DUP7 ADD MSTORE PUSH2 0x23F0 PUSH2 0xBE0 DUP7 ADD MSTORE PUSH2 0x239B PUSH2 0xC00 DUP7 ADD MSTORE PUSH2 0xF55 PUSH2 0xC20 DUP7 ADD MSTORE PUSH2 0x22BE PUSH2 0xC40 DUP7 ADD MSTORE PUSH2 0x2153 PUSH2 0xC60 DUP7 ADD MSTORE PUSH2 0x20CF PUSH2 0xC80 DUP7 ADD MSTORE PUSH2 0x1FD7 PUSH2 0xCA0 DUP7 ADD MSTORE PUSH2 0x1DF1 PUSH2 0xCC0 DUP7 ADD MSTORE PUSH2 0x1DD2 PUSH2 0xCE0 DUP7 ADD MSTORE PUSH1 0xA5 PUSH2 0xD00 DUP7 ADD MSTORE PUSH2 0x253 PUSH2 0xD20 DUP7 ADD MSTORE PUSH2 0x1AD1 PUSH2 0xD40 DUP7 ADD MSTORE PUSH2 0x197A PUSH2 0xD60 DUP7 ADD MSTORE PUSH2 0x1960 PUSH2 0xD80 DUP7 ADD DUP2 SWAP1 MSTORE PUSH2 0x1936 PUSH2 0xDA0 DUP8 ADD MSTORE PUSH2 0x18E6 PUSH2 0xDC0 DUP8 ADD MSTORE PUSH2 0xF78 PUSH2 0xDE0 DUP8 ADD MSTORE PUSH2 0x26E PUSH2 0xE00 DUP8 ADD MSTORE PUSH2 0x1769 PUSH2 0xE20 DUP8 ADD MSTORE PUSH2 0x1753 PUSH2 0xE40 DUP8 ADD MSTORE PUSH2 0x172A PUSH2 0xE60 DUP8 ADD DUP2 SWAP1 MSTORE PUSH2 0xE80 DUP8 ADD MSTORE PUSH2 0x165A PUSH2 0xEA0 DUP8 ADD MSTORE PUSH2 0x160D PUSH2 0xEC0 DUP8 ADD MSTORE PUSH1 0x7B PUSH2 0xEE0 DUP8 ADD MSTORE PUSH2 0x13F1 PUSH2 0xF00 DUP8 ADD MSTORE PUSH2 0x13B0 PUSH2 0xF20 DUP8 ADD MSTORE PUSH2 0x32D PUSH2 0xF40 DUP8 ADD MSTORE PUSH2 0x8AC PUSH2 0xF60 DUP8 ADD MSTORE PUSH2 0x120A PUSH2 0xF80 DUP8 ADD MSTORE PUSH2 0x1182 PUSH2 0xFA0 DUP8 ADD MSTORE PUSH2 0x1160 PUSH2 0xFC0 DUP8 ADD DUP2 SWAP1 MSTORE PUSH2 0x115F PUSH2 0xFE0 DUP9 ADD MSTORE PUSH1 0xE9 PUSH2 0x1000 DUP9 ADD MSTORE PUSH2 0x1019 PUSH2 0x1020 DUP9 ADD MSTORE PUSH2 0xF17 PUSH2 0x1040 DUP9 ADD MSTORE PUSH2 0xEF9 PUSH2 0x1060 DUP9 ADD MSTORE PUSH2 0xF23 PUSH2 0x1080 DUP9 ADD MSTORE PUSH2 0xEFC PUSH2 0x10A0 DUP9 ADD MSTORE PUSH2 0xE36 PUSH2 0x10C0 DUP9 ADD MSTORE PUSH2 0xDE6 PUSH2 0x10E0 DUP9 ADD MSTORE PUSH2 0xCA9 PUSH2 0x1100 DUP9 ADD MSTORE PUSH2 0xB95 PUSH2 0x1120 DUP9 ADD DUP2 SWAP1 MSTORE PUSH2 0x1140 DUP9 ADD DUP2 SWAP1 MSTORE PUSH1 0x22 SWAP2 DUP9 ADD DUP3 SWAP1 MSTORE PUSH2 0x1180 DUP9 ADD DUP2 SWAP1 MSTORE PUSH2 0x11A0 DUP9 ADD MSTORE PUSH2 0xA8B PUSH2 0x11C0 DUP9 ADD MSTORE PUSH2 0xA7F PUSH2 0x11E0 DUP9 ADD MSTORE PUSH1 0x8B PUSH2 0x1200 DUP9 ADD MSTORE PUSH2 0x944 PUSH2 0x1220 DUP9 ADD MSTORE PUSH2 0x852 PUSH2 0x1240 DUP9 ADD MSTORE PUSH2 0x1260 DUP8 ADD SWAP4 SWAP1 SWAP4 MSTORE PUSH2 0x87C PUSH2 0x1280 DUP8 ADD MSTORE PUSH2 0x12A0 DUP7 ADD SWAP2 SWAP1 SWAP2 MSTORE PUSH2 0x823 PUSH2 0x12C0 DUP7 ADD MSTORE PUSH2 0x13A PUSH2 0x12E0 DUP7 ADD MSTORE PUSH2 0x81B PUSH2 0x1300 DUP7 ADD MSTORE PUSH2 0x1DB PUSH2 0x1320 DUP7 ADD MSTORE PUSH2 0x6E9 PUSH2 0x1340 DUP7 ADD DUP2 SWAP1 MSTORE PUSH2 0x1360 DUP7 ADD MSTORE PUSH2 0x617 PUSH2 0x1380 DUP7 ADD MSTORE PUSH2 0x5E7 PUSH2 0x13A0 DUP7 ADD MSTORE PUSH2 0x5D2 PUSH2 0x13C0 DUP7 ADD MSTORE PUSH2 0x5CA PUSH2 0x13E0 DUP7 ADD MSTORE PUSH1 0xF8 PUSH2 0x1400 DUP7 ADD MSTORE PUSH2 0x551 PUSH2 0x1420 DUP7 ADD MSTORE PUSH2 0x4E3 PUSH2 0x1440 DUP7 ADD MSTORE PUSH2 0x4DD PUSH2 0x1460 DUP7 ADD MSTORE PUSH2 0x49C PUSH2 0x1480 DUP7 ADD DUP2 SWAP1 MSTORE PUSH2 0x14A0 DUP7 ADD MSTORE PUSH1 0xDE PUSH2 0x14C0 DUP7 ADD MSTORE PUSH2 0x3F2 PUSH2 0x14E0 DUP7 ADD MSTORE PUSH2 0x3C5 PUSH2 0x1500 DUP7 ADD MSTORE PUSH2 0x3B3 PUSH2 0x1520 DUP7 ADD MSTORE PUSH2 0x379 PUSH2 0x1540 DUP7 ADD MSTORE PUSH2 0x26C PUSH2 0x1560 DUP7 ADD MSTORE PUSH1 0x1C PUSH2 0x1580 DUP7 ADD MSTORE PUSH2 0x32A PUSH2 0x15A0 DUP7 ADD MSTORE PUSH2 0x2FF PUSH2 0x15C0 DUP7 ADD MSTORE PUSH2 0x26B PUSH2 0x15E0 DUP7 ADD MSTORE PUSH2 0x1600 DUP6 ADD SWAP4 SWAP1 SWAP4 MSTORE PUSH2 0x251 PUSH2 0x1620 DUP6 ADD MSTORE PUSH2 0x1EE PUSH2 0x1640 DUP6 ADD MSTORE PUSH1 0xDD PUSH2 0x1660 DUP6 ADD MSTORE PUSH2 0x1DA PUSH2 0x1680 DUP6 ADD MSTORE PUSH1 0x54 PUSH2 0x16A0 DUP6 ADD MSTORE PUSH2 0x16C0 DUP5 ADD SWAP2 SWAP1 SWAP2 MSTORE PUSH2 0x1BD PUSH2 0x16E0 DUP5 ADD MSTORE PUSH2 0x16A PUSH2 0x1700 DUP5 ADD MSTORE PUSH1 0x38 PUSH2 0x1720 DUP5 ADD MSTORE PUSH2 0x14B PUSH2 0x1740 DUP5 ADD MSTORE PUSH2 0x118 PUSH2 0x1760 DUP5 ADD MSTORE PUSH2 0x110 PUSH2 0x1780 DUP5 ADD MSTORE PUSH1 0x26 PUSH2 0x17A0 DUP5 ADD MSTORE PUSH2 0x17C0 DUP4 ADD MSTORE PUSH1 0x5 PUSH2 0x17E0 DUP4 ADD MSTORE PUSH1 0x76 PUSH2 0x1800 DUP4 ADD MSTORE PUSH1 0x11 PUSH2 0x1820 DUP4 ADD MSTORE PUSH1 0x59 PUSH2 0x1840 DUP4 ADD MSTORE PUSH1 0x58 PUSH2 0x1860 DUP4 ADD MSTORE PUSH1 0x3B PUSH2 0x1880 DUP4 ADD MSTORE PUSH1 0x8 PUSH2 0x18A0 DUP4 ADD MSTORE PUSH1 0x1 PUSH2 0x18C0 DUP4 ADD MSTORE PUSH1 0x1E PUSH2 0x18E0 DUP4 ADD MSTORE PUSH1 0x1D PUSH2 0x1900 DUP4 ADD MSTORE PUSH3 0x7B3D9 PUSH2 0x1920 DUP4 ADD MSTORE PUSH3 0x68FB6 PUSH2 0x1940 DUP4 ADD MSTORE PUSH2 0x9885 SWAP1 DUP3 ADD MSTORE PUSH2 0x3B53 PUSH2 0x1980 DUP3 ADD MSTORE PUSH2 0x2053 PUSH2 0x19A0 DUP3 ADD MSTORE PUSH3 0x227F7 PUSH2 0x19C0 DUP3 ADD MSTORE PUSH1 0xC3 PUSH2 0x19E0 DUP3 ADD MSTORE PUSH3 0x1B9D6 PUSH2 0x1A00 DUP3 ADD MSTORE PUSH3 0x142B7 PUSH2 0x1A20 DUP3 ADD MSTORE PUSH3 0x1C21 SWAP1 PUSH1 0xD4 SWAP1 PUSH1 0xD2 PUSH3 0x1E51 JUMP JUMPDEST POP PUSH11 0x10AD0BCA349E3BB8000000 PUSH2 0x1A8 SSTORE CALLVALUE DUP1 ISZERO PUSH3 0x1C3F JUMPI PUSH1 0x0 DUP1 REVERT JUMPDEST POP PUSH1 0x40 MLOAD PUSH3 0x2EE2 CODESIZE SUB DUP1 PUSH3 0x2EE2 DUP4 CODECOPY DUP2 ADD PUSH1 0x40 DUP2 SWAP1 MSTORE PUSH3 0x1C62 SWAP2 PUSH3 0x1EC9 JUMP JUMPDEST PUSH1 0x0 DUP1 SLOAD PUSH1 0xFF NOT AND SWAP1 SSTORE PUSH1 0x1 DUP1 SSTORE PUSH1 0x1 PUSH1 0x1 PUSH1 0xA0 SHL SUB DUP3 AND PUSH3 0x1CBE JUMPI PUSH1 0x40 MLOAD PUSH3 0x461BCD PUSH1 0xE5 SHL DUP2 MSTORE PUSH1 0x20 PUSH1 0x4 DUP3 ADD MSTORE PUSH1 0xF PUSH1 0x24 DUP3 ADD MSTORE PUSH15 0x496E76616C69642061646472657373 PUSH1 0x88 SHL PUSH1 0x44 DUP3 ADD MSTORE PUSH1 0x64 ADD JUMPDEST PUSH1 0x40 MLOAD DUP1 SWAP2 SUB SWAP1 REVERT JUMPDEST PUSH1 0x1 PUSH1 0x1 PUSH1 0xA0 SHL SUB DUP2 AND PUSH3 0x1D08 JUMPI PUSH1 0x40 MLOAD PUSH3 0x461BCD PUSH1 0xE5 SHL DUP2 MSTORE PUSH1 0x20 PUSH1 0x4 DUP3 ADD MSTORE PUSH1 0xF PUSH1 0x24 DUP3 ADD MSTORE PUSH15 0x496E76616C69642061646472657373 PUSH1 0x88 SHL PUSH1 0x44 DUP3 ADD MSTORE PUSH1 0x64 ADD PUSH3 0x1CB5 JUMP JUMPDEST PUSH2 0x1AD DUP1 SLOAD PUSH1 0x1 PUSH1 0x1 PUSH1 0xA0 SHL SUB DUP1 DUP6 AND PUSH1 0x1 PUSH1 0x1 PUSH1 0xA0 SHL SUB NOT SWAP3 DUP4 AND OR SWAP1 SWAP3 SSTORE PUSH2 0x1AE DUP1 SLOAD SWAP3 DUP5 AND SWAP3 SWAP1 SWAP2 AND SWAP2 SWAP1 SWAP2 OR SWAP1 SSTORE PUSH3 0x1D53 PUSH3 0x93A80 PUSH10 0x345C1991A5C71CB80000 PUSH3 0x1F07 JUMP JUMPDEST PUSH2 0x1AB SSTORE TIMESTAMP PUSH2 0x1AA SSTORE PUSH2 0x1AD SLOAD PUSH2 0x1AE SLOAD PUSH1 0x40 MLOAD PUSH4 0x95EA7B3 PUSH1 0xE0 SHL DUP2 MSTORE PUSH1 0x1 PUSH1 0x1 PUSH1 0xA0 SHL SUB SWAP2 DUP3 AND PUSH1 0x4 DUP3 ADD MSTORE PUSH1 0x0 NOT PUSH1 0x24 DUP3 ADD MSTORE SWAP2 AND SWAP1 PUSH4 0x95EA7B3 SWAP1 PUSH1 0x44 ADD PUSH1 0x20 PUSH1 0x40 MLOAD DUP1 DUP4 SUB DUP2 PUSH1 0x0 DUP8 DUP1 EXTCODESIZE ISZERO DUP1 ISZERO PUSH3 0x1DB0 JUMPI PUSH1 0x0 DUP1 REVERT JUMPDEST POP GAS CALL ISZERO DUP1 ISZERO PUSH3 0x1DC5 JUMPI RETURNDATASIZE PUSH1 0x0 DUP1 RETURNDATACOPY RETURNDATASIZE PUSH1 0x0 REVERT JUMPDEST POP POP POP POP PUSH1 0x40 MLOAD RETURNDATASIZE PUSH1 0x1F NOT PUSH1 0x1F DUP3 ADD AND DUP3 ADD DUP1 PUSH1 0x40 MSTORE POP DUP2 ADD SWAP1 PUSH3 0x1DEB SWAP2 SWAP1 PUSH3 0x1EA0 JUMP JUMPDEST POP POP POP PUSH3 0x1F41 JUMP JUMPDEST DUP3 PUSH1 0xD2 DUP2 ADD SWAP3 DUP3 ISZERO PUSH3 0x1E3F JUMPI SWAP2 PUSH1 0x20 MUL DUP3 ADD JUMPDEST DUP3 DUP2 GT ISZERO PUSH3 0x1E3F JUMPI DUP3 MLOAD DUP3 SLOAD PUSH1 0x1 PUSH1 0x1 PUSH1 0xA0 SHL SUB NOT AND PUSH1 0x1 PUSH1 0x1 PUSH1 0xA0 SHL SUB SWAP1 SWAP2 AND OR DUP3 SSTORE PUSH1 0x20 SWAP1 SWAP3 ADD SWAP2 PUSH1 0x1 SWAP1 SWAP2 ADD SWAP1 PUSH3 0x1E08 JUMP JUMPDEST POP PUSH3 0x1E4D SWAP3 SWAP2 POP PUSH3 0x1E89 JUMP JUMPDEST POP SWAP1 JUMP JUMPDEST DUP3 PUSH1 0xD2 DUP2 ADD SWAP3 DUP3 ISZERO PUSH3 0x1E3F JUMPI SWAP2 PUSH1 0x20 MUL DUP3 ADD JUMPDEST DUP3 DUP2 GT ISZERO PUSH3 0x1E3F JUMPI DUP3 MLOAD DUP3 SWAP1 PUSH3 0xFFFFFF AND SWAP1 SSTORE SWAP2 PUSH1 0x20 ADD SWAP2 SWAP1 PUSH1 0x1 ADD SWAP1 PUSH3 0x1E65 JUMP JUMPDEST JUMPDEST DUP1 DUP3 GT ISZERO PUSH3 0x1E4D JUMPI PUSH1 0x0 DUP2 SSTORE PUSH1 0x1 ADD PUSH3 0x1E8A JUMP JUMPDEST PUSH1 0x0 PUSH1 0x20 DUP3 DUP5 SUB SLT ISZERO PUSH3 0x1EB2 JUMPI DUP1 DUP2 REVERT JUMPDEST DUP2 MLOAD DUP1 ISZERO ISZERO DUP2 EQ PUSH3 0x1EC2 JUMPI DUP2 DUP3 REVERT JUMPDEST SWAP4 SWAP3 POP POP POP JUMP JUMPDEST PUSH1 0x0 DUP1 PUSH1 0x40 DUP4 DUP6 SUB SLT ISZERO PUSH3 0x1EDC JUMPI DUP1 DUP2 REVERT JUMPDEST DUP3 MLOAD PUSH3 0x1EE9 DUP2 PUSH3 0x1F28 JUMP JUMPDEST PUSH1 0x20 DUP5 ADD MLOAD SWAP1 SWAP3 POP PUSH3 0x1EFC DUP2 PUSH3 0x1F28 JUMP JUMPDEST DUP1 SWAP2 POP POP SWAP3 POP SWAP3 SWAP1 POP JUMP JUMPDEST PUSH1 0x0 DUP3 PUSH3 0x1F23 JUMPI PUSH4 0x4E487B71 PUSH1 0xE0 SHL DUP2 MSTORE PUSH1 0x12 PUSH1 0x4 MSTORE PUSH1 0x24 DUP2 REVERT JUMPDEST POP DIV SWAP1 JUMP JUMPDEST PUSH1 0x1 PUSH1 0x1 PUSH1 0xA0 SHL SUB DUP2 AND DUP2 EQ PUSH3 0x1F3E JUMPI PUSH1 0x0 DUP1 REVERT JUMPDEST POP JUMP JUMPDEST PUSH2 0xF91 DUP1 PUSH3 0x1F51 PUSH1 0x0 CODECOPY PUSH1 0x0 RETURN INVALID PUSH1 0x80 PUSH1 0x40 MSTORE CALLVALUE DUP1 ISZERO PUSH2 0x10 JUMPI PUSH1 0x0 DUP1 REVERT JUMPDEST POP PUSH1 0x4 CALLDATASIZE LT PUSH2 0xDF JUMPI PUSH1 0x0 CALLDATALOAD PUSH1 0xE0 SHR DUP1 PUSH4 0x4E71D92D GT PUSH2 0x8C JUMPI DUP1 PUSH4 0x64EF6DD4 GT PUSH2 0x66 JUMPI DUP1 PUSH4 0x64EF6DD4 EQ PUSH2 0x1EA JUMPI DUP1 PUSH4 0x6901F668 EQ PUSH2 0x1F4 JUMPI DUP1 PUSH4 0xC4121545 EQ PUSH2 0x1FC JUMPI DUP1 PUSH4 0xF8E47CD6 EQ PUSH2 0x21D JUMPI PUSH1 0x0 DUP1 REVERT JUMPDEST DUP1 PUSH4 0x4E71D92D EQ PUSH2 0x1C4 JUMPI DUP1 PUSH4 0x5C975ABB EQ PUSH2 0x1CC JUMPI DUP1 PUSH4 0x5DC93E1D EQ PUSH2 0x1E2 JUMPI PUSH1 0x0 DUP1 REVERT JUMPDEST DUP1 PUSH4 0x24F92A25 GT PUSH2 0xBD JUMPI DUP1 PUSH4 0x24F92A25 EQ PUSH2 0x16C JUMPI DUP1 PUSH4 0x2C4E722E EQ PUSH2 0x174 JUMPI DUP1 PUSH4 0x3FC15F15 EQ PUSH2 0x17E JUMPI PUSH1 0x0 DUP1 REVERT JUMPDEST DUP1 PUSH4 0x6A82CE1 EQ PUSH2 0xE4 JUMPI DUP1 PUSH4 0x1814A5B1 EQ PUSH2 0xF9 JUMPI DUP1 PUSH4 0x21860A05 EQ PUSH2 0x116 JUMPI JUMPDEST PUSH1 0x0 DUP1 REVERT JUMPDEST PUSH2 0xF7 PUSH2 0xF2 CALLDATASIZE PUSH1 0x4 PUSH2 0xE36 JUMP JUMPDEST PUSH2 0x23E JUMP JUMPDEST STOP JUMPDEST PUSH2 0x103 PUSH2 0x1AA SLOAD DUP2 JUMP JUMPDEST PUSH1 0x40 MLOAD SWAP1 DUP2 MSTORE PUSH1 0x20 ADD JUMPDEST PUSH1 0x40 MLOAD DUP1 SWAP2 SUB SWAP1 RETURN JUMPDEST PUSH2 0x14C PUSH2 0x124 CALLDATASIZE PUSH1 0x4 PUSH2 0xDE2 JUMP JUMPDEST PUSH2 0x1A6 PUSH1 0x20 MSTORE PUSH1 0x0 SWAP1 DUP2 MSTORE PUSH1 0x40 SWAP1 KECCAK256 DUP1 SLOAD PUSH1 0x1 DUP3 ADD SLOAD PUSH1 0x2 DUP4 ADD SLOAD PUSH1 0x3 SWAP1 SWAP4 ADD SLOAD SWAP2 SWAP3 SWAP1 SWAP2 DUP5 JUMP JUMPDEST PUSH1 0x40 DUP1 MLOAD SWAP5 DUP6 MSTORE PUSH1 0x20 DUP6 ADD SWAP4 SWAP1 SWAP4 MSTORE SWAP2 DUP4 ADD MSTORE PUSH1 0x60 DUP3 ADD MSTORE PUSH1 0x80 ADD PUSH2 0x10D JUMP JUMPDEST PUSH2 0x103 PUSH2 0x50E JUMP JUMPDEST PUSH2 0x103 PUSH2 0x1AB SLOAD DUP2 JUMP JUMPDEST PUSH2 0x1AD SLOAD PUSH2 0x19F SWAP1 PUSH20 0xFFFFFFFFFFFFFFFFFFFFFFFFFFFFFFFFFFFFFFFF AND DUP2 JUMP JUMPDEST PUSH1 0x40 MLOAD PUSH20 0xFFFFFFFFFFFFFFFFFFFFFFFFFFFFFFFFFFFFFFFF SWAP1 SWAP2 AND DUP2 MSTORE PUSH1 0x20 ADD PUSH2 0x10D JUMP JUMPDEST PUSH2 0xF7 PUSH2 0x587 JUMP JUMPDEST PUSH1 0x0 SLOAD PUSH1 0xFF AND PUSH1 0x40 MLOAD SWAP1 ISZERO ISZERO DUP2 MSTORE PUSH1 0x20 ADD PUSH2 0x10D JUMP JUMPDEST PUSH2 0xF7 PUSH2 0x998 JUMP JUMPDEST PUSH2 0x103 PUSH2 0x1A9 SLOAD DUP2 JUMP JUMPDEST PUSH2 0xF7 PUSH2 0xA1B JUMP JUMPDEST PUSH2 0x1AE SLOAD PUSH2 0x19F SWAP1 PUSH20 0xFFFFFFFFFFFFFFFFFFFFFFFFFFFFFFFFFFFFFFFF AND DUP2 JUMP JUMPDEST PUSH2 0x103 PUSH2 0x22B CALLDATASIZE PUSH1 0x4 PUSH2 0xDE2 JUMP JUMPDEST PUSH2 0x1A7 PUSH1 0x20 MSTORE PUSH1 0x0 SWAP1 DUP2 MSTORE PUSH1 0x40 SWAP1 KECCAK256 SLOAD DUP2 JUMP JUMPDEST PUSH2 0x246 PUSH2 0xC4E JUMP JUMPDEST CALLER PUSH2 0x250 JUMPI PUSH1 0x0 DUP1 REVERT JUMPDEST CALLER PUSH1 0x0 SWAP1 DUP2 MSTORE PUSH2 0x1A6 PUSH1 0x20 MSTORE PUSH1 0x40 SWAP1 KECCAK256 SLOAD PUSH2 0x26A JUMPI PUSH1 0x0 DUP1 REVERT JUMPDEST PUSH1 0x0 PUSH2 0x274 PUSH2 0x50E JUMP JUMPDEST CALLER PUSH1 0x0 SWAP1 DUP2 MSTORE PUSH2 0x1A6 PUSH1 0x20 MSTORE PUSH1 0x40 DUP2 KECCAK256 PUSH1 0x3 ADD SLOAD SWAP2 SWAP3 POP SWAP1 PUSH8 0xDE0B6B3A7640000 SWAP1 PUSH2 0x2A0 SWAP1 DUP5 PUSH2 0xE9F JUMP JUMPDEST PUSH2 0x2AA SWAP2 SWAP1 PUSH2 0xE66 JUMP JUMPDEST CALLER PUSH1 0x0 SWAP1 DUP2 MSTORE PUSH2 0x1A6 PUSH1 0x20 MSTORE PUSH1 0x40 SWAP1 KECCAK256 PUSH1 0x1 ADD SLOAD SWAP1 SWAP2 POP ISZERO PUSH2 0x2E7 JUMPI CALLER PUSH1 0x0 SWAP1 DUP2 MSTORE PUSH2 0x1A6 PUSH1 0x20 MSTORE PUSH1 0x40 SWAP1 KECCAK256 PUSH1 0x1 ADD SLOAD PUSH2 0x2E4 SWAP1 DUP3 PUSH2 0xEDC JUMP JUMPDEST SWAP1 POP JUMPDEST CALLER PUSH1 0x0 SWAP1 DUP2 MSTORE PUSH2 0x1A6 PUSH1 0x20 MSTORE PUSH1 0x40 SWAP1 KECCAK256 SLOAD DUP2 GT ISZERO PUSH2 0x304 JUMPI PUSH1 0x0 DUP1 REVERT JUMPDEST DUP1 DUP4 GT ISZERO PUSH2 0x311 JUMPI PUSH1 0x0 DUP1 REVERT JUMPDEST CALLER PUSH1 0x0 SWAP1 DUP2 MSTORE PUSH2 0x1A6 PUSH1 0x20 MSTORE PUSH1 0x40 DUP2 KECCAK256 DUP1 SLOAD DUP6 SWAP3 SWAP1 PUSH2 0x331 SWAP1 DUP5 SWAP1 PUSH2 0xEDC JUMP JUMPDEST SWAP1 SWAP2 SSTORE POP POP CALLER PUSH1 0x0 SWAP1 DUP2 MSTORE PUSH2 0x1A6 PUSH1 0x20 MSTORE PUSH1 0x40 DUP2 KECCAK256 PUSH1 0x1 ADD DUP1 SLOAD DUP6 SWAP3 SWAP1 PUSH2 0x359 SWAP1 DUP5 SWAP1 PUSH2 0xE4E JUMP JUMPDEST SWAP1 SWAP2 SSTORE POP PUSH1 0x0 SWAP1 POP PUSH1 0xA PUSH2 0x36E DUP6 PUSH1 0x3 PUSH2 0xE9F JUMP JUMPDEST PUSH2 0x378 SWAP2 SWAP1 PUSH2 0xE66 JUMP JUMPDEST PUSH2 0x1AD SLOAD PUSH1 0x40 MLOAD PUSH32 0xA9059CBB00000000000000000000000000000000000000000000000000000000 DUP2 MSTORE CALLER PUSH1 0x4 DUP3 ADD MSTORE PUSH1 0x24 DUP2 ADD DUP4 SWAP1 MSTORE SWAP2 SWAP3 POP PUSH20 0xFFFFFFFFFFFFFFFFFFFFFFFFFFFFFFFFFFFFFFFF AND SWAP1 PUSH4 0xA9059CBB SWAP1 PUSH1 0x44 ADD PUSH1 0x20 PUSH1 0x40 MLOAD DUP1 DUP4 SUB DUP2 PUSH1 0x0 DUP8 DUP1 EXTCODESIZE ISZERO DUP1 ISZERO PUSH2 0x3EC JUMPI PUSH1 0x0 DUP1 REVERT JUMPDEST POP GAS CALL ISZERO DUP1 ISZERO PUSH2 0x400 JUMPI RETURNDATASIZE PUSH1 0x0 DUP1 RETURNDATACOPY RETURNDATASIZE PUSH1 0x0 REVERT JUMPDEST POP POP POP POP PUSH1 0x40 MLOAD RETURNDATASIZE PUSH1 0x1F NOT PUSH1 0x1F DUP3 ADD AND DUP3 ADD DUP1 PUSH1 0x40 MSTORE POP DUP2 ADD SWAP1 PUSH2 0x424 SWAP2 SWAP1 PUSH2 0xE16 JUMP JUMPDEST POP PUSH1 0x0 PUSH2 0x431 DUP3 DUP7 PUSH2 0xEDC JUMP JUMPDEST PUSH2 0x1AE SLOAD PUSH1 0x40 MLOAD PUSH32 0x2546DE1000000000000000000000000000000000000000000000000000000000 DUP2 MSTORE CALLER PUSH1 0x4 DUP3 ADD MSTORE PUSH1 0x24 DUP2 ADD DUP4 SWAP1 MSTORE PUSH1 0x0 PUSH1 0x44 DUP3 ADD MSTORE SWAP2 SWAP3 POP PUSH20 0xFFFFFFFFFFFFFFFFFFFFFFFFFFFFFFFFFFFFFFFF AND SWAP1 PUSH4 0x2546DE10 SWAP1 PUSH1 0x64 ADD PUSH1 0x0 PUSH1 0x40 MLOAD DUP1 DUP4 SUB DUP2 PUSH1 0x0 DUP8 DUP1 EXTCODESIZE ISZERO DUP1 ISZERO PUSH2 0x4AC JUMPI PUSH1 0x0 DUP1 REVERT JUMPDEST POP GAS CALL ISZERO DUP1 ISZERO PUSH2 0x4C0 JUMPI RETURNDATASIZE PUSH1 0x0 DUP1 RETURNDATACOPY RETURNDATASIZE PUSH1 0x0 REVERT JUMPDEST POP POP PUSH1 0x40 DUP1 MLOAD DUP9 DUP2 MSTORE TIMESTAMP PUSH1 0x20 DUP3 ADD MSTORE CALLER SWAP4 POP PUSH32 0xFBEFF59D2BFDA0D79EA8A29F8C57C66D48C7A13EABBDB90908D9115EC41C9DC6 SWAP3 POP ADD PUSH1 0x40 MLOAD DUP1 SWAP2 SUB SWAP1 LOG2 POP POP POP POP PUSH2 0x50B PUSH1 0x1 DUP1 SSTORE JUMP JUMPDEST POP JUMP JUMPDEST PUSH1 0x0 PUSH3 0x93A80 PUSH2 0x1AA SLOAD TIMESTAMP PUSH2 0x523 SWAP2 SWAP1 PUSH2 0xEDC JUMP JUMPDEST GT ISZERO PUSH2 0x558 JUMPI PUSH32 0x4E487B7100000000000000000000000000000000000000000000000000000000 PUSH1 0x0 MSTORE PUSH1 0x1 PUSH1 0x4 MSTORE PUSH1 0x24 PUSH1 0x0 REVERT JUMPDEST PUSH2 0x1AB SLOAD PUSH2 0x1AA SLOAD PUSH2 0x56A SWAP1 TIMESTAMP PUSH2 0xEDC JUMP JUMPDEST PUSH2 0x574 SWAP2 SWAP1 PUSH2 0xE9F JUMP JUMPDEST PUSH2 0x1AC SLOAD PUSH2 0x582 SWAP2 SWAP1 PUSH2 0xE4E JUMP JUMPDEST SWAP1 POP SWAP1 JUMP JUMPDEST PUSH2 0x58F PUSH2 0xC4E JUMP JUMPDEST CALLER PUSH2 0x599 JUMPI PUSH1 0x0 DUP1 REVERT JUMPDEST CALLER PUSH1 0x0 SWAP1 DUP2 MSTORE PUSH2 0x1A7 PUSH1 0x20 MSTORE PUSH1 0x40 SWAP1 KECCAK256 SLOAD PUSH1 0x1 EQ PUSH2 0x618 JUMPI PUSH1 0x40 MLOAD PUSH32 0x8C379A000000000000000000000000000000000000000000000000000000000 DUP2 MSTORE PUSH1 0x20 PUSH1 0x4 DUP3 ADD MSTORE PUSH1 0x1F PUSH1 0x24 DUP3 ADD MSTORE PUSH32 0x41646472657373206E6F742076616C69646174656420746F20636C61696D2E00 PUSH1 0x44 DUP3 ADD MSTORE PUSH1 0x64 ADD JUMPDEST PUSH1 0x40 MLOAD DUP1 SWAP2 SUB SWAP1 REVERT JUMPDEST CALLER PUSH1 0x0 SWAP1 DUP2 MSTORE PUSH2 0x1A6 PUSH1 0x20 MSTORE PUSH1 0x40 SWAP1 KECCAK256 SLOAD PUSH2 0x632 JUMPI PUSH1 0x0 DUP1 REVERT JUMPDEST PUSH1 0x0 PUSH2 0x63C PUSH2 0x50E JUMP JUMPDEST SWAP1 POP PUSH1 0x0 DUP2 GT PUSH2 0x6A8 JUMPI PUSH1 0x40 MLOAD PUSH32 0x8C379A000000000000000000000000000000000000000000000000000000000 DUP2 MSTORE PUSH1 0x20 PUSH1 0x4 DUP3 ADD MSTORE PUSH1 0x18 PUSH1 0x24 DUP3 ADD MSTORE PUSH32 0x4E6F7468696E6720636C61696D61626C6520287965743F290000000000000000 PUSH1 0x44 DUP3 ADD MSTORE PUSH1 0x64 ADD PUSH2 0x60F JUMP JUMPDEST CALLER PUSH1 0x0 SWAP1 DUP2 MSTORE PUSH2 0x1A6 PUSH1 0x20 MSTORE PUSH1 0x40 DUP2 KECCAK256 PUSH1 0x3 ADD SLOAD PUSH8 0xDE0B6B3A7640000 SWAP1 PUSH2 0x6D0 SWAP1 DUP5 PUSH2 0xE9F JUMP JUMPDEST PUSH2 0x6DA SWAP2 SWAP1 PUSH2 0xE66 JUMP JUMPDEST SWAP1 POP PUSH1 0x0 DUP2 GT PUSH2 0x713 JUMPI PUSH32 0x4E487B7100000000000000000000000000000000000000000000000000000000 PUSH1 0x0 MSTORE PUSH1 0x1 PUSH1 0x4 MSTORE PUSH1 0x24 PUSH1 0x0 REVERT JUMPDEST CALLER PUSH1 0x0 SWAP1 DUP2 MSTORE PUSH2 0x1A6 PUSH1 0x20 MSTORE PUSH1 0x40 SWAP1 KECCAK256 PUSH1 0x1 ADD SLOAD ISZERO PUSH2 0x74D JUMPI CALLER PUSH1 0x0 SWAP1 DUP2 MSTORE PUSH2 0x1A6 PUSH1 0x20 MSTORE PUSH1 0x40 SWAP1 KECCAK256 PUSH1 0x1 ADD SLOAD PUSH2 0x74A SWAP1 DUP3 PUSH2 0xEDC JUMP JUMPDEST SWAP1 POP JUMPDEST CALLER PUSH1 0x0 SWAP1 DUP2 MSTORE PUSH2 0x1A6 PUSH1 0x20 MSTORE PUSH1 0x40 SWAP1 KECCAK256 SLOAD PUSH2 0x769 SWAP1 DUP3 SWAP1 PUSH2 0xEDC JUMP JUMPDEST PUSH2 0x79C JUMPI PUSH32 0x4E487B7100000000000000000000000000000000000000000000000000000000 PUSH1 0x0 MSTORE PUSH1 0x1 PUSH1 0x4 MSTORE PUSH1 0x24 PUSH1 0x0 REVERT JUMPDEST CALLER PUSH1 0x0 SWAP1 DUP2 MSTORE PUSH2 0x1A6 PUSH1 0x20 MSTORE PUSH1 0x40 DUP2 KECCAK256 DUP1 SLOAD DUP4 SWAP3 SWAP1 PUSH2 0x7BC SWAP1 DUP5 SWAP1 PUSH2 0xEDC JUMP JUMPDEST SWAP1 SWAP2 SSTORE POP POP CALLER PUSH1 0x0 SWAP1 DUP2 MSTORE PUSH2 0x1A6 PUSH1 0x20 MSTORE PUSH1 0x40 DUP2 KECCAK256 PUSH1 0x1 ADD DUP1 SLOAD DUP4 SWAP3 SWAP1 PUSH2 0x7E4 SWAP1 DUP5 SWAP1 PUSH2 0xE4E JUMP JUMPDEST SWAP1 SWAP2 SSTORE POP PUSH1 0x0 SWAP1 POP PUSH1 0xA PUSH2 0x7F9 DUP4 PUSH1 0x3 PUSH2 0xE9F JUMP JUMPDEST PUSH2 0x803 SWAP2 SWAP1 PUSH2 0xE66 JUMP JUMPDEST PUSH2 0x1AD SLOAD PUSH1 0x40 MLOAD PUSH32 0xA9059CBB00000000000000000000000000000000000000000000000000000000 DUP2 MSTORE CALLER PUSH1 0x4 DUP3 ADD MSTORE PUSH1 0x24 DUP2 ADD DUP4 SWAP1 MSTORE SWAP2 SWAP3 POP PUSH20 0xFFFFFFFFFFFFFFFFFFFFFFFFFFFFFFFFFFFFFFFF AND SWAP1 PUSH4 0xA9059CBB SWAP1 PUSH1 0x44 ADD PUSH1 0x20 PUSH1 0x40 MLOAD DUP1 DUP4 SUB DUP2 PUSH1 0x0 DUP8 DUP1 EXTCODESIZE ISZERO DUP1 ISZERO PUSH2 0x877 JUMPI PUSH1 0x0 DUP1 REVERT JUMPDEST POP GAS CALL ISZERO DUP1 ISZERO PUSH2 0x88B JUMPI RETURNDATASIZE PUSH1 0x0 DUP1 RETURNDATACOPY RETURNDATASIZE PUSH1 0x0 REVERT JUMPDEST POP POP POP POP PUSH1 0x40 MLOAD RETURNDATASIZE PUSH1 0x1F NOT PUSH1 0x1F DUP3 ADD AND DUP3 ADD DUP1 PUSH1 0x40 MSTORE POP DUP2 ADD SWAP1 PUSH2 0x8AF SWAP2 SWAP1 PUSH2 0xE16 JUMP JUMPDEST POP PUSH1 0x0 PUSH2 0x8BC DUP3 DUP5 PUSH2 0xEDC JUMP JUMPDEST PUSH2 0x1AE SLOAD PUSH1 0x40 MLOAD PUSH32 0x2546DE1000000000000000000000000000000000000000000000000000000000 DUP2 MSTORE CALLER PUSH1 0x4 DUP3 ADD MSTORE PUSH1 0x24 DUP2 ADD DUP4 SWAP1 MSTORE PUSH1 0x0 PUSH1 0x44 DUP3 ADD MSTORE SWAP2 SWAP3 POP PUSH20 0xFFFFFFFFFFFFFFFFFFFFFFFFFFFFFFFFFFFFFFFF AND SWAP1 PUSH4 0x2546DE10 SWAP1 PUSH1 0x64 ADD PUSH1 0x0 PUSH1 0x40 MLOAD DUP1 DUP4 SUB DUP2 PUSH1 0x0 DUP8 DUP1 EXTCODESIZE ISZERO DUP1 ISZERO PUSH2 0x937 JUMPI PUSH1 0x0 DUP1 REVERT JUMPDEST POP GAS CALL ISZERO DUP1 ISZERO PUSH2 0x94B JUMPI RETURNDATASIZE PUSH1 0x0 DUP1 RETURNDATACOPY RETURNDATASIZE PUSH1 0x0 REVERT JUMPDEST POP POP PUSH1 0x40 DUP1 MLOAD DUP7 DUP2 MSTORE TIMESTAMP PUSH1 0x20 DUP3 ADD MSTORE CALLER SWAP4 POP PUSH32 0xFBEFF59D2BFDA0D79EA8A29F8C57C66D48C7A13EABBDB90908D9115EC41C9DC6 SWAP3 POP ADD PUSH1 0x40 MLOAD DUP1 SWAP2 SUB SWAP1 LOG2 POP POP POP POP PUSH2 0x996 PUSH1 0x1 DUP1 SSTORE JUMP JUMPDEST JUMP JUMPDEST PUSH3 0x93A80 PUSH2 0x1AA SLOAD PUSH2 0x9AA SWAP2 SWAP1 PUSH2 0xE4E JUMP JUMPDEST TIMESTAMP LT ISZERO PUSH2 0xA13 JUMPI PUSH1 0x40 MLOAD PUSH32 0x8C379A000000000000000000000000000000000000000000000000000000000 DUP2 MSTORE PUSH1 0x20 PUSH1 0x4 DUP3 ADD MSTORE PUSH1 0x8 PUSH1 0x24 DUP3 ADD MSTORE PUSH32 0x546F6F20736F6F6E000000000000000000000000000000000000000000000000 PUSH1 0x44 DUP3 ADD MSTORE PUSH1 0x64 ADD PUSH2 0x60F JUMP JUMPDEST PUSH2 0x996 PUSH2 0xCC2 JUMP JUMPDEST PUSH2 0xA23 PUSH2 0xC4E JUMP JUMPDEST CALLER PUSH2 0xA2D JUMPI PUSH1 0x0 DUP1 REVERT JUMPDEST CALLER PUSH1 0x0 SWAP1 DUP2 MSTORE PUSH2 0x1A6 PUSH1 0x20 MSTORE PUSH1 0x40 SWAP1 KECCAK256 SLOAD ISZERO PUSH2 0xAA5 JUMPI PUSH1 0x40 MLOAD PUSH32 0x8C379A000000000000000000000000000000000000000000000000000000000 DUP2 MSTORE PUSH1 0x20 PUSH1 0x4 DUP3 ADD MSTORE PUSH1 0x12 PUSH1 0x24 DUP3 ADD MSTORE PUSH32 0x416C72656164792076616C6964617465642E0000000000000000000000000000 PUSH1 0x44 DUP3 ADD MSTORE PUSH1 0x64 ADD PUSH2 0x60F JUMP JUMPDEST PUSH1 0x0 JUMPDEST PUSH1 0xD2 DUP2 LT ISZERO PUSH2 0xC44 JUMPI CALLER PUSH1 0x2 DUP3 PUSH1 0xD2 DUP2 LT PUSH2 0xAEC JUMPI PUSH32 0x4E487B7100000000000000000000000000000000000000000000000000000000 PUSH1 0x0 MSTORE PUSH1 0x32 PUSH1 0x4 MSTORE PUSH1 0x24 PUSH1 0x0 REVERT JUMPDEST ADD SLOAD PUSH20 0xFFFFFFFFFFFFFFFFFFFFFFFFFFFFFFFFFFFFFFFF AND EQ ISZERO PUSH2 0xC32 JUMPI PUSH1 0x0 PUSH1 0xD4 DUP3 PUSH1 0xD2 DUP2 LT PUSH2 0xB46 JUMPI PUSH32 0x4E487B7100000000000000000000000000000000000000000000000000000000 PUSH1 0x0 MSTORE PUSH1 0x32 PUSH1 0x4 MSTORE PUSH1 0x24 PUSH1 0x0 REVERT JUMPDEST ADD SLOAD PUSH2 0xB5A SWAP1 PUSH8 0xDE0B6B3A7640000 PUSH2 0xE9F JUMP JUMPDEST SWAP1 POP PUSH1 0x0 PUSH1 0x40 MLOAD DUP1 PUSH1 0x80 ADD PUSH1 0x40 MSTORE DUP1 DUP4 DUP2 MSTORE PUSH1 0x20 ADD PUSH1 0x0 DUP2 MSTORE PUSH1 0x20 ADD DUP4 DUP2 MSTORE PUSH1 0x20 ADD PUSH2 0x1A8 SLOAD DUP5 PUSH8 0xDE0B6B3A7640000 PUSH2 0xB94 SWAP2 SWAP1 PUSH2 0xE9F JUMP JUMPDEST PUSH2 0xB9E SWAP2 SWAP1 PUSH2 0xE66 JUMP JUMPDEST SWAP1 MSTORE CALLER PUSH1 0x0 DUP2 DUP2 MSTORE PUSH2 0x1A6 PUSH1 0x20 SWAP1 DUP2 MSTORE PUSH1 0x40 DUP1 DUP4 KECCAK256 DUP6 MLOAD DUP2 SSTORE DUP3 DUP7 ADD MLOAD PUSH1 0x1 DUP1 DUP4 ADD SWAP2 SWAP1 SWAP2 SSTORE DUP3 DUP8 ADD MLOAD PUSH1 0x2 DUP4 ADD SSTORE PUSH1 0x60 DUP8 ADD MLOAD PUSH1 0x3 SWAP1 SWAP3 ADD SWAP2 SWAP1 SWAP2 SSTORE PUSH2 0x1A7 SWAP1 SWAP3 MSTORE SWAP2 DUP3 SWAP1 KECCAK256 SSTORE MLOAD SWAP2 SWAP3 POP SWAP1 PUSH32 0x9858C35F1FFD3D303D6B053271B64EDFB9FD54D71EA43480AA71FB08DABB5FD SWAP1 PUSH2 0xC23 SWAP1 DUP6 SWAP1 TIMESTAMP SWAP1 SWAP2 DUP3 MSTORE PUSH1 0x20 DUP3 ADD MSTORE PUSH1 0x40 ADD SWAP1 JUMP JUMPDEST PUSH1 0x40 MLOAD DUP1 SWAP2 SUB SWAP1 LOG2 POP POP PUSH2 0xC44 JUMP JUMPDEST DUP1 PUSH2 0xC3C DUP2 PUSH2 0xEF3 JUMP JUMPDEST SWAP2 POP POP PUSH2 0xAA8 JUMP JUMPDEST POP PUSH2 0x996 PUSH1 0x1 DUP1 SSTORE JUMP JUMPDEST PUSH1 0x2 PUSH1 0x1 SLOAD EQ ISZERO PUSH2 0xCBB JUMPI PUSH1 0x40 MLOAD PUSH32 0x8C379A000000000000000000000000000000000000000000000000000000000 DUP2 MSTORE PUSH1 0x20 PUSH1 0x4 DUP3 ADD MSTORE PUSH1 0x1F PUSH1 0x24 DUP3 ADD MSTORE PUSH32 0x5265656E7472616E637947756172643A207265656E7472616E742063616C6C00 PUSH1 0x44 DUP3 ADD MSTORE PUSH1 0x64 ADD PUSH2 0x60F JUMP JUMPDEST PUSH1 0x2 PUSH1 0x1 SSTORE JUMP JUMPDEST PUSH3 0x93A80 PUSH2 0x1AA SLOAD PUSH2 0xCD4 SWAP2 SWAP1 PUSH2 0xE4E JUMP JUMPDEST TIMESTAMP LT PUSH2 0x996 JUMPI PUSH1 0x1 PUSH2 0x1A9 PUSH1 0x0 DUP3 DUP3 SLOAD PUSH2 0xCEE SWAP2 SWAP1 PUSH2 0xE4E JUMP JUMPDEST SWAP1 SWAP2 SSTORE POP POP PUSH2 0x1AA SLOAD PUSH2 0xD04 SWAP1 PUSH3 0x93A80 PUSH2 0xDB7 JUMP JUMPDEST PUSH2 0x1AA SSTORE PUSH2 0x1AB SLOAD PUSH2 0xD27 SWAP1 PUSH2 0xD1D SWAP1 PUSH3 0x93A80 PUSH2 0xDCA JUMP JUMPDEST PUSH2 0x1AC SLOAD SWAP1 PUSH2 0xDB7 JUMP JUMPDEST PUSH2 0x1AC SSTORE PUSH2 0x1A9 SLOAD PUSH2 0x104 GT ISZERO PUSH2 0xD67 JUMPI PUSH2 0xD5E PUSH3 0x186A0 PUSH2 0xD58 PUSH3 0x1820F PUSH2 0x1AB SLOAD PUSH2 0xDCA SWAP1 SWAP2 SWAP1 PUSH4 0xFFFFFFFF AND JUMP JUMPDEST SWAP1 PUSH2 0xDD6 JUMP JUMPDEST PUSH2 0x1AB SSTORE PUSH2 0xD6E JUMP JUMPDEST PUSH1 0x0 PUSH2 0x1AB SSTORE JUMPDEST PUSH2 0x1AB SLOAD PUSH2 0x1AC SLOAD PUSH1 0x40 DUP1 MLOAD TIMESTAMP DUP2 MSTORE PUSH1 0x20 DUP2 ADD SWAP4 SWAP1 SWAP4 MSTORE DUP3 ADD MSTORE PUSH32 0x10636CC8BFF36C7D54ED46EC7B5A256FB409C289793B1A21385AA0281A2DB11C SWAP1 PUSH1 0x60 ADD PUSH1 0x40 MLOAD DUP1 SWAP2 SUB SWAP1 LOG1 JUMP JUMPDEST PUSH1 0x0 PUSH2 0xDC3 DUP3 DUP5 PUSH2 0xE4E JUMP JUMPDEST SWAP4 SWAP3 POP POP POP JUMP JUMPDEST PUSH1 0x0 PUSH2 0xDC3 DUP3 DUP5 PUSH2 0xE9F JUMP JUMPDEST PUSH1 0x0 PUSH2 0xDC3 DUP3 DUP5 PUSH2 0xE66 JUMP JUMPDEST PUSH1 0x0 PUSH1 0x20 DUP3 DUP5 SUB SLT ISZERO PUSH2 0xDF3 JUMPI DUP1 DUP2 REVERT JUMPDEST DUP2 CALLDATALOAD PUSH20 0xFFFFFFFFFFFFFFFFFFFFFFFFFFFFFFFFFFFFFFFF DUP2 AND DUP2 EQ PUSH2 0xDC3 JUMPI DUP2 DUP3 REVERT JUMPDEST PUSH1 0x0 PUSH1 0x20 DUP3 DUP5 SUB SLT ISZERO PUSH2 0xE27 JUMPI DUP1 DUP2 REVERT JUMPDEST DUP2 MLOAD DUP1 ISZERO ISZERO DUP2 EQ PUSH2 0xDC3 JUMPI DUP2 DUP3 REVERT JUMPDEST PUSH1 0x0 PUSH1 0x20 DUP3 DUP5 SUB SLT ISZERO PUSH2 0xE47 JUMPI DUP1 DUP2 REVERT JUMPDEST POP CALLDATALOAD SWAP2 SWAP1 POP JUMP JUMPDEST PUSH1 0x0 DUP3 NOT DUP3 GT ISZERO PUSH2 0xE61 JUMPI PUSH2 0xE61 PUSH2 0xF2C JUMP JUMPDEST POP ADD SWAP1 JUMP JUMPDEST PUSH1 0x0 DUP3 PUSH2 0xE9A JUMPI PUSH32 0x4E487B7100000000000000000000000000000000000000000000000000000000 DUP2 MSTORE PUSH1 0x12 PUSH1 0x4 MSTORE PUSH1 0x24 DUP2 REVERT JUMPDEST POP DIV SWAP1 JUMP JUMPDEST PUSH1 0x0 DUP2 PUSH32 0xFFFFFFFFFFFFFFFFFFFFFFFFFFFFFFFFFFFFFFFFFFFFFFFFFFFFFFFFFFFFFFFF DIV DUP4 GT DUP3 ISZERO ISZERO AND ISZERO PUSH2 0xED7 JUMPI PUSH2 0xED7 PUSH2 0xF2C JUMP JUMPDEST POP MUL SWAP1 JUMP JUMPDEST PUSH1 0x0 DUP3 DUP3 LT ISZERO PUSH2 0xEEE JUMPI PUSH2 0xEEE PUSH2 0xF2C JUMP JUMPDEST POP SUB SWAP1 JUMP JUMPDEST PUSH1 0x0 PUSH32 0xFFFFFFFFFFFFFFFFFFFFFFFFFFFFFFFFFFFFFFFFFFFFFFFFFFFFFFFFFFFFFFFF DUP3 EQ ISZERO PUSH2 0xF25 JUMPI PUSH2 0xF25 PUSH2 0xF2C JUMP JUMPDEST POP PUSH1 0x1 ADD SWAP1 JUMP JUMPDEST PUSH32 0x4E487B7100000000000000000000000000000000000000000000000000000000 PUSH1 0x0 MSTORE PUSH1 0x11 PUSH1 0x4 MSTORE PUSH1 0x24 PUSH1 0x0 REVERT INVALID LOG2 PUSH5 0x6970667358 0x22 SLT KECCAK256 PUSH8 0xF7E8ED3AB465F9D9 PUSH6 0x87C4EAF6131 SAR 0xE8 0xAD PUSH32 0x3CDF936F8DD85D671373B5C164736F6C63430008040033000000000000000000 "},"methodIdentifiers":{"airdrop(address)":"21860a05","available_supply()":"24f92a25","claim()":"4e71d92d","claimExact(uint256)":"06a82ce1","mainToken()":"3fc15f15","miningEpoch()":"64ef6dd4","paused()":"5c975abb","rate()":"2c4e722e","startEpochTime()":"1814a5b1","updateEmission()":"5dc93e1d","validate()":"6901f668","validated(address)":"f8e47cd6","vestLock()":"c4121545"}}}}}