{"contracts/Vesting.sol":{"Vesting":{"abi":[{"inputs":[{"internalType":"contract IERC20","name":"_token","type":"address"},{"internalType":"address","name":"_multiSig","type":"address"}],"stateMutability":"nonpayable","type":"constructor"},{"anonymous":false,"inputs":[{"indexed":true,"internalType":"address","name":"previousOwner","type":"address"},{"indexed":true,"internalType":"address","name":"newOwner","type":"address"}],"name":"OwnershipTransferred","type":"event"},{"anonymous":false,"inputs":[{"indexed":false,"internalType":"address","name":"account","type":"address"}],"name":"Paused","type":"event"},{"anonymous":false,"inputs":[{"indexed":true,"internalType":"address","name":"account","type":"address"},{"indexed":false,"internalType":"uint256","name":"currentTimestamp","type":"uint256"}],"name":"Revoke","type":"event"},{"anonymous":false,"inputs":[{"indexed":true,"internalType":"address","name":"beneficiary","type":"address"},{"indexed":false,"internalType":"uint256","name":"amount","type":"uint256"},{"indexed":false,"internalType":"uint256","name":"currentTimestamp","type":"uint256"}],"name":"TokenClaimed","type":"event"},{"anonymous":false,"inputs":[{"indexed":true,"internalType":"address","name":"beneficiary","type":"address"},{"indexed":false,"internalType":"uint256","name":"amount","type":"uint256"},{"indexed":false,"internalType":"uint256","name":"currentTimestamp","type":"uint256"}],"name":"TokenRevoked","type":"event"},{"anonymous":false,"inputs":[{"indexed":true,"internalType":"address","name":"sender","type":"address"},{"indexed":false,"internalType":"uint256","name":"amount","type":"uint256"},{"indexed":false,"internalType":"uint256","name":"releaseTimestamp","type":"uint256"},{"indexed":false,"internalType":"uint256","name":"currentTimestamp","type":"uint256"}],"name":"TokenVested","type":"event"},{"anonymous":false,"inputs":[{"indexed":false,"internalType":"address","name":"account","type":"address"}],"name":"Unpaused","type":"event"},{"inputs":[{"internalType":"address","name":"","type":"address"}],"name":"benClaimed","outputs":[{"internalType":"uint256","name":"","type":"uint256"}],"stateMutability":"view","type":"function"},{"inputs":[{"internalType":"address","name":"","type":"address"},{"internalType":"uint256","name":"","type":"uint256"}],"name":"benRevocable","outputs":[{"internalType":"bool","name":"","type":"bool"}],"stateMutability":"view","type":"function"},{"inputs":[{"internalType":"address","name":"","type":"address"}],"name":"benTotal","outputs":[{"internalType":"uint256","name":"","type":"uint256"}],"stateMutability":"view","type":"function"},{"inputs":[{"internalType":"address","name":"","type":"address"},{"internalType":"uint256","name":"","type":"uint256"}],"name":"benVested","outputs":[{"internalType":"uint256","name":"","type":"uint256"}],"stateMutability":"view","type":"function"},{"inputs":[{"internalType":"address","name":"","type":"address"}],"name":"benVestingIndex","outputs":[{"internalType":"uint256","name":"","type":"uint256"}],"stateMutability":"view","type":"function"},{"inputs":[{"internalType":"address","name":"_addr","type":"address"}],"name":"calcClaimableAmount","outputs":[{"internalType":"uint256","name":"","type":"uint256"}],"stateMutability":"view","type":"function"},{"inputs":[],"name":"claim","outputs":[],"stateMutability":"nonpayable","type":"function"},{"inputs":[],"name":"multiSig","outputs":[{"internalType":"address","name":"","type":"address"}],"stateMutability":"view","type":"function"},{"inputs":[],"name":"owner","outputs":[{"internalType":"address","name":"","type":"address"}],"stateMutability":"view","type":"function"},{"inputs":[],"name":"pause","outputs":[],"stateMutability":"nonpayable","type":"function"},{"inputs":[],"name":"paused","outputs":[{"internalType":"bool","name":"","type":"bool"}],"stateMutability":"view","type":"function"},{"inputs":[],"name":"renounceOwnership","outputs":[],"stateMutability":"nonpayable","type":"function"},{"inputs":[{"internalType":"address","name":"_addr","type":"address"}],"name":"revoke","outputs":[],"stateMutability":"nonpayable","type":"function"},{"inputs":[{"internalType":"address","name":"","type":"address"},{"internalType":"uint256","name":"","type":"uint256"}],"name":"timelocks","outputs":[{"internalType":"uint256","name":"amount","type":"uint256"},{"internalType":"uint256","name":"releaseTimestamp","type":"uint256"}],"stateMutability":"view","type":"function"},{"inputs":[],"name":"totalClaimedAmount","outputs":[{"internalType":"uint256","name":"","type":"uint256"}],"stateMutability":"view","type":"function"},{"inputs":[],"name":"totalVestedAmount","outputs":[{"internalType":"uint256","name":"","type":"uint256"}],"stateMutability":"view","type":"function"},{"inputs":[{"internalType":"address","name":"newOwner","type":"address"}],"name":"transferOwnership","outputs":[],"stateMutability":"nonpayable","type":"function"},{"inputs":[],"name":"unpause","outputs":[],"stateMutability":"nonpayable","type":"function"},{"inputs":[{"internalType":"address","name":"_beneficiary","type":"address"},{"internalType":"uint256","name":"_amount","type":"uint256"},{"internalType":"uint256","name":"_isRevocable","type":"uint256"}],"name":"vest","outputs":[],"stateMutability":"payable","type":"function"},{"inputs":[],"name":"vestingToken","outputs":[{"internalType":"contract IERC20","name":"","type":"address"}],"stateMutability":"view","type":"function"}],"evm":{"bytecode":{"linkReferences":{},"object":"60806040526301dfe2006006553480156200001957600080fd5b5060405162001e7a38038062001e7a8339810160408190526200003c9162000148565b6200004733620000f8565b6000805460ff60a01b19169055600180556001600160a01b038216158015906200007957506001600160a01b03811615155b620000bc5760405162461bcd60e51b815260206004820152600f60248201526e496e76616c6964206164647265737360881b604482015260640160405180910390fd5b600280546001600160a01b039384166001600160a01b03199182161790915560038054929093169116179055600060048190556005556200019f565b600080546001600160a01b038381166001600160a01b0319831681178455604051919092169283917f8be0079c531659141344cd1fd0a4f28419497f9722a3daafe3b4186f6b6457e09190a35050565b600080604083850312156200015b578182fd5b8251620001688162000186565b60208401519092506200017b8162000186565b809150509250929050565b6001600160a01b03811681146200019c57600080fd5b50565b611ccb80620001af6000396000f3fe60806040526004361061015f5760003560e01c80638456cb59116100c0578063cd0e9a6211610074578063e26aba7711610059578063e26aba77146103a5578063ea612ae8146103c5578063f2fde38b146103fa57600080fd5b8063cd0e9a6214610358578063cea238231461038557600080fd5b80638dff1d2e116100a55780638dff1d2e146102e85780639661cb0d14610315578063b5ae3a5a1461032b57600080fd5b80638456cb59146102b55780638da5cb5b146102ca57600080fd5b80635c975abb11610117578063715018a6116100fc578063715018a61461026057806374a8f103146102755780637b666b931461029557600080fd5b80635c975abb1461020057806364893fcb1461023c57600080fd5b806336e0004a1161014857806336e0004a146101b65780633f4ba83a146101d65780634e71d92d146101eb57600080fd5b806319d152fa146101645780632546de10146101a1575b600080fd5b34801561017057600080fd5b50600254610184906001600160a01b031681565b6040516001600160a01b0390911681526020015b60405180910390f35b6101b46101af366004611acf565b61041a565b005b3480156101c257600080fd5b50600354610184906001600160a01b031681565b3480156101e257600080fd5b506101b461074b565b3480156101f757600080fd5b506101b4610765565b34801561020c57600080fd5b5060005474010000000000000000000000000000000000000000900460ff165b6040519015158152602001610198565b34801561024857600080fd5b5061025260045481565b604051908152602001610198565b34801561026c57600080fd5b506101b46109b7565b34801561028157600080fd5b506101b4610290366004611a8c565b6109c9565b3480156102a157600080fd5b506102526102b0366004611aa6565b610db9565b3480156102c157600080fd5b506101b4610dde565b3480156102d657600080fd5b506000546001600160a01b0316610184565b3480156102f457600080fd5b50610252610303366004611a8c565b600a6020526000908152604090205481565b34801561032157600080fd5b5061025260055481565b34801561033757600080fd5b50610252610346366004611a8c565b600b6020526000908152604090205481565b34801561036457600080fd5b50610252610373366004611a8c565b60086020526000908152604090205481565b34801561039157600080fd5b5061022c6103a0366004611aa6565b610df6565b3480156103b157600080fd5b506102526103c0366004611a8c565b610e2f565b3480156103d157600080fd5b506103e56103e0366004611aa6565b610ff6565b60408051928352602083019190915201610198565b34801561040657600080fd5b506101b4610415366004611a8c565b611032565b6104226110c2565b6001600160a01b03831661047d5760405162461bcd60e51b815260206004820152600f60248201527f496e76616c69642061646472657373000000000000000000000000000000000060448201526064015b60405180910390fd5b600082116104cd5760405162461bcd60e51b815260206004820152601760248201527f616d6f756e74206d75737420626520706f7369746976650000000000000000006044820152606401610474565b8015806104da5750806001145b6105265760405162461bcd60e51b815260206004820152601860248201527f7265766f6361626c65206d7573742062652030206f72203100000000000000006044820152606401610474565b600061053d6006544261112d90919063ffffffff16565b60408051808201825285815260208082018481526001600160a01b03891660009081526007835293842080546001818101835591865292909420835160029093020191825551920191909155909150826105cc57604080518082018252600080825260208083018290526001600160a01b0389168252600c9052919091206105c691600261195a565b5061060d565b826001141561060d5760408051808201825260018152600060208083018290526001600160a01b0389168252600c90529190912061060b91600261195a565b505b60045461061a908561112d565b6004556001600160a01b0385166000908152600a6020526040902054610640908561112d565b6001600160a01b038681166000908152600a6020526040908190209290925560025491517f23b872dd000000000000000000000000000000000000000000000000000000008152336004820152306024820152604481018790529116906323b872dd90606401602060405180830381600087803b1580156106c057600080fd5b505af11580156106d4573d6000803e3d6000fd5b505050506040513d601f19601f820116820180604052508101906106f89190611b01565b506040805185815260208101849052428183015290516001600160a01b038716917ffba6ff41094454c4563a4e18ebed816362cc72402a008ddc001399c6a42f947b919081900360600190a25050505050565b610753611140565b61075b61119a565b610763611204565b565b61076d6110c2565b610775611274565b336000908152600c6020526040902054610100900460ff16156107ff5760405162461bcd60e51b8152602060048201526024808201527f4163636f756e74206d757374206e6f7420616c7265616479206265207265766f60448201527f6b65642e000000000000000000000000000000000000000000000000000000006064820152608401610474565b336000818152600860205260408120549091610825919061081f906112ce565b9061154e565b90506000811161089d5760405162461bcd60e51b815260206004820152602160248201527f436c61696d61626c6520616d6f756e74206d75737420626520706f736974697660448201527f65000000000000000000000000000000000000000000000000000000000000006064820152608401610474565b336000908152600a60205260409020548111156109225760405162461bcd60e51b815260206004820152602d60248201527f43616e6e6f74207769746864726177206d6f7265207468616e20746f74616c2060448201527f76657374656420616d6f756e74000000000000000000000000000000000000006064820152608401610474565b3360009081526008602052604090205461093c908261112d565b33600090815260086020526040902055600554610959908261112d565b600555600254610973906001600160a01b0316338361155a565b6040805182815242602082015233917fcb1e26772e882480176a3e649a5f7937dc0ec3f50126283faf56f927b070be80910160405180910390a25061076360018055565b6109bf611140565b61076360006115df565b6109d1611140565b6109d96110c2565b6001600160a01b0381166000908152600c602052604090205460ff1615156001148015610a2457506001600160a01b0381166000908152600c6020526040902054610100900460ff16155b610a965760405162461bcd60e51b815260206004820152603260248201527f4163636f756e74206d757374206265207265766f6b61626c6520616e64206e6f60448201527f7420616c7265616479207265766f6b65642e00000000000000000000000000006064820152608401610474565b6001600160a01b038116600090815260086020526040812054610abc9061081f846112ce565b6001600160a01b0383166000908152600a6020526040902054909150811115610af557634e487b7160e01b600052600160045260246000fd5b6001600160a01b038216600090815260086020526040902054610b18908261112d565b6001600160a01b038316600090815260086020526040902055600554610b3e908261112d565b600555604080518281524260208201526001600160a01b038416917fcb1e26772e882480176a3e649a5f7937dc0ec3f50126283faf56f927b070be80910160405180910390a26000805b6001600160a01b038416600090815260076020526040902054811015610c11576001600160a01b03841660009081526007602052604090208054610bfd919083908110610be557634e487b7160e01b600052603260045260246000fd5b6000918252602090912060029091020154839061112d565b915080610c0981611c46565b915050610b88565b506001600160a01b0383166000908152600760205260408120610c33916119ec565b6001600160a01b038316600090815260086020526040812054610c5790839061154e565b6001600160a01b0385166000818152600c602090815260409182902080547fffffffffffffffffffffffffffffffffffffffffffffffffffffffffffff00ff16610100179055905142815292935090917fec9ab91322523c899ede7830ec9bfc992b5981cdcc27b91162fb23de5791117b910160405180910390a26001600160a01b03841660008181526008602090815260408083208390558051808201825283815280830184905293835260099091529020610d15916002611a0d565b506001600160a01b038085166000908152600a60209081526040808320839055600b909152812055600254610d4c9116858561155a565b8015610db357600354600254610d6f916001600160a01b0391821691168361155a565b604080518281524260208201526001600160a01b038616917f4dcda4151ee7959da84aef6308b5c7f73e90d7e198a5d3bdb1b281020900c692910160405180910390a25b50505050565b60096020528160005260406000208160028110610dd557600080fd5b01549150829050565b610de6611140565b610dee6110c2565b610763611647565b600c6020528160005260406000208160028110610e1257600080fd5b602081049091015460ff601f9092166101000a9004169150829050565b600080805b6001600160a01b038416600090815260076020526040902054811015610fef576001600160a01b0384166000908152600760205260409020805482908110610e8c57634e487b7160e01b600052603260045260246000fd5b9060005260206000209060020201600101544210610ee8576001600160a01b03841660009081526007602052604090208054610ee1919083908110610be557634e487b7160e01b600052603260045260246000fd5b9150610fdd565b6000610f5460065460076000886001600160a01b03166001600160a01b031681526020019081526020016000208481548110610f3457634e487b7160e01b600052603260045260246000fd5b90600052602060002090600202016001015461154e90919063ffffffff16565b90506000610fcc600654610fc6600760008a6001600160a01b03166001600160a01b031681526020019081526020016000208681548110610fa557634e487b7160e01b600052603260045260246000fd5b6000918252602090912060029091020154610fc0428761154e565b906116b6565b906116c2565b9050610fd8848261112d565b935050505b80610fe781611c46565b915050610e34565b5092915050565b6007602052816000526040600020818154811061101257600080fd5b600091825260209091206002909102018054600190910154909250905082565b61103a611140565b6001600160a01b0381166110b65760405162461bcd60e51b815260206004820152602660248201527f4f776e61626c653a206e6577206f776e657220697320746865207a65726f206160448201527f64647265737300000000000000000000000000000000000000000000000000006064820152608401610474565b6110bf816115df565b50565b60005474010000000000000000000000000000000000000000900460ff16156107635760405162461bcd60e51b815260206004820152601060248201527f5061757361626c653a20706175736564000000000000000000000000000000006044820152606401610474565b60006111398284611b8e565b9392505050565b6000546001600160a01b031633146107635760405162461bcd60e51b815260206004820181905260248201527f4f776e61626c653a2063616c6c6572206973206e6f7420746865206f776e65726044820152606401610474565b60005474010000000000000000000000000000000000000000900460ff166107635760405162461bcd60e51b815260206004820152601460248201527f5061757361626c653a206e6f74207061757365640000000000000000000000006044820152606401610474565b61120c61119a565b600080547fffffffffffffffffffffff00ffffffffffffffffffffffffffffffffffffffff1690557f5db9ee0a495bf2e6ff9c91a7834c1ba4fdd244a5e8aa4e537bd38aeae4b073aa335b6040516001600160a01b03909116815260200160405180910390a1565b600260015414156112c75760405162461bcd60e51b815260206004820152601f60248201527f5265656e7472616e637947756172643a207265656e7472616e742063616c6c006044820152606401610474565b6002600155565b6001600160a01b0381166000908152600b60205260408120548190819081905b6001600160a01b038616600090815260076020526040902054811015611487576001600160a01b038616600090815260076020526040902080548290811061134657634e487b7160e01b600052603260045260246000fd5b90600052602060002090600202016001015442106113c757611369600183611b8e565b6001600160a01b038716600090815260076020526040902080549193506113c091839081106113a857634e487b7160e01b600052603260045260246000fd5b6000918252602090912060029091020154859061112d565b9350611475565b6000611413600654600760008a6001600160a01b03166001600160a01b031681526020019081526020016000208481548110610f3457634e487b7160e01b600052603260045260246000fd5b90506000611464600654610fc6600760008c6001600160a01b03166001600160a01b031681526020019081526020016000208681548110610fa557634e487b7160e01b600052603260045260246000fd5b9050611470858261112d565b945050505b8061147f81611c46565b9150506112ee565b506001600160a01b0385166000908152600b6020526040812080548392906114b0908490611b8e565b90915550506001600160a01b03851660009081526009602052604081206114dd918591905b01549061112d565b6001600160a01b0386166000908152600960205260408120918255600182018490559061150c908490836114d5565b6001600160a01b0387166000908152600a602052604090205490915081111561154557634e487b7160e01b600052600160045260246000fd5b95945050505050565b60006111398284611c03565b604080516001600160a01b038416602482015260448082018490528251808303909101815260649091019091526020810180517bffffffffffffffffffffffffffffffffffffffffffffffffffffffff167fa9059cbb000000000000000000000000000000000000000000000000000000001790526115da9084906116ce565b505050565b600080546001600160a01b038381167fffffffffffffffffffffffff0000000000000000000000000000000000000000831681178455604051919092169283917f8be0079c531659141344cd1fd0a4f28419497f9722a3daafe3b4186f6b6457e09190a35050565b61164f6110c2565b600080547fffffffffffffffffffffff00ffffffffffffffffffffffffffffffffffffffff16740100000000000000000000000000000000000000001790557f62e78cea01bee320cd4e420270b5ea74000d11b0c9f74754ebdbfc544b05a2586112573390565b60006111398284611bc6565b60006111398284611ba6565b6000611723826040518060400160405280602081526020017f5361666545524332303a206c6f772d6c6576656c2063616c6c206661696c6564815250856001600160a01b03166117b69092919063ffffffff16565b90508051600014806117445750808060200190518101906117449190611b01565b6115da5760405162461bcd60e51b815260206004820152602a60248201527f5361666545524332303a204552433230206f7065726174696f6e20646964206e60448201527f6f742073756363656564000000000000000000000000000000000000000000006064820152608401610474565b60606117c584846000856117cd565b949350505050565b6060824710156118455760405162461bcd60e51b815260206004820152602660248201527f416464726573733a20696e73756666696369656e742062616c616e636520666f60448201527f722063616c6c00000000000000000000000000000000000000000000000000006064820152608401610474565b600080866001600160a01b031685876040516118619190611b21565b60006040518083038185875af1925050503d806000811461189e576040519150601f19603f3d011682016040523d82523d6000602084013e6118a3565b606091505b50915091506118b4878383876118bf565b979650505050505050565b6060831561192b578251611924576001600160a01b0385163b6119245760405162461bcd60e51b815260206004820152601d60248201527f416464726573733a2063616c6c20746f206e6f6e2d636f6e74726163740000006044820152606401610474565b50816117c5565b6117c583838151156119405781518083602001fd5b8060405162461bcd60e51b81526004016104749190611b3d565b6001830191839082156119dc5791602002820160005b838211156119ad57835183826101000a81548160ff0219169083151502179055509260200192600101602081600001049283019260010302611970565b80156119da5782816101000a81549060ff02191690556001016020816000010492830192600103026119ad565b505b506119e8929150611a40565b5090565b50805460008255600202906000526020600020908101906110bf9190611a55565b82600281019282156119dc579160200282015b828111156119dc578251829060ff16905591602001919060010190611a20565b5b808211156119e85760008155600101611a41565b5b808211156119e85760008082556001820155600201611a56565b80356001600160a01b0381168114611a8757600080fd5b919050565b600060208284031215611a9d578081fd5b61113982611a70565b60008060408385031215611ab8578081fd5b611ac183611a70565b946020939093013593505050565b600080600060608486031215611ae3578081fd5b611aec84611a70565b95602085013595506040909401359392505050565b600060208284031215611b12578081fd5b81518015158114611139578182fd5b60008251611b33818460208701611c1a565b9190910192915050565b6020815260008251806020840152611b5c816040850160208701611c1a565b601f017fffffffffffffffffffffffffffffffffffffffffffffffffffffffffffffffe0169190910160400192915050565b60008219821115611ba157611ba1611c7f565b500190565b600082611bc157634e487b7160e01b81526012600452602481fd5b500490565b6000817fffffffffffffffffffffffffffffffffffffffffffffffffffffffffffffffff0483118215151615611bfe57611bfe611c7f565b500290565b600082821015611c1557611c15611c7f565b500390565b60005b83811015611c35578181015183820152602001611c1d565b83811115610db35750506000910152565b60007fffffffffffffffffffffffffffffffffffffffffffffffffffffffffffffffff821415611c7857611c78611c7f565b5060010190565b634e487b7160e01b600052601160045260246000fdfea26469706673582212209e55767e90de87fa242c2fafe69c78d92926ed209855bdd635336d3c65510de864736f6c63430008040033","opcodes":"PUSH1 0x80 PUSH1 0x40 MSTORE PUSH4 0x1DFE200 PUSH1 0x6 SSTORE CALLVALUE DUP1 ISZERO PUSH3 0x19 JUMPI PUSH1 0x0 DUP1 REVERT JUMPDEST POP PUSH1 0x40 MLOAD PUSH3 0x1E7A CODESIZE SUB DUP1 PUSH3 0x1E7A DUP4 CODECOPY DUP2 ADD PUSH1 0x40 DUP2 SWAP1 MSTORE PUSH3 0x3C SWAP2 PUSH3 0x148 JUMP JUMPDEST PUSH3 0x47 CALLER PUSH3 0xF8 JUMP JUMPDEST PUSH1 0x0 DUP1 SLOAD PUSH1 0xFF PUSH1 0xA0 SHL NOT AND SWAP1 SSTORE PUSH1 0x1 DUP1 SSTORE PUSH1 0x1 PUSH1 0x1 PUSH1 0xA0 SHL SUB DUP3 AND ISZERO DUP1 ISZERO SWAP1 PUSH3 0x79 JUMPI POP PUSH1 0x1 PUSH1 0x1 PUSH1 0xA0 SHL SUB DUP2 AND ISZERO ISZERO JUMPDEST PUSH3 0xBC JUMPI PUSH1 0x40 MLOAD PUSH3 0x461BCD PUSH1 0xE5 SHL DUP2 MSTORE PUSH1 0x20 PUSH1 0x4 DUP3 ADD MSTORE PUSH1 0xF PUSH1 0x24 DUP3 ADD MSTORE PUSH15 0x496E76616C69642061646472657373 PUSH1 0x88 SHL PUSH1 0x44 DUP3 ADD MSTORE PUSH1 0x64 ADD PUSH1 0x40 MLOAD DUP1 SWAP2 SUB SWAP1 REVERT JUMPDEST PUSH1 0x2 DUP1 SLOAD PUSH1 0x1 PUSH1 0x1 PUSH1 0xA0 SHL SUB SWAP4 DUP5 AND PUSH1 0x1 PUSH1 0x1 PUSH1 0xA0 SHL SUB NOT SWAP2 DUP3 AND OR SWAP1 SWAP2 SSTORE PUSH1 0x3 DUP1 SLOAD SWAP3 SWAP1 SWAP4 AND SWAP2 AND OR SWAP1 SSTORE PUSH1 0x0 PUSH1 0x4 DUP2 SWAP1 SSTORE PUSH1 0x5 SSTORE PUSH3 0x19F JUMP JUMPDEST PUSH1 0x0 DUP1 SLOAD PUSH1 0x1 PUSH1 0x1 PUSH1 0xA0 SHL SUB DUP4 DUP2 AND PUSH1 0x1 PUSH1 0x1 PUSH1 0xA0 SHL SUB NOT DUP4 AND DUP2 OR DUP5 SSTORE PUSH1 0x40 MLOAD SWAP2 SWAP1 SWAP3 AND SWAP3 DUP4 SWAP2 PUSH32 0x8BE0079C531659141344CD1FD0A4F28419497F9722A3DAAFE3B4186F6B6457E0 SWAP2 SWAP1 LOG3 POP POP JUMP JUMPDEST PUSH1 0x0 DUP1 PUSH1 0x40 DUP4 DUP6 SUB SLT ISZERO PUSH3 0x15B JUMPI DUP2 DUP3 REVERT JUMPDEST DUP3 MLOAD PUSH3 0x168 DUP2 PUSH3 0x186 JUMP JUMPDEST PUSH1 0x20 DUP5 ADD MLOAD SWAP1 SWAP3 POP PUSH3 0x17B DUP2 PUSH3 0x186 JUMP JUMPDEST DUP1 SWAP2 POP POP SWAP3 POP SWAP3 SWAP1 POP JUMP JUMPDEST PUSH1 0x1 PUSH1 0x1 PUSH1 0xA0 SHL SUB DUP2 AND DUP2 EQ PUSH3 0x19C JUMPI PUSH1 0x0 DUP1 REVERT JUMPDEST POP JUMP JUMPDEST PUSH2 0x1CCB DUP1 PUSH3 0x1AF PUSH1 0x0 CODECOPY PUSH1 0x0 RETURN INVALID PUSH1 0x80 PUSH1 0x40 MSTORE PUSH1 0x4 CALLDATASIZE LT PUSH2 0x15F JUMPI PUSH1 0x0 CALLDATALOAD PUSH1 0xE0 SHR DUP1 PUSH4 0x8456CB59 GT PUSH2 0xC0 JUMPI DUP1 PUSH4 0xCD0E9A62 GT PUSH2 0x74 JUMPI DUP1 PUSH4 0xE26ABA77 GT PUSH2 0x59 JUMPI DUP1 PUSH4 0xE26ABA77 EQ PUSH2 0x3A5 JUMPI DUP1 PUSH4 0xEA612AE8 EQ PUSH2 0x3C5 JUMPI DUP1 PUSH4 0xF2FDE38B EQ PUSH2 0x3FA JUMPI PUSH1 0x0 DUP1 REVERT JUMPDEST DUP1 PUSH4 0xCD0E9A62 EQ PUSH2 0x358 JUMPI DUP1 PUSH4 0xCEA23823 EQ PUSH2 0x385 JUMPI PUSH1 0x0 DUP1 REVERT JUMPDEST DUP1 PUSH4 0x8DFF1D2E GT PUSH2 0xA5 JUMPI DUP1 PUSH4 0x8DFF1D2E EQ PUSH2 0x2E8 JUMPI DUP1 PUSH4 0x9661CB0D EQ PUSH2 0x315 JUMPI DUP1 PUSH4 0xB5AE3A5A EQ PUSH2 0x32B JUMPI PUSH1 0x0 DUP1 REVERT JUMPDEST DUP1 PUSH4 0x8456CB59 EQ PUSH2 0x2B5 JUMPI DUP1 PUSH4 0x8DA5CB5B EQ PUSH2 0x2CA JUMPI PUSH1 0x0 DUP1 REVERT JUMPDEST DUP1 PUSH4 0x5C975ABB GT PUSH2 0x117 JUMPI DUP1 PUSH4 0x715018A6 GT PUSH2 0xFC JUMPI DUP1 PUSH4 0x715018A6 EQ PUSH2 0x260 JUMPI DUP1 PUSH4 0x74A8F103 EQ PUSH2 0x275 JUMPI DUP1 PUSH4 0x7B666B93 EQ PUSH2 0x295 JUMPI PUSH1 0x0 DUP1 REVERT JUMPDEST DUP1 PUSH4 0x5C975ABB EQ PUSH2 0x200 JUMPI DUP1 PUSH4 0x64893FCB EQ PUSH2 0x23C JUMPI PUSH1 0x0 DUP1 REVERT JUMPDEST DUP1 PUSH4 0x36E0004A GT PUSH2 0x148 JUMPI DUP1 PUSH4 0x36E0004A EQ PUSH2 0x1B6 JUMPI DUP1 PUSH4 0x3F4BA83A EQ PUSH2 0x1D6 JUMPI DUP1 PUSH4 0x4E71D92D EQ PUSH2 0x1EB JUMPI PUSH1 0x0 DUP1 REVERT JUMPDEST DUP1 PUSH4 0x19D152FA EQ PUSH2 0x164 JUMPI DUP1 PUSH4 0x2546DE10 EQ PUSH2 0x1A1 JUMPI JUMPDEST PUSH1 0x0 DUP1 REVERT JUMPDEST CALLVALUE DUP1 ISZERO PUSH2 0x170 JUMPI PUSH1 0x0 DUP1 REVERT JUMPDEST POP PUSH1 0x2 SLOAD PUSH2 0x184 SWAP1 PUSH1 0x1 PUSH1 0x1 PUSH1 0xA0 SHL SUB AND DUP2 JUMP JUMPDEST PUSH1 0x40 MLOAD PUSH1 0x1 PUSH1 0x1 PUSH1 0xA0 SHL SUB SWAP1 SWAP2 AND DUP2 MSTORE PUSH1 0x20 ADD JUMPDEST PUSH1 0x40 MLOAD DUP1 SWAP2 SUB SWAP1 RETURN JUMPDEST PUSH2 0x1B4 PUSH2 0x1AF CALLDATASIZE PUSH1 0x4 PUSH2 0x1ACF JUMP JUMPDEST PUSH2 0x41A JUMP JUMPDEST STOP JUMPDEST CALLVALUE DUP1 ISZERO PUSH2 0x1C2 JUMPI PUSH1 0x0 DUP1 REVERT JUMPDEST POP PUSH1 0x3 SLOAD PUSH2 0x184 SWAP1 PUSH1 0x1 PUSH1 0x1 PUSH1 0xA0 SHL SUB AND DUP2 JUMP JUMPDEST CALLVALUE DUP1 ISZERO PUSH2 0x1E2 JUMPI PUSH1 0x0 DUP1 REVERT JUMPDEST POP PUSH2 0x1B4 PUSH2 0x74B JUMP JUMPDEST CALLVALUE DUP1 ISZERO PUSH2 0x1F7 JUMPI PUSH1 0x0 DUP1 REVERT JUMPDEST POP PUSH2 0x1B4 PUSH2 0x765 JUMP JUMPDEST CALLVALUE DUP1 ISZERO PUSH2 0x20C JUMPI PUSH1 0x0 DUP1 REVERT JUMPDEST POP PUSH1 0x0 SLOAD PUSH21 0x10000000000000000000000000000000000000000 SWAP1 DIV PUSH1 0xFF AND JUMPDEST PUSH1 0x40 MLOAD SWAP1 ISZERO ISZERO DUP2 MSTORE PUSH1 0x20 ADD PUSH2 0x198 JUMP JUMPDEST CALLVALUE DUP1 ISZERO PUSH2 0x248 JUMPI PUSH1 0x0 DUP1 REVERT JUMPDEST POP PUSH2 0x252 PUSH1 0x4 SLOAD DUP2 JUMP JUMPDEST PUSH1 0x40 MLOAD SWAP1 DUP2 MSTORE PUSH1 0x20 ADD PUSH2 0x198 JUMP JUMPDEST CALLVALUE DUP1 ISZERO PUSH2 0x26C JUMPI PUSH1 0x0 DUP1 REVERT JUMPDEST POP PUSH2 0x1B4 PUSH2 0x9B7 JUMP JUMPDEST CALLVALUE DUP1 ISZERO PUSH2 0x281 JUMPI PUSH1 0x0 DUP1 REVERT JUMPDEST POP PUSH2 0x1B4 PUSH2 0x290 CALLDATASIZE PUSH1 0x4 PUSH2 0x1A8C JUMP JUMPDEST PUSH2 0x9C9 JUMP JUMPDEST CALLVALUE DUP1 ISZERO PUSH2 0x2A1 JUMPI PUSH1 0x0 DUP1 REVERT JUMPDEST POP PUSH2 0x252 PUSH2 0x2B0 CALLDATASIZE PUSH1 0x4 PUSH2 0x1AA6 JUMP JUMPDEST PUSH2 0xDB9 JUMP JUMPDEST CALLVALUE DUP1 ISZERO PUSH2 0x2C1 JUMPI PUSH1 0x0 DUP1 REVERT JUMPDEST POP PUSH2 0x1B4 PUSH2 0xDDE JUMP JUMPDEST CALLVALUE DUP1 ISZERO PUSH2 0x2D6 JUMPI PUSH1 0x0 DUP1 REVERT JUMPDEST POP PUSH1 0x0 SLOAD PUSH1 0x1 PUSH1 0x1 PUSH1 0xA0 SHL SUB AND PUSH2 0x184 JUMP JUMPDEST CALLVALUE DUP1 ISZERO PUSH2 0x2F4 JUMPI PUSH1 0x0 DUP1 REVERT JUMPDEST POP PUSH2 0x252 PUSH2 0x303 CALLDATASIZE PUSH1 0x4 PUSH2 0x1A8C JUMP JUMPDEST PUSH1 0xA PUSH1 0x20 MSTORE PUSH1 0x0 SWAP1 DUP2 MSTORE PUSH1 0x40 SWAP1 KECCAK256 SLOAD DUP2 JUMP JUMPDEST CALLVALUE DUP1 ISZERO PUSH2 0x321 JUMPI PUSH1 0x0 DUP1 REVERT JUMPDEST POP PUSH2 0x252 PUSH1 0x5 SLOAD DUP2 JUMP JUMPDEST CALLVALUE DUP1 ISZERO PUSH2 0x337 JUMPI PUSH1 0x0 DUP1 REVERT JUMPDEST POP PUSH2 0x252 PUSH2 0x346 CALLDATASIZE PUSH1 0x4 PUSH2 0x1A8C JUMP JUMPDEST PUSH1 0xB PUSH1 0x20 MSTORE PUSH1 0x0 SWAP1 DUP2 MSTORE PUSH1 0x40 SWAP1 KECCAK256 SLOAD DUP2 JUMP JUMPDEST CALLVALUE DUP1 ISZERO PUSH2 0x364 JUMPI PUSH1 0x0 DUP1 REVERT JUMPDEST POP PUSH2 0x252 PUSH2 0x373 CALLDATASIZE PUSH1 0x4 PUSH2 0x1A8C JUMP JUMPDEST PUSH1 0x8 PUSH1 0x20 MSTORE PUSH1 0x0 SWAP1 DUP2 MSTORE PUSH1 0x40 SWAP1 KECCAK256 SLOAD DUP2 JUMP JUMPDEST CALLVALUE DUP1 ISZERO PUSH2 0x391 JUMPI PUSH1 0x0 DUP1 REVERT JUMPDEST POP PUSH2 0x22C PUSH2 0x3A0 CALLDATASIZE PUSH1 0x4 PUSH2 0x1AA6 JUMP JUMPDEST PUSH2 0xDF6 JUMP JUMPDEST CALLVALUE DUP1 ISZERO PUSH2 0x3B1 JUMPI PUSH1 0x0 DUP1 REVERT JUMPDEST POP PUSH2 0x252 PUSH2 0x3C0 CALLDATASIZE PUSH1 0x4 PUSH2 0x1A8C JUMP JUMPDEST PUSH2 0xE2F JUMP JUMPDEST CALLVALUE DUP1 ISZERO PUSH2 0x3D1 JUMPI PUSH1 0x0 DUP1 REVERT JUMPDEST POP PUSH2 0x3E5 PUSH2 0x3E0 CALLDATASIZE PUSH1 0x4 PUSH2 0x1AA6 JUMP JUMPDEST PUSH2 0xFF6 JUMP JUMPDEST PUSH1 0x40 DUP1 MLOAD SWAP3 DUP4 MSTORE PUSH1 0x20 DUP4 ADD SWAP2 SWAP1 SWAP2 MSTORE ADD PUSH2 0x198 JUMP JUMPDEST CALLVALUE DUP1 ISZERO PUSH2 0x406 JUMPI PUSH1 0x0 DUP1 REVERT JUMPDEST POP PUSH2 0x1B4 PUSH2 0x415 CALLDATASIZE PUSH1 0x4 PUSH2 0x1A8C JUMP JUMPDEST PUSH2 0x1032 JUMP JUMPDEST PUSH2 0x422 PUSH2 0x10C2 JUMP JUMPDEST PUSH1 0x1 PUSH1 0x1 PUSH1 0xA0 SHL SUB DUP4 AND PUSH2 0x47D JUMPI PUSH1 0x40 MLOAD PUSH3 0x461BCD PUSH1 0xE5 SHL DUP2 MSTORE PUSH1 0x20 PUSH1 0x4 DUP3 ADD MSTORE PUSH1 0xF PUSH1 0x24 DUP3 ADD MSTORE PUSH32 0x496E76616C696420616464726573730000000000000000000000000000000000 PUSH1 0x44 DUP3 ADD MSTORE PUSH1 0x64 ADD JUMPDEST PUSH1 0x40 MLOAD DUP1 SWAP2 SUB SWAP1 REVERT JUMPDEST PUSH1 0x0 DUP3 GT PUSH2 0x4CD JUMPI PUSH1 0x40 MLOAD PUSH3 0x461BCD PUSH1 0xE5 SHL DUP2 MSTORE PUSH1 0x20 PUSH1 0x4 DUP3 ADD MSTORE PUSH1 0x17 PUSH1 0x24 DUP3 ADD MSTORE PUSH32 0x616D6F756E74206D75737420626520706F736974697665000000000000000000 PUSH1 0x44 DUP3 ADD MSTORE PUSH1 0x64 ADD PUSH2 0x474 JUMP JUMPDEST DUP1 ISZERO DUP1 PUSH2 0x4DA JUMPI POP DUP1 PUSH1 0x1 EQ JUMPDEST PUSH2 0x526 JUMPI PUSH1 0x40 MLOAD PUSH3 0x461BCD PUSH1 0xE5 SHL DUP2 MSTORE PUSH1 0x20 PUSH1 0x4 DUP3 ADD MSTORE PUSH1 0x18 PUSH1 0x24 DUP3 ADD MSTORE PUSH32 0x7265766F6361626C65206D7573742062652030206F7220310000000000000000 PUSH1 0x44 DUP3 ADD MSTORE PUSH1 0x64 ADD PUSH2 0x474 JUMP JUMPDEST PUSH1 0x0 PUSH2 0x53D PUSH1 0x6 SLOAD TIMESTAMP PUSH2 0x112D SWAP1 SWAP2 SWAP1 PUSH4 0xFFFFFFFF AND JUMP JUMPDEST PUSH1 0x40 DUP1 MLOAD DUP1 DUP3 ADD DUP3 MSTORE DUP6 DUP2 MSTORE PUSH1 0x20 DUP1 DUP3 ADD DUP5 DUP2 MSTORE PUSH1 0x1 PUSH1 0x1 PUSH1 0xA0 SHL SUB DUP10 AND PUSH1 0x0 SWAP1 DUP2 MSTORE PUSH1 0x7 DUP4 MSTORE SWAP4 DUP5 KECCAK256 DUP1 SLOAD PUSH1 0x1 DUP2 DUP2 ADD DUP4 SSTORE SWAP2 DUP7 MSTORE SWAP3 SWAP1 SWAP5 KECCAK256 DUP4 MLOAD PUSH1 0x2 SWAP1 SWAP4 MUL ADD SWAP2 DUP3 SSTORE MLOAD SWAP3 ADD SWAP2 SWAP1 SWAP2 SSTORE SWAP1 SWAP2 POP DUP3 PUSH2 0x5CC JUMPI PUSH1 0x40 DUP1 MLOAD DUP1 DUP3 ADD DUP3 MSTORE PUSH1 0x0 DUP1 DUP3 MSTORE PUSH1 0x20 DUP1 DUP4 ADD DUP3 SWAP1 MSTORE PUSH1 0x1 PUSH1 0x1 PUSH1 0xA0 SHL SUB DUP10 AND DUP3 MSTORE PUSH1 0xC SWAP1 MSTORE SWAP2 SWAP1 SWAP2 KECCAK256 PUSH2 0x5C6 SWAP2 PUSH1 0x2 PUSH2 0x195A JUMP JUMPDEST POP PUSH2 0x60D JUMP JUMPDEST DUP3 PUSH1 0x1 EQ ISZERO PUSH2 0x60D JUMPI PUSH1 0x40 DUP1 MLOAD DUP1 DUP3 ADD DUP3 MSTORE PUSH1 0x1 DUP2 MSTORE PUSH1 0x0 PUSH1 0x20 DUP1 DUP4 ADD DUP3 SWAP1 MSTORE PUSH1 0x1 PUSH1 0x1 PUSH1 0xA0 SHL SUB DUP10 AND DUP3 MSTORE PUSH1 0xC SWAP1 MSTORE SWAP2 SWAP1 SWAP2 KECCAK256 PUSH2 0x60B SWAP2 PUSH1 0x2 PUSH2 0x195A JUMP JUMPDEST POP JUMPDEST PUSH1 0x4 SLOAD PUSH2 0x61A SWAP1 DUP6 PUSH2 0x112D JUMP JUMPDEST PUSH1 0x4 SSTORE PUSH1 0x1 PUSH1 0x1 PUSH1 0xA0 SHL SUB DUP6 AND PUSH1 0x0 SWAP1 DUP2 MSTORE PUSH1 0xA PUSH1 0x20 MSTORE PUSH1 0x40 SWAP1 KECCAK256 SLOAD PUSH2 0x640 SWAP1 DUP6 PUSH2 0x112D JUMP JUMPDEST PUSH1 0x1 PUSH1 0x1 PUSH1 0xA0 SHL SUB DUP7 DUP2 AND PUSH1 0x0 SWAP1 DUP2 MSTORE PUSH1 0xA PUSH1 0x20 MSTORE PUSH1 0x40 SWAP1 DUP2 SWAP1 KECCAK256 SWAP3 SWAP1 SWAP3 SSTORE PUSH1 0x2 SLOAD SWAP2 MLOAD PUSH32 0x23B872DD00000000000000000000000000000000000000000000000000000000 DUP2 MSTORE CALLER PUSH1 0x4 DUP3 ADD MSTORE ADDRESS PUSH1 0x24 DUP3 ADD MSTORE PUSH1 0x44 DUP2 ADD DUP8 SWAP1 MSTORE SWAP2 AND SWAP1 PUSH4 0x23B872DD SWAP1 PUSH1 0x64 ADD PUSH1 0x20 PUSH1 0x40 MLOAD DUP1 DUP4 SUB DUP2 PUSH1 0x0 DUP8 DUP1 EXTCODESIZE ISZERO DUP1 ISZERO PUSH2 0x6C0 JUMPI PUSH1 0x0 DUP1 REVERT JUMPDEST POP GAS CALL ISZERO DUP1 ISZERO PUSH2 0x6D4 JUMPI RETURNDATASIZE PUSH1 0x0 DUP1 RETURNDATACOPY RETURNDATASIZE PUSH1 0x0 REVERT JUMPDEST POP POP POP POP PUSH1 0x40 MLOAD RETURNDATASIZE PUSH1 0x1F NOT PUSH1 0x1F DUP3 ADD AND DUP3 ADD DUP1 PUSH1 0x40 MSTORE POP DUP2 ADD SWAP1 PUSH2 0x6F8 SWAP2 SWAP1 PUSH2 0x1B01 JUMP JUMPDEST POP PUSH1 0x40 DUP1 MLOAD DUP6 DUP2 MSTORE PUSH1 0x20 DUP2 ADD DUP5 SWAP1 MSTORE TIMESTAMP DUP2 DUP4 ADD MSTORE SWAP1 MLOAD PUSH1 0x1 PUSH1 0x1 PUSH1 0xA0 SHL SUB DUP8 AND SWAP2 PUSH32 0xFBA6FF41094454C4563A4E18EBED816362CC72402A008DDC001399C6A42F947B SWAP2 SWAP1 DUP2 SWAP1 SUB PUSH1 0x60 ADD SWAP1 LOG2 POP POP POP POP POP JUMP JUMPDEST PUSH2 0x753 PUSH2 0x1140 JUMP JUMPDEST PUSH2 0x75B PUSH2 0x119A JUMP JUMPDEST PUSH2 0x763 PUSH2 0x1204 JUMP JUMPDEST JUMP JUMPDEST PUSH2 0x76D PUSH2 0x10C2 JUMP JUMPDEST PUSH2 0x775 PUSH2 0x1274 JUMP JUMPDEST CALLER PUSH1 0x0 SWAP1 DUP2 MSTORE PUSH1 0xC PUSH1 0x20 MSTORE PUSH1 0x40 SWAP1 KECCAK256 SLOAD PUSH2 0x100 SWAP1 DIV PUSH1 0xFF AND ISZERO PUSH2 0x7FF JUMPI PUSH1 0x40 MLOAD PUSH3 0x461BCD PUSH1 0xE5 SHL DUP2 MSTORE PUSH1 0x20 PUSH1 0x4 DUP3 ADD MSTORE PUSH1 0x24 DUP1 DUP3 ADD MSTORE PUSH32 0x4163636F756E74206D757374206E6F7420616C7265616479206265207265766F PUSH1 0x44 DUP3 ADD MSTORE PUSH32 0x6B65642E00000000000000000000000000000000000000000000000000000000 PUSH1 0x64 DUP3 ADD MSTORE PUSH1 0x84 ADD PUSH2 0x474 JUMP JUMPDEST CALLER PUSH1 0x0 DUP2 DUP2 MSTORE PUSH1 0x8 PUSH1 0x20 MSTORE PUSH1 0x40 DUP2 KECCAK256 SLOAD SWAP1 SWAP2 PUSH2 0x825 SWAP2 SWAP1 PUSH2 0x81F SWAP1 PUSH2 0x12CE JUMP JUMPDEST SWAP1 PUSH2 0x154E JUMP JUMPDEST SWAP1 POP PUSH1 0x0 DUP2 GT PUSH2 0x89D JUMPI PUSH1 0x40 MLOAD PUSH3 0x461BCD PUSH1 0xE5 SHL DUP2 MSTORE PUSH1 0x20 PUSH1 0x4 DUP3 ADD MSTORE PUSH1 0x21 PUSH1 0x24 DUP3 ADD MSTORE PUSH32 0x436C61696D61626C6520616D6F756E74206D75737420626520706F7369746976 PUSH1 0x44 DUP3 ADD MSTORE PUSH32 0x6500000000000000000000000000000000000000000000000000000000000000 PUSH1 0x64 DUP3 ADD MSTORE PUSH1 0x84 ADD PUSH2 0x474 JUMP JUMPDEST CALLER PUSH1 0x0 SWAP1 DUP2 MSTORE PUSH1 0xA PUSH1 0x20 MSTORE PUSH1 0x40 SWAP1 KECCAK256 SLOAD DUP2 GT ISZERO PUSH2 0x922 JUMPI PUSH1 0x40 MLOAD PUSH3 0x461BCD PUSH1 0xE5 SHL DUP2 MSTORE PUSH1 0x20 PUSH1 0x4 DUP3 ADD MSTORE PUSH1 0x2D PUSH1 0x24 DUP3 ADD MSTORE PUSH32 0x43616E6E6F74207769746864726177206D6F7265207468616E20746F74616C20 PUSH1 0x44 DUP3 ADD MSTORE PUSH32 0x76657374656420616D6F756E7400000000000000000000000000000000000000 PUSH1 0x64 DUP3 ADD MSTORE PUSH1 0x84 ADD PUSH2 0x474 JUMP JUMPDEST CALLER PUSH1 0x0 SWAP1 DUP2 MSTORE PUSH1 0x8 PUSH1 0x20 MSTORE PUSH1 0x40 SWAP1 KECCAK256 SLOAD PUSH2 0x93C SWAP1 DUP3 PUSH2 0x112D JUMP JUMPDEST CALLER PUSH1 0x0 SWAP1 DUP2 MSTORE PUSH1 0x8 PUSH1 0x20 MSTORE PUSH1 0x40 SWAP1 KECCAK256 SSTORE PUSH1 0x5 SLOAD PUSH2 0x959 SWAP1 DUP3 PUSH2 0x112D JUMP JUMPDEST PUSH1 0x5 SSTORE PUSH1 0x2 SLOAD PUSH2 0x973 SWAP1 PUSH1 0x1 PUSH1 0x1 PUSH1 0xA0 SHL SUB AND CALLER DUP4 PUSH2 0x155A JUMP JUMPDEST PUSH1 0x40 DUP1 MLOAD DUP3 DUP2 MSTORE TIMESTAMP PUSH1 0x20 DUP3 ADD MSTORE CALLER SWAP2 PUSH32 0xCB1E26772E882480176A3E649A5F7937DC0EC3F50126283FAF56F927B070BE80 SWAP2 ADD PUSH1 0x40 MLOAD DUP1 SWAP2 SUB SWAP1 LOG2 POP PUSH2 0x763 PUSH1 0x1 DUP1 SSTORE JUMP JUMPDEST PUSH2 0x9BF PUSH2 0x1140 JUMP JUMPDEST PUSH2 0x763 PUSH1 0x0 PUSH2 0x15DF JUMP JUMPDEST PUSH2 0x9D1 PUSH2 0x1140 JUMP JUMPDEST PUSH2 0x9D9 PUSH2 0x10C2 JUMP JUMPDEST PUSH1 0x1 PUSH1 0x1 PUSH1 0xA0 SHL SUB DUP2 AND PUSH1 0x0 SWAP1 DUP2 MSTORE PUSH1 0xC PUSH1 0x20 MSTORE PUSH1 0x40 SWAP1 KECCAK256 SLOAD PUSH1 0xFF AND ISZERO ISZERO PUSH1 0x1 EQ DUP1 ISZERO PUSH2 0xA24 JUMPI POP PUSH1 0x1 PUSH1 0x1 PUSH1 0xA0 SHL SUB DUP2 AND PUSH1 0x0 SWAP1 DUP2 MSTORE PUSH1 0xC PUSH1 0x20 MSTORE PUSH1 0x40 SWAP1 KECCAK256 SLOAD PUSH2 0x100 SWAP1 DIV PUSH1 0xFF AND ISZERO JUMPDEST PUSH2 0xA96 JUMPI PUSH1 0x40 MLOAD PUSH3 0x461BCD PUSH1 0xE5 SHL DUP2 MSTORE PUSH1 0x20 PUSH1 0x4 DUP3 ADD MSTORE PUSH1 0x32 PUSH1 0x24 DUP3 ADD MSTORE PUSH32 0x4163636F756E74206D757374206265207265766F6B61626C6520616E64206E6F PUSH1 0x44 DUP3 ADD MSTORE PUSH32 0x7420616C7265616479207265766F6B65642E0000000000000000000000000000 PUSH1 0x64 DUP3 ADD MSTORE PUSH1 0x84 ADD PUSH2 0x474 JUMP JUMPDEST PUSH1 0x1 PUSH1 0x1 PUSH1 0xA0 SHL SUB DUP2 AND PUSH1 0x0 SWAP1 DUP2 MSTORE PUSH1 0x8 PUSH1 0x20 MSTORE PUSH1 0x40 DUP2 KECCAK256 SLOAD PUSH2 0xABC SWAP1 PUSH2 0x81F DUP5 PUSH2 0x12CE JUMP JUMPDEST PUSH1 0x1 PUSH1 0x1 PUSH1 0xA0 SHL SUB DUP4 AND PUSH1 0x0 SWAP1 DUP2 MSTORE PUSH1 0xA PUSH1 0x20 MSTORE PUSH1 0x40 SWAP1 KECCAK256 SLOAD SWAP1 SWAP2 POP DUP2 GT ISZERO PUSH2 0xAF5 JUMPI PUSH4 0x4E487B71 PUSH1 0xE0 SHL PUSH1 0x0 MSTORE PUSH1 0x1 PUSH1 0x4 MSTORE PUSH1 0x24 PUSH1 0x0 REVERT JUMPDEST PUSH1 0x1 PUSH1 0x1 PUSH1 0xA0 SHL SUB DUP3 AND PUSH1 0x0 SWAP1 DUP2 MSTORE PUSH1 0x8 PUSH1 0x20 MSTORE PUSH1 0x40 SWAP1 KECCAK256 SLOAD PUSH2 0xB18 SWAP1 DUP3 PUSH2 0x112D JUMP JUMPDEST PUSH1 0x1 PUSH1 0x1 PUSH1 0xA0 SHL SUB DUP4 AND PUSH1 0x0 SWAP1 DUP2 MSTORE PUSH1 0x8 PUSH1 0x20 MSTORE PUSH1 0x40 SWAP1 KECCAK256 SSTORE PUSH1 0x5 SLOAD PUSH2 0xB3E SWAP1 DUP3 PUSH2 0x112D JUMP JUMPDEST PUSH1 0x5 SSTORE PUSH1 0x40 DUP1 MLOAD DUP3 DUP2 MSTORE TIMESTAMP PUSH1 0x20 DUP3 ADD MSTORE PUSH1 0x1 PUSH1 0x1 PUSH1 0xA0 SHL SUB DUP5 AND SWAP2 PUSH32 0xCB1E26772E882480176A3E649A5F7937DC0EC3F50126283FAF56F927B070BE80 SWAP2 ADD PUSH1 0x40 MLOAD DUP1 SWAP2 SUB SWAP1 LOG2 PUSH1 0x0 DUP1 JUMPDEST PUSH1 0x1 PUSH1 0x1 PUSH1 0xA0 SHL SUB DUP5 AND PUSH1 0x0 SWAP1 DUP2 MSTORE PUSH1 0x7 PUSH1 0x20 MSTORE PUSH1 0x40 SWAP1 KECCAK256 SLOAD DUP2 LT ISZERO PUSH2 0xC11 JUMPI PUSH1 0x1 PUSH1 0x1 PUSH1 0xA0 SHL SUB DUP5 AND PUSH1 0x0 SWAP1 DUP2 MSTORE PUSH1 0x7 PUSH1 0x20 MSTORE PUSH1 0x40 SWAP1 KECCAK256 DUP1 SLOAD PUSH2 0xBFD SWAP2 SWAP1 DUP4 SWAP1 DUP2 LT PUSH2 0xBE5 JUMPI PUSH4 0x4E487B71 PUSH1 0xE0 SHL PUSH1 0x0 MSTORE PUSH1 0x32 PUSH1 0x4 MSTORE PUSH1 0x24 PUSH1 0x0 REVERT JUMPDEST PUSH1 0x0 SWAP2 DUP3 MSTORE PUSH1 0x20 SWAP1 SWAP2 KECCAK256 PUSH1 0x2 SWAP1 SWAP2 MUL ADD SLOAD DUP4 SWAP1 PUSH2 0x112D JUMP JUMPDEST SWAP2 POP DUP1 PUSH2 0xC09 DUP2 PUSH2 0x1C46 JUMP JUMPDEST SWAP2 POP POP PUSH2 0xB88 JUMP JUMPDEST POP PUSH1 0x1 PUSH1 0x1 PUSH1 0xA0 SHL SUB DUP4 AND PUSH1 0x0 SWAP1 DUP2 MSTORE PUSH1 0x7 PUSH1 0x20 MSTORE PUSH1 0x40 DUP2 KECCAK256 PUSH2 0xC33 SWAP2 PUSH2 0x19EC JUMP JUMPDEST PUSH1 0x1 PUSH1 0x1 PUSH1 0xA0 SHL SUB DUP4 AND PUSH1 0x0 SWAP1 DUP2 MSTORE PUSH1 0x8 PUSH1 0x20 MSTORE PUSH1 0x40 DUP2 KECCAK256 SLOAD PUSH2 0xC57 SWAP1 DUP4 SWAP1 PUSH2 0x154E JUMP JUMPDEST PUSH1 0x1 PUSH1 0x1 PUSH1 0xA0 SHL SUB DUP6 AND PUSH1 0x0 DUP2 DUP2 MSTORE PUSH1 0xC PUSH1 0x20 SWAP1 DUP2 MSTORE PUSH1 0x40 SWAP2 DUP3 SWAP1 KECCAK256 DUP1 SLOAD PUSH32 0xFFFFFFFFFFFFFFFFFFFFFFFFFFFFFFFFFFFFFFFFFFFFFFFFFFFFFFFFFFFF00FF AND PUSH2 0x100 OR SWAP1 SSTORE SWAP1 MLOAD TIMESTAMP DUP2 MSTORE SWAP3 SWAP4 POP SWAP1 SWAP2 PUSH32 0xEC9AB91322523C899EDE7830EC9BFC992B5981CDCC27B91162FB23DE5791117B SWAP2 ADD PUSH1 0x40 MLOAD DUP1 SWAP2 SUB SWAP1 LOG2 PUSH1 0x1 PUSH1 0x1 PUSH1 0xA0 SHL SUB DUP5 AND PUSH1 0x0 DUP2 DUP2 MSTORE PUSH1 0x8 PUSH1 0x20 SWAP1 DUP2 MSTORE PUSH1 0x40 DUP1 DUP4 KECCAK256 DUP4 SWAP1 SSTORE DUP1 MLOAD DUP1 DUP3 ADD DUP3 MSTORE DUP4 DUP2 MSTORE DUP1 DUP4 ADD DUP5 SWAP1 MSTORE SWAP4 DUP4 MSTORE PUSH1 0x9 SWAP1 SWAP2 MSTORE SWAP1 KECCAK256 PUSH2 0xD15 SWAP2 PUSH1 0x2 PUSH2 0x1A0D JUMP JUMPDEST POP PUSH1 0x1 PUSH1 0x1 PUSH1 0xA0 SHL SUB DUP1 DUP6 AND PUSH1 0x0 SWAP1 DUP2 MSTORE PUSH1 0xA PUSH1 0x20 SWAP1 DUP2 MSTORE PUSH1 0x40 DUP1 DUP4 KECCAK256 DUP4 SWAP1 SSTORE PUSH1 0xB SWAP1 SWAP2 MSTORE DUP2 KECCAK256 SSTORE PUSH1 0x2 SLOAD PUSH2 0xD4C SWAP2 AND DUP6 DUP6 PUSH2 0x155A JUMP JUMPDEST DUP1 ISZERO PUSH2 0xDB3 JUMPI PUSH1 0x3 SLOAD PUSH1 0x2 SLOAD PUSH2 0xD6F SWAP2 PUSH1 0x1 PUSH1 0x1 PUSH1 0xA0 SHL SUB SWAP2 DUP3 AND SWAP2 AND DUP4 PUSH2 0x155A JUMP JUMPDEST PUSH1 0x40 DUP1 MLOAD DUP3 DUP2 MSTORE TIMESTAMP PUSH1 0x20 DUP3 ADD MSTORE PUSH1 0x1 PUSH1 0x1 PUSH1 0xA0 SHL SUB DUP7 AND SWAP2 PUSH32 0x4DCDA4151EE7959DA84AEF6308B5C7F73E90D7E198A5D3BDB1B281020900C692 SWAP2 ADD PUSH1 0x40 MLOAD DUP1 SWAP2 SUB SWAP1 LOG2 JUMPDEST POP POP POP POP JUMP JUMPDEST PUSH1 0x9 PUSH1 0x20 MSTORE DUP2 PUSH1 0x0 MSTORE PUSH1 0x40 PUSH1 0x0 KECCAK256 DUP2 PUSH1 0x2 DUP2 LT PUSH2 0xDD5 JUMPI PUSH1 0x0 DUP1 REVERT JUMPDEST ADD SLOAD SWAP2 POP DUP3 SWAP1 POP JUMP JUMPDEST PUSH2 0xDE6 PUSH2 0x1140 JUMP JUMPDEST PUSH2 0xDEE PUSH2 0x10C2 JUMP JUMPDEST PUSH2 0x763 PUSH2 0x1647 JUMP JUMPDEST PUSH1 0xC PUSH1 0x20 MSTORE DUP2 PUSH1 0x0 MSTORE PUSH1 0x40 PUSH1 0x0 KECCAK256 DUP2 PUSH1 0x2 DUP2 LT PUSH2 0xE12 JUMPI PUSH1 0x0 DUP1 REVERT JUMPDEST PUSH1 0x20 DUP2 DIV SWAP1 SWAP2 ADD SLOAD PUSH1 0xFF PUSH1 0x1F SWAP1 SWAP3 AND PUSH2 0x100 EXP SWAP1 DIV AND SWAP2 POP DUP3 SWAP1 POP JUMP JUMPDEST PUSH1 0x0 DUP1 DUP1 JUMPDEST PUSH1 0x1 PUSH1 0x1 PUSH1 0xA0 SHL SUB DUP5 AND PUSH1 0x0 SWAP1 DUP2 MSTORE PUSH1 0x7 PUSH1 0x20 MSTORE PUSH1 0x40 SWAP1 KECCAK256 SLOAD DUP2 LT ISZERO PUSH2 0xFEF JUMPI PUSH1 0x1 PUSH1 0x1 PUSH1 0xA0 SHL SUB DUP5 AND PUSH1 0x0 SWAP1 DUP2 MSTORE PUSH1 0x7 PUSH1 0x20 MSTORE PUSH1 0x40 SWAP1 KECCAK256 DUP1 SLOAD DUP3 SWAP1 DUP2 LT PUSH2 0xE8C JUMPI PUSH4 0x4E487B71 PUSH1 0xE0 SHL PUSH1 0x0 MSTORE PUSH1 0x32 PUSH1 0x4 MSTORE PUSH1 0x24 PUSH1 0x0 REVERT JUMPDEST SWAP1 PUSH1 0x0 MSTORE PUSH1 0x20 PUSH1 0x0 KECCAK256 SWAP1 PUSH1 0x2 MUL ADD PUSH1 0x1 ADD SLOAD TIMESTAMP LT PUSH2 0xEE8 JUMPI PUSH1 0x1 PUSH1 0x1 PUSH1 0xA0 SHL SUB DUP5 AND PUSH1 0x0 SWAP1 DUP2 MSTORE PUSH1 0x7 PUSH1 0x20 MSTORE PUSH1 0x40 SWAP1 KECCAK256 DUP1 SLOAD PUSH2 0xEE1 SWAP2 SWAP1 DUP4 SWAP1 DUP2 LT PUSH2 0xBE5 JUMPI PUSH4 0x4E487B71 PUSH1 0xE0 SHL PUSH1 0x0 MSTORE PUSH1 0x32 PUSH1 0x4 MSTORE PUSH1 0x24 PUSH1 0x0 REVERT JUMPDEST SWAP2 POP PUSH2 0xFDD JUMP JUMPDEST PUSH1 0x0 PUSH2 0xF54 PUSH1 0x6 SLOAD PUSH1 0x7 PUSH1 0x0 DUP9 PUSH1 0x1 PUSH1 0x1 PUSH1 0xA0 SHL SUB AND PUSH1 0x1 PUSH1 0x1 PUSH1 0xA0 SHL SUB AND DUP2 MSTORE PUSH1 0x20 ADD SWAP1 DUP2 MSTORE PUSH1 0x20 ADD PUSH1 0x0 KECCAK256 DUP5 DUP2 SLOAD DUP2 LT PUSH2 0xF34 JUMPI PUSH4 0x4E487B71 PUSH1 0xE0 SHL PUSH1 0x0 MSTORE PUSH1 0x32 PUSH1 0x4 MSTORE PUSH1 0x24 PUSH1 0x0 REVERT JUMPDEST SWAP1 PUSH1 0x0 MSTORE PUSH1 0x20 PUSH1 0x0 KECCAK256 SWAP1 PUSH1 0x2 MUL ADD PUSH1 0x1 ADD SLOAD PUSH2 0x154E SWAP1 SWAP2 SWAP1 PUSH4 0xFFFFFFFF AND JUMP JUMPDEST SWAP1 POP PUSH1 0x0 PUSH2 0xFCC PUSH1 0x6 SLOAD PUSH2 0xFC6 PUSH1 0x7 PUSH1 0x0 DUP11 PUSH1 0x1 PUSH1 0x1 PUSH1 0xA0 SHL SUB AND PUSH1 0x1 PUSH1 0x1 PUSH1 0xA0 SHL SUB AND DUP2 MSTORE PUSH1 0x20 ADD SWAP1 DUP2 MSTORE PUSH1 0x20 ADD PUSH1 0x0 KECCAK256 DUP7 DUP2 SLOAD DUP2 LT PUSH2 0xFA5 JUMPI PUSH4 0x4E487B71 PUSH1 0xE0 SHL PUSH1 0x0 MSTORE PUSH1 0x32 PUSH1 0x4 MSTORE PUSH1 0x24 PUSH1 0x0 REVERT JUMPDEST PUSH1 0x0 SWAP2 DUP3 MSTORE PUSH1 0x20 SWAP1 SWAP2 KECCAK256 PUSH1 0x2 SWAP1 SWAP2 MUL ADD SLOAD PUSH2 0xFC0 TIMESTAMP DUP8 PUSH2 0x154E JUMP JUMPDEST SWAP1 PUSH2 0x16B6 JUMP JUMPDEST SWAP1 PUSH2 0x16C2 JUMP JUMPDEST SWAP1 POP PUSH2 0xFD8 DUP5 DUP3 PUSH2 0x112D JUMP JUMPDEST SWAP4 POP POP POP JUMPDEST DUP1 PUSH2 0xFE7 DUP2 PUSH2 0x1C46 JUMP JUMPDEST SWAP2 POP POP PUSH2 0xE34 JUMP JUMPDEST POP SWAP3 SWAP2 POP POP JUMP JUMPDEST PUSH1 0x7 PUSH1 0x20 MSTORE DUP2 PUSH1 0x0 MSTORE PUSH1 0x40 PUSH1 0x0 KECCAK256 DUP2 DUP2 SLOAD DUP2 LT PUSH2 0x1012 JUMPI PUSH1 0x0 DUP1 REVERT JUMPDEST PUSH1 0x0 SWAP2 DUP3 MSTORE PUSH1 0x20 SWAP1 SWAP2 KECCAK256 PUSH1 0x2 SWAP1 SWAP2 MUL ADD DUP1 SLOAD PUSH1 0x1 SWAP1 SWAP2 ADD SLOAD SWAP1 SWAP3 POP SWAP1 POP DUP3 JUMP JUMPDEST PUSH2 0x103A PUSH2 0x1140 JUMP JUMPDEST PUSH1 0x1 PUSH1 0x1 PUSH1 0xA0 SHL SUB DUP2 AND PUSH2 0x10B6 JUMPI PUSH1 0x40 MLOAD PUSH3 0x461BCD PUSH1 0xE5 SHL DUP2 MSTORE PUSH1 0x20 PUSH1 0x4 DUP3 ADD MSTORE PUSH1 0x26 PUSH1 0x24 DUP3 ADD MSTORE PUSH32 0x4F776E61626C653A206E6577206F776E657220697320746865207A65726F2061 PUSH1 0x44 DUP3 ADD MSTORE PUSH32 0x6464726573730000000000000000000000000000000000000000000000000000 PUSH1 0x64 DUP3 ADD MSTORE PUSH1 0x84 ADD PUSH2 0x474 JUMP JUMPDEST PUSH2 0x10BF DUP2 PUSH2 0x15DF JUMP JUMPDEST POP JUMP JUMPDEST PUSH1 0x0 SLOAD PUSH21 0x10000000000000000000000000000000000000000 SWAP1 DIV PUSH1 0xFF AND ISZERO PUSH2 0x763 JUMPI PUSH1 0x40 MLOAD PUSH3 0x461BCD PUSH1 0xE5 SHL DUP2 MSTORE PUSH1 0x20 PUSH1 0x4 DUP3 ADD MSTORE PUSH1 0x10 PUSH1 0x24 DUP3 ADD MSTORE PUSH32 0x5061757361626C653A2070617573656400000000000000000000000000000000 PUSH1 0x44 DUP3 ADD MSTORE PUSH1 0x64 ADD PUSH2 0x474 JUMP JUMPDEST PUSH1 0x0 PUSH2 0x1139 DUP3 DUP5 PUSH2 0x1B8E JUMP JUMPDEST SWAP4 SWAP3 POP POP POP JUMP JUMPDEST PUSH1 0x0 SLOAD PUSH1 0x1 PUSH1 0x1 PUSH1 0xA0 SHL SUB AND CALLER EQ PUSH2 0x763 JUMPI PUSH1 0x40 MLOAD PUSH3 0x461BCD PUSH1 0xE5 SHL DUP2 MSTORE PUSH1 0x20 PUSH1 0x4 DUP3 ADD DUP2 SWAP1 MSTORE PUSH1 0x24 DUP3 ADD MSTORE PUSH32 0x4F776E61626C653A2063616C6C6572206973206E6F7420746865206F776E6572 PUSH1 0x44 DUP3 ADD MSTORE PUSH1 0x64 ADD PUSH2 0x474 JUMP JUMPDEST PUSH1 0x0 SLOAD PUSH21 0x10000000000000000000000000000000000000000 SWAP1 DIV PUSH1 0xFF AND PUSH2 0x763 JUMPI PUSH1 0x40 MLOAD PUSH3 0x461BCD PUSH1 0xE5 SHL DUP2 MSTORE PUSH1 0x20 PUSH1 0x4 DUP3 ADD MSTORE PUSH1 0x14 PUSH1 0x24 DUP3 ADD MSTORE PUSH32 0x5061757361626C653A206E6F7420706175736564000000000000000000000000 PUSH1 0x44 DUP3 ADD MSTORE PUSH1 0x64 ADD PUSH2 0x474 JUMP JUMPDEST PUSH2 0x120C PUSH2 0x119A JUMP JUMPDEST PUSH1 0x0 DUP1 SLOAD PUSH32 0xFFFFFFFFFFFFFFFFFFFFFF00FFFFFFFFFFFFFFFFFFFFFFFFFFFFFFFFFFFFFFFF AND SWAP1 SSTORE PUSH32 0x5DB9EE0A495BF2E6FF9C91A7834C1BA4FDD244A5E8AA4E537BD38AEAE4B073AA CALLER JUMPDEST PUSH1 0x40 MLOAD PUSH1 0x1 PUSH1 0x1 PUSH1 0xA0 SHL SUB SWAP1 SWAP2 AND DUP2 MSTORE PUSH1 0x20 ADD PUSH1 0x40 MLOAD DUP1 SWAP2 SUB SWAP1 LOG1 JUMP JUMPDEST PUSH1 0x2 PUSH1 0x1 SLOAD EQ ISZERO PUSH2 0x12C7 JUMPI PUSH1 0x40 MLOAD PUSH3 0x461BCD PUSH1 0xE5 SHL DUP2 MSTORE PUSH1 0x20 PUSH1 0x4 DUP3 ADD MSTORE PUSH1 0x1F PUSH1 0x24 DUP3 ADD MSTORE PUSH32 0x5265656E7472616E637947756172643A207265656E7472616E742063616C6C00 PUSH1 0x44 DUP3 ADD MSTORE PUSH1 0x64 ADD PUSH2 0x474 JUMP JUMPDEST PUSH1 0x2 PUSH1 0x1 SSTORE JUMP JUMPDEST PUSH1 0x1 PUSH1 0x1 PUSH1 0xA0 SHL SUB DUP2 AND PUSH1 0x0 SWAP1 DUP2 MSTORE PUSH1 0xB PUSH1 0x20 MSTORE PUSH1 0x40 DUP2 KECCAK256 SLOAD DUP2 SWAP1 DUP2 SWAP1 DUP2 SWAP1 JUMPDEST PUSH1 0x1 PUSH1 0x1 PUSH1 0xA0 SHL SUB DUP7 AND PUSH1 0x0 SWAP1 DUP2 MSTORE PUSH1 0x7 PUSH1 0x20 MSTORE PUSH1 0x40 SWAP1 KECCAK256 SLOAD DUP2 LT ISZERO PUSH2 0x1487 JUMPI PUSH1 0x1 PUSH1 0x1 PUSH1 0xA0 SHL SUB DUP7 AND PUSH1 0x0 SWAP1 DUP2 MSTORE PUSH1 0x7 PUSH1 0x20 MSTORE PUSH1 0x40 SWAP1 KECCAK256 DUP1 SLOAD DUP3 SWAP1 DUP2 LT PUSH2 0x1346 JUMPI PUSH4 0x4E487B71 PUSH1 0xE0 SHL PUSH1 0x0 MSTORE PUSH1 0x32 PUSH1 0x4 MSTORE PUSH1 0x24 PUSH1 0x0 REVERT JUMPDEST SWAP1 PUSH1 0x0 MSTORE PUSH1 0x20 PUSH1 0x0 KECCAK256 SWAP1 PUSH1 0x2 MUL ADD PUSH1 0x1 ADD SLOAD TIMESTAMP LT PUSH2 0x13C7 JUMPI PUSH2 0x1369 PUSH1 0x1 DUP4 PUSH2 0x1B8E JUMP JUMPDEST PUSH1 0x1 PUSH1 0x1 PUSH1 0xA0 SHL SUB DUP8 AND PUSH1 0x0 SWAP1 DUP2 MSTORE PUSH1 0x7 PUSH1 0x20 MSTORE PUSH1 0x40 SWAP1 KECCAK256 DUP1 SLOAD SWAP2 SWAP4 POP PUSH2 0x13C0 SWAP2 DUP4 SWAP1 DUP2 LT PUSH2 0x13A8 JUMPI PUSH4 0x4E487B71 PUSH1 0xE0 SHL PUSH1 0x0 MSTORE PUSH1 0x32 PUSH1 0x4 MSTORE PUSH1 0x24 PUSH1 0x0 REVERT JUMPDEST PUSH1 0x0 SWAP2 DUP3 MSTORE PUSH1 0x20 SWAP1 SWAP2 KECCAK256 PUSH1 0x2 SWAP1 SWAP2 MUL ADD SLOAD DUP6 SWAP1 PUSH2 0x112D JUMP JUMPDEST SWAP4 POP PUSH2 0x1475 JUMP JUMPDEST PUSH1 0x0 PUSH2 0x1413 PUSH1 0x6 SLOAD PUSH1 0x7 PUSH1 0x0 DUP11 PUSH1 0x1 PUSH1 0x1 PUSH1 0xA0 SHL SUB AND PUSH1 0x1 PUSH1 0x1 PUSH1 0xA0 SHL SUB AND DUP2 MSTORE PUSH1 0x20 ADD SWAP1 DUP2 MSTORE PUSH1 0x20 ADD PUSH1 0x0 KECCAK256 DUP5 DUP2 SLOAD DUP2 LT PUSH2 0xF34 JUMPI PUSH4 0x4E487B71 PUSH1 0xE0 SHL PUSH1 0x0 MSTORE PUSH1 0x32 PUSH1 0x4 MSTORE PUSH1 0x24 PUSH1 0x0 REVERT JUMPDEST SWAP1 POP PUSH1 0x0 PUSH2 0x1464 PUSH1 0x6 SLOAD PUSH2 0xFC6 PUSH1 0x7 PUSH1 0x0 DUP13 PUSH1 0x1 PUSH1 0x1 PUSH1 0xA0 SHL SUB AND PUSH1 0x1 PUSH1 0x1 PUSH1 0xA0 SHL SUB AND DUP2 MSTORE PUSH1 0x20 ADD SWAP1 DUP2 MSTORE PUSH1 0x20 ADD PUSH1 0x0 KECCAK256 DUP7 DUP2 SLOAD DUP2 LT PUSH2 0xFA5 JUMPI PUSH4 0x4E487B71 PUSH1 0xE0 SHL PUSH1 0x0 MSTORE PUSH1 0x32 PUSH1 0x4 MSTORE PUSH1 0x24 PUSH1 0x0 REVERT JUMPDEST SWAP1 POP PUSH2 0x1470 DUP6 DUP3 PUSH2 0x112D JUMP JUMPDEST SWAP5 POP POP POP JUMPDEST DUP1 PUSH2 0x147F DUP2 PUSH2 0x1C46 JUMP JUMPDEST SWAP2 POP POP PUSH2 0x12EE JUMP JUMPDEST POP PUSH1 0x1 PUSH1 0x1 PUSH1 0xA0 SHL SUB DUP6 AND PUSH1 0x0 SWAP1 DUP2 MSTORE PUSH1 0xB PUSH1 0x20 MSTORE PUSH1 0x40 DUP2 KECCAK256 DUP1 SLOAD DUP4 SWAP3 SWAP1 PUSH2 0x14B0 SWAP1 DUP5 SWAP1 PUSH2 0x1B8E JUMP JUMPDEST SWAP1 SWAP2 SSTORE POP POP PUSH1 0x1 PUSH1 0x1 PUSH1 0xA0 SHL SUB DUP6 AND PUSH1 0x0 SWAP1 DUP2 MSTORE PUSH1 0x9 PUSH1 0x20 MSTORE PUSH1 0x40 DUP2 KECCAK256 PUSH2 0x14DD SWAP2 DUP6 SWAP2 SWAP1 JUMPDEST ADD SLOAD SWAP1 PUSH2 0x112D JUMP JUMPDEST PUSH1 0x1 PUSH1 0x1 PUSH1 0xA0 SHL SUB DUP7 AND PUSH1 0x0 SWAP1 DUP2 MSTORE PUSH1 0x9 PUSH1 0x20 MSTORE PUSH1 0x40 DUP2 KECCAK256 SWAP2 DUP3 SSTORE PUSH1 0x1 DUP3 ADD DUP5 SWAP1 SSTORE SWAP1 PUSH2 0x150C SWAP1 DUP5 SWAP1 DUP4 PUSH2 0x14D5 JUMP JUMPDEST PUSH1 0x1 PUSH1 0x1 PUSH1 0xA0 SHL SUB DUP8 AND PUSH1 0x0 SWAP1 DUP2 MSTORE PUSH1 0xA PUSH1 0x20 MSTORE PUSH1 0x40 SWAP1 KECCAK256 SLOAD SWAP1 SWAP2 POP DUP2 GT ISZERO PUSH2 0x1545 JUMPI PUSH4 0x4E487B71 PUSH1 0xE0 SHL PUSH1 0x0 MSTORE PUSH1 0x1 PUSH1 0x4 MSTORE PUSH1 0x24 PUSH1 0x0 REVERT JUMPDEST SWAP6 SWAP5 POP POP POP POP POP JUMP JUMPDEST PUSH1 0x0 PUSH2 0x1139 DUP3 DUP5 PUSH2 0x1C03 JUMP JUMPDEST PUSH1 0x40 DUP1 MLOAD PUSH1 0x1 PUSH1 0x1 PUSH1 0xA0 SHL SUB DUP5 AND PUSH1 0x24 DUP3 ADD MSTORE PUSH1 0x44 DUP1 DUP3 ADD DUP5 SWAP1 MSTORE DUP3 MLOAD DUP1 DUP4 SUB SWAP1 SWAP2 ADD DUP2 MSTORE PUSH1 0x64 SWAP1 SWAP2 ADD SWAP1 SWAP2 MSTORE PUSH1 0x20 DUP2 ADD DUP1 MLOAD PUSH28 0xFFFFFFFFFFFFFFFFFFFFFFFFFFFFFFFFFFFFFFFFFFFFFFFFFFFFFFFF AND PUSH32 0xA9059CBB00000000000000000000000000000000000000000000000000000000 OR SWAP1 MSTORE PUSH2 0x15DA SWAP1 DUP5 SWAP1 PUSH2 0x16CE JUMP JUMPDEST POP POP POP JUMP JUMPDEST PUSH1 0x0 DUP1 SLOAD PUSH1 0x1 PUSH1 0x1 PUSH1 0xA0 SHL SUB DUP4 DUP2 AND PUSH32 0xFFFFFFFFFFFFFFFFFFFFFFFF0000000000000000000000000000000000000000 DUP4 AND DUP2 OR DUP5 SSTORE PUSH1 0x40 MLOAD SWAP2 SWAP1 SWAP3 AND SWAP3 DUP4 SWAP2 PUSH32 0x8BE0079C531659141344CD1FD0A4F28419497F9722A3DAAFE3B4186F6B6457E0 SWAP2 SWAP1 LOG3 POP POP JUMP JUMPDEST PUSH2 0x164F PUSH2 0x10C2 JUMP JUMPDEST PUSH1 0x0 DUP1 SLOAD PUSH32 0xFFFFFFFFFFFFFFFFFFFFFF00FFFFFFFFFFFFFFFFFFFFFFFFFFFFFFFFFFFFFFFF AND PUSH21 0x10000000000000000000000000000000000000000 OR SWAP1 SSTORE PUSH32 0x62E78CEA01BEE320CD4E420270B5EA74000D11B0C9F74754EBDBFC544B05A258 PUSH2 0x1257 CALLER SWAP1 JUMP JUMPDEST PUSH1 0x0 PUSH2 0x1139 DUP3 DUP5 PUSH2 0x1BC6 JUMP JUMPDEST PUSH1 0x0 PUSH2 0x1139 DUP3 DUP5 PUSH2 0x1BA6 JUMP JUMPDEST PUSH1 0x0 PUSH2 0x1723 DUP3 PUSH1 0x40 MLOAD DUP1 PUSH1 0x40 ADD PUSH1 0x40 MSTORE DUP1 PUSH1 0x20 DUP2 MSTORE PUSH1 0x20 ADD PUSH32 0x5361666545524332303A206C6F772D6C6576656C2063616C6C206661696C6564 DUP2 MSTORE POP DUP6 PUSH1 0x1 PUSH1 0x1 PUSH1 0xA0 SHL SUB AND PUSH2 0x17B6 SWAP1 SWAP3 SWAP2 SWAP1 PUSH4 0xFFFFFFFF AND JUMP JUMPDEST SWAP1 POP DUP1 MLOAD PUSH1 0x0 EQ DUP1 PUSH2 0x1744 JUMPI POP DUP1 DUP1 PUSH1 0x20 ADD SWAP1 MLOAD DUP2 ADD SWAP1 PUSH2 0x1744 SWAP2 SWAP1 PUSH2 0x1B01 JUMP JUMPDEST PUSH2 0x15DA JUMPI PUSH1 0x40 MLOAD PUSH3 0x461BCD PUSH1 0xE5 SHL DUP2 MSTORE PUSH1 0x20 PUSH1 0x4 DUP3 ADD MSTORE PUSH1 0x2A PUSH1 0x24 DUP3 ADD MSTORE PUSH32 0x5361666545524332303A204552433230206F7065726174696F6E20646964206E PUSH1 0x44 DUP3 ADD MSTORE PUSH32 0x6F74207375636365656400000000000000000000000000000000000000000000 PUSH1 0x64 DUP3 ADD MSTORE PUSH1 0x84 ADD PUSH2 0x474 JUMP JUMPDEST PUSH1 0x60 PUSH2 0x17C5 DUP5 DUP5 PUSH1 0x0 DUP6 PUSH2 0x17CD JUMP JUMPDEST SWAP5 SWAP4 POP POP POP POP JUMP JUMPDEST PUSH1 0x60 DUP3 SELFBALANCE LT ISZERO PUSH2 0x1845 JUMPI PUSH1 0x40 MLOAD PUSH3 0x461BCD PUSH1 0xE5 SHL DUP2 MSTORE PUSH1 0x20 PUSH1 0x4 DUP3 ADD MSTORE PUSH1 0x26 PUSH1 0x24 DUP3 ADD MSTORE PUSH32 0x416464726573733A20696E73756666696369656E742062616C616E636520666F PUSH1 0x44 DUP3 ADD MSTORE PUSH32 0x722063616C6C0000000000000000000000000000000000000000000000000000 PUSH1 0x64 DUP3 ADD MSTORE PUSH1 0x84 ADD PUSH2 0x474 JUMP JUMPDEST PUSH1 0x0 DUP1 DUP7 PUSH1 0x1 PUSH1 0x1 PUSH1 0xA0 SHL SUB AND DUP6 DUP8 PUSH1 0x40 MLOAD PUSH2 0x1861 SWAP2 SWAP1 PUSH2 0x1B21 JUMP JUMPDEST PUSH1 0x0 PUSH1 0x40 MLOAD DUP1 DUP4 SUB DUP2 DUP6 DUP8 GAS CALL SWAP3 POP POP POP RETURNDATASIZE DUP1 PUSH1 0x0 DUP2 EQ PUSH2 0x189E JUMPI PUSH1 0x40 MLOAD SWAP2 POP PUSH1 0x1F NOT PUSH1 0x3F RETURNDATASIZE ADD AND DUP3 ADD PUSH1 0x40 MSTORE RETURNDATASIZE DUP3 MSTORE RETURNDATASIZE PUSH1 0x0 PUSH1 0x20 DUP5 ADD RETURNDATACOPY PUSH2 0x18A3 JUMP JUMPDEST PUSH1 0x60 SWAP2 POP JUMPDEST POP SWAP2 POP SWAP2 POP PUSH2 0x18B4 DUP8 DUP4 DUP4 DUP8 PUSH2 0x18BF JUMP JUMPDEST SWAP8 SWAP7 POP POP POP POP POP POP POP JUMP JUMPDEST PUSH1 0x60 DUP4 ISZERO PUSH2 0x192B JUMPI DUP3 MLOAD PUSH2 0x1924 JUMPI PUSH1 0x1 PUSH1 0x1 PUSH1 0xA0 SHL SUB DUP6 AND EXTCODESIZE PUSH2 0x1924 JUMPI PUSH1 0x40 MLOAD PUSH3 0x461BCD PUSH1 0xE5 SHL DUP2 MSTORE PUSH1 0x20 PUSH1 0x4 DUP3 ADD MSTORE PUSH1 0x1D PUSH1 0x24 DUP3 ADD MSTORE PUSH32 0x416464726573733A2063616C6C20746F206E6F6E2D636F6E7472616374000000 PUSH1 0x44 DUP3 ADD MSTORE PUSH1 0x64 ADD PUSH2 0x474 JUMP JUMPDEST POP DUP2 PUSH2 0x17C5 JUMP JUMPDEST PUSH2 0x17C5 DUP4 DUP4 DUP2 MLOAD ISZERO PUSH2 0x1940 JUMPI DUP2 MLOAD DUP1 DUP4 PUSH1 0x20 ADD REVERT JUMPDEST DUP1 PUSH1 0x40 MLOAD PUSH3 0x461BCD PUSH1 0xE5 SHL DUP2 MSTORE PUSH1 0x4 ADD PUSH2 0x474 SWAP2 SWAP1 PUSH2 0x1B3D JUMP JUMPDEST PUSH1 0x1 DUP4 ADD SWAP2 DUP4 SWAP1 DUP3 ISZERO PUSH2 0x19DC JUMPI SWAP2 PUSH1 0x20 MUL DUP3 ADD PUSH1 0x0 JUMPDEST DUP4 DUP3 GT ISZERO PUSH2 0x19AD JUMPI DUP4 MLOAD DUP4 DUP3 PUSH2 0x100 EXP DUP2 SLOAD DUP2 PUSH1 0xFF MUL NOT AND SWAP1 DUP4 ISZERO ISZERO MUL OR SWAP1 SSTORE POP SWAP3 PUSH1 0x20 ADD SWAP3 PUSH1 0x1 ADD PUSH1 0x20 DUP2 PUSH1 0x0 ADD DIV SWAP3 DUP4 ADD SWAP3 PUSH1 0x1 SUB MUL PUSH2 0x1970 JUMP JUMPDEST DUP1 ISZERO PUSH2 0x19DA JUMPI DUP3 DUP2 PUSH2 0x100 EXP DUP2 SLOAD SWAP1 PUSH1 0xFF MUL NOT AND SWAP1 SSTORE PUSH1 0x1 ADD PUSH1 0x20 DUP2 PUSH1 0x0 ADD DIV SWAP3 DUP4 ADD SWAP3 PUSH1 0x1 SUB MUL PUSH2 0x19AD JUMP JUMPDEST POP JUMPDEST POP PUSH2 0x19E8 SWAP3 SWAP2 POP PUSH2 0x1A40 JUMP JUMPDEST POP SWAP1 JUMP JUMPDEST POP DUP1 SLOAD PUSH1 0x0 DUP3 SSTORE PUSH1 0x2 MUL SWAP1 PUSH1 0x0 MSTORE PUSH1 0x20 PUSH1 0x0 KECCAK256 SWAP1 DUP2 ADD SWAP1 PUSH2 0x10BF SWAP2 SWAP1 PUSH2 0x1A55 JUMP JUMPDEST DUP3 PUSH1 0x2 DUP2 ADD SWAP3 DUP3 ISZERO PUSH2 0x19DC JUMPI SWAP2 PUSH1 0x20 MUL DUP3 ADD JUMPDEST DUP3 DUP2 GT ISZERO PUSH2 0x19DC JUMPI DUP3 MLOAD DUP3 SWAP1 PUSH1 0xFF AND SWAP1 SSTORE SWAP2 PUSH1 0x20 ADD SWAP2 SWAP1 PUSH1 0x1 ADD SWAP1 PUSH2 0x1A20 JUMP JUMPDEST JUMPDEST DUP1 DUP3 GT ISZERO PUSH2 0x19E8 JUMPI PUSH1 0x0 DUP2 SSTORE PUSH1 0x1 ADD PUSH2 0x1A41 JUMP JUMPDEST JUMPDEST DUP1 DUP3 GT ISZERO PUSH2 0x19E8 JUMPI PUSH1 0x0 DUP1 DUP3 SSTORE PUSH1 0x1 DUP3 ADD SSTORE PUSH1 0x2 ADD PUSH2 0x1A56 JUMP JUMPDEST DUP1 CALLDATALOAD PUSH1 0x1 PUSH1 0x1 PUSH1 0xA0 SHL SUB DUP2 AND DUP2 EQ PUSH2 0x1A87 JUMPI PUSH1 0x0 DUP1 REVERT JUMPDEST SWAP2 SWAP1 POP JUMP JUMPDEST PUSH1 0x0 PUSH1 0x20 DUP3 DUP5 SUB SLT ISZERO PUSH2 0x1A9D JUMPI DUP1 DUP2 REVERT JUMPDEST PUSH2 0x1139 DUP3 PUSH2 0x1A70 JUMP JUMPDEST PUSH1 0x0 DUP1 PUSH1 0x40 DUP4 DUP6 SUB SLT ISZERO PUSH2 0x1AB8 JUMPI DUP1 DUP2 REVERT JUMPDEST PUSH2 0x1AC1 DUP4 PUSH2 0x1A70 JUMP JUMPDEST SWAP5 PUSH1 0x20 SWAP4 SWAP1 SWAP4 ADD CALLDATALOAD SWAP4 POP POP POP JUMP JUMPDEST PUSH1 0x0 DUP1 PUSH1 0x0 PUSH1 0x60 DUP5 DUP7 SUB SLT ISZERO PUSH2 0x1AE3 JUMPI DUP1 DUP2 REVERT JUMPDEST PUSH2 0x1AEC DUP5 PUSH2 0x1A70 JUMP JUMPDEST SWAP6 PUSH1 0x20 DUP6 ADD CALLDATALOAD SWAP6 POP PUSH1 0x40 SWAP1 SWAP5 ADD CALLDATALOAD SWAP4 SWAP3 POP POP POP JUMP JUMPDEST PUSH1 0x0 PUSH1 0x20 DUP3 DUP5 SUB SLT ISZERO PUSH2 0x1B12 JUMPI DUP1 DUP2 REVERT JUMPDEST DUP2 MLOAD DUP1 ISZERO ISZERO DUP2 EQ PUSH2 0x1139 JUMPI DUP2 DUP3 REVERT JUMPDEST PUSH1 0x0 DUP3 MLOAD PUSH2 0x1B33 DUP2 DUP5 PUSH1 0x20 DUP8 ADD PUSH2 0x1C1A JUMP JUMPDEST SWAP2 SWAP1 SWAP2 ADD SWAP3 SWAP2 POP POP JUMP JUMPDEST PUSH1 0x20 DUP2 MSTORE PUSH1 0x0 DUP3 MLOAD DUP1 PUSH1 0x20 DUP5 ADD MSTORE PUSH2 0x1B5C DUP2 PUSH1 0x40 DUP6 ADD PUSH1 0x20 DUP8 ADD PUSH2 0x1C1A JUMP JUMPDEST PUSH1 0x1F ADD PUSH32 0xFFFFFFFFFFFFFFFFFFFFFFFFFFFFFFFFFFFFFFFFFFFFFFFFFFFFFFFFFFFFFFE0 AND SWAP2 SWAP1 SWAP2 ADD PUSH1 0x40 ADD SWAP3 SWAP2 POP POP JUMP JUMPDEST PUSH1 0x0 DUP3 NOT DUP3 GT ISZERO PUSH2 0x1BA1 JUMPI PUSH2 0x1BA1 PUSH2 0x1C7F JUMP JUMPDEST POP ADD SWAP1 JUMP JUMPDEST PUSH1 0x0 DUP3 PUSH2 0x1BC1 JUMPI PUSH4 0x4E487B71 PUSH1 0xE0 SHL DUP2 MSTORE PUSH1 0x12 PUSH1 0x4 MSTORE PUSH1 0x24 DUP2 REVERT JUMPDEST POP DIV SWAP1 JUMP JUMPDEST PUSH1 0x0 DUP2 PUSH32 0xFFFFFFFFFFFFFFFFFFFFFFFFFFFFFFFFFFFFFFFFFFFFFFFFFFFFFFFFFFFFFFFF DIV DUP4 GT DUP3 ISZERO ISZERO AND ISZERO PUSH2 0x1BFE JUMPI PUSH2 0x1BFE PUSH2 0x1C7F JUMP JUMPDEST POP MUL SWAP1 JUMP JUMPDEST PUSH1 0x0 DUP3 DUP3 LT ISZERO PUSH2 0x1C15 JUMPI PUSH2 0x1C15 PUSH2 0x1C7F JUMP JUMPDEST POP SUB SWAP1 JUMP JUMPDEST PUSH1 0x0 JUMPDEST DUP4 DUP2 LT ISZERO PUSH2 0x1C35 JUMPI DUP2 DUP2 ADD MLOAD DUP4 DUP3 ADD MSTORE PUSH1 0x20 ADD PUSH2 0x1C1D JUMP JUMPDEST DUP4 DUP2 GT ISZERO PUSH2 0xDB3 JUMPI POP POP PUSH1 0x0 SWAP2 ADD MSTORE JUMP JUMPDEST PUSH1 0x0 PUSH32 0xFFFFFFFFFFFFFFFFFFFFFFFFFFFFFFFFFFFFFFFFFFFFFFFFFFFFFFFFFFFFFFFF DUP3 EQ ISZERO PUSH2 0x1C78 JUMPI PUSH2 0x1C78 PUSH2 0x1C7F JUMP JUMPDEST POP PUSH1 0x1 ADD SWAP1 JUMP JUMPDEST PUSH4 0x4E487B71 PUSH1 0xE0 SHL PUSH1 0x0 MSTORE PUSH1 0x11 PUSH1 0x4 MSTORE PUSH1 0x24 PUSH1 0x0 REVERT INVALID LOG2 PUSH5 0x6970667358 0x22 SLT KECCAK256 SWAP15 SSTORE PUSH23 0x7E90DE87FA242C2FAFE69C78D92926ED209855BDD63533 PUSH14 0x3C65510DE864736F6C6343000804 STOP CALLER "},"methodIdentifiers":{"benClaimed(address)":"cd0e9a62","benRevocable(address,uint256)":"cea23823","benTotal(address)":"8dff1d2e","benVested(address,uint256)":"7b666b93","benVestingIndex(address)":"b5ae3a5a","calcClaimableAmount(address)":"e26aba77","claim()":"4e71d92d","multiSig()":"36e0004a","owner()":"8da5cb5b","pause()":"8456cb59","paused()":"5c975abb","renounceOwnership()":"715018a6","revoke(address)":"74a8f103","timelocks(address,uint256)":"ea612ae8","totalClaimedAmount()":"9661cb0d","totalVestedAmount()":"64893fcb","transferOwnership(address)":"f2fde38b","unpause()":"3f4ba83a","vest(address,uint256,uint256)":"2546de10","vestingToken()":"19d152fa"}}}}}