{
  "_format": "hh-sol-artifact-1",
  "contractName": "PalmNFTXStakingZap",
  "sourceName": "contracts/solidity/other/PalmNFTXStakingZap.sol",
  "abi": [
    {
      "inputs": [
        {
          "internalType": "address",
          "name": "_nftxFactory",
          "type": "address"
        },
        {
          "internalType": "address",
          "name": "_sushiRouter",
          "type": "address"
        },
        {
          "internalType": "address",
          "name": "_pairedToken",
          "type": "address"
        }
      ],
      "stateMutability": "nonpayable",
      "type": "constructor"
    },
    {
      "anonymous": false,
      "inputs": [
        {
          "indexed": true,
          "internalType": "address",
          "name": "previousOwner",
          "type": "address"
        },
        {
          "indexed": true,
          "internalType": "address",
          "name": "newOwner",
          "type": "address"
        }
      ],
      "name": "OwnershipTransferred",
      "type": "event"
    },
    {
      "anonymous": false,
      "inputs": [
        {
          "indexed": false,
          "internalType": "uint256",
          "name": "vaultId",
          "type": "uint256"
        },
        {
          "indexed": false,
          "internalType": "uint256",
          "name": "count",
          "type": "uint256"
        },
        {
          "indexed": false,
          "internalType": "uint256",
          "name": "lpBalance",
          "type": "uint256"
        },
        {
          "indexed": false,
          "internalType": "uint256",
          "name": "timelockUntil",
          "type": "uint256"
        },
        {
          "indexed": false,
          "internalType": "address",
          "name": "sender",
          "type": "address"
        }
      ],
      "name": "UserStaked",
      "type": "event"
    },
    {
      "inputs": [
        {
          "internalType": "uint256",
          "name": "vaultId",
          "type": "uint256"
        },
        {
          "internalType": "uint256[]",
          "name": "ids",
          "type": "uint256[]"
        },
        {
          "internalType": "uint256[]",
          "name": "amounts",
          "type": "uint256[]"
        },
        {
          "internalType": "uint256",
          "name": "minWethIn",
          "type": "uint256"
        },
        {
          "internalType": "uint256",
          "name": "wethIn",
          "type": "uint256"
        }
      ],
      "name": "addLiquidity1155",
      "outputs": [
        {
          "internalType": "uint256",
          "name": "",
          "type": "uint256"
        }
      ],
      "stateMutability": "nonpayable",
      "type": "function"
    },
    {
      "inputs": [
        {
          "internalType": "uint256",
          "name": "vaultId",
          "type": "uint256"
        },
        {
          "internalType": "uint256[]",
          "name": "ids",
          "type": "uint256[]"
        },
        {
          "internalType": "uint256[]",
          "name": "amounts",
          "type": "uint256[]"
        },
        {
          "internalType": "uint256",
          "name": "minWethIn",
          "type": "uint256"
        },
        {
          "internalType": "uint256",
          "name": "wethIn",
          "type": "uint256"
        },
        {
          "internalType": "address",
          "name": "to",
          "type": "address"
        }
      ],
      "name": "addLiquidity1155To",
      "outputs": [
        {
          "internalType": "uint256",
          "name": "",
          "type": "uint256"
        }
      ],
      "stateMutability": "nonpayable",
      "type": "function"
    },
    {
      "inputs": [
        {
          "internalType": "uint256",
          "name": "vaultId",
          "type": "uint256"
        },
        {
          "internalType": "uint256[]",
          "name": "ids",
          "type": "uint256[]"
        },
        {
          "internalType": "uint256",
          "name": "minWethIn",
          "type": "uint256"
        },
        {
          "internalType": "uint256",
          "name": "wethIn",
          "type": "uint256"
        }
      ],
      "name": "addLiquidity721",
      "outputs": [
        {
          "internalType": "uint256",
          "name": "",
          "type": "uint256"
        }
      ],
      "stateMutability": "nonpayable",
      "type": "function"
    },
    {
      "inputs": [
        {
          "internalType": "uint256",
          "name": "vaultId",
          "type": "uint256"
        },
        {
          "internalType": "uint256[]",
          "name": "ids",
          "type": "uint256[]"
        },
        {
          "internalType": "uint256",
          "name": "minWethIn",
          "type": "uint256"
        },
        {
          "internalType": "uint256",
          "name": "wethIn",
          "type": "uint256"
        },
        {
          "internalType": "address",
          "name": "to",
          "type": "address"
        }
      ],
      "name": "addLiquidity721To",
      "outputs": [
        {
          "internalType": "uint256",
          "name": "",
          "type": "uint256"
        }
      ],
      "stateMutability": "nonpayable",
      "type": "function"
    },
    {
      "inputs": [],
      "name": "lockTime",
      "outputs": [
        {
          "internalType": "uint256",
          "name": "",
          "type": "uint256"
        }
      ],
      "stateMutability": "view",
      "type": "function"
    },
    {
      "inputs": [
        {
          "internalType": "uint256",
          "name": "vaultId",
          "type": "uint256"
        },
        {
          "internalType": "address",
          "name": "who",
          "type": "address"
        }
      ],
      "name": "lockedLPBalance",
      "outputs": [
        {
          "internalType": "uint256",
          "name": "",
          "type": "uint256"
        }
      ],
      "stateMutability": "view",
      "type": "function"
    },
    {
      "inputs": [
        {
          "internalType": "uint256",
          "name": "vaultId",
          "type": "uint256"
        },
        {
          "internalType": "address",
          "name": "who",
          "type": "address"
        }
      ],
      "name": "lockedUntil",
      "outputs": [
        {
          "internalType": "uint256",
          "name": "",
          "type": "uint256"
        }
      ],
      "stateMutability": "view",
      "type": "function"
    },
    {
      "inputs": [],
      "name": "lpStaking",
      "outputs": [
        {
          "internalType": "contract INFTXLPStaking",
          "name": "",
          "type": "address"
        }
      ],
      "stateMutability": "view",
      "type": "function"
    },
    {
      "inputs": [],
      "name": "nftxFactory",
      "outputs": [
        {
          "internalType": "contract INFTXVaultFactory",
          "name": "",
          "type": "address"
        }
      ],
      "stateMutability": "view",
      "type": "function"
    },
    {
      "inputs": [
        {
          "internalType": "address",
          "name": "",
          "type": "address"
        },
        {
          "internalType": "address",
          "name": "",
          "type": "address"
        },
        {
          "internalType": "uint256[]",
          "name": "",
          "type": "uint256[]"
        },
        {
          "internalType": "uint256[]",
          "name": "",
          "type": "uint256[]"
        },
        {
          "internalType": "bytes",
          "name": "",
          "type": "bytes"
        }
      ],
      "name": "onERC1155BatchReceived",
      "outputs": [
        {
          "internalType": "bytes4",
          "name": "",
          "type": "bytes4"
        }
      ],
      "stateMutability": "nonpayable",
      "type": "function"
    },
    {
      "inputs": [
        {
          "internalType": "address",
          "name": "",
          "type": "address"
        },
        {
          "internalType": "address",
          "name": "",
          "type": "address"
        },
        {
          "internalType": "uint256",
          "name": "",
          "type": "uint256"
        },
        {
          "internalType": "uint256",
          "name": "",
          "type": "uint256"
        },
        {
          "internalType": "bytes",
          "name": "",
          "type": "bytes"
        }
      ],
      "name": "onERC1155Received",
      "outputs": [
        {
          "internalType": "bytes4",
          "name": "",
          "type": "bytes4"
        }
      ],
      "stateMutability": "nonpayable",
      "type": "function"
    },
    {
      "inputs": [
        {
          "internalType": "address",
          "name": "",
          "type": "address"
        },
        {
          "internalType": "address",
          "name": "",
          "type": "address"
        },
        {
          "internalType": "uint256",
          "name": "",
          "type": "uint256"
        },
        {
          "internalType": "bytes",
          "name": "",
          "type": "bytes"
        }
      ],
      "name": "onERC721Received",
      "outputs": [
        {
          "internalType": "bytes4",
          "name": "",
          "type": "bytes4"
        }
      ],
      "stateMutability": "nonpayable",
      "type": "function"
    },
    {
      "inputs": [],
      "name": "owner",
      "outputs": [
        {
          "internalType": "address",
          "name": "",
          "type": "address"
        }
      ],
      "stateMutability": "view",
      "type": "function"
    },
    {
      "inputs": [],
      "name": "pairedToken",
      "outputs": [
        {
          "internalType": "contract IERC20Upgradeable",
          "name": "",
          "type": "address"
        }
      ],
      "stateMutability": "view",
      "type": "function"
    },
    {
      "inputs": [],
      "name": "renounceOwnership",
      "outputs": [],
      "stateMutability": "nonpayable",
      "type": "function"
    },
    {
      "inputs": [
        {
          "internalType": "uint256",
          "name": "newLockTime",
          "type": "uint256"
        }
      ],
      "name": "setLockTime",
      "outputs": [],
      "stateMutability": "nonpayable",
      "type": "function"
    },
    {
      "inputs": [
        {
          "internalType": "bytes4",
          "name": "interfaceId",
          "type": "bytes4"
        }
      ],
      "name": "supportsInterface",
      "outputs": [
        {
          "internalType": "bool",
          "name": "",
          "type": "bool"
        }
      ],
      "stateMutability": "view",
      "type": "function"
    },
    {
      "inputs": [],
      "name": "sushiRouter",
      "outputs": [
        {
          "internalType": "contract IUniswapV2Router01",
          "name": "",
          "type": "address"
        }
      ],
      "stateMutability": "view",
      "type": "function"
    },
    {
      "inputs": [
        {
          "internalType": "address",
          "name": "newOwner",
          "type": "address"
        }
      ],
      "name": "transferOwnership",
      "outputs": [],
      "stateMutability": "nonpayable",
      "type": "function"
    },
    {
      "stateMutability": "payable",
      "type": "receive"
    }
  ],
  "bytecode": "0x6101006040526202a3006002553480156200001957600080fd5b5060405162002a9138038062002a918339810160408190526200003c9162000294565b620000473362000203565b600180556001600160601b0319606084901b1660c05260408051630d43e8ad60e01b815290516001600160a01b03851691630d43e8ad916004808301926020929190829003018186803b1580156200009e57600080fd5b505afa158015620000b3573d6000803e3d6000fd5b505050506040513d601f19601f82011682018060405250810190620000d9919062000270565b6001600160a01b0316639bf1401c6040518163ffffffff1660e01b8152600401602060405180830381600087803b1580156200011457600080fd5b505af115801562000129573d6000803e3d6000fd5b505050506040513d601f19601f820116820180604052508101906200014f919062000270565b6001600160601b0319606091821b811660a05283821b811660e0529082901b1660805260405163095ea7b360e01b81526001600160a01b038084166004830152600019602483015282169063095ea7b390604401602060405180830381600087803b158015620001be57600080fd5b505af1158015620001d3573d6000803e3d6000fd5b505050506040513d601f19601f82011682018060405250810190620001f99190620002dd565b50505050620002ff565b600080546001600160a01b038381166001600160a01b0319831681178455604051919092169283917f8be0079c531659141344cd1fd0a4f28419497f9722a3daafe3b4186f6b6457e09190a35050565b80516001600160a01b03811681146200026b57600080fd5b919050565b60006020828403121562000282578081fd5b6200028d8262000253565b9392505050565b600080600060608486031215620002a9578182fd5b620002b48462000253565b9250620002c46020850162000253565b9150620002d46040850162000253565b90509250925092565b600060208284031215620002ef578081fd5b815180151581146200028d578182fd5b60805160601c60a05160601c60c05160601c60e05160601c6126e3620003ae600039600081816102e8015281816115ab015281816116ce0152611cd801526000818161029c01528181610dcc01526111bb01526000818161035101528181610a7a01528181610d1801528181611796015261187701526000818161048f0152818161059b01528181610648015281816107b60152818161086201528181611677015261175b01526126e36000f3fe6080604052600436106101485760003560e01c8063715018a6116100c0578063e0e9e64d11610074578063f2fde38b11610059578063f2fde38b1461043d578063f99e74051461045d578063ffc94f901461047d57600080fd5b8063e0e9e64d146103d8578063f23a6e61146103f857600080fd5b80639bf1401c116100a55780639bf1401c1461033f578063ae04d45d14610373578063bc197c811461039357600080fd5b8063715018a61461030a5780638da5cb5b1461032157600080fd5b8063150b7a02116101175780634a5ff061116100fc5780634a5ff0611461026a5780635ee50f881461028a5780636d13582c146102d657600080fd5b8063150b7a02146101ed5780631809d2c21461024a57600080fd5b806301ffc9a71461015457806302100155146101895780630d668087146101b757806310cde786146101cd57600080fd5b3661014f57005b600080fd5b34801561016057600080fd5b5061017461016f366004612219565b6104b1565b60405190151581526020015b60405180910390f35b34801561019557600080fd5b506101a96101a436600461231c565b61051a565b604051908152602001610180565b3480156101c357600080fd5b506101a960025481565b3480156101d957600080fd5b506101a96101e83660046122a0565b610708565b3480156101f957600080fd5b50610231610208366004612128565b7f150b7a0200000000000000000000000000000000000000000000000000000000949350505050565b6040516001600160e01b03199091168152602001610180565b34801561025657600080fd5b506101a96102653660046123ad565b610722565b34801561027657600080fd5b506101a9610285366004612402565b61073a565b34801561029657600080fd5b506102be7f000000000000000000000000000000000000000000000000000000000000000081565b6040516001600160a01b039091168152602001610180565b3480156102e257600080fd5b506102be7f000000000000000000000000000000000000000000000000000000000000000081565b34801561031657600080fd5b5061031f610921565b005b34801561032d57600080fd5b506000546001600160a01b03166102be565b34801561034b57600080fd5b506102be7f000000000000000000000000000000000000000000000000000000000000000081565b34801561037f57600080fd5b5061031f61038e366004612241565b610996565b34801561039f57600080fd5b506102316103ae36600461207e565b7fbc197c810000000000000000000000000000000000000000000000000000000095945050505050565b3480156103e457600080fd5b506101a96103f3366004612271565b610a57565b34801561040457600080fd5b50610231610413366004612192565b7ff23a6e610000000000000000000000000000000000000000000000000000000095945050505050565b34801561044957600080fd5b5061031f61045836600461203f565b610c04565b34801561046957600080fd5b506101a9610478366004612271565b610cf5565b34801561048957600080fd5b506102be7f000000000000000000000000000000000000000000000000000000000000000081565b60006001600160e01b031982167f4e2312e000000000000000000000000000000000000000000000000000000000148061051457507f01ffc9a7000000000000000000000000000000000000000000000000000000006001600160e01b03198316145b92915050565b6000600260015414156105745760405162461bcd60e51b815260206004820152601f60248201527f5265656e7472616e637947756172643a207265656e7472616e742063616c6c0060448201526064015b60405180910390fd5b60026001556040516323b872dd60e01b8152336004820152306024820152604481018490527f00000000000000000000000000000000000000000000000000000000000000006001600160a01b0316906323b872dd90606401602060405180830381600087803b1580156105e757600080fd5b505af11580156105fb573d6000803e3d6000fd5b505050506040513d601f19601f8201168201806040525081019061061f91906121f9565b50600080610631898989898989610dc4565b9250925050848210156106f8576001600160a01b037f00000000000000000000000000000000000000000000000000000000000000001663a9059cbb85610678858961260a565b6040516001600160e01b031960e085901b1681526001600160a01b0390921660048301526024820152604401602060405180830381600087803b1580156106be57600080fd5b505af11580156106d2573d6000803e3d6000fd5b505050506040513d601f19601f820116820180604052508101906106f691906121f9565b505b6001805598975050505050505050565b600061071886868686863361051a565b9695505050505050565b6000610731858585853361073a565b95945050505050565b60006002600154141561078f5760405162461bcd60e51b815260206004820152601f60248201527f5265656e7472616e637947756172643a207265656e7472616e742063616c6c00604482015260640161056b565b60026001556040516323b872dd60e01b8152336004820152306024820152604481018490527f00000000000000000000000000000000000000000000000000000000000000006001600160a01b0316906323b872dd90606401602060405180830381600087803b15801561080257600080fd5b505af1158015610816573d6000803e3d6000fd5b505050506040513d601f19601f8201168201806040525081019061083a91906121f9565b5060008061084b88888888886111b3565b925092505084821015610912576001600160a01b037f00000000000000000000000000000000000000000000000000000000000000001663a9059cbb85610892858961260a565b6040516001600160e01b031960e085901b1681526001600160a01b0390921660048301526024820152604401602060405180830381600087803b1580156108d857600080fd5b505af11580156108ec573d6000803e3d6000fd5b505050506040513d601f19601f8201168201806040525081019061091091906121f9565b505b60018055979650505050505050565b336109346000546001600160a01b031690565b6001600160a01b03161461098a5760405162461bcd60e51b815260206004820181905260248201527f4f776e61626c653a2063616c6c6572206973206e6f7420746865206f776e6572604482015260640161056b565b610994600061152c565b565b336109a96000546001600160a01b031690565b6001600160a01b0316146109ff5760405162461bcd60e51b815260206004820181905260248201527f4f776e61626c653a2063616c6c6572206973206e6f7420746865206f776e6572604482015260640161056b565b62093a80811115610a525760405162461bcd60e51b815260206004820152600d60248201527f4c6f636b20746f6f206c6f6e6700000000000000000000000000000000000000604482015260640161056b565b600255565b60405163b7019b3760e01b81526004810183905260009081906001600160a01b037f0000000000000000000000000000000000000000000000000000000000000000169063b7019b379060240160206040518083038186803b158015610abc57600080fd5b505afa158015610ad0573d6000803e3d6000fd5b505050506040513d601f19601f82011682018060405250810190610af49190612062565b60405163c19ea05360e01b81526001600160a01b0385811660048301529192509082169063c19ea0539060240160206040518083038186803b158015610b3957600080fd5b505afa158015610b4d573d6000803e3d6000fd5b505050506040513d601f19601f82011682018060405250810190610b719190612259565b421115610b82576000915050610514565b6040516370a0823160e01b81526001600160a01b0384811660048301528216906370a08231906024015b60206040518083038186803b158015610bc457600080fd5b505afa158015610bd8573d6000803e3d6000fd5b505050506040513d601f19601f82011682018060405250810190610bfc9190612259565b949350505050565b33610c176000546001600160a01b031690565b6001600160a01b031614610c6d5760405162461bcd60e51b815260206004820181905260248201527f4f776e61626c653a2063616c6c6572206973206e6f7420746865206f776e6572604482015260640161056b565b6001600160a01b038116610ce95760405162461bcd60e51b815260206004820152602660248201527f4f776e61626c653a206e6577206f776e657220697320746865207a65726f206160448201527f6464726573730000000000000000000000000000000000000000000000000000606482015260840161056b565b610cf28161152c565b50565b60405163b7019b3760e01b81526004810183905260009081906001600160a01b037f0000000000000000000000000000000000000000000000000000000000000000169063b7019b379060240160206040518083038186803b158015610d5a57600080fd5b505afa158015610d6e573d6000803e3d6000fd5b505050506040513d601f19601f82011682018060405250810190610d929190612062565b60405163c19ea05360e01b81526001600160a01b0385811660048301529192509082169063c19ea05390602401610bac565b6000806000807f00000000000000000000000000000000000000000000000000000000000000006001600160a01b03166381a36fb68b6040518263ffffffff1660e01b8152600401610e1891815260200190565b60206040518083038186803b158015610e3057600080fd5b505afa158015610e44573d6000803e3d6000fd5b505050506040513d601f19601f82011682018060405250810190610e689190612062565b90506001600160a01b038116610ec05760405162461bcd60e51b815260206004820152601d60248201527f4e4654585a61703a205661756c7420646f6573206e6f74206578697374000000604482015260640161056b565b6000816001600160a01b0316631ba46cfd6040518163ffffffff1660e01b815260040160206040518083038186803b158015610efb57600080fd5b505afa158015610f0f573d6000803e3d6000fd5b505050506040513d601f19601f82011682018060405250810190610f339190612062565b6040517f2eb2c2d60000000000000000000000000000000000000000000000000000000081529091506001600160a01b03821690632eb2c2d690610f8190339030908f908f906004016124f2565b600060405180830381600087803b158015610f9b57600080fd5b505af1158015610faf573d6000803e3d6000fd5b505060405163a22cb46560e01b81526001600160a01b038581166004830152600160248301528416925063a22cb4659150604401600060405180830381600087803b158015610ffd57600080fd5b505af1158015611011573d6000803e3d6000fd5b50506040517f3d5d190c000000000000000000000000000000000000000000000000000000008152600092506001600160a01b0385169150633d5d190c9061105f908e908e9060040161254a565b602060405180830381600087803b15801561107957600080fd5b505af115801561108d573d6000803e3d6000fd5b505050506040513d601f19601f820116820180604052508101906110b19190612259565b905060006110c7670de0b6b3a7640000836125eb565b6040516370a0823160e01b81523060048201529091506001600160a01b038516906370a082319060240160206040518083038186803b15801561110957600080fd5b505afa15801561111d573d6000803e3d6000fd5b505050506040513d601f19601f820116820180604052508101906111419190612259565b811461118f5760405162461bcd60e51b815260206004820181905260248201527f446964206e6f7420726563656976652065787065637465642062616c616e6365604482015260640161056b565b61119d8d85838d8d8d611594565b9650965096505050505096509650969350505050565b6000806000807f00000000000000000000000000000000000000000000000000000000000000006001600160a01b03166381a36fb68a6040518263ffffffff1660e01b815260040161120791815260200190565b60206040518083038186803b15801561121f57600080fd5b505afa158015611233573d6000803e3d6000fd5b505050506040513d601f19601f820116820180604052508101906112579190612062565b90506001600160a01b0381166112af5760405162461bcd60e51b815260206004820152601d60248201527f4e4654585a61703a205661756c7420646f6573206e6f74206578697374000000604482015260640161056b565b6000816001600160a01b0316631ba46cfd6040518163ffffffff1660e01b815260040160206040518083038186803b1580156112ea57600080fd5b505afa1580156112fe573d6000803e3d6000fd5b505050506040513d601f19601f820116820180604052508101906113229190612062565b905060005b89518110156113a557611361828b838151811061135457634e487b7160e01b600052603260045260246000fd5b6020026020010151611a02565b61139382848c848151811061138657634e487b7160e01b600052603260045260246000fd5b6020026020010151611b04565b8061139d81612651565b915050611327565b5060606000836001600160a01b0316633d5d190c8c846040518363ffffffff1660e01b81526004016113d892919061254a565b602060405180830381600087803b1580156113f257600080fd5b505af1158015611406573d6000803e3d6000fd5b505050506040513d601f19601f8201168201806040525081019061142a9190612259565b90506000611440670de0b6b3a7640000836125eb565b6040516370a0823160e01b81523060048201529091506001600160a01b038616906370a082319060240160206040518083038186803b15801561148257600080fd5b505afa158015611496573d6000803e3d6000fd5b505050506040513d601f19601f820116820180604052508101906114ba9190612259565b81146115085760405162461bcd60e51b815260206004820181905260248201527f446964206e6f7420726563656976652065787065637465642062616c616e6365604482015260640161056b565b6115168d86838e8e8e611594565b9750975097505050505050955095509592505050565b600080546001600160a01b038381167fffffffffffffffffffffffff0000000000000000000000000000000000000000831681178455604051919092169283917f8be0079c531659141344cd1fd0a4f28419497f9722a3daafe3b4186f6b6457e09190a35050565b60405163095ea7b360e01b81526001600160a01b037f00000000000000000000000000000000000000000000000000000000000000008116600483015260248201869052600091829182919089169063095ea7b390604401602060405180830381600087803b15801561160657600080fd5b505af115801561161a573d6000803e3d6000fd5b505050506040513d601f19601f8201168201806040525081019061163e91906121f9565b506040517fe8e337000000000000000000000000000000000000000000000000000000000081526001600160a01b0389811660048301527f00000000000000000000000000000000000000000000000000000000000000008116602483015260448201899052606482018790526084820189905260a482018890523060c48301524260e4830152600091829182917f00000000000000000000000000000000000000000000000000000000000000009091169063e8e337009061010401606060405180830381600087803b15801561171557600080fd5b505af1158015611729573d6000803e3d6000fd5b505050506040513d601f19601f8201168201806040525081019061174d919061246f565b925092509250600061177f8c7f0000000000000000000000000000000000000000000000000000000000000000611cc3565b60405163095ea7b360e01b81526001600160a01b037f000000000000000000000000000000000000000000000000000000000000000081166004830152602482018590529192509082169063095ea7b390604401602060405180830381600087803b1580156117ed57600080fd5b505af1158015611801573d6000803e3d6000fd5b505050506040513d601f19601f8201168201806040525081019061182591906121f9565b506002546040517f6c9b9588000000000000000000000000000000000000000000000000000000008152600481018f90526001600160a01b038a811660248301526044820185905260648201929092527f000000000000000000000000000000000000000000000000000000000000000090911690636c9b958890608401600060405180830381600087803b1580156118bd57600080fd5b505af11580156118d1573d6000803e3d6000fd5b505050508a841015611977576001600160a01b038c1663a9059cbb896118f7878f61260a565b6040516001600160e01b031960e085901b1681526001600160a01b0390921660048301526024820152604401602060405180830381600087803b15801561193d57600080fd5b505af1158015611951573d6000803e3d6000fd5b505050506040513d601f19601f8201168201806040525081019061197591906121f9565b505b60006002544261198791906125d3565b90507f9f69538b20901013ea360bae2dce4079d45308fcfed02b3f0768c9f70f4ba9c08e8d85848d6040516119e79594939291909485526020850193909352604084019190915260608301526001600160a01b0316608082015260a00190565b60405180910390a150929c919b509950975050505050505050565b6040513360248201523060448201526064810182905260009060840160408051601f198184030181529181526020820180517bffffffffffffffffffffffffffffffffffffffffffffffffffffffff167f42842e0e000000000000000000000000000000000000000000000000000000001790525190915060009081906001600160a01b03861690611a959085906124d6565b6000604051808303816000865af19150503d8060008114611ad2576040519150601f19603f3d011682016040523d82523d6000602084013e611ad7565b606091505b5091509150818190611afc5760405162461bcd60e51b815260040161056b919061256f565b505050505050565b6040517fe985e9c50000000000000000000000000000000000000000000000000000000081523060048201526001600160a01b0383811660248301527306012c8cf97bead5deae237070f9587f8e7a266d9173b47e3cd837ddf8e4c57f05d70ab865de6e193bbb9186169063e985e9c59060440160206040518083038186803b158015611b9057600080fd5b505afa158015611ba4573d6000803e3d6000fd5b505050506040513d601f19601f82011682018060405250810190611bc891906121f9565b15611bd4575050505050565b6040516001600160a01b03851660248201526001604482015260009060640160408051601f198184030181529181526020820180517bffffffffffffffffffffffffffffffffffffffffffffffffffffffff1663a22cb46560e01b1790525190915060009081906001600160a01b03891690611c519085906124d6565b6000604051808303816000865af19150503d8060008114611c8e576040519150601f19603f3d011682016040523d82523d6000602084013e611c93565b606091505b5091509150818190611cb85760405162461bcd60e51b815260040161056b919061256f565b505050505050505050565b6000806000611cd28585611e41565b915091507f00000000000000000000000000000000000000000000000000000000000000006001600160a01b031663c45a01556040518163ffffffff1660e01b815260040160206040518083038186803b158015611d2f57600080fd5b505afa158015611d43573d6000803e3d6000fd5b505050506040513d601f19601f82011682018060405250810190611d679190612062565b6040516bffffffffffffffffffffffff19606085811b8216602084015284901b16603482015260480160405160208183030381529060405280519060200120604051602001611e209291907fff00000000000000000000000000000000000000000000000000000000000000815260609290921b6bffffffffffffffffffffffff1916600183015260158201527fe18a34eb0e04b04f7a0ac29a6e80748dca96319b42c54d679cb821dca90c6303603582015260550190565b60408051601f19818403018152919052805160209091012095945050505050565b600080826001600160a01b0316846001600160a01b03161415611ecc5760405162461bcd60e51b815260206004820152602560248201527f556e697377617056324c6962726172793a204944454e544943414c5f4144445260448201527f4553534553000000000000000000000000000000000000000000000000000000606482015260840161056b565b826001600160a01b0316846001600160a01b031610611eec578284611eef565b83835b90925090506001600160a01b038216611f4a5760405162461bcd60e51b815260206004820152601e60248201527f556e697377617056324c6962726172793a205a45524f5f414444524553530000604482015260640161056b565b9250929050565b600082601f830112611f61578081fd5b8135602067ffffffffffffffff821115611f7d57611f7d612682565b8160051b611f8c8282016125a2565b838152828101908684018388018501891015611fa6578687fd5b8693505b85841015611fc8578035835260019390930192918401918401611faa565b50979650505050505050565b600082601f830112611fe4578081fd5b813567ffffffffffffffff811115611ffe57611ffe612682565b612011601f8201601f19166020016125a2565b818152846020838601011115612025578283fd5b816020850160208301379081016020019190915292915050565b600060208284031215612050578081fd5b813561205b81612698565b9392505050565b600060208284031215612073578081fd5b815161205b81612698565b600080600080600060a08688031215612095578081fd5b85356120a081612698565b945060208601356120b081612698565b9350604086013567ffffffffffffffff808211156120cc578283fd5b6120d889838a01611f51565b945060608801359150808211156120ed578283fd5b6120f989838a01611f51565b9350608088013591508082111561210e578283fd5b5061211b88828901611fd4565b9150509295509295909350565b6000806000806080858703121561213d578384fd5b843561214881612698565b9350602085013561215881612698565b925060408501359150606085013567ffffffffffffffff81111561217a578182fd5b61218687828801611fd4565b91505092959194509250565b600080600080600060a086880312156121a9578081fd5b85356121b481612698565b945060208601356121c481612698565b93506040860135925060608601359150608086013567ffffffffffffffff8111156121ed578182fd5b61211b88828901611fd4565b60006020828403121561220a578081fd5b8151801515811461205b578182fd5b60006020828403121561222a578081fd5b81356001600160e01b03198116811461205b578182fd5b600060208284031215612252578081fd5b5035919050565b60006020828403121561226a578081fd5b5051919050565b60008060408385031215612283578182fd5b82359150602083013561229581612698565b809150509250929050565b600080600080600060a086880312156122b7578081fd5b85359450602086013567ffffffffffffffff808211156122d5578283fd5b6122e189838a01611f51565b955060408801359150808211156122f6578283fd5b5061230388828901611f51565b9598949750949560608101359550608001359392505050565b60008060008060008060c08789031215612334578384fd5b86359550602087013567ffffffffffffffff80821115612352578586fd5b61235e8a838b01611f51565b96506040890135915080821115612373578586fd5b5061238089828a01611f51565b945050606087013592506080870135915060a087013561239f81612698565b809150509295509295509295565b600080600080608085870312156123c2578182fd5b84359350602085013567ffffffffffffffff8111156123df578283fd5b6123eb87828801611f51565b949794965050505060408301359260600135919050565b600080600080600060a08688031215612419578283fd5b85359450602086013567ffffffffffffffff811115612436578384fd5b61244288828901611f51565b9450506040860135925060608601359150608086013561246181612698565b809150509295509295909350565b600080600060608486031215612483578081fd5b8351925060208401519150604084015190509250925092565b6000815180845260208085019450808401835b838110156124cb578151875295820195908201906001016124af565b509495945050505050565b600082516124e8818460208701612621565b9190910192915050565b60006001600160a01b03808716835280861660208401525060a0604083015261251e60a083018561249c565b8281036060840152612530818561249c565b838103608090940193909352508152602001949350505050565b60408152600061255d604083018561249c565b8281036020840152610731818561249c565b602081526000825180602084015261258e816040850160208701612621565b601f01601f19169190910160400192915050565b604051601f8201601f1916810167ffffffffffffffff811182821017156125cb576125cb612682565b604052919050565b600082198211156125e6576125e661266c565b500190565b60008160001904831182151516156126055761260561266c565b500290565b60008282101561261c5761261c61266c565b500390565b60005b8381101561263c578181015183820152602001612624565b8381111561264b576000848401525b50505050565b60006000198214156126655761266561266c565b5060010190565b634e487b7160e01b600052601160045260246000fd5b634e487b7160e01b600052604160045260246000fd5b6001600160a01b0381168114610cf257600080fdfea26469706673582212201ece312d61a1df81ca3e2c5ad97372156b9db47c02beed54815717115d93f74264736f6c63430008040033",
  "linkReferences": {},
  "deployedLinkReferences": {}
}