{
  "_format": "hh-sol-artifact-1",
  "contractName": "RCNftHubL2",
  "sourceName": "contracts/nfthubs/RCNftHubL2.sol",
  "abi": [
    {
      "inputs": [
        {
          "internalType": "address",
          "name": "_factoryAddress",
          "type": "address"
        },
        {
          "internalType": "address",
          "name": "childChainManager",
          "type": "address"
        }
      ],
      "stateMutability": "nonpayable",
      "type": "constructor"
    },
    {
      "anonymous": false,
      "inputs": [
        {
          "indexed": true,
          "internalType": "address",
          "name": "owner",
          "type": "address"
        },
        {
          "indexed": true,
          "internalType": "address",
          "name": "approved",
          "type": "address"
        },
        {
          "indexed": true,
          "internalType": "uint256",
          "name": "tokenId",
          "type": "uint256"
        }
      ],
      "name": "Approval",
      "type": "event"
    },
    {
      "anonymous": false,
      "inputs": [
        {
          "indexed": true,
          "internalType": "address",
          "name": "owner",
          "type": "address"
        },
        {
          "indexed": true,
          "internalType": "address",
          "name": "operator",
          "type": "address"
        },
        {
          "indexed": false,
          "internalType": "bool",
          "name": "approved",
          "type": "bool"
        }
      ],
      "name": "ApprovalForAll",
      "type": "event"
    },
    {
      "anonymous": false,
      "inputs": [
        {
          "indexed": false,
          "internalType": "address",
          "name": "userAddress",
          "type": "address"
        },
        {
          "indexed": false,
          "internalType": "address",
          "name": "relayerAddress",
          "type": "address"
        },
        {
          "indexed": false,
          "internalType": "bytes",
          "name": "functionSignature",
          "type": "bytes"
        }
      ],
      "name": "MetaTransactionExecuted",
      "type": "event"
    },
    {
      "anonymous": false,
      "inputs": [
        {
          "indexed": true,
          "internalType": "address",
          "name": "previousOwner",
          "type": "address"
        },
        {
          "indexed": true,
          "internalType": "address",
          "name": "newOwner",
          "type": "address"
        }
      ],
      "name": "OwnershipTransferred",
      "type": "event"
    },
    {
      "anonymous": false,
      "inputs": [
        {
          "indexed": true,
          "internalType": "bytes32",
          "name": "role",
          "type": "bytes32"
        },
        {
          "indexed": true,
          "internalType": "bytes32",
          "name": "previousAdminRole",
          "type": "bytes32"
        },
        {
          "indexed": true,
          "internalType": "bytes32",
          "name": "newAdminRole",
          "type": "bytes32"
        }
      ],
      "name": "RoleAdminChanged",
      "type": "event"
    },
    {
      "anonymous": false,
      "inputs": [
        {
          "indexed": true,
          "internalType": "bytes32",
          "name": "role",
          "type": "bytes32"
        },
        {
          "indexed": true,
          "internalType": "address",
          "name": "account",
          "type": "address"
        },
        {
          "indexed": true,
          "internalType": "address",
          "name": "sender",
          "type": "address"
        }
      ],
      "name": "RoleGranted",
      "type": "event"
    },
    {
      "anonymous": false,
      "inputs": [
        {
          "indexed": true,
          "internalType": "bytes32",
          "name": "role",
          "type": "bytes32"
        },
        {
          "indexed": true,
          "internalType": "address",
          "name": "account",
          "type": "address"
        },
        {
          "indexed": true,
          "internalType": "address",
          "name": "sender",
          "type": "address"
        }
      ],
      "name": "RoleRevoked",
      "type": "event"
    },
    {
      "anonymous": false,
      "inputs": [
        {
          "indexed": true,
          "internalType": "address",
          "name": "from",
          "type": "address"
        },
        {
          "indexed": true,
          "internalType": "address",
          "name": "to",
          "type": "address"
        },
        {
          "indexed": true,
          "internalType": "uint256",
          "name": "tokenId",
          "type": "uint256"
        }
      ],
      "name": "Transfer",
      "type": "event"
    },
    {
      "anonymous": false,
      "inputs": [
        {
          "indexed": true,
          "internalType": "address",
          "name": "from",
          "type": "address"
        },
        {
          "indexed": true,
          "internalType": "address",
          "name": "to",
          "type": "address"
        },
        {
          "indexed": true,
          "internalType": "uint256",
          "name": "tokenId",
          "type": "uint256"
        },
        {
          "indexed": false,
          "internalType": "bytes",
          "name": "metaData",
          "type": "bytes"
        }
      ],
      "name": "TransferWithMetadata",
      "type": "event"
    },
    {
      "inputs": [],
      "name": "DEFAULT_ADMIN_ROLE",
      "outputs": [
        {
          "internalType": "bytes32",
          "name": "",
          "type": "bytes32"
        }
      ],
      "stateMutability": "view",
      "type": "function"
    },
    {
      "inputs": [],
      "name": "DEPOSITOR_ROLE",
      "outputs": [
        {
          "internalType": "bytes32",
          "name": "",
          "type": "bytes32"
        }
      ],
      "stateMutability": "view",
      "type": "function"
    },
    {
      "inputs": [],
      "name": "UBER_OWNER",
      "outputs": [
        {
          "internalType": "bytes32",
          "name": "",
          "type": "bytes32"
        }
      ],
      "stateMutability": "view",
      "type": "function"
    },
    {
      "inputs": [
        {
          "internalType": "address",
          "name": "_newMarket",
          "type": "address"
        }
      ],
      "name": "addMarket",
      "outputs": [],
      "stateMutability": "nonpayable",
      "type": "function"
    },
    {
      "inputs": [
        {
          "internalType": "address",
          "name": "to",
          "type": "address"
        },
        {
          "internalType": "uint256",
          "name": "tokenId",
          "type": "uint256"
        }
      ],
      "name": "approve",
      "outputs": [],
      "stateMutability": "nonpayable",
      "type": "function"
    },
    {
      "inputs": [
        {
          "internalType": "address",
          "name": "owner",
          "type": "address"
        }
      ],
      "name": "balanceOf",
      "outputs": [
        {
          "internalType": "uint256",
          "name": "",
          "type": "uint256"
        }
      ],
      "stateMutability": "view",
      "type": "function"
    },
    {
      "inputs": [
        {
          "internalType": "address",
          "name": "user",
          "type": "address"
        },
        {
          "internalType": "bytes",
          "name": "depositData",
          "type": "bytes"
        }
      ],
      "name": "deposit",
      "outputs": [],
      "stateMutability": "nonpayable",
      "type": "function"
    },
    {
      "inputs": [
        {
          "internalType": "uint256",
          "name": "tokenId",
          "type": "uint256"
        }
      ],
      "name": "encodeTokenMetadata",
      "outputs": [
        {
          "internalType": "bytes",
          "name": "",
          "type": "bytes"
        }
      ],
      "stateMutability": "view",
      "type": "function"
    },
    {
      "inputs": [
        {
          "internalType": "address",
          "name": "userAddress",
          "type": "address"
        },
        {
          "internalType": "bytes",
          "name": "functionSignature",
          "type": "bytes"
        },
        {
          "internalType": "bytes32",
          "name": "sigR",
          "type": "bytes32"
        },
        {
          "internalType": "bytes32",
          "name": "sigS",
          "type": "bytes32"
        },
        {
          "internalType": "uint8",
          "name": "sigV",
          "type": "uint8"
        }
      ],
      "name": "executeMetaTransaction",
      "outputs": [
        {
          "internalType": "bytes",
          "name": "",
          "type": "bytes"
        }
      ],
      "stateMutability": "payable",
      "type": "function"
    },
    {
      "inputs": [],
      "name": "factory",
      "outputs": [
        {
          "internalType": "contract IRCFactory",
          "name": "",
          "type": "address"
        }
      ],
      "stateMutability": "view",
      "type": "function"
    },
    {
      "inputs": [
        {
          "internalType": "uint256",
          "name": "tokenId",
          "type": "uint256"
        }
      ],
      "name": "getApproved",
      "outputs": [
        {
          "internalType": "address",
          "name": "",
          "type": "address"
        }
      ],
      "stateMutability": "view",
      "type": "function"
    },
    {
      "inputs": [],
      "name": "getChainId",
      "outputs": [
        {
          "internalType": "uint256",
          "name": "",
          "type": "uint256"
        }
      ],
      "stateMutability": "view",
      "type": "function"
    },
    {
      "inputs": [],
      "name": "getDomainSeperator",
      "outputs": [
        {
          "internalType": "bytes32",
          "name": "",
          "type": "bytes32"
        }
      ],
      "stateMutability": "view",
      "type": "function"
    },
    {
      "inputs": [
        {
          "internalType": "address",
          "name": "user",
          "type": "address"
        }
      ],
      "name": "getNonce",
      "outputs": [
        {
          "internalType": "uint256",
          "name": "nonce",
          "type": "uint256"
        }
      ],
      "stateMutability": "view",
      "type": "function"
    },
    {
      "inputs": [
        {
          "internalType": "bytes32",
          "name": "role",
          "type": "bytes32"
        }
      ],
      "name": "getRoleAdmin",
      "outputs": [
        {
          "internalType": "bytes32",
          "name": "",
          "type": "bytes32"
        }
      ],
      "stateMutability": "view",
      "type": "function"
    },
    {
      "inputs": [
        {
          "internalType": "bytes32",
          "name": "role",
          "type": "bytes32"
        },
        {
          "internalType": "address",
          "name": "account",
          "type": "address"
        }
      ],
      "name": "grantRole",
      "outputs": [],
      "stateMutability": "nonpayable",
      "type": "function"
    },
    {
      "inputs": [
        {
          "internalType": "bytes32",
          "name": "role",
          "type": "bytes32"
        },
        {
          "internalType": "address",
          "name": "account",
          "type": "address"
        }
      ],
      "name": "hasRole",
      "outputs": [
        {
          "internalType": "bool",
          "name": "",
          "type": "bool"
        }
      ],
      "stateMutability": "view",
      "type": "function"
    },
    {
      "inputs": [
        {
          "internalType": "address",
          "name": "owner",
          "type": "address"
        },
        {
          "internalType": "address",
          "name": "operator",
          "type": "address"
        }
      ],
      "name": "isApprovedForAll",
      "outputs": [
        {
          "internalType": "bool",
          "name": "",
          "type": "bool"
        }
      ],
      "stateMutability": "view",
      "type": "function"
    },
    {
      "inputs": [
        {
          "internalType": "address",
          "name": "",
          "type": "address"
        }
      ],
      "name": "isMarket",
      "outputs": [
        {
          "internalType": "bool",
          "name": "",
          "type": "bool"
        }
      ],
      "stateMutability": "view",
      "type": "function"
    },
    {
      "inputs": [
        {
          "internalType": "uint256",
          "name": "",
          "type": "uint256"
        }
      ],
      "name": "marketTracker",
      "outputs": [
        {
          "internalType": "address",
          "name": "",
          "type": "address"
        }
      ],
      "stateMutability": "view",
      "type": "function"
    },
    {
      "inputs": [
        {
          "internalType": "address",
          "name": "_originalOwner",
          "type": "address"
        },
        {
          "internalType": "uint256",
          "name": "_tokenId",
          "type": "uint256"
        },
        {
          "internalType": "string",
          "name": "_tokenURI",
          "type": "string"
        }
      ],
      "name": "mint",
      "outputs": [],
      "stateMutability": "nonpayable",
      "type": "function"
    },
    {
      "inputs": [],
      "name": "name",
      "outputs": [
        {
          "internalType": "string",
          "name": "",
          "type": "string"
        }
      ],
      "stateMutability": "view",
      "type": "function"
    },
    {
      "inputs": [],
      "name": "owner",
      "outputs": [
        {
          "internalType": "address",
          "name": "",
          "type": "address"
        }
      ],
      "stateMutability": "view",
      "type": "function"
    },
    {
      "inputs": [
        {
          "internalType": "uint256",
          "name": "tokenId",
          "type": "uint256"
        }
      ],
      "name": "ownerOf",
      "outputs": [
        {
          "internalType": "address",
          "name": "",
          "type": "address"
        }
      ],
      "stateMutability": "view",
      "type": "function"
    },
    {
      "inputs": [],
      "name": "renounceOwnership",
      "outputs": [],
      "stateMutability": "nonpayable",
      "type": "function"
    },
    {
      "inputs": [
        {
          "internalType": "bytes32",
          "name": "role",
          "type": "bytes32"
        },
        {
          "internalType": "address",
          "name": "account",
          "type": "address"
        }
      ],
      "name": "renounceRole",
      "outputs": [],
      "stateMutability": "nonpayable",
      "type": "function"
    },
    {
      "inputs": [
        {
          "internalType": "bytes32",
          "name": "role",
          "type": "bytes32"
        },
        {
          "internalType": "address",
          "name": "account",
          "type": "address"
        }
      ],
      "name": "revokeRole",
      "outputs": [],
      "stateMutability": "nonpayable",
      "type": "function"
    },
    {
      "inputs": [
        {
          "internalType": "address",
          "name": "from",
          "type": "address"
        },
        {
          "internalType": "address",
          "name": "to",
          "type": "address"
        },
        {
          "internalType": "uint256",
          "name": "tokenId",
          "type": "uint256"
        }
      ],
      "name": "safeTransferFrom",
      "outputs": [],
      "stateMutability": "nonpayable",
      "type": "function"
    },
    {
      "inputs": [
        {
          "internalType": "address",
          "name": "from",
          "type": "address"
        },
        {
          "internalType": "address",
          "name": "to",
          "type": "address"
        },
        {
          "internalType": "uint256",
          "name": "tokenId",
          "type": "uint256"
        },
        {
          "internalType": "bytes",
          "name": "_data",
          "type": "bytes"
        }
      ],
      "name": "safeTransferFrom",
      "outputs": [],
      "stateMutability": "nonpayable",
      "type": "function"
    },
    {
      "inputs": [
        {
          "internalType": "address",
          "name": "operator",
          "type": "address"
        },
        {
          "internalType": "bool",
          "name": "approved",
          "type": "bool"
        }
      ],
      "name": "setApprovalForAll",
      "outputs": [],
      "stateMutability": "nonpayable",
      "type": "function"
    },
    {
      "inputs": [
        {
          "internalType": "address",
          "name": "_newAddress",
          "type": "address"
        }
      ],
      "name": "setFactory",
      "outputs": [],
      "stateMutability": "nonpayable",
      "type": "function"
    },
    {
      "inputs": [
        {
          "internalType": "uint256",
          "name": "_tokenId",
          "type": "uint256"
        },
        {
          "internalType": "string",
          "name": "_tokenURI",
          "type": "string"
        }
      ],
      "name": "setTokenURI",
      "outputs": [],
      "stateMutability": "nonpayable",
      "type": "function"
    },
    {
      "inputs": [
        {
          "internalType": "bytes4",
          "name": "interfaceId",
          "type": "bytes4"
        }
      ],
      "name": "supportsInterface",
      "outputs": [
        {
          "internalType": "bool",
          "name": "",
          "type": "bool"
        }
      ],
      "stateMutability": "view",
      "type": "function"
    },
    {
      "inputs": [],
      "name": "symbol",
      "outputs": [
        {
          "internalType": "string",
          "name": "",
          "type": "string"
        }
      ],
      "stateMutability": "view",
      "type": "function"
    },
    {
      "inputs": [
        {
          "internalType": "uint256",
          "name": "index",
          "type": "uint256"
        }
      ],
      "name": "tokenByIndex",
      "outputs": [
        {
          "internalType": "uint256",
          "name": "",
          "type": "uint256"
        }
      ],
      "stateMutability": "view",
      "type": "function"
    },
    {
      "inputs": [
        {
          "internalType": "address",
          "name": "owner",
          "type": "address"
        },
        {
          "internalType": "uint256",
          "name": "index",
          "type": "uint256"
        }
      ],
      "name": "tokenOfOwnerByIndex",
      "outputs": [
        {
          "internalType": "uint256",
          "name": "",
          "type": "uint256"
        }
      ],
      "stateMutability": "view",
      "type": "function"
    },
    {
      "inputs": [
        {
          "internalType": "uint256",
          "name": "tokenId",
          "type": "uint256"
        }
      ],
      "name": "tokenURI",
      "outputs": [
        {
          "internalType": "string",
          "name": "",
          "type": "string"
        }
      ],
      "stateMutability": "view",
      "type": "function"
    },
    {
      "inputs": [],
      "name": "totalSupply",
      "outputs": [
        {
          "internalType": "uint256",
          "name": "",
          "type": "uint256"
        }
      ],
      "stateMutability": "view",
      "type": "function"
    },
    {
      "inputs": [
        {
          "internalType": "address",
          "name": "from",
          "type": "address"
        },
        {
          "internalType": "address",
          "name": "to",
          "type": "address"
        },
        {
          "internalType": "uint256",
          "name": "tokenId",
          "type": "uint256"
        }
      ],
      "name": "transferFrom",
      "outputs": [],
      "stateMutability": "nonpayable",
      "type": "function"
    },
    {
      "inputs": [
        {
          "internalType": "address",
          "name": "_currentOwner",
          "type": "address"
        },
        {
          "internalType": "address",
          "name": "_newOwner",
          "type": "address"
        },
        {
          "internalType": "uint256",
          "name": "_tokenId",
          "type": "uint256"
        }
      ],
      "name": "transferNft",
      "outputs": [],
      "stateMutability": "nonpayable",
      "type": "function"
    },
    {
      "inputs": [
        {
          "internalType": "address",
          "name": "newOwner",
          "type": "address"
        }
      ],
      "name": "transferOwnership",
      "outputs": [],
      "stateMutability": "nonpayable",
      "type": "function"
    },
    {
      "inputs": [],
      "name": "treasury",
      "outputs": [
        {
          "internalType": "contract IRCTreasury",
          "name": "",
          "type": "address"
        }
      ],
      "stateMutability": "view",
      "type": "function"
    },
    {
      "inputs": [
        {
          "internalType": "uint256",
          "name": "tokenId",
          "type": "uint256"
        }
      ],
      "name": "withdraw",
      "outputs": [],
      "stateMutability": "nonpayable",
      "type": "function"
    },
    {
      "inputs": [
        {
          "internalType": "uint256",
          "name": "tokenId",
          "type": "uint256"
        }
      ],
      "name": "withdrawWithMetadata",
      "outputs": [],
      "stateMutability": "nonpayable",
      "type": "function"
    },
    {
      "inputs": [
        {
          "internalType": "uint256",
          "name": "",
          "type": "uint256"
        }
      ],
      "name": "withdrawnTokens",
      "outputs": [
        {
          "internalType": "bool",
          "name": "",
          "type": "bool"
        }
      ],
      "stateMutability": "view",
      "type": "function"
    }
  ],
  "bytecode": "0x60806040523480156200001157600080fd5b5060405162004282380380620042828339810160408190526200003491620005ae565b6040518060400160405280600c81526020016b5265616c697479436172647360a01b81525060405180604001604052806002815260200161524360f01b8152506200008e620000886200027560201b60201c565b62000279565b8151620000a390600190602085019062000508565b508051620000b990600290602084019062000508565b5050506001600160a01b038116620001235760405162461bcd60e51b815260206004820152602260248201527f4d75737420616464206368696c64436861696e4d616e61676572206164647265604482015261737360f01b60648201526084015b60405180910390fd5b620001836040518060400160405280601481526020017f5265616c69747943617264734e66744875624c32000000000000000000000000815250604051806040016040528060018152602001603160f81b815250620002c960201b60201c565b62000190600033620003bf565b620001bc7f8f4f2da22e8ac8f11e15f9fc141cddbb5deea8800186560abb6e68c5496619a982620003bf565b601580546001600160a01b0319166001600160a01b038416908117909155604080516361d027b360e01b815290516361d027b391600480820192602092909190829003018186803b1580156200021157600080fd5b505afa15801562000226573d6000803e3d6000fd5b505050506040513d601f19601f820116820180604052508101906200024c9190620005ed565b601680546001600160a01b0319166001600160a01b0392909216919091179055506200066a9050565b3390565b600080546001600160a01b038381166001600160a01b0319831681178455604051919092169283917f8be0079c531659141344cd1fd0a4f28419497f9722a3daafe3b4186f6b6457e09190a35050565b600d54610100900460ff1680620002e35750600d5460ff16155b620003485760405162461bcd60e51b815260206004820152602e60248201527f496e697469616c697a61626c653a20636f6e747261637420697320616c72656160448201526d191e481a5b9a5d1a585b1a5e995960921b60648201526084016200011a565b600d54610100900460ff161580156200036b57600d805461ffff19166101011790555b46600f5582516200038490601090602086019062000508565b5081516200039a90601190602085019062000508565b50620003a78383620003d3565b8015620003ba57600d805461ff00191690555b505050565b620003cb828262000464565b5050565b4690565b6040518060800160405280604f815260200162004233604f913980519060200120828051906020012082805190602001203062000415620003cf60201b60201c565b60408051602081019690965285019390935260608401919091526001600160a01b0316608083015260a082015260c00160408051601f198184030181529190528051602090910120600e555050565b6000828152600c602090815260408083206001600160a01b038516845290915290205460ff16620003cb576000828152600c602090815260408083206001600160a01b03851684529091529020805460ff19166001179055620004c43390565b6001600160a01b0316816001600160a01b0316837f2f8788117e7eff1d82e926ec794901d17c78024a50270940304540a733656f0d60405160405180910390a45050565b828054620005169062000614565b90600052602060002090601f0160209004810192826200053a576000855562000585565b82601f106200055557805160ff191683800117855562000585565b8280016001018555821562000585579182015b828111156200058557825182559160200191906001019062000568565b506200059392915062000597565b5090565b5b8082111562000593576000815560010162000598565b60008060408385031215620005c257600080fd5b8251620005cf8162000651565b6020840151909250620005e28162000651565b809150509250929050565b6000602082840312156200060057600080fd5b81516200060d8162000651565b9392505050565b600181811c908216806200062957607f821691505b602082108114156200064b57634e487b7160e01b600052602260045260246000fd5b50919050565b6001600160a01b03811681146200066757600080fd5b50565b613bb9806200067a6000396000f3fe6080604052600436106102725760003560e01c80636352211e1161014f578063a3b0b5a3116100c1578063d11eccd61161007a578063d11eccd6146107b3578063d3fc9864146107d3578063d547741f146107f3578063e985e9c514610813578063f2fde38b1461085c578063fa8cb9af1461087c57600080fd5b8063a3b0b5a3146106df578063a5e584dc14610713578063b88d4fde14610733578063c45a015514610753578063c87b56dd14610773578063cf2c52cb1461079357600080fd5b806391d148541161011357806391d148541461061f57806393e306331461063f57806394b779f01461065f57806395d89b4114610695578063a217fddf146106aa578063a22cb465146106bf57600080fd5b80636352211e1461057c5780636ec934da1461059c57806370a08231146105cc578063715018a6146105ec5780638da5cb5b1461060157600080fd5b8063248a9ca3116101e85780633408e470116101ac5780633408e470146104c957806336568abe146104dc57806342842e0e146104fc5780634f6ccce71461051c5780635bb478081461053c57806361d027b31461055c57600080fd5b8063248a9ca3146104035780632d0335ab146104335780632e1a7d4d146104695780632f2ff15d146104895780632f745c59146104a957600080fd5b80630c53c51c1161023a5780630c53c51c14610358578063162094c41461036b5780631653c39a1461038b57806318160ddd146103ab57806320379ee5146103ce57806323b872dd146103e357600080fd5b806301ffc9a71461027757806306fdde03146102ac57806307a974fc146102ce578063081812fc146102fe578063095ea7b314610336575b600080fd5b34801561028357600080fd5b50610297610292366004613484565b6108b0565b60405190151581526020015b60405180910390f35b3480156102b857600080fd5b506102c16108db565b6040516102a391906137ce565b3480156102da57600080fd5b506102976102e9366004613446565b60176020526000908152604090205460ff1681565b34801561030a57600080fd5b5061031e610319366004613446565b61096d565b6040516001600160a01b0390911681526020016102a3565b34801561034257600080fd5b506103566103513660046132f4565b6109fa565b005b6102c1610366366004613276565b610b10565b34801561037757600080fd5b50610356610386366004613573565b610cfa565b34801561039757600080fd5b506102c16103a6366004613446565b610e2c565b3480156103b757600080fd5b506103c0610e5d565b6040519081526020016102a3565b3480156103da57600080fd5b506103c0610e6d565b3480156103ef57600080fd5b506103566103fe366004613146565b610f27565b34801561040f57600080fd5b506103c061041e366004613446565b6000908152600c602052604090206001015490565b34801561043f57600080fd5b506103c061044e3660046130f0565b6001600160a01b031660009081526012602052604090205490565b34801561047557600080fd5b50610356610484366004613446565b610f58565b34801561049557600080fd5b506103566104a436600461345f565b610fb6565b3480156104b557600080fd5b506103c06104c43660046132f4565b610fdc565b3480156104d557600080fd5b50466103c0565b3480156104e857600080fd5b506103566104f736600461345f565b611072565b34801561050857600080fd5b50610356610517366004613146565b6110f0565b34801561052857600080fd5b506103c0610537366004613446565b61110b565b34801561054857600080fd5b506103566105573660046130f0565b61119e565b34801561056857600080fd5b5060165461031e906001600160a01b031681565b34801561058857600080fd5b5061031e610597366004613446565b61138b565b3480156105a857600080fd5b506102976105b73660046130f0565b60136020526000908152604090205460ff1681565b3480156105d857600080fd5b506103c06105e73660046130f0565b611396565b3480156105f857600080fd5b5061035661141d565b34801561060d57600080fd5b506000546001600160a01b031661031e565b34801561062b57600080fd5b5061029761063a36600461345f565b611483565b34801561064b57600080fd5b5061035661065a3660046130f0565b6114ae565b34801561066b57600080fd5b5061031e61067a366004613446565b6014602052600090815260409020546001600160a01b031681565b3480156106a157600080fd5b506102c161152a565b3480156106b657600080fd5b506103c0600081565b3480156106cb57600080fd5b506103566106da3660046131f3565b611539565b3480156106eb57600080fd5b506103c07f8f4f2da22e8ac8f11e15f9fc141cddbb5deea8800186560abb6e68c5496619a981565b34801561071f57600080fd5b5061035661072e366004613446565b6115fe565b34801561073f57600080fd5b5061035661074e366004613187565b61172c565b34801561075f57600080fd5b5060155461031e906001600160a01b031681565b34801561077f57600080fd5b506102c161078e366004613446565b611764565b34801561079f57600080fd5b506103566107ae366004613221565b61176f565b3480156107bf57600080fd5b506103566107ce366004613146565b61187a565b3480156107df57600080fd5b506103566107ee366004613320565b6118d8565b3480156107ff57600080fd5b5061035661080e36600461345f565b611a18565b34801561081f57600080fd5b5061029761082e36600461310d565b6001600160a01b03918216600090815260066020908152604080832093909416825291909152205460ff1690565b34801561086857600080fd5b506103566108773660046130f0565b611a3e565b34801561088857600080fd5b506103c07f52d1941cacb84b09158c2ca3fd9782d719422cf352918630ece583c0581f263581565b60006001600160e01b0319821663f25afa3560e01b14806108d557506108d582611b06565b92915050565b6060600180546108ea906139ca565b80601f0160208091040260200160405190810160405280929190818152602001828054610916906139ca565b80156109635780601f1061093857610100808354040283529160200191610963565b820191906000526020600020905b81548152906001019060200180831161094657829003601f168201915b5050505050905090565b600061097882611b2b565b6109de5760405162461bcd60e51b815260206004820152602c60248201527f4552433732313a20617070726f76656420717565727920666f72206e6f6e657860448201526b34b9ba32b73a103a37b5b2b760a11b60648201526084015b60405180910390fd5b506000908152600560205260409020546001600160a01b031690565b6000610a0582611b48565b9050806001600160a01b0316836001600160a01b03161415610a735760405162461bcd60e51b815260206004820152602160248201527f4552433732313a20617070726f76616c20746f2063757272656e74206f776e656044820152603960f91b60648201526084016109d5565b336001600160a01b0382161480610a8f5750610a8f813361082e565b610b015760405162461bcd60e51b815260206004820152603860248201527f4552433732313a20617070726f76652063616c6c6572206973206e6f74206f7760448201527f6e6572206e6f7220617070726f76656420666f7220616c6c000000000000000060648201526084016109d5565b610b0b8383611bbf565b505050565b60408051606081810183526001600160a01b03881660008181526012602090815290859020548452830152918101869052610b4e8782878787611c2d565b610ba45760405162461bcd60e51b815260206004820152602160248201527f5369676e657220616e64207369676e617475726520646f206e6f74206d6174636044820152600d60fb1b60648201526084016109d5565b6001600160a01b038716600090815260126020526040902054610bc8906001613925565b6001600160a01b0388166000908152601260205260409081902091909155517f5845892132946850460bff5a0083f71031bc5bf9aadcd40f1de79423eac9b10b90610c1890899033908a90613765565b60405180910390a1600080306001600160a01b0316888a604051602001610c409291906135ee565b60408051601f1981840301815290829052610c5a916135d2565b6000604051808303816000865af19150503d8060008114610c97576040519150601f19603f3d011682016040523d82523d6000602084013e610c9c565b606091505b509150915081610cee5760405162461bcd60e51b815260206004820152601c60248201527f46756e6374696f6e2063616c6c206e6f74207375636365737366756c0000000060448201526064016109d5565b98975050505050505050565b6016546001600160a01b0316635cc77dd37f52d1941cacb84b09158c2ca3fd9782d719422cf352918630ece583c0581f2635610d34611d1d565b6040516001600160e01b031960e085901b16815260048101929092526001600160a01b0316602482015260440160206040518083038186803b158015610d7957600080fd5b505afa158015610d8d573d6000803e3d6000fd5b505050506040513d601f19601f82011682018060405250810190610db19190613429565b610dec5760405162461bcd60e51b815260206004820152600c60248201526b139bdd08185c1c1c9bdd995960a21b60448201526064016109d5565b610b0b8383838080601f016020809104026020016040519081016040528093929190818152602001838380828437600092019190915250611d3992505050565b6060610e3782611764565b604051602001610e4791906137ce565b6040516020818303038152906040529050919050565b6000610e68600a5490565b905090565b6000600f54610e794690565b1415610e865750600e5490565b6040518060800160405280604f8152602001613b35604f9139805190602001206010604051610eb59190613625565b60405180910390206011604051610ecc9190613625565b604051809103902030610edc4690565b60408051602081019690965285019390935260608401919091526001600160a01b0316608083015260a082015260c00160405160208183030381529060405280519060200120905090565b610f313382611dc4565b610f4d5760405162461bcd60e51b81526004016109d59061387b565b610b0b838383611eae565b610f618161138b565b6001600160a01b0316336001600160a01b031614610f915760405162461bcd60e51b81526004016109d590613833565b6000818152601760205260409020805460ff19166001179055610fb381612059565b50565b6000828152600c6020526040902060010154610fd28133612062565b610b0b83836120c6565b6000610fe783611396565b82106110495760405162461bcd60e51b815260206004820152602b60248201527f455243373231456e756d657261626c653a206f776e657220696e646578206f7560448201526a74206f6620626f756e647360a81b60648201526084016109d5565b506001600160a01b03919091166000908152600860209081526040808320938352929052205490565b6001600160a01b03811633146110e25760405162461bcd60e51b815260206004820152602f60248201527f416363657373436f6e74726f6c3a2063616e206f6e6c792072656e6f756e636560448201526e103937b632b9903337b91039b2b63360891b60648201526084016109d5565b6110ec828261214c565b5050565b610b0b8383836040518060200160405280600081525061172c565b6000611116600a5490565b82106111795760405162461bcd60e51b815260206004820152602c60248201527f455243373231456e756d657261626c653a20676c6f62616c20696e646578206f60448201526b7574206f6620626f756e647360a01b60648201526084016109d5565b600a828154811061118c5761118c613a8c565b90600052602060002001549050919050565b6016546001600160a01b0316635cc77dd37f52d1941cacb84b09158c2ca3fd9782d719422cf352918630ece583c0581f26356111d8611d1d565b6040516001600160e01b031960e085901b16815260048101929092526001600160a01b0316602482015260440160206040518083038186803b15801561121d57600080fd5b505afa158015611231573d6000803e3d6000fd5b505050506040513d601f19601f820116820180604052508101906112559190613429565b6112905760405162461bcd60e51b815260206004820152600c60248201526b139bdd08185c1c1c9bdd995960a21b60448201526064016109d5565b6001600160a01b0381166112dc5760405162461bcd60e51b81526020600482015260136024820152724d7573742073657420616e206164647265737360681b60448201526064016109d5565b601580546001600160a01b0319166001600160a01b038316908117909155604080516361d027b360e01b815290516361d027b391600480820192602092909190829003018186803b15801561133057600080fd5b505afa158015611344573d6000803e3d6000fd5b505050506040513d601f19601f820116820180604052508101906113689190613535565b601680546001600160a01b0319166001600160a01b039290921691909117905550565b60006108d582611b48565b60006001600160a01b0382166114015760405162461bcd60e51b815260206004820152602a60248201527f4552433732313a2062616c616e636520717565727920666f7220746865207a65604482015269726f206164647265737360b01b60648201526084016109d5565b506001600160a01b031660009081526004602052604090205490565b6000546001600160a01b031633146114775760405162461bcd60e51b815260206004820181905260248201527f4f776e61626c653a2063616c6c6572206973206e6f7420746865206f776e657260448201526064016109d5565b61148160006121b3565b565b6000918252600c602090815260408084206001600160a01b0393909316845291905290205460ff1690565b6015546001600160a01b03166114c2611d1d565b6001600160a01b0316146115065760405162461bcd60e51b815260206004820152600b60248201526a4e6f7420666163746f727960a81b60448201526064016109d5565b6001600160a01b03166000908152601360205260409020805460ff19166001179055565b6060600280546108ea906139ca565b6001600160a01b0382163314156115925760405162461bcd60e51b815260206004820152601960248201527f4552433732313a20617070726f766520746f2063616c6c65720000000000000060448201526064016109d5565b3360008181526006602090815260408083206001600160a01b03871680855290835292819020805460ff191686151590811790915590519081529192917f17307eab39ab6107e8899845ad3d59bd9653f200f220920489ca2b5937696c31910160405180910390a35050565b6116078161138b565b6001600160a01b0316611618611d1d565b6001600160a01b03161461163e5760405162461bcd60e51b81526004016109d590613833565b6000818152601760205260408120805460ff1916600117905581906116628261138b565b6001600160a01b03167ff94915c6d1fd521cee85359239227480c7e8776d7caf1fc3bacad5c269b66a14306001600160a01b0316631653c39a866040518263ffffffff1660e01b81526004016116ba91815260200190565b60006040518083038186803b1580156116d257600080fd5b505afa1580156116e6573d6000803e3d6000fd5b505050506040513d6000823e601f3d908101601f1916820160405261170e91908101906134be565b60405161171b91906137ce565b60405180910390a4610fb381612059565b6117363383611dc4565b6117525760405162461bcd60e51b81526004016109d59061387b565b61175e84848484612203565b50505050565b60606108d582612236565b7f8f4f2da22e8ac8f11e15f9fc141cddbb5deea8800186560abb6e68c5496619a961179a8133612062565b60208214156117d95760006117b183850185613446565b6000818152601760205260409020805460ff1916905590506117d385826123a5565b5061175e565b60006117e78385018561337c565b805190915060005b818110156118715760006017600085848151811061180f5761180f613a8c565b6020026020010151815260200190815260200160002060006101000a81548160ff02191690831515021790555061185f8784838151811061185257611852613a8c565b60200260200101516123a5565b8061186981613a05565b9150506117ef565b50505050505050565b611882611d1d565b6000828152601460205260409020546001600160a01b03908116911614610f4d5760405162461bcd60e51b815260206004820152600a602482015269139bdd081b585c9ad95d60b21b60448201526064016109d5565b60008381526017602052604090205460ff161561194f5760405162461bcd60e51b815260206004820152602f60248201527f4368696c644d696e7461626c654552433732313a20544f4b454e5f455849535460448201526e29afa7a72fa927a7aa2fa1a420a4a760891b60648201526084016109d5565b6015546001600160a01b0316611963611d1d565b6001600160a01b0316146119a75760405162461bcd60e51b815260206004820152600b60248201526a4e6f7420666163746f727960a81b60448201526064016109d5565b600083815260146020526040902080546001600160a01b0319166001600160a01b0386161790556119d884846123a5565b61175e8383838080601f016020809104026020016040519081016040528093929190818152602001838380828437600092019190915250611d3992505050565b6000828152600c6020526040902060010154611a348133612062565b610b0b838361214c565b6000546001600160a01b03163314611a985760405162461bcd60e51b815260206004820181905260248201527f4f776e61626c653a2063616c6c6572206973206e6f7420746865206f776e657260448201526064016109d5565b6001600160a01b038116611afd5760405162461bcd60e51b815260206004820152602660248201527f4f776e61626c653a206e6577206f776e657220697320746865207a65726f206160448201526564647265737360d01b60648201526084016109d5565b610fb3816121b3565b60006001600160e01b03198216637965db0b60e01b14806108d557506108d5826124e4565b6000908152600360205260409020546001600160a01b0316151590565b6000818152600360205260408120546001600160a01b0316806108d55760405162461bcd60e51b815260206004820152602960248201527f4552433732313a206f776e657220717565727920666f72206e6f6e657869737460448201526832b73a103a37b5b2b760b91b60648201526084016109d5565b600081815260056020526040902080546001600160a01b0319166001600160a01b0384169081179091558190611bf482611b48565b6001600160a01b03167f8c5be1e5ebec7d5bd14f71427d1e84f3dd0314c0f7b2291e5b200ac8c7c3b92560405160405180910390a45050565b60006001600160a01b038616611c935760405162461bcd60e51b815260206004820152602560248201527f4e61746976654d6574615472616e73616374696f6e3a20494e56414c49445f5360448201526424a3a722a960d91b60648201526084016109d5565b6001611ca6611ca187612509565b612586565b6040805160008152602081018083529290925260ff851690820152606081018690526080810185905260a0016020604051602081039080840390855afa158015611cf4573d6000803e3d6000fd5b505050602060405103516001600160a01b0316866001600160a01b031614905095945050505050565b600033301415611d34575060131936013560601c90565b503390565b611d4282611b2b565b611da55760405162461bcd60e51b815260206004820152602e60248201527f45524337323155524953746f726167653a2055524920736574206f66206e6f6e60448201526d32bc34b9ba32b73a103a37b5b2b760911b60648201526084016109d5565b60008281526007602090815260409091208251610b0b92840190612f82565b6000611dcf82611b2b565b611e305760405162461bcd60e51b815260206004820152602c60248201527f4552433732313a206f70657261746f7220717565727920666f72206e6f6e657860448201526b34b9ba32b73a103a37b5b2b760a11b60648201526084016109d5565b6000611e3b83611b48565b9050806001600160a01b0316846001600160a01b03161480611e765750836001600160a01b0316611e6b8461096d565b6001600160a01b0316145b80611ea657506001600160a01b0380821660009081526006602090815260408083209388168352929052205460ff165b949350505050565b826001600160a01b0316611ec182611b48565b6001600160a01b031614611f295760405162461bcd60e51b815260206004820152602960248201527f4552433732313a207472616e73666572206f6620746f6b656e2074686174206960448201526839903737ba1037bbb760b91b60648201526084016109d5565b6001600160a01b038216611f8b5760405162461bcd60e51b8152602060048201526024808201527f4552433732313a207472616e7366657220746f20746865207a65726f206164646044820152637265737360e01b60648201526084016109d5565b611f968383836125b5565b611fa1600082611bbf565b6001600160a01b0383166000908152600460205260408120805460019290611fca908490613970565b90915550506001600160a01b0382166000908152600460205260408120805460019290611ff8908490613925565b909155505060008181526003602052604080822080546001600160a01b0319166001600160a01b0386811691821790925591518493918716917fddf252ad1be2c89b69c2b068fc378daa952ba7f163c4a11628f55a4df523b3ef91a4505050565b610fb38161277e565b61206c8282611483565b6110ec57612084816001600160a01b031660146127be565b61208f8360206127be565b6040516020016120a09291906136f0565b60408051601f198184030181529082905262461bcd60e51b82526109d5916004016137ce565b6120d08282611483565b6110ec576000828152600c602090815260408083206001600160a01b03851684529091529020805460ff191660011790556121083390565b6001600160a01b0316816001600160a01b0316837f2f8788117e7eff1d82e926ec794901d17c78024a50270940304540a733656f0d60405160405180910390a45050565b6121568282611483565b156110ec576000828152600c602090815260408083206001600160a01b0385168085529252808320805460ff1916905551339285917ff6391f5c32d9c69d2a47ea670b442974b53935d1edc7fd64eb21e047a839171b9190a45050565b600080546001600160a01b038381166001600160a01b0319831681178455604051919092169283917f8be0079c531659141344cd1fd0a4f28419497f9722a3daafe3b4186f6b6457e09190a35050565b61220e848484611eae565b61221a84848484612961565b61175e5760405162461bcd60e51b81526004016109d5906137e1565b606061224182611b2b565b6122a75760405162461bcd60e51b815260206004820152603160248201527f45524337323155524953746f726167653a2055524920717565727920666f72206044820152703737b732bc34b9ba32b73a103a37b5b2b760791b60648201526084016109d5565b600082815260076020526040812080546122c0906139ca565b80601f01602080910402602001604051908101604052809291908181526020018280546122ec906139ca565b80156123395780601f1061230e57610100808354040283529160200191612339565b820191906000526020600020905b81548152906001019060200180831161231c57829003601f168201915b50505050509050600061235760408051602081019091526000815290565b905080516000141561236a575092915050565b81511561239c5780826040516020016123849291906136c1565b60405160208183030381529060405292505050919050565b611ea684612a6e565b6001600160a01b0382166123fb5760405162461bcd60e51b815260206004820181905260248201527f4552433732313a206d696e7420746f20746865207a65726f206164647265737360448201526064016109d5565b61240481611b2b565b156124515760405162461bcd60e51b815260206004820152601c60248201527f4552433732313a20746f6b656e20616c7265616479206d696e7465640000000060448201526064016109d5565b61245d600083836125b5565b6001600160a01b0382166000908152600460205260408120805460019290612486908490613925565b909155505060008181526003602052604080822080546001600160a01b0319166001600160a01b03861690811790915590518392907fddf252ad1be2c89b69c2b068fc378daa952ba7f163c4a11628f55a4df523b3ef908290a45050565b60006001600160e01b0319821663780e9d6360e01b14806108d557506108d582612b45565b6000604051806080016040528060438152602001613af26043913980516020918201208351848301516040808701518051908601209051612569950193845260208401929092526001600160a01b03166040830152606082015260800190565b604051602081830303815290604052805190602001209050919050565b6000612590610e6d565b60405161190160f01b6020820152602281019190915260428101839052606201612569565b6125c0838383612b95565b6015546001600160a01b03166125d4611d1d565b6001600160a01b03161415801561261257506000818152601460205260409020546001600160a01b0316612606611d1d565b6001600160a01b031614155b15610b0b576000818152601460205260409020546001600160a01b03166003816001600160a01b031663c19d93fb6040518163ffffffff1660e01b815260040160206040518083038186803b15801561266a57600080fd5b505afa15801561267e573d6000803e3d6000fd5b505050506040513d601f19601f820116820180604052508101906126a29190613552565b60038111156126b3576126b3613a60565b148061274057506002816001600160a01b031663c19d93fb6040518163ffffffff1660e01b815260040160206040518083038186803b1580156126f557600080fd5b505afa158015612709573d6000803e3d6000fd5b505050506040513d601f19601f8201168201806040525081019061272d9190613552565b600381111561273e5761273e613a60565b145b61175e5760405162461bcd60e51b815260206004820152600f60248201526e496e636f727265637420737461746560881b60448201526064016109d5565b61278781612c4d565b600081815260076020526040902080546127a0906139ca565b159050610fb3576000818152600760205260408120610fb391613006565b606060006127cd836002613951565b6127d8906002613925565b67ffffffffffffffff8111156127f0576127f0613aa2565b6040519080825280601f01601f19166020018201604052801561281a576020820181803683370190505b509050600360fc1b8160008151811061283557612835613a8c565b60200101906001600160f81b031916908160001a905350600f60fb1b8160018151811061286457612864613a8c565b60200101906001600160f81b031916908160001a9053506000612888846002613951565b612893906001613925565b90505b600181111561290b576f181899199a1a9b1b9c1cb0b131b232b360811b85600f16601081106128c7576128c7613a8c565b1a60f81b8282815181106128dd576128dd613a8c565b60200101906001600160f81b031916908160001a90535060049490941c93612904816139b3565b9050612896565b50831561295a5760405162461bcd60e51b815260206004820181905260248201527f537472696e67733a20686578206c656e67746820696e73756666696369656e7460448201526064016109d5565b9392505050565b60006001600160a01b0384163b15612a6357604051630a85bd0160e11b81526001600160a01b0385169063150b7a02906129a5903390899088908890600401613791565b602060405180830381600087803b1580156129bf57600080fd5b505af19250505080156129ef575060408051601f3d908101601f191682019092526129ec918101906134a1565b60015b612a49573d808015612a1d576040519150601f19603f3d011682016040523d82523d6000602084013e612a22565b606091505b508051612a415760405162461bcd60e51b81526004016109d5906137e1565b805181602001fd5b6001600160e01b031916630a85bd0160e11b149050611ea6565b506001949350505050565b6060612a7982611b2b565b612add5760405162461bcd60e51b815260206004820152602f60248201527f4552433732314d657461646174613a2055524920717565727920666f72206e6f60448201526e3732bc34b9ba32b73a103a37b5b2b760891b60648201526084016109d5565b6000612af460408051602081019091526000815290565b90506000815111612b14576040518060200160405280600081525061295a565b80612b1e84612cf4565b604051602001612b2f9291906136c1565b6040516020818303038152906040529392505050565b60006001600160e01b031982166380ac58cd60e01b1480612b7657506001600160e01b03198216635b5e139f60e01b145b806108d557506301ffc9a760e01b6001600160e01b03198316146108d5565b6001600160a01b038316612bf057612beb81600a80546000838152600b60205260408120829055600182018355919091527fc65a7bb8d6351c1cf70c95a316cc6a92839c986682d98bc35f958f4883f9d2a80155565b612c13565b816001600160a01b0316836001600160a01b031614612c1357612c138382612df2565b6001600160a01b038216612c2a57610b0b81612e8f565b826001600160a01b0316826001600160a01b031614610b0b57610b0b8282612f3e565b6000612c5882611b48565b9050612c66816000846125b5565b612c71600083611bbf565b6001600160a01b0381166000908152600460205260408120805460019290612c9a908490613970565b909155505060008281526003602052604080822080546001600160a01b0319169055518391906001600160a01b038416907fddf252ad1be2c89b69c2b068fc378daa952ba7f163c4a11628f55a4df523b3ef908390a45050565b606081612d185750506040805180820190915260018152600360fc1b602082015290565b8160005b8115612d425780612d2c81613a05565b9150612d3b9050600a8361393d565b9150612d1c565b60008167ffffffffffffffff811115612d5d57612d5d613aa2565b6040519080825280601f01601f191660200182016040528015612d87576020820181803683370190505b5090505b8415611ea657612d9c600183613970565b9150612da9600a86613a20565b612db4906030613925565b60f81b818381518110612dc957612dc9613a8c565b60200101906001600160f81b031916908160001a905350612deb600a8661393d565b9450612d8b565b60006001612dff84611396565b612e099190613970565b600083815260096020526040902054909150808214612e5c576001600160a01b03841660009081526008602090815260408083208584528252808320548484528184208190558352600990915290208190555b5060009182526009602090815260408084208490556001600160a01b039094168352600881528383209183525290812055565b600a54600090612ea190600190613970565b6000838152600b6020526040812054600a8054939450909284908110612ec957612ec9613a8c565b9060005260206000200154905080600a8381548110612eea57612eea613a8c565b6000918252602080832090910192909255828152600b9091526040808220849055858252812055600a805480612f2257612f22613a76565b6001900381819060005260206000200160009055905550505050565b6000612f4983611396565b6001600160a01b039093166000908152600860209081526040808320868452825280832085905593825260099052919091209190915550565b828054612f8e906139ca565b90600052602060002090601f016020900481019282612fb05760008555612ff6565b82601f10612fc957805160ff1916838001178555612ff6565b82800160010185558215612ff6579182015b82811115612ff6578251825591602001919060010190612fdb565b5061300292915061303c565b5090565b508054613012906139ca565b6000825580601f10613022575050565b601f016020900490600052602060002090810190610fb391905b5b80821115613002576000815560010161303d565b60008083601f84011261306357600080fd5b50813567ffffffffffffffff81111561307b57600080fd5b60208301915083602082850101111561309357600080fd5b9250929050565b600082601f8301126130ab57600080fd5b81356130be6130b9826138fd565b6138cc565b8181528460208386010111156130d357600080fd5b816020850160208301376000918101602001919091529392505050565b60006020828403121561310257600080fd5b813561295a81613ab8565b6000806040838503121561312057600080fd5b823561312b81613ab8565b9150602083013561313b81613ab8565b809150509250929050565b60008060006060848603121561315b57600080fd5b833561316681613ab8565b9250602084013561317681613ab8565b929592945050506040919091013590565b6000806000806080858703121561319d57600080fd5b84356131a881613ab8565b935060208501356131b881613ab8565b925060408501359150606085013567ffffffffffffffff8111156131db57600080fd5b6131e78782880161309a565b91505092959194509250565b6000806040838503121561320657600080fd5b823561321181613ab8565b9150602083013561313b81613acd565b60008060006040848603121561323657600080fd5b833561324181613ab8565b9250602084013567ffffffffffffffff81111561325d57600080fd5b61326986828701613051565b9497909650939450505050565b600080600080600060a0868803121561328e57600080fd5b853561329981613ab8565b9450602086013567ffffffffffffffff8111156132b557600080fd5b6132c18882890161309a565b9450506040860135925060608601359150608086013560ff811681146132e657600080fd5b809150509295509295909350565b6000806040838503121561330757600080fd5b823561331281613ab8565b946020939093013593505050565b6000806000806060858703121561333657600080fd5b843561334181613ab8565b935060208501359250604085013567ffffffffffffffff81111561336457600080fd5b61337087828801613051565b95989497509550505050565b6000602080838503121561338f57600080fd5b823567ffffffffffffffff808211156133a757600080fd5b818501915085601f8301126133bb57600080fd5b8135818111156133cd576133cd613aa2565b8060051b91506133de8483016138cc565b8181528481019084860184860187018a10156133f957600080fd5b600095505b8386101561341c5780358352600195909501949186019186016133fe565b5098975050505050505050565b60006020828403121561343b57600080fd5b815161295a81613acd565b60006020828403121561345857600080fd5b5035919050565b6000806040838503121561347257600080fd5b82359150602083013561313b81613ab8565b60006020828403121561349657600080fd5b813561295a81613adb565b6000602082840312156134b357600080fd5b815161295a81613adb565b6000602082840312156134d057600080fd5b815167ffffffffffffffff8111156134e757600080fd5b8201601f810184136134f857600080fd5b80516135066130b9826138fd565b81815285602083850101111561351b57600080fd5b61352c826020830160208601613987565b95945050505050565b60006020828403121561354757600080fd5b815161295a81613ab8565b60006020828403121561356457600080fd5b81516004811061295a57600080fd5b60008060006040848603121561358857600080fd5b83359250602084013567ffffffffffffffff81111561325d57600080fd5b600081518084526135be816020860160208601613987565b601f01601f19169290920160200192915050565b600082516135e4818460208701613987565b9190910192915050565b60008351613600818460208801613987565b60609390931b6bffffffffffffffffffffffff19169190920190815260140192915050565b600080835481600182811c91508083168061364157607f831692505b602080841082141561366157634e487b7160e01b86526022600452602486fd5b8180156136755760018114613686576136b3565b60ff198616895284890196506136b3565b60008a81526020902060005b868110156136ab5781548b820152908501908301613692565b505084890196505b509498975050505050505050565b600083516136d3818460208801613987565b8351908301906136e7818360208801613987565b01949350505050565b7f416363657373436f6e74726f6c3a206163636f756e7420000000000000000000815260008351613728816017850160208801613987565b7001034b99036b4b9b9b4b733903937b6329607d1b6017918401918201528351613759816028840160208801613987565b01602801949350505050565b6001600160a01b0384811682528316602082015260606040820181905260009061352c908301846135a6565b6001600160a01b03858116825284166020820152604081018390526080606082018190526000906137c4908301846135a6565b9695505050505050565b60208152600061295a60208301846135a6565b60208082526032908201527f4552433732313a207472616e7366657220746f206e6f6e20455243373231526560408201527131b2b4bb32b91034b6b83632b6b2b73a32b960711b606082015260800190565b60208082526028908201527f4368696c644d696e7461626c654552433732313a20494e56414c49445f544f4b60408201526722a72fa7aba722a960c11b606082015260800190565b60208082526031908201527f4552433732313a207472616e736665722063616c6c6572206973206e6f74206f6040820152701ddb995c881b9bdc88185c1c1c9bdd9959607a1b606082015260800190565b604051601f8201601f1916810167ffffffffffffffff811182821017156138f5576138f5613aa2565b604052919050565b600067ffffffffffffffff82111561391757613917613aa2565b50601f01601f191660200190565b6000821982111561393857613938613a34565b500190565b60008261394c5761394c613a4a565b500490565b600081600019048311821515161561396b5761396b613a34565b500290565b60008282101561398257613982613a34565b500390565b60005b838110156139a257818101518382015260200161398a565b8381111561175e5750506000910152565b6000816139c2576139c2613a34565b506000190190565b600181811c908216806139de57607f821691505b602082108114156139ff57634e487b7160e01b600052602260045260246000fd5b50919050565b6000600019821415613a1957613a19613a34565b5060010190565b600082613a2f57613a2f613a4a565b500690565b634e487b7160e01b600052601160045260246000fd5b634e487b7160e01b600052601260045260246000fd5b634e487b7160e01b600052602160045260246000fd5b634e487b7160e01b600052603160045260246000fd5b634e487b7160e01b600052603260045260246000fd5b634e487b7160e01b600052604160045260246000fd5b6001600160a01b0381168114610fb357600080fd5b8015158114610fb357600080fd5b6001600160e01b031981168114610fb357600080fdfe4d6574615472616e73616374696f6e2875696e74323536206e6f6e63652c616464726573732066726f6d2c62797465732066756e6374696f6e5369676e617475726529454950373132446f6d61696e28737472696e67206e616d652c737472696e672076657273696f6e2c6164647265737320766572696679696e67436f6e74726163742c627974657333322073616c7429a2646970667358221220c9005d14594e8e90761532482e993e4f70a9af4deb04464634836151ecb998cf64736f6c63430008070033454950373132446f6d61696e28737472696e67206e616d652c737472696e672076657273696f6e2c6164647265737320766572696679696e67436f6e74726163742c627974657333322073616c7429",
  "linkReferences": {},
  "deployedLinkReferences": {}
}