{
  "_format": "hh-sol-artifact-1",
  "contractName": "TestPreciseMathUtils",
  "sourceName": "contracts/test/TestPreciseMathUtils.sol",
  "abi": [
    {
      "constant": false,
      "inputs": [],
      "name": "test_percOf2",
      "outputs": [],
      "payable": false,
      "stateMutability": "nonpayable",
      "type": "function"
    },
    {
      "constant": false,
      "inputs": [],
      "name": "test_percOf1",
      "outputs": [],
      "payable": false,
      "stateMutability": "nonpayable",
      "type": "function"
    },
    {
      "constant": false,
      "inputs": [],
      "name": "test_validPerc",
      "outputs": [],
      "payable": false,
      "stateMutability": "nonpayable",
      "type": "function"
    },
    {
      "constant": false,
      "inputs": [],
      "name": "test_percPoints",
      "outputs": [],
      "payable": false,
      "stateMutability": "nonpayable",
      "type": "function"
    }
  ],
  "bytecode": "0x608060405234801561001057600080fd5b5061076b806100206000396000f3fe608060405234801561001057600080fd5b506004361061004c5760003560e01c80631e7c402b14610051578063a38591fc1461005b578063f740fbc914610063578063f8579af81461006b575b600080fd5b610059610073565b005b61005961012a565b6100596101c7565b6100596102ce565b6100a261008260646003610344565b600060405180606001604052806027815260200161066a6027913961037b565b506100dd6100bd6b033b2e3c9fd0803ce80000006001610344565b60016040518060600160405280602e815260200161061b602e913961037b565b506101276100f760646a52b7d2dcc80cd2e4000000610344565b600a6040518060400160405280601081526020016f0313025206f66203130302069732031360841b81525061037b565b50565b61017861013b606460036004610472565b604b6040518060400160405280601781526020017f332f34206f66203130302073686f756c6420626520373500000000000000000081525061037b565b5061012761018a606460076009610472565b604d6040518060400160405280601781526020017f372f39206f66203130302073686f756c6420626520373700000000000000000081525061037b565b6102116101d460326104a6565b60016040518060400160405280601f81526020017f35302073686f756c6420626520612076616c69642070657263656e74616765008152506104b8565b5061025c61021f60006104a6565b60016040518060400160405280601e81526020017f302073686f756c6420626520612076616c69642070657263656e7461676500008152506104b8565b506102956102756b033b2e3c9fd0803ce80000006104a6565b6001604051806060016040528060248152602001610713602491396104b8565b506101276102ae6b033b2e3c9fd0803ce80000016104a6565b60006040518060600160405280603281526020016106b7603291396104b8565b6103086102dd60036004610535565b6b026c62ad77dc602dae0000006040518060600160405280602681526020016106916026913961037b565b50610127610319606461012c610535565b6b0113ba14354580144d5555556040518060600160405280602a81526020016106e9602a913961037b565b60006103726b033b2e3c9fd0803ce8000000610366858563ffffffff61055716565b9063ffffffff6105b016565b90505b92915050565b600073__$e901dca744fb84f4a971fc691ff70ddea6$__63abcd79608585856040518463ffffffff1660e01b81526004018084815260200183815260200180602001828103825283818151815260200191508051906020019080838360005b838110156103f25781810151838201526020016103da565b50505050905090810190601f16801561041f5780820380516001836020036101000a031916815260200191505b5094505050505060206040518083038186803b15801561043e57600080fd5b505af4158015610452573d6000803e3d6000fd5b505050506040513d602081101561046857600080fd5b5051949350505050565b600061049e6b033b2e3c9fd0803ce80000006103666104918686610535565b879063ffffffff61055716565b949350505050565b6b033b2e3c9fd0803ce8000000101590565b60405163767392b360e01b815283151560048201908152831515602483015260606044830190815283516064840152835160009373__$c251312a8326b3dca0be11840a52f0a21e$__9363767392b393899389938993929160849091019060208501908083838d83156103f25781810151838201526020016103da565b600061037282610366856b033b2e3c9fd0803ce800000063ffffffff61055716565b60008261056657506000610375565b8282028284828161057357fe5b04146103725760405162461bcd60e51b81526004018080602001828103825260218152602001806106496021913960400191505060405180910390fd5b6000808211610606576040805162461bcd60e51b815260206004820152601a60248201527f536166654d6174683a206469766973696f6e206279207a65726f000000000000604482015290519081900360640190fd5b600082848161061157fe5b0494935050505056fe2e3030303030303030303030303030303030303030303030303125206f6620313030303030303030302069732031536166654d6174683a206d756c7469706c69636174696f6e206f766572666c6f772e3030303030303030303030303030303030303030303030303325206f66203130302069732030332f342073686f756c6420636f6e7665727420746f2076616c69642070657263656e7461676531206d6f7265207468616e20746865206d61782073686f756c64206e6f742062652076616c69642070657263656e746167653130302f3330302073686f756c6420636f6e7665727420746f2076616c69642070657263656e74616765746865206d61782073686f756c6420626520612076616c69642070657263656e74616765a265627a7a7231582032caf8738c0eae5bc0596bb5c083a66cce6a1a58a99065d782d60f2bc8c19bb164736f6c634300050b0032",
  "linkReferences": {
    "contracts/test/helpers/truffle/AssertBool.sol": {
      "AssertBool": [
        {
          "length": 20,
          "start": 1294
        }
      ]
    },
    "contracts/test/helpers/truffle/AssertUint.sol": {
      "AssertUint": [
        {
          "length": 20,
          "start": 927
        }
      ]
    }
  },
  "deployedLinkReferences": {
    "contracts/test/helpers/truffle/AssertBool.sol": {
      "AssertBool": [
        {
          "length": 20,
          "start": 1262
        }
      ]
    },
    "contracts/test/helpers/truffle/AssertUint.sol": {
      "AssertUint": [
        {
          "length": 20,
          "start": 895
        }
      ]
    }
  }
}