{
  "_format": "hh-sol-artifact-1",
  "contractName": "CompoundAdapterMock",
  "sourceName": "contracts/tests/CompoundAdapterMock.sol",
  "abi": [
    {
      "inputs": [],
      "name": "__CompoundAdapterMock_init",
      "outputs": [],
      "stateMutability": "nonpayable",
      "type": "function"
    },
    {
      "inputs": [
        {
          "internalType": "address",
          "name": "",
          "type": "address"
        }
      ],
      "name": "ceilingMap",
      "outputs": [
        {
          "internalType": "uint256",
          "name": "",
          "type": "uint256"
        }
      ],
      "stateMutability": "view",
      "type": "function"
    },
    {
      "inputs": [
        {
          "internalType": "address",
          "name": "tokenAddress",
          "type": "address"
        },
        {
          "internalType": "address",
          "name": "recipient",
          "type": "address"
        }
      ],
      "name": "claimTokens",
      "outputs": [],
      "stateMutability": "nonpayable",
      "type": "function"
    },
    {
      "inputs": [
        {
          "internalType": "address",
          "name": "",
          "type": "address"
        }
      ],
      "name": "deposit",
      "outputs": [],
      "stateMutability": "nonpayable",
      "type": "function"
    },
    {
      "inputs": [
        {
          "internalType": "address",
          "name": "",
          "type": "address"
        }
      ],
      "name": "floorMap",
      "outputs": [
        {
          "internalType": "uint256",
          "name": "",
          "type": "uint256"
        }
      ],
      "stateMutability": "view",
      "type": "function"
    },
    {
      "inputs": [
        {
          "internalType": "address",
          "name": "tokenAddress",
          "type": "address"
        }
      ],
      "name": "getSupply",
      "outputs": [
        {
          "internalType": "uint256",
          "name": "",
          "type": "uint256"
        }
      ],
      "stateMutability": "view",
      "type": "function"
    },
    {
      "inputs": [
        {
          "internalType": "address",
          "name": "tokenAddress",
          "type": "address"
        }
      ],
      "name": "getSupplyView",
      "outputs": [
        {
          "internalType": "uint256",
          "name": "",
          "type": "uint256"
        }
      ],
      "stateMutability": "view",
      "type": "function"
    },
    {
      "inputs": [],
      "name": "isSupport",
      "outputs": [
        {
          "internalType": "bool",
          "name": "",
          "type": "bool"
        }
      ],
      "stateMutability": "view",
      "type": "function"
    },
    {
      "inputs": [
        {
          "internalType": "address",
          "name": "tokenAddress",
          "type": "address"
        },
        {
          "internalType": "uint256",
          "name": "ceiling",
          "type": "uint256"
        }
      ],
      "name": "setCeiling",
      "outputs": [],
      "stateMutability": "nonpayable",
      "type": "function"
    },
    {
      "inputs": [
        {
          "internalType": "address",
          "name": "tokenAddress",
          "type": "address"
        },
        {
          "internalType": "uint256",
          "name": "floor",
          "type": "uint256"
        }
      ],
      "name": "setFloor",
      "outputs": [],
      "stateMutability": "nonpayable",
      "type": "function"
    },
    {
      "inputs": [],
      "name": "setSupport",
      "outputs": [],
      "stateMutability": "nonpayable",
      "type": "function"
    },
    {
      "inputs": [
        {
          "internalType": "address",
          "name": "",
          "type": "address"
        }
      ],
      "name": "supportsToken",
      "outputs": [
        {
          "internalType": "bool",
          "name": "",
          "type": "bool"
        }
      ],
      "stateMutability": "view",
      "type": "function"
    },
    {
      "inputs": [
        {
          "internalType": "address",
          "name": "tokenAddress",
          "type": "address"
        },
        {
          "internalType": "address",
          "name": "recipient",
          "type": "address"
        },
        {
          "internalType": "uint256",
          "name": "tokenAmount",
          "type": "uint256"
        }
      ],
      "name": "withdraw",
      "outputs": [],
      "stateMutability": "nonpayable",
      "type": "function"
    },
    {
      "inputs": [
        {
          "internalType": "address",
          "name": "tokenAddress",
          "type": "address"
        },
        {
          "internalType": "address",
          "name": "recipient",
          "type": "address"
        }
      ],
      "name": "withdrawAll",
      "outputs": [],
      "stateMutability": "nonpayable",
      "type": "function"
    }
  ],
  "bytecode": "0x608060405234801561001057600080fd5b50610719806100206000396000f3fe608060405234801561001057600080fd5b50600436106100ea5760003560e01c80636c00c7f01161008c578063c99c7d9311610066578063c99c7d931461020f578063d9caed1214610239578063ed8a1e541461013f578063f340fa011461024c57600080fd5b80636c00c7f0146101b2578063833eb461146101dc578063904d3261146101ef57600080fd5b80631fd433aa116100c85780631fd433aa1461013f578063207ede3b14610160578063363f68ce1461017f57806369ffa08a1461019f57600080fd5b8063061f7650146100ef57806309cae2c81461012257806312f46a5f14610137575b600080fd5b61010d6100fd3660046105fb565b5060005462010000900460ff1690565b60405190151581526020015b60405180910390f35b610135610130366004610615565b61025d565b005b610135610364565b61015261014d3660046105fb565b61041a565b604051908152602001610119565b6000805462ff0000198116620100009182900460ff1615909102179055005b61015261018d3660046105fb565b60026020526000908152604090205481565b6101356101ad366004610615565b61049d565b6101356101c0366004610682565b6001600160a01b03909116600090815260026020526040902055565b60005461010d9062010000900460ff1681565b6101526101fd3660046105fb565b60016020526000908152604090205481565b61013561021d366004610682565b6001600160a01b03909116600090815260016020526040902055565b610135610247366004610647565b6105a7565b61013561025a3660046105fb565b50565b6040516370a0823160e01b815230600482015282906001600160a01b0382169063a9059cbb90849083906370a082319060240160206040518083038186803b1580156102a857600080fd5b505afa1580156102bc573d6000803e3d6000fd5b505050506040513d601f19601f820116820180604052508101906102e091906106cb565b6040516001600160e01b031960e085901b1681526001600160a01b0390921660048301526024820152604401602060405180830381600087803b15801561032657600080fd5b505af115801561033a573d6000803e3d6000fd5b505050506040513d601f19601f8201168201806040525081019061035e91906106ab565b50505050565b600054610100900460ff168061037d575060005460ff16155b6103e45760405162461bcd60e51b815260206004820152602e60248201527f496e697469616c697a61626c653a20636f6e747261637420697320616c72656160448201526d191e481a5b9a5d1a585b1a5e995960921b606482015260840160405180910390fd5b600054610100900460ff16158015610406576000805461ffff19166101011790555b801561025a576000805461ff001916905550565b6040516370a0823160e01b815230600482015260009082906001600160a01b038216906370a082319060240160206040518083038186803b15801561045e57600080fd5b505afa158015610472573d6000803e3d6000fd5b505050506040513d601f19601f8201168201806040525081019061049691906106cb565b9392505050565b6040516370a0823160e01b815230600482015282906000906001600160a01b038316906370a082319060240160206040518083038186803b1580156104e157600080fd5b505afa1580156104f5573d6000803e3d6000fd5b505050506040513d601f19601f8201168201806040525081019061051991906106cb565b60405163a9059cbb60e01b81526001600160a01b038581166004830152602482018390529192509083169063a9059cbb906044015b602060405180830381600087803b15801561056857600080fd5b505af115801561057c573d6000803e3d6000fd5b505050506040513d601f19601f820116820180604052508101906105a091906106ab565b5050505050565b60405163a9059cbb60e01b81526001600160a01b0383811660048301526024820183905284919082169063a9059cbb9060440161054e565b80356001600160a01b03811681146105f657600080fd5b919050565b60006020828403121561060c578081fd5b610496826105df565b60008060408385031215610627578081fd5b610630836105df565b915061063e602084016105df565b90509250929050565b60008060006060848603121561065b578081fd5b610664846105df565b9250610672602085016105df565b9150604084013590509250925092565b60008060408385031215610694578182fd5b61069d836105df565b946020939093013593505050565b6000602082840312156106bc578081fd5b81518015158114610496578182fd5b6000602082840312156106dc578081fd5b505191905056fea26469706673582212200c6497bc27134d849529ed52cf95cced93ee617675aa22e6c593606294a6fba264736f6c63430008040033",
  "linkReferences": {},
  "deployedLinkReferences": {}
}