{"abi":[{"type":"constructor","inputs":[{"name":"_verification","type":"address","internalType":"address"}],"stateMutability":"nonpayable"},{"type":"function","name":"VERIFICATION","inputs":[],"outputs":[{"name":"","type":"address","internalType":"contract IVerification"}],"stateMutability":"view"},{"type":"function","name":"blackListDigest","inputs":[{"name":"_hash","type":"bytes32","internalType":"bytes32"}],"outputs":[],"stateMutability":"nonpayable"},{"type":"function","name":"initialize","inputs":[{"name":"_admin","type":"address","internalType":"address"},{"name":"_signerAddress","type":"address","internalType":"address"},{"name":"_signValidity","type":"uint256","internalType":"uint256"},{"name":"_name","type":"string","internalType":"string"},{"name":"_version","type":"string","internalType":"string"}],"outputs":[],"stateMutability":"nonpayable"},{"type":"function","name":"owner","inputs":[],"outputs":[{"name":"","type":"address","internalType":"address"}],"stateMutability":"view"},{"type":"function","name":"registerSelf","inputs":[{"name":"_isMasterLinked","type":"bool","internalType":"bool"},{"name":"_v","type":"uint8","internalType":"uint8"},{"name":"_r","type":"bytes32","internalType":"bytes32"},{"name":"_s","type":"bytes32","internalType":"bytes32"},{"name":"_userData","type":"string","internalType":"string"},{"name":"_timestamp","type":"uint256","internalType":"uint256"}],"outputs":[],"stateMutability":"nonpayable"},{"type":"function","name":"renounceOwnership","inputs":[],"outputs":[],"stateMutability":"nonpayable"},{"type":"function","name":"signValidity","inputs":[],"outputs":[{"name":"","type":"uint256","internalType":"uint256"}],"stateMutability":"view"},{"type":"function","name":"signerAddress","inputs":[],"outputs":[{"name":"","type":"address","internalType":"address"}],"stateMutability":"view"},{"type":"function","name":"transferOwnership","inputs":[{"name":"newOwner","type":"address","internalType":"address"}],"outputs":[],"stateMutability":"nonpayable"},{"type":"function","name":"unregisterSelf","inputs":[],"outputs":[],"stateMutability":"nonpayable"},{"type":"function","name":"unregisterUser","inputs":[{"name":"_user","type":"address","internalType":"address"}],"outputs":[],"stateMutability":"nonpayable"},{"type":"function","name":"updateSignValidity","inputs":[{"name":"_signValidity","type":"uint256","internalType":"uint256"}],"outputs":[],"stateMutability":"nonpayable"},{"type":"function","name":"updateSignerAddress","inputs":[{"name":"_signerAddress","type":"address","internalType":"address"}],"outputs":[],"stateMutability":"nonpayable"},{"type":"function","name":"userData","inputs":[{"name":"","type":"address","internalType":"address"}],"outputs":[{"name":"","type":"string","internalType":"string"}],"stateMutability":"view"},{"type":"event","name":"OwnershipTransferred","inputs":[{"name":"previousOwner","type":"address","indexed":true,"internalType":"address"},{"name":"newOwner","type":"address","indexed":true,"internalType":"address"}],"anonymous":false},{"type":"event","name":"SignValidityUpdated","inputs":[{"name":"signValidity","type":"uint256","indexed":false,"internalType":"uint256"}],"anonymous":false},{"type":"event","name":"SignerUpdated","inputs":[{"name":"signerAddress","type":"address","indexed":true,"internalType":"address"}],"anonymous":false},{"type":"event","name":"UserRegistered","inputs":[{"name":"user","type":"address","indexed":true,"internalType":"address"},{"name":"isMasterLinked","type":"bool","indexed":false,"internalType":"bool"},{"name":"metadata","type":"string","indexed":true,"internalType":"string"}],"anonymous":false},{"type":"event","name":"UserUnregistered","inputs":[{"name":"user","type":"address","indexed":true,"internalType":"address"}],"anonymous":false}],"bytecode":{"object":"0x60a060405234801561001057600080fd5b506040516127ee3803806127ee8339818101604052602081101561003357600080fd5b8101908080519060200190929190505050600073ffffffffffffffffffffffffffffffffffffffff168173ffffffffffffffffffffffffffffffffffffffff1614156100e7576040517f08c379a00000000000000000000000000000000000000000000000000000000081526004018080602001828103825260028152602001807f433100000000000000000000000000000000000000000000000000000000000081525060200191505060405180910390fd5b8073ffffffffffffffffffffffffffffffffffffffff1660808173ffffffffffffffffffffffffffffffffffffffff1660601b815250505060805160601c6126a861014660003980610a615280611132528061178b52506126a86000f3fe608060405234801561001057600080fd5b50600436106100ea5760003560e01c80637b7fc8d81161008c5780639ab8367e116100665780639ab8367e146102a1578063c5233b8b1461043d578063c89109131461052f578063f2fde38b146105ec576100ea565b80637b7fc8d81461020b5780638da5cb5b146102295780638fa2a9f01461025d576100ea565b80635b7633d0116100c85780635b7633d01461018f5780636bafaa59146101c3578063715018a6146101cd578063791ae748146101d7576100ea565b806301ae96a8146100ef57806321f2ca3b1461011d57806324ac78e414610161575b600080fd5b61011b6004803603602081101561010557600080fd5b8101908080359060200190929190505050610630565b005b61015f6004803603602081101561013357600080fd5b81019080803573ffffffffffffffffffffffffffffffffffffffff169060200190929190505050610748565b005b61018d6004803603602081101561017757600080fd5b8101908080359060200190929190505050610803565b005b6101976108be565b604051808273ffffffffffffffffffffffffffffffffffffffff16815260200191505060405180910390f35b6101cb6108e4565b005b6101d56108ef565b005b6101df610a5f565b604051808273ffffffffffffffffffffffffffffffffffffffff16815260200191505060405180910390f35b610213610a83565b6040518082815260200191505060405180910390f35b610231610a89565b604051808273ffffffffffffffffffffffffffffffffffffffff16815260200191505060405180910390f35b61029f6004803603602081101561027357600080fd5b81019080803573ffffffffffffffffffffffffffffffffffffffff169060200190929190505050610ab3565b005b61043b600480360360a08110156102b757600080fd5b81019080803573ffffffffffffffffffffffffffffffffffffffff169060200190929190803573ffffffffffffffffffffffffffffffffffffffff169060200190929190803590602001909291908035906020019064010000000081111561031e57600080fd5b82018360208201111561033057600080fd5b8035906020019184600183028401116401000000008311171561035257600080fd5b91908080601f016020809104026020016040519081016040528093929190818152602001838380828437600081840152601f19601f820116905080830192505050505050509192919290803590602001906401000000008111156103b557600080fd5b8201836020820111156103c757600080fd5b803590602001918460018302840111640100000000831117156103e957600080fd5b91908080601f016020809104026020016040519081016040528093929190818152602001838380828437600081840152601f19601f820116905080830192505050505050509192919290505050610b6e565b005b61052d600480360360c081101561045357600080fd5b81019080803515159060200190929190803560ff16906020019092919080359060200190929190803590602001909291908035906020019064010000000081111561049d57600080fd5b8201836020820111156104af57600080fd5b803590602001918460018302840111640100000000831117156104d157600080fd5b91908080601f016020809104026020016040519081016040528093929190818152602001838380828437600081840152601f19601f82011690508083019250505050505050919291929080359060200190929190505050610c9e565b005b6105716004803603602081101561054557600080fd5b81019080803573ffffffffffffffffffffffffffffffffffffffff16906020019092919050505061133d565b6040518080602001828103825283818151815260200191508051906020019080838360005b838110156105b1578082015181840152602081019050610596565b50505050905090810190601f1680156105de5780820380516001836020036101000a031916815260200191505b509250505060405180910390f35b61062e6004803603602081101561060257600080fd5b81019080803573ffffffffffffffffffffffffffffffffffffffff1690602001909291905050506113ed565b005b6106386115e2565b73ffffffffffffffffffffffffffffffffffffffff16610656610a89565b73ffffffffffffffffffffffffffffffffffffffff16146106df576040517f08c379a00000000000000000000000000000000000000000000000000000000081526004018080602001828103825260208152602001807f4f776e61626c653a2063616c6c6572206973206e6f7420746865206f776e657281525060200191505060405180910390fd5b73ffffffffffffffffffffffffffffffffffffffff609c600083815260200190815260200160002060006101000a81548173ffffffffffffffffffffffffffffffffffffffff021916908373ffffffffffffffffffffffffffffffffffffffff16021790555050565b6107506115e2565b73ffffffffffffffffffffffffffffffffffffffff1661076e610a89565b73ffffffffffffffffffffffffffffffffffffffff16146107f7576040517f08c379a00000000000000000000000000000000000000000000000000000000081526004018080602001828103825260208152602001807f4f776e61626c653a2063616c6c6572206973206e6f7420746865206f776e657281525060200191505060405180910390fd5b610800816115ea565b50565b61080b6115e2565b73ffffffffffffffffffffffffffffffffffffffff16610829610a89565b73ffffffffffffffffffffffffffffffffffffffff16146108b2576040517f08c379a00000000000000000000000000000000000000000000000000000000081526004018080602001828103825260208152602001807f4f776e61626c653a2063616c6c6572206973206e6f7420746865206f776e657281525060200191505060405180910390fd5b6108bb8161188f565b50565b609960009054906101000a900473ffffffffffffffffffffffffffffffffffffffff1681565b6108ed336115ea565b565b6108f76115e2565b73ffffffffffffffffffffffffffffffffffffffff16610915610a89565b73ffffffffffffffffffffffffffffffffffffffff161461099e576040517f08c379a00000000000000000000000000000000000000000000000000000000081526004018080602001828103825260208152602001807f4f776e61626c653a2063616c6c6572206973206e6f7420746865206f776e657281525060200191505060405180910390fd5b600073ffffffffffffffffffffffffffffffffffffffff16603360009054906101000a900473ffffffffffffffffffffffffffffffffffffffff1673ffffffffffffffffffffffffffffffffffffffff167f8be0079c531659141344cd1fd0a4f28419497f9722a3daafe3b4186f6b6457e060405160405180910390a36000603360006101000a81548173ffffffffffffffffffffffffffffffffffffffff021916908373ffffffffffffffffffffffffffffffffffffffff160217905550565b7f000000000000000000000000000000000000000000000000000000000000000081565b609a5481565b6000603360009054906101000a900473ffffffffffffffffffffffffffffffffffffffff16905090565b610abb6115e2565b73ffffffffffffffffffffffffffffffffffffffff16610ad9610a89565b73ffffffffffffffffffffffffffffffffffffffff1614610b62576040517f08c379a00000000000000000000000000000000000000000000000000000000081526004018080602001828103825260208152602001807f4f776e61626c653a2063616c6c6572206973206e6f7420746865206f776e657281525060200191505060405180910390fd5b610b6b816119bf565b50565b600060019054906101000a900460ff1680610b8d5750610b8c611bad565b5b80610ba3575060008054906101000a900460ff16155b610bf8576040517f08c379a000000000000000000000000000000000000000000000000000000000815260040180806020018281038252602e815260200180612623602e913960400191505060405180910390fd5b60008060019054906101000a900460ff161590508015610c48576001600060016101000a81548160ff02191690831515021790555060016000806101000a81548160ff0219169083151502179055505b610c50611bbe565b610c59866113ed565b610c62856119bf565b610c6b8461188f565b610c758383611ccc565b8015610c965760008060016101000a81548160ff0219169083151502179055505b505050505050565b6000609b60003373ffffffffffffffffffffffffffffffffffffffff1673ffffffffffffffffffffffffffffffffffffffff16815260200190815260200160002080546001816001161561010002031660029004905014610d67576040517f08c379a00000000000000000000000000000000000000000000000000000000081526004018080602001828103825260068152602001807f41563a525331000000000000000000000000000000000000000000000000000081525060200191505060405180910390fd5b609a5481014210610de0576040517f08c379a00000000000000000000000000000000000000000000000000000000081526004018080602001828103825260068152602001807f41563a525332000000000000000000000000000000000000000000000000000081525060200191505060405180910390fd5b600082511415610e58576040517f08c379a00000000000000000000000000000000000000000000000000000000081526004018080602001828103825260068152602001807f41563a525336000000000000000000000000000000000000000000000000000081525060200191505060405180910390fd5b60007f7f3ac4e67b646d7e93120b6cc1357fe8e4da978ee4beb304dd93b04847b7265f83805190602001203384604051602001808581526020018481526020018373ffffffffffffffffffffffffffffffffffffffff168152602001828152602001945050505050604051602081830303815290604052805190602001209050600073ffffffffffffffffffffffffffffffffffffffff16609c600083815260200190815260200160002060009054906101000a900473ffffffffffffffffffffffffffffffffffffffff1673ffffffffffffffffffffffffffffffffffffffff1614610fad576040517f08c379a00000000000000000000000000000000000000000000000000000000081526004018080602001828103825260068152602001807f41563a525333000000000000000000000000000000000000000000000000000081525060200191505060405180910390fd5b6000610fb882611dd6565b90506000610fc882898989611e3d565b9050600073ffffffffffffffffffffffffffffffffffffffff168173ffffffffffffffffffffffffffffffffffffffff16141561106d576040517f08c379a00000000000000000000000000000000000000000000000000000000081526004018080602001828103825260068152602001807f41563a525334000000000000000000000000000000000000000000000000000081525060200191505060405180910390fd5b609960009054906101000a900473ffffffffffffffffffffffffffffffffffffffff1673ffffffffffffffffffffffffffffffffffffffff168173ffffffffffffffffffffffffffffffffffffffff1614611130576040517f08c379a00000000000000000000000000000000000000000000000000000000081526004018080602001828103825260068152602001807f41563a525335000000000000000000000000000000000000000000000000000081525060200191505060405180910390fd5b7f000000000000000000000000000000000000000000000000000000000000000073ffffffffffffffffffffffffffffffffffffffff1663a94413a1338b6040518363ffffffff1660e01b8152600401808373ffffffffffffffffffffffffffffffffffffffff168152602001821515815260200192505050600060405180830381600087803b1580156111c357600080fd5b505af11580156111d7573d6000803e3d6000fd5b5050505084609b60003373ffffffffffffffffffffffffffffffffffffffff1673ffffffffffffffffffffffffffffffffffffffff168152602001908152602001600020908051906020019061122e9291906124e7565b5033609c600085815260200190815260200160002060006101000a81548173ffffffffffffffffffffffffffffffffffffffff021916908373ffffffffffffffffffffffffffffffffffffffff160217905550846040518082805190602001908083835b602083106112b55780518252602082019150602081019050602083039250611292565b6001836020036101000a03801982511681845116808217855250505050505090500191505060405180910390203373ffffffffffffffffffffffffffffffffffffffff167fd0cc6197d4f74413f62e2cef7b4b43536e1965d8f11dcbf4c376ec1e85d2b22e8b60405180821515815260200191505060405180910390a3505050505050505050565b609b6020528060005260406000206000915090508054600181600116156101000203166002900480601f0160208091040260200160405190810160405280929190818152602001828054600181600116156101000203166002900480156113e55780601f106113ba576101008083540402835291602001916113e5565b820191906000526020600020905b8154815290600101906020018083116113c857829003601f168201915b505050505081565b6113f56115e2565b73ffffffffffffffffffffffffffffffffffffffff16611413610a89565b73ffffffffffffffffffffffffffffffffffffffff161461149c576040517f08c379a00000000000000000000000000000000000000000000000000000000081526004018080602001828103825260208152602001807f4f776e61626c653a2063616c6c6572206973206e6f7420746865206f776e657281525060200191505060405180910390fd5b600073ffffffffffffffffffffffffffffffffffffffff168173ffffffffffffffffffffffffffffffffffffffff161415611522576040517f08c379a00000000000000000000000000000000000000000000000000000000081526004018080602001828103825260268152602001806125db6026913960400191505060405180910390fd5b8073ffffffffffffffffffffffffffffffffffffffff16603360009054906101000a900473ffffffffffffffffffffffffffffffffffffffff1673ffffffffffffffffffffffffffffffffffffffff167f8be0079c531659141344cd1fd0a4f28419497f9722a3daafe3b4186f6b6457e060405160405180910390a380603360006101000a81548173ffffffffffffffffffffffffffffffffffffffff021916908373ffffffffffffffffffffffffffffffffffffffff16021790555050565b600033905090565b6000609b60008373ffffffffffffffffffffffffffffffffffffffff1673ffffffffffffffffffffffffffffffffffffffff1681526020019081526020016000208054600181600116156101000203166002900480601f0160208091040260200160405190810160405280929190818152602001828054600181600116156101000203166002900480156116bf5780601f10611694576101008083540402835291602001916116bf565b820191906000526020600020905b8154815290600101906020018083116116a257829003601f168201915b5050505050905060008151141561173e576040517f08c379a00000000000000000000000000000000000000000000000000000000081526004018080602001828103825260078152602001807f41563a495555310000000000000000000000000000000000000000000000000081525060200191505060405180910390fd5b609b60008373ffffffffffffffffffffffffffffffffffffffff1673ffffffffffffffffffffffffffffffffffffffff16815260200190815260200160002060006117899190612575565b7f000000000000000000000000000000000000000000000000000000000000000073ffffffffffffffffffffffffffffffffffffffff1663b4d59d0e83306040518363ffffffff1660e01b8152600401808373ffffffffffffffffffffffffffffffffffffffff1681526020018273ffffffffffffffffffffffffffffffffffffffff16815260200192505050600060405180830381600087803b15801561183057600080fd5b505af1158015611844573d6000803e3d6000fd5b505050508173ffffffffffffffffffffffffffffffffffffffff167f69c4cef1aa574ae7852ac8b784ab60926951c604b70049150e4091759ea9807660405160405180910390a25050565b609a54811415611907576040517f08c379a00000000000000000000000000000000000000000000000000000000081526004018080602001828103825260088152602001807f41563a495553563100000000000000000000000000000000000000000000000081525060200191505060405180910390fd5b600081141561197e576040517f08c379a00000000000000000000000000000000000000000000000000000000081526004018080602001828103825260088152602001807f41563a495553563200000000000000000000000000000000000000000000000081525060200191505060405180910390fd5b80609a819055507f8fc02a08798c9dfd0b1b4c233ed232f962a7f2cc039ca1ce1ff28cb1e7fa2449816040518082815260200191505060405180910390a150565b609960009054906101000a900473ffffffffffffffffffffffffffffffffffffffff1673ffffffffffffffffffffffffffffffffffffffff168173ffffffffffffffffffffffffffffffffffffffff161415611a83576040517f08c379a00000000000000000000000000000000000000000000000000000000081526004018080602001828103825260088152602001807f41563a495553413100000000000000000000000000000000000000000000000081525060200191505060405180910390fd5b600073ffffffffffffffffffffffffffffffffffffffff168173ffffffffffffffffffffffffffffffffffffffff161415611b26576040517f08c379a00000000000000000000000000000000000000000000000000000000081526004018080602001828103825260088152602001807f41563a495553413200000000000000000000000000000000000000000000000081525060200191505060405180910390fd5b80609960006101000a81548173ffffffffffffffffffffffffffffffffffffffff021916908373ffffffffffffffffffffffffffffffffffffffff1602179055508073ffffffffffffffffffffffffffffffffffffffff167f5553331329228fbd4123164423717a4a7539f6dfa1c3279a923b98fd681a6c7360405160405180910390a250565b6000611bb83061203c565b15905090565b600060019054906101000a900460ff1680611bdd5750611bdc611bad565b5b80611bf3575060008054906101000a900460ff16155b611c48576040517f08c379a000000000000000000000000000000000000000000000000000000000815260040180806020018281038252602e815260200180612623602e913960400191505060405180910390fd5b60008060019054906101000a900460ff161590508015611c98576001600060016101000a81548160ff02191690831515021790555060016000806101000a81548160ff0219169083151502179055505b611ca061204f565b611ca861214d565b8015611cc95760008060016101000a81548160ff0219169083151502179055505b50565b600060019054906101000a900460ff1680611ceb5750611cea611bad565b5b80611d01575060008054906101000a900460ff16155b611d56576040517f08c379a000000000000000000000000000000000000000000000000000000000815260040180806020018281038252602e815260200180612623602e913960400191505060405180910390fd5b60008060019054906101000a900460ff161590508015611da6576001600060016101000a81548160ff02191690831515021790555060016000806101000a81548160ff0219169083151502179055505b611db083836122f4565b8015611dd15760008060016101000a81548160ff0219169083151502179055505b505050565b6000611de061241c565b8260405160200180807f190100000000000000000000000000000000000000000000000000000000000081525060020183815260200182815260200192505050604051602081830303815290604052805190602001209050919050565b60007f7fffffffffffffffffffffffffffffff5d576e7357a4501ddfe92f46681b20a08260001c1115611ebb576040517f08c379a00000000000000000000000000000000000000000000000000000000081526004018080602001828103825260228152602001806126016022913960400191505060405180910390fd5b601b8460ff161480611ed05750601c8460ff16145b611f25576040517f08c379a00000000000000000000000000000000000000000000000000000000081526004018080602001828103825260228152602001806126516022913960400191505060405180910390fd5b600060018686868660405160008152602001604052604051808581526020018460ff1681526020018381526020018281526020019450505050506020604051602081039080840390855afa158015611f81573d6000803e3d6000fd5b505050602060405103519050600073ffffffffffffffffffffffffffffffffffffffff168173ffffffffffffffffffffffffffffffffffffffff161415612030576040517f08c379a00000000000000000000000000000000000000000000000000000000081526004018080602001828103825260188152602001807f45434453413a20696e76616c6964207369676e6174757265000000000000000081525060200191505060405180910390fd5b80915050949350505050565b600080823b905060008111915050919050565b600060019054906101000a900460ff168061206e575061206d611bad565b5b80612084575060008054906101000a900460ff16155b6120d9576040517f08c379a000000000000000000000000000000000000000000000000000000000815260040180806020018281038252602e815260200180612623602e913960400191505060405180910390fd5b60008060019054906101000a900460ff161590508015612129576001600060016101000a81548160ff02191690831515021790555060016000806101000a81548160ff0219169083151502179055505b801561214a5760008060016101000a81548160ff0219169083151502179055505b50565b600060019054906101000a900460ff168061216c575061216b611bad565b5b80612182575060008054906101000a900460ff16155b6121d7576040517f08c379a000000000000000000000000000000000000000000000000000000000815260040180806020018281038252602e815260200180612623602e913960400191505060405180910390fd5b60008060019054906101000a900460ff161590508015612227576001600060016101000a81548160ff02191690831515021790555060016000806101000a81548160ff0219169083151502179055505b60006122316115e2565b905080603360006101000a81548173ffffffffffffffffffffffffffffffffffffffff021916908373ffffffffffffffffffffffffffffffffffffffff1602179055508073ffffffffffffffffffffffffffffffffffffffff16600073ffffffffffffffffffffffffffffffffffffffff167f8be0079c531659141344cd1fd0a4f28419497f9722a3daafe3b4186f6b6457e060405160405180910390a35080156122f15760008060016101000a81548160ff0219169083151502179055505b50565b600060019054906101000a900460ff16806123135750612312611bad565b5b80612329575060008054906101000a900460ff16155b61237e576040517f08c379a000000000000000000000000000000000000000000000000000000000815260040180806020018281038252602e815260200180612623602e913960400191505060405180910390fd5b60008060019054906101000a900460ff1615905080156123ce576001600060016101000a81548160ff02191690831515021790555060016000806101000a81548160ff0219169083151502179055505b6000838051906020012090506000838051906020012090508160658190555080606681905550505080156124175760008060016101000a81548160ff0219169083151502179055505b505050565b60006124577f8b73c3c69bb8fe3d512ecc4cf759cc79239f7b179b0ffacaa9a75d522b39400f61244a61245c565b612452612466565b612470565b905090565b6000606554905090565b6000606654905090565b600083838361247d6124df565b30604051602001808681526020018581526020018481526020018381526020018273ffffffffffffffffffffffffffffffffffffffff168152602001955050505050506040516020818303038152906040528051906020012090509392505050565b600046905090565b828054600181600116156101000203166002900490600052602060002090601f01602090048101928261251d5760008555612564565b82601f1061253657805160ff1916838001178555612564565b82800160010185558215612564579182015b82811115612563578251825591602001919060010190612548565b5b50905061257191906125bd565b5090565b50805460018160011615610100020316600290046000825580601f1061259b57506125ba565b601f0160209004906000526020600020908101906125b991906125bd565b5b50565b5b808211156125d65760008160009055506001016125be565b509056fe4f776e61626c653a206e6577206f776e657220697320746865207a65726f206164647265737345434453413a20696e76616c6964207369676e6174757265202773272076616c7565496e697469616c697a61626c653a20636f6e747261637420697320616c726561647920696e697469616c697a656445434453413a20696e76616c6964207369676e6174757265202776272076616c7565a26469706673582212202cb595ae1d31ad822bb6f57131636f902f948b7ec798323b66fe08916b9fb62964736f6c63430007060033","linkReferences":{}},"methodIdentifiers":{"VERIFICATION()":"791ae748","blackListDigest(bytes32)":"01ae96a8","initialize(address,address,uint256,string,string)":"9ab8367e","owner()":"8da5cb5b","registerSelf(bool,uint8,bytes32,bytes32,string,uint256)":"c5233b8b","renounceOwnership()":"715018a6","signValidity()":"7b7fc8d8","signerAddress()":"5b7633d0","transferOwnership(address)":"f2fde38b","unregisterSelf()":"6bafaa59","unregisterUser(address)":"21f2ca3b","updateSignValidity(uint256)":"24ac78e4","updateSignerAddress(address)":"8fa2a9f0","userData(address)":"c8910913"},"id":18}