{"abi":[{"type":"function","name":"PAUSER_ROLE","inputs":[],"outputs":[{"name":"","type":"bytes32","internalType":"bytes32"}],"stateMutability":"view"},{"type":"function","name":"UNPAUSER_ROLE","inputs":[],"outputs":[{"name":"","type":"bytes32","internalType":"bytes32"}],"stateMutability":"view"},{"type":"function","name":"__GlobalAccessControlManaged_init","inputs":[{"name":"_globalAccessControl","type":"address","internalType":"address"}],"outputs":[],"stateMutability":"nonpayable"},{"type":"function","name":"gac","inputs":[],"outputs":[{"name":"","type":"address","internalType":"contract IGac"}],"stateMutability":"view"},{"type":"function","name":"pause","inputs":[],"outputs":[],"stateMutability":"nonpayable"},{"type":"function","name":"paused","inputs":[],"outputs":[{"name":"","type":"bool","internalType":"bool"}],"stateMutability":"view"},{"type":"function","name":"unpause","inputs":[],"outputs":[],"stateMutability":"nonpayable"},{"type":"event","name":"Paused","inputs":[{"name":"account","type":"address","indexed":false,"internalType":"address"}],"anonymous":false},{"type":"event","name":"Unpaused","inputs":[{"name":"account","type":"address","indexed":false,"internalType":"address"}],"anonymous":false}],"bytecode":{"object":"0x608060405234801561001057600080fd5b50610976806100206000396000f3fe608060405234801561001057600080fd5b506004361061007d5760003560e01c80638456cb591161005b5780638456cb59146100c6578063e63ab1e9146100d0578063f4e79fc3146100ee578063fb1bb9de1461010c5761007d565b80633f4ba83a146100825780635c975abb1461008c5780637a3dbd6a146100aa575b600080fd5b61008a61012a565b005b6100946101fb565b6040516100a191906105c0565b60405180910390f35b6100c460048036038101906100bf919061063e565b610212565b005b6100ce6102ad565b005b6100d861037e565b6040516100e59190610684565b60405180910390f35b6100f66103a2565b60405161010391906106fe565b60405180910390f35b6101146103c8565b6040516101219190610684565b60405180910390f35b606560009054906101000a900473ffffffffffffffffffffffffffffffffffffffff1673ffffffffffffffffffffffffffffffffffffffff166391d148547f427da25fe773164f88948d3e215c94b6554e2ed5e5f203a821c9f2f6131cf75a336040518363ffffffff1660e01b81526004016101a7929190610728565b602060405180830381865afa1580156101c4573d6000803e3d6000fd5b505050506040513d601f19601f820116820180604052508101906101e8919061077d565b6101f157600080fd5b6101f96103ec565b565b6000603360009054906101000a900460ff16905090565b600060019054906101000a900460ff16610261576040517f08c379a00000000000000000000000000000000000000000000000000000000081526004016102589061082d565b60405180910390fd5b61026961048e565b80606560006101000a81548173ffffffffffffffffffffffffffffffffffffffff021916908373ffffffffffffffffffffffffffffffffffffffff16021790555050565b606560009054906101000a900473ffffffffffffffffffffffffffffffffffffffff1673ffffffffffffffffffffffffffffffffffffffff166391d148547f65d7a28e3265b37a6474929f336521b332c1681b933f6cb9f3376673440d862a336040518363ffffffff1660e01b815260040161032a929190610728565b602060405180830381865afa158015610347573d6000803e3d6000fd5b505050506040513d601f19601f8201168201806040525081019061036b919061077d565b61037457600080fd5b61037c6104fa565b565b7f65d7a28e3265b37a6474929f336521b332c1681b933f6cb9f3376673440d862a81565b606560009054906101000a900473ffffffffffffffffffffffffffffffffffffffff1681565b7f427da25fe773164f88948d3e215c94b6554e2ed5e5f203a821c9f2f6131cf75a81565b6103f46101fb565b610433576040517f08c379a000000000000000000000000000000000000000000000000000000000815260040161042a90610899565b60405180910390fd5b6000603360006101000a81548160ff0219169083151502179055507f5db9ee0a495bf2e6ff9c91a7834c1ba4fdd244a5e8aa4e537bd38aeae4b073aa61047761059d565b60405161048491906108b9565b60405180910390a1565b600060019054906101000a900460ff166104dd576040517f08c379a00000000000000000000000000000000000000000000000000000000081526004016104d49061082d565b60405180910390fd5b6000603360006101000a81548160ff021916908315150217905550565b6105026101fb565b15610542576040517f08c379a000000000000000000000000000000000000000000000000000000000815260040161053990610920565b60405180910390fd5b6001603360006101000a81548160ff0219169083151502179055507f62e78cea01bee320cd4e420270b5ea74000d11b0c9f74754ebdbfc544b05a25861058661059d565b60405161059391906108b9565b60405180910390a1565b600033905090565b60008115159050919050565b6105ba816105a5565b82525050565b60006020820190506105d560008301846105b1565b92915050565b600080fd5b600073ffffffffffffffffffffffffffffffffffffffff82169050919050565b600061060b826105e0565b9050919050565b61061b81610600565b811461062657600080fd5b50565b60008135905061063881610612565b92915050565b600060208284031215610654576106536105db565b5b600061066284828501610629565b91505092915050565b6000819050919050565b61067e8161066b565b82525050565b60006020820190506106996000830184610675565b92915050565b6000819050919050565b60006106c46106bf6106ba846105e0565b61069f565b6105e0565b9050919050565b60006106d6826106a9565b9050919050565b60006106e8826106cb565b9050919050565b6106f8816106dd565b82525050565b600060208201905061071360008301846106ef565b92915050565b61072281610600565b82525050565b600060408201905061073d6000830185610675565b61074a6020830184610719565b9392505050565b61075a816105a5565b811461076557600080fd5b50565b60008151905061077781610751565b92915050565b600060208284031215610793576107926105db565b5b60006107a184828501610768565b91505092915050565b600082825260208201905092915050565b7f496e697469616c697a61626c653a20636f6e7472616374206973206e6f74206960008201527f6e697469616c697a696e67000000000000000000000000000000000000000000602082015250565b6000610817602b836107aa565b9150610822826107bb565b604082019050919050565b600060208201905081810360008301526108468161080a565b9050919050565b7f5061757361626c653a206e6f7420706175736564000000000000000000000000600082015250565b60006108836014836107aa565b915061088e8261084d565b602082019050919050565b600060208201905081810360008301526108b281610876565b9050919050565b60006020820190506108ce6000830184610719565b92915050565b7f5061757361626c653a2070617573656400000000000000000000000000000000600082015250565b600061090a6010836107aa565b9150610915826108d4565b602082019050919050565b60006020820190508181036000830152610939816108fd565b905091905056fea26469706673582212202c68525c2f87d755b00d94b9a761971da8e9d592475fc93bbad1683a62a684df64736f6c634300080c0033","linkReferences":{}},"methodIdentifiers":{"PAUSER_ROLE()":"e63ab1e9","UNPAUSER_ROLE()":"fb1bb9de","__GlobalAccessControlManaged_init(address)":"7a3dbd6a","gac()":"f4e79fc3","pause()":"8456cb59","paused()":"5c975abb","unpause()":"3f4ba83a"},"id":43}