{
  "_format": "hh-sol-artifact-1",
  "contractName": "CalculationsSushiswap",
  "sourceName": "contracts/Helper/CalculationsSushiswap.sol",
  "abi": [
    {
      "inputs": [
        {
          "internalType": "address",
          "name": "_primaryRouterAddress",
          "type": "address"
        },
        {
          "internalType": "address",
          "name": "_primaryFactoryAddress",
          "type": "address"
        },
        {
          "internalType": "address",
          "name": "_secondaryRouterAddress",
          "type": "address"
        },
        {
          "internalType": "address",
          "name": "_secondaryFactoryAddress",
          "type": "address"
        },
        {
          "internalType": "address",
          "name": "_usdcAddress",
          "type": "address"
        }
      ],
      "stateMutability": "nonpayable",
      "type": "constructor"
    },
    {
      "inputs": [
        {
          "internalType": "address",
          "name": "tokenAddress",
          "type": "address"
        }
      ],
      "name": "getLpTokenPriceUsdc",
      "outputs": [
        {
          "internalType": "uint256",
          "name": "",
          "type": "uint256"
        }
      ],
      "stateMutability": "view",
      "type": "function"
    },
    {
      "inputs": [
        {
          "internalType": "address",
          "name": "tokenAddress",
          "type": "address"
        }
      ],
      "name": "getLpTokenTotalLiquidityUsdc",
      "outputs": [
        {
          "internalType": "uint256",
          "name": "",
          "type": "uint256"
        }
      ],
      "stateMutability": "view",
      "type": "function"
    },
    {
      "inputs": [
        {
          "internalType": "address",
          "name": "tokenAddress",
          "type": "address"
        },
        {
          "internalType": "uint256",
          "name": "amount",
          "type": "uint256"
        }
      ],
      "name": "getNormalizedValueUsdc",
      "outputs": [
        {
          "internalType": "uint256",
          "name": "",
          "type": "uint256"
        }
      ],
      "stateMutability": "view",
      "type": "function"
    },
    {
      "inputs": [
        {
          "internalType": "address",
          "name": "token0Address",
          "type": "address"
        },
        {
          "internalType": "address",
          "name": "token1Address",
          "type": "address"
        }
      ],
      "name": "getPriceFromRouter",
      "outputs": [
        {
          "internalType": "uint256",
          "name": "",
          "type": "uint256"
        }
      ],
      "stateMutability": "view",
      "type": "function"
    },
    {
      "inputs": [
        {
          "internalType": "address",
          "name": "tokenAddress",
          "type": "address"
        }
      ],
      "name": "getPriceFromRouterUsdc",
      "outputs": [
        {
          "internalType": "uint256",
          "name": "",
          "type": "uint256"
        }
      ],
      "stateMutability": "view",
      "type": "function"
    },
    {
      "inputs": [
        {
          "internalType": "address",
          "name": "tokenAddress",
          "type": "address"
        }
      ],
      "name": "getPriceUsdc",
      "outputs": [
        {
          "internalType": "uint256",
          "name": "",
          "type": "uint256"
        }
      ],
      "stateMutability": "view",
      "type": "function"
    },
    {
      "inputs": [
        {
          "internalType": "address",
          "name": "tokenAddress",
          "type": "address"
        }
      ],
      "name": "getRouterForLpToken",
      "outputs": [
        {
          "internalType": "contract PriceRouter",
          "name": "",
          "type": "address"
        }
      ],
      "stateMutability": "view",
      "type": "function"
    },
    {
      "inputs": [
        {
          "internalType": "address",
          "name": "tokenAddress",
          "type": "address"
        }
      ],
      "name": "isLpToken",
      "outputs": [
        {
          "internalType": "bool",
          "name": "",
          "type": "bool"
        }
      ],
      "stateMutability": "view",
      "type": "function"
    },
    {
      "inputs": [],
      "name": "primaryFactoryAddress",
      "outputs": [
        {
          "internalType": "address",
          "name": "",
          "type": "address"
        }
      ],
      "stateMutability": "view",
      "type": "function"
    },
    {
      "inputs": [],
      "name": "primaryRouterAddress",
      "outputs": [
        {
          "internalType": "address",
          "name": "",
          "type": "address"
        }
      ],
      "stateMutability": "view",
      "type": "function"
    },
    {
      "inputs": [],
      "name": "secondaryFactoryAddress",
      "outputs": [
        {
          "internalType": "address",
          "name": "",
          "type": "address"
        }
      ],
      "stateMutability": "view",
      "type": "function"
    },
    {
      "inputs": [],
      "name": "secondaryRouterAddress",
      "outputs": [
        {
          "internalType": "address",
          "name": "",
          "type": "address"
        }
      ],
      "stateMutability": "view",
      "type": "function"
    },
    {
      "inputs": [],
      "name": "usdcAddress",
      "outputs": [
        {
          "internalType": "address",
          "name": "",
          "type": "address"
        }
      ],
      "stateMutability": "view",
      "type": "function"
    },
    {
      "inputs": [],
      "name": "wethAddress",
      "outputs": [
        {
          "internalType": "address",
          "name": "",
          "type": "address"
        }
      ],
      "stateMutability": "view",
      "type": "function"
    }
  ],
  "bytecode": "0x6080604052600880546001600160a01b031990811673eeeeeeeeeeeeeeeeeeeeeeeeeeeeeeeeeeeeeeee1790915560098054909116905534801561004257600080fd5b50604051611195380380611195833981810160405260a081101561006557600080fd5b5080516020808301516040808501516060860151608090960151600080546001600160a01b038089166001600160a01b031992831617928390556001805482891690841617905560028054828716908416179081905560038054838d16908516179055600580548387169085161790556006805484169483169490941793849055600780549093169082161790915584516315ab88c960e31b81529451979895979396929491169263ad5c464892600480840193919291829003018186803b15801561013057600080fd5b505afa158015610144573d6000803e3d6000fd5b505050506040513d602081101561015a57600080fd5b5051600480546001600160a01b039092166001600160a01b03199092169190911790555050505050611004806101916000396000f3fe608060405234801561001057600080fd5b50600436106100ea5760003560e01c80636c7394101161008c578063bc52f13111610066578063bc52f13114610225578063d61a78471461024b578063e6a68d0014610271578063eaa457d214610279576100ea565b80636c739410146101cb5780638a7f6680146101d3578063973aaefd146101ff576100ea565b806325d366f1116100c857806325d366f114610155578063369ee46b1461015d5780634f0e0ef31461019d578063583850c9146101a5576100ea565b806302d45457146100ef5780630f24ca7d1461011357806323373c7a1461014d575b600080fd5b6100f761029f565b604080516001600160a01b039092168252519081900360200190f35b6101396004803603602081101561012957600080fd5b50356001600160a01b03166102ae565b604080519115158252519081900360200190f35b6100f761032c565b6100f761033b565b61018b6004803603604081101561017357600080fd5b506001600160a01b038135811691602001351661034a565b60408051918252519081900360200190f35b6100f76109f3565b61018b600480360360208110156101bb57600080fd5b50356001600160a01b0316610a02565b6100f7610b0d565b61018b600480360360408110156101e957600080fd5b506001600160a01b038135169060200135610b1c565b61018b6004803603602081101561021557600080fd5b50356001600160a01b0316610bf7565b61018b6004803603602081101561023b57600080fd5b50356001600160a01b0316610eb0565b61018b6004803603602081101561026157600080fd5b50356001600160a01b0316610ed0565b6100f7610ef9565b6100f76004803603602081101561028f57600080fd5b50356001600160a01b0316610f08565b6005546001600160a01b031681565b600080829050806001600160a01b031663c45a01556040518163ffffffff1660e01b815260040160206040518083038186803b1580156102ed57600080fd5b505afa92505050801561031257506040513d602081101561030d57600080fd5b505160015b610320576000915050610327565b5060019150505b919050565b6003546001600160a01b031681565b6002546001600160a01b031681565b6008546000906001600160a01b0384811691161415610372576004546001600160a01b031692505b6008546001600160a01b0383811691161415610397576004546001600160a01b031691505b60045460609060009081906001600160a01b03878116911614806103c857506004546001600160a01b038681169116145b9050801561045557604080516002808252606082018352600194509091602083019080368337019050509250858360008151811061040257fe5b60200260200101906001600160a01b031690816001600160a01b031681525050848360018151811061043057fe5b60200260200101906001600160a01b031690816001600160a01b031681525050610502565b60408051600380825260808201909252600293509060208201606080368337019050509250858360008151811061048857fe5b6001600160a01b0392831660209182029290920101526004548451911690849060019081106104b357fe5b60200260200101906001600160a01b031690816001600160a01b03168152505084836002815181106104e157fe5b60200260200101906001600160a01b031690816001600160a01b0316815250505b60008690506000816001600160a01b031663313ce5676040518163ffffffff1660e01b815260040160206040518083038186803b15801561054257600080fd5b505afa158015610556573d6000803e3d6000fd5b505050506040513d602081101561056c57600080fd5b505160095460025460ff909216600a0a92506060916001600160a01b03908116911614801590610850576006546040805163d06ca61f60e01b815260048101868152602482019283528a5160448301528a516001600160a01b039094169363d06ca61f9388938d93926064909101906020808601910280838360005b838110156106005781810151838201526020016105e8565b50505050905001935050505060006040518083038186803b15801561062457600080fd5b505afa9250505080156106e657506040513d6000823e601f3d908101601f19168201604052602081101561065757600080fd5b810190808051604051939291908464010000000082111561067757600080fd5b90830190602082018581111561068c57600080fd5b82518660208202830111640100000000821117156106a957600080fd5b82525081516020918201928201910280838360005b838110156106d65781810151838201526020016106be565b5050505090500160405250505060015b610848576007546040805163d06ca61f60e01b815260048101868152602482019283528a5160448301528a516001600160a01b039094169363d06ca61f9388938d93926064909101906020808601910280838360005b8381101561075457818101518382015260200161073c565b50505050905001935050505060006040518083038186803b15801561077857600080fd5b505afa15801561078c573d6000803e3d6000fd5b505050506040513d6000823e601f3d908101601f1916820160405260208110156107b557600080fd5b81019080805160405193929190846401000000008211156107d557600080fd5b9083019060208201858111156107ea57600080fd5b825186602082028301116401000000008211171561080757600080fd5b82525081516020918201928201910280838360005b8381101561083457818101518382015260200161081c565b50505050905001604052505050915061084b565b91505b6109aa565b6006546040805163d06ca61f60e01b815260048101868152602482019283528a5160448301528a516001600160a01b039094169363d06ca61f9388938d93926064909101906020808601910280838360005b838110156108ba5781810151838201526020016108a2565b50505050905001935050505060006040518083038186803b1580156108de57600080fd5b505afa1580156108f2573d6000803e3d6000fd5b505050506040513d6000823e601f3d908101601f19168201604052602081101561091b57600080fd5b810190808051604051939291908464010000000082111561093b57600080fd5b90830190602082018581111561095057600080fd5b825186602082028301116401000000008211171561096d57600080fd5b82525081516020918201928201910280838360005b8381101561099a578181015183820152602001610982565b5050505090500160405250505091505b6000826001845103815181106109bc57fe5b602002602001015190506000601e90508760ff168102612710038261271002816109e257fe5b049c9b505050505050505050505050565b6004546001600160a01b031681565b60008181610a0f82610bf7565b90506000826001600160a01b03166318160ddd6040518163ffffffff1660e01b815260040160206040518083038186803b158015610a4c57600080fd5b505afa158015610a60573d6000803e3d6000fd5b505050506040513d6020811015610a7657600080fd5b50516040805163313ce56760e01b815290519192506000916001600160a01b0386169163313ce567916004808301926020929190829003018186803b158015610abe57600080fd5b505afa158015610ad2573d6000803e3d6000fd5b505050506040513d6020811015610ae857600080fd5b5051905060008260ff808416600a0a16850281610b0157fe5b04979650505050505050565b6000546001600160a01b031681565b6000808390506000816001600160a01b031663313ce5676040518163ffffffff1660e01b815260040160206040518083038186803b158015610b5d57600080fd5b505afa158015610b71573d6000803e3d6000fd5b505050506040513d6020811015610b8757600080fd5b505160ff16905060066000818310610ba25750808203610ba7565b508181035b6000610bb288610ed0565b905060008215610bd957848301600a0a83600a0a838a020281610bd157fe5b049050610beb565b83600a0a82890281610be757fe5b0490505b98975050505050505050565b6000808290506000816001600160a01b0316630dfe16816040518163ffffffff1660e01b815260040160206040518083038186803b158015610c3857600080fd5b505afa158015610c4c573d6000803e3d6000fd5b505050506040513d6020811015610c6257600080fd5b50516040805163d21220a760e01b815290519192506000916001600160a01b0385169163d21220a7916004808301926020929190829003018186803b158015610caa57600080fd5b505afa158015610cbe573d6000803e3d6000fd5b505050506040513d6020811015610cd457600080fd5b50516040805163313ce56760e01b81529051919250839183916000916001600160a01b0385169163313ce567916004808301926020929190829003018186803b158015610d2057600080fd5b505afa158015610d34573d6000803e3d6000fd5b505050506040513d6020811015610d4a57600080fd5b50516040805163313ce56760e01b815290519192506000916001600160a01b0385169163313ce567916004808301926020929190829003018186803b158015610d9257600080fd5b505afa158015610da6573d6000803e3d6000fd5b505050506040513d6020811015610dbc57600080fd5b505190506000610dcb87610ed0565b90506000610dd887610ed0565b90506000808a6001600160a01b0316630902f1ac6040518163ffffffff1660e01b815260040160606040518083038186803b158015610e1657600080fd5b505afa158015610e2a573d6000803e3d6000fd5b505050506040513d6060811015610e4057600080fd5b508051602090910151909250905060008360ff808816600a0a166001600160701b03841681610e6b57fe5b046001600160701b031602858860ff16600a0a60ff16856001600160701b031681610e9257fe5b046001600160701b031602019e9d5050505050505050505050505050565b600554600090610eca9083906001600160a01b031661034a565b92915050565b6000610edb826102ae565b15610ef057610ee982610a02565b9050610327565b610eca82610eb0565b6001546001600160a01b031681565b6000808290506000816001600160a01b031663c45a01556040518163ffffffff1660e01b815260040160206040518083038186803b158015610f4957600080fd5b505afa158015610f5d573d6000803e3d6000fd5b505050506040513d6020811015610f7357600080fd5b50516001549091506001600160a01b0380831691161415610fa35750506006546001600160a01b03169050610327565b6003546001600160a01b03828116911614156100ea5750506007546001600160a01b0316905061032756fea2646970667358221220d220a6ef4b4476f821447cb2be2356cb610d9c4e4c8a0c6352d3c1247c7a177364736f6c634300060c0033",
  "linkReferences": {},
  "deployedLinkReferences": {}
}