{
  "_format": "hh-sol-artifact-1",
  "contractName": "UTokenMock",
  "sourceName": "contracts/tests/UTokenMock.sol",
  "abi": [
    {
      "anonymous": false,
      "inputs": [
        {
          "indexed": true,
          "internalType": "address",
          "name": "owner",
          "type": "address"
        },
        {
          "indexed": true,
          "internalType": "address",
          "name": "spender",
          "type": "address"
        },
        {
          "indexed": false,
          "internalType": "uint256",
          "name": "value",
          "type": "uint256"
        }
      ],
      "name": "Approval",
      "type": "event"
    },
    {
      "anonymous": false,
      "inputs": [
        {
          "indexed": true,
          "internalType": "address",
          "name": "from",
          "type": "address"
        },
        {
          "indexed": true,
          "internalType": "address",
          "name": "to",
          "type": "address"
        },
        {
          "indexed": false,
          "internalType": "uint256",
          "name": "value",
          "type": "uint256"
        }
      ],
      "name": "Transfer",
      "type": "event"
    },
    {
      "inputs": [],
      "name": "IS_UTOKEN",
      "outputs": [
        {
          "internalType": "bool",
          "name": "",
          "type": "bool"
        }
      ],
      "stateMutability": "view",
      "type": "function"
    },
    {
      "inputs": [],
      "name": "PERMIT_TYPEHASH",
      "outputs": [
        {
          "internalType": "bytes32",
          "name": "",
          "type": "bytes32"
        }
      ],
      "stateMutability": "view",
      "type": "function"
    },
    {
      "inputs": [],
      "name": "WAD",
      "outputs": [
        {
          "internalType": "uint256",
          "name": "",
          "type": "uint256"
        }
      ],
      "stateMutability": "view",
      "type": "function"
    },
    {
      "inputs": [],
      "name": "__UToken_init",
      "outputs": [],
      "stateMutability": "nonpayable",
      "type": "function"
    },
    {
      "inputs": [],
      "name": "accrueInterest",
      "outputs": [
        {
          "internalType": "bool",
          "name": "",
          "type": "bool"
        }
      ],
      "stateMutability": "pure",
      "type": "function"
    },
    {
      "inputs": [
        {
          "internalType": "uint256",
          "name": "",
          "type": "uint256"
        }
      ],
      "name": "addReserves",
      "outputs": [],
      "stateMutability": "nonpayable",
      "type": "function"
    },
    {
      "inputs": [
        {
          "internalType": "address",
          "name": "owner",
          "type": "address"
        },
        {
          "internalType": "address",
          "name": "spender",
          "type": "address"
        }
      ],
      "name": "allowance",
      "outputs": [
        {
          "internalType": "uint256",
          "name": "",
          "type": "uint256"
        }
      ],
      "stateMutability": "view",
      "type": "function"
    },
    {
      "inputs": [
        {
          "internalType": "address",
          "name": "spender",
          "type": "address"
        },
        {
          "internalType": "uint256",
          "name": "amount",
          "type": "uint256"
        }
      ],
      "name": "approve",
      "outputs": [
        {
          "internalType": "bool",
          "name": "",
          "type": "bool"
        }
      ],
      "stateMutability": "nonpayable",
      "type": "function"
    },
    {
      "inputs": [
        {
          "internalType": "address",
          "name": "account",
          "type": "address"
        }
      ],
      "name": "balanceOf",
      "outputs": [
        {
          "internalType": "uint256",
          "name": "",
          "type": "uint256"
        }
      ],
      "stateMutability": "view",
      "type": "function"
    },
    {
      "inputs": [
        {
          "internalType": "address",
          "name": "owner",
          "type": "address"
        }
      ],
      "name": "balanceOfUnderlying",
      "outputs": [
        {
          "internalType": "uint256",
          "name": "",
          "type": "uint256"
        }
      ],
      "stateMutability": "view",
      "type": "function"
    },
    {
      "inputs": [
        {
          "internalType": "address[]",
          "name": "accounts",
          "type": "address[]"
        }
      ],
      "name": "batchUpdateOverdueInfos",
      "outputs": [],
      "stateMutability": "nonpayable",
      "type": "function"
    },
    {
      "inputs": [
        {
          "internalType": "address",
          "name": "",
          "type": "address"
        }
      ],
      "name": "borrowBalanceView",
      "outputs": [
        {
          "internalType": "uint256",
          "name": "",
          "type": "uint256"
        }
      ],
      "stateMutability": "pure",
      "type": "function"
    },
    {
      "inputs": [],
      "name": "borrowRatePerBlock",
      "outputs": [
        {
          "internalType": "uint256",
          "name": "",
          "type": "uint256"
        }
      ],
      "stateMutability": "view",
      "type": "function"
    },
    {
      "inputs": [
        {
          "internalType": "uint256",
          "name": "",
          "type": "uint256"
        }
      ],
      "name": "calculatingFee",
      "outputs": [
        {
          "internalType": "uint256",
          "name": "",
          "type": "uint256"
        }
      ],
      "stateMutability": "pure",
      "type": "function"
    },
    {
      "inputs": [
        {
          "internalType": "address",
          "name": "",
          "type": "address"
        }
      ],
      "name": "calculatingInterest",
      "outputs": [
        {
          "internalType": "uint256",
          "name": "",
          "type": "uint256"
        }
      ],
      "stateMutability": "pure",
      "type": "function"
    },
    {
      "inputs": [
        {
          "internalType": "address",
          "name": "",
          "type": "address"
        }
      ],
      "name": "checkIsOverdue",
      "outputs": [
        {
          "internalType": "bool",
          "name": "",
          "type": "bool"
        }
      ],
      "stateMutability": "view",
      "type": "function"
    },
    {
      "inputs": [
        {
          "internalType": "address",
          "name": "",
          "type": "address"
        },
        {
          "internalType": "uint256",
          "name": "",
          "type": "uint256"
        }
      ],
      "name": "debtWriteOff",
      "outputs": [],
      "stateMutability": "nonpayable",
      "type": "function"
    },
    {
      "inputs": [],
      "name": "decimals",
      "outputs": [
        {
          "internalType": "uint8",
          "name": "",
          "type": "uint8"
        }
      ],
      "stateMutability": "view",
      "type": "function"
    },
    {
      "inputs": [
        {
          "internalType": "address",
          "name": "spender",
          "type": "address"
        },
        {
          "internalType": "uint256",
          "name": "subtractedValue",
          "type": "uint256"
        }
      ],
      "name": "decreaseAllowance",
      "outputs": [
        {
          "internalType": "bool",
          "name": "",
          "type": "bool"
        }
      ],
      "stateMutability": "nonpayable",
      "type": "function"
    },
    {
      "inputs": [],
      "name": "exchangeRateCurrent",
      "outputs": [
        {
          "internalType": "uint256",
          "name": "",
          "type": "uint256"
        }
      ],
      "stateMutability": "view",
      "type": "function"
    },
    {
      "inputs": [],
      "name": "exchangeRateStored",
      "outputs": [
        {
          "internalType": "uint256",
          "name": "",
          "type": "uint256"
        }
      ],
      "stateMutability": "view",
      "type": "function"
    },
    {
      "inputs": [
        {
          "internalType": "address",
          "name": "",
          "type": "address"
        }
      ],
      "name": "getBorrowed",
      "outputs": [
        {
          "internalType": "uint256",
          "name": "",
          "type": "uint256"
        }
      ],
      "stateMutability": "view",
      "type": "function"
    },
    {
      "inputs": [
        {
          "internalType": "address",
          "name": "",
          "type": "address"
        }
      ],
      "name": "getInterestIndex",
      "outputs": [
        {
          "internalType": "uint256",
          "name": "interestIndex",
          "type": "uint256"
        }
      ],
      "stateMutability": "pure",
      "type": "function"
    },
    {
      "inputs": [
        {
          "internalType": "address",
          "name": "",
          "type": "address"
        }
      ],
      "name": "getLastRepay",
      "outputs": [
        {
          "internalType": "uint256",
          "name": "lastRepay",
          "type": "uint256"
        }
      ],
      "stateMutability": "pure",
      "type": "function"
    },
    {
      "inputs": [
        {
          "internalType": "address",
          "name": "",
          "type": "address"
        }
      ],
      "name": "getLoan",
      "outputs": [
        {
          "internalType": "uint256",
          "name": "principal",
          "type": "uint256"
        },
        {
          "internalType": "uint256",
          "name": "totalBorrowed",
          "type": "uint256"
        },
        {
          "internalType": "address",
          "name": "asset",
          "type": "address"
        },
        {
          "internalType": "uint256",
          "name": "apr",
          "type": "uint256"
        },
        {
          "internalType": "int256",
          "name": "limit",
          "type": "int256"
        },
        {
          "internalType": "bool",
          "name": "_isOverdue",
          "type": "bool"
        },
        {
          "internalType": "uint256",
          "name": "lastRepay",
          "type": "uint256"
        }
      ],
      "stateMutability": "view",
      "type": "function"
    },
    {
      "inputs": [],
      "name": "getRemainingLoanSize",
      "outputs": [
        {
          "internalType": "uint256",
          "name": "",
          "type": "uint256"
        }
      ],
      "stateMutability": "pure",
      "type": "function"
    },
    {
      "inputs": [
        {
          "internalType": "address",
          "name": "spender",
          "type": "address"
        },
        {
          "internalType": "uint256",
          "name": "addedValue",
          "type": "uint256"
        }
      ],
      "name": "increaseAllowance",
      "outputs": [
        {
          "internalType": "bool",
          "name": "",
          "type": "bool"
        }
      ],
      "stateMutability": "nonpayable",
      "type": "function"
    },
    {
      "inputs": [],
      "name": "isOverdue",
      "outputs": [
        {
          "internalType": "bool",
          "name": "",
          "type": "bool"
        }
      ],
      "stateMutability": "view",
      "type": "function"
    },
    {
      "inputs": [
        {
          "internalType": "uint256",
          "name": "mintAmount",
          "type": "uint256"
        }
      ],
      "name": "mint",
      "outputs": [],
      "stateMutability": "nonpayable",
      "type": "function"
    },
    {
      "inputs": [],
      "name": "name",
      "outputs": [
        {
          "internalType": "string",
          "name": "",
          "type": "string"
        }
      ],
      "stateMutability": "view",
      "type": "function"
    },
    {
      "inputs": [
        {
          "internalType": "address",
          "name": "",
          "type": "address"
        },
        {
          "internalType": "address",
          "name": "",
          "type": "address"
        },
        {
          "internalType": "uint256",
          "name": "",
          "type": "uint256"
        },
        {
          "internalType": "uint256",
          "name": "",
          "type": "uint256"
        },
        {
          "internalType": "uint8",
          "name": "",
          "type": "uint8"
        },
        {
          "internalType": "bytes32",
          "name": "",
          "type": "bytes32"
        },
        {
          "internalType": "bytes32",
          "name": "",
          "type": "bytes32"
        }
      ],
      "name": "permit",
      "outputs": [],
      "stateMutability": "nonpayable",
      "type": "function"
    },
    {
      "inputs": [
        {
          "internalType": "uint256",
          "name": "",
          "type": "uint256"
        }
      ],
      "name": "redeem",
      "outputs": [],
      "stateMutability": "nonpayable",
      "type": "function"
    },
    {
      "inputs": [
        {
          "internalType": "uint256",
          "name": "",
          "type": "uint256"
        }
      ],
      "name": "redeemUnderlying",
      "outputs": [],
      "stateMutability": "nonpayable",
      "type": "function"
    },
    {
      "inputs": [
        {
          "internalType": "address",
          "name": "",
          "type": "address"
        },
        {
          "internalType": "uint256",
          "name": "",
          "type": "uint256"
        }
      ],
      "name": "removeReserves",
      "outputs": [],
      "stateMutability": "nonpayable",
      "type": "function"
    },
    {
      "inputs": [
        {
          "internalType": "address",
          "name": "",
          "type": "address"
        },
        {
          "internalType": "uint256",
          "name": "",
          "type": "uint256"
        },
        {
          "internalType": "uint256",
          "name": "",
          "type": "uint256"
        },
        {
          "internalType": "uint256",
          "name": "",
          "type": "uint256"
        },
        {
          "internalType": "uint8",
          "name": "",
          "type": "uint8"
        },
        {
          "internalType": "bytes32",
          "name": "",
          "type": "bytes32"
        },
        {
          "internalType": "bytes32",
          "name": "",
          "type": "bytes32"
        }
      ],
      "name": "repayBorrowWithPermit",
      "outputs": [],
      "stateMutability": "nonpayable",
      "type": "function"
    },
    {
      "inputs": [
        {
          "internalType": "bool",
          "name": "_isOverdue",
          "type": "bool"
        }
      ],
      "name": "setIsOverdue",
      "outputs": [
        {
          "internalType": "bool",
          "name": "",
          "type": "bool"
        }
      ],
      "stateMutability": "nonpayable",
      "type": "function"
    },
    {
      "inputs": [],
      "name": "supplyRatePerBlock",
      "outputs": [
        {
          "internalType": "uint256",
          "name": "",
          "type": "uint256"
        }
      ],
      "stateMutability": "pure",
      "type": "function"
    },
    {
      "inputs": [],
      "name": "symbol",
      "outputs": [
        {
          "internalType": "string",
          "name": "",
          "type": "string"
        }
      ],
      "stateMutability": "view",
      "type": "function"
    },
    {
      "inputs": [],
      "name": "totalSupply",
      "outputs": [
        {
          "internalType": "uint256",
          "name": "",
          "type": "uint256"
        }
      ],
      "stateMutability": "view",
      "type": "function"
    },
    {
      "inputs": [
        {
          "internalType": "address",
          "name": "recipient",
          "type": "address"
        },
        {
          "internalType": "uint256",
          "name": "amount",
          "type": "uint256"
        }
      ],
      "name": "transfer",
      "outputs": [
        {
          "internalType": "bool",
          "name": "",
          "type": "bool"
        }
      ],
      "stateMutability": "nonpayable",
      "type": "function"
    },
    {
      "inputs": [
        {
          "internalType": "address",
          "name": "sender",
          "type": "address"
        },
        {
          "internalType": "address",
          "name": "recipient",
          "type": "address"
        },
        {
          "internalType": "uint256",
          "name": "amount",
          "type": "uint256"
        }
      ],
      "name": "transferFrom",
      "outputs": [
        {
          "internalType": "bool",
          "name": "",
          "type": "bool"
        }
      ],
      "stateMutability": "nonpayable",
      "type": "function"
    },
    {
      "inputs": [
        {
          "internalType": "address",
          "name": "userManager",
          "type": "address"
        },
        {
          "internalType": "address",
          "name": "account",
          "type": "address"
        },
        {
          "internalType": "uint256",
          "name": "amount",
          "type": "uint256"
        }
      ],
      "name": "updateLockedData",
      "outputs": [],
      "stateMutability": "nonpayable",
      "type": "function"
    },
    {
      "inputs": [
        {
          "internalType": "address",
          "name": "userManager",
          "type": "address"
        },
        {
          "internalType": "address",
          "name": "account",
          "type": "address"
        },
        {
          "internalType": "bool",
          "name": "_isOverdue",
          "type": "bool"
        }
      ],
      "name": "updateOverdueInfo",
      "outputs": [],
      "stateMutability": "nonpayable",
      "type": "function"
    }
  ],
  "bytecode": "0x608060405234801561001057600080fd5b5061127a806100206000396000f3fe608060405234801561001057600080fd5b50600436106102695760003560e01c806370a0823111610151578063a9059cbb116100c3578063d505accf11610087578063d505accf146104d6578063db006a7514610430578063dd62ed3e146104ed578063f7763b3a14610526578063f8f9da28146102c1578063fb3b43f01461030b57600080fd5b8063a9059cbb146104b5578063ae9d70b0146102c1578063b84dd683146104c8578063b8845f7514610401578063bd6d894d146102c157600080fd5b80638c2c351f116101155780638c2c351f1461030b57806395d89b41146104685780639b53307a14610470578063a0712d6814610488578063a457c2d71461049b578063a6afed95146104ae57600080fd5b806370a08231146103cb5780637821a514146104305780637afc965614610441578063852a12e31461043057806385c9e3f61461044957600080fd5b8063313ce567116101ea5780634c196bfb116101ae5780634c196bfb146102c15780635f4cbedb146104015780636011163e1461030b578063626cca9e146104135780636a146024146104215780636d2d1e581461030b57600080fd5b8063313ce5671461034657806333481fc91461035557806339509351146103b85780633af9e669146103cb5780633b957317146103f457600080fd5b80631e32aec3116102315780631e32aec3146102dd57806320bcc559146102f057806323b872dd146102f85780632592fb671461030b57806330adf81f1461031f57600080fd5b806306fdde031461026e578063095ea7b31461028c57806318160ddd146102af578063182df0f5146102c15780631940c53e146102c8575b600080fd5b610276610534565b6040516102839190611144565b60405180910390f35b61029f61029a366004611033565b6105c6565b6040519015158152602001610283565b6035545b604051908152602001610283565b60006102b3565b6102db6102d6366004610f4d565b6105dc565b005b6102db6102eb366004610f8f565b61063c565b61029f600181565b61029f610306366004610f8f565b610678565b6102b3610319366004610efa565b50600090565b6102b37f6e71edae12b1b97f4d1f60370fef10105fa2faae0126114a169c64845d6126c981565b60405160128152602001610283565b610375610363366004610efa565b50600090819081908190819081908190565b6040805197885260208801969096526001600160a01b03909416948601949094526060850191909152608084015290151560a083015260c082015260e001610283565b61029f6103c6366004611033565b610727565b6102b36103d9366004610efa565b6001600160a01b031660009081526033602052604090205490565b60655461029f9060ff1681565b6102db61040f366004611033565b5050565b6102b361031936600461112c565b6102b3670de0b6b3a764000081565b6102db61043e36600461112c565b50565b6102db610763565b61029f610457366004611112565b6065805460ff191682151517905590565b610276610814565b61029f61047e366004610efa565b5060655460ff1690565b6102db61049636600461112c565b610823565b61029f6104a9366004611033565b61082d565b600161029f565b61029f6104c3366004611033565b6108c6565b6102db61040f3660046110a2565b6102db6104e4366004610fca565b50505050505050565b6102b36104fb366004610f1b565b6001600160a01b03918216600090815260346020908152604080832093909416825291909152205490565b6102db6104e436600461105c565b60606036805461054390611209565b80601f016020809104026020016040519081016040528092919081815260200182805461056f90611209565b80156105bc5780601f10610591576101008083540402835291602001916105bc565b820191906000526020600020905b81548152906001019060200180831161059f57829003601f168201915b5050505050905090565b60006105d33384846108d3565b50600192915050565b60405163591d637d60e01b81526001600160a01b038381166004830152821515602483015284169063591d637d906044015b600060405180830381600087803b15801561062857600080fd5b505af11580156104e4573d6000803e3d6000fd5b60405163ab4ffaa960e01b81526001600160a01b038381166004830152602482018390526001604483015284169063ab4ffaa99060640161060e565b60006106858484846109f7565b6001600160a01b03841660009081526034602090815260408083203384529091529020548281101561070f5760405162461bcd60e51b815260206004820152602860248201527f45524332303a207472616e7366657220616d6f756e74206578636565647320616044820152676c6c6f77616e636560c01b60648201526084015b60405180910390fd5b61071c85338584036108d3565b506001949350505050565b3360008181526034602090815260408083206001600160a01b038716845290915281205490916105d391859061075e9086906111e5565b6108d3565b600054610100900460ff168061077c575060005460ff16155b6107985760405162461bcd60e51b815260040161070690611197565b600054610100900460ff161580156107ba576000805461ffff19166101011790555b610800604051806040016040528060068152602001653aaa37b5b2b760d11b815250604051806040016040528060068152602001653aaa37b5b2b760d11b815250610bc6565b801561043e576000805461ff001916905550565b60606037805461054390611209565b61043e3382610c46565b3360009081526034602090815260408083206001600160a01b0386168452909152812054828110156108af5760405162461bcd60e51b815260206004820152602560248201527f45524332303a2064656372656173656420616c6c6f77616e63652062656c6f77604482015264207a65726f60d81b6064820152608401610706565b6108bc33858584036108d3565b5060019392505050565b60006105d33384846109f7565b6001600160a01b0383166109355760405162461bcd60e51b8152602060048201526024808201527f45524332303a20617070726f76652066726f6d20746865207a65726f206164646044820152637265737360e01b6064820152608401610706565b6001600160a01b0382166109965760405162461bcd60e51b815260206004820152602260248201527f45524332303a20617070726f766520746f20746865207a65726f206164647265604482015261737360f01b6064820152608401610706565b6001600160a01b0383811660008181526034602090815260408083209487168084529482529182902085905590518481527f8c5be1e5ebec7d5bd14f71427d1e84f3dd0314c0f7b2291e5b200ac8c7c3b925910160405180910390a3505050565b6001600160a01b038316610a5b5760405162461bcd60e51b815260206004820152602560248201527f45524332303a207472616e736665722066726f6d20746865207a65726f206164604482015264647265737360d81b6064820152608401610706565b6001600160a01b038216610abd5760405162461bcd60e51b815260206004820152602360248201527f45524332303a207472616e7366657220746f20746865207a65726f206164647260448201526265737360e81b6064820152608401610706565b6001600160a01b03831660009081526033602052604090205481811015610b355760405162461bcd60e51b815260206004820152602660248201527f45524332303a207472616e7366657220616d6f756e7420657863656564732062604482015265616c616e636560d01b6064820152608401610706565b6001600160a01b03808516600090815260336020526040808220858503905591851681529081208054849290610b6c9084906111e5565b92505081905550826001600160a01b0316846001600160a01b03167fddf252ad1be2c89b69c2b068fc378daa952ba7f163c4a11628f55a4df523b3ef84604051610bb891815260200190565b60405180910390a350505050565b600054610100900460ff1680610bdf575060005460ff16155b610bfb5760405162461bcd60e51b815260040161070690611197565b600054610100900460ff16158015610c1d576000805461ffff19166101011790555b610c25610d25565b610c2f8383610d8f565b8015610c41576000805461ff00191690555b505050565b6001600160a01b038216610c9c5760405162461bcd60e51b815260206004820152601f60248201527f45524332303a206d696e7420746f20746865207a65726f2061646472657373006044820152606401610706565b8060356000828254610cae91906111e5565b90915550506001600160a01b03821660009081526033602052604081208054839290610cdb9084906111e5565b90915550506040518181526001600160a01b038316906000907fddf252ad1be2c89b69c2b068fc378daa952ba7f163c4a11628f55a4df523b3ef9060200160405180910390a35050565b600054610100900460ff1680610d3e575060005460ff16155b610d5a5760405162461bcd60e51b815260040161070690611197565b600054610100900460ff16158015610800576000805461ffff1916610101179055801561043e576000805461ff001916905550565b600054610100900460ff1680610da8575060005460ff16155b610dc45760405162461bcd60e51b815260040161070690611197565b600054610100900460ff16158015610de6576000805461ffff19166101011790555b8251610df9906036906020860190610e24565b508151610e0d906037906020850190610e24565b508015610c41576000805461ff0019169055505050565b828054610e3090611209565b90600052602060002090601f016020900481019282610e525760008555610e98565b82601f10610e6b57805160ff1916838001178555610e98565b82800160010185558215610e98579182015b82811115610e98578251825591602001919060010190610e7d565b50610ea4929150610ea8565b5090565b5b80821115610ea45760008155600101610ea9565b80356001600160a01b0381168114610ed457600080fd5b919050565b80358015158114610ed457600080fd5b803560ff81168114610ed457600080fd5b600060208284031215610f0b578081fd5b610f1482610ebd565b9392505050565b60008060408385031215610f2d578081fd5b610f3683610ebd565b9150610f4460208401610ebd565b90509250929050565b600080600060608486031215610f61578081fd5b610f6a84610ebd565b9250610f7860208501610ebd565b9150610f8660408501610ed9565b90509250925092565b600080600060608486031215610fa3578283fd5b610fac84610ebd565b9250610fba60208501610ebd565b9150604084013590509250925092565b600080600080600080600060e0888a031215610fe4578283fd5b610fed88610ebd565b9650610ffb60208901610ebd565b9550604088013594506060880135935061101760808901610ee9565b925060a0880135915060c0880135905092959891949750929550565b60008060408385031215611045578182fd5b61104e83610ebd565b946020939093013593505050565b600080600080600080600060e0888a031215611076578283fd5b61107f88610ebd565b965060208801359550604088013594506060880135935061101760808901610ee9565b600080602083850312156110b4578182fd5b823567ffffffffffffffff808211156110cb578384fd5b818501915085601f8301126110de578384fd5b8135818111156110ec578485fd5b8660208260051b8501011115611100578485fd5b60209290920196919550909350505050565b600060208284031215611123578081fd5b610f1482610ed9565b60006020828403121561113d578081fd5b5035919050565b6000602080835283518082850152825b8181101561117057858101830151858201604001528201611154565b818111156111815783604083870101525b50601f01601f1916929092016040019392505050565b6020808252602e908201527f496e697469616c697a61626c653a20636f6e747261637420697320616c72656160408201526d191e481a5b9a5d1a585b1a5e995960921b606082015260800190565b6000821982111561120457634e487b7160e01b81526011600452602481fd5b500190565b600181811c9082168061121d57607f821691505b6020821081141561123e57634e487b7160e01b600052602260045260246000fd5b5091905056fea26469706673582212208184bba40194756cafac9b860a66b89418b068d262afc8716c10ca51a1e2fb8064736f6c63430008040033",
  "linkReferences": {},
  "deployedLinkReferences": {}
}