{
  "contracts/test/SwappableYieldSourceHarness.sol": {
    "SwappableYieldSourceHarness": {
      "abi": [
        {
          "anonymous": false,
          "inputs": [
            {
              "indexed": true,
              "internalType": "address",
              "name": "owner",
              "type": "address"
            },
            {
              "indexed": true,
              "internalType": "address",
              "name": "spender",
              "type": "address"
            },
            {
              "indexed": false,
              "internalType": "uint256",
              "name": "value",
              "type": "uint256"
            }
          ],
          "name": "Approval",
          "type": "event"
        },
        {
          "anonymous": false,
          "inputs": [
            {
              "indexed": true,
              "internalType": "address",
              "name": "previousAssetManager",
              "type": "address"
            },
            {
              "indexed": true,
              "internalType": "address",
              "name": "newAssetManager",
              "type": "address"
            }
          ],
          "name": "AssetManagerTransferred",
          "type": "event"
        },
        {
          "anonymous": false,
          "inputs": [
            {
              "indexed": true,
              "internalType": "contract IYieldSource",
              "name": "yieldSource",
              "type": "address"
            },
            {
              "indexed": false,
              "internalType": "uint256",
              "name": "amount",
              "type": "uint256"
            }
          ],
          "name": "FundsTransferred",
          "type": "event"
        },
        {
          "anonymous": false,
          "inputs": [
            {
              "indexed": true,
              "internalType": "address",
              "name": "previousOwner",
              "type": "address"
            },
            {
              "indexed": true,
              "internalType": "address",
              "name": "newOwner",
              "type": "address"
            }
          ],
          "name": "OwnershipTransferred",
          "type": "event"
        },
        {
          "anonymous": false,
          "inputs": [
            {
              "indexed": true,
              "internalType": "contract IYieldSource",
              "name": "yieldSource",
              "type": "address"
            },
            {
              "indexed": false,
              "internalType": "uint8",
              "name": "decimals",
              "type": "uint8"
            },
            {
              "indexed": false,
              "internalType": "string",
              "name": "symbol",
              "type": "string"
            },
            {
              "indexed": false,
              "internalType": "string",
              "name": "name",
              "type": "string"
            },
            {
              "indexed": true,
              "internalType": "address",
              "name": "owner",
              "type": "address"
            }
          ],
          "name": "SwappableYieldSourceInitialized",
          "type": "event"
        },
        {
          "anonymous": false,
          "inputs": [
            {
              "indexed": true,
              "internalType": "contract IYieldSource",
              "name": "yieldSource",
              "type": "address"
            }
          ],
          "name": "SwappableYieldSourceSet",
          "type": "event"
        },
        {
          "anonymous": false,
          "inputs": [
            {
              "indexed": true,
              "internalType": "address",
              "name": "from",
              "type": "address"
            },
            {
              "indexed": true,
              "internalType": "address",
              "name": "to",
              "type": "address"
            },
            {
              "indexed": false,
              "internalType": "uint256",
              "name": "value",
              "type": "uint256"
            }
          ],
          "name": "Transfer",
          "type": "event"
        },
        {
          "anonymous": false,
          "inputs": [
            {
              "indexed": true,
              "internalType": "address",
              "name": "from",
              "type": "address"
            },
            {
              "indexed": true,
              "internalType": "address",
              "name": "to",
              "type": "address"
            },
            {
              "indexed": false,
              "internalType": "uint256",
              "name": "amount",
              "type": "uint256"
            },
            {
              "indexed": true,
              "internalType": "contract IERC20Upgradeable",
              "name": "token",
              "type": "address"
            }
          ],
          "name": "TransferredERC20",
          "type": "event"
        },
        {
          "inputs": [
            {
              "internalType": "address",
              "name": "owner",
              "type": "address"
            },
            {
              "internalType": "address",
              "name": "spender",
              "type": "address"
            }
          ],
          "name": "allowance",
          "outputs": [
            {
              "internalType": "uint256",
              "name": "",
              "type": "uint256"
            }
          ],
          "stateMutability": "view",
          "type": "function"
        },
        {
          "inputs": [
            {
              "internalType": "address",
              "name": "spender",
              "type": "address"
            },
            {
              "internalType": "uint256",
              "name": "amount",
              "type": "uint256"
            }
          ],
          "name": "approve",
          "outputs": [
            {
              "internalType": "bool",
              "name": "",
              "type": "bool"
            }
          ],
          "stateMutability": "nonpayable",
          "type": "function"
        },
        {
          "inputs": [],
          "name": "approveMaxAmount",
          "outputs": [
            {
              "internalType": "bool",
              "name": "",
              "type": "bool"
            }
          ],
          "stateMutability": "nonpayable",
          "type": "function"
        },
        {
          "inputs": [],
          "name": "assetManager",
          "outputs": [
            {
              "internalType": "address",
              "name": "",
              "type": "address"
            }
          ],
          "stateMutability": "view",
          "type": "function"
        },
        {
          "inputs": [
            {
              "internalType": "address",
              "name": "account",
              "type": "address"
            }
          ],
          "name": "balanceOf",
          "outputs": [
            {
              "internalType": "uint256",
              "name": "",
              "type": "uint256"
            }
          ],
          "stateMutability": "view",
          "type": "function"
        },
        {
          "inputs": [
            {
              "internalType": "address",
              "name": "addr",
              "type": "address"
            }
          ],
          "name": "balanceOfToken",
          "outputs": [
            {
              "internalType": "uint256",
              "name": "",
              "type": "uint256"
            }
          ],
          "stateMutability": "nonpayable",
          "type": "function"
        },
        {
          "inputs": [
            {
              "internalType": "uint256",
              "name": "burnAmount",
              "type": "uint256"
            }
          ],
          "name": "burnShares",
          "outputs": [],
          "stateMutability": "nonpayable",
          "type": "function"
        },
        {
          "inputs": [],
          "name": "decimals",
          "outputs": [
            {
              "internalType": "uint8",
              "name": "",
              "type": "uint8"
            }
          ],
          "stateMutability": "view",
          "type": "function"
        },
        {
          "inputs": [
            {
              "internalType": "address",
              "name": "spender",
              "type": "address"
            },
            {
              "internalType": "uint256",
              "name": "subtractedValue",
              "type": "uint256"
            }
          ],
          "name": "decreaseAllowance",
          "outputs": [
            {
              "internalType": "bool",
              "name": "",
              "type": "bool"
            }
          ],
          "stateMutability": "nonpayable",
          "type": "function"
        },
        {
          "inputs": [],
          "name": "depositToken",
          "outputs": [
            {
              "internalType": "address",
              "name": "",
              "type": "address"
            }
          ],
          "stateMutability": "view",
          "type": "function"
        },
        {
          "inputs": [],
          "name": "freeze",
          "outputs": [],
          "stateMutability": "nonpayable",
          "type": "function"
        },
        {
          "inputs": [
            {
              "internalType": "address",
              "name": "spender",
              "type": "address"
            },
            {
              "internalType": "uint256",
              "name": "addedValue",
              "type": "uint256"
            }
          ],
          "name": "increaseAllowance",
          "outputs": [
            {
              "internalType": "bool",
              "name": "",
              "type": "bool"
            }
          ],
          "stateMutability": "nonpayable",
          "type": "function"
        },
        {
          "inputs": [
            {
              "internalType": "contract IYieldSource",
              "name": "_yieldSource",
              "type": "address"
            },
            {
              "internalType": "uint8",
              "name": "_decimals",
              "type": "uint8"
            },
            {
              "internalType": "string",
              "name": "_symbol",
              "type": "string"
            },
            {
              "internalType": "string",
              "name": "_name",
              "type": "string"
            },
            {
              "internalType": "address",
              "name": "_owner",
              "type": "address"
            }
          ],
          "name": "initialize",
          "outputs": [
            {
              "internalType": "bool",
              "name": "",
              "type": "bool"
            }
          ],
          "stateMutability": "nonpayable",
          "type": "function"
        },
        {
          "inputs": [
            {
              "internalType": "address",
              "name": "account",
              "type": "address"
            },
            {
              "internalType": "uint256",
              "name": "amount",
              "type": "uint256"
            }
          ],
          "name": "mint",
          "outputs": [
            {
              "internalType": "bool",
              "name": "",
              "type": "bool"
            }
          ],
          "stateMutability": "nonpayable",
          "type": "function"
        },
        {
          "inputs": [
            {
              "internalType": "uint256",
              "name": "mintAmount",
              "type": "uint256"
            },
            {
              "internalType": "address",
              "name": "to",
              "type": "address"
            }
          ],
          "name": "mintShares",
          "outputs": [],
          "stateMutability": "nonpayable",
          "type": "function"
        },
        {
          "inputs": [],
          "name": "name",
          "outputs": [
            {
              "internalType": "string",
              "name": "",
              "type": "string"
            }
          ],
          "stateMutability": "view",
          "type": "function"
        },
        {
          "inputs": [],
          "name": "owner",
          "outputs": [
            {
              "internalType": "address",
              "name": "",
              "type": "address"
            }
          ],
          "stateMutability": "view",
          "type": "function"
        },
        {
          "inputs": [
            {
              "internalType": "uint256",
              "name": "amount",
              "type": "uint256"
            }
          ],
          "name": "redeemToken",
          "outputs": [
            {
              "internalType": "uint256",
              "name": "",
              "type": "uint256"
            }
          ],
          "stateMutability": "nonpayable",
          "type": "function"
        },
        {
          "inputs": [],
          "name": "renounceOwnership",
          "outputs": [],
          "stateMutability": "nonpayable",
          "type": "function"
        },
        {
          "inputs": [
            {
              "internalType": "contract IYieldSource",
              "name": "_yieldSource",
              "type": "address"
            }
          ],
          "name": "requireDifferentYieldSource",
          "outputs": [],
          "stateMutability": "view",
          "type": "function"
        },
        {
          "inputs": [
            {
              "internalType": "contract IYieldSource",
              "name": "_yieldSource",
              "type": "address"
            }
          ],
          "name": "requireYieldSource",
          "outputs": [],
          "stateMutability": "view",
          "type": "function"
        },
        {
          "inputs": [
            {
              "internalType": "address",
              "name": "_newAssetManager",
              "type": "address"
            }
          ],
          "name": "setAssetManager",
          "outputs": [
            {
              "internalType": "bool",
              "name": "",
              "type": "bool"
            }
          ],
          "stateMutability": "nonpayable",
          "type": "function"
        },
        {
          "inputs": [
            {
              "internalType": "contract IYieldSource",
              "name": "_newYieldSource",
              "type": "address"
            }
          ],
          "name": "setYieldSource",
          "outputs": [
            {
              "internalType": "bool",
              "name": "",
              "type": "bool"
            }
          ],
          "stateMutability": "nonpayable",
          "type": "function"
        },
        {
          "inputs": [
            {
              "internalType": "uint256",
              "name": "shares",
              "type": "uint256"
            }
          ],
          "name": "sharesToToken",
          "outputs": [
            {
              "internalType": "uint256",
              "name": "",
              "type": "uint256"
            }
          ],
          "stateMutability": "nonpayable",
          "type": "function"
        },
        {
          "inputs": [
            {
              "internalType": "uint256",
              "name": "amount",
              "type": "uint256"
            },
            {
              "internalType": "address",
              "name": "to",
              "type": "address"
            }
          ],
          "name": "supplyTokenTo",
          "outputs": [],
          "stateMutability": "nonpayable",
          "type": "function"
        },
        {
          "inputs": [
            {
              "internalType": "contract IYieldSource",
              "name": "_newYieldSource",
              "type": "address"
            }
          ],
          "name": "swapYieldSource",
          "outputs": [
            {
              "internalType": "bool",
              "name": "",
              "type": "bool"
            }
          ],
          "stateMutability": "nonpayable",
          "type": "function"
        },
        {
          "inputs": [],
          "name": "symbol",
          "outputs": [
            {
              "internalType": "string",
              "name": "",
              "type": "string"
            }
          ],
          "stateMutability": "view",
          "type": "function"
        },
        {
          "inputs": [
            {
              "internalType": "uint256",
              "name": "tokens",
              "type": "uint256"
            }
          ],
          "name": "tokenToShares",
          "outputs": [
            {
              "internalType": "uint256",
              "name": "",
              "type": "uint256"
            }
          ],
          "stateMutability": "nonpayable",
          "type": "function"
        },
        {
          "inputs": [],
          "name": "totalSupply",
          "outputs": [
            {
              "internalType": "uint256",
              "name": "",
              "type": "uint256"
            }
          ],
          "stateMutability": "view",
          "type": "function"
        },
        {
          "inputs": [
            {
              "internalType": "address",
              "name": "recipient",
              "type": "address"
            },
            {
              "internalType": "uint256",
              "name": "amount",
              "type": "uint256"
            }
          ],
          "name": "transfer",
          "outputs": [
            {
              "internalType": "bool",
              "name": "",
              "type": "bool"
            }
          ],
          "stateMutability": "nonpayable",
          "type": "function"
        },
        {
          "inputs": [
            {
              "internalType": "contract IERC20Upgradeable",
              "name": "erc20Token",
              "type": "address"
            },
            {
              "internalType": "address",
              "name": "to",
              "type": "address"
            },
            {
              "internalType": "uint256",
              "name": "amount",
              "type": "uint256"
            }
          ],
          "name": "transferERC20",
          "outputs": [
            {
              "internalType": "bool",
              "name": "",
              "type": "bool"
            }
          ],
          "stateMutability": "nonpayable",
          "type": "function"
        },
        {
          "inputs": [
            {
              "internalType": "address",
              "name": "sender",
              "type": "address"
            },
            {
              "internalType": "address",
              "name": "recipient",
              "type": "address"
            },
            {
              "internalType": "uint256",
              "name": "amount",
              "type": "uint256"
            }
          ],
          "name": "transferFrom",
          "outputs": [
            {
              "internalType": "bool",
              "name": "",
              "type": "bool"
            }
          ],
          "stateMutability": "nonpayable",
          "type": "function"
        },
        {
          "inputs": [
            {
              "internalType": "contract IYieldSource",
              "name": "_yieldSource",
              "type": "address"
            },
            {
              "internalType": "uint256",
              "name": "amount",
              "type": "uint256"
            }
          ],
          "name": "transferFunds",
          "outputs": [
            {
              "internalType": "bool",
              "name": "",
              "type": "bool"
            }
          ],
          "stateMutability": "nonpayable",
          "type": "function"
        },
        {
          "inputs": [
            {
              "internalType": "address",
              "name": "newOwner",
              "type": "address"
            }
          ],
          "name": "transferOwnership",
          "outputs": [],
          "stateMutability": "nonpayable",
          "type": "function"
        },
        {
          "inputs": [],
          "name": "yieldSource",
          "outputs": [
            {
              "internalType": "contract IYieldSource",
              "name": "",
              "type": "address"
            }
          ],
          "stateMutability": "view",
          "type": "function"
        }
      ],
      "devdoc": {
        "kind": "dev",
        "methods": {
          "allowance(address,address)": {
            "details": "See {IERC20-allowance}."
          },
          "approve(address,uint256)": {
            "details": "See {IERC20-approve}. Requirements: - `spender` cannot be the zero address."
          },
          "approveMaxAmount()": {
            "details": "Emergency function to re-approve max amount if approval amount dropped too low.",
            "returns": {
              "_0": "true if operation is successful."
            }
          },
          "assetManager()": {
            "details": "Returns current _assetManager address.",
            "returns": {
              "_0": "Current _assetManager address."
            }
          },
          "balanceOf(address)": {
            "details": "See {IERC20-balanceOf}."
          },
          "balanceOfToken(address)": {
            "returns": {
              "_0": "Underlying balance of swappable tokens."
            }
          },
          "decimals()": {
            "details": "Returns the number of decimals used to get its user representation. For example, if `decimals` equals `2`, a balance of `505` tokens should be displayed to a user as `5,05` (`505 / 10 ** 2`). Tokens usually opt for a value of 18, imitating the relationship between Ether and Wei. This is the value {ERC20} uses, unless {_setupDecimals} is called. NOTE: This information is only used for _display_ purposes: it in no way affects any of the arithmetic of the contract, including {IERC20-balanceOf} and {IERC20-transfer}."
          },
          "decreaseAllowance(address,uint256)": {
            "details": "Atomically decreases the allowance granted to `spender` by the caller. This is an alternative to {approve} that can be used as a mitigation for problems described in {IERC20-approve}. Emits an {Approval} event indicating the updated allowance. Requirements: - `spender` cannot be the zero address. - `spender` must have allowance for the caller of at least `subtractedValue`."
          },
          "depositToken()": {
            "returns": {
              "_0": "ERC20 asset token address."
            }
          },
          "increaseAllowance(address,uint256)": {
            "details": "Atomically increases the allowance granted to `spender` by the caller. This is an alternative to {approve} that can be used as a mitigation for problems described in {IERC20-approve}. Emits an {Approval} event indicating the updated allowance. Requirements: - `spender` cannot be the zero address."
          },
          "initialize(address,uint8,string,string,address)": {
            "details": "We approve yieldSource to spend maxUint256 amount of depositToken (eg: DAI), to save gas for future calls.",
            "params": {
              "_decimals": "Number of decimals the shares (inherited ERC20) will have.  Same as underlying asset to ensure same ExchangeRates.",
              "_name": "Token name for the underlying ERC20 shares (eg: PoolTogether Swappable Yield Source DAI).",
              "_owner": "Swappable yield source owner.",
              "_symbol": "Token symbol for the underlying ERC20 shares (eg: sysDAI).",
              "_yieldSource": "Yield source address used to initialize this swappable yield source."
            },
            "returns": {
              "_0": "true if operation is successful."
            }
          },
          "name()": {
            "details": "Returns the name of the token."
          },
          "owner()": {
            "details": "Returns the address of the current owner."
          },
          "redeemToken(uint256)": {
            "details": "Shares of the swappable yield source address (this contract) are burnt from the yield source.Shares of the `msg.sender` address are burnt from the swappable yield source.",
            "params": {
              "amount": "Amount of `depositToken()` to withdraw."
            },
            "returns": {
              "_0": "Actual amount of tokens that were redeemed."
            }
          },
          "renounceOwnership()": {
            "details": "Leaves the contract without owner. It will not be possible to call `onlyOwner` functions anymore. Can only be called by the current owner. NOTE: Renouncing ownership will leave the contract without an owner, thereby removing any functionality that is only available to the owner."
          },
          "setAssetManager(address)": {
            "details": "Throws if called by any account other than the owner.",
            "params": {
              "_newAssetManager": "New _assetManager address."
            },
            "returns": {
              "_0": "Boolean to indicate if the operation was successful or not."
            }
          },
          "setYieldSource(address)": {
            "details": "This function is only callable by the owner or asset manager.",
            "params": {
              "_newYieldSource": "New yield source address to set."
            },
            "returns": {
              "_0": "true if operation is successful."
            }
          },
          "supplyTokenTo(uint256,address)": {
            "details": "Asset tokens are supplied to the yield source, then deposited into the underlying yield source (eg: Aave, Compound, etc...).Shares from the yield source are minted to the swappable yield source address (this contract).Shares from the swappable yield source are minted to the `to` address.",
            "params": {
              "amount": "Amount of `depositToken()` to be supplied.",
              "to": "User whose balance will receive the tokens."
            }
          },
          "swapYieldSource(address)": {
            "details": "This function is only callable by the owner or asset manager.We set a new yield source and then transfer funds from the now previous yield source to the new current yield source.",
            "params": {
              "_newYieldSource": "New yield source address to set and transfer funds to."
            },
            "returns": {
              "_0": "true if operation is successful."
            }
          },
          "symbol()": {
            "details": "Returns the symbol of the token, usually a shorter version of the name."
          },
          "totalSupply()": {
            "details": "See {IERC20-totalSupply}."
          },
          "transfer(address,uint256)": {
            "details": "See {IERC20-transfer}. Requirements: - `recipient` cannot be the zero address. - the caller must have a balance of at least `amount`."
          },
          "transferERC20(address,address,uint256)": {
            "details": "This function is only callable by the owner or asset manager.",
            "params": {
              "amount": "Amount of tokens to transfer.",
              "erc20Token": "ERC20 token to transfer.",
              "to": "Recipient of the tokens."
            },
            "returns": {
              "_0": "true if operation is successful."
            }
          },
          "transferFrom(address,address,uint256)": {
            "details": "See {IERC20-transferFrom}. Emits an {Approval} event indicating the updated allowance. This is not required by the EIP. See the note at the beginning of {ERC20}. Requirements: - `sender` and `recipient` cannot be the zero address. - `sender` must have a balance of at least `amount`. - the caller must have allowance for ``sender``'s tokens of at least `amount`."
          },
          "transferFunds(address,uint256)": {
            "details": "We only verify it is a different yield source in the public function cause we already check for it in `_setYieldSource` function.",
            "params": {
              "_yieldSource": "Yield source address to transfer funds from.",
              "amount": "Amount of funds to transfer from passed yield source to current yield source."
            },
            "returns": {
              "_0": "true if operation is successful."
            }
          },
          "transferOwnership(address)": {
            "details": "Transfers ownership of the contract to a new account (`newOwner`). Can only be called by the current owner."
          }
        },
        "version": 1
      },
      "evm": {
        "bytecode": {
          "linkReferences": {},
          "object": "608060405234801561001057600080fd5b50613746806100206000396000f3fe608060405234801561001057600080fd5b50600436106102115760003560e01c806387a6eeef11610125578063b6f97226116100ad578063daa4f9751161007c578063daa4f97514610710578063dd62ed3e14610718578063ea45384814610746578063f2b3c18f1461076c578063f2fde38b1461079857610211565b8063b6f97226146105d9578063b99152d0146106bc578063c89039c5146106e2578063cdb9d42f146106ea57610211565b8063990dc9db116100f4578063990dc9db146105175780639db5dbe414610543578063a457c2d714610579578063a9059cbb146105a5578063b2470e5c146105d157610211565b806387a6eeef146104b75780638da5cb5b146104e357806394217ad11461050757806395d89b411461050f57610211565b806340c10f19116101a85780636cf81ec6116101775780636cf81ec61461042957806370a0823114610446578063715018a61461046c57806375bed0be14610474578063853c637d1461049a57610211565b806340c10f19146103a757806343060237146103d357806362a5af3b146103f9578063666a0c841461040357610211565b806323b872dd116101e457806323b872dd1461030a578063313ce56714610340578063361bb0c11461035e578063395093511461037b57610211565b8063013054c21461021657806306fdde0314610245578063095ea7b3146102c257806318160ddd14610302575b600080fd5b6102336004803603602081101561022c57600080fd5b50356107be565b60408051918252519081900360200190f35b61024d610934565b6040805160208082528351818301528351919283929083019185019080838360005b8381101561028757818101518382015260200161026f565b50505050905090810190601f1680156102b45780820380516001836020036101000a031916815260200191505b509250505060405180910390f35b6102ee600480360360408110156102d857600080fd5b506001600160a01b0381351690602001356109ca565b604080519115158252519081900360200190f35b6102336109e8565b6102ee6004803603606081101561032057600080fd5b506001600160a01b038135811691602081013590911690604001356109ee565b610348610a76565b6040805160ff9092168252519081900360200190f35b6102336004803603602081101561037457600080fd5b5035610a7f565b6102ee6004803603604081101561039157600080fd5b506001600160a01b038135169060200135610a8a565b6102ee600480360360408110156103bd57600080fd5b506001600160a01b038135169060200135610ad8565b6102ee600480360360208110156103e957600080fd5b50356001600160a01b0316610ae4565b610401610be4565b005b6102ee6004803603602081101561041957600080fd5b50356001600160a01b0316610c86565b6102336004803603602081101561043f57600080fd5b5035610d21565b6102336004803603602081101561045c57600080fd5b50356001600160a01b0316610d2c565b610401610d47565b6102ee6004803603602081101561048a57600080fd5b50356001600160a01b0316610df3565b610401600480360360208110156104b057600080fd5b5035610f0f565b610401600480360360408110156104cd57600080fd5b50803590602001356001600160a01b0316610f18565b6104eb61107c565b604080516001600160a01b039092168252519081900360200190f35b6104eb61108b565b61024d61109a565b6102ee6004803603604081101561052d57600080fd5b506001600160a01b0381351690602001356110fb565b6102ee6004803603606081101561055957600080fd5b506001600160a01b03813581169160208101359091169060400135611198565b6102ee6004803603604081101561058f57600080fd5b506001600160a01b0381351690602001356112e2565b6102ee600480360360408110156105bb57600080fd5b506001600160a01b03813516906020013561134a565b6104eb61135e565b6102ee600480360360a08110156105ef57600080fd5b6001600160a01b038235169160ff6020820135169181019060608101604082013564010000000081111561062257600080fd5b82018360208201111561063457600080fd5b8035906020019184600183028401116401000000008311171561065657600080fd5b91939092909160208101903564010000000081111561067457600080fd5b82018360208201111561068657600080fd5b803590602001918460018302840111640100000000831117156106a857600080fd5b9193509150356001600160a01b031661136d565b610233600480360360208110156106d257600080fd5b50356001600160a01b0316611684565b6104eb611697565b6104016004803603602081101561070057600080fd5b50356001600160a01b031661170d565b6102ee611716565b6102336004803603604081101561072e57600080fd5b506001600160a01b038135811691602001351661189f565b6104016004803603602081101561075c57600080fd5b50356001600160a01b03166118ca565b6104016004803603604081101561078257600080fd5b50803590602001356001600160a01b03166118d3565b610401600480360360208110156107ae57600080fd5b50356001600160a01b03166118e1565b600060026098541415610818576040805162461bcd60e51b815260206004820152601f60248201527f5265656e7472616e637947756172643a207265656e7472616e742063616c6c00604482015290519081900360640190fd5b600260985560ca546040805163c89039c560e01b815290516000926001600160a01b03169163c89039c5916004808301926020929190829003018186803b15801561086257600080fd5b505afa158015610876573d6000803e3d6000fd5b505050506040513d602081101561088c57600080fd5b50519050610899836119e4565b60ca546040805162982a6160e11b81526004810186905290516000926001600160a01b03169163013054c291602480830192602092919082900301818787803b1580156108e557600080fd5b505af11580156108f9573d6000803e3d6000fd5b505050506040513d602081101561090f57600080fd5b505190506109286001600160a01b0383163033846119fb565b60016098559392505050565b60368054604080516020601f60026000196101006001881615020190951694909404938401819004810282018101909252828152606093909290918301828280156109c05780601f10610995576101008083540402835291602001916109c0565b820191906000526020600020905b8154815290600101906020018083116109a357829003601f168201915b5050505050905090565b60006109de6109d7611a5b565b8484611a5f565b5060015b92915050565b60355490565b60006109fb848484611b4b565b610a6b84610a07611a5b565b610a66856040518060600160405280602881526020016134c3602891396001600160a01b038a16600090815260346020526040812090610a45611a5b565b6001600160a01b031681526020810191909152604001600020549190611ca8565b611a5f565b5060015b9392505050565b60385460ff1690565b60006109e282611d3f565b60006109de610a97611a5b565b84610a668560346000610aa8611a5b565b6001600160a01b03908116825260208083019390935260409182016000908120918c168152925290205490611df8565b60006109de8383611e52565b6000610aee611a5b565b6001600160a01b0316610aff61107c565b6001600160a01b031614610b48576040805162461bcd60e51b815260206004820181905260248201526000805160206134eb833981519152604482015290519081900360640190fd5b6001600160a01b038216610b8d5760405162461bcd60e51b815260040180806020018281038252603581526020018061362b6035913960400191505060405180910390fd5b609780546001600160a01b038481166001600160a01b0319831681179093556040519116919082907fa4d7db5805a7ddee85566735eb5d575b0894cef3fe057b4fa1b52090d8c2206890600090a350600192915050565b600054610100900460ff1680610bfd5750610bfd611f44565b80610c0b575060005460ff16155b610c465760405162461bcd60e51b815260040180806020018281038252602e815260200180613449602e913960400191505060405180910390fd5b600054610100900460ff16158015610c71576000805460ff1961ff0019909116610100171660011790555b8015610c83576000805461ff00191690555b50565b6000610c90611a5b565b6001600160a01b0316610ca161108b565b6001600160a01b03161480610cd55750610cb9611a5b565b6001600160a01b0316610cca61107c565b6001600160a01b0316145b610d105760405162461bcd60e51b81526004018080602001828103825260288152602001806134216028913960400191505060405180910390fd5b610d1982611f55565b506001919050565b60006109e28261212b565b6001600160a01b031660009081526033602052604090205490565b610d4f611a5b565b6001600160a01b0316610d6061107c565b6001600160a01b031614610da9576040805162461bcd60e51b815260206004820181905260248201526000805160206134eb833981519152604482015290519081900360640190fd5b6065546040516000916001600160a01b0316907f8be0079c531659141344cd1fd0a4f28419497f9722a3daafe3b4186f6b6457e0908390a3606580546001600160a01b0319169055565b6000610dfd611a5b565b6001600160a01b0316610e0e61108b565b6001600160a01b03161480610e425750610e26611a5b565b6001600160a01b0316610e3761107c565b6001600160a01b0316145b610e7d5760405162461bcd60e51b81526004018080602001828103825260288152602001806134216028913960400191505060405180910390fd5b60ca5460408051630b99152d60e41b815230600482015290516001600160a01b0390921691600091839163b99152d09160248082019260209290919082900301818787803b158015610ece57600080fd5b505af1158015610ee2573d6000803e3d6000fd5b505050506040513d6020811015610ef857600080fd5b50519050610f0584611f55565b610a6b82826121cc565b610c83816119e4565b60026098541415610f70576040805162461bcd60e51b815260206004820152601f60248201527f5265656e7472616e637947756172643a207265656e7472616e742063616c6c00604482015290519081900360640190fd5b600260985560ca546040805163c89039c560e01b815290516000926001600160a01b03169163c89039c5916004808301926020929190829003018186803b158015610fba57600080fd5b505afa158015610fce573d6000803e3d6000fd5b505050506040513d6020811015610fe457600080fd5b50519050610ffd6001600160a01b0382163330866119fb565b60ca54604080516387a6eeef60e01b81526004810186905230602482015290516001600160a01b03909216916387a6eeef9160448082019260009290919082900301818387803b15801561105057600080fd5b505af1158015611064573d6000803e3d6000fd5b505050506110728383612417565b5050600160985550565b6065546001600160a01b031690565b6097546001600160a01b031690565b60378054604080516020601f60026000196101006001881615020190951694909404938401819004810282018101909252828152606093909290918301828280156109c05780601f10610995576101008083540402835291602001916109c0565b6000611105611a5b565b6001600160a01b031661111661108b565b6001600160a01b0316148061114a575061112e611a5b565b6001600160a01b031661113f61107c565b6001600160a01b0316145b6111855760405162461bcd60e51b81526004018080602001828103825260288152602001806134216028913960400191505060405180910390fd5b61118e83612472565b6109de83836121cc565b60006111a2611a5b565b6001600160a01b03166111b361108b565b6001600160a01b031614806111e757506111cb611a5b565b6001600160a01b03166111dc61107c565b6001600160a01b0316145b6112225760405162461bcd60e51b81526004018080602001828103825260288152602001806134216028913960400191505060405180910390fd5b60ca546001600160a01b038581169116141561126f5760405162461bcd60e51b815260040180806020018281038252603c81526020018061353c603c913960400191505060405180910390fd5b6112836001600160a01b03851684846124bf565b836001600160a01b0316836001600160a01b0316336001600160a01b03167f29fcb7bb954d37295343e742bab21760748bdba4e026e4469a81001839969138856040518082815260200191505060405180910390a45060019392505050565b60006109de6112ef611a5b565b84610a66856040518060600160405280602581526020016136ec6025913960346000611319611a5b565b6001600160a01b03908116825260208083019390935260409182016000908120918d16815292529020549190611ca8565b60006109de611357611a5b565b8484611b4b565b60ca546001600160a01b031681565b60008054610100900460ff16806113875750611387611f44565b80611395575060005460ff16155b6113d05760405162461bcd60e51b815260040180806020018281038252602e815260200180613449602e913960400191505060405180910390fd5b600054610100900460ff161580156113fb576000805460ff1961ff0019909116610100171660011790555b61140489612511565b60ca80546001600160a01b0319166001600160a01b038b1617905561142761268e565b6001600160a01b03831661146c5760405162461bcd60e51b815260040180806020018281038252602b815260200180613477602b913960400191505060405180910390fd5b611475836118e1565b61147d61272b565b6114f085858080601f01602080910402602001604051908101604052809392919081815260200183838082843760009201919091525050604080516020601f8d018190048102820181019092528b815292508b91508a90819084018382808284376000920191909152506127c092505050565b60008860ff16116115325760405162461bcd60e51b81526004018080602001828103825260258152602001806133b06025913960400191505060405180910390fd5b61153b88612875565b6115b7896000198b6001600160a01b031663c89039c56040518163ffffffff1660e01b815260040160206040518083038186803b15801561157b57600080fd5b505afa15801561158f573d6000803e3d6000fd5b505050506040513d60208110156115a557600080fd5b50516001600160a01b0316919061288b565b826001600160a01b0316896001600160a01b03167f8902cbd60f749d7080b1ce744d38dca1bef12be49b3fae393966db79a18209b08a8a8a8a8a604051808660ff16815260200180602001806020018381038352878782818152602001925080828437600083820152601f01601f191690910184810383528581526020019050858580828437600083820152604051601f909101601f1916909201829003995090975050505050505050a3600191508015611678576000805461ff00191690555b50979650505050505050565b60006109e261169283610d2c565b61212b565b60ca546040805163c89039c560e01b815290516000926001600160a01b03169163c89039c5916004808301926020929190829003018186803b1580156116dc57600080fd5b505afa1580156116f0573d6000803e3d6000fd5b505050506040513d602081101561170657600080fd5b5051905090565b610c8381612511565b6000611720611a5b565b6001600160a01b031661173161107c565b6001600160a01b03161461177a576040805162461bcd60e51b815260206004820181905260248201526000805160206134eb833981519152604482015290519081900360640190fd5b60ca546040805163c89039c560e01b815290516001600160a01b0390921691600091839163c89039c591600480820192602092909190829003018186803b1580156117c457600080fd5b505afa1580156117d8573d6000803e3d6000fd5b505050506040513d60208110156117ee57600080fd5b505160408051636eb1769f60e11b81523060048201526001600160a01b03858116602483015291519293506000929184169163dd62ed3e91604480820192602092909190829003018186803b15801561184657600080fd5b505afa15801561185a573d6000803e3d6000fd5b505050506040513d602081101561187057600080fd5b50519050611895836118846000198461299e565b6001600160a01b03851691906129fb565b6001935050505090565b6001600160a01b03918216600090815260346020908152604080832093909416825291909152205490565b610c8381612472565b6118dd8282612417565b5050565b6118e9611a5b565b6001600160a01b03166118fa61107c565b6001600160a01b031614611943576040805162461bcd60e51b815260206004820181905260248201526000805160206134eb833981519152604482015290519081900360640190fd5b6001600160a01b0381166119885760405162461bcd60e51b815260040180806020018281038252602681526020018061333f6026913960400191505060405180910390fd5b6065546040516001600160a01b038084169216907f8be0079c531659141344cd1fd0a4f28419497f9722a3daafe3b4186f6b6457e090600090a3606580546001600160a01b0319166001600160a01b0392909216919091179055565b60006119ef82611d3f565b90506118dd3382612ae6565b604080516001600160a01b0380861660248301528416604482015260648082018490528251808303909101815260849091019091526020810180516001600160e01b03166323b872dd60e01b179052611a55908590612be2565b50505050565b3390565b6001600160a01b038316611aa45760405162461bcd60e51b81526004018080602001828103825260248152602001806135be6024913960400191505060405180910390fd5b6001600160a01b038216611ae95760405162461bcd60e51b81526004018080602001828103825260228152602001806133656022913960400191505060405180910390fd5b6001600160a01b03808416600081815260346020908152604080832094871680845294825291829020859055815185815291517f8c5be1e5ebec7d5bd14f71427d1e84f3dd0314c0f7b2291e5b200ac8c7c3b9259281900390910190a3505050565b6001600160a01b038316611b905760405162461bcd60e51b81526004018080602001828103825260258152602001806135996025913960400191505060405180910390fd5b6001600160a01b038216611bd55760405162461bcd60e51b81526004018080602001828103825260238152602001806132cc6023913960400191505060405180910390fd5b611be083838361246d565b611c1d816040518060600160405280602681526020016133d5602691396001600160a01b0386166000908152603360205260409020549190611ca8565b6001600160a01b038085166000908152603360205260408082209390935590841681522054611c4c9082611df8565b6001600160a01b0380841660008181526033602090815260409182902094909455805185815290519193928716927fddf252ad1be2c89b69c2b068fc378daa952ba7f163c4a11628f55a4df523b3ef92918290030190a3505050565b60008184841115611d375760405162461bcd60e51b81526004018080602001828103825283818151815260200191508051906020019080838360005b83811015611cfc578181015183820152602001611ce4565b50505050905090810190601f168015611d295780820380516001836020036101000a031916815260200191505b509250505060405180910390fd5b505050900390565b6000806000611d4c6109e8565b905080611d5b57839150611df1565b60ca5460408051630b99152d60e41b81523060048201529051600092611de19285926001600160a01b039092169163b99152d09160248082019260209290919082900301818987803b158015611db057600080fd5b505af1158015611dc4573d6000803e3d6000fd5b505050506040513d6020811015611dda57600080fd5b5051612c93565b9050611ded8582612cbc565b9250505b5092915050565b600082820183811015610a6f576040805162461bcd60e51b815260206004820152601b60248201527f536166654d6174683a206164646974696f6e206f766572666c6f770000000000604482015290519081900360640190fd5b6001600160a01b038216611ead576040805162461bcd60e51b815260206004820152601f60248201527f45524332303a206d696e7420746f20746865207a65726f206164647265737300604482015290519081900360640190fd5b611eb96000838361246d565b603554611ec69082611df8565b6035556001600160a01b038216600090815260336020526040902054611eec9082611df8565b6001600160a01b03831660008181526033602090815260408083209490945583518581529351929391927fddf252ad1be2c89b69c2b068fc378daa952ba7f163c4a11628f55a4df523b3ef9281900390910190a35050565b6000611f4f30612cdd565b15905090565b611f5e81612472565b60ca60009054906101000a90046001600160a01b03166001600160a01b031663c89039c56040518163ffffffff1660e01b815260040160206040518083038186803b158015611fac57600080fd5b505afa158015611fc0573d6000803e3d6000fd5b505050506040513d6020811015611fd657600080fd5b50516040805163c89039c560e01b815290516001600160a01b039283169284169163c89039c5916004808301926020929190829003018186803b15801561201c57600080fd5b505afa158015612030573d6000803e3d6000fd5b505050506040513d602081101561204657600080fd5b50516001600160a01b03161461208d5760405162461bcd60e51b815260040180806020018281038252602c815260200180613660602c913960400191505060405180910390fd5b8060ca60006101000a8154816001600160a01b0302191690836001600160a01b031602179055506120f481600019836001600160a01b031663c89039c56040518163ffffffff1660e01b815260040160206040518083038186803b15801561157b57600080fd5b6040516001600160a01b038216907f5b9f3c229dbcb163b3ff6d483bec26e3f4d5b39a6fc13c4afea3e3930fde891190600090a250565b60008060006121386109e8565b90508061214757839150611df1565b60ca5460408051630b99152d60e41b81523060048201529051600092611de1926001600160a01b039091169163b99152d09160248082019260209290919082900301818887803b15801561219a57600080fd5b505af11580156121ae573d6000803e3d6000fd5b505050506040513d60208110156121c457600080fd5b505183612c93565b60ca546040805162982a6160e11b81526004810184905290516001600160a01b039283169285169163013054c29160248083019260209291908290030181600087803b15801561221b57600080fd5b505af115801561222f573d6000803e3d6000fd5b505050506040513d602081101561224557600080fd5b50506040805163c89039c560e01b815290516000916001600160a01b0386169163c89039c591600480820192602092909190829003018186803b15801561228b57600080fd5b505afa15801561229f573d6000803e3d6000fd5b505050506040513d60208110156122b557600080fd5b5051604080516370a0823160e01b815230600482015290516001600160a01b03909216916370a0823191602480820192602092909190829003018186803b1580156122ff57600080fd5b505afa158015612313573d6000803e3d6000fd5b505050506040513d602081101561232957600080fd5b505190508083111561236c5760405162461bcd60e51b815260040180806020018281038252602e815260200180613311602e913960400191505060405180910390fd5b604080516387a6eeef60e01b81526004810183905230602482015290516001600160a01b038416916387a6eeef91604480830192600092919082900301818387803b1580156123ba57600080fd5b505af11580156123ce573d6000803e3d6000fd5b50506040805186815290516001600160a01b03881693507f8c9a4f13b67cb64d7c6aa1ae0c9bf07694af521a28b93e7060020810ab4bc59f92509081900360200190a250505050565b600061242283611d3f565b9050600081116124635760405162461bcd60e51b81526004018080602001828103825260238152602001806135e26023913960400191505060405180910390fd5b61246d8282611e52565b505050565b60ca546001600160a01b0382811691161415610c835760405162461bcd60e51b81526004018080602001828103825260268152602001806136056026913960400191505060405180910390fd5b604080516001600160a01b038416602482015260448082018490528251808303909101815260649091019091526020810180516001600160e01b031663a9059cbb60e01b17905261246d908490612be2565b6001600160a01b0381166125565760405162461bcd60e51b815260040180806020018281038252603181526020018061350b6031913960400191505060405180910390fd5b6040805163c89039c560e01b6020808301919091528251808303820181529183019283905281516000936001600160a01b0386169392909182918401908083835b602083106125b65780518252601f199092019160209182019101612597565b6001836020036101000a038019825116818451168082178552505050505050905001915050600060405180830381855afa9150503d8060008114612616576040519150601f19603f3d011682016040523d82523d6000602084013e61261b565b606091505b509150506000808251111561265257600082806020019051602081101561264157600080fd5b50516001600160a01b031615159150505b8061246d5760405162461bcd60e51b81526004018080602001828103825260298152602001806133876029913960400191505060405180910390fd5b600054610100900460ff16806126a757506126a7611f44565b806126b5575060005460ff16155b6126f05760405162461bcd60e51b815260040180806020018281038252602e815260200180613449602e913960400191505060405180910390fd5b600054610100900460ff1615801561271b576000805460ff1961ff0019909116610100171660011790555b612723610be4565b610c71612ce3565b600054610100900460ff16806127445750612744611f44565b80612752575060005460ff16155b61278d5760405162461bcd60e51b815260040180806020018281038252602e815260200180613449602e913960400191505060405180910390fd5b600054610100900460ff161580156127b8576000805460ff1961ff0019909116610100171660011790555b610c71612ddc565b600054610100900460ff16806127d957506127d9611f44565b806127e7575060005460ff16155b6128225760405162461bcd60e51b815260040180806020018281038252602e815260200180613449602e913960400191505060405180910390fd5b600054610100900460ff1615801561284d576000805460ff1961ff0019909116610100171660011790555b612855610be4565b61285f8383612e82565b801561246d576000805461ff0019169055505050565b6038805460ff191660ff92909216919091179055565b801580612911575060408051636eb1769f60e11b81523060048201526001600160a01b03848116602483015291519185169163dd62ed3e91604480820192602092909190829003018186803b1580156128e357600080fd5b505afa1580156128f7573d6000803e3d6000fd5b505050506040513d602081101561290d57600080fd5b5051155b61294c5760405162461bcd60e51b81526004018080602001828103825260368152602001806136b66036913960400191505060405180910390fd5b604080516001600160a01b038416602482015260448082018490528251808303909101815260649091019091526020810180516001600160e01b031663095ea7b360e01b17905261246d908490612be2565b6000828211156129f5576040805162461bcd60e51b815260206004820152601e60248201527f536166654d6174683a207375627472616374696f6e206f766572666c6f770000604482015290519081900360640190fd5b50900390565b6000612a9182856001600160a01b031663dd62ed3e30876040518363ffffffff1660e01b815260040180836001600160a01b03168152602001826001600160a01b031681526020019250505060206040518083038186803b158015612a5f57600080fd5b505afa158015612a73573d6000803e3d6000fd5b505050506040513d6020811015612a8957600080fd5b505190611df8565b604080516001600160a01b038616602482015260448082018490528251808303909101815260649091019091526020810180516001600160e01b031663095ea7b360e01b179052909150611a55908590612be2565b6001600160a01b038216612b2b5760405162461bcd60e51b81526004018080602001828103825260218152602001806135786021913960400191505060405180910390fd5b612b378260008361246d565b612b74816040518060600160405280602281526020016132ef602291396001600160a01b0385166000908152603360205260409020549190611ca8565b6001600160a01b038316600090815260336020526040902055603554612b9a908261299e565b6035556040805182815290516000916001600160a01b038516917fddf252ad1be2c89b69c2b068fc378daa952ba7f163c4a11628f55a4df523b3ef9181900360200190a35050565b6000612c37826040518060400160405280602081526020017f5361666545524332303a206c6f772d6c6576656c2063616c6c206661696c6564815250856001600160a01b0316612f5a9092919063ffffffff16565b80519091501561246d57808060200190516020811015612c5657600080fd5b505161246d5760405162461bcd60e51b815260040180806020018281038252602a81526020018061368c602a913960400191505060405180910390fd5b600080612ca884670de0b6b3a7640000612f69565b9050612cb48184612fc2565b949350505050565b600080612cc98385612f69565b9050612cb481670de0b6b3a7640000612fc2565b3b151590565b600054610100900460ff1680612cfc5750612cfc611f44565b80612d0a575060005460ff16155b612d455760405162461bcd60e51b815260040180806020018281038252602e815260200180613449602e913960400191505060405180910390fd5b600054610100900460ff16158015612d70576000805460ff1961ff0019909116610100171660011790555b6000612d7a611a5b565b606580546001600160a01b0319166001600160a01b038316908117909155604051919250906000907f8be0079c531659141344cd1fd0a4f28419497f9722a3daafe3b4186f6b6457e0908290a3508015610c83576000805461ff001916905550565b600054610100900460ff1680612df55750612df5611f44565b80612e03575060005460ff16155b612e3e5760405162461bcd60e51b815260040180806020018281038252602e815260200180613449602e913960400191505060405180910390fd5b600054610100900460ff16158015612e69576000805460ff1961ff0019909116610100171660011790555b60016098558015610c83576000805461ff001916905550565b600054610100900460ff1680612e9b5750612e9b611f44565b80612ea9575060005460ff16155b612ee45760405162461bcd60e51b815260040180806020018281038252602e815260200180613449602e913960400191505060405180910390fd5b600054610100900460ff16158015612f0f576000805460ff1961ff0019909116610100171660011790555b8251612f2290603690602086019061322a565b508151612f3690603790602085019061322a565b506038805460ff19166012179055801561246d576000805461ff0019169055505050565b6060612cb48484600085613004565b600082612f78575060006109e2565b82820282848281612f8557fe5b0414610a6f5760405162461bcd60e51b81526004018080602001828103825260218152602001806134a26021913960400191505060405180910390fd5b6000610a6f83836040518060400160405280601a81526020017f536166654d6174683a206469766973696f6e206279207a65726f00000000000081525061315f565b6060824710156130455760405162461bcd60e51b81526004018080602001828103825260268152602001806133fb6026913960400191505060405180910390fd5b61304e85612cdd565b61309f576040805162461bcd60e51b815260206004820152601d60248201527f416464726573733a2063616c6c20746f206e6f6e2d636f6e7472616374000000604482015290519081900360640190fd5b600080866001600160a01b031685876040518082805190602001908083835b602083106130dd5780518252601f1990920191602091820191016130be565b6001836020036101000a03801982511681845116808217855250505050505090500191505060006040518083038185875af1925050503d806000811461313f576040519150601f19603f3d011682016040523d82523d6000602084013e613144565b606091505b50915091506131548282866131c4565b979650505050505050565b600081836131ae5760405162461bcd60e51b8152602060048201818152835160248401528351909283926044909101919085019080838360008315611cfc578181015183820152602001611ce4565b5060008385816131ba57fe5b0495945050505050565b606083156131d3575081610a6f565b8251156131e35782518084602001fd5b60405162461bcd60e51b8152602060048201818152845160248401528451859391928392604401919085019080838360008315611cfc578181015183820152602001611ce4565b828054600181600116156101000203166002900490600052602060002090601f01602090048101928261326057600085556132a6565b82601f1061327957805160ff19168380011785556132a6565b828001600101855582156132a6579182015b828111156132a657825182559160200191906001019061328b565b506132b29291506132b6565b5090565b5b808211156132b257600081556001016132b756fe45524332303a207472616e7366657220746f20746865207a65726f206164647265737345524332303a206275726e20616d6f756e7420657863656564732062616c616e6365537761707061626c655969656c64536f757263652f7472616e736665722d616d6f756e742d646966666572656e744f776e61626c653a206e6577206f776e657220697320746865207a65726f206164647265737345524332303a20617070726f766520746f20746865207a65726f2061646472657373537761707061626c655969656c64536f757263652f696e76616c69642d7969656c642d736f75726365537761707061626c655969656c64536f757263652f646563696d616c732d67742d7a65726f45524332303a207472616e7366657220616d6f756e7420657863656564732062616c616e6365416464726573733a20696e73756666696369656e742062616c616e636520666f722063616c6c6f6e6c794f776e65724f7241737365744d616e616765722f6f776e65722d6f722d6d616e61676572496e697469616c697a61626c653a20636f6e747261637420697320616c726561647920696e697469616c697a6564537761707061626c655969656c64536f757263652f6f776e65722d6e6f742d7a65726f2d61646472657373536166654d6174683a206d756c7469706c69636174696f6e206f766572666c6f7745524332303a207472616e7366657220616d6f756e74206578636565647320616c6c6f77616e63654f776e61626c653a2063616c6c6572206973206e6f7420746865206f776e6572537761707061626c655969656c64536f757263652f7969656c64536f757263652d6e6f742d7a65726f2d61646472657373537761707061626c655969656c64536f757263652f7969656c642d736f757263652d746f6b656e2d7472616e736665722d6e6f742d616c6c6f77656445524332303a206275726e2066726f6d20746865207a65726f206164647265737345524332303a207472616e736665722066726f6d20746865207a65726f206164647265737345524332303a20617070726f76652066726f6d20746865207a65726f2061646472657373537761707061626c655969656c64536f757263652f7368617265732d67742d7a65726f537761707061626c655969656c64536f757263652f73616d652d7969656c642d736f757263656f6e6c794f776e65724f7241737365744d616e616765722f61737365744d616e616765722d6e6f742d7a65726f2d61646472657373537761707061626c655969656c64536f757263652f646966666572656e742d6465706f7369742d746f6b656e5361666545524332303a204552433230206f7065726174696f6e20646964206e6f7420737563636565645361666545524332303a20617070726f76652066726f6d206e6f6e2d7a65726f20746f206e6f6e2d7a65726f20616c6c6f77616e636545524332303a2064656372656173656420616c6c6f77616e63652062656c6f77207a65726fa264697066735822122075089d0c9ea1f3be37fea3b5d375aba0ff94950a19f815d43c9bcc334dfd91ca64736f6c63430007060033",
          "opcodes": "PUSH1 0x80 PUSH1 0x40 MSTORE CALLVALUE DUP1 ISZERO PUSH2 0x10 JUMPI PUSH1 0x0 DUP1 REVERT JUMPDEST POP PUSH2 0x3746 DUP1 PUSH2 0x20 PUSH1 0x0 CODECOPY PUSH1 0x0 RETURN INVALID PUSH1 0x80 PUSH1 0x40 MSTORE CALLVALUE DUP1 ISZERO PUSH2 0x10 JUMPI PUSH1 0x0 DUP1 REVERT JUMPDEST POP PUSH1 0x4 CALLDATASIZE LT PUSH2 0x211 JUMPI PUSH1 0x0 CALLDATALOAD PUSH1 0xE0 SHR DUP1 PUSH4 0x87A6EEEF GT PUSH2 0x125 JUMPI DUP1 PUSH4 0xB6F97226 GT PUSH2 0xAD JUMPI DUP1 PUSH4 0xDAA4F975 GT PUSH2 0x7C JUMPI DUP1 PUSH4 0xDAA4F975 EQ PUSH2 0x710 JUMPI DUP1 PUSH4 0xDD62ED3E EQ PUSH2 0x718 JUMPI DUP1 PUSH4 0xEA453848 EQ PUSH2 0x746 JUMPI DUP1 PUSH4 0xF2B3C18F EQ PUSH2 0x76C JUMPI DUP1 PUSH4 0xF2FDE38B EQ PUSH2 0x798 JUMPI PUSH2 0x211 JUMP JUMPDEST DUP1 PUSH4 0xB6F97226 EQ PUSH2 0x5D9 JUMPI DUP1 PUSH4 0xB99152D0 EQ PUSH2 0x6BC JUMPI DUP1 PUSH4 0xC89039C5 EQ PUSH2 0x6E2 JUMPI DUP1 PUSH4 0xCDB9D42F EQ PUSH2 0x6EA JUMPI PUSH2 0x211 JUMP JUMPDEST DUP1 PUSH4 0x990DC9DB GT PUSH2 0xF4 JUMPI DUP1 PUSH4 0x990DC9DB EQ PUSH2 0x517 JUMPI DUP1 PUSH4 0x9DB5DBE4 EQ PUSH2 0x543 JUMPI DUP1 PUSH4 0xA457C2D7 EQ PUSH2 0x579 JUMPI DUP1 PUSH4 0xA9059CBB EQ PUSH2 0x5A5 JUMPI DUP1 PUSH4 0xB2470E5C EQ PUSH2 0x5D1 JUMPI PUSH2 0x211 JUMP JUMPDEST DUP1 PUSH4 0x87A6EEEF EQ PUSH2 0x4B7 JUMPI DUP1 PUSH4 0x8DA5CB5B EQ PUSH2 0x4E3 JUMPI DUP1 PUSH4 0x94217AD1 EQ PUSH2 0x507 JUMPI DUP1 PUSH4 0x95D89B41 EQ PUSH2 0x50F JUMPI PUSH2 0x211 JUMP JUMPDEST DUP1 PUSH4 0x40C10F19 GT PUSH2 0x1A8 JUMPI DUP1 PUSH4 0x6CF81EC6 GT PUSH2 0x177 JUMPI DUP1 PUSH4 0x6CF81EC6 EQ PUSH2 0x429 JUMPI DUP1 PUSH4 0x70A08231 EQ PUSH2 0x446 JUMPI DUP1 PUSH4 0x715018A6 EQ PUSH2 0x46C JUMPI DUP1 PUSH4 0x75BED0BE EQ PUSH2 0x474 JUMPI DUP1 PUSH4 0x853C637D EQ PUSH2 0x49A JUMPI PUSH2 0x211 JUMP JUMPDEST DUP1 PUSH4 0x40C10F19 EQ PUSH2 0x3A7 JUMPI DUP1 PUSH4 0x43060237 EQ PUSH2 0x3D3 JUMPI DUP1 PUSH4 0x62A5AF3B EQ PUSH2 0x3F9 JUMPI DUP1 PUSH4 0x666A0C84 EQ PUSH2 0x403 JUMPI PUSH2 0x211 JUMP JUMPDEST DUP1 PUSH4 0x23B872DD GT PUSH2 0x1E4 JUMPI DUP1 PUSH4 0x23B872DD EQ PUSH2 0x30A JUMPI DUP1 PUSH4 0x313CE567 EQ PUSH2 0x340 JUMPI DUP1 PUSH4 0x361BB0C1 EQ PUSH2 0x35E JUMPI DUP1 PUSH4 0x39509351 EQ PUSH2 0x37B JUMPI PUSH2 0x211 JUMP JUMPDEST DUP1 PUSH4 0x13054C2 EQ PUSH2 0x216 JUMPI DUP1 PUSH4 0x6FDDE03 EQ PUSH2 0x245 JUMPI DUP1 PUSH4 0x95EA7B3 EQ PUSH2 0x2C2 JUMPI DUP1 PUSH4 0x18160DDD EQ PUSH2 0x302 JUMPI JUMPDEST PUSH1 0x0 DUP1 REVERT JUMPDEST PUSH2 0x233 PUSH1 0x4 DUP1 CALLDATASIZE SUB PUSH1 0x20 DUP2 LT ISZERO PUSH2 0x22C JUMPI PUSH1 0x0 DUP1 REVERT JUMPDEST POP CALLDATALOAD PUSH2 0x7BE JUMP JUMPDEST PUSH1 0x40 DUP1 MLOAD SWAP2 DUP3 MSTORE MLOAD SWAP1 DUP2 SWAP1 SUB PUSH1 0x20 ADD SWAP1 RETURN JUMPDEST PUSH2 0x24D PUSH2 0x934 JUMP JUMPDEST PUSH1 0x40 DUP1 MLOAD PUSH1 0x20 DUP1 DUP3 MSTORE DUP4 MLOAD DUP2 DUP4 ADD MSTORE DUP4 MLOAD SWAP2 SWAP3 DUP4 SWAP3 SWAP1 DUP4 ADD SWAP2 DUP6 ADD SWAP1 DUP1 DUP4 DUP4 PUSH1 0x0 JUMPDEST DUP4 DUP2 LT ISZERO PUSH2 0x287 JUMPI DUP2 DUP2 ADD MLOAD DUP4 DUP3 ADD MSTORE PUSH1 0x20 ADD PUSH2 0x26F JUMP JUMPDEST POP POP POP POP SWAP1 POP SWAP1 DUP2 ADD SWAP1 PUSH1 0x1F AND DUP1 ISZERO PUSH2 0x2B4 JUMPI DUP1 DUP3 SUB DUP1 MLOAD PUSH1 0x1 DUP4 PUSH1 0x20 SUB PUSH2 0x100 EXP SUB NOT AND DUP2 MSTORE PUSH1 0x20 ADD SWAP2 POP JUMPDEST POP SWAP3 POP POP POP PUSH1 0x40 MLOAD DUP1 SWAP2 SUB SWAP1 RETURN JUMPDEST PUSH2 0x2EE PUSH1 0x4 DUP1 CALLDATASIZE SUB PUSH1 0x40 DUP2 LT ISZERO PUSH2 0x2D8 JUMPI PUSH1 0x0 DUP1 REVERT JUMPDEST POP PUSH1 0x1 PUSH1 0x1 PUSH1 0xA0 SHL SUB DUP2 CALLDATALOAD AND SWAP1 PUSH1 0x20 ADD CALLDATALOAD PUSH2 0x9CA JUMP JUMPDEST PUSH1 0x40 DUP1 MLOAD SWAP2 ISZERO ISZERO DUP3 MSTORE MLOAD SWAP1 DUP2 SWAP1 SUB PUSH1 0x20 ADD SWAP1 RETURN JUMPDEST PUSH2 0x233 PUSH2 0x9E8 JUMP JUMPDEST PUSH2 0x2EE PUSH1 0x4 DUP1 CALLDATASIZE SUB PUSH1 0x60 DUP2 LT ISZERO PUSH2 0x320 JUMPI PUSH1 0x0 DUP1 REVERT JUMPDEST POP PUSH1 0x1 PUSH1 0x1 PUSH1 0xA0 SHL SUB DUP2 CALLDATALOAD DUP2 AND SWAP2 PUSH1 0x20 DUP2 ADD CALLDATALOAD SWAP1 SWAP2 AND SWAP1 PUSH1 0x40 ADD CALLDATALOAD PUSH2 0x9EE JUMP JUMPDEST PUSH2 0x348 PUSH2 0xA76 JUMP JUMPDEST PUSH1 0x40 DUP1 MLOAD PUSH1 0xFF SWAP1 SWAP3 AND DUP3 MSTORE MLOAD SWAP1 DUP2 SWAP1 SUB PUSH1 0x20 ADD SWAP1 RETURN JUMPDEST PUSH2 0x233 PUSH1 0x4 DUP1 CALLDATASIZE SUB PUSH1 0x20 DUP2 LT ISZERO PUSH2 0x374 JUMPI PUSH1 0x0 DUP1 REVERT JUMPDEST POP CALLDATALOAD PUSH2 0xA7F JUMP JUMPDEST PUSH2 0x2EE PUSH1 0x4 DUP1 CALLDATASIZE SUB PUSH1 0x40 DUP2 LT ISZERO PUSH2 0x391 JUMPI PUSH1 0x0 DUP1 REVERT JUMPDEST POP PUSH1 0x1 PUSH1 0x1 PUSH1 0xA0 SHL SUB DUP2 CALLDATALOAD AND SWAP1 PUSH1 0x20 ADD CALLDATALOAD PUSH2 0xA8A JUMP JUMPDEST PUSH2 0x2EE PUSH1 0x4 DUP1 CALLDATASIZE SUB PUSH1 0x40 DUP2 LT ISZERO PUSH2 0x3BD JUMPI PUSH1 0x0 DUP1 REVERT JUMPDEST POP PUSH1 0x1 PUSH1 0x1 PUSH1 0xA0 SHL SUB DUP2 CALLDATALOAD AND SWAP1 PUSH1 0x20 ADD CALLDATALOAD PUSH2 0xAD8 JUMP JUMPDEST PUSH2 0x2EE PUSH1 0x4 DUP1 CALLDATASIZE SUB PUSH1 0x20 DUP2 LT ISZERO PUSH2 0x3E9 JUMPI PUSH1 0x0 DUP1 REVERT JUMPDEST POP CALLDATALOAD PUSH1 0x1 PUSH1 0x1 PUSH1 0xA0 SHL SUB AND PUSH2 0xAE4 JUMP JUMPDEST PUSH2 0x401 PUSH2 0xBE4 JUMP JUMPDEST STOP JUMPDEST PUSH2 0x2EE PUSH1 0x4 DUP1 CALLDATASIZE SUB PUSH1 0x20 DUP2 LT ISZERO PUSH2 0x419 JUMPI PUSH1 0x0 DUP1 REVERT JUMPDEST POP CALLDATALOAD PUSH1 0x1 PUSH1 0x1 PUSH1 0xA0 SHL SUB AND PUSH2 0xC86 JUMP JUMPDEST PUSH2 0x233 PUSH1 0x4 DUP1 CALLDATASIZE SUB PUSH1 0x20 DUP2 LT ISZERO PUSH2 0x43F JUMPI PUSH1 0x0 DUP1 REVERT JUMPDEST POP CALLDATALOAD PUSH2 0xD21 JUMP JUMPDEST PUSH2 0x233 PUSH1 0x4 DUP1 CALLDATASIZE SUB PUSH1 0x20 DUP2 LT ISZERO PUSH2 0x45C JUMPI PUSH1 0x0 DUP1 REVERT JUMPDEST POP CALLDATALOAD PUSH1 0x1 PUSH1 0x1 PUSH1 0xA0 SHL SUB AND PUSH2 0xD2C JUMP JUMPDEST PUSH2 0x401 PUSH2 0xD47 JUMP JUMPDEST PUSH2 0x2EE PUSH1 0x4 DUP1 CALLDATASIZE SUB PUSH1 0x20 DUP2 LT ISZERO PUSH2 0x48A JUMPI PUSH1 0x0 DUP1 REVERT JUMPDEST POP CALLDATALOAD PUSH1 0x1 PUSH1 0x1 PUSH1 0xA0 SHL SUB AND PUSH2 0xDF3 JUMP JUMPDEST PUSH2 0x401 PUSH1 0x4 DUP1 CALLDATASIZE SUB PUSH1 0x20 DUP2 LT ISZERO PUSH2 0x4B0 JUMPI PUSH1 0x0 DUP1 REVERT JUMPDEST POP CALLDATALOAD PUSH2 0xF0F JUMP JUMPDEST PUSH2 0x401 PUSH1 0x4 DUP1 CALLDATASIZE SUB PUSH1 0x40 DUP2 LT ISZERO PUSH2 0x4CD JUMPI PUSH1 0x0 DUP1 REVERT JUMPDEST POP DUP1 CALLDATALOAD SWAP1 PUSH1 0x20 ADD CALLDATALOAD PUSH1 0x1 PUSH1 0x1 PUSH1 0xA0 SHL SUB AND PUSH2 0xF18 JUMP JUMPDEST PUSH2 0x4EB PUSH2 0x107C JUMP JUMPDEST PUSH1 0x40 DUP1 MLOAD PUSH1 0x1 PUSH1 0x1 PUSH1 0xA0 SHL SUB SWAP1 SWAP3 AND DUP3 MSTORE MLOAD SWAP1 DUP2 SWAP1 SUB PUSH1 0x20 ADD SWAP1 RETURN JUMPDEST PUSH2 0x4EB PUSH2 0x108B JUMP JUMPDEST PUSH2 0x24D PUSH2 0x109A JUMP JUMPDEST PUSH2 0x2EE PUSH1 0x4 DUP1 CALLDATASIZE SUB PUSH1 0x40 DUP2 LT ISZERO PUSH2 0x52D JUMPI PUSH1 0x0 DUP1 REVERT JUMPDEST POP PUSH1 0x1 PUSH1 0x1 PUSH1 0xA0 SHL SUB DUP2 CALLDATALOAD AND SWAP1 PUSH1 0x20 ADD CALLDATALOAD PUSH2 0x10FB JUMP JUMPDEST PUSH2 0x2EE PUSH1 0x4 DUP1 CALLDATASIZE SUB PUSH1 0x60 DUP2 LT ISZERO PUSH2 0x559 JUMPI PUSH1 0x0 DUP1 REVERT JUMPDEST POP PUSH1 0x1 PUSH1 0x1 PUSH1 0xA0 SHL SUB DUP2 CALLDATALOAD DUP2 AND SWAP2 PUSH1 0x20 DUP2 ADD CALLDATALOAD SWAP1 SWAP2 AND SWAP1 PUSH1 0x40 ADD CALLDATALOAD PUSH2 0x1198 JUMP JUMPDEST PUSH2 0x2EE PUSH1 0x4 DUP1 CALLDATASIZE SUB PUSH1 0x40 DUP2 LT ISZERO PUSH2 0x58F JUMPI PUSH1 0x0 DUP1 REVERT JUMPDEST POP PUSH1 0x1 PUSH1 0x1 PUSH1 0xA0 SHL SUB DUP2 CALLDATALOAD AND SWAP1 PUSH1 0x20 ADD CALLDATALOAD PUSH2 0x12E2 JUMP JUMPDEST PUSH2 0x2EE PUSH1 0x4 DUP1 CALLDATASIZE SUB PUSH1 0x40 DUP2 LT ISZERO PUSH2 0x5BB JUMPI PUSH1 0x0 DUP1 REVERT JUMPDEST POP PUSH1 0x1 PUSH1 0x1 PUSH1 0xA0 SHL SUB DUP2 CALLDATALOAD AND SWAP1 PUSH1 0x20 ADD CALLDATALOAD PUSH2 0x134A JUMP JUMPDEST PUSH2 0x4EB PUSH2 0x135E JUMP JUMPDEST PUSH2 0x2EE PUSH1 0x4 DUP1 CALLDATASIZE SUB PUSH1 0xA0 DUP2 LT ISZERO PUSH2 0x5EF JUMPI PUSH1 0x0 DUP1 REVERT JUMPDEST PUSH1 0x1 PUSH1 0x1 PUSH1 0xA0 SHL SUB DUP3 CALLDATALOAD AND SWAP2 PUSH1 0xFF PUSH1 0x20 DUP3 ADD CALLDATALOAD AND SWAP2 DUP2 ADD SWAP1 PUSH1 0x60 DUP2 ADD PUSH1 0x40 DUP3 ADD CALLDATALOAD PUSH5 0x100000000 DUP2 GT ISZERO PUSH2 0x622 JUMPI PUSH1 0x0 DUP1 REVERT JUMPDEST DUP3 ADD DUP4 PUSH1 0x20 DUP3 ADD GT ISZERO PUSH2 0x634 JUMPI PUSH1 0x0 DUP1 REVERT JUMPDEST DUP1 CALLDATALOAD SWAP1 PUSH1 0x20 ADD SWAP2 DUP5 PUSH1 0x1 DUP4 MUL DUP5 ADD GT PUSH5 0x100000000 DUP4 GT OR ISZERO PUSH2 0x656 JUMPI PUSH1 0x0 DUP1 REVERT JUMPDEST SWAP2 SWAP4 SWAP1 SWAP3 SWAP1 SWAP2 PUSH1 0x20 DUP2 ADD SWAP1 CALLDATALOAD PUSH5 0x100000000 DUP2 GT ISZERO PUSH2 0x674 JUMPI PUSH1 0x0 DUP1 REVERT JUMPDEST DUP3 ADD DUP4 PUSH1 0x20 DUP3 ADD GT ISZERO PUSH2 0x686 JUMPI PUSH1 0x0 DUP1 REVERT JUMPDEST DUP1 CALLDATALOAD SWAP1 PUSH1 0x20 ADD SWAP2 DUP5 PUSH1 0x1 DUP4 MUL DUP5 ADD GT PUSH5 0x100000000 DUP4 GT OR ISZERO PUSH2 0x6A8 JUMPI PUSH1 0x0 DUP1 REVERT JUMPDEST SWAP2 SWAP4 POP SWAP2 POP CALLDATALOAD PUSH1 0x1 PUSH1 0x1 PUSH1 0xA0 SHL SUB AND PUSH2 0x136D JUMP JUMPDEST PUSH2 0x233 PUSH1 0x4 DUP1 CALLDATASIZE SUB PUSH1 0x20 DUP2 LT ISZERO PUSH2 0x6D2 JUMPI PUSH1 0x0 DUP1 REVERT JUMPDEST POP CALLDATALOAD PUSH1 0x1 PUSH1 0x1 PUSH1 0xA0 SHL SUB AND PUSH2 0x1684 JUMP JUMPDEST PUSH2 0x4EB PUSH2 0x1697 JUMP JUMPDEST PUSH2 0x401 PUSH1 0x4 DUP1 CALLDATASIZE SUB PUSH1 0x20 DUP2 LT ISZERO PUSH2 0x700 JUMPI PUSH1 0x0 DUP1 REVERT JUMPDEST POP CALLDATALOAD PUSH1 0x1 PUSH1 0x1 PUSH1 0xA0 SHL SUB AND PUSH2 0x170D JUMP JUMPDEST PUSH2 0x2EE PUSH2 0x1716 JUMP JUMPDEST PUSH2 0x233 PUSH1 0x4 DUP1 CALLDATASIZE SUB PUSH1 0x40 DUP2 LT ISZERO PUSH2 0x72E JUMPI PUSH1 0x0 DUP1 REVERT JUMPDEST POP PUSH1 0x1 PUSH1 0x1 PUSH1 0xA0 SHL SUB DUP2 CALLDATALOAD DUP2 AND SWAP2 PUSH1 0x20 ADD CALLDATALOAD AND PUSH2 0x189F JUMP JUMPDEST PUSH2 0x401 PUSH1 0x4 DUP1 CALLDATASIZE SUB PUSH1 0x20 DUP2 LT ISZERO PUSH2 0x75C JUMPI PUSH1 0x0 DUP1 REVERT JUMPDEST POP CALLDATALOAD PUSH1 0x1 PUSH1 0x1 PUSH1 0xA0 SHL SUB AND PUSH2 0x18CA JUMP JUMPDEST PUSH2 0x401 PUSH1 0x4 DUP1 CALLDATASIZE SUB PUSH1 0x40 DUP2 LT ISZERO PUSH2 0x782 JUMPI PUSH1 0x0 DUP1 REVERT JUMPDEST POP DUP1 CALLDATALOAD SWAP1 PUSH1 0x20 ADD CALLDATALOAD PUSH1 0x1 PUSH1 0x1 PUSH1 0xA0 SHL SUB AND PUSH2 0x18D3 JUMP JUMPDEST PUSH2 0x401 PUSH1 0x4 DUP1 CALLDATASIZE SUB PUSH1 0x20 DUP2 LT ISZERO PUSH2 0x7AE JUMPI PUSH1 0x0 DUP1 REVERT JUMPDEST POP CALLDATALOAD PUSH1 0x1 PUSH1 0x1 PUSH1 0xA0 SHL SUB AND PUSH2 0x18E1 JUMP JUMPDEST PUSH1 0x0 PUSH1 0x2 PUSH1 0x98 SLOAD EQ ISZERO PUSH2 0x818 JUMPI PUSH1 0x40 DUP1 MLOAD PUSH3 0x461BCD PUSH1 0xE5 SHL DUP2 MSTORE PUSH1 0x20 PUSH1 0x4 DUP3 ADD MSTORE PUSH1 0x1F PUSH1 0x24 DUP3 ADD MSTORE PUSH32 0x5265656E7472616E637947756172643A207265656E7472616E742063616C6C00 PUSH1 0x44 DUP3 ADD MSTORE SWAP1 MLOAD SWAP1 DUP2 SWAP1 SUB PUSH1 0x64 ADD SWAP1 REVERT JUMPDEST PUSH1 0x2 PUSH1 0x98 SSTORE PUSH1 0xCA SLOAD PUSH1 0x40 DUP1 MLOAD PUSH4 0xC89039C5 PUSH1 0xE0 SHL DUP2 MSTORE SWAP1 MLOAD PUSH1 0x0 SWAP3 PUSH1 0x1 PUSH1 0x1 PUSH1 0xA0 SHL SUB AND SWAP2 PUSH4 0xC89039C5 SWAP2 PUSH1 0x4 DUP1 DUP4 ADD SWAP3 PUSH1 0x20 SWAP3 SWAP2 SWAP1 DUP3 SWAP1 SUB ADD DUP2 DUP7 DUP1 EXTCODESIZE ISZERO DUP1 ISZERO PUSH2 0x862 JUMPI PUSH1 0x0 DUP1 REVERT JUMPDEST POP GAS STATICCALL ISZERO DUP1 ISZERO PUSH2 0x876 JUMPI RETURNDATASIZE PUSH1 0x0 DUP1 RETURNDATACOPY RETURNDATASIZE PUSH1 0x0 REVERT JUMPDEST POP POP POP POP PUSH1 0x40 MLOAD RETURNDATASIZE PUSH1 0x20 DUP2 LT ISZERO PUSH2 0x88C JUMPI PUSH1 0x0 DUP1 REVERT JUMPDEST POP MLOAD SWAP1 POP PUSH2 0x899 DUP4 PUSH2 0x19E4 JUMP JUMPDEST PUSH1 0xCA SLOAD PUSH1 0x40 DUP1 MLOAD PUSH3 0x982A61 PUSH1 0xE1 SHL DUP2 MSTORE PUSH1 0x4 DUP2 ADD DUP7 SWAP1 MSTORE SWAP1 MLOAD PUSH1 0x0 SWAP3 PUSH1 0x1 PUSH1 0x1 PUSH1 0xA0 SHL SUB AND SWAP2 PUSH4 0x13054C2 SWAP2 PUSH1 0x24 DUP1 DUP4 ADD SWAP3 PUSH1 0x20 SWAP3 SWAP2 SWAP1 DUP3 SWAP1 SUB ADD DUP2 DUP8 DUP8 DUP1 EXTCODESIZE ISZERO DUP1 ISZERO PUSH2 0x8E5 JUMPI PUSH1 0x0 DUP1 REVERT JUMPDEST POP GAS CALL ISZERO DUP1 ISZERO PUSH2 0x8F9 JUMPI RETURNDATASIZE PUSH1 0x0 DUP1 RETURNDATACOPY RETURNDATASIZE PUSH1 0x0 REVERT JUMPDEST POP POP POP POP PUSH1 0x40 MLOAD RETURNDATASIZE PUSH1 0x20 DUP2 LT ISZERO PUSH2 0x90F JUMPI PUSH1 0x0 DUP1 REVERT JUMPDEST POP MLOAD SWAP1 POP PUSH2 0x928 PUSH1 0x1 PUSH1 0x1 PUSH1 0xA0 SHL SUB DUP4 AND ADDRESS CALLER DUP5 PUSH2 0x19FB JUMP JUMPDEST PUSH1 0x1 PUSH1 0x98 SSTORE SWAP4 SWAP3 POP POP POP JUMP JUMPDEST PUSH1 0x36 DUP1 SLOAD PUSH1 0x40 DUP1 MLOAD PUSH1 0x20 PUSH1 0x1F PUSH1 0x2 PUSH1 0x0 NOT PUSH2 0x100 PUSH1 0x1 DUP9 AND ISZERO MUL ADD SWAP1 SWAP6 AND SWAP5 SWAP1 SWAP5 DIV SWAP4 DUP5 ADD DUP2 SWAP1 DIV DUP2 MUL DUP3 ADD DUP2 ADD SWAP1 SWAP3 MSTORE DUP3 DUP2 MSTORE PUSH1 0x60 SWAP4 SWAP1 SWAP3 SWAP1 SWAP2 DUP4 ADD DUP3 DUP3 DUP1 ISZERO PUSH2 0x9C0 JUMPI DUP1 PUSH1 0x1F LT PUSH2 0x995 JUMPI PUSH2 0x100 DUP1 DUP4 SLOAD DIV MUL DUP4 MSTORE SWAP2 PUSH1 0x20 ADD SWAP2 PUSH2 0x9C0 JUMP JUMPDEST DUP3 ADD SWAP2 SWAP1 PUSH1 0x0 MSTORE PUSH1 0x20 PUSH1 0x0 KECCAK256 SWAP1 JUMPDEST DUP2 SLOAD DUP2 MSTORE SWAP1 PUSH1 0x1 ADD SWAP1 PUSH1 0x20 ADD DUP1 DUP4 GT PUSH2 0x9A3 JUMPI DUP3 SWAP1 SUB PUSH1 0x1F AND DUP3 ADD SWAP2 JUMPDEST POP POP POP POP POP SWAP1 POP SWAP1 JUMP JUMPDEST PUSH1 0x0 PUSH2 0x9DE PUSH2 0x9D7 PUSH2 0x1A5B JUMP JUMPDEST DUP5 DUP5 PUSH2 0x1A5F JUMP JUMPDEST POP PUSH1 0x1 JUMPDEST SWAP3 SWAP2 POP POP JUMP JUMPDEST PUSH1 0x35 SLOAD SWAP1 JUMP JUMPDEST PUSH1 0x0 PUSH2 0x9FB DUP5 DUP5 DUP5 PUSH2 0x1B4B JUMP JUMPDEST PUSH2 0xA6B DUP5 PUSH2 0xA07 PUSH2 0x1A5B JUMP JUMPDEST PUSH2 0xA66 DUP6 PUSH1 0x40 MLOAD DUP1 PUSH1 0x60 ADD PUSH1 0x40 MSTORE DUP1 PUSH1 0x28 DUP2 MSTORE PUSH1 0x20 ADD PUSH2 0x34C3 PUSH1 0x28 SWAP2 CODECOPY PUSH1 0x1 PUSH1 0x1 PUSH1 0xA0 SHL SUB DUP11 AND PUSH1 0x0 SWAP1 DUP2 MSTORE PUSH1 0x34 PUSH1 0x20 MSTORE PUSH1 0x40 DUP2 KECCAK256 SWAP1 PUSH2 0xA45 PUSH2 0x1A5B JUMP JUMPDEST PUSH1 0x1 PUSH1 0x1 PUSH1 0xA0 SHL SUB AND DUP2 MSTORE PUSH1 0x20 DUP2 ADD SWAP2 SWAP1 SWAP2 MSTORE PUSH1 0x40 ADD PUSH1 0x0 KECCAK256 SLOAD SWAP2 SWAP1 PUSH2 0x1CA8 JUMP JUMPDEST PUSH2 0x1A5F JUMP JUMPDEST POP PUSH1 0x1 JUMPDEST SWAP4 SWAP3 POP POP POP JUMP JUMPDEST PUSH1 0x38 SLOAD PUSH1 0xFF AND SWAP1 JUMP JUMPDEST PUSH1 0x0 PUSH2 0x9E2 DUP3 PUSH2 0x1D3F JUMP JUMPDEST PUSH1 0x0 PUSH2 0x9DE PUSH2 0xA97 PUSH2 0x1A5B JUMP JUMPDEST DUP5 PUSH2 0xA66 DUP6 PUSH1 0x34 PUSH1 0x0 PUSH2 0xAA8 PUSH2 0x1A5B JUMP JUMPDEST PUSH1 0x1 PUSH1 0x1 PUSH1 0xA0 SHL SUB SWAP1 DUP2 AND DUP3 MSTORE PUSH1 0x20 DUP1 DUP4 ADD SWAP4 SWAP1 SWAP4 MSTORE PUSH1 0x40 SWAP2 DUP3 ADD PUSH1 0x0 SWAP1 DUP2 KECCAK256 SWAP2 DUP13 AND DUP2 MSTORE SWAP3 MSTORE SWAP1 KECCAK256 SLOAD SWAP1 PUSH2 0x1DF8 JUMP JUMPDEST PUSH1 0x0 PUSH2 0x9DE DUP4 DUP4 PUSH2 0x1E52 JUMP JUMPDEST PUSH1 0x0 PUSH2 0xAEE PUSH2 0x1A5B JUMP JUMPDEST PUSH1 0x1 PUSH1 0x1 PUSH1 0xA0 SHL SUB AND PUSH2 0xAFF PUSH2 0x107C JUMP JUMPDEST PUSH1 0x1 PUSH1 0x1 PUSH1 0xA0 SHL SUB AND EQ PUSH2 0xB48 JUMPI PUSH1 0x40 DUP1 MLOAD PUSH3 0x461BCD PUSH1 0xE5 SHL DUP2 MSTORE PUSH1 0x20 PUSH1 0x4 DUP3 ADD DUP2 SWAP1 MSTORE PUSH1 0x24 DUP3 ADD MSTORE PUSH1 0x0 DUP1 MLOAD PUSH1 0x20 PUSH2 0x34EB DUP4 CODECOPY DUP2 MLOAD SWAP2 MSTORE PUSH1 0x44 DUP3 ADD MSTORE SWAP1 MLOAD SWAP1 DUP2 SWAP1 SUB PUSH1 0x64 ADD SWAP1 REVERT JUMPDEST PUSH1 0x1 PUSH1 0x1 PUSH1 0xA0 SHL SUB DUP3 AND PUSH2 0xB8D JUMPI PUSH1 0x40 MLOAD PUSH3 0x461BCD PUSH1 0xE5 SHL DUP2 MSTORE PUSH1 0x4 ADD DUP1 DUP1 PUSH1 0x20 ADD DUP3 DUP2 SUB DUP3 MSTORE PUSH1 0x35 DUP2 MSTORE PUSH1 0x20 ADD DUP1 PUSH2 0x362B PUSH1 0x35 SWAP2 CODECOPY PUSH1 0x40 ADD SWAP2 POP POP PUSH1 0x40 MLOAD DUP1 SWAP2 SUB SWAP1 REVERT JUMPDEST PUSH1 0x97 DUP1 SLOAD PUSH1 0x1 PUSH1 0x1 PUSH1 0xA0 SHL SUB DUP5 DUP2 AND PUSH1 0x1 PUSH1 0x1 PUSH1 0xA0 SHL SUB NOT DUP4 AND DUP2 OR SWAP1 SWAP4 SSTORE PUSH1 0x40 MLOAD SWAP2 AND SWAP2 SWAP1 DUP3 SWAP1 PUSH32 0xA4D7DB5805A7DDEE85566735EB5D575B0894CEF3FE057B4FA1B52090D8C22068 SWAP1 PUSH1 0x0 SWAP1 LOG3 POP PUSH1 0x1 SWAP3 SWAP2 POP POP JUMP JUMPDEST PUSH1 0x0 SLOAD PUSH2 0x100 SWAP1 DIV PUSH1 0xFF AND DUP1 PUSH2 0xBFD JUMPI POP PUSH2 0xBFD PUSH2 0x1F44 JUMP JUMPDEST DUP1 PUSH2 0xC0B JUMPI POP PUSH1 0x0 SLOAD PUSH1 0xFF AND ISZERO JUMPDEST PUSH2 0xC46 JUMPI PUSH1 0x40 MLOAD PUSH3 0x461BCD PUSH1 0xE5 SHL DUP2 MSTORE PUSH1 0x4 ADD DUP1 DUP1 PUSH1 0x20 ADD DUP3 DUP2 SUB DUP3 MSTORE PUSH1 0x2E DUP2 MSTORE PUSH1 0x20 ADD DUP1 PUSH2 0x3449 PUSH1 0x2E SWAP2 CODECOPY PUSH1 0x40 ADD SWAP2 POP POP PUSH1 0x40 MLOAD DUP1 SWAP2 SUB SWAP1 REVERT JUMPDEST PUSH1 0x0 SLOAD PUSH2 0x100 SWAP1 DIV PUSH1 0xFF AND ISZERO DUP1 ISZERO PUSH2 0xC71 JUMPI PUSH1 0x0 DUP1 SLOAD PUSH1 0xFF NOT PUSH2 0xFF00 NOT SWAP1 SWAP2 AND PUSH2 0x100 OR AND PUSH1 0x1 OR SWAP1 SSTORE JUMPDEST DUP1 ISZERO PUSH2 0xC83 JUMPI PUSH1 0x0 DUP1 SLOAD PUSH2 0xFF00 NOT AND SWAP1 SSTORE JUMPDEST POP JUMP JUMPDEST PUSH1 0x0 PUSH2 0xC90 PUSH2 0x1A5B JUMP JUMPDEST PUSH1 0x1 PUSH1 0x1 PUSH1 0xA0 SHL SUB AND PUSH2 0xCA1 PUSH2 0x108B JUMP JUMPDEST PUSH1 0x1 PUSH1 0x1 PUSH1 0xA0 SHL SUB AND EQ DUP1 PUSH2 0xCD5 JUMPI POP PUSH2 0xCB9 PUSH2 0x1A5B JUMP JUMPDEST PUSH1 0x1 PUSH1 0x1 PUSH1 0xA0 SHL SUB AND PUSH2 0xCCA PUSH2 0x107C JUMP JUMPDEST PUSH1 0x1 PUSH1 0x1 PUSH1 0xA0 SHL SUB AND EQ JUMPDEST PUSH2 0xD10 JUMPI PUSH1 0x40 MLOAD PUSH3 0x461BCD PUSH1 0xE5 SHL DUP2 MSTORE PUSH1 0x4 ADD DUP1 DUP1 PUSH1 0x20 ADD DUP3 DUP2 SUB DUP3 MSTORE PUSH1 0x28 DUP2 MSTORE PUSH1 0x20 ADD DUP1 PUSH2 0x3421 PUSH1 0x28 SWAP2 CODECOPY PUSH1 0x40 ADD SWAP2 POP POP PUSH1 0x40 MLOAD DUP1 SWAP2 SUB SWAP1 REVERT JUMPDEST PUSH2 0xD19 DUP3 PUSH2 0x1F55 JUMP JUMPDEST POP PUSH1 0x1 SWAP2 SWAP1 POP JUMP JUMPDEST PUSH1 0x0 PUSH2 0x9E2 DUP3 PUSH2 0x212B JUMP JUMPDEST PUSH1 0x1 PUSH1 0x1 PUSH1 0xA0 SHL SUB AND PUSH1 0x0 SWAP1 DUP2 MSTORE PUSH1 0x33 PUSH1 0x20 MSTORE PUSH1 0x40 SWAP1 KECCAK256 SLOAD SWAP1 JUMP JUMPDEST PUSH2 0xD4F PUSH2 0x1A5B JUMP JUMPDEST PUSH1 0x1 PUSH1 0x1 PUSH1 0xA0 SHL SUB AND PUSH2 0xD60 PUSH2 0x107C JUMP JUMPDEST PUSH1 0x1 PUSH1 0x1 PUSH1 0xA0 SHL SUB AND EQ PUSH2 0xDA9 JUMPI PUSH1 0x40 DUP1 MLOAD PUSH3 0x461BCD PUSH1 0xE5 SHL DUP2 MSTORE PUSH1 0x20 PUSH1 0x4 DUP3 ADD DUP2 SWAP1 MSTORE PUSH1 0x24 DUP3 ADD MSTORE PUSH1 0x0 DUP1 MLOAD PUSH1 0x20 PUSH2 0x34EB DUP4 CODECOPY DUP2 MLOAD SWAP2 MSTORE PUSH1 0x44 DUP3 ADD MSTORE SWAP1 MLOAD SWAP1 DUP2 SWAP1 SUB PUSH1 0x64 ADD SWAP1 REVERT JUMPDEST PUSH1 0x65 SLOAD PUSH1 0x40 MLOAD PUSH1 0x0 SWAP2 PUSH1 0x1 PUSH1 0x1 PUSH1 0xA0 SHL SUB AND SWAP1 PUSH32 0x8BE0079C531659141344CD1FD0A4F28419497F9722A3DAAFE3B4186F6B6457E0 SWAP1 DUP4 SWAP1 LOG3 PUSH1 0x65 DUP1 SLOAD PUSH1 0x1 PUSH1 0x1 PUSH1 0xA0 SHL SUB NOT AND SWAP1 SSTORE JUMP JUMPDEST PUSH1 0x0 PUSH2 0xDFD PUSH2 0x1A5B JUMP JUMPDEST PUSH1 0x1 PUSH1 0x1 PUSH1 0xA0 SHL SUB AND PUSH2 0xE0E PUSH2 0x108B JUMP JUMPDEST PUSH1 0x1 PUSH1 0x1 PUSH1 0xA0 SHL SUB AND EQ DUP1 PUSH2 0xE42 JUMPI POP PUSH2 0xE26 PUSH2 0x1A5B JUMP JUMPDEST PUSH1 0x1 PUSH1 0x1 PUSH1 0xA0 SHL SUB AND PUSH2 0xE37 PUSH2 0x107C JUMP JUMPDEST PUSH1 0x1 PUSH1 0x1 PUSH1 0xA0 SHL SUB AND EQ JUMPDEST PUSH2 0xE7D JUMPI PUSH1 0x40 MLOAD PUSH3 0x461BCD PUSH1 0xE5 SHL DUP2 MSTORE PUSH1 0x4 ADD DUP1 DUP1 PUSH1 0x20 ADD DUP3 DUP2 SUB DUP3 MSTORE PUSH1 0x28 DUP2 MSTORE PUSH1 0x20 ADD DUP1 PUSH2 0x3421 PUSH1 0x28 SWAP2 CODECOPY PUSH1 0x40 ADD SWAP2 POP POP PUSH1 0x40 MLOAD DUP1 SWAP2 SUB SWAP1 REVERT JUMPDEST PUSH1 0xCA SLOAD PUSH1 0x40 DUP1 MLOAD PUSH4 0xB99152D PUSH1 0xE4 SHL DUP2 MSTORE ADDRESS PUSH1 0x4 DUP3 ADD MSTORE SWAP1 MLOAD PUSH1 0x1 PUSH1 0x1 PUSH1 0xA0 SHL SUB SWAP1 SWAP3 AND SWAP2 PUSH1 0x0 SWAP2 DUP4 SWAP2 PUSH4 0xB99152D0 SWAP2 PUSH1 0x24 DUP1 DUP3 ADD SWAP3 PUSH1 0x20 SWAP3 SWAP1 SWAP2 SWAP1 DUP3 SWAP1 SUB ADD DUP2 DUP8 DUP8 DUP1 EXTCODESIZE ISZERO DUP1 ISZERO PUSH2 0xECE JUMPI PUSH1 0x0 DUP1 REVERT JUMPDEST POP GAS CALL ISZERO DUP1 ISZERO PUSH2 0xEE2 JUMPI RETURNDATASIZE PUSH1 0x0 DUP1 RETURNDATACOPY RETURNDATASIZE PUSH1 0x0 REVERT JUMPDEST POP POP POP POP PUSH1 0x40 MLOAD RETURNDATASIZE PUSH1 0x20 DUP2 LT ISZERO PUSH2 0xEF8 JUMPI PUSH1 0x0 DUP1 REVERT JUMPDEST POP MLOAD SWAP1 POP PUSH2 0xF05 DUP5 PUSH2 0x1F55 JUMP JUMPDEST PUSH2 0xA6B DUP3 DUP3 PUSH2 0x21CC JUMP JUMPDEST PUSH2 0xC83 DUP2 PUSH2 0x19E4 JUMP JUMPDEST PUSH1 0x2 PUSH1 0x98 SLOAD EQ ISZERO PUSH2 0xF70 JUMPI PUSH1 0x40 DUP1 MLOAD PUSH3 0x461BCD PUSH1 0xE5 SHL DUP2 MSTORE PUSH1 0x20 PUSH1 0x4 DUP3 ADD MSTORE PUSH1 0x1F PUSH1 0x24 DUP3 ADD MSTORE PUSH32 0x5265656E7472616E637947756172643A207265656E7472616E742063616C6C00 PUSH1 0x44 DUP3 ADD MSTORE SWAP1 MLOAD SWAP1 DUP2 SWAP1 SUB PUSH1 0x64 ADD SWAP1 REVERT JUMPDEST PUSH1 0x2 PUSH1 0x98 SSTORE PUSH1 0xCA SLOAD PUSH1 0x40 DUP1 MLOAD PUSH4 0xC89039C5 PUSH1 0xE0 SHL DUP2 MSTORE SWAP1 MLOAD PUSH1 0x0 SWAP3 PUSH1 0x1 PUSH1 0x1 PUSH1 0xA0 SHL SUB AND SWAP2 PUSH4 0xC89039C5 SWAP2 PUSH1 0x4 DUP1 DUP4 ADD SWAP3 PUSH1 0x20 SWAP3 SWAP2 SWAP1 DUP3 SWAP1 SUB ADD DUP2 DUP7 DUP1 EXTCODESIZE ISZERO DUP1 ISZERO PUSH2 0xFBA JUMPI PUSH1 0x0 DUP1 REVERT JUMPDEST POP GAS STATICCALL ISZERO DUP1 ISZERO PUSH2 0xFCE JUMPI RETURNDATASIZE PUSH1 0x0 DUP1 RETURNDATACOPY RETURNDATASIZE PUSH1 0x0 REVERT JUMPDEST POP POP POP POP PUSH1 0x40 MLOAD RETURNDATASIZE PUSH1 0x20 DUP2 LT ISZERO PUSH2 0xFE4 JUMPI PUSH1 0x0 DUP1 REVERT JUMPDEST POP MLOAD SWAP1 POP PUSH2 0xFFD PUSH1 0x1 PUSH1 0x1 PUSH1 0xA0 SHL SUB DUP3 AND CALLER ADDRESS DUP7 PUSH2 0x19FB JUMP JUMPDEST PUSH1 0xCA SLOAD PUSH1 0x40 DUP1 MLOAD PUSH4 0x87A6EEEF PUSH1 0xE0 SHL DUP2 MSTORE PUSH1 0x4 DUP2 ADD DUP7 SWAP1 MSTORE ADDRESS PUSH1 0x24 DUP3 ADD MSTORE SWAP1 MLOAD PUSH1 0x1 PUSH1 0x1 PUSH1 0xA0 SHL SUB SWAP1 SWAP3 AND SWAP2 PUSH4 0x87A6EEEF SWAP2 PUSH1 0x44 DUP1 DUP3 ADD SWAP3 PUSH1 0x0 SWAP3 SWAP1 SWAP2 SWAP1 DUP3 SWAP1 SUB ADD DUP2 DUP4 DUP8 DUP1 EXTCODESIZE ISZERO DUP1 ISZERO PUSH2 0x1050 JUMPI PUSH1 0x0 DUP1 REVERT JUMPDEST POP GAS CALL ISZERO DUP1 ISZERO PUSH2 0x1064 JUMPI RETURNDATASIZE PUSH1 0x0 DUP1 RETURNDATACOPY RETURNDATASIZE PUSH1 0x0 REVERT JUMPDEST POP POP POP POP PUSH2 0x1072 DUP4 DUP4 PUSH2 0x2417 JUMP JUMPDEST POP POP PUSH1 0x1 PUSH1 0x98 SSTORE POP JUMP JUMPDEST PUSH1 0x65 SLOAD PUSH1 0x1 PUSH1 0x1 PUSH1 0xA0 SHL SUB AND SWAP1 JUMP JUMPDEST PUSH1 0x97 SLOAD PUSH1 0x1 PUSH1 0x1 PUSH1 0xA0 SHL SUB AND SWAP1 JUMP JUMPDEST PUSH1 0x37 DUP1 SLOAD PUSH1 0x40 DUP1 MLOAD PUSH1 0x20 PUSH1 0x1F PUSH1 0x2 PUSH1 0x0 NOT PUSH2 0x100 PUSH1 0x1 DUP9 AND ISZERO MUL ADD SWAP1 SWAP6 AND SWAP5 SWAP1 SWAP5 DIV SWAP4 DUP5 ADD DUP2 SWAP1 DIV DUP2 MUL DUP3 ADD DUP2 ADD SWAP1 SWAP3 MSTORE DUP3 DUP2 MSTORE PUSH1 0x60 SWAP4 SWAP1 SWAP3 SWAP1 SWAP2 DUP4 ADD DUP3 DUP3 DUP1 ISZERO PUSH2 0x9C0 JUMPI DUP1 PUSH1 0x1F LT PUSH2 0x995 JUMPI PUSH2 0x100 DUP1 DUP4 SLOAD DIV MUL DUP4 MSTORE SWAP2 PUSH1 0x20 ADD SWAP2 PUSH2 0x9C0 JUMP JUMPDEST PUSH1 0x0 PUSH2 0x1105 PUSH2 0x1A5B JUMP JUMPDEST PUSH1 0x1 PUSH1 0x1 PUSH1 0xA0 SHL SUB AND PUSH2 0x1116 PUSH2 0x108B JUMP JUMPDEST PUSH1 0x1 PUSH1 0x1 PUSH1 0xA0 SHL SUB AND EQ DUP1 PUSH2 0x114A JUMPI POP PUSH2 0x112E PUSH2 0x1A5B JUMP JUMPDEST PUSH1 0x1 PUSH1 0x1 PUSH1 0xA0 SHL SUB AND PUSH2 0x113F PUSH2 0x107C JUMP JUMPDEST PUSH1 0x1 PUSH1 0x1 PUSH1 0xA0 SHL SUB AND EQ JUMPDEST PUSH2 0x1185 JUMPI PUSH1 0x40 MLOAD PUSH3 0x461BCD PUSH1 0xE5 SHL DUP2 MSTORE PUSH1 0x4 ADD DUP1 DUP1 PUSH1 0x20 ADD DUP3 DUP2 SUB DUP3 MSTORE PUSH1 0x28 DUP2 MSTORE PUSH1 0x20 ADD DUP1 PUSH2 0x3421 PUSH1 0x28 SWAP2 CODECOPY PUSH1 0x40 ADD SWAP2 POP POP PUSH1 0x40 MLOAD DUP1 SWAP2 SUB SWAP1 REVERT JUMPDEST PUSH2 0x118E DUP4 PUSH2 0x2472 JUMP JUMPDEST PUSH2 0x9DE DUP4 DUP4 PUSH2 0x21CC JUMP JUMPDEST PUSH1 0x0 PUSH2 0x11A2 PUSH2 0x1A5B JUMP JUMPDEST PUSH1 0x1 PUSH1 0x1 PUSH1 0xA0 SHL SUB AND PUSH2 0x11B3 PUSH2 0x108B JUMP JUMPDEST PUSH1 0x1 PUSH1 0x1 PUSH1 0xA0 SHL SUB AND EQ DUP1 PUSH2 0x11E7 JUMPI POP PUSH2 0x11CB PUSH2 0x1A5B JUMP JUMPDEST PUSH1 0x1 PUSH1 0x1 PUSH1 0xA0 SHL SUB AND PUSH2 0x11DC PUSH2 0x107C JUMP JUMPDEST PUSH1 0x1 PUSH1 0x1 PUSH1 0xA0 SHL SUB AND EQ JUMPDEST PUSH2 0x1222 JUMPI PUSH1 0x40 MLOAD PUSH3 0x461BCD PUSH1 0xE5 SHL DUP2 MSTORE PUSH1 0x4 ADD DUP1 DUP1 PUSH1 0x20 ADD DUP3 DUP2 SUB DUP3 MSTORE PUSH1 0x28 DUP2 MSTORE PUSH1 0x20 ADD DUP1 PUSH2 0x3421 PUSH1 0x28 SWAP2 CODECOPY PUSH1 0x40 ADD SWAP2 POP POP PUSH1 0x40 MLOAD DUP1 SWAP2 SUB SWAP1 REVERT JUMPDEST PUSH1 0xCA SLOAD PUSH1 0x1 PUSH1 0x1 PUSH1 0xA0 SHL SUB DUP6 DUP2 AND SWAP2 AND EQ ISZERO PUSH2 0x126F JUMPI PUSH1 0x40 MLOAD PUSH3 0x461BCD PUSH1 0xE5 SHL DUP2 MSTORE PUSH1 0x4 ADD DUP1 DUP1 PUSH1 0x20 ADD DUP3 DUP2 SUB DUP3 MSTORE PUSH1 0x3C DUP2 MSTORE PUSH1 0x20 ADD DUP1 PUSH2 0x353C PUSH1 0x3C SWAP2 CODECOPY PUSH1 0x40 ADD SWAP2 POP POP PUSH1 0x40 MLOAD DUP1 SWAP2 SUB SWAP1 REVERT JUMPDEST PUSH2 0x1283 PUSH1 0x1 PUSH1 0x1 PUSH1 0xA0 SHL SUB DUP6 AND DUP5 DUP5 PUSH2 0x24BF JUMP JUMPDEST DUP4 PUSH1 0x1 PUSH1 0x1 PUSH1 0xA0 SHL SUB AND DUP4 PUSH1 0x1 PUSH1 0x1 PUSH1 0xA0 SHL SUB AND CALLER PUSH1 0x1 PUSH1 0x1 PUSH1 0xA0 SHL SUB AND PUSH32 0x29FCB7BB954D37295343E742BAB21760748BDBA4E026E4469A81001839969138 DUP6 PUSH1 0x40 MLOAD DUP1 DUP3 DUP2 MSTORE PUSH1 0x20 ADD SWAP2 POP POP PUSH1 0x40 MLOAD DUP1 SWAP2 SUB SWAP1 LOG4 POP PUSH1 0x1 SWAP4 SWAP3 POP POP POP JUMP JUMPDEST PUSH1 0x0 PUSH2 0x9DE PUSH2 0x12EF PUSH2 0x1A5B JUMP JUMPDEST DUP5 PUSH2 0xA66 DUP6 PUSH1 0x40 MLOAD DUP1 PUSH1 0x60 ADD PUSH1 0x40 MSTORE DUP1 PUSH1 0x25 DUP2 MSTORE PUSH1 0x20 ADD PUSH2 0x36EC PUSH1 0x25 SWAP2 CODECOPY PUSH1 0x34 PUSH1 0x0 PUSH2 0x1319 PUSH2 0x1A5B JUMP JUMPDEST PUSH1 0x1 PUSH1 0x1 PUSH1 0xA0 SHL SUB SWAP1 DUP2 AND DUP3 MSTORE PUSH1 0x20 DUP1 DUP4 ADD SWAP4 SWAP1 SWAP4 MSTORE PUSH1 0x40 SWAP2 DUP3 ADD PUSH1 0x0 SWAP1 DUP2 KECCAK256 SWAP2 DUP14 AND DUP2 MSTORE SWAP3 MSTORE SWAP1 KECCAK256 SLOAD SWAP2 SWAP1 PUSH2 0x1CA8 JUMP JUMPDEST PUSH1 0x0 PUSH2 0x9DE PUSH2 0x1357 PUSH2 0x1A5B JUMP JUMPDEST DUP5 DUP5 PUSH2 0x1B4B JUMP JUMPDEST PUSH1 0xCA SLOAD PUSH1 0x1 PUSH1 0x1 PUSH1 0xA0 SHL SUB AND DUP2 JUMP JUMPDEST PUSH1 0x0 DUP1 SLOAD PUSH2 0x100 SWAP1 DIV PUSH1 0xFF AND DUP1 PUSH2 0x1387 JUMPI POP PUSH2 0x1387 PUSH2 0x1F44 JUMP JUMPDEST DUP1 PUSH2 0x1395 JUMPI POP PUSH1 0x0 SLOAD PUSH1 0xFF AND ISZERO JUMPDEST PUSH2 0x13D0 JUMPI PUSH1 0x40 MLOAD PUSH3 0x461BCD PUSH1 0xE5 SHL DUP2 MSTORE PUSH1 0x4 ADD DUP1 DUP1 PUSH1 0x20 ADD DUP3 DUP2 SUB DUP3 MSTORE PUSH1 0x2E DUP2 MSTORE PUSH1 0x20 ADD DUP1 PUSH2 0x3449 PUSH1 0x2E SWAP2 CODECOPY PUSH1 0x40 ADD SWAP2 POP POP PUSH1 0x40 MLOAD DUP1 SWAP2 SUB SWAP1 REVERT JUMPDEST PUSH1 0x0 SLOAD PUSH2 0x100 SWAP1 DIV PUSH1 0xFF AND ISZERO DUP1 ISZERO PUSH2 0x13FB JUMPI PUSH1 0x0 DUP1 SLOAD PUSH1 0xFF NOT PUSH2 0xFF00 NOT SWAP1 SWAP2 AND PUSH2 0x100 OR AND PUSH1 0x1 OR SWAP1 SSTORE JUMPDEST PUSH2 0x1404 DUP10 PUSH2 0x2511 JUMP JUMPDEST PUSH1 0xCA DUP1 SLOAD PUSH1 0x1 PUSH1 0x1 PUSH1 0xA0 SHL SUB NOT AND PUSH1 0x1 PUSH1 0x1 PUSH1 0xA0 SHL SUB DUP12 AND OR SWAP1 SSTORE PUSH2 0x1427 PUSH2 0x268E JUMP JUMPDEST PUSH1 0x1 PUSH1 0x1 PUSH1 0xA0 SHL SUB DUP4 AND PUSH2 0x146C JUMPI PUSH1 0x40 MLOAD PUSH3 0x461BCD PUSH1 0xE5 SHL DUP2 MSTORE PUSH1 0x4 ADD DUP1 DUP1 PUSH1 0x20 ADD DUP3 DUP2 SUB DUP3 MSTORE PUSH1 0x2B DUP2 MSTORE PUSH1 0x20 ADD DUP1 PUSH2 0x3477 PUSH1 0x2B SWAP2 CODECOPY PUSH1 0x40 ADD SWAP2 POP POP PUSH1 0x40 MLOAD DUP1 SWAP2 SUB SWAP1 REVERT JUMPDEST PUSH2 0x1475 DUP4 PUSH2 0x18E1 JUMP JUMPDEST PUSH2 0x147D PUSH2 0x272B JUMP JUMPDEST PUSH2 0x14F0 DUP6 DUP6 DUP1 DUP1 PUSH1 0x1F ADD PUSH1 0x20 DUP1 SWAP2 DIV MUL PUSH1 0x20 ADD PUSH1 0x40 MLOAD SWAP1 DUP2 ADD PUSH1 0x40 MSTORE DUP1 SWAP4 SWAP3 SWAP2 SWAP1 DUP2 DUP2 MSTORE PUSH1 0x20 ADD DUP4 DUP4 DUP1 DUP3 DUP5 CALLDATACOPY PUSH1 0x0 SWAP3 ADD SWAP2 SWAP1 SWAP2 MSTORE POP POP PUSH1 0x40 DUP1 MLOAD PUSH1 0x20 PUSH1 0x1F DUP14 ADD DUP2 SWAP1 DIV DUP2 MUL DUP3 ADD DUP2 ADD SWAP1 SWAP3 MSTORE DUP12 DUP2 MSTORE SWAP3 POP DUP12 SWAP2 POP DUP11 SWAP1 DUP2 SWAP1 DUP5 ADD DUP4 DUP3 DUP1 DUP3 DUP5 CALLDATACOPY PUSH1 0x0 SWAP3 ADD SWAP2 SWAP1 SWAP2 MSTORE POP PUSH2 0x27C0 SWAP3 POP POP POP JUMP JUMPDEST PUSH1 0x0 DUP9 PUSH1 0xFF AND GT PUSH2 0x1532 JUMPI PUSH1 0x40 MLOAD PUSH3 0x461BCD PUSH1 0xE5 SHL DUP2 MSTORE PUSH1 0x4 ADD DUP1 DUP1 PUSH1 0x20 ADD DUP3 DUP2 SUB DUP3 MSTORE PUSH1 0x25 DUP2 MSTORE PUSH1 0x20 ADD DUP1 PUSH2 0x33B0 PUSH1 0x25 SWAP2 CODECOPY PUSH1 0x40 ADD SWAP2 POP POP PUSH1 0x40 MLOAD DUP1 SWAP2 SUB SWAP1 REVERT JUMPDEST PUSH2 0x153B DUP9 PUSH2 0x2875 JUMP JUMPDEST PUSH2 0x15B7 DUP10 PUSH1 0x0 NOT DUP12 PUSH1 0x1 PUSH1 0x1 PUSH1 0xA0 SHL SUB AND PUSH4 0xC89039C5 PUSH1 0x40 MLOAD DUP2 PUSH4 0xFFFFFFFF AND PUSH1 0xE0 SHL DUP2 MSTORE PUSH1 0x4 ADD PUSH1 0x20 PUSH1 0x40 MLOAD DUP1 DUP4 SUB DUP2 DUP7 DUP1 EXTCODESIZE ISZERO DUP1 ISZERO PUSH2 0x157B JUMPI PUSH1 0x0 DUP1 REVERT JUMPDEST POP GAS STATICCALL ISZERO DUP1 ISZERO PUSH2 0x158F JUMPI RETURNDATASIZE PUSH1 0x0 DUP1 RETURNDATACOPY RETURNDATASIZE PUSH1 0x0 REVERT JUMPDEST POP POP POP POP PUSH1 0x40 MLOAD RETURNDATASIZE PUSH1 0x20 DUP2 LT ISZERO PUSH2 0x15A5 JUMPI PUSH1 0x0 DUP1 REVERT JUMPDEST POP MLOAD PUSH1 0x1 PUSH1 0x1 PUSH1 0xA0 SHL SUB AND SWAP2 SWAP1 PUSH2 0x288B JUMP JUMPDEST DUP3 PUSH1 0x1 PUSH1 0x1 PUSH1 0xA0 SHL SUB AND DUP10 PUSH1 0x1 PUSH1 0x1 PUSH1 0xA0 SHL SUB AND PUSH32 0x8902CBD60F749D7080B1CE744D38DCA1BEF12BE49B3FAE393966DB79A18209B0 DUP11 DUP11 DUP11 DUP11 DUP11 PUSH1 0x40 MLOAD DUP1 DUP7 PUSH1 0xFF AND DUP2 MSTORE PUSH1 0x20 ADD DUP1 PUSH1 0x20 ADD DUP1 PUSH1 0x20 ADD DUP4 DUP2 SUB DUP4 MSTORE DUP8 DUP8 DUP3 DUP2 DUP2 MSTORE PUSH1 0x20 ADD SWAP3 POP DUP1 DUP3 DUP5 CALLDATACOPY PUSH1 0x0 DUP4 DUP3 ADD MSTORE PUSH1 0x1F ADD PUSH1 0x1F NOT AND SWAP1 SWAP2 ADD DUP5 DUP2 SUB DUP4 MSTORE DUP6 DUP2 MSTORE PUSH1 0x20 ADD SWAP1 POP DUP6 DUP6 DUP1 DUP3 DUP5 CALLDATACOPY PUSH1 0x0 DUP4 DUP3 ADD MSTORE PUSH1 0x40 MLOAD PUSH1 0x1F SWAP1 SWAP2 ADD PUSH1 0x1F NOT AND SWAP1 SWAP3 ADD DUP3 SWAP1 SUB SWAP10 POP SWAP1 SWAP8 POP POP POP POP POP POP POP POP LOG3 PUSH1 0x1 SWAP2 POP DUP1 ISZERO PUSH2 0x1678 JUMPI PUSH1 0x0 DUP1 SLOAD PUSH2 0xFF00 NOT AND SWAP1 SSTORE JUMPDEST POP SWAP8 SWAP7 POP POP POP POP POP POP POP JUMP JUMPDEST PUSH1 0x0 PUSH2 0x9E2 PUSH2 0x1692 DUP4 PUSH2 0xD2C JUMP JUMPDEST PUSH2 0x212B JUMP JUMPDEST PUSH1 0xCA SLOAD PUSH1 0x40 DUP1 MLOAD PUSH4 0xC89039C5 PUSH1 0xE0 SHL DUP2 MSTORE SWAP1 MLOAD PUSH1 0x0 SWAP3 PUSH1 0x1 PUSH1 0x1 PUSH1 0xA0 SHL SUB AND SWAP2 PUSH4 0xC89039C5 SWAP2 PUSH1 0x4 DUP1 DUP4 ADD SWAP3 PUSH1 0x20 SWAP3 SWAP2 SWAP1 DUP3 SWAP1 SUB ADD DUP2 DUP7 DUP1 EXTCODESIZE ISZERO DUP1 ISZERO PUSH2 0x16DC JUMPI PUSH1 0x0 DUP1 REVERT JUMPDEST POP GAS STATICCALL ISZERO DUP1 ISZERO PUSH2 0x16F0 JUMPI RETURNDATASIZE PUSH1 0x0 DUP1 RETURNDATACOPY RETURNDATASIZE PUSH1 0x0 REVERT JUMPDEST POP POP POP POP PUSH1 0x40 MLOAD RETURNDATASIZE PUSH1 0x20 DUP2 LT ISZERO PUSH2 0x1706 JUMPI PUSH1 0x0 DUP1 REVERT JUMPDEST POP MLOAD SWAP1 POP SWAP1 JUMP JUMPDEST PUSH2 0xC83 DUP2 PUSH2 0x2511 JUMP JUMPDEST PUSH1 0x0 PUSH2 0x1720 PUSH2 0x1A5B JUMP JUMPDEST PUSH1 0x1 PUSH1 0x1 PUSH1 0xA0 SHL SUB AND PUSH2 0x1731 PUSH2 0x107C JUMP JUMPDEST PUSH1 0x1 PUSH1 0x1 PUSH1 0xA0 SHL SUB AND EQ PUSH2 0x177A JUMPI PUSH1 0x40 DUP1 MLOAD PUSH3 0x461BCD PUSH1 0xE5 SHL DUP2 MSTORE PUSH1 0x20 PUSH1 0x4 DUP3 ADD DUP2 SWAP1 MSTORE PUSH1 0x24 DUP3 ADD MSTORE PUSH1 0x0 DUP1 MLOAD PUSH1 0x20 PUSH2 0x34EB DUP4 CODECOPY DUP2 MLOAD SWAP2 MSTORE PUSH1 0x44 DUP3 ADD MSTORE SWAP1 MLOAD SWAP1 DUP2 SWAP1 SUB PUSH1 0x64 ADD SWAP1 REVERT JUMPDEST PUSH1 0xCA SLOAD PUSH1 0x40 DUP1 MLOAD PUSH4 0xC89039C5 PUSH1 0xE0 SHL DUP2 MSTORE SWAP1 MLOAD PUSH1 0x1 PUSH1 0x1 PUSH1 0xA0 SHL SUB SWAP1 SWAP3 AND SWAP2 PUSH1 0x0 SWAP2 DUP4 SWAP2 PUSH4 0xC89039C5 SWAP2 PUSH1 0x4 DUP1 DUP3 ADD SWAP3 PUSH1 0x20 SWAP3 SWAP1 SWAP2 SWAP1 DUP3 SWAP1 SUB ADD DUP2 DUP7 DUP1 EXTCODESIZE ISZERO DUP1 ISZERO PUSH2 0x17C4 JUMPI PUSH1 0x0 DUP1 REVERT JUMPDEST POP GAS STATICCALL ISZERO DUP1 ISZERO PUSH2 0x17D8 JUMPI RETURNDATASIZE PUSH1 0x0 DUP1 RETURNDATACOPY RETURNDATASIZE PUSH1 0x0 REVERT JUMPDEST POP POP POP POP PUSH1 0x40 MLOAD RETURNDATASIZE PUSH1 0x20 DUP2 LT ISZERO PUSH2 0x17EE JUMPI PUSH1 0x0 DUP1 REVERT JUMPDEST POP MLOAD PUSH1 0x40 DUP1 MLOAD PUSH4 0x6EB1769F PUSH1 0xE1 SHL DUP2 MSTORE ADDRESS PUSH1 0x4 DUP3 ADD MSTORE PUSH1 0x1 PUSH1 0x1 PUSH1 0xA0 SHL SUB DUP6 DUP2 AND PUSH1 0x24 DUP4 ADD MSTORE SWAP2 MLOAD SWAP3 SWAP4 POP PUSH1 0x0 SWAP3 SWAP2 DUP5 AND SWAP2 PUSH4 0xDD62ED3E SWAP2 PUSH1 0x44 DUP1 DUP3 ADD SWAP3 PUSH1 0x20 SWAP3 SWAP1 SWAP2 SWAP1 DUP3 SWAP1 SUB ADD DUP2 DUP7 DUP1 EXTCODESIZE ISZERO DUP1 ISZERO PUSH2 0x1846 JUMPI PUSH1 0x0 DUP1 REVERT JUMPDEST POP GAS STATICCALL ISZERO DUP1 ISZERO PUSH2 0x185A JUMPI RETURNDATASIZE PUSH1 0x0 DUP1 RETURNDATACOPY RETURNDATASIZE PUSH1 0x0 REVERT JUMPDEST POP POP POP POP PUSH1 0x40 MLOAD RETURNDATASIZE PUSH1 0x20 DUP2 LT ISZERO PUSH2 0x1870 JUMPI PUSH1 0x0 DUP1 REVERT JUMPDEST POP MLOAD SWAP1 POP PUSH2 0x1895 DUP4 PUSH2 0x1884 PUSH1 0x0 NOT DUP5 PUSH2 0x299E JUMP JUMPDEST PUSH1 0x1 PUSH1 0x1 PUSH1 0xA0 SHL SUB DUP6 AND SWAP2 SWAP1 PUSH2 0x29FB JUMP JUMPDEST PUSH1 0x1 SWAP4 POP POP POP POP SWAP1 JUMP JUMPDEST PUSH1 0x1 PUSH1 0x1 PUSH1 0xA0 SHL SUB SWAP2 DUP3 AND PUSH1 0x0 SWAP1 DUP2 MSTORE PUSH1 0x34 PUSH1 0x20 SWAP1 DUP2 MSTORE PUSH1 0x40 DUP1 DUP4 KECCAK256 SWAP4 SWAP1 SWAP5 AND DUP3 MSTORE SWAP2 SWAP1 SWAP2 MSTORE KECCAK256 SLOAD SWAP1 JUMP JUMPDEST PUSH2 0xC83 DUP2 PUSH2 0x2472 JUMP JUMPDEST PUSH2 0x18DD DUP3 DUP3 PUSH2 0x2417 JUMP JUMPDEST POP POP JUMP JUMPDEST PUSH2 0x18E9 PUSH2 0x1A5B JUMP JUMPDEST PUSH1 0x1 PUSH1 0x1 PUSH1 0xA0 SHL SUB AND PUSH2 0x18FA PUSH2 0x107C JUMP JUMPDEST PUSH1 0x1 PUSH1 0x1 PUSH1 0xA0 SHL SUB AND EQ PUSH2 0x1943 JUMPI PUSH1 0x40 DUP1 MLOAD PUSH3 0x461BCD PUSH1 0xE5 SHL DUP2 MSTORE PUSH1 0x20 PUSH1 0x4 DUP3 ADD DUP2 SWAP1 MSTORE PUSH1 0x24 DUP3 ADD MSTORE PUSH1 0x0 DUP1 MLOAD PUSH1 0x20 PUSH2 0x34EB DUP4 CODECOPY DUP2 MLOAD SWAP2 MSTORE PUSH1 0x44 DUP3 ADD MSTORE SWAP1 MLOAD SWAP1 DUP2 SWAP1 SUB PUSH1 0x64 ADD SWAP1 REVERT JUMPDEST PUSH1 0x1 PUSH1 0x1 PUSH1 0xA0 SHL SUB DUP2 AND PUSH2 0x1988 JUMPI PUSH1 0x40 MLOAD PUSH3 0x461BCD PUSH1 0xE5 SHL DUP2 MSTORE PUSH1 0x4 ADD DUP1 DUP1 PUSH1 0x20 ADD DUP3 DUP2 SUB DUP3 MSTORE PUSH1 0x26 DUP2 MSTORE PUSH1 0x20 ADD DUP1 PUSH2 0x333F PUSH1 0x26 SWAP2 CODECOPY PUSH1 0x40 ADD SWAP2 POP POP PUSH1 0x40 MLOAD DUP1 SWAP2 SUB SWAP1 REVERT JUMPDEST PUSH1 0x65 SLOAD PUSH1 0x40 MLOAD PUSH1 0x1 PUSH1 0x1 PUSH1 0xA0 SHL SUB DUP1 DUP5 AND SWAP3 AND SWAP1 PUSH32 0x8BE0079C531659141344CD1FD0A4F28419497F9722A3DAAFE3B4186F6B6457E0 SWAP1 PUSH1 0x0 SWAP1 LOG3 PUSH1 0x65 DUP1 SLOAD PUSH1 0x1 PUSH1 0x1 PUSH1 0xA0 SHL SUB NOT AND PUSH1 0x1 PUSH1 0x1 PUSH1 0xA0 SHL SUB SWAP3 SWAP1 SWAP3 AND SWAP2 SWAP1 SWAP2 OR SWAP1 SSTORE JUMP JUMPDEST PUSH1 0x0 PUSH2 0x19EF DUP3 PUSH2 0x1D3F JUMP JUMPDEST SWAP1 POP PUSH2 0x18DD CALLER DUP3 PUSH2 0x2AE6 JUMP JUMPDEST PUSH1 0x40 DUP1 MLOAD PUSH1 0x1 PUSH1 0x1 PUSH1 0xA0 SHL SUB DUP1 DUP7 AND PUSH1 0x24 DUP4 ADD MSTORE DUP5 AND PUSH1 0x44 DUP3 ADD MSTORE PUSH1 0x64 DUP1 DUP3 ADD DUP5 SWAP1 MSTORE DUP3 MLOAD DUP1 DUP4 SUB SWAP1 SWAP2 ADD DUP2 MSTORE PUSH1 0x84 SWAP1 SWAP2 ADD SWAP1 SWAP2 MSTORE PUSH1 0x20 DUP2 ADD DUP1 MLOAD PUSH1 0x1 PUSH1 0x1 PUSH1 0xE0 SHL SUB AND PUSH4 0x23B872DD PUSH1 0xE0 SHL OR SWAP1 MSTORE PUSH2 0x1A55 SWAP1 DUP6 SWAP1 PUSH2 0x2BE2 JUMP JUMPDEST POP POP POP POP JUMP JUMPDEST CALLER SWAP1 JUMP JUMPDEST PUSH1 0x1 PUSH1 0x1 PUSH1 0xA0 SHL SUB DUP4 AND PUSH2 0x1AA4 JUMPI PUSH1 0x40 MLOAD PUSH3 0x461BCD PUSH1 0xE5 SHL DUP2 MSTORE PUSH1 0x4 ADD DUP1 DUP1 PUSH1 0x20 ADD DUP3 DUP2 SUB DUP3 MSTORE PUSH1 0x24 DUP2 MSTORE PUSH1 0x20 ADD DUP1 PUSH2 0x35BE PUSH1 0x24 SWAP2 CODECOPY PUSH1 0x40 ADD SWAP2 POP POP PUSH1 0x40 MLOAD DUP1 SWAP2 SUB SWAP1 REVERT JUMPDEST PUSH1 0x1 PUSH1 0x1 PUSH1 0xA0 SHL SUB DUP3 AND PUSH2 0x1AE9 JUMPI PUSH1 0x40 MLOAD PUSH3 0x461BCD PUSH1 0xE5 SHL DUP2 MSTORE PUSH1 0x4 ADD DUP1 DUP1 PUSH1 0x20 ADD DUP3 DUP2 SUB DUP3 MSTORE PUSH1 0x22 DUP2 MSTORE PUSH1 0x20 ADD DUP1 PUSH2 0x3365 PUSH1 0x22 SWAP2 CODECOPY PUSH1 0x40 ADD SWAP2 POP POP PUSH1 0x40 MLOAD DUP1 SWAP2 SUB SWAP1 REVERT JUMPDEST PUSH1 0x1 PUSH1 0x1 PUSH1 0xA0 SHL SUB DUP1 DUP5 AND PUSH1 0x0 DUP2 DUP2 MSTORE PUSH1 0x34 PUSH1 0x20 SWAP1 DUP2 MSTORE PUSH1 0x40 DUP1 DUP4 KECCAK256 SWAP5 DUP8 AND DUP1 DUP5 MSTORE SWAP5 DUP3 MSTORE SWAP2 DUP3 SWAP1 KECCAK256 DUP6 SWAP1 SSTORE DUP2 MLOAD DUP6 DUP2 MSTORE SWAP2 MLOAD PUSH32 0x8C5BE1E5EBEC7D5BD14F71427D1E84F3DD0314C0F7B2291E5B200AC8C7C3B925 SWAP3 DUP2 SWAP1 SUB SWAP1 SWAP2 ADD SWAP1 LOG3 POP POP POP JUMP JUMPDEST PUSH1 0x1 PUSH1 0x1 PUSH1 0xA0 SHL SUB DUP4 AND PUSH2 0x1B90 JUMPI PUSH1 0x40 MLOAD PUSH3 0x461BCD PUSH1 0xE5 SHL DUP2 MSTORE PUSH1 0x4 ADD DUP1 DUP1 PUSH1 0x20 ADD DUP3 DUP2 SUB DUP3 MSTORE PUSH1 0x25 DUP2 MSTORE PUSH1 0x20 ADD DUP1 PUSH2 0x3599 PUSH1 0x25 SWAP2 CODECOPY PUSH1 0x40 ADD SWAP2 POP POP PUSH1 0x40 MLOAD DUP1 SWAP2 SUB SWAP1 REVERT JUMPDEST PUSH1 0x1 PUSH1 0x1 PUSH1 0xA0 SHL SUB DUP3 AND PUSH2 0x1BD5 JUMPI PUSH1 0x40 MLOAD PUSH3 0x461BCD PUSH1 0xE5 SHL DUP2 MSTORE PUSH1 0x4 ADD DUP1 DUP1 PUSH1 0x20 ADD DUP3 DUP2 SUB DUP3 MSTORE PUSH1 0x23 DUP2 MSTORE PUSH1 0x20 ADD DUP1 PUSH2 0x32CC PUSH1 0x23 SWAP2 CODECOPY PUSH1 0x40 ADD SWAP2 POP POP PUSH1 0x40 MLOAD DUP1 SWAP2 SUB SWAP1 REVERT JUMPDEST PUSH2 0x1BE0 DUP4 DUP4 DUP4 PUSH2 0x246D JUMP JUMPDEST PUSH2 0x1C1D DUP2 PUSH1 0x40 MLOAD DUP1 PUSH1 0x60 ADD PUSH1 0x40 MSTORE DUP1 PUSH1 0x26 DUP2 MSTORE PUSH1 0x20 ADD PUSH2 0x33D5 PUSH1 0x26 SWAP2 CODECOPY PUSH1 0x1 PUSH1 0x1 PUSH1 0xA0 SHL SUB DUP7 AND PUSH1 0x0 SWAP1 DUP2 MSTORE PUSH1 0x33 PUSH1 0x20 MSTORE PUSH1 0x40 SWAP1 KECCAK256 SLOAD SWAP2 SWAP1 PUSH2 0x1CA8 JUMP JUMPDEST PUSH1 0x1 PUSH1 0x1 PUSH1 0xA0 SHL SUB DUP1 DUP6 AND PUSH1 0x0 SWAP1 DUP2 MSTORE PUSH1 0x33 PUSH1 0x20 MSTORE PUSH1 0x40 DUP1 DUP3 KECCAK256 SWAP4 SWAP1 SWAP4 SSTORE SWAP1 DUP5 AND DUP2 MSTORE KECCAK256 SLOAD PUSH2 0x1C4C SWAP1 DUP3 PUSH2 0x1DF8 JUMP JUMPDEST PUSH1 0x1 PUSH1 0x1 PUSH1 0xA0 SHL SUB DUP1 DUP5 AND PUSH1 0x0 DUP2 DUP2 MSTORE PUSH1 0x33 PUSH1 0x20 SWAP1 DUP2 MSTORE PUSH1 0x40 SWAP2 DUP3 SWAP1 KECCAK256 SWAP5 SWAP1 SWAP5 SSTORE DUP1 MLOAD DUP6 DUP2 MSTORE SWAP1 MLOAD SWAP2 SWAP4 SWAP3 DUP8 AND SWAP3 PUSH32 0xDDF252AD1BE2C89B69C2B068FC378DAA952BA7F163C4A11628F55A4DF523B3EF SWAP3 SWAP2 DUP3 SWAP1 SUB ADD SWAP1 LOG3 POP POP POP JUMP JUMPDEST PUSH1 0x0 DUP2 DUP5 DUP5 GT ISZERO PUSH2 0x1D37 JUMPI PUSH1 0x40 MLOAD PUSH3 0x461BCD PUSH1 0xE5 SHL DUP2 MSTORE PUSH1 0x4 ADD DUP1 DUP1 PUSH1 0x20 ADD DUP3 DUP2 SUB DUP3 MSTORE DUP4 DUP2 DUP2 MLOAD DUP2 MSTORE PUSH1 0x20 ADD SWAP2 POP DUP1 MLOAD SWAP1 PUSH1 0x20 ADD SWAP1 DUP1 DUP4 DUP4 PUSH1 0x0 JUMPDEST DUP4 DUP2 LT ISZERO PUSH2 0x1CFC JUMPI DUP2 DUP2 ADD MLOAD DUP4 DUP3 ADD MSTORE PUSH1 0x20 ADD PUSH2 0x1CE4 JUMP JUMPDEST POP POP POP POP SWAP1 POP SWAP1 DUP2 ADD SWAP1 PUSH1 0x1F AND DUP1 ISZERO PUSH2 0x1D29 JUMPI DUP1 DUP3 SUB DUP1 MLOAD PUSH1 0x1 DUP4 PUSH1 0x20 SUB PUSH2 0x100 EXP SUB NOT AND DUP2 MSTORE PUSH1 0x20 ADD SWAP2 POP JUMPDEST POP SWAP3 POP POP POP PUSH1 0x40 MLOAD DUP1 SWAP2 SUB SWAP1 REVERT JUMPDEST POP POP POP SWAP1 SUB SWAP1 JUMP JUMPDEST PUSH1 0x0 DUP1 PUSH1 0x0 PUSH2 0x1D4C PUSH2 0x9E8 JUMP JUMPDEST SWAP1 POP DUP1 PUSH2 0x1D5B JUMPI DUP4 SWAP2 POP PUSH2 0x1DF1 JUMP JUMPDEST PUSH1 0xCA SLOAD PUSH1 0x40 DUP1 MLOAD PUSH4 0xB99152D PUSH1 0xE4 SHL DUP2 MSTORE ADDRESS PUSH1 0x4 DUP3 ADD MSTORE SWAP1 MLOAD PUSH1 0x0 SWAP3 PUSH2 0x1DE1 SWAP3 DUP6 SWAP3 PUSH1 0x1 PUSH1 0x1 PUSH1 0xA0 SHL SUB SWAP1 SWAP3 AND SWAP2 PUSH4 0xB99152D0 SWAP2 PUSH1 0x24 DUP1 DUP3 ADD SWAP3 PUSH1 0x20 SWAP3 SWAP1 SWAP2 SWAP1 DUP3 SWAP1 SUB ADD DUP2 DUP10 DUP8 DUP1 EXTCODESIZE ISZERO DUP1 ISZERO PUSH2 0x1DB0 JUMPI PUSH1 0x0 DUP1 REVERT JUMPDEST POP GAS CALL ISZERO DUP1 ISZERO PUSH2 0x1DC4 JUMPI RETURNDATASIZE PUSH1 0x0 DUP1 RETURNDATACOPY RETURNDATASIZE PUSH1 0x0 REVERT JUMPDEST POP POP POP POP PUSH1 0x40 MLOAD RETURNDATASIZE PUSH1 0x20 DUP2 LT ISZERO PUSH2 0x1DDA JUMPI PUSH1 0x0 DUP1 REVERT JUMPDEST POP MLOAD PUSH2 0x2C93 JUMP JUMPDEST SWAP1 POP PUSH2 0x1DED DUP6 DUP3 PUSH2 0x2CBC JUMP JUMPDEST SWAP3 POP POP JUMPDEST POP SWAP3 SWAP2 POP POP JUMP JUMPDEST PUSH1 0x0 DUP3 DUP3 ADD DUP4 DUP2 LT ISZERO PUSH2 0xA6F JUMPI PUSH1 0x40 DUP1 MLOAD PUSH3 0x461BCD PUSH1 0xE5 SHL DUP2 MSTORE PUSH1 0x20 PUSH1 0x4 DUP3 ADD MSTORE PUSH1 0x1B PUSH1 0x24 DUP3 ADD MSTORE PUSH32 0x536166654D6174683A206164646974696F6E206F766572666C6F770000000000 PUSH1 0x44 DUP3 ADD MSTORE SWAP1 MLOAD SWAP1 DUP2 SWAP1 SUB PUSH1 0x64 ADD SWAP1 REVERT JUMPDEST PUSH1 0x1 PUSH1 0x1 PUSH1 0xA0 SHL SUB DUP3 AND PUSH2 0x1EAD JUMPI PUSH1 0x40 DUP1 MLOAD PUSH3 0x461BCD PUSH1 0xE5 SHL DUP2 MSTORE PUSH1 0x20 PUSH1 0x4 DUP3 ADD MSTORE PUSH1 0x1F PUSH1 0x24 DUP3 ADD MSTORE PUSH32 0x45524332303A206D696E7420746F20746865207A65726F206164647265737300 PUSH1 0x44 DUP3 ADD MSTORE SWAP1 MLOAD SWAP1 DUP2 SWAP1 SUB PUSH1 0x64 ADD SWAP1 REVERT JUMPDEST PUSH2 0x1EB9 PUSH1 0x0 DUP4 DUP4 PUSH2 0x246D JUMP JUMPDEST PUSH1 0x35 SLOAD PUSH2 0x1EC6 SWAP1 DUP3 PUSH2 0x1DF8 JUMP JUMPDEST PUSH1 0x35 SSTORE PUSH1 0x1 PUSH1 0x1 PUSH1 0xA0 SHL SUB DUP3 AND PUSH1 0x0 SWAP1 DUP2 MSTORE PUSH1 0x33 PUSH1 0x20 MSTORE PUSH1 0x40 SWAP1 KECCAK256 SLOAD PUSH2 0x1EEC SWAP1 DUP3 PUSH2 0x1DF8 JUMP JUMPDEST PUSH1 0x1 PUSH1 0x1 PUSH1 0xA0 SHL SUB DUP4 AND PUSH1 0x0 DUP2 DUP2 MSTORE PUSH1 0x33 PUSH1 0x20 SWAP1 DUP2 MSTORE PUSH1 0x40 DUP1 DUP4 KECCAK256 SWAP5 SWAP1 SWAP5 SSTORE DUP4 MLOAD DUP6 DUP2 MSTORE SWAP4 MLOAD SWAP3 SWAP4 SWAP2 SWAP3 PUSH32 0xDDF252AD1BE2C89B69C2B068FC378DAA952BA7F163C4A11628F55A4DF523B3EF SWAP3 DUP2 SWAP1 SUB SWAP1 SWAP2 ADD SWAP1 LOG3 POP POP JUMP JUMPDEST PUSH1 0x0 PUSH2 0x1F4F ADDRESS PUSH2 0x2CDD JUMP JUMPDEST ISZERO SWAP1 POP SWAP1 JUMP JUMPDEST PUSH2 0x1F5E DUP2 PUSH2 0x2472 JUMP JUMPDEST PUSH1 0xCA PUSH1 0x0 SWAP1 SLOAD SWAP1 PUSH2 0x100 EXP SWAP1 DIV PUSH1 0x1 PUSH1 0x1 PUSH1 0xA0 SHL SUB AND PUSH1 0x1 PUSH1 0x1 PUSH1 0xA0 SHL SUB AND PUSH4 0xC89039C5 PUSH1 0x40 MLOAD DUP2 PUSH4 0xFFFFFFFF AND PUSH1 0xE0 SHL DUP2 MSTORE PUSH1 0x4 ADD PUSH1 0x20 PUSH1 0x40 MLOAD DUP1 DUP4 SUB DUP2 DUP7 DUP1 EXTCODESIZE ISZERO DUP1 ISZERO PUSH2 0x1FAC JUMPI PUSH1 0x0 DUP1 REVERT JUMPDEST POP GAS STATICCALL ISZERO DUP1 ISZERO PUSH2 0x1FC0 JUMPI RETURNDATASIZE PUSH1 0x0 DUP1 RETURNDATACOPY RETURNDATASIZE PUSH1 0x0 REVERT JUMPDEST POP POP POP POP PUSH1 0x40 MLOAD RETURNDATASIZE PUSH1 0x20 DUP2 LT ISZERO PUSH2 0x1FD6 JUMPI PUSH1 0x0 DUP1 REVERT JUMPDEST POP MLOAD PUSH1 0x40 DUP1 MLOAD PUSH4 0xC89039C5 PUSH1 0xE0 SHL DUP2 MSTORE SWAP1 MLOAD PUSH1 0x1 PUSH1 0x1 PUSH1 0xA0 SHL SUB SWAP3 DUP4 AND SWAP3 DUP5 AND SWAP2 PUSH4 0xC89039C5 SWAP2 PUSH1 0x4 DUP1 DUP4 ADD SWAP3 PUSH1 0x20 SWAP3 SWAP2 SWAP1 DUP3 SWAP1 SUB ADD DUP2 DUP7 DUP1 EXTCODESIZE ISZERO DUP1 ISZERO PUSH2 0x201C JUMPI PUSH1 0x0 DUP1 REVERT JUMPDEST POP GAS STATICCALL ISZERO DUP1 ISZERO PUSH2 0x2030 JUMPI RETURNDATASIZE PUSH1 0x0 DUP1 RETURNDATACOPY RETURNDATASIZE PUSH1 0x0 REVERT JUMPDEST POP POP POP POP PUSH1 0x40 MLOAD RETURNDATASIZE PUSH1 0x20 DUP2 LT ISZERO PUSH2 0x2046 JUMPI PUSH1 0x0 DUP1 REVERT JUMPDEST POP MLOAD PUSH1 0x1 PUSH1 0x1 PUSH1 0xA0 SHL SUB AND EQ PUSH2 0x208D JUMPI PUSH1 0x40 MLOAD PUSH3 0x461BCD PUSH1 0xE5 SHL DUP2 MSTORE PUSH1 0x4 ADD DUP1 DUP1 PUSH1 0x20 ADD DUP3 DUP2 SUB DUP3 MSTORE PUSH1 0x2C DUP2 MSTORE PUSH1 0x20 ADD DUP1 PUSH2 0x3660 PUSH1 0x2C SWAP2 CODECOPY PUSH1 0x40 ADD SWAP2 POP POP PUSH1 0x40 MLOAD DUP1 SWAP2 SUB SWAP1 REVERT JUMPDEST DUP1 PUSH1 0xCA PUSH1 0x0 PUSH2 0x100 EXP DUP2 SLOAD DUP2 PUSH1 0x1 PUSH1 0x1 PUSH1 0xA0 SHL SUB MUL NOT AND SWAP1 DUP4 PUSH1 0x1 PUSH1 0x1 PUSH1 0xA0 SHL SUB AND MUL OR SWAP1 SSTORE POP PUSH2 0x20F4 DUP2 PUSH1 0x0 NOT DUP4 PUSH1 0x1 PUSH1 0x1 PUSH1 0xA0 SHL SUB AND PUSH4 0xC89039C5 PUSH1 0x40 MLOAD DUP2 PUSH4 0xFFFFFFFF AND PUSH1 0xE0 SHL DUP2 MSTORE PUSH1 0x4 ADD PUSH1 0x20 PUSH1 0x40 MLOAD DUP1 DUP4 SUB DUP2 DUP7 DUP1 EXTCODESIZE ISZERO DUP1 ISZERO PUSH2 0x157B JUMPI PUSH1 0x0 DUP1 REVERT JUMPDEST PUSH1 0x40 MLOAD PUSH1 0x1 PUSH1 0x1 PUSH1 0xA0 SHL SUB DUP3 AND SWAP1 PUSH32 0x5B9F3C229DBCB163B3FF6D483BEC26E3F4D5B39A6FC13C4AFEA3E3930FDE8911 SWAP1 PUSH1 0x0 SWAP1 LOG2 POP JUMP JUMPDEST PUSH1 0x0 DUP1 PUSH1 0x0 PUSH2 0x2138 PUSH2 0x9E8 JUMP JUMPDEST SWAP1 POP DUP1 PUSH2 0x2147 JUMPI DUP4 SWAP2 POP PUSH2 0x1DF1 JUMP JUMPDEST PUSH1 0xCA SLOAD PUSH1 0x40 DUP1 MLOAD PUSH4 0xB99152D PUSH1 0xE4 SHL DUP2 MSTORE ADDRESS PUSH1 0x4 DUP3 ADD MSTORE SWAP1 MLOAD PUSH1 0x0 SWAP3 PUSH2 0x1DE1 SWAP3 PUSH1 0x1 PUSH1 0x1 PUSH1 0xA0 SHL SUB SWAP1 SWAP2 AND SWAP2 PUSH4 0xB99152D0 SWAP2 PUSH1 0x24 DUP1 DUP3 ADD SWAP3 PUSH1 0x20 SWAP3 SWAP1 SWAP2 SWAP1 DUP3 SWAP1 SUB ADD DUP2 DUP9 DUP8 DUP1 EXTCODESIZE ISZERO DUP1 ISZERO PUSH2 0x219A JUMPI PUSH1 0x0 DUP1 REVERT JUMPDEST POP GAS CALL ISZERO DUP1 ISZERO PUSH2 0x21AE JUMPI RETURNDATASIZE PUSH1 0x0 DUP1 RETURNDATACOPY RETURNDATASIZE PUSH1 0x0 REVERT JUMPDEST POP POP POP POP PUSH1 0x40 MLOAD RETURNDATASIZE PUSH1 0x20 DUP2 LT ISZERO PUSH2 0x21C4 JUMPI PUSH1 0x0 DUP1 REVERT JUMPDEST POP MLOAD DUP4 PUSH2 0x2C93 JUMP JUMPDEST PUSH1 0xCA SLOAD PUSH1 0x40 DUP1 MLOAD PUSH3 0x982A61 PUSH1 0xE1 SHL DUP2 MSTORE PUSH1 0x4 DUP2 ADD DUP5 SWAP1 MSTORE SWAP1 MLOAD PUSH1 0x1 PUSH1 0x1 PUSH1 0xA0 SHL SUB SWAP3 DUP4 AND SWAP3 DUP6 AND SWAP2 PUSH4 0x13054C2 SWAP2 PUSH1 0x24 DUP1 DUP4 ADD SWAP3 PUSH1 0x20 SWAP3 SWAP2 SWAP1 DUP3 SWAP1 SUB ADD DUP2 PUSH1 0x0 DUP8 DUP1 EXTCODESIZE ISZERO DUP1 ISZERO PUSH2 0x221B JUMPI PUSH1 0x0 DUP1 REVERT JUMPDEST POP GAS CALL ISZERO DUP1 ISZERO PUSH2 0x222F JUMPI RETURNDATASIZE PUSH1 0x0 DUP1 RETURNDATACOPY RETURNDATASIZE PUSH1 0x0 REVERT JUMPDEST POP POP POP POP PUSH1 0x40 MLOAD RETURNDATASIZE PUSH1 0x20 DUP2 LT ISZERO PUSH2 0x2245 JUMPI PUSH1 0x0 DUP1 REVERT JUMPDEST POP POP PUSH1 0x40 DUP1 MLOAD PUSH4 0xC89039C5 PUSH1 0xE0 SHL DUP2 MSTORE SWAP1 MLOAD PUSH1 0x0 SWAP2 PUSH1 0x1 PUSH1 0x1 PUSH1 0xA0 SHL SUB DUP7 AND SWAP2 PUSH4 0xC89039C5 SWAP2 PUSH1 0x4 DUP1 DUP3 ADD SWAP3 PUSH1 0x20 SWAP3 SWAP1 SWAP2 SWAP1 DUP3 SWAP1 SUB ADD DUP2 DUP7 DUP1 EXTCODESIZE ISZERO DUP1 ISZERO PUSH2 0x228B JUMPI PUSH1 0x0 DUP1 REVERT JUMPDEST POP GAS STATICCALL ISZERO DUP1 ISZERO PUSH2 0x229F JUMPI RETURNDATASIZE PUSH1 0x0 DUP1 RETURNDATACOPY RETURNDATASIZE PUSH1 0x0 REVERT JUMPDEST POP POP POP POP PUSH1 0x40 MLOAD RETURNDATASIZE PUSH1 0x20 DUP2 LT ISZERO PUSH2 0x22B5 JUMPI PUSH1 0x0 DUP1 REVERT JUMPDEST POP MLOAD PUSH1 0x40 DUP1 MLOAD PUSH4 0x70A08231 PUSH1 0xE0 SHL DUP2 MSTORE ADDRESS PUSH1 0x4 DUP3 ADD MSTORE SWAP1 MLOAD PUSH1 0x1 PUSH1 0x1 PUSH1 0xA0 SHL SUB SWAP1 SWAP3 AND SWAP2 PUSH4 0x70A08231 SWAP2 PUSH1 0x24 DUP1 DUP3 ADD SWAP3 PUSH1 0x20 SWAP3 SWAP1 SWAP2 SWAP1 DUP3 SWAP1 SUB ADD DUP2 DUP7 DUP1 EXTCODESIZE ISZERO DUP1 ISZERO PUSH2 0x22FF JUMPI PUSH1 0x0 DUP1 REVERT JUMPDEST POP GAS STATICCALL ISZERO DUP1 ISZERO PUSH2 0x2313 JUMPI RETURNDATASIZE PUSH1 0x0 DUP1 RETURNDATACOPY RETURNDATASIZE PUSH1 0x0 REVERT JUMPDEST POP POP POP POP PUSH1 0x40 MLOAD RETURNDATASIZE PUSH1 0x20 DUP2 LT ISZERO PUSH2 0x2329 JUMPI PUSH1 0x0 DUP1 REVERT JUMPDEST POP MLOAD SWAP1 POP DUP1 DUP4 GT ISZERO PUSH2 0x236C JUMPI PUSH1 0x40 MLOAD PUSH3 0x461BCD PUSH1 0xE5 SHL DUP2 MSTORE PUSH1 0x4 ADD DUP1 DUP1 PUSH1 0x20 ADD DUP3 DUP2 SUB DUP3 MSTORE PUSH1 0x2E DUP2 MSTORE PUSH1 0x20 ADD DUP1 PUSH2 0x3311 PUSH1 0x2E SWAP2 CODECOPY PUSH1 0x40 ADD SWAP2 POP POP PUSH1 0x40 MLOAD DUP1 SWAP2 SUB SWAP1 REVERT JUMPDEST PUSH1 0x40 DUP1 MLOAD PUSH4 0x87A6EEEF PUSH1 0xE0 SHL DUP2 MSTORE PUSH1 0x4 DUP2 ADD DUP4 SWAP1 MSTORE ADDRESS PUSH1 0x24 DUP3 ADD MSTORE SWAP1 MLOAD PUSH1 0x1 PUSH1 0x1 PUSH1 0xA0 SHL SUB DUP5 AND SWAP2 PUSH4 0x87A6EEEF SWAP2 PUSH1 0x44 DUP1 DUP4 ADD SWAP3 PUSH1 0x0 SWAP3 SWAP2 SWAP1 DUP3 SWAP1 SUB ADD DUP2 DUP4 DUP8 DUP1 EXTCODESIZE ISZERO DUP1 ISZERO PUSH2 0x23BA JUMPI PUSH1 0x0 DUP1 REVERT JUMPDEST POP GAS CALL ISZERO DUP1 ISZERO PUSH2 0x23CE JUMPI RETURNDATASIZE PUSH1 0x0 DUP1 RETURNDATACOPY RETURNDATASIZE PUSH1 0x0 REVERT JUMPDEST POP POP PUSH1 0x40 DUP1 MLOAD DUP7 DUP2 MSTORE SWAP1 MLOAD PUSH1 0x1 PUSH1 0x1 PUSH1 0xA0 SHL SUB DUP9 AND SWAP4 POP PUSH32 0x8C9A4F13B67CB64D7C6AA1AE0C9BF07694AF521A28B93E7060020810AB4BC59F SWAP3 POP SWAP1 DUP2 SWAP1 SUB PUSH1 0x20 ADD SWAP1 LOG2 POP POP POP POP JUMP JUMPDEST PUSH1 0x0 PUSH2 0x2422 DUP4 PUSH2 0x1D3F JUMP JUMPDEST SWAP1 POP PUSH1 0x0 DUP2 GT PUSH2 0x2463 JUMPI PUSH1 0x40 MLOAD PUSH3 0x461BCD PUSH1 0xE5 SHL DUP2 MSTORE PUSH1 0x4 ADD DUP1 DUP1 PUSH1 0x20 ADD DUP3 DUP2 SUB DUP3 MSTORE PUSH1 0x23 DUP2 MSTORE PUSH1 0x20 ADD DUP1 PUSH2 0x35E2 PUSH1 0x23 SWAP2 CODECOPY PUSH1 0x40 ADD SWAP2 POP POP PUSH1 0x40 MLOAD DUP1 SWAP2 SUB SWAP1 REVERT JUMPDEST PUSH2 0x246D DUP3 DUP3 PUSH2 0x1E52 JUMP JUMPDEST POP POP POP JUMP JUMPDEST PUSH1 0xCA SLOAD PUSH1 0x1 PUSH1 0x1 PUSH1 0xA0 SHL SUB DUP3 DUP2 AND SWAP2 AND EQ ISZERO PUSH2 0xC83 JUMPI PUSH1 0x40 MLOAD PUSH3 0x461BCD PUSH1 0xE5 SHL DUP2 MSTORE PUSH1 0x4 ADD DUP1 DUP1 PUSH1 0x20 ADD DUP3 DUP2 SUB DUP3 MSTORE PUSH1 0x26 DUP2 MSTORE PUSH1 0x20 ADD DUP1 PUSH2 0x3605 PUSH1 0x26 SWAP2 CODECOPY PUSH1 0x40 ADD SWAP2 POP POP PUSH1 0x40 MLOAD DUP1 SWAP2 SUB SWAP1 REVERT JUMPDEST PUSH1 0x40 DUP1 MLOAD PUSH1 0x1 PUSH1 0x1 PUSH1 0xA0 SHL SUB DUP5 AND PUSH1 0x24 DUP3 ADD MSTORE PUSH1 0x44 DUP1 DUP3 ADD DUP5 SWAP1 MSTORE DUP3 MLOAD DUP1 DUP4 SUB SWAP1 SWAP2 ADD DUP2 MSTORE PUSH1 0x64 SWAP1 SWAP2 ADD SWAP1 SWAP2 MSTORE PUSH1 0x20 DUP2 ADD DUP1 MLOAD PUSH1 0x1 PUSH1 0x1 PUSH1 0xE0 SHL SUB AND PUSH4 0xA9059CBB PUSH1 0xE0 SHL OR SWAP1 MSTORE PUSH2 0x246D SWAP1 DUP5 SWAP1 PUSH2 0x2BE2 JUMP JUMPDEST PUSH1 0x1 PUSH1 0x1 PUSH1 0xA0 SHL SUB DUP2 AND PUSH2 0x2556 JUMPI PUSH1 0x40 MLOAD PUSH3 0x461BCD PUSH1 0xE5 SHL DUP2 MSTORE PUSH1 0x4 ADD DUP1 DUP1 PUSH1 0x20 ADD DUP3 DUP2 SUB DUP3 MSTORE PUSH1 0x31 DUP2 MSTORE PUSH1 0x20 ADD DUP1 PUSH2 0x350B PUSH1 0x31 SWAP2 CODECOPY PUSH1 0x40 ADD SWAP2 POP POP PUSH1 0x40 MLOAD DUP1 SWAP2 SUB SWAP1 REVERT JUMPDEST PUSH1 0x40 DUP1 MLOAD PUSH4 0xC89039C5 PUSH1 0xE0 SHL PUSH1 0x20 DUP1 DUP4 ADD SWAP2 SWAP1 SWAP2 MSTORE DUP3 MLOAD DUP1 DUP4 SUB DUP3 ADD DUP2 MSTORE SWAP2 DUP4 ADD SWAP3 DUP4 SWAP1 MSTORE DUP2 MLOAD PUSH1 0x0 SWAP4 PUSH1 0x1 PUSH1 0x1 PUSH1 0xA0 SHL SUB DUP7 AND SWAP4 SWAP3 SWAP1 SWAP2 DUP3 SWAP2 DUP5 ADD SWAP1 DUP1 DUP4 DUP4 JUMPDEST PUSH1 0x20 DUP4 LT PUSH2 0x25B6 JUMPI DUP1 MLOAD DUP3 MSTORE PUSH1 0x1F NOT SWAP1 SWAP3 ADD SWAP2 PUSH1 0x20 SWAP2 DUP3 ADD SWAP2 ADD PUSH2 0x2597 JUMP JUMPDEST PUSH1 0x1 DUP4 PUSH1 0x20 SUB PUSH2 0x100 EXP SUB DUP1 NOT DUP3 MLOAD AND DUP2 DUP5 MLOAD AND DUP1 DUP3 OR DUP6 MSTORE POP POP POP POP POP POP SWAP1 POP ADD SWAP2 POP POP PUSH1 0x0 PUSH1 0x40 MLOAD DUP1 DUP4 SUB DUP2 DUP6 GAS STATICCALL SWAP2 POP POP RETURNDATASIZE DUP1 PUSH1 0x0 DUP2 EQ PUSH2 0x2616 JUMPI PUSH1 0x40 MLOAD SWAP2 POP PUSH1 0x1F NOT PUSH1 0x3F RETURNDATASIZE ADD AND DUP3 ADD PUSH1 0x40 MSTORE RETURNDATASIZE DUP3 MSTORE RETURNDATASIZE PUSH1 0x0 PUSH1 0x20 DUP5 ADD RETURNDATACOPY PUSH2 0x261B JUMP JUMPDEST PUSH1 0x60 SWAP2 POP JUMPDEST POP SWAP2 POP POP PUSH1 0x0 DUP1 DUP3 MLOAD GT ISZERO PUSH2 0x2652 JUMPI PUSH1 0x0 DUP3 DUP1 PUSH1 0x20 ADD SWAP1 MLOAD PUSH1 0x20 DUP2 LT ISZERO PUSH2 0x2641 JUMPI PUSH1 0x0 DUP1 REVERT JUMPDEST POP MLOAD PUSH1 0x1 PUSH1 0x1 PUSH1 0xA0 SHL SUB AND ISZERO ISZERO SWAP2 POP POP JUMPDEST DUP1 PUSH2 0x246D JUMPI PUSH1 0x40 MLOAD PUSH3 0x461BCD PUSH1 0xE5 SHL DUP2 MSTORE PUSH1 0x4 ADD DUP1 DUP1 PUSH1 0x20 ADD DUP3 DUP2 SUB DUP3 MSTORE PUSH1 0x29 DUP2 MSTORE PUSH1 0x20 ADD DUP1 PUSH2 0x3387 PUSH1 0x29 SWAP2 CODECOPY PUSH1 0x40 ADD SWAP2 POP POP PUSH1 0x40 MLOAD DUP1 SWAP2 SUB SWAP1 REVERT JUMPDEST PUSH1 0x0 SLOAD PUSH2 0x100 SWAP1 DIV PUSH1 0xFF AND DUP1 PUSH2 0x26A7 JUMPI POP PUSH2 0x26A7 PUSH2 0x1F44 JUMP JUMPDEST DUP1 PUSH2 0x26B5 JUMPI POP PUSH1 0x0 SLOAD PUSH1 0xFF AND ISZERO JUMPDEST PUSH2 0x26F0 JUMPI PUSH1 0x40 MLOAD PUSH3 0x461BCD PUSH1 0xE5 SHL DUP2 MSTORE PUSH1 0x4 ADD DUP1 DUP1 PUSH1 0x20 ADD DUP3 DUP2 SUB DUP3 MSTORE PUSH1 0x2E DUP2 MSTORE PUSH1 0x20 ADD DUP1 PUSH2 0x3449 PUSH1 0x2E SWAP2 CODECOPY PUSH1 0x40 ADD SWAP2 POP POP PUSH1 0x40 MLOAD DUP1 SWAP2 SUB SWAP1 REVERT JUMPDEST PUSH1 0x0 SLOAD PUSH2 0x100 SWAP1 DIV PUSH1 0xFF AND ISZERO DUP1 ISZERO PUSH2 0x271B JUMPI PUSH1 0x0 DUP1 SLOAD PUSH1 0xFF NOT PUSH2 0xFF00 NOT SWAP1 SWAP2 AND PUSH2 0x100 OR AND PUSH1 0x1 OR SWAP1 SSTORE JUMPDEST PUSH2 0x2723 PUSH2 0xBE4 JUMP JUMPDEST PUSH2 0xC71 PUSH2 0x2CE3 JUMP JUMPDEST PUSH1 0x0 SLOAD PUSH2 0x100 SWAP1 DIV PUSH1 0xFF AND DUP1 PUSH2 0x2744 JUMPI POP PUSH2 0x2744 PUSH2 0x1F44 JUMP JUMPDEST DUP1 PUSH2 0x2752 JUMPI POP PUSH1 0x0 SLOAD PUSH1 0xFF AND ISZERO JUMPDEST PUSH2 0x278D JUMPI PUSH1 0x40 MLOAD PUSH3 0x461BCD PUSH1 0xE5 SHL DUP2 MSTORE PUSH1 0x4 ADD DUP1 DUP1 PUSH1 0x20 ADD DUP3 DUP2 SUB DUP3 MSTORE PUSH1 0x2E DUP2 MSTORE PUSH1 0x20 ADD DUP1 PUSH2 0x3449 PUSH1 0x2E SWAP2 CODECOPY PUSH1 0x40 ADD SWAP2 POP POP PUSH1 0x40 MLOAD DUP1 SWAP2 SUB SWAP1 REVERT JUMPDEST PUSH1 0x0 SLOAD PUSH2 0x100 SWAP1 DIV PUSH1 0xFF AND ISZERO DUP1 ISZERO PUSH2 0x27B8 JUMPI PUSH1 0x0 DUP1 SLOAD PUSH1 0xFF NOT PUSH2 0xFF00 NOT SWAP1 SWAP2 AND PUSH2 0x100 OR AND PUSH1 0x1 OR SWAP1 SSTORE JUMPDEST PUSH2 0xC71 PUSH2 0x2DDC JUMP JUMPDEST PUSH1 0x0 SLOAD PUSH2 0x100 SWAP1 DIV PUSH1 0xFF AND DUP1 PUSH2 0x27D9 JUMPI POP PUSH2 0x27D9 PUSH2 0x1F44 JUMP JUMPDEST DUP1 PUSH2 0x27E7 JUMPI POP PUSH1 0x0 SLOAD PUSH1 0xFF AND ISZERO JUMPDEST PUSH2 0x2822 JUMPI PUSH1 0x40 MLOAD PUSH3 0x461BCD PUSH1 0xE5 SHL DUP2 MSTORE PUSH1 0x4 ADD DUP1 DUP1 PUSH1 0x20 ADD DUP3 DUP2 SUB DUP3 MSTORE PUSH1 0x2E DUP2 MSTORE PUSH1 0x20 ADD DUP1 PUSH2 0x3449 PUSH1 0x2E SWAP2 CODECOPY PUSH1 0x40 ADD SWAP2 POP POP PUSH1 0x40 MLOAD DUP1 SWAP2 SUB SWAP1 REVERT JUMPDEST PUSH1 0x0 SLOAD PUSH2 0x100 SWAP1 DIV PUSH1 0xFF AND ISZERO DUP1 ISZERO PUSH2 0x284D JUMPI PUSH1 0x0 DUP1 SLOAD PUSH1 0xFF NOT PUSH2 0xFF00 NOT SWAP1 SWAP2 AND PUSH2 0x100 OR AND PUSH1 0x1 OR SWAP1 SSTORE JUMPDEST PUSH2 0x2855 PUSH2 0xBE4 JUMP JUMPDEST PUSH2 0x285F DUP4 DUP4 PUSH2 0x2E82 JUMP JUMPDEST DUP1 ISZERO PUSH2 0x246D JUMPI PUSH1 0x0 DUP1 SLOAD PUSH2 0xFF00 NOT AND SWAP1 SSTORE POP POP POP JUMP JUMPDEST PUSH1 0x38 DUP1 SLOAD PUSH1 0xFF NOT AND PUSH1 0xFF SWAP3 SWAP1 SWAP3 AND SWAP2 SWAP1 SWAP2 OR SWAP1 SSTORE JUMP JUMPDEST DUP1 ISZERO DUP1 PUSH2 0x2911 JUMPI POP PUSH1 0x40 DUP1 MLOAD PUSH4 0x6EB1769F PUSH1 0xE1 SHL DUP2 MSTORE ADDRESS PUSH1 0x4 DUP3 ADD MSTORE PUSH1 0x1 PUSH1 0x1 PUSH1 0xA0 SHL SUB DUP5 DUP2 AND PUSH1 0x24 DUP4 ADD MSTORE SWAP2 MLOAD SWAP2 DUP6 AND SWAP2 PUSH4 0xDD62ED3E SWAP2 PUSH1 0x44 DUP1 DUP3 ADD SWAP3 PUSH1 0x20 SWAP3 SWAP1 SWAP2 SWAP1 DUP3 SWAP1 SUB ADD DUP2 DUP7 DUP1 EXTCODESIZE ISZERO DUP1 ISZERO PUSH2 0x28E3 JUMPI PUSH1 0x0 DUP1 REVERT JUMPDEST POP GAS STATICCALL ISZERO DUP1 ISZERO PUSH2 0x28F7 JUMPI RETURNDATASIZE PUSH1 0x0 DUP1 RETURNDATACOPY RETURNDATASIZE PUSH1 0x0 REVERT JUMPDEST POP POP POP POP PUSH1 0x40 MLOAD RETURNDATASIZE PUSH1 0x20 DUP2 LT ISZERO PUSH2 0x290D JUMPI PUSH1 0x0 DUP1 REVERT JUMPDEST POP MLOAD ISZERO JUMPDEST PUSH2 0x294C JUMPI PUSH1 0x40 MLOAD PUSH3 0x461BCD PUSH1 0xE5 SHL DUP2 MSTORE PUSH1 0x4 ADD DUP1 DUP1 PUSH1 0x20 ADD DUP3 DUP2 SUB DUP3 MSTORE PUSH1 0x36 DUP2 MSTORE PUSH1 0x20 ADD DUP1 PUSH2 0x36B6 PUSH1 0x36 SWAP2 CODECOPY PUSH1 0x40 ADD SWAP2 POP POP PUSH1 0x40 MLOAD DUP1 SWAP2 SUB SWAP1 REVERT JUMPDEST PUSH1 0x40 DUP1 MLOAD PUSH1 0x1 PUSH1 0x1 PUSH1 0xA0 SHL SUB DUP5 AND PUSH1 0x24 DUP3 ADD MSTORE PUSH1 0x44 DUP1 DUP3 ADD DUP5 SWAP1 MSTORE DUP3 MLOAD DUP1 DUP4 SUB SWAP1 SWAP2 ADD DUP2 MSTORE PUSH1 0x64 SWAP1 SWAP2 ADD SWAP1 SWAP2 MSTORE PUSH1 0x20 DUP2 ADD DUP1 MLOAD PUSH1 0x1 PUSH1 0x1 PUSH1 0xE0 SHL SUB AND PUSH4 0x95EA7B3 PUSH1 0xE0 SHL OR SWAP1 MSTORE PUSH2 0x246D SWAP1 DUP5 SWAP1 PUSH2 0x2BE2 JUMP JUMPDEST PUSH1 0x0 DUP3 DUP3 GT ISZERO PUSH2 0x29F5 JUMPI PUSH1 0x40 DUP1 MLOAD PUSH3 0x461BCD PUSH1 0xE5 SHL DUP2 MSTORE PUSH1 0x20 PUSH1 0x4 DUP3 ADD MSTORE PUSH1 0x1E PUSH1 0x24 DUP3 ADD MSTORE PUSH32 0x536166654D6174683A207375627472616374696F6E206F766572666C6F770000 PUSH1 0x44 DUP3 ADD MSTORE SWAP1 MLOAD SWAP1 DUP2 SWAP1 SUB PUSH1 0x64 ADD SWAP1 REVERT JUMPDEST POP SWAP1 SUB SWAP1 JUMP JUMPDEST PUSH1 0x0 PUSH2 0x2A91 DUP3 DUP6 PUSH1 0x1 PUSH1 0x1 PUSH1 0xA0 SHL SUB AND PUSH4 0xDD62ED3E ADDRESS DUP8 PUSH1 0x40 MLOAD DUP4 PUSH4 0xFFFFFFFF AND PUSH1 0xE0 SHL DUP2 MSTORE PUSH1 0x4 ADD DUP1 DUP4 PUSH1 0x1 PUSH1 0x1 PUSH1 0xA0 SHL SUB AND DUP2 MSTORE PUSH1 0x20 ADD DUP3 PUSH1 0x1 PUSH1 0x1 PUSH1 0xA0 SHL SUB AND DUP2 MSTORE PUSH1 0x20 ADD SWAP3 POP POP POP PUSH1 0x20 PUSH1 0x40 MLOAD DUP1 DUP4 SUB DUP2 DUP7 DUP1 EXTCODESIZE ISZERO DUP1 ISZERO PUSH2 0x2A5F JUMPI PUSH1 0x0 DUP1 REVERT JUMPDEST POP GAS STATICCALL ISZERO DUP1 ISZERO PUSH2 0x2A73 JUMPI RETURNDATASIZE PUSH1 0x0 DUP1 RETURNDATACOPY RETURNDATASIZE PUSH1 0x0 REVERT JUMPDEST POP POP POP POP PUSH1 0x40 MLOAD RETURNDATASIZE PUSH1 0x20 DUP2 LT ISZERO PUSH2 0x2A89 JUMPI PUSH1 0x0 DUP1 REVERT JUMPDEST POP MLOAD SWAP1 PUSH2 0x1DF8 JUMP JUMPDEST PUSH1 0x40 DUP1 MLOAD PUSH1 0x1 PUSH1 0x1 PUSH1 0xA0 SHL SUB DUP7 AND PUSH1 0x24 DUP3 ADD MSTORE PUSH1 0x44 DUP1 DUP3 ADD DUP5 SWAP1 MSTORE DUP3 MLOAD DUP1 DUP4 SUB SWAP1 SWAP2 ADD DUP2 MSTORE PUSH1 0x64 SWAP1 SWAP2 ADD SWAP1 SWAP2 MSTORE PUSH1 0x20 DUP2 ADD DUP1 MLOAD PUSH1 0x1 PUSH1 0x1 PUSH1 0xE0 SHL SUB AND PUSH4 0x95EA7B3 PUSH1 0xE0 SHL OR SWAP1 MSTORE SWAP1 SWAP2 POP PUSH2 0x1A55 SWAP1 DUP6 SWAP1 PUSH2 0x2BE2 JUMP JUMPDEST PUSH1 0x1 PUSH1 0x1 PUSH1 0xA0 SHL SUB DUP3 AND PUSH2 0x2B2B JUMPI PUSH1 0x40 MLOAD PUSH3 0x461BCD PUSH1 0xE5 SHL DUP2 MSTORE PUSH1 0x4 ADD DUP1 DUP1 PUSH1 0x20 ADD DUP3 DUP2 SUB DUP3 MSTORE PUSH1 0x21 DUP2 MSTORE PUSH1 0x20 ADD DUP1 PUSH2 0x3578 PUSH1 0x21 SWAP2 CODECOPY PUSH1 0x40 ADD SWAP2 POP POP PUSH1 0x40 MLOAD DUP1 SWAP2 SUB SWAP1 REVERT JUMPDEST PUSH2 0x2B37 DUP3 PUSH1 0x0 DUP4 PUSH2 0x246D JUMP JUMPDEST PUSH2 0x2B74 DUP2 PUSH1 0x40 MLOAD DUP1 PUSH1 0x60 ADD PUSH1 0x40 MSTORE DUP1 PUSH1 0x22 DUP2 MSTORE PUSH1 0x20 ADD PUSH2 0x32EF PUSH1 0x22 SWAP2 CODECOPY PUSH1 0x1 PUSH1 0x1 PUSH1 0xA0 SHL SUB DUP6 AND PUSH1 0x0 SWAP1 DUP2 MSTORE PUSH1 0x33 PUSH1 0x20 MSTORE PUSH1 0x40 SWAP1 KECCAK256 SLOAD SWAP2 SWAP1 PUSH2 0x1CA8 JUMP JUMPDEST PUSH1 0x1 PUSH1 0x1 PUSH1 0xA0 SHL SUB DUP4 AND PUSH1 0x0 SWAP1 DUP2 MSTORE PUSH1 0x33 PUSH1 0x20 MSTORE PUSH1 0x40 SWAP1 KECCAK256 SSTORE PUSH1 0x35 SLOAD PUSH2 0x2B9A SWAP1 DUP3 PUSH2 0x299E JUMP JUMPDEST PUSH1 0x35 SSTORE PUSH1 0x40 DUP1 MLOAD DUP3 DUP2 MSTORE SWAP1 MLOAD PUSH1 0x0 SWAP2 PUSH1 0x1 PUSH1 0x1 PUSH1 0xA0 SHL SUB DUP6 AND SWAP2 PUSH32 0xDDF252AD1BE2C89B69C2B068FC378DAA952BA7F163C4A11628F55A4DF523B3EF SWAP2 DUP2 SWAP1 SUB PUSH1 0x20 ADD SWAP1 LOG3 POP POP JUMP JUMPDEST PUSH1 0x0 PUSH2 0x2C37 DUP3 PUSH1 0x40 MLOAD DUP1 PUSH1 0x40 ADD PUSH1 0x40 MSTORE DUP1 PUSH1 0x20 DUP2 MSTORE PUSH1 0x20 ADD PUSH32 0x5361666545524332303A206C6F772D6C6576656C2063616C6C206661696C6564 DUP2 MSTORE POP DUP6 PUSH1 0x1 PUSH1 0x1 PUSH1 0xA0 SHL SUB AND PUSH2 0x2F5A SWAP1 SWAP3 SWAP2 SWAP1 PUSH4 0xFFFFFFFF AND JUMP JUMPDEST DUP1 MLOAD SWAP1 SWAP2 POP ISZERO PUSH2 0x246D JUMPI DUP1 DUP1 PUSH1 0x20 ADD SWAP1 MLOAD PUSH1 0x20 DUP2 LT ISZERO PUSH2 0x2C56 JUMPI PUSH1 0x0 DUP1 REVERT JUMPDEST POP MLOAD PUSH2 0x246D JUMPI PUSH1 0x40 MLOAD PUSH3 0x461BCD PUSH1 0xE5 SHL DUP2 MSTORE PUSH1 0x4 ADD DUP1 DUP1 PUSH1 0x20 ADD DUP3 DUP2 SUB DUP3 MSTORE PUSH1 0x2A DUP2 MSTORE PUSH1 0x20 ADD DUP1 PUSH2 0x368C PUSH1 0x2A SWAP2 CODECOPY PUSH1 0x40 ADD SWAP2 POP POP PUSH1 0x40 MLOAD DUP1 SWAP2 SUB SWAP1 REVERT JUMPDEST PUSH1 0x0 DUP1 PUSH2 0x2CA8 DUP5 PUSH8 0xDE0B6B3A7640000 PUSH2 0x2F69 JUMP JUMPDEST SWAP1 POP PUSH2 0x2CB4 DUP2 DUP5 PUSH2 0x2FC2 JUMP JUMPDEST SWAP5 SWAP4 POP POP POP POP JUMP JUMPDEST PUSH1 0x0 DUP1 PUSH2 0x2CC9 DUP4 DUP6 PUSH2 0x2F69 JUMP JUMPDEST SWAP1 POP PUSH2 0x2CB4 DUP2 PUSH8 0xDE0B6B3A7640000 PUSH2 0x2FC2 JUMP JUMPDEST EXTCODESIZE ISZERO ISZERO SWAP1 JUMP JUMPDEST PUSH1 0x0 SLOAD PUSH2 0x100 SWAP1 DIV PUSH1 0xFF AND DUP1 PUSH2 0x2CFC JUMPI POP PUSH2 0x2CFC PUSH2 0x1F44 JUMP JUMPDEST DUP1 PUSH2 0x2D0A JUMPI POP PUSH1 0x0 SLOAD PUSH1 0xFF AND ISZERO JUMPDEST PUSH2 0x2D45 JUMPI PUSH1 0x40 MLOAD PUSH3 0x461BCD PUSH1 0xE5 SHL DUP2 MSTORE PUSH1 0x4 ADD DUP1 DUP1 PUSH1 0x20 ADD DUP3 DUP2 SUB DUP3 MSTORE PUSH1 0x2E DUP2 MSTORE PUSH1 0x20 ADD DUP1 PUSH2 0x3449 PUSH1 0x2E SWAP2 CODECOPY PUSH1 0x40 ADD SWAP2 POP POP PUSH1 0x40 MLOAD DUP1 SWAP2 SUB SWAP1 REVERT JUMPDEST PUSH1 0x0 SLOAD PUSH2 0x100 SWAP1 DIV PUSH1 0xFF AND ISZERO DUP1 ISZERO PUSH2 0x2D70 JUMPI PUSH1 0x0 DUP1 SLOAD PUSH1 0xFF NOT PUSH2 0xFF00 NOT SWAP1 SWAP2 AND PUSH2 0x100 OR AND PUSH1 0x1 OR SWAP1 SSTORE JUMPDEST PUSH1 0x0 PUSH2 0x2D7A PUSH2 0x1A5B JUMP JUMPDEST PUSH1 0x65 DUP1 SLOAD PUSH1 0x1 PUSH1 0x1 PUSH1 0xA0 SHL SUB NOT AND PUSH1 0x1 PUSH1 0x1 PUSH1 0xA0 SHL SUB DUP4 AND SWAP1 DUP2 OR SWAP1 SWAP2 SSTORE PUSH1 0x40 MLOAD SWAP2 SWAP3 POP SWAP1 PUSH1 0x0 SWAP1 PUSH32 0x8BE0079C531659141344CD1FD0A4F28419497F9722A3DAAFE3B4186F6B6457E0 SWAP1 DUP3 SWAP1 LOG3 POP DUP1 ISZERO PUSH2 0xC83 JUMPI PUSH1 0x0 DUP1 SLOAD PUSH2 0xFF00 NOT AND SWAP1 SSTORE POP JUMP JUMPDEST PUSH1 0x0 SLOAD PUSH2 0x100 SWAP1 DIV PUSH1 0xFF AND DUP1 PUSH2 0x2DF5 JUMPI POP PUSH2 0x2DF5 PUSH2 0x1F44 JUMP JUMPDEST DUP1 PUSH2 0x2E03 JUMPI POP PUSH1 0x0 SLOAD PUSH1 0xFF AND ISZERO JUMPDEST PUSH2 0x2E3E JUMPI PUSH1 0x40 MLOAD PUSH3 0x461BCD PUSH1 0xE5 SHL DUP2 MSTORE PUSH1 0x4 ADD DUP1 DUP1 PUSH1 0x20 ADD DUP3 DUP2 SUB DUP3 MSTORE PUSH1 0x2E DUP2 MSTORE PUSH1 0x20 ADD DUP1 PUSH2 0x3449 PUSH1 0x2E SWAP2 CODECOPY PUSH1 0x40 ADD SWAP2 POP POP PUSH1 0x40 MLOAD DUP1 SWAP2 SUB SWAP1 REVERT JUMPDEST PUSH1 0x0 SLOAD PUSH2 0x100 SWAP1 DIV PUSH1 0xFF AND ISZERO DUP1 ISZERO PUSH2 0x2E69 JUMPI PUSH1 0x0 DUP1 SLOAD PUSH1 0xFF NOT PUSH2 0xFF00 NOT SWAP1 SWAP2 AND PUSH2 0x100 OR AND PUSH1 0x1 OR SWAP1 SSTORE JUMPDEST PUSH1 0x1 PUSH1 0x98 SSTORE DUP1 ISZERO PUSH2 0xC83 JUMPI PUSH1 0x0 DUP1 SLOAD PUSH2 0xFF00 NOT AND SWAP1 SSTORE POP JUMP JUMPDEST PUSH1 0x0 SLOAD PUSH2 0x100 SWAP1 DIV PUSH1 0xFF AND DUP1 PUSH2 0x2E9B JUMPI POP PUSH2 0x2E9B PUSH2 0x1F44 JUMP JUMPDEST DUP1 PUSH2 0x2EA9 JUMPI POP PUSH1 0x0 SLOAD PUSH1 0xFF AND ISZERO JUMPDEST PUSH2 0x2EE4 JUMPI PUSH1 0x40 MLOAD PUSH3 0x461BCD PUSH1 0xE5 SHL DUP2 MSTORE PUSH1 0x4 ADD DUP1 DUP1 PUSH1 0x20 ADD DUP3 DUP2 SUB DUP3 MSTORE PUSH1 0x2E DUP2 MSTORE PUSH1 0x20 ADD DUP1 PUSH2 0x3449 PUSH1 0x2E SWAP2 CODECOPY PUSH1 0x40 ADD SWAP2 POP POP PUSH1 0x40 MLOAD DUP1 SWAP2 SUB SWAP1 REVERT JUMPDEST PUSH1 0x0 SLOAD PUSH2 0x100 SWAP1 DIV PUSH1 0xFF AND ISZERO DUP1 ISZERO PUSH2 0x2F0F JUMPI PUSH1 0x0 DUP1 SLOAD PUSH1 0xFF NOT PUSH2 0xFF00 NOT SWAP1 SWAP2 AND PUSH2 0x100 OR AND PUSH1 0x1 OR SWAP1 SSTORE JUMPDEST DUP3 MLOAD PUSH2 0x2F22 SWAP1 PUSH1 0x36 SWAP1 PUSH1 0x20 DUP7 ADD SWAP1 PUSH2 0x322A JUMP JUMPDEST POP DUP2 MLOAD PUSH2 0x2F36 SWAP1 PUSH1 0x37 SWAP1 PUSH1 0x20 DUP6 ADD SWAP1 PUSH2 0x322A JUMP JUMPDEST POP PUSH1 0x38 DUP1 SLOAD PUSH1 0xFF NOT AND PUSH1 0x12 OR SWAP1 SSTORE DUP1 ISZERO PUSH2 0x246D JUMPI PUSH1 0x0 DUP1 SLOAD PUSH2 0xFF00 NOT AND SWAP1 SSTORE POP POP POP JUMP JUMPDEST PUSH1 0x60 PUSH2 0x2CB4 DUP5 DUP5 PUSH1 0x0 DUP6 PUSH2 0x3004 JUMP JUMPDEST PUSH1 0x0 DUP3 PUSH2 0x2F78 JUMPI POP PUSH1 0x0 PUSH2 0x9E2 JUMP JUMPDEST DUP3 DUP3 MUL DUP3 DUP5 DUP3 DUP2 PUSH2 0x2F85 JUMPI INVALID JUMPDEST DIV EQ PUSH2 0xA6F JUMPI PUSH1 0x40 MLOAD PUSH3 0x461BCD PUSH1 0xE5 SHL DUP2 MSTORE PUSH1 0x4 ADD DUP1 DUP1 PUSH1 0x20 ADD DUP3 DUP2 SUB DUP3 MSTORE PUSH1 0x21 DUP2 MSTORE PUSH1 0x20 ADD DUP1 PUSH2 0x34A2 PUSH1 0x21 SWAP2 CODECOPY PUSH1 0x40 ADD SWAP2 POP POP PUSH1 0x40 MLOAD DUP1 SWAP2 SUB SWAP1 REVERT JUMPDEST PUSH1 0x0 PUSH2 0xA6F DUP4 DUP4 PUSH1 0x40 MLOAD DUP1 PUSH1 0x40 ADD PUSH1 0x40 MSTORE DUP1 PUSH1 0x1A DUP2 MSTORE PUSH1 0x20 ADD PUSH32 0x536166654D6174683A206469766973696F6E206279207A65726F000000000000 DUP2 MSTORE POP PUSH2 0x315F JUMP JUMPDEST PUSH1 0x60 DUP3 SELFBALANCE LT ISZERO PUSH2 0x3045 JUMPI PUSH1 0x40 MLOAD PUSH3 0x461BCD PUSH1 0xE5 SHL DUP2 MSTORE PUSH1 0x4 ADD DUP1 DUP1 PUSH1 0x20 ADD DUP3 DUP2 SUB DUP3 MSTORE PUSH1 0x26 DUP2 MSTORE PUSH1 0x20 ADD DUP1 PUSH2 0x33FB PUSH1 0x26 SWAP2 CODECOPY PUSH1 0x40 ADD SWAP2 POP POP PUSH1 0x40 MLOAD DUP1 SWAP2 SUB SWAP1 REVERT JUMPDEST PUSH2 0x304E DUP6 PUSH2 0x2CDD JUMP JUMPDEST PUSH2 0x309F JUMPI PUSH1 0x40 DUP1 MLOAD PUSH3 0x461BCD PUSH1 0xE5 SHL DUP2 MSTORE PUSH1 0x20 PUSH1 0x4 DUP3 ADD MSTORE PUSH1 0x1D PUSH1 0x24 DUP3 ADD MSTORE PUSH32 0x416464726573733A2063616C6C20746F206E6F6E2D636F6E7472616374000000 PUSH1 0x44 DUP3 ADD MSTORE SWAP1 MLOAD SWAP1 DUP2 SWAP1 SUB PUSH1 0x64 ADD SWAP1 REVERT JUMPDEST PUSH1 0x0 DUP1 DUP7 PUSH1 0x1 PUSH1 0x1 PUSH1 0xA0 SHL SUB AND DUP6 DUP8 PUSH1 0x40 MLOAD DUP1 DUP3 DUP1 MLOAD SWAP1 PUSH1 0x20 ADD SWAP1 DUP1 DUP4 DUP4 JUMPDEST PUSH1 0x20 DUP4 LT PUSH2 0x30DD JUMPI DUP1 MLOAD DUP3 MSTORE PUSH1 0x1F NOT SWAP1 SWAP3 ADD SWAP2 PUSH1 0x20 SWAP2 DUP3 ADD SWAP2 ADD PUSH2 0x30BE JUMP JUMPDEST PUSH1 0x1 DUP4 PUSH1 0x20 SUB PUSH2 0x100 EXP SUB DUP1 NOT DUP3 MLOAD AND DUP2 DUP5 MLOAD AND DUP1 DUP3 OR DUP6 MSTORE POP POP POP POP POP POP SWAP1 POP ADD SWAP2 POP POP PUSH1 0x0 PUSH1 0x40 MLOAD DUP1 DUP4 SUB DUP2 DUP6 DUP8 GAS CALL SWAP3 POP POP POP RETURNDATASIZE DUP1 PUSH1 0x0 DUP2 EQ PUSH2 0x313F JUMPI PUSH1 0x40 MLOAD SWAP2 POP PUSH1 0x1F NOT PUSH1 0x3F RETURNDATASIZE ADD AND DUP3 ADD PUSH1 0x40 MSTORE RETURNDATASIZE DUP3 MSTORE RETURNDATASIZE PUSH1 0x0 PUSH1 0x20 DUP5 ADD RETURNDATACOPY PUSH2 0x3144 JUMP JUMPDEST PUSH1 0x60 SWAP2 POP JUMPDEST POP SWAP2 POP SWAP2 POP PUSH2 0x3154 DUP3 DUP3 DUP7 PUSH2 0x31C4 JUMP JUMPDEST SWAP8 SWAP7 POP POP POP POP POP POP POP JUMP JUMPDEST PUSH1 0x0 DUP2 DUP4 PUSH2 0x31AE JUMPI PUSH1 0x40 MLOAD PUSH3 0x461BCD PUSH1 0xE5 SHL DUP2 MSTORE PUSH1 0x20 PUSH1 0x4 DUP3 ADD DUP2 DUP2 MSTORE DUP4 MLOAD PUSH1 0x24 DUP5 ADD MSTORE DUP4 MLOAD SWAP1 SWAP3 DUP4 SWAP3 PUSH1 0x44 SWAP1 SWAP2 ADD SWAP2 SWAP1 DUP6 ADD SWAP1 DUP1 DUP4 DUP4 PUSH1 0x0 DUP4 ISZERO PUSH2 0x1CFC JUMPI DUP2 DUP2 ADD MLOAD DUP4 DUP3 ADD MSTORE PUSH1 0x20 ADD PUSH2 0x1CE4 JUMP JUMPDEST POP PUSH1 0x0 DUP4 DUP6 DUP2 PUSH2 0x31BA JUMPI INVALID JUMPDEST DIV SWAP6 SWAP5 POP POP POP POP POP JUMP JUMPDEST PUSH1 0x60 DUP4 ISZERO PUSH2 0x31D3 JUMPI POP DUP2 PUSH2 0xA6F JUMP JUMPDEST DUP3 MLOAD ISZERO PUSH2 0x31E3 JUMPI DUP3 MLOAD DUP1 DUP5 PUSH1 0x20 ADD REVERT JUMPDEST PUSH1 0x40 MLOAD PUSH3 0x461BCD PUSH1 0xE5 SHL DUP2 MSTORE PUSH1 0x20 PUSH1 0x4 DUP3 ADD DUP2 DUP2 MSTORE DUP5 MLOAD PUSH1 0x24 DUP5 ADD MSTORE DUP5 MLOAD DUP6 SWAP4 SWAP2 SWAP3 DUP4 SWAP3 PUSH1 0x44 ADD SWAP2 SWAP1 DUP6 ADD SWAP1 DUP1 DUP4 DUP4 PUSH1 0x0 DUP4 ISZERO PUSH2 0x1CFC JUMPI DUP2 DUP2 ADD MLOAD DUP4 DUP3 ADD MSTORE PUSH1 0x20 ADD PUSH2 0x1CE4 JUMP JUMPDEST DUP3 DUP1 SLOAD PUSH1 0x1 DUP2 PUSH1 0x1 AND ISZERO PUSH2 0x100 MUL SUB AND PUSH1 0x2 SWAP1 DIV SWAP1 PUSH1 0x0 MSTORE PUSH1 0x20 PUSH1 0x0 KECCAK256 SWAP1 PUSH1 0x1F ADD PUSH1 0x20 SWAP1 DIV DUP2 ADD SWAP3 DUP3 PUSH2 0x3260 JUMPI PUSH1 0x0 DUP6 SSTORE PUSH2 0x32A6 JUMP JUMPDEST DUP3 PUSH1 0x1F LT PUSH2 0x3279 JUMPI DUP1 MLOAD PUSH1 0xFF NOT AND DUP4 DUP1 ADD OR DUP6 SSTORE PUSH2 0x32A6 JUMP JUMPDEST DUP3 DUP1 ADD PUSH1 0x1 ADD DUP6 SSTORE DUP3 ISZERO PUSH2 0x32A6 JUMPI SWAP2 DUP3 ADD JUMPDEST DUP3 DUP2 GT ISZERO PUSH2 0x32A6 JUMPI DUP3 MLOAD DUP3 SSTORE SWAP2 PUSH1 0x20 ADD SWAP2 SWAP1 PUSH1 0x1 ADD SWAP1 PUSH2 0x328B JUMP JUMPDEST POP PUSH2 0x32B2 SWAP3 SWAP2 POP PUSH2 0x32B6 JUMP JUMPDEST POP SWAP1 JUMP JUMPDEST JUMPDEST DUP1 DUP3 GT ISZERO PUSH2 0x32B2 JUMPI PUSH1 0x0 DUP2 SSTORE PUSH1 0x1 ADD PUSH2 0x32B7 JUMP INVALID GASLIMIT MSTORE NUMBER ORIGIN ADDRESS GASPRICE KECCAK256 PUSH21 0x72616E7366657220746F20746865207A65726F2061 PUSH5 0x6472657373 GASLIMIT MSTORE NUMBER ORIGIN ADDRESS GASPRICE KECCAK256 PUSH3 0x75726E KECCAK256 PUSH2 0x6D6F PUSH22 0x6E7420657863656564732062616C616E636553776170 PUSH17 0x61626C655969656C64536F757263652F74 PUSH19 0x616E736665722D616D6F756E742D6469666665 PUSH19 0x656E744F776E61626C653A206E6577206F776E PUSH6 0x722069732074 PUSH9 0x65207A65726F206164 PUSH5 0x7265737345 MSTORE NUMBER ORIGIN ADDRESS GASPRICE KECCAK256 PUSH2 0x7070 PUSH19 0x6F766520746F20746865207A65726F20616464 PUSH19 0x657373537761707061626C655969656C64536F PUSH22 0x7263652F696E76616C69642D7969656C642D736F7572 PUSH4 0x65537761 PUSH17 0x7061626C655969656C64536F757263652F PUSH5 0x6563696D61 PUSH13 0x732D67742D7A65726F45524332 ADDRESS GASPRICE KECCAK256 PUSH21 0x72616E7366657220616D6F756E7420657863656564 PUSH20 0x2062616C616E6365416464726573733A20696E73 PUSH22 0x6666696369656E742062616C616E636520666F722063 PUSH2 0x6C6C PUSH16 0x6E6C794F776E65724F7241737365744D PUSH2 0x6E61 PUSH8 0x65722F6F776E6572 0x2D PUSH16 0x722D6D616E61676572496E697469616C PUSH10 0x7A61626C653A20636F6E PUSH21 0x7261637420697320616C726561647920696E697469 PUSH2 0x6C69 PUSH27 0x6564537761707061626C655969656C64536F757263652F6F776E65 PUSH19 0x2D6E6F742D7A65726F2D616464726573735361 PUSH7 0x654D6174683A20 PUSH14 0x756C7469706C69636174696F6E20 PUSH16 0x766572666C6F7745524332303A207472 PUSH2 0x6E73 PUSH7 0x657220616D6F75 PUSH15 0x74206578636565647320616C6C6F77 PUSH2 0x6E63 PUSH6 0x4F776E61626C PUSH6 0x3A2063616C6C PUSH6 0x72206973206E PUSH16 0x7420746865206F776E65725377617070 PUSH2 0x626C PUSH6 0x5969656C6453 PUSH16 0x757263652F7969656C64536F75726365 0x2D PUSH15 0x6F742D7A65726F2D61646472657373 MSTORE8 PUSH24 0x61707061626C655969656C64536F757263652F7969656C64 0x2D PUSH20 0x6F757263652D746F6B656E2D7472616E73666572 0x2D PUSH15 0x6F742D616C6C6F7765644552433230 GASPRICE KECCAK256 PUSH3 0x75726E KECCAK256 PUSH7 0x726F6D20746865 KECCAK256 PUSH27 0x65726F206164647265737345524332303A207472616E7366657220 PUSH7 0x726F6D20746865 KECCAK256 PUSH27 0x65726F206164647265737345524332303A20617070726F76652066 PUSH19 0x6F6D20746865207A65726F2061646472657373 MSTORE8 PUSH24 0x61707061626C655969656C64536F757263652F7368617265 PUSH20 0x2D67742D7A65726F537761707061626C65596965 PUSH13 0x64536F757263652F73616D652D PUSH26 0x69656C642D736F757263656F6E6C794F776E65724F7241737365 PUSH21 0x4D616E616765722F61737365744D616E616765722D PUSH15 0x6F742D7A65726F2D61646472657373 MSTORE8 PUSH24 0x61707061626C655969656C64536F757263652F6469666665 PUSH19 0x656E742D6465706F7369742D746F6B656E5361 PUSH7 0x6545524332303A KECCAK256 GASLIMIT MSTORE NUMBER ORIGIN ADDRESS KECCAK256 PUSH16 0x7065726174696F6E20646964206E6F74 KECCAK256 PUSH20 0x7563636565645361666545524332303A20617070 PUSH19 0x6F76652066726F6D206E6F6E2D7A65726F2074 PUSH16 0x206E6F6E2D7A65726F20616C6C6F7761 PUSH15 0x636545524332303A20646563726561 PUSH20 0x656420616C6C6F77616E63652062656C6F77207A PUSH6 0x726FA2646970 PUSH7 0x73582212207508 SWAP14 0xC SWAP15 LOG1 RETURN 0xBE CALLDATACOPY INVALID LOG3 0xB5 0xD3 PUSH22 0xABA0FF94950A19F815D43C9BCC334DFD91CA64736F6C PUSH4 0x43000706 STOP CALLER "
        },
        "gasEstimates": {
          "creation": {
            "codeDepositCost": "2830000",
            "executionCost": "3092",
            "totalCost": "2833092"
          },
          "external": {
            "allowance(address,address)": "1316",
            "approve(address,uint256)": "infinite",
            "approveMaxAmount()": "infinite",
            "assetManager()": "1127",
            "balanceOf(address)": "1209",
            "balanceOfToken(address)": "infinite",
            "burnShares(uint256)": "infinite",
            "decimals()": "1081",
            "decreaseAllowance(address,uint256)": "infinite",
            "depositToken()": "infinite",
            "freeze()": "infinite",
            "increaseAllowance(address,uint256)": "infinite",
            "initialize(address,uint8,string,string,address)": "infinite",
            "mint(address,uint256)": "infinite",
            "mintShares(uint256,address)": "infinite",
            "name()": "infinite",
            "owner()": "1105",
            "redeemToken(uint256)": "infinite",
            "renounceOwnership()": "infinite",
            "requireDifferentYieldSource(address)": "infinite",
            "requireYieldSource(address)": "infinite",
            "setAssetManager(address)": "infinite",
            "setYieldSource(address)": "infinite",
            "sharesToToken(uint256)": "infinite",
            "supplyTokenTo(uint256,address)": "infinite",
            "swapYieldSource(address)": "infinite",
            "symbol()": "infinite",
            "tokenToShares(uint256)": "infinite",
            "totalSupply()": "1111",
            "transfer(address,uint256)": "infinite",
            "transferERC20(address,address,uint256)": "infinite",
            "transferFrom(address,address,uint256)": "infinite",
            "transferFunds(address,uint256)": "infinite",
            "transferOwnership(address)": "infinite",
            "yieldSource()": "1170"
          }
        },
        "methodIdentifiers": {
          "allowance(address,address)": "dd62ed3e",
          "approve(address,uint256)": "095ea7b3",
          "approveMaxAmount()": "daa4f975",
          "assetManager()": "94217ad1",
          "balanceOf(address)": "70a08231",
          "balanceOfToken(address)": "b99152d0",
          "burnShares(uint256)": "853c637d",
          "decimals()": "313ce567",
          "decreaseAllowance(address,uint256)": "a457c2d7",
          "depositToken()": "c89039c5",
          "freeze()": "62a5af3b",
          "increaseAllowance(address,uint256)": "39509351",
          "initialize(address,uint8,string,string,address)": "b6f97226",
          "mint(address,uint256)": "40c10f19",
          "mintShares(uint256,address)": "f2b3c18f",
          "name()": "06fdde03",
          "owner()": "8da5cb5b",
          "redeemToken(uint256)": "013054c2",
          "renounceOwnership()": "715018a6",
          "requireDifferentYieldSource(address)": "ea453848",
          "requireYieldSource(address)": "cdb9d42f",
          "setAssetManager(address)": "43060237",
          "setYieldSource(address)": "666a0c84",
          "sharesToToken(uint256)": "6cf81ec6",
          "supplyTokenTo(uint256,address)": "87a6eeef",
          "swapYieldSource(address)": "75bed0be",
          "symbol()": "95d89b41",
          "tokenToShares(uint256)": "361bb0c1",
          "totalSupply()": "18160ddd",
          "transfer(address,uint256)": "a9059cbb",
          "transferERC20(address,address,uint256)": "9db5dbe4",
          "transferFrom(address,address,uint256)": "23b872dd",
          "transferFunds(address,uint256)": "990dc9db",
          "transferOwnership(address)": "f2fde38b",
          "yieldSource()": "b2470e5c"
        }
      },
      "storageLayout": {
        "storage": [
          {
            "astId": 492,
            "contract": "contracts/test/SwappableYieldSourceHarness.sol:SwappableYieldSourceHarness",
            "label": "_initialized",
            "offset": 0,
            "slot": "0",
            "type": "t_bool"
          },
          {
            "astId": 495,
            "contract": "contracts/test/SwappableYieldSourceHarness.sol:SwappableYieldSourceHarness",
            "label": "_initializing",
            "offset": 1,
            "slot": "0",
            "type": "t_bool"
          },
          {
            "astId": 1660,
            "contract": "contracts/test/SwappableYieldSourceHarness.sol:SwappableYieldSourceHarness",
            "label": "__gap",
            "offset": 0,
            "slot": "1",
            "type": "t_array(t_uint256)50_storage"
          },
          {
            "astId": 571,
            "contract": "contracts/test/SwappableYieldSourceHarness.sol:SwappableYieldSourceHarness",
            "label": "_balances",
            "offset": 0,
            "slot": "51",
            "type": "t_mapping(t_address,t_uint256)"
          },
          {
            "astId": 577,
            "contract": "contracts/test/SwappableYieldSourceHarness.sol:SwappableYieldSourceHarness",
            "label": "_allowances",
            "offset": 0,
            "slot": "52",
            "type": "t_mapping(t_address,t_mapping(t_address,t_uint256))"
          },
          {
            "astId": 579,
            "contract": "contracts/test/SwappableYieldSourceHarness.sol:SwappableYieldSourceHarness",
            "label": "_totalSupply",
            "offset": 0,
            "slot": "53",
            "type": "t_uint256"
          },
          {
            "astId": 581,
            "contract": "contracts/test/SwappableYieldSourceHarness.sol:SwappableYieldSourceHarness",
            "label": "_name",
            "offset": 0,
            "slot": "54",
            "type": "t_string_storage"
          },
          {
            "astId": 583,
            "contract": "contracts/test/SwappableYieldSourceHarness.sol:SwappableYieldSourceHarness",
            "label": "_symbol",
            "offset": 0,
            "slot": "55",
            "type": "t_string_storage"
          },
          {
            "astId": 585,
            "contract": "contracts/test/SwappableYieldSourceHarness.sol:SwappableYieldSourceHarness",
            "label": "_decimals",
            "offset": 0,
            "slot": "56",
            "type": "t_uint8"
          },
          {
            "astId": 1080,
            "contract": "contracts/test/SwappableYieldSourceHarness.sol:SwappableYieldSourceHarness",
            "label": "__gap",
            "offset": 0,
            "slot": "57",
            "type": "t_array(t_uint256)44_storage"
          },
          {
            "astId": 10,
            "contract": "contracts/test/SwappableYieldSourceHarness.sol:SwappableYieldSourceHarness",
            "label": "_owner",
            "offset": 0,
            "slot": "101",
            "type": "t_address"
          },
          {
            "astId": 129,
            "contract": "contracts/test/SwappableYieldSourceHarness.sol:SwappableYieldSourceHarness",
            "label": "__gap",
            "offset": 0,
            "slot": "102",
            "type": "t_array(t_uint256)49_storage"
          },
          {
            "astId": 2848,
            "contract": "contracts/test/SwappableYieldSourceHarness.sol:SwappableYieldSourceHarness",
            "label": "_assetManager",
            "offset": 0,
            "slot": "151",
            "type": "t_address"
          },
          {
            "astId": 1675,
            "contract": "contracts/test/SwappableYieldSourceHarness.sol:SwappableYieldSourceHarness",
            "label": "_status",
            "offset": 0,
            "slot": "152",
            "type": "t_uint256"
          },
          {
            "astId": 1718,
            "contract": "contracts/test/SwappableYieldSourceHarness.sol:SwappableYieldSourceHarness",
            "label": "__gap",
            "offset": 0,
            "slot": "153",
            "type": "t_array(t_uint256)49_storage"
          },
          {
            "astId": 2105,
            "contract": "contracts/test/SwappableYieldSourceHarness.sol:SwappableYieldSourceHarness",
            "label": "yieldSource",
            "offset": 0,
            "slot": "202",
            "type": "t_contract(IYieldSource)2041"
          }
        ],
        "types": {
          "t_address": {
            "encoding": "inplace",
            "label": "address",
            "numberOfBytes": "20"
          },
          "t_array(t_uint256)44_storage": {
            "base": "t_uint256",
            "encoding": "inplace",
            "label": "uint256[44]",
            "numberOfBytes": "1408"
          },
          "t_array(t_uint256)49_storage": {
            "base": "t_uint256",
            "encoding": "inplace",
            "label": "uint256[49]",
            "numberOfBytes": "1568"
          },
          "t_array(t_uint256)50_storage": {
            "base": "t_uint256",
            "encoding": "inplace",
            "label": "uint256[50]",
            "numberOfBytes": "1600"
          },
          "t_bool": {
            "encoding": "inplace",
            "label": "bool",
            "numberOfBytes": "1"
          },
          "t_contract(IYieldSource)2041": {
            "encoding": "inplace",
            "label": "contract IYieldSource",
            "numberOfBytes": "20"
          },
          "t_mapping(t_address,t_mapping(t_address,t_uint256))": {
            "encoding": "mapping",
            "key": "t_address",
            "label": "mapping(address => mapping(address => uint256))",
            "numberOfBytes": "32",
            "value": "t_mapping(t_address,t_uint256)"
          },
          "t_mapping(t_address,t_uint256)": {
            "encoding": "mapping",
            "key": "t_address",
            "label": "mapping(address => uint256)",
            "numberOfBytes": "32",
            "value": "t_uint256"
          },
          "t_string_storage": {
            "encoding": "bytes",
            "label": "string",
            "numberOfBytes": "32"
          },
          "t_uint256": {
            "encoding": "inplace",
            "label": "uint256",
            "numberOfBytes": "32"
          },
          "t_uint8": {
            "encoding": "inplace",
            "label": "uint8",
            "numberOfBytes": "1"
          }
        }
      },
      "userdoc": {
        "events": {
          "FundsTransferred(address,uint256)": {
            "notice": "Emitted when funds are successfully transferred from specified yield source to current yield source."
          },
          "SwappableYieldSourceInitialized(address,uint8,string,string,address)": {
            "notice": "Emitted when the swappable yield source is initialized."
          },
          "SwappableYieldSourceSet(address)": {
            "notice": "Emitted when a yield source has been successfuly set."
          },
          "TransferredERC20(address,address,uint256,address)": {
            "notice": "Emitted when ERC20 tokens other than yield source's tokens are withdrawn from the swappable yield source."
          }
        },
        "kind": "user",
        "methods": {
          "approveMaxAmount()": {
            "notice": "Approve yieldSource to spend maxUint256 amount of depositToken (eg: DAI)."
          },
          "assetManager()": {
            "notice": "Gets current _assetManager."
          },
          "balanceOfToken(address)": {
            "notice": "Returns the total balance in swappable tokens (eg: swsDAI)."
          },
          "depositToken()": {
            "notice": "Returns the ERC20 asset token used for deposits."
          },
          "freeze()": {
            "notice": "Mock Initializer to initialize implementations used by minimal proxies."
          },
          "initialize(address,uint8,string,string,address)": {
            "notice": "Initializes the swappable yield source with the yieldSource address provided."
          },
          "redeemToken(uint256)": {
            "notice": "Redeems tokens from the current yield source."
          },
          "setAssetManager(address)": {
            "notice": "Set or change of asset manager."
          },
          "setYieldSource(address)": {
            "notice": "Set new yield source."
          },
          "supplyTokenTo(uint256,address)": {
            "notice": "Supplies tokens to the current yield source.  Allows assets to be supplied on other user's behalf using the `to` param."
          },
          "swapYieldSource(address)": {
            "notice": "Swap current yield source for new yield source."
          },
          "transferERC20(address,address,uint256)": {
            "notice": "Transfer ERC20 tokens other than the yield source's tokens held by this contract to the recipient address."
          },
          "transferFunds(address,uint256)": {
            "notice": "Transfer funds from specified yield source to current yield source."
          },
          "yieldSource()": {
            "notice": "Yield source interface."
          }
        },
        "version": 1
      }
    }
  }
}