{
  "_format": "hh-sol-artifact-1",
  "contractName": "TestPublicLockUpgraded",
  "sourceName": "contracts/test-artifacts/TestPublicLockUpgraded.sol",
  "abi": [
    {
      "anonymous": false,
      "inputs": [
        {
          "indexed": true,
          "internalType": "address",
          "name": "owner",
          "type": "address"
        },
        {
          "indexed": true,
          "internalType": "address",
          "name": "approved",
          "type": "address"
        },
        {
          "indexed": true,
          "internalType": "uint256",
          "name": "tokenId",
          "type": "uint256"
        }
      ],
      "name": "Approval",
      "type": "event"
    },
    {
      "anonymous": false,
      "inputs": [
        {
          "indexed": true,
          "internalType": "address",
          "name": "owner",
          "type": "address"
        },
        {
          "indexed": true,
          "internalType": "address",
          "name": "operator",
          "type": "address"
        },
        {
          "indexed": false,
          "internalType": "bool",
          "name": "approved",
          "type": "bool"
        }
      ],
      "name": "ApprovalForAll",
      "type": "event"
    },
    {
      "anonymous": false,
      "inputs": [
        {
          "indexed": true,
          "internalType": "uint256",
          "name": "tokenId",
          "type": "uint256"
        },
        {
          "indexed": true,
          "internalType": "address",
          "name": "owner",
          "type": "address"
        },
        {
          "indexed": true,
          "internalType": "address",
          "name": "sendTo",
          "type": "address"
        },
        {
          "indexed": false,
          "internalType": "uint256",
          "name": "refund",
          "type": "uint256"
        }
      ],
      "name": "CancelKey",
      "type": "event"
    },
    {
      "anonymous": false,
      "inputs": [],
      "name": "Disable",
      "type": "event"
    },
    {
      "anonymous": false,
      "inputs": [
        {
          "indexed": true,
          "internalType": "uint256",
          "name": "_tokenId",
          "type": "uint256"
        },
        {
          "indexed": false,
          "internalType": "uint256",
          "name": "_amount",
          "type": "uint256"
        },
        {
          "indexed": false,
          "internalType": "bool",
          "name": "_timeAdded",
          "type": "bool"
        }
      ],
      "name": "ExpirationChanged",
      "type": "event"
    },
    {
      "anonymous": false,
      "inputs": [
        {
          "indexed": true,
          "internalType": "uint256",
          "name": "tokenId",
          "type": "uint256"
        }
      ],
      "name": "ExpireKey",
      "type": "event"
    },
    {
      "anonymous": false,
      "inputs": [
        {
          "indexed": true,
          "internalType": "address",
          "name": "account",
          "type": "address"
        }
      ],
      "name": "KeyGranterAdded",
      "type": "event"
    },
    {
      "anonymous": false,
      "inputs": [
        {
          "indexed": true,
          "internalType": "address",
          "name": "account",
          "type": "address"
        }
      ],
      "name": "KeyGranterRemoved",
      "type": "event"
    },
    {
      "anonymous": false,
      "inputs": [
        {
          "indexed": true,
          "internalType": "uint256",
          "name": "_tokenId",
          "type": "uint256"
        },
        {
          "indexed": true,
          "internalType": "address",
          "name": "_newManager",
          "type": "address"
        }
      ],
      "name": "KeyManagerChanged",
      "type": "event"
    },
    {
      "anonymous": false,
      "inputs": [
        {
          "indexed": true,
          "internalType": "address",
          "name": "account",
          "type": "address"
        }
      ],
      "name": "LockManagerAdded",
      "type": "event"
    },
    {
      "anonymous": false,
      "inputs": [
        {
          "indexed": true,
          "internalType": "address",
          "name": "account",
          "type": "address"
        }
      ],
      "name": "LockManagerRemoved",
      "type": "event"
    },
    {
      "anonymous": false,
      "inputs": [
        {
          "indexed": false,
          "internalType": "string",
          "name": "symbol",
          "type": "string"
        }
      ],
      "name": "NewLockSymbol",
      "type": "event"
    },
    {
      "anonymous": false,
      "inputs": [
        {
          "indexed": false,
          "internalType": "uint256",
          "name": "oldKeyPrice",
          "type": "uint256"
        },
        {
          "indexed": false,
          "internalType": "uint256",
          "name": "keyPrice",
          "type": "uint256"
        },
        {
          "indexed": false,
          "internalType": "address",
          "name": "oldTokenAddress",
          "type": "address"
        },
        {
          "indexed": false,
          "internalType": "address",
          "name": "tokenAddress",
          "type": "address"
        }
      ],
      "name": "PricingChanged",
      "type": "event"
    },
    {
      "anonymous": false,
      "inputs": [
        {
          "indexed": false,
          "internalType": "uint256",
          "name": "freeTrialLength",
          "type": "uint256"
        },
        {
          "indexed": false,
          "internalType": "uint256",
          "name": "refundPenaltyBasisPoints",
          "type": "uint256"
        }
      ],
      "name": "RefundPenaltyChanged",
      "type": "event"
    },
    {
      "anonymous": false,
      "inputs": [
        {
          "indexed": true,
          "internalType": "address",
          "name": "owner",
          "type": "address"
        },
        {
          "indexed": false,
          "internalType": "uint256",
          "name": "newExpiration",
          "type": "uint256"
        }
      ],
      "name": "RenewKeyPurchase",
      "type": "event"
    },
    {
      "anonymous": false,
      "inputs": [
        {
          "indexed": true,
          "internalType": "bytes32",
          "name": "role",
          "type": "bytes32"
        },
        {
          "indexed": true,
          "internalType": "bytes32",
          "name": "previousAdminRole",
          "type": "bytes32"
        },
        {
          "indexed": true,
          "internalType": "bytes32",
          "name": "newAdminRole",
          "type": "bytes32"
        }
      ],
      "name": "RoleAdminChanged",
      "type": "event"
    },
    {
      "anonymous": false,
      "inputs": [
        {
          "indexed": true,
          "internalType": "bytes32",
          "name": "role",
          "type": "bytes32"
        },
        {
          "indexed": true,
          "internalType": "address",
          "name": "account",
          "type": "address"
        },
        {
          "indexed": true,
          "internalType": "address",
          "name": "sender",
          "type": "address"
        }
      ],
      "name": "RoleGranted",
      "type": "event"
    },
    {
      "anonymous": false,
      "inputs": [
        {
          "indexed": true,
          "internalType": "bytes32",
          "name": "role",
          "type": "bytes32"
        },
        {
          "indexed": true,
          "internalType": "address",
          "name": "account",
          "type": "address"
        },
        {
          "indexed": true,
          "internalType": "address",
          "name": "sender",
          "type": "address"
        }
      ],
      "name": "RoleRevoked",
      "type": "event"
    },
    {
      "anonymous": false,
      "inputs": [
        {
          "indexed": true,
          "internalType": "address",
          "name": "from",
          "type": "address"
        },
        {
          "indexed": true,
          "internalType": "address",
          "name": "to",
          "type": "address"
        },
        {
          "indexed": true,
          "internalType": "uint256",
          "name": "tokenId",
          "type": "uint256"
        }
      ],
      "name": "Transfer",
      "type": "event"
    },
    {
      "anonymous": false,
      "inputs": [
        {
          "indexed": false,
          "internalType": "uint256",
          "name": "transferFeeBasisPoints",
          "type": "uint256"
        }
      ],
      "name": "TransferFeeChanged",
      "type": "event"
    },
    {
      "anonymous": false,
      "inputs": [
        {
          "indexed": true,
          "internalType": "address",
          "name": "sender",
          "type": "address"
        },
        {
          "indexed": true,
          "internalType": "address",
          "name": "tokenAddress",
          "type": "address"
        },
        {
          "indexed": true,
          "internalType": "address",
          "name": "beneficiary",
          "type": "address"
        },
        {
          "indexed": false,
          "internalType": "uint256",
          "name": "amount",
          "type": "uint256"
        }
      ],
      "name": "Withdrawal",
      "type": "event"
    },
    {
      "stateMutability": "payable",
      "type": "fallback"
    },
    {
      "inputs": [],
      "name": "DEFAULT_ADMIN_ROLE",
      "outputs": [
        {
          "internalType": "bytes32",
          "name": "",
          "type": "bytes32"
        }
      ],
      "stateMutability": "view",
      "type": "function"
    },
    {
      "inputs": [],
      "name": "KEY_GRANTER_ROLE",
      "outputs": [
        {
          "internalType": "bytes32",
          "name": "",
          "type": "bytes32"
        }
      ],
      "stateMutability": "view",
      "type": "function"
    },
    {
      "inputs": [],
      "name": "LOCK_MANAGER_ROLE",
      "outputs": [
        {
          "internalType": "bytes32",
          "name": "",
          "type": "bytes32"
        }
      ],
      "stateMutability": "view",
      "type": "function"
    },
    {
      "inputs": [
        {
          "internalType": "address",
          "name": "account",
          "type": "address"
        }
      ],
      "name": "addKeyGranter",
      "outputs": [],
      "stateMutability": "nonpayable",
      "type": "function"
    },
    {
      "inputs": [
        {
          "internalType": "address",
          "name": "account",
          "type": "address"
        }
      ],
      "name": "addLockManager",
      "outputs": [],
      "stateMutability": "nonpayable",
      "type": "function"
    },
    {
      "inputs": [
        {
          "internalType": "address",
          "name": "_approved",
          "type": "address"
        },
        {
          "internalType": "uint256",
          "name": "_tokenId",
          "type": "uint256"
        }
      ],
      "name": "approve",
      "outputs": [],
      "stateMutability": "nonpayable",
      "type": "function"
    },
    {
      "inputs": [
        {
          "internalType": "address",
          "name": "_spender",
          "type": "address"
        },
        {
          "internalType": "uint256",
          "name": "_amount",
          "type": "uint256"
        }
      ],
      "name": "approveBeneficiary",
      "outputs": [
        {
          "internalType": "bool",
          "name": "",
          "type": "bool"
        }
      ],
      "stateMutability": "nonpayable",
      "type": "function"
    },
    {
      "inputs": [
        {
          "internalType": "address",
          "name": "_keyOwner",
          "type": "address"
        }
      ],
      "name": "balanceOf",
      "outputs": [
        {
          "internalType": "uint256",
          "name": "",
          "type": "uint256"
        }
      ],
      "stateMutability": "view",
      "type": "function"
    },
    {
      "inputs": [],
      "name": "beneficiary",
      "outputs": [
        {
          "internalType": "address payable",
          "name": "",
          "type": "address"
        }
      ],
      "stateMutability": "view",
      "type": "function"
    },
    {
      "inputs": [
        {
          "internalType": "uint256",
          "name": "_tokenId",
          "type": "uint256"
        }
      ],
      "name": "cancelAndRefund",
      "outputs": [],
      "stateMutability": "nonpayable",
      "type": "function"
    },
    {
      "inputs": [],
      "name": "disableLock",
      "outputs": [],
      "stateMutability": "nonpayable",
      "type": "function"
    },
    {
      "inputs": [],
      "name": "expirationDuration",
      "outputs": [
        {
          "internalType": "uint256",
          "name": "",
          "type": "uint256"
        }
      ],
      "stateMutability": "view",
      "type": "function"
    },
    {
      "inputs": [
        {
          "internalType": "address payable",
          "name": "_keyOwner",
          "type": "address"
        },
        {
          "internalType": "uint256",
          "name": "amount",
          "type": "uint256"
        }
      ],
      "name": "expireAndRefundFor",
      "outputs": [],
      "stateMutability": "nonpayable",
      "type": "function"
    },
    {
      "inputs": [],
      "name": "freeTrialLength",
      "outputs": [
        {
          "internalType": "uint256",
          "name": "",
          "type": "uint256"
        }
      ],
      "stateMutability": "view",
      "type": "function"
    },
    {
      "inputs": [
        {
          "internalType": "uint256",
          "name": "_tokenId",
          "type": "uint256"
        }
      ],
      "name": "getApproved",
      "outputs": [
        {
          "internalType": "address",
          "name": "",
          "type": "address"
        }
      ],
      "stateMutability": "view",
      "type": "function"
    },
    {
      "inputs": [
        {
          "internalType": "address",
          "name": "_keyOwner",
          "type": "address"
        }
      ],
      "name": "getCancelAndRefundValueFor",
      "outputs": [
        {
          "internalType": "uint256",
          "name": "refund",
          "type": "uint256"
        }
      ],
      "stateMutability": "view",
      "type": "function"
    },
    {
      "inputs": [
        {
          "internalType": "address",
          "name": "_keyOwner",
          "type": "address"
        }
      ],
      "name": "getHasValidKey",
      "outputs": [
        {
          "internalType": "bool",
          "name": "",
          "type": "bool"
        }
      ],
      "stateMutability": "view",
      "type": "function"
    },
    {
      "inputs": [
        {
          "internalType": "bytes32",
          "name": "role",
          "type": "bytes32"
        }
      ],
      "name": "getRoleAdmin",
      "outputs": [
        {
          "internalType": "bytes32",
          "name": "",
          "type": "bytes32"
        }
      ],
      "stateMutability": "view",
      "type": "function"
    },
    {
      "inputs": [
        {
          "internalType": "address",
          "name": "_account",
          "type": "address"
        }
      ],
      "name": "getTokenIdFor",
      "outputs": [
        {
          "internalType": "uint256",
          "name": "",
          "type": "uint256"
        }
      ],
      "stateMutability": "view",
      "type": "function"
    },
    {
      "inputs": [
        {
          "internalType": "address",
          "name": "_keyOwner",
          "type": "address"
        },
        {
          "internalType": "uint256",
          "name": "_time",
          "type": "uint256"
        }
      ],
      "name": "getTransferFee",
      "outputs": [
        {
          "internalType": "uint256",
          "name": "",
          "type": "uint256"
        }
      ],
      "stateMutability": "view",
      "type": "function"
    },
    {
      "inputs": [
        {
          "internalType": "address[]",
          "name": "_recipients",
          "type": "address[]"
        },
        {
          "internalType": "uint256[]",
          "name": "_expirationTimestamps",
          "type": "uint256[]"
        },
        {
          "internalType": "address[]",
          "name": "_keyManagers",
          "type": "address[]"
        }
      ],
      "name": "grantKeys",
      "outputs": [],
      "stateMutability": "nonpayable",
      "type": "function"
    },
    {
      "inputs": [
        {
          "internalType": "bytes32",
          "name": "role",
          "type": "bytes32"
        },
        {
          "internalType": "address",
          "name": "account",
          "type": "address"
        }
      ],
      "name": "grantRole",
      "outputs": [],
      "stateMutability": "nonpayable",
      "type": "function"
    },
    {
      "inputs": [
        {
          "internalType": "bytes32",
          "name": "role",
          "type": "bytes32"
        },
        {
          "internalType": "address",
          "name": "account",
          "type": "address"
        }
      ],
      "name": "hasRole",
      "outputs": [
        {
          "internalType": "bool",
          "name": "",
          "type": "bool"
        }
      ],
      "stateMutability": "view",
      "type": "function"
    },
    {
      "inputs": [
        {
          "internalType": "address payable",
          "name": "_lockCreator",
          "type": "address"
        },
        {
          "internalType": "uint256",
          "name": "_expirationDuration",
          "type": "uint256"
        },
        {
          "internalType": "address",
          "name": "_tokenAddress",
          "type": "address"
        },
        {
          "internalType": "uint256",
          "name": "_keyPrice",
          "type": "uint256"
        },
        {
          "internalType": "uint256",
          "name": "_maxNumberOfKeys",
          "type": "uint256"
        },
        {
          "internalType": "string",
          "name": "_lockName",
          "type": "string"
        }
      ],
      "name": "initialize",
      "outputs": [],
      "stateMutability": "nonpayable",
      "type": "function"
    },
    {
      "inputs": [],
      "name": "isAlive",
      "outputs": [
        {
          "internalType": "bool",
          "name": "",
          "type": "bool"
        }
      ],
      "stateMutability": "view",
      "type": "function"
    },
    {
      "inputs": [
        {
          "internalType": "address",
          "name": "_owner",
          "type": "address"
        },
        {
          "internalType": "address",
          "name": "_operator",
          "type": "address"
        }
      ],
      "name": "isApprovedForAll",
      "outputs": [
        {
          "internalType": "bool",
          "name": "",
          "type": "bool"
        }
      ],
      "stateMutability": "view",
      "type": "function"
    },
    {
      "inputs": [
        {
          "internalType": "address",
          "name": "account",
          "type": "address"
        }
      ],
      "name": "isKeyGranter",
      "outputs": [
        {
          "internalType": "bool",
          "name": "",
          "type": "bool"
        }
      ],
      "stateMutability": "view",
      "type": "function"
    },
    {
      "inputs": [
        {
          "internalType": "address",
          "name": "account",
          "type": "address"
        }
      ],
      "name": "isLockManager",
      "outputs": [
        {
          "internalType": "bool",
          "name": "",
          "type": "bool"
        }
      ],
      "stateMutability": "view",
      "type": "function"
    },
    {
      "inputs": [
        {
          "internalType": "address",
          "name": "_keyOwner",
          "type": "address"
        }
      ],
      "name": "keyExpirationTimestampFor",
      "outputs": [
        {
          "internalType": "uint256",
          "name": "",
          "type": "uint256"
        }
      ],
      "stateMutability": "view",
      "type": "function"
    },
    {
      "inputs": [
        {
          "internalType": "uint256",
          "name": "",
          "type": "uint256"
        }
      ],
      "name": "keyManagerOf",
      "outputs": [
        {
          "internalType": "address",
          "name": "",
          "type": "address"
        }
      ],
      "stateMutability": "view",
      "type": "function"
    },
    {
      "inputs": [],
      "name": "keyPrice",
      "outputs": [
        {
          "internalType": "uint256",
          "name": "",
          "type": "uint256"
        }
      ],
      "stateMutability": "view",
      "type": "function"
    },
    {
      "inputs": [],
      "name": "maxNumberOfKeys",
      "outputs": [
        {
          "internalType": "uint256",
          "name": "",
          "type": "uint256"
        }
      ],
      "stateMutability": "view",
      "type": "function"
    },
    {
      "inputs": [],
      "name": "name",
      "outputs": [
        {
          "internalType": "string",
          "name": "",
          "type": "string"
        }
      ],
      "stateMutability": "view",
      "type": "function"
    },
    {
      "inputs": [],
      "name": "numberOfOwners",
      "outputs": [
        {
          "internalType": "uint256",
          "name": "",
          "type": "uint256"
        }
      ],
      "stateMutability": "view",
      "type": "function"
    },
    {
      "inputs": [],
      "name": "onKeyCancelHook",
      "outputs": [
        {
          "internalType": "contract ILockKeyCancelHook",
          "name": "",
          "type": "address"
        }
      ],
      "stateMutability": "view",
      "type": "function"
    },
    {
      "inputs": [],
      "name": "onKeyPurchaseHook",
      "outputs": [
        {
          "internalType": "contract ILockKeyPurchaseHook",
          "name": "",
          "type": "address"
        }
      ],
      "stateMutability": "view",
      "type": "function"
    },
    {
      "inputs": [
        {
          "internalType": "uint256",
          "name": "_tokenId",
          "type": "uint256"
        }
      ],
      "name": "ownerOf",
      "outputs": [
        {
          "internalType": "address",
          "name": "",
          "type": "address"
        }
      ],
      "stateMutability": "view",
      "type": "function"
    },
    {
      "inputs": [
        {
          "internalType": "uint256",
          "name": "",
          "type": "uint256"
        }
      ],
      "name": "owners",
      "outputs": [
        {
          "internalType": "address",
          "name": "",
          "type": "address"
        }
      ],
      "stateMutability": "view",
      "type": "function"
    },
    {
      "inputs": [],
      "name": "publicLockVersion",
      "outputs": [
        {
          "internalType": "uint16",
          "name": "",
          "type": "uint16"
        }
      ],
      "stateMutability": "pure",
      "type": "function"
    },
    {
      "inputs": [
        {
          "internalType": "uint256",
          "name": "_value",
          "type": "uint256"
        },
        {
          "internalType": "address",
          "name": "_recipient",
          "type": "address"
        },
        {
          "internalType": "address",
          "name": "_referrer",
          "type": "address"
        },
        {
          "internalType": "bytes",
          "name": "_data",
          "type": "bytes"
        }
      ],
      "name": "purchase",
      "outputs": [],
      "stateMutability": "payable",
      "type": "function"
    },
    {
      "inputs": [
        {
          "internalType": "address",
          "name": "_recipient",
          "type": "address"
        },
        {
          "internalType": "address",
          "name": "_referrer",
          "type": "address"
        },
        {
          "internalType": "bytes",
          "name": "_data",
          "type": "bytes"
        }
      ],
      "name": "purchasePriceFor",
      "outputs": [
        {
          "internalType": "uint256",
          "name": "minKeyPrice",
          "type": "uint256"
        }
      ],
      "stateMutability": "view",
      "type": "function"
    },
    {
      "inputs": [],
      "name": "refundPenaltyBasisPoints",
      "outputs": [
        {
          "internalType": "uint256",
          "name": "",
          "type": "uint256"
        }
      ],
      "stateMutability": "view",
      "type": "function"
    },
    {
      "inputs": [],
      "name": "renounceLockManager",
      "outputs": [],
      "stateMutability": "nonpayable",
      "type": "function"
    },
    {
      "inputs": [
        {
          "internalType": "bytes32",
          "name": "role",
          "type": "bytes32"
        },
        {
          "internalType": "address",
          "name": "account",
          "type": "address"
        }
      ],
      "name": "renounceRole",
      "outputs": [],
      "stateMutability": "nonpayable",
      "type": "function"
    },
    {
      "inputs": [
        {
          "internalType": "address",
          "name": "_granter",
          "type": "address"
        }
      ],
      "name": "revokeKeyGranter",
      "outputs": [],
      "stateMutability": "nonpayable",
      "type": "function"
    },
    {
      "inputs": [
        {
          "internalType": "bytes32",
          "name": "role",
          "type": "bytes32"
        },
        {
          "internalType": "address",
          "name": "account",
          "type": "address"
        }
      ],
      "name": "revokeRole",
      "outputs": [],
      "stateMutability": "nonpayable",
      "type": "function"
    },
    {
      "inputs": [
        {
          "internalType": "address",
          "name": "_from",
          "type": "address"
        },
        {
          "internalType": "address",
          "name": "_to",
          "type": "address"
        },
        {
          "internalType": "uint256",
          "name": "_tokenId",
          "type": "uint256"
        }
      ],
      "name": "safeTransferFrom",
      "outputs": [],
      "stateMutability": "nonpayable",
      "type": "function"
    },
    {
      "inputs": [
        {
          "internalType": "address",
          "name": "_from",
          "type": "address"
        },
        {
          "internalType": "address",
          "name": "_to",
          "type": "address"
        },
        {
          "internalType": "uint256",
          "name": "_tokenId",
          "type": "uint256"
        },
        {
          "internalType": "bytes",
          "name": "_data",
          "type": "bytes"
        }
      ],
      "name": "safeTransferFrom",
      "outputs": [],
      "stateMutability": "nonpayable",
      "type": "function"
    },
    {
      "inputs": [],
      "name": "sayHello",
      "outputs": [
        {
          "internalType": "string",
          "name": "",
          "type": "string"
        }
      ],
      "stateMutability": "pure",
      "type": "function"
    },
    {
      "inputs": [
        {
          "internalType": "address",
          "name": "_to",
          "type": "address"
        },
        {
          "internalType": "bool",
          "name": "_approved",
          "type": "bool"
        }
      ],
      "name": "setApprovalForAll",
      "outputs": [],
      "stateMutability": "nonpayable",
      "type": "function"
    },
    {
      "inputs": [
        {
          "internalType": "string",
          "name": "_baseTokenURI",
          "type": "string"
        }
      ],
      "name": "setBaseTokenURI",
      "outputs": [],
      "stateMutability": "nonpayable",
      "type": "function"
    },
    {
      "inputs": [
        {
          "internalType": "address",
          "name": "_onKeyPurchaseHook",
          "type": "address"
        },
        {
          "internalType": "address",
          "name": "_onKeyCancelHook",
          "type": "address"
        }
      ],
      "name": "setEventHooks",
      "outputs": [],
      "stateMutability": "nonpayable",
      "type": "function"
    },
    {
      "inputs": [
        {
          "internalType": "uint256",
          "name": "_tokenId",
          "type": "uint256"
        },
        {
          "internalType": "address",
          "name": "_keyManager",
          "type": "address"
        }
      ],
      "name": "setKeyManagerOf",
      "outputs": [],
      "stateMutability": "nonpayable",
      "type": "function"
    },
    {
      "inputs": [
        {
          "internalType": "address",
          "name": "_to",
          "type": "address"
        },
        {
          "internalType": "uint256",
          "name": "_tokenId",
          "type": "uint256"
        },
        {
          "internalType": "uint256",
          "name": "_timeShared",
          "type": "uint256"
        }
      ],
      "name": "shareKey",
      "outputs": [],
      "stateMutability": "nonpayable",
      "type": "function"
    },
    {
      "inputs": [
        {
          "internalType": "bytes4",
          "name": "interfaceId",
          "type": "bytes4"
        }
      ],
      "name": "supportsInterface",
      "outputs": [
        {
          "internalType": "bool",
          "name": "",
          "type": "bool"
        }
      ],
      "stateMutability": "view",
      "type": "function"
    },
    {
      "inputs": [],
      "name": "symbol",
      "outputs": [
        {
          "internalType": "string",
          "name": "",
          "type": "string"
        }
      ],
      "stateMutability": "view",
      "type": "function"
    },
    {
      "inputs": [],
      "name": "tokenAddress",
      "outputs": [
        {
          "internalType": "address",
          "name": "",
          "type": "address"
        }
      ],
      "stateMutability": "view",
      "type": "function"
    },
    {
      "inputs": [
        {
          "internalType": "uint256",
          "name": "_index",
          "type": "uint256"
        }
      ],
      "name": "tokenByIndex",
      "outputs": [
        {
          "internalType": "uint256",
          "name": "",
          "type": "uint256"
        }
      ],
      "stateMutability": "view",
      "type": "function"
    },
    {
      "inputs": [
        {
          "internalType": "address",
          "name": "_keyOwner",
          "type": "address"
        },
        {
          "internalType": "uint256",
          "name": "_index",
          "type": "uint256"
        }
      ],
      "name": "tokenOfOwnerByIndex",
      "outputs": [
        {
          "internalType": "uint256",
          "name": "",
          "type": "uint256"
        }
      ],
      "stateMutability": "view",
      "type": "function"
    },
    {
      "inputs": [
        {
          "internalType": "uint256",
          "name": "_tokenId",
          "type": "uint256"
        }
      ],
      "name": "tokenURI",
      "outputs": [
        {
          "internalType": "string",
          "name": "",
          "type": "string"
        }
      ],
      "stateMutability": "view",
      "type": "function"
    },
    {
      "inputs": [],
      "name": "totalSupply",
      "outputs": [
        {
          "internalType": "uint256",
          "name": "",
          "type": "uint256"
        }
      ],
      "stateMutability": "view",
      "type": "function"
    },
    {
      "inputs": [
        {
          "internalType": "address",
          "name": "_to",
          "type": "address"
        },
        {
          "internalType": "uint256",
          "name": "_value",
          "type": "uint256"
        }
      ],
      "name": "transfer",
      "outputs": [
        {
          "internalType": "bool",
          "name": "success",
          "type": "bool"
        }
      ],
      "stateMutability": "nonpayable",
      "type": "function"
    },
    {
      "inputs": [],
      "name": "transferFeeBasisPoints",
      "outputs": [
        {
          "internalType": "uint256",
          "name": "",
          "type": "uint256"
        }
      ],
      "stateMutability": "view",
      "type": "function"
    },
    {
      "inputs": [
        {
          "internalType": "address",
          "name": "_from",
          "type": "address"
        },
        {
          "internalType": "address",
          "name": "_recipient",
          "type": "address"
        },
        {
          "internalType": "uint256",
          "name": "_tokenId",
          "type": "uint256"
        }
      ],
      "name": "transferFrom",
      "outputs": [],
      "stateMutability": "nonpayable",
      "type": "function"
    },
    {
      "inputs": [],
      "name": "unlockProtocol",
      "outputs": [
        {
          "internalType": "contract IUnlock",
          "name": "",
          "type": "address"
        }
      ],
      "stateMutability": "view",
      "type": "function"
    },
    {
      "inputs": [
        {
          "internalType": "address payable",
          "name": "_beneficiary",
          "type": "address"
        }
      ],
      "name": "updateBeneficiary",
      "outputs": [],
      "stateMutability": "nonpayable",
      "type": "function"
    },
    {
      "inputs": [
        {
          "internalType": "uint256",
          "name": "_keyPrice",
          "type": "uint256"
        },
        {
          "internalType": "address",
          "name": "_tokenAddress",
          "type": "address"
        }
      ],
      "name": "updateKeyPricing",
      "outputs": [],
      "stateMutability": "nonpayable",
      "type": "function"
    },
    {
      "inputs": [
        {
          "internalType": "string",
          "name": "_lockName",
          "type": "string"
        }
      ],
      "name": "updateLockName",
      "outputs": [],
      "stateMutability": "nonpayable",
      "type": "function"
    },
    {
      "inputs": [
        {
          "internalType": "string",
          "name": "_lockSymbol",
          "type": "string"
        }
      ],
      "name": "updateLockSymbol",
      "outputs": [],
      "stateMutability": "nonpayable",
      "type": "function"
    },
    {
      "inputs": [
        {
          "internalType": "uint256",
          "name": "_freeTrialLength",
          "type": "uint256"
        },
        {
          "internalType": "uint256",
          "name": "_refundPenaltyBasisPoints",
          "type": "uint256"
        }
      ],
      "name": "updateRefundPenalty",
      "outputs": [],
      "stateMutability": "nonpayable",
      "type": "function"
    },
    {
      "inputs": [
        {
          "internalType": "uint256",
          "name": "_transferFeeBasisPoints",
          "type": "uint256"
        }
      ],
      "name": "updateTransferFee",
      "outputs": [],
      "stateMutability": "nonpayable",
      "type": "function"
    },
    {
      "inputs": [
        {
          "internalType": "address",
          "name": "_tokenAddress",
          "type": "address"
        },
        {
          "internalType": "uint256",
          "name": "_amount",
          "type": "uint256"
        }
      ],
      "name": "withdraw",
      "outputs": [],
      "stateMutability": "nonpayable",
      "type": "function"
    },
    {
      "stateMutability": "payable",
      "type": "receive"
    }
  ],
  "bytecode": "0x608060405234801561001057600080fd5b506153f5806100206000396000f3fe6080604052600436106103ef5760003560e01c80636eadde4311610206578063aae4b8f711610117578063d2503485116100a5578063ef5fb05b11610077578063ef5fb05b14610c81578063f0ba604014610cb5578063f12c6b6e14610cca578063f3fef3a314610cea578063fc42b58f14610d0a57005b8063d250348514610c01578063d32bfb6c14610c21578063d547741f14610c41578063e985e9c514610c6157005b8063b585a6d5116100e9578063b585a6d514610b70578063b88d4fde14610b90578063c1c98d0314610bb0578063c87b56dd14610bc5578063d1bbd49c14610be557005b8063aae4b8f714610ad7578063abdf82ce14610af7578063ad0e0a4d14610b30578063b11d7ec114610b5057005b806395d89b4111610194578063a217fddf11610166578063a217fddf14610a4c578063a22cb46514610a61578063a2e4cd2e14610a81578063a375cb0514610aa1578063a9059cbb14610ab757005b806395d89b41146109c1578063970aaeb7146109d657806397aa390a14610a0c5780639d76ea5814610a2c57005b806381a3c943116101d857806381a3c9431461092a5780638577a6d51461094a5780638ca2fbad1461096a57806391d148541461098c57806393fd1844146109ac57005b80636eadde43146108b457806370a08231146108d457806374b6c106146108f4578063782a4ade1461090a57005b80632f2ff15d116103005780634d025fed1161028e578063550ef3a811610260578063550ef3a814610808578063564aa99d1461082857806356e0d51f146108485780636352211e1461085e5780636d8ea5b41461089457005b80634d025fed146107725780634f6ccce7146107a857806352b0f638146107c857806352d6a8e4146107e857005b806338af3eed116102d257806338af3eed146106de57806339f46986146106fe5780633f33133a1461071e5780634136aa351461073157806342842e0e1461075257005b80632f2ff15d1461065e5780632f745c591461067e57806330176e131461069e57806336568abe146106be57005b806311a4c03a1161037d578063231005091161034f57806323100509146105ac57806323b872dd146105ce578063248a9ca3146105ee5780632af9162a1461061e5780632d33dd5b1461063e57005b806311a4c03a1461054b57806318160ddd14610561578063183767da14610576578063217751bc1461058c57005b8063095ea7b3116103c1578063095ea7b3146104a7578063097ba333146104c75780630aaffd2a146104f55780630f15023b1461051557806310e569731461053557005b806301ffc9a7146103f8578063025e7c271461042d57806306fdde0314610465578063081812fc1461048757005b366103f657005b005b34801561040457600080fd5b50610418610413366004614c5f565b610d2a565b60405190151581526020015b60405180910390f35b34801561043957600080fd5b5061044d610448366004614c23565b610d3b565b6040516001600160a01b039091168152602001610424565b34801561047157600080fd5b5061047a610d65565b6040516104249190615017565b34801561049357600080fd5b5061044d6104a2366004614c23565b610df3565b3480156104b357600080fd5b506103f66104c2366004614b2c565b610e6d565b3480156104d357600080fd5b506104e76104e23660046149b7565b610fa5565b604051908152602001610424565b34801561050157600080fd5b506103f66105103660046148b5565b610ff4565b34801561052157600080fd5b5060ca5461044d906001600160a01b031681565b34801561054157600080fd5b506104e760cc5481565b34801561055757600080fd5b506104e760cb5481565b34801561056d57600080fd5b5060ce546104e7565b34801561058257600080fd5b506104e760db5481565b34801561059857600080fd5b5060d15461044d906001600160a01b031681565b3480156105b857600080fd5b506104e760008051602061536083398151915281565b3480156105da57600080fd5b506103f66105e9366004614a19565b6110a5565b3480156105fa57600080fd5b506104e7610609366004614c23565b60009081526097602052604090206001015490565b34801561062a57600080fd5b506103f66106393660046148b5565b61131b565b34801561064a57600080fd5b5060d05461044d906001600160a01b031681565b34801561066a57600080fd5b506103f6610679366004614c3b565b61139e565b34801561068a57600080fd5b506104e7610699366004614b2c565b6113c9565b3480156106aa57600080fd5b506103f66106b9366004614c97565b611433565b3480156106ca57600080fd5b506103f66106d9366004614c3b565b611473565b3480156106ea57600080fd5b5060cf5461044d906001600160a01b031681565b34801561070a57600080fd5b506103f6610719366004614dd0565b6114f1565b6103f661072c366004614d60565b611569565b34801561073d57600080fd5b5060c95461041890600160a01b900460ff1681565b34801561075e57600080fd5b506103f661076d366004614a19565b6119e3565b34801561077e57600080fd5b5061044d61078d366004614c23565b60d5602052600090815260409020546001600160a01b031681565b3480156107b457600080fd5b506104e76107c3366004614c23565b6119fe565b3480156107d457600080fd5b506104186107e33660046148b5565b611a44565b3480156107f457600080fd5b506104e76108033660046148b5565b611a5e565b34801561081457600080fd5b506103f6610823366004614c97565b611a69565b34801561083457600080fd5b506103f66108433660046148b5565b611aa9565b34801561085457600080fd5b506104e760dc5481565b34801561086a57600080fd5b5061044d610879366004614c23565b600090815260d360205260409020546001600160a01b031690565b3480156108a057600080fd5b506104186108af3660046148b5565b611b2c565b3480156108c057600080fd5b506103f66108cf3660046148fc565b611b4c565b3480156108e057600080fd5b506104e76108ef3660046148b5565b611c22565b34801561090057600080fd5b506104e760cd5481565b34801561091657600080fd5b506103f6610925366004614c97565b611c6a565b34801561093657600080fd5b506103f6610945366004614b72565b611ce8565b34801561095657600080fd5b506103f6610965366004614c23565b611f55565b34801561097657600080fd5b506104e76000805160206153a083398151915281565b34801561099857600080fd5b506104186109a7366004614c3b565b611fc1565b3480156109b857600080fd5b5060d4546104e7565b3480156109cd57600080fd5b5061047a611fec565b3480156109e257600080fd5b506104e76109f13660046148b5565b6001600160a01b0316600090815260d2602052604090205490565b348015610a1857600080fd5b506103f6610a273660046148d1565b612122565b348015610a3857600080fd5b5060c95461044d906001600160a01b031681565b348015610a5857600080fd5b506104e7600081565b348015610a6d57600080fd5b506103f6610a7c366004614aff565b612186565b348015610a8d57600080fd5b506103f6610a9c366004614c3b565b612263565b348015610aad57600080fd5b506104e760dd5481565b348015610ac357600080fd5b50610418610ad2366004614b2c565b6123fd565b348015610ae357600080fd5b50610418610af23660046148b5565b61246a565b348015610b0357600080fd5b506104e7610b123660046148b5565b6001600160a01b0316600090815260d2602052604090206001015490565b348015610b3c57600080fd5b506103f6610b4b36600461497f565b612484565b348015610b5c57600080fd5b506103f6610b6b366004614c3b565b6125bc565b348015610b7c57600080fd5b50610418610b8b366004614b2c565b61267f565b348015610b9c57600080fd5b506103f6610bab366004614a59565b612771565b348015610bbc57600080fd5b506103f66127da565b348015610bd157600080fd5b5061047a610be0366004614c23565b61286f565b348015610bf157600080fd5b5060405160098152602001610424565b348015610c0d57600080fd5b506103f6610c1c3660046148b5565b612a35565b348015610c2d57600080fd5b506103f6610c3c366004614c23565b612ab8565b348015610c4d57600080fd5b506103f6610c5c366004614c3b565b612b45565b348015610c6d57600080fd5b50610418610c7c36600461497f565b612b6b565b348015610c8d57600080fd5b5060408051808201909152600b81526a1a195b1b1bc81ddbdc9b1960aa1b602082015261047a565b348015610cc157600080fd5b506103f6612c00565b348015610cd657600080fd5b506103f6610ce5366004614b3e565b612c45565b348015610cf657600080fd5b506103f6610d05366004614b2c565b612f39565b348015610d1657600080fd5b506104e7610d25366004614b2c565b6130f3565b6000610d358261316a565b92915050565b60d48181548110610d4b57600080fd5b6000918252602090912001546001600160a01b0316905081565b60d88054610d72906152aa565b80601f0160208091040260200160405190810160405280929190818152602001828054610d9e906152aa565b8015610deb5780601f10610dc057610100808354040283529160200191610deb565b820191906000526020600020905b815481529060010190602001808311610dce57829003601f168201915b505050505081565b600081815260d3602052604081205482906001600160a01b0316610e4c5760405162461bcd60e51b815260206004820152600b60248201526a4e4f5f535543485f4b455960a81b60448201526064015b60405180910390fd5b600083815260d660205260409020546001600160a01b031691505b50919050565b60c954600160a01b900460ff16610e965760405162461bcd60e51b8152600401610e4390615154565b80610ea18133613175565b80610eb15750610eb181336131eb565b80610ed95750600081815260d36020526040902054610ed9906001600160a01b031633612b6b565b610ef55760405162461bcd60e51b8152600401610e439061507a565b336001600160a01b0384161415610f3d5760405162461bcd60e51b815260206004820152600c60248201526b20a8282927ab22afa9a2a62360a11b6044820152606401610e43565b600082815260d66020908152604080832080546001600160a01b0319166001600160a01b0388811691821790925560d3909352818420549151869492909116917f8c5be1e5ebec7d5bd14f71427d1e84f3dd0314c0f7b2291e5b200ac8c7c3b92591a4505050565b6000610fe8858585858080601f01602080910402602001604051908101604052809392919081815260200183838082843760009201919091525061320c92505050565b50909695505050505050565b60cf546001600160a01b031633148061101157506110113361246a565b61105d5760405162461bcd60e51b815260206004820152601f60248201527f4f4e4c595f42454e45464943494152595f4f525f4c4f434b4d414e41474552006044820152606401610e43565b6001600160a01b0381166110835760405162461bcd60e51b8152600401610e439061502a565b60cf80546001600160a01b0319166001600160a01b0392909216919091179055565b60c954600160a01b900460ff166110ce5760405162461bcd60e51b8152600401610e4390615154565b826110d881611b2c565b6110f45760405162461bcd60e51b8152600401610e4390615053565b816110ff8133613175565b8061110f575061110f81336131eb565b806111375750600081815260d36020526040902054611137906001600160a01b031633612b6b565b6111535760405162461bcd60e51b8152600401610e439061507a565b600083815260d360205260409020546001600160a01b038681169116146111bc5760405162461bcd60e51b815260206004820152601c60248201527f5452414e534645525f46524f4d3a204e4f545f4b45595f4f574e4552000000006044820152606401610e43565b61271060db54106112085760405162461bcd60e51b815260206004820152601660248201527512d15657d514905394d1915494d7d11254d05093115160521b6044820152606401610e43565b6001600160a01b03841661122e5760405162461bcd60e51b8152600401610e439061502a565b600061123b8660006130f3565b6001600160a01b03808816600090815260d2602052604080822092891682528120600181015493945091929061127490889086906133ab565b81546112905786825561128788886134ac565b61129087613533565b4281116112be57600180840154908301558682556112af876000613570565b6112b988886134ac565b6112df565b428184600101546112cf91906151d4565b6112d99190615250565b60018301555b426001840155600080845560405188916001600160a01b03808c1692908d169160008051602061538083398151915291a4505050505050505050565b6113336000805160206153a083398151915233611fc1565b61134f5760405162461bcd60e51b8152600401610e43906150ff565b61136760008051602061536083398151915282612b45565b6040516001600160a01b038216907f766f6199fea59554b9ff688e413302b9200f85d74811c053c12d945ac6d8dd7a90600090a250565b6000828152609760205260409020600101546113ba81336135f2565b6113c48383613656565b505050565b600081156114125760405162461bcd60e51b815260206004820152601660248201527527a7262cafa7a722afa5a2acafa822a92fa7aba722a960511b6044820152606401610e43565b6001600160a01b038316600090815260d260205260409020545b9392505050565b61144b6000805160206153a083398151915233611fc1565b6114675760405162461bcd60e51b8152600401610e43906150ff565b6113c460da838361479d565b6001600160a01b03811633146114e35760405162461bcd60e51b815260206004820152602f60248201527f416363657373436f6e74726f6c3a2063616e206f6e6c792072656e6f756e636560448201526e103937b632b9903337b91039b2b63360891b6064820152608401610e43565b6114ed82826136dc565b5050565b6115096000805160206153a083398151915233611fc1565b6115255760405162461bcd60e51b8152600401610e43906150ff565b60408051838152602081018390527fd6867bc538320e67d7bdc35860c27c08486eb490b4fd9b820fff18fb28381d3c910160405180910390a160dd9190915560dc55565b60c954600160a01b900460ff166115925760405162461bcd60e51b8152600401610e4390615154565b60ce5460cd54116115d55760405162461bcd60e51b815260206004820152600d60248201526c1313d0d2d7d4d3d31117d3d555609a1b6044820152606401610e43565b6001600160a01b0384166115fb5760405162461bcd60e51b8152600401610e439061502a565b6001600160a01b038416600090815260d26020526040812080549091816116755761162583613743565b8254915061163387836134ac565b60cb5461164090426151d4565b6001840181905560405190915082906001600160a01b03891690600090600080516020615380833981519152908290a4611745565b42836001015411156116e05760cb54836001015461169391906151d4565b600184018190556040518181529091506001600160a01b038816907f872bd7c99ad5e7b6ed7f0a890f348839cb8e225c9deaa3909afedae54c93d17d9060200160405180910390a2611745565b60cb546116ed90426151d4565b600184018190559050611701826000613570565b866001600160a01b03167f872bd7c99ad5e7b6ed7f0a890f348839cb8e225c9deaa3909afedae54c93d17d8260405161173c91815260200190565b60405180910390a25b600080600061178b8a8a8a8a8080601f01602080910402602001604051908101604052809392919081815260200183838082843760009201919091525061320c92505050565b9194509250905081156117fe5760ca54604051633652466360e01b815260048101849052602481018390526001600160a01b0390911690633652466390604401600060405180830381600087803b1580156117e557600080fd5b505af11580156117f9573d6000803e3d6000fd5b505050505b60ca5460405163939d9f1f60e01b8152600481018590526001600160a01b038b811660248301529091169063939d9f1f90604401600060405180830381600087803b15801561184c57600080fd5b505af1158015611860573d6000803e3d6000fd5b505060c954600092506001600160a01b031615905061190d575060c9546040516323b872dd60e01b8152336004820152306024820152604481018d90528c916001600160a01b03169081906323b872dd90606401602060405180830381600087803b1580156118ce57600080fd5b505af11580156118e2573d6000803e3d6000fd5b505050506040513d601f19601f820116820180604052508101906119069190614c07565b5050611910565b50345b838110156119555760405162461bcd60e51b8152602060048201526012602482015271494e53554646494349454e545f56414c554560701b6044820152606401610e43565b60d0546001600160a01b0316156119d55760d054604051639849965760e01b81526001600160a01b03909116906398499657906119a29033908f908f908f908f908c908a90600401614f51565b600060405180830381600087803b1580156119bc57600080fd5b505af11580156119d0573d6000803e3d6000fd5b505050505b505050505050505050505050565b6113c483838360405180602001604052806000815250612771565b600060ce548210611a405760405162461bcd60e51b815260206004820152600c60248201526b4f55545f4f465f52414e474560a01b6044820152606401610e43565b5090565b6000610d3560008051602061536083398151915283611fc1565b6000610d3582613765565b611a816000805160206153a083398151915233611fc1565b611a9d5760405162461bcd60e51b8152600401610e43906150ff565b6113c460d8838361479d565b611ac16000805160206153a083398151915233611fc1565b611add5760405162461bcd60e51b8152600401610e43906150ff565b611af56000805160206153608339815191528261139e565b6040516001600160a01b038216907f684f8a71407db0c334454ebe9c9b288549317893a20b10dc779ec5c118dcd12190600090a250565b6001600160a01b0316600090815260d26020526040902060010154421090565b600054610100900460ff1680611b65575060005460ff16155b611b815760405162461bcd60e51b8152600401610e43906150b1565b600054610100900460ff16158015611ba3576000805461ffff19166101011790555b611bac86613862565b611bc460c9805460ff60a01b1916600160a01b179055565b611bd088888787613938565b611bda83836139c9565b611be26139ee565b611bed6103e860dc55565b611bf688613a00565b611c066380ac58cd60e01b613a88565b8015611c18576000805461ff00191690555b5050505050505050565b60006001600160a01b038216611c4a5760405162461bcd60e51b8152600401610e439061502a565b611c5382611b2c565b611c5e576000611c61565b60015b60ff1692915050565b611c826000805160206153a083398151915233611fc1565b611c9e5760405162461bcd60e51b8152600401610e43906150ff565b611caa60d9838361479d565b507f8868e22e84ebf32da89b2ebcb0ac642816304ea3863b257f240df9098719cb978282604051611cdc929190615003565b60405180910390a15050565b611cf133611a44565b80611d005750611d003361246a565b611d7e5760405162461bcd60e51b815260206004820152604360248201527f4d6978696e526f6c65733a2063616c6c657220646f6573206e6f74206861766560448201527f20746865204b65794772616e746572206f72204c6f636b4d616e6167657220726064820152626f6c6560e81b608482015260a401610e43565b60005b85811015611f4c576000878783818110611dab57634e487b7160e01b600052603260045260246000fd5b9050602002016020810190611dc091906148b5565b90506000868684818110611de457634e487b7160e01b600052603260045260246000fd5b9050602002013590506000858585818110611e0f57634e487b7160e01b600052603260045260246000fd5b9050602002016020810190611e2491906148b5565b90506001600160a01b038316611e4c5760405162461bcd60e51b8152600401610e439061502a565b6001600160a01b038316600090815260d26020526040902060018101548311611eaa5760405162461bcd60e51b815260206004820152601060248201526f414c52454144595f4f574e535f4b455960801b6044820152606401610e43565b805480611ec757611eba82613743565b508054611ec785826134ac565b611ed18184613570565b6040516001600160a01b0384169082907f9d2895c45a420624de863a2f437b022d879f457bf7a829044055a10c5a6fd5e390600090a36001820184905560405181906001600160a01b03871690600090600080516020615380833981519152908290a450505050508080611f44906152df565b915050611d81565b50505050505050565b611f6d6000805160206153a083398151915233611fc1565b611f895760405162461bcd60e51b8152600401610e43906150ff565b6040518181527f0496ed1e61eb69727f9659a8e859288db4758ffb1f744d1c1424634f90a257f49060200160405180910390a160db55565b60009182526097602090815260408084206001600160a01b0393909316845291905290205460ff1690565b606060d98054611ffb906152aa565b151590506120925760ca60009054906101000a90046001600160a01b03166001600160a01b031663cec410526040518163ffffffff1660e01b815260040160006040518083038186803b15801561205157600080fd5b505afa158015612065573d6000803e3d6000fd5b505050506040513d6000823e601f3d908101601f1916820160405261208d9190810190614cd6565b905090565b60d9805461209f906152aa565b80601f01602080910402602001604051908101604052809291908181526020018280546120cb906152aa565b80156121185780601f106120ed57610100808354040283529160200191612118565b820191906000526020600020905b8154815290600101906020018083116120fb57829003601f168201915b5050505050905090565b61213a6000805160206153a083398151915233611fc1565b6121565760405162461bcd60e51b8152600401610e43906150ff565b8161216081611b2c565b61217c5760405162461bcd60e51b8152600401610e4390615053565b6113c48383613b07565b60c954600160a01b900460ff166121af5760405162461bcd60e51b8152600401610e4390615154565b6001600160a01b0382163314156121f75760405162461bcd60e51b815260206004820152600c60248201526b20a8282927ab22afa9a2a62360a11b6044820152606401610e43565b33600081815260d7602090815260408083206001600160a01b03871680855290835292819020805460ff191686151590811790915590519081529192917f17307eab39ab6107e8899845ad3d59bd9653f200f220920489ca2b5937696c31910160405180910390a35050565b61227b6000805160206153a083398151915233611fc1565b6122975760405162461bcd60e51b8152600401610e43906150ff565b60c954600160a01b900460ff166122c05760405162461bcd60e51b8152600401610e4390615154565b60cc5460c9546001600160a01b03908116908316158061235057506000836001600160a01b03166318160ddd6040518163ffffffff1660e01b815260040160206040518083038186803b15801561231657600080fd5b505afa15801561232a573d6000803e3d6000fd5b505050506040513d601f19601f8201168201806040525081019061234e9190614d48565b115b61238c5760405162461bcd60e51b815260206004820152600d60248201526c24a72b20a624a22faa27a5a2a760991b6044820152606401610e43565b60cc84905560c980546001600160a01b0319166001600160a01b0385811691821790925560408051858152602081018890529284169083015260608201527f3615065ccf48367ac483ac86701248e2e5ff55bdd9be845007d34a3b68d719d49060800160405180910390a150505050565b60008060cb548361240e9190615231565b33600090815260d260205260408120600181015492935091612431904290615250565b90508083101561244f5761244a86836000015485612c45565b61245e565b61245e338784600001546110a5565b50600195945050505050565b6000610d356000805160206153a083398151915283611fc1565b61249c6000805160206153a083398151915233611fc1565b6124b85760405162461bcd60e51b8152600401610e43906150ff565b6001600160a01b03821615806124d757506001600160a01b0382163b15155b6125235760405162461bcd60e51b815260206004820152601860248201527f494e56414c49445f4f4e5f4b45595f534f4c445f484f4f4b00000000000000006044820152606401610e43565b6001600160a01b038116158061254257506001600160a01b0381163b15155b61258e5760405162461bcd60e51b815260206004820152601a60248201527f494e56414c49445f4f4e5f4b45595f43414e43454c5f484f4f4b0000000000006044820152606401610e43565b60d080546001600160a01b039384166001600160a01b03199182161790915560d18054929093169116179055565b600082815260d3602052604090205482906001600160a01b03166126105760405162461bcd60e51b815260206004820152600b60248201526a4e4f5f535543485f4b455960a81b6044820152606401610e43565b61261a8333613175565b8061262957506126293361246a565b6126755760405162461bcd60e51b815260206004820152601f60248201527f554e415554484f52495a45445f4b45595f4d414e414745525f555044415445006044820152606401610e43565b6113c48383613570565b600061268a3361246a565b8061269f575060cf546001600160a01b031633145b6126eb5760405162461bcd60e51b815260206004820181905260248201527f4f4e4c595f4c4f434b5f4d414e414745525f4f525f42454e45464943494152596044820152606401610e43565b60c95460405163095ea7b360e01b81526001600160a01b038581166004830152602482018590529091169063095ea7b390604401602060405180830381600087803b15801561273957600080fd5b505af115801561274d573d6000803e3d6000fd5b505050506040513d601f19601f8201168201806040525081019061142c9190614c07565b61277c8484846110a5565b61278884848484613bfe565b6127d45760405162461bcd60e51b815260206004820152601d60248201527f4e4f4e5f434f4d504c49414e545f4552433732315f52454345495645520000006044820152606401610e43565b50505050565b6127f26000805160206153a083398151915233611fc1565b61280e5760405162461bcd60e51b8152600401610e43906150ff565b60c954600160a01b900460ff166128375760405162461bcd60e51b8152600401610e4390615154565b6040517f25a311358326fb18c62efc24bc28d3126acee8d2a67fd8b2145b757dc8bd1bc190600090a160c9805460ff60a01b19169055565b60608080600061287e30613cbd565b9050606085156128985761289186613f18565b92506128ab565b6040518060200160405280600081525092505b60da80546128b8906152aa565b1515905061296d5760ca60009054906101000a90046001600160a01b03166001600160a01b031663a998e9fb6040518163ffffffff1660e01b815260040160006040518083038186803b15801561290e57600080fd5b505afa158015612922573d6000803e3d6000fd5b505050506040513d6000823e601f3d908101601f1916820160405261294a9190810190614cd6565b9350604051806040016040528060018152602001602f60f81b8152509050612a1f565b60da805461297a906152aa565b80601f01602080910402602001604051908101604052809291908181526020018280546129a6906152aa565b80156129f35780601f106129c8576101008083540402835291602001916129f3565b820191906000526020600020905b8154815290600101906020018083116129d657829003601f168201915b505050505093506040518060200160405280600081525090506040518060200160405280600081525091505b612a2b84838386614060565b9695505050505050565b612a4d6000805160206153a083398151915233611fc1565b612a695760405162461bcd60e51b8152600401610e43906150ff565b612a816000805160206153a08339815191528261139e565b6040516001600160a01b038216907f91d5c045d5bd98bf59a379b259ebca05b93bf79af1845fdf87e3172385d4c7f790600090a250565b80612ac38133613175565b80612ad35750612ad381336131eb565b80612afb5750600081815260d36020526040902054612afb906001600160a01b031633612b6b565b612b175760405162461bcd60e51b8152600401610e439061507a565b600082815260d360205260408120546001600160a01b031690612b3982613765565b90506127d48282613b07565b600082815260976020526040902060010154612b6181336135f2565b6113c483836136dc565b6001600160a01b03808316600090815260d2602090815260408083205480845260d5909252822054919290911680612bce575050506001600160a01b03808316600090815260d7602090815260408083209385168352929052205460ff16610d35565b6001600160a01b03908116600090815260d7602090815260408083209387168352929052205460ff169150610d359050565b612c186000805160206153a083398151915233611473565b60405133907f42885193b8178d25fca25a38e6fcc93918501e91be06d85e0c8afb3bad95238090600090a2565b60c954600160a01b900460ff16612c6e5760405162461bcd60e51b8152600401610e4390615154565b81612c798133613175565b80612c895750612c8981336131eb565b80612cb15750600081815260d36020526040902054612cb1906001600160a01b031633612b6b565b612ccd5760405162461bcd60e51b8152600401610e439061507a565b61271060db5410612d195760405162461bcd60e51b815260206004820152601660248201527512d15657d514905394d1915494d7d11254d05093115160521b6044820152606401610e43565b6001600160a01b038416612d3f5760405162461bcd60e51b8152600401610e439061502a565b600083815260d360205260409020546001600160a01b0316612d6081611b2c565b612d7c5760405162461bcd60e51b8152600401610e4390615053565b6001600160a01b03808216600090815260d260205260408082209288168252812080546001840154919290918190612db5904290615250565b90506000612dc3878a6130f3565b90506000612dd1828b6151d4565b905082811015612def57899350612dea8b8260006133ab565b612e3a565b612df988846130f3565b9150612e058284615250565b4260018901556040519094508b907f59f2fe866dd27a1c2d34115520888c3150365cbc931aab97fa88c4b9ab40b79590600090a25b84612e8157612e4886613743565b85549450612e568c866134ac565b60405185906001600160a01b038e1690600090600080516020615380833981519152908290a4612e97565b42866001015411612e9757612e97856000613570565b612ea3858560016133ab565b848c6001600160a01b0316896001600160a01b031660008051602061538083398151915260405160405180910390a4612eed888d8d60405180602001604052806000815250613bfe565b6119d55760405162461bcd60e51b815260206004820152601d60248201527f4e4f4e5f434f4d504c49414e545f4552433732315f52454345495645520000006044820152606401610e43565b612f423361246a565b80612f57575060cf546001600160a01b031633145b612fa35760405162461bcd60e51b815260206004820181905260248201527f4f4e4c595f4c4f434b5f4d414e414745525f4f525f42454e45464943494152596044820152606401610e43565b60006001600160a01b038316612fba575047613034565b6040516370a0823160e01b81523060048201526001600160a01b038416906370a082319060240160206040518083038186803b158015612ff957600080fd5b505afa15801561300d573d6000803e3d6000fd5b505050506040513d601f19601f820116820180604052508101906130319190614d48565b90505b600082158061304257508183115b15613091576000821161308a5760405162461bcd60e51b815260206004820152601060248201526f4e4f545f454e4f5547485f46554e445360801b6044820152606401610e43565b5080613094565b50815b60cf546040518281526001600160a01b039182169186169033907f342e7ff505a8a0364cd0dc2ff195c315e43bce86b204846ecd36913e117b109e9060200160405180910390a460cf546127d49085906001600160a01b031683614092565b60006130fe83611b2c565b61310a57506000610d35565b6001600160a01b038316600090815260d260205260408120908084613140574283600101546131399190615250565b9150613144565b8491505b61271060db54836131559190615231565b61315f9190615211565b9350610d3592505050565b6000610d35826140ce565b600082815260d560205260408120546001600160a01b03838116911614806131d65750600083815260d560205260409020546001600160a01b03161580156131d65750600083815260d360205260409020546001600160a01b038381169116145b156131e357506001610d35565b506000610d35565b600091825260d66020526040909120546001600160a01b0391821691161490565b60d054600090819081906001600160a01b0316156132b15760d05460405163221c1fd160e01b81526001600160a01b039091169063221c1fd19061325a9033908a908a908a90600401614f9c565b60206040518083038186803b15801561327257600080fd5b505afa158015613286573d6000803e3d6000fd5b505050506040513d601f19601f820116820180604052508101906132aa9190614d48565b92506132b7565b60cc5492505b82156133a25760ca54604051630cb175e360e01b81526001600160a01b0388811660048301526024820186905290911690630cb175e390604401604080518083038186803b15801561330857600080fd5b505afa15801561331c573d6000803e3d6000fd5b505050506040513d601f19601f820116820180604052508101906133409190614df1565b9092509050828211156133955760405162461bcd60e51b815260206004820152601c60248201527f494e56414c49445f444953434f554e545f46524f4d5f554e4c4f434b000000006044820152606401610e43565b61339f8284615250565b92505b93509350939050565b600083815260d360205260409020546001600160a01b0316806134035760405162461bcd60e51b815260206004820152601060248201526f4e4f4e5f4558495354454e545f4b455960801b6044820152606401610e43565b6001600160a01b038116600090815260d2602052604081206001810154909161342b84611b2c565b9050841561345757801561344d5761344386836151d4565b6001840155613467565b61344386426151d4565b6134618683615250565b60018401555b60408051878152861515602082015288917fe9408df99703ae33a9d01185bcad328ea8683fb1f920da9c30959c192f21b5b3910160405180910390a250505050505050565b600081815260d360205260409020546001600160a01b038381169116146114ed5760d48054600181019091557f9780e26d96b1f2a9a18ef8fc72d589dbf03ef788137b64f43897e83a91e7feec0180546001600160a01b0384166001600160a01b03199182168117909255600083815260d360205260409020805490911690911790555050565b600081815260d660205260409020546001600160a01b03161561356d57600081815260d66020526040902080546001600160a01b03191690555b50565b600082815260d560205260409020546001600160a01b038281169116146114ed57600082815260d56020526040902080546001600160a01b0319166001600160a01b0383161790556135c182613533565b60405160009083907f9d2895c45a420624de863a2f437b022d879f457bf7a829044055a10c5a6fd5e3908390a35050565b6135fc8282611fc1565b6114ed57613614816001600160a01b031660146140d9565b61361f8360206140d9565b604051602001613630929190614edc565b60408051601f198184030181529082905262461bcd60e51b8252610e4391600401615017565b6136608282611fc1565b6114ed5760008281526097602090815260408083206001600160a01b03851684529091529020805460ff191660011790556136983390565b6001600160a01b0316816001600160a01b0316837f2f8788117e7eff1d82e926ec794901d17c78024a50270940304540a733656f0d60405160405180910390a45050565b6136e68282611fc1565b156114ed5760008281526097602090815260408083206001600160a01b0385168085529252808320805460ff1916905551339285917ff6391f5c32d9c69d2a47ea670b442974b53935d1edc7fd64eb21e047a839171b9190a45050565b805461356d5760ce8054906000613759836152df565b909155505060ce549055565b60008161377181611b2c565b61378d5760405162461bcd60e51b8152600401610e4390615053565b6001600160a01b038316600090815260d26020526040812060018101549091906137b8904290615250565b905060cb5460dd54826137cb91906151d4565b106137da5760cc5493506137f8565b60cb548160cc546137eb9190615231565b6137f59190615211565b93505b60dd541580613814575060cb5460dd5461381290836151d4565b105b1561385a57600061271060dc5460cc5461382e9190615231565b6138389190615211565b9050808511156138535761384c8186615250565b9450613858565b600094505b505b505050919050565b60c980546001600160a01b0319166001600160a01b03831690811790915515806138fc57506000816001600160a01b03166318160ddd6040518163ffffffff1660e01b815260040160206040518083038186803b1580156138c257600080fd5b505afa1580156138d6573d6000803e3d6000fd5b505050506040513d601f19601f820116820180604052508101906138fa9190614d48565b115b61356d5760405162461bcd60e51b815260206004820152600d60248201526c24a72b20a624a22faa27a5a2a760991b6044820152606401610e43565b63bbf81e0083111561398c5760405162461bcd60e51b815260206004820152601860248201527f4d41585f45585049524154494f4e5f3130305f594541525300000000000000006044820152606401610e43565b60ca8054336001600160a01b03199182161790915560cf80549091166001600160a01b03959095169490941790935560cb9190915560cc5560cd55565b6139d16142ba565b6139dd60d8838361479d565b506114ed635b5e139f60e01b613a88565b6139fe63780e9d6360e01b613a88565b565b613a186000805160206153a083398151915280614335565b613a3e6000805160206153608339815191526000805160206153a0833981519152614335565b613a478161246a565b613a6357613a636000805160206153a083398151915282614380565b613a6c81611a44565b61356d5761356d60008051602061536083398151915282614380565b6001600160e01b03198082161415613ae25760405162461bcd60e51b815260206004820152601c60248201527f4552433136353a20696e76616c696420696e74657266616365206964000000006044820152606401610e43565b6001600160e01b0319166000908152606560205260409020805460ff19166001179055565b6001600160a01b038216600081815260d2602052604090819020805491519092339290917f0a7068a9989857441c039a14a42b67ed71dd1fcfe5a9b17cc87b252e47bce52890613b5a9087815260200190565b60405180910390a44260018201558115613b855760c954613b85906001600160a01b03168484614092565b60d1546001600160a01b0316156113c45760d15460405163b499b6c560e01b81523360048201526001600160a01b038581166024830152604482018590529091169063b499b6c590606401600060405180830381600087803b158015613bea57600080fd5b505af1158015611f4c573d6000803e3d6000fd5b60006001600160a01b0384163b613c1757506001613cb5565b604051630a85bd0160e11b81526000906001600160a01b0386169063150b7a0290613c4c9033908a9089908990600401614fd0565b602060405180830381600087803b158015613c6657600080fd5b505af1158015613c7a573d6000803e3d6000fd5b505050506040513d601f19601f82011682018060405250810190613c9e9190614c7b565b6001600160e01b031916630a85bd0160e11b149150505b949350505050565b604080518082018252601081526f181899199a1a9b1b9c1cb0b131b232b360811b60208201528151602a80825260608281019094526001600160a01b0385169291600091602082018180368337019050509050600360fc1b81600081518110613d3657634e487b7160e01b600052603260045260246000fd5b60200101906001600160f81b031916908160001a905350600f60fb1b81600181518110613d7357634e487b7160e01b600052603260045260246000fd5b60200101906001600160f81b031916908160001a90535060005b6014811015613f0f5782600485613da584600c6151d4565b60208110613dc357634e487b7160e01b600052603260045260246000fd5b1a60f81b6001600160f81b031916901c60f81c60ff1681518110613df757634e487b7160e01b600052603260045260246000fd5b01602001516001600160f81b03191682613e12836002615231565b613e1d9060026151d4565b81518110613e3b57634e487b7160e01b600052603260045260246000fd5b60200101906001600160f81b031916908160001a9053508284613e5f83600c6151d4565b60208110613e7d57634e487b7160e01b600052603260045260246000fd5b825191901a600f16908110613ea257634e487b7160e01b600052603260045260246000fd5b01602001516001600160f81b03191682613ebd836002615231565b613ec89060036151d4565b81518110613ee657634e487b7160e01b600052603260045260246000fd5b60200101906001600160f81b031916908160001a90535080613f07816152df565b915050613d8d565b50949350505050565b60608180613f3f5750506040805180820190915260018152600360fc1b6020820152919050565b8260005b8115613f695780613f53816152df565b9150613f629050600a83615211565b9150613f43565b6000816001600160401b03811115613f9157634e487b7160e01b600052604160045260246000fd5b6040519080825280601f01601f191660200182016040528015613fbb576020820181803683370190505b509050815b841561405657613fd1600182615250565b90506000613fe0600a87615211565b613feb90600a615231565b613ff59087615250565b6140009060306151ec565b905060008160f81b90508084848151811061402b57634e487b7160e01b600052603260045260246000fd5b60200101906001600160f81b031916908160001a90535061404d600a88615211565b96505050613fc0565b5095945050505050565b6060848484846040516020016140799493929190614e85565b6040516020818303038152906040529050949350505050565b80156113c4576001600160a01b0383166140b9576113c46001600160a01b0383168261438a565b826127d46001600160a01b03821684846144a3565b6000610d35826144f5565b606060006140e8836002615231565b6140f39060026151d4565b6001600160401b0381111561411857634e487b7160e01b600052604160045260246000fd5b6040519080825280601f01601f191660200182016040528015614142576020820181803683370190505b509050600360fc1b8160008151811061416b57634e487b7160e01b600052603260045260246000fd5b60200101906001600160f81b031916908160001a905350600f60fb1b816001815181106141a857634e487b7160e01b600052603260045260246000fd5b60200101906001600160f81b031916908160001a90535060006141cc846002615231565b6141d79060016151d4565b90505b600181111561426b576f181899199a1a9b1b9c1cb0b131b232b360811b85600f166010811061421957634e487b7160e01b600052603260045260246000fd5b1a60f81b82828151811061423d57634e487b7160e01b600052603260045260246000fd5b60200101906001600160f81b031916908160001a90535060049490941c9361426481615293565b90506141da565b50831561142c5760405162461bcd60e51b815260206004820181905260248201527f537472696e67733a20686578206c656e67746820696e73756666696369656e746044820152606401610e43565b600054610100900460ff16806142d3575060005460ff16155b6142ef5760405162461bcd60e51b8152600401610e43906150b1565b600054610100900460ff16158015614311576000805461ffff19166101011790555b61431961451a565b61432161451a565b801561356d576000805461ff001916905550565b600082815260976020526040808220600101805490849055905190918391839186917fbd79b86ffe0ab8e8776151514217cd7cacd52c909f66475c3af44e129f0b00ff9190a4505050565b6114ed8282613656565b804710156143da5760405162461bcd60e51b815260206004820152601d60248201527f416464726573733a20696e73756666696369656e742062616c616e63650000006044820152606401610e43565b6000826001600160a01b03168260405160006040518083038185875af1925050503d8060008114614427576040519150601f19603f3d011682016040523d82523d6000602084013e61442c565b606091505b50509050806113c45760405162461bcd60e51b815260206004820152603a60248201527f416464726573733a20756e61626c6520746f2073656e642076616c75652c207260448201527f6563697069656e74206d617920686176652072657665727465640000000000006064820152608401610e43565b604080516001600160a01b038416602482015260448082018490528251808303909101815260649091019091526020810180516001600160e01b031663a9059cbb60e01b1790526113c4908490614584565b60006001600160e01b03198216637965db0b60e01b1480610d355750610d3582614656565b600054610100900460ff1680614533575060005460ff16155b61454f5760405162461bcd60e51b8152600401610e43906150b1565b600054610100900460ff16158015614321576000805461ffff1916610101179055801561356d576000805461ff001916905550565b60006145d9826040518060400160405280602081526020017f5361666545524332303a206c6f772d6c6576656c2063616c6c206661696c6564815250856001600160a01b03166146929092919063ffffffff16565b8051909150156113c457808060200190518101906145f79190614c07565b6113c45760405162461bcd60e51b815260206004820152602a60248201527f5361666545524332303a204552433230206f7065726174696f6e20646964206e6044820152691bdd081cdd58d8d9595960b21b6064820152608401610e43565b60006301ffc9a760e01b6001600160e01b031983161480610d355750506001600160e01b03191660009081526065602052604090205460ff1690565b6060613cb5848460008585843b6146eb5760405162461bcd60e51b815260206004820152601d60248201527f416464726573733a2063616c6c20746f206e6f6e2d636f6e74726163740000006044820152606401610e43565b600080866001600160a01b031685876040516147079190614e69565b60006040518083038185875af1925050503d8060008114614744576040519150601f19603f3d011682016040523d82523d6000602084013e614749565b606091505b5091509150614759828286614764565b979650505050505050565b6060831561477357508161142c565b8251156147835782518084602001fd5b8160405162461bcd60e51b8152600401610e439190615017565b8280546147a9906152aa565b90600052602060002090601f0160209004810192826147cb5760008555614811565b82601f106147e45782800160ff19823516178555614811565b82800160010185558215614811579182015b828111156148115782358255916020019190600101906147f6565b50611a409291505b80821115611a405760008155600101614819565b60008083601f84011261483e578182fd5b5081356001600160401b03811115614854578182fd5b6020830191508360208260051b850101111561486f57600080fd5b9250929050565b60008083601f840112614887578182fd5b5081356001600160401b0381111561489d578182fd5b60208301915083602082850101111561486f57600080fd5b6000602082840312156148c6578081fd5b813561142c81615326565b600080604083850312156148e3578081fd5b82356148ee81615326565b946020939093013593505050565b600080600080600080600060c0888a031215614916578283fd5b873561492181615326565b965060208801359550604088013561493881615326565b9450606088013593506080880135925060a08801356001600160401b03811115614960578283fd5b61496c8a828b01614876565b989b979a50959850939692959293505050565b60008060408385031215614991578182fd5b823561499c81615326565b915060208301356149ac81615326565b809150509250929050565b600080600080606085870312156149cc578384fd5b84356149d781615326565b935060208501356149e781615326565b925060408501356001600160401b03811115614a01578283fd5b614a0d87828801614876565b95989497509550505050565b600080600060608486031215614a2d578283fd5b8335614a3881615326565b92506020840135614a4881615326565b929592945050506040919091013590565b60008060008060808587031215614a6e578182fd5b8435614a7981615326565b93506020850135614a8981615326565b92506040850135915060608501356001600160401b03811115614aaa578182fd5b8501601f81018713614aba578182fd5b8035614acd614ac8826151ad565b61517d565b818152886020838501011115614ae1578384fd5b81602084016020830137908101602001929092525092959194509250565b60008060408385031215614b11578182fd5b8235614b1c81615326565b915060208301356149ac8161533b565b600080604083850312156148e3578182fd5b600080600060608486031215614b52578081fd5b8335614b5d81615326565b95602085013595506040909401359392505050565b60008060008060008060608789031215614b8a578384fd5b86356001600160401b0380821115614ba0578586fd5b614bac8a838b0161482d565b90985096506020890135915080821115614bc4578586fd5b614bd08a838b0161482d565b90965094506040890135915080821115614be8578384fd5b50614bf589828a0161482d565b979a9699509497509295939492505050565b600060208284031215614c18578081fd5b815161142c8161533b565b600060208284031215614c34578081fd5b5035919050565b60008060408385031215614c4d578182fd5b8235915060208301356149ac81615326565b600060208284031215614c70578081fd5b813561142c81615349565b600060208284031215614c8c578081fd5b815161142c81615349565b60008060208385031215614ca9578182fd5b82356001600160401b03811115614cbe578283fd5b614cca85828601614876565b90969095509350505050565b600060208284031215614ce7578081fd5b81516001600160401b03811115614cfc578182fd5b8201601f81018413614d0c578182fd5b8051614d1a614ac8826151ad565b818152856020838501011115614d2e578384fd5b614d3f826020830160208601615267565b95945050505050565b600060208284031215614d59578081fd5b5051919050565b600080600080600060808688031215614d77578283fd5b853594506020860135614d8981615326565b93506040860135614d9981615326565b925060608601356001600160401b03811115614db3578182fd5b614dbf88828901614876565b969995985093965092949392505050565b60008060408385031215614de2578182fd5b50508035926020909101359150565b60008060408385031215614e03578182fd5b505080516020909101519092909150565b81835281816020850137506000828201602090810191909152601f909101601f19169091010190565b60008151808452614e55816020860160208601615267565b601f01601f19169290920160200192915050565b60008251614e7b818460208701615267565b9190910192915050565b60008551614e97818460208a01615267565b855190830190614eab818360208a01615267565b8551910190614ebe818360208901615267565b8451910190614ed1818360208801615267565b019695505050505050565b7f416363657373436f6e74726f6c3a206163636f756e7420000000000000000000815260008351614f14816017850160208801615267565b7001034b99036b4b9b9b4b733903937b6329607d1b6017918401918201528351614f45816028840160208801615267565b01602801949350505050565b6001600160a01b03888116825287811660208301528616604082015260c060608201819052600090614f869083018688614e14565b60808301949094525060a0015295945050505050565b6001600160a01b038581168252848116602083015283166040820152608060608201819052600090612a2b90830184614e3d565b6001600160a01b0385811682528416602082015260408101839052608060608201819052600090612a2b90830184614e3d565b602081526000613cb5602083018486614e14565b60208152600061142c6020830184614e3d565b6020808252600f908201526e494e56414c49445f4144445245535360881b604082015260600190565b6020808252600d908201526c12d15657d393d517d590531251609a1b604082015260600190565b6020808252601c908201527f4f4e4c595f4b45595f4d414e414745525f4f525f415050524f56454400000000604082015260600190565b6020808252602e908201527f496e697469616c697a61626c653a20636f6e747261637420697320616c72656160408201526d191e481a5b9a5d1a585b1a5e995960921b606082015260800190565b60208082526035908201527f4d6978696e526f6c65733a2063616c6c657220646f6573206e6f74206861766560408201527420746865204c6f636b4d616e6167657220726f6c6560581b606082015260800190565b6020808252600f908201526e1313d0d2d7d11154149150d0551151608a1b604082015260600190565b604051601f8201601f191681016001600160401b03811182821017156151a5576151a5615310565b604052919050565b60006001600160401b038211156151c6576151c6615310565b50601f01601f191660200190565b600082198211156151e7576151e76152fa565b500190565b600060ff821660ff84168060ff03821115615209576152096152fa565b019392505050565b60008261522c57634e487b7160e01b81526012600452602481fd5b500490565b600081600019048311821515161561524b5761524b6152fa565b500290565b600082821015615262576152626152fa565b500390565b60005b8381101561528257818101518382015260200161526a565b838111156127d45750506000910152565b6000816152a2576152a26152fa565b506000190190565b600181811c908216806152be57607f821691505b60208210811415610e6757634e487b7160e01b600052602260045260246000fd5b60006000198214156152f3576152f36152fa565b5060010190565b634e487b7160e01b600052601160045260246000fd5b634e487b7160e01b600052604160045260246000fd5b6001600160a01b038116811461356d57600080fd5b801515811461356d57600080fd5b6001600160e01b03198116811461356d57600080fdfeb309c40027c81d382c3b58d8de24207a34b27e1db369b1434e4a11311f154b5eddf252ad1be2c89b69c2b068fc378daa952ba7f163c4a11628f55a4df523b3efb89cdd26cddd51301940bf2715f765b626b8a5a9e2681ac62dc83cc2db2530c0a2646970667358221220601055e5e9a0d4769180947831f6e3049f9124c59113c30d1c7f377d2fd799c164736f6c63430008040033",
  "linkReferences": {},
  "deployedLinkReferences": {}
}