{
  "_format": "hh-sol-artifact-1",
  "contractName": "MISOAdminAccess",
  "sourceName": "contracts/Access/MISOAdminAccess.sol",
  "abi": [
    {
      "inputs": [],
      "stateMutability": "nonpayable",
      "type": "constructor"
    },
    {
      "anonymous": false,
      "inputs": [
        {
          "indexed": true,
          "internalType": "address",
          "name": "beneficiary",
          "type": "address"
        },
        {
          "indexed": true,
          "internalType": "address",
          "name": "caller",
          "type": "address"
        }
      ],
      "name": "AdminRoleGranted",
      "type": "event"
    },
    {
      "anonymous": false,
      "inputs": [
        {
          "indexed": true,
          "internalType": "address",
          "name": "beneficiary",
          "type": "address"
        },
        {
          "indexed": true,
          "internalType": "address",
          "name": "caller",
          "type": "address"
        }
      ],
      "name": "AdminRoleRemoved",
      "type": "event"
    },
    {
      "anonymous": false,
      "inputs": [
        {
          "indexed": true,
          "internalType": "bytes32",
          "name": "role",
          "type": "bytes32"
        },
        {
          "indexed": true,
          "internalType": "bytes32",
          "name": "previousAdminRole",
          "type": "bytes32"
        },
        {
          "indexed": true,
          "internalType": "bytes32",
          "name": "newAdminRole",
          "type": "bytes32"
        }
      ],
      "name": "RoleAdminChanged",
      "type": "event"
    },
    {
      "anonymous": false,
      "inputs": [
        {
          "indexed": true,
          "internalType": "bytes32",
          "name": "role",
          "type": "bytes32"
        },
        {
          "indexed": true,
          "internalType": "address",
          "name": "account",
          "type": "address"
        },
        {
          "indexed": true,
          "internalType": "address",
          "name": "sender",
          "type": "address"
        }
      ],
      "name": "RoleGranted",
      "type": "event"
    },
    {
      "anonymous": false,
      "inputs": [
        {
          "indexed": true,
          "internalType": "bytes32",
          "name": "role",
          "type": "bytes32"
        },
        {
          "indexed": true,
          "internalType": "address",
          "name": "account",
          "type": "address"
        },
        {
          "indexed": true,
          "internalType": "address",
          "name": "sender",
          "type": "address"
        }
      ],
      "name": "RoleRevoked",
      "type": "event"
    },
    {
      "inputs": [],
      "name": "DEFAULT_ADMIN_ROLE",
      "outputs": [
        {
          "internalType": "bytes32",
          "name": "",
          "type": "bytes32"
        }
      ],
      "stateMutability": "view",
      "type": "function"
    },
    {
      "inputs": [
        {
          "internalType": "address",
          "name": "_address",
          "type": "address"
        }
      ],
      "name": "addAdminRole",
      "outputs": [],
      "stateMutability": "nonpayable",
      "type": "function"
    },
    {
      "inputs": [
        {
          "internalType": "bytes32",
          "name": "role",
          "type": "bytes32"
        }
      ],
      "name": "getRoleAdmin",
      "outputs": [
        {
          "internalType": "bytes32",
          "name": "",
          "type": "bytes32"
        }
      ],
      "stateMutability": "view",
      "type": "function"
    },
    {
      "inputs": [
        {
          "internalType": "bytes32",
          "name": "role",
          "type": "bytes32"
        },
        {
          "internalType": "uint256",
          "name": "index",
          "type": "uint256"
        }
      ],
      "name": "getRoleMember",
      "outputs": [
        {
          "internalType": "address",
          "name": "",
          "type": "address"
        }
      ],
      "stateMutability": "view",
      "type": "function"
    },
    {
      "inputs": [
        {
          "internalType": "bytes32",
          "name": "role",
          "type": "bytes32"
        }
      ],
      "name": "getRoleMemberCount",
      "outputs": [
        {
          "internalType": "uint256",
          "name": "",
          "type": "uint256"
        }
      ],
      "stateMutability": "view",
      "type": "function"
    },
    {
      "inputs": [
        {
          "internalType": "bytes32",
          "name": "role",
          "type": "bytes32"
        },
        {
          "internalType": "address",
          "name": "account",
          "type": "address"
        }
      ],
      "name": "grantRole",
      "outputs": [],
      "stateMutability": "nonpayable",
      "type": "function"
    },
    {
      "inputs": [
        {
          "internalType": "address",
          "name": "_address",
          "type": "address"
        }
      ],
      "name": "hasAdminRole",
      "outputs": [
        {
          "internalType": "bool",
          "name": "",
          "type": "bool"
        }
      ],
      "stateMutability": "view",
      "type": "function"
    },
    {
      "inputs": [
        {
          "internalType": "bytes32",
          "name": "role",
          "type": "bytes32"
        },
        {
          "internalType": "address",
          "name": "account",
          "type": "address"
        }
      ],
      "name": "hasRole",
      "outputs": [
        {
          "internalType": "bool",
          "name": "",
          "type": "bool"
        }
      ],
      "stateMutability": "view",
      "type": "function"
    },
    {
      "inputs": [
        {
          "internalType": "address",
          "name": "_admin",
          "type": "address"
        }
      ],
      "name": "initAccessControls",
      "outputs": [],
      "stateMutability": "nonpayable",
      "type": "function"
    },
    {
      "inputs": [
        {
          "internalType": "address",
          "name": "_address",
          "type": "address"
        }
      ],
      "name": "removeAdminRole",
      "outputs": [],
      "stateMutability": "nonpayable",
      "type": "function"
    },
    {
      "inputs": [
        {
          "internalType": "bytes32",
          "name": "role",
          "type": "bytes32"
        },
        {
          "internalType": "address",
          "name": "account",
          "type": "address"
        }
      ],
      "name": "renounceRole",
      "outputs": [],
      "stateMutability": "nonpayable",
      "type": "function"
    },
    {
      "inputs": [
        {
          "internalType": "bytes32",
          "name": "role",
          "type": "bytes32"
        },
        {
          "internalType": "address",
          "name": "account",
          "type": "address"
        }
      ],
      "name": "revokeRole",
      "outputs": [],
      "stateMutability": "nonpayable",
      "type": "function"
    }
  ],
  "bytecode": "0x608060405234801561001057600080fd5b50610947806100206000396000f3fe608060405234801561001057600080fd5b50600436106100b45760003560e01c8063a217fddf11610071578063a217fddf146101e7578063c395fcb3146101ef578063ca15c87314610215578063d547741f14610232578063dccfe3101461025e578063e6594abd14610284576100b4565b8063248a9ca3146100b95780632f2ff15d146100e857806336568abe146101165780636595171c146101425780639010d07c1461016857806391d14854146101a7575b600080fd5b6100d6600480360360208110156100cf57600080fd5b50356102aa565b60408051918252519081900360200190f35b610114600480360360408110156100fe57600080fd5b50803590602001356001600160a01b03166102bf565b005b6101146004803603604081101561012c57600080fd5b50803590602001356001600160a01b031661032b565b6101146004803603602081101561015857600080fd5b50356001600160a01b031661038c565b61018b6004803603604081101561017e57600080fd5b50803590602001356103e1565b604080516001600160a01b039092168252519081900360200190f35b6101d3600480360360408110156101bd57600080fd5b50803590602001356001600160a01b0316610402565b604080519115158252519081900360200190f35b6100d661041a565b6101d36004803603602081101561020557600080fd5b50356001600160a01b031661041f565b6100d66004803603602081101561022b57600080fd5b503561042b565b6101146004803603604081101561024857600080fd5b50803590602001356001600160a01b0316610442565b6101146004803603602081101561027457600080fd5b50356001600160a01b031661049b565b6101146004803603602081101561029a57600080fd5b50356001600160a01b03166104f0565b60009081526020819052604090206002015490565b6000828152602081905260409020600201546102e2906102dd6105a5565b610402565b61031d5760405162461bcd60e51b815260040180806020018281038252602f815260200180610884602f913960400191505060405180910390fd5b61032782826105a9565b5050565b6103336105a5565b6001600160a01b0316816001600160a01b0316146103825760405162461bcd60e51b815260040180806020018281038252602f8152602001806108e3602f913960400191505060405180910390fd5b6103278282610612565b6103976000826102bf565b61039f6105a5565b6001600160a01b0316816001600160a01b03167f2570ac42fd8b322dc453ada624dc2ed0e9bdd67f16f201a25bbd30468f2aa18760405160405180910390a350565b60008281526020819052604081206103f9908361067b565b90505b92915050565b60008281526020819052604081206103f99083610687565b600081565b60006103fc8183610402565b60008181526020819052604081206103fc9061069c565b600082815260208190526040902060020154610460906102dd6105a5565b6103825760405162461bcd60e51b81526004018080602001828103825260308152602001806108b36030913960400191505060405180910390fd5b6104a6600082610442565b6104ae6105a5565b6001600160a01b0316816001600160a01b03167f21ba1239795d4e22874e3dc55f0a9d7b65bfb23069d32965d7c23be9524ccf9560405160405180910390a350565b60015460ff161561053e576040805162461bcd60e51b8152602060048201526013602482015272105b1c9958591e481a5b9a5d1a585b1a5cd959606a1b604482015290519081900360640190fd5b6001600160a01b03811661058b576040805162461bcd60e51b815260206004820152600f60248201526e125b98dbdc9c9958dd081a5b9c1d5d608a1b604482015290519081900360640190fd5b61059660008261031d565b506001805460ff191681179055565b3390565b60008281526020819052604090206105c190826106a7565b15610327576105ce6105a5565b6001600160a01b0316816001600160a01b0316837f2f8788117e7eff1d82e926ec794901d17c78024a50270940304540a733656f0d60405160405180910390a45050565b600082815260208190526040902061062a90826106bc565b15610327576106376105a5565b6001600160a01b0316816001600160a01b0316837ff6391f5c32d9c69d2a47ea670b442974b53935d1edc7fd64eb21e047a839171b60405160405180910390a45050565b60006103f983836106d1565b60006103f9836001600160a01b038416610735565b60006103fc8261074d565b60006103f9836001600160a01b038416610751565b60006103f9836001600160a01b03841661079b565b815460009082106107135760405162461bcd60e51b81526004018080602001828103825260228152602001806108626022913960400191505060405180910390fd5b82600001828154811061072257fe5b9060005260206000200154905092915050565b60009081526001919091016020526040902054151590565b5490565b600061075d8383610735565b610793575081546001818101845560008481526020808220909301849055845484825282860190935260409020919091556103fc565b5060006103fc565b6000818152600183016020526040812054801561085757835460001980830191908101906000908790839081106107ce57fe5b90600052602060002001549050808760000184815481106107eb57fe5b60009182526020808320909101929092558281526001898101909252604090209084019055865487908061081b57fe5b600190038181906000526020600020016000905590558660010160008781526020019081526020016000206000905560019450505050506103fc565b60009150506103fc56fe456e756d657261626c655365743a20696e646578206f7574206f6620626f756e6473416363657373436f6e74726f6c3a2073656e646572206d75737420626520616e2061646d696e20746f206772616e74416363657373436f6e74726f6c3a2073656e646572206d75737420626520616e2061646d696e20746f207265766f6b65416363657373436f6e74726f6c3a2063616e206f6e6c792072656e6f756e636520726f6c657320666f722073656c66a26469706673582212202c48f947a91ac63d401fc9f5708be6739dd24dc443594c4fb4898263547cb7c564736f6c634300060c0033",
  "linkReferences": {},
  "deployedLinkReferences": {}
}