{
  "_format": "hh-sol-artifact-1",
  "contractName": "MockNativeToken",
  "sourceName": "contracts/test/MockNativeToken.sol",
  "abi": [
    {
      "inputs": [
        {
          "internalType": "string",
          "name": "_name",
          "type": "string"
        },
        {
          "internalType": "string",
          "name": "_symbol",
          "type": "string"
        }
      ],
      "stateMutability": "nonpayable",
      "type": "constructor"
    },
    {
      "anonymous": false,
      "inputs": [
        {
          "indexed": true,
          "internalType": "address",
          "name": "owner",
          "type": "address"
        },
        {
          "indexed": true,
          "internalType": "address",
          "name": "spender",
          "type": "address"
        },
        {
          "indexed": false,
          "internalType": "uint256",
          "name": "value",
          "type": "uint256"
        }
      ],
      "name": "Approval",
      "type": "event"
    },
    {
      "anonymous": false,
      "inputs": [
        {
          "indexed": true,
          "internalType": "address",
          "name": "from",
          "type": "address"
        },
        {
          "indexed": true,
          "internalType": "address",
          "name": "to",
          "type": "address"
        },
        {
          "indexed": false,
          "internalType": "uint256",
          "name": "value",
          "type": "uint256"
        }
      ],
      "name": "Transfer",
      "type": "event"
    },
    {
      "stateMutability": "payable",
      "type": "fallback"
    },
    {
      "inputs": [
        {
          "internalType": "address",
          "name": "owner",
          "type": "address"
        },
        {
          "internalType": "address",
          "name": "spender",
          "type": "address"
        }
      ],
      "name": "allowance",
      "outputs": [
        {
          "internalType": "uint256",
          "name": "",
          "type": "uint256"
        }
      ],
      "stateMutability": "view",
      "type": "function"
    },
    {
      "inputs": [
        {
          "internalType": "address",
          "name": "spender",
          "type": "address"
        },
        {
          "internalType": "uint256",
          "name": "amount",
          "type": "uint256"
        }
      ],
      "name": "approve",
      "outputs": [
        {
          "internalType": "bool",
          "name": "",
          "type": "bool"
        }
      ],
      "stateMutability": "nonpayable",
      "type": "function"
    },
    {
      "inputs": [
        {
          "internalType": "address",
          "name": "account",
          "type": "address"
        }
      ],
      "name": "balanceOf",
      "outputs": [
        {
          "internalType": "uint256",
          "name": "",
          "type": "uint256"
        }
      ],
      "stateMutability": "view",
      "type": "function"
    },
    {
      "inputs": [
        {
          "internalType": "uint256",
          "name": "_amount",
          "type": "uint256"
        },
        {
          "internalType": "address",
          "name": "_from",
          "type": "address"
        }
      ],
      "name": "burn",
      "outputs": [],
      "stateMutability": "nonpayable",
      "type": "function"
    },
    {
      "inputs": [],
      "name": "decimals",
      "outputs": [
        {
          "internalType": "uint8",
          "name": "",
          "type": "uint8"
        }
      ],
      "stateMutability": "view",
      "type": "function"
    },
    {
      "inputs": [
        {
          "internalType": "address",
          "name": "spender",
          "type": "address"
        },
        {
          "internalType": "uint256",
          "name": "subtractedValue",
          "type": "uint256"
        }
      ],
      "name": "decreaseAllowance",
      "outputs": [
        {
          "internalType": "bool",
          "name": "",
          "type": "bool"
        }
      ],
      "stateMutability": "nonpayable",
      "type": "function"
    },
    {
      "inputs": [],
      "name": "deposit",
      "outputs": [],
      "stateMutability": "payable",
      "type": "function"
    },
    {
      "inputs": [
        {
          "internalType": "address",
          "name": "spender",
          "type": "address"
        },
        {
          "internalType": "uint256",
          "name": "addedValue",
          "type": "uint256"
        }
      ],
      "name": "increaseAllowance",
      "outputs": [
        {
          "internalType": "bool",
          "name": "",
          "type": "bool"
        }
      ],
      "stateMutability": "nonpayable",
      "type": "function"
    },
    {
      "inputs": [
        {
          "internalType": "uint256",
          "name": "_amount",
          "type": "uint256"
        },
        {
          "internalType": "address",
          "name": "_issuer",
          "type": "address"
        }
      ],
      "name": "mint",
      "outputs": [],
      "stateMutability": "nonpayable",
      "type": "function"
    },
    {
      "inputs": [],
      "name": "name",
      "outputs": [
        {
          "internalType": "string",
          "name": "",
          "type": "string"
        }
      ],
      "stateMutability": "view",
      "type": "function"
    },
    {
      "inputs": [],
      "name": "symbol",
      "outputs": [
        {
          "internalType": "string",
          "name": "",
          "type": "string"
        }
      ],
      "stateMutability": "view",
      "type": "function"
    },
    {
      "inputs": [],
      "name": "totalSupply",
      "outputs": [
        {
          "internalType": "uint256",
          "name": "",
          "type": "uint256"
        }
      ],
      "stateMutability": "view",
      "type": "function"
    },
    {
      "inputs": [
        {
          "internalType": "address",
          "name": "recipient",
          "type": "address"
        },
        {
          "internalType": "uint256",
          "name": "amount",
          "type": "uint256"
        }
      ],
      "name": "transfer",
      "outputs": [
        {
          "internalType": "bool",
          "name": "",
          "type": "bool"
        }
      ],
      "stateMutability": "nonpayable",
      "type": "function"
    },
    {
      "inputs": [
        {
          "internalType": "address",
          "name": "sender",
          "type": "address"
        },
        {
          "internalType": "address",
          "name": "recipient",
          "type": "address"
        },
        {
          "internalType": "uint256",
          "name": "amount",
          "type": "uint256"
        }
      ],
      "name": "transferFrom",
      "outputs": [
        {
          "internalType": "bool",
          "name": "",
          "type": "bool"
        }
      ],
      "stateMutability": "nonpayable",
      "type": "function"
    },
    {
      "inputs": [
        {
          "internalType": "uint256",
          "name": "wad",
          "type": "uint256"
        }
      ],
      "name": "withdraw",
      "outputs": [],
      "stateMutability": "nonpayable",
      "type": "function"
    }
  ],
  "bytecode": "0x60806040523480156200001157600080fd5b50604051620010a4380380620010a48339810160408190526200003491620001d0565b8181818181600390805190602001906200005092919062000081565b5080516200006690600490602084019062000081565b50506005805460ff1916601217905550620002379350505050565b828054600181600116156101000203166002900490600052602060002090601f016020900481019282620000b9576000855562000104565b82601f10620000d457805160ff191683800117855562000104565b8280016001018555821562000104579182015b8281111562000104578251825591602001919060010190620000e7565b506200011292915062000116565b5090565b5b8082111562000112576000815560010162000117565b600082601f8301126200013e578081fd5b81516001600160401b03808211156200015357fe5b6040516020601f8401601f19168201810183811183821017156200017357fe5b806040525081945083825286818588010111156200019057600080fd5b600092505b83831015620001b4578583018101518284018201529182019162000195565b83831115620001c65760008185840101525b5050505092915050565b60008060408385031215620001e3578182fd5b82516001600160401b0380821115620001fa578384fd5b62000208868387016200012d565b935060208501519150808211156200021e578283fd5b506200022d858286016200012d565b9150509250929050565b610e5d80620002476000396000f3fe6080604052600436106100e85760003560e01c806370a082311161008a578063a9059cbb11610059578063a9059cbb14610263578063d0e30db0146100e8578063dd62ed3e14610283578063fcd3533c146102a3576100e8565b806370a08231146101ee57806394bf804d1461020e57806395d89b411461022e578063a457c2d714610243576100e8565b806323b872dd116100c657806323b872dd1461016c5780632e1a7d4d1461018c578063313ce567146101ac57806339509351146101ce576100e8565b806306fdde03146100f2578063095ea7b31461011d57806318160ddd1461014a575b6100f06102c3565b005b3480156100fe57600080fd5b506101076102cf565b6040516101149190610c79565b60405180910390f35b34801561012957600080fd5b5061013d610138366004610c0b565b610365565b6040516101149190610c6e565b34801561015657600080fd5b5061015f610382565b6040516101149190610ccc565b34801561017857600080fd5b5061013d610187366004610bd0565b610388565b34801561019857600080fd5b506100f06101a7366004610c34565b61040f565b3480156101b857600080fd5b506101c161044a565b6040516101149190610cd5565b3480156101da57600080fd5b5061013d6101e9366004610c0b565b610453565b3480156101fa57600080fd5b5061015f610209366004610b84565b6104a1565b34801561021a57600080fd5b506100f0610229366004610c4c565b6104c0565b34801561023a57600080fd5b506101076104ca565b34801561024f57600080fd5b5061013d61025e366004610c0b565b61052b565b34801561026f57600080fd5b5061013d61027e366004610c0b565b610593565b34801561028f57600080fd5b5061015f61029e366004610b9e565b6105a7565b3480156102af57600080fd5b506100f06102be366004610c4c565b6105d2565b6102cd33346105dc565b565b60038054604080516020601f600260001961010060018816150201909516949094049384018190048102820181019092528281526060939092909183018282801561035b5780601f106103305761010080835404028352916020019161035b565b820191906000526020600020905b81548152906001019060200180831161033e57829003601f168201915b5050505050905090565b60006103796103726106cc565b84846106d0565b50600192915050565b60025490565b60006103958484846107bc565b610405846103a16106cc565b61040085604051806060016040528060288152602001610d71602891396001600160a01b038a166000908152600160205260408120906103df6106cc565b6001600160a01b031681526020810191909152604001600020549190610917565b6106d0565b5060019392505050565b61041933826109ae565b604051339082156108fc029083906000818181858888f19350505050158015610446573d6000803e3d6000fd5b5050565b60055460ff1690565b60006103796104606106cc565b8461040085600160006104716106cc565b6001600160a01b03908116825260208083019390935260409182016000908120918c168152925290205490610aaa565b6001600160a01b0381166000908152602081905260409020545b919050565b61044681836105dc565b60048054604080516020601f600260001961010060018816150201909516949094049384018190048102820181019092528281526060939092909183018282801561035b5780601f106103305761010080835404028352916020019161035b565b60006103796105386106cc565b8461040085604051806060016040528060258152602001610e0360259139600160006105626106cc565b6001600160a01b03908116825260208083019390935260409182016000908120918d16815292529020549190610917565b60006103796105a06106cc565b84846107bc565b6001600160a01b03918216600090815260016020908152604080832093909416825291909152205490565b61044681836109ae565b6001600160a01b038216610637576040805162461bcd60e51b815260206004820152601f60248201527f45524332303a206d696e7420746f20746865207a65726f206164647265737300604482015290519081900360640190fd5b61064360008383610b0b565b6002546106509082610aaa565b6002556001600160a01b0382166000908152602081905260409020546106769082610aaa565b6001600160a01b0383166000818152602081815260408083209490945583518581529351929391927fddf252ad1be2c89b69c2b068fc378daa952ba7f163c4a11628f55a4df523b3ef9281900390910190a35050565b3390565b6001600160a01b0383166107155760405162461bcd60e51b8152600401808060200182810382526024815260200180610ddf6024913960400191505060405180910390fd5b6001600160a01b03821661075a5760405162461bcd60e51b8152600401808060200182810382526022815260200180610d296022913960400191505060405180910390fd5b6001600160a01b03808416600081815260016020908152604080832094871680845294825291829020859055815185815291517f8c5be1e5ebec7d5bd14f71427d1e84f3dd0314c0f7b2291e5b200ac8c7c3b9259281900390910190a3505050565b6001600160a01b0383166108015760405162461bcd60e51b8152600401808060200182810382526025815260200180610dba6025913960400191505060405180910390fd5b6001600160a01b0382166108465760405162461bcd60e51b8152600401808060200182810382526023815260200180610ce46023913960400191505060405180910390fd5b610851838383610b0b565b61088e81604051806060016040528060268152602001610d4b602691396001600160a01b0386166000908152602081905260409020549190610917565b6001600160a01b0380851660009081526020819052604080822093909355908416815220546108bd9082610aaa565b6001600160a01b038084166000818152602081815260409182902094909455805185815290519193928716927fddf252ad1be2c89b69c2b068fc378daa952ba7f163c4a11628f55a4df523b3ef92918290030190a3505050565b600081848411156109a65760405162461bcd60e51b81526004018080602001828103825283818151815260200191508051906020019080838360005b8381101561096b578181015183820152602001610953565b50505050905090810190601f1680156109985780820380516001836020036101000a031916815260200191505b509250505060405180910390fd5b505050900390565b6001600160a01b0382166109f35760405162461bcd60e51b8152600401808060200182810382526021815260200180610d996021913960400191505060405180910390fd5b6109ff82600083610b0b565b610a3c81604051806060016040528060228152602001610d07602291396001600160a01b0385166000908152602081905260409020549190610917565b6001600160a01b038316600090815260208190526040902055600254610a629082610b10565b6002556040805182815290516000916001600160a01b038516917fddf252ad1be2c89b69c2b068fc378daa952ba7f163c4a11628f55a4df523b3ef9181900360200190a35050565b600082820183811015610b04576040805162461bcd60e51b815260206004820152601b60248201527f536166654d6174683a206164646974696f6e206f766572666c6f770000000000604482015290519081900360640190fd5b9392505050565b505050565b600082821115610b67576040805162461bcd60e51b815260206004820152601e60248201527f536166654d6174683a207375627472616374696f6e206f766572666c6f770000604482015290519081900360640190fd5b50900390565b80356001600160a01b03811681146104bb57600080fd5b600060208284031215610b95578081fd5b610b0482610b6d565b60008060408385031215610bb0578081fd5b610bb983610b6d565b9150610bc760208401610b6d565b90509250929050565b600080600060608486031215610be4578081fd5b610bed84610b6d565b9250610bfb60208501610b6d565b9150604084013590509250925092565b60008060408385031215610c1d578182fd5b610c2683610b6d565b946020939093013593505050565b600060208284031215610c45578081fd5b5035919050565b60008060408385031215610c5e578182fd5b82359150610bc760208401610b6d565b901515815260200190565b6000602080835283518082850152825b81811015610ca557858101830151858201604001528201610c89565b81811115610cb65783604083870101525b50601f01601f1916929092016040019392505050565b90815260200190565b60ff9190911681526020019056fe45524332303a207472616e7366657220746f20746865207a65726f206164647265737345524332303a206275726e20616d6f756e7420657863656564732062616c616e636545524332303a20617070726f766520746f20746865207a65726f206164647265737345524332303a207472616e7366657220616d6f756e7420657863656564732062616c616e636545524332303a207472616e7366657220616d6f756e74206578636565647320616c6c6f77616e636545524332303a206275726e2066726f6d20746865207a65726f206164647265737345524332303a207472616e736665722066726f6d20746865207a65726f206164647265737345524332303a20617070726f76652066726f6d20746865207a65726f206164647265737345524332303a2064656372656173656420616c6c6f77616e63652062656c6f77207a65726fa2646970667358221220123e0abb101bba39c03c13d073129d05acf7a16a0f6ae032eda436c74d1819be64736f6c63430007050033",
  "linkReferences": {},
  "deployedLinkReferences": {}
}