{
  "_format": "hh-sol-artifact-1",
  "contractName": "YearnVaultFactory",
  "sourceName": "contracts/YearnVaultFactory.sol",
  "abi": [
    {
      "inputs": [
        {
          "internalType": "contract IVaultGovernance",
          "name": "vaultGovernance_",
          "type": "address"
        }
      ],
      "stateMutability": "nonpayable",
      "type": "constructor"
    },
    {
      "inputs": [
        {
          "internalType": "address[]",
          "name": "vaultTokens",
          "type": "address[]"
        },
        {
          "internalType": "bytes",
          "name": "",
          "type": "bytes"
        }
      ],
      "name": "deployVault",
      "outputs": [
        {
          "internalType": "contract IVault",
          "name": "",
          "type": "address"
        }
      ],
      "stateMutability": "nonpayable",
      "type": "function"
    },
    {
      "inputs": [],
      "name": "vaultGovernance",
      "outputs": [
        {
          "internalType": "contract IVaultGovernance",
          "name": "",
          "type": "address"
        }
      ],
      "stateMutability": "view",
      "type": "function"
    }
  ],
  "bytecode": "0x608060405234801561001057600080fd5b5060405161373b38038061373b83398101604081905261002f91610054565b600080546001600160a01b0319166001600160a01b0392909216919091179055610084565b60006020828403121561006657600080fd5b81516001600160a01b038116811461007d57600080fd5b9392505050565b6136a8806100936000396000f3fe60806040523480156200001157600080fd5b50600436106200003a5760003560e01c80636e1e2ffd146200003f578063fe255a5e1462000072575b600080fd5b6200005662000050366004620001fb565b62000086565b6040516001600160a01b03909116815260200160405180910390f35b60005462000056906001600160a01b031681565b60008054604080518082019091526002815261564760f01b6020820152906001600160a01b03163314620000d85760405162461bcd60e51b8152600401620000cf9190620002eb565b60405180910390fd5b50600080546040516001600160a01b03909116908590620000f9906200012c565b6200010692919062000343565b604051809103906000f08015801562000123573d6000803e3d6000fd5b50949350505050565b6132d180620003a283390190565b634e487b7160e01b600052604160045260246000fd5b604051601f8201601f1916810167ffffffffffffffff811182821017156200017c576200017c6200013a565b604052919050565b600082601f8301126200019657600080fd5b813567ffffffffffffffff811115620001b357620001b36200013a565b620001c8601f8201601f191660200162000150565b818152846020838601011115620001de57600080fd5b816020850160208301376000918101602001919091529392505050565b600080604083850312156200020f57600080fd5b823567ffffffffffffffff808211156200022857600080fd5b818501915085601f8301126200023d57600080fd5b81356020828211156200025457620002546200013a565b8160051b6200026582820162000150565b928352848101820192828101908a8511156200028057600080fd5b958301955b84871015620002ba57863592506001600160a01b0383168314620002a95760008081fd5b828252958301959083019062000285565b9750505086013592505080821115620002d257600080fd5b50620002e18582860162000184565b9150509250929050565b600060208083528351808285015260005b818110156200031a57858101830151858201604001528201620002fc565b818111156200032d576000604083870101525b50601f01601f1916929092016040019392505050565b6001600160a01b038381168252604060208084018290528451918401829052600092858201929091906060860190855b818110156200039357855185168352948301949183019160010162000373565b50909897505050505050505056fe60806040523480156200001157600080fd5b50604051620032d1380380620032d183398101604081905262000034916200048b565b8181600160008190555062000054816200031460201b620013b81760201c565b6040518060400160405280600381526020016253415560e81b815250906200009a5760405162461bcd60e51b815260040162000091919062000576565b60405180910390fd5b50600180546001600160a01b0319166001600160a01b0384161790558051620000cb906002906020840190620003c9565b5060005b81518110156200013b57600160036000848481518110620000f457620000f4620005ce565b6020908102919091018101516001600160a01b03168252810191909152604001600020805460ff1916911515919091179055806200013281620005fa565b915050620000cf565b50505080516001600160401b038111156200015a576200015a62000463565b60405190808252806020026020018201604052801562000184578160200160208202803683370190505b5080516200019b91600591602090910190620003c9565b5060005b6002548110156200030b57826001600160a01b03166356c9ff9a60028381548110620001cf57620001cf620005ce565b60009182526020909120015460405160e083901b6001600160e01b03191681526001600160a01b03909116600482015260240160206040518083038186803b1580156200021b57600080fd5b505afa15801562000230573d6000803e3d6000fd5b505050506040513d601f19601f8201168201806040525081019062000256919062000618565b600582815481106200026c576200026c620005ce565b6000918252602082200180546001600160a01b0319166001600160a01b0393909316929092179091556005805483908110620002ac57620002ac620005ce565b6000918252602090912001546001600160a01b03161415620002f65760405162461bcd60e51b81526020600482015260026024820152612cab60f11b604482015260640162000091565b806200030281620005fa565b9150506200019f565b50505062000674565b60006002825110156200032957506001919050565b60005b600183516200033c91906200063f565b811015620003c057826200035282600162000659565b81518110620003655762000365620005ce565b60200260200101516001600160a01b03168382815181106200038b576200038b620005ce565b60200260200101516001600160a01b031610620003ab5750600092915050565b80620003b781620005fa565b9150506200032c565b50600192915050565b82805482825590600052602060002090810192821562000421579160200282015b828111156200042157825182546001600160a01b0319166001600160a01b03909116178255602090920191600190910190620003ea565b506200042f92915062000433565b5090565b5b808211156200042f576000815560010162000434565b6001600160a01b03811681146200046057600080fd5b50565b634e487b7160e01b600052604160045260246000fd5b805162000486816200044a565b919050565b600080604083850312156200049f57600080fd5b8251620004ac816200044a565b602084810151919350906001600160401b0380821115620004cc57600080fd5b818601915086601f830112620004e157600080fd5b815181811115620004f657620004f662000463565b8060051b604051601f19603f830116810181811085821117156200051e576200051e62000463565b6040529182528482019250838101850191898311156200053d57600080fd5b938501935b828510156200056657620005568562000479565b8452938501939285019262000542565b8096505050505050509250929050565b600060208083528351808285015260005b81811015620005a55785810183015185820160400152820162000587565b81811115620005b8576000604083870101525b50601f01601f1916929092016040019392505050565b634e487b7160e01b600052603260045260246000fd5b634e487b7160e01b600052601160045260246000fd5b6000600019821415620006115762000611620005e4565b5060010190565b6000602082840312156200062b57600080fd5b815162000638816200044a565b9392505050565b600082821015620006545762000654620005e4565b500390565b600082198211156200066f576200066f620005e4565b500190565b612c4d80620006846000396000f3fe608060405234801561001057600080fd5b50600436106100b45760003560e01c80636972223311610071578063697222331461016a578063a0d15b441461017f578063e5328e0614610187578063e8216b891461018f578063fe255a5e146101a2578063fe4b84df146101bd57600080fd5b806318b4d37f146100b95780632062d754146100ce57806327a35e5a146100f7578063338c4ccb1461010a57806347ccca0214610146578063566ca6b414610157575b600080fd5b6100cc6100c736600461255c565b6101d0565b005b6100e16100dc36600461269f565b610418565b6040516100ee9190612775565b60405180910390f35b6100e161010536600461269f565b610685565b610136610118366004612788565b6001600160a01b031660009081526003602052604090205460ff1690565b60405190151581526020016100ee565b6004546040519081526020016100ee565b6100e16101653660046127a5565b61080e565b610172610b23565b6040516100ee9190612866565b610172610b85565b6100e1610be5565b6100cc61019d366004612879565b610e6e565b6001546040516001600160a01b0390911681526020016100ee565b6100cc6101cb3660046128bf565b61120f565b6101d861145d565b600060045411604051806040016040528060048152602001631253925560e21b815250906102225760405162461bcd60e51b81526004016102199190612904565b60405180910390fd5b5061022c336114b7565b60405180604001604052806002815260200161494f60f01b815250906102655760405162461bcd60e51b81526004016102199190612904565b5060015460408051637ac46fbb60e01b815281516000936001600160a01b031692637ac46fbb9260048082019391829003018186803b1580156102a757600080fd5b505afa1580156102bb573d6000803e3d6000fd5b505050506040513d601f19601f820116820180604052508101906102df9190612937565b5160405163884289e360e01b81526001600160a01b0385811660048301529192509082169063884289e39060240160206040518083038186803b15801561032557600080fd5b505afa158015610339573d6000803e3d6000fd5b505050506040513d601f19601f8201168201806040525081019061035d9190612996565b60405180604001604052806002815260200161414360f01b815250906103965760405162461bcd60e51b81526004016102199190612904565b50600080846001600160a01b0316846040516103b291906129b8565b6000604051808303816000865af19150503d80600081146103ef576040519150601f19603f3d011682016040523d82523d6000602084013e6103f4565b606091505b5091509150816104075780518082602001fd5b5050506104146001600055565b5050565b606061042261145d565b61042b336114b7565b61045c5760405162461bcd60e51b8152602060048201526002602482015261494f60f01b6044820152606401610219565b60015460408051637ac46fbb60e01b815281516000936001600160a01b031692637ac46fbb9260048082019391829003018186803b15801561049d57600080fd5b505afa1580156104b1573d6000803e3d6000fd5b505050506040513d601f19601f820116820180604052508101906104d59190612937565b60200151600480546040516331a9108f60e11b8152918201529091506000906001600160a01b03831690636352211e9060240160206040518083038186803b15801561052057600080fd5b505afa158015610534573d6000803e3d6000fd5b505050506040513d601f19601f8201168201806040525081019061055891906129d4565b90506001600160a01b038116331480610575575061057587611669565b60405180604001604052806005815260200164494e54524160d81b815250906105b15760405162461bcd60e51b81526004016102199190612904565b5060006105be8787611937565b905060006105cd898388611a20565b905061063488600280548060200260200160405190810160405280929190818152602001828054801561062957602002820191906000526020600020905b81546001600160a01b0316815260019091019060200180831161060b575b505050505083611d08565b94507f54f9e6ef58e36de62f59f9ee6c4b878af84989c53a3642eba415ac3ac4e11cda89866040516106679291906129f1565b60405180910390a15050505061067d6001600055565b949350505050565b606060005b84518110156107195760008482815181106106a7576106a7612a15565b602002602001015111156107075761070786308684815181106106cc576106cc612a15565b60200260200101518885815181106106e6576106e6612a15565b60200260200101516001600160a01b0316611f2a909392919063ffffffff16565b8061071181612a41565b91505061068a565b5061072584848461080e565b905060005b845181101561080557600084828151811061074757610747612a15565b602002602001015183838151811061076157610761612a15565b6020026020010151106107755760006107b3565b82828151811061078757610787612a15565b60200260200101518583815181106107a1576107a1612a15565b60200260200101516107b39190612a5c565b905080156107f2576107f287828885815181106107d2576107d2612a15565b60200260200101516001600160a01b0316611f9b9092919063ffffffff16565b50806107fd81612a41565b91505061072a565b50949350505050565b606061081861145d565b6004805460408051808201909152918252631253925560e21b602083015290816108555760405162461bcd60e51b81526004016102199190612904565b5061085f336114b7565b60405180604001604052806002815260200161494f60f01b815250906108985760405162461bcd60e51b81526004016102199190612904565b5060015460408051637ac46fbb60e01b815281516000936001600160a01b031692637ac46fbb9260048082019391829003018186803b1580156108da57600080fd5b505afa1580156108ee573d6000803e3d6000fd5b505050506040513d601f19601f820116820180604052508101906109129190612937565b602001516040516331a9108f60e11b8152600481018490529091506000906001600160a01b03831690636352211e9060240160206040518083038186803b15801561095c57600080fd5b505afa158015610970573d6000803e3d6000fd5b505050506040513d601f19601f8201168201806040525081019061099491906129d4565b60405163fcdabd2760e01b81526001600160a01b03808316600483015291925060009184169063fcdabd279060240160206040518083038186803b1580156109db57600080fd5b505afa1580156109ef573d6000803e3d6000fd5b505050506040513d601f19601f82011682018060405250810190610a139190612a73565b9050600081116040518060400160405280600381526020016227abab60e91b81525090610a535760405162461bcd60e51b81526004016102199190612904565b506000610a608989611937565b90506000610a6e8289611fd0565b9050610ad38a6002805480602002602001604051908101604052809291908181526020018280548015610629576020028201919060005260206000209081546001600160a01b0316815260019091019060200180831161060b57505050505083611d08565b96507f08e404e978692dd1b8275016b7a7b0b3ae4afd06b0cec7228060bb2da18c84fd81604051610b049190612775565b60405180910390a1505050505050610b1c6001600055565b9392505050565b60606002805480602002602001604051908101604052809291908181526020018280548015610b7b57602002820191906000526020600020905b81546001600160a01b03168152600190910190602001808311610b5d575b5050505050905090565b60606005805480602002602001604051908101604052809291908181526020018280548015610b7b576020028201919060005260206000209081546001600160a01b03168152600190910190602001808311610b5d575050505050905090565b606060006002805480602002602001604051908101604052809291908181526020018280548015610c3f57602002820191906000526020600020905b81546001600160a01b03168152600190910190602001808311610c21575b50505050509050805167ffffffffffffffff811115610c6057610c606124a5565b604051908082528060200260200182016040528015610c89578160200160208202803683370190505b50915060005b600554811015610e6957600060058281548110610cae57610cae612a15565b600091825260209182902001546040805163313ce56760e01b815290516001600160a01b039092169350839263313ce56792600480840193829003018186803b158015610cfa57600080fd5b505afa158015610d0e573d6000803e3d6000fd5b505050506040513d601f19601f82011682018060405250810190610d329190612a73565b610d3d90600a612b72565b816001600160a01b03166399530b066040518163ffffffff1660e01b815260040160206040518083038186803b158015610d7657600080fd5b505afa158015610d8a573d6000803e3d6000fd5b505050506040513d601f19601f82011682018060405250810190610dae9190612a73565b6040516370a0823160e01b81523060048201526001600160a01b038416906370a082319060240160206040518083038186803b158015610ded57600080fd5b505afa158015610e01573d6000803e3d6000fd5b505050506040513d601f19601f82011682018060405250810190610e259190612a73565b610e2f9190612b7e565b610e399190612b9d565b848381518110610e4b57610e4b612a15565b60209081029190910101525080610e6181612a41565b915050610c8f565b505090565b610e7661145d565b600060045411604051806040016040528060048152602001631253925560e21b81525090610eb75760405162461bcd60e51b81526004016102199190612904565b5060015460408051637ac46fbb60e01b815281516000936001600160a01b031692637ac46fbb9260048082019391829003018186803b158015610ef957600080fd5b505afa158015610f0d573d6000803e3d6000fd5b505050506040513d601f19601f82011682018060405250810190610f319190612937565b51604051630935e01b60e21b81523360048201529091506000906001600160a01b038316906324d7806c9060240160206040518083038186803b158015610f7757600080fd5b505afa158015610f8b573d6000803e3d6000fd5b505050506040513d601f19601f82011682018060405250810190610faf9190612996565b90508080610fc15750610fc1336114b7565b6040518060400160405280600381526020016241444d60e81b81525090610ffb5760405162461bcd60e51b81526004016102199190612904565b50806110485761100a84611669565b60405180604001604052806005815260200164494e54524160d81b815250906110465760405162461bcd60e51b81526004016102199190612904565b505b6000835167ffffffffffffffff811115611064576110646124a5565b60405190808252806020026020018201604052801561108d578160200160208202803683370190505b50905060005b84518110156111c65760008582815181106110b0576110b0612a15565b60209081029190910101516040516370a0823160e01b81523060048201529091506001600160a01b038216906370a082319060240160206040518083038186803b1580156110fd57600080fd5b505afa158015611111573d6000803e3d6000fd5b505050506040513d601f19601f820116820180604052508101906111359190612a73565b83838151811061114757611147612a15565b60200260200101818152505082828151811061116557611165612a15565b60200260200101516000141561117b57506111b4565b6111b28784848151811061119157611191612a15565b6020026020010151836001600160a01b0316611f9b9092919063ffffffff16565b505b806111be81612a41565b915050611093565b507f9efcb26e0cf572bd9171640e114f387cef91cd3e38532ed6b3f80c7f2e758f878585836040516111fa93929190612bbf565b60405180910390a15050506104146001600055565b600154604080518082019091526002815261564760f01b6020820152906001600160a01b031633146112545760405162461bcd60e51b81526004016102199190612904565b5060408051808201909152600481526304e4654360e41b60208201528161128e5760405162461bcd60e51b81526004016102199190612904565b506004805460408051808201909152918252631253925560e21b6020830152156112cb5760405162461bcd60e51b81526004016102199190612904565b50600481815560015460408051637ac46fbb60e01b815281516000946001600160a01b0390941693637ac46fbb938382019390929190829003018186803b15801561131557600080fd5b505afa158015611329573d6000803e3d6000fd5b505050506040513d601f19601f8201168201806040525081019061134d9190612937565b6020015160405163a22cb46560e01b81526001600160a01b038216600482018190526001602483015291925063a22cb46590604401600060405180830381600087803b15801561139c57600080fd5b505af11580156113b0573d6000803e3d6000fd5b505050505050565b60006002825110156113cc57506001919050565b60005b600183516113dd9190612a5c565b81101561145457826113f0826001612bff565b8151811061140057611400612a15565b60200260200101516001600160a01b031683828151811061142357611423612a15565b60200260200101516001600160a01b0316106114425750600092915050565b8061144c81612a41565b9150506113cf565b50600192915050565b600260005414156114b05760405162461bcd60e51b815260206004820152601f60248201527f5265656e7472616e637947756172643a207265656e7472616e742063616c6c006044820152606401610219565b6002600055565b60015460408051637ac46fbb60e01b8152815160009384936001600160a01b0390911692637ac46fbb9260048083019392829003018186803b1580156114fc57600080fd5b505afa158015611510573d6000803e3d6000fd5b505050506040513d601f19601f820116820180604052508101906115349190612937565b602001516004549091508061154d575060009392505050565b60405163020604bf60e21b8152600481018290526001600160a01b03808616919084169063081812fc9060240160206040518083038186803b15801561159257600080fd5b505afa1580156115a6573d6000803e3d6000fd5b505050506040513d601f19601f820116820180604052508101906115ca91906129d4565b6001600160a01b0316148061067d57506040516331a9108f60e11b8152600481018290526001600160a01b038086169190841690636352211e9060240160206040518083038186803b15801561161f57600080fd5b505afa158015611633573d6000803e3d6000fd5b505050506040513d601f19601f8201168201806040525081019061165791906129d4565b6001600160a01b031614949350505050565b6000813b63ffffffff1661167f57506000919050565b60015460408051637ac46fbb60e01b815281516000936001600160a01b031692637ac46fbb9260048082019391829003018186803b1580156116c057600080fd5b505afa1580156116d4573d6000803e3d6000fd5b505050506040513d601f19601f820116820180604052508101906116f89190612937565b602001519050600454600014156117125750600092915050565b600480546040516331a9108f60e11b8152918201526000906001600160a01b03831690636352211e9060240160206040518083038186803b15801561175657600080fd5b505afa15801561176a573d6000803e3d6000fd5b505050506040513d601f19601f8201168201806040525081019061178e91906129d4565b60405163fcdabd2760e01b81526001600160a01b03808316600483015291925060009184169063fcdabd279060240160206040518083038186803b1580156117d557600080fd5b505afa1580156117e9573d6000803e3d6000fd5b505050506040513d601f19601f8201168201806040525081019061180d9190612a73565b90508061181f57506000949350505050565b604051638333903b60e01b815230600482015282906001600160a01b03821690638333903b9060240160206040518083038186803b15801561186057600080fd5b505afa158015611874573d6000803e3d6000fd5b505050506040513d601f19601f820116820180604052508101906118989190612996565b158061191a5750604051638333903b60e01b81526001600160a01b038781166004830152821690638333903b9060240160206040518083038186803b1580156118e057600080fd5b505afa1580156118f4573d6000803e3d6000fd5b505050506040513d601f19601f820116820180604052508101906119189190612996565b155b1561192b5750600095945050505050565b50600195945050505050565b6060611942836113b8565b6040518060400160405280600381526020016253415560e81b8152509061197c5760405162461bcd60e51b81526004016102199190612904565b508151835114604051806040016040528060018152602001601360fa1b815250906119ba5760405162461bcd60e51b81526004016102199190612904565b50610b1c6002805480602002602001604051908101604052809291908181526020018280548015611a1457602002820191906000526020600020905b81546001600160a01b031681526001909101906020018083116119f6575b50505050508484611d08565b6060600082806020019051810190611a389190612a73565b905060005b600554811015611cfe57848181518110611a5957611a59612a15565b602002602001015160001415611a6e57611cec565b600060058281548110611a8357611a83612a15565b600091825260208083209091015460408051634ca9858360e11b815290516001600160a01b03909216945084926399530b0692600480840193829003018186803b158015611ad057600080fd5b505afa158015611ae4573d6000803e3d6000fd5b505050506040513d601f19601f82011682018060405250810190611b089190612a73565b826001600160a01b031663313ce5676040518163ffffffff1660e01b815260040160206040518083038186803b158015611b4157600080fd5b505afa158015611b55573d6000803e3d6000fd5b505050506040513d601f19601f82011682018060405250810190611b799190612a73565b611b8490600a612b72565b888581518110611b9657611b96612a15565b6020026020010151611ba89190612b7e565b611bb29190612b9d565b6040516370a0823160e01b81523060048201529091506000906001600160a01b038416906370a082319060240160206040518083038186803b158015611bf757600080fd5b505afa158015611c0b573d6000803e3d6000fd5b505050506040513d601f19601f82011682018060405250810190611c2f9190612a73565b905080821115611c3d578091505b81611c4a57505050611cec565b604051631cc6d2f960e31b8152600481018390526001600160a01b038a811660248301526044820187905284169063e63697c890606401602060405180830381600087803b158015611c9b57600080fd5b505af1158015611caf573d6000803e3d6000fd5b505050506040513d601f19601f82011682018060405250810190611cd39190612a73565b50878481518110611ce657611ce6612a15565b50505050505b80611cf681612a41565b915050611a3d565b5092949350505050565b60606000845167ffffffffffffffff811115611d2657611d266124a5565b604051908082528060200260200182016040528015611d4f578160200160208202803683370190505b5090506000805b865182108015611d665750855181105b15611ee557858181518110611d7d57611d7d612a15565b60200260200101516001600160a01b0316878381518110611da057611da0612a15565b60200260200101516001600160a01b03161015611de8576000838381518110611dcb57611dcb612a15565b602090810291909101015281611de081612a41565b925050611d56565b858181518110611dfa57611dfa612a15565b60200260200101516001600160a01b0316878381518110611e1d57611e1d612a15565b60200260200101516001600160a01b03161115611e9657848181518110611e4657611e46612a15565b602002602001015160001415611e685780611e6081612a41565b915050611d56565b60405162461bcd60e51b815260206004820152600360248201526254505360e81b6044820152606401610219565b848181518110611ea857611ea8612a15565b6020026020010151838381518110611ec257611ec2612a15565b602090810291909101015281611ed781612a41565b9250508080611e6090612a41565b8651821015611f1f576000838381518110611f0257611f02612a15565b602090810291909101015281611f1781612a41565b925050611ee5565b509095945050505050565b6040516001600160a01b0380851660248301528316604482015260648101829052611f959085906323b872dd60e01b906084015b60408051601f198184030181529190526020810180516001600160e01b03166001600160e01b031990931692909217909152612183565b50505050565b6040516001600160a01b038316602482015260448101829052611fcb90849063a9059cbb60e01b90606401611f5e565b505050565b60606000600280548060200260200160405190810160405280929190818152602001828054801561202a57602002820191906000526020600020905b81546001600160a01b0316815260019091019060200180831161200c575b5050505050905060005b60055481101561217a5784818151811061205057612050612a15565b60200260200101516000141561206557612168565b600082828151811061207957612079612a15565b6020026020010151905060006005838154811061209857612098612a15565b6000918252602090912001546001600160a01b031690506120b98282612258565b806001600160a01b0316636e553f658885815181106120da576120da612a15565b6020026020010151306040518363ffffffff1660e01b81526004016121129291909182526001600160a01b0316602082015260400190565b602060405180830381600087803b15801561212c57600080fd5b505af1158015612140573d6000803e3d6000fd5b505050506040513d601f19601f820116820180604052508101906121649190612a73565b5050505b8061217281612a41565b915050612034565b50929392505050565b60006121d8826040518060400160405280602081526020017f5361666545524332303a206c6f772d6c6576656c2063616c6c206661696c6564815250856001600160a01b031661236d9092919063ffffffff16565b90508051600014806121f95750808060200190518101906121f99190612996565b611fcb5760405162461bcd60e51b815260206004820152602a60248201527f5361666545524332303a204552433230206f7065726174696f6e20646964206e6044820152691bdd081cdd58d8d9595960b21b6064820152608401610219565b6122656002600019612b9d565b604051636eb1769f60e11b81523060048201526001600160a01b03838116602483015284169063dd62ed3e9060440160206040518083038186803b1580156122ac57600080fd5b505afa1580156122c0573d6000803e3d6000fd5b505050506040513d601f19601f820116820180604052508101906122e49190612a73565b10156104145760405163095ea7b360e01b81526001600160a01b038281166004830152600019602483015283169063095ea7b390604401602060405180830381600087803b15801561233557600080fd5b505af1158015612349573d6000803e3d6000fd5b505050506040513d601f19601f82011682018060405250810190611fcb9190612996565b606061067d848460008585600080866001600160a01b0316858760405161239491906129b8565b60006040518083038185875af1925050503d80600081146123d1576040519150601f19603f3d011682016040523d82523d6000602084013e6123d6565b606091505b50915091506123e7878383876123f2565b979650505050505050565b6060831561245e578251612457576001600160a01b0385163b6124575760405162461bcd60e51b815260206004820152601d60248201527f416464726573733a2063616c6c20746f206e6f6e2d636f6e74726163740000006044820152606401610219565b508161067d565b61067d83838151156124735781518083602001fd5b8060405162461bcd60e51b81526004016102199190612904565b6001600160a01b03811681146124a257600080fd5b50565b634e487b7160e01b600052604160045260246000fd5b604051601f8201601f1916810167ffffffffffffffff811182821017156124e4576124e46124a5565b604052919050565b600082601f8301126124fd57600080fd5b813567ffffffffffffffff811115612517576125176124a5565b61252a601f8201601f19166020016124bb565b81815284602083860101111561253f57600080fd5b816020850160208301376000918101602001919091529392505050565b6000806040838503121561256f57600080fd5b823561257a8161248d565b9150602083013567ffffffffffffffff81111561259657600080fd5b6125a2858286016124ec565b9150509250929050565b600067ffffffffffffffff8211156125c6576125c66124a5565b5060051b60200190565b600082601f8301126125e157600080fd5b813560206125f66125f1836125ac565b6124bb565b82815260059290921b8401810191818101908684111561261557600080fd5b8286015b8481101561263957803561262c8161248d565b8352918301918301612619565b509695505050505050565b600082601f83011261265557600080fd5b813560206126656125f1836125ac565b82815260059290921b8401810191818101908684111561268457600080fd5b8286015b848110156126395780358352918301918301612688565b600080600080608085870312156126b557600080fd5b84356126c08161248d565b9350602085013567ffffffffffffffff808211156126dd57600080fd5b6126e9888389016125d0565b945060408701359150808211156126ff57600080fd5b61270b88838901612644565b9350606087013591508082111561272157600080fd5b5061272e878288016124ec565b91505092959194509250565b600081518084526020808501945080840160005b8381101561276a5781518752958201959082019060010161274e565b509495945050505050565b602081526000610b1c602083018461273a565b60006020828403121561279a57600080fd5b8135610b1c8161248d565b6000806000606084860312156127ba57600080fd5b833567ffffffffffffffff808211156127d257600080fd5b6127de878388016125d0565b945060208601359150808211156127f457600080fd5b61280087838801612644565b9350604086013591508082111561281657600080fd5b50612823868287016124ec565b9150509250925092565b600081518084526020808501945080840160005b8381101561276a5781516001600160a01b031687529582019590820190600101612841565b602081526000610b1c602083018461282d565b6000806040838503121561288c57600080fd5b82356128978161248d565b9150602083013567ffffffffffffffff8111156128b357600080fd5b6125a2858286016125d0565b6000602082840312156128d157600080fd5b5035919050565b60005b838110156128f35781810151838201526020016128db565b83811115611f955750506000910152565b60208152600082518060208401526129238160408501602087016128d8565b601f01601f19169190910160400192915050565b60006040828403121561294957600080fd5b6040516040810181811067ffffffffffffffff8211171561296c5761296c6124a5565b604052825161297a8161248d565b8152602083015161298a8161248d565b60208201529392505050565b6000602082840312156129a857600080fd5b81518015158114610b1c57600080fd5b600082516129ca8184602087016128d8565b9190910192915050565b6000602082840312156129e657600080fd5b8151610b1c8161248d565b6001600160a01b038316815260406020820181905260009061067d9083018461273a565b634e487b7160e01b600052603260045260246000fd5b634e487b7160e01b600052601160045260246000fd5b6000600019821415612a5557612a55612a2b565b5060010190565b600082821015612a6e57612a6e612a2b565b500390565b600060208284031215612a8557600080fd5b5051919050565b600181815b80851115612ac7578160001904821115612aad57612aad612a2b565b80851615612aba57918102915b93841c9390800290612a91565b509250929050565b600082612ade57506001612b6c565b81612aeb57506000612b6c565b8160018114612b015760028114612b0b57612b27565b6001915050612b6c565b60ff841115612b1c57612b1c612a2b565b50506001821b612b6c565b5060208310610133831016604e8410600b8410161715612b4a575081810a612b6c565b612b548383612a8c565b8060001904821115612b6857612b68612a2b565b0290505b92915050565b6000610b1c8383612acf565b6000816000190483118215151615612b9857612b98612a2b565b500290565b600082612bba57634e487b7160e01b600052601260045260246000fd5b500490565b6001600160a01b0384168152606060208201819052600090612be39083018561282d565b8281036040840152612bf5818561273a565b9695505050505050565b60008219821115612c1257612c12612a2b565b50019056fea2646970667358221220453eaa2096d94286ac6c4991b1c76de8f4469bde3f17f1859c7b4d0726df6db564736f6c63430008090033a2646970667358221220af36dcb04f5cfb6f494c1249c5fca15bf06c9c468a4e61301116b5f13d4bf5ca64736f6c63430008090033",
  "linkReferences": {},
  "deployedLinkReferences": {}
}