{
  "_format": "hh-sol-artifact-1",
  "contractName": "MixinGrantKeys",
  "sourceName": "contracts/mixins/MixinGrantKeys.sol",
  "abi": [
    {
      "anonymous": false,
      "inputs": [
        {
          "indexed": true,
          "internalType": "address",
          "name": "owner",
          "type": "address"
        },
        {
          "indexed": true,
          "internalType": "address",
          "name": "approved",
          "type": "address"
        },
        {
          "indexed": true,
          "internalType": "uint256",
          "name": "tokenId",
          "type": "uint256"
        }
      ],
      "name": "Approval",
      "type": "event"
    },
    {
      "anonymous": false,
      "inputs": [
        {
          "indexed": true,
          "internalType": "address",
          "name": "owner",
          "type": "address"
        },
        {
          "indexed": true,
          "internalType": "address",
          "name": "operator",
          "type": "address"
        },
        {
          "indexed": false,
          "internalType": "bool",
          "name": "approved",
          "type": "bool"
        }
      ],
      "name": "ApprovalForAll",
      "type": "event"
    },
    {
      "anonymous": false,
      "inputs": [],
      "name": "Disable",
      "type": "event"
    },
    {
      "anonymous": false,
      "inputs": [
        {
          "indexed": true,
          "internalType": "uint256",
          "name": "_tokenId",
          "type": "uint256"
        },
        {
          "indexed": false,
          "internalType": "uint256",
          "name": "_amount",
          "type": "uint256"
        },
        {
          "indexed": false,
          "internalType": "bool",
          "name": "_timeAdded",
          "type": "bool"
        }
      ],
      "name": "ExpirationChanged",
      "type": "event"
    },
    {
      "anonymous": false,
      "inputs": [
        {
          "indexed": true,
          "internalType": "uint256",
          "name": "tokenId",
          "type": "uint256"
        }
      ],
      "name": "ExpireKey",
      "type": "event"
    },
    {
      "anonymous": false,
      "inputs": [
        {
          "indexed": true,
          "internalType": "address",
          "name": "account",
          "type": "address"
        }
      ],
      "name": "KeyGranterAdded",
      "type": "event"
    },
    {
      "anonymous": false,
      "inputs": [
        {
          "indexed": true,
          "internalType": "address",
          "name": "account",
          "type": "address"
        }
      ],
      "name": "KeyGranterRemoved",
      "type": "event"
    },
    {
      "anonymous": false,
      "inputs": [
        {
          "indexed": true,
          "internalType": "uint256",
          "name": "_tokenId",
          "type": "uint256"
        },
        {
          "indexed": true,
          "internalType": "address",
          "name": "_newManager",
          "type": "address"
        }
      ],
      "name": "KeyManagerChanged",
      "type": "event"
    },
    {
      "anonymous": false,
      "inputs": [
        {
          "indexed": true,
          "internalType": "address",
          "name": "account",
          "type": "address"
        }
      ],
      "name": "LockManagerAdded",
      "type": "event"
    },
    {
      "anonymous": false,
      "inputs": [
        {
          "indexed": true,
          "internalType": "address",
          "name": "account",
          "type": "address"
        }
      ],
      "name": "LockManagerRemoved",
      "type": "event"
    },
    {
      "anonymous": false,
      "inputs": [
        {
          "indexed": false,
          "internalType": "uint256",
          "name": "oldKeyPrice",
          "type": "uint256"
        },
        {
          "indexed": false,
          "internalType": "uint256",
          "name": "keyPrice",
          "type": "uint256"
        },
        {
          "indexed": false,
          "internalType": "address",
          "name": "oldTokenAddress",
          "type": "address"
        },
        {
          "indexed": false,
          "internalType": "address",
          "name": "tokenAddress",
          "type": "address"
        }
      ],
      "name": "PricingChanged",
      "type": "event"
    },
    {
      "anonymous": false,
      "inputs": [
        {
          "indexed": true,
          "internalType": "bytes32",
          "name": "role",
          "type": "bytes32"
        },
        {
          "indexed": true,
          "internalType": "bytes32",
          "name": "previousAdminRole",
          "type": "bytes32"
        },
        {
          "indexed": true,
          "internalType": "bytes32",
          "name": "newAdminRole",
          "type": "bytes32"
        }
      ],
      "name": "RoleAdminChanged",
      "type": "event"
    },
    {
      "anonymous": false,
      "inputs": [
        {
          "indexed": true,
          "internalType": "bytes32",
          "name": "role",
          "type": "bytes32"
        },
        {
          "indexed": true,
          "internalType": "address",
          "name": "account",
          "type": "address"
        },
        {
          "indexed": true,
          "internalType": "address",
          "name": "sender",
          "type": "address"
        }
      ],
      "name": "RoleGranted",
      "type": "event"
    },
    {
      "anonymous": false,
      "inputs": [
        {
          "indexed": true,
          "internalType": "bytes32",
          "name": "role",
          "type": "bytes32"
        },
        {
          "indexed": true,
          "internalType": "address",
          "name": "account",
          "type": "address"
        },
        {
          "indexed": true,
          "internalType": "address",
          "name": "sender",
          "type": "address"
        }
      ],
      "name": "RoleRevoked",
      "type": "event"
    },
    {
      "anonymous": false,
      "inputs": [
        {
          "indexed": true,
          "internalType": "address",
          "name": "from",
          "type": "address"
        },
        {
          "indexed": true,
          "internalType": "address",
          "name": "to",
          "type": "address"
        },
        {
          "indexed": true,
          "internalType": "uint256",
          "name": "tokenId",
          "type": "uint256"
        }
      ],
      "name": "Transfer",
      "type": "event"
    },
    {
      "anonymous": false,
      "inputs": [
        {
          "indexed": true,
          "internalType": "address",
          "name": "sender",
          "type": "address"
        },
        {
          "indexed": true,
          "internalType": "address",
          "name": "tokenAddress",
          "type": "address"
        },
        {
          "indexed": true,
          "internalType": "address",
          "name": "beneficiary",
          "type": "address"
        },
        {
          "indexed": false,
          "internalType": "uint256",
          "name": "amount",
          "type": "uint256"
        }
      ],
      "name": "Withdrawal",
      "type": "event"
    },
    {
      "inputs": [],
      "name": "DEFAULT_ADMIN_ROLE",
      "outputs": [
        {
          "internalType": "bytes32",
          "name": "",
          "type": "bytes32"
        }
      ],
      "stateMutability": "view",
      "type": "function"
    },
    {
      "inputs": [],
      "name": "KEY_GRANTER_ROLE",
      "outputs": [
        {
          "internalType": "bytes32",
          "name": "",
          "type": "bytes32"
        }
      ],
      "stateMutability": "view",
      "type": "function"
    },
    {
      "inputs": [],
      "name": "LOCK_MANAGER_ROLE",
      "outputs": [
        {
          "internalType": "bytes32",
          "name": "",
          "type": "bytes32"
        }
      ],
      "stateMutability": "view",
      "type": "function"
    },
    {
      "inputs": [
        {
          "internalType": "address",
          "name": "account",
          "type": "address"
        }
      ],
      "name": "addKeyGranter",
      "outputs": [],
      "stateMutability": "nonpayable",
      "type": "function"
    },
    {
      "inputs": [
        {
          "internalType": "address",
          "name": "account",
          "type": "address"
        }
      ],
      "name": "addLockManager",
      "outputs": [],
      "stateMutability": "nonpayable",
      "type": "function"
    },
    {
      "inputs": [
        {
          "internalType": "address",
          "name": "_approved",
          "type": "address"
        },
        {
          "internalType": "uint256",
          "name": "_tokenId",
          "type": "uint256"
        }
      ],
      "name": "approve",
      "outputs": [],
      "stateMutability": "nonpayable",
      "type": "function"
    },
    {
      "inputs": [
        {
          "internalType": "address",
          "name": "_spender",
          "type": "address"
        },
        {
          "internalType": "uint256",
          "name": "_amount",
          "type": "uint256"
        }
      ],
      "name": "approveBeneficiary",
      "outputs": [
        {
          "internalType": "bool",
          "name": "",
          "type": "bool"
        }
      ],
      "stateMutability": "nonpayable",
      "type": "function"
    },
    {
      "inputs": [
        {
          "internalType": "address",
          "name": "_keyOwner",
          "type": "address"
        }
      ],
      "name": "balanceOf",
      "outputs": [
        {
          "internalType": "uint256",
          "name": "",
          "type": "uint256"
        }
      ],
      "stateMutability": "view",
      "type": "function"
    },
    {
      "inputs": [],
      "name": "beneficiary",
      "outputs": [
        {
          "internalType": "address payable",
          "name": "",
          "type": "address"
        }
      ],
      "stateMutability": "view",
      "type": "function"
    },
    {
      "inputs": [],
      "name": "disableLock",
      "outputs": [],
      "stateMutability": "nonpayable",
      "type": "function"
    },
    {
      "inputs": [],
      "name": "expirationDuration",
      "outputs": [
        {
          "internalType": "uint256",
          "name": "",
          "type": "uint256"
        }
      ],
      "stateMutability": "view",
      "type": "function"
    },
    {
      "inputs": [
        {
          "internalType": "uint256",
          "name": "_tokenId",
          "type": "uint256"
        }
      ],
      "name": "getApproved",
      "outputs": [
        {
          "internalType": "address",
          "name": "",
          "type": "address"
        }
      ],
      "stateMutability": "view",
      "type": "function"
    },
    {
      "inputs": [
        {
          "internalType": "address",
          "name": "_keyOwner",
          "type": "address"
        }
      ],
      "name": "getHasValidKey",
      "outputs": [
        {
          "internalType": "bool",
          "name": "",
          "type": "bool"
        }
      ],
      "stateMutability": "view",
      "type": "function"
    },
    {
      "inputs": [
        {
          "internalType": "bytes32",
          "name": "role",
          "type": "bytes32"
        }
      ],
      "name": "getRoleAdmin",
      "outputs": [
        {
          "internalType": "bytes32",
          "name": "",
          "type": "bytes32"
        }
      ],
      "stateMutability": "view",
      "type": "function"
    },
    {
      "inputs": [
        {
          "internalType": "address",
          "name": "_account",
          "type": "address"
        }
      ],
      "name": "getTokenIdFor",
      "outputs": [
        {
          "internalType": "uint256",
          "name": "",
          "type": "uint256"
        }
      ],
      "stateMutability": "view",
      "type": "function"
    },
    {
      "inputs": [
        {
          "internalType": "address[]",
          "name": "_recipients",
          "type": "address[]"
        },
        {
          "internalType": "uint256[]",
          "name": "_expirationTimestamps",
          "type": "uint256[]"
        },
        {
          "internalType": "address[]",
          "name": "_keyManagers",
          "type": "address[]"
        }
      ],
      "name": "grantKeys",
      "outputs": [],
      "stateMutability": "nonpayable",
      "type": "function"
    },
    {
      "inputs": [
        {
          "internalType": "bytes32",
          "name": "role",
          "type": "bytes32"
        },
        {
          "internalType": "address",
          "name": "account",
          "type": "address"
        }
      ],
      "name": "grantRole",
      "outputs": [],
      "stateMutability": "nonpayable",
      "type": "function"
    },
    {
      "inputs": [
        {
          "internalType": "bytes32",
          "name": "role",
          "type": "bytes32"
        },
        {
          "internalType": "address",
          "name": "account",
          "type": "address"
        }
      ],
      "name": "hasRole",
      "outputs": [
        {
          "internalType": "bool",
          "name": "",
          "type": "bool"
        }
      ],
      "stateMutability": "view",
      "type": "function"
    },
    {
      "inputs": [],
      "name": "isAlive",
      "outputs": [
        {
          "internalType": "bool",
          "name": "",
          "type": "bool"
        }
      ],
      "stateMutability": "view",
      "type": "function"
    },
    {
      "inputs": [
        {
          "internalType": "address",
          "name": "_owner",
          "type": "address"
        },
        {
          "internalType": "address",
          "name": "_operator",
          "type": "address"
        }
      ],
      "name": "isApprovedForAll",
      "outputs": [
        {
          "internalType": "bool",
          "name": "",
          "type": "bool"
        }
      ],
      "stateMutability": "view",
      "type": "function"
    },
    {
      "inputs": [
        {
          "internalType": "address",
          "name": "account",
          "type": "address"
        }
      ],
      "name": "isKeyGranter",
      "outputs": [
        {
          "internalType": "bool",
          "name": "",
          "type": "bool"
        }
      ],
      "stateMutability": "view",
      "type": "function"
    },
    {
      "inputs": [
        {
          "internalType": "address",
          "name": "account",
          "type": "address"
        }
      ],
      "name": "isLockManager",
      "outputs": [
        {
          "internalType": "bool",
          "name": "",
          "type": "bool"
        }
      ],
      "stateMutability": "view",
      "type": "function"
    },
    {
      "inputs": [
        {
          "internalType": "address",
          "name": "_keyOwner",
          "type": "address"
        }
      ],
      "name": "keyExpirationTimestampFor",
      "outputs": [
        {
          "internalType": "uint256",
          "name": "",
          "type": "uint256"
        }
      ],
      "stateMutability": "view",
      "type": "function"
    },
    {
      "inputs": [
        {
          "internalType": "uint256",
          "name": "",
          "type": "uint256"
        }
      ],
      "name": "keyManagerOf",
      "outputs": [
        {
          "internalType": "address",
          "name": "",
          "type": "address"
        }
      ],
      "stateMutability": "view",
      "type": "function"
    },
    {
      "inputs": [],
      "name": "keyPrice",
      "outputs": [
        {
          "internalType": "uint256",
          "name": "",
          "type": "uint256"
        }
      ],
      "stateMutability": "view",
      "type": "function"
    },
    {
      "inputs": [],
      "name": "maxNumberOfKeys",
      "outputs": [
        {
          "internalType": "uint256",
          "name": "",
          "type": "uint256"
        }
      ],
      "stateMutability": "view",
      "type": "function"
    },
    {
      "inputs": [],
      "name": "numberOfOwners",
      "outputs": [
        {
          "internalType": "uint256",
          "name": "",
          "type": "uint256"
        }
      ],
      "stateMutability": "view",
      "type": "function"
    },
    {
      "inputs": [],
      "name": "onKeyCancelHook",
      "outputs": [
        {
          "internalType": "contract ILockKeyCancelHook",
          "name": "",
          "type": "address"
        }
      ],
      "stateMutability": "view",
      "type": "function"
    },
    {
      "inputs": [],
      "name": "onKeyPurchaseHook",
      "outputs": [
        {
          "internalType": "contract ILockKeyPurchaseHook",
          "name": "",
          "type": "address"
        }
      ],
      "stateMutability": "view",
      "type": "function"
    },
    {
      "inputs": [
        {
          "internalType": "uint256",
          "name": "_tokenId",
          "type": "uint256"
        }
      ],
      "name": "ownerOf",
      "outputs": [
        {
          "internalType": "address",
          "name": "",
          "type": "address"
        }
      ],
      "stateMutability": "view",
      "type": "function"
    },
    {
      "inputs": [
        {
          "internalType": "uint256",
          "name": "",
          "type": "uint256"
        }
      ],
      "name": "owners",
      "outputs": [
        {
          "internalType": "address",
          "name": "",
          "type": "address"
        }
      ],
      "stateMutability": "view",
      "type": "function"
    },
    {
      "inputs": [],
      "name": "publicLockVersion",
      "outputs": [
        {
          "internalType": "uint16",
          "name": "",
          "type": "uint16"
        }
      ],
      "stateMutability": "pure",
      "type": "function"
    },
    {
      "inputs": [],
      "name": "renounceLockManager",
      "outputs": [],
      "stateMutability": "nonpayable",
      "type": "function"
    },
    {
      "inputs": [
        {
          "internalType": "bytes32",
          "name": "role",
          "type": "bytes32"
        },
        {
          "internalType": "address",
          "name": "account",
          "type": "address"
        }
      ],
      "name": "renounceRole",
      "outputs": [],
      "stateMutability": "nonpayable",
      "type": "function"
    },
    {
      "inputs": [
        {
          "internalType": "address",
          "name": "_granter",
          "type": "address"
        }
      ],
      "name": "revokeKeyGranter",
      "outputs": [],
      "stateMutability": "nonpayable",
      "type": "function"
    },
    {
      "inputs": [
        {
          "internalType": "bytes32",
          "name": "role",
          "type": "bytes32"
        },
        {
          "internalType": "address",
          "name": "account",
          "type": "address"
        }
      ],
      "name": "revokeRole",
      "outputs": [],
      "stateMutability": "nonpayable",
      "type": "function"
    },
    {
      "inputs": [
        {
          "internalType": "address",
          "name": "_to",
          "type": "address"
        },
        {
          "internalType": "bool",
          "name": "_approved",
          "type": "bool"
        }
      ],
      "name": "setApprovalForAll",
      "outputs": [],
      "stateMutability": "nonpayable",
      "type": "function"
    },
    {
      "inputs": [
        {
          "internalType": "address",
          "name": "_onKeyPurchaseHook",
          "type": "address"
        },
        {
          "internalType": "address",
          "name": "_onKeyCancelHook",
          "type": "address"
        }
      ],
      "name": "setEventHooks",
      "outputs": [],
      "stateMutability": "nonpayable",
      "type": "function"
    },
    {
      "inputs": [
        {
          "internalType": "uint256",
          "name": "_tokenId",
          "type": "uint256"
        },
        {
          "internalType": "address",
          "name": "_keyManager",
          "type": "address"
        }
      ],
      "name": "setKeyManagerOf",
      "outputs": [],
      "stateMutability": "nonpayable",
      "type": "function"
    },
    {
      "inputs": [
        {
          "internalType": "bytes4",
          "name": "interfaceId",
          "type": "bytes4"
        }
      ],
      "name": "supportsInterface",
      "outputs": [
        {
          "internalType": "bool",
          "name": "",
          "type": "bool"
        }
      ],
      "stateMutability": "view",
      "type": "function"
    },
    {
      "inputs": [],
      "name": "tokenAddress",
      "outputs": [
        {
          "internalType": "address",
          "name": "",
          "type": "address"
        }
      ],
      "stateMutability": "view",
      "type": "function"
    },
    {
      "inputs": [],
      "name": "totalSupply",
      "outputs": [
        {
          "internalType": "uint256",
          "name": "",
          "type": "uint256"
        }
      ],
      "stateMutability": "view",
      "type": "function"
    },
    {
      "inputs": [],
      "name": "unlockProtocol",
      "outputs": [
        {
          "internalType": "contract IUnlock",
          "name": "",
          "type": "address"
        }
      ],
      "stateMutability": "view",
      "type": "function"
    },
    {
      "inputs": [
        {
          "internalType": "address payable",
          "name": "_beneficiary",
          "type": "address"
        }
      ],
      "name": "updateBeneficiary",
      "outputs": [],
      "stateMutability": "nonpayable",
      "type": "function"
    },
    {
      "inputs": [
        {
          "internalType": "uint256",
          "name": "_keyPrice",
          "type": "uint256"
        },
        {
          "internalType": "address",
          "name": "_tokenAddress",
          "type": "address"
        }
      ],
      "name": "updateKeyPricing",
      "outputs": [],
      "stateMutability": "nonpayable",
      "type": "function"
    },
    {
      "inputs": [
        {
          "internalType": "address",
          "name": "_tokenAddress",
          "type": "address"
        },
        {
          "internalType": "uint256",
          "name": "_amount",
          "type": "uint256"
        }
      ],
      "name": "withdraw",
      "outputs": [],
      "stateMutability": "nonpayable",
      "type": "function"
    }
  ],
  "bytecode": "0x608060405234801561001057600080fd5b50612554806100206000396000f3fe608060405234801561001057600080fd5b506004361061028a5760003560e01c806370a082311161015c578063aae4b8f7116100ce578063d1bbd49c11610087578063d1bbd49c14610605578063d250348514610614578063d547741f14610627578063e985e9c51461063a578063f0ba60401461064d578063f3fef3a31461065557600080fd5b8063aae4b8f714610585578063abdf82ce14610598578063ad0e0a4d146105c4578063b11d7ec1146105d7578063b585a6d5146105ea578063c1c98d03146105fd57600080fd5b806393fd18441161012057806393fd184414610513578063970aaeb71461051b5780639d76ea5814610544578063a217fddf14610557578063a22cb4651461055f578063a2e4cd2e1461057257600080fd5b806370a08231146104bc57806374b6c106146104cf57806381a3c943146104d85780638ca2fbad146104eb57806391d148541461050057600080fd5b8063248a9ca3116102005780634136aa35116101b95780634136aa35146104025780634d025fed1461041657806352b0f6381461043f578063564aa99d146104525780636352211e146104655780636d8ea5b41461048e57600080fd5b8063248a9ca3146103805780632af9162a146103a35780632d33dd5b146103b65780632f2ff15d146103c957806336568abe146103dc57806338af3eed146103ef57600080fd5b80630f15023b116102525780630f15023b1461031d57806310e569731461033057806311a4c03a1461034757806318160ddd14610350578063217751bc14610358578063231005091461036b57600080fd5b806301ffc9a71461028f578063025e7c27146102b7578063081812fc146102e2578063095ea7b3146102f55780630aaffd2a1461030a575b600080fd5b6102a261029d366004612265565b610668565b60405190151581526020015b60405180910390f35b6102ca6102c5366004612229565b61069f565b6040516001600160a01b0390911681526020016102ae565b6102ca6102f0366004612229565b6106c9565b61030861030336600461214c565b61073f565b005b6103086103183660046120cb565b6108b8565b6098546102ca906001600160a01b031681565b610339609a5481565b6040519081526020016102ae565b61033960995481565b609c54610339565b609f546102ca906001600160a01b031681565b6103396000805160206124df83398151915281565b61033961038e366004612229565b60009081526065602052604090206001015490565b6103086103b13660046120cb565b610969565b609e546102ca906001600160a01b031681565b6103086103d7366004612241565b6109ec565b6103086103ea366004612241565b610a17565b609d546102ca906001600160a01b031681565b6097546102a290600160a01b900460ff1681565b6102ca610424366004612229565b60a3602052600090815260409020546001600160a01b031681565b6102a261044d3660046120cb565b610a95565b6103086104603660046120cb565b610aaf565b6102ca610473366004612229565b600090815260a160205260409020546001600160a01b031690565b6102a261049c3660046120cb565b6001600160a01b0316600090815260a06020526040902060010154421090565b6103396104ca3660046120cb565b610b32565b610339609b5481565b6103086104e6366004612177565b610b8f565b6103396000805160206124ff83398151915281565b6102a261050e366004612241565b610e0e565b60a254610339565b6103396105293660046120cb565b6001600160a01b0316600090815260a0602052604090205490565b6097546102ca906001600160a01b031681565b610339600081565b61030861056d36600461211f565b610e39565b610308610580366004612241565b610f16565b6102a26105933660046120cb565b6110b0565b6103396105a63660046120cb565b6001600160a01b0316600090815260a0602052604090206001015490565b6103086105d23660046120e7565b6110ca565b6103086105e5366004612241565b611202565b6102a26105f836600461214c565b6112c5565b6103086113be565b604051600981526020016102ae565b6103086106223660046120cb565b611453565b610308610635366004612241565b6114d6565b6102a26106483660046120e7565b6114fc565b610308611591565b61030861066336600461214c565b6115d6565b60006001600160e01b03198216637965db0b60e01b148061069957506301ffc9a760e01b6001600160e01b03198316145b92915050565b60a281815481106106af57600080fd5b6000918252602090912001546001600160a01b0316905081565b600081815260a1602052604081205482906001600160a01b03166107225760405162461bcd60e51b815260206004820152600b60248201526a4e4f5f535543485f4b455960a81b60448201526064015b60405180910390fd5b5050600090815260a460205260409020546001600160a01b031690565b609754600160a01b900460ff166107685760405162461bcd60e51b8152600401610719906123e7565b806107738133611796565b806107945750600081815260a460205260409020546001600160a01b031633145b806107bc5750600081815260a160205260409020546107bc906001600160a01b0316336114fc565b6108085760405162461bcd60e51b815260206004820152601c60248201527f4f4e4c595f4b45595f4d414e414745525f4f525f415050524f564544000000006044820152606401610719565b336001600160a01b03841614156108505760405162461bcd60e51b815260206004820152600c60248201526b20a8282927ab22afa9a2a62360a11b6044820152606401610719565b600082815260a46020908152604080832080546001600160a01b0319166001600160a01b0388811691821790925560a1909352818420549151869492909116917f8c5be1e5ebec7d5bd14f71427d1e84f3dd0314c0f7b2291e5b200ac8c7c3b92591a4505050565b609d546001600160a01b03163314806108d557506108d5336110b0565b6109215760405162461bcd60e51b815260206004820152601f60248201527f4f4e4c595f42454e45464943494152595f4f525f4c4f434b4d414e41474552006044820152606401610719565b6001600160a01b0381166109475760405162461bcd60e51b815260040161071990612369565b609d80546001600160a01b0319166001600160a01b0392909216919091179055565b6109816000805160206124ff83398151915233610e0e565b61099d5760405162461bcd60e51b815260040161071990612392565b6109b56000805160206124df833981519152826114d6565b6040516001600160a01b038216907f766f6199fea59554b9ff688e413302b9200f85d74811c053c12d945ac6d8dd7a90600090a250565b600082815260656020526040902060010154610a08813361180c565b610a128383611870565b505050565b6001600160a01b0381163314610a875760405162461bcd60e51b815260206004820152602f60248201527f416363657373436f6e74726f6c3a2063616e206f6e6c792072656e6f756e636560448201526e103937b632b9903337b91039b2b63360891b6064820152608401610719565b610a9182826118f6565b5050565b60006106996000805160206124df83398151915283610e0e565b610ac76000805160206124ff83398151915233610e0e565b610ae35760405162461bcd60e51b815260040161071990612392565b610afb6000805160206124df833981519152826109ec565b6040516001600160a01b038216907f684f8a71407db0c334454ebe9c9b288549317893a20b10dc779ec5c118dcd12190600090a250565b60006001600160a01b038216610b5a5760405162461bcd60e51b815260040161071990612369565b6001600160a01b038216600090815260a060205260409020600101544210610b83576000610b86565b60015b60ff1692915050565b610b9833610a95565b80610ba75750610ba7336110b0565b610c255760405162461bcd60e51b815260206004820152604360248201527f4d6978696e526f6c65733a2063616c6c657220646f6573206e6f74206861766560448201527f20746865204b65794772616e746572206f72204c6f636b4d616e6167657220726064820152626f6c6560e81b608482015260a401610719565b60005b85811015610e05576000878783818110610c5257634e487b7160e01b600052603260045260246000fd5b9050602002016020810190610c6791906120cb565b90506000868684818110610c8b57634e487b7160e01b600052603260045260246000fd5b9050602002013590506000858585818110610cb657634e487b7160e01b600052603260045260246000fd5b9050602002016020810190610ccb91906120cb565b90506001600160a01b038316610cf35760405162461bcd60e51b815260040161071990612369565b6001600160a01b038316600090815260a06020526040902060018101548311610d515760405162461bcd60e51b815260206004820152601060248201526f414c52454144595f4f574e535f4b455960801b6044820152606401610719565b805480610d6e57610d618261195d565b508054610d6e8582611981565b610d788184611a08565b6040516001600160a01b0384169082907f9d2895c45a420624de863a2f437b022d879f457bf7a829044055a10c5a6fd5e390600090a36001820184905560405181906001600160a01b038716906000907fddf252ad1be2c89b69c2b068fc378daa952ba7f163c4a11628f55a4df523b3ef908290a450505050508080610dfd9061248a565b915050610c28565b50505050505050565b60009182526065602090815260408084206001600160a01b0393909316845291905290205460ff1690565b609754600160a01b900460ff16610e625760405162461bcd60e51b8152600401610719906123e7565b6001600160a01b038216331415610eaa5760405162461bcd60e51b815260206004820152600c60248201526b20a8282927ab22afa9a2a62360a11b6044820152606401610719565b33600081815260a5602090815260408083206001600160a01b03871680855290835292819020805460ff191686151590811790915590519081529192917f17307eab39ab6107e8899845ad3d59bd9653f200f220920489ca2b5937696c31910160405180910390a35050565b610f2e6000805160206124ff83398151915233610e0e565b610f4a5760405162461bcd60e51b815260040161071990612392565b609754600160a01b900460ff16610f735760405162461bcd60e51b8152600401610719906123e7565b609a546097546001600160a01b03908116908316158061100357506000836001600160a01b03166318160ddd6040518163ffffffff1660e01b815260040160206040518083038186803b158015610fc957600080fd5b505afa158015610fdd573d6000803e3d6000fd5b505050506040513d601f19601f82011682018060405250810190611001919061228d565b115b61103f5760405162461bcd60e51b815260206004820152600d60248201526c24a72b20a624a22faa27a5a2a760991b6044820152606401610719565b609a849055609780546001600160a01b0319166001600160a01b0385811691821790925560408051858152602081018890529284169083015260608201527f3615065ccf48367ac483ac86701248e2e5ff55bdd9be845007d34a3b68d719d49060800160405180910390a150505050565b60006106996000805160206124ff83398151915283610e0e565b6110e26000805160206124ff83398151915233610e0e565b6110fe5760405162461bcd60e51b815260040161071990612392565b6001600160a01b038216158061111d57506001600160a01b0382163b15155b6111695760405162461bcd60e51b815260206004820152601860248201527f494e56414c49445f4f4e5f4b45595f534f4c445f484f4f4b00000000000000006044820152606401610719565b6001600160a01b038116158061118857506001600160a01b0381163b15155b6111d45760405162461bcd60e51b815260206004820152601a60248201527f494e56414c49445f4f4e5f4b45595f43414e43454c5f484f4f4b0000000000006044820152606401610719565b609e80546001600160a01b039384166001600160a01b031991821617909155609f8054929093169116179055565b600082815260a1602052604090205482906001600160a01b03166112565760405162461bcd60e51b815260206004820152600b60248201526a4e4f5f535543485f4b455960a81b6044820152606401610719565b6112608333611796565b8061126f575061126f336110b0565b6112bb5760405162461bcd60e51b815260206004820152601f60248201527f554e415554484f52495a45445f4b45595f4d414e414745525f555044415445006044820152606401610719565b610a128383611a08565b60006112d0336110b0565b806112e55750609d546001600160a01b031633145b6113315760405162461bcd60e51b815260206004820181905260248201527f4f4e4c595f4c4f434b5f4d414e414745525f4f525f42454e45464943494152596044820152606401610719565b60975460405163095ea7b360e01b81526001600160a01b038581166004830152602482018590529091169063095ea7b390604401602060405180830381600087803b15801561137f57600080fd5b505af1158015611393573d6000803e3d6000fd5b505050506040513d601f19601f820116820180604052508101906113b7919061220d565b9392505050565b6113d66000805160206124ff83398151915233610e0e565b6113f25760405162461bcd60e51b815260040161071990612392565b609754600160a01b900460ff1661141b5760405162461bcd60e51b8152600401610719906123e7565b6040517f25a311358326fb18c62efc24bc28d3126acee8d2a67fd8b2145b757dc8bd1bc190600090a16097805460ff60a01b19169055565b61146b6000805160206124ff83398151915233610e0e565b6114875760405162461bcd60e51b815260040161071990612392565b61149f6000805160206124ff833981519152826109ec565b6040516001600160a01b038216907f91d5c045d5bd98bf59a379b259ebca05b93bf79af1845fdf87e3172385d4c7f790600090a250565b6000828152606560205260409020600101546114f2813361180c565b610a1283836118f6565b6001600160a01b03808316600090815260a0602090815260408083205480845260a390925282205491929091168061155f575050506001600160a01b03808316600090815260a5602090815260408083209385168352929052205460ff16610699565b6001600160a01b03908116600090815260a5602090815260408083209387168352929052205460ff1691506106999050565b6115a96000805160206124ff83398151915233610a17565b60405133907f42885193b8178d25fca25a38e6fcc93918501e91be06d85e0c8afb3bad95238090600090a2565b6115df336110b0565b806115f45750609d546001600160a01b031633145b6116405760405162461bcd60e51b815260206004820181905260248201527f4f4e4c595f4c4f434b5f4d414e414745525f4f525f42454e45464943494152596044820152606401610719565b60006001600160a01b0383166116575750476116d1565b6040516370a0823160e01b81523060048201526001600160a01b038416906370a082319060240160206040518083038186803b15801561169657600080fd5b505afa1580156116aa573d6000803e3d6000fd5b505050506040513d601f19601f820116820180604052508101906116ce919061228d565b90505b60008215806116df57508183115b1561172e57600082116117275760405162461bcd60e51b815260206004820152601060248201526f4e4f545f454e4f5547485f46554e445360801b6044820152606401610719565b5080611731565b50815b609d546040518281526001600160a01b039182169186169033907f342e7ff505a8a0364cd0dc2ff195c315e43bce86b204846ecd36913e117b109e9060200160405180910390a4609d546117909085906001600160a01b031683611a8a565b50505050565b600082815260a360205260408120546001600160a01b03838116911614806117f75750600083815260a360205260409020546001600160a01b03161580156117f75750600083815260a160205260409020546001600160a01b038381169116145b1561180457506001610699565b506000610699565b6118168282610e0e565b610a915761182e816001600160a01b03166014611ac6565b611839836020611ac6565b60405160200161184a9291906122c1565b60408051601f198184030181529082905262461bcd60e51b825261071991600401612336565b61187a8282610e0e565b610a915760008281526065602090815260408083206001600160a01b03851684529091529020805460ff191660011790556118b23390565b6001600160a01b0316816001600160a01b0316837f2f8788117e7eff1d82e926ec794901d17c78024a50270940304540a733656f0d60405160405180910390a45050565b6119008282610e0e565b15610a915760008281526065602090815260408083206001600160a01b0385168085529252808320805460ff1916905551339285917ff6391f5c32d9c69d2a47ea670b442974b53935d1edc7fd64eb21e047a839171b9190a45050565b805461197e57609c80549060006119738361248a565b9091555050609c5481555b50565b600081815260a160205260409020546001600160a01b03838116911614610a915760a28054600181019091557faaf4f58de99300cfadc4585755f376d5fa747d5bc561d5bd9d710de1f91bf42d0180546001600160a01b0384166001600160a01b03199182168117909255600083815260a160205260409020805490911690911790555050565b600082815260a360205260409020546001600160a01b03828116911614610a9157600082815260a36020526040902080546001600160a01b0319166001600160a01b038316179055611a5982611ca8565b60405160009083907f9d2895c45a420624de863a2f437b022d879f457bf7a829044055a10c5a6fd5e3908390a35050565b8015610a12576001600160a01b038316611ab157610a126001600160a01b03831682611ce3565b826117906001600160a01b0382168484611dfc565b60606000611ad5836002612428565b611ae0906002612410565b67ffffffffffffffff811115611b0657634e487b7160e01b600052604160045260246000fd5b6040519080825280601f01601f191660200182016040528015611b30576020820181803683370190505b509050600360fc1b81600081518110611b5957634e487b7160e01b600052603260045260246000fd5b60200101906001600160f81b031916908160001a905350600f60fb1b81600181518110611b9657634e487b7160e01b600052603260045260246000fd5b60200101906001600160f81b031916908160001a9053506000611bba846002612428565b611bc5906001612410565b90505b6001811115611c59576f181899199a1a9b1b9c1cb0b131b232b360811b85600f1660108110611c0757634e487b7160e01b600052603260045260246000fd5b1a60f81b828281518110611c2b57634e487b7160e01b600052603260045260246000fd5b60200101906001600160f81b031916908160001a90535060049490941c93611c5281612473565b9050611bc8565b5083156113b75760405162461bcd60e51b815260206004820181905260248201527f537472696e67733a20686578206c656e67746820696e73756666696369656e746044820152606401610719565b600081815260a460205260409020546001600160a01b03161561197e57600090815260a46020526040902080546001600160a01b0319169055565b80471015611d335760405162461bcd60e51b815260206004820152601d60248201527f416464726573733a20696e73756666696369656e742062616c616e63650000006044820152606401610719565b6000826001600160a01b03168260405160006040518083038185875af1925050503d8060008114611d80576040519150601f19603f3d011682016040523d82523d6000602084013e611d85565b606091505b5050905080610a125760405162461bcd60e51b815260206004820152603a60248201527f416464726573733a20756e61626c6520746f2073656e642076616c75652c207260448201527f6563697069656e74206d617920686176652072657665727465640000000000006064820152608401610719565b604080516001600160a01b03848116602483015260448083018590528351808403909101815260649092018352602080830180516001600160e01b031663a9059cbb60e01b17905283518085019094528084527f5361666545524332303a206c6f772d6c6576656c2063616c6c206661696c656490840152610a1292869291600091611e8c918516908490611f09565b805190915015610a125780806020019051810190611eaa919061220d565b610a125760405162461bcd60e51b815260206004820152602a60248201527f5361666545524332303a204552433230206f7065726174696f6e20646964206e6044820152691bdd081cdd58d8d9595960b21b6064820152608401610719565b6060611f188484600085611f20565b949350505050565b606082471015611f815760405162461bcd60e51b815260206004820152602660248201527f416464726573733a20696e73756666696369656e742062616c616e636520666f6044820152651c8818d85b1b60d21b6064820152608401610719565b843b611fcf5760405162461bcd60e51b815260206004820152601d60248201527f416464726573733a2063616c6c20746f206e6f6e2d636f6e74726163740000006044820152606401610719565b600080866001600160a01b03168587604051611feb91906122a5565b60006040518083038185875af1925050503d8060008114612028576040519150601f19603f3d011682016040523d82523d6000602084013e61202d565b606091505b509150915061203d828286612048565b979650505050505050565b606083156120575750816113b7565b8251156120675782518084602001fd5b8160405162461bcd60e51b81526004016107199190612336565b60008083601f840112612092578182fd5b50813567ffffffffffffffff8111156120a9578182fd5b6020830191508360208260051b85010111156120c457600080fd5b9250929050565b6000602082840312156120dc578081fd5b81356113b7816124bb565b600080604083850312156120f9578081fd5b8235612104816124bb565b91506020830135612114816124bb565b809150509250929050565b60008060408385031215612131578182fd5b823561213c816124bb565b91506020830135612114816124d0565b6000806040838503121561215e578182fd5b8235612169816124bb565b946020939093013593505050565b6000806000806000806060878903121561218f578182fd5b863567ffffffffffffffff808211156121a6578384fd5b6121b28a838b01612081565b909850965060208901359150808211156121ca578384fd5b6121d68a838b01612081565b909650945060408901359150808211156121ee578384fd5b506121fb89828a01612081565b979a9699509497509295939492505050565b60006020828403121561221e578081fd5b81516113b7816124d0565b60006020828403121561223a578081fd5b5035919050565b60008060408385031215612253578182fd5b823591506020830135612114816124bb565b600060208284031215612276578081fd5b81356001600160e01b0319811681146113b7578182fd5b60006020828403121561229e578081fd5b5051919050565b600082516122b7818460208701612447565b9190910192915050565b7f416363657373436f6e74726f6c3a206163636f756e74200000000000000000008152600083516122f9816017850160208801612447565b7001034b99036b4b9b9b4b733903937b6329607d1b601791840191820152835161232a816028840160208801612447565b01602801949350505050565b6020815260008251806020840152612355816040850160208701612447565b601f01601f19169190910160400192915050565b6020808252600f908201526e494e56414c49445f4144445245535360881b604082015260600190565b60208082526035908201527f4d6978696e526f6c65733a2063616c6c657220646f6573206e6f74206861766560408201527420746865204c6f636b4d616e6167657220726f6c6560581b606082015260800190565b6020808252600f908201526e1313d0d2d7d11154149150d0551151608a1b604082015260600190565b60008219821115612423576124236124a5565b500190565b6000816000190483118215151615612442576124426124a5565b500290565b60005b8381101561246257818101518382015260200161244a565b838111156117905750506000910152565b600081612482576124826124a5565b506000190190565b600060001982141561249e5761249e6124a5565b5060010190565b634e487b7160e01b600052601160045260246000fd5b6001600160a01b038116811461197e57600080fd5b801515811461197e57600080fdfeb309c40027c81d382c3b58d8de24207a34b27e1db369b1434e4a11311f154b5eb89cdd26cddd51301940bf2715f765b626b8a5a9e2681ac62dc83cc2db2530c0a264697066735822122094ab82bf2008c5f4d93d7480a155278a6c784d1a75d3087f73f045ba61509f9364736f6c63430008040033",
  "linkReferences": {},
  "deployedLinkReferences": {}
}