{
  "_format": "hh-sol-artifact-1",
  "contractName": "Vault",
  "sourceName": "contracts/Vault.sol",
  "abi": [
    {
      "inputs": [],
      "stateMutability": "nonpayable",
      "type": "constructor"
    },
    {
      "anonymous": false,
      "inputs": [
        {
          "indexed": true,
          "internalType": "address",
          "name": "synth",
          "type": "address"
        },
        {
          "indexed": true,
          "internalType": "address",
          "name": "member",
          "type": "address"
        },
        {
          "indexed": false,
          "internalType": "uint256",
          "name": "amount",
          "type": "uint256"
        },
        {
          "indexed": false,
          "internalType": "uint256",
          "name": "weight",
          "type": "uint256"
        },
        {
          "indexed": false,
          "internalType": "uint256",
          "name": "totalWeight",
          "type": "uint256"
        }
      ],
      "name": "MemberDeposits",
      "type": "event"
    },
    {
      "anonymous": false,
      "inputs": [
        {
          "indexed": true,
          "internalType": "address",
          "name": "synth",
          "type": "address"
        },
        {
          "indexed": true,
          "internalType": "address",
          "name": "member",
          "type": "address"
        },
        {
          "indexed": false,
          "internalType": "uint256",
          "name": "amount",
          "type": "uint256"
        },
        {
          "indexed": false,
          "internalType": "uint256",
          "name": "weight",
          "type": "uint256"
        },
        {
          "indexed": false,
          "internalType": "uint256",
          "name": "totalWeight",
          "type": "uint256"
        }
      ],
      "name": "MemberHarvests",
      "type": "event"
    },
    {
      "anonymous": false,
      "inputs": [
        {
          "indexed": true,
          "internalType": "address",
          "name": "synth",
          "type": "address"
        },
        {
          "indexed": true,
          "internalType": "address",
          "name": "member",
          "type": "address"
        },
        {
          "indexed": false,
          "internalType": "uint256",
          "name": "amount",
          "type": "uint256"
        },
        {
          "indexed": false,
          "internalType": "uint256",
          "name": "weight",
          "type": "uint256"
        },
        {
          "indexed": false,
          "internalType": "uint256",
          "name": "totalWeight",
          "type": "uint256"
        }
      ],
      "name": "MemberWithdraws",
      "type": "event"
    },
    {
      "inputs": [],
      "name": "DAO",
      "outputs": [
        {
          "internalType": "address",
          "name": "",
          "type": "address"
        }
      ],
      "stateMutability": "view",
      "type": "function"
    },
    {
      "inputs": [],
      "name": "FACTORY",
      "outputs": [
        {
          "internalType": "address",
          "name": "",
          "type": "address"
        }
      ],
      "stateMutability": "view",
      "type": "function"
    },
    {
      "inputs": [],
      "name": "POOLS",
      "outputs": [
        {
          "internalType": "address",
          "name": "",
          "type": "address"
        }
      ],
      "stateMutability": "view",
      "type": "function"
    },
    {
      "inputs": [],
      "name": "ROUTER",
      "outputs": [
        {
          "internalType": "address",
          "name": "",
          "type": "address"
        }
      ],
      "stateMutability": "view",
      "type": "function"
    },
    {
      "inputs": [],
      "name": "USDV",
      "outputs": [
        {
          "internalType": "address",
          "name": "",
          "type": "address"
        }
      ],
      "stateMutability": "view",
      "type": "function"
    },
    {
      "inputs": [],
      "name": "UTILS",
      "outputs": [
        {
          "internalType": "address",
          "name": "",
          "type": "address"
        }
      ],
      "stateMutability": "view",
      "type": "function"
    },
    {
      "inputs": [],
      "name": "VADER",
      "outputs": [
        {
          "internalType": "address",
          "name": "",
          "type": "address"
        }
      ],
      "stateMutability": "view",
      "type": "function"
    },
    {
      "inputs": [
        {
          "internalType": "address",
          "name": "synth",
          "type": "address"
        },
        {
          "internalType": "address",
          "name": "member",
          "type": "address"
        }
      ],
      "name": "calcCurrentReward",
      "outputs": [
        {
          "internalType": "uint256",
          "name": "reward",
          "type": "uint256"
        }
      ],
      "stateMutability": "view",
      "type": "function"
    },
    {
      "inputs": [
        {
          "internalType": "address",
          "name": "synth",
          "type": "address"
        },
        {
          "internalType": "address",
          "name": "member",
          "type": "address"
        }
      ],
      "name": "calcReward",
      "outputs": [
        {
          "internalType": "uint256",
          "name": "reward",
          "type": "uint256"
        }
      ],
      "stateMutability": "view",
      "type": "function"
    },
    {
      "inputs": [
        {
          "internalType": "address",
          "name": "synth",
          "type": "address"
        },
        {
          "internalType": "uint256",
          "name": "amount",
          "type": "uint256"
        }
      ],
      "name": "deposit",
      "outputs": [],
      "stateMutability": "nonpayable",
      "type": "function"
    },
    {
      "inputs": [
        {
          "internalType": "address",
          "name": "synth",
          "type": "address"
        },
        {
          "internalType": "address",
          "name": "member",
          "type": "address"
        },
        {
          "internalType": "uint256",
          "name": "amount",
          "type": "uint256"
        }
      ],
      "name": "depositForMember",
      "outputs": [],
      "stateMutability": "nonpayable",
      "type": "function"
    },
    {
      "inputs": [],
      "name": "erasToEarn",
      "outputs": [
        {
          "internalType": "uint256",
          "name": "",
          "type": "uint256"
        }
      ],
      "stateMutability": "view",
      "type": "function"
    },
    {
      "inputs": [
        {
          "internalType": "address",
          "name": "synth",
          "type": "address"
        },
        {
          "internalType": "address",
          "name": "member",
          "type": "address"
        }
      ],
      "name": "getMemberDeposit",
      "outputs": [
        {
          "internalType": "uint256",
          "name": "",
          "type": "uint256"
        }
      ],
      "stateMutability": "view",
      "type": "function"
    },
    {
      "inputs": [
        {
          "internalType": "address",
          "name": "synth",
          "type": "address"
        },
        {
          "internalType": "address",
          "name": "member",
          "type": "address"
        }
      ],
      "name": "getMemberLastTime",
      "outputs": [
        {
          "internalType": "uint256",
          "name": "",
          "type": "uint256"
        }
      ],
      "stateMutability": "view",
      "type": "function"
    },
    {
      "inputs": [
        {
          "internalType": "address",
          "name": "member",
          "type": "address"
        }
      ],
      "name": "getMemberWeight",
      "outputs": [
        {
          "internalType": "uint256",
          "name": "",
          "type": "uint256"
        }
      ],
      "stateMutability": "view",
      "type": "function"
    },
    {
      "inputs": [
        {
          "internalType": "address",
          "name": "recipient",
          "type": "address"
        },
        {
          "internalType": "uint256",
          "name": "amount",
          "type": "uint256"
        }
      ],
      "name": "grant",
      "outputs": [],
      "stateMutability": "nonpayable",
      "type": "function"
    },
    {
      "inputs": [
        {
          "internalType": "address",
          "name": "synth",
          "type": "address"
        }
      ],
      "name": "harvest",
      "outputs": [
        {
          "internalType": "uint256",
          "name": "reward",
          "type": "uint256"
        }
      ],
      "stateMutability": "nonpayable",
      "type": "function"
    },
    {
      "inputs": [
        {
          "internalType": "address",
          "name": "_vader",
          "type": "address"
        },
        {
          "internalType": "address",
          "name": "_usdv",
          "type": "address"
        },
        {
          "internalType": "address",
          "name": "_router",
          "type": "address"
        },
        {
          "internalType": "address",
          "name": "_factory",
          "type": "address"
        },
        {
          "internalType": "address",
          "name": "_pool",
          "type": "address"
        }
      ],
      "name": "init",
      "outputs": [],
      "stateMutability": "nonpayable",
      "type": "function"
    },
    {
      "inputs": [],
      "name": "lastGranted",
      "outputs": [
        {
          "internalType": "uint256",
          "name": "",
          "type": "uint256"
        }
      ],
      "stateMutability": "view",
      "type": "function"
    },
    {
      "inputs": [],
      "name": "minGrantTime",
      "outputs": [
        {
          "internalType": "uint256",
          "name": "",
          "type": "uint256"
        }
      ],
      "stateMutability": "view",
      "type": "function"
    },
    {
      "inputs": [],
      "name": "minimumDepositTime",
      "outputs": [
        {
          "internalType": "uint256",
          "name": "",
          "type": "uint256"
        }
      ],
      "stateMutability": "view",
      "type": "function"
    },
    {
      "inputs": [],
      "name": "reserveUSDV",
      "outputs": [
        {
          "internalType": "uint256",
          "name": "",
          "type": "uint256"
        }
      ],
      "stateMutability": "view",
      "type": "function"
    },
    {
      "inputs": [],
      "name": "reserveVADER",
      "outputs": [
        {
          "internalType": "uint256",
          "name": "",
          "type": "uint256"
        }
      ],
      "stateMutability": "view",
      "type": "function"
    },
    {
      "inputs": [
        {
          "internalType": "uint256",
          "name": "newEra",
          "type": "uint256"
        },
        {
          "internalType": "uint256",
          "name": "newDepositTime",
          "type": "uint256"
        },
        {
          "internalType": "uint256",
          "name": "newGrantTime",
          "type": "uint256"
        }
      ],
      "name": "setParams",
      "outputs": [],
      "stateMutability": "nonpayable",
      "type": "function"
    },
    {
      "inputs": [],
      "name": "totalWeight",
      "outputs": [
        {
          "internalType": "uint256",
          "name": "",
          "type": "uint256"
        }
      ],
      "stateMutability": "view",
      "type": "function"
    },
    {
      "inputs": [
        {
          "internalType": "address",
          "name": "synth",
          "type": "address"
        },
        {
          "internalType": "uint256",
          "name": "basisPoints",
          "type": "uint256"
        }
      ],
      "name": "withdraw",
      "outputs": [
        {
          "internalType": "uint256",
          "name": "redeemedAmount",
          "type": "uint256"
        }
      ],
      "stateMutability": "nonpayable",
      "type": "function"
    }
  ],
  "bytecode": "0x608060405234801561001057600080fd5b50611d2b806100206000396000f3fe608060405234801561001057600080fd5b506004361061018e5760003560e01c80637b0e5c45116100de578063bf58d0ef11610097578063e9f27c3a11610071578063e9f27c3a1461034b578063ebccb5b21461035e578063f22454aa14610371578063f3fef3a31461037a5761018e565b8063bf58d0ef1461031d578063de6ad44e14610330578063e2c3b046146103385761018e565b80637b0e5c45146102ae5780638dfa9bcc146102b657806396c82e57146102f057806398fabd3a146102f9578063a4b82cb614610301578063a6dde1311461030a5761018e565b806332fe7b261161014b5780635364df49116101255780635364df49146102575780635a0ce6761461028057806362cea340146102935780636370920e1461029b5761018e565b806332fe7b261461021c578063359ef75b1461022f57806347e7ef24146102445761018e565b8063016813151461019357806302d0e1ae146101c3578063036e21e5146101e45780630e5c011e146101ed5780632c07eebf146102005780632dd3100014610209575b600080fd5b6004546101a6906001600160a01b031681565b6040516001600160a01b0390911681526020015b60405180910390f35b6101d66101d1366004611ae3565b61038d565b6040519081526020016101ba565b6101d660095481565b6101d66101fb366004611aa4565b6103ba565b6101d660015481565b6008546101a6906001600160a01b031681565b6006546101a6906001600160a01b031681565b61024261023d366004611b1b565b61099a565b005b610242610252366004611bcb565b610a27565b6101d6610265366004611aa4565b6001600160a01b03166000908152600b602052604090205490565b61024261028e366004611c2e565b610a36565b6101d6610a9b565b6102426102a9366004611bcb565b610b22565b6101a6610c50565b6101d66102c4366004611ae3565b6001600160a01b038082166000908152600c602090815260408083209386168352929052205492915050565b6101d6600a5481565b6101a6610cd8565b6101d660035481565b6101d6610318366004611ae3565b610d28565b61024261032b366004611b8b565b610f91565b6101d661105b565b6005546101a6906001600160a01b031681565b6101d6610359366004611ae3565b61108c565b6007546101a6906001600160a01b031681565b6101d660025481565b6101d6610388366004611bcb565b6112ad565b6001600160a01b038082166000908152600d60209081526040808320938616835292905220545b92915050565b600080339050600080846001600160a01b03166382bfefc86040518163ffffffff1660e01b815260040160206040518083038186803b1580156103fc57600080fd5b505afa158015610410573d6000803e3d6000fd5b505050506040513d601f19601f820116820180604052508101906104349190611ac7565b9050610440858461108c565b6001600160a01b038481166000908152600d602090815260408083208a8516845290915290819020429055600754905163643fd21560e11b81528483166004820152929650169063c87fa42a9060240160206040518083038186803b1580156104a857600080fd5b505afa1580156104bc573d6000803e3d6000fd5b505050506040513d601f19601f820116820180604052508101906104e09190611bf6565b156106905760055460075460405163a9059cbb60e01b81526001600160a01b0391821660048201526024810187905291169063a9059cbb90604401602060405180830381600087803b15801561053557600080fd5b505af1158015610549573d6000803e3d6000fd5b505050506040513d601f19601f8201168201806040525081019061056d9190611bf6565b5060075460055460405163680b1a3f60e11b81526001600160a01b039182166004820152838216602482015230604482015291169063d016347e90606401602060405180830381600087803b1580156105c557600080fd5b505af11580156105d9573d6000803e3d6000fd5b505050506040513d601f19601f820116820180604052508101906105fd9190611c16565b9350610607610c50565b60405163db39dc7960e01b81526001600160a01b03838116600483015260248201879052919091169063db39dc799060440160206040518083038186803b15801561065157600080fd5b505afa158015610665573d6000803e3d6000fd5b505050506040513d601f19601f820116820180604052508101906106899190611c16565b91506108bd565b6004805460075460405163a9059cbb60e01b81526001600160a01b039182169381019390935260248301879052169063a9059cbb90604401602060405180830381600087803b1580156106e257600080fd5b505af11580156106f6573d6000803e3d6000fd5b505050506040513d601f19601f8201168201806040525081019061071a9190611bf6565b506007546004805460405163680b1a3f60e11b81526001600160a01b039182169281019290925283811660248301523060448301529091169063d016347e90606401602060405180830381600087803b15801561077657600080fd5b505af115801561078a573d6000803e3d6000fd5b505050506040513d601f19601f820116820180604052508101906107ae9190611c16565b6006549094506001600160a01b0316635a4dd3f26107ca610c50565b60405163db39dc7960e01b81526001600160a01b03858116600483015260248201899052919091169063db39dc799060440160206040518083038186803b15801561081457600080fd5b505afa158015610828573d6000803e3d6000fd5b505050506040513d601f19601f8201168201806040525081019061084c9190611c16565b6040518263ffffffff1660e01b815260040161086a91815260200190565b60206040518083038186803b15801561088257600080fd5b505afa158015610896573d6000803e3d6000fd5b505050506040513d601f19601f820116820180604052508101906108ba9190611c16565b91505b6001600160a01b038084166000908152600c60209081526040808320938916835292905290812080548692906108f4908490611c59565b90915550506001600160a01b0383166000908152600b602052604081208054849290610921908490611c59565b9250508190555081600a600082825461093a9190611c59565b9091555050600a54604080518681526020810185905280820192909252516001600160a01b0385811692908816917f154ce75570debb840e085287bc6b1fd9f48fa7b08a5f2dd564b6a7592147d4449181900360600190a3505050919050565b60005460ff16156109aa57600080fd5b60008054600160ff199091168117909155600780546001600160a01b03199081166001600160a01b0394851617909155600480548216978416979097179096556005805487169583169590951790945560068054861693821693909317909255600880549094169116179091556064815560095562278d00600255565b610a32823383610f91565b5050565b610a3e610cd8565b6001600160a01b0316336001600160a01b031614610a8d5760405162461bcd60e51b81526020600482015260076024820152664e6f742044414f60c81b60448201526064015b60405180910390fd5b600192909255600955600255565b600480546040516370a0823160e01b815230928101929092526000916001600160a01b03909116906370a08231906024015b60206040518083038186803b158015610ae557600080fd5b505afa158015610af9573d6000803e3d6000fd5b505050506040513d601f19601f82011682018060405250810190610b1d9190611c16565b905090565b610b2a610cd8565b6001600160a01b0316336001600160a01b031614610b745760405162461bcd60e51b81526020600482015260076024820152664e6f742044414f60c81b6044820152606401610a84565b600254600354610b849042611cb0565b1015610bc15760405162461bcd60e51b815260206004820152600c60248201526b1b9bdd081d1bdbc819985cdd60a21b6044820152606401610a84565b4260035560055460405163a9059cbb60e01b81526001600160a01b038481166004830152602482018490529091169063a9059cbb90604401602060405180830381600087803b158015610c1357600080fd5b505af1158015610c27573d6000803e3d6000fd5b505050506040513d601f19601f82011682018060405250810190610c4b9190611bf6565b505050565b6000600460009054906101000a90046001600160a01b03166001600160a01b0316637b0e5c456040518163ffffffff1660e01b815260040160206040518083038186803b158015610ca057600080fd5b505afa158015610cb4573d6000803e3d6000fd5b505050506040513d601f19601f82011682018060405250810190610b1d9190611ac7565b6000600460009054906101000a90046001600160a01b03166001600160a01b03166398fabd3a6040518163ffffffff1660e01b815260040160206040518083038186803b158015610ca057600080fd5b6001600160a01b038082166000908152600b60209081526040808320546007548251631057fdf960e31b81529251949591949082169363c87fa42a93928916926382bfefc89260048083019392829003018186803b158015610d8957600080fd5b505afa158015610d9d573d6000803e3d6000fd5b505050506040513d601f19601f82011682018060405250810190610dc19190611ac7565b6040516001600160e01b031960e084901b1681526001600160a01b03909116600482015260240160206040518083038186803b158015610e0057600080fd5b505afa158015610e14573d6000803e3d6000fd5b505050506040513d601f19601f82011682018060405250810190610e389190611bf6565b15610f87576000610e4761105b565b6006546001600160a01b0316635a4dd3f2610e60610a9b565b6040518263ffffffff1660e01b8152600401610e7e91815260200190565b60206040518083038186803b158015610e9657600080fd5b505afa158015610eaa573d6000803e3d6000fd5b505050506040513d601f19601f82011682018060405250810190610ece9190611c16565b610ed89190611c59565b9050610ee2610c50565b6001600160a01b0316631ba326c483600a5460015485610f029190611c71565b6040516001600160e01b031960e086901b16815260048101939093526024830191909152604482015260640160206040518083038186803b158015610f4657600080fd5b505afa158015610f5a573d6000803e3d6000fd5b505050506040513d601f19601f82011682018060405250810190610f7e9190611c16565b925050506103b4565b6000610e4761105b565b600854604051632f011bf560e11b81526001600160a01b03858116600483015290911690635e0237ea9060240160206040518083038186803b158015610fd657600080fd5b505afa158015610fea573d6000803e3d6000fd5b505050506040513d601f19601f8201168201806040525081019061100e9190611bf6565b6110465760405162461bcd60e51b815260206004820152600960248201526809cdee840a6f2dce8d60bb1b6044820152606401610a84565b61105083826112c7565b610c4b8383836113ec565b6005546040516370a0823160e01b81523060048201526000916001600160a01b0316906370a0823190602401610acd565b6001600160a01b038082166000908152600d6020908152604080832093861683529290529081205481906110c09042611cb0565b905060006110ce8585610d28565b9050600460009054906101000a90046001600160a01b03166001600160a01b0316636b92a3b66040518163ffffffff1660e01b815260040160206040518083038186803b15801561111e57600080fd5b505afa158015611132573d6000803e3d6000fd5b505050506040513d601f19601f820116820180604052508101906111569190611c16565b6111608383611c91565b61116a9190611c71565b92506000600760009054906101000a90046001600160a01b03166001600160a01b031663c87fa42a876001600160a01b03166382bfefc86040518163ffffffff1660e01b815260040160206040518083038186803b1580156111cb57600080fd5b505afa1580156111df573d6000803e3d6000fd5b505050506040513d601f19601f820116820180604052508101906112039190611ac7565b6040516001600160e01b031960e084901b1681526001600160a01b03909116600482015260240160206040518083038186803b15801561124257600080fd5b505afa158015611256573d6000803e3d6000fd5b505050506040513d601f19601f8201168201806040525081019061127a9190611bf6565b1561128e5761128761105b565b9050611299565b611296610a9b565b90505b8084106112a4578093505b50505092915050565b60006112ba833384611778565b90506103b4833383611a19565b3233141561135d576040516302ccb1b360e41b8152306004820152602481018290526001600160a01b03831690632ccb1b3090604401602060405180830381600087803b15801561131757600080fd5b505af115801561132b573d6000803e3d6000fd5b505050506040513d601f19601f8201168201806040525081019061134f9190611bf6565b61135857600080fd5b610a32565b6040516323b872dd60e01b8152336004820152306024820152604481018290526001600160a01b038316906323b872dd90606401602060405180830381600087803b1580156113ab57600080fd5b505af11580156113bf573d6000803e3d6000fd5b505050506040513d601f19601f820116820180604052508101906113e39190611bf6565b610a3257600080fd5b6001600160a01b038083166000818152600d60209081526040808320948816808452948252808320429055928252600c8152828220938252929092528120805483929061143a908490611c59565b909155506000905061144a610c50565b6001600160a01b031663db39dc79856001600160a01b03166382bfefc86040518163ffffffff1660e01b815260040160206040518083038186803b15801561149157600080fd5b505afa1580156114a5573d6000803e3d6000fd5b505050506040513d601f19601f820116820180604052508101906114c99190611ac7565b6040516001600160e01b031960e084901b1681526001600160a01b0390911660048201526024810185905260440160206040518083038186803b15801561150f57600080fd5b505afa158015611523573d6000803e3d6000fd5b505050506040513d601f19601f820116820180604052508101906115479190611c16565b9050600760009054906101000a90046001600160a01b03166001600160a01b031663d8cced2a856001600160a01b03166382bfefc86040518163ffffffff1660e01b815260040160206040518083038186803b1580156115a657600080fd5b505afa1580156115ba573d6000803e3d6000fd5b505050506040513d601f19601f820116820180604052508101906115de9190611ac7565b6040516001600160e01b031960e084901b1681526001600160a01b03909116600482015260240160206040518083038186803b15801561161d57600080fd5b505afa158015611631573d6000803e3d6000fd5b505050506040513d601f19601f820116820180604052508101906116559190611bf6565b156116d957600654604051632d26e9f960e11b8152600481018390526001600160a01b0390911690635a4dd3f29060240160206040518083038186803b15801561169e57600080fd5b505afa1580156116b2573d6000803e3d6000fd5b505050506040513d601f19601f820116820180604052508101906116d69190611c16565b90505b6001600160a01b0383166000908152600b602052604081208054839290611701908490611c59565b9250508190555080600a600082825461171a9190611c59565b9091555050600a54604080518481526020810184905280820192909252516001600160a01b0385811692908716917f14cd3bc470910a26ce3f7f4a5649f17759dd61c2d987e6941dc6c34f8bd920a29181900360600190a350505050565b6009546001600160a01b038084166000908152600d602090815260408083209388168352929052908120549091906117b09042611cb0565b10156117ec5760405162461bcd60e51b815260206004820152600b60248201526a4465706f73697454696d6560a81b6044820152606401610a84565b6117f4610c50565b6001600160a01b038481166000908152600c6020908152604080832089851684529091529081902054905163714270ab60e01b815260048101869052602481019190915291169063714270ab9060440160206040518083038186803b15801561185c57600080fd5b505afa158015611870573d6000803e3d6000fd5b505050506040513d601f19601f820116820180604052508101906118949190611c16565b6001600160a01b038085166000908152600c602090815260408083209389168352929052908120805492935083929091906118d0908490611cb0565b90915550600090506118e0610c50565b6001600160a01b038581166000908152600b60205260409081902054905163714270ab60e01b815260048101879052602481019190915291169063714270ab9060440160206040518083038186803b15801561193b57600080fd5b505afa15801561194f573d6000803e3d6000fd5b505050506040513d601f19601f820116820180604052508101906119739190611c16565b6001600160a01b0385166000908152600b60205260408120805492935083929091906119a0908490611cb0565b9250508190555080600a60008282546119b99190611cb0565b9091555050600a54604080518481526020810184905280820192909252516001600160a01b0386811692908816917f28b0a5e71db5b0ceb9e9edc3f89a0763709f773d717a2dcfd7851977f805ea7a9181900360600190a3509392505050565b60405163a9059cbb60e01b81526001600160a01b0383811660048301526024820183905284169063a9059cbb90604401602060405180830381600087803b158015611a6357600080fd5b505af1158015611a77573d6000803e3d6000fd5b505050506040513d601f19601f82011682018060405250810190611a9b9190611bf6565b610c4b57600080fd5b600060208284031215611ab5578081fd5b8135611ac081611cdd565b9392505050565b600060208284031215611ad8578081fd5b8151611ac081611cdd565b60008060408385031215611af5578081fd5b8235611b0081611cdd565b91506020830135611b1081611cdd565b809150509250929050565b600080600080600060a08688031215611b32578081fd5b8535611b3d81611cdd565b94506020860135611b4d81611cdd565b93506040860135611b5d81611cdd565b92506060860135611b6d81611cdd565b91506080860135611b7d81611cdd565b809150509295509295909350565b600080600060608486031215611b9f578283fd5b8335611baa81611cdd565b92506020840135611bba81611cdd565b929592945050506040919091013590565b60008060408385031215611bdd578182fd5b8235611be881611cdd565b946020939093013593505050565b600060208284031215611c07578081fd5b81518015158114611ac0578182fd5b600060208284031215611c27578081fd5b5051919050565b600080600060608486031215611c42578283fd5b505081359360208301359350604090920135919050565b60008219821115611c6c57611c6c611cc7565b500190565b600082611c8c57634e487b7160e01b81526012600452602481fd5b500490565b6000816000190483118215151615611cab57611cab611cc7565b500290565b600082821015611cc257611cc2611cc7565b500390565b634e487b7160e01b600052601160045260246000fd5b6001600160a01b0381168114611cf257600080fd5b5056fea2646970667358221220ee6bd46207eed8a8ef13c0b1598a0e0e63f2e5beadf5d4893bff3b4b6a94ee0b64736f6c63430008030033",
  "linkReferences": {},
  "deployedLinkReferences": {}
}