{
  "_format": "hh-sol-artifact-1",
  "contractName": "NFTXDeferEligibility",
  "sourceName": "contracts/solidity/eligibility/NFTXDeferEligibility.sol",
  "abi": [
    {
      "anonymous": false,
      "inputs": [
        {
          "indexed": false,
          "internalType": "address",
          "name": "deferAddress",
          "type": "address"
        },
        {
          "indexed": false,
          "internalType": "uint256",
          "name": "deferralVaultId",
          "type": "uint256"
        }
      ],
      "name": "NFTXEligibilityInit",
      "type": "event"
    },
    {
      "inputs": [
        {
          "internalType": "address",
          "name": "_deferAddress",
          "type": "address"
        },
        {
          "internalType": "uint256",
          "name": "_deferVaultId",
          "type": "uint256"
        }
      ],
      "name": "__NFTXEligibility_init",
      "outputs": [],
      "stateMutability": "nonpayable",
      "type": "function"
    },
    {
      "inputs": [
        {
          "internalType": "bytes",
          "name": "configData",
          "type": "bytes"
        }
      ],
      "name": "__NFTXEligibility_init_bytes",
      "outputs": [],
      "stateMutability": "nonpayable",
      "type": "function"
    },
    {
      "inputs": [
        {
          "internalType": "uint256[]",
          "name": "tokenIds",
          "type": "uint256[]"
        }
      ],
      "name": "afterMintHook",
      "outputs": [],
      "stateMutability": "nonpayable",
      "type": "function"
    },
    {
      "inputs": [
        {
          "internalType": "uint256[]",
          "name": "tokenIds",
          "type": "uint256[]"
        }
      ],
      "name": "afterRedeemHook",
      "outputs": [],
      "stateMutability": "nonpayable",
      "type": "function"
    },
    {
      "inputs": [
        {
          "internalType": "uint256[]",
          "name": "tokenIds",
          "type": "uint256[]"
        }
      ],
      "name": "beforeMintHook",
      "outputs": [],
      "stateMutability": "nonpayable",
      "type": "function"
    },
    {
      "inputs": [
        {
          "internalType": "uint256[]",
          "name": "tokenIds",
          "type": "uint256[]"
        }
      ],
      "name": "beforeRedeemHook",
      "outputs": [],
      "stateMutability": "nonpayable",
      "type": "function"
    },
    {
      "inputs": [
        {
          "internalType": "uint256[]",
          "name": "tokenIds",
          "type": "uint256[]"
        }
      ],
      "name": "checkAllEligible",
      "outputs": [
        {
          "internalType": "bool",
          "name": "",
          "type": "bool"
        }
      ],
      "stateMutability": "view",
      "type": "function"
    },
    {
      "inputs": [
        {
          "internalType": "uint256[]",
          "name": "tokenIds",
          "type": "uint256[]"
        }
      ],
      "name": "checkAllIneligible",
      "outputs": [
        {
          "internalType": "bool",
          "name": "",
          "type": "bool"
        }
      ],
      "stateMutability": "view",
      "type": "function"
    },
    {
      "inputs": [
        {
          "internalType": "uint256[]",
          "name": "tokenIds",
          "type": "uint256[]"
        }
      ],
      "name": "checkEligible",
      "outputs": [
        {
          "internalType": "bool[]",
          "name": "",
          "type": "bool[]"
        }
      ],
      "stateMutability": "view",
      "type": "function"
    },
    {
      "inputs": [
        {
          "internalType": "uint256",
          "name": "tokenId",
          "type": "uint256"
        }
      ],
      "name": "checkIsEligible",
      "outputs": [
        {
          "internalType": "bool",
          "name": "",
          "type": "bool"
        }
      ],
      "stateMutability": "view",
      "type": "function"
    },
    {
      "inputs": [],
      "name": "deferAddress",
      "outputs": [
        {
          "internalType": "address",
          "name": "",
          "type": "address"
        }
      ],
      "stateMutability": "view",
      "type": "function"
    },
    {
      "inputs": [],
      "name": "deferVaultId",
      "outputs": [
        {
          "internalType": "uint256",
          "name": "",
          "type": "uint256"
        }
      ],
      "stateMutability": "view",
      "type": "function"
    },
    {
      "inputs": [],
      "name": "finalized",
      "outputs": [
        {
          "internalType": "bool",
          "name": "",
          "type": "bool"
        }
      ],
      "stateMutability": "view",
      "type": "function"
    },
    {
      "inputs": [],
      "name": "name",
      "outputs": [
        {
          "internalType": "string",
          "name": "",
          "type": "string"
        }
      ],
      "stateMutability": "pure",
      "type": "function"
    },
    {
      "inputs": [],
      "name": "targetAsset",
      "outputs": [
        {
          "internalType": "address",
          "name": "",
          "type": "address"
        }
      ],
      "stateMutability": "pure",
      "type": "function"
    }
  ],
  "bytecode": "0x608060405234801561001057600080fd5b506109c7806100206000396000f3fe608060405234801561001057600080fd5b50600436106100f55760003560e01c80637a90169211610097578063bd8affde11610066578063bd8affde14610142578063ca373f28146101fe578063d2a096e814610211578063f7be19f11461022457600080fd5b80637a901692146101a457806384ca9f85146101bb578063a8bdfa2b146101de578063b3f05b97146101f757600080fd5b80634998b7f3116100d35780634998b7f3146101715780635e2f9b52146101425780636c47d595146101425780636cd912601461018457600080fd5b806306fdde03146100fa57806336eb0862146101425780633d4403ac14610156575b600080fd5b604080518082018252600581527f44656665720000000000000000000000000000000000000000000000000000006020820152905161013991906108e9565b60405180910390f35b61015461015036600461074a565b5050565b005b60005b6040516001600160a01b039091168152602001610139565b61015461017f3660046107e1565b610237565b61019761019236600461074a565b610325565b60405161013991906108a3565b6101ad60015481565b604051908152602001610139565b6101ce6101c936600461074a565b610402565b6040519015158152602001610139565b600054610159906201000090046001600160a01b031681565b60016101ce565b6101ce61020c36600461074a565b61045b565b6101ce61021f36600461088b565b6104ab565b61015461023236600461071f565b6104b6565b600054610100900460ff1680610250575060005460ff16155b6102c75760405162461bcd60e51b815260206004820152602e60248201527f496e697469616c697a61626c653a20636f6e747261637420697320616c72656160448201527f647920696e697469616c697a656400000000000000000000000000000000000060648201526084015b60405180910390fd5b600054610100900460ff161580156102e9576000805461ffff19166101011790555b6000808380602001905181019061030091906106f2565b9150915061030e82826104b6565b50508015610150576000805461ff00191690555050565b606060008267ffffffffffffffff81111561035057634e487b7160e01b600052604160045260246000fd5b604051908082528060200260200182016040528015610379578160200160208202803683370190505b50905060005b838110156103f8576103b68585838181106103aa57634e487b7160e01b600052603260045260246000fd5b9050602002013561064c565b8282815181106103d657634e487b7160e01b600052603260045260246000fd5b91151560209283029190910190910152806103f08161093c565b91505061037f565b5090505b92915050565b6000805b82811015610451576104318484838181106103aa57634e487b7160e01b600052603260045260246000fd5b61043f5760009150506103fc565b806104498161093c565b915050610406565b5060019392505050565b6000805b828110156104515761048a8484838181106103aa57634e487b7160e01b600052603260045260246000fd5b156104995760009150506103fc565b806104a38161093c565b91505061045f565b60006103fc8261064c565b600054610100900460ff16806104cf575060005460ff16155b6105415760405162461bcd60e51b815260206004820152602e60248201527f496e697469616c697a61626c653a20636f6e747261637420697320616c72656160448201527f647920696e697469616c697a656400000000000000000000000000000000000060648201526084016102be565b600054610100900460ff16158015610563576000805461ffff19166101011790555b6001600160a01b0383166105b95760405162461bcd60e51b815260206004820152601a60248201527f64656665724164647265737320213d206164647265737328302900000000000060448201526064016102be565b600080547fffffffffffffffffffff0000000000000000000000000000000000000000ffff16620100006001600160a01b03861690810291909117909155600183905560408051918252602082018490527f7f42b8fc71aace6a5941e31ba0be200e39ccb42e6f1221a5114fd82e34ec4e35910160405180910390a18015610647576000805461ff00191690555b505050565b600080546001546040517ff09e82e2000000000000000000000000000000000000000000000000000000008152600481019190915260248101849052620100009091046001600160a01b03169063f09e82e29060440160206040518083038186803b1580156106ba57600080fd5b505afa1580156106ce573d6000803e3d6000fd5b505050506040513d601f19601f820116820180604052508101906103fc91906107ba565b60008060408385031215610704578182fd5b825161070f81610979565b6020939093015192949293505050565b60008060408385031215610731578182fd5b823561073c81610979565b946020939093013593505050565b6000806020838503121561075c578182fd5b823567ffffffffffffffff80821115610773578384fd5b818501915085601f830112610786578384fd5b813581811115610794578485fd5b8660208260051b85010111156107a8578485fd5b60209290920196919550909350505050565b6000602082840312156107cb578081fd5b815180151581146107da578182fd5b9392505050565b6000602082840312156107f2578081fd5b813567ffffffffffffffff80821115610809578283fd5b818401915084601f83011261081c578283fd5b81358181111561082e5761082e610963565b604051601f8201601f19908116603f0116810190838211818310171561085657610856610963565b8160405282815287602084870101111561086e578586fd5b826020860160208301379182016020019490945295945050505050565b60006020828403121561089c578081fd5b5035919050565b6020808252825182820181905260009190848201906040850190845b818110156108dd5783511515835292840192918401916001016108bf565b50909695505050505050565b6000602080835283518082850152825b81811015610915578581018301518582016040015282016108f9565b818111156109265783604083870101525b50601f01601f1916929092016040019392505050565b600060001982141561095c57634e487b7160e01b81526011600452602481fd5b5060010190565b634e487b7160e01b600052604160045260246000fd5b6001600160a01b038116811461098e57600080fd5b5056fea26469706673582212208ffbb4c40778ad55b029329a27ed7d941028b8344a5358aa5b918a8d0da5459664736f6c63430008040033",
  "linkReferences": {},
  "deployedLinkReferences": {}
}