{
  "_format": "hh-sol-artifact-1",
  "contractName": "SelfDestructMockup",
  "sourceName": "contracts/mockups/SelfDestructMockup.sol",
  "abi": [
    {
      "inputs": [
        {
          "internalType": "address payable",
          "name": "_address",
          "type": "address"
        }
      ],
      "name": "killme",
      "outputs": [],
      "stateMutability": "nonpayable",
      "type": "function"
    },
    {
      "stateMutability": "payable",
      "type": "receive"
    }
  ],
  "bytecode": "0x608060405234801561001057600080fd5b5060b88061001f6000396000f3fe60806040526004361060205760003560e01c8063212743c914602b57600080fd5b36602657005b600080fd5b348015603657600080fd5b50604660423660046054565b6048565b005b806001600160a01b0316ff5b600060208284031215606557600080fd5b81356001600160a01b0381168114607b57600080fd5b939250505056fea2646970667358221220cab0344dc73004300729bde4de023a36a8811ebfd69c4affde73fbbe52cfbc2f64736f6c63430008070033",
  "linkReferences": {},
  "deployedLinkReferences": {}
}