{
  "_format": "hh-sol-artifact-1",
  "contractName": "MixinERC721Enumerable",
  "sourceName": "contracts/mixins/MixinERC721Enumerable.sol",
  "abi": [
    {
      "anonymous": false,
      "inputs": [
        {
          "indexed": true,
          "internalType": "address",
          "name": "owner",
          "type": "address"
        },
        {
          "indexed": true,
          "internalType": "address",
          "name": "approved",
          "type": "address"
        },
        {
          "indexed": true,
          "internalType": "uint256",
          "name": "tokenId",
          "type": "uint256"
        }
      ],
      "name": "Approval",
      "type": "event"
    },
    {
      "anonymous": false,
      "inputs": [
        {
          "indexed": true,
          "internalType": "address",
          "name": "owner",
          "type": "address"
        },
        {
          "indexed": true,
          "internalType": "address",
          "name": "operator",
          "type": "address"
        },
        {
          "indexed": false,
          "internalType": "bool",
          "name": "approved",
          "type": "bool"
        }
      ],
      "name": "ApprovalForAll",
      "type": "event"
    },
    {
      "anonymous": false,
      "inputs": [],
      "name": "Disable",
      "type": "event"
    },
    {
      "anonymous": false,
      "inputs": [
        {
          "indexed": true,
          "internalType": "uint256",
          "name": "_tokenId",
          "type": "uint256"
        },
        {
          "indexed": false,
          "internalType": "uint256",
          "name": "_amount",
          "type": "uint256"
        },
        {
          "indexed": false,
          "internalType": "bool",
          "name": "_timeAdded",
          "type": "bool"
        }
      ],
      "name": "ExpirationChanged",
      "type": "event"
    },
    {
      "anonymous": false,
      "inputs": [
        {
          "indexed": true,
          "internalType": "uint256",
          "name": "tokenId",
          "type": "uint256"
        }
      ],
      "name": "ExpireKey",
      "type": "event"
    },
    {
      "anonymous": false,
      "inputs": [
        {
          "indexed": true,
          "internalType": "address",
          "name": "account",
          "type": "address"
        }
      ],
      "name": "KeyGranterAdded",
      "type": "event"
    },
    {
      "anonymous": false,
      "inputs": [
        {
          "indexed": true,
          "internalType": "address",
          "name": "account",
          "type": "address"
        }
      ],
      "name": "KeyGranterRemoved",
      "type": "event"
    },
    {
      "anonymous": false,
      "inputs": [
        {
          "indexed": true,
          "internalType": "uint256",
          "name": "_tokenId",
          "type": "uint256"
        },
        {
          "indexed": true,
          "internalType": "address",
          "name": "_newManager",
          "type": "address"
        }
      ],
      "name": "KeyManagerChanged",
      "type": "event"
    },
    {
      "anonymous": false,
      "inputs": [
        {
          "indexed": true,
          "internalType": "address",
          "name": "account",
          "type": "address"
        }
      ],
      "name": "LockManagerAdded",
      "type": "event"
    },
    {
      "anonymous": false,
      "inputs": [
        {
          "indexed": true,
          "internalType": "address",
          "name": "account",
          "type": "address"
        }
      ],
      "name": "LockManagerRemoved",
      "type": "event"
    },
    {
      "anonymous": false,
      "inputs": [
        {
          "indexed": false,
          "internalType": "uint256",
          "name": "oldKeyPrice",
          "type": "uint256"
        },
        {
          "indexed": false,
          "internalType": "uint256",
          "name": "keyPrice",
          "type": "uint256"
        },
        {
          "indexed": false,
          "internalType": "address",
          "name": "oldTokenAddress",
          "type": "address"
        },
        {
          "indexed": false,
          "internalType": "address",
          "name": "tokenAddress",
          "type": "address"
        }
      ],
      "name": "PricingChanged",
      "type": "event"
    },
    {
      "anonymous": false,
      "inputs": [
        {
          "indexed": true,
          "internalType": "bytes32",
          "name": "role",
          "type": "bytes32"
        },
        {
          "indexed": true,
          "internalType": "bytes32",
          "name": "previousAdminRole",
          "type": "bytes32"
        },
        {
          "indexed": true,
          "internalType": "bytes32",
          "name": "newAdminRole",
          "type": "bytes32"
        }
      ],
      "name": "RoleAdminChanged",
      "type": "event"
    },
    {
      "anonymous": false,
      "inputs": [
        {
          "indexed": true,
          "internalType": "bytes32",
          "name": "role",
          "type": "bytes32"
        },
        {
          "indexed": true,
          "internalType": "address",
          "name": "account",
          "type": "address"
        },
        {
          "indexed": true,
          "internalType": "address",
          "name": "sender",
          "type": "address"
        }
      ],
      "name": "RoleGranted",
      "type": "event"
    },
    {
      "anonymous": false,
      "inputs": [
        {
          "indexed": true,
          "internalType": "bytes32",
          "name": "role",
          "type": "bytes32"
        },
        {
          "indexed": true,
          "internalType": "address",
          "name": "account",
          "type": "address"
        },
        {
          "indexed": true,
          "internalType": "address",
          "name": "sender",
          "type": "address"
        }
      ],
      "name": "RoleRevoked",
      "type": "event"
    },
    {
      "anonymous": false,
      "inputs": [
        {
          "indexed": true,
          "internalType": "address",
          "name": "from",
          "type": "address"
        },
        {
          "indexed": true,
          "internalType": "address",
          "name": "to",
          "type": "address"
        },
        {
          "indexed": true,
          "internalType": "uint256",
          "name": "tokenId",
          "type": "uint256"
        }
      ],
      "name": "Transfer",
      "type": "event"
    },
    {
      "anonymous": false,
      "inputs": [
        {
          "indexed": true,
          "internalType": "address",
          "name": "sender",
          "type": "address"
        },
        {
          "indexed": true,
          "internalType": "address",
          "name": "tokenAddress",
          "type": "address"
        },
        {
          "indexed": true,
          "internalType": "address",
          "name": "beneficiary",
          "type": "address"
        },
        {
          "indexed": false,
          "internalType": "uint256",
          "name": "amount",
          "type": "uint256"
        }
      ],
      "name": "Withdrawal",
      "type": "event"
    },
    {
      "inputs": [],
      "name": "DEFAULT_ADMIN_ROLE",
      "outputs": [
        {
          "internalType": "bytes32",
          "name": "",
          "type": "bytes32"
        }
      ],
      "stateMutability": "view",
      "type": "function"
    },
    {
      "inputs": [],
      "name": "KEY_GRANTER_ROLE",
      "outputs": [
        {
          "internalType": "bytes32",
          "name": "",
          "type": "bytes32"
        }
      ],
      "stateMutability": "view",
      "type": "function"
    },
    {
      "inputs": [],
      "name": "LOCK_MANAGER_ROLE",
      "outputs": [
        {
          "internalType": "bytes32",
          "name": "",
          "type": "bytes32"
        }
      ],
      "stateMutability": "view",
      "type": "function"
    },
    {
      "inputs": [
        {
          "internalType": "address",
          "name": "account",
          "type": "address"
        }
      ],
      "name": "addKeyGranter",
      "outputs": [],
      "stateMutability": "nonpayable",
      "type": "function"
    },
    {
      "inputs": [
        {
          "internalType": "address",
          "name": "account",
          "type": "address"
        }
      ],
      "name": "addLockManager",
      "outputs": [],
      "stateMutability": "nonpayable",
      "type": "function"
    },
    {
      "inputs": [
        {
          "internalType": "address",
          "name": "_approved",
          "type": "address"
        },
        {
          "internalType": "uint256",
          "name": "_tokenId",
          "type": "uint256"
        }
      ],
      "name": "approve",
      "outputs": [],
      "stateMutability": "nonpayable",
      "type": "function"
    },
    {
      "inputs": [
        {
          "internalType": "address",
          "name": "_spender",
          "type": "address"
        },
        {
          "internalType": "uint256",
          "name": "_amount",
          "type": "uint256"
        }
      ],
      "name": "approveBeneficiary",
      "outputs": [
        {
          "internalType": "bool",
          "name": "",
          "type": "bool"
        }
      ],
      "stateMutability": "nonpayable",
      "type": "function"
    },
    {
      "inputs": [
        {
          "internalType": "address",
          "name": "_keyOwner",
          "type": "address"
        }
      ],
      "name": "balanceOf",
      "outputs": [
        {
          "internalType": "uint256",
          "name": "",
          "type": "uint256"
        }
      ],
      "stateMutability": "view",
      "type": "function"
    },
    {
      "inputs": [],
      "name": "beneficiary",
      "outputs": [
        {
          "internalType": "address payable",
          "name": "",
          "type": "address"
        }
      ],
      "stateMutability": "view",
      "type": "function"
    },
    {
      "inputs": [],
      "name": "disableLock",
      "outputs": [],
      "stateMutability": "nonpayable",
      "type": "function"
    },
    {
      "inputs": [],
      "name": "expirationDuration",
      "outputs": [
        {
          "internalType": "uint256",
          "name": "",
          "type": "uint256"
        }
      ],
      "stateMutability": "view",
      "type": "function"
    },
    {
      "inputs": [
        {
          "internalType": "uint256",
          "name": "_tokenId",
          "type": "uint256"
        }
      ],
      "name": "getApproved",
      "outputs": [
        {
          "internalType": "address",
          "name": "",
          "type": "address"
        }
      ],
      "stateMutability": "view",
      "type": "function"
    },
    {
      "inputs": [
        {
          "internalType": "address",
          "name": "_keyOwner",
          "type": "address"
        }
      ],
      "name": "getHasValidKey",
      "outputs": [
        {
          "internalType": "bool",
          "name": "",
          "type": "bool"
        }
      ],
      "stateMutability": "view",
      "type": "function"
    },
    {
      "inputs": [
        {
          "internalType": "bytes32",
          "name": "role",
          "type": "bytes32"
        }
      ],
      "name": "getRoleAdmin",
      "outputs": [
        {
          "internalType": "bytes32",
          "name": "",
          "type": "bytes32"
        }
      ],
      "stateMutability": "view",
      "type": "function"
    },
    {
      "inputs": [
        {
          "internalType": "address",
          "name": "_account",
          "type": "address"
        }
      ],
      "name": "getTokenIdFor",
      "outputs": [
        {
          "internalType": "uint256",
          "name": "",
          "type": "uint256"
        }
      ],
      "stateMutability": "view",
      "type": "function"
    },
    {
      "inputs": [
        {
          "internalType": "bytes32",
          "name": "role",
          "type": "bytes32"
        },
        {
          "internalType": "address",
          "name": "account",
          "type": "address"
        }
      ],
      "name": "grantRole",
      "outputs": [],
      "stateMutability": "nonpayable",
      "type": "function"
    },
    {
      "inputs": [
        {
          "internalType": "bytes32",
          "name": "role",
          "type": "bytes32"
        },
        {
          "internalType": "address",
          "name": "account",
          "type": "address"
        }
      ],
      "name": "hasRole",
      "outputs": [
        {
          "internalType": "bool",
          "name": "",
          "type": "bool"
        }
      ],
      "stateMutability": "view",
      "type": "function"
    },
    {
      "inputs": [],
      "name": "isAlive",
      "outputs": [
        {
          "internalType": "bool",
          "name": "",
          "type": "bool"
        }
      ],
      "stateMutability": "view",
      "type": "function"
    },
    {
      "inputs": [
        {
          "internalType": "address",
          "name": "_owner",
          "type": "address"
        },
        {
          "internalType": "address",
          "name": "_operator",
          "type": "address"
        }
      ],
      "name": "isApprovedForAll",
      "outputs": [
        {
          "internalType": "bool",
          "name": "",
          "type": "bool"
        }
      ],
      "stateMutability": "view",
      "type": "function"
    },
    {
      "inputs": [
        {
          "internalType": "address",
          "name": "account",
          "type": "address"
        }
      ],
      "name": "isKeyGranter",
      "outputs": [
        {
          "internalType": "bool",
          "name": "",
          "type": "bool"
        }
      ],
      "stateMutability": "view",
      "type": "function"
    },
    {
      "inputs": [
        {
          "internalType": "address",
          "name": "account",
          "type": "address"
        }
      ],
      "name": "isLockManager",
      "outputs": [
        {
          "internalType": "bool",
          "name": "",
          "type": "bool"
        }
      ],
      "stateMutability": "view",
      "type": "function"
    },
    {
      "inputs": [
        {
          "internalType": "address",
          "name": "_keyOwner",
          "type": "address"
        }
      ],
      "name": "keyExpirationTimestampFor",
      "outputs": [
        {
          "internalType": "uint256",
          "name": "",
          "type": "uint256"
        }
      ],
      "stateMutability": "view",
      "type": "function"
    },
    {
      "inputs": [
        {
          "internalType": "uint256",
          "name": "",
          "type": "uint256"
        }
      ],
      "name": "keyManagerOf",
      "outputs": [
        {
          "internalType": "address",
          "name": "",
          "type": "address"
        }
      ],
      "stateMutability": "view",
      "type": "function"
    },
    {
      "inputs": [],
      "name": "keyPrice",
      "outputs": [
        {
          "internalType": "uint256",
          "name": "",
          "type": "uint256"
        }
      ],
      "stateMutability": "view",
      "type": "function"
    },
    {
      "inputs": [],
      "name": "maxNumberOfKeys",
      "outputs": [
        {
          "internalType": "uint256",
          "name": "",
          "type": "uint256"
        }
      ],
      "stateMutability": "view",
      "type": "function"
    },
    {
      "inputs": [],
      "name": "numberOfOwners",
      "outputs": [
        {
          "internalType": "uint256",
          "name": "",
          "type": "uint256"
        }
      ],
      "stateMutability": "view",
      "type": "function"
    },
    {
      "inputs": [],
      "name": "onKeyCancelHook",
      "outputs": [
        {
          "internalType": "contract ILockKeyCancelHook",
          "name": "",
          "type": "address"
        }
      ],
      "stateMutability": "view",
      "type": "function"
    },
    {
      "inputs": [],
      "name": "onKeyPurchaseHook",
      "outputs": [
        {
          "internalType": "contract ILockKeyPurchaseHook",
          "name": "",
          "type": "address"
        }
      ],
      "stateMutability": "view",
      "type": "function"
    },
    {
      "inputs": [
        {
          "internalType": "uint256",
          "name": "_tokenId",
          "type": "uint256"
        }
      ],
      "name": "ownerOf",
      "outputs": [
        {
          "internalType": "address",
          "name": "",
          "type": "address"
        }
      ],
      "stateMutability": "view",
      "type": "function"
    },
    {
      "inputs": [
        {
          "internalType": "uint256",
          "name": "",
          "type": "uint256"
        }
      ],
      "name": "owners",
      "outputs": [
        {
          "internalType": "address",
          "name": "",
          "type": "address"
        }
      ],
      "stateMutability": "view",
      "type": "function"
    },
    {
      "inputs": [],
      "name": "publicLockVersion",
      "outputs": [
        {
          "internalType": "uint16",
          "name": "",
          "type": "uint16"
        }
      ],
      "stateMutability": "pure",
      "type": "function"
    },
    {
      "inputs": [],
      "name": "renounceLockManager",
      "outputs": [],
      "stateMutability": "nonpayable",
      "type": "function"
    },
    {
      "inputs": [
        {
          "internalType": "bytes32",
          "name": "role",
          "type": "bytes32"
        },
        {
          "internalType": "address",
          "name": "account",
          "type": "address"
        }
      ],
      "name": "renounceRole",
      "outputs": [],
      "stateMutability": "nonpayable",
      "type": "function"
    },
    {
      "inputs": [
        {
          "internalType": "address",
          "name": "_granter",
          "type": "address"
        }
      ],
      "name": "revokeKeyGranter",
      "outputs": [],
      "stateMutability": "nonpayable",
      "type": "function"
    },
    {
      "inputs": [
        {
          "internalType": "bytes32",
          "name": "role",
          "type": "bytes32"
        },
        {
          "internalType": "address",
          "name": "account",
          "type": "address"
        }
      ],
      "name": "revokeRole",
      "outputs": [],
      "stateMutability": "nonpayable",
      "type": "function"
    },
    {
      "inputs": [
        {
          "internalType": "address",
          "name": "_to",
          "type": "address"
        },
        {
          "internalType": "bool",
          "name": "_approved",
          "type": "bool"
        }
      ],
      "name": "setApprovalForAll",
      "outputs": [],
      "stateMutability": "nonpayable",
      "type": "function"
    },
    {
      "inputs": [
        {
          "internalType": "address",
          "name": "_onKeyPurchaseHook",
          "type": "address"
        },
        {
          "internalType": "address",
          "name": "_onKeyCancelHook",
          "type": "address"
        }
      ],
      "name": "setEventHooks",
      "outputs": [],
      "stateMutability": "nonpayable",
      "type": "function"
    },
    {
      "inputs": [
        {
          "internalType": "uint256",
          "name": "_tokenId",
          "type": "uint256"
        },
        {
          "internalType": "address",
          "name": "_keyManager",
          "type": "address"
        }
      ],
      "name": "setKeyManagerOf",
      "outputs": [],
      "stateMutability": "nonpayable",
      "type": "function"
    },
    {
      "inputs": [
        {
          "internalType": "bytes4",
          "name": "interfaceId",
          "type": "bytes4"
        }
      ],
      "name": "supportsInterface",
      "outputs": [
        {
          "internalType": "bool",
          "name": "",
          "type": "bool"
        }
      ],
      "stateMutability": "view",
      "type": "function"
    },
    {
      "inputs": [],
      "name": "tokenAddress",
      "outputs": [
        {
          "internalType": "address",
          "name": "",
          "type": "address"
        }
      ],
      "stateMutability": "view",
      "type": "function"
    },
    {
      "inputs": [
        {
          "internalType": "uint256",
          "name": "_index",
          "type": "uint256"
        }
      ],
      "name": "tokenByIndex",
      "outputs": [
        {
          "internalType": "uint256",
          "name": "",
          "type": "uint256"
        }
      ],
      "stateMutability": "view",
      "type": "function"
    },
    {
      "inputs": [
        {
          "internalType": "address",
          "name": "_keyOwner",
          "type": "address"
        },
        {
          "internalType": "uint256",
          "name": "_index",
          "type": "uint256"
        }
      ],
      "name": "tokenOfOwnerByIndex",
      "outputs": [
        {
          "internalType": "uint256",
          "name": "",
          "type": "uint256"
        }
      ],
      "stateMutability": "view",
      "type": "function"
    },
    {
      "inputs": [],
      "name": "totalSupply",
      "outputs": [
        {
          "internalType": "uint256",
          "name": "",
          "type": "uint256"
        }
      ],
      "stateMutability": "view",
      "type": "function"
    },
    {
      "inputs": [],
      "name": "unlockProtocol",
      "outputs": [
        {
          "internalType": "contract IUnlock",
          "name": "",
          "type": "address"
        }
      ],
      "stateMutability": "view",
      "type": "function"
    },
    {
      "inputs": [
        {
          "internalType": "address payable",
          "name": "_beneficiary",
          "type": "address"
        }
      ],
      "name": "updateBeneficiary",
      "outputs": [],
      "stateMutability": "nonpayable",
      "type": "function"
    },
    {
      "inputs": [
        {
          "internalType": "uint256",
          "name": "_keyPrice",
          "type": "uint256"
        },
        {
          "internalType": "address",
          "name": "_tokenAddress",
          "type": "address"
        }
      ],
      "name": "updateKeyPricing",
      "outputs": [],
      "stateMutability": "nonpayable",
      "type": "function"
    },
    {
      "inputs": [
        {
          "internalType": "address",
          "name": "_tokenAddress",
          "type": "address"
        },
        {
          "internalType": "uint256",
          "name": "_amount",
          "type": "uint256"
        }
      ],
      "name": "withdraw",
      "outputs": [],
      "stateMutability": "nonpayable",
      "type": "function"
    }
  ],
  "bytecode": "0x608060405234801561001057600080fd5b5061224e806100206000396000f3fe608060405234801561001057600080fd5b50600436106102955760003560e01c80636352211e11610167578063aae4b8f7116100ce578063d1bbd49c11610087578063d1bbd49c14610623578063d250348514610632578063d547741f14610645578063e985e9c514610658578063f0ba60401461066b578063f3fef3a31461067357600080fd5b8063aae4b8f7146105a3578063abdf82ce146105b6578063ad0e0a4d146105e2578063b11d7ec1146105f5578063b585a6d514610608578063c1c98d031461061b57600080fd5b806393fd18441161012057806393fd184414610531578063970aaeb7146105395780639d76ea5814610562578063a217fddf14610575578063a22cb4651461057d578063a2e4cd2e1461059057600080fd5b80636352211e146104965780636d8ea5b4146104bf57806370a08231146104ed57806374b6c106146105005780638ca2fbad1461050957806391d148541461051e57600080fd5b8063248a9ca31161020b57806338af3eed116101c457806338af3eed1461040d5780634136aa35146104205780634d025fed146104345780634f6ccce71461045d57806352b0f63814610470578063564aa99d1461048357600080fd5b8063248a9ca31461038b5780632af9162a146103ae5780632d33dd5b146103c15780632f2ff15d146103d45780632f745c59146103e757806336568abe146103fa57600080fd5b80630f15023b1161025d5780630f15023b1461032857806310e569731461033b57806311a4c03a1461035257806318160ddd1461035b578063217751bc14610363578063231005091461037657600080fd5b806301ffc9a71461029a578063025e7c27146102c2578063081812fc146102ed578063095ea7b3146103005780630aaffd2a14610315575b600080fd5b6102ad6102a8366004611fa3565b610686565b60405190151581526020015b60405180910390f35b6102d56102d0366004611f67565b610697565b6040516001600160a01b0390911681526020016102b9565b6102d56102fb366004611f67565b6106c1565b61031361030e366004611f20565b610737565b005b610313610323366004611e9f565b6108b0565b60ca546102d5906001600160a01b031681565b61034460cc5481565b6040519081526020016102b9565b61034460cb5481565b60ce54610344565b60d1546102d5906001600160a01b031681565b6103446000805160206121d983398151915281565b610344610399366004611f67565b60009081526097602052604090206001015490565b6103136103bc366004611e9f565b610983565b60d0546102d5906001600160a01b031681565b6103136103e2366004611f7f565b610a06565b6103446103f5366004611f20565b610a31565b610313610408366004611f7f565b610a9b565b60cf546102d5906001600160a01b031681565b60c9546102ad90600160a01b900460ff1681565b6102d5610442366004611f67565b60d5602052600090815260409020546001600160a01b031681565b61034461046b366004611f67565b610b19565b6102ad61047e366004611e9f565b610b5f565b610313610491366004611e9f565b610b79565b6102d56104a4366004611f67565b600090815260d360205260409020546001600160a01b031690565b6102ad6104cd366004611e9f565b6001600160a01b0316600090815260d26020526040902060010154421090565b6103446104fb366004611e9f565b610bfc565b61034460cd5481565b6103446000805160206121f983398151915281565b6102ad61052c366004611f7f565b610c7b565b60d454610344565b610344610547366004611e9f565b6001600160a01b0316600090815260d2602052604090205490565b60c9546102d5906001600160a01b031681565b610344600081565b61031361058b366004611ef3565b610ca6565b61031361059e366004611f7f565b610d83565b6102ad6105b1366004611e9f565b610f1d565b6103446105c4366004611e9f565b6001600160a01b0316600090815260d2602052604090206001015490565b6103136105f0366004611ebb565b610f37565b610313610603366004611f7f565b61106f565b6102ad610616366004611f20565b611132565b610313611224565b604051600981526020016102b9565b610313610640366004611e9f565b6112b9565b610313610653366004611f7f565b61133c565b6102ad610666366004611ebb565b611362565b6103136113f7565b610313610681366004611f20565b61143c565b6000610691826115fc565b92915050565b60d481815481106106a757600080fd5b6000918252602090912001546001600160a01b0316905081565b600081815260d3602052604081205482906001600160a01b031661071a5760405162461bcd60e51b815260206004820152600b60248201526a4e4f5f535543485f4b455960a81b60448201526064015b60405180910390fd5b5050600090815260d660205260409020546001600160a01b031690565b60c954600160a01b900460ff166107605760405162461bcd60e51b8152600401610711906120fc565b8061076b8133611621565b8061078c5750600081815260d660205260409020546001600160a01b031633145b806107b45750600081815260d360205260409020546107b4906001600160a01b031633611362565b6108005760405162461bcd60e51b815260206004820152601c60248201527f4f4e4c595f4b45595f4d414e414745525f4f525f415050524f564544000000006044820152606401610711565b336001600160a01b03841614156108485760405162461bcd60e51b815260206004820152600c60248201526b20a8282927ab22afa9a2a62360a11b6044820152606401610711565b600082815260d66020908152604080832080546001600160a01b0319166001600160a01b0388811691821790925560d3909352818420549151869492909116917f8c5be1e5ebec7d5bd14f71427d1e84f3dd0314c0f7b2291e5b200ac8c7c3b92591a4505050565b60cf546001600160a01b03163314806108cd57506108cd33610f1d565b6109195760405162461bcd60e51b815260206004820152601f60248201527f4f4e4c595f42454e45464943494152595f4f525f4c4f434b4d414e41474552006044820152606401610711565b6001600160a01b0381166109615760405162461bcd60e51b815260206004820152600f60248201526e494e56414c49445f4144445245535360881b6044820152606401610711565b60cf80546001600160a01b0319166001600160a01b0392909216919091179055565b61099b6000805160206121f983398151915233610c7b565b6109b75760405162461bcd60e51b8152600401610711906120a7565b6109cf6000805160206121d98339815191528261133c565b6040516001600160a01b038216907f766f6199fea59554b9ff688e413302b9200f85d74811c053c12d945ac6d8dd7a90600090a250565b600082815260976020526040902060010154610a228133611697565b610a2c83836116fb565b505050565b60008115610a7a5760405162461bcd60e51b815260206004820152601660248201527527a7262cafa7a722afa5a2acafa822a92fa7aba722a960511b6044820152606401610711565b6001600160a01b038316600090815260d260205260409020545b9392505050565b6001600160a01b0381163314610b0b5760405162461bcd60e51b815260206004820152602f60248201527f416363657373436f6e74726f6c3a2063616e206f6e6c792072656e6f756e636560448201526e103937b632b9903337b91039b2b63360891b6064820152608401610711565b610b158282611781565b5050565b600060ce548210610b5b5760405162461bcd60e51b815260206004820152600c60248201526b4f55545f4f465f52414e474560a01b6044820152606401610711565b5090565b60006106916000805160206121d983398151915283610c7b565b610b916000805160206121f983398151915233610c7b565b610bad5760405162461bcd60e51b8152600401610711906120a7565b610bc56000805160206121d983398151915282610a06565b6040516001600160a01b038216907f684f8a71407db0c334454ebe9c9b288549317893a20b10dc779ec5c118dcd12190600090a250565b60006001600160a01b038216610c465760405162461bcd60e51b815260206004820152600f60248201526e494e56414c49445f4144445245535360881b6044820152606401610711565b6001600160a01b038216600090815260d260205260409020600101544210610c6f576000610c72565b60015b60ff1692915050565b60009182526097602090815260408084206001600160a01b0393909316845291905290205460ff1690565b60c954600160a01b900460ff16610ccf5760405162461bcd60e51b8152600401610711906120fc565b6001600160a01b038216331415610d175760405162461bcd60e51b815260206004820152600c60248201526b20a8282927ab22afa9a2a62360a11b6044820152606401610711565b33600081815260d7602090815260408083206001600160a01b03871680855290835292819020805460ff191686151590811790915590519081529192917f17307eab39ab6107e8899845ad3d59bd9653f200f220920489ca2b5937696c31910160405180910390a35050565b610d9b6000805160206121f983398151915233610c7b565b610db75760405162461bcd60e51b8152600401610711906120a7565b60c954600160a01b900460ff16610de05760405162461bcd60e51b8152600401610711906120fc565b60cc5460c9546001600160a01b039081169083161580610e7057506000836001600160a01b03166318160ddd6040518163ffffffff1660e01b815260040160206040518083038186803b158015610e3657600080fd5b505afa158015610e4a573d6000803e3d6000fd5b505050506040513d601f19601f82011682018060405250810190610e6e9190611fcb565b115b610eac5760405162461bcd60e51b815260206004820152600d60248201526c24a72b20a624a22faa27a5a2a760991b6044820152606401610711565b60cc84905560c980546001600160a01b0319166001600160a01b0385811691821790925560408051858152602081018890529284169083015260608201527f3615065ccf48367ac483ac86701248e2e5ff55bdd9be845007d34a3b68d719d49060800160405180910390a150505050565b60006106916000805160206121f983398151915283610c7b565b610f4f6000805160206121f983398151915233610c7b565b610f6b5760405162461bcd60e51b8152600401610711906120a7565b6001600160a01b0382161580610f8a57506001600160a01b0382163b15155b610fd65760405162461bcd60e51b815260206004820152601860248201527f494e56414c49445f4f4e5f4b45595f534f4c445f484f4f4b00000000000000006044820152606401610711565b6001600160a01b0381161580610ff557506001600160a01b0381163b15155b6110415760405162461bcd60e51b815260206004820152601a60248201527f494e56414c49445f4f4e5f4b45595f43414e43454c5f484f4f4b0000000000006044820152606401610711565b60d080546001600160a01b039384166001600160a01b03199182161790915560d18054929093169116179055565b600082815260d3602052604090205482906001600160a01b03166110c35760405162461bcd60e51b815260206004820152600b60248201526a4e4f5f535543485f4b455960a81b6044820152606401610711565b6110cd8333611621565b806110dc57506110dc33610f1d565b6111285760405162461bcd60e51b815260206004820152601f60248201527f554e415554484f52495a45445f4b45595f4d414e414745525f555044415445006044820152606401610711565b610a2c83836117e8565b600061113d33610f1d565b80611152575060cf546001600160a01b031633145b61119e5760405162461bcd60e51b815260206004820181905260248201527f4f4e4c595f4c4f434b5f4d414e414745525f4f525f42454e45464943494152596044820152606401610711565b60c95460405163095ea7b360e01b81526001600160a01b038581166004830152602482018590529091169063095ea7b390604401602060405180830381600087803b1580156111ec57600080fd5b505af1158015611200573d6000803e3d6000fd5b505050506040513d601f19601f82011682018060405250810190610a949190611f4b565b61123c6000805160206121f983398151915233610c7b565b6112585760405162461bcd60e51b8152600401610711906120a7565b60c954600160a01b900460ff166112815760405162461bcd60e51b8152600401610711906120fc565b6040517f25a311358326fb18c62efc24bc28d3126acee8d2a67fd8b2145b757dc8bd1bc190600090a160c9805460ff60a01b19169055565b6112d16000805160206121f983398151915233610c7b565b6112ed5760405162461bcd60e51b8152600401610711906120a7565b6113056000805160206121f983398151915282610a06565b6040516001600160a01b038216907f91d5c045d5bd98bf59a379b259ebca05b93bf79af1845fdf87e3172385d4c7f790600090a250565b6000828152609760205260409020600101546113588133611697565b610a2c8383611781565b6001600160a01b03808316600090815260d2602090815260408083205480845260d59092528220549192909116806113c5575050506001600160a01b03808316600090815260d7602090815260408083209385168352929052205460ff16610691565b6001600160a01b03908116600090815260d7602090815260408083209387168352929052205460ff1691506106919050565b61140f6000805160206121f983398151915233610a9b565b60405133907f42885193b8178d25fca25a38e6fcc93918501e91be06d85e0c8afb3bad95238090600090a2565b61144533610f1d565b8061145a575060cf546001600160a01b031633145b6114a65760405162461bcd60e51b815260206004820181905260248201527f4f4e4c595f4c4f434b5f4d414e414745525f4f525f42454e45464943494152596044820152606401610711565b60006001600160a01b0383166114bd575047611537565b6040516370a0823160e01b81523060048201526001600160a01b038416906370a082319060240160206040518083038186803b1580156114fc57600080fd5b505afa158015611510573d6000803e3d6000fd5b505050506040513d601f19601f820116820180604052508101906115349190611fcb565b90505b600082158061154557508183115b15611594576000821161158d5760405162461bcd60e51b815260206004820152601060248201526f4e4f545f454e4f5547485f46554e445360801b6044820152606401610711565b5080611597565b50815b60cf546040518281526001600160a01b039182169186169033907f342e7ff505a8a0364cd0dc2ff195c315e43bce86b204846ecd36913e117b109e9060200160405180910390a460cf546115f69085906001600160a01b03168361186a565b50505050565b60006001600160e01b03198216637965db0b60e01b14806106915750610691826118a6565b600082815260d560205260408120546001600160a01b03838116911614806116825750600083815260d560205260409020546001600160a01b03161580156116825750600083815260d360205260409020546001600160a01b038381169116145b1561168f57506001610691565b506000610691565b6116a18282610c7b565b610b15576116b9816001600160a01b031660146118e2565b6116c48360206118e2565b6040516020016116d5929190611fff565b60408051601f198184030181529082905262461bcd60e51b825261071191600401612074565b6117058282610c7b565b610b155760008281526097602090815260408083206001600160a01b03851684529091529020805460ff1916600117905561173d3390565b6001600160a01b0316816001600160a01b0316837f2f8788117e7eff1d82e926ec794901d17c78024a50270940304540a733656f0d60405160405180910390a45050565b61178b8282610c7b565b15610b155760008281526097602090815260408083206001600160a01b0385168085529252808320805460ff1916905551339285917ff6391f5c32d9c69d2a47ea670b442974b53935d1edc7fd64eb21e047a839171b9190a45050565b600082815260d560205260409020546001600160a01b03828116911614610b1557600082815260d56020526040902080546001600160a01b0319166001600160a01b03831617905561183982611ac4565b60405160009083907f9d2895c45a420624de863a2f437b022d879f457bf7a829044055a10c5a6fd5e3908390a35050565b8015610a2c576001600160a01b03831661189157610a2c6001600160a01b03831682611b01565b826115f66001600160a01b0382168484611c1a565b60006301ffc9a760e01b6001600160e01b0319831614806106915750506001600160e01b03191660009081526065602052604090205460ff1690565b606060006118f183600261213d565b6118fc906002612125565b67ffffffffffffffff81111561192257634e487b7160e01b600052604160045260246000fd5b6040519080825280601f01601f19166020018201604052801561194c576020820181803683370190505b509050600360fc1b8160008151811061197557634e487b7160e01b600052603260045260246000fd5b60200101906001600160f81b031916908160001a905350600f60fb1b816001815181106119b257634e487b7160e01b600052603260045260246000fd5b60200101906001600160f81b031916908160001a90535060006119d684600261213d565b6119e1906001612125565b90505b6001811115611a75576f181899199a1a9b1b9c1cb0b131b232b360811b85600f1660108110611a2357634e487b7160e01b600052603260045260246000fd5b1a60f81b828281518110611a4757634e487b7160e01b600052603260045260246000fd5b60200101906001600160f81b031916908160001a90535060049490941c93611a6e81612188565b90506119e4565b508315610a945760405162461bcd60e51b815260206004820181905260248201527f537472696e67733a20686578206c656e67746820696e73756666696369656e746044820152606401610711565b600081815260d660205260409020546001600160a01b031615611afe57600081815260d66020526040902080546001600160a01b03191690555b50565b80471015611b515760405162461bcd60e51b815260206004820152601d60248201527f416464726573733a20696e73756666696369656e742062616c616e63650000006044820152606401610711565b6000826001600160a01b03168260405160006040518083038185875af1925050503d8060008114611b9e576040519150601f19603f3d011682016040523d82523d6000602084013e611ba3565b606091505b5050905080610a2c5760405162461bcd60e51b815260206004820152603a60248201527f416464726573733a20756e61626c6520746f2073656e642076616c75652c207260448201527f6563697069656e74206d617920686176652072657665727465640000000000006064820152608401610711565b604080516001600160a01b03848116602483015260448083018590528351808403909101815260649092018352602080830180516001600160e01b031663a9059cbb60e01b17905283518085019094528084527f5361666545524332303a206c6f772d6c6576656c2063616c6c206661696c656490840152610a2c92869291600091611caa918516908490611d27565b805190915015610a2c5780806020019051810190611cc89190611f4b565b610a2c5760405162461bcd60e51b815260206004820152602a60248201527f5361666545524332303a204552433230206f7065726174696f6e20646964206e6044820152691bdd081cdd58d8d9595960b21b6064820152608401610711565b6060611d368484600085611d3e565b949350505050565b606082471015611d9f5760405162461bcd60e51b815260206004820152602660248201527f416464726573733a20696e73756666696369656e742062616c616e636520666f6044820152651c8818d85b1b60d21b6064820152608401610711565b843b611ded5760405162461bcd60e51b815260206004820152601d60248201527f416464726573733a2063616c6c20746f206e6f6e2d636f6e74726163740000006044820152606401610711565b600080866001600160a01b03168587604051611e099190611fe3565b60006040518083038185875af1925050503d8060008114611e46576040519150601f19603f3d011682016040523d82523d6000602084013e611e4b565b606091505b5091509150611e5b828286611e66565b979650505050505050565b60608315611e75575081610a94565b825115611e855782518084602001fd5b8160405162461bcd60e51b81526004016107119190612074565b600060208284031215611eb0578081fd5b8135610a94816121b5565b60008060408385031215611ecd578081fd5b8235611ed8816121b5565b91506020830135611ee8816121b5565b809150509250929050565b60008060408385031215611f05578182fd5b8235611f10816121b5565b91506020830135611ee8816121ca565b60008060408385031215611f32578182fd5b8235611f3d816121b5565b946020939093013593505050565b600060208284031215611f5c578081fd5b8151610a94816121ca565b600060208284031215611f78578081fd5b5035919050565b60008060408385031215611f91578182fd5b823591506020830135611ee8816121b5565b600060208284031215611fb4578081fd5b81356001600160e01b031981168114610a94578182fd5b600060208284031215611fdc578081fd5b5051919050565b60008251611ff581846020870161215c565b9190910192915050565b7f416363657373436f6e74726f6c3a206163636f756e742000000000000000000081526000835161203781601785016020880161215c565b7001034b99036b4b9b9b4b733903937b6329607d1b601791840191820152835161206881602884016020880161215c565b01602801949350505050565b602081526000825180602084015261209381604085016020870161215c565b601f01601f19169190910160400192915050565b60208082526035908201527f4d6978696e526f6c65733a2063616c6c657220646f6573206e6f74206861766560408201527420746865204c6f636b4d616e6167657220726f6c6560581b606082015260800190565b6020808252600f908201526e1313d0d2d7d11154149150d0551151608a1b604082015260600190565b600082198211156121385761213861219f565b500190565b60008160001904831182151516156121575761215761219f565b500290565b60005b8381101561217757818101518382015260200161215f565b838111156115f65750506000910152565b6000816121975761219761219f565b506000190190565b634e487b7160e01b600052601160045260246000fd5b6001600160a01b0381168114611afe57600080fd5b8015158114611afe57600080fdfeb309c40027c81d382c3b58d8de24207a34b27e1db369b1434e4a11311f154b5eb89cdd26cddd51301940bf2715f765b626b8a5a9e2681ac62dc83cc2db2530c0a2646970667358221220281a14f98941741200e8ac11c05263ec2f8b34f9fdd5b2db32ba49efc8df65a164736f6c63430008040033",
  "linkReferences": {},
  "deployedLinkReferences": {}
}