{"abi":[{"type":"function","name":"CONTRACT_GOVERNANCE_ROLE","inputs":[],"outputs":[{"name":"","type":"bytes32","internalType":"bytes32"}],"stateMutability":"view"},{"type":"function","name":"PAUSER_ROLE","inputs":[],"outputs":[{"name":"","type":"bytes32","internalType":"bytes32"}],"stateMutability":"view"},{"type":"function","name":"POLICY_OPERATIONS_ROLE","inputs":[],"outputs":[{"name":"","type":"bytes32","internalType":"bytes32"}],"stateMutability":"view"},{"type":"function","name":"UNPAUSER_ROLE","inputs":[],"outputs":[{"name":"","type":"bytes32","internalType":"bytes32"}],"stateMutability":"view"},{"type":"function","name":"__GlobalAccessControlManaged_init","inputs":[{"name":"_globalAccessControl","type":"address","internalType":"address"}],"outputs":[],"stateMutability":"nonpayable"},{"type":"function","name":"citadelToken","inputs":[],"outputs":[{"name":"","type":"address","internalType":"contract ICitadelToken"}],"stateMutability":"view"},{"type":"function","name":"fundingBps","inputs":[],"outputs":[{"name":"","type":"uint256","internalType":"uint256"}],"stateMutability":"view"},{"type":"function","name":"fundingPoolWeights","inputs":[{"name":"","type":"address","internalType":"address"}],"outputs":[{"name":"","type":"uint256","internalType":"uint256"}],"stateMutability":"view"},{"type":"function","name":"gac","inputs":[],"outputs":[{"name":"","type":"address","internalType":"contract IGac"}],"stateMutability":"view"},{"type":"function","name":"getFundingPoolWeights","inputs":[],"outputs":[{"name":"pools","type":"address[]","internalType":"address[]"},{"name":"weights","type":"uint256[]","internalType":"uint256[]"}],"stateMutability":"view"},{"type":"function","name":"initialize","inputs":[{"name":"_gac","type":"address","internalType":"address"},{"name":"_citadelToken","type":"address","internalType":"address"},{"name":"_xCitadel","type":"address","internalType":"address"},{"name":"_xCitadelLocker","type":"address","internalType":"address"},{"name":"_supplySchedule","type":"address","internalType":"address"}],"outputs":[],"stateMutability":"nonpayable"},{"type":"function","name":"initializeLastMintTimestamp","inputs":[],"outputs":[],"stateMutability":"nonpayable"},{"type":"function","name":"lastMintTimestamp","inputs":[],"outputs":[{"name":"","type":"uint256","internalType":"uint256"}],"stateMutability":"view"},{"type":"function","name":"lockingBps","inputs":[],"outputs":[{"name":"","type":"uint256","internalType":"uint256"}],"stateMutability":"view"},{"type":"function","name":"mintAndDistribute","inputs":[],"outputs":[],"stateMutability":"nonpayable"},{"type":"function","name":"pause","inputs":[],"outputs":[],"stateMutability":"nonpayable"},{"type":"function","name":"paused","inputs":[],"outputs":[{"name":"","type":"bool","internalType":"bool"}],"stateMutability":"view"},{"type":"function","name":"setCitadelDistributionSplit","inputs":[{"name":"_fundingBps","type":"uint256","internalType":"uint256"},{"name":"_stakingBps","type":"uint256","internalType":"uint256"},{"name":"_lockingBps","type":"uint256","internalType":"uint256"}],"outputs":[],"stateMutability":"nonpayable"},{"type":"function","name":"setFundingPoolWeight","inputs":[{"name":"_pool","type":"address","internalType":"address"},{"name":"_weight","type":"uint256","internalType":"uint256"}],"outputs":[],"stateMutability":"nonpayable"},{"type":"function","name":"stakingBps","inputs":[],"outputs":[{"name":"","type":"uint256","internalType":"uint256"}],"stateMutability":"view"},{"type":"function","name":"supplySchedule","inputs":[],"outputs":[{"name":"","type":"address","internalType":"contract ISupplySchedule"}],"stateMutability":"view"},{"type":"function","name":"totalFundingPoolWeight","inputs":[],"outputs":[{"name":"","type":"uint256","internalType":"uint256"}],"stateMutability":"view"},{"type":"function","name":"unpause","inputs":[],"outputs":[],"stateMutability":"nonpayable"},{"type":"function","name":"xCitadel","inputs":[],"outputs":[{"name":"","type":"address","internalType":"contract IVault"}],"stateMutability":"view"},{"type":"function","name":"xCitadelLocker","inputs":[],"outputs":[{"name":"","type":"address","internalType":"contract IStakedCitadelLocker"}],"stateMutability":"view"},{"type":"event","name":"CitadelDistribution","inputs":[{"name":"fundingAmount","type":"uint256","indexed":false,"internalType":"uint256"},{"name":"stakingAmount","type":"uint256","indexed":false,"internalType":"uint256"},{"name":"lockingAmount","type":"uint256","indexed":false,"internalType":"uint256"}],"anonymous":false},{"type":"event","name":"CitadelDistributionSplitSet","inputs":[{"name":"fundingBps","type":"uint256","indexed":false,"internalType":"uint256"},{"name":"stakingBps","type":"uint256","indexed":false,"internalType":"uint256"},{"name":"lockingBps","type":"uint256","indexed":false,"internalType":"uint256"}],"anonymous":false},{"type":"event","name":"CitadelDistributionToFunding","inputs":[{"name":"startTime","type":"uint256","indexed":false,"internalType":"uint256"},{"name":"endTime","type":"uint256","indexed":false,"internalType":"uint256"},{"name":"citadelAmount","type":"uint256","indexed":false,"internalType":"uint256"}],"anonymous":false},{"type":"event","name":"CitadelDistributionToFundingPool","inputs":[{"name":"startTime","type":"uint256","indexed":false,"internalType":"uint256"},{"name":"endTime","type":"uint256","indexed":false,"internalType":"uint256"},{"name":"pool","type":"address","indexed":false,"internalType":"address"},{"name":"citadelAmount","type":"uint256","indexed":false,"internalType":"uint256"}],"anonymous":false},{"type":"event","name":"CitadelDistributionToLocking","inputs":[{"name":"startTime","type":"uint256","indexed":false,"internalType":"uint256"},{"name":"endTime","type":"uint256","indexed":false,"internalType":"uint256"},{"name":"citadelAmount","type":"uint256","indexed":false,"internalType":"uint256"},{"name":"xCitadelAmount","type":"uint256","indexed":false,"internalType":"uint256"}],"anonymous":false},{"type":"event","name":"CitadelDistributionToStaking","inputs":[{"name":"startTime","type":"uint256","indexed":false,"internalType":"uint256"},{"name":"endTime","type":"uint256","indexed":false,"internalType":"uint256"},{"name":"citadelAmount","type":"uint256","indexed":false,"internalType":"uint256"}],"anonymous":false},{"type":"event","name":"FundingPoolWeightSet","inputs":[{"name":"pool","type":"address","indexed":false,"internalType":"address"},{"name":"weight","type":"uint256","indexed":false,"internalType":"uint256"},{"name":"totalFundingPoolWeight","type":"uint256","indexed":false,"internalType":"uint256"}],"anonymous":false},{"type":"event","name":"Paused","inputs":[{"name":"account","type":"address","indexed":false,"internalType":"address"}],"anonymous":false},{"type":"event","name":"Unpaused","inputs":[{"name":"account","type":"address","indexed":false,"internalType":"address"}],"anonymous":false}],"bytecode":{"object":"0x608060405234801561001057600080fd5b506142e7806100206000396000f3fe608060405234801561001057600080fd5b50600436106101735760003560e01c80635c975abb116100de578063d5f5db1711610097578063e8b2436811610071578063e8b24368146103aa578063ebceecb1146103c6578063f4e79fc3146103e5578063fb1bb9de1461040357610173565b8063d5f5db1714610352578063e16314b51461036e578063e63ab1e91461038c57610173565b80635c975abb146102a25780637a3dbd6a146102c05780638456cb59146102dc5780638e80ff5d146102e6578063c0af7e2214610304578063c40dd66f1461033457610173565b80633221ac81116101305780633221ac81146102025780633392c7061461022057806333b9000d1461023e5780633f4ba83a1461025c5780633f9adcf9146102665780634ab1a53f1461028457610173565b8063016faaca146101785780630b0cca89146101825780630c1370c8146101a05780630f6df8b4146101be5780631459457a146101dc578063150f95c4146101f8575b600080fd5b610180610421565b005b61018a610761565b6040516101979190612d53565b60405180910390f35b6101a8610785565b6040516101b59190612d87565b60405180910390f35b6101c661078b565b6040516101d39190612e21565b60405180910390f35b6101f660048036038101906101f19190612e7f565b6107b1565b005b610200610c75565b005b61020a611424565b6040516102179190612d87565b60405180910390f35b61022861142a565b6040516102359190612d53565b60405180910390f35b61024661144e565b6040516102539190612f1b565b60405180910390f35b610264611474565b005b61026e611545565b60405161027b9190612d87565b60405180910390f35b61028c61154b565b6040516102999190612f57565b60405180910390f35b6102aa611571565b6040516102b79190612f8d565b60405180910390f35b6102da60048036038101906102d59190612fa8565b611588565b005b6102e4611623565b005b6102ee6116f4565b6040516102fb9190612d87565b60405180910390f35b61031e60048036038101906103199190612fa8565b6116fa565b60405161032b9190612d87565b60405180910390f35b61033c611712565b6040516103499190612ff6565b60405180910390f35b61036c6004803603810190610367919061303d565b611738565b005b610376611a55565b6040516103839190612d87565b60405180910390f35b610394611a5b565b6040516103a19190612d53565b60405180910390f35b6103c460048036038101906103bf9190613090565b611a7f565b005b6103ce611f1f565b6040516103dc92919061324c565b60405180910390f35b6103ed6120b6565b6040516103fa91906132a4565b60405180910390f35b61040b6120dc565b6040516104189190612d53565b60405180910390f35b7f32522ae3fcc93c551ea7d30f39aaf5cf6e316c65a500706f77e9ecdd09ee1136606560009054906101000a900473ffffffffffffffffffffffffffffffffffffffff1673ffffffffffffffffffffffffffffffffffffffff166391d1485482336040518363ffffffff1660e01b815260040161049f9291906132ce565b602060405180830381865afa1580156104bc573d6000803e3d6000fd5b505050506040513d601f19601f820116820180604052508101906104e09190613323565b61051f576040517f08c379a0000000000000000000000000000000000000000000000000000000008152600401610516906133ad565b60405180910390fd5b606560009054906101000a900473ffffffffffffffffffffffffffffffffffffffff1673ffffffffffffffffffffffffffffffffffffffff16635c975abb6040518163ffffffff1660e01b8152600401602060405180830381865afa15801561058c573d6000803e3d6000fd5b505050506040513d601f19601f820116820180604052508101906105b09190613323565b156105f0576040517f08c379a00000000000000000000000000000000000000000000000000000000081526004016105e790613419565b60405180910390fd5b6105f8611571565b15610638576040517f08c379a000000000000000000000000000000000000000000000000000000000815260040161062f90613485565b60405180910390fd5b6000609c541461067d576040517f08c379a000000000000000000000000000000000000000000000000000000000815260040161067490613517565b60405180910390fd5b6000609b60009054906101000a900473ffffffffffffffffffffffffffffffffffffffff1673ffffffffffffffffffffffffffffffffffffffff16630f78be186040518163ffffffff1660e01b8152600401602060405180830381865afa1580156106ec573d6000803e3d6000fd5b505050506040513d601f19601f82011682018060405250810190610710919061354c565b90506000811415610756576040517f08c379a000000000000000000000000000000000000000000000000000000000815260040161074d906135eb565b60405180910390fd5b80609c819055505050565b7f32522ae3fcc93c551ea7d30f39aaf5cf6e316c65a500706f77e9ecdd09ee113681565b60a35481565b609960009054906101000a900473ffffffffffffffffffffffffffffffffffffffff1681565b600060019054906101000a900460ff166107d95760008054906101000a900460ff16156107e2565b6107e1612100565b5b610821576040517f08c379a00000000000000000000000000000000000000000000000000000000081526004016108189061367d565b60405180910390fd5b60008060019054906101000a900460ff161590508015610871576001600060016101000a81548160ff02191690831515021790555060016000806101000a81548160ff0219169083151502179055505b600073ffffffffffffffffffffffffffffffffffffffff168673ffffffffffffffffffffffffffffffffffffffff1614156108e1576040517f08c379a00000000000000000000000000000000000000000000000000000000081526004016108d8906136e9565b60405180910390fd5b600073ffffffffffffffffffffffffffffffffffffffff168573ffffffffffffffffffffffffffffffffffffffff161415610951576040517f08c379a0000000000000000000000000000000000000000000000000000000008152600401610948906136e9565b60405180910390fd5b600073ffffffffffffffffffffffffffffffffffffffff168473ffffffffffffffffffffffffffffffffffffffff1614156109c1576040517f08c379a00000000000000000000000000000000000000000000000000000000081526004016109b8906136e9565b60405180910390fd5b600073ffffffffffffffffffffffffffffffffffffffff168373ffffffffffffffffffffffffffffffffffffffff161415610a31576040517f08c379a0000000000000000000000000000000000000000000000000000000008152600401610a28906136e9565b60405180910390fd5b600073ffffffffffffffffffffffffffffffffffffffff168273ffffffffffffffffffffffffffffffffffffffff161415610aa1576040517f08c379a0000000000000000000000000000000000000000000000000000000008152600401610a98906136e9565b60405180910390fd5b610aaa86611588565b610ab2612111565b84609860006101000a81548173ffffffffffffffffffffffffffffffffffffffff021916908373ffffffffffffffffffffffffffffffffffffffff16021790555083609960006101000a81548173ffffffffffffffffffffffffffffffffffffffff021916908373ffffffffffffffffffffffffffffffffffffffff16021790555082609a60006101000a81548173ffffffffffffffffffffffffffffffffffffffff021916908373ffffffffffffffffffffffffffffffffffffffff16021790555081609b60006101000a81548173ffffffffffffffffffffffffffffffffffffffff021916908373ffffffffffffffffffffffffffffffffffffffff160217905550610c01847fffffffffffffffffffffffffffffffffffffffffffffffffffffffffffffffff8773ffffffffffffffffffffffffffffffffffffffff1661216a9092919063ffffffff16565b610c4c837fffffffffffffffffffffffffffffffffffffffffffffffffffffffffffffffff8673ffffffffffffffffffffffffffffffffffffffff1661216a9092919063ffffffff16565b8015610c6d5760008060016101000a81548160ff0219169083151502179055505b505050505050565b7ff569e5f3f5937cbac9b65efc7a737c2c076c5c85f21b131e09a93cb09c14b658606560009054906101000a900473ffffffffffffffffffffffffffffffffffffffff1673ffffffffffffffffffffffffffffffffffffffff166391d1485482336040518363ffffffff1660e01b8152600401610cf39291906132ce565b602060405180830381865afa158015610d10573d6000803e3d6000fd5b505050506040513d601f19601f82011682018060405250810190610d349190613323565b610d73576040517f08c379a0000000000000000000000000000000000000000000000000000000008152600401610d6a906133ad565b60405180910390fd5b606560009054906101000a900473ffffffffffffffffffffffffffffffffffffffff1673ffffffffffffffffffffffffffffffffffffffff16635c975abb6040518163ffffffff1660e01b8152600401602060405180830381865afa158015610de0573d6000803e3d6000fd5b505050506040513d601f19601f82011682018060405250810190610e049190613323565b15610e44576040517f08c379a0000000000000000000000000000000000000000000000000000000008152600401610e3b90613419565b60405180910390fd5b610e4c611571565b15610e8c576040517f08c379a0000000000000000000000000000000000000000000000000000000008152600401610e8390613485565b60405180910390fd5b60026066541415610ed2576040517f08c379a0000000000000000000000000000000000000000000000000000000008152600401610ec990613755565b60405180910390fd5b60026066819055506000609c5490506000609b60009054906101000a900473ffffffffffffffffffffffffffffffffffffffff1673ffffffffffffffffffffffffffffffffffffffff16637a1c49f2836040518263ffffffff1660e01b8152600401610f3e9190612d87565b602060405180830381865afa158015610f5b573d6000803e3d6000fd5b505050506040513d601f19601f82011682018060405250810190610f7f919061354c565b9050609860009054906101000a900473ffffffffffffffffffffffffffffffffffffffff1673ffffffffffffffffffffffffffffffffffffffff166340c10f1930836040518363ffffffff1660e01b8152600401610fde929190613775565b600060405180830381600087803b158015610ff857600080fd5b505af115801561100c573d6000803e3d6000fd5b50505050600080600080609960009054906101000a900473ffffffffffffffffffffffffffffffffffffffff169050600060a3549050600081146112ac57612710818761105991906137cd565b6110639190613856565b945060008273ffffffffffffffffffffffffffffffffffffffff166370a08231306040518263ffffffff1660e01b81526004016110a09190613887565b602060405180830381865afa1580156110bd573d6000803e3d6000fd5b505050506040513d601f19601f820116820180604052508101906110e1919061354c565b90508273ffffffffffffffffffffffffffffffffffffffff1663b6b55f25876040518263ffffffff1660e01b815260040161111c9190612d87565b600060405180830381600087803b15801561113657600080fd5b505af115801561114a573d6000803e3d6000fd5b5050505060008373ffffffffffffffffffffffffffffffffffffffff166370a08231306040518263ffffffff1660e01b81526004016111899190613887565b602060405180830381865afa1580156111a6573d6000803e3d6000fd5b505050506040513d601f19601f820116820180604052508101906111ca919061354c565b9050600082826111da91906138a2565b9050609a60009054906101000a900473ffffffffffffffffffffffffffffffffffffffff1673ffffffffffffffffffffffffffffffffffffffff1663b66503cf86836040518363ffffffff1660e01b8152600401611239929190613775565b600060405180830381600087803b15801561125357600080fd5b505af1158015611267573d6000803e3d6000fd5b505050507ffba29cf10a16c267821db637f2424c3e3566a2f3cdc30e9dafab1163ef9e0e448a428a846040516112a094939291906138d6565b60405180910390a15050505b600060a25490506000811461135f5761271081886112ca91906137cd565b6112d49190613856565b94506113238386609860009054906101000a900473ffffffffffffffffffffffffffffffffffffffff1673ffffffffffffffffffffffffffffffffffffffff166122b99092919063ffffffff16565b7fbf73bdab8d0c45f550e4d17c7901459186199e0d4ee1fa25eb13f568e2e5a2118842876040516113569392919061391b565b60405180910390a15b600060a1549050600081146113ce57612710818961137d91906137cd565b6113879190613856565b94506113928561233f565b7f0973fb785718a394793e980dbc6e35b567fba8fd34d4767efd441b73803e337c8942876040516113c59392919061391b565b60405180910390a15b7f2ecebb1a105710ae7c5611c84ac3deeecdc4edabfc4ff1fbec05a8b5923760d48587896040516114019392919061391b565b60405180910390a142609c81905550505050505050505050600160668190555050565b60a15481565b7ff569e5f3f5937cbac9b65efc7a737c2c076c5c85f21b131e09a93cb09c14b65881565b609860009054906101000a900473ffffffffffffffffffffffffffffffffffffffff1681565b606560009054906101000a900473ffffffffffffffffffffffffffffffffffffffff1673ffffffffffffffffffffffffffffffffffffffff166391d148547f427da25fe773164f88948d3e215c94b6554e2ed5e5f203a821c9f2f6131cf75a336040518363ffffffff1660e01b81526004016114f19291906132ce565b602060405180830381865afa15801561150e573d6000803e3d6000fd5b505050506040513d601f19601f820116820180604052508101906115329190613323565b61153b57600080fd5b6115436124bf565b565b60a05481565b609a60009054906101000a900473ffffffffffffffffffffffffffffffffffffffff1681565b6000603360009054906101000a900460ff16905090565b600060019054906101000a900460ff166115d7576040517f08c379a00000000000000000000000000000000000000000000000000000000081526004016115ce906139c4565b60405180910390fd5b6115df612561565b80606560006101000a81548173ffffffffffffffffffffffffffffffffffffffff021916908373ffffffffffffffffffffffffffffffffffffffff16021790555050565b606560009054906101000a900473ffffffffffffffffffffffffffffffffffffffff1673ffffffffffffffffffffffffffffffffffffffff166391d148547f65d7a28e3265b37a6474929f336521b332c1681b933f6cb9f3376673440d862a336040518363ffffffff1660e01b81526004016116a09291906132ce565b602060405180830381865afa1580156116bd573d6000803e3d6000fd5b505050506040513d601f19601f820116820180604052508101906116e19190613323565b6116ea57600080fd5b6116f26125cd565b565b609c5481565b609f6020528060005260406000206000915090505481565b609b60009054906101000a900473ffffffffffffffffffffffffffffffffffffffff1681565b7ff569e5f3f5937cbac9b65efc7a737c2c076c5c85f21b131e09a93cb09c14b658606560009054906101000a900473ffffffffffffffffffffffffffffffffffffffff1673ffffffffffffffffffffffffffffffffffffffff166391d1485482336040518363ffffffff1660e01b81526004016117b69291906132ce565b602060405180830381865afa1580156117d3573d6000803e3d6000fd5b505050506040513d601f19601f820116820180604052508101906117f79190613323565b611836576040517f08c379a000000000000000000000000000000000000000000000000000000000815260040161182d906133ad565b60405180910390fd5b606560009054906101000a900473ffffffffffffffffffffffffffffffffffffffff1673ffffffffffffffffffffffffffffffffffffffff16635c975abb6040518163ffffffff1660e01b8152600401602060405180830381865afa1580156118a3573d6000803e3d6000fd5b505050506040513d601f19601f820116820180604052508101906118c79190613323565b15611907576040517f08c379a00000000000000000000000000000000000000000000000000000000081526004016118fe90613419565b60405180910390fd5b61190f611571565b1561194f576040517f08c379a000000000000000000000000000000000000000000000000000000000815260040161194690613485565b60405180910390fd5b60026066541415611995576040517f08c379a000000000000000000000000000000000000000000000000000000000815260040161198c90613755565b60405180910390fd5b60026066819055506127108284866119ad91906139e4565b6119b791906139e4565b146119f7576040517f08c379a00000000000000000000000000000000000000000000000000000000081526004016119ee90613aac565b60405180910390fd5b8360a1819055508260a2819055508160a3819055507f8ff756093f2eb030e3a44e93b6818e0bfd14bf1f68e48e958990d1649736ee4a848484604051611a3f9392919061391b565b60405180910390a1600160668190555050505050565b60a25481565b7f65d7a28e3265b37a6474929f336521b332c1681b933f6cb9f3376673440d862a81565b7ff569e5f3f5937cbac9b65efc7a737c2c076c5c85f21b131e09a93cb09c14b658606560009054906101000a900473ffffffffffffffffffffffffffffffffffffffff1673ffffffffffffffffffffffffffffffffffffffff166391d1485482336040518363ffffffff1660e01b8152600401611afd9291906132ce565b602060405180830381865afa158015611b1a573d6000803e3d6000fd5b505050506040513d601f19601f82011682018060405250810190611b3e9190613323565b611b7d576040517f08c379a0000000000000000000000000000000000000000000000000000000008152600401611b74906133ad565b60405180910390fd5b606560009054906101000a900473ffffffffffffffffffffffffffffffffffffffff1673ffffffffffffffffffffffffffffffffffffffff16635c975abb6040518163ffffffff1660e01b8152600401602060405180830381865afa158015611bea573d6000803e3d6000fd5b505050506040513d601f19601f82011682018060405250810190611c0e9190613323565b15611c4e576040517f08c379a0000000000000000000000000000000000000000000000000000000008152600401611c4590613419565b60405180910390fd5b611c56611571565b15611c96576040517f08c379a0000000000000000000000000000000000000000000000000000000008152600401611c8d90613485565b60405180910390fd5b60026066541415611cdc576040517f08c379a0000000000000000000000000000000000000000000000000000000008152600401611cd390613755565b60405180910390fd5b6002606681905550600073ffffffffffffffffffffffffffffffffffffffff168373ffffffffffffffffffffffffffffffffffffffff161415611d54576040517f08c379a0000000000000000000000000000000000000000000000000000000008152600401611d4b90613b18565b60405180910390fd5b6000611d6a84609d61267090919063ffffffff16565b9050600083148015611d795750805b15611dc957611d87846126a0565b7fc483941b5e91e71336bb819cfd2adf54d294f8a1f20a3b5ec0ea63824495cc9b848460a054604051611dbc93929190613b38565b60405180910390a1611f11565b6000831115611f1057612710831115611e17576040517f08c379a0000000000000000000000000000000000000000000000000000000008152600401611e0e90613bbb565b60405180910390fd5b80611e2657611e2584612794565b5b600060a0549050609f60008673ffffffffffffffffffffffffffffffffffffffff1673ffffffffffffffffffffffffffffffffffffffff1681526020019081526020016000205481611e7891906138a2565b905083609f60008773ffffffffffffffffffffffffffffffffffffffff1673ffffffffffffffffffffffffffffffffffffffff168152602001908152602001600020819055508381611eca91906139e4565b90508060a0819055507fc483941b5e91e71336bb819cfd2adf54d294f8a1f20a3b5ec0ea63824495cc9b858583604051611f0693929190613b38565b60405180910390a1505b5b506001606681905550505050565b6060806000611f2e609d6127ea565b90508067ffffffffffffffff811115611f4a57611f49613bdb565b5b604051908082528060200260200182016040528015611f785781602001602082028036833780820191505090505b5092508067ffffffffffffffff811115611f9557611f94613bdb565b5b604051908082528060200260200182016040528015611fc35781602001602082028036833780820191505090505b50915060005b818110156120b0576000611fe782609d6127ff90919063ffffffff16565b90506000609f60008373ffffffffffffffffffffffffffffffffffffffff1673ffffffffffffffffffffffffffffffffffffffff1681526020019081526020016000205490508186848151811061204157612040613c0a565b5b602002602001019073ffffffffffffffffffffffffffffffffffffffff16908173ffffffffffffffffffffffffffffffffffffffff16815250508085848151811061208f5761208e613c0a565b5b602002602001018181525050505080806120a890613c39565b915050611fc9565b50509091565b606560009054906101000a900473ffffffffffffffffffffffffffffffffffffffff1681565b7f427da25fe773164f88948d3e215c94b6554e2ed5e5f203a821c9f2f6131cf75a81565b600061210b30612819565b15905090565b600060019054906101000a900460ff16612160576040517f08c379a0000000000000000000000000000000000000000000000000000000008152600401612157906139c4565b60405180910390fd5b61216861283c565b565b60008114806121f4575060008373ffffffffffffffffffffffffffffffffffffffff1663dd62ed3e30856040518363ffffffff1660e01b81526004016121b1929190613c82565b602060405180830381865afa1580156121ce573d6000803e3d6000fd5b505050506040513d601f19601f820116820180604052508101906121f2919061354c565b145b612233576040517f08c379a000000000000000000000000000000000000000000000000000000000815260040161222a90613d1d565b60405180910390fd5b6122b48363095ea7b360e01b8484604051602401612252929190613775565b604051602081830303815290604052907bffffffffffffffffffffffffffffffffffffffffffffffffffffffff19166020820180517bffffffffffffffffffffffffffffffffffffffffffffffffffffffff8381831617835250505050612895565b505050565b61233a8363a9059cbb60e01b84846040516024016122d8929190613775565b604051602081830303815290604052907bffffffffffffffffffffffffffffffffffffffffffffffffffffffff19166020820180517bffffffffffffffffffffffffffffffffffffffffffffffffffffffff8381831617835250505050612895565b505050565b600061234b609d6127ea565b9050600060a054905060008211612397576040517f08c379a000000000000000000000000000000000000000000000000000000000815260040161238e90613d89565b60405180910390fd5b60005b828110156124b95760006123b882609d6127ff90919063ffffffff16565b90506000609f60008373ffffffffffffffffffffffffffffffffffffffff1673ffffffffffffffffffffffffffffffffffffffff168152602001908152602001600020549050600084828861240d91906137cd565b6124179190613856565b90506124668382609860009054906101000a900473ffffffffffffffffffffffffffffffffffffffff1673ffffffffffffffffffffffffffffffffffffffff166122b99092919063ffffffff16565b7fbe28a605830cfe9f92b23d48d0c3fe4bed3c391aa77b7bb7375d1a621d8e30cd609c5442858460405161249d9493929190613da9565b60405180910390a1505050806124b290613c39565b905061239a565b50505050565b6124c7611571565b612506576040517f08c379a00000000000000000000000000000000000000000000000000000000081526004016124fd90613e3a565b60405180910390fd5b6000603360006101000a81548160ff0219169083151502179055507f5db9ee0a495bf2e6ff9c91a7834c1ba4fdd244a5e8aa4e537bd38aeae4b073aa61254a61295c565b6040516125579190613887565b60405180910390a1565b600060019054906101000a900460ff166125b0576040517f08c379a00000000000000000000000000000000000000000000000000000000081526004016125a7906139c4565b60405180910390fd5b6000603360006101000a81548160ff021916908315150217905550565b6125d5611571565b15612615576040517f08c379a000000000000000000000000000000000000000000000000000000000815260040161260c90613ea6565b60405180910390fd5b6001603360006101000a81548160ff0219169083151502179055507f62e78cea01bee320cd4e420270b5ea74000d11b0c9f74754ebdbfc544b05a25861265961295c565b6040516126669190613887565b60405180910390a1565b6000612698836000018373ffffffffffffffffffffffffffffffffffffffff1660001b612964565b905092915050565b6000609f60008373ffffffffffffffffffffffffffffffffffffffff1673ffffffffffffffffffffffffffffffffffffffff1681526020019081526020016000205490508060a0546126f291906138a2565b60a0819055506000609f60008473ffffffffffffffffffffffffffffffffffffffff1673ffffffffffffffffffffffffffffffffffffffff1681526020019081526020016000208190555061275182609d61298790919063ffffffff16565b612790576040517f08c379a000000000000000000000000000000000000000000000000000000000815260040161278790613f38565b60405180910390fd5b5050565b6127a881609d6129b790919063ffffffff16565b6127e7576040517f08c379a00000000000000000000000000000000000000000000000000000000081526004016127de90613fca565b60405180910390fd5b50565b60006127f8826000016129e7565b9050919050565b600061280e83600001836129f8565b60001c905092915050565b6000808273ffffffffffffffffffffffffffffffffffffffff163b119050919050565b600060019054906101000a900460ff1661288b576040517f08c379a0000000000000000000000000000000000000000000000000000000008152600401612882906139c4565b60405180910390fd5b6001606681905550565b60006128f7826040518060400160405280602081526020017f5361666545524332303a206c6f772d6c6576656c2063616c6c206661696c65648152508573ffffffffffffffffffffffffffffffffffffffff16612a239092919063ffffffff16565b905060008151111561295757808060200190518101906129179190613323565b612956576040517f08c379a000000000000000000000000000000000000000000000000000000000815260040161294d9061405c565b60405180910390fd5b5b505050565b600033905090565b600080836001016000848152602001908152602001600020541415905092915050565b60006129af836000018373ffffffffffffffffffffffffffffffffffffffff1660001b612a3b565b905092915050565b60006129df836000018373ffffffffffffffffffffffffffffffffffffffff1660001b612b4f565b905092915050565b600081600001805490509050919050565b6000826000018281548110612a1057612a0f613c0a565b5b9060005260206000200154905092915050565b6060612a328484600085612bbf565b90509392505050565b60008083600101600084815260200190815260200160002054905060008114612b43576000600182612a6d91906138a2565b9050600060018660000180549050612a8591906138a2565b9050818114612af4576000866000018281548110612aa657612aa5613c0a565b5b9060005260206000200154905080876000018481548110612aca57612ac9613c0a565b5b90600052602060002001819055508387600101600083815260200190815260200160002081905550505b85600001805480612b0857612b0761407c565b5b600190038181906000526020600020016000905590558560010160008681526020019081526020016000206000905560019350505050612b49565b60009150505b92915050565b6000612b5b8383612964565b612bb4578260000182908060018154018082558091505060019003906000526020600020016000909190919091505582600001805490508360010160008481526020019081526020016000208190555060019050612bb9565b600090505b92915050565b606082471015612c04576040517f08c379a0000000000000000000000000000000000000000000000000000000008152600401612bfb9061411d565b60405180910390fd5b612c0d85612819565b612c4c576040517f08c379a0000000000000000000000000000000000000000000000000000000008152600401612c4390614189565b60405180910390fd5b6000808673ffffffffffffffffffffffffffffffffffffffff168587604051612c759190614223565b60006040518083038185875af1925050503d8060008114612cb2576040519150601f19603f3d011682016040523d82523d6000602084013e612cb7565b606091505b5091509150612cc7828286612cd3565b92505050949350505050565b60608315612ce357829050612d33565b600083511115612cf65782518084602001fd5b816040517f08c379a0000000000000000000000000000000000000000000000000000000008152600401612d2a919061428f565b60405180910390fd5b9392505050565b6000819050919050565b612d4d81612d3a565b82525050565b6000602082019050612d686000830184612d44565b92915050565b6000819050919050565b612d8181612d6e565b82525050565b6000602082019050612d9c6000830184612d78565b92915050565b600073ffffffffffffffffffffffffffffffffffffffff82169050919050565b6000819050919050565b6000612de7612de2612ddd84612da2565b612dc2565b612da2565b9050919050565b6000612df982612dcc565b9050919050565b6000612e0b82612dee565b9050919050565b612e1b81612e00565b82525050565b6000602082019050612e366000830184612e12565b92915050565b600080fd5b6000612e4c82612da2565b9050919050565b612e5c81612e41565b8114612e6757600080fd5b50565b600081359050612e7981612e53565b92915050565b600080600080600060a08688031215612e9b57612e9a612e3c565b5b6000612ea988828901612e6a565b9550506020612eba88828901612e6a565b9450506040612ecb88828901612e6a565b9350506060612edc88828901612e6a565b9250506080612eed88828901612e6a565b9150509295509295909350565b6000612f0582612dee565b9050919050565b612f1581612efa565b82525050565b6000602082019050612f306000830184612f0c565b92915050565b6000612f4182612dee565b9050919050565b612f5181612f36565b82525050565b6000602082019050612f6c6000830184612f48565b92915050565b60008115159050919050565b612f8781612f72565b82525050565b6000602082019050612fa26000830184612f7e565b92915050565b600060208284031215612fbe57612fbd612e3c565b5b6000612fcc84828501612e6a565b91505092915050565b6000612fe082612dee565b9050919050565b612ff081612fd5565b82525050565b600060208201905061300b6000830184612fe7565b92915050565b61301a81612d6e565b811461302557600080fd5b50565b60008135905061303781613011565b92915050565b60008060006060848603121561305657613055612e3c565b5b600061306486828701613028565b935050602061307586828701613028565b925050604061308686828701613028565b9150509250925092565b600080604083850312156130a7576130a6612e3c565b5b60006130b585828601612e6a565b92505060206130c685828601613028565b9150509250929050565b600081519050919050565b600082825260208201905092915050565b6000819050602082019050919050565b61310581612e41565b82525050565b600061311783836130fc565b60208301905092915050565b6000602082019050919050565b600061313b826130d0565b61314581856130db565b9350613150836130ec565b8060005b83811015613181578151613168888261310b565b975061317383613123565b925050600181019050613154565b5085935050505092915050565b600081519050919050565b600082825260208201905092915050565b6000819050602082019050919050565b6131c381612d6e565b82525050565b60006131d583836131ba565b60208301905092915050565b6000602082019050919050565b60006131f98261318e565b6132038185613199565b935061320e836131aa565b8060005b8381101561323f57815161322688826131c9565b9750613231836131e1565b925050600181019050613212565b5085935050505092915050565b600060408201905081810360008301526132668185613130565b9050818103602083015261327a81846131ee565b90509392505050565b600061328e82612dee565b9050919050565b61329e81613283565b82525050565b60006020820190506132b96000830184613295565b92915050565b6132c881612e41565b82525050565b60006040820190506132e36000830185612d44565b6132f060208301846132bf565b9392505050565b61330081612f72565b811461330b57600080fd5b50565b60008151905061331d816132f7565b92915050565b60006020828403121561333957613338612e3c565b5b60006133478482850161330e565b91505092915050565b600082825260208201905092915050565b7f4741433a20696e76616c69642d63616c6c65722d726f6c650000000000000000600082015250565b6000613397601883613350565b91506133a282613361565b602082019050919050565b600060208201905081810360008301526133c68161338a565b9050919050565b7f676c6f62616c2d70617573656400000000000000000000000000000000000000600082015250565b6000613403600d83613350565b915061340e826133cd565b602082019050919050565b60006020820190508181036000830152613432816133f6565b9050919050565b7f6c6f63616c2d7061757365640000000000000000000000000000000000000000600082015250565b600061346f600c83613350565b915061347a82613439565b602082019050919050565b6000602082019050818103600083015261349e81613462565b9050919050565b7f4369746164656c4d696e7465723a206c617374206d696e742074696d6573746160008201527f6d7020616c726561647920696e697469616c697a656400000000000000000000602082015250565b6000613501603683613350565b915061350c826134a5565b604082019050919050565b60006020820190508181036000830152613530816134f4565b9050919050565b60008151905061354681613011565b92915050565b60006020828403121561356257613561612e3c565b5b600061357084828501613537565b91505092915050565b7f4369746164656c4d696e7465723a20737570706c79207363686564756c65207360008201527f74617274206e6f7420696e697469616c697a6564000000000000000000000000602082015250565b60006135d5603483613350565b91506135e082613579565b604082019050919050565b60006020820190508181036000830152613604816135c8565b9050919050565b7f496e697469616c697a61626c653a20636f6e747261637420697320616c72656160008201527f647920696e697469616c697a6564000000000000000000000000000000000000602082015250565b6000613667602e83613350565b91506136728261360b565b604082019050919050565b600060208201905081810360008301526136968161365a565b9050919050565b7f61646472657373203020696e76616c6964000000000000000000000000000000600082015250565b60006136d3601183613350565b91506136de8261369d565b602082019050919050565b60006020820190508181036000830152613702816136c6565b9050919050565b7f5265656e7472616e637947756172643a207265656e7472616e742063616c6c00600082015250565b600061373f601f83613350565b915061374a82613709565b602082019050919050565b6000602082019050818103600083015261376e81613732565b9050919050565b600060408201905061378a60008301856132bf565b6137976020830184612d78565b9392505050565b7f4e487b7100000000000000000000000000000000000000000000000000000000600052601160045260246000fd5b60006137d882612d6e565b91506137e383612d6e565b9250817fffffffffffffffffffffffffffffffffffffffffffffffffffffffffffffffff048311821515161561381c5761381b61379e565b5b828202905092915050565b7f4e487b7100000000000000000000000000000000000000000000000000000000600052601260045260246000fd5b600061386182612d6e565b915061386c83612d6e565b92508261387c5761387b613827565b5b828204905092915050565b600060208201905061389c60008301846132bf565b92915050565b60006138ad82612d6e565b91506138b883612d6e565b9250828210156138cb576138ca61379e565b5b828203905092915050565b60006080820190506138eb6000830187612d78565b6138f86020830186612d78565b6139056040830185612d78565b6139126060830184612d78565b95945050505050565b60006060820190506139306000830186612d78565b61393d6020830185612d78565b61394a6040830184612d78565b949350505050565b7f496e697469616c697a61626c653a20636f6e7472616374206973206e6f74206960008201527f6e697469616c697a696e67000000000000000000000000000000000000000000602082015250565b60006139ae602b83613350565b91506139b982613952565b604082019050919050565b600060208201905081810360008301526139dd816139a1565b9050919050565b60006139ef82612d6e565b91506139fa83612d6e565b9250827fffffffffffffffffffffffffffffffffffffffffffffffffffffffffffffffff03821115613a2f57613a2e61379e565b5b828201905092915050565b7f4369746164656c4d696e7465723a2053756d206f662070726f7076616c75657360008201527f206d757374206265203130303030206270730000000000000000000000000000602082015250565b6000613a96603283613350565b9150613aa182613a3a565b604082019050919050565b60006020820190508181036000830152613ac581613a89565b9050919050565b7f4369746164656c4d696e7465723a206164647265737328302920636865636b00600082015250565b6000613b02601f83613350565b9150613b0d82613acc565b602082019050919050565b60006020820190508181036000830152613b3181613af5565b9050919050565b6000606082019050613b4d60008301866132bf565b613b5a6020830185612d78565b613b676040830184612d78565b949350505050565b7f657863656564206d61782066756e64696e6720706f6f6c207765696768740000600082015250565b6000613ba5601e83613350565b9150613bb082613b6f565b602082019050919050565b60006020820190508181036000830152613bd481613b98565b9050919050565b7f4e487b7100000000000000000000000000000000000000000000000000000000600052604160045260246000fd5b7f4e487b7100000000000000000000000000000000000000000000000000000000600052603260045260246000fd5b6000613c4482612d6e565b91507fffffffffffffffffffffffffffffffffffffffffffffffffffffffffffffffff821415613c7757613c7661379e565b5b600182019050919050565b6000604082019050613c9760008301856132bf565b613ca460208301846132bf565b9392505050565b7f5361666545524332303a20617070726f76652066726f6d206e6f6e2d7a65726f60008201527f20746f206e6f6e2d7a65726f20616c6c6f77616e636500000000000000000000602082015250565b6000613d07603683613350565b9150613d1282613cab565b604082019050919050565b60006020820190508181036000830152613d3681613cfa565b9050919050565b7f4369746164656c4d696e7465723a206e6f2066756e64696e6720706f6f6c7300600082015250565b6000613d73601f83613350565b9150613d7e82613d3d565b602082019050919050565b60006020820190508181036000830152613da281613d66565b9050919050565b6000608082019050613dbe6000830187612d78565b613dcb6020830186612d78565b613dd860408301856132bf565b613de56060830184612d78565b95945050505050565b7f5061757361626c653a206e6f7420706175736564000000000000000000000000600082015250565b6000613e24601483613350565b9150613e2f82613dee565b602082019050919050565b60006020820190508181036000830152613e5381613e17565b9050919050565b7f5061757361626c653a2070617573656400000000000000000000000000000000600082015250565b6000613e90601083613350565b9150613e9b82613e5a565b602082019050919050565b60006020820190508181036000830152613ebf81613e83565b9050919050565b7f4369746164656c4d696e7465723a2066756e64696e6720706f6f6c20646f657360008201527f206e6f7420657869737420666f722072656d6f76616c00000000000000000000602082015250565b6000613f22603683613350565b9150613f2d82613ec6565b604082019050919050565b60006020820190508181036000830152613f5181613f15565b9050919050565b7f4369746164656c4d696e7465723a2066756e64696e6720706f6f6c20616c726560008201527f6164792065786973747300000000000000000000000000000000000000000000602082015250565b6000613fb4602a83613350565b9150613fbf82613f58565b604082019050919050565b60006020820190508181036000830152613fe381613fa7565b9050919050565b7f5361666545524332303a204552433230206f7065726174696f6e20646964206e60008201527f6f74207375636365656400000000000000000000000000000000000000000000602082015250565b6000614046602a83613350565b915061405182613fea565b604082019050919050565b6000602082019050818103600083015261407581614039565b9050919050565b7f4e487b7100000000000000000000000000000000000000000000000000000000600052603160045260246000fd5b7f416464726573733a20696e73756666696369656e742062616c616e636520666f60008201527f722063616c6c0000000000000000000000000000000000000000000000000000602082015250565b6000614107602683613350565b9150614112826140ab565b604082019050919050565b60006020820190508181036000830152614136816140fa565b9050919050565b7f416464726573733a2063616c6c20746f206e6f6e2d636f6e7472616374000000600082015250565b6000614173601d83613350565b915061417e8261413d565b602082019050919050565b600060208201905081810360008301526141a281614166565b9050919050565b600081519050919050565b600081905092915050565b60005b838110156141dd5780820151818401526020810190506141c2565b838111156141ec576000848401525b50505050565b60006141fd826141a9565b61420781856141b4565b93506142178185602086016141bf565b80840191505092915050565b600061422f82846141f2565b915081905092915050565b600081519050919050565b6000601f19601f8301169050919050565b60006142618261423a565b61426b8185613350565b935061427b8185602086016141bf565b61428481614245565b840191505092915050565b600060208201905081810360008301526142a98184614256565b90509291505056fea26469706673582212208e388301af12bf96aa164902b840ee332de45c495617455cc0ccdff25f5ee11d64736f6c634300080c0033","linkReferences":{}},"methodIdentifiers":{"CONTRACT_GOVERNANCE_ROLE()":"0b0cca89","PAUSER_ROLE()":"e63ab1e9","POLICY_OPERATIONS_ROLE()":"3392c706","UNPAUSER_ROLE()":"fb1bb9de","__GlobalAccessControlManaged_init(address)":"7a3dbd6a","citadelToken()":"33b9000d","fundingBps()":"3221ac81","fundingPoolWeights(address)":"c0af7e22","gac()":"f4e79fc3","getFundingPoolWeights()":"ebceecb1","initialize(address,address,address,address,address)":"1459457a","initializeLastMintTimestamp()":"016faaca","lastMintTimestamp()":"8e80ff5d","lockingBps()":"0c1370c8","mintAndDistribute()":"150f95c4","pause()":"8456cb59","paused()":"5c975abb","setCitadelDistributionSplit(uint256,uint256,uint256)":"d5f5db17","setFundingPoolWeight(address,uint256)":"e8b24368","stakingBps()":"e16314b5","supplySchedule()":"c40dd66f","totalFundingPoolWeight()":"3f9adcf9","unpause()":"3f4ba83a","xCitadel()":"0f6df8b4","xCitadelLocker()":"4ab1a53f"},"id":19}