{
  "_format": "hh-sol-artifact-1",
  "contractName": "GUniLPOracle",
  "sourceName": "contracts/oracles/GUniLPOracle.sol",
  "abi": [
    {
      "inputs": [
        {
          "internalType": "uint8",
          "name": "_decimals",
          "type": "uint8"
        },
        {
          "internalType": "string",
          "name": "_description",
          "type": "string"
        },
        {
          "internalType": "contract IGUniPool",
          "name": "_pool",
          "type": "address"
        },
        {
          "internalType": "contract AggregatorV3Interface",
          "name": "_oracleA",
          "type": "address"
        },
        {
          "internalType": "contract AggregatorV3Interface",
          "name": "_oracleB",
          "type": "address"
        }
      ],
      "stateMutability": "nonpayable",
      "type": "constructor"
    },
    {
      "inputs": [],
      "name": "decimals",
      "outputs": [
        {
          "internalType": "uint8",
          "name": "",
          "type": "uint8"
        }
      ],
      "stateMutability": "view",
      "type": "function"
    },
    {
      "inputs": [],
      "name": "description",
      "outputs": [
        {
          "internalType": "string",
          "name": "",
          "type": "string"
        }
      ],
      "stateMutability": "view",
      "type": "function"
    },
    {
      "inputs": [
        {
          "internalType": "uint80",
          "name": "_roundId",
          "type": "uint80"
        }
      ],
      "name": "getRoundData",
      "outputs": [
        {
          "internalType": "uint80",
          "name": "roundId",
          "type": "uint80"
        },
        {
          "internalType": "int256",
          "name": "answer",
          "type": "int256"
        },
        {
          "internalType": "uint256",
          "name": "startedAt",
          "type": "uint256"
        },
        {
          "internalType": "uint256",
          "name": "updatedAt",
          "type": "uint256"
        },
        {
          "internalType": "uint80",
          "name": "answeredInRound",
          "type": "uint80"
        }
      ],
      "stateMutability": "view",
      "type": "function"
    },
    {
      "inputs": [],
      "name": "latestRoundData",
      "outputs": [
        {
          "internalType": "uint80",
          "name": "roundId",
          "type": "uint80"
        },
        {
          "internalType": "int256",
          "name": "answer",
          "type": "int256"
        },
        {
          "internalType": "uint256",
          "name": "startedAt",
          "type": "uint256"
        },
        {
          "internalType": "uint256",
          "name": "updatedAt",
          "type": "uint256"
        },
        {
          "internalType": "uint80",
          "name": "answeredInRound",
          "type": "uint80"
        }
      ],
      "stateMutability": "view",
      "type": "function"
    },
    {
      "inputs": [],
      "name": "oracleA",
      "outputs": [
        {
          "internalType": "contract AggregatorV3Interface",
          "name": "",
          "type": "address"
        }
      ],
      "stateMutability": "view",
      "type": "function"
    },
    {
      "inputs": [],
      "name": "oracleB",
      "outputs": [
        {
          "internalType": "contract AggregatorV3Interface",
          "name": "",
          "type": "address"
        }
      ],
      "stateMutability": "view",
      "type": "function"
    },
    {
      "inputs": [],
      "name": "pool",
      "outputs": [
        {
          "internalType": "contract IGUniPool",
          "name": "",
          "type": "address"
        }
      ],
      "stateMutability": "view",
      "type": "function"
    },
    {
      "inputs": [],
      "name": "version",
      "outputs": [
        {
          "internalType": "uint256",
          "name": "",
          "type": "uint256"
        }
      ],
      "stateMutability": "view",
      "type": "function"
    }
  ],
  "bytecode": "0x61016060405260036001553480156200001757600080fd5b5060405162000e1f38038062000e1f833981810160405260a08110156200003d57600080fd5b8151602083018051604051929492938301929190846401000000008211156200006557600080fd5b9083019060208201858111156200007b57600080fd5b82516401000000008111828201881017156200009657600080fd5b82525081516020918201929091019080838360005b83811015620000c5578181015183820152602001620000ab565b50505050905090810190601f168015620000f35780820380516001836020036101000a031916815260200191505b5060409081526020820151908201516060909201519093509091506001600160a01b03831662000153576040805162461bcd60e51b815260206004808301919091526024820152630433030360e41b604482015290519081900360640190fd5b6001600160a01b03821662000198576040805162461bcd60e51b815260206004808301919091526024820152630433030360e41b604482015290519081900360640190fd5b6001600160a01b038116620001dd576040805162461bcd60e51b815260206004808301919091526024820152630433030360e41b604482015290519081900360640190fd5b6002805460ff191660ff87161790558351620002019060009060208701906200042a565b506001600160601b0319606084811b821660805283811b821660a05282901b1660c05260408051630dfe168160e01b815290516000916001600160a01b03861691630dfe168191600480820192602092909190829003018186803b1580156200026957600080fd5b505afa1580156200027e573d6000803e3d6000fd5b505050506040513d60208110156200029557600080fd5b50516040805163313ce56760e01b815290516001600160a01b039092169163313ce56791600480820192602092909190829003018186803b158015620002da57600080fd5b505afa158015620002ef573d6000803e3d6000fd5b505050506040513d60208110156200030657600080fd5b505160ff16600a81810a60e0526012829003900a610100526040805163d21220a760e01b815290519192506000916001600160a01b0387169163d21220a7916004808301926020929190829003018186803b1580156200036557600080fd5b505afa1580156200037a573d6000803e3d6000fd5b505050506040513d60208110156200039157600080fd5b50516040805163313ce56760e01b815290516001600160a01b039092169163313ce56791600480820192602092909190829003018186803b158015620003d657600080fd5b505afa158015620003eb573d6000803e3d6000fd5b505050506040513d60208110156200040257600080fd5b505160ff16600a81810a61012052601291909103900a6101405250620004c695505050505050565b828054600181600116156101000203166002900490600052602060002090601f016020900481019282601f106200046d57805160ff19168380011785556200049d565b828001600101855582156200049d579182015b828111156200049d57825182559160200191906001019062000480565b50620004ab929150620004af565b5090565b5b80821115620004ab5760008155600101620004b0565b60805160601c60a05160601c60c05160601c60e0516101005161012051610140516108e8620005376000398061068f52508061048a5250806106c35250806104585250806102e652806103c75250806101f3528061031552508061021752806104ca52806105b852506108e86000f3fe608060405234801561001057600080fd5b50600436106100885760003560e01c80637284e4161161005b5780637284e416146100f15780639a6fc8f51461016e5780639bdff8eb146101e1578063feaf968c146101e957610088565b80631670cb6f1461008d57806316f0115b146100b1578063313ce567146100b957806354fd4d50146100d7575b600080fd5b6100956101f1565b604080516001600160a01b039092168252519081900360200190f35b610095610215565b6100c1610239565b6040805160ff9092168252519081900360200190f35b6100df610242565b60408051918252519081900360200190f35b6100f9610248565b6040805160208082528351818301528351919283929083019185019080838360005b8381101561013357818101518382015260200161011b565b50505050905090810190601f1680156101605780820380516001836020036101000a031916815260200191505b509250505060405180910390f35b6101976004803603602081101561018457600080fd5b503569ffffffffffffffffffff166102d6565b604051808669ffffffffffffffffffff1681526020018581526020018481526020018381526020018269ffffffffffffffffffff1681526020019550505050505060405180910390f35b6100956102e4565b610197610308565b7f000000000000000000000000000000000000000000000000000000000000000081565b7f000000000000000000000000000000000000000000000000000000000000000081565b60025460ff1681565b60015481565b6000805460408051602060026001851615610100026000190190941693909304601f810184900484028201840190925281815292918301828280156102ce5780601f106102a3576101008083540402835291602001916102ce565b820191906000526020600020905b8154815290600101906020018083116102b157829003601f168201915b505050505081565b506000908190819081908190565b7f000000000000000000000000000000000000000000000000000000000000000081565b60008060008060008060007f00000000000000000000000000000000000000000000000000000000000000006001600160a01b031663feaf968c6040518163ffffffff1660e01b815260040160a06040518083038186803b15801561036c57600080fd5b505afa158015610380573d6000803e3d6000fd5b505050506040513d60a081101561039657600080fd5b50602081015160609091015160408051633fabe5a360e21b8152905192945090925060009182916001600160a01b037f0000000000000000000000000000000000000000000000000000000000000000169163feaf968c9160048082019260a092909190829003018186803b15801561040e57600080fd5b505afa158015610422573d6000803e3d6000fd5b505050506040513d60a081101561043857600080fd5b50602081015160609091015190925090508382600060306104c161047c847f000000000000000000000000000000000000000000000000000000000000000061071c565b6104b4600160601b6104ae887f000000000000000000000000000000000000000000000000000000000000000061071c565b9061071c565b816104bb57fe5b0461077e565b901b90506000807f00000000000000000000000000000000000000000000000000000000000000006001600160a01b031663b670ed7d846040518263ffffffff1660e01b815260040180826001600160a01b03168152602001915050604080518083038186803b15801561053457600080fd5b505afa158015610548573d6000803e3d6000fd5b505050506040513d604081101561055e57600080fd5b50805160209091015190925090508115158061057a5750600081115b6105b4576040805162461bcd60e51b815260206004808301919091526024820152630433130360e41b604482015290519081900360640190fd5b60007f00000000000000000000000000000000000000000000000000000000000000006001600160a01b03166318160ddd6040518163ffffffff1660e01b815260040160206040518083038186803b15801561060f57600080fd5b505afa158015610623573d6000803e3d6000fd5b505050506040513d602081101561063957600080fd5b50519050633b9aca0081101561067f576040805162461bcd60e51b815260206004808301919091526024820152634331303160e01b604482015290519081900360640190fd5b6106fa816106f46106ba6106b3867f000000000000000000000000000000000000000000000000000000000000000061071c565b899061071c565b6106ee6106e7887f000000000000000000000000000000000000000000000000000000000000000061071c565b8b9061071c565b906107d0565b9061082a565b9d50889b508689111561070b57869b505b505050505050505050509091929394565b60008261072b57506000610778565b8282028284828161073857fe5b04146107755760405162461bcd60e51b81526004018080602001828103825260218152602001806108926021913960400191505060405180910390fd5b90505b92915050565b600060038211156107c1575080600160028204015b818110156107bb578091506002818285816107aa57fe5b0401816107b357fe5b049050610793565b506107cb565b81156107cb575060015b919050565b600082820183811015610775576040805162461bcd60e51b815260206004820152601b60248201527f536166654d6174683a206164646974696f6e206f766572666c6f770000000000604482015290519081900360640190fd5b6000808211610880576040805162461bcd60e51b815260206004820152601a60248201527f536166654d6174683a206469766973696f6e206279207a65726f000000000000604482015290519081900360640190fd5b81838161088957fe5b04939250505056fe536166654d6174683a206d756c7469706c69636174696f6e206f766572666c6f77a2646970667358221220a649ac27296797b4a95d63532023ef524cada1693fb9b649f85b6be2ab3324c264736f6c634300060c0033",
  "linkReferences": {},
  "deployedLinkReferences": {}
}