{
  "_format": "hh-sol-artifact-1",
  "contractName": "NFTXUglyEligibility",
  "sourceName": "contracts/solidity/eligibility/NFTXUglyEligibility.sol",
  "abi": [
    {
      "anonymous": false,
      "inputs": [],
      "name": "NFTXEligibilityInit",
      "type": "event"
    },
    {
      "inputs": [],
      "name": "__NFTXEligibility_init",
      "outputs": [],
      "stateMutability": "nonpayable",
      "type": "function"
    },
    {
      "inputs": [
        {
          "internalType": "bytes",
          "name": "",
          "type": "bytes"
        }
      ],
      "name": "__NFTXEligibility_init_bytes",
      "outputs": [],
      "stateMutability": "nonpayable",
      "type": "function"
    },
    {
      "inputs": [
        {
          "internalType": "uint256[]",
          "name": "tokenIds",
          "type": "uint256[]"
        }
      ],
      "name": "afterMintHook",
      "outputs": [],
      "stateMutability": "nonpayable",
      "type": "function"
    },
    {
      "inputs": [
        {
          "internalType": "uint256[]",
          "name": "tokenIds",
          "type": "uint256[]"
        }
      ],
      "name": "afterRedeemHook",
      "outputs": [],
      "stateMutability": "nonpayable",
      "type": "function"
    },
    {
      "inputs": [
        {
          "internalType": "uint256[]",
          "name": "tokenIds",
          "type": "uint256[]"
        }
      ],
      "name": "beforeMintHook",
      "outputs": [],
      "stateMutability": "nonpayable",
      "type": "function"
    },
    {
      "inputs": [
        {
          "internalType": "uint256[]",
          "name": "tokenIds",
          "type": "uint256[]"
        }
      ],
      "name": "beforeRedeemHook",
      "outputs": [],
      "stateMutability": "nonpayable",
      "type": "function"
    },
    {
      "inputs": [
        {
          "internalType": "uint256[]",
          "name": "tokenIds",
          "type": "uint256[]"
        }
      ],
      "name": "checkAllEligible",
      "outputs": [
        {
          "internalType": "bool",
          "name": "",
          "type": "bool"
        }
      ],
      "stateMutability": "view",
      "type": "function"
    },
    {
      "inputs": [
        {
          "internalType": "uint256[]",
          "name": "tokenIds",
          "type": "uint256[]"
        }
      ],
      "name": "checkAllIneligible",
      "outputs": [
        {
          "internalType": "bool",
          "name": "",
          "type": "bool"
        }
      ],
      "stateMutability": "view",
      "type": "function"
    },
    {
      "inputs": [
        {
          "internalType": "uint256[]",
          "name": "tokenIds",
          "type": "uint256[]"
        }
      ],
      "name": "checkEligible",
      "outputs": [
        {
          "internalType": "bool[]",
          "name": "",
          "type": "bool[]"
        }
      ],
      "stateMutability": "view",
      "type": "function"
    },
    {
      "inputs": [
        {
          "internalType": "uint256",
          "name": "tokenId",
          "type": "uint256"
        }
      ],
      "name": "checkIsEligible",
      "outputs": [
        {
          "internalType": "bool",
          "name": "",
          "type": "bool"
        }
      ],
      "stateMutability": "view",
      "type": "function"
    },
    {
      "inputs": [],
      "name": "finalized",
      "outputs": [
        {
          "internalType": "bool",
          "name": "",
          "type": "bool"
        }
      ],
      "stateMutability": "view",
      "type": "function"
    },
    {
      "inputs": [],
      "name": "name",
      "outputs": [
        {
          "internalType": "string",
          "name": "",
          "type": "string"
        }
      ],
      "stateMutability": "pure",
      "type": "function"
    },
    {
      "inputs": [],
      "name": "targetAsset",
      "outputs": [
        {
          "internalType": "address",
          "name": "",
          "type": "address"
        }
      ],
      "stateMutability": "pure",
      "type": "function"
    }
  ],
  "bytecode": "0x608060405234801561001057600080fd5b50610833806100206000396000f3fe608060405234801561001057600080fd5b50600436106100df5760003560e01c80636cd912601161008c578063b3f05b9711610066578063b3f05b97146101c0578063bd8affde1461012c578063ca373f28146101c7578063d2a096e8146101da57600080fd5b80636cd912601461017557806384ca9f8514610195578063b1eb9f87146101b857600080fd5b80634998b7f3116100bd5780634998b7f3146101625780635e2f9b521461012c5780636c47d5951461012c57600080fd5b806306fdde03146100e457806336eb08621461012c5780633d4403ac14610140575b600080fd5b604080518082018252600481527f55676c790000000000000000000000000000000000000000000000000000000060208201529051610123919061076d565b60405180910390f35b61013e61013a3660046105dd565b5050565b005b6040517306012c8cf97bead5deae237070f9587f8e7a266d8152602001610123565b61013e61017036600461064d565b6101ed565b6101886101833660046105dd565b6102bc565b6040516101239190610727565b6101a86101a33660046105dd565b610399565b6040519015158152602001610123565b61013e6103f2565b60016101a8565b6101a86101d53660046105dd565b6104dd565b6101a86101e83660046106f7565b61052d565b600054610100900460ff1680610206575060005460ff16155b61027d5760405162461bcd60e51b815260206004820152602e60248201527f496e697469616c697a61626c653a20636f6e747261637420697320616c72656160448201527f647920696e697469616c697a656400000000000000000000000000000000000060648201526084015b60405180910390fd5b600054610100900460ff1615801561029f576000805461ffff19166101011790555b6102a76103f2565b801561013a576000805461ff00191690555050565b606060008267ffffffffffffffff8111156102e757634e487b7160e01b600052604160045260246000fd5b604051908082528060200260200182016040528015610310578160200160208202803683370190505b50905060005b8381101561038f5761034d85858381811061034157634e487b7160e01b600052603260045260246000fd5b90506020020135610534565b82828151811061036d57634e487b7160e01b600052603260045260246000fd5b9115156020928302919091019091015280610387816107c0565b915050610316565b5090505b92915050565b6000805b828110156103e8576103c884848381811061034157634e487b7160e01b600052603260045260246000fd5b6103d6576000915050610393565b806103e0816107c0565b91505061039d565b5060019392505050565b600054610100900460ff168061040b575060005460ff16155b61047d5760405162461bcd60e51b815260206004820152602e60248201527f496e697469616c697a61626c653a20636f6e747261637420697320616c72656160448201527f647920696e697469616c697a65640000000000000000000000000000000000006064820152608401610274565b600054610100900460ff1615801561049f576000805461ffff19166101011790555b6040517fb708568a0e67d40b1324a610ddd779500570f113513f944a791cc7b8b4970dec90600090a180156104da576000805461ff00191690555b50565b6000805b828110156103e85761050c84848381811061034157634e487b7160e01b600052603260045260246000fd5b1561051b576000915050610393565b80610525816107c0565b9150506104e1565b6000610393825b6040517f6a5be6860000000000000000000000000000000000000000000000000000000081526004810182905260009081907306012c8cf97bead5deae237070f9587f8e7a266d90636a5be6869060240160206040518083038186803b15801561059d57600080fd5b505afa1580156105b1573d6000803e3d6000fd5b505050506040513d601f19601f820116820180604052508101906105d5919061070f565b159392505050565b600080602083850312156105ef578182fd5b823567ffffffffffffffff80821115610606578384fd5b818501915085601f830112610619578384fd5b813581811115610627578485fd5b8660208260051b850101111561063b578485fd5b60209290920196919550909350505050565b60006020828403121561065e578081fd5b813567ffffffffffffffff80821115610675578283fd5b818401915084601f830112610688578283fd5b81358181111561069a5761069a6107e7565b604051601f8201601f19908116603f011681019083821181831017156106c2576106c26107e7565b816040528281528760208487010111156106da578586fd5b826020860160208301379182016020019490945295945050505050565b600060208284031215610708578081fd5b5035919050565b600060208284031215610720578081fd5b5051919050565b6020808252825182820181905260009190848201906040850190845b81811015610761578351151583529284019291840191600101610743565b50909695505050505050565b6000602080835283518082850152825b818110156107995785810183015185820160400152820161077d565b818111156107aa5783604083870101525b50601f01601f1916929092016040019392505050565b60006000198214156107e057634e487b7160e01b81526011600452602481fd5b5060010190565b634e487b7160e01b600052604160045260246000fdfea26469706673582212204315e4b14c3a65ae5d0f4a286dc0a541537befa8f12d985ddd772fae57cae47864736f6c63430008040033",
  "linkReferences": {},
  "deployedLinkReferences": {}
}