{
  "_format": "hh-sol-artifact-1",
  "contractName": "ATokenYieldSourceHarness",
  "sourceName": "contracts/test/ATokenYieldSourceHarness.sol",
  "abi": [
    {
      "inputs": [
        {
          "internalType": "contract ATokenInterface",
          "name": "_aToken",
          "type": "address"
        },
        {
          "internalType": "contract IAaveIncentivesController",
          "name": "_incentivesController",
          "type": "address"
        },
        {
          "internalType": "contract ILendingPoolAddressesProviderRegistry",
          "name": "_lendingPoolAddressesProviderRegistry",
          "type": "address"
        },
        {
          "internalType": "uint8",
          "name": "_decimals",
          "type": "uint8"
        },
        {
          "internalType": "string",
          "name": "_symbol",
          "type": "string"
        },
        {
          "internalType": "string",
          "name": "_name",
          "type": "string"
        },
        {
          "internalType": "address",
          "name": "_owner",
          "type": "address"
        }
      ],
      "stateMutability": "nonpayable",
      "type": "constructor"
    },
    {
      "anonymous": false,
      "inputs": [
        {
          "indexed": true,
          "internalType": "contract IAToken",
          "name": "aToken",
          "type": "address"
        },
        {
          "indexed": false,
          "internalType": "contract ILendingPoolAddressesProviderRegistry",
          "name": "lendingPoolAddressesProviderRegistry",
          "type": "address"
        },
        {
          "indexed": false,
          "internalType": "uint8",
          "name": "decimals",
          "type": "uint8"
        },
        {
          "indexed": false,
          "internalType": "string",
          "name": "name",
          "type": "string"
        },
        {
          "indexed": false,
          "internalType": "string",
          "name": "symbol",
          "type": "string"
        },
        {
          "indexed": false,
          "internalType": "address",
          "name": "owner",
          "type": "address"
        }
      ],
      "name": "ATokenYieldSourceInitialized",
      "type": "event"
    },
    {
      "anonymous": false,
      "inputs": [
        {
          "indexed": true,
          "internalType": "address",
          "name": "owner",
          "type": "address"
        },
        {
          "indexed": true,
          "internalType": "address",
          "name": "spender",
          "type": "address"
        },
        {
          "indexed": false,
          "internalType": "uint256",
          "name": "value",
          "type": "uint256"
        }
      ],
      "name": "Approval",
      "type": "event"
    },
    {
      "anonymous": false,
      "inputs": [
        {
          "indexed": true,
          "internalType": "address",
          "name": "user",
          "type": "address"
        },
        {
          "indexed": true,
          "internalType": "address",
          "name": "to",
          "type": "address"
        },
        {
          "indexed": false,
          "internalType": "uint256",
          "name": "amount",
          "type": "uint256"
        }
      ],
      "name": "Claimed",
      "type": "event"
    },
    {
      "anonymous": false,
      "inputs": [
        {
          "indexed": true,
          "internalType": "address",
          "name": "previousManager",
          "type": "address"
        },
        {
          "indexed": true,
          "internalType": "address",
          "name": "newManager",
          "type": "address"
        }
      ],
      "name": "ManagerTransferred",
      "type": "event"
    },
    {
      "anonymous": false,
      "inputs": [
        {
          "indexed": true,
          "internalType": "address",
          "name": "pendingOwner",
          "type": "address"
        }
      ],
      "name": "OwnershipOffered",
      "type": "event"
    },
    {
      "anonymous": false,
      "inputs": [
        {
          "indexed": true,
          "internalType": "address",
          "name": "previousOwner",
          "type": "address"
        },
        {
          "indexed": true,
          "internalType": "address",
          "name": "newOwner",
          "type": "address"
        }
      ],
      "name": "OwnershipTransferred",
      "type": "event"
    },
    {
      "anonymous": false,
      "inputs": [
        {
          "indexed": true,
          "internalType": "address",
          "name": "from",
          "type": "address"
        },
        {
          "indexed": false,
          "internalType": "uint256",
          "name": "shares",
          "type": "uint256"
        },
        {
          "indexed": false,
          "internalType": "uint256",
          "name": "amount",
          "type": "uint256"
        }
      ],
      "name": "RedeemedToken",
      "type": "event"
    },
    {
      "anonymous": false,
      "inputs": [
        {
          "indexed": true,
          "internalType": "address",
          "name": "from",
          "type": "address"
        },
        {
          "indexed": false,
          "internalType": "uint256",
          "name": "amount",
          "type": "uint256"
        }
      ],
      "name": "Sponsored",
      "type": "event"
    },
    {
      "anonymous": false,
      "inputs": [
        {
          "indexed": true,
          "internalType": "address",
          "name": "from",
          "type": "address"
        },
        {
          "indexed": false,
          "internalType": "uint256",
          "name": "shares",
          "type": "uint256"
        },
        {
          "indexed": false,
          "internalType": "uint256",
          "name": "amount",
          "type": "uint256"
        },
        {
          "indexed": true,
          "internalType": "address",
          "name": "to",
          "type": "address"
        }
      ],
      "name": "SuppliedTokenTo",
      "type": "event"
    },
    {
      "anonymous": false,
      "inputs": [
        {
          "indexed": true,
          "internalType": "address",
          "name": "from",
          "type": "address"
        },
        {
          "indexed": true,
          "internalType": "address",
          "name": "to",
          "type": "address"
        },
        {
          "indexed": false,
          "internalType": "uint256",
          "name": "value",
          "type": "uint256"
        }
      ],
      "name": "Transfer",
      "type": "event"
    },
    {
      "anonymous": false,
      "inputs": [
        {
          "indexed": true,
          "internalType": "address",
          "name": "from",
          "type": "address"
        },
        {
          "indexed": true,
          "internalType": "address",
          "name": "to",
          "type": "address"
        },
        {
          "indexed": false,
          "internalType": "uint256",
          "name": "amount",
          "type": "uint256"
        },
        {
          "indexed": true,
          "internalType": "contract IERC20",
          "name": "token",
          "type": "address"
        }
      ],
      "name": "TransferredERC20",
      "type": "event"
    },
    {
      "inputs": [],
      "name": "aToken",
      "outputs": [
        {
          "internalType": "contract ATokenInterface",
          "name": "",
          "type": "address"
        }
      ],
      "stateMutability": "view",
      "type": "function"
    },
    {
      "inputs": [
        {
          "internalType": "address",
          "name": "owner",
          "type": "address"
        },
        {
          "internalType": "address",
          "name": "spender",
          "type": "address"
        }
      ],
      "name": "allowance",
      "outputs": [
        {
          "internalType": "uint256",
          "name": "",
          "type": "uint256"
        }
      ],
      "stateMutability": "view",
      "type": "function"
    },
    {
      "inputs": [
        {
          "internalType": "address",
          "name": "spender",
          "type": "address"
        },
        {
          "internalType": "uint256",
          "name": "amount",
          "type": "uint256"
        }
      ],
      "name": "approve",
      "outputs": [
        {
          "internalType": "bool",
          "name": "",
          "type": "bool"
        }
      ],
      "stateMutability": "nonpayable",
      "type": "function"
    },
    {
      "inputs": [
        {
          "internalType": "uint256",
          "name": "amount",
          "type": "uint256"
        }
      ],
      "name": "approveLendingPool",
      "outputs": [],
      "stateMutability": "nonpayable",
      "type": "function"
    },
    {
      "inputs": [],
      "name": "approveMaxAmount",
      "outputs": [
        {
          "internalType": "bool",
          "name": "",
          "type": "bool"
        }
      ],
      "stateMutability": "nonpayable",
      "type": "function"
    },
    {
      "inputs": [
        {
          "internalType": "address",
          "name": "account",
          "type": "address"
        }
      ],
      "name": "balanceOf",
      "outputs": [
        {
          "internalType": "uint256",
          "name": "",
          "type": "uint256"
        }
      ],
      "stateMutability": "view",
      "type": "function"
    },
    {
      "inputs": [
        {
          "internalType": "address",
          "name": "addr",
          "type": "address"
        }
      ],
      "name": "balanceOfToken",
      "outputs": [
        {
          "internalType": "uint256",
          "name": "",
          "type": "uint256"
        }
      ],
      "stateMutability": "view",
      "type": "function"
    },
    {
      "inputs": [],
      "name": "claimOwnership",
      "outputs": [],
      "stateMutability": "nonpayable",
      "type": "function"
    },
    {
      "inputs": [
        {
          "internalType": "address",
          "name": "to",
          "type": "address"
        }
      ],
      "name": "claimRewards",
      "outputs": [
        {
          "internalType": "bool",
          "name": "",
          "type": "bool"
        }
      ],
      "stateMutability": "nonpayable",
      "type": "function"
    },
    {
      "inputs": [],
      "name": "decimals",
      "outputs": [
        {
          "internalType": "uint8",
          "name": "",
          "type": "uint8"
        }
      ],
      "stateMutability": "view",
      "type": "function"
    },
    {
      "inputs": [
        {
          "internalType": "address",
          "name": "spender",
          "type": "address"
        },
        {
          "internalType": "uint256",
          "name": "subtractedValue",
          "type": "uint256"
        }
      ],
      "name": "decreaseAllowance",
      "outputs": [
        {
          "internalType": "bool",
          "name": "",
          "type": "bool"
        }
      ],
      "stateMutability": "nonpayable",
      "type": "function"
    },
    {
      "inputs": [],
      "name": "depositToken",
      "outputs": [
        {
          "internalType": "address",
          "name": "",
          "type": "address"
        }
      ],
      "stateMutability": "view",
      "type": "function"
    },
    {
      "inputs": [],
      "name": "incentivesController",
      "outputs": [
        {
          "internalType": "contract IAaveIncentivesController",
          "name": "",
          "type": "address"
        }
      ],
      "stateMutability": "view",
      "type": "function"
    },
    {
      "inputs": [
        {
          "internalType": "address",
          "name": "spender",
          "type": "address"
        },
        {
          "internalType": "uint256",
          "name": "addedValue",
          "type": "uint256"
        }
      ],
      "name": "increaseAllowance",
      "outputs": [
        {
          "internalType": "bool",
          "name": "",
          "type": "bool"
        }
      ],
      "stateMutability": "nonpayable",
      "type": "function"
    },
    {
      "inputs": [],
      "name": "lendingPool",
      "outputs": [
        {
          "internalType": "contract ILendingPool",
          "name": "",
          "type": "address"
        }
      ],
      "stateMutability": "view",
      "type": "function"
    },
    {
      "inputs": [],
      "name": "lendingPoolAddressesProviderRegistry",
      "outputs": [
        {
          "internalType": "contract ILendingPoolAddressesProviderRegistry",
          "name": "",
          "type": "address"
        }
      ],
      "stateMutability": "view",
      "type": "function"
    },
    {
      "inputs": [],
      "name": "manager",
      "outputs": [
        {
          "internalType": "address",
          "name": "",
          "type": "address"
        }
      ],
      "stateMutability": "view",
      "type": "function"
    },
    {
      "inputs": [
        {
          "internalType": "address",
          "name": "account",
          "type": "address"
        },
        {
          "internalType": "uint256",
          "name": "amount",
          "type": "uint256"
        }
      ],
      "name": "mint",
      "outputs": [
        {
          "internalType": "bool",
          "name": "",
          "type": "bool"
        }
      ],
      "stateMutability": "nonpayable",
      "type": "function"
    },
    {
      "inputs": [],
      "name": "name",
      "outputs": [
        {
          "internalType": "string",
          "name": "",
          "type": "string"
        }
      ],
      "stateMutability": "view",
      "type": "function"
    },
    {
      "inputs": [],
      "name": "owner",
      "outputs": [
        {
          "internalType": "address",
          "name": "",
          "type": "address"
        }
      ],
      "stateMutability": "view",
      "type": "function"
    },
    {
      "inputs": [],
      "name": "pendingOwner",
      "outputs": [
        {
          "internalType": "address",
          "name": "",
          "type": "address"
        }
      ],
      "stateMutability": "view",
      "type": "function"
    },
    {
      "inputs": [
        {
          "internalType": "uint256",
          "name": "redeemAmount",
          "type": "uint256"
        }
      ],
      "name": "redeemToken",
      "outputs": [
        {
          "internalType": "uint256",
          "name": "",
          "type": "uint256"
        }
      ],
      "stateMutability": "nonpayable",
      "type": "function"
    },
    {
      "inputs": [],
      "name": "renounceOwnership",
      "outputs": [],
      "stateMutability": "nonpayable",
      "type": "function"
    },
    {
      "inputs": [
        {
          "internalType": "address",
          "name": "_newManager",
          "type": "address"
        }
      ],
      "name": "setManager",
      "outputs": [
        {
          "internalType": "bool",
          "name": "",
          "type": "bool"
        }
      ],
      "stateMutability": "nonpayable",
      "type": "function"
    },
    {
      "inputs": [
        {
          "internalType": "uint256",
          "name": "shares",
          "type": "uint256"
        }
      ],
      "name": "sharesToToken",
      "outputs": [
        {
          "internalType": "uint256",
          "name": "",
          "type": "uint256"
        }
      ],
      "stateMutability": "view",
      "type": "function"
    },
    {
      "inputs": [
        {
          "internalType": "uint256",
          "name": "amount",
          "type": "uint256"
        }
      ],
      "name": "sponsor",
      "outputs": [],
      "stateMutability": "nonpayable",
      "type": "function"
    },
    {
      "inputs": [
        {
          "internalType": "uint256",
          "name": "mintAmount",
          "type": "uint256"
        },
        {
          "internalType": "address",
          "name": "to",
          "type": "address"
        }
      ],
      "name": "supplyTokenTo",
      "outputs": [],
      "stateMutability": "nonpayable",
      "type": "function"
    },
    {
      "inputs": [],
      "name": "symbol",
      "outputs": [
        {
          "internalType": "string",
          "name": "",
          "type": "string"
        }
      ],
      "stateMutability": "view",
      "type": "function"
    },
    {
      "inputs": [],
      "name": "tokenAddress",
      "outputs": [
        {
          "internalType": "address",
          "name": "",
          "type": "address"
        }
      ],
      "stateMutability": "view",
      "type": "function"
    },
    {
      "inputs": [
        {
          "internalType": "uint256",
          "name": "tokens",
          "type": "uint256"
        }
      ],
      "name": "tokenToShares",
      "outputs": [
        {
          "internalType": "uint256",
          "name": "",
          "type": "uint256"
        }
      ],
      "stateMutability": "view",
      "type": "function"
    },
    {
      "inputs": [],
      "name": "totalSupply",
      "outputs": [
        {
          "internalType": "uint256",
          "name": "",
          "type": "uint256"
        }
      ],
      "stateMutability": "view",
      "type": "function"
    },
    {
      "inputs": [
        {
          "internalType": "address",
          "name": "recipient",
          "type": "address"
        },
        {
          "internalType": "uint256",
          "name": "amount",
          "type": "uint256"
        }
      ],
      "name": "transfer",
      "outputs": [
        {
          "internalType": "bool",
          "name": "",
          "type": "bool"
        }
      ],
      "stateMutability": "nonpayable",
      "type": "function"
    },
    {
      "inputs": [
        {
          "internalType": "contract IERC20",
          "name": "erc20Token",
          "type": "address"
        },
        {
          "internalType": "address",
          "name": "to",
          "type": "address"
        },
        {
          "internalType": "uint256",
          "name": "amount",
          "type": "uint256"
        }
      ],
      "name": "transferERC20",
      "outputs": [],
      "stateMutability": "nonpayable",
      "type": "function"
    },
    {
      "inputs": [
        {
          "internalType": "address",
          "name": "sender",
          "type": "address"
        },
        {
          "internalType": "address",
          "name": "recipient",
          "type": "address"
        },
        {
          "internalType": "uint256",
          "name": "amount",
          "type": "uint256"
        }
      ],
      "name": "transferFrom",
      "outputs": [
        {
          "internalType": "bool",
          "name": "",
          "type": "bool"
        }
      ],
      "stateMutability": "nonpayable",
      "type": "function"
    },
    {
      "inputs": [
        {
          "internalType": "address",
          "name": "_newOwner",
          "type": "address"
        }
      ],
      "name": "transferOwnership",
      "outputs": [],
      "stateMutability": "nonpayable",
      "type": "function"
    }
  ],
  "bytecode": "0x6101006040523480156200001257600080fd5b506040516200384638038062003846833981016040819052620000359162000ba5565b8686868686868680828481600390805190602001906200005792919062000970565b5080516200006d90600490602084019062000970565b50505062000081816200043b60201b60201c565b5060016008556001600160a01b038716620000f55760405162461bcd60e51b815260206004820152602960248201527f41546f6b656e5969656c64536f757263652f61546f6b656e2d6e6f742d7a65726044820152686f2d6164647265737360b81b60648201526084015b60405180910390fd5b6001600160a01b038616620001735760405162461bcd60e51b815260206004820152603760248201527f41546f6b656e5969656c64536f757263652f696e63656e7469766573436f6e7460448201527f726f6c6c65722d6e6f742d7a65726f2d616464726573730000000000000000006064820152608401620000ec565b6001600160a01b038516620001f15760405162461bcd60e51b815260206004820152603660248201527f41546f6b656e5969656c64536f757263652f6c656e64696e67506f6f6c52656760448201527f69737472792d6e6f742d7a65726f2d61646472657373000000000000000000006064820152608401620000ec565b6001600160a01b0381166200025a5760405162461bcd60e51b815260206004820152602860248201527f41546f6b656e5969656c64536f757263652f6f776e65722d6e6f742d7a65726f6044820152672d6164647265737360c01b6064820152608401620000ec565b60008460ff1611620002ba5760405162461bcd60e51b815260206004820152602260248201527f41546f6b656e5969656c64536f757263652f646563696d616c732d67742d7a65604482015261726f60f01b6064820152608401620000ec565b6001600160601b0319606088811b821660805287901b1660a052600980546001600160a01b038781166001600160a01b0319909216919091179091557fff0000000000000000000000000000000000000000000000000000000000000060f886901b1660e052604080516358b50cef60e11b815290516000928a169163b16a19de916004808301926020929190829003018186803b1580156200035c57600080fd5b505afa15801562000371573d6000803e3d6000fd5b505050506040513d601f19601f8201168201806040525081019062000397919062000a9c565b6001600160601b0319606082901b1660c0529050620003db620003b96200048d565b600019836001600160a01b0316620005a760201b62001443179092919060201c565b876001600160a01b03167ffba57dff735bfaf5226b0a6e4ea8161ce10896963a36f6db20759f10b0055b4087878688876040516200041e95949392919062000ce3565b60405180910390a250505050505050505050505050505062000e37565b600580546001600160a01b038381166001600160a01b0319831681179093556040519116919082907f8be0079c531659141344cd1fd0a4f28419497f9722a3daafe3b4186f6b6457e090600090a35050565b6009546040805163365ccbbf60e01b815290516000926001600160a01b03169163365ccbbf9160048083019286929190829003018186803b158015620004d257600080fd5b505afa158015620004e7573d6000803e3d6000fd5b505050506040513d6000823e601f3d908101601f1916820160405262000511919081019062000abc565b60008151811062000526576200052662000df2565b60200260200101516001600160a01b0316630261bf8b6040518163ffffffff1660e01b815260040160206040518083038186803b1580156200056757600080fd5b505afa1580156200057c573d6000803e3d6000fd5b505050506040513d601f19601f82011682018060405250810190620005a2919062000a9c565b905090565b801580620006355750604051636eb1769f60e11b81523060048201526001600160a01b03838116602483015284169063dd62ed3e9060440160206040518083038186803b158015620005f857600080fd5b505afa1580156200060d573d6000803e3d6000fd5b505050506040513d601f19601f8201168201806040525081019062000633919062000c7d565b155b620006a95760405162461bcd60e51b815260206004820152603660248201527f5361666545524332303a20617070726f76652066726f6d206e6f6e2d7a65726f60448201527f20746f206e6f6e2d7a65726f20616c6c6f77616e6365000000000000000000006064820152608401620000ec565b604080516001600160a01b038416602482015260448082018490528251808303909101815260649091019091526020810180516001600160e01b0390811663095ea7b360e01b17909152620007019185916200070616565b505050565b600062000762826040518060400160405280602081526020017f5361666545524332303a206c6f772d6c6576656c2063616c6c206661696c6564815250856001600160a01b0316620007e460201b6200159f179092919060201c565b80519091501562000701578080602001905181019062000783919062000b81565b620007015760405162461bcd60e51b815260206004820152602a60248201527f5361666545524332303a204552433230206f7065726174696f6e20646964206e6044820152691bdd081cdd58d8d9595960b21b6064820152608401620000ec565b6060620007f58484600085620007ff565b90505b9392505050565b606082471015620008625760405162461bcd60e51b815260206004820152602660248201527f416464726573733a20696e73756666696369656e742062616c616e636520666f6044820152651c8818d85b1b60d21b6064820152608401620000ec565b843b620008b25760405162461bcd60e51b815260206004820152601d60248201527f416464726573733a2063616c6c20746f206e6f6e2d636f6e74726163740000006044820152606401620000ec565b600080866001600160a01b03168587604051620008d0919062000cc5565b60006040518083038185875af1925050503d80600081146200090f576040519150601f19603f3d011682016040523d82523d6000602084013e62000914565b606091505b5090925090506200092782828662000932565b979650505050505050565b6060831562000943575081620007f8565b825115620009545782518084602001fd5b8160405162461bcd60e51b8152600401620000ec919062000d3a565b8280546200097e9062000db5565b90600052602060002090601f016020900481019282620009a25760008555620009ed565b82601f10620009bd57805160ff1916838001178555620009ed565b82800160010185558215620009ed579182015b82811115620009ed578251825591602001919060010190620009d0565b50620009fb929150620009ff565b5090565b5b80821115620009fb576000815560010162000a00565b805162000a238162000e1e565b919050565b600082601f83011262000a3a57600080fd5b81516001600160401b0381111562000a565762000a5662000e08565b62000a6b601f8201601f191660200162000d4f565b81815284602083860101111562000a8157600080fd5b62000a9482602083016020870162000d82565b949350505050565b60006020828403121562000aaf57600080fd5b8151620007f88162000e1e565b6000602080838503121562000ad057600080fd5b82516001600160401b038082111562000ae857600080fd5b818501915085601f83011262000afd57600080fd5b81518181111562000b125762000b1262000e08565b8060051b915062000b2584830162000d4f565b8181528481019084860184860187018a101562000b4157600080fd5b600095505b8386101562000b74578051945062000b5e8562000e1e565b8483526001959095019491860191860162000b46565b5098975050505050505050565b60006020828403121562000b9457600080fd5b81518015158114620007f857600080fd5b600080600080600080600060e0888a03121562000bc157600080fd5b875162000bce8162000e1e565b602089015190975062000be18162000e1e565b604089015190965062000bf48162000e1e565b606089015190955060ff8116811462000c0c57600080fd5b60808901519094506001600160401b038082111562000c2a57600080fd5b62000c388b838c0162000a28565b945060a08a015191508082111562000c4f57600080fd5b5062000c5e8a828b0162000a28565b92505062000c6f60c0890162000a16565b905092959891949750929550565b60006020828403121562000c9057600080fd5b5051919050565b6000815180845262000cb181602086016020860162000d82565b601f01601f19169290920160200192915050565b6000825162000cd981846020870162000d82565b9190910192915050565b600060018060a01b03808816835260ff8716602084015260a0604084015262000d1060a084018762000c97565b838103606085015262000d24818762000c97565b9250508084166080840152509695505050505050565b602081526000620007f8602083018462000c97565b604051601f8201601f191681016001600160401b038111828210171562000d7a5762000d7a62000e08565b604052919050565b60005b8381101562000d9f57818101518382015260200162000d85565b8381111562000daf576000848401525b50505050565b600181811c9082168062000dca57607f821691505b6020821081141562000dec57634e487b7160e01b600052602260045260246000fd5b50919050565b634e487b7160e01b600052603260045260246000fd5b634e487b7160e01b600052604160045260246000fd5b6001600160a01b038116811462000e3457600080fd5b50565b60805160601c60a05160601c60c05160601c60e05160f81c61297562000ed1600039600061029601526000818161047d015281816105940152818161063c01528181610fff01528181611e3b0152611e8201526000818161043301526111840152600081816103de01528181610ad401528181610c1001528181610d03015281816111ba015281816115f90152611da701526129756000f3fe608060405234801561001057600080fd5b50600436106102115760003560e01c80638da5cb5b11610125578063b6cce5e2116100ad578063daa4f9751161007c578063daa4f975146104b4578063dd62ed3e146104bc578063e30c3978146104f5578063ef5cfb8c14610506578063f2fde38b1461051957600080fd5b8063b6cce5e214610455578063b99152d014610468578063c89039c51461047b578063d0ebdbe7146104a157600080fd5b8063a0c1f15e116100f4578063a0c1f15e146103d9578063a457c2d714610400578063a59a997314610413578063a9059cbb1461041b578063af1df2551461042e57600080fd5b80638da5cb5b146103a557806395d89b41146103b65780639d76ea58146103be5780639db5dbe4146103c657600080fd5b806340c10f19116101a857806370a082311161017757806370a082311461033b578063715018a614610364578063873ba41e1461036c57806387a6eeef1461037f5780638922bd351461039257600080fd5b806340c10f19146102e6578063481c6a75146102f95780634e71e0c81461031e5780636cf81ec61461032857600080fd5b806323b872dd116101e457806323b872dd1461027c578063313ce5671461028f578063361bb0c1146102c057806339509351146102d357600080fd5b8063013054c21461021657806306fdde031461023c578063095ea7b31461025157806318160ddd14610274575b600080fd5b610229610224366004612616565b61052c565b6040519081526020015b60405180910390f35b6102446107b8565b604051610233919061272a565b61026461025f3660046124fc565b61084a565b6040519015158152602001610233565b600254610229565b61026461028a3660046124bb565b610861565b60405160ff7f0000000000000000000000000000000000000000000000000000000000000000168152602001610233565b6102296102ce366004612616565b61090d565b6102646102e13660046124fc565b610918565b6102646102f43660046124fc565b610954565b6007546001600160a01b03165b6040516001600160a01b039091168152602001610233565b610326610960565b005b610229610336366004612616565b6109e1565b610229610349366004612448565b6001600160a01b031660009081526020819052604090205490565b6103266109ec565b600954610306906001600160a01b031681565b61032661038d366004612648565b610a31565b6103266103a0366004612616565b610ad2565b6005546001600160a01b0316610306565b610244610bfd565b610306610c0c565b6103266103d43660046124bb565b610ca4565b6103067f000000000000000000000000000000000000000000000000000000000000000081565b61026461040e3660046124fc565b610e09565b610306610ea2565b6102646104293660046124fc565b610eac565b6103067f000000000000000000000000000000000000000000000000000000000000000081565b610326610463366004612616565b610eb9565b610229610476366004612448565b610f27565b7f0000000000000000000000000000000000000000000000000000000000000000610306565b6102646104af366004612448565b610f49565b610264610f92565b6102296104ca366004612482565b6001600160a01b03918216600090815260016020908152604080832093909416825291909152205490565b6006546001600160a01b0316610306565b610264610514366004612448565b6110a9565b610326610527366004612448565b61135c565b60006002600854141561055a5760405162461bcd60e51b8152600401610551906127da565b60405180910390fd5b6002600855600061056a836115b6565b90506105758161168f565b61057f33826116e2565b6040516370a0823160e01b81523060048201527f0000000000000000000000000000000000000000000000000000000000000000906000906001600160a01b038316906370a082319060240160206040518083038186803b1580156105e357600080fd5b505afa1580156105f7573d6000803e3d6000fd5b505050506040513d601f19601f8201168201806040525081019061061b919061262f565b9050610625611830565b604051631a4ca37b60e21b81526001600160a01b037f0000000000000000000000000000000000000000000000000000000000000000811660048301526024820188905230604483015291909116906369328dec90606401602060405180830381600087803b15801561069757600080fd5b505af11580156106ab573d6000803e3d6000fd5b505050506040513d601f19601f820116820180604052508101906106cf919061262f565b506040516370a0823160e01b81523060048201526000906001600160a01b038416906370a082319060240160206040518083038186803b15801561071257600080fd5b505afa158015610726573d6000803e3d6000fd5b505050506040513d601f19601f8201168201806040525081019061074a919061262f565b905060006107588284611902565b905061076e6001600160a01b038516338361190e565b604080518681526020810189905233917f5c9b0a8fe13a826ca676f5ad4f98c747b5086beb79ab58589b8211b62fa32fb9910160405180910390a260016008559695505050505050565b6060600380546107c7906128ad565b80601f01602080910402602001604051908101604052809291908181526020018280546107f3906128ad565b80156108405780601f1061081557610100808354040283529160200191610840565b820191906000526020600020905b81548152906001019060200180831161082357829003601f168201915b5050505050905090565b600061085733848461193e565b5060015b92915050565b600061086e848484611a62565b6001600160a01b0384166000908152600160209081526040808320338452909152902054828110156108f35760405162461bcd60e51b815260206004820152602860248201527f45524332303a207472616e7366657220616d6f756e74206578636565647320616044820152676c6c6f77616e636560c01b6064820152608401610551565b610900853385840361193e565b60019150505b9392505050565b600061085b826115b6565b3360008181526001602090815260408083206001600160a01b0387168452909152812054909161085791859061094f908690612811565b61193e565b60006108578383611c32565b6006546001600160a01b031633146109ba5760405162461bcd60e51b815260206004820152601f60248201527f4f776e61626c652f63616c6c65722d6e6f742d70656e64696e674f776e6572006044820152606401610551565b6006546109cf906001600160a01b0316611d11565b600680546001600160a01b0319169055565b600061085b82611d63565b336109ff6005546001600160a01b031690565b6001600160a01b031614610a255760405162461bcd60e51b81526004016105519061275d565b610a2f6000611d11565b565b60026008541415610a545760405162461bcd60e51b8152600401610551906127da565b60026008556000610a64836115b6565b9050610a6f8161168f565b610a7883611e2e565b610a828282611c32565b60408051828152602081018590526001600160a01b0384169133917fdef5cc95ad9b1c65c586d0fce815ec764b575719636edf58ff2553ae6f110452910160405180910390a35050600160085550565b7f00000000000000000000000000000000000000000000000000000000000000006001600160a01b031663b16a19de6040518163ffffffff1660e01b815260040160206040518083038186803b158015610b2b57600080fd5b505afa158015610b3f573d6000803e3d6000fd5b505050506040513d601f19601f82011682018060405250810190610b639190612465565b6001600160a01b031663095ea7b3610b79611830565b6040516001600160e01b031960e084901b1681526001600160a01b03909116600482015260248101849052604401602060405180830381600087803b158015610bc157600080fd5b505af1158015610bd5573d6000803e3d6000fd5b505050506040513d601f19601f82011682018060405250810190610bf991906125f4565b5050565b6060600480546107c7906128ad565b60007f00000000000000000000000000000000000000000000000000000000000000006001600160a01b031663b16a19de6040518163ffffffff1660e01b815260040160206040518083038186803b158015610c6757600080fd5b505afa158015610c7b573d6000803e3d6000fd5b505050506040513d601f19601f82011682018060405250810190610c9f9190612465565b905090565b33610cb76007546001600160a01b031690565b6001600160a01b03161480610ce5575033610cda6005546001600160a01b031690565b6001600160a01b0316145b610d015760405162461bcd60e51b815260040161055190612794565b7f00000000000000000000000000000000000000000000000000000000000000006001600160a01b0316836001600160a01b03161415610d995760405162461bcd60e51b815260206004820152602d60248201527f41546f6b656e5969656c64536f757263652f61546f6b656e2d7472616e73666560448201526c1c8b5b9bdd0b585b1b1bddd959609a1b6064820152608401610551565b610dad6001600160a01b038416838361190e565b826001600160a01b0316826001600160a01b0316336001600160a01b03167f29fcb7bb954d37295343e742bab21760748bdba4e026e4469a8100183996913884604051610dfc91815260200190565b60405180910390a4505050565b3360009081526001602090815260408083206001600160a01b038616845290915281205482811015610e8b5760405162461bcd60e51b815260206004820152602560248201527f45524332303a2064656372656173656420616c6c6f77616e63652062656c6f77604482015264207a65726f60d81b6064820152608401610551565b610e98338585840361193e565b5060019392505050565b6000610c9f611830565b6000610857338484611a62565b60026008541415610edc5760405162461bcd60e51b8152600401610551906127da565b6002600855610eea81611e2e565b60405181815233907fbb2c10eb8b0d65523a501a1c079906e38af3c4231e31b799d408daacd7ce72269060200160405180910390a2506001600855565b6001600160a01b03811660009081526020819052604081205461085b90611d63565b600033610f5e6005546001600160a01b031690565b6001600160a01b031614610f845760405162461bcd60e51b81526004016105519061275d565b61085b82611eff565b919050565b600033610fa76005546001600160a01b031690565b6001600160a01b031614610fcd5760405162461bcd60e51b81526004016105519061275d565b6000610fd7611830565b604051636eb1769f60e11b81523060048201526001600160a01b0380831660248301529192507f0000000000000000000000000000000000000000000000000000000000000000916110a091849161108f919085169063dd62ed3e9060440160206040518083038186803b15801561104e57600080fd5b505afa158015611062573d6000803e3d6000fd5b505050506040513d601f19601f82011682018060405250810190611086919061262f565b60001990611902565b6001600160a01b0384169190611fc4565b60019250505090565b6000336110be6007546001600160a01b031690565b6001600160a01b031614806110ec5750336110e16005546001600160a01b031690565b6001600160a01b0316145b6111085760405162461bcd60e51b815260040161055190612794565b6001600160a01b0382166111735760405162461bcd60e51b815260206004820152602c60248201527f41546f6b656e5969656c64536f757263652f726563697069656e742d6e6f742d60448201526b7a65726f2d6164647265737360a01b6064820152608401610551565b6040805160018082528183019092527f00000000000000000000000000000000000000000000000000000000000000009160009190602080830190803683370190505090507f0000000000000000000000000000000000000000000000000000000000000000816000815181106111ec576111ec6128fe565b6001600160a01b0392831660209182029290920101526040516345accf9360e11b8152600091841690638b599f269061122b90859030906004016126cd565b60206040518083038186803b15801561124357600080fd5b505afa158015611257573d6000803e3d6000fd5b505050506040513d601f19601f8201168201806040525081019061127b919061262f565b90506000836001600160a01b0316633111e7b38484896040518463ffffffff1660e01b81526004016112af939291906126f7565b602060405180830381600087803b1580156112c957600080fd5b505af11580156112dd573d6000803e3d6000fd5b505050506040513d601f19601f82011682018060405250810190611301919061262f565b9050856001600160a01b0316336001600160a01b03167ff7a40077ff7a04c7e61f6f26fb13774259ddf1b6bce9ecf26a8276cdd39926838360405161134891815260200190565b60405180910390a350600195945050505050565b3361136f6005546001600160a01b031690565b6001600160a01b0316146113955760405162461bcd60e51b81526004016105519061275d565b6001600160a01b0381166113f95760405162461bcd60e51b815260206004820152602560248201527f4f776e61626c652f70656e64696e674f776e65722d6e6f742d7a65726f2d6164604482015264647265737360d81b6064820152608401610551565b600680546001600160a01b0319166001600160a01b0383169081179091556040517f239a2ddded15777fa246aed5f7e1a9bc69a39d4eb4a397034d1d85766cca7d4c90600090a250565b8015806114cc5750604051636eb1769f60e11b81523060048201526001600160a01b03838116602483015284169063dd62ed3e9060440160206040518083038186803b15801561149257600080fd5b505afa1580156114a6573d6000803e3d6000fd5b505050506040513d601f19601f820116820180604052508101906114ca919061262f565b155b6115375760405162461bcd60e51b815260206004820152603660248201527f5361666545524332303a20617070726f76652066726f6d206e6f6e2d7a65726f60448201527520746f206e6f6e2d7a65726f20616c6c6f77616e636560501b6064820152608401610551565b6040516001600160a01b03831660248201526044810182905261159a90849063095ea7b360e01b906064015b60408051601f198184030181529190526020810180516001600160e01b03166001600160e01b031990931692909217909152612085565b505050565b60606115ae8484600085612157565b949350505050565b60008060006115c460025490565b9050806115d357839150611688565b6040516370a0823160e01b81523060048201526000906116789083906001600160a01b037f000000000000000000000000000000000000000000000000000000000000000016906370a082319060240160206040518083038186803b15801561163b57600080fd5b505afa15801561164f573d6000803e3d6000fd5b505050506040513d601f19601f82011682018060405250810190611673919061262f565b61227f565b905061168485826122a0565b9250505b5092915050565b600081116116df5760405162461bcd60e51b815260206004820181905260248201527f41546f6b656e5969656c64536f757263652f7368617265732d67742d7a65726f6044820152606401610551565b50565b6001600160a01b0382166117425760405162461bcd60e51b815260206004820152602160248201527f45524332303a206275726e2066726f6d20746865207a65726f206164647265736044820152607360f81b6064820152608401610551565b6001600160a01b038216600090815260208190526040902054818110156117b65760405162461bcd60e51b815260206004820152602260248201527f45524332303a206275726e20616d6f756e7420657863656564732062616c616e604482015261636560f01b6064820152608401610551565b6001600160a01b03831660009081526020819052604081208383039055600280548492906117e590849061286a565b90915550506040518281526000906001600160a01b038516907fddf252ad1be2c89b69c2b068fc378daa952ba7f163c4a11628f55a4df523b3ef9060200160405180910390a3505050565b6009546040805163365ccbbf60e01b815290516000926001600160a01b03169163365ccbbf9160048083019286929190829003018186803b15801561187457600080fd5b505afa158015611888573d6000803e3d6000fd5b505050506040513d6000823e601f3d908101601f191682016040526118b09190810190612528565b6000815181106118c2576118c26128fe565b60200260200101516001600160a01b0316630261bf8b6040518163ffffffff1660e01b815260040160206040518083038186803b158015610c6757600080fd5b6000610906828461286a565b6040516001600160a01b03831660248201526044810182905261159a90849063a9059cbb60e01b90606401611563565b6001600160a01b0383166119a05760405162461bcd60e51b8152602060048201526024808201527f45524332303a20617070726f76652066726f6d20746865207a65726f206164646044820152637265737360e01b6064820152608401610551565b6001600160a01b038216611a015760405162461bcd60e51b815260206004820152602260248201527f45524332303a20617070726f766520746f20746865207a65726f206164647265604482015261737360f01b6064820152608401610551565b6001600160a01b0383811660008181526001602090815260408083209487168084529482529182902085905590518481527f8c5be1e5ebec7d5bd14f71427d1e84f3dd0314c0f7b2291e5b200ac8c7c3b925910160405180910390a3505050565b6001600160a01b038316611ac65760405162461bcd60e51b815260206004820152602560248201527f45524332303a207472616e736665722066726f6d20746865207a65726f206164604482015264647265737360d81b6064820152608401610551565b6001600160a01b038216611b285760405162461bcd60e51b815260206004820152602360248201527f45524332303a207472616e7366657220746f20746865207a65726f206164647260448201526265737360e81b6064820152608401610551565b6001600160a01b03831660009081526020819052604090205481811015611ba05760405162461bcd60e51b815260206004820152602660248201527f45524332303a207472616e7366657220616d6f756e7420657863656564732062604482015265616c616e636560d01b6064820152608401610551565b6001600160a01b03808516600090815260208190526040808220858503905591851681529081208054849290611bd7908490612811565b92505081905550826001600160a01b0316846001600160a01b03167fddf252ad1be2c89b69c2b068fc378daa952ba7f163c4a11628f55a4df523b3ef84604051611c2391815260200190565b60405180910390a35b50505050565b6001600160a01b038216611c885760405162461bcd60e51b815260206004820152601f60248201527f45524332303a206d696e7420746f20746865207a65726f2061646472657373006044820152606401610551565b8060026000828254611c9a9190612811565b90915550506001600160a01b03821660009081526020819052604081208054839290611cc7908490612811565b90915550506040518181526001600160a01b038316906000907fddf252ad1be2c89b69c2b068fc378daa952ba7f163c4a11628f55a4df523b3ef9060200160405180910390a35050565b600580546001600160a01b038381166001600160a01b0319831681179093556040519116919082907f8be0079c531659141344cd1fd0a4f28419497f9722a3daafe3b4186f6b6457e090600090a35050565b6000806000611d7160025490565b905080611d8057839150611688565b6040516370a0823160e01b81523060048201526115ae908290611e28906001600160a01b037f000000000000000000000000000000000000000000000000000000000000000016906370a082319060240160206040518083038186803b158015611de957600080fd5b505afa158015611dfd573d6000803e3d6000fd5b505050506040513d601f19601f82011682018060405250810190611e21919061262f565b87906122c1565b906122cd565b611e636001600160a01b037f0000000000000000000000000000000000000000000000000000000000000000163330846122d9565b611e6b611830565b60405163e8eda9df60e01b81526001600160a01b037f0000000000000000000000000000000000000000000000000000000000000000811660048301526024820184905230604483015260bc6064830152919091169063e8eda9df90608401600060405180830381600087803b158015611ee457600080fd5b505af1158015611ef8573d6000803e3d6000fd5b5050505050565b6007546000906001600160a01b03908116908316811415611f6e5760405162461bcd60e51b815260206004820152602360248201527f4d616e61676561626c652f6578697374696e672d6d616e616765722d6164647260448201526265737360e81b6064820152608401610551565b600780546001600160a01b0319166001600160a01b0385811691821790925560405190918316907f9cb45c728de594dab506a1f1a8554e24c8eeaf983618d5ec5dd7bc6f3c49feee90600090a350600192915050565b604051636eb1769f60e11b81523060048201526001600160a01b038381166024830152600091839186169063dd62ed3e9060440160206040518083038186803b15801561201057600080fd5b505afa158015612024573d6000803e3d6000fd5b505050506040513d601f19601f82011682018060405250810190612048919061262f565b6120529190612811565b6040516001600160a01b038516602482015260448101829052909150611c2c90859063095ea7b360e01b90606401611563565b60006120da826040518060400160405280602081526020017f5361666545524332303a206c6f772d6c6576656c2063616c6c206661696c6564815250856001600160a01b031661159f9092919063ffffffff16565b80519091501561159a57808060200190518101906120f891906125f4565b61159a5760405162461bcd60e51b815260206004820152602a60248201527f5361666545524332303a204552433230206f7065726174696f6e20646964206e6044820152691bdd081cdd58d8d9595960b21b6064820152608401610551565b6060824710156121b85760405162461bcd60e51b815260206004820152602660248201527f416464726573733a20696e73756666696369656e742062616c616e636520666f6044820152651c8818d85b1b60d21b6064820152608401610551565b843b6122065760405162461bcd60e51b815260206004820152601d60248201527f416464726573733a2063616c6c20746f206e6f6e2d636f6e74726163740000006044820152606401610551565b600080866001600160a01b0316858760405161222291906126b1565b60006040518083038185875af1925050503d806000811461225f576040519150601f19603f3d011682016040523d82523d6000602084013e612264565b606091505b5091509150612274828286612311565b979650505050505050565b60008061229484670de0b6b3a764000061234a565b90506115ae81846123c9565b6000806122ad838561234a565b90506115ae81670de0b6b3a76400006123c9565b6000610906828461284b565b60006109068284612829565b6040516001600160a01b0380851660248301528316604482015260648101829052611c2c9085906323b872dd60e01b90608401611563565b60608315612320575081610906565b8251156123305782518084602001fd5b8160405162461bcd60e51b8152600401610551919061272a565b6000826123595750600061085b565b6000612365838561284b565b9050826123728583612829565b146109065760405162461bcd60e51b815260206004820152602160248201527f536166654d6174683a206d756c7469706c69636174696f6e206f766572666c6f6044820152607760f81b6064820152608401610551565b600061090683836040518060400160405280601a81526020017f536166654d6174683a206469766973696f6e206279207a65726f000000000000815250600081836124275760405162461bcd60e51b8152600401610551919061272a565b5060006124348486612829565b95945050505050565b8051610f8d8161292a565b60006020828403121561245a57600080fd5b81356109068161292a565b60006020828403121561247757600080fd5b81516109068161292a565b6000806040838503121561249557600080fd5b82356124a08161292a565b915060208301356124b08161292a565b809150509250929050565b6000806000606084860312156124d057600080fd5b83356124db8161292a565b925060208401356124eb8161292a565b929592945050506040919091013590565b6000806040838503121561250f57600080fd5b823561251a8161292a565b946020939093013593505050565b6000602080838503121561253b57600080fd5b825167ffffffffffffffff8082111561255357600080fd5b818501915085601f83011261256757600080fd5b81518181111561257957612579612914565b8060051b604051601f19603f8301168101818110858211171561259e5761259e612914565b604052828152858101935084860182860187018a10156125bd57600080fd5b600095505b838610156125e7576125d38161243d565b8552600195909501949386019386016125c2565b5098975050505050505050565b60006020828403121561260657600080fd5b8151801515811461090657600080fd5b60006020828403121561262857600080fd5b5035919050565b60006020828403121561264157600080fd5b5051919050565b6000806040838503121561265b57600080fd5b8235915060208301356124b08161292a565b600081518084526020808501945080840160005b838110156126a65781516001600160a01b031687529582019590820190600101612681565b509495945050505050565b600082516126c3818460208701612881565b9190910192915050565b6040815260006126e0604083018561266d565b905060018060a01b03831660208301529392505050565b60608152600061270a606083018661266d565b6020830194909452506001600160a01b0391909116604090910152919050565b6020815260008251806020840152612749816040850160208701612881565b601f01601f19169190910160400192915050565b60208082526018908201527f4f776e61626c652f63616c6c65722d6e6f742d6f776e65720000000000000000604082015260600190565b60208082526026908201527f4d616e61676561626c652f63616c6c65722d6e6f742d6d616e616765722d6f7260408201526516b7bbb732b960d11b606082015260800190565b6020808252601f908201527f5265656e7472616e637947756172643a207265656e7472616e742063616c6c00604082015260600190565b60008219821115612824576128246128e8565b500190565b60008261284657634e487b7160e01b600052601260045260246000fd5b500490565b6000816000190483118215151615612865576128656128e8565b500290565b60008282101561287c5761287c6128e8565b500390565b60005b8381101561289c578181015183820152602001612884565b83811115611c2c5750506000910152565b600181811c908216806128c157607f821691505b602082108114156128e257634e487b7160e01b600052602260045260246000fd5b50919050565b634e487b7160e01b600052601160045260246000fd5b634e487b7160e01b600052603260045260246000fd5b634e487b7160e01b600052604160045260246000fd5b6001600160a01b03811681146116df57600080fdfea26469706673582212200d5de3ed7b728825d650b4e60f9efd0a8861f2f4523ca6e3f4b182688e99f84764736f6c63430008060033",
  "linkReferences": {},
  "deployedLinkReferences": {}
}