{
  "_format": "hh-sol-artifact-1",
  "contractName": "TwabLib",
  "sourceName": "contracts/libraries/TwabLib.sol",
  "abi": [
    {
      "inputs": [],
      "name": "MAX_CARDINALITY",
      "outputs": [
        {
          "internalType": "uint24",
          "name": "",
          "type": "uint24"
        }
      ],
      "stateMutability": "view",
      "type": "function"
    }
  ],
  "bytecode": "0x608f610038600b82828239805160001a607314602b57634e487b7160e01b600052600060045260246000fd5b30600052607381538281f3fe730000000000000000000000000000000000000000301460806040526004361060335760003560e01c80638200d873146038575b600080fd5b604162ffffff81565b60405162ffffff909116815260200160405180910390f3fea26469706673582212201877af64cfa31e9ffd2155d0073aea9789d4b3db9825e8d63ae71afb3dd0ad6164736f6c63430008060033",
  "linkReferences": {},
  "deployedLinkReferences": {}
}