{
  "_format": "hh-sol-artifact-1",
  "contractName": "NFTXGen0FastKittyEligibility",
  "sourceName": "contracts/solidity/eligibility/NFTXGen0FastEligibility.sol",
  "abi": [
    {
      "anonymous": false,
      "inputs": [],
      "name": "NFTXEligibilityInit",
      "type": "event"
    },
    {
      "inputs": [],
      "name": "__NFTXEligibility_init",
      "outputs": [],
      "stateMutability": "nonpayable",
      "type": "function"
    },
    {
      "inputs": [
        {
          "internalType": "bytes",
          "name": "",
          "type": "bytes"
        }
      ],
      "name": "__NFTXEligibility_init_bytes",
      "outputs": [],
      "stateMutability": "nonpayable",
      "type": "function"
    },
    {
      "inputs": [
        {
          "internalType": "uint256[]",
          "name": "tokenIds",
          "type": "uint256[]"
        }
      ],
      "name": "afterMintHook",
      "outputs": [],
      "stateMutability": "nonpayable",
      "type": "function"
    },
    {
      "inputs": [
        {
          "internalType": "uint256[]",
          "name": "tokenIds",
          "type": "uint256[]"
        }
      ],
      "name": "afterRedeemHook",
      "outputs": [],
      "stateMutability": "nonpayable",
      "type": "function"
    },
    {
      "inputs": [
        {
          "internalType": "uint256[]",
          "name": "tokenIds",
          "type": "uint256[]"
        }
      ],
      "name": "beforeMintHook",
      "outputs": [],
      "stateMutability": "nonpayable",
      "type": "function"
    },
    {
      "inputs": [
        {
          "internalType": "uint256[]",
          "name": "tokenIds",
          "type": "uint256[]"
        }
      ],
      "name": "beforeRedeemHook",
      "outputs": [],
      "stateMutability": "nonpayable",
      "type": "function"
    },
    {
      "inputs": [
        {
          "internalType": "uint256[]",
          "name": "tokenIds",
          "type": "uint256[]"
        }
      ],
      "name": "checkAllEligible",
      "outputs": [
        {
          "internalType": "bool",
          "name": "",
          "type": "bool"
        }
      ],
      "stateMutability": "view",
      "type": "function"
    },
    {
      "inputs": [
        {
          "internalType": "uint256[]",
          "name": "tokenIds",
          "type": "uint256[]"
        }
      ],
      "name": "checkAllIneligible",
      "outputs": [
        {
          "internalType": "bool",
          "name": "",
          "type": "bool"
        }
      ],
      "stateMutability": "view",
      "type": "function"
    },
    {
      "inputs": [
        {
          "internalType": "uint256[]",
          "name": "tokenIds",
          "type": "uint256[]"
        }
      ],
      "name": "checkEligible",
      "outputs": [
        {
          "internalType": "bool[]",
          "name": "",
          "type": "bool[]"
        }
      ],
      "stateMutability": "view",
      "type": "function"
    },
    {
      "inputs": [
        {
          "internalType": "uint256",
          "name": "tokenId",
          "type": "uint256"
        }
      ],
      "name": "checkIsEligible",
      "outputs": [
        {
          "internalType": "bool",
          "name": "",
          "type": "bool"
        }
      ],
      "stateMutability": "view",
      "type": "function"
    },
    {
      "inputs": [],
      "name": "finalized",
      "outputs": [
        {
          "internalType": "bool",
          "name": "",
          "type": "bool"
        }
      ],
      "stateMutability": "view",
      "type": "function"
    },
    {
      "inputs": [],
      "name": "name",
      "outputs": [
        {
          "internalType": "string",
          "name": "",
          "type": "string"
        }
      ],
      "stateMutability": "pure",
      "type": "function"
    },
    {
      "inputs": [],
      "name": "targetAsset",
      "outputs": [
        {
          "internalType": "address",
          "name": "",
          "type": "address"
        }
      ],
      "stateMutability": "pure",
      "type": "function"
    }
  ],
  "bytecode": "0x608060405234801561001057600080fd5b506108ce806100206000396000f3fe608060405234801561001057600080fd5b50600436106100df5760003560e01c80636cd912601161008c578063b3f05b9711610066578063b3f05b97146101c0578063bd8affde1461012c578063ca373f28146101c7578063d2a096e8146101da57600080fd5b80636cd912601461017557806384ca9f8514610195578063b1eb9f87146101b857600080fd5b80634998b7f3116100bd5780634998b7f3146101625780635e2f9b521461012c5780636c47d5951461012c57600080fd5b806306fdde03146100e457806336eb08621461012c5780633d4403ac14610140575b600080fd5b604080518082018252600d81527f47656e30466173744b6974747900000000000000000000000000000000000000602082015290516101239190610808565b60405180910390f35b61013e61013a36600461060f565b5050565b005b6040517306012c8cf97bead5deae237070f9587f8e7a266d8152602001610123565b61013e610170366004610700565b6101ed565b61018861018336600461060f565b6102bc565b60405161012391906107c2565b6101a86101a336600461060f565b610399565b6040519015158152602001610123565b61013e6103f2565b60016101a8565b6101a86101d536600461060f565b6104dd565b6101a86101e83660046107aa565b61052d565b600054610100900460ff1680610206575060005460ff16155b61027d5760405162461bcd60e51b815260206004820152602e60248201527f496e697469616c697a61626c653a20636f6e747261637420697320616c72656160448201527f647920696e697469616c697a656400000000000000000000000000000000000060648201526084015b60405180910390fd5b600054610100900460ff1615801561029f576000805461ffff19166101011790555b6102a76103f2565b801561013a576000805461ff00191690555050565b606060008267ffffffffffffffff8111156102e757634e487b7160e01b600052604160045260246000fd5b604051908082528060200260200182016040528015610310578160200160208202803683370190505b50905060005b8381101561038f5761034d85858381811061034157634e487b7160e01b600052603260045260246000fd5b90506020020135610534565b82828151811061036d57634e487b7160e01b600052603260045260246000fd5b91151560209283029190910190910152806103878161085b565b915050610316565b5090505b92915050565b6000805b828110156103e8576103c884848381811061034157634e487b7160e01b600052603260045260246000fd5b6103d6576000915050610393565b806103e08161085b565b91505061039d565b5060019392505050565b600054610100900460ff168061040b575060005460ff16155b61047d5760405162461bcd60e51b815260206004820152602e60248201527f496e697469616c697a61626c653a20636f6e747261637420697320616c72656160448201527f647920696e697469616c697a65640000000000000000000000000000000000006064820152608401610274565b600054610100900460ff1615801561049f576000805461ffff19166101011790555b6040517fb708568a0e67d40b1324a610ddd779500570f113513f944a791cc7b8b4970dec90600090a180156104da576000805461ff00191690555b50565b6000805b828110156103e85761050c84848381811061034157634e487b7160e01b600052603260045260246000fd5b1561051b576000915050610393565b806105258161085b565b9150506104e1565b6000610393825b6040517fe98b7f4d00000000000000000000000000000000000000000000000000000000815260048101829052600090819081907306012c8cf97bead5deae237070f9587f8e7a266d9063e98b7f4d906024016101406040518083038186803b1580156105a057600080fd5b505afa1580156105b4573d6000803e3d6000fd5b505050506040513d601f19601f820116820180604052508101906105d8919061067f565b5098505050505050935050508160001480156105f2575080155b949350505050565b8051801515811461060a57600080fd5b919050565b60008060208385031215610621578182fd5b823567ffffffffffffffff80821115610638578384fd5b818501915085601f83011261064b578384fd5b813581811115610659578485fd5b8660208260051b850101111561066d578485fd5b60209290920196919550909350505050565b6000806000806000806000806000806101408b8d03121561069e578586fd5b6106a78b6105fa565b99506106b560208c016105fa565b985060408b0151975060608b0151965060808b0151955060a08b0151945060c08b0151935060e08b015192506101008b015191506101208b015190509295989b9194979a5092959850565b600060208284031215610711578081fd5b813567ffffffffffffffff80821115610728578283fd5b818401915084601f83011261073b578283fd5b81358181111561074d5761074d610882565b604051601f8201601f19908116603f0116810190838211818310171561077557610775610882565b8160405282815287602084870101111561078d578586fd5b826020860160208301379182016020019490945295945050505050565b6000602082840312156107bb578081fd5b5035919050565b6020808252825182820181905260009190848201906040850190845b818110156107fc5783511515835292840192918401916001016107de565b50909695505050505050565b6000602080835283518082850152825b8181101561083457858101830151858201604001528201610818565b818111156108455783604083870101525b50601f01601f1916929092016040019392505050565b600060001982141561087b57634e487b7160e01b81526011600452602481fd5b5060010190565b634e487b7160e01b600052604160045260246000fdfea26469706673582212204f30d8577c63129f332e52636dbc096acaec2c01d6d1c2e11f01735ff582d1ff64736f6c63430008040033",
  "linkReferences": {},
  "deployedLinkReferences": {}
}