{
  "_format": "hh-sol-artifact-1",
  "contractName": "MarketRegistryMock",
  "sourceName": "contracts/tests/MarketRegistryMock.sol",
  "abi": [
    {
      "inputs": [],
      "name": "__MarketRegistryMock_init",
      "outputs": [],
      "stateMutability": "nonpayable",
      "type": "function"
    },
    {
      "inputs": [
        {
          "internalType": "address",
          "name": "token",
          "type": "address"
        },
        {
          "internalType": "address",
          "name": "uToken",
          "type": "address"
        }
      ],
      "name": "addUToken",
      "outputs": [],
      "stateMutability": "nonpayable",
      "type": "function"
    },
    {
      "inputs": [
        {
          "internalType": "address",
          "name": "token",
          "type": "address"
        },
        {
          "internalType": "address",
          "name": "userManager",
          "type": "address"
        }
      ],
      "name": "addUserManager",
      "outputs": [],
      "stateMutability": "nonpayable",
      "type": "function"
    },
    {
      "inputs": [
        {
          "internalType": "address",
          "name": "token",
          "type": "address"
        }
      ],
      "name": "deleteMarket",
      "outputs": [],
      "stateMutability": "nonpayable",
      "type": "function"
    },
    {
      "inputs": [
        {
          "internalType": "address",
          "name": "",
          "type": "address"
        }
      ],
      "name": "tokens",
      "outputs": [
        {
          "internalType": "address",
          "name": "uToken",
          "type": "address"
        },
        {
          "internalType": "address",
          "name": "userManager",
          "type": "address"
        }
      ],
      "stateMutability": "view",
      "type": "function"
    },
    {
      "inputs": [
        {
          "internalType": "uint256",
          "name": "",
          "type": "uint256"
        }
      ],
      "name": "uTokenList",
      "outputs": [
        {
          "internalType": "address",
          "name": "",
          "type": "address"
        }
      ],
      "stateMutability": "view",
      "type": "function"
    },
    {
      "inputs": [
        {
          "internalType": "uint256",
          "name": "",
          "type": "uint256"
        }
      ],
      "name": "userManagerList",
      "outputs": [
        {
          "internalType": "address",
          "name": "",
          "type": "address"
        }
      ],
      "stateMutability": "view",
      "type": "function"
    }
  ],
  "bytecode": "0x608060405234801561001057600080fd5b50610721806100206000396000f3fe608060405234801561001057600080fd5b506004361061007d5760003560e01c8063cdbffbf81161005b578063cdbffbf814610133578063d960e94a146101a7578063e4860339146101ba578063f5e157c81461020e57600080fd5b8063561b08da14610082578063615b1732146100fb5780637f93977a14610103575b600080fd5b6100f9610090366004610659565b6002805460018181019092557f405787fa12a823e0f2b7631cc41b3ba8828b3321ca811111fa75cd3aa3bb5ace0180546001600160a01b039384166001600160a01b03199182168117909255939092166000908152600360205260409020018054909216179055565b005b6100f9610221565b61011661011136600461068b565b6102d8565b6040516001600160a01b0390911681526020015b60405180910390f35b6100f9610141366004610659565b600180548082019091557fb10e2d527612073b26eecdfd717e6a320cf44b4afac2b0732d9fcbe2b7fa0cf60180546001600160a01b039283166001600160a01b031991821681179092559290911660009081526003602052604090208054909216179055565b6100f96101b5366004610638565b610302565b6101ee6101c8366004610638565b600360205260009081526040902080546001909101546001600160a01b03918216911682565b604080516001600160a01b0393841681529290911660208301520161012a565b61011661021c36600461068b565b61060c565b600054610100900460ff168061023a575060005460ff16155b6102a15760405162461bcd60e51b815260206004820152602e60248201527f496e697469616c697a61626c653a20636f6e747261637420697320616c72656160448201526d191e481a5b9a5d1a585b1a5e995960921b606482015260840160405180910390fd5b600054610100900460ff161580156102c3576000805461ffff19166101011790555b80156102d5576000805461ff00191690555b50565b600181815481106102e857600080fd5b6000918252602090912001546001600160a01b0316905081565b6001600160a01b038082166000908152600360205260408120549091169080805b600154811015610387576001818154811061034e57634e487b7160e01b600052603260045260246000fd5b6000918252602090912001546001600160a01b038581169116141561037557600192508091505b8061037f816106ba565b915050610323565b508115610465576001805461039d9082906106a3565b815481106103bb57634e487b7160e01b600052603260045260246000fd5b600091825260209091200154600180546001600160a01b0390921691839081106103f557634e487b7160e01b600052603260045260246000fd5b9060005260206000200160006101000a8154816001600160a01b0302191690836001600160a01b03160217905550600180548061044257634e487b7160e01b600052603160045260246000fd5b600082815260209020810160001990810180546001600160a01b03191690550190555b6001600160a01b03808516600090815260036020526040812080546001600160a01b0319168155600101549091169080805b6002548110156104fb57600281815481106104c257634e487b7160e01b600052603260045260246000fd5b6000918252602090912001546001600160a01b03858116911614156104e957600192508091505b806104f3816106ba565b915050610497565b5081156105da5760028054610512906001906106a3565b8154811061053057634e487b7160e01b600052603260045260246000fd5b600091825260209091200154600280546001600160a01b03909216918390811061056a57634e487b7160e01b600052603260045260246000fd5b9060005260206000200160006101000a8154816001600160a01b0302191690836001600160a01b0316021790555060028054806105b757634e487b7160e01b600052603160045260246000fd5b600082815260209020810160001990810180546001600160a01b03191690550190555b5050506001600160a01b03909316600090815260036020526040902060010180546001600160a01b0319169055505050565b600281815481106102e857600080fd5b80356001600160a01b038116811461063357600080fd5b919050565b600060208284031215610649578081fd5b6106528261061c565b9392505050565b6000806040838503121561066b578081fd5b6106748361061c565b91506106826020840161061c565b90509250929050565b60006020828403121561069c578081fd5b5035919050565b6000828210156106b5576106b56106d5565b500390565b60006000198214156106ce576106ce6106d5565b5060010190565b634e487b7160e01b600052601160045260246000fdfea264697066735822122012f9d91297f745d2a4f99a6a6286893c0116ccb65db2f885bc0813cd553fd98464736f6c63430008040033",
  "linkReferences": {},
  "deployedLinkReferences": {}
}