{
  "_format": "hh-sol-artifact-1",
  "contractName": "ProtocolGovernance",
  "sourceName": "contracts/ProtocolGovernance.sol",
  "abi": [
    {
      "inputs": [
        {
          "internalType": "address",
          "name": "admin",
          "type": "address"
        }
      ],
      "stateMutability": "nonpayable",
      "type": "constructor"
    },
    {
      "anonymous": false,
      "inputs": [
        {
          "indexed": true,
          "internalType": "bytes32",
          "name": "role",
          "type": "bytes32"
        },
        {
          "indexed": true,
          "internalType": "bytes32",
          "name": "previousAdminRole",
          "type": "bytes32"
        },
        {
          "indexed": true,
          "internalType": "bytes32",
          "name": "newAdminRole",
          "type": "bytes32"
        }
      ],
      "name": "RoleAdminChanged",
      "type": "event"
    },
    {
      "anonymous": false,
      "inputs": [
        {
          "indexed": true,
          "internalType": "bytes32",
          "name": "role",
          "type": "bytes32"
        },
        {
          "indexed": true,
          "internalType": "address",
          "name": "account",
          "type": "address"
        },
        {
          "indexed": true,
          "internalType": "address",
          "name": "sender",
          "type": "address"
        }
      ],
      "name": "RoleGranted",
      "type": "event"
    },
    {
      "anonymous": false,
      "inputs": [
        {
          "indexed": true,
          "internalType": "bytes32",
          "name": "role",
          "type": "bytes32"
        },
        {
          "indexed": true,
          "internalType": "address",
          "name": "account",
          "type": "address"
        },
        {
          "indexed": true,
          "internalType": "address",
          "name": "sender",
          "type": "address"
        }
      ],
      "name": "RoleRevoked",
      "type": "event"
    },
    {
      "inputs": [],
      "name": "ADMIN_DELEGATE_ROLE",
      "outputs": [
        {
          "internalType": "bytes32",
          "name": "",
          "type": "bytes32"
        }
      ],
      "stateMutability": "view",
      "type": "function"
    },
    {
      "inputs": [],
      "name": "ADMIN_ROLE",
      "outputs": [
        {
          "internalType": "bytes32",
          "name": "",
          "type": "bytes32"
        }
      ],
      "stateMutability": "view",
      "type": "function"
    },
    {
      "inputs": [],
      "name": "DEFAULT_ADMIN_ROLE",
      "outputs": [
        {
          "internalType": "bytes32",
          "name": "",
          "type": "bytes32"
        }
      ],
      "stateMutability": "view",
      "type": "function"
    },
    {
      "inputs": [],
      "name": "MAX_GOVERNANCE_DELAY",
      "outputs": [
        {
          "internalType": "uint256",
          "name": "",
          "type": "uint256"
        }
      ],
      "stateMutability": "view",
      "type": "function"
    },
    {
      "inputs": [],
      "name": "claimAllowlist",
      "outputs": [
        {
          "internalType": "address[]",
          "name": "",
          "type": "address[]"
        }
      ],
      "stateMutability": "view",
      "type": "function"
    },
    {
      "inputs": [],
      "name": "commitClaimAllowlistAdd",
      "outputs": [],
      "stateMutability": "nonpayable",
      "type": "function"
    },
    {
      "inputs": [],
      "name": "commitParams",
      "outputs": [],
      "stateMutability": "nonpayable",
      "type": "function"
    },
    {
      "inputs": [],
      "name": "commitTokenWhitelistAdd",
      "outputs": [],
      "stateMutability": "nonpayable",
      "type": "function"
    },
    {
      "inputs": [],
      "name": "commitVaultGovernancesAdd",
      "outputs": [],
      "stateMutability": "nonpayable",
      "type": "function"
    },
    {
      "inputs": [
        {
          "internalType": "bytes32",
          "name": "role",
          "type": "bytes32"
        }
      ],
      "name": "getRoleAdmin",
      "outputs": [
        {
          "internalType": "bytes32",
          "name": "",
          "type": "bytes32"
        }
      ],
      "stateMutability": "view",
      "type": "function"
    },
    {
      "inputs": [
        {
          "internalType": "bytes32",
          "name": "role",
          "type": "bytes32"
        },
        {
          "internalType": "uint256",
          "name": "index",
          "type": "uint256"
        }
      ],
      "name": "getRoleMember",
      "outputs": [
        {
          "internalType": "address",
          "name": "",
          "type": "address"
        }
      ],
      "stateMutability": "view",
      "type": "function"
    },
    {
      "inputs": [
        {
          "internalType": "bytes32",
          "name": "role",
          "type": "bytes32"
        }
      ],
      "name": "getRoleMemberCount",
      "outputs": [
        {
          "internalType": "uint256",
          "name": "",
          "type": "uint256"
        }
      ],
      "stateMutability": "view",
      "type": "function"
    },
    {
      "inputs": [],
      "name": "governanceDelay",
      "outputs": [
        {
          "internalType": "uint256",
          "name": "",
          "type": "uint256"
        }
      ],
      "stateMutability": "view",
      "type": "function"
    },
    {
      "inputs": [
        {
          "internalType": "bytes32",
          "name": "role",
          "type": "bytes32"
        },
        {
          "internalType": "address",
          "name": "account",
          "type": "address"
        }
      ],
      "name": "grantRole",
      "outputs": [],
      "stateMutability": "nonpayable",
      "type": "function"
    },
    {
      "inputs": [
        {
          "internalType": "bytes32",
          "name": "role",
          "type": "bytes32"
        },
        {
          "internalType": "address",
          "name": "account",
          "type": "address"
        }
      ],
      "name": "hasRole",
      "outputs": [
        {
          "internalType": "bool",
          "name": "",
          "type": "bool"
        }
      ],
      "stateMutability": "view",
      "type": "function"
    },
    {
      "inputs": [
        {
          "internalType": "address",
          "name": "sender",
          "type": "address"
        }
      ],
      "name": "isAdmin",
      "outputs": [
        {
          "internalType": "bool",
          "name": "",
          "type": "bool"
        }
      ],
      "stateMutability": "view",
      "type": "function"
    },
    {
      "inputs": [
        {
          "internalType": "address",
          "name": "addr",
          "type": "address"
        }
      ],
      "name": "isAllowedToClaim",
      "outputs": [
        {
          "internalType": "bool",
          "name": "",
          "type": "bool"
        }
      ],
      "stateMutability": "view",
      "type": "function"
    },
    {
      "inputs": [
        {
          "internalType": "address",
          "name": "addr",
          "type": "address"
        }
      ],
      "name": "isAllowedToken",
      "outputs": [
        {
          "internalType": "bool",
          "name": "",
          "type": "bool"
        }
      ],
      "stateMutability": "view",
      "type": "function"
    },
    {
      "inputs": [
        {
          "internalType": "address",
          "name": "addr",
          "type": "address"
        }
      ],
      "name": "isVaultGovernance",
      "outputs": [
        {
          "internalType": "bool",
          "name": "",
          "type": "bool"
        }
      ],
      "stateMutability": "view",
      "type": "function"
    },
    {
      "inputs": [],
      "name": "maxTokensPerVault",
      "outputs": [
        {
          "internalType": "uint256",
          "name": "",
          "type": "uint256"
        }
      ],
      "stateMutability": "view",
      "type": "function"
    },
    {
      "inputs": [],
      "name": "params",
      "outputs": [
        {
          "internalType": "bool",
          "name": "permissionless",
          "type": "bool"
        },
        {
          "internalType": "uint256",
          "name": "maxTokensPerVault",
          "type": "uint256"
        },
        {
          "internalType": "uint256",
          "name": "governanceDelay",
          "type": "uint256"
        },
        {
          "internalType": "address",
          "name": "protocolTreasury",
          "type": "address"
        }
      ],
      "stateMutability": "view",
      "type": "function"
    },
    {
      "inputs": [],
      "name": "pendingClaimAllowlistAdd",
      "outputs": [
        {
          "internalType": "address[]",
          "name": "",
          "type": "address[]"
        }
      ],
      "stateMutability": "view",
      "type": "function"
    },
    {
      "inputs": [],
      "name": "pendingClaimAllowlistAddTimestamp",
      "outputs": [
        {
          "internalType": "uint256",
          "name": "",
          "type": "uint256"
        }
      ],
      "stateMutability": "view",
      "type": "function"
    },
    {
      "inputs": [],
      "name": "pendingParams",
      "outputs": [
        {
          "internalType": "bool",
          "name": "permissionless",
          "type": "bool"
        },
        {
          "internalType": "uint256",
          "name": "maxTokensPerVault",
          "type": "uint256"
        },
        {
          "internalType": "uint256",
          "name": "governanceDelay",
          "type": "uint256"
        },
        {
          "internalType": "address",
          "name": "protocolTreasury",
          "type": "address"
        }
      ],
      "stateMutability": "view",
      "type": "function"
    },
    {
      "inputs": [],
      "name": "pendingParamsTimestamp",
      "outputs": [
        {
          "internalType": "uint256",
          "name": "",
          "type": "uint256"
        }
      ],
      "stateMutability": "view",
      "type": "function"
    },
    {
      "inputs": [],
      "name": "pendingTokenWhitelistAdd",
      "outputs": [
        {
          "internalType": "address[]",
          "name": "",
          "type": "address[]"
        }
      ],
      "stateMutability": "view",
      "type": "function"
    },
    {
      "inputs": [],
      "name": "pendingTokenWhitelistAddTimestamp",
      "outputs": [
        {
          "internalType": "uint256",
          "name": "",
          "type": "uint256"
        }
      ],
      "stateMutability": "view",
      "type": "function"
    },
    {
      "inputs": [],
      "name": "pendingVaultGovernancesAdd",
      "outputs": [
        {
          "internalType": "address[]",
          "name": "",
          "type": "address[]"
        }
      ],
      "stateMutability": "view",
      "type": "function"
    },
    {
      "inputs": [],
      "name": "pendingVaultGovernancesAddTimestamp",
      "outputs": [
        {
          "internalType": "uint256",
          "name": "",
          "type": "uint256"
        }
      ],
      "stateMutability": "view",
      "type": "function"
    },
    {
      "inputs": [],
      "name": "permissionless",
      "outputs": [
        {
          "internalType": "bool",
          "name": "",
          "type": "bool"
        }
      ],
      "stateMutability": "view",
      "type": "function"
    },
    {
      "inputs": [],
      "name": "protocolTreasury",
      "outputs": [
        {
          "internalType": "address",
          "name": "",
          "type": "address"
        }
      ],
      "stateMutability": "view",
      "type": "function"
    },
    {
      "inputs": [
        {
          "internalType": "address",
          "name": "addr",
          "type": "address"
        }
      ],
      "name": "removeFromClaimAllowlist",
      "outputs": [],
      "stateMutability": "nonpayable",
      "type": "function"
    },
    {
      "inputs": [
        {
          "internalType": "address",
          "name": "addr",
          "type": "address"
        }
      ],
      "name": "removeFromTokenWhitelist",
      "outputs": [],
      "stateMutability": "nonpayable",
      "type": "function"
    },
    {
      "inputs": [
        {
          "internalType": "address",
          "name": "addr",
          "type": "address"
        }
      ],
      "name": "removeFromVaultGovernances",
      "outputs": [],
      "stateMutability": "nonpayable",
      "type": "function"
    },
    {
      "inputs": [
        {
          "internalType": "bytes32",
          "name": "role",
          "type": "bytes32"
        },
        {
          "internalType": "address",
          "name": "account",
          "type": "address"
        }
      ],
      "name": "renounceRole",
      "outputs": [],
      "stateMutability": "nonpayable",
      "type": "function"
    },
    {
      "inputs": [
        {
          "internalType": "bytes32",
          "name": "role",
          "type": "bytes32"
        },
        {
          "internalType": "address",
          "name": "account",
          "type": "address"
        }
      ],
      "name": "revokeRole",
      "outputs": [],
      "stateMutability": "nonpayable",
      "type": "function"
    },
    {
      "inputs": [
        {
          "internalType": "address[]",
          "name": "addresses",
          "type": "address[]"
        }
      ],
      "name": "setPendingClaimAllowlistAdd",
      "outputs": [],
      "stateMutability": "nonpayable",
      "type": "function"
    },
    {
      "inputs": [
        {
          "components": [
            {
              "internalType": "bool",
              "name": "permissionless",
              "type": "bool"
            },
            {
              "internalType": "uint256",
              "name": "maxTokensPerVault",
              "type": "uint256"
            },
            {
              "internalType": "uint256",
              "name": "governanceDelay",
              "type": "uint256"
            },
            {
              "internalType": "address",
              "name": "protocolTreasury",
              "type": "address"
            }
          ],
          "internalType": "struct IProtocolGovernance.Params",
          "name": "newParams",
          "type": "tuple"
        }
      ],
      "name": "setPendingParams",
      "outputs": [],
      "stateMutability": "nonpayable",
      "type": "function"
    },
    {
      "inputs": [
        {
          "internalType": "address[]",
          "name": "addresses",
          "type": "address[]"
        }
      ],
      "name": "setPendingTokenWhitelistAdd",
      "outputs": [],
      "stateMutability": "nonpayable",
      "type": "function"
    },
    {
      "inputs": [
        {
          "internalType": "address[]",
          "name": "addresses",
          "type": "address[]"
        }
      ],
      "name": "setPendingVaultGovernancesAdd",
      "outputs": [],
      "stateMutability": "nonpayable",
      "type": "function"
    },
    {
      "inputs": [
        {
          "internalType": "bytes4",
          "name": "interfaceId",
          "type": "bytes4"
        }
      ],
      "name": "supportsInterface",
      "outputs": [
        {
          "internalType": "bool",
          "name": "",
          "type": "bool"
        }
      ],
      "stateMutability": "view",
      "type": "function"
    },
    {
      "inputs": [],
      "name": "tokenWhitelist",
      "outputs": [
        {
          "internalType": "address[]",
          "name": "",
          "type": "address[]"
        }
      ],
      "stateMutability": "view",
      "type": "function"
    },
    {
      "inputs": [],
      "name": "vaultGovernances",
      "outputs": [
        {
          "internalType": "address[]",
          "name": "",
          "type": "address[]"
        }
      ],
      "stateMutability": "view",
      "type": "function"
    }
  ],
  "bytecode": "0x60806040523480156200001157600080fd5b506040516200227138038062002271833981016040819052620000349162000354565b6040805180820190915260048152635a41444d60e01b602082015281906001600160a01b038216620000845760405162461bcd60e51b81526004016200007b919062000386565b60405180910390fd5b50620000a0600080516020620022518339815191528262000123565b620000bb600080516020620022518339815191528062000133565b620000f67fc171260023d22a25a00a2789664c9334017843b831138c8ef03cc8897e5873d76000805160206200225183398151915262000133565b5060408051600081526020810191829052516200011691600691620002d3565b50506000600855620003de565b6200012f82826200017e565b5050565b600082815260208190526040808220600101805490849055905190918391839186917fbd79b86ffe0ab8e8776151514217cd7cacd52c909f66475c3af44e129f0b00ff9190a4505050565b620001958282620001c160201b6200147d1760201c565b6000828152600160209081526040909120620001bc9183906200150162000261821b17901c565b505050565b6000828152602081815260408083206001600160a01b038516845290915290205460ff166200012f576000828152602081815260408083206001600160a01b03851684529091529020805460ff191660011790556200021d3390565b6001600160a01b0316816001600160a01b0316837f2f8788117e7eff1d82e926ec794901d17c78024a50270940304540a733656f0d60405160405180910390a45050565b600062000278836001600160a01b03841662000281565b90505b92915050565b6000818152600183016020526040812054620002ca575081546001818101845560008481526020808220909301849055845484825282860190935260409020919091556200027b565b5060006200027b565b8280548282559060005260206000209081019282156200032b579160200282015b828111156200032b57825182546001600160a01b0319166001600160a01b03909116178255602090920191600190910190620002f4565b50620003399291506200033d565b5090565b5b808211156200033957600081556001016200033e565b6000602082840312156200036757600080fd5b81516001600160a01b03811681146200037f57600080fd5b9392505050565b600060208083528351808285015260005b81811015620003b55785810183015185820160400152820162000397565b81811115620003c8576000604083870101525b50601f01601f1916929092016040019392505050565b611e6380620003ee6000396000f3fe608060405234801561001057600080fd5b50600436106102695760003560e01c80639010d07c11610151578063ca15c873116100c3578063d547741f11610087578063d547741f14610535578063d6f44a3214610548578063f3ed9b4d1461055b578063f7fb35011461056e578063fae674d514610581578063ff8f94401461059457600080fd5b8063ca15c873146104dc578063ca735cc1146104ef578063cbe230c3146104f7578063cff0ab961461050a578063d26c6dd61461052c57600080fd5b8063aa2d6b7411610115578063aa2d6b741461045a578063abf1b7da1461046d578063b97ec31914610476578063b9bacd001461047f578063bba32939146104cc578063bd7692f7146104d457600080fd5b80639010d07c1461041957806391d148541461042c5780639e72566c1461043f578063a1256f9f14610447578063a217fddf1461045257600080fd5b806336568abe116101ea57806375b238fc116101ae57806375b238fc1461039757806378546fa2146103be578063803db96d146103c657806383c9af72146103eb578063884289e3146103f35780638de4a00f1461040657600080fd5b806336568abe146103635780634a3f1947146103765780634c9098001461037e5780634efb0fec1461038757806350e52fee1461038f57600080fd5b806324cf078f1161023157806324cf078f1461030d57806324d7806c1461032257806328aca5be146103355780632ce873531461033d5780632f2ff15d1461035057600080fd5b806301ffc9a71461026e5780630952ff54146102965780630ea55636146102cb57806320281c33146102d5578063248a9ca3146102ea575b600080fd5b61028161027c366004611a50565b61059c565b60405190151581526020015b60405180910390f35b6102bd7fc171260023d22a25a00a2789664c9334017843b831138c8ef03cc8897e5873d781565b60405190815260200161028d565b6102bd62093a8081565b6102e86102e3366004611a7a565b6105c7565b005b6102bd6102f8366004611aef565b60009081526020819052604090206001015490565b610315610616565b60405161028d9190611b08565b610281610330366004611b71565b610678565b6103156106d4565b6102e861034b366004611b71565b610784565b6102e861035e366004611b8c565b6107e9565b6102e8610371366004611b8c565b610813565b61031561088d565b6102bd600b5481565b6103156108ed565b61031561094d565b6102bd7ff23ec0bb4210edd5cba85afd05127efcd2fc6a781bfed49188da1081670b22d881565b6011546102bd565b6013546001600160a01b03165b6040516001600160a01b03909116815260200161028d565b6102e86109f6565b610281610401366004611b71565b610c8f565b6102e8610414366004611b71565b610c9c565b6103d3610427366004611bb8565b610d0b565b61028161043a366004611b8c565b610d2a565b6102e8610d53565b60105460ff16610281565b6102bd600081565b6102e8610468366004611b71565b610e4c565b6102bd60185481565b6102bd60055481565b6014546015546016546017546104a19360ff169291906001600160a01b031684565b6040805194151585526020850193909352918301526001600160a01b0316606082015260800161028d565b6012546102bd565b6102e8610ead565b6102bd6104ea366004611aef565b610fde565b610315610ff5565b610281610505366004611b71565b611167565b6010546011546012546013546104a19360ff169291906001600160a01b031684565b6102bd600f5481565b6102e8610543366004611b8c565b6111a9565b6102e8610556366004611a7a565b6111ce565b610281610569366004611b71565b611233565b6102e861057c366004611bf0565b611240565b6102e861058f366004611a7a565b61131f565b6102e8611384565b60006001600160e01b03198216635a05180f60e01b14806105c157506105c182611516565b92915050565b6105d033610678565b6105f55760405162461bcd60e51b81526004016105ec90611c76565b60405180910390fd5b610601600783836119be565b5060125461060f9042611ca9565b600b555050565b6060600e80548060200260200160405190810160405280929190818152602001828054801561066e57602002820191906000526020600020905b81546001600160a01b03168152600190910190602001808311610650575b5050505050905090565b60006106a47ff23ec0bb4210edd5cba85afd05127efcd2fc6a781bfed49188da1081670b22d883610d2a565b806105c157506105c17fc171260023d22a25a00a2789664c9334017843b831138c8ef03cc8897e5873d783610d2a565b606060006106e2600261154b565b905060008167ffffffffffffffff8111156106ff576106ff611bda565b604051908082528060200260200182016040528015610728578160200160208202803683370190505b50905060005b8281101561077d57610741600282611555565b82828151811061075357610753611cc1565b6001600160a01b03909216602092830291909101909101528061077581611cd7565b91505061072e565b5092915050565b61078d33610678565b6040518060400160405280600381526020016241444d60e81b815250906107c75760405162461bcd60e51b81526004016105ec9190611d22565b506107d3600c82611561565b6107da5750565b6107e5600c82611583565b5050565b60008281526020819052604090206001015461080481611598565b61080e83836115a2565b505050565b6001600160a01b03811633146108835760405162461bcd60e51b815260206004820152602f60248201527f416363657373436f6e74726f6c3a2063616e206f6e6c792072656e6f756e636560448201526e103937b632b9903337b91039b2b63360891b60648201526084016105ec565b6107e582826115c4565b6060600480548060200260200160405190810160405280929190818152602001828054801561066e576020028201919060005260206000209081546001600160a01b03168152600190910190602001808311610650575050505050905090565b6060600780548060200260200160405190810160405280929190818152602001828054801561066e576020028201919060005260206000209081546001600160a01b03168152600190910190602001808311610650575050505050905090565b6060600061095b600c61154b565b905060008167ffffffffffffffff81111561097857610978611bda565b6040519080825280602002602001820160405280156109a1578160200160208202803683370190505b50905060005b8281101561077d576109ba600c82611555565b8282815181106109cc576109cc611cc1565b6001600160a01b0390921660209283029190910190910152806109ee81611cd7565b9150506109a7565b6109ff33610678565b610a1b5760405162461bcd60e51b81526004016105ec90611c76565b600b544210158015610a2f57506000600b54115b610a605760405162461bcd60e51b8152602060048201526002602482015261545360f01b60448201526064016105ec565b60005b600754811015610c7b57600a600060078381548110610a8457610a84611cc1565b60009182526020808320909101546001600160a01b0316835282019290925260400190205460ff16610bbe57600160086000828254610ac39190611ca9565b9250508190555060016009600060078481548110610ae357610ae3611cc1565b6000918252602080832091909101546001600160a01b031683528201929092526040019020805460ff1916911515919091179055600780546006919083908110610b2f57610b2f611cc1565b600091825260208083209091015483546001818101865594845291832090910180546001600160a01b0319166001600160a01b0390921691909117905560078054600a92919085908110610b8557610b85611cc1565b6000918252602080832091909101546001600160a01b031683528201929092526040019020805460ff1916911515919091179055610c69565b6009600060078381548110610bd557610bd5611cc1565b60009182526020808320909101546001600160a01b0316835282019290925260400190205460ff16610c6957600160086000828254610c149190611ca9565b9250508190555060016009600060078481548110610c3457610c34611cc1565b6000918252602080832091909101546001600160a01b031683528201929092526040019020805460ff19169115159190911790555b80610c7381611cd7565b915050610a63565b50610c8860076000611a21565b6000600b55565b60006105c1600283611561565b610ca533610678565b610cc15760405162461bcd60e51b81526004016105ec90611c76565b6001600160a01b0381166000908152600960209081526040808320805460ff19169055600a90915290205460ff1615610d0857600860008154610d0390611d55565b909155505b50565b6000828152600160205260408120610d239083611555565b9392505050565b6000918252602082815260408084206001600160a01b0393909316845291905290205460ff1690565b610d5c33610678565b6040518060400160405280600381526020016241444d60e81b81525090610d965760405162461bcd60e51b81526004016105ec9190611d22565b506005544210158015610dab57506000600554115b60405180604001604052806002815260200161545360f01b81525090610de45760405162461bcd60e51b81526004016105ec9190611d22565b5060005b600454811015610e3857610e2560048281548110610e0857610e08611cc1565b6000918252602090912001546002906001600160a01b0316611501565b5080610e3081611cd7565b915050610de8565b50610e4560046000611a21565b6000600555565b610e5533610678565b6040518060400160405280600381526020016241444d60e81b81525090610e8f5760405162461bcd60e51b81526004016105ec9190611d22565b50610e9b600282611561565b610ea25750565b6107e5600282611583565b610eb633610678565b6040518060400160405280600381526020016241444d60e81b81525090610ef05760405162461bcd60e51b81526004016105ec9190611d22565b5060185442101560405180604001604052806002815260200161545360f01b81525090610f305760405162461bcd60e51b81526004016105ec9190611d22565b50601554151580610f42575060165415155b60405180604001604052806002815260200161050360f41b81525090610f7b5760405162461bcd60e51b81526004016105ec9190611d22565b50601480546010805460ff8316151560ff1991821617909155601580546011556016805460125560178054601380546001600160a01b03199081166001600160a01b03841617909155949095169095556000918290558190559116909155601855565b60008181526001602052604081206105c19061154b565b6006546008546060919060009067ffffffffffffffff81111561101a5761101a611bda565b604051908082528060200260200182016040528015611043578160200160208202803683370190505b5090506000805b8381101561115e57600960006006838154811061106957611069611cc1565b60009182526020808320909101546001600160a01b0316835282019290925260400190205460ff161580156110d95750600a6000600683815481106110b0576110b0611cc1565b60009182526020808320909101546001600160a01b0316835282019290925260400190205460ff165b156110e35761114c565b600681815481106110f6576110f6611cc1565b9060005260206000200160009054906101000a90046001600160a01b031683838151811061112657611126611cc1565b6001600160a01b0390921660209283029190910190910152611149600183611ca9565b91505b8061115681611cd7565b91505061104a565b50909392505050565b6001600160a01b0381166000908152600a602052604081205460ff1680156105c15750506001600160a01b031660009081526009602052604090205460ff1690565b6000828152602081905260409020600101546111c481611598565b61080e83836115c4565b6111d733610678565b6040518060400160405280600381526020016241444d60e81b815250906112115760405162461bcd60e51b81526004016105ec9190611d22565b5061121e600e83836119be565b5060125461122c9042611ca9565b600f555050565b60006105c1600c83611561565b61124933610678565b6040518060400160405280600381526020016241444d60e81b815250906112835760405162461bcd60e51b81526004016105ec9190611d22565b50601254604080518082019091526002815261135160f21b60208201529062093a8010156112c45760405162461bcd60e51b81526004016105ec9190611d22565b5080516014805460ff1916911515919091179055602081015160155560408101516016556060810151601780546001600160a01b0319166001600160a01b039092169190911790556012546113199042611ca9565b60185550565b61132833610678565b6040518060400160405280600381526020016241444d60e81b815250906113625760405162461bcd60e51b81526004016105ec9190611d22565b5061136f600483836119be565b5060125461137d9042611ca9565b6005555050565b61138d33610678565b6040518060400160405280600381526020016241444d60e81b815250906113c75760405162461bcd60e51b81526004016105ec9190611d22565b50600f5442101580156113dc57506000600f54115b60405180604001604052806002815260200161545360f01b815250906114155760405162461bcd60e51b81526004016105ec9190611d22565b5060005b600e5481101561146957611456600e828154811061143957611439611cc1565b600091825260209091200154600c906001600160a01b0316611501565b508061146181611cd7565b915050611419565b50611476600e6000611a21565b6000600f55565b6114878282610d2a565b6107e5576000828152602081815260408083206001600160a01b03851684529091529020805460ff191660011790556114bd3390565b6001600160a01b0316816001600160a01b0316837f2f8788117e7eff1d82e926ec794901d17c78024a50270940304540a733656f0d60405160405180910390a45050565b6000610d23836001600160a01b0384166115e6565b60006001600160e01b03198216637965db0b60e01b14806105c157506301ffc9a760e01b6001600160e01b03198316146105c1565b60006105c1825490565b6000610d238383611635565b6001600160a01b03811660009081526001830160205260408120541515610d23565b6000610d23836001600160a01b03841661165f565b610d088133611752565b6115ac828261147d565b600082815260016020526040902061080e9082611501565b6115ce82826117ab565b600082815260016020526040902061080e9082611583565b600081815260018301602052604081205461162d575081546001818101845560008481526020808220909301849055845484825282860190935260409020919091556105c1565b5060006105c1565b600082600001828154811061164c5761164c611cc1565b9060005260206000200154905092915050565b60008181526001830160205260408120548015611748576000611683600183611d6c565b855490915060009061169790600190611d6c565b90508181146116fc5760008660000182815481106116b7576116b7611cc1565b90600052602060002001549050808760000184815481106116da576116da611cc1565b6000918252602080832090910192909255918252600188019052604090208390555b855486908061170d5761170d611d83565b6001900381819060005260206000200160009055905585600101600086815260200190815260200160002060009055600193505050506105c1565b60009150506105c1565b61175c8282610d2a565b6107e55761176981611810565b611774836020611822565b604051602001611785929190611d99565b60408051601f198184030181529082905262461bcd60e51b82526105ec91600401611d22565b6117b58282610d2a565b156107e5576000828152602081815260408083206001600160a01b0385168085529252808320805460ff1916905551339285917ff6391f5c32d9c69d2a47ea670b442974b53935d1edc7fd64eb21e047a839171b9190a45050565b60606105c16001600160a01b03831660145b60606000611831836002611e0e565b61183c906002611ca9565b67ffffffffffffffff81111561185457611854611bda565b6040519080825280601f01601f19166020018201604052801561187e576020820181803683370190505b509050600360fc1b8160008151811061189957611899611cc1565b60200101906001600160f81b031916908160001a905350600f60fb1b816001815181106118c8576118c8611cc1565b60200101906001600160f81b031916908160001a90535060006118ec846002611e0e565b6118f7906001611ca9565b90505b600181111561196f576f181899199a1a9b1b9c1cb0b131b232b360811b85600f166010811061192b5761192b611cc1565b1a60f81b82828151811061194157611941611cc1565b60200101906001600160f81b031916908160001a90535060049490941c9361196881611d55565b90506118fa565b508315610d235760405162461bcd60e51b815260206004820181905260248201527f537472696e67733a20686578206c656e67746820696e73756666696369656e7460448201526064016105ec565b828054828255906000526020600020908101928215611a11579160200282015b82811115611a115781546001600160a01b0319166001600160a01b038435161782556020909201916001909101906119de565b50611a1d929150611a3b565b5090565b5080546000825590600052602060002090810190610d0891905b5b80821115611a1d5760008155600101611a3c565b600060208284031215611a6257600080fd5b81356001600160e01b031981168114610d2357600080fd5b60008060208385031215611a8d57600080fd5b823567ffffffffffffffff80821115611aa557600080fd5b818501915085601f830112611ab957600080fd5b813581811115611ac857600080fd5b8660208260051b8501011115611add57600080fd5b60209290920196919550909350505050565b600060208284031215611b0157600080fd5b5035919050565b6020808252825182820181905260009190848201906040850190845b81811015611b495783516001600160a01b031683529284019291840191600101611b24565b50909695505050505050565b80356001600160a01b0381168114611b6c57600080fd5b919050565b600060208284031215611b8357600080fd5b610d2382611b55565b60008060408385031215611b9f57600080fd5b82359150611baf60208401611b55565b90509250929050565b60008060408385031215611bcb57600080fd5b50508035926020909101359150565b634e487b7160e01b600052604160045260246000fd5b600060808284031215611c0257600080fd5b6040516080810181811067ffffffffffffffff82111715611c3357634e487b7160e01b600052604160045260246000fd5b60405282358015158114611c4657600080fd5b808252506020830135602082015260408301356040820152611c6a60608401611b55565b60608201529392505050565b60208082526003908201526241444d60e81b604082015260600190565b634e487b7160e01b600052601160045260246000fd5b60008219821115611cbc57611cbc611c93565b500190565b634e487b7160e01b600052603260045260246000fd5b6000600019821415611ceb57611ceb611c93565b5060010190565b60005b83811015611d0d578181015183820152602001611cf5565b83811115611d1c576000848401525b50505050565b6020815260008251806020840152611d41816040850160208701611cf2565b601f01601f19169190910160400192915050565b600081611d6457611d64611c93565b506000190190565b600082821015611d7e57611d7e611c93565b500390565b634e487b7160e01b600052603160045260246000fd5b7f416363657373436f6e74726f6c3a206163636f756e7420000000000000000000815260008351611dd1816017850160208801611cf2565b7001034b99036b4b9b9b4b733903937b6329607d1b6017918401918201528351611e02816028840160208801611cf2565b01602801949350505050565b6000816000190483118215151615611e2857611e28611c93565b50029056fea26469706673582212200dd753c67cdedec24a8a982a03ddf1172655bfb0df385608158293d627078ca464736f6c63430008090033f23ec0bb4210edd5cba85afd05127efcd2fc6a781bfed49188da1081670b22d8",
  "linkReferences": {},
  "deployedLinkReferences": {}
}