{
  "_format": "hh-sol-artifact-1",
  "contractName": "ERC20Mock",
  "sourceName": "contracts/mocks/ERC20Mock.sol",
  "abi": [
    {
      "inputs": [
        {
          "internalType": "address",
          "name": "_address",
          "type": "address"
        }
      ],
      "stateMutability": "nonpayable",
      "type": "constructor"
    },
    {
      "anonymous": false,
      "inputs": [
        {
          "indexed": true,
          "internalType": "address",
          "name": "owner",
          "type": "address"
        },
        {
          "indexed": true,
          "internalType": "address",
          "name": "spender",
          "type": "address"
        },
        {
          "indexed": false,
          "internalType": "uint256",
          "name": "value",
          "type": "uint256"
        }
      ],
      "name": "Approval",
      "type": "event"
    },
    {
      "anonymous": false,
      "inputs": [
        {
          "indexed": true,
          "internalType": "address",
          "name": "from",
          "type": "address"
        },
        {
          "indexed": true,
          "internalType": "address",
          "name": "to",
          "type": "address"
        },
        {
          "indexed": false,
          "internalType": "uint256",
          "name": "value",
          "type": "uint256"
        }
      ],
      "name": "Transfer",
      "type": "event"
    },
    {
      "inputs": [
        {
          "internalType": "address",
          "name": "owner",
          "type": "address"
        },
        {
          "internalType": "address",
          "name": "spender",
          "type": "address"
        }
      ],
      "name": "allowance",
      "outputs": [
        {
          "internalType": "uint256",
          "name": "",
          "type": "uint256"
        }
      ],
      "stateMutability": "view",
      "type": "function"
    },
    {
      "inputs": [
        {
          "internalType": "address",
          "name": "spender",
          "type": "address"
        },
        {
          "internalType": "uint256",
          "name": "value",
          "type": "uint256"
        }
      ],
      "name": "approve",
      "outputs": [
        {
          "internalType": "bool",
          "name": "",
          "type": "bool"
        }
      ],
      "stateMutability": "nonpayable",
      "type": "function"
    },
    {
      "inputs": [
        {
          "internalType": "address",
          "name": "account",
          "type": "address"
        }
      ],
      "name": "balanceOf",
      "outputs": [
        {
          "internalType": "uint256",
          "name": "",
          "type": "uint256"
        }
      ],
      "stateMutability": "view",
      "type": "function"
    },
    {
      "inputs": [],
      "name": "decimals",
      "outputs": [
        {
          "internalType": "uint8",
          "name": "",
          "type": "uint8"
        }
      ],
      "stateMutability": "view",
      "type": "function"
    },
    {
      "inputs": [
        {
          "internalType": "address",
          "name": "spender",
          "type": "address"
        },
        {
          "internalType": "uint256",
          "name": "subtractedValue",
          "type": "uint256"
        }
      ],
      "name": "decreaseAllowance",
      "outputs": [
        {
          "internalType": "bool",
          "name": "",
          "type": "bool"
        }
      ],
      "stateMutability": "nonpayable",
      "type": "function"
    },
    {
      "inputs": [
        {
          "internalType": "address",
          "name": "spender",
          "type": "address"
        },
        {
          "internalType": "uint256",
          "name": "addedValue",
          "type": "uint256"
        }
      ],
      "name": "increaseAllowance",
      "outputs": [
        {
          "internalType": "bool",
          "name": "",
          "type": "bool"
        }
      ],
      "stateMutability": "nonpayable",
      "type": "function"
    },
    {
      "inputs": [],
      "name": "mint",
      "outputs": [],
      "stateMutability": "nonpayable",
      "type": "function"
    },
    {
      "inputs": [
        {
          "internalType": "address",
          "name": "",
          "type": "address"
        }
      ],
      "name": "minted",
      "outputs": [
        {
          "internalType": "bool",
          "name": "",
          "type": "bool"
        }
      ],
      "stateMutability": "view",
      "type": "function"
    },
    {
      "inputs": [],
      "name": "name",
      "outputs": [
        {
          "internalType": "string",
          "name": "",
          "type": "string"
        }
      ],
      "stateMutability": "view",
      "type": "function"
    },
    {
      "inputs": [],
      "name": "symbol",
      "outputs": [
        {
          "internalType": "string",
          "name": "",
          "type": "string"
        }
      ],
      "stateMutability": "view",
      "type": "function"
    },
    {
      "inputs": [],
      "name": "totalSupply",
      "outputs": [
        {
          "internalType": "uint256",
          "name": "",
          "type": "uint256"
        }
      ],
      "stateMutability": "view",
      "type": "function"
    },
    {
      "inputs": [
        {
          "internalType": "address",
          "name": "recipient",
          "type": "address"
        },
        {
          "internalType": "uint256",
          "name": "amount",
          "type": "uint256"
        }
      ],
      "name": "transfer",
      "outputs": [
        {
          "internalType": "bool",
          "name": "",
          "type": "bool"
        }
      ],
      "stateMutability": "nonpayable",
      "type": "function"
    },
    {
      "inputs": [
        {
          "internalType": "address",
          "name": "sender",
          "type": "address"
        },
        {
          "internalType": "address",
          "name": "recipient",
          "type": "address"
        },
        {
          "internalType": "uint256",
          "name": "amount",
          "type": "uint256"
        }
      ],
      "name": "transferFrom",
      "outputs": [
        {
          "internalType": "bool",
          "name": "",
          "type": "bool"
        }
      ],
      "stateMutability": "nonpayable",
      "type": "function"
    }
  ],
  "bytecode": "0x60c060405260046080819052635553444360e01b60a0908152620000279160039190620001c1565b50604080518082019091526004808252635553444360e01b6020909201918252620000539181620001c1565b506005805460ff191660061790553480156200006e57600080fd5b5060405162000c5d38038062000c5d833981016040819052620000919162000267565b620000a68168056bc75e2d63100000620000ad565b50620002f6565b6001600160a01b038216620001085760405162461bcd60e51b815260206004820152601f60248201527f45524332303a206d696e7420746f20746865207a65726f206164647265737300604482015260640160405180910390fd5b6200012481600254620001ac60201b620003ec1790919060201c565b6002556001600160a01b0382166000908152602081815260409091205462000157918390620003ec620001ac821b17901c565b6001600160a01b038316600081815260208181526040808320949094559251848152919290917fddf252ad1be2c89b69c2b068fc378daa952ba7f163c4a11628f55a4df523b3ef910160405180910390a35050565b6000620001ba828462000292565b9392505050565b828054620001cf90620002b9565b90600052602060002090601f016020900481019282620001f357600085556200023e565b82601f106200020e57805160ff19168380011785556200023e565b828001600101855582156200023e579182015b828111156200023e57825182559160200191906001019062000221565b506200024c92915062000250565b5090565b5b808211156200024c576000815560010162000251565b6000602082840312156200027a57600080fd5b81516001600160a01b0381168114620001ba57600080fd5b60008219821115620002b457634e487b7160e01b600052601160045260246000fd5b500190565b600181811c90821680620002ce57607f821691505b60208210811415620002f057634e487b7160e01b600052602260045260246000fd5b50919050565b61095780620003066000396000f3fe608060405234801561001057600080fd5b50600436106100cf5760003560e01c8063313ce5671161008c57806395d89b411161006657806395d89b41146101c2578063a457c2d7146101ca578063a9059cbb146101dd578063dd62ed3e146101f057600080fd5b8063313ce56714610167578063395093511461018657806370a082311461019957600080fd5b806306fdde03146100d4578063095ea7b3146100f25780631249c58b1461011557806318160ddd1461011f5780631e7269c51461013157806323b872dd14610154575b600080fd5b6100dc610229565b6040516100e9919061084c565b60405180910390f35b610105610100366004610822565b6102b7565b60405190151581526020016100e9565b61011d6102cd565b005b6002545b6040519081526020016100e9565b61010561013f366004610798565b60066020526000908152604090205460ff1681565b6101056101623660046107e6565b610315565b6005546101749060ff1681565b60405160ff90911681526020016100e9565b610105610194366004610822565b610366565b6101236101a7366004610798565b6001600160a01b031660009081526020819052604090205490565b6100dc61039c565b6101056101d8366004610822565b6103a9565b6101056101eb366004610822565b6103df565b6101236101fe3660046107b3565b6001600160a01b03918216600090815260016020908152604080832093909416825291909152205490565b60038054610236906108d0565b80601f0160208091040260200160405190810160405280929190818152602001828054610262906108d0565b80156102af5780601f10610284576101008083540402835291602001916102af565b820191906000526020600020905b81548152906001019060200180831161029257829003601f168201915b505050505081565b60006102c43384846103ff565b50600192915050565b3360009081526006602052604090205460ff16156102ea57600080fd5b336000818152600660205260409020805460ff19166001179055610313906402540be400610529565b565b6000610322848484610607565b6001600160a01b03841660009081526001602090815260408083203380855292529091205461035c9186916103579086610770565b6103ff565b5060019392505050565b3360008181526001602090815260408083206001600160a01b038716845290915281205490916102c491859061035790866103ec565b60048054610236906108d0565b3360008181526001602090815260408083206001600160a01b038716845290915281205490916102c49185906103579086610770565b60006102c4338484610607565b60006103f882846108a1565b9392505050565b6001600160a01b0383166104665760405162461bcd60e51b8152602060048201526024808201527f45524332303a20617070726f76652066726f6d20746865207a65726f206164646044820152637265737360e01b60648201526084015b60405180910390fd5b6001600160a01b0382166104c75760405162461bcd60e51b815260206004820152602260248201527f45524332303a20617070726f766520746f20746865207a65726f206164647265604482015261737360f01b606482015260840161045d565b6001600160a01b0383811660008181526001602090815260408083209487168084529482529182902085905590518481527f8c5be1e5ebec7d5bd14f71427d1e84f3dd0314c0f7b2291e5b200ac8c7c3b92591015b60405180910390a3505050565b6001600160a01b03821661057f5760405162461bcd60e51b815260206004820152601f60248201527f45524332303a206d696e7420746f20746865207a65726f206164647265737300604482015260640161045d565b60025461058c90826103ec565b6002556001600160a01b0382166000908152602081905260409020546105b290826103ec565b6001600160a01b038316600081815260208181526040808320949094559251848152919290917fddf252ad1be2c89b69c2b068fc378daa952ba7f163c4a11628f55a4df523b3ef910160405180910390a35050565b6001600160a01b03831661066b5760405162461bcd60e51b815260206004820152602560248201527f45524332303a207472616e736665722066726f6d20746865207a65726f206164604482015264647265737360d81b606482015260840161045d565b6001600160a01b0382166106cd5760405162461bcd60e51b815260206004820152602360248201527f45524332303a207472616e7366657220746f20746865207a65726f206164647260448201526265737360e81b606482015260840161045d565b6001600160a01b0383166000908152602081905260409020546106f09082610770565b6001600160a01b03808516600090815260208190526040808220939093559084168152205461071f90826103ec565b6001600160a01b038381166000818152602081815260409182902094909455518481529092918616917fddf252ad1be2c89b69c2b068fc378daa952ba7f163c4a11628f55a4df523b3ef910161051c565b60006103f882846108b9565b80356001600160a01b038116811461079357600080fd5b919050565b6000602082840312156107aa57600080fd5b6103f88261077c565b600080604083850312156107c657600080fd5b6107cf8361077c565b91506107dd6020840161077c565b90509250929050565b6000806000606084860312156107fb57600080fd5b6108048461077c565b92506108126020850161077c565b9150604084013590509250925092565b6000806040838503121561083557600080fd5b61083e8361077c565b946020939093013593505050565b600060208083528351808285015260005b818110156108795785810183015185820160400152820161085d565b8181111561088b576000604083870101525b50601f01601f1916929092016040019392505050565b600082198211156108b4576108b461090b565b500190565b6000828210156108cb576108cb61090b565b500390565b600181811c908216806108e457607f821691505b6020821081141561090557634e487b7160e01b600052602260045260246000fd5b50919050565b634e487b7160e01b600052601160045260246000fdfea264697066735822122071180daa98e21473960c53d52bb26858aa346eb19bb32d242e1f9075e589d17464736f6c63430008070033",
  "linkReferences": {},
  "deployedLinkReferences": {}
}