{
  "_format": "hh-sol-artifact-1",
  "contractName": "VaultHelper",
  "sourceName": "contracts/v3/VaultHelper.sol",
  "abi": [
    {
      "inputs": [
        {
          "internalType": "address",
          "name": "_vault",
          "type": "address"
        },
        {
          "internalType": "address[]",
          "name": "_tokens",
          "type": "address[]"
        },
        {
          "internalType": "uint256[]",
          "name": "_amounts",
          "type": "uint256[]"
        }
      ],
      "name": "depositMultipleVault",
      "outputs": [],
      "stateMutability": "nonpayable",
      "type": "function"
    },
    {
      "inputs": [
        {
          "internalType": "address",
          "name": "_vault",
          "type": "address"
        },
        {
          "internalType": "address",
          "name": "_token",
          "type": "address"
        },
        {
          "internalType": "uint256",
          "name": "_amount",
          "type": "uint256"
        }
      ],
      "name": "depositVault",
      "outputs": [],
      "stateMutability": "nonpayable",
      "type": "function"
    },
    {
      "inputs": [
        {
          "internalType": "address",
          "name": "_vault",
          "type": "address"
        },
        {
          "internalType": "address",
          "name": "_toToken",
          "type": "address"
        },
        {
          "internalType": "uint256",
          "name": "_amount",
          "type": "uint256"
        }
      ],
      "name": "withdrawVault",
      "outputs": [],
      "stateMutability": "nonpayable",
      "type": "function"
    }
  ],
  "bytecode": "0x608060405234801561001057600080fd5b50610fc6806100206000396000f3fe608060405234801561001057600080fd5b50600436106100415760003560e01c806307ca53191461004657806374a626521461007e578063fa9a1a0414610150575b600080fd5b61007c6004803603606081101561005c57600080fd5b506001600160a01b03813581169160208101359091169060400135610186565b005b61007c6004803603606081101561009457600080fd5b6001600160a01b0382351691908101906040810160208201356401000000008111156100bf57600080fd5b8201836020820111156100d157600080fd5b803590602001918460208302840111640100000000831117156100f357600080fd5b91939092909160208101903564010000000081111561011157600080fd5b82018360208201111561012357600080fd5b8035906020019184602083028401116401000000008311171561014557600080fd5b5090925090506104be565b61007c6004803603606081101561016657600080fd5b506001600160a01b03813581169160208101359091169060400135610837565b6000836001600160a01b031663a6f19c846040518163ffffffff1660e01b8152600401602060405180830381600087803b1580156101c357600080fd5b505af11580156101d7573d6000803e3d6000fd5b505050506040513d60208110156101ed57600080fd5b505190506001600160a01b038116156103e4576102156001600160a01b038216333085610a7a565b806001600160a01b0316632e1a7d4d836040518263ffffffff1660e01b815260040180828152602001915050600060405180830381600087803b15801561025b57600080fd5b505af115801561026f573d6000803e3d6000fd5b5050604080516370a0823160e01b815230600482015290516001600160a01b038816935062f714ce925083916370a08231916024808301926020929190829003018186803b1580156102c057600080fd5b505afa1580156102d4573d6000803e3d6000fd5b505050506040513d60208110156102ea57600080fd5b5051604080516001600160e01b031960e085901b16815260048101929092526001600160a01b038716602483015251604480830192600092919082900301818387803b15801561033957600080fd5b505af115801561034d573d6000803e3d6000fd5b505050506103df33846001600160a01b03166370a08231306040518263ffffffff1660e01b815260040180826001600160a01b0316815260200191505060206040518083038186803b1580156103a257600080fd5b505afa1580156103b6573d6000803e3d6000fd5b505050506040513d60208110156103cc57600080fd5b50516001600160a01b0386169190610ad4565b6104b8565b6103f96001600160a01b038516333085610a7a565b836001600160a01b031662f714ce83856040518363ffffffff1660e01b815260040180838152602001826001600160a01b0316815260200192505050600060405180830381600087803b15801561044f57600080fd5b505af1158015610463573d6000803e3d6000fd5b505050506104b833846001600160a01b03166370a08231306040518263ffffffff1660e01b815260040180826001600160a01b0316815260200191505060206040518083038186803b1580156103a257600080fd5b50505050565b8281146104fc576040805162461bcd60e51b8152602060048201526007602482015266042d8cadccee8d60cb1b604482015290519081900360640190fd5b60005b60ff811682111561062157600083838360ff1681811061051b57fe5b9050602002013511610560576040805162461bcd60e51b8152602060048201526009602482015268215f616d6f756e747360b81b604482015290519081900360640190fd5b6105b3333085858560ff1681811061057457fe5b9050602002013588888660ff1681811061058a57fe5b905060200201356001600160a01b03166001600160a01b0316610a7a909392919063ffffffff16565b6105f086600087878560ff168181106105c857fe5b905060200201356001600160a01b03166001600160a01b0316610b2b9092919063ffffffff16565b6106198684848460ff1681811061060357fe5b9050602002013587878560ff168181106105c857fe5b6001016104ff565b506000856001600160a01b031663797e566c868686866040518563ffffffff1660e01b81526004018080602001806020018381038352878782818152602001925060200280828437600083820152601f01601f19169091018481038352858152602090810191508690860280828437600081840152601f19601f8201169050808301925050509650505050505050602060405180830381600087803b1580156106c957600080fd5b505af11580156106dd573d6000803e3d6000fd5b505050506040513d60208110156106f357600080fd5b5051604080516329bc672160e21b815290519192506000916001600160a01b0389169163a6f19c8491600480830192602092919082900301818787803b15801561073c57600080fd5b505af1158015610750573d6000803e3d6000fd5b505050506040513d602081101561076657600080fd5b505190506001600160a01b0381161561081a5761078e6001600160a01b038816826000610b2b565b6107a26001600160a01b0388168284610b2b565b806001600160a01b031663b6b55f25836040518263ffffffff1660e01b815260040180828152602001915050600060405180830381600087803b1580156107e857600080fd5b505af11580156107fc573d6000803e3d6000fd5b50610815925050506001600160a01b0382163384610ad4565b61082e565b61082e6001600160a01b0388163384610ad4565b50505050505050565b60008111610877576040805162461bcd60e51b81526020600482015260086024820152670857d85b5bdd5b9d60c21b604482015290519081900360640190fd5b61088c6001600160a01b038316333084610a7a565b6108a16001600160a01b038316846000610b2b565b6108b56001600160a01b0383168483610b2b565b6000836001600160a01b03166347e7ef2484846040518363ffffffff1660e01b815260040180836001600160a01b0316815260200182815260200192505050602060405180830381600087803b15801561090e57600080fd5b505af1158015610922573d6000803e3d6000fd5b505050506040513d602081101561093857600080fd5b5051604080516329bc672160e21b815290519192506000916001600160a01b0387169163a6f19c8491600480830192602092919082900301818787803b15801561098157600080fd5b505af1158015610995573d6000803e3d6000fd5b505050506040513d60208110156109ab57600080fd5b505190506001600160a01b03811615610a5f576109d36001600160a01b038616826000610b2b565b6109e76001600160a01b0386168284610b2b565b806001600160a01b031663b6b55f25836040518263ffffffff1660e01b815260040180828152602001915050600060405180830381600087803b158015610a2d57600080fd5b505af1158015610a41573d6000803e3d6000fd5b50610a5a925050506001600160a01b0382163384610ad4565b610a73565b610a736001600160a01b0386163384610ad4565b5050505050565b604080516001600160a01b0380861660248301528416604482015260648082018490528251808303909101815260849091019091526020810180516001600160e01b03166323b872dd60e01b1790526104b8908590610c3a565b604080516001600160a01b038416602482015260448082018490528251808303909101815260649091019091526020810180516001600160e01b031663a9059cbb60e01b179052610b26908490610c3a565b505050565b801580610bb1575060408051636eb1769f60e11b81523060048201526001600160a01b03848116602483015291519185169163dd62ed3e91604480820192602092909190829003018186803b158015610b8357600080fd5b505afa158015610b97573d6000803e3d6000fd5b505050506040513d6020811015610bad57600080fd5b5051155b610bec5760405162461bcd60e51b8152600401808060200182810382526036815260200180610f5b6036913960400191505060405180910390fd5b604080516001600160a01b038416602482015260448082018490528251808303909101815260649091019091526020810180516001600160e01b031663095ea7b360e01b179052610b269084905b6060610c8f826040518060400160405280602081526020017f5361666545524332303a206c6f772d6c6576656c2063616c6c206661696c6564815250856001600160a01b0316610ceb9092919063ffffffff16565b805190915015610b2657808060200190516020811015610cae57600080fd5b5051610b265760405162461bcd60e51b815260040180806020018281038252602a815260200180610f31602a913960400191505060405180910390fd5b6060610cfa8484600085610d04565b90505b9392505050565b606082471015610d455760405162461bcd60e51b8152600401808060200182810382526026815260200180610f0b6026913960400191505060405180910390fd5b610d4e85610e60565b610d9f576040805162461bcd60e51b815260206004820152601d60248201527f416464726573733a2063616c6c20746f206e6f6e2d636f6e7472616374000000604482015290519081900360640190fd5b60006060866001600160a01b031685876040518082805190602001908083835b60208310610dde5780518252601f199092019160209182019101610dbf565b6001836020036101000a03801982511681845116808217855250505050505090500191505060006040518083038185875af1925050503d8060008114610e40576040519150601f19603f3d011682016040523d82523d6000602084013e610e45565b606091505b5091509150610e55828286610e66565b979650505050505050565b3b151590565b60608315610e75575081610cfd565b825115610e855782518084602001fd5b8160405162461bcd60e51b81526004018080602001828103825283818151815260200191508051906020019080838360005b83811015610ecf578181015183820152602001610eb7565b50505050905090810190601f168015610efc5780820380516001836020036101000a031916815260200191505b509250505060405180910390fdfe416464726573733a20696e73756666696369656e742062616c616e636520666f722063616c6c5361666545524332303a204552433230206f7065726174696f6e20646964206e6f7420737563636565645361666545524332303a20617070726f76652066726f6d206e6f6e2d7a65726f20746f206e6f6e2d7a65726f20616c6c6f77616e6365a2646970667358221220cfc9ad3e193d8304a239e713100be76dec31ba232cf9b2c624d46f39c298afef64736f6c634300060c0033",
  "linkReferences": {},
  "deployedLinkReferences": {}
}