{
  "_format": "hh-sol-artifact-1",
  "contractName": "LiquidationManagerV1",
  "sourceName": "contracts/v1/LiquidiationManagerV1.sol",
  "abi": [
    {
      "inputs": [
        {
          "internalType": "contract IAddressProviderV1",
          "name": "_addresses",
          "type": "address"
        }
      ],
      "stateMutability": "nonpayable",
      "type": "constructor"
    },
    {
      "inputs": [],
      "name": "FULL_LIQUIDIATION_TRESHOLD",
      "outputs": [
        {
          "internalType": "uint256",
          "name": "",
          "type": "uint256"
        }
      ],
      "stateMutability": "view",
      "type": "function"
    },
    {
      "inputs": [],
      "name": "HEALTH_FACTOR_LIQUIDATION_THRESHOLD",
      "outputs": [
        {
          "internalType": "uint256",
          "name": "",
          "type": "uint256"
        }
      ],
      "stateMutability": "view",
      "type": "function"
    },
    {
      "inputs": [],
      "name": "a",
      "outputs": [
        {
          "internalType": "contract IAddressProviderV1",
          "name": "",
          "type": "address"
        }
      ],
      "stateMutability": "view",
      "type": "function"
    },
    {
      "inputs": [
        {
          "internalType": "uint256",
          "name": "_amount",
          "type": "uint256"
        }
      ],
      "name": "applyLiquidationDiscount",
      "outputs": [
        {
          "internalType": "uint256",
          "name": "discountedAmount",
          "type": "uint256"
        }
      ],
      "stateMutability": "view",
      "type": "function"
    },
    {
      "inputs": [
        {
          "internalType": "address",
          "name": "_collateralType",
          "type": "address"
        },
        {
          "internalType": "uint256",
          "name": "_collateralValue",
          "type": "uint256"
        },
        {
          "internalType": "uint256",
          "name": "_vaultDebt",
          "type": "uint256"
        }
      ],
      "name": "calculateHealthFactor",
      "outputs": [
        {
          "internalType": "uint256",
          "name": "healthFactor",
          "type": "uint256"
        }
      ],
      "stateMutability": "view",
      "type": "function"
    },
    {
      "inputs": [
        {
          "internalType": "address",
          "name": "_collateralType",
          "type": "address"
        },
        {
          "internalType": "uint256",
          "name": "_collateralValue",
          "type": "uint256"
        },
        {
          "internalType": "uint256",
          "name": "_vaultDebt",
          "type": "uint256"
        }
      ],
      "name": "isHealthy",
      "outputs": [
        {
          "internalType": "bool",
          "name": "",
          "type": "bool"
        }
      ],
      "stateMutability": "view",
      "type": "function"
    },
    {
      "inputs": [
        {
          "internalType": "uint256",
          "name": "_amount",
          "type": "uint256"
        }
      ],
      "name": "liquidationBonus",
      "outputs": [
        {
          "internalType": "uint256",
          "name": "bonus",
          "type": "uint256"
        }
      ],
      "stateMutability": "view",
      "type": "function"
    }
  ],
  "bytecode": "0x608060405234801561001057600080fd5b506040516109ef3803806109ef83398101604081905261002f9161006c565b60016000556001600160a01b03811661004757600080fd5b600180546001600160a01b0319166001600160a01b039290921691909117905561009a565b60006020828403121561007d578081fd5b81516001600160a01b0381168114610093578182fd5b9392505050565b610946806100a96000396000f3fe608060405234801561001057600080fd5b506004361061007d5760003560e01c8063c3525c281161005b578063c3525c28146100c8578063de8a044e146100d0578063e91a5842146100e3578063eb36deb7146100f65761007d565b80630dbe671f146100825780634fbbd94c146100a05780637c4dd53e146100c0575b600080fd5b61008a610116565b60405161009791906107ea565b60405180910390f35b6100b36100ae3660046107ba565b610125565b60405161009791906108ef565b6100b361022d565b6100b361023a565b6100b36100de3660046106f6565b610246565b6100b36100f13660046107ba565b6104c6565b6101096101043660046106f6565b6105d9565b60405161009791906107fe565b6001546001600160a01b031681565b6000610227600160009054906101000a90046001600160a01b03166001600160a01b03166379502c556040518163ffffffff1660e01b815260040160206040518083038186803b15801561017857600080fd5b505afa15801561018c573d6000803e3d6000fd5b505050506040513d601f19601f820116820180604052508101906101b0919061072a565b6001600160a01b0316637b7c1f4c6040518163ffffffff1660e01b815260040160206040518083038186803b1580156101e857600080fd5b505afa1580156101fc573d6000803e3d6000fd5b505050506040513d601f19601f8201168201806040525081019061022091906107d2565b83906105fb565b92915050565b68056bc75e2d6310000081565b670de0b6b3a764000081565b60008161025c5761025561062b565b90506104bf565b60006102688484610637565b90506000600160009054906101000a90046001600160a01b03166001600160a01b03166379502c556040518163ffffffff1660e01b815260040160206040518083038186803b1580156102ba57600080fd5b505afa1580156102ce573d6000803e3d6000fd5b505050506040513d601f19601f820116820180604052508101906102f2919061072a565b6001600160a01b031663db67c4d5876040518263ffffffff1660e01b815260040161031d91906107ea565b60206040518083038186803b15801561033557600080fd5b505afa158015610349573d6000803e3d6000fd5b505050506040513d601f19601f8201168201806040525081019061036d91906107d2565b9050600081116103985760405162461bcd60e51b815260040161038f90610840565b60405180910390fd5b600154604080516379502c5560e01b815290516000926001600160a01b0316916379502c55916004808301926020929190829003018186803b1580156103dd57600080fd5b505afa1580156103f1573d6000803e3d6000fd5b505050506040513d601f19601f82011682018060405250810190610415919061072a565b6001600160a01b0316634a6e0dd0836040518263ffffffff1660e01b815260040161044091906108ef565b60a06040518083038186803b15801561045857600080fd5b505afa15801561046c573d6000803e3d6000fd5b505050506040513d601f19601f820116820180604052508101906104909190610746565b60400151905080156104b0576104a68382610637565b93505050506104bf565b670de0b6b3a764000093505050505b9392505050565b60006102276105d26104d661062b565b600160009054906101000a90046001600160a01b03166001600160a01b03166379502c556040518163ffffffff1660e01b815260040160206040518083038186803b15801561052457600080fd5b505afa158015610538573d6000803e3d6000fd5b505050506040513d601f19601f8201168201806040525081019061055c919061072a565b6001600160a01b0316637b7c1f4c6040518163ffffffff1660e01b815260040160206040518083038186803b15801561059457600080fd5b505afa1580156105a8573d6000803e3d6000fd5b505050506040513d601f19601f820116820180604052508101906105cc91906107d2565b90610665565b8390610637565b6000806105e7858585610246565b670de0b6b3a7640000111595945050505050565b60006104bf670de0b6b3a7640000610625610616868661068a565b6706f05b59d3b2000090610665565b906106c4565b670de0b6b3a764000090565b60006002820461065d8361062561065687670de0b6b3a764000061068a565b8490610665565b949350505050565b6000828201838110156104bf5760405162461bcd60e51b815260040161038f90610809565b60008261069957506000610227565b828202828482816106a657fe5b04146104bf5760405162461bcd60e51b815260040161038f906108ae565b60008082116106e55760405162461bcd60e51b815260040161038f90610877565b8183816106ee57fe5b049392505050565b60008060006060848603121561070a578283fd5b8335610715816108f8565b95602085013595506040909401359392505050565b60006020828403121561073b578081fd5b81516104bf816108f8565b600060a08284031215610757578081fd5b60405160a0810181811067ffffffffffffffff82111715610776578283fd5b6040528251610784816108f8565b80825250602083015160208201526040830151604082015260608301516060820152608083015160808201528091505092915050565b6000602082840312156107cb578081fd5b5035919050565b6000602082840312156107e3578081fd5b5051919050565b6001600160a01b0391909116815260200190565b901515815260200190565b6020808252601b908201527f536166654d6174683a206164646974696f6e206f766572666c6f770000000000604082015260600190565b60208082526018908201527f636f6c6c61746572616c206e6f7420737570706f727465640000000000000000604082015260600190565b6020808252601a908201527f536166654d6174683a206469766973696f6e206279207a65726f000000000000604082015260600190565b60208082526021908201527f536166654d6174683a206d756c7469706c69636174696f6e206f766572666c6f6040820152607760f81b606082015260800190565b90815260200190565b6001600160a01b038116811461090d57600080fd5b5056fea2646970667358221220506f0deca897b5ad71dcd06e7723f61e102972183ce7088ce36af10a2152b7a064736f6c634300060c0033",
  "linkReferences": {},
  "deployedLinkReferences": {}
}