{"abi":[{"type":"function","name":"addStrategy","inputs":[{"name":"_strategy","type":"address","internalType":"address"}],"outputs":[],"stateMutability":"nonpayable"},{"type":"function","name":"getStrategies","inputs":[],"outputs":[{"name":"","type":"address[]","internalType":"address[]"}],"stateMutability":"view"},{"type":"function","name":"initialize","inputs":[{"name":"_owner","type":"address","internalType":"address"},{"name":"_maxStrategies","type":"uint256","internalType":"uint256"}],"outputs":[],"stateMutability":"nonpayable"},{"type":"function","name":"isValidStrategy","inputs":[{"name":"_strategy","type":"address","internalType":"address"}],"outputs":[{"name":"","type":"bool","internalType":"bool"}],"stateMutability":"view"},{"type":"function","name":"maxStrategies","inputs":[],"outputs":[{"name":"","type":"uint256","internalType":"uint256"}],"stateMutability":"view"},{"type":"function","name":"owner","inputs":[],"outputs":[{"name":"","type":"address","internalType":"address"}],"stateMutability":"view"},{"type":"function","name":"registry","inputs":[{"name":"","type":"address","internalType":"address"}],"outputs":[{"name":"","type":"uint256","internalType":"uint256"}],"stateMutability":"view"},{"type":"function","name":"removeStrategy","inputs":[{"name":"_strategyIndex","type":"uint256","internalType":"uint256"},{"name":"_strategyAddress","type":"address","internalType":"address"}],"outputs":[],"stateMutability":"nonpayable"},{"type":"function","name":"renounceOwnership","inputs":[],"outputs":[],"stateMutability":"nonpayable"},{"type":"function","name":"retiredRegistry","inputs":[{"name":"","type":"address","internalType":"address"}],"outputs":[{"name":"","type":"uint256","internalType":"uint256"}],"stateMutability":"view"},{"type":"function","name":"strategies","inputs":[{"name":"","type":"uint256","internalType":"uint256"}],"outputs":[{"name":"","type":"address","internalType":"address"}],"stateMutability":"view"},{"type":"function","name":"transferOwnership","inputs":[{"name":"newOwner","type":"address","internalType":"address"}],"outputs":[],"stateMutability":"nonpayable"},{"type":"function","name":"updateMaxStrategies","inputs":[{"name":"_maxStrategies","type":"uint256","internalType":"uint256"}],"outputs":[],"stateMutability":"nonpayable"},{"type":"function","name":"updateStrategy","inputs":[{"name":"_strategyIndex","type":"uint256","internalType":"uint256"},{"name":"_oldStrategy","type":"address","internalType":"address"},{"name":"_newStrategy","type":"address","internalType":"address"}],"outputs":[],"stateMutability":"nonpayable"},{"type":"event","name":"MaxStrategiesUpdated","inputs":[{"name":"maxStrategies","type":"uint256","indexed":false,"internalType":"uint256"}],"anonymous":false},{"type":"event","name":"OwnershipTransferred","inputs":[{"name":"previousOwner","type":"address","indexed":true,"internalType":"address"},{"name":"newOwner","type":"address","indexed":true,"internalType":"address"}],"anonymous":false},{"type":"event","name":"StrategyAdded","inputs":[{"name":"strategy","type":"address","indexed":true,"internalType":"address"}],"anonymous":false},{"type":"event","name":"StrategyRemoved","inputs":[{"name":"strategy","type":"address","indexed":true,"internalType":"address"}],"anonymous":false}],"bytecode":{"object":"0x608060405234801561001057600080fd5b50611d19806100206000396000f3fe608060405234801561001057600080fd5b50600436106100ea5760003560e01c8063b49a60bb1161008c578063cd6dc68711610066578063cd6dc687146103b4578063d574ea3d14610402578063f2fde38b1461045a578063f50d49841461049e576100ea565b8063b49a60bb146102dd578063c02d17271461033c578063c79c21b714610396576100ea565b80636d1cdb9d116100c85780636d1cdb9d146101e3578063715018a61461023157806376ba717b1461023b5780638da5cb5b146102a9576100ea565b8063038defd7146100ef578063223e54791461014757806369a8405b1461018b575b600080fd5b6101316004803603602081101561010557600080fd5b81019080803573ffffffffffffffffffffffffffffffffffffffff1690602001909291905050506104cc565b6040518082815260200191505060405180910390f35b6101896004803603602081101561015d57600080fd5b81019080803573ffffffffffffffffffffffffffffffffffffffff1690602001909291905050506104e4565b005b6101cd600480360360208110156101a157600080fd5b81019080803573ffffffffffffffffffffffffffffffffffffffff169060200190929190505050610859565b6040518082815260200191505060405180910390f35b61022f600480360360408110156101f957600080fd5b8101908080359060200190929190803573ffffffffffffffffffffffffffffffffffffffff169060200190929190505050610871565b005b610239610c23565b005b6102a76004803603606081101561025157600080fd5b8101908080359060200190929190803573ffffffffffffffffffffffffffffffffffffffff169060200190929190803573ffffffffffffffffffffffffffffffffffffffff169060200190929190505050610d93565b005b6102b161129a565b604051808273ffffffffffffffffffffffffffffffffffffffff16815260200191505060405180910390f35b6102e56112c4565b6040518080602001828103825283818151815260200191508051906020019060200280838360005b8381101561032857808201518184015260208101905061030d565b505050509050019250505060405180910390f35b61037e6004803603602081101561035257600080fd5b81019080803573ffffffffffffffffffffffffffffffffffffffff169060200190929190505050611352565b60405180821515815260200191505060405180910390f35b61039e6113e9565b6040518082815260200191505060405180910390f35b610400600480360360408110156103ca57600080fd5b81019080803573ffffffffffffffffffffffffffffffffffffffff169060200190929190803590602001909291905050506113ef565b005b61042e6004803603602081101561041857600080fd5b8101908080359060200190929190505050611509565b604051808273ffffffffffffffffffffffffffffffffffffffff16815260200191505060405180910390f35b61049c6004803603602081101561047057600080fd5b81019080803573ffffffffffffffffffffffffffffffffffffffff169060200190929190505050611548565b005b6104ca600480360360208110156104b457600080fd5b810190808035906020019092919050505061173d565b005b60676020528060005260406000206000915090505481565b6104ec6117f8565b73ffffffffffffffffffffffffffffffffffffffff1661050a61129a565b73ffffffffffffffffffffffffffffffffffffffff1614610593576040517f08c379a00000000000000000000000000000000000000000000000000000000081526004018080602001828103825260208152602001807f4f776e61626c653a2063616c6c6572206973206e6f7420746865206f776e657281525060200191505060405180910390fd5b6065546001606680549050011115610613576040517f08c379a00000000000000000000000000000000000000000000000000000000081526004018080602001828103825260068152602001807f53523a415331000000000000000000000000000000000000000000000000000081525060200191505060405180910390fd5b6000606760008373ffffffffffffffffffffffffffffffffffffffff1673ffffffffffffffffffffffffffffffffffffffff16815260200190815260200160002054146106c8576040517f08c379a00000000000000000000000000000000000000000000000000000000081526004018080602001828103825260068152602001807f53523a415332000000000000000000000000000000000000000000000000000081525060200191505060405180910390fd5b600073ffffffffffffffffffffffffffffffffffffffff168173ffffffffffffffffffffffffffffffffffffffff16141561076b576040517f08c379a00000000000000000000000000000000000000000000000000000000081526004018080602001828103825260068152602001807f53523a415333000000000000000000000000000000000000000000000000000081525060200191505060405180910390fd5b6001606760008373ffffffffffffffffffffffffffffffffffffffff1673ffffffffffffffffffffffffffffffffffffffff168152602001908152602001600020819055506066819080600181540180825580915050600190039060005260206000200160009091909190916101000a81548173ffffffffffffffffffffffffffffffffffffffff021916908373ffffffffffffffffffffffffffffffffffffffff1602179055508073ffffffffffffffffffffffffffffffffffffffff167f3f008fd510eae7a9e7bee13513d7b83bef8003d488b5a3d0b0da4de71d6846f160405160405180910390a250565b60686020528060005260406000206000915090505481565b6108796117f8565b73ffffffffffffffffffffffffffffffffffffffff1661089761129a565b73ffffffffffffffffffffffffffffffffffffffff1614610920576040517f08c379a00000000000000000000000000000000000000000000000000000000081526004018080602001828103825260208152602001807f4f776e61626c653a2063616c6c6572206973206e6f7420746865206f776e657281525060200191505060405180910390fd5b60006066838154811061092f57fe5b9060005260206000200160009054906101000a900473ffffffffffffffffffffffffffffffffffffffff1690508173ffffffffffffffffffffffffffffffffffffffff168173ffffffffffffffffffffffffffffffffffffffff16146109fd576040517f08c379a00000000000000000000000000000000000000000000000000000000081526004018080602001828103825260068152602001807f53523a525331000000000000000000000000000000000000000000000000000081525060200191505060405180910390fd5b60006066805480602002602001604051908101604052809291908181526020018280548015610a8157602002820191906000526020600020905b8160009054906101000a900473ffffffffffffffffffffffffffffffffffffffff1673ffffffffffffffffffffffffffffffffffffffff1681526020019060010190808311610a37575b5050505050905060008490505b6001825103811015610b1157816001820181518110610aa957fe5b602002602001015160668281548110610abe57fe5b9060005260206000200160006101000a81548173ffffffffffffffffffffffffffffffffffffffff021916908373ffffffffffffffffffffffffffffffffffffffff160217905550806001019050610a8e565b506066805480610b1d57fe5b6001900381819060005260206000200160006101000a81549073ffffffffffffffffffffffffffffffffffffffff02191690559055606760008373ffffffffffffffffffffffffffffffffffffffff1673ffffffffffffffffffffffffffffffffffffffff168152602001908152602001600020600090556001606860008473ffffffffffffffffffffffffffffffffffffffff1673ffffffffffffffffffffffffffffffffffffffff168152602001908152602001600020819055508173ffffffffffffffffffffffffffffffffffffffff167f09a1db4b80c32706328728508c941a6b954f31eb5affd32f236c1fd405f8fea460405160405180910390a250505050565b610c2b6117f8565b73ffffffffffffffffffffffffffffffffffffffff16610c4961129a565b73ffffffffffffffffffffffffffffffffffffffff1614610cd2576040517f08c379a00000000000000000000000000000000000000000000000000000000081526004018080602001828103825260208152602001807f4f776e61626c653a2063616c6c6572206973206e6f7420746865206f776e657281525060200191505060405180910390fd5b600073ffffffffffffffffffffffffffffffffffffffff16603360009054906101000a900473ffffffffffffffffffffffffffffffffffffffff1673ffffffffffffffffffffffffffffffffffffffff167f8be0079c531659141344cd1fd0a4f28419497f9722a3daafe3b4186f6b6457e060405160405180910390a36000603360006101000a81548173ffffffffffffffffffffffffffffffffffffffff021916908373ffffffffffffffffffffffffffffffffffffffff160217905550565b610d9b6117f8565b73ffffffffffffffffffffffffffffffffffffffff16610db961129a565b73ffffffffffffffffffffffffffffffffffffffff1614610e42576040517f08c379a00000000000000000000000000000000000000000000000000000000081526004018080602001828103825260208152602001807f4f776e61626c653a2063616c6c6572206973206e6f7420746865206f776e657281525060200191505060405180910390fd5b6066805490508310610ebc576040517f08c379a00000000000000000000000000000000000000000000000000000000081526004018080602001828103825260068152602001807f53523a555331000000000000000000000000000000000000000000000000000081525060200191505060405180910390fd5b8173ffffffffffffffffffffffffffffffffffffffff1660668481548110610ee057fe5b9060005260206000200160009054906101000a900473ffffffffffffffffffffffffffffffffffffffff1673ffffffffffffffffffffffffffffffffffffffff1614610f94576040517f08c379a00000000000000000000000000000000000000000000000000000000081526004018080602001828103825260068152602001807f53523a555332000000000000000000000000000000000000000000000000000081525060200191505060405180910390fd5b600073ffffffffffffffffffffffffffffffffffffffff168173ffffffffffffffffffffffffffffffffffffffff161415611037576040517f08c379a00000000000000000000000000000000000000000000000000000000081526004018080602001828103825260068152602001807f53523a555333000000000000000000000000000000000000000000000000000081525060200191505060405180910390fd5b6000606760008373ffffffffffffffffffffffffffffffffffffffff1673ffffffffffffffffffffffffffffffffffffffff16815260200190815260200160002054146110ec576040517f08c379a00000000000000000000000000000000000000000000000000000000081526004018080602001828103825260068152602001807f53523a555334000000000000000000000000000000000000000000000000000081525060200191505060405180910390fd5b80606684815481106110fa57fe5b9060005260206000200160006101000a81548173ffffffffffffffffffffffffffffffffffffffff021916908373ffffffffffffffffffffffffffffffffffffffff160217905550606760008373ffffffffffffffffffffffffffffffffffffffff1673ffffffffffffffffffffffffffffffffffffffff168152602001908152602001600020600090556001606860008473ffffffffffffffffffffffffffffffffffffffff1673ffffffffffffffffffffffffffffffffffffffff168152602001908152602001600020819055508173ffffffffffffffffffffffffffffffffffffffff167f09a1db4b80c32706328728508c941a6b954f31eb5affd32f236c1fd405f8fea460405160405180910390a26001606760008373ffffffffffffffffffffffffffffffffffffffff1673ffffffffffffffffffffffffffffffffffffffff168152602001908152602001600020819055508073ffffffffffffffffffffffffffffffffffffffff167f3f008fd510eae7a9e7bee13513d7b83bef8003d488b5a3d0b0da4de71d6846f160405160405180910390a2505050565b6000603360009054906101000a900473ffffffffffffffffffffffffffffffffffffffff16905090565b6060606680548060200260200160405190810160405280929190818152602001828054801561134857602002820191906000526020600020905b8160009054906101000a900473ffffffffffffffffffffffffffffffffffffffff1673ffffffffffffffffffffffffffffffffffffffff16815260200190600101908083116112fe575b5050505050905090565b600080606760008473ffffffffffffffffffffffffffffffffffffffff1673ffffffffffffffffffffffffffffffffffffffff168152602001908152602001600020541415806113e257506000606860008473ffffffffffffffffffffffffffffffffffffffff1673ffffffffffffffffffffffffffffffffffffffff1681526020019081526020016000205414155b9050919050565b60655481565b600060019054906101000a900460ff168061140e575061140d611800565b5b80611424575060008054906101000a900460ff16155b611479576040517f08c379a000000000000000000000000000000000000000000000000000000000815260040180806020018281038252602e815260200180611cb6602e913960400191505060405180910390fd5b60008060019054906101000a900460ff1615905080156114c9576001600060016101000a81548160ff02191690831515021790555060016000806101000a81548160ff0219169083151502179055505b6114d1611811565b6114da83611548565b6114e38261191f565b80156115045760008060016101000a81548160ff0219169083151502179055505b505050565b6066818154811061151957600080fd5b906000526020600020016000915054906101000a900473ffffffffffffffffffffffffffffffffffffffff1681565b6115506117f8565b73ffffffffffffffffffffffffffffffffffffffff1661156e61129a565b73ffffffffffffffffffffffffffffffffffffffff16146115f7576040517f08c379a00000000000000000000000000000000000000000000000000000000081526004018080602001828103825260208152602001807f4f776e61626c653a2063616c6c6572206973206e6f7420746865206f776e657281525060200191505060405180910390fd5b600073ffffffffffffffffffffffffffffffffffffffff168173ffffffffffffffffffffffffffffffffffffffff16141561167d576040517f08c379a0000000000000000000000000000000000000000000000000000000008152600401808060200182810382526026815260200180611c906026913960400191505060405180910390fd5b8073ffffffffffffffffffffffffffffffffffffffff16603360009054906101000a900473ffffffffffffffffffffffffffffffffffffffff1673ffffffffffffffffffffffffffffffffffffffff167f8be0079c531659141344cd1fd0a4f28419497f9722a3daafe3b4186f6b6457e060405160405180910390a380603360006101000a81548173ffffffffffffffffffffffffffffffffffffffff021916908373ffffffffffffffffffffffffffffffffffffffff16021790555050565b6117456117f8565b73ffffffffffffffffffffffffffffffffffffffff1661176361129a565b73ffffffffffffffffffffffffffffffffffffffff16146117ec576040517f08c379a00000000000000000000000000000000000000000000000000000000081526004018080602001828103825260208152602001807f4f776e61626c653a2063616c6c6572206973206e6f7420746865206f776e657281525060200191505060405180910390fd5b6117f58161191f565b50565b600033905090565b600061180b306119d7565b15905090565b600060019054906101000a900460ff1680611830575061182f611800565b5b80611846575060008054906101000a900460ff16155b61189b576040517f08c379a000000000000000000000000000000000000000000000000000000000815260040180806020018281038252602e815260200180611cb6602e913960400191505060405180910390fd5b60008060019054906101000a900460ff1615905080156118eb576001600060016101000a81548160ff02191690831515021790555060016000806101000a81548160ff0219169083151502179055505b6118f36119ea565b6118fb611ae8565b801561191c5760008060016101000a81548160ff0219169083151502179055505b50565b6000811415611996576040517f08c379a00000000000000000000000000000000000000000000000000000000081526004018080602001828103825260088152602001807f53523a49554d533100000000000000000000000000000000000000000000000081525060200191505060405180910390fd5b806065819055507fd59e44bf8aa1c1d7491eb52429bbdce9f1fe3bbb314b1786e509c58bf76365b7816040518082815260200191505060405180910390a150565b600080823b905060008111915050919050565b600060019054906101000a900460ff1680611a095750611a08611800565b5b80611a1f575060008054906101000a900460ff16155b611a74576040517f08c379a000000000000000000000000000000000000000000000000000000000815260040180806020018281038252602e815260200180611cb6602e913960400191505060405180910390fd5b60008060019054906101000a900460ff161590508015611ac4576001600060016101000a81548160ff02191690831515021790555060016000806101000a81548160ff0219169083151502179055505b8015611ae55760008060016101000a81548160ff0219169083151502179055505b50565b600060019054906101000a900460ff1680611b075750611b06611800565b5b80611b1d575060008054906101000a900460ff16155b611b72576040517f08c379a000000000000000000000000000000000000000000000000000000000815260040180806020018281038252602e815260200180611cb6602e913960400191505060405180910390fd5b60008060019054906101000a900460ff161590508015611bc2576001600060016101000a81548160ff02191690831515021790555060016000806101000a81548160ff0219169083151502179055505b6000611bcc6117f8565b905080603360006101000a81548173ffffffffffffffffffffffffffffffffffffffff021916908373ffffffffffffffffffffffffffffffffffffffff1602179055508073ffffffffffffffffffffffffffffffffffffffff16600073ffffffffffffffffffffffffffffffffffffffff167f8be0079c531659141344cd1fd0a4f28419497f9722a3daafe3b4186f6b6457e060405160405180910390a3508015611c8c5760008060016101000a81548160ff0219169083151502179055505b5056fe4f776e61626c653a206e6577206f776e657220697320746865207a65726f2061646472657373496e697469616c697a61626c653a20636f6e747261637420697320616c726561647920696e697469616c697a6564a264697066735822122056223a33a302e5dbc044454e6421198b88fdf4b6f1c34a9ed89b280f3a62d11e64736f6c63430007060033","linkReferences":{}},"methodIdentifiers":{"addStrategy(address)":"223e5479","getStrategies()":"b49a60bb","initialize(address,uint256)":"cd6dc687","isValidStrategy(address)":"c02d1727","maxStrategies()":"c79c21b7","owner()":"8da5cb5b","registry(address)":"038defd7","removeStrategy(uint256,address)":"6d1cdb9d","renounceOwnership()":"715018a6","retiredRegistry(address)":"69a8405b","strategies(uint256)":"d574ea3d","transferOwnership(address)":"f2fde38b","updateMaxStrategies(uint256)":"f50d4984","updateStrategy(uint256,address,address)":"76ba717b"},"id":54}