{
  "_format": "hh-sol-artifact-1",
  "contractName": "TestCallStatic",
  "sourceName": "contracts/test/TestCallStatic.sol",
  "abi": [
    {
      "inputs": [],
      "name": "a",
      "outputs": [
        {
          "internalType": "uint256",
          "name": "",
          "type": "uint256"
        }
      ],
      "stateMutability": "view",
      "type": "function"
    },
    {
      "inputs": [],
      "name": "incA",
      "outputs": [
        {
          "internalType": "uint256",
          "name": "",
          "type": "uint256"
        }
      ],
      "stateMutability": "nonpayable",
      "type": "function"
    }
  ],
  "bytecode": "0x608060405234801561001057600080fd5b5060c98061001f6000396000f3fe6080604052348015600f57600080fd5b506004361060325760003560e01c80630dbe671f146037578063aed17d5114604d575b600080fd5b6000545b60405190815260200160405180910390f35b603b6000600160008082825460619190606e565b9091555050600054919050565b60008219821115608e57634e487b7160e01b600052601160045260246000fd5b50019056fea2646970667358221220e62c2975d828737ee6d6997f453686a50489b8fb8bf288edebb09cff55269b5264736f6c63430008090033",
  "linkReferences": {},
  "deployedLinkReferences": {}
}