{
  "_format": "hh-sol-artifact-1",
  "contractName": "TestSortedDoublyLLFindWithHints",
  "sourceName": "contracts/test/TestSortedDoublyLLFindWithHints.sol",
  "abi": [
    {
      "constant": false,
      "inputs": [],
      "name": "test_insert_findWithHintNextAtPosition",
      "outputs": [],
      "payable": false,
      "stateMutability": "nonpayable",
      "type": "function"
    },
    {
      "constant": false,
      "inputs": [],
      "name": "test_insert_findWithHint",
      "outputs": [],
      "payable": false,
      "stateMutability": "nonpayable",
      "type": "function"
    },
    {
      "constant": false,
      "inputs": [],
      "name": "test_insert_findWithHintPrevAtPosition",
      "outputs": [],
      "payable": false,
      "stateMutability": "nonpayable",
      "type": "function"
    },
    {
      "constant": false,
      "inputs": [],
      "name": "test_insert_findNoHintUpdateHead",
      "outputs": [],
      "payable": false,
      "stateMutability": "nonpayable",
      "type": "function"
    },
    {
      "constant": false,
      "inputs": [],
      "name": "test_insert_findWithHintPrevUpdateTail",
      "outputs": [],
      "payable": false,
      "stateMutability": "nonpayable",
      "type": "function"
    },
    {
      "constant": false,
      "inputs": [],
      "name": "beforeEach",
      "outputs": [],
      "payable": false,
      "stateMutability": "nonpayable",
      "type": "function"
    },
    {
      "constant": false,
      "inputs": [],
      "name": "test_insert_findNoHintUpdateTail",
      "outputs": [],
      "payable": false,
      "stateMutability": "nonpayable",
      "type": "function"
    },
    {
      "constant": false,
      "inputs": [],
      "name": "test_insert_findWithHintNextUpdateHead",
      "outputs": [],
      "payable": false,
      "stateMutability": "nonpayable",
      "type": "function"
    },
    {
      "constant": false,
      "inputs": [],
      "name": "test_insert_findNoHintAtPosition",
      "outputs": [],
      "payable": false,
      "stateMutability": "nonpayable",
      "type": "function"
    },
    {
      "constant": false,
      "inputs": [],
      "name": "test_insert_findWithHintNextUpdateTail",
      "outputs": [],
      "payable": false,
      "stateMutability": "nonpayable",
      "type": "function"
    }
  ],
  "bytecode": "0x61014060405260016080908152600260a052600360c052600460e0526005610100526006610120819052620000379160009162000092565b506040518060c00160405280600d8152602001600b8152602001600981526020016007815260200160058152602001600381525060019060066200007d929190620000fc565b503480156200008b57600080fd5b506200018f565b828054828255906000526020600020908101928215620000ea579160200282015b82811115620000ea57825182546001600160a01b0319166001600160a01b03909116178255602090920191600190910190620000b3565b50620000f892915062000148565b5090565b8280548282559060005260206000209081019282156200013a579160200282015b828111156200013a5782518255916020019190600101906200011d565b50620000f892915062000172565b6200016f91905b80821115620000f85780546001600160a01b03191681556001016200014f565b90565b6200016f91905b80821115620000f8576000815560010162000179565b614b32806200019f6000396000f3fe608060405234801561001057600080fd5b506004361061009e5760003560e01c80636331e7d4116100665780636331e7d4146100cd578063756a515f146100d5578063ac833fd9146100dd578063b9f9d9a5146100e5578063c1a85e16146100ed5761009e565b80630696647a146100a35780631b011bd9146100ad5780631dfde4a5146100b5578063332ae26c146100bd5780634bda3f2b146100c5575b600080fd5b6100ab6100f5565b005b6100ab610993565b6100ab61113c565b6100ab611644565b6100ab611e80565b6100ab6126e4565b6100ab612787565b6100ab612f22565b6100ab61342f565b6100ab613a65565b600254600080546001600160a01b03909216916346f7cf879190819061011757fe5b6000918252602082200154600180546001600160a01b0390921692909161013a57fe5b6000918252602082200154604080516001600160e01b031960e087901b1681526001600160a01b039094166004850152602484019190915260448301829052606483018290525160848084019382900301818387803b15801561019c57600080fd5b505af11580156101b0573d6000803e3d6000fd5b5050600254600080546001600160a01b0390921693506346f7cf8792509060019081106101d957fe5b600091825260209091200154600180546001600160a01b0390921691819081106101ff57fe5b90600052602060002001546000808154811061021757fe5b6000918252602082200154604080516001600160e01b031960e088901b1681526001600160a01b0395861660048201526024810194909452931660448301526064820181905291516084808301939282900301818387803b15801561027b57600080fd5b505af115801561028f573d6000803e3d6000fd5b5050600254600080546001600160a01b0390921693506346f7cf8792509060039081106102b857fe5b600091825260209091200154600180546001600160a01b039092169160039081106102df57fe5b906000526020600020015460006001815481106102f857fe5b6000918252602082200154604080516001600160e01b031960e088901b1681526001600160a01b0395861660048201526024810194909452931660448301526064820181905291516084808301939282900301818387803b15801561035c57600080fd5b505af1158015610370573d6000803e3d6000fd5b5050600254600080546001600160a01b0390921693506346f7cf87925090600490811061039957fe5b600091825260209091200154600180546001600160a01b039092169160049081106103c057fe5b906000526020600020015460006003815481106103d957fe5b6000918252602082200154604080516001600160e01b031960e088901b1681526001600160a01b0395861660048201526024810194909452931660448301526064820181905291516084808301939282900301818387803b15801561043d57600080fd5b505af1158015610451573d6000803e3d6000fd5b5050600254600080546001600160a01b0390921693506346f7cf87925090600590811061047a57fe5b600091825260209091200154600180546001600160a01b039092169160059081106104a157fe5b906000526020600020015460006004815481106104ba57fe5b6000918252602082200154604080516001600160e01b031960e088901b1681526001600160a01b0395861660048201526024810194909452931660448301526064820181905291516084808301939282900301818387803b15801561051e57600080fd5b505af1158015610532573d6000803e3d6000fd5b505060028054600080546001600160a01b0390921694506346f7cf8793509190811061055a57fe5b600091825260209091200154600180546001600160a01b0390921691600290811061058157fe5b906000526020600020015460008060038154811061059b57fe5b6000918252602082200154604080516001600160e01b031960e089901b1681526001600160a01b03968716600482015260248101959095529285166044850152939093166064830152516084808301939282900301818387803b15801561060157600080fd5b505af1158015610615573d6000803e3d6000fd5b505050506106bf600260009054906101000a90046001600160a01b03166001600160a01b031663de8fa4316040518163ffffffff1660e01b815260040160206040518083038186803b15801561066a57600080fd5b505afa15801561067e573d6000803e3d6000fd5b505050506040513d602081101561069457600080fd5b505160408051808201909152600a81526977726f6e672073697a6560b01b60208201526006906141e6565b5060028054600080546107a2936001600160a01b03909316926393790f44929181106106e757fe5b60009182526020918290200154604080516001600160e01b031960e086901b1681526001600160a01b0390921660048301525160248083019392829003018186803b15801561073557600080fd5b505afa158015610749573d6000803e3d6000fd5b505050506040513d602081101561075f57600080fd5b505160018054600290811061077057fe5b90600052602060002001546040518060400160405280600981526020016877726f6e67206b657960b81b8152506141e6565b506002805460008054610899936001600160a01b039093169263765e0159929181106107ca57fe5b60009182526020918290200154604080516001600160e01b031960e086901b1681526001600160a01b0390921660048301525160248083019392829003018186803b15801561081857600080fd5b505afa15801561082c573d6000803e3d6000fd5b505050506040513d602081101561084257600080fd5b505160008054600390811061085357fe5b9060005260206000200160009054906101000a90046001600160a01b03166040518060400160405280600a8152602001691ddc9bdb99c81b995e1d60b21b8152506142dd565b506002805460008054610990936001600160a01b039093169263b72703ac929181106108c157fe5b60009182526020918290200154604080516001600160e01b031960e086901b1681526001600160a01b0390921660048301525160248083019392829003018186803b15801561090f57600080fd5b505afa158015610923573d6000803e3d6000fd5b505050506040513d602081101561093957600080fd5b505160008054600190811061094a57fe5b9060005260206000200160009054906101000a90046001600160a01b03166040518060400160405280600a8152602001693bb937b73390383932bb60b11b8152506142dd565b50565b600254600080546001600160a01b03909216916346f7cf87919081906109b557fe5b6000918252602082200154600180546001600160a01b039092169290916109d857fe5b6000918252602082200154604080516001600160e01b031960e087901b1681526001600160a01b039094166004850152602484019190915260448301829052606483018290525160848084019382900301818387803b158015610a3a57600080fd5b505af1158015610a4e573d6000803e3d6000fd5b5050600254600080546001600160a01b0390921693506346f7cf879250906001908110610a7757fe5b600091825260209091200154600180546001600160a01b039092169181908110610a9d57fe5b906000526020600020015460008081548110610ab557fe5b6000918252602082200154604080516001600160e01b031960e088901b1681526001600160a01b0395861660048201526024810194909452931660448301526064820181905291516084808301939282900301818387803b158015610b1957600080fd5b505af1158015610b2d573d6000803e3d6000fd5b505060028054600080546001600160a01b0390921694506346f7cf87935091908110610b5557fe5b600091825260209091200154600180546001600160a01b03909216916002908110610b7c57fe5b90600052602060002001546000600181548110610b9557fe5b6000918252602082200154604080516001600160e01b031960e088901b1681526001600160a01b0395861660048201526024810194909452931660448301526064820181905291516084808301939282900301818387803b158015610bf957600080fd5b505af1158015610c0d573d6000803e3d6000fd5b5050600254600080546001600160a01b0390921693506346f7cf879250906004908110610c3657fe5b600091825260209091200154600180546001600160a01b03909216916004908110610c5d57fe5b90600052602060002001546000600281548110610c7657fe5b6000918252602082200154604080516001600160e01b031960e088901b1681526001600160a01b0395861660048201526024810194909452931660448301526064820181905291516084808301939282900301818387803b158015610cda57600080fd5b505af1158015610cee573d6000803e3d6000fd5b5050600254600080546001600160a01b0390921693506346f7cf879250906005908110610d1757fe5b600091825260209091200154600180546001600160a01b03909216916005908110610d3e57fe5b90600052602060002001546000600481548110610d5757fe5b6000918252602082200154604080516001600160e01b031960e088901b1681526001600160a01b0395861660048201526024810194909452931660448301526064820181905291516084808301939282900301818387803b158015610dbb57600080fd5b505af1158015610dcf573d6000803e3d6000fd5b5050600254600080546001600160a01b0390921693506346f7cf879250906003908110610df857fe5b600091825260209091200154600180546001600160a01b03909216916003908110610e1f57fe5b90600052602060002001546000600281548110610e3857fe5b600091825260208220015481546001600160a01b0390911691906004908110610e5d57fe5b6000918252602082200154604080516001600160e01b031960e089901b1681526001600160a01b03968716600482015260248101959095529285166044850152939093166064830152516084808301939282900301818387803b158015610ec357600080fd5b505af1158015610ed7573d6000803e3d6000fd5b50505050610f2c600260009054906101000a90046001600160a01b03166001600160a01b031663de8fa4316040518163ffffffff1660e01b815260040160206040518083038186803b15801561066a57600080fd5b5060025460008054610fdc926001600160a01b0316916393790f44916003908110610f5357fe5b60009182526020918290200154604080516001600160e01b031960e086901b1681526001600160a01b0390921660048301525160248083019392829003018186803b158015610fa157600080fd5b505afa158015610fb5573d6000803e3d6000fd5b505050506040513d6020811015610fcb57600080fd5b505160018054600390811061077057fe5b506002546000805461108c926001600160a01b03169163765e015991600390811061100357fe5b60009182526020918290200154604080516001600160e01b031960e086901b1681526001600160a01b0390921660048301525160248083019392829003018186803b15801561105157600080fd5b505afa158015611065573d6000803e3d6000fd5b505050506040513d602081101561107b57600080fd5b505160008054600490811061085357fe5b5060025460008054610990926001600160a01b03169163b72703ac9160039081106110b357fe5b60009182526020918290200154604080516001600160e01b031960e086901b1681526001600160a01b0390921660048301525160248083019392829003018186803b15801561110157600080fd5b505afa158015611115573d6000803e3d6000fd5b505050506040513d602081101561112b57600080fd5b505160008054600290811061094a57fe5b600254600080546001600160a01b03909216916346f7cf879190819061115e57fe5b6000918252602082200154600180546001600160a01b0390921692909161118157fe5b6000918252602082200154604080516001600160e01b031960e087901b1681526001600160a01b039094166004850152602484019190915260448301829052606483018290525160848084019382900301818387803b1580156111e357600080fd5b505af11580156111f7573d6000803e3d6000fd5b5050600254600080546001600160a01b0390921693506346f7cf87925090600190811061122057fe5b600091825260209091200154600180546001600160a01b03909216918190811061124657fe5b90600052602060002001546000808154811061125e57fe5b6000918252602082200154604080516001600160e01b031960e088901b1681526001600160a01b0395861660048201526024810194909452931660448301526064820181905291516084808301939282900301818387803b1580156112c257600080fd5b505af11580156112d6573d6000803e3d6000fd5b5050600254600080546001600160a01b0390921693506346f7cf8792509060039081106112ff57fe5b600091825260209091200154600180546001600160a01b0390921691600390811061132657fe5b9060005260206000200154600060018154811061133f57fe5b6000918252602082200154604080516001600160e01b031960e088901b1681526001600160a01b0395861660048201526024810194909452931660448301526064820181905291516084808301939282900301818387803b1580156113a357600080fd5b505af11580156113b7573d6000803e3d6000fd5b5050600254600080546001600160a01b0390921693506346f7cf8792509060049081106113e057fe5b600091825260209091200154600180546001600160a01b0390921691600490811061140757fe5b9060005260206000200154600060038154811061142057fe5b6000918252602082200154604080516001600160e01b031960e088901b1681526001600160a01b0395861660048201526024810194909452931660448301526064820181905291516084808301939282900301818387803b15801561148457600080fd5b505af1158015611498573d6000803e3d6000fd5b5050600254600080546001600160a01b0390921693506346f7cf8792509060059081106114c157fe5b600091825260209091200154600180546001600160a01b039092169160059081106114e857fe5b9060005260206000200154600060048154811061150157fe5b6000918252602082200154604080516001600160e01b031960e088901b1681526001600160a01b0395861660048201526024810194909452931660448301526064820181905291516084808301939282900301818387803b15801561156557600080fd5b505af1158015611579573d6000803e3d6000fd5b505060028054600080546001600160a01b0390921694506346f7cf879350919081106115a157fe5b600091825260209091200154600180546001600160a01b039092169160029081106115c857fe5b9060005260206000200154600080815481106115e057fe5b6000918252602082200154604080516001600160e01b031960e088901b1681526001600160a01b0395861660048201526024810194909452931660448301526064820181905291516084808301939282900301818387803b15801561060157600080fd5b600254600080546001600160a01b03909216916346f7cf879190600190811061166957fe5b600091825260209091200154600180546001600160a01b03909216918190811061168f57fe5b6000918252602082200154604080516001600160e01b031960e087901b1681526001600160a01b039094166004850152602484019190915260448301829052606483018290525160848084019382900301818387803b1580156116f157600080fd5b505af1158015611705573d6000803e3d6000fd5b505060028054600080546001600160a01b0390921694506346f7cf8793509190811061172d57fe5b600091825260209091200154600180546001600160a01b0390921691600290811061175457fe5b9060005260206000200154600060018154811061176d57fe5b6000918252602082200154604080516001600160e01b031960e088901b1681526001600160a01b0395861660048201526024810194909452931660448301526064820181905291516084808301939282900301818387803b1580156117d157600080fd5b505af11580156117e5573d6000803e3d6000fd5b5050600254600080546001600160a01b0390921693506346f7cf87925090600390811061180e57fe5b600091825260209091200154600180546001600160a01b0390921691600390811061183557fe5b9060005260206000200154600060028154811061184e57fe5b6000918252602082200154604080516001600160e01b031960e088901b1681526001600160a01b0395861660048201526024810194909452931660448301526064820181905291516084808301939282900301818387803b1580156118b257600080fd5b505af11580156118c6573d6000803e3d6000fd5b5050600254600080546001600160a01b0390921693506346f7cf8792509060049081106118ef57fe5b600091825260209091200154600180546001600160a01b0390921691600490811061191657fe5b9060005260206000200154600060038154811061192f57fe5b6000918252602082200154604080516001600160e01b031960e088901b1681526001600160a01b0395861660048201526024810194909452931660448301526064820181905291516084808301939282900301818387803b15801561199357600080fd5b505af11580156119a7573d6000803e3d6000fd5b5050600254600080546001600160a01b0390921693506346f7cf8792509060059081106119d057fe5b600091825260209091200154600180546001600160a01b039092169160059081106119f757fe5b90600052602060002001546000600481548110611a1057fe5b6000918252602082200154604080516001600160e01b031960e088901b1681526001600160a01b0395861660048201526024810194909452931660448301526064820181905291516084808301939282900301818387803b158015611a7457600080fd5b505af1158015611a88573d6000803e3d6000fd5b5050600254600080546001600160a01b0390921693506346f7cf879250908190611aae57fe5b6000918252602082200154600180546001600160a01b03909216929091611ad157fe5b6000918252602082200154604080516001600160e01b031960e087901b1681526001600160a01b039094166004850152602484019190915260448301829052606483018290525160848084019382900301818387803b158015611b3357600080fd5b505af1158015611b47573d6000803e3d6000fd5b50505050611b9c600260009054906101000a90046001600160a01b03166001600160a01b031663de8fa4316040518163ffffffff1660e01b815260040160206040518083038186803b15801561066a57600080fd5b5060025460408051631e22314360e01b81529051611c61926001600160a01b031691631e223143916004808301926020929190829003018186803b158015611be357600080fd5b505afa158015611bf7573d6000803e3d6000fd5b505050506040513d6020811015611c0d57600080fd5b5051600080548190611c1b57fe5b9060005260206000200160009054906101000a90046001600160a01b03166040518060400160405280600a8152602001691ddc9bdb99c81a19585960b21b8152506142dd565b5060025460008054611d0c926001600160a01b0316916393790f44918190611c8557fe5b60009182526020918290200154604080516001600160e01b031960e086901b1681526001600160a01b0390921660048301525160248083019392829003018186803b158015611cd357600080fd5b505afa158015611ce7573d6000803e3d6000fd5b505050506040513d6020811015611cfd57600080fd5b50516001805460009061077057fe5b5060025460008054611db9926001600160a01b03169163765e0159918190611d3057fe5b60009182526020918290200154604080516001600160e01b031960e086901b1681526001600160a01b0390921660048301525160248083019392829003018186803b158015611d7e57600080fd5b505afa158015611d92573d6000803e3d6000fd5b505050506040513d6020811015611da857600080fd5b505160008054600190811061085357fe5b5060025460008054610990926001600160a01b03169163b72703ac918190611ddd57fe5b60009182526020918290200154604080516001600160e01b031960e086901b1681526001600160a01b0390921660048301525160248083019392829003018186803b158015611e2b57600080fd5b505afa158015611e3f573d6000803e3d6000fd5b505050506040513d6020811015611e5557600080fd5b505160408051808201909152600a8152693bb937b73390383932bb60b11b60208201526000906142dd565b600254600080546001600160a01b03909216916346f7cf8791908190611ea257fe5b6000918252602082200154600180546001600160a01b03909216929091611ec557fe5b6000918252602082200154604080516001600160e01b031960e087901b1681526001600160a01b039094166004850152602484019190915260448301829052606483018290525160848084019382900301818387803b158015611f2757600080fd5b505af1158015611f3b573d6000803e3d6000fd5b5050600254600080546001600160a01b0390921693506346f7cf879250906001908110611f6457fe5b600091825260209091200154600180546001600160a01b039092169181908110611f8a57fe5b906000526020600020015460008081548110611fa257fe5b6000918252602082200154604080516001600160e01b031960e088901b1681526001600160a01b0395861660048201526024810194909452931660448301526064820181905291516084808301939282900301818387803b15801561200657600080fd5b505af115801561201a573d6000803e3d6000fd5b505060028054600080546001600160a01b0390921694506346f7cf8793509190811061204257fe5b600091825260209091200154600180546001600160a01b0390921691600290811061206957fe5b9060005260206000200154600060018154811061208257fe5b6000918252602082200154604080516001600160e01b031960e088901b1681526001600160a01b0395861660048201526024810194909452931660448301526064820181905291516084808301939282900301818387803b1580156120e657600080fd5b505af11580156120fa573d6000803e3d6000fd5b5050600254600080546001600160a01b0390921693506346f7cf87925090600390811061212357fe5b600091825260209091200154600180546001600160a01b0390921691600390811061214a57fe5b9060005260206000200154600060018154811061216357fe5b6000918252602082200154604080516001600160e01b031960e088901b1681526001600160a01b0395861660048201526024810194909452931660448301526064820181905291516084808301939282900301818387803b1580156121c757600080fd5b505af11580156121db573d6000803e3d6000fd5b5050600254600080546001600160a01b0390921693506346f7cf87925090600490811061220457fe5b600091825260209091200154600180546001600160a01b0390921691600490811061222b57fe5b9060005260206000200154600060038154811061224457fe5b6000918252602082200154604080516001600160e01b031960e088901b1681526001600160a01b0395861660048201526024810194909452931660448301526064820181905291516084808301939282900301818387803b1580156122a857600080fd5b505af11580156122bc573d6000803e3d6000fd5b5050600254600080546001600160a01b0390921693506346f7cf8792509060059081106122e557fe5b600091825260209091200154600180546001600160a01b0390921691600590811061230c57fe5b9060005260206000200154600060018154811061232557fe5b6000918252602082200154604080516001600160e01b031960e088901b1681526001600160a01b0395861660048201526024810194909452931660448301526064820181905291516084808301939282900301818387803b15801561238957600080fd5b505af115801561239d573d6000803e3d6000fd5b505050506123f2600260009054906101000a90046001600160a01b03166001600160a01b031663de8fa4316040518163ffffffff1660e01b815260040160206040518083038186803b15801561066a57600080fd5b5060025460408051634d62283160e01b815290516124ba926001600160a01b031691634d622831916004808301926020929190829003018186803b15801561243957600080fd5b505afa15801561244d573d6000803e3d6000fd5b505050506040513d602081101561246357600080fd5b505160008054600590811061247457fe5b9060005260206000200160009054906101000a90046001600160a01b03166040518060400160405280600a8152602001691ddc9bdb99c81d185a5b60b21b8152506142dd565b506002546000805461256a926001600160a01b0316916393790f449160059081106124e157fe5b60009182526020918290200154604080516001600160e01b031960e086901b1681526001600160a01b0390921660048301525160248083019392829003018186803b15801561252f57600080fd5b505afa158015612543573d6000803e3d6000fd5b505050506040513d602081101561255957600080fd5b505160018054600590811061077057fe5b5060025460008054612634926001600160a01b03169163765e015991600590811061259157fe5b60009182526020918290200154604080516001600160e01b031960e086901b1681526001600160a01b0390921660048301525160248083019392829003018186803b1580156125df57600080fd5b505afa1580156125f3573d6000803e3d6000fd5b505050506040513d602081101561260957600080fd5b505160408051808201909152600a8152691ddc9bdb99c81b995e1d60b21b60208201526000906142dd565b5060025460008054610990926001600160a01b03169163b72703ac91600590811061265b57fe5b60009182526020918290200154604080516001600160e01b031960e086901b1681526001600160a01b0390921660048301525160248083019392829003018186803b1580156126a957600080fd5b505afa1580156126bd573d6000803e3d6000fd5b505050506040513d60208110156126d357600080fd5b505160008054600490811061094a57fe5b6040516126f090614362565b604051809103906000f08015801561270c573d6000803e3d6000fd5b50600280546001600160a01b0319166001600160a01b0392831617908190556040805163205b845f60e21b8152600a60048201529051919092169163816e117c91602480830192600092919082900301818387803b15801561276d57600080fd5b505af1158015612781573d6000803e3d6000fd5b50505050565b600254600080546001600160a01b03909216916346f7cf87919081906127a957fe5b6000918252602082200154600180546001600160a01b039092169290916127cc57fe5b6000918252602082200154604080516001600160e01b031960e087901b1681526001600160a01b039094166004850152602484019190915260448301829052606483018290525160848084019382900301818387803b15801561282e57600080fd5b505af1158015612842573d6000803e3d6000fd5b5050600254600080546001600160a01b0390921693506346f7cf87925090600190811061286b57fe5b600091825260209091200154600180546001600160a01b03909216918190811061289157fe5b9060005260206000200154600080815481106128a957fe5b6000918252602082200154604080516001600160e01b031960e088901b1681526001600160a01b0395861660048201526024810194909452931660448301526064820181905291516084808301939282900301818387803b15801561290d57600080fd5b505af1158015612921573d6000803e3d6000fd5b505060028054600080546001600160a01b0390921694506346f7cf8793509190811061294957fe5b600091825260209091200154600180546001600160a01b0390921691600290811061297057fe5b9060005260206000200154600060018154811061298957fe5b6000918252602082200154604080516001600160e01b031960e088901b1681526001600160a01b0395861660048201526024810194909452931660448301526064820181905291516084808301939282900301818387803b1580156129ed57600080fd5b505af1158015612a01573d6000803e3d6000fd5b5050600254600080546001600160a01b0390921693506346f7cf879250906003908110612a2a57fe5b600091825260209091200154600180546001600160a01b03909216916003908110612a5157fe5b90600052602060002001546000600281548110612a6a57fe5b6000918252602082200154604080516001600160e01b031960e088901b1681526001600160a01b0395861660048201526024810194909452931660448301526064820181905291516084808301939282900301818387803b158015612ace57600080fd5b505af1158015612ae2573d6000803e3d6000fd5b5050600254600080546001600160a01b0390921693506346f7cf879250906004908110612b0b57fe5b600091825260209091200154600180546001600160a01b03909216916004908110612b3257fe5b90600052602060002001546000600381548110612b4b57fe5b6000918252602082200154604080516001600160e01b031960e088901b1681526001600160a01b0395861660048201526024810194909452931660448301526064820181905291516084808301939282900301818387803b158015612baf57600080fd5b505af1158015612bc3573d6000803e3d6000fd5b5050600254600080546001600160a01b0390921693506346f7cf879250906005908110612bec57fe5b600091825260209091200154600180546001600160a01b03909216916005908110612c1357fe5b6000918252602082200154604080516001600160e01b031960e087901b1681526001600160a01b039094166004850152602484019190915260448301829052606483018290525160848084019382900301818387803b158015612c7557600080fd5b505af1158015612c89573d6000803e3d6000fd5b50505050612cde600260009054906101000a90046001600160a01b03166001600160a01b031663de8fa4316040518163ffffffff1660e01b815260040160206040518083038186803b15801561066a57600080fd5b5060025460408051634d62283160e01b81529051612d25926001600160a01b031691634d622831916004808301926020929190829003018186803b15801561243957600080fd5b5060025460008054612d4c926001600160a01b0316916393790f449160059081106124e157fe5b5060025460008054612e21926001600160a01b03169163765e0159916005908110612d7357fe5b60009182526020918290200154604080516001600160e01b031960e086901b1681526001600160a01b0390921660048301525160248083019392829003018186803b158015612dc157600080fd5b505afa158015612dd5573d6000803e3d6000fd5b505050506040513d6020811015612deb57600080fd5b50516040805180820190915260158152743bb937b733903732bc3a103a3930b739b1b7b232b960591b60208201526000906142dd565b5060025460008054610990926001600160a01b03169163b72703ac916005908110612e4857fe5b60009182526020918290200154604080516001600160e01b031960e086901b1681526001600160a01b0390921660048301525160248083019392829003018186803b158015612e9657600080fd5b505afa158015612eaa573d6000803e3d6000fd5b505050506040513d6020811015612ec057600080fd5b5051600080546004908110612ed157fe5b9060005260206000200160009054906101000a90046001600160a01b0316604051806040016040528060158152602001743bb937b73390383932bb103a3930b739b1b7b232b960591b8152506142dd565b600254600080546001600160a01b03909216916346f7cf8791906001908110612f4757fe5b600091825260209091200154600180546001600160a01b039092169181908110612f6d57fe5b6000918252602082200154604080516001600160e01b031960e087901b1681526001600160a01b039094166004850152602484019190915260448301829052606483018290525160848084019382900301818387803b158015612fcf57600080fd5b505af1158015612fe3573d6000803e3d6000fd5b505060028054600080546001600160a01b0390921694506346f7cf8793509190811061300b57fe5b600091825260209091200154600180546001600160a01b0390921691600290811061303257fe5b9060005260206000200154600060018154811061304b57fe5b6000918252602082200154604080516001600160e01b031960e088901b1681526001600160a01b0395861660048201526024810194909452931660448301526064820181905291516084808301939282900301818387803b1580156130af57600080fd5b505af11580156130c3573d6000803e3d6000fd5b5050600254600080546001600160a01b0390921693506346f7cf8792509060039081106130ec57fe5b600091825260209091200154600180546001600160a01b0390921691600390811061311357fe5b9060005260206000200154600060028154811061312c57fe5b6000918252602082200154604080516001600160e01b031960e088901b1681526001600160a01b0395861660048201526024810194909452931660448301526064820181905291516084808301939282900301818387803b15801561319057600080fd5b505af11580156131a4573d6000803e3d6000fd5b5050600254600080546001600160a01b0390921693506346f7cf8792509060049081106131cd57fe5b600091825260209091200154600180546001600160a01b039092169160049081106131f457fe5b9060005260206000200154600060038154811061320d57fe5b6000918252602082200154604080516001600160e01b031960e088901b1681526001600160a01b0395861660048201526024810194909452931660448301526064820181905291516084808301939282900301818387803b15801561327157600080fd5b505af1158015613285573d6000803e3d6000fd5b5050600254600080546001600160a01b0390921693506346f7cf8792509060059081106132ae57fe5b600091825260209091200154600180546001600160a01b039092169160059081106132d557fe5b906000526020600020015460006004815481106132ee57fe5b6000918252602082200154604080516001600160e01b031960e088901b1681526001600160a01b0395861660048201526024810194909452931660448301526064820181905291516084808301939282900301818387803b15801561335257600080fd5b505af1158015613366573d6000803e3d6000fd5b5050600254600080546001600160a01b0390921693506346f7cf87925090819061338c57fe5b6000918252602082200154600180546001600160a01b039092169290916133af57fe5b90600052602060002001546000806002815481106133c957fe5b6000918252602082200154604080516001600160e01b031960e089901b1681526001600160a01b03968716600482015260248101959095529285166044850152939093166064830152516084808301939282900301818387803b158015611b3357600080fd5b600254600080546001600160a01b03909216916346f7cf879190819061345157fe5b6000918252602082200154600180546001600160a01b0390921692909161347457fe5b6000918252602082200154604080516001600160e01b031960e087901b1681526001600160a01b039094166004850152602484019190915260448301829052606483018290525160848084019382900301818387803b1580156134d657600080fd5b505af11580156134ea573d6000803e3d6000fd5b5050600254600080546001600160a01b0390921693506346f7cf87925090600190811061351357fe5b600091825260209091200154600180546001600160a01b03909216918190811061353957fe5b90600052602060002001546000808154811061355157fe5b6000918252602082200154604080516001600160e01b031960e088901b1681526001600160a01b0395861660048201526024810194909452931660448301526064820181905291516084808301939282900301818387803b1580156135b557600080fd5b505af11580156135c9573d6000803e3d6000fd5b5050600254600080546001600160a01b0390921693506346f7cf8792509060039081106135f257fe5b600091825260209091200154600180546001600160a01b0390921691600390811061361957fe5b9060005260206000200154600060018154811061363257fe5b6000918252602082200154604080516001600160e01b031960e088901b1681526001600160a01b0395861660048201526024810194909452931660448301526064820181905291516084808301939282900301818387803b15801561369657600080fd5b505af11580156136aa573d6000803e3d6000fd5b5050600254600080546001600160a01b0390921693506346f7cf8792509060049081106136d357fe5b600091825260209091200154600180546001600160a01b039092169160049081106136fa57fe5b9060005260206000200154600060038154811061371357fe5b6000918252602082200154604080516001600160e01b031960e088901b1681526001600160a01b0395861660048201526024810194909452931660448301526064820181905291516084808301939282900301818387803b15801561377757600080fd5b505af115801561378b573d6000803e3d6000fd5b5050600254600080546001600160a01b0390921693506346f7cf8792509060059081106137b457fe5b600091825260209091200154600180546001600160a01b039092169160059081106137db57fe5b906000526020600020015460006004815481106137f457fe5b6000918252602082200154604080516001600160e01b031960e088901b1681526001600160a01b0395861660048201526024810194909452931660448301526064820181905291516084808301939282900301818387803b15801561385857600080fd5b505af115801561386c573d6000803e3d6000fd5b505060028054600080546001600160a01b0390921694506346f7cf8793509190811061389457fe5b600091825260209091200154600180546001600160a01b039092169160029081106138bb57fe5b6000918252602082200154604080516001600160e01b031960e087901b1681526001600160a01b039094166004850152602484019190915260448301829052606483018290525160848084019382900301818387803b15801561391d57600080fd5b505af1158015613931573d6000803e3d6000fd5b50505050613986600260009054906101000a90046001600160a01b03166001600160a01b031663de8fa4316040518163ffffffff1660e01b815260040160206040518083038186803b15801561066a57600080fd5b5060028054600080546107a2936001600160a01b03909316926393790f44929181106139ae57fe5b60009182526020918290200154604080516001600160e01b031960e086901b1681526001600160a01b0390921660048301525160248083019392829003018186803b1580156139fc57600080fd5b505afa158015613a10573d6000803e3d6000fd5b505050506040513d6020811015613a2657600080fd5b5051600180546002908110613a3757fe5b90600052602060002001546040518060400160405280600581526020016477726f6e6760d81b8152506141e6565b600254600080546001600160a01b03909216916346f7cf8791908190613a8757fe5b6000918252602082200154600180546001600160a01b03909216929091613aaa57fe5b6000918252602082200154604080516001600160e01b031960e087901b1681526001600160a01b039094166004850152602484019190915260448301829052606483018290525160848084019382900301818387803b158015613b0c57600080fd5b505af1158015613b20573d6000803e3d6000fd5b505060028054600080546001600160a01b0390921694506346f7cf87935091908110613b4857fe5b600091825260209091200154600180546001600160a01b03909216916002908110613b6f57fe5b90600052602060002001546000600181548110613b8857fe5b6000918252602082200154604080516001600160e01b031960e088901b1681526001600160a01b0395861660048201526024810194909452931660448301526064820181905291516084808301939282900301818387803b158015613bec57600080fd5b505af1158015613c00573d6000803e3d6000fd5b5050600254600080546001600160a01b0390921693506346f7cf879250906003908110613c2957fe5b600091825260209091200154600180546001600160a01b03909216916003908110613c5057fe5b90600052602060002001546000600281548110613c6957fe5b6000918252602082200154604080516001600160e01b031960e088901b1681526001600160a01b0395861660048201526024810194909452931660448301526064820181905291516084808301939282900301818387803b158015613ccd57600080fd5b505af1158015613ce1573d6000803e3d6000fd5b5050600254600080546001600160a01b0390921693506346f7cf879250906004908110613d0a57fe5b600091825260209091200154600180546001600160a01b03909216916004908110613d3157fe5b90600052602060002001546000600381548110613d4a57fe5b6000918252602082200154604080516001600160e01b031960e088901b1681526001600160a01b0395861660048201526024810194909452931660448301526064820181905291516084808301939282900301818387803b158015613dae57600080fd5b505af1158015613dc2573d6000803e3d6000fd5b5050600254600080546001600160a01b0390921693506346f7cf879250906005908110613deb57fe5b600091825260209091200154600180546001600160a01b03909216916005908110613e1257fe5b90600052602060002001546000600481548110613e2b57fe5b6000918252602082200154604080516001600160e01b031960e088901b1681526001600160a01b0395861660048201526024810194909452931660448301526064820181905291516084808301939282900301818387803b158015613e8f57600080fd5b505af1158015613ea3573d6000803e3d6000fd5b5050600254600080546001600160a01b0390921693506346f7cf879250906001908110613ecc57fe5b600091825260208220015481546001600160a01b039091169160039181906005908110613ef557fe5b6000918252602082200154604080516001600160e01b031960e089901b1681526001600160a01b03968716600482015260248101959095529285166044850152939093166064830152516084808301939282900301818387803b158015613f5b57600080fd5b505af1158015613f6f573d6000803e3d6000fd5b50505050613fc4600260009054906101000a90046001600160a01b03166001600160a01b031663de8fa4316040518163ffffffff1660e01b815260040160206040518083038186803b15801561066a57600080fd5b5060025460408051634d62283160e01b81529051614046926001600160a01b031691634d622831916004808301926020929190829003018186803b15801561400b57600080fd5b505afa15801561401f573d6000803e3d6000fd5b505050506040513d602081101561403557600080fd5b505160008054600190811061247457fe5b506002546000805461410f926001600160a01b0316916393790f4491600190811061406d57fe5b60009182526020918290200154604080516001600160e01b031960e086901b1681526001600160a01b0390921660048301525160248083019392829003018186803b1580156140bb57600080fd5b505afa1580156140cf573d6000803e3d6000fd5b505050506040513d60208110156140e557600080fd5b505160408051808201909152600981526877726f6e67206b657960b81b60208201526003906141e6565b5060025460008054614136926001600160a01b03169163765e015991600190811061259157fe5b5060025460008054610990926001600160a01b03169163b72703ac91600190811061415d57fe5b60009182526020918290200154604080516001600160e01b031960e086901b1681526001600160a01b0390921660048301525160248083019392829003018186803b1580156141ab57600080fd5b505afa1580156141bf573d6000803e3d6000fd5b505050506040513d60208110156141d557600080fd5b505160008054600590811061094a57fe5b600073__$e901dca744fb84f4a971fc691ff70ddea6$__63abcd79608585856040518463ffffffff1660e01b81526004018084815260200183815260200180602001828103825283818151815260200191508051906020019080838360005b8381101561425d578181015183820152602001614245565b50505050905090810190601f16801561428a5780820380516001836020036101000a031916815260200191505b5094505050505060206040518083038186803b1580156142a957600080fd5b505af41580156142bd573d6000803e3d6000fd5b505050506040513d60208110156142d357600080fd5b5051949350505050565b604051635fdd2eeb60e11b81526001600160a01b0380851660048301908152908416602483015260606044830190815283516064840152835160009373__$1a5b6593da9104f28ce39fb5c69f6721d9$__9363bfba5dd693899389938993929160849091019060208501908083838d831561425d578181015183820152602001614245565b61078e806143708339019056fe608060405234801561001057600080fd5b5061076e806100206000396000f3fe608060405234801561001057600080fd5b50600436106100b45760003560e01c806363e1d57c1161007157806363e1d57c146101bf578063765e0159146101d9578063816e117c146101ff57806393790f441461021c578063b72703ac14610242578063de8fa43114610268576100b4565b80631e223143146100b957806329092d0e146100dd5780633855323f1461010557806346f7cf87146101415780634d6228311461017d5780635dbe47e814610185575b600080fd5b6100c1610270565b604080516001600160a01b039092168252519081900360200190f35b610103600480360360208110156100f357600080fd5b50356001600160a01b03166102f4565b005b6101036004803603608081101561011b57600080fd5b506001600160a01b0381358116916020810135916040820135811691606001351661036e565b6101036004803603608081101561015757600080fd5b506001600160a01b03813581169160208101359160408201358116916060013516610402565b6100c1610478565b6101ab6004803603602081101561019b57600080fd5b50356001600160a01b03166104cb565b604080519115158252519081900360200190f35b6101c7610560565b60408051918252519081900360200190f35b6100c1600480360360208110156101ef57600080fd5b50356001600160a01b0316610566565b6101036004803603602081101561021557600080fd5b50356105c9565b6101c76004803603602081101561023257600080fd5b50356001600160a01b0316610620565b6100c16004803603602081101561025857600080fd5b50356001600160a01b0316610683565b6101c76106e6565b60008073__$d23c89be677d40ab24c636937040b6165f$__632ebb2fed90916040518263ffffffff1660e01b81526004018082815260200191505060206040518083038186803b1580156102c357600080fd5b505af41580156102d7573d6000803e3d6000fd5b505050506040513d60208110156102ed57600080fd5b5051905090565b60408051635d35e00760e01b81526000600482018190526001600160a01b0384166024830152915173__$d23c89be677d40ab24c636937040b6165f$__92635d35e0079260448082019391829003018186803b15801561035357600080fd5b505af4158015610367573d6000803e3d6000fd5b5050505050565b60408051631c11bf7f60e11b81526000600482018190526001600160a01b03808816602484015260448301879052808616606484015284166084830152915173__$d23c89be677d40ab24c636937040b6165f$__926338237efe9260a48082019391829003018186803b1580156103e457600080fd5b505af41580156103f8573d6000803e3d6000fd5b5050505050505050565b604080516327dd54d360e11b81526000600482018190526001600160a01b03808816602484015260448301879052808616606484015284166084830152915173__$d23c89be677d40ab24c636937040b6165f$__92634fbaa9a69260a48082019391829003018186803b1580156103e457600080fd5b60008073__$d23c89be677d40ab24c636937040b6165f$__6372e40b2690916040518263ffffffff1660e01b81526004018082815260200191505060206040518083038186803b1580156102c357600080fd5b6040805163b0138c4760e01b81526000600482018190526001600160a01b0384166024830152915173__$d23c89be677d40ab24c636937040b6165f$__9163b0138c47916044808301926020929190829003018186803b15801561052e57600080fd5b505af4158015610542573d6000803e3d6000fd5b505050506040513d602081101561055857600080fd5b505192915050565b60025490565b6040805163e189dedb60e01b81526000600482018190526001600160a01b0384166024830152915173__$d23c89be677d40ab24c636937040b6165f$__9163e189dedb916044808301926020929190829003018186803b15801561052e57600080fd5b6040805163a176adaf60e01b815260006004820181905260248201849052915173__$d23c89be677d40ab24c636937040b6165f$__9263a176adaf9260448082019391829003018186803b15801561035357600080fd5b60408051631b0d022560e31b81526000600482018190526001600160a01b0384166024830152915173__$d23c89be677d40ab24c636937040b6165f$__9163d8681128916044808301926020929190829003018186803b15801561052e57600080fd5b6040805163fe1ee71960e01b81526000600482018190526001600160a01b0384166024830152915173__$d23c89be677d40ab24c636937040b6165f$__9163fe1ee719916044808301926020929190829003018186803b15801561052e57600080fd5b60008073__$d23c89be677d40ab24c636937040b6165f$__63b32ece5890916040518263ffffffff1660e01b81526004018082815260200191505060206040518083038186803b1580156102c357600080fdfea265627a7a72315820b39cc4041cda08b17200809d582476abfa4290e4cc0e8a7a54800f225e0b191764736f6c634300050b0032a265627a7a7231582058d1ae3d6dbc30a7ac6ffd5cf19d94d7b4eaa9bb54a0868281cd6d1b60f21f4f64736f6c634300050b0032",
  "linkReferences": {
    "contracts/libraries/SortedDoublyLL.sol": {
      "SortedDoublyLL": [
        {
          "length": 20,
          "start": 18340
        },
        {
          "length": 20,
          "start": 18509
        },
        {
          "length": 20,
          "start": 18654
        },
        {
          "length": 20,
          "start": 18802
        },
        {
          "length": 20,
          "start": 18860
        },
        {
          "length": 20,
          "start": 18980
        },
        {
          "length": 20,
          "start": 19135
        },
        {
          "length": 20,
          "start": 19226
        },
        {
          "length": 20,
          "start": 19321
        },
        {
          "length": 20,
          "start": 19420
        },
        {
          "length": 20,
          "start": 19482
        }
      ]
    },
    "contracts/test/helpers/truffle/AssertAddress.sol": {
      "AssertAddress": [
        {
          "length": 20,
          "start": 17594
        }
      ]
    },
    "contracts/test/helpers/truffle/AssertUint.sol": {
      "AssertUint": [
        {
          "length": 20,
          "start": 17289
        }
      ]
    }
  },
  "deployedLinkReferences": {
    "contracts/libraries/SortedDoublyLL.sol": {
      "SortedDoublyLL": [
        {
          "length": 20,
          "start": 17925
        },
        {
          "length": 20,
          "start": 18094
        },
        {
          "length": 20,
          "start": 18239
        },
        {
          "length": 20,
          "start": 18387
        },
        {
          "length": 20,
          "start": 18445
        },
        {
          "length": 20,
          "start": 18565
        },
        {
          "length": 20,
          "start": 18720
        },
        {
          "length": 20,
          "start": 18811
        },
        {
          "length": 20,
          "start": 18906
        },
        {
          "length": 20,
          "start": 19005
        },
        {
          "length": 20,
          "start": 19067
        }
      ]
    },
    "contracts/test/helpers/truffle/AssertAddress.sol": {
      "AssertAddress": [
        {
          "length": 20,
          "start": 17179
        }
      ]
    },
    "contracts/test/helpers/truffle/AssertUint.sol": {
      "AssertUint": [
        {
          "length": 20,
          "start": 16874
        }
      ]
    }
  }
}