{
  "_format": "hh-sol-artifact-1",
  "contractName": "SupplyMinerV2",
  "sourceName": "contracts/liquidityMining/v2/SupplyMinerV2.sol",
  "abi": [
    {
      "inputs": [
        {
          "internalType": "contract IGovernanceAddressProvider",
          "name": "_addresses",
          "type": "address"
        },
        {
          "components": [
            {
              "internalType": "uint256",
              "name": "a",
              "type": "uint256"
            },
            {
              "internalType": "uint256",
              "name": "b",
              "type": "uint256"
            },
            {
              "internalType": "uint256",
              "name": "c",
              "type": "uint256"
            },
            {
              "internalType": "uint256",
              "name": "d",
              "type": "uint256"
            },
            {
              "internalType": "uint256",
              "name": "e",
              "type": "uint256"
            },
            {
              "internalType": "uint256",
              "name": "maxBoost",
              "type": "uint256"
            }
          ],
          "internalType": "struct IGenericMinerV2.BoostConfig",
          "name": "_boostConfig",
          "type": "tuple"
        },
        {
          "internalType": "contract IERC20",
          "name": "collateral",
          "type": "address"
        }
      ],
      "stateMutability": "nonpayable",
      "type": "constructor"
    },
    {
      "anonymous": false,
      "inputs": [
        {
          "components": [
            {
              "internalType": "uint256",
              "name": "a",
              "type": "uint256"
            },
            {
              "internalType": "uint256",
              "name": "b",
              "type": "uint256"
            },
            {
              "internalType": "uint256",
              "name": "c",
              "type": "uint256"
            },
            {
              "internalType": "uint256",
              "name": "d",
              "type": "uint256"
            },
            {
              "internalType": "uint256",
              "name": "e",
              "type": "uint256"
            },
            {
              "internalType": "uint256",
              "name": "maxBoost",
              "type": "uint256"
            }
          ],
          "indexed": false,
          "internalType": "struct IGenericMinerV2.BoostConfig",
          "name": "",
          "type": "tuple"
        }
      ],
      "name": "BoostConfigSet",
      "type": "event"
    },
    {
      "anonymous": false,
      "inputs": [
        {
          "indexed": true,
          "internalType": "address",
          "name": "user",
          "type": "address"
        },
        {
          "indexed": false,
          "internalType": "uint256",
          "name": "stake",
          "type": "uint256"
        }
      ],
      "name": "StakeDecreased",
      "type": "event"
    },
    {
      "anonymous": false,
      "inputs": [
        {
          "indexed": true,
          "internalType": "address",
          "name": "user",
          "type": "address"
        },
        {
          "indexed": false,
          "internalType": "uint256",
          "name": "stake",
          "type": "uint256"
        }
      ],
      "name": "StakeIncreased",
      "type": "event"
    },
    {
      "inputs": [],
      "name": "a",
      "outputs": [
        {
          "internalType": "contract IGovernanceAddressProvider",
          "name": "",
          "type": "address"
        }
      ],
      "stateMutability": "view",
      "type": "function"
    },
    {
      "inputs": [
        {
          "internalType": "address",
          "name": "user",
          "type": "address"
        },
        {
          "internalType": "uint256",
          "name": "newBaseDebt",
          "type": "uint256"
        }
      ],
      "name": "baseDebtChanged",
      "outputs": [],
      "stateMutability": "nonpayable",
      "type": "function"
    },
    {
      "inputs": [],
      "name": "boostConfig",
      "outputs": [
        {
          "components": [
            {
              "internalType": "uint256",
              "name": "a",
              "type": "uint256"
            },
            {
              "internalType": "uint256",
              "name": "b",
              "type": "uint256"
            },
            {
              "internalType": "uint256",
              "name": "c",
              "type": "uint256"
            },
            {
              "internalType": "uint256",
              "name": "d",
              "type": "uint256"
            },
            {
              "internalType": "uint256",
              "name": "e",
              "type": "uint256"
            },
            {
              "internalType": "uint256",
              "name": "maxBoost",
              "type": "uint256"
            }
          ],
          "internalType": "struct IGenericMinerV2.BoostConfig",
          "name": "",
          "type": "tuple"
        }
      ],
      "stateMutability": "view",
      "type": "function"
    },
    {
      "inputs": [],
      "name": "collateral",
      "outputs": [
        {
          "internalType": "contract IERC20",
          "name": "",
          "type": "address"
        }
      ],
      "stateMutability": "view",
      "type": "function"
    },
    {
      "inputs": [],
      "name": "par",
      "outputs": [
        {
          "internalType": "contract IERC20",
          "name": "",
          "type": "address"
        }
      ],
      "stateMutability": "view",
      "type": "function"
    },
    {
      "inputs": [
        {
          "internalType": "address",
          "name": "_user",
          "type": "address"
        }
      ],
      "name": "pendingMIMO",
      "outputs": [
        {
          "internalType": "uint256",
          "name": "",
          "type": "uint256"
        }
      ],
      "stateMutability": "view",
      "type": "function"
    },
    {
      "inputs": [
        {
          "internalType": "address",
          "name": "_user",
          "type": "address"
        }
      ],
      "name": "pendingPAR",
      "outputs": [
        {
          "internalType": "uint256",
          "name": "",
          "type": "uint256"
        }
      ],
      "stateMutability": "view",
      "type": "function"
    },
    {
      "inputs": [
        {
          "internalType": "address",
          "name": "_user",
          "type": "address"
        }
      ],
      "name": "releaseRewards",
      "outputs": [],
      "stateMutability": "nonpayable",
      "type": "function"
    },
    {
      "inputs": [
        {
          "components": [
            {
              "internalType": "uint256",
              "name": "a",
              "type": "uint256"
            },
            {
              "internalType": "uint256",
              "name": "b",
              "type": "uint256"
            },
            {
              "internalType": "uint256",
              "name": "c",
              "type": "uint256"
            },
            {
              "internalType": "uint256",
              "name": "d",
              "type": "uint256"
            },
            {
              "internalType": "uint256",
              "name": "e",
              "type": "uint256"
            },
            {
              "internalType": "uint256",
              "name": "maxBoost",
              "type": "uint256"
            }
          ],
          "internalType": "struct IGenericMinerV2.BoostConfig",
          "name": "newBoostConfig",
          "type": "tuple"
        }
      ],
      "name": "setBoostConfig",
      "outputs": [],
      "stateMutability": "nonpayable",
      "type": "function"
    },
    {
      "inputs": [
        {
          "internalType": "address",
          "name": "_user",
          "type": "address"
        }
      ],
      "name": "stake",
      "outputs": [
        {
          "internalType": "uint256",
          "name": "",
          "type": "uint256"
        }
      ],
      "stateMutability": "view",
      "type": "function"
    },
    {
      "inputs": [
        {
          "internalType": "address",
          "name": "_user",
          "type": "address"
        }
      ],
      "name": "stakeWithBoost",
      "outputs": [
        {
          "internalType": "uint256",
          "name": "",
          "type": "uint256"
        }
      ],
      "stateMutability": "view",
      "type": "function"
    },
    {
      "inputs": [
        {
          "internalType": "address",
          "name": "user",
          "type": "address"
        }
      ],
      "name": "syncStake",
      "outputs": [],
      "stateMutability": "nonpayable",
      "type": "function"
    },
    {
      "inputs": [],
      "name": "totalStake",
      "outputs": [
        {
          "internalType": "uint256",
          "name": "",
          "type": "uint256"
        }
      ],
      "stateMutability": "view",
      "type": "function"
    },
    {
      "inputs": [],
      "name": "totalStakeWithBoost",
      "outputs": [
        {
          "internalType": "uint256",
          "name": "",
          "type": "uint256"
        }
      ],
      "stateMutability": "view",
      "type": "function"
    },
    {
      "inputs": [
        {
          "internalType": "address",
          "name": "_user",
          "type": "address"
        }
      ],
      "name": "updateBoost",
      "outputs": [],
      "stateMutability": "nonpayable",
      "type": "function"
    },
    {
      "inputs": [
        {
          "internalType": "address",
          "name": "_user",
          "type": "address"
        }
      ],
      "name": "userInfo",
      "outputs": [
        {
          "components": [
            {
              "internalType": "uint256",
              "name": "stake",
              "type": "uint256"
            },
            {
              "internalType": "uint256",
              "name": "stakeWithBoost",
              "type": "uint256"
            },
            {
              "internalType": "uint256",
              "name": "accAmountPerShare",
              "type": "uint256"
            },
            {
              "internalType": "uint256",
              "name": "accParAmountPerShare",
              "type": "uint256"
            }
          ],
          "internalType": "struct IGenericMinerV2.UserInfo",
          "name": "",
          "type": "tuple"
        }
      ],
      "stateMutability": "view",
      "type": "function"
    }
  ],
  "bytecode": "0x60e06040523480156200001157600080fd5b5060405162003217380380620032178339810160408190526200003491620002a9565b82826001600160a01b038216620000685760405162461bcd60e51b81526004016200005f9062000343565b60405180910390fd5b816001600160a01b031660a0816001600160a01b031660601b81525050816001600160a01b0316633df06b596040518163ffffffff1660e01b815260040160206040518083038186803b158015620000bf57600080fd5b505afa158015620000d4573d6000803e3d6000fd5b505050506040513d601f19601f82011682018060405250810190620000fa919062000283565b6001600160a01b03166316d8a5a96040518163ffffffff1660e01b815260040160206040518083038186803b1580156200013357600080fd5b505afa15801562000148573d6000803e3d6000fd5b505050506040513d601f19601f820116820180604052508101906200016e919062000283565b60601b6001600160601b031916608052805160011180159062000195575060008160600151115b8015620001a7575060018160a0015110155b620001c65760405162461bcd60e51b81526004016200005f9062000362565b8051600090815560208201516001556040808301516002556060830151600355608083015160045560a0830151600555517fdea57d5dd436931497612044567596798f2599acfc00861392dd6c8466c8e6f191620002249162000381565b60405180910390a150506001600160a01b038116620002575760405162461bcd60e51b81526004016200005f9062000343565b60601b6001600160601b03191660c05250620003fe9050565b80516200027d81620003e5565b92915050565b60006020828403121562000295578081fd5b8151620002a281620003e5565b9392505050565b6000806000838503610100811215620002c0578283fd5b8451620002cd81620003e5565b935060c0601f1982011215620002e1578283fd5b50620002ee60c0620003be565b6020850151815260408501516020820152606085015160408201526080850151606082015260a0850151608082015260c085015160a0820152809250506200033a8560e0860162000270565b90509250925092565b60208082526005908201526404c4d3030360dc1b604082015260600190565b60208082526005908201526413134c0c0d60da1b604082015260600190565b815481526001820154602082015260028201546040820152600382015460608201526004820154608082015260059091015460a082015260c00190565b6040518181016001600160401b0381118282101715620003dd57600080fd5b604052919050565b6001600160a01b0381168114620003fb57600080fd5b50565b60805160601c60a05160601c60c05160601c612da262000475600039806106e35280610914525080610234528061030d52806105d4528061077c52806109385280610a475280610da7528061103d52806114da52806116f95250806103a65280610eee52806111d652806115ea5250612da26000f3fe608060405234801561001057600080fd5b50600436106101005760003560e01c8063a3898c0711610097578063d0e35e2c11610066578063d0e35e2c146101fc578063d76da20c1461020f578063d8dfeb4514610217578063f5989e771461021f57610100565b8063a3898c07146101ae578063a91ea1ba146101c1578063be347355146101d4578063cf275967146101e757610100565b8063495d32cb116100d3578063495d32cb14610178578063610edec2146101805780637c284c0a146101935780638b0e9f3f146101a657610100565b8063068a089d146101055780630dbe671f1461011a5780631959a002146101385780632647620414610158575b600080fd5b61011861011336600461291c565b610232565b005b61012261030b565b60405161012f9190612a5b565b60405180910390f35b61014b610146366004612900565b61032f565b60405161012f9190612cf9565b61016b610166366004612900565b610389565b60405161012f9190612d24565b6101226103a4565b61011861018e366004612900565b6103c8565b61016b6101a1366004612900565b610444565b61016b6104aa565b61016b6101bc366004612900565b6104b0565b6101186101cf366004612900565b61050f565b61016b6101e2366004612900565b61056d565b6101ef61058b565b60405161012f9190612c78565b61011861020a366004612900565b6105d0565b61016b61090c565b610122610912565b61011861022d36600461299b565b610936565b7f00000000000000000000000000000000000000000000000000000000000000006001600160a01b031663bd1b71466040518163ffffffff1660e01b815260040160206040518083038186803b15801561028b57600080fd5b505afa15801561029f573d6000803e3d6000fd5b505050506040513d601f19601f820116820180604052508101906102c3919061297f565b6001600160a01b0316336001600160a01b0316146102fc5760405162461bcd60e51b81526004016102f390612c59565b60405180910390fd5b6103068282610cea565b505050565b7f000000000000000000000000000000000000000000000000000000000000000090565b610337612861565b506001600160a01b03811660009081526006602090815260409182902082516080810184528154815260018201549281019290925260028101549282019290925260039091015460608201525b919050565b6001600160a01b031660009081526006602052604090205490565b7f000000000000000000000000000000000000000000000000000000000000000090565b6103d0612861565b506001600160a01b03811660009081526006602090815260409182902082516080810184528154815260018201549281019290925260028101549282019290925260039091015460608201526104268282610d40565b600a546040820152600c5460608201526104408282610f93565b5050565b600061044e612861565b506001600160a01b038216600090815260066020908152604091829020825160808101845281548152600182015492810183905260028201549381018490526003909101546060820152916104a39190611024565b9392505050565b60075490565b60006104ba612861565b506001600160a01b038216600090815260066020908152604091829020825160808101845281548152600182015492810183905260028201549381019390935260030154606083018190526104a391906111a7565b610517612861565b506001600160a01b03811660009081526006602090815260409182902082516080810184528154815260018201549281019290925260028101549282019290925260039091015460608201526104408282610f93565b6001600160a01b031660009081526006602052604090206001015490565b610593612889565b506040805160c08101825260005481526001546020820152600254918101919091526003546060820152600454608082015260055460a082015290565b60007f00000000000000000000000000000000000000000000000000000000000000006001600160a01b0316633df06b596040518163ffffffff1660e01b815260040160206040518083038186803b15801561062b57600080fd5b505afa15801561063f573d6000803e3d6000fd5b505050506040513d601f19601f82011682018060405250810190610663919061297f565b6001600160a01b03166365d552876040518163ffffffff1660e01b815260040160206040518083038186803b15801561069b57600080fd5b505afa1580156106af573d6000803e3d6000fd5b505050506040513d601f19601f820116820180604052508101906106d3919061297f565b6001600160a01b031663bd44815f7f0000000000000000000000000000000000000000000000000000000000000000846040518363ffffffff1660e01b8152600401610720929190612a6f565b60206040518083038186803b15801561073857600080fd5b505afa15801561074c573d6000803e3d6000fd5b505050506040513d601f19601f820116820180604052508101906107709190612967565b905061077a6128bf565b7f00000000000000000000000000000000000000000000000000000000000000006001600160a01b0316633df06b596040518163ffffffff1660e01b815260040160206040518083038186803b1580156107d357600080fd5b505afa1580156107e7573d6000803e3d6000fd5b505050506040513d601f19601f8201168201806040525081019061080b919061297f565b6001600160a01b03166365d552876040518163ffffffff1660e01b815260040160206040518083038186803b15801561084357600080fd5b505afa158015610857573d6000803e3d6000fd5b505050506040513d601f19601f8201168201806040525081019061087b919061297f565b6001600160a01b0316638c64ea4a836040518263ffffffff1660e01b81526004016108a69190612d24565b60a06040518083038186803b1580156108be57600080fd5b505afa1580156108d2573d6000803e3d6000fd5b505050506040513d601f19601f820116820180604052508101906108f691906129f6565b9050610906838260600151610cea565b50505050565b60085490565b7f000000000000000000000000000000000000000000000000000000000000000090565b7f00000000000000000000000000000000000000000000000000000000000000006001600160a01b0316633df06b596040518163ffffffff1660e01b815260040160206040518083038186803b15801561098f57600080fd5b505afa1580156109a3573d6000803e3d6000fd5b505050506040513d601f19601f820116820180604052508101906109c7919061297f565b6001600160a01b031663f77c47916040518163ffffffff1660e01b815260040160206040518083038186803b1580156109ff57600080fd5b505afa158015610a13573d6000803e3d6000fd5b505050506040513d601f19601f82011682018060405250810190610a37919061297f565b6001600160a01b03166391d148547f00000000000000000000000000000000000000000000000000000000000000006001600160a01b0316633df06b596040518163ffffffff1660e01b815260040160206040518083038186803b158015610a9e57600080fd5b505afa158015610ab2573d6000803e3d6000fd5b505050506040513d601f19601f82011682018060405250810190610ad6919061297f565b6001600160a01b031663f77c47916040518163ffffffff1660e01b815260040160206040518083038186803b158015610b0e57600080fd5b505afa158015610b22573d6000803e3d6000fd5b505050506040513d601f19601f82011682018060405250810190610b46919061297f565b6001600160a01b031663ec87621c6040518163ffffffff1660e01b815260040160206040518083038186803b158015610b7e57600080fd5b505afa158015610b92573d6000803e3d6000fd5b505050506040513d601f19601f82011682018060405250810190610bb69190612967565b336040518363ffffffff1660e01b8152600401610bd4929190612aa2565b60206040518083038186803b158015610bec57600080fd5b505afa158015610c00573d6000803e3d6000fd5b505050506040513d601f19601f82011682018060405250810190610c249190612947565b610c405760405162461bcd60e51b81526004016102f390612c1b565b8051600111801590610c56575060008160600151115b8015610c67575060018160a0015110155b610c835760405162461bcd60e51b81526004016102f390612b9c565b8051600090815560208201516001556040808301516002556060830151600355608083015160045560a0830151600555517fdea57d5dd436931497612044567596798f2599acfc00861392dd6c8466c8e6f191610cdf91612cbc565b60405180910390a150565b6001600160a01b03821660009081526006602052604081205480831115610d1e57610d1e84610d198584611299565b6112c1565b80831015610d3957610d3984610d348386611299565b6113bd565b5092915050565b6000610d5482602001518360400151611024565b90506000610d6a836020015184606001516111a7565b9050610d746114ca565b602083015115610d9f57600954610d8b9083611299565b600955600b54610d9b9082611299565b600b555b8115610ed1577f00000000000000000000000000000000000000000000000000000000000000006001600160a01b0316636d9b18236040518163ffffffff1660e01b815260040160206040518083038186803b158015610dfe57600080fd5b505afa158015610e12573d6000803e3d6000fd5b505050506040513d601f19601f82011682018060405250810190610e36919061297f565b6001600160a01b031663a9059cbb85846040518363ffffffff1660e01b8152600401610e63929190612a89565b602060405180830381600087803b158015610e7d57600080fd5b505af1158015610e91573d6000803e3d6000fd5b505050506040513d601f19601f82011682018060405250810190610eb59190612947565b610ed15760405162461bcd60e51b81526004016102f390612bfc565b80156109065760405163a9059cbb60e01b81526001600160a01b037f0000000000000000000000000000000000000000000000000000000000000000169063a9059cbb90610f259087908590600401612a89565b602060405180830381600087803b158015610f3f57600080fd5b505af1158015610f53573d6000803e3d6000fd5b505050506040513d601f19601f82011682018060405250810190610f779190612947565b6109065760405162461bcd60e51b81526004016102f390612bfc565b602081015115610fb2576020810151600854610fae91611299565b6008555b6000610fbd836116f4565b8251909150610fcc908261195d565b60208301819052600854610fdf91611991565b600855506001600160a01b0390911660009081526006602090815260409182902083518155908301516001820155908201516002820155606090910151600390910155565b600060085460001415611039575060006111a1565b60007f00000000000000000000000000000000000000000000000000000000000000006001600160a01b0316636d9b18236040518163ffffffff1660e01b815260040160206040518083038186803b15801561109457600080fd5b505afa1580156110a8573d6000803e3d6000fd5b505050506040513d601f19601f820116820180604052508101906110cc919061297f565b6001600160a01b03166370a08231306040518263ffffffff1660e01b81526004016110f79190612a5b565b60206040518083038186803b15801561110f57600080fd5b505afa158015611123573d6000803e3d6000fd5b505050506040513d601f19601f820116820180604052508101906111479190612967565b905060006111606009548361129990919063ffffffff16565b9050600061118561117c600854846119b690919063ffffffff16565b600a5490611991565b905061119b6111948287611299565b87906119e8565b93505050505b92915050565b6000600854600014156111bc575060006111a1565b6040516370a0823160e01b81526000906001600160a01b037f000000000000000000000000000000000000000000000000000000000000000016906370a082319061120b903090600401612a5b565b60206040518083038186803b15801561122357600080fd5b505afa158015611237573d6000803e3d6000fd5b505050506040513d601f19601f8201168201806040525081019061125b9190612967565b90506000611274600b548361129990919063ffffffff16565b90506000611185611290600854846119b690919063ffffffff16565b600c5490611991565b6000828211156112bb5760405162461bcd60e51b81526004016102f390612b0f565b50900390565b600081116112e15760405162461bcd60e51b81526004016102f390612af0565b6112e9612861565b506001600160a01b038216600090815260066020908152604091829020825160808101845281548152600182015492810192909252600281015492820192909252600390910154606082015261133f8382610d40565b60075461134c9083611991565b600755805161135b9083611991565b8152600a546040820152600c5460608201526113778382610f93565b826001600160a01b03167f8b0ed825817a2e696c9a931715af4609fc60e1701f09c89ee7645130e937eb2d836040516113b09190612d24565b60405180910390a2505050565b600081116113dd5760405162461bcd60e51b81526004016102f390612af0565b6113e5612861565b506001600160a01b0382166000908152600660209081526040918290208251608081018452815480825260018301549382019390935260028201549381019390935260030154606083015282111561144f5760405162461bcd60e51b81526004016102f390612b7d565b6114598382610d40565b6007546114669083611299565b60075580516114759083611299565b8152600a546040820152600c5460608201526114918382610f93565b826001600160a01b03167f700865370ffb2a65a2b0242e6a64b21ac907ed5ecd46c9cffc729c177b2b1c69836040516113b09190612d24565b6007546114d6576116f2565b60007f00000000000000000000000000000000000000000000000000000000000000006001600160a01b0316636d9b18236040518163ffffffff1660e01b815260040160206040518083038186803b15801561153157600080fd5b505afa158015611545573d6000803e3d6000fd5b505050506040513d601f19601f82011682018060405250810190611569919061297f565b6001600160a01b03166370a08231306040518263ffffffff1660e01b81526004016115949190612a5b565b60206040518083038186803b1580156115ac57600080fd5b505afa1580156115c0573d6000803e3d6000fd5b505050506040513d601f19601f820116820180604052508101906115e49190612967565b905060007f00000000000000000000000000000000000000000000000000000000000000006001600160a01b03166370a08231306040518263ffffffff1660e01b81526004016116349190612a5b565b60206040518083038186803b15801561164c57600080fd5b505afa158015611660573d6000803e3d6000fd5b505050506040513d601f19601f820116820180604052508101906116849190612967565b9050600061169d6009548461129990919063ffffffff16565b905060006116b6600b548461129990919063ffffffff16565b60098590556008549091506116d09061117c9084906119b6565b600a55600b8390556008546116ea906112909083906119b6565b600c55505050505b565b6000807f00000000000000000000000000000000000000000000000000000000000000006001600160a01b0316634f2bfe5b6040518163ffffffff1660e01b815260040160206040518083038186803b15801561175057600080fd5b505afa158015611764573d6000803e3d6000fd5b505050506040513d601f19601f82011682018060405250810190611788919061297f565b6001600160a01b03166370a08231846040518263ffffffff1660e01b81526004016117b39190612a5b565b60206040518083038186803b1580156117cb57600080fd5b505afa1580156117df573d6000803e3d6000fd5b505050506040513d601f19601f820116820180604052508101906118039190612967565b90508061181b57670de0b6b3a7640000915050610384565b6000805461182890611a1b565b9050600061183a600060010154611a1b565b9050600061184c600060020154611a1b565b9050600061185e600060040154611a1b565b90506000611873670de0b6b3a7640000611a1b565b600354909150600090611887908890611a39565b90506000611899600f83900b85611a70565b905060006118a982600f0b611aa4565b905060006118b982600f0b611ac6565b905060006118cb600f83900b89611b1b565b905060006118ea8b6118e1600f8d900b85611b4e565b600f0b90611b1b565b905060006119076118ff600f84900b8a611ba0565b600f0b611bd6565b905067ffffffffffffffff8116670de0b6b3a7640000811080159061192e57506005548111155b61194a5760405162461bcd60e51b81526004016102f390612c3a565b9f9e505050505050505050505050505050565b60006104a3670de0b6b3a764000061198b6119788686611bf2565b6002670de0b6b3a76400005b0490611991565b90611c2c565b6000828201838110156104a35760405162461bcd60e51b81526004016102f390612ab9565b6000600282046119e08361198b6119d9876b033b2e3c9fd0803ce8000000611bf2565b8490611991565b949350505050565b60006104a36b033b2e3c9fd0803ce800000061198b611a078686611bf2565b60026b033b2e3c9fd0803ce8000000611984565b6000677fffffffffffffff821115611a3257600080fd5b5060401b90565b600081611a4557600080fd5b6000611a518484611c5e565b905060016001607f1b036001600160801b03821611156104a357600080fd5b6000600f82810b9084900b0360016001607f1b03198112801590611a9b575060016001607f1b038113155b6104a357600080fd5b6000600f82900b60016001607f1b03191415611abf57600080fd5b5060000390565b6000600160461b82600f0b12611adb57600080fd5b683fffffffffffffffff1982600f0b1215611af857506000610384565b6111a1608083600f0b700171547652b82fe1777d0ffda0d23a7d1202901d611da8565b6000600f83810b9083900b0160016001607f1b03198112801590611a9b575060016001607f1b038113156104a357600080fd5b600081600f0b60001415611b6157600080fd5b600082600f0b604085600f0b901b81611b7657fe5b05905060016001607f1b03198112801590611a9b575060016001607f1b038113156104a357600080fd5b6000600f83810b9083900b0260401d60016001607f1b03198112801590611a9b575060016001607f1b038113156104a357600080fd5b60008082600f0b1215611be857600080fd5b50600f0b60401d90565b600082611c01575060006111a1565b82820282848281611c0e57fe5b04146104a35760405162461bcd60e51b81526004016102f390612bbb565b6000808211611c4d5760405162461bcd60e51b81526004016102f390612b46565b818381611c5657fe5b049392505050565b600081611c6a57600080fd5b60006001600160c01b038411611c8f5782604085901b81611c8757fe5b049050611d94565b60c084811c6401000000008110611ca8576020918201911c5b620100008110611cba576010918201911c5b6101008110611ccb576008918201911c5b60108110611cdb576004918201911c5b60048110611ceb576002918201911c5b60028110611cfa576001820191505b60bf820360018603901c6001018260ff0387901b81611d1557fe5b0492506001600160801b03831115611d2c57600080fd5b608085901c83026001600160801b038616840260c088901c604089901b82811015611d58576001820391505b608084901b92900382811015611d6f576001820391505b829003608084901c8214611d7f57fe5b888181611d8857fe5b04870196505050505050505b6001600160801b038111156104a357600080fd5b6000600160461b82600f0b12611dbd57600080fd5b683fffffffffffffffff1982600f0b1215611dda57506000610384565b6001607f1b60006780000000000000008416600f0b1315611e0c5770016a09e667f3bcc908b2fb1366ea957d3e0260801c5b60008367400000000000000016600f0b1315611e39577001306fe0a31b7152de8d5a46305c85edec0260801c5b60008367200000000000000016600f0b1315611e66577001172b83c7d517adcdf7c8c50eb14a791f0260801c5b60008367100000000000000016600f0b1315611e935770010b5586cf9890f6298b92b71842a983630260801c5b60008367080000000000000016600f0b1315611ec0577001059b0d31585743ae7c548eb68ca417fd0260801c5b60008367040000000000000016600f0b1315611eed57700102c9a3e778060ee6f7caca4f7a29bde80260801c5b60008367020000000000000016600f0b1315611f1a5770010163da9fb33356d84a66ae336dcdfa3f0260801c5b60008367010000000000000016600f0b1315611f4757700100b1afa5abcbed6129ab13ec11dc95430260801c5b600083668000000000000016600f0b1315611f735770010058c86da1c09ea1ff19d294cf2f679b0260801c5b600083664000000000000016600f0b1315611f9f577001002c605e2e8cec506d21bfc89a23a00f0260801c5b600083662000000000000016600f0b1315611fcb57700100162f3904051fa128bca9c55c31e5df0260801c5b600083661000000000000016600f0b1315611ff7577001000b175effdc76ba38e31671ca9397250260801c5b600083660800000000000016600f0b131561202357700100058ba01fb9f96d6cacd4b180917c3d0260801c5b600083660400000000000016600f0b131561204f5770010002c5cc37da9491d0985c348c68e7b30260801c5b600083660200000000000016600f0b131561207b577001000162e525ee054754457d59952920260260801c5b600083660100000000000016600f0b13156120a75770010000b17255775c040618bf4a4ade83fc0260801c5b6000836580000000000016600f0b13156120d2577001000058b91b5bc9ae2eed81e9b7d4cfab0260801c5b6000836540000000000016600f0b13156120fd57700100002c5c89d5ec6ca4d7c8acc017b7c90260801c5b6000836520000000000016600f0b13156121285770010000162e43f4f831060e02d839a9d16d0260801c5b6000836510000000000016600f0b131561215357700100000b1721bcfc99d9f890ea069117630260801c5b6000836508000000000016600f0b131561217e5770010000058b90cf1e6d97f9ca14dbcc16280260801c5b6000836504000000000016600f0b13156121a9577001000002c5c863b73f016468f6bac5ca2b0260801c5b6000836502000000000016600f0b13156121d457700100000162e430e5a18f6119e3c02282a50260801c5b6000836501000000000016600f0b13156121ff577001000000b1721835514b86e6d96efd1bfe0260801c5b60008364800000000016600f0b131561222957700100000058b90c0b48c6be5df846c5b2ef0260801c5b60008364400000000016600f0b13156122535770010000002c5c8601cc6b9e94213c72737a0260801c5b60008364200000000016600f0b131561227d577001000000162e42fff037df38aa2b219f060260801c5b60008364100000000016600f0b13156122a75770010000000b17217fba9c739aa5819f44f90260801c5b60008364080000000016600f0b13156122d1577001000000058b90bfcdee5acd3c1cedc8230260801c5b60008364040000000016600f0b13156122fb57700100000002c5c85fe31f35a6a30da1be500260801c5b60008364020000000016600f0b13156123255770010000000162e42ff0999ce3541b9fffcf0260801c5b60008364010000000016600f0b131561234f57700100000000b17217f80f4ef5aadda455540260801c5b600083638000000016600f0b13156123785770010000000058b90bfbf8479bd5a81b51ad0260801c5b600083634000000016600f0b13156123a1577001000000002c5c85fdf84bd62ae30a74cc0260801c5b600083632000000016600f0b13156123ca57700100000000162e42fefb2fed257559bdaa0260801c5b600083631000000016600f0b13156123f3577001000000000b17217f7d5a7716bba4a9ae0260801c5b600083630800000016600f0b131561241c57700100000000058b90bfbe9ddbac5e109cce0260801c5b600083630400000016600f0b13156124455770010000000002c5c85fdf4b15de6f17eb0d0260801c5b600083630200000016600f0b131561246e577001000000000162e42fefa494f1478fde050260801c5b600083630100000016600f0b13156124975770010000000000b17217f7d20cf927c8e94c0260801c5b6000836280000016600f0b13156124bf577001000000000058b90bfbe8f71cb4e4b33d0260801c5b6000836240000016600f0b13156124e757700100000000002c5c85fdf477b662b269450260801c5b6000836220000016600f0b131561250f5770010000000000162e42fefa3ae53369388c0260801c5b6000836210000016600f0b131561253757700100000000000b17217f7d1d351a389d400260801c5b6000836208000016600f0b131561255f5770010000000000058b90bfbe8e8b2d3d4ede0260801c5b6000836204000016600f0b1315612587577001000000000002c5c85fdf4741bea6e77e0260801c5b6000836202000016600f0b13156125af57700100000000000162e42fefa39fe95583c20260801c5b6000836201000016600f0b13156125d7577001000000000000b17217f7d1cfb72b45e10260801c5b60008361800016600f0b13156125fe57700100000000000058b90bfbe8e7cc35c3f00260801c5b60008361400016600f0b13156126255770010000000000002c5c85fdf473e242ea380260801c5b60008361200016600f0b131561264c577001000000000000162e42fefa39f02b772c0260801c5b60008361100016600f0b13156126735770010000000000000b17217f7d1cf7d83c1a0260801c5b60008361080016600f0b131561269a577001000000000000058b90bfbe8e7bdcbe2e0260801c5b60008361040016600f0b13156126c157700100000000000002c5c85fdf473dea871f0260801c5b60008361020016600f0b13156126e85770010000000000000162e42fefa39ef44d910260801c5b60008361010016600f0b131561270f57700100000000000000b17217f7d1cf79e9490260801c5b600083608016600f0b13156127355770010000000000000058b90bfbe8e7bce5440260801c5b600083604016600f0b131561275b577001000000000000002c5c85fdf473de6eca0260801c5b600083602016600f0b131561278157700100000000000000162e42fefa39ef366f0260801c5b600083601016600f0b13156127a7577001000000000000000b17217f7d1cf79afa0260801c5b600083600816600f0b13156127cd57700100000000000000058b90bfbe8e7bcd6d0260801c5b600083600416600f0b13156127f35770010000000000000002c5c85fdf473de6b20260801c5b600083600216600f0b1315612819577001000000000000000162e42fefa39ef3580260801c5b600083600116600f0b131561283f5770010000000000000000b17217f7d1cf79ab0260801c5b600f83810b60401d603f03900b1c60016001607f1b038111156111a157600080fd5b6040518060800160405280600081526020016000815260200160008152602001600081525090565b6040518060c001604052806000815260200160008152602001600081526020016000815260200160008152602001600081525090565b6040518060a0016040528060006001600160a01b0316815260200160006001600160a01b031681526020016000815260200160008152602001600081525090565b600060208284031215612911578081fd5b81356104a381612d54565b6000806040838503121561292e578081fd5b823561293981612d54565b946020939093013593505050565b600060208284031215612958578081fd5b815180151581146104a3578182fd5b600060208284031215612978578081fd5b5051919050565b600060208284031215612990578081fd5b81516104a381612d54565b600060c082840312156129ac578081fd5b6129b660c0612d2d565b823581526020830135602082015260408301356040820152606083013560608201526080830135608082015260a083013560a08201528091505092915050565b600060a08284031215612a07578081fd5b612a1160a0612d2d565b8251612a1c81612d54565b81526020830151612a2c81612d54565b806020830152506040830151604082015260608301516060820152608083015160808201528091505092915050565b6001600160a01b0391909116815260200190565b6001600160a01b0392831681529116602082015260400190565b6001600160a01b03929092168252602082015260400190565b9182526001600160a01b0316602082015260400190565b6020808252601b908201527f536166654d6174683a206164646974696f6e206f766572666c6f770000000000604082015260600190565b6020808252600590820152644c4d31303160d81b604082015260600190565b6020808252601e908201527f536166654d6174683a207375627472616374696f6e206f766572666c6f770000604082015260600190565b6020808252601a908201527f536166654d6174683a206469766973696f6e206279207a65726f000000000000604082015260600190565b602080825260059082015264262698981960d91b604082015260600190565b60208082526005908201526413134c0c0d60da1b604082015260600190565b60208082526021908201527f536166654d6174683a206d756c7469706c69636174696f6e206f766572666c6f6040820152607760f81b606082015260800190565b60208082526005908201526404c4d3130360dc1b604082015260600190565b60208082526005908201526404c4d3031360dc1b604082015260600190565b6020808252600590820152644c4d31303360d81b604082015260600190565b60208082526005908201526404c4d3032360dc1b604082015260600190565b600060c082019050825182526020830151602083015260408301516040830152606083015160608301526080830151608083015260a083015160a083015292915050565b815481526001820154602082015260028201546040820152600382015460608201526004820154608082015260059091015460a082015260c00190565b8151815260208083015190820152604080830151908201526060918201519181019190915260800190565b90815260200190565b60405181810167ffffffffffffffff81118282101715612d4c57600080fd5b604052919050565b6001600160a01b0381168114612d6957600080fd5b5056fea264697066735822122088452486642f0c5e9a32e290e2d3ef1cac16aed0ed43b4e4f8944967a2001a5464736f6c634300060c0033",
  "linkReferences": {},
  "deployedLinkReferences": {}
}