{"abi":[{"type":"constructor","inputs":[{"name":"_maxChainlinkHeartbeat","type":"uint128","internalType":"uint128"}],"stateMutability":"nonpayable"},{"type":"function","name":"MAX_CHAINLINK_HEARTBEAT","inputs":[],"outputs":[{"name":"","type":"uint128","internalType":"uint128"}],"stateMutability":"view"},{"type":"function","name":"chainlinkFeedAddresses","inputs":[{"name":"","type":"address","internalType":"address"}],"outputs":[{"name":"oracle","type":"address","internalType":"address"},{"name":"decimals","type":"uint8","internalType":"uint8"},{"name":"heartbeat","type":"uint128","internalType":"uint128"}],"stateMutability":"view"},{"type":"function","name":"doesFeedExist","inputs":[{"name":"token1","type":"address","internalType":"address"},{"name":"token2","type":"address","internalType":"address"}],"outputs":[{"name":"","type":"bool","internalType":"bool"}],"stateMutability":"view"},{"type":"function","name":"getChainlinkLatestPrice","inputs":[{"name":"num","type":"address","internalType":"address"},{"name":"den","type":"address","internalType":"address"}],"outputs":[{"name":"","type":"uint256","internalType":"uint256"},{"name":"","type":"uint256","internalType":"uint256"}],"stateMutability":"view"},{"type":"function","name":"getLatestPrice","inputs":[{"name":"num","type":"address","internalType":"address"},{"name":"den","type":"address","internalType":"address"}],"outputs":[{"name":"","type":"uint256","internalType":"uint256"},{"name":"","type":"uint256","internalType":"uint256"}],"stateMutability":"view"},{"type":"function","name":"getUniswapLatestPrice","inputs":[{"name":"num","type":"address","internalType":"address"},{"name":"den","type":"address","internalType":"address"}],"outputs":[{"name":"","type":"uint256","internalType":"uint256"},{"name":"","type":"uint256","internalType":"uint256"}],"stateMutability":"view"},{"type":"function","name":"initialize","inputs":[{"name":"_admin","type":"address","internalType":"address"},{"name":"_uniswapPriceAveragingPeriod","type":"uint32","internalType":"uint32"}],"outputs":[],"stateMutability":"nonpayable"},{"type":"function","name":"owner","inputs":[],"outputs":[{"name":"","type":"address","internalType":"address"}],"stateMutability":"view"},{"type":"function","name":"renounceOwnership","inputs":[],"outputs":[],"stateMutability":"nonpayable"},{"type":"function","name":"setChainlinkFeedAddress","inputs":[{"name":"_token","type":"address","internalType":"address"},{"name":"_priceFeed","type":"address","internalType":"address"},{"name":"_heartbeat","type":"uint128","internalType":"uint128"}],"outputs":[],"stateMutability":"nonpayable"},{"type":"function","name":"setUniswapFeedAddress","inputs":[{"name":"token1","type":"address","internalType":"address"},{"name":"token2","type":"address","internalType":"address"},{"name":"pool","type":"address","internalType":"address"}],"outputs":[],"stateMutability":"nonpayable"},{"type":"function","name":"setUniswapPriceAveragingPeriod","inputs":[{"name":"_uniswapPriceAveragingPeriod","type":"uint32","internalType":"uint32"}],"outputs":[],"stateMutability":"nonpayable"},{"type":"function","name":"transferOwnership","inputs":[{"name":"newOwner","type":"address","internalType":"address"}],"outputs":[],"stateMutability":"nonpayable"},{"type":"function","name":"uniswapPools","inputs":[{"name":"","type":"bytes32","internalType":"bytes32"}],"outputs":[{"name":"","type":"address","internalType":"address"}],"stateMutability":"view"},{"type":"event","name":"ChainlinkFeedUpdated","inputs":[{"name":"token","type":"address","indexed":true,"internalType":"address"},{"name":"priceOracle","type":"address","indexed":true,"internalType":"address"},{"name":"heartbeat","type":"uint256","indexed":true,"internalType":"uint256"}],"anonymous":false},{"type":"event","name":"OwnershipTransferred","inputs":[{"name":"previousOwner","type":"address","indexed":true,"internalType":"address"},{"name":"newOwner","type":"address","indexed":true,"internalType":"address"}],"anonymous":false},{"type":"event","name":"UniswapFeedUpdated","inputs":[{"name":"token1","type":"address","indexed":true,"internalType":"address"},{"name":"token2","type":"address","indexed":true,"internalType":"address"},{"name":"feedId","type":"bytes32","indexed":false,"internalType":"bytes32"},{"name":"pool","type":"address","indexed":true,"internalType":"address"}],"anonymous":false},{"type":"event","name":"UniswapPriceAveragingPeriodUpdated","inputs":[{"name":"uniswapPriceAveragingPeriod","type":"uint32","indexed":false,"internalType":"uint32"}],"anonymous":false}],"bytecode":{"object":"0x60a060405234801561001057600080fd5b506040516132fc3803806132fc8339818101604052602081101561003357600080fd5b8101908080519060200190929190505050806fffffffffffffffffffffffffffffffff166080816fffffffffffffffffffffffffffffffff1660801b815250505060805160801c6132666100966000398061093e5280610acc52506132666000f3fe608060405234801561001057600080fd5b50600436106100ea5760003560e01c8063715018a61161008c5780638f8bb822116100665780638f8bb82214610477578063c5e4c9f9146104f6578063f2fde38b1461054a578063f37eace81461058e576100ea565b8063715018a6146103a857806387a37f43146103b25780638da5cb5b14610443576100ea565b80631ec6545f116100c85780631ec6545f1461024a578063252a62c11461027a578063331a8ec3146102ae578063633defbd1461032e576100ea565b80630393e8d5146100ef5780630626a92b1461014757806310603c11146101cb575b600080fd5b61011b6004803603602081101561010557600080fd5b810190808035906020019092919050505061060d565b604051808273ffffffffffffffffffffffffffffffffffffffff16815260200191505060405180910390f35b6101c96004803603606081101561015d57600080fd5b81019080803573ffffffffffffffffffffffffffffffffffffffff169060200190929190803573ffffffffffffffffffffffffffffffffffffffff169060200190929190803573ffffffffffffffffffffffffffffffffffffffff169060200190929190505050610640565b005b61022d600480360360408110156101e157600080fd5b81019080803573ffffffffffffffffffffffffffffffffffffffff169060200190929190803573ffffffffffffffffffffffffffffffffffffffff169060200190929190505050610873565b604051808381526020018281526020019250505060405180910390f35b61025261093c565b60405180826fffffffffffffffffffffffffffffffff16815260200191505060405180910390f35b6102ac6004803603602081101561029057600080fd5b81019080803563ffffffff169060200190929190505050610960565b005b61032c600480360360608110156102c457600080fd5b81019080803573ffffffffffffffffffffffffffffffffffffffff169060200190929190803573ffffffffffffffffffffffffffffffffffffffff16906020019092919080356fffffffffffffffffffffffffffffffff169060200190929190505050610a1b565b005b6103906004803603604081101561034457600080fd5b81019080803573ffffffffffffffffffffffffffffffffffffffff169060200190929190803573ffffffffffffffffffffffffffffffffffffffff169060200190929190505050610dfa565b60405180821515815260200191505060405180910390f35b6103b0610fc2565b005b6103f4600480360360208110156103c857600080fd5b81019080803573ffffffffffffffffffffffffffffffffffffffff169060200190929190505050611132565b604051808473ffffffffffffffffffffffffffffffffffffffff1681526020018360ff168152602001826fffffffffffffffffffffffffffffffff168152602001935050505060405180910390f35b61044b6111a5565b604051808273ffffffffffffffffffffffffffffffffffffffff16815260200191505060405180910390f35b6104d96004803603604081101561048d57600080fd5b81019080803573ffffffffffffffffffffffffffffffffffffffff169060200190929190803573ffffffffffffffffffffffffffffffffffffffff1690602001909291905050506111cf565b604051808381526020018281526020019250505060405180910390f35b6105486004803603604081101561050c57600080fd5b81019080803573ffffffffffffffffffffffffffffffffffffffff169060200190929190803563ffffffff1690602001909291905050506112a3565b005b61058c6004803603602081101561056057600080fd5b81019080803573ffffffffffffffffffffffffffffffffffffffff1690602001909291905050506113bd565b005b6105f0600480360360408110156105a457600080fd5b81019080803573ffffffffffffffffffffffffffffffffffffffff169060200190929190803573ffffffffffffffffffffffffffffffffffffffff1690602001909291905050506115b2565b604051808381526020018281526020019250505060405180910390f35b60676020528060005260406000206000915054906101000a900473ffffffffffffffffffffffffffffffffffffffff1681565b610648611bc1565b73ffffffffffffffffffffffffffffffffffffffff166106666111a5565b73ffffffffffffffffffffffffffffffffffffffff16146106ef576040517f08c379a00000000000000000000000000000000000000000000000000000000081526004018080602001828103825260208152602001807f4f776e61626c653a2063616c6c6572206973206e6f7420746865206f776e657281525060200191505060405180910390fd5b8173ffffffffffffffffffffffffffffffffffffffff168373ffffffffffffffffffffffffffffffffffffffff161415610791576040517f08c379a00000000000000000000000000000000000000000000000000000000081526004018080602001828103825260088152602001807f504f3a535546413100000000000000000000000000000000000000000000000081525060200191505060405180910390fd5b600061079d8484611bc9565b9050816067600083815260200190815260200160002060006101000a81548173ffffffffffffffffffffffffffffffffffffffff021916908373ffffffffffffffffffffffffffffffffffffffff1602179055508173ffffffffffffffffffffffffffffffffffffffff168373ffffffffffffffffffffffffffffffffffffffff168573ffffffffffffffffffffffffffffffffffffffff167f2a74ffdf59cac90e9d1f660dffbf82ada64e214ee5aaa96586d4cb00e7bcc947846040518082815260200191505060405180910390a450505050565b60008060008061088386866115b2565b8092508193505050600082146108a0578181935093505050610935565b6108aa86866111cf565b8092508193505050600082146108c7578181935093505050610935565b6040517f08c379a00000000000000000000000000000000000000000000000000000000081526004018080602001828103825260078152602001807f504f3a474c50310000000000000000000000000000000000000000000000000081525060200191505060405180910390fd5b9250929050565b7f000000000000000000000000000000000000000000000000000000000000000081565b610968611bc1565b73ffffffffffffffffffffffffffffffffffffffff166109866111a5565b73ffffffffffffffffffffffffffffffffffffffff1614610a0f576040517f08c379a00000000000000000000000000000000000000000000000000000000081526004018080602001828103825260208152602001807f4f776e61626c653a2063616c6c6572206973206e6f7420746865206f776e657281525060200191505060405180910390fd5b610a1881611dac565b50565b610a23611bc1565b73ffffffffffffffffffffffffffffffffffffffff16610a416111a5565b73ffffffffffffffffffffffffffffffffffffffff1614610aca576040517f08c379a00000000000000000000000000000000000000000000000000000000081526004018080602001828103825260208152602001807f4f776e61626c653a2063616c6c6572206973206e6f7420746865206f776e657281525060200191505060405180910390fd5b7f00000000000000000000000000000000000000000000000000000000000000006fffffffffffffffffffffffffffffffff16816fffffffffffffffffffffffffffffffff161115610b84576040517f08c379a00000000000000000000000000000000000000000000000000000000081526004018080602001828103825260088152602001807f504f3a534346413100000000000000000000000000000000000000000000000081525060200191505060405180910390fd5b60008273ffffffffffffffffffffffffffffffffffffffff1663313ce5676040518163ffffffff1660e01b815260040160206040518083038186803b158015610bcc57600080fd5b505afa158015610be0573d6000803e3d6000fd5b505050506040513d6020811015610bf657600080fd5b8101908080519060200190929190505050905060405180606001604052808473ffffffffffffffffffffffffffffffffffffffff1681526020018260ff168152602001836fffffffffffffffffffffffffffffffff16815250606560008673ffffffffffffffffffffffffffffffffffffffff1673ffffffffffffffffffffffffffffffffffffffff16815260200190815260200160002060008201518160000160006101000a81548173ffffffffffffffffffffffffffffffffffffffff021916908373ffffffffffffffffffffffffffffffffffffffff16021790555060208201518160000160146101000a81548160ff021916908360ff16021790555060408201518160010160006101000a8154816fffffffffffffffffffffffffffffffff02191690836fffffffffffffffffffffffffffffffff160217905550905050610d4184611f1e565b60ff16606660008673ffffffffffffffffffffffffffffffffffffffff1673ffffffffffffffffffffffffffffffffffffffff16815260200190815260200160002081905550816fffffffffffffffffffffffffffffffff168373ffffffffffffffffffffffffffffffffffffffff168573ffffffffffffffffffffffffffffffffffffffff167f1d874ae0ac7676ba0e6cb03f2f4fcbd7ca2afc800ecfbdea623eedfe7672e90660405160405180910390a450505050565b60008073ffffffffffffffffffffffffffffffffffffffff16606560008573ffffffffffffffffffffffffffffffffffffffff1673ffffffffffffffffffffffffffffffffffffffff16815260200190815260200160002060000160009054906101000a900473ffffffffffffffffffffffffffffffffffffffff1673ffffffffffffffffffffffffffffffffffffffff1614158015610f295750600073ffffffffffffffffffffffffffffffffffffffff16606560008473ffffffffffffffffffffffffffffffffffffffff1673ffffffffffffffffffffffffffffffffffffffff16815260200190815260200160002060000160009054906101000a900473ffffffffffffffffffffffffffffffffffffffff1673ffffffffffffffffffffffffffffffffffffffff1614155b15610f375760019050610fbc565b6000610f438484611bc9565b9050600073ffffffffffffffffffffffffffffffffffffffff166067600083815260200190815260200160002060009054906101000a900473ffffffffffffffffffffffffffffffffffffffff1673ffffffffffffffffffffffffffffffffffffffff1614610fb6576001915050610fbc565b60009150505b92915050565b610fca611bc1565b73ffffffffffffffffffffffffffffffffffffffff16610fe86111a5565b73ffffffffffffffffffffffffffffffffffffffff1614611071576040517f08c379a00000000000000000000000000000000000000000000000000000000081526004018080602001828103825260208152602001807f4f776e61626c653a2063616c6c6572206973206e6f7420746865206f776e657281525060200191505060405180910390fd5b600073ffffffffffffffffffffffffffffffffffffffff16603360009054906101000a900473ffffffffffffffffffffffffffffffffffffffff1673ffffffffffffffffffffffffffffffffffffffff167f8be0079c531659141344cd1fd0a4f28419497f9722a3daafe3b4186f6b6457e060405160405180910390a36000603360006101000a81548173ffffffffffffffffffffffffffffffffffffffff021916908373ffffffffffffffffffffffffffffffffffffffff160217905550565b60656020528060005260406000206000915090508060000160009054906101000a900473ffffffffffffffffffffffffffffffffffffffff16908060000160149054906101000a900460ff16908060010160009054906101000a90046fffffffffffffffffffffffffffffffff16905083565b6000603360009054906101000a900473ffffffffffffffffffffffffffffffffffffffff16905090565b60008060006111de8585611bc9565b905060006067600083815260200190815260200160002060009054906101000a900473ffffffffffffffffffffffffffffffffffffffff169050600073ffffffffffffffffffffffffffffffffffffffff168173ffffffffffffffffffffffffffffffffffffffff16141561125b5760008093509350505061129c565b600061127982606860009054906101000a900463ffffffff1661207c565b509050600061128e826012600a0a8a8a6124e9565b905080601295509550505050505b9250929050565b600060019054906101000a900460ff16806112c257506112c16126ec565b5b806112d8575060008054906101000a900460ff16155b61132d576040517f08c379a000000000000000000000000000000000000000000000000000000000815260040180806020018281038252602e8152602001806131e2602e913960400191505060405180910390fd5b60008060019054906101000a900460ff16159050801561137d576001600060016101000a81548160ff02191690831515021790555060016000806101000a81548160ff0219169083151502179055505b6113856126fd565b61138e836113bd565b61139782611dac565b80156113b85760008060016101000a81548160ff0219169083151502179055505b505050565b6113c5611bc1565b73ffffffffffffffffffffffffffffffffffffffff166113e36111a5565b73ffffffffffffffffffffffffffffffffffffffff161461146c576040517f08c379a00000000000000000000000000000000000000000000000000000000081526004018080602001828103825260208152602001807f4f776e61626c653a2063616c6c6572206973206e6f7420746865206f776e657281525060200191505060405180910390fd5b600073ffffffffffffffffffffffffffffffffffffffff168173ffffffffffffffffffffffffffffffffffffffff1614156114f2576040517f08c379a00000000000000000000000000000000000000000000000000000000081526004018080602001828103825260268152602001806131bc6026913960400191505060405180910390fd5b8073ffffffffffffffffffffffffffffffffffffffff16603360009054906101000a900473ffffffffffffffffffffffffffffffffffffffff1673ffffffffffffffffffffffffffffffffffffffff167f8be0079c531659141344cd1fd0a4f28419497f9722a3daafe3b4186f6b6457e060405160405180910390a380603360006101000a81548173ffffffffffffffffffffffffffffffffffffffff021916908373ffffffffffffffffffffffffffffffffffffffff16021790555050565b6000806000606560008673ffffffffffffffffffffffffffffffffffffffff1673ffffffffffffffffffffffffffffffffffffffff1681526020019081526020016000206040518060600160405290816000820160009054906101000a900473ffffffffffffffffffffffffffffffffffffffff1673ffffffffffffffffffffffffffffffffffffffff1673ffffffffffffffffffffffffffffffffffffffff1681526020016000820160149054906101000a900460ff1660ff1660ff1681526020016001820160009054906101000a90046fffffffffffffffffffffffffffffffff166fffffffffffffffffffffffffffffffff166fffffffffffffffffffffffffffffffff168152505090506000606560008673ffffffffffffffffffffffffffffffffffffffff1673ffffffffffffffffffffffffffffffffffffffff1681526020019081526020016000206040518060600160405290816000820160009054906101000a900473ffffffffffffffffffffffffffffffffffffffff1673ffffffffffffffffffffffffffffffffffffffff1673ffffffffffffffffffffffffffffffffffffffff1681526020016000820160149054906101000a900460ff1660ff1660ff1681526020016001820160009054906101000a90046fffffffffffffffffffffffffffffffff166fffffffffffffffffffffffffffffffff166fffffffffffffffffffffffffffffffff16815250509050600073ffffffffffffffffffffffffffffffffffffffff16826000015173ffffffffffffffffffffffffffffffffffffffff16148061183a5750600073ffffffffffffffffffffffffffffffffffffffff16816000015173ffffffffffffffffffffffffffffffffffffffff16145b1561184d57600080935093505050611bba565b6000806000806000866000015173ffffffffffffffffffffffffffffffffffffffff1663feaf968c6040518163ffffffff1660e01b815260040160a06040518083038186803b15801561189f57600080fd5b505afa1580156118b3573d6000803e3d6000fd5b505050506040513d60a08110156118c957600080fd5b81019080805190602001909291908051906020019092919080519060200190929190805190602001909291908051906020019092919050505090915080945081955082985083965050505050600085148061193b575086604001516fffffffffffffffffffffffffffffffff16820142115b8061195d57508269ffffffffffffffffffff168169ffffffffffffffffffff16105b15611975576000809850985050505050505050611bba565b5050506000806000856000015173ffffffffffffffffffffffffffffffffffffffff1663feaf968c6040518163ffffffff1660e01b815260040160a06040518083038186803b1580156119c757600080fd5b505afa1580156119db573d6000803e3d6000fd5b505050506040513d60a08110156119f157600080fd5b810190808051906020019092919080519060200190929190805190602001909291908051906020019092919080519060200190929190505050909150809450819550829750839650505050506000841480611a63575085604001516fffffffffffffffffffffffffffffffff16820142115b80611a8557508269ffffffffffffffffffff168169ffffffffffffffffffff16105b15611a9d576000809850985050505050505050611bba565b5050506000611bab606660008b73ffffffffffffffffffffffffffffffffffffffff1673ffffffffffffffffffffffffffffffffffffffff16815260200190815260200160002054600a0a611b9d606660008c73ffffffffffffffffffffffffffffffffffffffff1673ffffffffffffffffffffffffffffffffffffffff16815260200190815260200160002054600a0a611b8f896020015160ff16600a0a611b8188611b736012600a0a611b658e6020015160ff16600a0a8e61280b90919063ffffffff16565b61280b90919063ffffffff16565b61289190919063ffffffff16565b61289190919063ffffffff16565b61280b90919063ffffffff16565b61289190919063ffffffff16565b90508060129650965050505050505b9250929050565b600033905090565b60008073ffffffffffffffffffffffffffffffffffffffff168373ffffffffffffffffffffffffffffffffffffffff1614158015611c345750600073ffffffffffffffffffffffffffffffffffffffff168273ffffffffffffffffffffffffffffffffffffffff1614155b611ca6576040517f08c379a00000000000000000000000000000000000000000000000000000000081526004018080602001828103825260098152602001807f504f3a494755505431000000000000000000000000000000000000000000000081525060200191505060405180910390fd5b8173ffffffffffffffffffffffffffffffffffffffff168373ffffffffffffffffffffffffffffffffffffffff161015611d42578282604051602001808373ffffffffffffffffffffffffffffffffffffffff1660601b81526014018273ffffffffffffffffffffffffffffffffffffffff1660601b815260140192505050604051602081830303815290604052805190602001209050611da6565b8183604051602001808373ffffffffffffffffffffffffffffffffffffffff1660601b81526014018273ffffffffffffffffffffffffffffffffffffffff1660601b8152601401925050506040516020818303038152906040528051906020012090505b92915050565b60008163ffffffff161415611e29576040517f08c379a000000000000000000000000000000000000000000000000000000000815260040180806020018281038252600a8152602001807f504f3a495355504150310000000000000000000000000000000000000000000081525060200191505060405180910390fd5b606860009054906101000a900463ffffffff1663ffffffff168163ffffffff161415611ebd576040517f08c379a000000000000000000000000000000000000000000000000000000000815260040180806020018281038252600a8152602001807f504f3a495355504150320000000000000000000000000000000000000000000081525060200191505060405180910390fd5b80606860006101000a81548163ffffffff021916908363ffffffff1602179055507fce1655e980fdd46c169857872ec226a0882674591ab7a135c66e1126dc8e47d881604051808263ffffffff16815260200191505060405180910390a150565b6000611f298261291a565b611f9b576040517f08c379a00000000000000000000000000000000000000000000000000000000081526004018080602001828103825260078152602001807f504f3a494744310000000000000000000000000000000000000000000000000081525060200191505060405180910390fd5b8173ffffffffffffffffffffffffffffffffffffffff1663313ce5676040518163ffffffff1660e01b815260040160206040518083038186803b158015611fe157600080fd5b505afa92505050801561201557506040513d602081101561200157600080fd5b810190808051906020019092919050505060015b61207257612021613105565b8061202c5750612036565b6000915050612077565b3d8060008114612062576040519150601f19603f3d011682016040523d82523d6000602084013e612067565b606091505b506000915050612077565b809150505b919050565b60008060008363ffffffff1614156120fc576040517f08c379a00000000000000000000000000000000000000000000000000000000081526004018080602001828103825260028152602001807f425000000000000000000000000000000000000000000000000000000000000081525060200191505060405180910390fd5b6000600267ffffffffffffffff8111801561211657600080fd5b506040519080825280602002602001820160405280156121455781602001602082028036833780820191505090505b509050838160008151811061215657fe5b602002602001019063ffffffff16908163ffffffff168152505060008160018151811061217f57fe5b602002602001019063ffffffff16908163ffffffff16815250506000808673ffffffffffffffffffffffffffffffffffffffff1663883bdbfd846040518263ffffffff1660e01b81526004018080602001828103825283818151815260200191508051906020019060200280838360005b8381101561220b5780820151818401526020810190506121f0565b505050509050019250505060006040518083038186803b15801561222e57600080fd5b505afa158015612242573d6000803e3d6000fd5b505050506040513d6000823e3d601f19601f82011682018060405250604081101561226c57600080fd5b810190808051604051939291908464010000000082111561228c57600080fd5b838201915060208201858111156122a257600080fd5b82518660208202830111640100000000821117156122bf57600080fd5b8083526020830192505050908051906020019060200280838360005b838110156122f65780820151818401526020810190506122db565b505050509050016040526020018051604051939291908464010000000082111561231f57600080fd5b8382019150602082018581111561233557600080fd5b825186602082028301116401000000008211171561235257600080fd5b8083526020830192505050908051906020019060200280838360005b8381101561238957808201518184015260208101905061236e565b50505050905001604052505050915091506000826000815181106123a957fe5b6020026020010151836001815181106123be57fe5b60200260200101510390506000826000815181106123d857fe5b6020026020010151836001815181106123ed57fe5b60200260200101510390508763ffffffff168260060b8161240a57fe5b05965060008260060b128015612436575060008863ffffffff168360060b8161242f57fe5b0760060b14155b15612445578680600190039750505b600073ffffffffffffffffffffffffffffffffffffffff80168963ffffffff1602905060208273ffffffffffffffffffffffffffffffffffffffff1677ffffffffffffffffffffffffffffffffffffffffffffffff16901b77ffffffffffffffffffffffffffffffffffffffffffffffff168177ffffffffffffffffffffffffffffffffffffffffffffffff16816124d957fe5b0496505050505050509250929050565b6000806124f58661292d565b90506fffffffffffffffffffffffffffffffff80168173ffffffffffffffffffffffffffffffffffffffff16116126065760008173ffffffffffffffffffffffffffffffffffffffff168273ffffffffffffffffffffffffffffffffffffffff160290508373ffffffffffffffffffffffffffffffffffffffff168573ffffffffffffffffffffffffffffffffffffffff16106125c7576125c27801000000000000000000000000000000000000000000000000876fffffffffffffffffffffffffffffffff1683612d68565b6125fe565b6125fd81876fffffffffffffffffffffffffffffffff167801000000000000000000000000000000000000000000000000612d68565b5b9250506126e3565b60006126488273ffffffffffffffffffffffffffffffffffffffff168373ffffffffffffffffffffffffffffffffffffffff1668010000000000000000612d68565b90508373ffffffffffffffffffffffffffffffffffffffff168573ffffffffffffffffffffffffffffffffffffffff16106126b0576126ab700100000000000000000000000000000000876fffffffffffffffffffffffffffffffff1683612d68565b6126df565b6126de81876fffffffffffffffffffffffffffffffff16700100000000000000000000000000000000612d68565b5b9250505b50949350505050565b60006126f73061291a565b15905090565b600060019054906101000a900460ff168061271c575061271b6126ec565b5b80612732575060008054906101000a900460ff16155b612787576040517f08c379a000000000000000000000000000000000000000000000000000000000815260040180806020018281038252602e8152602001806131e2602e913960400191505060405180910390fd5b60008060019054906101000a900460ff1615905080156127d7576001600060016101000a81548160ff02191690831515021790555060016000806101000a81548160ff0219169083151502179055505b6127df612e42565b6127e7612f40565b80156128085760008060016101000a81548160ff0219169083151502179055505b50565b60008083141561281e576000905061288b565b600082840290508284828161282f57fe5b0414612886576040517f08c379a00000000000000000000000000000000000000000000000000000000081526004018080602001828103825260218152602001806132106021913960400191505060405180910390fd5b809150505b92915050565b6000808211612908576040517f08c379a000000000000000000000000000000000000000000000000000000000815260040180806020018281038252601a8152602001807f536166654d6174683a206469766973696f6e206279207a65726f00000000000081525060200191505060405180910390fd5b81838161291157fe5b04905092915050565b600080823b905060008111915050919050565b60008060008360020b12612944578260020b61294c565b8260020b6000035b90507ffffffffffffffffffffffffffffffffffffffffffffffffffffffffffff2761860000360020b8111156129ea576040517f08c379a00000000000000000000000000000000000000000000000000000000081526004018080602001828103825260018152602001807f540000000000000000000000000000000000000000000000000000000000000081525060200191505060405180910390fd5b600080600183161415612a0e57700100000000000000000000000000000000612a20565b6ffffcb933bd6fad37aa2d162d1a5940015b70ffffffffffffffffffffffffffffffffff16905060006002831614612a5a5760806ffff97272373d413259a46990580e213a8202901c90505b60006004831614612a7f5760806ffff2e50f5f656932ef12357cf3c7fdcc8202901c90505b60006008831614612aa45760806fffe5caca7e10e4e61c3624eaa0941cd08202901c90505b60006010831614612ac95760806fffcb9843d60f6159c9db58835c9266448202901c90505b60006020831614612aee5760806fff973b41fa98c081472e6896dfb254c08202901c90505b60006040831614612b135760806fff2ea16466c96a3843ec78b326b528618202901c90505b60006080831614612b385760806ffe5dee046a99a2a811c461f1969c30538202901c90505b6000610100831614612b5e5760806ffcbe86c7900a88aedcffc83b479aa3a48202901c90505b6000610200831614612b845760806ff987a7253ac413176f2b074cf7815e548202901c90505b6000610400831614612baa5760806ff3392b0822b70005940c7a398e4b70f38202901c90505b6000610800831614612bd05760806fe7159475a2c29b7443b29c7fa6e889d98202901c90505b6000611000831614612bf65760806fd097f3bdfd2022b8845ad8f792aa58258202901c90505b6000612000831614612c1c5760806fa9f746462d870fdf8a65dc1f90e061e58202901c90505b6000614000831614612c425760806f70d869a156d2a1b890bb3df62baf32f78202901c90505b6000618000831614612c685760806f31be135f97d08fd981231505542fcfa68202901c90505b600062010000831614612c8f5760806f09aa508b5b7a84e1c677de54f3e99bc98202901c90505b600062020000831614612cb55760806e5d6af8dedb81196699c329225ee6048202901c90505b600062040000831614612cda5760806d2216e584f5fa1ea926041bedfe988202901c90505b600062080000831614612cfd5760806b048a170391f7dc42444e8fa28202901c90505b60008460020b1315612d3657807fffffffffffffffffffffffffffffffffffffffffffffffffffffffffffffffff81612d3257fe5b0490505b60006401000000008281612d4657fe5b0614612d53576001612d56565b60005b60ff16602082901c0192505050919050565b600080600080198587098587029250828110838203039150506000811415612da35760008411612d9757600080fd5b83820492505050612e3b565b808411612daf57600080fd5b600084868809905082811182039150808303925060008586600003169050808604955080840493506001818260000304019050808302841793506000600287600302189050808702600203810290508087026002038102905080870260020381029050808702600203810290508087026002038102905080870260020381029050808502955050505050505b9392505050565b600060019054906101000a900460ff1680612e615750612e606126ec565b5b80612e77575060008054906101000a900460ff16155b612ecc576040517f08c379a000000000000000000000000000000000000000000000000000000000815260040180806020018281038252602e8152602001806131e2602e913960400191505060405180910390fd5b60008060019054906101000a900460ff161590508015612f1c576001600060016101000a81548160ff02191690831515021790555060016000806101000a81548160ff0219169083151502179055505b8015612f3d5760008060016101000a81548160ff0219169083151502179055505b50565b600060019054906101000a900460ff1680612f5f5750612f5e6126ec565b5b80612f75575060008054906101000a900460ff16155b612fca576040517f08c379a000000000000000000000000000000000000000000000000000000000815260040180806020018281038252602e8152602001806131e2602e913960400191505060405180910390fd5b60008060019054906101000a900460ff16159050801561301a576001600060016101000a81548160ff02191690831515021790555060016000806101000a81548160ff0219169083151502179055505b6000613024611bc1565b905080603360006101000a81548173ffffffffffffffffffffffffffffffffffffffff021916908373ffffffffffffffffffffffffffffffffffffffff1602179055508073ffffffffffffffffffffffffffffffffffffffff16600073ffffffffffffffffffffffffffffffffffffffff167f8be0079c531659141344cd1fd0a4f28419497f9722a3daafe3b4186f6b6457e060405160405180910390a35080156130e45760008060016101000a81548160ff0219169083151502179055505b50565b6000601f19601f8301169050919050565b60008160e01c9050919050565b600060443d1015613115576131b8565b60046000803e6131266000516130f8565b6308c379a0811461313757506131b8565b60405160043d036004823e80513d602482011167ffffffffffffffff82111715613163575050506131b8565b808201805167ffffffffffffffff8111156131825750505050506131b8565b8060208301013d850181111561319d575050505050506131b8565b6131a6826130e7565b60208401016040528296505050505050505b9056fe4f776e61626c653a206e6577206f776e657220697320746865207a65726f2061646472657373496e697469616c697a61626c653a20636f6e747261637420697320616c726561647920696e697469616c697a6564536166654d6174683a206d756c7469706c69636174696f6e206f766572666c6f77a264697066735822122011f456b27ff303deac90b83b6ccbc302e53ffc65bb5809a46080ed25021c74d264736f6c63430007060033","linkReferences":{}},"methodIdentifiers":{"MAX_CHAINLINK_HEARTBEAT()":"1ec6545f","chainlinkFeedAddresses(address)":"87a37f43","doesFeedExist(address,address)":"633defbd","getChainlinkLatestPrice(address,address)":"f37eace8","getLatestPrice(address,address)":"10603c11","getUniswapLatestPrice(address,address)":"8f8bb822","initialize(address,uint32)":"c5e4c9f9","owner()":"8da5cb5b","renounceOwnership()":"715018a6","setChainlinkFeedAddress(address,address,uint128)":"331a8ec3","setUniswapFeedAddress(address,address,address)":"0626a92b","setUniswapPriceAveragingPeriod(uint32)":"252a62c1","transferOwnership(address)":"f2fde38b","uniswapPools(bytes32)":"0393e8d5"},"id":12}