{
  "_format": "hh-sol-artifact-1",
  "contractName": "VaultTest",
  "sourceName": "contracts/test/VaultTest.sol",
  "abi": [
    {
      "inputs": [
        {
          "internalType": "contract IVaultGovernance",
          "name": "vaultGovernance_",
          "type": "address"
        },
        {
          "internalType": "address[]",
          "name": "vaultTokens_",
          "type": "address[]"
        }
      ],
      "stateMutability": "nonpayable",
      "type": "constructor"
    },
    {
      "anonymous": false,
      "inputs": [
        {
          "indexed": false,
          "internalType": "address",
          "name": "to",
          "type": "address"
        },
        {
          "indexed": false,
          "internalType": "uint256[]",
          "name": "tokenAmounts",
          "type": "uint256[]"
        }
      ],
      "name": "Pull",
      "type": "event"
    },
    {
      "anonymous": false,
      "inputs": [
        {
          "indexed": false,
          "internalType": "uint256[]",
          "name": "tokenAmounts",
          "type": "uint256[]"
        }
      ],
      "name": "Push",
      "type": "event"
    },
    {
      "anonymous": false,
      "inputs": [
        {
          "indexed": false,
          "internalType": "address",
          "name": "to",
          "type": "address"
        },
        {
          "indexed": false,
          "internalType": "address[]",
          "name": "tokens",
          "type": "address[]"
        },
        {
          "indexed": false,
          "internalType": "uint256[]",
          "name": "tokenAmounts",
          "type": "uint256[]"
        }
      ],
      "name": "ReclaimTokens",
      "type": "event"
    },
    {
      "inputs": [
        {
          "internalType": "address",
          "name": "from",
          "type": "address"
        },
        {
          "internalType": "bytes",
          "name": "data",
          "type": "bytes"
        }
      ],
      "name": "claimRewards",
      "outputs": [],
      "stateMutability": "nonpayable",
      "type": "function"
    },
    {
      "inputs": [
        {
          "internalType": "uint256",
          "name": "nft_",
          "type": "uint256"
        }
      ],
      "name": "initialize",
      "outputs": [],
      "stateMutability": "nonpayable",
      "type": "function"
    },
    {
      "inputs": [
        {
          "internalType": "address",
          "name": "to",
          "type": "address"
        }
      ],
      "name": "isApprovedOrOwner",
      "outputs": [
        {
          "internalType": "bool",
          "name": "",
          "type": "bool"
        }
      ],
      "stateMutability": "view",
      "type": "function"
    },
    {
      "inputs": [
        {
          "internalType": "address",
          "name": "to",
          "type": "address"
        }
      ],
      "name": "isValidPullDestination",
      "outputs": [
        {
          "internalType": "bool",
          "name": "",
          "type": "bool"
        }
      ],
      "stateMutability": "view",
      "type": "function"
    },
    {
      "inputs": [
        {
          "internalType": "address",
          "name": "token",
          "type": "address"
        }
      ],
      "name": "isVaultToken",
      "outputs": [
        {
          "internalType": "bool",
          "name": "",
          "type": "bool"
        }
      ],
      "stateMutability": "view",
      "type": "function"
    },
    {
      "inputs": [],
      "name": "nft",
      "outputs": [
        {
          "internalType": "uint256",
          "name": "",
          "type": "uint256"
        }
      ],
      "stateMutability": "view",
      "type": "function"
    },
    {
      "inputs": [
        {
          "internalType": "address",
          "name": "to",
          "type": "address"
        },
        {
          "internalType": "address[]",
          "name": "tokens",
          "type": "address[]"
        }
      ],
      "name": "postReclaimTokens",
      "outputs": [],
      "stateMutability": "nonpayable",
      "type": "function"
    },
    {
      "inputs": [
        {
          "internalType": "address",
          "name": "to",
          "type": "address"
        },
        {
          "internalType": "address[]",
          "name": "tokens",
          "type": "address[]"
        },
        {
          "internalType": "uint256[]",
          "name": "tokenAmounts",
          "type": "uint256[]"
        },
        {
          "internalType": "bytes",
          "name": "options",
          "type": "bytes"
        }
      ],
      "name": "pull",
      "outputs": [
        {
          "internalType": "uint256[]",
          "name": "actualTokenAmounts",
          "type": "uint256[]"
        }
      ],
      "stateMutability": "nonpayable",
      "type": "function"
    },
    {
      "inputs": [
        {
          "internalType": "address[]",
          "name": "tokens",
          "type": "address[]"
        },
        {
          "internalType": "uint256[]",
          "name": "tokenAmounts",
          "type": "uint256[]"
        },
        {
          "internalType": "bytes",
          "name": "options",
          "type": "bytes"
        }
      ],
      "name": "push",
      "outputs": [
        {
          "internalType": "uint256[]",
          "name": "actualTokenAmounts",
          "type": "uint256[]"
        }
      ],
      "stateMutability": "nonpayable",
      "type": "function"
    },
    {
      "inputs": [
        {
          "internalType": "address",
          "name": "to",
          "type": "address"
        },
        {
          "internalType": "address[]",
          "name": "tokens",
          "type": "address[]"
        }
      ],
      "name": "reclaimTokens",
      "outputs": [],
      "stateMutability": "nonpayable",
      "type": "function"
    },
    {
      "inputs": [
        {
          "internalType": "address",
          "name": "from",
          "type": "address"
        },
        {
          "internalType": "address[]",
          "name": "tokens",
          "type": "address[]"
        },
        {
          "internalType": "uint256[]",
          "name": "tokenAmounts",
          "type": "uint256[]"
        },
        {
          "internalType": "bytes",
          "name": "options",
          "type": "bytes"
        }
      ],
      "name": "transferAndPush",
      "outputs": [
        {
          "internalType": "uint256[]",
          "name": "actualTokenAmounts",
          "type": "uint256[]"
        }
      ],
      "stateMutability": "nonpayable",
      "type": "function"
    },
    {
      "inputs": [],
      "name": "tvl",
      "outputs": [
        {
          "internalType": "uint256[]",
          "name": "tokenAmounts",
          "type": "uint256[]"
        }
      ],
      "stateMutability": "view",
      "type": "function"
    },
    {
      "inputs": [],
      "name": "vaultGovernance",
      "outputs": [
        {
          "internalType": "contract IVaultGovernance",
          "name": "",
          "type": "address"
        }
      ],
      "stateMutability": "view",
      "type": "function"
    },
    {
      "inputs": [],
      "name": "vaultTokens",
      "outputs": [
        {
          "internalType": "address[]",
          "name": "",
          "type": "address[]"
        }
      ],
      "stateMutability": "view",
      "type": "function"
    }
  ],
  "bytecode": "0x60806040523480156200001157600080fd5b506040516200294d3803806200294d83398101604081905262000034916200036e565b818160016000819055506200005481620001b960201b620011a41760201c565b6040518060400160405280600381526020016253415560e81b815250906200009a5760405162461bcd60e51b815260040162000091919062000459565b60405180910390fd5b50600180546001600160a01b0319166001600160a01b0384161790558051620000cb9060029060208401906200026e565b5060005b81518110156200013b57600160036000848481518110620000f457620000f4620004b1565b6020908102919091018101516001600160a01b03168252810191909152604001600020805460ff1916911515919091179055806200013281620004dd565b915050620000cf565b5060019150620001489050565b60405190808252806020026020018201604052801562000172578160200160208202803683370190505b5080516200018991600591602090910190620002d8565b5060006005600081548110620001a357620001a3620004b1565b9060005260206000200181905550505062000530565b6000600282511015620001ce57506001919050565b60005b60018351620001e19190620004fb565b811015620002655782620001f782600162000515565b815181106200020a576200020a620004b1565b60200260200101516001600160a01b0316838281518110620002305762000230620004b1565b60200260200101516001600160a01b031610620002505750600092915050565b806200025c81620004dd565b915050620001d1565b50600192915050565b828054828255906000526020600020908101928215620002c6579160200282015b82811115620002c657825182546001600160a01b0319166001600160a01b039091161782556020909201916001909101906200028f565b50620002d492915062000316565b5090565b828054828255906000526020600020908101928215620002c6579160200282015b82811115620002c6578251825591602001919060010190620002f9565b5b80821115620002d4576000815560010162000317565b6001600160a01b03811681146200034357600080fd5b50565b634e487b7160e01b600052604160045260246000fd5b805162000369816200032d565b919050565b600080604083850312156200038257600080fd5b82516200038f816200032d565b602084810151919350906001600160401b0380821115620003af57600080fd5b818601915086601f830112620003c457600080fd5b815181811115620003d957620003d962000346565b8060051b604051601f19603f8301168101818110858211171562000401576200040162000346565b6040529182528482019250838101850191898311156200042057600080fd5b938501935b82851015620004495762000439856200035c565b8452938501939285019262000425565b8096505050505050509250929050565b600060208083528351808285015260005b8181101562000488578581018301518582016040015282016200046a565b818111156200049b576000604083870101525b50601f01601f1916929092016040019392505050565b634e487b7160e01b600052603260045260246000fd5b634e487b7160e01b600052601160045260246000fd5b6000600019821415620004f457620004f4620004c7565b5060010190565b600082821015620005105762000510620004c7565b500390565b600082198211156200052b576200052b620004c7565b500190565b61240d80620005406000396000f3fe608060405234801561001057600080fd5b50600436106100ea5760003560e01c806376c33dfa1161008c578063e8216b8911610066578063e8216b89146101e2578063fac4cecb146101f5578063fe255a5e14610208578063fe4b84df1461022357600080fd5b806376c33dfa146101b5578063c38a4794146101c8578063e5328e06146101da57600080fd5b8063338c4ccb116100c8578063338c4ccb1461014057806347ccca021461017c578063566ca6b41461018d57806369722233146101a057600080fd5b806318b4d37f146100ef5780632062d7541461010457806327a35e5a1461012d575b600080fd5b6101026100fd366004611e4f565b610236565b005b610117610112366004611f92565b61047a565b6040516101249190612068565b60405180910390f35b61011761013b366004611f92565b6106e7565b61016c61014e36600461207b565b6001600160a01b031660009081526003602052604090205460ff1690565b6040519015158152602001610124565b600454604051908152602001610124565b61011761019b366004612098565b610870565b6101a8610b85565b6040516101249190612159565b61016c6101c336600461207b565b610be7565b6101026101d636600461216c565b5050565b610117610bf8565b6101026101f036600461216c565b610c4f565b61016c61020336600461207b565b610ff0565b6001546040516001600160a01b039091168152602001610124565b6101026102313660046121b2565b610ffb565b61023e611249565b600060045411604051806040016040528060048152602001631253925560e21b815250906102885760405162461bcd60e51b815260040161027f91906121f7565b60405180910390fd5b50610292336112a3565b60405180604001604052806002815260200161494f60f01b815250906102cb5760405162461bcd60e51b815260040161027f91906121f7565b5060015460408051637ac46fbb60e01b815281516000936001600160a01b031692637ac46fbb9260048082019391829003018186803b15801561030d57600080fd5b505afa158015610321573d6000803e3d6000fd5b505050506040513d601f19601f82011682018060405250810190610345919061222a565b5160405163884289e360e01b81526001600160a01b0385811660048301529192509082169063884289e39060240160206040518083038186803b15801561038b57600080fd5b505afa15801561039f573d6000803e3d6000fd5b505050506040513d601f19601f820116820180604052508101906103c39190612289565b60405180604001604052806002815260200161414360f01b815250906103fc5760405162461bcd60e51b815260040161027f91906121f7565b50600080846001600160a01b03168460405161041891906122ab565b6000604051808303816000865af19150503d8060008114610455576040519150601f19603f3d011682016040523d82523d6000602084013e61045a565b606091505b50915091508161046d5780518082602001fd5b5050506101d66001600055565b6060610484611249565b61048d336112a3565b6104be5760405162461bcd60e51b8152602060048201526002602482015261494f60f01b604482015260640161027f565b60015460408051637ac46fbb60e01b815281516000936001600160a01b031692637ac46fbb9260048082019391829003018186803b1580156104ff57600080fd5b505afa158015610513573d6000803e3d6000fd5b505050506040513d601f19601f82011682018060405250810190610537919061222a565b60200151600480546040516331a9108f60e11b8152918201529091506000906001600160a01b03831690636352211e9060240160206040518083038186803b15801561058257600080fd5b505afa158015610596573d6000803e3d6000fd5b505050506040513d601f19601f820116820180604052508101906105ba91906122c7565b90506001600160a01b0381163314806105d757506105d787611455565b60405180604001604052806005815260200164494e54524160d81b815250906106135760405162461bcd60e51b815260040161027f91906121f7565b5060006106208787611723565b9050600061062f89838861180c565b905061069688600280548060200260200160405190810160405280929190818152602001828054801561068b57602002820191906000526020600020905b81546001600160a01b0316815260019091019060200180831161066d575b505050505083611868565b94507f54f9e6ef58e36de62f59f9ee6c4b878af84989c53a3642eba415ac3ac4e11cda89866040516106c99291906122e4565b60405180910390a1505050506106df6001600055565b949350505050565b606060005b845181101561077b57600084828151811061070957610709612308565b6020026020010151111561076957610769863086848151811061072e5761072e612308565b602002602001015188858151811061074857610748612308565b60200260200101516001600160a01b0316611a8a909392919063ffffffff16565b8061077381612334565b9150506106ec565b50610787848484610870565b905060005b84518110156108675760008482815181106107a9576107a9612308565b60200260200101518383815181106107c3576107c3612308565b6020026020010151106107d7576000610815565b8282815181106107e9576107e9612308565b602002602001015185838151811061080357610803612308565b6020026020010151610815919061234f565b9050801561085457610854878288858151811061083457610834612308565b60200260200101516001600160a01b0316611afb9092919063ffffffff16565b508061085f81612334565b91505061078c565b50949350505050565b606061087a611249565b6004805460408051808201909152918252631253925560e21b602083015290816108b75760405162461bcd60e51b815260040161027f91906121f7565b506108c1336112a3565b60405180604001604052806002815260200161494f60f01b815250906108fa5760405162461bcd60e51b815260040161027f91906121f7565b5060015460408051637ac46fbb60e01b815281516000936001600160a01b031692637ac46fbb9260048082019391829003018186803b15801561093c57600080fd5b505afa158015610950573d6000803e3d6000fd5b505050506040513d601f19601f82011682018060405250810190610974919061222a565b602001516040516331a9108f60e11b8152600481018490529091506000906001600160a01b03831690636352211e9060240160206040518083038186803b1580156109be57600080fd5b505afa1580156109d2573d6000803e3d6000fd5b505050506040513d601f19601f820116820180604052508101906109f691906122c7565b60405163fcdabd2760e01b81526001600160a01b03808316600483015291925060009184169063fcdabd279060240160206040518083038186803b158015610a3d57600080fd5b505afa158015610a51573d6000803e3d6000fd5b505050506040513d601f19601f82011682018060405250810190610a759190612366565b9050600081116040518060400160405280600381526020016227abab60e91b81525090610ab55760405162461bcd60e51b815260040161027f91906121f7565b506000610ac28989611723565b90506000610ad08289611b30565b9050610b358a600280548060200260200160405190810160405280929190818152602001828054801561068b576020028201919060005260206000209081546001600160a01b0316815260019091019060200180831161066d57505050505083611868565b96507f08e404e978692dd1b8275016b7a7b0b3ae4afd06b0cec7228060bb2da18c84fd81604051610b669190612068565b60405180910390a1505050505050610b7e6001600055565b9392505050565b60606002805480602002602001604051908101604052809291908181526020018280548015610bdd57602002820191906000526020600020905b81546001600160a01b03168152600190910190602001808311610bbf575b5050505050905090565b6000610bf2826112a3565b92915050565b60606005805480602002602001604051908101604052809291908181526020018280548015610bdd57602002820191906000526020600020905b815481526020019060010190808311610c32575050505050905090565b610c57611249565b600060045411604051806040016040528060048152602001631253925560e21b81525090610c985760405162461bcd60e51b815260040161027f91906121f7565b5060015460408051637ac46fbb60e01b815281516000936001600160a01b031692637ac46fbb9260048082019391829003018186803b158015610cda57600080fd5b505afa158015610cee573d6000803e3d6000fd5b505050506040513d601f19601f82011682018060405250810190610d12919061222a565b51604051630935e01b60e21b81523360048201529091506000906001600160a01b038316906324d7806c9060240160206040518083038186803b158015610d5857600080fd5b505afa158015610d6c573d6000803e3d6000fd5b505050506040513d601f19601f82011682018060405250810190610d909190612289565b90508080610da25750610da2336112a3565b6040518060400160405280600381526020016241444d60e81b81525090610ddc5760405162461bcd60e51b815260040161027f91906121f7565b5080610e2957610deb84611455565b60405180604001604052806005815260200164494e54524160d81b81525090610e275760405162461bcd60e51b815260040161027f91906121f7565b505b6000835167ffffffffffffffff811115610e4557610e45611d98565b604051908082528060200260200182016040528015610e6e578160200160208202803683370190505b50905060005b8451811015610fa7576000858281518110610e9157610e91612308565b60209081029190910101516040516370a0823160e01b81523060048201529091506001600160a01b038216906370a082319060240160206040518083038186803b158015610ede57600080fd5b505afa158015610ef2573d6000803e3d6000fd5b505050506040513d601f19601f82011682018060405250810190610f169190612366565b838381518110610f2857610f28612308565b602002602001018181525050828281518110610f4657610f46612308565b602002602001015160001415610f5c5750610f95565b610f9387848481518110610f7257610f72612308565b6020026020010151836001600160a01b0316611afb9092919063ffffffff16565b505b80610f9f81612334565b915050610e74565b507f9efcb26e0cf572bd9171640e114f387cef91cd3e38532ed6b3f80c7f2e758f87858583604051610fdb9392919061237f565b60405180910390a15050506101d66001600055565b6000610bf282611455565b600154604080518082019091526002815261564760f01b6020820152906001600160a01b031633146110405760405162461bcd60e51b815260040161027f91906121f7565b5060408051808201909152600481526304e4654360e41b60208201528161107a5760405162461bcd60e51b815260040161027f91906121f7565b506004805460408051808201909152918252631253925560e21b6020830152156110b75760405162461bcd60e51b815260040161027f91906121f7565b50600481815560015460408051637ac46fbb60e01b815281516000946001600160a01b0390941693637ac46fbb938382019390929190829003018186803b15801561110157600080fd5b505afa158015611115573d6000803e3d6000fd5b505050506040513d601f19601f82011682018060405250810190611139919061222a565b6020015160405163a22cb46560e01b81526001600160a01b038216600482018190526001602483015291925063a22cb46590604401600060405180830381600087803b15801561118857600080fd5b505af115801561119c573d6000803e3d6000fd5b505050505050565b60006002825110156111b857506001919050565b60005b600183516111c9919061234f565b81101561124057826111dc8260016123bf565b815181106111ec576111ec612308565b60200260200101516001600160a01b031683828151811061120f5761120f612308565b60200260200101516001600160a01b03161061122e5750600092915050565b8061123881612334565b9150506111bb565b50600192915050565b6002600054141561129c5760405162461bcd60e51b815260206004820152601f60248201527f5265656e7472616e637947756172643a207265656e7472616e742063616c6c00604482015260640161027f565b6002600055565b60015460408051637ac46fbb60e01b8152815160009384936001600160a01b0390911692637ac46fbb9260048083019392829003018186803b1580156112e857600080fd5b505afa1580156112fc573d6000803e3d6000fd5b505050506040513d601f19601f82011682018060405250810190611320919061222a565b6020015160045490915080611339575060009392505050565b60405163020604bf60e21b8152600481018290526001600160a01b03808616919084169063081812fc9060240160206040518083038186803b15801561137e57600080fd5b505afa158015611392573d6000803e3d6000fd5b505050506040513d601f19601f820116820180604052508101906113b691906122c7565b6001600160a01b031614806106df57506040516331a9108f60e11b8152600481018290526001600160a01b038086169190841690636352211e9060240160206040518083038186803b15801561140b57600080fd5b505afa15801561141f573d6000803e3d6000fd5b505050506040513d601f19601f8201168201806040525081019061144391906122c7565b6001600160a01b031614949350505050565b6000813b63ffffffff1661146b57506000919050565b60015460408051637ac46fbb60e01b815281516000936001600160a01b031692637ac46fbb9260048082019391829003018186803b1580156114ac57600080fd5b505afa1580156114c0573d6000803e3d6000fd5b505050506040513d601f19601f820116820180604052508101906114e4919061222a565b602001519050600454600014156114fe5750600092915050565b600480546040516331a9108f60e11b8152918201526000906001600160a01b03831690636352211e9060240160206040518083038186803b15801561154257600080fd5b505afa158015611556573d6000803e3d6000fd5b505050506040513d601f19601f8201168201806040525081019061157a91906122c7565b60405163fcdabd2760e01b81526001600160a01b03808316600483015291925060009184169063fcdabd279060240160206040518083038186803b1580156115c157600080fd5b505afa1580156115d5573d6000803e3d6000fd5b505050506040513d601f19601f820116820180604052508101906115f99190612366565b90508061160b57506000949350505050565b604051638333903b60e01b815230600482015282906001600160a01b03821690638333903b9060240160206040518083038186803b15801561164c57600080fd5b505afa158015611660573d6000803e3d6000fd5b505050506040513d601f19601f820116820180604052508101906116849190612289565b15806117065750604051638333903b60e01b81526001600160a01b038781166004830152821690638333903b9060240160206040518083038186803b1580156116cc57600080fd5b505afa1580156116e0573d6000803e3d6000fd5b505050506040513d601f19601f820116820180604052508101906117049190612289565b155b156117175750600095945050505050565b50600195945050505050565b606061172e836111a4565b6040518060400160405280600381526020016253415560e81b815250906117685760405162461bcd60e51b815260040161027f91906121f7565b508151835114604051806040016040528060018152602001601360fa1b815250906117a65760405162461bcd60e51b815260040161027f91906121f7565b50610b7e600280548060200260200160405190810160405280929190818152602001828054801561180057602002820191906000526020600020905b81546001600160a01b031681526001909101906020018083116117e2575b50505050508484611868565b6060600580548060200260200160405190810160405280929190818152602001828054801561185a57602002820191906000526020600020905b815481526020019060010190808311611846575b505050505090509392505050565b60606000845167ffffffffffffffff81111561188657611886611d98565b6040519080825280602002602001820160405280156118af578160200160208202803683370190505b5090506000805b8651821080156118c65750855181105b15611a45578581815181106118dd576118dd612308565b60200260200101516001600160a01b031687838151811061190057611900612308565b60200260200101516001600160a01b0316101561194857600083838151811061192b5761192b612308565b60209081029190910101528161194081612334565b9250506118b6565b85818151811061195a5761195a612308565b60200260200101516001600160a01b031687838151811061197d5761197d612308565b60200260200101516001600160a01b031611156119f6578481815181106119a6576119a6612308565b6020026020010151600014156119c857806119c081612334565b9150506118b6565b60405162461bcd60e51b815260206004820152600360248201526254505360e81b604482015260640161027f565b848181518110611a0857611a08612308565b6020026020010151838381518110611a2257611a22612308565b602090810291909101015281611a3781612334565b92505080806119c090612334565b8651821015611a7f576000838381518110611a6257611a62612308565b602090810291909101015281611a7781612334565b925050611a45565b509095945050505050565b6040516001600160a01b0380851660248301528316604482015260648101829052611af59085906323b872dd60e01b906084015b60408051601f198184030181529190526020810180516001600160e01b03166001600160e01b031990931692909217909152611b8b565b50505050565b6040516001600160a01b038316602482015260448101829052611b2b90849063a9059cbb60e01b90606401611abe565b505050565b60606005805480602002602001604051908101604052809291908181526020018280548015611b7e57602002820191906000526020600020905b815481526020019060010190808311611b6a575b5050505050905092915050565b6000611be0826040518060400160405280602081526020017f5361666545524332303a206c6f772d6c6576656c2063616c6c206661696c6564815250856001600160a01b0316611c609092919063ffffffff16565b9050805160001480611c01575080806020019051810190611c019190612289565b611b2b5760405162461bcd60e51b815260206004820152602a60248201527f5361666545524332303a204552433230206f7065726174696f6e20646964206e6044820152691bdd081cdd58d8d9595960b21b606482015260840161027f565b60606106df848460008585600080866001600160a01b03168587604051611c8791906122ab565b60006040518083038185875af1925050503d8060008114611cc4576040519150601f19603f3d011682016040523d82523d6000602084013e611cc9565b606091505b5091509150611cda87838387611ce5565b979650505050505050565b60608315611d51578251611d4a576001600160a01b0385163b611d4a5760405162461bcd60e51b815260206004820152601d60248201527f416464726573733a2063616c6c20746f206e6f6e2d636f6e7472616374000000604482015260640161027f565b50816106df565b6106df8383815115611d665781518083602001fd5b8060405162461bcd60e51b815260040161027f91906121f7565b6001600160a01b0381168114611d9557600080fd5b50565b634e487b7160e01b600052604160045260246000fd5b604051601f8201601f1916810167ffffffffffffffff81118282101715611dd757611dd7611d98565b604052919050565b600082601f830112611df057600080fd5b813567ffffffffffffffff811115611e0a57611e0a611d98565b611e1d601f8201601f1916602001611dae565b818152846020838601011115611e3257600080fd5b816020850160208301376000918101602001919091529392505050565b60008060408385031215611e6257600080fd5b8235611e6d81611d80565b9150602083013567ffffffffffffffff811115611e8957600080fd5b611e9585828601611ddf565b9150509250929050565b600067ffffffffffffffff821115611eb957611eb9611d98565b5060051b60200190565b600082601f830112611ed457600080fd5b81356020611ee9611ee483611e9f565b611dae565b82815260059290921b84018101918181019086841115611f0857600080fd5b8286015b84811015611f2c578035611f1f81611d80565b8352918301918301611f0c565b509695505050505050565b600082601f830112611f4857600080fd5b81356020611f58611ee483611e9f565b82815260059290921b84018101918181019086841115611f7757600080fd5b8286015b84811015611f2c5780358352918301918301611f7b565b60008060008060808587031215611fa857600080fd5b8435611fb381611d80565b9350602085013567ffffffffffffffff80821115611fd057600080fd5b611fdc88838901611ec3565b94506040870135915080821115611ff257600080fd5b611ffe88838901611f37565b9350606087013591508082111561201457600080fd5b5061202187828801611ddf565b91505092959194509250565b600081518084526020808501945080840160005b8381101561205d57815187529582019590820190600101612041565b509495945050505050565b602081526000610b7e602083018461202d565b60006020828403121561208d57600080fd5b8135610b7e81611d80565b6000806000606084860312156120ad57600080fd5b833567ffffffffffffffff808211156120c557600080fd5b6120d187838801611ec3565b945060208601359150808211156120e757600080fd5b6120f387838801611f37565b9350604086013591508082111561210957600080fd5b5061211686828701611ddf565b9150509250925092565b600081518084526020808501945080840160005b8381101561205d5781516001600160a01b031687529582019590820190600101612134565b602081526000610b7e6020830184612120565b6000806040838503121561217f57600080fd5b823561218a81611d80565b9150602083013567ffffffffffffffff8111156121a657600080fd5b611e9585828601611ec3565b6000602082840312156121c457600080fd5b5035919050565b60005b838110156121e65781810151838201526020016121ce565b83811115611af55750506000910152565b60208152600082518060208401526122168160408501602087016121cb565b601f01601f19169190910160400192915050565b60006040828403121561223c57600080fd5b6040516040810181811067ffffffffffffffff8211171561225f5761225f611d98565b604052825161226d81611d80565b8152602083015161227d81611d80565b60208201529392505050565b60006020828403121561229b57600080fd5b81518015158114610b7e57600080fd5b600082516122bd8184602087016121cb565b9190910192915050565b6000602082840312156122d957600080fd5b8151610b7e81611d80565b6001600160a01b03831681526040602082018190526000906106df9083018461202d565b634e487b7160e01b600052603260045260246000fd5b634e487b7160e01b600052601160045260246000fd5b60006000198214156123485761234861231e565b5060010190565b6000828210156123615761236161231e565b500390565b60006020828403121561237857600080fd5b5051919050565b6001600160a01b03841681526060602082018190526000906123a390830185612120565b82810360408401526123b5818561202d565b9695505050505050565b600082198211156123d2576123d261231e565b50019056fea2646970667358221220985ad19f363c6edfd2ad6232aeffc802bd4f711f6ba3a9cccaf053c7ee69618264736f6c63430008090033",
  "linkReferences": {},
  "deployedLinkReferences": {}
}