{
  "_format": "hh-sol-artifact-1",
  "contractName": "ComptrollerMock",
  "sourceName": "contracts/tests/ComptrollerMock.sol",
  "abi": [
    {
      "inputs": [],
      "name": "__ComptrollerMock_init",
      "outputs": [],
      "stateMutability": "nonpayable",
      "type": "function"
    },
    {
      "inputs": [
        {
          "internalType": "address",
          "name": "account",
          "type": "address"
        },
        {
          "internalType": "address",
          "name": "token",
          "type": "address"
        }
      ],
      "name": "calculateRewards",
      "outputs": [
        {
          "internalType": "uint256",
          "name": "",
          "type": "uint256"
        }
      ],
      "stateMutability": "view",
      "type": "function"
    },
    {
      "inputs": [
        {
          "internalType": "address",
          "name": "account",
          "type": "address"
        },
        {
          "internalType": "address",
          "name": "token",
          "type": "address"
        },
        {
          "internalType": "uint256",
          "name": "futureBlocks",
          "type": "uint256"
        }
      ],
      "name": "calculateRewardsByBlocks",
      "outputs": [
        {
          "internalType": "uint256",
          "name": "",
          "type": "uint256"
        }
      ],
      "stateMutability": "view",
      "type": "function"
    },
    {
      "inputs": [
        {
          "internalType": "address",
          "name": "account",
          "type": "address"
        },
        {
          "internalType": "address",
          "name": "token",
          "type": "address"
        }
      ],
      "name": "getRewardsMultiplier",
      "outputs": [
        {
          "internalType": "uint256",
          "name": "",
          "type": "uint256"
        }
      ],
      "stateMutability": "view",
      "type": "function"
    },
    {
      "inputs": [
        {
          "internalType": "uint256",
          "name": "",
          "type": "uint256"
        }
      ],
      "name": "inflationPerBlock",
      "outputs": [
        {
          "internalType": "uint256",
          "name": "",
          "type": "uint256"
        }
      ],
      "stateMutability": "view",
      "type": "function"
    },
    {
      "inputs": [],
      "name": "rewardAmount",
      "outputs": [
        {
          "internalType": "uint256",
          "name": "",
          "type": "uint256"
        }
      ],
      "stateMutability": "view",
      "type": "function"
    },
    {
      "inputs": [
        {
          "internalType": "address",
          "name": "_unionToken",
          "type": "address"
        },
        {
          "internalType": "uint256",
          "name": "_rewardAmount",
          "type": "uint256"
        }
      ],
      "name": "setRewardsInfo",
      "outputs": [],
      "stateMutability": "nonpayable",
      "type": "function"
    },
    {
      "inputs": [],
      "name": "unionToken",
      "outputs": [
        {
          "internalType": "address",
          "name": "",
          "type": "address"
        }
      ],
      "stateMutability": "view",
      "type": "function"
    },
    {
      "inputs": [
        {
          "internalType": "address",
          "name": "",
          "type": "address"
        },
        {
          "internalType": "uint256",
          "name": "",
          "type": "uint256"
        }
      ],
      "name": "updateTotalStaked",
      "outputs": [
        {
          "internalType": "bool",
          "name": "",
          "type": "bool"
        }
      ],
      "stateMutability": "pure",
      "type": "function"
    },
    {
      "inputs": [
        {
          "internalType": "address",
          "name": "sender",
          "type": "address"
        },
        {
          "internalType": "address",
          "name": "",
          "type": "address"
        }
      ],
      "name": "withdrawRewards",
      "outputs": [
        {
          "internalType": "uint256",
          "name": "",
          "type": "uint256"
        }
      ],
      "stateMutability": "nonpayable",
      "type": "function"
    }
  ],
  "bytecode": "0x608060405234801561001057600080fd5b5061036c806100206000396000f3fe608060405234801561001057600080fd5b506004361061009d5760003560e01c806377e90d061161006657806377e90d0614610138578063a84afb301461014f578063e20981ca14610165578063f70222e114610178578063f7b2a7be146101a357600080fd5b8062c9d509146100a257806304a32883146100c857806326704260146100dc5780633fd146ed146101025780635ecb211a14610136575b600080fd5b6100b56100b0366004610268565b6101ac565b6040519081526020015b60405180910390f35b6100b56100d636600461031e565b50600090565b6100f26100ea3660046102d5565b600192915050565b60405190151581526020016100bf565b6101366101103660046102d5565b600080546001600160a01b0319166001600160a01b039390931692909217909155600155565b005b6100b561014636600461029a565b60009392505050565b6100b561015d366004610268565b600092915050565b6100b5610173366004610268565b6101b7565b60005461018b906001600160a01b031681565b6040516001600160a01b0390911681526020016100bf565b6100b560015481565b6000805b9392505050565b6000805460015460405163a9059cbb60e01b81526001600160a01b038681166004830152602482019290925291169063a9059cbb90604401602060405180830381600087803b15801561020957600080fd5b505af115801561021d573d6000803e3d6000fd5b505050506040513d601f19601f8201168201806040525081019061024191906102fe565b505060015492915050565b80356001600160a01b038116811461026357600080fd5b919050565b6000806040838503121561027a578182fd5b6102838361024c565b91506102916020840161024c565b90509250929050565b6000806000606084860312156102ae578081fd5b6102b78461024c565b92506102c56020850161024c565b9150604084013590509250925092565b600080604083850312156102e7578182fd5b6102f08361024c565b946020939093013593505050565b60006020828403121561030f578081fd5b815180151581146101b0578182fd5b60006020828403121561032f578081fd5b503591905056fea26469706673582212200c39af09dd96646e6ea6af7285a2cd3868620a6bc92d8510956b7691a410eaa264736f6c63430008040033",
  "linkReferences": {},
  "deployedLinkReferences": {}
}