{
  "_format": "hh-sol-artifact-1",
  "contractName": "NFTXStakingZap",
  "sourceName": "contracts/solidity/NFTXStakingZap.sol",
  "abi": [
    {
      "inputs": [
        {
          "internalType": "address",
          "name": "_nftxFactory",
          "type": "address"
        },
        {
          "internalType": "address",
          "name": "_sushiRouter",
          "type": "address"
        }
      ],
      "stateMutability": "nonpayable",
      "type": "constructor"
    },
    {
      "anonymous": false,
      "inputs": [
        {
          "indexed": true,
          "internalType": "address",
          "name": "previousOwner",
          "type": "address"
        },
        {
          "indexed": true,
          "internalType": "address",
          "name": "newOwner",
          "type": "address"
        }
      ],
      "name": "OwnershipTransferred",
      "type": "event"
    },
    {
      "anonymous": false,
      "inputs": [
        {
          "indexed": false,
          "internalType": "uint256",
          "name": "vaultId",
          "type": "uint256"
        },
        {
          "indexed": false,
          "internalType": "uint256",
          "name": "count",
          "type": "uint256"
        },
        {
          "indexed": false,
          "internalType": "uint256",
          "name": "lpBalance",
          "type": "uint256"
        },
        {
          "indexed": false,
          "internalType": "uint256",
          "name": "timelockUntil",
          "type": "uint256"
        },
        {
          "indexed": false,
          "internalType": "address",
          "name": "sender",
          "type": "address"
        }
      ],
      "name": "UserStaked",
      "type": "event"
    },
    {
      "inputs": [],
      "name": "WETH",
      "outputs": [
        {
          "internalType": "contract IWETH",
          "name": "",
          "type": "address"
        }
      ],
      "stateMutability": "view",
      "type": "function"
    },
    {
      "inputs": [
        {
          "internalType": "uint256",
          "name": "vaultId",
          "type": "uint256"
        },
        {
          "internalType": "uint256[]",
          "name": "ids",
          "type": "uint256[]"
        },
        {
          "internalType": "uint256[]",
          "name": "amounts",
          "type": "uint256[]"
        },
        {
          "internalType": "uint256",
          "name": "minWethIn",
          "type": "uint256"
        },
        {
          "internalType": "uint256",
          "name": "wethIn",
          "type": "uint256"
        }
      ],
      "name": "addLiquidity1155",
      "outputs": [
        {
          "internalType": "uint256",
          "name": "",
          "type": "uint256"
        }
      ],
      "stateMutability": "nonpayable",
      "type": "function"
    },
    {
      "inputs": [
        {
          "internalType": "uint256",
          "name": "vaultId",
          "type": "uint256"
        },
        {
          "internalType": "uint256[]",
          "name": "ids",
          "type": "uint256[]"
        },
        {
          "internalType": "uint256[]",
          "name": "amounts",
          "type": "uint256[]"
        },
        {
          "internalType": "uint256",
          "name": "minEthIn",
          "type": "uint256"
        }
      ],
      "name": "addLiquidity1155ETH",
      "outputs": [
        {
          "internalType": "uint256",
          "name": "",
          "type": "uint256"
        }
      ],
      "stateMutability": "payable",
      "type": "function"
    },
    {
      "inputs": [
        {
          "internalType": "uint256",
          "name": "vaultId",
          "type": "uint256"
        },
        {
          "internalType": "uint256[]",
          "name": "ids",
          "type": "uint256[]"
        },
        {
          "internalType": "uint256[]",
          "name": "amounts",
          "type": "uint256[]"
        },
        {
          "internalType": "uint256",
          "name": "minEthIn",
          "type": "uint256"
        },
        {
          "internalType": "address",
          "name": "to",
          "type": "address"
        }
      ],
      "name": "addLiquidity1155ETHTo",
      "outputs": [
        {
          "internalType": "uint256",
          "name": "",
          "type": "uint256"
        }
      ],
      "stateMutability": "payable",
      "type": "function"
    },
    {
      "inputs": [
        {
          "internalType": "uint256",
          "name": "vaultId",
          "type": "uint256"
        },
        {
          "internalType": "uint256[]",
          "name": "ids",
          "type": "uint256[]"
        },
        {
          "internalType": "uint256[]",
          "name": "amounts",
          "type": "uint256[]"
        },
        {
          "internalType": "uint256",
          "name": "minWethIn",
          "type": "uint256"
        },
        {
          "internalType": "uint256",
          "name": "wethIn",
          "type": "uint256"
        },
        {
          "internalType": "address",
          "name": "to",
          "type": "address"
        }
      ],
      "name": "addLiquidity1155To",
      "outputs": [
        {
          "internalType": "uint256",
          "name": "",
          "type": "uint256"
        }
      ],
      "stateMutability": "nonpayable",
      "type": "function"
    },
    {
      "inputs": [
        {
          "internalType": "uint256",
          "name": "vaultId",
          "type": "uint256"
        },
        {
          "internalType": "uint256[]",
          "name": "ids",
          "type": "uint256[]"
        },
        {
          "internalType": "uint256",
          "name": "minWethIn",
          "type": "uint256"
        },
        {
          "internalType": "uint256",
          "name": "wethIn",
          "type": "uint256"
        }
      ],
      "name": "addLiquidity721",
      "outputs": [
        {
          "internalType": "uint256",
          "name": "",
          "type": "uint256"
        }
      ],
      "stateMutability": "nonpayable",
      "type": "function"
    },
    {
      "inputs": [
        {
          "internalType": "uint256",
          "name": "vaultId",
          "type": "uint256"
        },
        {
          "internalType": "uint256[]",
          "name": "ids",
          "type": "uint256[]"
        },
        {
          "internalType": "uint256",
          "name": "minWethIn",
          "type": "uint256"
        }
      ],
      "name": "addLiquidity721ETH",
      "outputs": [
        {
          "internalType": "uint256",
          "name": "",
          "type": "uint256"
        }
      ],
      "stateMutability": "payable",
      "type": "function"
    },
    {
      "inputs": [
        {
          "internalType": "uint256",
          "name": "vaultId",
          "type": "uint256"
        },
        {
          "internalType": "uint256[]",
          "name": "ids",
          "type": "uint256[]"
        },
        {
          "internalType": "uint256",
          "name": "minWethIn",
          "type": "uint256"
        },
        {
          "internalType": "address",
          "name": "to",
          "type": "address"
        }
      ],
      "name": "addLiquidity721ETHTo",
      "outputs": [
        {
          "internalType": "uint256",
          "name": "",
          "type": "uint256"
        }
      ],
      "stateMutability": "payable",
      "type": "function"
    },
    {
      "inputs": [
        {
          "internalType": "uint256",
          "name": "vaultId",
          "type": "uint256"
        },
        {
          "internalType": "uint256[]",
          "name": "ids",
          "type": "uint256[]"
        },
        {
          "internalType": "uint256",
          "name": "minWethIn",
          "type": "uint256"
        },
        {
          "internalType": "uint256",
          "name": "wethIn",
          "type": "uint256"
        },
        {
          "internalType": "address",
          "name": "to",
          "type": "address"
        }
      ],
      "name": "addLiquidity721To",
      "outputs": [
        {
          "internalType": "uint256",
          "name": "",
          "type": "uint256"
        }
      ],
      "stateMutability": "nonpayable",
      "type": "function"
    },
    {
      "inputs": [],
      "name": "inventoryLockTime",
      "outputs": [
        {
          "internalType": "uint256",
          "name": "",
          "type": "uint256"
        }
      ],
      "stateMutability": "view",
      "type": "function"
    },
    {
      "inputs": [],
      "name": "inventoryStaking",
      "outputs": [
        {
          "internalType": "contract INFTXInventoryStaking",
          "name": "",
          "type": "address"
        }
      ],
      "stateMutability": "view",
      "type": "function"
    },
    {
      "inputs": [],
      "name": "lpLockTime",
      "outputs": [
        {
          "internalType": "uint256",
          "name": "",
          "type": "uint256"
        }
      ],
      "stateMutability": "view",
      "type": "function"
    },
    {
      "inputs": [],
      "name": "lpStaking",
      "outputs": [
        {
          "internalType": "contract INFTXLPStaking",
          "name": "",
          "type": "address"
        }
      ],
      "stateMutability": "view",
      "type": "function"
    },
    {
      "inputs": [],
      "name": "nftxFactory",
      "outputs": [
        {
          "internalType": "contract INFTXVaultFactory",
          "name": "",
          "type": "address"
        }
      ],
      "stateMutability": "view",
      "type": "function"
    },
    {
      "inputs": [
        {
          "internalType": "address",
          "name": "",
          "type": "address"
        },
        {
          "internalType": "address",
          "name": "",
          "type": "address"
        },
        {
          "internalType": "uint256[]",
          "name": "",
          "type": "uint256[]"
        },
        {
          "internalType": "uint256[]",
          "name": "",
          "type": "uint256[]"
        },
        {
          "internalType": "bytes",
          "name": "",
          "type": "bytes"
        }
      ],
      "name": "onERC1155BatchReceived",
      "outputs": [
        {
          "internalType": "bytes4",
          "name": "",
          "type": "bytes4"
        }
      ],
      "stateMutability": "nonpayable",
      "type": "function"
    },
    {
      "inputs": [
        {
          "internalType": "address",
          "name": "",
          "type": "address"
        },
        {
          "internalType": "address",
          "name": "",
          "type": "address"
        },
        {
          "internalType": "uint256",
          "name": "",
          "type": "uint256"
        },
        {
          "internalType": "uint256",
          "name": "",
          "type": "uint256"
        },
        {
          "internalType": "bytes",
          "name": "",
          "type": "bytes"
        }
      ],
      "name": "onERC1155Received",
      "outputs": [
        {
          "internalType": "bytes4",
          "name": "",
          "type": "bytes4"
        }
      ],
      "stateMutability": "nonpayable",
      "type": "function"
    },
    {
      "inputs": [
        {
          "internalType": "address",
          "name": "",
          "type": "address"
        },
        {
          "internalType": "address",
          "name": "",
          "type": "address"
        },
        {
          "internalType": "uint256",
          "name": "",
          "type": "uint256"
        },
        {
          "internalType": "bytes",
          "name": "",
          "type": "bytes"
        }
      ],
      "name": "onERC721Received",
      "outputs": [
        {
          "internalType": "bytes4",
          "name": "",
          "type": "bytes4"
        }
      ],
      "stateMutability": "nonpayable",
      "type": "function"
    },
    {
      "inputs": [],
      "name": "owner",
      "outputs": [
        {
          "internalType": "address",
          "name": "",
          "type": "address"
        }
      ],
      "stateMutability": "view",
      "type": "function"
    },
    {
      "inputs": [
        {
          "internalType": "uint256",
          "name": "vaultId",
          "type": "uint256"
        },
        {
          "internalType": "uint256[]",
          "name": "tokenIds",
          "type": "uint256[]"
        },
        {
          "internalType": "uint256[]",
          "name": "amounts",
          "type": "uint256[]"
        }
      ],
      "name": "provideInventory1155",
      "outputs": [],
      "stateMutability": "nonpayable",
      "type": "function"
    },
    {
      "inputs": [
        {
          "internalType": "uint256",
          "name": "vaultId",
          "type": "uint256"
        },
        {
          "internalType": "uint256[]",
          "name": "tokenIds",
          "type": "uint256[]"
        }
      ],
      "name": "provideInventory721",
      "outputs": [],
      "stateMutability": "nonpayable",
      "type": "function"
    },
    {
      "inputs": [],
      "name": "renounceOwnership",
      "outputs": [],
      "stateMutability": "nonpayable",
      "type": "function"
    },
    {
      "inputs": [
        {
          "internalType": "address",
          "name": "token",
          "type": "address"
        }
      ],
      "name": "rescue",
      "outputs": [],
      "stateMutability": "nonpayable",
      "type": "function"
    },
    {
      "inputs": [
        {
          "internalType": "uint256",
          "name": "newInventoryLockTime",
          "type": "uint256"
        }
      ],
      "name": "setInventoryLockTime",
      "outputs": [],
      "stateMutability": "nonpayable",
      "type": "function"
    },
    {
      "inputs": [
        {
          "internalType": "uint256",
          "name": "newLPLockTime",
          "type": "uint256"
        }
      ],
      "name": "setLPLockTime",
      "outputs": [],
      "stateMutability": "nonpayable",
      "type": "function"
    },
    {
      "inputs": [
        {
          "internalType": "bytes4",
          "name": "interfaceId",
          "type": "bytes4"
        }
      ],
      "name": "supportsInterface",
      "outputs": [
        {
          "internalType": "bool",
          "name": "",
          "type": "bool"
        }
      ],
      "stateMutability": "view",
      "type": "function"
    },
    {
      "inputs": [],
      "name": "sushiRouter",
      "outputs": [
        {
          "internalType": "contract IUniswapV2Router01",
          "name": "",
          "type": "address"
        }
      ],
      "stateMutability": "view",
      "type": "function"
    },
    {
      "inputs": [
        {
          "internalType": "address",
          "name": "newOwner",
          "type": "address"
        }
      ],
      "name": "transferOwnership",
      "outputs": [],
      "stateMutability": "nonpayable",
      "type": "function"
    },
    {
      "stateMutability": "payable",
      "type": "receive"
    }
  ],
  "bytecode": "0x6101206040526202a30060025562093a806003553480156200002057600080fd5b5060405162003f5c38038062003f5c8339810160408190526200004391620004a5565b6200004e3362000414565b600180556001600160601b0319606083901b1660e05260408051630d43e8ad60e01b815290516001600160a01b03841691630d43e8ad916004808301926020929190829003018186803b158015620000a557600080fd5b505afa158015620000ba573d6000803e3d6000fd5b505050506040513d601f19601f82011682018060405250810190620000e0919062000481565b6001600160a01b0316639bf1401c6040518163ffffffff1660e01b815260040160206040518083038186803b1580156200011957600080fd5b505afa1580156200012e573d6000803e3d6000fd5b505050506040513d601f19601f8201168201806040525081019062000154919062000481565b6001600160a01b031660a0816001600160a01b031660601b81525050816001600160a01b0316630d43e8ad6040518163ffffffff1660e01b815260040160206040518083038186803b158015620001aa57600080fd5b505afa158015620001bf573d6000803e3d6000fd5b505050506040513d601f19601f82011682018060405250810190620001e5919062000481565b6001600160a01b03166374a1b0b06040518163ffffffff1660e01b815260040160206040518083038186803b1580156200021e57600080fd5b505afa15801562000233573d6000803e3d6000fd5b505050506040513d601f19601f8201168201806040525081019062000259919062000481565b6001600160601b0319606091821b811660c0529082901b1661010052604080516315ab88c960e31b815290516001600160a01b0383169163ad5c4648916004808301926020929190829003018186803b158015620002b657600080fd5b505afa158015620002cb573d6000803e3d6000fd5b505050506040513d601f19601f82011682018060405250810190620002f1919062000481565b6001600160a01b03166080816001600160a01b031660601b81525050806001600160a01b031663ad5c46486040518163ffffffff1660e01b815260040160206040518083038186803b1580156200034757600080fd5b505afa1580156200035c573d6000803e3d6000fd5b505050506040513d601f19601f8201168201806040525081019062000382919062000481565b60405163095ea7b360e01b81526001600160a01b0383811660048301526000196024830152919091169063095ea7b390604401602060405180830381600087803b158015620003d057600080fd5b505af1158015620003e5573d6000803e3d6000fd5b505050506040513d601f19601f820116820180604052508101906200040b9190620004dc565b505050620004fe565b600080546001600160a01b038381166001600160a01b0319831681178455604051919092169283917f8be0079c531659141344cd1fd0a4f28419497f9722a3daafe3b4186f6b6457e09190a35050565b80516001600160a01b03811681146200047c57600080fd5b919050565b60006020828403121562000493578081fd5b6200049e8262000464565b9392505050565b60008060408385031215620004b8578081fd5b620004c38362000464565b9150620004d36020840162000464565b90509250929050565b600060208284031215620004ee578081fd5b815180151581146200049e578182fd5b60805160601c60a05160601c60c05160601c60e05160601c6101005160601c613969620005f36000396000818161036001528181612836015281816128d1015281816129010152612d0301526000818161031401528181610e35015281816116ae01528181611c3c01526120120152600081816103cb01528181610ec501528181610fa70152818161173e015261182001526000818161045d01528181612a820152612b630152600081816104da015281816106d9015281816107860152818161090a015281816109b6015281816113b50152818161144f01528181611554015281816115ed0152612a4701526139696000f3fe6080604052600436106101b05760003560e01c8063839006f2116100ec578063ad5c46481161008a578063c46c4e8a11610064578063c46c4e8a14610554578063cd9d37b71461056a578063f23a6e611461058a578063f2fde38b146105cf57600080fd5b8063ad5c4648146104c8578063bc197c81146104fc578063bdd8172b1461054157600080fd5b80639bf1401c116100c65780639bf1401c1461044b5780639d2cbed01461047f578063a7b128461461049f578063ad402dfc146104b557600080fd5b8063839006f2146103ed57806384d5a2321461040d5780638da5cb5b1461042d57600080fd5b80634a5ff061116101595780636d13582c116101335780636d13582c1461034e578063715018a614610382578063739697751461039957806374a1b0b0146103b957600080fd5b80634a5ff061146102cf57806353b573bf146102ef5780635ee50f881461030257600080fd5b8063150b7a021161018a578063150b7a021461023f5780631809d2c21461029c5780631a6907cd146102bc57600080fd5b806301ffc9a7146101bc57806302100155146101f157806310cde7861461021f57600080fd5b366101b757005b600080fd5b3480156101c857600080fd5b506101dc6101d7366004613244565b6105ef565b60405190151581526020015b60405180910390f35b3480156101fd57600080fd5b5061021161020c3660046134c2565b610658565b6040519081526020016101e8565b34801561022b57600080fd5b5061021161023a366004613446565b610846565b34801561024b57600080fd5b5061028361025a366004613153565b7f150b7a0200000000000000000000000000000000000000000000000000000000949350505050565b6040516001600160e01b031990911681526020016101e8565b3480156102a857600080fd5b506102116102b7366004613602565b610860565b6102116102ca366004613553565b610878565b3480156102db57600080fd5b506102116102ea366004613657565b61088e565b6102116102fd36600461334b565b610a75565b34801561030e57600080fd5b506103367f000000000000000000000000000000000000000000000000000000000000000081565b6040516001600160a01b0390911681526020016101e8565b34801561035a57600080fd5b506103367f000000000000000000000000000000000000000000000000000000000000000081565b34801561038e57600080fd5b50610397610a84565b005b3480156103a557600080fd5b506103976103b436600461326c565b610af9565b3480156103c557600080fd5b506103367f000000000000000000000000000000000000000000000000000000000000000081565b3480156103f957600080fd5b5061039761040836600461306a565b610baa565b34801561041957600080fd5b5061039761042836600461326c565b610d16565b34801561043957600080fd5b506000546001600160a01b0316610336565b34801561045757600080fd5b506103367f000000000000000000000000000000000000000000000000000000000000000081565b34801561048b57600080fd5b5061039761049a3660046132e1565b610dc7565b3480156104ab57600080fd5b5061021160025481565b6102116104c33660046133bd565b611356565b3480156104d457600080fd5b506103367f000000000000000000000000000000000000000000000000000000000000000081565b34801561050857600080fd5b506102836105173660046130a9565b7fbc197c810000000000000000000000000000000000000000000000000000000095945050505050565b61021161054f3660046135a1565b6114f5565b34801561056057600080fd5b5061021160035481565b34801561057657600080fd5b5061039761058536600461329c565b611693565b34801561059657600080fd5b506102836105a53660046131bd565b7ff23a6e610000000000000000000000000000000000000000000000000000000095945050505050565b3480156105db57600080fd5b506103976105ea36600461306a565b611b43565b60006001600160e01b031982167f4e2312e000000000000000000000000000000000000000000000000000000000148061065257507f01ffc9a7000000000000000000000000000000000000000000000000000000006001600160e01b03198316145b92915050565b6000600260015414156106b25760405162461bcd60e51b815260206004820152601f60248201527f5265656e7472616e637947756172643a207265656e7472616e742063616c6c0060448201526064015b60405180910390fd5b60026001556040516323b872dd60e01b8152336004820152306024820152604481018490527f00000000000000000000000000000000000000000000000000000000000000006001600160a01b0316906323b872dd90606401602060405180830381600087803b15801561072557600080fd5b505af1158015610739573d6000803e3d6000fd5b505050506040513d601f19601f8201168201806040525081019061075d9190613224565b5060008061076f898989898989611c34565b925092505084821015610836576001600160a01b037f00000000000000000000000000000000000000000000000000000000000000001663a9059cbb856107b68589613890565b6040516001600160e01b031960e085901b1681526001600160a01b0390921660048301526024820152604401602060405180830381600087803b1580156107fc57600080fd5b505af1158015610810573d6000803e3d6000fd5b505050506040513d601f19601f820116820180604052508101906108349190613224565b505b6001805598975050505050505050565b6000610856868686868633610658565b9695505050505050565b600061086f858585853361088e565b95945050505050565b6000610886848484336114f5565b949350505050565b6000600260015414156108e35760405162461bcd60e51b815260206004820152601f60248201527f5265656e7472616e637947756172643a207265656e7472616e742063616c6c0060448201526064016106a9565b60026001556040516323b872dd60e01b8152336004820152306024820152604481018490527f00000000000000000000000000000000000000000000000000000000000000006001600160a01b0316906323b872dd90606401602060405180830381600087803b15801561095657600080fd5b505af115801561096a573d6000803e3d6000fd5b505050506040513d601f19601f8201168201806040525081019061098e9190613224565b5060008061099f888888888861200a565b925092505084821015610a66576001600160a01b037f00000000000000000000000000000000000000000000000000000000000000001663a9059cbb856109e68589613890565b6040516001600160e01b031960e085901b1681526001600160a01b0390921660048301526024820152604401602060405180830381600087803b158015610a2c57600080fd5b505af1158015610a40573d6000803e3d6000fd5b505050506040513d601f19601f82011682018060405250810190610a649190613224565b505b60018055979650505050505050565b600061086f8585858533611356565b33610a976000546001600160a01b031690565b6001600160a01b031614610aed5760405162461bcd60e51b815260206004820181905260248201527f4f776e61626c653a2063616c6c6572206973206e6f7420746865206f776e657260448201526064016106a9565b610af76000612377565b565b33610b0c6000546001600160a01b031690565b6001600160a01b031614610b625760405162461bcd60e51b815260206004820181905260248201527f4f776e61626c653a2063616c6c6572206973206e6f7420746865206f776e657260448201526064016106a9565b62127500811115610ba55760405162461bcd60e51b815260206004820152600d60248201526c4c6f636b20746f6f206c6f6e6760981b60448201526064016106a9565b600355565b33610bbd6000546001600160a01b031690565b6001600160a01b031614610c135760405162461bcd60e51b815260206004820181905260248201527f4f776e61626c653a2063616c6c6572206973206e6f7420746865206f776e657260448201526064016106a9565b6040516370a0823160e01b81523060048201526001600160a01b0382169063a9059cbb90339083906370a082319060240160206040518083038186803b158015610c5c57600080fd5b505afa158015610c70573d6000803e3d6000fd5b505050506040513d601f19601f82011682018060405250810190610c949190613284565b6040516001600160e01b031960e085901b1681526001600160a01b0390921660048301526024820152604401602060405180830381600087803b158015610cda57600080fd5b505af1158015610cee573d6000803e3d6000fd5b505050506040513d601f19601f82011682018060405250810190610d129190613224565b5050565b33610d296000546001600160a01b031690565b6001600160a01b031614610d7f5760405162461bcd60e51b815260206004820181905260248201527f4f776e61626c653a2063616c6c6572206973206e6f7420746865206f776e657260448201526064016106a9565b62093a80811115610dc25760405162461bcd60e51b815260206004820152600d60248201526c4c6f636b20746f6f206c6f6e6760981b60448201526064016106a9565b600255565b6000805b8351811015610e1b57828181518110610df457634e487b7160e01b600052603260045260246000fd5b602002602001015182610e079190613859565b915080610e13816138d7565b915050610dcb565b506040516340d1b7db60e11b8152600481018590526000907f00000000000000000000000000000000000000000000000000000000000000006001600160a01b0316906381a36fb69060240160206040518083038186803b158015610e7f57600080fd5b505afa158015610e93573d6000803e3d6000fd5b505050506040513d601f19601f82011682018060405250810190610eb7919061308d565b905060006001600160a01b037f000000000000000000000000000000000000000000000000000000000000000016632699f55a87610efd670de0b6b3a764000087613871565b6003546040516001600160e01b031960e086901b168152600481019390935260248301919091523360448301526064820152608401602060405180830381600087803b158015610f4c57600080fd5b505af1158015610f60573d6000803e3d6000fd5b505050506040513d601f19601f82011682018060405250810190610f849190613284565b60405162d3f20f60e21b8152600481018890529091506000906001600160a01b037f0000000000000000000000000000000000000000000000000000000000000000169063034fc83c9060240160206040518083038186803b158015610fe957600080fd5b505afa158015610ffd573d6000803e3d6000fd5b505050506040513d601f19601f82011682018060405250810190611021919061308d565b6040516370a0823160e01b81526001600160a01b0380831660048301529192506000918516906370a082319060240160206040518083038186803b15801561106857600080fd5b505afa15801561107c573d6000803e3d6000fd5b505050506040513d601f19601f820116820180604052508101906110a09190613284565b90506000846001600160a01b0316631ba46cfd6040518163ffffffff1660e01b815260040160206040518083038186803b1580156110dd57600080fd5b505afa1580156110f1573d6000803e3d6000fd5b505050506040513d601f19601f82011682018060405250810190611115919061308d565b604051631759616b60e11b81529091506001600160a01b03821690632eb2c2d69061114a90339030908d908d90600401613739565b600060405180830381600087803b15801561116457600080fd5b505af1158015611178573d6000803e3d6000fd5b505060405163a22cb46560e01b81526001600160a01b038881166004830152600160248301528416925063a22cb4659150604401600060405180830381600087803b1580156111c657600080fd5b505af11580156111da573d6000803e3d6000fd5b5050604051635882017560e11b81526001600160a01b038816925063b10402ea915061120e908b908b9088906004016137b6565b602060405180830381600087803b15801561122857600080fd5b505af115801561123c573d6000803e3d6000fd5b505050506040513d601f19601f820116820180604052508101906112609190613284565b506040516370a0823160e01b81526001600160a01b038481166004830152600091908716906370a082319060240160206040518083038186803b1580156112a657600080fd5b505afa1580156112ba573d6000803e3d6000fd5b505050506040513d601f19601f820116820180604052508101906112de9190613284565b90506112f2670de0b6b3a764000088613871565b6112fc9084613859565b811461134a5760405162461bcd60e51b815260206004820152601860248201527f496e636f72726563742076746f6b656e73206d696e746564000000000000000060448201526064016106a9565b50505050505050505050565b6000600260015414156113ab5760405162461bcd60e51b815260206004820152601f60248201527f5265656e7472616e637947756172643a207265656e7472616e742063616c6c0060448201526064016106a9565b60026001819055507f00000000000000000000000000000000000000000000000000000000000000006001600160a01b031663d0e30db0346040518263ffffffff1660e01b81526004016000604051808303818588803b15801561140e57600080fd5b505af1158015611422573d6000803e3d6000fd5b5050505050600080611438888888883489611c34565b925092505034821015610a66576001600160a01b037f000000000000000000000000000000000000000000000000000000000000000016632e1a7d4d61147e8434613890565b6040518263ffffffff1660e01b815260040161149c91815260200190565b600060405180830381600087803b1580156114b657600080fd5b505af11580156114ca573d6000803e3d6000fd5b50505050836001600160a01b031682346114e49190613890565b505060018055979650505050505050565b60006002600154141561154a5760405162461bcd60e51b815260206004820152601f60248201527f5265656e7472616e637947756172643a207265656e7472616e742063616c6c0060448201526064016106a9565b60026001819055507f00000000000000000000000000000000000000000000000000000000000000006001600160a01b031663d0e30db0346040518263ffffffff1660e01b81526004016000604051808303818588803b1580156115ad57600080fd5b505af11580156115c1573d6000803e3d6000fd5b50505050506000806115d6878787348861200a565b925092505034821015611685576001600160a01b037f000000000000000000000000000000000000000000000000000000000000000016632e1a7d4d61161c8434613890565b6040518263ffffffff1660e01b815260040161163a91815260200190565b600060405180830381600087803b15801561165457600080fd5b505af1158015611668573d6000803e3d6000fd5b50505050836001600160a01b031682346116829190613890565b50505b600180559695505050505050565b80516040516340d1b7db60e11b8152600481018490526000907f00000000000000000000000000000000000000000000000000000000000000006001600160a01b0316906381a36fb69060240160206040518083038186803b1580156116f857600080fd5b505afa15801561170c573d6000803e3d6000fd5b505050506040513d601f19601f82011682018060405250810190611730919061308d565b905060006001600160a01b037f000000000000000000000000000000000000000000000000000000000000000016632699f55a86611776670de0b6b3a764000087613871565b6003546040516001600160e01b031960e086901b168152600481019390935260248301919091523360448301526064820152608401602060405180830381600087803b1580156117c557600080fd5b505af11580156117d9573d6000803e3d6000fd5b505050506040513d601f19601f820116820180604052508101906117fd9190613284565b60405162d3f20f60e21b8152600481018790529091506000906001600160a01b037f0000000000000000000000000000000000000000000000000000000000000000169063034fc83c9060240160206040518083038186803b15801561186257600080fd5b505afa158015611876573d6000803e3d6000fd5b505050506040513d601f19601f8201168201806040525081019061189a919061308d565b6040516370a0823160e01b81526001600160a01b0380831660048301529192506000918516906370a082319060240160206040518083038186803b1580156118e157600080fd5b505afa1580156118f5573d6000803e3d6000fd5b505050506040513d601f19601f820116820180604052508101906119199190613284565b60408051600080825260208201909252919250506000856001600160a01b0316631ba46cfd6040518163ffffffff1660e01b815260040160206040518083038186803b15801561196857600080fd5b505afa15801561197c573d6000803e3d6000fd5b505050506040513d601f19601f820116820180604052508101906119a0919061308d565b905060005b8851811015611a24576119e0828a83815181106119d257634e487b7160e01b600052603260045260246000fd5b6020026020010151896123df565b611a1282888b8481518110611a0557634e487b7160e01b600052603260045260246000fd5b6020026020010151612706565b80611a1c816138d7565b9150506119a5565b50604051635882017560e11b81526001600160a01b0387169063b10402ea90611a55908b90869089906004016137b6565b602060405180830381600087803b158015611a6f57600080fd5b505af1158015611a83573d6000803e3d6000fd5b505050506040513d601f19601f82011682018060405250810190611aa79190613284565b506040516370a0823160e01b81526001600160a01b038581166004830152600091908816906370a082319060240160206040518083038186803b158015611aed57600080fd5b505afa158015611b01573d6000803e3d6000fd5b505050506040513d601f19601f82011682018060405250810190611b259190613284565b9050611b39670de0b6b3a764000089613871565b6112fc9085613859565b33611b566000546001600160a01b031690565b6001600160a01b031614611bac5760405162461bcd60e51b815260206004820181905260248201527f4f776e61626c653a2063616c6c6572206973206e6f7420746865206f776e657260448201526064016106a9565b6001600160a01b038116611c285760405162461bcd60e51b815260206004820152602660248201527f4f776e61626c653a206e6577206f776e657220697320746865207a65726f206160448201527f646472657373000000000000000000000000000000000000000000000000000060648201526084016106a9565b611c3181612377565b50565b6000806000807f00000000000000000000000000000000000000000000000000000000000000006001600160a01b03166381a36fb68b6040518263ffffffff1660e01b8152600401611c8891815260200190565b60206040518083038186803b158015611ca057600080fd5b505afa158015611cb4573d6000803e3d6000fd5b505050506040513d601f19601f82011682018060405250810190611cd8919061308d565b90506001600160a01b038116611d305760405162461bcd60e51b815260206004820152601d60248201527f4e4654585a61703a205661756c7420646f6573206e6f7420657869737400000060448201526064016106a9565b6000816001600160a01b0316631ba46cfd6040518163ffffffff1660e01b815260040160206040518083038186803b158015611d6b57600080fd5b505afa158015611d7f573d6000803e3d6000fd5b505050506040513d601f19601f82011682018060405250810190611da3919061308d565b604051631759616b60e11b81529091506001600160a01b03821690632eb2c2d690611dd890339030908f908f90600401613739565b600060405180830381600087803b158015611df257600080fd5b505af1158015611e06573d6000803e3d6000fd5b505060405163a22cb46560e01b81526001600160a01b038581166004830152600160248301528416925063a22cb4659150604401600060405180830381600087803b158015611e5457600080fd5b505af1158015611e68573d6000803e3d6000fd5b50506040517f3d5d190c000000000000000000000000000000000000000000000000000000008152600092506001600160a01b0385169150633d5d190c90611eb6908e908e90600401613791565b602060405180830381600087803b158015611ed057600080fd5b505af1158015611ee4573d6000803e3d6000fd5b505050506040513d601f19601f82011682018060405250810190611f089190613284565b90506000611f1e670de0b6b3a764000083613871565b6040516370a0823160e01b81523060048201529091506001600160a01b038516906370a082319060240160206040518083038186803b158015611f6057600080fd5b505afa158015611f74573d6000803e3d6000fd5b505050506040513d601f19601f82011682018060405250810190611f989190613284565b8114611fe65760405162461bcd60e51b815260206004820181905260248201527f446964206e6f7420726563656976652065787065637465642062616c616e636560448201526064016106a9565b611ff48d85838d8d8d61281f565b9650965096505050505096509650969350505050565b6000806000807f00000000000000000000000000000000000000000000000000000000000000006001600160a01b03166381a36fb68a6040518263ffffffff1660e01b815260040161205e91815260200190565b60206040518083038186803b15801561207657600080fd5b505afa15801561208a573d6000803e3d6000fd5b505050506040513d601f19601f820116820180604052508101906120ae919061308d565b90506001600160a01b0381166121065760405162461bcd60e51b815260206004820152601d60248201527f4e4654585a61703a205661756c7420646f6573206e6f7420657869737400000060448201526064016106a9565b6000816001600160a01b0316631ba46cfd6040518163ffffffff1660e01b815260040160206040518083038186803b15801561214157600080fd5b505afa158015612155573d6000803e3d6000fd5b505050506040513d601f19601f82011682018060405250810190612179919061308d565b905060005b89518110156121f0576121b9828b83815181106121ab57634e487b7160e01b600052603260045260246000fd5b6020026020010151856123df565b6121de82848c8481518110611a0557634e487b7160e01b600052603260045260246000fd5b806121e8816138d7565b91505061217e565b5060606000836001600160a01b0316633d5d190c8c846040518363ffffffff1660e01b8152600401612223929190613791565b602060405180830381600087803b15801561223d57600080fd5b505af1158015612251573d6000803e3d6000fd5b505050506040513d601f19601f820116820180604052508101906122759190613284565b9050600061228b670de0b6b3a764000083613871565b6040516370a0823160e01b81523060048201529091506001600160a01b038616906370a082319060240160206040518083038186803b1580156122cd57600080fd5b505afa1580156122e1573d6000803e3d6000fd5b505050506040513d601f19601f820116820180604052508101906123059190613284565b81146123535760405162461bcd60e51b815260206004820181905260248201527f446964206e6f7420726563656976652065787065637465642062616c616e636560448201526064016106a9565b6123618d86838e8e8e61281f565b9750975097505050505050955095509592505050565b600080546001600160a01b038381167fffffffffffffffffffffffff0000000000000000000000000000000000000000831681178455604051919092169283917f8be0079c531659141344cd1fd0a4f28419497f9722a3daafe3b4186f6b6457e09190a35050565b7306012c8cf97bead5deae237070f9587f8e7a266d73b47e3cd837ddf8e4c57f05d70ab865de6e193bbb60606001600160a01b038616831415612466576040513360248201523060448201526064810186905260840160408051601f198184030181529190526020810180516001600160e01b03166323b872dd60e01b1790529050612679565b816001600160a01b0316866001600160a01b031614156126115760008560405160240161249591815260200190565b60408051601f198184030181529181526020820180516001600160e01b03167f58178168000000000000000000000000000000000000000000000000000000001790525190915060009081906001600160a01b038a16906124f790859061371d565b600060405180830381855afa9150503d8060008114612532576040519150601f19603f3d011682016040523d82523d6000602084013e612537565b606091505b5091509150600081806020019051810190612552919061308d565b905082801561256957506001600160a01b03811633145b6125b55760405162461bcd60e51b815260206004820152600d60248201527f4e6f7420746865206f776e65720000000000000000000000000000000000000060448201526064016106a9565b604051602481018a905260440160408051601f198184030181529190526020810180516001600160e01b03167f8264fe980000000000000000000000000000000000000000000000000000000017905294506126799350505050565b6040513360248201526001600160a01b03851660448201526064810186905260840160408051601f198184030181529190526020810180516001600160e01b03167f42842e0e0000000000000000000000000000000000000000000000000000000017905290505b600080876001600160a01b031683604051612694919061371d565b6000604051808303816000865af19150503d80600081146126d1576040519150601f19603f3d011682016040523d82523d6000602084013e6126d6565b606091505b50915091508181906126fb5760405162461bcd60e51b81526004016106a991906137f5565b505050505050505050565b7306012c8cf97bead5deae237070f9587f8e7a266d73b47e3cd837ddf8e4c57f05d70ab865de6e193bbb60606001600160a01b038616831415612790576040516001600160a01b03861660248201526044810185905260640160408051601f198184030181529190526020810180516001600160e01b031663095ea7b360e01b1790529050612679565b816001600160a01b0316866001600160a01b031614156128175760405160248101859052600060448201526001600160a01b038616606482015260840160408051601f198184030181529190526020810180516001600160e01b03167fbf31196f000000000000000000000000000000000000000000000000000000001790529050612679565b505050505050565b60405163095ea7b360e01b81526001600160a01b037f00000000000000000000000000000000000000000000000000000000000000008116600483015260248201869052600091829182919089169063095ea7b390604401602060405180830381600087803b15801561289157600080fd5b505af11580156128a5573d6000803e3d6000fd5b505050506040513d601f19601f820116820180604052508101906128c99190613224565b5060008060007f00000000000000000000000000000000000000000000000000000000000000006001600160a01b031663e8e337008c7f00000000000000000000000000000000000000000000000000000000000000006001600160a01b031663ad5c46486040518163ffffffff1660e01b815260040160206040518083038186803b15801561295857600080fd5b505afa15801561296c573d6000803e3d6000fd5b505050506040513d601f19601f82011682018060405250810190612990919061308d565b6040516001600160e01b031960e085901b1681526001600160a01b03928316600482015291166024820152604481018d9052606481018b9052608481018d905260a481018c90523060c48201524260e482015261010401606060405180830381600087803b158015612a0157600080fd5b505af1158015612a15573d6000803e3d6000fd5b505050506040513d601f19601f82011682018060405250810190612a3991906136b6565b9250925092506000612a6b8c7f0000000000000000000000000000000000000000000000000000000000000000612cee565b60405163095ea7b360e01b81526001600160a01b037f000000000000000000000000000000000000000000000000000000000000000081166004830152602482018590529192509082169063095ea7b390604401602060405180830381600087803b158015612ad957600080fd5b505af1158015612aed573d6000803e3d6000fd5b505050506040513d601f19601f82011682018060405250810190612b119190613224565b506002546040517f6c9b9588000000000000000000000000000000000000000000000000000000008152600481018f90526001600160a01b038a811660248301526044820185905260648201929092527f000000000000000000000000000000000000000000000000000000000000000090911690636c9b958890608401600060405180830381600087803b158015612ba957600080fd5b505af1158015612bbd573d6000803e3d6000fd5b505050508a841015612c63576001600160a01b038c1663a9059cbb89612be3878f613890565b6040516001600160e01b031960e085901b1681526001600160a01b0390921660048301526024820152604401602060405180830381600087803b158015612c2957600080fd5b505af1158015612c3d573d6000803e3d6000fd5b505050506040513d601f19601f82011682018060405250810190612c619190613224565b505b600060025442612c739190613859565b90507f9f69538b20901013ea360bae2dce4079d45308fcfed02b3f0768c9f70f4ba9c08e8d85848d604051612cd39594939291909485526020850193909352604084019190915260608301526001600160a01b0316608082015260a00190565b60405180910390a150929c919b509950975050505050505050565b6000806000612cfd8585612e6c565b915091507f00000000000000000000000000000000000000000000000000000000000000006001600160a01b031663c45a01556040518163ffffffff1660e01b815260040160206040518083038186803b158015612d5a57600080fd5b505afa158015612d6e573d6000803e3d6000fd5b505050506040513d601f19601f82011682018060405250810190612d92919061308d565b6040516bffffffffffffffffffffffff19606085811b8216602084015284901b16603482015260480160405160208183030381529060405280519060200120604051602001612e4b9291907fff00000000000000000000000000000000000000000000000000000000000000815260609290921b6bffffffffffffffffffffffff1916600183015260158201527fe18a34eb0e04b04f7a0ac29a6e80748dca96319b42c54d679cb821dca90c6303603582015260550190565b60408051601f19818403018152919052805160209091012095945050505050565b600080826001600160a01b0316846001600160a01b03161415612ef75760405162461bcd60e51b815260206004820152602560248201527f556e697377617056324c6962726172793a204944454e544943414c5f4144445260448201527f455353455300000000000000000000000000000000000000000000000000000060648201526084016106a9565b826001600160a01b0316846001600160a01b031610612f17578284612f1a565b83835b90925090506001600160a01b038216612f755760405162461bcd60e51b815260206004820152601e60248201527f556e697377617056324c6962726172793a205a45524f5f41444452455353000060448201526064016106a9565b9250929050565b600082601f830112612f8c578081fd5b8135602067ffffffffffffffff821115612fa857612fa8613908565b8160051b612fb7828201613828565b838152828101908684018388018501891015612fd1578687fd5b8693505b85841015612ff3578035835260019390930192918401918401612fd5565b50979650505050505050565b600082601f83011261300f578081fd5b813567ffffffffffffffff81111561302957613029613908565b61303c601f8201601f1916602001613828565b818152846020838601011115613050578283fd5b816020850160208301379081016020019190915292915050565b60006020828403121561307b578081fd5b81356130868161391e565b9392505050565b60006020828403121561309e578081fd5b81516130868161391e565b600080600080600060a086880312156130c0578081fd5b85356130cb8161391e565b945060208601356130db8161391e565b9350604086013567ffffffffffffffff808211156130f7578283fd5b61310389838a01612f7c565b94506060880135915080821115613118578283fd5b61312489838a01612f7c565b93506080880135915080821115613139578283fd5b5061314688828901612fff565b9150509295509295909350565b60008060008060808587031215613168578384fd5b84356131738161391e565b935060208501356131838161391e565b925060408501359150606085013567ffffffffffffffff8111156131a5578182fd5b6131b187828801612fff565b91505092959194509250565b600080600080600060a086880312156131d4578081fd5b85356131df8161391e565b945060208601356131ef8161391e565b93506040860135925060608601359150608086013567ffffffffffffffff811115613218578182fd5b61314688828901612fff565b600060208284031215613235578081fd5b81518015158114613086578182fd5b600060208284031215613255578081fd5b81356001600160e01b031981168114613086578182fd5b60006020828403121561327d578081fd5b5035919050565b600060208284031215613295578081fd5b5051919050565b600080604083850312156132ae578182fd5b82359150602083013567ffffffffffffffff8111156132cb578182fd5b6132d785828601612f7c565b9150509250929050565b6000806000606084860312156132f5578283fd5b83359250602084013567ffffffffffffffff80821115613313578384fd5b61331f87838801612f7c565b93506040860135915080821115613334578283fd5b5061334186828701612f7c565b9150509250925092565b60008060008060808587031215613360578182fd5b84359350602085013567ffffffffffffffff8082111561337e578384fd5b61338a88838901612f7c565b9450604087013591508082111561339f578384fd5b506133ac87828801612f7c565b949793965093946060013593505050565b600080600080600060a086880312156133d4578283fd5b85359450602086013567ffffffffffffffff808211156133f2578485fd5b6133fe89838a01612f7c565b95506040880135915080821115613413578485fd5b5061342088828901612f7c565b9350506060860135915060808601356134388161391e565b809150509295509295909350565b600080600080600060a0868803121561345d578283fd5b85359450602086013567ffffffffffffffff8082111561347b578485fd5b61348789838a01612f7c565b9550604088013591508082111561349c578485fd5b506134a988828901612f7c565b9598949750949560608101359550608001359392505050565b60008060008060008060c087890312156134da578384fd5b86359550602087013567ffffffffffffffff808211156134f8578586fd5b6135048a838b01612f7c565b96506040890135915080821115613519578586fd5b5061352689828a01612f7c565b945050606087013592506080870135915060a08701356135458161391e565b809150509295509295509295565b600080600060608486031215613567578081fd5b83359250602084013567ffffffffffffffff811115613584578182fd5b61359086828701612f7c565b925050604084013590509250925092565b600080600080608085870312156135b6578182fd5b84359350602085013567ffffffffffffffff8111156135d3578283fd5b6135df87828801612f7c565b9350506040850135915060608501356135f78161391e565b939692955090935050565b60008060008060808587031215613617578182fd5b84359350602085013567ffffffffffffffff811115613634578283fd5b61364087828801612f7c565b949794965050505060408301359260600135919050565b600080600080600060a0868803121561366e578283fd5b85359450602086013567ffffffffffffffff81111561368b578384fd5b61369788828901612f7c565b945050604086013592506060860135915060808601356134388161391e565b6000806000606084860312156136ca578081fd5b8351925060208401519150604084015190509250925092565b6000815180845260208085019450808401835b83811015613712578151875295820195908201906001016136f6565b509495945050505050565b6000825161372f8184602087016138a7565b9190910192915050565b60006001600160a01b03808716835280861660208401525060a0604083015261376560a08301856136e3565b828103606084015261377781856136e3565b838103608090940193909352508152602001949350505050565b6040815260006137a460408301856136e3565b828103602084015261086f81856136e3565b6060815260006137c960608301866136e3565b82810360208401526137db81866136e3565b9150506001600160a01b0383166040830152949350505050565b60208152600082518060208401526138148160408501602087016138a7565b601f01601f19169190910160400192915050565b604051601f8201601f1916810167ffffffffffffffff8111828210171561385157613851613908565b604052919050565b6000821982111561386c5761386c6138f2565b500190565b600081600019048311821515161561388b5761388b6138f2565b500290565b6000828210156138a2576138a26138f2565b500390565b60005b838110156138c25781810151838201526020016138aa565b838111156138d1576000848401525b50505050565b60006000198214156138eb576138eb6138f2565b5060010190565b634e487b7160e01b600052601160045260246000fd5b634e487b7160e01b600052604160045260246000fd5b6001600160a01b0381168114611c3157600080fdfea264697066735822122012e85e292ad99962a0486fbe7e92716733e53bad56e228b703f2b7aa1b88bebe64736f6c63430008040033",
  "linkReferences": {},
  "deployedLinkReferences": {}
}