{"abi":[{"type":"constructor","inputs":[{"name":"_owner","type":"address","internalType":"address"},{"name":"_impl","type":"address","internalType":"address"}],"stateMutability":"nonpayable"},{"type":"function","name":"changeImpl","inputs":[{"name":"_newImpl","type":"address","internalType":"address"}],"outputs":[],"stateMutability":"nonpayable"},{"type":"function","name":"impl","inputs":[],"outputs":[{"name":"","type":"address","internalType":"address"}],"stateMutability":"view"},{"type":"function","name":"implementation","inputs":[],"outputs":[{"name":"","type":"address","internalType":"address"}],"stateMutability":"view"},{"type":"function","name":"owner","inputs":[],"outputs":[{"name":"","type":"address","internalType":"address"}],"stateMutability":"view"},{"type":"function","name":"renounceOwnership","inputs":[],"outputs":[],"stateMutability":"nonpayable"},{"type":"function","name":"transferOwnership","inputs":[{"name":"newOwner","type":"address","internalType":"address"}],"outputs":[],"stateMutability":"nonpayable"},{"type":"event","name":"OwnershipTransferred","inputs":[{"name":"previousOwner","type":"address","indexed":true,"internalType":"address"},{"name":"newOwner","type":"address","indexed":true,"internalType":"address"}],"anonymous":false}],"bytecode":{"object":"0x608060405234801561001057600080fd5b50604051610bc1380380610bc18339818101604052604081101561003357600080fd5b810190808051906020019092919080519060200190929190505050600061005e61029960201b60201c565b9050806000806101000a81548173ffffffffffffffffffffffffffffffffffffffff021916908373ffffffffffffffffffffffffffffffffffffffff1602179055508073ffffffffffffffffffffffffffffffffffffffff16600073ffffffffffffffffffffffffffffffffffffffff167f8be0079c531659141344cd1fd0a4f28419497f9722a3daafe3b4186f6b6457e060405160405180910390a350600073ffffffffffffffffffffffffffffffffffffffff168273ffffffffffffffffffffffffffffffffffffffff16141561019f576040517f08c379a00000000000000000000000000000000000000000000000000000000081526004018080602001828103825260048152602001807f423a43310000000000000000000000000000000000000000000000000000000081525060200191505060405180910390fd5b600073ffffffffffffffffffffffffffffffffffffffff168173ffffffffffffffffffffffffffffffffffffffff161415610242576040517f08c379a00000000000000000000000000000000000000000000000000000000081526004018080602001828103825260048152602001807f423a43320000000000000000000000000000000000000000000000000000000081525060200191505060405180910390fd5b80600160006101000a81548173ffffffffffffffffffffffffffffffffffffffff021916908373ffffffffffffffffffffffffffffffffffffffff160217905550610292826102a160201b60201c565b50506104c8565b600033905090565b6102af61029960201b60201c565b73ffffffffffffffffffffffffffffffffffffffff166102d361049f60201b60201c565b73ffffffffffffffffffffffffffffffffffffffff161461035c576040517f08c379a00000000000000000000000000000000000000000000000000000000081526004018080602001828103825260208152602001807f4f776e61626c653a2063616c6c6572206973206e6f7420746865206f776e657281525060200191505060405180910390fd5b600073ffffffffffffffffffffffffffffffffffffffff168173ffffffffffffffffffffffffffffffffffffffff1614156103e2576040517f08c379a0000000000000000000000000000000000000000000000000000000008152600401808060200182810382526026815260200180610b9b6026913960400191505060405180910390fd5b8073ffffffffffffffffffffffffffffffffffffffff1660008054906101000a900473ffffffffffffffffffffffffffffffffffffffff1673ffffffffffffffffffffffffffffffffffffffff167f8be0079c531659141344cd1fd0a4f28419497f9722a3daafe3b4186f6b6457e060405160405180910390a3806000806101000a81548173ffffffffffffffffffffffffffffffffffffffff021916908373ffffffffffffffffffffffffffffffffffffffff16021790555050565b60008060009054906101000a900473ffffffffffffffffffffffffffffffffffffffff16905090565b6106c4806104d76000396000f3fe608060405234801561001057600080fd5b50600436106100625760003560e01c80635c60da1b14610067578063715018a61461009b5780638abf6077146100a55780638da5cb5b146100d9578063b4bf1cdf1461010d578063f2fde38b14610151575b600080fd5b61006f610195565b604051808273ffffffffffffffffffffffffffffffffffffffff16815260200191505060405180910390f35b6100a36101bf565b005b6100ad61032c565b604051808273ffffffffffffffffffffffffffffffffffffffff16815260200191505060405180910390f35b6100e1610352565b604051808273ffffffffffffffffffffffffffffffffffffffff16815260200191505060405180910390f35b61014f6004803603602081101561012357600080fd5b81019080803573ffffffffffffffffffffffffffffffffffffffff16906020019092919050505061037b565b005b6101936004803603602081101561016757600080fd5b81019080803573ffffffffffffffffffffffffffffffffffffffff16906020019092919050505061046e565b005b6000600160009054906101000a900473ffffffffffffffffffffffffffffffffffffffff16905090565b6101c7610660565b73ffffffffffffffffffffffffffffffffffffffff166101e5610352565b73ffffffffffffffffffffffffffffffffffffffff161461026e576040517f08c379a00000000000000000000000000000000000000000000000000000000081526004018080602001828103825260208152602001807f4f776e61626c653a2063616c6c6572206973206e6f7420746865206f776e657281525060200191505060405180910390fd5b600073ffffffffffffffffffffffffffffffffffffffff1660008054906101000a900473ffffffffffffffffffffffffffffffffffffffff1673ffffffffffffffffffffffffffffffffffffffff167f8be0079c531659141344cd1fd0a4f28419497f9722a3daafe3b4186f6b6457e060405160405180910390a360008060006101000a81548173ffffffffffffffffffffffffffffffffffffffff021916908373ffffffffffffffffffffffffffffffffffffffff160217905550565b600160009054906101000a900473ffffffffffffffffffffffffffffffffffffffff1681565b60008060009054906101000a900473ffffffffffffffffffffffffffffffffffffffff16905090565b610383610660565b73ffffffffffffffffffffffffffffffffffffffff166103a1610352565b73ffffffffffffffffffffffffffffffffffffffff161461042a576040517f08c379a00000000000000000000000000000000000000000000000000000000081526004018080602001828103825260208152602001807f4f776e61626c653a2063616c6c6572206973206e6f7420746865206f776e657281525060200191505060405180910390fd5b80600160006101000a81548173ffffffffffffffffffffffffffffffffffffffff021916908373ffffffffffffffffffffffffffffffffffffffff16021790555050565b610476610660565b73ffffffffffffffffffffffffffffffffffffffff16610494610352565b73ffffffffffffffffffffffffffffffffffffffff161461051d576040517f08c379a00000000000000000000000000000000000000000000000000000000081526004018080602001828103825260208152602001807f4f776e61626c653a2063616c6c6572206973206e6f7420746865206f776e657281525060200191505060405180910390fd5b600073ffffffffffffffffffffffffffffffffffffffff168173ffffffffffffffffffffffffffffffffffffffff1614156105a3576040517f08c379a00000000000000000000000000000000000000000000000000000000081526004018080602001828103825260268152602001806106696026913960400191505060405180910390fd5b8073ffffffffffffffffffffffffffffffffffffffff1660008054906101000a900473ffffffffffffffffffffffffffffffffffffffff1673ffffffffffffffffffffffffffffffffffffffff167f8be0079c531659141344cd1fd0a4f28419497f9722a3daafe3b4186f6b6457e060405160405180910390a3806000806101000a81548173ffffffffffffffffffffffffffffffffffffffff021916908373ffffffffffffffffffffffffffffffffffffffff16021790555050565b60003390509056fe4f776e61626c653a206e6577206f776e657220697320746865207a65726f2061646472657373a2646970667358221220ffb235f005b0f97dfb3daef750be90912a8f473599c63a9a7100e85bd7f724c564736f6c634300070600334f776e61626c653a206e6577206f776e657220697320746865207a65726f2061646472657373","linkReferences":{}},"methodIdentifiers":{"changeImpl(address)":"b4bf1cdf","impl()":"8abf6077","implementation()":"5c60da1b","owner()":"8da5cb5b","renounceOwnership()":"715018a6","transferOwnership(address)":"f2fde38b"},"id":3}