{
  "_format": "hh-sol-artifact-1",
  "contractName": "PolygonUSDC",
  "sourceName": "contracts/hyphen/token/svg-helpers/Polygon/Polygon.USDC.sol",
  "abi": [
    {
      "inputs": [
        {
          "internalType": "uint256",
          "name": "_decimals",
          "type": "uint256"
        }
      ],
      "stateMutability": "nonpayable",
      "type": "constructor"
    },
    {
      "anonymous": false,
      "inputs": [
        {
          "indexed": false,
          "internalType": "string",
          "name": "newBackgroundUrl",
          "type": "string"
        }
      ],
      "name": "BackgroundUrlUpdated",
      "type": "event"
    },
    {
      "anonymous": false,
      "inputs": [
        {
          "indexed": true,
          "internalType": "address",
          "name": "previousOwner",
          "type": "address"
        },
        {
          "indexed": true,
          "internalType": "address",
          "name": "newOwner",
          "type": "address"
        }
      ],
      "name": "OwnershipTransferred",
      "type": "event"
    },
    {
      "anonymous": false,
      "inputs": [
        {
          "indexed": false,
          "internalType": "uint256",
          "name": "newTokenDecimals",
          "type": "uint256"
        }
      ],
      "name": "TokenDecimalsUpdated",
      "type": "event"
    },
    {
      "inputs": [
        {
          "internalType": "uint256",
          "name": "_suppliedLiquidity",
          "type": "uint256"
        },
        {
          "internalType": "uint256",
          "name": "_totalSuppliedLiquidity",
          "type": "uint256"
        }
      ],
      "name": "getAttributes",
      "outputs": [
        {
          "internalType": "string",
          "name": "",
          "type": "string"
        }
      ],
      "stateMutability": "view",
      "type": "function"
    },
    {
      "inputs": [],
      "name": "getChainName",
      "outputs": [
        {
          "internalType": "string",
          "name": "",
          "type": "string"
        }
      ],
      "stateMutability": "pure",
      "type": "function"
    },
    {
      "inputs": [
        {
          "internalType": "uint256",
          "name": "_suppliedLiquidity",
          "type": "uint256"
        },
        {
          "internalType": "uint256",
          "name": "_totalSuppliedLiquidity",
          "type": "uint256"
        }
      ],
      "name": "getDescription",
      "outputs": [
        {
          "internalType": "string",
          "name": "",
          "type": "string"
        }
      ],
      "stateMutability": "view",
      "type": "function"
    },
    {
      "inputs": [
        {
          "internalType": "uint256",
          "name": "_tokenId",
          "type": "uint256"
        },
        {
          "internalType": "uint256",
          "name": "_suppliedLiquidity",
          "type": "uint256"
        },
        {
          "internalType": "uint256",
          "name": "_totalSuppliedLiquidity",
          "type": "uint256"
        }
      ],
      "name": "getTokenSvg",
      "outputs": [
        {
          "internalType": "string",
          "name": "",
          "type": "string"
        }
      ],
      "stateMutability": "view",
      "type": "function"
    },
    {
      "inputs": [],
      "name": "owner",
      "outputs": [
        {
          "internalType": "address",
          "name": "",
          "type": "address"
        }
      ],
      "stateMutability": "view",
      "type": "function"
    },
    {
      "inputs": [],
      "name": "renounceOwnership",
      "outputs": [],
      "stateMutability": "nonpayable",
      "type": "function"
    },
    {
      "inputs": [
        {
          "internalType": "uint256",
          "name": "_tokenDecimals",
          "type": "uint256"
        }
      ],
      "name": "setTokenDecimals",
      "outputs": [],
      "stateMutability": "nonpayable",
      "type": "function"
    },
    {
      "inputs": [],
      "name": "tokenDecimals",
      "outputs": [
        {
          "internalType": "uint256",
          "name": "",
          "type": "uint256"
        }
      ],
      "stateMutability": "view",
      "type": "function"
    },
    {
      "inputs": [
        {
          "internalType": "address",
          "name": "newOwner",
          "type": "address"
        }
      ],
      "name": "transferOwnership",
      "outputs": [],
      "stateMutability": "nonpayable",
      "type": "function"
    }
  ],
  "bytecode": "0x60806040523480156200001157600080fd5b5060405162003465380380620034658339810160408190526200003491620000a7565b80620000496200004362000053565b62000057565b60015550620000c0565b3390565b600080546001600160a01b038381166001600160a01b0319831681178455604051919092169283917f8be0079c531659141344cd1fd0a4f28419497f9722a3daafe3b4186f6b6457e09190a35050565b600060208284031215620000b9578081fd5b5051919050565b61339580620000d06000396000f3fe608060405234801561001057600080fd5b50600436106100935760003560e01c80638da5cb5b116100665780638da5cb5b146100f3578063b97af2c814610108578063d722b0bc1461011b578063d94017b214610123578063f2fde38b1461013657610093565b80633b97e8561461009857806360072b11146100b6578063617a3cd8146100d6578063715018a6146100e9575b600080fd5b6100a0610149565b6040516100ad919061313e565b60405180910390f35b6100c96100c43660046107ba565b61014f565b6040516100ad9190613090565b6100c96100e43660046107db565b61019d565b6100f16101fd565b005b6100fb610251565b6040516100ad919061307c565b6100f16101163660046107a2565b610260565b6100c96102df565b6100c96101313660046107ba565b610300565b6100f161014436600461077b565b610331565b60015481565b606060006101618460015460036103a2565b9050600061016f85856104fa565b90508181604051602001610184929190612eb6565b6040516020818303038152906040529250505092915050565b606060006101aa85610526565b905060006101bc8560015460036103a2565b905060006101ca86866104fa565b90508181846040516020016101e1939291906110f5565b60405160208183030381529060405293505050505b9392505050565b61020561064b565b6001600160a01b0316610216610251565b6001600160a01b0316146102455760405162461bcd60e51b815260040161023c90613109565b60405180910390fd5b61024f600061064f565b565b6000546001600160a01b031690565b61026861064b565b6001600160a01b0316610279610251565b6001600160a01b03161461029f5760405162461bcd60e51b815260040161023c90613109565b60018190556040517f03843ff361861286e264d715d7e39e4f0d8babbee80357c8467b29fd6225a0c5906102d490839061313e565b60405180910390a150565b6040805180820190915260078152662837b63cb3b7b760c91b602082015290565b606061030a6102df565b60405160200161031a9190612fa4565b604051602081830303815290604052905092915050565b61033961064b565b6001600160a01b031661034a610251565b6001600160a01b0316146103705760405162461bcd60e51b815260040161023c90613109565b6001600160a01b0381166103965760405162461bcd60e51b815260040161023c906130c3565b61039f8161064f565b50565b606060006103b184600a6131b9565b6103bb908661315f565b90506000806103cb86600a6131b9565b6103d5908861331f565b905085811561044a575b81158015906103f657506103f4600a8361331f565b155b1561042157610406600a8361315f565b9150801561041c5780610418816132ed565b9150505b6103df565b808061042c8461069f565b10156104485761043b8361069f565b61044590826132a6565b93505b505b816104635761045884610526565b9450505050506101f6565b600086846104708561069f565b61047a9190613147565b116104865760006104a5565b86846104918561069f565b61049b9190613147565b6104a591906132a6565b90506104b085610526565b6104b9856106cc565b6104cb6104c6868561072f565b610526565b6040516020016104dd939291906110a2565b604051602081830303815290604052955050505050509392505050565b60606101f6826105138568056bc75e2d63100000613287565b61051d919061315f565b601260026103a2565b60608161054b57506040805180820190915260018152600360fc1b6020820152610646565b8160005b8115610575578061055f81613304565b915061056e9050600a8361315f565b915061054f565b60008167ffffffffffffffff81111561059e57634e487b7160e01b600052604160045260246000fd5b6040519080825280601f01601f1916602001820160405280156105c8576020820181803683370190505b5090505b8415610641576105dd6001836132a6565b91506105ea600a8661331f565b6105f5906030613147565b60f81b81838151811061061857634e487b7160e01b600052603260045260246000fd5b60200101906001600160f81b031916908160001a90535061063a600a8661315f565b94506105cc565b925050505b919050565b3390565b600080546001600160a01b038381166001600160a01b0319831681178455604051919092169283917f8be0079c531659141344cd1fd0a4f28419497f9722a3daafe3b4186f6b6457e09190a35050565b6000805b82156106c6576106b281613304565b90506106bf600a8461315f565b92506106a3565b92915050565b6060816106e85750604080516020810190915260008152610646565b606060005b838110156107285781604051602001610706919061107d565b60405160208183030381529060405291508061072190613304565b90506106ed565b5092915050565b60008061073d83600a6131b9565b610747908561315f565b93508390505b80158015906107645750610762600a8261331f565b155b156101f657610774600a8261315f565b905061074d565b60006020828403121561078c578081fd5b81356001600160a01b03811681146101f6578182fd5b6000602082840312156107b3578081fd5b5035919050565b600080604083850312156107cc578081fd5b50508035926020909101359150565b6000806000606084860312156107ef578081fd5b505081359360208301359350604090920135919050565b600081516108188185602086016132bd565b9290920192915050565b7f253c2f746578743e3c706174682066696c6c3d226e6f6e6522207374726f6b6581527f3d222366666622207374726f6b652d6d697465726c696d69743d22313022206460208201527f3d224d36312e3836203236372e3132563131342e3731222f3e3c74657874207460408201527f72616e73666f726d3d227472616e736c6174652837392e39313520333535292260608201527f20636c6173733d227072656669785f5f737432207072656669785f5f73743234608082015274011103337b73a16b9b4bd329e911898111f24a21d1605d1b60a082015260b50190565b7f3c2f746578743e3c7061746820643d224d3132382e35322037372e323348353681527f2e3639632d322e373620302d3520322e32342d35203576372e3437633020322e60208201527f373620322e32342035203520356837312e383363322e3736203020352d322e3260408201527f3420352d35762d372e343763302d322e37362d322e32342d352d352d357a222060608201527f66696c6c3d2223383234376535222f3e3c74657874207472616e73666f726d3d60808201527f227472616e736c6174652835362e3638352038392e373036292220636c61737360a08201527f3d227072656669785f5f7374322220666f6e742d73697a653d2231322220666f60c08201527f6e742d66616d696c793d22436f75726965722d426f6c64223e4f4e20504f4c5960e08201527f474f4e3c2f746578743e3c673e3c7061746820643d224d36302e3139203637636101008201527f342e3731203020382e352d332e373920382e352d382e355336342e39203530206101208201527f36302e3139203530732d382e3520332e37392d382e3520382e3520332e3739206101408201527f382e3520382e3520382e357a222066696c6c3d2223323737356361222f3e3c706101608201527f61746820636c6173733d227072656669785f5f7374322220643d224d36322e356101808201527f322035392e383563302d312e32342d2e37342d312e36362d322e32332d312e386101a08201527f342d312e30362d2e31342d312e32372d2e34322d312e32372d2e3932732e33356101c08201527f2d2e383120312e30362d2e3831632e36342030202e39392e323120312e31372e6101e08201527f37342e30342e31312e31342e31382e32352e3138682e3537632e31342030202e6102008201527f32352d2e31312e32352d2e3235762d2e3034632d2e31342d2e37382d2e37382d6102208201527f312e33382d312e35392d312e3435762d2e383663302d2e31342d2e31312d2e326102408201527f352d2e32382d2e3238682d2e3535632d2e313420302d2e32352e31312d2e32386102608201527f2e3238762e3831632d312e30362e31342d312e37342e38352d312e373420312e6102808201527f3734203020312e31372e373120312e363320322e3220312e38312e39392e31386102a08201527f20312e33312e333920312e33312e3936732d2e352e39362d312e31372e3936636102c08201527f2d2e393220302d312e32342d2e33392d312e33352d2e39322d2e30342d2e31346102e08201527f2d2e31342d2e32312d2e32352d2e3231682d2e36632d2e313420302d2e32352e6103008201527f31312d2e32352e3235762e3034632e31342e38392e373120312e353220312e386103208201527f3820312e37762e38356330202e31342e31312e32352e32382e3238682e3533636103408201527f2e31342030202e32352d2e31312e32382d2e3238762d2e383563312e30372d2e6103608201527f313920312e37382d2e393420312e37382d312e38397a222f3e3c7061746820636103808201527f6c6173733d227072656669785f5f7374322220643d224d35382e33382036332e6103a08201527f3536632d322e37362d2e39392d342e31382d342e30372d332e31352d362e382e6103c08201527f35332d312e343920312e372d322e363220332e31352d332e31352e31342d2e306103e08201527f372e32312d2e31382e32312d2e3335762d2e3563302d2e31342d2e30372d2e326104008201527f352d2e32312d2e32382d2e303420302d2e313120302d2e31342e303461362e336104208201527f353420362e33353420302030302d342e3134203820362e33363420362e3336346104408201527f2030203030342e313420342e3134632e31342e30372e32382030202e33322d2e6104608201527f31342e30342d2e30342e30342d2e30372e30342d2e3134762d2e35632d2e30316104808201527f2d2e312d2e31312d2e32342d2e32322d2e33327a6d332e37352d31312e3035636104a08201527f2d2e31342d2e30372d2e323820302d2e33322e31342d2e30342e30342d2e30346104c08201527f2e30372d2e30342e3134762e356330202e31342e31312e32382e32312e3335206104e08201527f322e37362e393920342e313820342e303720332e313520362e3861352e3232356105008201527f20352e32323520302030312d332e313520332e3135632d2e31342e30372d2e326105208201527f312e31382d2e32312e3335762e356330202e31342e30372e32352e32312e32386105408201527f2e30342030202e31312030202e31342d2e303461362e33353420362e333534206105608201527f30203030342e31342d38632d2e36322d322e30312d322e31382d332e35332d3461058082015275171899969a17189bbd11179f1e17b39f1e17b9bb339f60511b6105a08201526105b60190565b7f20555344433c2f746578743e3c74657874207472616e73666f726d3d22726f7481527f617465282d3930203231332e3631203134332e303932292220636c6173733d2260208201527f7072656669785f5f737432207072656669785f5f73743234207072656669785f6040820152662fb9ba191a911f60c91b606082015260670190565b6000825161108f8184602087016132bd565b600360fc1b920191825250600101919050565b600084516110b48184602089016132bd565b601760f91b90830190815284516110d28160018401602089016132bd565b84519101906110e88160018401602088016132bd565b0160010195945050505050565b7f3c7376672076657273696f6e3d22312e31222069643d227072656669785f5f4c81527f617965725f312220786d6c6e733d22687474703a2f2f7777772e77332e6f726760208201527f2f323030302f7376672220783d22302220793d2230222076696577426f783d2260408201527f30203020343035203430352220786d6c3a73706163653d22707265736572766560608201527f223e3c7374796c653e2e7072656669785f5f7374327b66696c6c3a236666667d60808201527f2e7072656669785f5f737432347b666f6e742d66616d696c793a2661706f733b60a08201527f436f75726965722661706f733b7d2e7072656669785f5f737432357b666f6e7460c08201527f2d73697a653a323470787d3c2f7374796c653e3c72616469616c47726164696560e08201527f6e742069643d227072656669785f5f53564749445f315f222063783d222d34356101008201527f332e363132222063793d222d34382e3631312220723d223122206772616469656101208201527f6e745472616e73666f726d3d226d61747269782830203332372e3439392033326101408201527f372e34393920302031363132322e343636203134383535372e353633292220676101608201527f72616469656e74556e6974733d227573657253706163654f6e557365223e3c736101808201527f746f70206f66667365743d2230222073746f702d636f6c6f723d2223383234376101a08201527f6535222f3e3c73746f70206f66667365743d2231222f3e3c2f72616469616c476101c08201527f72616469656e743e3c7061746820643d224d33302030683334356331362e35376101e08201527f20302033302031332e34332033302033307633343563302031362e35372d31336102008201527f2e34332033302d3330203330483330632d31362e353720302d33302d31332e346102208201527f332d33302d333056333043302031332e34332031332e3433203020333020307a6102408201527f222066696c6c3d2275726c28237072656669785f5f53564749445f315f29222f6102608201527f3e3c72616469616c4772616469656e742069643d227072656669785f5f5356476102808201527f49445f30303030303136353232363039393333363632383333323036303030306102a08201527f3031323634333832353636353730353733343239395f222063783d222d3435336102c08201527f2e333233222063793d222d34372e3238342220723d223122206772616469656e6102e08201527f745472616e73666f726d3d226d61747269782830203237302e393935203136376103008201527f2e353338203020383132342e343136203132323932352e3735292220677261646103208201527f69656e74556e6974733d227573657253706163654f6e557365223e3c73746f706103408201527f206f66667365743d2230222073746f702d636f6c6f723d2223666666222f3e3c6103608201527f73746f70206f66667365743d222e373131222073746f702d636f6c6f723d22236103808201527f323737356361222f3e3c73746f70206f66667365743d2231222073746f702d6f6103a08201527f7061636974793d2230222f3e3c73746f70206f66667365743d2231222073746f6103c08201527f702d6f7061636974793d2230222f3e3c2f72616469616c4772616469656e743e6103e08201527f3c7061746820643d224d3231342e39332039352e3838632d352e39342d382e386104008201527f2d31382e39332d382e382d32342e383720302d34332e35362036342e34392d376104208201527f302e39203130372e33332d37302e39203134392e303720302034352e362033376104408201527f2e32382038322e35352038332e33332038322e35357338332e33332d33362e396104608201527f352038332e33332d38322e3535632e30312d34312e37342d32372e33332d38346104808201527f2e35382d37302e38392d3134392e30377a222066696c6c3d2275726c282370726104a08201527f656669785f5f53564749445f30303030303136353232363039393333363632386104c08201527f3333323036303030303031323634333832353636353730353733343239395f296104e08201527f222f3e3c7061746820636c6173733d227072656669785f5f7374322220643d226105008201527f4d3237312e3431203333382e3632612e382e3820302030302d2e35392d2e32346105208201527f682d312e3636612e382e3820302030302d2e35392e32342e382e3820302030306105408201527f2d2e32342e353976356330202e31312d2e30322e32322d2e30362e33322d2e306105608201527f342e312d2e312e322d2e31382e3237612e382e3820302030312d2e35392e32346105808201527f682d382e3333632d2e313120302d2e32322d2e30322d2e33322d2e3036732d2e6105a08201527f322d2e312d2e32372d2e31382d2e31342d2e31372d2e31382d2e3237612e38366105c08201527f362e38363620302030312d2e30362d2e3332762d35612e382e3820302030302d6105e08201527f2e32342d2e35392e382e3820302030302d2e35392d2e3234682d312e3637632d6106008201527f2e323220302d2e34332e30392d2e35392e3234732d2e32342e33372d2e32342e6106208201527f3539763135612e382e3820302030302e32342e35392e382e3820302030302e356106408201527f392e323468312e3637612e382e3820302030302e35392d2e32342e382e3820306106608201527f2030302e32342d2e3539762d35612e382e3820302030312e32342d2e35392e386106808201527f2e3820302030312e35392d2e323468382e3333612e382e3820302030312e35396106a08201527f2e32342e382e3820302030312e32342e353976356330202e31312e30322e32326106c08201527f2e30362e33322e30342e312e312e322e31382e3237732e31372e31342e32372e6106e08201527f31382e32312e30362e33322e303668312e3636632e31312030202e32322d2e306107008201527f322e33322d2e30362e312d2e30342e322d2e312e32372d2e3138732e31342d2e6107208201527f31372e31382d2e3237632e30342d2e312e30362d2e32312e30362d2e3332762d6107408201527f313563302d2e31312d2e30322d2e32322d2e30362d2e33322d2e30342d2e31316107608201527f2d2e312d2e322d2e31382d2e32377a4d3332312e3431203334312e3931612e386107808201527f2e3820302030302d2e35392d2e3234682d352e3833762e3034682d322e35612e6107a08201527f382e3820302030312d2e35392d2e32342e382e3820302030312d2e32342d2e356107c08201527f39762d35612e382e3820302030302d2e32342d2e35392e382e3820302030302d6107e08201527f2e35392d2e3234682d312e3636632d2e313120302d2e32322e30322d2e33322e6108008201527f30362d2e312e30342d2e322e312d2e32372e3138612e382e3820302030302d2e6108208201527f32342e35397631382e33336330202e31312e30322e32322e30362e33322e30346108408201527f2e312e312e322e31382e3237612e382e3820302030302e35392e323468312e366108608201527f36632e31312030202e32322d2e30322e33322d2e30362e312d2e30342e322d2e6108808201527f312e32372d2e3138612e382e3820302030302e32342d2e3539762d382e3333616108a08201527f2e382e3820302030312e32342d2e35392e382e3820302030312e35392d2e32346108c08201527f6835612e382e3820302030312e35392e32342e382e3820302030312e32342e356108e08201527f3976382e33336330202e31312e30322e32322e30362e33322e30342e312e312e6109008201527f322e31382e3237612e382e3820302030302e35392e323468312e3636632e31316109208201527f2030202e32322d2e30322e33322d2e30362e312d2e30342e322d2e312e32372d6109408201527f2e3138612e382e3820302030302e32342d2e3539762d31312e3763302d2e31316109608201527f2d2e30322d2e32322d2e30362d2e3332612e3632342e36323420302030302d2e6109808201527f31372d2e32387a4d3333382e3038203334312e3931612e382e3820302030302d6109a08201527f2e35392d2e3234682d31312e3637632d2e313120302d2e32322e30322d2e33326109c08201527f2e3036612e39382e393820302030302d2e32372e31382e382e3820302030302d6109e08201527f2e32342e35397631312e3636612e382e3820302030302e32342e35392e382e38610a008201527f20302030302e35392e32346831312e3637612e382e3820302030302e35392d2e610a208201527f32342e382e3820302030302e32342d2e3539762d312e363663302d2e31312d2e610a408201527f30322d2e32322d2e30362d2e33322d2e30342d2e312d2e312d2e322d2e31382d610a608201527f2e3237612e382e3820302030302d2e35392d2e3234682d382e3333632d2e3232610a808201527f20302d2e34332d2e30392d2e35392d2e32342d2e31362d2e31362d2e32342d2e610aa08201527f33372d2e32342d2e3539732e30392d2e34332e32342d2e3539632e31362d2e31610ac08201527f362e33372d2e32342e35392d2e323468382e3333612e382e3820302030302e35610ae08201527f392d2e32342e382e3820302030302e32342d2e3539762d362e363663302d2e31610b008201527f312d2e30322d2e32322d2e30362d2e3332612e3834312e38343120302030302d610b208201527f2e31382d2e32397a6d2d332e313620342e3234612e382e3820302030312d2e31610b408201527f382e32372e382e3820302030312d2e35392e3234682d35612e382e3820302030610b608201527f312d2e35392d2e32342e382e3820302030312d2e32342d2e35392e382e382030610b808201527f2030312e32342d2e35392e382e3820302030312e35392d2e32346835612e382e610ba08201527f3820302030312e35392e32342e382e3820302030312e32342e35396330202e31610bc08201527f312d2e30322e32322d2e30362e33327a4d3335342e3734203334312e3931612e610be08201527f382e3820302030302d2e35392d2e32346c2d322e352e3034682d392e3137612e610c008201527f382e3820302030302d2e35392e32342e382e3820302030302d2e32342e353976610c208201527f31312e36366330202e31312e30322e32322e30362e33322e30342e312e312e32610c408201527f2e31382e3237612e382e3820302030302e35392e323468312e3637612e382e38610c608201527f20302030302e35392d2e32342e382e3820302030302e32342d2e3539762d382e610c808201527f3333612e382e3820302030312e32342d2e35392e382e3820302030312e35392d610ca08201527f2e32346835632e31312030202e32322e30322e33322e30362e312e30342e322e610cc08201527f312e32372e3138612e382e3820302030312e32342e353976382e33336330202e610ce08201527f31312e30322e32322e30362e33322e30342e312e312e322e31382e3237612e38610d008201527f2e3820302030302e35392e323468312e3637612e382e3820302030302e35392d610d208201527f2e32342e382e3820302030302e32342d2e3539762d31312e3763302d2e31312d610d408201527f2e30322d2e32322d2e30362d2e3332612e36352e363520302030302d2e31372d610d608201527f2e32377a4d3238382e3038203334312e3931612e382e3820302030302d2e3539610d808201527f2d2e3234682d312e3637632d2e313120302d2e32322e30322d2e33322e303661610da08201527f2e39382e393820302030302d2e32372e31382e382e3820302030302d2e32342e610dc08201527f353976382e3333612e382e3820302030312d2e32342e35392e382e3820302030610de08201527f312d2e35392e3234682d35632d2e313120302d2e32322d2e30322d2e33322d2e610e008201527f30362d2e312d2e30342d2e322d2e312d2e32372d2e3138612e382e3820302030610e208201527f312d2e32342d2e3539762d382e333363302d2e31312d2e30322d2e32322d2e30610e408201527f362d2e33322d2e30342d2e312d2e312d2e322d2e31382d2e3237612e382e3820610e608201527f302030302d2e35392d2e3234682d312e3637632d2e313120302d2e32322e3032610e808201527f2d2e33322e3036612e39382e393820302030302d2e32372e31382e382e382030610ea08201527f2030302d2e32342e35397631312e3636612e382e3820302030302e32342e3539610ec08201527f2e382e3820302030302e35392e323468382e3334632e32322030202e34332e30610ee08201527f392e35392e32342e31362e31362e32342e33372e32342e3539732d2e30392e34610f008201527f332d2e32342e3539632d2e31362e31362d2e33372e32342d2e35392e3234682d610f208201527f35632d2e313120302d2e32322e30322d2e33322e3036732d2e322e312d2e3237610f408201527f2e31382d2e31342e31372d2e31382e3237632d2e30342e312d2e30362e32312d610f608201527f2e30362e333276312e36366330202e31312e30322e32322e30362e33322e3034610f808201527f2e312e312e322e31382e3237732e31372e31342e32372e31382e32312e30362e610fa08201527f33322e303668382e3333612e382e3820302030302e35392d2e32342e382e3820610fc08201527f302030302e32342d2e3539762d31362e363663302d2e31312d2e30322d2e3232610fe08201527f2d2e30362d2e33322d2e30352d2e30382d2e31322d2e31372d2e31392d2e32356110008201527f7a4d3330342e3734203334312e3931612e382e3820302030302d2e35392d2e326110208201527f34682d31312e3637612e382e3820302030302d2e35392e32342e382e382030206110408201527f30302d2e32342e35397631362e36366330202e31312e30322e32322e30362e336110608201527f322e30342e312e312e322e31382e3237612e382e3820302030302e35392e32346110808201527f68312e3637612e382e3820302030302e35392d2e32342e382e3820302030302e6110a08201527f32342d2e3539762d332e3333612e382e3820302030312e32342d2e35392e382e6110c08201527f3820302030312e35392d2e323468382e3334612e382e3820302030302e35392d6110e08201527f2e32342e382e3820302030302e32342d2e3539762d31312e3636612e3836362e6111008201527f38363620302030302d2e32342d2e367a6d2d332e303920382e3933612e382e386111208201527f20302030312d2e35322e3737632d2e312e30342d2e32312e30362d2e33322e306111408201527f36682d35612e382e3820302030312d2e35392d2e32342e382e3820302030312d6111608201527f2e32342d2e3539762d35612e382e3820302030312e32342d2e35392e382e38206111808201527f302030312e35392d2e32346835612e3836362e38363620302030312e362e32346111a08201527f2e382e3820302030312e32342e353976357a4d3332392e39372039362e3539636111c08201527f2e32382030202e35372d2e30352e38332d2e3136732e352d2e32372e372d2e346111e08201527f3761322e31313620322e31313620302030302e36332d312e35335638312e34396112008201527f61322e31383220322e31383220302030302d2e36322d312e353220322e3130356112208201527f20322e31303520302030302d312e35322d2e3633682d342e3331632d2e3537206112408201527f302d312e31322e32332d312e35322e36332d2e342e342d2e36332e39352d2e366112608201527f3320312e353276342e33316330202e32382d2e30352e35372d2e31362e3833736112808201527f2d2e32372e352d2e34372e3761322e31313620322e31313620302030312d312e6112a082018190527f35332e3633682d342e3331632d2e323820302d2e35372d2e30352d2e38332d2e6112c08301527f3136732d2e352d2e32372d2e372d2e343761322e31313620322e3131362030206112e08301527f30312d2e36332d312e35335636342e323463302d2e32382e30352d2e35372e316113008301527f362d2e3833732e32372d2e352e34372d2e3761322e31313620322e31313620306113208301527f203031312e35332d2e363368312e3235632e34322030202e38342d2e313220316113408301527f2e322d2e33362e33352d2e32342e36332d2e35372e37392d2e393761322e31336113608301527f3820322e31333820302030302d2e34392d322e33336c2d372e36382d372e37366113808301527f632d2e322d2e32312d2e34342d2e33372d2e372d2e343861322e31323420322e6113a08301527f31323420302030302d312e36362030632d2e32362e31312d2e352e32372d2e376113c08301527f2e34386c2d372e373220372e3736632d2e332e332d2e35312e36382d2e3539206113e08301527f312e3039732d2e30342e38352e313220312e32342e34332e37332e37382e39366114008301527f632e33352e32342e37362e333720312e31392e333768312e3235632e323920306114208301527f202e35372e30352e38332e3136732e352e32372e372e3437632e322e322e33366114408301527f2e34342e34372e372e31312e32362e31362e35352e31362e38337633302e32636114608301527f30202e32382e30352e35372e31362e3833732e32372e352e34372e3761322e316114808301527f313620322e3131362030203030312e35332e36336832312e35357a222f3e3c706114a08301527f61746820636c6173733d227072656669785f5f7374322220643d224d3332342e6114c08301527f31342037302e303861322e31313620322e3131362030203030312e35332e36336114e08301527f68342e3331632e32382030202e35372d2e30352e38332d2e3136732e352d2e326115008301527f372e372d2e343761322e31313620322e31313620302030302e36332d312e35336115208301527f762d342e333163302d2e32382e30352d2e35372e31362d2e3833732e32372d2e6115408301527f352e34372d2e3761322e31313620322e3131362030203031312e35332d2e36336115608301527f68342e3332632e32382030202e35372e30352e38332e3136732e352e32372e376115808301527f2e3437632e322e322e33362e34342e34372e372e31312e32362e31362e35352e6115a08301527f31362e38337632312e35376330202e32382d2e30352e35372d2e31362e3833736115c08301526115e08201527f35332e3633682d312e3236632d2e343220302d2e38342e31332d312e322e33366116008201527f2d2e33352e32342d2e36332e35372d2e37392e39372d2e31362e33392d2e322e6116208201527f38332d2e313120312e32342e30392e34322e332e382e3620312e316c372e37336116408201527f20372e3732632e322e322e34342e33372e372e343861322e31323420322e31326116608201527f342030203030322e33362d2e34386c372e37322d372e3732632e332d2e332e356116808201527f2d2e36392e35382d312e312e30382d2e34322e30342d2e38352d2e31322d312e6116a08201527f323461322e313220322e313220302030302d2e37392d2e3936632d2e33352d2e6116c08201527f32342d2e37372d2e33362d312e31392d2e3336682d312e3239632d2e323820306116e08201527f2d2e35372d2e30352d2e38332d2e3136732d2e352d2e32372d2e372d2e3437616117008201527f322e31313620322e31313620302030312d2e36332d312e35335635352e3663306117208201527f2d2e32382d2e30352d2e35372d2e31362d2e3833732d2e32372d2e352d2e34376117408201527f2d2e37632d2e322d2e322d2e34342d2e33362d2e372d2e34372d2e32362d2e316117608201527f312d2e35352d2e31362d2e38332d2e3136682d32312e3537632d2e323820302d6117808201527f2e35372e30352d2e38332e3136732d2e352e32372d2e372e343761322e3131366117a08201527f20322e31313620302030302d2e363320312e35337631322e39356330202e32386117c08201527f2e30352e35372e31362e3833732e32372e352e34372e377a222f3e3c746578746117e08201527f207472616e73666f726d3d227472616e736c6174652837332e363836203637296118008201527f2220636c6173733d227072656669785f5f737432207072656669785f5f7374326118208201526f1a10383932b334bc2fafb9ba191a911f60811b6118408201526000612ead612ea8612ea2612e9d612e97612e9261185088018b610806565b610ff8565b88610806565b610822565b85610806565b610901565b95945050505050565b605b60f81b81527f7b202274726169745f74797065223a2022537570706c696564204c697175696460018201527f697479222c2022646973706c61795f74797065223a20226e756d626572222c206021820152680113b30b63ab2911d160bd1b60418201528251600090612f3181604a8501602088016132bd565b7f7d2c7b202274726169745f74797065223a202253686172652050657263656e74604a918401918201526f30b3b2911610113b30b63ab2911d101160811b606a8201528351612f8781607a8401602088016132bd565b6325227d5d60e01b607a9290910191820152607e01949350505050565b60007f54686973204e465420726570726573656e747320796f757220706f736974696f82527f6e206173204c69717569646974792050726f7669646572206f6e20487970686560208301526b03710213934b233b29037b7160a51b6040830152825161301781604c8501602087016132bd565b7f2e20546f20766973697420746865206272696467652c207669736974205b4879604c9390910192830152507f7068656e5d2868747470733a2f2f68797068656e2e6269636f6e6f6d792e696f606c82015261149760f11b608c820152608e01919050565b6001600160a01b0391909116815260200190565b60006020825282518060208401526130af8160408501602087016132bd565b601f01601f19169190910160400192915050565b60208082526026908201527f4f776e61626c653a206e6577206f776e657220697320746865207a65726f206160408201526564647265737360d01b606082015260800190565b6020808252818101527f4f776e61626c653a2063616c6c6572206973206e6f7420746865206f776e6572604082015260600190565b90815260200190565b6000821982111561315a5761315a613333565b500190565b60008261316e5761316e613349565b500490565b80825b600180861161318557506131b0565b81870482111561319757613197613333565b808616156131a457918102915b9490941c938002613176565b94509492505050565b60006101f660001984846000826131d2575060016101f6565b816131df575060006101f6565b81600181146131f557600281146131ff5761322c565b60019150506101f6565b60ff84111561321057613210613333565b6001841b91508482111561322657613226613333565b506101f6565b5060208310610133831016604e8410600b841016171561325f575081810a8381111561325a5761325a613333565b6101f6565b61326c8484846001613173565b80860482111561327e5761327e613333565b02949350505050565b60008160001904831182151516156132a1576132a1613333565b500290565b6000828210156132b8576132b8613333565b500390565b60005b838110156132d85781810151838201526020016132c0565b838111156132e7576000848401525b50505050565b6000816132fc576132fc613333565b506000190190565b600060001982141561331857613318613333565b5060010190565b60008261332e5761332e613349565b500690565b634e487b7160e01b600052601160045260246000fd5b634e487b7160e01b600052601260045260246000fdfea2646970667358221220e696b96db048579270545d3c144cf960714acaa7a059bd4e035a1c35b6b85dc264736f6c63430008000033",
  "linkReferences": {},
  "deployedLinkReferences": {}
}