{
  "_format": "hh-sol-artifact-1",
  "contractName": "TokenManager",
  "sourceName": "contracts/hyphen/token/TokenManager.sol",
  "abi": [
    {
      "inputs": [
        {
          "internalType": "address",
          "name": "trustedForwarder",
          "type": "address"
        }
      ],
      "stateMutability": "nonpayable",
      "type": "constructor"
    },
    {
      "anonymous": false,
      "inputs": [
        {
          "indexed": true,
          "internalType": "address",
          "name": "tokenAddress",
          "type": "address"
        },
        {
          "indexed": true,
          "internalType": "uint256",
          "name": "equilibriumFee",
          "type": "uint256"
        },
        {
          "indexed": true,
          "internalType": "uint256",
          "name": "maxFee",
          "type": "uint256"
        }
      ],
      "name": "FeeChanged",
      "type": "event"
    },
    {
      "anonymous": false,
      "inputs": [
        {
          "indexed": true,
          "internalType": "address",
          "name": "previousOwner",
          "type": "address"
        },
        {
          "indexed": true,
          "internalType": "address",
          "name": "newOwner",
          "type": "address"
        }
      ],
      "name": "OwnershipTransferred",
      "type": "event"
    },
    {
      "anonymous": false,
      "inputs": [
        {
          "indexed": false,
          "internalType": "address",
          "name": "account",
          "type": "address"
        }
      ],
      "name": "Paused",
      "type": "event"
    },
    {
      "anonymous": false,
      "inputs": [
        {
          "indexed": false,
          "internalType": "address",
          "name": "account",
          "type": "address"
        }
      ],
      "name": "Unpaused",
      "type": "event"
    },
    {
      "inputs": [
        {
          "internalType": "address",
          "name": "tokenAddress",
          "type": "address"
        },
        {
          "internalType": "uint256",
          "name": "minCapLimit",
          "type": "uint256"
        },
        {
          "internalType": "uint256",
          "name": "maxCapLimit",
          "type": "uint256"
        },
        {
          "internalType": "uint256",
          "name": "equilibriumFee",
          "type": "uint256"
        },
        {
          "internalType": "uint256",
          "name": "maxFee",
          "type": "uint256"
        }
      ],
      "name": "addSupportedToken",
      "outputs": [],
      "stateMutability": "nonpayable",
      "type": "function"
    },
    {
      "inputs": [
        {
          "internalType": "address",
          "name": "tokenAddress",
          "type": "address"
        },
        {
          "internalType": "uint256",
          "name": "_equilibriumFee",
          "type": "uint256"
        },
        {
          "internalType": "uint256",
          "name": "_maxFee",
          "type": "uint256"
        }
      ],
      "name": "changeFee",
      "outputs": [],
      "stateMutability": "nonpayable",
      "type": "function"
    },
    {
      "inputs": [
        {
          "internalType": "uint256",
          "name": "",
          "type": "uint256"
        },
        {
          "internalType": "address",
          "name": "",
          "type": "address"
        }
      ],
      "name": "depositConfig",
      "outputs": [
        {
          "internalType": "uint256",
          "name": "min",
          "type": "uint256"
        },
        {
          "internalType": "uint256",
          "name": "max",
          "type": "uint256"
        }
      ],
      "stateMutability": "view",
      "type": "function"
    },
    {
      "inputs": [
        {
          "internalType": "uint256",
          "name": "toChainId",
          "type": "uint256"
        },
        {
          "internalType": "address",
          "name": "tokenAddress",
          "type": "address"
        }
      ],
      "name": "getDepositConfig",
      "outputs": [
        {
          "components": [
            {
              "internalType": "uint256",
              "name": "min",
              "type": "uint256"
            },
            {
              "internalType": "uint256",
              "name": "max",
              "type": "uint256"
            }
          ],
          "internalType": "struct ITokenManager.TokenConfig",
          "name": "",
          "type": "tuple"
        }
      ],
      "stateMutability": "view",
      "type": "function"
    },
    {
      "inputs": [
        {
          "internalType": "address",
          "name": "tokenAddress",
          "type": "address"
        }
      ],
      "name": "getEquilibriumFee",
      "outputs": [
        {
          "internalType": "uint256",
          "name": "",
          "type": "uint256"
        }
      ],
      "stateMutability": "view",
      "type": "function"
    },
    {
      "inputs": [
        {
          "internalType": "address",
          "name": "tokenAddress",
          "type": "address"
        }
      ],
      "name": "getMaxFee",
      "outputs": [
        {
          "internalType": "uint256",
          "name": "",
          "type": "uint256"
        }
      ],
      "stateMutability": "view",
      "type": "function"
    },
    {
      "inputs": [
        {
          "internalType": "address",
          "name": "tokenAddress",
          "type": "address"
        }
      ],
      "name": "getTokensInfo",
      "outputs": [
        {
          "components": [
            {
              "internalType": "uint256",
              "name": "transferOverhead",
              "type": "uint256"
            },
            {
              "internalType": "bool",
              "name": "supportedToken",
              "type": "bool"
            },
            {
              "internalType": "uint256",
              "name": "equilibriumFee",
              "type": "uint256"
            },
            {
              "internalType": "uint256",
              "name": "maxFee",
              "type": "uint256"
            },
            {
              "components": [
                {
                  "internalType": "uint256",
                  "name": "min",
                  "type": "uint256"
                },
                {
                  "internalType": "uint256",
                  "name": "max",
                  "type": "uint256"
                }
              ],
              "internalType": "struct ITokenManager.TokenConfig",
              "name": "tokenConfig",
              "type": "tuple"
            }
          ],
          "internalType": "struct ITokenManager.TokenInfo",
          "name": "",
          "type": "tuple"
        }
      ],
      "stateMutability": "view",
      "type": "function"
    },
    {
      "inputs": [
        {
          "internalType": "address",
          "name": "tokenAddress",
          "type": "address"
        }
      ],
      "name": "getTransferConfig",
      "outputs": [
        {
          "components": [
            {
              "internalType": "uint256",
              "name": "min",
              "type": "uint256"
            },
            {
              "internalType": "uint256",
              "name": "max",
              "type": "uint256"
            }
          ],
          "internalType": "struct ITokenManager.TokenConfig",
          "name": "",
          "type": "tuple"
        }
      ],
      "stateMutability": "view",
      "type": "function"
    },
    {
      "inputs": [
        {
          "internalType": "address",
          "name": "forwarder",
          "type": "address"
        }
      ],
      "name": "isTrustedForwarder",
      "outputs": [
        {
          "internalType": "bool",
          "name": "",
          "type": "bool"
        }
      ],
      "stateMutability": "view",
      "type": "function"
    },
    {
      "inputs": [],
      "name": "owner",
      "outputs": [
        {
          "internalType": "address",
          "name": "",
          "type": "address"
        }
      ],
      "stateMutability": "view",
      "type": "function"
    },
    {
      "inputs": [],
      "name": "paused",
      "outputs": [
        {
          "internalType": "bool",
          "name": "",
          "type": "bool"
        }
      ],
      "stateMutability": "view",
      "type": "function"
    },
    {
      "inputs": [
        {
          "internalType": "address",
          "name": "tokenAddress",
          "type": "address"
        }
      ],
      "name": "removeSupportedToken",
      "outputs": [],
      "stateMutability": "nonpayable",
      "type": "function"
    },
    {
      "inputs": [],
      "name": "renounceOwnership",
      "outputs": [],
      "stateMutability": "nonpayable",
      "type": "function"
    },
    {
      "inputs": [
        {
          "internalType": "uint256[]",
          "name": "toChainId",
          "type": "uint256[]"
        },
        {
          "internalType": "address[]",
          "name": "tokenAddresses",
          "type": "address[]"
        },
        {
          "components": [
            {
              "internalType": "uint256",
              "name": "min",
              "type": "uint256"
            },
            {
              "internalType": "uint256",
              "name": "max",
              "type": "uint256"
            }
          ],
          "internalType": "struct ITokenManager.TokenConfig[]",
          "name": "tokenConfig",
          "type": "tuple[]"
        }
      ],
      "name": "setDepositConfig",
      "outputs": [],
      "stateMutability": "nonpayable",
      "type": "function"
    },
    {
      "inputs": [
        {
          "internalType": "address",
          "name": "tokenAddress",
          "type": "address"
        },
        {
          "internalType": "uint256",
          "name": "gasOverhead",
          "type": "uint256"
        }
      ],
      "name": "setTokenTransferOverhead",
      "outputs": [],
      "stateMutability": "nonpayable",
      "type": "function"
    },
    {
      "inputs": [
        {
          "internalType": "address",
          "name": "",
          "type": "address"
        }
      ],
      "name": "tokensInfo",
      "outputs": [
        {
          "internalType": "uint256",
          "name": "transferOverhead",
          "type": "uint256"
        },
        {
          "internalType": "bool",
          "name": "supportedToken",
          "type": "bool"
        },
        {
          "internalType": "uint256",
          "name": "equilibriumFee",
          "type": "uint256"
        },
        {
          "internalType": "uint256",
          "name": "maxFee",
          "type": "uint256"
        },
        {
          "components": [
            {
              "internalType": "uint256",
              "name": "min",
              "type": "uint256"
            },
            {
              "internalType": "uint256",
              "name": "max",
              "type": "uint256"
            }
          ],
          "internalType": "struct ITokenManager.TokenConfig",
          "name": "tokenConfig",
          "type": "tuple"
        }
      ],
      "stateMutability": "view",
      "type": "function"
    },
    {
      "inputs": [
        {
          "internalType": "address",
          "name": "",
          "type": "address"
        }
      ],
      "name": "transferConfig",
      "outputs": [
        {
          "internalType": "uint256",
          "name": "min",
          "type": "uint256"
        },
        {
          "internalType": "uint256",
          "name": "max",
          "type": "uint256"
        }
      ],
      "stateMutability": "view",
      "type": "function"
    },
    {
      "inputs": [
        {
          "internalType": "address",
          "name": "newOwner",
          "type": "address"
        }
      ],
      "name": "transferOwnership",
      "outputs": [],
      "stateMutability": "nonpayable",
      "type": "function"
    },
    {
      "inputs": [
        {
          "internalType": "address",
          "name": "tokenAddress",
          "type": "address"
        },
        {
          "internalType": "uint256",
          "name": "minCapLimit",
          "type": "uint256"
        },
        {
          "internalType": "uint256",
          "name": "maxCapLimit",
          "type": "uint256"
        }
      ],
      "name": "updateTokenCap",
      "outputs": [],
      "stateMutability": "nonpayable",
      "type": "function"
    }
  ],
  "bytecode": "0x60806040523480156200001157600080fd5b50604051620014863803806200148683398101604081905262000034916200013e565b600080546001600160a01b0319166001600160a01b038316179055620000636200005d62000077565b62000094565b506001805460ff60a01b191690556200016e565b60006200008e620000e660201b62000bcc1760201c565b90505b90565b600180546001600160a01b038381166001600160a01b0319831681179093556040519116919082907f8be0079c531659141344cd1fd0a4f28419497f9722a3daafe3b4186f6b6457e090600090a35050565b6000620000f33362000126565b1562000109575060131936013560601c62000091565b6200011e6200013a60201b62000bfa1760201c565b905062000091565b6000546001600160a01b0390811691161490565b3390565b60006020828403121562000150578081fd5b81516001600160a01b038116811462000167578182fd5b9392505050565b611308806200017e6000396000f3fe608060405234801561001057600080fd5b50600436106101215760003560e01c806385dc3013116100ad578063b5ec999911610071578063b5ec99991461025c578063ba8dbea21461026f578063c0e4d62714610293578063f2fde38b146102a6578063fa5e2abc146102b957610121565b806385dc3013146101ed5780638b56d0b7146102005780638da5cb5b14610213578063a53a225f14610228578063ab8825671461024957610121565b8063572b6c05116100f4578063572b6c051461018a5780635c975abb146101aa57806360f5dfda146101b2578063715018a6146101d257806376319190146101da57610121565b8063128161a8146101265780632feb4d541461014f5780633d3ebe531461016457806356e3866d14610177575b600080fd5b610139610134366004610dde565b6102d9565b60405161014691906111a9565b60405180910390f35b61016261015d366004610e9b565b610318565b005b610162610172366004610e5a565b61051f565b610162610185366004610e28565b6105fe565b61019d610198366004610dde565b6106e1565b6040516101469190610fc3565b61019d6106f5565b6101c56101c0366004610dde565b610706565b60405161014691906111fc565b610162610724565b6101626101e8366004610dde565b61076f565b6101c56101fb366004610dde565b610835565b61016261020e366004610dff565b610854565b61021b610912565b6040516101469190610faf565b61023b610236366004610dde565b610921565b604051610146929190611239565b61023b610257366004610f75565b61093a565b61016261026a366004610e28565b61095e565b61028261027d366004610dde565b610a55565b604051610146959493929190611205565b6101396102a1366004610f75565b610a9d565b6101626102b4366004610dde565b610ae4565b6102cc6102c7366004610dde565b610b55565b60405161014691906111b7565b6102e1610c5f565b506001600160a01b03811660009081526004602090815260409182902082518084019093528054835260010154908201525b919050565b610320610bfe565b6001600160a01b0316610331610912565b6001600160a01b0316146103605760405162461bcd60e51b815260040161035790611147565b60405180910390fd5b81518351148015610372575080518251145b61038e5760405162461bcd60e51b815260040161035790611078565b60005b8151811015610519578181815181106103ba57634e487b7160e01b600052603260045260246000fd5b602002602001015160000151600360008684815181106103ea57634e487b7160e01b600052603260045260246000fd5b60200260200101518152602001908152602001600020600085848151811061042257634e487b7160e01b600052603260045260246000fd5b60200260200101516001600160a01b03166001600160a01b031681526020019081526020016000206000018190555081818151811061047157634e487b7160e01b600052603260045260246000fd5b602002602001015160200151600360008684815181106104a157634e487b7160e01b600052603260045260246000fd5b6020026020010151815260200190815260200160002060008584815181106104d957634e487b7160e01b600052603260045260246000fd5b60200260200101516001600160a01b03166001600160a01b03168152602001908152602001600020600101819055508061051290611295565b9050610391565b50505050565b610527610bfe565b6001600160a01b0316610538610912565b6001600160a01b03161461055e5760405162461bcd60e51b815260040161035790611147565b6001600160a01b0385166105845760405162461bcd60e51b815260040161035790611014565b8383116105a35760405162461bcd60e51b8152600401610357906110af565b6001600160a01b0390941660009081526002602081815260408084206001818101805460ff19168217905560048085529290952088815590940195865590829052820194909455915460058301559181019190915560030155565b826001600160a01b0381166106255760405162461bcd60e51b815260040161035790611014565b6001600160a01b03811660009081526002602052604090206001015460ff166106605760405162461bcd60e51b81526004016103579061117c565b610668610bfe565b6001600160a01b0316610679610912565b6001600160a01b03161461069f5760405162461bcd60e51b815260040161035790611147565b8282116106be5760405162461bcd60e51b8152600401610357906110af565b506001600160a01b03909216600090815260046020526040902090815560010155565b6000546001600160a01b0390811691161490565b600154600160a01b900460ff165b90565b6001600160a01b031660009081526002602052604090206003015490565b61072c610bfe565b6001600160a01b031661073d610912565b6001600160a01b0316146107635760405162461bcd60e51b815260040161035790611147565b61076d6000610c0d565b565b806001600160a01b0381166107965760405162461bcd60e51b815260040161035790611014565b6001600160a01b03811660009081526002602052604090206001015460ff166107d15760405162461bcd60e51b81526004016103579061117c565b6107d9610bfe565b6001600160a01b03166107ea610912565b6001600160a01b0316146108105760405162461bcd60e51b815260040161035790611147565b506001600160a01b03166000908152600260205260409020600101805460ff19169055565b6001600160a01b03166000908152600260208190526040909120015490565b816001600160a01b03811661087b5760405162461bcd60e51b815260040161035790611014565b6001600160a01b03811660009081526002602052604090206001015460ff166108b65760405162461bcd60e51b81526004016103579061117c565b6108be610bfe565b6001600160a01b03166108cf610912565b6001600160a01b0316146108f55760405162461bcd60e51b815260040161035790611147565b506001600160a01b03909116600090815260026020526040902055565b6001546001600160a01b031690565b6004602052600090815260409020805460019091015482565b60036020908152600092835260408084209091529082529020805460019091015482565b610966610bfe565b6001600160a01b0316610977610912565b6001600160a01b03161461099d5760405162461bcd60e51b815260040161035790611147565b6109a56106f5565b156109c25760405162461bcd60e51b81526004016103579061111d565b816109df5760405162461bcd60e51b8152600401610357906110e6565b806109fc5760405162461bcd60e51b81526004016103579061104b565b6001600160a01b03831660008181526002602081905260408083209182018690556003909101849055518392859290917ff98c81ad0a5eb3551c3561de8dc9d1512e8680fb77425ea138ebfe9a9c0065ff9190a4505050565b60026020818152600092835260409283902080546001820154938201546003830154865180880190975260048401548752600590930154938601939093529360ff9093169285565b610aa5610c5f565b5060008281526003602090815260408083206001600160a01b038516845282529182902082518084019093528054835260010154908201525b92915050565b610aec610bfe565b6001600160a01b0316610afd610912565b6001600160a01b031614610b235760405162461bcd60e51b815260040161035790611147565b6001600160a01b038116610b495760405162461bcd60e51b815260040161035790610fce565b610b5281610c0d565b50565b610b5d610c79565b506040805160a0810182526001600160a01b03929092166000818152600260208181528483208054875260018082015460ff1615158389015292810154878701526003015460608701529282526004835290839020835180850190945280548452015490820152608082015290565b6000610bd7336106e1565b15610beb575060131936013560601c610703565b610bf3610bfa565b9050610703565b3390565b6000610c08610bcc565b905090565b600180546001600160a01b038381166001600160a01b0319831681179093556040519116919082907f8be0079c531659141344cd1fd0a4f28419497f9722a3daafe3b4186f6b6457e090600090a35050565b604051806040016040528060008152602001600081525090565b6040518060a00160405280600081526020016000151581526020016000815260200160008152602001610caa610c5f565b905290565b80356001600160a01b038116811461031357600080fd5b600082601f830112610cd6578081fd5b81356020610ceb610ce683611271565b611247565b8281528181019085830183850287018401881015610d07578586fd5b855b85811015610d2c57610d1a82610caf565b84529284019290840190600101610d09565b5090979650505050505050565b600082601f830112610d49578081fd5b81356020610d59610ce683611271565b82815281810190858301604080860288018501891015610d77578687fd5b865b86811015610dd05781838b031215610d8f578788fd5b815182810181811067ffffffffffffffff82111715610db057610db06112bc565b835283358152868401358782015285529385019391810191600101610d79565b509198975050505050505050565b600060208284031215610def578081fd5b610df882610caf565b9392505050565b60008060408385031215610e11578081fd5b610e1a83610caf565b946020939093013593505050565b600080600060608486031215610e3c578081fd5b610e4584610caf565b95602085013595506040909401359392505050565b600080600080600060a08688031215610e71578081fd5b610e7a86610caf565b97602087013597506040870135966060810135965060800135945092505050565b600080600060608486031215610eaf578283fd5b833567ffffffffffffffff80821115610ec6578485fd5b818601915086601f830112610ed9578485fd5b81356020610ee9610ce683611271565b82815281810190858301838502870184018c1015610f0557898afd5b8996505b84871015610f27578035835260019690960195918301918301610f09565b5097505087013592505080821115610f3d578384fd5b610f4987838801610cc6565b93506040860135915080821115610f5e578283fd5b50610f6b86828701610d39565b9150509250925092565b60008060408385031215610f87578182fd5b82359150610f9760208401610caf565b90509250929050565b80518252602090810151910152565b6001600160a01b0391909116815260200190565b901515815260200190565b60208082526026908201527f4f776e61626c653a206e6577206f776e657220697320746865207a65726f206160408201526564647265737360d01b606082015260800190565b60208082526019908201527f546f6b656e20616464726573732063616e6e6f74206265203000000000000000604082015260600190565b60208082526013908201527204d6178204665652063616e6e6f74206265203606c1b604082015260600190565b6020808252601a908201527f204552525f41525241595f4c454e4754485f4d49534d41544348000000000000604082015260600190565b60208082526019908201527f6d61784361704c696d6974203e206d696e4361704c696d697400000000000000604082015260600190565b6020808252601b908201527f457175696c69627269756d204665652063616e6e6f7420626520300000000000604082015260600190565b60208082526010908201526f14185d5cd8589b194e881c185d5cd95960821b604082015260600190565b6020808252818101527f4f776e61626c653a2063616c6c6572206973206e6f7420746865206f776e6572604082015260600190565b602080825260139082015272151bdad95b881b9bdd081cdd5c1c1bdc9d1959606a1b604082015260600190565b60408101610ade8284610fa0565b600060c08201905082518252602083015115156020830152604083015160408301526060830151606083015260808301516111f56080840182610fa0565b5092915050565b90815260200190565b8581528415156020820152604081018490526060810183905260c0810161122f6080830184610fa0565b9695505050505050565b918252602082015260400190565b60405181810167ffffffffffffffff81118282101715611269576112696112bc565b604052919050565b600067ffffffffffffffff82111561128b5761128b6112bc565b5060209081020190565b60006000198214156112b557634e487b7160e01b81526011600452602481fd5b5060010190565b634e487b7160e01b600052604160045260246000fdfea2646970667358221220dfc79739bec4f324df88dbb775d48269a10ce94773e37801f6a6b372e2d870f464736f6c63430008000033",
  "linkReferences": {},
  "deployedLinkReferences": {}
}