{"abi":[{"type":"constructor","inputs":[{"name":"_verification","type":"address","internalType":"address"}],"stateMutability":"nonpayable"},{"type":"function","name":"VERIFICATION","inputs":[],"outputs":[{"name":"","type":"address","internalType":"contract IVerification"}],"stateMutability":"view"},{"type":"function","name":"blackListDigest","inputs":[{"name":"_hash","type":"bytes32","internalType":"bytes32"}],"outputs":[],"stateMutability":"nonpayable"},{"type":"function","name":"initialize","inputs":[{"name":"_admin","type":"address","internalType":"address"},{"name":"_signerAddress","type":"address","internalType":"address"},{"name":"_signValidity","type":"uint256","internalType":"uint256"},{"name":"_name","type":"string","internalType":"string"},{"name":"_version","type":"string","internalType":"string"}],"outputs":[],"stateMutability":"nonpayable"},{"type":"function","name":"owner","inputs":[],"outputs":[{"name":"","type":"address","internalType":"address"}],"stateMutability":"view"},{"type":"function","name":"registerSelf","inputs":[{"name":"_isMasterLinked","type":"bool","internalType":"bool"},{"name":"_v","type":"uint8","internalType":"uint8"},{"name":"_r","type":"bytes32","internalType":"bytes32"},{"name":"_s","type":"bytes32","internalType":"bytes32"},{"name":"_twitterId","type":"string","internalType":"string"},{"name":"_tweetId","type":"string","internalType":"string"},{"name":"_timestamp","type":"uint256","internalType":"uint256"}],"outputs":[],"stateMutability":"nonpayable"},{"type":"function","name":"renounceOwnership","inputs":[],"outputs":[],"stateMutability":"nonpayable"},{"type":"function","name":"signValidity","inputs":[],"outputs":[{"name":"","type":"uint256","internalType":"uint256"}],"stateMutability":"view"},{"type":"function","name":"signerAddress","inputs":[],"outputs":[{"name":"","type":"address","internalType":"address"}],"stateMutability":"view"},{"type":"function","name":"transferOwnership","inputs":[{"name":"newOwner","type":"address","internalType":"address"}],"outputs":[],"stateMutability":"nonpayable"},{"type":"function","name":"twitterIdMap","inputs":[{"name":"","type":"string","internalType":"string"}],"outputs":[{"name":"","type":"address","internalType":"address"}],"stateMutability":"view"},{"type":"function","name":"unregisterSelf","inputs":[],"outputs":[],"stateMutability":"nonpayable"},{"type":"function","name":"unregisterUser","inputs":[{"name":"_user","type":"address","internalType":"address"}],"outputs":[],"stateMutability":"nonpayable"},{"type":"function","name":"updateSignValidity","inputs":[{"name":"_signValidity","type":"uint256","internalType":"uint256"}],"outputs":[],"stateMutability":"nonpayable"},{"type":"function","name":"updateSignerAddress","inputs":[{"name":"_signerAddress","type":"address","internalType":"address"}],"outputs":[],"stateMutability":"nonpayable"},{"type":"function","name":"usedTweetIds","inputs":[{"name":"","type":"string","internalType":"string"}],"outputs":[{"name":"","type":"address","internalType":"address"}],"stateMutability":"view"},{"type":"function","name":"userData","inputs":[{"name":"","type":"address","internalType":"address"}],"outputs":[{"name":"twitterId","type":"string","internalType":"string"},{"name":"tweetId","type":"string","internalType":"string"}],"stateMutability":"view"},{"type":"event","name":"OwnershipTransferred","inputs":[{"name":"previousOwner","type":"address","indexed":true,"internalType":"address"},{"name":"newOwner","type":"address","indexed":true,"internalType":"address"}],"anonymous":false},{"type":"event","name":"SignValidityUpdated","inputs":[{"name":"signValidity","type":"uint256","indexed":false,"internalType":"uint256"}],"anonymous":false},{"type":"event","name":"SignerUpdated","inputs":[{"name":"signerAddress","type":"address","indexed":true,"internalType":"address"}],"anonymous":false},{"type":"event","name":"UserRegistered","inputs":[{"name":"user","type":"address","indexed":true,"internalType":"address"},{"name":"isMasterLinked","type":"bool","indexed":false,"internalType":"bool"},{"name":"metadata","type":"string","indexed":true,"internalType":"string"}],"anonymous":false},{"type":"event","name":"UserUnregistered","inputs":[{"name":"user","type":"address","indexed":true,"internalType":"address"}],"anonymous":false}],"bytecode":{"object":"0x60a060405234801561001057600080fd5b5060405161320c38038061320c8339818101604052602081101561003357600080fd5b8101908080519060200190929190505050600073ffffffffffffffffffffffffffffffffffffffff168173ffffffffffffffffffffffffffffffffffffffff1614156100e7576040517f08c379a00000000000000000000000000000000000000000000000000000000081526004018080602001828103825260028152602001807f433100000000000000000000000000000000000000000000000000000000000081525060200191505060405180910390fd5b8073ffffffffffffffffffffffffffffffffffffffff1660808173ffffffffffffffffffffffffffffffffffffffff1660601b815250505060805160601c6130c661014660003980610dd652806118db52806121a952506130c66000f3fe608060405234801561001057600080fd5b50600436106101005760003560e01c8063791ae748116100975780639ab8367e116100665780639ab8367e14610481578063c89109131461061d578063da0e273a14610746578063f2fde38b146108cf57610100565b8063791ae748146103b75780637b7fc8d8146103eb5780638da5cb5b146104095780638fa2a9f01461043d57610100565b806343dee248116100d357806343dee2481461028a5780635b7633d01461036f5780636bafaa59146103a3578063715018a6146103ad57610100565b806301ae96a814610105578063139b20111461013357806321f2ca3b1461021857806324ac78e41461025c575b600080fd5b6101316004803603602081101561011b57600080fd5b8101908080359060200190929190505050610913565b005b6101ec6004803603602081101561014957600080fd5b810190808035906020019064010000000081111561016657600080fd5b82018360208201111561017857600080fd5b8035906020019184600183028401116401000000008311171561019a57600080fd5b91908080601f016020809104026020016040519081016040528093929190818152602001838380828437600081840152601f19601f820116905080830192505050505050509192919290505050610a2b565b604051808273ffffffffffffffffffffffffffffffffffffffff16815260200191505060405180910390f35b61025a6004803603602081101561022e57600080fd5b81019080803573ffffffffffffffffffffffffffffffffffffffff169060200190929190505050610a74565b005b6102886004803603602081101561027257600080fd5b8101908080359060200190929190505050610b2f565b005b610343600480360360208110156102a057600080fd5b81019080803590602001906401000000008111156102bd57600080fd5b8201836020820111156102cf57600080fd5b803590602001918460018302840111640100000000831117156102f157600080fd5b91908080601f016020809104026020016040519081016040528093929190818152602001838380828437600081840152601f19601f820116905080830192505050505050509192919290505050610bea565b604051808273ffffffffffffffffffffffffffffffffffffffff16815260200191505060405180910390f35b610377610c33565b604051808273ffffffffffffffffffffffffffffffffffffffff16815260200191505060405180910390f35b6103ab610c59565b005b6103b5610c64565b005b6103bf610dd4565b604051808273ffffffffffffffffffffffffffffffffffffffff16815260200191505060405180910390f35b6103f3610df8565b6040518082815260200191505060405180910390f35b610411610dfe565b604051808273ffffffffffffffffffffffffffffffffffffffff16815260200191505060405180910390f35b61047f6004803603602081101561045357600080fd5b81019080803573ffffffffffffffffffffffffffffffffffffffff169060200190929190505050610e28565b005b61061b600480360360a081101561049757600080fd5b81019080803573ffffffffffffffffffffffffffffffffffffffff169060200190929190803573ffffffffffffffffffffffffffffffffffffffff16906020019092919080359060200190929190803590602001906401000000008111156104fe57600080fd5b82018360208201111561051057600080fd5b8035906020019184600183028401116401000000008311171561053257600080fd5b91908080601f016020809104026020016040519081016040528093929190818152602001838380828437600081840152601f19601f8201169050808301925050505050505091929192908035906020019064010000000081111561059557600080fd5b8201836020820111156105a757600080fd5b803590602001918460018302840111640100000000831117156105c957600080fd5b91908080601f016020809104026020016040519081016040528093929190818152602001838380828437600081840152601f19601f820116905080830192505050505050509192919290505050610ee3565b005b61065f6004803603602081101561063357600080fd5b81019080803573ffffffffffffffffffffffffffffffffffffffff169060200190929190505050611013565b604051808060200180602001838103835285818151815260200191508051906020019080838360005b838110156106a3578082015181840152602081019050610688565b50505050905090810190601f1680156106d05780820380516001836020036101000a031916815260200191505b50838103825284818151815260200191508051906020019080838360005b838110156107095780820151818401526020810190506106ee565b50505050905090810190601f1680156107365780820380516001836020036101000a031916815260200191505b5094505050505060405180910390f35b6108cd600480360360e081101561075c57600080fd5b81019080803515159060200190929190803560ff1690602001909291908035906020019092919080359060200190929190803590602001906401000000008111156107a657600080fd5b8201836020820111156107b857600080fd5b803590602001918460018302840111640100000000831117156107da57600080fd5b91908080601f016020809104026020016040519081016040528093929190818152602001838380828437600081840152601f19601f8201169050808301925050505050505091929192908035906020019064010000000081111561083d57600080fd5b82018360208201111561084f57600080fd5b8035906020019184600183028401116401000000008311171561087157600080fd5b91908080601f016020809104026020016040519081016040528093929190818152602001838380828437600081840152601f19601f82011690508083019250505050505050919291929080359060200190929190505050611167565b005b610911600480360360208110156108e557600080fd5b81019080803573ffffffffffffffffffffffffffffffffffffffff169060200190929190505050611d65565b005b61091b611f5a565b73ffffffffffffffffffffffffffffffffffffffff16610939610dfe565b73ffffffffffffffffffffffffffffffffffffffff16146109c2576040517f08c379a00000000000000000000000000000000000000000000000000000000081526004018080602001828103825260208152602001807f4f776e61626c653a2063616c6c6572206973206e6f7420746865206f776e657281525060200191505060405180910390fd5b73ffffffffffffffffffffffffffffffffffffffff609c600083815260200190815260200160002060006101000a81548173ffffffffffffffffffffffffffffffffffffffff021916908373ffffffffffffffffffffffffffffffffffffffff16021790555050565b609a818051602081018201805184825260208301602085012081835280955050505050506000915054906101000a900473ffffffffffffffffffffffffffffffffffffffff1681565b610a7c611f5a565b73ffffffffffffffffffffffffffffffffffffffff16610a9a610dfe565b73ffffffffffffffffffffffffffffffffffffffff1614610b23576040517f08c379a00000000000000000000000000000000000000000000000000000000081526004018080602001828103825260208152602001807f4f776e61626c653a2063616c6c6572206973206e6f7420746865206f776e657281525060200191505060405180910390fd5b610b2c81611f62565b50565b610b37611f5a565b73ffffffffffffffffffffffffffffffffffffffff16610b55610dfe565b73ffffffffffffffffffffffffffffffffffffffff1614610bde576040517f08c379a00000000000000000000000000000000000000000000000000000000081526004018080602001828103825260208152602001807f4f776e61626c653a2063616c6c6572206973206e6f7420746865206f776e657281525060200191505060405180910390fd5b610be7816122ad565b50565b609b818051602081018201805184825260208301602085012081835280955050505050506000915054906101000a900473ffffffffffffffffffffffffffffffffffffffff1681565b609d60009054906101000a900473ffffffffffffffffffffffffffffffffffffffff1681565b610c6233611f62565b565b610c6c611f5a565b73ffffffffffffffffffffffffffffffffffffffff16610c8a610dfe565b73ffffffffffffffffffffffffffffffffffffffff1614610d13576040517f08c379a00000000000000000000000000000000000000000000000000000000081526004018080602001828103825260208152602001807f4f776e61626c653a2063616c6c6572206973206e6f7420746865206f776e657281525060200191505060405180910390fd5b600073ffffffffffffffffffffffffffffffffffffffff16603360009054906101000a900473ffffffffffffffffffffffffffffffffffffffff1673ffffffffffffffffffffffffffffffffffffffff167f8be0079c531659141344cd1fd0a4f28419497f9722a3daafe3b4186f6b6457e060405160405180910390a36000603360006101000a81548173ffffffffffffffffffffffffffffffffffffffff021916908373ffffffffffffffffffffffffffffffffffffffff160217905550565b7f000000000000000000000000000000000000000000000000000000000000000081565b609e5481565b6000603360009054906101000a900473ffffffffffffffffffffffffffffffffffffffff16905090565b610e30611f5a565b73ffffffffffffffffffffffffffffffffffffffff16610e4e610dfe565b73ffffffffffffffffffffffffffffffffffffffff1614610ed7576040517f08c379a00000000000000000000000000000000000000000000000000000000081526004018080602001828103825260208152602001807f4f776e61626c653a2063616c6c6572206973206e6f7420746865206f776e657281525060200191505060405180910390fd5b610ee0816123dd565b50565b600060019054906101000a900460ff1680610f025750610f016125cb565b5b80610f18575060008054906101000a900460ff16155b610f6d576040517f08c379a000000000000000000000000000000000000000000000000000000000815260040180806020018281038252602e815260200180613041602e913960400191505060405180910390fd5b60008060019054906101000a900460ff161590508015610fbd576001600060016101000a81548160ff02191690831515021790555060016000806101000a81548160ff0219169083151502179055505b610fc56125dc565b610fce86611d65565b610fd7856123dd565b610fe0846122ad565b610fea83836126ea565b801561100b5760008060016101000a81548160ff0219169083151502179055505b505050505050565b6099602052806000526040600020600091509050806000018054600181600116156101000203166002900480601f0160208091040260200160405190810160405280929190818152602001828054600181600116156101000203166002900480156110bf5780601f10611094576101008083540402835291602001916110bf565b820191906000526020600020905b8154815290600101906020018083116110a257829003601f168201915b505050505090806001018054600181600116156101000203166002900480601f01602080910402602001604051908101604052809291908181526020018280546001816001161561010002031660029004801561115d5780601f106111325761010080835404028352916020019161115d565b820191906000526020600020905b81548152906001019060200180831161114057829003601f168201915b5050505050905082565b6000609960003373ffffffffffffffffffffffffffffffffffffffff1673ffffffffffffffffffffffffffffffffffffffff16815260200190815260200160002060000180546001816001161561010002031660029004905014611233576040517f08c379a00000000000000000000000000000000000000000000000000000000081526004018080602001828103825260068152602001807f54563a525331000000000000000000000000000000000000000000000000000081525060200191505060405180910390fd5b600073ffffffffffffffffffffffffffffffffffffffff16609a846040518082805190602001908083835b60208310611281578051825260208201915060208101905060208303925061125e565b6001836020036101000a038019825116818451168082178552505050505050905001915050908152602001604051809103902060009054906101000a900473ffffffffffffffffffffffffffffffffffffffff1673ffffffffffffffffffffffffffffffffffffffff161461135e576040517f08c379a00000000000000000000000000000000000000000000000000000000081526004018080602001828103825260068152602001807f54563a525332000000000000000000000000000000000000000000000000000081525060200191505060405180910390fd5b6000835114156113d6576040517f08c379a00000000000000000000000000000000000000000000000000000000081526004018080602001828103825260068152602001807f54563a525339000000000000000000000000000000000000000000000000000081525060200191505060405180910390fd5b60008251141561144e576040517f08c379a00000000000000000000000000000000000000000000000000000000081526004018080602001828103825260068152602001807f54563a525338000000000000000000000000000000000000000000000000000081525060200191505060405180910390fd5b600073ffffffffffffffffffffffffffffffffffffffff16609b836040518082805190602001908083835b6020831061149c5780518252602082019150602081019050602083039250611479565b6001836020036101000a038019825116818451168082178552505050505050905001915050908152602001604051809103902060009054906101000a900473ffffffffffffffffffffffffffffffffffffffff1673ffffffffffffffffffffffffffffffffffffffff1614611579576040517f08c379a00000000000000000000000000000000000000000000000000000000081526004018080602001828103825260068152602001807f54563a525333000000000000000000000000000000000000000000000000000081525060200191505060405180910390fd5b609e54810142106115f2576040517f08c379a00000000000000000000000000000000000000000000000000000000081526004018080602001828103825260068152602001807f54563a525334000000000000000000000000000000000000000000000000000081525060200191505060405180910390fd5b60007f56ef4bbda8dd528d0295470092109d15b58bf7d66c01d8fb2955b8cd4a6361cd848051906020012084805190602001203385604051602001808681526020018581526020018481526020018373ffffffffffffffffffffffffffffffffffffffff16815260200182815260200195505050505050604051602081830303815290604052805190602001209050600073ffffffffffffffffffffffffffffffffffffffff16609c600083815260200190815260200160002060009054906101000a900473ffffffffffffffffffffffffffffffffffffffff1673ffffffffffffffffffffffffffffffffffffffff1614611756576040517f08c379a00000000000000000000000000000000000000000000000000000000081526004018080602001828103825260068152602001807f54563a525335000000000000000000000000000000000000000000000000000081525060200191505060405180910390fd5b6000611761826127f4565b90506000611771828a8a8a61285b565b9050600073ffffffffffffffffffffffffffffffffffffffff168173ffffffffffffffffffffffffffffffffffffffff161415611816576040517f08c379a00000000000000000000000000000000000000000000000000000000081526004018080602001828103825260068152602001807f54563a525336000000000000000000000000000000000000000000000000000081525060200191505060405180910390fd5b609d60009054906101000a900473ffffffffffffffffffffffffffffffffffffffff1673ffffffffffffffffffffffffffffffffffffffff168173ffffffffffffffffffffffffffffffffffffffff16146118d9576040517f08c379a00000000000000000000000000000000000000000000000000000000081526004018080602001828103825260068152602001807f54563a525337000000000000000000000000000000000000000000000000000081525060200191505060405180910390fd5b7f000000000000000000000000000000000000000000000000000000000000000073ffffffffffffffffffffffffffffffffffffffff1663a94413a1338c6040518363ffffffff1660e01b8152600401808373ffffffffffffffffffffffffffffffffffffffff168152602001821515815260200192505050600060405180830381600087803b15801561196c57600080fd5b505af1158015611980573d6000803e3d6000fd5b50505050604051806040016040528087815260200186815250609960003373ffffffffffffffffffffffffffffffffffffffff1673ffffffffffffffffffffffffffffffffffffffff16815260200190815260200160002060008201518160000190805190602001906119f4929190612f05565b506020820151816001019080519060200190611a11929190612f05565b5090505033609a876040518082805190602001908083835b60208310611a4c5780518252602082019150602081019050602083039250611a29565b6001836020036101000a038019825116818451168082178552505050505050905001915050908152602001604051809103902060006101000a81548173ffffffffffffffffffffffffffffffffffffffff021916908373ffffffffffffffffffffffffffffffffffffffff16021790555033609b866040518082805190602001908083835b60208310611af45780518252602082019150602081019050602083039250611ad1565b6001836020036101000a038019825116818451168082178552505050505050905001915050908152602001604051809103902060006101000a81548173ffffffffffffffffffffffffffffffffffffffff021916908373ffffffffffffffffffffffffffffffffffffffff16021790555033609c600085815260200190815260200160002060006101000a81548173ffffffffffffffffffffffffffffffffffffffff021916908373ffffffffffffffffffffffffffffffffffffffff1602179055508585604051602001808060200180602001838103835285818151815260200191508051906020019080838360005b83811015611c00578082015181840152602081019050611be5565b50505050905090810190601f168015611c2d5780820380516001836020036101000a031916815260200191505b50838103825284818151815260200191508051906020019080838360005b83811015611c66578082015181840152602081019050611c4b565b50505050905090810190601f168015611c935780820380516001836020036101000a031916815260200191505b509450505050506040516020818303038152906040526040518082805190602001908083835b60208310611cdc5780518252602082019150602081019050602083039250611cb9565b6001836020036101000a03801982511681845116808217855250505050505090500191505060405180910390203373ffffffffffffffffffffffffffffffffffffffff167fd0cc6197d4f74413f62e2cef7b4b43536e1965d8f11dcbf4c376ec1e85d2b22e8c60405180821515815260200191505060405180910390a350505050505050505050565b611d6d611f5a565b73ffffffffffffffffffffffffffffffffffffffff16611d8b610dfe565b73ffffffffffffffffffffffffffffffffffffffff1614611e14576040517f08c379a00000000000000000000000000000000000000000000000000000000081526004018080602001828103825260208152602001807f4f776e61626c653a2063616c6c6572206973206e6f7420746865206f776e657281525060200191505060405180910390fd5b600073ffffffffffffffffffffffffffffffffffffffff168173ffffffffffffffffffffffffffffffffffffffff161415611e9a576040517f08c379a0000000000000000000000000000000000000000000000000000000008152600401808060200182810382526026815260200180612ff96026913960400191505060405180910390fd5b8073ffffffffffffffffffffffffffffffffffffffff16603360009054906101000a900473ffffffffffffffffffffffffffffffffffffffff1673ffffffffffffffffffffffffffffffffffffffff167f8be0079c531659141344cd1fd0a4f28419497f9722a3daafe3b4186f6b6457e060405160405180910390a380603360006101000a81548173ffffffffffffffffffffffffffffffffffffffff021916908373ffffffffffffffffffffffffffffffffffffffff16021790555050565b600033905090565b6000609960008373ffffffffffffffffffffffffffffffffffffffff1673ffffffffffffffffffffffffffffffffffffffff1681526020019081526020016000206000018054600181600116156101000203166002900480601f01602080910402602001604051908101604052809291908181526020018280546001816001161561010002031660029004801561203a5780601f1061200f5761010080835404028352916020019161203a565b820191906000526020600020905b81548152906001019060200180831161201d57829003601f168201915b505050505090506000815114156120b9576040517f08c379a00000000000000000000000000000000000000000000000000000000081526004018080602001828103825260078152602001807f54563a495555310000000000000000000000000000000000000000000000000081525060200191505060405180910390fd5b609a816040518082805190602001908083835b602083106120ef57805182526020820191506020810190506020830392506120cc565b6001836020036101000a038019825116818451168082178552505050505050905001915050908152602001604051809103902060006101000a81549073ffffffffffffffffffffffffffffffffffffffff0219169055609960008373ffffffffffffffffffffffffffffffffffffffff1673ffffffffffffffffffffffffffffffffffffffff168152602001908152602001600020600080820160006121959190612f93565b6001820160006121a59190612f93565b50507f000000000000000000000000000000000000000000000000000000000000000073ffffffffffffffffffffffffffffffffffffffff1663b4d59d0e83306040518363ffffffff1660e01b8152600401808373ffffffffffffffffffffffffffffffffffffffff1681526020018273ffffffffffffffffffffffffffffffffffffffff16815260200192505050600060405180830381600087803b15801561224e57600080fd5b505af1158015612262573d6000803e3d6000fd5b505050508173ffffffffffffffffffffffffffffffffffffffff167f69c4cef1aa574ae7852ac8b784ab60926951c604b70049150e4091759ea9807660405160405180910390a25050565b609e54811415612325576040517f08c379a00000000000000000000000000000000000000000000000000000000081526004018080602001828103825260088152602001807f54563a495553563100000000000000000000000000000000000000000000000081525060200191505060405180910390fd5b600081141561239c576040517f08c379a00000000000000000000000000000000000000000000000000000000081526004018080602001828103825260088152602001807f54563a495553563200000000000000000000000000000000000000000000000081525060200191505060405180910390fd5b80609e819055507f8fc02a08798c9dfd0b1b4c233ed232f962a7f2cc039ca1ce1ff28cb1e7fa2449816040518082815260200191505060405180910390a150565b609d60009054906101000a900473ffffffffffffffffffffffffffffffffffffffff1673ffffffffffffffffffffffffffffffffffffffff168173ffffffffffffffffffffffffffffffffffffffff1614156124a1576040517f08c379a00000000000000000000000000000000000000000000000000000000081526004018080602001828103825260088152602001807f54563a495553413100000000000000000000000000000000000000000000000081525060200191505060405180910390fd5b600073ffffffffffffffffffffffffffffffffffffffff168173ffffffffffffffffffffffffffffffffffffffff161415612544576040517f08c379a00000000000000000000000000000000000000000000000000000000081526004018080602001828103825260088152602001807f54563a495553413200000000000000000000000000000000000000000000000081525060200191505060405180910390fd5b80609d60006101000a81548173ffffffffffffffffffffffffffffffffffffffff021916908373ffffffffffffffffffffffffffffffffffffffff1602179055508073ffffffffffffffffffffffffffffffffffffffff167f5553331329228fbd4123164423717a4a7539f6dfa1c3279a923b98fd681a6c7360405160405180910390a250565b60006125d630612a5a565b15905090565b600060019054906101000a900460ff16806125fb57506125fa6125cb565b5b80612611575060008054906101000a900460ff16155b612666576040517f08c379a000000000000000000000000000000000000000000000000000000000815260040180806020018281038252602e815260200180613041602e913960400191505060405180910390fd5b60008060019054906101000a900460ff1615905080156126b6576001600060016101000a81548160ff02191690831515021790555060016000806101000a81548160ff0219169083151502179055505b6126be612a6d565b6126c6612b6b565b80156126e75760008060016101000a81548160ff0219169083151502179055505b50565b600060019054906101000a900460ff168061270957506127086125cb565b5b8061271f575060008054906101000a900460ff16155b612774576040517f08c379a000000000000000000000000000000000000000000000000000000000815260040180806020018281038252602e815260200180613041602e913960400191505060405180910390fd5b60008060019054906101000a900460ff1615905080156127c4576001600060016101000a81548160ff02191690831515021790555060016000806101000a81548160ff0219169083151502179055505b6127ce8383612d12565b80156127ef5760008060016101000a81548160ff0219169083151502179055505b505050565b60006127fe612e3a565b8260405160200180807f190100000000000000000000000000000000000000000000000000000000000081525060020183815260200182815260200192505050604051602081830303815290604052805190602001209050919050565b60007f7fffffffffffffffffffffffffffffff5d576e7357a4501ddfe92f46681b20a08260001c11156128d9576040517f08c379a000000000000000000000000000000000000000000000000000000000815260040180806020018281038252602281526020018061301f6022913960400191505060405180910390fd5b601b8460ff1614806128ee5750601c8460ff16145b612943576040517f08c379a000000000000000000000000000000000000000000000000000000000815260040180806020018281038252602281526020018061306f6022913960400191505060405180910390fd5b600060018686868660405160008152602001604052604051808581526020018460ff1681526020018381526020018281526020019450505050506020604051602081039080840390855afa15801561299f573d6000803e3d6000fd5b505050602060405103519050600073ffffffffffffffffffffffffffffffffffffffff168173ffffffffffffffffffffffffffffffffffffffff161415612a4e576040517f08c379a00000000000000000000000000000000000000000000000000000000081526004018080602001828103825260188152602001807f45434453413a20696e76616c6964207369676e6174757265000000000000000081525060200191505060405180910390fd5b80915050949350505050565b600080823b905060008111915050919050565b600060019054906101000a900460ff1680612a8c5750612a8b6125cb565b5b80612aa2575060008054906101000a900460ff16155b612af7576040517f08c379a000000000000000000000000000000000000000000000000000000000815260040180806020018281038252602e815260200180613041602e913960400191505060405180910390fd5b60008060019054906101000a900460ff161590508015612b47576001600060016101000a81548160ff02191690831515021790555060016000806101000a81548160ff0219169083151502179055505b8015612b685760008060016101000a81548160ff0219169083151502179055505b50565b600060019054906101000a900460ff1680612b8a5750612b896125cb565b5b80612ba0575060008054906101000a900460ff16155b612bf5576040517f08c379a000000000000000000000000000000000000000000000000000000000815260040180806020018281038252602e815260200180613041602e913960400191505060405180910390fd5b60008060019054906101000a900460ff161590508015612c45576001600060016101000a81548160ff02191690831515021790555060016000806101000a81548160ff0219169083151502179055505b6000612c4f611f5a565b905080603360006101000a81548173ffffffffffffffffffffffffffffffffffffffff021916908373ffffffffffffffffffffffffffffffffffffffff1602179055508073ffffffffffffffffffffffffffffffffffffffff16600073ffffffffffffffffffffffffffffffffffffffff167f8be0079c531659141344cd1fd0a4f28419497f9722a3daafe3b4186f6b6457e060405160405180910390a3508015612d0f5760008060016101000a81548160ff0219169083151502179055505b50565b600060019054906101000a900460ff1680612d315750612d306125cb565b5b80612d47575060008054906101000a900460ff16155b612d9c576040517f08c379a000000000000000000000000000000000000000000000000000000000815260040180806020018281038252602e815260200180613041602e913960400191505060405180910390fd5b60008060019054906101000a900460ff161590508015612dec576001600060016101000a81548160ff02191690831515021790555060016000806101000a81548160ff0219169083151502179055505b600083805190602001209050600083805190602001209050816065819055508060668190555050508015612e355760008060016101000a81548160ff0219169083151502179055505b505050565b6000612e757f8b73c3c69bb8fe3d512ecc4cf759cc79239f7b179b0ffacaa9a75d522b39400f612e68612e7a565b612e70612e84565b612e8e565b905090565b6000606554905090565b6000606654905090565b6000838383612e9b612efd565b30604051602001808681526020018581526020018481526020018381526020018273ffffffffffffffffffffffffffffffffffffffff168152602001955050505050506040516020818303038152906040528051906020012090509392505050565b600046905090565b828054600181600116156101000203166002900490600052602060002090601f016020900481019282612f3b5760008555612f82565b82601f10612f5457805160ff1916838001178555612f82565b82800160010185558215612f82579182015b82811115612f81578251825591602001919060010190612f66565b5b509050612f8f9190612fdb565b5090565b50805460018160011615610100020316600290046000825580601f10612fb95750612fd8565b601f016020900490600052602060002090810190612fd79190612fdb565b5b50565b5b80821115612ff4576000816000905550600101612fdc565b509056fe4f776e61626c653a206e6577206f776e657220697320746865207a65726f206164647265737345434453413a20696e76616c6964207369676e6174757265202773272076616c7565496e697469616c697a61626c653a20636f6e747261637420697320616c726561647920696e697469616c697a656445434453413a20696e76616c6964207369676e6174757265202776272076616c7565a264697066735822122003d89a4437a9ef3bbb60c34f80b072f6ecd17c2fa11f3cb13edb73a20b7f7f9164736f6c63430007060033","linkReferences":{}},"methodIdentifiers":{"VERIFICATION()":"791ae748","blackListDigest(bytes32)":"01ae96a8","initialize(address,address,uint256,string,string)":"9ab8367e","owner()":"8da5cb5b","registerSelf(bool,uint8,bytes32,bytes32,string,string,uint256)":"da0e273a","renounceOwnership()":"715018a6","signValidity()":"7b7fc8d8","signerAddress()":"5b7633d0","transferOwnership(address)":"f2fde38b","twitterIdMap(string)":"139b2011","unregisterSelf()":"6bafaa59","unregisterUser(address)":"21f2ca3b","updateSignValidity(uint256)":"24ac78e4","updateSignerAddress(address)":"8fa2a9f0","usedTweetIds(string)":"43dee248","userData(address)":"c8910913"},"id":19}