{
  "_format": "hh-sol-artifact-1",
  "contractName": "StakerInternalStateSetters",
  "sourceName": "contracts/testing/StakerInternalStateSetters.sol",
  "abi": [
    {
      "anonymous": false,
      "inputs": [
        {
          "indexed": false,
          "internalType": "uint32",
          "name": "marketIndex",
          "type": "uint32"
        },
        {
          "indexed": false,
          "internalType": "uint256",
          "name": "accumulativeFloatIssuanceSnapshotIndex",
          "type": "uint256"
        },
        {
          "indexed": false,
          "internalType": "uint256",
          "name": "accumulativeLong",
          "type": "uint256"
        },
        {
          "indexed": false,
          "internalType": "uint256",
          "name": "accumulativeShort",
          "type": "uint256"
        }
      ],
      "name": "AccumulativeIssuancePerStakedSynthSnapshotCreated",
      "type": "event"
    },
    {
      "anonymous": false,
      "inputs": [
        {
          "indexed": false,
          "internalType": "uint32",
          "name": "marketIndex",
          "type": "uint32"
        },
        {
          "indexed": false,
          "internalType": "int256",
          "name": "balanceIncentiveEquilibriumOffset",
          "type": "int256"
        }
      ],
      "name": "BalanceIncentiveEquilibriumOffsetUpdated",
      "type": "event"
    },
    {
      "anonymous": false,
      "inputs": [
        {
          "indexed": false,
          "internalType": "uint32",
          "name": "marketIndex",
          "type": "uint32"
        },
        {
          "indexed": false,
          "internalType": "uint256",
          "name": "balanceIncentiveExponent",
          "type": "uint256"
        }
      ],
      "name": "BalanceIncentiveExponentUpdated",
      "type": "event"
    },
    {
      "anonymous": false,
      "inputs": [
        {
          "indexed": false,
          "internalType": "address",
          "name": "newAdmin",
          "type": "address"
        }
      ],
      "name": "ChangeAdmin",
      "type": "event"
    },
    {
      "anonymous": false,
      "inputs": [
        {
          "indexed": false,
          "internalType": "address",
          "name": "user",
          "type": "address"
        },
        {
          "indexed": false,
          "internalType": "uint32",
          "name": "marketIndex",
          "type": "uint32"
        },
        {
          "indexed": false,
          "internalType": "uint256",
          "name": "amountFloatMinted",
          "type": "uint256"
        }
      ],
      "name": "FloatMinted",
      "type": "event"
    },
    {
      "anonymous": false,
      "inputs": [
        {
          "indexed": false,
          "internalType": "uint256",
          "name": "floatPercentage",
          "type": "uint256"
        }
      ],
      "name": "FloatPercentageUpdated",
      "type": "event"
    },
    {
      "anonymous": false,
      "inputs": [
        {
          "indexed": false,
          "internalType": "uint32",
          "name": "marketIndex",
          "type": "uint32"
        },
        {
          "indexed": false,
          "internalType": "uint256",
          "name": "exitFee_e18",
          "type": "uint256"
        },
        {
          "indexed": false,
          "internalType": "uint256",
          "name": "period",
          "type": "uint256"
        },
        {
          "indexed": false,
          "internalType": "uint256",
          "name": "multiplier",
          "type": "uint256"
        },
        {
          "indexed": false,
          "internalType": "uint256",
          "name": "balanceIncentiveExponent",
          "type": "uint256"
        },
        {
          "indexed": false,
          "internalType": "int256",
          "name": "balanceIncentiveEquilibriumOffset",
          "type": "int256"
        }
      ],
      "name": "MarketAddedToStaker",
      "type": "event"
    },
    {
      "anonymous": false,
      "inputs": [
        {
          "indexed": false,
          "internalType": "uint32",
          "name": "marketIndex",
          "type": "uint32"
        },
        {
          "indexed": false,
          "internalType": "uint256",
          "name": "period",
          "type": "uint256"
        },
        {
          "indexed": false,
          "internalType": "uint256",
          "name": "multiplier",
          "type": "uint256"
        }
      ],
      "name": "MarketLaunchIncentiveParametersChanges",
      "type": "event"
    },
    {
      "anonymous": false,
      "inputs": [
        {
          "indexed": false,
          "internalType": "address",
          "name": "user",
          "type": "address"
        },
        {
          "indexed": false,
          "internalType": "address",
          "name": "token",
          "type": "address"
        },
        {
          "indexed": false,
          "internalType": "uint256",
          "name": "amount",
          "type": "uint256"
        },
        {
          "indexed": false,
          "internalType": "uint256",
          "name": "lastMintIndex",
          "type": "uint256"
        }
      ],
      "name": "StakeAdded",
      "type": "event"
    },
    {
      "anonymous": false,
      "inputs": [
        {
          "indexed": false,
          "internalType": "uint32",
          "name": "marketIndex",
          "type": "uint32"
        },
        {
          "indexed": false,
          "internalType": "uint256",
          "name": "stakeWithdralFee",
          "type": "uint256"
        }
      ],
      "name": "StakeWithdrawalFeeUpdated",
      "type": "event"
    },
    {
      "anonymous": false,
      "inputs": [
        {
          "indexed": false,
          "internalType": "address",
          "name": "user",
          "type": "address"
        },
        {
          "indexed": false,
          "internalType": "address",
          "name": "token",
          "type": "address"
        },
        {
          "indexed": false,
          "internalType": "uint256",
          "name": "amount",
          "type": "uint256"
        }
      ],
      "name": "StakeWithdrawn",
      "type": "event"
    },
    {
      "anonymous": false,
      "inputs": [
        {
          "indexed": false,
          "internalType": "address",
          "name": "admin",
          "type": "address"
        },
        {
          "indexed": false,
          "internalType": "address",
          "name": "floatTreasury",
          "type": "address"
        },
        {
          "indexed": false,
          "internalType": "address",
          "name": "floatCapital",
          "type": "address"
        },
        {
          "indexed": false,
          "internalType": "address",
          "name": "floatToken",
          "type": "address"
        },
        {
          "indexed": false,
          "internalType": "uint256",
          "name": "floatPercentage",
          "type": "uint256"
        }
      ],
      "name": "StakerV1",
      "type": "event"
    },
    {
      "anonymous": false,
      "inputs": [],
      "name": "SyntheticTokensShifted",
      "type": "event"
    },
    {
      "inputs": [],
      "name": "FLOAT_ISSUANCE_FIXED_DECIMAL",
      "outputs": [
        {
          "internalType": "uint256",
          "name": "",
          "type": "uint256"
        }
      ],
      "stateMutability": "view",
      "type": "function"
    },
    {
      "inputs": [
        {
          "internalType": "uint32",
          "name": "",
          "type": "uint32"
        },
        {
          "internalType": "uint256",
          "name": "",
          "type": "uint256"
        }
      ],
      "name": "accumulativeFloatPerSyntheticTokenSnapshots",
      "outputs": [
        {
          "internalType": "uint256",
          "name": "timestamp",
          "type": "uint256"
        },
        {
          "internalType": "uint256",
          "name": "accumulativeFloatPerSyntheticToken_long",
          "type": "uint256"
        },
        {
          "internalType": "uint256",
          "name": "accumulativeFloatPerSyntheticToken_short",
          "type": "uint256"
        }
      ],
      "stateMutability": "view",
      "type": "function"
    },
    {
      "inputs": [
        {
          "internalType": "uint32",
          "name": "marketIndex",
          "type": "uint32"
        },
        {
          "internalType": "address",
          "name": "longToken",
          "type": "address"
        },
        {
          "internalType": "address",
          "name": "shortToken",
          "type": "address"
        },
        {
          "internalType": "uint256",
          "name": "kInitialMultiplier",
          "type": "uint256"
        },
        {
          "internalType": "uint256",
          "name": "kPeriod",
          "type": "uint256"
        },
        {
          "internalType": "uint256",
          "name": "unstakeFee_e18",
          "type": "uint256"
        },
        {
          "internalType": "uint256",
          "name": "_balanceIncentiveCurve_exponent",
          "type": "uint256"
        },
        {
          "internalType": "int256",
          "name": "_balanceIncentiveCurve_equilibriumOffset",
          "type": "int256"
        }
      ],
      "name": "addNewStakingFund",
      "outputs": [],
      "stateMutability": "nonpayable",
      "type": "function"
    },
    {
      "inputs": [],
      "name": "admin",
      "outputs": [
        {
          "internalType": "address",
          "name": "",
          "type": "address"
        }
      ],
      "stateMutability": "view",
      "type": "function"
    },
    {
      "inputs": [
        {
          "internalType": "uint32",
          "name": "",
          "type": "uint32"
        }
      ],
      "name": "balanceIncentiveCurve_equilibriumOffset",
      "outputs": [
        {
          "internalType": "int256",
          "name": "",
          "type": "int256"
        }
      ],
      "stateMutability": "view",
      "type": "function"
    },
    {
      "inputs": [
        {
          "internalType": "uint32",
          "name": "",
          "type": "uint32"
        }
      ],
      "name": "balanceIncentiveCurve_exponent",
      "outputs": [
        {
          "internalType": "uint256",
          "name": "",
          "type": "uint256"
        }
      ],
      "stateMutability": "view",
      "type": "function"
    },
    {
      "inputs": [
        {
          "internalType": "uint32",
          "name": "",
          "type": "uint32"
        }
      ],
      "name": "batched_stakerNextTokenShiftIndex",
      "outputs": [
        {
          "internalType": "uint256",
          "name": "",
          "type": "uint256"
        }
      ],
      "stateMutability": "view",
      "type": "function"
    },
    {
      "inputs": [
        {
          "internalType": "address",
          "name": "_admin",
          "type": "address"
        }
      ],
      "name": "changeAdmin",
      "outputs": [],
      "stateMutability": "nonpayable",
      "type": "function"
    },
    {
      "inputs": [
        {
          "internalType": "uint32",
          "name": "marketIndex",
          "type": "uint32"
        },
        {
          "internalType": "int256",
          "name": "_balanceIncentiveCurve_equilibriumOffset",
          "type": "int256"
        }
      ],
      "name": "changeBalanceIncentiveEquilibriumOffset",
      "outputs": [],
      "stateMutability": "nonpayable",
      "type": "function"
    },
    {
      "inputs": [
        {
          "internalType": "uint32",
          "name": "marketIndex",
          "type": "uint32"
        },
        {
          "internalType": "uint256",
          "name": "_balanceIncentiveCurve_exponent",
          "type": "uint256"
        }
      ],
      "name": "changeBalanceIncentiveExponent",
      "outputs": [],
      "stateMutability": "nonpayable",
      "type": "function"
    },
    {
      "inputs": [
        {
          "internalType": "uint256",
          "name": "newFloatPercentage",
          "type": "uint256"
        }
      ],
      "name": "changeFloatPercentage",
      "outputs": [],
      "stateMutability": "nonpayable",
      "type": "function"
    },
    {
      "inputs": [
        {
          "internalType": "uint32",
          "name": "marketIndex",
          "type": "uint32"
        },
        {
          "internalType": "uint256",
          "name": "period",
          "type": "uint256"
        },
        {
          "internalType": "uint256",
          "name": "initialMultiplier",
          "type": "uint256"
        }
      ],
      "name": "changeMarketLaunchIncentiveParameters",
      "outputs": [],
      "stateMutability": "nonpayable",
      "type": "function"
    },
    {
      "inputs": [
        {
          "internalType": "uint32",
          "name": "marketIndex",
          "type": "uint32"
        },
        {
          "internalType": "uint256",
          "name": "newMarketUnstakeFee_e18",
          "type": "uint256"
        }
      ],
      "name": "changeUnstakeFee",
      "outputs": [],
      "stateMutability": "nonpayable",
      "type": "function"
    },
    {
      "inputs": [
        {
          "internalType": "uint32[]",
          "name": "marketIndexes",
          "type": "uint32[]"
        }
      ],
      "name": "claimFloatCustom",
      "outputs": [],
      "stateMutability": "nonpayable",
      "type": "function"
    },
    {
      "inputs": [
        {
          "internalType": "uint32[]",
          "name": "marketIndexes",
          "type": "uint32[]"
        },
        {
          "internalType": "address",
          "name": "user",
          "type": "address"
        }
      ],
      "name": "claimFloatCustomFor",
      "outputs": [],
      "stateMutability": "nonpayable",
      "type": "function"
    },
    {
      "inputs": [],
      "name": "floatCapital",
      "outputs": [
        {
          "internalType": "address",
          "name": "",
          "type": "address"
        }
      ],
      "stateMutability": "view",
      "type": "function"
    },
    {
      "inputs": [],
      "name": "floatPercentage",
      "outputs": [
        {
          "internalType": "uint256",
          "name": "",
          "type": "uint256"
        }
      ],
      "stateMutability": "view",
      "type": "function"
    },
    {
      "inputs": [],
      "name": "floatToken",
      "outputs": [
        {
          "internalType": "address",
          "name": "",
          "type": "address"
        }
      ],
      "stateMutability": "view",
      "type": "function"
    },
    {
      "inputs": [],
      "name": "floatTreasury",
      "outputs": [
        {
          "internalType": "address",
          "name": "",
          "type": "address"
        }
      ],
      "stateMutability": "view",
      "type": "function"
    },
    {
      "inputs": [
        {
          "internalType": "uint256",
          "name": "number",
          "type": "uint256"
        },
        {
          "internalType": "uint256",
          "name": "exponent",
          "type": "uint256"
        }
      ],
      "name": "getRequiredAmountOfBitShiftForSafeExponentiationPerfect",
      "outputs": [
        {
          "internalType": "uint256",
          "name": "amountOfBitShiftRequired",
          "type": "uint256"
        }
      ],
      "stateMutability": "pure",
      "type": "function"
    },
    {
      "inputs": [
        {
          "internalType": "address",
          "name": "_admin",
          "type": "address"
        },
        {
          "internalType": "address",
          "name": "_longShort",
          "type": "address"
        },
        {
          "internalType": "address",
          "name": "_floatToken",
          "type": "address"
        },
        {
          "internalType": "address",
          "name": "_floatTreasury",
          "type": "address"
        },
        {
          "internalType": "address",
          "name": "_floatCapital",
          "type": "address"
        },
        {
          "internalType": "uint256",
          "name": "_floatPercentage",
          "type": "uint256"
        }
      ],
      "name": "initialize",
      "outputs": [],
      "stateMutability": "nonpayable",
      "type": "function"
    },
    {
      "inputs": [
        {
          "internalType": "uint32",
          "name": "",
          "type": "uint32"
        }
      ],
      "name": "latestRewardIndex",
      "outputs": [
        {
          "internalType": "uint256",
          "name": "",
          "type": "uint256"
        }
      ],
      "stateMutability": "view",
      "type": "function"
    },
    {
      "inputs": [],
      "name": "longShort",
      "outputs": [
        {
          "internalType": "address",
          "name": "",
          "type": "address"
        }
      ],
      "stateMutability": "view",
      "type": "function"
    },
    {
      "inputs": [
        {
          "internalType": "address",
          "name": "",
          "type": "address"
        }
      ],
      "name": "marketIndexOfToken",
      "outputs": [
        {
          "internalType": "uint32",
          "name": "",
          "type": "uint32"
        }
      ],
      "stateMutability": "view",
      "type": "function"
    },
    {
      "inputs": [
        {
          "internalType": "uint32",
          "name": "",
          "type": "uint32"
        }
      ],
      "name": "marketLaunchIncentive_multipliers",
      "outputs": [
        {
          "internalType": "uint256",
          "name": "",
          "type": "uint256"
        }
      ],
      "stateMutability": "view",
      "type": "function"
    },
    {
      "inputs": [
        {
          "internalType": "uint32",
          "name": "",
          "type": "uint32"
        }
      ],
      "name": "marketLaunchIncentive_period",
      "outputs": [
        {
          "internalType": "uint256",
          "name": "",
          "type": "uint256"
        }
      ],
      "stateMutability": "view",
      "type": "function"
    },
    {
      "inputs": [
        {
          "internalType": "uint32",
          "name": "",
          "type": "uint32"
        }
      ],
      "name": "marketUnstakeFee_e18",
      "outputs": [
        {
          "internalType": "uint256",
          "name": "",
          "type": "uint256"
        }
      ],
      "stateMutability": "view",
      "type": "function"
    },
    {
      "inputs": [
        {
          "internalType": "uint32",
          "name": "marketIndex",
          "type": "uint32"
        },
        {
          "internalType": "uint256",
          "name": "longPrice",
          "type": "uint256"
        },
        {
          "internalType": "uint256",
          "name": "shortPrice",
          "type": "uint256"
        },
        {
          "internalType": "uint256",
          "name": "longValue",
          "type": "uint256"
        },
        {
          "internalType": "uint256",
          "name": "shortValue",
          "type": "uint256"
        },
        {
          "internalType": "uint256",
          "name": "stakerTokenShiftIndex_to_longShortMarketPriceSnapshotIndex_mappingIfShiftExecuted",
          "type": "uint256"
        }
      ],
      "name": "pushUpdatedMarketPricesToUpdateFloatIssuanceCalculations",
      "outputs": [],
      "stateMutability": "nonpayable",
      "type": "function"
    },
    {
      "inputs": [],
      "name": "safeExponentBitShifting",
      "outputs": [
        {
          "internalType": "uint256",
          "name": "",
          "type": "uint256"
        }
      ],
      "stateMutability": "view",
      "type": "function"
    },
    {
      "inputs": [
        {
          "internalType": "uint32",
          "name": "marketIndex",
          "type": "uint32"
        },
        {
          "internalType": "address",
          "name": "longToken",
          "type": "address"
        },
        {
          "internalType": "address",
          "name": "shortToken",
          "type": "address"
        },
        {
          "internalType": "address",
          "name": "mockAddress",
          "type": "address"
        },
        {
          "internalType": "address",
          "name": "longShortAddress",
          "type": "address"
        }
      ],
      "name": "setAddNewStakingFundParams",
      "outputs": [],
      "stateMutability": "nonpayable",
      "type": "function"
    },
    {
      "inputs": [
        {
          "internalType": "uint32",
          "name": "marketIndex",
          "type": "uint32"
        },
        {
          "internalType": "uint256",
          "name": "_batched_stakerNextTokenShiftIndex",
          "type": "uint256"
        },
        {
          "internalType": "uint256",
          "name": "_latestRewardIndex",
          "type": "uint256"
        }
      ],
      "name": "setAddNewStateForFloatRewardsGlobals",
      "outputs": [],
      "stateMutability": "nonpayable",
      "type": "function"
    },
    {
      "inputs": [
        {
          "internalType": "uint32",
          "name": "marketIndex",
          "type": "uint32"
        },
        {
          "internalType": "uint256",
          "name": "rewardIndexTo",
          "type": "uint256"
        },
        {
          "internalType": "uint256",
          "name": "rewardIndexFrom",
          "type": "uint256"
        },
        {
          "internalType": "uint256",
          "name": "syntheticRewardToLongToken",
          "type": "uint256"
        },
        {
          "internalType": "uint256",
          "name": "syntheticRewardFromLongToken",
          "type": "uint256"
        },
        {
          "internalType": "uint256",
          "name": "syntheticRewardToShortToken",
          "type": "uint256"
        },
        {
          "internalType": "uint256",
          "name": "syntheticRewardFromShortToken",
          "type": "uint256"
        }
      ],
      "name": "setCalculateAccumulatedFloatInRangeGlobals",
      "outputs": [],
      "stateMutability": "nonpayable",
      "type": "function"
    },
    {
      "inputs": [
        {
          "internalType": "uint32",
          "name": "marketIndex",
          "type": "uint32"
        },
        {
          "internalType": "uint256",
          "name": "latestRewardIndexForMarket",
          "type": "uint256"
        },
        {
          "internalType": "uint256",
          "name": "accumFloatLong",
          "type": "uint256"
        },
        {
          "internalType": "uint256",
          "name": "accumFloatShort",
          "type": "uint256"
        }
      ],
      "name": "setCalculateNewCumulativeRateParams",
      "outputs": [],
      "stateMutability": "nonpayable",
      "type": "function"
    },
    {
      "inputs": [
        {
          "internalType": "uint32",
          "name": "marketIndex",
          "type": "uint32"
        },
        {
          "internalType": "uint256",
          "name": "latestRewardIndexForMarket",
          "type": "uint256"
        },
        {
          "internalType": "uint256",
          "name": "timestamp",
          "type": "uint256"
        }
      ],
      "name": "setCalculateTimeDeltaParams",
      "outputs": [],
      "stateMutability": "nonpayable",
      "type": "function"
    },
    {
      "inputs": [
        {
          "internalType": "uint32",
          "name": "marketIndex",
          "type": "uint32"
        },
        {
          "internalType": "int256",
          "name": "_balanceIncentiveCurve_equilibriumOffset",
          "type": "int256"
        }
      ],
      "name": "setEquilibriumOffset",
      "outputs": [],
      "stateMutability": "nonpayable",
      "type": "function"
    },
    {
      "inputs": [
        {
          "internalType": "uint32",
          "name": "marketIndex",
          "type": "uint32"
        },
        {
          "internalType": "address",
          "name": "longToken",
          "type": "address"
        },
        {
          "internalType": "address",
          "name": "shortToken",
          "type": "address"
        },
        {
          "internalType": "uint256",
          "name": "newLatestRewardIndex",
          "type": "uint256"
        },
        {
          "internalType": "address",
          "name": "user",
          "type": "address"
        },
        {
          "internalType": "uint256",
          "name": "usersLatestClaimedReward",
          "type": "uint256"
        },
        {
          "internalType": "uint256",
          "name": "accumulativeFloatPerTokenLatestLong",
          "type": "uint256"
        },
        {
          "internalType": "uint256",
          "name": "accumulativeFloatPerTokenLatestShort",
          "type": "uint256"
        },
        {
          "internalType": "uint256",
          "name": "accumulativeFloatPerTokenUserLong",
          "type": "uint256"
        },
        {
          "internalType": "uint256",
          "name": "accumulativeFloatPerTokenUserShort",
          "type": "uint256"
        },
        {
          "internalType": "uint256",
          "name": "newUserAmountStakedLong",
          "type": "uint256"
        },
        {
          "internalType": "uint256",
          "name": "newUserAmountStakedShort",
          "type": "uint256"
        }
      ],
      "name": "setFloatRewardCalcParams",
      "outputs": [],
      "stateMutability": "nonpayable",
      "type": "function"
    },
    {
      "inputs": [
        {
          "internalType": "uint32",
          "name": "marketIndex",
          "type": "uint32"
        },
        {
          "internalType": "uint256",
          "name": "timestamp",
          "type": "uint256"
        }
      ],
      "name": "setGetKValueParams",
      "outputs": [],
      "stateMutability": "nonpayable",
      "type": "function"
    },
    {
      "inputs": [
        {
          "internalType": "uint32",
          "name": "marketIndex",
          "type": "uint32"
        },
        {
          "internalType": "uint256",
          "name": "period",
          "type": "uint256"
        },
        {
          "internalType": "uint256",
          "name": "multiplier",
          "type": "uint256"
        }
      ],
      "name": "setGetMarketLaunchIncentiveParametersParams",
      "outputs": [],
      "stateMutability": "nonpayable",
      "type": "function"
    },
    {
      "inputs": [
        {
          "internalType": "address",
          "name": "_longShort",
          "type": "address"
        }
      ],
      "name": "setLongShort",
      "outputs": [],
      "stateMutability": "nonpayable",
      "type": "function"
    },
    {
      "inputs": [
        {
          "internalType": "uint32",
          "name": "marketIndex",
          "type": "uint32"
        },
        {
          "internalType": "uint256",
          "name": "latestRewardIndexForMarket",
          "type": "uint256"
        }
      ],
      "name": "setMintAccumulatedFloatAndClaimFloatParams",
      "outputs": [],
      "stateMutability": "nonpayable",
      "type": "function"
    },
    {
      "inputs": [
        {
          "internalType": "uint32",
          "name": "marketIndex",
          "type": "uint32"
        },
        {
          "internalType": "uint256",
          "name": "latestRewardIndexForMarket",
          "type": "uint256"
        }
      ],
      "name": "setSetRewardObjectsParams",
      "outputs": [],
      "stateMutability": "nonpayable",
      "type": "function"
    },
    {
      "inputs": [
        {
          "internalType": "uint32",
          "name": "marketIndex",
          "type": "uint32"
        },
        {
          "internalType": "address",
          "name": "user",
          "type": "address"
        },
        {
          "internalType": "uint256",
          "name": "shiftAmountLong",
          "type": "uint256"
        },
        {
          "internalType": "uint256",
          "name": "shiftAmountShort",
          "type": "uint256"
        },
        {
          "internalType": "uint256",
          "name": "_userNextPrice_stakedSyntheticTokenShiftIndex",
          "type": "uint256"
        },
        {
          "internalType": "uint256",
          "name": "_batched_stakerNextTokenShiftIndex",
          "type": "uint256"
        },
        {
          "internalType": "uint256",
          "name": "_takerTokenShiftIndex_to_longShortMarketPriceSnapshotIndex_mapping",
          "type": "uint256"
        },
        {
          "internalType": "uint256",
          "name": "_stakerTokenShiftIndex_to_accumulativeFloatIssuanceSnapshotIndex_mapping",
          "type": "uint256"
        }
      ],
      "name": "setShiftParams",
      "outputs": [],
      "stateMutability": "nonpayable",
      "type": "function"
    },
    {
      "inputs": [
        {
          "internalType": "uint32",
          "name": "marketIndex",
          "type": "uint32"
        },
        {
          "internalType": "bool",
          "name": "isShiftFromLong",
          "type": "bool"
        },
        {
          "internalType": "address",
          "name": "user",
          "type": "address"
        },
        {
          "internalType": "uint256",
          "name": "amountSyntheticTokensToShift",
          "type": "uint256"
        },
        {
          "internalType": "uint256",
          "name": "_userAmountStaked",
          "type": "uint256"
        },
        {
          "internalType": "uint256",
          "name": "_userNextPrice_stakedSyntheticTokenShiftIndex",
          "type": "uint256"
        },
        {
          "internalType": "uint256",
          "name": "_batched_stakerNextTokenShiftIndex",
          "type": "uint256"
        },
        {
          "internalType": "address",
          "name": "syntheticToken",
          "type": "address"
        }
      ],
      "name": "setShiftTokensParams",
      "outputs": [],
      "stateMutability": "nonpayable",
      "type": "function"
    },
    {
      "inputs": [
        {
          "internalType": "address",
          "name": "longshort",
          "type": "address"
        },
        {
          "internalType": "address",
          "name": "token",
          "type": "address"
        },
        {
          "internalType": "uint32",
          "name": "marketIndexForToken",
          "type": "uint32"
        }
      ],
      "name": "setStakeFromUserParams",
      "outputs": [],
      "stateMutability": "nonpayable",
      "type": "function"
    },
    {
      "inputs": [
        {
          "internalType": "uint32",
          "name": "marketIndex",
          "type": "uint32"
        },
        {
          "internalType": "address",
          "name": "_longShort",
          "type": "address"
        },
        {
          "internalType": "address",
          "name": "user",
          "type": "address"
        },
        {
          "internalType": "uint256",
          "name": "amountStaked",
          "type": "uint256"
        },
        {
          "internalType": "address",
          "name": "token",
          "type": "address"
        }
      ],
      "name": "setWithdrawAllGlobals",
      "outputs": [],
      "stateMutability": "nonpayable",
      "type": "function"
    },
    {
      "inputs": [
        {
          "internalType": "uint32",
          "name": "marketIndex",
          "type": "uint32"
        },
        {
          "internalType": "address",
          "name": "_longShort",
          "type": "address"
        },
        {
          "internalType": "address",
          "name": "token",
          "type": "address"
        }
      ],
      "name": "setWithdrawGlobals",
      "outputs": [],
      "stateMutability": "nonpayable",
      "type": "function"
    },
    {
      "inputs": [
        {
          "internalType": "address",
          "name": "_floatToken",
          "type": "address"
        },
        {
          "internalType": "uint16",
          "name": "_floatPercentage",
          "type": "uint16"
        }
      ],
      "name": "set_mintFloatParams",
      "outputs": [],
      "stateMutability": "nonpayable",
      "type": "function"
    },
    {
      "inputs": [
        {
          "internalType": "address",
          "name": "user",
          "type": "address"
        },
        {
          "internalType": "uint32",
          "name": "marketIndex",
          "type": "uint32"
        },
        {
          "internalType": "uint256",
          "name": "_latestRewardIndex",
          "type": "uint256"
        },
        {
          "internalType": "address",
          "name": "token",
          "type": "address"
        },
        {
          "internalType": "uint256",
          "name": "_userAmountStaked",
          "type": "uint256"
        },
        {
          "internalType": "uint256",
          "name": "userLastRewardIndex",
          "type": "uint256"
        }
      ],
      "name": "set_stakeParams",
      "outputs": [],
      "stateMutability": "nonpayable",
      "type": "function"
    },
    {
      "inputs": [
        {
          "internalType": "address",
          "name": "_longShort",
          "type": "address"
        },
        {
          "internalType": "address",
          "name": "token",
          "type": "address"
        },
        {
          "internalType": "uint32",
          "name": "tokenMarketIndex",
          "type": "uint32"
        }
      ],
      "name": "set_updateStateParams",
      "outputs": [],
      "stateMutability": "nonpayable",
      "type": "function"
    },
    {
      "inputs": [
        {
          "internalType": "uint32",
          "name": "marketIndex",
          "type": "uint32"
        },
        {
          "internalType": "address",
          "name": "syntheticToken",
          "type": "address"
        },
        {
          "internalType": "address",
          "name": "user",
          "type": "address"
        },
        {
          "internalType": "uint256",
          "name": "amountStaked",
          "type": "uint256"
        },
        {
          "internalType": "uint256",
          "name": "fees",
          "type": "uint256"
        },
        {
          "internalType": "address",
          "name": "treasury",
          "type": "address"
        }
      ],
      "name": "set_withdrawGlobals",
      "outputs": [],
      "stateMutability": "nonpayable",
      "type": "function"
    },
    {
      "inputs": [
        {
          "internalType": "uint256",
          "name": "amountSyntheticTokensToShift",
          "type": "uint256"
        },
        {
          "internalType": "uint32",
          "name": "marketIndex",
          "type": "uint32"
        },
        {
          "internalType": "bool",
          "name": "isShiftFromLong",
          "type": "bool"
        }
      ],
      "name": "shiftTokens",
      "outputs": [],
      "stateMutability": "nonpayable",
      "type": "function"
    },
    {
      "inputs": [
        {
          "internalType": "address",
          "name": "from",
          "type": "address"
        },
        {
          "internalType": "uint256",
          "name": "amount",
          "type": "uint256"
        }
      ],
      "name": "stakeFromUser",
      "outputs": [],
      "stateMutability": "nonpayable",
      "type": "function"
    },
    {
      "inputs": [
        {
          "internalType": "uint256",
          "name": "",
          "type": "uint256"
        }
      ],
      "name": "stakerTokenShiftIndex_to_accumulativeFloatIssuanceSnapshotIndex_mapping",
      "outputs": [
        {
          "internalType": "uint256",
          "name": "",
          "type": "uint256"
        }
      ],
      "stateMutability": "view",
      "type": "function"
    },
    {
      "inputs": [
        {
          "internalType": "uint256",
          "name": "",
          "type": "uint256"
        }
      ],
      "name": "stakerTokenShiftIndex_to_longShortMarketPriceSnapshotIndex_mapping",
      "outputs": [
        {
          "internalType": "uint256",
          "name": "",
          "type": "uint256"
        }
      ],
      "stateMutability": "view",
      "type": "function"
    },
    {
      "inputs": [
        {
          "internalType": "uint32",
          "name": "",
          "type": "uint32"
        },
        {
          "internalType": "bool",
          "name": "",
          "type": "bool"
        }
      ],
      "name": "syntheticTokens",
      "outputs": [
        {
          "internalType": "address",
          "name": "",
          "type": "address"
        }
      ],
      "stateMutability": "view",
      "type": "function"
    },
    {
      "inputs": [
        {
          "internalType": "address",
          "name": "",
          "type": "address"
        },
        {
          "internalType": "address",
          "name": "",
          "type": "address"
        }
      ],
      "name": "userAmountStaked",
      "outputs": [
        {
          "internalType": "uint256",
          "name": "",
          "type": "uint256"
        }
      ],
      "stateMutability": "view",
      "type": "function"
    },
    {
      "inputs": [
        {
          "internalType": "uint32",
          "name": "",
          "type": "uint32"
        },
        {
          "internalType": "address",
          "name": "",
          "type": "address"
        }
      ],
      "name": "userIndexOfLastClaimedReward",
      "outputs": [
        {
          "internalType": "uint256",
          "name": "",
          "type": "uint256"
        }
      ],
      "stateMutability": "view",
      "type": "function"
    },
    {
      "inputs": [
        {
          "internalType": "uint32",
          "name": "",
          "type": "uint32"
        },
        {
          "internalType": "address",
          "name": "",
          "type": "address"
        }
      ],
      "name": "userNextPrice_amountStakedSyntheticToken_toShiftAwayFrom_long",
      "outputs": [
        {
          "internalType": "uint256",
          "name": "",
          "type": "uint256"
        }
      ],
      "stateMutability": "view",
      "type": "function"
    },
    {
      "inputs": [
        {
          "internalType": "uint32",
          "name": "",
          "type": "uint32"
        },
        {
          "internalType": "address",
          "name": "",
          "type": "address"
        }
      ],
      "name": "userNextPrice_amountStakedSyntheticToken_toShiftAwayFrom_short",
      "outputs": [
        {
          "internalType": "uint256",
          "name": "",
          "type": "uint256"
        }
      ],
      "stateMutability": "view",
      "type": "function"
    },
    {
      "inputs": [
        {
          "internalType": "uint32",
          "name": "",
          "type": "uint32"
        },
        {
          "internalType": "address",
          "name": "",
          "type": "address"
        }
      ],
      "name": "userNextPrice_stakedSyntheticTokenShiftIndex",
      "outputs": [
        {
          "internalType": "uint256",
          "name": "",
          "type": "uint256"
        }
      ],
      "stateMutability": "view",
      "type": "function"
    },
    {
      "inputs": [
        {
          "internalType": "address",
          "name": "token",
          "type": "address"
        },
        {
          "internalType": "uint256",
          "name": "amount",
          "type": "uint256"
        }
      ],
      "name": "withdraw",
      "outputs": [],
      "stateMutability": "nonpayable",
      "type": "function"
    },
    {
      "inputs": [
        {
          "internalType": "address",
          "name": "token",
          "type": "address"
        }
      ],
      "name": "withdrawAll",
      "outputs": [],
      "stateMutability": "nonpayable",
      "type": "function"
    }
  ],
  "bytecode": "0x608060405234801561001057600080fd5b50613f6c806100206000396000f3fe608060405234801561001057600080fd5b50600436106103ba5760003560e01c8063b0956b5f116101f4578063e68f3dbe1161011a578063f344acc9116100ad578063f9fe734e1161007c578063f9fe734e1461101d578063fa09e6301461103d578063fbd95c7214611050578063fdd3c2fd1461109f576103ba565b8063f344acc914610fb7578063f3fef3a314610fca578063f851a44014610fdd578063f97a803b14610ff6576103ba565b8063edb010d7116100e9578063edb010d714610f4c578063ef9c305214610f5f578063ef9ded8e14610f7f578063f2c0e6b714610faf576103ba565b8063e68f3dbe14610c5f578063ea2eb29b14610c72578063eae5a8d914610c85578063eb61f13414610c98576103ba565b8063cdeb4d9211610192578063d89a1a6911610161578063d89a1a6914610bca578063dc86fe5014610c1f578063dc9a845e14610674578063e39ac04414610c3f576103ba565b8063cdeb4d9214610af8578063d31a1e41146107a4578063d42c593214610b85578063d84593e514610bb7576103ba565b8063ba89f7b8116101ce578063ba89f7b814610a94578063bda69fd814610aa7578063c16199e314610aba578063c17f8ce914610acd576103ba565b8063b0956b5f14610a33578063b6fc482814610a46578063b80dd32914610a81576103ba565b80635ac76ce1116102e45780638f283970116102775780639eb70168116102465780639eb7016814610938578063a0b645da146109b9578063a9290696146109cc578063b054c4a1146109ff576103ba565b80638f2839701461083b57806395b6ef0c1461084e5780639e59fd0f146108615780639e75ef5714610874576103ba565b8063752fe334116102b3578063752fe33414610731578063757d2f31146107a45780637c937cf2146107f757806386cbde1f14610822576103ba565b80635ac76ce11461069b5780636a5304df146106c65780636b7bf524146106e6578063738f4b8e1461071e576103ba565b8063299498721161035c578063559dd7e21161032b578063559dd7e2146105bf5780635892457d146105ea57806358b25156146105f35780635a4a295114610674576103ba565b806329949872146104d5578063320d621d146105005780633ebff44f146105135780634105a53214610568576103ba565b806313e8868a1161039857806313e8868a1461043a57806315f2081d1461045a5780631fff5f551461049557806327c79533146104b5576103ba565b80630a41100b146103bf5780630bccc585146103f25780630ca5a05214610427575b600080fd5b6103df6103cd366004613684565b60126020526000908152604090205481565b6040519081526020015b60405180910390f35b610425610400366004613ad2565b63ffffffff909216600090815260066020908152604080832093909355600790522055565b005b610425610435366004613ab7565b6110ca565b6103df610448366004613714565b60086020526000908152604090205481565b61048061046836600461341b565b600c6020526000908152604090205463ffffffff1681565b60405163ffffffff90911681526020016103e9565b6103df6104a3366004613684565b60136020526000908152604090205481565b6103df6104c3366004613714565b60116020526000908152604090205481565b6004546104e8906001600160a01b031681565b6040516001600160a01b0390911681526020016103e9565b61042561050e366004613ab7565b611120565b61054d610521366004613ab7565b600e60209081526000928352604080842090915290825290208054600182015460029092015490919083565b604080519384526020840192909252908201526060016103e9565b610425610576366004613749565b6001600160a01b039081166000908152600c60205260409020805463ffffffff191663ffffffff9490941693909317909255600480546001600160a01b03191691909216179055565b6103df6105cd36600461372e565b601560209081526000928352604080842090915290825290205481565b6103df60035481565b6104256106013660046138d5565b6001600160a01b039485166000818152600c60209081526040808320805463ffffffff191663ffffffff9b909b169a8b1790559882526008815288822094909455908152601083528681209486168152939091529390912055600280546001600160a01b03191692909116919091179055565b610425610682366004613ab7565b63ffffffff9091166000908152600d6020526040902055565b6103df6106a936600461372e565b600f60209081526000928352604080842090915290825290205481565b6103df6106d4366004613714565b60066020526000908152604090205481565b6104256106f436600461351c565b600580546001600160a01b0319166001600160a01b03939093169290921790915561ffff16600355565b61042561072c3660046135df565b61116e565b61042561073f3660046137e6565b6001600160a01b039081166000908152600c60209081526040808320805463ffffffff191663ffffffff9990991698909817909755600480546001600160a01b0319169684169690961790955560108552858120939091168152919092529190912055565b6104256107b23660046134da565b600480546001600160a01b0319166001600160a01b0394851617905591166000908152600c60205260409020805463ffffffff191663ffffffff909216919091179055565b6103df61080536600461372e565b601660209081526000928352604080842090915290825290205481565b6103df710b7abc627050305adf14a3d9e4000000000081565b61042561084936600461341b565b6111e0565b61042561085c36600461346e565b611247565b61042561086f366004613684565b6113d1565b610425610882366004613782565b600480546001600160a01b03199081166001600160a01b03938416179091559381166000908152600c60209081526040808320805463ffffffff1990811663ffffffff9a909a16998a17909155958416835280832080549096168817909555868252600e8152848220828052815284822082815560018181018190556002909101819055968252600b81528482209682529590955282852080548516929091169182179055838052922080549091169091179055565b610425610946366004613581565b6001600160a01b039283166000818152600c60209081526040808320805463ffffffff909a1663ffffffff19909a168a179055888352600d825280832097909755918152601082528581209790941680855296815284842092909255938252600f81528282209482529390935290912055565b6103df6109c73660046136b4565b611412565b6104256109da366004613ad2565b63ffffffff909216600090815260116020908152604080832093909355600d90522055565b6104e8610a0d366004613a10565b600b6020908152600092835260408084209091529082529020546001600160a01b031681565b610425610a4136600461393a565b611456565b610425610a54366004613ad2565b63ffffffff9092166000908152600d60209081526040808320849055600e82528083209383529290522055565b610425610a8f366004613ab7565b6115f4565b6001546104e8906001600160a01b031681565b610425610ab5366004613b3c565b611642565b6002546104e8906001600160a01b031681565b6103df610adb36600461343c565b601060209081526000928352604080842090915290825290205481565b610425610b063660046139aa565b63ffffffff90971660008181526014602090815260408083206001600160a01b03909a16808452998252808320879055838352601582528083208a845282528083209890985582825260168152878220988252978852868120959095558452601186528484209190915590825260138452828220556012909252902055565b610425610b93366004613ab7565b63ffffffff9091166000908152600e60209081526040808320838052909152902055565b610425610bc5366004613ad2565b61171d565b610425610bd8366004613b85565b63ffffffff969096166000908152600e6020908152604080832097835296905285812060018082019590955560029081019290925593845293909220908101919091550155565b6103df610c2d366004613714565b600a6020526000908152604090205481565b6103df610c4d366004613714565b600d6020526000908152604090205481565b610425610c6d366004613558565b61177d565b610425610c80366004613a3b565b61180d565b6005546104e8906001600160a01b031681565b610425610ca6366004613837565b88600d60008e63ffffffff1663ffffffff1681526020019081526020016000208190555086600f60008e63ffffffff1663ffffffff16815260200190815260200160002060008a6001600160a01b03166001600160a01b03168152602001908152602001600020819055508a600b60008e63ffffffff1663ffffffff1681526020019081526020016000206000600115151515815260200190815260200160002060006101000a8154816001600160a01b0302191690836001600160a01b0316021790555089600b60008e63ffffffff1663ffffffff16815260200190815260200160002060008015151515815260200190815260200160002060006101000a8154816001600160a01b0302191690836001600160a01b0316021790555085600e60008e63ffffffff1663ffffffff16815260200190815260200160002060008b81526020019081526020016000206001018190555083600e60008e63ffffffff1663ffffffff16815260200190815260200160002060008981526020019081526020016000206001018190555084600e60008e63ffffffff1663ffffffff16815260200190815260200160002060008b81526020019081526020016000206002018190555082600e60008e63ffffffff1663ffffffff16815260200190815260200160002060008981526020019081526020016000206002018190555081601060008d6001600160a01b03166001600160a01b0316815260200190815260200160002060008a6001600160a01b03166001600160a01b031681526020019081526020016000208190555080601060008c6001600160a01b03166001600160a01b0316815260200190815260200160002060008a6001600160a01b03166001600160a01b0316815260200190815260200160002081905550505050505050505050505050565b610425610f5a3660046136d5565b61190a565b6103df610f6d366004613714565b60076020526000908152604090205481565b610425610f8d36600461341b565b600480546001600160a01b0319166001600160a01b0392909216919091179055565b6103df603481565b610425610fc536600461361f565b611b79565b610425610fd8366004613558565b611be7565b6000546104e8906201000090046001600160a01b031681565b610425611004366004613ab7565b63ffffffff9091166000908152600a6020526040902055565b6103df61102b366004613714565b60096020526000908152604090205481565b61042561104b36600461341b565b611dbd565b61042561105e366004613b04565b63ffffffff939093166000908152600d60209081526040808320858155600e8352818420958452949091528082206001019290925591548252902060020155565b6103df6110ad36600461372e565b601460209081526000928352604080842090915290825290205481565b6110d2611efd565b6110dc8282611f4b565b6040805163ffffffff84168152602081018390527feb76801ec75076256b8590fd7c621c2541531e6b9ac568389fa5cdf72e66484491015b60405180910390a15050565b611128611efd565b6111328282611f78565b6040805163ffffffff84168152602081018390527f0430c32559bfcf3b024f216d4e0db41b7b521dcffe63ad1fc25826cf89fc1ced9101611114565b60048054604051636c8d2b9760e01b81526001600160a01b0390911691636c8d2b979161119f918691869101613bd7565b600060405180830381600087803b1580156111b957600080fd5b505af11580156111cd573d6000803e3d6000fd5b505050506111dc828233612001565b5050565b6111e8611efd565b6000805462010000600160b01b031916620100006001600160a01b038416908102919091179091556040519081527f927cc064d7b7fa546fa7706bc01845d27d06f15af3ae90a672cc44735928e961906020015b60405180910390a150565b600054610100900460ff1680611260575060005460ff16155b6112c85760405162461bcd60e51b815260206004820152602e60248201527f496e697469616c697a61626c653a20636f6e747261637420697320616c72656160448201526d191e481a5b9a5d1a585b1a5e995960921b60648201526084015b60405180910390fd5b600054610100900460ff161580156112ea576000805461ffff19166101011790555b6000805462010000600160b01b031916620100006001600160a01b038a81169190910291909117909155600180546001600160a01b0319908116868416179091556002805482168784161790556004805482168984161790556005805490911691871691909117905561135c826121c5565b604080516001600160a01b038981168252868116602083015285811682840152871660608201526080810184905290517faf92ca815edd9a90dc4aa1dfc722fb1624d5b5f914b25ae3cf979ce6600f0a969181900360a00190a180156113c8576000805461ff00191690555b50505050505050565b6113d9611efd565b6113e2816121c5565b6040518181527f062ffcd555faf2b2c81f26010ee6db2e23106941bfed5ae979abd111975d815d9060200161123c565b60008061142183610101613ca7565b90506000611430826002613d01565b90505b808386901c111561144e5761144783613ec7565b9250611433565b505092915050565b61145e6121eb565b6001600160a01b038088166000818152600c60209081526040808320805463ffffffff8f1663ffffffff199182168117909255958c1680855282852080549097168217909655808452600e8352818420848052835281842042815560018181018690556002909101859055908452600b835281842090845280835281842080546001600160a01b0319908116909617905583805290915290208054909116909117905561150b8883612236565b6115158882611f78565b6115208885876122c0565b61152a8884611f4b565b63ffffffff881660008181526011602090815260409182902060019055815192835282018590528101859052606081018690526080810183905260a081018290527f6bc257e0096888bfe19c27bfedca683fc71f53daaf42d4b9ff8e42ea783d67cf9060c00160405180910390a16040805163ffffffff8a16815260006020820181905291810182905260608101919091527f65663e89e16ccfe470dd659bacdf6fddae8185e108d00bc980d34be7e86466d0906080015b60405180910390a15050505050505050565b6115fc611efd565b6116068282612236565b6040805163ffffffff84168152602081018390527f45029298b28ebd606098e088e84698aad69cbe7d56cec6064a87ab6d85551e119101611114565b61164a6121eb565b80156116f75763ffffffff8616600081815260116020908152604080832054835260138252808320859055928252600d90522054611689906001613c61565b63ffffffff87166000818152601160208181526040808420805485526012835290842095909555928252909152815460019291906116c8908490613c61565b90915550506040517ffcd57474b9332c9108d9254a20e26a0255d04c0be335baa253a6f0cd443d2b9a90600090a15b600061170287612330565b111561171557611715868686868661236a565b505050505050565b611725611efd565b6117308383836122c0565b6040805163ffffffff85168152602081018490529081018290527fa1d30e827392d7c605768dc1c77c5dfbf58180ca1bb944ecfc8155765b7f53ca906060015b60405180910390a1505050565b3361178781612424565b60048054336000908152600c6020526040908190205490516305c8146f60e01b815263ffffffff909116928101929092526001600160a01b0316906305c8146f90602401600060405180830381600087803b1580156117e557600080fd5b505af11580156117f9573d6000803e3d6000fd5b50505050611808338385612484565b505050565b63ffffffff881660008181526014602090815260408083206001600160a01b038b16845282528083208790559282526011905220829055861561187b5763ffffffff881660009081526015602090815260408083206001600160a01b038a16845290915290208590556118a8565b63ffffffff881660009081526016602090815260408083206001600160a01b038a16845290915290208590555b63ffffffff9097166000908152600b60209081526040808320981515835297815287822080546001600160a01b039a8b166001600160a01b03199091168117909155825260108152878220969098168152949096525092909120919091555050565b63ffffffff82166000908152600b6020908152604080832084151584528252808320546001600160a01b031680845260108352818420338552909252909120548411156119995760405162461bcd60e51b815260206004820152601a60248201527f4e6f7420656e6f75676820746f6b656e7320746f20736869667400000000000060448201526064016112bf565b63ffffffff83166000908152601460209081526040808320338452909152902054158015906119ef575063ffffffff83166000908152601160209081526040808320546014835281842033855290925290912054105b156119fe576119fe83336125d8565b8115611aaa576004805460405163775811a960e11b815263ffffffff861692810192909252602482018690526001600160a01b03169063eeb0235290604401600060405180830381600087803b158015611a5757600080fd5b505af1158015611a6b573d6000803e3d6000fd5b5050505063ffffffff8316600090815260156020908152604080832033845290915281208054869290611a9f908490613c61565b90915550611b4b9050565b60048054604051633415694360e11b815263ffffffff861692810192909252602482018690526001600160a01b03169063682ad28690604401600060405180830381600087803b158015611afd57600080fd5b505af1158015611b11573d6000803e3d6000fd5b5050505063ffffffff8316600090815260166020908152604080832033845290915281208054869290611b45908490613c61565b90915550505b505063ffffffff16600090815260116020908152604080832054601483528184203385529092529091205550565b60048054604051636c8d2b9760e01b81526001600160a01b0390911691636c8d2b9791611baa918791879101613bd7565b600060405180830381600087803b158015611bc457600080fd5b505af1158015611bd8573d6000803e3d6000fd5b50505050611808838383612001565b600480546001600160a01b038481166000908152600c6020526040908190205490516305c8146f60e01b815263ffffffff9091169381019390935216906305c8146f90602401600060405180830381600087803b158015611c4757600080fd5b505af1158015611c5b573d6000803e3d6000fd5b505050506001600160a01b0382166000908152600c602052604090205463ffffffff16611c89818484612675565b63ffffffff81166000908152601460209081526040808320338452909152902054156118085763ffffffff81166000908152600b60209081526040808320600184529091528120546001600160a01b03858116911614611d095763ffffffff82166000908152601660209081526040808320338452909152902054611d2b565b63ffffffff821660009081526015602090815260408083203384529091529020545b6001600160a01b0385166000908152601060209081526040808320338452909152902054909150811115611db75760405162461bcd60e51b815260206004820152602d60248201527f4f75747374616e64696e67206e657874207072696365207374616b652073686960448201526c199d1cc81d1bdbc819dc99585d609a1b60648201526084016112bf565b50505050565b600480546001600160a01b038381166000908152600c6020526040908190205490516305c8146f60e01b815263ffffffff9091169381019390935216906305c8146f90602401600060405180830381600087803b158015611e1d57600080fd5b505af1158015611e31573d6000803e3d6000fd5b5050506001600160a01b038083166000818152600c602090815260408083205463ffffffff16808452600b83528184206001855290925282205490945090921614611e9c5763ffffffff82166000908152601660209081526040808320338452909152902054611ebe565b63ffffffff821660009081526015602090815260408083203384529091529020545b6001600160a01b03841660009081526010602090815260408083203384529091529020549091506118089083908590611ef8908590613eb0565b612675565b6000546201000090046001600160a01b03163314611f495760405162461bcd60e51b81526020600482015260096024820152683737ba1030b236b4b760b91b60448201526064016112bf565b565b66b1a2bc2ec50000811115611f5f57600080fd5b63ffffffff909116600090815260086020526040902055565b670c7d713b49d9ffff1981138015611f975750670c7d713b49da000081125b6110045760405162461bcd60e51b815260206004820152603560248201527f62616c616e6365496e63656e7469766543757276655f657175696c69627269756044820152746d4f6666736574206f7574206f6620626f756e647360581b60648201526084016112bf565b6000805b838110156121b457600061204d86868481811061203257634e487b7160e01b600052603260045260246000fd5b90506020020160208101906120479190613714565b856128d2565b905080156121a157600d600087878581811061207957634e487b7160e01b600052603260045260246000fd5b905060200201602081019061208e9190613714565b63ffffffff1663ffffffff16815260200190815260200160002054600f60008888868181106120cd57634e487b7160e01b600052603260045260246000fd5b90506020020160208101906120e29190613714565b63ffffffff168152602080820192909252604090810160009081206001600160a01b03891682529092529020556121198184613c61565b92507f2f0b57f663333228518fca119813fe0f6daeb5f19d087965f56b45fecf2d52058487878581811061215d57634e487b7160e01b600052603260045260246000fd5b90506020020160208101906121729190613714565b604080516001600160a01b03909316835263ffffffff9091166020830152810183905260600160405180910390a15b50806121ac81613ec7565b915050612005565b508015611db757611db78282612d82565b670de0b6b3a764000081111580156121dd5750600081115b6121e657600080fd5b600355565b6004546001600160a01b03163314611f495760405162461bcd60e51b815260206004820152600e60248201526d1b9bdd081b1bdb99c81cda1bdc9d60921b60448201526064016112bf565b6000811180156122465750600681105b6122a75760405162461bcd60e51b815260206004820152602c60248201527f62616c616e6365496e63656e7469766543757276655f6578706f6e656e74206f60448201526b7574206f6620626f756e647360a01b60648201526084016112bf565b63ffffffff909116600090815260096020526040902055565b670de0b6b3a76400008110156104005760405162461bcd60e51b815260206004820152602f60248201527f6d61726b65744c61756e6368496e63656e746976654d756c7469706c6965722060448201526e0daeae6e840c4ca407c7a4062ca627608b1b60648201526084016112bf565b63ffffffff81166000908152600e60209081526040808320600d83528184205484529091528120546123629042613eb0565b90505b919050565b60008061237a8787878787612e7e565b63ffffffff89166000908152600d6020526040812054929450909250906123a2906001613c61565b63ffffffff89166000818152600e6020908152604080832085845282528083206001810189905560028101889055429055838352600d825291829020849055815192835282018390528101859052606081018490529091507f65663e89e16ccfe470dd659bacdf6fddae8185e108d00bc980d34be7e86466d0906080016115e2565b6001600160a01b0381166000908152600c602052604090205463ffffffff166124815760405162461bcd60e51b815260206004820152600f60248201526e0dcdee840ecc2d8d2c840e6f2dce8d608b1b60448201526064016112bf565b50565b6001600160a01b038084166000908152600c602090815260408083205463ffffffff16808452600f8352818420948616845293909152902054158015906124fb575063ffffffff81166000908152600d6020908152604080832054600f83528184206001600160a01b038716855290925290912054105b1561250a5761250a81836125d8565b6001600160a01b0380851660009081526010602090815260408083209386168352929052205461253b908490613c61565b6001600160a01b0385811660008181526010602090815260408083209488168084529482528083209590955563ffffffff86168252600d815284822054600f8252858320858452825291859020829055845193845283019190915291810185905260608101919091527fef7c8dfef14cbefdf829b8f066b068b677992411137321d64b3ed4538c2b3637906080015b60405180910390a150505050565b60006125e483836128d2565b905080156118085763ffffffff83166000908152600d6020908152604080832054600f83528184206001600160a01b0387168552909252909120556126298282612d82565b604080516001600160a01b038416815263ffffffff851660208201529081018290527f2f0b57f663333228518fca119813fe0f6daeb5f19d087965f56b45fecf2d520590606001611770565b6001600160a01b03821660009081526010602090815260408083203384529091529020546126db5760405162461bcd60e51b81526020600482015260136024820152726e6f7468696e6720746f20776974686472617760681b60448201526064016112bf565b6126e583336125d8565b6001600160a01b0382166000908152601060209081526040808320338452909152902054612714908290613eb0565b6001600160a01b038316600090815260106020908152604080832033845282528083209390935563ffffffff861682526008905290812054670de0b6b3a7640000906127609084613e52565b61276a9190613ca7565b60025460405163a9059cbb60e01b81526001600160a01b0391821660048201526024810183905291925084169063a9059cbb90604401602060405180830381600087803b1580156127ba57600080fd5b505af11580156127ce573d6000803e3d6000fd5b505050506040513d601f19601f820116820180604052508101906127f29190613668565b506001600160a01b03831663a9059cbb3361280d8486613eb0565b6040516001600160e01b031960e085901b1681526001600160a01b0390921660048301526024820152604401602060405180830381600087803b15801561285357600080fd5b505af1158015612867573d6000803e3d6000fd5b505050506040513d601f19601f8201168201806040525081019061288b9190613668565b50604080513381526001600160a01b03851660208201529081018390527fb7c918e0e249f999e965cafeb6c664271b3f4317d296461500e71da39f0cbda3906060016125ca565b63ffffffff82166000818152600b6020908152604080832060018452825280832054838052818420546001600160a01b0391821680865260108086528487208985168089529087528588205494909316808852908652848720838852865284872054888852600f875285882093885292865284872054978752600d90955292852054949592949192909181141561297157600095505050505050612d7c565b63ffffffff881660009081526014602090815260408083206001600160a01b038b16845290915290205480158015906129be575063ffffffff891660009081526011602052604090205481105b15612d46576129e3898585856012600087815260200190815260200160002054612f32565b63ffffffff8a1660009081526015602090815260408083206001600160a01b038d16845290915290205490975015612b42576004805463ffffffff8b1660008181526015602090815260408083206001600160a01b038f8116855290835281842054888552601390935292819020549051630125edfd60e71b815295860193909352602485015260016044850152606484019190915216906392f6fe809060840160206040518083038186803b158015612a9c57600080fd5b505afa158015612ab0573d6000803e3d6000fd5b505050506040513d601f19601f82011682018060405250810190612ad4919061369c565b612ade9084613c61565b63ffffffff8a1660009081526015602090815260408083206001600160a01b038d168452909152902054909350612b159085613eb0565b63ffffffff8a1660009081526015602090815260408083206001600160a01b038d16845290915281205593505b63ffffffff891660009081526016602090815260408083206001600160a01b038c16845290915290205415612c9e576004805463ffffffff8b1660008181526016602090815260408083206001600160a01b038f81168552908352818420548885526013909352818420549151630125edfd60e71b81529687019490945260248601919091526044850191909152606484015216906392f6fe809060840160206040518083038186803b158015612bf857600080fd5b505afa158015612c0c573d6000803e3d6000fd5b505050506040513d601f19601f82011682018060405250810190612c30919061369c565b612c3a9085613c61565b63ffffffff8a1660009081526016602090815260408083206001600160a01b038d168452909152902054909450612c719084613eb0565b63ffffffff8a1660009081526016602090815260408083206001600160a01b038d16845290915281205592505b6001600160a01b0380871660009081526010602081815260408084208d86168086529083528185208a9055948a168452918152818320938352928352808220869055838252601283528082205463ffffffff8d168352600d909352902054612d0b918b9187918791612f32565b612d159088613c61565b63ffffffff8a1660009081526014602090815260408083206001600160a01b038d1684529091528120559650612d75565b612d7289858585600d60008f63ffffffff1663ffffffff16815260200190815260200160002054612f32565b96505b5050505050505b92915050565b6005546040516340c10f1960e01b81526001600160a01b03848116600483015260248201849052909116906340c10f1990604401600060405180830381600087803b158015612dd057600080fd5b505af1158015612de4573d6000803e3d6000fd5b50506005546001546003546001600160a01b0392831694506340c10f199350911690670de0b6b3a764000090612e1a9086613e52565b612e249190613ca7565b6040516001600160e01b031960e085901b1681526001600160a01b0390921660048301526024820152604401600060405180830381600087803b158015612e6a57600080fd5b505af1158015611715573d6000803e3d6000fd5b600080600080612e918989898989613029565b915091506000612ea08a612330565b9050612eac8382613e52565b63ffffffff8b166000908152600e60209081526040808320600d8352818420548452909152902060010154612ee19190613c61565b612eeb8383613e52565b63ffffffff8c166000908152600e60209081526040808320600d8352818420548452909152902060020154612f209190613c61565b945094505050505b9550959350505050565b60008415612faa5763ffffffff86166000908152600e602090815260408083208684529091528082206001908101548584529183200154612f739190613eb0565b9050710b7abc627050305adf14a3d9e40000000000612f928783613e52565b612f9c9190613ca7565b612fa69083613c61565b9150505b83156130205763ffffffff86166000908152600e602090815260408083208684529091528082206002908101548584529183200154612fe99190613eb0565b9050710b7abc627050305adf14a3d9e400000000006130088683613e52565b6130129190613ca7565b61301c9083613c61565b9150505b95945050505050565b6000806000613037886132a3565b905060006130458587613c61565b63ffffffff8a166000908152600a602052604081205491925090671bc16d674ec8000090613074908490613dcf565b61307e9190613c79565b63ffffffff8b16600090815260096020526040812054919250906130a690603485901c613d01565b9050876130b38389613e71565b12156131bc578682126130ec576000896130d586670de0b6b3a7640000613e52565b6130df9190613e52565b9550955050505050612f28565b63ffffffff8b1660009081526009602052604081205461310e60016034613eb0565b613118858b613e71565b61312392911c613d01565b905060008261313a836706f05b59d3b20000613e52565b6131449190613ca7565b9050600061315a82670de0b6b3a7640000613eb0565b9050670de0b6b3a76400008d6131708985613e52565b61317a9190613e52565b6131849190613ca7565b670de0b6b3a76400008d6131988a85613e52565b6131a29190613e52565b6131ac9190613ca7565b9850985050505050505050612f28565b876131c683613ee2565b126131f757896131de85670de0b6b3a7640000613e52565b6131e89190613e52565b60009550955050505050612f28565b63ffffffff8b1660009081526009602052604081205461321960016034613eb0565b613223858c613c20565b61322e92911c613d01565b9050600082613245836706f05b59d3b20000613e52565b61324f9190613ca7565b9050600061326582670de0b6b3a7640000613eb0565b9050670de0b6b3a76400008d61327b8984613e52565b6132859190613e52565b61328f9190613ca7565b670de0b6b3a76400008d6131988a86613e52565b60008060006132b184613364565b91509150670de0b6b3a76400008110156132db57634e487b7160e01b600052600160045260246000fd5b63ffffffff84166000908152600e60209081526040808320838052909152902054826133078242613eb0565b1161335157826133178242613eb0565b613329670de0b6b3a764000085613eb0565b6133339190613e52565b61333d9190613ca7565b6133479083613eb0565b9350505050612365565b670de0b6b3a76400009350505050612365565b63ffffffff8116600090815260066020908152604080832054600790925290912054670de0b6b3a76400008110156133a15750670de0b6b3a76400005b915091565b80356001600160a01b038116811461236557600080fd5b60008083601f8401126133ce578182fd5b50813567ffffffffffffffff8111156133e5578182fd5b6020830191508360208260051b850101111561340057600080fd5b9250929050565b803563ffffffff8116811461236557600080fd5b60006020828403121561342c578081fd5b613435826133a6565b9392505050565b6000806040838503121561344e578081fd5b613457836133a6565b9150613465602084016133a6565b90509250929050565b60008060008060008060c08789031215613486578182fd5b61348f876133a6565b955061349d602088016133a6565b94506134ab604088016133a6565b93506134b9606088016133a6565b92506134c7608088016133a6565b915060a087013590509295509295509295565b6000806000606084860312156134ee578283fd5b6134f7846133a6565b9250613505602085016133a6565b915061351360408501613407565b90509250925092565b6000806040838503121561352e578182fd5b613537836133a6565b9150602083013561ffff8116811461354d578182fd5b809150509250929050565b6000806040838503121561356a578182fd5b613573836133a6565b946020939093013593505050565b60008060008060008060c08789031215613599578182fd5b6135a2876133a6565b95506135b060208801613407565b9450604087013593506135c5606088016133a6565b92506080870135915060a087013590509295509295509295565b600080602083850312156135f1578182fd5b823567ffffffffffffffff811115613607578283fd5b613613858286016133bd565b90969095509350505050565b600080600060408486031215613633578283fd5b833567ffffffffffffffff811115613649578384fd5b613655868287016133bd565b90945092506135139050602085016133a6565b600060208284031215613679578081fd5b815161343581613f28565b600060208284031215613695578081fd5b5035919050565b6000602082840312156136ad578081fd5b5051919050565b600080604083850312156136c6578182fd5b50508035926020909101359150565b6000806000606084860312156136e9578081fd5b833592506136f960208501613407565b9150604084013561370981613f28565b809150509250925092565b600060208284031215613725578081fd5b61343582613407565b60008060408385031215613740578182fd5b61345783613407565b60008060006060848603121561375d578081fd5b61376684613407565b9250613774602085016133a6565b9150613513604085016133a6565b600080600080600060a08688031215613799578283fd5b6137a286613407565b94506137b0602087016133a6565b93506137be604087016133a6565b92506137cc606087016133a6565b91506137da608087016133a6565b90509295509295909350565b600080600080600060a086880312156137fd578283fd5b61380686613407565b9450613814602087016133a6565b9350613822604087016133a6565b9250606086013591506137da608087016133a6565b6000806000806000806000806000806000806101808d8f03121561385957898afd5b6138628d613407565b9b5061387060208e016133a6565b9a5061387e60408e016133a6565b995060608d0135985061389360808e016133a6565b9b9e9a9d50989b979a9960a0890135995060c08901359860e0810135985061010081013597506101208101359650610140810135955061016001359350915050565b60008060008060008060c087890312156138ed578384fd5b6138f687613407565b9550613904602088016133a6565b9450613912604088016133a6565b9350606087013592506080870135915061392e60a088016133a6565b90509295509295509295565b600080600080600080600080610100898b031215613956578182fd5b61395f89613407565b975061396d60208a016133a6565b965061397b60408a016133a6565b979a96995096976060810135975060808101359660a0820135965060c0820135955060e0909101359350915050565b600080600080600080600080610100898b0312156139c6578182fd5b6139cf89613407565b97506139dd60208a016133a6565b979a9799505050506040860135956060810135956080820135955060a0820135945060c0820135935060e0909101359150565b60008060408385031215613a22578182fd5b613a2b83613407565b9150602083013561354d81613f28565b600080600080600080600080610100898b031215613a57578182fd5b613a6089613407565b97506020890135613a7081613f28565b9650613a7e60408a016133a6565b9550606089013594506080890135935060a0890135925060c08901359150613aa860e08a016133a6565b90509295985092959890939650565b60008060408385031215613ac9578182fd5b61357383613407565b600080600060608486031215613ae6578081fd5b613aef84613407565b95602085013595506040909401359392505050565b60008060008060808587031215613b19578182fd5b613b2285613407565b966020860135965060408601359560600135945092505050565b60008060008060008060c08789031215613b54578384fd5b613b5d87613407565b9860208801359850604088013597606081013597506080810135965060a00135945092505050565b600080600080600080600060e0888a031215613b9f578081fd5b613ba888613407565b9960208901359950604089013598606081013598506080810135975060a0810135965060c00135945092505050565b60208082528181018390526000908460408401835b86811015613c155763ffffffff613c0284613407565b1682529183019190830190600101613bec565b509695505050505050565b600080821280156001600160ff1b0384900385131615613c4257613c42613efc565b600160ff1b8390038412811615613c5b57613c5b613efc565b50500190565b60008219821115613c7457613c74613efc565b500190565b600082613c8857613c88613f12565b600160ff1b821460001984141615613ca257613ca2613efc565b500590565b600082613cb657613cb6613f12565b500490565b80825b6001808611613ccd5750613cf8565b818704821115613cdf57613cdf613efc565b80861615613cec57918102915b9490941c938002613cbe565b94509492505050565b60006134356000198484600082613d1a57506001613435565b81613d2757506000613435565b8160018114613d3d5760028114613d4757613d74565b6001915050613435565b60ff841115613d5857613d58613efc565b6001841b915084821115613d6e57613d6e613efc565b50613435565b5060208310610133831016604e8410600b8410161715613da7575081810a83811115613da257613da2613efc565b613435565b613db48484846001613cbb565b808604821115613dc657613dc6613efc565b02949350505050565b60006001600160ff1b0381841382841380821686840486111615613df557613df5613efc565b600160ff1b84871282811687830589121615613e1357613e13613efc565b858712925087820587128484161615613e2e57613e2e613efc565b87850587128184161615613e4457613e44613efc565b505050929093029392505050565b6000816000190483118215151615613e6c57613e6c613efc565b500290565b60008083128015600160ff1b850184121615613e8f57613e8f613efc565b6001600160ff1b0384018313811615613eaa57613eaa613efc565b50500390565b600082821015613ec257613ec2613efc565b500390565b6000600019821415613edb57613edb613efc565b5060010190565b6000600160ff1b821415613ef857613ef8613efc565b0390565b634e487b7160e01b600052601160045260246000fd5b634e487b7160e01b600052601260045260246000fd5b801515811461248157600080fdfea26469706673582212209eca706f86bf8ee40a1c1491e91776b166d0899cf7641a32b75559e29689292f64736f6c63430008030033",
  "linkReferences": {},
  "deployedLinkReferences": {}
}