{
  "contracts/tests/FixedInterestRateModelMock.sol": {
    "FixedInterestRateModelMock": {
      "abi": [
        {
          "inputs": [
            {
              "internalType": "uint256",
              "name": "interestRatePerBlock_",
              "type": "uint256"
            }
          ],
          "stateMutability": "nonpayable",
          "type": "constructor"
        },
        {
          "inputs": [],
          "name": "getBorrowRate",
          "outputs": [
            {
              "internalType": "uint256",
              "name": "",
              "type": "uint256"
            }
          ],
          "stateMutability": "view",
          "type": "function"
        },
        {
          "inputs": [
            {
              "internalType": "uint256",
              "name": "reserveFactorMantissa",
              "type": "uint256"
            }
          ],
          "name": "getSupplyRate",
          "outputs": [
            {
              "internalType": "uint256",
              "name": "",
              "type": "uint256"
            }
          ],
          "stateMutability": "view",
          "type": "function"
        },
        {
          "inputs": [],
          "name": "interestRatePerBlock",
          "outputs": [
            {
              "internalType": "uint256",
              "name": "",
              "type": "uint256"
            }
          ],
          "stateMutability": "view",
          "type": "function"
        },
        {
          "inputs": [],
          "name": "isInterestRateModel",
          "outputs": [
            {
              "internalType": "bool",
              "name": "",
              "type": "bool"
            }
          ],
          "stateMutability": "view",
          "type": "function"
        },
        {
          "inputs": [
            {
              "internalType": "uint256",
              "name": "interestRatePerBlock_",
              "type": "uint256"
            }
          ],
          "name": "setInterestRate",
          "outputs": [],
          "stateMutability": "nonpayable",
          "type": "function"
        }
      ],
      "devdoc": {
        "kind": "dev",
        "methods": {},
        "version": 1
      },
      "evm": {
        "bytecode": {
          "linkReferences": {},
          "object": "608060405234801561001057600080fd5b5060405161021238038061021283398101604081905261002f91610037565b60005561004f565b600060208284031215610048578081fd5b5051919050565b6101b48061005e6000396000f3fe608060405234801561001057600080fd5b50600436106100575760003560e01c80632191f92a1461005c5780632ff7709e146100795780635f84f30214610090578063ba1c5e80146100a5578063d955759d146100ad575b600080fd5b610064600181565b60405190151581526020015b60405180910390f35b61008260005481565b604051908152602001610070565b6100a361009e3660046100fa565b600055565b005b600054610082565b6100826100bb3660046100fa565b6000806100d083670de0b6b3a7640000610151565b9050670de0b6b3a7640000816000546100e99190610132565b6100f39190610112565b9392505050565b60006020828403121561010b578081fd5b5035919050565b60008261012d57634e487b7160e01b81526012600452602481fd5b500490565b600081600019048311821515161561014c5761014c610168565b500290565b60008282101561016357610163610168565b500390565b634e487b7160e01b600052601160045260246000fdfea2646970667358221220d54a5d17dee7dc75f2fcd2f47118d4ac56c2a686e9573a4a3dc19c8734966df464736f6c63430008040033",
          "opcodes": "PUSH1 0x80 PUSH1 0x40 MSTORE CALLVALUE DUP1 ISZERO PUSH2 0x10 JUMPI PUSH1 0x0 DUP1 REVERT JUMPDEST POP PUSH1 0x40 MLOAD PUSH2 0x212 CODESIZE SUB DUP1 PUSH2 0x212 DUP4 CODECOPY DUP2 ADD PUSH1 0x40 DUP2 SWAP1 MSTORE PUSH2 0x2F SWAP2 PUSH2 0x37 JUMP JUMPDEST PUSH1 0x0 SSTORE PUSH2 0x4F JUMP JUMPDEST PUSH1 0x0 PUSH1 0x20 DUP3 DUP5 SUB SLT ISZERO PUSH2 0x48 JUMPI DUP1 DUP2 REVERT JUMPDEST POP MLOAD SWAP2 SWAP1 POP JUMP JUMPDEST PUSH2 0x1B4 DUP1 PUSH2 0x5E PUSH1 0x0 CODECOPY PUSH1 0x0 RETURN INVALID PUSH1 0x80 PUSH1 0x40 MSTORE CALLVALUE DUP1 ISZERO PUSH2 0x10 JUMPI PUSH1 0x0 DUP1 REVERT JUMPDEST POP PUSH1 0x4 CALLDATASIZE LT PUSH2 0x57 JUMPI PUSH1 0x0 CALLDATALOAD PUSH1 0xE0 SHR DUP1 PUSH4 0x2191F92A EQ PUSH2 0x5C JUMPI DUP1 PUSH4 0x2FF7709E EQ PUSH2 0x79 JUMPI DUP1 PUSH4 0x5F84F302 EQ PUSH2 0x90 JUMPI DUP1 PUSH4 0xBA1C5E80 EQ PUSH2 0xA5 JUMPI DUP1 PUSH4 0xD955759D EQ PUSH2 0xAD JUMPI JUMPDEST PUSH1 0x0 DUP1 REVERT JUMPDEST PUSH2 0x64 PUSH1 0x1 DUP2 JUMP JUMPDEST PUSH1 0x40 MLOAD SWAP1 ISZERO ISZERO DUP2 MSTORE PUSH1 0x20 ADD JUMPDEST PUSH1 0x40 MLOAD DUP1 SWAP2 SUB SWAP1 RETURN JUMPDEST PUSH2 0x82 PUSH1 0x0 SLOAD DUP2 JUMP JUMPDEST PUSH1 0x40 MLOAD SWAP1 DUP2 MSTORE PUSH1 0x20 ADD PUSH2 0x70 JUMP JUMPDEST PUSH2 0xA3 PUSH2 0x9E CALLDATASIZE PUSH1 0x4 PUSH2 0xFA JUMP JUMPDEST PUSH1 0x0 SSTORE JUMP JUMPDEST STOP JUMPDEST PUSH1 0x0 SLOAD PUSH2 0x82 JUMP JUMPDEST PUSH2 0x82 PUSH2 0xBB CALLDATASIZE PUSH1 0x4 PUSH2 0xFA JUMP JUMPDEST PUSH1 0x0 DUP1 PUSH2 0xD0 DUP4 PUSH8 0xDE0B6B3A7640000 PUSH2 0x151 JUMP JUMPDEST SWAP1 POP PUSH8 0xDE0B6B3A7640000 DUP2 PUSH1 0x0 SLOAD PUSH2 0xE9 SWAP2 SWAP1 PUSH2 0x132 JUMP JUMPDEST PUSH2 0xF3 SWAP2 SWAP1 PUSH2 0x112 JUMP JUMPDEST SWAP4 SWAP3 POP POP POP JUMP JUMPDEST PUSH1 0x0 PUSH1 0x20 DUP3 DUP5 SUB SLT ISZERO PUSH2 0x10B JUMPI DUP1 DUP2 REVERT JUMPDEST POP CALLDATALOAD SWAP2 SWAP1 POP JUMP JUMPDEST PUSH1 0x0 DUP3 PUSH2 0x12D JUMPI PUSH4 0x4E487B71 PUSH1 0xE0 SHL DUP2 MSTORE PUSH1 0x12 PUSH1 0x4 MSTORE PUSH1 0x24 DUP2 REVERT JUMPDEST POP DIV SWAP1 JUMP JUMPDEST PUSH1 0x0 DUP2 PUSH1 0x0 NOT DIV DUP4 GT DUP3 ISZERO ISZERO AND ISZERO PUSH2 0x14C JUMPI PUSH2 0x14C PUSH2 0x168 JUMP JUMPDEST POP MUL SWAP1 JUMP JUMPDEST PUSH1 0x0 DUP3 DUP3 LT ISZERO PUSH2 0x163 JUMPI PUSH2 0x163 PUSH2 0x168 JUMP JUMPDEST POP SUB SWAP1 JUMP JUMPDEST PUSH4 0x4E487B71 PUSH1 0xE0 SHL PUSH1 0x0 MSTORE PUSH1 0x11 PUSH1 0x4 MSTORE PUSH1 0x24 PUSH1 0x0 REVERT INVALID LOG2 PUSH5 0x6970667358 0x22 SLT KECCAK256 0xD5 0x4A 0x5D OR 0xDE 0xE7 0xDC PUSH22 0xF2FCD2F47118D4AC56C2A686E9573A4A3DC19C873496 PUSH14 0xF464736F6C634300080400330000 "
        },
        "gasEstimates": {
          "creation": {
            "codeDepositCost": "87200",
            "executionCost": "infinite",
            "totalCost": "infinite"
          },
          "external": {
            "getBorrowRate()": "1036",
            "getSupplyRate(uint256)": "1383",
            "interestRatePerBlock()": "995",
            "isInterestRateModel()": "168",
            "setInterestRate(uint256)": "20234"
          }
        },
        "methodIdentifiers": {
          "getBorrowRate()": "ba1c5e80",
          "getSupplyRate(uint256)": "d955759d",
          "interestRatePerBlock()": "2ff7709e",
          "isInterestRateModel()": "2191f92a",
          "setInterestRate(uint256)": "5f84f302"
        }
      },
      "storageLayout": {
        "storage": [
          {
            "astId": 6,
            "contract": "contracts/tests/FixedInterestRateModelMock.sol:FixedInterestRateModelMock",
            "label": "interestRatePerBlock",
            "offset": 0,
            "slot": "0",
            "type": "t_uint256"
          }
        ],
        "types": {
          "t_uint256": {
            "encoding": "inplace",
            "label": "uint256",
            "numberOfBytes": "32"
          }
        }
      },
      "userdoc": {
        "kind": "user",
        "methods": {},
        "version": 1
      }
    }
  }
}