{
  "contracts/tests/UserManagerMock.sol": {
    "UserManagerMock": {
      "abi": [
        {
          "inputs": [],
          "name": "MAX_STAKE_AMOUNT",
          "outputs": [
            {
              "internalType": "uint256",
              "name": "",
              "type": "uint256"
            }
          ],
          "stateMutability": "view",
          "type": "function"
        },
        {
          "inputs": [],
          "name": "MAX_TRUST_LIMIT",
          "outputs": [
            {
              "internalType": "uint256",
              "name": "",
              "type": "uint256"
            }
          ],
          "stateMutability": "view",
          "type": "function"
        },
        {
          "inputs": [],
          "name": "__UserManager_init",
          "outputs": [],
          "stateMutability": "nonpayable",
          "type": "function"
        },
        {
          "inputs": [
            {
              "internalType": "address",
              "name": "account",
              "type": "address"
            }
          ],
          "name": "addMember",
          "outputs": [],
          "stateMutability": "nonpayable",
          "type": "function"
        },
        {
          "inputs": [
            {
              "internalType": "address[]",
              "name": "",
              "type": "address[]"
            },
            {
              "internalType": "bool[]",
              "name": "",
              "type": "bool[]"
            }
          ],
          "name": "batchUpdateTotalFrozen",
          "outputs": [],
          "stateMutability": "nonpayable",
          "type": "function"
        },
        {
          "inputs": [
            {
              "internalType": "address",
              "name": "staker",
              "type": "address"
            },
            {
              "internalType": "address",
              "name": "borrower",
              "type": "address"
            }
          ],
          "name": "cancelVouch",
          "outputs": [],
          "stateMutability": "nonpayable",
          "type": "function"
        },
        {
          "inputs": [
            {
              "internalType": "address",
              "name": "",
              "type": "address"
            }
          ],
          "name": "checkIsMember",
          "outputs": [
            {
              "internalType": "bool",
              "name": "",
              "type": "bool"
            }
          ],
          "stateMutability": "view",
          "type": "function"
        },
        {
          "inputs": [
            {
              "internalType": "address",
              "name": "borrower",
              "type": "address"
            },
            {
              "internalType": "uint256",
              "name": "amount",
              "type": "uint256"
            }
          ],
          "name": "debtWriteOff",
          "outputs": [],
          "stateMutability": "nonpayable",
          "type": "function"
        },
        {
          "inputs": [
            {
              "internalType": "address",
              "name": "account",
              "type": "address"
            }
          ],
          "name": "getBorrowerAddresses",
          "outputs": [
            {
              "internalType": "address[]",
              "name": "",
              "type": "address[]"
            }
          ],
          "stateMutability": "view",
          "type": "function"
        },
        {
          "inputs": [
            {
              "internalType": "address",
              "name": "account",
              "type": "address"
            },
            {
              "internalType": "address",
              "name": "borrower",
              "type": "address"
            }
          ],
          "name": "getBorrowerAsset",
          "outputs": [
            {
              "internalType": "uint256",
              "name": "trustAmount",
              "type": "uint256"
            },
            {
              "internalType": "uint256",
              "name": "vouchingAmount",
              "type": "uint256"
            },
            {
              "internalType": "uint256",
              "name": "lockedStake",
              "type": "uint256"
            }
          ],
          "stateMutability": "view",
          "type": "function"
        },
        {
          "inputs": [
            {
              "internalType": "address",
              "name": "",
              "type": "address"
            }
          ],
          "name": "getCreditLimit",
          "outputs": [
            {
              "internalType": "int256",
              "name": "",
              "type": "int256"
            }
          ],
          "stateMutability": "view",
          "type": "function"
        },
        {
          "inputs": [
            {
              "internalType": "address",
              "name": "staker",
              "type": "address"
            },
            {
              "internalType": "uint256",
              "name": "pastBlocks",
              "type": "uint256"
            }
          ],
          "name": "getFrozenCoinAge",
          "outputs": [
            {
              "internalType": "uint256",
              "name": "",
              "type": "uint256"
            }
          ],
          "stateMutability": "view",
          "type": "function"
        },
        {
          "inputs": [
            {
              "internalType": "address",
              "name": "staker",
              "type": "address"
            },
            {
              "internalType": "address",
              "name": "borrower",
              "type": "address"
            }
          ],
          "name": "getLockedStake",
          "outputs": [
            {
              "internalType": "uint256",
              "name": "",
              "type": "uint256"
            }
          ],
          "stateMutability": "view",
          "type": "function"
        },
        {
          "inputs": [
            {
              "internalType": "address",
              "name": "account",
              "type": "address"
            }
          ],
          "name": "getStakerAddresses",
          "outputs": [
            {
              "internalType": "address[]",
              "name": "",
              "type": "address[]"
            }
          ],
          "stateMutability": "view",
          "type": "function"
        },
        {
          "inputs": [
            {
              "internalType": "address",
              "name": "account",
              "type": "address"
            },
            {
              "internalType": "address",
              "name": "staker",
              "type": "address"
            }
          ],
          "name": "getStakerAsset",
          "outputs": [
            {
              "internalType": "uint256",
              "name": "trustAmount",
              "type": "uint256"
            },
            {
              "internalType": "uint256",
              "name": "vouchingAmount",
              "type": "uint256"
            },
            {
              "internalType": "uint256",
              "name": "lockedStake",
              "type": "uint256"
            }
          ],
          "stateMutability": "view",
          "type": "function"
        },
        {
          "inputs": [
            {
              "internalType": "address",
              "name": "",
              "type": "address"
            }
          ],
          "name": "getStakerBalance",
          "outputs": [
            {
              "internalType": "uint256",
              "name": "",
              "type": "uint256"
            }
          ],
          "stateMutability": "view",
          "type": "function"
        },
        {
          "inputs": [
            {
              "internalType": "address",
              "name": "",
              "type": "address"
            }
          ],
          "name": "getTotalFrozenAmount",
          "outputs": [
            {
              "internalType": "uint256",
              "name": "",
              "type": "uint256"
            }
          ],
          "stateMutability": "view",
          "type": "function"
        },
        {
          "inputs": [
            {
              "internalType": "address",
              "name": "",
              "type": "address"
            }
          ],
          "name": "getTotalLockedStake",
          "outputs": [
            {
              "internalType": "uint256",
              "name": "",
              "type": "uint256"
            }
          ],
          "stateMutability": "view",
          "type": "function"
        },
        {
          "inputs": [
            {
              "internalType": "address",
              "name": "staker",
              "type": "address"
            },
            {
              "internalType": "address",
              "name": "borrower",
              "type": "address"
            }
          ],
          "name": "getVouchingAmount",
          "outputs": [
            {
              "internalType": "uint256",
              "name": "",
              "type": "uint256"
            }
          ],
          "stateMutability": "view",
          "type": "function"
        },
        {
          "inputs": [],
          "name": "isMember",
          "outputs": [
            {
              "internalType": "bool",
              "name": "",
              "type": "bool"
            }
          ],
          "stateMutability": "view",
          "type": "function"
        },
        {
          "inputs": [],
          "name": "limit",
          "outputs": [
            {
              "internalType": "int256",
              "name": "",
              "type": "int256"
            }
          ],
          "stateMutability": "view",
          "type": "function"
        },
        {
          "inputs": [],
          "name": "newMemberFee",
          "outputs": [
            {
              "internalType": "uint256",
              "name": "",
              "type": "uint256"
            }
          ],
          "stateMutability": "view",
          "type": "function"
        },
        {
          "inputs": [
            {
              "internalType": "address",
              "name": "newMember",
              "type": "address"
            }
          ],
          "name": "registerMember",
          "outputs": [],
          "stateMutability": "nonpayable",
          "type": "function"
        },
        {
          "inputs": [
            {
              "internalType": "address",
              "name": "newMember",
              "type": "address"
            },
            {
              "internalType": "uint256",
              "name": "value",
              "type": "uint256"
            },
            {
              "internalType": "uint256",
              "name": "deadline",
              "type": "uint256"
            },
            {
              "internalType": "uint8",
              "name": "v",
              "type": "uint8"
            },
            {
              "internalType": "bytes32",
              "name": "r",
              "type": "bytes32"
            },
            {
              "internalType": "bytes32",
              "name": "s",
              "type": "bytes32"
            }
          ],
          "name": "registerMemberWithPermit",
          "outputs": [],
          "stateMutability": "nonpayable",
          "type": "function"
        },
        {
          "inputs": [
            {
              "internalType": "address",
              "name": "account",
              "type": "address"
            },
            {
              "internalType": "address",
              "name": "token",
              "type": "address"
            },
            {
              "internalType": "uint256",
              "name": "lastRepay",
              "type": "uint256"
            }
          ],
          "name": "repayLoanOverdue",
          "outputs": [],
          "stateMutability": "nonpayable",
          "type": "function"
        },
        {
          "inputs": [
            {
              "internalType": "int256",
              "name": "limit_",
              "type": "int256"
            }
          ],
          "name": "setCreditLimit",
          "outputs": [],
          "stateMutability": "nonpayable",
          "type": "function"
        },
        {
          "inputs": [
            {
              "internalType": "bool",
              "name": "isMember_",
              "type": "bool"
            }
          ],
          "name": "setIsMember",
          "outputs": [],
          "stateMutability": "nonpayable",
          "type": "function"
        },
        {
          "inputs": [
            {
              "internalType": "uint256",
              "name": "amount",
              "type": "uint256"
            }
          ],
          "name": "setNewMemberFee",
          "outputs": [],
          "stateMutability": "nonpayable",
          "type": "function"
        },
        {
          "inputs": [
            {
              "internalType": "uint256",
              "name": "stakerBalance_",
              "type": "uint256"
            }
          ],
          "name": "setStakerBalance",
          "outputs": [],
          "stateMutability": "nonpayable",
          "type": "function"
        },
        {
          "inputs": [
            {
              "internalType": "uint256",
              "name": "totalFrozenAmount_",
              "type": "uint256"
            }
          ],
          "name": "setTotalFrozenAmount",
          "outputs": [],
          "stateMutability": "nonpayable",
          "type": "function"
        },
        {
          "inputs": [
            {
              "internalType": "uint256",
              "name": "totalLockedStake_",
              "type": "uint256"
            }
          ],
          "name": "setTotalLockedStake",
          "outputs": [],
          "stateMutability": "nonpayable",
          "type": "function"
        },
        {
          "inputs": [
            {
              "internalType": "uint256",
              "name": "amount",
              "type": "uint256"
            }
          ],
          "name": "stake",
          "outputs": [],
          "stateMutability": "nonpayable",
          "type": "function"
        },
        {
          "inputs": [
            {
              "internalType": "uint256",
              "name": "amount",
              "type": "uint256"
            },
            {
              "internalType": "uint256",
              "name": "nonce",
              "type": "uint256"
            },
            {
              "internalType": "uint256",
              "name": "expiry",
              "type": "uint256"
            },
            {
              "internalType": "uint8",
              "name": "v",
              "type": "uint8"
            },
            {
              "internalType": "bytes32",
              "name": "r",
              "type": "bytes32"
            },
            {
              "internalType": "bytes32",
              "name": "s",
              "type": "bytes32"
            }
          ],
          "name": "stakeWithPermit",
          "outputs": [],
          "stateMutability": "nonpayable",
          "type": "function"
        },
        {
          "inputs": [],
          "name": "stakerBalance",
          "outputs": [
            {
              "internalType": "uint256",
              "name": "",
              "type": "uint256"
            }
          ],
          "stateMutability": "view",
          "type": "function"
        },
        {
          "inputs": [],
          "name": "totalFrozen",
          "outputs": [
            {
              "internalType": "uint256",
              "name": "",
              "type": "uint256"
            }
          ],
          "stateMutability": "view",
          "type": "function"
        },
        {
          "inputs": [],
          "name": "totalFrozenAmount",
          "outputs": [
            {
              "internalType": "uint256",
              "name": "",
              "type": "uint256"
            }
          ],
          "stateMutability": "view",
          "type": "function"
        },
        {
          "inputs": [],
          "name": "totalLockedStake",
          "outputs": [
            {
              "internalType": "uint256",
              "name": "",
              "type": "uint256"
            }
          ],
          "stateMutability": "view",
          "type": "function"
        },
        {
          "inputs": [],
          "name": "totalStaked",
          "outputs": [
            {
              "internalType": "uint256",
              "name": "",
              "type": "uint256"
            }
          ],
          "stateMutability": "view",
          "type": "function"
        },
        {
          "inputs": [
            {
              "internalType": "uint256",
              "name": "amount",
              "type": "uint256"
            }
          ],
          "name": "unstake",
          "outputs": [],
          "stateMutability": "nonpayable",
          "type": "function"
        },
        {
          "inputs": [
            {
              "internalType": "address",
              "name": "borrower",
              "type": "address"
            },
            {
              "internalType": "uint256",
              "name": "amount",
              "type": "uint256"
            },
            {
              "internalType": "bool",
              "name": "isBorrow",
              "type": "bool"
            }
          ],
          "name": "updateLockedData",
          "outputs": [],
          "stateMutability": "nonpayable",
          "type": "function"
        },
        {
          "inputs": [
            {
              "internalType": "address",
              "name": "",
              "type": "address"
            },
            {
              "internalType": "bool",
              "name": "",
              "type": "bool"
            }
          ],
          "name": "updateTotalFrozen",
          "outputs": [],
          "stateMutability": "nonpayable",
          "type": "function"
        },
        {
          "inputs": [
            {
              "internalType": "address",
              "name": "borrower_",
              "type": "address"
            },
            {
              "internalType": "uint256",
              "name": "trustAmount",
              "type": "uint256"
            }
          ],
          "name": "updateTrust",
          "outputs": [],
          "stateMutability": "nonpayable",
          "type": "function"
        },
        {
          "inputs": [],
          "name": "withdrawRewards",
          "outputs": [],
          "stateMutability": "nonpayable",
          "type": "function"
        }
      ],
      "devdoc": {
        "details": "Manages the Union members credit lines, and their vouchees and borrowers info.",
        "kind": "dev",
        "methods": {
          "stakeWithPermit(uint256,uint256,uint256,uint8,bytes32,bytes32)": {
            "details": "stakeWithPermit",
            "params": {
              "amount": "Amount"
            }
          }
        },
        "title": "UserManager Contract",
        "version": 1
      },
      "evm": {
        "bytecode": {
          "linkReferences": {},
          "object": "608060405234801561001057600080fd5b50610861806100206000396000f3fe608060405234801561001057600080fd5b50600436106102695760003560e01c806366f22b3311610151578063c7b8981c116100c3578063e819061211610087578063e8190612146104c5578063eab2039e146104e6578063eb1484591461047b578063f26e930e146104ee578063fa84a8a314610501578063fcb4888e1461049c57600080fd5b8063c7b8981c1461027f578063ca6d56dc1461049c578063d02982cf146104aa578063dd2368c914610402578063dd63f762146104b757600080fd5b8063a694fc3a11610115578063a694fc3a14610315578063ab4ffaa914610438578063b157bf0314610446578063b40d57fd14610446578063b6a93faf1461047b578063b8845f751461036a57600080fd5b806366f22b33146103ef5780637223325d14610402578063817b1cd21461041857806385bde8f214610421578063a4d66daf1461042f57600080fd5b80633feaf532116101ea5780635668b02e116101ae5780635668b02e14610398578063574dadba146103a6578063591d637d146103bb5780635a72991f146103c95780635d40db1e146103d2578063644214f6146103e657600080fd5b80633feaf5321461034b57806343a03bbc1461036157806343fbb8f51461036a57806354b6c41a1461037c57806355ab96ba1461038f57600080fd5b8063293d9df911610231578063293d9df9146102ed5780632c333e25146103005780632e17de78146103155780632f92f1f21461032657806337262d381461033657600080fd5b806316d8525a1461026e5780631e7f87bc1461028157806321d2a5731461029d5780632640d9db146102c5578063293512c5146102da575b600080fd5b61027f670de0b6b3a7640000600055565b005b61028a60025481565b6040519081526020015b60405180910390f35b6102b56102ab36600461059b565b5060035460ff1690565b6040519015158152602001610294565b61028a6102d336600461059b565b5060055490565b61027f6102e83660046105ee565b505050565b61027f6102fb366004610790565b600555565b61028a61030e36600461059b565b5060045490565b61027f610323366004610790565b50565b61028a683635c9adc5dea0000081565b61028a61034436600461059b565b5060075490565b61027f6103593660046106b6565b505050505050565b61028a60065481565b61027f610378366004610652565b5050565b61027f61038a366004610790565b600755565b61028a60055481565b61027f6103593660046107a8565b61028a6103b436600461059b565b5060065490565b61027f610378366004610629565b61028a60075481565b61027f6103e036600461070d565b50505050565b61028a60005481565b61027f6103fd366004610790565b600655565b61028a6104103660046105bc565b600092915050565b61028a60015481565b61027f6103783660046105bc565b61028a60045481565b61027f6102e836600461067b565b6104606104543660046105bc565b60008060009250925092565b60408051938452602084019290925290820152606001610294565b61048f61048936600461059b565b50606090565b60405161029491906107de565b61027f61032336600461059b565b6003546102b59060ff1681565b61028a610410366004610652565b61027f6104d3366004610776565b6003805460ff1916911515919091179055565b61028a606481565b61027f6104fc366004610790565b600455565b61027f61050f366004610790565b600055565b80356001600160a01b038116811461052b57600080fd5b919050565b60008083601f840112610541578182fd5b50813567ffffffffffffffff811115610558578182fd5b6020830191508360208260051b850101111561057357600080fd5b9250929050565b8035801515811461052b57600080fd5b803560ff8116811461052b57600080fd5b6000602082840312156105ac578081fd5b6105b582610514565b9392505050565b600080604083850312156105ce578081fd5b6105d783610514565b91506105e560208401610514565b90509250929050565b600080600060608486031215610602578081fd5b61060b84610514565b925061061960208501610514565b9150604084013590509250925092565b6000806040838503121561063b578182fd5b61064483610514565b91506105e56020840161057a565b60008060408385031215610664578182fd5b61066d83610514565b946020939093013593505050565b60008060006060848603121561068f578283fd5b61069884610514565b9250602084013591506106ad6040850161057a565b90509250925092565b60008060008060008060c087890312156106ce578182fd5b6106d787610514565b955060208701359450604087013593506106f36060880161058a565b92506080870135915060a087013590509295509295509295565b60008060008060408587031215610722578384fd5b843567ffffffffffffffff80821115610739578586fd5b61074588838901610530565b9096509450602087013591508082111561075d578384fd5b5061076a87828801610530565b95989497509550505050565b600060208284031215610787578081fd5b6105b58261057a565b6000602082840312156107a1578081fd5b5035919050565b60008060008060008060c087890312156107c0578182fd5b8635955060208701359450604087013593506106f36060880161058a565b6020808252825182820181905260009190848201906040850190845b8181101561081f5783516001600160a01b0316835292840192918401916001016107fa565b5090969550505050505056fea2646970667358221220940ad83a33b404b1949405ee7dc7784df0c24917071b19d2791ef4046a1ba63e64736f6c63430008040033",
          "opcodes": "PUSH1 0x80 PUSH1 0x40 MSTORE CALLVALUE DUP1 ISZERO PUSH2 0x10 JUMPI PUSH1 0x0 DUP1 REVERT JUMPDEST POP PUSH2 0x861 DUP1 PUSH2 0x20 PUSH1 0x0 CODECOPY PUSH1 0x0 RETURN INVALID PUSH1 0x80 PUSH1 0x40 MSTORE CALLVALUE DUP1 ISZERO PUSH2 0x10 JUMPI PUSH1 0x0 DUP1 REVERT JUMPDEST POP PUSH1 0x4 CALLDATASIZE LT PUSH2 0x269 JUMPI PUSH1 0x0 CALLDATALOAD PUSH1 0xE0 SHR DUP1 PUSH4 0x66F22B33 GT PUSH2 0x151 JUMPI DUP1 PUSH4 0xC7B8981C GT PUSH2 0xC3 JUMPI DUP1 PUSH4 0xE8190612 GT PUSH2 0x87 JUMPI DUP1 PUSH4 0xE8190612 EQ PUSH2 0x4C5 JUMPI DUP1 PUSH4 0xEAB2039E EQ PUSH2 0x4E6 JUMPI DUP1 PUSH4 0xEB148459 EQ PUSH2 0x47B JUMPI DUP1 PUSH4 0xF26E930E EQ PUSH2 0x4EE JUMPI DUP1 PUSH4 0xFA84A8A3 EQ PUSH2 0x501 JUMPI DUP1 PUSH4 0xFCB4888E EQ PUSH2 0x49C JUMPI PUSH1 0x0 DUP1 REVERT JUMPDEST DUP1 PUSH4 0xC7B8981C EQ PUSH2 0x27F JUMPI DUP1 PUSH4 0xCA6D56DC EQ PUSH2 0x49C JUMPI DUP1 PUSH4 0xD02982CF EQ PUSH2 0x4AA JUMPI DUP1 PUSH4 0xDD2368C9 EQ PUSH2 0x402 JUMPI DUP1 PUSH4 0xDD63F762 EQ PUSH2 0x4B7 JUMPI PUSH1 0x0 DUP1 REVERT JUMPDEST DUP1 PUSH4 0xA694FC3A GT PUSH2 0x115 JUMPI DUP1 PUSH4 0xA694FC3A EQ PUSH2 0x315 JUMPI DUP1 PUSH4 0xAB4FFAA9 EQ PUSH2 0x438 JUMPI DUP1 PUSH4 0xB157BF03 EQ PUSH2 0x446 JUMPI DUP1 PUSH4 0xB40D57FD EQ PUSH2 0x446 JUMPI DUP1 PUSH4 0xB6A93FAF EQ PUSH2 0x47B JUMPI DUP1 PUSH4 0xB8845F75 EQ PUSH2 0x36A JUMPI PUSH1 0x0 DUP1 REVERT JUMPDEST DUP1 PUSH4 0x66F22B33 EQ PUSH2 0x3EF JUMPI DUP1 PUSH4 0x7223325D EQ PUSH2 0x402 JUMPI DUP1 PUSH4 0x817B1CD2 EQ PUSH2 0x418 JUMPI DUP1 PUSH4 0x85BDE8F2 EQ PUSH2 0x421 JUMPI DUP1 PUSH4 0xA4D66DAF EQ PUSH2 0x42F JUMPI PUSH1 0x0 DUP1 REVERT JUMPDEST DUP1 PUSH4 0x3FEAF532 GT PUSH2 0x1EA JUMPI DUP1 PUSH4 0x5668B02E GT PUSH2 0x1AE JUMPI DUP1 PUSH4 0x5668B02E EQ PUSH2 0x398 JUMPI DUP1 PUSH4 0x574DADBA EQ PUSH2 0x3A6 JUMPI DUP1 PUSH4 0x591D637D EQ PUSH2 0x3BB JUMPI DUP1 PUSH4 0x5A72991F EQ PUSH2 0x3C9 JUMPI DUP1 PUSH4 0x5D40DB1E EQ PUSH2 0x3D2 JUMPI DUP1 PUSH4 0x644214F6 EQ PUSH2 0x3E6 JUMPI PUSH1 0x0 DUP1 REVERT JUMPDEST DUP1 PUSH4 0x3FEAF532 EQ PUSH2 0x34B JUMPI DUP1 PUSH4 0x43A03BBC EQ PUSH2 0x361 JUMPI DUP1 PUSH4 0x43FBB8F5 EQ PUSH2 0x36A JUMPI DUP1 PUSH4 0x54B6C41A EQ PUSH2 0x37C JUMPI DUP1 PUSH4 0x55AB96BA EQ PUSH2 0x38F JUMPI PUSH1 0x0 DUP1 REVERT JUMPDEST DUP1 PUSH4 0x293D9DF9 GT PUSH2 0x231 JUMPI DUP1 PUSH4 0x293D9DF9 EQ PUSH2 0x2ED JUMPI DUP1 PUSH4 0x2C333E25 EQ PUSH2 0x300 JUMPI DUP1 PUSH4 0x2E17DE78 EQ PUSH2 0x315 JUMPI DUP1 PUSH4 0x2F92F1F2 EQ PUSH2 0x326 JUMPI DUP1 PUSH4 0x37262D38 EQ PUSH2 0x336 JUMPI PUSH1 0x0 DUP1 REVERT JUMPDEST DUP1 PUSH4 0x16D8525A EQ PUSH2 0x26E JUMPI DUP1 PUSH4 0x1E7F87BC EQ PUSH2 0x281 JUMPI DUP1 PUSH4 0x21D2A573 EQ PUSH2 0x29D JUMPI DUP1 PUSH4 0x2640D9DB EQ PUSH2 0x2C5 JUMPI DUP1 PUSH4 0x293512C5 EQ PUSH2 0x2DA JUMPI JUMPDEST PUSH1 0x0 DUP1 REVERT JUMPDEST PUSH2 0x27F PUSH8 0xDE0B6B3A7640000 PUSH1 0x0 SSTORE JUMP JUMPDEST STOP JUMPDEST PUSH2 0x28A PUSH1 0x2 SLOAD DUP2 JUMP JUMPDEST PUSH1 0x40 MLOAD SWAP1 DUP2 MSTORE PUSH1 0x20 ADD JUMPDEST PUSH1 0x40 MLOAD DUP1 SWAP2 SUB SWAP1 RETURN JUMPDEST PUSH2 0x2B5 PUSH2 0x2AB CALLDATASIZE PUSH1 0x4 PUSH2 0x59B JUMP JUMPDEST POP PUSH1 0x3 SLOAD PUSH1 0xFF AND SWAP1 JUMP JUMPDEST PUSH1 0x40 MLOAD SWAP1 ISZERO ISZERO DUP2 MSTORE PUSH1 0x20 ADD PUSH2 0x294 JUMP JUMPDEST PUSH2 0x28A PUSH2 0x2D3 CALLDATASIZE PUSH1 0x4 PUSH2 0x59B JUMP JUMPDEST POP PUSH1 0x5 SLOAD SWAP1 JUMP JUMPDEST PUSH2 0x27F PUSH2 0x2E8 CALLDATASIZE PUSH1 0x4 PUSH2 0x5EE JUMP JUMPDEST POP POP POP JUMP JUMPDEST PUSH2 0x27F PUSH2 0x2FB CALLDATASIZE PUSH1 0x4 PUSH2 0x790 JUMP JUMPDEST PUSH1 0x5 SSTORE JUMP JUMPDEST PUSH2 0x28A PUSH2 0x30E CALLDATASIZE PUSH1 0x4 PUSH2 0x59B JUMP JUMPDEST POP PUSH1 0x4 SLOAD SWAP1 JUMP JUMPDEST PUSH2 0x27F PUSH2 0x323 CALLDATASIZE PUSH1 0x4 PUSH2 0x790 JUMP JUMPDEST POP JUMP JUMPDEST PUSH2 0x28A PUSH9 0x3635C9ADC5DEA00000 DUP2 JUMP JUMPDEST PUSH2 0x28A PUSH2 0x344 CALLDATASIZE PUSH1 0x4 PUSH2 0x59B JUMP JUMPDEST POP PUSH1 0x7 SLOAD SWAP1 JUMP JUMPDEST PUSH2 0x27F PUSH2 0x359 CALLDATASIZE PUSH1 0x4 PUSH2 0x6B6 JUMP JUMPDEST POP POP POP POP POP POP JUMP JUMPDEST PUSH2 0x28A PUSH1 0x6 SLOAD DUP2 JUMP JUMPDEST PUSH2 0x27F PUSH2 0x378 CALLDATASIZE PUSH1 0x4 PUSH2 0x652 JUMP JUMPDEST POP POP JUMP JUMPDEST PUSH2 0x27F PUSH2 0x38A CALLDATASIZE PUSH1 0x4 PUSH2 0x790 JUMP JUMPDEST PUSH1 0x7 SSTORE JUMP JUMPDEST PUSH2 0x28A PUSH1 0x5 SLOAD DUP2 JUMP JUMPDEST PUSH2 0x27F PUSH2 0x359 CALLDATASIZE PUSH1 0x4 PUSH2 0x7A8 JUMP JUMPDEST PUSH2 0x28A PUSH2 0x3B4 CALLDATASIZE PUSH1 0x4 PUSH2 0x59B JUMP JUMPDEST POP PUSH1 0x6 SLOAD SWAP1 JUMP JUMPDEST PUSH2 0x27F PUSH2 0x378 CALLDATASIZE PUSH1 0x4 PUSH2 0x629 JUMP JUMPDEST PUSH2 0x28A PUSH1 0x7 SLOAD DUP2 JUMP JUMPDEST PUSH2 0x27F PUSH2 0x3E0 CALLDATASIZE PUSH1 0x4 PUSH2 0x70D JUMP JUMPDEST POP POP POP POP JUMP JUMPDEST PUSH2 0x28A PUSH1 0x0 SLOAD DUP2 JUMP JUMPDEST PUSH2 0x27F PUSH2 0x3FD CALLDATASIZE PUSH1 0x4 PUSH2 0x790 JUMP JUMPDEST PUSH1 0x6 SSTORE JUMP JUMPDEST PUSH2 0x28A PUSH2 0x410 CALLDATASIZE PUSH1 0x4 PUSH2 0x5BC JUMP JUMPDEST PUSH1 0x0 SWAP3 SWAP2 POP POP JUMP JUMPDEST PUSH2 0x28A PUSH1 0x1 SLOAD DUP2 JUMP JUMPDEST PUSH2 0x27F PUSH2 0x378 CALLDATASIZE PUSH1 0x4 PUSH2 0x5BC JUMP JUMPDEST PUSH2 0x28A PUSH1 0x4 SLOAD DUP2 JUMP JUMPDEST PUSH2 0x27F PUSH2 0x2E8 CALLDATASIZE PUSH1 0x4 PUSH2 0x67B JUMP JUMPDEST PUSH2 0x460 PUSH2 0x454 CALLDATASIZE PUSH1 0x4 PUSH2 0x5BC JUMP JUMPDEST PUSH1 0x0 DUP1 PUSH1 0x0 SWAP3 POP SWAP3 POP SWAP3 JUMP JUMPDEST PUSH1 0x40 DUP1 MLOAD SWAP4 DUP5 MSTORE PUSH1 0x20 DUP5 ADD SWAP3 SWAP1 SWAP3 MSTORE SWAP1 DUP3 ADD MSTORE PUSH1 0x60 ADD PUSH2 0x294 JUMP JUMPDEST PUSH2 0x48F PUSH2 0x489 CALLDATASIZE PUSH1 0x4 PUSH2 0x59B JUMP JUMPDEST POP PUSH1 0x60 SWAP1 JUMP JUMPDEST PUSH1 0x40 MLOAD PUSH2 0x294 SWAP2 SWAP1 PUSH2 0x7DE JUMP JUMPDEST PUSH2 0x27F PUSH2 0x323 CALLDATASIZE PUSH1 0x4 PUSH2 0x59B JUMP JUMPDEST PUSH1 0x3 SLOAD PUSH2 0x2B5 SWAP1 PUSH1 0xFF AND DUP2 JUMP JUMPDEST PUSH2 0x28A PUSH2 0x410 CALLDATASIZE PUSH1 0x4 PUSH2 0x652 JUMP JUMPDEST PUSH2 0x27F PUSH2 0x4D3 CALLDATASIZE PUSH1 0x4 PUSH2 0x776 JUMP JUMPDEST PUSH1 0x3 DUP1 SLOAD PUSH1 0xFF NOT AND SWAP2 ISZERO ISZERO SWAP2 SWAP1 SWAP2 OR SWAP1 SSTORE JUMP JUMPDEST PUSH2 0x28A PUSH1 0x64 DUP2 JUMP JUMPDEST PUSH2 0x27F PUSH2 0x4FC CALLDATASIZE PUSH1 0x4 PUSH2 0x790 JUMP JUMPDEST PUSH1 0x4 SSTORE JUMP JUMPDEST PUSH2 0x27F PUSH2 0x50F CALLDATASIZE PUSH1 0x4 PUSH2 0x790 JUMP JUMPDEST PUSH1 0x0 SSTORE JUMP JUMPDEST DUP1 CALLDATALOAD PUSH1 0x1 PUSH1 0x1 PUSH1 0xA0 SHL SUB DUP2 AND DUP2 EQ PUSH2 0x52B JUMPI PUSH1 0x0 DUP1 REVERT JUMPDEST SWAP2 SWAP1 POP JUMP JUMPDEST PUSH1 0x0 DUP1 DUP4 PUSH1 0x1F DUP5 ADD SLT PUSH2 0x541 JUMPI DUP2 DUP3 REVERT JUMPDEST POP DUP2 CALLDATALOAD PUSH8 0xFFFFFFFFFFFFFFFF DUP2 GT ISZERO PUSH2 0x558 JUMPI DUP2 DUP3 REVERT JUMPDEST PUSH1 0x20 DUP4 ADD SWAP2 POP DUP4 PUSH1 0x20 DUP3 PUSH1 0x5 SHL DUP6 ADD ADD GT ISZERO PUSH2 0x573 JUMPI PUSH1 0x0 DUP1 REVERT JUMPDEST SWAP3 POP SWAP3 SWAP1 POP JUMP JUMPDEST DUP1 CALLDATALOAD DUP1 ISZERO ISZERO DUP2 EQ PUSH2 0x52B JUMPI PUSH1 0x0 DUP1 REVERT JUMPDEST DUP1 CALLDATALOAD PUSH1 0xFF DUP2 AND DUP2 EQ PUSH2 0x52B JUMPI PUSH1 0x0 DUP1 REVERT JUMPDEST PUSH1 0x0 PUSH1 0x20 DUP3 DUP5 SUB SLT ISZERO PUSH2 0x5AC JUMPI DUP1 DUP2 REVERT JUMPDEST PUSH2 0x5B5 DUP3 PUSH2 0x514 JUMP JUMPDEST SWAP4 SWAP3 POP POP POP JUMP JUMPDEST PUSH1 0x0 DUP1 PUSH1 0x40 DUP4 DUP6 SUB SLT ISZERO PUSH2 0x5CE JUMPI DUP1 DUP2 REVERT JUMPDEST PUSH2 0x5D7 DUP4 PUSH2 0x514 JUMP JUMPDEST SWAP2 POP PUSH2 0x5E5 PUSH1 0x20 DUP5 ADD PUSH2 0x514 JUMP JUMPDEST SWAP1 POP SWAP3 POP SWAP3 SWAP1 POP JUMP JUMPDEST PUSH1 0x0 DUP1 PUSH1 0x0 PUSH1 0x60 DUP5 DUP7 SUB SLT ISZERO PUSH2 0x602 JUMPI DUP1 DUP2 REVERT JUMPDEST PUSH2 0x60B DUP5 PUSH2 0x514 JUMP JUMPDEST SWAP3 POP PUSH2 0x619 PUSH1 0x20 DUP6 ADD PUSH2 0x514 JUMP JUMPDEST SWAP2 POP PUSH1 0x40 DUP5 ADD CALLDATALOAD SWAP1 POP SWAP3 POP SWAP3 POP SWAP3 JUMP JUMPDEST PUSH1 0x0 DUP1 PUSH1 0x40 DUP4 DUP6 SUB SLT ISZERO PUSH2 0x63B JUMPI DUP2 DUP3 REVERT JUMPDEST PUSH2 0x644 DUP4 PUSH2 0x514 JUMP JUMPDEST SWAP2 POP PUSH2 0x5E5 PUSH1 0x20 DUP5 ADD PUSH2 0x57A JUMP JUMPDEST PUSH1 0x0 DUP1 PUSH1 0x40 DUP4 DUP6 SUB SLT ISZERO PUSH2 0x664 JUMPI DUP2 DUP3 REVERT JUMPDEST PUSH2 0x66D DUP4 PUSH2 0x514 JUMP JUMPDEST SWAP5 PUSH1 0x20 SWAP4 SWAP1 SWAP4 ADD CALLDATALOAD SWAP4 POP POP POP JUMP JUMPDEST PUSH1 0x0 DUP1 PUSH1 0x0 PUSH1 0x60 DUP5 DUP7 SUB SLT ISZERO PUSH2 0x68F JUMPI DUP3 DUP4 REVERT JUMPDEST PUSH2 0x698 DUP5 PUSH2 0x514 JUMP JUMPDEST SWAP3 POP PUSH1 0x20 DUP5 ADD CALLDATALOAD SWAP2 POP PUSH2 0x6AD PUSH1 0x40 DUP6 ADD PUSH2 0x57A JUMP JUMPDEST SWAP1 POP SWAP3 POP SWAP3 POP SWAP3 JUMP JUMPDEST PUSH1 0x0 DUP1 PUSH1 0x0 DUP1 PUSH1 0x0 DUP1 PUSH1 0xC0 DUP8 DUP10 SUB SLT ISZERO PUSH2 0x6CE JUMPI DUP2 DUP3 REVERT JUMPDEST PUSH2 0x6D7 DUP8 PUSH2 0x514 JUMP JUMPDEST SWAP6 POP PUSH1 0x20 DUP8 ADD CALLDATALOAD SWAP5 POP PUSH1 0x40 DUP8 ADD CALLDATALOAD SWAP4 POP PUSH2 0x6F3 PUSH1 0x60 DUP9 ADD PUSH2 0x58A JUMP JUMPDEST SWAP3 POP PUSH1 0x80 DUP8 ADD CALLDATALOAD SWAP2 POP PUSH1 0xA0 DUP8 ADD CALLDATALOAD SWAP1 POP SWAP3 SWAP6 POP SWAP3 SWAP6 POP SWAP3 SWAP6 JUMP JUMPDEST PUSH1 0x0 DUP1 PUSH1 0x0 DUP1 PUSH1 0x40 DUP6 DUP8 SUB SLT ISZERO PUSH2 0x722 JUMPI DUP4 DUP5 REVERT JUMPDEST DUP5 CALLDATALOAD PUSH8 0xFFFFFFFFFFFFFFFF DUP1 DUP3 GT ISZERO PUSH2 0x739 JUMPI DUP6 DUP7 REVERT JUMPDEST PUSH2 0x745 DUP9 DUP4 DUP10 ADD PUSH2 0x530 JUMP JUMPDEST SWAP1 SWAP7 POP SWAP5 POP PUSH1 0x20 DUP8 ADD CALLDATALOAD SWAP2 POP DUP1 DUP3 GT ISZERO PUSH2 0x75D JUMPI DUP4 DUP5 REVERT JUMPDEST POP PUSH2 0x76A DUP8 DUP3 DUP9 ADD PUSH2 0x530 JUMP JUMPDEST SWAP6 SWAP9 SWAP5 SWAP8 POP SWAP6 POP POP POP POP JUMP JUMPDEST PUSH1 0x0 PUSH1 0x20 DUP3 DUP5 SUB SLT ISZERO PUSH2 0x787 JUMPI DUP1 DUP2 REVERT JUMPDEST PUSH2 0x5B5 DUP3 PUSH2 0x57A JUMP JUMPDEST PUSH1 0x0 PUSH1 0x20 DUP3 DUP5 SUB SLT ISZERO PUSH2 0x7A1 JUMPI DUP1 DUP2 REVERT JUMPDEST POP CALLDATALOAD SWAP2 SWAP1 POP JUMP JUMPDEST PUSH1 0x0 DUP1 PUSH1 0x0 DUP1 PUSH1 0x0 DUP1 PUSH1 0xC0 DUP8 DUP10 SUB SLT ISZERO PUSH2 0x7C0 JUMPI DUP2 DUP3 REVERT JUMPDEST DUP7 CALLDATALOAD SWAP6 POP PUSH1 0x20 DUP8 ADD CALLDATALOAD SWAP5 POP PUSH1 0x40 DUP8 ADD CALLDATALOAD SWAP4 POP PUSH2 0x6F3 PUSH1 0x60 DUP9 ADD PUSH2 0x58A JUMP JUMPDEST PUSH1 0x20 DUP1 DUP3 MSTORE DUP3 MLOAD DUP3 DUP3 ADD DUP2 SWAP1 MSTORE PUSH1 0x0 SWAP2 SWAP1 DUP5 DUP3 ADD SWAP1 PUSH1 0x40 DUP6 ADD SWAP1 DUP5 JUMPDEST DUP2 DUP2 LT ISZERO PUSH2 0x81F JUMPI DUP4 MLOAD PUSH1 0x1 PUSH1 0x1 PUSH1 0xA0 SHL SUB AND DUP4 MSTORE SWAP3 DUP5 ADD SWAP3 SWAP2 DUP5 ADD SWAP2 PUSH1 0x1 ADD PUSH2 0x7FA JUMP JUMPDEST POP SWAP1 SWAP7 SWAP6 POP POP POP POP POP POP JUMP INVALID LOG2 PUSH5 0x6970667358 0x22 SLT KECCAK256 SWAP5 EXP 0xD8 GASPRICE CALLER 0xB4 DIV 0xB1 SWAP5 SWAP5 SDIV 0xEE PUSH30 0xC7784DF0C24917071B19D2791EF4046A1BA63E64736F6C63430008040033 "
        },
        "gasEstimates": {
          "creation": {
            "codeDepositCost": "429000",
            "executionCost": "468",
            "totalCost": "429468"
          },
          "external": {
            "MAX_STAKE_AMOUNT()": "296",
            "MAX_TRUST_LIMIT()": "250",
            "__UserManager_init()": "20185",
            "addMember(address)": "359",
            "batchUpdateTotalFrozen(address[],bool[])": "infinite",
            "cancelVouch(address,address)": "infinite",
            "checkIsMember(address)": "1258",
            "debtWriteOff(address,uint256)": "470",
            "getBorrowerAddresses(address)": "infinite",
            "getBorrowerAsset(address,address)": "infinite",
            "getCreditLimit(address)": "1212",
            "getFrozenCoinAge(address,uint256)": "503",
            "getLockedStake(address,address)": "infinite",
            "getStakerAddresses(address)": "infinite",
            "getStakerAsset(address,address)": "infinite",
            "getStakerBalance(address)": "1257",
            "getTotalFrozenAmount(address)": "1278",
            "getTotalLockedStake(address)": "1211",
            "getVouchingAmount(address,address)": "infinite",
            "isMember()": "1099",
            "limit()": "1118",
            "newMemberFee()": "1139",
            "registerMember(address)": "446",
            "registerMemberWithPermit(address,uint256,uint256,uint8,bytes32,bytes32)": "infinite",
            "repayLoanOverdue(address,address,uint256)": "infinite",
            "setCreditLimit(int256)": "20322",
            "setIsMember(bool)": "21161",
            "setNewMemberFee(uint256)": "20344",
            "setStakerBalance(uint256)": "20258",
            "setTotalFrozenAmount(uint256)": "20324",
            "setTotalLockedStake(uint256)": "20258",
            "stake(uint256)": "256",
            "stakeWithPermit(uint256,uint256,uint256,uint8,bytes32,bytes32)": "450",
            "stakerBalance()": "1118",
            "totalFrozen()": "1053",
            "totalFrozenAmount()": "1095",
            "totalLockedStake()": "1052",
            "totalStaked()": "1074",
            "unstake(uint256)": "301",
            "updateLockedData(address,uint256,bool)": "infinite",
            "updateTotalFrozen(address,bool)": "infinite",
            "updateTrust(address,uint256)": "405",
            "withdrawRewards()": "165"
          }
        },
        "methodIdentifiers": {
          "MAX_STAKE_AMOUNT()": "2f92f1f2",
          "MAX_TRUST_LIMIT()": "eab2039e",
          "__UserManager_init()": "16d8525a",
          "addMember(address)": "ca6d56dc",
          "batchUpdateTotalFrozen(address[],bool[])": "5d40db1e",
          "cancelVouch(address,address)": "85bde8f2",
          "checkIsMember(address)": "21d2a573",
          "debtWriteOff(address,uint256)": "b8845f75",
          "getBorrowerAddresses(address)": "eb148459",
          "getBorrowerAsset(address,address)": "b157bf03",
          "getCreditLimit(address)": "2c333e25",
          "getFrozenCoinAge(address,uint256)": "dd63f762",
          "getLockedStake(address,address)": "dd2368c9",
          "getStakerAddresses(address)": "b6a93faf",
          "getStakerAsset(address,address)": "b40d57fd",
          "getStakerBalance(address)": "2640d9db",
          "getTotalFrozenAmount(address)": "37262d38",
          "getTotalLockedStake(address)": "574dadba",
          "getVouchingAmount(address,address)": "7223325d",
          "isMember()": "d02982cf",
          "limit()": "a4d66daf",
          "newMemberFee()": "644214f6",
          "registerMember(address)": "fcb4888e",
          "registerMemberWithPermit(address,uint256,uint256,uint8,bytes32,bytes32)": "3feaf532",
          "repayLoanOverdue(address,address,uint256)": "293512c5",
          "setCreditLimit(int256)": "f26e930e",
          "setIsMember(bool)": "e8190612",
          "setNewMemberFee(uint256)": "fa84a8a3",
          "setStakerBalance(uint256)": "293d9df9",
          "setTotalFrozenAmount(uint256)": "54b6c41a",
          "setTotalLockedStake(uint256)": "66f22b33",
          "stake(uint256)": "a694fc3a",
          "stakeWithPermit(uint256,uint256,uint256,uint8,bytes32,bytes32)": "5668b02e",
          "stakerBalance()": "55ab96ba",
          "totalFrozen()": "1e7f87bc",
          "totalFrozenAmount()": "5a72991f",
          "totalLockedStake()": "43a03bbc",
          "totalStaked()": "817b1cd2",
          "unstake(uint256)": "2e17de78",
          "updateLockedData(address,uint256,bool)": "ab4ffaa9",
          "updateTotalFrozen(address,bool)": "591d637d",
          "updateTrust(address,uint256)": "43fbb8f5",
          "withdrawRewards()": "c7b8981c"
        }
      },
      "storageLayout": {
        "storage": [
          {
            "astId": 10,
            "contract": "contracts/tests/UserManagerMock.sol:UserManagerMock",
            "label": "newMemberFee",
            "offset": 0,
            "slot": "0",
            "type": "t_uint256"
          },
          {
            "astId": 12,
            "contract": "contracts/tests/UserManagerMock.sol:UserManagerMock",
            "label": "totalStaked",
            "offset": 0,
            "slot": "1",
            "type": "t_uint256"
          },
          {
            "astId": 14,
            "contract": "contracts/tests/UserManagerMock.sol:UserManagerMock",
            "label": "totalFrozen",
            "offset": 0,
            "slot": "2",
            "type": "t_uint256"
          },
          {
            "astId": 16,
            "contract": "contracts/tests/UserManagerMock.sol:UserManagerMock",
            "label": "isMember",
            "offset": 0,
            "slot": "3",
            "type": "t_bool"
          },
          {
            "astId": 18,
            "contract": "contracts/tests/UserManagerMock.sol:UserManagerMock",
            "label": "limit",
            "offset": 0,
            "slot": "4",
            "type": "t_int256"
          },
          {
            "astId": 20,
            "contract": "contracts/tests/UserManagerMock.sol:UserManagerMock",
            "label": "stakerBalance",
            "offset": 0,
            "slot": "5",
            "type": "t_uint256"
          },
          {
            "astId": 22,
            "contract": "contracts/tests/UserManagerMock.sol:UserManagerMock",
            "label": "totalLockedStake",
            "offset": 0,
            "slot": "6",
            "type": "t_uint256"
          },
          {
            "astId": 24,
            "contract": "contracts/tests/UserManagerMock.sol:UserManagerMock",
            "label": "totalFrozenAmount",
            "offset": 0,
            "slot": "7",
            "type": "t_uint256"
          }
        ],
        "types": {
          "t_bool": {
            "encoding": "inplace",
            "label": "bool",
            "numberOfBytes": "1"
          },
          "t_int256": {
            "encoding": "inplace",
            "label": "int256",
            "numberOfBytes": "32"
          },
          "t_uint256": {
            "encoding": "inplace",
            "label": "uint256",
            "numberOfBytes": "32"
          }
        }
      },
      "userdoc": {
        "kind": "user",
        "methods": {},
        "version": 1
      }
    }
  }
}