{
  "contracts/tests/SumOfTrustMock.sol": {
    "SumOfTrustMock": {
      "abi": [
        {
          "inputs": [
            {
              "internalType": "uint256",
              "name": "effectiveNumber_",
              "type": "uint256"
            }
          ],
          "stateMutability": "nonpayable",
          "type": "constructor"
        },
        {
          "inputs": [],
          "name": "effectiveNumber",
          "outputs": [
            {
              "internalType": "uint256",
              "name": "",
              "type": "uint256"
            }
          ],
          "stateMutability": "view",
          "type": "function"
        },
        {
          "inputs": [
            {
              "internalType": "uint256[]",
              "name": "vouchs",
              "type": "uint256[]"
            }
          ],
          "name": "getCreditLimit",
          "outputs": [
            {
              "internalType": "uint256",
              "name": "",
              "type": "uint256"
            }
          ],
          "stateMutability": "view",
          "type": "function"
        },
        {
          "inputs": [
            {
              "components": [
                {
                  "internalType": "address",
                  "name": "staker",
                  "type": "address"
                },
                {
                  "internalType": "uint256",
                  "name": "vouchingAmount",
                  "type": "uint256"
                },
                {
                  "internalType": "uint256",
                  "name": "lockedAmount",
                  "type": "uint256"
                },
                {
                  "internalType": "uint256",
                  "name": "availableStakingAmount",
                  "type": "uint256"
                }
              ],
              "internalType": "struct SumOfTrustMock.LockedInfo[]",
              "name": "array",
              "type": "tuple[]"
            },
            {
              "internalType": "address",
              "name": "account",
              "type": "address"
            },
            {
              "internalType": "uint256",
              "name": "amount",
              "type": "uint256"
            },
            {
              "internalType": "bool",
              "name": "isIncrease",
              "type": "bool"
            }
          ],
          "name": "getLockedAmount",
          "outputs": [
            {
              "internalType": "uint256",
              "name": "",
              "type": "uint256"
            }
          ],
          "stateMutability": "pure",
          "type": "function"
        },
        {
          "inputs": [],
          "name": "isCreditLimitModel",
          "outputs": [
            {
              "internalType": "bool",
              "name": "",
              "type": "bool"
            }
          ],
          "stateMutability": "view",
          "type": "function"
        },
        {
          "inputs": [
            {
              "internalType": "uint256",
              "name": "number",
              "type": "uint256"
            }
          ],
          "name": "setEffectNumber",
          "outputs": [],
          "stateMutability": "nonpayable",
          "type": "function"
        }
      ],
      "devdoc": {
        "kind": "dev",
        "methods": {},
        "version": 1
      },
      "evm": {
        "bytecode": {
          "linkReferences": {},
          "object": "608060405234801561001057600080fd5b50604051610b74380380610b7483398101604081905261002f91610037565b60005561004f565b600060208284031215610048578081fd5b5051919050565b610b168061005e6000396000f3fe608060405234801561001057600080fd5b50600436106100575760003560e01c80634c9cc6731461005c57806351118cfb14610082578063747bcf8f1461008b578063a0d9987b146100a0578063b0db4930146100b3575b600080fd5b61006f61006a366004610941565b6100cb565b6040519081526020015b60405180910390f35b61006f60005481565b61009e6100993660046109d4565b600055565b005b61006f6100ae366004610840565b61013e565b6100bb600181565b6040519015158152602001610079565b60008054825110610131576000805b835181101561012a5783818151811061010357634e487b7160e01b600052603260045260246000fd5b6020026020010151826101169190610a6a565b91508061012281610a99565b9150506100da565b5092915050565b506000919050565b919050565b60008451600014156101525750600061059a565b8260008315610464576101668760016105a2565b965060005b875181101561045e57600088828151811061019657634e487b7160e01b600052603260045260246000fd5b6020026020010151604001518983815181106101c257634e487b7160e01b600052603260045260246000fd5b602002602001015160200151111561023d578882815181106101f457634e487b7160e01b600052603260045260246000fd5b60200260200101516040015189838151811061022057634e487b7160e01b600052603260045260246000fd5b6020026020010151602001516102369190610a82565b9050610241565b5060005b88828151811061026157634e487b7160e01b600052603260045260246000fd5b60200260200101516060015181111561038b578389838151811061029557634e487b7160e01b600052603260045260246000fd5b60200260200101516060015111156102e957838983815181106102c857634e487b7160e01b600052603260045260246000fd5b6020026020010151604001516102de9190610a6a565b9250600093506103fa565b88828151811061030957634e487b7160e01b600052603260045260246000fd5b60200260200101516060015189838151811061033557634e487b7160e01b600052603260045260246000fd5b60200260200101516040015161034b9190610a6a565b925088828151811061036d57634e487b7160e01b600052603260045260246000fd5b602002602001015160600151846103849190610a82565b93506103fa565b838111156103b457838983815181106102c857634e487b7160e01b600052603260045260246000fd5b808983815181106103d557634e487b7160e01b600052603260045260246000fd5b6020026020010151604001516103eb9190610a6a565b92506103f78185610a82565b93505b88828151811061041a57634e487b7160e01b600052603260045260246000fd5b6020026020010151600001516001600160a01b0316886001600160a01b0316141561044b578294505050505061059a565b508061045681610a99565b91505061016b565b50610593565b61046f8760006105a2565b965060005b8751811015610591578288828151811061049e57634e487b7160e01b600052603260045260246000fd5b60200260200101516040015111156104f257828882815181106104d157634e487b7160e01b600052603260045260246000fd5b6020026020010151604001516104e79190610a82565b915060009250610530565b6000915087818151811061051657634e487b7160e01b600052603260045260246000fd5b6020026020010151604001518361052d9190610a82565b92505b87818151811061055057634e487b7160e01b600052603260045260246000fd5b6020026020010151600001516001600160a01b0316876001600160a01b0316141561057f5750915061059a9050565b8061058981610a99565b915050610474565b505b6000925050505b949350505050565b815160609060005b818110156108105760006105bf826001610a6a565b90505b828110156107fd5784156106e0578581815181106105f057634e487b7160e01b600052603260045260246000fd5b60200260200101516020015186838151811061061c57634e487b7160e01b600052603260045260246000fd5b60200260200101516020015110156106db57600086828151811061065057634e487b7160e01b600052603260045260246000fd5b6020026020010151905086838151811061067a57634e487b7160e01b600052603260045260246000fd5b60200260200101518783815181106106a257634e487b7160e01b600052603260045260246000fd5b6020026020010181905250808784815181106106ce57634e487b7160e01b600052603260045260246000fd5b6020026020010181905250505b6107eb565b85818151811061070057634e487b7160e01b600052603260045260246000fd5b60200260200101516020015186838151811061072c57634e487b7160e01b600052603260045260246000fd5b60200260200101516020015111156107eb57600086828151811061076057634e487b7160e01b600052603260045260246000fd5b6020026020010151905086838151811061078a57634e487b7160e01b600052603260045260246000fd5b60200260200101518783815181106107b257634e487b7160e01b600052603260045260246000fd5b6020026020010181905250808784815181106107de57634e487b7160e01b600052603260045260246000fd5b6020026020010181905250505b806107f581610a99565b9150506105c2565b508061080881610a99565b9150506105aa565b50929392505050565b80356001600160a01b038116811461013957600080fd5b8035801515811461013957600080fd5b6000806000806080808688031215610856578485fd5b853567ffffffffffffffff81111561086c578586fd5b8601601f8101881361087c578586fd5b8035602061089161088c83610a46565b610a15565b8083825282820191508285018c848660071b88010111156108b0578a8bfd5b8a95505b8486101561090d5786818e0312156108ca578a8bfd5b6108d26109ec565b6108db82610819565b8152818501358582015260408083013590820152606080830135908201528352600195909501949183019186016108b4565b50985061091d9050898201610819565b9650505050506040850135915061093660608601610830565b905092959194509250565b60006020808385031215610953578182fd5b823567ffffffffffffffff811115610969578283fd5b8301601f81018513610979578283fd5b803561098761088c82610a46565b80828252848201915084840188868560051b87010111156109a6578687fd5b8694505b838510156109c85780358352600194909401939185019185016109aa565b50979650505050505050565b6000602082840312156109e5578081fd5b5035919050565b6040516080810167ffffffffffffffff81118282101715610a0f57610a0f610aca565b60405290565b604051601f8201601f1916810167ffffffffffffffff81118282101715610a3e57610a3e610aca565b604052919050565b600067ffffffffffffffff821115610a6057610a60610aca565b5060051b60200190565b60008219821115610a7d57610a7d610ab4565b500190565b600082821015610a9457610a94610ab4565b500390565b6000600019821415610aad57610aad610ab4565b5060010190565b634e487b7160e01b600052601160045260246000fd5b634e487b7160e01b600052604160045260246000fdfea2646970667358221220a8d0e132617dedd81c4d97169ab42dbbcd7e7bd211d8a63ceb65beabdd5006cf64736f6c63430008040033",
          "opcodes": "PUSH1 0x80 PUSH1 0x40 MSTORE CALLVALUE DUP1 ISZERO PUSH2 0x10 JUMPI PUSH1 0x0 DUP1 REVERT JUMPDEST POP PUSH1 0x40 MLOAD PUSH2 0xB74 CODESIZE SUB DUP1 PUSH2 0xB74 DUP4 CODECOPY DUP2 ADD PUSH1 0x40 DUP2 SWAP1 MSTORE PUSH2 0x2F SWAP2 PUSH2 0x37 JUMP JUMPDEST PUSH1 0x0 SSTORE PUSH2 0x4F JUMP JUMPDEST PUSH1 0x0 PUSH1 0x20 DUP3 DUP5 SUB SLT ISZERO PUSH2 0x48 JUMPI DUP1 DUP2 REVERT JUMPDEST POP MLOAD SWAP2 SWAP1 POP JUMP JUMPDEST PUSH2 0xB16 DUP1 PUSH2 0x5E PUSH1 0x0 CODECOPY PUSH1 0x0 RETURN INVALID PUSH1 0x80 PUSH1 0x40 MSTORE CALLVALUE DUP1 ISZERO PUSH2 0x10 JUMPI PUSH1 0x0 DUP1 REVERT JUMPDEST POP PUSH1 0x4 CALLDATASIZE LT PUSH2 0x57 JUMPI PUSH1 0x0 CALLDATALOAD PUSH1 0xE0 SHR DUP1 PUSH4 0x4C9CC673 EQ PUSH2 0x5C JUMPI DUP1 PUSH4 0x51118CFB EQ PUSH2 0x82 JUMPI DUP1 PUSH4 0x747BCF8F EQ PUSH2 0x8B JUMPI DUP1 PUSH4 0xA0D9987B EQ PUSH2 0xA0 JUMPI DUP1 PUSH4 0xB0DB4930 EQ PUSH2 0xB3 JUMPI JUMPDEST PUSH1 0x0 DUP1 REVERT JUMPDEST PUSH2 0x6F PUSH2 0x6A CALLDATASIZE PUSH1 0x4 PUSH2 0x941 JUMP JUMPDEST PUSH2 0xCB JUMP JUMPDEST PUSH1 0x40 MLOAD SWAP1 DUP2 MSTORE PUSH1 0x20 ADD JUMPDEST PUSH1 0x40 MLOAD DUP1 SWAP2 SUB SWAP1 RETURN JUMPDEST PUSH2 0x6F PUSH1 0x0 SLOAD DUP2 JUMP JUMPDEST PUSH2 0x9E PUSH2 0x99 CALLDATASIZE PUSH1 0x4 PUSH2 0x9D4 JUMP JUMPDEST PUSH1 0x0 SSTORE JUMP JUMPDEST STOP JUMPDEST PUSH2 0x6F PUSH2 0xAE CALLDATASIZE PUSH1 0x4 PUSH2 0x840 JUMP JUMPDEST PUSH2 0x13E JUMP JUMPDEST PUSH2 0xBB PUSH1 0x1 DUP2 JUMP JUMPDEST PUSH1 0x40 MLOAD SWAP1 ISZERO ISZERO DUP2 MSTORE PUSH1 0x20 ADD PUSH2 0x79 JUMP JUMPDEST PUSH1 0x0 DUP1 SLOAD DUP3 MLOAD LT PUSH2 0x131 JUMPI PUSH1 0x0 DUP1 JUMPDEST DUP4 MLOAD DUP2 LT ISZERO PUSH2 0x12A JUMPI DUP4 DUP2 DUP2 MLOAD DUP2 LT PUSH2 0x103 JUMPI PUSH4 0x4E487B71 PUSH1 0xE0 SHL PUSH1 0x0 MSTORE PUSH1 0x32 PUSH1 0x4 MSTORE PUSH1 0x24 PUSH1 0x0 REVERT JUMPDEST PUSH1 0x20 MUL PUSH1 0x20 ADD ADD MLOAD DUP3 PUSH2 0x116 SWAP2 SWAP1 PUSH2 0xA6A JUMP JUMPDEST SWAP2 POP DUP1 PUSH2 0x122 DUP2 PUSH2 0xA99 JUMP JUMPDEST SWAP2 POP POP PUSH2 0xDA JUMP JUMPDEST POP SWAP3 SWAP2 POP POP JUMP JUMPDEST POP PUSH1 0x0 SWAP2 SWAP1 POP JUMP JUMPDEST SWAP2 SWAP1 POP JUMP JUMPDEST PUSH1 0x0 DUP5 MLOAD PUSH1 0x0 EQ ISZERO PUSH2 0x152 JUMPI POP PUSH1 0x0 PUSH2 0x59A JUMP JUMPDEST DUP3 PUSH1 0x0 DUP4 ISZERO PUSH2 0x464 JUMPI PUSH2 0x166 DUP8 PUSH1 0x1 PUSH2 0x5A2 JUMP JUMPDEST SWAP7 POP PUSH1 0x0 JUMPDEST DUP8 MLOAD DUP2 LT ISZERO PUSH2 0x45E JUMPI PUSH1 0x0 DUP9 DUP3 DUP2 MLOAD DUP2 LT PUSH2 0x196 JUMPI PUSH4 0x4E487B71 PUSH1 0xE0 SHL PUSH1 0x0 MSTORE PUSH1 0x32 PUSH1 0x4 MSTORE PUSH1 0x24 PUSH1 0x0 REVERT JUMPDEST PUSH1 0x20 MUL PUSH1 0x20 ADD ADD MLOAD PUSH1 0x40 ADD MLOAD DUP10 DUP4 DUP2 MLOAD DUP2 LT PUSH2 0x1C2 JUMPI PUSH4 0x4E487B71 PUSH1 0xE0 SHL PUSH1 0x0 MSTORE PUSH1 0x32 PUSH1 0x4 MSTORE PUSH1 0x24 PUSH1 0x0 REVERT JUMPDEST PUSH1 0x20 MUL PUSH1 0x20 ADD ADD MLOAD PUSH1 0x20 ADD MLOAD GT ISZERO PUSH2 0x23D JUMPI DUP9 DUP3 DUP2 MLOAD DUP2 LT PUSH2 0x1F4 JUMPI PUSH4 0x4E487B71 PUSH1 0xE0 SHL PUSH1 0x0 MSTORE PUSH1 0x32 PUSH1 0x4 MSTORE PUSH1 0x24 PUSH1 0x0 REVERT JUMPDEST PUSH1 0x20 MUL PUSH1 0x20 ADD ADD MLOAD PUSH1 0x40 ADD MLOAD DUP10 DUP4 DUP2 MLOAD DUP2 LT PUSH2 0x220 JUMPI PUSH4 0x4E487B71 PUSH1 0xE0 SHL PUSH1 0x0 MSTORE PUSH1 0x32 PUSH1 0x4 MSTORE PUSH1 0x24 PUSH1 0x0 REVERT JUMPDEST PUSH1 0x20 MUL PUSH1 0x20 ADD ADD MLOAD PUSH1 0x20 ADD MLOAD PUSH2 0x236 SWAP2 SWAP1 PUSH2 0xA82 JUMP JUMPDEST SWAP1 POP PUSH2 0x241 JUMP JUMPDEST POP PUSH1 0x0 JUMPDEST DUP9 DUP3 DUP2 MLOAD DUP2 LT PUSH2 0x261 JUMPI PUSH4 0x4E487B71 PUSH1 0xE0 SHL PUSH1 0x0 MSTORE PUSH1 0x32 PUSH1 0x4 MSTORE PUSH1 0x24 PUSH1 0x0 REVERT JUMPDEST PUSH1 0x20 MUL PUSH1 0x20 ADD ADD MLOAD PUSH1 0x60 ADD MLOAD DUP2 GT ISZERO PUSH2 0x38B JUMPI DUP4 DUP10 DUP4 DUP2 MLOAD DUP2 LT PUSH2 0x295 JUMPI PUSH4 0x4E487B71 PUSH1 0xE0 SHL PUSH1 0x0 MSTORE PUSH1 0x32 PUSH1 0x4 MSTORE PUSH1 0x24 PUSH1 0x0 REVERT JUMPDEST PUSH1 0x20 MUL PUSH1 0x20 ADD ADD MLOAD PUSH1 0x60 ADD MLOAD GT ISZERO PUSH2 0x2E9 JUMPI DUP4 DUP10 DUP4 DUP2 MLOAD DUP2 LT PUSH2 0x2C8 JUMPI PUSH4 0x4E487B71 PUSH1 0xE0 SHL PUSH1 0x0 MSTORE PUSH1 0x32 PUSH1 0x4 MSTORE PUSH1 0x24 PUSH1 0x0 REVERT JUMPDEST PUSH1 0x20 MUL PUSH1 0x20 ADD ADD MLOAD PUSH1 0x40 ADD MLOAD PUSH2 0x2DE SWAP2 SWAP1 PUSH2 0xA6A JUMP JUMPDEST SWAP3 POP PUSH1 0x0 SWAP4 POP PUSH2 0x3FA JUMP JUMPDEST DUP9 DUP3 DUP2 MLOAD DUP2 LT PUSH2 0x309 JUMPI PUSH4 0x4E487B71 PUSH1 0xE0 SHL PUSH1 0x0 MSTORE PUSH1 0x32 PUSH1 0x4 MSTORE PUSH1 0x24 PUSH1 0x0 REVERT JUMPDEST PUSH1 0x20 MUL PUSH1 0x20 ADD ADD MLOAD PUSH1 0x60 ADD MLOAD DUP10 DUP4 DUP2 MLOAD DUP2 LT PUSH2 0x335 JUMPI PUSH4 0x4E487B71 PUSH1 0xE0 SHL PUSH1 0x0 MSTORE PUSH1 0x32 PUSH1 0x4 MSTORE PUSH1 0x24 PUSH1 0x0 REVERT JUMPDEST PUSH1 0x20 MUL PUSH1 0x20 ADD ADD MLOAD PUSH1 0x40 ADD MLOAD PUSH2 0x34B SWAP2 SWAP1 PUSH2 0xA6A JUMP JUMPDEST SWAP3 POP DUP9 DUP3 DUP2 MLOAD DUP2 LT PUSH2 0x36D JUMPI PUSH4 0x4E487B71 PUSH1 0xE0 SHL PUSH1 0x0 MSTORE PUSH1 0x32 PUSH1 0x4 MSTORE PUSH1 0x24 PUSH1 0x0 REVERT JUMPDEST PUSH1 0x20 MUL PUSH1 0x20 ADD ADD MLOAD PUSH1 0x60 ADD MLOAD DUP5 PUSH2 0x384 SWAP2 SWAP1 PUSH2 0xA82 JUMP JUMPDEST SWAP4 POP PUSH2 0x3FA JUMP JUMPDEST DUP4 DUP2 GT ISZERO PUSH2 0x3B4 JUMPI DUP4 DUP10 DUP4 DUP2 MLOAD DUP2 LT PUSH2 0x2C8 JUMPI PUSH4 0x4E487B71 PUSH1 0xE0 SHL PUSH1 0x0 MSTORE PUSH1 0x32 PUSH1 0x4 MSTORE PUSH1 0x24 PUSH1 0x0 REVERT JUMPDEST DUP1 DUP10 DUP4 DUP2 MLOAD DUP2 LT PUSH2 0x3D5 JUMPI PUSH4 0x4E487B71 PUSH1 0xE0 SHL PUSH1 0x0 MSTORE PUSH1 0x32 PUSH1 0x4 MSTORE PUSH1 0x24 PUSH1 0x0 REVERT JUMPDEST PUSH1 0x20 MUL PUSH1 0x20 ADD ADD MLOAD PUSH1 0x40 ADD MLOAD PUSH2 0x3EB SWAP2 SWAP1 PUSH2 0xA6A JUMP JUMPDEST SWAP3 POP PUSH2 0x3F7 DUP2 DUP6 PUSH2 0xA82 JUMP JUMPDEST SWAP4 POP JUMPDEST DUP9 DUP3 DUP2 MLOAD DUP2 LT PUSH2 0x41A JUMPI PUSH4 0x4E487B71 PUSH1 0xE0 SHL PUSH1 0x0 MSTORE PUSH1 0x32 PUSH1 0x4 MSTORE PUSH1 0x24 PUSH1 0x0 REVERT JUMPDEST PUSH1 0x20 MUL PUSH1 0x20 ADD ADD MLOAD PUSH1 0x0 ADD MLOAD PUSH1 0x1 PUSH1 0x1 PUSH1 0xA0 SHL SUB AND DUP9 PUSH1 0x1 PUSH1 0x1 PUSH1 0xA0 SHL SUB AND EQ ISZERO PUSH2 0x44B JUMPI DUP3 SWAP5 POP POP POP POP POP PUSH2 0x59A JUMP JUMPDEST POP DUP1 PUSH2 0x456 DUP2 PUSH2 0xA99 JUMP JUMPDEST SWAP2 POP POP PUSH2 0x16B JUMP JUMPDEST POP PUSH2 0x593 JUMP JUMPDEST PUSH2 0x46F DUP8 PUSH1 0x0 PUSH2 0x5A2 JUMP JUMPDEST SWAP7 POP PUSH1 0x0 JUMPDEST DUP8 MLOAD DUP2 LT ISZERO PUSH2 0x591 JUMPI DUP3 DUP9 DUP3 DUP2 MLOAD DUP2 LT PUSH2 0x49E JUMPI PUSH4 0x4E487B71 PUSH1 0xE0 SHL PUSH1 0x0 MSTORE PUSH1 0x32 PUSH1 0x4 MSTORE PUSH1 0x24 PUSH1 0x0 REVERT JUMPDEST PUSH1 0x20 MUL PUSH1 0x20 ADD ADD MLOAD PUSH1 0x40 ADD MLOAD GT ISZERO PUSH2 0x4F2 JUMPI DUP3 DUP9 DUP3 DUP2 MLOAD DUP2 LT PUSH2 0x4D1 JUMPI PUSH4 0x4E487B71 PUSH1 0xE0 SHL PUSH1 0x0 MSTORE PUSH1 0x32 PUSH1 0x4 MSTORE PUSH1 0x24 PUSH1 0x0 REVERT JUMPDEST PUSH1 0x20 MUL PUSH1 0x20 ADD ADD MLOAD PUSH1 0x40 ADD MLOAD PUSH2 0x4E7 SWAP2 SWAP1 PUSH2 0xA82 JUMP JUMPDEST SWAP2 POP PUSH1 0x0 SWAP3 POP PUSH2 0x530 JUMP JUMPDEST PUSH1 0x0 SWAP2 POP DUP8 DUP2 DUP2 MLOAD DUP2 LT PUSH2 0x516 JUMPI PUSH4 0x4E487B71 PUSH1 0xE0 SHL PUSH1 0x0 MSTORE PUSH1 0x32 PUSH1 0x4 MSTORE PUSH1 0x24 PUSH1 0x0 REVERT JUMPDEST PUSH1 0x20 MUL PUSH1 0x20 ADD ADD MLOAD PUSH1 0x40 ADD MLOAD DUP4 PUSH2 0x52D SWAP2 SWAP1 PUSH2 0xA82 JUMP JUMPDEST SWAP3 POP JUMPDEST DUP8 DUP2 DUP2 MLOAD DUP2 LT PUSH2 0x550 JUMPI PUSH4 0x4E487B71 PUSH1 0xE0 SHL PUSH1 0x0 MSTORE PUSH1 0x32 PUSH1 0x4 MSTORE PUSH1 0x24 PUSH1 0x0 REVERT JUMPDEST PUSH1 0x20 MUL PUSH1 0x20 ADD ADD MLOAD PUSH1 0x0 ADD MLOAD PUSH1 0x1 PUSH1 0x1 PUSH1 0xA0 SHL SUB AND DUP8 PUSH1 0x1 PUSH1 0x1 PUSH1 0xA0 SHL SUB AND EQ ISZERO PUSH2 0x57F JUMPI POP SWAP2 POP PUSH2 0x59A SWAP1 POP JUMP JUMPDEST DUP1 PUSH2 0x589 DUP2 PUSH2 0xA99 JUMP JUMPDEST SWAP2 POP POP PUSH2 0x474 JUMP JUMPDEST POP JUMPDEST PUSH1 0x0 SWAP3 POP POP POP JUMPDEST SWAP5 SWAP4 POP POP POP POP JUMP JUMPDEST DUP2 MLOAD PUSH1 0x60 SWAP1 PUSH1 0x0 JUMPDEST DUP2 DUP2 LT ISZERO PUSH2 0x810 JUMPI PUSH1 0x0 PUSH2 0x5BF DUP3 PUSH1 0x1 PUSH2 0xA6A JUMP JUMPDEST SWAP1 POP JUMPDEST DUP3 DUP2 LT ISZERO PUSH2 0x7FD JUMPI DUP5 ISZERO PUSH2 0x6E0 JUMPI DUP6 DUP2 DUP2 MLOAD DUP2 LT PUSH2 0x5F0 JUMPI PUSH4 0x4E487B71 PUSH1 0xE0 SHL PUSH1 0x0 MSTORE PUSH1 0x32 PUSH1 0x4 MSTORE PUSH1 0x24 PUSH1 0x0 REVERT JUMPDEST PUSH1 0x20 MUL PUSH1 0x20 ADD ADD MLOAD PUSH1 0x20 ADD MLOAD DUP7 DUP4 DUP2 MLOAD DUP2 LT PUSH2 0x61C JUMPI PUSH4 0x4E487B71 PUSH1 0xE0 SHL PUSH1 0x0 MSTORE PUSH1 0x32 PUSH1 0x4 MSTORE PUSH1 0x24 PUSH1 0x0 REVERT JUMPDEST PUSH1 0x20 MUL PUSH1 0x20 ADD ADD MLOAD PUSH1 0x20 ADD MLOAD LT ISZERO PUSH2 0x6DB JUMPI PUSH1 0x0 DUP7 DUP3 DUP2 MLOAD DUP2 LT PUSH2 0x650 JUMPI PUSH4 0x4E487B71 PUSH1 0xE0 SHL PUSH1 0x0 MSTORE PUSH1 0x32 PUSH1 0x4 MSTORE PUSH1 0x24 PUSH1 0x0 REVERT JUMPDEST PUSH1 0x20 MUL PUSH1 0x20 ADD ADD MLOAD SWAP1 POP DUP7 DUP4 DUP2 MLOAD DUP2 LT PUSH2 0x67A JUMPI PUSH4 0x4E487B71 PUSH1 0xE0 SHL PUSH1 0x0 MSTORE PUSH1 0x32 PUSH1 0x4 MSTORE PUSH1 0x24 PUSH1 0x0 REVERT JUMPDEST PUSH1 0x20 MUL PUSH1 0x20 ADD ADD MLOAD DUP8 DUP4 DUP2 MLOAD DUP2 LT PUSH2 0x6A2 JUMPI PUSH4 0x4E487B71 PUSH1 0xE0 SHL PUSH1 0x0 MSTORE PUSH1 0x32 PUSH1 0x4 MSTORE PUSH1 0x24 PUSH1 0x0 REVERT JUMPDEST PUSH1 0x20 MUL PUSH1 0x20 ADD ADD DUP2 SWAP1 MSTORE POP DUP1 DUP8 DUP5 DUP2 MLOAD DUP2 LT PUSH2 0x6CE JUMPI PUSH4 0x4E487B71 PUSH1 0xE0 SHL PUSH1 0x0 MSTORE PUSH1 0x32 PUSH1 0x4 MSTORE PUSH1 0x24 PUSH1 0x0 REVERT JUMPDEST PUSH1 0x20 MUL PUSH1 0x20 ADD ADD DUP2 SWAP1 MSTORE POP POP JUMPDEST PUSH2 0x7EB JUMP JUMPDEST DUP6 DUP2 DUP2 MLOAD DUP2 LT PUSH2 0x700 JUMPI PUSH4 0x4E487B71 PUSH1 0xE0 SHL PUSH1 0x0 MSTORE PUSH1 0x32 PUSH1 0x4 MSTORE PUSH1 0x24 PUSH1 0x0 REVERT JUMPDEST PUSH1 0x20 MUL PUSH1 0x20 ADD ADD MLOAD PUSH1 0x20 ADD MLOAD DUP7 DUP4 DUP2 MLOAD DUP2 LT PUSH2 0x72C JUMPI PUSH4 0x4E487B71 PUSH1 0xE0 SHL PUSH1 0x0 MSTORE PUSH1 0x32 PUSH1 0x4 MSTORE PUSH1 0x24 PUSH1 0x0 REVERT JUMPDEST PUSH1 0x20 MUL PUSH1 0x20 ADD ADD MLOAD PUSH1 0x20 ADD MLOAD GT ISZERO PUSH2 0x7EB JUMPI PUSH1 0x0 DUP7 DUP3 DUP2 MLOAD DUP2 LT PUSH2 0x760 JUMPI PUSH4 0x4E487B71 PUSH1 0xE0 SHL PUSH1 0x0 MSTORE PUSH1 0x32 PUSH1 0x4 MSTORE PUSH1 0x24 PUSH1 0x0 REVERT JUMPDEST PUSH1 0x20 MUL PUSH1 0x20 ADD ADD MLOAD SWAP1 POP DUP7 DUP4 DUP2 MLOAD DUP2 LT PUSH2 0x78A JUMPI PUSH4 0x4E487B71 PUSH1 0xE0 SHL PUSH1 0x0 MSTORE PUSH1 0x32 PUSH1 0x4 MSTORE PUSH1 0x24 PUSH1 0x0 REVERT JUMPDEST PUSH1 0x20 MUL PUSH1 0x20 ADD ADD MLOAD DUP8 DUP4 DUP2 MLOAD DUP2 LT PUSH2 0x7B2 JUMPI PUSH4 0x4E487B71 PUSH1 0xE0 SHL PUSH1 0x0 MSTORE PUSH1 0x32 PUSH1 0x4 MSTORE PUSH1 0x24 PUSH1 0x0 REVERT JUMPDEST PUSH1 0x20 MUL PUSH1 0x20 ADD ADD DUP2 SWAP1 MSTORE POP DUP1 DUP8 DUP5 DUP2 MLOAD DUP2 LT PUSH2 0x7DE JUMPI PUSH4 0x4E487B71 PUSH1 0xE0 SHL PUSH1 0x0 MSTORE PUSH1 0x32 PUSH1 0x4 MSTORE PUSH1 0x24 PUSH1 0x0 REVERT JUMPDEST PUSH1 0x20 MUL PUSH1 0x20 ADD ADD DUP2 SWAP1 MSTORE POP POP JUMPDEST DUP1 PUSH2 0x7F5 DUP2 PUSH2 0xA99 JUMP JUMPDEST SWAP2 POP POP PUSH2 0x5C2 JUMP JUMPDEST POP DUP1 PUSH2 0x808 DUP2 PUSH2 0xA99 JUMP JUMPDEST SWAP2 POP POP PUSH2 0x5AA JUMP JUMPDEST POP SWAP3 SWAP4 SWAP3 POP POP POP JUMP JUMPDEST DUP1 CALLDATALOAD PUSH1 0x1 PUSH1 0x1 PUSH1 0xA0 SHL SUB DUP2 AND DUP2 EQ PUSH2 0x139 JUMPI PUSH1 0x0 DUP1 REVERT JUMPDEST DUP1 CALLDATALOAD DUP1 ISZERO ISZERO DUP2 EQ PUSH2 0x139 JUMPI PUSH1 0x0 DUP1 REVERT JUMPDEST PUSH1 0x0 DUP1 PUSH1 0x0 DUP1 PUSH1 0x80 DUP1 DUP7 DUP9 SUB SLT ISZERO PUSH2 0x856 JUMPI DUP5 DUP6 REVERT JUMPDEST DUP6 CALLDATALOAD PUSH8 0xFFFFFFFFFFFFFFFF DUP2 GT ISZERO PUSH2 0x86C JUMPI DUP6 DUP7 REVERT JUMPDEST DUP7 ADD PUSH1 0x1F DUP2 ADD DUP9 SGT PUSH2 0x87C JUMPI DUP6 DUP7 REVERT JUMPDEST DUP1 CALLDATALOAD PUSH1 0x20 PUSH2 0x891 PUSH2 0x88C DUP4 PUSH2 0xA46 JUMP JUMPDEST PUSH2 0xA15 JUMP JUMPDEST DUP1 DUP4 DUP3 MSTORE DUP3 DUP3 ADD SWAP2 POP DUP3 DUP6 ADD DUP13 DUP5 DUP7 PUSH1 0x7 SHL DUP9 ADD ADD GT ISZERO PUSH2 0x8B0 JUMPI DUP11 DUP12 REVERT JUMPDEST DUP11 SWAP6 POP JUMPDEST DUP5 DUP7 LT ISZERO PUSH2 0x90D JUMPI DUP7 DUP2 DUP15 SUB SLT ISZERO PUSH2 0x8CA JUMPI DUP11 DUP12 REVERT JUMPDEST PUSH2 0x8D2 PUSH2 0x9EC JUMP JUMPDEST PUSH2 0x8DB DUP3 PUSH2 0x819 JUMP JUMPDEST DUP2 MSTORE DUP2 DUP6 ADD CALLDATALOAD DUP6 DUP3 ADD MSTORE PUSH1 0x40 DUP1 DUP4 ADD CALLDATALOAD SWAP1 DUP3 ADD MSTORE PUSH1 0x60 DUP1 DUP4 ADD CALLDATALOAD SWAP1 DUP3 ADD MSTORE DUP4 MSTORE PUSH1 0x1 SWAP6 SWAP1 SWAP6 ADD SWAP5 SWAP2 DUP4 ADD SWAP2 DUP7 ADD PUSH2 0x8B4 JUMP JUMPDEST POP SWAP9 POP PUSH2 0x91D SWAP1 POP DUP10 DUP3 ADD PUSH2 0x819 JUMP JUMPDEST SWAP7 POP POP POP POP POP PUSH1 0x40 DUP6 ADD CALLDATALOAD SWAP2 POP PUSH2 0x936 PUSH1 0x60 DUP7 ADD PUSH2 0x830 JUMP JUMPDEST SWAP1 POP SWAP3 SWAP6 SWAP2 SWAP5 POP SWAP3 POP JUMP JUMPDEST PUSH1 0x0 PUSH1 0x20 DUP1 DUP4 DUP6 SUB SLT ISZERO PUSH2 0x953 JUMPI DUP2 DUP3 REVERT JUMPDEST DUP3 CALLDATALOAD PUSH8 0xFFFFFFFFFFFFFFFF DUP2 GT ISZERO PUSH2 0x969 JUMPI DUP3 DUP4 REVERT JUMPDEST DUP4 ADD PUSH1 0x1F DUP2 ADD DUP6 SGT PUSH2 0x979 JUMPI DUP3 DUP4 REVERT JUMPDEST DUP1 CALLDATALOAD PUSH2 0x987 PUSH2 0x88C DUP3 PUSH2 0xA46 JUMP JUMPDEST DUP1 DUP3 DUP3 MSTORE DUP5 DUP3 ADD SWAP2 POP DUP5 DUP5 ADD DUP9 DUP7 DUP6 PUSH1 0x5 SHL DUP8 ADD ADD GT ISZERO PUSH2 0x9A6 JUMPI DUP7 DUP8 REVERT JUMPDEST DUP7 SWAP5 POP JUMPDEST DUP4 DUP6 LT ISZERO PUSH2 0x9C8 JUMPI DUP1 CALLDATALOAD DUP4 MSTORE PUSH1 0x1 SWAP5 SWAP1 SWAP5 ADD SWAP4 SWAP2 DUP6 ADD SWAP2 DUP6 ADD PUSH2 0x9AA JUMP JUMPDEST POP SWAP8 SWAP7 POP POP POP POP POP POP POP JUMP JUMPDEST PUSH1 0x0 PUSH1 0x20 DUP3 DUP5 SUB SLT ISZERO PUSH2 0x9E5 JUMPI DUP1 DUP2 REVERT JUMPDEST POP CALLDATALOAD SWAP2 SWAP1 POP JUMP JUMPDEST PUSH1 0x40 MLOAD PUSH1 0x80 DUP2 ADD PUSH8 0xFFFFFFFFFFFFFFFF DUP2 GT DUP3 DUP3 LT OR ISZERO PUSH2 0xA0F JUMPI PUSH2 0xA0F PUSH2 0xACA JUMP JUMPDEST PUSH1 0x40 MSTORE SWAP1 JUMP JUMPDEST PUSH1 0x40 MLOAD PUSH1 0x1F DUP3 ADD PUSH1 0x1F NOT AND DUP2 ADD PUSH8 0xFFFFFFFFFFFFFFFF DUP2 GT DUP3 DUP3 LT OR ISZERO PUSH2 0xA3E JUMPI PUSH2 0xA3E PUSH2 0xACA JUMP JUMPDEST PUSH1 0x40 MSTORE SWAP2 SWAP1 POP JUMP JUMPDEST PUSH1 0x0 PUSH8 0xFFFFFFFFFFFFFFFF DUP3 GT ISZERO PUSH2 0xA60 JUMPI PUSH2 0xA60 PUSH2 0xACA JUMP JUMPDEST POP PUSH1 0x5 SHL PUSH1 0x20 ADD SWAP1 JUMP JUMPDEST PUSH1 0x0 DUP3 NOT DUP3 GT ISZERO PUSH2 0xA7D JUMPI PUSH2 0xA7D PUSH2 0xAB4 JUMP JUMPDEST POP ADD SWAP1 JUMP JUMPDEST PUSH1 0x0 DUP3 DUP3 LT ISZERO PUSH2 0xA94 JUMPI PUSH2 0xA94 PUSH2 0xAB4 JUMP JUMPDEST POP SUB SWAP1 JUMP JUMPDEST PUSH1 0x0 PUSH1 0x0 NOT DUP3 EQ ISZERO PUSH2 0xAAD JUMPI PUSH2 0xAAD PUSH2 0xAB4 JUMP JUMPDEST POP PUSH1 0x1 ADD SWAP1 JUMP JUMPDEST PUSH4 0x4E487B71 PUSH1 0xE0 SHL PUSH1 0x0 MSTORE PUSH1 0x11 PUSH1 0x4 MSTORE PUSH1 0x24 PUSH1 0x0 REVERT JUMPDEST PUSH4 0x4E487B71 PUSH1 0xE0 SHL PUSH1 0x0 MSTORE PUSH1 0x41 PUSH1 0x4 MSTORE PUSH1 0x24 PUSH1 0x0 REVERT INVALID LOG2 PUSH5 0x6970667358 0x22 SLT KECCAK256 0xA8 0xD0 0xE1 ORIGIN PUSH2 0x7DED 0xD8 SHR 0x4D SWAP8 AND SWAP11 0xB4 0x2D 0xBB 0xCD PUSH31 0x7BD211D8A63CEB65BEABDD5006CF64736F6C63430008040033000000000000 "
        },
        "gasEstimates": {
          "creation": {
            "codeDepositCost": "567600",
            "executionCost": "infinite",
            "totalCost": "infinite"
          },
          "external": {
            "effectiveNumber()": "984",
            "getCreditLimit(uint256[])": "infinite",
            "getLockedAmount((address,uint256,uint256,uint256)[],address,uint256,bool)": "infinite",
            "isCreditLimitModel()": "267",
            "setEffectNumber(uint256)": "20234"
          },
          "internal": {
            "_sortArray(struct SumOfTrustMock.LockedInfo memory[] memory,bool)": "infinite"
          }
        },
        "methodIdentifiers": {
          "effectiveNumber()": "51118cfb",
          "getCreditLimit(uint256[])": "4c9cc673",
          "getLockedAmount((address,uint256,uint256,uint256)[],address,uint256,bool)": "a0d9987b",
          "isCreditLimitModel()": "b0db4930",
          "setEffectNumber(uint256)": "747bcf8f"
        }
      },
      "storageLayout": {
        "storage": [
          {
            "astId": 15,
            "contract": "contracts/tests/SumOfTrustMock.sol:SumOfTrustMock",
            "label": "effectiveNumber",
            "offset": 0,
            "slot": "0",
            "type": "t_uint256"
          }
        ],
        "types": {
          "t_uint256": {
            "encoding": "inplace",
            "label": "uint256",
            "numberOfBytes": "32"
          }
        }
      },
      "userdoc": {
        "kind": "user",
        "methods": {},
        "version": 1
      }
    }
  }
}