{
  "_format": "hh-sol-artifact-1",
  "contractName": "MixinPurchase",
  "sourceName": "contracts/mixins/MixinPurchase.sol",
  "abi": [
    {
      "anonymous": false,
      "inputs": [
        {
          "indexed": true,
          "internalType": "address",
          "name": "owner",
          "type": "address"
        },
        {
          "indexed": true,
          "internalType": "address",
          "name": "approved",
          "type": "address"
        },
        {
          "indexed": true,
          "internalType": "uint256",
          "name": "tokenId",
          "type": "uint256"
        }
      ],
      "name": "Approval",
      "type": "event"
    },
    {
      "anonymous": false,
      "inputs": [
        {
          "indexed": true,
          "internalType": "address",
          "name": "owner",
          "type": "address"
        },
        {
          "indexed": true,
          "internalType": "address",
          "name": "operator",
          "type": "address"
        },
        {
          "indexed": false,
          "internalType": "bool",
          "name": "approved",
          "type": "bool"
        }
      ],
      "name": "ApprovalForAll",
      "type": "event"
    },
    {
      "anonymous": false,
      "inputs": [],
      "name": "Disable",
      "type": "event"
    },
    {
      "anonymous": false,
      "inputs": [
        {
          "indexed": true,
          "internalType": "uint256",
          "name": "_tokenId",
          "type": "uint256"
        },
        {
          "indexed": false,
          "internalType": "uint256",
          "name": "_amount",
          "type": "uint256"
        },
        {
          "indexed": false,
          "internalType": "bool",
          "name": "_timeAdded",
          "type": "bool"
        }
      ],
      "name": "ExpirationChanged",
      "type": "event"
    },
    {
      "anonymous": false,
      "inputs": [
        {
          "indexed": true,
          "internalType": "uint256",
          "name": "tokenId",
          "type": "uint256"
        }
      ],
      "name": "ExpireKey",
      "type": "event"
    },
    {
      "anonymous": false,
      "inputs": [
        {
          "indexed": true,
          "internalType": "address",
          "name": "account",
          "type": "address"
        }
      ],
      "name": "KeyGranterAdded",
      "type": "event"
    },
    {
      "anonymous": false,
      "inputs": [
        {
          "indexed": true,
          "internalType": "address",
          "name": "account",
          "type": "address"
        }
      ],
      "name": "KeyGranterRemoved",
      "type": "event"
    },
    {
      "anonymous": false,
      "inputs": [
        {
          "indexed": true,
          "internalType": "uint256",
          "name": "_tokenId",
          "type": "uint256"
        },
        {
          "indexed": true,
          "internalType": "address",
          "name": "_newManager",
          "type": "address"
        }
      ],
      "name": "KeyManagerChanged",
      "type": "event"
    },
    {
      "anonymous": false,
      "inputs": [
        {
          "indexed": true,
          "internalType": "address",
          "name": "account",
          "type": "address"
        }
      ],
      "name": "LockManagerAdded",
      "type": "event"
    },
    {
      "anonymous": false,
      "inputs": [
        {
          "indexed": true,
          "internalType": "address",
          "name": "account",
          "type": "address"
        }
      ],
      "name": "LockManagerRemoved",
      "type": "event"
    },
    {
      "anonymous": false,
      "inputs": [
        {
          "indexed": false,
          "internalType": "uint256",
          "name": "oldKeyPrice",
          "type": "uint256"
        },
        {
          "indexed": false,
          "internalType": "uint256",
          "name": "keyPrice",
          "type": "uint256"
        },
        {
          "indexed": false,
          "internalType": "address",
          "name": "oldTokenAddress",
          "type": "address"
        },
        {
          "indexed": false,
          "internalType": "address",
          "name": "tokenAddress",
          "type": "address"
        }
      ],
      "name": "PricingChanged",
      "type": "event"
    },
    {
      "anonymous": false,
      "inputs": [
        {
          "indexed": true,
          "internalType": "address",
          "name": "owner",
          "type": "address"
        },
        {
          "indexed": false,
          "internalType": "uint256",
          "name": "newExpiration",
          "type": "uint256"
        }
      ],
      "name": "RenewKeyPurchase",
      "type": "event"
    },
    {
      "anonymous": false,
      "inputs": [
        {
          "indexed": true,
          "internalType": "bytes32",
          "name": "role",
          "type": "bytes32"
        },
        {
          "indexed": true,
          "internalType": "bytes32",
          "name": "previousAdminRole",
          "type": "bytes32"
        },
        {
          "indexed": true,
          "internalType": "bytes32",
          "name": "newAdminRole",
          "type": "bytes32"
        }
      ],
      "name": "RoleAdminChanged",
      "type": "event"
    },
    {
      "anonymous": false,
      "inputs": [
        {
          "indexed": true,
          "internalType": "bytes32",
          "name": "role",
          "type": "bytes32"
        },
        {
          "indexed": true,
          "internalType": "address",
          "name": "account",
          "type": "address"
        },
        {
          "indexed": true,
          "internalType": "address",
          "name": "sender",
          "type": "address"
        }
      ],
      "name": "RoleGranted",
      "type": "event"
    },
    {
      "anonymous": false,
      "inputs": [
        {
          "indexed": true,
          "internalType": "bytes32",
          "name": "role",
          "type": "bytes32"
        },
        {
          "indexed": true,
          "internalType": "address",
          "name": "account",
          "type": "address"
        },
        {
          "indexed": true,
          "internalType": "address",
          "name": "sender",
          "type": "address"
        }
      ],
      "name": "RoleRevoked",
      "type": "event"
    },
    {
      "anonymous": false,
      "inputs": [
        {
          "indexed": true,
          "internalType": "address",
          "name": "from",
          "type": "address"
        },
        {
          "indexed": true,
          "internalType": "address",
          "name": "to",
          "type": "address"
        },
        {
          "indexed": true,
          "internalType": "uint256",
          "name": "tokenId",
          "type": "uint256"
        }
      ],
      "name": "Transfer",
      "type": "event"
    },
    {
      "anonymous": false,
      "inputs": [
        {
          "indexed": true,
          "internalType": "address",
          "name": "sender",
          "type": "address"
        },
        {
          "indexed": true,
          "internalType": "address",
          "name": "tokenAddress",
          "type": "address"
        },
        {
          "indexed": true,
          "internalType": "address",
          "name": "beneficiary",
          "type": "address"
        },
        {
          "indexed": false,
          "internalType": "uint256",
          "name": "amount",
          "type": "uint256"
        }
      ],
      "name": "Withdrawal",
      "type": "event"
    },
    {
      "inputs": [],
      "name": "DEFAULT_ADMIN_ROLE",
      "outputs": [
        {
          "internalType": "bytes32",
          "name": "",
          "type": "bytes32"
        }
      ],
      "stateMutability": "view",
      "type": "function"
    },
    {
      "inputs": [],
      "name": "KEY_GRANTER_ROLE",
      "outputs": [
        {
          "internalType": "bytes32",
          "name": "",
          "type": "bytes32"
        }
      ],
      "stateMutability": "view",
      "type": "function"
    },
    {
      "inputs": [],
      "name": "LOCK_MANAGER_ROLE",
      "outputs": [
        {
          "internalType": "bytes32",
          "name": "",
          "type": "bytes32"
        }
      ],
      "stateMutability": "view",
      "type": "function"
    },
    {
      "inputs": [
        {
          "internalType": "address",
          "name": "account",
          "type": "address"
        }
      ],
      "name": "addKeyGranter",
      "outputs": [],
      "stateMutability": "nonpayable",
      "type": "function"
    },
    {
      "inputs": [
        {
          "internalType": "address",
          "name": "account",
          "type": "address"
        }
      ],
      "name": "addLockManager",
      "outputs": [],
      "stateMutability": "nonpayable",
      "type": "function"
    },
    {
      "inputs": [
        {
          "internalType": "address",
          "name": "_approved",
          "type": "address"
        },
        {
          "internalType": "uint256",
          "name": "_tokenId",
          "type": "uint256"
        }
      ],
      "name": "approve",
      "outputs": [],
      "stateMutability": "nonpayable",
      "type": "function"
    },
    {
      "inputs": [
        {
          "internalType": "address",
          "name": "_spender",
          "type": "address"
        },
        {
          "internalType": "uint256",
          "name": "_amount",
          "type": "uint256"
        }
      ],
      "name": "approveBeneficiary",
      "outputs": [
        {
          "internalType": "bool",
          "name": "",
          "type": "bool"
        }
      ],
      "stateMutability": "nonpayable",
      "type": "function"
    },
    {
      "inputs": [
        {
          "internalType": "address",
          "name": "_keyOwner",
          "type": "address"
        }
      ],
      "name": "balanceOf",
      "outputs": [
        {
          "internalType": "uint256",
          "name": "",
          "type": "uint256"
        }
      ],
      "stateMutability": "view",
      "type": "function"
    },
    {
      "inputs": [],
      "name": "beneficiary",
      "outputs": [
        {
          "internalType": "address payable",
          "name": "",
          "type": "address"
        }
      ],
      "stateMutability": "view",
      "type": "function"
    },
    {
      "inputs": [],
      "name": "disableLock",
      "outputs": [],
      "stateMutability": "nonpayable",
      "type": "function"
    },
    {
      "inputs": [],
      "name": "expirationDuration",
      "outputs": [
        {
          "internalType": "uint256",
          "name": "",
          "type": "uint256"
        }
      ],
      "stateMutability": "view",
      "type": "function"
    },
    {
      "inputs": [
        {
          "internalType": "uint256",
          "name": "_tokenId",
          "type": "uint256"
        }
      ],
      "name": "getApproved",
      "outputs": [
        {
          "internalType": "address",
          "name": "",
          "type": "address"
        }
      ],
      "stateMutability": "view",
      "type": "function"
    },
    {
      "inputs": [
        {
          "internalType": "address",
          "name": "_keyOwner",
          "type": "address"
        }
      ],
      "name": "getHasValidKey",
      "outputs": [
        {
          "internalType": "bool",
          "name": "",
          "type": "bool"
        }
      ],
      "stateMutability": "view",
      "type": "function"
    },
    {
      "inputs": [
        {
          "internalType": "bytes32",
          "name": "role",
          "type": "bytes32"
        }
      ],
      "name": "getRoleAdmin",
      "outputs": [
        {
          "internalType": "bytes32",
          "name": "",
          "type": "bytes32"
        }
      ],
      "stateMutability": "view",
      "type": "function"
    },
    {
      "inputs": [
        {
          "internalType": "address",
          "name": "_account",
          "type": "address"
        }
      ],
      "name": "getTokenIdFor",
      "outputs": [
        {
          "internalType": "uint256",
          "name": "",
          "type": "uint256"
        }
      ],
      "stateMutability": "view",
      "type": "function"
    },
    {
      "inputs": [
        {
          "internalType": "bytes32",
          "name": "role",
          "type": "bytes32"
        },
        {
          "internalType": "address",
          "name": "account",
          "type": "address"
        }
      ],
      "name": "grantRole",
      "outputs": [],
      "stateMutability": "nonpayable",
      "type": "function"
    },
    {
      "inputs": [
        {
          "internalType": "bytes32",
          "name": "role",
          "type": "bytes32"
        },
        {
          "internalType": "address",
          "name": "account",
          "type": "address"
        }
      ],
      "name": "hasRole",
      "outputs": [
        {
          "internalType": "bool",
          "name": "",
          "type": "bool"
        }
      ],
      "stateMutability": "view",
      "type": "function"
    },
    {
      "inputs": [],
      "name": "isAlive",
      "outputs": [
        {
          "internalType": "bool",
          "name": "",
          "type": "bool"
        }
      ],
      "stateMutability": "view",
      "type": "function"
    },
    {
      "inputs": [
        {
          "internalType": "address",
          "name": "_owner",
          "type": "address"
        },
        {
          "internalType": "address",
          "name": "_operator",
          "type": "address"
        }
      ],
      "name": "isApprovedForAll",
      "outputs": [
        {
          "internalType": "bool",
          "name": "",
          "type": "bool"
        }
      ],
      "stateMutability": "view",
      "type": "function"
    },
    {
      "inputs": [
        {
          "internalType": "address",
          "name": "account",
          "type": "address"
        }
      ],
      "name": "isKeyGranter",
      "outputs": [
        {
          "internalType": "bool",
          "name": "",
          "type": "bool"
        }
      ],
      "stateMutability": "view",
      "type": "function"
    },
    {
      "inputs": [
        {
          "internalType": "address",
          "name": "account",
          "type": "address"
        }
      ],
      "name": "isLockManager",
      "outputs": [
        {
          "internalType": "bool",
          "name": "",
          "type": "bool"
        }
      ],
      "stateMutability": "view",
      "type": "function"
    },
    {
      "inputs": [
        {
          "internalType": "address",
          "name": "_keyOwner",
          "type": "address"
        }
      ],
      "name": "keyExpirationTimestampFor",
      "outputs": [
        {
          "internalType": "uint256",
          "name": "",
          "type": "uint256"
        }
      ],
      "stateMutability": "view",
      "type": "function"
    },
    {
      "inputs": [
        {
          "internalType": "uint256",
          "name": "",
          "type": "uint256"
        }
      ],
      "name": "keyManagerOf",
      "outputs": [
        {
          "internalType": "address",
          "name": "",
          "type": "address"
        }
      ],
      "stateMutability": "view",
      "type": "function"
    },
    {
      "inputs": [],
      "name": "keyPrice",
      "outputs": [
        {
          "internalType": "uint256",
          "name": "",
          "type": "uint256"
        }
      ],
      "stateMutability": "view",
      "type": "function"
    },
    {
      "inputs": [],
      "name": "maxNumberOfKeys",
      "outputs": [
        {
          "internalType": "uint256",
          "name": "",
          "type": "uint256"
        }
      ],
      "stateMutability": "view",
      "type": "function"
    },
    {
      "inputs": [],
      "name": "numberOfOwners",
      "outputs": [
        {
          "internalType": "uint256",
          "name": "",
          "type": "uint256"
        }
      ],
      "stateMutability": "view",
      "type": "function"
    },
    {
      "inputs": [],
      "name": "onKeyCancelHook",
      "outputs": [
        {
          "internalType": "contract ILockKeyCancelHook",
          "name": "",
          "type": "address"
        }
      ],
      "stateMutability": "view",
      "type": "function"
    },
    {
      "inputs": [],
      "name": "onKeyPurchaseHook",
      "outputs": [
        {
          "internalType": "contract ILockKeyPurchaseHook",
          "name": "",
          "type": "address"
        }
      ],
      "stateMutability": "view",
      "type": "function"
    },
    {
      "inputs": [
        {
          "internalType": "uint256",
          "name": "_tokenId",
          "type": "uint256"
        }
      ],
      "name": "ownerOf",
      "outputs": [
        {
          "internalType": "address",
          "name": "",
          "type": "address"
        }
      ],
      "stateMutability": "view",
      "type": "function"
    },
    {
      "inputs": [
        {
          "internalType": "uint256",
          "name": "",
          "type": "uint256"
        }
      ],
      "name": "owners",
      "outputs": [
        {
          "internalType": "address",
          "name": "",
          "type": "address"
        }
      ],
      "stateMutability": "view",
      "type": "function"
    },
    {
      "inputs": [],
      "name": "publicLockVersion",
      "outputs": [
        {
          "internalType": "uint16",
          "name": "",
          "type": "uint16"
        }
      ],
      "stateMutability": "pure",
      "type": "function"
    },
    {
      "inputs": [
        {
          "internalType": "uint256",
          "name": "_value",
          "type": "uint256"
        },
        {
          "internalType": "address",
          "name": "_recipient",
          "type": "address"
        },
        {
          "internalType": "address",
          "name": "_referrer",
          "type": "address"
        },
        {
          "internalType": "bytes",
          "name": "_data",
          "type": "bytes"
        }
      ],
      "name": "purchase",
      "outputs": [],
      "stateMutability": "payable",
      "type": "function"
    },
    {
      "inputs": [
        {
          "internalType": "address",
          "name": "_recipient",
          "type": "address"
        },
        {
          "internalType": "address",
          "name": "_referrer",
          "type": "address"
        },
        {
          "internalType": "bytes",
          "name": "_data",
          "type": "bytes"
        }
      ],
      "name": "purchasePriceFor",
      "outputs": [
        {
          "internalType": "uint256",
          "name": "minKeyPrice",
          "type": "uint256"
        }
      ],
      "stateMutability": "view",
      "type": "function"
    },
    {
      "inputs": [],
      "name": "renounceLockManager",
      "outputs": [],
      "stateMutability": "nonpayable",
      "type": "function"
    },
    {
      "inputs": [
        {
          "internalType": "bytes32",
          "name": "role",
          "type": "bytes32"
        },
        {
          "internalType": "address",
          "name": "account",
          "type": "address"
        }
      ],
      "name": "renounceRole",
      "outputs": [],
      "stateMutability": "nonpayable",
      "type": "function"
    },
    {
      "inputs": [
        {
          "internalType": "address",
          "name": "_granter",
          "type": "address"
        }
      ],
      "name": "revokeKeyGranter",
      "outputs": [],
      "stateMutability": "nonpayable",
      "type": "function"
    },
    {
      "inputs": [
        {
          "internalType": "bytes32",
          "name": "role",
          "type": "bytes32"
        },
        {
          "internalType": "address",
          "name": "account",
          "type": "address"
        }
      ],
      "name": "revokeRole",
      "outputs": [],
      "stateMutability": "nonpayable",
      "type": "function"
    },
    {
      "inputs": [
        {
          "internalType": "address",
          "name": "_to",
          "type": "address"
        },
        {
          "internalType": "bool",
          "name": "_approved",
          "type": "bool"
        }
      ],
      "name": "setApprovalForAll",
      "outputs": [],
      "stateMutability": "nonpayable",
      "type": "function"
    },
    {
      "inputs": [
        {
          "internalType": "address",
          "name": "_onKeyPurchaseHook",
          "type": "address"
        },
        {
          "internalType": "address",
          "name": "_onKeyCancelHook",
          "type": "address"
        }
      ],
      "name": "setEventHooks",
      "outputs": [],
      "stateMutability": "nonpayable",
      "type": "function"
    },
    {
      "inputs": [
        {
          "internalType": "uint256",
          "name": "_tokenId",
          "type": "uint256"
        },
        {
          "internalType": "address",
          "name": "_keyManager",
          "type": "address"
        }
      ],
      "name": "setKeyManagerOf",
      "outputs": [],
      "stateMutability": "nonpayable",
      "type": "function"
    },
    {
      "inputs": [
        {
          "internalType": "bytes4",
          "name": "interfaceId",
          "type": "bytes4"
        }
      ],
      "name": "supportsInterface",
      "outputs": [
        {
          "internalType": "bool",
          "name": "",
          "type": "bool"
        }
      ],
      "stateMutability": "view",
      "type": "function"
    },
    {
      "inputs": [],
      "name": "tokenAddress",
      "outputs": [
        {
          "internalType": "address",
          "name": "",
          "type": "address"
        }
      ],
      "stateMutability": "view",
      "type": "function"
    },
    {
      "inputs": [],
      "name": "totalSupply",
      "outputs": [
        {
          "internalType": "uint256",
          "name": "",
          "type": "uint256"
        }
      ],
      "stateMutability": "view",
      "type": "function"
    },
    {
      "inputs": [],
      "name": "unlockProtocol",
      "outputs": [
        {
          "internalType": "contract IUnlock",
          "name": "",
          "type": "address"
        }
      ],
      "stateMutability": "view",
      "type": "function"
    },
    {
      "inputs": [
        {
          "internalType": "address payable",
          "name": "_beneficiary",
          "type": "address"
        }
      ],
      "name": "updateBeneficiary",
      "outputs": [],
      "stateMutability": "nonpayable",
      "type": "function"
    },
    {
      "inputs": [
        {
          "internalType": "uint256",
          "name": "_keyPrice",
          "type": "uint256"
        },
        {
          "internalType": "address",
          "name": "_tokenAddress",
          "type": "address"
        }
      ],
      "name": "updateKeyPricing",
      "outputs": [],
      "stateMutability": "nonpayable",
      "type": "function"
    },
    {
      "inputs": [
        {
          "internalType": "address",
          "name": "_tokenAddress",
          "type": "address"
        },
        {
          "internalType": "uint256",
          "name": "_amount",
          "type": "uint256"
        }
      ],
      "name": "withdraw",
      "outputs": [],
      "stateMutability": "nonpayable",
      "type": "function"
    }
  ],
  "bytecode": "0x608060405234801561001057600080fd5b50612cd7806100206000396000f3fe6080604052600436106102885760003560e01c80636352211e1161015a578063aae4b8f7116100c1578063d1bbd49c1161007a578063d1bbd49c1461081e578063d25034851461083a578063d547741f1461085a578063e985e9c51461087a578063f0ba60401461089a578063f3fef3a3146108af57600080fd5b8063aae4b8f714610750578063abdf82ce14610770578063ad0e0a4d146107a9578063b11d7ec1146107c9578063b585a6d5146107e9578063c1c98d031461080957600080fd5b806393fd18441161011357806393fd184414610690578063970aaeb7146106a55780639d76ea58146106db578063a217fddf146106fb578063a22cb46514610710578063a2e4cd2e1461073057600080fd5b80636352211e146105a75780636d8ea5b4146105dd57806370a082311461061857806374b6c106146106385780638ca2fbad1461064e57806391d148541461067057600080fd5b806323100509116101fe57806338af3eed116101b757806338af3eed146104dd5780633f33133a146104fd5780634136aa35146105105780634d025fed1461053157806352b0f63814610567578063564aa99d1461058757600080fd5b8063231005091461040b578063248a9ca31461042d5780632af9162a1461045d5780632d33dd5b1461047d5780632f2ff15d1461049d57806336568abe146104bd57600080fd5b80630aaffd2a116102505780630aaffd2a1461036a5780630f15023b1461038a57806310e56973146103aa57806311a4c03a146103c057806318160ddd146103d6578063217751bc146103eb57600080fd5b806301ffc9a71461028d578063025e7c27146102c2578063081812fc146102fa578063095ea7b31461031a578063097ba3331461033c575b600080fd5b34801561029957600080fd5b506102ad6102a8366004612891565b6108cf565b60405190151581526020015b60405180910390f35b3480156102ce57600080fd5b506102e26102dd366004612855565b610906565b6040516001600160a01b0390911681526020016102b9565b34801561030657600080fd5b506102e2610315366004612855565b610930565b34801561032657600080fd5b5061033a61033536600461280e565b6109a6565b005b34801561034857600080fd5b5061035c61035736600461277e565b610b1f565b6040519081526020016102b9565b34801561037657600080fd5b5061033a61038536600461272a565b610b6e565b34801561039657600080fd5b506098546102e2906001600160a01b031681565b3480156103b657600080fd5b5061035c609a5481565b3480156103cc57600080fd5b5061035c60995481565b3480156103e257600080fd5b50609c5461035c565b3480156103f757600080fd5b50609f546102e2906001600160a01b031681565b34801561041757600080fd5b5061035c600080516020612c6283398151915281565b34801561043957600080fd5b5061035c610448366004612855565b60009081526065602052604090206001015490565b34801561046957600080fd5b5061033a61047836600461272a565b610c1f565b34801561048957600080fd5b50609e546102e2906001600160a01b031681565b3480156104a957600080fd5b5061033a6104b836600461286d565b610ca2565b3480156104c957600080fd5b5061033a6104d836600461286d565b610ccd565b3480156104e957600080fd5b50609d546102e2906001600160a01b031681565b61033a61050b3660046128d1565b610d4b565b34801561051c57600080fd5b506097546102ad90600160a01b900460ff1681565b34801561053d57600080fd5b506102e261054c366004612855565b60a3602052600090815260409020546001600160a01b031681565b34801561057357600080fd5b506102ad61058236600461272a565b6111d7565b34801561059357600080fd5b5061033a6105a236600461272a565b6111f1565b3480156105b357600080fd5b506102e26105c2366004612855565b600090815260a160205260409020546001600160a01b031690565b3480156105e957600080fd5b506102ad6105f836600461272a565b6001600160a01b0316600090815260a06020526040902060010154421090565b34801561062457600080fd5b5061035c61063336600461272a565b611274565b34801561064457600080fd5b5061035c609b5481565b34801561065a57600080fd5b5061035c600080516020612c8283398151915281565b34801561067c57600080fd5b506102ad61068b36600461286d565b6112d1565b34801561069c57600080fd5b5060a25461035c565b3480156106b157600080fd5b5061035c6106c036600461272a565b6001600160a01b0316600090815260a0602052604090205490565b3480156106e757600080fd5b506097546102e2906001600160a01b031681565b34801561070757600080fd5b5061035c600081565b34801561071c57600080fd5b5061033a61072b3660046127e1565b6112fc565b34801561073c57600080fd5b5061033a61074b36600461286d565b6113d9565b34801561075c57600080fd5b506102ad61076b36600461272a565b611573565b34801561077c57600080fd5b5061035c61078b36600461272a565b6001600160a01b0316600090815260a0602052604090206001015490565b3480156107b557600080fd5b5061033a6107c4366004612746565b61158d565b3480156107d557600080fd5b5061033a6107e436600461286d565b6116c5565b3480156107f557600080fd5b506102ad61080436600461280e565b611788565b34801561081557600080fd5b5061033a611881565b34801561082a57600080fd5b50604051600981526020016102b9565b34801561084657600080fd5b5061033a61085536600461272a565b611916565b34801561086657600080fd5b5061033a61087536600461286d565b611999565b34801561088657600080fd5b506102ad610895366004612746565b6119bf565b3480156108a657600080fd5b5061033a611a54565b3480156108bb57600080fd5b5061033a6108ca36600461280e565b611a99565b60006001600160e01b03198216637965db0b60e01b148061090057506301ffc9a760e01b6001600160e01b03198316145b92915050565b60a2818154811061091657600080fd5b6000918252602090912001546001600160a01b0316905081565b600081815260a1602052604081205482906001600160a01b03166109895760405162461bcd60e51b815260206004820152600b60248201526a4e4f5f535543485f4b455960a81b60448201526064015b60405180910390fd5b5050600090815260a460205260409020546001600160a01b031690565b609754600160a01b900460ff166109cf5760405162461bcd60e51b815260040161098090612b53565b806109da8133611c59565b806109fb5750600081815260a460205260409020546001600160a01b031633145b80610a235750600081815260a16020526040902054610a23906001600160a01b0316336119bf565b610a6f5760405162461bcd60e51b815260206004820152601c60248201527f4f4e4c595f4b45595f4d414e414745525f4f525f415050524f564544000000006044820152606401610980565b336001600160a01b0384161415610ab75760405162461bcd60e51b815260206004820152600c60248201526b20a8282927ab22afa9a2a62360a11b6044820152606401610980565b600082815260a46020908152604080832080546001600160a01b0319166001600160a01b0388811691821790925560a1909352818420549151869492909116917f8c5be1e5ebec7d5bd14f71427d1e84f3dd0314c0f7b2291e5b200ac8c7c3b92591a4505050565b6000610b62858585858080601f016020809104026020016040519081016040528093929190818152602001838380828437600092019190915250611ccf92505050565b50909695505050505050565b609d546001600160a01b0316331480610b8b5750610b8b33611573565b610bd75760405162461bcd60e51b815260206004820152601f60248201527f4f4e4c595f42454e45464943494152595f4f525f4c4f434b4d414e41474552006044820152606401610980565b6001600160a01b038116610bfd5760405162461bcd60e51b815260040161098090612ad5565b609d80546001600160a01b0319166001600160a01b0392909216919091179055565b610c37600080516020612c82833981519152336112d1565b610c535760405162461bcd60e51b815260040161098090612afe565b610c6b600080516020612c6283398151915282611999565b6040516001600160a01b038216907f766f6199fea59554b9ff688e413302b9200f85d74811c053c12d945ac6d8dd7a90600090a250565b600082815260656020526040902060010154610cbe8133611e6e565b610cc88383611ed2565b505050565b6001600160a01b0381163314610d3d5760405162461bcd60e51b815260206004820152602f60248201527f416363657373436f6e74726f6c3a2063616e206f6e6c792072656e6f756e636560448201526e103937b632b9903337b91039b2b63360891b6064820152608401610980565b610d478282611f58565b5050565b609754600160a01b900460ff16610d745760405162461bcd60e51b815260040161098090612b53565b609c54609b5411610db75760405162461bcd60e51b815260206004820152600d60248201526c1313d0d2d7d4d3d31117d3d555609a1b6044820152606401610980565b6001600160a01b038416610ddd5760405162461bcd60e51b815260040161098090612ad5565b6001600160a01b038416600090815260a0602052604081208054909181610e6957610e0783611fbf565b82549150610e158783611fe3565b609954610e229042612b7c565b6001840181905560405190915082906001600160a01b038916906000907fddf252ad1be2c89b69c2b068fc378daa952ba7f163c4a11628f55a4df523b3ef908290a4610f39565b4283600101541115610ed4576099548360010154610e879190612b7c565b600184018190556040518181529091506001600160a01b038816907f872bd7c99ad5e7b6ed7f0a890f348839cb8e225c9deaa3909afedae54c93d17d9060200160405180910390a2610f39565b609954610ee19042612b7c565b600184018190559050610ef582600061206a565b866001600160a01b03167f872bd7c99ad5e7b6ed7f0a890f348839cb8e225c9deaa3909afedae54c93d17d82604051610f3091815260200190565b60405180910390a25b6000806000610f7f8a8a8a8a8080601f016020809104026020016040519081016040528093929190818152602001838380828437600092019190915250611ccf92505050565b919450925090508115610ff257609854604051633652466360e01b815260048101849052602481018390526001600160a01b0390911690633652466390604401600060405180830381600087803b158015610fd957600080fd5b505af1158015610fed573d6000803e3d6000fd5b505050505b60985460405163939d9f1f60e01b8152600481018590526001600160a01b038b811660248301529091169063939d9f1f90604401600060405180830381600087803b15801561104057600080fd5b505af1158015611054573d6000803e3d6000fd5b5050609754600092506001600160a01b031615905061110157506097546040516323b872dd60e01b8152336004820152306024820152604481018d90528c916001600160a01b03169081906323b872dd90606401602060405180830381600087803b1580156110c257600080fd5b505af11580156110d6573d6000803e3d6000fd5b505050506040513d601f19601f820116820180604052508101906110fa9190612839565b5050611104565b50345b838110156111495760405162461bcd60e51b8152602060048201526012602482015271494e53554646494349454e545f56414c554560701b6044820152606401610980565b609e546001600160a01b0316156111c957609e54604051639849965760e01b81526001600160a01b03909116906398499657906111969033908f908f908f908f908c908a90600401612a22565b600060405180830381600087803b1580156111b057600080fd5b505af11580156111c4573d6000803e3d6000fd5b505050505b505050505050505050505050565b6000610900600080516020612c62833981519152836112d1565b611209600080516020612c82833981519152336112d1565b6112255760405162461bcd60e51b815260040161098090612afe565b61123d600080516020612c6283398151915282610ca2565b6040516001600160a01b038216907f684f8a71407db0c334454ebe9c9b288549317893a20b10dc779ec5c118dcd12190600090a250565b60006001600160a01b03821661129c5760405162461bcd60e51b815260040161098090612ad5565b6001600160a01b038216600090815260a0602052604090206001015442106112c55760006112c8565b60015b60ff1692915050565b60009182526065602090815260408084206001600160a01b0393909316845291905290205460ff1690565b609754600160a01b900460ff166113255760405162461bcd60e51b815260040161098090612b53565b6001600160a01b03821633141561136d5760405162461bcd60e51b815260206004820152600c60248201526b20a8282927ab22afa9a2a62360a11b6044820152606401610980565b33600081815260a5602090815260408083206001600160a01b03871680855290835292819020805460ff191686151590811790915590519081529192917f17307eab39ab6107e8899845ad3d59bd9653f200f220920489ca2b5937696c31910160405180910390a35050565b6113f1600080516020612c82833981519152336112d1565b61140d5760405162461bcd60e51b815260040161098090612afe565b609754600160a01b900460ff166114365760405162461bcd60e51b815260040161098090612b53565b609a546097546001600160a01b0390811690831615806114c657506000836001600160a01b03166318160ddd6040518163ffffffff1660e01b815260040160206040518083038186803b15801561148c57600080fd5b505afa1580156114a0573d6000803e3d6000fd5b505050506040513d601f19601f820116820180604052508101906114c491906128b9565b115b6115025760405162461bcd60e51b815260206004820152600d60248201526c24a72b20a624a22faa27a5a2a760991b6044820152606401610980565b609a849055609780546001600160a01b0319166001600160a01b0385811691821790925560408051858152602081018890529284169083015260608201527f3615065ccf48367ac483ac86701248e2e5ff55bdd9be845007d34a3b68d719d49060800160405180910390a150505050565b6000610900600080516020612c82833981519152836112d1565b6115a5600080516020612c82833981519152336112d1565b6115c15760405162461bcd60e51b815260040161098090612afe565b6001600160a01b03821615806115e057506001600160a01b0382163b15155b61162c5760405162461bcd60e51b815260206004820152601860248201527f494e56414c49445f4f4e5f4b45595f534f4c445f484f4f4b00000000000000006044820152606401610980565b6001600160a01b038116158061164b57506001600160a01b0381163b15155b6116975760405162461bcd60e51b815260206004820152601a60248201527f494e56414c49445f4f4e5f4b45595f43414e43454c5f484f4f4b0000000000006044820152606401610980565b609e80546001600160a01b039384166001600160a01b031991821617909155609f8054929093169116179055565b600082815260a1602052604090205482906001600160a01b03166117195760405162461bcd60e51b815260206004820152600b60248201526a4e4f5f535543485f4b455960a81b6044820152606401610980565b6117238333611c59565b80611732575061173233611573565b61177e5760405162461bcd60e51b815260206004820152601f60248201527f554e415554484f52495a45445f4b45595f4d414e414745525f555044415445006044820152606401610980565b610cc8838361206a565b600061179333611573565b806117a85750609d546001600160a01b031633145b6117f45760405162461bcd60e51b815260206004820181905260248201527f4f4e4c595f4c4f434b5f4d414e414745525f4f525f42454e45464943494152596044820152606401610980565b60975460405163095ea7b360e01b81526001600160a01b038581166004830152602482018590529091169063095ea7b390604401602060405180830381600087803b15801561184257600080fd5b505af1158015611856573d6000803e3d6000fd5b505050506040513d601f19601f8201168201806040525081019061187a9190612839565b9392505050565b611899600080516020612c82833981519152336112d1565b6118b55760405162461bcd60e51b815260040161098090612afe565b609754600160a01b900460ff166118de5760405162461bcd60e51b815260040161098090612b53565b6040517f25a311358326fb18c62efc24bc28d3126acee8d2a67fd8b2145b757dc8bd1bc190600090a16097805460ff60a01b19169055565b61192e600080516020612c82833981519152336112d1565b61194a5760405162461bcd60e51b815260040161098090612afe565b611962600080516020612c8283398151915282610ca2565b6040516001600160a01b038216907f91d5c045d5bd98bf59a379b259ebca05b93bf79af1845fdf87e3172385d4c7f790600090a250565b6000828152606560205260409020600101546119b58133611e6e565b610cc88383611f58565b6001600160a01b03808316600090815260a0602090815260408083205480845260a3909252822054919290911680611a22575050506001600160a01b03808316600090815260a5602090815260408083209385168352929052205460ff16610900565b6001600160a01b03908116600090815260a5602090815260408083209387168352929052205460ff1691506109009050565b611a6c600080516020612c8283398151915233610ccd565b60405133907f42885193b8178d25fca25a38e6fcc93918501e91be06d85e0c8afb3bad95238090600090a2565b611aa233611573565b80611ab75750609d546001600160a01b031633145b611b035760405162461bcd60e51b815260206004820181905260248201527f4f4e4c595f4c4f434b5f4d414e414745525f4f525f42454e45464943494152596044820152606401610980565b60006001600160a01b038316611b1a575047611b94565b6040516370a0823160e01b81523060048201526001600160a01b038416906370a082319060240160206040518083038186803b158015611b5957600080fd5b505afa158015611b6d573d6000803e3d6000fd5b505050506040513d601f19601f82011682018060405250810190611b9191906128b9565b90505b6000821580611ba257508183115b15611bf15760008211611bea5760405162461bcd60e51b815260206004820152601060248201526f4e4f545f454e4f5547485f46554e445360801b6044820152606401610980565b5080611bf4565b50815b609d546040518281526001600160a01b039182169186169033907f342e7ff505a8a0364cd0dc2ff195c315e43bce86b204846ecd36913e117b109e9060200160405180910390a4609d54611c539085906001600160a01b0316836120ec565b50505050565b600082815260a360205260408120546001600160a01b0383811691161480611cba5750600083815260a360205260409020546001600160a01b0316158015611cba5750600083815260a160205260409020546001600160a01b038381169116145b15611cc757506001610900565b506000610900565b609e54600090819081906001600160a01b031615611d7457609e5460405163221c1fd160e01b81526001600160a01b039091169063221c1fd190611d1d9033908a908a908a90600401612a84565b60206040518083038186803b158015611d3557600080fd5b505afa158015611d49573d6000803e3d6000fd5b505050506040513d601f19601f82011682018060405250810190611d6d91906128b9565b9250611d7a565b609a5492505b8215611e6557609854604051630cb175e360e01b81526001600160a01b0388811660048301526024820186905290911690630cb175e390604401604080518083038186803b158015611dcb57600080fd5b505afa158015611ddf573d6000803e3d6000fd5b505050506040513d601f19601f82011682018060405250810190611e039190612942565b909250905082821115611e585760405162461bcd60e51b815260206004820152601c60248201527f494e56414c49445f444953434f554e545f46524f4d5f554e4c4f434b000000006044820152606401610980565b611e628284612bb3565b92505b93509350939050565b611e7882826112d1565b610d4757611e90816001600160a01b03166014612128565b611e9b836020612128565b604051602001611eac9291906129ad565b60408051601f198184030181529082905262461bcd60e51b825261098091600401612ac2565b611edc82826112d1565b610d475760008281526065602090815260408083206001600160a01b03851684529091529020805460ff19166001179055611f143390565b6001600160a01b0316816001600160a01b0316837f2f8788117e7eff1d82e926ec794901d17c78024a50270940304540a733656f0d60405160405180910390a45050565b611f6282826112d1565b15610d475760008281526065602090815260408083206001600160a01b0385168085529252808320805460ff1916905551339285917ff6391f5c32d9c69d2a47ea670b442974b53935d1edc7fd64eb21e047a839171b9190a45050565b8054611fe057609c8054906000611fd583612c0d565b9091555050609c5481555b50565b600081815260a160205260409020546001600160a01b03838116911614610d475760a28054600181019091557faaf4f58de99300cfadc4585755f376d5fa747d5bc561d5bd9d710de1f91bf42d0180546001600160a01b0384166001600160a01b03199182168117909255600083815260a160205260409020805490911690911790555050565b600082815260a360205260409020546001600160a01b03828116911614610d4757600082815260a36020526040902080546001600160a01b0319166001600160a01b0383161790556120bb8261230a565b60405160009083907f9d2895c45a420624de863a2f437b022d879f457bf7a829044055a10c5a6fd5e3908390a35050565b8015610cc8576001600160a01b03831661211357610cc86001600160a01b03831682612345565b82611c536001600160a01b038216848461245e565b60606000612137836002612b94565b612142906002612b7c565b67ffffffffffffffff81111561216857634e487b7160e01b600052604160045260246000fd5b6040519080825280601f01601f191660200182016040528015612192576020820181803683370190505b509050600360fc1b816000815181106121bb57634e487b7160e01b600052603260045260246000fd5b60200101906001600160f81b031916908160001a905350600f60fb1b816001815181106121f857634e487b7160e01b600052603260045260246000fd5b60200101906001600160f81b031916908160001a905350600061221c846002612b94565b612227906001612b7c565b90505b60018111156122bb576f181899199a1a9b1b9c1cb0b131b232b360811b85600f166010811061226957634e487b7160e01b600052603260045260246000fd5b1a60f81b82828151811061228d57634e487b7160e01b600052603260045260246000fd5b60200101906001600160f81b031916908160001a90535060049490941c936122b481612bf6565b905061222a565b50831561187a5760405162461bcd60e51b815260206004820181905260248201527f537472696e67733a20686578206c656e67746820696e73756666696369656e746044820152606401610980565b600081815260a460205260409020546001600160a01b031615611fe057600090815260a46020526040902080546001600160a01b0319169055565b804710156123955760405162461bcd60e51b815260206004820152601d60248201527f416464726573733a20696e73756666696369656e742062616c616e63650000006044820152606401610980565b6000826001600160a01b03168260405160006040518083038185875af1925050503d80600081146123e2576040519150601f19603f3d011682016040523d82523d6000602084013e6123e7565b606091505b5050905080610cc85760405162461bcd60e51b815260206004820152603a60248201527f416464726573733a20756e61626c6520746f2073656e642076616c75652c207260448201527f6563697069656e74206d617920686176652072657665727465640000000000006064820152608401610980565b604080516001600160a01b03848116602483015260448083018590528351808403909101815260649092018352602080830180516001600160e01b031663a9059cbb60e01b17905283518085019094528084527f5361666545524332303a206c6f772d6c6576656c2063616c6c206661696c656490840152610cc8928692916000916124ee91851690849061256b565b805190915015610cc8578080602001905181019061250c9190612839565b610cc85760405162461bcd60e51b815260206004820152602a60248201527f5361666545524332303a204552433230206f7065726174696f6e20646964206e6044820152691bdd081cdd58d8d9595960b21b6064820152608401610980565b606061257a8484600085612582565b949350505050565b6060824710156125e35760405162461bcd60e51b815260206004820152602660248201527f416464726573733a20696e73756666696369656e742062616c616e636520666f6044820152651c8818d85b1b60d21b6064820152608401610980565b843b6126315760405162461bcd60e51b815260206004820152601d60248201527f416464726573733a2063616c6c20746f206e6f6e2d636f6e74726163740000006044820152606401610980565b600080866001600160a01b0316858760405161264d9190612991565b60006040518083038185875af1925050503d806000811461268a576040519150601f19603f3d011682016040523d82523d6000602084013e61268f565b606091505b509150915061269f8282866126aa565b979650505050505050565b606083156126b957508161187a565b8251156126c95782518084602001fd5b8160405162461bcd60e51b81526004016109809190612ac2565b60008083601f8401126126f4578182fd5b50813567ffffffffffffffff81111561270b578182fd5b60208301915083602082850101111561272357600080fd5b9250929050565b60006020828403121561273b578081fd5b813561187a81612c3e565b60008060408385031215612758578081fd5b823561276381612c3e565b9150602083013561277381612c3e565b809150509250929050565b60008060008060608587031215612793578182fd5b843561279e81612c3e565b935060208501356127ae81612c3e565b9250604085013567ffffffffffffffff8111156127c9578283fd5b6127d5878288016126e3565b95989497509550505050565b600080604083850312156127f3578182fd5b82356127fe81612c3e565b9150602083013561277381612c53565b60008060408385031215612820578182fd5b823561282b81612c3e565b946020939093013593505050565b60006020828403121561284a578081fd5b815161187a81612c53565b600060208284031215612866578081fd5b5035919050565b6000806040838503121561287f578182fd5b82359150602083013561277381612c3e565b6000602082840312156128a2578081fd5b81356001600160e01b03198116811461187a578182fd5b6000602082840312156128ca578081fd5b5051919050565b6000806000806000608086880312156128e8578081fd5b8535945060208601356128fa81612c3e565b9350604086013561290a81612c3e565b9250606086013567ffffffffffffffff811115612925578182fd5b612931888289016126e3565b969995985093965092949392505050565b60008060408385031215612954578182fd5b505080516020909101519092909150565b6000815180845261297d816020860160208601612bca565b601f01601f19169290920160200192915050565b600082516129a3818460208701612bca565b9190910192915050565b7f416363657373436f6e74726f6c3a206163636f756e74200000000000000000008152600083516129e5816017850160208801612bca565b7001034b99036b4b9b9b4b733903937b6329607d1b6017918401918201528351612a16816028840160208801612bca565b01602801949350505050565b6001600160a01b03888116825287811660208301528616604082015260c06060820181905281018490526000848660e08401378060e0868401015260e0601f19601f87011683010190508360808301528260a083015298975050505050505050565b6001600160a01b038581168252848116602083015283166040820152608060608201819052600090612ab890830184612965565b9695505050505050565b60208152600061187a6020830184612965565b6020808252600f908201526e494e56414c49445f4144445245535360881b604082015260600190565b60208082526035908201527f4d6978696e526f6c65733a2063616c6c657220646f6573206e6f74206861766560408201527420746865204c6f636b4d616e6167657220726f6c6560581b606082015260800190565b6020808252600f908201526e1313d0d2d7d11154149150d0551151608a1b604082015260600190565b60008219821115612b8f57612b8f612c28565b500190565b6000816000190483118215151615612bae57612bae612c28565b500290565b600082821015612bc557612bc5612c28565b500390565b60005b83811015612be5578181015183820152602001612bcd565b83811115611c535750506000910152565b600081612c0557612c05612c28565b506000190190565b6000600019821415612c2157612c21612c28565b5060010190565b634e487b7160e01b600052601160045260246000fd5b6001600160a01b0381168114611fe057600080fd5b8015158114611fe057600080fdfeb309c40027c81d382c3b58d8de24207a34b27e1db369b1434e4a11311f154b5eb89cdd26cddd51301940bf2715f765b626b8a5a9e2681ac62dc83cc2db2530c0a26469706673582212207db2d5f897c05d259e2b31a41dbfac1134986df00bbb4b7efd8c208c793b85e864736f6c63430008040033",
  "linkReferences": {},
  "deployedLinkReferences": {}
}