{
  "_format": "hh-sol-artifact-1",
  "contractName": "Owned",
  "sourceName": "contracts/Utils/Owned.sol",
  "abi": [
    {
      "anonymous": false,
      "inputs": [
        {
          "indexed": true,
          "internalType": "address",
          "name": "previousOwner",
          "type": "address"
        },
        {
          "indexed": true,
          "internalType": "address",
          "name": "newOwner",
          "type": "address"
        }
      ],
      "name": "OwnershipTransferred",
      "type": "event"
    },
    {
      "inputs": [],
      "name": "acceptOwnership",
      "outputs": [],
      "stateMutability": "nonpayable",
      "type": "function"
    },
    {
      "inputs": [],
      "name": "isOwner",
      "outputs": [
        {
          "internalType": "bool",
          "name": "",
          "type": "bool"
        }
      ],
      "stateMutability": "view",
      "type": "function"
    },
    {
      "inputs": [],
      "name": "newOwner",
      "outputs": [
        {
          "internalType": "address",
          "name": "",
          "type": "address"
        }
      ],
      "stateMutability": "view",
      "type": "function"
    },
    {
      "inputs": [],
      "name": "owner",
      "outputs": [
        {
          "internalType": "address",
          "name": "",
          "type": "address"
        }
      ],
      "stateMutability": "view",
      "type": "function"
    },
    {
      "inputs": [
        {
          "internalType": "address",
          "name": "_newOwner",
          "type": "address"
        }
      ],
      "name": "transferOwnership",
      "outputs": [],
      "stateMutability": "nonpayable",
      "type": "function"
    }
  ],
  "bytecode": "0x608060405234801561001057600080fd5b506101e7806100206000396000f3fe608060405234801561001057600080fd5b50600436106100575760003560e01c806379ba50971461005c5780638da5cb5b146100665780638f32d59b1461008a578063d4ee1d90146100a6578063f2fde38b146100ae575b600080fd5b6100646100d4565b005b61006e61014f565b604080516001600160a01b039092168252519081900360200190f35b61009261015e565b604080519115158252519081900360200190f35b61006e61016f565b610064600480360360208110156100c457600080fd5b50356001600160a01b031661017e565b6001546001600160a01b031633146100eb57600080fd5b600154600080546040516001600160a01b0393841693909116917f8be0079c531659141344cd1fd0a4f28419497f9722a3daafe3b4186f6b6457e091a360018054600080546001600160a01b03199081166001600160a01b03841617909155169055565b6000546001600160a01b031690565b6000546001600160a01b0316331490565b6001546001600160a01b031681565b61018661015e565b61018f57600080fd5b600180546001600160a01b0319166001600160a01b039290921691909117905556fea2646970667358221220dd35c38cde957fdb11e4e1df58e1ad0f42584bef011f0040860c24e181a7303964736f6c634300060c0033",
  "linkReferences": {},
  "deployedLinkReferences": {}
}