{
  "_format": "hh-sol-artifact-1",
  "contractName": "CompoundAdapter",
  "sourceName": "contracts/asset/CompoundAdapter.sol",
  "abi": [
    {
      "anonymous": false,
      "inputs": [
        {
          "indexed": false,
          "internalType": "address",
          "name": "previousAdmin",
          "type": "address"
        },
        {
          "indexed": false,
          "internalType": "address",
          "name": "newAdmin",
          "type": "address"
        }
      ],
      "name": "AdminChanged",
      "type": "event"
    },
    {
      "anonymous": false,
      "inputs": [
        {
          "indexed": true,
          "internalType": "address",
          "name": "beacon",
          "type": "address"
        }
      ],
      "name": "BeaconUpgraded",
      "type": "event"
    },
    {
      "anonymous": false,
      "inputs": [
        {
          "indexed": false,
          "internalType": "address",
          "name": "account",
          "type": "address"
        }
      ],
      "name": "Paused",
      "type": "event"
    },
    {
      "anonymous": false,
      "inputs": [
        {
          "indexed": true,
          "internalType": "bytes32",
          "name": "role",
          "type": "bytes32"
        },
        {
          "indexed": true,
          "internalType": "bytes32",
          "name": "previousAdminRole",
          "type": "bytes32"
        },
        {
          "indexed": true,
          "internalType": "bytes32",
          "name": "newAdminRole",
          "type": "bytes32"
        }
      ],
      "name": "RoleAdminChanged",
      "type": "event"
    },
    {
      "anonymous": false,
      "inputs": [
        {
          "indexed": true,
          "internalType": "bytes32",
          "name": "role",
          "type": "bytes32"
        },
        {
          "indexed": true,
          "internalType": "address",
          "name": "account",
          "type": "address"
        },
        {
          "indexed": true,
          "internalType": "address",
          "name": "sender",
          "type": "address"
        }
      ],
      "name": "RoleGranted",
      "type": "event"
    },
    {
      "anonymous": false,
      "inputs": [
        {
          "indexed": true,
          "internalType": "bytes32",
          "name": "role",
          "type": "bytes32"
        },
        {
          "indexed": true,
          "internalType": "address",
          "name": "account",
          "type": "address"
        },
        {
          "indexed": true,
          "internalType": "address",
          "name": "sender",
          "type": "address"
        }
      ],
      "name": "RoleRevoked",
      "type": "event"
    },
    {
      "anonymous": false,
      "inputs": [
        {
          "indexed": false,
          "internalType": "address",
          "name": "account",
          "type": "address"
        }
      ],
      "name": "Unpaused",
      "type": "event"
    },
    {
      "anonymous": false,
      "inputs": [
        {
          "indexed": true,
          "internalType": "address",
          "name": "implementation",
          "type": "address"
        }
      ],
      "name": "Upgraded",
      "type": "event"
    },
    {
      "inputs": [],
      "name": "DEFAULT_ADMIN_ROLE",
      "outputs": [
        {
          "internalType": "bytes32",
          "name": "",
          "type": "bytes32"
        }
      ],
      "stateMutability": "view",
      "type": "function"
    },
    {
      "inputs": [],
      "name": "ROLE_ADMIN",
      "outputs": [
        {
          "internalType": "bytes32",
          "name": "",
          "type": "bytes32"
        }
      ],
      "stateMutability": "view",
      "type": "function"
    },
    {
      "inputs": [
        {
          "internalType": "address",
          "name": "_assetManager",
          "type": "address"
        }
      ],
      "name": "__CompoundAdapter_init",
      "outputs": [],
      "stateMutability": "nonpayable",
      "type": "function"
    },
    {
      "inputs": [
        {
          "internalType": "address",
          "name": "admin_",
          "type": "address"
        }
      ],
      "name": "__Controller_init",
      "outputs": [],
      "stateMutability": "nonpayable",
      "type": "function"
    },
    {
      "inputs": [
        {
          "internalType": "address",
          "name": "account",
          "type": "address"
        }
      ],
      "name": "addAdmin",
      "outputs": [],
      "stateMutability": "nonpayable",
      "type": "function"
    },
    {
      "inputs": [],
      "name": "assetManager",
      "outputs": [
        {
          "internalType": "address",
          "name": "",
          "type": "address"
        }
      ],
      "stateMutability": "view",
      "type": "function"
    },
    {
      "inputs": [
        {
          "internalType": "address",
          "name": "",
          "type": "address"
        }
      ],
      "name": "ceilingMap",
      "outputs": [
        {
          "internalType": "uint256",
          "name": "",
          "type": "uint256"
        }
      ],
      "stateMutability": "view",
      "type": "function"
    },
    {
      "inputs": [
        {
          "internalType": "address",
          "name": "tokenAddress",
          "type": "address"
        },
        {
          "internalType": "address",
          "name": "recipient",
          "type": "address"
        }
      ],
      "name": "claimTokens",
      "outputs": [],
      "stateMutability": "nonpayable",
      "type": "function"
    },
    {
      "inputs": [
        {
          "internalType": "address",
          "name": "tokenAddress",
          "type": "address"
        }
      ],
      "name": "deposit",
      "outputs": [],
      "stateMutability": "nonpayable",
      "type": "function"
    },
    {
      "inputs": [
        {
          "internalType": "address",
          "name": "",
          "type": "address"
        }
      ],
      "name": "floorMap",
      "outputs": [
        {
          "internalType": "uint256",
          "name": "",
          "type": "uint256"
        }
      ],
      "stateMutability": "view",
      "type": "function"
    },
    {
      "inputs": [
        {
          "internalType": "address",
          "name": "tokenAddress",
          "type": "address"
        }
      ],
      "name": "getRate",
      "outputs": [
        {
          "internalType": "uint256",
          "name": "",
          "type": "uint256"
        }
      ],
      "stateMutability": "view",
      "type": "function"
    },
    {
      "inputs": [
        {
          "internalType": "bytes32",
          "name": "role",
          "type": "bytes32"
        }
      ],
      "name": "getRoleAdmin",
      "outputs": [
        {
          "internalType": "bytes32",
          "name": "",
          "type": "bytes32"
        }
      ],
      "stateMutability": "view",
      "type": "function"
    },
    {
      "inputs": [
        {
          "internalType": "address",
          "name": "tokenAddress",
          "type": "address"
        }
      ],
      "name": "getSupply",
      "outputs": [
        {
          "internalType": "uint256",
          "name": "",
          "type": "uint256"
        }
      ],
      "stateMutability": "nonpayable",
      "type": "function"
    },
    {
      "inputs": [
        {
          "internalType": "address",
          "name": "tokenAddress",
          "type": "address"
        }
      ],
      "name": "getSupplyView",
      "outputs": [
        {
          "internalType": "uint256",
          "name": "",
          "type": "uint256"
        }
      ],
      "stateMutability": "view",
      "type": "function"
    },
    {
      "inputs": [
        {
          "internalType": "bytes32",
          "name": "role",
          "type": "bytes32"
        },
        {
          "internalType": "address",
          "name": "account",
          "type": "address"
        }
      ],
      "name": "grantRole",
      "outputs": [],
      "stateMutability": "nonpayable",
      "type": "function"
    },
    {
      "inputs": [
        {
          "internalType": "bytes32",
          "name": "role",
          "type": "bytes32"
        },
        {
          "internalType": "address",
          "name": "account",
          "type": "address"
        }
      ],
      "name": "hasRole",
      "outputs": [
        {
          "internalType": "bool",
          "name": "",
          "type": "bool"
        }
      ],
      "stateMutability": "view",
      "type": "function"
    },
    {
      "inputs": [
        {
          "internalType": "address",
          "name": "account",
          "type": "address"
        }
      ],
      "name": "isAdmin",
      "outputs": [
        {
          "internalType": "bool",
          "name": "",
          "type": "bool"
        }
      ],
      "stateMutability": "view",
      "type": "function"
    },
    {
      "inputs": [
        {
          "internalType": "address",
          "name": "tokenAddress",
          "type": "address"
        },
        {
          "internalType": "address",
          "name": "cTokenAddress",
          "type": "address"
        }
      ],
      "name": "mapTokenToCToken",
      "outputs": [],
      "stateMutability": "nonpayable",
      "type": "function"
    },
    {
      "inputs": [],
      "name": "pause",
      "outputs": [],
      "stateMutability": "nonpayable",
      "type": "function"
    },
    {
      "inputs": [],
      "name": "pauseGuardian",
      "outputs": [
        {
          "internalType": "address",
          "name": "",
          "type": "address"
        }
      ],
      "stateMutability": "view",
      "type": "function"
    },
    {
      "inputs": [],
      "name": "paused",
      "outputs": [
        {
          "internalType": "bool",
          "name": "",
          "type": "bool"
        }
      ],
      "stateMutability": "view",
      "type": "function"
    },
    {
      "inputs": [],
      "name": "renounceAdmin",
      "outputs": [],
      "stateMutability": "nonpayable",
      "type": "function"
    },
    {
      "inputs": [
        {
          "internalType": "bytes32",
          "name": "role",
          "type": "bytes32"
        },
        {
          "internalType": "address",
          "name": "account",
          "type": "address"
        }
      ],
      "name": "renounceRole",
      "outputs": [],
      "stateMutability": "nonpayable",
      "type": "function"
    },
    {
      "inputs": [
        {
          "internalType": "bytes32",
          "name": "role",
          "type": "bytes32"
        },
        {
          "internalType": "address",
          "name": "account",
          "type": "address"
        }
      ],
      "name": "revokeRole",
      "outputs": [],
      "stateMutability": "nonpayable",
      "type": "function"
    },
    {
      "inputs": [
        {
          "internalType": "address",
          "name": "_assetManager",
          "type": "address"
        }
      ],
      "name": "setAssetManager",
      "outputs": [],
      "stateMutability": "nonpayable",
      "type": "function"
    },
    {
      "inputs": [
        {
          "internalType": "address",
          "name": "tokenAddress",
          "type": "address"
        },
        {
          "internalType": "uint256",
          "name": "ceiling",
          "type": "uint256"
        }
      ],
      "name": "setCeiling",
      "outputs": [],
      "stateMutability": "nonpayable",
      "type": "function"
    },
    {
      "inputs": [
        {
          "internalType": "address",
          "name": "tokenAddress",
          "type": "address"
        },
        {
          "internalType": "uint256",
          "name": "floor",
          "type": "uint256"
        }
      ],
      "name": "setFloor",
      "outputs": [],
      "stateMutability": "nonpayable",
      "type": "function"
    },
    {
      "inputs": [
        {
          "internalType": "address",
          "name": "account",
          "type": "address"
        }
      ],
      "name": "setGuardian",
      "outputs": [],
      "stateMutability": "nonpayable",
      "type": "function"
    },
    {
      "inputs": [
        {
          "internalType": "bytes4",
          "name": "interfaceId",
          "type": "bytes4"
        }
      ],
      "name": "supportsInterface",
      "outputs": [
        {
          "internalType": "bool",
          "name": "",
          "type": "bool"
        }
      ],
      "stateMutability": "view",
      "type": "function"
    },
    {
      "inputs": [
        {
          "internalType": "address",
          "name": "tokenAddress",
          "type": "address"
        }
      ],
      "name": "supportsToken",
      "outputs": [
        {
          "internalType": "bool",
          "name": "",
          "type": "bool"
        }
      ],
      "stateMutability": "view",
      "type": "function"
    },
    {
      "inputs": [
        {
          "internalType": "address",
          "name": "",
          "type": "address"
        }
      ],
      "name": "tokenToCToken",
      "outputs": [
        {
          "internalType": "address",
          "name": "",
          "type": "address"
        }
      ],
      "stateMutability": "view",
      "type": "function"
    },
    {
      "inputs": [],
      "name": "unpause",
      "outputs": [],
      "stateMutability": "nonpayable",
      "type": "function"
    },
    {
      "inputs": [
        {
          "internalType": "address",
          "name": "newImplementation",
          "type": "address"
        }
      ],
      "name": "upgradeTo",
      "outputs": [],
      "stateMutability": "nonpayable",
      "type": "function"
    },
    {
      "inputs": [
        {
          "internalType": "address",
          "name": "newImplementation",
          "type": "address"
        },
        {
          "internalType": "bytes",
          "name": "data",
          "type": "bytes"
        }
      ],
      "name": "upgradeToAndCall",
      "outputs": [],
      "stateMutability": "payable",
      "type": "function"
    },
    {
      "inputs": [
        {
          "internalType": "address",
          "name": "tokenAddress",
          "type": "address"
        },
        {
          "internalType": "address",
          "name": "recipient",
          "type": "address"
        },
        {
          "internalType": "uint256",
          "name": "tokenAmount",
          "type": "uint256"
        }
      ],
      "name": "withdraw",
      "outputs": [],
      "stateMutability": "nonpayable",
      "type": "function"
    },
    {
      "inputs": [
        {
          "internalType": "address",
          "name": "tokenAddress",
          "type": "address"
        },
        {
          "internalType": "address",
          "name": "recipient",
          "type": "address"
        }
      ],
      "name": "withdrawAll",
      "outputs": [],
      "stateMutability": "nonpayable",
      "type": "function"
    }
  ],
  "bytecode": "0x60a06040523060601b60805234801561001757600080fd5b5060805160601c612cb861004b60003960008181610e8d01528181610ecd015281816110d001526111100152612cb86000f3fe60806040526004361061020f5760003560e01c80636c00c7f011610118578063a217fddf116100a0578063d547741f1161006f578063d547741f146108a7578063d9caed12146108e0578063ec7b6fd814610923578063ed8a1e541461095e578063f340fa011461099157600080fd5b8063a217fddf14610804578063b4fe49b014610819578063c99c7d931461084c578063d391014b1461088557600080fd5b80638a0dac4a116100e75780638a0dac4a146107215780638bad0c0a14610754578063904d32611461076957806391d14854146107aa57806394217ad1146107e357600080fd5b80636c00c7f01461066d5780636c461a73146106a657806370480275146106d95780638456cb591461070c57600080fd5b8063363f68ce1161019b5780633f4ba83a1161016a5780633f4ba83a1461051c57806343060237146105315780634f1ef286146105645780635c975abb1461061a57806369ffa08a1461063257600080fd5b8063363f68ce1461043c57806336568abe1461047d5780633659cfe6146104b657806337cef791146104e957600080fd5b8063248a9ca3116101e2578063248a9ca31461031157806324a3d6221461034b57806324d7806c1461038c57806325888f0b146103bf5780632f2ff15d1461040357600080fd5b806301ffc9a714610214578063061f76501461025c57806309cae2c81461028f5780631fd433aa146102cc575b600080fd5b34801561022057600080fd5b506102486004803603602081101561023757600080fd5b50356001600160e01b0319166109c4565b604080519115158252519081900360200190f35b34801561026857600080fd5b506102486004803603602081101561027f57600080fd5b50356001600160a01b03166109fb565b34801561029b57600080fd5b506102ca600480360360408110156102b257600080fd5b506001600160a01b0381358116916020013516610a06565b005b3480156102d857600080fd5b506102ff600480360360208110156102ef57600080fd5b50356001600160a01b0316610ca3565b60408051918252519081900360200190f35b34801561031d57600080fd5b506102ff6004803603602081101561033457600080fd5b5035600090815260c9602052604090206001015490565b34801561035757600080fd5b5060fc546103709061010090046001600160a01b031681565b604080516001600160a01b039092168252519081900360200190f35b34801561039857600080fd5b50610248600480360360208110156103af57600080fd5b50356001600160a01b0316610dba565b3480156103cb57600080fd5b50610370600480360360208110156103e257600080fd5b5061012f6020526001600160a01b0390358116600090815260409020541681565b34801561040f57600080fd5b506102ca6004803603604081101561042657600080fd5b50803590602001356001600160a01b0316610dd4565b34801561044857600080fd5b506102ff6004803603602081101561045f57600080fd5b50610132602052356001600160a01b03166000908152604090205481565b34801561048957600080fd5b506102ca600480360360408110156104a057600080fd5b50803590602001356001600160a01b0316610dff565b3480156104c257600080fd5b506102ca600480360360208110156104d957600080fd5b50356001600160a01b0316610e82565b3480156104f557600080fd5b506102ff6004803603602081101561050c57600080fd5b50356001600160a01b0316610f4b565b34801561052857600080fd5b506102ca610fb4565b34801561053d57600080fd5b506102ca6004803603602081101561055457600080fd5b50356001600160a01b031661106e565b6102ca6004803603604081101561057a57600080fd5b6001600160a01b0382351691908101906040810160208201356401000000008111156105a557600080fd5b8201836020820111156105b757600080fd5b803590602001918460018302840111640100000000831117156105d957600080fd5b91908080601f0160208091040260200160405190810160405280939291908181526020018383808284376000920191909152509295506110c5945050505050565b34801561062657600080fd5b5060fc5460ff16610248565b34801561063e57600080fd5b506102ca6004803603604081101561065557600080fd5b506001600160a01b038135811691602001351661117b565b34801561067957600080fd5b506102ca6004803603604081101561069057600080fd5b506001600160a01b0381351690602001356111e5565b3480156106b257600080fd5b506102ca600480360360208110156106c957600080fd5b50356001600160a01b0316611236565b3480156106e557600080fd5b506102ca600480360360208110156106fc57600080fd5b50356001600160a01b0316611366565b34801561071857600080fd5b506102ca61149e565b34801561072d57600080fd5b506102ca6004803603602081101561074457600080fd5b50356001600160a01b0316611552565b34801561076057600080fd5b506102ca6115ae565b34801561077557600080fd5b506102ff6004803603602081101561078c57600080fd5b50610131602052356001600160a01b03166000908152604090205481565b3480156107b657600080fd5b50610248600480360360408110156107cd57600080fd5b50803590602001356001600160a01b03166115e5565b3480156107ef57600080fd5b5061013054610370906001600160a01b031681565b34801561081057600080fd5b506102ff600081565b34801561082557600080fd5b506102ca6004803603602081101561083c57600080fd5b50356001600160a01b0316611610565b34801561085857600080fd5b506102ca6004803603604081101561086f57600080fd5b506001600160a01b0381351690602001356116a1565b34801561089157600080fd5b506102ff600080516020612c3c83398151915281565b3480156108b357600080fd5b506102ca600480360360408110156108ca57600080fd5b50803590602001356001600160a01b03166116f2565b3480156108ec57600080fd5b506102ca6004803603606081101561090357600080fd5b506001600160a01b03813581169160208101359091169060400135611718565b34801561092f57600080fd5b506102ca6004803603604081101561094657600080fd5b506001600160a01b03813581169160200135166118cc565b34801561096a57600080fd5b506102ff6004803603602081101561098157600080fd5b50356001600160a01b031661192f565b34801561099d57600080fd5b506102ca600480360360208110156109b457600080fd5b50356001600160a01b0316611ad2565b60006001600160e01b03198216637965db0b60e01b14806109f557506301ffc9a760e01b6001600160e01b03198316145b92915050565b60006109f582611ca2565b610130546001600160a01b03163314610a66576040805162461bcd60e51b815260206004820152601b60248201527f4f6e6c79206173736574206d616e616765722063616e2063616c6c0000000000604482015290519081900360640190fd5b81610a7081611ca2565b610ab7576040805162461bcd60e51b8152602060048201526013602482015272151bdad95b881b9bdd081cdd5c1c1bdc9d1959606a1b604482015290519081900360640190fd5b6001600160a01b03808416600090815261012f60209081526040808320548151633af9e66960e01b815230600482015291518895919091169384939092849263852a12e3928492633af9e669926024808301939282900301818987803b158015610b2057600080fd5b505af1158015610b34573d6000803e3d6000fd5b505050506040513d6020811015610b4a57600080fd5b5051604080516001600160e01b031960e085901b16815260048101929092525160248083019260209291908290030181600087803b158015610b8b57600080fd5b505af1158015610b9f573d6000803e3d6000fd5b505050506040513d6020811015610bb557600080fd5b505190508015610c0c576040805162461bcd60e51b815260206004820152601a60248201527f4572726f722072656465656d696e67207468652063546f6b656e000000000000604482015290519081900360640190fd5b610c9a86856001600160a01b03166370a08231306040518263ffffffff1660e01b815260040180826001600160a01b0316815260200191505060206040518083038186803b158015610c5d57600080fd5b505afa158015610c71573d6000803e3d6000fd5b505050506040513d6020811015610c8757600080fd5b50516001600160a01b0387169190611cc3565b50505050505050565b6001600160a01b03808216600090815261012f602090815260408083205481516370a0823160e01b81523060048201529151939416928392600a9284926370a0823192602480840193919291829003018186803b158015610d0357600080fd5b505afa158015610d17573d6000803e3d6000fd5b505050506040513d6020811015610d2d57600080fd5b505111610d3e575060009392505050565b60408051633af9e66960e01b815230600482015290516001600160a01b03831691633af9e6699160248083019260209291908290030181600087803b158015610d8657600080fd5b505af1158015610d9a573d6000803e3d6000fd5b505050506040513d6020811015610db057600080fd5b5051949350505050565b60006109f5600080516020612c3c833981519152836115e5565b600082815260c96020526040902060010154610df08133611d26565b610dfa8383611d8a565b505050565b6001600160a01b0381163314610e745760405162461bcd60e51b815260206004820152602f60248201527f416363657373436f6e74726f6c3a2063616e206f6e6c792072656e6f756e636560448201526e103937b632b9903337b91039b2b63360891b60648201526084015b60405180910390fd5b610e7e8282611e10565b5050565b306001600160a01b037f0000000000000000000000000000000000000000000000000000000000000000161415610ecb5760405162461bcd60e51b8152600401610e6b90612a24565b7f00000000000000000000000000000000000000000000000000000000000000006001600160a01b0316610efd611e77565b6001600160a01b031614610f235760405162461bcd60e51b8152600401610e6b90612a70565b610f2c81611ea5565b60408051600080825260208201909252610f4891839190611ed9565b50565b6001600160a01b03808216600090815261012f60209081526040808320548151630ae9d70b60e41b81529151939416928392839263ae9d70b09260048083019392829003018186803b158015610fa057600080fd5b505afa158015610d9a573d6000803e3d6000fd5b60fc5461010090046001600160a01b03163314610fe35760405162461bcd60e51b8152600401610e6b90612aeb565b60fc5460ff1661102e5760405162461bcd60e51b815260206004820152601660248201527510dbdb9d1c9bdb1b195c8e881b9bdd081c185d5cd95960521b6044820152606401610e6b565b60fc805460ff191690556040513381527f5db9ee0a495bf2e6ff9c91a7834c1ba4fdd244a5e8aa4e537bd38aeae4b073aa906020015b60405180910390a1565b611086600080516020612c3c833981519152336115e5565b6110a25760405162461bcd60e51b8152600401610e6b90612abc565b61013080546001600160a01b0319166001600160a01b0392909216919091179055565b306001600160a01b037f000000000000000000000000000000000000000000000000000000000000000016141561110e5760405162461bcd60e51b8152600401610e6b90612a24565b7f00000000000000000000000000000000000000000000000000000000000000006001600160a01b0316611140611e77565b6001600160a01b0316146111665760405162461bcd60e51b8152600401610e6b90612a70565b61116f82611ea5565b610e7e82826001611ed9565b610130546001600160a01b031633146111db576040805162461bcd60e51b815260206004820152601b60248201527f4f6e6c79206173736574206d616e616765722063616e2063616c6c0000000000604482015290519081900360640190fd5b610e7e8282612024565b6111fd600080516020612c3c833981519152336115e5565b6112195760405162461bcd60e51b8152600401610e6b90612abc565b6001600160a01b0390911660009081526101326020526040902055565b600054610100900460ff168061124f575060005460ff16155b61126b5760405162461bcd60e51b8152600401610e6b90612b3d565b600054610100900460ff1615801561128d576000805461ffff19166101011790555b6001600160a01b0382166112de5760405162461bcd60e51b8152602060048201526018602482015277436f6e74726f6c6c65723a2061646472657373207a65726f60401b6044820152606401610e6b565b60fc805460ff191690556001600160a01b038216600081815260fb6020526040902080546001600160a01b0319169091179055611319612112565b611331600080516020612c3c8339815191528361218d565b60fc8054610100600160a81b0319166101006001600160a01b038516021790558015610e7e576000805461ff00191690555050565b61137e600080516020612c3c833981519152336115e5565b61139a5760405162461bcd60e51b8152600401610e6b90612abc565b6001600160a01b0381166113eb5760405162461bcd60e51b8152602060048201526018602482015277436f6e74726f6c6c65723a2061646472657373207a65726f60401b6044820152606401610e6b565b6001600160a01b03818116600090815260fb6020526040902054161561145d5760405162461bcd60e51b815260206004820152602160248201527f436f6e74726f6c6c65723a2061646d696e20616c7265616479206578697374656044820152601960fa1b6064820152608401610e6b565b6001600160a01b038116600081815260fb6020526040902080546001600160a01b0319169091179055610f48600080516020612c3c8339815191528261218d565b60fc5461010090046001600160a01b031633146114cd5760405162461bcd60e51b8152600401610e6b90612aeb565b60fc5460ff16156115155760405162461bcd60e51b815260206004820152601260248201527110dbdb9d1c9bdb1b195c8e881c185d5cd95960721b6044820152606401610e6b565b60fc805460ff191660011790556040513381527f62e78cea01bee320cd4e420270b5ea74000d11b0c9f74754ebdbfc544b05a25890602001611064565b61156a600080516020612c3c833981519152336115e5565b6115865760405162461bcd60e51b8152600401610e6b90612abc565b60fc80546001600160a01b0390921661010002610100600160a81b0319909216919091179055565b6115c6600080516020612c3c83398151915233610dff565b33600090815260fb6020526040902080546001600160a01b0319169055565b600091825260c9602090815260408084206001600160a01b0393909316845291905290205460ff1690565b600054610100900460ff1680611629575060005460ff16155b6116455760405162461bcd60e51b8152600401610e6b90612b3d565b600054610100900460ff16158015611667576000805461ffff19166101011790555b61167033611236565b61013080546001600160a01b0319166001600160a01b0384161790558015610e7e576000805461ff00191690555050565b6116b9600080516020612c3c833981519152336115e5565b6116d55760405162461bcd60e51b8152600401610e6b90612abc565b6001600160a01b0390911660009081526101316020526040902055565b600082815260c9602052604090206001015461170e8133611d26565b610dfa8383611e10565b610130546001600160a01b03163314611778576040805162461bcd60e51b815260206004820152601b60248201527f4f6e6c79206173736574206d616e616765722063616e2063616c6c0000000000604482015290519081900360640190fd5b8261178281611ca2565b6117c9576040805162461bcd60e51b8152602060048201526013602482015272151bdad95b881b9bdd081cdd5c1c1bdc9d1959606a1b604482015290519081900360640190fd5b6001600160a01b03808516600090815261012f6020908152604080832054815163852a12e360e01b81526004810188905291518995919091169384939092849263852a12e39260248084019391929182900301818787803b15801561182d57600080fd5b505af1158015611841573d6000803e3d6000fd5b505050506040513d602081101561185757600080fd5b5051905080156118ae576040805162461bcd60e51b815260206004820152601a60248201527f4572726f722072656465656d696e67207468652063546f6b656e000000000000604482015290519081900360640190fd5b6118c26001600160a01b0385168888611cc3565b5050505050505050565b6118e4600080516020612c3c833981519152336115e5565b6119005760405162461bcd60e51b8152600401610e6b90612abc565b6001600160a01b03918216600090815261012f6020526040902080546001600160a01b03191691909216179055565b6001600160a01b03808216600090815261012f602090815260408083205481516370a0823160e01b81523060048201529151939416928392600a9284926370a0823192602480840193919291829003018186803b15801561198f57600080fd5b505afa1580156119a3573d6000803e3d6000fd5b505050506040513d60208110156119b957600080fd5b5051116119ca575060009392505050565b6000816001600160a01b031663182df0f56040518163ffffffff1660e01b815260040160206040518083038186803b158015611a0557600080fd5b505afa158015611a19573d6000803e3d6000fd5b505050506040513d6020811015611a2f57600080fd5b5051604080516370a0823160e01b815230600482015290519192506000916001600160a01b038516916370a08231916024808301926020929190829003018186803b158015611a7d57600080fd5b505afa158015611a91573d6000803e3d6000fd5b505050506040513d6020811015611aa757600080fd5b50519050670de0b6b3a7640000611abe8383612bc3565b611ac89190612ba3565b9695505050505050565b80611adc81611ca2565b611b23576040805162461bcd60e51b8152602060048201526013602482015272151bdad95b881b9bdd081cdd5c1c1bdc9d1959606a1b604482015290519081900360640190fd5b6001600160a01b03808316600081815261012f602090815260408083205481516370a0823160e01b815230600482015291518896919091169485949390926370a082319260248083019392829003018186803b158015611b8257600080fd5b505afa158015611b96573d6000803e3d6000fd5b505050506040513d6020811015611bac57600080fd5b50519050611bc56001600160a01b038516846000612197565b611bd96001600160a01b0385168483612197565b6000826001600160a01b031663a0712d68836040518263ffffffff1660e01b815260040180828152602001915050602060405180830381600087803b158015611c2157600080fd5b505af1158015611c35573d6000803e3d6000fd5b505050506040513d6020811015611c4b57600080fd5b505190508015610c9a576040805162461bcd60e51b815260206004820152601860248201527f4572726f72206d696e74696e67207468652063546f6b656e0000000000000000604482015290519081900360640190fd5b6001600160a01b03908116600090815261012f602052604090205416151590565b6040516001600160a01b038316602482015260448101829052610dfa90849063a9059cbb60e01b906064015b60408051601f198184030181529190526020810180516001600160e01b03166001600160e01b0319909316929092179091526122bb565b611d3082826115e5565b610e7e57611d48816001600160a01b0316601461238d565b611d5383602061238d565b604051602001611d6492919061297c565b60408051601f198184030181529082905262461bcd60e51b8252610e6b916004016129f1565b611d9482826115e5565b610e7e57600082815260c9602090815260408083206001600160a01b03851684529091529020805460ff19166001179055611dcc3390565b6001600160a01b0316816001600160a01b0316837f2f8788117e7eff1d82e926ec794901d17c78024a50270940304540a733656f0d60405160405180910390a45050565b611e1a82826115e5565b15610e7e57600082815260c9602090815260408083206001600160a01b0385168085529252808320805460ff1916905551339285917ff6391f5c32d9c69d2a47ea670b442974b53935d1edc7fd64eb21e047a839171b9190a45050565b7f360894a13ba1a3210667c828492db98dca3e2076cc3735a920a3ca505d382bbc546001600160a01b031690565b611ebd600080516020612c3c833981519152336115e5565b610f485760405162461bcd60e51b8152600401610e6b90612abc565b6000611ee3611e77565b9050611eee84612576565b600083511180611efb5750815b15611f0c57611f0a848461261b565b505b7f4910fdfa16fed3260ed0e7147f7cc6da11a60208b5b9406d12a635614ffd9143805460ff1661201d57805460ff191660011781556040516001600160a01b0383166024820152611f8b90869060440160408051601f198184030181529190526020810180516001600160e01b0316631b2ce7f360e11b17905261261b565b50805460ff19168155611f9c611e77565b6001600160a01b0316826001600160a01b0316146120145760405162461bcd60e51b815260206004820152602f60248201527f45524331393637557067726164653a207570677261646520627265616b73206660448201526e75727468657220757067726164657360881b6064820152608401610e6b565b61201d85612706565b5050505050565b6001600160a01b03811661207f576040805162461bcd60e51b815260206004820152601960248201527f526563697069656e742063616e206e6f74206265207a65726f00000000000000604482015290519081900360640190fd5b604080516370a0823160e01b8152306004820152905183916000916001600160a01b038416916370a08231916024808301926020929190829003018186803b1580156120ca57600080fd5b505afa1580156120de573d6000803e3d6000fd5b505050506040513d60208110156120f457600080fd5b5051905061210c6001600160a01b0383168483611cc3565b50505050565b600054610100900460ff168061212b575060005460ff16155b6121475760405162461bcd60e51b8152600401610e6b90612b3d565b600054610100900460ff16158015612169576000805461ffff19166101011790555b612171612746565b612179612746565b8015610f48576000805461ff001916905550565b610e7e8282611d8a565b8015806122205750604051636eb1769f60e11b81523060048201526001600160a01b03838116602483015284169063dd62ed3e9060440160206040518083038186803b1580156121e657600080fd5b505afa1580156121fa573d6000803e3d6000fd5b505050506040513d601f19601f8201168201806040525081019061221e9190612948565b155b61228b5760405162461bcd60e51b815260206004820152603660248201527f5361666545524332303a20617070726f76652066726f6d206e6f6e2d7a65726f60448201527520746f206e6f6e2d7a65726f20616c6c6f77616e636560501b6064820152608401610e6b565b6040516001600160a01b038316602482015260448101829052610dfa90849063095ea7b360e01b90606401611cef565b6000612310826040518060400160405280602081526020017f5361666545524332303a206c6f772d6c6576656c2063616c6c206661696c6564815250856001600160a01b03166127b09092919063ffffffff16565b805190915015610dfa578080602001905181019061232e9190612928565b610dfa5760405162461bcd60e51b815260206004820152602a60248201527f5361666545524332303a204552433230206f7065726174696f6e20646964206e6044820152691bdd081cdd58d8d9595960b21b6064820152608401610e6b565b6060600061239c836002612bc3565b6123a7906002612b8b565b67ffffffffffffffff8111156123cd57634e487b7160e01b600052604160045260246000fd5b6040519080825280601f01601f1916602001820160405280156123f7576020820181803683370190505b509050600360fc1b8160008151811061242057634e487b7160e01b600052603260045260246000fd5b60200101906001600160f81b031916908160001a905350600f60fb1b8160018151811061245d57634e487b7160e01b600052603260045260246000fd5b60200101906001600160f81b031916908160001a9053506000612481846002612bc3565b61248c906001612b8b565b90505b6001811115612520576f181899199a1a9b1b9c1cb0b131b232b360811b85600f16601081106124ce57634e487b7160e01b600052603260045260246000fd5b1a60f81b8282815181106124f257634e487b7160e01b600052603260045260246000fd5b60200101906001600160f81b031916908160001a90535060049490941c9361251981612c0e565b905061248f565b50831561256f5760405162461bcd60e51b815260206004820181905260248201527f537472696e67733a20686578206c656e67746820696e73756666696369656e746044820152606401610e6b565b9392505050565b803b6125da5760405162461bcd60e51b815260206004820152602d60248201527f455243313936373a206e657720696d706c656d656e746174696f6e206973206e60448201526c1bdd08184818dbdb9d1c9858dd609a1b6064820152608401610e6b565b7f360894a13ba1a3210667c828492db98dca3e2076cc3735a920a3ca505d382bbc80546001600160a01b0319166001600160a01b0392909216919091179055565b6060823b61267a5760405162461bcd60e51b815260206004820152602660248201527f416464726573733a2064656c65676174652063616c6c20746f206e6f6e2d636f6044820152651b9d1c9858dd60d21b6064820152608401610e6b565b600080846001600160a01b0316846040516126959190612960565b600060405180830381855af49150503d80600081146126d0576040519150601f19603f3d011682016040523d82523d6000602084013e6126d5565b606091505b50915091506126fd8282604051806060016040528060278152602001612c5c602791396127c7565b95945050505050565b61270f81612576565b6040516001600160a01b038216907fbc7cd75a20ee27fd9adebab32041f755214dbc6bffa90cc0225b39da2e5c2d3b90600090a250565b600054610100900460ff168061275f575060005460ff16155b61277b5760405162461bcd60e51b8152600401610e6b90612b3d565b600054610100900460ff16158015612179576000805461ffff19166101011790558015610f48576000805461ff001916905550565b60606127bf8484600085612800565b949350505050565b606083156127d657508161256f565b8251156127e65782518084602001fd5b8160405162461bcd60e51b8152600401610e6b91906129f1565b6060824710156128615760405162461bcd60e51b815260206004820152602660248201527f416464726573733a20696e73756666696369656e742062616c616e636520666f6044820152651c8818d85b1b60d21b6064820152608401610e6b565b843b6128af5760405162461bcd60e51b815260206004820152601d60248201527f416464726573733a2063616c6c20746f206e6f6e2d636f6e74726163740000006044820152606401610e6b565b600080866001600160a01b031685876040516128cb9190612960565b60006040518083038185875af1925050503d8060008114612908576040519150601f19603f3d011682016040523d82523d6000602084013e61290d565b606091505b509150915061291d8282866127c7565b979650505050505050565b600060208284031215612939578081fd5b8151801515811461256f578182fd5b600060208284031215612959578081fd5b5051919050565b60008251612972818460208701612be2565b9190910192915050565b7f416363657373436f6e74726f6c3a206163636f756e74200000000000000000008152600083516129b4816017850160208801612be2565b7001034b99036b4b9b9b4b733903937b6329607d1b60179184019182015283516129e5816028840160208801612be2565b01602801949350505050565b6020815260008251806020840152612a10816040850160208701612be2565b601f01601f19169190910160400192915050565b6020808252602c908201527f46756e6374696f6e206d7573742062652063616c6c6564207468726f7567682060408201526b19195b1959d85d1958d85b1b60a21b606082015260800190565b6020808252602c908201527f46756e6374696f6e206d7573742062652063616c6c6564207468726f7567682060408201526b6163746976652070726f787960a01b606082015260800190565b60208082526015908201527421b7b73a3937b63632b91d103737ba1030b236b4b760591b604082015260600190565b60208082526032908201527f436f6e74726f6c6c65723a2063616c6c657220646f6573206e6f7420686176656040820152712074686520677561726469616e20726f6c6560701b606082015260800190565b6020808252602e908201527f496e697469616c697a61626c653a20636f6e747261637420697320616c72656160408201526d191e481a5b9a5d1a585b1a5e995960921b606082015260800190565b60008219821115612b9e57612b9e612c25565b500190565b600082612bbe57634e487b7160e01b81526012600452602481fd5b500490565b6000816000190483118215151615612bdd57612bdd612c25565b500290565b60005b83811015612bfd578181015183820152602001612be5565b8381111561210c5750506000910152565b600081612c1d57612c1d612c25565b506000190190565b634e487b7160e01b600052601160045260246000fdfe2172861495e7b85edac73e3cd5fbb42dd675baadf627720e687bcfdaca025096416464726573733a206c6f772d6c6576656c2064656c65676174652063616c6c206661696c6564a2646970667358221220bb008da25ee269bed182b8409b5427261cb94bf084122b03ff7df55a8afbe1fe64736f6c63430008040033",
  "linkReferences": {},
  "deployedLinkReferences": {}
}