{"abi":[{"type":"function","name":"CITADEL_MINTER_ROLE","inputs":[],"outputs":[{"name":"","type":"bytes32","internalType":"bytes32"}],"stateMutability":"view"},{"type":"function","name":"PAUSER_ROLE","inputs":[],"outputs":[{"name":"","type":"bytes32","internalType":"bytes32"}],"stateMutability":"view"},{"type":"function","name":"UNPAUSER_ROLE","inputs":[],"outputs":[{"name":"","type":"bytes32","internalType":"bytes32"}],"stateMutability":"view"},{"type":"function","name":"__GlobalAccessControlManaged_init","inputs":[{"name":"_globalAccessControl","type":"address","internalType":"address"}],"outputs":[],"stateMutability":"nonpayable"},{"type":"function","name":"allowance","inputs":[{"name":"owner","type":"address","internalType":"address"},{"name":"spender","type":"address","internalType":"address"}],"outputs":[{"name":"","type":"uint256","internalType":"uint256"}],"stateMutability":"view"},{"type":"function","name":"approve","inputs":[{"name":"spender","type":"address","internalType":"address"},{"name":"amount","type":"uint256","internalType":"uint256"}],"outputs":[{"name":"","type":"bool","internalType":"bool"}],"stateMutability":"nonpayable"},{"type":"function","name":"balanceOf","inputs":[{"name":"account","type":"address","internalType":"address"}],"outputs":[{"name":"","type":"uint256","internalType":"uint256"}],"stateMutability":"view"},{"type":"function","name":"decimals","inputs":[],"outputs":[{"name":"","type":"uint8","internalType":"uint8"}],"stateMutability":"view"},{"type":"function","name":"decreaseAllowance","inputs":[{"name":"spender","type":"address","internalType":"address"},{"name":"subtractedValue","type":"uint256","internalType":"uint256"}],"outputs":[{"name":"","type":"bool","internalType":"bool"}],"stateMutability":"nonpayable"},{"type":"function","name":"gac","inputs":[],"outputs":[{"name":"","type":"address","internalType":"contract IGac"}],"stateMutability":"view"},{"type":"function","name":"increaseAllowance","inputs":[{"name":"spender","type":"address","internalType":"address"},{"name":"addedValue","type":"uint256","internalType":"uint256"}],"outputs":[{"name":"","type":"bool","internalType":"bool"}],"stateMutability":"nonpayable"},{"type":"function","name":"initialize","inputs":[{"name":"_name","type":"string","internalType":"string"},{"name":"_symbol","type":"string","internalType":"string"},{"name":"_gac","type":"address","internalType":"address"}],"outputs":[],"stateMutability":"nonpayable"},{"type":"function","name":"mint","inputs":[{"name":"dest","type":"address","internalType":"address"},{"name":"amount","type":"uint256","internalType":"uint256"}],"outputs":[],"stateMutability":"nonpayable"},{"type":"function","name":"name","inputs":[],"outputs":[{"name":"","type":"string","internalType":"string"}],"stateMutability":"view"},{"type":"function","name":"pause","inputs":[],"outputs":[],"stateMutability":"nonpayable"},{"type":"function","name":"paused","inputs":[],"outputs":[{"name":"","type":"bool","internalType":"bool"}],"stateMutability":"view"},{"type":"function","name":"symbol","inputs":[],"outputs":[{"name":"","type":"string","internalType":"string"}],"stateMutability":"view"},{"type":"function","name":"totalSupply","inputs":[],"outputs":[{"name":"","type":"uint256","internalType":"uint256"}],"stateMutability":"view"},{"type":"function","name":"transfer","inputs":[{"name":"to","type":"address","internalType":"address"},{"name":"amount","type":"uint256","internalType":"uint256"}],"outputs":[{"name":"","type":"bool","internalType":"bool"}],"stateMutability":"nonpayable"},{"type":"function","name":"transferFrom","inputs":[{"name":"from","type":"address","internalType":"address"},{"name":"to","type":"address","internalType":"address"},{"name":"amount","type":"uint256","internalType":"uint256"}],"outputs":[{"name":"","type":"bool","internalType":"bool"}],"stateMutability":"nonpayable"},{"type":"function","name":"unpause","inputs":[],"outputs":[],"stateMutability":"nonpayable"},{"type":"event","name":"Approval","inputs":[{"name":"owner","type":"address","indexed":true,"internalType":"address"},{"name":"spender","type":"address","indexed":true,"internalType":"address"},{"name":"value","type":"uint256","indexed":false,"internalType":"uint256"}],"anonymous":false},{"type":"event","name":"Paused","inputs":[{"name":"account","type":"address","indexed":false,"internalType":"address"}],"anonymous":false},{"type":"event","name":"Transfer","inputs":[{"name":"from","type":"address","indexed":true,"internalType":"address"},{"name":"to","type":"address","indexed":true,"internalType":"address"},{"name":"value","type":"uint256","indexed":false,"internalType":"uint256"}],"anonymous":false},{"type":"event","name":"Unpaused","inputs":[{"name":"account","type":"address","indexed":false,"internalType":"address"}],"anonymous":false}],"bytecode":{"object":"0x608060405234801561001057600080fd5b5061259a806100206000396000f3fe608060405234801561001057600080fd5b50600436106101375760003560e01c80635c975abb116100b8578063a457c2d71161007c578063a457c2d714610318578063a9059cbb14610348578063dd62ed3e14610378578063e63ab1e9146103a8578063f4e79fc3146103c6578063fb1bb9de146103e457610137565b80635c975abb1461028657806370a08231146102a45780637a3dbd6a146102d45780638456cb59146102f057806395d89b41146102fa57610137565b8063242502f9116100ff578063242502f9146101f4578063313ce5671461021257806339509351146102305780633f4ba83a1461026057806340c10f191461026a57610137565b806306fdde031461013c578063077f224a1461015a578063095ea7b31461017657806318160ddd146101a657806323b872dd146101c4575b600080fd5b610144610402565b604051610151919061177f565b60405180910390f35b610174600480360381019061016f9190611948565b610494565b005b610190600480360381019061018b9190611a09565b61058e565b60405161019d9190611a64565b60405180910390f35b6101ae6105b1565b6040516101bb9190611a8e565b60405180910390f35b6101de60048036038101906101d99190611aa9565b6105bb565b6040516101eb9190611a64565b60405180910390f35b6101fc6105ea565b6040516102099190611b15565b60405180910390f35b61021a61060e565b6040516102279190611b4c565b60405180910390f35b61024a60048036038101906102459190611a09565b610617565b6040516102579190611a64565b60405180910390f35b61026861064e565b005b610284600480360381019061027f9190611a09565b61071f565b005b61028e610945565b60405161029b9190611a64565b60405180910390f35b6102be60048036038101906102b99190611b67565b61095c565b6040516102cb9190611a8e565b60405180910390f35b6102ee60048036038101906102e99190611b67565b6109a5565b005b6102f8610a40565b005b610302610b11565b60405161030f919061177f565b60405180910390f35b610332600480360381019061032d9190611a09565b610ba3565b60405161033f9190611a64565b60405180910390f35b610362600480360381019061035d9190611a09565b610c1a565b60405161036f9190611a64565b60405180910390f35b610392600480360381019061038d9190611b94565b610c3d565b60405161039f9190611a8e565b60405180910390f35b6103b0610cc4565b6040516103bd9190611b15565b60405180910390f35b6103ce610ce8565b6040516103db9190611c33565b60405180910390f35b6103ec610d0e565b6040516103f99190611b15565b60405180910390f35b60606069805461041190611c7d565b80601f016020809104026020016040519081016040528092919081815260200182805461043d90611c7d565b801561048a5780601f1061045f5761010080835404028352916020019161048a565b820191906000526020600020905b81548152906001019060200180831161046d57829003601f168201915b5050505050905090565b600060019054906101000a900460ff166104bc5760008054906101000a900460ff16156104c5565b6104c4610d32565b5b610504576040517f08c379a00000000000000000000000000000000000000000000000000000000081526004016104fb90611d21565b60405180910390fd5b60008060019054906101000a900460ff161590508015610554576001600060016101000a81548160ff02191690831515021790555060016000806101000a81548160ff0219169083151502179055505b61055e8484610d43565b610567826109a5565b80156105885760008060016101000a81548160ff0219169083151502179055505b50505050565b600080610599610da0565b90506105a6818585610da8565b600191505092915050565b6000606854905090565b6000806105c6610da0565b90506105d3858285610f73565b6105de858585610fff565b60019150509392505050565b7f7c58f6f6addcc53de50626e103e7eb4a75f2aa59d03c52bdba93d74a719bee7881565b60006012905090565b600080610622610da0565b90506106438185856106348589610c3d565b61063e9190611d70565b610da8565b600191505092915050565b606560009054906101000a900473ffffffffffffffffffffffffffffffffffffffff1673ffffffffffffffffffffffffffffffffffffffff166391d148547f427da25fe773164f88948d3e215c94b6554e2ed5e5f203a821c9f2f6131cf75a336040518363ffffffff1660e01b81526004016106cb929190611dd5565b602060405180830381865afa1580156106e8573d6000803e3d6000fd5b505050506040513d601f19601f8201168201806040525081019061070c9190611e2a565b61071557600080fd5b61071d611283565b565b7f7c58f6f6addcc53de50626e103e7eb4a75f2aa59d03c52bdba93d74a719bee78606560009054906101000a900473ffffffffffffffffffffffffffffffffffffffff1673ffffffffffffffffffffffffffffffffffffffff166391d1485482336040518363ffffffff1660e01b815260040161079d929190611dd5565b602060405180830381865afa1580156107ba573d6000803e3d6000fd5b505050506040513d601f19601f820116820180604052508101906107de9190611e2a565b61081d576040517f08c379a000000000000000000000000000000000000000000000000000000000815260040161081490611ea3565b60405180910390fd5b606560009054906101000a900473ffffffffffffffffffffffffffffffffffffffff1673ffffffffffffffffffffffffffffffffffffffff16635c975abb6040518163ffffffff1660e01b8152600401602060405180830381865afa15801561088a573d6000803e3d6000fd5b505050506040513d601f19601f820116820180604052508101906108ae9190611e2a565b156108ee576040517f08c379a00000000000000000000000000000000000000000000000000000000081526004016108e590611f0f565b60405180910390fd5b6108f6610945565b15610936576040517f08c379a000000000000000000000000000000000000000000000000000000000815260040161092d90611f7b565b60405180910390fd5b6109408383611325565b505050565b6000603360009054906101000a900460ff16905090565b6000606660008373ffffffffffffffffffffffffffffffffffffffff1673ffffffffffffffffffffffffffffffffffffffff168152602001908152602001600020549050919050565b600060019054906101000a900460ff166109f4576040517f08c379a00000000000000000000000000000000000000000000000000000000081526004016109eb9061200d565b60405180910390fd5b6109fc611486565b80606560006101000a81548173ffffffffffffffffffffffffffffffffffffffff021916908373ffffffffffffffffffffffffffffffffffffffff16021790555050565b606560009054906101000a900473ffffffffffffffffffffffffffffffffffffffff1673ffffffffffffffffffffffffffffffffffffffff166391d148547f65d7a28e3265b37a6474929f336521b332c1681b933f6cb9f3376673440d862a336040518363ffffffff1660e01b8152600401610abd929190611dd5565b602060405180830381865afa158015610ada573d6000803e3d6000fd5b505050506040513d601f19601f82011682018060405250810190610afe9190611e2a565b610b0757600080fd5b610b0f6114f2565b565b6060606a8054610b2090611c7d565b80601f0160208091040260200160405190810160405280929190818152602001828054610b4c90611c7d565b8015610b995780601f10610b6e57610100808354040283529160200191610b99565b820191906000526020600020905b815481529060010190602001808311610b7c57829003601f168201915b5050505050905090565b600080610bae610da0565b90506000610bbc8286610c3d565b905083811015610c01576040517f08c379a0000000000000000000000000000000000000000000000000000000008152600401610bf89061209f565b60405180910390fd5b610c0e8286868403610da8565b60019250505092915050565b600080610c25610da0565b9050610c32818585610fff565b600191505092915050565b6000606760008473ffffffffffffffffffffffffffffffffffffffff1673ffffffffffffffffffffffffffffffffffffffff16815260200190815260200160002060008373ffffffffffffffffffffffffffffffffffffffff1673ffffffffffffffffffffffffffffffffffffffff16815260200190815260200160002054905092915050565b7f65d7a28e3265b37a6474929f336521b332c1681b933f6cb9f3376673440d862a81565b606560009054906101000a900473ffffffffffffffffffffffffffffffffffffffff1681565b7f427da25fe773164f88948d3e215c94b6554e2ed5e5f203a821c9f2f6131cf75a81565b6000610d3d30611595565b15905090565b600060019054906101000a900460ff16610d92576040517f08c379a0000000000000000000000000000000000000000000000000000000008152600401610d899061200d565b60405180910390fd5b610d9c82826115b8565b5050565b600033905090565b600073ffffffffffffffffffffffffffffffffffffffff168373ffffffffffffffffffffffffffffffffffffffff161415610e18576040517f08c379a0000000000000000000000000000000000000000000000000000000008152600401610e0f90612131565b60405180910390fd5b600073ffffffffffffffffffffffffffffffffffffffff168273ffffffffffffffffffffffffffffffffffffffff161415610e88576040517f08c379a0000000000000000000000000000000000000000000000000000000008152600401610e7f906121c3565b60405180910390fd5b80606760008573ffffffffffffffffffffffffffffffffffffffff1673ffffffffffffffffffffffffffffffffffffffff16815260200190815260200160002060008473ffffffffffffffffffffffffffffffffffffffff1673ffffffffffffffffffffffffffffffffffffffff168152602001908152602001600020819055508173ffffffffffffffffffffffffffffffffffffffff168373ffffffffffffffffffffffffffffffffffffffff167f8c5be1e5ebec7d5bd14f71427d1e84f3dd0314c0f7b2291e5b200ac8c7c3b92583604051610f669190611a8e565b60405180910390a3505050565b6000610f7f8484610c3d565b90507fffffffffffffffffffffffffffffffffffffffffffffffffffffffffffffffff8114610ff95781811015610feb576040517f08c379a0000000000000000000000000000000000000000000000000000000008152600401610fe29061222f565b60405180910390fd5b610ff88484848403610da8565b5b50505050565b600073ffffffffffffffffffffffffffffffffffffffff168373ffffffffffffffffffffffffffffffffffffffff16141561106f576040517f08c379a0000000000000000000000000000000000000000000000000000000008152600401611066906122c1565b60405180910390fd5b600073ffffffffffffffffffffffffffffffffffffffff168273ffffffffffffffffffffffffffffffffffffffff1614156110df576040517f08c379a00000000000000000000000000000000000000000000000000000000081526004016110d690612353565b60405180910390fd5b6110ea838383611639565b6000606660008573ffffffffffffffffffffffffffffffffffffffff1673ffffffffffffffffffffffffffffffffffffffff16815260200190815260200160002054905081811015611171576040517f08c379a0000000000000000000000000000000000000000000000000000000008152600401611168906123e5565b60405180910390fd5b818103606660008673ffffffffffffffffffffffffffffffffffffffff1673ffffffffffffffffffffffffffffffffffffffff1681526020019081526020016000208190555081606660008573ffffffffffffffffffffffffffffffffffffffff1673ffffffffffffffffffffffffffffffffffffffff16815260200190815260200160002060008282546112069190611d70565b925050819055508273ffffffffffffffffffffffffffffffffffffffff168473ffffffffffffffffffffffffffffffffffffffff167fddf252ad1be2c89b69c2b068fc378daa952ba7f163c4a11628f55a4df523b3ef8460405161126a9190611a8e565b60405180910390a361127d84848461163e565b50505050565b61128b610945565b6112ca576040517f08c379a00000000000000000000000000000000000000000000000000000000081526004016112c190612451565b60405180910390fd5b6000603360006101000a81548160ff0219169083151502179055507f5db9ee0a495bf2e6ff9c91a7834c1ba4fdd244a5e8aa4e537bd38aeae4b073aa61130e610da0565b60405161131b9190612471565b60405180910390a1565b600073ffffffffffffffffffffffffffffffffffffffff168273ffffffffffffffffffffffffffffffffffffffff161415611395576040517f08c379a000000000000000000000000000000000000000000000000000000000815260040161138c906124d8565b60405180910390fd5b6113a160008383611639565b80606860008282546113b39190611d70565b9250508190555080606660008473ffffffffffffffffffffffffffffffffffffffff1673ffffffffffffffffffffffffffffffffffffffff16815260200190815260200160002060008282546114099190611d70565b925050819055508173ffffffffffffffffffffffffffffffffffffffff16600073ffffffffffffffffffffffffffffffffffffffff167fddf252ad1be2c89b69c2b068fc378daa952ba7f163c4a11628f55a4df523b3ef8360405161146e9190611a8e565b60405180910390a36114826000838361163e565b5050565b600060019054906101000a900460ff166114d5576040517f08c379a00000000000000000000000000000000000000000000000000000000081526004016114cc9061200d565b60405180910390fd5b6000603360006101000a81548160ff021916908315150217905550565b6114fa610945565b1561153a576040517f08c379a000000000000000000000000000000000000000000000000000000000815260040161153190612544565b60405180910390fd5b6001603360006101000a81548160ff0219169083151502179055507f62e78cea01bee320cd4e420270b5ea74000d11b0c9f74754ebdbfc544b05a25861157e610da0565b60405161158b9190612471565b60405180910390a1565b6000808273ffffffffffffffffffffffffffffffffffffffff163b119050919050565b600060019054906101000a900460ff16611607576040517f08c379a00000000000000000000000000000000000000000000000000000000081526004016115fe9061200d565b60405180910390fd5b816069908051906020019061161d929190611643565b5080606a9080519060200190611634929190611643565b505050565b505050565b505050565b82805461164f90611c7d565b90600052602060002090601f01602090048101928261167157600085556116b8565b82601f1061168a57805160ff19168380011785556116b8565b828001600101855582156116b8579182015b828111156116b757825182559160200191906001019061169c565b5b5090506116c591906116c9565b5090565b5b808211156116e25760008160009055506001016116ca565b5090565b600081519050919050565b600082825260208201905092915050565b60005b83811015611720578082015181840152602081019050611705565b8381111561172f576000848401525b50505050565b6000601f19601f8301169050919050565b6000611751826116e6565b61175b81856116f1565b935061176b818560208601611702565b61177481611735565b840191505092915050565b600060208201905081810360008301526117998184611746565b905092915050565b6000604051905090565b600080fd5b600080fd5b600080fd5b600080fd5b7f4e487b7100000000000000000000000000000000000000000000000000000000600052604160045260246000fd5b6117f782611735565b810181811067ffffffffffffffff82111715611816576118156117bf565b5b80604052505050565b60006118296117a1565b905061183582826117ee565b919050565b600067ffffffffffffffff821115611855576118546117bf565b5b61185e82611735565b9050602081019050919050565b82818337600083830152505050565b600061188d6118888461183a565b61181f565b9050828152602081018484840111156118a9576118a86117ba565b5b6118b484828561186b565b509392505050565b600082601f8301126118d1576118d06117b5565b5b81356118e184826020860161187a565b91505092915050565b600073ffffffffffffffffffffffffffffffffffffffff82169050919050565b6000611915826118ea565b9050919050565b6119258161190a565b811461193057600080fd5b50565b6000813590506119428161191c565b92915050565b600080600060608486031215611961576119606117ab565b5b600084013567ffffffffffffffff81111561197f5761197e6117b0565b5b61198b868287016118bc565b935050602084013567ffffffffffffffff8111156119ac576119ab6117b0565b5b6119b8868287016118bc565b92505060406119c986828701611933565b9150509250925092565b6000819050919050565b6119e6816119d3565b81146119f157600080fd5b50565b600081359050611a03816119dd565b92915050565b60008060408385031215611a2057611a1f6117ab565b5b6000611a2e85828601611933565b9250506020611a3f858286016119f4565b9150509250929050565b60008115159050919050565b611a5e81611a49565b82525050565b6000602082019050611a796000830184611a55565b92915050565b611a88816119d3565b82525050565b6000602082019050611aa36000830184611a7f565b92915050565b600080600060608486031215611ac257611ac16117ab565b5b6000611ad086828701611933565b9350506020611ae186828701611933565b9250506040611af2868287016119f4565b9150509250925092565b6000819050919050565b611b0f81611afc565b82525050565b6000602082019050611b2a6000830184611b06565b92915050565b600060ff82169050919050565b611b4681611b30565b82525050565b6000602082019050611b616000830184611b3d565b92915050565b600060208284031215611b7d57611b7c6117ab565b5b6000611b8b84828501611933565b91505092915050565b60008060408385031215611bab57611baa6117ab565b5b6000611bb985828601611933565b9250506020611bca85828601611933565b9150509250929050565b6000819050919050565b6000611bf9611bf4611bef846118ea565b611bd4565b6118ea565b9050919050565b6000611c0b82611bde565b9050919050565b6000611c1d82611c00565b9050919050565b611c2d81611c12565b82525050565b6000602082019050611c486000830184611c24565b92915050565b7f4e487b7100000000000000000000000000000000000000000000000000000000600052602260045260246000fd5b60006002820490506001821680611c9557607f821691505b60208210811415611ca957611ca8611c4e565b5b50919050565b7f496e697469616c697a61626c653a20636f6e747261637420697320616c72656160008201527f647920696e697469616c697a6564000000000000000000000000000000000000602082015250565b6000611d0b602e836116f1565b9150611d1682611caf565b604082019050919050565b60006020820190508181036000830152611d3a81611cfe565b9050919050565b7f4e487b7100000000000000000000000000000000000000000000000000000000600052601160045260246000fd5b6000611d7b826119d3565b9150611d86836119d3565b9250827fffffffffffffffffffffffffffffffffffffffffffffffffffffffffffffffff03821115611dbb57611dba611d41565b5b828201905092915050565b611dcf8161190a565b82525050565b6000604082019050611dea6000830185611b06565b611df76020830184611dc6565b9392505050565b611e0781611a49565b8114611e1257600080fd5b50565b600081519050611e2481611dfe565b92915050565b600060208284031215611e4057611e3f6117ab565b5b6000611e4e84828501611e15565b91505092915050565b7f4741433a20696e76616c69642d63616c6c65722d726f6c650000000000000000600082015250565b6000611e8d6018836116f1565b9150611e9882611e57565b602082019050919050565b60006020820190508181036000830152611ebc81611e80565b9050919050565b7f676c6f62616c2d70617573656400000000000000000000000000000000000000600082015250565b6000611ef9600d836116f1565b9150611f0482611ec3565b602082019050919050565b60006020820190508181036000830152611f2881611eec565b9050919050565b7f6c6f63616c2d7061757365640000000000000000000000000000000000000000600082015250565b6000611f65600c836116f1565b9150611f7082611f2f565b602082019050919050565b60006020820190508181036000830152611f9481611f58565b9050919050565b7f496e697469616c697a61626c653a20636f6e7472616374206973206e6f74206960008201527f6e697469616c697a696e67000000000000000000000000000000000000000000602082015250565b6000611ff7602b836116f1565b915061200282611f9b565b604082019050919050565b6000602082019050818103600083015261202681611fea565b9050919050565b7f45524332303a2064656372656173656420616c6c6f77616e63652062656c6f7760008201527f207a65726f000000000000000000000000000000000000000000000000000000602082015250565b60006120896025836116f1565b91506120948261202d565b604082019050919050565b600060208201905081810360008301526120b88161207c565b9050919050565b7f45524332303a20617070726f76652066726f6d20746865207a65726f2061646460008201527f7265737300000000000000000000000000000000000000000000000000000000602082015250565b600061211b6024836116f1565b9150612126826120bf565b604082019050919050565b6000602082019050818103600083015261214a8161210e565b9050919050565b7f45524332303a20617070726f766520746f20746865207a65726f20616464726560008201527f7373000000000000000000000000000000000000000000000000000000000000602082015250565b60006121ad6022836116f1565b91506121b882612151565b604082019050919050565b600060208201905081810360008301526121dc816121a0565b9050919050565b7f45524332303a20696e73756666696369656e7420616c6c6f77616e6365000000600082015250565b6000612219601d836116f1565b9150612224826121e3565b602082019050919050565b600060208201905081810360008301526122488161220c565b9050919050565b7f45524332303a207472616e736665722066726f6d20746865207a65726f20616460008201527f6472657373000000000000000000000000000000000000000000000000000000602082015250565b60006122ab6025836116f1565b91506122b68261224f565b604082019050919050565b600060208201905081810360008301526122da8161229e565b9050919050565b7f45524332303a207472616e7366657220746f20746865207a65726f206164647260008201527f6573730000000000000000000000000000000000000000000000000000000000602082015250565b600061233d6023836116f1565b9150612348826122e1565b604082019050919050565b6000602082019050818103600083015261236c81612330565b9050919050565b7f45524332303a207472616e7366657220616d6f756e742065786365656473206260008201527f616c616e63650000000000000000000000000000000000000000000000000000602082015250565b60006123cf6026836116f1565b91506123da82612373565b604082019050919050565b600060208201905081810360008301526123fe816123c2565b9050919050565b7f5061757361626c653a206e6f7420706175736564000000000000000000000000600082015250565b600061243b6014836116f1565b915061244682612405565b602082019050919050565b6000602082019050818103600083015261246a8161242e565b9050919050565b60006020820190506124866000830184611dc6565b92915050565b7f45524332303a206d696e7420746f20746865207a65726f206164647265737300600082015250565b60006124c2601f836116f1565b91506124cd8261248c565b602082019050919050565b600060208201905081810360008301526124f1816124b5565b9050919050565b7f5061757361626c653a2070617573656400000000000000000000000000000000600082015250565b600061252e6010836116f1565b9150612539826124f8565b602082019050919050565b6000602082019050818103600083015261255d81612521565b905091905056fea2646970667358221220f96969a2d53f3f6e55c99d5cfbf39a8c512207632c90c992d5d98474b24e078264736f6c634300080c0033","linkReferences":{}},"methodIdentifiers":{"CITADEL_MINTER_ROLE()":"242502f9","PAUSER_ROLE()":"e63ab1e9","UNPAUSER_ROLE()":"fb1bb9de","__GlobalAccessControlManaged_init(address)":"7a3dbd6a","allowance(address,address)":"dd62ed3e","approve(address,uint256)":"095ea7b3","balanceOf(address)":"70a08231","decimals()":"313ce567","decreaseAllowance(address,uint256)":"a457c2d7","gac()":"f4e79fc3","increaseAllowance(address,uint256)":"39509351","initialize(string,string,address)":"077f224a","mint(address,uint256)":"40c10f19","name()":"06fdde03","pause()":"8456cb59","paused()":"5c975abb","symbol()":"95d89b41","totalSupply()":"18160ddd","transfer(address,uint256)":"a9059cbb","transferFrom(address,address,uint256)":"23b872dd","unpause()":"3f4ba83a"},"id":20}