{
  "_format": "hh-sol-artifact-1",
  "contractName": "VaultRegistry",
  "sourceName": "contracts/VaultRegistry.sol",
  "abi": [
    {
      "inputs": [
        {
          "internalType": "string",
          "name": "name",
          "type": "string"
        },
        {
          "internalType": "string",
          "name": "symbol",
          "type": "string"
        },
        {
          "internalType": "contract IProtocolGovernance",
          "name": "protocolGovernance_",
          "type": "address"
        }
      ],
      "stateMutability": "nonpayable",
      "type": "constructor"
    },
    {
      "anonymous": false,
      "inputs": [
        {
          "indexed": true,
          "internalType": "address",
          "name": "owner",
          "type": "address"
        },
        {
          "indexed": true,
          "internalType": "address",
          "name": "approved",
          "type": "address"
        },
        {
          "indexed": true,
          "internalType": "uint256",
          "name": "tokenId",
          "type": "uint256"
        }
      ],
      "name": "Approval",
      "type": "event"
    },
    {
      "anonymous": false,
      "inputs": [
        {
          "indexed": true,
          "internalType": "address",
          "name": "owner",
          "type": "address"
        },
        {
          "indexed": true,
          "internalType": "address",
          "name": "operator",
          "type": "address"
        },
        {
          "indexed": false,
          "internalType": "bool",
          "name": "approved",
          "type": "bool"
        }
      ],
      "name": "ApprovalForAll",
      "type": "event"
    },
    {
      "anonymous": false,
      "inputs": [
        {
          "indexed": true,
          "internalType": "address",
          "name": "origin",
          "type": "address"
        },
        {
          "indexed": true,
          "internalType": "address",
          "name": "sender",
          "type": "address"
        },
        {
          "indexed": false,
          "internalType": "contract IProtocolGovernance",
          "name": "newProtocolGovernance",
          "type": "address"
        }
      ],
      "name": "CommitedProtocolGovernance",
      "type": "event"
    },
    {
      "anonymous": false,
      "inputs": [
        {
          "indexed": true,
          "internalType": "address",
          "name": "origin",
          "type": "address"
        },
        {
          "indexed": true,
          "internalType": "address",
          "name": "sender",
          "type": "address"
        },
        {
          "indexed": false,
          "internalType": "contract IProtocolGovernance",
          "name": "newProtocolGovernance",
          "type": "address"
        },
        {
          "indexed": false,
          "internalType": "uint256",
          "name": "start",
          "type": "uint256"
        }
      ],
      "name": "StagedProtocolGovernance",
      "type": "event"
    },
    {
      "anonymous": false,
      "inputs": [
        {
          "indexed": true,
          "internalType": "address",
          "name": "origin",
          "type": "address"
        },
        {
          "indexed": true,
          "internalType": "address",
          "name": "sender",
          "type": "address"
        },
        {
          "indexed": true,
          "internalType": "uint256",
          "name": "nft",
          "type": "uint256"
        }
      ],
      "name": "TokenLocked",
      "type": "event"
    },
    {
      "anonymous": false,
      "inputs": [
        {
          "indexed": true,
          "internalType": "address",
          "name": "from",
          "type": "address"
        },
        {
          "indexed": true,
          "internalType": "address",
          "name": "to",
          "type": "address"
        },
        {
          "indexed": true,
          "internalType": "uint256",
          "name": "tokenId",
          "type": "uint256"
        }
      ],
      "name": "Transfer",
      "type": "event"
    },
    {
      "anonymous": false,
      "inputs": [
        {
          "indexed": true,
          "internalType": "address",
          "name": "origin",
          "type": "address"
        },
        {
          "indexed": true,
          "internalType": "address",
          "name": "sender",
          "type": "address"
        },
        {
          "indexed": true,
          "internalType": "uint256",
          "name": "nft",
          "type": "uint256"
        },
        {
          "indexed": false,
          "internalType": "address",
          "name": "vault",
          "type": "address"
        },
        {
          "indexed": false,
          "internalType": "address",
          "name": "owner",
          "type": "address"
        }
      ],
      "name": "VaultRegistered",
      "type": "event"
    },
    {
      "inputs": [
        {
          "internalType": "address",
          "name": "newAddress",
          "type": "address"
        },
        {
          "internalType": "uint256",
          "name": "nft",
          "type": "uint256"
        }
      ],
      "name": "adminApprove",
      "outputs": [],
      "stateMutability": "nonpayable",
      "type": "function"
    },
    {
      "inputs": [
        {
          "internalType": "address",
          "name": "to",
          "type": "address"
        },
        {
          "internalType": "uint256",
          "name": "tokenId",
          "type": "uint256"
        }
      ],
      "name": "approve",
      "outputs": [],
      "stateMutability": "nonpayable",
      "type": "function"
    },
    {
      "inputs": [
        {
          "internalType": "address",
          "name": "owner",
          "type": "address"
        }
      ],
      "name": "balanceOf",
      "outputs": [
        {
          "internalType": "uint256",
          "name": "",
          "type": "uint256"
        }
      ],
      "stateMutability": "view",
      "type": "function"
    },
    {
      "inputs": [],
      "name": "commitStagedProtocolGovernance",
      "outputs": [],
      "stateMutability": "nonpayable",
      "type": "function"
    },
    {
      "inputs": [
        {
          "internalType": "uint256",
          "name": "tokenId",
          "type": "uint256"
        }
      ],
      "name": "getApproved",
      "outputs": [
        {
          "internalType": "address",
          "name": "",
          "type": "address"
        }
      ],
      "stateMutability": "view",
      "type": "function"
    },
    {
      "inputs": [
        {
          "internalType": "address",
          "name": "owner",
          "type": "address"
        },
        {
          "internalType": "address",
          "name": "operator",
          "type": "address"
        }
      ],
      "name": "isApprovedForAll",
      "outputs": [
        {
          "internalType": "bool",
          "name": "",
          "type": "bool"
        }
      ],
      "stateMutability": "view",
      "type": "function"
    },
    {
      "inputs": [
        {
          "internalType": "uint256",
          "name": "nft",
          "type": "uint256"
        }
      ],
      "name": "isLocked",
      "outputs": [
        {
          "internalType": "bool",
          "name": "",
          "type": "bool"
        }
      ],
      "stateMutability": "view",
      "type": "function"
    },
    {
      "inputs": [
        {
          "internalType": "uint256",
          "name": "nft",
          "type": "uint256"
        }
      ],
      "name": "lockNft",
      "outputs": [],
      "stateMutability": "nonpayable",
      "type": "function"
    },
    {
      "inputs": [],
      "name": "name",
      "outputs": [
        {
          "internalType": "string",
          "name": "",
          "type": "string"
        }
      ],
      "stateMutability": "view",
      "type": "function"
    },
    {
      "inputs": [
        {
          "internalType": "address",
          "name": "vault",
          "type": "address"
        }
      ],
      "name": "nftForVault",
      "outputs": [
        {
          "internalType": "uint256",
          "name": "",
          "type": "uint256"
        }
      ],
      "stateMutability": "view",
      "type": "function"
    },
    {
      "inputs": [
        {
          "internalType": "uint256",
          "name": "tokenId",
          "type": "uint256"
        }
      ],
      "name": "ownerOf",
      "outputs": [
        {
          "internalType": "address",
          "name": "",
          "type": "address"
        }
      ],
      "stateMutability": "view",
      "type": "function"
    },
    {
      "inputs": [],
      "name": "protocolGovernance",
      "outputs": [
        {
          "internalType": "contract IProtocolGovernance",
          "name": "",
          "type": "address"
        }
      ],
      "stateMutability": "view",
      "type": "function"
    },
    {
      "inputs": [
        {
          "internalType": "address",
          "name": "vault",
          "type": "address"
        },
        {
          "internalType": "address",
          "name": "owner",
          "type": "address"
        }
      ],
      "name": "registerVault",
      "outputs": [
        {
          "internalType": "uint256",
          "name": "nft",
          "type": "uint256"
        }
      ],
      "stateMutability": "nonpayable",
      "type": "function"
    },
    {
      "inputs": [
        {
          "internalType": "address",
          "name": "from",
          "type": "address"
        },
        {
          "internalType": "address",
          "name": "to",
          "type": "address"
        },
        {
          "internalType": "uint256",
          "name": "tokenId",
          "type": "uint256"
        }
      ],
      "name": "safeTransferFrom",
      "outputs": [],
      "stateMutability": "nonpayable",
      "type": "function"
    },
    {
      "inputs": [
        {
          "internalType": "address",
          "name": "from",
          "type": "address"
        },
        {
          "internalType": "address",
          "name": "to",
          "type": "address"
        },
        {
          "internalType": "uint256",
          "name": "tokenId",
          "type": "uint256"
        },
        {
          "internalType": "bytes",
          "name": "data",
          "type": "bytes"
        }
      ],
      "name": "safeTransferFrom",
      "outputs": [],
      "stateMutability": "nonpayable",
      "type": "function"
    },
    {
      "inputs": [
        {
          "internalType": "address",
          "name": "operator",
          "type": "address"
        },
        {
          "internalType": "bool",
          "name": "approved",
          "type": "bool"
        }
      ],
      "name": "setApprovalForAll",
      "outputs": [],
      "stateMutability": "nonpayable",
      "type": "function"
    },
    {
      "inputs": [
        {
          "internalType": "contract IProtocolGovernance",
          "name": "newProtocolGovernance",
          "type": "address"
        }
      ],
      "name": "stageProtocolGovernance",
      "outputs": [],
      "stateMutability": "nonpayable",
      "type": "function"
    },
    {
      "inputs": [],
      "name": "stagedProtocolGovernance",
      "outputs": [
        {
          "internalType": "contract IProtocolGovernance",
          "name": "",
          "type": "address"
        }
      ],
      "stateMutability": "view",
      "type": "function"
    },
    {
      "inputs": [],
      "name": "stagedProtocolGovernanceTimestamp",
      "outputs": [
        {
          "internalType": "uint256",
          "name": "",
          "type": "uint256"
        }
      ],
      "stateMutability": "view",
      "type": "function"
    },
    {
      "inputs": [
        {
          "internalType": "bytes4",
          "name": "interfaceId",
          "type": "bytes4"
        }
      ],
      "name": "supportsInterface",
      "outputs": [
        {
          "internalType": "bool",
          "name": "",
          "type": "bool"
        }
      ],
      "stateMutability": "view",
      "type": "function"
    },
    {
      "inputs": [],
      "name": "symbol",
      "outputs": [
        {
          "internalType": "string",
          "name": "",
          "type": "string"
        }
      ],
      "stateMutability": "view",
      "type": "function"
    },
    {
      "inputs": [
        {
          "internalType": "uint256",
          "name": "tokenId",
          "type": "uint256"
        }
      ],
      "name": "tokenURI",
      "outputs": [
        {
          "internalType": "string",
          "name": "",
          "type": "string"
        }
      ],
      "stateMutability": "view",
      "type": "function"
    },
    {
      "inputs": [
        {
          "internalType": "address",
          "name": "from",
          "type": "address"
        },
        {
          "internalType": "address",
          "name": "to",
          "type": "address"
        },
        {
          "internalType": "uint256",
          "name": "tokenId",
          "type": "uint256"
        }
      ],
      "name": "transferFrom",
      "outputs": [],
      "stateMutability": "nonpayable",
      "type": "function"
    },
    {
      "inputs": [
        {
          "internalType": "uint256",
          "name": "nft",
          "type": "uint256"
        }
      ],
      "name": "vaultForNft",
      "outputs": [
        {
          "internalType": "address",
          "name": "",
          "type": "address"
        }
      ],
      "stateMutability": "view",
      "type": "function"
    },
    {
      "inputs": [],
      "name": "vaults",
      "outputs": [
        {
          "internalType": "address[]",
          "name": "",
          "type": "address[]"
        }
      ],
      "stateMutability": "view",
      "type": "function"
    },
    {
      "inputs": [],
      "name": "vaultsCount",
      "outputs": [
        {
          "internalType": "uint256",
          "name": "",
          "type": "uint256"
        }
      ],
      "stateMutability": "view",
      "type": "function"
    }
  ],
  "bytecode": "0x60806040526001600d553480156200001657600080fd5b5060405162001e6938038062001e69833981016040819052620000399162000208565b8251839083906200005290600090602085019062000095565b5080516200006890600190602084019062000095565b5050600780546001600160a01b0319166001600160a01b03939093169290921790915550620002d2915050565b828054620000a39062000295565b90600052602060002090601f016020900481019282620000c7576000855562000112565b82601f10620000e257805160ff191683800117855562000112565b8280016001018555821562000112579182015b8281111562000112578251825591602001919060010190620000f5565b506200012092915062000124565b5090565b5b8082111562000120576000815560010162000125565b634e487b7160e01b600052604160045260246000fd5b600082601f8301126200016357600080fd5b81516001600160401b03808211156200018057620001806200013b565b604051601f8301601f19908116603f01168101908282118183101715620001ab57620001ab6200013b565b81604052838152602092508683858801011115620001c857600080fd5b600091505b83821015620001ec5785820183015181830184015290820190620001cd565b83821115620001fe5760008385830101525b9695505050505050565b6000806000606084860312156200021e57600080fd5b83516001600160401b03808211156200023657600080fd5b620002448783880162000151565b945060208601519150808211156200025b57600080fd5b506200026a8682870162000151565b604086015190935090506001600160a01b03811681146200028a57600080fd5b809150509250925092565b600181811c90821680620002aa57607f821691505b60208210811415620002cc57634e487b7160e01b600052602260045260246000fd5b50919050565b611b8780620002e26000396000f3fe608060405234801561001057600080fd5b506004361061018e5760003560e01c80638220ef5b116100de578063a22cb46511610097578063e7d7703e11610071578063e7d7703e1461035c578063e985e9c51461036f578063f6aacfb1146103ab578063fcdabd27146103ce57600080fd5b8063a22cb46514610323578063b88d4fde14610336578063c87b56dd1461034957600080fd5b80638220ef5b146102bc57806382e9f71f146102d157806388977738146102e257806395cdb9a5146102ea57806395d89b41146102f25780639c94d853146102fa57600080fd5b806323b872dd1161014b5780634dcbc739116101255780634dcbc739146102725780635227ce4c146102855780636352211e1461029657806370a08231146102a957600080fd5b806323b872dd146102395780633be0539c1461024c57806342842e0e1461025f57600080fd5b806301ffc9a7146101935780630407ca13146101bb57806305c4fdf9146101c557806306fdde03146101e6578063081812fc146101fb578063095ea7b314610226575b600080fd5b6101a66101a1366004611655565b6103f7565b60405190151581526020015b60405180910390f35b6101c3610449565b005b6101d86101d3366004611687565b610575565b6040519081526020016101b2565b6101ee610717565b6040516101b29190611718565b61020e61020936600461172b565b6107a9565b6040516001600160a01b0390911681526020016101b2565b6101c3610234366004611744565b6107d0565b6101c3610247366004611770565b6108e6565b6101c361025a3660046117b1565b610917565b6101c361026d366004611770565b610a49565b6101c361028036600461172b565b610a64565b6007546001600160a01b031661020e565b61020e6102a436600461172b565b610af9565b6101d86102b73660046117b1565b610b59565b6102c4610bdf565b6040516101b291906117ce565b6008546001600160a01b031661020e565b6009546101d8565b6006546101d8565b6101ee610c40565b61020e61030836600461172b565b6000908152600b60205260409020546001600160a01b031690565b6101c3610331366004611829565b610c4f565b6101c361034436600461186d565b610c5e565b6101ee61035736600461172b565b610c96565b6101c361036a366004611744565b610d0a565b6101a661037d366004611687565b6001600160a01b03918216600090815260056020908152604080832093909416825291909152205460ff1690565b6101a66103b936600461172b565b6000908152600c602052604090205460ff1690565b6101d86103dc3660046117b1565b6001600160a01b03166000908152600a602052604090205490565b60006001600160e01b031982166380ac58cd60e01b148061042857506001600160e01b03198216635b5e139f60e01b145b8061044357506301ffc9a760e01b6001600160e01b03198316145b92915050565b61045233610db2565b6040518060400160405280600381526020016241444d60e81b815250906104955760405162461bcd60e51b815260040161048c9190611718565b60405180910390fd5b50600060065411604051806040016040528060028152602001614e4160f01b815250906104d55760405162461bcd60e51b815260040161048c9190611718565b5060065442101560405180604001604052806002815260200161545360f01b815250906105155760405162461bcd60e51b815260040161048c9190611718565b50600854600780546001600160a01b0319166001600160a01b0390921691821790556000600655604051908152339032907f4028a967f323e2e5c0f132491efcd9aab74518c58755d2902f68e15bddf7f0b99060200160405180910390a3565b60075460405163f3ed9b4d60e01b81523360048201526000916001600160a01b03169063f3ed9b4d9060240160206040518083038186803b1580156105b957600080fd5b505afa1580156105cd573d6000803e3d6000fd5b505050506040513d601f19601f820116820180604052508101906105f1919061194d565b60405180604001604052806002815260200161564760f01b8152509061062a5760405162461bcd60e51b815260040161048c9190611718565b5050600d546106398282610e30565b6000818152600b6020908152604080832080546001600160a01b0388166001600160a01b03199182168117909255818552600a90935290832084905560098054600181810183559185527f6e1540171b6c0c960b71a7020d9f60077f6af931a8bbf590da0223dacf75c7af018054909316909117909155600d8054919290916106c390849061196a565b9091555050604080516001600160a01b038086168252841660208201528291339132917f2e7d565a40aae7fc212bb3ec8f236059403cc2a1687d17b98dfef745b5ff4eda910160405180910390a492915050565b60606000805461072690611990565b80601f016020809104026020016040519081016040528092919081815260200182805461075290611990565b801561079f5780601f106107745761010080835404028352916020019161079f565b820191906000526020600020905b81548152906001019060200180831161078257829003601f168201915b5050505050905090565b60006107b482610e4a565b506000908152600460205260409020546001600160a01b031690565b60006107db82610af9565b9050806001600160a01b0316836001600160a01b031614156108495760405162461bcd60e51b815260206004820152602160248201527f4552433732313a20617070726f76616c20746f2063757272656e74206f776e656044820152603960f91b606482015260840161048c565b336001600160a01b03821614806108655750610865813361037d565b6108d75760405162461bcd60e51b815260206004820152603d60248201527f4552433732313a20617070726f76652063616c6c6572206973206e6f7420746f60448201527f6b656e206f776e6572206f7220617070726f76656420666f7220616c6c000000606482015260840161048c565b6108e18383610eac565b505050565b6108f03382610f1a565b61090c5760405162461bcd60e51b815260040161048c906119cb565b6108e1838383610f99565b61092033610db2565b6040518060400160405280600381526020016241444d60e81b8152509061095a5760405162461bcd60e51b815260040161048c9190611718565b50600880546001600160a01b0319166001600160a01b03838116919091179091556007546040805163bba3293960e01b81529051919092169163bba32939916004808301926020929190829003018186803b1580156109b857600080fd5b505afa1580156109cc573d6000803e3d6000fd5b505050506040513d601f19601f820116820180604052508101906109f09190611a18565b6109fa904261196a565b6006819055604080516001600160a01b03841681526020810192909252339132917f3a13629a2c6c5c36580157266cf38218a43645aaa8e24dde67543ed62063879b910160405180910390a350565b6108e183838360405180602001604052806000815250610c5e565b33610a6e82610af9565b6001600160a01b03161460405180604001604052806002815260200161544f60f01b81525090610ab15760405162461bcd60e51b815260040161048c9190611718565b506000818152600c6020526040808220805460ff19166001179055518291339132917f991b8e8a2e2b8ff515f7045174eeb52eb4868e69c5bb4259da6146a93c77574d91a450565b6000818152600260205260408120546001600160a01b0316806104435760405162461bcd60e51b8152602060048201526018602482015277115490cdcc8c4e881a5b9d985b1a59081d1bdad95b88125160421b604482015260640161048c565b60006001600160a01b038216610bc35760405162461bcd60e51b815260206004820152602960248201527f4552433732313a2061646472657373207a65726f206973206e6f7420612076616044820152683634b21037bbb732b960b91b606482015260840161048c565b506001600160a01b031660009081526003602052604090205490565b6060600980548060200260200160405190810160405280929190818152602001828054801561079f57602002820191906000526020600020905b81546001600160a01b03168152600190910190602001808311610c19575050505050905090565b60606001805461072690611990565b610c5a3383836110fd565b5050565b610c683383610f1a565b610c845760405162461bcd60e51b815260040161048c906119cb565b610c90848484846111cc565b50505050565b6060610ca182610e4a565b6000610cb860408051602081019091526000815290565b90506000815111610cd85760405180602001604052806000815250610d03565b80610ce2846111ff565b604051602001610cf3929190611a31565b6040516020818303038152906040525b9392505050565b610d1333610db2565b6040518060400160405280600381526020016241444d60e81b81525090610d4d5760405162461bcd60e51b815260040161048c9190611718565b5060405163095ea7b360e01b81526001600160a01b038316600482015260248101829052309063095ea7b390604401600060405180830381600087803b158015610d9657600080fd5b505af1158015610daa573d6000803e3d6000fd5b505050505050565b600754604051630935e01b60e21b81526001600160a01b03838116600483015260009216906324d7806c9060240160206040518083038186803b158015610df857600080fd5b505afa158015610e0c573d6000803e3d6000fd5b505050506040513d601f19601f82011682018060405250810190610443919061194d565b610c5a82826040518060200160405280600081525061129c565b6000818152600260205260409020546001600160a01b0316610ea95760405162461bcd60e51b8152602060048201526018602482015277115490cdcc8c4e881a5b9d985b1a59081d1bdad95b88125160421b604482015260640161048c565b50565b600081815260046020526040902080546001600160a01b0319166001600160a01b0384169081179091558190610ee182610af9565b6001600160a01b03167f8c5be1e5ebec7d5bd14f71427d1e84f3dd0314c0f7b2291e5b200ac8c7c3b92560405160405180910390a45050565b600080610f2683610af9565b9050806001600160a01b0316846001600160a01b03161480610f6d57506001600160a01b0380821660009081526005602090815260408083209388168352929052205460ff165b80610f915750836001600160a01b0316610f86846107a9565b6001600160a01b0316145b949350505050565b826001600160a01b0316610fac82610af9565b6001600160a01b031614610fd25760405162461bcd60e51b815260040161048c90611a60565b6001600160a01b0382166110345760405162461bcd60e51b8152602060048201526024808201527f4552433732313a207472616e7366657220746f20746865207a65726f206164646044820152637265737360e01b606482015260840161048c565b826001600160a01b031661104782610af9565b6001600160a01b03161461106d5760405162461bcd60e51b815260040161048c90611a60565b600081815260046020908152604080832080546001600160a01b03199081169091556001600160a01b0387811680865260038552838620805460001901905590871680865283862080546001019055868652600290945282852080549092168417909155905184937fddf252ad1be2c89b69c2b068fc378daa952ba7f163c4a11628f55a4df523b3ef91a4505050565b816001600160a01b0316836001600160a01b0316141561115f5760405162461bcd60e51b815260206004820152601960248201527f4552433732313a20617070726f766520746f2063616c6c657200000000000000604482015260640161048c565b6001600160a01b03838116600081815260056020908152604080832094871680845294825291829020805460ff191686151590811790915591519182527f17307eab39ab6107e8899845ad3d59bd9653f200f220920489ca2b5937696c31910160405180910390a3505050565b6111d7848484610f99565b6111e3848484846112cf565b610c905760405162461bcd60e51b815260040161048c90611aa5565b6060600061120c836113dc565b600101905060008167ffffffffffffffff81111561122c5761122c611857565b6040519080825280601f01601f191660200182016040528015611256576020820181803683370190505b5090508181016020015b600019016f181899199a1a9b1b9c1cb0b131b232b360811b600a86061a8153600a850494508461128f57611294565b611260565b509392505050565b6112a683836114b4565b6112b360008484846112cf565b6108e15760405162461bcd60e51b815260040161048c90611aa5565b60006001600160a01b0384163b156113d157604051630a85bd0160e11b81526001600160a01b0385169063150b7a0290611313903390899088908890600401611af7565b602060405180830381600087803b15801561132d57600080fd5b505af192505050801561135d575060408051601f3d908101601f1916820190925261135a91810190611b34565b60015b6113b7573d80801561138b576040519150601f19603f3d011682016040523d82523d6000602084013e611390565b606091505b5080516113af5760405162461bcd60e51b815260040161048c90611aa5565b805181602001fd5b6001600160e01b031916630a85bd0160e11b149050610f91565b506001949350505050565b60008072184f03e93ff9f4daa797ed6e38ed64bf6a1f0160401b831061141b5772184f03e93ff9f4daa797ed6e38ed64bf6a1f0160401b830492506040015b6d04ee2d6d415b85acef81000000008310611447576d04ee2d6d415b85acef8100000000830492506020015b662386f26fc10000831061146557662386f26fc10000830492506010015b6305f5e100831061147d576305f5e100830492506008015b612710831061149157612710830492506004015b606483106114a3576064830492506002015b600a83106104435760010192915050565b6001600160a01b03821661150a5760405162461bcd60e51b815260206004820181905260248201527f4552433732313a206d696e7420746f20746865207a65726f2061646472657373604482015260640161048c565b6000818152600260205260409020546001600160a01b03161561156f5760405162461bcd60e51b815260206004820152601c60248201527f4552433732313a20746f6b656e20616c7265616479206d696e74656400000000604482015260640161048c565b6000818152600260205260409020546001600160a01b0316156115d45760405162461bcd60e51b815260206004820152601c60248201527f4552433732313a20746f6b656e20616c7265616479206d696e74656400000000604482015260640161048c565b6001600160a01b038216600081815260036020908152604080832080546001019055848352600290915280822080546001600160a01b0319168417905551839291907fddf252ad1be2c89b69c2b068fc378daa952ba7f163c4a11628f55a4df523b3ef908290a45050565b6001600160e01b031981168114610ea957600080fd5b60006020828403121561166757600080fd5b8135610d038161163f565b6001600160a01b0381168114610ea957600080fd5b6000806040838503121561169a57600080fd5b82356116a581611672565b915060208301356116b581611672565b809150509250929050565b60005b838110156116db5781810151838201526020016116c3565b83811115610c905750506000910152565b600081518084526117048160208601602086016116c0565b601f01601f19169290920160200192915050565b602081526000610d0360208301846116ec565b60006020828403121561173d57600080fd5b5035919050565b6000806040838503121561175757600080fd5b823561176281611672565b946020939093013593505050565b60008060006060848603121561178557600080fd5b833561179081611672565b925060208401356117a081611672565b929592945050506040919091013590565b6000602082840312156117c357600080fd5b8135610d0381611672565b6020808252825182820181905260009190848201906040850190845b8181101561180f5783516001600160a01b0316835292840192918401916001016117ea565b50909695505050505050565b8015158114610ea957600080fd5b6000806040838503121561183c57600080fd5b823561184781611672565b915060208301356116b58161181b565b634e487b7160e01b600052604160045260246000fd5b6000806000806080858703121561188357600080fd5b843561188e81611672565b9350602085013561189e81611672565b925060408501359150606085013567ffffffffffffffff808211156118c257600080fd5b818701915087601f8301126118d657600080fd5b8135818111156118e8576118e8611857565b604051601f8201601f19908116603f0116810190838211818310171561191057611910611857565b816040528281528a602084870101111561192957600080fd5b82602086016020830137600060208483010152809550505050505092959194509250565b60006020828403121561195f57600080fd5b8151610d038161181b565b6000821982111561198b57634e487b7160e01b600052601160045260246000fd5b500190565b600181811c908216806119a457607f821691505b602082108114156119c557634e487b7160e01b600052602260045260246000fd5b50919050565b6020808252602d908201527f4552433732313a2063616c6c6572206973206e6f7420746f6b656e206f776e6560408201526c1c881bdc88185c1c1c9bdd9959609a1b606082015260800190565b600060208284031215611a2a57600080fd5b5051919050565b60008351611a438184602088016116c0565b835190830190611a578183602088016116c0565b01949350505050565b60208082526025908201527f4552433732313a207472616e736665722066726f6d20696e636f72726563742060408201526437bbb732b960d91b606082015260800190565b60208082526032908201527f4552433732313a207472616e7366657220746f206e6f6e20455243373231526560408201527131b2b4bb32b91034b6b83632b6b2b73a32b960711b606082015260800190565b6001600160a01b0385811682528416602082015260408101839052608060608201819052600090611b2a908301846116ec565b9695505050505050565b600060208284031215611b4657600080fd5b8151610d038161163f56fea2646970667358221220bc68015b90a6ca52c32e76e3a7cbfb507ac24eaf2c6006e469e7d9f4b77f69c064736f6c63430008090033",
  "linkReferences": {},
  "deployedLinkReferences": {}
}