{"abi":[{"type":"function","name":"initialize","inputs":[{"name":"_admin","type":"address","internalType":"address"},{"name":"_verification","type":"address","internalType":"address"},{"name":"_signerAddress","type":"address","internalType":"address"},{"name":"_name","type":"string","internalType":"string"},{"name":"_version","type":"string","internalType":"string"}],"outputs":[],"stateMutability":"nonpayable"},{"type":"function","name":"owner","inputs":[],"outputs":[{"name":"","type":"address","internalType":"address"}],"stateMutability":"view"},{"type":"function","name":"registerSelf","inputs":[{"name":"_isMasterLinked","type":"bool","internalType":"bool"},{"name":"_v","type":"uint8","internalType":"uint8"},{"name":"_r","type":"bytes32","internalType":"bytes32"},{"name":"_s","type":"bytes32","internalType":"bytes32"},{"name":"_twitterId","type":"string","internalType":"string"},{"name":"_tweetId","type":"string","internalType":"string"},{"name":"_timestamp","type":"uint256","internalType":"uint256"}],"outputs":[],"stateMutability":"nonpayable"},{"type":"function","name":"registerUserViaOwner","inputs":[{"name":"_isMasterLinked","type":"bool","internalType":"bool"},{"name":"_user","type":"address","internalType":"address"},{"name":"_twitterId","type":"string","internalType":"string"},{"name":"_tweetId","type":"string","internalType":"string"}],"outputs":[],"stateMutability":"nonpayable"},{"type":"function","name":"renounceOwnership","inputs":[],"outputs":[],"stateMutability":"nonpayable"},{"type":"function","name":"signerAddress","inputs":[],"outputs":[{"name":"","type":"address","internalType":"address"}],"stateMutability":"view"},{"type":"function","name":"transferOwnership","inputs":[{"name":"newOwner","type":"address","internalType":"address"}],"outputs":[],"stateMutability":"nonpayable"},{"type":"function","name":"twitterIdMap","inputs":[{"name":"","type":"string","internalType":"string"}],"outputs":[{"name":"","type":"address","internalType":"address"}],"stateMutability":"view"},{"type":"function","name":"unregisterSelf","inputs":[],"outputs":[],"stateMutability":"nonpayable"},{"type":"function","name":"unregisterUser","inputs":[{"name":"_user","type":"address","internalType":"address"}],"outputs":[],"stateMutability":"nonpayable"},{"type":"function","name":"updateSignerAddress","inputs":[{"name":"_signerAddress","type":"address","internalType":"address"}],"outputs":[],"stateMutability":"nonpayable"},{"type":"function","name":"updateVerification","inputs":[{"name":"_verification","type":"address","internalType":"address"}],"outputs":[],"stateMutability":"nonpayable"},{"type":"function","name":"userData","inputs":[{"name":"","type":"address","internalType":"address"}],"outputs":[{"name":"twitterId","type":"string","internalType":"string"},{"name":"tweetId","type":"string","internalType":"string"}],"stateMutability":"view"},{"type":"function","name":"verification","inputs":[],"outputs":[{"name":"","type":"address","internalType":"contract IVerification"}],"stateMutability":"view"},{"type":"event","name":"OwnershipTransferred","inputs":[{"name":"previousOwner","type":"address","indexed":true,"internalType":"address"},{"name":"newOwner","type":"address","indexed":true,"internalType":"address"}],"anonymous":false},{"type":"event","name":"SignerUpdated","inputs":[{"name":"signerAddress","type":"address","indexed":true,"internalType":"address"}],"anonymous":false},{"type":"event","name":"UserRegistered","inputs":[{"name":"user","type":"address","indexed":true,"internalType":"address"},{"name":"isMasterLinked","type":"bool","indexed":false,"internalType":"bool"},{"name":"metadata","type":"string","indexed":true,"internalType":"string"}],"anonymous":false},{"type":"event","name":"UserUnregistered","inputs":[{"name":"user","type":"address","indexed":true,"internalType":"address"}],"anonymous":false},{"type":"event","name":"VerificationUpdated","inputs":[{"name":"verification","type":"address","indexed":true,"internalType":"address"}],"anonymous":false}],"bytecode":{"object":"0x608060405234801561001057600080fd5b506131bc806100206000396000f3fe608060405234801561001057600080fd5b50600436106100ea5760003560e01c8063715018a61161008c5780638fa2a9f0116100665780638fa2a9f01461063c578063c891091314610680578063da0e273a146107a9578063f2fde38b14610932576100ea565b8063715018a61461044c57806383b43589146104565780638da5cb5b14610608576100ea565b80634714a411116100c85780634714a411146103965780634ffe2a8b146103da5780635b7633d01461040e5780636bafaa5914610442576100ea565b80630ddb2cd4146100ef578063139b20111461026d57806321f2ca3b14610352575b600080fd5b61026b6004803603608081101561010557600080fd5b81019080803515159060200190929190803573ffffffffffffffffffffffffffffffffffffffff1690602001909291908035906020019064010000000081111561014e57600080fd5b82018360208201111561016057600080fd5b8035906020019184600183028401116401000000008311171561018257600080fd5b91908080601f016020809104026020016040519081016040528093929190818152602001838380828437600081840152601f19601f820116905080830192505050505050509192919290803590602001906401000000008111156101e557600080fd5b8201836020820111156101f757600080fd5b8035906020019184600183028401116401000000008311171561021957600080fd5b91908080601f016020809104026020016040519081016040528093929190818152602001838380828437600081840152601f19601f820116905080830192505050505050509192919290505050610976565b005b6103266004803603602081101561028357600080fd5b81019080803590602001906401000000008111156102a057600080fd5b8201836020820111156102b257600080fd5b803590602001918460018302840111640100000000831117156102d457600080fd5b91908080601f016020809104026020016040519081016040528093929190818152602001838380828437600081840152601f19601f820116905080830192505050505050509192919290505050610e79565b604051808273ffffffffffffffffffffffffffffffffffffffff16815260200191505060405180910390f35b6103946004803603602081101561036857600080fd5b81019080803573ffffffffffffffffffffffffffffffffffffffff169060200190929190505050610ec2565b005b6103d8600480360360208110156103ac57600080fd5b81019080803573ffffffffffffffffffffffffffffffffffffffff1690602001909291905050506112be565b005b6103e2611379565b604051808273ffffffffffffffffffffffffffffffffffffffff16815260200191505060405180910390f35b61041661139f565b604051808273ffffffffffffffffffffffffffffffffffffffff16815260200191505060405180910390f35b61044a6113c5565b005b610454611711565b005b610606600480360360a081101561046c57600080fd5b81019080803573ffffffffffffffffffffffffffffffffffffffff169060200190929190803573ffffffffffffffffffffffffffffffffffffffff169060200190929190803573ffffffffffffffffffffffffffffffffffffffff169060200190929190803590602001906401000000008111156104e957600080fd5b8201836020820111156104fb57600080fd5b8035906020019184600183028401116401000000008311171561051d57600080fd5b91908080601f016020809104026020016040519081016040528093929190818152602001838380828437600081840152601f19601f8201169050808301925050505050505091929192908035906020019064010000000081111561058057600080fd5b82018360208201111561059257600080fd5b803590602001918460018302840111640100000000831117156105b457600080fd5b91908080601f016020809104026020016040519081016040528093929190818152602001838380828437600081840152601f19601f820116905080830192505050505050509192919290505050611881565b005b6106106119b1565b604051808273ffffffffffffffffffffffffffffffffffffffff16815260200191505060405180910390f35b61067e6004803603602081101561065257600080fd5b81019080803573ffffffffffffffffffffffffffffffffffffffff1690602001909291905050506119db565b005b6106c26004803603602081101561069657600080fd5b81019080803573ffffffffffffffffffffffffffffffffffffffff169060200190929190505050611a96565b604051808060200180602001838103835285818151815260200191508051906020019080838360005b838110156107065780820151818401526020810190506106eb565b50505050905090810190601f1680156107335780820380516001836020036101000a031916815260200191505b50838103825284818151815260200191508051906020019080838360005b8381101561076c578082015181840152602081019050610751565b50505050905090810190601f1680156107995780820380516001836020036101000a031916815260200191505b5094505050505060405180910390f35b610930600480360360e08110156107bf57600080fd5b81019080803515159060200190929190803560ff16906020019092919080359060200190929190803590602001909291908035906020019064010000000081111561080957600080fd5b82018360208201111561081b57600080fd5b8035906020019184600183028401116401000000008311171561083d57600080fd5b91908080601f016020809104026020016040519081016040528093929190818152602001838380828437600081840152601f19601f820116905080830192505050505050509192919290803590602001906401000000008111156108a057600080fd5b8201836020820111156108b257600080fd5b803590602001918460018302840111640100000000831117156108d457600080fd5b91908080601f016020809104026020016040519081016040528093929190818152602001838380828437600081840152601f19601f82011690508083019250505050505050919291929080359060200190929190505050611bea565b005b6109746004803603602081101561094857600080fd5b81019080803573ffffffffffffffffffffffffffffffffffffffff169060200190929190505050612394565b005b61097e612589565b73ffffffffffffffffffffffffffffffffffffffff1661099c6119b1565b73ffffffffffffffffffffffffffffffffffffffff1614610a25576040517f08c379a00000000000000000000000000000000000000000000000000000000081526004018080602001828103825260208152602001807f4f776e61626c653a2063616c6c6572206973206e6f7420746865206f776e657281525060200191505060405180910390fd5b60007f56ef4bbda8dd528d0295470092109d15b58bf7d66c01d8fb2955b8cd4a6361cd838051906020012083805190602001208642604051602001808681526020018581526020018481526020018373ffffffffffffffffffffffffffffffffffffffff16815260200182815260200195505050505050604051602081830303815290604052805190602001209050600073ffffffffffffffffffffffffffffffffffffffff16609c600083815260200190815260200160002060009054906101000a900473ffffffffffffffffffffffffffffffffffffffff1673ffffffffffffffffffffffffffffffffffffffff1614610b89576040517f08c379a00000000000000000000000000000000000000000000000000000000081526004018080602001828103825260118152602001807f4861736820416c7265616479205573656400000000000000000000000000000081525060200191505060405180910390fd5b609960009054906101000a900473ffffffffffffffffffffffffffffffffffffffff1673ffffffffffffffffffffffffffffffffffffffff1663a94413a185876040518363ffffffff1660e01b8152600401808373ffffffffffffffffffffffffffffffffffffffff168152602001821515815260200192505050600060405180830381600087803b158015610c1e57600080fd5b505af1158015610c32573d6000803e3d6000fd5b50505050604051806040016040528084815260200183815250609a60008673ffffffffffffffffffffffffffffffffffffffff1673ffffffffffffffffffffffffffffffffffffffff1681526020019081526020016000206000820151816000019080519060200190610ca6929190612ffb565b506020820151816001019080519060200190610cc3929190612ffb565b5090505083609b846040518082805190602001908083835b60208310610cfe5780518252602082019150602081019050602083039250610cdb565b6001836020036101000a038019825116818451168082178552505050505050905001915050908152602001604051809103902060006101000a81548173ffffffffffffffffffffffffffffffffffffffff021916908373ffffffffffffffffffffffffffffffffffffffff16021790555083609c600083815260200190815260200160002060006101000a81548173ffffffffffffffffffffffffffffffffffffffff021916908373ffffffffffffffffffffffffffffffffffffffff160217905550826040518082805190602001908083835b60208310610df55780518252602082019150602081019050602083039250610dd2565b6001836020036101000a03801982511681845116808217855250505050505090500191505060405180910390208473ffffffffffffffffffffffffffffffffffffffff167fd0cc6197d4f74413f62e2cef7b4b43536e1965d8f11dcbf4c376ec1e85d2b22e8760405180821515815260200191505060405180910390a35050505050565b609b818051602081018201805184825260208301602085012081835280955050505050506000915054906101000a900473ffffffffffffffffffffffffffffffffffffffff1681565b610eca612589565b73ffffffffffffffffffffffffffffffffffffffff16610ee86119b1565b73ffffffffffffffffffffffffffffffffffffffff1614610f71576040517f08c379a00000000000000000000000000000000000000000000000000000000081526004018080602001828103825260208152602001807f4f776e61626c653a2063616c6c6572206973206e6f7420746865206f776e657281525060200191505060405180910390fd5b6000609a60008373ffffffffffffffffffffffffffffffffffffffff1673ffffffffffffffffffffffffffffffffffffffff1681526020019081526020016000206000018054600181600116156101000203166002900480601f0160208091040260200160405190810160405280929190818152602001828054600181600116156101000203166002900480156110495780601f1061101e57610100808354040283529160200191611049565b820191906000526020600020905b81548152906001019060200180831161102c57829003601f168201915b505050505090506000815114156110c8576040517f08c379a00000000000000000000000000000000000000000000000000000000081526004018080602001828103825260148152602001807f5573657220646f6573206e6f742065786973747300000000000000000000000081525060200191505060405180910390fd5b609b816040518082805190602001908083835b602083106110fe57805182526020820191506020810190506020830392506110db565b6001836020036101000a038019825116818451168082178552505050505050905001915050908152602001604051809103902060006101000a81549073ffffffffffffffffffffffffffffffffffffffff0219169055609a60008373ffffffffffffffffffffffffffffffffffffffff1673ffffffffffffffffffffffffffffffffffffffff168152602001908152602001600020600080820160006111a49190613089565b6001820160006111b49190613089565b5050609960009054906101000a900473ffffffffffffffffffffffffffffffffffffffff1673ffffffffffffffffffffffffffffffffffffffff1663b4d59d0e83306040518363ffffffff1660e01b8152600401808373ffffffffffffffffffffffffffffffffffffffff1681526020018273ffffffffffffffffffffffffffffffffffffffff16815260200192505050600060405180830381600087803b15801561125f57600080fd5b505af1158015611273573d6000803e3d6000fd5b505050508173ffffffffffffffffffffffffffffffffffffffff167f69c4cef1aa574ae7852ac8b784ab60926951c604b70049150e4091759ea9807660405160405180910390a25050565b6112c6612589565b73ffffffffffffffffffffffffffffffffffffffff166112e46119b1565b73ffffffffffffffffffffffffffffffffffffffff161461136d576040517f08c379a00000000000000000000000000000000000000000000000000000000081526004018080602001828103825260208152602001807f4f776e61626c653a2063616c6c6572206973206e6f7420746865206f776e657281525060200191505060405180910390fd5b61137681612591565b50565b609960009054906101000a900473ffffffffffffffffffffffffffffffffffffffff1681565b609d60009054906101000a900473ffffffffffffffffffffffffffffffffffffffff1681565b6000609a60003373ffffffffffffffffffffffffffffffffffffffff1673ffffffffffffffffffffffffffffffffffffffff1681526020019081526020016000206000018054600181600116156101000203166002900480601f01602080910402602001604051908101604052809291908181526020018280546001816001161561010002031660029004801561149d5780601f106114725761010080835404028352916020019161149d565b820191906000526020600020905b81548152906001019060200180831161148057829003601f168201915b5050505050905060008151141561151c576040517f08c379a00000000000000000000000000000000000000000000000000000000081526004018080602001828103825260128152602001807f5573657220646f65736e7420657869737473000000000000000000000000000081525060200191505060405180910390fd5b609b816040518082805190602001908083835b60208310611552578051825260208201915060208101905060208303925061152f565b6001836020036101000a038019825116818451168082178552505050505050905001915050908152602001604051809103902060006101000a81549073ffffffffffffffffffffffffffffffffffffffff0219169055609a60003373ffffffffffffffffffffffffffffffffffffffff1673ffffffffffffffffffffffffffffffffffffffff168152602001908152602001600020600080820160006115f89190613089565b6001820160006116089190613089565b5050609960009054906101000a900473ffffffffffffffffffffffffffffffffffffffff1673ffffffffffffffffffffffffffffffffffffffff1663b4d59d0e33306040518363ffffffff1660e01b8152600401808373ffffffffffffffffffffffffffffffffffffffff1681526020018273ffffffffffffffffffffffffffffffffffffffff16815260200192505050600060405180830381600087803b1580156116b357600080fd5b505af11580156116c7573d6000803e3d6000fd5b505050503373ffffffffffffffffffffffffffffffffffffffff167f69c4cef1aa574ae7852ac8b784ab60926951c604b70049150e4091759ea9807660405160405180910390a250565b611719612589565b73ffffffffffffffffffffffffffffffffffffffff166117376119b1565b73ffffffffffffffffffffffffffffffffffffffff16146117c0576040517f08c379a00000000000000000000000000000000000000000000000000000000081526004018080602001828103825260208152602001807f4f776e61626c653a2063616c6c6572206973206e6f7420746865206f776e657281525060200191505060405180910390fd5b600073ffffffffffffffffffffffffffffffffffffffff16603360009054906101000a900473ffffffffffffffffffffffffffffffffffffffff1673ffffffffffffffffffffffffffffffffffffffff167f8be0079c531659141344cd1fd0a4f28419497f9722a3daafe3b4186f6b6457e060405160405180910390a36000603360006101000a81548173ffffffffffffffffffffffffffffffffffffffff021916908373ffffffffffffffffffffffffffffffffffffffff160217905550565b600060019054906101000a900460ff16806118a0575061189f612618565b5b806118b6575060008054906101000a900460ff16155b61190b576040517f08c379a000000000000000000000000000000000000000000000000000000000815260040180806020018281038252602e815260200180613137602e913960400191505060405180910390fd5b60008060019054906101000a900460ff16159050801561195b576001600060016101000a81548160ff02191690831515021790555060016000806101000a81548160ff0219169083151502179055505b611963612629565b61196c86612394565b61197585612591565b61197e84612737565b61198883836127e0565b80156119a95760008060016101000a81548160ff0219169083151502179055505b505050505050565b6000603360009054906101000a900473ffffffffffffffffffffffffffffffffffffffff16905090565b6119e3612589565b73ffffffffffffffffffffffffffffffffffffffff16611a016119b1565b73ffffffffffffffffffffffffffffffffffffffff1614611a8a576040517f08c379a00000000000000000000000000000000000000000000000000000000081526004018080602001828103825260208152602001807f4f776e61626c653a2063616c6c6572206973206e6f7420746865206f776e657281525060200191505060405180910390fd5b611a9381612737565b50565b609a602052806000526040600020600091509050806000018054600181600116156101000203166002900480601f016020809104026020016040519081016040528092919081815260200182805460018160011615610100020316600290048015611b425780601f10611b1757610100808354040283529160200191611b42565b820191906000526020600020905b815481529060010190602001808311611b2557829003601f168201915b505050505090806001018054600181600116156101000203166002900480601f016020809104026020016040519081016040528092919081815260200182805460018160011615610100020316600290048015611be05780601f10611bb557610100808354040283529160200191611be0565b820191906000526020600020905b815481529060010190602001808311611bc357829003601f168201915b5050505050905082565b6000609a60003373ffffffffffffffffffffffffffffffffffffffff1673ffffffffffffffffffffffffffffffffffffffff16815260200190815260200160002060000180546001816001161561010002031660029004905014611cb6576040517f08c379a00000000000000000000000000000000000000000000000000000000081526004018080602001828103825260138152602001807f5573657220616c7265616479206578697374730000000000000000000000000081525060200191505060405180910390fd5b600073ffffffffffffffffffffffffffffffffffffffff16609b846040518082805190602001908083835b60208310611d045780518252602082019150602081019050602083039250611ce1565b6001836020036101000a038019825116818451168082178552505050505050905001915050908152602001604051809103902060009054906101000a900473ffffffffffffffffffffffffffffffffffffffff1673ffffffffffffffffffffffffffffffffffffffff1614611de1576040517f08c379a000000000000000000000000000000000000000000000000000000000815260040180806020018281038252601b8152602001807f5369676e6564206d65737361676520616c72656164792075736564000000000081525060200191505060405180910390fd5b6201518081014210611e5b576040517f08c379a000000000000000000000000000000000000000000000000000000000815260040180806020018281038252601a8152602001807f5369676e6564207472616e73616374696f6e206578706972656400000000000081525060200191505060405180910390fd5b60007f56ef4bbda8dd528d0295470092109d15b58bf7d66c01d8fb2955b8cd4a6361cd848051906020012084805190602001203385604051602001808681526020018581526020018481526020018373ffffffffffffffffffffffffffffffffffffffff16815260200182815260200195505050505050604051602081830303815290604052805190602001209050600073ffffffffffffffffffffffffffffffffffffffff16609c600083815260200190815260200160002060009054906101000a900473ffffffffffffffffffffffffffffffffffffffff1673ffffffffffffffffffffffffffffffffffffffff1614611fbf576040517f08c379a00000000000000000000000000000000000000000000000000000000081526004018080602001828103825260118152602001807f4861736820416c7265616479205573656400000000000000000000000000000081525060200191505060405180910390fd5b6000611fca826128ea565b90506000611fda828a8a8a612951565b9050609d60009054906101000a900473ffffffffffffffffffffffffffffffffffffffff1673ffffffffffffffffffffffffffffffffffffffff168173ffffffffffffffffffffffffffffffffffffffff161461209f576040517f08c379a00000000000000000000000000000000000000000000000000000000081526004018080602001828103825260118152602001807f496e76616c6964207369676e617475726500000000000000000000000000000081525060200191505060405180910390fd5b609960009054906101000a900473ffffffffffffffffffffffffffffffffffffffff1673ffffffffffffffffffffffffffffffffffffffff1663a94413a1338c6040518363ffffffff1660e01b8152600401808373ffffffffffffffffffffffffffffffffffffffff168152602001821515815260200192505050600060405180830381600087803b15801561213457600080fd5b505af1158015612148573d6000803e3d6000fd5b50505050604051806040016040528087815260200186815250609a60003373ffffffffffffffffffffffffffffffffffffffff1673ffffffffffffffffffffffffffffffffffffffff16815260200190815260200160002060008201518160000190805190602001906121bc929190612ffb565b5060208201518160010190805190602001906121d9929190612ffb565b5090505033609b876040518082805190602001908083835b6020831061221457805182526020820191506020810190506020830392506121f1565b6001836020036101000a038019825116818451168082178552505050505050905001915050908152602001604051809103902060006101000a81548173ffffffffffffffffffffffffffffffffffffffff021916908373ffffffffffffffffffffffffffffffffffffffff16021790555033609c600085815260200190815260200160002060006101000a81548173ffffffffffffffffffffffffffffffffffffffff021916908373ffffffffffffffffffffffffffffffffffffffff160217905550856040518082805190602001908083835b6020831061230b57805182526020820191506020810190506020830392506122e8565b6001836020036101000a03801982511681845116808217855250505050505090500191505060405180910390203373ffffffffffffffffffffffffffffffffffffffff167fd0cc6197d4f74413f62e2cef7b4b43536e1965d8f11dcbf4c376ec1e85d2b22e8c60405180821515815260200191505060405180910390a350505050505050505050565b61239c612589565b73ffffffffffffffffffffffffffffffffffffffff166123ba6119b1565b73ffffffffffffffffffffffffffffffffffffffff1614612443576040517f08c379a00000000000000000000000000000000000000000000000000000000081526004018080602001828103825260208152602001807f4f776e61626c653a2063616c6c6572206973206e6f7420746865206f776e657281525060200191505060405180910390fd5b600073ffffffffffffffffffffffffffffffffffffffff168173ffffffffffffffffffffffffffffffffffffffff1614156124c9576040517f08c379a00000000000000000000000000000000000000000000000000000000081526004018080602001828103825260268152602001806130ef6026913960400191505060405180910390fd5b8073ffffffffffffffffffffffffffffffffffffffff16603360009054906101000a900473ffffffffffffffffffffffffffffffffffffffff1673ffffffffffffffffffffffffffffffffffffffff167f8be0079c531659141344cd1fd0a4f28419497f9722a3daafe3b4186f6b6457e060405160405180910390a380603360006101000a81548173ffffffffffffffffffffffffffffffffffffffff021916908373ffffffffffffffffffffffffffffffffffffffff16021790555050565b600033905090565b80609960006101000a81548173ffffffffffffffffffffffffffffffffffffffff021916908373ffffffffffffffffffffffffffffffffffffffff1602179055508073ffffffffffffffffffffffffffffffffffffffff167f338023d1a77245a8822dee6b9aa4282f63ead21a60f318249be250004ed8b93b60405160405180910390a250565b600061262330612b50565b15905090565b600060019054906101000a900460ff16806126485750612647612618565b5b8061265e575060008054906101000a900460ff16155b6126b3576040517f08c379a000000000000000000000000000000000000000000000000000000000815260040180806020018281038252602e815260200180613137602e913960400191505060405180910390fd5b60008060019054906101000a900460ff161590508015612703576001600060016101000a81548160ff02191690831515021790555060016000806101000a81548160ff0219169083151502179055505b61270b612b63565b612713612c61565b80156127345760008060016101000a81548160ff0219169083151502179055505b50565b80609d60006101000a81548173ffffffffffffffffffffffffffffffffffffffff021916908373ffffffffffffffffffffffffffffffffffffffff160217905550609d60009054906101000a900473ffffffffffffffffffffffffffffffffffffffff1673ffffffffffffffffffffffffffffffffffffffff167f5553331329228fbd4123164423717a4a7539f6dfa1c3279a923b98fd681a6c7360405160405180910390a250565b600060019054906101000a900460ff16806127ff57506127fe612618565b5b80612815575060008054906101000a900460ff16155b61286a576040517f08c379a000000000000000000000000000000000000000000000000000000000815260040180806020018281038252602e815260200180613137602e913960400191505060405180910390fd5b60008060019054906101000a900460ff1615905080156128ba576001600060016101000a81548160ff02191690831515021790555060016000806101000a81548160ff0219169083151502179055505b6128c48383612e08565b80156128e55760008060016101000a81548160ff0219169083151502179055505b505050565b60006128f4612f30565b8260405160200180807f190100000000000000000000000000000000000000000000000000000000000081525060020183815260200182815260200192505050604051602081830303815290604052805190602001209050919050565b60007f7fffffffffffffffffffffffffffffff5d576e7357a4501ddfe92f46681b20a08260001c11156129cf576040517f08c379a00000000000000000000000000000000000000000000000000000000081526004018080602001828103825260228152602001806131156022913960400191505060405180910390fd5b601b8460ff1614806129e45750601c8460ff16145b612a39576040517f08c379a00000000000000000000000000000000000000000000000000000000081526004018080602001828103825260228152602001806131656022913960400191505060405180910390fd5b600060018686868660405160008152602001604052604051808581526020018460ff1681526020018381526020018281526020019450505050506020604051602081039080840390855afa158015612a95573d6000803e3d6000fd5b505050602060405103519050600073ffffffffffffffffffffffffffffffffffffffff168173ffffffffffffffffffffffffffffffffffffffff161415612b44576040517f08c379a00000000000000000000000000000000000000000000000000000000081526004018080602001828103825260188152602001807f45434453413a20696e76616c6964207369676e6174757265000000000000000081525060200191505060405180910390fd5b80915050949350505050565b600080823b905060008111915050919050565b600060019054906101000a900460ff1680612b825750612b81612618565b5b80612b98575060008054906101000a900460ff16155b612bed576040517f08c379a000000000000000000000000000000000000000000000000000000000815260040180806020018281038252602e815260200180613137602e913960400191505060405180910390fd5b60008060019054906101000a900460ff161590508015612c3d576001600060016101000a81548160ff02191690831515021790555060016000806101000a81548160ff0219169083151502179055505b8015612c5e5760008060016101000a81548160ff0219169083151502179055505b50565b600060019054906101000a900460ff1680612c805750612c7f612618565b5b80612c96575060008054906101000a900460ff16155b612ceb576040517f08c379a000000000000000000000000000000000000000000000000000000000815260040180806020018281038252602e815260200180613137602e913960400191505060405180910390fd5b60008060019054906101000a900460ff161590508015612d3b576001600060016101000a81548160ff02191690831515021790555060016000806101000a81548160ff0219169083151502179055505b6000612d45612589565b905080603360006101000a81548173ffffffffffffffffffffffffffffffffffffffff021916908373ffffffffffffffffffffffffffffffffffffffff1602179055508073ffffffffffffffffffffffffffffffffffffffff16600073ffffffffffffffffffffffffffffffffffffffff167f8be0079c531659141344cd1fd0a4f28419497f9722a3daafe3b4186f6b6457e060405160405180910390a3508015612e055760008060016101000a81548160ff0219169083151502179055505b50565b600060019054906101000a900460ff1680612e275750612e26612618565b5b80612e3d575060008054906101000a900460ff16155b612e92576040517f08c379a000000000000000000000000000000000000000000000000000000000815260040180806020018281038252602e815260200180613137602e913960400191505060405180910390fd5b60008060019054906101000a900460ff161590508015612ee2576001600060016101000a81548160ff02191690831515021790555060016000806101000a81548160ff0219169083151502179055505b600083805190602001209050600083805190602001209050816065819055508060668190555050508015612f2b5760008060016101000a81548160ff0219169083151502179055505b505050565b6000612f6b7f8b73c3c69bb8fe3d512ecc4cf759cc79239f7b179b0ffacaa9a75d522b39400f612f5e612f70565b612f66612f7a565b612f84565b905090565b6000606554905090565b6000606654905090565b6000838383612f91612ff3565b30604051602001808681526020018581526020018481526020018381526020018273ffffffffffffffffffffffffffffffffffffffff168152602001955050505050506040516020818303038152906040528051906020012090509392505050565b600046905090565b828054600181600116156101000203166002900490600052602060002090601f0160209004810192826130315760008555613078565b82601f1061304a57805160ff1916838001178555613078565b82800160010185558215613078579182015b8281111561307757825182559160200191906001019061305c565b5b50905061308591906130d1565b5090565b50805460018160011615610100020316600290046000825580601f106130af57506130ce565b601f0160209004906000526020600020908101906130cd91906130d1565b5b50565b5b808211156130ea5760008160009055506001016130d2565b509056fe4f776e61626c653a206e6577206f776e657220697320746865207a65726f206164647265737345434453413a20696e76616c6964207369676e6174757265202773272076616c7565496e697469616c697a61626c653a20636f6e747261637420697320616c726561647920696e697469616c697a656445434453413a20696e76616c6964207369676e6174757265202776272076616c7565a2646970667358221220a2e032a5d6ec6be757b5b433a3188ee98dbe86c0fff510b32298247a1de8c92f64736f6c63430007060033","linkReferences":{}},"methodIdentifiers":{"initialize(address,address,address,string,string)":"83b43589","owner()":"8da5cb5b","registerSelf(bool,uint8,bytes32,bytes32,string,string,uint256)":"da0e273a","registerUserViaOwner(bool,address,string,string)":"0ddb2cd4","renounceOwnership()":"715018a6","signerAddress()":"5b7633d0","transferOwnership(address)":"f2fde38b","twitterIdMap(string)":"139b2011","unregisterSelf()":"6bafaa59","unregisterUser(address)":"21f2ca3b","updateSignerAddress(address)":"8fa2a9f0","updateVerification(address)":"4714a411","userData(address)":"c8910913","verification()":"4ffe2a8b"},"id":46}