{
  "_format": "hh-sol-artifact-1",
  "contractName": "MixinKeys",
  "sourceName": "contracts/mixins/MixinKeys.sol",
  "abi": [
    {
      "anonymous": false,
      "inputs": [
        {
          "indexed": true,
          "internalType": "address",
          "name": "owner",
          "type": "address"
        },
        {
          "indexed": true,
          "internalType": "address",
          "name": "approved",
          "type": "address"
        },
        {
          "indexed": true,
          "internalType": "uint256",
          "name": "tokenId",
          "type": "uint256"
        }
      ],
      "name": "Approval",
      "type": "event"
    },
    {
      "anonymous": false,
      "inputs": [
        {
          "indexed": true,
          "internalType": "address",
          "name": "owner",
          "type": "address"
        },
        {
          "indexed": true,
          "internalType": "address",
          "name": "operator",
          "type": "address"
        },
        {
          "indexed": false,
          "internalType": "bool",
          "name": "approved",
          "type": "bool"
        }
      ],
      "name": "ApprovalForAll",
      "type": "event"
    },
    {
      "anonymous": false,
      "inputs": [],
      "name": "Disable",
      "type": "event"
    },
    {
      "anonymous": false,
      "inputs": [
        {
          "indexed": true,
          "internalType": "uint256",
          "name": "_tokenId",
          "type": "uint256"
        },
        {
          "indexed": false,
          "internalType": "uint256",
          "name": "_amount",
          "type": "uint256"
        },
        {
          "indexed": false,
          "internalType": "bool",
          "name": "_timeAdded",
          "type": "bool"
        }
      ],
      "name": "ExpirationChanged",
      "type": "event"
    },
    {
      "anonymous": false,
      "inputs": [
        {
          "indexed": true,
          "internalType": "uint256",
          "name": "tokenId",
          "type": "uint256"
        }
      ],
      "name": "ExpireKey",
      "type": "event"
    },
    {
      "anonymous": false,
      "inputs": [
        {
          "indexed": true,
          "internalType": "address",
          "name": "account",
          "type": "address"
        }
      ],
      "name": "KeyGranterAdded",
      "type": "event"
    },
    {
      "anonymous": false,
      "inputs": [
        {
          "indexed": true,
          "internalType": "address",
          "name": "account",
          "type": "address"
        }
      ],
      "name": "KeyGranterRemoved",
      "type": "event"
    },
    {
      "anonymous": false,
      "inputs": [
        {
          "indexed": true,
          "internalType": "uint256",
          "name": "_tokenId",
          "type": "uint256"
        },
        {
          "indexed": true,
          "internalType": "address",
          "name": "_newManager",
          "type": "address"
        }
      ],
      "name": "KeyManagerChanged",
      "type": "event"
    },
    {
      "anonymous": false,
      "inputs": [
        {
          "indexed": true,
          "internalType": "address",
          "name": "account",
          "type": "address"
        }
      ],
      "name": "LockManagerAdded",
      "type": "event"
    },
    {
      "anonymous": false,
      "inputs": [
        {
          "indexed": true,
          "internalType": "address",
          "name": "account",
          "type": "address"
        }
      ],
      "name": "LockManagerRemoved",
      "type": "event"
    },
    {
      "anonymous": false,
      "inputs": [
        {
          "indexed": false,
          "internalType": "uint256",
          "name": "oldKeyPrice",
          "type": "uint256"
        },
        {
          "indexed": false,
          "internalType": "uint256",
          "name": "keyPrice",
          "type": "uint256"
        },
        {
          "indexed": false,
          "internalType": "address",
          "name": "oldTokenAddress",
          "type": "address"
        },
        {
          "indexed": false,
          "internalType": "address",
          "name": "tokenAddress",
          "type": "address"
        }
      ],
      "name": "PricingChanged",
      "type": "event"
    },
    {
      "anonymous": false,
      "inputs": [
        {
          "indexed": true,
          "internalType": "bytes32",
          "name": "role",
          "type": "bytes32"
        },
        {
          "indexed": true,
          "internalType": "bytes32",
          "name": "previousAdminRole",
          "type": "bytes32"
        },
        {
          "indexed": true,
          "internalType": "bytes32",
          "name": "newAdminRole",
          "type": "bytes32"
        }
      ],
      "name": "RoleAdminChanged",
      "type": "event"
    },
    {
      "anonymous": false,
      "inputs": [
        {
          "indexed": true,
          "internalType": "bytes32",
          "name": "role",
          "type": "bytes32"
        },
        {
          "indexed": true,
          "internalType": "address",
          "name": "account",
          "type": "address"
        },
        {
          "indexed": true,
          "internalType": "address",
          "name": "sender",
          "type": "address"
        }
      ],
      "name": "RoleGranted",
      "type": "event"
    },
    {
      "anonymous": false,
      "inputs": [
        {
          "indexed": true,
          "internalType": "bytes32",
          "name": "role",
          "type": "bytes32"
        },
        {
          "indexed": true,
          "internalType": "address",
          "name": "account",
          "type": "address"
        },
        {
          "indexed": true,
          "internalType": "address",
          "name": "sender",
          "type": "address"
        }
      ],
      "name": "RoleRevoked",
      "type": "event"
    },
    {
      "anonymous": false,
      "inputs": [
        {
          "indexed": true,
          "internalType": "address",
          "name": "from",
          "type": "address"
        },
        {
          "indexed": true,
          "internalType": "address",
          "name": "to",
          "type": "address"
        },
        {
          "indexed": true,
          "internalType": "uint256",
          "name": "tokenId",
          "type": "uint256"
        }
      ],
      "name": "Transfer",
      "type": "event"
    },
    {
      "anonymous": false,
      "inputs": [
        {
          "indexed": true,
          "internalType": "address",
          "name": "sender",
          "type": "address"
        },
        {
          "indexed": true,
          "internalType": "address",
          "name": "tokenAddress",
          "type": "address"
        },
        {
          "indexed": true,
          "internalType": "address",
          "name": "beneficiary",
          "type": "address"
        },
        {
          "indexed": false,
          "internalType": "uint256",
          "name": "amount",
          "type": "uint256"
        }
      ],
      "name": "Withdrawal",
      "type": "event"
    },
    {
      "inputs": [],
      "name": "DEFAULT_ADMIN_ROLE",
      "outputs": [
        {
          "internalType": "bytes32",
          "name": "",
          "type": "bytes32"
        }
      ],
      "stateMutability": "view",
      "type": "function"
    },
    {
      "inputs": [],
      "name": "KEY_GRANTER_ROLE",
      "outputs": [
        {
          "internalType": "bytes32",
          "name": "",
          "type": "bytes32"
        }
      ],
      "stateMutability": "view",
      "type": "function"
    },
    {
      "inputs": [],
      "name": "LOCK_MANAGER_ROLE",
      "outputs": [
        {
          "internalType": "bytes32",
          "name": "",
          "type": "bytes32"
        }
      ],
      "stateMutability": "view",
      "type": "function"
    },
    {
      "inputs": [
        {
          "internalType": "address",
          "name": "account",
          "type": "address"
        }
      ],
      "name": "addKeyGranter",
      "outputs": [],
      "stateMutability": "nonpayable",
      "type": "function"
    },
    {
      "inputs": [
        {
          "internalType": "address",
          "name": "account",
          "type": "address"
        }
      ],
      "name": "addLockManager",
      "outputs": [],
      "stateMutability": "nonpayable",
      "type": "function"
    },
    {
      "inputs": [
        {
          "internalType": "address",
          "name": "_approved",
          "type": "address"
        },
        {
          "internalType": "uint256",
          "name": "_tokenId",
          "type": "uint256"
        }
      ],
      "name": "approve",
      "outputs": [],
      "stateMutability": "nonpayable",
      "type": "function"
    },
    {
      "inputs": [
        {
          "internalType": "address",
          "name": "_spender",
          "type": "address"
        },
        {
          "internalType": "uint256",
          "name": "_amount",
          "type": "uint256"
        }
      ],
      "name": "approveBeneficiary",
      "outputs": [
        {
          "internalType": "bool",
          "name": "",
          "type": "bool"
        }
      ],
      "stateMutability": "nonpayable",
      "type": "function"
    },
    {
      "inputs": [
        {
          "internalType": "address",
          "name": "_keyOwner",
          "type": "address"
        }
      ],
      "name": "balanceOf",
      "outputs": [
        {
          "internalType": "uint256",
          "name": "",
          "type": "uint256"
        }
      ],
      "stateMutability": "view",
      "type": "function"
    },
    {
      "inputs": [],
      "name": "beneficiary",
      "outputs": [
        {
          "internalType": "address payable",
          "name": "",
          "type": "address"
        }
      ],
      "stateMutability": "view",
      "type": "function"
    },
    {
      "inputs": [],
      "name": "disableLock",
      "outputs": [],
      "stateMutability": "nonpayable",
      "type": "function"
    },
    {
      "inputs": [],
      "name": "expirationDuration",
      "outputs": [
        {
          "internalType": "uint256",
          "name": "",
          "type": "uint256"
        }
      ],
      "stateMutability": "view",
      "type": "function"
    },
    {
      "inputs": [
        {
          "internalType": "uint256",
          "name": "_tokenId",
          "type": "uint256"
        }
      ],
      "name": "getApproved",
      "outputs": [
        {
          "internalType": "address",
          "name": "",
          "type": "address"
        }
      ],
      "stateMutability": "view",
      "type": "function"
    },
    {
      "inputs": [
        {
          "internalType": "address",
          "name": "_keyOwner",
          "type": "address"
        }
      ],
      "name": "getHasValidKey",
      "outputs": [
        {
          "internalType": "bool",
          "name": "",
          "type": "bool"
        }
      ],
      "stateMutability": "view",
      "type": "function"
    },
    {
      "inputs": [
        {
          "internalType": "bytes32",
          "name": "role",
          "type": "bytes32"
        }
      ],
      "name": "getRoleAdmin",
      "outputs": [
        {
          "internalType": "bytes32",
          "name": "",
          "type": "bytes32"
        }
      ],
      "stateMutability": "view",
      "type": "function"
    },
    {
      "inputs": [
        {
          "internalType": "address",
          "name": "_account",
          "type": "address"
        }
      ],
      "name": "getTokenIdFor",
      "outputs": [
        {
          "internalType": "uint256",
          "name": "",
          "type": "uint256"
        }
      ],
      "stateMutability": "view",
      "type": "function"
    },
    {
      "inputs": [
        {
          "internalType": "bytes32",
          "name": "role",
          "type": "bytes32"
        },
        {
          "internalType": "address",
          "name": "account",
          "type": "address"
        }
      ],
      "name": "grantRole",
      "outputs": [],
      "stateMutability": "nonpayable",
      "type": "function"
    },
    {
      "inputs": [
        {
          "internalType": "bytes32",
          "name": "role",
          "type": "bytes32"
        },
        {
          "internalType": "address",
          "name": "account",
          "type": "address"
        }
      ],
      "name": "hasRole",
      "outputs": [
        {
          "internalType": "bool",
          "name": "",
          "type": "bool"
        }
      ],
      "stateMutability": "view",
      "type": "function"
    },
    {
      "inputs": [],
      "name": "isAlive",
      "outputs": [
        {
          "internalType": "bool",
          "name": "",
          "type": "bool"
        }
      ],
      "stateMutability": "view",
      "type": "function"
    },
    {
      "inputs": [
        {
          "internalType": "address",
          "name": "_owner",
          "type": "address"
        },
        {
          "internalType": "address",
          "name": "_operator",
          "type": "address"
        }
      ],
      "name": "isApprovedForAll",
      "outputs": [
        {
          "internalType": "bool",
          "name": "",
          "type": "bool"
        }
      ],
      "stateMutability": "view",
      "type": "function"
    },
    {
      "inputs": [
        {
          "internalType": "address",
          "name": "account",
          "type": "address"
        }
      ],
      "name": "isKeyGranter",
      "outputs": [
        {
          "internalType": "bool",
          "name": "",
          "type": "bool"
        }
      ],
      "stateMutability": "view",
      "type": "function"
    },
    {
      "inputs": [
        {
          "internalType": "address",
          "name": "account",
          "type": "address"
        }
      ],
      "name": "isLockManager",
      "outputs": [
        {
          "internalType": "bool",
          "name": "",
          "type": "bool"
        }
      ],
      "stateMutability": "view",
      "type": "function"
    },
    {
      "inputs": [
        {
          "internalType": "address",
          "name": "_keyOwner",
          "type": "address"
        }
      ],
      "name": "keyExpirationTimestampFor",
      "outputs": [
        {
          "internalType": "uint256",
          "name": "",
          "type": "uint256"
        }
      ],
      "stateMutability": "view",
      "type": "function"
    },
    {
      "inputs": [
        {
          "internalType": "uint256",
          "name": "",
          "type": "uint256"
        }
      ],
      "name": "keyManagerOf",
      "outputs": [
        {
          "internalType": "address",
          "name": "",
          "type": "address"
        }
      ],
      "stateMutability": "view",
      "type": "function"
    },
    {
      "inputs": [],
      "name": "keyPrice",
      "outputs": [
        {
          "internalType": "uint256",
          "name": "",
          "type": "uint256"
        }
      ],
      "stateMutability": "view",
      "type": "function"
    },
    {
      "inputs": [],
      "name": "maxNumberOfKeys",
      "outputs": [
        {
          "internalType": "uint256",
          "name": "",
          "type": "uint256"
        }
      ],
      "stateMutability": "view",
      "type": "function"
    },
    {
      "inputs": [],
      "name": "numberOfOwners",
      "outputs": [
        {
          "internalType": "uint256",
          "name": "",
          "type": "uint256"
        }
      ],
      "stateMutability": "view",
      "type": "function"
    },
    {
      "inputs": [],
      "name": "onKeyCancelHook",
      "outputs": [
        {
          "internalType": "contract ILockKeyCancelHook",
          "name": "",
          "type": "address"
        }
      ],
      "stateMutability": "view",
      "type": "function"
    },
    {
      "inputs": [],
      "name": "onKeyPurchaseHook",
      "outputs": [
        {
          "internalType": "contract ILockKeyPurchaseHook",
          "name": "",
          "type": "address"
        }
      ],
      "stateMutability": "view",
      "type": "function"
    },
    {
      "inputs": [
        {
          "internalType": "uint256",
          "name": "_tokenId",
          "type": "uint256"
        }
      ],
      "name": "ownerOf",
      "outputs": [
        {
          "internalType": "address",
          "name": "",
          "type": "address"
        }
      ],
      "stateMutability": "view",
      "type": "function"
    },
    {
      "inputs": [
        {
          "internalType": "uint256",
          "name": "",
          "type": "uint256"
        }
      ],
      "name": "owners",
      "outputs": [
        {
          "internalType": "address",
          "name": "",
          "type": "address"
        }
      ],
      "stateMutability": "view",
      "type": "function"
    },
    {
      "inputs": [],
      "name": "publicLockVersion",
      "outputs": [
        {
          "internalType": "uint16",
          "name": "",
          "type": "uint16"
        }
      ],
      "stateMutability": "pure",
      "type": "function"
    },
    {
      "inputs": [],
      "name": "renounceLockManager",
      "outputs": [],
      "stateMutability": "nonpayable",
      "type": "function"
    },
    {
      "inputs": [
        {
          "internalType": "bytes32",
          "name": "role",
          "type": "bytes32"
        },
        {
          "internalType": "address",
          "name": "account",
          "type": "address"
        }
      ],
      "name": "renounceRole",
      "outputs": [],
      "stateMutability": "nonpayable",
      "type": "function"
    },
    {
      "inputs": [
        {
          "internalType": "address",
          "name": "_granter",
          "type": "address"
        }
      ],
      "name": "revokeKeyGranter",
      "outputs": [],
      "stateMutability": "nonpayable",
      "type": "function"
    },
    {
      "inputs": [
        {
          "internalType": "bytes32",
          "name": "role",
          "type": "bytes32"
        },
        {
          "internalType": "address",
          "name": "account",
          "type": "address"
        }
      ],
      "name": "revokeRole",
      "outputs": [],
      "stateMutability": "nonpayable",
      "type": "function"
    },
    {
      "inputs": [
        {
          "internalType": "address",
          "name": "_to",
          "type": "address"
        },
        {
          "internalType": "bool",
          "name": "_approved",
          "type": "bool"
        }
      ],
      "name": "setApprovalForAll",
      "outputs": [],
      "stateMutability": "nonpayable",
      "type": "function"
    },
    {
      "inputs": [
        {
          "internalType": "address",
          "name": "_onKeyPurchaseHook",
          "type": "address"
        },
        {
          "internalType": "address",
          "name": "_onKeyCancelHook",
          "type": "address"
        }
      ],
      "name": "setEventHooks",
      "outputs": [],
      "stateMutability": "nonpayable",
      "type": "function"
    },
    {
      "inputs": [
        {
          "internalType": "uint256",
          "name": "_tokenId",
          "type": "uint256"
        },
        {
          "internalType": "address",
          "name": "_keyManager",
          "type": "address"
        }
      ],
      "name": "setKeyManagerOf",
      "outputs": [],
      "stateMutability": "nonpayable",
      "type": "function"
    },
    {
      "inputs": [
        {
          "internalType": "bytes4",
          "name": "interfaceId",
          "type": "bytes4"
        }
      ],
      "name": "supportsInterface",
      "outputs": [
        {
          "internalType": "bool",
          "name": "",
          "type": "bool"
        }
      ],
      "stateMutability": "view",
      "type": "function"
    },
    {
      "inputs": [],
      "name": "tokenAddress",
      "outputs": [
        {
          "internalType": "address",
          "name": "",
          "type": "address"
        }
      ],
      "stateMutability": "view",
      "type": "function"
    },
    {
      "inputs": [],
      "name": "totalSupply",
      "outputs": [
        {
          "internalType": "uint256",
          "name": "",
          "type": "uint256"
        }
      ],
      "stateMutability": "view",
      "type": "function"
    },
    {
      "inputs": [],
      "name": "unlockProtocol",
      "outputs": [
        {
          "internalType": "contract IUnlock",
          "name": "",
          "type": "address"
        }
      ],
      "stateMutability": "view",
      "type": "function"
    },
    {
      "inputs": [
        {
          "internalType": "address payable",
          "name": "_beneficiary",
          "type": "address"
        }
      ],
      "name": "updateBeneficiary",
      "outputs": [],
      "stateMutability": "nonpayable",
      "type": "function"
    },
    {
      "inputs": [
        {
          "internalType": "uint256",
          "name": "_keyPrice",
          "type": "uint256"
        },
        {
          "internalType": "address",
          "name": "_tokenAddress",
          "type": "address"
        }
      ],
      "name": "updateKeyPricing",
      "outputs": [],
      "stateMutability": "nonpayable",
      "type": "function"
    },
    {
      "inputs": [
        {
          "internalType": "address",
          "name": "_tokenAddress",
          "type": "address"
        },
        {
          "internalType": "uint256",
          "name": "_amount",
          "type": "uint256"
        }
      ],
      "name": "withdraw",
      "outputs": [],
      "stateMutability": "nonpayable",
      "type": "function"
    }
  ],
  "bytecode": "0x608060405234801561001057600080fd5b5061212e806100206000396000f3fe608060405234801561001057600080fd5b506004361061027f5760003560e01c80636d8ea5b41161015c578063aae4b8f7116100ce578063d1bbd49c11610087578063d1bbd49c146105e7578063d2503485146105f6578063d547741f14610609578063e985e9c51461061c578063f0ba60401461062f578063f3fef3a31461063757600080fd5b8063aae4b8f714610567578063abdf82ce1461057a578063ad0e0a4d146105a6578063b11d7ec1146105b9578063b585a6d5146105cc578063c1c98d03146105df57600080fd5b806393fd18441161012057806393fd1844146104f5578063970aaeb7146104fd5780639d76ea5814610526578063a217fddf14610539578063a22cb46514610541578063a2e4cd2e1461055457600080fd5b80636d8ea5b41461048357806370a08231146104b157806374b6c106146104c45780638ca2fbad146104cd57806391d14854146104e257600080fd5b8063248a9ca3116101f557806338af3eed116101b957806338af3eed146103e45780634136aa35146103f75780634d025fed1461040b57806352b0f63814610434578063564aa99d146104475780636352211e1461045a57600080fd5b8063248a9ca3146103755780632af9162a146103985780632d33dd5b146103ab5780632f2ff15d146103be57806336568abe146103d157600080fd5b80630f15023b116102475780630f15023b1461031257806310e569731461032557806311a4c03a1461033c57806318160ddd14610345578063217751bc1461034d578063231005091461036057600080fd5b806301ffc9a714610284578063025e7c27146102ac578063081812fc146102d7578063095ea7b3146102ea5780630aaffd2a146102ff575b600080fd5b610297610292366004611e83565b61064a565b60405190151581526020015b60405180910390f35b6102bf6102ba366004611e47565b610681565b6040516001600160a01b0390911681526020016102a3565b6102bf6102e5366004611e47565b6106ab565b6102fd6102f8366004611e00565b610721565b005b6102fd61030d366004611d7f565b61089a565b6098546102bf906001600160a01b031681565b61032e609a5481565b6040519081526020016102a3565b61032e60995481565b609c5461032e565b609f546102bf906001600160a01b031681565b61032e6000805160206120b983398151915281565b61032e610383366004611e47565b60009081526065602052604090206001015490565b6102fd6103a6366004611d7f565b61096d565b609e546102bf906001600160a01b031681565b6102fd6103cc366004611e5f565b6109f0565b6102fd6103df366004611e5f565b610a1b565b609d546102bf906001600160a01b031681565b60975461029790600160a01b900460ff1681565b6102bf610419366004611e47565b60a3602052600090815260409020546001600160a01b031681565b610297610442366004611d7f565b610a99565b6102fd610455366004611d7f565b610ab3565b6102bf610468366004611e47565b600090815260a160205260409020546001600160a01b031690565b610297610491366004611d7f565b6001600160a01b0316600090815260a06020526040902060010154421090565b61032e6104bf366004611d7f565b610b36565b61032e609b5481565b61032e6000805160206120d983398151915281565b6102976104f0366004611e5f565b610bb5565b60a25461032e565b61032e61050b366004611d7f565b6001600160a01b0316600090815260a0602052604090205490565b6097546102bf906001600160a01b031681565b61032e600081565b6102fd61054f366004611dd3565b610be0565b6102fd610562366004611e5f565b610cbd565b610297610575366004611d7f565b610e57565b61032e610588366004611d7f565b6001600160a01b0316600090815260a0602052604090206001015490565b6102fd6105b4366004611d9b565b610e71565b6102fd6105c7366004611e5f565b610fa9565b6102976105da366004611e00565b61106c565b6102fd611165565b604051600981526020016102a3565b6102fd610604366004611d7f565b6111fa565b6102fd610617366004611e5f565b61127d565b61029761062a366004611d9b565b6112a3565b6102fd611338565b6102fd610645366004611e00565b61137d565b60006001600160e01b03198216637965db0b60e01b148061067b57506301ffc9a760e01b6001600160e01b03198316145b92915050565b60a2818154811061069157600080fd5b6000918252602090912001546001600160a01b0316905081565b600081815260a1602052604081205482906001600160a01b03166107045760405162461bcd60e51b815260206004820152600b60248201526a4e4f5f535543485f4b455960a81b60448201526064015b60405180910390fd5b5050600090815260a460205260409020546001600160a01b031690565b609754600160a01b900460ff1661074a5760405162461bcd60e51b81526004016106fb90611fdc565b80610755813361153d565b806107765750600081815260a460205260409020546001600160a01b031633145b8061079e5750600081815260a1602052604090205461079e906001600160a01b0316336112a3565b6107ea5760405162461bcd60e51b815260206004820152601c60248201527f4f4e4c595f4b45595f4d414e414745525f4f525f415050524f5645440000000060448201526064016106fb565b336001600160a01b03841614156108325760405162461bcd60e51b815260206004820152600c60248201526b20a8282927ab22afa9a2a62360a11b60448201526064016106fb565b600082815260a46020908152604080832080546001600160a01b0319166001600160a01b0388811691821790925560a1909352818420549151869492909116917f8c5be1e5ebec7d5bd14f71427d1e84f3dd0314c0f7b2291e5b200ac8c7c3b92591a4505050565b609d546001600160a01b03163314806108b757506108b733610e57565b6109035760405162461bcd60e51b815260206004820152601f60248201527f4f4e4c595f42454e45464943494152595f4f525f4c4f434b4d414e414745520060448201526064016106fb565b6001600160a01b03811661094b5760405162461bcd60e51b815260206004820152600f60248201526e494e56414c49445f4144445245535360881b60448201526064016106fb565b609d80546001600160a01b0319166001600160a01b0392909216919091179055565b6109856000805160206120d983398151915233610bb5565b6109a15760405162461bcd60e51b81526004016106fb90611f87565b6109b96000805160206120b98339815191528261127d565b6040516001600160a01b038216907f766f6199fea59554b9ff688e413302b9200f85d74811c053c12d945ac6d8dd7a90600090a250565b600082815260656020526040902060010154610a0c81336115b3565b610a168383611617565b505050565b6001600160a01b0381163314610a8b5760405162461bcd60e51b815260206004820152602f60248201527f416363657373436f6e74726f6c3a2063616e206f6e6c792072656e6f756e636560448201526e103937b632b9903337b91039b2b63360891b60648201526084016106fb565b610a95828261169d565b5050565b600061067b6000805160206120b983398151915283610bb5565b610acb6000805160206120d983398151915233610bb5565b610ae75760405162461bcd60e51b81526004016106fb90611f87565b610aff6000805160206120b9833981519152826109f0565b6040516001600160a01b038216907f684f8a71407db0c334454ebe9c9b288549317893a20b10dc779ec5c118dcd12190600090a250565b60006001600160a01b038216610b805760405162461bcd60e51b815260206004820152600f60248201526e494e56414c49445f4144445245535360881b60448201526064016106fb565b6001600160a01b038216600090815260a060205260409020600101544210610ba9576000610bac565b60015b60ff1692915050565b60009182526065602090815260408084206001600160a01b0393909316845291905290205460ff1690565b609754600160a01b900460ff16610c095760405162461bcd60e51b81526004016106fb90611fdc565b6001600160a01b038216331415610c515760405162461bcd60e51b815260206004820152600c60248201526b20a8282927ab22afa9a2a62360a11b60448201526064016106fb565b33600081815260a5602090815260408083206001600160a01b03871680855290835292819020805460ff191686151590811790915590519081529192917f17307eab39ab6107e8899845ad3d59bd9653f200f220920489ca2b5937696c31910160405180910390a35050565b610cd56000805160206120d983398151915233610bb5565b610cf15760405162461bcd60e51b81526004016106fb90611f87565b609754600160a01b900460ff16610d1a5760405162461bcd60e51b81526004016106fb90611fdc565b609a546097546001600160a01b039081169083161580610daa57506000836001600160a01b03166318160ddd6040518163ffffffff1660e01b815260040160206040518083038186803b158015610d7057600080fd5b505afa158015610d84573d6000803e3d6000fd5b505050506040513d601f19601f82011682018060405250810190610da89190611eab565b115b610de65760405162461bcd60e51b815260206004820152600d60248201526c24a72b20a624a22faa27a5a2a760991b60448201526064016106fb565b609a849055609780546001600160a01b0319166001600160a01b0385811691821790925560408051858152602081018890529284169083015260608201527f3615065ccf48367ac483ac86701248e2e5ff55bdd9be845007d34a3b68d719d49060800160405180910390a150505050565b600061067b6000805160206120d983398151915283610bb5565b610e896000805160206120d983398151915233610bb5565b610ea55760405162461bcd60e51b81526004016106fb90611f87565b6001600160a01b0382161580610ec457506001600160a01b0382163b15155b610f105760405162461bcd60e51b815260206004820152601860248201527f494e56414c49445f4f4e5f4b45595f534f4c445f484f4f4b000000000000000060448201526064016106fb565b6001600160a01b0381161580610f2f57506001600160a01b0381163b15155b610f7b5760405162461bcd60e51b815260206004820152601a60248201527f494e56414c49445f4f4e5f4b45595f43414e43454c5f484f4f4b00000000000060448201526064016106fb565b609e80546001600160a01b039384166001600160a01b031991821617909155609f8054929093169116179055565b600082815260a1602052604090205482906001600160a01b0316610ffd5760405162461bcd60e51b815260206004820152600b60248201526a4e4f5f535543485f4b455960a81b60448201526064016106fb565b611007833361153d565b80611016575061101633610e57565b6110625760405162461bcd60e51b815260206004820152601f60248201527f554e415554484f52495a45445f4b45595f4d414e414745525f5550444154450060448201526064016106fb565b610a168383611704565b600061107733610e57565b8061108c5750609d546001600160a01b031633145b6110d85760405162461bcd60e51b815260206004820181905260248201527f4f4e4c595f4c4f434b5f4d414e414745525f4f525f42454e454649434941525960448201526064016106fb565b60975460405163095ea7b360e01b81526001600160a01b038581166004830152602482018590529091169063095ea7b390604401602060405180830381600087803b15801561112657600080fd5b505af115801561113a573d6000803e3d6000fd5b505050506040513d601f19601f8201168201806040525081019061115e9190611e2b565b9392505050565b61117d6000805160206120d983398151915233610bb5565b6111995760405162461bcd60e51b81526004016106fb90611f87565b609754600160a01b900460ff166111c25760405162461bcd60e51b81526004016106fb90611fdc565b6040517f25a311358326fb18c62efc24bc28d3126acee8d2a67fd8b2145b757dc8bd1bc190600090a16097805460ff60a01b19169055565b6112126000805160206120d983398151915233610bb5565b61122e5760405162461bcd60e51b81526004016106fb90611f87565b6112466000805160206120d9833981519152826109f0565b6040516001600160a01b038216907f91d5c045d5bd98bf59a379b259ebca05b93bf79af1845fdf87e3172385d4c7f790600090a250565b60008281526065602052604090206001015461129981336115b3565b610a16838361169d565b6001600160a01b03808316600090815260a0602090815260408083205480845260a3909252822054919290911680611306575050506001600160a01b03808316600090815260a5602090815260408083209385168352929052205460ff1661067b565b6001600160a01b03908116600090815260a5602090815260408083209387168352929052205460ff16915061067b9050565b6113506000805160206120d983398151915233610a1b565b60405133907f42885193b8178d25fca25a38e6fcc93918501e91be06d85e0c8afb3bad95238090600090a2565b61138633610e57565b8061139b5750609d546001600160a01b031633145b6113e75760405162461bcd60e51b815260206004820181905260248201527f4f4e4c595f4c4f434b5f4d414e414745525f4f525f42454e454649434941525960448201526064016106fb565b60006001600160a01b0383166113fe575047611478565b6040516370a0823160e01b81523060048201526001600160a01b038416906370a082319060240160206040518083038186803b15801561143d57600080fd5b505afa158015611451573d6000803e3d6000fd5b505050506040513d601f19601f820116820180604052508101906114759190611eab565b90505b600082158061148657508183115b156114d557600082116114ce5760405162461bcd60e51b815260206004820152601060248201526f4e4f545f454e4f5547485f46554e445360801b60448201526064016106fb565b50806114d8565b50815b609d546040518281526001600160a01b039182169186169033907f342e7ff505a8a0364cd0dc2ff195c315e43bce86b204846ecd36913e117b109e9060200160405180910390a4609d546115379085906001600160a01b031683611786565b50505050565b600082815260a360205260408120546001600160a01b038381169116148061159e5750600083815260a360205260409020546001600160a01b031615801561159e5750600083815260a160205260409020546001600160a01b038381169116145b156115ab5750600161067b565b50600061067b565b6115bd8282610bb5565b610a95576115d5816001600160a01b031660146117c2565b6115e08360206117c2565b6040516020016115f1929190611edf565b60408051601f198184030181529082905262461bcd60e51b82526106fb91600401611f54565b6116218282610bb5565b610a955760008281526065602090815260408083206001600160a01b03851684529091529020805460ff191660011790556116593390565b6001600160a01b0316816001600160a01b0316837f2f8788117e7eff1d82e926ec794901d17c78024a50270940304540a733656f0d60405160405180910390a45050565b6116a78282610bb5565b15610a955760008281526065602090815260408083206001600160a01b0385168085529252808320805460ff1916905551339285917ff6391f5c32d9c69d2a47ea670b442974b53935d1edc7fd64eb21e047a839171b9190a45050565b600082815260a360205260409020546001600160a01b03828116911614610a9557600082815260a36020526040902080546001600160a01b0319166001600160a01b038316179055611755826119a4565b60405160009083907f9d2895c45a420624de863a2f437b022d879f457bf7a829044055a10c5a6fd5e3908390a35050565b8015610a16576001600160a01b0383166117ad57610a166001600160a01b038316826119e1565b826115376001600160a01b0382168484611afa565b606060006117d183600261201d565b6117dc906002612005565b67ffffffffffffffff81111561180257634e487b7160e01b600052604160045260246000fd5b6040519080825280601f01601f19166020018201604052801561182c576020820181803683370190505b509050600360fc1b8160008151811061185557634e487b7160e01b600052603260045260246000fd5b60200101906001600160f81b031916908160001a905350600f60fb1b8160018151811061189257634e487b7160e01b600052603260045260246000fd5b60200101906001600160f81b031916908160001a90535060006118b684600261201d565b6118c1906001612005565b90505b6001811115611955576f181899199a1a9b1b9c1cb0b131b232b360811b85600f166010811061190357634e487b7160e01b600052603260045260246000fd5b1a60f81b82828151811061192757634e487b7160e01b600052603260045260246000fd5b60200101906001600160f81b031916908160001a90535060049490941c9361194e81612068565b90506118c4565b50831561115e5760405162461bcd60e51b815260206004820181905260248201527f537472696e67733a20686578206c656e67746820696e73756666696369656e7460448201526064016106fb565b600081815260a460205260409020546001600160a01b0316156119de57600081815260a46020526040902080546001600160a01b03191690555b50565b80471015611a315760405162461bcd60e51b815260206004820152601d60248201527f416464726573733a20696e73756666696369656e742062616c616e636500000060448201526064016106fb565b6000826001600160a01b03168260405160006040518083038185875af1925050503d8060008114611a7e576040519150601f19603f3d011682016040523d82523d6000602084013e611a83565b606091505b5050905080610a165760405162461bcd60e51b815260206004820152603a60248201527f416464726573733a20756e61626c6520746f2073656e642076616c75652c207260448201527f6563697069656e74206d6179206861766520726576657274656400000000000060648201526084016106fb565b604080516001600160a01b03848116602483015260448083018590528351808403909101815260649092018352602080830180516001600160e01b031663a9059cbb60e01b17905283518085019094528084527f5361666545524332303a206c6f772d6c6576656c2063616c6c206661696c656490840152610a1692869291600091611b8a918516908490611c07565b805190915015610a165780806020019051810190611ba89190611e2b565b610a165760405162461bcd60e51b815260206004820152602a60248201527f5361666545524332303a204552433230206f7065726174696f6e20646964206e6044820152691bdd081cdd58d8d9595960b21b60648201526084016106fb565b6060611c168484600085611c1e565b949350505050565b606082471015611c7f5760405162461bcd60e51b815260206004820152602660248201527f416464726573733a20696e73756666696369656e742062616c616e636520666f6044820152651c8818d85b1b60d21b60648201526084016106fb565b843b611ccd5760405162461bcd60e51b815260206004820152601d60248201527f416464726573733a2063616c6c20746f206e6f6e2d636f6e747261637400000060448201526064016106fb565b600080866001600160a01b03168587604051611ce99190611ec3565b60006040518083038185875af1925050503d8060008114611d26576040519150601f19603f3d011682016040523d82523d6000602084013e611d2b565b606091505b5091509150611d3b828286611d46565b979650505050505050565b60608315611d5557508161115e565b825115611d655782518084602001fd5b8160405162461bcd60e51b81526004016106fb9190611f54565b600060208284031215611d90578081fd5b813561115e81612095565b60008060408385031215611dad578081fd5b8235611db881612095565b91506020830135611dc881612095565b809150509250929050565b60008060408385031215611de5578182fd5b8235611df081612095565b91506020830135611dc8816120aa565b60008060408385031215611e12578182fd5b8235611e1d81612095565b946020939093013593505050565b600060208284031215611e3c578081fd5b815161115e816120aa565b600060208284031215611e58578081fd5b5035919050565b60008060408385031215611e71578182fd5b823591506020830135611dc881612095565b600060208284031215611e94578081fd5b81356001600160e01b03198116811461115e578182fd5b600060208284031215611ebc578081fd5b5051919050565b60008251611ed581846020870161203c565b9190910192915050565b7f416363657373436f6e74726f6c3a206163636f756e7420000000000000000000815260008351611f1781601785016020880161203c565b7001034b99036b4b9b9b4b733903937b6329607d1b6017918401918201528351611f4881602884016020880161203c565b01602801949350505050565b6020815260008251806020840152611f7381604085016020870161203c565b601f01601f19169190910160400192915050565b60208082526035908201527f4d6978696e526f6c65733a2063616c6c657220646f6573206e6f74206861766560408201527420746865204c6f636b4d616e6167657220726f6c6560581b606082015260800190565b6020808252600f908201526e1313d0d2d7d11154149150d0551151608a1b604082015260600190565b600082198211156120185761201861207f565b500190565b60008160001904831182151516156120375761203761207f565b500290565b60005b8381101561205757818101518382015260200161203f565b838111156115375750506000910152565b6000816120775761207761207f565b506000190190565b634e487b7160e01b600052601160045260246000fd5b6001600160a01b03811681146119de57600080fd5b80151581146119de57600080fdfeb309c40027c81d382c3b58d8de24207a34b27e1db369b1434e4a11311f154b5eb89cdd26cddd51301940bf2715f765b626b8a5a9e2681ac62dc83cc2db2530c0a26469706673582212206ed8ff2ec6817e9dbeee8a8f7ce44fe7e131297a382d83fd64f055b0c209c1ed64736f6c63430008040033",
  "linkReferences": {},
  "deployedLinkReferences": {}
}