{
  "_format": "hh-sol-artifact-1",
  "contractName": "UniswapV3SparkleEligibility",
  "sourceName": "contracts/solidity/eligibility/UniswapV3SparkleEligibility.sol",
  "abi": [
    {
      "anonymous": false,
      "inputs": [],
      "name": "NFTXEligibilityInit",
      "type": "event"
    },
    {
      "anonymous": false,
      "inputs": [
        {
          "indexed": true,
          "internalType": "address",
          "name": "previousOwner",
          "type": "address"
        },
        {
          "indexed": true,
          "internalType": "address",
          "name": "newOwner",
          "type": "address"
        }
      ],
      "name": "OwnershipTransferred",
      "type": "event"
    },
    {
      "anonymous": false,
      "inputs": [
        {
          "indexed": false,
          "internalType": "address[]",
          "name": "poolsAdded",
          "type": "address[]"
        }
      ],
      "name": "PoolsAdded",
      "type": "event"
    },
    {
      "inputs": [
        {
          "internalType": "address[]",
          "name": "_validPools",
          "type": "address[]"
        },
        {
          "internalType": "address",
          "name": "_owner",
          "type": "address"
        }
      ],
      "name": "__NFTXEligibility_init",
      "outputs": [],
      "stateMutability": "nonpayable",
      "type": "function"
    },
    {
      "inputs": [
        {
          "internalType": "bytes",
          "name": "configData",
          "type": "bytes"
        }
      ],
      "name": "__NFTXEligibility_init_bytes",
      "outputs": [],
      "stateMutability": "nonpayable",
      "type": "function"
    },
    {
      "inputs": [
        {
          "internalType": "address[]",
          "name": "newPools",
          "type": "address[]"
        }
      ],
      "name": "addValidPools",
      "outputs": [],
      "stateMutability": "nonpayable",
      "type": "function"
    },
    {
      "inputs": [
        {
          "internalType": "uint256[]",
          "name": "tokenIds",
          "type": "uint256[]"
        }
      ],
      "name": "afterMintHook",
      "outputs": [],
      "stateMutability": "nonpayable",
      "type": "function"
    },
    {
      "inputs": [
        {
          "internalType": "uint256[]",
          "name": "tokenIds",
          "type": "uint256[]"
        }
      ],
      "name": "afterRedeemHook",
      "outputs": [],
      "stateMutability": "nonpayable",
      "type": "function"
    },
    {
      "inputs": [
        {
          "internalType": "uint256[]",
          "name": "tokenIds",
          "type": "uint256[]"
        }
      ],
      "name": "beforeMintHook",
      "outputs": [],
      "stateMutability": "nonpayable",
      "type": "function"
    },
    {
      "inputs": [
        {
          "internalType": "uint256[]",
          "name": "tokenIds",
          "type": "uint256[]"
        }
      ],
      "name": "beforeRedeemHook",
      "outputs": [],
      "stateMutability": "nonpayable",
      "type": "function"
    },
    {
      "inputs": [
        {
          "internalType": "uint256[]",
          "name": "tokenIds",
          "type": "uint256[]"
        }
      ],
      "name": "checkAllEligible",
      "outputs": [
        {
          "internalType": "bool",
          "name": "",
          "type": "bool"
        }
      ],
      "stateMutability": "view",
      "type": "function"
    },
    {
      "inputs": [
        {
          "internalType": "uint256[]",
          "name": "tokenIds",
          "type": "uint256[]"
        }
      ],
      "name": "checkAllIneligible",
      "outputs": [
        {
          "internalType": "bool",
          "name": "",
          "type": "bool"
        }
      ],
      "stateMutability": "view",
      "type": "function"
    },
    {
      "inputs": [
        {
          "internalType": "uint256[]",
          "name": "tokenIds",
          "type": "uint256[]"
        }
      ],
      "name": "checkEligible",
      "outputs": [
        {
          "internalType": "bool[]",
          "name": "",
          "type": "bool[]"
        }
      ],
      "stateMutability": "view",
      "type": "function"
    },
    {
      "inputs": [
        {
          "internalType": "uint256",
          "name": "tokenId",
          "type": "uint256"
        }
      ],
      "name": "checkIsEligible",
      "outputs": [
        {
          "internalType": "bool",
          "name": "",
          "type": "bool"
        }
      ],
      "stateMutability": "view",
      "type": "function"
    },
    {
      "inputs": [],
      "name": "finalized",
      "outputs": [
        {
          "internalType": "bool",
          "name": "",
          "type": "bool"
        }
      ],
      "stateMutability": "view",
      "type": "function"
    },
    {
      "inputs": [],
      "name": "isInitialized",
      "outputs": [
        {
          "internalType": "bool",
          "name": "",
          "type": "bool"
        }
      ],
      "stateMutability": "view",
      "type": "function"
    },
    {
      "inputs": [],
      "name": "name",
      "outputs": [
        {
          "internalType": "string",
          "name": "",
          "type": "string"
        }
      ],
      "stateMutability": "pure",
      "type": "function"
    },
    {
      "inputs": [],
      "name": "owner",
      "outputs": [
        {
          "internalType": "address",
          "name": "",
          "type": "address"
        }
      ],
      "stateMutability": "view",
      "type": "function"
    },
    {
      "inputs": [],
      "name": "positionManager",
      "outputs": [
        {
          "internalType": "address",
          "name": "",
          "type": "address"
        }
      ],
      "stateMutability": "view",
      "type": "function"
    },
    {
      "inputs": [],
      "name": "renounceOwnership",
      "outputs": [],
      "stateMutability": "nonpayable",
      "type": "function"
    },
    {
      "inputs": [],
      "name": "targetAsset",
      "outputs": [
        {
          "internalType": "address",
          "name": "",
          "type": "address"
        }
      ],
      "stateMutability": "pure",
      "type": "function"
    },
    {
      "inputs": [
        {
          "internalType": "address",
          "name": "newOwner",
          "type": "address"
        }
      ],
      "name": "transferOwnership",
      "outputs": [],
      "stateMutability": "nonpayable",
      "type": "function"
    },
    {
      "inputs": [
        {
          "internalType": "address",
          "name": "",
          "type": "address"
        }
      ],
      "name": "validPools",
      "outputs": [
        {
          "internalType": "bool",
          "name": "",
          "type": "bool"
        }
      ],
      "stateMutability": "view",
      "type": "function"
    }
  ],
  "bytecode": "0x608060405234801561001057600080fd5b5061173d806100206000396000f3fe608060405234801561001057600080fd5b506004361061016c5760003560e01c8063791b98bc116100cd578063b3f05b9711610081578063ca373f2811610066578063ca373f28146102e3578063d2a096e8146102f6578063f2fde38b1461030957600080fd5b8063b3f05b97146102db578063bd8affde146101b957600080fd5b80638da5cb5b116100b25780638da5cb5b1461029457806393368fdf146102a55780639b524e1f146102c857600080fd5b8063791b98bc1461026657806384ca9f851461028157600080fd5b80634998b7f3116101245780636c47d595116101095780636c47d595146101b95780636cd912601461023e578063715018a61461025e57600080fd5b80634998b7f31461022b5780635e2f9b52146101b957600080fd5b8063392e53cd11610155578063392e53cd146101cd5780633a893273146101ea5780633d4403ac146101fd57600080fd5b806306fdde031461017157806336eb0862146101b9575b600080fd5b604080518082018252601081527f556e69737761705633537061726b6c6500000000000000000000000000000000602082015290516101b09190611595565b60405180910390f35b6101cb6101c736600461131a565b5050565b005b6065546101da9060ff1681565b60405190151581526020016101b0565b6101cb6101f83660046111e1565b61031c565b73c36442b4a4522e871399cd717abdd847ab11fe885b6040516001600160a01b0390911681526020016101b0565b6101cb61023936600461138a565b61042c565b61025161024c36600461131a565b610506565b6040516101b0919061155b565b6101cb6105e3565b61021373c36442b4a4522e871399cd717abdd847ab11fe8881565b6101da61028f36600461131a565b610694565b6033546001600160a01b0316610213565b6101da6102b33660046111a2565b60666020526000908152604090205460ff1681565b6101cb6102d636600461121c565b6106ed565b6101da6107f2565b6101da6102f136600461131a565b610826565b6101da610304366004611417565b610876565b6101cb6103173660046111a2565b610881565b6033546001600160a01b0316331461037b5760405162461bcd60e51b815260206004820181905260248201527f4f776e61626c653a2063616c6c6572206973206e6f7420746865206f776e657260448201526064015b60405180910390fd5b60005b81518110156103f1576001606660008484815181106103ad57634e487b7160e01b600052603260045260246000fd5b6020908102919091018101516001600160a01b03168252810191909152604001600020805460ff1916911515919091179055806103e9816116ab565b91505061037e565b507f9af2f49f0fe48e38ec4cd4438b994734c1e8051ec41e556337eb2fd61bf58d2681604051610421919061150e565b60405180910390a150565b600054610100900460ff1680610445575060005460ff16155b6104a85760405162461bcd60e51b815260206004820152602e60248201527f496e697469616c697a61626c653a20636f6e747261637420697320616c72656160448201526d191e481a5b9a5d1a585b1a5e995960921b6064820152608401610372565b600054610100900460ff161580156104ca576000805461ffff19166101011790555b600080838060200190518101906104e1919061126c565b915091506104ef82826106ed565b505080156101c7576000805461ff00191690555050565b606060008267ffffffffffffffff81111561053157634e487b7160e01b600052604160045260246000fd5b60405190808252806020026020018201604052801561055a578160200160208202803683370190505b50905060005b838110156105d95761059785858381811061058b57634e487b7160e01b600052603260045260246000fd5b905060200201356109c0565b8282815181106105b757634e487b7160e01b600052603260045260246000fd5b91151560209283029190910190910152806105d1816116ab565b915050610560565b5090505b92915050565b6033546001600160a01b0316331461063d5760405162461bcd60e51b815260206004820181905260248201527f4f776e61626c653a2063616c6c6572206973206e6f7420746865206f776e65726044820152606401610372565b6033546040516000916001600160a01b0316907f8be0079c531659141344cd1fd0a4f28419497f9722a3daafe3b4186f6b6457e0908390a36033805473ffffffffffffffffffffffffffffffffffffffff19169055565b6000805b828110156106e3576106c384848381811061058b57634e487b7160e01b600052603260045260246000fd5b6106d15760009150506105dd565b806106db816116ab565b915050610698565b5060019392505050565b600054610100900460ff1680610706575060005460ff16155b6107695760405162461bcd60e51b815260206004820152602e60248201527f496e697469616c697a61626c653a20636f6e747261637420697320616c72656160448201526d191e481a5b9a5d1a585b1a5e995960921b6064820152608401610372565b600054610100900460ff1615801561078b576000805461ffff19166101011790555b610793610be2565b6065805460ff191660011790556107a98361031c565b6040517fb708568a0e67d40b1324a610ddd779500570f113513f944a791cc7b8b4970dec90600090a16107db82610881565b80156107ed576000805461ff00191690555b505050565b60655460009060ff168015610821575060006108166033546001600160a01b031690565b6001600160a01b0316145b905090565b6000805b828110156106e35761085584848381811061058b57634e487b7160e01b600052603260045260246000fd5b156108645760009150506105dd565b8061086e816116ab565b91505061082a565b60006105dd826109c0565b6033546001600160a01b031633146108db5760405162461bcd60e51b815260206004820181905260248201527f4f776e61626c653a2063616c6c6572206973206e6f7420746865206f776e65726044820152606401610372565b6001600160a01b0381166109575760405162461bcd60e51b815260206004820152602660248201527f4f776e61626c653a206e6577206f776e657220697320746865207a65726f206160448201527f64647265737300000000000000000000000000000000000000000000000000006064820152608401610372565b6033546040516001600160a01b038084169216907f8be0079c531659141344cd1fd0a4f28419497f9722a3daafe3b4186f6b6457e090600090a36033805473ffffffffffffffffffffffffffffffffffffffff19166001600160a01b0392909216919091179055565b600080600080600080600073c36442b4a4522e871399cd717abdd847ab11fe886001600160a01b03166399fbab88896040518263ffffffff1660e01b8152600401610a0d91815260200190565b6101806040518083038186803b158015610a2657600080fd5b505afa158015610a3a573d6000803e3d6000fd5b505050506040513d601f19601f82011682018060405250810190610a5e919061142f565b9b509b5050509950505097509750975050506000836fffffffffffffffffffffffffffffffff166000148015610aa457506fffffffffffffffffffffffffffffffff8316155b8015610ac057506fffffffffffffffffffffffffffffffff8216155b905080610ad65750600098975050505050505050565b6000610b9773c36442b4a4522e871399cd717abdd847ab11fe886001600160a01b031663c45a01556040518163ffffffff1660e01b815260040160206040518083038186803b158015610b2857600080fd5b505afa158015610b3c573d6000803e3d6000fd5b505050506040513d601f19601f82011682018060405250810190610b6091906111c5565b60405180606001604052808b6001600160a01b031681526020018a6001600160a01b031681526020018962ffffff16815250610ca5565b6001600160a01b03811660009081526066602052604090205490915060ff16610bca575060009998505050505050505050565b610bd48a82610da6565b9a9950505050505050505050565b600054610100900460ff1680610bfb575060005460ff16155b610c5e5760405162461bcd60e51b815260206004820152602e60248201527f496e697469616c697a61626c653a20636f6e747261637420697320616c72656160448201526d191e481a5b9a5d1a585b1a5e995960921b6064820152608401610372565b600054610100900460ff16158015610c80576000805461ffff19166101011790555b610c88610e25565b610c90610ed6565b8015610ca2576000805461ff00191690555b50565b600081602001516001600160a01b031682600001516001600160a01b031610610ccd57600080fd5b815160208084015160408086015181516001600160a01b0395861681860152949092168482015262ffffff90911660608085019190915281518085038201815260808501909252815191909201207fff0000000000000000000000000000000000000000000000000000000000000060a08401529085901b6bffffffffffffffffffffffff191660a183015260b58201527fe34f199b19b2b4f47f68442619d555527d244f78a3297ea89325f843f87b8b5460d582015260f50160408051601f1981840301815291905280516020909101209392505050565b6000808383604051602001610dd792919091825260601b6bffffffffffffffffffffffff1916602082015260340190565b604051602081830303815290604052805190602001209050610df884610fd8565b610e03906002611682565b610e0e90600161163d565b610e1d9060ff16600019611662565b119392505050565b600054610100900460ff1680610e3e575060005460ff16155b610ea15760405162461bcd60e51b815260206004820152602e60248201527f496e697469616c697a61626c653a20636f6e747261637420697320616c72656160448201526d191e481a5b9a5d1a585b1a5e995960921b6064820152608401610372565b600054610100900460ff16158015610c90576000805461ffff19166101011790558015610ca2576000805461ff001916905550565b600054610100900460ff1680610eef575060005460ff16155b610f525760405162461bcd60e51b815260206004820152602e60248201527f496e697469616c697a61626c653a20636f6e747261637420697320616c72656160448201526d191e481a5b9a5d1a585b1a5e995960921b6064820152608401610372565b600054610100900460ff16158015610f74576000805461ffff19166101011790555b6033805473ffffffffffffffffffffffffffffffffffffffff19163390811790915560405181906000907f8be0079c531659141344cd1fd0a4f28419497f9722a3daafe3b4186f6b6457e0908290a3508015610ca2576000805461ff001916905550565b6000808211610fe657600080fd5b700100000000000000000000000000000000821061101157608091821c9161100e908261163d565b90505b68010000000000000000821061103457604091821c91611031908261163d565b90505b640100000000821061105357602091821c91611050908261163d565b90505b62010000821061107057601091821c9161106d908261163d565b90505b610100821061108c57600891821c91611089908261163d565b90505b601082106110a757600491821c916110a4908261163d565b90505b600482106110c257600291821c916110bf908261163d565b90505b600282106110d5576105dd60018261163d565b919050565b80516110d5816116f2565b600082601f8301126110f5578081fd5b8135602061110a61110583611619565b6115e8565b80838252828201915082860187848660051b8901011115611129578586fd5b855b8581101561115057813561113e816116f2565b8452928401929084019060010161112b565b5090979650505050505050565b8051600281900b81146110d557600080fd5b80516fffffffffffffffffffffffffffffffff811681146110d557600080fd5b805162ffffff811681146110d557600080fd5b6000602082840312156111b3578081fd5b81356111be816116f2565b9392505050565b6000602082840312156111d6578081fd5b81516111be816116f2565b6000602082840312156111f2578081fd5b813567ffffffffffffffff811115611208578182fd5b611214848285016110e5565b949350505050565b6000806040838503121561122e578081fd5b823567ffffffffffffffff811115611244578182fd5b611250858286016110e5565b9250506020830135611261816116f2565b809150509250929050565b6000806040838503121561127e578182fd5b825167ffffffffffffffff811115611294578283fd5b8301601f810185136112a4578283fd5b805160206112b461110583611619565b80838252828201915082850189848660051b88010111156112d3578788fd5b8795505b848610156112fe5780516112ea816116f2565b8352600195909501949183019183016112d7565b50955061130e90508682016110da565b93505050509250929050565b6000806020838503121561132c578182fd5b823567ffffffffffffffff80821115611343578384fd5b818501915085601f830112611356578384fd5b813581811115611364578485fd5b8660208260051b8501011115611378578485fd5b60209290920196919550909350505050565b6000602080838503121561139c578182fd5b823567ffffffffffffffff808211156113b3578384fd5b818501915085601f8301126113c6578384fd5b8135818111156113d8576113d86116dc565b6113ea601f8201601f191685016115e8565b915080825286848285010111156113ff578485fd5b80848401858401378101909201929092529392505050565b600060208284031215611428578081fd5b5035919050565b6000806000806000806000806000806000806101808d8f031215611451578788fd5b8c516bffffffffffffffffffffffff8116811461146c578889fd5b9b5061147a60208e016110da565b9a5061148860408e016110da565b995061149660608e016110da565b98506114a460808e0161118f565b97506114b260a08e0161115d565b96506114c060c08e0161115d565b95506114ce60e08e0161116f565b94506101008d015193506101208d015192506114ed6101408e0161116f565b91506114fc6101608e0161116f565b90509295989b509295989b509295989b565b6020808252825182820181905260009190848201906040850190845b8181101561154f5783516001600160a01b03168352928401929184019160010161152a565b50909695505050505050565b6020808252825182820181905260009190848201906040850190845b8181101561154f578351151583529284019291840191600101611577565b6000602080835283518082850152825b818110156115c1578581018301518582016040015282016115a5565b818111156115d25783604083870101525b50601f01601f1916929092016040019392505050565b604051601f8201601f1916810167ffffffffffffffff81118282101715611611576116116116dc565b604052919050565b600067ffffffffffffffff821115611633576116336116dc565b5060051b60200190565b600060ff821660ff84168060ff0382111561165a5761165a6116c6565b019392505050565b60008261167d57634e487b7160e01b81526012600452602481fd5b500490565b600060ff821660ff84168160ff04811182151516156116a3576116a36116c6565b029392505050565b60006000198214156116bf576116bf6116c6565b5060010190565b634e487b7160e01b600052601160045260246000fd5b634e487b7160e01b600052604160045260246000fd5b6001600160a01b0381168114610ca257600080fdfea264697066735822122001bf0ec0e48a37c712c91e8dbc575558e8a077ec2a97e3ce3e8d6bbf9de17a2864736f6c63430008040033",
  "linkReferences": {},
  "deployedLinkReferences": {}
}