{"abi":[{"type":"function","name":"CONTRACT_GOVERNANCE_ROLE","inputs":[],"outputs":[{"name":"","type":"bytes32","internalType":"bytes32"}],"stateMutability":"view"},{"type":"function","name":"KEEPER_ROLE","inputs":[],"outputs":[{"name":"","type":"bytes32","internalType":"bytes32"}],"stateMutability":"view"},{"type":"function","name":"MAX_BPS","inputs":[],"outputs":[{"name":"","type":"uint256","internalType":"uint256"}],"stateMutability":"view"},{"type":"function","name":"PAUSER_ROLE","inputs":[],"outputs":[{"name":"","type":"bytes32","internalType":"bytes32"}],"stateMutability":"view"},{"type":"function","name":"POLICY_OPERATIONS_ROLE","inputs":[],"outputs":[{"name":"","type":"bytes32","internalType":"bytes32"}],"stateMutability":"view"},{"type":"function","name":"TREASURY_OPERATIONS_ROLE","inputs":[],"outputs":[{"name":"","type":"bytes32","internalType":"bytes32"}],"stateMutability":"view"},{"type":"function","name":"TREASURY_VAULT_ROLE","inputs":[],"outputs":[{"name":"","type":"bytes32","internalType":"bytes32"}],"stateMutability":"view"},{"type":"function","name":"UNPAUSER_ROLE","inputs":[],"outputs":[{"name":"","type":"bytes32","internalType":"bytes32"}],"stateMutability":"view"},{"type":"function","name":"__GlobalAccessControlManaged_init","inputs":[{"name":"_globalAccessControl","type":"address","internalType":"address"}],"outputs":[],"stateMutability":"nonpayable"},{"type":"function","name":"asset","inputs":[],"outputs":[{"name":"","type":"address","internalType":"contract IERC20"}],"stateMutability":"view"},{"type":"function","name":"assetDecimalsNormalizationValue","inputs":[],"outputs":[{"name":"","type":"uint256","internalType":"uint256"}],"stateMutability":"view"},{"type":"function","name":"citadel","inputs":[],"outputs":[{"name":"","type":"address","internalType":"contract IERC20"}],"stateMutability":"view"},{"type":"function","name":"citadelPriceFlag","inputs":[],"outputs":[{"name":"","type":"bool","internalType":"bool"}],"stateMutability":"view"},{"type":"function","name":"citadelPriceInAsset","inputs":[],"outputs":[{"name":"","type":"uint256","internalType":"uint256"}],"stateMutability":"view"},{"type":"function","name":"citadelPriceInAssetOracle","inputs":[],"outputs":[{"name":"","type":"address","internalType":"address"}],"stateMutability":"view"},{"type":"function","name":"claimAssetToTreasury","inputs":[],"outputs":[],"stateMutability":"nonpayable"},{"type":"function","name":"clearCitadelPriceFlag","inputs":[],"outputs":[],"stateMutability":"nonpayable"},{"type":"function","name":"deposit","inputs":[{"name":"_assetAmountIn","type":"uint256","internalType":"uint256"},{"name":"_minCitadelOut","type":"uint256","internalType":"uint256"}],"outputs":[{"name":"citadelAmount_","type":"uint256","internalType":"uint256"}],"stateMutability":"nonpayable"},{"type":"function","name":"funding","inputs":[],"outputs":[{"name":"discount","type":"uint256","internalType":"uint256"},{"name":"minDiscount","type":"uint256","internalType":"uint256"},{"name":"maxDiscount","type":"uint256","internalType":"uint256"},{"name":"discountManager","type":"address","internalType":"address"},{"name":"assetCumulativeFunded","type":"uint256","internalType":"uint256"},{"name":"assetCap","type":"uint256","internalType":"uint256"}],"stateMutability":"view"},{"type":"function","name":"gac","inputs":[],"outputs":[{"name":"","type":"address","internalType":"contract IGac"}],"stateMutability":"view"},{"type":"function","name":"getAmountOut","inputs":[{"name":"_assetAmountIn","type":"uint256","internalType":"uint256"}],"outputs":[{"name":"citadelAmount_","type":"uint256","internalType":"uint256"}],"stateMutability":"view"},{"type":"function","name":"getDiscount","inputs":[],"outputs":[{"name":"","type":"uint256","internalType":"uint256"}],"stateMutability":"view"},{"type":"function","name":"getFundingParams","inputs":[],"outputs":[{"name":"","type":"tuple","internalType":"struct Funding.FundingParams","components":[{"name":"discount","type":"uint256","internalType":"uint256"},{"name":"minDiscount","type":"uint256","internalType":"uint256"},{"name":"maxDiscount","type":"uint256","internalType":"uint256"},{"name":"discountManager","type":"address","internalType":"address"},{"name":"assetCumulativeFunded","type":"uint256","internalType":"uint256"},{"name":"assetCap","type":"uint256","internalType":"uint256"}]}],"stateMutability":"view"},{"type":"function","name":"getRemainingFundable","inputs":[],"outputs":[{"name":"limitLeft_","type":"uint256","internalType":"uint256"}],"stateMutability":"view"},{"type":"function","name":"getStakedCitadelAmountOut","inputs":[{"name":"_assetAmountIn","type":"uint256","internalType":"uint256"}],"outputs":[{"name":"xCitadelAmount_","type":"uint256","internalType":"uint256"}],"stateMutability":"view"},{"type":"function","name":"initialize","inputs":[{"name":"_gac","type":"address","internalType":"address"},{"name":"_citadel","type":"address","internalType":"address"},{"name":"_asset","type":"address","internalType":"address"},{"name":"_xCitadel","type":"address","internalType":"address"},{"name":"_saleRecipient","type":"address","internalType":"address"},{"name":"_citadelPriceInAssetOracle","type":"address","internalType":"address"},{"name":"_assetCap","type":"uint256","internalType":"uint256"}],"outputs":[],"stateMutability":"nonpayable"},{"type":"function","name":"maxCitadelPriceInAsset","inputs":[],"outputs":[{"name":"","type":"uint256","internalType":"uint256"}],"stateMutability":"view"},{"type":"function","name":"minCitadelPriceInAsset","inputs":[],"outputs":[{"name":"","type":"uint256","internalType":"uint256"}],"stateMutability":"view"},{"type":"function","name":"pause","inputs":[],"outputs":[],"stateMutability":"nonpayable"},{"type":"function","name":"paused","inputs":[],"outputs":[{"name":"","type":"bool","internalType":"bool"}],"stateMutability":"view"},{"type":"function","name":"saleRecipient","inputs":[],"outputs":[{"name":"","type":"address","internalType":"address"}],"stateMutability":"view"},{"type":"function","name":"setAssetCap","inputs":[{"name":"_assetCap","type":"uint256","internalType":"uint256"}],"outputs":[],"stateMutability":"nonpayable"},{"type":"function","name":"setCitadelAssetPriceBounds","inputs":[{"name":"_minPrice","type":"uint256","internalType":"uint256"},{"name":"_maxPrice","type":"uint256","internalType":"uint256"}],"outputs":[],"stateMutability":"nonpayable"},{"type":"function","name":"setDiscount","inputs":[{"name":"_discount","type":"uint256","internalType":"uint256"}],"outputs":[],"stateMutability":"nonpayable"},{"type":"function","name":"setDiscountLimits","inputs":[{"name":"_minDiscount","type":"uint256","internalType":"uint256"},{"name":"_maxDiscount","type":"uint256","internalType":"uint256"}],"outputs":[],"stateMutability":"nonpayable"},{"type":"function","name":"setDiscountManager","inputs":[{"name":"_discountManager","type":"address","internalType":"address"}],"outputs":[],"stateMutability":"nonpayable"},{"type":"function","name":"setSaleRecipient","inputs":[{"name":"_saleRecipient","type":"address","internalType":"address"}],"outputs":[],"stateMutability":"nonpayable"},{"type":"function","name":"sweep","inputs":[{"name":"_token","type":"address","internalType":"address"}],"outputs":[],"stateMutability":"nonpayable"},{"type":"function","name":"unpause","inputs":[],"outputs":[],"stateMutability":"nonpayable"},{"type":"function","name":"updateCitadelPriceInAsset","inputs":[{"name":"_citadelPriceInAsset","type":"uint256","internalType":"uint256"}],"outputs":[],"stateMutability":"nonpayable"},{"type":"function","name":"updateCitadelPriceInAsset","inputs":[],"outputs":[],"stateMutability":"nonpayable"},{"type":"function","name":"xCitadel","inputs":[],"outputs":[{"name":"","type":"address","internalType":"contract IVault"}],"stateMutability":"view"},{"type":"event","name":"AssetCapUpdated","inputs":[{"name":"assetCap","type":"uint256","indexed":false,"internalType":"uint256"}],"anonymous":false},{"type":"event","name":"CitadelPriceBoundsSet","inputs":[{"name":"minPrice","type":"uint256","indexed":false,"internalType":"uint256"},{"name":"maxPrice","type":"uint256","indexed":false,"internalType":"uint256"}],"anonymous":false},{"type":"event","name":"CitadelPriceFlag","inputs":[{"name":"price","type":"uint256","indexed":false,"internalType":"uint256"},{"name":"minPrice","type":"uint256","indexed":false,"internalType":"uint256"},{"name":"maxPrice","type":"uint256","indexed":false,"internalType":"uint256"}],"anonymous":false},{"type":"event","name":"CitadelPriceInAssetUpdated","inputs":[{"name":"citadelPrice","type":"uint256","indexed":false,"internalType":"uint256"}],"anonymous":false},{"type":"event","name":"ClaimToTreasury","inputs":[{"name":"token","type":"address","indexed":true,"internalType":"address"},{"name":"amount","type":"uint256","indexed":false,"internalType":"uint256"}],"anonymous":false},{"type":"event","name":"Deposit","inputs":[{"name":"buyer","type":"address","indexed":true,"internalType":"address"},{"name":"assetIn","type":"uint256","indexed":false,"internalType":"uint256"},{"name":"citadelOutValue","type":"uint256","indexed":false,"internalType":"uint256"}],"anonymous":false},{"type":"event","name":"DiscountLimitsSet","inputs":[{"name":"minDiscount","type":"uint256","indexed":false,"internalType":"uint256"},{"name":"maxDiscount","type":"uint256","indexed":false,"internalType":"uint256"}],"anonymous":false},{"type":"event","name":"DiscountManagerSet","inputs":[{"name":"discountManager","type":"address","indexed":false,"internalType":"address"}],"anonymous":false},{"type":"event","name":"DiscountSet","inputs":[{"name":"discount","type":"uint256","indexed":false,"internalType":"uint256"}],"anonymous":false},{"type":"event","name":"Paused","inputs":[{"name":"account","type":"address","indexed":false,"internalType":"address"}],"anonymous":false},{"type":"event","name":"SaleRecipientUpdated","inputs":[{"name":"recipient","type":"address","indexed":true,"internalType":"address"}],"anonymous":false},{"type":"event","name":"Sweep","inputs":[{"name":"token","type":"address","indexed":true,"internalType":"address"},{"name":"amount","type":"uint256","indexed":false,"internalType":"uint256"}],"anonymous":false},{"type":"event","name":"Unpaused","inputs":[{"name":"account","type":"address","indexed":false,"internalType":"address"}],"anonymous":false}],"bytecode":{"object":"0x608060405234801561001057600080fd5b506159b580620000216000396000f3fe608060405234801561001057600080fd5b506004361061025e5760003560e01c80635c19521711610146578063adfaba9e116100c3578063dabd271911610087578063dabd27191461064e578063e2bbb1581461066a578063e63ab1e91461069a578063f4e79fc3146106b8578063fb1bb9de146106d6578063fd967f47146106f45761025e565b8063adfaba9e146105b3578063bf1c14da146105d1578063c73940b3146105ef578063cb4c86b71461060d578063d137874b146106305761025e565b80638024aa481161010a5780638024aa48146105375780638456cb59146105555780638c36c34c1461055f5780639a347a941461057b578063a2d7fa62146105975761025e565b80635c195217146104a55780635c975abb146104d55780637a3dbd6a146104f35780637aa3f1ab1461050f5780637fb058751461052d5761025e565b80631c908d98116101df578063364bc15a116101a3578063364bc15a1461041957806338d52e0f146104375780633f4ba83a14610455578063455490521461045f5780634f4fca41146104695780635b019b76146104875761025e565b80631c908d9814610399578063202a963a146103b557806320bc47ae146103bf578063318c18a2146103dd5780633392c706146103fb5761025e565b80630f6df8b4116102265780630f6df8b41461030957806313640132146103275780631460e3901461034557806317ce4f1e146103615780631a209b2e1461037d5761025e565b806301681a62146102635780630676b0871461027f578063076e325c146102af57806307be5a13146102cd5780630b0cca89146102eb575b600080fd5b61027d6004803603810190610278919061412d565b610712565b005b61029960048036038101906102949190614190565b610b71565b6040516102a691906141cc565b60405180910390f35b6102b7610cca565b6040516102c491906141f6565b60405180910390f35b6102d5610cf0565b6040516102e291906141cc565b60405180910390f35b6102f3610cf6565b604051610300919061422a565b60405180910390f35b610311610d1a565b60405161031e91906142a4565b60405180910390f35b61032f610d40565b60405161033c91906141cc565b60405180910390f35b61035f600480360381019061035a91906142bf565b610d46565b005b61037b6004803603810190610376919061412d565b61124a565b005b61039760048036038101906103929190614190565b6114e0565b005b6103b360048036038101906103ae919061412d565b611783565b005b6103bd611a92565b005b6103c7611cc7565b6040516103d4919061422a565b60405180910390f35b6103e5611ceb565b6040516103f291906143fa565b60405180910390f35b610403611d8d565b604051610410919061422a565b60405180910390f35b610421611db1565b60405161042e919061422a565b60405180910390f35b61043f611dd5565b60405161044c9190614436565b60405180910390f35b61045d611dfb565b005b610467611ecc565b005b6104716122a9565b60405161047e9190614436565b60405180910390f35b61048f6122cf565b60405161049c91906141f6565b60405180910390f35b6104bf60048036038101906104ba9190614190565b6122f5565b6040516104cc91906141cc565b60405180910390f35b6104dd61235a565b6040516104ea919061446c565b60405180910390f35b61050d6004803603810190610508919061412d565b612371565b005b61051761240c565b60405161052491906141cc565b60405180910390f35b61053561243d565b005b61053f61282d565b60405161054c91906141cc565b60405180910390f35b61055d612833565b005b61057960048036038101906105749190614190565b612904565b005b61059560048036038101906105909190614487565b612ba7565b005b6105b160048036038101906105ac9190614487565b612e0a565b005b6105bb6130b7565b6040516105c8919061446c565b60405180910390f35b6105d96130ca565b6040516105e691906141cc565b60405180910390f35b6105f76130d0565b604051610604919061422a565b60405180910390f35b6106156130f4565b604051610627969594939291906144c7565b60405180910390f35b61063861313e565b60405161064591906141cc565b60405180910390f35b61066860048036038101906106639190614190565b61314b565b005b610684600480360381019061067f9190614487565b613494565b60405161069191906141cc565b60405180910390f35b6106a26138b3565b6040516106af919061422a565b60405180910390f35b6106c06138d7565b6040516106cd9190614549565b60405180910390f35b6106de6138fd565b6040516106eb919061422a565b60405180910390f35b6106fc613921565b60405161070991906141cc565b60405180910390f35b606560009054906101000a900473ffffffffffffffffffffffffffffffffffffffff1673ffffffffffffffffffffffffffffffffffffffff16635c975abb6040518163ffffffff1660e01b8152600401602060405180830381865afa15801561077f573d6000803e3d6000fd5b505050506040513d601f19601f820116820180604052508101906107a39190614590565b156107e3576040517f08c379a00000000000000000000000000000000000000000000000000000000081526004016107da9061461a565b60405180910390fd5b6107eb61235a565b1561082b576040517f08c379a000000000000000000000000000000000000000000000000000000000815260040161082290614686565b60405180910390fd5b60026066541415610871576040517f08c379a0000000000000000000000000000000000000000000000000000000008152600401610868906146f2565b60405180910390fd5b60026066819055507f337ba9dc64713e3c4bdd6225b5a90c898a60c14899ce4ed20d62795472e1761b606560009054906101000a900473ffffffffffffffffffffffffffffffffffffffff1673ffffffffffffffffffffffffffffffffffffffff166391d1485482336040518363ffffffff1660e01b81526004016108f7929190614712565b602060405180830381865afa158015610914573d6000803e3d6000fd5b505050506040513d601f19601f820116820180604052508101906109389190614590565b610977576040517f08c379a000000000000000000000000000000000000000000000000000000000815260040161096e90614787565b60405180910390fd5b60008273ffffffffffffffffffffffffffffffffffffffff166370a08231306040518263ffffffff1660e01b81526004016109b291906141f6565b602060405180830381865afa1580156109cf573d6000803e3d6000fd5b505050506040513d601f19601f820116820180604052508101906109f391906147bc565b905060008111610a38576040517f08c379a0000000000000000000000000000000000000000000000000000000008152600401610a2f90614835565b60405180910390fd5b609a60009054906101000a900473ffffffffffffffffffffffffffffffffffffffff1673ffffffffffffffffffffffffffffffffffffffff168373ffffffffffffffffffffffffffffffffffffffff161415610ac9576040517f08c379a0000000000000000000000000000000000000000000000000000000008152600401610ac0906148c7565b60405180910390fd5b8273ffffffffffffffffffffffffffffffffffffffff167fab2246061d7b0dd3631d037e3f6da75782ae489eeb9f6af878a4b25df9b07c7782604051610b0f91906141cc565b60405180910390a2610b6460a160009054906101000a900473ffffffffffffffffffffffffffffffffffffffff16828573ffffffffffffffffffffffffffffffffffffffff166139279092919063ffffffff16565b5050600160668190555050565b600080610b7d836122f5565b9050609960009054906101000a900473ffffffffffffffffffffffffffffffffffffffff1673ffffffffffffffffffffffffffffffffffffffff166377c7b8fc6040518163ffffffff1660e01b8152600401602060405180830381865afa158015610bec573d6000803e3d6000fd5b505050506040513d601f19601f82011682018060405250810190610c1091906147bc565b609860009054906101000a900473ffffffffffffffffffffffffffffffffffffffff1673ffffffffffffffffffffffffffffffffffffffff1663313ce5676040518163ffffffff1660e01b8152600401602060405180830381865afa158015610c7d573d6000803e3d6000fd5b505050506040513d601f19601f82011682018060405250810190610ca191906147bc565b600a610cad9190614a49565b82610cb89190614a94565b610cc29190614b1d565b915050919050565b60a060009054906101000a900473ffffffffffffffffffffffffffffffffffffffff1681565b609d5481565b7f32522ae3fcc93c551ea7d30f39aaf5cf6e316c65a500706f77e9ecdd09ee113681565b609960009054906101000a900473ffffffffffffffffffffffffffffffffffffffff1681565b609c5481565b600060019054906101000a900460ff16610d6e5760008054906101000a900460ff1615610d77565b610d766139ad565b5b610db6576040517f08c379a0000000000000000000000000000000000000000000000000000000008152600401610dad90614bc0565b60405180910390fd5b60008060019054906101000a900460ff161590508015610e06576001600060016101000a81548160ff02191690831515021790555060016000806101000a81548160ff0219169083151502179055505b600073ffffffffffffffffffffffffffffffffffffffff168473ffffffffffffffffffffffffffffffffffffffff161415610e76576040517f08c379a0000000000000000000000000000000000000000000000000000000008152600401610e6d90614c2c565b60405180910390fd5b600073ffffffffffffffffffffffffffffffffffffffff168373ffffffffffffffffffffffffffffffffffffffff161415610ee6576040517f08c379a0000000000000000000000000000000000000000000000000000000008152600401610edd90614c98565b60405180910390fd5b610eef88612371565b610ef76139be565b86609860006101000a81548173ffffffffffffffffffffffffffffffffffffffff021916908373ffffffffffffffffffffffffffffffffffffffff16021790555084609960006101000a81548173ffffffffffffffffffffffffffffffffffffffff021916908373ffffffffffffffffffffffffffffffffffffffff16021790555085609a60006101000a81548173ffffffffffffffffffffffffffffffffffffffff021916908373ffffffffffffffffffffffffffffffffffffffff1602179055508360a160006101000a81548173ffffffffffffffffffffffffffffffffffffffff021916908373ffffffffffffffffffffffffffffffffffffffff1602179055508260a060006101000a81548173ffffffffffffffffffffffffffffffffffffffff021916908373ffffffffffffffffffffffffffffffffffffffff1602179055506040518060c00160405280600081526020016000815260200160008152602001600073ffffffffffffffffffffffffffffffffffffffff168152602001600081526020018381525060a260008201518160000155602082015181600101556040820151816002015560608201518160030160006101000a81548173ffffffffffffffffffffffffffffffffffffffff021916908373ffffffffffffffffffffffffffffffffffffffff1602179055506080820151816004015560a08201518160050155905050609a60009054906101000a900473ffffffffffffffffffffffffffffffffffffffff1673ffffffffffffffffffffffffffffffffffffffff1663313ce5676040518163ffffffff1660e01b8152600401602060405180830381865afa15801561116f573d6000803e3d6000fd5b505050506040513d601f19601f8201168201806040525081019061119391906147bc565b600a61119f9190614a49565b609f819055506000609c819055507fffffffffffffffffffffffffffffffffffffffffffffffffffffffffffffffff609d8190555061121f857fffffffffffffffffffffffffffffffffffffffffffffffffffffffffffffffff8973ffffffffffffffffffffffffffffffffffffffff16613a179092919063ffffffff16565b80156112405760008060016101000a81548160ff0219169083151502179055505b5050505050505050565b606560009054906101000a900473ffffffffffffffffffffffffffffffffffffffff1673ffffffffffffffffffffffffffffffffffffffff16635c975abb6040518163ffffffff1660e01b8152600401602060405180830381865afa1580156112b7573d6000803e3d6000fd5b505050506040513d601f19601f820116820180604052508101906112db9190614590565b1561131b576040517f08c379a00000000000000000000000000000000000000000000000000000000081526004016113129061461a565b60405180910390fd5b61132361235a565b15611363576040517f08c379a000000000000000000000000000000000000000000000000000000000815260040161135a90614686565b60405180910390fd5b7f32522ae3fcc93c551ea7d30f39aaf5cf6e316c65a500706f77e9ecdd09ee1136606560009054906101000a900473ffffffffffffffffffffffffffffffffffffffff1673ffffffffffffffffffffffffffffffffffffffff166391d1485482336040518363ffffffff1660e01b81526004016113e1929190614712565b602060405180830381865afa1580156113fe573d6000803e3d6000fd5b505050506040513d601f19601f820116820180604052508101906114229190614590565b611461576040517f08c379a000000000000000000000000000000000000000000000000000000000815260040161145890614787565b60405180910390fd5b8160a260030160006101000a81548173ffffffffffffffffffffffffffffffffffffffff021916908373ffffffffffffffffffffffffffffffffffffffff1602179055507f48df10eaa19ac4d8af7800bf7c24ace52581366303924d753f9428fd385c0f8b826040516114d491906141f6565b60405180910390a15050565b606560009054906101000a900473ffffffffffffffffffffffffffffffffffffffff1673ffffffffffffffffffffffffffffffffffffffff16635c975abb6040518163ffffffff1660e01b8152600401602060405180830381865afa15801561154d573d6000803e3d6000fd5b505050506040513d601f19601f820116820180604052508101906115719190614590565b156115b1576040517f08c379a00000000000000000000000000000000000000000000000000000000081526004016115a89061461a565b60405180910390fd5b6115b961235a565b156115f9576040517f08c379a00000000000000000000000000000000000000000000000000000000081526004016115f090614686565b60405180910390fd5b60a060009054906101000a900473ffffffffffffffffffffffffffffffffffffffff1673ffffffffffffffffffffffffffffffffffffffff163373ffffffffffffffffffffffffffffffffffffffff1614611689576040517f08c379a000000000000000000000000000000000000000000000000000000000815260040161168090614d04565b60405180910390fd5b600081116116cc576040517f08c379a00000000000000000000000000000000000000000000000000000000081526004016116c390614d70565b60405180910390fd5b609c548110806116dd5750609d5481115b15611741576001609e60006101000a81548160ff0219169083151502179055507fdae48d8e5e2359674cf95610b58d63937640a27d98c74226b9186acd7034857f81609c54609d5460405161173493929190614d90565b60405180910390a1611780565b80609b819055507f256ba2731beb7e1131b4ca26d4459cca58b87d57f3aceb8f10afb5a2b2bc9ebd8160405161177791906141cc565b60405180910390a15b50565b606560009054906101000a900473ffffffffffffffffffffffffffffffffffffffff1673ffffffffffffffffffffffffffffffffffffffff16635c975abb6040518163ffffffff1660e01b8152600401602060405180830381865afa1580156117f0573d6000803e3d6000fd5b505050506040513d601f19601f820116820180604052508101906118149190614590565b15611854576040517f08c379a000000000000000000000000000000000000000000000000000000000815260040161184b9061461a565b60405180910390fd5b61185c61235a565b1561189c576040517f08c379a000000000000000000000000000000000000000000000000000000000815260040161189390614686565b60405180910390fd5b7f32522ae3fcc93c551ea7d30f39aaf5cf6e316c65a500706f77e9ecdd09ee1136606560009054906101000a900473ffffffffffffffffffffffffffffffffffffffff1673ffffffffffffffffffffffffffffffffffffffff166391d1485482336040518363ffffffff1660e01b815260040161191a929190614712565b602060405180830381865afa158015611937573d6000803e3d6000fd5b505050506040513d601f19601f8201168201806040525081019061195b9190614590565b61199a576040517f08c379a000000000000000000000000000000000000000000000000000000000815260040161199190614787565b60405180910390fd5b600073ffffffffffffffffffffffffffffffffffffffff168273ffffffffffffffffffffffffffffffffffffffff161415611a0a576040517f08c379a0000000000000000000000000000000000000000000000000000000008152600401611a0190614e39565b60405180910390fd5b8160a160006101000a81548173ffffffffffffffffffffffffffffffffffffffff021916908373ffffffffffffffffffffffffffffffffffffffff1602179055508173ffffffffffffffffffffffffffffffffffffffff167f22fcd0f303ce9972cac865bf07f264510ba86521618196591c01ad233f97826660405160405180910390a25050565b606560009054906101000a900473ffffffffffffffffffffffffffffffffffffffff1673ffffffffffffffffffffffffffffffffffffffff16635c975abb6040518163ffffffff1660e01b8152600401602060405180830381865afa158015611aff573d6000803e3d6000fd5b505050506040513d601f19601f82011682018060405250810190611b239190614590565b15611b63576040517f08c379a0000000000000000000000000000000000000000000000000000000008152600401611b5a9061461a565b60405180910390fd5b611b6b61235a565b15611bab576040517f08c379a0000000000000000000000000000000000000000000000000000000008152600401611ba290614686565b60405180910390fd5b7ff569e5f3f5937cbac9b65efc7a737c2c076c5c85f21b131e09a93cb09c14b658606560009054906101000a900473ffffffffffffffffffffffffffffffffffffffff1673ffffffffffffffffffffffffffffffffffffffff166391d1485482336040518363ffffffff1660e01b8152600401611c29929190614712565b602060405180830381865afa158015611c46573d6000803e3d6000fd5b505050506040513d601f19601f82011682018060405250810190611c6a9190614590565b611ca9576040517f08c379a0000000000000000000000000000000000000000000000000000000008152600401611ca090614787565b60405180910390fd5b6000609e60006101000a81548160ff02191690831515021790555050565b7f8e599f3d03a7b83bb12c7b64e3102b93cf1ac253479bdcfa2a79478333d2222481565b611cf361407e565b60a26040518060c00160405290816000820154815260200160018201548152602001600282015481526020016003820160009054906101000a900473ffffffffffffffffffffffffffffffffffffffff1673ffffffffffffffffffffffffffffffffffffffff1673ffffffffffffffffffffffffffffffffffffffff16815260200160048201548152602001600582015481525050905090565b7ff569e5f3f5937cbac9b65efc7a737c2c076c5c85f21b131e09a93cb09c14b65881565b7ffc8737ab85eb45125971625a9ebdb75cc78e01d5c1fa80c4c6e5203f47bc4fab81565b609a60009054906101000a900473ffffffffffffffffffffffffffffffffffffffff1681565b606560009054906101000a900473ffffffffffffffffffffffffffffffffffffffff1673ffffffffffffffffffffffffffffffffffffffff166391d148547f427da25fe773164f88948d3e215c94b6554e2ed5e5f203a821c9f2f6131cf75a336040518363ffffffff1660e01b8152600401611e78929190614712565b602060405180830381865afa158015611e95573d6000803e3d6000fd5b505050506040513d601f19601f82011682018060405250810190611eb99190614590565b611ec257600080fd5b611eca613b66565b565b606560009054906101000a900473ffffffffffffffffffffffffffffffffffffffff1673ffffffffffffffffffffffffffffffffffffffff16635c975abb6040518163ffffffff1660e01b8152600401602060405180830381865afa158015611f39573d6000803e3d6000fd5b505050506040513d601f19601f82011682018060405250810190611f5d9190614590565b15611f9d576040517f08c379a0000000000000000000000000000000000000000000000000000000008152600401611f949061461a565b60405180910390fd5b611fa561235a565b15611fe5576040517f08c379a0000000000000000000000000000000000000000000000000000000008152600401611fdc90614686565b60405180910390fd5b7f337ba9dc64713e3c4bdd6225b5a90c898a60c14899ce4ed20d62795472e1761b606560009054906101000a900473ffffffffffffffffffffffffffffffffffffffff1673ffffffffffffffffffffffffffffffffffffffff166391d1485482336040518363ffffffff1660e01b8152600401612063929190614712565b602060405180830381865afa158015612080573d6000803e3d6000fd5b505050506040513d601f19601f820116820180604052508101906120a49190614590565b6120e3576040517f08c379a00000000000000000000000000000000000000000000000000000000081526004016120da90614787565b60405180910390fd5b6000609a60009054906101000a900473ffffffffffffffffffffffffffffffffffffffff1673ffffffffffffffffffffffffffffffffffffffff166370a08231306040518263ffffffff1660e01b815260040161214091906141f6565b602060405180830381865afa15801561215d573d6000803e3d6000fd5b505050506040513d601f19601f8201168201806040525081019061218191906147bc565b9050600081116121c6576040517f08c379a00000000000000000000000000000000000000000000000000000000081526004016121bd90614ea5565b60405180910390fd5b61223560a160009054906101000a900473ffffffffffffffffffffffffffffffffffffffff1682609a60009054906101000a900473ffffffffffffffffffffffffffffffffffffffff1673ffffffffffffffffffffffffffffffffffffffff166139279092919063ffffffff16565b609a60009054906101000a900473ffffffffffffffffffffffffffffffffffffffff1673ffffffffffffffffffffffffffffffffffffffff167fe48ede722778e5cf66fcd476e11d72988e6ca0495f7a5e68632cac6026521f0c8260405161229d91906141cc565b60405180910390a25050565b609860009054906101000a900473ffffffffffffffffffffffffffffffffffffffff1681565b60a160009054906101000a900473ffffffffffffffffffffffffffffffffffffffff1681565b600080609b54836123069190614a94565b9050600060a26000015411156123445760a2600001546127106123299190614ec5565b612710826123379190614a94565b6123419190614b1d565b91505b609f54826123529190614b1d565b915050919050565b6000603360009054906101000a900460ff16905090565b600060019054906101000a900460ff166123c0576040517f08c379a00000000000000000000000000000000000000000000000000000000081526004016123b790614f6b565b60405180910390fd5b6123c8613c08565b80606560006101000a81548173ffffffffffffffffffffffffffffffffffffffff021916908373ffffffffffffffffffffffffffffffffffffffff16021790555050565b60008060a2600401549050600060a2600501549050808210156124385781816124359190614ec5565b92505b505090565b606560009054906101000a900473ffffffffffffffffffffffffffffffffffffffff1673ffffffffffffffffffffffffffffffffffffffff16635c975abb6040518163ffffffff1660e01b8152600401602060405180830381865afa1580156124aa573d6000803e3d6000fd5b505050506040513d601f19601f820116820180604052508101906124ce9190614590565b1561250e576040517f08c379a00000000000000000000000000000000000000000000000000000000081526004016125059061461a565b60405180910390fd5b61251661235a565b15612556576040517f08c379a000000000000000000000000000000000000000000000000000000000815260040161254d90614686565b60405180910390fd5b7ffc8737ab85eb45125971625a9ebdb75cc78e01d5c1fa80c4c6e5203f47bc4fab606560009054906101000a900473ffffffffffffffffffffffffffffffffffffffff1673ffffffffffffffffffffffffffffffffffffffff166391d1485482336040518363ffffffff1660e01b81526004016125d4929190614712565b602060405180830381865afa1580156125f1573d6000803e3d6000fd5b505050506040513d601f19601f820116820180604052508101906126159190614590565b612654576040517f08c379a000000000000000000000000000000000000000000000000000000000815260040161264b90614787565b60405180910390fd5b60008060a060009054906101000a900473ffffffffffffffffffffffffffffffffffffffff1673ffffffffffffffffffffffffffffffffffffffff16633bc5de306040518163ffffffff1660e01b815260040160408051808303816000875af11580156126c5573d6000803e3d6000fd5b505050506040513d601f19601f820116820180604052508101906126e99190614f8b565b809250819350505060008211612734576040517f08c379a000000000000000000000000000000000000000000000000000000000815260040161272b90614d70565b60405180910390fd5b80612774576040517f08c379a000000000000000000000000000000000000000000000000000000000815260040161276b90615017565b60405180910390fd5b609c548210806127855750609d5482115b156127e9576001609e60006101000a81548160ff0219169083151502179055507fdae48d8e5e2359674cf95610b58d63937640a27d98c74226b9186acd7034857f82609c54609d546040516127dc93929190614d90565b60405180910390a1612828565b81609b819055507f256ba2731beb7e1131b4ca26d4459cca58b87d57f3aceb8f10afb5a2b2bc9ebd8260405161281f91906141cc565b60405180910390a15b505050565b609f5481565b606560009054906101000a900473ffffffffffffffffffffffffffffffffffffffff1673ffffffffffffffffffffffffffffffffffffffff166391d148547f65d7a28e3265b37a6474929f336521b332c1681b933f6cb9f3376673440d862a336040518363ffffffff1660e01b81526004016128b0929190614712565b602060405180830381865afa1580156128cd573d6000803e3d6000fd5b505050506040513d601f19601f820116820180604052508101906128f19190614590565b6128fa57600080fd5b612902613c74565b565b606560009054906101000a900473ffffffffffffffffffffffffffffffffffffffff1673ffffffffffffffffffffffffffffffffffffffff16635c975abb6040518163ffffffff1660e01b8152600401602060405180830381865afa158015612971573d6000803e3d6000fd5b505050506040513d601f19601f820116820180604052508101906129959190614590565b156129d5576040517f08c379a00000000000000000000000000000000000000000000000000000000081526004016129cc9061461a565b60405180910390fd5b6129dd61235a565b15612a1d576040517f08c379a0000000000000000000000000000000000000000000000000000000008152600401612a1490614686565b60405180910390fd5b7ff569e5f3f5937cbac9b65efc7a737c2c076c5c85f21b131e09a93cb09c14b658606560009054906101000a900473ffffffffffffffffffffffffffffffffffffffff1673ffffffffffffffffffffffffffffffffffffffff166391d1485482336040518363ffffffff1660e01b8152600401612a9b929190614712565b602060405180830381865afa158015612ab8573d6000803e3d6000fd5b505050506040513d601f19601f82011682018060405250810190612adc9190614590565b612b1b576040517f08c379a0000000000000000000000000000000000000000000000000000000008152600401612b1290614787565b60405180910390fd5b60a2600401548211612b62576040517f08c379a0000000000000000000000000000000000000000000000000000000008152600401612b59906150a9565b60405180910390fd5b8160a2600501819055507f75c41e93b7edcc1801617f8000b2dc1d3be2dbe4fe72c27f3e7fcc1925d10b6182604051612b9b91906141cc565b60405180910390a15050565b606560009054906101000a900473ffffffffffffffffffffffffffffffffffffffff1673ffffffffffffffffffffffffffffffffffffffff16635c975abb6040518163ffffffff1660e01b8152600401602060405180830381865afa158015612c14573d6000803e3d6000fd5b505050506040513d601f19601f82011682018060405250810190612c389190614590565b15612c78576040517f08c379a0000000000000000000000000000000000000000000000000000000008152600401612c6f9061461a565b60405180910390fd5b612c8061235a565b15612cc0576040517f08c379a0000000000000000000000000000000000000000000000000000000008152600401612cb790614686565b60405180910390fd5b7f32522ae3fcc93c551ea7d30f39aaf5cf6e316c65a500706f77e9ecdd09ee1136606560009054906101000a900473ffffffffffffffffffffffffffffffffffffffff1673ffffffffffffffffffffffffffffffffffffffff166391d1485482336040518363ffffffff1660e01b8152600401612d3e929190614712565b602060405180830381865afa158015612d5b573d6000803e3d6000fd5b505050506040513d601f19601f82011682018060405250810190612d7f9190614590565b612dbe576040517f08c379a0000000000000000000000000000000000000000000000000000000008152600401612db590614787565b60405180910390fd5b82609c8190555081609d819055507f5591c67b82ba08b694c1fb719d41a2d8bf669c6a4ae0123698ceb6aa365e84648383604051612dfd9291906150c9565b60405180910390a1505050565b606560009054906101000a900473ffffffffffffffffffffffffffffffffffffffff1673ffffffffffffffffffffffffffffffffffffffff16635c975abb6040518163ffffffff1660e01b8152600401602060405180830381865afa158015612e77573d6000803e3d6000fd5b505050506040513d601f19601f82011682018060405250810190612e9b9190614590565b15612edb576040517f08c379a0000000000000000000000000000000000000000000000000000000008152600401612ed29061461a565b60405180910390fd5b612ee361235a565b15612f23576040517f08c379a0000000000000000000000000000000000000000000000000000000008152600401612f1a90614686565b60405180910390fd5b7f32522ae3fcc93c551ea7d30f39aaf5cf6e316c65a500706f77e9ecdd09ee1136606560009054906101000a900473ffffffffffffffffffffffffffffffffffffffff1673ffffffffffffffffffffffffffffffffffffffff166391d1485482336040518363ffffffff1660e01b8152600401612fa1929190614712565b602060405180830381865afa158015612fbe573d6000803e3d6000fd5b505050506040513d601f19601f82011682018060405250810190612fe29190614590565b613021576040517f08c379a000000000000000000000000000000000000000000000000000000000815260040161301890614787565b60405180910390fd5b6127108210613065576040517f08c379a000000000000000000000000000000000000000000000000000000000815260040161305c9061513e565b60405180910390fd5b8260a2600101819055508160a2600201819055507f200fbc2ea3c4e839664840b7f47760021d1afbd1954110464fc4c4f7a123f51083836040516130aa9291906150c9565b60405180910390a1505050565b609e60009054906101000a900460ff1681565b609b5481565b7f337ba9dc64713e3c4bdd6225b5a90c898a60c14899ce4ed20d62795472e1761b81565b60a28060000154908060010154908060020154908060030160009054906101000a900473ffffffffffffffffffffffffffffffffffffffff16908060040154908060050154905086565b600060a260000154905090565b606560009054906101000a900473ffffffffffffffffffffffffffffffffffffffff1673ffffffffffffffffffffffffffffffffffffffff16635c975abb6040518163ffffffff1660e01b8152600401602060405180830381865afa1580156131b8573d6000803e3d6000fd5b505050506040513d601f19601f820116820180604052508101906131dc9190614590565b1561321c576040517f08c379a00000000000000000000000000000000000000000000000000000000081526004016132139061461a565b60405180910390fd5b61322461235a565b15613264576040517f08c379a000000000000000000000000000000000000000000000000000000000815260040161325b90614686565b60405180910390fd5b7ff569e5f3f5937cbac9b65efc7a737c2c076c5c85f21b131e09a93cb09c14b65860a260030160009054906101000a900473ffffffffffffffffffffffffffffffffffffffff16606560009054906101000a900473ffffffffffffffffffffffffffffffffffffffff1673ffffffffffffffffffffffffffffffffffffffff166391d1485483336040518363ffffffff1660e01b8152600401613308929190614712565b602060405180830381865afa158015613325573d6000803e3d6000fd5b505050506040513d601f19601f820116820180604052508101906133499190614590565b8061337f57508073ffffffffffffffffffffffffffffffffffffffff163373ffffffffffffffffffffffffffffffffffffffff16145b6133be576040517f08c379a00000000000000000000000000000000000000000000000000000000081526004016133b5906151d0565b60405180910390fd5b60a260010154831015613406576040517f08c379a00000000000000000000000000000000000000000000000000000000081526004016133fd9061523c565b60405180910390fd5b60a26002015483111561344e576040517f08c379a0000000000000000000000000000000000000000000000000000000008152600401613445906152a8565b60405180910390fd5b8260a2600001819055507f1b69574255c79758c64d1a097acfd0300110698292feae84be7ab7e574f195d28360405161348791906141cc565b60405180910390a1505050565b6000801515609e60009054906101000a900460ff161515146134eb576040517f08c379a00000000000000000000000000000000000000000000000000000000081526004016134e29061533a565b60405180910390fd5b606560009054906101000a900473ffffffffffffffffffffffffffffffffffffffff1673ffffffffffffffffffffffffffffffffffffffff16635c975abb6040518163ffffffff1660e01b8152600401602060405180830381865afa158015613558573d6000803e3d6000fd5b505050506040513d601f19601f8201168201806040525081019061357c9190614590565b156135bc576040517f08c379a00000000000000000000000000000000000000000000000000000000081526004016135b39061461a565b60405180910390fd5b6135c461235a565b15613604576040517f08c379a00000000000000000000000000000000000000000000000000000000081526004016135fb90614686565b60405180910390fd5b6002606654141561364a576040517f08c379a0000000000000000000000000000000000000000000000000000000008152600401613641906146f2565b60405180910390fd5b600260668190555060008311613695576040517f08c379a000000000000000000000000000000000000000000000000000000000815260040161368c906153a6565b60405180910390fd5b60a2600501548360a2600401546136ac91906153c6565b11156136ed576040517f08c379a00000000000000000000000000000000000000000000000000000000081526004016136e490615468565b60405180910390fd5b8260a2600401546136fe91906153c6565b60a260040181905550613710836122f5565b905081811015613755576040517f08c379a000000000000000000000000000000000000000000000000000000000815260040161374c906154d4565b60405180910390fd5b6137c63360a160009054906101000a900473ffffffffffffffffffffffffffffffffffffffff1685609a60009054906101000a900473ffffffffffffffffffffffffffffffffffffffff1673ffffffffffffffffffffffffffffffffffffffff16613d17909392919063ffffffff16565b609960009054906101000a900473ffffffffffffffffffffffffffffffffffffffff1673ffffffffffffffffffffffffffffffffffffffff16632f4f21e233836040518363ffffffff1660e01b81526004016138239291906154f4565b600060405180830381600087803b15801561383d57600080fd5b505af1158015613851573d6000803e3d6000fd5b505050503373ffffffffffffffffffffffffffffffffffffffff167f90890809c654f11d6e72a28fa60149770a0d11ec6c92319d6ceb2bb0a4ea1a15848360405161389d9291906150c9565b60405180910390a2600160668190555092915050565b7f65d7a28e3265b37a6474929f336521b332c1681b933f6cb9f3376673440d862a81565b606560009054906101000a900473ffffffffffffffffffffffffffffffffffffffff1681565b7f427da25fe773164f88948d3e215c94b6554e2ed5e5f203a821c9f2f6131cf75a81565b61271081565b6139a88363a9059cbb60e01b84846040516024016139469291906154f4565b604051602081830303815290604052907bffffffffffffffffffffffffffffffffffffffffffffffffffffffff19166020820180517bffffffffffffffffffffffffffffffffffffffffffffffffffffffff8381831617835250505050613da0565b505050565b60006139b830613e67565b15905090565b600060019054906101000a900460ff16613a0d576040517f08c379a0000000000000000000000000000000000000000000000000000000008152600401613a0490614f6b565b60405180910390fd5b613a15613e8a565b565b6000811480613aa1575060008373ffffffffffffffffffffffffffffffffffffffff1663dd62ed3e30856040518363ffffffff1660e01b8152600401613a5e92919061551d565b602060405180830381865afa158015613a7b573d6000803e3d6000fd5b505050506040513d601f19601f82011682018060405250810190613a9f91906147bc565b145b613ae0576040517f08c379a0000000000000000000000000000000000000000000000000000000008152600401613ad7906155b8565b60405180910390fd5b613b618363095ea7b360e01b8484604051602401613aff9291906154f4565b604051602081830303815290604052907bffffffffffffffffffffffffffffffffffffffffffffffffffffffff19166020820180517bffffffffffffffffffffffffffffffffffffffffffffffffffffffff8381831617835250505050613da0565b505050565b613b6e61235a565b613bad576040517f08c379a0000000000000000000000000000000000000000000000000000000008152600401613ba490615624565b60405180910390fd5b6000603360006101000a81548160ff0219169083151502179055507f5db9ee0a495bf2e6ff9c91a7834c1ba4fdd244a5e8aa4e537bd38aeae4b073aa613bf1613ee3565b604051613bfe91906141f6565b60405180910390a1565b600060019054906101000a900460ff16613c57576040517f08c379a0000000000000000000000000000000000000000000000000000000008152600401613c4e90614f6b565b60405180910390fd5b6000603360006101000a81548160ff021916908315150217905550565b613c7c61235a565b15613cbc576040517f08c379a0000000000000000000000000000000000000000000000000000000008152600401613cb390615690565b60405180910390fd5b6001603360006101000a81548160ff0219169083151502179055507f62e78cea01bee320cd4e420270b5ea74000d11b0c9f74754ebdbfc544b05a258613d00613ee3565b604051613d0d91906141f6565b60405180910390a1565b613d9a846323b872dd60e01b858585604051602401613d38939291906156b0565b604051602081830303815290604052907bffffffffffffffffffffffffffffffffffffffffffffffffffffffff19166020820180517bffffffffffffffffffffffffffffffffffffffffffffffffffffffff8381831617835250505050613da0565b50505050565b6000613e02826040518060400160405280602081526020017f5361666545524332303a206c6f772d6c6576656c2063616c6c206661696c65648152508573ffffffffffffffffffffffffffffffffffffffff16613eeb9092919063ffffffff16565b9050600081511115613e625780806020019051810190613e229190614590565b613e61576040517f08c379a0000000000000000000000000000000000000000000000000000000008152600401613e5890615759565b60405180910390fd5b5b505050565b6000808273ffffffffffffffffffffffffffffffffffffffff163b119050919050565b600060019054906101000a900460ff16613ed9576040517f08c379a0000000000000000000000000000000000000000000000000000000008152600401613ed090614f6b565b60405180910390fd5b6001606681905550565b600033905090565b6060613efa8484600085613f03565b90509392505050565b606082471015613f48576040517f08c379a0000000000000000000000000000000000000000000000000000000008152600401613f3f906157eb565b60405180910390fd5b613f5185613e67565b613f90576040517f08c379a0000000000000000000000000000000000000000000000000000000008152600401613f8790615857565b60405180910390fd5b6000808673ffffffffffffffffffffffffffffffffffffffff168587604051613fb991906158f1565b60006040518083038185875af1925050503d8060008114613ff6576040519150601f19603f3d011682016040523d82523d6000602084013e613ffb565b606091505b509150915061400b828286614017565b92505050949350505050565b6060831561402757829050614077565b60008351111561403a5782518084602001fd5b816040517f08c379a000000000000000000000000000000000000000000000000000000000815260040161406e919061595d565b60405180910390fd5b9392505050565b6040518060c00160405280600081526020016000815260200160008152602001600073ffffffffffffffffffffffffffffffffffffffff16815260200160008152602001600081525090565b600080fd5b600073ffffffffffffffffffffffffffffffffffffffff82169050919050565b60006140fa826140cf565b9050919050565b61410a816140ef565b811461411557600080fd5b50565b60008135905061412781614101565b92915050565b600060208284031215614143576141426140ca565b5b600061415184828501614118565b91505092915050565b6000819050919050565b61416d8161415a565b811461417857600080fd5b50565b60008135905061418a81614164565b92915050565b6000602082840312156141a6576141a56140ca565b5b60006141b48482850161417b565b91505092915050565b6141c68161415a565b82525050565b60006020820190506141e160008301846141bd565b92915050565b6141f0816140ef565b82525050565b600060208201905061420b60008301846141e7565b92915050565b6000819050919050565b61422481614211565b82525050565b600060208201905061423f600083018461421b565b92915050565b6000819050919050565b600061426a614265614260846140cf565b614245565b6140cf565b9050919050565b600061427c8261424f565b9050919050565b600061428e82614271565b9050919050565b61429e81614283565b82525050565b60006020820190506142b96000830184614295565b92915050565b600080600080600080600060e0888a0312156142de576142dd6140ca565b5b60006142ec8a828b01614118565b97505060206142fd8a828b01614118565b965050604061430e8a828b01614118565b955050606061431f8a828b01614118565b94505060806143308a828b01614118565b93505060a06143418a828b01614118565b92505060c06143528a828b0161417b565b91505092959891949750929550565b61436a8161415a565b82525050565b614379816140ef565b82525050565b60c0820160008201516143956000850182614361565b5060208201516143a86020850182614361565b5060408201516143bb6040850182614361565b5060608201516143ce6060850182614370565b5060808201516143e16080850182614361565b5060a08201516143f460a0850182614361565b50505050565b600060c08201905061440f600083018461437f565b92915050565b600061442082614271565b9050919050565b61443081614415565b82525050565b600060208201905061444b6000830184614427565b92915050565b60008115159050919050565b61446681614451565b82525050565b6000602082019050614481600083018461445d565b92915050565b6000806040838503121561449e5761449d6140ca565b5b60006144ac8582860161417b565b92505060206144bd8582860161417b565b9150509250929050565b600060c0820190506144dc60008301896141bd565b6144e960208301886141bd565b6144f660408301876141bd565b61450360608301866141e7565b61451060808301856141bd565b61451d60a08301846141bd565b979650505050505050565b600061453382614271565b9050919050565b61454381614528565b82525050565b600060208201905061455e600083018461453a565b92915050565b61456d81614451565b811461457857600080fd5b50565b60008151905061458a81614564565b92915050565b6000602082840312156145a6576145a56140ca565b5b60006145b48482850161457b565b91505092915050565b600082825260208201905092915050565b7f676c6f62616c2d70617573656400000000000000000000000000000000000000600082015250565b6000614604600d836145bd565b915061460f826145ce565b602082019050919050565b60006020820190508181036000830152614633816145f7565b9050919050565b7f6c6f63616c2d7061757365640000000000000000000000000000000000000000600082015250565b6000614670600c836145bd565b915061467b8261463a565b602082019050919050565b6000602082019050818103600083015261469f81614663565b9050919050565b7f5265656e7472616e637947756172643a207265656e7472616e742063616c6c00600082015250565b60006146dc601f836145bd565b91506146e7826146a6565b602082019050919050565b6000602082019050818103600083015261470b816146cf565b9050919050565b6000604082019050614727600083018561421b565b61473460208301846141e7565b9392505050565b7f4741433a20696e76616c69642d63616c6c65722d726f6c650000000000000000600082015250565b60006147716018836145bd565b915061477c8261473b565b602082019050919050565b600060208201905081810360008301526147a081614764565b9050919050565b6000815190506147b681614164565b92915050565b6000602082840312156147d2576147d16140ca565b5b60006147e0848285016147a7565b91505092915050565b7f6e6f7468696e6720746f20737765657000000000000000000000000000000000600082015250565b600061481f6010836145bd565b915061482a826147e9565b602082019050919050565b6000602082019050818103600083015261484e81614812565b9050919050565b7f63616e6e6f742073776565702066756e64696e672061737365742c207573652060008201527f636c61696d4173736574546f5472656173757279282900000000000000000000602082015250565b60006148b16036836145bd565b91506148bc82614855565b604082019050919050565b600060208201905081810360008301526148e0816148a4565b9050919050565b7f4e487b7100000000000000000000000000000000000000000000000000000000600052601160045260246000fd5b60008160011c9050919050565b6000808291508390505b600185111561496d57808604811115614949576149486148e7565b5b60018516156149585780820291505b808102905061496685614916565b945061492d565b94509492505050565b6000826149865760019050614a42565b816149945760009050614a42565b81600181146149aa57600281146149b4576149e3565b6001915050614a42565b60ff8411156149c6576149c56148e7565b5b8360020a9150848211156149dd576149dc6148e7565b5b50614a42565b5060208310610133831016604e8410600b8410161715614a185782820a905083811115614a1357614a126148e7565b5b614a42565b614a258484846001614923565b92509050818404811115614a3c57614a3b6148e7565b5b81810290505b9392505050565b6000614a548261415a565b9150614a5f8361415a565b9250614a8c7fffffffffffffffffffffffffffffffffffffffffffffffffffffffffffffffff8484614976565b905092915050565b6000614a9f8261415a565b9150614aaa8361415a565b9250817fffffffffffffffffffffffffffffffffffffffffffffffffffffffffffffffff0483118215151615614ae357614ae26148e7565b5b828202905092915050565b7f4e487b7100000000000000000000000000000000000000000000000000000000600052601260045260246000fd5b6000614b288261415a565b9150614b338361415a565b925082614b4357614b42614aee565b5b828204905092915050565b7f496e697469616c697a61626c653a20636f6e747261637420697320616c72656160008201527f647920696e697469616c697a6564000000000000000000000000000000000000602082015250565b6000614baa602e836145bd565b9150614bb582614b4e565b604082019050919050565b60006020820190508181036000830152614bd981614b9d565b9050919050565b7f46756e64696e673a20302073616c650000000000000000000000000000000000600082015250565b6000614c16600f836145bd565b9150614c2182614be0565b602082019050919050565b60006020820190508181036000830152614c4581614c09565b9050919050565b7f46756e64696e673a2030206f7261636c65000000000000000000000000000000600082015250565b6000614c826011836145bd565b9150614c8d82614c4c565b602082019050919050565b60006020820190508181036000830152614cb181614c75565b9050919050565b7f6f6e6c794369746164656c5072696365496e41737365744f7261636c65000000600082015250565b6000614cee601d836145bd565b9150614cf982614cb8565b602082019050919050565b60006020820190508181036000830152614d1d81614ce1565b9050919050565b7f6369746164656c207072696365206d757374206e6f74206265207a65726f0000600082015250565b6000614d5a601e836145bd565b9150614d6582614d24565b602082019050919050565b60006020820190508181036000830152614d8981614d4d565b9050919050565b6000606082019050614da560008301866141bd565b614db260208301856141bd565b614dbf60408301846141bd565b949350505050565b7f46756e64696e673a2073616c6520726563697069656e742073686f756c64206e60008201527f6f74206265207a65726f00000000000000000000000000000000000000000000602082015250565b6000614e23602a836145bd565b9150614e2e82614dc7565b604082019050919050565b60006020820190508181036000830152614e5281614e16565b9050919050565b7f6e6f7468696e6720746f20636c61696d00000000000000000000000000000000600082015250565b6000614e8f6010836145bd565b9150614e9a82614e59565b602082019050919050565b60006020820190508181036000830152614ebe81614e82565b9050919050565b6000614ed08261415a565b9150614edb8361415a565b925082821015614eee57614eed6148e7565b5b828203905092915050565b7f496e697469616c697a61626c653a20636f6e7472616374206973206e6f74206960008201527f6e697469616c697a696e67000000000000000000000000000000000000000000602082015250565b6000614f55602b836145bd565b9150614f6082614ef9565b604082019050919050565b60006020820190508181036000830152614f8481614f48565b9050919050565b60008060408385031215614fa257614fa16140ca565b5b6000614fb0858286016147a7565b9250506020614fc18582860161457b565b9150509250929050565b7f6f7261636c652064617461206d7573742062652076616c696400000000000000600082015250565b60006150016019836145bd565b915061500c82614fcb565b602082019050919050565b6000602082019050818103600083015261503081614ff4565b9050919050565b7f63616e6e6f74206465637265617365206361702062656c6f7720676c6f62616c60008201527f2073756d206f662061737365747320696e000000000000000000000000000000602082015250565b60006150936031836145bd565b915061509e82615037565b604082019050919050565b600060208201905081810360008301526150c281615086565b9050919050565b60006040820190506150de60008301856141bd565b6150eb60208301846141bd565b9392505050565b7f6d6178446973636f756e74203e3d204d41585f42505300000000000000000000600082015250565b60006151286016836145bd565b9150615133826150f2565b602082019050919050565b600060208201905081810360008301526151578161511b565b9050919050565b7f4741433a20696e76616c69642d63616c6c65722d726f6c652d6f722d6164647260008201527f6573730000000000000000000000000000000000000000000000000000000000602082015250565b60006151ba6023836145bd565b91506151c58261515e565b604082019050919050565b600060208201905081810360008301526151e9816151ad565b9050919050565b7f646973636f756e74203c206d696e446973636f756e7400000000000000000000600082015250565b60006152266016836145bd565b9150615231826151f0565b602082019050919050565b6000602082019050818103600083015261525581615219565b9050919050565b7f646973636f756e74203e206d6178446973636f756e7400000000000000000000600082015250565b60006152926016836145bd565b915061529d8261525c565b602082019050919050565b600060208201905081810360008301526152c181615285565b9050919050565b7f46756e64696e673a206369746164656c2070726963652066726f6d206f72616360008201527f6c6520666c616767656420616e642070656e64696e6720726576696577000000602082015250565b6000615324603d836145bd565b915061532f826152c8565b604082019050919050565b6000602082019050818103600083015261535381615317565b9050919050565b7f5f6173736574416d6f756e74496e206d757374206e6f74206265203000000000600082015250565b6000615390601c836145bd565b915061539b8261535a565b602082019050919050565b600060208201905081810360008301526153bf81615383565b9050919050565b60006153d18261415a565b91506153dc8361415a565b9250827fffffffffffffffffffffffffffffffffffffffffffffffffffffffffffffffff03821115615411576154106148e7565b5b828201905092915050565b7f61737365742066756e64696e6720636170206578636565646564000000000000600082015250565b6000615452601a836145bd565b915061545d8261541c565b602082019050919050565b6000602082019050818103600083015261548181615445565b9050919050565b7f6d696e4369746164656c4f757400000000000000000000000000000000000000600082015250565b60006154be600d836145bd565b91506154c982615488565b602082019050919050565b600060208201905081810360008301526154ed816154b1565b9050919050565b600060408201905061550960008301856141e7565b61551660208301846141bd565b9392505050565b600060408201905061553260008301856141e7565b61553f60208301846141e7565b9392505050565b7f5361666545524332303a20617070726f76652066726f6d206e6f6e2d7a65726f60008201527f20746f206e6f6e2d7a65726f20616c6c6f77616e636500000000000000000000602082015250565b60006155a26036836145bd565b91506155ad82615546565b604082019050919050565b600060208201905081810360008301526155d181615595565b9050919050565b7f5061757361626c653a206e6f7420706175736564000000000000000000000000600082015250565b600061560e6014836145bd565b9150615619826155d8565b602082019050919050565b6000602082019050818103600083015261563d81615601565b9050919050565b7f5061757361626c653a2070617573656400000000000000000000000000000000600082015250565b600061567a6010836145bd565b915061568582615644565b602082019050919050565b600060208201905081810360008301526156a98161566d565b9050919050565b60006060820190506156c560008301866141e7565b6156d260208301856141e7565b6156df60408301846141bd565b949350505050565b7f5361666545524332303a204552433230206f7065726174696f6e20646964206e60008201527f6f74207375636365656400000000000000000000000000000000000000000000602082015250565b6000615743602a836145bd565b915061574e826156e7565b604082019050919050565b6000602082019050818103600083015261577281615736565b9050919050565b7f416464726573733a20696e73756666696369656e742062616c616e636520666f60008201527f722063616c6c0000000000000000000000000000000000000000000000000000602082015250565b60006157d56026836145bd565b91506157e082615779565b604082019050919050565b60006020820190508181036000830152615804816157c8565b9050919050565b7f416464726573733a2063616c6c20746f206e6f6e2d636f6e7472616374000000600082015250565b6000615841601d836145bd565b915061584c8261580b565b602082019050919050565b6000602082019050818103600083015261587081615834565b9050919050565b600081519050919050565b600081905092915050565b60005b838110156158ab578082015181840152602081019050615890565b838111156158ba576000848401525b50505050565b60006158cb82615877565b6158d58185615882565b93506158e581856020860161588d565b80840191505092915050565b60006158fd82846158c0565b915081905092915050565b600081519050919050565b6000601f19601f8301169050919050565b600061592f82615908565b61593981856145bd565b935061594981856020860161588d565b61595281615913565b840191505092915050565b600060208201905081810360008301526159778184615924565b90509291505056fea2646970667358221220c817f30a1560b05c6e430ce1c8e8813092bd5f21c323e78c7152d0d44b01363d64736f6c634300080c0033","linkReferences":{}},"methodIdentifiers":{"CONTRACT_GOVERNANCE_ROLE()":"0b0cca89","KEEPER_ROLE()":"364bc15a","MAX_BPS()":"fd967f47","PAUSER_ROLE()":"e63ab1e9","POLICY_OPERATIONS_ROLE()":"3392c706","TREASURY_OPERATIONS_ROLE()":"c73940b3","TREASURY_VAULT_ROLE()":"20bc47ae","UNPAUSER_ROLE()":"fb1bb9de","__GlobalAccessControlManaged_init(address)":"7a3dbd6a","asset()":"38d52e0f","assetDecimalsNormalizationValue()":"8024aa48","citadel()":"4f4fca41","citadelPriceFlag()":"adfaba9e","citadelPriceInAsset()":"bf1c14da","citadelPriceInAssetOracle()":"076e325c","claimAssetToTreasury()":"45549052","clearCitadelPriceFlag()":"202a963a","deposit(uint256,uint256)":"e2bbb158","funding()":"cb4c86b7","gac()":"f4e79fc3","getAmountOut(uint256)":"5c195217","getDiscount()":"d137874b","getFundingParams()":"318c18a2","getRemainingFundable()":"7aa3f1ab","getStakedCitadelAmountOut(uint256)":"0676b087","initialize(address,address,address,address,address,address,uint256)":"1460e390","maxCitadelPriceInAsset()":"07be5a13","minCitadelPriceInAsset()":"13640132","pause()":"8456cb59","paused()":"5c975abb","saleRecipient()":"5b019b76","setAssetCap(uint256)":"8c36c34c","setCitadelAssetPriceBounds(uint256,uint256)":"9a347a94","setDiscount(uint256)":"dabd2719","setDiscountLimits(uint256,uint256)":"a2d7fa62","setDiscountManager(address)":"17ce4f1e","setSaleRecipient(address)":"1c908d98","sweep(address)":"01681a62","unpause()":"3f4ba83a","updateCitadelPriceInAsset()":"7fb05875","updateCitadelPriceInAsset(uint256)":"1a209b2e","xCitadel()":"0f6df8b4"},"id":21}