{
  "_format": "hh-sol-artifact-1",
  "contractName": "UniV3VaultTest",
  "sourceName": "contracts/test/UniV3VaultTest.sol",
  "abi": [
    {
      "inputs": [
        {
          "internalType": "contract IVaultGovernance",
          "name": "vaultGovernance_",
          "type": "address"
        },
        {
          "internalType": "address[]",
          "name": "vaultTokens_",
          "type": "address[]"
        },
        {
          "internalType": "uint24",
          "name": "fee",
          "type": "uint24"
        }
      ],
      "stateMutability": "nonpayable",
      "type": "constructor"
    },
    {
      "anonymous": false,
      "inputs": [
        {
          "indexed": true,
          "internalType": "address",
          "name": "origin",
          "type": "address"
        },
        {
          "indexed": true,
          "internalType": "address",
          "name": "to",
          "type": "address"
        },
        {
          "indexed": false,
          "internalType": "uint256",
          "name": "amount0",
          "type": "uint256"
        },
        {
          "indexed": false,
          "internalType": "uint256",
          "name": "amount1",
          "type": "uint256"
        }
      ],
      "name": "CollectedEarnings",
      "type": "event"
    },
    {
      "anonymous": false,
      "inputs": [
        {
          "indexed": false,
          "internalType": "address",
          "name": "to",
          "type": "address"
        },
        {
          "indexed": false,
          "internalType": "uint256[]",
          "name": "tokenAmounts",
          "type": "uint256[]"
        }
      ],
      "name": "Pull",
      "type": "event"
    },
    {
      "anonymous": false,
      "inputs": [
        {
          "indexed": false,
          "internalType": "uint256[]",
          "name": "tokenAmounts",
          "type": "uint256[]"
        }
      ],
      "name": "Push",
      "type": "event"
    },
    {
      "anonymous": false,
      "inputs": [
        {
          "indexed": false,
          "internalType": "address",
          "name": "to",
          "type": "address"
        },
        {
          "indexed": false,
          "internalType": "address[]",
          "name": "tokens",
          "type": "address[]"
        },
        {
          "indexed": false,
          "internalType": "uint256[]",
          "name": "tokenAmounts",
          "type": "uint256[]"
        }
      ],
      "name": "ReclaimTokens",
      "type": "event"
    },
    {
      "inputs": [
        {
          "internalType": "address",
          "name": "from",
          "type": "address"
        },
        {
          "internalType": "bytes",
          "name": "data",
          "type": "bytes"
        }
      ],
      "name": "claimRewards",
      "outputs": [],
      "stateMutability": "nonpayable",
      "type": "function"
    },
    {
      "inputs": [
        {
          "internalType": "address",
          "name": "to",
          "type": "address"
        }
      ],
      "name": "collectEarnings",
      "outputs": [
        {
          "internalType": "uint256[]",
          "name": "collectedEarnings",
          "type": "uint256[]"
        }
      ],
      "stateMutability": "nonpayable",
      "type": "function"
    },
    {
      "inputs": [
        {
          "internalType": "uint256",
          "name": "nft_",
          "type": "uint256"
        }
      ],
      "name": "initialize",
      "outputs": [],
      "stateMutability": "nonpayable",
      "type": "function"
    },
    {
      "inputs": [
        {
          "internalType": "address",
          "name": "token",
          "type": "address"
        }
      ],
      "name": "isVaultToken",
      "outputs": [
        {
          "internalType": "bool",
          "name": "",
          "type": "bool"
        }
      ],
      "stateMutability": "view",
      "type": "function"
    },
    {
      "inputs": [],
      "name": "nft",
      "outputs": [
        {
          "internalType": "uint256",
          "name": "",
          "type": "uint256"
        }
      ],
      "stateMutability": "view",
      "type": "function"
    },
    {
      "inputs": [
        {
          "internalType": "address",
          "name": "operator",
          "type": "address"
        },
        {
          "internalType": "address",
          "name": "from",
          "type": "address"
        },
        {
          "internalType": "uint256",
          "name": "tokenId",
          "type": "uint256"
        },
        {
          "internalType": "bytes",
          "name": "",
          "type": "bytes"
        }
      ],
      "name": "onERC721Received",
      "outputs": [
        {
          "internalType": "bytes4",
          "name": "",
          "type": "bytes4"
        }
      ],
      "stateMutability": "nonpayable",
      "type": "function"
    },
    {
      "inputs": [],
      "name": "pool",
      "outputs": [
        {
          "internalType": "contract IUniswapV3Pool",
          "name": "",
          "type": "address"
        }
      ],
      "stateMutability": "view",
      "type": "function"
    },
    {
      "inputs": [
        {
          "internalType": "address",
          "name": "to",
          "type": "address"
        },
        {
          "internalType": "address[]",
          "name": "tokens",
          "type": "address[]"
        },
        {
          "internalType": "uint256[]",
          "name": "tokenAmounts",
          "type": "uint256[]"
        },
        {
          "internalType": "bytes",
          "name": "options",
          "type": "bytes"
        }
      ],
      "name": "pull",
      "outputs": [
        {
          "internalType": "uint256[]",
          "name": "actualTokenAmounts",
          "type": "uint256[]"
        }
      ],
      "stateMutability": "nonpayable",
      "type": "function"
    },
    {
      "inputs": [
        {
          "internalType": "address[]",
          "name": "tokens",
          "type": "address[]"
        },
        {
          "internalType": "uint256[]",
          "name": "tokenAmounts",
          "type": "uint256[]"
        },
        {
          "internalType": "bytes",
          "name": "options",
          "type": "bytes"
        }
      ],
      "name": "push",
      "outputs": [
        {
          "internalType": "uint256[]",
          "name": "actualTokenAmounts",
          "type": "uint256[]"
        }
      ],
      "stateMutability": "nonpayable",
      "type": "function"
    },
    {
      "inputs": [
        {
          "internalType": "address",
          "name": "to",
          "type": "address"
        },
        {
          "internalType": "address[]",
          "name": "tokens",
          "type": "address[]"
        }
      ],
      "name": "reclaimTokens",
      "outputs": [],
      "stateMutability": "nonpayable",
      "type": "function"
    },
    {
      "inputs": [
        {
          "internalType": "address",
          "name": "newVaultGovernance",
          "type": "address"
        }
      ],
      "name": "setVaultGovernance",
      "outputs": [],
      "stateMutability": "nonpayable",
      "type": "function"
    },
    {
      "inputs": [
        {
          "internalType": "address",
          "name": "from",
          "type": "address"
        },
        {
          "internalType": "address[]",
          "name": "tokens",
          "type": "address[]"
        },
        {
          "internalType": "uint256[]",
          "name": "tokenAmounts",
          "type": "uint256[]"
        },
        {
          "internalType": "bytes",
          "name": "options",
          "type": "bytes"
        }
      ],
      "name": "transferAndPush",
      "outputs": [
        {
          "internalType": "uint256[]",
          "name": "actualTokenAmounts",
          "type": "uint256[]"
        }
      ],
      "stateMutability": "nonpayable",
      "type": "function"
    },
    {
      "inputs": [],
      "name": "tvl",
      "outputs": [
        {
          "internalType": "uint256[]",
          "name": "tokenAmounts",
          "type": "uint256[]"
        }
      ],
      "stateMutability": "view",
      "type": "function"
    },
    {
      "inputs": [],
      "name": "uniV3Nft",
      "outputs": [
        {
          "internalType": "uint256",
          "name": "",
          "type": "uint256"
        }
      ],
      "stateMutability": "view",
      "type": "function"
    },
    {
      "inputs": [],
      "name": "vaultGovernance",
      "outputs": [
        {
          "internalType": "contract IVaultGovernance",
          "name": "",
          "type": "address"
        }
      ],
      "stateMutability": "view",
      "type": "function"
    },
    {
      "inputs": [],
      "name": "vaultTokens",
      "outputs": [
        {
          "internalType": "address[]",
          "name": "",
          "type": "address[]"
        }
      ],
      "stateMutability": "view",
      "type": "function"
    }
  ],
  "bytecode": "0x60a06040523480156200001157600080fd5b5060405162004a2538038062004a2583398101604081905262000034916200053d565b8282828282600160008190555062000057816200030560201b62001a2f1760201c565b6040518060400160405280600381526020016253415560e81b815250906200009d5760405162461bcd60e51b815260040162000094919062000626565b60405180910390fd5b50600180546001600160a01b0319166001600160a01b0384161790558051620000ce90600290602084019062000441565b5060005b81518110156200013e57600160036000848481518110620000f757620000f76200067e565b6020908102919091018101516001600160a01b03168252810191909152604001600020805460ff1916911515919091179055806200013581620006aa565b915050620000d2565b5050600280546040805180820190915282815261151360f21b60208201529250146200017f5760405162461bcd60e51b815260040162000094919062000626565b506200018a620003ba565b6001600160a01b031663c45a01556040518163ffffffff1660e01b815260040160206040518083038186803b158015620001c357600080fd5b505afa158015620001d8573d6000803e3d6000fd5b505050506040513d601f19601f82011682018060405250810190620001fe9190620006c8565b6001600160a01b0316631698ee8260026000815481106200022357620002236200067e565b600091825260209091200154600280546001600160a01b039092169160019081106200025357620002536200067e565b60009182526020909120015460405160e084901b6001600160e01b03191681526001600160a01b0392831660048201529116602482015262ffffff8416604482015260640160206040518083038186803b158015620002b157600080fd5b505afa158015620002c6573d6000803e3d6000fd5b505050506040513d601f19601f82011682018060405250810190620002ec9190620006c8565b6001600160a01b03166080525062000775945050505050565b60006002825110156200031a57506001919050565b60005b600183516200032d9190620006ef565b811015620003b157826200034382600162000709565b815181106200035657620003566200067e565b60200260200101516001600160a01b03168382815181106200037c576200037c6200067e565b60200260200101516001600160a01b0316106200039c5750600092915050565b80620003a881620006aa565b9150506200031d565b50600192915050565b600154604080516301a6998760e71b815290516000926001600160a01b03169163d34cc380916004808301926020929190829003018186803b1580156200040057600080fd5b505afa15801562000415573d6000803e3d6000fd5b505050506040513d601f19601f820116820180604052508101906200043b919062000724565b51919050565b82805482825590600052602060002090810192821562000499579160200282015b828111156200049957825182546001600160a01b0319166001600160a01b0390911617825560209092019160019091019062000462565b50620004a7929150620004ab565b5090565b5b80821115620004a75760008155600101620004ac565b6001600160a01b0381168114620004d857600080fd5b50565b634e487b7160e01b600052604160045260246000fd5b604051601f8201601f191681016001600160401b03811182821017156200051c576200051c620004db565b604052919050565b805162ffffff811681146200053857600080fd5b919050565b6000806000606084860312156200055357600080fd5b83516200056081620004c2565b602085810151919450906001600160401b03808211156200058057600080fd5b818701915087601f8301126200059557600080fd5b815181811115620005aa57620005aa620004db565b8060051b9150620005bd848301620004f1565b818152918301840191848101908a841115620005d857600080fd5b938501935b83851015620006065784519250620005f583620004c2565b8282529385019390850190620005dd565b8097505050505050506200061d6040850162000524565b90509250925092565b600060208083528351808285015260005b81811015620006555785810183015185820160400152820162000637565b8181111562000668576000604083870101525b50601f01601f1916929092016040019392505050565b634e487b7160e01b600052603260045260246000fd5b634e487b7160e01b600052601160045260246000fd5b6000600019821415620006c157620006c162000694565b5060010190565b600060208284031215620006db57600080fd5b8151620006e881620004c2565b9392505050565b60008282101562000704576200070462000694565b500390565b600082198211156200071f576200071f62000694565b500190565b6000602082840312156200073757600080fd5b604051602081016001600160401b03811182821017156200075c576200075c620004db565b60405282516200076c81620004c2565b81529392505050565b6080516142866200079f6000396000818161013b015281816113d70152612e1901526142866000f3fe608060405234801561001057600080fd5b50600436106101005760003560e01c80636972223311610097578063e8216b8911610066578063e8216b891461027e578063f4adc08b14610291578063fe255a5e1461029a578063fe4b84df146102ab57600080fd5b8063697222331461021e578063a4612a5d14610233578063e504cab314610263578063e5328e061461027657600080fd5b806327a35e5a116100d357806327a35e5a146101aa578063338c4ccb146101bd57806347ccca02146101f9578063566ca6b41461020b57600080fd5b8063150b7a021461010557806316f0115b1461013657806318b4d37f146101755780632062d7541461018a575b600080fd5b610118610113366004613895565b6102be565b6040516001600160e01b031990911681526020015b60405180910390f35b61015d7f000000000000000000000000000000000000000000000000000000000000000081565b6040516001600160a01b03909116815260200161012d565b610188610183366004613900565b61061b565b005b61019d610198366004613a41565b61085a565b60405161012d9190613b0a565b61019d6101b8366004613a41565b610abf565b6101e96101cb366004613b1d565b6001600160a01b031660009081526003602052604090205460ff1690565b604051901515815260200161012d565b6004545b60405190815260200161012d565b61019d610219366004613b3a565b610c48565b610226610f5d565b60405161012d9190613bfa565b610188610241366004613b1d565b600180546001600160a01b0319166001600160a01b0392909216919091179055565b61019d610271366004613b1d565b610fbf565b61019d6112e0565b61018861028c366004613c0d565b6114e6565b6101fd60055481565b6001546001600160a01b031661015d565b6101886102b9366004613c52565b611886565b60006102c8611ad4565b6001600160a01b0316336001600160a01b03161461031a5760405162461bcd60e51b81526004016103119060208082526004908201526314d3919560e21b604082015260600190565b60405180910390fd5b61032385611b57565b6103555760405162461bcd60e51b815260206004820152600360248201526229aa2960e91b6044820152606401610311565b600080610360611ad4565b6001600160a01b03166399fbab88866040518263ffffffff1660e01b815260040161038d91815260200190565b6101806040518083038186803b1580156103a657600080fd5b505afa1580156103ba573d6000803e3d6000fd5b505050506040513d601f19601f820116820180604052508101906103de9190613cb2565b5050505050505050935093505050600260008154811061040057610400613d93565b6000918252602090912001546001600160a01b0383811691161480156104505750600260018154811061043557610435613d93565b6000918252602090912001546001600160a01b038281169116145b6104815760405162461bcd60e51b8152602060048201526002602482015261159560f21b6044820152606401610311565b60055415610602576000806000610496611ad4565b6001600160a01b03166399fbab886005546040518263ffffffff1660e01b81526004016104c591815260200190565b6101806040518083038186803b1580156104de57600080fd5b505afa1580156104f2573d6000803e3d6000fd5b505050506040513d601f19601f820116820180604052508101906105169190613cb2565b9b509b505050995050505050505050826001600160801b0316600014801561054557506001600160801b038216155b801561055857506001600160801b038116155b61058a5760405162461bcd60e51b815260206004820152600360248201526215159360ea1b6044820152606401610311565b610592611ad4565b6005546040516323b872dd60e01b81523060048201526001600160a01b038c8116602483015260448201929092529116906323b872dd90606401600060405180830381600087803b1580156105e657600080fd5b505af11580156105fa573d6000803e3d6000fd5b505050505050505b5050506005829055630a85bd0160e11b5b949350505050565b610623611c63565b600060045411604051806040016040528060048152602001631253925560e21b815250906106645760405162461bcd60e51b81526004016103119190613dd5565b5061066e33611cbd565b60405180604001604052806002815260200161494f60f01b815250906106a75760405162461bcd60e51b81526004016103119190613dd5565b5060015460408051637ac46fbb60e01b815281516000936001600160a01b031692637ac46fbb9260048082019391829003018186803b1580156106e957600080fd5b505afa1580156106fd573d6000803e3d6000fd5b505050506040513d601f19601f820116820180604052508101906107219190613e08565b5160405163884289e360e01b81526001600160a01b0385811660048301529192509082169063884289e39060240160206040518083038186803b15801561076757600080fd5b505afa15801561077b573d6000803e3d6000fd5b505050506040513d601f19601f8201168201806040525081019061079f9190613e76565b60405180604001604052806002815260200161414360f01b815250906107d85760405162461bcd60e51b81526004016103119190613dd5565b50600080846001600160a01b0316846040516107f49190613e91565b6000604051808303816000865af19150503d8060008114610831576040519150601f19603f3d011682016040523d82523d6000602084013e610836565b606091505b5091509150816108495780518082602001fd5b5050506108566001600055565b5050565b6060610864611c63565b61086d33611cbd565b61089e5760405162461bcd60e51b8152602060048201526002602482015261494f60f01b6044820152606401610311565b60015460408051637ac46fbb60e01b815281516000936001600160a01b031692637ac46fbb9260048082019391829003018186803b1580156108df57600080fd5b505afa1580156108f3573d6000803e3d6000fd5b505050506040513d601f19601f820116820180604052508101906109179190613e08565b60200151600480546040516331a9108f60e11b8152918201529091506000906001600160a01b03831690636352211e9060240160206040518083038186803b15801561096257600080fd5b505afa158015610976573d6000803e3d6000fd5b505050506040513d601f19601f8201168201806040525081019061099a9190613ead565b90506001600160a01b0381163314806109b757506109b787611e6f565b60405180604001604052806005815260200164494e54524160d81b815250906109f35760405162461bcd60e51b81526004016103119190613dd5565b506000610a00878761213d565b90506000610a0f898388612226565b9050610a76886002805480602002602001604051908101604052809291908181526020018280548015610a6b57602002820191906000526020600020905b81546001600160a01b03168152600190910190602001808311610a4d575b5050505050836122bf565b94507f54f9e6ef58e36de62f59f9ee6c4b878af84989c53a3642eba415ac3ac4e11cda8986604051610aa9929190613eca565b60405180910390a1505050506106136001600055565b606060005b8451811015610b53576000848281518110610ae157610ae1613d93565b60200260200101511115610b4157610b418630868481518110610b0657610b06613d93565b6020026020010151888581518110610b2057610b20613d93565b60200260200101516001600160a01b03166124e0909392919063ffffffff16565b80610b4b81613f04565b915050610ac4565b50610b5f848484610c48565b905060005b8451811015610c3f576000848281518110610b8157610b81613d93565b6020026020010151838381518110610b9b57610b9b613d93565b602002602001015110610baf576000610bed565b828281518110610bc157610bc1613d93565b6020026020010151858381518110610bdb57610bdb613d93565b6020026020010151610bed9190613f1f565b90508015610c2c57610c2c8782888581518110610c0c57610c0c613d93565b60200260200101516001600160a01b03166125519092919063ffffffff16565b5080610c3781613f04565b915050610b64565b50949350505050565b6060610c52611c63565b6004805460408051808201909152918252631253925560e21b60208301529081610c8f5760405162461bcd60e51b81526004016103119190613dd5565b50610c9933611cbd565b60405180604001604052806002815260200161494f60f01b81525090610cd25760405162461bcd60e51b81526004016103119190613dd5565b5060015460408051637ac46fbb60e01b815281516000936001600160a01b031692637ac46fbb9260048082019391829003018186803b158015610d1457600080fd5b505afa158015610d28573d6000803e3d6000fd5b505050506040513d601f19601f82011682018060405250810190610d4c9190613e08565b602001516040516331a9108f60e11b8152600481018490529091506000906001600160a01b03831690636352211e9060240160206040518083038186803b158015610d9657600080fd5b505afa158015610daa573d6000803e3d6000fd5b505050506040513d601f19601f82011682018060405250810190610dce9190613ead565b60405163fcdabd2760e01b81526001600160a01b03808316600483015291925060009184169063fcdabd279060240160206040518083038186803b158015610e1557600080fd5b505afa158015610e29573d6000803e3d6000fd5b505050506040513d601f19601f82011682018060405250810190610e4d9190613f36565b9050600081116040518060400160405280600381526020016227abab60e91b81525090610e8d5760405162461bcd60e51b81526004016103119190613dd5565b506000610e9a898961213d565b90506000610ea88289612586565b9050610f0d8a6002805480602002602001604051908101604052809291908181526020018280548015610a6b576020028201919060005260206000209081546001600160a01b03168152600190910190602001808311610a4d575050505050836122bf565b96507f08e404e978692dd1b8275016b7a7b0b3ae4afd06b0cec7228060bb2da18c84fd81604051610f3e9190613b0a565b60405180910390a1505050505050610f566001600055565b9392505050565b60606002805480602002602001604051908101604052809291908181526020018280548015610fb557602002820191906000526020600020905b81546001600160a01b03168152600190910190602001808311610f97575b5050505050905090565b6060610fc9611c63565b610fd233611cbd565b60405180604001604052806002815260200161494f60f01b8152509061100b5760405162461bcd60e51b81526004016103119190613dd5565b5060015460408051637ac46fbb60e01b815281516000936001600160a01b031692637ac46fbb9260048082019391829003018186803b15801561104d57600080fd5b505afa158015611061573d6000803e3d6000fd5b505050506040513d601f19601f820116820180604052508101906110859190613e08565b60200151600480546040516331a9108f60e11b8152918201529091506000906001600160a01b03831690636352211e9060240160206040518083038186803b1580156110d057600080fd5b505afa1580156110e4573d6000803e3d6000fd5b505050506040513d601f19601f820116820180604052508101906111089190613ead565b90506001600160a01b038116331480611125575061112584611e6f565b60405180604001604052806005815260200164494e54524160d81b815250906111615760405162461bcd60e51b81526004016103119190613dd5565b50604080516002808252606082018352909160208301908036833701905050925060008061118d611ad4565b6040805160808101825260055481526001600160a01b0389811660208301526001600160801b038284018190526060830152915163fc6f786560e01b8152929091169163fc6f7865916111e291600401613f4f565b6040805180830381600087803b1580156111fb57600080fd5b505af115801561120f573d6000803e3d6000fd5b505050506040513d601f19601f820116820180604052508101906112339190613f92565b91509150818560008151811061124b5761124b613d93565b602002602001018181525050808560018151811061126b5761126b613d93565b602002602001018181525050856001600160a01b0316326001600160a01b03167f148a74163008e35e1831546f25b89a4cacad54c2ff2080ca8b839d37da13b6d784846040516112c5929190918252602082015260400190565b60405180910390a3505050506112db6001600055565b919050565b6002546060906001600160401b038111156112fd576112fd6137e0565b604051908082528060200260200182016040528015611326578160200160208202803683370190505b509050600554600014156113375790565b6000806000611344611ad4565b6001600160a01b03166399fbab886005546040518263ffffffff1660e01b815260040161137391815260200190565b6101806040518083038186803b15801561138c57600080fd5b505afa1580156113a0573d6000803e3d6000fd5b505050506040513d601f19601f820116820180604052508101906113c49190613cb2565b50505050975097509750505050505060007f00000000000000000000000000000000000000000000000000000000000000006001600160a01b0316633850c7bd6040518163ffffffff1660e01b815260040160e06040518083038186803b15801561142e57600080fd5b505afa158015611442573d6000803e3d6000fd5b505050506040513d601f19601f820116820180604052508101906114669190613fc8565b505050505050905060006114798561280a565b905060006114868561280a565b905060008061149785858589612c1f565b9150915081896000815181106114af576114af613d93565b60200260200101818152505080896001815181106114cf576114cf613d93565b602002602001018181525050505050505050505090565b6114ee611c63565b600060045411604051806040016040528060048152602001631253925560e21b8152509061152f5760405162461bcd60e51b81526004016103119190613dd5565b5060015460408051637ac46fbb60e01b815281516000936001600160a01b031692637ac46fbb9260048082019391829003018186803b15801561157157600080fd5b505afa158015611585573d6000803e3d6000fd5b505050506040513d601f19601f820116820180604052508101906115a99190613e08565b51604051630935e01b60e21b81523360048201529091506000906001600160a01b038316906324d7806c9060240160206040518083038186803b1580156115ef57600080fd5b505afa158015611603573d6000803e3d6000fd5b505050506040513d601f19601f820116820180604052508101906116279190613e76565b90508080611639575061163933611cbd565b6040518060400160405280600381526020016241444d60e81b815250906116735760405162461bcd60e51b81526004016103119190613dd5565b50806116c05761168284611e6f565b60405180604001604052806005815260200164494e54524160d81b815250906116be5760405162461bcd60e51b81526004016103119190613dd5565b505b600083516001600160401b038111156116db576116db6137e0565b604051908082528060200260200182016040528015611704578160200160208202803683370190505b50905060005b845181101561183d57600085828151811061172757611727613d93565b60209081029190910101516040516370a0823160e01b81523060048201529091506001600160a01b038216906370a082319060240160206040518083038186803b15801561177457600080fd5b505afa158015611788573d6000803e3d6000fd5b505050506040513d601f19601f820116820180604052508101906117ac9190613f36565b8383815181106117be576117be613d93565b6020026020010181815250508282815181106117dc576117dc613d93565b6020026020010151600014156117f2575061182b565b6118298784848151811061180857611808613d93565b6020026020010151836001600160a01b03166125519092919063ffffffff16565b505b8061183581613f04565b91505061170a565b507f9efcb26e0cf572bd9171640e114f387cef91cd3e38532ed6b3f80c7f2e758f8785858360405161187193929190614058565b60405180910390a15050506108566001600055565b600154604080518082019091526002815261564760f01b6020820152906001600160a01b031633146118cb5760405162461bcd60e51b81526004016103119190613dd5565b5060408051808201909152600481526304e4654360e41b6020820152816119055760405162461bcd60e51b81526004016103119190613dd5565b506004805460408051808201909152918252631253925560e21b6020830152156119425760405162461bcd60e51b81526004016103119190613dd5565b50600481815560015460408051637ac46fbb60e01b815281516000946001600160a01b0390941693637ac46fbb938382019390929190829003018186803b15801561198c57600080fd5b505afa1580156119a0573d6000803e3d6000fd5b505050506040513d601f19601f820116820180604052508101906119c49190613e08565b6020015160405163a22cb46560e01b81526001600160a01b038216600482018190526001602483015291925063a22cb46590604401600060405180830381600087803b158015611a1357600080fd5b505af1158015611a27573d6000803e3d6000fd5b505050505050565b6000600282511015611a4357506001919050565b60005b60018351611a549190613f1f565b811015611acb5782611a67826001614098565b81518110611a7757611a77613d93565b60200260200101516001600160a01b0316838281518110611a9a57611a9a613d93565b60200260200101516001600160a01b031610611ab95750600092915050565b80611ac381613f04565b915050611a46565b50600192915050565b600154604080516301a6998760e71b815290516000926001600160a01b03169163d34cc380916004808301926020929190829003018186803b158015611b1957600080fd5b505afa158015611b2d573d6000803e3d6000fd5b505050506040513d601f19601f82011682018060405250810190611b5191906140b0565b51919050565b60015460408051637ac46fbb60e01b815281516000936001600160a01b0380871694911692637ac46fbb9260048083019392829003018186803b158015611b9d57600080fd5b505afa158015611bb1573d6000803e3d6000fd5b505050506040513d601f19601f82011682018060405250810190611bd59190613e08565b602001516004805460405163020604bf60e21b8152918201526001600160a01b039091169063081812fc9060240160206040518083038186803b158015611c1b57600080fd5b505afa158015611c2f573d6000803e3d6000fd5b505050506040513d601f19601f82011682018060405250810190611c539190613ead565b6001600160a01b03161492915050565b60026000541415611cb65760405162461bcd60e51b815260206004820152601f60248201527f5265656e7472616e637947756172643a207265656e7472616e742063616c6c006044820152606401610311565b6002600055565b60015460408051637ac46fbb60e01b8152815160009384936001600160a01b0390911692637ac46fbb9260048083019392829003018186803b158015611d0257600080fd5b505afa158015611d16573d6000803e3d6000fd5b505050506040513d601f19601f82011682018060405250810190611d3a9190613e08565b6020015160045490915080611d53575060009392505050565b60405163020604bf60e21b8152600481018290526001600160a01b03808616919084169063081812fc9060240160206040518083038186803b158015611d9857600080fd5b505afa158015611dac573d6000803e3d6000fd5b505050506040513d601f19601f82011682018060405250810190611dd09190613ead565b6001600160a01b0316148061061357506040516331a9108f60e11b8152600481018290526001600160a01b038086169190841690636352211e9060240160206040518083038186803b158015611e2557600080fd5b505afa158015611e39573d6000803e3d6000fd5b505050506040513d601f19601f82011682018060405250810190611e5d9190613ead565b6001600160a01b031614949350505050565b6000813b63ffffffff16611e8557506000919050565b60015460408051637ac46fbb60e01b815281516000936001600160a01b031692637ac46fbb9260048082019391829003018186803b158015611ec657600080fd5b505afa158015611eda573d6000803e3d6000fd5b505050506040513d601f19601f82011682018060405250810190611efe9190613e08565b60200151905060045460001415611f185750600092915050565b600480546040516331a9108f60e11b8152918201526000906001600160a01b03831690636352211e9060240160206040518083038186803b158015611f5c57600080fd5b505afa158015611f70573d6000803e3d6000fd5b505050506040513d601f19601f82011682018060405250810190611f949190613ead565b60405163fcdabd2760e01b81526001600160a01b03808316600483015291925060009184169063fcdabd279060240160206040518083038186803b158015611fdb57600080fd5b505afa158015611fef573d6000803e3d6000fd5b505050506040513d601f19601f820116820180604052508101906120139190613f36565b90508061202557506000949350505050565b604051638333903b60e01b815230600482015282906001600160a01b03821690638333903b9060240160206040518083038186803b15801561206657600080fd5b505afa15801561207a573d6000803e3d6000fd5b505050506040513d601f19601f8201168201806040525081019061209e9190613e76565b15806121205750604051638333903b60e01b81526001600160a01b038781166004830152821690638333903b9060240160206040518083038186803b1580156120e657600080fd5b505afa1580156120fa573d6000803e3d6000fd5b505050506040513d601f19601f8201168201806040525081019061211e9190613e76565b155b156121315750600095945050505050565b50600195945050505050565b606061214883611a2f565b6040518060400160405280600381526020016253415560e81b815250906121825760405162461bcd60e51b81526004016103119190613dd5565b508151835114604051806040016040528060018152602001601360fa1b815250906121c05760405162461bcd60e51b81526004016103119190613dd5565b50610f56600280548060200260200160405190810160405280929190818152602001828054801561221a57602002820191906000526020600020905b81546001600160a01b031681526001909101906020018083116121fc575b505050505084846122bf565b604080516002808252606080830184529260208301908036833750506005549192505061225257610f56565b600061225d83612cbb565b9050600061226c858784612d64565b905080600001518360008151811061228657612286613d93565b6020026020010181815250508060200151836001815181106122aa576122aa613d93565b60200260200101818152505050509392505050565b6060600084516001600160401b038111156122dc576122dc6137e0565b604051908082528060200260200182016040528015612305578160200160208202803683370190505b5090506000805b86518210801561231c5750855181105b1561249b5785818151811061233357612333613d93565b60200260200101516001600160a01b031687838151811061235657612356613d93565b60200260200101516001600160a01b0316101561239e57600083838151811061238157612381613d93565b60209081029190910101528161239681613f04565b92505061230c565b8581815181106123b0576123b0613d93565b60200260200101516001600160a01b03168783815181106123d3576123d3613d93565b60200260200101516001600160a01b0316111561244c578481815181106123fc576123fc613d93565b60200260200101516000141561241e578061241681613f04565b91505061230c565b60405162461bcd60e51b815260206004820152600360248201526254505360e81b6044820152606401610311565b84818151811061245e5761245e613d93565b602002602001015183838151811061247857612478613d93565b60209081029190910101528161248d81613f04565b925050808061241690613f04565b86518210156124d55760008383815181106124b8576124b8613d93565b6020908102919091010152816124cd81613f04565b92505061249b565b509095945050505050565b6040516001600160a01b038085166024830152831660448201526064810182905261254b9085906323b872dd60e01b906084015b60408051601f198184030181529190526020810180516001600160e01b03166001600160e01b031990931692909217909152613145565b50505050565b6040516001600160a01b03831660248201526044810182905261258190849063a9059cbb60e01b90606401612514565b505050565b6060600060028054806020026020016040519081016040528092919081815260200182805480156125e057602002820191906000526020600020905b81546001600160a01b031681526001909101906020018083116125c2575b5050505050905060005b81518110156126275761261582828151811061260857612608613d93565b602002602001015161321a565b8061261f81613f04565b9150506125ea565b5060408051600280825260608201835290916020830190803683375050600554919350506126555750612804565b600061266084612cbb565b9050600060405180604001604052808760008151811061268257612682613d93565b60200260200101518152602001876001815181106126a2576126a2613d93565b602002602001015181525090506000604051806040016040528084600001518152602001846020015181525090506000806126db611ad4565b6040805160c0810182526005548152865160208083019182528089015183850190815288516060850190815291890151608085019081528b86015160a08601908152955163219f5d1760e01b81529451600486015292516024850152516044840152516064830152516084820152905160a48201526001600160a01b03919091169063219f5d179060c401606060405180830381600087803b15801561278057600080fd5b505af1158015612794573d6000803e3d6000fd5b505050506040513d601f19601f820116820180604052508101906127b891906140fb565b925092505081876000815181106127d1576127d1613d93565b60200260200101818152505080876001815181106127f1576127f1613d93565b6020026020010181815250505050505050505b92915050565b60008060008360020b12612821578260020b61282e565b8260020b61282e90614130565b905061283d620d89e71961414d565b60020b8111156128735760405162461bcd60e51b81526020600482015260016024820152601560fa1b6044820152606401610311565b60006001821661288757600160801b612899565b6ffffcb933bd6fad37aa2d162d1a5940015b70ffffffffffffffffffffffffffffffffff16905060028216156128d85760806128d3826ffff97272373d413259a46990580e213a614170565b901c90505b60048216156129025760806128fd826ffff2e50f5f656932ef12357cf3c7fdcc614170565b901c90505b600882161561292c576080612927826fffe5caca7e10e4e61c3624eaa0941cd0614170565b901c90505b6010821615612956576080612951826fffcb9843d60f6159c9db58835c926644614170565b901c90505b602082161561298057608061297b826fff973b41fa98c081472e6896dfb254c0614170565b901c90505b60408216156129aa5760806129a5826fff2ea16466c96a3843ec78b326b52861614170565b901c90505b60808216156129d45760806129cf826ffe5dee046a99a2a811c461f1969c3053614170565b901c90505b6101008216156129ff5760806129fa826ffcbe86c7900a88aedcffc83b479aa3a4614170565b901c90505b610200821615612a2a576080612a25826ff987a7253ac413176f2b074cf7815e54614170565b901c90505b610400821615612a55576080612a50826ff3392b0822b70005940c7a398e4b70f3614170565b901c90505b610800821615612a80576080612a7b826fe7159475a2c29b7443b29c7fa6e889d9614170565b901c90505b611000821615612aab576080612aa6826fd097f3bdfd2022b8845ad8f792aa5825614170565b901c90505b612000821615612ad6576080612ad1826fa9f746462d870fdf8a65dc1f90e061e5614170565b901c90505b614000821615612b01576080612afc826f70d869a156d2a1b890bb3df62baf32f7614170565b901c90505b618000821615612b2c576080612b27826f31be135f97d08fd981231505542fcfa6614170565b901c90505b62010000821615612b58576080612b53826f09aa508b5b7a84e1c677de54f3e99bc9614170565b901c90505b62020000821615612b83576080612b7e826e5d6af8dedb81196699c329225ee604614170565b901c90505b62040000821615612bad576080612ba8826d2216e584f5fa1ea926041bedfe98614170565b901c90505b62080000821615612bd5576080612bd0826b048a170391f7dc42444e8fa2614170565b901c90505b60008460020b1315612bf057612bed816000196141a5565b90505b612bff640100000000826141b9565b15612c0b576001612c0e565b60005b6106139060ff16602083901c614098565b600080836001600160a01b0316856001600160a01b03161115612c40579293925b846001600160a01b0316866001600160a01b031611612c6b57612c6485858561335c565b9150612cb2565b836001600160a01b0316866001600160a01b03161015612ca457612c9086858561335c565b9150612c9d8587856133cf565b9050612cb2565b612caf8585856133cf565b90505b94509492505050565b612cdf60405180606001604052806000815260200160008152602001600081525090565b8151612d10576040805160608101825260008082526020820152908101612d0842610258614098565b905292915050565b8151606014604051806040016040528060038152602001621253d360ea1b81525090612d4f5760405162461bcd60e51b81526004016103119190613dd5565b508180602001905181019061280491906141cd565b6040805180820190915260008082526020820152600080600080612d86611ad4565b6001600160a01b03166399fbab886005546040518263ffffffff1660e01b8152600401612db591815260200190565b6101806040518083038186803b158015612dce57600080fd5b505afa158015612de2573d6000803e3d6000fd5b505050506040513d601f19601f82011682018060405250810190612e069190613cb2565b50505050975097509750505050505060007f00000000000000000000000000000000000000000000000000000000000000006001600160a01b0316633850c7bd6040518163ffffffff1660e01b815260040160e06040518083038186803b158015612e7057600080fd5b505afa158015612e84573d6000803e3d6000fd5b505050506040513d601f19601f82011682018060405250810190612ea89190613fc8565b50505050505090506000612ebb8561280a565b90506000612ec88561280a565b9050612f0b8383838e600081518110612ee357612ee3613d93565b60200260200101518f600181518110612efe57612efe613d93565b6020026020010151613419565b9650866001600160801b0316846001600160801b031610612f2c5786612f2e565b835b96506001600160801b038716612f63576040518060400160405280600081526020016000815250975050505050505050610f56565b505050505050600060405180604001604052808560000151815260200185602001518152509050600080612f95611ad4565b6040805160a08101825260055481526001600160801b038088166020808401918252885184860190815290890151606085019081528c860151608086019081529551630624e65f60e11b8152945160048601529151909216602484015290516044830152516064820152905160848201526001600160a01b039190911690630c49ccbe9060a4016040805180830381600087803b15801561303557600080fd5b505af1158015613049573d6000803e3d6000fd5b505050506040513d601f19601f8201168201806040525081019061306d9190613f92565b9150915060008061307c611ad4565b6040805160808101825260055481526001600160a01b038c811660208301526001600160801b038089168385015287166060830152915163fc6f786560e01b8152929091169163fc6f7865916130d491600401613f4f565b6040805180830381600087803b1580156130ed57600080fd5b505af1158015613101573d6000803e3d6000fd5b505050506040513d601f19601f820116820180604052508101906131259190613f92565b6040805180820190915291825260208201529a9950505050505050505050565b600061319a826040518060400160405280602081526020017f5361666545524332303a206c6f772d6c6576656c2063616c6c206661696c6564815250856001600160a01b03166134dd9092919063ffffffff16565b90508051600014806131bb5750808060200190518101906131bb9190613e76565b6125815760405162461bcd60e51b815260206004820152602a60248201527f5361666545524332303a204552433230206f7065726174696f6e20646964206e6044820152691bdd081cdd58d8d9595960b21b6064820152608401610311565b61322760026000196141a5565b816001600160a01b031663dd62ed3e61323e611ad4565b6040516001600160e01b031960e084901b1681526001600160a01b03909116600482015230602482015260440160206040518083038186803b15801561328357600080fd5b505afa158015613297573d6000803e3d6000fd5b505050506040513d601f19601f820116820180604052508101906132bb9190613f36565b101561335957806001600160a01b031663095ea7b36132d8611ad4565b6040516001600160e01b031960e084901b1681526001600160a01b0390911660048201526000196024820152604401602060405180830381600087803b15801561332157600080fd5b505af1158015613335573d6000803e3d6000fd5b505050506040513d601f19601f820116820180604052508101906108569190613e76565b50565b6000826001600160a01b0316846001600160a01b0316111561337c579192915b6001600160a01b0384166133c56fffffffffffffffffffffffffffffffff60601b606085901b166133ad8787614228565b6001600160a01b0316866001600160a01b03166134ec565b61061391906141a5565b6000826001600160a01b0316846001600160a01b031611156133ef579192915b6106136001600160801b0383166134068686614228565b6001600160a01b0316600160601b6134ec565b6000836001600160a01b0316856001600160a01b03161115613439579293925b846001600160a01b0316866001600160a01b0316116134645761345d85858561359f565b90506134d4565b836001600160a01b0316866001600160a01b031610156134c657600061348b87868661359f565b9050600061349a878986613609565b9050806001600160801b0316826001600160801b0316106134bb57806134bd565b815b925050506134d4565b6134d1858584613609565b90505b95945050505050565b6060610613848460008561363f565b600080806000198587098587029250828110838203039150508060001415613526576000841161351b57600080fd5b508290049050610f56565b80841161353257600080fd5b6000848688096000868103871696879004966002600389028118808a02820302808a02820302808a02820302808a02820302808a02820302808a02909103029181900381900460010186841190950394909402919094039290920491909117919091029150509392505050565b6000826001600160a01b0316846001600160a01b031611156135bf579192915b60006135e2856001600160a01b0316856001600160a01b0316600160601b6134ec565b90506134d461360484836135f68989614228565b6001600160a01b03166134ec565b61371a565b6000826001600160a01b0316846001600160a01b03161115613629579192915b61061361360483600160601b6135f68888614228565b6060824710156136a05760405162461bcd60e51b815260206004820152602660248201527f416464726573733a20696e73756666696369656e742062616c616e636520666f6044820152651c8818d85b1b60d21b6064820152608401610311565b600080866001600160a01b031685876040516136bc9190613e91565b60006040518083038185875af1925050503d80600081146136f9576040519150601f19603f3d011682016040523d82523d6000602084013e6136fe565b606091505b509150915061370f87838387613730565b979650505050505050565b806001600160801b03811681146112db57600080fd5b6060831561379c578251613795576001600160a01b0385163b6137955760405162461bcd60e51b815260206004820152601d60248201527f416464726573733a2063616c6c20746f206e6f6e2d636f6e74726163740000006044820152606401610311565b5081610613565b61061383838151156137b15781518083602001fd5b8060405162461bcd60e51b81526004016103119190613dd5565b6001600160a01b038116811461335957600080fd5b634e487b7160e01b600052604160045260246000fd5b604051601f8201601f191681016001600160401b038111828210171561381e5761381e6137e0565b604052919050565b600082601f83011261383757600080fd5b81356001600160401b03811115613850576138506137e0565b613863601f8201601f19166020016137f6565b81815284602083860101111561387857600080fd5b816020850160208301376000918101602001919091529392505050565b600080600080608085870312156138ab57600080fd5b84356138b6816137cb565b935060208501356138c6816137cb565b92506040850135915060608501356001600160401b038111156138e857600080fd5b6138f487828801613826565b91505092959194509250565b6000806040838503121561391357600080fd5b823561391e816137cb565b915060208301356001600160401b0381111561393957600080fd5b61394585828601613826565b9150509250929050565b60006001600160401b03821115613968576139686137e0565b5060051b60200190565b600082601f83011261398357600080fd5b813560206139986139938361394f565b6137f6565b82815260059290921b840181019181810190868411156139b757600080fd5b8286015b848110156139db5780356139ce816137cb565b83529183019183016139bb565b509695505050505050565b600082601f8301126139f757600080fd5b81356020613a076139938361394f565b82815260059290921b84018101918181019086841115613a2657600080fd5b8286015b848110156139db5780358352918301918301613a2a565b60008060008060808587031215613a5757600080fd5b8435613a62816137cb565b935060208501356001600160401b0380821115613a7e57600080fd5b613a8a88838901613972565b94506040870135915080821115613aa057600080fd5b613aac888389016139e6565b93506060870135915080821115613ac257600080fd5b506138f487828801613826565b600081518084526020808501945080840160005b83811015613aff57815187529582019590820190600101613ae3565b509495945050505050565b602081526000610f566020830184613acf565b600060208284031215613b2f57600080fd5b8135610f56816137cb565b600080600060608486031215613b4f57600080fd5b83356001600160401b0380821115613b6657600080fd5b613b7287838801613972565b94506020860135915080821115613b8857600080fd5b613b94878388016139e6565b93506040860135915080821115613baa57600080fd5b50613bb786828701613826565b9150509250925092565b600081518084526020808501945080840160005b83811015613aff5781516001600160a01b031687529582019590820190600101613bd5565b602081526000610f566020830184613bc1565b60008060408385031215613c2057600080fd5b8235613c2b816137cb565b915060208301356001600160401b03811115613c4657600080fd5b61394585828601613972565b600060208284031215613c6457600080fd5b5035919050565b80516112db816137cb565b805162ffffff811681146112db57600080fd5b8051600281900b81146112db57600080fd5b80516001600160801b03811681146112db57600080fd5b6000806000806000806000806000806000806101808d8f031215613cd557600080fd5b8c516bffffffffffffffffffffffff81168114613cf157600080fd5b9b50613cff60208e01613c6b565b9a50613d0d60408e01613c6b565b9950613d1b60608e01613c6b565b9850613d2960808e01613c76565b9750613d3760a08e01613c89565b9650613d4560c08e01613c89565b9550613d5360e08e01613c9b565b94506101008d015193506101208d01519250613d726101408e01613c9b565b9150613d816101608e01613c9b565b90509295989b509295989b509295989b565b634e487b7160e01b600052603260045260246000fd5b60005b83811015613dc4578181015183820152602001613dac565b8381111561254b5750506000910152565b6020815260008251806020840152613df4816040850160208701613da9565b601f01601f19169190910160400192915050565b600060408284031215613e1a57600080fd5b604051604081018181106001600160401b0382111715613e3c57613e3c6137e0565b6040528251613e4a816137cb565b81526020830151613e5a816137cb565b60208201529392505050565b805180151581146112db57600080fd5b600060208284031215613e8857600080fd5b610f5682613e66565b60008251613ea3818460208701613da9565b9190910192915050565b600060208284031215613ebf57600080fd5b8151610f56816137cb565b6001600160a01b038316815260406020820181905260009061061390830184613acf565b634e487b7160e01b600052601160045260246000fd5b6000600019821415613f1857613f18613eee565b5060010190565b600082821015613f3157613f31613eee565b500390565b600060208284031215613f4857600080fd5b5051919050565b815181526020808301516001600160a01b0316908201526040808301516001600160801b0390811691830191909152606092830151169181019190915260800190565b60008060408385031215613fa557600080fd5b505080516020909101519092909150565b805161ffff811681146112db57600080fd5b600080600080600080600060e0888a031215613fe357600080fd5b8751613fee816137cb565b9650613ffc60208901613c89565b955061400a60408901613fb6565b945061401860608901613fb6565b935061402660808901613fb6565b925060a088015160ff8116811461403c57600080fd5b915061404a60c08901613e66565b905092959891949750929550565b6001600160a01b038416815260606020820181905260009061407c90830185613bc1565b828103604084015261408e8185613acf565b9695505050505050565b600082198211156140ab576140ab613eee565b500190565b6000602082840312156140c257600080fd5b604051602081018181106001600160401b03821117156140e4576140e46137e0565b60405282516140f2816137cb565b81529392505050565b60008060006060848603121561411057600080fd5b61411984613c9b565b925060208401519150604084015190509250925092565b6000600160ff1b82141561414657614146613eee565b5060000390565b60008160020b627fffff1981141561416757614167613eee565b60000392915050565b600081600019048311821515161561418a5761418a613eee565b500290565b634e487b7160e01b600052601260045260246000fd5b6000826141b4576141b461418f565b500490565b6000826141c8576141c861418f565b500690565b6000606082840312156141df57600080fd5b604051606081018181106001600160401b0382111715614201576142016137e0565b80604052508251815260208301516020820152604083015160408201528091505092915050565b60006001600160a01b038381169083168181101561424857614248613eee565b03939250505056fea26469706673582212206eed3301befc4331c08d46cb124defac672e9552e0114fd6eb33556d7050452a64736f6c63430008090033",
  "linkReferences": {},
  "deployedLinkReferences": {}
}