{
  "_format": "hh-sol-artifact-1",
  "contractName": "FaucetERC20",
  "sourceName": "contracts/tests/FaucetERC20.sol",
  "abi": [
    {
      "anonymous": false,
      "inputs": [
        {
          "indexed": true,
          "internalType": "address",
          "name": "owner",
          "type": "address"
        },
        {
          "indexed": true,
          "internalType": "address",
          "name": "spender",
          "type": "address"
        },
        {
          "indexed": false,
          "internalType": "uint256",
          "name": "value",
          "type": "uint256"
        }
      ],
      "name": "Approval",
      "type": "event"
    },
    {
      "anonymous": false,
      "inputs": [
        {
          "indexed": true,
          "internalType": "address",
          "name": "from",
          "type": "address"
        },
        {
          "indexed": true,
          "internalType": "address",
          "name": "to",
          "type": "address"
        },
        {
          "indexed": false,
          "internalType": "uint256",
          "name": "value",
          "type": "uint256"
        }
      ],
      "name": "Transfer",
      "type": "event"
    },
    {
      "inputs": [],
      "name": "DOMAIN_SEPARATOR",
      "outputs": [
        {
          "internalType": "bytes32",
          "name": "",
          "type": "bytes32"
        }
      ],
      "stateMutability": "view",
      "type": "function"
    },
    {
      "inputs": [],
      "name": "PERMIT_TYPEHASH",
      "outputs": [
        {
          "internalType": "bytes32",
          "name": "",
          "type": "bytes32"
        }
      ],
      "stateMutability": "view",
      "type": "function"
    },
    {
      "inputs": [
        {
          "internalType": "string",
          "name": "name",
          "type": "string"
        },
        {
          "internalType": "string",
          "name": "symbol",
          "type": "string"
        }
      ],
      "name": "__FaucetERC20_init",
      "outputs": [],
      "stateMutability": "nonpayable",
      "type": "function"
    },
    {
      "inputs": [
        {
          "internalType": "address",
          "name": "owner",
          "type": "address"
        },
        {
          "internalType": "address",
          "name": "spender",
          "type": "address"
        }
      ],
      "name": "allowance",
      "outputs": [
        {
          "internalType": "uint256",
          "name": "",
          "type": "uint256"
        }
      ],
      "stateMutability": "view",
      "type": "function"
    },
    {
      "inputs": [
        {
          "internalType": "address",
          "name": "spender",
          "type": "address"
        },
        {
          "internalType": "uint256",
          "name": "amount",
          "type": "uint256"
        }
      ],
      "name": "approve",
      "outputs": [
        {
          "internalType": "bool",
          "name": "",
          "type": "bool"
        }
      ],
      "stateMutability": "nonpayable",
      "type": "function"
    },
    {
      "inputs": [
        {
          "internalType": "address",
          "name": "account",
          "type": "address"
        }
      ],
      "name": "balanceOf",
      "outputs": [
        {
          "internalType": "uint256",
          "name": "",
          "type": "uint256"
        }
      ],
      "stateMutability": "view",
      "type": "function"
    },
    {
      "inputs": [
        {
          "internalType": "address",
          "name": "to",
          "type": "address"
        },
        {
          "internalType": "uint256",
          "name": "value",
          "type": "uint256"
        }
      ],
      "name": "burn",
      "outputs": [
        {
          "internalType": "bool",
          "name": "",
          "type": "bool"
        }
      ],
      "stateMutability": "nonpayable",
      "type": "function"
    },
    {
      "inputs": [],
      "name": "decimals",
      "outputs": [
        {
          "internalType": "uint8",
          "name": "",
          "type": "uint8"
        }
      ],
      "stateMutability": "view",
      "type": "function"
    },
    {
      "inputs": [
        {
          "internalType": "address",
          "name": "spender",
          "type": "address"
        },
        {
          "internalType": "uint256",
          "name": "subtractedValue",
          "type": "uint256"
        }
      ],
      "name": "decreaseAllowance",
      "outputs": [
        {
          "internalType": "bool",
          "name": "",
          "type": "bool"
        }
      ],
      "stateMutability": "nonpayable",
      "type": "function"
    },
    {
      "inputs": [
        {
          "internalType": "address",
          "name": "spender",
          "type": "address"
        },
        {
          "internalType": "uint256",
          "name": "addedValue",
          "type": "uint256"
        }
      ],
      "name": "increaseAllowance",
      "outputs": [
        {
          "internalType": "bool",
          "name": "",
          "type": "bool"
        }
      ],
      "stateMutability": "nonpayable",
      "type": "function"
    },
    {
      "inputs": [
        {
          "internalType": "address",
          "name": "to",
          "type": "address"
        },
        {
          "internalType": "uint256",
          "name": "value",
          "type": "uint256"
        }
      ],
      "name": "mint",
      "outputs": [
        {
          "internalType": "bool",
          "name": "",
          "type": "bool"
        }
      ],
      "stateMutability": "nonpayable",
      "type": "function"
    },
    {
      "inputs": [],
      "name": "name",
      "outputs": [
        {
          "internalType": "string",
          "name": "",
          "type": "string"
        }
      ],
      "stateMutability": "view",
      "type": "function"
    },
    {
      "inputs": [
        {
          "internalType": "address",
          "name": "",
          "type": "address"
        }
      ],
      "name": "nonces",
      "outputs": [
        {
          "internalType": "uint256",
          "name": "",
          "type": "uint256"
        }
      ],
      "stateMutability": "view",
      "type": "function"
    },
    {
      "inputs": [
        {
          "internalType": "address",
          "name": "holder",
          "type": "address"
        },
        {
          "internalType": "address",
          "name": "spender",
          "type": "address"
        },
        {
          "internalType": "uint256",
          "name": "nonce",
          "type": "uint256"
        },
        {
          "internalType": "uint256",
          "name": "expiry",
          "type": "uint256"
        },
        {
          "internalType": "bool",
          "name": "allowed",
          "type": "bool"
        },
        {
          "internalType": "uint8",
          "name": "v",
          "type": "uint8"
        },
        {
          "internalType": "bytes32",
          "name": "r",
          "type": "bytes32"
        },
        {
          "internalType": "bytes32",
          "name": "s",
          "type": "bytes32"
        }
      ],
      "name": "permit",
      "outputs": [],
      "stateMutability": "nonpayable",
      "type": "function"
    },
    {
      "inputs": [],
      "name": "symbol",
      "outputs": [
        {
          "internalType": "string",
          "name": "",
          "type": "string"
        }
      ],
      "stateMutability": "view",
      "type": "function"
    },
    {
      "inputs": [],
      "name": "totalSupply",
      "outputs": [
        {
          "internalType": "uint256",
          "name": "",
          "type": "uint256"
        }
      ],
      "stateMutability": "view",
      "type": "function"
    },
    {
      "inputs": [
        {
          "internalType": "address",
          "name": "recipient",
          "type": "address"
        },
        {
          "internalType": "uint256",
          "name": "amount",
          "type": "uint256"
        }
      ],
      "name": "transfer",
      "outputs": [
        {
          "internalType": "bool",
          "name": "",
          "type": "bool"
        }
      ],
      "stateMutability": "nonpayable",
      "type": "function"
    },
    {
      "inputs": [
        {
          "internalType": "address",
          "name": "sender",
          "type": "address"
        },
        {
          "internalType": "address",
          "name": "recipient",
          "type": "address"
        },
        {
          "internalType": "uint256",
          "name": "amount",
          "type": "uint256"
        }
      ],
      "name": "transferFrom",
      "outputs": [
        {
          "internalType": "bool",
          "name": "",
          "type": "bool"
        }
      ],
      "stateMutability": "nonpayable",
      "type": "function"
    },
    {
      "inputs": [],
      "name": "version",
      "outputs": [
        {
          "internalType": "string",
          "name": "",
          "type": "string"
        }
      ],
      "stateMutability": "view",
      "type": "function"
    },
    {
      "stateMutability": "payable",
      "type": "receive"
    }
  ],
  "bytecode": "0x608060405234801561001057600080fd5b506114fe806100206000396000f3fe6080604052600436106101185760003560e01c806340c10f19116100a057806395d89b411161006457806395d89b41146103495780639dc29fac1461035e578063a457c2d71461037e578063a9059cbb1461039e578063dd62ed3e146103be57600080fd5b806340c10f191461027957806354fd4d501461029957806370a08231146102c65780637ecebe00146102fc5780638fcbaf0c1461032957600080fd5b806330adf81f116100e757806330adf81f146101d1578063313ce567146102055780633644e5151461022157806337d0e89e14610237578063395093511461025957600080fd5b806306fdde0314610137578063095ea7b31461016257806318160ddd1461019257806323b872dd146101b157600080fd5b366101325761012f33670de0b6b3a7640000610404565b50005b600080fd5b34801561014357600080fd5b5061014c610419565b6040516101599190611376565b60405180910390f35b34801561016e57600080fd5b5061018261017d3660046112ec565b6104ab565b6040519015158152602001610159565b34801561019e57600080fd5b506035545b604051908152602001610159565b3480156101bd57600080fd5b506101826101cc36600461122a565b6104b8565b3480156101dd57600080fd5b506101a37fea2aa0a1be11a07ed86d755c93467f4f82362b452371d1ba94d1715123511acb81565b34801561021157600080fd5b5060405160128152602001610159565b34801561022d57600080fd5b506101a360655481565b34801561024357600080fd5b50610257610252366004611315565b610567565b005b34801561026557600080fd5b506101826102743660046112ec565b610670565b34801561028557600080fd5b506101826102943660046112ec565b610404565b3480156102a557600080fd5b5061014c604051806040016040528060018152602001603160f81b81525081565b3480156102d257600080fd5b506101a36102e13660046111d7565b6001600160a01b031660009081526033602052604090205490565b34801561030857600080fd5b506101a36103173660046111d7565b60666020526000908152604090205481565b34801561033557600080fd5b50610257610344366004611265565b6106ac565b34801561035557600080fd5b5061014c61093a565b34801561036a57600080fd5b506101826103793660046112ec565b610949565b34801561038a57600080fd5b506101826103993660046112ec565b610955565b3480156103aa57600080fd5b506101826103b93660046112ec565b6109ee565b3480156103ca57600080fd5b506101a36103d93660046111f8565b6001600160a01b03918216600090815260346020908152604080832093909416825291909152205490565b600061041083836109fb565b50600192915050565b60606036805461042890611446565b80601f016020809104026020016040519081016040528092919081815260200182805461045490611446565b80156104a15780601f10610476576101008083540402835291602001916104a1565b820191906000526020600020905b81548152906001019060200180831161048457829003601f168201915b5050505050905090565b6000610410338484610ada565b60006104c5848484610bfe565b6001600160a01b03841660009081526034602090815260408083203384529091529020548281101561054f5760405162461bcd60e51b815260206004820152602860248201527f45524332303a207472616e7366657220616d6f756e74206578636565647320616044820152676c6c6f77616e636560c01b60648201526084015b60405180910390fd5b61055c8533858403610ada565b506001949350505050565b600054610100900460ff1680610580575060005460ff16155b61059c5760405162461bcd60e51b8152600401610546906113c9565b600054610100900460ff161580156105be576000805461ffff19166101011790555b6105c88383610dcd565b7f8b73c3c69bb8fe3d512ecc4cf759cc79239f7b179b0ffacaa9a75d522b39400f8380519060200120604051806040016040528060018152602001603160f81b815250805190602001206106194690565b604080516020810195909552840192909252606083015260808201523060a082015260c00160408051601f198184030181529190528051602090910120606555801561066b576000805461ff00191690555b505050565b3360008181526034602090815260408083206001600160a01b038716845290915281205490916104109185906106a7908690611417565b610ada565b606554604080517fea2aa0a1be11a07ed86d755c93467f4f82362b452371d1ba94d1715123511acb60208201526001600160a01b03808c169282019290925290891660608201526080810188905260a0810187905285151560c08201526000919060e0016040516020818303038152906040528051906020012060405160200161074d92919061190160f01b81526002810192909252602282015260420190565b60408051601f19818403018152919052805160209091012090506001600160a01b0389166107b15760405162461bcd60e51b81526020600482015260116024820152700696e76616c69642d616464726573732d3607c1b6044820152606401610546565b60408051600081526020810180835283905260ff861691810191909152606081018490526080810183905260019060a0016020604051602081039080840390855afa158015610804573d6000803e3d6000fd5b505050602060405103516001600160a01b0316896001600160a01b03161461085f5760405162461bcd60e51b815260206004820152600e60248201526d1a5b9d985b1a590b5c195c9b5a5d60921b6044820152606401610546565b85158061086c5750854211155b6108a95760405162461bcd60e51b815260206004820152600e60248201526d1c195c9b5a5d0b595e1c1a5c995960921b6044820152606401610546565b6001600160a01b03891660009081526066602052604081208054916108cd83611481565b91905055871461090f5760405162461bcd60e51b815260206004820152600d60248201526c696e76616c69642d6e6f6e636560981b6044820152606401610546565b60008561091d576000610921565b6000195b905061092e8a8a83610ada565b50505050505050505050565b60606037805461042890611446565b60006104108383610e4c565b3360009081526034602090815260408083206001600160a01b0386168452909152812054828110156109d75760405162461bcd60e51b815260206004820152602560248201527f45524332303a2064656372656173656420616c6c6f77616e63652062656c6f77604482015264207a65726f60d81b6064820152608401610546565b6109e43385858403610ada565b5060019392505050565b6000610410338484610bfe565b6001600160a01b038216610a515760405162461bcd60e51b815260206004820152601f60248201527f45524332303a206d696e7420746f20746865207a65726f2061646472657373006044820152606401610546565b8060356000828254610a639190611417565b90915550506001600160a01b03821660009081526033602052604081208054839290610a90908490611417565b90915550506040518181526001600160a01b038316906000907fddf252ad1be2c89b69c2b068fc378daa952ba7f163c4a11628f55a4df523b3ef9060200160405180910390a35050565b6001600160a01b038316610b3c5760405162461bcd60e51b8152602060048201526024808201527f45524332303a20617070726f76652066726f6d20746865207a65726f206164646044820152637265737360e01b6064820152608401610546565b6001600160a01b038216610b9d5760405162461bcd60e51b815260206004820152602260248201527f45524332303a20617070726f766520746f20746865207a65726f206164647265604482015261737360f01b6064820152608401610546565b6001600160a01b0383811660008181526034602090815260408083209487168084529482529182902085905590518481527f8c5be1e5ebec7d5bd14f71427d1e84f3dd0314c0f7b2291e5b200ac8c7c3b925910160405180910390a3505050565b6001600160a01b038316610c625760405162461bcd60e51b815260206004820152602560248201527f45524332303a207472616e736665722066726f6d20746865207a65726f206164604482015264647265737360d81b6064820152608401610546565b6001600160a01b038216610cc45760405162461bcd60e51b815260206004820152602360248201527f45524332303a207472616e7366657220746f20746865207a65726f206164647260448201526265737360e81b6064820152608401610546565b6001600160a01b03831660009081526033602052604090205481811015610d3c5760405162461bcd60e51b815260206004820152602660248201527f45524332303a207472616e7366657220616d6f756e7420657863656564732062604482015265616c616e636560d01b6064820152608401610546565b6001600160a01b03808516600090815260336020526040808220858503905591851681529081208054849290610d73908490611417565b92505081905550826001600160a01b0316846001600160a01b03167fddf252ad1be2c89b69c2b068fc378daa952ba7f163c4a11628f55a4df523b3ef84604051610dbf91815260200190565b60405180910390a350505050565b600054610100900460ff1680610de6575060005460ff16155b610e025760405162461bcd60e51b8152600401610546906113c9565b600054610100900460ff16158015610e24576000805461ffff19166101011790555b610e2c610f9a565b610e368383611006565b801561066b576000805461ff0019169055505050565b6001600160a01b038216610eac5760405162461bcd60e51b815260206004820152602160248201527f45524332303a206275726e2066726f6d20746865207a65726f206164647265736044820152607360f81b6064820152608401610546565b6001600160a01b03821660009081526033602052604090205481811015610f205760405162461bcd60e51b815260206004820152602260248201527f45524332303a206275726e20616d6f756e7420657863656564732062616c616e604482015261636560f01b6064820152608401610546565b6001600160a01b0383166000908152603360205260408120838303905560358054849290610f4f90849061142f565b90915550506040518281526000906001600160a01b038516907fddf252ad1be2c89b69c2b068fc378daa952ba7f163c4a11628f55a4df523b3ef9060200160405180910390a3505050565b600054610100900460ff1680610fb3575060005460ff16155b610fcf5760405162461bcd60e51b8152600401610546906113c9565b600054610100900460ff16158015610ff1576000805461ffff19166101011790555b8015611003576000805461ff00191690555b50565b600054610100900460ff168061101f575060005460ff16155b61103b5760405162461bcd60e51b8152600401610546906113c9565b600054610100900460ff1615801561105d576000805461ffff19166101011790555b825161107090603690602086019061109b565b50815161108490603790602085019061109b565b50801561066b576000805461ff0019169055505050565b8280546110a790611446565b90600052602060002090601f0160209004810192826110c9576000855561110f565b82601f106110e257805160ff191683800117855561110f565b8280016001018555821561110f579182015b8281111561110f5782518255916020019190600101906110f4565b5061111b92915061111f565b5090565b5b8082111561111b5760008155600101611120565b80356001600160a01b038116811461114b57600080fd5b919050565b600082601f830112611160578081fd5b813567ffffffffffffffff8082111561117b5761117b6114b2565b604051601f8301601f19908116603f011681019082821181831017156111a3576111a36114b2565b816040528381528660208588010111156111bb578485fd5b8360208701602083013792830160200193909352509392505050565b6000602082840312156111e8578081fd5b6111f182611134565b9392505050565b6000806040838503121561120a578081fd5b61121383611134565b915061122160208401611134565b90509250929050565b60008060006060848603121561123e578081fd5b61124784611134565b925061125560208501611134565b9150604084013590509250925092565b600080600080600080600080610100898b031215611281578384fd5b61128a89611134565b975061129860208a01611134565b96506040890135955060608901359450608089013580151581146112ba578485fd5b935060a089013560ff811681146112cf578384fd5b979a969950949793969295929450505060c08201359160e0013590565b600080604083850312156112fe578182fd5b61130783611134565b946020939093013593505050565b60008060408385031215611327578182fd5b823567ffffffffffffffff8082111561133e578384fd5b61134a86838701611150565b9350602085013591508082111561135f578283fd5b5061136c85828601611150565b9150509250929050565b6000602080835283518082850152825b818110156113a257858101830151858201604001528201611386565b818111156113b35783604083870101525b50601f01601f1916929092016040019392505050565b6020808252602e908201527f496e697469616c697a61626c653a20636f6e747261637420697320616c72656160408201526d191e481a5b9a5d1a585b1a5e995960921b606082015260800190565b6000821982111561142a5761142a61149c565b500190565b6000828210156114415761144161149c565b500390565b600181811c9082168061145a57607f821691505b6020821081141561147b57634e487b7160e01b600052602260045260246000fd5b50919050565b60006000198214156114955761149561149c565b5060010190565b634e487b7160e01b600052601160045260246000fd5b634e487b7160e01b600052604160045260246000fdfea26469706673582212206b6fb8629707cbe6fe92b421750f4c47195705ead0978abba1c0cdcc88b99e1e64736f6c63430008040033",
  "linkReferences": {},
  "deployedLinkReferences": {}
}