{
  "_format": "hh-sol-artifact-1",
  "contractName": "MixinTransfer",
  "sourceName": "contracts/mixins/MixinTransfer.sol",
  "abi": [
    {
      "anonymous": false,
      "inputs": [
        {
          "indexed": true,
          "internalType": "address",
          "name": "owner",
          "type": "address"
        },
        {
          "indexed": true,
          "internalType": "address",
          "name": "approved",
          "type": "address"
        },
        {
          "indexed": true,
          "internalType": "uint256",
          "name": "tokenId",
          "type": "uint256"
        }
      ],
      "name": "Approval",
      "type": "event"
    },
    {
      "anonymous": false,
      "inputs": [
        {
          "indexed": true,
          "internalType": "address",
          "name": "owner",
          "type": "address"
        },
        {
          "indexed": true,
          "internalType": "address",
          "name": "operator",
          "type": "address"
        },
        {
          "indexed": false,
          "internalType": "bool",
          "name": "approved",
          "type": "bool"
        }
      ],
      "name": "ApprovalForAll",
      "type": "event"
    },
    {
      "anonymous": false,
      "inputs": [],
      "name": "Disable",
      "type": "event"
    },
    {
      "anonymous": false,
      "inputs": [
        {
          "indexed": true,
          "internalType": "uint256",
          "name": "_tokenId",
          "type": "uint256"
        },
        {
          "indexed": false,
          "internalType": "uint256",
          "name": "_amount",
          "type": "uint256"
        },
        {
          "indexed": false,
          "internalType": "bool",
          "name": "_timeAdded",
          "type": "bool"
        }
      ],
      "name": "ExpirationChanged",
      "type": "event"
    },
    {
      "anonymous": false,
      "inputs": [
        {
          "indexed": true,
          "internalType": "uint256",
          "name": "tokenId",
          "type": "uint256"
        }
      ],
      "name": "ExpireKey",
      "type": "event"
    },
    {
      "anonymous": false,
      "inputs": [
        {
          "indexed": true,
          "internalType": "address",
          "name": "account",
          "type": "address"
        }
      ],
      "name": "KeyGranterAdded",
      "type": "event"
    },
    {
      "anonymous": false,
      "inputs": [
        {
          "indexed": true,
          "internalType": "address",
          "name": "account",
          "type": "address"
        }
      ],
      "name": "KeyGranterRemoved",
      "type": "event"
    },
    {
      "anonymous": false,
      "inputs": [
        {
          "indexed": true,
          "internalType": "uint256",
          "name": "_tokenId",
          "type": "uint256"
        },
        {
          "indexed": true,
          "internalType": "address",
          "name": "_newManager",
          "type": "address"
        }
      ],
      "name": "KeyManagerChanged",
      "type": "event"
    },
    {
      "anonymous": false,
      "inputs": [
        {
          "indexed": true,
          "internalType": "address",
          "name": "account",
          "type": "address"
        }
      ],
      "name": "LockManagerAdded",
      "type": "event"
    },
    {
      "anonymous": false,
      "inputs": [
        {
          "indexed": true,
          "internalType": "address",
          "name": "account",
          "type": "address"
        }
      ],
      "name": "LockManagerRemoved",
      "type": "event"
    },
    {
      "anonymous": false,
      "inputs": [
        {
          "indexed": false,
          "internalType": "uint256",
          "name": "oldKeyPrice",
          "type": "uint256"
        },
        {
          "indexed": false,
          "internalType": "uint256",
          "name": "keyPrice",
          "type": "uint256"
        },
        {
          "indexed": false,
          "internalType": "address",
          "name": "oldTokenAddress",
          "type": "address"
        },
        {
          "indexed": false,
          "internalType": "address",
          "name": "tokenAddress",
          "type": "address"
        }
      ],
      "name": "PricingChanged",
      "type": "event"
    },
    {
      "anonymous": false,
      "inputs": [
        {
          "indexed": true,
          "internalType": "bytes32",
          "name": "role",
          "type": "bytes32"
        },
        {
          "indexed": true,
          "internalType": "bytes32",
          "name": "previousAdminRole",
          "type": "bytes32"
        },
        {
          "indexed": true,
          "internalType": "bytes32",
          "name": "newAdminRole",
          "type": "bytes32"
        }
      ],
      "name": "RoleAdminChanged",
      "type": "event"
    },
    {
      "anonymous": false,
      "inputs": [
        {
          "indexed": true,
          "internalType": "bytes32",
          "name": "role",
          "type": "bytes32"
        },
        {
          "indexed": true,
          "internalType": "address",
          "name": "account",
          "type": "address"
        },
        {
          "indexed": true,
          "internalType": "address",
          "name": "sender",
          "type": "address"
        }
      ],
      "name": "RoleGranted",
      "type": "event"
    },
    {
      "anonymous": false,
      "inputs": [
        {
          "indexed": true,
          "internalType": "bytes32",
          "name": "role",
          "type": "bytes32"
        },
        {
          "indexed": true,
          "internalType": "address",
          "name": "account",
          "type": "address"
        },
        {
          "indexed": true,
          "internalType": "address",
          "name": "sender",
          "type": "address"
        }
      ],
      "name": "RoleRevoked",
      "type": "event"
    },
    {
      "anonymous": false,
      "inputs": [
        {
          "indexed": true,
          "internalType": "address",
          "name": "from",
          "type": "address"
        },
        {
          "indexed": true,
          "internalType": "address",
          "name": "to",
          "type": "address"
        },
        {
          "indexed": true,
          "internalType": "uint256",
          "name": "tokenId",
          "type": "uint256"
        }
      ],
      "name": "Transfer",
      "type": "event"
    },
    {
      "anonymous": false,
      "inputs": [
        {
          "indexed": false,
          "internalType": "uint256",
          "name": "transferFeeBasisPoints",
          "type": "uint256"
        }
      ],
      "name": "TransferFeeChanged",
      "type": "event"
    },
    {
      "anonymous": false,
      "inputs": [
        {
          "indexed": true,
          "internalType": "address",
          "name": "sender",
          "type": "address"
        },
        {
          "indexed": true,
          "internalType": "address",
          "name": "tokenAddress",
          "type": "address"
        },
        {
          "indexed": true,
          "internalType": "address",
          "name": "beneficiary",
          "type": "address"
        },
        {
          "indexed": false,
          "internalType": "uint256",
          "name": "amount",
          "type": "uint256"
        }
      ],
      "name": "Withdrawal",
      "type": "event"
    },
    {
      "inputs": [],
      "name": "DEFAULT_ADMIN_ROLE",
      "outputs": [
        {
          "internalType": "bytes32",
          "name": "",
          "type": "bytes32"
        }
      ],
      "stateMutability": "view",
      "type": "function"
    },
    {
      "inputs": [],
      "name": "KEY_GRANTER_ROLE",
      "outputs": [
        {
          "internalType": "bytes32",
          "name": "",
          "type": "bytes32"
        }
      ],
      "stateMutability": "view",
      "type": "function"
    },
    {
      "inputs": [],
      "name": "LOCK_MANAGER_ROLE",
      "outputs": [
        {
          "internalType": "bytes32",
          "name": "",
          "type": "bytes32"
        }
      ],
      "stateMutability": "view",
      "type": "function"
    },
    {
      "inputs": [
        {
          "internalType": "address",
          "name": "account",
          "type": "address"
        }
      ],
      "name": "addKeyGranter",
      "outputs": [],
      "stateMutability": "nonpayable",
      "type": "function"
    },
    {
      "inputs": [
        {
          "internalType": "address",
          "name": "account",
          "type": "address"
        }
      ],
      "name": "addLockManager",
      "outputs": [],
      "stateMutability": "nonpayable",
      "type": "function"
    },
    {
      "inputs": [
        {
          "internalType": "address",
          "name": "_approved",
          "type": "address"
        },
        {
          "internalType": "uint256",
          "name": "_tokenId",
          "type": "uint256"
        }
      ],
      "name": "approve",
      "outputs": [],
      "stateMutability": "nonpayable",
      "type": "function"
    },
    {
      "inputs": [
        {
          "internalType": "address",
          "name": "_spender",
          "type": "address"
        },
        {
          "internalType": "uint256",
          "name": "_amount",
          "type": "uint256"
        }
      ],
      "name": "approveBeneficiary",
      "outputs": [
        {
          "internalType": "bool",
          "name": "",
          "type": "bool"
        }
      ],
      "stateMutability": "nonpayable",
      "type": "function"
    },
    {
      "inputs": [
        {
          "internalType": "address",
          "name": "_keyOwner",
          "type": "address"
        }
      ],
      "name": "balanceOf",
      "outputs": [
        {
          "internalType": "uint256",
          "name": "",
          "type": "uint256"
        }
      ],
      "stateMutability": "view",
      "type": "function"
    },
    {
      "inputs": [],
      "name": "beneficiary",
      "outputs": [
        {
          "internalType": "address payable",
          "name": "",
          "type": "address"
        }
      ],
      "stateMutability": "view",
      "type": "function"
    },
    {
      "inputs": [],
      "name": "disableLock",
      "outputs": [],
      "stateMutability": "nonpayable",
      "type": "function"
    },
    {
      "inputs": [],
      "name": "expirationDuration",
      "outputs": [
        {
          "internalType": "uint256",
          "name": "",
          "type": "uint256"
        }
      ],
      "stateMutability": "view",
      "type": "function"
    },
    {
      "inputs": [
        {
          "internalType": "uint256",
          "name": "_tokenId",
          "type": "uint256"
        }
      ],
      "name": "getApproved",
      "outputs": [
        {
          "internalType": "address",
          "name": "",
          "type": "address"
        }
      ],
      "stateMutability": "view",
      "type": "function"
    },
    {
      "inputs": [
        {
          "internalType": "address",
          "name": "_keyOwner",
          "type": "address"
        }
      ],
      "name": "getHasValidKey",
      "outputs": [
        {
          "internalType": "bool",
          "name": "",
          "type": "bool"
        }
      ],
      "stateMutability": "view",
      "type": "function"
    },
    {
      "inputs": [
        {
          "internalType": "bytes32",
          "name": "role",
          "type": "bytes32"
        }
      ],
      "name": "getRoleAdmin",
      "outputs": [
        {
          "internalType": "bytes32",
          "name": "",
          "type": "bytes32"
        }
      ],
      "stateMutability": "view",
      "type": "function"
    },
    {
      "inputs": [
        {
          "internalType": "address",
          "name": "_account",
          "type": "address"
        }
      ],
      "name": "getTokenIdFor",
      "outputs": [
        {
          "internalType": "uint256",
          "name": "",
          "type": "uint256"
        }
      ],
      "stateMutability": "view",
      "type": "function"
    },
    {
      "inputs": [
        {
          "internalType": "address",
          "name": "_keyOwner",
          "type": "address"
        },
        {
          "internalType": "uint256",
          "name": "_time",
          "type": "uint256"
        }
      ],
      "name": "getTransferFee",
      "outputs": [
        {
          "internalType": "uint256",
          "name": "",
          "type": "uint256"
        }
      ],
      "stateMutability": "view",
      "type": "function"
    },
    {
      "inputs": [
        {
          "internalType": "bytes32",
          "name": "role",
          "type": "bytes32"
        },
        {
          "internalType": "address",
          "name": "account",
          "type": "address"
        }
      ],
      "name": "grantRole",
      "outputs": [],
      "stateMutability": "nonpayable",
      "type": "function"
    },
    {
      "inputs": [
        {
          "internalType": "bytes32",
          "name": "role",
          "type": "bytes32"
        },
        {
          "internalType": "address",
          "name": "account",
          "type": "address"
        }
      ],
      "name": "hasRole",
      "outputs": [
        {
          "internalType": "bool",
          "name": "",
          "type": "bool"
        }
      ],
      "stateMutability": "view",
      "type": "function"
    },
    {
      "inputs": [],
      "name": "isAlive",
      "outputs": [
        {
          "internalType": "bool",
          "name": "",
          "type": "bool"
        }
      ],
      "stateMutability": "view",
      "type": "function"
    },
    {
      "inputs": [
        {
          "internalType": "address",
          "name": "_owner",
          "type": "address"
        },
        {
          "internalType": "address",
          "name": "_operator",
          "type": "address"
        }
      ],
      "name": "isApprovedForAll",
      "outputs": [
        {
          "internalType": "bool",
          "name": "",
          "type": "bool"
        }
      ],
      "stateMutability": "view",
      "type": "function"
    },
    {
      "inputs": [
        {
          "internalType": "address",
          "name": "account",
          "type": "address"
        }
      ],
      "name": "isKeyGranter",
      "outputs": [
        {
          "internalType": "bool",
          "name": "",
          "type": "bool"
        }
      ],
      "stateMutability": "view",
      "type": "function"
    },
    {
      "inputs": [
        {
          "internalType": "address",
          "name": "account",
          "type": "address"
        }
      ],
      "name": "isLockManager",
      "outputs": [
        {
          "internalType": "bool",
          "name": "",
          "type": "bool"
        }
      ],
      "stateMutability": "view",
      "type": "function"
    },
    {
      "inputs": [
        {
          "internalType": "address",
          "name": "_keyOwner",
          "type": "address"
        }
      ],
      "name": "keyExpirationTimestampFor",
      "outputs": [
        {
          "internalType": "uint256",
          "name": "",
          "type": "uint256"
        }
      ],
      "stateMutability": "view",
      "type": "function"
    },
    {
      "inputs": [
        {
          "internalType": "uint256",
          "name": "",
          "type": "uint256"
        }
      ],
      "name": "keyManagerOf",
      "outputs": [
        {
          "internalType": "address",
          "name": "",
          "type": "address"
        }
      ],
      "stateMutability": "view",
      "type": "function"
    },
    {
      "inputs": [],
      "name": "keyPrice",
      "outputs": [
        {
          "internalType": "uint256",
          "name": "",
          "type": "uint256"
        }
      ],
      "stateMutability": "view",
      "type": "function"
    },
    {
      "inputs": [],
      "name": "maxNumberOfKeys",
      "outputs": [
        {
          "internalType": "uint256",
          "name": "",
          "type": "uint256"
        }
      ],
      "stateMutability": "view",
      "type": "function"
    },
    {
      "inputs": [],
      "name": "numberOfOwners",
      "outputs": [
        {
          "internalType": "uint256",
          "name": "",
          "type": "uint256"
        }
      ],
      "stateMutability": "view",
      "type": "function"
    },
    {
      "inputs": [],
      "name": "onKeyCancelHook",
      "outputs": [
        {
          "internalType": "contract ILockKeyCancelHook",
          "name": "",
          "type": "address"
        }
      ],
      "stateMutability": "view",
      "type": "function"
    },
    {
      "inputs": [],
      "name": "onKeyPurchaseHook",
      "outputs": [
        {
          "internalType": "contract ILockKeyPurchaseHook",
          "name": "",
          "type": "address"
        }
      ],
      "stateMutability": "view",
      "type": "function"
    },
    {
      "inputs": [
        {
          "internalType": "uint256",
          "name": "_tokenId",
          "type": "uint256"
        }
      ],
      "name": "ownerOf",
      "outputs": [
        {
          "internalType": "address",
          "name": "",
          "type": "address"
        }
      ],
      "stateMutability": "view",
      "type": "function"
    },
    {
      "inputs": [
        {
          "internalType": "uint256",
          "name": "",
          "type": "uint256"
        }
      ],
      "name": "owners",
      "outputs": [
        {
          "internalType": "address",
          "name": "",
          "type": "address"
        }
      ],
      "stateMutability": "view",
      "type": "function"
    },
    {
      "inputs": [],
      "name": "publicLockVersion",
      "outputs": [
        {
          "internalType": "uint16",
          "name": "",
          "type": "uint16"
        }
      ],
      "stateMutability": "pure",
      "type": "function"
    },
    {
      "inputs": [],
      "name": "renounceLockManager",
      "outputs": [],
      "stateMutability": "nonpayable",
      "type": "function"
    },
    {
      "inputs": [
        {
          "internalType": "bytes32",
          "name": "role",
          "type": "bytes32"
        },
        {
          "internalType": "address",
          "name": "account",
          "type": "address"
        }
      ],
      "name": "renounceRole",
      "outputs": [],
      "stateMutability": "nonpayable",
      "type": "function"
    },
    {
      "inputs": [
        {
          "internalType": "address",
          "name": "_granter",
          "type": "address"
        }
      ],
      "name": "revokeKeyGranter",
      "outputs": [],
      "stateMutability": "nonpayable",
      "type": "function"
    },
    {
      "inputs": [
        {
          "internalType": "bytes32",
          "name": "role",
          "type": "bytes32"
        },
        {
          "internalType": "address",
          "name": "account",
          "type": "address"
        }
      ],
      "name": "revokeRole",
      "outputs": [],
      "stateMutability": "nonpayable",
      "type": "function"
    },
    {
      "inputs": [
        {
          "internalType": "address",
          "name": "_from",
          "type": "address"
        },
        {
          "internalType": "address",
          "name": "_to",
          "type": "address"
        },
        {
          "internalType": "uint256",
          "name": "_tokenId",
          "type": "uint256"
        }
      ],
      "name": "safeTransferFrom",
      "outputs": [],
      "stateMutability": "nonpayable",
      "type": "function"
    },
    {
      "inputs": [
        {
          "internalType": "address",
          "name": "_from",
          "type": "address"
        },
        {
          "internalType": "address",
          "name": "_to",
          "type": "address"
        },
        {
          "internalType": "uint256",
          "name": "_tokenId",
          "type": "uint256"
        },
        {
          "internalType": "bytes",
          "name": "_data",
          "type": "bytes"
        }
      ],
      "name": "safeTransferFrom",
      "outputs": [],
      "stateMutability": "nonpayable",
      "type": "function"
    },
    {
      "inputs": [
        {
          "internalType": "address",
          "name": "_to",
          "type": "address"
        },
        {
          "internalType": "bool",
          "name": "_approved",
          "type": "bool"
        }
      ],
      "name": "setApprovalForAll",
      "outputs": [],
      "stateMutability": "nonpayable",
      "type": "function"
    },
    {
      "inputs": [
        {
          "internalType": "address",
          "name": "_onKeyPurchaseHook",
          "type": "address"
        },
        {
          "internalType": "address",
          "name": "_onKeyCancelHook",
          "type": "address"
        }
      ],
      "name": "setEventHooks",
      "outputs": [],
      "stateMutability": "nonpayable",
      "type": "function"
    },
    {
      "inputs": [
        {
          "internalType": "uint256",
          "name": "_tokenId",
          "type": "uint256"
        },
        {
          "internalType": "address",
          "name": "_keyManager",
          "type": "address"
        }
      ],
      "name": "setKeyManagerOf",
      "outputs": [],
      "stateMutability": "nonpayable",
      "type": "function"
    },
    {
      "inputs": [
        {
          "internalType": "address",
          "name": "_to",
          "type": "address"
        },
        {
          "internalType": "uint256",
          "name": "_tokenId",
          "type": "uint256"
        },
        {
          "internalType": "uint256",
          "name": "_timeShared",
          "type": "uint256"
        }
      ],
      "name": "shareKey",
      "outputs": [],
      "stateMutability": "nonpayable",
      "type": "function"
    },
    {
      "inputs": [
        {
          "internalType": "bytes4",
          "name": "interfaceId",
          "type": "bytes4"
        }
      ],
      "name": "supportsInterface",
      "outputs": [
        {
          "internalType": "bool",
          "name": "",
          "type": "bool"
        }
      ],
      "stateMutability": "view",
      "type": "function"
    },
    {
      "inputs": [],
      "name": "tokenAddress",
      "outputs": [
        {
          "internalType": "address",
          "name": "",
          "type": "address"
        }
      ],
      "stateMutability": "view",
      "type": "function"
    },
    {
      "inputs": [],
      "name": "totalSupply",
      "outputs": [
        {
          "internalType": "uint256",
          "name": "",
          "type": "uint256"
        }
      ],
      "stateMutability": "view",
      "type": "function"
    },
    {
      "inputs": [
        {
          "internalType": "address",
          "name": "_to",
          "type": "address"
        },
        {
          "internalType": "uint256",
          "name": "_value",
          "type": "uint256"
        }
      ],
      "name": "transfer",
      "outputs": [
        {
          "internalType": "bool",
          "name": "success",
          "type": "bool"
        }
      ],
      "stateMutability": "nonpayable",
      "type": "function"
    },
    {
      "inputs": [],
      "name": "transferFeeBasisPoints",
      "outputs": [
        {
          "internalType": "uint256",
          "name": "",
          "type": "uint256"
        }
      ],
      "stateMutability": "view",
      "type": "function"
    },
    {
      "inputs": [
        {
          "internalType": "address",
          "name": "_from",
          "type": "address"
        },
        {
          "internalType": "address",
          "name": "_recipient",
          "type": "address"
        },
        {
          "internalType": "uint256",
          "name": "_tokenId",
          "type": "uint256"
        }
      ],
      "name": "transferFrom",
      "outputs": [],
      "stateMutability": "nonpayable",
      "type": "function"
    },
    {
      "inputs": [],
      "name": "unlockProtocol",
      "outputs": [
        {
          "internalType": "contract IUnlock",
          "name": "",
          "type": "address"
        }
      ],
      "stateMutability": "view",
      "type": "function"
    },
    {
      "inputs": [
        {
          "internalType": "address payable",
          "name": "_beneficiary",
          "type": "address"
        }
      ],
      "name": "updateBeneficiary",
      "outputs": [],
      "stateMutability": "nonpayable",
      "type": "function"
    },
    {
      "inputs": [
        {
          "internalType": "uint256",
          "name": "_keyPrice",
          "type": "uint256"
        },
        {
          "internalType": "address",
          "name": "_tokenAddress",
          "type": "address"
        }
      ],
      "name": "updateKeyPricing",
      "outputs": [],
      "stateMutability": "nonpayable",
      "type": "function"
    },
    {
      "inputs": [
        {
          "internalType": "uint256",
          "name": "_transferFeeBasisPoints",
          "type": "uint256"
        }
      ],
      "name": "updateTransferFee",
      "outputs": [],
      "stateMutability": "nonpayable",
      "type": "function"
    },
    {
      "inputs": [
        {
          "internalType": "address",
          "name": "_tokenAddress",
          "type": "address"
        },
        {
          "internalType": "uint256",
          "name": "_amount",
          "type": "uint256"
        }
      ],
      "name": "withdraw",
      "outputs": [],
      "stateMutability": "nonpayable",
      "type": "function"
    }
  ],
  "bytecode": "0x608060405234801561001057600080fd5b50612e3e806100206000396000f3fe608060405234801561001057600080fd5b50600436106103275760003560e01c806370a08231116101b8578063abdf82ce11610104578063d2503485116100a2578063f0ba60401161007c578063f0ba604014610724578063f12c6b6e1461072c578063f3fef3a31461073f578063fc42b58f1461075257600080fd5b8063d2503485146106eb578063d547741f146106fe578063e985e9c51461071157600080fd5b8063b585a6d5116100de578063b585a6d5146106ae578063b88d4fde146106c1578063c1c98d03146106d4578063d1bbd49c146106dc57600080fd5b8063abdf82ce1461065c578063ad0e0a4d14610688578063b11d7ec11461069b57600080fd5b8063970aaeb711610171578063a22cb4651161014b578063a22cb46514610610578063a2e4cd2e14610623578063a9059cbb14610636578063aae4b8f71461064957600080fd5b8063970aaeb7146105cc5780639d76ea58146105f5578063a217fddf1461060857600080fd5b806370a082311461056d57806374b6c106146105805780638577a6d5146105895780638ca2fbad1461059c57806391d14854146105b157806393fd1844146105c457600080fd5b8063248a9ca3116102775780634136aa351161023057806352b0f6381161020a57806352b0f6381461050b578063564aa99d1461051e5780636352211e146105315780636d8ea5b41461055a57600080fd5b80634136aa35146104bb57806342842e0e146104cf5780634d025fed146104e257600080fd5b8063248a9ca3146104395780632af9162a1461045c5780632d33dd5b1461046f5780632f2ff15d1461048257806336568abe1461049557806338af3eed146104a857600080fd5b806310e56973116102e4578063183767da116102be578063183767da146103f5578063217751bc146103fe578063231005091461041157806323b872dd1461042657600080fd5b806310e56973146103cd57806311a4c03a146103e457806318160ddd146103ed57600080fd5b806301ffc9a71461032c578063025e7c2714610354578063081812fc1461037f578063095ea7b3146103925780630aaffd2a146103a75780630f15023b146103ba575b600080fd5b61033f61033a366004612a5c565b610765565b60405190151581526020015b60405180910390f35b610367610362366004612a20565b61079c565b6040516001600160a01b03909116815260200161034b565b61036761038d366004612a20565b6107c6565b6103a56103a03660046129a5565b61083c565b005b6103a56103b536600461280b565b610985565b609854610367906001600160a01b031681565b6103d6609a5481565b60405190815260200161034b565b6103d660995481565b609c546103d6565b6103d660a65481565b609f54610367906001600160a01b031681565b6103d6600080516020612dc983398151915281565b6103a561043436600461285f565b610a36565b6103d6610447366004612a20565b60009081526065602052604090206001015490565b6103a561046a36600461280b565b610cef565b609e54610367906001600160a01b031681565b6103a5610490366004612a38565b610d72565b6103a56104a3366004612a38565b610d9d565b609d54610367906001600160a01b031681565b60975461033f90600160a01b900460ff1681565b6103a56104dd36600461285f565b610e1b565b6103676104f0366004612a20565b60a3602052600090815260409020546001600160a01b031681565b61033f61051936600461280b565b610e36565b6103a561052c36600461280b565b610e50565b61036761053f366004612a20565b600090815260a160205260409020546001600160a01b031690565b61033f61056836600461280b565b610ed3565b6103d661057b36600461280b565b610ef3565b6103d6609b5481565b6103a5610597366004612a20565b610f3b565b6103d6600080516020612de983398151915281565b61033f6105bf366004612a38565b610fa7565b60a2546103d6565b6103d66105da36600461280b565b6001600160a01b0316600090815260a0602052604090205490565b609754610367906001600160a01b031681565b6103d6600081565b6103a561061e366004612978565b610fd2565b6103a5610631366004612a38565b6110af565b61033f6106443660046129a5565b611249565b61033f61065736600461280b565b6112b6565b6103d661066a36600461280b565b6001600160a01b0316600090815260a0602052604090206001015490565b6103a5610696366004612827565b6112d0565b6103a56106a9366004612a38565b611408565b61033f6106bc3660046129a5565b6114cb565b6103a56106cf36600461289f565b6115c4565b6103a561162d565b6040516009815260200161034b565b6103a56106f936600461280b565b6116c2565b6103a561070c366004612a38565b611745565b61033f61071f366004612827565b61176b565b6103a5611800565b6103a561073a3660046129d0565b611845565b6103a561074d3660046129a5565b611b9c565b6103d66107603660046129a5565b611d56565b60006001600160e01b03198216637965db0b60e01b148061079657506301ffc9a760e01b6001600160e01b03198316145b92915050565b60a281815481106107ac57600080fd5b6000918252602090912001546001600160a01b0316905081565b600081815260a1602052604081205482906001600160a01b031661081f5760405162461bcd60e51b815260206004820152600b60248201526a4e4f5f535543485f4b455960a81b60448201526064015b60405180910390fd5b5050600090815260a460205260409020546001600160a01b031690565b609754600160a01b900460ff166108655760405162461bcd60e51b815260040161081690612c6e565b806108708133611dcd565b806108915750600081815260a460205260409020546001600160a01b031633145b806108b95750600081815260a160205260409020546108b9906001600160a01b03163361176b565b6108d55760405162461bcd60e51b815260040161081690612be2565b336001600160a01b038416141561091d5760405162461bcd60e51b815260206004820152600c60248201526b20a8282927ab22afa9a2a62360a11b6044820152606401610816565b600082815260a46020908152604080832080546001600160a01b0319166001600160a01b0388811691821790925560a1909352818420549151869492909116917f8c5be1e5ebec7d5bd14f71427d1e84f3dd0314c0f7b2291e5b200ac8c7c3b92591a4505050565b609d546001600160a01b03163314806109a257506109a2336112b6565b6109ee5760405162461bcd60e51b815260206004820152601f60248201527f4f4e4c595f42454e45464943494152595f4f525f4c4f434b4d414e41474552006044820152606401610816565b6001600160a01b038116610a145760405162461bcd60e51b815260040161081690612bb9565b609d80546001600160a01b0319166001600160a01b0392909216919091179055565b609754600160a01b900460ff16610a5f5760405162461bcd60e51b815260040161081690612c6e565b82610a6981610ed3565b610aa55760405162461bcd60e51b815260206004820152600d60248201526c12d15657d393d517d590531251609a1b6044820152606401610816565b81610ab08133611dcd565b80610ad15750600081815260a460205260409020546001600160a01b031633145b80610af95750600081815260a16020526040902054610af9906001600160a01b03163361176b565b610b155760405162461bcd60e51b815260040161081690612be2565b600083815260a160205260409020546001600160a01b03868116911614610b7e5760405162461bcd60e51b815260206004820152601c60248201527f5452414e534645525f46524f4d3a204e4f545f4b45595f4f574e4552000000006044820152606401610816565b61271060a65410610bca5760405162461bcd60e51b815260206004820152601660248201527512d15657d514905394d1915494d7d11254d05093115160521b6044820152606401610816565b6001600160a01b038416610bf05760405162461bcd60e51b815260040161081690612bb9565b6000610bfd866000611d56565b6001600160a01b03808816600090815260a06020526040808220928916825281206001810154939450919290610c369088908690611e43565b8154610c5257868255610c498888611f44565b610c5287611fcb565b428111610c805760018084015490830155868255610c71876000612008565b610c7b8888611f44565b610ca1565b42818460010154610c919190612c97565b610c9b9190612cee565b60018301555b426001840155600080845560405188916001600160a01b03808c1692908d16917fddf252ad1be2c89b69c2b068fc378daa952ba7f163c4a11628f55a4df523b3ef91a4505050505050505050565b610d07600080516020612de983398151915233610fa7565b610d235760405162461bcd60e51b815260040161081690612c19565b610d3b600080516020612dc983398151915282611745565b6040516001600160a01b038216907f766f6199fea59554b9ff688e413302b9200f85d74811c053c12d945ac6d8dd7a90600090a250565b600082815260656020526040902060010154610d8e813361208a565b610d9883836120ee565b505050565b6001600160a01b0381163314610e0d5760405162461bcd60e51b815260206004820152602f60248201527f416363657373436f6e74726f6c3a2063616e206f6e6c792072656e6f756e636560448201526e103937b632b9903337b91039b2b63360891b6064820152608401610816565b610e178282612174565b5050565b610d98838383604051806020016040528060008152506115c4565b6000610796600080516020612dc983398151915283610fa7565b610e68600080516020612de983398151915233610fa7565b610e845760405162461bcd60e51b815260040161081690612c19565b610e9c600080516020612dc983398151915282610d72565b6040516001600160a01b038216907f684f8a71407db0c334454ebe9c9b288549317893a20b10dc779ec5c118dcd12190600090a250565b6001600160a01b0316600090815260a06020526040902060010154421090565b60006001600160a01b038216610f1b5760405162461bcd60e51b815260040161081690612bb9565b610f2482610ed3565b610f2f576000610f32565b60015b60ff1692915050565b610f53600080516020612de983398151915233610fa7565b610f6f5760405162461bcd60e51b815260040161081690612c19565b6040518181527f0496ed1e61eb69727f9659a8e859288db4758ffb1f744d1c1424634f90a257f49060200160405180910390a160a655565b60009182526065602090815260408084206001600160a01b0393909316845291905290205460ff1690565b609754600160a01b900460ff16610ffb5760405162461bcd60e51b815260040161081690612c6e565b6001600160a01b0382163314156110435760405162461bcd60e51b815260206004820152600c60248201526b20a8282927ab22afa9a2a62360a11b6044820152606401610816565b33600081815260a5602090815260408083206001600160a01b03871680855290835292819020805460ff191686151590811790915590519081529192917f17307eab39ab6107e8899845ad3d59bd9653f200f220920489ca2b5937696c31910160405180910390a35050565b6110c7600080516020612de983398151915233610fa7565b6110e35760405162461bcd60e51b815260040161081690612c19565b609754600160a01b900460ff1661110c5760405162461bcd60e51b815260040161081690612c6e565b609a546097546001600160a01b03908116908316158061119c57506000836001600160a01b03166318160ddd6040518163ffffffff1660e01b815260040160206040518083038186803b15801561116257600080fd5b505afa158015611176573d6000803e3d6000fd5b505050506040513d601f19601f8201168201806040525081019061119a9190612a94565b115b6111d85760405162461bcd60e51b815260206004820152600d60248201526c24a72b20a624a22faa27a5a2a760991b6044820152606401610816565b609a849055609780546001600160a01b0319166001600160a01b0385811691821790925560408051858152602081018890529284169083015260608201527f3615065ccf48367ac483ac86701248e2e5ff55bdd9be845007d34a3b68d719d49060800160405180910390a150505050565b6000806099548361125a9190612ccf565b33600090815260a06020526040812060018101549293509161127d904290612cee565b90508083101561129b5761129686836000015485611845565b6112aa565b6112aa33878460000154610a36565b50600195945050505050565b6000610796600080516020612de983398151915283610fa7565b6112e8600080516020612de983398151915233610fa7565b6113045760405162461bcd60e51b815260040161081690612c19565b6001600160a01b038216158061132357506001600160a01b0382163b15155b61136f5760405162461bcd60e51b815260206004820152601860248201527f494e56414c49445f4f4e5f4b45595f534f4c445f484f4f4b00000000000000006044820152606401610816565b6001600160a01b038116158061138e57506001600160a01b0381163b15155b6113da5760405162461bcd60e51b815260206004820152601a60248201527f494e56414c49445f4f4e5f4b45595f43414e43454c5f484f4f4b0000000000006044820152606401610816565b609e80546001600160a01b039384166001600160a01b031991821617909155609f8054929093169116179055565b600082815260a1602052604090205482906001600160a01b031661145c5760405162461bcd60e51b815260206004820152600b60248201526a4e4f5f535543485f4b455960a81b6044820152606401610816565b6114668333611dcd565b806114755750611475336112b6565b6114c15760405162461bcd60e51b815260206004820152601f60248201527f554e415554484f52495a45445f4b45595f4d414e414745525f555044415445006044820152606401610816565b610d988383612008565b60006114d6336112b6565b806114eb5750609d546001600160a01b031633145b6115375760405162461bcd60e51b815260206004820181905260248201527f4f4e4c595f4c4f434b5f4d414e414745525f4f525f42454e45464943494152596044820152606401610816565b60975460405163095ea7b360e01b81526001600160a01b038581166004830152602482018590529091169063095ea7b390604401602060405180830381600087803b15801561158557600080fd5b505af1158015611599573d6000803e3d6000fd5b505050506040513d601f19601f820116820180604052508101906115bd9190612a04565b9392505050565b6115cf848484610a36565b6115db848484846121db565b6116275760405162461bcd60e51b815260206004820152601d60248201527f4e4f4e5f434f4d504c49414e545f4552433732315f52454345495645520000006044820152606401610816565b50505050565b611645600080516020612de983398151915233610fa7565b6116615760405162461bcd60e51b815260040161081690612c19565b609754600160a01b900460ff1661168a5760405162461bcd60e51b815260040161081690612c6e565b6040517f25a311358326fb18c62efc24bc28d3126acee8d2a67fd8b2145b757dc8bd1bc190600090a16097805460ff60a01b19169055565b6116da600080516020612de983398151915233610fa7565b6116f65760405162461bcd60e51b815260040161081690612c19565b61170e600080516020612de983398151915282610d72565b6040516001600160a01b038216907f91d5c045d5bd98bf59a379b259ebca05b93bf79af1845fdf87e3172385d4c7f790600090a250565b600082815260656020526040902060010154611761813361208a565b610d988383612174565b6001600160a01b03808316600090815260a0602090815260408083205480845260a39092528220549192909116806117ce575050506001600160a01b03808316600090815260a5602090815260408083209385168352929052205460ff16610796565b6001600160a01b03908116600090815260a5602090815260408083209387168352929052205460ff1691506107969050565b611818600080516020612de983398151915233610d9d565b60405133907f42885193b8178d25fca25a38e6fcc93918501e91be06d85e0c8afb3bad95238090600090a2565b609754600160a01b900460ff1661186e5760405162461bcd60e51b815260040161081690612c6e565b816118798133611dcd565b8061189a5750600081815260a460205260409020546001600160a01b031633145b806118c25750600081815260a160205260409020546118c2906001600160a01b03163361176b565b6118de5760405162461bcd60e51b815260040161081690612be2565b61271060a6541061192a5760405162461bcd60e51b815260206004820152601660248201527512d15657d514905394d1915494d7d11254d05093115160521b6044820152606401610816565b6001600160a01b0384166119505760405162461bcd60e51b815260040161081690612bb9565b600083815260a160205260409020546001600160a01b031661197181610ed3565b6119ad5760405162461bcd60e51b815260206004820152600d60248201526c12d15657d393d517d590531251609a1b6044820152606401610816565b6001600160a01b03808216600090815260a0602052604080822092881682528120805460018401549192909181906119e6904290612cee565b905060006119f4878a611d56565b90506000611a02828b612c97565b905082811015611a2057899350611a1b8b826000611e43565b611a6b565b611a2a8884611d56565b9150611a368284612cee565b4260018901556040519094508b907f59f2fe866dd27a1c2d34115520888c3150365cbc931aab97fa88c4b9ab40b79590600090a25b84611ac457611a798661229a565b85549450611a878c86611f44565b60405185906001600160a01b038e16906000907fddf252ad1be2c89b69c2b068fc378daa952ba7f163c4a11628f55a4df523b3ef908290a4611ada565b42866001015411611ada57611ada856000612008565b611ae685856001611e43565b848c6001600160a01b0316896001600160a01b03167fddf252ad1be2c89b69c2b068fc378daa952ba7f163c4a11628f55a4df523b3ef60405160405180910390a4611b42888d8d604051806020016040528060008152506121db565b611b8e5760405162461bcd60e51b815260206004820152601d60248201527f4e4f4e5f434f4d504c49414e545f4552433732315f52454345495645520000006044820152606401610816565b505050505050505050505050565b611ba5336112b6565b80611bba5750609d546001600160a01b031633145b611c065760405162461bcd60e51b815260206004820181905260248201527f4f4e4c595f4c4f434b5f4d414e414745525f4f525f42454e45464943494152596044820152606401610816565b60006001600160a01b038316611c1d575047611c97565b6040516370a0823160e01b81523060048201526001600160a01b038416906370a082319060240160206040518083038186803b158015611c5c57600080fd5b505afa158015611c70573d6000803e3d6000fd5b505050506040513d601f19601f82011682018060405250810190611c949190612a94565b90505b6000821580611ca557508183115b15611cf45760008211611ced5760405162461bcd60e51b815260206004820152601060248201526f4e4f545f454e4f5547485f46554e445360801b6044820152606401610816565b5080611cf7565b50815b609d546040518281526001600160a01b039182169186169033907f342e7ff505a8a0364cd0dc2ff195c315e43bce86b204846ecd36913e117b109e9060200160405180910390a4609d546116279085906001600160a01b0316836122bc565b6000611d6183610ed3565b611d6d57506000610796565b6001600160a01b038316600090815260a060205260408120908084611da357428360010154611d9c9190612cee565b9150611da7565b8491505b61271060a65483611db89190612ccf565b611dc29190612caf565b935061079692505050565b600082815260a360205260408120546001600160a01b0383811691161480611e2e5750600083815260a360205260409020546001600160a01b0316158015611e2e5750600083815260a160205260409020546001600160a01b038381169116145b15611e3b57506001610796565b506000610796565b600083815260a160205260409020546001600160a01b031680611e9b5760405162461bcd60e51b815260206004820152601060248201526f4e4f4e5f4558495354454e545f4b455960801b6044820152606401610816565b6001600160a01b038116600090815260a06020526040812060018101549091611ec384610ed3565b90508415611eef578015611ee557611edb8683612c97565b6001840155611eff565b611edb8642612c97565b611ef98683612cee565b60018401555b60408051878152861515602082015288917fe9408df99703ae33a9d01185bcad328ea8683fb1f920da9c30959c192f21b5b3910160405180910390a250505050505050565b600081815260a160205260409020546001600160a01b03838116911614610e175760a28054600181019091557faaf4f58de99300cfadc4585755f376d5fa747d5bc561d5bd9d710de1f91bf42d0180546001600160a01b0384166001600160a01b03199182168117909255600083815260a160205260409020805490911690911790555050565b600081815260a460205260409020546001600160a01b03161561200557600081815260a46020526040902080546001600160a01b03191690555b50565b600082815260a360205260409020546001600160a01b03828116911614610e1757600082815260a36020526040902080546001600160a01b0319166001600160a01b03831617905561205982611fcb565b60405160009083907f9d2895c45a420624de863a2f437b022d879f457bf7a829044055a10c5a6fd5e3908390a35050565b6120948282610fa7565b610e17576120ac816001600160a01b031660146122f8565b6120b78360206122f8565b6040516020016120c8929190612af4565b60408051601f198184030181529082905262461bcd60e51b825261081691600401612ba6565b6120f88282610fa7565b610e175760008281526065602090815260408083206001600160a01b03851684529091529020805460ff191660011790556121303390565b6001600160a01b0316816001600160a01b0316837f2f8788117e7eff1d82e926ec794901d17c78024a50270940304540a733656f0d60405160405180910390a45050565b61217e8282610fa7565b15610e175760008281526065602090815260408083206001600160a01b0385168085529252808320805460ff1916905551339285917ff6391f5c32d9c69d2a47ea670b442974b53935d1edc7fd64eb21e047a839171b9190a45050565b60006001600160a01b0384163b6121f457506001612292565b604051630a85bd0160e11b81526000906001600160a01b0386169063150b7a02906122299033908a9089908990600401612b69565b602060405180830381600087803b15801561224357600080fd5b505af1158015612257573d6000803e3d6000fd5b505050506040513d601f19601f8201168201806040525081019061227b9190612a78565b6001600160e01b031916630a85bd0160e11b149150505b949350505050565b805461200557609c80549060006122b083612d48565b9091555050609c549055565b8015610d98576001600160a01b0383166122e357610d986001600160a01b038316826124da565b826116276001600160a01b03821684846125f3565b60606000612307836002612ccf565b612312906002612c97565b67ffffffffffffffff81111561233857634e487b7160e01b600052604160045260246000fd5b6040519080825280601f01601f191660200182016040528015612362576020820181803683370190505b509050600360fc1b8160008151811061238b57634e487b7160e01b600052603260045260246000fd5b60200101906001600160f81b031916908160001a905350600f60fb1b816001815181106123c857634e487b7160e01b600052603260045260246000fd5b60200101906001600160f81b031916908160001a90535060006123ec846002612ccf565b6123f7906001612c97565b90505b600181111561248b576f181899199a1a9b1b9c1cb0b131b232b360811b85600f166010811061243957634e487b7160e01b600052603260045260246000fd5b1a60f81b82828151811061245d57634e487b7160e01b600052603260045260246000fd5b60200101906001600160f81b031916908160001a90535060049490941c9361248481612d31565b90506123fa565b5083156115bd5760405162461bcd60e51b815260206004820181905260248201527f537472696e67733a20686578206c656e67746820696e73756666696369656e746044820152606401610816565b8047101561252a5760405162461bcd60e51b815260206004820152601d60248201527f416464726573733a20696e73756666696369656e742062616c616e63650000006044820152606401610816565b6000826001600160a01b03168260405160006040518083038185875af1925050503d8060008114612577576040519150601f19603f3d011682016040523d82523d6000602084013e61257c565b606091505b5050905080610d985760405162461bcd60e51b815260206004820152603a60248201527f416464726573733a20756e61626c6520746f2073656e642076616c75652c207260448201527f6563697069656e74206d617920686176652072657665727465640000000000006064820152608401610816565b604080516001600160a01b03848116602483015260448083018590528351808403909101815260649092018352602080830180516001600160e01b031663a9059cbb60e01b17905283518085019094528084527f5361666545524332303a206c6f772d6c6576656c2063616c6c206661696c656490840152610d9892869291600091612683918516908490612700565b805190915015610d9857808060200190518101906126a19190612a04565b610d985760405162461bcd60e51b815260206004820152602a60248201527f5361666545524332303a204552433230206f7065726174696f6e20646964206e6044820152691bdd081cdd58d8d9595960b21b6064820152608401610816565b6060612292848460008585843b6127595760405162461bcd60e51b815260206004820152601d60248201527f416464726573733a2063616c6c20746f206e6f6e2d636f6e74726163740000006044820152606401610816565b600080866001600160a01b031685876040516127759190612ad8565b60006040518083038185875af1925050503d80600081146127b2576040519150601f19603f3d011682016040523d82523d6000602084013e6127b7565b606091505b50915091506127c78282866127d2565b979650505050505050565b606083156127e15750816115bd565b8251156127f15782518084602001fd5b8160405162461bcd60e51b81526004016108169190612ba6565b60006020828403121561281c578081fd5b81356115bd81612d8f565b60008060408385031215612839578081fd5b823561284481612d8f565b9150602083013561285481612d8f565b809150509250929050565b600080600060608486031215612873578081fd5b833561287e81612d8f565b9250602084013561288e81612d8f565b929592945050506040919091013590565b600080600080608085870312156128b4578081fd5b84356128bf81612d8f565b935060208501356128cf81612d8f565b925060408501359150606085013567ffffffffffffffff808211156128f2578283fd5b818701915087601f830112612905578283fd5b81358181111561291757612917612d79565b604051601f8201601f19908116603f0116810190838211818310171561293f5761293f612d79565b816040528281528a6020848701011115612957578586fd5b82602086016020830137918201602001949094529598949750929550505050565b6000806040838503121561298a578182fd5b823561299581612d8f565b9150602083013561285481612da4565b600080604083850312156129b7578182fd5b82356129c281612d8f565b946020939093013593505050565b6000806000606084860312156129e4578283fd5b83356129ef81612d8f565b95602085013595506040909401359392505050565b600060208284031215612a15578081fd5b81516115bd81612da4565b600060208284031215612a31578081fd5b5035919050565b60008060408385031215612a4a578182fd5b82359150602083013561285481612d8f565b600060208284031215612a6d578081fd5b81356115bd81612db2565b600060208284031215612a89578081fd5b81516115bd81612db2565b600060208284031215612aa5578081fd5b5051919050565b60008151808452612ac4816020860160208601612d05565b601f01601f19169290920160200192915050565b60008251612aea818460208701612d05565b9190910192915050565b7f416363657373436f6e74726f6c3a206163636f756e7420000000000000000000815260008351612b2c816017850160208801612d05565b7001034b99036b4b9b9b4b733903937b6329607d1b6017918401918201528351612b5d816028840160208801612d05565b01602801949350505050565b6001600160a01b0385811682528416602082015260408101839052608060608201819052600090612b9c90830184612aac565b9695505050505050565b6020815260006115bd6020830184612aac565b6020808252600f908201526e494e56414c49445f4144445245535360881b604082015260600190565b6020808252601c908201527f4f4e4c595f4b45595f4d414e414745525f4f525f415050524f56454400000000604082015260600190565b60208082526035908201527f4d6978696e526f6c65733a2063616c6c657220646f6573206e6f74206861766560408201527420746865204c6f636b4d616e6167657220726f6c6560581b606082015260800190565b6020808252600f908201526e1313d0d2d7d11154149150d0551151608a1b604082015260600190565b60008219821115612caa57612caa612d63565b500190565b600082612cca57634e487b7160e01b81526012600452602481fd5b500490565b6000816000190483118215151615612ce957612ce9612d63565b500290565b600082821015612d0057612d00612d63565b500390565b60005b83811015612d20578181015183820152602001612d08565b838111156116275750506000910152565b600081612d4057612d40612d63565b506000190190565b6000600019821415612d5c57612d5c612d63565b5060010190565b634e487b7160e01b600052601160045260246000fd5b634e487b7160e01b600052604160045260246000fd5b6001600160a01b038116811461200557600080fd5b801515811461200557600080fd5b6001600160e01b03198116811461200557600080fdfeb309c40027c81d382c3b58d8de24207a34b27e1db369b1434e4a11311f154b5eb89cdd26cddd51301940bf2715f765b626b8a5a9e2681ac62dc83cc2db2530c0a26469706673582212202463cc906e51a0578eb01b9292a675538645d507983dacf016ffb1a5948092d664736f6c63430008040033",
  "linkReferences": {},
  "deployedLinkReferences": {}
}