{
  "_format": "hh-sol-artifact-1",
  "contractName": "Comptroller",
  "sourceName": "contracts/token/Comptroller.sol",
  "abi": [
    {
      "anonymous": false,
      "inputs": [
        {
          "indexed": false,
          "internalType": "address",
          "name": "previousAdmin",
          "type": "address"
        },
        {
          "indexed": false,
          "internalType": "address",
          "name": "newAdmin",
          "type": "address"
        }
      ],
      "name": "AdminChanged",
      "type": "event"
    },
    {
      "anonymous": false,
      "inputs": [
        {
          "indexed": true,
          "internalType": "address",
          "name": "beacon",
          "type": "address"
        }
      ],
      "name": "BeaconUpgraded",
      "type": "event"
    },
    {
      "anonymous": false,
      "inputs": [
        {
          "indexed": true,
          "internalType": "address",
          "name": "account",
          "type": "address"
        },
        {
          "indexed": false,
          "internalType": "uint256",
          "name": "amount",
          "type": "uint256"
        }
      ],
      "name": "LogWithdrawRewards",
      "type": "event"
    },
    {
      "anonymous": false,
      "inputs": [
        {
          "indexed": false,
          "internalType": "address",
          "name": "account",
          "type": "address"
        }
      ],
      "name": "Paused",
      "type": "event"
    },
    {
      "anonymous": false,
      "inputs": [
        {
          "indexed": true,
          "internalType": "bytes32",
          "name": "role",
          "type": "bytes32"
        },
        {
          "indexed": true,
          "internalType": "bytes32",
          "name": "previousAdminRole",
          "type": "bytes32"
        },
        {
          "indexed": true,
          "internalType": "bytes32",
          "name": "newAdminRole",
          "type": "bytes32"
        }
      ],
      "name": "RoleAdminChanged",
      "type": "event"
    },
    {
      "anonymous": false,
      "inputs": [
        {
          "indexed": true,
          "internalType": "bytes32",
          "name": "role",
          "type": "bytes32"
        },
        {
          "indexed": true,
          "internalType": "address",
          "name": "account",
          "type": "address"
        },
        {
          "indexed": true,
          "internalType": "address",
          "name": "sender",
          "type": "address"
        }
      ],
      "name": "RoleGranted",
      "type": "event"
    },
    {
      "anonymous": false,
      "inputs": [
        {
          "indexed": true,
          "internalType": "bytes32",
          "name": "role",
          "type": "bytes32"
        },
        {
          "indexed": true,
          "internalType": "address",
          "name": "account",
          "type": "address"
        },
        {
          "indexed": true,
          "internalType": "address",
          "name": "sender",
          "type": "address"
        }
      ],
      "name": "RoleRevoked",
      "type": "event"
    },
    {
      "anonymous": false,
      "inputs": [
        {
          "indexed": false,
          "internalType": "address",
          "name": "account",
          "type": "address"
        }
      ],
      "name": "Unpaused",
      "type": "event"
    },
    {
      "anonymous": false,
      "inputs": [
        {
          "indexed": true,
          "internalType": "address",
          "name": "implementation",
          "type": "address"
        }
      ],
      "name": "Upgraded",
      "type": "event"
    },
    {
      "inputs": [],
      "name": "DEFAULT_ADMIN_ROLE",
      "outputs": [
        {
          "internalType": "bytes32",
          "name": "",
          "type": "bytes32"
        }
      ],
      "stateMutability": "view",
      "type": "function"
    },
    {
      "inputs": [],
      "name": "INIT_INFLATION_INDEX",
      "outputs": [
        {
          "internalType": "uint256",
          "name": "",
          "type": "uint256"
        }
      ],
      "stateMutability": "view",
      "type": "function"
    },
    {
      "inputs": [],
      "name": "ROLE_ADMIN",
      "outputs": [
        {
          "internalType": "bytes32",
          "name": "",
          "type": "bytes32"
        }
      ],
      "stateMutability": "view",
      "type": "function"
    },
    {
      "inputs": [
        {
          "internalType": "address",
          "name": "unionToken_",
          "type": "address"
        },
        {
          "internalType": "address",
          "name": "marketRegistry_",
          "type": "address"
        }
      ],
      "name": "__Comptroller_init",
      "outputs": [],
      "stateMutability": "nonpayable",
      "type": "function"
    },
    {
      "inputs": [
        {
          "internalType": "address",
          "name": "admin_",
          "type": "address"
        }
      ],
      "name": "__Controller_init",
      "outputs": [],
      "stateMutability": "nonpayable",
      "type": "function"
    },
    {
      "inputs": [
        {
          "internalType": "address",
          "name": "account",
          "type": "address"
        }
      ],
      "name": "addAdmin",
      "outputs": [],
      "stateMutability": "nonpayable",
      "type": "function"
    },
    {
      "inputs": [
        {
          "internalType": "address",
          "name": "staker",
          "type": "address"
        },
        {
          "internalType": "address",
          "name": "token",
          "type": "address"
        },
        {
          "internalType": "uint256",
          "name": "lockedStake",
          "type": "uint256"
        },
        {
          "internalType": "uint256",
          "name": "lastRepay",
          "type": "uint256"
        }
      ],
      "name": "addFrozenCoinAge",
      "outputs": [],
      "stateMutability": "nonpayable",
      "type": "function"
    },
    {
      "inputs": [
        {
          "internalType": "address",
          "name": "account",
          "type": "address"
        },
        {
          "internalType": "address",
          "name": "token",
          "type": "address"
        }
      ],
      "name": "calculateRewards",
      "outputs": [
        {
          "internalType": "uint256",
          "name": "",
          "type": "uint256"
        }
      ],
      "stateMutability": "view",
      "type": "function"
    },
    {
      "inputs": [
        {
          "internalType": "address",
          "name": "account",
          "type": "address"
        },
        {
          "internalType": "address",
          "name": "token",
          "type": "address"
        },
        {
          "internalType": "uint256",
          "name": "futureBlocks",
          "type": "uint256"
        }
      ],
      "name": "calculateRewardsByBlocks",
      "outputs": [
        {
          "internalType": "uint256",
          "name": "",
          "type": "uint256"
        }
      ],
      "stateMutability": "view",
      "type": "function"
    },
    {
      "inputs": [],
      "name": "gInflationIndex",
      "outputs": [
        {
          "internalType": "uint256",
          "name": "",
          "type": "uint256"
        }
      ],
      "stateMutability": "view",
      "type": "function"
    },
    {
      "inputs": [],
      "name": "gLastUpdatedBlock",
      "outputs": [
        {
          "internalType": "uint256",
          "name": "",
          "type": "uint256"
        }
      ],
      "stateMutability": "view",
      "type": "function"
    },
    {
      "inputs": [
        {
          "internalType": "address",
          "name": "account",
          "type": "address"
        },
        {
          "internalType": "address",
          "name": "token",
          "type": "address"
        }
      ],
      "name": "getRewardsMultiplier",
      "outputs": [
        {
          "internalType": "uint256",
          "name": "",
          "type": "uint256"
        }
      ],
      "stateMutability": "view",
      "type": "function"
    },
    {
      "inputs": [
        {
          "internalType": "bytes32",
          "name": "role",
          "type": "bytes32"
        }
      ],
      "name": "getRoleAdmin",
      "outputs": [
        {
          "internalType": "bytes32",
          "name": "",
          "type": "bytes32"
        }
      ],
      "stateMutability": "view",
      "type": "function"
    },
    {
      "inputs": [
        {
          "internalType": "bytes32",
          "name": "role",
          "type": "bytes32"
        },
        {
          "internalType": "address",
          "name": "account",
          "type": "address"
        }
      ],
      "name": "grantRole",
      "outputs": [],
      "stateMutability": "nonpayable",
      "type": "function"
    },
    {
      "inputs": [],
      "name": "halfDecayPoint",
      "outputs": [
        {
          "internalType": "uint256",
          "name": "",
          "type": "uint256"
        }
      ],
      "stateMutability": "view",
      "type": "function"
    },
    {
      "inputs": [
        {
          "internalType": "bytes32",
          "name": "role",
          "type": "bytes32"
        },
        {
          "internalType": "address",
          "name": "account",
          "type": "address"
        }
      ],
      "name": "hasRole",
      "outputs": [
        {
          "internalType": "bool",
          "name": "",
          "type": "bool"
        }
      ],
      "stateMutability": "view",
      "type": "function"
    },
    {
      "inputs": [
        {
          "internalType": "uint256",
          "name": "effectiveTotalStake",
          "type": "uint256"
        }
      ],
      "name": "inflationPerBlock",
      "outputs": [
        {
          "internalType": "uint256",
          "name": "",
          "type": "uint256"
        }
      ],
      "stateMutability": "view",
      "type": "function"
    },
    {
      "inputs": [
        {
          "internalType": "address",
          "name": "account",
          "type": "address"
        }
      ],
      "name": "isAdmin",
      "outputs": [
        {
          "internalType": "bool",
          "name": "",
          "type": "bool"
        }
      ],
      "stateMutability": "view",
      "type": "function"
    },
    {
      "inputs": [
        {
          "internalType": "uint256",
          "name": "index",
          "type": "uint256"
        }
      ],
      "name": "lookup",
      "outputs": [
        {
          "internalType": "uint256",
          "name": "",
          "type": "uint256"
        }
      ],
      "stateMutability": "pure",
      "type": "function"
    },
    {
      "inputs": [],
      "name": "marketRegistry",
      "outputs": [
        {
          "internalType": "contract IMarketRegistry",
          "name": "",
          "type": "address"
        }
      ],
      "stateMutability": "view",
      "type": "function"
    },
    {
      "inputs": [],
      "name": "memberRatio",
      "outputs": [
        {
          "internalType": "uint256",
          "name": "",
          "type": "uint256"
        }
      ],
      "stateMutability": "view",
      "type": "function"
    },
    {
      "inputs": [],
      "name": "nonMemberRatio",
      "outputs": [
        {
          "internalType": "uint256",
          "name": "",
          "type": "uint256"
        }
      ],
      "stateMutability": "view",
      "type": "function"
    },
    {
      "inputs": [],
      "name": "pause",
      "outputs": [],
      "stateMutability": "nonpayable",
      "type": "function"
    },
    {
      "inputs": [],
      "name": "pauseGuardian",
      "outputs": [
        {
          "internalType": "address",
          "name": "",
          "type": "address"
        }
      ],
      "stateMutability": "view",
      "type": "function"
    },
    {
      "inputs": [],
      "name": "paused",
      "outputs": [
        {
          "internalType": "bool",
          "name": "",
          "type": "bool"
        }
      ],
      "stateMutability": "view",
      "type": "function"
    },
    {
      "inputs": [],
      "name": "renounceAdmin",
      "outputs": [],
      "stateMutability": "nonpayable",
      "type": "function"
    },
    {
      "inputs": [
        {
          "internalType": "bytes32",
          "name": "role",
          "type": "bytes32"
        },
        {
          "internalType": "address",
          "name": "account",
          "type": "address"
        }
      ],
      "name": "renounceRole",
      "outputs": [],
      "stateMutability": "nonpayable",
      "type": "function"
    },
    {
      "inputs": [
        {
          "internalType": "bytes32",
          "name": "role",
          "type": "bytes32"
        },
        {
          "internalType": "address",
          "name": "account",
          "type": "address"
        }
      ],
      "name": "revokeRole",
      "outputs": [],
      "stateMutability": "nonpayable",
      "type": "function"
    },
    {
      "inputs": [
        {
          "internalType": "address",
          "name": "account",
          "type": "address"
        }
      ],
      "name": "setGuardian",
      "outputs": [],
      "stateMutability": "nonpayable",
      "type": "function"
    },
    {
      "inputs": [
        {
          "internalType": "uint256",
          "name": "point",
          "type": "uint256"
        }
      ],
      "name": "setHalfDecayPoint",
      "outputs": [],
      "stateMutability": "nonpayable",
      "type": "function"
    },
    {
      "inputs": [
        {
          "internalType": "bytes4",
          "name": "interfaceId",
          "type": "bytes4"
        }
      ],
      "name": "supportsInterface",
      "outputs": [
        {
          "internalType": "bool",
          "name": "",
          "type": "bool"
        }
      ],
      "stateMutability": "view",
      "type": "function"
    },
    {
      "inputs": [],
      "name": "unionToken",
      "outputs": [
        {
          "internalType": "contract IERC20Upgradeable",
          "name": "",
          "type": "address"
        }
      ],
      "stateMutability": "view",
      "type": "function"
    },
    {
      "inputs": [],
      "name": "unpause",
      "outputs": [],
      "stateMutability": "nonpayable",
      "type": "function"
    },
    {
      "inputs": [
        {
          "internalType": "address",
          "name": "token",
          "type": "address"
        },
        {
          "internalType": "uint256",
          "name": "totalStaked",
          "type": "uint256"
        }
      ],
      "name": "updateTotalStaked",
      "outputs": [
        {
          "internalType": "bool",
          "name": "",
          "type": "bool"
        }
      ],
      "stateMutability": "nonpayable",
      "type": "function"
    },
    {
      "inputs": [
        {
          "internalType": "address",
          "name": "newImplementation",
          "type": "address"
        }
      ],
      "name": "upgradeTo",
      "outputs": [],
      "stateMutability": "nonpayable",
      "type": "function"
    },
    {
      "inputs": [
        {
          "internalType": "address",
          "name": "newImplementation",
          "type": "address"
        },
        {
          "internalType": "bytes",
          "name": "data",
          "type": "bytes"
        }
      ],
      "name": "upgradeToAndCall",
      "outputs": [],
      "stateMutability": "payable",
      "type": "function"
    },
    {
      "inputs": [
        {
          "internalType": "address",
          "name": "",
          "type": "address"
        },
        {
          "internalType": "address",
          "name": "",
          "type": "address"
        }
      ],
      "name": "users",
      "outputs": [
        {
          "internalType": "uint256",
          "name": "frozenCoinAge",
          "type": "uint256"
        },
        {
          "internalType": "uint256",
          "name": "updatedBlock",
          "type": "uint256"
        },
        {
          "internalType": "uint256",
          "name": "inflationIndex",
          "type": "uint256"
        },
        {
          "internalType": "uint256",
          "name": "accrued",
          "type": "uint256"
        }
      ],
      "stateMutability": "view",
      "type": "function"
    },
    {
      "inputs": [
        {
          "internalType": "address",
          "name": "sender",
          "type": "address"
        },
        {
          "internalType": "address",
          "name": "token",
          "type": "address"
        }
      ],
      "name": "withdrawRewards",
      "outputs": [
        {
          "internalType": "uint256",
          "name": "",
          "type": "uint256"
        }
      ],
      "stateMutability": "nonpayable",
      "type": "function"
    }
  ],
  "bytecode": "0x60a06040523060601b60805234801561001757600080fd5b5060805160601c612fec61004b60003960008181610a8e01528181610ace01528181610c110152610c510152612fec6000f3fe6080604052600436106102245760003560e01c8063677e1de711610123578063973e5ad5116100ab578063d391014b1161006f578063d391014b14610665578063d547741f14610687578063e20981ca146106a7578063ecb96fe6146106c7578063f70222e1146106e857600080fd5b8063973e5ad5146105fd578063a068b33c14610614578063a217fddf14610630578063a84afb3014610645578063cf996b601461061457600080fd5b80637f38a81a116100f25780637f38a81a146105775780638456cb59146105935780638a0dac4a146105a85780638bad0c0a146105c857806391d14854146105dd57600080fd5b8063677e1de7146104f75780636c461a7314610517578063704802751461053757806377e90d061461055757600080fd5b80632f2ff15d116101b15780634f1ef286116101755780634f1ef28614610427578063552563131461043a5780635c975abb1461045a5780635e80536a14610472578063624a169c146104e057600080fd5b80632f2ff15d1461039b57806336568abe146103bb5780633659cfe6146103db5780633f4ba83a146103fb57806340a766341461041057600080fd5b80630cc9c970116101f85780630cc9c970146102cc578063248a9ca3146102ee57806324a3d6221461031e57806324d7806c1461035b578063267042601461037b57600080fd5b8062c9d5091461022957806301ffc9a71461025c57806304a328831461028c5780630a874df6146102ac575b600080fd5b34801561023557600080fd5b5061024961024436600461296b565b610709565b6040519081526020015b60405180910390f35b34801561026857600080fd5b5061027c610277366004612b9c565b610720565b6040519015158152602001610253565b34801561029857600080fd5b506102496102a7366004612b60565b610755565b3480156102b857600080fd5b506102496102c7366004612b60565b610779565b3480156102d857600080fd5b506102ec6102e7366004612b60565b6108e9565b005b3480156102fa57600080fd5b50610249610309366004612b60565b600090815260c9602052604090206001015490565b34801561032a57600080fd5b5060fc546103439061010090046001600160a01b031681565b6040516001600160a01b039091168152602001610253565b34801561036757600080fd5b5061027c61037636600461294f565b61092c565b34801561038757600080fd5b5061027c610396366004612b15565b610946565b3480156103a757600080fd5b506102ec6103b6366004612b78565b6109da565b3480156103c757600080fd5b506102ec6103d6366004612b78565b610a05565b3480156103e757600080fd5b506102ec6103f636600461294f565b610a83565b34801561040757600080fd5b506102ec610b4c565b34801561041c57600080fd5b5061024961012f5481565b6102ec610435366004612a56565b610c06565b34801561044657600080fd5b506102ec610455366004612a11565b610cbc565b34801561046657600080fd5b5060fc5460ff1661027c565b34801561047e57600080fd5b506104c061048d36600461296b565b61013460209081526000928352604080842090915290825290208054600182015460028301546003909301549192909184565b604080519485526020850193909352918301526060820152608001610253565b3480156104ec57600080fd5b506102496101305481565b34801561050357600080fd5b506102ec61051236600461296b565b610d99565b34801561052357600080fd5b506102ec61053236600461294f565b610e5b565b34801561054357600080fd5b506102ec61055236600461294f565b610f8b565b34801561056357600080fd5b506102496105723660046129d1565b6110c3565b34801561058357600080fd5b50610249670a688906bd8b000081565b34801561059f57600080fd5b506102ec611564565b3480156105b457600080fd5b506102ec6105c336600461294f565b6115f3565b3480156105d457600080fd5b506102ec61164f565b3480156105e957600080fd5b5061027c6105f8366004612b78565b611686565b34801561060957600080fd5b506102496101315481565b34801561062057600080fd5b50610249670de0b6b3a764000081565b34801561063c57600080fd5b50610249600081565b34801561065157600080fd5b5061024961066036600461296b565b6116b1565b34801561067157600080fd5b50610249600080516020612f7083398151915281565b34801561069357600080fd5b506102ec6106a2366004612b78565b6118d3565b3480156106b357600080fd5b506102496106c236600461296b565b6118f9565b3480156106d357600080fd5b5061013354610343906001600160a01b031681565b3480156106f457600080fd5b5061013254610343906001600160a01b031681565b6000610717838360006110c3565b90505b92915050565b60006001600160e01b03198216637965db0b60e01b148061071a57506301ffc9a760e01b6001600160e01b031983161461071a565b60008061012f54836107679190612e91565b905061077281610779565b9392505050565b60006509184e72a00082116107975750670de0b6b3a7640000919050565b655af3107a400082116107b35750670c7d713b49da0000919050565b66038d7ea4c6800082116107d05750670b1a2bc2ec500000919050565b662386f26fc1000082116107ed57506709b6e64a8ec60000919050565b67016345785d8a0000821161080b5750670853a0d2313c0000919050565b670de0b6b3a7640000821161082957506706f05b59d3b20000919050565b674563918244f40000821161084757506703782dace9d90000919050565b678ac7230489e800008211610865575067016345785d8a0000919050565b68056bc75e2d6310000082116108835750662386f26fc10000919050565b683635c9adc5dea0000082116108a1575066038d7ea4c68000919050565b69021e19e0c9bab240000082116108bf5750655af3107a4000919050565b69152d02c7e14af680000082116108dd57506509184e72a000919050565b5064e8d4a51000919050565b610901600080516020612f7083398151915233611686565b6109265760405162461bcd60e51b815260040161091d90612d38565b60405180910390fd5b61012f55565b600061071a600080516020612f7083398151915283611686565b60fc5460009060ff161561096c5760405162461bcd60e51b815260040161091d90612e4d565b8261097681611c41565b6001600160a01b0316336001600160a01b0316146109a65760405162461bcd60e51b815260040161091d90612db9565b82156109c9576109c48361013154436109bf9190612ed0565b611cbf565b610130555b4361013155600191505b5092915050565b600082815260c960205260409020600101546109f68133611cf2565b610a008383611d56565b505050565b6001600160a01b0381163314610a755760405162461bcd60e51b815260206004820152602f60248201527f416363657373436f6e74726f6c3a2063616e206f6e6c792072656e6f756e636560448201526e103937b632b9903337b91039b2b63360891b606482015260840161091d565b610a7f8282611ddc565b5050565b306001600160a01b037f0000000000000000000000000000000000000000000000000000000000000000161415610acc5760405162461bcd60e51b815260040161091d90612ca0565b7f00000000000000000000000000000000000000000000000000000000000000006001600160a01b0316610afe611e43565b6001600160a01b031614610b245760405162461bcd60e51b815260040161091d90612cec565b610b2d81611e71565b60408051600080825260208201909252610b4991839190611ea5565b50565b60fc5461010090046001600160a01b03163314610b7b5760405162461bcd60e51b815260040161091d90612d67565b60fc5460ff16610bc65760405162461bcd60e51b815260206004820152601660248201527510dbdb9d1c9bdb1b195c8e881b9bdd081c185d5cd95960521b604482015260640161091d565b60fc805460ff191690556040513381527f5db9ee0a495bf2e6ff9c91a7834c1ba4fdd244a5e8aa4e537bd38aeae4b073aa906020015b60405180910390a1565b306001600160a01b037f0000000000000000000000000000000000000000000000000000000000000000161415610c4f5760405162461bcd60e51b815260040161091d90612ca0565b7f00000000000000000000000000000000000000000000000000000000000000006001600160a01b0316610c81611e43565b6001600160a01b031614610ca75760405162461bcd60e51b815260040161091d90612cec565b610cb082611e71565b610a7f82826001611ea5565b82610cc681611c41565b6001600160a01b0316336001600160a01b031614610cf65760405162461bcd60e51b815260040161091d90612db9565b6001600160a01b038086166000908152610134602090815260408083209388168352929052908120600101549083821115610d3c57610d358243612ed0565b9050610d49565b610d468443612ed0565b90505b610d538186612eb1565b6001600160a01b03808916600090815261013460209081526040808320938b1683529290529081208054909190610d8b908490612e79565b909155505050505050505050565b600054610100900460ff1680610db2575060005460ff16155b610dce5760405162461bcd60e51b815260040161091d90612dff565b600054610100900460ff16158015610df0576000805461ffff19166101011790555b610df933610e5b565b61013280546001600160a01b038086166001600160a01b031992831617909255610133805492851692909116919091179055670de0b6b3a7640000610130554361013155620186a061012f558015610a00576000805461ff0019169055505050565b600054610100900460ff1680610e74575060005460ff16155b610e905760405162461bcd60e51b815260040161091d90612dff565b600054610100900460ff16158015610eb2576000805461ffff19166101011790555b6001600160a01b038216610f035760405162461bcd60e51b8152602060048201526018602482015277436f6e74726f6c6c65723a2061646472657373207a65726f60401b604482015260640161091d565b60fc805460ff191690556001600160a01b038216600081815260fb6020526040902080546001600160a01b0319169091179055610f3e611ff0565b610f56600080516020612f708339815191528361206b565b60fc8054610100600160a81b0319166101006001600160a01b038516021790558015610a7f576000805461ff00191690555050565b610fa3600080516020612f7083398151915233611686565b610fbf5760405162461bcd60e51b815260040161091d90612d38565b6001600160a01b0381166110105760405162461bcd60e51b8152602060048201526018602482015277436f6e74726f6c6c65723a2061646472657373207a65726f60401b604482015260640161091d565b6001600160a01b03818116600090815260fb602052604090205416156110825760405162461bcd60e51b815260206004820152602160248201527f436f6e74726f6c6c65723a2061646d696e20616c7265616479206578697374656044820152601960fa1b606482015260840161091d565b6001600160a01b038116600081815260fb6020526040902080546001600160a01b0319169091179055610b49600080516020612f708339815191528261206b565b6000806110cf84611c41565b6001600160a01b03808716600090815261013460209081526040808320938916835292815282822083516080808201865282548252600183015482850152600283015482870152600390920154606080830191909152855160e081018752858152938401859052948301849052938201839052810182905260a0810182905260c081019190915291925090826001600160a01b0316631e7f87bc6040518163ffffffff1660e01b815260040160206040518083038186803b15801561119357600080fd5b505afa1580156111a7573d6000803e3d6000fd5b505050506040513d601f19601f820116820180604052508101906111cb9190612bc4565b6020820152604051632640d9db60e01b81526001600160a01b038881166004830152841690632640d9db9060240160206040518083038186803b15801561121157600080fd5b505afa158015611225573d6000803e3d6000fd5b505050506040513d601f19601f820116820180604052508101906112499190612bc4565b81526040516306e4c5a760e31b81526001600160a01b0388811660048301528416906337262d389060240160206040518083038186803b15801561128c57600080fd5b505afa1580156112a0573d6000803e3d6000fd5b505050506040513d601f19601f820116820180604052508101906112c49190612bc4565b8160600181815250508060200151836001600160a01b031663817b1cd26040518163ffffffff1660e01b815260040160206040518083038186803b15801561130b57600080fd5b505afa15801561131f573d6000803e3d6000fd5b505050506040513d601f19601f820116820180604052508101906113439190612bc4565b61134d9190612ed0565b60408201526020820151438111156113625750435b60008661136f8343612ed0565b6113799190612e79565b8451604051636eb1fbb160e11b81526001600160a01b038c8116600483015260248201849052929350909187169063dd63f7629060440160206040518083038186803b1580156113c857600080fd5b505afa1580156113dc573d6000803e3d6000fd5b505050506040513d601f19601f820116820180604052508101906114009190612bc4565b61140a9190612e79565b6080840152604051632ba6d6dd60e11b81526001600160a01b038a8116600483015286169063574dadba9060240160206040518083038186803b15801561145057600080fd5b505afa158015611464573d6000803e3d6000fd5b505050506040513d601f19601f820116820180604052508101906114889190612bc4565b60a08401526040516321d2a57360e01b81526001600160a01b038a811660048301528616906321d2a5739060240160206040518083038186803b1580156114ce57600080fd5b505afa1580156114e2573d6000803e3d6000fd5b505050506040513d601f19601f820116820180604052508101906115069190612b40565b151560c08401819052835160a0850151606086015160009361152a93929190612075565b90506115478a8a8660400151876000015188608001518787612102565b85606001516115569190612e79565b9a9950505050505050505050565b60fc5461010090046001600160a01b031633146115935760405162461bcd60e51b815260040161091d90612d67565b60fc5460ff16156115b65760405162461bcd60e51b815260040161091d90612e4d565b60fc805460ff191660011790556040513381527f62e78cea01bee320cd4e420270b5ea74000d11b0c9f74754ebdbfc544b05a25890602001610bfc565b61160b600080516020612f7083398151915233611686565b6116275760405162461bcd60e51b815260040161091d90612d38565b60fc80546001600160a01b0390921661010002610100600160a81b0319909216919091179055565b611667600080516020612f7083398151915233610a05565b33600090815260fb6020526040902080546001600160a01b0319169055565b600091825260c9602090815260408084206001600160a01b0393909316845291905290205460ff1690565b6000806116bd83611c41565b604051632640d9db60e01b81526001600160a01b038681166004830152919250600091831690632640d9db9060240160206040518083038186803b15801561170457600080fd5b505afa158015611718573d6000803e3d6000fd5b505050506040513d601f19601f8201168201806040525081019061173c9190612bc4565b604051632ba6d6dd60e11b81526001600160a01b03878116600483015291925060009184169063574dadba9060240160206040518083038186803b15801561178357600080fd5b505afa158015611797573d6000803e3d6000fd5b505050506040513d601f19601f820116820180604052508101906117bb9190612bc4565b6040516306e4c5a760e31b81526001600160a01b0388811660048301529192506000918516906337262d389060240160206040518083038186803b15801561180257600080fd5b505afa158015611816573d6000803e3d6000fd5b505050506040513d601f19601f8201168201806040525081019061183a9190612bc4565b6040516321d2a57360e01b81526001600160a01b0389811660048301529192506000918616906321d2a5739060240160206040518083038186803b15801561188157600080fd5b505afa158015611895573d6000803e3d6000fd5b505050506040513d601f19601f820116820180604052508101906118b99190612b40565b90506118c784848484612075565b98975050505050505050565b600082815260c960205260409020600101546118ef8133611cf2565b610a008383611ddc565b60fc5460009060ff161561191f5760405162461bcd60e51b815260040161091d90612e4d565b8161192981611c41565b6001600160a01b0316336001600160a01b0316146119595760405162461bcd60e51b815260040161091d90612db9565b6000611967858560006110c3565b9050600061197485611c41565b90506000816001600160a01b0316631e7f87bc6040518163ffffffff1660e01b815260040160206040518083038186803b1580156119b157600080fd5b505afa1580156119c5573d6000803e3d6000fd5b505050506040513d601f19601f820116820180604052508101906119e99190612bc4565b826001600160a01b031663817b1cd26040518163ffffffff1660e01b815260040160206040518083038186803b158015611a2257600080fd5b505afa158015611a36573d6000803e3d6000fd5b505050506040513d601f19601f82011682018060405250810190611a5a9190612bc4565b611a649190612ed0565b9050611a798161013154436109bf9190612ed0565b610130908155436101318190556001600160a01b038981166000908152610134602090815260408083208c85168452909152808220918255600182019390935592546002909301929092556101325490516370a0823160e01b8152306004820152859291909116906370a082319060240160206040518083038186803b158015611b0257600080fd5b505afa158015611b16573d6000803e3d6000fd5b505050506040513d601f19601f82011682018060405250810190611b3a9190612bc4565b10158015611b485750600083115b15611bd55761013254611b65906001600160a01b03168885612272565b6001600160a01b03808816600081815261013460209081526040808320948b1683529390528281206003015590517f9074ae8fe137f8dd6d158c0e5f1d0b3169b04ba4be11a18ec03b9269b8e91a1a90611bc29086815260200190565b60405180910390a28294505050506109d3565b6001600160a01b03878116600081815261013460209081526040808320948b168352938152838220600301879055925190815290917f9074ae8fe137f8dd6d158c0e5f1d0b3169b04ba4be11a18ec03b9269b8e91a1a910160405180910390a2600094505050506109d3565b6101335460405163e486033960e01b81526001600160a01b038381166004830152600092169063e486033990602401604080518083038186803b158015611c8757600080fd5b505afa158015611c9b573d6000803e3d6000fd5b505050506040513d601f19601f8201168201806040525081019061077291906129a3565b600082611cd55750670de0b6b3a764000061071a565b81611ce457506101305461071a565b6107178361013054846122c4565b611cfc8282611686565b610a7f57611d14816001600160a01b031660146122ee565b611d1f8360206122ee565b604051602001611d30929190612bf8565b60408051601f198184030181529082905262461bcd60e51b825261091d91600401612c6d565b611d608282611686565b610a7f57600082815260c9602090815260408083206001600160a01b03851684529091529020805460ff19166001179055611d983390565b6001600160a01b0316816001600160a01b0316837f2f8788117e7eff1d82e926ec794901d17c78024a50270940304540a733656f0d60405160405180910390a45050565b611de68282611686565b15610a7f57600082815260c9602090815260408083206001600160a01b0385168085529252808320805460ff1916905551339285917ff6391f5c32d9c69d2a47ea670b442974b53935d1edc7fd64eb21e047a839171b9190a45050565b7f360894a13ba1a3210667c828492db98dca3e2076cc3735a920a3ca505d382bbc546001600160a01b031690565b611e89600080516020612f7083398151915233611686565b610b495760405162461bcd60e51b815260040161091d90612d38565b6000611eaf611e43565b9050611eba846124d0565b600083511180611ec75750815b15611ed857611ed68484612575565b505b7f4910fdfa16fed3260ed0e7147f7cc6da11a60208b5b9406d12a635614ffd9143805460ff16611fe957805460ff191660011781556040516001600160a01b0383166024820152611f5790869060440160408051601f198184030181529190526020810180516001600160e01b0316631b2ce7f360e11b179052612575565b50805460ff19168155611f68611e43565b6001600160a01b0316826001600160a01b031614611fe05760405162461bcd60e51b815260206004820152602f60248201527f45524331393637557067726164653a207570677261646520627265616b73206660448201526e75727468657220757067726164657360881b606482015260840161091d565b611fe985612660565b5050505050565b600054610100900460ff1680612009575060005460ff16155b6120255760405162461bcd60e51b815260040161091d90612dff565b600054610100900460ff16158015612047576000805461ffff19166101011790555b61204f6126a0565b6120576126a0565b8015610b49576000805461ff001916905550565b610a7f8282611d56565b600081156120ef5784158061208a5750838310155b806120955750848310155b156120a95750670de0b6b3a76400006120fa565b60006120b58486612ed0565b905060006120c38588612ed0565b905060006120d1838361270a565b90506120e5670de0b6b3a764000082612e79565b93505050506120fa565b50670a688906bd8b00005b949350505050565b6001600160a01b03808816600090815261013460209081526040808320938a16835292905290812060020154846121398588612eb1565b10156121935760405162461bcd60e51b815260206004820152602360248201527f20436f6d7074726f6c6c65723a2066726f7a656e20636f696e206167652065726044820152623937b960e91b606482015260840161091d565b85158061219e575086155b806121a7575080155b806121b0575083155b156121bf576000915050612267565b600084866121cd828a612eb1565b6121d79190612ed0565b6121e19190612e91565b905060006121ef8987611cbf565b90508281101561224b5760405162461bcd60e51b815260206004820152602160248201527f436f6d7074726f6c6c65723a20696e666c6174696f6e496e646578206572726f6044820152603960f91b606482015260840161091d565b6122618561225b84818786612ed0565b90612741565b93505050505b979650505050505050565b604080516001600160a01b038416602482015260448082018490528251808303909101815260649091019091526020810180516001600160e01b031663a9059cbb60e01b179052610a0090849061277d565b6000826122da856122d487610755565b9061270a565b6122e49084612eb1565b6120fa9190612e79565b606060006122fd836002612eb1565b612308906002612e79565b67ffffffffffffffff81111561232e57634e487b7160e01b600052604160045260246000fd5b6040519080825280601f01601f191660200182016040528015612358576020820181803683370190505b509050600360fc1b8160008151811061238157634e487b7160e01b600052603260045260246000fd5b60200101906001600160f81b031916908160001a905350600f60fb1b816001815181106123be57634e487b7160e01b600052603260045260246000fd5b60200101906001600160f81b031916908160001a90535060006123e2846002612eb1565b6123ed906001612e79565b90505b6001811115612481576f181899199a1a9b1b9c1cb0b131b232b360811b85600f166010811061242f57634e487b7160e01b600052603260045260246000fd5b1a60f81b82828151811061245357634e487b7160e01b600052603260045260246000fd5b60200101906001600160f81b031916908160001a90535060049490941c9361247a81612f17565b90506123f0565b5083156107175760405162461bcd60e51b815260206004820181905260248201527f537472696e67733a20686578206c656e67746820696e73756666696369656e74604482015260640161091d565b803b6125345760405162461bcd60e51b815260206004820152602d60248201527f455243313936373a206e657720696d706c656d656e746174696f6e206973206e60448201526c1bdd08184818dbdb9d1c9858dd609a1b606482015260840161091d565b7f360894a13ba1a3210667c828492db98dca3e2076cc3735a920a3ca505d382bbc80546001600160a01b0319166001600160a01b0392909216919091179055565b6060823b6125d45760405162461bcd60e51b815260206004820152602660248201527f416464726573733a2064656c65676174652063616c6c20746f206e6f6e2d636f6044820152651b9d1c9858dd60d21b606482015260840161091d565b600080846001600160a01b0316846040516125ef9190612bdc565b600060405180830381855af49150503d806000811461262a576040519150601f19603f3d011682016040523d82523d6000602084013e61262f565b606091505b50915091506126578282604051806060016040528060278152602001612f906027913961284f565b95945050505050565b612669816124d0565b6040516001600160a01b038216907fbc7cd75a20ee27fd9adebab32041f755214dbc6bffa90cc0225b39da2e5c2d3b90600090a250565b600054610100900460ff16806126b9575060005460ff16155b6126d55760405162461bcd60e51b815260040161091d90612dff565b600054610100900460ff16158015612057576000805461ffff19166101011790558015610b49576000805461ff001916905550565b600080612718600284612e91565b90508261272d670de0b6b3a764000086612eb1565b6127379083612e79565b6120fa9190612e91565b6000670de0b6b3a76400006127568385612eb1565b6127696002670de0b6b3a7640000612e91565b6127739190612e79565b6107179190612e91565b60006127d2826040518060400160405280602081526020017f5361666545524332303a206c6f772d6c6576656c2063616c6c206661696c6564815250856001600160a01b03166128889092919063ffffffff16565b805190915015610a0057808060200190518101906127f09190612b40565b610a005760405162461bcd60e51b815260206004820152602a60248201527f5361666545524332303a204552433230206f7065726174696f6e20646964206e6044820152691bdd081cdd58d8d9595960b21b606482015260840161091d565b6060831561285e575081610772565b82511561286e5782518084602001fd5b8160405162461bcd60e51b815260040161091d9190612c6d565b60606120fa848460008585843b6128e15760405162461bcd60e51b815260206004820152601d60248201527f416464726573733a2063616c6c20746f206e6f6e2d636f6e7472616374000000604482015260640161091d565b600080866001600160a01b031685876040516128fd9190612bdc565b60006040518083038185875af1925050503d806000811461293a576040519150601f19603f3d011682016040523d82523d6000602084013e61293f565b606091505b509150915061226782828661284f565b600060208284031215612960578081fd5b813561071781612f5a565b6000806040838503121561297d578081fd5b823561298881612f5a565b9150602083013561299881612f5a565b809150509250929050565b600080604083850312156129b5578182fd5b82516129c081612f5a565b602084015190925061299881612f5a565b6000806000606084860312156129e5578081fd5b83356129f081612f5a565b92506020840135612a0081612f5a565b929592945050506040919091013590565b60008060008060808587031215612a26578081fd5b8435612a3181612f5a565b93506020850135612a4181612f5a565b93969395505050506040820135916060013590565b60008060408385031215612a68578182fd5b8235612a7381612f5a565b9150602083013567ffffffffffffffff80821115612a8f578283fd5b818501915085601f830112612aa2578283fd5b813581811115612ab457612ab4612f44565b604051601f8201601f19908116603f01168101908382118183101715612adc57612adc612f44565b81604052828152886020848701011115612af4578586fd5b82602086016020830137856020848301015280955050505050509250929050565b60008060408385031215612b27578182fd5b8235612b3281612f5a565b946020939093013593505050565b600060208284031215612b51578081fd5b81518015158114610717578182fd5b600060208284031215612b71578081fd5b5035919050565b60008060408385031215612b8a578182fd5b82359150602083013561299881612f5a565b600060208284031215612bad578081fd5b81356001600160e01b031981168114610717578182fd5b600060208284031215612bd5578081fd5b5051919050565b60008251612bee818460208701612ee7565b9190910192915050565b7f416363657373436f6e74726f6c3a206163636f756e7420000000000000000000815260008351612c30816017850160208801612ee7565b7001034b99036b4b9b9b4b733903937b6329607d1b6017918401918201528351612c61816028840160208801612ee7565b01602801949350505050565b6020815260008251806020840152612c8c816040850160208701612ee7565b601f01601f19169190910160400192915050565b6020808252602c908201527f46756e6374696f6e206d7573742062652063616c6c6564207468726f7567682060408201526b19195b1959d85d1958d85b1b60a21b606082015260800190565b6020808252602c908201527f46756e6374696f6e206d7573742062652063616c6c6564207468726f7567682060408201526b6163746976652070726f787960a01b606082015260800190565b60208082526015908201527421b7b73a3937b63632b91d103737ba1030b236b4b760591b604082015260600190565b60208082526032908201527f436f6e74726f6c6c65723a2063616c6c657220646f6573206e6f7420686176656040820152712074686520677561726469616e20726f6c6560701b606082015260800190565b60208082526026908201527f556e696f6e546f6b656e3a206f6e6c792075736572206d616e616765722063616040820152651b8818d85b1b60d21b606082015260800190565b6020808252602e908201527f496e697469616c697a61626c653a20636f6e747261637420697320616c72656160408201526d191e481a5b9a5d1a585b1a5e995960921b606082015260800190565b60208082526012908201527110dbdb9d1c9bdb1b195c8e881c185d5cd95960721b604082015260600190565b60008219821115612e8c57612e8c612f2e565b500190565b600082612eac57634e487b7160e01b81526012600452602481fd5b500490565b6000816000190483118215151615612ecb57612ecb612f2e565b500290565b600082821015612ee257612ee2612f2e565b500390565b60005b83811015612f02578181015183820152602001612eea565b83811115612f11576000848401525b50505050565b600081612f2657612f26612f2e565b506000190190565b634e487b7160e01b600052601160045260246000fd5b634e487b7160e01b600052604160045260246000fd5b6001600160a01b0381168114610b4957600080fdfe2172861495e7b85edac73e3cd5fbb42dd675baadf627720e687bcfdaca025096416464726573733a206c6f772d6c6576656c2064656c65676174652063616c6c206661696c6564a26469706673582212208710f2dd309e755d4f08d19fb64f58cb4843e8de97988d269eb291dca9fb828464736f6c63430008040033",
  "linkReferences": {},
  "deployedLinkReferences": {}
}