{
  "_format": "hh-sol-artifact-1",
  "contractName": "LivepeerToken",
  "sourceName": "contracts/token/LivepeerToken.sol",
  "abi": [
    {
      "constant": true,
      "inputs": [],
      "name": "mintingFinished",
      "outputs": [
        {
          "internalType": "bool",
          "name": "",
          "type": "bool"
        }
      ],
      "payable": false,
      "stateMutability": "view",
      "type": "function"
    },
    {
      "constant": true,
      "inputs": [],
      "name": "name",
      "outputs": [
        {
          "internalType": "string",
          "name": "",
          "type": "string"
        }
      ],
      "payable": false,
      "stateMutability": "view",
      "type": "function"
    },
    {
      "constant": false,
      "inputs": [
        {
          "internalType": "address",
          "name": "spender",
          "type": "address"
        },
        {
          "internalType": "uint256",
          "name": "value",
          "type": "uint256"
        }
      ],
      "name": "approve",
      "outputs": [
        {
          "internalType": "bool",
          "name": "",
          "type": "bool"
        }
      ],
      "payable": false,
      "stateMutability": "nonpayable",
      "type": "function"
    },
    {
      "constant": true,
      "inputs": [],
      "name": "totalSupply",
      "outputs": [
        {
          "internalType": "uint256",
          "name": "",
          "type": "uint256"
        }
      ],
      "payable": false,
      "stateMutability": "view",
      "type": "function"
    },
    {
      "constant": false,
      "inputs": [
        {
          "internalType": "address",
          "name": "sender",
          "type": "address"
        },
        {
          "internalType": "address",
          "name": "recipient",
          "type": "address"
        },
        {
          "internalType": "uint256",
          "name": "amount",
          "type": "uint256"
        }
      ],
      "name": "transferFrom",
      "outputs": [
        {
          "internalType": "bool",
          "name": "",
          "type": "bool"
        }
      ],
      "payable": false,
      "stateMutability": "nonpayable",
      "type": "function"
    },
    {
      "constant": true,
      "inputs": [],
      "name": "decimals",
      "outputs": [
        {
          "internalType": "uint8",
          "name": "",
          "type": "uint8"
        }
      ],
      "payable": false,
      "stateMutability": "view",
      "type": "function"
    },
    {
      "constant": false,
      "inputs": [
        {
          "internalType": "address",
          "name": "spender",
          "type": "address"
        },
        {
          "internalType": "uint256",
          "name": "addedValue",
          "type": "uint256"
        }
      ],
      "name": "increaseAllowance",
      "outputs": [
        {
          "internalType": "bool",
          "name": "",
          "type": "bool"
        }
      ],
      "payable": false,
      "stateMutability": "nonpayable",
      "type": "function"
    },
    {
      "constant": false,
      "inputs": [
        {
          "internalType": "address",
          "name": "_to",
          "type": "address"
        },
        {
          "internalType": "uint256",
          "name": "_amount",
          "type": "uint256"
        }
      ],
      "name": "mint",
      "outputs": [
        {
          "internalType": "bool",
          "name": "",
          "type": "bool"
        }
      ],
      "payable": false,
      "stateMutability": "nonpayable",
      "type": "function"
    },
    {
      "constant": false,
      "inputs": [
        {
          "internalType": "uint256",
          "name": "_amount",
          "type": "uint256"
        }
      ],
      "name": "burn",
      "outputs": [],
      "payable": false,
      "stateMutability": "nonpayable",
      "type": "function"
    },
    {
      "constant": true,
      "inputs": [],
      "name": "version",
      "outputs": [
        {
          "internalType": "string",
          "name": "",
          "type": "string"
        }
      ],
      "payable": false,
      "stateMutability": "view",
      "type": "function"
    },
    {
      "constant": true,
      "inputs": [
        {
          "internalType": "address",
          "name": "account",
          "type": "address"
        }
      ],
      "name": "balanceOf",
      "outputs": [
        {
          "internalType": "uint256",
          "name": "",
          "type": "uint256"
        }
      ],
      "payable": false,
      "stateMutability": "view",
      "type": "function"
    },
    {
      "constant": false,
      "inputs": [],
      "name": "finishMinting",
      "outputs": [
        {
          "internalType": "bool",
          "name": "",
          "type": "bool"
        }
      ],
      "payable": false,
      "stateMutability": "nonpayable",
      "type": "function"
    },
    {
      "constant": true,
      "inputs": [],
      "name": "owner",
      "outputs": [
        {
          "internalType": "address",
          "name": "",
          "type": "address"
        }
      ],
      "payable": false,
      "stateMutability": "view",
      "type": "function"
    },
    {
      "constant": true,
      "inputs": [],
      "name": "symbol",
      "outputs": [
        {
          "internalType": "string",
          "name": "",
          "type": "string"
        }
      ],
      "payable": false,
      "stateMutability": "view",
      "type": "function"
    },
    {
      "constant": false,
      "inputs": [
        {
          "internalType": "address",
          "name": "spender",
          "type": "address"
        },
        {
          "internalType": "uint256",
          "name": "subtractedValue",
          "type": "uint256"
        }
      ],
      "name": "decreaseAllowance",
      "outputs": [
        {
          "internalType": "bool",
          "name": "",
          "type": "bool"
        }
      ],
      "payable": false,
      "stateMutability": "nonpayable",
      "type": "function"
    },
    {
      "constant": false,
      "inputs": [
        {
          "internalType": "address",
          "name": "recipient",
          "type": "address"
        },
        {
          "internalType": "uint256",
          "name": "amount",
          "type": "uint256"
        }
      ],
      "name": "transfer",
      "outputs": [
        {
          "internalType": "bool",
          "name": "",
          "type": "bool"
        }
      ],
      "payable": false,
      "stateMutability": "nonpayable",
      "type": "function"
    },
    {
      "constant": true,
      "inputs": [
        {
          "internalType": "address",
          "name": "owner",
          "type": "address"
        },
        {
          "internalType": "address",
          "name": "spender",
          "type": "address"
        }
      ],
      "name": "allowance",
      "outputs": [
        {
          "internalType": "uint256",
          "name": "",
          "type": "uint256"
        }
      ],
      "payable": false,
      "stateMutability": "view",
      "type": "function"
    },
    {
      "constant": false,
      "inputs": [
        {
          "internalType": "address",
          "name": "newOwner",
          "type": "address"
        }
      ],
      "name": "transferOwnership",
      "outputs": [],
      "payable": false,
      "stateMutability": "nonpayable",
      "type": "function"
    },
    {
      "anonymous": false,
      "inputs": [
        {
          "indexed": true,
          "internalType": "address",
          "name": "burner",
          "type": "address"
        },
        {
          "indexed": false,
          "internalType": "uint256",
          "name": "value",
          "type": "uint256"
        }
      ],
      "name": "Burn",
      "type": "event"
    },
    {
      "anonymous": false,
      "inputs": [
        {
          "indexed": true,
          "internalType": "address",
          "name": "to",
          "type": "address"
        },
        {
          "indexed": false,
          "internalType": "uint256",
          "name": "amount",
          "type": "uint256"
        }
      ],
      "name": "Mint",
      "type": "event"
    },
    {
      "anonymous": false,
      "inputs": [],
      "name": "MintFinished",
      "type": "event"
    },
    {
      "anonymous": false,
      "inputs": [
        {
          "indexed": true,
          "internalType": "address",
          "name": "previousOwner",
          "type": "address"
        },
        {
          "indexed": true,
          "internalType": "address",
          "name": "newOwner",
          "type": "address"
        }
      ],
      "name": "OwnershipTransferred",
      "type": "event"
    },
    {
      "anonymous": false,
      "inputs": [
        {
          "indexed": true,
          "internalType": "address",
          "name": "from",
          "type": "address"
        },
        {
          "indexed": true,
          "internalType": "address",
          "name": "to",
          "type": "address"
        },
        {
          "indexed": false,
          "internalType": "uint256",
          "name": "value",
          "type": "uint256"
        }
      ],
      "name": "Transfer",
      "type": "event"
    },
    {
      "anonymous": false,
      "inputs": [
        {
          "indexed": true,
          "internalType": "address",
          "name": "owner",
          "type": "address"
        },
        {
          "indexed": true,
          "internalType": "address",
          "name": "spender",
          "type": "address"
        },
        {
          "indexed": false,
          "internalType": "uint256",
          "name": "value",
          "type": "uint256"
        }
      ],
      "name": "Approval",
      "type": "event"
    }
  ],
  "bytecode": "0x6003805460ff60a01b1916905560c0604052600e60808190527f4c6976657065657220546f6b656e00000000000000000000000000000000000060a090815261004b91600491906100fa565b506005805460ff191660121790556040805180820190915260038082527f4c50540000000000000000000000000000000000000000000000000000000000602090920191825261009d916006916100fa565b506040805180820190915260038082527f302e31000000000000000000000000000000000000000000000000000000000060209092019182526100e2916007916100fa565b50600380546001600160a01b03191633179055610195565b828054600181600116156101000203166002900490600052602060002090601f016020900481019282601f1061013b57805160ff1916838001178555610168565b82800160010185558215610168579182015b8281111561016857825182559160200191906001019061014d565b50610174929150610178565b5090565b61019291905b80821115610174576000815560010161017e565b90565b610dd5806101a46000396000f3fe608060405234801561001057600080fd5b50600436106101165760003560e01c806354fd4d50116100a257806395d89b411161007157806395d89b411461031f578063a457c2d714610327578063a9059cbb14610353578063dd62ed3e1461037f578063f2fde38b146103ad57610116565b806354fd4d50146102c557806370a08231146102cd5780637d64bcb4146102f35780638da5cb5b146102fb57610116565b806323b872dd116100e957806323b872dd146101fa578063313ce56714610230578063395093511461024e57806340c10f191461027a57806342966c68146102a657610116565b806305d2035b1461011b57806306fdde0314610137578063095ea7b3146101b457806318160ddd146101e0575b600080fd5b6101236103d3565b604080519115158252519081900360200190f35b61013f6103e3565b6040805160208082528351818301528351919283929083019185019080838360005b83811015610179578181015183820152602001610161565b50505050905090810190601f1680156101a65780820380516001836020036101000a031916815260200191505b509250505060405180910390f35b610123600480360360408110156101ca57600080fd5b506001600160a01b038135169060200135610471565b6101e8610487565b60408051918252519081900360200190f35b6101236004803603606081101561021057600080fd5b506001600160a01b0381358116916020810135909116906040013561048d565b6102386104e4565b6040805160ff9092168252519081900360200190f35b6101236004803603604081101561026457600080fd5b506001600160a01b0381351690602001356104ed565b6101236004803603604081101561029057600080fd5b506001600160a01b038135169060200135610529565b6102c3600480360360208110156102bc57600080fd5b50356105ac565b005b61013f6105ef565b6101e8600480360360208110156102e357600080fd5b50356001600160a01b031661064a565b610123610665565b6103036106d8565b604080516001600160a01b039092168252519081900360200190f35b61013f6106e7565b6101236004803603604081101561033d57600080fd5b506001600160a01b038135169060200135610742565b6101236004803603604081101561036957600080fd5b506001600160a01b03813516906020013561077e565b6101e86004803603604081101561039557600080fd5b506001600160a01b038135811691602001351661078b565b6102c3600480360360208110156103c357600080fd5b50356001600160a01b03166107b6565b600354600160a01b900460ff1681565b6004805460408051602060026001851615610100026000190190941693909304601f810184900484028201840190925281815292918301828280156104695780601f1061043e57610100808354040283529160200191610469565b820191906000526020600020905b81548152906001019060200180831161044c57829003601f168201915b505050505081565b600061047e33848461083c565b50600192915050565b60025490565b600061049a848484610928565b6001600160a01b0384166000908152600160209081526040808320338085529252909120546104da9186916104d5908663ffffffff610a6a16565b61083c565b5060019392505050565b60055460ff1681565b3360008181526001602090815260408083206001600160a01b0387168452909152812054909161047e9185906104d5908663ffffffff610ac716565b6003546000906001600160a01b0316331461054357600080fd5b600354600160a01b900460ff161561055a57600080fd5b6105648383610b28565b6040805183815290516001600160a01b038516917f0f6798a560793a54c3bcfe86a93cde1e73087d944c0ea20544137d4121396885919081900360200190a250600192915050565b6105b63382610c18565b60408051828152905133917fcc16f5dbb4873280815c1ee09dbd06736cffcc184412cf7a71a0fdb75d397ca5919081900360200190a250565b6007805460408051602060026001851615610100026000190190941693909304601f810184900484028201840190925281815292918301828280156104695780601f1061043e57610100808354040283529160200191610469565b6001600160a01b031660009081526020819052604090205490565b6003546000906001600160a01b0316331461067f57600080fd5b600354600160a01b900460ff161561069657600080fd5b6003805460ff60a01b1916600160a01b1790556040517fae5184fba832cb2b1f702aca6117b8d265eaf03ad33eb133f19dde0f5920fa0890600090a150600190565b6003546001600160a01b031681565b6006805460408051602060026001851615610100026000190190941693909304601f810184900484028201840190925281815292918301828280156104695780601f1061043e57610100808354040283529160200191610469565b3360008181526001602090815260408083206001600160a01b0387168452909152812054909161047e9185906104d5908663ffffffff610a6a16565b600061047e338484610928565b6001600160a01b03918216600090815260016020908152604080832093909416825291909152205490565b6003546001600160a01b031633146107cd57600080fd5b6001600160a01b0381166107e057600080fd5b6003546040516001600160a01b038084169216907f8be0079c531659141344cd1fd0a4f28419497f9722a3daafe3b4186f6b6457e090600090a3600380546001600160a01b0319166001600160a01b0392909216919091179055565b6001600160a01b0383166108815760405162461bcd60e51b8152600401808060200182810382526024815260200180610d7d6024913960400191505060405180910390fd5b6001600160a01b0382166108c65760405162461bcd60e51b8152600401808060200182810382526022815260200180610d156022913960400191505060405180910390fd5b6001600160a01b03808416600081815260016020908152604080832094871680845294825291829020859055815185815291517f8c5be1e5ebec7d5bd14f71427d1e84f3dd0314c0f7b2291e5b200ac8c7c3b9259281900390910190a3505050565b6001600160a01b03831661096d5760405162461bcd60e51b8152600401808060200182810382526025815260200180610d586025913960400191505060405180910390fd5b6001600160a01b0382166109b25760405162461bcd60e51b8152600401808060200182810382526023815260200180610cf26023913960400191505060405180910390fd5b6001600160a01b0383166000908152602081905260409020546109db908263ffffffff610a6a16565b6001600160a01b038085166000908152602081905260408082209390935590841681522054610a10908263ffffffff610ac716565b6001600160a01b038084166000818152602081815260409182902094909455805185815290519193928716927fddf252ad1be2c89b69c2b068fc378daa952ba7f163c4a11628f55a4df523b3ef92918290030190a3505050565b600082821115610ac1576040805162461bcd60e51b815260206004820152601e60248201527f536166654d6174683a207375627472616374696f6e206f766572666c6f770000604482015290519081900360640190fd5b50900390565b600082820183811015610b21576040805162461bcd60e51b815260206004820152601b60248201527f536166654d6174683a206164646974696f6e206f766572666c6f770000000000604482015290519081900360640190fd5b9392505050565b6001600160a01b038216610b83576040805162461bcd60e51b815260206004820152601f60248201527f45524332303a206d696e7420746f20746865207a65726f206164647265737300604482015290519081900360640190fd5b600254610b96908263ffffffff610ac716565b6002556001600160a01b038216600090815260208190526040902054610bc2908263ffffffff610ac716565b6001600160a01b0383166000818152602081815260408083209490945583518581529351929391927fddf252ad1be2c89b69c2b068fc378daa952ba7f163c4a11628f55a4df523b3ef9281900390910190a35050565b6001600160a01b038216610c5d5760405162461bcd60e51b8152600401808060200182810382526021815260200180610d376021913960400191505060405180910390fd5b600254610c70908263ffffffff610a6a16565b6002556001600160a01b038216600090815260208190526040902054610c9c908263ffffffff610a6a16565b6001600160a01b038316600081815260208181526040808320949094558351858152935191937fddf252ad1be2c89b69c2b068fc378daa952ba7f163c4a11628f55a4df523b3ef929081900390910190a3505056fe45524332303a207472616e7366657220746f20746865207a65726f206164647265737345524332303a20617070726f766520746f20746865207a65726f206164647265737345524332303a206275726e2066726f6d20746865207a65726f206164647265737345524332303a207472616e736665722066726f6d20746865207a65726f206164647265737345524332303a20617070726f76652066726f6d20746865207a65726f2061646472657373a265627a7a7231582082fa871bfe04ef87b9a04e04d4ae5f370d19f5e0acd01d3affc6842fd089b55964736f6c634300050b0032",
  "linkReferences": {},
  "deployedLinkReferences": {}
}