{
  "_format": "hh-sol-artifact-1",
  "contractName": "ControllerMock",
  "sourceName": "contracts/mocks/ControllerMock.sol",
  "abi": [
    {
      "inputs": [
        {
          "internalType": "address",
          "name": "_token",
          "type": "address"
        },
        {
          "internalType": "address",
          "name": "_ownership",
          "type": "address"
        }
      ],
      "stateMutability": "nonpayable",
      "type": "constructor"
    },
    {
      "inputs": [
        {
          "internalType": "address",
          "name": "",
          "type": "address"
        },
        {
          "internalType": "uint256",
          "name": "",
          "type": "uint256"
        }
      ],
      "name": "earn",
      "outputs": [],
      "stateMutability": "nonpayable",
      "type": "function"
    },
    {
      "inputs": [
        {
          "internalType": "address",
          "name": "",
          "type": "address"
        }
      ],
      "name": "migrate",
      "outputs": [],
      "stateMutability": "nonpayable",
      "type": "function"
    },
    {
      "inputs": [],
      "name": "ownership",
      "outputs": [
        {
          "internalType": "contract IOwnership",
          "name": "",
          "type": "address"
        }
      ],
      "stateMutability": "view",
      "type": "function"
    },
    {
      "inputs": [
        {
          "internalType": "address",
          "name": "_address",
          "type": "address"
        }
      ],
      "name": "setVault",
      "outputs": [],
      "stateMutability": "nonpayable",
      "type": "function"
    },
    {
      "inputs": [],
      "name": "token",
      "outputs": [
        {
          "internalType": "contract TestERC20Mock",
          "name": "",
          "type": "address"
        }
      ],
      "stateMutability": "view",
      "type": "function"
    },
    {
      "inputs": [],
      "name": "valueAll",
      "outputs": [
        {
          "internalType": "uint256",
          "name": "",
          "type": "uint256"
        }
      ],
      "stateMutability": "view",
      "type": "function"
    },
    {
      "inputs": [],
      "name": "vault",
      "outputs": [
        {
          "internalType": "contract IVault",
          "name": "",
          "type": "address"
        }
      ],
      "stateMutability": "view",
      "type": "function"
    },
    {
      "inputs": [
        {
          "internalType": "address",
          "name": "_to",
          "type": "address"
        },
        {
          "internalType": "uint256",
          "name": "_amount",
          "type": "uint256"
        }
      ],
      "name": "withdraw",
      "outputs": [],
      "stateMutability": "nonpayable",
      "type": "function"
    },
    {
      "inputs": [],
      "name": "yield",
      "outputs": [],
      "stateMutability": "nonpayable",
      "type": "function"
    }
  ],
  "bytecode": "0x608060405234801561001057600080fd5b5060405161073738038061073783398101604081905261002f9161007c565b600080546001600160a01b039384166001600160a01b031991821617909155600280549290931691161790556100af565b80516001600160a01b038116811461007757600080fd5b919050565b6000806040838503121561008f57600080fd5b61009883610060565b91506100a660208401610060565b90509250929050565b610679806100be6000396000f3fe608060405234801561001057600080fd5b50600436106100935760003560e01c8063b02bf4b911610066578063b02bf4b9146100fb578063ce5494bb1461010d578063f3fef3a31461011e578063fbfa77cf14610131578063fc0c546a1461014457600080fd5b8063285939841461009857806355306252146100a25780635d03147a146100bd5780636817031b146100e8575b600080fd5b6100a0610157565b005b6100aa610304565b6040519081526020015b60405180910390f35b6002546100d0906001600160a01b031681565b6040516001600160a01b0390911681526020016100b4565b6100a06100f63660046104eb565b610385565b6100a061010936600461052c565b5050565b6100a061011b3660046104eb565b50565b6100a061012c36600461052c565b610449565b6001546100d0906001600160a01b031681565b6000546100d0906001600160a01b031681565b60025460408051638da5cb5b60e01b8152905133926001600160a01b031691638da5cb5b916004808301926020929190829003018186803b15801561019b57600080fd5b505afa1580156101af573d6000803e3d6000fd5b505050506040513d601f19601f820116820180604052508101906101d3919061050f565b6001600160a01b0316146102025760405162461bcd60e51b81526004016101f990610593565b60405180910390fd5b60015460408051639f1993bb60e01b815290516000926001600160a01b031691639f1993bb91600480830192602092919082900301818787803b15801561024857600080fd5b505af115801561025c573d6000803e3d6000fd5b505050506040513d601f19601f82011682018060405250810190610280919061057a565b90506000600a610291836005610601565b61029b91906105df565b6000546040516340c10f1960e01b8152306004820152602481018390529192506001600160a01b0316906340c10f1990604401600060405180830381600087803b1580156102e857600080fd5b505af11580156102fc573d6000803e3d6000fd5b505050505050565b600080546040516370a0823160e01b81523060048201526001600160a01b03909116906370a082319060240160206040518083038186803b15801561034857600080fd5b505afa15801561035c573d6000803e3d6000fd5b505050506040513d601f19601f82011682018060405250810190610380919061057a565b905090565b60025460408051638da5cb5b60e01b8152905133926001600160a01b031691638da5cb5b916004808301926020929190829003018186803b1580156103c957600080fd5b505afa1580156103dd573d6000803e3d6000fd5b505050506040513d601f19601f82011682018060405250810190610401919061050f565b6001600160a01b0316146104275760405162461bcd60e51b81526004016101f990610593565b600180546001600160a01b0319166001600160a01b0392909216919091179055565b6001546001600160a01b0316331461046057600080fd5b60005460405163a9059cbb60e01b81526001600160a01b038481166004830152602482018490529091169063a9059cbb90604401602060405180830381600087803b1580156104ae57600080fd5b505af11580156104c2573d6000803e3d6000fd5b505050506040513d601f19601f820116820180604052508101906104e69190610558565b505050565b6000602082840312156104fd57600080fd5b81356105088161062e565b9392505050565b60006020828403121561052157600080fd5b81516105088161062e565b6000806040838503121561053f57600080fd5b823561054a8161062e565b946020939093013593505050565b60006020828403121561056a57600080fd5b8151801515811461050857600080fd5b60006020828403121561058c57600080fd5b5051919050565b6020808252602c908201527f526573747269637465643a2063616c6c6572206973206e6f7420616c6c6f776560408201526b6420746f206f70657261746560a01b606082015260800190565b6000826105fc57634e487b7160e01b600052601260045260246000fd5b500490565b600081600019048311821515161561062957634e487b7160e01b600052601160045260246000fd5b500290565b6001600160a01b038116811461011b57600080fdfea2646970667358221220a366c81f18741e7e1fb2f990d145848f52cdae92a520ed34b5c8f2c06347a31264736f6c63430008070033",
  "linkReferences": {},
  "deployedLinkReferences": {}
}