{
  "_format": "hh-sol-artifact-1",
  "contractName": "AssetManagerMock",
  "sourceName": "contracts/tests/AssetManagerMock.sol",
  "abi": [
    {
      "anonymous": false,
      "inputs": [
        {
          "indexed": false,
          "internalType": "address",
          "name": "previousAdmin",
          "type": "address"
        },
        {
          "indexed": false,
          "internalType": "address",
          "name": "newAdmin",
          "type": "address"
        }
      ],
      "name": "AdminChanged",
      "type": "event"
    },
    {
      "anonymous": false,
      "inputs": [
        {
          "indexed": true,
          "internalType": "address",
          "name": "beacon",
          "type": "address"
        }
      ],
      "name": "BeaconUpgraded",
      "type": "event"
    },
    {
      "anonymous": false,
      "inputs": [
        {
          "indexed": false,
          "internalType": "address",
          "name": "account",
          "type": "address"
        }
      ],
      "name": "Paused",
      "type": "event"
    },
    {
      "anonymous": false,
      "inputs": [
        {
          "indexed": true,
          "internalType": "bytes32",
          "name": "role",
          "type": "bytes32"
        },
        {
          "indexed": true,
          "internalType": "bytes32",
          "name": "previousAdminRole",
          "type": "bytes32"
        },
        {
          "indexed": true,
          "internalType": "bytes32",
          "name": "newAdminRole",
          "type": "bytes32"
        }
      ],
      "name": "RoleAdminChanged",
      "type": "event"
    },
    {
      "anonymous": false,
      "inputs": [
        {
          "indexed": true,
          "internalType": "bytes32",
          "name": "role",
          "type": "bytes32"
        },
        {
          "indexed": true,
          "internalType": "address",
          "name": "account",
          "type": "address"
        },
        {
          "indexed": true,
          "internalType": "address",
          "name": "sender",
          "type": "address"
        }
      ],
      "name": "RoleGranted",
      "type": "event"
    },
    {
      "anonymous": false,
      "inputs": [
        {
          "indexed": true,
          "internalType": "bytes32",
          "name": "role",
          "type": "bytes32"
        },
        {
          "indexed": true,
          "internalType": "address",
          "name": "account",
          "type": "address"
        },
        {
          "indexed": true,
          "internalType": "address",
          "name": "sender",
          "type": "address"
        }
      ],
      "name": "RoleRevoked",
      "type": "event"
    },
    {
      "anonymous": false,
      "inputs": [
        {
          "indexed": false,
          "internalType": "address",
          "name": "account",
          "type": "address"
        }
      ],
      "name": "Unpaused",
      "type": "event"
    },
    {
      "anonymous": false,
      "inputs": [
        {
          "indexed": true,
          "internalType": "address",
          "name": "implementation",
          "type": "address"
        }
      ],
      "name": "Upgraded",
      "type": "event"
    },
    {
      "inputs": [],
      "name": "DEFAULT_ADMIN_ROLE",
      "outputs": [
        {
          "internalType": "bytes32",
          "name": "",
          "type": "bytes32"
        }
      ],
      "stateMutability": "view",
      "type": "function"
    },
    {
      "inputs": [],
      "name": "ROLE_ADMIN",
      "outputs": [
        {
          "internalType": "bytes32",
          "name": "",
          "type": "bytes32"
        }
      ],
      "stateMutability": "view",
      "type": "function"
    },
    {
      "inputs": [],
      "name": "__AssetManager_init",
      "outputs": [],
      "stateMutability": "nonpayable",
      "type": "function"
    },
    {
      "inputs": [
        {
          "internalType": "address",
          "name": "admin_",
          "type": "address"
        }
      ],
      "name": "__Controller_init",
      "outputs": [],
      "stateMutability": "nonpayable",
      "type": "function"
    },
    {
      "inputs": [
        {
          "internalType": "address",
          "name": "account",
          "type": "address"
        }
      ],
      "name": "addAdmin",
      "outputs": [],
      "stateMutability": "nonpayable",
      "type": "function"
    },
    {
      "inputs": [
        {
          "internalType": "address",
          "name": "tokenAddress",
          "type": "address"
        }
      ],
      "name": "addToken",
      "outputs": [],
      "stateMutability": "nonpayable",
      "type": "function"
    },
    {
      "inputs": [
        {
          "internalType": "address",
          "name": "",
          "type": "address"
        },
        {
          "internalType": "address",
          "name": "",
          "type": "address"
        }
      ],
      "name": "balances",
      "outputs": [
        {
          "internalType": "uint256",
          "name": "",
          "type": "uint256"
        }
      ],
      "stateMutability": "view",
      "type": "function"
    },
    {
      "inputs": [
        {
          "internalType": "address",
          "name": "tokenAddress",
          "type": "address"
        },
        {
          "internalType": "address",
          "name": "recipient",
          "type": "address"
        }
      ],
      "name": "claimTokens",
      "outputs": [],
      "stateMutability": "nonpayable",
      "type": "function"
    },
    {
      "inputs": [
        {
          "internalType": "address",
          "name": "token",
          "type": "address"
        },
        {
          "internalType": "uint256",
          "name": "amount",
          "type": "uint256"
        }
      ],
      "name": "debtWriteOff",
      "outputs": [],
      "stateMutability": "nonpayable",
      "type": "function"
    },
    {
      "inputs": [
        {
          "internalType": "address",
          "name": "token",
          "type": "address"
        },
        {
          "internalType": "uint256",
          "name": "amount",
          "type": "uint256"
        }
      ],
      "name": "deposit",
      "outputs": [
        {
          "internalType": "bool",
          "name": "",
          "type": "bool"
        }
      ],
      "stateMutability": "nonpayable",
      "type": "function"
    },
    {
      "inputs": [
        {
          "internalType": "address",
          "name": "tokenAddress",
          "type": "address"
        }
      ],
      "name": "getLoanableAmount",
      "outputs": [
        {
          "internalType": "uint256",
          "name": "",
          "type": "uint256"
        }
      ],
      "stateMutability": "view",
      "type": "function"
    },
    {
      "inputs": [
        {
          "internalType": "address",
          "name": "tokenAddress",
          "type": "address"
        }
      ],
      "name": "getPoolBalance",
      "outputs": [
        {
          "internalType": "uint256",
          "name": "",
          "type": "uint256"
        }
      ],
      "stateMutability": "view",
      "type": "function"
    },
    {
      "inputs": [
        {
          "internalType": "bytes32",
          "name": "role",
          "type": "bytes32"
        }
      ],
      "name": "getRoleAdmin",
      "outputs": [
        {
          "internalType": "bytes32",
          "name": "",
          "type": "bytes32"
        }
      ],
      "stateMutability": "view",
      "type": "function"
    },
    {
      "inputs": [
        {
          "internalType": "bytes32",
          "name": "role",
          "type": "bytes32"
        },
        {
          "internalType": "address",
          "name": "account",
          "type": "address"
        }
      ],
      "name": "grantRole",
      "outputs": [],
      "stateMutability": "nonpayable",
      "type": "function"
    },
    {
      "inputs": [
        {
          "internalType": "bytes32",
          "name": "role",
          "type": "bytes32"
        },
        {
          "internalType": "address",
          "name": "account",
          "type": "address"
        }
      ],
      "name": "hasRole",
      "outputs": [
        {
          "internalType": "bool",
          "name": "",
          "type": "bool"
        }
      ],
      "stateMutability": "view",
      "type": "function"
    },
    {
      "inputs": [
        {
          "internalType": "address",
          "name": "account",
          "type": "address"
        }
      ],
      "name": "isAdmin",
      "outputs": [
        {
          "internalType": "bool",
          "name": "",
          "type": "bool"
        }
      ],
      "stateMutability": "view",
      "type": "function"
    },
    {
      "inputs": [
        {
          "internalType": "address",
          "name": "",
          "type": "address"
        }
      ],
      "name": "isMarketSupported",
      "outputs": [
        {
          "internalType": "bool",
          "name": "",
          "type": "bool"
        }
      ],
      "stateMutability": "pure",
      "type": "function"
    },
    {
      "inputs": [],
      "name": "marketRegistry",
      "outputs": [
        {
          "internalType": "address",
          "name": "",
          "type": "address"
        }
      ],
      "stateMutability": "view",
      "type": "function"
    },
    {
      "inputs": [
        {
          "internalType": "uint256",
          "name": "",
          "type": "uint256"
        }
      ],
      "name": "moneyMarkets",
      "outputs": [
        {
          "internalType": "contract IMoneyMarketAdapter",
          "name": "",
          "type": "address"
        }
      ],
      "stateMutability": "view",
      "type": "function"
    },
    {
      "inputs": [],
      "name": "pause",
      "outputs": [],
      "stateMutability": "nonpayable",
      "type": "function"
    },
    {
      "inputs": [],
      "name": "pauseGuardian",
      "outputs": [
        {
          "internalType": "address",
          "name": "",
          "type": "address"
        }
      ],
      "stateMutability": "view",
      "type": "function"
    },
    {
      "inputs": [],
      "name": "paused",
      "outputs": [
        {
          "internalType": "bool",
          "name": "",
          "type": "bool"
        }
      ],
      "stateMutability": "view",
      "type": "function"
    },
    {
      "inputs": [],
      "name": "renounceAdmin",
      "outputs": [],
      "stateMutability": "nonpayable",
      "type": "function"
    },
    {
      "inputs": [
        {
          "internalType": "bytes32",
          "name": "role",
          "type": "bytes32"
        },
        {
          "internalType": "address",
          "name": "account",
          "type": "address"
        }
      ],
      "name": "renounceRole",
      "outputs": [],
      "stateMutability": "nonpayable",
      "type": "function"
    },
    {
      "inputs": [
        {
          "internalType": "bytes32",
          "name": "role",
          "type": "bytes32"
        },
        {
          "internalType": "address",
          "name": "account",
          "type": "address"
        }
      ],
      "name": "revokeRole",
      "outputs": [],
      "stateMutability": "nonpayable",
      "type": "function"
    },
    {
      "inputs": [
        {
          "internalType": "address",
          "name": "account",
          "type": "address"
        }
      ],
      "name": "setGuardian",
      "outputs": [],
      "stateMutability": "nonpayable",
      "type": "function"
    },
    {
      "inputs": [
        {
          "internalType": "address",
          "name": "",
          "type": "address"
        }
      ],
      "name": "supportedMarkets",
      "outputs": [
        {
          "internalType": "bool",
          "name": "isSupported",
          "type": "bool"
        }
      ],
      "stateMutability": "view",
      "type": "function"
    },
    {
      "inputs": [
        {
          "internalType": "uint256",
          "name": "",
          "type": "uint256"
        }
      ],
      "name": "supportedTokensList",
      "outputs": [
        {
          "internalType": "address",
          "name": "",
          "type": "address"
        }
      ],
      "stateMutability": "view",
      "type": "function"
    },
    {
      "inputs": [
        {
          "internalType": "bytes4",
          "name": "interfaceId",
          "type": "bytes4"
        }
      ],
      "name": "supportsInterface",
      "outputs": [
        {
          "internalType": "bool",
          "name": "",
          "type": "bool"
        }
      ],
      "stateMutability": "view",
      "type": "function"
    },
    {
      "inputs": [
        {
          "internalType": "address",
          "name": "",
          "type": "address"
        }
      ],
      "name": "totalPrincipal",
      "outputs": [
        {
          "internalType": "uint256",
          "name": "",
          "type": "uint256"
        }
      ],
      "stateMutability": "view",
      "type": "function"
    },
    {
      "inputs": [
        {
          "internalType": "address",
          "name": "",
          "type": "address"
        }
      ],
      "name": "totalSupply",
      "outputs": [
        {
          "internalType": "uint256",
          "name": "",
          "type": "uint256"
        }
      ],
      "stateMutability": "pure",
      "type": "function"
    },
    {
      "inputs": [
        {
          "internalType": "address",
          "name": "",
          "type": "address"
        }
      ],
      "name": "totalSupplyView",
      "outputs": [
        {
          "internalType": "uint256",
          "name": "",
          "type": "uint256"
        }
      ],
      "stateMutability": "pure",
      "type": "function"
    },
    {
      "inputs": [],
      "name": "unpause",
      "outputs": [],
      "stateMutability": "nonpayable",
      "type": "function"
    },
    {
      "inputs": [
        {
          "internalType": "address",
          "name": "newImplementation",
          "type": "address"
        }
      ],
      "name": "upgradeTo",
      "outputs": [],
      "stateMutability": "nonpayable",
      "type": "function"
    },
    {
      "inputs": [
        {
          "internalType": "address",
          "name": "newImplementation",
          "type": "address"
        },
        {
          "internalType": "bytes",
          "name": "data",
          "type": "bytes"
        }
      ],
      "name": "upgradeToAndCall",
      "outputs": [],
      "stateMutability": "payable",
      "type": "function"
    },
    {
      "inputs": [
        {
          "internalType": "address",
          "name": "token",
          "type": "address"
        },
        {
          "internalType": "address",
          "name": "account",
          "type": "address"
        },
        {
          "internalType": "uint256",
          "name": "amount",
          "type": "uint256"
        }
      ],
      "name": "withdraw",
      "outputs": [
        {
          "internalType": "bool",
          "name": "",
          "type": "bool"
        }
      ],
      "stateMutability": "nonpayable",
      "type": "function"
    },
    {
      "inputs": [
        {
          "internalType": "uint256",
          "name": "",
          "type": "uint256"
        }
      ],
      "name": "withdrawSeq",
      "outputs": [
        {
          "internalType": "uint256",
          "name": "",
          "type": "uint256"
        }
      ],
      "stateMutability": "view",
      "type": "function"
    }
  ],
  "bytecode": "0x60a06040523060601b60805234801561001757600080fd5b5060805160601c61219d61004b60003960008181610b2f01528181610b6f01528181610d100152610d50015261219d6000f3fe6080604052600436106102195760003560e01c80638a0dac4a11610123578063c23f001f116100ab578063d547741f1161006f578063d547741f146108e7578063d9caed1214610920578063e4dc2aa4146106c1578063ecb96fe614610963578063f9e1111c1461098457600080fd5b8063c23f001f14610791578063cbfe49af146107e3578063d28682ea14610806578063d391014b14610839578063d48bfca71461085b57600080fd5b806395a29aea116100f257806395a29aea146106ec578063a217fddf14610701578063a2d11a7714610716578063b19c897314610740578063b8845f751461076a57600080fd5b80638a0dac4a146106405780638bad0c0a1461067357806391d148541461068857806393737049146106c157600080fd5b80633f4ba83a116101a657806363c918771161017557806363c918771461056057806369ffa08a1461058a5780636c461a73146105c557806370480275146105f85780638456cb591461062b57600080fd5b80633f4ba83a1461044457806347e7ef24146104595780634f1ef286146104925780635c975abb1461054857600080fd5b806324a3d622116101ed57806324a3d6221461032957806324d7806c1461036a5780632f2ff15d1461039d57806336568abe146103d85780633659cfe61461041157600080fd5b80627034111461021e57806301ffc9a71461026357806320761fc4146102ab578063248a9ca3146102ef575b600080fd5b34801561022a57600080fd5b506102516004803603602081101561024157600080fd5b50356001600160a01b03166109c5565b60408051918252519081900360200190f35b34801561026f57600080fd5b506102976004803603602081101561028657600080fd5b50356001600160e01b031916610a29565b604080519115158252519081900360200190f35b3480156102b757600080fd5b50610297600480360360208110156102ce57600080fd5b50610130602052356001600160a01b03166000908152604090205460ff1681565b3480156102fb57600080fd5b506102516004803603602081101561031257600080fd5b5035600090815260c9602052604090206001015490565b34801561033557600080fd5b5060fc5461034e9061010090046001600160a01b031681565b604080516001600160a01b039092168252519081900360200190f35b34801561037657600080fd5b506102976004803603602081101561038d57600080fd5b50356001600160a01b0316610a60565b3480156103a957600080fd5b506103d6600480360360408110156103c057600080fd5b50803590602001356001600160a01b0316610a7a565b005b3480156103e457600080fd5b506103d6600480360360408110156103fb57600080fd5b50803590602001356001600160a01b0316610aa5565b34801561041d57600080fd5b506103d66004803603602081101561043457600080fd5b50356001600160a01b0316610b24565b34801561045057600080fd5b506103d6610bed565b34801561046557600080fd5b506102976004803603604081101561047c57600080fd5b506001600160a01b038135169060200135610ca7565b6103d6600480360360408110156104a857600080fd5b6001600160a01b0382351691908101906040810160208201356401000000008111156104d357600080fd5b8201836020820111156104e557600080fd5b8035906020019184600183028401116401000000008311171561050757600080fd5b91908080601f016020809104026020016040519081016040528093929190818152602001838380828437600092019190915250929550610d05945050505050565b34801561055457600080fd5b5060fc5460ff16610297565b34801561056c57600080fd5b5061034e6004803603602081101561058357600080fd5b5035610dbb565b34801561059657600080fd5b506103d6600480360360408110156105ad57600080fd5b506001600160a01b0381358116916020013516610de6565b3480156105d157600080fd5b506103d6600480360360208110156105e857600080fd5b50356001600160a01b0316610e79565b34801561060457600080fd5b506103d66004803603602081101561061b57600080fd5b50356001600160a01b0316610fa9565b34801561063757600080fd5b506103d66110e1565b34801561064c57600080fd5b506103d66004803603602081101561066357600080fd5b50356001600160a01b0316611195565b34801561067f57600080fd5b506103d66111f1565b34801561069457600080fd5b50610297600480360360408110156106ab57600080fd5b50803590602001356001600160a01b0316611228565b3480156106cd57600080fd5b50610251600480360360208110156106e457600080fd5b506000919050565b3480156106f857600080fd5b506103d6611253565b34801561070d57600080fd5b50610251600081565b34801561072257600080fd5b506102516004803603602081101561073957600080fd5b50356112be565b34801561074c57600080fd5b5061034e6004803603602081101561076357600080fd5b50356112e0565b34801561077657600080fd5b506103d66004803603604081101561078d57600080fd5b5050565b34801561079d57600080fd5b50610251600480360360408110156107b457600080fd5b5061013260209081526001600160a01b0382358116600090815260408082208452929093013516825290205481565b3480156107ef57600080fd5b50610297600480360360208110156106e457600080fd5b34801561081257600080fd5b506102516004803603602081101561082957600080fd5b50356001600160a01b03166112f1565b34801561084557600080fd5b506102516000805160206120fd83398151915281565b34801561086757600080fd5b506103d66004803603602081101561087e57600080fd5b50610131805460018082019092557fbd987ad6ccdb7c7567f7335ea839f95dc944431abcf935b6924f70215963db730180546001600160a01b03191692356001600160a01b0316928317905560009182526101306020526040909120805460ff19169091179055565b3480156108f357600080fd5b506103d66004803603604081101561090a57600080fd5b50803590602001356001600160a01b0316611381565b34801561092c57600080fd5b506102976004803603606081101561094357600080fd5b506001600160a01b038135811691602081013590911690604001356113a7565b34801561096f57600080fd5b506101345461034e906001600160a01b031681565b34801561099057600080fd5b50610251600480360360208110156109a757600080fd5b50610133602052356001600160a01b03166000908152604090205481565b6000806109d1836112f1565b6001600160a01b03841660009081526101336020526040902054909150811115610a20576001600160a01b03831660009081526101336020526040902054610a19908261208c565b9392505050565b50600092915050565b60006001600160e01b03198216637965db0b60e01b1480610a5a57506301ffc9a760e01b6001600160e01b03198316145b92915050565b6000610a5a6000805160206120fd83398151915283611228565b600082815260c96020526040902060010154610a968133611471565b610aa083836114d5565b505050565b6001600160a01b0381163314610b1a5760405162461bcd60e51b815260206004820152602f60248201527f416363657373436f6e74726f6c3a2063616e206f6e6c792072656e6f756e636560448201526e103937b632b9903337b91039b2b63360891b60648201526084015b60405180910390fd5b61078d828261155b565b306001600160a01b037f0000000000000000000000000000000000000000000000000000000000000000161415610b6d5760405162461bcd60e51b8152600401610b1190611eee565b7f00000000000000000000000000000000000000000000000000000000000000006001600160a01b0316610b9f6115c2565b6001600160a01b031614610bc55760405162461bcd60e51b8152600401610b1190611f3a565b610bce816115f0565b60408051600080825260208201909252610bea91839190611624565b50565b60fc5461010090046001600160a01b03163314610c1c5760405162461bcd60e51b8152600401610b1190611fb5565b60fc5460ff16610c675760405162461bcd60e51b815260206004820152601660248201527510dbdb9d1c9bdb1b195c8e881b9bdd081c185d5cd95960521b6044820152606401610b11565b60fc805460ff191690556040513381527f5db9ee0a495bf2e6ff9c91a7834c1ba4fdd244a5e8aa4e537bd38aeae4b073aa906020015b60405180910390a1565b60008282610ce65760405162461bcd60e51b815260040180806020018281038252602481526020018061211d6024913960400191505060405180910390fd5b610cfb6001600160a01b03821633308661176f565b5060019392505050565b306001600160a01b037f0000000000000000000000000000000000000000000000000000000000000000161415610d4e5760405162461bcd60e51b8152600401610b1190611eee565b7f00000000000000000000000000000000000000000000000000000000000000006001600160a01b0316610d806115c2565b6001600160a01b031614610da65760405162461bcd60e51b8152600401610b1190611f3a565b610daf826115f0565b61078d82826001611624565b6101318181548110610dcc57600080fd5b6000918252602090912001546001600160a01b0316905081565b604080516370a0823160e01b8152306004820152905183916000916001600160a01b038416916370a08231916024808301926020929190829003018186803b158015610e3157600080fd5b505afa158015610e45573d6000803e3d6000fd5b505050506040513d6020811015610e5b57600080fd5b50519050610e736001600160a01b03831684836117da565b50505050565b600054610100900460ff1680610e92575060005460ff16155b610eae5760405162461bcd60e51b8152600401610b1190612007565b600054610100900460ff16158015610ed0576000805461ffff19166101011790555b6001600160a01b038216610f215760405162461bcd60e51b8152602060048201526018602482015277436f6e74726f6c6c65723a2061646472657373207a65726f60401b6044820152606401610b11565b60fc805460ff191690556001600160a01b038216600081815260fb6020526040902080546001600160a01b0319169091179055610f5c61180a565b610f746000805160206120fd83398151915283611871565b60fc8054610100600160a81b0319166101006001600160a01b03851602179055801561078d576000805461ff00191690555050565b610fc16000805160206120fd83398151915233611228565b610fdd5760405162461bcd60e51b8152600401610b1190611f86565b6001600160a01b03811661102e5760405162461bcd60e51b8152602060048201526018602482015277436f6e74726f6c6c65723a2061646472657373207a65726f60401b6044820152606401610b11565b6001600160a01b03818116600090815260fb602052604090205416156110a05760405162461bcd60e51b815260206004820152602160248201527f436f6e74726f6c6c65723a2061646d696e20616c7265616479206578697374656044820152601960fa1b6064820152608401610b11565b6001600160a01b038116600081815260fb6020526040902080546001600160a01b0319169091179055610bea6000805160206120fd83398151915282611871565b60fc5461010090046001600160a01b031633146111105760405162461bcd60e51b8152600401610b1190611fb5565b60fc5460ff16156111585760405162461bcd60e51b815260206004820152601260248201527110dbdb9d1c9bdb1b195c8e881c185d5cd95960721b6044820152606401610b11565b60fc805460ff191660011790556040513381527f62e78cea01bee320cd4e420270b5ea74000d11b0c9f74754ebdbfc544b05a25890602001610c9d565b6111ad6000805160206120fd83398151915233611228565b6111c95760405162461bcd60e51b8152600401610b1190611f86565b60fc80546001600160a01b0390921661010002610100600160a81b0319909216919091179055565b6112096000805160206120fd83398151915233610aa5565b33600090815260fb6020526040902080546001600160a01b0319169055565b600091825260c9602090815260408084206001600160a01b0393909316845291905290205460ff1690565b600054610100900460ff168061126c575060005460ff16155b6112885760405162461bcd60e51b8152600401610b1190612007565b600054610100900460ff161580156112aa576000805461ffff19166101011790555b8015610bea576000805461ff001916905550565b61013581815481106112cf57600080fd5b600091825260209091200154905081565b61012f8181548110610dcc57600080fd5b6000808290506000816001600160a01b03166370a08231306040518263ffffffff1660e01b815260040180826001600160a01b0316815260200191505060206040518083038186803b15801561134657600080fd5b505afa15801561135a573d6000803e3d6000fd5b505050506040513d602081101561137057600080fd5b50519050610a19565b949350505050565b600082815260c9602052604090206001015461139d8133611471565b610aa0838361155b565b6000808290506000856001600160a01b03166370a08231306040518263ffffffff1660e01b815260040180826001600160a01b0316815260200191505060206040518083038186803b1580156113fc57600080fd5b505afa158015611410573d6000803e3d6000fd5b505050506040513d602081101561142657600080fd5b50519050801561146557600082821061143f5782611441565b815b905061144d818461208c565b92506114636001600160a01b03881687836117da565b505b50600195945050505050565b61147b8282611228565b61078d57611493816001600160a01b0316601461187b565b61149e83602061187b565b6040516020016114af929190611e46565b60408051601f198184030181529082905262461bcd60e51b8252610b1191600401611ebb565b6114df8282611228565b61078d57600082815260c9602090815260408083206001600160a01b03851684529091529020805460ff191660011790556115173390565b6001600160a01b0316816001600160a01b0316837f2f8788117e7eff1d82e926ec794901d17c78024a50270940304540a733656f0d60405160405180910390a45050565b6115658282611228565b1561078d57600082815260c9602090815260408083206001600160a01b0385168085529252808320805460ff1916905551339285917ff6391f5c32d9c69d2a47ea670b442974b53935d1edc7fd64eb21e047a839171b9190a45050565b7f360894a13ba1a3210667c828492db98dca3e2076cc3735a920a3ca505d382bbc546001600160a01b031690565b6116086000805160206120fd83398151915233611228565b610bea5760405162461bcd60e51b8152600401610b1190611f86565b600061162e6115c2565b905061163984611a5d565b6000835111806116465750815b15611657576116558484611b02565b505b7f4910fdfa16fed3260ed0e7147f7cc6da11a60208b5b9406d12a635614ffd9143805460ff1661176857805460ff191660011781556040516001600160a01b03831660248201526116d690869060440160408051601f198184030181529190526020810180516001600160e01b0316631b2ce7f360e11b179052611b02565b50805460ff191681556116e76115c2565b6001600160a01b0316826001600160a01b03161461175f5760405162461bcd60e51b815260206004820152602f60248201527f45524331393637557067726164653a207570677261646520627265616b73206660448201526e75727468657220757067726164657360881b6064820152608401610b11565b61176885611bed565b5050505050565b6040516001600160a01b0380851660248301528316604482015260648101829052610e739085906323b872dd60e01b906084015b60408051601f198184030181529190526020810180516001600160e01b03166001600160e01b031990931692909217909152611c2d565b6040516001600160a01b038316602482015260448101829052610aa090849063a9059cbb60e01b906064016117a3565b600054610100900460ff1680611823575060005460ff16155b61183f5760405162461bcd60e51b8152600401610b1190612007565b600054610100900460ff16158015611861576000805461ffff19166101011790555b611869611253565b6112aa611253565b61078d82826114d5565b6060600061188a83600261206d565b611895906002612055565b67ffffffffffffffff8111156118bb57634e487b7160e01b600052604160045260246000fd5b6040519080825280601f01601f1916602001820160405280156118e5576020820181803683370190505b509050600360fc1b8160008151811061190e57634e487b7160e01b600052603260045260246000fd5b60200101906001600160f81b031916908160001a905350600f60fb1b8160018151811061194b57634e487b7160e01b600052603260045260246000fd5b60200101906001600160f81b031916908160001a905350600061196f84600261206d565b61197a906001612055565b90505b6001811115611a0e576f181899199a1a9b1b9c1cb0b131b232b360811b85600f16601081106119bc57634e487b7160e01b600052603260045260246000fd5b1a60f81b8282815181106119e057634e487b7160e01b600052603260045260246000fd5b60200101906001600160f81b031916908160001a90535060049490941c93611a07816120cf565b905061197d565b508315610a195760405162461bcd60e51b815260206004820181905260248201527f537472696e67733a20686578206c656e67746820696e73756666696369656e746044820152606401610b11565b803b611ac15760405162461bcd60e51b815260206004820152602d60248201527f455243313936373a206e657720696d706c656d656e746174696f6e206973206e60448201526c1bdd08184818dbdb9d1c9858dd609a1b6064820152608401610b11565b7f360894a13ba1a3210667c828492db98dca3e2076cc3735a920a3ca505d382bbc80546001600160a01b0319166001600160a01b0392909216919091179055565b6060823b611b615760405162461bcd60e51b815260206004820152602660248201527f416464726573733a2064656c65676174652063616c6c20746f206e6f6e2d636f6044820152651b9d1c9858dd60d21b6064820152608401610b11565b600080846001600160a01b031684604051611b7c9190611e2a565b600060405180830381855af49150503d8060008114611bb7576040519150601f19603f3d011682016040523d82523d6000602084013e611bbc565b606091505b5091509150611be4828260405180606001604052806027815260200161214160279139611cff565b95945050505050565b611bf681611a5d565b6040516001600160a01b038216907fbc7cd75a20ee27fd9adebab32041f755214dbc6bffa90cc0225b39da2e5c2d3b90600090a250565b6000611c82826040518060400160405280602081526020017f5361666545524332303a206c6f772d6c6576656c2063616c6c206661696c6564815250856001600160a01b0316611d389092919063ffffffff16565b805190915015610aa05780806020019051810190611ca09190611e0a565b610aa05760405162461bcd60e51b815260206004820152602a60248201527f5361666545524332303a204552433230206f7065726174696f6e20646964206e6044820152691bdd081cdd58d8d9595960b21b6064820152608401610b11565b60608315611d0e575081610a19565b825115611d1e5782518084602001fd5b8160405162461bcd60e51b8152600401610b119190611ebb565b6060611379848460008585843b611d915760405162461bcd60e51b815260206004820152601d60248201527f416464726573733a2063616c6c20746f206e6f6e2d636f6e74726163740000006044820152606401610b11565b600080866001600160a01b03168587604051611dad9190611e2a565b60006040518083038185875af1925050503d8060008114611dea576040519150601f19603f3d011682016040523d82523d6000602084013e611def565b606091505b5091509150611dff828286611cff565b979650505050505050565b600060208284031215611e1b578081fd5b81518015158114610a19578182fd5b60008251611e3c8184602087016120a3565b9190910192915050565b7f416363657373436f6e74726f6c3a206163636f756e7420000000000000000000815260008351611e7e8160178501602088016120a3565b7001034b99036b4b9b9b4b733903937b6329607d1b6017918401918201528351611eaf8160288401602088016120a3565b01602801949350505050565b6020815260008251806020840152611eda8160408501602087016120a3565b601f01601f19169190910160400192915050565b6020808252602c908201527f46756e6374696f6e206d7573742062652063616c6c6564207468726f7567682060408201526b19195b1959d85d1958d85b1b60a21b606082015260800190565b6020808252602c908201527f46756e6374696f6e206d7573742062652063616c6c6564207468726f7567682060408201526b6163746976652070726f787960a01b606082015260800190565b60208082526015908201527421b7b73a3937b63632b91d103737ba1030b236b4b760591b604082015260600190565b60208082526032908201527f436f6e74726f6c6c65723a2063616c6c657220646f6573206e6f7420686176656040820152712074686520677561726469616e20726f6c6560701b606082015260800190565b6020808252602e908201527f496e697469616c697a61626c653a20636f6e747261637420697320616c72656160408201526d191e481a5b9a5d1a585b1a5e995960921b606082015260800190565b60008219821115612068576120686120e6565b500190565b6000816000190483118215151615612087576120876120e6565b500290565b60008282101561209e5761209e6120e6565b500390565b60005b838110156120be5781810151838201526020016120a6565b83811115610e735750506000910152565b6000816120de576120de6120e6565b506000190190565b634e487b7160e01b600052601160045260246000fdfe2172861495e7b85edac73e3cd5fbb42dd675baadf627720e687bcfdaca02509641737365744d616e616765723a20616d6f756e742063616e206e6f74206265207a65726f416464726573733a206c6f772d6c6576656c2064656c65676174652063616c6c206661696c6564a26469706673582212200ce6e579bbaf1df3561cf135acc1485ce15988e363f6371c21fb208251a2cffe64736f6c63430008040033",
  "linkReferences": {},
  "deployedLinkReferences": {}
}