{"abi":[{"type":"constructor","inputs":[{"name":"_weth","type":"address","internalType":"address"}],"stateMutability":"nonpayable"},{"type":"function","name":"addEthCollateralInMarginCall","inputs":[{"name":"_pool","type":"address","internalType":"address"},{"name":"_lender","type":"address","internalType":"address"}],"outputs":[],"stateMutability":"payable"},{"type":"function","name":"depositEthAsCollateralToPool","inputs":[{"name":"_pool","type":"address","internalType":"address"}],"outputs":[],"stateMutability":"payable"},{"type":"function","name":"ethLend","inputs":[{"name":"_pool","type":"address","internalType":"address"},{"name":"_lender","type":"address","internalType":"address"},{"name":"_strategy","type":"address","internalType":"address"}],"outputs":[],"stateMutability":"payable"},{"type":"function","name":"weth","inputs":[],"outputs":[{"name":"","type":"address","internalType":"contract IWETH9"}],"stateMutability":"view"}],"bytecode":{"object":"0x60a060405234801561001057600080fd5b506040516106893803806106898339818101604052602081101561003357600080fd5b8101908080519060200190929190505050600073ffffffffffffffffffffffffffffffffffffffff168173ffffffffffffffffffffffffffffffffffffffff1614156100e7576040517f08c379a00000000000000000000000000000000000000000000000000000000081526004018080602001828103825260068152602001807f5045553a4331000000000000000000000000000000000000000000000000000081525060200191505060405180910390fd5b8073ffffffffffffffffffffffffffffffffffffffff1660808173ffffffffffffffffffffffffffffffffffffffff1660601b815250505060805160601c6105436101466000398061027452806103bd528061043e52506105436000f3fe60806040526004361061003f5760003560e01c80630595b958146100445780633fc8cef3146100c857806340197a86146101095780639df4e9311461014d575b600080fd5b6100c66004803603606081101561005a57600080fd5b81019080803573ffffffffffffffffffffffffffffffffffffffff169060200190929190803573ffffffffffffffffffffffffffffffffffffffff169060200190929190803573ffffffffffffffffffffffffffffffffffffffff1690602001909291905050506101b1565b005b3480156100d457600080fd5b506100dd610272565b604051808273ffffffffffffffffffffffffffffffffffffffff16815260200191505060405180910390f35b61014b6004803603602081101561011f57600080fd5b81019080803573ffffffffffffffffffffffffffffffffffffffff169060200190929190505050610296565b005b6101af6004803603604081101561016357600080fd5b81019080803573ffffffffffffffffffffffffffffffffffffffff169060200190929190803573ffffffffffffffffffffffffffffffffffffffff169060200190929190505050610319565b005b6101bb83346103bb565b8273ffffffffffffffffffffffffffffffffffffffff1663411a0dec83348460006040518563ffffffff1660e01b8152600401808573ffffffffffffffffffffffffffffffffffffffff1681526020018481526020018373ffffffffffffffffffffffffffffffffffffffff1681526020018215158152602001945050505050600060405180830381600087803b15801561025557600080fd5b505af1158015610269573d6000803e3d6000fd5b50505050505050565b7f000000000000000000000000000000000000000000000000000000000000000081565b6102a081346103bb565b8073ffffffffffffffffffffffffffffffffffffffff1663d2b93bfd3460006040518363ffffffff1660e01b815260040180838152602001821515815260200192505050600060405180830381600087803b1580156102fe57600080fd5b505af1158015610312573d6000803e3d6000fd5b5050505050565b61032382346103bb565b8173ffffffffffffffffffffffffffffffffffffffff1663c145fe69823460006040518463ffffffff1660e01b8152600401808473ffffffffffffffffffffffffffffffffffffffff16815260200183815260200182151581526020019350505050600060405180830381600087803b15801561039f57600080fd5b505af11580156103b3573d6000803e3d6000fd5b505050505050565b7f000000000000000000000000000000000000000000000000000000000000000073ffffffffffffffffffffffffffffffffffffffff1663d0e30db0826040518263ffffffff1660e01b81526004016000604051808303818588803b15801561042357600080fd5b505af1158015610437573d6000803e3d6000fd5b50505050507f000000000000000000000000000000000000000000000000000000000000000073ffffffffffffffffffffffffffffffffffffffff1663095ea7b383836040518363ffffffff1660e01b8152600401808373ffffffffffffffffffffffffffffffffffffffff16815260200182815260200192505050602060405180830381600087803b1580156104cd57600080fd5b505af11580156104e1573d6000803e3d6000fd5b505050506040513d60208110156104f757600080fd5b810190808051906020019092919050505050505056fea2646970667358221220daeabdc99348d1187ec830f015945e896c02ef0e5d8aabf542627fcbee2959d964736f6c63430007060033","linkReferences":{}},"methodIdentifiers":{"addEthCollateralInMarginCall(address,address)":"9df4e931","depositEthAsCollateralToPool(address)":"40197a86","ethLend(address,address,address)":"0595b958","weth()":"3fc8cef3"},"id":6}