{
  "_format": "hh-sol-artifact-1",
  "contractName": "AaveMock",
  "sourceName": "contracts/tests/AaveMock.sol",
  "abi": [
    {
      "inputs": [
        {
          "internalType": "uint128",
          "name": "_rate",
          "type": "uint128"
        },
        {
          "internalType": "address",
          "name": "_aToken",
          "type": "address"
        }
      ],
      "name": "__AaveMock_init",
      "outputs": [],
      "stateMutability": "nonpayable",
      "type": "function"
    },
    {
      "inputs": [],
      "name": "aToken",
      "outputs": [
        {
          "internalType": "address",
          "name": "",
          "type": "address"
        }
      ],
      "stateMutability": "view",
      "type": "function"
    },
    {
      "inputs": [
        {
          "internalType": "address",
          "name": "asset",
          "type": "address"
        },
        {
          "internalType": "uint256",
          "name": "amount",
          "type": "uint256"
        },
        {
          "internalType": "address",
          "name": "onBehalfOf",
          "type": "address"
        },
        {
          "internalType": "uint16",
          "name": "",
          "type": "uint16"
        }
      ],
      "name": "deposit",
      "outputs": [],
      "stateMutability": "nonpayable",
      "type": "function"
    },
    {
      "inputs": [
        {
          "internalType": "address",
          "name": "",
          "type": "address"
        }
      ],
      "name": "getReserveData",
      "outputs": [
        {
          "internalType": "uint256",
          "name": "",
          "type": "uint256"
        },
        {
          "internalType": "uint128",
          "name": "",
          "type": "uint128"
        },
        {
          "internalType": "uint128",
          "name": "",
          "type": "uint128"
        },
        {
          "internalType": "uint128",
          "name": "",
          "type": "uint128"
        },
        {
          "internalType": "uint128",
          "name": "",
          "type": "uint128"
        },
        {
          "internalType": "uint128",
          "name": "",
          "type": "uint128"
        },
        {
          "internalType": "uint40",
          "name": "",
          "type": "uint40"
        },
        {
          "internalType": "address",
          "name": "",
          "type": "address"
        },
        {
          "internalType": "address",
          "name": "",
          "type": "address"
        },
        {
          "internalType": "address",
          "name": "",
          "type": "address"
        },
        {
          "internalType": "address",
          "name": "",
          "type": "address"
        },
        {
          "internalType": "uint8",
          "name": "",
          "type": "uint8"
        }
      ],
      "stateMutability": "view",
      "type": "function"
    },
    {
      "inputs": [],
      "name": "rate",
      "outputs": [
        {
          "internalType": "uint128",
          "name": "",
          "type": "uint128"
        }
      ],
      "stateMutability": "view",
      "type": "function"
    },
    {
      "inputs": [
        {
          "internalType": "address",
          "name": "asset",
          "type": "address"
        },
        {
          "internalType": "uint256",
          "name": "amount",
          "type": "uint256"
        },
        {
          "internalType": "address",
          "name": "to",
          "type": "address"
        }
      ],
      "name": "withdraw",
      "outputs": [],
      "stateMutability": "nonpayable",
      "type": "function"
    }
  ],
  "bytecode": "0x608060405234801561001057600080fd5b506106b0806100206000396000f3fe608060405234801561001057600080fd5b50600436106100625760003560e01c80632c4e722e1461006757806335ea6a751461009d57806369328dec14610165578063a0c1f15e1461017a578063ba0d0c82146101a5578063e8eda9df146101b8575b600080fd5b600054610080906201000090046001600160801b031681565b6040516001600160801b0390911681526020015b60405180910390f35b6100e36100ab366004610553565b50600080546001549192839283926201000090046001600160801b0316918391829182916001600160a01b0316908290819081908190565b604080519c8d526001600160801b039b8c1660208e0152998b16998c019990995296891660608b015294881660808a01529290961660a088015264ffffffffff1660c08701526001600160a01b0394851660e0870152841661010086015283166101208501529190911661014083015260ff1661016082015261018001610094565b610178610173366004610574565b6101cb565b005b60015461018d906001600160a01b031681565b6040516001600160a01b039091168152602001610094565b6101786101b3366004610623565b610345565b6101786101c63660046105af565b610444565b6001546040516370a0823160e01b81523360048201526000916001600160a01b0316906370a082319060240160206040518083038186803b15801561020f57600080fd5b505afa158015610223573d6000803e3d6000fd5b505050506040513d601f19601f820116820180604052508101906102479190610662565b9050826000198114156102575750805b600154604051632770a7eb60e21b8152336004820152602481018390526001600160a01b0390911690639dc29fac90604401600060405180830381600087803b1580156102a357600080fd5b505af11580156102b7573d6000803e3d6000fd5b505060405163a9059cbb60e01b81526001600160a01b038681166004830152602482018590528816925063a9059cbb9150604401602060405180830381600087803b15801561030557600080fd5b505af1158015610319573d6000803e3d6000fd5b505050506040513d601f19601f8201168201806040525081019061033d9190610603565b505050505050565b600054610100900460ff168061035e575060005460ff16155b6103c55760405162461bcd60e51b815260206004820152602e60248201527f496e697469616c697a61626c653a20636f6e747261637420697320616c72656160448201526d191e481a5b9a5d1a585b1a5e995960921b606482015260840160405180910390fd5b600054610100900460ff161580156103e7576000805461ffff19166101011790555b6000805471ffffffffffffffffffffffffffffffff00001916620100006001600160801b03861602179055600180546001600160a01b0319166001600160a01b038416179055801561043f576000805461ff00191690555b505050565b6040516323b872dd60e01b81526001600160a01b038381166004830152306024830152604482018590528516906323b872dd90606401602060405180830381600087803b15801561049457600080fd5b505af11580156104a8573d6000803e3d6000fd5b505050506040513d601f19601f820116820180604052508101906104cc9190610603565b506001546040516340c10f1960e01b8152336004820152602481018590526001600160a01b03909116906340c10f1990604401600060405180830381600087803b15801561051957600080fd5b505af115801561052d573d6000803e3d6000fd5b5050505050505050565b80356001600160a01b038116811461054e57600080fd5b919050565b600060208284031215610564578081fd5b61056d82610537565b9392505050565b600080600060608486031215610588578182fd5b61059184610537565b9250602084013591506105a660408501610537565b90509250925092565b600080600080608085870312156105c4578081fd5b6105cd85610537565b9350602085013592506105e260408601610537565b9150606085013561ffff811681146105f8578182fd5b939692955090935050565b600060208284031215610614578081fd5b8151801515811461056d578182fd5b60008060408385031215610635578182fd5b82356001600160801b038116811461064b578283fd5b915061065960208401610537565b90509250929050565b600060208284031215610673578081fd5b505191905056fea2646970667358221220dcbf02f071fcd0b63f22171815d7731cfea987076be186e4a8511557618b5f5b64736f6c63430008040033",
  "linkReferences": {},
  "deployedLinkReferences": {}
}