{"abi":[{"type":"function","name":"alignmentClass","inputs":[],"outputs":[{"name":"","type":"string","internalType":"string"}],"stateMutability":"pure"},{"type":"function","name":"backgroundColorsStyles","inputs":[{"name":"collateralAsset","type":"string","internalType":"string"},{"name":"loanAsset","type":"string","internalType":"string"}],"outputs":[{"name":"","type":"string","internalType":"string"}],"stateMutability":"pure"},{"type":"function","name":"backgroundTitleRectsXTranslate","inputs":[],"outputs":[{"name":"","type":"string","internalType":"string"}],"stateMutability":"pure"},{"type":"function","name":"backgroundValueRectsXTranslate","inputs":[],"outputs":[{"name":"","type":"string","internalType":"string"}],"stateMutability":"pure"},{"type":"function","name":"ticketIdXCoordinate","inputs":[],"outputs":[{"name":"","type":"string","internalType":"string"}],"stateMutability":"pure"},{"type":"function","name":"titlesPositionClass","inputs":[],"outputs":[{"name":"","type":"string","internalType":"string"}],"stateMutability":"pure"},{"type":"function","name":"titlesXTranslate","inputs":[],"outputs":[{"name":"","type":"string","internalType":"string"}],"stateMutability":"pure"},{"type":"function","name":"valuesXTranslate","inputs":[],"outputs":[{"name":"","type":"string","internalType":"string"}],"stateMutability":"pure"}],"bytecode":{"object":"0x608060405234801561001057600080fd5b5061046c806100206000396000f3fe608060405234801561001057600080fd5b50600436106100885760003560e01c806381c30ab71161005b57806381c30ab714610105578063822b689714610135578063a9b3636f14610153578063f99ba69f1461017157610088565b80632652f3361461008d5780634cad441a146100ab5780635e44e837146100c95780637c1881be146100e7575b600080fd5b61009561018f565b6040516100a29190610253565b60405180910390f35b6100b3610194565b6040516100c09190610253565b60405180910390f35b6100d1610199565b6040516100de9190610253565b60405180910390f35b6100ef61019e565b6040516100fc9190610253565b60405180910390f35b61011f600480360381019061011a91906103be565b6101a3565b60405161012c9190610253565b60405180910390f35b61013d6101ab565b60405161014a9190610253565b60405180910390f35b61015b6101b0565b6040516101689190610253565b60405180910390f35b6101796101b5565b6040516101869190610253565b60405180910390f35b606090565b606090565b606090565b606090565b606092915050565b606090565b606090565b606090565b600081519050919050565b600082825260208201905092915050565b60005b838110156101f45780820151818401526020810190506101d9565b83811115610203576000848401525b50505050565b6000601f19601f8301169050919050565b6000610225826101ba565b61022f81856101c5565b935061023f8185602086016101d6565b61024881610209565b840191505092915050565b6000602082019050818103600083015261026d818461021a565b905092915050565b6000604051905090565b600080fd5b600080fd5b600080fd5b600080fd5b7f4e487b7100000000000000000000000000000000000000000000000000000000600052604160045260246000fd5b6102cb82610209565b810181811067ffffffffffffffff821117156102ea576102e9610293565b5b80604052505050565b60006102fd610275565b905061030982826102c2565b919050565b600067ffffffffffffffff82111561032957610328610293565b5b61033282610209565b9050602081019050919050565b82818337600083830152505050565b600061036161035c8461030e565b6102f3565b90508281526020810184848401111561037d5761037c61028e565b5b61038884828561033f565b509392505050565b600082601f8301126103a5576103a4610289565b5b81356103b584826020860161034e565b91505092915050565b600080604083850312156103d5576103d461027f565b5b600083013567ffffffffffffffff8111156103f3576103f2610284565b5b6103ff85828601610390565b925050602083013567ffffffffffffffff8111156104205761041f610284565b5b61042c85828601610390565b915050925092905056fea2646970667358221220a263bedd29a9e614da7e54f83235ff562d417cc594c5951108db569a8325c5b564736f6c634300080c0033","linkReferences":{}},"methodIdentifiers":{"alignmentClass()":"4cad441a","backgroundColorsStyles(string,string)":"81c30ab7","backgroundTitleRectsXTranslate()":"7c1881be","backgroundValueRectsXTranslate()":"822b6897","ticketIdXCoordinate()":"a9b3636f","titlesPositionClass()":"2652f336","titlesXTranslate()":"f99ba69f","valuesXTranslate()":"5e44e837"},"id":9}