{
  "_format": "hh-sol-artifact-1",
  "contractName": "ChainlinkInceptionPriceFeed",
  "sourceName": "contracts/inception/priceFeed/ChainlinkInceptionPriceFeed.sol",
  "abi": [
    {
      "anonymous": false,
      "inputs": [
        {
          "indexed": false,
          "internalType": "uint16",
          "name": "_id",
          "type": "uint16"
        },
        {
          "indexed": false,
          "internalType": "address",
          "name": "_priceFeed",
          "type": "address"
        }
      ],
      "name": "PriceFeedAdded",
      "type": "event"
    },
    {
      "inputs": [],
      "name": "a",
      "outputs": [
        {
          "internalType": "contract IAddressProvider",
          "name": "",
          "type": "address"
        }
      ],
      "stateMutability": "view",
      "type": "function"
    },
    {
      "inputs": [],
      "name": "assetOracle",
      "outputs": [
        {
          "internalType": "contract AggregatorV3Interface",
          "name": "",
          "type": "address"
        }
      ],
      "stateMutability": "view",
      "type": "function"
    },
    {
      "inputs": [
        {
          "internalType": "uint256",
          "name": "_amount",
          "type": "uint256"
        }
      ],
      "name": "convertFrom",
      "outputs": [
        {
          "internalType": "uint256",
          "name": "",
          "type": "uint256"
        }
      ],
      "stateMutability": "view",
      "type": "function"
    },
    {
      "inputs": [
        {
          "internalType": "uint256",
          "name": "_amount",
          "type": "uint256"
        }
      ],
      "name": "convertTo",
      "outputs": [
        {
          "internalType": "uint256",
          "name": "",
          "type": "uint256"
        }
      ],
      "stateMutability": "view",
      "type": "function"
    },
    {
      "inputs": [],
      "name": "eurOracle",
      "outputs": [
        {
          "internalType": "contract AggregatorV3Interface",
          "name": "",
          "type": "address"
        }
      ],
      "stateMutability": "view",
      "type": "function"
    },
    {
      "inputs": [],
      "name": "getAssetPrice",
      "outputs": [
        {
          "internalType": "uint256",
          "name": "price",
          "type": "uint256"
        }
      ],
      "stateMutability": "view",
      "type": "function"
    },
    {
      "inputs": [],
      "name": "inceptionCollateral",
      "outputs": [
        {
          "internalType": "contract ERC20",
          "name": "",
          "type": "address"
        }
      ],
      "stateMutability": "view",
      "type": "function"
    },
    {
      "inputs": [
        {
          "internalType": "contract IAddressProvider",
          "name": "_addresses",
          "type": "address"
        },
        {
          "internalType": "address",
          "name": "inceptionCollateral",
          "type": "address"
        },
        {
          "internalType": "address",
          "name": "assetOracle",
          "type": "address"
        },
        {
          "internalType": "contract AggregatorV3Interface",
          "name": "eurOracle",
          "type": "address"
        }
      ],
      "name": "initialize",
      "outputs": [],
      "stateMutability": "nonpayable",
      "type": "function"
    }
  ],
  "bytecode": "0x608060405234801561001057600080fd5b50610c20806100206000396000f3fe608060405234801561001057600080fd5b50600436106100885760003560e01c80636719d7ac1161005b5780636719d7ac146101055780638c1a846f1461010d578063e54f088014610115578063f8c8765e1461011d57610088565b80630139234a1461008d5780630dbe671f146100bc5780631d4d3a5d146100e057806345e5f69f146100e8575b600080fd5b6100aa600480360360208110156100a357600080fd5b503561015d565b60408051918252519081900360200190f35b6100c46103a2565b604080516001600160a01b039092168252519081900360200190f35b6100c46103b7565b6100aa600480360360208110156100fe57600080fd5b50356103c6565b6100c46105ec565b6100c46105fb565b6100aa61060a565b61015b6004803603608081101561013357600080fd5b506001600160a01b03813581169160208101358216916040820135811691606001351661090b565b005b60008061016861060a565b90506000600160009054906101000a90046001600160a01b03166001600160a01b031663313ce5676040518163ffffffff1660e01b815260040160206040518083038186803b1580156101ba57600080fd5b505afa1580156101ce573d6000803e3d6000fd5b505050506040513d60208110156101e457600080fd5b505160008054604080516316d8a5a960e01b815290519394509192620100009091046001600160a01b0316916316d8a5a9916004808301926020929190829003018186803b15801561023557600080fd5b505afa158015610249573d6000803e3d6000fd5b505050506040513d602081101561025f57600080fd5b50516040805163313ce56760e01b815290516001600160a01b039092169163313ce56791600480820192602092909190829003018186803b1580156102a357600080fd5b505afa1580156102b7573d6000803e3d6000fd5b505050506040513d60208110156102cd57600080fd5b50516002546040805163313ce56760e01b815290519293506000926001600160a01b039092169163313ce56791600480820192602092909190829003018186803b15801561031a57600080fd5b505afa15801561032e573d6000803e3d6000fd5b505050506040513d602081101561034457600080fd5b505190506000610358600a60ff8516610a0e565b90506000610376600a61037160ff868116908916610a63565b610a0e565b9050610396816103908461038a8c8b610ac4565b90610ac4565b90610b1d565b98975050505050505050565b6000546201000090046001600160a01b031690565b6002546001600160a01b031690565b6000806103d161060a565b90506000600160009054906101000a90046001600160a01b03166001600160a01b031663313ce5676040518163ffffffff1660e01b815260040160206040518083038186803b15801561042357600080fd5b505afa158015610437573d6000803e3d6000fd5b505050506040513d602081101561044d57600080fd5b505160008054604080516316d8a5a960e01b815290519394509192620100009091046001600160a01b0316916316d8a5a9916004808301926020929190829003018186803b15801561049e57600080fd5b505afa1580156104b2573d6000803e3d6000fd5b505050506040513d60208110156104c857600080fd5b50516040805163313ce56760e01b815290516001600160a01b039092169163313ce56791600480820192602092909190829003018186803b15801561050c57600080fd5b505afa158015610520573d6000803e3d6000fd5b505050506040513d602081101561053657600080fd5b50516002546040805163313ce56760e01b815290519293506000926001600160a01b039092169163313ce56791600480820192602092909190829003018186803b15801561058357600080fd5b505afa158015610597573d6000803e3d6000fd5b505050506040513d60208110156105ad57600080fd5b5051905060006105c1600a60ff8516610a0e565b905060006105da600a61037160ff868116908916610a63565b90506103968261039088818c86610ac4565b6003546001600160a01b031690565b6001546001600160a01b031690565b6000806000600360009054906101000a90046001600160a01b03166001600160a01b031663feaf968c6040518163ffffffff1660e01b815260040160a06040518083038186803b15801561065d57600080fd5b505afa158015610671573d6000803e3d6000fd5b505050506040513d60a081101561068757600080fd5b5060208101516060909101519092509050600082136106ed576040805162461bcd60e51b815260206004820152601860248201527f4555522070726963652064617461206e6f742076616c69640000000000000000604482015290519081900360640190fd5b6201518081420310610746576040805162461bcd60e51b815260206004820152601760248201527f4555522070726963652064617461206973207374616c65000000000000000000604482015290519081900360640190fd5b600080600260009054906101000a90046001600160a01b03166001600160a01b031663feaf968c6040518163ffffffff1660e01b815260040160a06040518083038186803b15801561079757600080fd5b505afa1580156107ab573d6000803e3d6000fd5b505050506040513d60a08110156107c157600080fd5b50602081015160609091015190925090506000821361081e576040805162461bcd60e51b8152602060048201526014602482015273141c9a58d94819185d18481b9bdd081d985b1a5960621b604482015290519081900360640190fd5b620151808142031061086d576040805162461bcd60e51b815260206004820152601360248201527250726963652064617461206973207374616c6560681b604482015290519081900360640190fd5b6003546040805163313ce56760e01b815290516000926001600160a01b03169163313ce567916004808301926020929190829003018186803b1580156108b257600080fd5b505afa1580156108c6573d6000803e3d6000fd5b505050506040513d60208110156108dc57600080fd5b5051905060006108f0600a60ff8416610a0e565b9050610900866103908684610ac4565b965050505050505090565b600054610100900460ff16806109245750610924610b84565b80610932575060005460ff16155b61096d5760405162461bcd60e51b815260040180806020018281038252602e815260200180610b9c602e913960400191505060405180910390fd5b600054610100900460ff16158015610998576000805460ff1961ff0019909116610100171660011790555b6000805462010000600160b01b031916620100006001600160a01b038881169190910291909117909155600180546001600160a01b031990811687841617909155600280548216868416179055600380549091169184169190911790558015610a07576000805461ff00191690555b5050505050565b600060028206610a1f576001610a21565b825b90506002820491505b8115610a5d57610a3a8384610ac4565b92506002820615610a5257610a4f8184610ac4565b90505b600282049150610a2a565b92915050565b600082820183811015610abd576040805162461bcd60e51b815260206004820152601b60248201527f536166654d6174683a206164646974696f6e206f766572666c6f770000000000604482015290519081900360640190fd5b9392505050565b600082610ad357506000610a5d565b82820282848281610ae057fe5b0414610abd5760405162461bcd60e51b8152600401808060200182810382526021815260200180610bca6021913960400191505060405180910390fd5b6000808211610b73576040805162461bcd60e51b815260206004820152601a60248201527f536166654d6174683a206469766973696f6e206279207a65726f000000000000604482015290519081900360640190fd5b818381610b7c57fe5b049392505050565b6000610b8f30610b95565b15905090565b3b15159056fe496e697469616c697a61626c653a20636f6e747261637420697320616c726561647920696e697469616c697a6564536166654d6174683a206d756c7469706c69636174696f6e206f766572666c6f77a2646970667358221220c404a18da74763318ff2b3268f0b8f73eb5652272a2b7051486793a4d167e90e64736f6c634300060c0033",
  "linkReferences": {},
  "deployedLinkReferences": {}
}