{"abi":[{"type":"constructor","inputs":[{"name":"_pooledCreditLine","type":"address","internalType":"address"},{"name":"_savingsAccount","type":"address","internalType":"address"},{"name":"_verification","type":"address","internalType":"address"}],"stateMutability":"nonpayable"},{"type":"function","name":"POOLED_CREDIT_LINE","inputs":[],"outputs":[{"name":"","type":"address","internalType":"contract IPooledCreditLine"}],"stateMutability":"view"},{"type":"function","name":"SAVINGS_ACCOUNT","inputs":[],"outputs":[{"name":"","type":"address","internalType":"contract ISavingsAccount"}],"stateMutability":"view"},{"type":"function","name":"VERIFICATION","inputs":[],"outputs":[{"name":"","type":"address","internalType":"contract IVerification"}],"stateMutability":"view"},{"type":"function","name":"balanceOf","inputs":[{"name":"account","type":"address","internalType":"address"},{"name":"id","type":"uint256","internalType":"uint256"}],"outputs":[{"name":"","type":"uint256","internalType":"uint256"}],"stateMutability":"view"},{"type":"function","name":"balanceOfBatch","inputs":[{"name":"accounts","type":"address[]","internalType":"address[]"},{"name":"ids","type":"uint256[]","internalType":"uint256[]"}],"outputs":[{"name":"","type":"uint256[]","internalType":"uint256[]"}],"stateMutability":"view"},{"type":"function","name":"borrowed","inputs":[{"name":"_id","type":"uint256","internalType":"uint256"},{"name":"_sharesBorrowed","type":"uint256","internalType":"uint256"}],"outputs":[],"stateMutability":"nonpayable"},{"type":"function","name":"calculatePrincipalWithdrawable","inputs":[{"name":"_id","type":"uint256","internalType":"uint256"},{"name":"_lender","type":"address","internalType":"address"}],"outputs":[{"name":"","type":"uint256","internalType":"uint256"}],"stateMutability":"nonpayable"},{"type":"function","name":"create","inputs":[{"name":"_id","type":"uint256","internalType":"uint256"},{"name":"_lenderVerifier","type":"address","internalType":"address"},{"name":"_borrowAsset","type":"address","internalType":"address"},{"name":"_borrowAssetStrategy","type":"address","internalType":"address"},{"name":"_borrowLimit","type":"uint256","internalType":"uint256"},{"name":"_minBorrowAmount","type":"uint256","internalType":"uint256"},{"name":"_collectionPeriod","type":"uint256","internalType":"uint256"},{"name":"_areTokensTransferable","type":"bool","internalType":"bool"}],"outputs":[],"stateMutability":"nonpayable"},{"type":"function","name":"getLenderInfo","inputs":[{"name":"_id","type":"uint256","internalType":"uint256"},{"name":"_lender","type":"address","internalType":"address"}],"outputs":[{"name":"","type":"tuple","internalType":"struct LenderPool.LenderInfo","components":[{"name":"borrowerInterestSharesWithdrawn","type":"uint256","internalType":"uint256"},{"name":"yieldInterestWithdrawnShares","type":"uint256","internalType":"uint256"}]}],"stateMutability":"view"},{"type":"function","name":"getLenderInterestWithdrawable","inputs":[{"name":"_id","type":"uint256","internalType":"uint256"},{"name":"_lender","type":"address","internalType":"address"}],"outputs":[{"name":"","type":"uint256","internalType":"uint256"}],"stateMutability":"nonpayable"},{"type":"function","name":"initialize","inputs":[],"outputs":[],"stateMutability":"nonpayable"},{"type":"function","name":"isApprovedForAll","inputs":[{"name":"account","type":"address","internalType":"address"},{"name":"operator","type":"address","internalType":"address"}],"outputs":[{"name":"","type":"bool","internalType":"bool"}],"stateMutability":"view"},{"type":"function","name":"lend","inputs":[{"name":"_id","type":"uint256","internalType":"uint256"},{"name":"_amount","type":"uint256","internalType":"uint256"}],"outputs":[],"stateMutability":"nonpayable"},{"type":"function","name":"liquidate","inputs":[{"name":"_id","type":"uint256","internalType":"uint256"},{"name":"_withdraw","type":"bool","internalType":"bool"}],"outputs":[],"stateMutability":"nonpayable"},{"type":"function","name":"pooledCLConstants","inputs":[{"name":"","type":"uint256","internalType":"uint256"}],"outputs":[{"name":"startTime","type":"uint256","internalType":"uint256"},{"name":"borrowAsset","type":"address","internalType":"address"},{"name":"collateralAsset","type":"address","internalType":"address"},{"name":"borrowLimit","type":"uint256","internalType":"uint256"},{"name":"minBorrowAmount","type":"uint256","internalType":"uint256"},{"name":"lenderVerifier","type":"address","internalType":"address"},{"name":"borrowAssetStrategy","type":"address","internalType":"address"},{"name":"areTokensTransferable","type":"bool","internalType":"bool"}],"stateMutability":"view"},{"type":"function","name":"pooledCLVariables","inputs":[{"name":"","type":"uint256","internalType":"uint256"}],"outputs":[{"name":"sharesHeld","type":"uint256","internalType":"uint256"},{"name":"borrowerInterestShares","type":"uint256","internalType":"uint256"},{"name":"borrowerInterestSharesWithdrawn","type":"uint256","internalType":"uint256"},{"name":"yieldInterestWithdrawnShares","type":"uint256","internalType":"uint256"},{"name":"collateralHeld","type":"uint256","internalType":"uint256"}],"stateMutability":"view"},{"type":"function","name":"repaid","inputs":[{"name":"_id","type":"uint256","internalType":"uint256"},{"name":"_sharesRepaid","type":"uint256","internalType":"uint256"},{"name":"_interestShares","type":"uint256","internalType":"uint256"}],"outputs":[],"stateMutability":"nonpayable"},{"type":"function","name":"requestCancelled","inputs":[{"name":"_id","type":"uint256","internalType":"uint256"}],"outputs":[],"stateMutability":"nonpayable"},{"type":"function","name":"safeBatchTransferFrom","inputs":[{"name":"from","type":"address","internalType":"address"},{"name":"to","type":"address","internalType":"address"},{"name":"ids","type":"uint256[]","internalType":"uint256[]"},{"name":"amounts","type":"uint256[]","internalType":"uint256[]"},{"name":"data","type":"bytes","internalType":"bytes"}],"outputs":[],"stateMutability":"nonpayable"},{"type":"function","name":"safeTransferFrom","inputs":[{"name":"from","type":"address","internalType":"address"},{"name":"to","type":"address","internalType":"address"},{"name":"id","type":"uint256","internalType":"uint256"},{"name":"amount","type":"uint256","internalType":"uint256"},{"name":"data","type":"bytes","internalType":"bytes"}],"outputs":[],"stateMutability":"nonpayable"},{"type":"function","name":"setApprovalForAll","inputs":[{"name":"operator","type":"address","internalType":"address"},{"name":"approved","type":"bool","internalType":"bool"}],"outputs":[],"stateMutability":"nonpayable"},{"type":"function","name":"start","inputs":[{"name":"_id","type":"uint256","internalType":"uint256"}],"outputs":[],"stateMutability":"nonpayable"},{"type":"function","name":"supportsInterface","inputs":[{"name":"interfaceId","type":"bytes4","internalType":"bytes4"}],"outputs":[{"name":"","type":"bool","internalType":"bool"}],"stateMutability":"view"},{"type":"function","name":"terminate","inputs":[{"name":"_id","type":"uint256","internalType":"uint256"},{"name":"_to","type":"address","internalType":"address"}],"outputs":[],"stateMutability":"nonpayable"},{"type":"function","name":"totalSupply","inputs":[{"name":"","type":"uint256","internalType":"uint256"}],"outputs":[{"name":"","type":"uint256","internalType":"uint256"}],"stateMutability":"view"},{"type":"function","name":"uri","inputs":[{"name":"","type":"uint256","internalType":"uint256"}],"outputs":[{"name":"","type":"string","internalType":"string"}],"stateMutability":"view"},{"type":"function","name":"withdrawInterest","inputs":[{"name":"_id","type":"uint256","internalType":"uint256"}],"outputs":[],"stateMutability":"nonpayable"},{"type":"function","name":"withdrawLiquidity","inputs":[{"name":"_id","type":"uint256","internalType":"uint256"}],"outputs":[],"stateMutability":"nonpayable"},{"type":"function","name":"withdrawTokensAfterLiquidation","inputs":[{"name":"_id","type":"uint256","internalType":"uint256"}],"outputs":[],"stateMutability":"nonpayable"},{"type":"event","name":"ApprovalForAll","inputs":[{"name":"account","type":"address","indexed":true,"internalType":"address"},{"name":"operator","type":"address","indexed":true,"internalType":"address"},{"name":"approved","type":"bool","indexed":false,"internalType":"bool"}],"anonymous":false},{"type":"event","name":"InterestWithdrawn","inputs":[{"name":"id","type":"uint256","indexed":true,"internalType":"uint256"},{"name":"user","type":"address","indexed":true,"internalType":"address"},{"name":"shares","type":"uint256","indexed":false,"internalType":"uint256"}],"anonymous":false},{"type":"event","name":"Lend","inputs":[{"name":"id","type":"uint256","indexed":true,"internalType":"uint256"},{"name":"user","type":"address","indexed":true,"internalType":"address"},{"name":"amount","type":"uint256","indexed":false,"internalType":"uint256"}],"anonymous":false},{"type":"event","name":"Liquidated","inputs":[{"name":"id","type":"uint256","indexed":true,"internalType":"uint256"},{"name":"collateralLiquidated","type":"uint256","indexed":false,"internalType":"uint256"}],"anonymous":false},{"type":"event","name":"LiquidationWithdrawn","inputs":[{"name":"id","type":"uint256","indexed":true,"internalType":"uint256"},{"name":"user","type":"address","indexed":true,"internalType":"address"},{"name":"collateralShare","type":"uint256","indexed":false,"internalType":"uint256"}],"anonymous":false},{"type":"event","name":"LiquidityWithdrawn","inputs":[{"name":"amount","type":"uint256","indexed":false,"internalType":"uint256"},{"name":"lenderAddress","type":"address","indexed":true,"internalType":"address"}],"anonymous":false},{"type":"event","name":"TransferBatch","inputs":[{"name":"operator","type":"address","indexed":true,"internalType":"address"},{"name":"from","type":"address","indexed":true,"internalType":"address"},{"name":"to","type":"address","indexed":true,"internalType":"address"},{"name":"ids","type":"uint256[]","indexed":false,"internalType":"uint256[]"},{"name":"values","type":"uint256[]","indexed":false,"internalType":"uint256[]"}],"anonymous":false},{"type":"event","name":"TransferSingle","inputs":[{"name":"operator","type":"address","indexed":true,"internalType":"address"},{"name":"from","type":"address","indexed":true,"internalType":"address"},{"name":"to","type":"address","indexed":true,"internalType":"address"},{"name":"id","type":"uint256","indexed":false,"internalType":"uint256"},{"name":"value","type":"uint256","indexed":false,"internalType":"uint256"}],"anonymous":false},{"type":"event","name":"URI","inputs":[{"name":"value","type":"string","indexed":false,"internalType":"string"},{"name":"id","type":"uint256","indexed":true,"internalType":"uint256"}],"anonymous":false},{"type":"event","name":"WithdrawLiquidity","inputs":[{"name":"id","type":"uint256","indexed":true,"internalType":"uint256"},{"name":"user","type":"address","indexed":true,"internalType":"address"},{"name":"shares","type":"uint256","indexed":false,"internalType":"uint256"}],"anonymous":false},{"type":"event","name":"WithdrawLiquidityOnCancel","inputs":[{"name":"id","type":"uint256","indexed":true,"internalType":"uint256"},{"name":"user","type":"address","indexed":true,"internalType":"address"},{"name":"amount","type":"uint256","indexed":false,"internalType":"uint256"}],"anonymous":false}],"bytecode":{"object":"0x60e06040523480156200001157600080fd5b506040516200921138038062009211833981810160405281019062000037919062000255565b600073ffffffffffffffffffffffffffffffffffffffff168373ffffffffffffffffffffffffffffffffffffffff161415620000aa576040517f08c379a0000000000000000000000000000000000000000000000000000000008152600401620000a19062000371565b60405180910390fd5b600073ffffffffffffffffffffffffffffffffffffffff168273ffffffffffffffffffffffffffffffffffffffff1614156200011d576040517f08c379a00000000000000000000000000000000000000000000000000000000081526004016200011490620003b5565b60405180910390fd5b600073ffffffffffffffffffffffffffffffffffffffff168173ffffffffffffffffffffffffffffffffffffffff16141562000190576040517f08c379a0000000000000000000000000000000000000000000000000000000008152600401620001879062000393565b60405180910390fd5b8273ffffffffffffffffffffffffffffffffffffffff1660a08173ffffffffffffffffffffffffffffffffffffffff1660601b815250508173ffffffffffffffffffffffffffffffffffffffff1660808173ffffffffffffffffffffffffffffffffffffffff1660601b815250508073ffffffffffffffffffffffffffffffffffffffff1660c08173ffffffffffffffffffffffffffffffffffffffff1660601b8152505050505062000436565b6000815190506200024f816200041c565b92915050565b6000806000606084860312156200026b57600080fd5b60006200027b868287016200023e565b93505060206200028e868287016200023e565b9250506040620002a1868287016200023e565b9150509250925092565b6000620002ba600583620003d7565b91507f4c503a43310000000000000000000000000000000000000000000000000000006000830152602082019050919050565b6000620002fc600583620003d7565b91507f4c503a43330000000000000000000000000000000000000000000000000000006000830152602082019050919050565b60006200033e600583620003d7565b91507f4c503a43320000000000000000000000000000000000000000000000000000006000830152602082019050919050565b600060208201905081810360008301526200038c81620002ab565b9050919050565b60006020820190508181036000830152620003ae81620002ed565b9050919050565b60006020820190508181036000830152620003d0816200032f565b9050919050565b600082825260208201905092915050565b6000620003f582620003fc565b9050919050565b600073ffffffffffffffffffffffffffffffffffffffff82169050919050565b6200042781620003e8565b81146200043357600080fd5b50565b60805160601c60a05160601c60c05160601c618d19620004f8600039806118c45280611b1552806142375250806107a55280610a035280610afa5280610ea3528061105a5280611e9a52806120de52806123ec528061257f5280612669528061270e52806128325280612d02528061366d52806137c75280613857528061390652806141205280615106528061520b528061586d5250806109c55280610abd52806118e85280612a1252806135085280613d13528061503b5250618d196000f3fe608060405234801561001057600080fd5b50600436106101ce5760003560e01c8063791ae74811610104578063a78e0143116100a2578063e959ab9711610071578063e959ab9714610542578063e985e9c51461055e578063f242432a1461058e578063f4ff0b6e146105aa576101ce565b8063a78e0143146104a8578063bd85b039146104d8578063d792b4cf14610508578063e554de9814610526576101ce565b80639110df85116100de5780639110df851461043857806391a214dd1461045457806395805dad14610470578063a22cb4651461048c576101ce565b8063791ae748146103f25780637b2a2d1f146104105780638129fc1c1461042e576101ce565b80631523a760116101715780632eb2c2d61161014b5780632eb2c2d61461033f57806335e5722c1461035b5780634d10249a1461038b5780634e1273f4146103c2576101ce565b80631523a760146102d357806323a32b88146102ef5780632758db0c14610323576101ce565b806308669aab116101ad57806308669aab1461024f5780630a861f2a1461026b5780630e89341c1461028757806311f27894146102b7576101ce565b8062fdd58e146101d357806301ffc9a7146102035780630553d90a14610233575b600080fd5b6101ed60048036038101906101e89190617535565b6105da565b6040516101fa9190618507565b60405180910390f35b61021d60048036038101906102189190617642565b6106ba565b60405161022a919061817e565b60405180910390f35b61024d60048036038101906102489190617722565b610722565b005b61026960048036038101906102649190617694565b610b9e565b005b61028560048036038101906102809190617694565b610c7d565b005b6102a1600480360381019061029c9190617694565b610d14565b6040516102ae91906181ea565b60405180910390f35b6102d160048036038101906102cc9190617694565b610db8565b005b6102ed60048036038101906102e89190617694565b610ea1565b005b61030960048036038101906103049190617694565b610f4c565b60405161031a959493929190618600565b60405180910390f35b61033d600480360381019061033891906177d4565b610f82565b005b610359600480360381019061035491906173ab565b6111ce565b005b610375600480360381019061037091906176e6565b611659565b60405161038291906184ec565b60405180910390f35b6103a560048036038101906103a09190617694565b6116db565b6040516103b998979695949392919061854b565b60405180910390f35b6103dc60048036038101906103d791906175ad565b6117b0565b6040516103e9919061815c565b60405180910390f35b6103fa6118c2565b60405161040791906181cf565b60405180910390f35b6104186118e6565b60405161042591906181b4565b60405180910390f35b61043661190a565b005b610452600480360381019061044d9190617810565b611a4e565b005b61046e6004803603810190610469919061784c565b611e17565b005b61048a60048036038101906104859190617694565b611fb9565b005b6104a660048036038101906104a191906174f9565b61224e565b005b6104c260048036038101906104bd91906176e6565b6123e7565b6040516104cf9190618507565b60405180910390f35b6104f260048036038101906104ed9190617694565b61264f565b6040516104ff9190618507565b60405180910390f35b610510612667565b60405161051d9190618199565b60405180910390f35b610540600480360381019061053b91906176e6565b61268b565b005b61055c60048036038101906105579190617810565b612c7f565b005b6105786004803603810190610573919061736f565b612ddd565b604051610585919061817e565b60405180910390f35b6105a860048036038101906105a3919061746a565b612e71565b005b6105c460048036038101906105bf91906176e6565b6131e6565b6040516105d19190618507565b60405180910390f35b60008073ffffffffffffffffffffffffffffffffffffffff168373ffffffffffffffffffffffffffffffffffffffff161415610661576040517f08c379a000000000000000000000000000000000000000000000000000000000815260040180806020018281038252602b815260200180618a58602b913960400191505060405180910390fd5b6065600083815260200190815260200160002060008473ffffffffffffffffffffffffffffffffffffffff1673ffffffffffffffffffffffffffffffffffffffff16815260200190815260200160002054905092915050565b600060336000837bffffffffffffffffffffffffffffffffffffffffffffffffffffffff19167bffffffffffffffffffffffffffffffffffffffffffffffffffffffff1916815260200190815260200160002060009054906101000a900460ff169050919050565b6002609754141561079b576040517f08c379a000000000000000000000000000000000000000000000000000000000815260040180806020018281038252601f8152602001807f5265656e7472616e637947756172643a207265656e7472616e742063616c6c0081525060200191505060405180910390fd5b60026097819055507f000000000000000000000000000000000000000000000000000000000000000073ffffffffffffffffffffffffffffffffffffffff163373ffffffffffffffffffffffffffffffffffffffff1614610831576040517f08c379a0000000000000000000000000000000000000000000000000000000008152600401610828906182cc565b60405180910390fd5b610844824261333c90919063ffffffff16565b60c960008a8152602001908152602001600020600001819055508560c960008a815260200190815260200160002060010160006101000a81548173ffffffffffffffffffffffffffffffffffffffff021916908373ffffffffffffffffffffffffffffffffffffffff1602179055508360c960008a8152602001908152602001600020600301819055508260c960008a8152602001908152602001600020600401819055508660c960008a815260200190815260200160002060050160006101000a81548173ffffffffffffffffffffffffffffffffffffffff021916908373ffffffffffffffffffffffffffffffffffffffff1602179055508460c960008a815260200190815260200160002060060160006101000a81548173ffffffffffffffffffffffffffffffffffffffff021916908373ffffffffffffffffffffffffffffffffffffffff1602179055508060c960008a815260200190815260200160002060060160146101000a81548160ff02191690831515021790555060007f000000000000000000000000000000000000000000000000000000000000000073ffffffffffffffffffffffffffffffffffffffff1663927da10530897f00000000000000000000000000000000000000000000000000000000000000006040518463ffffffff1660e01b8152600401610a4093929190618003565b602060405180830381600087803b158015610a5a57600080fd5b505af1158015610a6e573d6000803e3d6000fd5b505050506040513d601f19601f82011682018060405250810190610a9291906176bd565b90507fffffffffffffffffffffffffffffffffffffffffffffffffffffffffffffffff8114610b8b577f000000000000000000000000000000000000000000000000000000000000000073ffffffffffffffffffffffffffffffffffffffff1663e1f21c67887f00000000000000000000000000000000000000000000000000000000000000007fffffffffffffffffffffffffffffffffffffffffffffffffffffffffffffffff6040518463ffffffff1660e01b8152600401610b5893929190618125565b600060405180830381600087803b158015610b7257600080fd5b505af1158015610b86573d6000803e3d6000fd5b505050505b5060016097819055505050505050505050565b60026097541415610c17576040517f08c379a000000000000000000000000000000000000000000000000000000000815260040180806020018281038252601f8152602001807f5265656e7472616e637947756172643a207265656e7472616e742063616c6c0081525060200191505060405180910390fd5b60026097819055506000610c2b82336133c4565b90506000811415610c71576040517f08c379a0000000000000000000000000000000000000000000000000000000008152600401610c689061842c565b60405180910390fd5b50600160978190555050565b60026097541415610cf6576040517f08c379a000000000000000000000000000000000000000000000000000000000815260040180806020018281038252601f8152602001807f5265656e7472616e637947756172643a207265656e7472616e742063616c6c0081525060200191505060405180910390fd5b6002609781905550610d09816000613617565b600160978190555050565b606060678054600181600116156101000203166002900480601f016020809104026020016040519081016040528092919081815260200182805460018160011615610100020316600290048015610dac5780601f10610d8157610100808354040283529160200191610dac565b820191906000526020600020905b815481529060010190602001808311610d8f57829003601f168201915b50505050509050919050565b60026097541415610e31576040517f08c379a000000000000000000000000000000000000000000000000000000000815260040180806020018281038252601f8152602001807f5265656e7472616e637947756172643a207265656e7472616e742063616c6c0081525060200191505060405180910390fd5b60026097819055506000610e4533836105da565b90506000811415610e8b576040517f08c379a0000000000000000000000000000000000000000000000000000000008152600401610e82906184ac565b60405180910390fd5b610e958282613e6f565b50600160978190555050565b7f000000000000000000000000000000000000000000000000000000000000000073ffffffffffffffffffffffffffffffffffffffff163373ffffffffffffffffffffffffffffffffffffffff1614610f2f576040517f08c379a0000000000000000000000000000000000000000000000000000000008152600401610f26906182cc565b60405180910390fd5b60c960008281526020019081526020016000206000016000905550565b60ca6020528060005260406000206000915090508060010154908060020154908060030154908060040154908060050154905085565b60026097541415610ffb576040517f08c379a000000000000000000000000000000000000000000000000000000000815260040180806020018281038252601f8152602001807f5265656e7472616e637947756172643a207265656e7472616e742063616c6c0081525060200191505060405180910390fd5b6002609781905550600061100f33846105da565b90506000811415611055576040517f08c379a000000000000000000000000000000000000000000000000000000000815260040161104c9061848c565b60405180910390fd5b6000807f000000000000000000000000000000000000000000000000000000000000000073ffffffffffffffffffffffffffffffffffffffff1663415f1240866040518263ffffffff1660e01b81526004016110b19190618507565b6040805180830381600087803b1580156110ca57600080fd5b505af11580156110de573d6000803e3d6000fd5b505050506040513d601f19601f820116820180604052508101906111029190617571565b915091508160c9600087815260200190815260200160002060020160006101000a81548173ffffffffffffffffffffffffffffffffffffffff021916908373ffffffffffffffffffffffffffffffffffffffff1602179055508060ca600087815260200190815260200160002060050181905550847fa7c1efbe8c264edbfd86d7edf1a6b82896995680f966de445fc3b6e0531bf41a826040516111a69190618507565b60405180910390a283156111bf576111be8584613e6f565b5b50505060016097819055505050565b8151835114611228576040517f08c379a0000000000000000000000000000000000000000000000000000000008152600401808060200182810382526028815260200180618c656028913960400191505060405180910390fd5b600073ffffffffffffffffffffffffffffffffffffffff168473ffffffffffffffffffffffffffffffffffffffff1614156112ae576040517f08c379a0000000000000000000000000000000000000000000000000000000008152600401808060200182810382526025815260200180618af66025913960400191505060405180910390fd5b6112b661404f565b73ffffffffffffffffffffffffffffffffffffffff168573ffffffffffffffffffffffffffffffffffffffff1614806112fc57506112fb856112f661404f565b612ddd565b5b611351576040517f08c379a0000000000000000000000000000000000000000000000000000000008152600401808060200182810382526032815260200180618b1b6032913960400191505060405180910390fd5b600061135b61404f565b905061136b818787878787614057565b60005b845181101561153c57600085828151811061138557fe5b60200260200101519050600085838151811061139d57fe5b60200260200101519050611424816040518060600160405280602a8152602001618b9e602a91396065600086815260200190815260200160002060008d73ffffffffffffffffffffffffffffffffffffffff1673ffffffffffffffffffffffffffffffffffffffff168152602001908152602001600020546145519092919063ffffffff16565b6065600084815260200190815260200160002060008b73ffffffffffffffffffffffffffffffffffffffff1673ffffffffffffffffffffffffffffffffffffffff168152602001908152602001600020819055506114db816065600085815260200190815260200160002060008b73ffffffffffffffffffffffffffffffffffffffff1673ffffffffffffffffffffffffffffffffffffffff1681526020019081526020016000205461460b90919063ffffffff16565b6065600084815260200190815260200160002060008a73ffffffffffffffffffffffffffffffffffffffff1673ffffffffffffffffffffffffffffffffffffffff16815260200190815260200160002081905550505080600101905061136e565b508473ffffffffffffffffffffffffffffffffffffffff168673ffffffffffffffffffffffffffffffffffffffff168273ffffffffffffffffffffffffffffffffffffffff167f4a39dc06d4c0dbc64b70af90fd698a233a518aa5d07e595d983b8c0526c8f7fb8787604051808060200180602001838103835285818151815260200191508051906020019060200280838360005b838110156115ec5780820151818401526020810190506115d1565b50505050905001838103825284818151815260200191508051906020019060200280838360005b8381101561162e578082015181840152602081019050611613565b5050505090500194505050505060405180910390a4611651818787878787614693565b505050505050565b611661617045565b60ca600084815260200190815260200160002060000160008373ffffffffffffffffffffffffffffffffffffffff1673ffffffffffffffffffffffffffffffffffffffff16815260200190815260200160002060405180604001604052908160008201548152602001600182015481525050905092915050565b60c96020528060005260406000206000915090508060000154908060010160009054906101000a900473ffffffffffffffffffffffffffffffffffffffff16908060020160009054906101000a900473ffffffffffffffffffffffffffffffffffffffff16908060030154908060040154908060050160009054906101000a900473ffffffffffffffffffffffffffffffffffffffff16908060060160009054906101000a900473ffffffffffffffffffffffffffffffffffffffff16908060060160149054906101000a900460ff16905088565b6060815183511461180c576040517f08c379a0000000000000000000000000000000000000000000000000000000008152600401808060200182810382526029815260200180618c3c6029913960400191505060405180910390fd5b6000835167ffffffffffffffff8111801561182657600080fd5b506040519080825280602002602001820160405280156118555781602001602082028036833780820191505090505b50905060005b84518110156118b75761189485828151811061187357fe5b602002602001015185838151811061188757fe5b60200260200101516105da565b8282815181106118a057fe5b60200260200101818152505080600101905061185b565b508091505092915050565b7f000000000000000000000000000000000000000000000000000000000000000081565b7f000000000000000000000000000000000000000000000000000000000000000081565b600060019054906101000a900460ff16806119295750611928614a22565b5b8061193f575060008054906101000a900460ff16155b611994576040517f08c379a000000000000000000000000000000000000000000000000000000000815260040180806020018281038252602e815260200180618b4d602e913960400191505060405180910390fd5b60008060019054906101000a900460ff1615905080156119e4576001600060016101000a81548160ff02191690831515021790555060016000806101000a81548160ff0219169083151502179055505b6119ec614a33565b611a2a6040518060400160405280600381526020017f5552490000000000000000000000000000000000000000000000000000000000815250614b39565b8015611a4b5760008060016101000a81548160ff0219169083151502179055505b50565b60026097541415611ac7576040517f08c379a000000000000000000000000000000000000000000000000000000000815260040180806020018281038252601f8152602001807f5265656e7472616e637947756172643a207265656e7472616e742063616c6c0081525060200191505060405180910390fd5b60026097819055506000811415611b13576040517f08c379a0000000000000000000000000000000000000000000000000000000008152600401611b0a906184cc565b60405180910390fd5b7f000000000000000000000000000000000000000000000000000000000000000073ffffffffffffffffffffffffffffffffffffffff166302d43dc83360c9600086815260200190815260200160002060050160009054906101000a900473ffffffffffffffffffffffffffffffffffffffff166040518363ffffffff1660e01b8152600401611ba4929190617fb1565b60206040518083038186803b158015611bbc57600080fd5b505afa158015611bd0573d6000803e3d6000fd5b505050506040513d601f19601f82011682018060405250810190611bf49190617619565b611c33576040517f08c379a0000000000000000000000000000000000000000000000000000000008152600401611c2a9061840c565b60405180910390fd5b60c96000838152602001908152602001600020600001544210611c8b576040517f08c379a0000000000000000000000000000000000000000000000000000000008152600401611c829061834c565b60405180910390fd5b600060cb6000848152602001908152602001600020549050600060c96000858152602001908152602001600020600301549050818111611d00576040517f08c379a0000000000000000000000000000000000000000000000000000000008152600401611cf79061832c565b60405180910390fd5b600083905081611d19858561333c90919063ffffffff16565b1115611d3557611d328383614c5190919063ffffffff16565b90505b600060c9600087815260200190815260200160002060010160009054906101000a900473ffffffffffffffffffffffffffffffffffffffff169050611d9d3330848473ffffffffffffffffffffffffffffffffffffffff16614cd4909392919063ffffffff16565b611db833878460405180602001604052806000815250614d95565b3373ffffffffffffffffffffffffffffffffffffffff16867fbc00f64d7f7fdd45626f23c5b8bfa1c1b8e64faf4200efb7da5a7439a326f95584604051611dff9190618507565b60405180910390a35050505060016097819055505050565b60026097541415611e90576040517f08c379a000000000000000000000000000000000000000000000000000000000815260040180806020018281038252601f8152602001807f5265656e7472616e637947756172643a207265656e7472616e742063616c6c0081525060200191505060405180910390fd5b60026097819055507f000000000000000000000000000000000000000000000000000000000000000073ffffffffffffffffffffffffffffffffffffffff163373ffffffffffffffffffffffffffffffffffffffff1614611f26576040517f08c379a0000000000000000000000000000000000000000000000000000000008152600401611f1d906182cc565b60405180910390fd5b611f4f8260ca60008681526020019081526020016000206001015461333c90919063ffffffff16565b60ca600085815260200190815260200160002060010181905550611f928160ca60008681526020019081526020016000206002015461333c90919063ffffffff16565b60ca6000858152602001908152602001600020600201819055506001609781905550505050565b60026097541415612032576040517f08c379a000000000000000000000000000000000000000000000000000000000815260040180806020018281038252601f8152602001807f5265656e7472616e637947756172643a207265656e7472616e742063616c6c0081525060200191505060405180910390fd5b6002609781905550600060c960008381526020019081526020016000206000015490506000811415612099576040517f08c379a00000000000000000000000000000000000000000000000000000000081526004016120909061846c565b60405180910390fd5b804210156120dc576040517f08c379a00000000000000000000000000000000000000000000000000000000081526004016120d3906183ac565b60405180910390fd5b7f000000000000000000000000000000000000000000000000000000000000000073ffffffffffffffffffffffffffffffffffffffff1663ad724fa6836040518263ffffffff1660e01b81526004016121359190618507565b60206040518083038186803b15801561214d57600080fd5b505afa158015612161573d6000803e3d6000fd5b505050506040513d601f19601f8201168201806040525081019061218591906176bd565b42106121c6576040517f08c379a00000000000000000000000000000000000000000000000000000000081526004016121bd9061838c565b60405180910390fd5b600060cb600084815260200190815260200160002054905060c9600084815260200190815260200160002060040154811015612237576040517f08c379a000000000000000000000000000000000000000000000000000000000815260040161222e9061836c565b60405180910390fd5b6122418382614f98565b5050600160978190555050565b8173ffffffffffffffffffffffffffffffffffffffff1661226d61404f565b73ffffffffffffffffffffffffffffffffffffffff1614156122da576040517f08c379a0000000000000000000000000000000000000000000000000000000008152600401808060200182810382526029815260200180618be96029913960400191505060405180910390fd5b80606660006122e761404f565b73ffffffffffffffffffffffffffffffffffffffff1673ffffffffffffffffffffffffffffffffffffffff16815260200190815260200160002060008473ffffffffffffffffffffffffffffffffffffffff1673ffffffffffffffffffffffffffffffffffffffff16815260200190815260200160002060006101000a81548160ff0219169083151502179055508173ffffffffffffffffffffffffffffffffffffffff1661239461404f565b73ffffffffffffffffffffffffffffffffffffffff167f17307eab39ab6107e8899845ad3d59bd9653f200f220920489ca2b5937696c318360405180821515815260200191505060405180910390a35050565b6000807f000000000000000000000000000000000000000000000000000000000000000073ffffffffffffffffffffffffffffffffffffffff16634089c7e3856040518263ffffffff1660e01b81526004016124439190618507565b602060405180830381600087803b15801561245d57600080fd5b505af1158015612471573d6000803e3d6000fd5b505050506040513d601f19601f82011682018060405250810190612495919061766b565b9050600360068111156124a457fe5b8160068111156124b057fe5b14806124d25750600560068111156124c457fe5b8160068111156124d057fe5b145b156124e9576124e184846151e8565b915050612649565b6006808111156124f557fe5b81600681111561250157fe5b148061262c57506001600681111561251557fe5b81600681111561252157fe5b14801561262b575060c96000858152602001908152602001600020600001544210158015612577575060c960008581526020019081526020016000206004015460cb600086815260200190815260200160002054105b8061262a57507f000000000000000000000000000000000000000000000000000000000000000073ffffffffffffffffffffffffffffffffffffffff1663ad724fa6856040518263ffffffff1660e01b81526004016125d69190618507565b60206040518083038186803b1580156125ee57600080fd5b505afa158015612602573d6000803e3d6000fd5b505050506040513d601f19601f8201168201806040525081019061262691906176bd565b4210155b5b5b156126435761263b83856105da565b915050612649565b60009150505b92915050565b60cb6020528060005260406000206000915090505481565b7f000000000000000000000000000000000000000000000000000000000000000081565b60026097541415612704576040517f08c379a000000000000000000000000000000000000000000000000000000000815260040180806020018281038252601f8152602001807f5265656e7472616e637947756172643a207265656e7472616e742063616c6c0081525060200191505060405180910390fd5b60026097819055507f000000000000000000000000000000000000000000000000000000000000000073ffffffffffffffffffffffffffffffffffffffff163373ffffffffffffffffffffffffffffffffffffffff161461279a576040517f08c379a0000000000000000000000000000000000000000000000000000000008152600401612791906182cc565b60405180910390fd5b600060c9600084815260200190815260200160002060060160009054906101000a900473ffffffffffffffffffffffffffffffffffffffff169050600060c9600085815260200190815260200160002060010160009054906101000a900473ffffffffffffffffffffffffffffffffffffffff169050600060c9600086815260200190815260200160002060030154905060006128e87f000000000000000000000000000000000000000000000000000000000000000073ffffffffffffffffffffffffffffffffffffffff1663da4779e0886040518263ffffffff1660e01b81526004016128899190618507565b60206040518083038186803b1580156128a157600080fd5b505afa1580156128b5573d6000803e3d6000fd5b505050506040513d601f19601f820116820180604052508101906128d991906176bd565b83614c5190919063ffffffff16565b905060008473ffffffffffffffffffffffffffffffffffffffff1663934a525283866040518363ffffffff1660e01b8152600401612927929190618522565b602060405180830381600087803b15801561294157600080fd5b505af1158015612955573d6000803e3d6000fd5b505050506040513d601f19601f8201168201806040525081019061297991906176bd565b9050600060ca600089815260200190815260200160002060010154905060008114612aca5760006129b38383614c5190919063ffffffff16565b905060006129ef866129e160cb60008e8152602001908152602001600020548761530190919063ffffffff16565b61538790919063ffffffff16565b90506000612a06838361333c90919063ffffffff16565b905060008114612ac6577f000000000000000000000000000000000000000000000000000000000000000073ffffffffffffffffffffffffffffffffffffffff16635da8bf5a898b8d8560006040518663ffffffff1660e01b8152600401612a729594939291906180d2565b602060405180830381600087803b158015612a8c57600080fd5b505af1158015612aa0573d6000803e3d6000fd5b505050506040513d601f19601f82011682018060405250810190612ac491906176bd565b505b5050505b600060ca60008a815260200190815260200160002060050154905060008114612b4f57612b4e888260c960008d815260200190815260200160002060020160009054906101000a900473ffffffffffffffffffffffffffffffffffffffff1673ffffffffffffffffffffffffffffffffffffffff166154109092919063ffffffff16565b5b60c960008a81526020019081526020016000206000808201600090556001820160006101000a81549073ffffffffffffffffffffffffffffffffffffffff02191690556002820160006101000a81549073ffffffffffffffffffffffffffffffffffffffff0219169055600382016000905560048201600090556005820160006101000a81549073ffffffffffffffffffffffffffffffffffffffff02191690556006820160006101000a81549073ffffffffffffffffffffffffffffffffffffffff02191690556006820160146101000a81549060ff0219169055505060ca60008a815260200190815260200160002060006001820160009055600282016000905560038201600090556004820160009055600582016000905550505050505050505060016097819055505050565b60026097541415612cf8576040517f08c379a000000000000000000000000000000000000000000000000000000000815260040180806020018281038252601f8152602001807f5265656e7472616e637947756172643a207265656e7472616e742063616c6c0081525060200191505060405180910390fd5b60026097819055507f000000000000000000000000000000000000000000000000000000000000000073ffffffffffffffffffffffffffffffffffffffff163373ffffffffffffffffffffffffffffffffffffffff1614612d8e576040517f08c379a0000000000000000000000000000000000000000000000000000000008152600401612d85906182cc565b60405180910390fd5b612db78160ca600085815260200190815260200160002060010154614c5190919063ffffffff16565b60ca60008481526020019081526020016000206001018190555060016097819055505050565b6000606660008473ffffffffffffffffffffffffffffffffffffffff1673ffffffffffffffffffffffffffffffffffffffff16815260200190815260200160002060008373ffffffffffffffffffffffffffffffffffffffff1673ffffffffffffffffffffffffffffffffffffffff16815260200190815260200160002060009054906101000a900460ff16905092915050565b600073ffffffffffffffffffffffffffffffffffffffff168473ffffffffffffffffffffffffffffffffffffffff161415612ef7576040517f08c379a0000000000000000000000000000000000000000000000000000000008152600401808060200182810382526025815260200180618af66025913960400191505060405180910390fd5b612eff61404f565b73ffffffffffffffffffffffffffffffffffffffff168573ffffffffffffffffffffffffffffffffffffffff161480612f455750612f4485612f3f61404f565b612ddd565b5b612f9a576040517f08c379a0000000000000000000000000000000000000000000000000000000008152600401808060200182810382526029815260200180618aa76029913960400191505060405180910390fd5b6000612fa461404f565b9050612fc4818787612fb5886154b2565b612fbe886154b2565b87614057565b613041836040518060600160405280602a8152602001618b9e602a91396065600088815260200190815260200160002060008a73ffffffffffffffffffffffffffffffffffffffff1673ffffffffffffffffffffffffffffffffffffffff168152602001908152602001600020546145519092919063ffffffff16565b6065600086815260200190815260200160002060008873ffffffffffffffffffffffffffffffffffffffff1673ffffffffffffffffffffffffffffffffffffffff168152602001908152602001600020819055506130f8836065600087815260200190815260200160002060008873ffffffffffffffffffffffffffffffffffffffff1673ffffffffffffffffffffffffffffffffffffffff1681526020019081526020016000205461460b90919063ffffffff16565b6065600086815260200190815260200160002060008773ffffffffffffffffffffffffffffffffffffffff1673ffffffffffffffffffffffffffffffffffffffff168152602001908152602001600020819055508473ffffffffffffffffffffffffffffffffffffffff168673ffffffffffffffffffffffffffffffffffffffff168273ffffffffffffffffffffffffffffffffffffffff167fc3d58168c5ae7397731d063d5bbf3d657854427343f4c083240f7aacaa2d0f628787604051808381526020018281526020019250505060405180910390a46131de818787878787615523565b505050505050565b60008060c9600085815260200190815260200160002060060160009054906101000a900473ffffffffffffffffffffffffffffffffffffffff169050600060c9600086815260200190815260200160002060010160009054906101000a900473ffffffffffffffffffffffffffffffffffffffff16905060008061328d878786866132718b8d6105da565b60c960008e815260200190815260200160002060030154615830565b915091508373ffffffffffffffffffffffffffffffffffffffff166359846d296132c0838561333c90919063ffffffff16565b856040518363ffffffff1660e01b81526004016132de929190618522565b602060405180830381600087803b1580156132f857600080fd5b505af115801561330c573d6000803e3d6000fd5b505050506040513d601f19601f8201168201806040525081019061333091906176bd565b94505050505092915050565b6000808284019050838110156133ba576040517f08c379a000000000000000000000000000000000000000000000000000000000815260040180806020018281038252601b8152602001807f536166654d6174683a206164646974696f6e206f766572666c6f77000000000081525060200191505060405180910390fd5b8091505092915050565b60008060c9600085815260200190815260200160002060060160009054906101000a900473ffffffffffffffffffffffffffffffffffffffff169050600060c9600086815260200190815260200160002060010160009054906101000a900473ffffffffffffffffffffffffffffffffffffffff169050600073ffffffffffffffffffffffffffffffffffffffff168273ffffffffffffffffffffffffffffffffffffffff1614156134ab576040517f08c379a00000000000000000000000000000000000000000000000000000000081526004016134a29061828c565b60405180910390fd5b60006134b986868585615b90565b90506000811461360b576134ec8160ca600089815260200190815260200160002060010154614c5190919063ffffffff16565b60ca6000888152602001908152602001600020600101819055507f000000000000000000000000000000000000000000000000000000000000000073ffffffffffffffffffffffffffffffffffffffff16635da8bf5a8385888560006040518663ffffffff1660e01b81526004016135689594939291906180d2565b602060405180830381600087803b15801561358257600080fd5b505af1158015613596573d6000803e3d6000fd5b505050506040513d601f19601f820116820180604052508101906135ba91906176bd565b508473ffffffffffffffffffffffffffffffffffffffff16867f387d0e87494328c955a921844efb7a34dabb1d7d47d66ef1fe153dd1be9dc05e836040516136029190618507565b60405180910390a35b80935050505092915050565b600061362333846105da565b90506000811415613669576040517f08c379a00000000000000000000000000000000000000000000000000000000081526004016136609061830c565b60405180910390fd5b60007f000000000000000000000000000000000000000000000000000000000000000073ffffffffffffffffffffffffffffffffffffffff16634089c7e3856040518263ffffffff1660e01b81526004016136c49190618507565b602060405180830381600087803b1580156136de57600080fd5b505af11580156136f2573d6000803e3d6000fd5b505050506040513d601f19601f82011682018060405250810190613716919061766b565b9050600060c9600086815260200190815260200160002060010160009054906101000a900473ffffffffffffffffffffffffffffffffffffffff1690506001600681111561376057fe5b82600681111561376c57fe5b14156139ef5760c960008681526020019081526020016000206000015442101580156137c0575060c960008681526020019081526020016000206004015460cb600087815260200190815260200160002054105b15613855577f000000000000000000000000000000000000000000000000000000000000000073ffffffffffffffffffffffffffffffffffffffff1663667c95ba866040518263ffffffff1660e01b815260040161381e9190618507565b600060405180830381600087803b15801561383857600080fd5b505af115801561384c573d6000803e3d6000fd5b505050506139d0565b7f000000000000000000000000000000000000000000000000000000000000000073ffffffffffffffffffffffffffffffffffffffff1663ad724fa6866040518263ffffffff1660e01b81526004016138ae9190618507565b60206040518083038186803b1580156138c657600080fd5b505afa1580156138da573d6000803e3d6000fd5b505050506040513d601f19601f820116820180604052508101906138fe91906176bd565b4210613994577f000000000000000000000000000000000000000000000000000000000000000073ffffffffffffffffffffffffffffffffffffffff1663919c1c8a866040518263ffffffff1660e01b815260040161395d9190618507565b600060405180830381600087803b15801561397757600080fd5b505af115801561398b573d6000803e3d6000fd5b505050506139cf565b6040517f08c379a00000000000000000000000000000000000000000000000000000000081526004016139c6906182ec565b60405180910390fd5b5b6006915060c96000868152602001908152602001600020600001600090555b6006808111156139fb57fe5b826006811115613a0757fe5b1415613a8c57613a3833848373ffffffffffffffffffffffffffffffffffffffff166154109092919063ffffffff16565b3373ffffffffffffffffffffffffffffffffffffffff16857f6b9c2a7483ae4358d77f880c6ec4ad3085a7fac095ad580ed943e061ddd7cd5785604051613a7f9190618507565b60405180910390a3613e5d565b60036006811115613a9957fe5b826006811115613aa557fe5b1480613ac7575060056006811115613ab957fe5b826006811115613ac557fe5b145b15613e215760056006811115613ad957fe5b826006811115613ae557fe5b1415613b2c5783613b2b576040517f08c379a0000000000000000000000000000000000000000000000000000000008152600401613b229061822c565b60405180910390fd5b5b600060c9600087815260200190815260200160002060060160009054906101000a900473ffffffffffffffffffffffffffffffffffffffff1690506000613b7387336151e8565b90506000613b8388338587615b90565b90506000808214613c61578373ffffffffffffffffffffffffffffffffffffffff166359846d2983876040518363ffffffff1660e01b8152600401613bc9929190618522565b602060405180830381600087803b158015613be357600080fd5b505af1158015613bf7573d6000803e3d6000fd5b505050506040513d601f19601f82011682018060405250810190613c1b91906176bd565b9050613c468260ca60008c815260200190815260200160002060010154614c5190919063ffffffff16565b60ca60008b8152602001908152602001600020600101819055505b6000613c76828561333c90919063ffffffff16565b905060008573ffffffffffffffffffffffffffffffffffffffff1663934a525283896040518363ffffffff1660e01b8152600401613cb5929190618522565b602060405180830381600087803b158015613ccf57600080fd5b505af1158015613ce3573d6000803e3d6000fd5b505050506040513d601f19601f82011682018060405250810190613d0791906176bd565b905060008114613dc7577f000000000000000000000000000000000000000000000000000000000000000073ffffffffffffffffffffffffffffffffffffffff16635da8bf5a8888338560006040518663ffffffff1660e01b8152600401613d7395949392919061803a565b602060405180830381600087803b158015613d8d57600080fd5b505af1158015613da1573d6000803e3d6000fd5b505050506040513d601f19601f82011682018060405250810190613dc591906176bd565b505b3373ffffffffffffffffffffffffffffffffffffffff168b7f3e3514548a594824d39252134c27058b004c3e820827750771666eb2b15dae0e83604051613e0e9190618507565b60405180910390a3505050505050613e5c565b6040517f08c379a0000000000000000000000000000000000000000000000000000000008152600401613e53906182ec565b60405180910390fd5b5b613e68338685615e22565b5050505050565b600060c9600084815260200190815260200160002060020160009054906101000a900473ffffffffffffffffffffffffffffffffffffffff169050600073ffffffffffffffffffffffffffffffffffffffff168173ffffffffffffffffffffffffffffffffffffffff161415613f1a576040517f08c379a0000000000000000000000000000000000000000000000000000000008152600401613f119061824c565b60405180910390fd5b600060ca6000858152602001908152602001600020600501549050600060cb60008681526020019081526020016000205490506000613f7482613f66858861530190919063ffffffff16565b61538790919063ffffffff16565b90506000811461403c57613fa78160ca600089815260200190815260200160002060050154614c5190919063ffffffff16565b60ca600088815260200190815260200160002060050181905550613fec33828673ffffffffffffffffffffffffffffffffffffffff166154109092919063ffffffff16565b3373ffffffffffffffffffffffffffffffffffffffff16867fdd39255443c552d977e00b18093eb1f46c9403c1d1c3c48dca183cd8cb791529836040516140339190618507565b60405180910390a35b614047866001613617565b505050505050565b600033905090565b8373ffffffffffffffffffffffffffffffffffffffff168573ffffffffffffffffffffffffffffffffffffffff1614156140c6576040517f08c379a00000000000000000000000000000000000000000000000000000000081526004016140bd906183cc565b60405180910390fd5b60005b83518110156145485760008482815181106140e057fe5b60200260200101519050600073ffffffffffffffffffffffffffffffffffffffff168673ffffffffffffffffffffffffffffffffffffffff1614614356577f000000000000000000000000000000000000000000000000000000000000000073ffffffffffffffffffffffffffffffffffffffff1663d58ed1dc826040518263ffffffff1660e01b81526004016141779190618507565b60206040518083038186803b15801561418f57600080fd5b505afa1580156141a3573d6000803e3d6000fd5b505050506040513d601f19601f820116820180604052508101906141c79190617346565b73ffffffffffffffffffffffffffffffffffffffff168673ffffffffffffffffffffffffffffffffffffffff161415614235576040517f08c379a000000000000000000000000000000000000000000000000000000000815260040161422c9061844c565b60405180910390fd5b7f000000000000000000000000000000000000000000000000000000000000000073ffffffffffffffffffffffffffffffffffffffff166302d43dc88760c9600085815260200190815260200160002060050160009054906101000a900473ffffffffffffffffffffffffffffffffffffffff166040518363ffffffff1660e01b81526004016142c6929190617fda565b60206040518083038186803b1580156142de57600080fd5b505afa1580156142f2573d6000803e3d6000fd5b505050506040513d601f19601f820116820180604052508101906143169190617619565b614355576040517f08c379a000000000000000000000000000000000000000000000000000000000815260040161434c9061820c565b60405180910390fd5b5b600084838151811061436457fe5b60200260200101519050600073ffffffffffffffffffffffffffffffffffffffff168873ffffffffffffffffffffffffffffffffffffffff1614156143e5576143c98160cb60008581526020019081526020016000205461333c90919063ffffffff16565b60cb6000848152602001908152602001600020819055506144fa565b600073ffffffffffffffffffffffffffffffffffffffff168773ffffffffffffffffffffffffffffffffffffffff16141561449557600060cb600084815260200190815260200160002054905081811015614475576040517f08c379a000000000000000000000000000000000000000000000000000000000815260040161446c906182ac565b60405180910390fd5b81810360cb600085815260200190815260200160002081905550506144f9565b60c9600083815260200190815260200160002060060160149054906101000a900460ff166144f8576040517f08c379a00000000000000000000000000000000000000000000000000000000081526004016144ef906183ec565b60405180910390fd5b5b5b600073ffffffffffffffffffffffffffffffffffffffff168873ffffffffffffffffffffffffffffffffffffffff161461453b5761453a82828a8a61603e565b5b50508060010190506140c9565b50505050505050565b60008383111582906145fe576040517f08c379a00000000000000000000000000000000000000000000000000000000081526004018080602001828103825283818151815260200191508051906020019080838360005b838110156145c35780820151818401526020810190506145a8565b50505050905090810190601f1680156145f05780820380516001836020036101000a031916815260200191505b509250505060405180910390fd5b5082840390509392505050565b600080828401905083811015614689576040517f08c379a000000000000000000000000000000000000000000000000000000000815260040180806020018281038252601b8152602001807f536166654d6174683a206164646974696f6e206f766572666c6f77000000000081525060200191505060405180910390fd5b8091505092915050565b6146b28473ffffffffffffffffffffffffffffffffffffffff16616582565b15614a1a578373ffffffffffffffffffffffffffffffffffffffff1663bc197c8187878686866040518663ffffffff1660e01b8152600401808673ffffffffffffffffffffffffffffffffffffffff1681526020018573ffffffffffffffffffffffffffffffffffffffff168152602001806020018060200180602001848103845287818151815260200191508051906020019060200280838360005b8381101561476a57808201518184015260208101905061474f565b50505050905001848103835286818151815260200191508051906020019060200280838360005b838110156147ac578082015181840152602081019050614791565b50505050905001848103825285818151815260200191508051906020019080838360005b838110156147eb5780820151818401526020810190506147d0565b50505050905090810190601f1680156148185780820380516001836020036101000a031916815260200191505b5098505050505050505050602060405180830381600087803b15801561483d57600080fd5b505af192505050801561487157506040513d602081101561485d57600080fd5b810190808051906020019092919050505060015b61497b5761487d6188d9565b80614888575061492a565b806040517f08c379a00000000000000000000000000000000000000000000000000000000081526004018080602001828103825283818151815260200191508051906020019080838360005b838110156148ef5780820151818401526020810190506148d4565b50505050905090810190601f16801561491c5780820380516001836020036101000a031916815260200191505b509250505060405180910390fd5b6040517f08c379a00000000000000000000000000000000000000000000000000000000081526004018080602001828103825260348152602001806189fc6034913960400191505060405180910390fd5b63bc197c8160e01b7bffffffffffffffffffffffffffffffffffffffffffffffffffffffff1916817bffffffffffffffffffffffffffffffffffffffffffffffffffffffff191614614a18576040517f08c379a0000000000000000000000000000000000000000000000000000000008152600401808060200182810382526028815260200180618a306028913960400191505060405180910390fd5b505b505050505050565b6000614a2d30616582565b15905090565b600060019054906101000a900460ff1680614a525750614a51614a22565b5b80614a68575060008054906101000a900460ff16155b614abd576040517f08c379a000000000000000000000000000000000000000000000000000000000815260040180806020018281038252602e815260200180618b4d602e913960400191505060405180910390fd5b60008060019054906101000a900460ff161590508015614b0d576001600060016101000a81548160ff02191690831515021790555060016000806101000a81548160ff0219169083151502179055505b614b15616595565b8015614b365760008060016101000a81548160ff0219169083151502179055505b50565b600060019054906101000a900460ff1680614b585750614b57614a22565b5b80614b6e575060008054906101000a900460ff16155b614bc3576040517f08c379a000000000000000000000000000000000000000000000000000000000815260040180806020018281038252602e815260200180618b4d602e913960400191505060405180910390fd5b60008060019054906101000a900460ff161590508015614c13576001600060016101000a81548160ff02191690831515021790555060016000806101000a81548160ff0219169083151502179055505b614c1b61669b565b614c23616799565b614c2c826168a7565b8015614c4d5760008060016101000a81548160ff0219169083151502179055505b5050565b600082821115614cc9576040517f08c379a000000000000000000000000000000000000000000000000000000000815260040180806020018281038252601e8152602001807f536166654d6174683a207375627472616374696f6e206f766572666c6f77000081525060200191505060405180910390fd5b818303905092915050565b614d8f846323b872dd60e01b858585604051602401808473ffffffffffffffffffffffffffffffffffffffff1681526020018373ffffffffffffffffffffffffffffffffffffffff1681526020018281526020019350505050604051602081830303815290604052907bffffffffffffffffffffffffffffffffffffffffffffffffffffffff19166020820180517bffffffffffffffffffffffffffffffffffffffffffffffffffffffff83818316178352505050506169cf565b50505050565b600073ffffffffffffffffffffffffffffffffffffffff168473ffffffffffffffffffffffffffffffffffffffff161415614e1b576040517f08c379a0000000000000000000000000000000000000000000000000000000008152600401808060200182810382526021815260200180618c8d6021913960400191505060405180910390fd5b6000614e2561404f565b9050614e4681600087614e37886154b2565b614e40886154b2565b87614057565b614ea9836065600087815260200190815260200160002060008873ffffffffffffffffffffffffffffffffffffffff1673ffffffffffffffffffffffffffffffffffffffff1681526020019081526020016000205461460b90919063ffffffff16565b6065600086815260200190815260200160002060008773ffffffffffffffffffffffffffffffffffffffff1673ffffffffffffffffffffffffffffffffffffffff168152602001908152602001600020819055508473ffffffffffffffffffffffffffffffffffffffff16600073ffffffffffffffffffffffffffffffffffffffff168273ffffffffffffffffffffffffffffffffffffffff167fc3d58168c5ae7397731d063d5bbf3d657854427343f4c083240f7aacaa2d0f628787604051808381526020018281526020019250505060405180910390a4614f9181600087878787615523565b5050505050565b600060c9600084815260200190815260200160002060010160009054906101000a900473ffffffffffffffffffffffffffffffffffffffff169050600060c9600085815260200190815260200160002060060160009054906101000a900473ffffffffffffffffffffffffffffffffffffffff16905061503981848473ffffffffffffffffffffffffffffffffffffffff16616abe9092919063ffffffff16565b7f000000000000000000000000000000000000000000000000000000000000000073ffffffffffffffffffffffffffffffffffffffff16630284c3f5838330876040518563ffffffff1660e01b8152600401615098949392919061808d565b602060405180830381600087803b1580156150b257600080fd5b505af11580156150c6573d6000803e3d6000fd5b505050506040513d601f19601f820116820180604052508101906150ea91906176bd565b60ca6000868152602001908152602001600020600101819055507f000000000000000000000000000000000000000000000000000000000000000073ffffffffffffffffffffffffffffffffffffffff16635a76c6968585336040518463ffffffff1660e01b8152600401615161939291906185c9565b600060405180830381600087803b15801561517b57600080fd5b505af115801561518f573d6000803e3d6000fd5b505050508260c960008681526020019081526020016000206003018190555060c960008581526020019081526020016000206000016000905560c960008581526020019081526020016000206004016000905550505050565b60008060c9600085815260200190815260200160002060030154905060006152c17f000000000000000000000000000000000000000000000000000000000000000073ffffffffffffffffffffffffffffffffffffffff1663da4779e0876040518263ffffffff1660e01b81526004016152629190618507565b60206040518083038186803b15801561527a57600080fd5b505afa15801561528e573d6000803e3d6000fd5b505050506040513d601f19601f820116820180604052508101906152b291906176bd565b83614c5190919063ffffffff16565b905060006152f3836152e56152d6888a6105da565b8561530190919063ffffffff16565b61538790919063ffffffff16565b905080935050505092915050565b6000808314156153145760009050615381565b600082840290508284828161532557fe5b041461537c576040517f08c379a0000000000000000000000000000000000000000000000000000000008152600401808060200182810382526021815260200180618bc86021913960400191505060405180910390fd5b809150505b92915050565b60008082116153fe576040517f08c379a000000000000000000000000000000000000000000000000000000000815260040180806020018281038252601a8152602001807f536166654d6174683a206469766973696f6e206279207a65726f00000000000081525060200191505060405180910390fd5b81838161540757fe5b04905092915050565b6154ad8363a9059cbb60e01b8484604051602401808373ffffffffffffffffffffffffffffffffffffffff16815260200182815260200192505050604051602081830303815290604052907bffffffffffffffffffffffffffffffffffffffffffffffffffffffff19166020820180517bffffffffffffffffffffffffffffffffffffffffffffffffffffffff83818316178352505050506169cf565b505050565b60606000600167ffffffffffffffff811180156154ce57600080fd5b506040519080825280602002602001820160405280156154fd5781602001602082028036833780820191505090505b509050828160008151811061550e57fe5b60200260200101818152505080915050919050565b6155428473ffffffffffffffffffffffffffffffffffffffff16616582565b15615828578373ffffffffffffffffffffffffffffffffffffffff1663f23a6e6187878686866040518663ffffffff1660e01b8152600401808673ffffffffffffffffffffffffffffffffffffffff1681526020018573ffffffffffffffffffffffffffffffffffffffff16815260200184815260200183815260200180602001828103825283818151815260200191508051906020019080838360005b838110156155fb5780820151818401526020810190506155e0565b50505050905090810190601f1680156156285780820380516001836020036101000a031916815260200191505b509650505050505050602060405180830381600087803b15801561564b57600080fd5b505af192505050801561567f57506040513d602081101561566b57600080fd5b810190808051906020019092919050505060015b6157895761568b6188d9565b806156965750615738565b806040517f08c379a00000000000000000000000000000000000000000000000000000000081526004018080602001828103825283818151815260200191508051906020019080838360005b838110156156fd5780820151818401526020810190506156e2565b50505050905090810190601f16801561572a5780820380516001836020036101000a031916815260200191505b509250505060405180910390fd5b6040517f08c379a00000000000000000000000000000000000000000000000000000000081526004018080602001828103825260348152602001806189fc6034913960400191505060405180910390fd5b63f23a6e6160e01b7bffffffffffffffffffffffffffffffffffffffffffffffffffffffff1916817bffffffffffffffffffffffffffffffffffffffffffffffffffffffff191614615826576040517f08c379a0000000000000000000000000000000000000000000000000000000008152600401808060200182810382526028815260200180618a306028913960400191505060405180910390fd5b505b505050505050565b60008060008060ca60008b8152602001908152602001600020600101549050600081141561586657600080935093505050615b85565b60006159237f000000000000000000000000000000000000000000000000000000000000000073ffffffffffffffffffffffffffffffffffffffff1663da4779e08d6040518263ffffffff1660e01b81526004016158c49190618507565b60206040518083038186803b1580156158dc57600080fd5b505afa1580156158f0573d6000803e3d6000fd5b505050506040513d601f19601f8201168201806040525081019061591491906176bd565b87614c5190919063ffffffff16565b905060008973ffffffffffffffffffffffffffffffffffffffff1663934a5252838b6040518363ffffffff1660e01b8152600401615962929190618522565b602060405180830381600087803b15801561597c57600080fd5b505af1158015615990573d6000803e3d6000fd5b505050506040513d601f19601f820116820180604052508101906159b491906176bd565b90506159c98184614c5190919063ffffffff16565b9350505050600060ca60008b8152602001908152602001600020600201549050615a7660ca60008c815260200190815260200160002060000160008b73ffffffffffffffffffffffffffffffffffffffff1673ffffffffffffffffffffffffffffffffffffffff16815260200190815260200160002060000154615a6887615a5a8a8661530190919063ffffffff16565b61538790919063ffffffff16565b614c5190919063ffffffff16565b93506000615aa360ca60008d81526020019081526020016000206003015483614c5190919063ffffffff16565b90506000935080831115615b81576000615aee60ca60008e815260200190815260200160002060040154615ae08487614c5190919063ffffffff16565b61333c90919063ffffffff16565b9050615b7d60ca60008e815260200190815260200160002060000160008d73ffffffffffffffffffffffffffffffffffffffff1673ffffffffffffffffffffffffffffffffffffffff16815260200190815260200160002060010154615b6f89615b618c8661530190919063ffffffff16565b61538790919063ffffffff16565b614c5190919063ffffffff16565b9450505b5050505b965096945050505050565b600080615b9d85876105da565b90506000811415615bb2576000915050615e1a565b600060c96000888152602001908152602001600020600301549050600080615bde898989898888615830565b9150915060008214615cf157615c538260ca60008c815260200190815260200160002060000160008b73ffffffffffffffffffffffffffffffffffffffff1673ffffffffffffffffffffffffffffffffffffffff1681526020019081526020016000206000015461333c90919063ffffffff16565b60ca60008b815260200190815260200160002060000160008a73ffffffffffffffffffffffffffffffffffffffff1673ffffffffffffffffffffffffffffffffffffffff16815260200190815260200160002060000181905550615cd68260ca60008c81526020019081526020016000206003015461333c90919063ffffffff16565b60ca60008b8152602001908152602001600020600301819055505b60008114615e0057615d628160ca60008c815260200190815260200160002060000160008b73ffffffffffffffffffffffffffffffffffffffff1673ffffffffffffffffffffffffffffffffffffffff1681526020019081526020016000206001015461333c90919063ffffffff16565b60ca60008b815260200190815260200160002060000160008a73ffffffffffffffffffffffffffffffffffffffff1673ffffffffffffffffffffffffffffffffffffffff16815260200190815260200160002060010181905550615de58160ca60008c81526020019081526020016000206004015461333c90919063ffffffff16565b60ca60008b8152602001908152602001600020600401819055505b615e13828261333c90919063ffffffff16565b9450505050505b949350505050565b600073ffffffffffffffffffffffffffffffffffffffff168373ffffffffffffffffffffffffffffffffffffffff161415615ea8576040517f08c379a0000000000000000000000000000000000000000000000000000000008152600401808060200182810382526023815260200180618b7b6023913960400191505060405180910390fd5b6000615eb261404f565b9050615ee281856000615ec4876154b2565b615ecd876154b2565b60405180602001604052806000815250614057565b615f5f82604051806060016040528060248152602001618a83602491396065600087815260200190815260200160002060008873ffffffffffffffffffffffffffffffffffffffff1673ffffffffffffffffffffffffffffffffffffffff168152602001908152602001600020546145519092919063ffffffff16565b6065600085815260200190815260200160002060008673ffffffffffffffffffffffffffffffffffffffff1673ffffffffffffffffffffffffffffffffffffffff16815260200190815260200160002081905550600073ffffffffffffffffffffffffffffffffffffffff168473ffffffffffffffffffffffffffffffffffffffff168273ffffffffffffffffffffffffffffffffffffffff167fc3d58168c5ae7397731d063d5bbf3d657854427343f4c083240f7aacaa2d0f628686604051808381526020018281526020019250505060405180910390a450505050565b600073ffffffffffffffffffffffffffffffffffffffff168273ffffffffffffffffffffffffffffffffffffffff16141580156160a85750600073ffffffffffffffffffffffffffffffffffffffff168173ffffffffffffffffffffffffffffffffffffffff1614155b156160c4576160b784836133c4565b506160c284826133c4565b505b60006160d083866105da565b90506000811415616116576040517f08c379a000000000000000000000000000000000000000000000000000000000815260040161610d9061826c565b60405180910390fd5b6000616193826161858760ca60008b815260200190815260200160002060000160008973ffffffffffffffffffffffffffffffffffffffff1673ffffffffffffffffffffffffffffffffffffffff1681526020019081526020016000206001015461530190919063ffffffff16565b61538790919063ffffffff16565b90506000616212836162048860ca60008c815260200190815260200160002060000160008a73ffffffffffffffffffffffffffffffffffffffff1673ffffffffffffffffffffffffffffffffffffffff1681526020019081526020016000206000015461530190919063ffffffff16565b61538790919063ffffffff16565b9050600081146162e0576162858160ca60008a815260200190815260200160002060000160008873ffffffffffffffffffffffffffffffffffffffff1673ffffffffffffffffffffffffffffffffffffffff16815260200190815260200160002060000154614c5190919063ffffffff16565b60ca600089815260200190815260200160002060000160008773ffffffffffffffffffffffffffffffffffffffff1673ffffffffffffffffffffffffffffffffffffffff168152602001908152602001600020600001819055505b600082146163ac576163518260ca60008a815260200190815260200160002060000160008873ffffffffffffffffffffffffffffffffffffffff1673ffffffffffffffffffffffffffffffffffffffff16815260200190815260200160002060010154614c5190919063ffffffff16565b60ca600089815260200190815260200160002060000160008773ffffffffffffffffffffffffffffffffffffffff1673ffffffffffffffffffffffffffffffffffffffff168152602001908152602001600020600101819055505b600073ffffffffffffffffffffffffffffffffffffffff168473ffffffffffffffffffffffffffffffffffffffff161461657957600081146164ac576164518160ca60008a815260200190815260200160002060000160008773ffffffffffffffffffffffffffffffffffffffff1673ffffffffffffffffffffffffffffffffffffffff1681526020019081526020016000206000015461333c90919063ffffffff16565b60ca600089815260200190815260200160002060000160008673ffffffffffffffffffffffffffffffffffffffff1673ffffffffffffffffffffffffffffffffffffffff168152602001908152602001600020600001819055505b600082146165785761651d8260ca60008a815260200190815260200160002060000160008773ffffffffffffffffffffffffffffffffffffffff1673ffffffffffffffffffffffffffffffffffffffff1681526020019081526020016000206001015461333c90919063ffffffff16565b60ca600089815260200190815260200160002060000160008673ffffffffffffffffffffffffffffffffffffffff1673ffffffffffffffffffffffffffffffffffffffff168152602001908152602001600020600101819055505b5b50505050505050565b600080823b905060008111915050919050565b600060019054906101000a900460ff16806165b457506165b3614a22565b5b806165ca575060008054906101000a900460ff16155b61661f576040517f08c379a000000000000000000000000000000000000000000000000000000000815260040180806020018281038252602e815260200180618b4d602e913960400191505060405180910390fd5b60008060019054906101000a900460ff16159050801561666f576001600060016101000a81548160ff02191690831515021790555060016000806101000a81548160ff0219169083151502179055505b600160978190555080156166985760008060016101000a81548160ff0219169083151502179055505b50565b600060019054906101000a900460ff16806166ba57506166b9614a22565b5b806166d0575060008054906101000a900460ff16155b616725576040517f08c379a000000000000000000000000000000000000000000000000000000000815260040180806020018281038252602e815260200180618b4d602e913960400191505060405180910390fd5b60008060019054906101000a900460ff161590508015616775576001600060016101000a81548160ff02191690831515021790555060016000806101000a81548160ff0219169083151502179055505b80156167965760008060016101000a81548160ff0219169083151502179055505b50565b600060019054906101000a900460ff16806167b857506167b7614a22565b5b806167ce575060008054906101000a900460ff16155b616823576040517f08c379a000000000000000000000000000000000000000000000000000000000815260040180806020018281038252602e815260200180618b4d602e913960400191505060405180910390fd5b60008060019054906101000a900460ff161590508015616873576001600060016101000a81548160ff02191690831515021790555060016000806101000a81548160ff0219169083151502179055505b6168836301ffc9a760e01b616c83565b80156168a45760008060016101000a81548160ff0219169083151502179055505b50565b600060019054906101000a900460ff16806168c657506168c5614a22565b5b806168dc575060008054906101000a900460ff16155b616931576040517f08c379a000000000000000000000000000000000000000000000000000000000815260040180806020018281038252602e815260200180618b4d602e913960400191505060405180910390fd5b60008060019054906101000a900460ff161590508015616981576001600060016101000a81548160ff02191690831515021790555060016000806101000a81548160ff0219169083151502179055505b61698a82616d8c565b61699a63d9b67a2660e01b616c83565b6169aa630e89341c60e01b616c83565b80156169cb5760008060016101000a81548160ff0219169083151502179055505b5050565b6000616a31826040518060400160405280602081526020017f5361666545524332303a206c6f772d6c6576656c2063616c6c206661696c65648152508573ffffffffffffffffffffffffffffffffffffffff16616da69092919063ffffffff16565b9050600081511115616ab957808060200190516020811015616a5257600080fd5b8101908080519060200190929190505050616ab8576040517f08c379a000000000000000000000000000000000000000000000000000000000815260040180806020018281038252602a815260200180618c12602a913960400191505060405180910390fd5b5b505050565b6000811480616b8c575060008373ffffffffffffffffffffffffffffffffffffffff1663dd62ed3e30856040518363ffffffff1660e01b8152600401808373ffffffffffffffffffffffffffffffffffffffff1681526020018273ffffffffffffffffffffffffffffffffffffffff1681526020019250505060206040518083038186803b158015616b4f57600080fd5b505afa158015616b63573d6000803e3d6000fd5b505050506040513d6020811015616b7957600080fd5b8101908080519060200190929190505050145b616be1576040517f08c379a0000000000000000000000000000000000000000000000000000000008152600401808060200182810382526036815260200180618cae6036913960400191505060405180910390fd5b616c7e8363095ea7b360e01b8484604051602401808373ffffffffffffffffffffffffffffffffffffffff16815260200182815260200192505050604051602081830303815290604052907bffffffffffffffffffffffffffffffffffffffffffffffffffffffff19166020820180517bffffffffffffffffffffffffffffffffffffffffffffffffffffffff83818316178352505050506169cf565b505050565b63ffffffff60e01b817bffffffffffffffffffffffffffffffffffffffffffffffffffffffff19161415616d1f576040517f08c379a000000000000000000000000000000000000000000000000000000000815260040180806020018281038252601c8152602001807f4552433136353a20696e76616c696420696e746572666163652069640000000081525060200191505060405180910390fd5b600160336000837bffffffffffffffffffffffffffffffffffffffffffffffffffffffff19167bffffffffffffffffffffffffffffffffffffffffffffffffffffffff1916815260200190815260200160002060006101000a81548160ff02191690831515021790555050565b8060679080519060200190616da292919061705f565b5050565b6060616db58484600085616dbe565b90509392505050565b606082471015616e19576040517f08c379a0000000000000000000000000000000000000000000000000000000008152600401808060200182810382526026815260200180618ad06026913960400191505060405180910390fd5b616e2285616f66565b616e94576040517f08c379a000000000000000000000000000000000000000000000000000000000815260040180806020018281038252601d8152602001807f416464726573733a2063616c6c20746f206e6f6e2d636f6e747261637400000081525060200191505060405180910390fd5b6000808673ffffffffffffffffffffffffffffffffffffffff1685876040518082805190602001908083835b60208310616ee35780518252602082019150602081019050602083039250616ec0565b6001836020036101000a03801982511681845116808217855250505050505090500191505060006040518083038185875af1925050503d8060008114616f45576040519150601f19603f3d011682016040523d82523d6000602084013e616f4a565b606091505b5091509150616f5a828286616f79565b92505050949350505050565b600080823b905060008111915050919050565b60608315616f895782905061703e565b600083511115616f9c5782518084602001fd5b816040517f08c379a00000000000000000000000000000000000000000000000000000000081526004018080602001828103825283818151815260200191508051906020019080838360005b83811015617003578082015181840152602081019050616fe8565b50505050905090810190601f1680156170305780820380516001836020036101000a031916815260200191505b509250505060405180910390fd5b9392505050565b604051806040016040528060008152602001600081525090565b828054600181600116156101000203166002900490600052602060002090601f01602090048101928261709557600085556170dc565b82601f106170ae57805160ff19168380011785556170dc565b828001600101855582156170dc579182015b828111156170db5782518255916020019190600101906170c0565b5b5090506170e991906170ed565b5090565b5b808211156171065760008160009055506001016170ee565b5090565b600061711d61711884618684565b618653565b9050808382526020820190508285602086028201111561713c57600080fd5b60005b8581101561716c57816171528882617220565b84526020840193506020830192505060018101905061713f565b5050509392505050565b6000617189617184846186b0565b618653565b905080838252602082019050828560208602820111156171a857600080fd5b60005b858110156171d857816171be888261731c565b8452602084019350602083019250506001810190506171ab565b5050509392505050565b60006171f56171f0846186dc565b618653565b90508281526020810184848401111561720d57600080fd5b617218848285618877565b509392505050565b60008135905061722f8161898f565b92915050565b6000815190506172448161898f565b92915050565b600082601f83011261725b57600080fd5b813561726b84826020860161710a565b91505092915050565b600082601f83011261728557600080fd5b8135617295848260208601617176565b91505092915050565b6000813590506172ad816189a6565b92915050565b6000815190506172c2816189a6565b92915050565b6000813590506172d7816189bd565b92915050565b600082601f8301126172ee57600080fd5b81356172fe8482602086016171e2565b91505092915050565b600081519050617316816189d4565b92915050565b60008135905061732b816189e4565b92915050565b600081519050617340816189e4565b92915050565b60006020828403121561735857600080fd5b600061736684828501617235565b91505092915050565b6000806040838503121561738257600080fd5b600061739085828601617220565b92505060206173a185828601617220565b9150509250929050565b600080600080600060a086880312156173c357600080fd5b60006173d188828901617220565b95505060206173e288828901617220565b945050604086013567ffffffffffffffff8111156173ff57600080fd5b61740b88828901617274565b935050606086013567ffffffffffffffff81111561742857600080fd5b61743488828901617274565b925050608086013567ffffffffffffffff81111561745157600080fd5b61745d888289016172dd565b9150509295509295909350565b600080600080600060a0868803121561748257600080fd5b600061749088828901617220565b95505060206174a188828901617220565b94505060406174b28882890161731c565b93505060606174c38882890161731c565b925050608086013567ffffffffffffffff8111156174e057600080fd5b6174ec888289016172dd565b9150509295509295909350565b6000806040838503121561750c57600080fd5b600061751a85828601617220565b925050602061752b8582860161729e565b9150509250929050565b6000806040838503121561754857600080fd5b600061755685828601617220565b92505060206175678582860161731c565b9150509250929050565b6000806040838503121561758457600080fd5b600061759285828601617235565b92505060206175a385828601617331565b9150509250929050565b600080604083850312156175c057600080fd5b600083013567ffffffffffffffff8111156175da57600080fd5b6175e68582860161724a565b925050602083013567ffffffffffffffff81111561760357600080fd5b61760f85828601617274565b9150509250929050565b60006020828403121561762b57600080fd5b6000617639848285016172b3565b91505092915050565b60006020828403121561765457600080fd5b6000617662848285016172c8565b91505092915050565b60006020828403121561767d57600080fd5b600061768b84828501617307565b91505092915050565b6000602082840312156176a657600080fd5b60006176b48482850161731c565b91505092915050565b6000602082840312156176cf57600080fd5b60006176dd84828501617331565b91505092915050565b600080604083850312156176f957600080fd5b60006177078582860161731c565b925050602061771885828601617220565b9150509250929050565b600080600080600080600080610100898b03121561773f57600080fd5b600061774d8b828c0161731c565b985050602061775e8b828c01617220565b975050604061776f8b828c01617220565b96505060606177808b828c01617220565b95505060806177918b828c0161731c565b94505060a06177a28b828c0161731c565b93505060c06177b38b828c0161731c565b92505060e06177c48b828c0161729e565b9150509295985092959890939650565b600080604083850312156177e757600080fd5b60006177f58582860161731c565b92505060206178068582860161729e565b9150509250929050565b6000806040838503121561782357600080fd5b60006178318582860161731c565b92505060206178428582860161731c565b9150509250929050565b60008060006060848603121561786157600080fd5b600061786f8682870161731c565b93505060206178808682870161731c565b92505060406178918682870161731c565b9150509250925092565b60006178a78383617f93565b60208301905092915050565b6178bc816187d5565b82525050565b6178cb81618761565b82525050565b60006178dc8261871c565b6178e6818561873f565b93506178f18361870c565b8060005b83811015617922578151617909888261789b565b975061791483618732565b9250506001810190506178f5565b5085935050505092915050565b61793881618773565b82525050565b617947816187e7565b82525050565b6179568161880b565b82525050565b6179658161882f565b82525050565b600061797682618727565b6179808185618750565b9350617990818560208601618886565b617999816188bb565b840191505092915050565b60006179b1600683618750565b91507f4c503a49543300000000000000000000000000000000000000000000000000006000830152602082019050919050565b60006179f1600783618750565b91507f4c503a49574c32000000000000000000000000000000000000000000000000006000830152602082019050919050565b6000617a31600883618750565b91507f4c503a49574c43310000000000000000000000000000000000000000000000006000830152602082019050919050565b6000617a71600883618750565b91507f4c503a49524957310000000000000000000000000000000000000000000000006000830152602082019050919050565b6000617ab1600783618750565b91507f4c503a49574931000000000000000000000000000000000000000000000000006000830152602082019050919050565b6000617af1600683618750565b91507f4c503a49543400000000000000000000000000000000000000000000000000006000830152602082019050919050565b6000617b31600883618750565b91507f4c503a4f50434c310000000000000000000000000000000000000000000000006000830152602082019050919050565b6000617b71600783618750565b91507f4c503a49574c33000000000000000000000000000000000000000000000000006000830152602082019050919050565b6000617bb1600783618750565b91507f4c503a49574c31000000000000000000000000000000000000000000000000006000830152602082019050919050565b6000617bf1600583618750565b91507f4c503a4c340000000000000000000000000000000000000000000000000000006000830152602082019050919050565b6000617c31600583618750565b91507f4c503a4c330000000000000000000000000000000000000000000000000000006000830152602082019050919050565b6000617c71600583618750565b91507f4c503a53340000000000000000000000000000000000000000000000000000006000830152602082019050919050565b6000617cb1600583618750565b91507f4c503a53330000000000000000000000000000000000000000000000000000006000830152602082019050919050565b6000617cf1600583618750565b91507f4c503a53320000000000000000000000000000000000000000000000000000006000830152602082019050919050565b6000617d31600683618750565b91507f4c503a49543100000000000000000000000000000000000000000000000000006000830152602082019050919050565b6000617d71600683618750565b91507f4c503a49543500000000000000000000000000000000000000000000000000006000830152602082019050919050565b6000617db1600583618750565b91507f4c503a4c320000000000000000000000000000000000000000000000000000006000830152602082019050919050565b6000617df1600683618750565b91507f4c503a57493100000000000000000000000000000000000000000000000000006000830152602082019050919050565b6000617e31600683618750565b91507f4c503a49543200000000000000000000000000000000000000000000000000006000830152602082019050919050565b6000617e71600583618750565b91507f4c503a53310000000000000000000000000000000000000000000000000000006000830152602082019050919050565b6000617eb1600783618750565b91507f4c503a4c495131000000000000000000000000000000000000000000000000006000830152602082019050919050565b6000617ef1600783618750565b91507f4c503a574c4331000000000000000000000000000000000000000000000000006000830152602082019050919050565b6000617f31600583618750565b91507f4c503a4c310000000000000000000000000000000000000000000000000000006000830152602082019050919050565b604082016000820151617f7a6000850182617f93565b506020820151617f8d6020850182617f93565b50505050565b617f9c816187cb565b82525050565b617fab816187cb565b82525050565b6000604082019050617fc660008301856178b3565b617fd360208301846178c2565b9392505050565b6000604082019050617fef60008301856178c2565b617ffc60208301846178c2565b9392505050565b600060608201905061801860008301866178c2565b61802560208301856178c2565b61803260408301846178c2565b949350505050565b600060a08201905061804f60008301886178c2565b61805c60208301876178c2565b61806960408301866178b3565b6180766060830185617fa2565b618083608083018461792f565b9695505050505050565b60006080820190506180a260008301876178c2565b6180af60208301866178c2565b6180bc60408301856178c2565b6180c96060830184617fa2565b95945050505050565b600060a0820190506180e760008301886178c2565b6180f460208301876178c2565b61810160408301866178c2565b61810e6060830185617fa2565b61811b608083018461792f565b9695505050505050565b600060608201905061813a60008301866178c2565b61814760208301856178c2565b6181546040830184617fa2565b949350505050565b6000602082019050818103600083015261817681846178d1565b905092915050565b6000602082019050618193600083018461792f565b92915050565b60006020820190506181ae600083018461793e565b92915050565b60006020820190506181c9600083018461794d565b92915050565b60006020820190506181e4600083018461795c565b92915050565b60006020820190508181036000830152618204818461796b565b905092915050565b60006020820190508181036000830152618225816179a4565b9050919050565b60006020820190508181036000830152618245816179e4565b9050919050565b6000602082019050818103600083015261826581617a24565b9050919050565b6000602082019050818103600083015261828581617a64565b9050919050565b600060208201905081810360008301526182a581617aa4565b9050919050565b600060208201905081810360008301526182c581617ae4565b9050919050565b600060208201905081810360008301526182e581617b24565b9050919050565b6000602082019050818103600083015261830581617b64565b9050919050565b6000602082019050818103600083015261832581617ba4565b9050919050565b6000602082019050818103600083015261834581617be4565b9050919050565b6000602082019050818103600083015261836581617c24565b9050919050565b6000602082019050818103600083015261838581617c64565b9050919050565b600060208201905081810360008301526183a581617ca4565b9050919050565b600060208201905081810360008301526183c581617ce4565b9050919050565b600060208201905081810360008301526183e581617d24565b9050919050565b6000602082019050818103600083015261840581617d64565b9050919050565b6000602082019050818103600083015261842581617da4565b9050919050565b6000602082019050818103600083015261844581617de4565b9050919050565b6000602082019050818103600083015261846581617e24565b9050919050565b6000602082019050818103600083015261848581617e64565b9050919050565b600060208201905081810360008301526184a581617ea4565b9050919050565b600060208201905081810360008301526184c581617ee4565b9050919050565b600060208201905081810360008301526184e581617f24565b9050919050565b60006040820190506185016000830184617f64565b92915050565b600060208201905061851c6000830184617fa2565b92915050565b60006040820190506185376000830185617fa2565b61854460208301846178c2565b9392505050565b600061010082019050618561600083018b617fa2565b61856e602083018a6178c2565b61857b60408301896178c2565b6185886060830188617fa2565b6185956080830187617fa2565b6185a260a08301866178c2565b6185af60c08301856178c2565b6185bc60e083018461792f565b9998505050505050505050565b60006060820190506185de6000830186617fa2565b6185eb6020830185617fa2565b6185f860408301846178b3565b949350505050565b600060a0820190506186156000830188617fa2565b6186226020830187617fa2565b61862f6040830186617fa2565b61863c6060830185617fa2565b6186496080830184617fa2565b9695505050505050565b6000604051905081810181811067ffffffffffffffff8211171561867a576186796188b9565b5b8060405250919050565b600067ffffffffffffffff82111561869f5761869e6188b9565b5b602082029050602081019050919050565b600067ffffffffffffffff8211156186cb576186ca6188b9565b5b602082029050602081019050919050565b600067ffffffffffffffff8211156186f7576186f66188b9565b5b601f19601f8301169050602081019050919050565b6000819050602082019050919050565b600081519050919050565b600081519050919050565b6000602082019050919050565b600082825260208201905092915050565b600082825260208201905092915050565b600061876c826187ab565b9050919050565b60008115159050919050565b60007fffffffff0000000000000000000000000000000000000000000000000000000082169050919050565b600073ffffffffffffffffffffffffffffffffffffffff82169050919050565b6000819050919050565b60006187e082618853565b9050919050565b60006187f2826187f9565b9050919050565b6000618804826187ab565b9050919050565b60006188168261881d565b9050919050565b6000618828826187ab565b9050919050565b600061883a82618841565b9050919050565b600061884c826187ab565b9050919050565b600061885e82618865565b9050919050565b6000618870826187ab565b9050919050565b82818337600083830152505050565b60005b838110156188a4578082015181840152602081019050618889565b838111156188b3576000848401525b50505050565bfe5b6000601f19601f8301169050919050565b60008160e01c9050919050565b600060443d10156188e95761898c565b60046000803e6188fa6000516188cc565b6308c379a0811461890b575061898c565b60405160043d036004823e80513d602482011167ffffffffffffffff821117156189375750505061898c565b808201805167ffffffffffffffff81111561895657505050505061898c565b8060208301013d85018111156189715750505050505061898c565b61897a826188bb565b60208401016040528296505050505050505b90565b61899881618761565b81146189a357600080fd5b50565b6189af81618773565b81146189ba57600080fd5b50565b6189c68161877f565b81146189d157600080fd5b50565b600781106189e157600080fd5b50565b6189ed816187cb565b81146189f857600080fd5b5056fe455243313135353a207472616e7366657220746f206e6f6e2045524331313535526563656976657220696d706c656d656e746572455243313135353a204552433131353552656365697665722072656a656374656420746f6b656e73455243313135353a2062616c616e636520717565727920666f7220746865207a65726f2061646472657373455243313135353a206275726e20616d6f756e7420657863656564732062616c616e6365455243313135353a2063616c6c6572206973206e6f74206f776e6572206e6f7220617070726f766564416464726573733a20696e73756666696369656e742062616c616e636520666f722063616c6c455243313135353a207472616e7366657220746f20746865207a65726f2061646472657373455243313135353a207472616e736665722063616c6c6572206973206e6f74206f776e6572206e6f7220617070726f766564496e697469616c697a61626c653a20636f6e747261637420697320616c726561647920696e697469616c697a6564455243313135353a206275726e2066726f6d20746865207a65726f2061646472657373455243313135353a20696e73756666696369656e742062616c616e636520666f72207472616e73666572536166654d6174683a206d756c7469706c69636174696f6e206f766572666c6f77455243313135353a2073657474696e6720617070726f76616c2073746174757320666f722073656c665361666545524332303a204552433230206f7065726174696f6e20646964206e6f742073756363656564455243313135353a206163636f756e747320616e6420696473206c656e677468206d69736d61746368455243313135353a2069647320616e6420616d6f756e7473206c656e677468206d69736d61746368455243313135353a206d696e7420746f20746865207a65726f20616464726573735361666545524332303a20617070726f76652066726f6d206e6f6e2d7a65726f20746f206e6f6e2d7a65726f20616c6c6f77616e6365a2646970667358221220a5c4e93f8be15958b4018b483cacbe78c3dca46003ef3f81b61273e2ac157a8464736f6c63430007060033","linkReferences":{}},"methodIdentifiers":{"POOLED_CREDIT_LINE()":"d792b4cf","SAVINGS_ACCOUNT()":"7b2a2d1f","VERIFICATION()":"791ae748","balanceOf(address,uint256)":"00fdd58e","balanceOfBatch(address[],uint256[])":"4e1273f4","borrowed(uint256,uint256)":"e959ab97","calculatePrincipalWithdrawable(uint256,address)":"a78e0143","create(uint256,address,address,address,uint256,uint256,uint256,bool)":"0553d90a","getLenderInfo(uint256,address)":"35e5722c","getLenderInterestWithdrawable(uint256,address)":"f4ff0b6e","initialize()":"8129fc1c","isApprovedForAll(address,address)":"e985e9c5","lend(uint256,uint256)":"9110df85","liquidate(uint256,bool)":"2758db0c","pooledCLConstants(uint256)":"4d10249a","pooledCLVariables(uint256)":"23a32b88","repaid(uint256,uint256,uint256)":"91a214dd","requestCancelled(uint256)":"1523a760","safeBatchTransferFrom(address,address,uint256[],uint256[],bytes)":"2eb2c2d6","safeTransferFrom(address,address,uint256,uint256,bytes)":"f242432a","setApprovalForAll(address,bool)":"a22cb465","start(uint256)":"95805dad","supportsInterface(bytes4)":"01ffc9a7","terminate(uint256,address)":"e554de98","totalSupply(uint256)":"bd85b039","uri(uint256)":"0e89341c","withdrawInterest(uint256)":"08669aab","withdrawLiquidity(uint256)":"0a861f2a","withdrawTokensAfterLiquidation(uint256)":"11f27894"},"id":9}