{
  "_format": "hh-sol-artifact-1",
  "contractName": "NFTXLPStaking2",
  "sourceName": "contracts/solidity/testing/NFTXLPStaking2.sol",
  "abi": [
    {
      "anonymous": false,
      "inputs": [
        {
          "indexed": false,
          "internalType": "uint256",
          "name": "vaultId",
          "type": "uint256"
        },
        {
          "indexed": false,
          "internalType": "uint256",
          "name": "amount",
          "type": "uint256"
        }
      ],
      "name": "FeesReceived",
      "type": "event"
    },
    {
      "anonymous": false,
      "inputs": [
        {
          "indexed": true,
          "internalType": "address",
          "name": "previousOwner",
          "type": "address"
        },
        {
          "indexed": true,
          "internalType": "address",
          "name": "newOwner",
          "type": "address"
        }
      ],
      "name": "OwnershipTransferred",
      "type": "event"
    },
    {
      "anonymous": false,
      "inputs": [
        {
          "indexed": false,
          "internalType": "uint256",
          "name": "vaultId",
          "type": "uint256"
        },
        {
          "indexed": false,
          "internalType": "address",
          "name": "pool",
          "type": "address"
        }
      ],
      "name": "PoolCreated",
      "type": "event"
    },
    {
      "anonymous": false,
      "inputs": [
        {
          "indexed": false,
          "internalType": "uint256",
          "name": "vaultId",
          "type": "uint256"
        },
        {
          "indexed": false,
          "internalType": "address",
          "name": "pool",
          "type": "address"
        }
      ],
      "name": "PoolUpdated",
      "type": "event"
    },
    {
      "anonymous": false,
      "inputs": [
        {
          "indexed": false,
          "internalType": "address",
          "name": "addr",
          "type": "address"
        },
        {
          "indexed": false,
          "internalType": "bool",
          "name": "isGuardian",
          "type": "bool"
        }
      ],
      "name": "SetIsGuardian",
      "type": "event"
    },
    {
      "anonymous": false,
      "inputs": [
        {
          "indexed": false,
          "internalType": "uint256",
          "name": "lockId",
          "type": "uint256"
        },
        {
          "indexed": false,
          "internalType": "bool",
          "name": "paused",
          "type": "bool"
        }
      ],
      "name": "SetPaused",
      "type": "event"
    },
    {
      "inputs": [
        {
          "internalType": "address",
          "name": "_stakingTokenProvider",
          "type": "address"
        }
      ],
      "name": "__NFTXLPStaking__init",
      "outputs": [],
      "stateMutability": "nonpayable",
      "type": "function"
    },
    {
      "inputs": [
        {
          "components": [
            {
              "internalType": "address",
              "name": "stakingToken",
              "type": "address"
            },
            {
              "internalType": "address",
              "name": "rewardToken",
              "type": "address"
            }
          ],
          "internalType": "struct NFTXLPStaking.StakingPool",
          "name": "pool",
          "type": "tuple"
        }
      ],
      "name": "_oldRewardDistributionTokenAddr",
      "outputs": [
        {
          "internalType": "contract IRewardDistributionToken",
          "name": "",
          "type": "address"
        }
      ],
      "stateMutability": "view",
      "type": "function"
    },
    {
      "inputs": [
        {
          "components": [
            {
              "internalType": "address",
              "name": "stakingToken",
              "type": "address"
            },
            {
              "internalType": "address",
              "name": "rewardToken",
              "type": "address"
            }
          ],
          "internalType": "struct NFTXLPStaking.StakingPool",
          "name": "pool",
          "type": "tuple"
        }
      ],
      "name": "_rewardDistributionTokenAddr",
      "outputs": [
        {
          "internalType": "contract TimelockRewardDistributionTokenImpl",
          "name": "",
          "type": "address"
        }
      ],
      "stateMutability": "view",
      "type": "function"
    },
    {
      "inputs": [
        {
          "components": [
            {
              "internalType": "address",
              "name": "stakingToken",
              "type": "address"
            },
            {
              "internalType": "address",
              "name": "rewardToken",
              "type": "address"
            }
          ],
          "internalType": "struct NFTXLPStaking.StakingPool",
          "name": "pool",
          "type": "tuple"
        }
      ],
      "name": "_unusedRewardDistributionTokenAddr",
      "outputs": [
        {
          "internalType": "contract IRewardDistributionToken",
          "name": "",
          "type": "address"
        }
      ],
      "stateMutability": "view",
      "type": "function"
    },
    {
      "inputs": [
        {
          "internalType": "uint256",
          "name": "vaultId",
          "type": "uint256"
        }
      ],
      "name": "addPoolForVault",
      "outputs": [],
      "stateMutability": "nonpayable",
      "type": "function"
    },
    {
      "inputs": [],
      "name": "assignNewImpl",
      "outputs": [],
      "stateMutability": "nonpayable",
      "type": "function"
    },
    {
      "inputs": [
        {
          "internalType": "uint256",
          "name": "vaultId",
          "type": "uint256"
        },
        {
          "internalType": "address",
          "name": "addr",
          "type": "address"
        }
      ],
      "name": "balanceOf",
      "outputs": [
        {
          "internalType": "uint256",
          "name": "",
          "type": "uint256"
        }
      ],
      "stateMutability": "view",
      "type": "function"
    },
    {
      "inputs": [
        {
          "internalType": "uint256[]",
          "name": "vaultIds",
          "type": "uint256[]"
        }
      ],
      "name": "claimMultipleRewards",
      "outputs": [],
      "stateMutability": "nonpayable",
      "type": "function"
    },
    {
      "inputs": [
        {
          "internalType": "uint256",
          "name": "vaultId",
          "type": "uint256"
        }
      ],
      "name": "claimRewards",
      "outputs": [],
      "stateMutability": "nonpayable",
      "type": "function"
    },
    {
      "inputs": [
        {
          "internalType": "uint256",
          "name": "vaultId",
          "type": "uint256"
        },
        {
          "internalType": "uint256",
          "name": "amount",
          "type": "uint256"
        }
      ],
      "name": "deposit",
      "outputs": [],
      "stateMutability": "nonpayable",
      "type": "function"
    },
    {
      "inputs": [
        {
          "internalType": "address",
          "name": "_stakingToken",
          "type": "address"
        },
        {
          "internalType": "address",
          "name": "_rewardToken",
          "type": "address"
        }
      ],
      "name": "emergencyExit",
      "outputs": [],
      "stateMutability": "nonpayable",
      "type": "function"
    },
    {
      "inputs": [
        {
          "internalType": "address",
          "name": "_stakingToken",
          "type": "address"
        },
        {
          "internalType": "address",
          "name": "_rewardToken",
          "type": "address"
        }
      ],
      "name": "emergencyExitAndClaim",
      "outputs": [],
      "stateMutability": "nonpayable",
      "type": "function"
    },
    {
      "inputs": [
        {
          "internalType": "uint256",
          "name": "vaultId",
          "type": "uint256"
        }
      ],
      "name": "emergencyMigrate",
      "outputs": [],
      "stateMutability": "nonpayable",
      "type": "function"
    },
    {
      "inputs": [
        {
          "internalType": "uint256",
          "name": "vaultId",
          "type": "uint256"
        }
      ],
      "name": "exit",
      "outputs": [],
      "stateMutability": "nonpayable",
      "type": "function"
    },
    {
      "inputs": [
        {
          "internalType": "address",
          "name": "",
          "type": "address"
        }
      ],
      "name": "isGuardian",
      "outputs": [
        {
          "internalType": "bool",
          "name": "",
          "type": "bool"
        }
      ],
      "stateMutability": "view",
      "type": "function"
    },
    {
      "inputs": [
        {
          "internalType": "uint256",
          "name": "",
          "type": "uint256"
        }
      ],
      "name": "isPaused",
      "outputs": [
        {
          "internalType": "bool",
          "name": "",
          "type": "bool"
        }
      ],
      "stateMutability": "view",
      "type": "function"
    },
    {
      "inputs": [
        {
          "internalType": "uint256",
          "name": "vaultId",
          "type": "uint256"
        },
        {
          "internalType": "address",
          "name": "who",
          "type": "address"
        }
      ],
      "name": "lockedLPBalance",
      "outputs": [
        {
          "internalType": "uint256",
          "name": "",
          "type": "uint256"
        }
      ],
      "stateMutability": "view",
      "type": "function"
    },
    {
      "inputs": [
        {
          "internalType": "uint256",
          "name": "vaultId",
          "type": "uint256"
        },
        {
          "internalType": "address",
          "name": "who",
          "type": "address"
        }
      ],
      "name": "lockedUntil",
      "outputs": [
        {
          "internalType": "uint256",
          "name": "",
          "type": "uint256"
        }
      ],
      "stateMutability": "view",
      "type": "function"
    },
    {
      "inputs": [
        {
          "internalType": "uint256",
          "name": "vaultId",
          "type": "uint256"
        }
      ],
      "name": "newRewardDistributionToken",
      "outputs": [
        {
          "internalType": "contract TimelockRewardDistributionTokenImpl",
          "name": "",
          "type": "address"
        }
      ],
      "stateMutability": "view",
      "type": "function"
    },
    {
      "inputs": [],
      "name": "newTimelockRewardDistTokenImpl",
      "outputs": [
        {
          "internalType": "contract TimelockRewardDistributionTokenImpl",
          "name": "",
          "type": "address"
        }
      ],
      "stateMutability": "view",
      "type": "function"
    },
    {
      "inputs": [],
      "name": "nftxVaultFactory",
      "outputs": [
        {
          "internalType": "contract INFTXVaultFactory",
          "name": "",
          "type": "address"
        }
      ],
      "stateMutability": "view",
      "type": "function"
    },
    {
      "inputs": [
        {
          "internalType": "uint256",
          "name": "vaultId",
          "type": "uint256"
        },
        {
          "internalType": "address",
          "name": "addr",
          "type": "address"
        }
      ],
      "name": "oldBalanceOf",
      "outputs": [
        {
          "internalType": "uint256",
          "name": "",
          "type": "uint256"
        }
      ],
      "stateMutability": "view",
      "type": "function"
    },
    {
      "inputs": [
        {
          "internalType": "uint256",
          "name": "vaultId",
          "type": "uint256"
        }
      ],
      "name": "oldRewardDistributionToken",
      "outputs": [
        {
          "internalType": "address",
          "name": "",
          "type": "address"
        }
      ],
      "stateMutability": "view",
      "type": "function"
    },
    {
      "inputs": [
        {
          "internalType": "uint256",
          "name": "lockId",
          "type": "uint256"
        }
      ],
      "name": "onlyOwnerIfPaused",
      "outputs": [],
      "stateMutability": "view",
      "type": "function"
    },
    {
      "inputs": [],
      "name": "owner",
      "outputs": [
        {
          "internalType": "address",
          "name": "",
          "type": "address"
        }
      ],
      "stateMutability": "view",
      "type": "function"
    },
    {
      "inputs": [
        {
          "internalType": "uint256",
          "name": "lockId",
          "type": "uint256"
        }
      ],
      "name": "pause",
      "outputs": [],
      "stateMutability": "nonpayable",
      "type": "function"
    },
    {
      "inputs": [
        {
          "internalType": "uint256",
          "name": "vaultId",
          "type": "uint256"
        },
        {
          "internalType": "uint256",
          "name": "amount",
          "type": "uint256"
        }
      ],
      "name": "receiveRewards",
      "outputs": [
        {
          "internalType": "bool",
          "name": "",
          "type": "bool"
        }
      ],
      "stateMutability": "nonpayable",
      "type": "function"
    },
    {
      "inputs": [],
      "name": "renounceOwnership",
      "outputs": [],
      "stateMutability": "nonpayable",
      "type": "function"
    },
    {
      "inputs": [],
      "name": "rewardDistTokenImpl",
      "outputs": [
        {
          "internalType": "contract IRewardDistributionToken",
          "name": "",
          "type": "address"
        }
      ],
      "stateMutability": "view",
      "type": "function"
    },
    {
      "inputs": [
        {
          "internalType": "uint256",
          "name": "vaultId",
          "type": "uint256"
        }
      ],
      "name": "rewardDistributionToken",
      "outputs": [
        {
          "internalType": "contract IRewardDistributionToken",
          "name": "",
          "type": "address"
        }
      ],
      "stateMutability": "view",
      "type": "function"
    },
    {
      "inputs": [
        {
          "internalType": "address",
          "name": "stakingToken",
          "type": "address"
        },
        {
          "internalType": "address",
          "name": "rewardToken",
          "type": "address"
        }
      ],
      "name": "rewardDistributionTokenAddr",
      "outputs": [
        {
          "internalType": "address",
          "name": "",
          "type": "address"
        }
      ],
      "stateMutability": "view",
      "type": "function"
    },
    {
      "inputs": [
        {
          "internalType": "address",
          "name": "addr",
          "type": "address"
        },
        {
          "internalType": "bool",
          "name": "_isGuardian",
          "type": "bool"
        }
      ],
      "name": "setIsGuardian",
      "outputs": [],
      "stateMutability": "nonpayable",
      "type": "function"
    },
    {
      "inputs": [
        {
          "internalType": "address",
          "name": "newFactory",
          "type": "address"
        }
      ],
      "name": "setNFTXVaultFactory",
      "outputs": [],
      "stateMutability": "nonpayable",
      "type": "function"
    },
    {
      "inputs": [
        {
          "internalType": "address",
          "name": "newProvider",
          "type": "address"
        }
      ],
      "name": "setStakingTokenProvider",
      "outputs": [],
      "stateMutability": "nonpayable",
      "type": "function"
    },
    {
      "inputs": [],
      "name": "stakingTokenProvider",
      "outputs": [
        {
          "internalType": "contract StakingTokenProvider",
          "name": "",
          "type": "address"
        }
      ],
      "stateMutability": "view",
      "type": "function"
    },
    {
      "inputs": [
        {
          "internalType": "uint256",
          "name": "a",
          "type": "uint256"
        },
        {
          "internalType": "uint256",
          "name": "b",
          "type": "uint256"
        }
      ],
      "name": "sum",
      "outputs": [
        {
          "internalType": "uint256",
          "name": "",
          "type": "uint256"
        }
      ],
      "stateMutability": "pure",
      "type": "function"
    },
    {
      "inputs": [
        {
          "internalType": "uint256",
          "name": "vaultId",
          "type": "uint256"
        },
        {
          "internalType": "address",
          "name": "account",
          "type": "address"
        },
        {
          "internalType": "uint256",
          "name": "amount",
          "type": "uint256"
        },
        {
          "internalType": "uint256",
          "name": "timelockLength",
          "type": "uint256"
        }
      ],
      "name": "timelockDepositFor",
      "outputs": [],
      "stateMutability": "nonpayable",
      "type": "function"
    },
    {
      "inputs": [
        {
          "internalType": "address",
          "name": "newOwner",
          "type": "address"
        }
      ],
      "name": "transferOwnership",
      "outputs": [],
      "stateMutability": "nonpayable",
      "type": "function"
    },
    {
      "inputs": [
        {
          "internalType": "uint256",
          "name": "lockId",
          "type": "uint256"
        }
      ],
      "name": "unpause",
      "outputs": [],
      "stateMutability": "nonpayable",
      "type": "function"
    },
    {
      "inputs": [
        {
          "internalType": "uint256",
          "name": "vaultId",
          "type": "uint256"
        },
        {
          "internalType": "address",
          "name": "addr",
          "type": "address"
        }
      ],
      "name": "unusedBalanceOf",
      "outputs": [
        {
          "internalType": "uint256",
          "name": "",
          "type": "uint256"
        }
      ],
      "stateMutability": "view",
      "type": "function"
    },
    {
      "inputs": [
        {
          "internalType": "uint256",
          "name": "vaultId",
          "type": "uint256"
        }
      ],
      "name": "unusedRewardDistributionToken",
      "outputs": [
        {
          "internalType": "address",
          "name": "",
          "type": "address"
        }
      ],
      "stateMutability": "view",
      "type": "function"
    },
    {
      "inputs": [
        {
          "internalType": "uint256",
          "name": "vaultId",
          "type": "uint256"
        }
      ],
      "name": "updatePoolForVault",
      "outputs": [],
      "stateMutability": "nonpayable",
      "type": "function"
    },
    {
      "inputs": [
        {
          "internalType": "uint256[]",
          "name": "vaultIds",
          "type": "uint256[]"
        }
      ],
      "name": "updatePoolForVaults",
      "outputs": [],
      "stateMutability": "nonpayable",
      "type": "function"
    },
    {
      "inputs": [
        {
          "internalType": "uint256",
          "name": "",
          "type": "uint256"
        }
      ],
      "name": "vaultStakingInfo",
      "outputs": [
        {
          "internalType": "address",
          "name": "stakingToken",
          "type": "address"
        },
        {
          "internalType": "address",
          "name": "rewardToken",
          "type": "address"
        }
      ],
      "stateMutability": "view",
      "type": "function"
    },
    {
      "inputs": [
        {
          "internalType": "uint256",
          "name": "vaultId",
          "type": "uint256"
        },
        {
          "internalType": "uint256",
          "name": "amount",
          "type": "uint256"
        }
      ],
      "name": "withdraw",
      "outputs": [],
      "stateMutability": "nonpayable",
      "type": "function"
    }
  ],
  "bytecode": "0x608060405234801561001057600080fd5b506157c3806100206000396000f3fe608060405234801561001057600080fd5b50600436106102ff5760003560e01c80637f8661a11161019c578063b6ac500c116100ee578063e0e9e64d11610097578063f36d52da11610071578063f36d52da14610695578063f99e7405146106a8578063fabc1cbc146106bb57600080fd5b8063e0e9e64d1461065c578063e2bbb1581461066f578063f2fde38b1461068257600080fd5b8063cad0899b116100c8578063cad0899b1461062e578063da04682b14610641578063dd35686b1461065457600080fd5b8063b6ac500c146105e5578063b7019b37146105f8578063bdf2a43c1461060b57600080fd5b806392a05be611610150578063a3837c6c1161012a578063a3837c6c146105bf578063a77abced146105d2578063a8722fc6146105e557600080fd5b806392a05be614610586578063995a792d146105995780639d8ab6ae146105ac57600080fd5b806386c920fc1161018157806386c920fc1461054f57806387a6753f146105625780638da5cb5b1461057557600080fd5b80637f8661a114610529578063859251ff1461053c57600080fd5b8063482d0fd2116102555780636c9b9588116102095780637a77a5f7116101e35780637a77a5f7146104f05780637c77b616146105035780637ec732ab1461051657600080fd5b80636c9b9588146104c2578063715018a6146104d5578063729d0a8a146104dd57600080fd5b80635d51d9a41161023a5780635d51d9a4146104895780635ef91f381461049c578063613b5b62146104af57600080fd5b8063482d0fd2146104635780635cec16c01461047657600080fd5b806323845fb5116102b75780633656eec2116102915780633656eec2146104125780633801daf114610425578063441a3e701461045057600080fd5b806323845fb5146103985780633504f437146103ab5780633580c2f2146103ff57600080fd5b80631208100c116102e85780631208100c14610351578063136439dd1461037257806320b25ade1461038557600080fd5b80630962ef79146103045780630c68ba2114610319575b600080fd5b610317610312366004613242565b6106ce565b005b61033c610327366004612f83565b60656020526000908152604090205460ff1681565b60405190151581526020015b60405180910390f35b61036461035f366004613272565b610710565b604051908152602001610348565b610317610380366004613242565b610817565b610364610393366004613272565b6108ce565b6103176103a6366004612ff3565b61090e565b6103df6103b9366004613242565b606a60205260009081526040902080546001909101546001600160a01b03918216911682565b604080516001600160a01b03938416815292909116602083015201610348565b61031761040d366004612fbb565b6109cb565b610364610420366004613272565b610ac4565b606754610438906001600160a01b031681565b6040516001600160a01b039091168152602001610348565b61031761045e3660046132d2565b610b04565b610317610471366004613242565b610b48565b610317610484366004612fbb565b610d21565b6104386104973660046131e4565b610d87565b6104386104aa3660046131e4565b610e02565b6103176104bd366004613242565b610e3e565b6103176104d0366004613296565b61126e565b610317611477565b6103176104eb366004613090565b61151b565b6103176104fe366004613020565b611569565b610317610511366004613242565b6115b5565b610317610524366004612f83565b61162c565b610317610537366004613242565b6116bb565b606b54610438906001600160a01b031681565b606954610438906001600160a01b031681565b610317610570366004613242565b611707565b6033546001600160a01b0316610438565b606854610438906001600160a01b031681565b6104386105a7366004613242565b611a85565b6103176105ba366004612f83565b611ada565b6104386105cd3660046131e4565b611c0e565b6103176105e0366004612f83565b611c80565b6104386105f3366004613242565b611d0f565b610438610606366004613242565b611d5d565b61033c610619366004613242565b60666020526000908152604090205460ff1681565b61036461063c3660046132d2565b611dab565b61043861064f366004612fbb565b611db7565b610317611de1565b61036461066a366004613272565b611ee9565b61031761067d3660046132d2565b611fb8565b610317610690366004612f83565b612009565b61033c6106a33660046132d2565b61213b565b6103646106b6366004613272565b612401565b6103176106c9366004613242565b612473565b6000818152606a6020908152604091829020825180840190935280546001600160a01b039081168452600190910154169082015261070c813361251a565b5050565b6000828152606a60209081526040808320815180830190925280546001600160a01b03908116835260019091015416918101919091528161075082610e02565b9050803b6107925760405162461bcd60e51b815260206004820152600a602482015269139bdd0818481c1bdbdb60b21b60448201526064015b60405180910390fd5b6040516370a0823160e01b81526001600160a01b0385811660048301528216906370a08231906024015b60206040518083038186803b1580156107d457600080fd5b505afa1580156107e8573d6000803e3d6000fd5b505050506040513d601f19601f8201168201806040525081019061080c919061325a565b925050505b92915050565b3360009081526065602052604090205460ff166108765760405162461bcd60e51b815260206004820152600b60248201527f43616e27742070617573650000000000000000000000000000000000000000006044820152606401610789565b600081815260666020908152604091829020805460ff191660019081179091558251848152918201527f77f1fcfcce67dc392d64f842056d2ec06c80986c47c910f7e79c5b23a2738d7491015b60405180910390a150565b6000828152606a60209081526040808320815180830190925280546001600160a01b03908116835260019091015416918101919091528161075082610d87565b6033546001600160a01b031633146109685760405162461bcd60e51b815260206004820181905260248201527f4f776e61626c653a2063616c6c6572206973206e6f7420746865206f776e65726044820152606401610789565b6001600160a01b038216600081815260656020908152604091829020805460ff19168515159081179091558251938452908301527fd0b6b573d5442f7c29fd50d9735ae341581c25c6ed07748d50eda519f1ffa88a910160405180910390a15050565b604080518082019091526001600160a01b0380841682528216602082015260006109f482611c0e565b9050803b610a315760405162461bcd60e51b815260206004820152600a602482015269139bdd0818481c1bdbdb60b21b6044820152606401610789565b610a3b823361251a565b6040516370a0823160e01b8152336004820152610abe9083906001600160a01b038416906370a082319060240160206040518083038186803b158015610a8057600080fd5b505afa158015610a94573d6000803e3d6000fd5b505050506040513d601f19601f82011682018060405250810190610ab8919061325a565b336125dc565b50505050565b6000828152606a60209081526040808320815180830190925280546001600160a01b03908116835260019091015416918101919091528161075082611c0e565b6000828152606a6020908152604091829020825180840190935280546001600160a01b0390811684526001909101541690820152610b438183336125dc565b505050565b6000818152606a6020908152604091829020825180840190935280546001600160a01b039081168085526001909201541691830191909152610bcc5760405162461bcd60e51b815260206004820152601d60248201527f4c505374616b696e673a20506f6f6c20646f65736e27742065786973740000006044820152606401610789565b60695460208201516040516387c13f4d60e01b81526001600160a01b03918216600482015260009291909116906387c13f4d9060240160206040518083038186803b158015610c1a57600080fd5b505afa158015610c2e573d6000803e3d6000fd5b505050506040513d601f19601f82011682018060405250810190610c529190612f9f565b6040805180820182526001600160a01b03808416825260208681015182168184019081526000898152606a909252938120835181549084166001600160a01b0319918216178255945160019091018054919093169416939093179055919250610cba82611c0e565b9050803b15610cca575050505050565b6000610cd5836126b7565b604080518881526001600160a01b03831660208201529192507fd2bb61ed4a0a485d895c65f25fb6c9185c98180ae407831365bc59f65419f9fe910160405180910390a1505050505050565b604080518082019091526001600160a01b038084168252821660208201526000610d4a82611c0e565b9050803b610a3b5760405162461bcd60e51b815260206004820152600a602482015269139bdd0818481c1bdbdb60b21b6044820152606401610789565b80516020808301516040516bffffffffffffffffffffffff19606094851b811693820193909352921b1660348201526001604882015260009081906068015b60408051601f198184030181529190528051602090910120606854909150600090610dfa906001600160a01b03168361283e565b949350505050565b80516020808301516040516bffffffffffffffffffffffff19606094851b811693820193909352921b1660348201526000908190604801610dc6565b6000818152606a60209081526040808320815180830190925280546001600160a01b039081168352600190910154169181019190915290610e7e82610e02565b90506000610e8b83610d87565b90506000823b15610f76576040516370a0823160e01b81523360048201526001600160a01b038416906370a082319060240160206040518083038186803b158015610ed557600080fd5b505afa158015610ee9573d6000803e3d6000fd5b505050506040513d601f19601f82011682018060405250810190610f0d919061325a565b90508015610f765760405163079cc67960e41b8152336004820152602481018290526001600160a01b038416906379cc679090604401600060405180830381600087803b158015610f5d57600080fd5b505af1158015610f71573d6000803e3d6000fd5b505050505b6000823b156110b8576040516370a0823160e01b81523360048201526001600160a01b038416906370a082319060240160206040518083038186803b158015610fbe57600080fd5b505afa158015610fd2573d6000803e3d6000fd5b505050506040513d601f19601f82011682018060405250810190610ff6919061325a565b905080156110b857604051632e1b8c8760e21b81523360048201526001600160a01b0384169063b86e321c90602401600060405180830381600087803b15801561103f57600080fd5b505af1158015611053573d6000803e3d6000fd5b505060405163079cc67960e41b8152336004820152602481018490526001600160a01b03861692506379cc67909150604401600060405180830381600087803b15801561109f57600080fd5b505af11580156110b3573d6000803e3d6000fd5b505050505b60006110c386611c0e565b9050803b61117c5760006110d6876126b7565b9050816001600160a01b0316816001600160a01b0316146111395760405162461bcd60e51b815260206004820152601b60248201527f4e6f74206465706c6f79696e672070726f7065722064697374726f00000000006044820152606401610789565b604080518981526001600160a01b03831660208201527fd2bb61ed4a0a485d895c65f25fb6c9185c98180ae407831365bc59f65419f9fe910160405180910390a1505b600061118883856133bd565b116111d55760405162461bcd60e51b815260206004820152601260248201527f4e6f7468696e6720746f206d69677261746500000000000000000000000000006044820152606401610789565b6001600160a01b0381166340c10f19336111ef85876133bd565b6040517fffffffff0000000000000000000000000000000000000000000000000000000060e085901b1681526001600160a01b0390921660048301526024820152604401600060405180830381600087803b15801561124d57600080fd5b505af1158015611261573d6000803e3d6000fd5b5050505050505050505050565b6067546040517fdbe66ca00000000000000000000000000000000000000000000000000000000081523360048201526001600160a01b039091169063dbe66ca09060240160206040518083038186803b1580156112ca57600080fd5b505afa1580156112de573d6000803e3d6000fd5b505050506040513d601f19601f820116820180604052508101906113029190613138565b61134e5760405162461bcd60e51b815260206004820152600760248201527f4e6f74207a6170000000000000000000000000000000000000000000000000006044820152606401610789565b611358600a6115b5565b61136184610b48565b6000848152606a6020908152604091829020825180840190935280546001600160a01b0390811680855260019092015416918301919091526113e55760405162461bcd60e51b815260206004820152601b60248201527f4c505374616b696e673a204e6f6e6578697374656e7420706f6f6c00000000006044820152606401610789565b80516113fc906001600160a01b03163330866128ba565b61140581611c0e565b60405163145e612f60e11b81526001600160a01b038681166004830152602482018690526044820185905291909116906328bcc25e90606401600060405180830381600087803b15801561145857600080fd5b505af115801561146c573d6000803e3d6000fd5b505050505050505050565b6033546001600160a01b031633146114d15760405162461bcd60e51b815260206004820181905260248201527f4f776e61626c653a2063616c6c6572206973206e6f7420746865206f776e65726044820152606401610789565b6033546040516000916001600160a01b0316907f8be0079c531659141344cd1fd0a4f28419497f9722a3daafe3b4186f6b6457e0908390a3603380546001600160a01b0319169055565b60005b815181101561070c5761155782828151811061154a57634e487b7160e01b600052603260045260246000fd5b60200260200101516106ce565b8061156181613401565b91505061151e565b60005b81811015610b43576115a383838381811061159757634e487b7160e01b600052603260045260246000fd5b90506020020135610b48565b806115ad81613401565b91505061156c565b60008181526066602052604090205460ff1615806115dd57506033546001600160a01b031633145b6116295760405162461bcd60e51b815260206004820152600660248201527f50617573656400000000000000000000000000000000000000000000000000006044820152606401610789565b50565b6033546001600160a01b031633146116865760405162461bcd60e51b815260206004820181905260248201527f4f776e61626c653a2063616c6c6572206973206e6f7420746865206f776e65726044820152606401610789565b6001600160a01b03811661169957600080fd5b606980546001600160a01b0319166001600160a01b0392909216919091179055565b6000818152606a6020908152604091829020825180840190935280546001600160a01b03908116845260019091015416908201526116f9813361251a565b61070c81610ab88433610ac4565b6033546001600160a01b03163314806117b65750606760009054906101000a90046001600160a01b03166001600160a01b0316630d43e8ad6040518163ffffffff1660e01b815260040160206040518083038186803b15801561176957600080fd5b505afa15801561177d573d6000803e3d6000fd5b505050506040513d601f19601f820116820180604052508101906117a19190612f9f565b6001600160a01b0316336001600160a01b0316145b6118025760405162461bcd60e51b815260206004820152601960248201527f4c505374616b696e673a204e6f7420617574686f72697a6564000000000000006044820152606401610789565b6067546001600160a01b031661185a5760405162461bcd60e51b815260206004820152601a60248201527f4c505374616b696e673a20466163746f7279206e6f74207365740000000000006044820152606401610789565b6000818152606a60205260409020546001600160a01b0316156118bf5760405162461bcd60e51b815260206004820152601e60248201527f4c505374616b696e673a20506f6f6c20616c72656164792065786973747300006044820152606401610789565b6067546040517f81a36fb6000000000000000000000000000000000000000000000000000000008152600481018390526000916001600160a01b0316906381a36fb69060240160206040518083038186803b15801561191d57600080fd5b505afa158015611931573d6000803e3d6000fd5b505050506040513d601f19601f820116820180604052508101906119559190612f9f565b6069546040516387c13f4d60e01b81526001600160a01b038084166004830152929350600092909116906387c13f4d9060240160206040518083038186803b1580156119a057600080fd5b505afa1580156119b4573d6000803e3d6000fd5b505050506040513d601f19601f820116820180604052508101906119d89190612f9f565b6040805180820182526001600160a01b03808416825285811660208084019182526000898152606a909152938420835181549084166001600160a01b0319918216178255915160019091018054919093169116179055919250611a3a826126b7565b604080518781526001600160a01b03831660208201529192507f65fc0eb45954044fb55e1b01344d5d72fbfdf88e732d955f73bb7fb2bcc131e9910160405180910390a15050505050565b6000818152606a60209081526040808320815180830190925280546001600160a01b03908116808452600190920154169282019290925290611aca5750600092915050565b611ad381610d87565b9392505050565b600054610100900460ff1680611af3575060005460ff16155b611b565760405162461bcd60e51b815260206004820152602e60248201527f496e697469616c697a61626c653a20636f6e747261637420697320616c72656160448201526d191e481a5b9a5d1a585b1a5e995960921b6064820152608401610789565b600054610100900460ff16158015611b78576000805461ffff19166101011790555b611b8061296b565b6001600160a01b038216611bd65760405162461bcd60e51b815260206004820152601660248201527f50726f766964657220213d2061646472657373283029000000000000000000006044820152606401610789565b611bde611de1565b606980546001600160a01b0319166001600160a01b038416179055801561070c576000805461ff00191690555050565b80516020808301516040516bffffffffffffffffffffffff19606094851b811693820193909352921b16603482015260026048820152600090819060680160408051601f198184030181529190528051602090910120606b54909150600090610dfa906001600160a01b03168361283e565b6033546001600160a01b03163314611cda5760405162461bcd60e51b815260206004820181905260248201527f4f776e61626c653a2063616c6c6572206973206e6f7420746865206f776e65726044820152606401610789565b6001600160a01b038116611ced57600080fd5b606780546001600160a01b0319166001600160a01b0392909216919091179055565b6000818152606a60209081526040808320815180830190925280546001600160a01b03908116808452600190920154169282019290925290611d545750600092915050565b611ad381610e02565b6000818152606a60209081526040808320815180830190925280546001600160a01b03908116808452600190920154169282019290925290611da25750600092915050565b611ad381611c0e565b6000611ad382846133bd565b604080518082019091526001600160a01b03808416825282166020820152600090610dfa81611c0e565b606b546001600160a01b031615611e3a5760405162461bcd60e51b815260206004820152601060248201527f416c72656164792061737369676e6564000000000000000000000000000000006044820152606401610789565b604051611e4690612f76565b604051809103906000f080158015611e62573d6000803e3d6000fd5b50606b80546001600160a01b0319166001600160a01b03929092169182179055604051639f63df1f60e01b81526000600482018190526060602483015260648201819052608060448301526084820152639f63df1f9060a401600060405180830381600087803b158015611ed557600080fd5b505af1158015610abe573d6000803e3d6000fd5b6000828152606a60209081526040808320815180830190925280546001600160a01b039081168352600190910154169181019190915281611f2982611c0e565b60405163c19ea05360e01b81526001600160a01b0386811660048301529192509082169063c19ea0539060240160206040518083038186803b158015611f6e57600080fd5b505afa158015611f82573d6000803e3d6000fd5b505050506040513d601f19601f82011682018060405250810190611fa6919061325a565b42111561079257600092505050610811565b611fc2600a6115b5565b611fcb82610b48565b6000828152606a6020908152604091829020825180840190935280546001600160a01b0390811684526001909101541690820152610b438183612a2d565b6033546001600160a01b031633146120635760405162461bcd60e51b815260206004820181905260248201527f4f776e61626c653a2063616c6c6572206973206e6f7420746865206f776e65726044820152606401610789565b6001600160a01b0381166120df5760405162461bcd60e51b815260206004820152602660248201527f4f776e61626c653a206e6577206f776e657220697320746865207a65726f206160448201527f64647265737300000000000000000000000000000000000000000000000000006064820152608401610789565b6033546040516001600160a01b038084169216907f8be0079c531659141344cd1fd0a4f28419497f9722a3daafe3b4186f6b6457e090600090a3603380546001600160a01b0319166001600160a01b0392909216919091179055565b600061214f6033546001600160a01b031690565b6001600160a01b0316336001600160a01b031614806122045750606760009054906101000a90046001600160a01b03166001600160a01b0316630d43e8ad6040518163ffffffff1660e01b815260040160206040518083038186803b1580156121b757600080fd5b505afa1580156121cb573d6000803e3d6000fd5b505050506040513d601f19601f820116820180604052508101906121ef9190612f9f565b6001600160a01b0316336001600160a01b0316145b6122505760405162461bcd60e51b815260206004820152601960248201527f4c505374616b696e673a204e6f7420617574686f72697a6564000000000000006044820152606401610789565b6000838152606a6020908152604091829020825180840190935280546001600160a01b039081168085526001909201541691830191909152612296576000915050610811565b60006122a182611c0e565b9050803b158061231f5750806001600160a01b03166318160ddd6040518163ffffffff1660e01b815260040160206040518083038186803b1580156122e557600080fd5b505afa1580156122f9573d6000803e3d6000fd5b505050506040513d601f19601f8201168201806040525081019061231d919061325a565b155b1561232f57600092505050610811565b6020820151612349906001600160a01b03163383876128ba565b6040517f59974e38000000000000000000000000000000000000000000000000000000008152600481018590526001600160a01b038216906359974e3890602401600060405180830381600087803b1580156123a457600080fd5b505af11580156123b8573d6000803e3d6000fd5b505060408051888152602081018890527f0299314386021feac38b734d748626da8e75d6abb4e6a897c0f9c8f23ff42715935001905060405180910390a1506001949350505050565b6000828152606a60209081526040808320815180830190925280546001600160a01b03908116835260019091015416918101919091528161244182611c0e565b60405163c19ea05360e01b81526001600160a01b0386811660048301529192509082169063c19ea053906024016107bc565b6033546001600160a01b031633146124cd5760405162461bcd60e51b815260206004820181905260248201527f4f776e61626c653a2063616c6c6572206973206e6f7420746865206f776e65726044820152606401610789565b6000818152606660209081526040808320805460ff191690558051848152918201929092527f77f1fcfcce67dc392d64f842056d2ec06c80986c47c910f7e79c5b23a2738d7491016108c3565b81516001600160a01b03166125715760405162461bcd60e51b815260206004820152601b60248201527f4c505374616b696e673a204e6f6e6578697374656e7420706f6f6c00000000006044820152606401610789565b61257a82611c0e565b604051632e1b8c8760e21b81526001600160a01b038381166004830152919091169063b86e321c906024015b600060405180830381600087803b1580156125c057600080fd5b505af11580156125d4573d6000803e3d6000fd5b505050505050565b82516001600160a01b03166126335760405162461bcd60e51b815260206004820152601b60248201527f4c505374616b696e673a204e6f6e6578697374656e7420706f6f6c00000000006044820152606401610789565b61263c83611c0e565b60405163079cc67960e41b81526001600160a01b0383811660048301526024820185905291909116906379cc679090604401600060405180830381600087803b15801561268857600080fd5b505af115801561269c573d6000803e3d6000fd5b50508451610b4392506001600160a01b031690508284612ae0565b80516020808301516040516bffffffffffffffffffffffff19606094851b811693820193909352921b16603482015260026048820152600090819060680160408051601f198184030181529190528051602090910120606b54909150600090612729906001600160a01b031683612b29565b60695460208601516040517f96c596710000000000000000000000000000000000000000000000000000000081526001600160a01b0391821660048201529293506000929116906396c596719060240160006040518083038186803b15801561279157600080fd5b505afa1580156127a5573d6000803e3d6000fd5b505050506040513d6000823e601f3d908101601f191682016040526127cd9190810190613154565b6020860151604051639f63df1f60e01b81529192506001600160a01b03841691639f63df1f91612803918590819060040161333b565b600060405180830381600087803b15801561281d57600080fd5b505af1158015612831573d6000803e3d6000fd5b5093979650505050505050565b6000611ad38383306040517f3d602d80600a3d3981f3363d3d373d3d3d363d730000000000000000000000008152606093841b60148201527f5af43d82803e903d91602b57fd5bf3ff000000000000000000000000000000006028820152921b6038830152604c8201526037808220606c830152605591012090565b6040516001600160a01b0380851660248301528316604482015260648101829052610abe9085907f23b872dd00000000000000000000000000000000000000000000000000000000906084015b60408051601f198184030181529190526020810180517bffffffffffffffffffffffffffffffffffffffffffffffffffffffff167fffffffff0000000000000000000000000000000000000000000000000000000090931692909217909152612be0565b600054610100900460ff1680612984575060005460ff16155b6129e75760405162461bcd60e51b815260206004820152602e60248201527f496e697469616c697a61626c653a20636f6e747261637420697320616c72656160448201526d191e481a5b9a5d1a585b1a5e995960921b6064820152608401610789565b600054610100900460ff16158015612a09576000805461ffff19166101011790555b612a11612cc5565b612a19612d76565b8015611629576000805461ff001916905550565b81516001600160a01b0316612a845760405162461bcd60e51b815260206004820152601b60248201527f4c505374616b696e673a204e6f6e6578697374656e7420706f6f6c00000000006044820152606401610789565b8151612a9b906001600160a01b03163330846128ba565b612aa482611c0e565b60405163145e612f60e11b815233600482015260248101839052600260448201526001600160a01b0391909116906328bcc25e906064016125a6565b6040516001600160a01b038316602482015260448101829052610b439084907fa9059cbb0000000000000000000000000000000000000000000000000000000090606401612907565b60006040517f3d602d80600a3d3981f3363d3d373d3d3d363d7300000000000000000000000081528360601b60148201527f5af43d82803e903d91602b57fd5bf300000000000000000000000000000000006028820152826037826000f59150506001600160a01b0381166108115760405162461bcd60e51b815260206004820152601760248201527f455243313136373a2063726561746532206661696c65640000000000000000006044820152606401610789565b6000612c35826040518060400160405280602081526020017f5361666545524332303a206c6f772d6c6576656c2063616c6c206661696c6564815250856001600160a01b0316612e6b9092919063ffffffff16565b805190915015610b435780806020019051810190612c539190613138565b610b435760405162461bcd60e51b815260206004820152602a60248201527f5361666545524332303a204552433230206f7065726174696f6e20646964206e60448201527f6f742073756363656564000000000000000000000000000000000000000000006064820152608401610789565b600054610100900460ff1680612cde575060005460ff16155b612d415760405162461bcd60e51b815260206004820152602e60248201527f496e697469616c697a61626c653a20636f6e747261637420697320616c72656160448201526d191e481a5b9a5d1a585b1a5e995960921b6064820152608401610789565b600054610100900460ff16158015612a19576000805461ffff19166101011790558015611629576000805461ff001916905550565b600054610100900460ff1680612d8f575060005460ff16155b612df25760405162461bcd60e51b815260206004820152602e60248201527f496e697469616c697a61626c653a20636f6e747261637420697320616c72656160448201526d191e481a5b9a5d1a585b1a5e995960921b6064820152608401610789565b600054610100900460ff16158015612e14576000805461ffff19166101011790555b603380546001600160a01b0319163390811790915560405181906000907f8be0079c531659141344cd1fd0a4f28419497f9722a3daafe3b4186f6b6457e0908290a3508015611629576000805461ff001916905550565b6060610dfa848460008585843b612ec45760405162461bcd60e51b815260206004820152601d60248201527f416464726573733a2063616c6c20746f206e6f6e2d636f6e74726163740000006044820152606401610789565b600080866001600160a01b03168587604051612ee0919061331f565b60006040518083038185875af1925050503d8060008114612f1d576040519150601f19603f3d011682016040523d82523d6000602084013e612f22565b606091505b5091509150612f32828286612f3d565b979650505050505050565b60608315612f4c575081611ad3565b825115612f5c5782518084602001fd5b8160405162461bcd60e51b81526004016107899190613379565b6123228061346c83390190565b600060208284031215612f94578081fd5b8135611ad381613448565b600060208284031215612fb0578081fd5b8151611ad381613448565b60008060408385031215612fcd578081fd5b8235612fd881613448565b91506020830135612fe881613448565b809150509250929050565b60008060408385031215613005578182fd5b823561301081613448565b91506020830135612fe88161345d565b60008060208385031215613032578182fd5b823567ffffffffffffffff80821115613049578384fd5b818501915085601f83011261305c578384fd5b81358181111561306a578485fd5b8660208260051b850101111561307e578485fd5b60209290920196919550909350505050565b600060208083850312156130a2578182fd5b823567ffffffffffffffff808211156130b9578384fd5b818501915085601f8301126130cc578384fd5b8135818111156130de576130de613432565b8060051b91506130ef84830161338c565b8181528481019084860184860187018a1015613109578788fd5b8795505b8386101561312b57803583526001959095019491860191860161310d565b5098975050505050505050565b600060208284031215613149578081fd5b8151611ad38161345d565b600060208284031215613165578081fd5b815167ffffffffffffffff8082111561317c578283fd5b818401915084601f83011261318f578283fd5b8151818111156131a1576131a1613432565b6131b4601f8201601f191660200161338c565b91508082528560208285010111156131ca578384fd5b6131db8160208401602086016133d5565b50949350505050565b6000604082840312156131f5578081fd5b6040516040810181811067ffffffffffffffff8211171561321857613218613432565b604052823561322681613448565b8152602083013561323681613448565b60208201529392505050565b600060208284031215613253578081fd5b5035919050565b60006020828403121561326b578081fd5b5051919050565b60008060408385031215613284578182fd5b823591506020830135612fe881613448565b600080600080608085870312156132ab578182fd5b8435935060208501356132bd81613448565b93969395505050506040820135916060013590565b600080604083850312156132e4578182fd5b50508035926020909101359150565b6000815180845261330b8160208601602086016133d5565b601f01601f19169290920160200192915050565b600082516133318184602087016133d5565b9190910192915050565b6001600160a01b038416815260606020820152600061335d60608301856132f3565b828103604084015261336f81856132f3565b9695505050505050565b602081526000611ad360208301846132f3565b604051601f8201601f1916810167ffffffffffffffff811182821017156133b5576133b5613432565b604052919050565b600082198211156133d0576133d061341c565b500190565b60005b838110156133f05781810151838201526020016133d8565b83811115610abe5750506000910152565b60006000198214156134155761341561341c565b5060010190565b634e487b7160e01b600052601160045260246000fd5b634e487b7160e01b600052604160045260246000fd5b6001600160a01b038116811461162957600080fd5b801515811461162957600080fdfe608060405234801561001057600080fd5b50612302806100206000396000f3fe608060405234801561001057600080fd5b50600436106101a35760003560e01c806379cc6790116100ee578063a9059cbb11610097578063c19ea05311610071578063c19ea05314610377578063d4b83992146103a0578063dd62ed3e146103b3578063f2fde38b146103ec57600080fd5b8063a9059cbb14610328578063ad76d6861461033b578063b86e321c1461036457600080fd5b806395d89b41116100c857806395d89b41146102fa5780639f63df1f14610302578063a457c2d71461031557600080fd5b806379cc6790146102af5780638da5cb5b146102c257806391b89fba146102e757600080fd5b8063313ce5671161015057806359974e381161012a57806359974e381461026b57806370a082311461027e578063715018a6146102a757600080fd5b8063313ce56714610236578063395093511461024557806340c10f191461025857600080fd5b806318160ddd1161018157806318160ddd1461020657806323b872dd1461020e57806328bcc25e1461022157600080fd5b806305b3ccb4146101a857806306fdde03146101ce578063095ea7b3146101e3575b600080fd5b6101bb6101b6366004611ef1565b6103ff565b6040519081526020015b60405180910390f35b6101d661046f565b6040516101c591906120ab565b6101f66101f1366004611f85565b610501565b60405190151581526020016101c5565b6067546101bb565b6101f661021c366004611f45565b610517565b61023461022f366004611fb0565b610567565b005b604051601281526020016101c5565b6101f6610253366004611f85565b610640565b610234610266366004611f85565b610677565b610234610279366004612077565b6106df565b6101bb61028c366004611ef1565b6001600160a01b031660009081526065602052604090205490565b610234610856565b6102346102bd366004611f85565b610907565b6033546001600160a01b03165b6040516001600160a01b0390911681526020016101c5565b6101bb6102f5366004611ef1565b61096b565b6101d6610976565b610234610310366004612004565b610985565b6101f6610323366004611f85565b610a74565b6101f6610336366004611f85565b610b1d565b6101bb610349366004611ef1565b6001600160a01b03166000908152609a602052604090205490565b610234610372366004611ef1565b610b2a565b6101bb610385366004611ef1565b6001600160a01b03166000908152609b602052604090205490565b6097546102cf906001600160a01b031681565b6101bb6103c1366004611f0d565b6001600160a01b03918216600090815260666020908152604080832093909416825291909152205490565b6102346103fa366004611ef1565b610c2d565b6001600160a01b03811660009081526099602090815260408083205460659092528220546098547001000000000000000000000000000000009261045f9261045a926104549161044f9190610d6c565b610d78565b90610df7565b610e35565b610469919061214e565b92915050565b60606068805461047e90612228565b80601f01602080910402602001604051908101604052809291908181526020018280546104aa90612228565b80156104f75780601f106104cc576101008083540402835291602001916104f7565b820191906000526020600020905b8154815290600101906020018083116104da57829003601f168201915b5050505050905090565b600061050e338484610e44565b50600192915050565b6000610524848484610f9d565b61055c8433610557856040518060600160405280602881526020016122a5602891396105508a336103c1565b919061108e565b610e44565b5060015b9392505050565b6033546001600160a01b031633146105c65760405162461bcd60e51b815260206004820181905260248201527f4f776e61626c653a2063616c6c6572206973206e6f7420746865206f776e657260448201526064015b60405180910390fd5b60006105d28242612136565b6001600160a01b0385166000818152609b60209081526040918290208490558151928352820186905281018290529091507fe1d6ea7b60537f263509ee48f8e298cc60801e7bddbec613b343272d897dc5e79060600160405180910390a161063a84846110ba565b50505050565b3360008181526066602090815260408083206001600160a01b0387168452909152812054909161050e918590610557908690612136565b6033546001600160a01b031633146106d15760405162461bcd60e51b815260206004820181905260248201527f4f776e61626c653a2063616c6c6572206973206e6f7420746865206f776e657260448201526064016105bd565b6106db82826110ba565b5050565b6033546001600160a01b031633146107395760405162461bcd60e51b815260206004820181905260248201527f4f776e61626c653a2063616c6c6572206973206e6f7420746865206f776e657260448201526064016105bd565b600061074460675490565b116107915760405162461bcd60e51b815260206004820152601460248201527f526577617264446973743a203020737570706c7900000000000000000000000060448201526064016105bd565b600081116107e15760405162461bcd60e51b815260206004820152601460248201527f526577617264446973743a203020616d6f756e7400000000000000000000000060448201526064016105bd565b61081b6107ed60675490565b61080883700100000000000000000000000000000000610d6c565b610812919061214e565b6098549061111e565b60985560405181815233907fdf29796aad820e4bb192f3a8d631b76519bcd2cbe77cc85af20e9df53cece0869060200160405180910390a250565b6033546001600160a01b031633146108b05760405162461bcd60e51b815260206004820181905260248201527f4f776e61626c653a2063616c6c6572206973206e6f7420746865206f776e657260448201526064016105bd565b6033546040516000916001600160a01b0316907f8be0079c531659141344cd1fd0a4f28419497f9722a3daafe3b4186f6b6457e0908390a36033805473ffffffffffffffffffffffffffffffffffffffff19169055565b6033546001600160a01b031633146109615760405162461bcd60e51b815260206004820181905260248201527f4f776e61626c653a2063616c6c6572206973206e6f7420746865206f776e657260448201526064016105bd565b6106db828261112a565b6000610469826111c3565b60606069805461047e90612228565b600054610100900460ff168061099e575060005460ff16155b610a015760405162461bcd60e51b815260206004820152602e60248201527f496e697469616c697a61626c653a20636f6e747261637420697320616c72656160448201526d191e481a5b9a5d1a585b1a5e995960921b60648201526084016105bd565b600054610100900460ff16158015610a23576000805461ffff19166101011790555b610a2b6111ef565b610a3583836112b2565b6097805473ffffffffffffffffffffffffffffffffffffffff19166001600160a01b038616179055801561063a576000805461ff001916905550505050565b3360009081526066602090815260408083206001600160a01b038616845290915281205482811015610b0e5760405162461bcd60e51b815260206004820152602560248201527f45524332303a2064656372656173656420616c6c6f77616e63652062656c6f7760448201527f207a65726f00000000000000000000000000000000000000000000000000000060648201526084016105bd565b61055c338561055786856121e5565b600061050e338484610f9d565b6033546001600160a01b03163314610b845760405162461bcd60e51b815260206004820181905260248201527f4f776e61626c653a2063616c6c6572206973206e6f7420746865206f776e657260448201526064016105bd565b6000610b8f826111c3565b905080156106db576001600160a01b0382166000908152609a6020526040902054610bba908261111e565b6001600160a01b038084166000908152609a6020526040902091909155609754610be691168383611379565b816001600160a01b03167f1d3eee4ca001cff39eec6ec7615aacf2f2bd61791273830728ba00ccbd6e133782604051610c2191815260200190565b60405180910390a25050565b6033546001600160a01b03163314610c875760405162461bcd60e51b815260206004820181905260248201527f4f776e61626c653a2063616c6c6572206973206e6f7420746865206f776e657260448201526064016105bd565b6001600160a01b038116610d035760405162461bcd60e51b815260206004820152602660248201527f4f776e61626c653a206e6577206f776e657220697320746865207a65726f206160448201527f646472657373000000000000000000000000000000000000000000000000000060648201526084016105bd565b6033546040516001600160a01b038084169216907f8be0079c531659141344cd1fd0a4f28419497f9722a3daafe3b4186f6b6457e090600090a36033805473ffffffffffffffffffffffffffffffffffffffff19166001600160a01b0392909216919091179055565b6000610560828461216e565b6000600160ff1b8210610df35760405162461bcd60e51b815260206004820152602860248201527f53616665436173743a2076616c756520646f65736e27742066697420696e206160448201527f6e20696e7432353600000000000000000000000000000000000000000000000060648201526084016105bd565b5090565b600080610e0483856120de565b905060008312158015610e175750838112155b80610e2c5750600083128015610e2c57508381125b61056057600080fd5b600080821215610df357600080fd5b6001600160a01b038316610ebf5760405162461bcd60e51b8152602060048201526024808201527f45524332303a20617070726f76652066726f6d20746865207a65726f2061646460448201527f726573730000000000000000000000000000000000000000000000000000000060648201526084016105bd565b6001600160a01b038216610f3b5760405162461bcd60e51b815260206004820152602260248201527f45524332303a20617070726f766520746f20746865207a65726f20616464726560448201527f737300000000000000000000000000000000000000000000000000000000000060648201526084016105bd565b6001600160a01b0383811660008181526066602090815260408083209487168084529482529182902085905590518481527f8c5be1e5ebec7d5bd14f71427d1e84f3dd0314c0f7b2291e5b200ac8c7c3b92591015b60405180910390a3505050565b6001600160a01b0383166000908152609b60205260409020544211610ff25760405162461bcd60e51b815260206004820152600b60248201526a155cd95c881b1bd8dad95960aa1b60448201526064016105bd565b610ffd8383836113f9565b600061101761044f83609854610d6c90919063ffffffff16565b6001600160a01b03851660009081526099602052604090205490915061103d9082610df7565b6001600160a01b03808616600090815260996020526040808220939093559085168152205461106c908261161a565b6001600160a01b03909316600090815260996020526040902092909255505050565b600081848411156110b25760405162461bcd60e51b81526004016105bd91906120ab565b505050900390565b6110c48282611666565b6110fe6110df61044f83609854610d6c90919063ffffffff16565b6001600160a01b0384166000908152609960205260409020549061161a565b6001600160a01b0390921660009081526099602052604090209190915550565b60006105608284612136565b6001600160a01b0382166000908152609b6020526040902054421161117f5760405162461bcd60e51b815260206004820152600b60248201526a155cd95c881b1bd8dad95960aa1b60448201526064016105bd565b6111898282611745565b6110fe6111a461044f83609854610d6c90919063ffffffff16565b6001600160a01b03841660009081526099602052604090205490610df7565b6001600160a01b0381166000908152609a6020526040812054610469906111e9846103ff565b906118cb565b600054610100900460ff1680611208575060005460ff16155b61126b5760405162461bcd60e51b815260206004820152602e60248201527f496e697469616c697a61626c653a20636f6e747261637420697320616c72656160448201526d191e481a5b9a5d1a585b1a5e995960921b60648201526084016105bd565b600054610100900460ff1615801561128d576000805461ffff19166101011790555b6112956118d7565b61129d611988565b80156112af576000805461ff00191690555b50565b600054610100900460ff16806112cb575060005460ff16155b61132e5760405162461bcd60e51b815260206004820152602e60248201527f496e697469616c697a61626c653a20636f6e747261637420697320616c72656160448201526d191e481a5b9a5d1a585b1a5e995960921b60648201526084016105bd565b600054610100900460ff16158015611350576000805461ffff19166101011790555b6113586118d7565b6113628383611a8a565b8015611374576000805461ff00191690555b505050565b604080516001600160a01b038416602482015260448082018490528251808303909101815260649091019091526020810180517bffffffffffffffffffffffffffffffffffffffffffffffffffffffff167fa9059cbb00000000000000000000000000000000000000000000000000000000179052611374908490611b66565b6001600160a01b0383166114755760405162461bcd60e51b815260206004820152602560248201527f45524332303a207472616e736665722066726f6d20746865207a65726f20616460448201527f647265737300000000000000000000000000000000000000000000000000000060648201526084016105bd565b6001600160a01b0382166114f15760405162461bcd60e51b815260206004820152602360248201527f45524332303a207472616e7366657220746f20746865207a65726f206164647260448201527f657373000000000000000000000000000000000000000000000000000000000060648201526084016105bd565b6001600160a01b038316600090815260656020526040902054818110156115805760405162461bcd60e51b815260206004820152602660248201527f45524332303a207472616e7366657220616d6f756e742065786365656473206260448201527f616c616e6365000000000000000000000000000000000000000000000000000060648201526084016105bd565b61158a82826121e5565b6001600160a01b0380861660009081526065602052604080822093909355908516815290812080548492906115c0908490612136565b92505081905550826001600160a01b0316846001600160a01b03167fddf252ad1be2c89b69c2b068fc378daa952ba7f163c4a11628f55a4df523b3ef8460405161160c91815260200190565b60405180910390a350505050565b6000808212158015611635575082611632838261218d565b13155b806116535750600082128015611653575082611651838261218d565b135b61165c57600080fd5b610560828461218d565b6001600160a01b0382166116bc5760405162461bcd60e51b815260206004820152601f60248201527f45524332303a206d696e7420746f20746865207a65726f20616464726573730060448201526064016105bd565b80606760008282546116ce9190612136565b90915550506001600160a01b038216600090815260656020526040812080548392906116fb908490612136565b90915550506040518181526001600160a01b038316906000907fddf252ad1be2c89b69c2b068fc378daa952ba7f163c4a11628f55a4df523b3ef9060200160405180910390a35050565b6001600160a01b0382166117c15760405162461bcd60e51b815260206004820152602160248201527f45524332303a206275726e2066726f6d20746865207a65726f2061646472657360448201527f730000000000000000000000000000000000000000000000000000000000000060648201526084016105bd565b6001600160a01b038216600090815260656020526040902054818110156118505760405162461bcd60e51b815260206004820152602260248201527f45524332303a206275726e20616d6f756e7420657863656564732062616c616e60448201527f636500000000000000000000000000000000000000000000000000000000000060648201526084016105bd565b61185a82826121e5565b6001600160a01b038416600090815260656020526040812091909155606780548492906118889084906121e5565b90915550506040518281526000906001600160a01b038516907fddf252ad1be2c89b69c2b068fc378daa952ba7f163c4a11628f55a4df523b3ef90602001610f90565b600061056082846121e5565b600054610100900460ff16806118f0575060005460ff16155b6119535760405162461bcd60e51b815260206004820152602e60248201527f496e697469616c697a61626c653a20636f6e747261637420697320616c72656160448201526d191e481a5b9a5d1a585b1a5e995960921b60648201526084016105bd565b600054610100900460ff1615801561129d576000805461ffff191661010117905580156112af576000805461ff001916905550565b600054610100900460ff16806119a1575060005460ff16155b611a045760405162461bcd60e51b815260206004820152602e60248201527f496e697469616c697a61626c653a20636f6e747261637420697320616c72656160448201526d191e481a5b9a5d1a585b1a5e995960921b60648201526084016105bd565b600054610100900460ff16158015611a26576000805461ffff19166101011790555b6033805473ffffffffffffffffffffffffffffffffffffffff19163390811790915560405181906000907f8be0079c531659141344cd1fd0a4f28419497f9722a3daafe3b4186f6b6457e0908290a35080156112af576000805461ff001916905550565b600054610100900460ff1680611aa3575060005460ff16155b611b065760405162461bcd60e51b815260206004820152602e60248201527f496e697469616c697a61626c653a20636f6e747261637420697320616c72656160448201526d191e481a5b9a5d1a585b1a5e995960921b60648201526084016105bd565b600054610100900460ff16158015611b28576000805461ffff19166101011790555b8251611b3b906068906020860190611dda565b508151611b4f906069906020850190611dda565b508015611374576000805461ff0019169055505050565b6000611bbb826040518060400160405280602081526020017f5361666545524332303a206c6f772d6c6576656c2063616c6c206661696c6564815250856001600160a01b0316611c4b9092919063ffffffff16565b8051909150156113745780806020019051810190611bd99190611fe4565b6113745760405162461bcd60e51b815260206004820152602a60248201527f5361666545524332303a204552433230206f7065726174696f6e20646964206e60448201527f6f7420737563636565640000000000000000000000000000000000000000000060648201526084016105bd565b6060611c5a8484600085611c62565b949350505050565b606082471015611cda5760405162461bcd60e51b815260206004820152602660248201527f416464726573733a20696e73756666696369656e742062616c616e636520666f60448201527f722063616c6c000000000000000000000000000000000000000000000000000060648201526084016105bd565b843b611d285760405162461bcd60e51b815260206004820152601d60248201527f416464726573733a2063616c6c20746f206e6f6e2d636f6e747261637400000060448201526064016105bd565b600080866001600160a01b03168587604051611d44919061208f565b60006040518083038185875af1925050503d8060008114611d81576040519150601f19603f3d011682016040523d82523d6000602084013e611d86565b606091505b5091509150611d96828286611da1565b979650505050505050565b60608315611db0575081610560565b825115611dc05782518084602001fd5b8160405162461bcd60e51b81526004016105bd91906120ab565b828054611de690612228565b90600052602060002090601f016020900481019282611e085760008555611e4e565b82601f10611e2157805160ff1916838001178555611e4e565b82800160010185558215611e4e579182015b82811115611e4e578251825591602001919060010190611e33565b50610df39291505b80821115610df35760008155600101611e56565b600082601f830112611e7a578081fd5b813567ffffffffffffffff80821115611e9557611e95612279565b604051601f8301601f19908116603f01168101908282118183101715611ebd57611ebd612279565b81604052838152866020858801011115611ed5578485fd5b8360208701602083013792830160200193909352509392505050565b600060208284031215611f02578081fd5b81356105608161228f565b60008060408385031215611f1f578081fd5b8235611f2a8161228f565b91506020830135611f3a8161228f565b809150509250929050565b600080600060608486031215611f59578081fd5b8335611f648161228f565b92506020840135611f748161228f565b929592945050506040919091013590565b60008060408385031215611f97578182fd5b8235611fa28161228f565b946020939093013593505050565b600080600060608486031215611fc4578283fd5b8335611fcf8161228f565b95602085013595506040909401359392505050565b600060208284031215611ff5578081fd5b81518015158114610560578182fd5b600080600060608486031215612018578283fd5b83356120238161228f565b9250602084013567ffffffffffffffff8082111561203f578384fd5b61204b87838801611e6a565b93506040860135915080821115612060578283fd5b5061206d86828701611e6a565b9150509250925092565b600060208284031215612088578081fd5b5035919050565b600082516120a18184602087016121fc565b9190910192915050565b60208152600082518060208401526120ca8160408501602087016121fc565b601f01601f19169190910160400192915050565b6000808212827f7fffffffffffffffffffffffffffffffffffffffffffffffffffffffffffffff0384138115161561211857612118612263565b82600160ff1b03841281161561213057612130612263565b50500190565b6000821982111561214957612149612263565b500190565b60008261216957634e487b7160e01b81526012600452602481fd5b500490565b600081600019048311821515161561218857612188612263565b500290565b600080831283600160ff1b018312811516156121ab576121ab612263565b837f7fffffffffffffffffffffffffffffffffffffffffffffffffffffffffffffff0183138116156121df576121df612263565b50500390565b6000828210156121f7576121f7612263565b500390565b60005b838110156122175781810151838201526020016121ff565b8381111561063a5750506000910152565b600181811c9082168061223c57607f821691505b6020821081141561225d57634e487b7160e01b600052602260045260246000fd5b50919050565b634e487b7160e01b600052601160045260246000fd5b634e487b7160e01b600052604160045260246000fd5b6001600160a01b03811681146112af57600080fdfe45524332303a207472616e7366657220616d6f756e74206578636565647320616c6c6f77616e6365a2646970667358221220de74982ffe33f8961ccc77136fd94d697cdb619be852865bd346cb10c298fc8a64736f6c63430008040033a264697066735822122025cd375f0abae933bf1795b6976408a3550d2b2315f711f6f0b1c080daac3fc864736f6c63430008040033",
  "linkReferences": {},
  "deployedLinkReferences": {}
}