{"abi":[{"type":"function","name":"CONTRACT_GOVERNANCE_ROLE","inputs":[],"outputs":[{"name":"","type":"bytes32","internalType":"bytes32"}],"stateMutability":"view"},{"type":"function","name":"INITIAL_VESTING_DURATION","inputs":[],"outputs":[{"name":"","type":"uint256","internalType":"uint256"}],"stateMutability":"view"},{"type":"function","name":"PAUSER_ROLE","inputs":[],"outputs":[{"name":"","type":"bytes32","internalType":"bytes32"}],"stateMutability":"view"},{"type":"function","name":"UNPAUSER_ROLE","inputs":[],"outputs":[{"name":"","type":"bytes32","internalType":"bytes32"}],"stateMutability":"view"},{"type":"function","name":"__GlobalAccessControlManaged_init","inputs":[{"name":"_globalAccessControl","type":"address","internalType":"address"}],"outputs":[],"stateMutability":"nonpayable"},{"type":"function","name":"claim","inputs":[{"name":"recipient","type":"address","internalType":"address"},{"name":"amount","type":"uint256","internalType":"uint256"}],"outputs":[],"stateMutability":"nonpayable"},{"type":"function","name":"claimableBalance","inputs":[{"name":"recipient","type":"address","internalType":"address"}],"outputs":[{"name":"","type":"uint256","internalType":"uint256"}],"stateMutability":"view"},{"type":"function","name":"gac","inputs":[],"outputs":[{"name":"","type":"address","internalType":"contract IGac"}],"stateMutability":"view"},{"type":"function","name":"initialize","inputs":[{"name":"_gac","type":"address","internalType":"address"},{"name":"_vestingToken","type":"address","internalType":"address"},{"name":"_vault","type":"address","internalType":"address"}],"outputs":[],"stateMutability":"nonpayable"},{"type":"function","name":"pause","inputs":[],"outputs":[],"stateMutability":"nonpayable"},{"type":"function","name":"paused","inputs":[],"outputs":[{"name":"","type":"bool","internalType":"bool"}],"stateMutability":"view"},{"type":"function","name":"setVestingDuration","inputs":[{"name":"_duration","type":"uint256","internalType":"uint256"}],"outputs":[],"stateMutability":"nonpayable"},{"type":"function","name":"unpause","inputs":[],"outputs":[],"stateMutability":"nonpayable"},{"type":"function","name":"vault","inputs":[],"outputs":[{"name":"","type":"address","internalType":"address"}],"stateMutability":"view"},{"type":"function","name":"vest","inputs":[{"name":"recipient","type":"address","internalType":"address"},{"name":"_amount","type":"uint256","internalType":"uint256"},{"name":"_unlockBegin","type":"uint256","internalType":"uint256"}],"outputs":[],"stateMutability":"nonpayable"},{"type":"function","name":"vesting","inputs":[{"name":"","type":"address","internalType":"address"}],"outputs":[{"name":"unlockBegin","type":"uint256","internalType":"uint256"},{"name":"unlockEnd","type":"uint256","internalType":"uint256"},{"name":"lockedAmounts","type":"uint256","internalType":"uint256"},{"name":"claimedAmounts","type":"uint256","internalType":"uint256"}],"stateMutability":"view"},{"type":"function","name":"vestingDuration","inputs":[],"outputs":[{"name":"","type":"uint256","internalType":"uint256"}],"stateMutability":"view"},{"type":"function","name":"vestingToken","inputs":[],"outputs":[{"name":"","type":"address","internalType":"contract IERC20Upgradeable"}],"stateMutability":"view"},{"type":"event","name":"Claimed","inputs":[{"name":"owner","type":"address","indexed":true,"internalType":"address"},{"name":"recipient","type":"address","indexed":true,"internalType":"address"},{"name":"amount","type":"uint256","indexed":false,"internalType":"uint256"}],"anonymous":false},{"type":"event","name":"Paused","inputs":[{"name":"account","type":"address","indexed":false,"internalType":"address"}],"anonymous":false},{"type":"event","name":"SetVestingDuration","inputs":[{"name":"duration","type":"uint256","indexed":false,"internalType":"uint256"}],"anonymous":false},{"type":"event","name":"Unpaused","inputs":[{"name":"account","type":"address","indexed":false,"internalType":"address"}],"anonymous":false},{"type":"event","name":"Vest","inputs":[{"name":"recipient","type":"address","indexed":true,"internalType":"address"},{"name":"_amount","type":"uint256","indexed":false,"internalType":"uint256"},{"name":"_unlockBegin","type":"uint256","indexed":false,"internalType":"uint256"},{"name":"_unlockEnd","type":"uint256","indexed":false,"internalType":"uint256"}],"anonymous":false}],"bytecode":{"object":"0x608060405234801561001057600080fd5b506122bb806100206000396000f3fe608060405234801561001057600080fd5b50600436106101165760003560e01c80637a3dbd6a116100a2578063e388c42311610071578063e388c42314610281578063e63ab1e9146102b4578063f4e79fc3146102d2578063fb1bb9de146102f0578063fbfa77cf1461030e57610116565b80637a3dbd6a146102235780638456cb591461023f578063aad3ec9614610249578063c0c53b8b1461026557610116565b80632546de10116100e95780632546de10146101915780633f4ba83a146101ad578063459fb390146101b75780635c975abb146101d557806360f3309b146101f357610116565b80630b0cca891461011b5780630ffbdcaa146101395780631514617e1461015557806319d152fa14610173575b600080fd5b61012361032c565b6040516101309190611616565b60405180910390f35b610153600480360381019061014e919061166c565b610350565b005b61015d610490565b60405161016a91906116a8565b60405180910390f35b61017b610496565b6040516101889190611742565b60405180910390f35b6101ab60048036038101906101a6919061179b565b6104bc565b005b6101b5610799565b005b6101bf61086a565b6040516101cc91906116a8565b60405180910390f35b6101dd610871565b6040516101ea9190611809565b60405180910390f35b61020d60048036038101906102089190611824565b610888565b60405161021a91906116a8565b60405180910390f35b61023d60048036038101906102389190611824565b610a7d565b005b610247610b18565b005b610263600480360381019061025e9190611851565b610be9565b005b61027f600480360381019061027a9190611891565b610d56565b005b61029b60048036038101906102969190611824565b610fba565b6040516102ab94939291906118e4565b60405180910390f35b6102bc610fea565b6040516102c99190611616565b60405180910390f35b6102da61100e565b6040516102e7919061194a565b60405180910390f35b6102f8611034565b6040516103059190611616565b60405180910390f35b610316611058565b6040516103239190611974565b60405180910390f35b7f32522ae3fcc93c551ea7d30f39aaf5cf6e316c65a500706f77e9ecdd09ee113681565b7f32522ae3fcc93c551ea7d30f39aaf5cf6e316c65a500706f77e9ecdd09ee1136606560009054906101000a900473ffffffffffffffffffffffffffffffffffffffff1673ffffffffffffffffffffffffffffffffffffffff166391d1485482336040518363ffffffff1660e01b81526004016103ce92919061198f565b602060405180830381865afa1580156103eb573d6000803e3d6000fd5b505050506040513d601f19601f8201168201806040525081019061040f91906119e4565b61044e576040517f08c379a000000000000000000000000000000000000000000000000000000000815260040161044590611a6e565b60405180910390fd5b81609b819055507f2f641b9127ea5ab15f2bbda7c83f99e0fa3996ad790ce27c961c53116f6299108260405161048491906116a8565b60405180910390a15050565b609b5481565b609860009054906101000a900473ffffffffffffffffffffffffffffffffffffffff1681565b609960009054906101000a900473ffffffffffffffffffffffffffffffffffffffff1673ffffffffffffffffffffffffffffffffffffffff163373ffffffffffffffffffffffffffffffffffffffff161461054c576040517f08c379a000000000000000000000000000000000000000000000000000000000815260040161054390611b00565b60405180910390fd5b6000821161058f576040517f08c379a000000000000000000000000000000000000000000000000000000000815260040161058690611b92565b60405180910390fd5b81609a60008573ffffffffffffffffffffffffffffffffffffffff1673ffffffffffffffffffffffffffffffffffffffff168152602001908152602001600020600201546105dd9190611be1565b609a60008573ffffffffffffffffffffffffffffffffffffffff1673ffffffffffffffffffffffffffffffffffffffff1681526020019081526020016000206002018190555080609a60008573ffffffffffffffffffffffffffffffffffffffff1673ffffffffffffffffffffffffffffffffffffffff16815260200190815260200160002060000181905550609b54816106789190611be1565b609a60008573ffffffffffffffffffffffffffffffffffffffff1673ffffffffffffffffffffffffffffffffffffffff168152602001908152602001600020600101819055508273ffffffffffffffffffffffffffffffffffffffff167f830e279449af3d754a4667acaa6e90dedd7a8b466dd3f232bd2db88e6e77693a609a60008673ffffffffffffffffffffffffffffffffffffffff1673ffffffffffffffffffffffffffffffffffffffff1681526020019081526020016000206002015483609a60008873ffffffffffffffffffffffffffffffffffffffff1673ffffffffffffffffffffffffffffffffffffffff1681526020019081526020016000206001015460405161078c93929190611c37565b60405180910390a2505050565b606560009054906101000a900473ffffffffffffffffffffffffffffffffffffffff1673ffffffffffffffffffffffffffffffffffffffff166391d148547f427da25fe773164f88948d3e215c94b6554e2ed5e5f203a821c9f2f6131cf75a336040518363ffffffff1660e01b815260040161081692919061198f565b602060405180830381865afa158015610833573d6000803e3d6000fd5b505050506040513d601f19601f8201168201806040525081019061085791906119e4565b61086057600080fd5b61086861107e565b565b621baf8081565b6000603360009054906101000a900460ff16905090565b600080609a60008473ffffffffffffffffffffffffffffffffffffffff1673ffffffffffffffffffffffffffffffffffffffff1681526020019081526020016000206002015490506000609a60008573ffffffffffffffffffffffffffffffffffffffff1673ffffffffffffffffffffffffffffffffffffffff168152602001908152602001600020600301549050609a60008573ffffffffffffffffffffffffffffffffffffffff1673ffffffffffffffffffffffffffffffffffffffff16815260200190815260200160002060010154421061097557808261096c9190611c6e565b92505050610a78565b80609a60008673ffffffffffffffffffffffffffffffffffffffff1673ffffffffffffffffffffffffffffffffffffffff16815260200190815260200160002060000154609a60008773ffffffffffffffffffffffffffffffffffffffff1673ffffffffffffffffffffffffffffffffffffffff16815260200190815260200160002060010154610a069190611c6e565b609a60008773ffffffffffffffffffffffffffffffffffffffff1673ffffffffffffffffffffffffffffffffffffffff1681526020019081526020016000206000015442610a549190611c6e565b84610a5f9190611ca2565b610a699190611d2b565b610a739190611c6e565b925050505b919050565b600060019054906101000a900460ff16610acc576040517f08c379a0000000000000000000000000000000000000000000000000000000008152600401610ac390611dce565b60405180910390fd5b610ad4611120565b80606560006101000a81548173ffffffffffffffffffffffffffffffffffffffff021916908373ffffffffffffffffffffffffffffffffffffffff16021790555050565b606560009054906101000a900473ffffffffffffffffffffffffffffffffffffffff1673ffffffffffffffffffffffffffffffffffffffff166391d148547f65d7a28e3265b37a6474929f336521b332c1681b933f6cb9f3376673440d862a336040518363ffffffff1660e01b8152600401610b9592919061198f565b602060405180830381865afa158015610bb2573d6000803e3d6000fd5b505050506040513d601f19601f82011682018060405250810190610bd691906119e4565b610bdf57600080fd5b610be761118c565b565b6000610bf433610888565b905080821115610c02578091505b60008214610d515781609a60003373ffffffffffffffffffffffffffffffffffffffff1673ffffffffffffffffffffffffffffffffffffffff16815260200190815260200160002060030154610c589190611be1565b609a60003373ffffffffffffffffffffffffffffffffffffffff1673ffffffffffffffffffffffffffffffffffffffff16815260200190815260200160002060030181905550610ceb8383609860009054906101000a900473ffffffffffffffffffffffffffffffffffffffff1673ffffffffffffffffffffffffffffffffffffffff1661122f9092919063ffffffff16565b8273ffffffffffffffffffffffffffffffffffffffff163373ffffffffffffffffffffffffffffffffffffffff167ff7a40077ff7a04c7e61f6f26fb13774259ddf1b6bce9ecf26a8276cdd399268384604051610d4891906116a8565b60405180910390a35b505050565b600060019054906101000a900460ff16610d7e5760008054906101000a900460ff1615610d87565b610d866112b5565b5b610dc6576040517f08c379a0000000000000000000000000000000000000000000000000000000008152600401610dbd90611e60565b60405180910390fd5b60008060019054906101000a900460ff161590508015610e16576001600060016101000a81548160ff02191690831515021790555060016000806101000a81548160ff0219169083151502179055505b600073ffffffffffffffffffffffffffffffffffffffff168373ffffffffffffffffffffffffffffffffffffffff161415610e86576040517f08c379a0000000000000000000000000000000000000000000000000000000008152600401610e7d90611ecc565b60405180910390fd5b600073ffffffffffffffffffffffffffffffffffffffff168273ffffffffffffffffffffffffffffffffffffffff161415610ef6576040517f08c379a0000000000000000000000000000000000000000000000000000000008152600401610eed90611ecc565b60405180910390fd5b610eff84610a7d565b610f076112c6565b621baf80609b8190555082609860006101000a81548173ffffffffffffffffffffffffffffffffffffffff021916908373ffffffffffffffffffffffffffffffffffffffff16021790555081609960006101000a81548173ffffffffffffffffffffffffffffffffffffffff021916908373ffffffffffffffffffffffffffffffffffffffff1602179055508015610fb45760008060016101000a81548160ff0219169083151502179055505b50505050565b609a6020528060005260406000206000915090508060000154908060010154908060020154908060030154905084565b7f65d7a28e3265b37a6474929f336521b332c1681b933f6cb9f3376673440d862a81565b606560009054906101000a900473ffffffffffffffffffffffffffffffffffffffff1681565b7f427da25fe773164f88948d3e215c94b6554e2ed5e5f203a821c9f2f6131cf75a81565b609960009054906101000a900473ffffffffffffffffffffffffffffffffffffffff1681565b611086610871565b6110c5576040517f08c379a00000000000000000000000000000000000000000000000000000000081526004016110bc90611f38565b60405180910390fd5b6000603360006101000a81548160ff0219169083151502179055507f5db9ee0a495bf2e6ff9c91a7834c1ba4fdd244a5e8aa4e537bd38aeae4b073aa61110961131f565b6040516111169190611974565b60405180910390a1565b600060019054906101000a900460ff1661116f576040517f08c379a000000000000000000000000000000000000000000000000000000000815260040161116690611dce565b60405180910390fd5b6000603360006101000a81548160ff021916908315150217905550565b611194610871565b156111d4576040517f08c379a00000000000000000000000000000000000000000000000000000000081526004016111cb90611fa4565b60405180910390fd5b6001603360006101000a81548160ff0219169083151502179055507f62e78cea01bee320cd4e420270b5ea74000d11b0c9f74754ebdbfc544b05a25861121861131f565b6040516112259190611974565b60405180910390a1565b6112b08363a9059cbb60e01b848460405160240161124e929190611fc4565b604051602081830303815290604052907bffffffffffffffffffffffffffffffffffffffffffffffffffffffff19166020820180517bffffffffffffffffffffffffffffffffffffffffffffffffffffffff8381831617835250505050611327565b505050565b60006112c0306113ee565b15905090565b600060019054906101000a900460ff16611315576040517f08c379a000000000000000000000000000000000000000000000000000000000815260040161130c90611dce565b60405180910390fd5b61131d611411565b565b600033905090565b6000611389826040518060400160405280602081526020017f5361666545524332303a206c6f772d6c6576656c2063616c6c206661696c65648152508573ffffffffffffffffffffffffffffffffffffffff1661146a9092919063ffffffff16565b90506000815111156113e957808060200190518101906113a991906119e4565b6113e8576040517f08c379a00000000000000000000000000000000000000000000000000000000081526004016113df9061205f565b60405180910390fd5b5b505050565b6000808273ffffffffffffffffffffffffffffffffffffffff163b119050919050565b600060019054906101000a900460ff16611460576040517f08c379a000000000000000000000000000000000000000000000000000000000815260040161145790611dce565b60405180910390fd5b6001606681905550565b60606114798484600085611482565b90509392505050565b6060824710156114c7576040517f08c379a00000000000000000000000000000000000000000000000000000000081526004016114be906120f1565b60405180910390fd5b6114d0856113ee565b61150f576040517f08c379a00000000000000000000000000000000000000000000000000000000081526004016115069061215d565b60405180910390fd5b6000808673ffffffffffffffffffffffffffffffffffffffff16858760405161153891906121f7565b60006040518083038185875af1925050503d8060008114611575576040519150601f19603f3d011682016040523d82523d6000602084013e61157a565b606091505b509150915061158a828286611596565b92505050949350505050565b606083156115a6578290506115f6565b6000835111156115b95782518084602001fd5b816040517f08c379a00000000000000000000000000000000000000000000000000000000081526004016115ed9190612263565b60405180910390fd5b9392505050565b6000819050919050565b611610816115fd565b82525050565b600060208201905061162b6000830184611607565b92915050565b600080fd5b6000819050919050565b61164981611636565b811461165457600080fd5b50565b60008135905061166681611640565b92915050565b60006020828403121561168257611681611631565b5b600061169084828501611657565b91505092915050565b6116a281611636565b82525050565b60006020820190506116bd6000830184611699565b92915050565b600073ffffffffffffffffffffffffffffffffffffffff82169050919050565b6000819050919050565b60006117086117036116fe846116c3565b6116e3565b6116c3565b9050919050565b600061171a826116ed565b9050919050565b600061172c8261170f565b9050919050565b61173c81611721565b82525050565b60006020820190506117576000830184611733565b92915050565b6000611768826116c3565b9050919050565b6117788161175d565b811461178357600080fd5b50565b6000813590506117958161176f565b92915050565b6000806000606084860312156117b4576117b3611631565b5b60006117c286828701611786565b93505060206117d386828701611657565b92505060406117e486828701611657565b9150509250925092565b60008115159050919050565b611803816117ee565b82525050565b600060208201905061181e60008301846117fa565b92915050565b60006020828403121561183a57611839611631565b5b600061184884828501611786565b91505092915050565b6000806040838503121561186857611867611631565b5b600061187685828601611786565b925050602061188785828601611657565b9150509250929050565b6000806000606084860312156118aa576118a9611631565b5b60006118b886828701611786565b93505060206118c986828701611786565b92505060406118da86828701611786565b9150509250925092565b60006080820190506118f96000830187611699565b6119066020830186611699565b6119136040830185611699565b6119206060830184611699565b95945050505050565b60006119348261170f565b9050919050565b61194481611929565b82525050565b600060208201905061195f600083018461193b565b92915050565b61196e8161175d565b82525050565b60006020820190506119896000830184611965565b92915050565b60006040820190506119a46000830185611607565b6119b16020830184611965565b9392505050565b6119c1816117ee565b81146119cc57600080fd5b50565b6000815190506119de816119b8565b92915050565b6000602082840312156119fa576119f9611631565b5b6000611a08848285016119cf565b91505092915050565b600082825260208201905092915050565b7f4741433a20696e76616c69642d63616c6c65722d726f6c650000000000000000600082015250565b6000611a58601883611a11565b9150611a6382611a22565b602082019050919050565b60006020820190508181036000830152611a8781611a4b565b9050919050565b7f5374616b65644369746164656c5665737465723a206f6e6c7920784354444c2060008201527f7661756c74000000000000000000000000000000000000000000000000000000602082015250565b6000611aea602583611a11565b9150611af582611a8e565b604082019050919050565b60006020820190508181036000830152611b1981611add565b9050919050565b7f5374616b65644369746164656c5665737465723a2063616e6e6f74207665737460008201527f2030000000000000000000000000000000000000000000000000000000000000602082015250565b6000611b7c602283611a11565b9150611b8782611b20565b604082019050919050565b60006020820190508181036000830152611bab81611b6f565b9050919050565b7f4e487b7100000000000000000000000000000000000000000000000000000000600052601160045260246000fd5b6000611bec82611636565b9150611bf783611636565b9250827fffffffffffffffffffffffffffffffffffffffffffffffffffffffffffffffff03821115611c2c57611c2b611bb2565b5b828201905092915050565b6000606082019050611c4c6000830186611699565b611c596020830185611699565b611c666040830184611699565b949350505050565b6000611c7982611636565b9150611c8483611636565b925082821015611c9757611c96611bb2565b5b828203905092915050565b6000611cad82611636565b9150611cb883611636565b9250817fffffffffffffffffffffffffffffffffffffffffffffffffffffffffffffffff0483118215151615611cf157611cf0611bb2565b5b828202905092915050565b7f4e487b7100000000000000000000000000000000000000000000000000000000600052601260045260246000fd5b6000611d3682611636565b9150611d4183611636565b925082611d5157611d50611cfc565b5b828204905092915050565b7f496e697469616c697a61626c653a20636f6e7472616374206973206e6f74206960008201527f6e697469616c697a696e67000000000000000000000000000000000000000000602082015250565b6000611db8602b83611a11565b9150611dc382611d5c565b604082019050919050565b60006020820190508181036000830152611de781611dab565b9050919050565b7f496e697469616c697a61626c653a20636f6e747261637420697320616c72656160008201527f647920696e697469616c697a6564000000000000000000000000000000000000602082015250565b6000611e4a602e83611a11565b9150611e5582611dee565b604082019050919050565b60006020820190508181036000830152611e7981611e3d565b9050919050565b7f41646472657373207a65726f20696e76616c6964000000000000000000000000600082015250565b6000611eb6601483611a11565b9150611ec182611e80565b602082019050919050565b60006020820190508181036000830152611ee581611ea9565b9050919050565b7f5061757361626c653a206e6f7420706175736564000000000000000000000000600082015250565b6000611f22601483611a11565b9150611f2d82611eec565b602082019050919050565b60006020820190508181036000830152611f5181611f15565b9050919050565b7f5061757361626c653a2070617573656400000000000000000000000000000000600082015250565b6000611f8e601083611a11565b9150611f9982611f58565b602082019050919050565b60006020820190508181036000830152611fbd81611f81565b9050919050565b6000604082019050611fd96000830185611965565b611fe66020830184611699565b9392505050565b7f5361666545524332303a204552433230206f7065726174696f6e20646964206e60008201527f6f74207375636365656400000000000000000000000000000000000000000000602082015250565b6000612049602a83611a11565b915061205482611fed565b604082019050919050565b600060208201905081810360008301526120788161203c565b9050919050565b7f416464726573733a20696e73756666696369656e742062616c616e636520666f60008201527f722063616c6c0000000000000000000000000000000000000000000000000000602082015250565b60006120db602683611a11565b91506120e68261207f565b604082019050919050565b6000602082019050818103600083015261210a816120ce565b9050919050565b7f416464726573733a2063616c6c20746f206e6f6e2d636f6e7472616374000000600082015250565b6000612147601d83611a11565b915061215282612111565b602082019050919050565b600060208201905081810360008301526121768161213a565b9050919050565b600081519050919050565b600081905092915050565b60005b838110156121b1578082015181840152602081019050612196565b838111156121c0576000848401525b50505050565b60006121d18261217d565b6121db8185612188565b93506121eb818560208601612193565b80840191505092915050565b600061220382846121c6565b915081905092915050565b600081519050919050565b6000601f19601f8301169050919050565b60006122358261220e565b61223f8185611a11565b935061224f818560208601612193565b61225881612219565b840191505092915050565b6000602082019050818103600083015261227d818461222a565b90509291505056fea26469706673582212208d27cfeba0c58b07dd791bfe67bc395b7faffe8858dec149be5c1a047309ccbe64736f6c634300080c0033","linkReferences":{}},"methodIdentifiers":{"CONTRACT_GOVERNANCE_ROLE()":"0b0cca89","INITIAL_VESTING_DURATION()":"459fb390","PAUSER_ROLE()":"e63ab1e9","UNPAUSER_ROLE()":"fb1bb9de","__GlobalAccessControlManaged_init(address)":"7a3dbd6a","claim(address,uint256)":"aad3ec96","claimableBalance(address)":"60f3309b","gac()":"f4e79fc3","initialize(address,address,address)":"c0c53b8b","pause()":"8456cb59","paused()":"5c975abb","setVestingDuration(uint256)":"0ffbdcaa","unpause()":"3f4ba83a","vault()":"fbfa77cf","vest(address,uint256,uint256)":"2546de10","vesting(address)":"e388c423","vestingDuration()":"1514617e","vestingToken()":"19d152fa"},"id":25}