{
  "_format": "hh-sol-artifact-1",
  "contractName": "TestVaultGovernance",
  "sourceName": "contracts/test/TestVaultGovernance.sol",
  "abi": [
    {
      "inputs": [
        {
          "components": [
            {
              "internalType": "contract IProtocolGovernance",
              "name": "protocolGovernance",
              "type": "address"
            },
            {
              "internalType": "contract IVaultRegistry",
              "name": "registry",
              "type": "address"
            }
          ],
          "internalType": "struct IVaultGovernance.InternalParams",
          "name": "internalParams_",
          "type": "tuple"
        }
      ],
      "stateMutability": "nonpayable",
      "type": "constructor"
    },
    {
      "anonymous": false,
      "inputs": [
        {
          "indexed": true,
          "internalType": "address",
          "name": "origin",
          "type": "address"
        },
        {
          "indexed": true,
          "internalType": "address",
          "name": "sender",
          "type": "address"
        },
        {
          "components": [
            {
              "internalType": "contract IProtocolGovernance",
              "name": "protocolGovernance",
              "type": "address"
            },
            {
              "internalType": "contract IVaultRegistry",
              "name": "registry",
              "type": "address"
            }
          ],
          "indexed": false,
          "internalType": "struct IVaultGovernance.InternalParams",
          "name": "params",
          "type": "tuple"
        }
      ],
      "name": "CommitedInternalParams",
      "type": "event"
    },
    {
      "anonymous": false,
      "inputs": [
        {
          "indexed": true,
          "internalType": "address",
          "name": "origin",
          "type": "address"
        },
        {
          "indexed": true,
          "internalType": "address",
          "name": "sender",
          "type": "address"
        },
        {
          "indexed": false,
          "internalType": "address[]",
          "name": "vaultTokens",
          "type": "address[]"
        },
        {
          "indexed": false,
          "internalType": "bytes",
          "name": "options",
          "type": "bytes"
        },
        {
          "indexed": false,
          "internalType": "address",
          "name": "owner",
          "type": "address"
        },
        {
          "indexed": false,
          "internalType": "address",
          "name": "vaultAddress",
          "type": "address"
        },
        {
          "indexed": false,
          "internalType": "uint256",
          "name": "vaultNft",
          "type": "uint256"
        }
      ],
      "name": "DeployedVault",
      "type": "event"
    },
    {
      "anonymous": false,
      "inputs": [
        {
          "indexed": true,
          "internalType": "address",
          "name": "origin",
          "type": "address"
        },
        {
          "indexed": true,
          "internalType": "address",
          "name": "sender",
          "type": "address"
        },
        {
          "components": [
            {
              "internalType": "contract IProtocolGovernance",
              "name": "protocolGovernance",
              "type": "address"
            },
            {
              "internalType": "contract IVaultRegistry",
              "name": "registry",
              "type": "address"
            }
          ],
          "indexed": false,
          "internalType": "struct IVaultGovernance.InternalParams",
          "name": "params",
          "type": "tuple"
        },
        {
          "indexed": false,
          "internalType": "uint256",
          "name": "when",
          "type": "uint256"
        }
      ],
      "name": "StagedInternalParams",
      "type": "event"
    },
    {
      "inputs": [],
      "name": "commitDelayedProtocolParams",
      "outputs": [],
      "stateMutability": "nonpayable",
      "type": "function"
    },
    {
      "inputs": [
        {
          "internalType": "uint256",
          "name": "nft",
          "type": "uint256"
        }
      ],
      "name": "commitDelayedStrategyParams",
      "outputs": [],
      "stateMutability": "nonpayable",
      "type": "function"
    },
    {
      "inputs": [],
      "name": "commitInternalParams",
      "outputs": [],
      "stateMutability": "nonpayable",
      "type": "function"
    },
    {
      "inputs": [],
      "name": "delayedProtocolParamsTimestamp",
      "outputs": [
        {
          "internalType": "uint256",
          "name": "",
          "type": "uint256"
        }
      ],
      "stateMutability": "view",
      "type": "function"
    },
    {
      "inputs": [
        {
          "internalType": "uint256",
          "name": "nft",
          "type": "uint256"
        }
      ],
      "name": "delayedProtocolPerVaultParamsTimestamp",
      "outputs": [
        {
          "internalType": "uint256",
          "name": "",
          "type": "uint256"
        }
      ],
      "stateMutability": "view",
      "type": "function"
    },
    {
      "inputs": [
        {
          "internalType": "uint256",
          "name": "nft",
          "type": "uint256"
        }
      ],
      "name": "delayedStrategyParamsTimestamp",
      "outputs": [
        {
          "internalType": "uint256",
          "name": "",
          "type": "uint256"
        }
      ],
      "stateMutability": "view",
      "type": "function"
    },
    {
      "inputs": [
        {
          "internalType": "address[]",
          "name": "vaultTokens",
          "type": "address[]"
        },
        {
          "internalType": "bytes",
          "name": "options",
          "type": "bytes"
        },
        {
          "internalType": "address",
          "name": "owner",
          "type": "address"
        }
      ],
      "name": "deployVault",
      "outputs": [
        {
          "internalType": "contract IVault",
          "name": "vault",
          "type": "address"
        },
        {
          "internalType": "uint256",
          "name": "nft",
          "type": "uint256"
        }
      ],
      "stateMutability": "nonpayable",
      "type": "function"
    },
    {
      "inputs": [],
      "name": "factory",
      "outputs": [
        {
          "internalType": "contract IVaultFactory",
          "name": "",
          "type": "address"
        }
      ],
      "stateMutability": "view",
      "type": "function"
    },
    {
      "inputs": [],
      "name": "getDelayedProtocolParams",
      "outputs": [
        {
          "internalType": "bytes",
          "name": "",
          "type": "bytes"
        }
      ],
      "stateMutability": "view",
      "type": "function"
    },
    {
      "inputs": [],
      "name": "getDelayedProtocolParamsTimestamp",
      "outputs": [
        {
          "internalType": "uint256",
          "name": "",
          "type": "uint256"
        }
      ],
      "stateMutability": "view",
      "type": "function"
    },
    {
      "inputs": [
        {
          "internalType": "uint256",
          "name": "nft",
          "type": "uint256"
        }
      ],
      "name": "getDelayedStrategyParams",
      "outputs": [
        {
          "internalType": "bytes",
          "name": "",
          "type": "bytes"
        }
      ],
      "stateMutability": "view",
      "type": "function"
    },
    {
      "inputs": [
        {
          "internalType": "uint256",
          "name": "nft",
          "type": "uint256"
        }
      ],
      "name": "getDelayedStrategyParamsTimestamp",
      "outputs": [
        {
          "internalType": "uint256",
          "name": "",
          "type": "uint256"
        }
      ],
      "stateMutability": "view",
      "type": "function"
    },
    {
      "inputs": [],
      "name": "getProtocolParams",
      "outputs": [
        {
          "internalType": "bytes",
          "name": "",
          "type": "bytes"
        }
      ],
      "stateMutability": "view",
      "type": "function"
    },
    {
      "inputs": [],
      "name": "getStagedDelayedProtocolParams",
      "outputs": [
        {
          "internalType": "bytes",
          "name": "",
          "type": "bytes"
        }
      ],
      "stateMutability": "view",
      "type": "function"
    },
    {
      "inputs": [
        {
          "internalType": "uint256",
          "name": "nft",
          "type": "uint256"
        }
      ],
      "name": "getStagedDelayedStrategyParams",
      "outputs": [
        {
          "internalType": "bytes",
          "name": "",
          "type": "bytes"
        }
      ],
      "stateMutability": "view",
      "type": "function"
    },
    {
      "inputs": [
        {
          "internalType": "uint256",
          "name": "nft",
          "type": "uint256"
        }
      ],
      "name": "getStrategyParams",
      "outputs": [
        {
          "internalType": "bytes",
          "name": "",
          "type": "bytes"
        }
      ],
      "stateMutability": "view",
      "type": "function"
    },
    {
      "inputs": [
        {
          "internalType": "contract IVaultFactory",
          "name": "factory_",
          "type": "address"
        }
      ],
      "name": "initialize",
      "outputs": [],
      "stateMutability": "nonpayable",
      "type": "function"
    },
    {
      "inputs": [],
      "name": "initialized",
      "outputs": [
        {
          "internalType": "bool",
          "name": "",
          "type": "bool"
        }
      ],
      "stateMutability": "view",
      "type": "function"
    },
    {
      "inputs": [],
      "name": "internalParams",
      "outputs": [
        {
          "components": [
            {
              "internalType": "contract IProtocolGovernance",
              "name": "protocolGovernance",
              "type": "address"
            },
            {
              "internalType": "contract IVaultRegistry",
              "name": "registry",
              "type": "address"
            }
          ],
          "internalType": "struct IVaultGovernance.InternalParams",
          "name": "",
          "type": "tuple"
        }
      ],
      "stateMutability": "view",
      "type": "function"
    },
    {
      "inputs": [],
      "name": "internalParamsTimestamp",
      "outputs": [
        {
          "internalType": "uint256",
          "name": "",
          "type": "uint256"
        }
      ],
      "stateMutability": "view",
      "type": "function"
    },
    {
      "inputs": [
        {
          "internalType": "uint256",
          "name": "nft",
          "type": "uint256"
        }
      ],
      "name": "requireAtLeastStrategy",
      "outputs": [],
      "stateMutability": "view",
      "type": "function"
    },
    {
      "inputs": [],
      "name": "requireProtocolAdmin",
      "outputs": [],
      "stateMutability": "view",
      "type": "function"
    },
    {
      "inputs": [
        {
          "internalType": "bytes",
          "name": "params",
          "type": "bytes"
        }
      ],
      "name": "setProtocolParams",
      "outputs": [],
      "stateMutability": "nonpayable",
      "type": "function"
    },
    {
      "inputs": [
        {
          "internalType": "uint256",
          "name": "nft",
          "type": "uint256"
        },
        {
          "internalType": "bytes",
          "name": "params",
          "type": "bytes"
        }
      ],
      "name": "setStrategyParams",
      "outputs": [],
      "stateMutability": "nonpayable",
      "type": "function"
    },
    {
      "inputs": [
        {
          "internalType": "bytes",
          "name": "params",
          "type": "bytes"
        }
      ],
      "name": "stageDelayedProtocolParams",
      "outputs": [],
      "stateMutability": "nonpayable",
      "type": "function"
    },
    {
      "inputs": [
        {
          "internalType": "uint256",
          "name": "nft",
          "type": "uint256"
        },
        {
          "internalType": "bytes",
          "name": "params",
          "type": "bytes"
        }
      ],
      "name": "stageDelayedStrategyParams",
      "outputs": [],
      "stateMutability": "nonpayable",
      "type": "function"
    },
    {
      "inputs": [
        {
          "components": [
            {
              "internalType": "contract IProtocolGovernance",
              "name": "protocolGovernance",
              "type": "address"
            },
            {
              "internalType": "contract IVaultRegistry",
              "name": "registry",
              "type": "address"
            }
          ],
          "internalType": "struct IVaultGovernance.InternalParams",
          "name": "newParams",
          "type": "tuple"
        }
      ],
      "name": "stageInternalParams",
      "outputs": [],
      "stateMutability": "nonpayable",
      "type": "function"
    },
    {
      "inputs": [],
      "name": "stagedInternalParams",
      "outputs": [
        {
          "components": [
            {
              "internalType": "contract IProtocolGovernance",
              "name": "protocolGovernance",
              "type": "address"
            },
            {
              "internalType": "contract IVaultRegistry",
              "name": "registry",
              "type": "address"
            }
          ],
          "internalType": "struct IVaultGovernance.InternalParams",
          "name": "",
          "type": "tuple"
        }
      ],
      "stateMutability": "view",
      "type": "function"
    }
  ],
  "bytecode": "0x60806040523480156200001157600080fd5b5060405162001a0338038062001a03833981016040819052620000349162000086565b8051600080546001600160a01b03199081166001600160a01b0393841617909155602090920151600180549093169116179055620000f8565b6001600160a01b03811681146200008357600080fd5b50565b6000604082840312156200009957600080fd5b604080519081016001600160401b0381118282101715620000ca57634e487b7160e01b600052604160045260246000fd5b6040528251620000da816200006d565b81526020830151620000ec816200006d565b60208201529392505050565b6118fb80620001086000396000f3fe608060405234801561001057600080fd5b50600436106101c45760003560e01c80637cd26a9a116100f9578063c45a015511610097578063e4af6e7911610071578063e4af6e7914610296578063f46ceec9146103e0578063f50506ab146103f3578063fc7a81171461042557600080fd5b8063c45a01551461039a578063c4d66de8146103c5578063d4a07d34146103d857600080fd5b806398347a5d116100d357806398347a5d14610364578063a266286b1461036c578063c01b972014610374578063c363891d1461038757600080fd5b80637cd26a9a1461031057806386c6be3e146103235780638e56a3e81461035c57600080fd5b80633e5e39e6116101665780635c9960be116101405780635c9960be146102be5780636707acee146102635780637755d6c1146102c65780637ac46fbb146102ce57600080fd5b80633e5e39e6146102835780634ec6af3414610296578063511ce7981461029e57600080fd5b8063158ef93e116101a2578063158ef93e1461021a5780631c7f4c731461023e578063302255641461025057806330cebee91461026357600080fd5b806303ce4e34146101c95780630bdedd56146101f25780630c014fe614610207575b600080fd5b6101dc6101d736600461138e565b610438565b6040516101e991906113f4565b60405180910390f35b61020561020036600461138e565b6104da565b005b6101dc61021536600461138e565b6104e6565b60105461022e90600160a01b900460ff1681565b60405190151581526020016101e9565b6004545b6040519081526020016101e9565b61020561025e36600461138e565b610503565b61024261027136600461138e565b60009081526007602052604090205490565b6102056102913660046114c5565b61050c565b600d54610242565b6102426102ac36600461138e565b6000908152600a602052604090205490565b6101dc61051a565b6101dc6105ac565b604080518082018252600080825260209182018190528251808401909352546001600160a01b03908116835260015416908201525b6040516101e9919061150c565b61020561031e366004611536565b6105bb565b604080518082018252600080825260209182015281518083019092526002546001600160a01b0390811683526003541690820152610303565b6101dc6105c4565b6102056105d3565b6102056105dd565b6102056103823660046114c5565b6105e5565b610205610395366004611536565b6105ef565b6010546103ad906001600160a01b031681565b6040516001600160a01b0390911681526020016101e9565b6102056103d3366004611588565b6105f8565b610205610670565b6101dc6103ee36600461138e565b610774565b6104066104013660046115b5565b610791565b604080516001600160a01b0390931683526020830191909152016101e9565b610205610433366004611699565b610ace565b6000818152600660205260409020805460609190610455906116f8565b80601f0160208091040260200160405190810160405280929190818152602001828054610481906116f8565b80156104ce5780601f106104a3576101008083540402835291602001916104ce565b820191906000526020600020905b8154815290600101906020018083116104b157829003601f168201915b50505050509050919050565b6104e381610bcc565b50565b6000818152600e60205260409020805460609190610455906116f8565b6104e381610cd4565b6105168282610ea3565b5050565b6060600f8054610529906116f8565b80601f0160208091040260200160405190810160405280929190818152602001828054610555906116f8565b80156105a25780601f10610577576101008083540402835291602001916105a2565b820191906000526020600020905b81548152906001019060200180831161058557829003601f168201915b5050505050905090565b6060600b8054610529906116f8565b6104e381610faf565b6060600c8054610529906116f8565b6105db61108a565b565b6105db611143565b61051682826111f8565b6104e381611225565b6010546040805180820190915260048152631253925560e21b602082015290600160a01b900460ff16156106485760405162461bcd60e51b815260040161063f91906113f4565b60405180910390fd5b50601080546001600160a81b0319166001600160a01b0390921691909117600160a01b179055565b610678611143565b600060045411604051806040016040528060048152602001631395531360e21b815250906106b95760405162461bcd60e51b815260040161063f91906113f4565b5060045442101560405180604001604052806002815260200161545360f01b815250906106f95760405162461bcd60e51b815260040161063f91906113f4565b50600254600080546001600160a01b039283166001600160a01b031991821681178355600354600180549190951692168217909355600491909155604080519283526020830191909152339132917f1e35451923245ee6ebcfa4eaa530093af09bcf5278d751ff4b9897ca024d02b4910160405180910390a3565b6000818152600560205260409020805460609190610455906116f8565b6010546040805180820190915260048152631253925560e21b6020820152600091829190600160a01b900460ff166107dc5760405162461bcd60e51b815260040161063f91906113f4565b506000546040805163a1256f9f60e01b815290516001600160a01b0390921691829163a1256f9f916004808301926020929190829003018186803b15801561082357600080fd5b505afa158015610837573d6000803e3d6000fd5b505050506040513d601f19601f8201168201806040525081019061085b9190611733565b806108d85750604051630935e01b60e21b81523360048201526001600160a01b038216906324d7806c9060240160206040518083038186803b1580156108a057600080fd5b505afa1580156108b4573d6000803e3d6000fd5b505050506040513d601f19601f820116820180604052508101906108d89190611733565b60405180604001604052806003815260200162504f4160e81b815250906109125760405162461bcd60e51b815260040161063f91906113f4565b50601054604051636e1e2ffd60e01b81526001600160a01b0390911690636e1e2ffd906109459089908990600401611799565b602060405180830381600087803b15801561095f57600080fd5b505af1158015610973573d6000803e3d6000fd5b505050506040513d601f19601f8201168201806040525081019061099791906117c7565b6001546040516305c4fdf960e01b81526001600160a01b03808416600483015280881660248301529295508692909116906305c4fdf990604401602060405180830381600087803b1580156109eb57600080fd5b505af11580156109ff573d6000803e3d6000fd5b505050506040513d601f19601f82011682018060405250810190610a2391906117e4565b60405163fe4b84df60e01b8152600481018290529093506001600160a01b0385169063fe4b84df90602401600060405180830381600087803b158015610a6857600080fd5b505af1158015610a7c573d6000803e3d6000fd5b50506040513392503291507f8a4513c05d15df8ece912856923273e166e39f5c9c2b43d2b38594023494a0e090610abc908b908b9087908b908b906117fd565b60405180910390a35050935093915050565b610ad6611143565b8051600280546001600160a01b03199081166001600160a01b039384161790915560208084015160038054909316908416179091556000546040805163bba3293960e01b81529051919093169263bba32939926004808301939192829003018186803b158015610b4557600080fd5b505afa158015610b59573d6000803e3d6000fd5b505050506040513d601f19601f82011682018060405250810190610b7d91906117e4565b610b87904261185d565b6004819055604051339132917f4b5caddc4df608f00754b735b313f6450a3c994df1519ef40bdd5cd315206e7191610bc191869190611875565b60405180910390a350565b610bd581610cd4565b6000600760008381526020019081526020016000205411604051806040016040528060048152602001631395531360e21b81525090610c275760405162461bcd60e51b815260040161063f91906113f4565b50600760008281526020019081526020016000205442101560405180604001604052806002815260200161545360f01b81525090610c785760405162461bcd60e51b815260040161063f91906113f4565b50600081815260066020908152604080832060059092529091208154909190610ca0906116f8565b610cab929190611240565b506000818152600660205260408120610cc3916112cb565b600090815260076020526040812055565b600054604051630935e01b60e21b81523360048201526001600160a01b03909116906324d7806c9060240160206040518083038186803b158015610d1757600080fd5b505afa158015610d2b573d6000803e3d6000fd5b505050506040513d601f19601f82011682018060405250810190610d4f9190611733565b80610ddc575060015460405163020604bf60e21b81526004810183905233916001600160a01b03169063081812fc9060240160206040518083038186803b158015610d9957600080fd5b505afa158015610dad573d6000803e3d6000fd5b505050506040513d601f19601f82011682018060405250810190610dd191906117c7565b6001600160a01b0316145b80610e6957506001546040516331a9108f60e11b81526004810183905233916001600160a01b031690636352211e9060240160206040518083038186803b158015610e2657600080fd5b505afa158015610e3a573d6000803e3d6000fd5b505050506040513d601f19601f82011682018060405250810190610e5e91906117c7565b6001600160a01b0316145b604051806040016040528060038152602001621494d560ea1b815250906105165760405162461bcd60e51b815260040161063f91906113f4565b610eac82610cd4565b60008281526006602090815260409091208251610ecb92840190611305565b5060008281526005602052604081208054610ee5906116f8565b159050610ef3576001610ef6565b60005b60ff169050806000800160009054906101000a90046001600160a01b03166001600160a01b031663bba329396040518163ffffffff1660e01b815260040160206040518083038186803b158015610f4c57600080fd5b505afa158015610f60573d6000803e3d6000fd5b505050506040513d601f19601f82011682018060405250810190610f8491906117e4565b610f8e91906118a6565b610f98904261185d565b600093845260076020526040909320929092555050565b610fb7611143565b6000600b8054610fc6906116f8565b159050610fd4576001610fd7565b60005b60ff16905081600c9080519060200190610ff2929190611305565b506000546040805163bba3293960e01b8152905183926001600160a01b03169163bba32939916004808301926020929190829003018186803b15801561103757600080fd5b505afa15801561104b573d6000803e3d6000fd5b505050506040513d601f19601f8201168201806040525081019061106f91906117e4565b61107991906118a6565b611083904261185d565b600d555050565b611092611143565b6000600d5411604051806040016040528060048152602001631395531360e21b815250906110d35760405162461bcd60e51b815260040161063f91906113f4565b50600d5442101560405180604001604052806002815260200161545360f01b815250906111135760405162461bcd60e51b815260040161063f91906113f4565b50600c600b908054611124906116f8565b61112f929190611240565b5061113c600c60006112cb565b6000600d55565b600054604051630935e01b60e21b81523360048201526001600160a01b03909116906324d7806c9060240160206040518083038186803b15801561118657600080fd5b505afa15801561119a573d6000803e3d6000fd5b505050506040513d601f19601f820116820180604052508101906111be9190611733565b6040518060400160405280600381526020016241444d60e81b815250906104e35760405162461bcd60e51b815260040161063f91906113f4565b61120182610cd4565b6000828152600e60209081526040909120825161122092840190611305565b505050565b61122d611143565b805161051690600f906020840190611305565b82805461124c906116f8565b90600052602060002090601f01602090048101928261126e57600085556112bb565b82601f1061127f57805485556112bb565b828001600101855582156112bb57600052602060002091601f016020900482015b828111156112bb5782548255916001019190600101906112a0565b506112c7929150611379565b5090565b5080546112d7906116f8565b6000825580601f106112e7575050565b601f0160209004906000526020600020908101906104e39190611379565b828054611311906116f8565b90600052602060002090601f01602090048101928261133357600085556112bb565b82601f1061134c57805160ff19168380011785556112bb565b828001600101855582156112bb579182015b828111156112bb57825182559160200191906001019061135e565b5b808211156112c7576000815560010161137a565b6000602082840312156113a057600080fd5b5035919050565b6000815180845260005b818110156113cd576020818501810151868301820152016113b1565b818111156113df576000602083870101525b50601f01601f19169290920160200192915050565b60208152600061140760208301846113a7565b9392505050565b634e487b7160e01b600052604160045260246000fd5b604051601f8201601f1916810167ffffffffffffffff8111828210171561144d5761144d61140e565b604052919050565b600082601f83011261146657600080fd5b813567ffffffffffffffff8111156114805761148061140e565b611493601f8201601f1916602001611424565b8181528460208386010111156114a857600080fd5b816020850160208301376000918101602001919091529392505050565b600080604083850312156114d857600080fd5b82359150602083013567ffffffffffffffff8111156114f657600080fd5b61150285828601611455565b9150509250929050565b60408101611530828480516001600160a01b03908116835260209182015116910152565b92915050565b60006020828403121561154857600080fd5b813567ffffffffffffffff81111561155f57600080fd5b61156b84828501611455565b949350505050565b6001600160a01b03811681146104e357600080fd5b60006020828403121561159a57600080fd5b813561140781611573565b80356115b081611573565b919050565b6000806000606084860312156115ca57600080fd5b833567ffffffffffffffff808211156115e257600080fd5b818601915086601f8301126115f657600080fd5b813560208282111561160a5761160a61140e565b8160051b611619828201611424565b928352848101820192828101908b85111561163357600080fd5b958301955b8487101561165d578635925061164d83611573565b8282529583019590830190611638565b985050508701359250508082111561167457600080fd5b5061168186828701611455565b925050611690604085016115a5565b90509250925092565b6000604082840312156116ab57600080fd5b6040516040810181811067ffffffffffffffff821117156116ce576116ce61140e565b60405282356116dc81611573565b815260208301356116ec81611573565b60208201529392505050565b600181811c9082168061170c57607f821691505b6020821081141561172d57634e487b7160e01b600052602260045260246000fd5b50919050565b60006020828403121561174557600080fd5b8151801515811461140757600080fd5b600081518084526020808501945080840160005b8381101561178e5781516001600160a01b031687529582019590820190600101611769565b509495945050505050565b6040815260006117ac6040830185611755565b82810360208401526117be81856113a7565b95945050505050565b6000602082840312156117d957600080fd5b815161140781611573565b6000602082840312156117f657600080fd5b5051919050565b60a08152600061181060a0830188611755565b828103602084015261182281886113a7565b6001600160a01b03968716604085015294909516606083015250608001529392505050565b634e487b7160e01b600052601160045260246000fd5b6000821982111561187057611870611847565b500190565b60608101611899828580516001600160a01b03908116835260209182015116910152565b8260408301529392505050565b60008160001904831182151516156118c0576118c0611847565b50029056fea264697066735822122040e6792b68599400701984eddb331922d65fa5dede55b053371d834a863a7e5964736f6c63430008090033",
  "linkReferences": {},
  "deployedLinkReferences": {}
}