{
  "@openzeppelin/contracts-ethereum-package/contracts/access/roles/MinterRole.sol": {
    "MinterRole": {
      "abi": [
        {
          "anonymous": false,
          "inputs": [
            {
              "indexed": true,
              "internalType": "address",
              "name": "account",
              "type": "address"
            }
          ],
          "name": "MinterAdded",
          "type": "event"
        },
        {
          "anonymous": false,
          "inputs": [
            {
              "indexed": true,
              "internalType": "address",
              "name": "account",
              "type": "address"
            }
          ],
          "name": "MinterRemoved",
          "type": "event"
        },
        {
          "constant": false,
          "inputs": [
            {
              "internalType": "address",
              "name": "account",
              "type": "address"
            }
          ],
          "name": "addMinter",
          "outputs": [],
          "payable": false,
          "stateMutability": "nonpayable",
          "type": "function"
        },
        {
          "constant": false,
          "inputs": [
            {
              "internalType": "address",
              "name": "sender",
              "type": "address"
            }
          ],
          "name": "initialize",
          "outputs": [],
          "payable": false,
          "stateMutability": "nonpayable",
          "type": "function"
        },
        {
          "constant": true,
          "inputs": [
            {
              "internalType": "address",
              "name": "account",
              "type": "address"
            }
          ],
          "name": "isMinter",
          "outputs": [
            {
              "internalType": "bool",
              "name": "",
              "type": "bool"
            }
          ],
          "payable": false,
          "stateMutability": "view",
          "type": "function"
        },
        {
          "constant": false,
          "inputs": [],
          "name": "renounceMinter",
          "outputs": [],
          "payable": false,
          "stateMutability": "nonpayable",
          "type": "function"
        }
      ],
      "evm": {
        "bytecode": {
          "linkReferences": {},
          "object": "60806040526104db806100136000396000f3fe608060405234801561001057600080fd5b506004361061004c5760003560e01c8063983b2d56146100515780639865027514610079578063aa271e1a14610081578063c4d66de8146100bb575b600080fd5b6100776004803603602081101561006757600080fd5b50356001600160a01b03166100e1565b005b610077610138565b6100a76004803603602081101561009757600080fd5b50356001600160a01b031661014a565b604080519115158252519081900360200190f35b610077600480360360208110156100d157600080fd5b50356001600160a01b0316610163565b6100f16100ec61021c565b61014a565b61012c5760405162461bcd60e51b81526004018080602001828103825260308152602001806104066030913960400191505060405180910390fd5b61013581610220565b50565b61014861014361021c565b610268565b565b600061015d60338363ffffffff6102b016565b92915050565b600054610100900460ff168061017c575061017c610317565b8061018a575060005460ff16155b6101c55760405162461bcd60e51b815260040180806020018281038252602e815260200180610479602e913960400191505060405180910390fd5b600054610100900460ff161580156101f0576000805460ff1961ff0019909116610100171660011790555b6101f98261014a565b6102065761020682610220565b8015610218576000805461ff00191690555b5050565b3390565b61023160338263ffffffff61031d16565b6040516001600160a01b038216907f6ae172837ea30b801fbfcdd4108aa1d5bf8ff775444fd70256b44e6bf3dfc3f690600090a250565b61027960338263ffffffff61039e16565b6040516001600160a01b038216907fe94479a9f7e1952cc78f2d6baab678adc1b772d936c6583def489e524cb6669290600090a250565b60006001600160a01b0382166102f75760405162461bcd60e51b81526004018080602001828103825260228152602001806104576022913960400191505060405180910390fd5b506001600160a01b03166000908152602091909152604090205460ff1690565b303b1590565b61032782826102b0565b15610379576040805162461bcd60e51b815260206004820152601f60248201527f526f6c65733a206163636f756e7420616c72656164792068617320726f6c6500604482015290519081900360640190fd5b6001600160a01b0316600090815260209190915260409020805460ff19166001179055565b6103a882826102b0565b6103e35760405162461bcd60e51b81526004018080602001828103825260218152602001806104366021913960400191505060405180910390fd5b6001600160a01b0316600090815260209190915260409020805460ff1916905556fe4d696e746572526f6c653a2063616c6c657220646f6573206e6f74206861766520746865204d696e74657220726f6c65526f6c65733a206163636f756e7420646f6573206e6f74206861766520726f6c65526f6c65733a206163636f756e7420697320746865207a65726f2061646472657373436f6e747261637420696e7374616e63652068617320616c7265616479206265656e20696e697469616c697a6564a265627a7a72315820658d5be3d5af26b373e85a1db1abfb0136f595991c236b6be4e1febe2ce929a464736f6c63430005110032",
          "opcodes": "PUSH1 0x80 PUSH1 0x40 MSTORE PUSH2 0x4DB DUP1 PUSH2 0x13 PUSH1 0x0 CODECOPY PUSH1 0x0 RETURN INVALID PUSH1 0x80 PUSH1 0x40 MSTORE CALLVALUE DUP1 ISZERO PUSH2 0x10 JUMPI PUSH1 0x0 DUP1 REVERT JUMPDEST POP PUSH1 0x4 CALLDATASIZE LT PUSH2 0x4C JUMPI PUSH1 0x0 CALLDATALOAD PUSH1 0xE0 SHR DUP1 PUSH4 0x983B2D56 EQ PUSH2 0x51 JUMPI DUP1 PUSH4 0x98650275 EQ PUSH2 0x79 JUMPI DUP1 PUSH4 0xAA271E1A EQ PUSH2 0x81 JUMPI DUP1 PUSH4 0xC4D66DE8 EQ PUSH2 0xBB JUMPI JUMPDEST PUSH1 0x0 DUP1 REVERT JUMPDEST PUSH2 0x77 PUSH1 0x4 DUP1 CALLDATASIZE SUB PUSH1 0x20 DUP2 LT ISZERO PUSH2 0x67 JUMPI PUSH1 0x0 DUP1 REVERT JUMPDEST POP CALLDATALOAD PUSH1 0x1 PUSH1 0x1 PUSH1 0xA0 SHL SUB AND PUSH2 0xE1 JUMP JUMPDEST STOP JUMPDEST PUSH2 0x77 PUSH2 0x138 JUMP JUMPDEST PUSH2 0xA7 PUSH1 0x4 DUP1 CALLDATASIZE SUB PUSH1 0x20 DUP2 LT ISZERO PUSH2 0x97 JUMPI PUSH1 0x0 DUP1 REVERT JUMPDEST POP CALLDATALOAD PUSH1 0x1 PUSH1 0x1 PUSH1 0xA0 SHL SUB AND PUSH2 0x14A JUMP JUMPDEST PUSH1 0x40 DUP1 MLOAD SWAP2 ISZERO ISZERO DUP3 MSTORE MLOAD SWAP1 DUP2 SWAP1 SUB PUSH1 0x20 ADD SWAP1 RETURN JUMPDEST PUSH2 0x77 PUSH1 0x4 DUP1 CALLDATASIZE SUB PUSH1 0x20 DUP2 LT ISZERO PUSH2 0xD1 JUMPI PUSH1 0x0 DUP1 REVERT JUMPDEST POP CALLDATALOAD PUSH1 0x1 PUSH1 0x1 PUSH1 0xA0 SHL SUB AND PUSH2 0x163 JUMP JUMPDEST PUSH2 0xF1 PUSH2 0xEC PUSH2 0x21C JUMP JUMPDEST PUSH2 0x14A JUMP JUMPDEST PUSH2 0x12C JUMPI PUSH1 0x40 MLOAD PUSH3 0x461BCD PUSH1 0xE5 SHL DUP2 MSTORE PUSH1 0x4 ADD DUP1 DUP1 PUSH1 0x20 ADD DUP3 DUP2 SUB DUP3 MSTORE PUSH1 0x30 DUP2 MSTORE PUSH1 0x20 ADD DUP1 PUSH2 0x406 PUSH1 0x30 SWAP2 CODECOPY PUSH1 0x40 ADD SWAP2 POP POP PUSH1 0x40 MLOAD DUP1 SWAP2 SUB SWAP1 REVERT JUMPDEST PUSH2 0x135 DUP2 PUSH2 0x220 JUMP JUMPDEST POP JUMP JUMPDEST PUSH2 0x148 PUSH2 0x143 PUSH2 0x21C JUMP JUMPDEST PUSH2 0x268 JUMP JUMPDEST JUMP JUMPDEST PUSH1 0x0 PUSH2 0x15D PUSH1 0x33 DUP4 PUSH4 0xFFFFFFFF PUSH2 0x2B0 AND JUMP JUMPDEST SWAP3 SWAP2 POP POP JUMP JUMPDEST PUSH1 0x0 SLOAD PUSH2 0x100 SWAP1 DIV PUSH1 0xFF AND DUP1 PUSH2 0x17C JUMPI POP PUSH2 0x17C PUSH2 0x317 JUMP JUMPDEST DUP1 PUSH2 0x18A JUMPI POP PUSH1 0x0 SLOAD PUSH1 0xFF AND ISZERO JUMPDEST PUSH2 0x1C5 JUMPI PUSH1 0x40 MLOAD PUSH3 0x461BCD PUSH1 0xE5 SHL DUP2 MSTORE PUSH1 0x4 ADD DUP1 DUP1 PUSH1 0x20 ADD DUP3 DUP2 SUB DUP3 MSTORE PUSH1 0x2E DUP2 MSTORE PUSH1 0x20 ADD DUP1 PUSH2 0x479 PUSH1 0x2E SWAP2 CODECOPY PUSH1 0x40 ADD SWAP2 POP POP PUSH1 0x40 MLOAD DUP1 SWAP2 SUB SWAP1 REVERT JUMPDEST PUSH1 0x0 SLOAD PUSH2 0x100 SWAP1 DIV PUSH1 0xFF AND ISZERO DUP1 ISZERO PUSH2 0x1F0 JUMPI PUSH1 0x0 DUP1 SLOAD PUSH1 0xFF NOT PUSH2 0xFF00 NOT SWAP1 SWAP2 AND PUSH2 0x100 OR AND PUSH1 0x1 OR SWAP1 SSTORE JUMPDEST PUSH2 0x1F9 DUP3 PUSH2 0x14A JUMP JUMPDEST PUSH2 0x206 JUMPI PUSH2 0x206 DUP3 PUSH2 0x220 JUMP JUMPDEST DUP1 ISZERO PUSH2 0x218 JUMPI PUSH1 0x0 DUP1 SLOAD PUSH2 0xFF00 NOT AND SWAP1 SSTORE JUMPDEST POP POP JUMP JUMPDEST CALLER SWAP1 JUMP JUMPDEST PUSH2 0x231 PUSH1 0x33 DUP3 PUSH4 0xFFFFFFFF PUSH2 0x31D AND JUMP JUMPDEST PUSH1 0x40 MLOAD PUSH1 0x1 PUSH1 0x1 PUSH1 0xA0 SHL SUB DUP3 AND SWAP1 PUSH32 0x6AE172837EA30B801FBFCDD4108AA1D5BF8FF775444FD70256B44E6BF3DFC3F6 SWAP1 PUSH1 0x0 SWAP1 LOG2 POP JUMP JUMPDEST PUSH2 0x279 PUSH1 0x33 DUP3 PUSH4 0xFFFFFFFF PUSH2 0x39E AND JUMP JUMPDEST PUSH1 0x40 MLOAD PUSH1 0x1 PUSH1 0x1 PUSH1 0xA0 SHL SUB DUP3 AND SWAP1 PUSH32 0xE94479A9F7E1952CC78F2D6BAAB678ADC1B772D936C6583DEF489E524CB66692 SWAP1 PUSH1 0x0 SWAP1 LOG2 POP JUMP JUMPDEST PUSH1 0x0 PUSH1 0x1 PUSH1 0x1 PUSH1 0xA0 SHL SUB DUP3 AND PUSH2 0x2F7 JUMPI PUSH1 0x40 MLOAD PUSH3 0x461BCD PUSH1 0xE5 SHL DUP2 MSTORE PUSH1 0x4 ADD DUP1 DUP1 PUSH1 0x20 ADD DUP3 DUP2 SUB DUP3 MSTORE PUSH1 0x22 DUP2 MSTORE PUSH1 0x20 ADD DUP1 PUSH2 0x457 PUSH1 0x22 SWAP2 CODECOPY PUSH1 0x40 ADD SWAP2 POP POP PUSH1 0x40 MLOAD DUP1 SWAP2 SUB SWAP1 REVERT JUMPDEST POP PUSH1 0x1 PUSH1 0x1 PUSH1 0xA0 SHL SUB AND PUSH1 0x0 SWAP1 DUP2 MSTORE PUSH1 0x20 SWAP2 SWAP1 SWAP2 MSTORE PUSH1 0x40 SWAP1 KECCAK256 SLOAD PUSH1 0xFF AND SWAP1 JUMP JUMPDEST ADDRESS EXTCODESIZE ISZERO SWAP1 JUMP JUMPDEST PUSH2 0x327 DUP3 DUP3 PUSH2 0x2B0 JUMP JUMPDEST ISZERO PUSH2 0x379 JUMPI PUSH1 0x40 DUP1 MLOAD PUSH3 0x461BCD PUSH1 0xE5 SHL DUP2 MSTORE PUSH1 0x20 PUSH1 0x4 DUP3 ADD MSTORE PUSH1 0x1F PUSH1 0x24 DUP3 ADD MSTORE PUSH32 0x526F6C65733A206163636F756E7420616C72656164792068617320726F6C6500 PUSH1 0x44 DUP3 ADD MSTORE SWAP1 MLOAD SWAP1 DUP2 SWAP1 SUB PUSH1 0x64 ADD SWAP1 REVERT JUMPDEST PUSH1 0x1 PUSH1 0x1 PUSH1 0xA0 SHL SUB AND PUSH1 0x0 SWAP1 DUP2 MSTORE PUSH1 0x20 SWAP2 SWAP1 SWAP2 MSTORE PUSH1 0x40 SWAP1 KECCAK256 DUP1 SLOAD PUSH1 0xFF NOT AND PUSH1 0x1 OR SWAP1 SSTORE JUMP JUMPDEST PUSH2 0x3A8 DUP3 DUP3 PUSH2 0x2B0 JUMP JUMPDEST PUSH2 0x3E3 JUMPI PUSH1 0x40 MLOAD PUSH3 0x461BCD PUSH1 0xE5 SHL DUP2 MSTORE PUSH1 0x4 ADD DUP1 DUP1 PUSH1 0x20 ADD DUP3 DUP2 SUB DUP3 MSTORE PUSH1 0x21 DUP2 MSTORE PUSH1 0x20 ADD DUP1 PUSH2 0x436 PUSH1 0x21 SWAP2 CODECOPY PUSH1 0x40 ADD SWAP2 POP POP PUSH1 0x40 MLOAD DUP1 SWAP2 SUB SWAP1 REVERT JUMPDEST PUSH1 0x1 PUSH1 0x1 PUSH1 0xA0 SHL SUB AND PUSH1 0x0 SWAP1 DUP2 MSTORE PUSH1 0x20 SWAP2 SWAP1 SWAP2 MSTORE PUSH1 0x40 SWAP1 KECCAK256 DUP1 SLOAD PUSH1 0xFF NOT AND SWAP1 SSTORE JUMP INVALID 0x4D PUSH10 0x6E746572526F6C653A20 PUSH4 0x616C6C65 PUSH19 0x20646F6573206E6F7420686176652074686520 0x4D PUSH10 0x6E74657220726F6C6552 PUSH16 0x6C65733A206163636F756E7420646F65 PUSH20 0x206E6F74206861766520726F6C65526F6C65733A KECCAK256 PUSH2 0x6363 PUSH16 0x756E7420697320746865207A65726F20 PUSH2 0x6464 PUSH19 0x657373436F6E747261637420696E7374616E63 PUSH6 0x206861732061 PUSH13 0x7265616479206265656E20696E PUSH10 0x7469616C697A6564A265 PUSH3 0x7A7A72 BALANCE PC KECCAK256 PUSH6 0x8D5BE3D5AF26 0xB3 PUSH20 0xE85A1DB1ABFB0136F595991C236B6BE4E1FEBE2C 0xE9 0x29 LOG4 PUSH5 0x736F6C6343 STOP SDIV GT STOP ORIGIN "
        },
        "methodIdentifiers": {
          "addMinter(address)": "983b2d56",
          "initialize(address)": "c4d66de8",
          "isMinter(address)": "aa271e1a",
          "renounceMinter()": "98650275"
        }
      },
      "storageLayout": {
        "storage": [
          {
            "astId": 1372,
            "contract": "@openzeppelin/contracts-ethereum-package/contracts/access/roles/MinterRole.sol:MinterRole",
            "label": "initialized",
            "offset": 0,
            "slot": "0",
            "type": "t_bool"
          },
          {
            "astId": 1374,
            "contract": "@openzeppelin/contracts-ethereum-package/contracts/access/roles/MinterRole.sol:MinterRole",
            "label": "initializing",
            "offset": 1,
            "slot": "0",
            "type": "t_bool"
          },
          {
            "astId": 1436,
            "contract": "@openzeppelin/contracts-ethereum-package/contracts/access/roles/MinterRole.sol:MinterRole",
            "label": "______gap",
            "offset": 0,
            "slot": "1",
            "type": "t_array(t_uint256)50_storage"
          },
          {
            "astId": 132,
            "contract": "@openzeppelin/contracts-ethereum-package/contracts/access/roles/MinterRole.sol:MinterRole",
            "label": "_minters",
            "offset": 0,
            "slot": "51",
            "type": "t_struct(Role)36_storage"
          },
          {
            "astId": 232,
            "contract": "@openzeppelin/contracts-ethereum-package/contracts/access/roles/MinterRole.sol:MinterRole",
            "label": "______gap",
            "offset": 0,
            "slot": "52",
            "type": "t_array(t_uint256)50_storage"
          }
        ],
        "types": {
          "t_address": {
            "encoding": "inplace",
            "label": "address",
            "numberOfBytes": "20"
          },
          "t_array(t_uint256)50_storage": {
            "base": "t_uint256",
            "encoding": "inplace",
            "label": "uint256[50]",
            "numberOfBytes": "1600"
          },
          "t_bool": {
            "encoding": "inplace",
            "label": "bool",
            "numberOfBytes": "1"
          },
          "t_mapping(t_address,t_bool)": {
            "encoding": "mapping",
            "key": "t_address",
            "label": "mapping(address => bool)",
            "numberOfBytes": "32",
            "value": "t_bool"
          },
          "t_struct(Role)36_storage": {
            "encoding": "inplace",
            "label": "struct Roles.Role",
            "members": [
              {
                "astId": 35,
                "contract": "@openzeppelin/contracts-ethereum-package/contracts/access/roles/MinterRole.sol:MinterRole",
                "label": "bearer",
                "offset": 0,
                "slot": "0",
                "type": "t_mapping(t_address,t_bool)"
              }
            ],
            "numberOfBytes": "32"
          },
          "t_uint256": {
            "encoding": "inplace",
            "label": "uint256",
            "numberOfBytes": "32"
          }
        }
      }
    }
  }
}