{
  "contracts/UnlockDiscountTokenV2.sol": {
    "UnlockDiscountTokenV2": {
      "abi": [
        {
          "anonymous": false,
          "inputs": [
            {
              "indexed": true,
              "internalType": "address",
              "name": "owner",
              "type": "address"
            },
            {
              "indexed": true,
              "internalType": "address",
              "name": "spender",
              "type": "address"
            },
            {
              "indexed": false,
              "internalType": "uint256",
              "name": "value",
              "type": "uint256"
            }
          ],
          "name": "Approval",
          "type": "event"
        },
        {
          "anonymous": false,
          "inputs": [
            {
              "indexed": true,
              "internalType": "address",
              "name": "delegator",
              "type": "address"
            },
            {
              "indexed": true,
              "internalType": "address",
              "name": "fromDelegate",
              "type": "address"
            },
            {
              "indexed": true,
              "internalType": "address",
              "name": "toDelegate",
              "type": "address"
            }
          ],
          "name": "DelegateChanged",
          "type": "event"
        },
        {
          "anonymous": false,
          "inputs": [
            {
              "indexed": true,
              "internalType": "address",
              "name": "delegate",
              "type": "address"
            },
            {
              "indexed": false,
              "internalType": "uint256",
              "name": "previousBalance",
              "type": "uint256"
            },
            {
              "indexed": false,
              "internalType": "uint256",
              "name": "newBalance",
              "type": "uint256"
            }
          ],
          "name": "DelegateVotesChanged",
          "type": "event"
        },
        {
          "anonymous": false,
          "inputs": [
            {
              "indexed": true,
              "internalType": "address",
              "name": "account",
              "type": "address"
            }
          ],
          "name": "MinterAdded",
          "type": "event"
        },
        {
          "anonymous": false,
          "inputs": [
            {
              "indexed": true,
              "internalType": "address",
              "name": "account",
              "type": "address"
            }
          ],
          "name": "MinterRemoved",
          "type": "event"
        },
        {
          "anonymous": false,
          "inputs": [
            {
              "indexed": true,
              "internalType": "address",
              "name": "from",
              "type": "address"
            },
            {
              "indexed": true,
              "internalType": "address",
              "name": "to",
              "type": "address"
            },
            {
              "indexed": false,
              "internalType": "uint256",
              "name": "value",
              "type": "uint256"
            }
          ],
          "name": "Transfer",
          "type": "event"
        },
        {
          "inputs": [],
          "name": "DOMAIN_SEPARATOR",
          "outputs": [
            {
              "internalType": "bytes32",
              "name": "",
              "type": "bytes32"
            }
          ],
          "stateMutability": "view",
          "type": "function"
        },
        {
          "inputs": [
            {
              "internalType": "address",
              "name": "account",
              "type": "address"
            }
          ],
          "name": "addMinter",
          "outputs": [],
          "stateMutability": "nonpayable",
          "type": "function"
        },
        {
          "inputs": [
            {
              "internalType": "address",
              "name": "owner",
              "type": "address"
            },
            {
              "internalType": "address",
              "name": "spender",
              "type": "address"
            }
          ],
          "name": "allowance",
          "outputs": [
            {
              "internalType": "uint256",
              "name": "",
              "type": "uint256"
            }
          ],
          "stateMutability": "view",
          "type": "function"
        },
        {
          "inputs": [
            {
              "internalType": "address",
              "name": "spender",
              "type": "address"
            },
            {
              "internalType": "uint256",
              "name": "amount",
              "type": "uint256"
            }
          ],
          "name": "approve",
          "outputs": [
            {
              "internalType": "bool",
              "name": "",
              "type": "bool"
            }
          ],
          "stateMutability": "nonpayable",
          "type": "function"
        },
        {
          "inputs": [
            {
              "internalType": "address",
              "name": "account",
              "type": "address"
            }
          ],
          "name": "balanceOf",
          "outputs": [
            {
              "internalType": "uint256",
              "name": "",
              "type": "uint256"
            }
          ],
          "stateMutability": "view",
          "type": "function"
        },
        {
          "inputs": [
            {
              "internalType": "address",
              "name": "account",
              "type": "address"
            },
            {
              "internalType": "uint32",
              "name": "pos",
              "type": "uint32"
            }
          ],
          "name": "checkpoints",
          "outputs": [
            {
              "components": [
                {
                  "internalType": "uint32",
                  "name": "fromBlock",
                  "type": "uint32"
                },
                {
                  "internalType": "uint224",
                  "name": "votes",
                  "type": "uint224"
                }
              ],
              "internalType": "struct ERC20VotesUpgradeable.Checkpoint",
              "name": "",
              "type": "tuple"
            }
          ],
          "stateMutability": "view",
          "type": "function"
        },
        {
          "inputs": [],
          "name": "decimals",
          "outputs": [
            {
              "internalType": "uint8",
              "name": "",
              "type": "uint8"
            }
          ],
          "stateMutability": "view",
          "type": "function"
        },
        {
          "inputs": [
            {
              "internalType": "address",
              "name": "spender",
              "type": "address"
            },
            {
              "internalType": "uint256",
              "name": "subtractedValue",
              "type": "uint256"
            }
          ],
          "name": "decreaseAllowance",
          "outputs": [
            {
              "internalType": "bool",
              "name": "",
              "type": "bool"
            }
          ],
          "stateMutability": "nonpayable",
          "type": "function"
        },
        {
          "inputs": [
            {
              "internalType": "address",
              "name": "delegatee",
              "type": "address"
            }
          ],
          "name": "delegate",
          "outputs": [],
          "stateMutability": "nonpayable",
          "type": "function"
        },
        {
          "inputs": [
            {
              "internalType": "address",
              "name": "delegatee",
              "type": "address"
            },
            {
              "internalType": "uint256",
              "name": "nonce",
              "type": "uint256"
            },
            {
              "internalType": "uint256",
              "name": "expiry",
              "type": "uint256"
            },
            {
              "internalType": "uint8",
              "name": "v",
              "type": "uint8"
            },
            {
              "internalType": "bytes32",
              "name": "r",
              "type": "bytes32"
            },
            {
              "internalType": "bytes32",
              "name": "s",
              "type": "bytes32"
            }
          ],
          "name": "delegateBySig",
          "outputs": [],
          "stateMutability": "nonpayable",
          "type": "function"
        },
        {
          "inputs": [
            {
              "internalType": "address",
              "name": "account",
              "type": "address"
            }
          ],
          "name": "delegates",
          "outputs": [
            {
              "internalType": "address",
              "name": "",
              "type": "address"
            }
          ],
          "stateMutability": "view",
          "type": "function"
        },
        {
          "inputs": [
            {
              "internalType": "address",
              "name": "account",
              "type": "address"
            }
          ],
          "name": "getCurrentVotes",
          "outputs": [
            {
              "internalType": "uint96",
              "name": "",
              "type": "uint96"
            }
          ],
          "stateMutability": "view",
          "type": "function"
        },
        {
          "inputs": [
            {
              "internalType": "uint256",
              "name": "blockNumber",
              "type": "uint256"
            }
          ],
          "name": "getPastTotalSupply",
          "outputs": [
            {
              "internalType": "uint256",
              "name": "",
              "type": "uint256"
            }
          ],
          "stateMutability": "view",
          "type": "function"
        },
        {
          "inputs": [
            {
              "internalType": "address",
              "name": "account",
              "type": "address"
            },
            {
              "internalType": "uint256",
              "name": "blockNumber",
              "type": "uint256"
            }
          ],
          "name": "getPastVotes",
          "outputs": [
            {
              "internalType": "uint256",
              "name": "",
              "type": "uint256"
            }
          ],
          "stateMutability": "view",
          "type": "function"
        },
        {
          "inputs": [
            {
              "internalType": "address",
              "name": "account",
              "type": "address"
            },
            {
              "internalType": "uint256",
              "name": "blockNumber",
              "type": "uint256"
            }
          ],
          "name": "getPriorVotes",
          "outputs": [
            {
              "internalType": "uint96",
              "name": "",
              "type": "uint96"
            }
          ],
          "stateMutability": "view",
          "type": "function"
        },
        {
          "inputs": [
            {
              "internalType": "address",
              "name": "account",
              "type": "address"
            }
          ],
          "name": "getVotes",
          "outputs": [
            {
              "internalType": "uint256",
              "name": "",
              "type": "uint256"
            }
          ],
          "stateMutability": "view",
          "type": "function"
        },
        {
          "inputs": [
            {
              "internalType": "address",
              "name": "spender",
              "type": "address"
            },
            {
              "internalType": "uint256",
              "name": "addedValue",
              "type": "uint256"
            }
          ],
          "name": "increaseAllowance",
          "outputs": [
            {
              "internalType": "bool",
              "name": "",
              "type": "bool"
            }
          ],
          "stateMutability": "nonpayable",
          "type": "function"
        },
        {
          "inputs": [
            {
              "internalType": "string",
              "name": "name",
              "type": "string"
            },
            {
              "internalType": "string",
              "name": "symbol",
              "type": "string"
            },
            {
              "internalType": "uint8",
              "name": "decimals",
              "type": "uint8"
            }
          ],
          "name": "initialize",
          "outputs": [],
          "stateMutability": "nonpayable",
          "type": "function"
        },
        {
          "inputs": [
            {
              "internalType": "address",
              "name": "_minter",
              "type": "address"
            }
          ],
          "name": "initialize",
          "outputs": [],
          "stateMutability": "nonpayable",
          "type": "function"
        },
        {
          "inputs": [],
          "name": "initialize2",
          "outputs": [],
          "stateMutability": "nonpayable",
          "type": "function"
        },
        {
          "inputs": [
            {
              "internalType": "address",
              "name": "account",
              "type": "address"
            }
          ],
          "name": "isMinter",
          "outputs": [
            {
              "internalType": "bool",
              "name": "",
              "type": "bool"
            }
          ],
          "stateMutability": "view",
          "type": "function"
        },
        {
          "inputs": [
            {
              "internalType": "address",
              "name": "account",
              "type": "address"
            },
            {
              "internalType": "uint256",
              "name": "amount",
              "type": "uint256"
            }
          ],
          "name": "mint",
          "outputs": [
            {
              "internalType": "bool",
              "name": "",
              "type": "bool"
            }
          ],
          "stateMutability": "nonpayable",
          "type": "function"
        },
        {
          "inputs": [],
          "name": "name",
          "outputs": [
            {
              "internalType": "string",
              "name": "",
              "type": "string"
            }
          ],
          "stateMutability": "view",
          "type": "function"
        },
        {
          "inputs": [
            {
              "internalType": "address",
              "name": "owner",
              "type": "address"
            }
          ],
          "name": "nonces",
          "outputs": [
            {
              "internalType": "uint256",
              "name": "",
              "type": "uint256"
            }
          ],
          "stateMutability": "view",
          "type": "function"
        },
        {
          "inputs": [
            {
              "internalType": "address",
              "name": "account",
              "type": "address"
            }
          ],
          "name": "numCheckpoints",
          "outputs": [
            {
              "internalType": "uint32",
              "name": "",
              "type": "uint32"
            }
          ],
          "stateMutability": "view",
          "type": "function"
        },
        {
          "inputs": [
            {
              "internalType": "address",
              "name": "owner",
              "type": "address"
            },
            {
              "internalType": "address",
              "name": "spender",
              "type": "address"
            },
            {
              "internalType": "uint256",
              "name": "value",
              "type": "uint256"
            },
            {
              "internalType": "uint256",
              "name": "deadline",
              "type": "uint256"
            },
            {
              "internalType": "uint8",
              "name": "v",
              "type": "uint8"
            },
            {
              "internalType": "bytes32",
              "name": "r",
              "type": "bytes32"
            },
            {
              "internalType": "bytes32",
              "name": "s",
              "type": "bytes32"
            }
          ],
          "name": "permit",
          "outputs": [],
          "stateMutability": "nonpayable",
          "type": "function"
        },
        {
          "inputs": [],
          "name": "renounceMinter",
          "outputs": [],
          "stateMutability": "nonpayable",
          "type": "function"
        },
        {
          "inputs": [],
          "name": "symbol",
          "outputs": [
            {
              "internalType": "string",
              "name": "",
              "type": "string"
            }
          ],
          "stateMutability": "view",
          "type": "function"
        },
        {
          "inputs": [],
          "name": "totalSupply",
          "outputs": [
            {
              "internalType": "uint256",
              "name": "",
              "type": "uint256"
            }
          ],
          "stateMutability": "view",
          "type": "function"
        },
        {
          "inputs": [
            {
              "internalType": "address",
              "name": "recipient",
              "type": "address"
            },
            {
              "internalType": "uint256",
              "name": "amount",
              "type": "uint256"
            }
          ],
          "name": "transfer",
          "outputs": [
            {
              "internalType": "bool",
              "name": "",
              "type": "bool"
            }
          ],
          "stateMutability": "nonpayable",
          "type": "function"
        },
        {
          "inputs": [
            {
              "internalType": "address",
              "name": "sender",
              "type": "address"
            },
            {
              "internalType": "address",
              "name": "recipient",
              "type": "address"
            },
            {
              "internalType": "uint256",
              "name": "amount",
              "type": "uint256"
            }
          ],
          "name": "transferFrom",
          "outputs": [
            {
              "internalType": "bool",
              "name": "",
              "type": "bool"
            }
          ],
          "stateMutability": "nonpayable",
          "type": "function"
        }
      ],
      "evm": {
        "bytecode": {
          "linkReferences": {},
          "object": "608060405234801561001057600080fd5b506127a4806100206000396000f3fe608060405234801561001057600080fd5b50600436106101e55760003560e01c8063782d6fe11161010f578063a9059cbb116100a2578063c4d66de811610071578063c4d66de814610457578063d505accf1461046a578063dd62ed3e1461047d578063f1127ed8146104b657600080fd5b8063a9059cbb1461040b578063aa271e1a1461041e578063b4b5ea5714610431578063c3cda5201461044457600080fd5b8063983b2d56116100de578063983b2d56146103ca57806398650275146103dd5780639ab24eb0146103e5578063a457c2d7146103f857600080fd5b8063782d6fe1146103715780637ecebe001461039c5780638e539e8c146103af57806395d89b41146103c257600080fd5b80633950935111610187578063587cde1e11610156578063587cde1e146102c85780635c19a95c1461030d5780636fcfff451461032057806370a082311461034857600080fd5b806339509351146102875780633a46b1a81461029a57806340c10f19146102ad578063472abf68146102c057600080fd5b806318160ddd116101c357806318160ddd1461024057806323b872dd14610252578063313ce567146102655780633644e5151461027f57600080fd5b806306fdde03146101ea578063095ea7b3146102085780631624f6c61461022b575b600080fd5b6101f26104f3565b6040516101ff91906125af565b60405180910390f35b61021b610216366004612468565b610502565b60405190151581526020016101ff565b61023e610239366004612526565b610518565b005b6035545b6040519081526020016101ff565b61021b6102603660046123c4565b6105c7565b61026d610671565b60405160ff90911681526020016101ff565b61024461067f565b61021b610295366004612468565b610689565b6102446102a8366004612468565b6106c5565b61021b6102bb366004612468565b610740565b61023e610771565b6102f56102d6366004612378565b6001600160a01b03908116600090815261016960205260409020541690565b6040516001600160a01b0390911681526020016101ff565b61023e61031b366004612378565b61088d565b61033361032e366004612378565b61089a565b60405163ffffffff90911681526020016101ff565b610244610356366004612378565b6001600160a01b031660009081526033602052604090205490565b61038461037f366004612468565b6108c3565b6040516001600160601b0390911681526020016101ff565b6102446103aa366004612378565b6108d7565b6102446103bd366004612597565b6108f6565b6101f2610953565b61023e6103d8366004612378565b61095d565b61023e61098b565b6102446103f3366004612378565b610994565b61021b610406366004612468565b610a2b565b61021b610419366004612468565b610ac4565b61021b61042c366004612378565b610ad1565b61038461043f366004612378565b610ade565b61023e610452366004612491565b610aec565b61023e610465366004612378565b610c22565b61023e6104783660046123ff565b610cfc565b61024461048b366004612392565b6001600160a01b03918216600090815260346020908152604080832093909416825291909152205490565b6104c96104c43660046124e8565b610e43565b60408051825163ffffffff1681526020928301516001600160e01b031692810192909252016101ff565b60606104fd610ed6565b905090565b600061050f338484610f68565b50600192915050565b600054610100900460ff1680610531575060005460ff16155b6105565760405162461bcd60e51b815260040161054d90612652565b60405180910390fd5b600054610100900460ff16158015610578576000805461ffff19166101011790555b835161058b9060cd906020870190612215565b50825161059f9060ce906020860190612215565b5060cf805460ff191660ff841617905580156105c1576000805461ff00191690555b50505050565b60006105d484848461108c565b6001600160a01b0384166000908152603460209081526040808320338452909152902054828110156106595760405162461bcd60e51b815260206004820152602860248201527f45524332303a207472616e7366657220616d6f756e74206578636565647320616044820152676c6c6f77616e636560c01b606482015260840161054d565b6106668533858403610f68565b506001949350505050565b60006104fd60cf5460ff1690565b60006104fd611260565b3360008181526034602090815260408083206001600160a01b0387168452909152812054909161050f9185906106c09086906126a0565b610f68565b60004382106107165760405162461bcd60e51b815260206004820152601f60248201527f4552433230566f7465733a20626c6f636b206e6f7420796574206d696e656400604482015260640161054d565b6001600160a01b038316600090815261016a6020526040902061073990836112dd565b9392505050565b600061074b33610ad1565b6107675760405162461bcd60e51b815260040161054d90612602565b61050f83836113b6565b600061077d6101025490565b146107fc5760405162461bcd60e51b815260206004820152604360248201527f416c726561647920696e697469616c697a65643a204549503731325f696e697460448201527f2c2045524332305065726d69745f696e69742c204552433230566f7465735f696064820152621b9a5d60ea1b608482015260a40161054d565b6108506108076104f3565b6040805180820190915260018152603160f81b6020918201528151910120610102557fc89efdaa54c0f20c7adf612882df0950f5a951637e0307cdcb4c672f298b8bc661010355565b61088361085b6104f3565b507f6e71edae12b1b97f4d1f60370fef10105fa2faae0126114a169c64845d6126c961013755565b61088b6113c0565b565b6108973382611446565b50565b6001600160a01b038116600090815261016a60205260408120546108bd906114c1565b92915050565b60006107396108d284846106c5565b61152a565b6001600160a01b038116600090815261013660205260408120546108bd565b60004382106109475760405162461bcd60e51b815260206004820152601f60248201527f4552433230566f7465733a20626c6f636b206e6f7420796574206d696e656400604482015260640161054d565b6108bd61016b836112dd565b60606104fd611592565b61096633610ad1565b6109825760405162461bcd60e51b815260040161054d90612602565b610897816115a1565b61088b336115e3565b6001600160a01b038116600090815261016a60205260408120548015610a18576001600160a01b038316600090815261016a602052604090206109d86001836126cc565b815481106109f657634e487b7160e01b600052603260045260246000fd5b60009182526020909120015464010000000090046001600160e01b0316610a1b565b60005b6001600160e01b03169392505050565b3360009081526034602090815260408083206001600160a01b038616845290915281205482811015610aad5760405162461bcd60e51b815260206004820152602560248201527f45524332303a2064656372656173656420616c6c6f77616e63652062656c6f77604482015264207a65726f60d81b606482015260840161054d565b610aba3385858403610f68565b5060019392505050565b600061050f33848461108c565b60006108bd606883611625565b60006108bd6108d283610994565b83421115610b3c5760405162461bcd60e51b815260206004820152601d60248201527f4552433230566f7465733a207369676e61747572652065787069726564000000604482015260640161054d565b604080517fe48329057bfd03d55e49b547132e39cffd9c1820ad7b9d4c5307691425d15adf60208201526001600160a01b038816918101919091526060810186905260808101859052600090610bb690610bae9060a001604051602081830303815290604052805190602001206116a8565b8585856116f6565b9050610bc18161189f565b8614610c0f5760405162461bcd60e51b815260206004820152601960248201527f4552433230566f7465733a20696e76616c6964206e6f6e636500000000000000604482015260640161054d565b610c198188611446565b50505050505050565b600054610100900460ff1680610c3b575060005460ff16155b610c575760405162461bcd60e51b815260040161054d90612652565b600054610100900460ff16158015610c79576000805461ffff19166101011790555b610c82826118c8565b610cd6604051806040016040528060158152602001742ab73637b1b5902234b9b1b7bab73a102a37b5b2b760591b8152506040518060400160405280600381526020016215511560ea1b8152506012610518565b610ce6610ce16104f3565b611928565b8015610cf8576000805461ff00191690555b5050565b83421115610d4c5760405162461bcd60e51b815260206004820152601d60248201527f45524332305065726d69743a206578706972656420646561646c696e65000000604482015260640161054d565b600061013754888888610d5e8c61189f565b6040805160208101969096526001600160a01b0394851690860152929091166060840152608083015260a082015260c0810186905260e0016040516020818303038152906040528051906020012090506000610db9826116a8565b90506000610dc9828787876116f6565b9050896001600160a01b0316816001600160a01b031614610e2c5760405162461bcd60e51b815260206004820152601e60248201527f45524332305065726d69743a20696e76616c6964207369676e61747572650000604482015260640161054d565b610e378a8a8a610f68565b50505050505050505050565b60408051808201909152600080825260208201526001600160a01b038316600090815261016a60205260409020805463ffffffff8416908110610e9657634e487b7160e01b600052603260045260246000fd5b60009182526020918290206040805180820190915291015463ffffffff8116825264010000000090046001600160e01b0316918101919091529392505050565b606060cd8054610ee5906126e3565b80601f0160208091040260200160405190810160405280929190818152602001828054610f11906126e3565b8015610f5e5780601f10610f3357610100808354040283529160200191610f5e565b820191906000526020600020905b815481529060010190602001808311610f4157829003601f168201915b5050505050905090565b6001600160a01b038316610fca5760405162461bcd60e51b8152602060048201526024808201527f45524332303a20617070726f76652066726f6d20746865207a65726f206164646044820152637265737360e01b606482015260840161054d565b6001600160a01b03821661102b5760405162461bcd60e51b815260206004820152602260248201527f45524332303a20617070726f766520746f20746865207a65726f206164647265604482015261737360f01b606482015260840161054d565b6001600160a01b0383811660008181526034602090815260408083209487168084529482529182902085905590518481527f8c5be1e5ebec7d5bd14f71427d1e84f3dd0314c0f7b2291e5b200ac8c7c3b925910160405180910390a3505050565b6001600160a01b0383166110f05760405162461bcd60e51b815260206004820152602560248201527f45524332303a207472616e736665722066726f6d20746865207a65726f206164604482015264647265737360d81b606482015260840161054d565b6001600160a01b0382166111525760405162461bcd60e51b815260206004820152602360248201527f45524332303a207472616e7366657220746f20746865207a65726f206164647260448201526265737360e81b606482015260840161054d565b6001600160a01b038316600090815260336020526040902054818110156111ca5760405162461bcd60e51b815260206004820152602660248201527f45524332303a207472616e7366657220616d6f756e7420657863656564732062604482015265616c616e636560d01b606482015260840161054d565b6001600160a01b038085166000908152603360205260408082208585039055918516815290812080548492906112019084906126a0565b92505081905550826001600160a01b0316846001600160a01b03167fddf252ad1be2c89b69c2b068fc378daa952ba7f163c4a11628f55a4df523b3ef8460405161124d91815260200190565b60405180910390a36105c18484846119b8565b60006104fd7f8b73c3c69bb8fe3d512ecc4cf759cc79239f7b179b0ffacaa9a75d522b39400f6112906101025490565b610103546040805160208101859052908101839052606081018290524660808201523060a082015260009060c0016040516020818303038152906040528051906020012090509392505050565b8154600090815b8181101561134f5760006112f882846119c3565b90508486828154811061131b57634e487b7160e01b600052603260045260246000fd5b60009182526020909120015463ffffffff16111561133b57809250611349565b6113468160016126a0565b91505b506112e4565b81156113a157846113616001846126cc565b8154811061137f57634e487b7160e01b600052603260045260246000fd5b60009182526020909120015464010000000090046001600160e01b03166113a4565b60005b6001600160e01b031695945050505050565b610cf88282611a1a565b61016b54158061141d575060355461016b80546113df906001906126cc565b815481106113fd57634e487b7160e01b600052603260045260246000fd5b60009182526020909120015464010000000090046001600160e01b031614155b1561088b5761142f61016b6000612295565b610cf861016b611aa561144160355490565b611ab1565b6001600160a01b0382811660008181526101696020818152604080842080546033845282862054949093528787166001600160a01b03198416811790915590519190951694919391928592917f3134e8a2e6d97e929a7e54011ea5485d7d196dd5f0ba4d4ef95803e8e3fc257f9190a46105c1828483611c54565b600063ffffffff8211156115265760405162461bcd60e51b815260206004820152602660248201527f53616665436173743a2076616c756520646f65736e27742066697420696e203360448201526532206269747360d01b606482015260840161054d565b5090565b60006001600160601b038211156115265760405162461bcd60e51b815260206004820152602660248201527f53616665436173743a2076616c756520646f65736e27742066697420696e203960448201526536206269747360d01b606482015260840161054d565b606060ce8054610ee5906126e3565b6115ac606882611d93565b6040516001600160a01b038216907f6ae172837ea30b801fbfcdd4108aa1d5bf8ff775444fd70256b44e6bf3dfc3f690600090a250565b6115ee606882611e0f565b6040516001600160a01b038216907fe94479a9f7e1952cc78f2d6baab678adc1b772d936c6583def489e524cb6669290600090a250565b60006001600160a01b0382166116885760405162461bcd60e51b815260206004820152602260248201527f526f6c65733a206163636f756e7420697320746865207a65726f206164647265604482015261737360f01b606482015260840161054d565b506001600160a01b03166000908152602091909152604090205460ff1690565b60006108bd6116b5611260565b8360405161190160f01b6020820152602281018390526042810182905260009060620160405160208183030381529060405280519060200120905092915050565b60007f7fffffffffffffffffffffffffffffff5d576e7357a4501ddfe92f46681b20a08211156117735760405162461bcd60e51b815260206004820152602260248201527f45434453413a20696e76616c6964207369676e6174757265202773272076616c604482015261756560f01b606482015260840161054d565b8360ff16601b148061178857508360ff16601c145b6117df5760405162461bcd60e51b815260206004820152602260248201527f45434453413a20696e76616c6964207369676e6174757265202776272076616c604482015261756560f01b606482015260840161054d565b6040805160008082526020820180845288905260ff871692820192909252606081018590526080810184905260019060a0016020604051602081039080840390855afa158015611833573d6000803e3d6000fd5b5050604051601f1901519150506001600160a01b0381166118965760405162461bcd60e51b815260206004820152601860248201527f45434453413a20696e76616c6964207369676e61747572650000000000000000604482015260640161054d565b95945050505050565b6001600160a01b0381166000908152610136602052604090208054600181018255905b50919050565b600054610100900460ff16806118e1575060005460ff16155b6118fd5760405162461bcd60e51b815260040161054d90612652565b600054610100900460ff1615801561191f576000805461ffff19166101011790555b610ce682611e91565b600054610100900460ff1680611941575060005460ff16155b61195d5760405162461bcd60e51b815260040161054d90612652565b600054610100900460ff1615801561197f576000805461ffff19166101011790555b611987611efe565b6119aa82604051806040016040528060018152602001603160f81b815250611f69565b610ce682611ff5565b505050565b6119b3838383612086565b600060026119d18184612718565b6119dc600286612718565b6119e691906126a0565b6119f091906126b8565b6119fb6002846126b8565b611a066002866126b8565b611a1091906126a0565b61073991906126a0565b611a2482826120b9565b6035546001600160601b031015611a965760405162461bcd60e51b815260206004820152603060248201527f4552433230566f7465733a20746f74616c20737570706c79207269736b73206f60448201526f766572666c6f77696e6720766f74657360801b606482015260840161054d565b6105c161016b611aa583611ab1565b600061073982846126a0565b825460009081908015611b0a5785611aca6001836126cc565b81548110611ae857634e487b7160e01b600052603260045260246000fd5b60009182526020909120015464010000000090046001600160e01b0316611b0d565b60005b6001600160e01b03169250611b2683858763ffffffff16565b9150600081118015611b7257504386611b406001846126cc565b81548110611b5e57634e487b7160e01b600052603260045260246000fd5b60009182526020909120015463ffffffff16145b15611be057611b80826121a0565b86611b8c6001846126cc565b81548110611baa57634e487b7160e01b600052603260045260246000fd5b9060005260206000200160000160046101000a8154816001600160e01b0302191690836001600160e01b03160217905550611c4b565b856040518060400160405280611bf5436114c1565b63ffffffff168152602001611c09856121a0565b6001600160e01b0390811690915282546001810184556000938452602093849020835194909301519091166401000000000263ffffffff909316929092179101555b50935093915050565b816001600160a01b0316836001600160a01b031614158015611c765750600081115b156119b3576001600160a01b03831615611d05576001600160a01b038316600090815261016a602052604081208190611cb29061220985611ab1565b91509150846001600160a01b03167fdec2bacdd2f05b59de34da9b523dff8be42e5e38e818c82fdb0bae774387a7248383604051611cfa929190918252602082015260400190565b60405180910390a250505b6001600160a01b038216156119b3576001600160a01b038216600090815261016a602052604081208190611d3c90611aa585611ab1565b91509150836001600160a01b03167fdec2bacdd2f05b59de34da9b523dff8be42e5e38e818c82fdb0bae774387a7248383604051611d84929190918252602082015260400190565b60405180910390a25050505050565b611d9d8282611625565b15611dea5760405162461bcd60e51b815260206004820152601f60248201527f526f6c65733a206163636f756e7420616c72656164792068617320726f6c6500604482015260640161054d565b6001600160a01b0316600090815260209190915260409020805460ff19166001179055565b611e198282611625565b611e6f5760405162461bcd60e51b815260206004820152602160248201527f526f6c65733a206163636f756e7420646f6573206e6f74206861766520726f6c6044820152606560f81b606482015260840161054d565b6001600160a01b0316600090815260209190915260409020805460ff19169055565b600054610100900460ff1680611eaa575060005460ff16155b611ec65760405162461bcd60e51b815260040161054d90612652565b600054610100900460ff16158015611ee8576000805461ffff19166101011790555b611ef182610ad1565b610ce657610ce6826115a1565b600054610100900460ff1680611f17575060005460ff16155b611f335760405162461bcd60e51b815260040161054d90612652565b600054610100900460ff16158015611f55576000805461ffff19166101011790555b8015610897576000805461ff001916905550565b600054610100900460ff1680611f82575060005460ff16155b611f9e5760405162461bcd60e51b815260040161054d90612652565b600054610100900460ff16158015611fc0576000805461ffff19166101011790555b8251602080850191909120835191840191909120610102919091556101035580156119b3576000805461ff0019169055505050565b600054610100900460ff168061200e575060005460ff16155b61202a5760405162461bcd60e51b815260040161054d90612652565b600054610100900460ff1615801561204c576000805461ffff19166101011790555b7f6e71edae12b1b97f4d1f60370fef10105fa2faae0126114a169c64845d6126c9610137558015610cf8576000805461ff00191690555050565b6001600160a01b03838116600090815261016960205260408082205485841683529120546119b392918216911683611c54565b6001600160a01b03821661210f5760405162461bcd60e51b815260206004820152601f60248201527f45524332303a206d696e7420746f20746865207a65726f206164647265737300604482015260640161054d565b806035600082825461212191906126a0565b90915550506001600160a01b0382166000908152603360205260408120805483929061214e9084906126a0565b90915550506040518181526001600160a01b038316906000907fddf252ad1be2c89b69c2b068fc378daa952ba7f163c4a11628f55a4df523b3ef9060200160405180910390a3610cf8600083836119b8565b60006001600160e01b038211156115265760405162461bcd60e51b815260206004820152602760248201527f53616665436173743a2076616c756520646f65736e27742066697420696e20326044820152663234206269747360c81b606482015260840161054d565b600061073982846126cc565b828054612221906126e3565b90600052602060002090601f0160209004810192826122435760008555612289565b82601f1061225c57805160ff1916838001178555612289565b82800160010185558215612289579182015b8281111561228957825182559160200191906001019061226e565b506115269291506122af565b508054600082559060005260206000209081019061089791905b5b8082111561152657600081556001016122b0565b80356001600160a01b03811681146122db57600080fd5b919050565b600082601f8301126122f0578081fd5b813567ffffffffffffffff8082111561230b5761230b612758565b604051601f8301601f19908116603f0116810190828211818310171561233357612333612758565b8160405283815286602085880101111561234b578485fd5b8360208701602083013792830160200193909352509392505050565b803560ff811681146122db57600080fd5b600060208284031215612389578081fd5b610739826122c4565b600080604083850312156123a4578081fd5b6123ad836122c4565b91506123bb602084016122c4565b90509250929050565b6000806000606084860312156123d8578081fd5b6123e1846122c4565b92506123ef602085016122c4565b9150604084013590509250925092565b600080600080600080600060e0888a031215612419578283fd5b612422886122c4565b9650612430602089016122c4565b9550604088013594506060880135935061244c60808901612367565b925060a0880135915060c0880135905092959891949750929550565b6000806040838503121561247a578182fd5b612483836122c4565b946020939093013593505050565b60008060008060008060c087890312156124a9578182fd5b6124b2876122c4565b955060208701359450604087013593506124ce60608801612367565b92506080870135915060a087013590509295509295509295565b600080604083850312156124fa578182fd5b612503836122c4565b9150602083013563ffffffff8116811461251b578182fd5b809150509250929050565b60008060006060848603121561253a578283fd5b833567ffffffffffffffff80821115612551578485fd5b61255d878388016122e0565b94506020860135915080821115612572578384fd5b5061257f868287016122e0565b92505061258e60408501612367565b90509250925092565b6000602082840312156125a8578081fd5b5035919050565b6000602080835283518082850152825b818110156125db578581018301518582016040015282016125bf565b818111156125ec5783604083870101525b50601f01601f1916929092016040019392505050565b60208082526030908201527f4d696e746572526f6c653a2063616c6c657220646f6573206e6f74206861766560408201526f20746865204d696e74657220726f6c6560801b606082015260800190565b6020808252602e908201527f496e697469616c697a61626c653a20636f6e747261637420697320616c72656160408201526d191e481a5b9a5d1a585b1a5e995960921b606082015260800190565b600082198211156126b3576126b361272c565b500190565b6000826126c7576126c7612742565b500490565b6000828210156126de576126de61272c565b500390565b600181811c908216806126f757607f821691505b602082108114156118c257634e487b7160e01b600052602260045260246000fd5b60008261272757612727612742565b500690565b634e487b7160e01b600052601160045260246000fd5b634e487b7160e01b600052601260045260246000fd5b634e487b7160e01b600052604160045260246000fdfea26469706673582212201beccd32b048ca5839b7e0679c20796c38fe5ca40573affe8cafdaa9e048e3bd64736f6c63430008040033",
          "opcodes": "PUSH1 0x80 PUSH1 0x40 MSTORE CALLVALUE DUP1 ISZERO PUSH2 0x10 JUMPI PUSH1 0x0 DUP1 REVERT JUMPDEST POP PUSH2 0x27A4 DUP1 PUSH2 0x20 PUSH1 0x0 CODECOPY PUSH1 0x0 RETURN INVALID PUSH1 0x80 PUSH1 0x40 MSTORE CALLVALUE DUP1 ISZERO PUSH2 0x10 JUMPI PUSH1 0x0 DUP1 REVERT JUMPDEST POP PUSH1 0x4 CALLDATASIZE LT PUSH2 0x1E5 JUMPI PUSH1 0x0 CALLDATALOAD PUSH1 0xE0 SHR DUP1 PUSH4 0x782D6FE1 GT PUSH2 0x10F JUMPI DUP1 PUSH4 0xA9059CBB GT PUSH2 0xA2 JUMPI DUP1 PUSH4 0xC4D66DE8 GT PUSH2 0x71 JUMPI DUP1 PUSH4 0xC4D66DE8 EQ PUSH2 0x457 JUMPI DUP1 PUSH4 0xD505ACCF EQ PUSH2 0x46A JUMPI DUP1 PUSH4 0xDD62ED3E EQ PUSH2 0x47D JUMPI DUP1 PUSH4 0xF1127ED8 EQ PUSH2 0x4B6 JUMPI PUSH1 0x0 DUP1 REVERT JUMPDEST DUP1 PUSH4 0xA9059CBB EQ PUSH2 0x40B JUMPI DUP1 PUSH4 0xAA271E1A EQ PUSH2 0x41E JUMPI DUP1 PUSH4 0xB4B5EA57 EQ PUSH2 0x431 JUMPI DUP1 PUSH4 0xC3CDA520 EQ PUSH2 0x444 JUMPI PUSH1 0x0 DUP1 REVERT JUMPDEST DUP1 PUSH4 0x983B2D56 GT PUSH2 0xDE JUMPI DUP1 PUSH4 0x983B2D56 EQ PUSH2 0x3CA JUMPI DUP1 PUSH4 0x98650275 EQ PUSH2 0x3DD JUMPI DUP1 PUSH4 0x9AB24EB0 EQ PUSH2 0x3E5 JUMPI DUP1 PUSH4 0xA457C2D7 EQ PUSH2 0x3F8 JUMPI PUSH1 0x0 DUP1 REVERT JUMPDEST DUP1 PUSH4 0x782D6FE1 EQ PUSH2 0x371 JUMPI DUP1 PUSH4 0x7ECEBE00 EQ PUSH2 0x39C JUMPI DUP1 PUSH4 0x8E539E8C EQ PUSH2 0x3AF JUMPI DUP1 PUSH4 0x95D89B41 EQ PUSH2 0x3C2 JUMPI PUSH1 0x0 DUP1 REVERT JUMPDEST DUP1 PUSH4 0x39509351 GT PUSH2 0x187 JUMPI DUP1 PUSH4 0x587CDE1E GT PUSH2 0x156 JUMPI DUP1 PUSH4 0x587CDE1E EQ PUSH2 0x2C8 JUMPI DUP1 PUSH4 0x5C19A95C EQ PUSH2 0x30D JUMPI DUP1 PUSH4 0x6FCFFF45 EQ PUSH2 0x320 JUMPI DUP1 PUSH4 0x70A08231 EQ PUSH2 0x348 JUMPI PUSH1 0x0 DUP1 REVERT JUMPDEST DUP1 PUSH4 0x39509351 EQ PUSH2 0x287 JUMPI DUP1 PUSH4 0x3A46B1A8 EQ PUSH2 0x29A JUMPI DUP1 PUSH4 0x40C10F19 EQ PUSH2 0x2AD JUMPI DUP1 PUSH4 0x472ABF68 EQ PUSH2 0x2C0 JUMPI PUSH1 0x0 DUP1 REVERT JUMPDEST DUP1 PUSH4 0x18160DDD GT PUSH2 0x1C3 JUMPI DUP1 PUSH4 0x18160DDD EQ PUSH2 0x240 JUMPI DUP1 PUSH4 0x23B872DD EQ PUSH2 0x252 JUMPI DUP1 PUSH4 0x313CE567 EQ PUSH2 0x265 JUMPI DUP1 PUSH4 0x3644E515 EQ PUSH2 0x27F JUMPI PUSH1 0x0 DUP1 REVERT JUMPDEST DUP1 PUSH4 0x6FDDE03 EQ PUSH2 0x1EA JUMPI DUP1 PUSH4 0x95EA7B3 EQ PUSH2 0x208 JUMPI DUP1 PUSH4 0x1624F6C6 EQ PUSH2 0x22B JUMPI JUMPDEST PUSH1 0x0 DUP1 REVERT JUMPDEST PUSH2 0x1F2 PUSH2 0x4F3 JUMP JUMPDEST PUSH1 0x40 MLOAD PUSH2 0x1FF SWAP2 SWAP1 PUSH2 0x25AF JUMP JUMPDEST PUSH1 0x40 MLOAD DUP1 SWAP2 SUB SWAP1 RETURN JUMPDEST PUSH2 0x21B PUSH2 0x216 CALLDATASIZE PUSH1 0x4 PUSH2 0x2468 JUMP JUMPDEST PUSH2 0x502 JUMP JUMPDEST PUSH1 0x40 MLOAD SWAP1 ISZERO ISZERO DUP2 MSTORE PUSH1 0x20 ADD PUSH2 0x1FF JUMP JUMPDEST PUSH2 0x23E PUSH2 0x239 CALLDATASIZE PUSH1 0x4 PUSH2 0x2526 JUMP JUMPDEST PUSH2 0x518 JUMP JUMPDEST STOP JUMPDEST PUSH1 0x35 SLOAD JUMPDEST PUSH1 0x40 MLOAD SWAP1 DUP2 MSTORE PUSH1 0x20 ADD PUSH2 0x1FF JUMP JUMPDEST PUSH2 0x21B PUSH2 0x260 CALLDATASIZE PUSH1 0x4 PUSH2 0x23C4 JUMP JUMPDEST PUSH2 0x5C7 JUMP JUMPDEST PUSH2 0x26D PUSH2 0x671 JUMP JUMPDEST PUSH1 0x40 MLOAD PUSH1 0xFF SWAP1 SWAP2 AND DUP2 MSTORE PUSH1 0x20 ADD PUSH2 0x1FF JUMP JUMPDEST PUSH2 0x244 PUSH2 0x67F JUMP JUMPDEST PUSH2 0x21B PUSH2 0x295 CALLDATASIZE PUSH1 0x4 PUSH2 0x2468 JUMP JUMPDEST PUSH2 0x689 JUMP JUMPDEST PUSH2 0x244 PUSH2 0x2A8 CALLDATASIZE PUSH1 0x4 PUSH2 0x2468 JUMP JUMPDEST PUSH2 0x6C5 JUMP JUMPDEST PUSH2 0x21B PUSH2 0x2BB CALLDATASIZE PUSH1 0x4 PUSH2 0x2468 JUMP JUMPDEST PUSH2 0x740 JUMP JUMPDEST PUSH2 0x23E PUSH2 0x771 JUMP JUMPDEST PUSH2 0x2F5 PUSH2 0x2D6 CALLDATASIZE PUSH1 0x4 PUSH2 0x2378 JUMP JUMPDEST PUSH1 0x1 PUSH1 0x1 PUSH1 0xA0 SHL SUB SWAP1 DUP2 AND PUSH1 0x0 SWAP1 DUP2 MSTORE PUSH2 0x169 PUSH1 0x20 MSTORE PUSH1 0x40 SWAP1 KECCAK256 SLOAD AND SWAP1 JUMP JUMPDEST PUSH1 0x40 MLOAD PUSH1 0x1 PUSH1 0x1 PUSH1 0xA0 SHL SUB SWAP1 SWAP2 AND DUP2 MSTORE PUSH1 0x20 ADD PUSH2 0x1FF JUMP JUMPDEST PUSH2 0x23E PUSH2 0x31B CALLDATASIZE PUSH1 0x4 PUSH2 0x2378 JUMP JUMPDEST PUSH2 0x88D JUMP JUMPDEST PUSH2 0x333 PUSH2 0x32E CALLDATASIZE PUSH1 0x4 PUSH2 0x2378 JUMP JUMPDEST PUSH2 0x89A JUMP JUMPDEST PUSH1 0x40 MLOAD PUSH4 0xFFFFFFFF SWAP1 SWAP2 AND DUP2 MSTORE PUSH1 0x20 ADD PUSH2 0x1FF JUMP JUMPDEST PUSH2 0x244 PUSH2 0x356 CALLDATASIZE PUSH1 0x4 PUSH2 0x2378 JUMP JUMPDEST PUSH1 0x1 PUSH1 0x1 PUSH1 0xA0 SHL SUB AND PUSH1 0x0 SWAP1 DUP2 MSTORE PUSH1 0x33 PUSH1 0x20 MSTORE PUSH1 0x40 SWAP1 KECCAK256 SLOAD SWAP1 JUMP JUMPDEST PUSH2 0x384 PUSH2 0x37F CALLDATASIZE PUSH1 0x4 PUSH2 0x2468 JUMP JUMPDEST PUSH2 0x8C3 JUMP JUMPDEST PUSH1 0x40 MLOAD PUSH1 0x1 PUSH1 0x1 PUSH1 0x60 SHL SUB SWAP1 SWAP2 AND DUP2 MSTORE PUSH1 0x20 ADD PUSH2 0x1FF JUMP JUMPDEST PUSH2 0x244 PUSH2 0x3AA CALLDATASIZE PUSH1 0x4 PUSH2 0x2378 JUMP JUMPDEST PUSH2 0x8D7 JUMP JUMPDEST PUSH2 0x244 PUSH2 0x3BD CALLDATASIZE PUSH1 0x4 PUSH2 0x2597 JUMP JUMPDEST PUSH2 0x8F6 JUMP JUMPDEST PUSH2 0x1F2 PUSH2 0x953 JUMP JUMPDEST PUSH2 0x23E PUSH2 0x3D8 CALLDATASIZE PUSH1 0x4 PUSH2 0x2378 JUMP JUMPDEST PUSH2 0x95D JUMP JUMPDEST PUSH2 0x23E PUSH2 0x98B JUMP JUMPDEST PUSH2 0x244 PUSH2 0x3F3 CALLDATASIZE PUSH1 0x4 PUSH2 0x2378 JUMP JUMPDEST PUSH2 0x994 JUMP JUMPDEST PUSH2 0x21B PUSH2 0x406 CALLDATASIZE PUSH1 0x4 PUSH2 0x2468 JUMP JUMPDEST PUSH2 0xA2B JUMP JUMPDEST PUSH2 0x21B PUSH2 0x419 CALLDATASIZE PUSH1 0x4 PUSH2 0x2468 JUMP JUMPDEST PUSH2 0xAC4 JUMP JUMPDEST PUSH2 0x21B PUSH2 0x42C CALLDATASIZE PUSH1 0x4 PUSH2 0x2378 JUMP JUMPDEST PUSH2 0xAD1 JUMP JUMPDEST PUSH2 0x384 PUSH2 0x43F CALLDATASIZE PUSH1 0x4 PUSH2 0x2378 JUMP JUMPDEST PUSH2 0xADE JUMP JUMPDEST PUSH2 0x23E PUSH2 0x452 CALLDATASIZE PUSH1 0x4 PUSH2 0x2491 JUMP JUMPDEST PUSH2 0xAEC JUMP JUMPDEST PUSH2 0x23E PUSH2 0x465 CALLDATASIZE PUSH1 0x4 PUSH2 0x2378 JUMP JUMPDEST PUSH2 0xC22 JUMP JUMPDEST PUSH2 0x23E PUSH2 0x478 CALLDATASIZE PUSH1 0x4 PUSH2 0x23FF JUMP JUMPDEST PUSH2 0xCFC JUMP JUMPDEST PUSH2 0x244 PUSH2 0x48B CALLDATASIZE PUSH1 0x4 PUSH2 0x2392 JUMP JUMPDEST PUSH1 0x1 PUSH1 0x1 PUSH1 0xA0 SHL SUB SWAP2 DUP3 AND PUSH1 0x0 SWAP1 DUP2 MSTORE PUSH1 0x34 PUSH1 0x20 SWAP1 DUP2 MSTORE PUSH1 0x40 DUP1 DUP4 KECCAK256 SWAP4 SWAP1 SWAP5 AND DUP3 MSTORE SWAP2 SWAP1 SWAP2 MSTORE KECCAK256 SLOAD SWAP1 JUMP JUMPDEST PUSH2 0x4C9 PUSH2 0x4C4 CALLDATASIZE PUSH1 0x4 PUSH2 0x24E8 JUMP JUMPDEST PUSH2 0xE43 JUMP JUMPDEST PUSH1 0x40 DUP1 MLOAD DUP3 MLOAD PUSH4 0xFFFFFFFF AND DUP2 MSTORE PUSH1 0x20 SWAP3 DUP4 ADD MLOAD PUSH1 0x1 PUSH1 0x1 PUSH1 0xE0 SHL SUB AND SWAP3 DUP2 ADD SWAP3 SWAP1 SWAP3 MSTORE ADD PUSH2 0x1FF JUMP JUMPDEST PUSH1 0x60 PUSH2 0x4FD PUSH2 0xED6 JUMP JUMPDEST SWAP1 POP SWAP1 JUMP JUMPDEST PUSH1 0x0 PUSH2 0x50F CALLER DUP5 DUP5 PUSH2 0xF68 JUMP JUMPDEST POP PUSH1 0x1 SWAP3 SWAP2 POP POP JUMP JUMPDEST PUSH1 0x0 SLOAD PUSH2 0x100 SWAP1 DIV PUSH1 0xFF AND DUP1 PUSH2 0x531 JUMPI POP PUSH1 0x0 SLOAD PUSH1 0xFF AND ISZERO JUMPDEST PUSH2 0x556 JUMPI PUSH1 0x40 MLOAD PUSH3 0x461BCD PUSH1 0xE5 SHL DUP2 MSTORE PUSH1 0x4 ADD PUSH2 0x54D SWAP1 PUSH2 0x2652 JUMP JUMPDEST PUSH1 0x40 MLOAD DUP1 SWAP2 SUB SWAP1 REVERT JUMPDEST PUSH1 0x0 SLOAD PUSH2 0x100 SWAP1 DIV PUSH1 0xFF AND ISZERO DUP1 ISZERO PUSH2 0x578 JUMPI PUSH1 0x0 DUP1 SLOAD PUSH2 0xFFFF NOT AND PUSH2 0x101 OR SWAP1 SSTORE JUMPDEST DUP4 MLOAD PUSH2 0x58B SWAP1 PUSH1 0xCD SWAP1 PUSH1 0x20 DUP8 ADD SWAP1 PUSH2 0x2215 JUMP JUMPDEST POP DUP3 MLOAD PUSH2 0x59F SWAP1 PUSH1 0xCE SWAP1 PUSH1 0x20 DUP7 ADD SWAP1 PUSH2 0x2215 JUMP JUMPDEST POP PUSH1 0xCF DUP1 SLOAD PUSH1 0xFF NOT AND PUSH1 0xFF DUP5 AND OR SWAP1 SSTORE DUP1 ISZERO PUSH2 0x5C1 JUMPI PUSH1 0x0 DUP1 SLOAD PUSH2 0xFF00 NOT AND SWAP1 SSTORE JUMPDEST POP POP POP POP JUMP JUMPDEST PUSH1 0x0 PUSH2 0x5D4 DUP5 DUP5 DUP5 PUSH2 0x108C JUMP JUMPDEST PUSH1 0x1 PUSH1 0x1 PUSH1 0xA0 SHL SUB DUP5 AND PUSH1 0x0 SWAP1 DUP2 MSTORE PUSH1 0x34 PUSH1 0x20 SWAP1 DUP2 MSTORE PUSH1 0x40 DUP1 DUP4 KECCAK256 CALLER DUP5 MSTORE SWAP1 SWAP2 MSTORE SWAP1 KECCAK256 SLOAD DUP3 DUP2 LT ISZERO PUSH2 0x659 JUMPI PUSH1 0x40 MLOAD PUSH3 0x461BCD PUSH1 0xE5 SHL DUP2 MSTORE PUSH1 0x20 PUSH1 0x4 DUP3 ADD MSTORE PUSH1 0x28 PUSH1 0x24 DUP3 ADD MSTORE PUSH32 0x45524332303A207472616E7366657220616D6F756E7420657863656564732061 PUSH1 0x44 DUP3 ADD MSTORE PUSH8 0x6C6C6F77616E6365 PUSH1 0xC0 SHL PUSH1 0x64 DUP3 ADD MSTORE PUSH1 0x84 ADD PUSH2 0x54D JUMP JUMPDEST PUSH2 0x666 DUP6 CALLER DUP6 DUP5 SUB PUSH2 0xF68 JUMP JUMPDEST POP PUSH1 0x1 SWAP5 SWAP4 POP POP POP POP JUMP JUMPDEST PUSH1 0x0 PUSH2 0x4FD PUSH1 0xCF SLOAD PUSH1 0xFF AND SWAP1 JUMP JUMPDEST PUSH1 0x0 PUSH2 0x4FD PUSH2 0x1260 JUMP JUMPDEST CALLER PUSH1 0x0 DUP2 DUP2 MSTORE PUSH1 0x34 PUSH1 0x20 SWAP1 DUP2 MSTORE PUSH1 0x40 DUP1 DUP4 KECCAK256 PUSH1 0x1 PUSH1 0x1 PUSH1 0xA0 SHL SUB DUP8 AND DUP5 MSTORE SWAP1 SWAP2 MSTORE DUP2 KECCAK256 SLOAD SWAP1 SWAP2 PUSH2 0x50F SWAP2 DUP6 SWAP1 PUSH2 0x6C0 SWAP1 DUP7 SWAP1 PUSH2 0x26A0 JUMP JUMPDEST PUSH2 0xF68 JUMP JUMPDEST PUSH1 0x0 NUMBER DUP3 LT PUSH2 0x716 JUMPI PUSH1 0x40 MLOAD PUSH3 0x461BCD PUSH1 0xE5 SHL DUP2 MSTORE PUSH1 0x20 PUSH1 0x4 DUP3 ADD MSTORE PUSH1 0x1F PUSH1 0x24 DUP3 ADD MSTORE PUSH32 0x4552433230566F7465733A20626C6F636B206E6F7420796574206D696E656400 PUSH1 0x44 DUP3 ADD MSTORE PUSH1 0x64 ADD PUSH2 0x54D JUMP JUMPDEST PUSH1 0x1 PUSH1 0x1 PUSH1 0xA0 SHL SUB DUP4 AND PUSH1 0x0 SWAP1 DUP2 MSTORE PUSH2 0x16A PUSH1 0x20 MSTORE PUSH1 0x40 SWAP1 KECCAK256 PUSH2 0x739 SWAP1 DUP4 PUSH2 0x12DD JUMP JUMPDEST SWAP4 SWAP3 POP POP POP JUMP JUMPDEST PUSH1 0x0 PUSH2 0x74B CALLER PUSH2 0xAD1 JUMP JUMPDEST PUSH2 0x767 JUMPI PUSH1 0x40 MLOAD PUSH3 0x461BCD PUSH1 0xE5 SHL DUP2 MSTORE PUSH1 0x4 ADD PUSH2 0x54D SWAP1 PUSH2 0x2602 JUMP JUMPDEST PUSH2 0x50F DUP4 DUP4 PUSH2 0x13B6 JUMP JUMPDEST PUSH1 0x0 PUSH2 0x77D PUSH2 0x102 SLOAD SWAP1 JUMP JUMPDEST EQ PUSH2 0x7FC JUMPI PUSH1 0x40 MLOAD PUSH3 0x461BCD PUSH1 0xE5 SHL DUP2 MSTORE PUSH1 0x20 PUSH1 0x4 DUP3 ADD MSTORE PUSH1 0x43 PUSH1 0x24 DUP3 ADD MSTORE PUSH32 0x416C726561647920696E697469616C697A65643A204549503731325F696E6974 PUSH1 0x44 DUP3 ADD MSTORE PUSH32 0x2C2045524332305065726D69745F696E69742C204552433230566F7465735F69 PUSH1 0x64 DUP3 ADD MSTORE PUSH3 0x1B9A5D PUSH1 0xEA SHL PUSH1 0x84 DUP3 ADD MSTORE PUSH1 0xA4 ADD PUSH2 0x54D JUMP JUMPDEST PUSH2 0x850 PUSH2 0x807 PUSH2 0x4F3 JUMP JUMPDEST PUSH1 0x40 DUP1 MLOAD DUP1 DUP3 ADD SWAP1 SWAP2 MSTORE PUSH1 0x1 DUP2 MSTORE PUSH1 0x31 PUSH1 0xF8 SHL PUSH1 0x20 SWAP2 DUP3 ADD MSTORE DUP2 MLOAD SWAP2 ADD KECCAK256 PUSH2 0x102 SSTORE PUSH32 0xC89EFDAA54C0F20C7ADF612882DF0950F5A951637E0307CDCB4C672F298B8BC6 PUSH2 0x103 SSTORE JUMP JUMPDEST PUSH2 0x883 PUSH2 0x85B PUSH2 0x4F3 JUMP JUMPDEST POP PUSH32 0x6E71EDAE12B1B97F4D1F60370FEF10105FA2FAAE0126114A169C64845D6126C9 PUSH2 0x137 SSTORE JUMP JUMPDEST PUSH2 0x88B PUSH2 0x13C0 JUMP JUMPDEST JUMP JUMPDEST PUSH2 0x897 CALLER DUP3 PUSH2 0x1446 JUMP JUMPDEST POP JUMP JUMPDEST PUSH1 0x1 PUSH1 0x1 PUSH1 0xA0 SHL SUB DUP2 AND PUSH1 0x0 SWAP1 DUP2 MSTORE PUSH2 0x16A PUSH1 0x20 MSTORE PUSH1 0x40 DUP2 KECCAK256 SLOAD PUSH2 0x8BD SWAP1 PUSH2 0x14C1 JUMP JUMPDEST SWAP3 SWAP2 POP POP JUMP JUMPDEST PUSH1 0x0 PUSH2 0x739 PUSH2 0x8D2 DUP5 DUP5 PUSH2 0x6C5 JUMP JUMPDEST PUSH2 0x152A JUMP JUMPDEST PUSH1 0x1 PUSH1 0x1 PUSH1 0xA0 SHL SUB DUP2 AND PUSH1 0x0 SWAP1 DUP2 MSTORE PUSH2 0x136 PUSH1 0x20 MSTORE PUSH1 0x40 DUP2 KECCAK256 SLOAD PUSH2 0x8BD JUMP JUMPDEST PUSH1 0x0 NUMBER DUP3 LT PUSH2 0x947 JUMPI PUSH1 0x40 MLOAD PUSH3 0x461BCD PUSH1 0xE5 SHL DUP2 MSTORE PUSH1 0x20 PUSH1 0x4 DUP3 ADD MSTORE PUSH1 0x1F PUSH1 0x24 DUP3 ADD MSTORE PUSH32 0x4552433230566F7465733A20626C6F636B206E6F7420796574206D696E656400 PUSH1 0x44 DUP3 ADD MSTORE PUSH1 0x64 ADD PUSH2 0x54D JUMP JUMPDEST PUSH2 0x8BD PUSH2 0x16B DUP4 PUSH2 0x12DD JUMP JUMPDEST PUSH1 0x60 PUSH2 0x4FD PUSH2 0x1592 JUMP JUMPDEST PUSH2 0x966 CALLER PUSH2 0xAD1 JUMP JUMPDEST PUSH2 0x982 JUMPI PUSH1 0x40 MLOAD PUSH3 0x461BCD PUSH1 0xE5 SHL DUP2 MSTORE PUSH1 0x4 ADD PUSH2 0x54D SWAP1 PUSH2 0x2602 JUMP JUMPDEST PUSH2 0x897 DUP2 PUSH2 0x15A1 JUMP JUMPDEST PUSH2 0x88B CALLER PUSH2 0x15E3 JUMP JUMPDEST PUSH1 0x1 PUSH1 0x1 PUSH1 0xA0 SHL SUB DUP2 AND PUSH1 0x0 SWAP1 DUP2 MSTORE PUSH2 0x16A PUSH1 0x20 MSTORE PUSH1 0x40 DUP2 KECCAK256 SLOAD DUP1 ISZERO PUSH2 0xA18 JUMPI PUSH1 0x1 PUSH1 0x1 PUSH1 0xA0 SHL SUB DUP4 AND PUSH1 0x0 SWAP1 DUP2 MSTORE PUSH2 0x16A PUSH1 0x20 MSTORE PUSH1 0x40 SWAP1 KECCAK256 PUSH2 0x9D8 PUSH1 0x1 DUP4 PUSH2 0x26CC JUMP JUMPDEST DUP2 SLOAD DUP2 LT PUSH2 0x9F6 JUMPI PUSH4 0x4E487B71 PUSH1 0xE0 SHL PUSH1 0x0 MSTORE PUSH1 0x32 PUSH1 0x4 MSTORE PUSH1 0x24 PUSH1 0x0 REVERT JUMPDEST PUSH1 0x0 SWAP2 DUP3 MSTORE PUSH1 0x20 SWAP1 SWAP2 KECCAK256 ADD SLOAD PUSH5 0x100000000 SWAP1 DIV PUSH1 0x1 PUSH1 0x1 PUSH1 0xE0 SHL SUB AND PUSH2 0xA1B JUMP JUMPDEST PUSH1 0x0 JUMPDEST PUSH1 0x1 PUSH1 0x1 PUSH1 0xE0 SHL SUB AND SWAP4 SWAP3 POP POP POP JUMP JUMPDEST CALLER PUSH1 0x0 SWAP1 DUP2 MSTORE PUSH1 0x34 PUSH1 0x20 SWAP1 DUP2 MSTORE PUSH1 0x40 DUP1 DUP4 KECCAK256 PUSH1 0x1 PUSH1 0x1 PUSH1 0xA0 SHL SUB DUP7 AND DUP5 MSTORE SWAP1 SWAP2 MSTORE DUP2 KECCAK256 SLOAD DUP3 DUP2 LT ISZERO PUSH2 0xAAD JUMPI PUSH1 0x40 MLOAD PUSH3 0x461BCD PUSH1 0xE5 SHL DUP2 MSTORE PUSH1 0x20 PUSH1 0x4 DUP3 ADD MSTORE PUSH1 0x25 PUSH1 0x24 DUP3 ADD MSTORE PUSH32 0x45524332303A2064656372656173656420616C6C6F77616E63652062656C6F77 PUSH1 0x44 DUP3 ADD MSTORE PUSH5 0x207A65726F PUSH1 0xD8 SHL PUSH1 0x64 DUP3 ADD MSTORE PUSH1 0x84 ADD PUSH2 0x54D JUMP JUMPDEST PUSH2 0xABA CALLER DUP6 DUP6 DUP5 SUB PUSH2 0xF68 JUMP JUMPDEST POP PUSH1 0x1 SWAP4 SWAP3 POP POP POP JUMP JUMPDEST PUSH1 0x0 PUSH2 0x50F CALLER DUP5 DUP5 PUSH2 0x108C JUMP JUMPDEST PUSH1 0x0 PUSH2 0x8BD PUSH1 0x68 DUP4 PUSH2 0x1625 JUMP JUMPDEST PUSH1 0x0 PUSH2 0x8BD PUSH2 0x8D2 DUP4 PUSH2 0x994 JUMP JUMPDEST DUP4 TIMESTAMP GT ISZERO PUSH2 0xB3C JUMPI PUSH1 0x40 MLOAD PUSH3 0x461BCD PUSH1 0xE5 SHL DUP2 MSTORE PUSH1 0x20 PUSH1 0x4 DUP3 ADD MSTORE PUSH1 0x1D PUSH1 0x24 DUP3 ADD MSTORE PUSH32 0x4552433230566F7465733A207369676E61747572652065787069726564000000 PUSH1 0x44 DUP3 ADD MSTORE PUSH1 0x64 ADD PUSH2 0x54D JUMP JUMPDEST PUSH1 0x40 DUP1 MLOAD PUSH32 0xE48329057BFD03D55E49B547132E39CFFD9C1820AD7B9D4C5307691425D15ADF PUSH1 0x20 DUP3 ADD MSTORE PUSH1 0x1 PUSH1 0x1 PUSH1 0xA0 SHL SUB DUP9 AND SWAP2 DUP2 ADD SWAP2 SWAP1 SWAP2 MSTORE PUSH1 0x60 DUP2 ADD DUP7 SWAP1 MSTORE PUSH1 0x80 DUP2 ADD DUP6 SWAP1 MSTORE PUSH1 0x0 SWAP1 PUSH2 0xBB6 SWAP1 PUSH2 0xBAE SWAP1 PUSH1 0xA0 ADD PUSH1 0x40 MLOAD PUSH1 0x20 DUP2 DUP4 SUB SUB DUP2 MSTORE SWAP1 PUSH1 0x40 MSTORE DUP1 MLOAD SWAP1 PUSH1 0x20 ADD KECCAK256 PUSH2 0x16A8 JUMP JUMPDEST DUP6 DUP6 DUP6 PUSH2 0x16F6 JUMP JUMPDEST SWAP1 POP PUSH2 0xBC1 DUP2 PUSH2 0x189F JUMP JUMPDEST DUP7 EQ PUSH2 0xC0F JUMPI PUSH1 0x40 MLOAD PUSH3 0x461BCD PUSH1 0xE5 SHL DUP2 MSTORE PUSH1 0x20 PUSH1 0x4 DUP3 ADD MSTORE PUSH1 0x19 PUSH1 0x24 DUP3 ADD MSTORE PUSH32 0x4552433230566F7465733A20696E76616C6964206E6F6E636500000000000000 PUSH1 0x44 DUP3 ADD MSTORE PUSH1 0x64 ADD PUSH2 0x54D JUMP JUMPDEST PUSH2 0xC19 DUP2 DUP9 PUSH2 0x1446 JUMP JUMPDEST POP POP POP POP POP POP POP JUMP JUMPDEST PUSH1 0x0 SLOAD PUSH2 0x100 SWAP1 DIV PUSH1 0xFF AND DUP1 PUSH2 0xC3B JUMPI POP PUSH1 0x0 SLOAD PUSH1 0xFF AND ISZERO JUMPDEST PUSH2 0xC57 JUMPI PUSH1 0x40 MLOAD PUSH3 0x461BCD PUSH1 0xE5 SHL DUP2 MSTORE PUSH1 0x4 ADD PUSH2 0x54D SWAP1 PUSH2 0x2652 JUMP JUMPDEST PUSH1 0x0 SLOAD PUSH2 0x100 SWAP1 DIV PUSH1 0xFF AND ISZERO DUP1 ISZERO PUSH2 0xC79 JUMPI PUSH1 0x0 DUP1 SLOAD PUSH2 0xFFFF NOT AND PUSH2 0x101 OR SWAP1 SSTORE JUMPDEST PUSH2 0xC82 DUP3 PUSH2 0x18C8 JUMP JUMPDEST PUSH2 0xCD6 PUSH1 0x40 MLOAD DUP1 PUSH1 0x40 ADD PUSH1 0x40 MSTORE DUP1 PUSH1 0x15 DUP2 MSTORE PUSH1 0x20 ADD PUSH21 0x2AB73637B1B5902234B9B1B7BAB73A102A37B5B2B7 PUSH1 0x59 SHL DUP2 MSTORE POP PUSH1 0x40 MLOAD DUP1 PUSH1 0x40 ADD PUSH1 0x40 MSTORE DUP1 PUSH1 0x3 DUP2 MSTORE PUSH1 0x20 ADD PUSH3 0x155115 PUSH1 0xEA SHL DUP2 MSTORE POP PUSH1 0x12 PUSH2 0x518 JUMP JUMPDEST PUSH2 0xCE6 PUSH2 0xCE1 PUSH2 0x4F3 JUMP JUMPDEST PUSH2 0x1928 JUMP JUMPDEST DUP1 ISZERO PUSH2 0xCF8 JUMPI PUSH1 0x0 DUP1 SLOAD PUSH2 0xFF00 NOT AND SWAP1 SSTORE JUMPDEST POP POP JUMP JUMPDEST DUP4 TIMESTAMP GT ISZERO PUSH2 0xD4C JUMPI PUSH1 0x40 MLOAD PUSH3 0x461BCD PUSH1 0xE5 SHL DUP2 MSTORE PUSH1 0x20 PUSH1 0x4 DUP3 ADD MSTORE PUSH1 0x1D PUSH1 0x24 DUP3 ADD MSTORE PUSH32 0x45524332305065726D69743A206578706972656420646561646C696E65000000 PUSH1 0x44 DUP3 ADD MSTORE PUSH1 0x64 ADD PUSH2 0x54D JUMP JUMPDEST PUSH1 0x0 PUSH2 0x137 SLOAD DUP9 DUP9 DUP9 PUSH2 0xD5E DUP13 PUSH2 0x189F JUMP JUMPDEST PUSH1 0x40 DUP1 MLOAD PUSH1 0x20 DUP2 ADD SWAP7 SWAP1 SWAP7 MSTORE PUSH1 0x1 PUSH1 0x1 PUSH1 0xA0 SHL SUB SWAP5 DUP6 AND SWAP1 DUP7 ADD MSTORE SWAP3 SWAP1 SWAP2 AND PUSH1 0x60 DUP5 ADD MSTORE PUSH1 0x80 DUP4 ADD MSTORE PUSH1 0xA0 DUP3 ADD MSTORE PUSH1 0xC0 DUP2 ADD DUP7 SWAP1 MSTORE PUSH1 0xE0 ADD PUSH1 0x40 MLOAD PUSH1 0x20 DUP2 DUP4 SUB SUB DUP2 MSTORE SWAP1 PUSH1 0x40 MSTORE DUP1 MLOAD SWAP1 PUSH1 0x20 ADD KECCAK256 SWAP1 POP PUSH1 0x0 PUSH2 0xDB9 DUP3 PUSH2 0x16A8 JUMP JUMPDEST SWAP1 POP PUSH1 0x0 PUSH2 0xDC9 DUP3 DUP8 DUP8 DUP8 PUSH2 0x16F6 JUMP JUMPDEST SWAP1 POP DUP10 PUSH1 0x1 PUSH1 0x1 PUSH1 0xA0 SHL SUB AND DUP2 PUSH1 0x1 PUSH1 0x1 PUSH1 0xA0 SHL SUB AND EQ PUSH2 0xE2C JUMPI PUSH1 0x40 MLOAD PUSH3 0x461BCD PUSH1 0xE5 SHL DUP2 MSTORE PUSH1 0x20 PUSH1 0x4 DUP3 ADD MSTORE PUSH1 0x1E PUSH1 0x24 DUP3 ADD MSTORE PUSH32 0x45524332305065726D69743A20696E76616C6964207369676E61747572650000 PUSH1 0x44 DUP3 ADD MSTORE PUSH1 0x64 ADD PUSH2 0x54D JUMP JUMPDEST PUSH2 0xE37 DUP11 DUP11 DUP11 PUSH2 0xF68 JUMP JUMPDEST POP POP POP POP POP POP POP POP POP POP JUMP JUMPDEST PUSH1 0x40 DUP1 MLOAD DUP1 DUP3 ADD SWAP1 SWAP2 MSTORE PUSH1 0x0 DUP1 DUP3 MSTORE PUSH1 0x20 DUP3 ADD MSTORE PUSH1 0x1 PUSH1 0x1 PUSH1 0xA0 SHL SUB DUP4 AND PUSH1 0x0 SWAP1 DUP2 MSTORE PUSH2 0x16A PUSH1 0x20 MSTORE PUSH1 0x40 SWAP1 KECCAK256 DUP1 SLOAD PUSH4 0xFFFFFFFF DUP5 AND SWAP1 DUP2 LT PUSH2 0xE96 JUMPI PUSH4 0x4E487B71 PUSH1 0xE0 SHL PUSH1 0x0 MSTORE PUSH1 0x32 PUSH1 0x4 MSTORE PUSH1 0x24 PUSH1 0x0 REVERT JUMPDEST PUSH1 0x0 SWAP2 DUP3 MSTORE PUSH1 0x20 SWAP2 DUP3 SWAP1 KECCAK256 PUSH1 0x40 DUP1 MLOAD DUP1 DUP3 ADD SWAP1 SWAP2 MSTORE SWAP2 ADD SLOAD PUSH4 0xFFFFFFFF DUP2 AND DUP3 MSTORE PUSH5 0x100000000 SWAP1 DIV PUSH1 0x1 PUSH1 0x1 PUSH1 0xE0 SHL SUB AND SWAP2 DUP2 ADD SWAP2 SWAP1 SWAP2 MSTORE SWAP4 SWAP3 POP POP POP JUMP JUMPDEST PUSH1 0x60 PUSH1 0xCD DUP1 SLOAD PUSH2 0xEE5 SWAP1 PUSH2 0x26E3 JUMP JUMPDEST DUP1 PUSH1 0x1F ADD PUSH1 0x20 DUP1 SWAP2 DIV MUL PUSH1 0x20 ADD PUSH1 0x40 MLOAD SWAP1 DUP2 ADD PUSH1 0x40 MSTORE DUP1 SWAP3 SWAP2 SWAP1 DUP2 DUP2 MSTORE PUSH1 0x20 ADD DUP3 DUP1 SLOAD PUSH2 0xF11 SWAP1 PUSH2 0x26E3 JUMP JUMPDEST DUP1 ISZERO PUSH2 0xF5E JUMPI DUP1 PUSH1 0x1F LT PUSH2 0xF33 JUMPI PUSH2 0x100 DUP1 DUP4 SLOAD DIV MUL DUP4 MSTORE SWAP2 PUSH1 0x20 ADD SWAP2 PUSH2 0xF5E JUMP JUMPDEST DUP3 ADD SWAP2 SWAP1 PUSH1 0x0 MSTORE PUSH1 0x20 PUSH1 0x0 KECCAK256 SWAP1 JUMPDEST DUP2 SLOAD DUP2 MSTORE SWAP1 PUSH1 0x1 ADD SWAP1 PUSH1 0x20 ADD DUP1 DUP4 GT PUSH2 0xF41 JUMPI DUP3 SWAP1 SUB PUSH1 0x1F AND DUP3 ADD SWAP2 JUMPDEST POP POP POP POP POP SWAP1 POP SWAP1 JUMP JUMPDEST PUSH1 0x1 PUSH1 0x1 PUSH1 0xA0 SHL SUB DUP4 AND PUSH2 0xFCA JUMPI PUSH1 0x40 MLOAD PUSH3 0x461BCD PUSH1 0xE5 SHL DUP2 MSTORE PUSH1 0x20 PUSH1 0x4 DUP3 ADD MSTORE PUSH1 0x24 DUP1 DUP3 ADD MSTORE PUSH32 0x45524332303A20617070726F76652066726F6D20746865207A65726F20616464 PUSH1 0x44 DUP3 ADD MSTORE PUSH4 0x72657373 PUSH1 0xE0 SHL PUSH1 0x64 DUP3 ADD MSTORE PUSH1 0x84 ADD PUSH2 0x54D JUMP JUMPDEST PUSH1 0x1 PUSH1 0x1 PUSH1 0xA0 SHL SUB DUP3 AND PUSH2 0x102B JUMPI PUSH1 0x40 MLOAD PUSH3 0x461BCD PUSH1 0xE5 SHL DUP2 MSTORE PUSH1 0x20 PUSH1 0x4 DUP3 ADD MSTORE PUSH1 0x22 PUSH1 0x24 DUP3 ADD MSTORE PUSH32 0x45524332303A20617070726F766520746F20746865207A65726F206164647265 PUSH1 0x44 DUP3 ADD MSTORE PUSH2 0x7373 PUSH1 0xF0 SHL PUSH1 0x64 DUP3 ADD MSTORE PUSH1 0x84 ADD PUSH2 0x54D JUMP JUMPDEST PUSH1 0x1 PUSH1 0x1 PUSH1 0xA0 SHL SUB DUP4 DUP2 AND PUSH1 0x0 DUP2 DUP2 MSTORE PUSH1 0x34 PUSH1 0x20 SWAP1 DUP2 MSTORE PUSH1 0x40 DUP1 DUP4 KECCAK256 SWAP5 DUP8 AND DUP1 DUP5 MSTORE SWAP5 DUP3 MSTORE SWAP2 DUP3 SWAP1 KECCAK256 DUP6 SWAP1 SSTORE SWAP1 MLOAD DUP5 DUP2 MSTORE PUSH32 0x8C5BE1E5EBEC7D5BD14F71427D1E84F3DD0314C0F7B2291E5B200AC8C7C3B925 SWAP2 ADD PUSH1 0x40 MLOAD DUP1 SWAP2 SUB SWAP1 LOG3 POP POP POP JUMP JUMPDEST PUSH1 0x1 PUSH1 0x1 PUSH1 0xA0 SHL SUB DUP4 AND PUSH2 0x10F0 JUMPI PUSH1 0x40 MLOAD PUSH3 0x461BCD PUSH1 0xE5 SHL DUP2 MSTORE PUSH1 0x20 PUSH1 0x4 DUP3 ADD MSTORE PUSH1 0x25 PUSH1 0x24 DUP3 ADD MSTORE PUSH32 0x45524332303A207472616E736665722066726F6D20746865207A65726F206164 PUSH1 0x44 DUP3 ADD MSTORE PUSH5 0x6472657373 PUSH1 0xD8 SHL PUSH1 0x64 DUP3 ADD MSTORE PUSH1 0x84 ADD PUSH2 0x54D JUMP JUMPDEST PUSH1 0x1 PUSH1 0x1 PUSH1 0xA0 SHL SUB DUP3 AND PUSH2 0x1152 JUMPI PUSH1 0x40 MLOAD PUSH3 0x461BCD PUSH1 0xE5 SHL DUP2 MSTORE PUSH1 0x20 PUSH1 0x4 DUP3 ADD MSTORE PUSH1 0x23 PUSH1 0x24 DUP3 ADD MSTORE PUSH32 0x45524332303A207472616E7366657220746F20746865207A65726F2061646472 PUSH1 0x44 DUP3 ADD MSTORE PUSH3 0x657373 PUSH1 0xE8 SHL PUSH1 0x64 DUP3 ADD MSTORE PUSH1 0x84 ADD PUSH2 0x54D JUMP JUMPDEST PUSH1 0x1 PUSH1 0x1 PUSH1 0xA0 SHL SUB DUP4 AND PUSH1 0x0 SWAP1 DUP2 MSTORE PUSH1 0x33 PUSH1 0x20 MSTORE PUSH1 0x40 SWAP1 KECCAK256 SLOAD DUP2 DUP2 LT ISZERO PUSH2 0x11CA JUMPI PUSH1 0x40 MLOAD PUSH3 0x461BCD PUSH1 0xE5 SHL DUP2 MSTORE PUSH1 0x20 PUSH1 0x4 DUP3 ADD MSTORE PUSH1 0x26 PUSH1 0x24 DUP3 ADD MSTORE PUSH32 0x45524332303A207472616E7366657220616D6F756E7420657863656564732062 PUSH1 0x44 DUP3 ADD MSTORE PUSH6 0x616C616E6365 PUSH1 0xD0 SHL PUSH1 0x64 DUP3 ADD MSTORE PUSH1 0x84 ADD PUSH2 0x54D JUMP JUMPDEST PUSH1 0x1 PUSH1 0x1 PUSH1 0xA0 SHL SUB DUP1 DUP6 AND PUSH1 0x0 SWAP1 DUP2 MSTORE PUSH1 0x33 PUSH1 0x20 MSTORE PUSH1 0x40 DUP1 DUP3 KECCAK256 DUP6 DUP6 SUB SWAP1 SSTORE SWAP2 DUP6 AND DUP2 MSTORE SWAP1 DUP2 KECCAK256 DUP1 SLOAD DUP5 SWAP3 SWAP1 PUSH2 0x1201 SWAP1 DUP5 SWAP1 PUSH2 0x26A0 JUMP JUMPDEST SWAP3 POP POP DUP2 SWAP1 SSTORE POP DUP3 PUSH1 0x1 PUSH1 0x1 PUSH1 0xA0 SHL SUB AND DUP5 PUSH1 0x1 PUSH1 0x1 PUSH1 0xA0 SHL SUB AND PUSH32 0xDDF252AD1BE2C89B69C2B068FC378DAA952BA7F163C4A11628F55A4DF523B3EF DUP5 PUSH1 0x40 MLOAD PUSH2 0x124D SWAP2 DUP2 MSTORE PUSH1 0x20 ADD SWAP1 JUMP JUMPDEST PUSH1 0x40 MLOAD DUP1 SWAP2 SUB SWAP1 LOG3 PUSH2 0x5C1 DUP5 DUP5 DUP5 PUSH2 0x19B8 JUMP JUMPDEST PUSH1 0x0 PUSH2 0x4FD PUSH32 0x8B73C3C69BB8FE3D512ECC4CF759CC79239F7B179B0FFACAA9A75D522B39400F PUSH2 0x1290 PUSH2 0x102 SLOAD SWAP1 JUMP JUMPDEST PUSH2 0x103 SLOAD PUSH1 0x40 DUP1 MLOAD PUSH1 0x20 DUP2 ADD DUP6 SWAP1 MSTORE SWAP1 DUP2 ADD DUP4 SWAP1 MSTORE PUSH1 0x60 DUP2 ADD DUP3 SWAP1 MSTORE CHAINID PUSH1 0x80 DUP3 ADD MSTORE ADDRESS PUSH1 0xA0 DUP3 ADD MSTORE PUSH1 0x0 SWAP1 PUSH1 0xC0 ADD PUSH1 0x40 MLOAD PUSH1 0x20 DUP2 DUP4 SUB SUB DUP2 MSTORE SWAP1 PUSH1 0x40 MSTORE DUP1 MLOAD SWAP1 PUSH1 0x20 ADD KECCAK256 SWAP1 POP SWAP4 SWAP3 POP POP POP JUMP JUMPDEST DUP2 SLOAD PUSH1 0x0 SWAP1 DUP2 JUMPDEST DUP2 DUP2 LT ISZERO PUSH2 0x134F JUMPI PUSH1 0x0 PUSH2 0x12F8 DUP3 DUP5 PUSH2 0x19C3 JUMP JUMPDEST SWAP1 POP DUP5 DUP7 DUP3 DUP2 SLOAD DUP2 LT PUSH2 0x131B JUMPI PUSH4 0x4E487B71 PUSH1 0xE0 SHL PUSH1 0x0 MSTORE PUSH1 0x32 PUSH1 0x4 MSTORE PUSH1 0x24 PUSH1 0x0 REVERT JUMPDEST PUSH1 0x0 SWAP2 DUP3 MSTORE PUSH1 0x20 SWAP1 SWAP2 KECCAK256 ADD SLOAD PUSH4 0xFFFFFFFF AND GT ISZERO PUSH2 0x133B JUMPI DUP1 SWAP3 POP PUSH2 0x1349 JUMP JUMPDEST PUSH2 0x1346 DUP2 PUSH1 0x1 PUSH2 0x26A0 JUMP JUMPDEST SWAP2 POP JUMPDEST POP PUSH2 0x12E4 JUMP JUMPDEST DUP2 ISZERO PUSH2 0x13A1 JUMPI DUP5 PUSH2 0x1361 PUSH1 0x1 DUP5 PUSH2 0x26CC JUMP JUMPDEST DUP2 SLOAD DUP2 LT PUSH2 0x137F JUMPI PUSH4 0x4E487B71 PUSH1 0xE0 SHL PUSH1 0x0 MSTORE PUSH1 0x32 PUSH1 0x4 MSTORE PUSH1 0x24 PUSH1 0x0 REVERT JUMPDEST PUSH1 0x0 SWAP2 DUP3 MSTORE PUSH1 0x20 SWAP1 SWAP2 KECCAK256 ADD SLOAD PUSH5 0x100000000 SWAP1 DIV PUSH1 0x1 PUSH1 0x1 PUSH1 0xE0 SHL SUB AND PUSH2 0x13A4 JUMP JUMPDEST PUSH1 0x0 JUMPDEST PUSH1 0x1 PUSH1 0x1 PUSH1 0xE0 SHL SUB AND SWAP6 SWAP5 POP POP POP POP POP JUMP JUMPDEST PUSH2 0xCF8 DUP3 DUP3 PUSH2 0x1A1A JUMP JUMPDEST PUSH2 0x16B SLOAD ISZERO DUP1 PUSH2 0x141D JUMPI POP PUSH1 0x35 SLOAD PUSH2 0x16B DUP1 SLOAD PUSH2 0x13DF SWAP1 PUSH1 0x1 SWAP1 PUSH2 0x26CC JUMP JUMPDEST DUP2 SLOAD DUP2 LT PUSH2 0x13FD JUMPI PUSH4 0x4E487B71 PUSH1 0xE0 SHL PUSH1 0x0 MSTORE PUSH1 0x32 PUSH1 0x4 MSTORE PUSH1 0x24 PUSH1 0x0 REVERT JUMPDEST PUSH1 0x0 SWAP2 DUP3 MSTORE PUSH1 0x20 SWAP1 SWAP2 KECCAK256 ADD SLOAD PUSH5 0x100000000 SWAP1 DIV PUSH1 0x1 PUSH1 0x1 PUSH1 0xE0 SHL SUB AND EQ ISZERO JUMPDEST ISZERO PUSH2 0x88B JUMPI PUSH2 0x142F PUSH2 0x16B PUSH1 0x0 PUSH2 0x2295 JUMP JUMPDEST PUSH2 0xCF8 PUSH2 0x16B PUSH2 0x1AA5 PUSH2 0x1441 PUSH1 0x35 SLOAD SWAP1 JUMP JUMPDEST PUSH2 0x1AB1 JUMP JUMPDEST PUSH1 0x1 PUSH1 0x1 PUSH1 0xA0 SHL SUB DUP3 DUP2 AND PUSH1 0x0 DUP2 DUP2 MSTORE PUSH2 0x169 PUSH1 0x20 DUP2 DUP2 MSTORE PUSH1 0x40 DUP1 DUP5 KECCAK256 DUP1 SLOAD PUSH1 0x33 DUP5 MSTORE DUP3 DUP7 KECCAK256 SLOAD SWAP5 SWAP1 SWAP4 MSTORE DUP8 DUP8 AND PUSH1 0x1 PUSH1 0x1 PUSH1 0xA0 SHL SUB NOT DUP5 AND DUP2 OR SWAP1 SWAP2 SSTORE SWAP1 MLOAD SWAP2 SWAP1 SWAP6 AND SWAP5 SWAP2 SWAP4 SWAP2 SWAP3 DUP6 SWAP3 SWAP2 PUSH32 0x3134E8A2E6D97E929A7E54011EA5485D7D196DD5F0BA4D4EF95803E8E3FC257F SWAP2 SWAP1 LOG4 PUSH2 0x5C1 DUP3 DUP5 DUP4 PUSH2 0x1C54 JUMP JUMPDEST PUSH1 0x0 PUSH4 0xFFFFFFFF DUP3 GT ISZERO PUSH2 0x1526 JUMPI PUSH1 0x40 MLOAD PUSH3 0x461BCD PUSH1 0xE5 SHL DUP2 MSTORE PUSH1 0x20 PUSH1 0x4 DUP3 ADD MSTORE PUSH1 0x26 PUSH1 0x24 DUP3 ADD MSTORE PUSH32 0x53616665436173743A2076616C756520646F65736E27742066697420696E2033 PUSH1 0x44 DUP3 ADD MSTORE PUSH6 0x322062697473 PUSH1 0xD0 SHL PUSH1 0x64 DUP3 ADD MSTORE PUSH1 0x84 ADD PUSH2 0x54D JUMP JUMPDEST POP SWAP1 JUMP JUMPDEST PUSH1 0x0 PUSH1 0x1 PUSH1 0x1 PUSH1 0x60 SHL SUB DUP3 GT ISZERO PUSH2 0x1526 JUMPI PUSH1 0x40 MLOAD PUSH3 0x461BCD PUSH1 0xE5 SHL DUP2 MSTORE PUSH1 0x20 PUSH1 0x4 DUP3 ADD MSTORE PUSH1 0x26 PUSH1 0x24 DUP3 ADD MSTORE PUSH32 0x53616665436173743A2076616C756520646F65736E27742066697420696E2039 PUSH1 0x44 DUP3 ADD MSTORE PUSH6 0x362062697473 PUSH1 0xD0 SHL PUSH1 0x64 DUP3 ADD MSTORE PUSH1 0x84 ADD PUSH2 0x54D JUMP JUMPDEST PUSH1 0x60 PUSH1 0xCE DUP1 SLOAD PUSH2 0xEE5 SWAP1 PUSH2 0x26E3 JUMP JUMPDEST PUSH2 0x15AC PUSH1 0x68 DUP3 PUSH2 0x1D93 JUMP JUMPDEST PUSH1 0x40 MLOAD PUSH1 0x1 PUSH1 0x1 PUSH1 0xA0 SHL SUB DUP3 AND SWAP1 PUSH32 0x6AE172837EA30B801FBFCDD4108AA1D5BF8FF775444FD70256B44E6BF3DFC3F6 SWAP1 PUSH1 0x0 SWAP1 LOG2 POP JUMP JUMPDEST PUSH2 0x15EE PUSH1 0x68 DUP3 PUSH2 0x1E0F JUMP JUMPDEST PUSH1 0x40 MLOAD PUSH1 0x1 PUSH1 0x1 PUSH1 0xA0 SHL SUB DUP3 AND SWAP1 PUSH32 0xE94479A9F7E1952CC78F2D6BAAB678ADC1B772D936C6583DEF489E524CB66692 SWAP1 PUSH1 0x0 SWAP1 LOG2 POP JUMP JUMPDEST PUSH1 0x0 PUSH1 0x1 PUSH1 0x1 PUSH1 0xA0 SHL SUB DUP3 AND PUSH2 0x1688 JUMPI PUSH1 0x40 MLOAD PUSH3 0x461BCD PUSH1 0xE5 SHL DUP2 MSTORE PUSH1 0x20 PUSH1 0x4 DUP3 ADD MSTORE PUSH1 0x22 PUSH1 0x24 DUP3 ADD MSTORE PUSH32 0x526F6C65733A206163636F756E7420697320746865207A65726F206164647265 PUSH1 0x44 DUP3 ADD MSTORE PUSH2 0x7373 PUSH1 0xF0 SHL PUSH1 0x64 DUP3 ADD MSTORE PUSH1 0x84 ADD PUSH2 0x54D JUMP JUMPDEST POP PUSH1 0x1 PUSH1 0x1 PUSH1 0xA0 SHL SUB AND PUSH1 0x0 SWAP1 DUP2 MSTORE PUSH1 0x20 SWAP2 SWAP1 SWAP2 MSTORE PUSH1 0x40 SWAP1 KECCAK256 SLOAD PUSH1 0xFF AND SWAP1 JUMP JUMPDEST PUSH1 0x0 PUSH2 0x8BD PUSH2 0x16B5 PUSH2 0x1260 JUMP JUMPDEST DUP4 PUSH1 0x40 MLOAD PUSH2 0x1901 PUSH1 0xF0 SHL PUSH1 0x20 DUP3 ADD MSTORE PUSH1 0x22 DUP2 ADD DUP4 SWAP1 MSTORE PUSH1 0x42 DUP2 ADD DUP3 SWAP1 MSTORE PUSH1 0x0 SWAP1 PUSH1 0x62 ADD PUSH1 0x40 MLOAD PUSH1 0x20 DUP2 DUP4 SUB SUB DUP2 MSTORE SWAP1 PUSH1 0x40 MSTORE DUP1 MLOAD SWAP1 PUSH1 0x20 ADD KECCAK256 SWAP1 POP SWAP3 SWAP2 POP POP JUMP JUMPDEST PUSH1 0x0 PUSH32 0x7FFFFFFFFFFFFFFFFFFFFFFFFFFFFFFF5D576E7357A4501DDFE92F46681B20A0 DUP3 GT ISZERO PUSH2 0x1773 JUMPI PUSH1 0x40 MLOAD PUSH3 0x461BCD PUSH1 0xE5 SHL DUP2 MSTORE PUSH1 0x20 PUSH1 0x4 DUP3 ADD MSTORE PUSH1 0x22 PUSH1 0x24 DUP3 ADD MSTORE PUSH32 0x45434453413A20696E76616C6964207369676E6174757265202773272076616C PUSH1 0x44 DUP3 ADD MSTORE PUSH2 0x7565 PUSH1 0xF0 SHL PUSH1 0x64 DUP3 ADD MSTORE PUSH1 0x84 ADD PUSH2 0x54D JUMP JUMPDEST DUP4 PUSH1 0xFF AND PUSH1 0x1B EQ DUP1 PUSH2 0x1788 JUMPI POP DUP4 PUSH1 0xFF AND PUSH1 0x1C EQ JUMPDEST PUSH2 0x17DF JUMPI PUSH1 0x40 MLOAD PUSH3 0x461BCD PUSH1 0xE5 SHL DUP2 MSTORE PUSH1 0x20 PUSH1 0x4 DUP3 ADD MSTORE PUSH1 0x22 PUSH1 0x24 DUP3 ADD MSTORE PUSH32 0x45434453413A20696E76616C6964207369676E6174757265202776272076616C PUSH1 0x44 DUP3 ADD MSTORE PUSH2 0x7565 PUSH1 0xF0 SHL PUSH1 0x64 DUP3 ADD MSTORE PUSH1 0x84 ADD PUSH2 0x54D JUMP JUMPDEST PUSH1 0x40 DUP1 MLOAD PUSH1 0x0 DUP1 DUP3 MSTORE PUSH1 0x20 DUP3 ADD DUP1 DUP5 MSTORE DUP9 SWAP1 MSTORE PUSH1 0xFF DUP8 AND SWAP3 DUP3 ADD SWAP3 SWAP1 SWAP3 MSTORE PUSH1 0x60 DUP2 ADD DUP6 SWAP1 MSTORE PUSH1 0x80 DUP2 ADD DUP5 SWAP1 MSTORE PUSH1 0x1 SWAP1 PUSH1 0xA0 ADD PUSH1 0x20 PUSH1 0x40 MLOAD PUSH1 0x20 DUP2 SUB SWAP1 DUP1 DUP5 SUB SWAP1 DUP6 GAS STATICCALL ISZERO DUP1 ISZERO PUSH2 0x1833 JUMPI RETURNDATASIZE PUSH1 0x0 DUP1 RETURNDATACOPY RETURNDATASIZE PUSH1 0x0 REVERT JUMPDEST POP POP PUSH1 0x40 MLOAD PUSH1 0x1F NOT ADD MLOAD SWAP2 POP POP PUSH1 0x1 PUSH1 0x1 PUSH1 0xA0 SHL SUB DUP2 AND PUSH2 0x1896 JUMPI PUSH1 0x40 MLOAD PUSH3 0x461BCD PUSH1 0xE5 SHL DUP2 MSTORE PUSH1 0x20 PUSH1 0x4 DUP3 ADD MSTORE PUSH1 0x18 PUSH1 0x24 DUP3 ADD MSTORE PUSH32 0x45434453413A20696E76616C6964207369676E61747572650000000000000000 PUSH1 0x44 DUP3 ADD MSTORE PUSH1 0x64 ADD PUSH2 0x54D JUMP JUMPDEST SWAP6 SWAP5 POP POP POP POP POP JUMP JUMPDEST PUSH1 0x1 PUSH1 0x1 PUSH1 0xA0 SHL SUB DUP2 AND PUSH1 0x0 SWAP1 DUP2 MSTORE PUSH2 0x136 PUSH1 0x20 MSTORE PUSH1 0x40 SWAP1 KECCAK256 DUP1 SLOAD PUSH1 0x1 DUP2 ADD DUP3 SSTORE SWAP1 JUMPDEST POP SWAP2 SWAP1 POP JUMP JUMPDEST PUSH1 0x0 SLOAD PUSH2 0x100 SWAP1 DIV PUSH1 0xFF AND DUP1 PUSH2 0x18E1 JUMPI POP PUSH1 0x0 SLOAD PUSH1 0xFF AND ISZERO JUMPDEST PUSH2 0x18FD JUMPI PUSH1 0x40 MLOAD PUSH3 0x461BCD PUSH1 0xE5 SHL DUP2 MSTORE PUSH1 0x4 ADD PUSH2 0x54D SWAP1 PUSH2 0x2652 JUMP JUMPDEST PUSH1 0x0 SLOAD PUSH2 0x100 SWAP1 DIV PUSH1 0xFF AND ISZERO DUP1 ISZERO PUSH2 0x191F JUMPI PUSH1 0x0 DUP1 SLOAD PUSH2 0xFFFF NOT AND PUSH2 0x101 OR SWAP1 SSTORE JUMPDEST PUSH2 0xCE6 DUP3 PUSH2 0x1E91 JUMP JUMPDEST PUSH1 0x0 SLOAD PUSH2 0x100 SWAP1 DIV PUSH1 0xFF AND DUP1 PUSH2 0x1941 JUMPI POP PUSH1 0x0 SLOAD PUSH1 0xFF AND ISZERO JUMPDEST PUSH2 0x195D JUMPI PUSH1 0x40 MLOAD PUSH3 0x461BCD PUSH1 0xE5 SHL DUP2 MSTORE PUSH1 0x4 ADD PUSH2 0x54D SWAP1 PUSH2 0x2652 JUMP JUMPDEST PUSH1 0x0 SLOAD PUSH2 0x100 SWAP1 DIV PUSH1 0xFF AND ISZERO DUP1 ISZERO PUSH2 0x197F JUMPI PUSH1 0x0 DUP1 SLOAD PUSH2 0xFFFF NOT AND PUSH2 0x101 OR SWAP1 SSTORE JUMPDEST PUSH2 0x1987 PUSH2 0x1EFE JUMP JUMPDEST PUSH2 0x19AA DUP3 PUSH1 0x40 MLOAD DUP1 PUSH1 0x40 ADD PUSH1 0x40 MSTORE DUP1 PUSH1 0x1 DUP2 MSTORE PUSH1 0x20 ADD PUSH1 0x31 PUSH1 0xF8 SHL DUP2 MSTORE POP PUSH2 0x1F69 JUMP JUMPDEST PUSH2 0xCE6 DUP3 PUSH2 0x1FF5 JUMP JUMPDEST POP POP POP JUMP JUMPDEST PUSH2 0x19B3 DUP4 DUP4 DUP4 PUSH2 0x2086 JUMP JUMPDEST PUSH1 0x0 PUSH1 0x2 PUSH2 0x19D1 DUP2 DUP5 PUSH2 0x2718 JUMP JUMPDEST PUSH2 0x19DC PUSH1 0x2 DUP7 PUSH2 0x2718 JUMP JUMPDEST PUSH2 0x19E6 SWAP2 SWAP1 PUSH2 0x26A0 JUMP JUMPDEST PUSH2 0x19F0 SWAP2 SWAP1 PUSH2 0x26B8 JUMP JUMPDEST PUSH2 0x19FB PUSH1 0x2 DUP5 PUSH2 0x26B8 JUMP JUMPDEST PUSH2 0x1A06 PUSH1 0x2 DUP7 PUSH2 0x26B8 JUMP JUMPDEST PUSH2 0x1A10 SWAP2 SWAP1 PUSH2 0x26A0 JUMP JUMPDEST PUSH2 0x739 SWAP2 SWAP1 PUSH2 0x26A0 JUMP JUMPDEST PUSH2 0x1A24 DUP3 DUP3 PUSH2 0x20B9 JUMP JUMPDEST PUSH1 0x35 SLOAD PUSH1 0x1 PUSH1 0x1 PUSH1 0x60 SHL SUB LT ISZERO PUSH2 0x1A96 JUMPI PUSH1 0x40 MLOAD PUSH3 0x461BCD PUSH1 0xE5 SHL DUP2 MSTORE PUSH1 0x20 PUSH1 0x4 DUP3 ADD MSTORE PUSH1 0x30 PUSH1 0x24 DUP3 ADD MSTORE PUSH32 0x4552433230566F7465733A20746F74616C20737570706C79207269736B73206F PUSH1 0x44 DUP3 ADD MSTORE PUSH16 0x766572666C6F77696E6720766F746573 PUSH1 0x80 SHL PUSH1 0x64 DUP3 ADD MSTORE PUSH1 0x84 ADD PUSH2 0x54D JUMP JUMPDEST PUSH2 0x5C1 PUSH2 0x16B PUSH2 0x1AA5 DUP4 PUSH2 0x1AB1 JUMP JUMPDEST PUSH1 0x0 PUSH2 0x739 DUP3 DUP5 PUSH2 0x26A0 JUMP JUMPDEST DUP3 SLOAD PUSH1 0x0 SWAP1 DUP2 SWAP1 DUP1 ISZERO PUSH2 0x1B0A JUMPI DUP6 PUSH2 0x1ACA PUSH1 0x1 DUP4 PUSH2 0x26CC JUMP JUMPDEST DUP2 SLOAD DUP2 LT PUSH2 0x1AE8 JUMPI PUSH4 0x4E487B71 PUSH1 0xE0 SHL PUSH1 0x0 MSTORE PUSH1 0x32 PUSH1 0x4 MSTORE PUSH1 0x24 PUSH1 0x0 REVERT JUMPDEST PUSH1 0x0 SWAP2 DUP3 MSTORE PUSH1 0x20 SWAP1 SWAP2 KECCAK256 ADD SLOAD PUSH5 0x100000000 SWAP1 DIV PUSH1 0x1 PUSH1 0x1 PUSH1 0xE0 SHL SUB AND PUSH2 0x1B0D JUMP JUMPDEST PUSH1 0x0 JUMPDEST PUSH1 0x1 PUSH1 0x1 PUSH1 0xE0 SHL SUB AND SWAP3 POP PUSH2 0x1B26 DUP4 DUP6 DUP8 PUSH4 0xFFFFFFFF AND JUMP JUMPDEST SWAP2 POP PUSH1 0x0 DUP2 GT DUP1 ISZERO PUSH2 0x1B72 JUMPI POP NUMBER DUP7 PUSH2 0x1B40 PUSH1 0x1 DUP5 PUSH2 0x26CC JUMP JUMPDEST DUP2 SLOAD DUP2 LT PUSH2 0x1B5E JUMPI PUSH4 0x4E487B71 PUSH1 0xE0 SHL PUSH1 0x0 MSTORE PUSH1 0x32 PUSH1 0x4 MSTORE PUSH1 0x24 PUSH1 0x0 REVERT JUMPDEST PUSH1 0x0 SWAP2 DUP3 MSTORE PUSH1 0x20 SWAP1 SWAP2 KECCAK256 ADD SLOAD PUSH4 0xFFFFFFFF AND EQ JUMPDEST ISZERO PUSH2 0x1BE0 JUMPI PUSH2 0x1B80 DUP3 PUSH2 0x21A0 JUMP JUMPDEST DUP7 PUSH2 0x1B8C PUSH1 0x1 DUP5 PUSH2 0x26CC JUMP JUMPDEST DUP2 SLOAD DUP2 LT PUSH2 0x1BAA JUMPI PUSH4 0x4E487B71 PUSH1 0xE0 SHL PUSH1 0x0 MSTORE PUSH1 0x32 PUSH1 0x4 MSTORE PUSH1 0x24 PUSH1 0x0 REVERT JUMPDEST SWAP1 PUSH1 0x0 MSTORE PUSH1 0x20 PUSH1 0x0 KECCAK256 ADD PUSH1 0x0 ADD PUSH1 0x4 PUSH2 0x100 EXP DUP2 SLOAD DUP2 PUSH1 0x1 PUSH1 0x1 PUSH1 0xE0 SHL SUB MUL NOT AND SWAP1 DUP4 PUSH1 0x1 PUSH1 0x1 PUSH1 0xE0 SHL SUB AND MUL OR SWAP1 SSTORE POP PUSH2 0x1C4B JUMP JUMPDEST DUP6 PUSH1 0x40 MLOAD DUP1 PUSH1 0x40 ADD PUSH1 0x40 MSTORE DUP1 PUSH2 0x1BF5 NUMBER PUSH2 0x14C1 JUMP JUMPDEST PUSH4 0xFFFFFFFF AND DUP2 MSTORE PUSH1 0x20 ADD PUSH2 0x1C09 DUP6 PUSH2 0x21A0 JUMP JUMPDEST PUSH1 0x1 PUSH1 0x1 PUSH1 0xE0 SHL SUB SWAP1 DUP2 AND SWAP1 SWAP2 MSTORE DUP3 SLOAD PUSH1 0x1 DUP2 ADD DUP5 SSTORE PUSH1 0x0 SWAP4 DUP5 MSTORE PUSH1 0x20 SWAP4 DUP5 SWAP1 KECCAK256 DUP4 MLOAD SWAP5 SWAP1 SWAP4 ADD MLOAD SWAP1 SWAP2 AND PUSH5 0x100000000 MUL PUSH4 0xFFFFFFFF SWAP1 SWAP4 AND SWAP3 SWAP1 SWAP3 OR SWAP2 ADD SSTORE JUMPDEST POP SWAP4 POP SWAP4 SWAP2 POP POP JUMP JUMPDEST DUP2 PUSH1 0x1 PUSH1 0x1 PUSH1 0xA0 SHL SUB AND DUP4 PUSH1 0x1 PUSH1 0x1 PUSH1 0xA0 SHL SUB AND EQ ISZERO DUP1 ISZERO PUSH2 0x1C76 JUMPI POP PUSH1 0x0 DUP2 GT JUMPDEST ISZERO PUSH2 0x19B3 JUMPI PUSH1 0x1 PUSH1 0x1 PUSH1 0xA0 SHL SUB DUP4 AND ISZERO PUSH2 0x1D05 JUMPI PUSH1 0x1 PUSH1 0x1 PUSH1 0xA0 SHL SUB DUP4 AND PUSH1 0x0 SWAP1 DUP2 MSTORE PUSH2 0x16A PUSH1 0x20 MSTORE PUSH1 0x40 DUP2 KECCAK256 DUP2 SWAP1 PUSH2 0x1CB2 SWAP1 PUSH2 0x2209 DUP6 PUSH2 0x1AB1 JUMP JUMPDEST SWAP2 POP SWAP2 POP DUP5 PUSH1 0x1 PUSH1 0x1 PUSH1 0xA0 SHL SUB AND PUSH32 0xDEC2BACDD2F05B59DE34DA9B523DFF8BE42E5E38E818C82FDB0BAE774387A724 DUP4 DUP4 PUSH1 0x40 MLOAD PUSH2 0x1CFA SWAP3 SWAP2 SWAP1 SWAP2 DUP3 MSTORE PUSH1 0x20 DUP3 ADD MSTORE PUSH1 0x40 ADD SWAP1 JUMP JUMPDEST PUSH1 0x40 MLOAD DUP1 SWAP2 SUB SWAP1 LOG2 POP POP JUMPDEST PUSH1 0x1 PUSH1 0x1 PUSH1 0xA0 SHL SUB DUP3 AND ISZERO PUSH2 0x19B3 JUMPI PUSH1 0x1 PUSH1 0x1 PUSH1 0xA0 SHL SUB DUP3 AND PUSH1 0x0 SWAP1 DUP2 MSTORE PUSH2 0x16A PUSH1 0x20 MSTORE PUSH1 0x40 DUP2 KECCAK256 DUP2 SWAP1 PUSH2 0x1D3C SWAP1 PUSH2 0x1AA5 DUP6 PUSH2 0x1AB1 JUMP JUMPDEST SWAP2 POP SWAP2 POP DUP4 PUSH1 0x1 PUSH1 0x1 PUSH1 0xA0 SHL SUB AND PUSH32 0xDEC2BACDD2F05B59DE34DA9B523DFF8BE42E5E38E818C82FDB0BAE774387A724 DUP4 DUP4 PUSH1 0x40 MLOAD PUSH2 0x1D84 SWAP3 SWAP2 SWAP1 SWAP2 DUP3 MSTORE PUSH1 0x20 DUP3 ADD MSTORE PUSH1 0x40 ADD SWAP1 JUMP JUMPDEST PUSH1 0x40 MLOAD DUP1 SWAP2 SUB SWAP1 LOG2 POP POP POP POP POP JUMP JUMPDEST PUSH2 0x1D9D DUP3 DUP3 PUSH2 0x1625 JUMP JUMPDEST ISZERO PUSH2 0x1DEA JUMPI PUSH1 0x40 MLOAD PUSH3 0x461BCD PUSH1 0xE5 SHL DUP2 MSTORE PUSH1 0x20 PUSH1 0x4 DUP3 ADD MSTORE PUSH1 0x1F PUSH1 0x24 DUP3 ADD MSTORE PUSH32 0x526F6C65733A206163636F756E7420616C72656164792068617320726F6C6500 PUSH1 0x44 DUP3 ADD MSTORE PUSH1 0x64 ADD PUSH2 0x54D JUMP JUMPDEST PUSH1 0x1 PUSH1 0x1 PUSH1 0xA0 SHL SUB AND PUSH1 0x0 SWAP1 DUP2 MSTORE PUSH1 0x20 SWAP2 SWAP1 SWAP2 MSTORE PUSH1 0x40 SWAP1 KECCAK256 DUP1 SLOAD PUSH1 0xFF NOT AND PUSH1 0x1 OR SWAP1 SSTORE JUMP JUMPDEST PUSH2 0x1E19 DUP3 DUP3 PUSH2 0x1625 JUMP JUMPDEST PUSH2 0x1E6F JUMPI PUSH1 0x40 MLOAD PUSH3 0x461BCD PUSH1 0xE5 SHL DUP2 MSTORE PUSH1 0x20 PUSH1 0x4 DUP3 ADD MSTORE PUSH1 0x21 PUSH1 0x24 DUP3 ADD MSTORE PUSH32 0x526F6C65733A206163636F756E7420646F6573206E6F74206861766520726F6C PUSH1 0x44 DUP3 ADD MSTORE PUSH1 0x65 PUSH1 0xF8 SHL PUSH1 0x64 DUP3 ADD MSTORE PUSH1 0x84 ADD PUSH2 0x54D JUMP JUMPDEST PUSH1 0x1 PUSH1 0x1 PUSH1 0xA0 SHL SUB AND PUSH1 0x0 SWAP1 DUP2 MSTORE PUSH1 0x20 SWAP2 SWAP1 SWAP2 MSTORE PUSH1 0x40 SWAP1 KECCAK256 DUP1 SLOAD PUSH1 0xFF NOT AND SWAP1 SSTORE JUMP JUMPDEST PUSH1 0x0 SLOAD PUSH2 0x100 SWAP1 DIV PUSH1 0xFF AND DUP1 PUSH2 0x1EAA JUMPI POP PUSH1 0x0 SLOAD PUSH1 0xFF AND ISZERO JUMPDEST PUSH2 0x1EC6 JUMPI PUSH1 0x40 MLOAD PUSH3 0x461BCD PUSH1 0xE5 SHL DUP2 MSTORE PUSH1 0x4 ADD PUSH2 0x54D SWAP1 PUSH2 0x2652 JUMP JUMPDEST PUSH1 0x0 SLOAD PUSH2 0x100 SWAP1 DIV PUSH1 0xFF AND ISZERO DUP1 ISZERO PUSH2 0x1EE8 JUMPI PUSH1 0x0 DUP1 SLOAD PUSH2 0xFFFF NOT AND PUSH2 0x101 OR SWAP1 SSTORE JUMPDEST PUSH2 0x1EF1 DUP3 PUSH2 0xAD1 JUMP JUMPDEST PUSH2 0xCE6 JUMPI PUSH2 0xCE6 DUP3 PUSH2 0x15A1 JUMP JUMPDEST PUSH1 0x0 SLOAD PUSH2 0x100 SWAP1 DIV PUSH1 0xFF AND DUP1 PUSH2 0x1F17 JUMPI POP PUSH1 0x0 SLOAD PUSH1 0xFF AND ISZERO JUMPDEST PUSH2 0x1F33 JUMPI PUSH1 0x40 MLOAD PUSH3 0x461BCD PUSH1 0xE5 SHL DUP2 MSTORE PUSH1 0x4 ADD PUSH2 0x54D SWAP1 PUSH2 0x2652 JUMP JUMPDEST PUSH1 0x0 SLOAD PUSH2 0x100 SWAP1 DIV PUSH1 0xFF AND ISZERO DUP1 ISZERO PUSH2 0x1F55 JUMPI PUSH1 0x0 DUP1 SLOAD PUSH2 0xFFFF NOT AND PUSH2 0x101 OR SWAP1 SSTORE JUMPDEST DUP1 ISZERO PUSH2 0x897 JUMPI PUSH1 0x0 DUP1 SLOAD PUSH2 0xFF00 NOT AND SWAP1 SSTORE POP JUMP JUMPDEST PUSH1 0x0 SLOAD PUSH2 0x100 SWAP1 DIV PUSH1 0xFF AND DUP1 PUSH2 0x1F82 JUMPI POP PUSH1 0x0 SLOAD PUSH1 0xFF AND ISZERO JUMPDEST PUSH2 0x1F9E JUMPI PUSH1 0x40 MLOAD PUSH3 0x461BCD PUSH1 0xE5 SHL DUP2 MSTORE PUSH1 0x4 ADD PUSH2 0x54D SWAP1 PUSH2 0x2652 JUMP JUMPDEST PUSH1 0x0 SLOAD PUSH2 0x100 SWAP1 DIV PUSH1 0xFF AND ISZERO DUP1 ISZERO PUSH2 0x1FC0 JUMPI PUSH1 0x0 DUP1 SLOAD PUSH2 0xFFFF NOT AND PUSH2 0x101 OR SWAP1 SSTORE JUMPDEST DUP3 MLOAD PUSH1 0x20 DUP1 DUP6 ADD SWAP2 SWAP1 SWAP2 KECCAK256 DUP4 MLOAD SWAP2 DUP5 ADD SWAP2 SWAP1 SWAP2 KECCAK256 PUSH2 0x102 SWAP2 SWAP1 SWAP2 SSTORE PUSH2 0x103 SSTORE DUP1 ISZERO PUSH2 0x19B3 JUMPI PUSH1 0x0 DUP1 SLOAD PUSH2 0xFF00 NOT AND SWAP1 SSTORE POP POP POP JUMP JUMPDEST PUSH1 0x0 SLOAD PUSH2 0x100 SWAP1 DIV PUSH1 0xFF AND DUP1 PUSH2 0x200E JUMPI POP PUSH1 0x0 SLOAD PUSH1 0xFF AND ISZERO JUMPDEST PUSH2 0x202A JUMPI PUSH1 0x40 MLOAD PUSH3 0x461BCD PUSH1 0xE5 SHL DUP2 MSTORE PUSH1 0x4 ADD PUSH2 0x54D SWAP1 PUSH2 0x2652 JUMP JUMPDEST PUSH1 0x0 SLOAD PUSH2 0x100 SWAP1 DIV PUSH1 0xFF AND ISZERO DUP1 ISZERO PUSH2 0x204C JUMPI PUSH1 0x0 DUP1 SLOAD PUSH2 0xFFFF NOT AND PUSH2 0x101 OR SWAP1 SSTORE JUMPDEST PUSH32 0x6E71EDAE12B1B97F4D1F60370FEF10105FA2FAAE0126114A169C64845D6126C9 PUSH2 0x137 SSTORE DUP1 ISZERO PUSH2 0xCF8 JUMPI PUSH1 0x0 DUP1 SLOAD PUSH2 0xFF00 NOT AND SWAP1 SSTORE POP POP JUMP JUMPDEST PUSH1 0x1 PUSH1 0x1 PUSH1 0xA0 SHL SUB DUP4 DUP2 AND PUSH1 0x0 SWAP1 DUP2 MSTORE PUSH2 0x169 PUSH1 0x20 MSTORE PUSH1 0x40 DUP1 DUP3 KECCAK256 SLOAD DUP6 DUP5 AND DUP4 MSTORE SWAP2 KECCAK256 SLOAD PUSH2 0x19B3 SWAP3 SWAP2 DUP3 AND SWAP2 AND DUP4 PUSH2 0x1C54 JUMP JUMPDEST PUSH1 0x1 PUSH1 0x1 PUSH1 0xA0 SHL SUB DUP3 AND PUSH2 0x210F JUMPI PUSH1 0x40 MLOAD PUSH3 0x461BCD PUSH1 0xE5 SHL DUP2 MSTORE PUSH1 0x20 PUSH1 0x4 DUP3 ADD MSTORE PUSH1 0x1F PUSH1 0x24 DUP3 ADD MSTORE PUSH32 0x45524332303A206D696E7420746F20746865207A65726F206164647265737300 PUSH1 0x44 DUP3 ADD MSTORE PUSH1 0x64 ADD PUSH2 0x54D JUMP JUMPDEST DUP1 PUSH1 0x35 PUSH1 0x0 DUP3 DUP3 SLOAD PUSH2 0x2121 SWAP2 SWAP1 PUSH2 0x26A0 JUMP JUMPDEST SWAP1 SWAP2 SSTORE POP POP PUSH1 0x1 PUSH1 0x1 PUSH1 0xA0 SHL SUB DUP3 AND PUSH1 0x0 SWAP1 DUP2 MSTORE PUSH1 0x33 PUSH1 0x20 MSTORE PUSH1 0x40 DUP2 KECCAK256 DUP1 SLOAD DUP4 SWAP3 SWAP1 PUSH2 0x214E SWAP1 DUP5 SWAP1 PUSH2 0x26A0 JUMP JUMPDEST SWAP1 SWAP2 SSTORE POP POP PUSH1 0x40 MLOAD DUP2 DUP2 MSTORE PUSH1 0x1 PUSH1 0x1 PUSH1 0xA0 SHL SUB DUP4 AND SWAP1 PUSH1 0x0 SWAP1 PUSH32 0xDDF252AD1BE2C89B69C2B068FC378DAA952BA7F163C4A11628F55A4DF523B3EF SWAP1 PUSH1 0x20 ADD PUSH1 0x40 MLOAD DUP1 SWAP2 SUB SWAP1 LOG3 PUSH2 0xCF8 PUSH1 0x0 DUP4 DUP4 PUSH2 0x19B8 JUMP JUMPDEST PUSH1 0x0 PUSH1 0x1 PUSH1 0x1 PUSH1 0xE0 SHL SUB DUP3 GT ISZERO PUSH2 0x1526 JUMPI PUSH1 0x40 MLOAD PUSH3 0x461BCD PUSH1 0xE5 SHL DUP2 MSTORE PUSH1 0x20 PUSH1 0x4 DUP3 ADD MSTORE PUSH1 0x27 PUSH1 0x24 DUP3 ADD MSTORE PUSH32 0x53616665436173743A2076616C756520646F65736E27742066697420696E2032 PUSH1 0x44 DUP3 ADD MSTORE PUSH7 0x32342062697473 PUSH1 0xC8 SHL PUSH1 0x64 DUP3 ADD MSTORE PUSH1 0x84 ADD PUSH2 0x54D JUMP JUMPDEST PUSH1 0x0 PUSH2 0x739 DUP3 DUP5 PUSH2 0x26CC JUMP JUMPDEST DUP3 DUP1 SLOAD PUSH2 0x2221 SWAP1 PUSH2 0x26E3 JUMP JUMPDEST SWAP1 PUSH1 0x0 MSTORE PUSH1 0x20 PUSH1 0x0 KECCAK256 SWAP1 PUSH1 0x1F ADD PUSH1 0x20 SWAP1 DIV DUP2 ADD SWAP3 DUP3 PUSH2 0x2243 JUMPI PUSH1 0x0 DUP6 SSTORE PUSH2 0x2289 JUMP JUMPDEST DUP3 PUSH1 0x1F LT PUSH2 0x225C JUMPI DUP1 MLOAD PUSH1 0xFF NOT AND DUP4 DUP1 ADD OR DUP6 SSTORE PUSH2 0x2289 JUMP JUMPDEST DUP3 DUP1 ADD PUSH1 0x1 ADD DUP6 SSTORE DUP3 ISZERO PUSH2 0x2289 JUMPI SWAP2 DUP3 ADD JUMPDEST DUP3 DUP2 GT ISZERO PUSH2 0x2289 JUMPI DUP3 MLOAD DUP3 SSTORE SWAP2 PUSH1 0x20 ADD SWAP2 SWAP1 PUSH1 0x1 ADD SWAP1 PUSH2 0x226E JUMP JUMPDEST POP PUSH2 0x1526 SWAP3 SWAP2 POP PUSH2 0x22AF JUMP JUMPDEST POP DUP1 SLOAD PUSH1 0x0 DUP3 SSTORE SWAP1 PUSH1 0x0 MSTORE PUSH1 0x20 PUSH1 0x0 KECCAK256 SWAP1 DUP2 ADD SWAP1 PUSH2 0x897 SWAP2 SWAP1 JUMPDEST JUMPDEST DUP1 DUP3 GT ISZERO PUSH2 0x1526 JUMPI PUSH1 0x0 DUP2 SSTORE PUSH1 0x1 ADD PUSH2 0x22B0 JUMP JUMPDEST DUP1 CALLDATALOAD PUSH1 0x1 PUSH1 0x1 PUSH1 0xA0 SHL SUB DUP2 AND DUP2 EQ PUSH2 0x22DB JUMPI PUSH1 0x0 DUP1 REVERT JUMPDEST SWAP2 SWAP1 POP JUMP JUMPDEST PUSH1 0x0 DUP3 PUSH1 0x1F DUP4 ADD SLT PUSH2 0x22F0 JUMPI DUP1 DUP2 REVERT JUMPDEST DUP2 CALLDATALOAD PUSH8 0xFFFFFFFFFFFFFFFF DUP1 DUP3 GT ISZERO PUSH2 0x230B JUMPI PUSH2 0x230B PUSH2 0x2758 JUMP JUMPDEST PUSH1 0x40 MLOAD PUSH1 0x1F DUP4 ADD PUSH1 0x1F NOT SWAP1 DUP2 AND PUSH1 0x3F ADD AND DUP2 ADD SWAP1 DUP3 DUP3 GT DUP2 DUP4 LT OR ISZERO PUSH2 0x2333 JUMPI PUSH2 0x2333 PUSH2 0x2758 JUMP JUMPDEST DUP2 PUSH1 0x40 MSTORE DUP4 DUP2 MSTORE DUP7 PUSH1 0x20 DUP6 DUP9 ADD ADD GT ISZERO PUSH2 0x234B JUMPI DUP5 DUP6 REVERT JUMPDEST DUP4 PUSH1 0x20 DUP8 ADD PUSH1 0x20 DUP4 ADD CALLDATACOPY SWAP3 DUP4 ADD PUSH1 0x20 ADD SWAP4 SWAP1 SWAP4 MSTORE POP SWAP4 SWAP3 POP POP POP JUMP JUMPDEST DUP1 CALLDATALOAD PUSH1 0xFF DUP2 AND DUP2 EQ PUSH2 0x22DB JUMPI PUSH1 0x0 DUP1 REVERT JUMPDEST PUSH1 0x0 PUSH1 0x20 DUP3 DUP5 SUB SLT ISZERO PUSH2 0x2389 JUMPI DUP1 DUP2 REVERT JUMPDEST PUSH2 0x739 DUP3 PUSH2 0x22C4 JUMP JUMPDEST PUSH1 0x0 DUP1 PUSH1 0x40 DUP4 DUP6 SUB SLT ISZERO PUSH2 0x23A4 JUMPI DUP1 DUP2 REVERT JUMPDEST PUSH2 0x23AD DUP4 PUSH2 0x22C4 JUMP JUMPDEST SWAP2 POP PUSH2 0x23BB PUSH1 0x20 DUP5 ADD PUSH2 0x22C4 JUMP JUMPDEST SWAP1 POP SWAP3 POP SWAP3 SWAP1 POP JUMP JUMPDEST PUSH1 0x0 DUP1 PUSH1 0x0 PUSH1 0x60 DUP5 DUP7 SUB SLT ISZERO PUSH2 0x23D8 JUMPI DUP1 DUP2 REVERT JUMPDEST PUSH2 0x23E1 DUP5 PUSH2 0x22C4 JUMP JUMPDEST SWAP3 POP PUSH2 0x23EF PUSH1 0x20 DUP6 ADD PUSH2 0x22C4 JUMP JUMPDEST SWAP2 POP PUSH1 0x40 DUP5 ADD CALLDATALOAD SWAP1 POP SWAP3 POP SWAP3 POP SWAP3 JUMP JUMPDEST PUSH1 0x0 DUP1 PUSH1 0x0 DUP1 PUSH1 0x0 DUP1 PUSH1 0x0 PUSH1 0xE0 DUP9 DUP11 SUB SLT ISZERO PUSH2 0x2419 JUMPI DUP3 DUP4 REVERT JUMPDEST PUSH2 0x2422 DUP9 PUSH2 0x22C4 JUMP JUMPDEST SWAP7 POP PUSH2 0x2430 PUSH1 0x20 DUP10 ADD PUSH2 0x22C4 JUMP JUMPDEST SWAP6 POP PUSH1 0x40 DUP9 ADD CALLDATALOAD SWAP5 POP PUSH1 0x60 DUP9 ADD CALLDATALOAD SWAP4 POP PUSH2 0x244C PUSH1 0x80 DUP10 ADD PUSH2 0x2367 JUMP JUMPDEST SWAP3 POP PUSH1 0xA0 DUP9 ADD CALLDATALOAD SWAP2 POP PUSH1 0xC0 DUP9 ADD CALLDATALOAD SWAP1 POP SWAP3 SWAP6 SWAP9 SWAP2 SWAP5 SWAP8 POP SWAP3 SWAP6 POP JUMP JUMPDEST PUSH1 0x0 DUP1 PUSH1 0x40 DUP4 DUP6 SUB SLT ISZERO PUSH2 0x247A JUMPI DUP2 DUP3 REVERT JUMPDEST PUSH2 0x2483 DUP4 PUSH2 0x22C4 JUMP JUMPDEST SWAP5 PUSH1 0x20 SWAP4 SWAP1 SWAP4 ADD CALLDATALOAD SWAP4 POP POP POP JUMP JUMPDEST PUSH1 0x0 DUP1 PUSH1 0x0 DUP1 PUSH1 0x0 DUP1 PUSH1 0xC0 DUP8 DUP10 SUB SLT ISZERO PUSH2 0x24A9 JUMPI DUP2 DUP3 REVERT JUMPDEST PUSH2 0x24B2 DUP8 PUSH2 0x22C4 JUMP JUMPDEST SWAP6 POP PUSH1 0x20 DUP8 ADD CALLDATALOAD SWAP5 POP PUSH1 0x40 DUP8 ADD CALLDATALOAD SWAP4 POP PUSH2 0x24CE PUSH1 0x60 DUP9 ADD PUSH2 0x2367 JUMP JUMPDEST SWAP3 POP PUSH1 0x80 DUP8 ADD CALLDATALOAD SWAP2 POP PUSH1 0xA0 DUP8 ADD CALLDATALOAD SWAP1 POP SWAP3 SWAP6 POP SWAP3 SWAP6 POP SWAP3 SWAP6 JUMP JUMPDEST PUSH1 0x0 DUP1 PUSH1 0x40 DUP4 DUP6 SUB SLT ISZERO PUSH2 0x24FA JUMPI DUP2 DUP3 REVERT JUMPDEST PUSH2 0x2503 DUP4 PUSH2 0x22C4 JUMP JUMPDEST SWAP2 POP PUSH1 0x20 DUP4 ADD CALLDATALOAD PUSH4 0xFFFFFFFF DUP2 AND DUP2 EQ PUSH2 0x251B JUMPI DUP2 DUP3 REVERT JUMPDEST DUP1 SWAP2 POP POP SWAP3 POP SWAP3 SWAP1 POP JUMP JUMPDEST PUSH1 0x0 DUP1 PUSH1 0x0 PUSH1 0x60 DUP5 DUP7 SUB SLT ISZERO PUSH2 0x253A JUMPI DUP3 DUP4 REVERT JUMPDEST DUP4 CALLDATALOAD PUSH8 0xFFFFFFFFFFFFFFFF DUP1 DUP3 GT ISZERO PUSH2 0x2551 JUMPI DUP5 DUP6 REVERT JUMPDEST PUSH2 0x255D DUP8 DUP4 DUP9 ADD PUSH2 0x22E0 JUMP JUMPDEST SWAP5 POP PUSH1 0x20 DUP7 ADD CALLDATALOAD SWAP2 POP DUP1 DUP3 GT ISZERO PUSH2 0x2572 JUMPI DUP4 DUP5 REVERT JUMPDEST POP PUSH2 0x257F DUP7 DUP3 DUP8 ADD PUSH2 0x22E0 JUMP JUMPDEST SWAP3 POP POP PUSH2 0x258E PUSH1 0x40 DUP6 ADD PUSH2 0x2367 JUMP JUMPDEST SWAP1 POP SWAP3 POP SWAP3 POP SWAP3 JUMP JUMPDEST PUSH1 0x0 PUSH1 0x20 DUP3 DUP5 SUB SLT ISZERO PUSH2 0x25A8 JUMPI DUP1 DUP2 REVERT JUMPDEST POP CALLDATALOAD SWAP2 SWAP1 POP JUMP JUMPDEST PUSH1 0x0 PUSH1 0x20 DUP1 DUP4 MSTORE DUP4 MLOAD DUP1 DUP3 DUP6 ADD MSTORE DUP3 JUMPDEST DUP2 DUP2 LT ISZERO PUSH2 0x25DB JUMPI DUP6 DUP2 ADD DUP4 ADD MLOAD DUP6 DUP3 ADD PUSH1 0x40 ADD MSTORE DUP3 ADD PUSH2 0x25BF JUMP JUMPDEST DUP2 DUP2 GT ISZERO PUSH2 0x25EC JUMPI DUP4 PUSH1 0x40 DUP4 DUP8 ADD ADD MSTORE JUMPDEST POP PUSH1 0x1F ADD PUSH1 0x1F NOT AND SWAP3 SWAP1 SWAP3 ADD PUSH1 0x40 ADD SWAP4 SWAP3 POP POP POP JUMP JUMPDEST PUSH1 0x20 DUP1 DUP3 MSTORE PUSH1 0x30 SWAP1 DUP3 ADD MSTORE PUSH32 0x4D696E746572526F6C653A2063616C6C657220646F6573206E6F742068617665 PUSH1 0x40 DUP3 ADD MSTORE PUSH16 0x20746865204D696E74657220726F6C65 PUSH1 0x80 SHL PUSH1 0x60 DUP3 ADD MSTORE PUSH1 0x80 ADD SWAP1 JUMP JUMPDEST PUSH1 0x20 DUP1 DUP3 MSTORE PUSH1 0x2E SWAP1 DUP3 ADD MSTORE PUSH32 0x496E697469616C697A61626C653A20636F6E747261637420697320616C726561 PUSH1 0x40 DUP3 ADD MSTORE PUSH14 0x191E481A5B9A5D1A585B1A5E9959 PUSH1 0x92 SHL PUSH1 0x60 DUP3 ADD MSTORE PUSH1 0x80 ADD SWAP1 JUMP JUMPDEST PUSH1 0x0 DUP3 NOT DUP3 GT ISZERO PUSH2 0x26B3 JUMPI PUSH2 0x26B3 PUSH2 0x272C JUMP JUMPDEST POP ADD SWAP1 JUMP JUMPDEST PUSH1 0x0 DUP3 PUSH2 0x26C7 JUMPI PUSH2 0x26C7 PUSH2 0x2742 JUMP JUMPDEST POP DIV SWAP1 JUMP JUMPDEST PUSH1 0x0 DUP3 DUP3 LT ISZERO PUSH2 0x26DE JUMPI PUSH2 0x26DE PUSH2 0x272C JUMP JUMPDEST POP SUB SWAP1 JUMP JUMPDEST PUSH1 0x1 DUP2 DUP2 SHR SWAP1 DUP3 AND DUP1 PUSH2 0x26F7 JUMPI PUSH1 0x7F DUP3 AND SWAP2 POP JUMPDEST PUSH1 0x20 DUP3 LT DUP2 EQ ISZERO PUSH2 0x18C2 JUMPI PUSH4 0x4E487B71 PUSH1 0xE0 SHL PUSH1 0x0 MSTORE PUSH1 0x22 PUSH1 0x4 MSTORE PUSH1 0x24 PUSH1 0x0 REVERT JUMPDEST PUSH1 0x0 DUP3 PUSH2 0x2727 JUMPI PUSH2 0x2727 PUSH2 0x2742 JUMP JUMPDEST POP MOD SWAP1 JUMP JUMPDEST PUSH4 0x4E487B71 PUSH1 0xE0 SHL PUSH1 0x0 MSTORE PUSH1 0x11 PUSH1 0x4 MSTORE PUSH1 0x24 PUSH1 0x0 REVERT JUMPDEST PUSH4 0x4E487B71 PUSH1 0xE0 SHL PUSH1 0x0 MSTORE PUSH1 0x12 PUSH1 0x4 MSTORE PUSH1 0x24 PUSH1 0x0 REVERT JUMPDEST PUSH4 0x4E487B71 PUSH1 0xE0 SHL PUSH1 0x0 MSTORE PUSH1 0x41 PUSH1 0x4 MSTORE PUSH1 0x24 PUSH1 0x0 REVERT INVALID LOG2 PUSH5 0x6970667358 0x22 SLT KECCAK256 SHL 0xEC 0xCD ORIGIN 0xB0 0x48 0xCA PC CODECOPY 0xB7 0xE0 PUSH8 0x9C20796C38FE5CA4 SDIV PUSH20 0xAFFE8CAFDAA9E048E3BD64736F6C634300080400 CALLER "
        },
        "methodIdentifiers": {
          "DOMAIN_SEPARATOR()": "3644e515",
          "addMinter(address)": "983b2d56",
          "allowance(address,address)": "dd62ed3e",
          "approve(address,uint256)": "095ea7b3",
          "balanceOf(address)": "70a08231",
          "checkpoints(address,uint32)": "f1127ed8",
          "decimals()": "313ce567",
          "decreaseAllowance(address,uint256)": "a457c2d7",
          "delegate(address)": "5c19a95c",
          "delegateBySig(address,uint256,uint256,uint8,bytes32,bytes32)": "c3cda520",
          "delegates(address)": "587cde1e",
          "getCurrentVotes(address)": "b4b5ea57",
          "getPastTotalSupply(uint256)": "8e539e8c",
          "getPastVotes(address,uint256)": "3a46b1a8",
          "getPriorVotes(address,uint256)": "782d6fe1",
          "getVotes(address)": "9ab24eb0",
          "increaseAllowance(address,uint256)": "39509351",
          "initialize(address)": "c4d66de8",
          "initialize(string,string,uint8)": "1624f6c6",
          "initialize2()": "472abf68",
          "isMinter(address)": "aa271e1a",
          "mint(address,uint256)": "40c10f19",
          "name()": "06fdde03",
          "nonces(address)": "7ecebe00",
          "numCheckpoints(address)": "6fcfff45",
          "permit(address,address,uint256,uint256,uint8,bytes32,bytes32)": "d505accf",
          "renounceMinter()": "98650275",
          "symbol()": "95d89b41",
          "totalSupply()": "18160ddd",
          "transfer(address,uint256)": "a9059cbb",
          "transferFrom(address,address,uint256)": "23b872dd"
        }
      },
      "storageLayout": {
        "storage": [
          {
            "astId": 224,
            "contract": "contracts/UnlockDiscountTokenV2.sol:UnlockDiscountTokenV2",
            "label": "initialized",
            "offset": 0,
            "slot": "0",
            "type": "t_bool"
          },
          {
            "astId": 227,
            "contract": "contracts/UnlockDiscountTokenV2.sol:UnlockDiscountTokenV2",
            "label": "initializing",
            "offset": 1,
            "slot": "0",
            "type": "t_bool"
          },
          {
            "astId": 303,
            "contract": "contracts/UnlockDiscountTokenV2.sol:UnlockDiscountTokenV2",
            "label": "______gap",
            "offset": 0,
            "slot": "1",
            "type": "t_array(t_uint256)50_storage"
          },
          {
            "astId": 317,
            "contract": "contracts/UnlockDiscountTokenV2.sol:UnlockDiscountTokenV2",
            "label": "_balances",
            "offset": 0,
            "slot": "51",
            "type": "t_mapping(t_address,t_uint256)"
          },
          {
            "astId": 323,
            "contract": "contracts/UnlockDiscountTokenV2.sol:UnlockDiscountTokenV2",
            "label": "_allowances",
            "offset": 0,
            "slot": "52",
            "type": "t_mapping(t_address,t_mapping(t_address,t_uint256))"
          },
          {
            "astId": 325,
            "contract": "contracts/UnlockDiscountTokenV2.sol:UnlockDiscountTokenV2",
            "label": "_totalSupply",
            "offset": 0,
            "slot": "53",
            "type": "t_uint256"
          },
          {
            "astId": 838,
            "contract": "contracts/UnlockDiscountTokenV2.sol:UnlockDiscountTokenV2",
            "label": "______gap",
            "offset": 0,
            "slot": "54",
            "type": "t_array(t_uint256)50_storage"
          },
          {
            "astId": 2728,
            "contract": "contracts/UnlockDiscountTokenV2.sol:UnlockDiscountTokenV2",
            "label": "_minters",
            "offset": 0,
            "slot": "104",
            "type": "t_struct(Role)7_storage"
          },
          {
            "astId": 2828,
            "contract": "contracts/UnlockDiscountTokenV2.sol:UnlockDiscountTokenV2",
            "label": "______gap",
            "offset": 0,
            "slot": "105",
            "type": "t_array(t_uint256)50_storage"
          },
          {
            "astId": 2936,
            "contract": "contracts/UnlockDiscountTokenV2.sol:UnlockDiscountTokenV2",
            "label": "______gap",
            "offset": 0,
            "slot": "155",
            "type": "t_array(t_uint256)50_storage"
          },
          {
            "astId": 2835,
            "contract": "contracts/UnlockDiscountTokenV2.sol:UnlockDiscountTokenV2",
            "label": "_name",
            "offset": 0,
            "slot": "205",
            "type": "t_string_storage"
          },
          {
            "astId": 2837,
            "contract": "contracts/UnlockDiscountTokenV2.sol:UnlockDiscountTokenV2",
            "label": "_symbol",
            "offset": 0,
            "slot": "206",
            "type": "t_string_storage"
          },
          {
            "astId": 2839,
            "contract": "contracts/UnlockDiscountTokenV2.sol:UnlockDiscountTokenV2",
            "label": "_decimals",
            "offset": 0,
            "slot": "207",
            "type": "t_uint8"
          },
          {
            "astId": 2891,
            "contract": "contracts/UnlockDiscountTokenV2.sol:UnlockDiscountTokenV2",
            "label": "______gap",
            "offset": 0,
            "slot": "208",
            "type": "t_array(t_uint256)50_storage"
          },
          {
            "astId": 1025,
            "contract": "contracts/UnlockDiscountTokenV2.sol:UnlockDiscountTokenV2",
            "label": "_HASHED_NAME",
            "offset": 0,
            "slot": "258",
            "type": "t_bytes32"
          },
          {
            "astId": 1027,
            "contract": "contracts/UnlockDiscountTokenV2.sol:UnlockDiscountTokenV2",
            "label": "_HASHED_VERSION",
            "offset": 0,
            "slot": "259",
            "type": "t_bytes32"
          },
          {
            "astId": 1198,
            "contract": "contracts/UnlockDiscountTokenV2.sol:UnlockDiscountTokenV2",
            "label": "__gap",
            "offset": 0,
            "slot": "260",
            "type": "t_array(t_uint256)50_storage"
          },
          {
            "astId": 1289,
            "contract": "contracts/UnlockDiscountTokenV2.sol:UnlockDiscountTokenV2",
            "label": "_nonces",
            "offset": 0,
            "slot": "310",
            "type": "t_mapping(t_address,t_struct(Counter)1203_storage)"
          },
          {
            "astId": 1291,
            "contract": "contracts/UnlockDiscountTokenV2.sol:UnlockDiscountTokenV2",
            "label": "_PERMIT_TYPEHASH",
            "offset": 0,
            "slot": "311",
            "type": "t_bytes32"
          },
          {
            "astId": 1471,
            "contract": "contracts/UnlockDiscountTokenV2.sol:UnlockDiscountTokenV2",
            "label": "__gap",
            "offset": 0,
            "slot": "312",
            "type": "t_array(t_uint256)49_storage"
          },
          {
            "astId": 2017,
            "contract": "contracts/UnlockDiscountTokenV2.sol:UnlockDiscountTokenV2",
            "label": "_delegates",
            "offset": 0,
            "slot": "361",
            "type": "t_mapping(t_address,t_address)"
          },
          {
            "astId": 2023,
            "contract": "contracts/UnlockDiscountTokenV2.sol:UnlockDiscountTokenV2",
            "label": "_checkpoints",
            "offset": 0,
            "slot": "362",
            "type": "t_mapping(t_address,t_array(t_struct(Checkpoint)2008_storage)dyn_storage)"
          },
          {
            "astId": 2027,
            "contract": "contracts/UnlockDiscountTokenV2.sol:UnlockDiscountTokenV2",
            "label": "_totalSupplyCheckpoints",
            "offset": 0,
            "slot": "363",
            "type": "t_array(t_struct(Checkpoint)2008_storage)dyn_storage"
          },
          {
            "astId": 2643,
            "contract": "contracts/UnlockDiscountTokenV2.sol:UnlockDiscountTokenV2",
            "label": "__gap",
            "offset": 0,
            "slot": "364",
            "type": "t_array(t_uint256)47_storage"
          },
          {
            "astId": 2708,
            "contract": "contracts/UnlockDiscountTokenV2.sol:UnlockDiscountTokenV2",
            "label": "__gap",
            "offset": 0,
            "slot": "411",
            "type": "t_array(t_uint256)50_storage"
          }
        ],
        "types": {
          "t_address": {
            "encoding": "inplace",
            "label": "address",
            "numberOfBytes": "20"
          },
          "t_array(t_struct(Checkpoint)2008_storage)dyn_storage": {
            "base": "t_struct(Checkpoint)2008_storage",
            "encoding": "dynamic_array",
            "label": "struct ERC20VotesUpgradeable.Checkpoint[]",
            "numberOfBytes": "32"
          },
          "t_array(t_uint256)47_storage": {
            "base": "t_uint256",
            "encoding": "inplace",
            "label": "uint256[47]",
            "numberOfBytes": "1504"
          },
          "t_array(t_uint256)49_storage": {
            "base": "t_uint256",
            "encoding": "inplace",
            "label": "uint256[49]",
            "numberOfBytes": "1568"
          },
          "t_array(t_uint256)50_storage": {
            "base": "t_uint256",
            "encoding": "inplace",
            "label": "uint256[50]",
            "numberOfBytes": "1600"
          },
          "t_bool": {
            "encoding": "inplace",
            "label": "bool",
            "numberOfBytes": "1"
          },
          "t_bytes32": {
            "encoding": "inplace",
            "label": "bytes32",
            "numberOfBytes": "32"
          },
          "t_mapping(t_address,t_address)": {
            "encoding": "mapping",
            "key": "t_address",
            "label": "mapping(address => address)",
            "numberOfBytes": "32",
            "value": "t_address"
          },
          "t_mapping(t_address,t_array(t_struct(Checkpoint)2008_storage)dyn_storage)": {
            "encoding": "mapping",
            "key": "t_address",
            "label": "mapping(address => struct ERC20VotesUpgradeable.Checkpoint[])",
            "numberOfBytes": "32",
            "value": "t_array(t_struct(Checkpoint)2008_storage)dyn_storage"
          },
          "t_mapping(t_address,t_bool)": {
            "encoding": "mapping",
            "key": "t_address",
            "label": "mapping(address => bool)",
            "numberOfBytes": "32",
            "value": "t_bool"
          },
          "t_mapping(t_address,t_mapping(t_address,t_uint256))": {
            "encoding": "mapping",
            "key": "t_address",
            "label": "mapping(address => mapping(address => uint256))",
            "numberOfBytes": "32",
            "value": "t_mapping(t_address,t_uint256)"
          },
          "t_mapping(t_address,t_struct(Counter)1203_storage)": {
            "encoding": "mapping",
            "key": "t_address",
            "label": "mapping(address => struct CountersUpgradeable.Counter)",
            "numberOfBytes": "32",
            "value": "t_struct(Counter)1203_storage"
          },
          "t_mapping(t_address,t_uint256)": {
            "encoding": "mapping",
            "key": "t_address",
            "label": "mapping(address => uint256)",
            "numberOfBytes": "32",
            "value": "t_uint256"
          },
          "t_string_storage": {
            "encoding": "bytes",
            "label": "string",
            "numberOfBytes": "32"
          },
          "t_struct(Checkpoint)2008_storage": {
            "encoding": "inplace",
            "label": "struct ERC20VotesUpgradeable.Checkpoint",
            "members": [
              {
                "astId": 2005,
                "contract": "contracts/UnlockDiscountTokenV2.sol:UnlockDiscountTokenV2",
                "label": "fromBlock",
                "offset": 0,
                "slot": "0",
                "type": "t_uint32"
              },
              {
                "astId": 2007,
                "contract": "contracts/UnlockDiscountTokenV2.sol:UnlockDiscountTokenV2",
                "label": "votes",
                "offset": 4,
                "slot": "0",
                "type": "t_uint224"
              }
            ],
            "numberOfBytes": "32"
          },
          "t_struct(Counter)1203_storage": {
            "encoding": "inplace",
            "label": "struct CountersUpgradeable.Counter",
            "members": [
              {
                "astId": 1202,
                "contract": "contracts/UnlockDiscountTokenV2.sol:UnlockDiscountTokenV2",
                "label": "_value",
                "offset": 0,
                "slot": "0",
                "type": "t_uint256"
              }
            ],
            "numberOfBytes": "32"
          },
          "t_struct(Role)7_storage": {
            "encoding": "inplace",
            "label": "struct Roles.Role",
            "members": [
              {
                "astId": 6,
                "contract": "contracts/UnlockDiscountTokenV2.sol:UnlockDiscountTokenV2",
                "label": "bearer",
                "offset": 0,
                "slot": "0",
                "type": "t_mapping(t_address,t_bool)"
              }
            ],
            "numberOfBytes": "32"
          },
          "t_uint224": {
            "encoding": "inplace",
            "label": "uint224",
            "numberOfBytes": "28"
          },
          "t_uint256": {
            "encoding": "inplace",
            "label": "uint256",
            "numberOfBytes": "32"
          },
          "t_uint32": {
            "encoding": "inplace",
            "label": "uint32",
            "numberOfBytes": "4"
          },
          "t_uint8": {
            "encoding": "inplace",
            "label": "uint8",
            "numberOfBytes": "1"
          }
        }
      }
    }
  }
}