{
  "_format": "hh-sol-artifact-1",
  "contractName": "RCTreasury",
  "sourceName": "contracts/RCTreasury.sol",
  "abi": [
    {
      "inputs": [
        {
          "internalType": "address",
          "name": "_tokenAddress",
          "type": "address"
        }
      ],
      "stateMutability": "nonpayable",
      "type": "constructor"
    },
    {
      "anonymous": false,
      "inputs": [
        {
          "indexed": true,
          "internalType": "address",
          "name": "user",
          "type": "address"
        },
        {
          "indexed": true,
          "internalType": "uint256",
          "name": "amount",
          "type": "uint256"
        },
        {
          "indexed": false,
          "internalType": "bool",
          "name": "increase",
          "type": "bool"
        }
      ],
      "name": "LogAdjustDeposit",
      "type": "event"
    },
    {
      "anonymous": false,
      "inputs": [
        {
          "indexed": false,
          "internalType": "bool",
          "name": "paused",
          "type": "bool"
        }
      ],
      "name": "LogGlobalPause",
      "type": "event"
    },
    {
      "anonymous": false,
      "inputs": [
        {
          "indexed": false,
          "internalType": "address",
          "name": "market",
          "type": "address"
        },
        {
          "indexed": false,
          "internalType": "bool",
          "name": "paused",
          "type": "bool"
        }
      ],
      "name": "LogMarketPaused",
      "type": "event"
    },
    {
      "anonymous": false,
      "inputs": [
        {
          "indexed": true,
          "internalType": "address",
          "name": "user",
          "type": "address"
        },
        {
          "indexed": true,
          "internalType": "bool",
          "name": "foreclosed",
          "type": "bool"
        }
      ],
      "name": "LogUserForeclosed",
      "type": "event"
    },
    {
      "anonymous": false,
      "inputs": [
        {
          "indexed": false,
          "internalType": "address",
          "name": "user",
          "type": "address"
        },
        {
          "indexed": false,
          "internalType": "bool",
          "name": "allowed",
          "type": "bool"
        }
      ],
      "name": "LogWhitelistUser",
      "type": "event"
    },
    {
      "anonymous": false,
      "inputs": [
        {
          "indexed": false,
          "internalType": "address",
          "name": "userAddress",
          "type": "address"
        },
        {
          "indexed": false,
          "internalType": "address",
          "name": "relayerAddress",
          "type": "address"
        },
        {
          "indexed": false,
          "internalType": "bytes",
          "name": "functionSignature",
          "type": "bytes"
        }
      ],
      "name": "MetaTransactionExecuted",
      "type": "event"
    },
    {
      "anonymous": false,
      "inputs": [
        {
          "indexed": true,
          "internalType": "bytes32",
          "name": "role",
          "type": "bytes32"
        },
        {
          "indexed": true,
          "internalType": "bytes32",
          "name": "previousAdminRole",
          "type": "bytes32"
        },
        {
          "indexed": true,
          "internalType": "bytes32",
          "name": "newAdminRole",
          "type": "bytes32"
        }
      ],
      "name": "RoleAdminChanged",
      "type": "event"
    },
    {
      "anonymous": false,
      "inputs": [
        {
          "indexed": true,
          "internalType": "bytes32",
          "name": "role",
          "type": "bytes32"
        },
        {
          "indexed": true,
          "internalType": "address",
          "name": "account",
          "type": "address"
        },
        {
          "indexed": true,
          "internalType": "address",
          "name": "sender",
          "type": "address"
        }
      ],
      "name": "RoleGranted",
      "type": "event"
    },
    {
      "anonymous": false,
      "inputs": [
        {
          "indexed": true,
          "internalType": "bytes32",
          "name": "role",
          "type": "bytes32"
        },
        {
          "indexed": true,
          "internalType": "address",
          "name": "account",
          "type": "address"
        },
        {
          "indexed": true,
          "internalType": "address",
          "name": "sender",
          "type": "address"
        }
      ],
      "name": "RoleRevoked",
      "type": "event"
    },
    {
      "inputs": [],
      "name": "AFFILIATE",
      "outputs": [
        {
          "internalType": "bytes32",
          "name": "",
          "type": "bytes32"
        }
      ],
      "stateMutability": "view",
      "type": "function"
    },
    {
      "inputs": [],
      "name": "ARTIST",
      "outputs": [
        {
          "internalType": "bytes32",
          "name": "",
          "type": "bytes32"
        }
      ],
      "stateMutability": "view",
      "type": "function"
    },
    {
      "inputs": [],
      "name": "CARD_AFFILIATE",
      "outputs": [
        {
          "internalType": "bytes32",
          "name": "",
          "type": "bytes32"
        }
      ],
      "stateMutability": "view",
      "type": "function"
    },
    {
      "inputs": [],
      "name": "DEFAULT_ADMIN_ROLE",
      "outputs": [
        {
          "internalType": "bytes32",
          "name": "",
          "type": "bytes32"
        }
      ],
      "stateMutability": "view",
      "type": "function"
    },
    {
      "inputs": [],
      "name": "FACTORY",
      "outputs": [
        {
          "internalType": "bytes32",
          "name": "",
          "type": "bytes32"
        }
      ],
      "stateMutability": "view",
      "type": "function"
    },
    {
      "inputs": [],
      "name": "GOVERNOR",
      "outputs": [
        {
          "internalType": "bytes32",
          "name": "",
          "type": "bytes32"
        }
      ],
      "stateMutability": "view",
      "type": "function"
    },
    {
      "inputs": [],
      "name": "MARKET",
      "outputs": [
        {
          "internalType": "bytes32",
          "name": "",
          "type": "bytes32"
        }
      ],
      "stateMutability": "view",
      "type": "function"
    },
    {
      "inputs": [],
      "name": "ORDERBOOK",
      "outputs": [
        {
          "internalType": "bytes32",
          "name": "",
          "type": "bytes32"
        }
      ],
      "stateMutability": "view",
      "type": "function"
    },
    {
      "inputs": [],
      "name": "OWNER",
      "outputs": [
        {
          "internalType": "bytes32",
          "name": "",
          "type": "bytes32"
        }
      ],
      "stateMutability": "view",
      "type": "function"
    },
    {
      "inputs": [],
      "name": "TREASURY",
      "outputs": [
        {
          "internalType": "bytes32",
          "name": "",
          "type": "bytes32"
        }
      ],
      "stateMutability": "view",
      "type": "function"
    },
    {
      "inputs": [],
      "name": "UBER_OWNER",
      "outputs": [
        {
          "internalType": "bytes32",
          "name": "",
          "type": "bytes32"
        }
      ],
      "stateMutability": "view",
      "type": "function"
    },
    {
      "inputs": [],
      "name": "WHITELIST",
      "outputs": [
        {
          "internalType": "bytes32",
          "name": "",
          "type": "bytes32"
        }
      ],
      "stateMutability": "view",
      "type": "function"
    },
    {
      "inputs": [
        {
          "internalType": "address",
          "name": "_market",
          "type": "address"
        },
        {
          "internalType": "bool",
          "name": "_paused",
          "type": "bool"
        }
      ],
      "name": "addMarket",
      "outputs": [],
      "stateMutability": "nonpayable",
      "type": "function"
    },
    {
      "inputs": [
        {
          "internalType": "address",
          "name": "_user",
          "type": "address"
        }
      ],
      "name": "assessForeclosure",
      "outputs": [],
      "stateMutability": "nonpayable",
      "type": "function"
    },
    {
      "inputs": [
        {
          "internalType": "address[]",
          "name": "_users",
          "type": "address[]"
        },
        {
          "internalType": "bool",
          "name": "add",
          "type": "bool"
        }
      ],
      "name": "batchWhitelist",
      "outputs": [],
      "stateMutability": "nonpayable",
      "type": "function"
    },
    {
      "inputs": [],
      "name": "bridgeAddress",
      "outputs": [
        {
          "internalType": "address",
          "name": "",
          "type": "address"
        }
      ],
      "stateMutability": "view",
      "type": "function"
    },
    {
      "inputs": [],
      "name": "changeGlobalPause",
      "outputs": [],
      "stateMutability": "nonpayable",
      "type": "function"
    },
    {
      "inputs": [
        {
          "internalType": "address",
          "name": "_market",
          "type": "address"
        },
        {
          "internalType": "bool",
          "name": "_paused",
          "type": "bool"
        }
      ],
      "name": "changePauseMarket",
      "outputs": [],
      "stateMutability": "nonpayable",
      "type": "function"
    },
    {
      "inputs": [
        {
          "internalType": "bytes32",
          "name": "role",
          "type": "bytes32"
        },
        {
          "internalType": "address",
          "name": "account",
          "type": "address"
        }
      ],
      "name": "checkPermission",
      "outputs": [
        {
          "internalType": "bool",
          "name": "",
          "type": "bool"
        }
      ],
      "stateMutability": "view",
      "type": "function"
    },
    {
      "inputs": [
        {
          "internalType": "address",
          "name": "sender",
          "type": "address"
        },
        {
          "internalType": "uint256",
          "name": "_amount",
          "type": "uint256"
        }
      ],
      "name": "checkSponsorship",
      "outputs": [],
      "stateMutability": "view",
      "type": "function"
    },
    {
      "inputs": [
        {
          "internalType": "address",
          "name": "_user",
          "type": "address"
        },
        {
          "internalType": "uint256",
          "name": "_timeToCollectTo",
          "type": "uint256"
        }
      ],
      "name": "collectRentUser",
      "outputs": [
        {
          "internalType": "uint256",
          "name": "newTimeLastCollectedOnForeclosure",
          "type": "uint256"
        }
      ],
      "stateMutability": "nonpayable",
      "type": "function"
    },
    {
      "inputs": [
        {
          "internalType": "address",
          "name": "_user",
          "type": "address"
        },
        {
          "internalType": "uint256",
          "name": "_price",
          "type": "uint256"
        }
      ],
      "name": "decreaseBidRate",
      "outputs": [],
      "stateMutability": "nonpayable",
      "type": "function"
    },
    {
      "inputs": [
        {
          "internalType": "uint256",
          "name": "_amount",
          "type": "uint256"
        },
        {
          "internalType": "address",
          "name": "_user",
          "type": "address"
        }
      ],
      "name": "deposit",
      "outputs": [
        {
          "internalType": "bool",
          "name": "",
          "type": "bool"
        }
      ],
      "stateMutability": "nonpayable",
      "type": "function"
    },
    {
      "inputs": [],
      "name": "erc20",
      "outputs": [
        {
          "internalType": "contract IERC20",
          "name": "",
          "type": "address"
        }
      ],
      "stateMutability": "view",
      "type": "function"
    },
    {
      "inputs": [
        {
          "internalType": "address",
          "name": "userAddress",
          "type": "address"
        },
        {
          "internalType": "bytes",
          "name": "functionSignature",
          "type": "bytes"
        },
        {
          "internalType": "bytes32",
          "name": "sigR",
          "type": "bytes32"
        },
        {
          "internalType": "bytes32",
          "name": "sigS",
          "type": "bytes32"
        },
        {
          "internalType": "uint8",
          "name": "sigV",
          "type": "uint8"
        }
      ],
      "name": "executeMetaTransaction",
      "outputs": [
        {
          "internalType": "bytes",
          "name": "",
          "type": "bytes"
        }
      ],
      "stateMutability": "payable",
      "type": "function"
    },
    {
      "inputs": [],
      "name": "factory",
      "outputs": [
        {
          "internalType": "contract IRCFactory",
          "name": "",
          "type": "address"
        }
      ],
      "stateMutability": "view",
      "type": "function"
    },
    {
      "inputs": [
        {
          "internalType": "address",
          "name": "_user",
          "type": "address"
        },
        {
          "internalType": "uint256",
          "name": "_newBid",
          "type": "uint256"
        },
        {
          "internalType": "uint256",
          "name": "_timeOfNewBid",
          "type": "uint256"
        }
      ],
      "name": "foreclosureTimeUser",
      "outputs": [
        {
          "internalType": "uint256",
          "name": "",
          "type": "uint256"
        }
      ],
      "stateMutability": "view",
      "type": "function"
    },
    {
      "inputs": [],
      "name": "getChainId",
      "outputs": [
        {
          "internalType": "uint256",
          "name": "",
          "type": "uint256"
        }
      ],
      "stateMutability": "view",
      "type": "function"
    },
    {
      "inputs": [],
      "name": "getDomainSeperator",
      "outputs": [
        {
          "internalType": "bytes32",
          "name": "",
          "type": "bytes32"
        }
      ],
      "stateMutability": "view",
      "type": "function"
    },
    {
      "inputs": [
        {
          "internalType": "address",
          "name": "user",
          "type": "address"
        }
      ],
      "name": "getNonce",
      "outputs": [
        {
          "internalType": "uint256",
          "name": "nonce",
          "type": "uint256"
        }
      ],
      "stateMutability": "view",
      "type": "function"
    },
    {
      "inputs": [
        {
          "internalType": "bytes32",
          "name": "role",
          "type": "bytes32"
        }
      ],
      "name": "getRoleAdmin",
      "outputs": [
        {
          "internalType": "bytes32",
          "name": "",
          "type": "bytes32"
        }
      ],
      "stateMutability": "view",
      "type": "function"
    },
    {
      "inputs": [],
      "name": "globalExit",
      "outputs": [],
      "stateMutability": "nonpayable",
      "type": "function"
    },
    {
      "inputs": [],
      "name": "globalPause",
      "outputs": [
        {
          "internalType": "bool",
          "name": "",
          "type": "bool"
        }
      ],
      "stateMutability": "view",
      "type": "function"
    },
    {
      "inputs": [
        {
          "internalType": "bytes32",
          "name": "role",
          "type": "bytes32"
        },
        {
          "internalType": "address",
          "name": "account",
          "type": "address"
        }
      ],
      "name": "grantRole",
      "outputs": [],
      "stateMutability": "nonpayable",
      "type": "function"
    },
    {
      "inputs": [
        {
          "internalType": "string",
          "name": "role",
          "type": "string"
        },
        {
          "internalType": "address",
          "name": "account",
          "type": "address"
        }
      ],
      "name": "grantRole",
      "outputs": [],
      "stateMutability": "nonpayable",
      "type": "function"
    },
    {
      "inputs": [
        {
          "internalType": "bytes32",
          "name": "role",
          "type": "bytes32"
        },
        {
          "internalType": "address",
          "name": "account",
          "type": "address"
        }
      ],
      "name": "hasRole",
      "outputs": [
        {
          "internalType": "bool",
          "name": "",
          "type": "bool"
        }
      ],
      "stateMutability": "view",
      "type": "function"
    },
    {
      "inputs": [
        {
          "internalType": "address",
          "name": "_user",
          "type": "address"
        },
        {
          "internalType": "uint256",
          "name": "_price",
          "type": "uint256"
        }
      ],
      "name": "increaseBidRate",
      "outputs": [],
      "stateMutability": "nonpayable",
      "type": "function"
    },
    {
      "inputs": [
        {
          "internalType": "address",
          "name": "",
          "type": "address"
        }
      ],
      "name": "isAllowed",
      "outputs": [
        {
          "internalType": "bool",
          "name": "",
          "type": "bool"
        }
      ],
      "stateMutability": "view",
      "type": "function"
    },
    {
      "inputs": [
        {
          "internalType": "address",
          "name": "",
          "type": "address"
        }
      ],
      "name": "isForeclosed",
      "outputs": [
        {
          "internalType": "bool",
          "name": "",
          "type": "bool"
        }
      ],
      "stateMutability": "view",
      "type": "function"
    },
    {
      "inputs": [],
      "name": "leaderboard",
      "outputs": [
        {
          "internalType": "contract IRCLeaderboard",
          "name": "",
          "type": "address"
        }
      ],
      "stateMutability": "view",
      "type": "function"
    },
    {
      "inputs": [
        {
          "internalType": "address",
          "name": "",
          "type": "address"
        }
      ],
      "name": "lockMarketPaused",
      "outputs": [
        {
          "internalType": "bool",
          "name": "",
          "type": "bool"
        }
      ],
      "stateMutability": "view",
      "type": "function"
    },
    {
      "inputs": [],
      "name": "marketBalance",
      "outputs": [
        {
          "internalType": "uint256",
          "name": "",
          "type": "uint256"
        }
      ],
      "stateMutability": "view",
      "type": "function"
    },
    {
      "inputs": [],
      "name": "marketBalanceTopup",
      "outputs": [
        {
          "internalType": "uint256",
          "name": "",
          "type": "uint256"
        }
      ],
      "stateMutability": "view",
      "type": "function"
    },
    {
      "inputs": [
        {
          "internalType": "address",
          "name": "",
          "type": "address"
        }
      ],
      "name": "marketPaused",
      "outputs": [
        {
          "internalType": "bool",
          "name": "",
          "type": "bool"
        }
      ],
      "stateMutability": "view",
      "type": "function"
    },
    {
      "inputs": [
        {
          "internalType": "address",
          "name": "",
          "type": "address"
        }
      ],
      "name": "marketPot",
      "outputs": [
        {
          "internalType": "uint256",
          "name": "",
          "type": "uint256"
        }
      ],
      "stateMutability": "view",
      "type": "function"
    },
    {
      "inputs": [
        {
          "internalType": "address",
          "name": "",
          "type": "address"
        }
      ],
      "name": "marketWhitelist",
      "outputs": [
        {
          "internalType": "bytes32",
          "name": "",
          "type": "bytes32"
        }
      ],
      "stateMutability": "view",
      "type": "function"
    },
    {
      "inputs": [
        {
          "internalType": "address",
          "name": "_user",
          "type": "address"
        }
      ],
      "name": "marketWhitelistCheck",
      "outputs": [
        {
          "internalType": "bool",
          "name": "",
          "type": "bool"
        }
      ],
      "stateMutability": "view",
      "type": "function"
    },
    {
      "inputs": [],
      "name": "maxContractBalance",
      "outputs": [
        {
          "internalType": "uint256",
          "name": "",
          "type": "uint256"
        }
      ],
      "stateMutability": "view",
      "type": "function"
    },
    {
      "inputs": [],
      "name": "minRentalDayDivisor",
      "outputs": [
        {
          "internalType": "uint256",
          "name": "",
          "type": "uint256"
        }
      ],
      "stateMutability": "view",
      "type": "function"
    },
    {
      "inputs": [],
      "name": "orderbook",
      "outputs": [
        {
          "internalType": "contract IRCOrderbook",
          "name": "",
          "type": "address"
        }
      ],
      "stateMutability": "view",
      "type": "function"
    },
    {
      "inputs": [
        {
          "internalType": "uint256",
          "name": "_amount",
          "type": "uint256"
        }
      ],
      "name": "payRent",
      "outputs": [
        {
          "internalType": "uint256",
          "name": "",
          "type": "uint256"
        }
      ],
      "stateMutability": "nonpayable",
      "type": "function"
    },
    {
      "inputs": [
        {
          "internalType": "address",
          "name": "_user",
          "type": "address"
        },
        {
          "internalType": "uint256",
          "name": "_amount",
          "type": "uint256"
        }
      ],
      "name": "payout",
      "outputs": [
        {
          "internalType": "bool",
          "name": "",
          "type": "bool"
        }
      ],
      "stateMutability": "nonpayable",
      "type": "function"
    },
    {
      "inputs": [
        {
          "internalType": "address",
          "name": "_user",
          "type": "address"
        },
        {
          "internalType": "uint256",
          "name": "_refund",
          "type": "uint256"
        }
      ],
      "name": "refundUser",
      "outputs": [],
      "stateMutability": "nonpayable",
      "type": "function"
    },
    {
      "inputs": [
        {
          "internalType": "bytes32",
          "name": "role",
          "type": "bytes32"
        },
        {
          "internalType": "address",
          "name": "account",
          "type": "address"
        }
      ],
      "name": "renounceRole",
      "outputs": [],
      "stateMutability": "nonpayable",
      "type": "function"
    },
    {
      "inputs": [
        {
          "internalType": "string",
          "name": "role",
          "type": "string"
        },
        {
          "internalType": "address",
          "name": "account",
          "type": "address"
        }
      ],
      "name": "revokeRole",
      "outputs": [],
      "stateMutability": "nonpayable",
      "type": "function"
    },
    {
      "inputs": [
        {
          "internalType": "bytes32",
          "name": "role",
          "type": "bytes32"
        },
        {
          "internalType": "address",
          "name": "account",
          "type": "address"
        }
      ],
      "name": "revokeRole",
      "outputs": [],
      "stateMutability": "nonpayable",
      "type": "function"
    },
    {
      "inputs": [
        {
          "internalType": "address",
          "name": "_newBridge",
          "type": "address"
        }
      ],
      "name": "setBridgeAddress",
      "outputs": [],
      "stateMutability": "nonpayable",
      "type": "function"
    },
    {
      "inputs": [
        {
          "internalType": "address",
          "name": "_newFactory",
          "type": "address"
        }
      ],
      "name": "setFactoryAddress",
      "outputs": [],
      "stateMutability": "nonpayable",
      "type": "function"
    },
    {
      "inputs": [
        {
          "internalType": "address",
          "name": "_newLeaderboard",
          "type": "address"
        }
      ],
      "name": "setLeaderboardAddress",
      "outputs": [],
      "stateMutability": "nonpayable",
      "type": "function"
    },
    {
      "inputs": [
        {
          "internalType": "uint256",
          "name": "_newBalanceLimit",
          "type": "uint256"
        }
      ],
      "name": "setMaxContractBalance",
      "outputs": [],
      "stateMutability": "nonpayable",
      "type": "function"
    },
    {
      "inputs": [
        {
          "internalType": "uint256",
          "name": "_newDivisor",
          "type": "uint256"
        }
      ],
      "name": "setMinRental",
      "outputs": [],
      "stateMutability": "nonpayable",
      "type": "function"
    },
    {
      "inputs": [
        {
          "internalType": "address",
          "name": "_newOrderbook",
          "type": "address"
        }
      ],
      "name": "setOrderbookAddress",
      "outputs": [],
      "stateMutability": "nonpayable",
      "type": "function"
    },
    {
      "inputs": [
        {
          "internalType": "address",
          "name": "_newToken",
          "type": "address"
        }
      ],
      "name": "setTokenAddress",
      "outputs": [],
      "stateMutability": "nonpayable",
      "type": "function"
    },
    {
      "inputs": [
        {
          "internalType": "address",
          "name": "_sponsor",
          "type": "address"
        },
        {
          "internalType": "uint256",
          "name": "_amount",
          "type": "uint256"
        }
      ],
      "name": "sponsor",
      "outputs": [],
      "stateMutability": "nonpayable",
      "type": "function"
    },
    {
      "inputs": [
        {
          "internalType": "bytes4",
          "name": "interfaceId",
          "type": "bytes4"
        }
      ],
      "name": "supportsInterface",
      "outputs": [
        {
          "internalType": "bool",
          "name": "",
          "type": "bool"
        }
      ],
      "stateMutability": "view",
      "type": "function"
    },
    {
      "inputs": [],
      "name": "toggleWhitelist",
      "outputs": [],
      "stateMutability": "nonpayable",
      "type": "function"
    },
    {
      "inputs": [
        {
          "internalType": "uint256",
          "name": "_amount",
          "type": "uint256"
        }
      ],
      "name": "topupMarketBalance",
      "outputs": [],
      "stateMutability": "nonpayable",
      "type": "function"
    },
    {
      "inputs": [],
      "name": "totalDeposits",
      "outputs": [
        {
          "internalType": "uint256",
          "name": "",
          "type": "uint256"
        }
      ],
      "stateMutability": "view",
      "type": "function"
    },
    {
      "inputs": [],
      "name": "totalMarketPots",
      "outputs": [
        {
          "internalType": "uint256",
          "name": "",
          "type": "uint256"
        }
      ],
      "stateMutability": "view",
      "type": "function"
    },
    {
      "inputs": [
        {
          "internalType": "address",
          "name": "_market",
          "type": "address"
        }
      ],
      "name": "unPauseMarket",
      "outputs": [],
      "stateMutability": "nonpayable",
      "type": "function"
    },
    {
      "inputs": [
        {
          "internalType": "address",
          "name": "_user",
          "type": "address"
        }
      ],
      "name": "updateLastRentalTime",
      "outputs": [],
      "stateMutability": "nonpayable",
      "type": "function"
    },
    {
      "inputs": [
        {
          "internalType": "address",
          "name": "_oldOwner",
          "type": "address"
        },
        {
          "internalType": "address",
          "name": "_newOwner",
          "type": "address"
        },
        {
          "internalType": "uint256",
          "name": "_oldPrice",
          "type": "uint256"
        },
        {
          "internalType": "uint256",
          "name": "_newPrice",
          "type": "uint256"
        },
        {
          "internalType": "uint256",
          "name": "_timeOwnershipChanged",
          "type": "uint256"
        }
      ],
      "name": "updateRentalRate",
      "outputs": [],
      "stateMutability": "nonpayable",
      "type": "function"
    },
    {
      "inputs": [
        {
          "internalType": "address",
          "name": "",
          "type": "address"
        }
      ],
      "name": "user",
      "outputs": [
        {
          "internalType": "uint128",
          "name": "deposit",
          "type": "uint128"
        },
        {
          "internalType": "uint128",
          "name": "rentalRate",
          "type": "uint128"
        },
        {
          "internalType": "uint128",
          "name": "bidRate",
          "type": "uint128"
        },
        {
          "internalType": "uint64",
          "name": "lastRentCalc",
          "type": "uint64"
        },
        {
          "internalType": "uint64",
          "name": "lastRentalTime",
          "type": "uint64"
        }
      ],
      "stateMutability": "view",
      "type": "function"
    },
    {
      "inputs": [
        {
          "internalType": "address",
          "name": "_user",
          "type": "address"
        }
      ],
      "name": "userDeposit",
      "outputs": [
        {
          "internalType": "uint256",
          "name": "",
          "type": "uint256"
        }
      ],
      "stateMutability": "view",
      "type": "function"
    },
    {
      "inputs": [
        {
          "internalType": "address",
          "name": "_user",
          "type": "address"
        }
      ],
      "name": "userTotalBids",
      "outputs": [
        {
          "internalType": "uint256",
          "name": "",
          "type": "uint256"
        }
      ],
      "stateMutability": "view",
      "type": "function"
    },
    {
      "inputs": [],
      "name": "whitelistEnabled",
      "outputs": [
        {
          "internalType": "bool",
          "name": "",
          "type": "bool"
        }
      ],
      "stateMutability": "view",
      "type": "function"
    },
    {
      "inputs": [
        {
          "internalType": "uint256",
          "name": "_amount",
          "type": "uint256"
        },
        {
          "internalType": "bool",
          "name": "_localWithdrawal",
          "type": "bool"
        }
      ],
      "name": "withdrawDeposit",
      "outputs": [],
      "stateMutability": "nonpayable",
      "type": "function"
    }
  ],
  "bytecode": "0x60806040523480156200001157600080fd5b5060405162005b5638038062005b56833981016040819052620000349162000a04565b620000946040518060400160405280601481526020017f5265616c69747943617264735472656173757279000000000000000000000000815250604051806040016040528060018152602001603160f81b8152506200039e60201b60201c565b620000a160003362000498565b620000bc60008051602062005a678339815191523362000498565b620000d760008051602062005af68339815191523362000498565b620000f260008051602062005b168339815191523362000498565b6200011e7f0af0c3ebe77999ca20698e1ff25f812bf82409a59d21ca15a41f39e0ce9f25003362000498565b6200013960008051602062005b368339815191523062000498565b6200015460008051602062005a6783398151915280620004a8565b6200017e60008051602062005af683398151915260008051602062005a67833981519152620004a8565b620001a860008051602062005ad683398151915260008051602062005a67833981519152620004a8565b620001e37ffd4feb1bffe856ecab4919d7fde3e54d37812cf1161f31157b5f46ca821b7e0060008051602062005a67833981519152620004a8565b6200020d60008051602062005b3683398151915260008051602062005a67833981519152620004a8565b6200023760008051602062005b1683398151915260008051602062005af6833981519152620004a8565b620002727f0af0c3ebe77999ca20698e1ff25f812bf82409a59d21ca15a41f39e0ce9f250060008051602062005b16833981519152620004a8565b620002ad7f6bdd6eec7bc953f67e3ae90ab8ab4bd466543d6dbd19cb8d62eed396b8427a0560008051602062005b16833981519152620004a8565b620002e87ffdf5cf7b97a3a158dc25b3f02458feb3a6f48426bf701a6ae2403d3dff43cf0d60008051602062005b16833981519152620004a8565b620003237fb753fbb77d4c8d14c4c381bdfbc2eb6d1410547edecc58d3f703e69b0bb805ec60008051602062005b16833981519152620004a8565b6200035e7f23acc66832ff38a7ce3c1caf89922410f4374ba8fd897ffa98f088747997bc6d60008051602062005ad6833981519152620004a8565b6200036a6090620004f3565b6200037f69d3c21bcecceda100000062000515565b6200038a8162000537565b506016805460ff1916600117905562000be6565b600154610100900460ff1680620003b8575060015460ff16155b620004215760405162461bcd60e51b815260206004820152602e60248201527f496e697469616c697a61626c653a20636f6e747261637420697320616c72656160448201526d191e481a5b9a5d1a585b1a5e995960921b60648201526084015b60405180910390fd5b600154610100900460ff1615801562000444576001805461ffff19166101011790555b4660035582516200045d9060049060208601906200095e565b508151620004739060059060208501906200095e565b50620004808383620005d2565b801562000493576001805461ff00191690555b505050565b620004a4828262000663565b5050565b600082815260208190526040808220600101805490849055905190918391839186917fbd79b86ffe0ab8e8776151514217cd7cacd52c909f66475c3af44e129f0b00ff9190a4505050565b60008051602062005af68339815191526200050f813362000703565b50601355565b60008051602062005af683398151915262000531813362000703565b50601455565b60008051602062005a6783398151915262000553813362000703565b6001600160a01b038216620005ab5760405162461bcd60e51b815260206004820152601360248201527f4d7573742073657420616e206164647265737300000000000000000000000000604482015260640162000418565b50600980546001600160a01b0319166001600160a01b0392909216919091179055565b4690565b6040518060800160405280604f815260200162005a87604f913980519060200120828051906020012082805190602001203062000614620005ce60201b60201c565b60408051602081019690965285019390935260608401919091526001600160a01b0316608083015260a082015260c00160408051601f1981840301815291905280516020909101206002555050565b6000828152602081815260408083206001600160a01b038516845290915290205460ff16620004a4576000828152602081815260408083206001600160a01b03851684529091529020805460ff19166001179055620006bf3390565b6001600160a01b0316816001600160a01b0316837f2f8788117e7eff1d82e926ec794901d17c78024a50270940304540a733656f0d60405160405180910390a45050565b6000828152602081815260408083206001600160a01b038516845290915290205460ff16620004a4576200074d816001600160a01b031660146200079e60201b62003b871760201c565b6200076383602062003b876200079e821b17811c565b6040516020016200077692919062000a2f565b60408051601f198184030181529082905262461bcd60e51b8252620004189160040162000aa8565b60606000620007af83600262000af8565b620007bc90600262000add565b6001600160401b03811115620007d657620007d662000bd0565b6040519080825280601f01601f19166020018201604052801562000801576020820181803683370190505b509050600360fc1b816000815181106200081f576200081f62000bba565b60200101906001600160f81b031916908160001a905350600f60fb1b8160018151811062000851576200085162000bba565b60200101906001600160f81b031916908160001a90535060006200087784600262000af8565b6200088490600162000add565b90505b600181111562000906576f181899199a1a9b1b9c1cb0b131b232b360811b85600f1660108110620008bc57620008bc62000bba565b1a60f81b828281518110620008d557620008d562000bba565b60200101906001600160f81b031916908160001a90535060049490941c93620008fe8162000b4d565b905062000887565b508315620009575760405162461bcd60e51b815260206004820181905260248201527f537472696e67733a20686578206c656e67746820696e73756666696369656e74604482015260640162000418565b9392505050565b8280546200096c9062000b67565b90600052602060002090601f016020900481019282620009905760008555620009db565b82601f10620009ab57805160ff1916838001178555620009db565b82800160010185558215620009db579182015b82811115620009db578251825591602001919060010190620009be565b50620009e9929150620009ed565b5090565b5b80821115620009e95760008155600101620009ee565b60006020828403121562000a1757600080fd5b81516001600160a01b03811681146200095757600080fd5b7f416363657373436f6e74726f6c3a206163636f756e742000000000000000000081526000835162000a6981601785016020880162000b1a565b7001034b99036b4b9b9b4b733903937b6329607d1b601791840191820152835162000a9c81602884016020880162000b1a565b01602801949350505050565b602081526000825180602084015262000ac981604085016020870162000b1a565b601f01601f19169190910160400192915050565b6000821982111562000af35762000af362000ba4565b500190565b600081600019048311821515161562000b155762000b1562000ba4565b500290565b60005b8381101562000b3757818101518382015260200162000b1d565b8381111562000b47576000848401525b50505050565b60008162000b5f5762000b5f62000ba4565b506000190190565b600181811c9082168062000b7c57607f821691505b6020821081141562000b9e57634e487b7160e01b600052602260045260246000fd5b50919050565b634e487b7160e01b600052601160045260246000fd5b634e487b7160e01b600052603260045260246000fd5b634e487b7160e01b600052604160045260246000fd5b614e718062000bf66000396000f3fe6080604052600436106104525760003560e01c806383c17c551161023f578063c18b1d5e11610139578063eaae3cb6116100b6578063f46f16c21161007a578063f46f16c214610eb8578063fa8cb9af14610eda578063fca02c2114610efc578063fd2a97fd14610f12578063fe8f9dc214610f3257600080fd5b8063eaae3cb614610e1e578063eb358a2014610e3e578063eb56b74014610e5e578063eea758f114610e7e578063f12d54d814610e9e57600080fd5b8063d547741f116100fd578063d547741f14610d71578063d742d39a14610d91578063d9e8843f14610dbe578063e7d8e97f14610dde578063e9308f3a14610dfe57600080fd5b8063c18b1d5e14610cb2578063c19ae2ed14610cd2578063c45a015514610cf2578063d1260edd14610d12578063d3261de214610d5157600080fd5b8063a217fddf116101c7578063a97b89ec1161018b578063a97b89ec14610bcc578063acf4094a14610bec578063b165d0f214610c20578063b5adce3f14610c62578063babcc53914610c8257600080fd5b8063a217fddf14610b27578063a3c573eb14610b3c578063a4a5734f14610b5c578063a62afed514610b7c578063a638980c14610bac57600080fd5b806391d148541161020e57806391d1485414610a915780639223d2df14610ab157806394937a4814610ac757806399bfbf1d14610ae75780639c402b2314610b0757600080fd5b806383c17c5514610a1157806384c7ffe514610a315780638c995e4414610a515780638fdf560d14610a7157600080fd5b80633408e470116103505780636dc0ae22116102d85780637d8820971161029c5780637d882097146108e75780637e15144b146108fd5780637f5a22f91461091257806381e7e20e1461093257806382817eda146109dd57600080fd5b80636dc0ae221461082b5780636e553f651461084d578063731f21a01461086d57806378200a1e1461088d578063785e9e86146108af57600080fd5b80633f4bf03c1161031f5780633f4bf03c1461079b5780634a807724146107bb57806351fb012d146107db5780635cc77dd3146107f557806365fcb49e1461081557600080fd5b80633408e4701461073d57806336568abe14610750578063368deb7e14610770578063372f4d141461078657600080fd5b80631bb7cc99116103de57806326a4e8d2116103a257806326a4e8d2146106715780632d0335ab146106915780632d2c5565146106c75780632dd31000146106fb5780632f2ff15d1461071d57600080fd5b80631bb7cc99146105d35780631f8864e6146105f557806320379ee51461060c57806320cba08514610621578063248a9ca31461064157600080fd5b8063117803e311610425578063117803e31461051e578063117de2fd1461054057806318f9de55146105605780631908a2ee146105765780631aa14e7e146105a357600080fd5b80630149d3141461045757806301ffc9a71461049c57806309c59056146104bc5780630c53c51c146104fe575b600080fd5b34801561046357600080fd5b5061048761047236600461458d565b60106020526000908152604090205460ff1681565b60405190151581526020015b60405180910390f35b3480156104a857600080fd5b506104876104b73660046147ff565b610f52565b3480156104c857600080fd5b506104f07ffdf5cf7b97a3a158dc25b3f02458feb3a6f48426bf701a6ae2403d3dff43cf0d81565b604051908152602001610493565b61051161050c36600461462c565b610f89565b6040516104939190614a84565b34801561052a57600080fd5b506104f0600080516020614d9c83398151915281565b34801561054c57600080fd5b5061048761055b3660046146bb565b611178565b34801561056c57600080fd5b506104f060115481565b34801561058257600080fd5b506104f061059136600461458d565b60176020526000908152604090205481565b3480156105af57600080fd5b506104876105be36600461458d565b60196020526000908152604090205460ff1681565b3480156105df57600080fd5b506104f0600080516020614e1c83398151915281565b34801561060157600080fd5b5061060a6113a2565b005b34801561061857600080fd5b506104f0611409565b34801561062d57600080fd5b5061060a61063c3660046147ba565b6114c3565b34801561064d57600080fd5b506104f061065c3660046147ba565b60009081526020819052604090206001015490565b34801561067d57600080fd5b5061060a61068c36600461458d565b6115cb565b34801561069d57600080fd5b506104f06106ac36600461458d565b6001600160a01b031660009081526006602052604090205490565b3480156106d357600080fd5b506104f07f06aa03964db1f7257357ef09714a5f0ca3633723df419e97015e0c7a3e83edb781565b34801561070757600080fd5b506104f0600080516020614d7c83398151915281565b34801561072957600080fd5b5061060a6107383660046147d3565b61162d565b34801561074957600080fd5b50466104f0565b34801561075c57600080fd5b5061060a61076b3660046147d3565b611694565b34801561077c57600080fd5b506104f0600e5481565b34801561079257600080fd5b5061060a61170e565b3480156107a757600080fd5b5061060a6107b63660046147ba565b6117bd565b3480156107c757600080fd5b506104f06107d63660046146e5565b6117dc565b3480156107e757600080fd5b506016546104879060ff1681565b34801561080157600080fd5b506104876108103660046147d3565b611aa0565b34801561082157600080fd5b506104f060145481565b34801561083757600080fd5b506104f0600080516020614dfc83398151915281565b34801561085957600080fd5b506104876108683660046147d3565b611aac565b34801561087957600080fd5b5061060a610888366004614829565b611e9c565b34801561089957600080fd5b506104f0600080516020614d5c83398151915281565b3480156108bb57600080fd5b506009546108cf906001600160a01b031681565b6040516001600160a01b039091168152602001610493565b3480156108f357600080fd5b506104f0600c5481565b34801561090957600080fd5b5061060a611ed6565b34801561091e57600080fd5b5061060a61092d36600461458d565b611f04565b34801561093e57600080fd5b5061099961094d36600461458d565b601260205260009081526040902080546001909101546001600160801b0380831692600160801b90819004821692918216916001600160401b03918104821691600160c01b9091041685565b604080516001600160801b039687168152948616602086015292909416918301919091526001600160401b039081166060830152909116608082015260a001610493565b3480156109e957600080fd5b506104f07fb753fbb77d4c8d14c4c381bdfbc2eb6d1410547edecc58d3f703e69b0bb805ec81565b348015610a1d57600080fd5b5061060a610a2c36600461458d565b611fe1565b348015610a3d57600080fd5b5061060a610a4c36600461458d565b612110565b348015610a5d57600080fd5b5061060a610a6c3660046146bb565b612209565b348015610a7d57600080fd5b5061060a610a8c3660046147ba565b6124c7565b348015610a9d57600080fd5b50610487610aac3660046147d3565b6124e6565b348015610abd57600080fd5b506104f060135481565b348015610ad357600080fd5b5061060a610ae236600461458d565b61250f565b348015610af357600080fd5b5061060a610b023660046146bb565b612610565b348015610b1357600080fd5b5061060a610b223660046146bb565b61268f565b348015610b3357600080fd5b506104f0600081565b348015610b4857600080fd5b50600a546108cf906001600160a01b031681565b348015610b6857600080fd5b506104f0610b773660046146bb565b61281b565b348015610b8857600080fd5b50610487610b9736600461458d565b601a6020526000908152604090205460ff1681565b348015610bb857600080fd5b5061060a610bc73660046145f5565b612b67565b348015610bd857600080fd5b5061060a610be73660046145f5565b612c55565b348015610bf857600080fd5b506104f07f6bdd6eec7bc953f67e3ae90ab8ab4bd466543d6dbd19cb8d62eed396b8427a0581565b348015610c2c57600080fd5b506104f0610c3b36600461458d565b6001600160a01b03166000908152601260205260409020600101546001600160801b031690565b348015610c6e57600080fd5b5061060a610c7d366004614718565b612d50565b348015610c8e57600080fd5b50610487610c9d36600461458d565b60156020526000908152604090205460ff1681565b348015610cbe57600080fd5b506007546108cf906001600160a01b031681565b348015610cde57600080fd5b5061060a610ced366004614829565b612e29565b348015610cfe57600080fd5b50600b546108cf906001600160a01b031681565b348015610d1e57600080fd5b506104f0610d2d36600461458d565b6001600160a01b03166000908152601260205260409020546001600160801b031690565b348015610d5d57600080fd5b5061060a610d6c36600461458d565b612e5e565b348015610d7d57600080fd5b5061060a610d8c3660046147d3565b612f91565b348015610d9d57600080fd5b506104f0610dac36600461458d565b600d6020526000908152604090205481565b348015610dca57600080fd5b506104f0610dd93660046147ba565b612ff4565b348015610dea57600080fd5b5061060a610df936600461489a565b6131d1565b348015610e0a57600080fd5b5061060a610e1936600461458d565b613629565b348015610e2a57600080fd5b50610487610e3936600461458d565b6136b1565b348015610e4a57600080fd5b5061060a610e5936600461458d565b6136f4565b348015610e6a57600080fd5b506008546108cf906001600160a01b031681565b348015610e8a57600080fd5b5061060a610e993660046146bb565b6137b0565b348015610eaa57600080fd5b506018546104879060ff1681565b348015610ec457600080fd5b506104f0600080516020614dbc83398151915281565b348015610ee657600080fd5b506104f0600080516020614caa83398151915281565b348015610f0857600080fd5b506104f0600f5481565b348015610f1e57600080fd5b5061060a610f2d3660046146bb565b61388e565b348015610f3e57600080fd5b5061060a610f4d3660046145a8565b6138e4565b60006001600160e01b03198216637965db0b60e01b1480610f8357506301ffc9a760e01b6001600160e01b03198316145b92915050565b60408051606081810183526001600160a01b03881660008181526006602090815290859020548452830152918101869052610fc78782878787613d22565b6110225760405162461bcd60e51b815260206004820152602160248201527f5369676e657220616e64207369676e617475726520646f206e6f74206d6174636044820152600d60fb1b60648201526084015b60405180910390fd5b6001600160a01b038716600090815260066020526040902054611046906001614b1e565b6001600160a01b0388166000908152600660205260409081902091909155517f5845892132946850460bff5a0083f71031bc5bf9aadcd40f1de79423eac9b10b9061109690899033908a90614a4f565b60405180910390a1600080306001600160a01b0316888a6040516020016110be929190614907565b60408051601f19818403018152908290526110d8916148eb565b6000604051808303816000865af19150503d8060008114611115576040519150601f19603f3d011682016040523d82523d6000602084013e61111a565b606091505b50915091508161116c5760405162461bcd60e51b815260206004820152601c60248201527f46756e6374696f6e2063616c6c206e6f74207375636365737366756c000000006044820152606401611019565b98975050505050505050565b6000600080516020614dbc8339815191526111938133613e12565b60185460ff16156111dd5760405162461bcd60e51b815260206004820152601460248201527314185e5bdd5d1cc8185c9948191a5cd8589b195960621b6044820152606401611019565b6111e683613e76565b6001600160a01b038516600090815260126020526040812080549091906112179084906001600160801b0316614af3565b92506101000a8154816001600160801b0302191690836001600160801b0316021790555082600d6000611248613ee3565b6001600160a01b03166001600160a01b0316815260200190815260200160002060008282546112779190614bce565b9250508190555082600e60008282546112909190614bce565b9250508190555082600c60008282546112a99190614b1e565b909155506112b8905084612110565b6040516001815283906001600160a01b03861690600080516020614ddc8339815191529060200160405180910390a36001915050600e54600f54600c546112ff9190614b1e565b6113099190614b1e565b6009546040516370a0823160e01b81523060048201526001600160a01b03909116906370a082319060240160206040518083038186803b15801561134c57600080fd5b505afa158015611360573d6000803e3d6000fd5b505050506040513d601f19601f820116820180604052508101906113849190614881565b1015610f835760405162461bcd60e51b815260040161101990614ac4565b600080516020614d9c8339815191526113bb8133613e12565b6018805460ff8082161560ff1990921682179092556040519116151581527f75da7ed2bd786eeb9acb916c57ea4388550d4514b18294a69e9acb99a58445939060200160405180910390a150565b60006003546114154690565b1415611422575060025490565b6040518060800160405280604f8152602001614d0d604f9139805190602001206004604051611451919061493e565b60405180910390206005604051611468919061493e565b6040518091039020306114784690565b60408051602081019690965285019390935260608401919091526001600160a01b0316608083015260a082015260c00160405160208183030381529060405280519060200120905090565b6114e26114ce613ee3565b6009546001600160a01b0316903084613eff565b80601160008282546114f49190614b1e565b9250508190555080600f600082825461150d9190614b1e565b9091555050600e54600f54600c546115259190614b1e565b61152f9190614b1e565b6009546040516370a0823160e01b81523060048201526001600160a01b03909116906370a082319060240160206040518083038186803b15801561157257600080fd5b505afa158015611586573d6000803e3d6000fd5b505050506040513d601f19601f820116820180604052508101906115aa9190614881565b10156115c85760405162461bcd60e51b815260040161101990614ac4565b50565b600080516020614caa8339815191526115e48133613e12565b6001600160a01b03821661160a5760405162461bcd60e51b815260040161101990614a97565b50600980546001600160a01b0319166001600160a01b0392909216919091179055565b600080516020614e1c83398151915282141561168657604080516001600160a01b0383168152600160208201527fc19fedbfe022fc4cd2975fde0ce3851f2af95d8eff6b681ec49262bd79a466e0910160405180910390a15b6116908282613f6a565b5050565b6001600160a01b03811633146117045760405162461bcd60e51b815260206004820152602f60248201527f416363657373436f6e74726f6c3a2063616e206f6e6c792072656e6f756e636560448201526e103937b632b9903337b91039b2b63360891b6064820152608401611019565b6116908282613f90565b600080516020614caa8339815191526117278133613e12565b6009546040516370a0823160e01b81523060048201526000916001600160a01b0316906370a082319060240160206040518083038186803b15801561176b57600080fd5b505afa15801561177f573d6000803e3d6000fd5b505050506040513d601f19601f820116820180604052508101906117a39190614881565b600954909150611690906001600160a01b03163383613ff5565b600080516020614d9c8339815191526117d68133613e12565b50601455565b6001600160a01b038316600090815260126020526040812054600160801b90046001600160801b03168015611a37576001600160a01b038516600090815260126020526040812054829061183c906001600160801b031662015180614b58565b6001600160801b031661184f9190614b36565b6001600160a01b0387166000908152601260205260408120600101549192509061188a908390600160801b90046001600160401b0316614b1e565b9050848111801561189a57508415155b156119f6576001600160a01b0387166000908152601260205260408120600101546118d690600160801b90046001600160401b03168786614025565b6001600160a01b03891660009081526012602052604081206001015491925090600160801b90046001600160401b0316871115611941576001600160a01b03891660009081526012602052604090205461193a9083906001600160801b0316614bce565b9050611971565b6001600160a01b03891660009081526012602052604090205461196e9083906001600160801b0316614b1e565b90505b600061197d8987614b1e565b61198a8362015180614b87565b6119949190614b36565b905060006119a2828a614b1e565b6001600160a01b038c16600090815260126020526040902060010154909150600160801b90046001600160401b03168111156119e6579650611a9995505050505050565b6000975050505050505050611a99565b6001600160a01b038716600090815260126020526040902060010154611a2d908390600160801b90046001600160401b0316614b1e565b9350505050611a99565b83611a4757600019915050611a99565b6001600160a01b0385166000908152601260205260409020548490611a78906001600160801b031662015180614b58565b6001600160801b0316611a8b9190614b36565b611a959084614b1e565b9150505b9392505050565b6000611a9983836124e6565b60185460009060ff1615611afa5760405162461bcd60e51b815260206004820152601560248201527411195c1bdcda5d1cc8185c9948191a5cd8589b1959605a1b6044820152606401611019565b60095483906001600160a01b031663dd62ed3e611b15613ee3565b6040516001600160e01b031960e084901b1681526001600160a01b03909116600482015230602482015260440160206040518083038186803b158015611b5a57600080fd5b505afa158015611b6e573d6000803e3d6000fd5b505050506040513d601f19601f82011682018060405250810190611b929190614881565b1015611bee5760405162461bcd60e51b815260206004820152602560248201527f55736572206e6f7420617070726f76656420746f2073656e64207468697320616044820152641b5bdd5b9d60da1b6064820152608401611019565b6014546009546040516370a0823160e01b815230600482015285916001600160a01b0316906370a082319060240160206040518083038186803b158015611c3457600080fd5b505afa158015611c48573d6000803e3d6000fd5b505050506040513d601f19601f82011682018060405250810190611c6c9190614881565b611c769190614b1e565b1115611cb05760405162461bcd60e51b8152602060048201526009602482015268131a5b5a5d081a1a5d60ba1b6044820152606401611019565b60008311611cf95760405162461bcd60e51b81526020600482015260166024820152754d757374206465706f73697420736f6d657468696e6760501b6044820152606401611019565b60165460ff1615611d5b57611d1c600080516020614e1c833981519152836124e6565b611d5b5760405162461bcd60e51b815260206004820152601060248201526f139bdd081a5b881dda1a5d195b1a5cdd60821b6044820152606401611019565b611d7a611d66613ee3565b6009546001600160a01b0316903086613eff565b60075460405163beb724c960e01b81526001600160a01b0384811660048301529091169063beb724c990602401600060405180830381600087803b158015611dc157600080fd5b505af1158015611dd5573d6000803e3d6000fd5b50505050611de283613e76565b6001600160a01b03831660009081526012602052604081208054909190611e139084906001600160801b0316614af3565b92506101000a8154816001600160801b0302191690836001600160801b0316021790555082600c6000828254611e499190614b1e565b90915550506040516001815283906001600160a01b03841690600080516020614ddc8339815191529060200160405180910390a3611e8682612110565b506001600e54600f54600c546112ff9190614b1e565b600082604051602001611eaf91906148eb565b604051602081830303815290604052805190602001209050611ed18183612f91565b505050565b600080516020614d9c833981519152611eef8133613e12565b506016805460ff19811660ff90911615179055565b600080516020614caa833981519152611f1d8133613e12565b6001600160a01b038216611f435760405162461bcd60e51b815260040161101990614a97565b600a80546001600160a01b0319166001600160a01b0384811691821790925560095460405163095ea7b360e01b8152600481019290925260001960248301529091169063095ea7b390604401602060405180830381600087803b158015611fa957600080fd5b505af1158015611fbd573d6000803e3d6000fd5b505050506040513d601f19601f82011682018060405250810190611ed1919061479d565b600080516020614caa833981519152611ffa8133613e12565b6001600160a01b0382166120205760405162461bcd60e51b815260040161101990614a97565b600b5461204590600080516020614d7c833981519152906001600160a01b0316612f91565b600b5461206a90600080516020614d9c833981519152906001600160a01b0316612f91565b600b5461208f90600080516020614dfc833981519152906001600160a01b0316612f91565b600b80546001600160a01b0319166001600160a01b0384169081179091556120c690600080516020614d7c8339815191529061162d565b600b546120eb90600080516020614d9c833981519152906001600160a01b031661162d565b600b5461169090600080516020614dfc833981519152906001600160a01b031661162d565b6013546001600160a01b03821660009081526012602052604090206001015461214291906001600160801b0316614b36565b6001600160a01b0382166000908152601260205260409020546001600160801b031611156121b7576001600160a01b038116600081815260106020526040808220805460ff19169055519091907f5ad1503f288ebdbcbd9d9236e4660edde8dd4fe9dd79ec1965d81ac8f5414d55908390a350565b6001600160a01b038116600081815260106020526040808220805460ff1916600190811790915590519092917f5ad1503f288ebdbcbd9d9236e4660edde8dd4fe9dd79ec1965d81ac8f5414d5591a350565b600080516020614dbc8339815191526122228133613e12565b60185460ff16156122755760405162461bcd60e51b815260206004820152601760248201527f476c6f62616c20506175736520697320456e61626c65640000000000000000006044820152606401611019565b600061227f613ee3565b6001600160a01b0381166000908152601a602052604090205490915060ff16156122de5760405162461bcd60e51b815260206004820152601060248201526f13585c9ad95d081a5cc81c185d5cd95960821b6044820152606401611019565b600954604051636eb1769f60e11b81526001600160a01b0386811660048301523060248301528592169063dd62ed3e9060440160206040518083038186803b15801561232957600080fd5b505afa15801561233d573d6000803e3d6000fd5b505050506040513d601f19601f820116820180604052508101906123619190614881565b10156123af5760405162461bcd60e51b815260206004820181905260248201527f4e6f7420617070726f76656420746f2073656e64207468697320616d6f756e746044820152606401611019565b6009546123c7906001600160a01b0316853086613eff565b6001600160a01b0381166000908152600d6020526040812080548592906123ef908490614b1e565b9250508190555082600e60008282546124089190614b1e565b925050819055505050600e54600f54600c546124249190614b1e565b61242e9190614b1e565b6009546040516370a0823160e01b81523060048201526001600160a01b03909116906370a082319060240160206040518083038186803b15801561247157600080fd5b505afa158015612485573d6000803e3d6000fd5b505050506040513d601f19601f820116820180604052508101906124a99190614881565b10156116905760405162461bcd60e51b815260040161101990614ac4565b600080516020614d9c8339815191526124e08133613e12565b50601355565b6000918252602082815260408084206001600160a01b0393909316845291905290205460ff1690565b600080516020614caa8339815191526125288133613e12565b6001600160a01b03821661254e5760405162461bcd60e51b815260040161101990614a97565b60075461257390600080516020614d5c833981519152906001600160a01b0316612f91565b600780546001600160a01b0319166001600160a01b0384169081179091556125aa90600080516020614d5c8339815191529061162d565b600b546007546040516312926f4960e31b81526001600160a01b0391821660048201529116906394937a48906024015b600060405180830381600087803b1580156125f457600080fd5b505af1158015612608573d6000803e3d6000fd5b505050505050565b600080516020614d5c8339815191526126298133613e12565b61263282613e76565b6001600160a01b038416600090815260126020526040812060010180549091906126669084906001600160801b0316614af3565b92506101000a8154816001600160801b0302191690836001600160801b03160217905550505050565b600954604051636eb1769f60e11b81526001600160a01b0384811660048301523060248301528392169063dd62ed3e9060440160206040518083038186803b1580156126da57600080fd5b505afa1580156126ee573d6000803e3d6000fd5b505050506040513d601f19601f820116820180604052508101906127129190614881565b10156127595760405162461bcd60e51b8152602060048201526016602482015275496e73756666696369656e7420416c6c6f77616e636560501b6044820152606401611019565b6009546040516370a0823160e01b81526001600160a01b038481166004830152839216906370a082319060240160206040518083038186803b15801561279e57600080fd5b505afa1580156127b2573d6000803e3d6000fd5b505050506040513d601f19601f820116820180604052508101906127d69190614881565b10156116905760405162461bcd60e51b8152602060048201526014602482015273496e73756666696369656e742042616c616e636560601b6044820152606401611019565b60185460009060ff16156128715760405162461bcd60e51b815260206004820152601760248201527f476c6f62616c20706175736520697320656e61626c65640000000000000000006044820152606401611019565b816128be5760405162461bcd60e51b815260206004820152601860248201527f4d7573742073657420636f6c6c656374696f6e2074696d6500000000000000006044820152606401611019565b4282111561290e5760405162461bcd60e51b815260206004820152601960248201527f43616e277420636f6c6c656374206675747572652072656e74000000000000006044820152606401611019565b6001600160a01b038316600090815260126020526040902060010154600160801b90046001600160401b0316821115610f8357600061294d848461405d565b905060008111801561297f57506001600160a01b0384166000908152601260205260409020546001600160801b031681115b15612ad8576001600160a01b038416600090815260126020526040812060018101549054600160801b9091046001600160401b0316919083906001600160801b03166129cb8488614bce565b6129d59190614b87565b6129df9190614b36565b6001600160a01b0387166000908152601260205260409020546001600160801b031693509050612a0f8183614b1e565b9350612a1b83876140d5565b612a2484614166565b6001600160a01b03871660009081526012602052604090206001810180546001600160401b0393909316600160801b0267ffffffffffffffff60801b1990931692909217909155546001600160801b031615612a8257612a82614c43565b6001600160a01b038616600081815260106020526040808220805460ff1916600190811790915590519092917f5ad1503f288ebdbcbd9d9236e4660edde8dd4fe9dd79ec1965d81ac8f5414d5591a35050612b31565b612ae281856140d5565b612aeb83614166565b6001600160a01b038516600090815260126020526040902060010180546001600160401b0392909216600160801b0267ffffffffffffffff60801b199092169190911790555b6040516000815281906001600160a01b03861690600080516020614ddc8339815191529060200160405180910390a35092915050565b612b81600080516020614d7c833981519152610aac613ee3565b612bbe5760405162461bcd60e51b815260206004820152600e60248201526d139bdd08105d5d1a1bdc9a5cd95960921b6044820152606401611019565b6001600160a01b0382166000908152601960205260409020805460ff1916821515179055612bfa600080516020614dbc83398151915283613f6a565b6001600160a01b03821660008181526019602090815260409182902054825193845260ff161515908301527ffcddbbd515b142e6be190d2fe4eb84efa355f935b1365d70be1bc6cc0d42b84e91015b60405180910390a15050565b600080516020614d9c833981519152612c6e8133613e12565b612c86600080516020614dbc833981519152846124e6565b612cc85760405162461bcd60e51b8152602060048201526013602482015272151a1a5cc81a5cdb89dd0818481b585c9ad95d606a1b6044820152606401611019565b6001600160a01b0383166000818152601960208181526040808420805460ff199081168915159081178355601a855295839020805490911660ff9687161515179055928252915482519485529092161515918301919091527ffcddbbd515b142e6be190d2fe4eb84efa355f935b1365d70be1bc6cc0d42b84e910160405180910390a1505050565b600080516020614dfc833981519152612d698133613e12565b8115612dcb5760005b83811015612dc557612db3600080516020614e1c833981519152868684818110612d9e57612d9e614c6f565b9050602002016020810190610738919061458d565b80612dbd81614c28565b915050612d72565b50612e23565b60005b83811015612e2157612e0f600080516020614e1c833981519152868684818110612dfa57612dfa614c6f565b9050602002016020810190610d8c919061458d565b80612e1981614c28565b915050612dce565b505b50505050565b600082604051602001612e3c91906148eb565b604051602081830303815290604052805190602001209050611ed1818361162d565b600080516020614d7c833981519152612e778133613e12565b612e8f600080516020614dbc833981519152836124e6565b612ed15760405162461bcd60e51b8152602060048201526013602482015272151a1a5cc81a5cdb89dd0818481b585c9ad95d606a1b6044820152606401611019565b6001600160a01b0382166000908152601a602052604090205460ff1615612f3a5760405162461bcd60e51b815260206004820152601760248201527f4f776e65722068617320706175736564206d61726b65740000000000000000006044820152606401611019565b6001600160a01b0382166000818152601960209081526040808320805460ff191690558051938452908301919091527ffcddbbd515b142e6be190d2fe4eb84efa355f935b1365d70be1bc6cc0d42b84e9101612c49565b600080516020614e1c833981519152821415612fea57604080516001600160a01b0383168152600060208201527fc19fedbfe022fc4cd2975fde0ce3851f2af95d8eff6b681ec49262bd79a466e0910160405180910390a15b61169082826141ce565b6000600080516020614dbc83398151915261300f8133613e12565b60185460ff16156130595760405162461bcd60e51b815260206004820152601460248201527314995b9d185b1cc8185c9948191a5cd8589b195960621b6044820152606401611019565b82600f5410156130a8576000600f54846130739190614bce565b90506011548111156130895760006011556130a1565b806011600082825461309b9190614bce565b90915550505b600f549350505b60006130b2613ee3565b905083600f60008282546130c69190614bce565b90915550506001600160a01b0381166000908152600d6020526040812080548692906130f3908490614b1e565b9250508190555083600e600082825461310c9190614b1e565b90915550849350505050600e54600f54600c546131299190614b1e565b6131339190614b1e565b6009546040516370a0823160e01b81523060048201526001600160a01b03909116906370a082319060240160206040518083038186803b15801561317657600080fd5b505afa15801561318a573d6000803e3d6000fd5b505050506040513d601f19601f820116820180604052508101906131ae9190614881565b10156131cc5760405162461bcd60e51b815260040161101990614ac4565b919050565b60185460ff16156132245760405162461bcd60e51b815260206004820152601860248201527f5769746864726177616c73206172652064697361626c656400000000000000006044820152606401611019565b600061322e613ee3565b6001600160a01b0381166000908152601260205260409020549091506001600160801b03166132955760405162461bcd60e51b81526020600482015260136024820152724e6f7468696e6720746f20776974686472617760681b6044820152606401611019565b6001600160a01b0381166000908152601260205260409020600101546001600160801b0316158061330957506013546132d19062015180614b36565b6001600160a01b03821660009081526012602052604090206001015461330790600160c01b90046001600160401b031642614bce565b115b6133405760405162461bcd60e51b81526020600482015260086024820152672a37b79039b7b7b760c11b6044820152606401611019565b61334a814261281b565b506001600160a01b0381166000908152601260205260409020546001600160801b0316831115613399576001600160a01b0381166000908152601260205260409020546001600160801b031692505b6040516000815283906001600160a01b03831690600080516020614ddc8339815191529060200160405180910390a36133d183613e76565b6001600160a01b038216600090815260126020526040812080549091906134029084906001600160801b0316614ba6565b92506101000a8154816001600160801b0302191690836001600160801b0316021790555082600c60008282546134389190614bce565b9091555050811561345f5760095461345a906001600160a01b03168285613ff5565b6134c9565b600a5460405163d32073cd60e01b81526001600160a01b0383811660048301526024820186905290911690819063d32073cd90604401600060405180830381600087803b1580156134af57600080fd5b505af11580156134c3573d6000803e3d6000fd5b50505050505b60075460405163beb724c960e01b81526001600160a01b0383811660048301529091169063beb724c990602401600060405180830381600087803b15801561351057600080fd5b505af1158015613524573d6000803e3d6000fd5b5050506001600160a01b0382166000908152601260205260409020600101546001600160801b0316158015915061359357506001600160a01b038116600090815260126020526040902080546013546001909201546001600160801b039182169261359192909116614b36565b115b15613615576001600160a01b0381811660008181526010602052604090819020805460ff191660011790556007549051637d7cdc4360e11b815260048101929092529091169063faf9b88690602401600060405180830381600087803b1580156135fc57600080fd5b505af1158015613610573d6000803e3d6000fd5b505050505b50600e54600f54600c546124249190614b1e565b600080516020614caa8339815191526136428133613e12565b6001600160a01b0382166136685760405162461bcd60e51b815260040161101990614a97565b600880546001600160a01b0319166001600160a01b03848116918217909255600b54604051637498479d60e11b815260048101929092529091169063e9308f3a906024016125da565b600080601760006136c0613ee3565b6001600160a01b031681526020810191909152604001600020549050806136ea5750600192915050565b611a9981846124e6565b600080516020614dbc83398151915261370d8133613e12565b61371642614166565b6001600160a01b038316600090815260126020526040902060010180546001600160c01b0316600160c01b6001600160401b03938416021790819055600160801b9004166116905761376742614166565b6001600160a01b038316600090815260126020526040902060010180546001600160401b0392909216600160801b0267ffffffffffffffff60801b199092169190911790555050565b600080516020614dbc8339815191526137c98133613e12565b81600f60008282546137db9190614bce565b909155506137ea905082613e76565b6001600160a01b0384166000908152601260205260408120805490919061381b9084906001600160801b0316614af3565b92506101000a8154816001600160801b0302191690836001600160801b0316021790555081600c60008282546138519190614b1e565b90915550506040516001815282906001600160a01b03851690600080516020614ddc8339815191529060200160405180910390a361361583612110565b600080516020614d5c8339815191526138a78133613e12565b6138b082613e76565b6001600160a01b038416600090815260126020526040812060010180549091906126669084906001600160801b0316614ba6565b600080516020614d5c8339815191526138fd8133613e12565b6001600160a01b038516600090815260126020526040902060010154600160801b90046001600160401b0316821480159061394d575061394b600080516020614dbc833981519152866124e6565b155b15613ab5576001600160a01b038516600090815260126020526040902060010154600160801b90046001600160401b03168210156139fd576001600160a01b0385166000908152601260205260408120600101546139bc90600160801b90046001600160401b03168486614025565b90506139c881876140d5565b6040516000815281906001600160a01b03881690600080516020614ddc8339815191529060200160405180910390a350613ab5565b6001600160a01b038516600090815260126020526040902054600160801b90046001600160801b031615613a3b57613a35858361281b565b50613ab5565b613a4482614166565b6001600160a01b03861660008181526012602052604080822060010180546001600160401b0395909516600160801b0267ffffffffffffffff60801b19909516949094179093559151600080516020614ddc83398151915290613aac90841515815260200190565b60405180910390a35b613abe83613e76565b6001600160a01b03861660009081526012602052604090208054601090613af6908490600160801b90046001600160801b0316614af3565b92506101000a8154816001600160801b0302191690836001600160801b03160217905550613b2384613e76565b6001600160a01b03871660009081526012602052604090208054601090613b5b908490600160801b90046001600160801b0316614ba6565b92506101000a8154816001600160801b0302191690836001600160801b03160217905550505050505050565b60606000613b96836002614b87565b613ba1906002614b1e565b6001600160401b03811115613bb857613bb8614c85565b6040519080825280601f01601f191660200182016040528015613be2576020820181803683370190505b509050600360fc1b81600081518110613bfd57613bfd614c6f565b60200101906001600160f81b031916908160001a905350600f60fb1b81600181518110613c2c57613c2c614c6f565b60200101906001600160f81b031916908160001a9053506000613c50846002614b87565b613c5b906001614b1e565b90505b6001811115613cd3576f181899199a1a9b1b9c1cb0b131b232b360811b85600f1660108110613c8f57613c8f614c6f565b1a60f81b828281518110613ca557613ca5614c6f565b60200101906001600160f81b031916908160001a90535060049490941c93613ccc81614c11565b9050613c5e565b508315611a995760405162461bcd60e51b815260206004820181905260248201527f537472696e67733a20686578206c656e67746820696e73756666696369656e746044820152606401611019565b60006001600160a01b038616613d885760405162461bcd60e51b815260206004820152602560248201527f4e61746976654d6574615472616e73616374696f6e3a20494e56414c49445f5360448201526424a3a722a960d91b6064820152608401611019565b6001613d9b613d96876141f4565b614271565b6040805160008152602081018083529290925260ff851690820152606081018690526080810185905260a0016020604051602081039080840390855afa158015613de9573d6000803e3d6000fd5b505050602060405103516001600160a01b0316866001600160a01b031614905095945050505050565b613e1c82826124e6565b61169057613e34816001600160a01b03166014613b87565b613e3f836020613b87565b604051602001613e509291906149da565b60408051601f198184030181529082905262461bcd60e51b825261101991600401614a84565b60006001600160801b03821115613edf5760405162461bcd60e51b815260206004820152602760248201527f53616665436173743a2076616c756520646f65736e27742066697420696e20316044820152663238206269747360c81b6064820152608401611019565b5090565b600033301415613efa575060131936013560601c90565b503390565b6040516001600160a01b0380851660248301528316604482015260648101829052612e239085906323b872dd60e01b906084015b60408051601f198184030181529190526020810180516001600160e01b03166001600160e01b0319909316929092179091526142a0565b600082815260208190526040902060010154613f868133613e12565b611ed18383614372565b613f9a82826124e6565b15611690576000828152602081815260408083206001600160a01b0385168085529252808320805460ff1916905551339285917ff6391f5c32d9c69d2a47ea670b442974b53935d1edc7fd64eb21e047a839171b9190a45050565b6040516001600160a01b038316602482015260448101829052611ed190849063a9059cbb60e01b90606401613f33565b600082841015614033579192915b620151806140418486614bce565b61404b9084614b87565b6140559190614b36565b949350505050565b6001600160a01b038216600090815260126020526040812060010154620151809061409890600160801b90046001600160401b031684614bce565b6001600160a01b0385166000908152601260205260409020546140cb9190600160801b90046001600160801b0316614b87565b611a999190614b36565b81600f60008282546140e79190614b1e565b909155506140f6905082613e76565b6001600160a01b038216600090815260126020526040812080549091906141279084906001600160801b0316614ba6565b92506101000a8154816001600160801b0302191690836001600160801b0316021790555081600c600082825461415d9190614bce565b90915550505050565b60006001600160401b03821115613edf5760405162461bcd60e51b815260206004820152602660248201527f53616665436173743a2076616c756520646f65736e27742066697420696e203660448201526534206269747360d01b6064820152608401611019565b6000828152602081905260409020600101546141ea8133613e12565b611ed18383613f90565b6000604051806080016040528060438152602001614cca6043913980516020918201208351848301516040808701518051908601209051614254950193845260208401929092526001600160a01b03166040830152606082015260800190565b604051602081830303815290604052805190602001209050919050565b600061427b611409565b60405161190160f01b6020820152602281019190915260428101839052606201614254565b60006142f5826040518060400160405280602081526020017f5361666545524332303a206c6f772d6c6576656c2063616c6c206661696c6564815250856001600160a01b03166143f69092919063ffffffff16565b805190915015611ed15780806020019051810190614313919061479d565b611ed15760405162461bcd60e51b815260206004820152602a60248201527f5361666545524332303a204552433230206f7065726174696f6e20646964206e6044820152691bdd081cdd58d8d9595960b21b6064820152608401611019565b61437c82826124e6565b611690576000828152602081815260408083206001600160a01b03851684529091529020805460ff191660011790556143b23390565b6001600160a01b0316816001600160a01b0316837f2f8788117e7eff1d82e926ec794901d17c78024a50270940304540a733656f0d60405160405180910390a45050565b6060614055848460008585843b61444f5760405162461bcd60e51b815260206004820152601d60248201527f416464726573733a2063616c6c20746f206e6f6e2d636f6e74726163740000006044820152606401611019565b600080866001600160a01b0316858760405161446b91906148eb565b60006040518083038185875af1925050503d80600081146144a8576040519150601f19603f3d011682016040523d82523d6000602084013e6144ad565b606091505b50915091506144bd8282866144c8565b979650505050505050565b606083156144d7575081611a99565b8251156144e75782518084602001fd5b8160405162461bcd60e51b81526004016110199190614a84565b60006001600160401b038084111561451b5761451b614c85565b604051601f8501601f19908116603f0116810190828211818310171561454357614543614c85565b8160405280935085815286868601111561455c57600080fd5b858560208301376000602087830101525050509392505050565b80356001600160a01b03811681146131cc57600080fd5b60006020828403121561459f57600080fd5b611a9982614576565b600080600080600060a086880312156145c057600080fd5b6145c986614576565b94506145d760208701614576565b94979496505050506040830135926060810135926080909101359150565b6000806040838503121561460857600080fd5b61461183614576565b9150602083013561462181614c9b565b809150509250929050565b600080600080600060a0868803121561464457600080fd5b61464d86614576565b945060208601356001600160401b0381111561466857600080fd5b8601601f8101881361467957600080fd5b61468888823560208401614501565b9450506040860135925060608601359150608086013560ff811681146146ad57600080fd5b809150509295509295909350565b600080604083850312156146ce57600080fd5b6146d783614576565b946020939093013593505050565b6000806000606084860312156146fa57600080fd5b61470384614576565b95602085013595506040909401359392505050565b60008060006040848603121561472d57600080fd5b83356001600160401b038082111561474457600080fd5b818601915086601f83011261475857600080fd5b81358181111561476757600080fd5b8760208260051b850101111561477c57600080fd5b6020928301955093505084013561479281614c9b565b809150509250925092565b6000602082840312156147af57600080fd5b8151611a9981614c9b565b6000602082840312156147cc57600080fd5b5035919050565b600080604083850312156147e657600080fd5b823591506147f660208401614576565b90509250929050565b60006020828403121561481157600080fd5b81356001600160e01b031981168114611a9957600080fd5b6000806040838503121561483c57600080fd5b82356001600160401b0381111561485257600080fd5b8301601f8101851361486357600080fd5b61487285823560208401614501565b9250506147f660208401614576565b60006020828403121561489357600080fd5b5051919050565b600080604083850312156148ad57600080fd5b82359150602083013561462181614c9b565b600081518084526148d7816020860160208601614be5565b601f01601f19169290920160200192915050565b600082516148fd818460208701614be5565b9190910192915050565b60008351614919818460208801614be5565b60609390931b6bffffffffffffffffffffffff19169190920190815260140192915050565b600080835481600182811c91508083168061495a57607f831692505b602080841082141561497a57634e487b7160e01b86526022600452602486fd5b81801561498e576001811461499f576149cc565b60ff198616895284890196506149cc565b60008a81526020902060005b868110156149c45781548b8201529085019083016149ab565b505084890196505b509498975050505050505050565b7f416363657373436f6e74726f6c3a206163636f756e7420000000000000000000815260008351614a12816017850160208801614be5565b7001034b99036b4b9b9b4b733903937b6329607d1b6017918401918201528351614a43816028840160208801614be5565b01602801949350505050565b6001600160a01b03848116825283166020820152606060408201819052600090614a7b908301846148bf565b95945050505050565b602081526000611a9960208301846148bf565b6020808252601390820152724d7573742073657420616e206164647265737360681b604082015260600190565b602080825260159082015274426f6f6b732061726520756e62616c616e6365642160581b604082015260600190565b60006001600160801b03808316818516808303821115614b1557614b15614c59565b01949350505050565b60008219821115614b3157614b31614c59565b500190565b600082614b5357634e487b7160e01b600052601260045260246000fd5b500490565b60006001600160801b0380831681851681830481118215151615614b7e57614b7e614c59565b02949350505050565b6000816000190483118215151615614ba157614ba1614c59565b500290565b60006001600160801b0383811690831681811015614bc657614bc6614c59565b039392505050565b600082821015614be057614be0614c59565b500390565b60005b83811015614c00578181015183820152602001614be8565b83811115612e235750506000910152565b600081614c2057614c20614c59565b506000190190565b6000600019821415614c3c57614c3c614c59565b5060010190565b634e487b7160e01b600052600160045260246000fd5b634e487b7160e01b600052601160045260246000fd5b634e487b7160e01b600052603260045260246000fd5b634e487b7160e01b600052604160045260246000fd5b80151581146115c857600080fdfe52d1941cacb84b09158c2ca3fd9782d719422cf352918630ece583c0581f26354d6574615472616e73616374696f6e2875696e74323536206e6f6e63652c616464726573732066726f6d2c62797465732066756e6374696f6e5369676e617475726529454950373132446f6d61696e28737472696e67206e616d652c737472696e672076657273696f6e2c6164647265737320766572696679696e67436f6e74726163742c627974657333322073616c7429fd4feb1bffe856ecab4919d7fde3e54d37812cf1161f31157b5f46ca821b7e00547b500e425d72fd0723933cceefc203cef652b4736fd04250c3369b3e1a0a736270edb7c868f86fda4adedba75108201087268ea345934db8bad688e1feb91b23acc66832ff38a7ce3c1caf89922410f4374ba8fd897ffa98f088747997bc6df48a72b323eb1510632acb8bf7237bad3cad43aa8ed56ac9b1fcd934697aa6301a6838efa4183e08fe3607359d1259272af9d4716f65e1a7b5921f78fd5a3c6a0af0c3ebe77999ca20698e1ff25f812bf82409a59d21ca15a41f39e0ce9f2500a2646970667358221220705fa5fed06eab09f8826ddc6125c49dacee88ba2986a4a7141f34ef42f8ac4964736f6c6343000807003352d1941cacb84b09158c2ca3fd9782d719422cf352918630ece583c0581f2635454950373132446f6d61696e28737472696e67206e616d652c737472696e672076657273696f6e2c6164647265737320766572696679696e67436f6e74726163742c627974657333322073616c7429547b500e425d72fd0723933cceefc203cef652b4736fd04250c3369b3e1a0a736270edb7c868f86fda4adedba75108201087268ea345934db8bad688e1feb91b1a6838efa4183e08fe3607359d1259272af9d4716f65e1a7b5921f78fd5a3c6a06aa03964db1f7257357ef09714a5f0ca3633723df419e97015e0c7a3e83edb7",
  "linkReferences": {},
  "deployedLinkReferences": {}
}