{"abi":[{"type":"constructor","inputs":[],"stateMutability":"nonpayable"},{"type":"function","name":"allowance","inputs":[{"name":"owner","type":"address","internalType":"address"},{"name":"spender","type":"address","internalType":"address"}],"outputs":[{"name":"","type":"uint256","internalType":"uint256"}],"stateMutability":"view"},{"type":"function","name":"approve","inputs":[{"name":"spender","type":"address","internalType":"address"},{"name":"amount","type":"uint256","internalType":"uint256"}],"outputs":[{"name":"","type":"bool","internalType":"bool"}],"stateMutability":"nonpayable"},{"type":"function","name":"balanceOf","inputs":[{"name":"account","type":"address","internalType":"address"}],"outputs":[{"name":"","type":"uint256","internalType":"uint256"}],"stateMutability":"view"},{"type":"function","name":"balanceOfUnderlying","inputs":[{"name":"account","type":"address","internalType":"address"}],"outputs":[{"name":"","type":"uint256","internalType":"uint256"}],"stateMutability":"nonpayable"},{"type":"function","name":"decimals","inputs":[],"outputs":[{"name":"","type":"uint8","internalType":"uint8"}],"stateMutability":"view"},{"type":"function","name":"decreaseAllowance","inputs":[{"name":"spender","type":"address","internalType":"address"},{"name":"subtractedValue","type":"uint256","internalType":"uint256"}],"outputs":[{"name":"","type":"bool","internalType":"bool"}],"stateMutability":"nonpayable"},{"type":"function","name":"exchangeRateCurrent","inputs":[],"outputs":[{"name":"","type":"uint256","internalType":"uint256"}],"stateMutability":"nonpayable"},{"type":"function","name":"getCash","inputs":[],"outputs":[{"name":"","type":"uint256","internalType":"uint256"}],"stateMutability":"nonpayable"},{"type":"function","name":"increaseAllowance","inputs":[{"name":"spender","type":"address","internalType":"address"},{"name":"addedValue","type":"uint256","internalType":"uint256"}],"outputs":[{"name":"","type":"bool","internalType":"bool"}],"stateMutability":"nonpayable"},{"type":"function","name":"mint","inputs":[],"outputs":[],"stateMutability":"payable"},{"type":"function","name":"name","inputs":[],"outputs":[{"name":"","type":"string","internalType":"string"}],"stateMutability":"view"},{"type":"function","name":"redeem","inputs":[{"name":"redeemTokens","type":"uint256","internalType":"uint256"}],"outputs":[{"name":"","type":"uint256","internalType":"uint256"}],"stateMutability":"nonpayable"},{"type":"function","name":"symbol","inputs":[],"outputs":[{"name":"","type":"string","internalType":"string"}],"stateMutability":"view"},{"type":"function","name":"totalSupply","inputs":[],"outputs":[{"name":"","type":"uint256","internalType":"uint256"}],"stateMutability":"view"},{"type":"function","name":"transfer","inputs":[{"name":"recipient","type":"address","internalType":"address"},{"name":"amount","type":"uint256","internalType":"uint256"}],"outputs":[{"name":"","type":"bool","internalType":"bool"}],"stateMutability":"nonpayable"},{"type":"function","name":"transferFrom","inputs":[{"name":"sender","type":"address","internalType":"address"},{"name":"recipient","type":"address","internalType":"address"},{"name":"amount","type":"uint256","internalType":"uint256"}],"outputs":[{"name":"","type":"bool","internalType":"bool"}],"stateMutability":"nonpayable"},{"type":"event","name":"Approval","inputs":[{"name":"owner","type":"address","indexed":true,"internalType":"address"},{"name":"spender","type":"address","indexed":true,"internalType":"address"},{"name":"value","type":"uint256","indexed":false,"internalType":"uint256"}],"anonymous":false},{"type":"event","name":"Transfer","inputs":[{"name":"from","type":"address","indexed":true,"internalType":"address"},{"name":"to","type":"address","indexed":true,"internalType":"address"},{"name":"value","type":"uint256","indexed":false,"internalType":"uint256"}],"anonymous":false}],"bytecode":{"object":"0x60806040523480156200001157600080fd5b506040518060400160405280600681526020017f43457468657200000000000000000000000000000000000000000000000000008152506040518060400160405280600481526020017f6345544800000000000000000000000000000000000000000000000000000000815250816003908051906020019062000096929190620000ea565b508060049080519060200190620000af929190620000ea565b506012600560006101000a81548160ff021916908360ff1602179055505050670de0b6b3a764000060068190555042600781905550620001a0565b828054600181600116156101000203166002900490600052602060002090601f0160209004810192826200012257600085556200016e565b82601f106200013d57805160ff19168380011785556200016e565b828001600101855582156200016e579182015b828111156200016d57825182559160200191906001019062000150565b5b5090506200017d919062000181565b5090565b5b808211156200019c57600081600090555060010162000182565b5090565b61185e80620001b06000396000f3fe6080604052600436106100f35760003560e01c80633b1d21a21161008a578063a9059cbb11610059578063a9059cbb14610554578063bd6d894d146105c5578063db006a75146105f0578063dd62ed3e1461063f576100f3565b80633b1d21a2146103c357806370a08231146103ee57806395d89b4114610453578063a457c2d7146104e3576100f3565b806323b872dd116100c657806323b872dd1461022e578063313ce567146102bf57806339509351146102ed5780633af9e6691461035e576100f3565b806306fdde03146100f8578063095ea7b3146101885780631249c58b146101f957806318160ddd14610203575b600080fd5b34801561010457600080fd5b5061010d6106c4565b6040518080602001828103825283818151815260200191508051906020019080838360005b8381101561014d578082015181840152602081019050610132565b50505050905090810190601f16801561017a5780820380516001836020036101000a031916815260200191505b509250505060405180910390f35b34801561019457600080fd5b506101e1600480360360408110156101ab57600080fd5b81019080803573ffffffffffffffffffffffffffffffffffffffff16906020019092919080359060200190929190505050610766565b60405180821515815260200191505060405180910390f35b610201610784565b005b34801561020f57600080fd5b506102186107b0565b6040518082815260200191505060405180910390f35b34801561023a57600080fd5b506102a76004803603606081101561025157600080fd5b81019080803573ffffffffffffffffffffffffffffffffffffffff169060200190929190803573ffffffffffffffffffffffffffffffffffffffff169060200190929190803590602001909291905050506107ba565b60405180821515815260200191505060405180910390f35b3480156102cb57600080fd5b506102d4610893565b604051808260ff16815260200191505060405180910390f35b3480156102f957600080fd5b506103466004803603604081101561031057600080fd5b81019080803573ffffffffffffffffffffffffffffffffffffffff169060200190929190803590602001909291905050506108aa565b60405180821515815260200191505060405180910390f35b34801561036a57600080fd5b506103ad6004803603602081101561038157600080fd5b81019080803573ffffffffffffffffffffffffffffffffffffffff16906020019092919050505061095d565b6040518082815260200191505060405180910390f35b3480156103cf57600080fd5b506103d8610989565b6040518082815260200191505060405180910390f35b3480156103fa57600080fd5b5061043d6004803603602081101561041157600080fd5b81019080803573ffffffffffffffffffffffffffffffffffffffff1690602001909291905050506109a5565b6040518082815260200191505060405180910390f35b34801561045f57600080fd5b506104686109ed565b6040518080602001828103825283818151815260200191508051906020019080838360005b838110156104a857808201518184015260208101905061048d565b50505050905090810190601f1680156104d55780820380516001836020036101000a031916815260200191505b509250505060405180910390f35b3480156104ef57600080fd5b5061053c6004803603604081101561050657600080fd5b81019080803573ffffffffffffffffffffffffffffffffffffffff16906020019092919080359060200190929190505050610a8f565b60405180821515815260200191505060405180910390f35b34801561056057600080fd5b506105ad6004803603604081101561057757600080fd5b81019080803573ffffffffffffffffffffffffffffffffffffffff16906020019092919080359060200190929190505050610b5c565b60405180821515815260200191505060405180910390f35b3480156105d157600080fd5b506105da610b7a565b6040518082815260200191505060405180910390f35b3480156105fc57600080fd5b506106296004803603602081101561061357600080fd5b8101908080359060200190929190505050610b89565b6040518082815260200191505060405180910390f35b34801561064b57600080fd5b506106ae6004803603604081101561066257600080fd5b81019080803573ffffffffffffffffffffffffffffffffffffffff169060200190929190803573ffffffffffffffffffffffffffffffffffffffff169060200190929190505050610c04565b6040518082815260200191505060405180910390f35b606060038054600181600116156101000203166002900480601f01602080910402602001604051908101604052809291908181526020018280546001816001161561010002031660029004801561075c5780601f106107315761010080835404028352916020019161075c565b820191906000526020600020905b81548152906001019060200180831161073f57829003601f168201915b5050505050905090565b600061077a610773610c8b565b8484610c93565b6001905092915050565b600061078e610e8a565b670de0b6b3a76400003402816107a057fe5b0490506107ad3382610ece565b50565b6000600254905090565b60006107c7848484611095565b610888846107d3610c8b565b6108838560405180606001604052806028815260200161177260289139600160008b73ffffffffffffffffffffffffffffffffffffffff1673ffffffffffffffffffffffffffffffffffffffff1681526020019081526020016000206000610839610c8b565b73ffffffffffffffffffffffffffffffffffffffff1673ffffffffffffffffffffffffffffffffffffffff168152602001908152602001600020546113569092919063ffffffff16565b610c93565b600190509392505050565b6000600560009054906101000a900460ff16905090565b60006109536108b7610c8b565b8461094e85600160006108c8610c8b565b73ffffffffffffffffffffffffffffffffffffffff1673ffffffffffffffffffffffffffffffffffffffff16815260200190815260200160002060008973ffffffffffffffffffffffffffffffffffffffff1673ffffffffffffffffffffffffffffffffffffffff1681526020019081526020016000205461141090919063ffffffff16565b610c93565b6001905092915050565b6000670de0b6b3a7640000610970610e8a565b610979846109a5565b028161098157fe5b049050919050565b600060646109956107b0565b605a028161099f57fe5b04905090565b60008060008373ffffffffffffffffffffffffffffffffffffffff1673ffffffffffffffffffffffffffffffffffffffff168152602001908152602001600020549050919050565b606060048054600181600116156101000203166002900480601f016020809104026020016040519081016040528092919081815260200182805460018160011615610100020316600290048015610a855780601f10610a5a57610100808354040283529160200191610a85565b820191906000526020600020905b815481529060010190602001808311610a6857829003601f168201915b5050505050905090565b6000610b52610a9c610c8b565b84610b4d856040518060600160405280602581526020016118046025913960016000610ac6610c8b565b73ffffffffffffffffffffffffffffffffffffffff1673ffffffffffffffffffffffffffffffffffffffff16815260200190815260200160002060008a73ffffffffffffffffffffffffffffffffffffffff1673ffffffffffffffffffffffffffffffffffffffff168152602001908152602001600020546113569092919063ffffffff16565b610c93565b6001905092915050565b6000610b70610b69610c8b565b8484611095565b6001905092915050565b6000610b84610e8a565b905090565b600080670de0b6b3a7640000610b9d610e8a565b840281610ba657fe5b049050610bb33384611498565b3373ffffffffffffffffffffffffffffffffffffffff166108fc829081150290604051600060405180830381858888f19350505050158015610bf9573d6000803e3d6000fd5b506000915050919050565b6000600160008473ffffffffffffffffffffffffffffffffffffffff1673ffffffffffffffffffffffffffffffffffffffff16815260200190815260200160002060008373ffffffffffffffffffffffffffffffffffffffff1673ffffffffffffffffffffffffffffffffffffffff16815260200190815260200160002054905092915050565b600033905090565b600073ffffffffffffffffffffffffffffffffffffffff168373ffffffffffffffffffffffffffffffffffffffff161415610d19576040517f08c379a00000000000000000000000000000000000000000000000000000000081526004018080602001828103825260248152602001806117e06024913960400191505060405180910390fd5b600073ffffffffffffffffffffffffffffffffffffffff168273ffffffffffffffffffffffffffffffffffffffff161415610d9f576040517f08c379a000000000000000000000000000000000000000000000000000000000815260040180806020018281038252602281526020018061172a6022913960400191505060405180910390fd5b80600160008573ffffffffffffffffffffffffffffffffffffffff1673ffffffffffffffffffffffffffffffffffffffff16815260200190815260200160002060008473ffffffffffffffffffffffffffffffffffffffff1673ffffffffffffffffffffffffffffffffffffffff168152602001908152602001600020819055508173ffffffffffffffffffffffffffffffffffffffff168373ffffffffffffffffffffffffffffffffffffffff167f8c5be1e5ebec7d5bd14f71427d1e84f3dd0314c0f7b2291e5b200ac8c7c3b925836040518082815260200191505060405180910390a3505050565b600080670de0b6b3a76400006305f5e100600754420302670de0b6b3a7640000016006540281610eb657fe5b04905080600681905550426007819055508091505090565b600073ffffffffffffffffffffffffffffffffffffffff168273ffffffffffffffffffffffffffffffffffffffff161415610f71576040517f08c379a000000000000000000000000000000000000000000000000000000000815260040180806020018281038252601f8152602001807f45524332303a206d696e7420746f20746865207a65726f20616464726573730081525060200191505060405180910390fd5b610f7d6000838361165c565b610f928160025461141090919063ffffffff16565b600281905550610fe9816000808573ffffffffffffffffffffffffffffffffffffffff1673ffffffffffffffffffffffffffffffffffffffff1681526020019081526020016000205461141090919063ffffffff16565b6000808473ffffffffffffffffffffffffffffffffffffffff1673ffffffffffffffffffffffffffffffffffffffff168152602001908152602001600020819055508173ffffffffffffffffffffffffffffffffffffffff16600073ffffffffffffffffffffffffffffffffffffffff167fddf252ad1be2c89b69c2b068fc378daa952ba7f163c4a11628f55a4df523b3ef836040518082815260200191505060405180910390a35050565b600073ffffffffffffffffffffffffffffffffffffffff168373ffffffffffffffffffffffffffffffffffffffff16141561111b576040517f08c379a00000000000000000000000000000000000000000000000000000000081526004018080602001828103825260258152602001806117bb6025913960400191505060405180910390fd5b600073ffffffffffffffffffffffffffffffffffffffff168273ffffffffffffffffffffffffffffffffffffffff1614156111a1576040517f08c379a00000000000000000000000000000000000000000000000000000000081526004018080602001828103825260238152602001806116e56023913960400191505060405180910390fd5b6111ac83838361165c565b6112178160405180606001604052806026815260200161174c602691396000808773ffffffffffffffffffffffffffffffffffffffff1673ffffffffffffffffffffffffffffffffffffffff168152602001908152602001600020546113569092919063ffffffff16565b6000808573ffffffffffffffffffffffffffffffffffffffff1673ffffffffffffffffffffffffffffffffffffffff168152602001908152602001600020819055506112aa816000808573ffffffffffffffffffffffffffffffffffffffff1673ffffffffffffffffffffffffffffffffffffffff1681526020019081526020016000205461141090919063ffffffff16565b6000808473ffffffffffffffffffffffffffffffffffffffff1673ffffffffffffffffffffffffffffffffffffffff168152602001908152602001600020819055508173ffffffffffffffffffffffffffffffffffffffff168373ffffffffffffffffffffffffffffffffffffffff167fddf252ad1be2c89b69c2b068fc378daa952ba7f163c4a11628f55a4df523b3ef836040518082815260200191505060405180910390a3505050565b6000838311158290611403576040517f08c379a00000000000000000000000000000000000000000000000000000000081526004018080602001828103825283818151815260200191508051906020019080838360005b838110156113c85780820151818401526020810190506113ad565b50505050905090810190601f1680156113f55780820380516001836020036101000a031916815260200191505b509250505060405180910390fd5b5082840390509392505050565b60008082840190508381101561148e576040517f08c379a000000000000000000000000000000000000000000000000000000000815260040180806020018281038252601b8152602001807f536166654d6174683a206164646974696f6e206f766572666c6f77000000000081525060200191505060405180910390fd5b8091505092915050565b600073ffffffffffffffffffffffffffffffffffffffff168273ffffffffffffffffffffffffffffffffffffffff16141561151e576040517f08c379a000000000000000000000000000000000000000000000000000000000815260040180806020018281038252602181526020018061179a6021913960400191505060405180910390fd5b61152a8260008361165c565b61159581604051806060016040528060228152602001611708602291396000808673ffffffffffffffffffffffffffffffffffffffff1673ffffffffffffffffffffffffffffffffffffffff168152602001908152602001600020546113569092919063ffffffff16565b6000808473ffffffffffffffffffffffffffffffffffffffff1673ffffffffffffffffffffffffffffffffffffffff168152602001908152602001600020819055506115ec8160025461166190919063ffffffff16565b600281905550600073ffffffffffffffffffffffffffffffffffffffff168273ffffffffffffffffffffffffffffffffffffffff167fddf252ad1be2c89b69c2b068fc378daa952ba7f163c4a11628f55a4df523b3ef836040518082815260200191505060405180910390a35050565b505050565b6000828211156116d9576040517f08c379a000000000000000000000000000000000000000000000000000000000815260040180806020018281038252601e8152602001807f536166654d6174683a207375627472616374696f6e206f766572666c6f77000081525060200191505060405180910390fd5b81830390509291505056fe45524332303a207472616e7366657220746f20746865207a65726f206164647265737345524332303a206275726e20616d6f756e7420657863656564732062616c616e636545524332303a20617070726f766520746f20746865207a65726f206164647265737345524332303a207472616e7366657220616d6f756e7420657863656564732062616c616e636545524332303a207472616e7366657220616d6f756e74206578636565647320616c6c6f77616e636545524332303a206275726e2066726f6d20746865207a65726f206164647265737345524332303a207472616e736665722066726f6d20746865207a65726f206164647265737345524332303a20617070726f76652066726f6d20746865207a65726f206164647265737345524332303a2064656372656173656420616c6c6f77616e63652062656c6f77207a65726fa264697066735822122040f4621e7ddb3fd75a980553fe4029217bc3708a381e1b92c8d6e7497938204464736f6c63430007060033","linkReferences":{}},"methodIdentifiers":{"allowance(address,address)":"dd62ed3e","approve(address,uint256)":"095ea7b3","balanceOf(address)":"70a08231","balanceOfUnderlying(address)":"3af9e669","decimals()":"313ce567","decreaseAllowance(address,uint256)":"a457c2d7","exchangeRateCurrent()":"bd6d894d","getCash()":"3b1d21a2","increaseAllowance(address,uint256)":"39509351","mint()":"1249c58b","name()":"06fdde03","redeem(uint256)":"db006a75","symbol()":"95d89b41","totalSupply()":"18160ddd","transfer(address,uint256)":"a9059cbb","transferFrom(address,address,uint256)":"23b872dd"},"id":43}