{
  "_format": "hh-sol-artifact-1",
  "contractName": "AaveAdapter",
  "sourceName": "contracts/asset/AaveAdapter.sol",
  "abi": [
    {
      "anonymous": false,
      "inputs": [
        {
          "indexed": false,
          "internalType": "address",
          "name": "previousAdmin",
          "type": "address"
        },
        {
          "indexed": false,
          "internalType": "address",
          "name": "newAdmin",
          "type": "address"
        }
      ],
      "name": "AdminChanged",
      "type": "event"
    },
    {
      "anonymous": false,
      "inputs": [
        {
          "indexed": true,
          "internalType": "address",
          "name": "beacon",
          "type": "address"
        }
      ],
      "name": "BeaconUpgraded",
      "type": "event"
    },
    {
      "anonymous": false,
      "inputs": [
        {
          "indexed": false,
          "internalType": "address",
          "name": "account",
          "type": "address"
        }
      ],
      "name": "Paused",
      "type": "event"
    },
    {
      "anonymous": false,
      "inputs": [
        {
          "indexed": true,
          "internalType": "bytes32",
          "name": "role",
          "type": "bytes32"
        },
        {
          "indexed": true,
          "internalType": "bytes32",
          "name": "previousAdminRole",
          "type": "bytes32"
        },
        {
          "indexed": true,
          "internalType": "bytes32",
          "name": "newAdminRole",
          "type": "bytes32"
        }
      ],
      "name": "RoleAdminChanged",
      "type": "event"
    },
    {
      "anonymous": false,
      "inputs": [
        {
          "indexed": true,
          "internalType": "bytes32",
          "name": "role",
          "type": "bytes32"
        },
        {
          "indexed": true,
          "internalType": "address",
          "name": "account",
          "type": "address"
        },
        {
          "indexed": true,
          "internalType": "address",
          "name": "sender",
          "type": "address"
        }
      ],
      "name": "RoleGranted",
      "type": "event"
    },
    {
      "anonymous": false,
      "inputs": [
        {
          "indexed": true,
          "internalType": "bytes32",
          "name": "role",
          "type": "bytes32"
        },
        {
          "indexed": true,
          "internalType": "address",
          "name": "account",
          "type": "address"
        },
        {
          "indexed": true,
          "internalType": "address",
          "name": "sender",
          "type": "address"
        }
      ],
      "name": "RoleRevoked",
      "type": "event"
    },
    {
      "anonymous": false,
      "inputs": [
        {
          "indexed": false,
          "internalType": "address",
          "name": "account",
          "type": "address"
        }
      ],
      "name": "Unpaused",
      "type": "event"
    },
    {
      "anonymous": false,
      "inputs": [
        {
          "indexed": true,
          "internalType": "address",
          "name": "implementation",
          "type": "address"
        }
      ],
      "name": "Upgraded",
      "type": "event"
    },
    {
      "inputs": [],
      "name": "DEFAULT_ADMIN_ROLE",
      "outputs": [
        {
          "internalType": "bytes32",
          "name": "",
          "type": "bytes32"
        }
      ],
      "stateMutability": "view",
      "type": "function"
    },
    {
      "inputs": [],
      "name": "ROLE_ADMIN",
      "outputs": [
        {
          "internalType": "bytes32",
          "name": "",
          "type": "bytes32"
        }
      ],
      "stateMutability": "view",
      "type": "function"
    },
    {
      "inputs": [
        {
          "internalType": "address",
          "name": "_assetManager",
          "type": "address"
        },
        {
          "internalType": "contract LendingPool",
          "name": "_lendingPool",
          "type": "address"
        }
      ],
      "name": "__AaveAdapter_init",
      "outputs": [],
      "stateMutability": "nonpayable",
      "type": "function"
    },
    {
      "inputs": [
        {
          "internalType": "address",
          "name": "admin_",
          "type": "address"
        }
      ],
      "name": "__Controller_init",
      "outputs": [],
      "stateMutability": "nonpayable",
      "type": "function"
    },
    {
      "inputs": [
        {
          "internalType": "address",
          "name": "account",
          "type": "address"
        }
      ],
      "name": "addAdmin",
      "outputs": [],
      "stateMutability": "nonpayable",
      "type": "function"
    },
    {
      "inputs": [],
      "name": "assetManager",
      "outputs": [
        {
          "internalType": "address",
          "name": "",
          "type": "address"
        }
      ],
      "stateMutability": "view",
      "type": "function"
    },
    {
      "inputs": [
        {
          "internalType": "address",
          "name": "",
          "type": "address"
        }
      ],
      "name": "ceilingMap",
      "outputs": [
        {
          "internalType": "uint256",
          "name": "",
          "type": "uint256"
        }
      ],
      "stateMutability": "view",
      "type": "function"
    },
    {
      "inputs": [
        {
          "internalType": "address",
          "name": "tokenAddress",
          "type": "address"
        },
        {
          "internalType": "address",
          "name": "recipient",
          "type": "address"
        }
      ],
      "name": "claimTokens",
      "outputs": [],
      "stateMutability": "nonpayable",
      "type": "function"
    },
    {
      "inputs": [
        {
          "internalType": "address",
          "name": "tokenAddress",
          "type": "address"
        }
      ],
      "name": "deposit",
      "outputs": [],
      "stateMutability": "nonpayable",
      "type": "function"
    },
    {
      "inputs": [
        {
          "internalType": "address",
          "name": "",
          "type": "address"
        }
      ],
      "name": "floorMap",
      "outputs": [
        {
          "internalType": "uint256",
          "name": "",
          "type": "uint256"
        }
      ],
      "stateMutability": "view",
      "type": "function"
    },
    {
      "inputs": [
        {
          "internalType": "address",
          "name": "tokenAddress",
          "type": "address"
        }
      ],
      "name": "getRate",
      "outputs": [
        {
          "internalType": "uint256",
          "name": "",
          "type": "uint256"
        }
      ],
      "stateMutability": "view",
      "type": "function"
    },
    {
      "inputs": [
        {
          "internalType": "bytes32",
          "name": "role",
          "type": "bytes32"
        }
      ],
      "name": "getRoleAdmin",
      "outputs": [
        {
          "internalType": "bytes32",
          "name": "",
          "type": "bytes32"
        }
      ],
      "stateMutability": "view",
      "type": "function"
    },
    {
      "inputs": [
        {
          "internalType": "address",
          "name": "tokenAddress",
          "type": "address"
        }
      ],
      "name": "getSupply",
      "outputs": [
        {
          "internalType": "uint256",
          "name": "",
          "type": "uint256"
        }
      ],
      "stateMutability": "view",
      "type": "function"
    },
    {
      "inputs": [
        {
          "internalType": "address",
          "name": "tokenAddress",
          "type": "address"
        }
      ],
      "name": "getSupplyView",
      "outputs": [
        {
          "internalType": "uint256",
          "name": "",
          "type": "uint256"
        }
      ],
      "stateMutability": "view",
      "type": "function"
    },
    {
      "inputs": [
        {
          "internalType": "bytes32",
          "name": "role",
          "type": "bytes32"
        },
        {
          "internalType": "address",
          "name": "account",
          "type": "address"
        }
      ],
      "name": "grantRole",
      "outputs": [],
      "stateMutability": "nonpayable",
      "type": "function"
    },
    {
      "inputs": [
        {
          "internalType": "bytes32",
          "name": "role",
          "type": "bytes32"
        },
        {
          "internalType": "address",
          "name": "account",
          "type": "address"
        }
      ],
      "name": "hasRole",
      "outputs": [
        {
          "internalType": "bool",
          "name": "",
          "type": "bool"
        }
      ],
      "stateMutability": "view",
      "type": "function"
    },
    {
      "inputs": [
        {
          "internalType": "address",
          "name": "account",
          "type": "address"
        }
      ],
      "name": "isAdmin",
      "outputs": [
        {
          "internalType": "bool",
          "name": "",
          "type": "bool"
        }
      ],
      "stateMutability": "view",
      "type": "function"
    },
    {
      "inputs": [],
      "name": "lendingPool",
      "outputs": [
        {
          "internalType": "contract LendingPool",
          "name": "",
          "type": "address"
        }
      ],
      "stateMutability": "view",
      "type": "function"
    },
    {
      "inputs": [
        {
          "internalType": "address",
          "name": "tokenAddress",
          "type": "address"
        }
      ],
      "name": "mapTokenToAToken",
      "outputs": [],
      "stateMutability": "nonpayable",
      "type": "function"
    },
    {
      "inputs": [],
      "name": "pause",
      "outputs": [],
      "stateMutability": "nonpayable",
      "type": "function"
    },
    {
      "inputs": [],
      "name": "pauseGuardian",
      "outputs": [
        {
          "internalType": "address",
          "name": "",
          "type": "address"
        }
      ],
      "stateMutability": "view",
      "type": "function"
    },
    {
      "inputs": [],
      "name": "paused",
      "outputs": [
        {
          "internalType": "bool",
          "name": "",
          "type": "bool"
        }
      ],
      "stateMutability": "view",
      "type": "function"
    },
    {
      "inputs": [],
      "name": "renounceAdmin",
      "outputs": [],
      "stateMutability": "nonpayable",
      "type": "function"
    },
    {
      "inputs": [
        {
          "internalType": "bytes32",
          "name": "role",
          "type": "bytes32"
        },
        {
          "internalType": "address",
          "name": "account",
          "type": "address"
        }
      ],
      "name": "renounceRole",
      "outputs": [],
      "stateMutability": "nonpayable",
      "type": "function"
    },
    {
      "inputs": [
        {
          "internalType": "bytes32",
          "name": "role",
          "type": "bytes32"
        },
        {
          "internalType": "address",
          "name": "account",
          "type": "address"
        }
      ],
      "name": "revokeRole",
      "outputs": [],
      "stateMutability": "nonpayable",
      "type": "function"
    },
    {
      "inputs": [
        {
          "internalType": "address",
          "name": "_assetManager",
          "type": "address"
        }
      ],
      "name": "setAssetManager",
      "outputs": [],
      "stateMutability": "nonpayable",
      "type": "function"
    },
    {
      "inputs": [
        {
          "internalType": "address",
          "name": "tokenAddress",
          "type": "address"
        },
        {
          "internalType": "uint256",
          "name": "ceiling",
          "type": "uint256"
        }
      ],
      "name": "setCeiling",
      "outputs": [],
      "stateMutability": "nonpayable",
      "type": "function"
    },
    {
      "inputs": [
        {
          "internalType": "address",
          "name": "tokenAddress",
          "type": "address"
        },
        {
          "internalType": "uint256",
          "name": "floor",
          "type": "uint256"
        }
      ],
      "name": "setFloor",
      "outputs": [],
      "stateMutability": "nonpayable",
      "type": "function"
    },
    {
      "inputs": [
        {
          "internalType": "address",
          "name": "account",
          "type": "address"
        }
      ],
      "name": "setGuardian",
      "outputs": [],
      "stateMutability": "nonpayable",
      "type": "function"
    },
    {
      "inputs": [
        {
          "internalType": "bytes4",
          "name": "interfaceId",
          "type": "bytes4"
        }
      ],
      "name": "supportsInterface",
      "outputs": [
        {
          "internalType": "bool",
          "name": "",
          "type": "bool"
        }
      ],
      "stateMutability": "view",
      "type": "function"
    },
    {
      "inputs": [
        {
          "internalType": "address",
          "name": "tokenAddress",
          "type": "address"
        }
      ],
      "name": "supportsToken",
      "outputs": [
        {
          "internalType": "bool",
          "name": "",
          "type": "bool"
        }
      ],
      "stateMutability": "view",
      "type": "function"
    },
    {
      "inputs": [
        {
          "internalType": "address",
          "name": "",
          "type": "address"
        }
      ],
      "name": "tokenToAToken",
      "outputs": [
        {
          "internalType": "address",
          "name": "",
          "type": "address"
        }
      ],
      "stateMutability": "view",
      "type": "function"
    },
    {
      "inputs": [],
      "name": "unpause",
      "outputs": [],
      "stateMutability": "nonpayable",
      "type": "function"
    },
    {
      "inputs": [
        {
          "internalType": "address",
          "name": "newImplementation",
          "type": "address"
        }
      ],
      "name": "upgradeTo",
      "outputs": [],
      "stateMutability": "nonpayable",
      "type": "function"
    },
    {
      "inputs": [
        {
          "internalType": "address",
          "name": "newImplementation",
          "type": "address"
        },
        {
          "internalType": "bytes",
          "name": "data",
          "type": "bytes"
        }
      ],
      "name": "upgradeToAndCall",
      "outputs": [],
      "stateMutability": "payable",
      "type": "function"
    },
    {
      "inputs": [
        {
          "internalType": "address",
          "name": "tokenAddress",
          "type": "address"
        },
        {
          "internalType": "address",
          "name": "recipient",
          "type": "address"
        },
        {
          "internalType": "uint256",
          "name": "tokenAmount",
          "type": "uint256"
        }
      ],
      "name": "withdraw",
      "outputs": [],
      "stateMutability": "nonpayable",
      "type": "function"
    },
    {
      "inputs": [
        {
          "internalType": "address",
          "name": "tokenAddress",
          "type": "address"
        },
        {
          "internalType": "address",
          "name": "recipient",
          "type": "address"
        }
      ],
      "name": "withdrawAll",
      "outputs": [],
      "stateMutability": "nonpayable",
      "type": "function"
    }
  ],
  "bytecode": "0x60a06040523060601b60805234801561001757600080fd5b5060805160601c6128a061004b60003960008181610bfe01528181610c3e01528181610f1a0152610f5a01526128a06000f3fe60806040526004361061021a5760003560e01c80636c00c7f0116101235780639a886ee8116100ab578063d391014b1161006f578063d391014b146108ec578063d547741f1461090e578063d9caed1214610947578063ed8a1e54146102d7578063f340fa011461098a57600080fd5b80639a886ee814610806578063a217fddf14610839578063a59a99731461084e578063b9b44d301461086f578063c99c7d93146108b357600080fd5b80638a0dac4a116100f25780638a0dac4a146107235780638bad0c0a14610756578063904d32611461076b57806391d14854146107ac57806394217ad1146107e557600080fd5b80636c00c7f01461066f5780636c461a73146106a857806370480275146106db5780638456cb591461070e57600080fd5b806336568abe116101a65780633f4ba83a116101755780633f4ba83a1461051e57806343060237146105335780634f1ef286146105665780635c975abb1461061c57806369ffa08a1461063457600080fd5b806336568abe146104445780633659cfe61461047d57806337cef791146104b05780633bdbdd3c146104e357600080fd5b8063248a9ca3116101ed578063248a9ca31461031c57806324a3d6221461035657806324d7806c146103975780632f2ff15d146103ca578063363f68ce1461040357600080fd5b806301ffc9a71461021f578063061f76501461026757806309cae2c81461029a5780631fd433aa146102d7575b600080fd5b34801561022b57600080fd5b506102536004803603602081101561024257600080fd5b50356001600160e01b0319166109bd565b604080519115158252519081900360200190f35b34801561027357600080fd5b506102536004803603602081101561028a57600080fd5b50356001600160a01b03166109f4565b3480156102a657600080fd5b506102d5600480360360408110156102bd57600080fd5b506001600160a01b03813581169160200135166109ff565b005b3480156102e357600080fd5b5061030a600480360360208110156102fa57600080fd5b50356001600160a01b0316610b20565b60408051918252519081900360200190f35b34801561032857600080fd5b5061030a6004803603602081101561033f57600080fd5b5035600090815260c9602052604090206001015490565b34801561036257600080fd5b5060fc5461037b9061010090046001600160a01b031681565b604080516001600160a01b039092168252519081900360200190f35b3480156103a357600080fd5b50610253600480360360208110156103ba57600080fd5b50356001600160a01b0316610b2b565b3480156103d657600080fd5b506102d5600480360360408110156103ed57600080fd5b50803590602001356001600160a01b0316610b45565b34801561040f57600080fd5b5061030a6004803603602081101561042657600080fd5b50610132602052356001600160a01b03166000908152604090205481565b34801561045057600080fd5b506102d56004803603604081101561046757600080fd5b50803590602001356001600160a01b0316610b70565b34801561048957600080fd5b506102d5600480360360208110156104a057600080fd5b50356001600160a01b0316610bf3565b3480156104bc57600080fd5b5061030a600480360360208110156104d357600080fd5b50356001600160a01b0316610cbc565b3480156104ef57600080fd5b506102d56004803603604081101561050657600080fd5b506001600160a01b0381358116916020013516610d56565b34801561052a57600080fd5b506102d5610dfe565b34801561053f57600080fd5b506102d56004803603602081101561055657600080fd5b50356001600160a01b0316610eb8565b6102d56004803603604081101561057c57600080fd5b6001600160a01b0382351691908101906040810160208201356401000000008111156105a757600080fd5b8201836020820111156105b957600080fd5b803590602001918460018302840111640100000000831117156105db57600080fd5b91908080601f016020809104026020016040519081016040528093929190818152602001838380828437600092019190915250929550610f0f945050505050565b34801561062857600080fd5b5060fc5460ff16610253565b34801561064057600080fd5b506102d56004803603604081101561065757600080fd5b506001600160a01b0381358116916020013516610fc5565b34801561067b57600080fd5b506102d56004803603604081101561069257600080fd5b506001600160a01b038135169060200135611019565b3480156106b457600080fd5b506102d5600480360360208110156106cb57600080fd5b50356001600160a01b031661106a565b3480156106e757600080fd5b506102d5600480360360208110156106fe57600080fd5b50356001600160a01b031661119a565b34801561071a57600080fd5b506102d56112d2565b34801561072f57600080fd5b506102d56004803603602081101561074657600080fd5b50356001600160a01b0316611386565b34801561076257600080fd5b506102d56113e2565b34801561077757600080fd5b5061030a6004803603602081101561078e57600080fd5b50610131602052356001600160a01b03166000908152604090205481565b3480156107b857600080fd5b50610253600480360360408110156107cf57600080fd5b50803590602001356001600160a01b0316611419565b3480156107f157600080fd5b506101305461037b906001600160a01b031681565b34801561081257600080fd5b506102d56004803603602081101561082957600080fd5b50356001600160a01b0316611444565b34801561084557600080fd5b5061030a600081565b34801561085a57600080fd5b506101335461037b906001600160a01b031681565b34801561087b57600080fd5b5061037b6004803603602081101561089257600080fd5b5061012f6020526001600160a01b0390358116600090815260409020541681565b3480156108bf57600080fd5b506102d5600480360360408110156108d657600080fd5b506001600160a01b038135169060200135611569565b3480156108f857600080fd5b5061030a6000805160206127fe83398151915281565b34801561091a57600080fd5b506102d56004803603604081101561093157600080fd5b50803590602001356001600160a01b03166115ba565b34801561095357600080fd5b506102d56004803603606081101561096a57600080fd5b506001600160a01b038135811691602081013590911690604001356115e0565b34801561099657600080fd5b506102d5600480360360208110156109ad57600080fd5b50356001600160a01b0316611701565b60006001600160e01b03198216637965db0b60e01b14806109ee57506301ffc9a760e01b6001600160e01b03198316145b92915050565b60006109ee82611837565b610130546001600160a01b03163314610a495760405162461bcd60e51b81526004018080602001828103825260288152602001806127d66028913960400191505060405180910390fd5b81610a5381611837565b610aa4576040805162461bcd60e51b815260206004820181905260248201527f41617665416461707465723a20546f6b656e206e6f7420737570706f72746564604482015290519081900360640190fd5b6101335460408051631a4ca37b60e21b81526001600160a01b03868116600483015260001960248301528581166044830152915191909216916369328dec91606480830192600092919082900301818387803b158015610b0357600080fd5b505af1158015610b17573d6000803e3d6000fd5b50505050505050565b60006109ee82611858565b60006109ee6000805160206127fe83398151915283611419565b600082815260c96020526040902060010154610b618133611900565b610b6b8383611964565b505050565b6001600160a01b0381163314610be55760405162461bcd60e51b815260206004820152602f60248201527f416363657373436f6e74726f6c3a2063616e206f6e6c792072656e6f756e636560448201526e103937b632b9903337b91039b2b63360891b60648201526084015b60405180910390fd5b610bef82826119ea565b5050565b306001600160a01b037f0000000000000000000000000000000000000000000000000000000000000000161415610c3c5760405162461bcd60e51b8152600401610bdc906125de565b7f00000000000000000000000000000000000000000000000000000000000000006001600160a01b0316610c6e611a51565b6001600160a01b031614610c945760405162461bcd60e51b8152600401610bdc9061262a565b610c9d81611a7f565b60408051600080825260208201909252610cb991839190611ab3565b50565b61013354604080516335ea6a7560e01b81526001600160a01b0384811660048301529151600093849316916335ea6a7591602480830192610180929190829003018186803b158015610d0d57600080fd5b505afa158015610d21573d6000803e3d6000fd5b505050506040513d610180811015610d3857600080fd5b50606001516fffffffffffffffffffffffffffffffff169392505050565b600054610100900460ff1680610d6f575060005460ff16155b610d8b5760405162461bcd60e51b8152600401610bdc906126f7565b600054610100900460ff16158015610dad576000805461ffff19166101011790555b610db63361106a565b61013080546001600160a01b038086166001600160a01b0319928316179092556101338054928516929091169190911790558015610b6b576000805461ff0019169055505050565b60fc5461010090046001600160a01b03163314610e2d5760405162461bcd60e51b8152600401610bdc906126a5565b60fc5460ff16610e785760405162461bcd60e51b815260206004820152601660248201527510dbdb9d1c9bdb1b195c8e881b9bdd081c185d5cd95960521b6044820152606401610bdc565b60fc805460ff191690556040513381527f5db9ee0a495bf2e6ff9c91a7834c1ba4fdd244a5e8aa4e537bd38aeae4b073aa906020015b60405180910390a1565b610ed06000805160206127fe83398151915233611419565b610eec5760405162461bcd60e51b8152600401610bdc90612676565b61013080546001600160a01b0319166001600160a01b0392909216919091179055565b306001600160a01b037f0000000000000000000000000000000000000000000000000000000000000000161415610f585760405162461bcd60e51b8152600401610bdc906125de565b7f00000000000000000000000000000000000000000000000000000000000000006001600160a01b0316610f8a611a51565b6001600160a01b031614610fb05760405162461bcd60e51b8152600401610bdc9061262a565b610fb982611a7f565b610bef82826001611ab3565b610130546001600160a01b0316331461100f5760405162461bcd60e51b81526004018080602001828103825260288152602001806127d66028913960400191505060405180910390fd5b610bef8282611bfe565b6110316000805160206127fe83398151915233611419565b61104d5760405162461bcd60e51b8152600401610bdc90612676565b6001600160a01b0390911660009081526101326020526040902055565b600054610100900460ff1680611083575060005460ff16155b61109f5760405162461bcd60e51b8152600401610bdc906126f7565b600054610100900460ff161580156110c1576000805461ffff19166101011790555b6001600160a01b0382166111125760405162461bcd60e51b8152602060048201526018602482015277436f6e74726f6c6c65723a2061646472657373207a65726f60401b6044820152606401610bdc565b60fc805460ff191690556001600160a01b038216600081815260fb6020526040902080546001600160a01b031916909117905561114d611cd6565b6111656000805160206127fe83398151915283611d51565b60fc8054610100600160a81b0319166101006001600160a01b038516021790558015610bef576000805461ff00191690555050565b6111b26000805160206127fe83398151915233611419565b6111ce5760405162461bcd60e51b8152600401610bdc90612676565b6001600160a01b03811661121f5760405162461bcd60e51b8152602060048201526018602482015277436f6e74726f6c6c65723a2061646472657373207a65726f60401b6044820152606401610bdc565b6001600160a01b03818116600090815260fb602052604090205416156112915760405162461bcd60e51b815260206004820152602160248201527f436f6e74726f6c6c65723a2061646d696e20616c7265616479206578697374656044820152601960fa1b6064820152608401610bdc565b6001600160a01b038116600081815260fb6020526040902080546001600160a01b0319169091179055610cb96000805160206127fe83398151915282611d51565b60fc5461010090046001600160a01b031633146113015760405162461bcd60e51b8152600401610bdc906126a5565b60fc5460ff16156113495760405162461bcd60e51b815260206004820152601260248201527110dbdb9d1c9bdb1b195c8e881c185d5cd95960721b6044820152606401610bdc565b60fc805460ff191660011790556040513381527f62e78cea01bee320cd4e420270b5ea74000d11b0c9f74754ebdbfc544b05a25890602001610eae565b61139e6000805160206127fe83398151915233611419565b6113ba5760405162461bcd60e51b8152600401610bdc90612676565b60fc80546001600160a01b0390921661010002610100600160a81b0319909216919091179055565b6113fa6000805160206127fe83398151915233610b70565b33600090815260fb6020526040902080546001600160a01b0319169055565b600091825260c9602090815260408084206001600160a01b0393909316845291905290205460ff1690565b61145c6000805160206127fe83398151915233611419565b6114785760405162461bcd60e51b8152600401610bdc90612676565b61013354604080516335ea6a7560e01b81526001600160a01b038481166004830152915160009392909216916335ea6a759160248082019261018092909190829003018186803b1580156114cb57600080fd5b505afa1580156114df573d6000803e3d6000fd5b505050506040513d6101808110156114f657600080fd5b5060e0015161013354909150829061151c906001600160a01b0380841691166000611d5b565b61013354611539906001600160a01b038381169116600019611d5b565b506001600160a01b03918216600090815261012f6020526040902080546001600160a01b03191691909216179055565b6115816000805160206127fe83398151915233611419565b61159d5760405162461bcd60e51b8152600401610bdc90612676565b6001600160a01b0390911660009081526101316020526040902055565b600082815260c960205260409020600101546115d68133611900565b610b6b83836119ea565b610130546001600160a01b0316331461162a5760405162461bcd60e51b81526004018080602001828103825260288152602001806127d66028913960400191505060405180910390fd5b8261163481611837565b611685576040805162461bcd60e51b815260206004820181905260248201527f41617665416461707465723a20546f6b656e206e6f7420737570706f72746564604482015290519081900360640190fd5b6101335460408051631a4ca37b60e21b81526001600160a01b038781166004830152602482018690528681166044830152915191909216916369328dec91606480830192600092919082900301818387803b1580156116e357600080fd5b505af11580156116f7573d6000803e3d6000fd5b5050505050505050565b8061170b81611837565b61175c576040805162461bcd60e51b815260206004820181905260248201527f41617665416461707465723a20546f6b656e206e6f7420737570706f72746564604482015290519081900360640190fd5b604080516370a0823160e01b8152306004820152905183916000916001600160a01b038416916370a08231916024808301926020929190829003018186803b1580156117a757600080fd5b505afa1580156117bb573d6000803e3d6000fd5b505050506040513d60208110156117d157600080fd5b5051610133546040805163e8eda9df60e01b81526001600160a01b0388811660048301526024820185905230604483015260006064830181905292519495509092169263e8eda9df92608480820193929182900301818387803b1580156116e357600080fd5b6001600160a01b03908116600090815261012f602052604090205416151590565b6001600160a01b03808216600090815261012f602090815260408083205481516370a0823160e01b81523060048201529151939416928392859284926370a0823192602480840193919291829003018186803b1580156118b757600080fd5b505afa1580156118cb573d6000803e3d6000fd5b505050506040513d60208110156118e157600080fd5b50519050600a81116118f857506000949350505050565b949350505050565b61190a8282611419565b610bef57611922816001600160a01b03166014611eb2565b61192d836020611eb2565b60405160200161193e929190612536565b60408051601f198184030181529082905262461bcd60e51b8252610bdc916004016125ab565b61196e8282611419565b610bef57600082815260c9602090815260408083206001600160a01b03851684529091529020805460ff191660011790556119a63390565b6001600160a01b0316816001600160a01b0316837f2f8788117e7eff1d82e926ec794901d17c78024a50270940304540a733656f0d60405160405180910390a45050565b6119f48282611419565b15610bef57600082815260c9602090815260408083206001600160a01b0385168085529252808320805460ff1916905551339285917ff6391f5c32d9c69d2a47ea670b442974b53935d1edc7fd64eb21e047a839171b9190a45050565b7f360894a13ba1a3210667c828492db98dca3e2076cc3735a920a3ca505d382bbc546001600160a01b031690565b611a976000805160206127fe83398151915233611419565b610cb95760405162461bcd60e51b8152600401610bdc90612676565b6000611abd611a51565b9050611ac88461209b565b600083511180611ad55750815b15611ae657611ae48484612140565b505b7f4910fdfa16fed3260ed0e7147f7cc6da11a60208b5b9406d12a635614ffd9143805460ff16611bf757805460ff191660011781556040516001600160a01b0383166024820152611b6590869060440160408051601f198184030181529190526020810180516001600160e01b0316631b2ce7f360e11b179052612140565b50805460ff19168155611b76611a51565b6001600160a01b0316826001600160a01b031614611bee5760405162461bcd60e51b815260206004820152602f60248201527f45524331393637557067726164653a207570677261646520627265616b73206660448201526e75727468657220757067726164657360881b6064820152608401610bdc565b611bf78561222b565b5050505050565b6001600160a01b038116611c435760405162461bcd60e51b81526004018080602001828103825260268152602001806128456026913960400191505060405180910390fd5b604080516370a0823160e01b8152306004820152905183916000916001600160a01b038416916370a08231916024808301926020929190829003018186803b158015611c8e57600080fd5b505afa158015611ca2573d6000803e3d6000fd5b505050506040513d6020811015611cb857600080fd5b50519050611cd06001600160a01b038316848361226b565b50505050565b600054610100900460ff1680611cef575060005460ff16155b611d0b5760405162461bcd60e51b8152600401610bdc906126f7565b600054610100900460ff16158015611d2d576000805461ffff19166101011790555b611d3561229b565b611d3d61229b565b8015610cb9576000805461ff001916905550565b610bef8282611964565b801580611de45750604051636eb1769f60e11b81523060048201526001600160a01b03838116602483015284169063dd62ed3e9060440160206040518083038186803b158015611daa57600080fd5b505afa158015611dbe573d6000803e3d6000fd5b505050506040513d601f19601f82011682018060405250810190611de29190612502565b155b611e4f5760405162461bcd60e51b815260206004820152603660248201527f5361666545524332303a20617070726f76652066726f6d206e6f6e2d7a65726f60448201527520746f206e6f6e2d7a65726f20616c6c6f77616e636560501b6064820152608401610bdc565b6040516001600160a01b038316602482015260448101829052610b6b90849063095ea7b360e01b906064015b60408051601f198184030181529190526020810180516001600160e01b03166001600160e01b031990931692909217909152612305565b60606000611ec183600261275d565b611ecc906002612745565b67ffffffffffffffff811115611ef257634e487b7160e01b600052604160045260246000fd5b6040519080825280601f01601f191660200182016040528015611f1c576020820181803683370190505b509050600360fc1b81600081518110611f4557634e487b7160e01b600052603260045260246000fd5b60200101906001600160f81b031916908160001a905350600f60fb1b81600181518110611f8257634e487b7160e01b600052603260045260246000fd5b60200101906001600160f81b031916908160001a9053506000611fa684600261275d565b611fb1906001612745565b90505b6001811115612045576f181899199a1a9b1b9c1cb0b131b232b360811b85600f1660108110611ff357634e487b7160e01b600052603260045260246000fd5b1a60f81b82828151811061201757634e487b7160e01b600052603260045260246000fd5b60200101906001600160f81b031916908160001a90535060049490941c9361203e816127a8565b9050611fb4565b5083156120945760405162461bcd60e51b815260206004820181905260248201527f537472696e67733a20686578206c656e67746820696e73756666696369656e746044820152606401610bdc565b9392505050565b803b6120ff5760405162461bcd60e51b815260206004820152602d60248201527f455243313936373a206e657720696d706c656d656e746174696f6e206973206e60448201526c1bdd08184818dbdb9d1c9858dd609a1b6064820152608401610bdc565b7f360894a13ba1a3210667c828492db98dca3e2076cc3735a920a3ca505d382bbc80546001600160a01b0319166001600160a01b0392909216919091179055565b6060823b61219f5760405162461bcd60e51b815260206004820152602660248201527f416464726573733a2064656c65676174652063616c6c20746f206e6f6e2d636f6044820152651b9d1c9858dd60d21b6064820152608401610bdc565b600080846001600160a01b0316846040516121ba919061251a565b600060405180830381855af49150503d80600081146121f5576040519150601f19603f3d011682016040523d82523d6000602084013e6121fa565b606091505b5091509150612222828260405180606001604052806027815260200161281e602791396123d7565b95945050505050565b6122348161209b565b6040516001600160a01b038216907fbc7cd75a20ee27fd9adebab32041f755214dbc6bffa90cc0225b39da2e5c2d3b90600090a250565b6040516001600160a01b038316602482015260448101829052610b6b90849063a9059cbb60e01b90606401611e7b565b600054610100900460ff16806122b4575060005460ff16155b6122d05760405162461bcd60e51b8152600401610bdc906126f7565b600054610100900460ff16158015611d3d576000805461ffff19166101011790558015610cb9576000805461ff001916905550565b600061235a826040518060400160405280602081526020017f5361666545524332303a206c6f772d6c6576656c2063616c6c206661696c6564815250856001600160a01b03166124109092919063ffffffff16565b805190915015610b6b578080602001905181019061237891906124e2565b610b6b5760405162461bcd60e51b815260206004820152602a60248201527f5361666545524332303a204552433230206f7065726174696f6e20646964206e6044820152691bdd081cdd58d8d9595960b21b6064820152608401610bdc565b606083156123e6575081612094565b8251156123f65782518084602001fd5b8160405162461bcd60e51b8152600401610bdc91906125ab565b60606118f8848460008585843b6124695760405162461bcd60e51b815260206004820152601d60248201527f416464726573733a2063616c6c20746f206e6f6e2d636f6e74726163740000006044820152606401610bdc565b600080866001600160a01b03168587604051612485919061251a565b60006040518083038185875af1925050503d80600081146124c2576040519150601f19603f3d011682016040523d82523d6000602084013e6124c7565b606091505b50915091506124d78282866123d7565b979650505050505050565b6000602082840312156124f3578081fd5b81518015158114612094578182fd5b600060208284031215612513578081fd5b5051919050565b6000825161252c81846020870161277c565b9190910192915050565b7f416363657373436f6e74726f6c3a206163636f756e742000000000000000000081526000835161256e81601785016020880161277c565b7001034b99036b4b9b9b4b733903937b6329607d1b601791840191820152835161259f81602884016020880161277c565b01602801949350505050565b60208152600082518060208401526125ca81604085016020870161277c565b601f01601f19169190910160400192915050565b6020808252602c908201527f46756e6374696f6e206d7573742062652063616c6c6564207468726f7567682060408201526b19195b1959d85d1958d85b1b60a21b606082015260800190565b6020808252602c908201527f46756e6374696f6e206d7573742062652063616c6c6564207468726f7567682060408201526b6163746976652070726f787960a01b606082015260800190565b60208082526015908201527421b7b73a3937b63632b91d103737ba1030b236b4b760591b604082015260600190565b60208082526032908201527f436f6e74726f6c6c65723a2063616c6c657220646f6573206e6f7420686176656040820152712074686520677561726469616e20726f6c6560701b606082015260800190565b6020808252602e908201527f496e697469616c697a61626c653a20636f6e747261637420697320616c72656160408201526d191e481a5b9a5d1a585b1a5e995960921b606082015260800190565b60008219821115612758576127586127bf565b500190565b6000816000190483118215151615612777576127776127bf565b500290565b60005b8381101561279757818101518382015260200161277f565b83811115611cd05750506000910152565b6000816127b7576127b76127bf565b506000190190565b634e487b7160e01b600052601160045260246000fdfe41617665416461707465723a206f6e6c79206173736574206d616e616765722063616e2063616c6c2172861495e7b85edac73e3cd5fbb42dd675baadf627720e687bcfdaca025096416464726573733a206c6f772d6c6576656c2064656c65676174652063616c6c206661696c656441617665416461707465723a20526563697069656e742063616e206e6f74206265207a65726fa2646970667358221220edbc8d4a97a0929c30e7366ddc51e2b7d2a6e074f9f52bc128b7e4b87c10867764736f6c63430008040033",
  "linkReferences": {},
  "deployedLinkReferences": {}
}