{"abi":[{"type":"constructor","inputs":[{"name":"_priceOracle","type":"address","internalType":"address"},{"name":"_savingsAccount","type":"address","internalType":"address"},{"name":"_repaymentImpl","type":"address","internalType":"address"},{"name":"_poolFactory","type":"address","internalType":"address"}],"stateMutability":"nonpayable"},{"type":"function","name":"addCollateralInMarginCall","inputs":[{"name":"_lender","type":"address","internalType":"address"},{"name":"_amount","type":"uint256","internalType":"uint256"},{"name":"_transferFromSavingsAccount","type":"bool","internalType":"bool"}],"outputs":[],"stateMutability":"nonpayable"},{"type":"function","name":"allowance","inputs":[{"name":"owner","type":"address","internalType":"address"},{"name":"spender","type":"address","internalType":"address"}],"outputs":[{"name":"","type":"uint256","internalType":"uint256"}],"stateMutability":"view"},{"type":"function","name":"approve","inputs":[{"name":"spender","type":"address","internalType":"address"},{"name":"amount","type":"uint256","internalType":"uint256"}],"outputs":[{"name":"","type":"bool","internalType":"bool"}],"stateMutability":"nonpayable"},{"type":"function","name":"balanceOf","inputs":[{"name":"account","type":"address","internalType":"address"}],"outputs":[{"name":"","type":"uint256","internalType":"uint256"}],"stateMutability":"view"},{"type":"function","name":"borrower","inputs":[],"outputs":[{"name":"","type":"address","internalType":"address"}],"stateMutability":"view"},{"type":"function","name":"calculateCollateralRatio","inputs":[{"name":"_balance","type":"uint256","internalType":"uint256"},{"name":"_liquidityShares","type":"uint256","internalType":"uint256"}],"outputs":[{"name":"","type":"uint256","internalType":"uint256"}],"stateMutability":"nonpayable"},{"type":"function","name":"calculateCurrentPeriod","inputs":[],"outputs":[{"name":"","type":"uint256","internalType":"uint256"}],"stateMutability":"view"},{"type":"function","name":"calculateRepaymentWithdrawable","inputs":[{"name":"_lender","type":"address","internalType":"address"}],"outputs":[{"name":"","type":"uint256","internalType":"uint256"}],"stateMutability":"view"},{"type":"function","name":"cancelPool","inputs":[],"outputs":[],"stateMutability":"nonpayable"},{"type":"function","name":"closeLoan","inputs":[],"outputs":[],"stateMutability":"nonpayable"},{"type":"function","name":"correspondingBorrowTokens","inputs":[{"name":"_totalCollateralTokens","type":"uint256","internalType":"uint256"},{"name":"_fraction","type":"uint256","internalType":"uint256"}],"outputs":[{"name":"","type":"uint256","internalType":"uint256"}],"stateMutability":"view"},{"type":"function","name":"decimals","inputs":[],"outputs":[{"name":"","type":"uint8","internalType":"uint8"}],"stateMutability":"view"},{"type":"function","name":"decreaseAllowance","inputs":[{"name":"spender","type":"address","internalType":"address"},{"name":"subtractedValue","type":"uint256","internalType":"uint256"}],"outputs":[{"name":"","type":"bool","internalType":"bool"}],"stateMutability":"nonpayable"},{"type":"function","name":"depositCollateral","inputs":[{"name":"_amount","type":"uint256","internalType":"uint256"},{"name":"_transferFromSavingsAccount","type":"bool","internalType":"bool"}],"outputs":[],"stateMutability":"nonpayable"},{"type":"function","name":"getBalanceDetails","inputs":[{"name":"_lender","type":"address","internalType":"address"}],"outputs":[{"name":"","type":"uint256","internalType":"uint256"},{"name":"","type":"uint256","internalType":"uint256"}],"stateMutability":"view"},{"type":"function","name":"getCurrentCollateralRatio","inputs":[{"name":"_lender","type":"address","internalType":"address"}],"outputs":[{"name":"","type":"uint256","internalType":"uint256"}],"stateMutability":"nonpayable"},{"type":"function","name":"getCurrentCollateralRatio","inputs":[],"outputs":[{"name":"","type":"uint256","internalType":"uint256"}],"stateMutability":"nonpayable"},{"type":"function","name":"getEquivalentTokens","inputs":[{"name":"_source","type":"address","internalType":"address"},{"name":"_target","type":"address","internalType":"address"},{"name":"_amount","type":"uint256","internalType":"uint256"}],"outputs":[{"name":"","type":"uint256","internalType":"uint256"}],"stateMutability":"view"},{"type":"function","name":"getLoanStatus","inputs":[],"outputs":[{"name":"","type":"uint256","internalType":"uint256"}],"stateMutability":"view"},{"type":"function","name":"getMarginCallEndTime","inputs":[{"name":"_lender","type":"address","internalType":"address"}],"outputs":[{"name":"","type":"uint256","internalType":"uint256"}],"stateMutability":"view"},{"type":"function","name":"increaseAllowance","inputs":[{"name":"spender","type":"address","internalType":"address"},{"name":"addedValue","type":"uint256","internalType":"uint256"}],"outputs":[{"name":"","type":"bool","internalType":"bool"}],"stateMutability":"nonpayable"},{"type":"function","name":"initialize","inputs":[{"name":"_borrowAmountRequested","type":"uint256","internalType":"uint256"},{"name":"_borrowRate","type":"uint256","internalType":"uint256"},{"name":"_borrower","type":"address","internalType":"address"},{"name":"_borrowAsset","type":"address","internalType":"address"},{"name":"_collateralAsset","type":"address","internalType":"address"},{"name":"_idealCollateralRatio","type":"uint256","internalType":"uint256"},{"name":"_repaymentInterval","type":"uint64","internalType":"uint64"},{"name":"_noOfRepaymentIntervals","type":"uint64","internalType":"uint64"},{"name":"_poolSavingsStrategy","type":"address","internalType":"address"},{"name":"_collateralAmount","type":"uint256","internalType":"uint256"},{"name":"_transferFromSavingsAccount","type":"bool","internalType":"bool"},{"name":"_lenderVerifier","type":"address","internalType":"address"},{"name":"_loanWithdrawalDuration","type":"uint256","internalType":"uint256"},{"name":"_collectionPeriod","type":"uint256","internalType":"uint256"}],"outputs":[],"stateMutability":"nonpayable"},{"type":"function","name":"interestPerPeriod","inputs":[{"name":"_balance","type":"uint256","internalType":"uint256"}],"outputs":[{"name":"","type":"uint256","internalType":"uint256"}],"stateMutability":"view"},{"type":"function","name":"interestPerSecond","inputs":[{"name":"_principal","type":"uint256","internalType":"uint256"}],"outputs":[{"name":"","type":"uint256","internalType":"uint256"}],"stateMutability":"view"},{"type":"function","name":"interestToPay","inputs":[],"outputs":[{"name":"","type":"uint256","internalType":"uint256"}],"stateMutability":"view"},{"type":"function","name":"lend","inputs":[{"name":"_lender","type":"address","internalType":"address"},{"name":"_amount","type":"uint256","internalType":"uint256"},{"name":"_strategy","type":"address","internalType":"address"},{"name":"_fromSavingsAccount","type":"bool","internalType":"bool"}],"outputs":[],"stateMutability":"nonpayable"},{"type":"function","name":"lenders","inputs":[{"name":"","type":"address","internalType":"address"}],"outputs":[{"name":"marginCallEndTime","type":"uint256","internalType":"uint256"},{"name":"effectiveInterestWithdrawn","type":"uint256","internalType":"uint256"},{"name":"extraLiquidityShares","type":"uint256","internalType":"uint256"}],"stateMutability":"view"},{"type":"function","name":"liquidateCancelPenalty","inputs":[{"name":"_toSavingsAccount","type":"bool","internalType":"bool"},{"name":"_receiveLiquidityShare","type":"bool","internalType":"bool"}],"outputs":[],"stateMutability":"nonpayable"},{"type":"function","name":"liquidateForLender","inputs":[{"name":"_lender","type":"address","internalType":"address"},{"name":"_fromSavingsAccount","type":"bool","internalType":"bool"},{"name":"_toSavingsAccount","type":"bool","internalType":"bool"},{"name":"_recieveLiquidityShare","type":"bool","internalType":"bool"}],"outputs":[],"stateMutability":"nonpayable"},{"type":"function","name":"liquidatePool","inputs":[{"name":"_fromSavingsAccount","type":"bool","internalType":"bool"},{"name":"_toSavingsAccount","type":"bool","internalType":"bool"},{"name":"_recieveLiquidityShare","type":"bool","internalType":"bool"}],"outputs":[],"stateMutability":"nonpayable"},{"type":"function","name":"name","inputs":[],"outputs":[{"name":"","type":"string","internalType":"string"}],"stateMutability":"view"},{"type":"function","name":"paused","inputs":[],"outputs":[{"name":"","type":"bool","internalType":"bool"}],"stateMutability":"view"},{"type":"function","name":"poolConstants","inputs":[],"outputs":[{"name":"loanStartTime","type":"uint64","internalType":"uint64"},{"name":"loanWithdrawalDeadline","type":"uint64","internalType":"uint64"},{"name":"noOfRepaymentIntervals","type":"uint64","internalType":"uint64"},{"name":"repaymentInterval","type":"uint64","internalType":"uint64"},{"name":"borrower","type":"address","internalType":"address"},{"name":"collateralAsset","type":"address","internalType":"address"},{"name":"borrowAsset","type":"address","internalType":"address"},{"name":"poolSavingsStrategy","type":"address","internalType":"address"},{"name":"lenderVerifier","type":"address","internalType":"address"},{"name":"borrowRate","type":"uint256","internalType":"uint256"},{"name":"idealCollateralRatio","type":"uint256","internalType":"uint256"},{"name":"borrowAmountRequested","type":"uint256","internalType":"uint256"}],"stateMutability":"view"},{"type":"function","name":"poolVariables","inputs":[],"outputs":[{"name":"loanStatus","type":"uint8","internalType":"enum IPool.LoanStatus"},{"name":"baseLiquidityShares","type":"uint256","internalType":"uint256"},{"name":"extraLiquidityShares","type":"uint256","internalType":"uint256"},{"name":"penaltyLiquidityAmount","type":"uint256","internalType":"uint256"}],"stateMutability":"view"},{"type":"function","name":"requestMarginCall","inputs":[],"outputs":[],"stateMutability":"nonpayable"},{"type":"function","name":"symbol","inputs":[],"outputs":[{"name":"","type":"string","internalType":"string"}],"stateMutability":"view"},{"type":"function","name":"terminatePool","inputs":[],"outputs":[],"stateMutability":"nonpayable"},{"type":"function","name":"totalSupply","inputs":[],"outputs":[{"name":"","type":"uint256","internalType":"uint256"}],"stateMutability":"view"},{"type":"function","name":"transfer","inputs":[{"name":"recipient","type":"address","internalType":"address"},{"name":"amount","type":"uint256","internalType":"uint256"}],"outputs":[{"name":"","type":"bool","internalType":"bool"}],"stateMutability":"nonpayable"},{"type":"function","name":"transferFrom","inputs":[{"name":"sender","type":"address","internalType":"address"},{"name":"recipient","type":"address","internalType":"address"},{"name":"amount","type":"uint256","internalType":"uint256"}],"outputs":[{"name":"","type":"bool","internalType":"bool"}],"stateMutability":"nonpayable"},{"type":"function","name":"withdrawBorrowedAmount","inputs":[],"outputs":[],"stateMutability":"nonpayable"},{"type":"function","name":"withdrawLiquidity","inputs":[],"outputs":[],"stateMutability":"nonpayable"},{"type":"function","name":"withdrawRepayment","inputs":[],"outputs":[],"stateMutability":"nonpayable"},{"type":"event","name":"AmountBorrowed","inputs":[{"name":"amount","type":"uint256","indexed":false,"internalType":"uint256"},{"name":"protocolFee","type":"uint256","indexed":false,"internalType":"uint256"}],"anonymous":false},{"type":"event","name":"Approval","inputs":[{"name":"owner","type":"address","indexed":true,"internalType":"address"},{"name":"spender","type":"address","indexed":true,"internalType":"address"},{"name":"value","type":"uint256","indexed":false,"internalType":"uint256"}],"anonymous":false},{"type":"event","name":"CollateralAdded","inputs":[{"name":"borrower","type":"address","indexed":true,"internalType":"address"},{"name":"amount","type":"uint256","indexed":false,"internalType":"uint256"},{"name":"sharesReceived","type":"uint256","indexed":false,"internalType":"uint256"}],"anonymous":false},{"type":"event","name":"CollateralWithdrawn","inputs":[{"name":"borrower","type":"address","indexed":true,"internalType":"address"},{"name":"amount","type":"uint256","indexed":false,"internalType":"uint256"}],"anonymous":false},{"type":"event","name":"LenderLiquidated","inputs":[{"name":"liquidator","type":"address","indexed":true,"internalType":"address"},{"name":"lender","type":"address","indexed":true,"internalType":"address"},{"name":"_tokenReceived","type":"uint256","indexed":false,"internalType":"uint256"}],"anonymous":false},{"type":"event","name":"LiquiditySupplied","inputs":[{"name":"amountSupplied","type":"uint256","indexed":false,"internalType":"uint256"},{"name":"lenderAddress","type":"address","indexed":true,"internalType":"address"}],"anonymous":false},{"type":"event","name":"LiquidityWithdrawn","inputs":[{"name":"amount","type":"uint256","indexed":false,"internalType":"uint256"},{"name":"lenderAddress","type":"address","indexed":true,"internalType":"address"}],"anonymous":false},{"type":"event","name":"MarginCallCollateralAdded","inputs":[{"name":"borrower","type":"address","indexed":true,"internalType":"address"},{"name":"lender","type":"address","indexed":true,"internalType":"address"},{"name":"amount","type":"uint256","indexed":false,"internalType":"uint256"},{"name":"sharesReceived","type":"uint256","indexed":false,"internalType":"uint256"}],"anonymous":false},{"type":"event","name":"MarginCalled","inputs":[{"name":"lenderAddress","type":"address","indexed":true,"internalType":"address"}],"anonymous":false},{"type":"event","name":"Paused","inputs":[{"name":"account","type":"address","indexed":false,"internalType":"address"}],"anonymous":false},{"type":"event","name":"PoolCancelled","inputs":[],"anonymous":false},{"type":"event","name":"PoolClosed","inputs":[],"anonymous":false},{"type":"event","name":"PoolLiquidated","inputs":[{"name":"liquidator","type":"address","indexed":true,"internalType":"address"}],"anonymous":false},{"type":"event","name":"PoolTerminated","inputs":[],"anonymous":false},{"type":"event","name":"Transfer","inputs":[{"name":"from","type":"address","indexed":true,"internalType":"address"},{"name":"to","type":"address","indexed":true,"internalType":"address"},{"name":"value","type":"uint256","indexed":false,"internalType":"uint256"}],"anonymous":false},{"type":"event","name":"Unpaused","inputs":[{"name":"account","type":"address","indexed":false,"internalType":"address"}],"anonymous":false}],"bytecode":{"object":"0x6101006040523480156200001257600080fd5b5060405162009e0738038062009e07833981810160405260808110156200003857600080fd5b8101908080519060200190929190805190602001909291908051906020019092919080519060200190929190505050600073ffffffffffffffffffffffffffffffffffffffff168473ffffffffffffffffffffffffffffffffffffffff1614156200010b576040517f08c379a00000000000000000000000000000000000000000000000000000000081526004018080602001828103825260048152602001807f503a43310000000000000000000000000000000000000000000000000000000081525060200191505060405180910390fd5b600073ffffffffffffffffffffffffffffffffffffffff168373ffffffffffffffffffffffffffffffffffffffff161415620001af576040517f08c379a00000000000000000000000000000000000000000000000000000000081526004018080602001828103825260048152602001807f503a43320000000000000000000000000000000000000000000000000000000081525060200191505060405180910390fd5b600073ffffffffffffffffffffffffffffffffffffffff168273ffffffffffffffffffffffffffffffffffffffff16141562000253576040517f08c379a00000000000000000000000000000000000000000000000000000000081526004018080602001828103825260048152602001807f503a43330000000000000000000000000000000000000000000000000000000081525060200191505060405180910390fd5b600073ffffffffffffffffffffffffffffffffffffffff168173ffffffffffffffffffffffffffffffffffffffff161415620002f7576040517f08c379a00000000000000000000000000000000000000000000000000000000081526004018080602001828103825260048152602001807f503a43340000000000000000000000000000000000000000000000000000000081525060200191505060405180910390fd5b8373ffffffffffffffffffffffffffffffffffffffff1660808173ffffffffffffffffffffffffffffffffffffffff1660601b815250508273ffffffffffffffffffffffffffffffffffffffff1660a08173ffffffffffffffffffffffffffffffffffffffff1660601b815250508173ffffffffffffffffffffffffffffffffffffffff1660c08173ffffffffffffffffffffffffffffffffffffffff1660601b815250508073ffffffffffffffffffffffffffffffffffffffff1660e08173ffffffffffffffffffffffffffffffffffffffff1660601b815250505050505060805160601c60a05160601c60c05160601c60e05160601c619980620004876000398061126d528061145c5280611c055280612011528061297e5280612fca528061308a52806138ae528061401c528061436352806148ba52806156d652806174de52806183fe52508061162452806125315280612cd6528061426d52806152d0528061874b525080616109528061679752806167cf5280616ac952508061237d52806126bd52506199806000f3fe608060405234801561001057600080fd5b50600436106102695760003560e01c80637489b45111610151578063b2c09233116100c3578063c94db32c11610087578063c94db32c14610ddc578063d2b93bfd14610e18578063d820d4c914610e52578063daf5539e14610e94578063dd62ed3e14610eec578063e70d72d714610f6457610269565b8063b2c0923314610c59578063bda9e06b14610cb8578063bde5ef3214610cc2578063c145fe6914610d2a578063c4a3702f14610d8457610269565b8063899883631161011557806389988363146109b157806395d89b4114610ae657806395f3f45614610b69578063a457c2d714610b73578063a9059cbb14610bd7578063acc1ab1314610c3b57610269565b80637489b451146108e35780637729886f146108ed5780637aa9f4a7146109355780637df1f1b9146109735780637ea382c1146109a757610269565b806339509351116101ea5780635695d52d116101ae5780635695d52d146106725780635afaa80f146106905780635c975abb146107125780636886c8141461073257806370a08231146108335780637320fc291461088b57610269565b806339509351146104f2578063411a0dec1461055657806345571276146105d057806346b55fbb146105da5780634d216a511461062657610269565b8063232fa73311610231578063232fa7331461039b57806323b872dd146103a5578063275ac2521461042957806328fd10d71461046b578063313ce567146104d157610269565b806306fdde031461026e578063095ea7b3146102f15780630fc728891461035557806318160ddd146103735780631b55b2a814610391575b600080fd5b610276610f82565b6040518080602001828103825283818151815260200191508051906020019080838360005b838110156102b657808201518184015260208101905061029b565b50505050905090810190601f1680156102e35780820380516001836020036101000a031916815260200191505b509250505060405180910390f35b61033d6004803603604081101561030757600080fd5b81019080803573ffffffffffffffffffffffffffffffffffffffff16906020019092919080359060200190929190505050611024565b60405180821515815260200191505060405180910390f35b61035d611042565b6040518082815260200191505060405180910390f35b61037b6110f0565b6040518082815260200191505060405180910390f35b6103996110ff565b005b6103a36115a1565b005b610411600480360360608110156103bb57600080fd5b81019080803573ffffffffffffffffffffffffffffffffffffffff169060200190929190803573ffffffffffffffffffffffffffffffffffffffff16906020019092919080359060200190929190505050611817565b60405180821515815260200191505060405180910390f35b6104556004803603602081101561043f57600080fd5b81019080803590602001909291905050506118f0565b6040518082815260200191505060405180910390f35b6104ad6004803603602081101561048157600080fd5b81019080803573ffffffffffffffffffffffffffffffffffffffff16906020019092919050505061192c565b60405180848152602001838152602001828152602001935050505060405180910390f35b6104d9611956565b604051808260ff16815260200191505060405180910390f35b61053e6004803603604081101561050857600080fd5b81019080803573ffffffffffffffffffffffffffffffffffffffff1690602001909291908035906020019092919050505061196d565b60405180821515815260200191505060405180910390f35b6105ce6004803603608081101561056c57600080fd5b81019080803573ffffffffffffffffffffffffffffffffffffffff16906020019092919080359060200190929190803573ffffffffffffffffffffffffffffffffffffffff169060200190929190803515159060200190929190505050611a20565b005b6105d8611f8e565b005b610610600480360360408110156105f057600080fd5b8101908080359060200190929190803590602001909291905050506121c0565b6040518082815260200191505060405180910390f35b61065c6004803603604081101561063c57600080fd5b810190808035906020019092919080359060200190929190505050612376565b6040518082815260200191505060405180910390f35b61067a61252a565b6040518082815260200191505060405180910390f35b6106fc600480360360608110156106a657600080fd5b81019080803573ffffffffffffffffffffffffffffffffffffffff169060200190929190803573ffffffffffffffffffffffffffffffffffffffff169060200190929190803590602001909291905050506126b6565b6040518082815260200191505060405180910390f35b61071a6127db565b60405180821515815260200191505060405180910390f35b61073a6127f2565b604051808d67ffffffffffffffff1681526020018c67ffffffffffffffff1681526020018b67ffffffffffffffff1681526020018a67ffffffffffffffff1681526020018973ffffffffffffffffffffffffffffffffffffffff1681526020018873ffffffffffffffffffffffffffffffffffffffff1681526020018773ffffffffffffffffffffffffffffffffffffffff1681526020018673ffffffffffffffffffffffffffffffffffffffff1681526020018573ffffffffffffffffffffffffffffffffffffffff1681526020018481526020018381526020018281526020019c5050505050505050505050505060405180910390f35b6108756004803603602081101561084957600080fd5b81019080803573ffffffffffffffffffffffffffffffffffffffff169060200190929190505050612930565b6040518082815260200191505060405180910390f35b6108cd600480360360208110156108a157600080fd5b81019080803573ffffffffffffffffffffffffffffffffffffffff169060200190929190505050612979565b6040518082815260200191505060405180910390f35b6108eb612aa2565b005b6109336004803603606081101561090357600080fd5b81019080803515159060200190929190803515159060200190929190803515159060200190929190505050612bb4565b005b61093d61324e565b6040518085600581111561094d57fe5b815260200184815260200183815260200182815260200194505050505060405180910390f35b61097b61327a565b604051808273ffffffffffffffffffffffffffffffffffffffff16815260200191505060405180910390f35b6109af6132a7565b005b610ae460048036036101c08110156109c857600080fd5b810190808035906020019092919080359060200190929190803573ffffffffffffffffffffffffffffffffffffffff169060200190929190803573ffffffffffffffffffffffffffffffffffffffff169060200190929190803573ffffffffffffffffffffffffffffffffffffffff16906020019092919080359060200190929190803567ffffffffffffffff169060200190929190803567ffffffffffffffff169060200190929190803573ffffffffffffffffffffffffffffffffffffffff16906020019092919080359060200190929190803515159060200190929190803573ffffffffffffffffffffffffffffffffffffffff1690602001909291908035906020019092919080359060200190929190505050613751565b005b610aee613d0e565b6040518080602001828103825283818151815260200191508051906020019080838360005b83811015610b2e578082015181840152602081019050610b13565b50505050905090810190601f168015610b5b5780820380516001836020036101000a031916815260200191505b509250505060405180910390f35b610b71613db0565b005b610bbf60048036036040811015610b8957600080fd5b81019080803573ffffffffffffffffffffffffffffffffffffffff169060200190929190803590602001909291905050506144e8565b60405180821515815260200191505060405180910390f35b610c2360048036036040811015610bed57600080fd5b81019080803573ffffffffffffffffffffffffffffffffffffffff169060200190929190803590602001909291905050506145b5565b60405180821515815260200191505060405180910390f35b610c436145d3565b6040518082815260200191505060405180910390f35b610c9b60048036036020811015610c6f57600080fd5b81019080803573ffffffffffffffffffffffffffffffffffffffff1690602001909291905050506145f9565b604051808381526020018281526020019250505060405180910390f35b610cc0614616565b005b610d2860048036036080811015610cd857600080fd5b81019080803573ffffffffffffffffffffffffffffffffffffffff1690602001909291908035151590602001909291908035151590602001909291908035151590602001909291905050506149fa565b005b610d8260048036036060811015610d4057600080fd5b81019080803573ffffffffffffffffffffffffffffffffffffffff16906020019092919080359060200190929190803515159060200190929190505050614e47565b005b610dc660048036036020811015610d9a57600080fd5b81019080803573ffffffffffffffffffffffffffffffffffffffff1690602001909291905050506152cb565b6040518082815260200191505060405180910390f35b610e1660048036036040811015610df257600080fd5b81019080803515159060200190929190803515159060200190929190505050615428565b005b610e5060048036036040811015610e2e57600080fd5b8101908080359060200190929190803515159060200190929190505050615821565b005b610e7e60048036036020811015610e6857600080fd5b81019080803590602001909291905050506159ad565b6040518082815260200191505060405180910390f35b610ed660048036036020811015610eaa57600080fd5b81019080803573ffffffffffffffffffffffffffffffffffffffff1690602001909291905050506159f4565b6040518082815260200191505060405180910390f35b610f4e60048036036040811015610f0257600080fd5b81019080803573ffffffffffffffffffffffffffffffffffffffff169060200190929190803573ffffffffffffffffffffffffffffffffffffffff169060200190929190505050615a9f565b6040518082815260200191505060405180910390f35b610f6c615b26565b6040518082815260200191505060405180910390f35b606060688054600181600116156101000203166002900480601f01602080910402602001604051908101604052809291908181526020018280546001816001161561010002031660029004801561101a5780601f10610fef5761010080835404028352916020019161101a565b820191906000526020600020905b815481529060010190602001808311610ffd57829003601f168201915b5050505050905090565b6000611038611031615b61565b8484615b69565b6001905092915050565b6000806110e760fc60000160189054906101000a900467ffffffffffffffff1667ffffffffffffffff166110d960fc60000160009054906101000a900467ffffffffffffffff1667ffffffffffffffff166040518060400160405280600681526020017f503a43435031000000000000000000000000000000000000000000000000000081525042615d609092919063ffffffff16565b615e1a90919063ffffffff16565b90508091505090565b60006110fa615ea3565b905090565b60026001541415611178576040517f08c379a000000000000000000000000000000000000000000000000000000000815260040180806020018281038252601f8152602001807f5265656e7472616e637947756172643a207265656e7472616e742063616c6c0081525060200191505060405180910390fd5b6002600181905550600061010560000160009054906101000a900460ff169050600060058111156111a557fe5b8160058111156111b157fe5b14611224576040517f08c379a00000000000000000000000000000000000000000000000000000000081526004018080602001828103825260058152602001807f503a43503100000000000000000000000000000000000000000000000000000081525060200191505060405180910390fd5b600060fc60000160009054906101000a900467ffffffffffffffff1667ffffffffffffffff16905042811080156113325750611328670de0b6b3a764000061131a60fc600801547f000000000000000000000000000000000000000000000000000000000000000073ffffffffffffffffffffffffffffffffffffffff1663c2bb7c8d6040518163ffffffff1660e01b815260040160206040518083038186803b1580156112d157600080fd5b505afa1580156112e5573d6000803e3d6000fd5b505050506040513d60208110156112fb57600080fd5b8101908080519060200190929190505050615ead90919063ffffffff16565b615e1a90919063ffffffff16565b6113306110f0565b105b15611348576113416000615f33565b5050611598565b600060fc60000160089054906101000a900467ffffffffffffffff1667ffffffffffffffff1690504281111561143f5760fc60010160009054906101000a900473ffffffffffffffffffffffffffffffffffffffff1673ffffffffffffffffffffffffffffffffffffffff163373ffffffffffffffffffffffffffffffffffffffff161461143e576040517f08c379a00000000000000000000000000000000000000000000000000000000081526004018080602001828103825260058152602001807f503a43503200000000000000000000000000000000000000000000000000000081525060200191505060405180910390fd5b5b600061010560010154905060006114568484615fc1565b905060007f000000000000000000000000000000000000000000000000000000000000000073ffffffffffffffffffffffffffffffffffffffff1663816a11216040518163ffffffff1660e01b815260040160206040518083038186803b1580156114c057600080fd5b505afa1580156114d4573d6000803e3d6000fd5b505050506040513d60208110156114ea57600080fd5b8101908080519060200190929190505050905060006115856301e13380611577670de0b6b3a76400006115698761155b8a61154d670de0b6b3a764000061153f60fc600601548d615ead90919063ffffffff16565b615e1a90919063ffffffff16565b615ead90919063ffffffff16565b615ead90919063ffffffff16565b615e1a90919063ffffffff16565b615e1a90919063ffffffff16565b905061159081615f33565b505050505050505b60018081905550565b6002600154141561161a576040517f08c379a000000000000000000000000000000000000000000000000000000000815260040180806020018281038252601f8152602001807f5265656e7472616e637947756172643a207265656e7472616e742063616c6c0081525060200191505060405180910390fd5b60026001819055507f000000000000000000000000000000000000000000000000000000000000000073ffffffffffffffffffffffffffffffffffffffff163373ffffffffffffffffffffffffffffffffffffffff16146116e3576040517f08c379a00000000000000000000000000000000000000000000000000000000081526004018080602001828103825260058152602001807f503a4f523100000000000000000000000000000000000000000000000000000081525060200191505060405180910390fd5b600160058111156116f057fe5b61010560000160009054906101000a900460ff16600581111561170f57fe5b14611782576040517f08c379a00000000000000000000000000000000000000000000000000000000081526004018080602001828103825260058152602001807f503a434c3100000000000000000000000000000000000000000000000000000081525060200191505060405180910390fd5b600261010560000160006101000a81548160ff021916908360058111156117a557fe5b02179055506117da60fc60010160009054906101000a900473ffffffffffffffffffffffffffffffffffffffff166000616036565b6117e261618b565b7fd9fd1a29efbd67e74bbcd110e7344e0a2fbc8efd8334b946c1b805670d8d08ea60405160405180910390a160018081905550565b6000611824848484616277565b6118e584611830615b61565b6118e08560405180606001604052806028815260200161983460289139606660008b73ffffffffffffffffffffffffffffffffffffffff1673ffffffffffffffffffffffffffffffffffffffff1681526020019081526020016000206000611896615b61565b73ffffffffffffffffffffffffffffffffffffffff1673ffffffffffffffffffffffffffffffffffffffff1681526020019081526020016000205461653c9092919063ffffffff16565b615b69565b600190509392505050565b6000806119216301e1338061191360fc6006015486615ead90919063ffffffff16565b615e1a90919063ffffffff16565b905080915050919050565b60fb6020528060005260406000206000915090508060000154908060010154908060020154905083565b6000606a60009054906101000a900460ff16905090565b6000611a1661197a615b61565b84611a11856066600061198b615b61565b73ffffffffffffffffffffffffffffffffffffffff1673ffffffffffffffffffffffffffffffffffffffff16815260200190815260200160002060008973ffffffffffffffffffffffffffffffffffffffff1673ffffffffffffffffffffffffffffffffffffffff168152602001908152602001600020546165f690919063ffffffff16565b615b69565b6001905092915050565b60026001541415611a99576040517f08c379a000000000000000000000000000000000000000000000000000000000815260040180806020018281038252601f8152602001807f5265656e7472616e637947756172643a207265656e7472616e742063616c6c0081525060200191505060405180910390fd5b6002600181905550600060fc60050160009054906101000a900473ffffffffffffffffffffffffffffffffffffffff169050600060fc60010160009054906101000a900473ffffffffffffffffffffffffffffffffffffffff1690508073ffffffffffffffffffffffffffffffffffffffff168673ffffffffffffffffffffffffffffffffffffffff1614158015611b5d57503373ffffffffffffffffffffffffffffffffffffffff168173ffffffffffffffffffffffffffffffffffffffff1614155b611bcf576040517f08c379a00000000000000000000000000000000000000000000000000000000081526004018080602001828103825260048152602001807f503a4c310000000000000000000000000000000000000000000000000000000081525060200191505060405180910390fd5b600073ffffffffffffffffffffffffffffffffffffffff168273ffffffffffffffffffffffffffffffffffffffff1614611dd6577f000000000000000000000000000000000000000000000000000000000000000073ffffffffffffffffffffffffffffffffffffffff16635c7460d66040518163ffffffff1660e01b815260040160206040518083038186803b158015611c6957600080fd5b505afa158015611c7d573d6000803e3d6000fd5b505050506040513d6020811015611c9357600080fd5b810190808051906020019092919050505073ffffffffffffffffffffffffffffffffffffffff166302d43dc887846040518363ffffffff1660e01b8152600401808373ffffffffffffffffffffffffffffffffffffffff1681526020018273ffffffffffffffffffffffffffffffffffffffff1681526020019250505060206040518083038186803b158015611d2857600080fd5b505afa158015611d3c573d6000803e3d6000fd5b505050506040513d6020811015611d5257600080fd5b8101908080519060200190929190505050611dd5576040517f08c379a00000000000000000000000000000000000000000000000000000000081526004018080602001828103825260048152602001807f503a4c320000000000000000000000000000000000000000000000000000000081525060200191505060405180910390fd5b5b60006005811115611de357fe5b61010560000160009054906101000a900460ff166005811115611e0257fe5b148015611e31575060fc60000160009054906101000a900467ffffffffffffffff1667ffffffffffffffff1642105b611ea3576040517f08c379a00000000000000000000000000000000000000000000000000000000081526004018080602001828103825260048152602001807f503a4c330000000000000000000000000000000000000000000000000000000081525060200191505060405180910390fd5b600060fc6008015490506000611eb76110f0565b905081611ecd828961667e90919063ffffffff16565b1115611ee957611ee6818361670690919063ffffffff16565b96505b600060fc60030160009054906101000a900473ffffffffffffffffffffffffffffffffffffffff169050611f23818833308c8b6000616789565b50611f2e898961680b565b8873ffffffffffffffffffffffffffffffffffffffff167ff09dbebdc018e2d81469b76b813a178bbc38dde6fd1056134b68f291a58802e2896040518082815260200191505060405180910390a250505050506001808190555050505050565b60026001541415612007576040517f08c379a000000000000000000000000000000000000000000000000000000000815260040180806020018281038252601f8152602001807f5265656e7472616e637947756172643a207265656e7472616e742063616c6c0081525060200191505060405180910390fd5b60026001819055507f000000000000000000000000000000000000000000000000000000000000000073ffffffffffffffffffffffffffffffffffffffff16638da5cb5b6040518163ffffffff1660e01b815260040160206040518083038186803b15801561207557600080fd5b505afa158015612089573d6000803e3d6000fd5b505050506040513d602081101561209f57600080fd5b810190808051906020019092919050505073ffffffffffffffffffffffffffffffffffffffff163373ffffffffffffffffffffffffffffffffffffffff1614612150576040517f08c379a00000000000000000000000000000000000000000000000000000000081526004018080602001828103825260058152602001807f503a4f4f3100000000000000000000000000000000000000000000000000000081525060200191505060405180910390fd5b61215b336000616036565b61216361618b565b600561010560000160006101000a81548160ff0219169083600581111561218657fe5b02179055507f07d64959f11f8107f710e3e88140e45b57efb9e6653fbf73e9e546b8aa1b0b3660405160405180910390a160018081905550565b6000806121f66121ce6110f0565b6121e8866121da61252a565b615ead90919063ffffffff16565b615e1a90919063ffffffff16565b9050600060fc60020160009054906101000a900473ffffffffffffffffffffffffffffffffffffffff169050600060fc60040160009054906101000a900473ffffffffffffffffffffffffffffffffffffffff1673ffffffffffffffffffffffffffffffffffffffff166359846d2986846040518363ffffffff1660e01b8152600401808381526020018273ffffffffffffffffffffffffffffffffffffffff16815260200192505050602060405180830381600087803b1580156122ba57600080fd5b505af11580156122ce573d6000803e3d6000fd5b505050506040513d60208110156122e457600080fd5b8101908080519060200190929190505050905060006123298360fc60030160009054906101000a900473ffffffffffffffffffffffffffffffffffffffff16846126b6565b905061236a612341858961667e90919063ffffffff16565b61235c670de0b6b3a764000084615ead90919063ffffffff16565b615e1a90919063ffffffff16565b94505050505092915050565b60008060007f000000000000000000000000000000000000000000000000000000000000000073ffffffffffffffffffffffffffffffffffffffff166310603c1160fc60020160009054906101000a900473ffffffffffffffffffffffffffffffffffffffff1660fc60030160009054906101000a900473ffffffffffffffffffffffffffffffffffffffff166040518363ffffffff1660e01b8152600401808373ffffffffffffffffffffffffffffffffffffffff1681526020018273ffffffffffffffffffffffffffffffffffffffff16815260200192505050604080518083038186803b15801561246957600080fd5b505afa15801561247d573d6000803e3d6000fd5b505050506040513d604081101561249357600080fd5b81019080805190602001909291908051906020019092919050505091509150612520670de0b6b3a76400006125126124dc87670de0b6b3a764000061670690919063ffffffff16565b61250485600a0a6124f6888c615ead90919063ffffffff16565b615e1a90919063ffffffff16565b615ead90919063ffffffff16565b615e1a90919063ffffffff16565b9250505092915050565b60008060007f000000000000000000000000000000000000000000000000000000000000000073ffffffffffffffffffffffffffffffffffffffff1663ffe90fd5306040518263ffffffff1660e01b8152600401808273ffffffffffffffffffffffffffffffffffffffff168152602001915050604080518083038186803b1580156125b557600080fd5b505afa1580156125c9573d6000803e3d6000fd5b505050506040513d60408110156125df57600080fd5b810190808051906020019092919080519060200190929190505050915091506000612650670de0b6b3a764000061264260fc60000160009054906101000a900467ffffffffffffffff1667ffffffffffffffff164261670690919063ffffffff16565b615ead90919063ffffffff16565b905082811161266557600093505050506126b3565b60006126a96002670de0b6b3a76400000a61269b61268c878661670690919063ffffffff16565b86615ead90919063ffffffff16565b615e1a90919063ffffffff16565b9050809450505050505b90565b60008060007f000000000000000000000000000000000000000000000000000000000000000073ffffffffffffffffffffffffffffffffffffffff166310603c1187876040518363ffffffff1660e01b8152600401808373ffffffffffffffffffffffffffffffffffffffff1681526020018273ffffffffffffffffffffffffffffffffffffffff16815260200192505050604080518083038186803b15801561275f57600080fd5b505afa158015612773573d6000803e3d6000fd5b505050506040513d604081101561278957600080fd5b810190808051906020019092919080519060200190929190505050915091506127d081600a0a6127c28487615ead90919063ffffffff16565b615e1a90919063ffffffff16565b925050509392505050565b6000609760009054906101000a900460ff16905090565b60fc8060000160009054906101000a900467ffffffffffffffff16908060000160089054906101000a900467ffffffffffffffff16908060000160109054906101000a900467ffffffffffffffff16908060000160189054906101000a900467ffffffffffffffff16908060010160009054906101000a900473ffffffffffffffffffffffffffffffffffffffff16908060020160009054906101000a900473ffffffffffffffffffffffffffffffffffffffff16908060030160009054906101000a900473ffffffffffffffffffffffffffffffffffffffff16908060040160009054906101000a900473ffffffffffffffffffffffffffffffffffffffff16908060050160009054906101000a900473ffffffffffffffffffffffffffffffffffffffff1690806006015490806007015490806008015490508c565b6000606560008373ffffffffffffffffffffffffffffffffffffffff1673ffffffffffffffffffffffffffffffffffffffff168152602001908152602001600020549050919050565b6000807f000000000000000000000000000000000000000000000000000000000000000073ffffffffffffffffffffffffffffffffffffffff16639b9842c16040518163ffffffff1660e01b815260040160206040518083038186803b1580156129e257600080fd5b505afa1580156129f6573d6000803e3d6000fd5b505050506040513d6020811015612a0c57600080fd5b81019080805190602001909291905050509050600060fb60008573ffffffffffffffffffffffffffffffffffffffff1673ffffffffffffffffffffffffffffffffffffffff168152602001908152602001600020600001549050612a8c612a7d600284615ead90919063ffffffff16565b8261667e90919063ffffffff16565b421115612a9857600090505b8092505050919050565b6000612aad33612930565b1415612b21576040517f08c379a00000000000000000000000000000000000000000000000000000000081526004018080602001828103825260058152602001807f503a494c3100000000000000000000000000000000000000000000000000000081525060200191505060405180910390fd5b60026001541415612b9a576040517f08c379a000000000000000000000000000000000000000000000000000000000815260040180806020018281038252601f8152602001807f5265656e7472616e637947756172643a207265656e7472616e742063616c6c0081525060200191505060405180910390fd5b6002600181905550612bab336169d4565b60018081905550565b60026001541415612c2d576040517f08c379a000000000000000000000000000000000000000000000000000000000815260040180806020018281038252601f8152602001807f5265656e7472616e637947756172643a207265656e7472616e742063616c6c0081525060200191505060405180910390fd5b600260018190555060016005811115612c4257fe5b61010560000160009054906101000a900460ff166005811115612c6157fe5b14612cd4576040517f08c379a00000000000000000000000000000000000000000000000000000000081526004018080602001828103825260058152602001807f503a4c503100000000000000000000000000000000000000000000000000000081525060200191505060405180910390fd5b7f000000000000000000000000000000000000000000000000000000000000000073ffffffffffffffffffffffffffffffffffffffff1663eeb69a24306040518263ffffffff1660e01b8152600401808273ffffffffffffffffffffffffffffffffffffffff16815260200191505060206040518083038186803b158015612d5b57600080fd5b505afa158015612d6f573d6000803e3d6000fd5b505050506040513d6020811015612d8557600080fd5b8101908080519060200190929190505050612e08576040517f08c379a00000000000000000000000000000000000000000000000000000000081526004018080602001828103825260058152602001807f503a4c503200000000000000000000000000000000000000000000000000000081525060200191505060405180910390fd5b600461010560000160006101000a81548160ff02191690836005811115612e2b57fe5b0217905550600060fc60020160009054906101000a900473ffffffffffffffffffffffffffffffffffffffff169050600060fc60030160009054906101000a900473ffffffffffffffffffffffffffffffffffffffff169050600060fc60040160009054906101000a900473ffffffffffffffffffffffffffffffffffffffff1690506000806000612ed2610105600201546101056001015461667e90919063ffffffff16565b90508373ffffffffffffffffffffffffffffffffffffffff166359846d2982886040518363ffffffff1660e01b8152600401808381526020018273ffffffffffffffffffffffffffffffffffffffff16815260200192505050602060405180830381600087803b158015612f4557600080fd5b505af1158015612f59573d6000803e3d6000fd5b505050506040513d6020811015612f6f57600080fd5b810190808051906020019092919050505092506000612fa5612f8f61252a565b612f976110f0565b61667e90919063ffffffff16565b9050612fb28688836126b6565b9250505081811115612fc2578190505b600061306e827f000000000000000000000000000000000000000000000000000000000000000073ffffffffffffffffffffffffffffffffffffffff1663acca944f6040518163ffffffff1660e01b815260040160206040518083038186803b15801561302e57600080fd5b505afa158015613042573d6000803e3d6000fd5b505050506040513d602081101561305857600080fd5b8101908080519060200190929190505050612376565b90506101056002016000905561010560010160009055613134857f000000000000000000000000000000000000000000000000000000000000000073ffffffffffffffffffffffffffffffffffffffff1663fdc19bb76040518163ffffffff1660e01b815260040160206040518083038186803b1580156130ee57600080fd5b505afa158015613102573d6000803e3d6000fd5b505050506040513d602081101561311857600080fd5b81019080805190602001909291905050503330858e6000616789565b50613143863386858c8c616ac2565b508282146131f957600060fc60010160009054906101000a900473ffffffffffffffffffffffffffffffffffffffff16905061319687828761318e878961670690919063ffffffff16565b600080616ac2565b508073ffffffffffffffffffffffffffffffffffffffff167fc30fcfbcaac9e0deffa719714eaa82396ff506a0d0d0eebe170830177288715d6131e2858761670690919063ffffffff16565b6040518082815260200191505060405180910390a2505b3373ffffffffffffffffffffffffffffffffffffffff167fc54b2aa56ebf583bfce79c646ac5d4618f0e44bc6874bd07194673a5bd2626a060405160405180910390a250505050505060018081905550505050565b6101058060000160009054906101000a900460ff16908060010154908060020154908060030154905084565b600060fc60010160009054906101000a900473ffffffffffffffffffffffffffffffffffffffff16905090565b60006132b233612930565b1415613326576040517f08c379a00000000000000000000000000000000000000000000000000000000081526004018080602001828103825260058152602001807f503a494c3100000000000000000000000000000000000000000000000000000081525060200191505060405180910390fd5b6002600154141561339f576040517f08c379a000000000000000000000000000000000000000000000000000000000815260040180806020018281038252601f8152602001807f5265656e7472616e637947756172643a207265656e7472616e742063616c6c0081525060200191505060405180910390fd5b6002600181905550600061010560000160009054906101000a900460ff169050600260058111156133cc57fe5b8160058111156133d857fe5b14806133fa5750600360058111156133ec57fe5b8160058111156133f857fe5b145b8061341b57506004600581111561340d57fe5b81600581111561341957fe5b145b8061343b575060058081111561342d57fe5b81600581111561343957fe5b145b6134ad576040517f08c379a00000000000000000000000000000000000000000000000000000000081526004018080602001828103825260058152602001807f503a574c3100000000000000000000000000000000000000000000000000000081525060200191505060405180910390fd5b60006134b833612930565b90506000819050600460058111156134cc57fe5b8360058111156134d857fe5b14806134f957506005808111156134eb57fe5b8360058111156134f757fe5b145b156135fd57600060fc60030160009054906101000a900473ffffffffffffffffffffffffffffffffffffffff1673ffffffffffffffffffffffffffffffffffffffff166370a08231306040518263ffffffff1660e01b8152600401808273ffffffffffffffffffffffffffffffffffffffff16815260200191505060206040518083038186803b15801561358c57600080fd5b505afa1580156135a0573d6000803e3d6000fd5b505050506040513d60208110156135b657600080fd5b810190808051906020019092919050505090506135f56135d46110f0565b6135e78385615ead90919063ffffffff16565b615e1a90919063ffffffff16565b9150506136bb565b6003600581111561360a57fe5b83600581111561361657fe5b14156136905760006136506136296110f0565b6136426101056003015485615ead90919063ffffffff16565b615e1a90919063ffffffff16565b9050613665818361667e90919063ffffffff16565b9150613680816101056003015461670690919063ffffffff16565b61010560030181905550506136ba565b6002600581111561369d57fe5b8360058111156136a957fe5b14156136b9576136b8336169d4565b5b5b5b6136c53383616b00565b6136f660fc60030160009054906101000a900473ffffffffffffffffffffffffffffffffffffffff16303384616cc6565b503373ffffffffffffffffffffffffffffffffffffffff167f971f63643b6d0341cf9c1971238adc8625537ce1c41ba0a9dfcbd784832bd5f9826040518082815260200191505060405180910390a250505060018081905550565b600060019054906101000a900460ff1680613770575061376f616d77565b5b80613786575060008054906101000a900460ff16155b6137db576040517f08c379a000000000000000000000000000000000000000000000000000000000815260040180806020018281038252602e8152602001806197e5602e913960400191505060405180910390fd5b60008060019054906101000a900460ff16159050801561382b576001600060016101000a81548160ff02191690831515021790555060016000806101000a81548160ff0219169083151502179055505b600260015414156138a4576040517f08c379a000000000000000000000000000000000000000000000000000000000815260040180806020018281038252601f8152602001807f5265656e7472616e637947756172643a207265656e7472616e742063616c6c0081525060200191505060405180910390fd5b60026001819055507f000000000000000000000000000000000000000000000000000000000000000073ffffffffffffffffffffffffffffffffffffffff163373ffffffffffffffffffffffffffffffffffffffff161461396d576040517f08c379a00000000000000000000000000000000000000000000000000000000081526004018080602001828103825260048152602001807f503a49310000000000000000000000000000000000000000000000000000000081525060200191505060405180910390fd5b8b60fc60030160006101000a81548173ffffffffffffffffffffffffffffffffffffffff021916908373ffffffffffffffffffffffffffffffffffffffff1602179055508960fc600701819055508a60fc60020160006101000a81548173ffffffffffffffffffffffffffffffffffffffff021916908373ffffffffffffffffffffffffffffffffffffffff1602179055508660fc60040160006101000a81548173ffffffffffffffffffffffffffffffffffffffff021916908373ffffffffffffffffffffffffffffffffffffffff1602179055508e60fc60080181905550613a588d8787616d88565b8c60fc60010160006101000a81548173ffffffffffffffffffffffffffffffffffffffff021916908373ffffffffffffffffffffffffffffffffffffffff1602179055508d60fc600601819055508760fc60000160106101000a81548167ffffffffffffffff021916908367ffffffffffffffff1602179055508860fc60000160186101000a81548167ffffffffffffffff021916908367ffffffffffffffff1602179055508360fc60050160006101000a81548173ffffffffffffffffffffffffffffffffffffffff021916908373ffffffffffffffffffffffffffffffffffffffff160217905550613b55824261667e90919063ffffffff16565b60fc60000160006101000a81548167ffffffffffffffff021916908367ffffffffffffffff160217905550613ba583613b97844261667e90919063ffffffff16565b61667e90919063ffffffff16565b60fc60000160086101000a81548167ffffffffffffffff021916908367ffffffffffffffff160217905550613bd8616e9e565b613c4c6040518060400160405280600b81526020017f506f6f6c20546f6b656e730000000000000000000000000000000000000000008152506040518060400160405280600281526020017f5054000000000000000000000000000000000000000000000000000000000000815250616fa4565b613cd58c73ffffffffffffffffffffffffffffffffffffffff1663313ce5676040518163ffffffff1660e01b815260040160206040518083038186803b158015613c9557600080fd5b505afa158015613ca9573d6000803e3d6000fd5b505050506040513d6020811015613cbf57600080fd5b81019080805190602001909291905050506170b6565b600180819055508015613cfd5760008060016101000a81548160ff0219169083151502179055505b505050505050505050505050505050565b606060698054600181600116156101000203166002900480601f016020809104026020016040519081016040528092919081815260200182805460018160011615610100020316600290048015613da65780601f10613d7b57610100808354040283529160200191613da6565b820191906000526020600020905b815481529060010190602001808311613d8957829003601f168201915b5050505050905090565b60fc60010160009054906101000a900473ffffffffffffffffffffffffffffffffffffffff1673ffffffffffffffffffffffffffffffffffffffff163373ffffffffffffffffffffffffffffffffffffffff1614613e76576040517f08c379a00000000000000000000000000000000000000000000000000000000081526004018080602001828103825260058152602001807f503a4f423100000000000000000000000000000000000000000000000000000081525060200191505060405180910390fd5b60026001541415613eef576040517f08c379a000000000000000000000000000000000000000000000000000000000815260040180806020018281038252601f8152602001807f5265656e7472616e637947756172643a207265656e7472616e742063616c6c0081525060200191505060405180910390fd5b6002600181905550600061010560000160009054906101000a900460ff16905060006005811115613f1c57fe5b816005811115613f2857fe5b148015613f5857504260fc60000160009054906101000a900467ffffffffffffffff1667ffffffffffffffff1611155b8015613f87575060fc60000160089054906101000a900467ffffffffffffffff1667ffffffffffffffff164211155b613ff9576040517f08c379a00000000000000000000000000000000000000000000000000000000081526004018080602001828103825260068152602001807f503a57424131000000000000000000000000000000000000000000000000000081525060200191505060405180910390fd5b60006140036110f0565b90506140d7670de0b6b3a76400006140c960fc600801547f000000000000000000000000000000000000000000000000000000000000000073ffffffffffffffffffffffffffffffffffffffff1663c2bb7c8d6040518163ffffffff1660e01b815260040160206040518083038186803b15801561408057600080fd5b505afa158015614094573d6000803e3d6000fd5b505050506040513d60208110156140aa57600080fd5b8101908080519060200190929190505050615ead90919063ffffffff16565b615e1a90919063ffffffff16565b81101561414c576040517f08c379a00000000000000000000000000000000000000000000000000000000081526004018080602001828103825260068152602001807f503a57424132000000000000000000000000000000000000000000000000000081525060200191505060405180910390fd5b600161010560000160006101000a81548160ff0219169083600581111561416f57fe5b0217905550600061417e615b26565b905060fc600701548110156141fb576040517f08c379a00000000000000000000000000000000000000000000000000000000081526004018080602001828103825260068152602001807f503a57424133000000000000000000000000000000000000000000000000000081525060200191505060405180910390fd5b600060fc60000160109054906101000a900467ffffffffffffffff169050600060fc60000160189054906101000a900467ffffffffffffffff1667ffffffffffffffff169050600060fc60030160009054906101000a900473ffffffffffffffffffffffffffffffffffffffff1690507f000000000000000000000000000000000000000000000000000000000000000073ffffffffffffffffffffffffffffffffffffffff166369a4a097848460fc6006015460fc60000160009054906101000a900467ffffffffffffffff16866040518663ffffffff1660e01b8152600401808667ffffffffffffffff1681526020018581526020018481526020018367ffffffffffffffff1681526020018273ffffffffffffffffffffffffffffffffffffffff16815260200195505050505050600060405180830381600087803b15801561434657600080fd5b505af115801561435a573d6000803e3d6000fd5b505050506000807f000000000000000000000000000000000000000000000000000000000000000073ffffffffffffffffffffffffffffffffffffffff16637bad52076040518163ffffffff1660e01b8152600401604080518083038186803b1580156143c657600080fd5b505afa1580156143da573d6000803e3d6000fd5b505050506040513d60408110156143f057600080fd5b81019080805190602001909291908051906020019092919050505091509150600061443e670de0b6b3a7640000614430858b615ead90919063ffffffff16565b615e1a90919063ffffffff16565b905060fc60000160086101000a81549067ffffffffffffffff02191690556000614471828a61670690919063ffffffff16565b9050600082146144895761448785308585616cc6565b505b61449585303384616cc6565b507f8be9d9baf42e140e96ea35d9b1ce2ba467febd2505cfe7b94332ed07323929718183604051808381526020018281526020019250505060405180910390a15050505050505050505060018081905550565b60006145ab6144f5615b61565b846145a685604051806060016040528060258152602001619926602591396066600061451f615b61565b73ffffffffffffffffffffffffffffffffffffffff1673ffffffffffffffffffffffffffffffffffffffff16815260200190815260200160002060008a73ffffffffffffffffffffffffffffffffffffffff1673ffffffffffffffffffffffffffffffffffffffff1681526020019081526020016000205461653c9092919063ffffffff16565b615b69565b6001905092915050565b60006145c96145c2615b61565b8484616277565b6001905092915050565b600061010560000160009054906101000a900460ff1660058111156145f457fe5b905090565b60008061460583612930565b61460d6110f0565b91509150915091565b6002600154141561468f576040517f08c379a000000000000000000000000000000000000000000000000000000000815260040180806020018281038252601f8152602001807f5265656e7472616e637947756172643a207265656e7472616e742063616c6c0081525060200191505060405180910390fd5b600260018190555060006146a233612930565b1415614716576040517f08c379a00000000000000000000000000000000000000000000000000000000081526004018080602001828103825260058152602001807f503a494c3100000000000000000000000000000000000000000000000000000081525060200191505060405180910390fd5b6001600581111561472357fe5b61010560000160009054906101000a900460ff16600581111561474257fe5b146147b5576040517f08c379a00000000000000000000000000000000000000000000000000000000081526004018080602001828103825260068152602001807f503a524d4331000000000000000000000000000000000000000000000000000081525060200191505060405180910390fd5b60006147c033612979565b14614833576040517f08c379a00000000000000000000000000000000000000000000000000000000081526004018080602001828103825260068152602001807f503a524d4332000000000000000000000000000000000000000000000000000081525060200191505060405180910390fd5b61483c336159f4565b60fc60070154116148b5576040517f08c379a00000000000000000000000000000000000000000000000000000000081526004018080602001828103825260068152602001807f503a524d4333000000000000000000000000000000000000000000000000000081525060200191505060405180910390fd5b6149687f000000000000000000000000000000000000000000000000000000000000000073ffffffffffffffffffffffffffffffffffffffff16639b9842c16040518163ffffffff1660e01b815260040160206040518083038186803b15801561491e57600080fd5b505afa158015614932573d6000803e3d6000fd5b505050506040513d602081101561494857600080fd5b81019080805190602001909291905050504261667e90919063ffffffff16565b60fb60003373ffffffffffffffffffffffffffffffffffffffff1673ffffffffffffffffffffffffffffffffffffffff168152602001908152602001600020600001819055503373ffffffffffffffffffffffffffffffffffffffff167f5334a046b9fb8040bcaa4dd9a9ecbbe06e299568931f336e4aa6bbf51d511b8060405160405180910390a260018081905550565b60026001541415614a73576040517f08c379a000000000000000000000000000000000000000000000000000000000815260040180806020018281038252601f8152602001807f5265656e7472616e637947756172643a207265656e7472616e742063616c6c0081525060200191505060405180910390fd5b6002600181905550614a84846170d4565b600060fc60040160009054906101000a900473ffffffffffffffffffffffffffffffffffffffff169050600080614aba876173b3565b91509150600060fc60020160009054906101000a900473ffffffffffffffffffffffffffffffffffffffff16905060008473ffffffffffffffffffffffffffffffffffffffff166359846d2985846040518363ffffffff1660e01b8152600401808381526020018273ffffffffffffffffffffffffffffffffffffffff16815260200192505050602060405180830381600087803b158015614b5b57600080fd5b505af1158015614b6f573d6000803e3d6000fd5b505050506040513d6020811015614b8557600080fd5b810190808051906020019092919050505090506000614bdf84614bd1614ba96110f0565b614bc388614bb561252a565b615ead90919063ffffffff16565b615e1a90919063ffffffff16565b61667e90919063ffffffff16565b9050600060fc60030160009054906101000a900473ffffffffffffffffffffffffffffffffffffffff1690506000614c188286856126b6565b905083811115614c26578390505b614c328c82848e6174ac565b6000614c6760fc60020160009054906101000a900473ffffffffffffffffffffffffffffffffffffffff16338b888f8f616ac2565b9050848214614d6857600060fc60010160009054906101000a900473ffffffffffffffffffffffffffffffffffffffff169050614d0560fc60020160009054906101000a900473ffffffffffffffffffffffffffffffffffffffff1660fc60010160009054906101000a900473ffffffffffffffffffffffffffffffffffffffff168c614cfd878b61670690919063ffffffff16565b600080616ac2565b508073ffffffffffffffffffffffffffffffffffffffff167fc30fcfbcaac9e0deffa719714eaa82396ff506a0d0d0eebe170830177288715d614d51858961670690919063ffffffff16565b6040518082815260200191505060405180910390a2505b614d728d88616b00565b60fb60008e73ffffffffffffffffffffffffffffffffffffffff1673ffffffffffffffffffffffffffffffffffffffff1681526020019081526020016000206000808201600090556001820160009055600282016000905550508c73ffffffffffffffffffffffffffffffffffffffff163373ffffffffffffffffffffffffffffffffffffffff167f9b4fed4f3cd02b7624ed7521dce91b2f3aee138fc5c04d59f2f087e6b261a40d836040518082815260200191505060405180910390a35050505050505050506001808190555050505050565b60026001541415614ec0576040517f08c379a000000000000000000000000000000000000000000000000000000000815260040180806020018281038252601f8152602001807f5265656e7472616e637947756172643a207265656e7472616e742063616c6c0081525060200191505060405180910390fd5b600260018190555060016005811115614ed557fe5b61010560000160009054906101000a900460ff166005811115614ef457fe5b14614f67576040517f08c379a00000000000000000000000000000000000000000000000000000000081526004018080602001828103825260078152602001807f503a41434d43310000000000000000000000000000000000000000000000000081525060200191505060405180910390fd5b6000614f7233612930565b14614fe5576040517f08c379a00000000000000000000000000000000000000000000000000000000081526004018080602001828103825260078152602001807f503a41434d43320000000000000000000000000000000000000000000000000081525060200191505060405180910390fd5b42614fef84612979565b1015615063576040517f08c379a00000000000000000000000000000000000000000000000000000000081526004018080602001828103825260078152602001807f503a41434d43330000000000000000000000000000000000000000000000000081525060200191505060405180910390fd5b60008214156150da576040517f08c379a00000000000000000000000000000000000000000000000000000000081526004018080602001828103825260078152602001807f503a41434d43340000000000000000000000000000000000000000000000000081525060200191505060405180910390fd5b600061513660fc60020160009054906101000a900473ffffffffffffffffffffffffffffffffffffffff1660fc60040160009054906101000a900473ffffffffffffffffffffffffffffffffffffffff16333087876001616789565b9050615151816101056002015461667e90919063ffffffff16565b610105600201819055506151b08160fb60008773ffffffffffffffffffffffffffffffffffffffff1673ffffffffffffffffffffffffffffffffffffffff1681526020019081526020016000206002015461667e90919063ffffffff16565b60fb60008673ffffffffffffffffffffffffffffffffffffffff1673ffffffffffffffffffffffffffffffffffffffff1681526020019081526020016000206002018190555060fc60070154615205856159f4565b106152515760fb60008573ffffffffffffffffffffffffffffffffffffffff1673ffffffffffffffffffffffffffffffffffffffff168152602001908152602001600020600001600090555b8373ffffffffffffffffffffffffffffffffffffffff163373ffffffffffffffffffffffffffffffffffffffff167f7745b8ee282b3bb1a0958b211eb3a34506deb988e5488e560a63b83ce03ba9d98584604051808381526020018281526020019250505060405180910390a35060018081905550505050565b6000807f000000000000000000000000000000000000000000000000000000000000000073ffffffffffffffffffffffffffffffffffffffff16631466e3ea306040518263ffffffff1660e01b8152600401808273ffffffffffffffffffffffffffffffffffffffff16815260200191505060206040518083038186803b15801561535557600080fd5b505afa158015615369573d6000803e3d6000fd5b505050506040513d602081101561537f57600080fd5b81019080805190602001909291905050509050600061541c60fb60008673ffffffffffffffffffffffffffffffffffffffff1673ffffffffffffffffffffffffffffffffffffffff1681526020019081526020016000206001015461540e6153e56110f0565b615400866153f28a612930565b615ead90919063ffffffff16565b615e1a90919063ffffffff16565b61670690919063ffffffff16565b90508092505050919050565b600260015414156154a1576040517f08c379a000000000000000000000000000000000000000000000000000000000815260040180806020018281038252601f8152602001807f5265656e7472616e637947756172643a207265656e7472616e742063616c6c0081525060200191505060405180910390fd5b6002600181905550600360058111156154b657fe5b61010560000160009054906101000a900460ff1660058111156154d557fe5b14615548576040517f08c379a00000000000000000000000000000000000000000000000000000000081526004018080602001828103825260068152602001807f503a4c435031000000000000000000000000000000000000000000000000000081525060200191505060405180910390fd5b600061010560030154146155c4576040517f08c379a00000000000000000000000000000000000000000000000000000000081526004018080602001828103825260068152602001807f503a4c435032000000000000000000000000000000000000000000000000000081525060200191505060405180910390fd5b600060fc60040160009054906101000a900473ffffffffffffffffffffffffffffffffffffffff169050600060fc60020160009054906101000a900473ffffffffffffffffffffffffffffffffffffffff16905060008273ffffffffffffffffffffffffffffffffffffffff166359846d2961010560010154846040518363ffffffff1660e01b8152600401808381526020018273ffffffffffffffffffffffffffffffffffffffff16815260200192505050602060405180830381600087803b15801561569157600080fd5b505af11580156156a5573d6000803e3d6000fd5b505050506040513d60208110156156bb57600080fd5b81019080805190602001909291905050509050600061577a827f000000000000000000000000000000000000000000000000000000000000000073ffffffffffffffffffffffffffffffffffffffff1663acca944f6040518163ffffffff1660e01b815260040160206040518083038186803b15801561573a57600080fd5b505afa15801561574e573d6000803e3d6000fd5b505050506040513d602081101561576457600080fd5b8101908080519060200190929190505050612376565b905080610105600301819055506157b860fc60030160009054906101000a900473ffffffffffffffffffffffffffffffffffffffff16333084616cc6565b5061581160fc60020160009054906101000a900473ffffffffffffffffffffffffffffffffffffffff163360fc60040160009054906101000a900473ffffffffffffffffffffffffffffffffffffffff16858a8a616ac2565b5050505050600180819055505050565b6002600154141561589a576040517f08c379a000000000000000000000000000000000000000000000000000000000815260040180806020018281038252601f8152602001807f5265656e7472616e637947756172643a207265656e7472616e742063616c6c0081525060200191505060405180910390fd5b60026001819055506000821415615919576040517f08c379a00000000000000000000000000000000000000000000000000000000081526004018080602001828103825260058152602001807f503a44433100000000000000000000000000000000000000000000000000000081525060200191505060405180910390fd5b600061592433612930565b14615997576040517f08c379a00000000000000000000000000000000000000000000000000000000081526004018080602001828103825260058152602001807f503a44433200000000000000000000000000000000000000000000000000000081525060200191505060405180910390fd5b6159a23383836175a6565b600180819055505050565b60006159ed60fc60000160189054906101000a900467ffffffffffffffff1667ffffffffffffffff166159df846118f0565b615ead90919063ffffffff16565b9050919050565b600080615a0083612930565b90506000615a8a60fb60008673ffffffffffffffffffffffffffffffffffffffff1673ffffffffffffffffffffffffffffffffffffffff16815260200190815260200160002060020154615a7c615a556110f0565b615a6e8661010560010154615ead90919063ffffffff16565b615e1a90919063ffffffff16565b61667e90919063ffffffff16565b9050615a9682826121c0565b92505050919050565b6000606660008473ffffffffffffffffffffffffffffffffffffffff1673ffffffffffffffffffffffffffffffffffffffff16815260200190815260200160002060008373ffffffffffffffffffffffffffffffffffffffff1673ffffffffffffffffffffffffffffffffffffffff16815260200190815260200160002054905092915050565b600080615b48610105600201546101056001015461667e90919063ffffffff16565b9050615b5b615b556110f0565b826121c0565b91505090565b600033905090565b600073ffffffffffffffffffffffffffffffffffffffff168373ffffffffffffffffffffffffffffffffffffffff161415615bef576040517f08c379a00000000000000000000000000000000000000000000000000000000081526004018080602001828103825260248152602001806198a26024913960400191505060405180910390fd5b600073ffffffffffffffffffffffffffffffffffffffff168273ffffffffffffffffffffffffffffffffffffffff161415615c75576040517f08c379a00000000000000000000000000000000000000000000000000000000081526004018080602001828103825260228152602001806197776022913960400191505060405180910390fd5b80606660008573ffffffffffffffffffffffffffffffffffffffff1673ffffffffffffffffffffffffffffffffffffffff16815260200190815260200160002060008473ffffffffffffffffffffffffffffffffffffffff1673ffffffffffffffffffffffffffffffffffffffff168152602001908152602001600020819055508173ffffffffffffffffffffffffffffffffffffffff168373ffffffffffffffffffffffffffffffffffffffff167f8c5be1e5ebec7d5bd14f71427d1e84f3dd0314c0f7b2291e5b200ac8c7c3b925836040518082815260200191505060405180910390a3505050565b6000838311158290615e0d576040517f08c379a00000000000000000000000000000000000000000000000000000000081526004018080602001828103825283818151815260200191508051906020019080838360005b83811015615dd2578082015181840152602081019050615db7565b50505050905090810190601f168015615dff5780820380516001836020036101000a031916815260200191505b509250505060405180910390fd5b5082840390509392505050565b6000808211615e91576040517f08c379a000000000000000000000000000000000000000000000000000000000815260040180806020018281038252601a8152602001807f536166654d6174683a206469766973696f6e206279207a65726f00000000000081525060200191505060405180910390fd5b818381615e9a57fe5b04905092915050565b6000606754905090565b600080831415615ec05760009050615f2d565b6000828402905082848281615ed157fe5b0414615f28576040517f08c379a00000000000000000000000000000000000000000000000000000000081526004018080602001828103825260218152602001806198136021913960400191505060405180910390fd5b809150505b92915050565b600361010560000160006101000a81548160ff02191690836005811115615f5657fe5b0217905550615f8a60fc60010160009054906101000a900473ffffffffffffffffffffffffffffffffffffffff1682616036565b615f9261618b565b7f8cbd53891ca54fbd5e0e3309a32f9a006458224831c41274a5fd8d8a0d937e7160405160405180910390a150565b60008060fc60000160189054906101000a900467ffffffffffffffff1667ffffffffffffffff1690508342111561602c57600042905083421115616003578390505b616028616019868361670690919063ffffffff16565b8361667e90919063ffffffff16565b9150505b8091505092915050565b600060fc60040160009054906101000a900473ffffffffffffffffffffffffffffffffffffffff169050600060fc60020160009054906101000a900473ffffffffffffffffffffffffffffffffffffffff1690506000836160ac610105600201546101056001015461667e90919063ffffffff16565b11156160e6576160e3846160d5610105600201546101056001015461667e90919063ffffffff16565b61670690919063ffffffff16565b90505b8361010560010181905550610105600201600090556000808214616135576161327f00000000000000000000000000000000000000000000000000000000000000008486308a87617749565b90505b8573ffffffffffffffffffffffffffffffffffffffff167fc30fcfbcaac9e0deffa719714eaa82396ff506a0d0d0eebe170830177288715d826040518082815260200191505060405180910390a2505050505050565b6161936127db565b15616206576040517f08c379a00000000000000000000000000000000000000000000000000000000081526004018080602001828103825260108152602001807f5061757361626c653a207061757365640000000000000000000000000000000081525060200191505060405180910390fd5b6001609760006101000a81548160ff0219169083151502179055507f62e78cea01bee320cd4e420270b5ea74000d11b0c9f74754ebdbfc544b05a25861624a615b61565b604051808273ffffffffffffffffffffffffffffffffffffffff16815260200191505060405180910390a1565b600073ffffffffffffffffffffffffffffffffffffffff168373ffffffffffffffffffffffffffffffffffffffff1614156162fd576040517f08c379a000000000000000000000000000000000000000000000000000000000815260040180806020018281038252602581526020018061987d6025913960400191505060405180910390fd5b600073ffffffffffffffffffffffffffffffffffffffff168273ffffffffffffffffffffffffffffffffffffffff161415616383576040517f08c379a00000000000000000000000000000000000000000000000000000000081526004018080602001828103825260238152602001806197326023913960400191505060405180910390fd5b61638e838383617982565b6163fa8160405180606001604052806026815260200161979960269139606560008773ffffffffffffffffffffffffffffffffffffffff1673ffffffffffffffffffffffffffffffffffffffff1681526020019081526020016000205461653c9092919063ffffffff16565b606560008573ffffffffffffffffffffffffffffffffffffffff1673ffffffffffffffffffffffffffffffffffffffff1681526020019081526020016000208190555061648f81606560008573ffffffffffffffffffffffffffffffffffffffff1673ffffffffffffffffffffffffffffffffffffffff168152602001908152602001600020546165f690919063ffffffff16565b606560008473ffffffffffffffffffffffffffffffffffffffff1673ffffffffffffffffffffffffffffffffffffffff168152602001908152602001600020819055508173ffffffffffffffffffffffffffffffffffffffff168373ffffffffffffffffffffffffffffffffffffffff167fddf252ad1be2c89b69c2b068fc378daa952ba7f163c4a11628f55a4df523b3ef836040518082815260200191505060405180910390a3505050565b60008383111582906165e9576040517f08c379a00000000000000000000000000000000000000000000000000000000081526004018080602001828103825283818151815260200191508051906020019080838360005b838110156165ae578082015181840152602081019050616593565b50505050905090810190601f1680156165db5780820380516001836020036101000a031916815260200191505b509250505060405180910390fd5b5082840390509392505050565b600080828401905083811015616674576040517f08c379a000000000000000000000000000000000000000000000000000000000815260040180806020018281038252601b8152602001807f536166654d6174683a206164646974696f6e206f766572666c6f77000000000081525060200191505060405180910390fd5b8091505092915050565b6000808284019050838110156166fc576040517f08c379a000000000000000000000000000000000000000000000000000000000815260040180806020018281038252601b8152602001807f536166654d6174683a206164646974696f6e206f766572666c6f77000000000081525060200191505060405180910390fd5b8091505092915050565b60008282111561677e576040517f08c379a000000000000000000000000000000000000000000000000000000000815260040180806020018281038252601e8152602001807f536166654d6174683a207375627472616374696f6e206f766572666c6f77000081525060200191505060405180910390fd5b818303905092915050565b60008083156167ca576167c37f00000000000000000000000000000000000000000000000000000000000000008a8a8a8a8a60008a617be6565b90506167fc565b6167f97f00000000000000000000000000000000000000000000000000000000000000008a8a8a8a8a89617cc3565b90505b80915050979650505050505050565b600073ffffffffffffffffffffffffffffffffffffffff168273ffffffffffffffffffffffffffffffffffffffff1614156168ae576040517f08c379a000000000000000000000000000000000000000000000000000000000815260040180806020018281038252601f8152602001807f45524332303a206d696e7420746f20746865207a65726f20616464726573730081525060200191505060405180910390fd5b6168ba60008383617982565b6168cf816067546165f690919063ffffffff16565b60678190555061692781606560008573ffffffffffffffffffffffffffffffffffffffff1673ffffffffffffffffffffffffffffffffffffffff168152602001908152602001600020546165f690919063ffffffff16565b606560008473ffffffffffffffffffffffffffffffffffffffff1673ffffffffffffffffffffffffffffffffffffffff168152602001908152602001600020819055508173ffffffffffffffffffffffffffffffffffffffff16600073ffffffffffffffffffffffffffffffffffffffff167fddf252ad1be2c89b69c2b068fc378daa952ba7f163c4a11628f55a4df523b3ef836040518082815260200191505060405180910390a35050565b60006169df826152cb565b905060008114156169f05750616abf565b616a458160fb60008573ffffffffffffffffffffffffffffffffffffffff1673ffffffffffffffffffffffffffffffffffffffff1681526020019081526020016000206001015461667e90919063ffffffff16565b60fb60008473ffffffffffffffffffffffffffffffffffffffff1673ffffffffffffffffffffffffffffffffffffffff16815260200190815260200160002060010181905550616abc60fc60030160009054906101000a900473ffffffffffffffffffffffffffffffffffffffff16308484616cc6565b50505b50565b6000616af47f00000000000000000000000000000000000000000000000000000000000000008887308a89888a617be6565b90509695505050505050565b600073ffffffffffffffffffffffffffffffffffffffff168273ffffffffffffffffffffffffffffffffffffffff161415616b86576040517f08c379a000000000000000000000000000000000000000000000000000000000815260040180806020018281038252602181526020018061985c6021913960400191505060405180910390fd5b616b9282600083617982565b616bfe8160405180606001604052806022815260200161975560229139606560008673ffffffffffffffffffffffffffffffffffffffff1673ffffffffffffffffffffffffffffffffffffffff1681526020019081526020016000205461653c9092919063ffffffff16565b606560008473ffffffffffffffffffffffffffffffffffffffff1673ffffffffffffffffffffffffffffffffffffffff16815260200190815260200160002081905550616c5681606754617d9c90919063ffffffff16565b606781905550600073ffffffffffffffffffffffffffffffffffffffff168273ffffffffffffffffffffffffffffffffffffffff167fddf252ad1be2c89b69c2b068fc378daa952ba7f163c4a11628f55a4df523b3ef836040518082815260200191505060405180910390a35050565b600080821415616cd95760009050616d6f565b3073ffffffffffffffffffffffffffffffffffffffff168473ffffffffffffffffffffffffffffffffffffffff161415616d3d57616d3883838773ffffffffffffffffffffffffffffffffffffffff16617e1f9092919063ffffffff16565b616d6b565b616d6a8484848873ffffffffffffffffffffffffffffffffffffffff16617ec1909392919063ffffffff16565b5b8190505b949350505050565b6000616d8230617f82565b15905090565b6000616de460fc60030160009054906101000a900473ffffffffffffffffffffffffffffffffffffffff1660fc60020160009054906101000a900473ffffffffffffffffffffffffffffffffffffffff1660fc600801546126b6565b9050616e18670de0b6b3a7640000616e0a8360fc60070154615ead90919063ffffffff16565b615e1a90919063ffffffff16565b831015616e8d576040517f08c379a00000000000000000000000000000000000000000000000000000000081526004018080602001828103825260058152602001807f503a49443100000000000000000000000000000000000000000000000000000081525060200191505060405180910390fd5b616e988484846175a6565b50505050565b600060019054906101000a900460ff1680616ebd5750616ebc616d77565b5b80616ed3575060008054906101000a900460ff16155b616f28576040517f08c379a000000000000000000000000000000000000000000000000000000000815260040180806020018281038252602e8152602001806197e5602e913960400191505060405180910390fd5b60008060019054906101000a900460ff161590508015616f78576001600060016101000a81548160ff02191690831515021790555060016000806101000a81548160ff0219169083151502179055505b616f80617f95565b8015616fa15760008060016101000a81548160ff0219169083151502179055505b50565b600060019054906101000a900460ff1680616fc35750616fc2616d77565b5b80616fd9575060008054906101000a900460ff16155b61702e576040517f08c379a000000000000000000000000000000000000000000000000000000000815260040180806020018281038252602e8152602001806197e5602e913960400191505060405180910390fd5b60008060019054906101000a900460ff16159050801561707e576001600060016101000a81548160ff02191690831515021790555060016000806101000a81548160ff0219169083151502179055505b61708661809a565b6170908383618198565b80156170b15760008060016101000a81548160ff0219169083151502179055505b505050565b80606a60006101000a81548160ff021916908360ff16021790555050565b600160058111156170e157fe5b61010560000160009054906101000a900460ff16600581111561710057fe5b14617173576040517f08c379a00000000000000000000000000000000000000000000000000000000081526004018080602001828103825260088152602001807f503a49434c424c3100000000000000000000000000000000000000000000000081525060200191505060405180910390fd5b600060fb60008373ffffffffffffffffffffffffffffffffffffffff1673ffffffffffffffffffffffffffffffffffffffff16815260200190815260200160002060000154905060006171c583612979565b1415617239576040517f08c379a00000000000000000000000000000000000000000000000000000000081526004018080602001828103825260088152602001807f503a49434c424c3200000000000000000000000000000000000000000000000081525060200191505060405180910390fd5b4281106172ae576040517f08c379a00000000000000000000000000000000000000000000000000000000081526004018080602001828103825260088152602001807f503a49434c424c3300000000000000000000000000000000000000000000000081525060200191505060405180910390fd5b6172b7826159f4565b60fc6007015411617330576040517f08c379a00000000000000000000000000000000000000000000000000000000081526004018080602001828103825260088152602001807f503a49434c424c3400000000000000000000000000000000000000000000000081525060200191505060405180910390fd5b600061733b83612930565b14156173af576040517f08c379a00000000000000000000000000000000000000000000000000000000081526004018080602001828103825260088152602001807f503a49434c424c3500000000000000000000000000000000000000000000000081525060200191505060405180910390fd5b5050565b600080600061010560010154905060006173cc85612930565b905060006173fc6173db6110f0565b6173ee8486615ead90919063ffffffff16565b615e1a90919063ffffffff16565b9050600060fb60008873ffffffffffffffffffffffffffffffffffffffff1673ffffffffffffffffffffffffffffffffffffffff168152602001908152602001600020600201549050617458828561670690919063ffffffff16565b6101056001018190555061747b816101056002015461670690919063ffffffff16565b61010560020181905550600061749a828461667e90919063ffffffff16565b90508084965096505050505050915091565b600060fc60040160009054906101000a900473ffffffffffffffffffffffffffffffffffffffff1690506000617582857f000000000000000000000000000000000000000000000000000000000000000073ffffffffffffffffffffffffffffffffffffffff1663acca944f6040518163ffffffff1660e01b815260040160206040518083038186803b15801561754257600080fd5b505afa158015617556573d6000803e3d6000fd5b505050506040513d602081101561756c57600080fd5b8101908080519060200190929190505050612376565b90506175948483338985886000616789565b5061759e866169d4565b505050505050565b600061010560000160009054906101000a900460ff169050600160058111156175cb57fe5b8160058111156175d757fe5b14806175f95750600060058111156175eb57fe5b8160058111156175f757fe5b145b61766b576040517f08c379a00000000000000000000000000000000000000000000000000000000081526004018080602001828103825260068152602001807f503a49444331000000000000000000000000000000000000000000000000000081525060200191505060405180910390fd5b60006176c760fc60020160009054906101000a900473ffffffffffffffffffffffffffffffffffffffff1660fc60040160009054906101000a900473ffffffffffffffffffffffffffffffffffffffff16873088886001616789565b90506176e2816101056001015461667e90919063ffffffff16565b610105600101819055508473ffffffffffffffffffffffffffffffffffffffff167f11f8990ac38271f23dea447d5728e9914fca7cea2edda43af6c43c415f8bc30b8583604051808381526020018281526020019250505060405180910390a25050505050565b60003073ffffffffffffffffffffffffffffffffffffffff168473ffffffffffffffffffffffffffffffffffffffff16141561786d578673ffffffffffffffffffffffffffffffffffffffff16637c96f053878786866040518563ffffffff1660e01b8152600401808573ffffffffffffffffffffffffffffffffffffffff1681526020018473ffffffffffffffffffffffffffffffffffffffff1681526020018373ffffffffffffffffffffffffffffffffffffffff168152602001828152602001945050505050602060405180830381600087803b15801561782c57600080fd5b505af1158015617840573d6000803e3d6000fd5b505050506040513d602081101561785657600080fd5b810190808051906020019092919050505050617975565b8673ffffffffffffffffffffffffffffffffffffffff1663f284d82587878787876040518663ffffffff1660e01b8152600401808673ffffffffffffffffffffffffffffffffffffffff1681526020018573ffffffffffffffffffffffffffffffffffffffff1681526020018473ffffffffffffffffffffffffffffffffffffffff1681526020018373ffffffffffffffffffffffffffffffffffffffff16815260200182815260200195505050505050602060405180830381600087803b15801561793857600080fd5b505af115801561794c573d6000803e3d6000fd5b505050506040513d602081101561796257600080fd5b8101908080519060200190929190505050505b8190509695505050505050565b600073ffffffffffffffffffffffffffffffffffffffff168273ffffffffffffffffffffffffffffffffffffffff1614617a32576179be6127db565b15617a31576040517f08c379a00000000000000000000000000000000000000000000000000000000081526004018080602001828103825260068152602001807f503a49545431000000000000000000000000000000000000000000000000000081525060200191505060405180910390fd5b5b8173ffffffffffffffffffffffffffffffffffffffff168373ffffffffffffffffffffffffffffffffffffffff161415617ad4576040517f08c379a00000000000000000000000000000000000000000000000000000000081526004018080602001828103825260068152602001807f503a49545436000000000000000000000000000000000000000000000000000081525060200191505060405180910390fd5b60fc60010160009054906101000a900473ffffffffffffffffffffffffffffffffffffffff1673ffffffffffffffffffffffffffffffffffffffff168273ffffffffffffffffffffffffffffffffffffffff161415617b9b576040517f08c379a00000000000000000000000000000000000000000000000000000000081526004018080602001828103825260068152602001807f503a49545432000000000000000000000000000000000000000000000000000081525060200191505060405180910390fd5b600073ffffffffffffffffffffffffffffffffffffffff168373ffffffffffffffffffffffffffffffffffffffff161415617bd557617be1565b617be08383836182e2565b5b505050565b60008073ffffffffffffffffffffffffffffffffffffffff168873ffffffffffffffffffffffffffffffffffffffff161415617c8a576040517f08c379a000000000000000000000000000000000000000000000000000000000815260040180806020018281038252600a8152602001807f5341553a4944465341310000000000000000000000000000000000000000000081525060200191505060405180910390fd5b8115617ca557617c9e898989898989618b6f565b9050617cb7565b617cb489898989898989618da7565b90505b98975050505050505050565b60008073ffffffffffffffffffffffffffffffffffffffff168773ffffffffffffffffffffffffffffffffffffffff161415617d67576040517f08c379a00000000000000000000000000000000000000000000000000000000081526004018080602001828103825260088152602001807f5341553a4944443100000000000000000000000000000000000000000000000081525060200191505060405180910390fd5b8115617d8257617d7b888888888888618ff9565b9050617d91565b617d8e87868686616cc6565b90505b979650505050505050565b600082821115617e14576040517f08c379a000000000000000000000000000000000000000000000000000000000815260040180806020018281038252601e8152602001807f536166654d6174683a207375627472616374696f6e206f766572666c6f77000081525060200191505060405180910390fd5b818303905092915050565b617ebc8363a9059cbb60e01b8484604051602401808373ffffffffffffffffffffffffffffffffffffffff16815260200182815260200192505050604051602081830303815290604052907bffffffffffffffffffffffffffffffffffffffffffffffffffffffff19166020820180517bffffffffffffffffffffffffffffffffffffffffffffffffffffffff8381831617835250505050619133565b505050565b617f7c846323b872dd60e01b858585604051602401808473ffffffffffffffffffffffffffffffffffffffff1681526020018373ffffffffffffffffffffffffffffffffffffffff1681526020018281526020019350505050604051602081830303815290604052907bffffffffffffffffffffffffffffffffffffffffffffffffffffffff19166020820180517bffffffffffffffffffffffffffffffffffffffffffffffffffffffff8381831617835250505050619133565b50505050565b600080823b905060008111915050919050565b600060019054906101000a900460ff1680617fb45750617fb3616d77565b5b80617fca575060008054906101000a900460ff16155b61801f576040517f08c379a000000000000000000000000000000000000000000000000000000000815260040180806020018281038252602e8152602001806197e5602e913960400191505060405180910390fd5b60008060019054906101000a900460ff16159050801561806f576001600060016101000a81548160ff02191690831515021790555060016000806101000a81548160ff0219169083151502179055505b6001808190555080156180975760008060016101000a81548160ff0219169083151502179055505b50565b600060019054906101000a900460ff16806180b957506180b8616d77565b5b806180cf575060008054906101000a900460ff16155b618124576040517f08c379a000000000000000000000000000000000000000000000000000000000815260040180806020018281038252602e8152602001806197e5602e913960400191505060405180910390fd5b60008060019054906101000a900460ff161590508015618174576001600060016101000a81548160ff02191690831515021790555060016000806101000a81548160ff0219169083151502179055505b80156181955760008060016101000a81548160ff0219169083151502179055505b50565b600060019054906101000a900460ff16806181b757506181b6616d77565b5b806181cd575060008054906101000a900460ff16155b618222576040517f08c379a000000000000000000000000000000000000000000000000000000000815260040180806020018281038252602e8152602001806197e5602e913960400191505060405180910390fd5b60008060019054906101000a900460ff161590508015618272576001600060016101000a81548160ff02191690831515021790555060016000806101000a81548160ff0219169083151502179055505b8260689080519060200190618288929190619686565b50816069908051906020019061829f929190619686565b506012606a60006101000a81548160ff021916908360ff16021790555080156182dd5760008060016101000a81548160ff0219169083151502179055505b505050565b6002600154141561835b576040517f08c379a000000000000000000000000000000000000000000000000000000000815260040180806020018281038252601f8152602001807f5265656e7472616e637947756172643a207265656e7472616e742063616c6c0081525060200191505060405180910390fd5b6002600181905550600060fc60050160009054906101000a900473ffffffffffffffffffffffffffffffffffffffff169050600073ffffffffffffffffffffffffffffffffffffffff168173ffffffffffffffffffffffffffffffffffffffff16141580156183f75750600073ffffffffffffffffffffffffffffffffffffffff168373ffffffffffffffffffffffffffffffffffffffff1614155b156185cf577f000000000000000000000000000000000000000000000000000000000000000073ffffffffffffffffffffffffffffffffffffffff16635c7460d66040518163ffffffff1660e01b815260040160206040518083038186803b15801561846257600080fd5b505afa158015618476573d6000803e3d6000fd5b505050506040513d602081101561848c57600080fd5b810190808051906020019092919050505073ffffffffffffffffffffffffffffffffffffffff166302d43dc884836040518363ffffffff1660e01b8152600401808373ffffffffffffffffffffffffffffffffffffffff1681526020018273ffffffffffffffffffffffffffffffffffffffff1681526020019250505060206040518083038186803b15801561852157600080fd5b505afa158015618535573d6000803e3d6000fd5b505050506040513d602081101561854b57600080fd5b81019080805190602001909291905050506185ce576040517f08c379a00000000000000000000000000000000000000000000000000000000081526004018080602001828103825260068152602001807f503a49545435000000000000000000000000000000000000000000000000000081525060200191505060405180910390fd5b5b600073ffffffffffffffffffffffffffffffffffffffff168373ffffffffffffffffffffffffffffffffffffffff161461870057600061860e85612979565b14618681576040517f08c379a00000000000000000000000000000000000000000000000000000000081526004018080602001828103825260068152602001807f503a49545433000000000000000000000000000000000000000000000000000081525060200191505060405180910390fd5b600061868c84612979565b146186ff576040517f08c379a00000000000000000000000000000000000000000000000000000000081526004018080602001828103825260068152602001807f503a49545434000000000000000000000000000000000000000000000000000081525060200191505060405180910390fd5b5b618709846169d4565b600073ffffffffffffffffffffffffffffffffffffffff168373ffffffffffffffffffffffffffffffffffffffff161461874757618746836169d4565b5b60007f000000000000000000000000000000000000000000000000000000000000000073ffffffffffffffffffffffffffffffffffffffff16631466e3ea306040518263ffffffff1660e01b8152600401808273ffffffffffffffffffffffffffffffffffffffff16815260200191505060206040518083038186803b1580156187d057600080fd5b505afa1580156187e4573d6000803e3d6000fd5b505050506040513d60208110156187fa57600080fd5b8101908080519060200190929190505050905060006188176110f0565b9050600061882487612930565b905061885d8261884f85618841898661670690919063ffffffff16565b615ead90919063ffffffff16565b615e1a90919063ffffffff16565b60fb60008973ffffffffffffffffffffffffffffffffffffffff1673ffffffffffffffffffffffffffffffffffffffff16815260200190815260200160002060010181905550600073ffffffffffffffffffffffffffffffffffffffff168673ffffffffffffffffffffffffffffffffffffffff16146189635760006188e287612930565b905061891b8361890d866188ff8a8661667e90919063ffffffff16565b615ead90919063ffffffff16565b615e1a90919063ffffffff16565b60fb60008973ffffffffffffffffffffffffffffffffffffffff1673ffffffffffffffffffffffffffffffffffffffff16815260200190815260200160002060010181905550505b600060fb60008973ffffffffffffffffffffffffffffffffffffffff1673ffffffffffffffffffffffffffffffffffffffff16815260200190815260200160002060020154905060008114156189bd575050505050618b63565b60008190508287146189f1576189ee836189e0848a615ead90919063ffffffff16565b615e1a90919063ffffffff16565b90505b618a468160fb60008c73ffffffffffffffffffffffffffffffffffffffff1673ffffffffffffffffffffffffffffffffffffffff1681526020019081526020016000206002015461670690919063ffffffff16565b60fb60008b73ffffffffffffffffffffffffffffffffffffffff1673ffffffffffffffffffffffffffffffffffffffff16815260200190815260200160002060020181905550600073ffffffffffffffffffffffffffffffffffffffff168873ffffffffffffffffffffffffffffffffffffffff1614618b5c57618b158160fb60008b73ffffffffffffffffffffffffffffffffffffffff1673ffffffffffffffffffffffffffffffffffffffff1681526020019081526020016000206002015461667e90919063ffffffff16565b60fb60008a73ffffffffffffffffffffffffffffffffffffffff1673ffffffffffffffffffffffffffffffffffffffff168152602001908152602001600020600201819055505b5050505050505b60018081905550505050565b60003073ffffffffffffffffffffffffffffffffffffffff168473ffffffffffffffffffffffffffffffffffffffff161415618c94578673ffffffffffffffffffffffffffffffffffffffff1663f18d03cc878786866040518563ffffffff1660e01b8152600401808573ffffffffffffffffffffffffffffffffffffffff1681526020018473ffffffffffffffffffffffffffffffffffffffff1681526020018373ffffffffffffffffffffffffffffffffffffffff168152602001828152602001945050505050602060405180830381600087803b158015618c5257600080fd5b505af1158015618c66573d6000803e3d6000fd5b505050506040513d6020811015618c7c57600080fd5b81019080805190602001909291905050509050618d9d565b8673ffffffffffffffffffffffffffffffffffffffff16636e275bd287878787876040518663ffffffff1660e01b8152600401808673ffffffffffffffffffffffffffffffffffffffff1681526020018573ffffffffffffffffffffffffffffffffffffffff1681526020018473ffffffffffffffffffffffffffffffffffffffff1681526020018373ffffffffffffffffffffffffffffffffffffffff16815260200182815260200195505050505050602060405180830381600087803b158015618d5f57600080fd5b505af1158015618d73573d6000803e3d6000fd5b505050506040513d6020811015618d8957600080fd5b810190808051906020019092919050505090505b9695505050505050565b6000803073ffffffffffffffffffffffffffffffffffffffff168673ffffffffffffffffffffffffffffffffffffffff161415618ed7578873ffffffffffffffffffffffffffffffffffffffff16639267d86f89898888886040518663ffffffff1660e01b8152600401808673ffffffffffffffffffffffffffffffffffffffff1681526020018573ffffffffffffffffffffffffffffffffffffffff1681526020018473ffffffffffffffffffffffffffffffffffffffff168152602001838152602001821515815260200195505050505050602060405180830381600087803b158015618e9557600080fd5b505af1158015618ea9573d6000803e3d6000fd5b505050506040513d6020811015618ebf57600080fd5b81019080805190602001909291905050509050618fea565b8873ffffffffffffffffffffffffffffffffffffffff1663a9736a5d8989898989896040518763ffffffff1660e01b8152600401808773ffffffffffffffffffffffffffffffffffffffff1681526020018673ffffffffffffffffffffffffffffffffffffffff1681526020018573ffffffffffffffffffffffffffffffffffffffff1681526020018473ffffffffffffffffffffffffffffffffffffffff16815260200183815260200182151581526020019650505050505050602060405180830381600087803b158015618fac57600080fd5b505af1158015618fc0573d6000803e3d6000fd5b505050506040513d6020811015618fd657600080fd5b810190808051906020019092919050505090505b80915050979650505050505050565b600061900786853085616cc6565b50600085905061903881848973ffffffffffffffffffffffffffffffffffffffff166192229092919063ffffffff16565b60008873ffffffffffffffffffffffffffffffffffffffff16630284c3f5898988886040518563ffffffff1660e01b8152600401808573ffffffffffffffffffffffffffffffffffffffff1681526020018473ffffffffffffffffffffffffffffffffffffffff1681526020018373ffffffffffffffffffffffffffffffffffffffff168152602001828152602001945050505050602060405180830381600087803b1580156190e757600080fd5b505af11580156190fb573d6000803e3d6000fd5b505050506040513d602081101561911157600080fd5b8101908080519060200190929190505050905080925050509695505050505050565b6000619195826040518060400160405280602081526020017f5361666545524332303a206c6f772d6c6576656c2063616c6c206661696c65648152508573ffffffffffffffffffffffffffffffffffffffff166193e79092919063ffffffff16565b905060008151111561921d578080602001905160208110156191b657600080fd5b810190808051906020019092919050505061921c576040517f08c379a000000000000000000000000000000000000000000000000000000000815260040180806020018281038252602a8152602001806198c6602a913960400191505060405180910390fd5b5b505050565b60008114806192f0575060008373ffffffffffffffffffffffffffffffffffffffff1663dd62ed3e30856040518363ffffffff1660e01b8152600401808373ffffffffffffffffffffffffffffffffffffffff1681526020018273ffffffffffffffffffffffffffffffffffffffff1681526020019250505060206040518083038186803b1580156192b357600080fd5b505afa1580156192c7573d6000803e3d6000fd5b505050506040513d60208110156192dd57600080fd5b8101908080519060200190929190505050145b619345576040517f08c379a00000000000000000000000000000000000000000000000000000000081526004018080602001828103825260368152602001806198f06036913960400191505060405180910390fd5b6193e28363095ea7b360e01b8484604051602401808373ffffffffffffffffffffffffffffffffffffffff16815260200182815260200192505050604051602081830303815290604052907bffffffffffffffffffffffffffffffffffffffffffffffffffffffff19166020820180517bffffffffffffffffffffffffffffffffffffffffffffffffffffffff8381831617835250505050619133565b505050565b60606193f684846000856193ff565b90509392505050565b60608247101561945a576040517f08c379a00000000000000000000000000000000000000000000000000000000081526004018080602001828103825260268152602001806197bf6026913960400191505060405180910390fd5b619463856195a7565b6194d5576040517f08c379a000000000000000000000000000000000000000000000000000000000815260040180806020018281038252601d8152602001807f416464726573733a2063616c6c20746f206e6f6e2d636f6e747261637400000081525060200191505060405180910390fd5b6000808673ffffffffffffffffffffffffffffffffffffffff1685876040518082805190602001908083835b602083106195245780518252602082019150602081019050602083039250619501565b6001836020036101000a03801982511681845116808217855250505050505090500191505060006040518083038185875af1925050503d8060008114619586576040519150601f19603f3d011682016040523d82523d6000602084013e61958b565b606091505b509150915061959b8282866195ba565b92505050949350505050565b600080823b905060008111915050919050565b606083156195ca5782905061967f565b6000835111156195dd5782518084602001fd5b816040517f08c379a00000000000000000000000000000000000000000000000000000000081526004018080602001828103825283818151815260200191508051906020019080838360005b83811015619644578082015181840152602081019050619629565b50505050905090810190601f1680156196715780820380516001836020036101000a031916815260200191505b509250505060405180910390fd5b9392505050565b828054600181600116156101000203166002900490600052602060002090601f0160209004810192826196bc5760008555619703565b82601f106196d557805160ff1916838001178555619703565b82800160010185558215619703579182015b828111156197025782518255916020019190600101906196e7565b5b5090506197109190619714565b5090565b5b8082111561972d576000816000905550600101619715565b509056fe45524332303a207472616e7366657220746f20746865207a65726f206164647265737345524332303a206275726e20616d6f756e7420657863656564732062616c616e636545524332303a20617070726f766520746f20746865207a65726f206164647265737345524332303a207472616e7366657220616d6f756e7420657863656564732062616c616e6365416464726573733a20696e73756666696369656e742062616c616e636520666f722063616c6c496e697469616c697a61626c653a20636f6e747261637420697320616c726561647920696e697469616c697a6564536166654d6174683a206d756c7469706c69636174696f6e206f766572666c6f7745524332303a207472616e7366657220616d6f756e74206578636565647320616c6c6f77616e636545524332303a206275726e2066726f6d20746865207a65726f206164647265737345524332303a207472616e736665722066726f6d20746865207a65726f206164647265737345524332303a20617070726f76652066726f6d20746865207a65726f20616464726573735361666545524332303a204552433230206f7065726174696f6e20646964206e6f7420737563636565645361666545524332303a20617070726f76652066726f6d206e6f6e2d7a65726f20746f206e6f6e2d7a65726f20616c6c6f77616e636545524332303a2064656372656173656420616c6c6f77616e63652062656c6f77207a65726fa2646970667358221220ec27bd690abd330c056ee0e6d718f62d5749c2e8156462285155446b71e3ae6864736f6c63430007060033","linkReferences":{}},"methodIdentifiers":{"addCollateralInMarginCall(address,uint256,bool)":"c145fe69","allowance(address,address)":"dd62ed3e","approve(address,uint256)":"095ea7b3","balanceOf(address)":"70a08231","borrower()":"7df1f1b9","calculateCollateralRatio(uint256,uint256)":"46b55fbb","calculateCurrentPeriod()":"0fc72889","calculateRepaymentWithdrawable(address)":"c4a3702f","cancelPool()":"1b55b2a8","closeLoan()":"232fa733","correspondingBorrowTokens(uint256,uint256)":"4d216a51","decimals()":"313ce567","decreaseAllowance(address,uint256)":"a457c2d7","depositCollateral(uint256,bool)":"d2b93bfd","getBalanceDetails(address)":"b2c09233","getCurrentCollateralRatio()":"e70d72d7","getCurrentCollateralRatio(address)":"daf5539e","getEquivalentTokens(address,address,uint256)":"5afaa80f","getLoanStatus()":"acc1ab13","getMarginCallEndTime(address)":"7320fc29","increaseAllowance(address,uint256)":"39509351","initialize(uint256,uint256,address,address,address,uint256,uint64,uint64,address,uint256,bool,address,uint256,uint256)":"89988363","interestPerPeriod(uint256)":"d820d4c9","interestPerSecond(uint256)":"275ac252","interestToPay()":"5695d52d","lend(address,uint256,address,bool)":"411a0dec","lenders(address)":"28fd10d7","liquidateCancelPenalty(bool,bool)":"c94db32c","liquidateForLender(address,bool,bool,bool)":"bde5ef32","liquidatePool(bool,bool,bool)":"7729886f","name()":"06fdde03","paused()":"5c975abb","poolConstants()":"6886c814","poolVariables()":"7aa9f4a7","requestMarginCall()":"bda9e06b","symbol()":"95d89b41","terminatePool()":"45571276","totalSupply()":"18160ddd","transfer(address,uint256)":"a9059cbb","transferFrom(address,address,uint256)":"23b872dd","withdrawBorrowedAmount()":"95f3f456","withdrawLiquidity()":"7ea382c1","withdrawRepayment()":"7489b451"},"id":5}