{"abi":[{"type":"constructor","inputs":[{"name":"_usdc","type":"address","internalType":"address"},{"name":"_priceOracle","type":"address","internalType":"address"},{"name":"_savingsAccount","type":"address","internalType":"address"},{"name":"_strategyRegistry","type":"address","internalType":"address"}],"stateMutability":"nonpayable"},{"type":"function","name":"PRICE_ORACLE","inputs":[],"outputs":[{"name":"","type":"address","internalType":"contract IPriceOracle"}],"stateMutability":"view"},{"type":"function","name":"SAVINGS_ACCOUNT","inputs":[],"outputs":[{"name":"","type":"address","internalType":"contract ISavingsAccount"}],"stateMutability":"view"},{"type":"function","name":"SCALING_FACTOR","inputs":[],"outputs":[{"name":"","type":"uint256","internalType":"uint256"}],"stateMutability":"view"},{"type":"function","name":"STRATEGY_REGISTRY","inputs":[],"outputs":[{"name":"","type":"address","internalType":"contract IStrategyRegistry"}],"stateMutability":"view"},{"type":"function","name":"accept","inputs":[{"name":"_id","type":"uint256","internalType":"uint256"}],"outputs":[],"stateMutability":"nonpayable"},{"type":"function","name":"borrow","inputs":[{"name":"_id","type":"uint256","internalType":"uint256"},{"name":"_amount","type":"uint256","internalType":"uint256"}],"outputs":[],"stateMutability":"nonpayable"},{"type":"function","name":"borrowLimitLimits","inputs":[],"outputs":[{"name":"min","type":"uint256","internalType":"uint256"},{"name":"max","type":"uint256","internalType":"uint256"}],"stateMutability":"view"},{"type":"function","name":"borrowRateLimits","inputs":[],"outputs":[{"name":"min","type":"uint256","internalType":"uint256"},{"name":"max","type":"uint256","internalType":"uint256"}],"stateMutability":"view"},{"type":"function","name":"borrowTokensToLiquidate","inputs":[{"name":"_id","type":"uint256","internalType":"uint256"}],"outputs":[{"name":"","type":"uint256","internalType":"uint256"}],"stateMutability":"nonpayable"},{"type":"function","name":"calculateBorrowableAmount","inputs":[{"name":"_id","type":"uint256","internalType":"uint256"}],"outputs":[{"name":"","type":"uint256","internalType":"uint256"}],"stateMutability":"nonpayable"},{"type":"function","name":"calculateCurrentCollateralRatio","inputs":[{"name":"_id","type":"uint256","internalType":"uint256"}],"outputs":[{"name":"","type":"uint256","internalType":"uint256"},{"name":"","type":"uint256","internalType":"uint256"}],"stateMutability":"nonpayable"},{"type":"function","name":"calculateCurrentDebt","inputs":[{"name":"_id","type":"uint256","internalType":"uint256"}],"outputs":[{"name":"","type":"uint256","internalType":"uint256"}],"stateMutability":"view"},{"type":"function","name":"calculateInterestAccrued","inputs":[{"name":"_id","type":"uint256","internalType":"uint256"}],"outputs":[{"name":"","type":"uint256","internalType":"uint256"}],"stateMutability":"view"},{"type":"function","name":"calculateInterestScaled","inputs":[{"name":"_principal","type":"uint256","internalType":"uint256"},{"name":"_borrowRate","type":"uint256","internalType":"uint256"},{"name":"_timeElapsed","type":"uint256","internalType":"uint256"}],"outputs":[{"name":"","type":"uint256","internalType":"uint256"}],"stateMutability":"pure"},{"type":"function","name":"calculateTotalCollateralTokens","inputs":[{"name":"_id","type":"uint256","internalType":"uint256"}],"outputs":[{"name":"","type":"uint256","internalType":"uint256"}],"stateMutability":"nonpayable"},{"type":"function","name":"cancel","inputs":[{"name":"_id","type":"uint256","internalType":"uint256"}],"outputs":[],"stateMutability":"nonpayable"},{"type":"function","name":"close","inputs":[{"name":"_id","type":"uint256","internalType":"uint256"}],"outputs":[],"stateMutability":"nonpayable"},{"type":"function","name":"collateralShareInStrategy","inputs":[{"name":"","type":"uint256","internalType":"uint256"}],"outputs":[{"name":"","type":"uint256","internalType":"uint256"}],"stateMutability":"view"},{"type":"function","name":"creditLineConstants","inputs":[{"name":"","type":"uint256","internalType":"uint256"}],"outputs":[{"name":"autoLiquidation","type":"bool","internalType":"bool"},{"name":"requestByLender","type":"bool","internalType":"bool"},{"name":"borrowLimit","type":"uint128","internalType":"uint128"},{"name":"borrowRate","type":"uint128","internalType":"uint128"},{"name":"idealCollateralRatio","type":"uint256","internalType":"uint256"},{"name":"lender","type":"address","internalType":"address"},{"name":"borrower","type":"address","internalType":"address"},{"name":"borrowAsset","type":"address","internalType":"address"},{"name":"borrowAssetStrategy","type":"address","internalType":"address"},{"name":"collateralAsset","type":"address","internalType":"address"},{"name":"collateralStrategy","type":"address","internalType":"address"}],"stateMutability":"view"},{"type":"function","name":"creditLineCounter","inputs":[],"outputs":[{"name":"","type":"uint256","internalType":"uint256"}],"stateMutability":"view"},{"type":"function","name":"creditLineVariables","inputs":[{"name":"","type":"uint256","internalType":"uint256"}],"outputs":[{"name":"status","type":"uint8","internalType":"enum CreditLine.CreditLineStatus"},{"name":"principal","type":"uint256","internalType":"uint256"},{"name":"totalInterestRepaid","type":"uint256","internalType":"uint256"},{"name":"lastPrincipalUpdateTime","type":"uint256","internalType":"uint256"},{"name":"interestAccruedTillLastPrincipalUpdate","type":"uint256","internalType":"uint256"}],"stateMutability":"view"},{"type":"function","name":"depositCollateral","inputs":[{"name":"_id","type":"uint256","internalType":"uint256"},{"name":"_amount","type":"uint256","internalType":"uint256"},{"name":"_fromSavingsAccount","type":"bool","internalType":"bool"}],"outputs":[],"stateMutability":"nonpayable"},{"type":"function","name":"getCreditLineStatus","inputs":[{"name":"_id","type":"uint256","internalType":"uint256"}],"outputs":[{"name":"","type":"uint8","internalType":"enum CreditLine.CreditLineStatus"}],"stateMutability":"view"},{"type":"function","name":"idealCollateralRatioLimits","inputs":[],"outputs":[{"name":"min","type":"uint256","internalType":"uint256"},{"name":"max","type":"uint256","internalType":"uint256"}],"stateMutability":"view"},{"type":"function","name":"initialize","inputs":[{"name":"_owner","type":"address","internalType":"address"},{"name":"_protocolFeeFraction","type":"uint256","internalType":"uint256"},{"name":"_protocolFeeCollector","type":"address","internalType":"address"},{"name":"_liquidatorRewardFraction","type":"uint256","internalType":"uint256"}],"outputs":[],"stateMutability":"nonpayable"},{"type":"function","name":"liquidate","inputs":[{"name":"_id","type":"uint256","internalType":"uint256"},{"name":"_toSavingsAccount","type":"bool","internalType":"bool"}],"outputs":[],"stateMutability":"nonpayable"},{"type":"function","name":"liquidatorRewardFraction","inputs":[],"outputs":[{"name":"","type":"uint256","internalType":"uint256"}],"stateMutability":"view"},{"type":"function","name":"owner","inputs":[],"outputs":[{"name":"","type":"address","internalType":"address"}],"stateMutability":"view"},{"type":"function","name":"protocolFeeCollector","inputs":[],"outputs":[{"name":"","type":"address","internalType":"address"}],"stateMutability":"view"},{"type":"function","name":"protocolFeeFraction","inputs":[],"outputs":[{"name":"","type":"uint256","internalType":"uint256"}],"stateMutability":"view"},{"type":"function","name":"renounceOwnership","inputs":[],"outputs":[],"stateMutability":"nonpayable"},{"type":"function","name":"repay","inputs":[{"name":"_id","type":"uint256","internalType":"uint256"},{"name":"_amount","type":"uint256","internalType":"uint256"}],"outputs":[],"stateMutability":"nonpayable"},{"type":"function","name":"request","inputs":[{"name":"_requestTo","type":"address","internalType":"address"},{"name":"_borrowLimit","type":"uint128","internalType":"uint128"},{"name":"_borrowRate","type":"uint128","internalType":"uint128"},{"name":"_autoLiquidation","type":"bool","internalType":"bool"},{"name":"_collateralRatio","type":"uint256","internalType":"uint256"},{"name":"_borrowAsset","type":"address","internalType":"address"},{"name":"_borrowAssetStrategy","type":"address","internalType":"address"},{"name":"_collateralAsset","type":"address","internalType":"address"},{"name":"_collateralStrategy","type":"address","internalType":"address"},{"name":"_requestAsLender","type":"bool","internalType":"bool"}],"outputs":[{"name":"","type":"uint256","internalType":"uint256"}],"stateMutability":"nonpayable"},{"type":"function","name":"transferOwnership","inputs":[{"name":"newOwner","type":"address","internalType":"address"}],"outputs":[],"stateMutability":"nonpayable"},{"type":"function","name":"updateBorrowLimit","inputs":[{"name":"_id","type":"uint256","internalType":"uint256"},{"name":"_newBorrowLimit","type":"uint128","internalType":"uint128"}],"outputs":[],"stateMutability":"nonpayable"},{"type":"function","name":"updateBorrowLimitLimits","inputs":[{"name":"_min","type":"uint256","internalType":"uint256"},{"name":"_max","type":"uint256","internalType":"uint256"}],"outputs":[],"stateMutability":"nonpayable"},{"type":"function","name":"updateBorrowRateLimits","inputs":[{"name":"_min","type":"uint256","internalType":"uint256"},{"name":"_max","type":"uint256","internalType":"uint256"}],"outputs":[],"stateMutability":"nonpayable"},{"type":"function","name":"updateIdealCollateralRatioLimits","inputs":[{"name":"_min","type":"uint256","internalType":"uint256"},{"name":"_max","type":"uint256","internalType":"uint256"}],"outputs":[],"stateMutability":"nonpayable"},{"type":"function","name":"updateLiquidatorRewardFraction","inputs":[{"name":"_rewardFraction","type":"uint256","internalType":"uint256"}],"outputs":[],"stateMutability":"nonpayable"},{"type":"function","name":"updateProtocolFeeCollector","inputs":[{"name":"_protocolFeeCollector","type":"address","internalType":"address"}],"outputs":[],"stateMutability":"nonpayable"},{"type":"function","name":"updateProtocolFeeFraction","inputs":[{"name":"_protocolFee","type":"uint256","internalType":"uint256"}],"outputs":[],"stateMutability":"nonpayable"},{"type":"function","name":"withdrawAllCollateral","inputs":[{"name":"_id","type":"uint256","internalType":"uint256"},{"name":"_toSavingsAccount","type":"bool","internalType":"bool"}],"outputs":[],"stateMutability":"nonpayable"},{"type":"function","name":"withdrawCollateral","inputs":[{"name":"_id","type":"uint256","internalType":"uint256"},{"name":"_amount","type":"uint256","internalType":"uint256"},{"name":"_toSavingsAccount","type":"bool","internalType":"bool"}],"outputs":[],"stateMutability":"nonpayable"},{"type":"function","name":"withdrawableCollateral","inputs":[{"name":"_id","type":"uint256","internalType":"uint256"}],"outputs":[{"name":"","type":"uint256","internalType":"uint256"}],"stateMutability":"nonpayable"},{"type":"event","name":"BorrowLimitUpdated","inputs":[{"name":"id","type":"uint256","indexed":true,"internalType":"uint256"},{"name":"updatedBorrowLimit","type":"uint128","indexed":false,"internalType":"uint128"}],"anonymous":false},{"type":"event","name":"BorrowedFromCreditLine","inputs":[{"name":"id","type":"uint256","indexed":true,"internalType":"uint256"},{"name":"borrowShares","type":"uint256","indexed":false,"internalType":"uint256"}],"anonymous":false},{"type":"event","name":"CollateralSharesDeposited","inputs":[{"name":"id","type":"uint256","indexed":true,"internalType":"uint256"},{"name":"shares","type":"uint256","indexed":false,"internalType":"uint256"}],"anonymous":false},{"type":"event","name":"CollateralSharesWithdrawn","inputs":[{"name":"id","type":"uint256","indexed":true,"internalType":"uint256"},{"name":"shares","type":"uint256","indexed":false,"internalType":"uint256"}],"anonymous":false},{"type":"event","name":"CompleteCreditLineRepaid","inputs":[{"name":"id","type":"uint256","indexed":true,"internalType":"uint256"},{"name":"repayer","type":"address","indexed":true,"internalType":"address"},{"name":"repayAmount","type":"uint256","indexed":false,"internalType":"uint256"}],"anonymous":false},{"type":"event","name":"CreditLineAccepted","inputs":[{"name":"id","type":"uint256","indexed":true,"internalType":"uint256"}],"anonymous":false},{"type":"event","name":"CreditLineCancelled","inputs":[{"name":"id","type":"uint256","indexed":true,"internalType":"uint256"}],"anonymous":false},{"type":"event","name":"CreditLineClosed","inputs":[{"name":"id","type":"uint256","indexed":true,"internalType":"uint256"},{"name":"closedByLender","type":"bool","indexed":false,"internalType":"bool"}],"anonymous":false},{"type":"event","name":"CreditLineLiquidated","inputs":[{"name":"id","type":"uint256","indexed":true,"internalType":"uint256"},{"name":"liquidator","type":"address","indexed":true,"internalType":"address"}],"anonymous":false},{"type":"event","name":"CreditLineRequested","inputs":[{"name":"id","type":"uint256","indexed":true,"internalType":"uint256"},{"name":"lender","type":"address","indexed":true,"internalType":"address"},{"name":"borrower","type":"address","indexed":true,"internalType":"address"},{"name":"requestByLender","type":"bool","indexed":false,"internalType":"bool"}],"anonymous":false},{"type":"event","name":"CreditLineReset","inputs":[{"name":"id","type":"uint256","indexed":true,"internalType":"uint256"}],"anonymous":false},{"type":"event","name":"LimitsUpdated","inputs":[{"name":"limitType","type":"string","indexed":true,"internalType":"string"},{"name":"max","type":"uint256","indexed":false,"internalType":"uint256"},{"name":"min","type":"uint256","indexed":false,"internalType":"uint256"}],"anonymous":false},{"type":"event","name":"LiquidationRewardFractionUpdated","inputs":[{"name":"liquidatorRewardFraction","type":"uint256","indexed":false,"internalType":"uint256"}],"anonymous":false},{"type":"event","name":"OwnershipTransferred","inputs":[{"name":"previousOwner","type":"address","indexed":true,"internalType":"address"},{"name":"newOwner","type":"address","indexed":true,"internalType":"address"}],"anonymous":false},{"type":"event","name":"PartialCreditLineRepaid","inputs":[{"name":"id","type":"uint256","indexed":true,"internalType":"uint256"},{"name":"repayer","type":"address","indexed":true,"internalType":"address"},{"name":"repayAmount","type":"uint256","indexed":false,"internalType":"uint256"}],"anonymous":false},{"type":"event","name":"ProtocolFeeCollectorUpdated","inputs":[{"name":"updatedProtocolFeeCollector","type":"address","indexed":true,"internalType":"address"}],"anonymous":false},{"type":"event","name":"ProtocolFeeFractionUpdated","inputs":[{"name":"updatedProtocolFee","type":"uint256","indexed":false,"internalType":"uint256"}],"anonymous":false}],"bytecode":{"object":"0x6101006040523480156200001257600080fd5b50604051620087ef380380620087ef833981810160405260808110156200003857600080fd5b8101908080519060200190929190805190602001909291908051906020019092919080519060200190929190505050600073ffffffffffffffffffffffffffffffffffffffff168473ffffffffffffffffffffffffffffffffffffffff1614156200010b576040517f08c379a00000000000000000000000000000000000000000000000000000000081526004018080602001828103825260078152602001807f434c3a434f4e310000000000000000000000000000000000000000000000000081525060200191505060405180910390fd5b8373ffffffffffffffffffffffffffffffffffffffff1660808173ffffffffffffffffffffffffffffffffffffffff1660601b81525050600073ffffffffffffffffffffffffffffffffffffffff168373ffffffffffffffffffffffffffffffffffffffff161415620001e6576040517f08c379a00000000000000000000000000000000000000000000000000000000081526004018080602001828103825260078152602001807f434c3a434f4e320000000000000000000000000000000000000000000000000081525060200191505060405180910390fd5b8273ffffffffffffffffffffffffffffffffffffffff1660a08173ffffffffffffffffffffffffffffffffffffffff1660601b81525050600073ffffffffffffffffffffffffffffffffffffffff168273ffffffffffffffffffffffffffffffffffffffff161415620002c1576040517f08c379a00000000000000000000000000000000000000000000000000000000081526004018080602001828103825260078152602001807f434c3a434f4e330000000000000000000000000000000000000000000000000081525060200191505060405180910390fd5b8173ffffffffffffffffffffffffffffffffffffffff1660c08173ffffffffffffffffffffffffffffffffffffffff1660601b81525050600073ffffffffffffffffffffffffffffffffffffffff168173ffffffffffffffffffffffffffffffffffffffff1614156200039c576040517f08c379a00000000000000000000000000000000000000000000000000000000081526004018080602001828103825260078152602001807f434c3a434f4e340000000000000000000000000000000000000000000000000081525060200191505060405180910390fd5b8073ffffffffffffffffffffffffffffffffffffffff1660e08173ffffffffffffffffffffffffffffffffffffffff1660601b815250505050505060805160601c60a05160601c60c05160601c60e05160601c61838b62000464600039806148f65280614d7b5280614eb352508061199352806137a4528061392952806147df5280616770528061687e5280617699525080610e7f528061105252806143da5280614ae2528061558252806169a75280616ad2528061704052508061707d525061838b6000f3fe608060405234801561001057600080fd5b50600436106102745760003560e01c80637b2a2d1f11610151578063cfc0d64d116100c3578063de9de06e11610087578063de9de06e14610ccd578063e1e1e5c914610cfb578063e24df75414610d20578063ef4cadc514610d98578063f2fde38b14610db6578063fc9f699114610dfa57610274565b8063cfc0d64d14610a90578063d5faf0e514610add578063d68f217014610c11578063d8aed14514610c53578063de056bc914610c8b57610274565b80638da5cb5b116101155780638da5cb5b1461086f5780638f75315b146108a357806396d74f93146108d75780639e8aab5014610a0a578063acca944f14610a54578063bcda383f14610a7257610274565b80637b2a2d1f14610737578063850a15011461076b5780638878e26c1461079f5780638ad6e3e8146107e15780638b6394741461080657610274565b80633a0298eb116101ea578063565b54ea116101ae578063565b54ea146105d55780635c8edac41461061957806365b59b5d146106535780636a46c1e114610695578063715018a6146106d757806377fe0aac146106e157610274565b80633a0298eb146104cb57806340e58ee5146104e9578063451226d11461051757806350264fcf1461055b57806354a268301461059357610274565b806319b05f491161023c57806319b05f491461038a5780631af3cf19146103b85780631b6fff13146103f057806322adad3e146104285780632758db0c1461046c578063292477ec146104a657610274565b806306c6a002146102795780630a19399a146102c25780630aebeb4e146102f65780630ecbcdab14610324578063112dc9dc1461035c575b600080fd5b6102a56004803603602081101561028f57600080fd5b8101908080359060200190929190505050610e3c565b604051808381526020018281526020019250505060405180910390f35b6102ca611050565b604051808273ffffffffffffffffffffffffffffffffffffffff16815260200191505060405180910390f35b6103226004803603602081101561030c57600080fd5b8101908080359060200190929190505050611074565b005b61035a6004803603604081101561033a57600080fd5b810190808035906020019092919080359060200190929190505050611622565b005b6103886004803603602081101561037257600080fd5b8101908080359060200190929190505050611d3a565b005b6103b6600480360360208110156103a057600080fd5b8101908080359060200190929190505050611e6d565b005b6103ee600480360360408110156103ce57600080fd5b8101908080359060200190929190803590602001909291905050506120f4565b005b6104266004803603604081101561040657600080fd5b81019080803590602001909291908035906020019092919050505061234b565b005b61046a6004803603606081101561043e57600080fd5b8101908080359060200190929190803590602001909291908035151590602001909291905050506125a2565b005b6104a46004803603604081101561048257600080fd5b8101908080359060200190929190803515159060200190929190505050612931565b005b6104ae6130ac565b604051808381526020018281526020019250505060405180910390f35b6104d36130be565b6040518082815260200191505060405180910390f35b610515600480360360208110156104ff57600080fd5b81019080803590602001909291905050506130c4565b005b6105596004803603606081101561052d57600080fd5b8101908080359060200190929190803590602001909291908035151590602001909291905050506134a6565b005b6105916004803603604081101561057157600080fd5b810190808035906020019092919080359060200190929190505050613ab6565b005b6105bf600480360360208110156105a957600080fd5b8101908080359060200190929190505050613d0d565b6040518082815260200191505060405180910390f35b610617600480360360208110156105eb57600080fd5b81019080803573ffffffffffffffffffffffffffffffffffffffff169060200190929190505050613e07565b005b6106516004803603604081101561062f57600080fd5b8101908080359060200190929190803515159060200190929190505050613f86565b005b61067f6004803603602081101561066957600080fd5b81019080803590602001909291905050506141a4565b6040518082815260200191505060405180910390f35b6106c1600480360360208110156106ab57600080fd5b810190808035906020019092919050505061429e565b6040518082815260200191505060405180910390f35b6106df614627565b005b610721600480360360608110156106f757600080fd5b81019080803590602001909291908035906020019092919080359060200190929190505050614797565b6040518082815260200191505060405180910390f35b61073f6147dd565b604051808273ffffffffffffffffffffffffffffffffffffffff16815260200191505060405180910390f35b610773614801565b604051808273ffffffffffffffffffffffffffffffffffffffff16815260200191505060405180910390f35b6107cb600480360360208110156107b557600080fd5b8101908080359060200190929190505050614827565b6040518082815260200191505060405180910390f35b6107e9614875565b604051808381526020018281526020019250505060405180910390f35b6108326004803603602081101561081c57600080fd5b8101908080359060200190929190505050614887565b6040518086600281111561084257fe5b81526020018581526020018481526020018381526020018281526020019550505050505060405180910390f35b6108776148ca565b604051808273ffffffffffffffffffffffffffffffffffffffff16815260200191505060405180910390f35b6108ab6148f4565b604051808273ffffffffffffffffffffffffffffffffffffffff16815260200191505060405180910390f35b6109f460048036036101408110156108ee57600080fd5b81019080803573ffffffffffffffffffffffffffffffffffffffff16906020019092919080356fffffffffffffffffffffffffffffffff16906020019092919080356fffffffffffffffffffffffffffffffff16906020019092919080351515906020019092919080359060200190929190803573ffffffffffffffffffffffffffffffffffffffff169060200190929190803573ffffffffffffffffffffffffffffffffffffffff169060200190929190803573ffffffffffffffffffffffffffffffffffffffff169060200190929190803573ffffffffffffffffffffffffffffffffffffffff169060200190929190803515159060200190929190505050614918565b6040518082815260200191505060405180910390f35b610a5260048036036040811015610a2057600080fd5b810190808035906020019092919080356fffffffffffffffffffffffffffffffff16906020019092919050505061513a565b005b610a5c61538e565b6040518082815260200191505060405180910390f35b610a7a615394565b6040518082815260200191505060405180910390f35b610abc60048036036020811015610aa657600080fd5b810190808035906020019092919050505061539a565b60405180826002811115610acc57fe5b815260200191505060405180910390f35b610b0960048036036020811015610af357600080fd5b81019080803590602001909291905050506153c7565b604051808c151581526020018b151581526020018a6fffffffffffffffffffffffffffffffff168152602001896fffffffffffffffffffffffffffffffff1681526020018881526020018773ffffffffffffffffffffffffffffffffffffffff1681526020018673ffffffffffffffffffffffffffffffffffffffff1681526020018573ffffffffffffffffffffffffffffffffffffffff1681526020018473ffffffffffffffffffffffffffffffffffffffff1681526020018373ffffffffffffffffffffffffffffffffffffffff1681526020018273ffffffffffffffffffffffffffffffffffffffff1681526020019b50505050505050505050505060405180910390f35b610c3d60048036036020811015610c2757600080fd5b8101908080359060200190929190505050615533565b6040518082815260200191505060405180910390f35b610c8960048036036040811015610c6957600080fd5b810190808035906020019092919080359060200190929190505050615758565b005b610cb760048036036020811015610ca157600080fd5b8101908080359060200190929190505050615bfb565b6040518082815260200191505060405180910390f35b610cf960048036036020811015610ce357600080fd5b8101908080359060200190929190505050615c68565b005b610d03615d9b565b604051808381526020018281526020019250505060405180910390f35b610d9660048036036080811015610d3657600080fd5b81019080803573ffffffffffffffffffffffffffffffffffffffff16906020019092919080359060200190929190803573ffffffffffffffffffffffffffffffffffffffff16906020019092919080359060200190929190505050615dad565b005b610da0615ee3565b6040518082815260200191505060405180910390f35b610df860048036036020811015610dcc57600080fd5b81019080803573ffffffffffffffffffffffffffffffffffffffff169060200190929190505050615eef565b005b610e2660048036036020811015610e1057600080fd5b81019080803590602001909291905050506160e4565b6040518082815260200191505060405180910390f35b600080600060a3600085815260200190815260200160002060070160009054906101000a900473ffffffffffffffffffffffffffffffffffffffff1690506000807f000000000000000000000000000000000000000000000000000000000000000073ffffffffffffffffffffffffffffffffffffffff166310603c118460a360008a815260200190815260200160002060050160009054906101000a900473ffffffffffffffffffffffffffffffffffffffff166040518363ffffffff1660e01b8152600401808373ffffffffffffffffffffffffffffffffffffffff1681526020018273ffffffffffffffffffffffffffffffffffffffff16815260200192505050604080518083038186803b158015610f5757600080fd5b505afa158015610f6b573d6000803e3d6000fd5b505050506040513d6040811015610f8157600080fd5b810190808051906020019092919080519060200190929190505050915091506000610fab87615bfb565b90506000610fb988866160fc565b905060007fffffffffffffffffffffffffffffffffffffffffffffffffffffffffffffffff90506000831461103f5761103c8361102e670de0b6b3a764000061102088600a0a6110128b8961620c90919063ffffffff16565b61629290919063ffffffff16565b61620c90919063ffffffff16565b61629290919063ffffffff16565b90505b808297509750505050505050915091565b7f000000000000000000000000000000000000000000000000000000000000000081565b600260015414156110ed576040517f08c379a000000000000000000000000000000000000000000000000000000000815260040180806020018281038252601f8152602001807f5265656e7472616e637947756172643a207265656e7472616e742063616c6c0081525060200191505060405180910390fd5b600260018190555060028081111561110157fe5b60a2600083815260200190815260200160002060000160009054906101000a900460ff16600281111561113057fe5b146111a3576040517f08c379a00000000000000000000000000000000000000000000000000000000081526004018080602001828103825260058152602001807f434c3a433100000000000000000000000000000000000000000000000000000081525060200191505060405180910390fd5b60a3600082815260200190815260200160002060040160009054906101000a900473ffffffffffffffffffffffffffffffffffffffff1673ffffffffffffffffffffffffffffffffffffffff163373ffffffffffffffffffffffffffffffffffffffff161480611274575060a3600082815260200190815260200160002060030160009054906101000a900473ffffffffffffffffffffffffffffffffffffffff1673ffffffffffffffffffffffffffffffffffffffff163373ffffffffffffffffffffffffffffffffffffffff16145b6112e6576040517f08c379a00000000000000000000000000000000000000000000000000000000081526004018080602001828103825260058152602001807f434c3a433200000000000000000000000000000000000000000000000000000081525060200191505060405180910390fd5b600060a260008381526020019081526020016000206001015414611372576040517f08c379a00000000000000000000000000000000000000000000000000000000081526004018080602001828103825260058152602001807f434c3a433300000000000000000000000000000000000000000000000000000081525060200191505060405180910390fd5b6113b48160a3600084815260200190815260200160002060040160009054906101000a900473ffffffffffffffffffffffffffffffffffffffff16600061631b565b600060a3600083815260200190815260200160002060030160009054906101000a900473ffffffffffffffffffffffffffffffffffffffff1673ffffffffffffffffffffffffffffffffffffffff163373ffffffffffffffffffffffffffffffffffffffff1614905060a36000838152602001908152602001600020600080820160006101000a81549060ff02191690556000820160016101000a81549060ff02191690556000820160026101000a8154906fffffffffffffffffffffffffffffffff02191690556001820160006101000a8154906fffffffffffffffffffffffffffffffff021916905560028201600090556003820160006101000a81549073ffffffffffffffffffffffffffffffffffffffff02191690556004820160006101000a81549073ffffffffffffffffffffffffffffffffffffffff02191690556005820160006101000a81549073ffffffffffffffffffffffffffffffffffffffff02191690556006820160006101000a81549073ffffffffffffffffffffffffffffffffffffffff02191690556007820160006101000a81549073ffffffffffffffffffffffffffffffffffffffff02191690556008820160006101000a81549073ffffffffffffffffffffffffffffffffffffffff0219169055505060a26000838152602001908152602001600020600080820160006101000a81549060ff021916905560018201600090556002820160009055600382016000905560048201600090555050817fb297de70a123bcd2ef37c392cec1af82c73ec190a53b38691067721df29da9998260405180821515815260200191505060405180910390a2506001808190555050565b6002600154141561169b576040517f08c379a000000000000000000000000000000000000000000000000000000000815260040180806020018281038252601f8152602001807f5265656e7472616e637947756172643a207265656e7472616e742063616c6c0081525060200191505060405180910390fd5b6002600181905550813373ffffffffffffffffffffffffffffffffffffffff1660a3600083815260200190815260200160002060040160009054906101000a900473ffffffffffffffffffffffffffffffffffffffff1673ffffffffffffffffffffffffffffffffffffffff161461177b576040517f08c379a00000000000000000000000000000000000000000000000000000000081526004018080602001828103825260088152602001807f434c3a4f434c423100000000000000000000000000000000000000000000000081525060200191505060405180910390fd5b60008214156117f2576040517f08c379a00000000000000000000000000000000000000000000000000000000081526004018080602001828103825260058152602001807f434c3a423100000000000000000000000000000000000000000000000000000081525060200191505060405180910390fd5b6117fb8361429e565b821115611870576040517f08c379a00000000000000000000000000000000000000000000000000000000081526004018080602001828103825260058152602001807f434c3a423200000000000000000000000000000000000000000000000000000081525060200191505060405180910390fd5b600060a3600085815260200190815260200160002060050160009054906101000a900473ffffffffffffffffffffffffffffffffffffffff1690506118b484613d0d565b60a26000868152602001908152602001600020600401819055504260a260008681526020019081526020016000206003018190555060008173ffffffffffffffffffffffffffffffffffffffff166370a08231306040518263ffffffff1660e01b8152600401808273ffffffffffffffffffffffffffffffffffffffff16815260200191505060206040518083038186803b15801561195257600080fd5b505afa158015611966573d6000803e3d6000fd5b505050506040513d602081101561197c57600080fd5b8101908080519060200190929190505050905060007f000000000000000000000000000000000000000000000000000000000000000073ffffffffffffffffffffffffffffffffffffffff1663a9736a5d8460a360008a815260200190815260200160002060060160009054906101000a900473ffffffffffffffffffffffffffffffffffffffff1660a360008b815260200190815260200160002060030160009054906101000a900473ffffffffffffffffffffffffffffffffffffffff16308a60006040518763ffffffff1660e01b8152600401808773ffffffffffffffffffffffffffffffffffffffff1681526020018673ffffffffffffffffffffffffffffffffffffffff1681526020018573ffffffffffffffffffffffffffffffffffffffff1681526020018473ffffffffffffffffffffffffffffffffffffffff16815260200183815260200182151581526020019650505050505050602060405180830381600087803b158015611af357600080fd5b505af1158015611b07573d6000803e3d6000fd5b505050506040513d6020811015611b1d57600080fd5b8101908080519060200190929190505050905060008373ffffffffffffffffffffffffffffffffffffffff166370a08231306040518263ffffffff1660e01b8152600401808273ffffffffffffffffffffffffffffffffffffffff16815260200191505060206040518083038186803b158015611b9957600080fd5b505afa158015611bad573d6000803e3d6000fd5b505050506040513d6020811015611bc357600080fd5b810190808051906020019092919050505090506000611beb84836163b790919063ffffffff16565b9050611c168160a260008b81526020019081526020016000206001015461643a90919063ffffffff16565b60a260008a8152602001908152602001600020600101819055506000611c61670de0b6b3a7640000611c536097548561620c90919063ffffffff16565b61629290919063ffffffff16565b9050611c7681836163b790919063ffffffff16565b9150611cc5609860009054906101000a900473ffffffffffffffffffffffffffffffffffffffff16828873ffffffffffffffffffffffffffffffffffffffff166164c29092919063ffffffff16565b611cf033838873ffffffffffffffffffffffffffffffffffffffff166164c29092919063ffffffff16565b887f9753634d48020c32eebf616db62237689d9c4523d0a185f325125c82e11a2c83856040518082815260200191505060405180910390a250505050505050600180819055505050565b611d42616564565b73ffffffffffffffffffffffffffffffffffffffff16611d606148ca565b73ffffffffffffffffffffffffffffffffffffffff1614611de9576040517f08c379a00000000000000000000000000000000000000000000000000000000081526004018080602001828103825260208152602001807f4f776e61626c653a2063616c6c6572206973206e6f7420746865206f776e657281525060200191505060405180910390fd5b806099541415611e61576040517f08c379a00000000000000000000000000000000000000000000000000000000081526004018080602001828103825260088152602001807f434c3a554c52463100000000000000000000000000000000000000000000000081525060200191505060405180910390fd5b611e6a8161656c565b50565b60016002811115611e7a57fe5b60a2600083815260200190815260200160002060000160009054906101000a900460ff166002811115611ea957fe5b14611f1c576040517f08c379a00000000000000000000000000000000000000000000000000000000081526004018080602001828103825260058152602001807f434c3a413100000000000000000000000000000000000000000000000000000081525060200191505060405180910390fd5b600060a3600083815260200190815260200160002060000160019054906101000a900460ff16905080611fb35760a3600083815260200190815260200160002060030160009054906101000a900473ffffffffffffffffffffffffffffffffffffffff1673ffffffffffffffffffffffffffffffffffffffff163373ffffffffffffffffffffffffffffffffffffffff1614612019565b60a3600083815260200190815260200160002060040160009054906101000a900473ffffffffffffffffffffffffffffffffffffffff1673ffffffffffffffffffffffffffffffffffffffff163373ffffffffffffffffffffffffffffffffffffffff16145b61208b576040517f08c379a00000000000000000000000000000000000000000000000000000000081526004018080602001828103825260058152602001807f434c3a413200000000000000000000000000000000000000000000000000000081525060200191505060405180910390fd5b600260a2600084815260200190815260200160002060000160006101000a81548160ff021916908360028111156120be57fe5b0217905550817f6affcd0d21c973541a768cedea20a2b11ccb8fc6b89e673886eeb0a52c20411b60405160405180910390a25050565b6120fc616564565b73ffffffffffffffffffffffffffffffffffffffff1661211a6148ca565b73ffffffffffffffffffffffffffffffffffffffff16146121a3576040517f08c379a00000000000000000000000000000000000000000000000000000000081526004018080602001828103825260208152602001807f4f776e61626c653a2063616c6c6572206973206e6f7420746865206f776e657281525060200191505060405180910390fd5b80821115612219576040517f08c379a00000000000000000000000000000000000000000000000000000000081526004018080602001828103825260088152602001807f434c3a55424c4c3100000000000000000000000000000000000000000000000081525060200191505060405180910390fd5b81609a60000154148015612231575080609a60010154145b156122a4576040517f08c379a00000000000000000000000000000000000000000000000000000000081526004018080602001828103825260088152602001807f434c3a55424c4c3200000000000000000000000000000000000000000000000081525060200191505060405180910390fd5b604051806040016040528083815260200182815250609a600082015181600001556020820151816001015590505060405180807f626f72726f774c696d6974000000000000000000000000000000000000000000815250600b01905060405180910390207fe9da20d631ef06f93c14c03acd9bc8f22141e6fce63b1066f76c903adb73ea408383604051808381526020018281526020019250505060405180910390a25050565b612353616564565b73ffffffffffffffffffffffffffffffffffffffff166123716148ca565b73ffffffffffffffffffffffffffffffffffffffff16146123fa576040517f08c379a00000000000000000000000000000000000000000000000000000000081526004018080602001828103825260208152602001807f4f776e61626c653a2063616c6c6572206973206e6f7420746865206f776e657281525060200191505060405180910390fd5b80821115612470576040517f08c379a00000000000000000000000000000000000000000000000000000000081526004018080602001828103825260088152602001807f434c3a5542524c3100000000000000000000000000000000000000000000000081525060200191505060405180910390fd5b81609e60000154148015612488575080609e60010154145b156124fb576040517f08c379a00000000000000000000000000000000000000000000000000000000081526004018080602001828103825260088152602001807f434c3a5542524c3200000000000000000000000000000000000000000000000081525060200191505060405180910390fd5b604051806040016040528083815260200182815250609e600082015181600001556020820151816001015590505060405180807f626f72726f775261746500000000000000000000000000000000000000000000815250600a01905060405180910390207fe9da20d631ef06f93c14c03acd9bc8f22141e6fce63b1066f76c903adb73ea408383604051808381526020018281526020019250505060405180910390a25050565b6002600154141561261b576040517f08c379a000000000000000000000000000000000000000000000000000000000815260040180806020018281038252601f8152602001807f5265656e7472616e637947756172643a207265656e7472616e742063616c6c0081525060200191505060405180910390fd5b6002600181905550823373ffffffffffffffffffffffffffffffffffffffff1660a3600083815260200190815260200160002060040160009054906101000a900473ffffffffffffffffffffffffffffffffffffffff1673ffffffffffffffffffffffffffffffffffffffff16146126fb576040517f08c379a00000000000000000000000000000000000000000000000000000000081526004018080602001828103825260088152602001807f434c3a4f434c423100000000000000000000000000000000000000000000000081525060200191505060405180910390fd5b6000831415612772576040517f08c379a00000000000000000000000000000000000000000000000000000000081526004018080602001828103825260068152602001807f434c3a574331000000000000000000000000000000000000000000000000000081525060200191505060405180910390fd5b60028081111561277e57fe5b60a2600086815260200190815260200160002060000160009054906101000a900460ff1660028111156127ad57fe5b14612820576040517f08c379a00000000000000000000000000000000000000000000000000000000081526004018080602001828103825260068152602001807f434c3a574332000000000000000000000000000000000000000000000000000081525060200191505060405180910390fd5b600061282b85615533565b9050808411156128a3576040517f08c379a00000000000000000000000000000000000000000000000000000000081526004018080602001828103825260068152602001807f434c3a574333000000000000000000000000000000000000000000000000000081525060200191505060405180910390fd5b60006128e88660a3600089815260200190815260200160002060070160009054906101000a900473ffffffffffffffffffffffffffffffffffffffff1633888861662b565b9050857f4a57ae76ed37bd40e42a6b2edec851a1faa115d5b81334275adb1eeddc199540826040518082815260200191505060405180910390a250505060018081905550505050565b600260015414156129aa576040517f08c379a000000000000000000000000000000000000000000000000000000000815260040180806020018281038252601f8152602001807f5265656e7472616e637947756172643a207265656e7472616e742063616c6c0081525060200191505060405180910390fd5b60026001819055506000806002808111156129c157fe5b60a2600086815260200190815260200160002060000160009054906101000a900460ff1660028111156129f057fe5b14612a63576040517f08c379a00000000000000000000000000000000000000000000000000000000081526004018080602001828103825260058152602001807f434c3a4c3100000000000000000000000000000000000000000000000000000081525060200191505060405180910390fd5b600060a26000868152602001908152602001600020600101541415612af0576040517f08c379a00000000000000000000000000000000000000000000000000000000081526004018080602001828103825260058152602001807f434c3a4c3200000000000000000000000000000000000000000000000000000081525060200191505060405180910390fd5b600060a3600086815260200190815260200160002060030160009054906101000a900473ffffffffffffffffffffffffffffffffffffffff169050600060a3600087815260200190815260200160002060020154141580612b7d57508073ffffffffffffffffffffffffffffffffffffffff163373ffffffffffffffffffffffffffffffffffffffff1614155b15612c1f57612b8b85610e3c565b809350819450505060a36000868152602001908152602001600020600201548310612c1e576040517f08c379a00000000000000000000000000000000000000000000000000000000081526004018080602001828103825260058152602001807f434c3a4c3300000000000000000000000000000000000000000000000000000081525060200191505060405180910390fd5b5b60a3600086815260200190815260200160002060000160009054906101000a900460ff1680612c7957508073ffffffffffffffffffffffffffffffffffffffff163373ffffffffffffffffffffffffffffffffffffffff16145b612ceb576040517f08c379a00000000000000000000000000000000000000000000000000000000081526004018080602001828103825260058152602001807f434c3a4c3400000000000000000000000000000000000000000000000000000081525060200191505060405180910390fd5b6000612cf686615bfb565b9050600060a3600088815260200190815260200160002060070160009054906101000a900473ffffffffffffffffffffffffffffffffffffffff169050600060a3600089815260200190815260200160002060050160009054906101000a900473ffffffffffffffffffffffffffffffffffffffff1690506000612d7b8383866169a0565b905085811115612d89578590505b60a360008a815260200190815260200160002060000160009054906101000a900460ff168015612de557503373ffffffffffffffffffffffffffffffffffffffff168573ffffffffffffffffffffffffffffffffffffffff1614155b15612e28576000612df7838584616acb565b9050612e263387838673ffffffffffffffffffffffffffffffffffffffff16616c3e909392919063ffffffff16565b505b612e35898433848c61662b565b5085811015612e9657612e94898460a360008d815260200190815260200160002060040160009054906101000a900473ffffffffffffffffffffffffffffffffffffffff16612e8d858b6163b790919063ffffffff16565b600061662b565b505b60a360008a8152602001908152602001600020600080820160006101000a81549060ff02191690556000820160016101000a81549060ff02191690556000820160026101000a8154906fffffffffffffffffffffffffffffffff02191690556001820160006101000a8154906fffffffffffffffffffffffffffffffff021916905560028201600090556003820160006101000a81549073ffffffffffffffffffffffffffffffffffffffff02191690556004820160006101000a81549073ffffffffffffffffffffffffffffffffffffffff02191690556005820160006101000a81549073ffffffffffffffffffffffffffffffffffffffff02191690556006820160006101000a81549073ffffffffffffffffffffffffffffffffffffffff02191690556007820160006101000a81549073ffffffffffffffffffffffffffffffffffffffff02191690556008820160006101000a81549073ffffffffffffffffffffffffffffffffffffffff0219169055505060a260008a8152602001908152602001600020600080820160006101000a81549060ff0219169055600182016000905560028201600090556003820160009055600482016000905550503373ffffffffffffffffffffffffffffffffffffffff16897f47a08f5d98b35b5698d3760894eb1e76d4dd06ff87588edf3acd1ef12c1d6c4360405160405180910390a350505050505050600180819055505050565b609c8060000154908060010154905082565b60975481565b600160028111156130d157fe5b60a2600083815260200190815260200160002060000160009054906101000a900460ff16600281111561310057fe5b14613173576040517f08c379a00000000000000000000000000000000000000000000000000000000081526004018080602001828103825260068152602001807f434c3a435031000000000000000000000000000000000000000000000000000081525060200191505060405180910390fd5b60a3600082815260200190815260200160002060040160009054906101000a900473ffffffffffffffffffffffffffffffffffffffff1673ffffffffffffffffffffffffffffffffffffffff163373ffffffffffffffffffffffffffffffffffffffff161480613244575060a3600082815260200190815260200160002060030160009054906101000a900473ffffffffffffffffffffffffffffffffffffffff1673ffffffffffffffffffffffffffffffffffffffff163373ffffffffffffffffffffffffffffffffffffffff16145b6132b6576040517f08c379a00000000000000000000000000000000000000000000000000000000081526004018080602001828103825260068152602001807f434c3a435032000000000000000000000000000000000000000000000000000081525060200191505060405180910390fd5b60a26000828152602001908152602001600020600080820160006101000a81549060ff02191690556001820160009055600282016000905560038201600090556004820160009055505060a36000828152602001908152602001600020600080820160006101000a81549060ff02191690556000820160016101000a81549060ff02191690556000820160026101000a8154906fffffffffffffffffffffffffffffffff02191690556001820160006101000a8154906fffffffffffffffffffffffffffffffff021916905560028201600090556003820160006101000a81549073ffffffffffffffffffffffffffffffffffffffff02191690556004820160006101000a81549073ffffffffffffffffffffffffffffffffffffffff02191690556005820160006101000a81549073ffffffffffffffffffffffffffffffffffffffff02191690556006820160006101000a81549073ffffffffffffffffffffffffffffffffffffffff02191690556007820160006101000a81549073ffffffffffffffffffffffffffffffffffffffff02191690556008820160006101000a81549073ffffffffffffffffffffffffffffffffffffffff02191690555050807f4d7181a1fccddb45ee3a38909274fd96207df9f238affe6bbc2a2cba043e861f60405160405180910390a250565b6002600154141561351f576040517f08c379a000000000000000000000000000000000000000000000000000000000815260040180806020018281038252601f8152602001807f5265656e7472616e637947756172643a207265656e7472616e742063616c6c0081525060200191505060405180910390fd5b6002600181905550600082141561359e576040517f08c379a00000000000000000000000000000000000000000000000000000000081526004018080602001828103825260068152602001807f434c3a444331000000000000000000000000000000000000000000000000000081525060200191505060405180910390fd5b6002808111156135aa57fe5b60a2600085815260200190815260200160002060000160009054906101000a900460ff1660028111156135d957fe5b1461364c576040517f08c379a00000000000000000000000000000000000000000000000000000000081526004018080602001828103825260068152602001807f434c3a444332000000000000000000000000000000000000000000000000000081525060200191505060405180910390fd5b3373ffffffffffffffffffffffffffffffffffffffff1660a3600085815260200190815260200160002060030160009054906101000a900473ffffffffffffffffffffffffffffffffffffffff1673ffffffffffffffffffffffffffffffffffffffff161415613724576040517f08c379a00000000000000000000000000000000000000000000000000000000081526004018080602001828103825260068152602001807f434c3a444333000000000000000000000000000000000000000000000000000081525060200191505060405180910390fd5b600060a3600085815260200190815260200160002060070160009054906101000a900473ffffffffffffffffffffffffffffffffffffffff169050600060a3600086815260200190815260200160002060080160009054906101000a900473ffffffffffffffffffffffffffffffffffffffff169050600083156138cf577f000000000000000000000000000000000000000000000000000000000000000073ffffffffffffffffffffffffffffffffffffffff16636e275bd2848433308a6040518663ffffffff1660e01b8152600401808673ffffffffffffffffffffffffffffffffffffffff1681526020018573ffffffffffffffffffffffffffffffffffffffff1681526020018473ffffffffffffffffffffffffffffffffffffffff1681526020018373ffffffffffffffffffffffffffffffffffffffff16815260200182815260200195505050505050602060405180830381600087803b15801561388d57600080fd5b505af11580156138a1573d6000803e3d6000fd5b505050506040513d60208110156138b757600080fd5b81019080805190602001909291905050509050613a32565b6138fc3330878673ffffffffffffffffffffffffffffffffffffffff16616c3e909392919063ffffffff16565b61392782868573ffffffffffffffffffffffffffffffffffffffff16616cff9092919063ffffffff16565b7f000000000000000000000000000000000000000000000000000000000000000073ffffffffffffffffffffffffffffffffffffffff16630284c3f5848430896040518563ffffffff1660e01b8152600401808573ffffffffffffffffffffffffffffffffffffffff1681526020018473ffffffffffffffffffffffffffffffffffffffff1681526020018373ffffffffffffffffffffffffffffffffffffffff168152602001828152602001945050505050602060405180830381600087803b1580156139f457600080fd5b505af1158015613a08573d6000803e3d6000fd5b505050506040513d6020811015613a1e57600080fd5b810190808051906020019092919050505090505b613a588160a160008981526020019081526020016000205461643a90919063ffffffff16565b60a1600088815260200190815260200160002081905550857f9e88cff32121d14264221ec0dea732d75f3be502f572ccb4a73781b323cc0b7b826040518082815260200191505060405180910390a250505060018081905550505050565b613abe616564565b73ffffffffffffffffffffffffffffffffffffffff16613adc6148ca565b73ffffffffffffffffffffffffffffffffffffffff1614613b65576040517f08c379a00000000000000000000000000000000000000000000000000000000081526004018080602001828103825260208152602001807f4f776e61626c653a2063616c6c6572206973206e6f7420746865206f776e657281525060200191505060405180910390fd5b80821115613bdb576040517f08c379a00000000000000000000000000000000000000000000000000000000081526004018080602001828103825260098152602001807f434c3a554943524c31000000000000000000000000000000000000000000000081525060200191505060405180910390fd5b81609c60000154148015613bf3575080609c60010154145b15613c66576040517f08c379a00000000000000000000000000000000000000000000000000000000081526004018080602001828103825260098152602001807f434c3a554943524c32000000000000000000000000000000000000000000000081525060200191505060405180910390fd5b604051806040016040528083815260200182815250609c600082015181600001556020820151816001015590505060405180807f696465616c436f6c6c61746572616c526174696f000000000000000000000000815250601401905060405180910390207fe9da20d631ef06f93c14c03acd9bc8f22141e6fce63b1066f76c903adb73ea408383604051808381526020018281526020019250505060405180910390a25050565b60008060a260008481526020019081526020016000206003015490506000811415613d3c576000915050613e02565b6000613d5182426163b790919063ffffffff16565b90506000613dba60a260008781526020019081526020016000206001015460a3600088815260200190815260200160002060010160009054906101000a90046fffffffffffffffffffffffffffffffff166fffffffffffffffffffffffffffffffff1684614797565b90506000613dd082670de0b6b3a7640000616ec4565b9050613dfb60a26000888152602001908152602001600020600401548261643a90919063ffffffff16565b9450505050505b919050565b613e0f616564565b73ffffffffffffffffffffffffffffffffffffffff16613e2d6148ca565b73ffffffffffffffffffffffffffffffffffffffff1614613eb6576040517f08c379a00000000000000000000000000000000000000000000000000000000081526004018080602001828103825260208152602001807f4f776e61626c653a2063616c6c6572206973206e6f7420746865206f776e657281525060200191505060405180910390fd5b8073ffffffffffffffffffffffffffffffffffffffff16609860009054906101000a900473ffffffffffffffffffffffffffffffffffffffff1673ffffffffffffffffffffffffffffffffffffffff161415613f7a576040517f08c379a00000000000000000000000000000000000000000000000000000000081526004018080602001828103825260088152602001807f434c3a555046433100000000000000000000000000000000000000000000000081525060200191505060405180910390fd5b613f8381616ef8565b50565b60026001541415613fff576040517f08c379a000000000000000000000000000000000000000000000000000000000815260040180806020018281038252601f8152602001807f5265656e7472616e637947756172643a207265656e7472616e742063616c6c0081525060200191505060405180910390fd5b6002600181905550813373ffffffffffffffffffffffffffffffffffffffff1660a3600083815260200190815260200160002060040160009054906101000a900473ffffffffffffffffffffffffffffffffffffffff1673ffffffffffffffffffffffffffffffffffffffff16146140df576040517f08c379a00000000000000000000000000000000000000000000000000000000081526004018080602001828103825260088152602001807f434c3a4f434c423100000000000000000000000000000000000000000000000081525060200191505060405180910390fd5b6002808111156140eb57fe5b60a2600085815260200190815260200160002060000160009054906101000a900460ff16600281111561411a57fe5b1461418d576040517f08c379a00000000000000000000000000000000000000000000000000000000081526004018080602001828103825260078152602001807f434c3a574143310000000000000000000000000000000000000000000000000081525060200191505060405180910390fd5b61419883338461631b565b50600180819055505050565b6000806141b083615bfb565b9050600060a3600085815260200190815260200160002060070160009054906101000a900473ffffffffffffffffffffffffffffffffffffffff169050600060a3600086815260200190815260200160002060050160009054906101000a900473ffffffffffffffffffffffffffffffffffffffff16905060006142358383866169a0565b9050600061424387856160fc565b905080821115614251578091505b61429260a3600089815260200190815260200160002060050160009054906101000a900473ffffffffffffffffffffffffffffffffffffffff168584616acb565b95505050505050919050565b60008060a2600084815260200190815260200160002060000160009054906101000a900460ff1690506002808111156142d357fe5b8160028111156142df57fe5b14614352576040517f08c379a00000000000000000000000000000000000000000000000000000000081526004018080602001828103825260078152602001807f434c3a434241310000000000000000000000000000000000000000000000000081525060200191505060405180910390fd5b600060a3600085815260200190815260200160002060020154905060007fffffffffffffffffffffffffffffffffffffffffffffffffffffffffffffffff90506000821461456457600060a3600087815260200190815260200160002060070160009054906101000a900473ffffffffffffffffffffffffffffffffffffffff1690506000807f000000000000000000000000000000000000000000000000000000000000000073ffffffffffffffffffffffffffffffffffffffff166310603c118460a360008c815260200190815260200160002060050160009054906101000a900473ffffffffffffffffffffffffffffffffffffffff166040518363ffffffff1660e01b8152600401808373ffffffffffffffffffffffffffffffffffffffff1681526020018273ffffffffffffffffffffffffffffffffffffffff16815260200192505050604080518083038186803b1580156144b257600080fd5b505afa1580156144c6573d6000803e3d6000fd5b505050506040513d60408110156144dc57600080fd5b81019080805190602001909291908051906020019092919050505091509150600061450789856160fc565b905061455d82600a0a61454f670de0b6b3a76400006145418a614533898861620c90919063ffffffff16565b61629290919063ffffffff16565b61620c90919063ffffffff16565b61629290919063ffffffff16565b9450505050505b600061456f86615bfb565b9050600060a3600088815260200190815260200160002060000160029054906101000a90046fffffffffffffffffffffffffffffffff166fffffffffffffffffffffffffffffffff169050600060a260008981526020019081526020016000206001015490508284116145eb5760009650505050505050614622565b61461961460182846163b790919063ffffffff16565b61461485876163b790919063ffffffff16565b617022565b96505050505050505b919050565b61462f616564565b73ffffffffffffffffffffffffffffffffffffffff1661464d6148ca565b73ffffffffffffffffffffffffffffffffffffffff16146146d6576040517f08c379a00000000000000000000000000000000000000000000000000000000081526004018080602001828103825260208152602001807f4f776e61626c653a2063616c6c6572206973206e6f7420746865206f776e657281525060200191505060405180910390fd5b600073ffffffffffffffffffffffffffffffffffffffff16606560009054906101000a900473ffffffffffffffffffffffffffffffffffffffff1673ffffffffffffffffffffffffffffffffffffffff167f8be0079c531659141344cd1fd0a4f28419497f9722a3daafe3b4186f6b6457e060405160405180910390a36000606560006101000a81548173ffffffffffffffffffffffffffffffffffffffff021916908373ffffffffffffffffffffffffffffffffffffffff160217905550565b60006147d46301e133806147c6846147b8878961620c90919063ffffffff16565b61620c90919063ffffffff16565b61629290919063ffffffff16565b90509392505050565b7f000000000000000000000000000000000000000000000000000000000000000081565b609860009054906101000a900473ffffffffffffffffffffffffffffffffffffffff1681565b60008060a3600084815260200190815260200160002060070160009054906101000a900473ffffffffffffffffffffffffffffffffffffffff16905061486d83826160fc565b915050919050565b609a8060000154908060010154905082565b60a26020528060005260406000206000915090508060000160009054906101000a900460ff16908060010154908060020154908060030154908060040154905085565b6000606560009054906101000a900473ffffffffffffffffffffffffffffffffffffffff16905090565b7f000000000000000000000000000000000000000000000000000000000000000081565b600060026001541415614993576040517f08c379a000000000000000000000000000000000000000000000000000000000815260040180806020018281038252601f8152602001807f5265656e7472616e637947756172643a207265656e7472616e742063616c6c0081525060200191505060405180910390fd5b60026001819055508373ffffffffffffffffffffffffffffffffffffffff168673ffffffffffffffffffffffffffffffffffffffff161415614a3d576040517f08c379a00000000000000000000000000000000000000000000000000000000081526004018080602001828103825260058152602001807f434c3a523100000000000000000000000000000000000000000000000000000081525060200191505060405180910390fd5b600073ffffffffffffffffffffffffffffffffffffffff168b73ffffffffffffffffffffffffffffffffffffffff161415614ae0576040517f08c379a00000000000000000000000000000000000000000000000000000000081526004018080602001828103825260058152602001807f434c3a523200000000000000000000000000000000000000000000000000000081525060200191505060405180910390fd5b7f000000000000000000000000000000000000000000000000000000000000000073ffffffffffffffffffffffffffffffffffffffff1663633defbd87866040518363ffffffff1660e01b8152600401808373ffffffffffffffffffffffffffffffffffffffff1681526020018273ffffffffffffffffffffffffffffffffffffffff1681526020019250505060206040518083038186803b158015614b8557600080fd5b505afa158015614b99573d6000803e3d6000fd5b505050506040513d6020811015614baf57600080fd5b8101908080519060200190929190505050614c32576040517f08c379a00000000000000000000000000000000000000000000000000000000081526004018080602001828103825260058152602001807f434c3a523300000000000000000000000000000000000000000000000000000081525060200191505060405180910390fd5b614c4e868b6fffffffffffffffffffffffffffffffff1661703b565b614c75896fffffffffffffffffffffffffffffffff16609e60000154609e60010154617205565b614ce7576040517f08c379a00000000000000000000000000000000000000000000000000000000081526004018080602001828103825260058152602001807f434c3a523400000000000000000000000000000000000000000000000000000081525060200191505060405180910390fd5b60008714614d7757614d0487609c60000154609c60010154617205565b614d76576040517f08c379a00000000000000000000000000000000000000000000000000000000081526004018080602001828103825260058152602001807f434c3a523500000000000000000000000000000000000000000000000000000081525060200191505060405180910390fd5b5b60007f000000000000000000000000000000000000000000000000000000000000000073ffffffffffffffffffffffffffffffffffffffff1663038defd7876040518263ffffffff1660e01b8152600401808273ffffffffffffffffffffffffffffffffffffffff16815260200191505060206040518083038186803b158015614e0057600080fd5b505afa158015614e14573d6000803e3d6000fd5b505050506040513d6020811015614e2a57600080fd5b81019080805190602001909291905050501415614eaf576040517f08c379a00000000000000000000000000000000000000000000000000000000081526004018080602001828103825260058152602001807f434c3a523600000000000000000000000000000000000000000000000000000081525060200191505060405180910390fd5b60007f000000000000000000000000000000000000000000000000000000000000000073ffffffffffffffffffffffffffffffffffffffff1663038defd7856040518263ffffffff1660e01b8152600401808273ffffffffffffffffffffffffffffffffffffffff16815260200191505060206040518083038186803b158015614f3857600080fd5b505afa158015614f4c573d6000803e3d6000fd5b505050506040513d6020811015614f6257600080fd5b81019080805190602001909291905050501415614fe7576040517f08c379a00000000000000000000000000000000000000000000000000000000081526004018080602001828103825260058152602001807f434c3a523700000000000000000000000000000000000000000000000000000081525060200191505060405180910390fd5b60008b905060003390508315614ffe573391508c90505b8073ffffffffffffffffffffffffffffffffffffffff168273ffffffffffffffffffffffffffffffffffffffff1614156150a0576040517f08c379a00000000000000000000000000000000000000000000000000000000081526004018080602001828103825260058152602001807f434c3a523800000000000000000000000000000000000000000000000000000081525060200191505060405180910390fd5b60006150b583838f8f8f8f8f8f8f8f8f617220565b90508173ffffffffffffffffffffffffffffffffffffffff168373ffffffffffffffffffffffffffffffffffffffff16827fbb865e9c50807fcad4ba5b6f9d2a0d98a7563f2b7eaf68f1fd3b9482120932518860405180821515815260200191505060405180910390a4809350505050600180819055509a9950505050505050505050565b600260015414156151b3576040517f08c379a000000000000000000000000000000000000000000000000000000000815260040180806020018281038252601f8152602001807f5265656e7472616e637947756172643a207265656e7472616e742063616c6c0081525060200191505060405180910390fd5b6002600181905550813373ffffffffffffffffffffffffffffffffffffffff1660a3600083815260200190815260200160002060030160009054906101000a900473ffffffffffffffffffffffffffffffffffffffff1673ffffffffffffffffffffffffffffffffffffffff1614615293576040517f08c379a00000000000000000000000000000000000000000000000000000000081526004018080602001828103825260088152602001807f434c3a4f434c4c3100000000000000000000000000000000000000000000000081525060200191505060405180910390fd5b600060a3600085815260200190815260200160002060050160009054906101000a900473ffffffffffffffffffffffffffffffffffffffff1690506152ea81846fffffffffffffffffffffffffffffffff1661703b565b8260a3600086815260200190815260200160002060000160026101000a8154816fffffffffffffffffffffffffffffffff02191690836fffffffffffffffffffffffffffffffff160217905550837f6cd3c05bb51dcdd7a44bcbbb68c82be95bd37475a0b495dcbb331de5acd3f61e8460405180826fffffffffffffffffffffffffffffffff16815260200191505060405180910390a25050600180819055505050565b60995481565b60a05481565b600060a2600083815260200190815260200160002060000160009054906101000a900460ff169050919050565b60a36020528060005260406000206000915090508060000160009054906101000a900460ff16908060000160019054906101000a900460ff16908060000160029054906101000a90046fffffffffffffffffffffffffffffffff16908060010160009054906101000a90046fffffffffffffffffffffffffffffffff16908060020154908060030160009054906101000a900473ffffffffffffffffffffffffffffffffffffffff16908060040160009054906101000a900473ffffffffffffffffffffffffffffffffffffffff16908060050160009054906101000a900473ffffffffffffffffffffffffffffffffffffffff16908060060160009054906101000a900473ffffffffffffffffffffffffffffffffffffffff16908060070160009054906101000a900473ffffffffffffffffffffffffffffffffffffffff16908060080160009054906101000a900473ffffffffffffffffffffffffffffffffffffffff1690508b565b600080600080600060a3600087815260200190815260200160002060070160009054906101000a900473ffffffffffffffffffffffffffffffffffffffff16905061557e86826160fc565b91507f000000000000000000000000000000000000000000000000000000000000000073ffffffffffffffffffffffffffffffffffffffff166310603c118260a360008a815260200190815260200160002060050160009054906101000a900473ffffffffffffffffffffffffffffffffffffffff166040518363ffffffff1660e01b8152600401808373ffffffffffffffffffffffffffffffffffffffff1681526020018273ffffffffffffffffffffffffffffffffffffffff16815260200192505050604080518083038186803b15801561565a57600080fd5b505afa15801561566e573d6000803e3d6000fd5b505050506040513d604081101561568457600080fd5b81019080805190602001909291908051906020019092919050505080945081955050505060006156b386615bfb565b90506000615721670de0b6b3a76400006157138761570588600a0a6156f760a360008f8152602001908152602001600020600201548961620c90919063ffffffff16565b61620c90919063ffffffff16565b61629290919063ffffffff16565b61629290919063ffffffff16565b905082811061573857600095505050505050615753565b61574b81846163b790919063ffffffff16565b955050505050505b919050565b600260015414156157d1576040517f08c379a000000000000000000000000000000000000000000000000000000000815260040180806020018281038252601f8152602001807f5265656e7472616e637947756172643a207265656e7472616e742063616c6c0081525060200191505060405180910390fd5b60026001819055506000811415615850576040517f08c379a00000000000000000000000000000000000000000000000000000000081526004018080602001828103825260078152602001807f434c3a524550310000000000000000000000000000000000000000000000000081525060200191505060405180910390fd5b60028081111561585c57fe5b60a2600084815260200190815260200160002060000160009054906101000a900460ff16600281111561588b57fe5b146158fe576040517f08c379a00000000000000000000000000000000000000000000000000000000081526004018080602001828103825260078152602001807f434c3a524550320000000000000000000000000000000000000000000000000081525060200191505060405180910390fd5b3373ffffffffffffffffffffffffffffffffffffffff1660a3600084815260200190815260200160002060030160009054906101000a900473ffffffffffffffffffffffffffffffffffffffff1673ffffffffffffffffffffffffffffffffffffffff1614156159d6576040517f08c379a00000000000000000000000000000000000000000000000000000000081526004018080602001828103825260078152602001807f434c3a524550330000000000000000000000000000000000000000000000000081525060200191505060405180910390fd5b60006159e183613d0d565b90506000615a0e60a2600086815260200190815260200160002060020154836163b790919063ffffffff16565b90506000615a3b60a26000878152602001908152602001600020600101548361643a90919063ffffffff16565b9050808410615a9b578093503373ffffffffffffffffffffffffffffffffffffffff16857f4ae84ccd67abae4116bcf0fc893cb83a177b8e780a83e49133e6782005bb491c866040518082815260200191505060405180910390a3615aeb565b3373ffffffffffffffffffffffffffffffffffffffff16857f63f5b7fac194774998abe356ac81bc43e704df0709488418140d9951ecd76ab5866040518082815260200191505060405180910390a35b81841115615b7657615b0684826163b790919063ffffffff16565b60a26000878152602001908152602001600020600101819055508260a26000878152602001908152602001600020600401819055504260a26000878152602001908152602001600020600301819055508260a2600087815260200190815260200160002060020181905550615bba565b615b9f8460a260008881526020019081526020016000206002015461643a90919063ffffffff16565b60a26000878152602001908152602001600020600201819055505b615bc4858561758e565b600060a26000878152602001908152602001600020600101541415615bed57615bec856177a7565b5b505050600180819055505050565b600080615c0783613d0d565b90506000615c5c60a2600086815260200190815260200160002060020154615c4e8460a260008981526020019081526020016000206001015461643a90919063ffffffff16565b6163b790919063ffffffff16565b90508092505050919050565b615c70616564565b73ffffffffffffffffffffffffffffffffffffffff16615c8e6148ca565b73ffffffffffffffffffffffffffffffffffffffff1614615d17576040517f08c379a00000000000000000000000000000000000000000000000000000000081526004018080602001828103825260208152602001807f4f776e61626c653a2063616c6c6572206973206e6f7420746865206f776e657281525060200191505060405180910390fd5b806097541415615d8f576040517f08c379a00000000000000000000000000000000000000000000000000000000081526004018080602001828103825260088152602001807f434c3a555046463100000000000000000000000000000000000000000000000081525060200191505060405180910390fd5b615d988161782b565b50565b609e8060000154908060010154905082565b600060019054906101000a900460ff1680615dcc5750615dcb6178ea565b5b80615de2575060008054906101000a900460ff16155b615e37576040517f08c379a000000000000000000000000000000000000000000000000000000000815260040180806020018281038252602e8152602001806182a7602e913960400191505060405180910390fd5b60008060019054906101000a900460ff161590508015615e87576001600060016101000a81548160ff02191690831515021790555060016000806101000a81548160ff0219169083151502179055505b615e8f6178fb565b615e9885615eef565b615ea0617a09565b615ea98461782b565b615eb283616ef8565b615ebb8261656c565b8015615edc5760008060016101000a81548160ff0219169083151502179055505b5050505050565b670de0b6b3a764000081565b615ef7616564565b73ffffffffffffffffffffffffffffffffffffffff16615f156148ca565b73ffffffffffffffffffffffffffffffffffffffff1614615f9e576040517f08c379a00000000000000000000000000000000000000000000000000000000081526004018080602001828103825260208152602001807f4f776e61626c653a2063616c6c6572206973206e6f7420746865206f776e657281525060200191505060405180910390fd5b600073ffffffffffffffffffffffffffffffffffffffff168173ffffffffffffffffffffffffffffffffffffffff161415616024576040517f08c379a000000000000000000000000000000000000000000000000000000000815260040180806020018281038252602681526020018061825b6026913960400191505060405180910390fd5b8073ffffffffffffffffffffffffffffffffffffffff16606560009054906101000a900473ffffffffffffffffffffffffffffffffffffffff1673ffffffffffffffffffffffffffffffffffffffff167f8be0079c531659141344cd1fd0a4f28419497f9722a3daafe3b4186f6b6457e060405160405180910390a380606560006101000a81548173ffffffffffffffffffffffffffffffffffffffff021916908373ffffffffffffffffffffffffffffffffffffffff16021790555050565b60a16020528060005260406000206000915090505481565b60008060a3600085815260200190815260200160002060080160009054906101000a900473ffffffffffffffffffffffffffffffffffffffff169050600060a1600086815260200190815260200160002054905060008273ffffffffffffffffffffffffffffffffffffffff166359846d2983876040518363ffffffff1660e01b8152600401808381526020018273ffffffffffffffffffffffffffffffffffffffff16815260200192505050602060405180830381600087803b1580156161c357600080fd5b505af11580156161d7573d6000803e3d6000fd5b505050506040513d60208110156161ed57600080fd5b8101908080519060200190929190505050905080935050505092915050565b60008083141561621f576000905061628c565b600082840290508284828161623057fe5b0414616287576040517f08c379a00000000000000000000000000000000000000000000000000000000081526004018080602001828103825260218152602001806182d56021913960400191505060405180910390fd5b809150505b92915050565b6000808211616309576040517f08c379a000000000000000000000000000000000000000000000000000000000815260040180806020018281038252601a8152602001807f536166654d6174683a206469766973696f6e206279207a65726f00000000000081525060200191505060405180910390fd5b81838161631257fe5b04905092915050565b600061632684615533565b9050600081146163b15760006163758560a3600088815260200190815260200160002060070160009054906101000a900473ffffffffffffffffffffffffffffffffffffffff1686858761662b565b9050847f4a57ae76ed37bd40e42a6b2edec851a1faa115d5b81334275adb1eeddc199540826040518082815260200191505060405180910390a2505b50505050565b60008282111561642f576040517f08c379a000000000000000000000000000000000000000000000000000000000815260040180806020018281038252601e8152602001807f536166654d6174683a207375627472616374696f6e206f766572666c6f77000081525060200191505060405180910390fd5b818303905092915050565b6000808284019050838110156164b8576040517f08c379a000000000000000000000000000000000000000000000000000000000815260040180806020018281038252601b8152602001807f536166654d6174683a206164646974696f6e206f766572666c6f77000000000081525060200191505060405180910390fd5b8091505092915050565b61655f8363a9059cbb60e01b8484604051602401808373ffffffffffffffffffffffffffffffffffffffff16815260200182815260200192505050604051602081830303815290604052907bffffffffffffffffffffffffffffffffffffffffffffffffffffffff19166020820180517bffffffffffffffffffffffffffffffffffffffffffffffffffffffff8381831617835250505050617b0f565b505050565b600033905090565b670de0b6b3a76400008111156165ea576040517f08c379a00000000000000000000000000000000000000000000000000000000081526004018080602001828103825260098152602001807f434c3a49554c524631000000000000000000000000000000000000000000000081525060200191505060405180910390fd5b806099819055507fea1b763f8b930a47cdffda0b219884435d9345a320fd536922997cde6625f88d816040518082815260200191505060405180910390a150565b60008060a3600088815260200190815260200160002060080160009054906101000a900473ffffffffffffffffffffffffffffffffffffffff16905060008173ffffffffffffffffffffffffffffffffffffffff1663934a525286896040518363ffffffff1660e01b8152600401808381526020018273ffffffffffffffffffffffffffffffffffffffff16815260200192505050602060405180830381600087803b1580156166da57600080fd5b505af11580156166ee573d6000803e3d6000fd5b505050506040513d602081101561670457600080fd5b81019080805190602001909291905050509050600081141561672b57600092505050616997565b6167518160a160008b8152602001908152602001600020546163b790919063ffffffff16565b60a160008a815260200190815260200160002081905550831561687c577f000000000000000000000000000000000000000000000000000000000000000073ffffffffffffffffffffffffffffffffffffffff16637c96f053888489856040518563ffffffff1660e01b8152600401808573ffffffffffffffffffffffffffffffffffffffff1681526020018473ffffffffffffffffffffffffffffffffffffffff1681526020018373ffffffffffffffffffffffffffffffffffffffff168152602001828152602001945050505050602060405180830381600087803b15801561683b57600080fd5b505af115801561684f573d6000803e3d6000fd5b505050506040513d602081101561686557600080fd5b810190808051906020019092919050505050616991565b7f000000000000000000000000000000000000000000000000000000000000000073ffffffffffffffffffffffffffffffffffffffff16635da8bf5a8884898560006040518663ffffffff1660e01b8152600401808673ffffffffffffffffffffffffffffffffffffffff1681526020018573ffffffffffffffffffffffffffffffffffffffff1681526020018473ffffffffffffffffffffffffffffffffffffffff168152602001838152602001821515815260200195505050505050602060405180830381600087803b15801561695457600080fd5b505af1158015616968573d6000803e3d6000fd5b505050506040513d602081101561697e57600080fd5b8101908080519060200190929190505050505b80925050505b95945050505050565b60008060007f000000000000000000000000000000000000000000000000000000000000000073ffffffffffffffffffffffffffffffffffffffff166310603c1187876040518363ffffffff1660e01b8152600401808373ffffffffffffffffffffffffffffffffffffffff1681526020018273ffffffffffffffffffffffffffffffffffffffff16815260200192505050604080518083038186803b158015616a4957600080fd5b505afa158015616a5d573d6000803e3d6000fd5b505050506040513d6040811015616a7357600080fd5b810190808051906020019092919080519060200190929190505050915091506000616abc83616aae84600a0a8861620c90919063ffffffff16565b61629290919063ffffffff16565b90508093505050509392505050565b60008060007f000000000000000000000000000000000000000000000000000000000000000073ffffffffffffffffffffffffffffffffffffffff166310603c1186886040518363ffffffff1660e01b8152600401808373ffffffffffffffffffffffffffffffffffffffff1681526020018273ffffffffffffffffffffffffffffffffffffffff16815260200192505050604080518083038186803b158015616b7457600080fd5b505afa158015616b88573d6000803e3d6000fd5b505050506040513d6040811015616b9e57600080fd5b810190808051906020019092919080519060200190929190505050915091506000616c2f82600a0a616c2185616c13670de0b6b3a7640000616c05616bf6609954670de0b6b3a76400006163b790919063ffffffff16565b8c61620c90919063ffffffff16565b61629290919063ffffffff16565b61620c90919063ffffffff16565b61629290919063ffffffff16565b90508093505050509392505050565b616cf9846323b872dd60e01b858585604051602401808473ffffffffffffffffffffffffffffffffffffffff1681526020018373ffffffffffffffffffffffffffffffffffffffff1681526020018281526020019350505050604051602081830303815290604052907bffffffffffffffffffffffffffffffffffffffffffffffffffffffff19166020820180517bffffffffffffffffffffffffffffffffffffffffffffffffffffffff8381831617835250505050617b0f565b50505050565b6000811480616dcd575060008373ffffffffffffffffffffffffffffffffffffffff1663dd62ed3e30856040518363ffffffff1660e01b8152600401808373ffffffffffffffffffffffffffffffffffffffff1681526020018273ffffffffffffffffffffffffffffffffffffffff1681526020019250505060206040518083038186803b158015616d9057600080fd5b505afa158015616da4573d6000803e3d6000fd5b505050506040513d6020811015616dba57600080fd5b8101908080519060200190929190505050145b616e22576040517f08c379a00000000000000000000000000000000000000000000000000000000081526004018080602001828103825260368152602001806183206036913960400191505060405180910390fd5b616ebf8363095ea7b360e01b8484604051602401808373ffffffffffffffffffffffffffffffffffffffff16815260200182815260200192505050604051602081830303815290604052907bffffffffffffffffffffffffffffffffffffffffffffffffffffffff19166020820180517bffffffffffffffffffffffffffffffffffffffffffffffffffffffff8381831617835250505050617b0f565b505050565b600080616eda838561629290919063ffffffff16565b90508383820214616eee5780806001019150505b8091505092915050565b600073ffffffffffffffffffffffffffffffffffffffff168173ffffffffffffffffffffffffffffffffffffffff161415616f9b576040517f08c379a00000000000000000000000000000000000000000000000000000000081526004018080602001828103825260098152602001807f434c3a495550464331000000000000000000000000000000000000000000000081525060200191505060405180910390fd5b80609860006101000a81548173ffffffffffffffffffffffffffffffffffffffff021916908373ffffffffffffffffffffffffffffffffffffffff1602179055508073ffffffffffffffffffffffffffffffffffffffff167f33837f672315b6cffcf11894714abfdec631a913c18d7738fcaf40c444376fb660405160405180910390a250565b60008183106170315781617033565b825b905092915050565b6000807f000000000000000000000000000000000000000000000000000000000000000073ffffffffffffffffffffffffffffffffffffffff166310603c11857f00000000000000000000000000000000000000000000000000000000000000006040518363ffffffff1660e01b8152600401808373ffffffffffffffffffffffffffffffffffffffff1681526020018273ffffffffffffffffffffffffffffffffffffffff16815260200192505050604080518083038186803b15801561710257600080fd5b505afa158015617116573d6000803e3d6000fd5b505050506040513d604081101561712c57600080fd5b81019080805190602001909291908051906020019092919050505091509150600061717582600a0a617167858761620c90919063ffffffff16565b61629290919063ffffffff16565b905061718c81609a60000154609a60010154617205565b6171fe576040517f08c379a00000000000000000000000000000000000000000000000000000000081526004018080602001828103825260078152602001807f434c3a494c42310000000000000000000000000000000000000000000000000081525060200191505060405180910390fd5b5050505050565b60008284101580156172175750818411155b90509392505050565b60008060a0600081546001019190508190559050600160a2600083815260200190815260200160002060000160006101000a81548160ff0219169083600281111561726757fe5b02179055508b60a3600083815260200190815260200160002060040160006101000a81548173ffffffffffffffffffffffffffffffffffffffff021916908373ffffffffffffffffffffffffffffffffffffffff1602179055508c60a3600083815260200190815260200160002060030160006101000a81548173ffffffffffffffffffffffffffffffffffffffff021916908373ffffffffffffffffffffffffffffffffffffffff1602179055508a60a3600083815260200190815260200160002060000160026101000a8154816fffffffffffffffffffffffffffffffff02191690836fffffffffffffffffffffffffffffffff1602179055508860a3600083815260200190815260200160002060000160006101000a81548160ff0219169083151502179055508760a36000838152602001908152602001600020600201819055508960a3600083815260200190815260200160002060010160006101000a8154816fffffffffffffffffffffffffffffffff02191690836fffffffffffffffffffffffffffffffff1602179055508660a3600083815260200190815260200160002060050160006101000a81548173ffffffffffffffffffffffffffffffffffffffff021916908373ffffffffffffffffffffffffffffffffffffffff1602179055508560a3600083815260200190815260200160002060060160006101000a81548173ffffffffffffffffffffffffffffffffffffffff021916908373ffffffffffffffffffffffffffffffffffffffff1602179055508460a3600083815260200190815260200160002060070160006101000a81548173ffffffffffffffffffffffffffffffffffffffff021916908373ffffffffffffffffffffffffffffffffffffffff1602179055508360a3600083815260200190815260200160002060080160006101000a81548173ffffffffffffffffffffffffffffffffffffffff021916908373ffffffffffffffffffffffffffffffffffffffff1602179055508260a3600083815260200190815260200160002060000160016101000a81548160ff021916908315150217905550809150509b9a5050505050505050505050565b600060a3600084815260200190815260200160002060060160009054906101000a900473ffffffffffffffffffffffffffffffffffffffff169050600060a3600085815260200190815260200160002060050160009054906101000a900473ffffffffffffffffffffffffffffffffffffffff169050600060a3600086815260200190815260200160002060030160009054906101000a900473ffffffffffffffffffffffffffffffffffffffff16905061766c3330868573ffffffffffffffffffffffffffffffffffffffff16616c3e909392919063ffffffff16565b61769783858473ffffffffffffffffffffffffffffffffffffffff16616cff9092919063ffffffff16565b7f000000000000000000000000000000000000000000000000000000000000000073ffffffffffffffffffffffffffffffffffffffff16630284c3f5838584886040518563ffffffff1660e01b8152600401808573ffffffffffffffffffffffffffffffffffffffff1681526020018473ffffffffffffffffffffffffffffffffffffffff1681526020018373ffffffffffffffffffffffffffffffffffffffff168152602001828152602001945050505050602060405180830381600087803b15801561776457600080fd5b505af1158015617778573d6000803e3d6000fd5b505050506040513d602081101561778e57600080fd5b8101908080519060200190929190505050505050505050565b600060a2600083815260200190815260200160002060030181905550600060a2600083815260200190815260200160002060020181905550600060a2600083815260200190815260200160002060040181905550807f211080e361802ea6f2dba3da9dadb9bb9fa360ecb2fdddc1cb8c336b47084e7f60405160405180910390a250565b670de0b6b3a76400008111156178a9576040517f08c379a00000000000000000000000000000000000000000000000000000000081526004018080602001828103825260098152602001807f434c3a495550464631000000000000000000000000000000000000000000000081525060200191505060405180910390fd5b806097819055507fcfd641dab5b2592643d4b878bf2b771142aff4595263753dc7611f947749999d816040518082815260200191505060405180910390a150565b60006178f530617bfe565b15905090565b600060019054906101000a900460ff168061791a57506179196178ea565b5b80617930575060008054906101000a900460ff16155b617985576040517f08c379a000000000000000000000000000000000000000000000000000000000815260040180806020018281038252602e8152602001806182a7602e913960400191505060405180910390fd5b60008060019054906101000a900460ff1615905080156179d5576001600060016101000a81548160ff02191690831515021790555060016000806101000a81548160ff0219169083151502179055505b6179dd617c11565b6179e5617d0f565b8015617a065760008060016101000a81548160ff0219169083151502179055505b50565b600060019054906101000a900460ff1680617a285750617a276178ea565b5b80617a3e575060008054906101000a900460ff16155b617a93576040517f08c379a000000000000000000000000000000000000000000000000000000000815260040180806020018281038252602e8152602001806182a7602e913960400191505060405180910390fd5b60008060019054906101000a900460ff161590508015617ae3576001600060016101000a81548160ff02191690831515021790555060016000806101000a81548160ff0219169083151502179055505b617aeb617eb6565b8015617b0c5760008060016101000a81548160ff0219169083151502179055505b50565b6000617b71826040518060400160405280602081526020017f5361666545524332303a206c6f772d6c6576656c2063616c6c206661696c65648152508573ffffffffffffffffffffffffffffffffffffffff16617fbb9092919063ffffffff16565b9050600081511115617bf957808060200190516020811015617b9257600080fd5b8101908080519060200190929190505050617bf8576040517f08c379a000000000000000000000000000000000000000000000000000000000815260040180806020018281038252602a8152602001806182f6602a913960400191505060405180910390fd5b5b505050565b600080823b905060008111915050919050565b600060019054906101000a900460ff1680617c305750617c2f6178ea565b5b80617c46575060008054906101000a900460ff16155b617c9b576040517f08c379a000000000000000000000000000000000000000000000000000000000815260040180806020018281038252602e8152602001806182a7602e913960400191505060405180910390fd5b60008060019054906101000a900460ff161590508015617ceb576001600060016101000a81548160ff02191690831515021790555060016000806101000a81548160ff0219169083151502179055505b8015617d0c5760008060016101000a81548160ff0219169083151502179055505b50565b600060019054906101000a900460ff1680617d2e5750617d2d6178ea565b5b80617d44575060008054906101000a900460ff16155b617d99576040517f08c379a000000000000000000000000000000000000000000000000000000000815260040180806020018281038252602e8152602001806182a7602e913960400191505060405180910390fd5b60008060019054906101000a900460ff161590508015617de9576001600060016101000a81548160ff02191690831515021790555060016000806101000a81548160ff0219169083151502179055505b6000617df3616564565b905080606560006101000a81548173ffffffffffffffffffffffffffffffffffffffff021916908373ffffffffffffffffffffffffffffffffffffffff1602179055508073ffffffffffffffffffffffffffffffffffffffff16600073ffffffffffffffffffffffffffffffffffffffff167f8be0079c531659141344cd1fd0a4f28419497f9722a3daafe3b4186f6b6457e060405160405180910390a3508015617eb35760008060016101000a81548160ff0219169083151502179055505b50565b600060019054906101000a900460ff1680617ed55750617ed46178ea565b5b80617eeb575060008054906101000a900460ff16155b617f40576040517f08c379a000000000000000000000000000000000000000000000000000000000815260040180806020018281038252602e8152602001806182a7602e913960400191505060405180910390fd5b60008060019054906101000a900460ff161590508015617f90576001600060016101000a81548160ff02191690831515021790555060016000806101000a81548160ff0219169083151502179055505b600180819055508015617fb85760008060016101000a81548160ff0219169083151502179055505b50565b6060617fca8484600085617fd3565b90509392505050565b60608247101561802e576040517f08c379a00000000000000000000000000000000000000000000000000000000081526004018080602001828103825260268152602001806182816026913960400191505060405180910390fd5b6180378561817b565b6180a9576040517f08c379a000000000000000000000000000000000000000000000000000000000815260040180806020018281038252601d8152602001807f416464726573733a2063616c6c20746f206e6f6e2d636f6e747261637400000081525060200191505060405180910390fd5b6000808673ffffffffffffffffffffffffffffffffffffffff1685876040518082805190602001908083835b602083106180f857805182526020820191506020810190506020830392506180d5565b6001836020036101000a03801982511681845116808217855250505050505090500191505060006040518083038185875af1925050503d806000811461815a576040519150601f19603f3d011682016040523d82523d6000602084013e61815f565b606091505b509150915061816f82828661818e565b92505050949350505050565b600080823b905060008111915050919050565b6060831561819e57829050618253565b6000835111156181b15782518084602001fd5b816040517f08c379a00000000000000000000000000000000000000000000000000000000081526004018080602001828103825283818151815260200191508051906020019080838360005b838110156182185780820151818401526020810190506181fd565b50505050905090810190601f1680156182455780820380516001836020036101000a031916815260200191505b509250505060405180910390fd5b939250505056fe4f776e61626c653a206e6577206f776e657220697320746865207a65726f2061646472657373416464726573733a20696e73756666696369656e742062616c616e636520666f722063616c6c496e697469616c697a61626c653a20636f6e747261637420697320616c726561647920696e697469616c697a6564536166654d6174683a206d756c7469706c69636174696f6e206f766572666c6f775361666545524332303a204552433230206f7065726174696f6e20646964206e6f7420737563636565645361666545524332303a20617070726f76652066726f6d206e6f6e2d7a65726f20746f206e6f6e2d7a65726f20616c6c6f77616e6365a26469706673582212209114b2d63c31972a1aee808d89fcb0ef0b32e8ce6e835a012b4956139a9ff69464736f6c63430007060033","linkReferences":{}},"methodIdentifiers":{"PRICE_ORACLE()":"0a19399a","SAVINGS_ACCOUNT()":"7b2a2d1f","SCALING_FACTOR()":"ef4cadc5","STRATEGY_REGISTRY()":"8f75315b","accept(uint256)":"19b05f49","borrow(uint256,uint256)":"0ecbcdab","borrowLimitLimits()":"8ad6e3e8","borrowRateLimits()":"e1e1e5c9","borrowTokensToLiquidate(uint256)":"65b59b5d","calculateBorrowableAmount(uint256)":"6a46c1e1","calculateCurrentCollateralRatio(uint256)":"06c6a002","calculateCurrentDebt(uint256)":"de056bc9","calculateInterestAccrued(uint256)":"54a26830","calculateInterestScaled(uint256,uint256,uint256)":"77fe0aac","calculateTotalCollateralTokens(uint256)":"8878e26c","cancel(uint256)":"40e58ee5","close(uint256)":"0aebeb4e","collateralShareInStrategy(uint256)":"fc9f6991","creditLineConstants(uint256)":"d5faf0e5","creditLineCounter()":"bcda383f","creditLineVariables(uint256)":"8b639474","depositCollateral(uint256,uint256,bool)":"451226d1","getCreditLineStatus(uint256)":"cfc0d64d","idealCollateralRatioLimits()":"292477ec","initialize(address,uint256,address,uint256)":"e24df754","liquidate(uint256,bool)":"2758db0c","liquidatorRewardFraction()":"acca944f","owner()":"8da5cb5b","protocolFeeCollector()":"850a1501","protocolFeeFraction()":"3a0298eb","renounceOwnership()":"715018a6","repay(uint256,uint256)":"d8aed145","request(address,uint128,uint128,bool,uint256,address,address,address,address,bool)":"96d74f93","transferOwnership(address)":"f2fde38b","updateBorrowLimit(uint256,uint128)":"9e8aab50","updateBorrowLimitLimits(uint256,uint256)":"1af3cf19","updateBorrowRateLimits(uint256,uint256)":"1b6fff13","updateIdealCollateralRatioLimits(uint256,uint256)":"50264fcf","updateLiquidatorRewardFraction(uint256)":"112dc9dc","updateProtocolFeeCollector(address)":"565b54ea","updateProtocolFeeFraction(uint256)":"de9de06e","withdrawAllCollateral(uint256,bool)":"5c8edac4","withdrawCollateral(uint256,uint256,bool)":"22adad3e","withdrawableCollateral(uint256)":"d68f2170"},"id":0}