{"contracts/Utils/BoringOwnable.sol":{"BoringOwnableData":{"abi":[{"inputs":[],"name":"owner","outputs":[{"internalType":"address","name":"","type":"address"}],"stateMutability":"view","type":"function"},{"inputs":[],"name":"pendingOwner","outputs":[{"internalType":"address","name":"","type":"address"}],"stateMutability":"view","type":"function"}],"devdoc":{"kind":"dev","methods":{},"version":1},"evm":{"bytecode":{"linkReferences":{},"object":"6080604052348015600f57600080fd5b5060b38061001e6000396000f3fe6080604052348015600f57600080fd5b506004361060325760003560e01c80638da5cb5b146037578063e30c3978146059575b600080fd5b603d605f565b604080516001600160a01b039092168252519081900360200190f35b603d606e565b6000546001600160a01b031681565b6001546001600160a01b03168156fea2646970667358221220311dbf14b773d037a44caa69b389f0b15408549dfd6b3df02b72eb5ff65516b164736f6c634300060c0033","opcodes":"PUSH1 0x80 PUSH1 0x40 MSTORE CALLVALUE DUP1 ISZERO PUSH1 0xF JUMPI PUSH1 0x0 DUP1 REVERT JUMPDEST POP PUSH1 0xB3 DUP1 PUSH2 0x1E PUSH1 0x0 CODECOPY PUSH1 0x0 RETURN INVALID PUSH1 0x80 PUSH1 0x40 MSTORE CALLVALUE DUP1 ISZERO PUSH1 0xF JUMPI PUSH1 0x0 DUP1 REVERT JUMPDEST POP PUSH1 0x4 CALLDATASIZE LT PUSH1 0x32 JUMPI PUSH1 0x0 CALLDATALOAD PUSH1 0xE0 SHR DUP1 PUSH4 0x8DA5CB5B EQ PUSH1 0x37 JUMPI DUP1 PUSH4 0xE30C3978 EQ PUSH1 0x59 JUMPI JUMPDEST PUSH1 0x0 DUP1 REVERT JUMPDEST PUSH1 0x3D PUSH1 0x5F JUMP JUMPDEST PUSH1 0x40 DUP1 MLOAD PUSH1 0x1 PUSH1 0x1 PUSH1 0xA0 SHL SUB SWAP1 SWAP3 AND DUP3 MSTORE MLOAD SWAP1 DUP2 SWAP1 SUB PUSH1 0x20 ADD SWAP1 RETURN JUMPDEST PUSH1 0x3D PUSH1 0x6E JUMP JUMPDEST PUSH1 0x0 SLOAD PUSH1 0x1 PUSH1 0x1 PUSH1 0xA0 SHL SUB AND DUP2 JUMP JUMPDEST PUSH1 0x1 SLOAD PUSH1 0x1 PUSH1 0x1 PUSH1 0xA0 SHL SUB AND DUP2 JUMP INVALID LOG2 PUSH5 0x6970667358 0x22 SLT KECCAK256 BALANCE SAR 0xBF EQ 0xB7 PUSH20 0xD037A44CAA69B389F0B15408549DFD6B3DF02B72 0xEB 0x5F 0xF6 SSTORE AND 0xB1 PUSH5 0x736F6C6343 STOP MOD 0xC STOP CALLER "},"gasEstimates":{"creation":{"codeDepositCost":"35800","executionCost":"87","totalCost":"35887"},"external":{"owner()":"1015","pendingOwner()":"1037"}},"methodIdentifiers":{"owner()":"8da5cb5b","pendingOwner()":"e30c3978"}},"storageLayout":{"storage":[{"astId":3,"contract":"contracts/Utils/BoringOwnable.sol:BoringOwnableData","label":"owner","offset":0,"slot":"0","type":"t_address"},{"astId":5,"contract":"contracts/Utils/BoringOwnable.sol:BoringOwnableData","label":"pendingOwner","offset":0,"slot":"1","type":"t_address"}],"types":{"t_address":{"encoding":"inplace","label":"address","numberOfBytes":"20"}}},"userdoc":{"kind":"user","methods":{},"version":1}}}}