{
  "_format": "hh-sol-artifact-1",
  "contractName": "MixinRefunds",
  "sourceName": "contracts/mixins/MixinRefunds.sol",
  "abi": [
    {
      "anonymous": false,
      "inputs": [
        {
          "indexed": true,
          "internalType": "address",
          "name": "owner",
          "type": "address"
        },
        {
          "indexed": true,
          "internalType": "address",
          "name": "approved",
          "type": "address"
        },
        {
          "indexed": true,
          "internalType": "uint256",
          "name": "tokenId",
          "type": "uint256"
        }
      ],
      "name": "Approval",
      "type": "event"
    },
    {
      "anonymous": false,
      "inputs": [
        {
          "indexed": true,
          "internalType": "address",
          "name": "owner",
          "type": "address"
        },
        {
          "indexed": true,
          "internalType": "address",
          "name": "operator",
          "type": "address"
        },
        {
          "indexed": false,
          "internalType": "bool",
          "name": "approved",
          "type": "bool"
        }
      ],
      "name": "ApprovalForAll",
      "type": "event"
    },
    {
      "anonymous": false,
      "inputs": [
        {
          "indexed": true,
          "internalType": "uint256",
          "name": "tokenId",
          "type": "uint256"
        },
        {
          "indexed": true,
          "internalType": "address",
          "name": "owner",
          "type": "address"
        },
        {
          "indexed": true,
          "internalType": "address",
          "name": "sendTo",
          "type": "address"
        },
        {
          "indexed": false,
          "internalType": "uint256",
          "name": "refund",
          "type": "uint256"
        }
      ],
      "name": "CancelKey",
      "type": "event"
    },
    {
      "anonymous": false,
      "inputs": [],
      "name": "Disable",
      "type": "event"
    },
    {
      "anonymous": false,
      "inputs": [
        {
          "indexed": true,
          "internalType": "uint256",
          "name": "_tokenId",
          "type": "uint256"
        },
        {
          "indexed": false,
          "internalType": "uint256",
          "name": "_amount",
          "type": "uint256"
        },
        {
          "indexed": false,
          "internalType": "bool",
          "name": "_timeAdded",
          "type": "bool"
        }
      ],
      "name": "ExpirationChanged",
      "type": "event"
    },
    {
      "anonymous": false,
      "inputs": [
        {
          "indexed": true,
          "internalType": "uint256",
          "name": "tokenId",
          "type": "uint256"
        }
      ],
      "name": "ExpireKey",
      "type": "event"
    },
    {
      "anonymous": false,
      "inputs": [
        {
          "indexed": true,
          "internalType": "address",
          "name": "account",
          "type": "address"
        }
      ],
      "name": "KeyGranterAdded",
      "type": "event"
    },
    {
      "anonymous": false,
      "inputs": [
        {
          "indexed": true,
          "internalType": "address",
          "name": "account",
          "type": "address"
        }
      ],
      "name": "KeyGranterRemoved",
      "type": "event"
    },
    {
      "anonymous": false,
      "inputs": [
        {
          "indexed": true,
          "internalType": "uint256",
          "name": "_tokenId",
          "type": "uint256"
        },
        {
          "indexed": true,
          "internalType": "address",
          "name": "_newManager",
          "type": "address"
        }
      ],
      "name": "KeyManagerChanged",
      "type": "event"
    },
    {
      "anonymous": false,
      "inputs": [
        {
          "indexed": true,
          "internalType": "address",
          "name": "account",
          "type": "address"
        }
      ],
      "name": "LockManagerAdded",
      "type": "event"
    },
    {
      "anonymous": false,
      "inputs": [
        {
          "indexed": true,
          "internalType": "address",
          "name": "account",
          "type": "address"
        }
      ],
      "name": "LockManagerRemoved",
      "type": "event"
    },
    {
      "anonymous": false,
      "inputs": [
        {
          "indexed": false,
          "internalType": "uint256",
          "name": "oldKeyPrice",
          "type": "uint256"
        },
        {
          "indexed": false,
          "internalType": "uint256",
          "name": "keyPrice",
          "type": "uint256"
        },
        {
          "indexed": false,
          "internalType": "address",
          "name": "oldTokenAddress",
          "type": "address"
        },
        {
          "indexed": false,
          "internalType": "address",
          "name": "tokenAddress",
          "type": "address"
        }
      ],
      "name": "PricingChanged",
      "type": "event"
    },
    {
      "anonymous": false,
      "inputs": [
        {
          "indexed": false,
          "internalType": "uint256",
          "name": "freeTrialLength",
          "type": "uint256"
        },
        {
          "indexed": false,
          "internalType": "uint256",
          "name": "refundPenaltyBasisPoints",
          "type": "uint256"
        }
      ],
      "name": "RefundPenaltyChanged",
      "type": "event"
    },
    {
      "anonymous": false,
      "inputs": [
        {
          "indexed": true,
          "internalType": "bytes32",
          "name": "role",
          "type": "bytes32"
        },
        {
          "indexed": true,
          "internalType": "bytes32",
          "name": "previousAdminRole",
          "type": "bytes32"
        },
        {
          "indexed": true,
          "internalType": "bytes32",
          "name": "newAdminRole",
          "type": "bytes32"
        }
      ],
      "name": "RoleAdminChanged",
      "type": "event"
    },
    {
      "anonymous": false,
      "inputs": [
        {
          "indexed": true,
          "internalType": "bytes32",
          "name": "role",
          "type": "bytes32"
        },
        {
          "indexed": true,
          "internalType": "address",
          "name": "account",
          "type": "address"
        },
        {
          "indexed": true,
          "internalType": "address",
          "name": "sender",
          "type": "address"
        }
      ],
      "name": "RoleGranted",
      "type": "event"
    },
    {
      "anonymous": false,
      "inputs": [
        {
          "indexed": true,
          "internalType": "bytes32",
          "name": "role",
          "type": "bytes32"
        },
        {
          "indexed": true,
          "internalType": "address",
          "name": "account",
          "type": "address"
        },
        {
          "indexed": true,
          "internalType": "address",
          "name": "sender",
          "type": "address"
        }
      ],
      "name": "RoleRevoked",
      "type": "event"
    },
    {
      "anonymous": false,
      "inputs": [
        {
          "indexed": true,
          "internalType": "address",
          "name": "from",
          "type": "address"
        },
        {
          "indexed": true,
          "internalType": "address",
          "name": "to",
          "type": "address"
        },
        {
          "indexed": true,
          "internalType": "uint256",
          "name": "tokenId",
          "type": "uint256"
        }
      ],
      "name": "Transfer",
      "type": "event"
    },
    {
      "anonymous": false,
      "inputs": [
        {
          "indexed": true,
          "internalType": "address",
          "name": "sender",
          "type": "address"
        },
        {
          "indexed": true,
          "internalType": "address",
          "name": "tokenAddress",
          "type": "address"
        },
        {
          "indexed": true,
          "internalType": "address",
          "name": "beneficiary",
          "type": "address"
        },
        {
          "indexed": false,
          "internalType": "uint256",
          "name": "amount",
          "type": "uint256"
        }
      ],
      "name": "Withdrawal",
      "type": "event"
    },
    {
      "inputs": [],
      "name": "DEFAULT_ADMIN_ROLE",
      "outputs": [
        {
          "internalType": "bytes32",
          "name": "",
          "type": "bytes32"
        }
      ],
      "stateMutability": "view",
      "type": "function"
    },
    {
      "inputs": [],
      "name": "KEY_GRANTER_ROLE",
      "outputs": [
        {
          "internalType": "bytes32",
          "name": "",
          "type": "bytes32"
        }
      ],
      "stateMutability": "view",
      "type": "function"
    },
    {
      "inputs": [],
      "name": "LOCK_MANAGER_ROLE",
      "outputs": [
        {
          "internalType": "bytes32",
          "name": "",
          "type": "bytes32"
        }
      ],
      "stateMutability": "view",
      "type": "function"
    },
    {
      "inputs": [
        {
          "internalType": "address",
          "name": "account",
          "type": "address"
        }
      ],
      "name": "addKeyGranter",
      "outputs": [],
      "stateMutability": "nonpayable",
      "type": "function"
    },
    {
      "inputs": [
        {
          "internalType": "address",
          "name": "account",
          "type": "address"
        }
      ],
      "name": "addLockManager",
      "outputs": [],
      "stateMutability": "nonpayable",
      "type": "function"
    },
    {
      "inputs": [
        {
          "internalType": "address",
          "name": "_approved",
          "type": "address"
        },
        {
          "internalType": "uint256",
          "name": "_tokenId",
          "type": "uint256"
        }
      ],
      "name": "approve",
      "outputs": [],
      "stateMutability": "nonpayable",
      "type": "function"
    },
    {
      "inputs": [
        {
          "internalType": "address",
          "name": "_spender",
          "type": "address"
        },
        {
          "internalType": "uint256",
          "name": "_amount",
          "type": "uint256"
        }
      ],
      "name": "approveBeneficiary",
      "outputs": [
        {
          "internalType": "bool",
          "name": "",
          "type": "bool"
        }
      ],
      "stateMutability": "nonpayable",
      "type": "function"
    },
    {
      "inputs": [
        {
          "internalType": "address",
          "name": "_keyOwner",
          "type": "address"
        }
      ],
      "name": "balanceOf",
      "outputs": [
        {
          "internalType": "uint256",
          "name": "",
          "type": "uint256"
        }
      ],
      "stateMutability": "view",
      "type": "function"
    },
    {
      "inputs": [],
      "name": "beneficiary",
      "outputs": [
        {
          "internalType": "address payable",
          "name": "",
          "type": "address"
        }
      ],
      "stateMutability": "view",
      "type": "function"
    },
    {
      "inputs": [
        {
          "internalType": "uint256",
          "name": "_tokenId",
          "type": "uint256"
        }
      ],
      "name": "cancelAndRefund",
      "outputs": [],
      "stateMutability": "nonpayable",
      "type": "function"
    },
    {
      "inputs": [],
      "name": "disableLock",
      "outputs": [],
      "stateMutability": "nonpayable",
      "type": "function"
    },
    {
      "inputs": [],
      "name": "expirationDuration",
      "outputs": [
        {
          "internalType": "uint256",
          "name": "",
          "type": "uint256"
        }
      ],
      "stateMutability": "view",
      "type": "function"
    },
    {
      "inputs": [
        {
          "internalType": "address payable",
          "name": "_keyOwner",
          "type": "address"
        },
        {
          "internalType": "uint256",
          "name": "amount",
          "type": "uint256"
        }
      ],
      "name": "expireAndRefundFor",
      "outputs": [],
      "stateMutability": "nonpayable",
      "type": "function"
    },
    {
      "inputs": [],
      "name": "freeTrialLength",
      "outputs": [
        {
          "internalType": "uint256",
          "name": "",
          "type": "uint256"
        }
      ],
      "stateMutability": "view",
      "type": "function"
    },
    {
      "inputs": [
        {
          "internalType": "uint256",
          "name": "_tokenId",
          "type": "uint256"
        }
      ],
      "name": "getApproved",
      "outputs": [
        {
          "internalType": "address",
          "name": "",
          "type": "address"
        }
      ],
      "stateMutability": "view",
      "type": "function"
    },
    {
      "inputs": [
        {
          "internalType": "address",
          "name": "_keyOwner",
          "type": "address"
        }
      ],
      "name": "getCancelAndRefundValueFor",
      "outputs": [
        {
          "internalType": "uint256",
          "name": "refund",
          "type": "uint256"
        }
      ],
      "stateMutability": "view",
      "type": "function"
    },
    {
      "inputs": [
        {
          "internalType": "address",
          "name": "_keyOwner",
          "type": "address"
        }
      ],
      "name": "getHasValidKey",
      "outputs": [
        {
          "internalType": "bool",
          "name": "",
          "type": "bool"
        }
      ],
      "stateMutability": "view",
      "type": "function"
    },
    {
      "inputs": [
        {
          "internalType": "bytes32",
          "name": "role",
          "type": "bytes32"
        }
      ],
      "name": "getRoleAdmin",
      "outputs": [
        {
          "internalType": "bytes32",
          "name": "",
          "type": "bytes32"
        }
      ],
      "stateMutability": "view",
      "type": "function"
    },
    {
      "inputs": [
        {
          "internalType": "address",
          "name": "_account",
          "type": "address"
        }
      ],
      "name": "getTokenIdFor",
      "outputs": [
        {
          "internalType": "uint256",
          "name": "",
          "type": "uint256"
        }
      ],
      "stateMutability": "view",
      "type": "function"
    },
    {
      "inputs": [
        {
          "internalType": "bytes32",
          "name": "role",
          "type": "bytes32"
        },
        {
          "internalType": "address",
          "name": "account",
          "type": "address"
        }
      ],
      "name": "grantRole",
      "outputs": [],
      "stateMutability": "nonpayable",
      "type": "function"
    },
    {
      "inputs": [
        {
          "internalType": "bytes32",
          "name": "role",
          "type": "bytes32"
        },
        {
          "internalType": "address",
          "name": "account",
          "type": "address"
        }
      ],
      "name": "hasRole",
      "outputs": [
        {
          "internalType": "bool",
          "name": "",
          "type": "bool"
        }
      ],
      "stateMutability": "view",
      "type": "function"
    },
    {
      "inputs": [],
      "name": "isAlive",
      "outputs": [
        {
          "internalType": "bool",
          "name": "",
          "type": "bool"
        }
      ],
      "stateMutability": "view",
      "type": "function"
    },
    {
      "inputs": [
        {
          "internalType": "address",
          "name": "_owner",
          "type": "address"
        },
        {
          "internalType": "address",
          "name": "_operator",
          "type": "address"
        }
      ],
      "name": "isApprovedForAll",
      "outputs": [
        {
          "internalType": "bool",
          "name": "",
          "type": "bool"
        }
      ],
      "stateMutability": "view",
      "type": "function"
    },
    {
      "inputs": [
        {
          "internalType": "address",
          "name": "account",
          "type": "address"
        }
      ],
      "name": "isKeyGranter",
      "outputs": [
        {
          "internalType": "bool",
          "name": "",
          "type": "bool"
        }
      ],
      "stateMutability": "view",
      "type": "function"
    },
    {
      "inputs": [
        {
          "internalType": "address",
          "name": "account",
          "type": "address"
        }
      ],
      "name": "isLockManager",
      "outputs": [
        {
          "internalType": "bool",
          "name": "",
          "type": "bool"
        }
      ],
      "stateMutability": "view",
      "type": "function"
    },
    {
      "inputs": [
        {
          "internalType": "address",
          "name": "_keyOwner",
          "type": "address"
        }
      ],
      "name": "keyExpirationTimestampFor",
      "outputs": [
        {
          "internalType": "uint256",
          "name": "",
          "type": "uint256"
        }
      ],
      "stateMutability": "view",
      "type": "function"
    },
    {
      "inputs": [
        {
          "internalType": "uint256",
          "name": "",
          "type": "uint256"
        }
      ],
      "name": "keyManagerOf",
      "outputs": [
        {
          "internalType": "address",
          "name": "",
          "type": "address"
        }
      ],
      "stateMutability": "view",
      "type": "function"
    },
    {
      "inputs": [],
      "name": "keyPrice",
      "outputs": [
        {
          "internalType": "uint256",
          "name": "",
          "type": "uint256"
        }
      ],
      "stateMutability": "view",
      "type": "function"
    },
    {
      "inputs": [],
      "name": "maxNumberOfKeys",
      "outputs": [
        {
          "internalType": "uint256",
          "name": "",
          "type": "uint256"
        }
      ],
      "stateMutability": "view",
      "type": "function"
    },
    {
      "inputs": [],
      "name": "numberOfOwners",
      "outputs": [
        {
          "internalType": "uint256",
          "name": "",
          "type": "uint256"
        }
      ],
      "stateMutability": "view",
      "type": "function"
    },
    {
      "inputs": [],
      "name": "onKeyCancelHook",
      "outputs": [
        {
          "internalType": "contract ILockKeyCancelHook",
          "name": "",
          "type": "address"
        }
      ],
      "stateMutability": "view",
      "type": "function"
    },
    {
      "inputs": [],
      "name": "onKeyPurchaseHook",
      "outputs": [
        {
          "internalType": "contract ILockKeyPurchaseHook",
          "name": "",
          "type": "address"
        }
      ],
      "stateMutability": "view",
      "type": "function"
    },
    {
      "inputs": [
        {
          "internalType": "uint256",
          "name": "_tokenId",
          "type": "uint256"
        }
      ],
      "name": "ownerOf",
      "outputs": [
        {
          "internalType": "address",
          "name": "",
          "type": "address"
        }
      ],
      "stateMutability": "view",
      "type": "function"
    },
    {
      "inputs": [
        {
          "internalType": "uint256",
          "name": "",
          "type": "uint256"
        }
      ],
      "name": "owners",
      "outputs": [
        {
          "internalType": "address",
          "name": "",
          "type": "address"
        }
      ],
      "stateMutability": "view",
      "type": "function"
    },
    {
      "inputs": [],
      "name": "publicLockVersion",
      "outputs": [
        {
          "internalType": "uint16",
          "name": "",
          "type": "uint16"
        }
      ],
      "stateMutability": "pure",
      "type": "function"
    },
    {
      "inputs": [],
      "name": "refundPenaltyBasisPoints",
      "outputs": [
        {
          "internalType": "uint256",
          "name": "",
          "type": "uint256"
        }
      ],
      "stateMutability": "view",
      "type": "function"
    },
    {
      "inputs": [],
      "name": "renounceLockManager",
      "outputs": [],
      "stateMutability": "nonpayable",
      "type": "function"
    },
    {
      "inputs": [
        {
          "internalType": "bytes32",
          "name": "role",
          "type": "bytes32"
        },
        {
          "internalType": "address",
          "name": "account",
          "type": "address"
        }
      ],
      "name": "renounceRole",
      "outputs": [],
      "stateMutability": "nonpayable",
      "type": "function"
    },
    {
      "inputs": [
        {
          "internalType": "address",
          "name": "_granter",
          "type": "address"
        }
      ],
      "name": "revokeKeyGranter",
      "outputs": [],
      "stateMutability": "nonpayable",
      "type": "function"
    },
    {
      "inputs": [
        {
          "internalType": "bytes32",
          "name": "role",
          "type": "bytes32"
        },
        {
          "internalType": "address",
          "name": "account",
          "type": "address"
        }
      ],
      "name": "revokeRole",
      "outputs": [],
      "stateMutability": "nonpayable",
      "type": "function"
    },
    {
      "inputs": [
        {
          "internalType": "address",
          "name": "_to",
          "type": "address"
        },
        {
          "internalType": "bool",
          "name": "_approved",
          "type": "bool"
        }
      ],
      "name": "setApprovalForAll",
      "outputs": [],
      "stateMutability": "nonpayable",
      "type": "function"
    },
    {
      "inputs": [
        {
          "internalType": "address",
          "name": "_onKeyPurchaseHook",
          "type": "address"
        },
        {
          "internalType": "address",
          "name": "_onKeyCancelHook",
          "type": "address"
        }
      ],
      "name": "setEventHooks",
      "outputs": [],
      "stateMutability": "nonpayable",
      "type": "function"
    },
    {
      "inputs": [
        {
          "internalType": "uint256",
          "name": "_tokenId",
          "type": "uint256"
        },
        {
          "internalType": "address",
          "name": "_keyManager",
          "type": "address"
        }
      ],
      "name": "setKeyManagerOf",
      "outputs": [],
      "stateMutability": "nonpayable",
      "type": "function"
    },
    {
      "inputs": [
        {
          "internalType": "bytes4",
          "name": "interfaceId",
          "type": "bytes4"
        }
      ],
      "name": "supportsInterface",
      "outputs": [
        {
          "internalType": "bool",
          "name": "",
          "type": "bool"
        }
      ],
      "stateMutability": "view",
      "type": "function"
    },
    {
      "inputs": [],
      "name": "tokenAddress",
      "outputs": [
        {
          "internalType": "address",
          "name": "",
          "type": "address"
        }
      ],
      "stateMutability": "view",
      "type": "function"
    },
    {
      "inputs": [],
      "name": "totalSupply",
      "outputs": [
        {
          "internalType": "uint256",
          "name": "",
          "type": "uint256"
        }
      ],
      "stateMutability": "view",
      "type": "function"
    },
    {
      "inputs": [],
      "name": "unlockProtocol",
      "outputs": [
        {
          "internalType": "contract IUnlock",
          "name": "",
          "type": "address"
        }
      ],
      "stateMutability": "view",
      "type": "function"
    },
    {
      "inputs": [
        {
          "internalType": "address payable",
          "name": "_beneficiary",
          "type": "address"
        }
      ],
      "name": "updateBeneficiary",
      "outputs": [],
      "stateMutability": "nonpayable",
      "type": "function"
    },
    {
      "inputs": [
        {
          "internalType": "uint256",
          "name": "_keyPrice",
          "type": "uint256"
        },
        {
          "internalType": "address",
          "name": "_tokenAddress",
          "type": "address"
        }
      ],
      "name": "updateKeyPricing",
      "outputs": [],
      "stateMutability": "nonpayable",
      "type": "function"
    },
    {
      "inputs": [
        {
          "internalType": "uint256",
          "name": "_freeTrialLength",
          "type": "uint256"
        },
        {
          "internalType": "uint256",
          "name": "_refundPenaltyBasisPoints",
          "type": "uint256"
        }
      ],
      "name": "updateRefundPenalty",
      "outputs": [],
      "stateMutability": "nonpayable",
      "type": "function"
    },
    {
      "inputs": [
        {
          "internalType": "address",
          "name": "_tokenAddress",
          "type": "address"
        },
        {
          "internalType": "uint256",
          "name": "_amount",
          "type": "uint256"
        }
      ],
      "name": "withdraw",
      "outputs": [],
      "stateMutability": "nonpayable",
      "type": "function"
    }
  ],
  "bytecode": "0x608060405234801561001057600080fd5b50612689806100206000396000f3fe608060405234801561001057600080fd5b50600436106102f15760003560e01c80636d8ea5b41161019d578063aae4b8f7116100e9578063d1bbd49c116100a2578063d547741f1161007c578063d547741f146106d9578063e985e9c5146106ec578063f0ba6040146106ff578063f3fef3a31461070757600080fd5b8063d1bbd49c146106a4578063d2503485146106b3578063d32bfb6c146106c657600080fd5b8063aae4b8f714610624578063abdf82ce14610637578063ad0e0a4d14610663578063b11d7ec114610676578063b585a6d514610689578063c1c98d031461069c57600080fd5b8063970aaeb711610156578063a217fddf11610130578063a217fddf146105ed578063a22cb465146105f5578063a2e4cd2e14610608578063a375cb051461061b57600080fd5b8063970aaeb71461059e57806397aa390a146105c75780639d76ea58146105da57600080fd5b80636d8ea5b41461052457806370a082311461055257806374b6c106146105655780638ca2fbad1461056e57806391d148541461058357806393fd18441461059657600080fd5b80632af9162a1161025c5780634136aa351161021557806352d6a8e4116101ef57806352d6a8e4146104cc578063564aa99d146104df57806356e0d51f146104f25780636352211e146104fb57600080fd5b80634136aa351461047c5780634d025fed1461049057806352b0f638146104b957600080fd5b80632af9162a1461040a5780632d33dd5b1461041d5780632f2ff15d1461043057806336568abe1461044357806338af3eed1461045657806339f469861461046957600080fd5b806310e56973116102ae57806310e569731461039757806311a4c03a146103ae57806318160ddd146103b7578063217751bc146103bf57806323100509146103d2578063248a9ca3146103e757600080fd5b806301ffc9a7146102f6578063025e7c271461031e578063081812fc14610349578063095ea7b31461035c5780630aaffd2a146103715780630f15023b14610384575b600080fd5b610309610304366004612386565b61071a565b60405190151581526020015b60405180910390f35b61033161032c36600461234a565b610751565b6040516001600160a01b039091168152602001610315565b61033161035736600461234a565b61077b565b61036f61036a36600461231c565b6107f1565b005b61036f61037f366004612270565b61096a565b609854610331906001600160a01b031681565b6103a0609a5481565b604051908152602001610315565b6103a060995481565b609c546103a0565b609f54610331906001600160a01b031681565b6103a060008051602061261483398151915281565b6103a06103f536600461234a565b60009081526065602052604090206001015490565b61036f610418366004612270565b610a3d565b609e54610331906001600160a01b031681565b61036f61043e366004612362565b610ac0565b61036f610451366004612362565b610aeb565b609d54610331906001600160a01b031681565b61036f6104773660046123c6565b610b69565b60975461030990600160a01b900460ff1681565b61033161049e36600461234a565b60a3602052600090815260409020546001600160a01b031681565b6103096104c7366004612270565b610be1565b6103a06104da366004612270565b610bfb565b61036f6104ed366004612270565b610c06565b6103a060a65481565b61033161050936600461234a565b600090815260a160205260409020546001600160a01b031690565b610309610532366004612270565b6001600160a01b0316600090815260a06020526040902060010154421090565b6103a0610560366004612270565b610c89565b6103a0609b5481565b6103a060008051602061263483398151915281565b610309610591366004612362565b610d08565b60a2546103a0565b6103a06105ac366004612270565b6001600160a01b0316600090815260a0602052604090205490565b61036f6105d536600461228c565b610d33565b609754610331906001600160a01b031681565b6103a0600081565b61036f6106033660046122ef565b610dd2565b61036f610616366004612362565b610eaf565b6103a060a75481565b610309610632366004612270565b611049565b6103a0610645366004612270565b6001600160a01b0316600090815260a0602052604090206001015490565b61036f6106713660046122b7565b611063565b61036f610684366004612362565b61119b565b61030961069736600461231c565b61125e565b61036f611357565b60405160098152602001610315565b61036f6106c1366004612270565b6113ec565b61036f6106d436600461234a565b61146f565b61036f6106e7366004612362565b611543565b6103096106fa3660046122b7565b611569565b61036f6115fe565b61036f61071536600461231c565b611643565b60006001600160e01b03198216637965db0b60e01b148061074b57506301ffc9a760e01b6001600160e01b03198316145b92915050565b60a2818154811061076157600080fd5b6000918252602090912001546001600160a01b0316905081565b600081815260a1602052604081205482906001600160a01b03166107d45760405162461bcd60e51b815260206004820152600b60248201526a4e4f5f535543485f4b455960a81b60448201526064015b60405180910390fd5b5050600090815260a460205260409020546001600160a01b031690565b609754600160a01b900460ff1661081a5760405162461bcd60e51b81526004016107cb90612500565b8061082581336117fd565b806108465750600081815260a460205260409020546001600160a01b031633145b8061086e5750600081815260a1602052604090205461086e906001600160a01b031633611569565b6108ba5760405162461bcd60e51b815260206004820152601c60248201527f4f4e4c595f4b45595f4d414e414745525f4f525f415050524f5645440000000060448201526064016107cb565b336001600160a01b03841614156109025760405162461bcd60e51b815260206004820152600c60248201526b20a8282927ab22afa9a2a62360a11b60448201526064016107cb565b600082815260a46020908152604080832080546001600160a01b0319166001600160a01b0388811691821790925560a1909352818420549151869492909116917f8c5be1e5ebec7d5bd14f71427d1e84f3dd0314c0f7b2291e5b200ac8c7c3b92591a4505050565b609d546001600160a01b0316331480610987575061098733611049565b6109d35760405162461bcd60e51b815260206004820152601f60248201527f4f4e4c595f42454e45464943494152595f4f525f4c4f434b4d414e414745520060448201526064016107cb565b6001600160a01b038116610a1b5760405162461bcd60e51b815260206004820152600f60248201526e494e56414c49445f4144445245535360881b60448201526064016107cb565b609d80546001600160a01b0319166001600160a01b0392909216919091179055565b610a5560008051602061263483398151915233610d08565b610a715760405162461bcd60e51b81526004016107cb906124ab565b610a8960008051602061261483398151915282611543565b6040516001600160a01b038216907f766f6199fea59554b9ff688e413302b9200f85d74811c053c12d945ac6d8dd7a90600090a250565b600082815260656020526040902060010154610adc8133611873565b610ae683836118d7565b505050565b6001600160a01b0381163314610b5b5760405162461bcd60e51b815260206004820152602f60248201527f416363657373436f6e74726f6c3a2063616e206f6e6c792072656e6f756e636560448201526e103937b632b9903337b91039b2b63360891b60648201526084016107cb565b610b65828261195d565b5050565b610b8160008051602061263483398151915233610d08565b610b9d5760405162461bcd60e51b81526004016107cb906124ab565b60408051838152602081018390527fd6867bc538320e67d7bdc35860c27c08486eb490b4fd9b820fff18fb28381d3c910160405180910390a160a79190915560a655565b600061074b60008051602061261483398151915283610d08565b600061074b826119c4565b610c1e60008051602061263483398151915233610d08565b610c3a5760405162461bcd60e51b81526004016107cb906124ab565b610c5260008051602061261483398151915282610ac0565b6040516001600160a01b038216907f684f8a71407db0c334454ebe9c9b288549317893a20b10dc779ec5c118dcd12190600090a250565b60006001600160a01b038216610cd35760405162461bcd60e51b815260206004820152600f60248201526e494e56414c49445f4144445245535360881b60448201526064016107cb565b6001600160a01b038216600090815260a060205260409020600101544210610cfc576000610cff565b60015b60ff1692915050565b60009182526065602090815260408084206001600160a01b0393909316845291905290205460ff1690565b610d4b60008051602061263483398151915233610d08565b610d675760405162461bcd60e51b81526004016107cb906124ab565b81610d8c816001600160a01b0316600090815260a06020526040902060010154421090565b610dc85760405162461bcd60e51b815260206004820152600d60248201526c12d15657d393d517d590531251609a1b60448201526064016107cb565b610ae68383611af5565b609754600160a01b900460ff16610dfb5760405162461bcd60e51b81526004016107cb90612500565b6001600160a01b038216331415610e435760405162461bcd60e51b815260206004820152600c60248201526b20a8282927ab22afa9a2a62360a11b60448201526064016107cb565b33600081815260a5602090815260408083206001600160a01b03871680855290835292819020805460ff191686151590811790915590519081529192917f17307eab39ab6107e8899845ad3d59bd9653f200f220920489ca2b5937696c31910160405180910390a35050565b610ec760008051602061263483398151915233610d08565b610ee35760405162461bcd60e51b81526004016107cb906124ab565b609754600160a01b900460ff16610f0c5760405162461bcd60e51b81526004016107cb90612500565b609a546097546001600160a01b039081169083161580610f9c57506000836001600160a01b03166318160ddd6040518163ffffffff1660e01b815260040160206040518083038186803b158015610f6257600080fd5b505afa158015610f76573d6000803e3d6000fd5b505050506040513d601f19601f82011682018060405250810190610f9a91906123ae565b115b610fd85760405162461bcd60e51b815260206004820152600d60248201526c24a72b20a624a22faa27a5a2a760991b60448201526064016107cb565b609a849055609780546001600160a01b0319166001600160a01b0385811691821790925560408051858152602081018890529284169083015260608201527f3615065ccf48367ac483ac86701248e2e5ff55bdd9be845007d34a3b68d719d49060800160405180910390a150505050565b600061074b60008051602061263483398151915283610d08565b61107b60008051602061263483398151915233610d08565b6110975760405162461bcd60e51b81526004016107cb906124ab565b6001600160a01b03821615806110b657506001600160a01b0382163b15155b6111025760405162461bcd60e51b815260206004820152601860248201527f494e56414c49445f4f4e5f4b45595f534f4c445f484f4f4b000000000000000060448201526064016107cb565b6001600160a01b038116158061112157506001600160a01b0381163b15155b61116d5760405162461bcd60e51b815260206004820152601a60248201527f494e56414c49445f4f4e5f4b45595f43414e43454c5f484f4f4b00000000000060448201526064016107cb565b609e80546001600160a01b039384166001600160a01b031991821617909155609f8054929093169116179055565b600082815260a1602052604090205482906001600160a01b03166111ef5760405162461bcd60e51b815260206004820152600b60248201526a4e4f5f535543485f4b455960a81b60448201526064016107cb565b6111f983336117fd565b80611208575061120833611049565b6112545760405162461bcd60e51b815260206004820152601f60248201527f554e415554484f52495a45445f4b45595f4d414e414745525f5550444154450060448201526064016107cb565b610ae68383611bf5565b600061126933611049565b8061127e5750609d546001600160a01b031633145b6112ca5760405162461bcd60e51b815260206004820181905260248201527f4f4e4c595f4c4f434b5f4d414e414745525f4f525f42454e454649434941525960448201526064016107cb565b60975460405163095ea7b360e01b81526001600160a01b038581166004830152602482018590529091169063095ea7b390604401602060405180830381600087803b15801561131857600080fd5b505af115801561132c573d6000803e3d6000fd5b505050506040513d601f19601f82011682018060405250810190611350919061232e565b9392505050565b61136f60008051602061263483398151915233610d08565b61138b5760405162461bcd60e51b81526004016107cb906124ab565b609754600160a01b900460ff166113b45760405162461bcd60e51b81526004016107cb90612500565b6040517f25a311358326fb18c62efc24bc28d3126acee8d2a67fd8b2145b757dc8bd1bc190600090a16097805460ff60a01b19169055565b61140460008051602061263483398151915233610d08565b6114205760405162461bcd60e51b81526004016107cb906124ab565b61143860008051602061263483398151915282610ac0565b6040516001600160a01b038216907f91d5c045d5bd98bf59a379b259ebca05b93bf79af1845fdf87e3172385d4c7f790600090a250565b8061147a81336117fd565b8061149b5750600081815260a460205260409020546001600160a01b031633145b806114c35750600081815260a160205260409020546114c3906001600160a01b031633611569565b61150f5760405162461bcd60e51b815260206004820152601c60248201527f4f4e4c595f4b45595f4d414e414745525f4f525f415050524f5645440000000060448201526064016107cb565b600082815260a160205260408120546001600160a01b031690611531826119c4565b905061153d8282611af5565b50505050565b60008281526065602052604090206001015461155f8133611873565b610ae6838361195d565b6001600160a01b03808316600090815260a0602090815260408083205480845260a39092528220549192909116806115cc575050506001600160a01b03808316600090815260a5602090815260408083209385168352929052205460ff1661074b565b6001600160a01b03908116600090815260a5602090815260408083209387168352929052205460ff16915061074b9050565b61161660008051602061263483398151915233610aeb565b60405133907f42885193b8178d25fca25a38e6fcc93918501e91be06d85e0c8afb3bad95238090600090a2565b61164c33611049565b806116615750609d546001600160a01b031633145b6116ad5760405162461bcd60e51b815260206004820181905260248201527f4f4e4c595f4c4f434b5f4d414e414745525f4f525f42454e454649434941525960448201526064016107cb565b60006001600160a01b0383166116c457504761173e565b6040516370a0823160e01b81523060048201526001600160a01b038416906370a082319060240160206040518083038186803b15801561170357600080fd5b505afa158015611717573d6000803e3d6000fd5b505050506040513d601f19601f8201168201806040525081019061173b91906123ae565b90505b600082158061174c57508183115b1561179b57600082116117945760405162461bcd60e51b815260206004820152601060248201526f4e4f545f454e4f5547485f46554e445360801b60448201526064016107cb565b508061179e565b50815b609d546040518281526001600160a01b039182169186169033907f342e7ff505a8a0364cd0dc2ff195c315e43bce86b204846ecd36913e117b109e9060200160405180910390a4609d5461153d9085906001600160a01b031683611c77565b600082815260a360205260408120546001600160a01b038381169116148061185e5750600083815260a360205260409020546001600160a01b031615801561185e5750600083815260a160205260409020546001600160a01b038381169116145b1561186b5750600161074b565b50600061074b565b61187d8282610d08565b610b6557611895816001600160a01b03166014611cb3565b6118a0836020611cb3565b6040516020016118b1929190612403565b60408051601f198184030181529082905262461bcd60e51b82526107cb91600401612478565b6118e18282610d08565b610b655760008281526065602090815260408083206001600160a01b03851684529091529020805460ff191660011790556119193390565b6001600160a01b0316816001600160a01b0316837f2f8788117e7eff1d82e926ec794901d17c78024a50270940304540a733656f0d60405160405180910390a45050565b6119678282610d08565b15610b655760008281526065602090815260408083206001600160a01b0385168085529252808320805460ff1916905551339285917ff6391f5c32d9c69d2a47ea670b442974b53935d1edc7fd64eb21e047a839171b9190a45050565b6001600160a01b038116600090815260a0602052604081206001015482904210611a205760405162461bcd60e51b815260206004820152600d60248201526c12d15657d393d517d590531251609a1b60448201526064016107cb565b6001600160a01b038316600090815260a0602052604081206001810154909190611a4b904290612580565b905060995460a75482611a5e9190612529565b10611a6d57609a549350611a8b565b60995481609a54611a7e9190612561565b611a889190612541565b93505b60a7541580611aa7575060995460a754611aa59083612529565b105b15611aed57600061271060a654609a54611ac19190612561565b611acb9190612541565b905080851115611ae657611adf8186612580565b9450611aeb565b600094505b505b505050919050565b6001600160a01b038216600081815260a0602052604090819020805491519092339290917f0a7068a9989857441c039a14a42b67ed71dd1fcfe5a9b17cc87b252e47bce52890611b489087815260200190565b60405180910390a44260018201558115611b7357609754611b73906001600160a01b03168484611c77565b609f546001600160a01b031615610ae657609f5460405163b499b6c560e01b81523360048201526001600160a01b038581166024830152604482018590529091169063b499b6c590606401600060405180830381600087803b158015611bd857600080fd5b505af1158015611bec573d6000803e3d6000fd5b50505050505050565b600082815260a360205260409020546001600160a01b03828116911614610b6557600082815260a36020526040902080546001600160a01b0319166001600160a01b038316179055611c4682611e95565b60405160009083907f9d2895c45a420624de863a2f437b022d879f457bf7a829044055a10c5a6fd5e3908390a35050565b8015610ae6576001600160a01b038316611c9e57610ae66001600160a01b03831682611ed2565b8261153d6001600160a01b0382168484611feb565b60606000611cc2836002612561565b611ccd906002612529565b67ffffffffffffffff811115611cf357634e487b7160e01b600052604160045260246000fd5b6040519080825280601f01601f191660200182016040528015611d1d576020820181803683370190505b509050600360fc1b81600081518110611d4657634e487b7160e01b600052603260045260246000fd5b60200101906001600160f81b031916908160001a905350600f60fb1b81600181518110611d8357634e487b7160e01b600052603260045260246000fd5b60200101906001600160f81b031916908160001a9053506000611da7846002612561565b611db2906001612529565b90505b6001811115611e46576f181899199a1a9b1b9c1cb0b131b232b360811b85600f1660108110611df457634e487b7160e01b600052603260045260246000fd5b1a60f81b828281518110611e1857634e487b7160e01b600052603260045260246000fd5b60200101906001600160f81b031916908160001a90535060049490941c93611e3f816125c3565b9050611db5565b5083156113505760405162461bcd60e51b815260206004820181905260248201527f537472696e67733a20686578206c656e67746820696e73756666696369656e7460448201526064016107cb565b600081815260a460205260409020546001600160a01b031615611ecf57600081815260a46020526040902080546001600160a01b03191690555b50565b80471015611f225760405162461bcd60e51b815260206004820152601d60248201527f416464726573733a20696e73756666696369656e742062616c616e636500000060448201526064016107cb565b6000826001600160a01b03168260405160006040518083038185875af1925050503d8060008114611f6f576040519150601f19603f3d011682016040523d82523d6000602084013e611f74565b606091505b5050905080610ae65760405162461bcd60e51b815260206004820152603a60248201527f416464726573733a20756e61626c6520746f2073656e642076616c75652c207260448201527f6563697069656e74206d6179206861766520726576657274656400000000000060648201526084016107cb565b604080516001600160a01b03848116602483015260448083018590528351808403909101815260649092018352602080830180516001600160e01b031663a9059cbb60e01b17905283518085019094528084527f5361666545524332303a206c6f772d6c6576656c2063616c6c206661696c656490840152610ae69286929160009161207b9185169084906120f8565b805190915015610ae65780806020019051810190612099919061232e565b610ae65760405162461bcd60e51b815260206004820152602a60248201527f5361666545524332303a204552433230206f7065726174696f6e20646964206e6044820152691bdd081cdd58d8d9595960b21b60648201526084016107cb565b6060612107848460008561210f565b949350505050565b6060824710156121705760405162461bcd60e51b815260206004820152602660248201527f416464726573733a20696e73756666696369656e742062616c616e636520666f6044820152651c8818d85b1b60d21b60648201526084016107cb565b843b6121be5760405162461bcd60e51b815260206004820152601d60248201527f416464726573733a2063616c6c20746f206e6f6e2d636f6e747261637400000060448201526064016107cb565b600080866001600160a01b031685876040516121da91906123e7565b60006040518083038185875af1925050503d8060008114612217576040519150601f19603f3d011682016040523d82523d6000602084013e61221c565b606091505b509150915061222c828286612237565b979650505050505050565b60608315612246575081611350565b8251156122565782518084602001fd5b8160405162461bcd60e51b81526004016107cb9190612478565b600060208284031215612281578081fd5b8135611350816125f0565b6000806040838503121561229e578081fd5b82356122a9816125f0565b946020939093013593505050565b600080604083850312156122c9578182fd5b82356122d4816125f0565b915060208301356122e4816125f0565b809150509250929050565b60008060408385031215612301578182fd5b823561230c816125f0565b915060208301356122e481612605565b6000806040838503121561229e578182fd5b60006020828403121561233f578081fd5b815161135081612605565b60006020828403121561235b578081fd5b5035919050565b60008060408385031215612374578182fd5b8235915060208301356122e4816125f0565b600060208284031215612397578081fd5b81356001600160e01b031981168114611350578182fd5b6000602082840312156123bf578081fd5b5051919050565b600080604083850312156123d8578182fd5b50508035926020909101359150565b600082516123f9818460208701612597565b9190910192915050565b7f416363657373436f6e74726f6c3a206163636f756e742000000000000000000081526000835161243b816017850160208801612597565b7001034b99036b4b9b9b4b733903937b6329607d1b601791840191820152835161246c816028840160208801612597565b01602801949350505050565b6020815260008251806020840152612497816040850160208701612597565b601f01601f19169190910160400192915050565b60208082526035908201527f4d6978696e526f6c65733a2063616c6c657220646f6573206e6f74206861766560408201527420746865204c6f636b4d616e6167657220726f6c6560581b606082015260800190565b6020808252600f908201526e1313d0d2d7d11154149150d0551151608a1b604082015260600190565b6000821982111561253c5761253c6125da565b500190565b60008261255c57634e487b7160e01b81526012600452602481fd5b500490565b600081600019048311821515161561257b5761257b6125da565b500290565b600082821015612592576125926125da565b500390565b60005b838110156125b257818101518382015260200161259a565b8381111561153d5750506000910152565b6000816125d2576125d26125da565b506000190190565b634e487b7160e01b600052601160045260246000fd5b6001600160a01b0381168114611ecf57600080fd5b8015158114611ecf57600080fdfeb309c40027c81d382c3b58d8de24207a34b27e1db369b1434e4a11311f154b5eb89cdd26cddd51301940bf2715f765b626b8a5a9e2681ac62dc83cc2db2530c0a2646970667358221220115ab30e6a580fce09a8d81672dab640a361f5d884971e27ca260900645cea6864736f6c63430008040033",
  "linkReferences": {},
  "deployedLinkReferences": {}
}