{"abi":[{"type":"function","name":"initialize","inputs":[{"name":"_admin","type":"address","internalType":"address"},{"name":"_verification","type":"address","internalType":"address"},{"name":"_name","type":"string","internalType":"string"},{"name":"_version","type":"string","internalType":"string"}],"outputs":[],"stateMutability":"nonpayable"},{"type":"function","name":"owner","inputs":[],"outputs":[{"name":"","type":"address","internalType":"address"}],"stateMutability":"view"},{"type":"function","name":"registerSelf","inputs":[],"outputs":[],"stateMutability":"nonpayable"},{"type":"function","name":"registerUserViaOwner","inputs":[{"name":"_user","type":"address","internalType":"address"}],"outputs":[],"stateMutability":"nonpayable"},{"type":"function","name":"renounceOwnership","inputs":[],"outputs":[],"stateMutability":"nonpayable"},{"type":"function","name":"transferOwnership","inputs":[{"name":"newOwner","type":"address","internalType":"address"}],"outputs":[],"stateMutability":"nonpayable"},{"type":"function","name":"unregisterSelf","inputs":[],"outputs":[],"stateMutability":"nonpayable"},{"type":"function","name":"unregisterUser","inputs":[{"name":"_user","type":"address","internalType":"address"}],"outputs":[],"stateMutability":"nonpayable"},{"type":"function","name":"updateVerification","inputs":[{"name":"_verification","type":"address","internalType":"address"}],"outputs":[],"stateMutability":"nonpayable"},{"type":"function","name":"verification","inputs":[],"outputs":[{"name":"","type":"address","internalType":"contract IVerification"}],"stateMutability":"view"},{"type":"event","name":"OwnershipTransferred","inputs":[{"name":"previousOwner","type":"address","indexed":true,"internalType":"address"},{"name":"newOwner","type":"address","indexed":true,"internalType":"address"}],"anonymous":false},{"type":"event","name":"SignerUpdated","inputs":[{"name":"signerAddress","type":"address","indexed":true,"internalType":"address"}],"anonymous":false},{"type":"event","name":"UserRegistered","inputs":[{"name":"user","type":"address","indexed":true,"internalType":"address"},{"name":"isMasterLinked","type":"bool","indexed":false,"internalType":"bool"},{"name":"metadata","type":"string","indexed":true,"internalType":"string"}],"anonymous":false},{"type":"event","name":"UserUnregistered","inputs":[{"name":"user","type":"address","indexed":true,"internalType":"address"}],"anonymous":false},{"type":"event","name":"VerificationUpdated","inputs":[{"name":"verification","type":"address","indexed":true,"internalType":"address"}],"anonymous":false}],"bytecode":{"object":"0x608060405234801561001057600080fd5b50611baf806100206000396000f3fe608060405234801561001057600080fd5b506004361061009e5760003560e01c8063715018a611610066578063715018a6146102fb57806385ebbc6c146103055780638da5cb5b14610349578063cbc0415d1461037d578063f2fde38b146103875761009e565b80632016a0d2146100a357806321f2ca3b146102355780634714a411146102795780634ffe2a8b146102bd5780636bafaa59146102f1575b600080fd5b610233600480360360808110156100b957600080fd5b81019080803573ffffffffffffffffffffffffffffffffffffffff169060200190929190803573ffffffffffffffffffffffffffffffffffffffff1690602001909291908035906020019064010000000081111561011657600080fd5b82018360208201111561012857600080fd5b8035906020019184600183028401116401000000008311171561014a57600080fd5b91908080601f016020809104026020016040519081016040528093929190818152602001838380828437600081840152601f19601f820116905080830192505050505050509192919290803590602001906401000000008111156101ad57600080fd5b8201836020820111156101bf57600080fd5b803590602001918460018302840111640100000000831117156101e157600080fd5b91908080601f016020809104026020016040519081016040528093929190818152602001838380828437600081840152601f19601f8201169050808301925050505050505091929192905050506103cb565b005b6102776004803603602081101561024b57600080fd5b81019080803573ffffffffffffffffffffffffffffffffffffffff1690602001909291905050506104f1565b005b6102bb6004803603602081101561028f57600080fd5b81019080803573ffffffffffffffffffffffffffffffffffffffff1690602001909291905050506107fb565b005b6102c56108b6565b604051808273ffffffffffffffffffffffffffffffffffffffff16815260200191505060405180910390f35b6102f96108dc565b005b610303610b36565b005b6103476004803603602081101561031b57600080fd5b81019080803573ffffffffffffffffffffffffffffffffffffffff169060200190929190505050610ca6565b005b610351610fe2565b604051808273ffffffffffffffffffffffffffffffffffffffff16815260200191505060405180910390f35b61038561100c565b005b6103c96004803603602081101561039d57600080fd5b81019080803573ffffffffffffffffffffffffffffffffffffffff169060200190929190505050611298565b005b600060019054906101000a900460ff16806103ea57506103e961148d565b5b80610400575060008054906101000a900460ff16155b610455576040517f08c379a000000000000000000000000000000000000000000000000000000000815260040180806020018281038252602e815260200180611b4c602e913960400191505060405180910390fd5b60008060019054906101000a900460ff1615905080156104a5576001600060016101000a81548160ff02191690831515021790555060016000806101000a81548160ff0219169083151502179055505b6104ad61149e565b6104b685611298565b6104bf846115ac565b6104c98383611633565b80156104ea5760008060016101000a81548160ff0219169083151502179055505b5050505050565b6104f961173d565b73ffffffffffffffffffffffffffffffffffffffff16610517610fe2565b73ffffffffffffffffffffffffffffffffffffffff16146105a0576040517f08c379a00000000000000000000000000000000000000000000000000000000081526004018080602001828103825260208152602001807f4f776e61626c653a2063616c6c6572206973206e6f7420746865206f776e657281525060200191505060405180910390fd5b609960009054906101000a900473ffffffffffffffffffffffffffffffffffffffff1673ffffffffffffffffffffffffffffffffffffffff166302d43dc882306040518363ffffffff1660e01b8152600401808373ffffffffffffffffffffffffffffffffffffffff1681526020018273ffffffffffffffffffffffffffffffffffffffff1681526020019250505060206040518083038186803b15801561064757600080fd5b505afa15801561065b573d6000803e3d6000fd5b505050506040513d602081101561067157600080fd5b81019080805190602001909291905050506106f4576040517f08c379a00000000000000000000000000000000000000000000000000000000081526004018080602001828103825260138152602001807f5573657220646f6573206e6f742065786973740000000000000000000000000081525060200191505060405180910390fd5b609960009054906101000a900473ffffffffffffffffffffffffffffffffffffffff1673ffffffffffffffffffffffffffffffffffffffff1663b4d59d0e82306040518363ffffffff1660e01b8152600401808373ffffffffffffffffffffffffffffffffffffffff1681526020018273ffffffffffffffffffffffffffffffffffffffff16815260200192505050600060405180830381600087803b15801561079d57600080fd5b505af11580156107b1573d6000803e3d6000fd5b505050508073ffffffffffffffffffffffffffffffffffffffff167f69c4cef1aa574ae7852ac8b784ab60926951c604b70049150e4091759ea9807660405160405180910390a250565b61080361173d565b73ffffffffffffffffffffffffffffffffffffffff16610821610fe2565b73ffffffffffffffffffffffffffffffffffffffff16146108aa576040517f08c379a00000000000000000000000000000000000000000000000000000000081526004018080602001828103825260208152602001807f4f776e61626c653a2063616c6c6572206973206e6f7420746865206f776e657281525060200191505060405180910390fd5b6108b3816115ac565b50565b609960009054906101000a900473ffffffffffffffffffffffffffffffffffffffff1681565b609960009054906101000a900473ffffffffffffffffffffffffffffffffffffffff1673ffffffffffffffffffffffffffffffffffffffff166302d43dc833306040518363ffffffff1660e01b8152600401808373ffffffffffffffffffffffffffffffffffffffff1681526020018273ffffffffffffffffffffffffffffffffffffffff1681526020019250505060206040518083038186803b15801561098357600080fd5b505afa158015610997573d6000803e3d6000fd5b505050506040513d60208110156109ad57600080fd5b8101908080519060200190929190505050610a30576040517f08c379a00000000000000000000000000000000000000000000000000000000081526004018080602001828103825260138152602001807f5573657220646f6573206e6f742065786973740000000000000000000000000081525060200191505060405180910390fd5b609960009054906101000a900473ffffffffffffffffffffffffffffffffffffffff1673ffffffffffffffffffffffffffffffffffffffff1663b4d59d0e33306040518363ffffffff1660e01b8152600401808373ffffffffffffffffffffffffffffffffffffffff1681526020018273ffffffffffffffffffffffffffffffffffffffff16815260200192505050600060405180830381600087803b158015610ad957600080fd5b505af1158015610aed573d6000803e3d6000fd5b505050503373ffffffffffffffffffffffffffffffffffffffff167f69c4cef1aa574ae7852ac8b784ab60926951c604b70049150e4091759ea9807660405160405180910390a2565b610b3e61173d565b73ffffffffffffffffffffffffffffffffffffffff16610b5c610fe2565b73ffffffffffffffffffffffffffffffffffffffff1614610be5576040517f08c379a00000000000000000000000000000000000000000000000000000000081526004018080602001828103825260208152602001807f4f776e61626c653a2063616c6c6572206973206e6f7420746865206f776e657281525060200191505060405180910390fd5b600073ffffffffffffffffffffffffffffffffffffffff16603360009054906101000a900473ffffffffffffffffffffffffffffffffffffffff1673ffffffffffffffffffffffffffffffffffffffff167f8be0079c531659141344cd1fd0a4f28419497f9722a3daafe3b4186f6b6457e060405160405180910390a36000603360006101000a81548173ffffffffffffffffffffffffffffffffffffffff021916908373ffffffffffffffffffffffffffffffffffffffff160217905550565b610cae61173d565b73ffffffffffffffffffffffffffffffffffffffff16610ccc610fe2565b73ffffffffffffffffffffffffffffffffffffffff1614610d55576040517f08c379a00000000000000000000000000000000000000000000000000000000081526004018080602001828103825260208152602001807f4f776e61626c653a2063616c6c6572206973206e6f7420746865206f776e657281525060200191505060405180910390fd5b609960009054906101000a900473ffffffffffffffffffffffffffffffffffffffff1673ffffffffffffffffffffffffffffffffffffffff166302d43dc882306040518363ffffffff1660e01b8152600401808373ffffffffffffffffffffffffffffffffffffffff1681526020018273ffffffffffffffffffffffffffffffffffffffff1681526020019250505060206040518083038186803b158015610dfc57600080fd5b505afa158015610e10573d6000803e3d6000fd5b505050506040513d6020811015610e2657600080fd5b810190808051906020019092919050505015610eaa576040517f08c379a00000000000000000000000000000000000000000000000000000000081526004018080602001828103825260138152602001807f5573657220616c7265616479206578697374730000000000000000000000000081525060200191505060405180910390fd5b609960009054906101000a900473ffffffffffffffffffffffffffffffffffffffff1673ffffffffffffffffffffffffffffffffffffffff1663a94413a18260016040518363ffffffff1660e01b8152600401808373ffffffffffffffffffffffffffffffffffffffff168152602001821515815260200192505050600060405180830381600087803b158015610f4057600080fd5b505af1158015610f54573d6000803e3d6000fd5b5050505060405180807f6e6f6e6500000000000000000000000000000000000000000000000000000000815250600401905060405180910390208173ffffffffffffffffffffffffffffffffffffffff167fd0cc6197d4f74413f62e2cef7b4b43536e1965d8f11dcbf4c376ec1e85d2b22e600160405180821515815260200191505060405180910390a350565b6000603360009054906101000a900473ffffffffffffffffffffffffffffffffffffffff16905090565b609960009054906101000a900473ffffffffffffffffffffffffffffffffffffffff1673ffffffffffffffffffffffffffffffffffffffff166302d43dc833306040518363ffffffff1660e01b8152600401808373ffffffffffffffffffffffffffffffffffffffff1681526020018273ffffffffffffffffffffffffffffffffffffffff1681526020019250505060206040518083038186803b1580156110b357600080fd5b505afa1580156110c7573d6000803e3d6000fd5b505050506040513d60208110156110dd57600080fd5b810190808051906020019092919050505015611161576040517f08c379a00000000000000000000000000000000000000000000000000000000081526004018080602001828103825260138152602001807f5573657220616c7265616479206578697374730000000000000000000000000081525060200191505060405180910390fd5b609960009054906101000a900473ffffffffffffffffffffffffffffffffffffffff1673ffffffffffffffffffffffffffffffffffffffff1663a94413a13360016040518363ffffffff1660e01b8152600401808373ffffffffffffffffffffffffffffffffffffffff168152602001821515815260200192505050600060405180830381600087803b1580156111f757600080fd5b505af115801561120b573d6000803e3d6000fd5b5050505060405180807f6e6f6e6500000000000000000000000000000000000000000000000000000000815250600401905060405180910390203373ffffffffffffffffffffffffffffffffffffffff167fd0cc6197d4f74413f62e2cef7b4b43536e1965d8f11dcbf4c376ec1e85d2b22e600160405180821515815260200191505060405180910390a3565b6112a061173d565b73ffffffffffffffffffffffffffffffffffffffff166112be610fe2565b73ffffffffffffffffffffffffffffffffffffffff1614611347576040517f08c379a00000000000000000000000000000000000000000000000000000000081526004018080602001828103825260208152602001807f4f776e61626c653a2063616c6c6572206973206e6f7420746865206f776e657281525060200191505060405180910390fd5b600073ffffffffffffffffffffffffffffffffffffffff168173ffffffffffffffffffffffffffffffffffffffff1614156113cd576040517f08c379a0000000000000000000000000000000000000000000000000000000008152600401808060200182810382526026815260200180611b266026913960400191505060405180910390fd5b8073ffffffffffffffffffffffffffffffffffffffff16603360009054906101000a900473ffffffffffffffffffffffffffffffffffffffff1673ffffffffffffffffffffffffffffffffffffffff167f8be0079c531659141344cd1fd0a4f28419497f9722a3daafe3b4186f6b6457e060405160405180910390a380603360006101000a81548173ffffffffffffffffffffffffffffffffffffffff021916908373ffffffffffffffffffffffffffffffffffffffff16021790555050565b600061149830611745565b15905090565b600060019054906101000a900460ff16806114bd57506114bc61148d565b5b806114d3575060008054906101000a900460ff16155b611528576040517f08c379a000000000000000000000000000000000000000000000000000000000815260040180806020018281038252602e815260200180611b4c602e913960400191505060405180910390fd5b60008060019054906101000a900460ff161590508015611578576001600060016101000a81548160ff02191690831515021790555060016000806101000a81548160ff0219169083151502179055505b611580611758565b611588611856565b80156115a95760008060016101000a81548160ff0219169083151502179055505b50565b80609960006101000a81548173ffffffffffffffffffffffffffffffffffffffff021916908373ffffffffffffffffffffffffffffffffffffffff1602179055508073ffffffffffffffffffffffffffffffffffffffff167f338023d1a77245a8822dee6b9aa4282f63ead21a60f318249be250004ed8b93b60405160405180910390a250565b600060019054906101000a900460ff1680611652575061165161148d565b5b80611668575060008054906101000a900460ff16155b6116bd576040517f08c379a000000000000000000000000000000000000000000000000000000000815260040180806020018281038252602e815260200180611b4c602e913960400191505060405180910390fd5b60008060019054906101000a900460ff16159050801561170d576001600060016101000a81548160ff02191690831515021790555060016000806101000a81548160ff0219169083151502179055505b61171783836119fd565b80156117385760008060016101000a81548160ff0219169083151502179055505b505050565b600033905090565b600080823b905060008111915050919050565b600060019054906101000a900460ff1680611777575061177661148d565b5b8061178d575060008054906101000a900460ff16155b6117e2576040517f08c379a000000000000000000000000000000000000000000000000000000000815260040180806020018281038252602e815260200180611b4c602e913960400191505060405180910390fd5b60008060019054906101000a900460ff161590508015611832576001600060016101000a81548160ff02191690831515021790555060016000806101000a81548160ff0219169083151502179055505b80156118535760008060016101000a81548160ff0219169083151502179055505b50565b600060019054906101000a900460ff1680611875575061187461148d565b5b8061188b575060008054906101000a900460ff16155b6118e0576040517f08c379a000000000000000000000000000000000000000000000000000000000815260040180806020018281038252602e815260200180611b4c602e913960400191505060405180910390fd5b60008060019054906101000a900460ff161590508015611930576001600060016101000a81548160ff02191690831515021790555060016000806101000a81548160ff0219169083151502179055505b600061193a61173d565b905080603360006101000a81548173ffffffffffffffffffffffffffffffffffffffff021916908373ffffffffffffffffffffffffffffffffffffffff1602179055508073ffffffffffffffffffffffffffffffffffffffff16600073ffffffffffffffffffffffffffffffffffffffff167f8be0079c531659141344cd1fd0a4f28419497f9722a3daafe3b4186f6b6457e060405160405180910390a35080156119fa5760008060016101000a81548160ff0219169083151502179055505b50565b600060019054906101000a900460ff1680611a1c5750611a1b61148d565b5b80611a32575060008054906101000a900460ff16155b611a87576040517f08c379a000000000000000000000000000000000000000000000000000000000815260040180806020018281038252602e815260200180611b4c602e913960400191505060405180910390fd5b60008060019054906101000a900460ff161590508015611ad7576001600060016101000a81548160ff02191690831515021790555060016000806101000a81548160ff0219169083151502179055505b600083805190602001209050600083805190602001209050816065819055508060668190555050508015611b205760008060016101000a81548160ff0219169083151502179055505b50505056fe4f776e61626c653a206e6577206f776e657220697320746865207a65726f2061646472657373496e697469616c697a61626c653a20636f6e747261637420697320616c726561647920696e697469616c697a6564a2646970667358221220ccfe0b2ff2c2751b80c7d90484acfe849b8c02a2493149b70af42a4d543e573f64736f6c63430007060033","linkReferences":{}},"methodIdentifiers":{"initialize(address,address,string,string)":"2016a0d2","owner()":"8da5cb5b","registerSelf()":"cbc0415d","registerUserViaOwner(address)":"85ebbc6c","renounceOwnership()":"715018a6","transferOwnership(address)":"f2fde38b","unregisterSelf()":"6bafaa59","unregisterUser(address)":"21f2ca3b","updateVerification(address)":"4714a411","verification()":"4ffe2a8b"},"id":42}