{
  "_format": "hh-sol-artifact-1",
  "contractName": "Manager",
  "sourceName": "contracts/v3/Manager.sol",
  "abi": [
    {
      "inputs": [
        {
          "internalType": "address",
          "name": "_yaxis",
          "type": "address"
        }
      ],
      "stateMutability": "nonpayable",
      "type": "constructor"
    },
    {
      "anonymous": false,
      "inputs": [
        {
          "indexed": true,
          "internalType": "address",
          "name": "_controller",
          "type": "address"
        },
        {
          "indexed": false,
          "internalType": "bool",
          "name": "_allowed",
          "type": "bool"
        }
      ],
      "name": "AllowedController",
      "type": "event"
    },
    {
      "anonymous": false,
      "inputs": [
        {
          "indexed": true,
          "internalType": "address",
          "name": "_converter",
          "type": "address"
        },
        {
          "indexed": false,
          "internalType": "bool",
          "name": "_allowed",
          "type": "bool"
        }
      ],
      "name": "AllowedConverter",
      "type": "event"
    },
    {
      "anonymous": false,
      "inputs": [
        {
          "indexed": true,
          "internalType": "address",
          "name": "_strategy",
          "type": "address"
        },
        {
          "indexed": false,
          "internalType": "bool",
          "name": "_allowed",
          "type": "bool"
        }
      ],
      "name": "AllowedStrategy",
      "type": "event"
    },
    {
      "anonymous": false,
      "inputs": [
        {
          "indexed": true,
          "internalType": "address",
          "name": "_token",
          "type": "address"
        },
        {
          "indexed": false,
          "internalType": "bool",
          "name": "_allowed",
          "type": "bool"
        }
      ],
      "name": "AllowedToken",
      "type": "event"
    },
    {
      "anonymous": false,
      "inputs": [
        {
          "indexed": true,
          "internalType": "address",
          "name": "_vault",
          "type": "address"
        },
        {
          "indexed": false,
          "internalType": "bool",
          "name": "_allowed",
          "type": "bool"
        }
      ],
      "name": "AllowedVault",
      "type": "event"
    },
    {
      "anonymous": false,
      "inputs": [],
      "name": "Halted",
      "type": "event"
    },
    {
      "anonymous": false,
      "inputs": [
        {
          "indexed": true,
          "internalType": "address",
          "name": "_vault",
          "type": "address"
        },
        {
          "indexed": true,
          "internalType": "address",
          "name": "_controller",
          "type": "address"
        }
      ],
      "name": "SetController",
      "type": "event"
    },
    {
      "anonymous": false,
      "inputs": [
        {
          "indexed": true,
          "internalType": "address",
          "name": "_governance",
          "type": "address"
        }
      ],
      "name": "SetGovernance",
      "type": "event"
    },
    {
      "anonymous": false,
      "inputs": [
        {
          "indexed": true,
          "internalType": "address",
          "name": "_strategist",
          "type": "address"
        }
      ],
      "name": "SetPendingStrategist",
      "type": "event"
    },
    {
      "anonymous": false,
      "inputs": [
        {
          "indexed": true,
          "internalType": "address",
          "name": "_strategist",
          "type": "address"
        }
      ],
      "name": "SetStrategist",
      "type": "event"
    },
    {
      "anonymous": false,
      "inputs": [
        {
          "indexed": true,
          "internalType": "address",
          "name": "_vault",
          "type": "address"
        },
        {
          "indexed": true,
          "internalType": "address",
          "name": "_token",
          "type": "address"
        }
      ],
      "name": "TokenAdded",
      "type": "event"
    },
    {
      "anonymous": false,
      "inputs": [
        {
          "indexed": true,
          "internalType": "address",
          "name": "_vault",
          "type": "address"
        },
        {
          "indexed": true,
          "internalType": "address",
          "name": "_token",
          "type": "address"
        }
      ],
      "name": "TokenRemoved",
      "type": "event"
    },
    {
      "inputs": [],
      "name": "MAX_TOKENS",
      "outputs": [
        {
          "internalType": "uint256",
          "name": "",
          "type": "uint256"
        }
      ],
      "stateMutability": "view",
      "type": "function"
    },
    {
      "inputs": [],
      "name": "PENDING_STRATEGIST_TIMELOCK",
      "outputs": [
        {
          "internalType": "uint256",
          "name": "",
          "type": "uint256"
        }
      ],
      "stateMutability": "view",
      "type": "function"
    },
    {
      "inputs": [],
      "name": "acceptStrategist",
      "outputs": [],
      "stateMutability": "nonpayable",
      "type": "function"
    },
    {
      "inputs": [
        {
          "internalType": "address",
          "name": "_vault",
          "type": "address"
        },
        {
          "internalType": "address",
          "name": "_token",
          "type": "address"
        }
      ],
      "name": "addToken",
      "outputs": [],
      "stateMutability": "nonpayable",
      "type": "function"
    },
    {
      "inputs": [
        {
          "internalType": "address",
          "name": "",
          "type": "address"
        }
      ],
      "name": "allowedControllers",
      "outputs": [
        {
          "internalType": "bool",
          "name": "",
          "type": "bool"
        }
      ],
      "stateMutability": "view",
      "type": "function"
    },
    {
      "inputs": [
        {
          "internalType": "address",
          "name": "",
          "type": "address"
        }
      ],
      "name": "allowedConverters",
      "outputs": [
        {
          "internalType": "bool",
          "name": "",
          "type": "bool"
        }
      ],
      "stateMutability": "view",
      "type": "function"
    },
    {
      "inputs": [
        {
          "internalType": "address",
          "name": "",
          "type": "address"
        }
      ],
      "name": "allowedStrategies",
      "outputs": [
        {
          "internalType": "bool",
          "name": "",
          "type": "bool"
        }
      ],
      "stateMutability": "view",
      "type": "function"
    },
    {
      "inputs": [
        {
          "internalType": "address",
          "name": "",
          "type": "address"
        }
      ],
      "name": "allowedTokens",
      "outputs": [
        {
          "internalType": "bool",
          "name": "",
          "type": "bool"
        }
      ],
      "stateMutability": "view",
      "type": "function"
    },
    {
      "inputs": [
        {
          "internalType": "address",
          "name": "",
          "type": "address"
        }
      ],
      "name": "allowedVaults",
      "outputs": [
        {
          "internalType": "bool",
          "name": "",
          "type": "bool"
        }
      ],
      "stateMutability": "view",
      "type": "function"
    },
    {
      "inputs": [
        {
          "internalType": "address",
          "name": "",
          "type": "address"
        }
      ],
      "name": "controllers",
      "outputs": [
        {
          "internalType": "address",
          "name": "",
          "type": "address"
        }
      ],
      "stateMutability": "view",
      "type": "function"
    },
    {
      "inputs": [],
      "name": "getHarvestFeeInfo",
      "outputs": [
        {
          "internalType": "address",
          "name": "",
          "type": "address"
        },
        {
          "internalType": "address",
          "name": "",
          "type": "address"
        },
        {
          "internalType": "uint256",
          "name": "",
          "type": "uint256"
        }
      ],
      "stateMutability": "view",
      "type": "function"
    },
    {
      "inputs": [
        {
          "internalType": "address",
          "name": "_vault",
          "type": "address"
        }
      ],
      "name": "getTokens",
      "outputs": [
        {
          "internalType": "address[]",
          "name": "",
          "type": "address[]"
        }
      ],
      "stateMutability": "view",
      "type": "function"
    },
    {
      "inputs": [],
      "name": "governance",
      "outputs": [
        {
          "internalType": "address",
          "name": "",
          "type": "address"
        }
      ],
      "stateMutability": "view",
      "type": "function"
    },
    {
      "inputs": [],
      "name": "halted",
      "outputs": [
        {
          "internalType": "bool",
          "name": "",
          "type": "bool"
        }
      ],
      "stateMutability": "view",
      "type": "function"
    },
    {
      "inputs": [],
      "name": "harvester",
      "outputs": [
        {
          "internalType": "address",
          "name": "",
          "type": "address"
        }
      ],
      "stateMutability": "view",
      "type": "function"
    },
    {
      "inputs": [],
      "name": "insuranceFee",
      "outputs": [
        {
          "internalType": "uint256",
          "name": "",
          "type": "uint256"
        }
      ],
      "stateMutability": "view",
      "type": "function"
    },
    {
      "inputs": [],
      "name": "insurancePool",
      "outputs": [
        {
          "internalType": "address",
          "name": "",
          "type": "address"
        }
      ],
      "stateMutability": "view",
      "type": "function"
    },
    {
      "inputs": [],
      "name": "insurancePoolFee",
      "outputs": [
        {
          "internalType": "uint256",
          "name": "",
          "type": "uint256"
        }
      ],
      "stateMutability": "view",
      "type": "function"
    },
    {
      "inputs": [],
      "name": "pendingStrategist",
      "outputs": [
        {
          "internalType": "address",
          "name": "",
          "type": "address"
        }
      ],
      "stateMutability": "view",
      "type": "function"
    },
    {
      "inputs": [
        {
          "internalType": "contract IERC20",
          "name": "_token",
          "type": "address"
        },
        {
          "internalType": "uint256",
          "name": "_amount",
          "type": "uint256"
        },
        {
          "internalType": "address",
          "name": "_to",
          "type": "address"
        }
      ],
      "name": "recoverToken",
      "outputs": [],
      "stateMutability": "nonpayable",
      "type": "function"
    },
    {
      "inputs": [
        {
          "internalType": "address",
          "name": "_vault",
          "type": "address"
        },
        {
          "internalType": "address",
          "name": "_token",
          "type": "address"
        }
      ],
      "name": "removeToken",
      "outputs": [],
      "stateMutability": "nonpayable",
      "type": "function"
    },
    {
      "inputs": [
        {
          "internalType": "address",
          "name": "_controller",
          "type": "address"
        },
        {
          "internalType": "bool",
          "name": "_allowed",
          "type": "bool"
        }
      ],
      "name": "setAllowedController",
      "outputs": [],
      "stateMutability": "nonpayable",
      "type": "function"
    },
    {
      "inputs": [
        {
          "internalType": "address",
          "name": "_converter",
          "type": "address"
        },
        {
          "internalType": "bool",
          "name": "_allowed",
          "type": "bool"
        }
      ],
      "name": "setAllowedConverter",
      "outputs": [],
      "stateMutability": "nonpayable",
      "type": "function"
    },
    {
      "inputs": [
        {
          "internalType": "address",
          "name": "_strategy",
          "type": "address"
        },
        {
          "internalType": "bool",
          "name": "_allowed",
          "type": "bool"
        }
      ],
      "name": "setAllowedStrategy",
      "outputs": [],
      "stateMutability": "nonpayable",
      "type": "function"
    },
    {
      "inputs": [
        {
          "internalType": "address",
          "name": "_token",
          "type": "address"
        },
        {
          "internalType": "bool",
          "name": "_allowed",
          "type": "bool"
        }
      ],
      "name": "setAllowedToken",
      "outputs": [],
      "stateMutability": "nonpayable",
      "type": "function"
    },
    {
      "inputs": [
        {
          "internalType": "address",
          "name": "_vault",
          "type": "address"
        },
        {
          "internalType": "bool",
          "name": "_allowed",
          "type": "bool"
        }
      ],
      "name": "setAllowedVault",
      "outputs": [],
      "stateMutability": "nonpayable",
      "type": "function"
    },
    {
      "inputs": [
        {
          "internalType": "address",
          "name": "_vault",
          "type": "address"
        },
        {
          "internalType": "address",
          "name": "_controller",
          "type": "address"
        }
      ],
      "name": "setController",
      "outputs": [],
      "stateMutability": "nonpayable",
      "type": "function"
    },
    {
      "inputs": [
        {
          "internalType": "address",
          "name": "_governance",
          "type": "address"
        }
      ],
      "name": "setGovernance",
      "outputs": [],
      "stateMutability": "nonpayable",
      "type": "function"
    },
    {
      "inputs": [],
      "name": "setHalted",
      "outputs": [],
      "stateMutability": "nonpayable",
      "type": "function"
    },
    {
      "inputs": [
        {
          "internalType": "address",
          "name": "_harvester",
          "type": "address"
        }
      ],
      "name": "setHarvester",
      "outputs": [],
      "stateMutability": "nonpayable",
      "type": "function"
    },
    {
      "inputs": [
        {
          "internalType": "uint256",
          "name": "_insuranceFee",
          "type": "uint256"
        }
      ],
      "name": "setInsuranceFee",
      "outputs": [],
      "stateMutability": "nonpayable",
      "type": "function"
    },
    {
      "inputs": [
        {
          "internalType": "address",
          "name": "_insurancePool",
          "type": "address"
        }
      ],
      "name": "setInsurancePool",
      "outputs": [],
      "stateMutability": "nonpayable",
      "type": "function"
    },
    {
      "inputs": [
        {
          "internalType": "uint256",
          "name": "_insurancePoolFee",
          "type": "uint256"
        }
      ],
      "name": "setInsurancePoolFee",
      "outputs": [],
      "stateMutability": "nonpayable",
      "type": "function"
    },
    {
      "inputs": [
        {
          "internalType": "address",
          "name": "_stakingPool",
          "type": "address"
        }
      ],
      "name": "setStakingPool",
      "outputs": [],
      "stateMutability": "nonpayable",
      "type": "function"
    },
    {
      "inputs": [
        {
          "internalType": "uint256",
          "name": "_stakingPoolShareFee",
          "type": "uint256"
        }
      ],
      "name": "setStakingPoolShareFee",
      "outputs": [],
      "stateMutability": "nonpayable",
      "type": "function"
    },
    {
      "inputs": [
        {
          "internalType": "address",
          "name": "_strategist",
          "type": "address"
        }
      ],
      "name": "setStrategist",
      "outputs": [],
      "stateMutability": "nonpayable",
      "type": "function"
    },
    {
      "inputs": [
        {
          "internalType": "address",
          "name": "_treasury",
          "type": "address"
        }
      ],
      "name": "setTreasury",
      "outputs": [],
      "stateMutability": "nonpayable",
      "type": "function"
    },
    {
      "inputs": [
        {
          "internalType": "uint256",
          "name": "_treasuryFee",
          "type": "uint256"
        }
      ],
      "name": "setTreasuryFee",
      "outputs": [],
      "stateMutability": "nonpayable",
      "type": "function"
    },
    {
      "inputs": [
        {
          "internalType": "uint256",
          "name": "_withdrawalProtectionFee",
          "type": "uint256"
        }
      ],
      "name": "setWithdrawalProtectionFee",
      "outputs": [],
      "stateMutability": "nonpayable",
      "type": "function"
    },
    {
      "inputs": [],
      "name": "stakingPool",
      "outputs": [
        {
          "internalType": "address",
          "name": "",
          "type": "address"
        }
      ],
      "stateMutability": "view",
      "type": "function"
    },
    {
      "inputs": [],
      "name": "stakingPoolShareFee",
      "outputs": [
        {
          "internalType": "uint256",
          "name": "",
          "type": "uint256"
        }
      ],
      "stateMutability": "view",
      "type": "function"
    },
    {
      "inputs": [],
      "name": "strategist",
      "outputs": [
        {
          "internalType": "address",
          "name": "",
          "type": "address"
        }
      ],
      "stateMutability": "view",
      "type": "function"
    },
    {
      "inputs": [
        {
          "internalType": "address",
          "name": "",
          "type": "address"
        },
        {
          "internalType": "uint256",
          "name": "",
          "type": "uint256"
        }
      ],
      "name": "tokens",
      "outputs": [
        {
          "internalType": "address",
          "name": "",
          "type": "address"
        }
      ],
      "stateMutability": "view",
      "type": "function"
    },
    {
      "inputs": [],
      "name": "treasury",
      "outputs": [
        {
          "internalType": "address",
          "name": "",
          "type": "address"
        }
      ],
      "stateMutability": "view",
      "type": "function"
    },
    {
      "inputs": [],
      "name": "treasuryFee",
      "outputs": [
        {
          "internalType": "uint256",
          "name": "",
          "type": "uint256"
        }
      ],
      "stateMutability": "view",
      "type": "function"
    },
    {
      "inputs": [
        {
          "internalType": "address",
          "name": "",
          "type": "address"
        }
      ],
      "name": "vaults",
      "outputs": [
        {
          "internalType": "address",
          "name": "",
          "type": "address"
        }
      ],
      "stateMutability": "view",
      "type": "function"
    },
    {
      "inputs": [],
      "name": "withdrawalProtectionFee",
      "outputs": [
        {
          "internalType": "uint256",
          "name": "",
          "type": "uint256"
        }
      ],
      "stateMutability": "view",
      "type": "function"
    },
    {
      "inputs": [],
      "name": "yaxis",
      "outputs": [
        {
          "internalType": "address",
          "name": "",
          "type": "address"
        }
      ],
      "stateMutability": "view",
      "type": "function"
    }
  ],
  "bytecode": "0x60a060405234801561001057600080fd5b50604051612abe380380612abe8339818101604052602081101561003357600080fd5b50516001600160a01b03811661007a576040805162461bcd60e51b8152602060048201526007602482015266215f796178697360c81b604482015290519081900360640190fd5b606081901b6001600160601b03191660805260008054610100600160a81b031916336101008102919091178255600480546001600160a01b03199081168317909155600180548216831790556006805490911690911790556107d06009556101f4600a908155600b556001600160a01b03909116906129b39061010b903980610ab1528061243c52506129b36000f3fe608060405234801561001057600080fd5b50600436106102a05760003560e01c806396d4370611610167578063c4c4f2ee116100ce578063da633d3111610087578063da633d31146107a0578063da8c229e146107d2578063e744092e146107f8578063e8d76bce1461081e578063f0f4426014610844578063f47c84c51461086a576102a0565b8063c4c4f2ee146106c3578063c7b9d530146106f1578063cc08c4cc14610717578063cc32d17614610734578063d04323c51461073c578063d2a3259f14610772576102a0565b8063ab2adc0011610120578063ab2adc001461067e578063b1c7d36f14610686578063b9b8af0b1461068e578063ba32681e14610696578063c3de0cc4146106b3578063c3f45387146106bb576102a0565b806396d43706146105ce5780639735b0e3146105d657806397c4fac714610604578063a622ee7c1461060c578063a94c487e14610632578063ab033ea914610658576102a0565b8063603dfcda1161020b5780637ae6c8d4116101c45780637ae6c8d4146105165780637b7d6c681461053c5780637d5c01551461056a5780638251390914610572578063836496741461057a5780638aaa2284146105a0576102a0565b8063603dfcda1461044f57806361d027b31461046c5780636aef220a146104745780636b0243bc146104ae5780636bbdc24b146104cb57806377e741c7146104f9576102a0565b806346821efa1161025d57806346821efa1461039d5780634abf825d146103b75780634bdaeac1146103e35780635476bd72146103eb5780635aa6e675146104195780635b301d4c14610421576102a0565b80630c56ae3b146102a557806315de1daa146102c95780631fe4a686146102f15780633028f63a146102f95780633f021b0e1461031f578063450efe2114610327575b600080fd5b6102ad610872565b604080516001600160a01b039092168252519081900360200190f35b6102ef600480360360208110156102df57600080fd5b50356001600160a01b0316610881565b005b6102ad6109eb565b6102ef6004803603602081101561030f57600080fd5b50356001600160a01b03166109fa565b6102ad610aaf565b61034d6004803603602081101561033d57600080fd5b50356001600160a01b0316610ad3565b60408051602080825283518183015283519192839290830191858101910280838360005b83811015610389578181015183820152602001610371565b505050509050019250505060405180910390f35b6103a5610b49565b60408051918252519081900360200190f35b6102ad600480360360408110156103cd57600080fd5b506001600160a01b038135169060200135610b4f565b6102ad610b84565b6102ef6004803603604081101561040157600080fd5b506001600160a01b0381358116916020013516610b93565b6102ad610e10565b6102ef6004803603604081101561043757600080fd5b506001600160a01b0381351690602001351515610e24565b6102ef6004803603602081101561046557600080fd5b5035610fcc565b6102ad6110bb565b61049a6004803603602081101561048a57600080fd5b50356001600160a01b03166110ca565b604080519115158252519081900360200190f35b6102ef600480360360208110156104c457600080fd5b50356110df565b6102ef600480360360408110156104e157600080fd5b506001600160a01b03813516906020013515156111cd565b6102ef6004803603602081101561050f57600080fd5b5035611375565b61049a6004803603602081101561052c57600080fd5b50356001600160a01b031661145c565b6102ef6004803603604081101561055257600080fd5b506001600160a01b0381358116916020013516611471565b6103a5611609565b6103a5611610565b61049a6004803603602081101561059057600080fd5b50356001600160a01b0316611616565b6102ef600480360360408110156105b657600080fd5b506001600160a01b038135169060200135151561162b565b6102ef61171e565b6102ef600480360360408110156105ec57600080fd5b506001600160a01b03813581169160200135166117e2565b6103a5611a0c565b6102ad6004803603602081101561062257600080fd5b50356001600160a01b0316611a12565b6102ef6004803603602081101561064857600080fd5b50356001600160a01b0316611a2d565b6102ef6004803603602081101561066e57600080fd5b50356001600160a01b0316611ae2565b6102ad611bc5565b6103a5611bd4565b61049a611bda565b6102ef600480360360208110156106ac57600080fd5b5035611be3565b6102ad611cc9565b6102ef611cd8565b6102ef600480360360408110156106d957600080fd5b506001600160a01b0381351690602001351515611e1e565b6102ef6004803603602081101561070757600080fd5b50356001600160a01b0316611fc6565b6102ef6004803603602081101561072d57600080fd5b50356120f0565b6103a56121df565b6102ef6004803603606081101561075257600080fd5b506001600160a01b038135811691602081013591604090910135166121e5565b6102ef6004803603604081101561078857600080fd5b506001600160a01b038135169060200135151561228c565b6107a8612434565b604080516001600160a01b0394851681529290931660208301528183015290519081900360600190f35b6102ad600480360360208110156107e857600080fd5b50356001600160a01b0316612469565b61049a6004803603602081101561080e57600080fd5b50356001600160a01b0316612484565b61049a6004803603602081101561083457600080fd5b50356001600160a01b0316612499565b6102ef6004803603602081101561085a57600080fd5b50356001600160a01b03166124ae565b6103a56125ab565b6003546001600160a01b031681565b60005460ff16156108c2576040805162461bcd60e51b81526020600482015260066024820152651a185b1d195960d21b604482015290519081900360640190fd5b60005461010090046001600160a01b03163314610914576040805162461bcd60e51b815260206004820152600b60248201526a21676f7665726e616e636560a81b604482015290519081900360640190fd5b306001600160a01b0316816001600160a01b031663481c6a756040518163ffffffff1660e01b815260040160206040518083038186803b15801561095757600080fd5b505afa15801561096b573d6000803e3d6000fd5b505050506040513d602081101561098157600080fd5b50516001600160a01b0316146109c9576040805162461bcd60e51b815260206004820152600860248201526710b6b0b730b3b2b960c11b604482015290519081900360640190fd5b600180546001600160a01b0319166001600160a01b0392909216919091179055565b6004546001600160a01b031681565b60005460ff1615610a3b576040805162461bcd60e51b81526020600482015260066024820152651a185b1d195960d21b604482015290519081900360640190fd5b60005461010090046001600160a01b03163314610a8d576040805162461bcd60e51b815260206004820152600b60248201526a21676f7665726e616e636560a81b604482015290519081900360640190fd5b600380546001600160a01b0319166001600160a01b0392909216919091179055565b7f000000000000000000000000000000000000000000000000000000000000000081565b6001600160a01b038116600090815260136020908152604091829020805483518184028101840190945280845260609392830182828015610b3d57602002820191906000526020600020905b81546001600160a01b03168152600190910190602001808311610b1f575b50505050509050919050565b60085481565b60136020528160005260406000208181548110610b6857fe5b6000918252602090912001546001600160a01b03169150829050565b6001546001600160a01b031681565b60005460ff1615610bd4576040805162461bcd60e51b81526020600482015260066024820152651a185b1d195960d21b604482015290519081900360640190fd5b6004546001600160a01b03163314610c21576040805162461bcd60e51b815260206004820152600b60248201526a085cdd1c985d1959da5cdd60aa1b604482015290519081900360640190fd5b6001600160a01b03811660009081526010602052604090205460ff16610c7f576040805162461bcd60e51b815260206004820152600e60248201526d21616c6c6f776564546f6b656e7360901b604482015290519081900360640190fd5b6001600160a01b03821660009081526011602052604090205460ff16610cdd576040805162461bcd60e51b815260206004820152600e60248201526d21616c6c6f7765645661756c747360901b604482015290519081900360640190fd5b6001600160a01b03821660009081526013602052604090205461010011610d35576040805162461bcd60e51b81526020600482015260076024820152663e746f6b656e7360c81b604482015290519081900360640190fd5b6001600160a01b038181166000908152601460205260409020541615610d8c576040805162461bcd60e51b815260206004820152600760248201526610afba37b5b2b760c91b604482015290519081900360640190fd5b6001600160a01b03808216600081815260146020908152604080832080549588166001600160a01b031996871681179091558084526013835281842080546001810182559085529284209092018054909516841790945592519192917fdffbd9ded1c09446f09377de547142dcce7dc541c8b0b028142b1eba7026b9e79190a35050565b60005461010090046001600160a01b031681565b60005460ff1615610e65576040805162461bcd60e51b81526020600482015260066024820152651a185b1d195960d21b604482015290519081900360640190fd5b60005461010090046001600160a01b03163314610eb7576040805162461bcd60e51b815260206004820152600b60248201526a21676f7665726e616e636560a81b604482015290519081900360640190fd5b306001600160a01b0316826001600160a01b031663481c6a756040518163ffffffff1660e01b815260040160206040518083038186803b158015610efa57600080fd5b505afa158015610f0e573d6000803e3d6000fd5b505050506040513d6020811015610f2457600080fd5b50516001600160a01b031614610f6c576040805162461bcd60e51b815260206004820152600860248201526710b6b0b730b3b2b960c11b604482015290519081900360640190fd5b6001600160a01b0382166000818152600e6020908152604091829020805460ff1916851515908117909155825190815291517f1da9d4667c5bcfd6db52e9fa66b3bf5e3a0bb5cd3e198216853056d08a84a25e9281900390910190a25050565b60005460ff161561100d576040805162461bcd60e51b81526020600482015260066024820152651a185b1d195960d21b604482015290519081900360640190fd5b60005461010090046001600160a01b0316331461105f576040805162461bcd60e51b815260206004820152600b60248201526a21676f7665726e616e636560a81b604482015290519081900360640190fd5b6113888111156110b6576040805162461bcd60e51b815260206004820152601d60248201527f5f7374616b696e67506f6f6c5368617265466565206f76657220353025000000604482015290519081900360640190fd5b600955565b6006546001600160a01b031681565b600d6020526000908152604090205460ff1681565b60005460ff1615611120576040805162461bcd60e51b81526020600482015260066024820152651a185b1d195960d21b604482015290519081900360640190fd5b60005461010090046001600160a01b03163314611172576040805162461bcd60e51b815260206004820152600b60248201526a21676f7665726e616e636560a81b604482015290519081900360640190fd5b60648111156111c8576040805162461bcd60e51b815260206004820181905260248201527f5f7769746864726177616c50726f74656374696f6e466565206f766572203125604482015290519081900360640190fd5b600b55565b60005460ff161561120e576040805162461bcd60e51b81526020600482015260066024820152651a185b1d195960d21b604482015290519081900360640190fd5b60005461010090046001600160a01b03163314611260576040805162461bcd60e51b815260206004820152600b60248201526a21676f7665726e616e636560a81b604482015290519081900360640190fd5b306001600160a01b0316826001600160a01b031663481c6a756040518163ffffffff1660e01b815260040160206040518083038186803b1580156112a357600080fd5b505afa1580156112b7573d6000803e3d6000fd5b505050506040513d60208110156112cd57600080fd5b50516001600160a01b031614611315576040805162461bcd60e51b815260206004820152600860248201526710b6b0b730b3b2b960c11b604482015290519081900360640190fd5b6001600160a01b038216600081815260116020908152604091829020805460ff1916851515908117909155825190815291517f782feb3c2ff233492ea8302a5109cb6f33fcdedaf15f4d4a7e847f3ec06c53829281900390910190a25050565b60005460ff16156113b6576040805162461bcd60e51b81526020600482015260066024820152651a185b1d195960d21b604482015290519081900360640190fd5b60005461010090046001600160a01b03163314611408576040805162461bcd60e51b815260206004820152600b60248201526a21676f7665726e616e636560a81b604482015290519081900360640190fd5b6107d0811115611457576040805162461bcd60e51b81526020600482015260156024820152745f7472656173757279466565206f7665722032302560581b604482015290519081900360640190fd5b600a55565b600f6020526000908152604090205460ff1681565b60005460ff16156114b2576040805162461bcd60e51b81526020600482015260066024820152651a185b1d195960d21b604482015290519081900360640190fd5b6004546001600160a01b031633146114ff576040805162461bcd60e51b815260206004820152600b60248201526a085cdd1c985d1959da5cdd60aa1b604482015290519081900360640190fd5b6001600160a01b03821660009081526011602052604090205460ff16611556576040805162461bcd60e51b81526020600482015260076024820152660857dd985d5b1d60ca1b604482015290519081900360640190fd5b6001600160a01b0381166000908152600d602052604090205460ff166115b2576040805162461bcd60e51b815260206004820152600c60248201526b10afb1b7b73a3937b63632b960a11b604482015290519081900360640190fd5b6001600160a01b0382811660008181526012602052604080822080546001600160a01b0319169486169485179055517f9fdb07212c6f92fd298affc4000712177664bc3c4cae5f61098d42da6d05be1e9190a35050565b62093a8081565b600b5481565b600e6020526000908152604090205460ff1681565b60005460ff161561166c576040805162461bcd60e51b81526020600482015260066024820152651a185b1d195960d21b604482015290519081900360640190fd5b60005461010090046001600160a01b031633146116be576040805162461bcd60e51b815260206004820152600b60248201526a21676f7665726e616e636560a81b604482015290519081900360640190fd5b6001600160a01b038216600081815260106020908152604091829020805460ff1916851515908117909155825190815291517f6bd3e0eb1458bd31e582b2c39532ad85abdb9839088714daa4c6bba0717da00f9281900390910190a25050565b60005460ff161561175f576040805162461bcd60e51b81526020600482015260066024820152651a185b1d195960d21b604482015290519081900360640190fd5b6004546001600160a01b031633146117ac576040805162461bcd60e51b815260206004820152600b60248201526a085cdd1c985d1959da5cdd60aa1b604482015290519081900360640190fd5b6000805460ff191660011781556040517f1ee9080f6b55ca44ce58681c8162e6c1ac1c47e1da791a4a1c1ec6186d8af1f39190a1565b60005460ff1615611823576040805162461bcd60e51b81526020600482015260066024820152651a185b1d195960d21b604482015290519081900360640190fd5b6004546001600160a01b03163314611870576040805162461bcd60e51b815260206004820152600b60248201526a085cdd1c985d1959da5cdd60aa1b604482015290519081900360640190fd5b6001600160a01b0382166000908152601360205260408120549080805b838110156118ed576001600160a01b038681166000908152601360205260409020805491871691839081106118be57fe5b6000918252602090912001546001600160a01b031614156118e557809250600191506118ed565b60010161188d565b508015611a05576001600160a01b03851660009081526013602052604090208054600019850190811061191c57fe5b60009182526020808320909101546001600160a01b0388811684526013909252604090922080549190921691908490811061195357fe5b600091825260208083209190910180546001600160a01b0319166001600160a01b03948516179055918716815260139091526040902080548061199257fe5b60008281526020808220830160001990810180546001600160a01b031990811690915593019093556001600160a01b038781168083526014909452604080832080549094169093559151918816917fbbe55b1ff108e23e5ff1a6f5d36946eec15ec0ca0ded2bfed4cdcf697ca904609190a35b5050505050565b60075481565b6014602052600090815260409020546001600160a01b031681565b60005460ff1615611a6e576040805162461bcd60e51b81526020600482015260066024820152651a185b1d195960d21b604482015290519081900360640190fd5b60005461010090046001600160a01b03163314611ac0576040805162461bcd60e51b815260206004820152600b60248201526a21676f7665726e616e636560a81b604482015290519081900360640190fd5b600280546001600160a01b0319166001600160a01b0392909216919091179055565b60005460ff1615611b23576040805162461bcd60e51b81526020600482015260066024820152651a185b1d195960d21b604482015290519081900360640190fd5b60005461010090046001600160a01b03163314611b75576040805162461bcd60e51b815260206004820152600b60248201526a21676f7665726e616e636560a81b604482015290519081900360640190fd5b60008054610100600160a81b0319166101006001600160a01b03841690810291909117825560405190917f24a8c4807b324a269a51827c3446b8ac1cc13810d7d0c0ca1efafabddd7b621991a250565b6002546001600160a01b031681565b60095481565b60005460ff1681565b60005460ff1615611c24576040805162461bcd60e51b81526020600482015260066024820152651a185b1d195960d21b604482015290519081900360640190fd5b60005461010090046001600160a01b03163314611c76576040805162461bcd60e51b815260206004820152600b60248201526a21676f7665726e616e636560a81b604482015290519081900360640190fd5b6064811115611cc4576040805162461bcd60e51b81526020600482015260156024820152745f696e737572616e6365466565206f76657220312560581b604482015290519081900360640190fd5b600755565b6005546001600160a01b031681565b60005460ff1615611d19576040805162461bcd60e51b81526020600482015260066024820152651a185b1d195960d21b604482015290519081900360640190fd5b6005546001600160a01b03163314611d6d576040805162461bcd60e51b8152602060048201526012602482015271085c195b991a5b99d4dd1c985d1959da5cdd60721b604482015290519081900360640190fd5b600c54611d7d9062093a806125b1565b4211611dd0576040805162461bcd60e51b815260206004820152601b60248201527f50454e44494e475f535452415445474953545f54494d454c4f434b0000000000604482015290519081900360640190fd5b600580546001600160a01b03199081169091556000600c81905560048054339316831790556040517f46d58e3fa07bf19b1d27240f0e286b27e9f7c1b0d88933333fe833b60eec54129190a2565b60005460ff1615611e5f576040805162461bcd60e51b81526020600482015260066024820152651a185b1d195960d21b604482015290519081900360640190fd5b60005461010090046001600160a01b03163314611eb1576040805162461bcd60e51b815260206004820152600b60248201526a21676f7665726e616e636560a81b604482015290519081900360640190fd5b306001600160a01b0316826001600160a01b031663481c6a756040518163ffffffff1660e01b815260040160206040518083038186803b158015611ef457600080fd5b505afa158015611f08573d6000803e3d6000fd5b505050506040513d6020811015611f1e57600080fd5b50516001600160a01b031614611f66576040805162461bcd60e51b815260206004820152600860248201526710b6b0b730b3b2b960c11b604482015290519081900360640190fd5b6001600160a01b0382166000818152600f6020908152604091829020805460ff1916851515908117909155825190815291517f7dc60e546dd3412c6abd1e15894f1e79359a5d19a26dff0554649831f8ebfc499281900390910190a25050565b60005460ff1615612007576040805162461bcd60e51b81526020600482015260066024820152651a185b1d195960d21b604482015290519081900360640190fd5b60005461010090046001600160a01b03163314612059576040805162461bcd60e51b815260206004820152600b60248201526a21676f7665726e616e636560a81b604482015290519081900360640190fd5b6001600160a01b0381166120a3576040805162461bcd60e51b815260206004820152600c60248201526b0857dcdd1c985d1959da5cdd60a21b604482015290519081900360640190fd5b600580546001600160a01b0319166001600160a01b03831690811790915542600c556040517e82dcc415a21035ab1e9de07c5fb8f8e351e148774f21288b1f1ad81992b0a690600090a250565b60005460ff1615612131576040805162461bcd60e51b81526020600482015260066024820152651a185b1d195960d21b604482015290519081900360640190fd5b60005461010090046001600160a01b03163314612183576040805162461bcd60e51b815260206004820152600b60248201526a21676f7665726e616e636560a81b604482015290519081900360640190fd5b6107d08111156121da576040805162461bcd60e51b815260206004820152601a60248201527f5f696e737572616e6365506f6f6c466565206f76657220323025000000000000604482015290519081900360640190fd5b600855565b600a5481565b60005460ff1615612226576040805162461bcd60e51b81526020600482015260066024820152651a185b1d195960d21b604482015290519081900360640190fd5b6004546001600160a01b03163314612273576040805162461bcd60e51b815260206004820152600b60248201526a085cdd1c985d1959da5cdd60aa1b604482015290519081900360640190fd5b6122876001600160a01b0384168284612612565b505050565b60005460ff16156122cd576040805162461bcd60e51b81526020600482015260066024820152651a185b1d195960d21b604482015290519081900360640190fd5b60005461010090046001600160a01b0316331461231f576040805162461bcd60e51b815260206004820152600b60248201526a21676f7665726e616e636560a81b604482015290519081900360640190fd5b306001600160a01b0316826001600160a01b031663481c6a756040518163ffffffff1660e01b815260040160206040518083038186803b15801561236257600080fd5b505afa158015612376573d6000803e3d6000fd5b505050506040513d602081101561238c57600080fd5b50516001600160a01b0316146123d4576040805162461bcd60e51b815260206004820152600860248201526710b6b0b730b3b2b960c11b604482015290519081900360640190fd5b6001600160a01b0382166000818152600d6020908152604091829020805460ff1916851515908117909155825190815291517f301f7fe22cf850fe662189cc6dca0701b83a64a254b04eb21a3c1ef4118dd3eb9281900390910190a25050565b600654600a547f0000000000000000000000000000000000000000000000000000000000000000916001600160a01b03169192565b6012602052600090815260409020546001600160a01b031681565b60106020526000908152604090205460ff1681565b60116020526000908152604090205460ff1681565b60005460ff16156124ef576040805162461bcd60e51b81526020600482015260066024820152651a185b1d195960d21b604482015290519081900360640190fd5b60005461010090046001600160a01b03163314612541576040805162461bcd60e51b815260206004820152600b60248201526a21676f7665726e616e636560a81b604482015290519081900360640190fd5b6001600160a01b038116612589576040805162461bcd60e51b815260206004820152600a602482015269215f747265617375727960b01b604482015290519081900360640190fd5b600680546001600160a01b0319166001600160a01b0392909216919091179055565b61010081565b60008282018381101561260b576040805162461bcd60e51b815260206004820152601b60248201527f536166654d6174683a206164646974696f6e206f766572666c6f770000000000604482015290519081900360640190fd5b9392505050565b604080516001600160a01b038416602482015260448082018490528251808303909101815260649091019091526020810180516001600160e01b031663a9059cbb60e01b17905261228790849060606126b4826040518060400160405280602081526020017f5361666545524332303a206c6f772d6c6576656c2063616c6c206661696c6564815250856001600160a01b03166127109092919063ffffffff16565b805190915015612287578080602001905160208110156126d357600080fd5b50516122875760405162461bcd60e51b815260040180806020018281038252602a815260200180612954602a913960400191505060405180910390fd5b606061271f8484600085612727565b949350505050565b6060824710156127685760405162461bcd60e51b815260040180806020018281038252602681526020018061292e6026913960400191505060405180910390fd5b61277185612883565b6127c2576040805162461bcd60e51b815260206004820152601d60248201527f416464726573733a2063616c6c20746f206e6f6e2d636f6e7472616374000000604482015290519081900360640190fd5b60006060866001600160a01b031685876040518082805190602001908083835b602083106128015780518252601f1990920191602091820191016127e2565b6001836020036101000a03801982511681845116808217855250505050505090500191505060006040518083038185875af1925050503d8060008114612863576040519150601f19603f3d011682016040523d82523d6000602084013e612868565b606091505b5091509150612878828286612889565b979650505050505050565b3b151590565b6060831561289857508161260b565b8251156128a85782518084602001fd5b8160405162461bcd60e51b81526004018080602001828103825283818151815260200191508051906020019080838360005b838110156128f25781810151838201526020016128da565b50505050905090810190601f16801561291f5780820380516001836020036101000a031916815260200191505b509250505060405180910390fdfe416464726573733a20696e73756666696369656e742062616c616e636520666f722063616c6c5361666545524332303a204552433230206f7065726174696f6e20646964206e6f742073756363656564a26469706673582212208b5dc1a69b7cadacbea7c5b2dc084f05f1ce7504800be09bc5c23851d61cf2cb64736f6c634300060c0033",
  "linkReferences": {},
  "deployedLinkReferences": {}
}