{
  "_format": "hh-sol-artifact-1",
  "contractName": "YearnVaultGovernance",
  "sourceName": "contracts/YearnVaultGovernance.sol",
  "abi": [
    {
      "inputs": [
        {
          "components": [
            {
              "internalType": "contract IProtocolGovernance",
              "name": "protocolGovernance",
              "type": "address"
            },
            {
              "internalType": "contract IVaultRegistry",
              "name": "registry",
              "type": "address"
            }
          ],
          "internalType": "struct IVaultGovernance.InternalParams",
          "name": "internalParams_",
          "type": "tuple"
        },
        {
          "components": [
            {
              "internalType": "contract IYearnVaultRegistry",
              "name": "yearnVaultRegistry",
              "type": "address"
            }
          ],
          "internalType": "struct IYearnVaultGovernance.DelayedProtocolParams",
          "name": "delayedProtocolParams_",
          "type": "tuple"
        }
      ],
      "stateMutability": "nonpayable",
      "type": "constructor"
    },
    {
      "anonymous": false,
      "inputs": [
        {
          "indexed": true,
          "internalType": "address",
          "name": "origin",
          "type": "address"
        },
        {
          "indexed": true,
          "internalType": "address",
          "name": "sender",
          "type": "address"
        },
        {
          "components": [
            {
              "internalType": "contract IYearnVaultRegistry",
              "name": "yearnVaultRegistry",
              "type": "address"
            }
          ],
          "indexed": false,
          "internalType": "struct IYearnVaultGovernance.DelayedProtocolParams",
          "name": "params",
          "type": "tuple"
        }
      ],
      "name": "CommitDelayedProtocolParams",
      "type": "event"
    },
    {
      "anonymous": false,
      "inputs": [
        {
          "indexed": true,
          "internalType": "address",
          "name": "origin",
          "type": "address"
        },
        {
          "indexed": true,
          "internalType": "address",
          "name": "sender",
          "type": "address"
        },
        {
          "components": [
            {
              "internalType": "contract IProtocolGovernance",
              "name": "protocolGovernance",
              "type": "address"
            },
            {
              "internalType": "contract IVaultRegistry",
              "name": "registry",
              "type": "address"
            }
          ],
          "indexed": false,
          "internalType": "struct IVaultGovernance.InternalParams",
          "name": "params",
          "type": "tuple"
        }
      ],
      "name": "CommitedInternalParams",
      "type": "event"
    },
    {
      "anonymous": false,
      "inputs": [
        {
          "indexed": true,
          "internalType": "address",
          "name": "origin",
          "type": "address"
        },
        {
          "indexed": true,
          "internalType": "address",
          "name": "sender",
          "type": "address"
        },
        {
          "indexed": false,
          "internalType": "address[]",
          "name": "vaultTokens",
          "type": "address[]"
        },
        {
          "indexed": false,
          "internalType": "bytes",
          "name": "options",
          "type": "bytes"
        },
        {
          "indexed": false,
          "internalType": "address",
          "name": "owner",
          "type": "address"
        },
        {
          "indexed": false,
          "internalType": "address",
          "name": "vaultAddress",
          "type": "address"
        },
        {
          "indexed": false,
          "internalType": "uint256",
          "name": "vaultNft",
          "type": "uint256"
        }
      ],
      "name": "DeployedVault",
      "type": "event"
    },
    {
      "anonymous": false,
      "inputs": [
        {
          "indexed": true,
          "internalType": "address",
          "name": "origin",
          "type": "address"
        },
        {
          "indexed": true,
          "internalType": "address",
          "name": "sender",
          "type": "address"
        },
        {
          "indexed": true,
          "internalType": "address",
          "name": "token",
          "type": "address"
        },
        {
          "indexed": false,
          "internalType": "address",
          "name": "yToken",
          "type": "address"
        }
      ],
      "name": "SetYToken",
      "type": "event"
    },
    {
      "anonymous": false,
      "inputs": [
        {
          "indexed": true,
          "internalType": "address",
          "name": "origin",
          "type": "address"
        },
        {
          "indexed": true,
          "internalType": "address",
          "name": "sender",
          "type": "address"
        },
        {
          "components": [
            {
              "internalType": "contract IYearnVaultRegistry",
              "name": "yearnVaultRegistry",
              "type": "address"
            }
          ],
          "indexed": false,
          "internalType": "struct IYearnVaultGovernance.DelayedProtocolParams",
          "name": "params",
          "type": "tuple"
        },
        {
          "indexed": false,
          "internalType": "uint256",
          "name": "when",
          "type": "uint256"
        }
      ],
      "name": "StageDelayedProtocolParams",
      "type": "event"
    },
    {
      "anonymous": false,
      "inputs": [
        {
          "indexed": true,
          "internalType": "address",
          "name": "origin",
          "type": "address"
        },
        {
          "indexed": true,
          "internalType": "address",
          "name": "sender",
          "type": "address"
        },
        {
          "components": [
            {
              "internalType": "contract IProtocolGovernance",
              "name": "protocolGovernance",
              "type": "address"
            },
            {
              "internalType": "contract IVaultRegistry",
              "name": "registry",
              "type": "address"
            }
          ],
          "indexed": false,
          "internalType": "struct IVaultGovernance.InternalParams",
          "name": "params",
          "type": "tuple"
        },
        {
          "indexed": false,
          "internalType": "uint256",
          "name": "when",
          "type": "uint256"
        }
      ],
      "name": "StagedInternalParams",
      "type": "event"
    },
    {
      "inputs": [],
      "name": "commitDelayedProtocolParams",
      "outputs": [],
      "stateMutability": "nonpayable",
      "type": "function"
    },
    {
      "inputs": [],
      "name": "commitInternalParams",
      "outputs": [],
      "stateMutability": "nonpayable",
      "type": "function"
    },
    {
      "inputs": [],
      "name": "delayedProtocolParams",
      "outputs": [
        {
          "components": [
            {
              "internalType": "contract IYearnVaultRegistry",
              "name": "yearnVaultRegistry",
              "type": "address"
            }
          ],
          "internalType": "struct IYearnVaultGovernance.DelayedProtocolParams",
          "name": "",
          "type": "tuple"
        }
      ],
      "stateMutability": "view",
      "type": "function"
    },
    {
      "inputs": [],
      "name": "delayedProtocolParamsTimestamp",
      "outputs": [
        {
          "internalType": "uint256",
          "name": "",
          "type": "uint256"
        }
      ],
      "stateMutability": "view",
      "type": "function"
    },
    {
      "inputs": [
        {
          "internalType": "uint256",
          "name": "nft",
          "type": "uint256"
        }
      ],
      "name": "delayedProtocolPerVaultParamsTimestamp",
      "outputs": [
        {
          "internalType": "uint256",
          "name": "",
          "type": "uint256"
        }
      ],
      "stateMutability": "view",
      "type": "function"
    },
    {
      "inputs": [
        {
          "internalType": "uint256",
          "name": "nft",
          "type": "uint256"
        }
      ],
      "name": "delayedStrategyParamsTimestamp",
      "outputs": [
        {
          "internalType": "uint256",
          "name": "",
          "type": "uint256"
        }
      ],
      "stateMutability": "view",
      "type": "function"
    },
    {
      "inputs": [
        {
          "internalType": "address[]",
          "name": "vaultTokens",
          "type": "address[]"
        },
        {
          "internalType": "bytes",
          "name": "options",
          "type": "bytes"
        },
        {
          "internalType": "address",
          "name": "owner",
          "type": "address"
        }
      ],
      "name": "deployVault",
      "outputs": [
        {
          "internalType": "contract IVault",
          "name": "vault",
          "type": "address"
        },
        {
          "internalType": "uint256",
          "name": "nft",
          "type": "uint256"
        }
      ],
      "stateMutability": "nonpayable",
      "type": "function"
    },
    {
      "inputs": [],
      "name": "factory",
      "outputs": [
        {
          "internalType": "contract IVaultFactory",
          "name": "",
          "type": "address"
        }
      ],
      "stateMutability": "view",
      "type": "function"
    },
    {
      "inputs": [
        {
          "internalType": "contract IVaultFactory",
          "name": "factory_",
          "type": "address"
        }
      ],
      "name": "initialize",
      "outputs": [],
      "stateMutability": "nonpayable",
      "type": "function"
    },
    {
      "inputs": [],
      "name": "initialized",
      "outputs": [
        {
          "internalType": "bool",
          "name": "",
          "type": "bool"
        }
      ],
      "stateMutability": "view",
      "type": "function"
    },
    {
      "inputs": [],
      "name": "internalParams",
      "outputs": [
        {
          "components": [
            {
              "internalType": "contract IProtocolGovernance",
              "name": "protocolGovernance",
              "type": "address"
            },
            {
              "internalType": "contract IVaultRegistry",
              "name": "registry",
              "type": "address"
            }
          ],
          "internalType": "struct IVaultGovernance.InternalParams",
          "name": "",
          "type": "tuple"
        }
      ],
      "stateMutability": "view",
      "type": "function"
    },
    {
      "inputs": [],
      "name": "internalParamsTimestamp",
      "outputs": [
        {
          "internalType": "uint256",
          "name": "",
          "type": "uint256"
        }
      ],
      "stateMutability": "view",
      "type": "function"
    },
    {
      "inputs": [
        {
          "internalType": "address",
          "name": "token",
          "type": "address"
        },
        {
          "internalType": "address",
          "name": "yToken",
          "type": "address"
        }
      ],
      "name": "setYTokenForToken",
      "outputs": [],
      "stateMutability": "nonpayable",
      "type": "function"
    },
    {
      "inputs": [
        {
          "components": [
            {
              "internalType": "contract IYearnVaultRegistry",
              "name": "yearnVaultRegistry",
              "type": "address"
            }
          ],
          "internalType": "struct IYearnVaultGovernance.DelayedProtocolParams",
          "name": "params",
          "type": "tuple"
        }
      ],
      "name": "stageDelayedProtocolParams",
      "outputs": [],
      "stateMutability": "nonpayable",
      "type": "function"
    },
    {
      "inputs": [
        {
          "components": [
            {
              "internalType": "contract IProtocolGovernance",
              "name": "protocolGovernance",
              "type": "address"
            },
            {
              "internalType": "contract IVaultRegistry",
              "name": "registry",
              "type": "address"
            }
          ],
          "internalType": "struct IVaultGovernance.InternalParams",
          "name": "newParams",
          "type": "tuple"
        }
      ],
      "name": "stageInternalParams",
      "outputs": [],
      "stateMutability": "nonpayable",
      "type": "function"
    },
    {
      "inputs": [],
      "name": "stagedDelayedProtocolParams",
      "outputs": [
        {
          "components": [
            {
              "internalType": "contract IYearnVaultRegistry",
              "name": "yearnVaultRegistry",
              "type": "address"
            }
          ],
          "internalType": "struct IYearnVaultGovernance.DelayedProtocolParams",
          "name": "",
          "type": "tuple"
        }
      ],
      "stateMutability": "view",
      "type": "function"
    },
    {
      "inputs": [],
      "name": "stagedInternalParams",
      "outputs": [
        {
          "components": [
            {
              "internalType": "contract IProtocolGovernance",
              "name": "protocolGovernance",
              "type": "address"
            },
            {
              "internalType": "contract IVaultRegistry",
              "name": "registry",
              "type": "address"
            }
          ],
          "internalType": "struct IVaultGovernance.InternalParams",
          "name": "",
          "type": "tuple"
        }
      ],
      "stateMutability": "view",
      "type": "function"
    },
    {
      "inputs": [
        {
          "internalType": "address",
          "name": "token",
          "type": "address"
        }
      ],
      "name": "yTokenForToken",
      "outputs": [
        {
          "internalType": "address",
          "name": "",
          "type": "address"
        }
      ],
      "stateMutability": "view",
      "type": "function"
    }
  ],
  "bytecode": "0x60806040523480156200001157600080fd5b506040516200187338038062001873833981016040819052620000349162000195565b8151600080546001600160a01b03199081166001600160a01b0393841617909155602080850151600180549093169084161790915560408051845190931683830152805180840383018152928101905281516200009692600b9201906200009f565b5050506200028e565b828054620000ad9062000251565b90600052602060002090601f016020900481019282620000d157600085556200011c565b82601f10620000ec57805160ff19168380011785556200011c565b828001600101855582156200011c579182015b828111156200011c578251825591602001919060010190620000ff565b506200012a9291506200012e565b5090565b5b808211156200012a57600081556001016200012f565b604051602081016001600160401b03811182821017156200017657634e487b7160e01b600052604160045260246000fd5b60405290565b6001600160a01b03811681146200019257600080fd5b50565b6000808284036060811215620001aa57600080fd5b6040811215620001b957600080fd5b604080519081016001600160401b0381118282101715620001ea57634e487b7160e01b600052604160045260246000fd5b6040528451620001fa816200017c565b815260208501516200020c816200017c565b602082810191909152909350603f19820112156200022957600080fd5b506200023462000145565b604084015162000244816200017c565b8152919491935090915050565b600181811c908216806200026657607f821691505b602082108114156200028857634e487b7160e01b600052602260045260246000fd5b50919050565b6115d5806200029e6000396000f3fe608060405234801561001057600080fd5b50600436106101165760003560e01c8063b32c12d8116100a2578063d34cc38011610071578063d34cc380146102b2578063d4a07d34146102ba578063e4af6e79146102c2578063f50506ab146102ca578063fc7a8117146102fc57600080fd5b8063b32c12d814610259578063c2cbdc671461026c578063c45a01551461028c578063c4d66de81461029f57600080fd5b80636707acee116100e95780636707acee146101a157806376acd782146101c15780637ac46fbb146101d657806386c6be3e1461021857806398347a5d1461025157600080fd5b8063158ef93e1461011b5780631c7f4c7314610144578063511ce7981461015657806356c9ff9a14610176575b600080fd5b60105461012f90600160a01b900460ff1681565b60405190151581526020015b60405180910390f35b6004545b60405190815260200161013b565b61014861016436600461100d565b6000908152600a602052604090205490565b61018961018436600461104b565b61030f565b6040516001600160a01b03909116815260200161013b565b6101486101af36600461100d565b60009081526007602052604090205490565b6101d46101cf36600461106f565b6103ff565b005b604080518082018252600080825260209182018190528251808401909352546001600160a01b03908116835260015416908201525b60405161013b91906110a8565b604080518082018252600080825260209182015281518083019092526002546001600160a01b039081168352600354169082015261020b565b6101d4610472565b6101d46102673660046110d2565b61056b565b6102746105d6565b60405190516001600160a01b0316815260200161013b565b601054610189906001600160a01b031681565b6101d46102ad36600461104b565b6106b0565b610274610728565b6101d4610744565b600d54610148565b6102dd6102d83660046111a1565b610843565b604080516001600160a01b03909316835260208301919091520161013b565b6101d461030a366004611285565b610b80565b6001600160a01b0380821660009081526011602052604081205490911680156103385792915050565b6000610342610728565b51604051630e177dc760e41b81526001600160a01b0386811660048301529192509082169063e177dc709060240160206040518083038186803b15801561038857600080fd5b505afa9250505080156103b8575060408051601f3d908101601f191682019092526103b5918101906112e4565b60015b6103f7573d8080156103e6576040519150601f19603f3d011682016040523d82523d6000602084013e6103eb565b606091505b50600095945050505050565b949350505050565b610407610c73565b6001600160a01b0382811660008181526011602090815260409182902080546001600160a01b031916948616948517905590519283529091339132917fd1ed798313b9cf761ada33e274b1ac263028477049b674602f8ffbeb22abe5ac910160405180910390a45050565b61047a610d2b565b336001600160a01b0316326001600160a01b03167fd0bd0864aed00de35801c29364a347e4a81f620231a4f13dc3ada2bddff7dfc1600b80546104bc90611301565b80601f01602080910402602001604051908101604052809291908181526020018280546104e890611301565b80156105355780601f1061050a57610100808354040283529160200191610535565b820191906000526020600020905b81548152906001019060200180831161051857829003601f168201915b505050505080602001905181019061054d9190611336565b60405190516001600160a01b031681526020015b60405180910390a3565b6105938160405160200161057f9190611382565b604051602081830303815290604052610de4565b600d54604051339132917f56b6c947728bda5a1251d4300168d688a46ddb97148c0e3f0034f2776418c275916105cb918691906113a2565b60405180910390a350565b604080516020810190915260008152600c80546105f290611301565b1515905061060d575060408051602081019091526000815290565b600c805461061a90611301565b80601f016020809104026020016040519081016040528092919081815260200182805461064690611301565b80156106935780601f1061066857610100808354040283529160200191610693565b820191906000526020600020905b81548152906001019060200180831161067657829003601f168201915b50505050508060200190518101906106ab9190611336565b905090565b6010546040805180820190915260048152631253925560e21b602082015290600160a01b900460ff16156107005760405162461bcd60e51b81526004016106f79190611417565b60405180910390fd5b50601080546001600160a81b0319166001600160a01b0390921691909117600160a01b179055565b604080516020810190915260008152600b805461061a90611301565b61074c610c73565b600060045411604051806040016040528060048152602001631395531360e21b8152509061078d5760405162461bcd60e51b81526004016106f79190611417565b5060045442101560405180604001604052806002815260200161545360f01b815250906107cd5760405162461bcd60e51b81526004016106f79190611417565b50600254600080546001600160a01b039283166001600160a01b031991821681178355600354600180549190951692168217909355600491909155604080519283526020830191909152339132917f1e35451923245ee6ebcfa4eaa530093af09bcf5278d751ff4b9897ca024d02b49101610561565b6010546040805180820190915260048152631253925560e21b6020820152600091829190600160a01b900460ff1661088e5760405162461bcd60e51b81526004016106f79190611417565b506000546040805163a1256f9f60e01b815290516001600160a01b0390921691829163a1256f9f916004808301926020929190829003018186803b1580156108d557600080fd5b505afa1580156108e9573d6000803e3d6000fd5b505050506040513d601f19601f8201168201806040525081019061090d919061142a565b8061098a5750604051630935e01b60e21b81523360048201526001600160a01b038216906324d7806c9060240160206040518083038186803b15801561095257600080fd5b505afa158015610966573d6000803e3d6000fd5b505050506040513d601f19601f8201168201806040525081019061098a919061142a565b60405180604001604052806003815260200162504f4160e81b815250906109c45760405162461bcd60e51b81526004016106f79190611417565b50601054604051636e1e2ffd60e01b81526001600160a01b0390911690636e1e2ffd906109f79089908990600401611490565b602060405180830381600087803b158015610a1157600080fd5b505af1158015610a25573d6000803e3d6000fd5b505050506040513d601f19601f82011682018060405250810190610a4991906112e4565b6001546040516305c4fdf960e01b81526001600160a01b03808416600483015280881660248301529295508692909116906305c4fdf990604401602060405180830381600087803b158015610a9d57600080fd5b505af1158015610ab1573d6000803e3d6000fd5b505050506040513d601f19601f82011682018060405250810190610ad591906114be565b60405163fe4b84df60e01b8152600481018290529093506001600160a01b0385169063fe4b84df90602401600060405180830381600087803b158015610b1a57600080fd5b505af1158015610b2e573d6000803e3d6000fd5b50506040513392503291507f8a4513c05d15df8ece912856923273e166e39f5c9c2b43d2b38594023494a0e090610b6e908b908b9087908b908b906114d7565b60405180910390a35050935093915050565b610b88610c73565b8051600280546001600160a01b03199081166001600160a01b039384161790915560208084015160038054909316908416179091556000546040805163bba3293960e01b81529051919093169263bba32939926004808301939192829003018186803b158015610bf757600080fd5b505afa158015610c0b573d6000803e3d6000fd5b505050506040513d601f19601f82011682018060405250810190610c2f91906114be565b610c399042611537565b6004819055604051339132917f4b5caddc4df608f00754b735b313f6450a3c994df1519ef40bdd5cd315206e71916105cb9186919061154f565b600054604051630935e01b60e21b81523360048201526001600160a01b03909116906324d7806c9060240160206040518083038186803b158015610cb657600080fd5b505afa158015610cca573d6000803e3d6000fd5b505050506040513d601f19601f82011682018060405250810190610cee919061142a565b6040518060400160405280600381526020016241444d60e81b81525090610d285760405162461bcd60e51b81526004016106f79190611417565b50565b610d33610c73565b6000600d5411604051806040016040528060048152602001631395531360e21b81525090610d745760405162461bcd60e51b81526004016106f79190611417565b50600d5442101560405180604001604052806002815260200161545360f01b81525090610db45760405162461bcd60e51b81526004016106f79190611417565b50600c600b908054610dc590611301565b610dd0929190610ebf565b50610ddd600c6000610f4a565b6000600d55565b610dec610c73565b6000600b8054610dfb90611301565b159050610e09576001610e0c565b60005b60ff16905081600c9080519060200190610e27929190610f84565b506000546040805163bba3293960e01b8152905183926001600160a01b03169163bba32939916004808301926020929190829003018186803b158015610e6c57600080fd5b505afa158015610e80573d6000803e3d6000fd5b505050506040513d601f19601f82011682018060405250810190610ea491906114be565b610eae9190611580565b610eb89042611537565b600d555050565b828054610ecb90611301565b90600052602060002090601f016020900481019282610eed5760008555610f3a565b82601f10610efe5780548555610f3a565b82800160010185558215610f3a57600052602060002091601f016020900482015b82811115610f3a578254825591600101919060010190610f1f565b50610f46929150610ff8565b5090565b508054610f5690611301565b6000825580601f10610f66575050565b601f016020900490600052602060002090810190610d289190610ff8565b828054610f9090611301565b90600052602060002090601f016020900481019282610fb25760008555610f3a565b82601f10610fcb57805160ff1916838001178555610f3a565b82800160010185558215610f3a579182015b82811115610f3a578251825591602001919060010190610fdd565b5b80821115610f465760008155600101610ff9565b60006020828403121561101f57600080fd5b5035919050565b6001600160a01b0381168114610d2857600080fd5b803561104681611026565b919050565b60006020828403121561105d57600080fd5b813561106881611026565b9392505050565b6000806040838503121561108257600080fd5b823561108d81611026565b9150602083013561109d81611026565b809150509250929050565b604081016110cc828480516001600160a01b03908116835260209182015116910152565b92915050565b6000602082840312156110e457600080fd5b50919050565b634e487b7160e01b600052604160045260246000fd5b604051601f8201601f1916810167ffffffffffffffff81118282101715611129576111296110ea565b604052919050565b600082601f83011261114257600080fd5b813567ffffffffffffffff81111561115c5761115c6110ea565b61116f601f8201601f1916602001611100565b81815284602083860101111561118457600080fd5b816020850160208301376000918101602001919091529392505050565b6000806000606084860312156111b657600080fd5b833567ffffffffffffffff808211156111ce57600080fd5b818601915086601f8301126111e257600080fd5b81356020828211156111f6576111f66110ea565b8160051b611205828201611100565b928352848101820192828101908b85111561121f57600080fd5b958301955b84871015611249578635925061123983611026565b8282529583019590830190611224565b985050508701359250508082111561126057600080fd5b5061126d86828701611131565b92505061127c6040850161103b565b90509250925092565b60006040828403121561129757600080fd5b6040516040810181811067ffffffffffffffff821117156112ba576112ba6110ea565b60405282356112c881611026565b815260208301356112d881611026565b60208201529392505050565b6000602082840312156112f657600080fd5b815161106881611026565b600181811c9082168061131557607f821691505b602082108114156110e457634e487b7160e01b600052602260045260246000fd5b60006020828403121561134857600080fd5b6040516020810181811067ffffffffffffffff8211171561136b5761136b6110ea565b604052825161137981611026565b81529392505050565b60208101823561139181611026565b6001600160a01b0316909152919050565b6040810183356113b181611026565b6001600160a01b03168252602090910191909152919050565b6000815180845260005b818110156113f0576020818501810151868301820152016113d4565b81811115611402576000602083870101525b50601f01601f19169290920160200192915050565b60208152600061106860208301846113ca565b60006020828403121561143c57600080fd5b8151801515811461106857600080fd5b600081518084526020808501945080840160005b838110156114855781516001600160a01b031687529582019590820190600101611460565b509495945050505050565b6040815260006114a3604083018561144c565b82810360208401526114b581856113ca565b95945050505050565b6000602082840312156114d057600080fd5b5051919050565b60a0815260006114ea60a083018861144c565b82810360208401526114fc81886113ca565b6001600160a01b03968716604085015294909516606083015250608001529392505050565b634e487b7160e01b600052601160045260246000fd5b6000821982111561154a5761154a611521565b500190565b60608101611573828580516001600160a01b03908116835260209182015116910152565b8260408301529392505050565b600081600019048311821515161561159a5761159a611521565b50029056fea2646970667358221220abd40b284faf9d1a8aac6f83bc1c17f55df1a71adfb8e0b7b77afc3aacb88cfb64736f6c63430008090033",
  "linkReferences": {},
  "deployedLinkReferences": {}
}