{
  "_format": "hh-sol-artifact-1",
  "contractName": "MixinLockCore",
  "sourceName": "contracts/mixins/MixinLockCore.sol",
  "abi": [
    {
      "anonymous": false,
      "inputs": [
        {
          "indexed": true,
          "internalType": "address",
          "name": "owner",
          "type": "address"
        },
        {
          "indexed": true,
          "internalType": "address",
          "name": "approved",
          "type": "address"
        },
        {
          "indexed": true,
          "internalType": "uint256",
          "name": "tokenId",
          "type": "uint256"
        }
      ],
      "name": "Approval",
      "type": "event"
    },
    {
      "anonymous": false,
      "inputs": [
        {
          "indexed": true,
          "internalType": "address",
          "name": "owner",
          "type": "address"
        },
        {
          "indexed": true,
          "internalType": "address",
          "name": "operator",
          "type": "address"
        },
        {
          "indexed": false,
          "internalType": "bool",
          "name": "approved",
          "type": "bool"
        }
      ],
      "name": "ApprovalForAll",
      "type": "event"
    },
    {
      "anonymous": false,
      "inputs": [],
      "name": "Disable",
      "type": "event"
    },
    {
      "anonymous": false,
      "inputs": [
        {
          "indexed": true,
          "internalType": "address",
          "name": "account",
          "type": "address"
        }
      ],
      "name": "KeyGranterAdded",
      "type": "event"
    },
    {
      "anonymous": false,
      "inputs": [
        {
          "indexed": true,
          "internalType": "address",
          "name": "account",
          "type": "address"
        }
      ],
      "name": "KeyGranterRemoved",
      "type": "event"
    },
    {
      "anonymous": false,
      "inputs": [
        {
          "indexed": true,
          "internalType": "address",
          "name": "account",
          "type": "address"
        }
      ],
      "name": "LockManagerAdded",
      "type": "event"
    },
    {
      "anonymous": false,
      "inputs": [
        {
          "indexed": true,
          "internalType": "address",
          "name": "account",
          "type": "address"
        }
      ],
      "name": "LockManagerRemoved",
      "type": "event"
    },
    {
      "anonymous": false,
      "inputs": [
        {
          "indexed": false,
          "internalType": "uint256",
          "name": "oldKeyPrice",
          "type": "uint256"
        },
        {
          "indexed": false,
          "internalType": "uint256",
          "name": "keyPrice",
          "type": "uint256"
        },
        {
          "indexed": false,
          "internalType": "address",
          "name": "oldTokenAddress",
          "type": "address"
        },
        {
          "indexed": false,
          "internalType": "address",
          "name": "tokenAddress",
          "type": "address"
        }
      ],
      "name": "PricingChanged",
      "type": "event"
    },
    {
      "anonymous": false,
      "inputs": [
        {
          "indexed": true,
          "internalType": "bytes32",
          "name": "role",
          "type": "bytes32"
        },
        {
          "indexed": true,
          "internalType": "bytes32",
          "name": "previousAdminRole",
          "type": "bytes32"
        },
        {
          "indexed": true,
          "internalType": "bytes32",
          "name": "newAdminRole",
          "type": "bytes32"
        }
      ],
      "name": "RoleAdminChanged",
      "type": "event"
    },
    {
      "anonymous": false,
      "inputs": [
        {
          "indexed": true,
          "internalType": "bytes32",
          "name": "role",
          "type": "bytes32"
        },
        {
          "indexed": true,
          "internalType": "address",
          "name": "account",
          "type": "address"
        },
        {
          "indexed": true,
          "internalType": "address",
          "name": "sender",
          "type": "address"
        }
      ],
      "name": "RoleGranted",
      "type": "event"
    },
    {
      "anonymous": false,
      "inputs": [
        {
          "indexed": true,
          "internalType": "bytes32",
          "name": "role",
          "type": "bytes32"
        },
        {
          "indexed": true,
          "internalType": "address",
          "name": "account",
          "type": "address"
        },
        {
          "indexed": true,
          "internalType": "address",
          "name": "sender",
          "type": "address"
        }
      ],
      "name": "RoleRevoked",
      "type": "event"
    },
    {
      "anonymous": false,
      "inputs": [
        {
          "indexed": true,
          "internalType": "address",
          "name": "from",
          "type": "address"
        },
        {
          "indexed": true,
          "internalType": "address",
          "name": "to",
          "type": "address"
        },
        {
          "indexed": true,
          "internalType": "uint256",
          "name": "tokenId",
          "type": "uint256"
        }
      ],
      "name": "Transfer",
      "type": "event"
    },
    {
      "anonymous": false,
      "inputs": [
        {
          "indexed": true,
          "internalType": "address",
          "name": "sender",
          "type": "address"
        },
        {
          "indexed": true,
          "internalType": "address",
          "name": "tokenAddress",
          "type": "address"
        },
        {
          "indexed": true,
          "internalType": "address",
          "name": "beneficiary",
          "type": "address"
        },
        {
          "indexed": false,
          "internalType": "uint256",
          "name": "amount",
          "type": "uint256"
        }
      ],
      "name": "Withdrawal",
      "type": "event"
    },
    {
      "inputs": [],
      "name": "DEFAULT_ADMIN_ROLE",
      "outputs": [
        {
          "internalType": "bytes32",
          "name": "",
          "type": "bytes32"
        }
      ],
      "stateMutability": "view",
      "type": "function"
    },
    {
      "inputs": [],
      "name": "KEY_GRANTER_ROLE",
      "outputs": [
        {
          "internalType": "bytes32",
          "name": "",
          "type": "bytes32"
        }
      ],
      "stateMutability": "view",
      "type": "function"
    },
    {
      "inputs": [],
      "name": "LOCK_MANAGER_ROLE",
      "outputs": [
        {
          "internalType": "bytes32",
          "name": "",
          "type": "bytes32"
        }
      ],
      "stateMutability": "view",
      "type": "function"
    },
    {
      "inputs": [
        {
          "internalType": "address",
          "name": "account",
          "type": "address"
        }
      ],
      "name": "addKeyGranter",
      "outputs": [],
      "stateMutability": "nonpayable",
      "type": "function"
    },
    {
      "inputs": [
        {
          "internalType": "address",
          "name": "account",
          "type": "address"
        }
      ],
      "name": "addLockManager",
      "outputs": [],
      "stateMutability": "nonpayable",
      "type": "function"
    },
    {
      "inputs": [
        {
          "internalType": "address",
          "name": "_spender",
          "type": "address"
        },
        {
          "internalType": "uint256",
          "name": "_amount",
          "type": "uint256"
        }
      ],
      "name": "approveBeneficiary",
      "outputs": [
        {
          "internalType": "bool",
          "name": "",
          "type": "bool"
        }
      ],
      "stateMutability": "nonpayable",
      "type": "function"
    },
    {
      "inputs": [],
      "name": "beneficiary",
      "outputs": [
        {
          "internalType": "address payable",
          "name": "",
          "type": "address"
        }
      ],
      "stateMutability": "view",
      "type": "function"
    },
    {
      "inputs": [],
      "name": "disableLock",
      "outputs": [],
      "stateMutability": "nonpayable",
      "type": "function"
    },
    {
      "inputs": [],
      "name": "expirationDuration",
      "outputs": [
        {
          "internalType": "uint256",
          "name": "",
          "type": "uint256"
        }
      ],
      "stateMutability": "view",
      "type": "function"
    },
    {
      "inputs": [
        {
          "internalType": "bytes32",
          "name": "role",
          "type": "bytes32"
        }
      ],
      "name": "getRoleAdmin",
      "outputs": [
        {
          "internalType": "bytes32",
          "name": "",
          "type": "bytes32"
        }
      ],
      "stateMutability": "view",
      "type": "function"
    },
    {
      "inputs": [
        {
          "internalType": "bytes32",
          "name": "role",
          "type": "bytes32"
        },
        {
          "internalType": "address",
          "name": "account",
          "type": "address"
        }
      ],
      "name": "grantRole",
      "outputs": [],
      "stateMutability": "nonpayable",
      "type": "function"
    },
    {
      "inputs": [
        {
          "internalType": "bytes32",
          "name": "role",
          "type": "bytes32"
        },
        {
          "internalType": "address",
          "name": "account",
          "type": "address"
        }
      ],
      "name": "hasRole",
      "outputs": [
        {
          "internalType": "bool",
          "name": "",
          "type": "bool"
        }
      ],
      "stateMutability": "view",
      "type": "function"
    },
    {
      "inputs": [],
      "name": "isAlive",
      "outputs": [
        {
          "internalType": "bool",
          "name": "",
          "type": "bool"
        }
      ],
      "stateMutability": "view",
      "type": "function"
    },
    {
      "inputs": [
        {
          "internalType": "address",
          "name": "account",
          "type": "address"
        }
      ],
      "name": "isKeyGranter",
      "outputs": [
        {
          "internalType": "bool",
          "name": "",
          "type": "bool"
        }
      ],
      "stateMutability": "view",
      "type": "function"
    },
    {
      "inputs": [
        {
          "internalType": "address",
          "name": "account",
          "type": "address"
        }
      ],
      "name": "isLockManager",
      "outputs": [
        {
          "internalType": "bool",
          "name": "",
          "type": "bool"
        }
      ],
      "stateMutability": "view",
      "type": "function"
    },
    {
      "inputs": [],
      "name": "keyPrice",
      "outputs": [
        {
          "internalType": "uint256",
          "name": "",
          "type": "uint256"
        }
      ],
      "stateMutability": "view",
      "type": "function"
    },
    {
      "inputs": [],
      "name": "maxNumberOfKeys",
      "outputs": [
        {
          "internalType": "uint256",
          "name": "",
          "type": "uint256"
        }
      ],
      "stateMutability": "view",
      "type": "function"
    },
    {
      "inputs": [],
      "name": "onKeyCancelHook",
      "outputs": [
        {
          "internalType": "contract ILockKeyCancelHook",
          "name": "",
          "type": "address"
        }
      ],
      "stateMutability": "view",
      "type": "function"
    },
    {
      "inputs": [],
      "name": "onKeyPurchaseHook",
      "outputs": [
        {
          "internalType": "contract ILockKeyPurchaseHook",
          "name": "",
          "type": "address"
        }
      ],
      "stateMutability": "view",
      "type": "function"
    },
    {
      "inputs": [],
      "name": "publicLockVersion",
      "outputs": [
        {
          "internalType": "uint16",
          "name": "",
          "type": "uint16"
        }
      ],
      "stateMutability": "pure",
      "type": "function"
    },
    {
      "inputs": [],
      "name": "renounceLockManager",
      "outputs": [],
      "stateMutability": "nonpayable",
      "type": "function"
    },
    {
      "inputs": [
        {
          "internalType": "bytes32",
          "name": "role",
          "type": "bytes32"
        },
        {
          "internalType": "address",
          "name": "account",
          "type": "address"
        }
      ],
      "name": "renounceRole",
      "outputs": [],
      "stateMutability": "nonpayable",
      "type": "function"
    },
    {
      "inputs": [
        {
          "internalType": "address",
          "name": "_granter",
          "type": "address"
        }
      ],
      "name": "revokeKeyGranter",
      "outputs": [],
      "stateMutability": "nonpayable",
      "type": "function"
    },
    {
      "inputs": [
        {
          "internalType": "bytes32",
          "name": "role",
          "type": "bytes32"
        },
        {
          "internalType": "address",
          "name": "account",
          "type": "address"
        }
      ],
      "name": "revokeRole",
      "outputs": [],
      "stateMutability": "nonpayable",
      "type": "function"
    },
    {
      "inputs": [
        {
          "internalType": "address",
          "name": "_onKeyPurchaseHook",
          "type": "address"
        },
        {
          "internalType": "address",
          "name": "_onKeyCancelHook",
          "type": "address"
        }
      ],
      "name": "setEventHooks",
      "outputs": [],
      "stateMutability": "nonpayable",
      "type": "function"
    },
    {
      "inputs": [
        {
          "internalType": "bytes4",
          "name": "interfaceId",
          "type": "bytes4"
        }
      ],
      "name": "supportsInterface",
      "outputs": [
        {
          "internalType": "bool",
          "name": "",
          "type": "bool"
        }
      ],
      "stateMutability": "view",
      "type": "function"
    },
    {
      "inputs": [],
      "name": "tokenAddress",
      "outputs": [
        {
          "internalType": "address",
          "name": "",
          "type": "address"
        }
      ],
      "stateMutability": "view",
      "type": "function"
    },
    {
      "inputs": [],
      "name": "totalSupply",
      "outputs": [
        {
          "internalType": "uint256",
          "name": "",
          "type": "uint256"
        }
      ],
      "stateMutability": "view",
      "type": "function"
    },
    {
      "inputs": [],
      "name": "unlockProtocol",
      "outputs": [
        {
          "internalType": "contract IUnlock",
          "name": "",
          "type": "address"
        }
      ],
      "stateMutability": "view",
      "type": "function"
    },
    {
      "inputs": [
        {
          "internalType": "address payable",
          "name": "_beneficiary",
          "type": "address"
        }
      ],
      "name": "updateBeneficiary",
      "outputs": [],
      "stateMutability": "nonpayable",
      "type": "function"
    },
    {
      "inputs": [
        {
          "internalType": "uint256",
          "name": "_keyPrice",
          "type": "uint256"
        },
        {
          "internalType": "address",
          "name": "_tokenAddress",
          "type": "address"
        }
      ],
      "name": "updateKeyPricing",
      "outputs": [],
      "stateMutability": "nonpayable",
      "type": "function"
    },
    {
      "inputs": [
        {
          "internalType": "address",
          "name": "_tokenAddress",
          "type": "address"
        },
        {
          "internalType": "uint256",
          "name": "_amount",
          "type": "uint256"
        }
      ],
      "name": "withdraw",
      "outputs": [],
      "stateMutability": "nonpayable",
      "type": "function"
    }
  ],
  "bytecode": "0x608060405234801561001057600080fd5b50611927806100206000396000f3fe608060405234801561001057600080fd5b50600436106101f05760003560e01c8063564aa99d1161010f578063ad0e0a4d116100a2578063d250348511610071578063d250348514610418578063d547741f1461042b578063f0ba60401461043e578063f3fef3a31461044657600080fd5b8063ad0e0a4d146103db578063b585a6d5146103ee578063c1c98d0314610401578063d1bbd49c1461040957600080fd5b80639d76ea58116100de5780639d76ea581461039a578063a217fddf146103ad578063a2e4cd2e146103b5578063aae4b8f7146103c857600080fd5b8063564aa99d1461035657806374b6c106146103695780638ca2fbad1461037257806391d148541461038757600080fd5b8063248a9ca31161018757806336568abe1161015657806336568abe1461030957806338af3eed1461031c5780634136aa351461032f57806352b0f6381461034357600080fd5b8063248a9ca3146102ad5780632af9162a146102d05780632d33dd5b146102e35780632f2ff15d146102f657600080fd5b806311a4c03a116101c357806311a4c03a1461027457806318160ddd1461027d578063217751bc14610285578063231005091461029857600080fd5b806301ffc9a7146101f55780630aaffd2a1461021d5780630f15023b1461023257806310e569731461025d575b600080fd5b6102086102033660046116b0565b610459565b60405190151581526020015b60405180910390f35b61023061022b3660046115d5565b610490565b005b609854610245906001600160a01b031681565b6040516001600160a01b039091168152602001610214565b610266609a5481565b604051908152602001610214565b61026660995481565b609c54610266565b609f54610245906001600160a01b031681565b6102666000805160206118b283398151915281565b6102666102bb366004611674565b60009081526065602052604090206001015490565b6102306102de3660046115d5565b610568565b609e54610245906001600160a01b031681565b61023061030436600461168c565b6105eb565b61023061031736600461168c565b610616565b609d54610245906001600160a01b031681565b60975461020890600160a01b900460ff1681565b6102086103513660046115d5565b610694565b6102306103643660046115d5565b6106ae565b610266609b5481565b6102666000805160206118d283398151915281565b61020861039536600461168c565b610731565b609754610245906001600160a01b031681565b610266600081565b6102306103c336600461168c565b61075c565b6102086103d63660046115d5565b610918565b6102306103e93660046115f1565b610932565b6102086103fc366004611629565b610a6a565b610230610b63565b60405160098152602001610214565b6102306104263660046115d5565b610c1a565b61023061043936600461168c565b610c9d565b610230610cc3565b610230610454366004611629565b610d08565b60006001600160e01b03198216637965db0b60e01b148061048a57506301ffc9a760e01b6001600160e01b03198316145b92915050565b609d546001600160a01b03163314806104ad57506104ad33610918565b6104fe5760405162461bcd60e51b815260206004820152601f60248201527f4f4e4c595f42454e45464943494152595f4f525f4c4f434b4d414e414745520060448201526064015b60405180910390fd5b6001600160a01b0381166105465760405162461bcd60e51b815260206004820152600f60248201526e494e56414c49445f4144445245535360881b60448201526064016104f5565b609d80546001600160a01b0319166001600160a01b0392909216919091179055565b6105806000805160206118d283398151915233610731565b61059c5760405162461bcd60e51b81526004016104f5906117b4565b6105b46000805160206118b283398151915282610c9d565b6040516001600160a01b038216907f766f6199fea59554b9ff688e413302b9200f85d74811c053c12d945ac6d8dd7a90600090a250565b6000828152606560205260409020600101546106078133610ec8565b6106118383610f2c565b505050565b6001600160a01b03811633146106865760405162461bcd60e51b815260206004820152602f60248201527f416363657373436f6e74726f6c3a2063616e206f6e6c792072656e6f756e636560448201526e103937b632b9903337b91039b2b63360891b60648201526084016104f5565b6106908282610fb2565b5050565b600061048a6000805160206118b283398151915283610731565b6106c66000805160206118d283398151915233610731565b6106e25760405162461bcd60e51b81526004016104f5906117b4565b6106fa6000805160206118b2833981519152826105eb565b6040516001600160a01b038216907f684f8a71407db0c334454ebe9c9b288549317893a20b10dc779ec5c118dcd12190600090a250565b60009182526065602090815260408084206001600160a01b0393909316845291905290205460ff1690565b6107746000805160206118d283398151915233610731565b6107905760405162461bcd60e51b81526004016104f5906117b4565b609754600160a01b900460ff166107db5760405162461bcd60e51b815260206004820152600f60248201526e1313d0d2d7d11154149150d0551151608a1b60448201526064016104f5565b609a546097546001600160a01b03908116908316158061086b57506000836001600160a01b03166318160ddd6040518163ffffffff1660e01b815260040160206040518083038186803b15801561083157600080fd5b505afa158015610845573d6000803e3d6000fd5b505050506040513d601f19601f8201168201806040525081019061086991906116d8565b115b6108a75760405162461bcd60e51b815260206004820152600d60248201526c24a72b20a624a22faa27a5a2a760991b60448201526064016104f5565b609a849055609780546001600160a01b0319166001600160a01b0385811691821790925560408051858152602081018890529284169083015260608201527f3615065ccf48367ac483ac86701248e2e5ff55bdd9be845007d34a3b68d719d49060800160405180910390a150505050565b600061048a6000805160206118d283398151915283610731565b61094a6000805160206118d283398151915233610731565b6109665760405162461bcd60e51b81526004016104f5906117b4565b6001600160a01b038216158061098557506001600160a01b0382163b15155b6109d15760405162461bcd60e51b815260206004820152601860248201527f494e56414c49445f4f4e5f4b45595f534f4c445f484f4f4b000000000000000060448201526064016104f5565b6001600160a01b03811615806109f057506001600160a01b0381163b15155b610a3c5760405162461bcd60e51b815260206004820152601a60248201527f494e56414c49445f4f4e5f4b45595f43414e43454c5f484f4f4b00000000000060448201526064016104f5565b609e80546001600160a01b039384166001600160a01b031991821617909155609f8054929093169116179055565b6000610a7533610918565b80610a8a5750609d546001600160a01b031633145b610ad65760405162461bcd60e51b815260206004820181905260248201527f4f4e4c595f4c4f434b5f4d414e414745525f4f525f42454e454649434941525960448201526064016104f5565b60975460405163095ea7b360e01b81526001600160a01b038581166004830152602482018590529091169063095ea7b390604401602060405180830381600087803b158015610b2457600080fd5b505af1158015610b38573d6000803e3d6000fd5b505050506040513d601f19601f82011682018060405250810190610b5c9190611654565b9392505050565b610b7b6000805160206118d283398151915233610731565b610b975760405162461bcd60e51b81526004016104f5906117b4565b609754600160a01b900460ff16610be25760405162461bcd60e51b815260206004820152600f60248201526e1313d0d2d7d11154149150d0551151608a1b60448201526064016104f5565b6040517f25a311358326fb18c62efc24bc28d3126acee8d2a67fd8b2145b757dc8bd1bc190600090a16097805460ff60a01b19169055565b610c326000805160206118d283398151915233610731565b610c4e5760405162461bcd60e51b81526004016104f5906117b4565b610c666000805160206118d2833981519152826105eb565b6040516001600160a01b038216907f91d5c045d5bd98bf59a379b259ebca05b93bf79af1845fdf87e3172385d4c7f790600090a250565b600082815260656020526040902060010154610cb98133610ec8565b6106118383610fb2565b610cdb6000805160206118d283398151915233610616565b60405133907f42885193b8178d25fca25a38e6fcc93918501e91be06d85e0c8afb3bad95238090600090a2565b610d1133610918565b80610d265750609d546001600160a01b031633145b610d725760405162461bcd60e51b815260206004820181905260248201527f4f4e4c595f4c4f434b5f4d414e414745525f4f525f42454e454649434941525960448201526064016104f5565b60006001600160a01b038316610d89575047610e03565b6040516370a0823160e01b81523060048201526001600160a01b038416906370a082319060240160206040518083038186803b158015610dc857600080fd5b505afa158015610ddc573d6000803e3d6000fd5b505050506040513d601f19601f82011682018060405250810190610e0091906116d8565b90505b6000821580610e1157508183115b15610e605760008211610e595760405162461bcd60e51b815260206004820152601060248201526f4e4f545f454e4f5547485f46554e445360801b60448201526064016104f5565b5080610e63565b50815b609d546040518281526001600160a01b039182169186169033907f342e7ff505a8a0364cd0dc2ff195c315e43bce86b204846ecd36913e117b109e9060200160405180910390a4609d54610ec29085906001600160a01b031683611019565b50505050565b610ed28282610731565b61069057610eea816001600160a01b03166014611055565b610ef5836020611055565b604051602001610f0692919061170c565b60408051601f198184030181529082905262461bcd60e51b82526104f591600401611781565b610f368282610731565b6106905760008281526065602090815260408083206001600160a01b03851684529091529020805460ff19166001179055610f6e3390565b6001600160a01b0316816001600160a01b0316837f2f8788117e7eff1d82e926ec794901d17c78024a50270940304540a733656f0d60405160405180910390a45050565b610fbc8282610731565b156106905760008281526065602090815260408083206001600160a01b0385168085529252808320805460ff1916905551339285917ff6391f5c32d9c69d2a47ea670b442974b53935d1edc7fd64eb21e047a839171b9190a45050565b8015610611576001600160a01b038316611040576106116001600160a01b03831682611237565b82610ec26001600160a01b0382168484611350565b60606000611064836002611821565b61106f906002611809565b67ffffffffffffffff81111561109557634e487b7160e01b600052604160045260246000fd5b6040519080825280601f01601f1916602001820160405280156110bf576020820181803683370190505b509050600360fc1b816000815181106110e857634e487b7160e01b600052603260045260246000fd5b60200101906001600160f81b031916908160001a905350600f60fb1b8160018151811061112557634e487b7160e01b600052603260045260246000fd5b60200101906001600160f81b031916908160001a9053506000611149846002611821565b611154906001611809565b90505b60018111156111e8576f181899199a1a9b1b9c1cb0b131b232b360811b85600f166010811061119657634e487b7160e01b600052603260045260246000fd5b1a60f81b8282815181106111ba57634e487b7160e01b600052603260045260246000fd5b60200101906001600160f81b031916908160001a90535060049490941c936111e18161186c565b9050611157565b508315610b5c5760405162461bcd60e51b815260206004820181905260248201527f537472696e67733a20686578206c656e67746820696e73756666696369656e7460448201526064016104f5565b804710156112875760405162461bcd60e51b815260206004820152601d60248201527f416464726573733a20696e73756666696369656e742062616c616e636500000060448201526064016104f5565b6000826001600160a01b03168260405160006040518083038185875af1925050503d80600081146112d4576040519150601f19603f3d011682016040523d82523d6000602084013e6112d9565b606091505b50509050806106115760405162461bcd60e51b815260206004820152603a60248201527f416464726573733a20756e61626c6520746f2073656e642076616c75652c207260448201527f6563697069656e74206d6179206861766520726576657274656400000000000060648201526084016104f5565b604080516001600160a01b03848116602483015260448083018590528351808403909101815260649092018352602080830180516001600160e01b031663a9059cbb60e01b17905283518085019094528084527f5361666545524332303a206c6f772d6c6576656c2063616c6c206661696c656490840152610611928692916000916113e091851690849061145d565b80519091501561061157808060200190518101906113fe9190611654565b6106115760405162461bcd60e51b815260206004820152602a60248201527f5361666545524332303a204552433230206f7065726174696f6e20646964206e6044820152691bdd081cdd58d8d9595960b21b60648201526084016104f5565b606061146c8484600085611474565b949350505050565b6060824710156114d55760405162461bcd60e51b815260206004820152602660248201527f416464726573733a20696e73756666696369656e742062616c616e636520666f6044820152651c8818d85b1b60d21b60648201526084016104f5565b843b6115235760405162461bcd60e51b815260206004820152601d60248201527f416464726573733a2063616c6c20746f206e6f6e2d636f6e747261637400000060448201526064016104f5565b600080866001600160a01b0316858760405161153f91906116f0565b60006040518083038185875af1925050503d806000811461157c576040519150601f19603f3d011682016040523d82523d6000602084013e611581565b606091505b509150915061159182828661159c565b979650505050505050565b606083156115ab575081610b5c565b8251156115bb5782518084602001fd5b8160405162461bcd60e51b81526004016104f59190611781565b6000602082840312156115e6578081fd5b8135610b5c81611899565b60008060408385031215611603578081fd5b823561160e81611899565b9150602083013561161e81611899565b809150509250929050565b6000806040838503121561163b578182fd5b823561164681611899565b946020939093013593505050565b600060208284031215611665578081fd5b81518015158114610b5c578182fd5b600060208284031215611685578081fd5b5035919050565b6000806040838503121561169e578182fd5b82359150602083013561161e81611899565b6000602082840312156116c1578081fd5b81356001600160e01b031981168114610b5c578182fd5b6000602082840312156116e9578081fd5b5051919050565b60008251611702818460208701611840565b9190910192915050565b7f416363657373436f6e74726f6c3a206163636f756e7420000000000000000000815260008351611744816017850160208801611840565b7001034b99036b4b9b9b4b733903937b6329607d1b6017918401918201528351611775816028840160208801611840565b01602801949350505050565b60208152600082518060208401526117a0816040850160208701611840565b601f01601f19169190910160400192915050565b60208082526035908201527f4d6978696e526f6c65733a2063616c6c657220646f6573206e6f74206861766560408201527420746865204c6f636b4d616e6167657220726f6c6560581b606082015260800190565b6000821982111561181c5761181c611883565b500190565b600081600019048311821515161561183b5761183b611883565b500290565b60005b8381101561185b578181015183820152602001611843565b83811115610ec25750506000910152565b60008161187b5761187b611883565b506000190190565b634e487b7160e01b600052601160045260246000fd5b6001600160a01b03811681146118ae57600080fd5b5056feb309c40027c81d382c3b58d8de24207a34b27e1db369b1434e4a11311f154b5eb89cdd26cddd51301940bf2715f765b626b8a5a9e2681ac62dc83cc2db2530c0a264697066735822122015dbee62f11653c2950d632a5a6fcbff8c74d2d9cadb1d5cb0ef3782b1e5d26d64736f6c63430008040033",
  "linkReferences": {},
  "deployedLinkReferences": {}
}