{
  "_format": "hh-sol-artifact-1",
  "contractName": "ERC20Vault",
  "sourceName": "contracts/ERC20Vault.sol",
  "abi": [
    {
      "inputs": [
        {
          "internalType": "contract IVaultGovernance",
          "name": "vaultGovernance_",
          "type": "address"
        },
        {
          "internalType": "address[]",
          "name": "vaultTokens_",
          "type": "address[]"
        }
      ],
      "stateMutability": "nonpayable",
      "type": "constructor"
    },
    {
      "anonymous": false,
      "inputs": [
        {
          "indexed": false,
          "internalType": "address",
          "name": "to",
          "type": "address"
        },
        {
          "indexed": false,
          "internalType": "uint256[]",
          "name": "tokenAmounts",
          "type": "uint256[]"
        }
      ],
      "name": "Pull",
      "type": "event"
    },
    {
      "anonymous": false,
      "inputs": [
        {
          "indexed": false,
          "internalType": "uint256[]",
          "name": "tokenAmounts",
          "type": "uint256[]"
        }
      ],
      "name": "Push",
      "type": "event"
    },
    {
      "anonymous": false,
      "inputs": [
        {
          "indexed": false,
          "internalType": "address",
          "name": "to",
          "type": "address"
        },
        {
          "indexed": false,
          "internalType": "address[]",
          "name": "tokens",
          "type": "address[]"
        },
        {
          "indexed": false,
          "internalType": "uint256[]",
          "name": "tokenAmounts",
          "type": "uint256[]"
        }
      ],
      "name": "ReclaimTokens",
      "type": "event"
    },
    {
      "inputs": [
        {
          "internalType": "address",
          "name": "from",
          "type": "address"
        },
        {
          "internalType": "bytes",
          "name": "data",
          "type": "bytes"
        }
      ],
      "name": "claimRewards",
      "outputs": [],
      "stateMutability": "nonpayable",
      "type": "function"
    },
    {
      "inputs": [
        {
          "internalType": "uint256",
          "name": "nft_",
          "type": "uint256"
        }
      ],
      "name": "initialize",
      "outputs": [],
      "stateMutability": "nonpayable",
      "type": "function"
    },
    {
      "inputs": [
        {
          "internalType": "address",
          "name": "token",
          "type": "address"
        }
      ],
      "name": "isVaultToken",
      "outputs": [
        {
          "internalType": "bool",
          "name": "",
          "type": "bool"
        }
      ],
      "stateMutability": "view",
      "type": "function"
    },
    {
      "inputs": [],
      "name": "nft",
      "outputs": [
        {
          "internalType": "uint256",
          "name": "",
          "type": "uint256"
        }
      ],
      "stateMutability": "view",
      "type": "function"
    },
    {
      "inputs": [
        {
          "internalType": "address",
          "name": "to",
          "type": "address"
        },
        {
          "internalType": "address[]",
          "name": "tokens",
          "type": "address[]"
        },
        {
          "internalType": "uint256[]",
          "name": "tokenAmounts",
          "type": "uint256[]"
        },
        {
          "internalType": "bytes",
          "name": "options",
          "type": "bytes"
        }
      ],
      "name": "pull",
      "outputs": [
        {
          "internalType": "uint256[]",
          "name": "actualTokenAmounts",
          "type": "uint256[]"
        }
      ],
      "stateMutability": "nonpayable",
      "type": "function"
    },
    {
      "inputs": [
        {
          "internalType": "address[]",
          "name": "tokens",
          "type": "address[]"
        },
        {
          "internalType": "uint256[]",
          "name": "tokenAmounts",
          "type": "uint256[]"
        },
        {
          "internalType": "bytes",
          "name": "options",
          "type": "bytes"
        }
      ],
      "name": "push",
      "outputs": [
        {
          "internalType": "uint256[]",
          "name": "actualTokenAmounts",
          "type": "uint256[]"
        }
      ],
      "stateMutability": "nonpayable",
      "type": "function"
    },
    {
      "inputs": [
        {
          "internalType": "address",
          "name": "to",
          "type": "address"
        },
        {
          "internalType": "address[]",
          "name": "tokens",
          "type": "address[]"
        }
      ],
      "name": "reclaimTokens",
      "outputs": [],
      "stateMutability": "nonpayable",
      "type": "function"
    },
    {
      "inputs": [
        {
          "internalType": "uint256",
          "name": "traderId",
          "type": "uint256"
        },
        {
          "internalType": "uint256",
          "name": "amount",
          "type": "uint256"
        },
        {
          "internalType": "address",
          "name": "",
          "type": "address"
        },
        {
          "components": [
            {
              "internalType": "address",
              "name": "token0",
              "type": "address"
            },
            {
              "internalType": "address",
              "name": "token1",
              "type": "address"
            },
            {
              "internalType": "bytes",
              "name": "options",
              "type": "bytes"
            }
          ],
          "internalType": "struct ITrader.PathItem[]",
          "name": "path",
          "type": "tuple[]"
        },
        {
          "internalType": "bytes",
          "name": "options",
          "type": "bytes"
        }
      ],
      "name": "swapExactInput",
      "outputs": [
        {
          "internalType": "uint256",
          "name": "amountOut",
          "type": "uint256"
        }
      ],
      "stateMutability": "nonpayable",
      "type": "function"
    },
    {
      "inputs": [
        {
          "internalType": "uint256",
          "name": "traderId",
          "type": "uint256"
        },
        {
          "internalType": "uint256",
          "name": "amount",
          "type": "uint256"
        },
        {
          "internalType": "address",
          "name": "",
          "type": "address"
        },
        {
          "components": [
            {
              "internalType": "address",
              "name": "token0",
              "type": "address"
            },
            {
              "internalType": "address",
              "name": "token1",
              "type": "address"
            },
            {
              "internalType": "bytes",
              "name": "options",
              "type": "bytes"
            }
          ],
          "internalType": "struct ITrader.PathItem[]",
          "name": "path",
          "type": "tuple[]"
        },
        {
          "internalType": "bytes",
          "name": "options",
          "type": "bytes"
        }
      ],
      "name": "swapExactOutput",
      "outputs": [
        {
          "internalType": "uint256",
          "name": "amountOut",
          "type": "uint256"
        }
      ],
      "stateMutability": "nonpayable",
      "type": "function"
    },
    {
      "inputs": [
        {
          "internalType": "address",
          "name": "from",
          "type": "address"
        },
        {
          "internalType": "address[]",
          "name": "tokens",
          "type": "address[]"
        },
        {
          "internalType": "uint256[]",
          "name": "tokenAmounts",
          "type": "uint256[]"
        },
        {
          "internalType": "bytes",
          "name": "options",
          "type": "bytes"
        }
      ],
      "name": "transferAndPush",
      "outputs": [
        {
          "internalType": "uint256[]",
          "name": "actualTokenAmounts",
          "type": "uint256[]"
        }
      ],
      "stateMutability": "nonpayable",
      "type": "function"
    },
    {
      "inputs": [],
      "name": "tvl",
      "outputs": [
        {
          "internalType": "uint256[]",
          "name": "tokenAmounts",
          "type": "uint256[]"
        }
      ],
      "stateMutability": "view",
      "type": "function"
    },
    {
      "inputs": [],
      "name": "vaultGovernance",
      "outputs": [
        {
          "internalType": "contract IVaultGovernance",
          "name": "",
          "type": "address"
        }
      ],
      "stateMutability": "view",
      "type": "function"
    },
    {
      "inputs": [],
      "name": "vaultTokens",
      "outputs": [
        {
          "internalType": "address[]",
          "name": "",
          "type": "address[]"
        }
      ],
      "stateMutability": "view",
      "type": "function"
    }
  ],
  "bytecode": "0x60806040523480156200001157600080fd5b5060405162003510380380620035108339810160408190526200003491620002bd565b8181600160008190555062000054816200014660201b6200172a1760201c565b6040518060400160405280600381526020016253415560e81b815250906200009a5760405162461bcd60e51b8152600401620000919190620003a8565b60405180910390fd5b50600180546001600160a01b0319166001600160a01b0384161790558051620000cb906002906020840190620001fb565b5060005b81518110156200013b57600160036000848481518110620000f457620000f462000400565b6020908102919091018101516001600160a01b03168252810191909152604001600020805460ff19169115159190911790558062000132816200042c565b915050620000cf565b50505050506200047f565b60006002825110156200015b57506001919050565b60005b600183516200016e91906200044a565b811015620001f257826200018482600162000464565b8151811062000197576200019762000400565b60200260200101516001600160a01b0316838281518110620001bd57620001bd62000400565b60200260200101516001600160a01b031610620001dd5750600092915050565b80620001e9816200042c565b9150506200015e565b50600192915050565b82805482825590600052602060002090810192821562000253579160200282015b828111156200025357825182546001600160a01b0319166001600160a01b039091161782556020909201916001909101906200021c565b506200026192915062000265565b5090565b5b8082111562000261576000815560010162000266565b6001600160a01b03811681146200029257600080fd5b50565b634e487b7160e01b600052604160045260246000fd5b8051620002b8816200027c565b919050565b60008060408385031215620002d157600080fd5b8251620002de816200027c565b602084810151919350906001600160401b0380821115620002fe57600080fd5b818601915086601f8301126200031357600080fd5b81518181111562000328576200032862000295565b8060051b604051601f19603f8301168101818110858211171562000350576200035062000295565b6040529182528482019250838101850191898311156200036f57600080fd5b938501935b8285101562000398576200038885620002ab565b8452938501939285019262000374565b8096505050505050509250929050565b600060208083528351808285015260005b81811015620003d757858101830151858201604001528201620003b9565b81811115620003ea576000604083870101525b50601f01601f1916929092016040019392505050565b634e487b7160e01b600052603260045260246000fd5b634e487b7160e01b600052601160045260246000fd5b600060001982141562000443576200044362000416565b5060010190565b6000828210156200045f576200045f62000416565b500390565b600082198211156200047a576200047a62000416565b500190565b613081806200048f6000396000f3fe608060405234801561001057600080fd5b50600436106100cf5760003560e01c8063671918af1161008c578063e5328e0611610066578063e5328e06146101c1578063e8216b89146101c9578063fe255a5e146101dc578063fe4b84df146101f757600080fd5b8063671918af146101865780636972223314610199578063b80757ad146101ae57600080fd5b806318b4d37f146100d45780632062d754146100e957806327a35e5a14610112578063338c4ccb1461012557806347ccca0214610161578063566ca6b414610173575b600080fd5b6100e76100e2366004612700565b61020a565b005b6100fc6100f7366004612841565b610452565b6040516101099190612916565b60405180910390f35b6100fc610120366004612841565b6106bf565b610151610133366004612929565b6001600160a01b031660009081526003602052604090205460ff1690565b6040519015158152602001610109565b6004545b604051908152602001610109565b6100fc610181366004612946565b610848565b610165610194366004612aaa565b610b54565b6101a1610deb565b6040516101099190612b6c565b6101656101bc366004612b7f565b610e4d565b6100fc61105c565b6100e76101d7366004612c3a565b6111d7565b6001546040516001600160a01b039091168152602001610109565b6100e7610205366004612c7f565b611581565b6102126117cf565b600060045411604051806040016040528060048152602001631253925560e21b8152509061025c5760405162461bcd60e51b81526004016102539190612cf0565b60405180910390fd5b5061026633611829565b60405180604001604052806002815260200161494f60f01b8152509061029f5760405162461bcd60e51b81526004016102539190612cf0565b5060015460408051637ac46fbb60e01b815281516000936001600160a01b031692637ac46fbb9260048082019391829003018186803b1580156102e157600080fd5b505afa1580156102f5573d6000803e3d6000fd5b505050506040513d601f19601f820116820180604052508101906103199190612d03565b5160405163884289e360e01b81526001600160a01b0385811660048301529192509082169063884289e39060240160206040518083038186803b15801561035f57600080fd5b505afa158015610373573d6000803e3d6000fd5b505050506040513d601f19601f820116820180604052508101906103979190612d61565b60405180604001604052806002815260200161414360f01b815250906103d05760405162461bcd60e51b81526004016102539190612cf0565b50600080846001600160a01b0316846040516103ec9190612d83565b6000604051808303816000865af19150503d8060008114610429576040519150601f19603f3d011682016040523d82523d6000602084013e61042e565b606091505b5091509150816104415780518082602001fd5b50505061044e6001600055565b5050565b606061045c6117cf565b61046533611829565b6104965760405162461bcd60e51b8152602060048201526002602482015261494f60f01b6044820152606401610253565b60015460408051637ac46fbb60e01b815281516000936001600160a01b031692637ac46fbb9260048082019391829003018186803b1580156104d757600080fd5b505afa1580156104eb573d6000803e3d6000fd5b505050506040513d601f19601f8201168201806040525081019061050f9190612d03565b60200151600480546040516331a9108f60e11b8152918201529091506000906001600160a01b03831690636352211e9060240160206040518083038186803b15801561055a57600080fd5b505afa15801561056e573d6000803e3d6000fd5b505050506040513d601f19601f820116820180604052508101906105929190612d9f565b90506001600160a01b0381163314806105af57506105af876119db565b60405180604001604052806005815260200164494e54524160d81b815250906105eb5760405162461bcd60e51b81526004016102539190612cf0565b5060006105f88787611ca9565b90506000610607898388611d92565b905061066e88600280548060200260200160405190810160405280929190818152602001828054801561066357602002820191906000526020600020905b81546001600160a01b03168152600190910190602001808311610645575b505050505083611e99565b94507f54f9e6ef58e36de62f59f9ee6c4b878af84989c53a3642eba415ac3ac4e11cda89866040516106a1929190612dbc565b60405180910390a1505050506106b76001600055565b949350505050565b606060005b84518110156107535760008482815181106106e1576106e1612de0565b6020026020010151111561074157610741863086848151811061070657610706612de0565b602002602001015188858151811061072057610720612de0565b60200260200101516001600160a01b03166120ba909392919063ffffffff16565b8061074b81612e0c565b9150506106c4565b5061075f848484610848565b905060005b845181101561083f57600084828151811061078157610781612de0565b602002602001015183838151811061079b5761079b612de0565b6020026020010151106107af5760006107ed565b8282815181106107c1576107c1612de0565b60200260200101518583815181106107db576107db612de0565b60200260200101516107ed9190612e27565b9050801561082c5761082c878288858151811061080c5761080c612de0565b60200260200101516001600160a01b031661212b9092919063ffffffff16565b508061083781612e0c565b915050610764565b50949350505050565b60606108526117cf565b6004805460408051808201909152918252631253925560e21b6020830152908161088f5760405162461bcd60e51b81526004016102539190612cf0565b5061089933611829565b60405180604001604052806002815260200161494f60f01b815250906108d25760405162461bcd60e51b81526004016102539190612cf0565b5060015460408051637ac46fbb60e01b815281516000936001600160a01b031692637ac46fbb9260048082019391829003018186803b15801561091457600080fd5b505afa158015610928573d6000803e3d6000fd5b505050506040513d601f19601f8201168201806040525081019061094c9190612d03565b602001516040516331a9108f60e11b8152600481018490529091506000906001600160a01b03831690636352211e9060240160206040518083038186803b15801561099657600080fd5b505afa1580156109aa573d6000803e3d6000fd5b505050506040513d601f19601f820116820180604052508101906109ce9190612d9f565b60405163fcdabd2760e01b81526001600160a01b03808316600483015291925060009184169063fcdabd279060240160206040518083038186803b158015610a1557600080fd5b505afa158015610a29573d6000803e3d6000fd5b505050506040513d601f19601f82011682018060405250810190610a4d9190612e3e565b9050600081116040518060400160405280600381526020016227abab60e91b81525090610a8d5760405162461bcd60e51b81526004016102539190612cf0565b506000610a9a8989611ca9565b90506000819050610b048a6002805480602002602001604051908101604052809291908181526020018280548015610663576020028201919060005260206000209081546001600160a01b0316815260019091019060200180831161064557505050505083611e99565b96507f08e404e978692dd1b8275016b7a7b0b3ae4afd06b0cec7228060bb2da18c84fd81604051610b359190612916565b60405180910390a1505050505050610b4d6001600055565b9392505050565b6000808351118015610bad5750610bad8360018551610b739190612e27565b81518110610b8357610b83612de0565b6020026020010151602001516001600160a01b031660009081526003602052604090205460ff1690565b60405180604001604052806002815260200161159560f21b81525090610be65760405162461bcd60e51b81526004016102539190612cf0565b50610bf033612160565b6040518060400160405280600281526020016114d560f21b81525090610c295760405162461bcd60e51b81526004016102539190612cf0565b50600154604080516301a6998760e71b815290516001600160a01b0390921691600091839163d34cc38091600480820192602092909190829003018186803b158015610c7457600080fd5b505afa158015610c88573d6000803e3d6000fd5b505050506040513d601f19601f82011682018060405250810190610cac9190612e57565b6000015190506000819050610d5786600081518110610ccd57610ccd612de0565b60209081029190910101515160405163bcfbd44560e01b8152600481018c90526001600160a01b0384169063bcfbd445906024015b60206040518083038186803b158015610d1a57600080fd5b505afa158015610d2e573d6000803e3d6000fd5b505050506040513d601f19601f82011682018060405250810190610d529190612d9f565b61226c565b60405163671918af60e01b81526001600160a01b0383169063671918af90610d8c908c908c906000908c908c90600401612f23565b602060405180830381600087803b158015610da657600080fd5b505af1158015610dba573d6000803e3d6000fd5b505050506040513d601f19601f82011682018060405250810190610dde9190612e3e565b9998505050505050505050565b60606002805480602002602001604051908101604052809291908181526020018280548015610e4357602002820191906000526020600020905b81546001600160a01b03168152600190910190602001808311610e25575b5050505050905090565b6000808451118015610e6c5750610e6c8460018651610b739190612e27565b60405180604001604052806002815260200161159560f21b81525090610ea55760405162461bcd60e51b81526004016102539190612cf0565b50610eaf33612160565b6040518060400160405280600281526020016114d560f21b81525090610ee85760405162461bcd60e51b81526004016102539190612cf0565b50600154604080516301a6998760e71b815290516001600160a01b0390921691600091839163d34cc38091600480820192602092909190829003018186803b158015610f3357600080fd5b505afa158015610f47573d6000803e3d6000fd5b505050506040513d601f19601f82011682018060405250810190610f6b9190612e57565b6000015190506000819050610fc587600081518110610f8c57610f8c612de0565b60209081029190910101515160405163bcfbd44560e01b8152600481018d90526001600160a01b0384169063bcfbd44590602401610d02565b60405163b80757ad60e01b81526001600160a01b0383169063b80757ad90610ffc908d908d906000908d908d908d90600401612f6e565b602060405180830381600087803b15801561101657600080fd5b505af115801561102a573d6000803e3d6000fd5b505050506040513d601f19601f8201168201806040525081019061104e9190612e3e565b9a9950505050505050505050565b6060600060028054806020026020016040519081016040528092919081815260200182805480156110b657602002820191906000526020600020905b81546001600160a01b03168152600190910190602001808311611098575b5050505050905080516001600160401b038111156110d6576110d6612623565b6040519080825280602002602001820160405280156110ff578160200160208202803683370190505b50915060005b81518110156111d25781818151811061112057611120612de0565b60209081029190910101516040516370a0823160e01b81523060048201526001600160a01b03909116906370a082319060240160206040518083038186803b15801561116b57600080fd5b505afa15801561117f573d6000803e3d6000fd5b505050506040513d601f19601f820116820180604052508101906111a39190612e3e565b8382815181106111b5576111b5612de0565b6020908102919091010152806111ca81612e0c565b915050611105565b505090565b6111df6117cf565b600060045411604051806040016040528060048152602001631253925560e21b815250906112205760405162461bcd60e51b81526004016102539190612cf0565b5060015460408051637ac46fbb60e01b815281516000936001600160a01b031692637ac46fbb9260048082019391829003018186803b15801561126257600080fd5b505afa158015611276573d6000803e3d6000fd5b505050506040513d601f19601f8201168201806040525081019061129a9190612d03565b51604051630935e01b60e21b81523360048201529091506000906001600160a01b038316906324d7806c9060240160206040518083038186803b1580156112e057600080fd5b505afa1580156112f4573d6000803e3d6000fd5b505050506040513d601f19601f820116820180604052508101906113189190612d61565b9050808061132a575061132a33611829565b6040518060400160405280600381526020016241444d60e81b815250906113645760405162461bcd60e51b81526004016102539190612cf0565b50806113b157611373846119db565b60405180604001604052806005815260200164494e54524160d81b815250906113af5760405162461bcd60e51b81526004016102539190612cf0565b505b600083516001600160401b038111156113cc576113cc612623565b6040519080825280602002602001820160405280156113f5578160200160208202803683370190505b50905060005b845181101561152e57600085828151811061141857611418612de0565b60209081029190910101516040516370a0823160e01b81523060048201529091506001600160a01b038216906370a082319060240160206040518083038186803b15801561146557600080fd5b505afa158015611479573d6000803e3d6000fd5b505050506040513d601f19601f8201168201806040525081019061149d9190612e3e565b8383815181106114af576114af612de0565b6020026020010181815250508282815181106114cd576114cd612de0565b6020026020010151600014156114e3575061151c565b61151a878484815181106114f9576114f9612de0565b6020026020010151836001600160a01b031661212b9092919063ffffffff16565b505b8061152681612e0c565b9150506113fb565b506115398585612381565b7f9efcb26e0cf572bd9171640e114f387cef91cd3e38532ed6b3f80c7f2e758f8785858360405161156c93929190612fd1565b60405180910390a150505061044e6001600055565b600154604080518082019091526002815261564760f01b6020820152906001600160a01b031633146115c65760405162461bcd60e51b81526004016102539190612cf0565b5060408051808201909152600481526304e4654360e41b6020820152816116005760405162461bcd60e51b81526004016102539190612cf0565b506004805460408051808201909152918252631253925560e21b60208301521561163d5760405162461bcd60e51b81526004016102539190612cf0565b50600481815560015460408051637ac46fbb60e01b815281516000946001600160a01b0390941693637ac46fbb938382019390929190829003018186803b15801561168757600080fd5b505afa15801561169b573d6000803e3d6000fd5b505050506040513d601f19601f820116820180604052508101906116bf9190612d03565b6020015160405163a22cb46560e01b81526001600160a01b038216600482018190526001602483015291925063a22cb46590604401600060405180830381600087803b15801561170e57600080fd5b505af1158015611722573d6000803e3d6000fd5b505050505050565b600060028251101561173e57506001919050565b60005b6001835161174f9190612e27565b8110156117c65782611762826001613011565b8151811061177257611772612de0565b60200260200101516001600160a01b031683828151811061179557611795612de0565b60200260200101516001600160a01b0316106117b45750600092915050565b806117be81612e0c565b915050611741565b50600192915050565b600260005414156118225760405162461bcd60e51b815260206004820152601f60248201527f5265656e7472616e637947756172643a207265656e7472616e742063616c6c006044820152606401610253565b6002600055565b60015460408051637ac46fbb60e01b8152815160009384936001600160a01b0390911692637ac46fbb9260048083019392829003018186803b15801561186e57600080fd5b505afa158015611882573d6000803e3d6000fd5b505050506040513d601f19601f820116820180604052508101906118a69190612d03565b60200151600454909150806118bf575060009392505050565b60405163020604bf60e21b8152600481018290526001600160a01b03808616919084169063081812fc9060240160206040518083038186803b15801561190457600080fd5b505afa158015611918573d6000803e3d6000fd5b505050506040513d601f19601f8201168201806040525081019061193c9190612d9f565b6001600160a01b031614806106b757506040516331a9108f60e11b8152600481018290526001600160a01b038086169190841690636352211e9060240160206040518083038186803b15801561199157600080fd5b505afa1580156119a5573d6000803e3d6000fd5b505050506040513d601f19601f820116820180604052508101906119c99190612d9f565b6001600160a01b031614949350505050565b6000813b63ffffffff166119f157506000919050565b60015460408051637ac46fbb60e01b815281516000936001600160a01b031692637ac46fbb9260048082019391829003018186803b158015611a3257600080fd5b505afa158015611a46573d6000803e3d6000fd5b505050506040513d601f19601f82011682018060405250810190611a6a9190612d03565b60200151905060045460001415611a845750600092915050565b600480546040516331a9108f60e11b8152918201526000906001600160a01b03831690636352211e9060240160206040518083038186803b158015611ac857600080fd5b505afa158015611adc573d6000803e3d6000fd5b505050506040513d601f19601f82011682018060405250810190611b009190612d9f565b60405163fcdabd2760e01b81526001600160a01b03808316600483015291925060009184169063fcdabd279060240160206040518083038186803b158015611b4757600080fd5b505afa158015611b5b573d6000803e3d6000fd5b505050506040513d601f19601f82011682018060405250810190611b7f9190612e3e565b905080611b9157506000949350505050565b604051638333903b60e01b815230600482015282906001600160a01b03821690638333903b9060240160206040518083038186803b158015611bd257600080fd5b505afa158015611be6573d6000803e3d6000fd5b505050506040513d601f19601f82011682018060405250810190611c0a9190612d61565b1580611c8c5750604051638333903b60e01b81526001600160a01b038781166004830152821690638333903b9060240160206040518083038186803b158015611c5257600080fd5b505afa158015611c66573d6000803e3d6000fd5b505050506040513d601f19601f82011682018060405250810190611c8a9190612d61565b155b15611c9d5750600095945050505050565b50600195945050505050565b6060611cb48361172a565b6040518060400160405280600381526020016253415560e81b81525090611cee5760405162461bcd60e51b81526004016102539190612cf0565b508151835114604051806040016040528060018152602001601360fa1b81525090611d2c5760405162461bcd60e51b81526004016102539190612cf0565b50610b4d6002805480602002602001604051908101604052809291908181526020018280548015611d8657602002820191906000526020600020905b81546001600160a01b03168152600190910190602001808311611d68575b50505050508484611e99565b606060005b8351811015611e905760028181548110611db357611db3612de0565b9060005260206000200160009054906101000a90046001600160a01b03166001600160a01b031663a9059cbb86868481518110611df257611df2612de0565b60200260200101516040518363ffffffff1660e01b8152600401611e2b9291906001600160a01b03929092168252602082015260400190565b602060405180830381600087803b158015611e4557600080fd5b505af1158015611e59573d6000803e3d6000fd5b505050506040513d601f19601f82011682018060405250810190611e7d9190612d61565b5080611e8881612e0c565b915050611d97565b50919392505050565b6060600084516001600160401b03811115611eb657611eb6612623565b604051908082528060200260200182016040528015611edf578160200160208202803683370190505b5090506000805b865182108015611ef65750855181105b1561207557858181518110611f0d57611f0d612de0565b60200260200101516001600160a01b0316878381518110611f3057611f30612de0565b60200260200101516001600160a01b03161015611f78576000838381518110611f5b57611f5b612de0565b602090810291909101015281611f7081612e0c565b925050611ee6565b858181518110611f8a57611f8a612de0565b60200260200101516001600160a01b0316878381518110611fad57611fad612de0565b60200260200101516001600160a01b0316111561202657848181518110611fd657611fd6612de0565b602002602001015160001415611ff85780611ff081612e0c565b915050611ee6565b60405162461bcd60e51b815260206004820152600360248201526254505360e81b6044820152606401610253565b84818151811061203857612038612de0565b602002602001015183838151811061205257612052612de0565b60209081029190910101528161206781612e0c565b9250508080611ff090612e0c565b86518210156120af57600083838151811061209257612092612de0565b6020908102919091010152816120a781612e0c565b925050612075565b509095945050505050565b6040516001600160a01b03808516602483015283166044820152606481018290526121259085906323b872dd60e01b906084015b60408051601f198184030181529190526020810180516001600160e01b03166001600160e01b031990931692909217909152612416565b50505050565b6040516001600160a01b03831660248201526044810182905261215b90849063a9059cbb60e01b906064016120ee565b505050565b60015460408051637ac46fbb60e01b815281516000936001600160a01b0380871694911692637ac46fbb9260048083019392829003018186803b1580156121a657600080fd5b505afa1580156121ba573d6000803e3d6000fd5b505050506040513d601f19601f820116820180604052508101906121de9190612d03565b602001516004805460405163020604bf60e21b8152918201526001600160a01b039091169063081812fc9060240160206040518083038186803b15801561222457600080fd5b505afa158015612238573d6000803e3d6000fd5b505050506040513d601f19601f8201168201806040525081019061225c9190612d9f565b6001600160a01b03161492915050565b6122796002600019613029565b604051636eb1769f60e11b81526001600160a01b03838116600483015230602483015284169063dd62ed3e9060440160206040518083038186803b1580156122c057600080fd5b505afa1580156122d4573d6000803e3d6000fd5b505050506040513d601f19601f820116820180604052508101906122f89190612e3e565b101561044e5760405163095ea7b360e01b81526001600160a01b038281166004830152600019602483015283169063095ea7b390604401602060405180830381600087803b15801561234957600080fd5b505af115801561235d573d6000803e3d6000fd5b505050506040513d601f19601f8201168201806040525081019061215b9190612d61565b60005b815181101561215b576123c88282815181106123a2576123a2612de0565b60200260200101516001600160a01b031660009081526003602052604090205460ff1690565b156040518060400160405280600381526020016213d5d560ea1b815250906124035760405162461bcd60e51b81526004016102539190612cf0565b508061240e81612e0c565b915050612384565b600061246b826040518060400160405280602081526020017f5361666545524332303a206c6f772d6c6576656c2063616c6c206661696c6564815250856001600160a01b03166124eb9092919063ffffffff16565b905080516000148061248c57508080602001905181019061248c9190612d61565b61215b5760405162461bcd60e51b815260206004820152602a60248201527f5361666545524332303a204552433230206f7065726174696f6e20646964206e6044820152691bdd081cdd58d8d9595960b21b6064820152608401610253565b60606106b7848460008585600080866001600160a01b031685876040516125129190612d83565b60006040518083038185875af1925050503d806000811461254f576040519150601f19603f3d011682016040523d82523d6000602084013e612554565b606091505b509150915061256587838387612570565b979650505050505050565b606083156125dc5782516125d5576001600160a01b0385163b6125d55760405162461bcd60e51b815260206004820152601d60248201527f416464726573733a2063616c6c20746f206e6f6e2d636f6e74726163740000006044820152606401610253565b50816106b7565b6106b783838151156125f15781518083602001fd5b8060405162461bcd60e51b81526004016102539190612cf0565b6001600160a01b038116811461262057600080fd5b50565b634e487b7160e01b600052604160045260246000fd5b604051606081016001600160401b038111828210171561265b5761265b612623565b60405290565b604051601f8201601f191681016001600160401b038111828210171561268957612689612623565b604052919050565b600082601f8301126126a257600080fd5b81356001600160401b038111156126bb576126bb612623565b6126ce601f8201601f1916602001612661565b8181528460208386010111156126e357600080fd5b816020850160208301376000918101602001919091529392505050565b6000806040838503121561271357600080fd5b823561271e8161260b565b915060208301356001600160401b0381111561273957600080fd5b61274585828601612691565b9150509250929050565b60006001600160401b0382111561276857612768612623565b5060051b60200190565b600082601f83011261278357600080fd5b813560206127986127938361274f565b612661565b82815260059290921b840181019181810190868411156127b757600080fd5b8286015b848110156127db5780356127ce8161260b565b83529183019183016127bb565b509695505050505050565b600082601f8301126127f757600080fd5b813560206128076127938361274f565b82815260059290921b8401810191818101908684111561282657600080fd5b8286015b848110156127db578035835291830191830161282a565b6000806000806080858703121561285757600080fd5b84356128628161260b565b935060208501356001600160401b038082111561287e57600080fd5b61288a88838901612772565b945060408701359150808211156128a057600080fd5b6128ac888389016127e6565b935060608701359150808211156128c257600080fd5b506128cf87828801612691565b91505092959194509250565b600081518084526020808501945080840160005b8381101561290b578151875295820195908201906001016128ef565b509495945050505050565b602081526000610b4d60208301846128db565b60006020828403121561293b57600080fd5b8135610b4d8161260b565b60008060006060848603121561295b57600080fd5b83356001600160401b038082111561297257600080fd5b61297e87838801612772565b9450602086013591508082111561299457600080fd5b6129a0878388016127e6565b935060408601359150808211156129b657600080fd5b506129c386828701612691565b9150509250925092565b600082601f8301126129de57600080fd5b813560206129ee6127938361274f565b82815260059290921b84018101918181019086841115612a0d57600080fd5b8286015b848110156127db5780356001600160401b0380821115612a315760008081fd5b908801906060828b03601f1901811315612a4b5760008081fd5b612a53612639565b87840135612a608161260b565b8152604084810135612a718161260b565b828a0152918401359183831115612a885760008081fd5b612a968d8a85880101612691565b908201528652505050918301918301612a11565b600080600080600060a08688031215612ac257600080fd5b85359450602086013593506040860135612adb8161260b565b925060608601356001600160401b0380821115612af757600080fd5b612b0389838a016129cd565b93506080880135915080821115612b1957600080fd5b50612b2688828901612691565b9150509295509295909350565b600081518084526020808501945080840160005b8381101561290b5781516001600160a01b031687529582019590820190600101612b47565b602081526000610b4d6020830184612b33565b60008060008060008060a08789031215612b9857600080fd5b86359550602087013594506040870135612bb18161260b565b935060608701356001600160401b0380821115612bcd57600080fd5b612bd98a838b016129cd565b94506080890135915080821115612bef57600080fd5b818901915089601f830112612c0357600080fd5b813581811115612c1257600080fd5b8a6020828501011115612c2457600080fd5b6020830194508093505050509295509295509295565b60008060408385031215612c4d57600080fd5b8235612c588161260b565b915060208301356001600160401b03811115612c7357600080fd5b61274585828601612772565b600060208284031215612c9157600080fd5b5035919050565b60005b83811015612cb3578181015183820152602001612c9b565b838111156121255750506000910152565b60008151808452612cdc816020860160208601612c98565b601f01601f19169290920160200192915050565b602081526000610b4d6020830184612cc4565b600060408284031215612d1557600080fd5b604051604081018181106001600160401b0382111715612d3757612d37612623565b6040528251612d458161260b565b81526020830151612d558161260b565b60208201529392505050565b600060208284031215612d7357600080fd5b81518015158114610b4d57600080fd5b60008251612d95818460208701612c98565b9190910192915050565b600060208284031215612db157600080fd5b8151610b4d8161260b565b6001600160a01b03831681526040602082018190526000906106b7908301846128db565b634e487b7160e01b600052603260045260246000fd5b634e487b7160e01b600052601160045260246000fd5b6000600019821415612e2057612e20612df6565b5060010190565b600082821015612e3957612e39612df6565b500390565b600060208284031215612e5057600080fd5b5051919050565b600060208284031215612e6957600080fd5b604051602081018181106001600160401b0382111715612e8b57612e8b612623565b6040528251612e998161260b565b81529392505050565b600081518084526020808501808196508360051b8101915082860160005b85811015612f16578284038952815180516001600160a01b039081168652868201511686860152604090810151606091860182905290612f0281870183612cc4565b9a87019a9550505090840190600101612ec0565b5091979650505050505050565b85815284602082015260018060a01b038416604082015260a060608201526000612f5060a0830185612ea2565b8281036080840152612f628185612cc4565b98975050505050505050565b86815285602082015260018060a01b038516604082015260a060608201526000612f9b60a0830186612ea2565b8281036080840152838152838560208301376000602085830101526020601f19601f860116820101915050979650505050505050565b6001600160a01b0384168152606060208201819052600090612ff590830185612b33565b828103604084015261300781856128db565b9695505050505050565b6000821982111561302457613024612df6565b500190565b60008261304657634e487b7160e01b600052601260045260246000fd5b50049056fea2646970667358221220a512b61334136ab10f38fbc6dc0d15ca5cabe23b1b5afe964549fe796c7683c164736f6c63430008090033",
  "linkReferences": {},
  "deployedLinkReferences": {}
}