{
  "_format": "hh-sol-artifact-1",
  "contractName": "BondingManagerZeroStartFactorsBug",
  "sourceName": "contracts/bonding/deprecated/BondingManagerZeroStartFactorsBug.sol",
  "abi": [
    {
      "constant": true,
      "inputs": [
        {
          "internalType": "uint256",
          "name": "",
          "type": "uint256"
        }
      ],
      "name": "activeTranscoderSetDEPRECATED",
      "outputs": [
        {
          "internalType": "uint256",
          "name": "totalStake",
          "type": "uint256"
        }
      ],
      "payable": false,
      "stateMutability": "view",
      "type": "function"
    },
    {
      "constant": true,
      "inputs": [],
      "name": "maxEarningsClaimsRounds",
      "outputs": [
        {
          "internalType": "uint256",
          "name": "",
          "type": "uint256"
        }
      ],
      "payable": false,
      "stateMutability": "view",
      "type": "function"
    },
    {
      "constant": false,
      "inputs": [
        {
          "internalType": "address",
          "name": "_to",
          "type": "address"
        },
        {
          "internalType": "uint256",
          "name": "_unbondingLockId",
          "type": "uint256"
        },
        {
          "internalType": "address",
          "name": "_newPosPrev",
          "type": "address"
        },
        {
          "internalType": "address",
          "name": "_newPosNext",
          "type": "address"
        }
      ],
      "name": "rebondFromUnbondedWithHint",
      "outputs": [],
      "payable": false,
      "stateMutability": "nonpayable",
      "type": "function"
    },
    {
      "constant": true,
      "inputs": [
        {
          "internalType": "address",
          "name": "_transcoder",
          "type": "address"
        }
      ],
      "name": "isActiveTranscoder",
      "outputs": [
        {
          "internalType": "bool",
          "name": "",
          "type": "bool"
        }
      ],
      "payable": false,
      "stateMutability": "view",
      "type": "function"
    },
    {
      "constant": true,
      "inputs": [
        {
          "internalType": "address",
          "name": "_delegator",
          "type": "address"
        },
        {
          "internalType": "uint256",
          "name": "_unbondingLockId",
          "type": "uint256"
        }
      ],
      "name": "isValidUnbondingLock",
      "outputs": [
        {
          "internalType": "bool",
          "name": "",
          "type": "bool"
        }
      ],
      "payable": false,
      "stateMutability": "view",
      "type": "function"
    },
    {
      "constant": true,
      "inputs": [
        {
          "internalType": "address",
          "name": "_delegator",
          "type": "address"
        }
      ],
      "name": "delegatorStatus",
      "outputs": [
        {
          "internalType": "enum BondingManagerZeroStartFactorsBug.DelegatorStatus",
          "name": "",
          "type": "uint8"
        }
      ],
      "payable": false,
      "stateMutability": "view",
      "type": "function"
    },
    {
      "constant": false,
      "inputs": [],
      "name": "reward",
      "outputs": [],
      "payable": false,
      "stateMutability": "nonpayable",
      "type": "function"
    },
    {
      "constant": false,
      "inputs": [
        {
          "internalType": "address",
          "name": "_transcoder",
          "type": "address"
        },
        {
          "internalType": "address",
          "name": "_finder",
          "type": "address"
        },
        {
          "internalType": "uint256",
          "name": "_slashAmount",
          "type": "uint256"
        },
        {
          "internalType": "uint256",
          "name": "_finderFee",
          "type": "uint256"
        }
      ],
      "name": "slashTranscoder",
      "outputs": [],
      "payable": false,
      "stateMutability": "nonpayable",
      "type": "function"
    },
    {
      "constant": true,
      "inputs": [
        {
          "internalType": "address",
          "name": "_transcoder",
          "type": "address"
        }
      ],
      "name": "getNextTranscoderInPool",
      "outputs": [
        {
          "internalType": "address",
          "name": "",
          "type": "address"
        }
      ],
      "payable": false,
      "stateMutability": "view",
      "type": "function"
    },
    {
      "constant": true,
      "inputs": [
        {
          "internalType": "address",
          "name": "_transcoder",
          "type": "address"
        },
        {
          "internalType": "uint256",
          "name": "_round",
          "type": "uint256"
        }
      ],
      "name": "getTranscoderEarningsPoolForRound",
      "outputs": [
        {
          "internalType": "uint256",
          "name": "rewardPool",
          "type": "uint256"
        },
        {
          "internalType": "uint256",
          "name": "feePool",
          "type": "uint256"
        },
        {
          "internalType": "uint256",
          "name": "totalStake",
          "type": "uint256"
        },
        {
          "internalType": "uint256",
          "name": "claimableStake",
          "type": "uint256"
        },
        {
          "internalType": "uint256",
          "name": "transcoderRewardCut",
          "type": "uint256"
        },
        {
          "internalType": "uint256",
          "name": "transcoderFeeShare",
          "type": "uint256"
        },
        {
          "internalType": "uint256",
          "name": "transcoderRewardPool",
          "type": "uint256"
        },
        {
          "internalType": "uint256",
          "name": "transcoderFeePool",
          "type": "uint256"
        },
        {
          "internalType": "bool",
          "name": "hasTranscoderRewardFeePool",
          "type": "bool"
        },
        {
          "internalType": "uint256",
          "name": "cumulativeRewardFactor",
          "type": "uint256"
        },
        {
          "internalType": "uint256",
          "name": "cumulativeFeeFactor",
          "type": "uint256"
        }
      ],
      "payable": false,
      "stateMutability": "view",
      "type": "function"
    },
    {
      "constant": false,
      "inputs": [
        {
          "internalType": "uint256",
          "name": "_endRound",
          "type": "uint256"
        }
      ],
      "name": "claimEarnings",
      "outputs": [],
      "payable": false,
      "stateMutability": "nonpayable",
      "type": "function"
    },
    {
      "constant": false,
      "inputs": [
        {
          "internalType": "uint256",
          "name": "_unbondingLockId",
          "type": "uint256"
        }
      ],
      "name": "withdrawStake",
      "outputs": [],
      "payable": false,
      "stateMutability": "nonpayable",
      "type": "function"
    },
    {
      "constant": false,
      "inputs": [
        {
          "internalType": "uint256",
          "name": "_amount",
          "type": "uint256"
        }
      ],
      "name": "unbond",
      "outputs": [],
      "payable": false,
      "stateMutability": "nonpayable",
      "type": "function"
    },
    {
      "constant": true,
      "inputs": [],
      "name": "getTranscoderPoolSize",
      "outputs": [
        {
          "internalType": "uint256",
          "name": "",
          "type": "uint256"
        }
      ],
      "payable": false,
      "stateMutability": "view",
      "type": "function"
    },
    {
      "constant": false,
      "inputs": [
        {
          "internalType": "uint256",
          "name": "_rewardCut",
          "type": "uint256"
        },
        {
          "internalType": "uint256",
          "name": "_feeShare",
          "type": "uint256"
        },
        {
          "internalType": "address",
          "name": "_newPosPrev",
          "type": "address"
        },
        {
          "internalType": "address",
          "name": "_newPosNext",
          "type": "address"
        }
      ],
      "name": "transcoderWithHint",
      "outputs": [],
      "payable": false,
      "stateMutability": "nonpayable",
      "type": "function"
    },
    {
      "constant": false,
      "inputs": [
        {
          "internalType": "address",
          "name": "_to",
          "type": "address"
        },
        {
          "internalType": "uint256",
          "name": "_unbondingLockId",
          "type": "uint256"
        }
      ],
      "name": "rebondFromUnbonded",
      "outputs": [],
      "payable": false,
      "stateMutability": "nonpayable",
      "type": "function"
    },
    {
      "constant": false,
      "inputs": [
        {
          "internalType": "address",
          "name": "_transcoder",
          "type": "address"
        },
        {
          "internalType": "uint256",
          "name": "_fees",
          "type": "uint256"
        },
        {
          "internalType": "uint256",
          "name": "_round",
          "type": "uint256"
        }
      ],
      "name": "updateTranscoderWithFees",
      "outputs": [],
      "payable": false,
      "stateMutability": "nonpayable",
      "type": "function"
    },
    {
      "constant": true,
      "inputs": [],
      "name": "numActiveTranscodersDEPRECATED",
      "outputs": [
        {
          "internalType": "uint256",
          "name": "",
          "type": "uint256"
        }
      ],
      "payable": false,
      "stateMutability": "view",
      "type": "function"
    },
    {
      "constant": true,
      "inputs": [
        {
          "internalType": "address",
          "name": "_delegator",
          "type": "address"
        },
        {
          "internalType": "uint256",
          "name": "_unbondingLockId",
          "type": "uint256"
        }
      ],
      "name": "getDelegatorUnbondingLock",
      "outputs": [
        {
          "internalType": "uint256",
          "name": "amount",
          "type": "uint256"
        },
        {
          "internalType": "uint256",
          "name": "withdrawRound",
          "type": "uint256"
        }
      ],
      "payable": false,
      "stateMutability": "view",
      "type": "function"
    },
    {
      "constant": true,
      "inputs": [],
      "name": "currentRoundTotalActiveStake",
      "outputs": [
        {
          "internalType": "uint256",
          "name": "",
          "type": "uint256"
        }
      ],
      "payable": false,
      "stateMutability": "view",
      "type": "function"
    },
    {
      "constant": false,
      "inputs": [
        {
          "internalType": "uint256",
          "name": "_rewardCut",
          "type": "uint256"
        },
        {
          "internalType": "uint256",
          "name": "_feeShare",
          "type": "uint256"
        }
      ],
      "name": "transcoder",
      "outputs": [],
      "payable": false,
      "stateMutability": "nonpayable",
      "type": "function"
    },
    {
      "constant": true,
      "inputs": [],
      "name": "nextRoundTotalActiveStake",
      "outputs": [
        {
          "internalType": "uint256",
          "name": "",
          "type": "uint256"
        }
      ],
      "payable": false,
      "stateMutability": "view",
      "type": "function"
    },
    {
      "constant": false,
      "inputs": [],
      "name": "withdrawFees",
      "outputs": [],
      "payable": false,
      "stateMutability": "nonpayable",
      "type": "function"
    },
    {
      "constant": true,
      "inputs": [],
      "name": "targetContractId",
      "outputs": [
        {
          "internalType": "bytes32",
          "name": "",
          "type": "bytes32"
        }
      ],
      "payable": false,
      "stateMutability": "view",
      "type": "function"
    },
    {
      "constant": true,
      "inputs": [],
      "name": "getTranscoderPoolMaxSize",
      "outputs": [
        {
          "internalType": "uint256",
          "name": "",
          "type": "uint256"
        }
      ],
      "payable": false,
      "stateMutability": "view",
      "type": "function"
    },
    {
      "constant": true,
      "inputs": [],
      "name": "getTotalBonded",
      "outputs": [
        {
          "internalType": "uint256",
          "name": "",
          "type": "uint256"
        }
      ],
      "payable": false,
      "stateMutability": "view",
      "type": "function"
    },
    {
      "constant": true,
      "inputs": [
        {
          "internalType": "address",
          "name": "_transcoder",
          "type": "address"
        }
      ],
      "name": "getTranscoder",
      "outputs": [
        {
          "internalType": "uint256",
          "name": "lastRewardRound",
          "type": "uint256"
        },
        {
          "internalType": "uint256",
          "name": "rewardCut",
          "type": "uint256"
        },
        {
          "internalType": "uint256",
          "name": "feeShare",
          "type": "uint256"
        },
        {
          "internalType": "uint256",
          "name": "lastActiveStakeUpdateRound",
          "type": "uint256"
        },
        {
          "internalType": "uint256",
          "name": "activationRound",
          "type": "uint256"
        },
        {
          "internalType": "uint256",
          "name": "deactivationRound",
          "type": "uint256"
        },
        {
          "internalType": "uint256",
          "name": "activeCumulativeRewards",
          "type": "uint256"
        },
        {
          "internalType": "uint256",
          "name": "cumulativeRewards",
          "type": "uint256"
        },
        {
          "internalType": "uint256",
          "name": "cumulativeFees",
          "type": "uint256"
        },
        {
          "internalType": "uint256",
          "name": "lastFeeRound",
          "type": "uint256"
        }
      ],
      "payable": false,
      "stateMutability": "view",
      "type": "function"
    },
    {
      "constant": false,
      "inputs": [
        {
          "internalType": "uint256",
          "name": "_numActiveTranscoders",
          "type": "uint256"
        }
      ],
      "name": "setNumActiveTranscoders",
      "outputs": [],
      "payable": false,
      "stateMutability": "nonpayable",
      "type": "function"
    },
    {
      "constant": true,
      "inputs": [
        {
          "internalType": "address",
          "name": "_transcoder",
          "type": "address"
        }
      ],
      "name": "isRegisteredTranscoder",
      "outputs": [
        {
          "internalType": "bool",
          "name": "",
          "type": "bool"
        }
      ],
      "payable": false,
      "stateMutability": "view",
      "type": "function"
    },
    {
      "constant": false,
      "inputs": [
        {
          "internalType": "uint256",
          "name": "_amount",
          "type": "uint256"
        },
        {
          "internalType": "address",
          "name": "_to",
          "type": "address"
        },
        {
          "internalType": "address",
          "name": "_oldDelegateNewPosPrev",
          "type": "address"
        },
        {
          "internalType": "address",
          "name": "_oldDelegateNewPosNext",
          "type": "address"
        },
        {
          "internalType": "address",
          "name": "_currDelegateNewPosPrev",
          "type": "address"
        },
        {
          "internalType": "address",
          "name": "_currDelegateNewPosNext",
          "type": "address"
        }
      ],
      "name": "bondWithHint",
      "outputs": [],
      "payable": false,
      "stateMutability": "nonpayable",
      "type": "function"
    },
    {
      "constant": true,
      "inputs": [],
      "name": "unbondingPeriod",
      "outputs": [
        {
          "internalType": "uint64",
          "name": "",
          "type": "uint64"
        }
      ],
      "payable": false,
      "stateMutability": "view",
      "type": "function"
    },
    {
      "constant": false,
      "inputs": [],
      "name": "setCurrentRoundTotalActiveStake",
      "outputs": [],
      "payable": false,
      "stateMutability": "nonpayable",
      "type": "function"
    },
    {
      "constant": false,
      "inputs": [
        {
          "internalType": "uint256",
          "name": "_maxEarningsClaimsRounds",
          "type": "uint256"
        }
      ],
      "name": "setMaxEarningsClaimsRounds",
      "outputs": [],
      "payable": false,
      "stateMutability": "nonpayable",
      "type": "function"
    },
    {
      "constant": false,
      "inputs": [
        {
          "internalType": "uint256",
          "name": "_unbondingLockId",
          "type": "uint256"
        },
        {
          "internalType": "address",
          "name": "_newPosPrev",
          "type": "address"
        },
        {
          "internalType": "address",
          "name": "_newPosNext",
          "type": "address"
        }
      ],
      "name": "rebondWithHint",
      "outputs": [],
      "payable": false,
      "stateMutability": "nonpayable",
      "type": "function"
    },
    {
      "constant": false,
      "inputs": [
        {
          "internalType": "address",
          "name": "_newPosPrev",
          "type": "address"
        },
        {
          "internalType": "address",
          "name": "_newPosNext",
          "type": "address"
        }
      ],
      "name": "rewardWithHint",
      "outputs": [],
      "payable": false,
      "stateMutability": "nonpayable",
      "type": "function"
    },
    {
      "constant": true,
      "inputs": [],
      "name": "getFirstTranscoderInPool",
      "outputs": [
        {
          "internalType": "address",
          "name": "",
          "type": "address"
        }
      ],
      "payable": false,
      "stateMutability": "view",
      "type": "function"
    },
    {
      "constant": true,
      "inputs": [
        {
          "internalType": "address",
          "name": "_transcoder",
          "type": "address"
        }
      ],
      "name": "transcoderStatus",
      "outputs": [
        {
          "internalType": "enum BondingManagerZeroStartFactorsBug.TranscoderStatus",
          "name": "",
          "type": "uint8"
        }
      ],
      "payable": false,
      "stateMutability": "view",
      "type": "function"
    },
    {
      "constant": false,
      "inputs": [
        {
          "internalType": "address",
          "name": "_controller",
          "type": "address"
        }
      ],
      "name": "setController",
      "outputs": [],
      "payable": false,
      "stateMutability": "nonpayable",
      "type": "function"
    },
    {
      "constant": false,
      "inputs": [
        {
          "internalType": "uint256",
          "name": "_amount",
          "type": "uint256"
        },
        {
          "internalType": "address",
          "name": "_newPosPrev",
          "type": "address"
        },
        {
          "internalType": "address",
          "name": "_newPosNext",
          "type": "address"
        }
      ],
      "name": "unbondWithHint",
      "outputs": [],
      "payable": false,
      "stateMutability": "nonpayable",
      "type": "function"
    },
    {
      "constant": true,
      "inputs": [
        {
          "internalType": "address",
          "name": "_delegator",
          "type": "address"
        },
        {
          "internalType": "uint256",
          "name": "_endRound",
          "type": "uint256"
        }
      ],
      "name": "pendingStake",
      "outputs": [
        {
          "internalType": "uint256",
          "name": "",
          "type": "uint256"
        }
      ],
      "payable": false,
      "stateMutability": "view",
      "type": "function"
    },
    {
      "constant": true,
      "inputs": [
        {
          "internalType": "address",
          "name": "_transcoder",
          "type": "address"
        }
      ],
      "name": "transcoderTotalStake",
      "outputs": [
        {
          "internalType": "uint256",
          "name": "",
          "type": "uint256"
        }
      ],
      "payable": false,
      "stateMutability": "view",
      "type": "function"
    },
    {
      "constant": true,
      "inputs": [
        {
          "internalType": "address",
          "name": "_delegator",
          "type": "address"
        }
      ],
      "name": "getDelegator",
      "outputs": [
        {
          "internalType": "uint256",
          "name": "bondedAmount",
          "type": "uint256"
        },
        {
          "internalType": "uint256",
          "name": "fees",
          "type": "uint256"
        },
        {
          "internalType": "address",
          "name": "delegateAddress",
          "type": "address"
        },
        {
          "internalType": "uint256",
          "name": "delegatedAmount",
          "type": "uint256"
        },
        {
          "internalType": "uint256",
          "name": "startRound",
          "type": "uint256"
        },
        {
          "internalType": "uint256",
          "name": "lastClaimRound",
          "type": "uint256"
        },
        {
          "internalType": "uint256",
          "name": "nextUnbondingLockId",
          "type": "uint256"
        }
      ],
      "payable": false,
      "stateMutability": "view",
      "type": "function"
    },
    {
      "constant": false,
      "inputs": [
        {
          "internalType": "uint256",
          "name": "_amount",
          "type": "uint256"
        },
        {
          "internalType": "address",
          "name": "_to",
          "type": "address"
        }
      ],
      "name": "bond",
      "outputs": [],
      "payable": false,
      "stateMutability": "nonpayable",
      "type": "function"
    },
    {
      "constant": false,
      "inputs": [
        {
          "internalType": "uint256",
          "name": "_pendingStake",
          "type": "uint256"
        },
        {
          "internalType": "uint256",
          "name": "_pendingFees",
          "type": "uint256"
        },
        {
          "internalType": "bytes32[]",
          "name": "_earningsProof",
          "type": "bytes32[]"
        },
        {
          "internalType": "bytes",
          "name": "_data",
          "type": "bytes"
        }
      ],
      "name": "claimSnapshotEarnings",
      "outputs": [],
      "payable": false,
      "stateMutability": "nonpayable",
      "type": "function"
    },
    {
      "constant": false,
      "inputs": [
        {
          "internalType": "uint256",
          "name": "_unbondingLockId",
          "type": "uint256"
        }
      ],
      "name": "rebond",
      "outputs": [],
      "payable": false,
      "stateMutability": "nonpayable",
      "type": "function"
    },
    {
      "constant": false,
      "inputs": [
        {
          "internalType": "uint64",
          "name": "_unbondingPeriod",
          "type": "uint64"
        }
      ],
      "name": "setUnbondingPeriod",
      "outputs": [],
      "payable": false,
      "stateMutability": "nonpayable",
      "type": "function"
    },
    {
      "constant": true,
      "inputs": [
        {
          "internalType": "address",
          "name": "_delegator",
          "type": "address"
        },
        {
          "internalType": "uint256",
          "name": "_endRound",
          "type": "uint256"
        }
      ],
      "name": "pendingFees",
      "outputs": [
        {
          "internalType": "uint256",
          "name": "",
          "type": "uint256"
        }
      ],
      "payable": false,
      "stateMutability": "view",
      "type": "function"
    },
    {
      "constant": true,
      "inputs": [],
      "name": "controller",
      "outputs": [
        {
          "internalType": "contract IController",
          "name": "",
          "type": "address"
        }
      ],
      "payable": false,
      "stateMutability": "view",
      "type": "function"
    },
    {
      "inputs": [
        {
          "internalType": "address",
          "name": "_controller",
          "type": "address"
        }
      ],
      "payable": false,
      "stateMutability": "nonpayable",
      "type": "constructor"
    },
    {
      "anonymous": false,
      "inputs": [
        {
          "indexed": true,
          "internalType": "address",
          "name": "transcoder",
          "type": "address"
        },
        {
          "indexed": false,
          "internalType": "uint256",
          "name": "rewardCut",
          "type": "uint256"
        },
        {
          "indexed": false,
          "internalType": "uint256",
          "name": "feeShare",
          "type": "uint256"
        }
      ],
      "name": "TranscoderUpdate",
      "type": "event"
    },
    {
      "anonymous": false,
      "inputs": [
        {
          "indexed": true,
          "internalType": "address",
          "name": "transcoder",
          "type": "address"
        },
        {
          "indexed": false,
          "internalType": "uint256",
          "name": "activationRound",
          "type": "uint256"
        }
      ],
      "name": "TranscoderActivated",
      "type": "event"
    },
    {
      "anonymous": false,
      "inputs": [
        {
          "indexed": true,
          "internalType": "address",
          "name": "transcoder",
          "type": "address"
        },
        {
          "indexed": false,
          "internalType": "uint256",
          "name": "deactivationRound",
          "type": "uint256"
        }
      ],
      "name": "TranscoderDeactivated",
      "type": "event"
    },
    {
      "anonymous": false,
      "inputs": [
        {
          "indexed": true,
          "internalType": "address",
          "name": "transcoder",
          "type": "address"
        },
        {
          "indexed": false,
          "internalType": "address",
          "name": "finder",
          "type": "address"
        },
        {
          "indexed": false,
          "internalType": "uint256",
          "name": "penalty",
          "type": "uint256"
        },
        {
          "indexed": false,
          "internalType": "uint256",
          "name": "finderReward",
          "type": "uint256"
        }
      ],
      "name": "TranscoderSlashed",
      "type": "event"
    },
    {
      "anonymous": false,
      "inputs": [
        {
          "indexed": true,
          "internalType": "address",
          "name": "transcoder",
          "type": "address"
        },
        {
          "indexed": false,
          "internalType": "uint256",
          "name": "amount",
          "type": "uint256"
        }
      ],
      "name": "Reward",
      "type": "event"
    },
    {
      "anonymous": false,
      "inputs": [
        {
          "indexed": true,
          "internalType": "address",
          "name": "newDelegate",
          "type": "address"
        },
        {
          "indexed": true,
          "internalType": "address",
          "name": "oldDelegate",
          "type": "address"
        },
        {
          "indexed": true,
          "internalType": "address",
          "name": "delegator",
          "type": "address"
        },
        {
          "indexed": false,
          "internalType": "uint256",
          "name": "additionalAmount",
          "type": "uint256"
        },
        {
          "indexed": false,
          "internalType": "uint256",
          "name": "bondedAmount",
          "type": "uint256"
        }
      ],
      "name": "Bond",
      "type": "event"
    },
    {
      "anonymous": false,
      "inputs": [
        {
          "indexed": true,
          "internalType": "address",
          "name": "delegate",
          "type": "address"
        },
        {
          "indexed": true,
          "internalType": "address",
          "name": "delegator",
          "type": "address"
        },
        {
          "indexed": false,
          "internalType": "uint256",
          "name": "unbondingLockId",
          "type": "uint256"
        },
        {
          "indexed": false,
          "internalType": "uint256",
          "name": "amount",
          "type": "uint256"
        },
        {
          "indexed": false,
          "internalType": "uint256",
          "name": "withdrawRound",
          "type": "uint256"
        }
      ],
      "name": "Unbond",
      "type": "event"
    },
    {
      "anonymous": false,
      "inputs": [
        {
          "indexed": true,
          "internalType": "address",
          "name": "delegate",
          "type": "address"
        },
        {
          "indexed": true,
          "internalType": "address",
          "name": "delegator",
          "type": "address"
        },
        {
          "indexed": false,
          "internalType": "uint256",
          "name": "unbondingLockId",
          "type": "uint256"
        },
        {
          "indexed": false,
          "internalType": "uint256",
          "name": "amount",
          "type": "uint256"
        }
      ],
      "name": "Rebond",
      "type": "event"
    },
    {
      "anonymous": false,
      "inputs": [
        {
          "indexed": true,
          "internalType": "address",
          "name": "delegator",
          "type": "address"
        },
        {
          "indexed": false,
          "internalType": "uint256",
          "name": "unbondingLockId",
          "type": "uint256"
        },
        {
          "indexed": false,
          "internalType": "uint256",
          "name": "amount",
          "type": "uint256"
        },
        {
          "indexed": false,
          "internalType": "uint256",
          "name": "withdrawRound",
          "type": "uint256"
        }
      ],
      "name": "WithdrawStake",
      "type": "event"
    },
    {
      "anonymous": false,
      "inputs": [
        {
          "indexed": true,
          "internalType": "address",
          "name": "delegator",
          "type": "address"
        }
      ],
      "name": "WithdrawFees",
      "type": "event"
    },
    {
      "anonymous": false,
      "inputs": [
        {
          "indexed": true,
          "internalType": "address",
          "name": "delegate",
          "type": "address"
        },
        {
          "indexed": true,
          "internalType": "address",
          "name": "delegator",
          "type": "address"
        },
        {
          "indexed": false,
          "internalType": "uint256",
          "name": "rewards",
          "type": "uint256"
        },
        {
          "indexed": false,
          "internalType": "uint256",
          "name": "fees",
          "type": "uint256"
        },
        {
          "indexed": false,
          "internalType": "uint256",
          "name": "startRound",
          "type": "uint256"
        },
        {
          "indexed": false,
          "internalType": "uint256",
          "name": "endRound",
          "type": "uint256"
        }
      ],
      "name": "EarningsClaimed",
      "type": "event"
    },
    {
      "anonymous": false,
      "inputs": [
        {
          "indexed": false,
          "internalType": "address",
          "name": "controller",
          "type": "address"
        }
      ],
      "name": "SetController",
      "type": "event"
    },
    {
      "anonymous": false,
      "inputs": [
        {
          "indexed": false,
          "internalType": "string",
          "name": "param",
          "type": "string"
        }
      ],
      "name": "ParameterUpdate",
      "type": "event"
    }
  ],
  "bytecode": "0x608060405234801561001057600080fd5b50604051620052e3380380620052e38339818101604052602081101561003557600080fd5b5051600080546001600160a01b039092166001600160a01b031990921691909117905561527b80620000686000396000f3fe608060405234801561001057600080fd5b50600436106102a05760003560e01c80635a2a75a9116101675780638b2f1652116100ce578063b78d27dc11610087578063b78d27dc1461096e578063c6d63d8c1461099a578063eaffb3f914610a68578063f10d1de114610a85578063f595f1cc14610aac578063f77c479114610ad8576102a0565b80638b2f16521461082657806392eefe9b1461085c5780639500ed9b146108825780639d0b2c7a146108b65780639ef9df94146108e2578063a64ad59514610908576102a0565b80636cf6d675116101205780636cf6d67514610772578063713f22161461079757806372d9f13d1461079f5780637fc4606f146107bc57806381871056146107f057806388a6c7491461081e576102a0565b80635a2a75a91461065b5780635c50c356146106635780635dce99481461066b578063673a456b146106e157806368ba170c146106fe5780636bd9add414610724576102a0565b806327de9e321161020b578063412f83b6116101c4578063412f83b6146105d35780634196ee751461061857806343d3461a14610620578063465501d314610643578063476343ee1461064b57806351720b4114610653576102a0565b806327de9e321461050e5780632a4e0d551461052b5780633550aa10146105335780633a080e931461056d5780633aeb512c146105995780633c725cbb146105cb576102a0565b8063228cb7331161025d578063228cb733146103ca57806322bf9d7c146103d2578063235c96031461040e57806324454fc41461045057806324b1babf146104d457806325d5971f146104f1576102a0565b8063014ee259146102a5578063038424c3146102d45780630584a373146102dc578063088023741461031a5780630fd02fc1146103545780631544fc6714610380575b600080fd5b6102c2600480360360208110156102bb57600080fd5b5035610ae0565b60408051918252519081900360200190f35b6102c2610af5565b610318600480360360808110156102f257600080fd5b506001600160a01b03813581169160208101359160408201358116916060013516610afb565b005b6103406004803603602081101561033057600080fd5b50356001600160a01b0316610c3f565b604080519115158252519081900360200190f35b6103406004803603604081101561036a57600080fd5b506001600160a01b038135169060200135610ce8565b6103a66004803603602081101561039657600080fd5b50356001600160a01b0316610d1b565b604051808260028111156103b657fe5b60ff16815260200191505060405180910390f35b610318610dce565b610318600480360360808110156103e857600080fd5b506001600160a01b03813581169160208101359091169060408101359060600135610ddb565b6104346004803603602081101561042457600080fd5b50356001600160a01b03166111c1565b604080516001600160a01b039092168252519081900360200190f35b61047c6004803603604081101561046657600080fd5b506001600160a01b038135169060200135611258565b604080519b8c5260208c019a909a528a8a019890985260608a0196909652608089019490945260a088019290925260c087015260e0860152151561010085015261012084015261014083015251908190036101600190f35b610318600480360360208110156104ea57600080fd5b50356112cc565b6103186004803603602081101561050757600080fd5b50356113e6565b6103186004803603602081101561052457600080fd5b5035611607565b6102c2611616565b6103186004803603608081101561054957600080fd5b508035906020810135906001600160a01b036040820135811691606001351661169b565b6103186004803603604081101561058357600080fd5b506001600160a01b038135169060200135611a37565b610318600480360360608110156105af57600080fd5b506001600160a01b038135169060208101359060400135611a44565b6102c2611d8c565b6105ff600480360360408110156105e957600080fd5b506001600160a01b038135169060200135611d92565b6040805192835260208301919091528051918290030190f35b6102c2611dc8565b6103186004803603604081101561063657600080fd5b5080359060200135611dce565b6102c2611ddb565b610318611de1565b6102c2611f14565b6102c2611f1a565b6102c2611f6e565b6106916004803603602081101561068157600080fd5b50356001600160a01b0316611f74565b604080519a8b5260208b0199909952898901979097526060890195909552608088019390935260a087019190915260c086015260e085015261010084015261012083015251908190036101400190f35b610318600480360360208110156106f757600080fd5b5035611fcf565b6103406004803603602081101561071457600080fd5b50356001600160a01b03166120a3565b610318600480360360c081101561073a57600080fd5b508035906001600160a01b03602082013581169160408101358216916060820135811691608081013582169160a090910135166120db565b61077a6123f4565b6040805167ffffffffffffffff9092168252519081900360200190f35b610318612404565b610318600480360360208110156107b557600080fd5b5035612414565b610318600480360360608110156107d257600080fd5b508035906001600160a01b0360208201358116916040013516612484565b6103186004803603604081101561080657600080fd5b506001600160a01b038135811691602001351661250e565b610434612766565b61084c6004803603602081101561083c57600080fd5b50356001600160a01b03166127ba565b604051808260018111156103b657fe5b6103186004803603602081101561087257600080fd5b50356001600160a01b03166127da565b6103186004803603606081101561089857600080fd5b508035906001600160a01b0360208201358116916040013516612836565b6102c2600480360360408110156108cc57600080fd5b506001600160a01b038135169060200135612b53565b6102c2600480360360208110156108f857600080fd5b50356001600160a01b0316612b69565b61092e6004803603602081101561091e57600080fd5b50356001600160a01b0316612b87565b6040805197885260208801969096526001600160a01b03909416868601526060860192909252608085015260a084015260c0830152519081900360e00190f35b6103186004803603604081101561098457600080fd5b50803590602001356001600160a01b0316612bd3565b610318600480360360808110156109b057600080fd5b8135916020810135918101906060810160408201356401000000008111156109d757600080fd5b8201836020820111156109e957600080fd5b80359060200191846020830284011164010000000083111715610a0b57600080fd5b919390929091602081019035640100000000811115610a2957600080fd5b820183602082011115610a3b57600080fd5b80359060200191846001830284011164010000000083111715610a5d57600080fd5b509092509050612be3565b61031860048036036020811015610a7e57600080fd5b5035613062565b61031860048036036020811015610a9b57600080fd5b503567ffffffffffffffff1661306e565b6102c260048036036040811015610ac257600080fd5b506001600160a01b0381351690602001356130e9565b6104346130ff565b600d6020526000908152604090206002015481565b60045481565b610b0361310e565b610b0b6131cc565b610b13613289565b6002610b1e33610d1b565b6002811115610b2957fe5b14610b7b576040805162461bcd60e51b815260206004820152601760248201527f63616c6c6572206d75737420626520756e626f6e646564000000000000000000604482015290519081900360640190fd5b610bf86001610b88613320565b6001600160a01b0316638a19c8bc6040518163ffffffff1660e01b815260040160206040518083038186803b158015610bc057600080fd5b505afa158015610bd4573d6000803e3d6000fd5b505050506040513d6020811015610bea57600080fd5b50519063ffffffff61339d16565b3360008181526005602052604090206004810192909255600290910180546001600160a01b0319166001600160a01b038716179055610c39908484846133f7565b50505050565b6001600160a01b038116600090815260066020526040812081610c60613320565b6001600160a01b0316638a19c8bc6040518163ffffffff1660e01b815260040160206040518083038186803b158015610c9857600080fd5b505afa158015610cac573d6000803e3d6000fd5b505050506040513d6020811015610cc257600080fd5b505160098301549091508110801590610cde575081600a015481105b925050505b919050565b6001600160a01b038216600090815260056020908152604080832084845260080190915290206001015415155b92915050565b6001600160a01b03811660009081526005602052604081208054610d43576002915050610ce3565b610d4b613320565b6001600160a01b0316638a19c8bc6040518163ffffffff1660e01b815260040160206040518083038186803b158015610d8357600080fd5b505afa158015610d97573d6000803e3d6000fd5b505050506040513d6020811015610dad57600080fd5b505160048201541115610dc4576000915050610ce3565b6001915050610ce3565b610dd960008061250e565b565b610de361310e565b610deb613511565b6001600160a01b038416600090815260056020526040902080541561116b576001600160a01b038516600090815260056020526040812054610e2d90856135fc565b6040805163b0138c4760e01b8152601060048201526001600160a01b0389166024820152905191925073__$d23c89be677d40ab24c636937040b6165f$__9163b0138c4791604480820192602092909190829003018186803b158015610e9257600080fd5b505af4158015610ea6573d6000803e3d6000fd5b505050506040513d6020811015610ebc57600080fd5b505115610ecc57610ecc86613621565b8154610ede908263ffffffff61372416565b82556001610eeb87610d1b565b6002811115610ef657fe5b1415610f4d5760028201546001600160a01b0316600090815260056020526040902060030154610f2c908263ffffffff61372416565b60028301546001600160a01b03166000908152600560205260409020600301555b806001600160a01b038616156110b2576000610f6983866135fc565b9050610f73613781565b6001600160a01b031663e7a49c2b88836040518363ffffffff1660e01b815260040180836001600160a01b03166001600160a01b0316815260200182815260200192505050600060405180830381600087803b158015610fd257600080fd5b505af1158015610fe6573d6000803e3d6000fd5b50505050610ff2613781565b6001600160a01b031663c7ee98c2611010848463ffffffff61372416565b6040518263ffffffff1660e01b815260040180828152602001915050600060405180830381600087803b15801561104657600080fd5b505af115801561105a573d6000803e3d6000fd5b5050604080516001600160a01b038b81168252602082018890528183018690529151918c1693507ff4b71fed8e2c9a8c67c388bc6d35ad20b9368a24eed6d565459f2b277b6c0c22925081900360600190a250611164565b6110ba613781565b6001600160a01b031663c7ee98c2826040518263ffffffff1660e01b815260040180828152602001915050600060405180830381600087803b1580156110ff57600080fd5b505af1158015611113573d6000803e3d6000fd5b5050604080516000808252602082018790528183015290516001600160a01b038b1693507ff4b71fed8e2c9a8c67c388bc6d35ad20b9368a24eed6d565459f2b277b6c0c2292509081900360600190a25b50506111ba565b604080516001600160a01b038681168252600060208301819052828401529151918716917ff4b71fed8e2c9a8c67c388bc6d35ad20b9368a24eed6d565459f2b277b6c0c229181900360600190a25b5050505050565b6040805163e189dedb60e01b8152601060048201526001600160a01b0383166024820152905160009173__$d23c89be677d40ab24c636937040b6165f$__9163e189dedb91604480820192602092909190829003018186803b15801561122657600080fd5b505af415801561123a573d6000803e3d6000fd5b505050506040513d602081101561125057600080fd5b505192915050565b6001600160a01b0390911660009081526006602081815260408084209484526007948501909152909120805460018201546002830154600384015460048501546005860154968601549786015460088701546009880154600a90980154969a95999498939792969395919360ff9091169291565b6112d461310e565b6112dc6131cc565b3360009081526005602052604090206006015481811061132d5760405162461bcd60e51b815260040180806020018281038252602881526020018061521f6028913960400191505060405180910390fd5b611335613320565b6001600160a01b0316638a19c8bc6040518163ffffffff1660e01b815260040160206040518083038186803b15801561136d57600080fd5b505afa158015611381573d6000803e3d6000fd5b505050506040513d602081101561139757600080fd5b50518211156113d75760405162461bcd60e51b81526004018080602001828103825260328152602001806151566032913960400191505060405180910390fd5b6113e23383836137e3565b5050565b6113ee61310e565b6113f66131cc565b3360008181526005602090815260408083208584526008810190925290912090916114219084610ce8565b61146e576040805162461bcd60e51b81526020600482015260196024820152781a5b9d985b1a59081d5b989bdb991a5b99c81b1bd8dac81251603a1b604482015290519081900360640190fd5b611476613320565b6001600160a01b0316638a19c8bc6040518163ffffffff1660e01b815260040160206040518083038186803b1580156114ae57600080fd5b505afa1580156114c2573d6000803e3d6000fd5b505050506040513d60208110156114d857600080fd5b50516001820154111561151c5760405162461bcd60e51b815260040180806020018281038252603b81526020018061511b603b913960400191505060405180910390fd5b80546001808301546000868152600886016020526040812081815590920191909155611546613781565b6001600160a01b031663e7a49c2b33846040518363ffffffff1660e01b815260040180836001600160a01b03166001600160a01b0316815260200182815260200192505050600060405180830381600087803b1580156115a557600080fd5b505af11580156115b9573d6000803e3d6000fd5b5050604080518881526020810186905280820185905290513393507f1340f1a8f3d456a649e1a12071dfa15655e3d09252131d0f980c3b405cc8dd2e92509081900360600190a25050505050565b61161381600080612836565b50565b6000601073__$d23c89be677d40ab24c636937040b6165f$__63b32ece5890916040518263ffffffff1660e01b81526004018082815260200191505060206040518083038186803b15801561166a57600080fd5b505af415801561167e573d6000803e3d6000fd5b505050506040513d602081101561169457600080fd5b5051905090565b6116a361310e565b6116ab6131cc565b6116b3613320565b6001600160a01b0316636841f2536040518163ffffffff1660e01b815260040160206040518083038186803b1580156116eb57600080fd5b505afa1580156116ff573d6000803e3d6000fd5b505050506040513d602081101561171557600080fd5b5051156117535760405162461bcd60e51b81526004018080602001828103825260378152602001806151e86037913960400191505060405180910390fd5b61175c84613a7d565b6117ad576040805162461bcd60e51b815260206004820152601c60248201527f696e76616c6964207265776172644375742070657263656e7461676500000000604482015290519081900360640190fd5b6117b683613a7d565b611807576040805162461bcd60e51b815260206004820152601b60248201527f696e76616c69642066656553686172652070657263656e746167650000000000604482015290519081900360640190fd5b611810336120a3565b611861576040805162461bcd60e51b815260206004820152601d60248201527f7472616e73636f646572206d7573742062652072656769737465726564000000604482015290519081900360640190fd5b33600090815260066020526040812090611879613320565b6001600160a01b0316638a19c8bc6040518163ffffffff1660e01b815260040160206040518083038186803b1580156118b157600080fd5b505afa1580156118c5573d6000803e3d6000fd5b505050506040513d60208110156118db57600080fd5b505190506118e833610c3f565b15806118f45750815481145b61192f5760405162461bcd60e51b815260040180806020018281038252604f815260200180615029604f913960600191505060405180910390fd5b60018201869055600282018590556040805163b0138c4760e01b815260106004820152336024820152905173__$d23c89be677d40ab24c636937040b6165f$__9163b0138c47916044808301926020929190829003018186803b15801561199557600080fd5b505af41580156119a9573d6000803e3d6000fd5b505050506040513d60208110156119bf57600080fd5b50516119f557336000818152600560205260409020600301546119f591906119ee84600163ffffffff61339d16565b8787613a86565b6040805187815260208101879052815133927f7346854431dbb3eb8e373c604abf89e90f4865b8447e1e2834d7b3e4677bf544928290030190a2505050505050565b6113e28282600080610afb565b611a4c61310e565b611a54613dd7565b611a5d836120a3565b611aae576040805162461bcd60e51b815260206004820152601d60248201527f7472616e73636f646572206d7573742062652072656769737465726564000000604482015290519081900360640190fd5b6000611ab8613320565b6001600160a01b0316638a19c8bc6040518163ffffffff1660e01b815260040160206040518083038186803b158015611af057600080fd5b505afa158015611b04573d6000803e3d6000fd5b505050506040513d6020811015611b1a57600080fd5b50516001600160a01b03851660009081526006602090815260408083208054600b82015486865260078301909452919093209394509192611b59614fa8565b611b7385611b6e88600163ffffffff61372416565b613ec6565b905083861115611bd35760018501546002860154611b9891849163ffffffff613f6d16565b600885015486811015611bca576000818152600787016020526040902060020154611bca90849063ffffffff613f7d16565b85600c01549350505b6002820154610120820151158015611bea57508685145b15611d04576000611bf9613781565b90506000611cb1611ca8836001600160a01b0316632de22cdb6040518163ffffffff1660e01b815260040160206040518083038186803b158015611c3c57600080fd5b505afa158015611c50573d6000803e3d6000fd5b505050506040513d6020811015611c6657600080fd5b505160408051634d73184d60e11b815290516001600160a01b03871691639ae6309a916004808301926020929190829003018186803b158015610bc057600080fd5b84600e54613f85565b90506000611cc38287600401546135fc565b90506000611cd7838363ffffffff61372416565b6009880154909150611cf99086611cf4848263ffffffff61339d16565b613f85565b610120870152505050505b6000611d148a85600501546135fc565b90506000611d288b8363ffffffff61372416565b90506000611d37838886613f85565b9050611d6082611d54838c600d015461339d90919063ffffffff16565b9063ffffffff61339d16565b600d8a0155611d7686868563ffffffff613fb016565b50505050600e9094019490945550505050505050565b60035481565b6001600160a01b0382166000908152600560209081526040808320848452600801909152902080546001909101545b9250929050565b600e5481565b6113e2828260008061169b565b600f5481565b611de961310e565b611df16131cc565b611df9613289565b3360009081526005602052604090206001015480611e54576040805162461bcd60e51b81526020600482015260136024820152726e6f206665657320746f20776974686472617760681b604482015290519081900360640190fd5b33600090815260056020526040812060010155611e6f613781565b6001600160a01b03166320283da933836040518363ffffffff1660e01b815260040180836001600160a01b03166001600160a01b0316815260200182815260200192505050600060405180830381600087803b158015611ece57600080fd5b505af1158015611ee2573d6000803e3d6000fd5b50506040513392507fd3719f04262b628e1d01a6ed24707f542cda51f144b5271149c7d0419436d00c9150600090a250565b60015481565b6000601073__$d23c89be677d40ab24c636937040b6165f$__63735bc2ca90916040518263ffffffff1660e01b81526004018082815260200191505060206040518083038186803b15801561166a57600080fd5b600e5490565b6001600160a01b0316600090815260066020526040902080546001820154600283015460088401546009850154600a860154600b870154600c880154600d890154600e90990154979996989597949693959294919390929190565b611fd7614044565b6040805163a176adaf60e01b81526010600482015260248101839052905173__$d23c89be677d40ab24c636937040b6165f$__9163a176adaf916044808301926000929190829003018186803b15801561203057600080fd5b505af4158015612044573d6000803e3d6000fd5b5050604080516020808252601490820152736e756d4163746976655472616e73636f6465727360601b8183015290517f9f5033568d78ae30f29f01e944f97b2216493bd19d1b46d429673acff3dcd6749350908190036060019150a150565b6001600160a01b03808216600081815260056020526040812060028101549193909291161480156120d45750805415155b9392505050565b6120e361310e565b6120eb6131cc565b6120f3613289565b3360009081526005602052604081209061210b613320565b6001600160a01b0316638a19c8bc6040518163ffffffff1660e01b815260040160206040518083038186803b15801561214357600080fd5b505afa158015612157573d6000803e3d6000fd5b505050506040513d602081101561216d57600080fd5b505160028084015491925089916001600160a01b03169061218d33610d1b565b600281111561219857fe5b14156121b9576121af83600163ffffffff61339d16565b6004850155612268565b6001600160a01b038116158015906121e35750886001600160a01b0316816001600160a01b031614155b15612268576121f1336120a3565b1561222d5760405162461bcd60e51b815260040180806020018281038252603d815260200180615188603d913960400191505060405180910390fd5b61223e83600163ffffffff61339d16565b6004850155835461225690839063ffffffff61339d16565b91506122688185600001548a8a614119565b600082116122a75760405162461bcd60e51b81526004018080602001828103825260288152602001806150f36028913960400191505060405180910390fd5b6002840180546001600160a01b0319166001600160a01b038b1617905583546122d0908b61339d565b84556122de898388886143bc565b8915612399576122ec614658565b6001600160a01b03166323b872dd33612303613781565b8d6040518463ffffffff1660e01b815260040180846001600160a01b03166001600160a01b03168152602001836001600160a01b03166001600160a01b031681526020018281526020019350505050602060405180830381600087803b15801561236c57600080fd5b505af1158015612380573d6000803e3d6000fd5b505050506040513d602081101561239657600080fd5b50505b8354604080518c81526020810192909252805133926001600160a01b0385811693908e16927fe5917769f276ddca9f2ee7c6b0b33e1d1e1b61008010ce622c632dd20d168a239281900390910190a450505050505050505050565b60025467ffffffffffffffff1681565b61240c6146c1565b600f54600e55565b61241c614044565b60048190556040805160208082526017908201527f6d61784561726e696e6773436c61696d73526f756e64730000000000000000008183015290517f9f5033568d78ae30f29f01e944f97b2216493bd19d1b46d429673acff3dcd6749181900360600190a150565b61248c61310e565b6124946131cc565b61249c613289565b60026124a733610d1b565b60028111156124b257fe5b14156124fd576040805162461bcd60e51b815260206004820152601560248201527418d85b1b195c881b5d5cdd08189948189bdb991959605a1b604482015290519081900360640190fd5b612509338484846133f7565b505050565b61251661310e565b61251e6131cc565b6000612528613320565b6001600160a01b0316638a19c8bc6040518163ffffffff1660e01b815260040160206040518083038186803b15801561256057600080fd5b505afa158015612574573d6000803e3d6000fd5b505050506040513d602081101561258a57600080fd5b5051905061259733610c3f565b6125d25760405162461bcd60e51b81526004018080602001828103825260238152602001806151c56023913960400191505060405180910390fd5b336000908152600660205260409020548114156126205760405162461bcd60e51b815260040180806020018281038252603681526020018061509c6036913960400191505060405180910390fd5b336000908152600660209081526040808320848452600781019092529091206001820154600283015461265a91839163ffffffff613f6d16565b60088201548381101561268c57600081815260078401602052604090206002015461268c90839063ffffffff613f7d16565b6000612696613781565b6001600160a01b0316637dbedad58460020154600e546040518363ffffffff1660e01b81526004018083815260200182815260200192505050602060405180830381600087803b1580156126e957600080fd5b505af11580156126fd573d6000803e3d6000fd5b505050506040513d602081101561271357600080fd5b505190506127243382878a8a6147b1565b84845560408051828152905133917f619caafabdd75649b302ba8419e48cccf64f37f1983ac4727cfb38b57703ffc9919081900360200190a250505050505050565b6000601073__$d23c89be677d40ab24c636937040b6165f$__632ebb2fed90916040518263ffffffff1660e01b81526004018082815260200191505060206040518083038186803b15801561166a57600080fd5b60006127c5826120a3565b156127d257506001610ce3565b506000919050565b6127e26148f6565b600080546001600160a01b0383166001600160a01b0319909116811790915560408051918252517f4ff638452bbf33c012645d18ae6f05515ff5f2d1dfb0cece8cbf018c60903f709181900360200190a150565b61283e61310e565b6128466131cc565b61284e613289565b600161285933610d1b565b600281111561286457fe5b146128ae576040805162461bcd60e51b815260206004820152601560248201527418d85b1b195c881b5d5cdd08189948189bdb991959605a1b604482015290519081900360640190fd5b336000908152600560205260409020836128f95760405162461bcd60e51b81526004018080602001828103825260248152602001806150056024913960400191505060405180910390fd5b80548411156129395760405162461bcd60e51b81526004018080602001828103825260248152602001806150786024913960400191505060405180910390fd5b60028101546001600160a01b03166000612951613320565b6001600160a01b0316638a19c8bc6040518163ffffffff1660e01b815260040160206040518083038186803b15801561298957600080fd5b505afa15801561299d573d6000803e3d6000fd5b505050506040513d60208110156129b357600080fd5b50516002549091506000906129d990839067ffffffffffffffff1663ffffffff61339d16565b60078501546040805180820182528a81526020808201858152600085815260088b0190925292902090518155905160019182015591925090612a2290829063ffffffff61339d16565b60078601558454612a39908963ffffffff61372416565b808655612af0576002850180546001600160a01b031916905560006004808701919091556040805163b0138c4760e01b81526010928101929092523360248301525173__$d23c89be677d40ab24c636937040b6165f$__9163b0138c47916044808301926020929190829003018186803b158015612ab657600080fd5b505af4158015612aca573d6000803e3d6000fd5b505050506040513d6020811015612ae057600080fd5b505115612af057612af033613621565b612afc84898989614119565b60408051828152602081018a9052808201849052905133916001600160a01b038716917f2d5d98d189bee5496a08db2a5948cb7e5e786f09d17d0c3f228eb41776c24a069181900360600190a35050505050505050565b600080612b608484614955565b50949350505050565b6001600160a01b031660009081526005602052604090206003015490565b6001600160a01b03908116600090815260056020526040902080546001820154600283015460038401546004850154600686015460079096015494979396929092169490939192909190565b6113e282826000806000806120db565b612beb61310e565b612bf36131cc565b33600090815260056020526040812090612c0b613320565b6001600160a01b0316631e6d4c2260346040518263ffffffff1660e01b81526004018082815260200191505060206040518083038186803b158015612c4f57600080fd5b505afa158015612c63573d6000803e3d6000fd5b505050506040513d6020811015612c7957600080fd5b50516006830154909150818110612cd7576040805162461bcd60e51b815260206004820152601a60248201527f416c726561647920636c61696d656420666f72204c49502d3532000000000000604482015290519081900360640190fd5b60408051336020808301919091528183018c905260608083018c905283518084039091018152608083018085528151918301919091206000546d13595c9adb1954db985c1cda1bdd60921b909252845193849003608e018420631c2d8fb360e31b8552600485015293516001600160a01b03919091169263e16c7d98926024808301939192829003018186803b158015612d7057600080fd5b505afa158015612d84573d6000803e3d6000fd5b505050506040513d6020811015612d9a57600080fd5b505160408051652624a8169a9960d11b81529051908190036006018120630280a0c760e21b82526004820181815260448301859052606060248401908152606484018c90526001600160a01b0390941693630a02831c938d928d928892608401856020860280828437600081840152601f19601f8201169050808301925050509550505050505060206040518083038186803b158015612e3957600080fd5b505afa158015612e4d573d6000803e3d6000fd5b505050506040513d6020811015612e6357600080fd5b5051612eb6576040805162461bcd60e51b815260206004820152601760248201527f4d65726b6c652070726f6f6620697320696e76616c6964000000000000000000604482015290519081900360640190fd5b6002840154845433916001600160a01b0316907fd7eab0765b772ea6ea859d5633baf737502198012e930f257f90013d9b21109490612efc908e9063ffffffff61372416565b6001880154612f12908e9063ffffffff61372416565b612f2387600163ffffffff61339d16565b6040805193845260208401929092528282015260608201889052519081900360800190a3600684018390558984556001840189905584156130565760006060306001600160a01b031688886040518083838082843760405192019450600093509091505080830381855af49150503d8060008114612fbd576040519150601f19603f3d011682016040523d82523d6000602084013e612fc2565b606091505b50915091508181906130525760405162461bcd60e51b81526004018080602001828103825283818151815260200191508051906020019080838360005b83811015613017578181015183820152602001612fff565b50505050905090810190601f1680156130445780820380516001836020036101000a031916815260200191505b509250505060405180910390fd5b5050505b50505050505050505050565b61161381600080612484565b613076614044565b6002805467ffffffffffffffff191667ffffffffffffffff8316179055604080516020808252600f908201526e1d5b989bdb991a5b99d4195c9a5bd9608a1b8183015290517f9f5033568d78ae30f29f01e944f97b2216493bd19d1b46d429673acff3dcd674916060908290030190a150565b6000806130f68484614955565b95945050505050565b6000546001600160a01b031681565b6000809054906101000a90046001600160a01b03166001600160a01b0316635c975abb6040518163ffffffff1660e01b815260040160206040518083038186803b15801561315b57600080fd5b505afa15801561316f573d6000803e3d6000fd5b505050506040513d602081101561318557600080fd5b505115610dd9576040805162461bcd60e51b815260206004820152601060248201526f1cde5cdd195b481a5cc81c185d5cd95960821b604482015290519081900360640190fd5b6131d4613320565b6001600160a01b031663219bc76c6040518163ffffffff1660e01b815260040160206040518083038186803b15801561320c57600080fd5b505afa158015613220573d6000803e3d6000fd5b505050506040513d602081101561323657600080fd5b5051610dd9576040805162461bcd60e51b815260206004820181905260248201527f63757272656e7420726f756e64206973206e6f7420696e697469616c697a6564604482015290519081900360640190fd5b6000613293613320565b6001600160a01b0316638a19c8bc6040518163ffffffff1660e01b815260040160206040518083038186803b1580156132cb57600080fd5b505afa1580156132df573d6000803e3d6000fd5b505050506040513d60208110156132f557600080fd5b505133600090815260056020526040902060060154909150818110156113e2576113e23383836137e3565b60008054604080516c2937bab73239a6b0b730b3b2b960991b8152815190819003600d018120631c2d8fb360e31b8252600482015290516001600160a01b039092169163e16c7d9891602480820192602092909190829003018186803b15801561338957600080fd5b505afa15801561167e573d6000803e3d6000fd5b6000828201838110156120d4576040805162461bcd60e51b815260206004820152601b60248201527f536166654d6174683a206164646974696f6e206f766572666c6f770000000000604482015290519081900360640190fd5b6001600160a01b0384166000908152600560209081526040808320868452600881019092529091206134298686610ce8565b613476576040805162461bcd60e51b81526020600482015260196024820152781a5b9d985b1a59081d5b989bdb991a5b99c81b1bd8dac81251603a1b604482015290519081900360640190fd5b8054825461348a908263ffffffff61339d16565b8355600086815260088401602052604081208181556001015560028301546134bd906001600160a01b03168287876143bc565b6002830154604080518881526020810184905281516001600160a01b03808c169416927f9f5b64cc71e1e26ff178caaa7877a04d8ce66fde989251870e80e6fbee690c17928290030190a350505050505050565b60005460408051672b32b934b334b2b960c11b81528151908190036008018120631c2d8fb360e31b8252600482015290516001600160a01b039092169163e16c7d9891602480820192602092909190829003018186803b15801561357457600080fd5b505afa158015613588573d6000803e3d6000fd5b505050506040513d602081101561359e57600080fd5b50516001600160a01b03163314610dd9576040805162461bcd60e51b815260206004820152601760248201527f63616c6c6572206d757374206265205665726966696572000000000000000000604482015290519081900360640190fd5b60006120d4620f4240613615858563ffffffff614b6916565b9063ffffffff614bc216565b60408051635d35e00760e01b8152601060048201526001600160a01b0383166024820152905173__$d23c89be677d40ab24c636937040b6165f$__91635d35e007916044808301926000929190829003018186803b15801561368257600080fd5b505af4158015613696573d6000803e3d6000fd5b505050506136b56136a682612b69565b600f549063ffffffff61372416565b600f5560006136c76001610b88613320565b6001600160a01b038316600081815260066020908152604091829020600a018490558151848152915193945091927ffee3e693fc72d0a0a673805f3e606c551f4c677b9072444b90dd2d0406bc995c929181900390910190a25050565b60008282111561377b576040805162461bcd60e51b815260206004820152601e60248201527f536166654d6174683a207375627472616374696f6e206f766572666c6f770000604482015290519081900360640190fd5b50900390565b60008054604080516526b4b73a32b960d11b81528151908190036006018120631c2d8fb360e31b8252600482015290516001600160a01b039092169163e16c7d9891602480820192602092909190829003018186803b15801561338957600080fd5b6001600160a01b03831660009081526005602052604081209061380d83600163ffffffff61339d16565b82546001840154919250906000613822613320565b6001600160a01b0316631e6d4c2260246040518263ffffffff1660e01b81526004018082815260200191505060206040518083038186803b15801561386657600080fd5b505afa15801561387a573d6000803e3d6000fd5b505050506040513d602081101561389057600080fd5b505160028601549091506001600160a01b0316156139e25780841161392c576000818811156138bf57816138c1565b875b6004549091506138d7828963ffffffff61372416565b111561392a576040805162461bcd60e51b815260206004820181905260248201527f746f6f206d616e7920726f756e647320746f20636c61696d207468726f756768604482015290519081900360640190fd5b505b6139368888614955565b60028701546001600160a01b031660009081526006602090815260408083208c84526007810190925290912060098101549396509194509161398f57815460009081526007830160205260409020600990810154908201555b600a8101546139b857600e82015460009081526007830160205260409020600a90810154908201555b60028701546001600160a01b038b8116911614156139df576000600d8301819055600c8301555b50505b600285015485546001600160a01b03808b169216907fd7eab0765b772ea6ea859d5633baf737502198012e930f257f90013d9b21109490613a2a90879063ffffffff61372416565b6001890154613a4090879063ffffffff61372416565b604080519283526020830191909152818101899052606082018c9052519081900360800190a3506006840195909555825550600101919091555050565b620f4240101590565b600f54604080516304aa129960e41b815260106004820152905173__$d23c89be677d40ab24c636937040b6165f$__91634aa12990916024808301926020929190829003018186803b158015613adb57600080fd5b505af4158015613aef573d6000803e3d6000fd5b505050506040513d6020811015613b0557600080fd5b505115613c95576000601073__$d23c89be677d40ab24c636937040b6165f$__6372e40b2690916040518263ffffffff1660e01b81526004018082815260200191505060206040518083038186803b158015613b6057600080fd5b505af4158015613b74573d6000803e3d6000fd5b505050506040513d6020811015613b8a57600080fd5b505190506000613b9982612b69565b9050808711613baa575050506111ba565b60408051635d35e00760e01b8152601060048201526001600160a01b0384166024820152905173__$d23c89be677d40ab24c636937040b6165f$__91635d35e007916044808301926000929190829003018186803b158015613c0b57600080fd5b505af4158015613c1f573d6000803e3d6000fd5b5050506001600160a01b0383166000908152600660205260409020600a0187905550613c51838263ffffffff61372416565b6040805188815290519194506001600160a01b038416917ffee3e693fc72d0a0a673805f3e606c551f4c677b9072444b90dd2d0406bc995c9181900360200190a250505b604080516327dd54d360e11b8152601060048201526001600160a01b03808916602483015260448201889052808616606483015284166084820152905173__$d23c89be677d40ab24c636937040b6165f$__91634fbaa9a69160a4808301926000929190829003018186803b158015613d0d57600080fd5b505af4158015613d21573d6000803e3d6000fd5b50505050613d38858261339d90919063ffffffff16565b6001600160a01b03871660009081526006602090815260408083206008810189905560098101899055600019600a8201558884526007810190925290912091925090613d8a908763ffffffff613f7d16565b600f8290556040805186815290516001600160a01b038916917f65d72d782835d64c3287844a829608d5abdc7e864cc9affe96d910ab3db665e9919081900360200190a250505050505050565b600054604080516b2a34b1b5b2ba213937b5b2b960a11b8152815190819003600c018120631c2d8fb360e31b8252600482015290516001600160a01b039092169163e16c7d9891602480820192602092909190829003018186803b158015613e3e57600080fd5b505afa158015613e52573d6000803e3d6000fd5b505050506040513d6020811015613e6857600080fd5b50516001600160a01b03163314610dd9576040805162461bcd60e51b815260206004820152601b60248201527f63616c6c6572206d757374206265205469636b657442726f6b65720000000000604482015290519081900360640190fd5b613ece614fa8565b6000828152600784016020818152604083206009810154610120860190815293869052919052600a015461014083015283549051158015613f0e57508281105b15613f2e5760008181526007850160205260409020600901546101208301525b600e840154610140830151158015613f4557508381105b15613f655760008181526007860160205260409020600a01546101408401525b505092915050565b6004830191909155600590910155565b600290910155565b6000613fa8620f4240613615613f9b8686614c2c565b879063ffffffff614b6916565b949350505050565b610140820151610120830151600090613fd357613fce600180614c45565b613fda565b8361012001515b905084600a01546000141561401557614008613ffb82858860020154614c67565b839063ffffffff61339d16565b600a860155506125099050565b61403861402782858860020154614c67565b600a8701549063ffffffff61339d16565b600a8601555050505050565b6000809054906101000a90046001600160a01b03166001600160a01b0316638da5cb5b6040518163ffffffff1660e01b815260040160206040518083038186803b15801561409157600080fd5b505afa1580156140a5573d6000803e3d6000fd5b505050506040513d60208110156140bb57600080fd5b50516001600160a01b03163314610dd9576040805162461bcd60e51b815260206004820152601f60248201527f63616c6c6572206d75737420626520436f6e74726f6c6c6572206f776e657200604482015290519081900360640190fd5b6040805163b0138c4760e01b8152601060048201526001600160a01b0386166024820152905173__$d23c89be677d40ab24c636937040b6165f$__9163b0138c47916044808301926020929190829003018186803b15801561417a57600080fd5b505af415801561418e573d6000803e3d6000fd5b505050506040513d60208110156141a457600080fd5b50511561436b5760006141b685612b69565b905060006141ca828663ffffffff61372416565b905060006141d6613320565b6001600160a01b0316638a19c8bc6040518163ffffffff1660e01b815260040160206040518083038186803b15801561420e57600080fd5b505afa158015614222573d6000803e3d6000fd5b505050506040513d602081101561423857600080fd5b50519050600061424f82600163ffffffff61339d16565b60408051631c11bf7f60e11b8152601060048201526001600160a01b03808c16602483015260448201879052808a16606483015288166084820152905191925073__$d23c89be677d40ab24c636937040b6165f$__916338237efe9160a480820192600092909190829003018186803b1580156142cb57600080fd5b505af41580156142df573d6000803e3d6000fd5b5050600f546142f7925090508863ffffffff61372416565b600f556001600160a01b0388166000908152600660205260409020600881015483111561433e576000838152600782016020526040902061433e908663ffffffff613f7d16565b6008810182905560008281526007820160205260409020614365908563ffffffff613f7d16565b50505050505b6001600160a01b038416600090815260056020526040902060030154614397908463ffffffff61372416565b6001600160a01b03909416600090815260056020526040902060030193909355505050565b6143c5846120a3565b1561462c5760006143d585612b69565b905060006143e9828663ffffffff61339d16565b905060006143f5613320565b6001600160a01b0316638a19c8bc6040518163ffffffff1660e01b815260040160206040518083038186803b15801561442d57600080fd5b505afa158015614441573d6000803e3d6000fd5b505050506040513d602081101561445757600080fd5b50519050600061446e82600163ffffffff61339d16565b6040805163b0138c4760e01b8152601060048201526001600160a01b038b166024820152905191925073__$d23c89be677d40ab24c636937040b6165f$__9163b0138c4791604480820192602092909190829003018186803b1580156144d357600080fd5b505af41580156144e7573d6000803e3d6000fd5b505050506040513d60208110156144fd57600080fd5b50511561461a5760408051631c11bf7f60e11b8152601060048201526001600160a01b03808b16602483015260448201869052808916606483015287166084820152905173__$d23c89be677d40ab24c636937040b6165f$__916338237efe9160a4808301926000929190829003018186803b15801561457c57600080fd5b505af4158015614590573d6000803e3d6000fd5b5050600f546145a8925090508863ffffffff61339d16565b600f556001600160a01b038816600090815260066020526040902060088101548311156145ef57600083815260078201602052604090206145ef908663ffffffff613f7d16565b6000828152600782016020526040902061460f908563ffffffff613f7d16565b600801819055614627565b6146278884838989613a86565b505050505b6001600160a01b038416600090815260056020526040902060030154614397908463ffffffff61339d16565b60008054604080516c2634bb32b832b2b92a37b5b2b760991b8152815190819003600d018120631c2d8fb360e31b8252600482015290516001600160a01b039092169163e16c7d9891602480820192602092909190829003018186803b15801561338957600080fd5b600054604080516c2937bab73239a6b0b730b3b2b960991b8152815190819003600d018120631c2d8fb360e31b8252600482015290516001600160a01b039092169163e16c7d9891602480820192602092909190829003018186803b15801561472957600080fd5b505afa15801561473d573d6000803e3d6000fd5b505050506040513d602081101561475357600080fd5b50516001600160a01b03163314610dd9576040805162461bcd60e51b815260206004820152601c60248201527f63616c6c6572206d75737420626520526f756e64734d616e6167657200000000604482015290519081900360640190fd5b6001600160a01b03851660009081526006602090815260408083208684526007810190925280832082548452908320600c830154600b8401556004820154929391929091906148019089906135fc565b90506000614815898363ffffffff61372416565b9050600061482c8287600b01548760020154613f85565b905061484983611d548389600c015461339d90919063ffffffff16565b600c870155604080516101608101825285548152600186015460208201526002860154918101919091526003850154606082015260048501546080820152600585015460a0820152600685015460c0820152600785015460e0820152600885015460ff1615156101008201526009850154610120820152600a8501546101408201526148dd9086908463ffffffff614c8616565b6148e98b8b8a8a6143bc565b5050505050505050505050565b6000546001600160a01b03163314610dd9576040805162461bcd60e51b815260206004820152601960248201527f63616c6c6572206d75737420626520436f6e74726f6c6c657200000000000000604482015290519081900360640190fd5b6001600160a01b03808316600090815260056020908152604080832060028101549094168352600691829052822060018085015485549386015493959094909390916149a7919063ffffffff61339d16565b60028401549091506001600160a01b03908116908816811460006149c9613320565b6001600160a01b0316631e6d4c2260246040518263ffffffff1660e01b81526004018082815260200191505060206040518083038186803b158015614a0d57600080fd5b505afa158015614a21573d6000803e3d6000fd5b505050506040513d6020811015614a3757600080fd5b505190505b888411158015614a4c5750808411155b15614aee57600084815260078601602052604090208185148015614a755750600881015460ff16155b15614a805750614aee565b614a8981614cdc565b15614ad557614aaf614aa2828b8663ffffffff614ce516565b899063ffffffff61339d16565b9750614ad2614ac5828b8663ffffffff614d3916565b8a9063ffffffff61339d16565b98505b614ae685600163ffffffff61339d16565b945050614a3c565b88841115614b025750611dc1945050505050565b614b1f85614b1786600163ffffffff61372416565b8b8b8b614d63565b90985096508115614b5c57600c850154614b4090899063ffffffff61339d16565b9750614b5985600d01548861339d90919063ffffffff16565b96505b5050505050509250929050565b600082614b7857506000610d15565b82820282848281614b8557fe5b04146120d45760405162461bcd60e51b81526004018080602001828103825260218152602001806150d26021913960400191505060405180910390fd5b6000808211614c18576040805162461bcd60e51b815260206004820152601a60248201527f536166654d6174683a206469766973696f6e206279207a65726f000000000000604482015290519081900360640190fd5b6000828481614c2357fe5b04949350505050565b60006120d48261361585620f424063ffffffff614b6916565b60006120d482613615856b033b2e3c9fd0803ce800000063ffffffff614b6916565b6000613fa86b033b2e3c9fd0803ce8000000613615613f9b8686614c45565b600082610120015160001415614ca657614ca1600180614c45565b614cad565b8261012001515b9050614cce614cc182848760020154614c67565b829063ffffffff61339d16565b846009018190555050505050565b60030154151590565b60088301546000908190819060ff1615614d0e57614d04868686614e48565b9092509050614d1f565b614d19868686614e96565b90925090505b614d2f828263ffffffff61339d16565b9695505050505050565b60088301546000908190819060ff1615614d5857614d04868686614f06565b614d19868686614f4e565b6000806000614d73600180614c2c565b9050614d7d614fa8565b600088815260078a0160208181526040832060098101546101208601908152938c9052919052600a015461014083015251614dbb5761012081018290525b614dc3614fa8565b614dcd8a89613ec6565b905080610120015160001415614de65761012081018390525b614e22614e1588614e0a85610140015185610140015161372490919063ffffffff16565b856101200151613f85565b879063ffffffff61339d16565b9350614e3987826101200151846101200151613f85565b94505050509550959350505050565b600080600080866003015411614e5f576000614e72565b614e728660010154868860030154613f85565b905083614e8157806000614e88565b8086600701545b92509250505b935093915050565b600383015460009081908190819015614eea576000614ebd886001015489600501546135fc565b6001890154909150614ed5908263ffffffff61372416565b9250614ee681888a60030154613f85565b9150505b8415614ef95792509050614e8e565b925060009150614e8e9050565b600080600080866003015411614f1d576000614f30565b614f308660000154868860030154613f85565b905083614f3f57806000614e88565b60069095015494959350505050565b600383015460009081908190819015614eea57614f73876000015488600401546135fc565b8754909250614f9790614f8c908463ffffffff61372416565b878960030154613f85565b90508415614ef95792509050614e8e565b60405180610160016040528060008152602001600081526020016000815260200160008152602001600081526020016000815260200160008152602001600081526020016000151581526020016000815260200160008152509056fe756e626f6e6420616d6f756e74206d7573742062652067726561746572207468616e203063616c6c65722063616e277420626520616374697665206f72206d757374206861766520616c72656164792063616c6c65642072657761726420666f72207468652063757272656e7420726f756e64616d6f756e742069732067726561746572207468616e20626f6e64656420616d6f756e7463616c6c65722068617320616c72656164792063616c6c65642072657761726420666f72207468652063757272656e7420726f756e64536166654d6174683a206d756c7469706c69636174696f6e206f766572666c6f7764656c65676174696f6e20616d6f756e74206d7573742062652067726561746572207468616e2030776974686472617720726f756e64206d757374206265206265666f7265206f7220657175616c20746f207468652063757272656e7420726f756e64656e6420726f756e64206d757374206265206265666f7265206f7220657175616c20746f2063757272656e7420726f756e6472656769737465726564207472616e73636f646572732063616e27742064656c656761746520746f7761726473206f746865722061646472657373657363616c6c6572206d75737420626520616e20616374697665207472616e73636f64657263616e277420757064617465207472616e73636f64657220706172616d732c2063757272656e7420726f756e64206973206c6f636b6564656e6420726f756e64206d757374206265206166746572206c61737420636c61696d20726f756e64a265627a7a723158208fc9b4e5cd18cc397d3d0dad1065c325ed2585239d77daeb0a4f9a3b85e1673c64736f6c634300050b0032",
  "linkReferences": {
    "contracts/libraries/SortedDoublyLL.sol": {
      "SortedDoublyLL": [
        {
          "length": 20,
          "start": 3776
        },
        {
          "length": 20,
          "start": 4692
        },
        {
          "length": 20,
          "start": 5764
        },
        {
          "length": 20,
          "start": 6596
        },
        {
          "length": 20,
          "start": 8072
        },
        {
          "length": 20,
          "start": 8287
        },
        {
          "length": 20,
          "start": 10196
        },
        {
          "length": 20,
          "start": 10981
        },
        {
          "length": 20,
          "start": 14001
        },
        {
          "length": 20,
          "start": 15114
        },
        {
          "length": 20,
          "start": 15226
        },
        {
          "length": 20,
          "start": 15418
        },
        {
          "length": 20,
          "start": 15676
        },
        {
          "length": 20,
          "start": 16809
        },
        {
          "length": 20,
          "start": 17145
        },
        {
          "length": 20,
          "start": 17665
        },
        {
          "length": 20,
          "start": 17835
        }
      ]
    }
  },
  "deployedLinkReferences": {
    "contracts/libraries/SortedDoublyLL.sol": {
      "SortedDoublyLL": [
        {
          "length": 20,
          "start": 3672
        },
        {
          "length": 20,
          "start": 4588
        },
        {
          "length": 20,
          "start": 5660
        },
        {
          "length": 20,
          "start": 6492
        },
        {
          "length": 20,
          "start": 7968
        },
        {
          "length": 20,
          "start": 8183
        },
        {
          "length": 20,
          "start": 10092
        },
        {
          "length": 20,
          "start": 10877
        },
        {
          "length": 20,
          "start": 13897
        },
        {
          "length": 20,
          "start": 15010
        },
        {
          "length": 20,
          "start": 15122
        },
        {
          "length": 20,
          "start": 15314
        },
        {
          "length": 20,
          "start": 15572
        },
        {
          "length": 20,
          "start": 16705
        },
        {
          "length": 20,
          "start": 17041
        },
        {
          "length": 20,
          "start": 17561
        },
        {
          "length": 20,
          "start": 17731
        }
      ]
    }
  }
}