{"abi":[{"type":"function","name":"didBorrowerDefault","inputs":[{"name":"_poolID","type":"address","internalType":"address"}],"outputs":[{"name":"","type":"bool","internalType":"bool"}],"stateMutability":"view"},{"type":"function","name":"getCurrentInstalmentInterval","inputs":[{"name":"_poolID","type":"address","internalType":"address"}],"outputs":[{"name":"","type":"uint256","internalType":"uint256"}],"stateMutability":"view"},{"type":"function","name":"getCurrentLoanInterval","inputs":[{"name":"_poolID","type":"address","internalType":"address"}],"outputs":[{"name":"","type":"uint256","internalType":"uint256"}],"stateMutability":"view"},{"type":"function","name":"getGracePeriodFraction","inputs":[],"outputs":[{"name":"","type":"uint256","internalType":"uint256"}],"stateMutability":"view"},{"type":"function","name":"getInstalmentsCompleted","inputs":[{"name":"_poolID","type":"address","internalType":"address"}],"outputs":[{"name":"","type":"uint256","internalType":"uint256"}],"stateMutability":"view"},{"type":"function","name":"getInterest","inputs":[{"name":"_poolID","type":"address","internalType":"address"},{"name":"_scaledUpTime","type":"uint256","internalType":"uint256"}],"outputs":[{"name":"","type":"uint256","internalType":"uint256"}],"stateMutability":"view"},{"type":"function","name":"getInterestCalculationVars","inputs":[{"name":"_poolID","type":"address","internalType":"address"}],"outputs":[{"name":"","type":"uint256","internalType":"uint256"},{"name":"","type":"uint256","internalType":"uint256"}],"stateMutability":"view"},{"type":"function","name":"getInterestDueTillInstalmentDeadline","inputs":[{"name":"_poolID","type":"address","internalType":"address"}],"outputs":[{"name":"","type":"uint256","internalType":"uint256"}],"stateMutability":"view"},{"type":"function","name":"getInterestLeft","inputs":[{"name":"_poolID","type":"address","internalType":"address"}],"outputs":[{"name":"","type":"uint256","internalType":"uint256"}],"stateMutability":"view"},{"type":"function","name":"getInterestPerSecond","inputs":[{"name":"_poolID","type":"address","internalType":"address"}],"outputs":[{"name":"","type":"uint256","internalType":"uint256"}],"stateMutability":"view"},{"type":"function","name":"getNextInstalmentDeadline","inputs":[{"name":"_poolID","type":"address","internalType":"address"}],"outputs":[{"name":"","type":"uint256","internalType":"uint256"}],"stateMutability":"view"},{"type":"function","name":"getRepaidDuration","inputs":[{"name":"_poolID","type":"address","internalType":"address"},{"name":"_amount","type":"uint256","internalType":"uint256"}],"outputs":[{"name":"","type":"uint256","internalType":"uint256"}],"stateMutability":"view"},{"type":"function","name":"getTotalRepaidAmount","inputs":[{"name":"_poolID","type":"address","internalType":"address"}],"outputs":[{"name":"","type":"uint256","internalType":"uint256"}],"stateMutability":"view"},{"type":"function","name":"gracePenaltyRate","inputs":[],"outputs":[{"name":"","type":"uint128","internalType":"uint128"}],"stateMutability":"view"},{"type":"function","name":"gracePeriodFraction","inputs":[],"outputs":[{"name":"","type":"uint128","internalType":"uint128"}],"stateMutability":"view"},{"type":"function","name":"initialize","inputs":[{"name":"_poolFactory","type":"address","internalType":"address"},{"name":"_gracePenaltyRate","type":"uint128","internalType":"uint128"},{"name":"_gracePeriodFraction","type":"uint128","internalType":"uint128"}],"outputs":[],"stateMutability":"nonpayable"},{"type":"function","name":"initializeRepayment","inputs":[{"name":"numberOfTotalRepayments","type":"uint64","internalType":"uint64"},{"name":"repaymentInterval","type":"uint256","internalType":"uint256"},{"name":"borrowRate","type":"uint256","internalType":"uint256"},{"name":"loanStartTime","type":"uint256","internalType":"uint256"},{"name":"lentAsset","type":"address","internalType":"address"}],"outputs":[],"stateMutability":"nonpayable"},{"type":"function","name":"isGracePenaltyApplicable","inputs":[{"name":"_poolID","type":"address","internalType":"address"}],"outputs":[{"name":"","type":"bool","internalType":"bool"}],"stateMutability":"view"},{"type":"function","name":"repay","inputs":[{"name":"_poolID","type":"address","internalType":"address"},{"name":"_amount","type":"uint256","internalType":"uint256"}],"outputs":[],"stateMutability":"nonpayable"},{"type":"function","name":"repayConstants","inputs":[{"name":"","type":"address","internalType":"address"}],"outputs":[{"name":"numberOfTotalRepayments","type":"uint64","internalType":"uint64"},{"name":"repayAsset","type":"address","internalType":"address"},{"name":"gracePenaltyRate","type":"uint128","internalType":"uint128"},{"name":"gracePeriodFraction","type":"uint128","internalType":"uint128"},{"name":"borrowRate","type":"uint256","internalType":"uint256"},{"name":"repaymentInterval","type":"uint256","internalType":"uint256"},{"name":"loanDuration","type":"uint256","internalType":"uint256"},{"name":"loanStartTime","type":"uint256","internalType":"uint256"}],"stateMutability":"view"},{"type":"function","name":"repayPrincipal","inputs":[{"name":"_poolID","type":"address","internalType":"address"}],"outputs":[],"stateMutability":"nonpayable"},{"type":"function","name":"repayVariables","inputs":[{"name":"","type":"address","internalType":"address"}],"outputs":[{"name":"repaidAmount","type":"uint256","internalType":"uint256"},{"name":"loanDurationCovered","type":"uint256","internalType":"uint256"}],"stateMutability":"view"},{"type":"function","name":"updateGracePenaltyRate","inputs":[{"name":"_gracePenaltyRate","type":"uint128","internalType":"uint128"}],"outputs":[],"stateMutability":"nonpayable"},{"type":"function","name":"updateGracePeriodFraction","inputs":[{"name":"_gracePeriodFraction","type":"uint128","internalType":"uint128"}],"outputs":[],"stateMutability":"nonpayable"},{"type":"function","name":"updatePoolFactory","inputs":[{"name":"_poolFactory","type":"address","internalType":"address"}],"outputs":[],"stateMutability":"nonpayable"},{"type":"event","name":"GracePenaltyRateUpdated","inputs":[{"name":"gracePenaltyRate","type":"uint256","indexed":true,"internalType":"uint256"}],"anonymous":false},{"type":"event","name":"GracePenaltyRepaid","inputs":[{"name":"poolID","type":"address","indexed":true,"internalType":"address"},{"name":"repayAmount","type":"uint256","indexed":false,"internalType":"uint256"}],"anonymous":false},{"type":"event","name":"GracePeriodFractionUpdated","inputs":[{"name":"gracePeriodFraction","type":"uint256","indexed":true,"internalType":"uint256"}],"anonymous":false},{"type":"event","name":"InterestRepaid","inputs":[{"name":"poolID","type":"address","indexed":true,"internalType":"address"},{"name":"repayAmount","type":"uint256","indexed":false,"internalType":"uint256"}],"anonymous":false},{"type":"event","name":"InterestRepaymentComplete","inputs":[{"name":"poolID","type":"address","indexed":true,"internalType":"address"},{"name":"repayAmount","type":"uint256","indexed":false,"internalType":"uint256"}],"anonymous":false},{"type":"event","name":"PoolFactoryUpdated","inputs":[{"name":"poolFactory","type":"address","indexed":true,"internalType":"address"}],"anonymous":false},{"type":"event","name":"PrincipalRepaid","inputs":[{"name":"poolID","type":"address","indexed":true,"internalType":"address"},{"name":"repayAmount","type":"uint256","indexed":false,"internalType":"uint256"}],"anonymous":false}],"bytecode":{"object":"0x608060405234801561001057600080fd5b50613a6a806100206000396000f3fe608060405234801561001057600080fd5b50600436106101735760003560e01c80637e228c3c116100de578063d6cf57e611610097578063f2a8a80611610071578063f2a8a806146108b2578063fa249a891461090a578063fb780e891461094a578063ffe90fd5146109a257610173565b8063d6cf57e6146107c6578063dfcc8ce714610828578063eeb69a241461085857610173565b80637e228c3c146105465780638af7cad4146105a857806390025355146105e8578063bf3b8e4b14610647578063c006c5291461069f578063d21449511461076c57610173565b80632c7f475a116101305780632c7f475a1461033057806335e3c8011461038857806345f8f010146103b85780634bbf2047146103fc57806369a4a097146104545780636de6ad0b146104ca57610173565b8063040ca2eb146101785780630d3a4ef8146101bc5780631466e3ea146102145780631928570b1461026c5780631a34ae181461028a57806322867d78146102e2575b600080fd5b6101ba6004803603602081101561018e57600080fd5b81019080803573ffffffffffffffffffffffffffffffffffffffff169060200190929190505050610a01565b005b6101fe600480360360208110156101d257600080fd5b81019080803573ffffffffffffffffffffffffffffffffffffffff169060200190929190505050610e67565b6040518082815260200191505060405180910390f35b6102566004803603602081101561022a57600080fd5b81019080803573ffffffffffffffffffffffffffffffffffffffff169060200190929190505050610e87565b6040518082815260200191505060405180910390f35b610274610ed3565b6040518082815260200191505060405180910390f35b6102cc600480360360208110156102a057600080fd5b81019080803573ffffffffffffffffffffffffffffffffffffffff169060200190929190505050610f0b565b6040518082815260200191505060405180910390f35b61032e600480360360408110156102f857600080fd5b81019080803573ffffffffffffffffffffffffffffffffffffffff16906020019092919080359060200190929190505050610fbf565b005b6103726004803603602081101561034657600080fd5b81019080803573ffffffffffffffffffffffffffffffffffffffff1690602001909291905050506111ca565b6040518082815260200191505060405180910390f35b6103906111fb565b60405180826fffffffffffffffffffffffffffffffff16815260200191505060405180910390f35b6103fa600480360360208110156103ce57600080fd5b81019080803573ffffffffffffffffffffffffffffffffffffffff16906020019092919050505061121d565b005b61043e6004803603602081101561041257600080fd5b81019080803573ffffffffffffffffffffffffffffffffffffffff169060200190929190505050611430565b6040518082815260200191505060405180910390f35b6104c8600480360360a081101561046a57600080fd5b81019080803567ffffffffffffffff169060200190929190803590602001909291908035906020019092919080359060200190929190803573ffffffffffffffffffffffffffffffffffffffff1690602001909291905050506114fb565b005b610544600480360360608110156104e057600080fd5b81019080803573ffffffffffffffffffffffffffffffffffffffff16906020019092919080356fffffffffffffffffffffffffffffffff16906020019092919080356fffffffffffffffffffffffffffffffff16906020019092919050505061182e565b005b6105926004803603604081101561055c57600080fd5b81019080803573ffffffffffffffffffffffffffffffffffffffff16906020019092919080359060200190929190505050611952565b6040518082815260200191505060405180910390f35b6105e6600480360360208110156105be57600080fd5b8101908080356fffffffffffffffffffffffffffffffff169060200190929190505050611a92565b005b61062a600480360360208110156105fe57600080fd5b81019080803573ffffffffffffffffffffffffffffffffffffffff169060200190929190505050611c99565b604051808381526020018281526020019250505060405180910390f35b6106896004803603602081101561065d57600080fd5b81019080803573ffffffffffffffffffffffffffffffffffffffff169060200190929190505050611cbd565b6040518082815260200191505060405180910390f35b6106e1600480360360208110156106b557600080fd5b81019080803573ffffffffffffffffffffffffffffffffffffffff169060200190929190505050611eb2565b604051808967ffffffffffffffff1681526020018873ffffffffffffffffffffffffffffffffffffffff168152602001876fffffffffffffffffffffffffffffffff168152602001866fffffffffffffffffffffffffffffffff1681526020018581526020018481526020018381526020018281526020019850505050505050505060405180910390f35b6107ae6004803603602081101561078257600080fd5b81019080803573ffffffffffffffffffffffffffffffffffffffff169060200190929190505050611f66565b60405180821515815260200191505060405180910390f35b610812600480360360408110156107dc57600080fd5b81019080803573ffffffffffffffffffffffffffffffffffffffff16906020019092919080359060200190929190505050611f86565b6040518082815260200191505060405180910390f35b6108306120cc565b60405180826fffffffffffffffffffffffffffffffff16815260200191505060405180910390f35b61089a6004803603602081101561086e57600080fd5b81019080803573ffffffffffffffffffffffffffffffffffffffff1690602001909291905050506120ee565b60405180821515815260200191505060405180910390f35b6108f4600480360360208110156108c857600080fd5b81019080803573ffffffffffffffffffffffffffffffffffffffff16906020019092919050505061223f565b6040518082815260200191505060405180910390f35b6109486004803603602081101561092057600080fd5b8101908080356fffffffffffffffffffffffffffffffff169060200190929190505050612356565b005b61098c6004803603602081101561096057600080fd5b81019080803573ffffffffffffffffffffffffffffffffffffffff16906020019092919050505061255d565b6040518082815260200191505060405180910390f35b6109e4600480360360208110156109b857600080fd5b81019080803573ffffffffffffffffffffffffffffffffffffffff16906020019092919050505061265c565b604051808381526020018281526020019250505060405180910390f35b60026001541415610a7a576040517f08c379a000000000000000000000000000000000000000000000000000000000815260040180806020018281038252601f8152602001807f5265656e7472616e637947756172643a207265656e7472616e742063616c6c0081525060200191505060405180910390fd5b6002600181905550806000603660008373ffffffffffffffffffffffffffffffffffffffff1673ffffffffffffffffffffffffffffffffffffffff16815260200190815260200160002060000160009054906101000a900467ffffffffffffffff1667ffffffffffffffff161415610b5a576040517f08c379a00000000000000000000000000000000000000000000000000000000081526004018080602001828103825260068152602001807f523a49504931000000000000000000000000000000000000000000000000000081525060200191505060405180910390fd5b6000603660008473ffffffffffffffffffffffffffffffffffffffff1673ffffffffffffffffffffffffffffffffffffffff16815260200190815260200160002060000160089054906101000a900473ffffffffffffffffffffffffffffffffffffffff1690506000610be08470010000000000000000000000000000000060016126ba565b90506000849050603560008673ffffffffffffffffffffffffffffffffffffffff1673ffffffffffffffffffffffffffffffffffffffff16815260200190815260200160002060010154603660008773ffffffffffffffffffffffffffffffffffffffff1673ffffffffffffffffffffffffffffffffffffffff1681526020019081526020016000206004015414610ce0576040517f08c379a00000000000000000000000000000000000000000000000000000000081526004018080602001828103825260058152602001807f523a52503100000000000000000000000000000000000000000000000000000081525060200191505060405180910390fd5b60008173ffffffffffffffffffffffffffffffffffffffff166318160ddd6040518163ffffffff1660e01b815260040160206040518083038186803b158015610d2857600080fd5b505afa158015610d3c573d6000803e3d6000fd5b505050506040513d6020811015610d5257600080fd5b810190808051906020019092919050505090506000610d7a848361280b90919063ffffffff16565b9050610da93388838873ffffffffffffffffffffffffffffffffffffffff16612893909392919063ffffffff16565b8673ffffffffffffffffffffffffffffffffffffffff167f2c80036a7bf5dfea806c41e229a15333df8725344a4d1d03926f1f0b3cab22c6836040518082815260200191505060405180910390a28273ffffffffffffffffffffffffffffffffffffffff1663232fa7336040518163ffffffff1660e01b8152600401600060405180830381600087803b158015610e3f57600080fd5b505af1158015610e53573d6000803e3d6000fd5b505050505050505050506001808190555050565b600080610e7383611cbd565b9050610e7f8382612954565b915050919050565b6000603560008373ffffffffffffffffffffffffffffffffffffffff1673ffffffffffffffffffffffffffffffffffffffff168152602001908152602001600020600001549050919050565b6000603460109054906101000a90046fffffffffffffffffffffffffffffffff166fffffffffffffffffffffffffffffffff16905090565b600080610fa5603560008573ffffffffffffffffffffffffffffffffffffffff1673ffffffffffffffffffffffffffffffffffffffff16815260200190815260200160002060010154603660008673ffffffffffffffffffffffffffffffffffffffff1673ffffffffffffffffffffffffffffffffffffffff16815260200190815260200160002060040154612a1b90919063ffffffff16565b90506000610fb38483611f86565b90508092505050919050565b60026001541415611038576040517f08c379a000000000000000000000000000000000000000000000000000000000815260040180806020018281038252601f8152602001807f5265656e7472616e637947756172643a207265656e7472616e742063616c6c0081525060200191505060405180910390fd5b6002600181905550816000603660008373ffffffffffffffffffffffffffffffffffffffff1673ffffffffffffffffffffffffffffffffffffffff16815260200190815260200160002060000160009054906101000a900467ffffffffffffffff1667ffffffffffffffff161415611118576040517f08c379a00000000000000000000000000000000000000000000000000000000081526004018080602001828103825260068152602001807f523a49504931000000000000000000000000000000000000000000000000000081525060200191505060405180910390fd5b6000603660008573ffffffffffffffffffffffffffffffffffffffff1673ffffffffffffffffffffffffffffffffffffffff16815260200190815260200160002060000160089054906101000a900473ffffffffffffffffffffffffffffffffffffffff169050600061118d858560006126ba565b90506111bc3386838573ffffffffffffffffffffffffffffffffffffffff16612893909392919063ffffffff16565b505050600180819055505050565b6000806111d683611430565b90506111f3670de0b6b3a76400008261280b90919063ffffffff16565b915050919050565b603460009054906101000a90046fffffffffffffffffffffffffffffffff1681565b603360009054906101000a900473ffffffffffffffffffffffffffffffffffffffff1673ffffffffffffffffffffffffffffffffffffffff16638da5cb5b6040518163ffffffff1660e01b815260040160206040518083038186803b15801561128557600080fd5b505afa158015611299573d6000803e3d6000fd5b505050506040513d60208110156112af57600080fd5b810190808051906020019092919050505073ffffffffffffffffffffffffffffffffffffffff163373ffffffffffffffffffffffffffffffffffffffff1614611360576040517f08c379a00000000000000000000000000000000000000000000000000000000081526004018080602001828103825260058152602001807f523a4f4f3100000000000000000000000000000000000000000000000000000081525060200191505060405180910390fd5b8073ffffffffffffffffffffffffffffffffffffffff16603360009054906101000a900473ffffffffffffffffffffffffffffffffffffffff1673ffffffffffffffffffffffffffffffffffffffff161415611424576040517f08c379a00000000000000000000000000000000000000000000000000000000081526004018080602001828103825260068152602001807f523a55504631000000000000000000000000000000000000000000000000000081525060200191505060405180910390fd5b61142d81612a9e565b50565b600080603660008473ffffffffffffffffffffffffffffffffffffffff1673ffffffffffffffffffffffffffffffffffffffff1681526020019081526020016000206003015490506000603560008573ffffffffffffffffffffffffffffffffffffffff1673ffffffffffffffffffffffffffffffffffffffff16815260200190815260200160002060010154905060006114ee670de0b6b3a76400006114e08585612bc890919063ffffffff16565b612c5190919063ffffffff16565b9050809350505050919050565b6000603360009054906101000a900473ffffffffffffffffffffffffffffffffffffffff1673ffffffffffffffffffffffffffffffffffffffff1663edf7ae21336040518263ffffffff1660e01b8152600401808273ffffffffffffffffffffffffffffffffffffffff16815260200191505060206040518083038186803b15801561158657600080fd5b505afa15801561159a573d6000803e3d6000fd5b505050506040513d60208110156115b057600080fd5b81019080805190602001909291905050501415611635576040517f08c379a00000000000000000000000000000000000000000000000000000000081526004018080602001828103825260068152602001807f523a4f565031000000000000000000000000000000000000000000000000000081525060200191505060405180910390fd5b6000603660003373ffffffffffffffffffffffffffffffffffffffff1673ffffffffffffffffffffffffffffffffffffffff1681526020019081526020016000209050603460009054906101000a90046fffffffffffffffffffffffffffffffff168160010160006101000a8154816fffffffffffffffffffffffffffffffff02191690836fffffffffffffffffffffffffffffffff160217905550603460109054906101000a90046fffffffffffffffffffffffffffffffff168160010160106101000a8154816fffffffffffffffffffffffffffffffff02191690836fffffffffffffffffffffffffffffffff160217905550858160000160006101000a81548167ffffffffffffffff021916908367ffffffffffffffff16021790555061178c670de0b6b3a764000061177e8867ffffffffffffffff1688612c5190919063ffffffff16565b612c5190919063ffffffff16565b81600401819055506117af670de0b6b3a764000086612c5190919063ffffffff16565b81600301819055508381600201819055506117db670de0b6b3a764000084612c5190919063ffffffff16565b8160050181905550818160000160086101000a81548173ffffffffffffffffffffffffffffffffffffffff021916908373ffffffffffffffffffffffffffffffffffffffff160217905550505050505050565b600060019054906101000a900460ff168061184d575061184c612cd7565b5b80611863575060008054906101000a900460ff16155b6118b8576040517f08c379a000000000000000000000000000000000000000000000000000000000815260040180806020018281038252602e8152602001806139bc602e913960400191505060405180910390fd5b60008060019054906101000a900460ff161590508015611908576001600060016101000a81548160ff02191690831515021790555060016000806101000a81548160ff0219169083151502179055505b611910612ce8565b61191984612a9e565b61192283612dee565b61192b82612e69565b801561194c5760008060016101000a81548160ff0219169083151502179055505b50505050565b6000808373ffffffffffffffffffffffffffffffffffffffff166318160ddd6040518163ffffffff1660e01b815260040160206040518083038186803b15801561199b57600080fd5b505afa1580156119af573d6000803e3d6000fd5b505050506040513d60208110156119c557600080fd5b81019080805190602001909291905050509050611a89603660008673ffffffffffffffffffffffffffffffffffffffff1673ffffffffffffffffffffffffffffffffffffffff16815260200190815260200160002060020154611a7b670de0b6b3a7640000611a6d85611a5f670de0b6b3a7640000611a516301e133808c612c5190919063ffffffff16565b612c5190919063ffffffff16565b612bc890919063ffffffff16565b612c5190919063ffffffff16565b612bc890919063ffffffff16565b91505092915050565b603360009054906101000a900473ffffffffffffffffffffffffffffffffffffffff1673ffffffffffffffffffffffffffffffffffffffff16638da5cb5b6040518163ffffffff1660e01b815260040160206040518083038186803b158015611afa57600080fd5b505afa158015611b0e573d6000803e3d6000fd5b505050506040513d6020811015611b2457600080fd5b810190808051906020019092919050505073ffffffffffffffffffffffffffffffffffffffff163373ffffffffffffffffffffffffffffffffffffffff1614611bd5576040517f08c379a00000000000000000000000000000000000000000000000000000000081526004018080602001828103825260058152602001807f523a4f4f3100000000000000000000000000000000000000000000000000000081525060200191505060405180910390fd5b806fffffffffffffffffffffffffffffffff16603460109054906101000a90046fffffffffffffffffffffffffffffffff166fffffffffffffffffffffffffffffffff161415611c8d576040517f08c379a00000000000000000000000000000000000000000000000000000000081526004018080602001828103825260078152602001807f523a55475046310000000000000000000000000000000000000000000000000081525060200191505060405180910390fd5b611c9681612e69565b50565b60356020528060005260406000206000915090508060000154908060010154905082565b600080611cc983611430565b9050611d46670de0b6b3a7640000603660008673ffffffffffffffffffffffffffffffffffffffff1673ffffffffffffffffffffffffffffffffffffffff16815260200190815260200160002060000160009054906101000a900467ffffffffffffffff1667ffffffffffffffff16612c5190919063ffffffff16565b811415611dbb576040517f08c379a00000000000000000000000000000000000000000000000000000000081526004018080602001828103825260078152602001807f523a474e4944310000000000000000000000000000000000000000000000000081525060200191505060405180910390fd5b6000603660008573ffffffffffffffffffffffffffffffffffffffff1673ffffffffffffffffffffffffffffffffffffffff1681526020019081526020016000206003015490506000603660008673ffffffffffffffffffffffffffffffffffffffff1673ffffffffffffffffffffffffffffffffffffffff1681526020019081526020016000206005015490506000611ea482611e96670de0b6b3a7640000611e8887611e7a670de0b6b3a76400008b61280b90919063ffffffff16565b612c5190919063ffffffff16565b612bc890919063ffffffff16565b61280b90919063ffffffff16565b905080945050505050919050565b60366020528060005260406000206000915090508060000160009054906101000a900467ffffffffffffffff16908060000160089054906101000a900473ffffffffffffffffffffffffffffffffffffffff16908060010160009054906101000a90046fffffffffffffffffffffffffffffffff16908060010160109054906101000a90046fffffffffffffffffffffffffffffffff16908060020154908060030154908060040154908060050154905088565b600080611f7283611cbd565b9050611f7e8382612ee4565b915050919050565b6000808373ffffffffffffffffffffffffffffffffffffffff166318160ddd6040518163ffffffff1660e01b815260040160206040518083038186803b158015611fcf57600080fd5b505afa158015611fe3573d6000803e3d6000fd5b505050506040513d6020811015611ff957600080fd5b810190808051906020019092919050505090506000603660008673ffffffffffffffffffffffffffffffffffffffff1673ffffffffffffffffffffffffffffffffffffffff1681526020019081526020016000206002015490506120c2670de0b6b3a76400006120b46301e133806120a688612098670de0b6b3a764000061208a898b612c5190919063ffffffff16565b612bc890919063ffffffff16565b612c5190919063ffffffff16565b612bc890919063ffffffff16565b612bc890919063ffffffff16565b9250505092915050565b603460109054906101000a90046fffffffffffffffffffffffffffffffff1681565b600080603660008473ffffffffffffffffffffffffffffffffffffffff1673ffffffffffffffffffffffffffffffffffffffff1681526020019081526020016000206003015490506000612153670de0b6b3a764000042612c5190919063ffffffff16565b90506000603660008673ffffffffffffffffffffffffffffffffffffffff1673ffffffffffffffffffffffffffffffffffffffff16815260200190815260200160002060010160109054906101000a90046fffffffffffffffffffffffffffffffff166fffffffffffffffffffffffffffffffff16905060006121d586611cbd565b90506000612218612209670de0b6b3a76400006121fb8887612c5190919063ffffffff16565b612bc890919063ffffffff16565b8361280b90919063ffffffff16565b9050808411156122305760019550505050505061223a565b6000955050505050505b919050565b600080603660008473ffffffffffffffffffffffffffffffffffffffff1673ffffffffffffffffffffffffffffffffffffffff16815260200190815260200160002060050154905060006122a4670de0b6b3a764000042612c5190919063ffffffff16565b90506000603660008673ffffffffffffffffffffffffffffffffffffffff1673ffffffffffffffffffffffffffffffffffffffff1681526020019081526020016000206003015490506000612348670de0b6b3a764000061233a8461232c670de0b6b3a764000061231e8a8a612a1b90919063ffffffff16565b612c5190919063ffffffff16565b612bc890919063ffffffff16565b61280b90919063ffffffff16565b905080945050505050919050565b603360009054906101000a900473ffffffffffffffffffffffffffffffffffffffff1673ffffffffffffffffffffffffffffffffffffffff16638da5cb5b6040518163ffffffff1660e01b815260040160206040518083038186803b1580156123be57600080fd5b505afa1580156123d2573d6000803e3d6000fd5b505050506040513d60208110156123e857600080fd5b810190808051906020019092919050505073ffffffffffffffffffffffffffffffffffffffff163373ffffffffffffffffffffffffffffffffffffffff1614612499576040517f08c379a00000000000000000000000000000000000000000000000000000000081526004018080602001828103825260058152602001807f523a4f4f3100000000000000000000000000000000000000000000000000000081525060200191505060405180910390fd5b806fffffffffffffffffffffffffffffffff16603460009054906101000a90046fffffffffffffffffffffffffffffffff166fffffffffffffffffffffffffffffffff161415612551576040517f08c379a00000000000000000000000000000000000000000000000000000000081526004018080602001828103825260078152602001807f523a55475052310000000000000000000000000000000000000000000000000081525060200191505060405180910390fd5b61255a81612dee565b50565b6000808273ffffffffffffffffffffffffffffffffffffffff166318160ddd6040518163ffffffff1660e01b815260040160206040518083038186803b1580156125a657600080fd5b505afa1580156125ba573d6000803e3d6000fd5b505050506040513d60208110156125d057600080fd5b8101908080519060200190929190505050905060006126506301e13380612642603660008873ffffffffffffffffffffffffffffffffffffffff1673ffffffffffffffffffffffffffffffffffffffff1681526020019081526020016000206002015485612c5190919063ffffffff16565b612bc890919063ffffffff16565b90508092505050919050565b600080600061266a8461255d565b9050603560008573ffffffffffffffffffffffffffffffffffffffff1673ffffffffffffffffffffffffffffffffffffffff16815260200190815260200160002060010154819250925050915091565b60008084905060008173ffffffffffffffffffffffffffffffffffffffff1663acc1ab136040518163ffffffff1660e01b815260040160206040518083038186803b15801561270857600080fd5b505afa15801561271c573d6000803e3d6000fd5b505050506040513d602081101561273257600080fd5b810190808051906020019092919050505090506001600581111561275257fe5b81146127c6576040517f08c379a00000000000000000000000000000000000000000000000000000000081526004018080602001828103825260058152602001807f523a49523100000000000000000000000000000000000000000000000000000081525060200191505060405180910390fd5b60006127d18761309c565b905060006127e08888886131d3565b90506127fe886127f9838561280b90919063ffffffff16565b613449565b9450505050509392505050565b600080828401905083811015612889576040517f08c379a000000000000000000000000000000000000000000000000000000000815260040180806020018281038252601b8152602001807f536166654d6174683a206164646974696f6e206f766572666c6f77000000000081525060200191505060405180910390fd5b8091505092915050565b61294e846323b872dd60e01b858585604051602401808473ffffffffffffffffffffffffffffffffffffffff1681526020018373ffffffffffffffffffffffffffffffffffffffff1681526020018281526020019350505050604051602081830303815290604052907bffffffffffffffffffffffffffffffffffffffffffffffffffffffff19166020820180517bffffffffffffffffffffffffffffffffffffffffffffffffffffffff83818316178352505050506134ef565b50505050565b600080603560008573ffffffffffffffffffffffffffffffffffffffff1673ffffffffffffffffffffffffffffffffffffffff1681526020019081526020016000206001015490506000612a0e85612a09846129fb603660008b73ffffffffffffffffffffffffffffffffffffffff1673ffffffffffffffffffffffffffffffffffffffff1681526020019081526020016000206005015489612a1b90919063ffffffff16565b612a1b90919063ffffffff16565b611f86565b9050809250505092915050565b600082821115612a93576040517f08c379a000000000000000000000000000000000000000000000000000000000815260040180806020018281038252601e8152602001807f536166654d6174683a207375627472616374696f6e206f766572666c6f77000081525060200191505060405180910390fd5b818303905092915050565b600073ffffffffffffffffffffffffffffffffffffffff168173ffffffffffffffffffffffffffffffffffffffff161415612b41576040517f08c379a00000000000000000000000000000000000000000000000000000000081526004018080602001828103825260078152602001807f523a49555046310000000000000000000000000000000000000000000000000081525060200191505060405180910390fd5b80603360006101000a81548173ffffffffffffffffffffffffffffffffffffffff021916908373ffffffffffffffffffffffffffffffffffffffff1602179055508073ffffffffffffffffffffffffffffffffffffffff167f1c7678eaee5fa898fb56c2cae0f73cba66bd4eee97d2df577030caea131dd9a560405160405180910390a250565b6000808211612c3f576040517f08c379a000000000000000000000000000000000000000000000000000000000815260040180806020018281038252601a8152602001807f536166654d6174683a206469766973696f6e206279207a65726f00000000000081525060200191505060405180910390fd5b818381612c4857fe5b04905092915050565b600080831415612c645760009050612cd1565b6000828402905082848281612c7557fe5b0414612ccc576040517f08c379a00000000000000000000000000000000000000000000000000000000081526004018080602001828103825260218152602001806139ea6021913960400191505060405180910390fd5b809150505b92915050565b6000612ce2306135de565b15905090565b600060019054906101000a900460ff1680612d075750612d06612cd7565b5b80612d1d575060008054906101000a900460ff16155b612d72576040517f08c379a000000000000000000000000000000000000000000000000000000000815260040180806020018281038252602e8152602001806139bc602e913960400191505060405180910390fd5b60008060019054906101000a900460ff161590508015612dc2576001600060016101000a81548160ff02191690831515021790555060016000806101000a81548160ff0219169083151502179055505b612dca6135f1565b8015612deb5760008060016101000a81548160ff0219169083151502179055505b50565b80603460006101000a8154816fffffffffffffffffffffffffffffffff02191690836fffffffffffffffffffffffffffffffff160217905550806fffffffffffffffffffffffffffffffff167f191bb9be3a644dcc5e81bffa96f90a666c848d5bdef6c138be9e2909f683c13660405160405180910390a250565b80603460106101000a8154816fffffffffffffffffffffffffffffffff02191690836fffffffffffffffffffffffffffffffff160217905550806fffffffffffffffffffffffffffffffff167fb9d9ff4c2f033fddd2d79ede90ed4b266a4b14f2fb7a53b65f841f782ab732f760405160405180910390a250565b600080603660008573ffffffffffffffffffffffffffffffffffffffff1673ffffffffffffffffffffffffffffffffffffffff1681526020019081526020016000206003015490506000612f49670de0b6b3a764000042612c5190919063ffffffff16565b90506000603660008773ffffffffffffffffffffffffffffffffffffffff1673ffffffffffffffffffffffffffffffffffffffff16815260200190815260200160002060010160109054906101000a90046fffffffffffffffffffffffffffffffff166fffffffffffffffffffffffffffffffff1690506000613001612ff2670de0b6b3a7640000612fe48786612c5190919063ffffffff16565b612bc890919063ffffffff16565b8761280b90919063ffffffff16565b905080831115613079576040517f08c379a00000000000000000000000000000000000000000000000000000000081526004018080602001828103825260078152602001807f523a49475041310000000000000000000000000000000000000000000000000081525060200191505060405180910390fd5b85831161308d576000945050505050613096565b60019450505050505b92915050565b6000806130a883611cbd565b905060006130b68483612ee4565b905080156131c75760006130ca8584612954565b9050600061316b670de0b6b3a764000061315d84603660008b73ffffffffffffffffffffffffffffffffffffffff1673ffffffffffffffffffffffffffffffffffffffff16815260200190815260200160002060010160009054906101000a90046fffffffffffffffffffffffffffffffff166fffffffffffffffffffffffffffffffff16612c5190919063ffffffff16565b612bc890919063ffffffff16565b90508573ffffffffffffffffffffffffffffffffffffffff167fb205a9ea9862b64f9b6c381b807a47e7c2ddf5f8ab907fb47de93f700aa1a5a3826040518082815260200191505060405180910390a2809450505050506131ce565b6000925050505b919050565b6000806131df85610f0b565b90508215158185101515141561325d576040517f08c379a00000000000000000000000000000000000000000000000000000000081526004018080602001828103825260068152602001807f523a49524931000000000000000000000000000000000000000000000000000081525060200191505060405180910390fd5b808410156133665760006132718686611952565b90506132c881603560008973ffffffffffffffffffffffffffffffffffffffff1673ffffffffffffffffffffffffffffffffffffffff1681526020019081526020016000206001015461280b90919063ffffffff16565b603560008873ffffffffffffffffffffffffffffffffffffffff1673ffffffffffffffffffffffffffffffffffffffff168152602001908152602001600020600101819055508573ffffffffffffffffffffffffffffffffffffffff167feff139234683b4c380101256c460e14460d28453ed77503b5eb3364e9d9b92c5866040518082815260200191505060405180910390a28492505050613442565b603660008673ffffffffffffffffffffffffffffffffffffffff1673ffffffffffffffffffffffffffffffffffffffff16815260200190815260200160002060040154603560008773ffffffffffffffffffffffffffffffffffffffff1673ffffffffffffffffffffffffffffffffffffffff168152602001908152602001600020600101819055508473ffffffffffffffffffffffffffffffffffffffff167fc3e8d495d2888e99975640847a1ceb9831a2348f3cd1d9fa339afdb28bbff139826040518082815260200191505060405180910390a2809150505b9392505050565b60006134a082603560008673ffffffffffffffffffffffffffffffffffffffff1673ffffffffffffffffffffffffffffffffffffffff1681526020019081526020016000206000015461280b90919063ffffffff16565b603560008573ffffffffffffffffffffffffffffffffffffffff1673ffffffffffffffffffffffffffffffffffffffff1681526020019081526020016000206000018190555081905092915050565b6000613551826040518060400160405280602081526020017f5361666545524332303a206c6f772d6c6576656c2063616c6c206661696c65648152508573ffffffffffffffffffffffffffffffffffffffff166136f69092919063ffffffff16565b90506000815111156135d95780806020019051602081101561357257600080fd5b81019080805190602001909291905050506135d8576040517f08c379a000000000000000000000000000000000000000000000000000000000815260040180806020018281038252602a815260200180613a0b602a913960400191505060405180910390fd5b5b505050565b600080823b905060008111915050919050565b600060019054906101000a900460ff1680613610575061360f612cd7565b5b80613626575060008054906101000a900460ff16155b61367b576040517f08c379a000000000000000000000000000000000000000000000000000000000815260040180806020018281038252602e8152602001806139bc602e913960400191505060405180910390fd5b60008060019054906101000a900460ff1615905080156136cb576001600060016101000a81548160ff02191690831515021790555060016000806101000a81548160ff0219169083151502179055505b6001808190555080156136f35760008060016101000a81548160ff0219169083151502179055505b50565b6060613705848460008561370e565b90509392505050565b606082471015613769576040517f08c379a00000000000000000000000000000000000000000000000000000000081526004018080602001828103825260268152602001806139966026913960400191505060405180910390fd5b613772856138b6565b6137e4576040517f08c379a000000000000000000000000000000000000000000000000000000000815260040180806020018281038252601d8152602001807f416464726573733a2063616c6c20746f206e6f6e2d636f6e747261637400000081525060200191505060405180910390fd5b6000808673ffffffffffffffffffffffffffffffffffffffff1685876040518082805190602001908083835b602083106138335780518252602082019150602081019050602083039250613810565b6001836020036101000a03801982511681845116808217855250505050505090500191505060006040518083038185875af1925050503d8060008114613895576040519150601f19603f3d011682016040523d82523d6000602084013e61389a565b606091505b50915091506138aa8282866138c9565b92505050949350505050565b600080823b905060008111915050919050565b606083156138d95782905061398e565b6000835111156138ec5782518084602001fd5b816040517f08c379a00000000000000000000000000000000000000000000000000000000081526004018080602001828103825283818151815260200191508051906020019080838360005b83811015613953578082015181840152602081019050613938565b50505050905090810190601f1680156139805780820380516001836020036101000a031916815260200191505b509250505060405180910390fd5b939250505056fe416464726573733a20696e73756666696369656e742062616c616e636520666f722063616c6c496e697469616c697a61626c653a20636f6e747261637420697320616c726561647920696e697469616c697a6564536166654d6174683a206d756c7469706c69636174696f6e206f766572666c6f775361666545524332303a204552433230206f7065726174696f6e20646964206e6f742073756363656564a26469706673582212201f0296f905aa308236e1bc2785e2aca925983aa866bebb7a73409d8a58e6c1de64736f6c63430007060033","linkReferences":{}},"methodIdentifiers":{"didBorrowerDefault(address)":"eeb69a24","getCurrentInstalmentInterval(address)":"2c7f475a","getCurrentLoanInterval(address)":"f2a8a806","getGracePeriodFraction()":"1928570b","getInstalmentsCompleted(address)":"4bbf2047","getInterest(address,uint256)":"d6cf57e6","getInterestCalculationVars(address)":"ffe90fd5","getInterestDueTillInstalmentDeadline(address)":"0d3a4ef8","getInterestLeft(address)":"1a34ae18","getInterestPerSecond(address)":"fb780e89","getNextInstalmentDeadline(address)":"bf3b8e4b","getRepaidDuration(address,uint256)":"7e228c3c","getTotalRepaidAmount(address)":"1466e3ea","gracePenaltyRate()":"35e3c801","gracePeriodFraction()":"dfcc8ce7","initialize(address,uint128,uint128)":"6de6ad0b","initializeRepayment(uint64,uint256,uint256,uint256,address)":"69a4a097","isGracePenaltyApplicable(address)":"d2144951","repay(address,uint256)":"22867d78","repayConstants(address)":"c006c529","repayPrincipal(address)":"040ca2eb","repayVariables(address)":"90025355","updateGracePenaltyRate(uint128)":"fa249a89","updateGracePeriodFraction(uint128)":"8af7cad4","updatePoolFactory(address)":"45f8f010"},"id":8}