{
  "_format": "hh-sol-artifact-1",
  "contractName": "ERC20VaultTest",
  "sourceName": "contracts/test/ERC20VaultTest.sol",
  "abi": [
    {
      "inputs": [
        {
          "internalType": "contract IVaultGovernance",
          "name": "vaultGovernance_",
          "type": "address"
        },
        {
          "internalType": "address[]",
          "name": "vaultTokens_",
          "type": "address[]"
        }
      ],
      "stateMutability": "nonpayable",
      "type": "constructor"
    },
    {
      "anonymous": false,
      "inputs": [
        {
          "indexed": false,
          "internalType": "address",
          "name": "to",
          "type": "address"
        },
        {
          "indexed": false,
          "internalType": "uint256[]",
          "name": "tokenAmounts",
          "type": "uint256[]"
        }
      ],
      "name": "Pull",
      "type": "event"
    },
    {
      "anonymous": false,
      "inputs": [
        {
          "indexed": false,
          "internalType": "uint256[]",
          "name": "tokenAmounts",
          "type": "uint256[]"
        }
      ],
      "name": "Push",
      "type": "event"
    },
    {
      "anonymous": false,
      "inputs": [
        {
          "indexed": false,
          "internalType": "address",
          "name": "to",
          "type": "address"
        },
        {
          "indexed": false,
          "internalType": "address[]",
          "name": "tokens",
          "type": "address[]"
        },
        {
          "indexed": false,
          "internalType": "uint256[]",
          "name": "tokenAmounts",
          "type": "uint256[]"
        }
      ],
      "name": "ReclaimTokens",
      "type": "event"
    },
    {
      "inputs": [
        {
          "internalType": "address",
          "name": "a",
          "type": "address"
        },
        {
          "internalType": "address[]",
          "name": "tokens",
          "type": "address[]"
        }
      ],
      "name": "__postReclaimTokens",
      "outputs": [],
      "stateMutability": "view",
      "type": "function"
    },
    {
      "inputs": [
        {
          "internalType": "address",
          "name": "from",
          "type": "address"
        },
        {
          "internalType": "bytes",
          "name": "data",
          "type": "bytes"
        }
      ],
      "name": "claimRewards",
      "outputs": [],
      "stateMutability": "nonpayable",
      "type": "function"
    },
    {
      "inputs": [
        {
          "internalType": "uint256",
          "name": "nft_",
          "type": "uint256"
        }
      ],
      "name": "initialize",
      "outputs": [],
      "stateMutability": "nonpayable",
      "type": "function"
    },
    {
      "inputs": [
        {
          "internalType": "address",
          "name": "token",
          "type": "address"
        }
      ],
      "name": "isVaultToken",
      "outputs": [
        {
          "internalType": "bool",
          "name": "",
          "type": "bool"
        }
      ],
      "stateMutability": "view",
      "type": "function"
    },
    {
      "inputs": [],
      "name": "nft",
      "outputs": [
        {
          "internalType": "uint256",
          "name": "",
          "type": "uint256"
        }
      ],
      "stateMutability": "view",
      "type": "function"
    },
    {
      "inputs": [
        {
          "internalType": "address",
          "name": "to",
          "type": "address"
        },
        {
          "internalType": "address[]",
          "name": "tokens",
          "type": "address[]"
        },
        {
          "internalType": "uint256[]",
          "name": "tokenAmounts",
          "type": "uint256[]"
        },
        {
          "internalType": "bytes",
          "name": "options",
          "type": "bytes"
        }
      ],
      "name": "pull",
      "outputs": [
        {
          "internalType": "uint256[]",
          "name": "actualTokenAmounts",
          "type": "uint256[]"
        }
      ],
      "stateMutability": "nonpayable",
      "type": "function"
    },
    {
      "inputs": [
        {
          "internalType": "address[]",
          "name": "tokens",
          "type": "address[]"
        },
        {
          "internalType": "uint256[]",
          "name": "tokenAmounts",
          "type": "uint256[]"
        },
        {
          "internalType": "bytes",
          "name": "options",
          "type": "bytes"
        }
      ],
      "name": "push",
      "outputs": [
        {
          "internalType": "uint256[]",
          "name": "actualTokenAmounts",
          "type": "uint256[]"
        }
      ],
      "stateMutability": "nonpayable",
      "type": "function"
    },
    {
      "inputs": [
        {
          "internalType": "address",
          "name": "to",
          "type": "address"
        },
        {
          "internalType": "address[]",
          "name": "tokens",
          "type": "address[]"
        }
      ],
      "name": "reclaimTokens",
      "outputs": [],
      "stateMutability": "nonpayable",
      "type": "function"
    },
    {
      "inputs": [
        {
          "internalType": "address",
          "name": "newVaultGovernance",
          "type": "address"
        }
      ],
      "name": "setVaultGovernance",
      "outputs": [],
      "stateMutability": "nonpayable",
      "type": "function"
    },
    {
      "inputs": [
        {
          "internalType": "uint256",
          "name": "traderId",
          "type": "uint256"
        },
        {
          "internalType": "uint256",
          "name": "amount",
          "type": "uint256"
        },
        {
          "internalType": "address",
          "name": "",
          "type": "address"
        },
        {
          "components": [
            {
              "internalType": "address",
              "name": "token0",
              "type": "address"
            },
            {
              "internalType": "address",
              "name": "token1",
              "type": "address"
            },
            {
              "internalType": "bytes",
              "name": "options",
              "type": "bytes"
            }
          ],
          "internalType": "struct ITrader.PathItem[]",
          "name": "path",
          "type": "tuple[]"
        },
        {
          "internalType": "bytes",
          "name": "options",
          "type": "bytes"
        }
      ],
      "name": "swapExactInput",
      "outputs": [
        {
          "internalType": "uint256",
          "name": "amountOut",
          "type": "uint256"
        }
      ],
      "stateMutability": "nonpayable",
      "type": "function"
    },
    {
      "inputs": [
        {
          "internalType": "uint256",
          "name": "traderId",
          "type": "uint256"
        },
        {
          "internalType": "uint256",
          "name": "amount",
          "type": "uint256"
        },
        {
          "internalType": "address",
          "name": "",
          "type": "address"
        },
        {
          "components": [
            {
              "internalType": "address",
              "name": "token0",
              "type": "address"
            },
            {
              "internalType": "address",
              "name": "token1",
              "type": "address"
            },
            {
              "internalType": "bytes",
              "name": "options",
              "type": "bytes"
            }
          ],
          "internalType": "struct ITrader.PathItem[]",
          "name": "path",
          "type": "tuple[]"
        },
        {
          "internalType": "bytes",
          "name": "options",
          "type": "bytes"
        }
      ],
      "name": "swapExactOutput",
      "outputs": [
        {
          "internalType": "uint256",
          "name": "amountOut",
          "type": "uint256"
        }
      ],
      "stateMutability": "nonpayable",
      "type": "function"
    },
    {
      "inputs": [
        {
          "internalType": "address",
          "name": "from",
          "type": "address"
        },
        {
          "internalType": "address[]",
          "name": "tokens",
          "type": "address[]"
        },
        {
          "internalType": "uint256[]",
          "name": "tokenAmounts",
          "type": "uint256[]"
        },
        {
          "internalType": "bytes",
          "name": "options",
          "type": "bytes"
        }
      ],
      "name": "transferAndPush",
      "outputs": [
        {
          "internalType": "uint256[]",
          "name": "actualTokenAmounts",
          "type": "uint256[]"
        }
      ],
      "stateMutability": "nonpayable",
      "type": "function"
    },
    {
      "inputs": [],
      "name": "tvl",
      "outputs": [
        {
          "internalType": "uint256[]",
          "name": "tokenAmounts",
          "type": "uint256[]"
        }
      ],
      "stateMutability": "view",
      "type": "function"
    },
    {
      "inputs": [],
      "name": "vaultGovernance",
      "outputs": [
        {
          "internalType": "contract IVaultGovernance",
          "name": "",
          "type": "address"
        }
      ],
      "stateMutability": "view",
      "type": "function"
    },
    {
      "inputs": [],
      "name": "vaultTokens",
      "outputs": [
        {
          "internalType": "address[]",
          "name": "",
          "type": "address[]"
        }
      ],
      "stateMutability": "view",
      "type": "function"
    }
  ],
  "bytecode": "0x60806040523480156200001157600080fd5b5060405162003587380380620035878339810160408190526200003491620002c1565b81818181600160008190555062000056816200014a60201b6200179d1760201c565b6040518060400160405280600381526020016253415560e81b815250906200009c5760405162461bcd60e51b8152600401620000939190620003ac565b60405180910390fd5b50600180546001600160a01b0319166001600160a01b0384161790558051620000cd906002906020840190620001ff565b5060005b81518110156200013d57600160036000848481518110620000f657620000f662000404565b6020908102919091018101516001600160a01b03168252810191909152604001600020805460ff191691151591909117905580620001348162000430565b915050620000d1565b5050505050505062000483565b60006002825110156200015f57506001919050565b60005b600183516200017291906200044e565b811015620001f657826200018882600162000468565b815181106200019b576200019b62000404565b60200260200101516001600160a01b0316838281518110620001c157620001c162000404565b60200260200101516001600160a01b031610620001e15750600092915050565b80620001ed8162000430565b91505062000162565b50600192915050565b82805482825590600052602060002090810192821562000257579160200282015b828111156200025757825182546001600160a01b0319166001600160a01b0390911617825560209092019160019091019062000220565b506200026592915062000269565b5090565b5b808211156200026557600081556001016200026a565b6001600160a01b03811681146200029657600080fd5b50565b634e487b7160e01b600052604160045260246000fd5b8051620002bc8162000280565b919050565b60008060408385031215620002d557600080fd5b8251620002e28162000280565b602084810151919350906001600160401b03808211156200030257600080fd5b818601915086601f8301126200031757600080fd5b8151818111156200032c576200032c62000299565b8060051b604051601f19603f8301168101818110858211171562000354576200035462000299565b6040529182528482019250838101850191898311156200037357600080fd5b938501935b828510156200039c576200038c85620002af565b8452938501939285019262000378565b8096505050505050509250929050565b600060208083528351808285015260005b81811015620003db57858101830151858201604001528201620003bd565b81811115620003ee576000604083870101525b50601f01601f1916929092016040019392505050565b634e487b7160e01b600052603260045260246000fd5b634e487b7160e01b600052601160045260246000fd5b60006000198214156200044757620004476200041a565b5060010190565b6000828210156200046357620004636200041a565b500390565b600082198211156200047e576200047e6200041a565b500190565b6130f480620004936000396000f3fe608060405234801561001057600080fd5b50600436106100f55760003560e01c80636972223311610097578063e5328e0611610066578063e5328e061461022a578063e8216b8914610232578063fe255a5e14610245578063fe4b84df1461026057600080fd5b806369722233146101bf578063a4612a5d146101d4578063b80757ad14610204578063c1b52d3e1461021757600080fd5b8063338c4ccb116100d3578063338c4ccb1461014b57806347ccca0214610187578063566ca6b414610199578063671918af146101ac57600080fd5b806318b4d37f146100fa5780632062d7541461010f57806327a35e5a14610138575b600080fd5b61010d610108366004612773565b610273565b005b61012261011d3660046128b4565b6104bb565b60405161012f9190612989565b60405180910390f35b6101226101463660046128b4565b610728565b61017761015936600461299c565b6001600160a01b031660009081526003602052604090205460ff1690565b604051901515815260200161012f565b6004545b60405190815260200161012f565b6101226101a73660046129b9565b6108b1565b61018b6101ba366004612b1d565b610bbd565b6101c7610e54565b60405161012f9190612bdf565b61010d6101e236600461299c565b600180546001600160a01b0319166001600160a01b0392909216919091179055565b61018b610212366004612bf2565b610eb6565b61010d610225366004612cad565b6110c5565b6101226110cf565b61010d610240366004612cad565b61124a565b6001546040516001600160a01b03909116815260200161012f565b61010d61026e366004612cf2565b6115f4565b61027b611842565b600060045411604051806040016040528060048152602001631253925560e21b815250906102c55760405162461bcd60e51b81526004016102bc9190612d63565b60405180910390fd5b506102cf3361189c565b60405180604001604052806002815260200161494f60f01b815250906103085760405162461bcd60e51b81526004016102bc9190612d63565b5060015460408051637ac46fbb60e01b815281516000936001600160a01b031692637ac46fbb9260048082019391829003018186803b15801561034a57600080fd5b505afa15801561035e573d6000803e3d6000fd5b505050506040513d601f19601f820116820180604052508101906103829190612d76565b5160405163884289e360e01b81526001600160a01b0385811660048301529192509082169063884289e39060240160206040518083038186803b1580156103c857600080fd5b505afa1580156103dc573d6000803e3d6000fd5b505050506040513d601f19601f820116820180604052508101906104009190612dd4565b60405180604001604052806002815260200161414360f01b815250906104395760405162461bcd60e51b81526004016102bc9190612d63565b50600080846001600160a01b0316846040516104559190612df6565b6000604051808303816000865af19150503d8060008114610492576040519150601f19603f3d011682016040523d82523d6000602084013e610497565b606091505b5091509150816104aa5780518082602001fd5b5050506104b76001600055565b5050565b60606104c5611842565b6104ce3361189c565b6104ff5760405162461bcd60e51b8152602060048201526002602482015261494f60f01b60448201526064016102bc565b60015460408051637ac46fbb60e01b815281516000936001600160a01b031692637ac46fbb9260048082019391829003018186803b15801561054057600080fd5b505afa158015610554573d6000803e3d6000fd5b505050506040513d601f19601f820116820180604052508101906105789190612d76565b60200151600480546040516331a9108f60e11b8152918201529091506000906001600160a01b03831690636352211e9060240160206040518083038186803b1580156105c357600080fd5b505afa1580156105d7573d6000803e3d6000fd5b505050506040513d601f19601f820116820180604052508101906105fb9190612e12565b90506001600160a01b038116331480610618575061061887611a4e565b60405180604001604052806005815260200164494e54524160d81b815250906106545760405162461bcd60e51b81526004016102bc9190612d63565b5060006106618787611d1c565b90506000610670898388611e05565b90506106d78860028054806020026020016040519081016040528092919081815260200182805480156106cc57602002820191906000526020600020905b81546001600160a01b031681526001909101906020018083116106ae575b505050505083611f0c565b94507f54f9e6ef58e36de62f59f9ee6c4b878af84989c53a3642eba415ac3ac4e11cda898660405161070a929190612e2f565b60405180910390a1505050506107206001600055565b949350505050565b606060005b84518110156107bc57600084828151811061074a5761074a612e53565b602002602001015111156107aa576107aa863086848151811061076f5761076f612e53565b602002602001015188858151811061078957610789612e53565b60200260200101516001600160a01b031661212d909392919063ffffffff16565b806107b481612e7f565b91505061072d565b506107c88484846108b1565b905060005b84518110156108a85760008482815181106107ea576107ea612e53565b602002602001015183838151811061080457610804612e53565b602002602001015110610818576000610856565b82828151811061082a5761082a612e53565b602002602001015185838151811061084457610844612e53565b60200260200101516108569190612e9a565b9050801561089557610895878288858151811061087557610875612e53565b60200260200101516001600160a01b031661219e9092919063ffffffff16565b50806108a081612e7f565b9150506107cd565b50949350505050565b60606108bb611842565b6004805460408051808201909152918252631253925560e21b602083015290816108f85760405162461bcd60e51b81526004016102bc9190612d63565b506109023361189c565b60405180604001604052806002815260200161494f60f01b8152509061093b5760405162461bcd60e51b81526004016102bc9190612d63565b5060015460408051637ac46fbb60e01b815281516000936001600160a01b031692637ac46fbb9260048082019391829003018186803b15801561097d57600080fd5b505afa158015610991573d6000803e3d6000fd5b505050506040513d601f19601f820116820180604052508101906109b59190612d76565b602001516040516331a9108f60e11b8152600481018490529091506000906001600160a01b03831690636352211e9060240160206040518083038186803b1580156109ff57600080fd5b505afa158015610a13573d6000803e3d6000fd5b505050506040513d601f19601f82011682018060405250810190610a379190612e12565b60405163fcdabd2760e01b81526001600160a01b03808316600483015291925060009184169063fcdabd279060240160206040518083038186803b158015610a7e57600080fd5b505afa158015610a92573d6000803e3d6000fd5b505050506040513d601f19601f82011682018060405250810190610ab69190612eb1565b9050600081116040518060400160405280600381526020016227abab60e91b81525090610af65760405162461bcd60e51b81526004016102bc9190612d63565b506000610b038989611d1c565b90506000819050610b6d8a60028054806020026020016040519081016040528092919081815260200182805480156106cc576020028201919060005260206000209081546001600160a01b031681526001909101906020018083116106ae57505050505083611f0c565b96507f08e404e978692dd1b8275016b7a7b0b3ae4afd06b0cec7228060bb2da18c84fd81604051610b9e9190612989565b60405180910390a1505050505050610bb66001600055565b9392505050565b6000808351118015610c165750610c168360018551610bdc9190612e9a565b81518110610bec57610bec612e53565b6020026020010151602001516001600160a01b031660009081526003602052604090205460ff1690565b60405180604001604052806002815260200161159560f21b81525090610c4f5760405162461bcd60e51b81526004016102bc9190612d63565b50610c59336121d3565b6040518060400160405280600281526020016114d560f21b81525090610c925760405162461bcd60e51b81526004016102bc9190612d63565b50600154604080516301a6998760e71b815290516001600160a01b0390921691600091839163d34cc38091600480820192602092909190829003018186803b158015610cdd57600080fd5b505afa158015610cf1573d6000803e3d6000fd5b505050506040513d601f19601f82011682018060405250810190610d159190612eca565b6000015190506000819050610dc086600081518110610d3657610d36612e53565b60209081029190910101515160405163bcfbd44560e01b8152600481018c90526001600160a01b0384169063bcfbd445906024015b60206040518083038186803b158015610d8357600080fd5b505afa158015610d97573d6000803e3d6000fd5b505050506040513d601f19601f82011682018060405250810190610dbb9190612e12565b6122df565b60405163671918af60e01b81526001600160a01b0383169063671918af90610df5908c908c906000908c908c90600401612f96565b602060405180830381600087803b158015610e0f57600080fd5b505af1158015610e23573d6000803e3d6000fd5b505050506040513d601f19601f82011682018060405250810190610e479190612eb1565b9998505050505050505050565b60606002805480602002602001604051908101604052809291908181526020018280548015610eac57602002820191906000526020600020905b81546001600160a01b03168152600190910190602001808311610e8e575b5050505050905090565b6000808451118015610ed55750610ed58460018651610bdc9190612e9a565b60405180604001604052806002815260200161159560f21b81525090610f0e5760405162461bcd60e51b81526004016102bc9190612d63565b50610f18336121d3565b6040518060400160405280600281526020016114d560f21b81525090610f515760405162461bcd60e51b81526004016102bc9190612d63565b50600154604080516301a6998760e71b815290516001600160a01b0390921691600091839163d34cc38091600480820192602092909190829003018186803b158015610f9c57600080fd5b505afa158015610fb0573d6000803e3d6000fd5b505050506040513d601f19601f82011682018060405250810190610fd49190612eca565b600001519050600081905061102e87600081518110610ff557610ff5612e53565b60209081029190910101515160405163bcfbd44560e01b8152600481018d90526001600160a01b0384169063bcfbd44590602401610d6b565b60405163b80757ad60e01b81526001600160a01b0383169063b80757ad90611065908d908d906000908d908d908d90600401612fe1565b602060405180830381600087803b15801561107f57600080fd5b505af1158015611093573d6000803e3d6000fd5b505050506040513d601f19601f820116820180604052508101906110b79190612eb1565b9a9950505050505050505050565b6104b782826123f4565b60606000600280548060200260200160405190810160405280929190818152602001828054801561112957602002820191906000526020600020905b81546001600160a01b0316815260019091019060200180831161110b575b5050505050905080516001600160401b0381111561114957611149612696565b604051908082528060200260200182016040528015611172578160200160208202803683370190505b50915060005b81518110156112455781818151811061119357611193612e53565b60209081029190910101516040516370a0823160e01b81523060048201526001600160a01b03909116906370a082319060240160206040518083038186803b1580156111de57600080fd5b505afa1580156111f2573d6000803e3d6000fd5b505050506040513d601f19601f820116820180604052508101906112169190612eb1565b83828151811061122857611228612e53565b60209081029190910101528061123d81612e7f565b915050611178565b505090565b611252611842565b600060045411604051806040016040528060048152602001631253925560e21b815250906112935760405162461bcd60e51b81526004016102bc9190612d63565b5060015460408051637ac46fbb60e01b815281516000936001600160a01b031692637ac46fbb9260048082019391829003018186803b1580156112d557600080fd5b505afa1580156112e9573d6000803e3d6000fd5b505050506040513d601f19601f8201168201806040525081019061130d9190612d76565b51604051630935e01b60e21b81523360048201529091506000906001600160a01b038316906324d7806c9060240160206040518083038186803b15801561135357600080fd5b505afa158015611367573d6000803e3d6000fd5b505050506040513d601f19601f8201168201806040525081019061138b9190612dd4565b9050808061139d575061139d3361189c565b6040518060400160405280600381526020016241444d60e81b815250906113d75760405162461bcd60e51b81526004016102bc9190612d63565b5080611424576113e684611a4e565b60405180604001604052806005815260200164494e54524160d81b815250906114225760405162461bcd60e51b81526004016102bc9190612d63565b505b600083516001600160401b0381111561143f5761143f612696565b604051908082528060200260200182016040528015611468578160200160208202803683370190505b50905060005b84518110156115a157600085828151811061148b5761148b612e53565b60209081029190910101516040516370a0823160e01b81523060048201529091506001600160a01b038216906370a082319060240160206040518083038186803b1580156114d857600080fd5b505afa1580156114ec573d6000803e3d6000fd5b505050506040513d601f19601f820116820180604052508101906115109190612eb1565b83838151811061152257611522612e53565b60200260200101818152505082828151811061154057611540612e53565b602002602001015160001415611556575061158f565b61158d8784848151811061156c5761156c612e53565b6020026020010151836001600160a01b031661219e9092919063ffffffff16565b505b8061159981612e7f565b91505061146e565b506115ac85856123f4565b7f9efcb26e0cf572bd9171640e114f387cef91cd3e38532ed6b3f80c7f2e758f878585836040516115df93929190613044565b60405180910390a15050506104b76001600055565b600154604080518082019091526002815261564760f01b6020820152906001600160a01b031633146116395760405162461bcd60e51b81526004016102bc9190612d63565b5060408051808201909152600481526304e4654360e41b6020820152816116735760405162461bcd60e51b81526004016102bc9190612d63565b506004805460408051808201909152918252631253925560e21b6020830152156116b05760405162461bcd60e51b81526004016102bc9190612d63565b50600481815560015460408051637ac46fbb60e01b815281516000946001600160a01b0390941693637ac46fbb938382019390929190829003018186803b1580156116fa57600080fd5b505afa15801561170e573d6000803e3d6000fd5b505050506040513d601f19601f820116820180604052508101906117329190612d76565b6020015160405163a22cb46560e01b81526001600160a01b038216600482018190526001602483015291925063a22cb46590604401600060405180830381600087803b15801561178157600080fd5b505af1158015611795573d6000803e3d6000fd5b505050505050565b60006002825110156117b157506001919050565b60005b600183516117c29190612e9a565b81101561183957826117d5826001613084565b815181106117e5576117e5612e53565b60200260200101516001600160a01b031683828151811061180857611808612e53565b60200260200101516001600160a01b0316106118275750600092915050565b8061183181612e7f565b9150506117b4565b50600192915050565b600260005414156118955760405162461bcd60e51b815260206004820152601f60248201527f5265656e7472616e637947756172643a207265656e7472616e742063616c6c0060448201526064016102bc565b6002600055565b60015460408051637ac46fbb60e01b8152815160009384936001600160a01b0390911692637ac46fbb9260048083019392829003018186803b1580156118e157600080fd5b505afa1580156118f5573d6000803e3d6000fd5b505050506040513d601f19601f820116820180604052508101906119199190612d76565b6020015160045490915080611932575060009392505050565b60405163020604bf60e21b8152600481018290526001600160a01b03808616919084169063081812fc9060240160206040518083038186803b15801561197757600080fd5b505afa15801561198b573d6000803e3d6000fd5b505050506040513d601f19601f820116820180604052508101906119af9190612e12565b6001600160a01b0316148061072057506040516331a9108f60e11b8152600481018290526001600160a01b038086169190841690636352211e9060240160206040518083038186803b158015611a0457600080fd5b505afa158015611a18573d6000803e3d6000fd5b505050506040513d601f19601f82011682018060405250810190611a3c9190612e12565b6001600160a01b031614949350505050565b6000813b63ffffffff16611a6457506000919050565b60015460408051637ac46fbb60e01b815281516000936001600160a01b031692637ac46fbb9260048082019391829003018186803b158015611aa557600080fd5b505afa158015611ab9573d6000803e3d6000fd5b505050506040513d601f19601f82011682018060405250810190611add9190612d76565b60200151905060045460001415611af75750600092915050565b600480546040516331a9108f60e11b8152918201526000906001600160a01b03831690636352211e9060240160206040518083038186803b158015611b3b57600080fd5b505afa158015611b4f573d6000803e3d6000fd5b505050506040513d601f19601f82011682018060405250810190611b739190612e12565b60405163fcdabd2760e01b81526001600160a01b03808316600483015291925060009184169063fcdabd279060240160206040518083038186803b158015611bba57600080fd5b505afa158015611bce573d6000803e3d6000fd5b505050506040513d601f19601f82011682018060405250810190611bf29190612eb1565b905080611c0457506000949350505050565b604051638333903b60e01b815230600482015282906001600160a01b03821690638333903b9060240160206040518083038186803b158015611c4557600080fd5b505afa158015611c59573d6000803e3d6000fd5b505050506040513d601f19601f82011682018060405250810190611c7d9190612dd4565b1580611cff5750604051638333903b60e01b81526001600160a01b038781166004830152821690638333903b9060240160206040518083038186803b158015611cc557600080fd5b505afa158015611cd9573d6000803e3d6000fd5b505050506040513d601f19601f82011682018060405250810190611cfd9190612dd4565b155b15611d105750600095945050505050565b50600195945050505050565b6060611d278361179d565b6040518060400160405280600381526020016253415560e81b81525090611d615760405162461bcd60e51b81526004016102bc9190612d63565b508151835114604051806040016040528060018152602001601360fa1b81525090611d9f5760405162461bcd60e51b81526004016102bc9190612d63565b50610bb66002805480602002602001604051908101604052809291908181526020018280548015611df957602002820191906000526020600020905b81546001600160a01b03168152600190910190602001808311611ddb575b50505050508484611f0c565b606060005b8351811015611f035760028181548110611e2657611e26612e53565b9060005260206000200160009054906101000a90046001600160a01b03166001600160a01b031663a9059cbb86868481518110611e6557611e65612e53565b60200260200101516040518363ffffffff1660e01b8152600401611e9e9291906001600160a01b03929092168252602082015260400190565b602060405180830381600087803b158015611eb857600080fd5b505af1158015611ecc573d6000803e3d6000fd5b505050506040513d601f19601f82011682018060405250810190611ef09190612dd4565b5080611efb81612e7f565b915050611e0a565b50919392505050565b6060600084516001600160401b03811115611f2957611f29612696565b604051908082528060200260200182016040528015611f52578160200160208202803683370190505b5090506000805b865182108015611f695750855181105b156120e857858181518110611f8057611f80612e53565b60200260200101516001600160a01b0316878381518110611fa357611fa3612e53565b60200260200101516001600160a01b03161015611feb576000838381518110611fce57611fce612e53565b602090810291909101015281611fe381612e7f565b925050611f59565b858181518110611ffd57611ffd612e53565b60200260200101516001600160a01b031687838151811061202057612020612e53565b60200260200101516001600160a01b031611156120995784818151811061204957612049612e53565b60200260200101516000141561206b578061206381612e7f565b915050611f59565b60405162461bcd60e51b815260206004820152600360248201526254505360e81b60448201526064016102bc565b8481815181106120ab576120ab612e53565b60200260200101518383815181106120c5576120c5612e53565b6020908102919091010152816120da81612e7f565b925050808061206390612e7f565b865182101561212257600083838151811061210557612105612e53565b60209081029190910101528161211a81612e7f565b9250506120e8565b509095945050505050565b6040516001600160a01b03808516602483015283166044820152606481018290526121989085906323b872dd60e01b906084015b60408051601f198184030181529190526020810180516001600160e01b03166001600160e01b031990931692909217909152612489565b50505050565b6040516001600160a01b0383166024820152604481018290526121ce90849063a9059cbb60e01b90606401612161565b505050565b60015460408051637ac46fbb60e01b815281516000936001600160a01b0380871694911692637ac46fbb9260048083019392829003018186803b15801561221957600080fd5b505afa15801561222d573d6000803e3d6000fd5b505050506040513d601f19601f820116820180604052508101906122519190612d76565b602001516004805460405163020604bf60e21b8152918201526001600160a01b039091169063081812fc9060240160206040518083038186803b15801561229757600080fd5b505afa1580156122ab573d6000803e3d6000fd5b505050506040513d601f19601f820116820180604052508101906122cf9190612e12565b6001600160a01b03161492915050565b6122ec600260001961309c565b604051636eb1769f60e11b81526001600160a01b03838116600483015230602483015284169063dd62ed3e9060440160206040518083038186803b15801561233357600080fd5b505afa158015612347573d6000803e3d6000fd5b505050506040513d601f19601f8201168201806040525081019061236b9190612eb1565b10156104b75760405163095ea7b360e01b81526001600160a01b038281166004830152600019602483015283169063095ea7b390604401602060405180830381600087803b1580156123bc57600080fd5b505af11580156123d0573d6000803e3d6000fd5b505050506040513d601f19601f820116820180604052508101906121ce9190612dd4565b60005b81518110156121ce5761243b82828151811061241557612415612e53565b60200260200101516001600160a01b031660009081526003602052604090205460ff1690565b156040518060400160405280600381526020016213d5d560ea1b815250906124765760405162461bcd60e51b81526004016102bc9190612d63565b508061248181612e7f565b9150506123f7565b60006124de826040518060400160405280602081526020017f5361666545524332303a206c6f772d6c6576656c2063616c6c206661696c6564815250856001600160a01b031661255e9092919063ffffffff16565b90508051600014806124ff5750808060200190518101906124ff9190612dd4565b6121ce5760405162461bcd60e51b815260206004820152602a60248201527f5361666545524332303a204552433230206f7065726174696f6e20646964206e6044820152691bdd081cdd58d8d9595960b21b60648201526084016102bc565b6060610720848460008585600080866001600160a01b031685876040516125859190612df6565b60006040518083038185875af1925050503d80600081146125c2576040519150601f19603f3d011682016040523d82523d6000602084013e6125c7565b606091505b50915091506125d8878383876125e3565b979650505050505050565b6060831561264f578251612648576001600160a01b0385163b6126485760405162461bcd60e51b815260206004820152601d60248201527f416464726573733a2063616c6c20746f206e6f6e2d636f6e747261637400000060448201526064016102bc565b5081610720565b61072083838151156126645781518083602001fd5b8060405162461bcd60e51b81526004016102bc9190612d63565b6001600160a01b038116811461269357600080fd5b50565b634e487b7160e01b600052604160045260246000fd5b604051606081016001600160401b03811182821017156126ce576126ce612696565b60405290565b604051601f8201601f191681016001600160401b03811182821017156126fc576126fc612696565b604052919050565b600082601f83011261271557600080fd5b81356001600160401b0381111561272e5761272e612696565b612741601f8201601f19166020016126d4565b81815284602083860101111561275657600080fd5b816020850160208301376000918101602001919091529392505050565b6000806040838503121561278657600080fd5b82356127918161267e565b915060208301356001600160401b038111156127ac57600080fd5b6127b885828601612704565b9150509250929050565b60006001600160401b038211156127db576127db612696565b5060051b60200190565b600082601f8301126127f657600080fd5b8135602061280b612806836127c2565b6126d4565b82815260059290921b8401810191818101908684111561282a57600080fd5b8286015b8481101561284e5780356128418161267e565b835291830191830161282e565b509695505050505050565b600082601f83011261286a57600080fd5b8135602061287a612806836127c2565b82815260059290921b8401810191818101908684111561289957600080fd5b8286015b8481101561284e578035835291830191830161289d565b600080600080608085870312156128ca57600080fd5b84356128d58161267e565b935060208501356001600160401b03808211156128f157600080fd5b6128fd888389016127e5565b9450604087013591508082111561291357600080fd5b61291f88838901612859565b9350606087013591508082111561293557600080fd5b5061294287828801612704565b91505092959194509250565b600081518084526020808501945080840160005b8381101561297e57815187529582019590820190600101612962565b509495945050505050565b602081526000610bb6602083018461294e565b6000602082840312156129ae57600080fd5b8135610bb68161267e565b6000806000606084860312156129ce57600080fd5b83356001600160401b03808211156129e557600080fd5b6129f1878388016127e5565b94506020860135915080821115612a0757600080fd5b612a1387838801612859565b93506040860135915080821115612a2957600080fd5b50612a3686828701612704565b9150509250925092565b600082601f830112612a5157600080fd5b81356020612a61612806836127c2565b82815260059290921b84018101918181019086841115612a8057600080fd5b8286015b8481101561284e5780356001600160401b0380821115612aa45760008081fd5b908801906060828b03601f1901811315612abe5760008081fd5b612ac66126ac565b87840135612ad38161267e565b8152604084810135612ae48161267e565b828a0152918401359183831115612afb5760008081fd5b612b098d8a85880101612704565b908201528652505050918301918301612a84565b600080600080600060a08688031215612b3557600080fd5b85359450602086013593506040860135612b4e8161267e565b925060608601356001600160401b0380821115612b6a57600080fd5b612b7689838a01612a40565b93506080880135915080821115612b8c57600080fd5b50612b9988828901612704565b9150509295509295909350565b600081518084526020808501945080840160005b8381101561297e5781516001600160a01b031687529582019590820190600101612bba565b602081526000610bb66020830184612ba6565b60008060008060008060a08789031215612c0b57600080fd5b86359550602087013594506040870135612c248161267e565b935060608701356001600160401b0380821115612c4057600080fd5b612c4c8a838b01612a40565b94506080890135915080821115612c6257600080fd5b818901915089601f830112612c7657600080fd5b813581811115612c8557600080fd5b8a6020828501011115612c9757600080fd5b6020830194508093505050509295509295509295565b60008060408385031215612cc057600080fd5b8235612ccb8161267e565b915060208301356001600160401b03811115612ce657600080fd5b6127b8858286016127e5565b600060208284031215612d0457600080fd5b5035919050565b60005b83811015612d26578181015183820152602001612d0e565b838111156121985750506000910152565b60008151808452612d4f816020860160208601612d0b565b601f01601f19169290920160200192915050565b602081526000610bb66020830184612d37565b600060408284031215612d8857600080fd5b604051604081018181106001600160401b0382111715612daa57612daa612696565b6040528251612db88161267e565b81526020830151612dc88161267e565b60208201529392505050565b600060208284031215612de657600080fd5b81518015158114610bb657600080fd5b60008251612e08818460208701612d0b565b9190910192915050565b600060208284031215612e2457600080fd5b8151610bb68161267e565b6001600160a01b03831681526040602082018190526000906107209083018461294e565b634e487b7160e01b600052603260045260246000fd5b634e487b7160e01b600052601160045260246000fd5b6000600019821415612e9357612e93612e69565b5060010190565b600082821015612eac57612eac612e69565b500390565b600060208284031215612ec357600080fd5b5051919050565b600060208284031215612edc57600080fd5b604051602081018181106001600160401b0382111715612efe57612efe612696565b6040528251612f0c8161267e565b81529392505050565b600081518084526020808501808196508360051b8101915082860160005b85811015612f89578284038952815180516001600160a01b039081168652868201511686860152604090810151606091860182905290612f7581870183612d37565b9a87019a9550505090840190600101612f33565b5091979650505050505050565b85815284602082015260018060a01b038416604082015260a060608201526000612fc360a0830185612f15565b8281036080840152612fd58185612d37565b98975050505050505050565b86815285602082015260018060a01b038516604082015260a06060820152600061300e60a0830186612f15565b8281036080840152838152838560208301376000602085830101526020601f19601f860116820101915050979650505050505050565b6001600160a01b038416815260606020820181905260009061306890830185612ba6565b828103604084015261307a818561294e565b9695505050505050565b6000821982111561309757613097612e69565b500190565b6000826130b957634e487b7160e01b600052601260045260246000fd5b50049056fea2646970667358221220c48b857db020119bf2dadfda73bc0f2c6104c73c4a481b202c1797d4ebae505264736f6c63430008090033",
  "linkReferences": {},
  "deployedLinkReferences": {}
}