{"abi":[{"type":"function","name":"governance","inputs":[],"outputs":[{"name":"","type":"address","internalType":"address"}],"stateMutability":"view"},{"type":"function","name":"keeper","inputs":[],"outputs":[{"name":"","type":"address","internalType":"address"}],"stateMutability":"view"},{"type":"function","name":"setGovernance","inputs":[{"name":"_governance","type":"address","internalType":"address"}],"outputs":[],"stateMutability":"nonpayable"},{"type":"function","name":"setKeeper","inputs":[{"name":"_keeper","type":"address","internalType":"address"}],"outputs":[],"stateMutability":"nonpayable"},{"type":"function","name":"setStrategist","inputs":[{"name":"_strategist","type":"address","internalType":"address"}],"outputs":[],"stateMutability":"nonpayable"},{"type":"function","name":"strategist","inputs":[],"outputs":[{"name":"","type":"address","internalType":"address"}],"stateMutability":"view"}],"bytecode":{"object":"0x608060405234801561001057600080fd5b5061046a806100206000396000f3fe608060405234801561001057600080fd5b50600436106100625760003560e01c80631fe4a686146100675780635aa6e67514610085578063748747e6146100a3578063ab033ea9146100bf578063aced1661146100db578063c7b9d530146100f9575b600080fd5b61006f610115565b60405161007c919061033e565b60405180910390f35b61008d61013b565b60405161009a919061033e565b60405180910390f35b6100bd60048036038101906100b8919061038a565b610161565b005b6100d960048036038101906100d4919061038a565b6101ad565b005b6100e36101f9565b6040516100f0919061033e565b60405180910390f35b610113600480360381019061010e919061038a565b61021f565b005b600160009054906101000a900473ffffffffffffffffffffffffffffffffffffffff1681565b600060029054906101000a900473ffffffffffffffffffffffffffffffffffffffff1681565b61016961026b565b80600260006101000a81548173ffffffffffffffffffffffffffffffffffffffff021916908373ffffffffffffffffffffffffffffffffffffffff16021790555050565b6101b561026b565b80600060026101000a81548173ffffffffffffffffffffffffffffffffffffffff021916908373ffffffffffffffffffffffffffffffffffffffff16021790555050565b600260009054906101000a900473ffffffffffffffffffffffffffffffffffffffff1681565b61022761026b565b80600160006101000a81548173ffffffffffffffffffffffffffffffffffffffff021916908373ffffffffffffffffffffffffffffffffffffffff16021790555050565b600060029054906101000a900473ffffffffffffffffffffffffffffffffffffffff1673ffffffffffffffffffffffffffffffffffffffff163373ffffffffffffffffffffffffffffffffffffffff16146102fb576040517f08c379a00000000000000000000000000000000000000000000000000000000081526004016102f290610414565b60405180910390fd5b565b600073ffffffffffffffffffffffffffffffffffffffff82169050919050565b6000610328826102fd565b9050919050565b6103388161031d565b82525050565b6000602082019050610353600083018461032f565b92915050565b600080fd5b6103678161031d565b811461037257600080fd5b50565b6000813590506103848161035e565b92915050565b6000602082840312156103a05761039f610359565b5b60006103ae84828501610375565b91505092915050565b600082825260208201905092915050565b7f6f6e6c79476f7665726e616e6365000000000000000000000000000000000000600082015250565b60006103fe600e836103b7565b9150610409826103c8565b602082019050919050565b6000602082019050818103600083015261042d816103f1565b905091905056fea26469706673582212203ccdc381b5fb462fd704a5027be2b67b1cd42c3ff0571bf8395e0c463514bba064736f6c634300080c0033","linkReferences":{}},"methodIdentifiers":{"governance()":"5aa6e675","keeper()":"aced1661","setGovernance(address)":"ab033ea9","setKeeper(address)":"748747e6","setStrategist(address)":"c7b9d530","strategist()":"1fe4a686"},"id":45}