{
  "_format": "hh-sol-artifact-1",
  "contractName": "MixinDisable",
  "sourceName": "contracts/mixins/MixinDisable.sol",
  "abi": [
    {
      "anonymous": false,
      "inputs": [],
      "name": "Disable",
      "type": "event"
    },
    {
      "anonymous": false,
      "inputs": [
        {
          "indexed": true,
          "internalType": "address",
          "name": "account",
          "type": "address"
        }
      ],
      "name": "KeyGranterAdded",
      "type": "event"
    },
    {
      "anonymous": false,
      "inputs": [
        {
          "indexed": true,
          "internalType": "address",
          "name": "account",
          "type": "address"
        }
      ],
      "name": "KeyGranterRemoved",
      "type": "event"
    },
    {
      "anonymous": false,
      "inputs": [
        {
          "indexed": true,
          "internalType": "address",
          "name": "account",
          "type": "address"
        }
      ],
      "name": "LockManagerAdded",
      "type": "event"
    },
    {
      "anonymous": false,
      "inputs": [
        {
          "indexed": true,
          "internalType": "address",
          "name": "account",
          "type": "address"
        }
      ],
      "name": "LockManagerRemoved",
      "type": "event"
    },
    {
      "anonymous": false,
      "inputs": [
        {
          "indexed": true,
          "internalType": "bytes32",
          "name": "role",
          "type": "bytes32"
        },
        {
          "indexed": true,
          "internalType": "bytes32",
          "name": "previousAdminRole",
          "type": "bytes32"
        },
        {
          "indexed": true,
          "internalType": "bytes32",
          "name": "newAdminRole",
          "type": "bytes32"
        }
      ],
      "name": "RoleAdminChanged",
      "type": "event"
    },
    {
      "anonymous": false,
      "inputs": [
        {
          "indexed": true,
          "internalType": "bytes32",
          "name": "role",
          "type": "bytes32"
        },
        {
          "indexed": true,
          "internalType": "address",
          "name": "account",
          "type": "address"
        },
        {
          "indexed": true,
          "internalType": "address",
          "name": "sender",
          "type": "address"
        }
      ],
      "name": "RoleGranted",
      "type": "event"
    },
    {
      "anonymous": false,
      "inputs": [
        {
          "indexed": true,
          "internalType": "bytes32",
          "name": "role",
          "type": "bytes32"
        },
        {
          "indexed": true,
          "internalType": "address",
          "name": "account",
          "type": "address"
        },
        {
          "indexed": true,
          "internalType": "address",
          "name": "sender",
          "type": "address"
        }
      ],
      "name": "RoleRevoked",
      "type": "event"
    },
    {
      "inputs": [],
      "name": "DEFAULT_ADMIN_ROLE",
      "outputs": [
        {
          "internalType": "bytes32",
          "name": "",
          "type": "bytes32"
        }
      ],
      "stateMutability": "view",
      "type": "function"
    },
    {
      "inputs": [],
      "name": "KEY_GRANTER_ROLE",
      "outputs": [
        {
          "internalType": "bytes32",
          "name": "",
          "type": "bytes32"
        }
      ],
      "stateMutability": "view",
      "type": "function"
    },
    {
      "inputs": [],
      "name": "LOCK_MANAGER_ROLE",
      "outputs": [
        {
          "internalType": "bytes32",
          "name": "",
          "type": "bytes32"
        }
      ],
      "stateMutability": "view",
      "type": "function"
    },
    {
      "inputs": [
        {
          "internalType": "address",
          "name": "account",
          "type": "address"
        }
      ],
      "name": "addKeyGranter",
      "outputs": [],
      "stateMutability": "nonpayable",
      "type": "function"
    },
    {
      "inputs": [
        {
          "internalType": "address",
          "name": "account",
          "type": "address"
        }
      ],
      "name": "addLockManager",
      "outputs": [],
      "stateMutability": "nonpayable",
      "type": "function"
    },
    {
      "inputs": [],
      "name": "disableLock",
      "outputs": [],
      "stateMutability": "nonpayable",
      "type": "function"
    },
    {
      "inputs": [
        {
          "internalType": "bytes32",
          "name": "role",
          "type": "bytes32"
        }
      ],
      "name": "getRoleAdmin",
      "outputs": [
        {
          "internalType": "bytes32",
          "name": "",
          "type": "bytes32"
        }
      ],
      "stateMutability": "view",
      "type": "function"
    },
    {
      "inputs": [
        {
          "internalType": "bytes32",
          "name": "role",
          "type": "bytes32"
        },
        {
          "internalType": "address",
          "name": "account",
          "type": "address"
        }
      ],
      "name": "grantRole",
      "outputs": [],
      "stateMutability": "nonpayable",
      "type": "function"
    },
    {
      "inputs": [
        {
          "internalType": "bytes32",
          "name": "role",
          "type": "bytes32"
        },
        {
          "internalType": "address",
          "name": "account",
          "type": "address"
        }
      ],
      "name": "hasRole",
      "outputs": [
        {
          "internalType": "bool",
          "name": "",
          "type": "bool"
        }
      ],
      "stateMutability": "view",
      "type": "function"
    },
    {
      "inputs": [],
      "name": "isAlive",
      "outputs": [
        {
          "internalType": "bool",
          "name": "",
          "type": "bool"
        }
      ],
      "stateMutability": "view",
      "type": "function"
    },
    {
      "inputs": [
        {
          "internalType": "address",
          "name": "account",
          "type": "address"
        }
      ],
      "name": "isKeyGranter",
      "outputs": [
        {
          "internalType": "bool",
          "name": "",
          "type": "bool"
        }
      ],
      "stateMutability": "view",
      "type": "function"
    },
    {
      "inputs": [
        {
          "internalType": "address",
          "name": "account",
          "type": "address"
        }
      ],
      "name": "isLockManager",
      "outputs": [
        {
          "internalType": "bool",
          "name": "",
          "type": "bool"
        }
      ],
      "stateMutability": "view",
      "type": "function"
    },
    {
      "inputs": [],
      "name": "renounceLockManager",
      "outputs": [],
      "stateMutability": "nonpayable",
      "type": "function"
    },
    {
      "inputs": [
        {
          "internalType": "bytes32",
          "name": "role",
          "type": "bytes32"
        },
        {
          "internalType": "address",
          "name": "account",
          "type": "address"
        }
      ],
      "name": "renounceRole",
      "outputs": [],
      "stateMutability": "nonpayable",
      "type": "function"
    },
    {
      "inputs": [
        {
          "internalType": "address",
          "name": "_granter",
          "type": "address"
        }
      ],
      "name": "revokeKeyGranter",
      "outputs": [],
      "stateMutability": "nonpayable",
      "type": "function"
    },
    {
      "inputs": [
        {
          "internalType": "bytes32",
          "name": "role",
          "type": "bytes32"
        },
        {
          "internalType": "address",
          "name": "account",
          "type": "address"
        }
      ],
      "name": "revokeRole",
      "outputs": [],
      "stateMutability": "nonpayable",
      "type": "function"
    },
    {
      "inputs": [
        {
          "internalType": "bytes4",
          "name": "interfaceId",
          "type": "bytes4"
        }
      ],
      "name": "supportsInterface",
      "outputs": [
        {
          "internalType": "bool",
          "name": "",
          "type": "bool"
        }
      ],
      "stateMutability": "view",
      "type": "function"
    },
    {
      "inputs": [],
      "name": "tokenAddress",
      "outputs": [
        {
          "internalType": "address",
          "name": "",
          "type": "address"
        }
      ],
      "stateMutability": "view",
      "type": "function"
    }
  ],
  "bytecode": "0x608060405234801561001057600080fd5b50610c77806100206000396000f3fe608060405234801561001057600080fd5b50600436106101165760003560e01c80638ca2fbad116100a2578063aae4b8f711610071578063aae4b8f714610259578063c1c98d031461026c578063d250348514610274578063d547741f14610287578063f0ba60401461029a57600080fd5b80638ca2fbad146101fe57806391d14854146102135780639d76ea5814610226578063a217fddf1461025157600080fd5b80632f2ff15d116100e95780632f2ff15d1461019e57806336568abe146101b15780634136aa35146101c457806352b0f638146101d8578063564aa99d146101eb57600080fd5b806301ffc9a71461011b5780632310050914610143578063248a9ca3146101665780632af9162a14610189575b600080fd5b61012e610129366004610a48565b6102a2565b60405190151581526020015b60405180910390f35b610158600080516020610c0283398151915281565b60405190815260200161013a565b610158610174366004610a05565b60009081526065602052604090206001015490565b61019c6101973660046109eb565b6102d9565b005b61019c6101ac366004610a1d565b610365565b61019c6101bf366004610a1d565b610390565b60975461012e90600160a01b900460ff1681565b61012e6101e63660046109eb565b61040e565b61019c6101f93660046109eb565b610428565b610158600080516020610c2283398151915281565b61012e610221366004610a1d565b6104ab565b609754610239906001600160a01b031681565b6040516001600160a01b03909116815260200161013a565b610158600081565b61012e6102673660046109eb565b6104d6565b61019c6104f0565b61019c6102823660046109eb565b6105a7565b61019c610295366004610a1d565b61062a565b61019c610650565b60006001600160e01b03198216637965db0b60e01b14806102d357506301ffc9a760e01b6001600160e01b03198316145b92915050565b6102f1600080516020610c22833981519152336104ab565b6103165760405162461bcd60e51b815260040161030d90610b18565b60405180910390fd5b61032e600080516020610c028339815191528261062a565b6040516001600160a01b038216907f766f6199fea59554b9ff688e413302b9200f85d74811c053c12d945ac6d8dd7a90600090a250565b6000828152606560205260409020600101546103818133610695565b61038b83836106f9565b505050565b6001600160a01b03811633146104005760405162461bcd60e51b815260206004820152602f60248201527f416363657373436f6e74726f6c3a2063616e206f6e6c792072656e6f756e636560448201526e103937b632b9903337b91039b2b63360891b606482015260840161030d565b61040a828261077f565b5050565b60006102d3600080516020610c02833981519152836104ab565b610440600080516020610c22833981519152336104ab565b61045c5760405162461bcd60e51b815260040161030d90610b18565b610474600080516020610c0283398151915282610365565b6040516001600160a01b038216907f684f8a71407db0c334454ebe9c9b288549317893a20b10dc779ec5c118dcd12190600090a250565b60009182526065602090815260408084206001600160a01b0393909316845291905290205460ff1690565b60006102d3600080516020610c22833981519152836104ab565b610508600080516020610c22833981519152336104ab565b6105245760405162461bcd60e51b815260040161030d90610b18565b609754600160a01b900460ff1661056f5760405162461bcd60e51b815260206004820152600f60248201526e1313d0d2d7d11154149150d0551151608a1b604482015260640161030d565b6040517f25a311358326fb18c62efc24bc28d3126acee8d2a67fd8b2145b757dc8bd1bc190600090a16097805460ff60a01b19169055565b6105bf600080516020610c22833981519152336104ab565b6105db5760405162461bcd60e51b815260040161030d90610b18565b6105f3600080516020610c2283398151915282610365565b6040516001600160a01b038216907f91d5c045d5bd98bf59a379b259ebca05b93bf79af1845fdf87e3172385d4c7f790600090a250565b6000828152606560205260409020600101546106468133610695565b61038b838361077f565b610668600080516020610c2283398151915233610390565b60405133907f42885193b8178d25fca25a38e6fcc93918501e91be06d85e0c8afb3bad95238090600090a2565b61069f82826104ab565b61040a576106b7816001600160a01b031660146107e6565b6106c28360206107e6565b6040516020016106d3929190610a70565b60408051601f198184030181529082905262461bcd60e51b825261030d91600401610ae5565b61070382826104ab565b61040a5760008281526065602090815260408083206001600160a01b03851684529091529020805460ff1916600117905561073b3390565b6001600160a01b0316816001600160a01b0316837f2f8788117e7eff1d82e926ec794901d17c78024a50270940304540a733656f0d60405160405180910390a45050565b61078982826104ab565b1561040a5760008281526065602090815260408083206001600160a01b0385168085529252808320805460ff1916905551339285917ff6391f5c32d9c69d2a47ea670b442974b53935d1edc7fd64eb21e047a839171b9190a45050565b606060006107f5836002610b85565b610800906002610b6d565b67ffffffffffffffff81111561082657634e487b7160e01b600052604160045260246000fd5b6040519080825280601f01601f191660200182016040528015610850576020820181803683370190505b509050600360fc1b8160008151811061087957634e487b7160e01b600052603260045260246000fd5b60200101906001600160f81b031916908160001a905350600f60fb1b816001815181106108b657634e487b7160e01b600052603260045260246000fd5b60200101906001600160f81b031916908160001a90535060006108da846002610b85565b6108e5906001610b6d565b90505b6001811115610979576f181899199a1a9b1b9c1cb0b131b232b360811b85600f166010811061092757634e487b7160e01b600052603260045260246000fd5b1a60f81b82828151811061094b57634e487b7160e01b600052603260045260246000fd5b60200101906001600160f81b031916908160001a90535060049490941c9361097281610bd4565b90506108e8565b5083156109c85760405162461bcd60e51b815260206004820181905260248201527f537472696e67733a20686578206c656e67746820696e73756666696369656e74604482015260640161030d565b9392505050565b80356001600160a01b03811681146109e657600080fd5b919050565b6000602082840312156109fc578081fd5b6109c8826109cf565b600060208284031215610a16578081fd5b5035919050565b60008060408385031215610a2f578081fd5b82359150610a3f602084016109cf565b90509250929050565b600060208284031215610a59578081fd5b81356001600160e01b0319811681146109c8578182fd5b7f416363657373436f6e74726f6c3a206163636f756e7420000000000000000000815260008351610aa8816017850160208801610ba4565b7001034b99036b4b9b9b4b733903937b6329607d1b6017918401918201528351610ad9816028840160208801610ba4565b01602801949350505050565b6020815260008251806020840152610b04816040850160208701610ba4565b601f01601f19169190910160400192915050565b60208082526035908201527f4d6978696e526f6c65733a2063616c6c657220646f6573206e6f74206861766560408201527420746865204c6f636b4d616e6167657220726f6c6560581b606082015260800190565b60008219821115610b8057610b80610beb565b500190565b6000816000190483118215151615610b9f57610b9f610beb565b500290565b60005b83811015610bbf578181015183820152602001610ba7565b83811115610bce576000848401525b50505050565b600081610be357610be3610beb565b506000190190565b634e487b7160e01b600052601160045260246000fdfeb309c40027c81d382c3b58d8de24207a34b27e1db369b1434e4a11311f154b5eb89cdd26cddd51301940bf2715f765b626b8a5a9e2681ac62dc83cc2db2530c0a264697066735822122062ef385d5f3d4968558f5addaa97f244f442140b24968b94acfed5269627092464736f6c63430008040033",
  "linkReferences": {},
  "deployedLinkReferences": {}
}