{
  "contracts/test/mocks/AlphaJobsManagerMock.sol": {
    "AlphaJobsManagerMock": {
      "abi": [
        {
          "constant": false,
          "inputs": [
            {
              "internalType": "address",
              "name": "_addr",
              "type": "address"
            },
            {
              "internalType": "uint256",
              "name": "_deposit",
              "type": "uint256"
            },
            {
              "internalType": "uint256",
              "name": "_withdrawBlock",
              "type": "uint256"
            }
          ],
          "name": "setBroadcaster",
          "outputs": [],
          "payable": false,
          "stateMutability": "nonpayable",
          "type": "function"
        },
        {
          "constant": true,
          "inputs": [
            {
              "internalType": "address",
              "name": "_addr",
              "type": "address"
            }
          ],
          "name": "broadcasters",
          "outputs": [
            {
              "internalType": "uint256",
              "name": "deposit",
              "type": "uint256"
            },
            {
              "internalType": "uint256",
              "name": "withdrawBlock",
              "type": "uint256"
            }
          ],
          "payable": false,
          "stateMutability": "view",
          "type": "function"
        }
      ],
      "devdoc": {
        "methods": {}
      },
      "evm": {
        "bytecode": {
          "linkReferences": {},
          "object": "608060405234801561001057600080fd5b5061011e806100206000396000f3fe6080604052348015600f57600080fd5b506004361060325760003560e01c80631bc4b59e14603757806388cc1093146068575b600080fd5b606660048036036060811015604b57600080fd5b506001600160a01b03813516906020810135906040013560a4565b005b608b60048036036020811015607c57600080fd5b50356001600160a01b031660c6565b6040805192835260208301919091528051918290030190f35b6001600160a01b03909216600090815260208190526040902090815560010155565b6001600160a01b031660009081526020819052604090208054600190910154909156fea265627a7a723158202fda320cecf34946b84b5e019befca2a6b88eeef74c8c02a973f1464da29a5ec64736f6c634300050b0032",
          "opcodes": "PUSH1 0x80 PUSH1 0x40 MSTORE CALLVALUE DUP1 ISZERO PUSH2 0x10 JUMPI PUSH1 0x0 DUP1 REVERT JUMPDEST POP PUSH2 0x11E DUP1 PUSH2 0x20 PUSH1 0x0 CODECOPY PUSH1 0x0 RETURN INVALID PUSH1 0x80 PUSH1 0x40 MSTORE CALLVALUE DUP1 ISZERO PUSH1 0xF JUMPI PUSH1 0x0 DUP1 REVERT JUMPDEST POP PUSH1 0x4 CALLDATASIZE LT PUSH1 0x32 JUMPI PUSH1 0x0 CALLDATALOAD PUSH1 0xE0 SHR DUP1 PUSH4 0x1BC4B59E EQ PUSH1 0x37 JUMPI DUP1 PUSH4 0x88CC1093 EQ PUSH1 0x68 JUMPI JUMPDEST PUSH1 0x0 DUP1 REVERT JUMPDEST PUSH1 0x66 PUSH1 0x4 DUP1 CALLDATASIZE SUB PUSH1 0x60 DUP2 LT ISZERO PUSH1 0x4B JUMPI PUSH1 0x0 DUP1 REVERT JUMPDEST POP PUSH1 0x1 PUSH1 0x1 PUSH1 0xA0 SHL SUB DUP2 CALLDATALOAD AND SWAP1 PUSH1 0x20 DUP2 ADD CALLDATALOAD SWAP1 PUSH1 0x40 ADD CALLDATALOAD PUSH1 0xA4 JUMP JUMPDEST STOP JUMPDEST PUSH1 0x8B PUSH1 0x4 DUP1 CALLDATASIZE SUB PUSH1 0x20 DUP2 LT ISZERO PUSH1 0x7C JUMPI PUSH1 0x0 DUP1 REVERT JUMPDEST POP CALLDATALOAD PUSH1 0x1 PUSH1 0x1 PUSH1 0xA0 SHL SUB AND PUSH1 0xC6 JUMP JUMPDEST PUSH1 0x40 DUP1 MLOAD SWAP3 DUP4 MSTORE PUSH1 0x20 DUP4 ADD SWAP2 SWAP1 SWAP2 MSTORE DUP1 MLOAD SWAP2 DUP3 SWAP1 SUB ADD SWAP1 RETURN JUMPDEST PUSH1 0x1 PUSH1 0x1 PUSH1 0xA0 SHL SUB SWAP1 SWAP3 AND PUSH1 0x0 SWAP1 DUP2 MSTORE PUSH1 0x20 DUP2 SWAP1 MSTORE PUSH1 0x40 SWAP1 KECCAK256 SWAP1 DUP2 SSTORE PUSH1 0x1 ADD SSTORE JUMP JUMPDEST PUSH1 0x1 PUSH1 0x1 PUSH1 0xA0 SHL SUB AND PUSH1 0x0 SWAP1 DUP2 MSTORE PUSH1 0x20 DUP2 SWAP1 MSTORE PUSH1 0x40 SWAP1 KECCAK256 DUP1 SLOAD PUSH1 0x1 SWAP1 SWAP2 ADD SLOAD SWAP1 SWAP2 JUMP INVALID LOG2 PUSH6 0x627A7A723158 KECCAK256 0x2f 0xda ORIGIN 0xc 0xec RETURN 0x49 0x46 0xb8 0x4b 0x5e ADD SWAP12 0xef 0xca 0x2a PUSH12 0x88EEEF74C8C02A973F1464DA 0x29 0xa5 0xec PUSH5 0x736F6C6343 STOP SDIV SIGNEXTEND STOP ORIGIN "
        },
        "gasEstimates": {
          "creation": {
            "codeDepositCost": "57200",
            "executionCost": "105",
            "totalCost": "57305"
          },
          "external": {
            "broadcasters(address)": "787",
            "setBroadcaster(address,uint256,uint256)": "40320"
          }
        },
        "methodIdentifiers": {
          "broadcasters(address)": "88cc1093",
          "setBroadcaster(address,uint256,uint256)": "1bc4b59e"
        }
      },
      "userdoc": {
        "methods": {}
      }
    }
  }
}