{
  "contracts/test/mocks/MinterMock.sol": {
    "MinterMock": {
      "abi": [
        {
          "constant": false,
          "inputs": [
            {
              "internalType": "bytes4",
              "name": "_func",
              "type": "bytes4"
            },
            {
              "internalType": "bytes32",
              "name": "_dataHash",
              "type": "bytes32"
            },
            {
              "internalType": "uint256",
              "name": "_value",
              "type": "uint256"
            }
          ],
          "name": "setMockUint256WithParam",
          "outputs": [
            {
              "internalType": "bool",
              "name": "",
              "type": "bool"
            }
          ],
          "payable": false,
          "stateMutability": "nonpayable",
          "type": "function"
        },
        {
          "constant": false,
          "inputs": [
            {
              "internalType": "address",
              "name": "_target",
              "type": "address"
            },
            {
              "internalType": "bytes",
              "name": "_data",
              "type": "bytes"
            }
          ],
          "name": "execute",
          "outputs": [],
          "payable": true,
          "stateMutability": "payable",
          "type": "function"
        },
        {
          "constant": false,
          "inputs": [
            {
              "internalType": "bytes4",
              "name": "_func",
              "type": "bytes4"
            },
            {
              "internalType": "uint256",
              "name": "_value",
              "type": "uint256"
            }
          ],
          "name": "setMockUint256",
          "outputs": [
            {
              "internalType": "bool",
              "name": "",
              "type": "bool"
            }
          ],
          "payable": false,
          "stateMutability": "nonpayable",
          "type": "function"
        },
        {
          "constant": false,
          "inputs": [
            {
              "internalType": "address",
              "name": "_to",
              "type": "address"
            },
            {
              "internalType": "uint256",
              "name": "_amount",
              "type": "uint256"
            }
          ],
          "name": "trustedWithdrawETH",
          "outputs": [],
          "payable": false,
          "stateMutability": "nonpayable",
          "type": "function"
        },
        {
          "constant": false,
          "inputs": [
            {
              "internalType": "bytes4",
              "name": "_func",
              "type": "bytes4"
            },
            {
              "internalType": "address",
              "name": "_value",
              "type": "address"
            }
          ],
          "name": "setMockAddress",
          "outputs": [],
          "payable": false,
          "stateMutability": "nonpayable",
          "type": "function"
        },
        {
          "constant": false,
          "inputs": [
            {
              "internalType": "bytes4",
              "name": "_func",
              "type": "bytes4"
            },
            {
              "internalType": "bool",
              "name": "_value",
              "type": "bool"
            }
          ],
          "name": "setMockBool",
          "outputs": [],
          "payable": false,
          "stateMutability": "nonpayable",
          "type": "function"
        },
        {
          "constant": false,
          "inputs": [
            {
              "internalType": "bytes4",
              "name": "_func",
              "type": "bytes4"
            },
            {
              "internalType": "bytes32",
              "name": "_value",
              "type": "bytes32"
            }
          ],
          "name": "setMockBytes32",
          "outputs": [],
          "payable": false,
          "stateMutability": "nonpayable",
          "type": "function"
        },
        {
          "payable": true,
          "stateMutability": "payable",
          "type": "fallback"
        },
        {
          "anonymous": false,
          "inputs": [
            {
              "indexed": false,
              "internalType": "address",
              "name": "to",
              "type": "address"
            },
            {
              "indexed": false,
              "internalType": "uint256",
              "name": "amount",
              "type": "uint256"
            }
          ],
          "name": "TrustedWithdrawETH",
          "type": "event"
        }
      ],
      "devdoc": {
        "methods": {
          "execute(address,bytes)": {
            "details": "Call a function on a target address using provided calldata for a function",
            "params": {
              "_data": "Transaction data to be used to call the target contract",
              "_target": "Target contract to call with data"
            }
          },
          "setMockAddress(bytes4,address)": {
            "details": "Set a mock address value for a function",
            "params": {
              "_func": "Function selector (bytes4(keccak256(FUNCTION_SIGNATURE)))",
              "_value": "Mock address value"
            }
          },
          "setMockBool(bytes4,bool)": {
            "details": "Set a mock bool value for a function",
            "params": {
              "_func": "Function selector (bytes4(keccak256(FUNCTION_SIGNATURE)))",
              "_value": "Mock bool value"
            }
          },
          "setMockBytes32(bytes4,bytes32)": {
            "details": "Set a mock bytes32 value for a function",
            "params": {
              "_func": "Function selector (bytes4(keccak256(FUNCTION_SIGNATURE))) param _value Mock bytes32 value"
            }
          },
          "setMockUint256(bytes4,uint256)": {
            "details": "Set a mock uint256 value for a function",
            "params": {
              "_func": "Function selector (bytes4(keccak256(FUNCTION_SIGNATURE)))",
              "_value": "Mock uint256 value"
            }
          },
          "setMockUint256WithParam(bytes4,bytes32,uint256)": {
            "details": "Set a mockuint256 value for a function with specific params passed",
            "params": {
              "_dataHash": "keccak256 hash of tx data i.e. keccak256(msg.data)",
              "_func": "Function selector (bytes4(keccak256(FUNCTION_SIGNATURE)))",
              "_value": "Mock uint256 value"
            }
          }
        }
      },
      "evm": {
        "bytecode": {
          "linkReferences": {},
          "object": "608060405234801561001057600080fd5b506107b8806100206000396000f3fe6080604052600436106100705760003560e01c806320283da91161004e57806320283da9146103b85780636c33e7eb146103f15780637c4d18bd14610434578063d2f65fbc1461047057610070565b80630d9b9993146102a85780631cff79cd146102fc5780631d77d6961461037e575b60008035905060008036604051602001808383808284376040805191909301818103601f19018252835280516020918201206001600160e01b031989166000908152918290529290206002015491955050600160b01b900460ff1692506100e3915050576100de60006104aa565b6102a4565b60006001600160e01b03198316600090815260208190526040902060020154600160a81b900460ff16600381111561011757fe5b1415610173576001600160e01b031982166000908152602081815260408083208484526003019091529020548061016457506001600160e01b031982166000908152602081905260409020545b61016d816104aa565b506102a4565b60016001600160e01b03198316600090815260208190526040902060020154600160a81b900460ff1660038111156101a757fe5b14156101d3576001600160e01b031982166000908152602081905260409020600101546100de906104aa565b60026001600160e01b03198316600090815260208190526040902060020154600160a81b900460ff16600381111561020757fe5b1415610236576001600160e01b031982166000908152602081905260409020600201546100de9060ff166104aa565b60036001600160e01b03198316600090815260208190526040902060020154600160a81b900460ff16600381111561026a57fe5b14156102a4576001600160e01b031982166000908152602081905260409020600201546102a49061010090046001600160a01b03166104aa565b5050005b3480156102b457600080fd5b506102e8600480360360608110156102cb57600080fd5b506001600160e01b031981351690602081013590604001356104bc565b604080519115158252519081900360200190f35b61037c6004803603604081101561031257600080fd5b6001600160a01b03823516919081019060408101602082013564010000000081111561033d57600080fd5b82018360208201111561034f57600080fd5b8035906020019184600183028401116401000000008311171561037157600080fd5b509092509050610510565b005b34801561038a57600080fd5b506102e8600480360360408110156103a157600080fd5b506001600160e01b0319813516906020013561060f565b3480156103c457600080fd5b5061037c600480360360408110156103db57600080fd5b506001600160a01b03813516906020013561064a565b3480156103fd57600080fd5b5061037c6004803603604081101561041457600080fd5b5080356001600160e01b03191690602001356001600160a01b0316610692565b34801561044057600080fd5b5061037c6004803603604081101561045757600080fd5b506001600160e01b0319813516906020013515156106f0565b34801561047c57600080fd5b5061037c6004803603604081101561049357600080fd5b506001600160e01b0319813516906020013561073b565b60405160208101604052818152602081f35b6001600160e01b03199290921660008181526020818152604080832060028101805460ff60a81b19168155958452600301825282209490945590815291829052805460ff60b01b1916600160b01b17905590565b60006060846001600160a01b0316348585604051808383808284376040519201945060009350909150508083038185875af1925050503d8060008114610572576040519150601f19603f3d011682016040523d82523d6000602084013e610577565b606091505b50915091508181906106075760405162461bcd60e51b81526004018080602001828103825283818151815260200191508051906020019080838360005b838110156105cc5781810151838201526020016105b4565b50505050905090810190601f1680156105f95780820380516001836020036101000a031916815260200191505b509250505060405180910390fd5b505050505050565b6001600160e01b03199190911660009081526020819052604081206002810180549390915561ffff60a81b19909216600160b01b1790915590565b604080516001600160a01b03841681526020810183905281517f85e4ffba4f222353d622111e3ca71c787704d7e3d003704e654527a3d3d02167929181900390910190a15050565b6001600160e01b0319919091166000908152602081905260409020600201805460ff60b01b196001600160a01b039093166101000260ff60a81b19909116600360a81b17610100600160a81b0319161791909116600160b01b179055565b6001600160e01b0319919091166000908152602081905260409020600201805460ff60b01b1992151560ff60a81b19909116600160a91b1760ff19161791909116600160b01b179055565b6001600160e01b031991909116600090815260208190526040902060028101805460019092019290925560ff60a81b1916600160a81b1760ff60b01b1916600160b01b17905556fea265627a7a7231582090b46a968f0661c5da2aeac367518fe3d9a2f0825713f3f957ea7aa238fad1d764736f6c634300050b0032",
          "opcodes": "PUSH1 0x80 PUSH1 0x40 MSTORE CALLVALUE DUP1 ISZERO PUSH2 0x10 JUMPI PUSH1 0x0 DUP1 REVERT JUMPDEST POP PUSH2 0x7B8 DUP1 PUSH2 0x20 PUSH1 0x0 CODECOPY PUSH1 0x0 RETURN INVALID PUSH1 0x80 PUSH1 0x40 MSTORE PUSH1 0x4 CALLDATASIZE LT PUSH2 0x70 JUMPI PUSH1 0x0 CALLDATALOAD PUSH1 0xE0 SHR DUP1 PUSH4 0x20283DA9 GT PUSH2 0x4E JUMPI DUP1 PUSH4 0x20283DA9 EQ PUSH2 0x3B8 JUMPI DUP1 PUSH4 0x6C33E7EB EQ PUSH2 0x3F1 JUMPI DUP1 PUSH4 0x7C4D18BD EQ PUSH2 0x434 JUMPI DUP1 PUSH4 0xD2F65FBC EQ PUSH2 0x470 JUMPI PUSH2 0x70 JUMP JUMPDEST DUP1 PUSH4 0xD9B9993 EQ PUSH2 0x2A8 JUMPI DUP1 PUSH4 0x1CFF79CD EQ PUSH2 0x2FC JUMPI DUP1 PUSH4 0x1D77D696 EQ PUSH2 0x37E JUMPI JUMPDEST PUSH1 0x0 DUP1 CALLDATALOAD SWAP1 POP PUSH1 0x0 DUP1 CALLDATASIZE PUSH1 0x40 MLOAD PUSH1 0x20 ADD DUP1 DUP4 DUP4 DUP1 DUP3 DUP5 CALLDATACOPY PUSH1 0x40 DUP1 MLOAD SWAP2 SWAP1 SWAP4 ADD DUP2 DUP2 SUB PUSH1 0x1F NOT ADD DUP3 MSTORE DUP4 MSTORE DUP1 MLOAD PUSH1 0x20 SWAP2 DUP3 ADD KECCAK256 PUSH1 0x1 PUSH1 0x1 PUSH1 0xE0 SHL SUB NOT DUP10 AND PUSH1 0x0 SWAP1 DUP2 MSTORE SWAP2 DUP3 SWAP1 MSTORE SWAP3 SWAP1 KECCAK256 PUSH1 0x2 ADD SLOAD SWAP2 SWAP6 POP POP PUSH1 0x1 PUSH1 0xB0 SHL SWAP1 DIV PUSH1 0xFF AND SWAP3 POP PUSH2 0xE3 SWAP2 POP POP JUMPI PUSH2 0xDE PUSH1 0x0 PUSH2 0x4AA JUMP JUMPDEST PUSH2 0x2A4 JUMP JUMPDEST PUSH1 0x0 PUSH1 0x1 PUSH1 0x1 PUSH1 0xE0 SHL SUB NOT DUP4 AND PUSH1 0x0 SWAP1 DUP2 MSTORE PUSH1 0x20 DUP2 SWAP1 MSTORE PUSH1 0x40 SWAP1 KECCAK256 PUSH1 0x2 ADD SLOAD PUSH1 0x1 PUSH1 0xA8 SHL SWAP1 DIV PUSH1 0xFF AND PUSH1 0x3 DUP2 GT ISZERO PUSH2 0x117 JUMPI INVALID JUMPDEST EQ ISZERO PUSH2 0x173 JUMPI PUSH1 0x1 PUSH1 0x1 PUSH1 0xE0 SHL SUB NOT DUP3 AND PUSH1 0x0 SWAP1 DUP2 MSTORE PUSH1 0x20 DUP2 DUP2 MSTORE PUSH1 0x40 DUP1 DUP4 KECCAK256 DUP5 DUP5 MSTORE PUSH1 0x3 ADD SWAP1 SWAP2 MSTORE SWAP1 KECCAK256 SLOAD DUP1 PUSH2 0x164 JUMPI POP PUSH1 0x1 PUSH1 0x1 PUSH1 0xE0 SHL SUB NOT DUP3 AND PUSH1 0x0 SWAP1 DUP2 MSTORE PUSH1 0x20 DUP2 SWAP1 MSTORE PUSH1 0x40 SWAP1 KECCAK256 SLOAD JUMPDEST PUSH2 0x16D DUP2 PUSH2 0x4AA JUMP JUMPDEST POP PUSH2 0x2A4 JUMP JUMPDEST PUSH1 0x1 PUSH1 0x1 PUSH1 0x1 PUSH1 0xE0 SHL SUB NOT DUP4 AND PUSH1 0x0 SWAP1 DUP2 MSTORE PUSH1 0x20 DUP2 SWAP1 MSTORE PUSH1 0x40 SWAP1 KECCAK256 PUSH1 0x2 ADD SLOAD PUSH1 0x1 PUSH1 0xA8 SHL SWAP1 DIV PUSH1 0xFF AND PUSH1 0x3 DUP2 GT ISZERO PUSH2 0x1A7 JUMPI INVALID JUMPDEST EQ ISZERO PUSH2 0x1D3 JUMPI PUSH1 0x1 PUSH1 0x1 PUSH1 0xE0 SHL SUB NOT DUP3 AND PUSH1 0x0 SWAP1 DUP2 MSTORE PUSH1 0x20 DUP2 SWAP1 MSTORE PUSH1 0x40 SWAP1 KECCAK256 PUSH1 0x1 ADD SLOAD PUSH2 0xDE SWAP1 PUSH2 0x4AA JUMP JUMPDEST PUSH1 0x2 PUSH1 0x1 PUSH1 0x1 PUSH1 0xE0 SHL SUB NOT DUP4 AND PUSH1 0x0 SWAP1 DUP2 MSTORE PUSH1 0x20 DUP2 SWAP1 MSTORE PUSH1 0x40 SWAP1 KECCAK256 PUSH1 0x2 ADD SLOAD PUSH1 0x1 PUSH1 0xA8 SHL SWAP1 DIV PUSH1 0xFF AND PUSH1 0x3 DUP2 GT ISZERO PUSH2 0x207 JUMPI INVALID JUMPDEST EQ ISZERO PUSH2 0x236 JUMPI PUSH1 0x1 PUSH1 0x1 PUSH1 0xE0 SHL SUB NOT DUP3 AND PUSH1 0x0 SWAP1 DUP2 MSTORE PUSH1 0x20 DUP2 SWAP1 MSTORE PUSH1 0x40 SWAP1 KECCAK256 PUSH1 0x2 ADD SLOAD PUSH2 0xDE SWAP1 PUSH1 0xFF AND PUSH2 0x4AA JUMP JUMPDEST PUSH1 0x3 PUSH1 0x1 PUSH1 0x1 PUSH1 0xE0 SHL SUB NOT DUP4 AND PUSH1 0x0 SWAP1 DUP2 MSTORE PUSH1 0x20 DUP2 SWAP1 MSTORE PUSH1 0x40 SWAP1 KECCAK256 PUSH1 0x2 ADD SLOAD PUSH1 0x1 PUSH1 0xA8 SHL SWAP1 DIV PUSH1 0xFF AND PUSH1 0x3 DUP2 GT ISZERO PUSH2 0x26A JUMPI INVALID JUMPDEST EQ ISZERO PUSH2 0x2A4 JUMPI PUSH1 0x1 PUSH1 0x1 PUSH1 0xE0 SHL SUB NOT DUP3 AND PUSH1 0x0 SWAP1 DUP2 MSTORE PUSH1 0x20 DUP2 SWAP1 MSTORE PUSH1 0x40 SWAP1 KECCAK256 PUSH1 0x2 ADD SLOAD PUSH2 0x2A4 SWAP1 PUSH2 0x100 SWAP1 DIV PUSH1 0x1 PUSH1 0x1 PUSH1 0xA0 SHL SUB AND PUSH2 0x4AA JUMP JUMPDEST POP POP STOP JUMPDEST CALLVALUE DUP1 ISZERO PUSH2 0x2B4 JUMPI PUSH1 0x0 DUP1 REVERT JUMPDEST POP PUSH2 0x2E8 PUSH1 0x4 DUP1 CALLDATASIZE SUB PUSH1 0x60 DUP2 LT ISZERO PUSH2 0x2CB JUMPI PUSH1 0x0 DUP1 REVERT JUMPDEST POP PUSH1 0x1 PUSH1 0x1 PUSH1 0xE0 SHL SUB NOT DUP2 CALLDATALOAD AND SWAP1 PUSH1 0x20 DUP2 ADD CALLDATALOAD SWAP1 PUSH1 0x40 ADD CALLDATALOAD PUSH2 0x4BC JUMP JUMPDEST PUSH1 0x40 DUP1 MLOAD SWAP2 ISZERO ISZERO DUP3 MSTORE MLOAD SWAP1 DUP2 SWAP1 SUB PUSH1 0x20 ADD SWAP1 RETURN JUMPDEST PUSH2 0x37C PUSH1 0x4 DUP1 CALLDATASIZE SUB PUSH1 0x40 DUP2 LT ISZERO PUSH2 0x312 JUMPI PUSH1 0x0 DUP1 REVERT JUMPDEST PUSH1 0x1 PUSH1 0x1 PUSH1 0xA0 SHL SUB DUP3 CALLDATALOAD AND SWAP2 SWAP1 DUP2 ADD SWAP1 PUSH1 0x40 DUP2 ADD PUSH1 0x20 DUP3 ADD CALLDATALOAD PUSH5 0x100000000 DUP2 GT ISZERO PUSH2 0x33D JUMPI PUSH1 0x0 DUP1 REVERT JUMPDEST DUP3 ADD DUP4 PUSH1 0x20 DUP3 ADD GT ISZERO PUSH2 0x34F JUMPI PUSH1 0x0 DUP1 REVERT JUMPDEST DUP1 CALLDATALOAD SWAP1 PUSH1 0x20 ADD SWAP2 DUP5 PUSH1 0x1 DUP4 MUL DUP5 ADD GT PUSH5 0x100000000 DUP4 GT OR ISZERO PUSH2 0x371 JUMPI PUSH1 0x0 DUP1 REVERT JUMPDEST POP SWAP1 SWAP3 POP SWAP1 POP PUSH2 0x510 JUMP JUMPDEST STOP JUMPDEST CALLVALUE DUP1 ISZERO PUSH2 0x38A JUMPI PUSH1 0x0 DUP1 REVERT JUMPDEST POP PUSH2 0x2E8 PUSH1 0x4 DUP1 CALLDATASIZE SUB PUSH1 0x40 DUP2 LT ISZERO PUSH2 0x3A1 JUMPI PUSH1 0x0 DUP1 REVERT JUMPDEST POP PUSH1 0x1 PUSH1 0x1 PUSH1 0xE0 SHL SUB NOT DUP2 CALLDATALOAD AND SWAP1 PUSH1 0x20 ADD CALLDATALOAD PUSH2 0x60F JUMP JUMPDEST CALLVALUE DUP1 ISZERO PUSH2 0x3C4 JUMPI PUSH1 0x0 DUP1 REVERT JUMPDEST POP PUSH2 0x37C PUSH1 0x4 DUP1 CALLDATASIZE SUB PUSH1 0x40 DUP2 LT ISZERO PUSH2 0x3DB JUMPI PUSH1 0x0 DUP1 REVERT JUMPDEST POP PUSH1 0x1 PUSH1 0x1 PUSH1 0xA0 SHL SUB DUP2 CALLDATALOAD AND SWAP1 PUSH1 0x20 ADD CALLDATALOAD PUSH2 0x64A JUMP JUMPDEST CALLVALUE DUP1 ISZERO PUSH2 0x3FD JUMPI PUSH1 0x0 DUP1 REVERT JUMPDEST POP PUSH2 0x37C PUSH1 0x4 DUP1 CALLDATASIZE SUB PUSH1 0x40 DUP2 LT ISZERO PUSH2 0x414 JUMPI PUSH1 0x0 DUP1 REVERT JUMPDEST POP DUP1 CALLDATALOAD PUSH1 0x1 PUSH1 0x1 PUSH1 0xE0 SHL SUB NOT AND SWAP1 PUSH1 0x20 ADD CALLDATALOAD PUSH1 0x1 PUSH1 0x1 PUSH1 0xA0 SHL SUB AND PUSH2 0x692 JUMP JUMPDEST CALLVALUE DUP1 ISZERO PUSH2 0x440 JUMPI PUSH1 0x0 DUP1 REVERT JUMPDEST POP PUSH2 0x37C PUSH1 0x4 DUP1 CALLDATASIZE SUB PUSH1 0x40 DUP2 LT ISZERO PUSH2 0x457 JUMPI PUSH1 0x0 DUP1 REVERT JUMPDEST POP PUSH1 0x1 PUSH1 0x1 PUSH1 0xE0 SHL SUB NOT DUP2 CALLDATALOAD AND SWAP1 PUSH1 0x20 ADD CALLDATALOAD ISZERO ISZERO PUSH2 0x6F0 JUMP JUMPDEST CALLVALUE DUP1 ISZERO PUSH2 0x47C JUMPI PUSH1 0x0 DUP1 REVERT JUMPDEST POP PUSH2 0x37C PUSH1 0x4 DUP1 CALLDATASIZE SUB PUSH1 0x40 DUP2 LT ISZERO PUSH2 0x493 JUMPI PUSH1 0x0 DUP1 REVERT JUMPDEST POP PUSH1 0x1 PUSH1 0x1 PUSH1 0xE0 SHL SUB NOT DUP2 CALLDATALOAD AND SWAP1 PUSH1 0x20 ADD CALLDATALOAD PUSH2 0x73B JUMP JUMPDEST PUSH1 0x40 MLOAD PUSH1 0x20 DUP2 ADD PUSH1 0x40 MSTORE DUP2 DUP2 MSTORE PUSH1 0x20 DUP2 RETURN JUMPDEST PUSH1 0x1 PUSH1 0x1 PUSH1 0xE0 SHL SUB NOT SWAP3 SWAP1 SWAP3 AND PUSH1 0x0 DUP2 DUP2 MSTORE PUSH1 0x20 DUP2 DUP2 MSTORE PUSH1 0x40 DUP1 DUP4 KECCAK256 PUSH1 0x2 DUP2 ADD DUP1 SLOAD PUSH1 0xFF PUSH1 0xA8 SHL NOT AND DUP2 SSTORE SWAP6 DUP5 MSTORE PUSH1 0x3 ADD DUP3 MSTORE DUP3 KECCAK256 SWAP5 SWAP1 SWAP5 SSTORE SWAP1 DUP2 MSTORE SWAP2 DUP3 SWAP1 MSTORE DUP1 SLOAD PUSH1 0xFF PUSH1 0xB0 SHL NOT AND PUSH1 0x1 PUSH1 0xB0 SHL OR SWAP1 SSTORE SWAP1 JUMP JUMPDEST PUSH1 0x0 PUSH1 0x60 DUP5 PUSH1 0x1 PUSH1 0x1 PUSH1 0xA0 SHL SUB AND CALLVALUE DUP6 DUP6 PUSH1 0x40 MLOAD DUP1 DUP4 DUP4 DUP1 DUP3 DUP5 CALLDATACOPY PUSH1 0x40 MLOAD SWAP3 ADD SWAP5 POP PUSH1 0x0 SWAP4 POP SWAP1 SWAP2 POP POP DUP1 DUP4 SUB DUP2 DUP6 DUP8 GAS CALL SWAP3 POP POP POP RETURNDATASIZE DUP1 PUSH1 0x0 DUP2 EQ PUSH2 0x572 JUMPI PUSH1 0x40 MLOAD SWAP2 POP PUSH1 0x1F NOT PUSH1 0x3F RETURNDATASIZE ADD AND DUP3 ADD PUSH1 0x40 MSTORE RETURNDATASIZE DUP3 MSTORE RETURNDATASIZE PUSH1 0x0 PUSH1 0x20 DUP5 ADD RETURNDATACOPY PUSH2 0x577 JUMP JUMPDEST PUSH1 0x60 SWAP2 POP JUMPDEST POP SWAP2 POP SWAP2 POP DUP2 DUP2 SWAP1 PUSH2 0x607 JUMPI PUSH1 0x40 MLOAD PUSH3 0x461BCD PUSH1 0xE5 SHL DUP2 MSTORE PUSH1 0x4 ADD DUP1 DUP1 PUSH1 0x20 ADD DUP3 DUP2 SUB DUP3 MSTORE DUP4 DUP2 DUP2 MLOAD DUP2 MSTORE PUSH1 0x20 ADD SWAP2 POP DUP1 MLOAD SWAP1 PUSH1 0x20 ADD SWAP1 DUP1 DUP4 DUP4 PUSH1 0x0 JUMPDEST DUP4 DUP2 LT ISZERO PUSH2 0x5CC JUMPI DUP2 DUP2 ADD MLOAD DUP4 DUP3 ADD MSTORE PUSH1 0x20 ADD PUSH2 0x5B4 JUMP JUMPDEST POP POP POP POP SWAP1 POP SWAP1 DUP2 ADD SWAP1 PUSH1 0x1F AND DUP1 ISZERO PUSH2 0x5F9 JUMPI DUP1 DUP3 SUB DUP1 MLOAD PUSH1 0x1 DUP4 PUSH1 0x20 SUB PUSH2 0x100 EXP SUB NOT AND DUP2 MSTORE PUSH1 0x20 ADD SWAP2 POP JUMPDEST POP SWAP3 POP POP POP PUSH1 0x40 MLOAD DUP1 SWAP2 SUB SWAP1 REVERT JUMPDEST POP POP POP POP POP POP JUMP JUMPDEST PUSH1 0x1 PUSH1 0x1 PUSH1 0xE0 SHL SUB NOT SWAP2 SWAP1 SWAP2 AND PUSH1 0x0 SWAP1 DUP2 MSTORE PUSH1 0x20 DUP2 SWAP1 MSTORE PUSH1 0x40 DUP2 KECCAK256 PUSH1 0x2 DUP2 ADD DUP1 SLOAD SWAP4 SWAP1 SWAP2 SSTORE PUSH2 0xFFFF PUSH1 0xA8 SHL NOT SWAP1 SWAP3 AND PUSH1 0x1 PUSH1 0xB0 SHL OR SWAP1 SWAP2 SSTORE SWAP1 JUMP JUMPDEST PUSH1 0x40 DUP1 MLOAD PUSH1 0x1 PUSH1 0x1 PUSH1 0xA0 SHL SUB DUP5 AND DUP2 MSTORE PUSH1 0x20 DUP2 ADD DUP4 SWAP1 MSTORE DUP2 MLOAD PUSH32 0x85E4FFBA4F222353D622111E3CA71C787704D7E3D003704E654527A3D3D02167 SWAP3 SWAP2 DUP2 SWAP1 SUB SWAP1 SWAP2 ADD SWAP1 LOG1 POP POP JUMP JUMPDEST PUSH1 0x1 PUSH1 0x1 PUSH1 0xE0 SHL SUB NOT SWAP2 SWAP1 SWAP2 AND PUSH1 0x0 SWAP1 DUP2 MSTORE PUSH1 0x20 DUP2 SWAP1 MSTORE PUSH1 0x40 SWAP1 KECCAK256 PUSH1 0x2 ADD DUP1 SLOAD PUSH1 0xFF PUSH1 0xB0 SHL NOT PUSH1 0x1 PUSH1 0x1 PUSH1 0xA0 SHL SUB SWAP1 SWAP4 AND PUSH2 0x100 MUL PUSH1 0xFF PUSH1 0xA8 SHL NOT SWAP1 SWAP2 AND PUSH1 0x3 PUSH1 0xA8 SHL OR PUSH2 0x100 PUSH1 0x1 PUSH1 0xA8 SHL SUB NOT AND OR SWAP2 SWAP1 SWAP2 AND PUSH1 0x1 PUSH1 0xB0 SHL OR SWAP1 SSTORE JUMP JUMPDEST PUSH1 0x1 PUSH1 0x1 PUSH1 0xE0 SHL SUB NOT SWAP2 SWAP1 SWAP2 AND PUSH1 0x0 SWAP1 DUP2 MSTORE PUSH1 0x20 DUP2 SWAP1 MSTORE PUSH1 0x40 SWAP1 KECCAK256 PUSH1 0x2 ADD DUP1 SLOAD PUSH1 0xFF PUSH1 0xB0 SHL NOT SWAP3 ISZERO ISZERO PUSH1 0xFF PUSH1 0xA8 SHL NOT SWAP1 SWAP2 AND PUSH1 0x1 PUSH1 0xA9 SHL OR PUSH1 0xFF NOT AND OR SWAP2 SWAP1 SWAP2 AND PUSH1 0x1 PUSH1 0xB0 SHL OR SWAP1 SSTORE JUMP JUMPDEST PUSH1 0x1 PUSH1 0x1 PUSH1 0xE0 SHL SUB NOT SWAP2 SWAP1 SWAP2 AND PUSH1 0x0 SWAP1 DUP2 MSTORE PUSH1 0x20 DUP2 SWAP1 MSTORE PUSH1 0x40 SWAP1 KECCAK256 PUSH1 0x2 DUP2 ADD DUP1 SLOAD PUSH1 0x1 SWAP1 SWAP3 ADD SWAP3 SWAP1 SWAP3 SSTORE PUSH1 0xFF PUSH1 0xA8 SHL NOT AND PUSH1 0x1 PUSH1 0xA8 SHL OR PUSH1 0xFF PUSH1 0xB0 SHL NOT AND PUSH1 0x1 PUSH1 0xB0 SHL OR SWAP1 SSTORE JUMP INVALID LOG2 PUSH6 0x627A7A723158 KECCAK256 SWAP1 0xb4 PUSH11 0x968F0661C5DA2AEAC36751 DUP16 0xe3 0xd9 LOG2 CREATE DUP3 JUMPI SGT RETURN 0xf9 JUMPI 0xea PUSH27 0xA238FAD1D764736F6C634300050B00320000000000000000000000 "
        },
        "gasEstimates": {
          "creation": {
            "codeDepositCost": "395200",
            "executionCost": "430",
            "totalCost": "395630"
          },
          "external": {
            "": "infinite",
            "execute(address,bytes)": "infinite",
            "setMockAddress(bytes4,address)": "20701",
            "setMockBool(bytes4,bool)": "20676",
            "setMockBytes32(bytes4,bytes32)": "40680",
            "setMockUint256(bytes4,uint256)": "40686",
            "setMockUint256WithParam(bytes4,bytes32,uint256)": "60959",
            "trustedWithdrawETH(address,uint256)": "1584"
          }
        },
        "methodIdentifiers": {
          "execute(address,bytes)": "1cff79cd",
          "setMockAddress(bytes4,address)": "6c33e7eb",
          "setMockBool(bytes4,bool)": "7c4d18bd",
          "setMockBytes32(bytes4,bytes32)": "d2f65fbc",
          "setMockUint256(bytes4,uint256)": "1d77d696",
          "setMockUint256WithParam(bytes4,bytes32,uint256)": "0d9b9993",
          "trustedWithdrawETH(address,uint256)": "20283da9"
        }
      },
      "userdoc": {
        "methods": {}
      }
    }
  }
}