{
  "contracts/test/mocks/SetUint256.sol": {
    "SetUint256": {
      "abi": [
        {
          "constant": false,
          "inputs": [
            {
              "internalType": "bool",
              "name": "_shouldFail",
              "type": "bool"
            }
          ],
          "name": "setShouldFail",
          "outputs": [],
          "payable": false,
          "stateMutability": "nonpayable",
          "type": "function"
        },
        {
          "constant": false,
          "inputs": [
            {
              "internalType": "uint256",
              "name": "_i",
              "type": "uint256"
            }
          ],
          "name": "setUint256",
          "outputs": [],
          "payable": true,
          "stateMutability": "payable",
          "type": "function"
        },
        {
          "constant": true,
          "inputs": [],
          "name": "i",
          "outputs": [
            {
              "internalType": "uint256",
              "name": "",
              "type": "uint256"
            }
          ],
          "payable": false,
          "stateMutability": "view",
          "type": "function"
        }
      ],
      "devdoc": {
        "methods": {}
      },
      "evm": {
        "bytecode": {
          "linkReferences": {},
          "object": "608060405234801561001057600080fd5b50610146806100206000396000f3fe6080604052600436106100345760003560e01c8063a5aa5c1214610039578063d2282dc514610067578063e5aa3d5814610084575b600080fd5b34801561004557600080fd5b506100656004803603602081101561005c57600080fd5b503515156100ab565b005b6100656004803603602081101561007d57600080fd5b50356100be565b34801561009057600080fd5b5061009961010b565b60408051918252519081900360200190f35b6001805460ff1916911515919091179055565b60015460ff1615610106576040805162461bcd60e51b815260206004820152600d60248201526c12481cda1bdd5b190819985a5b609a1b604482015290519081900360640190fd5b600055565b6000548156fea265627a7a7231582092ced5d1ae7c33bf4a9e5688a5a92f0c1caa855248e123466c43cab2e2fb759f64736f6c634300050b0032",
          "opcodes": "PUSH1 0x80 PUSH1 0x40 MSTORE CALLVALUE DUP1 ISZERO PUSH2 0x10 JUMPI PUSH1 0x0 DUP1 REVERT JUMPDEST POP PUSH2 0x146 DUP1 PUSH2 0x20 PUSH1 0x0 CODECOPY PUSH1 0x0 RETURN INVALID PUSH1 0x80 PUSH1 0x40 MSTORE PUSH1 0x4 CALLDATASIZE LT PUSH2 0x34 JUMPI PUSH1 0x0 CALLDATALOAD PUSH1 0xE0 SHR DUP1 PUSH4 0xA5AA5C12 EQ PUSH2 0x39 JUMPI DUP1 PUSH4 0xD2282DC5 EQ PUSH2 0x67 JUMPI DUP1 PUSH4 0xE5AA3D58 EQ PUSH2 0x84 JUMPI JUMPDEST PUSH1 0x0 DUP1 REVERT JUMPDEST CALLVALUE DUP1 ISZERO PUSH2 0x45 JUMPI PUSH1 0x0 DUP1 REVERT JUMPDEST POP PUSH2 0x65 PUSH1 0x4 DUP1 CALLDATASIZE SUB PUSH1 0x20 DUP2 LT ISZERO PUSH2 0x5C JUMPI PUSH1 0x0 DUP1 REVERT JUMPDEST POP CALLDATALOAD ISZERO ISZERO PUSH2 0xAB JUMP JUMPDEST STOP JUMPDEST PUSH2 0x65 PUSH1 0x4 DUP1 CALLDATASIZE SUB PUSH1 0x20 DUP2 LT ISZERO PUSH2 0x7D JUMPI PUSH1 0x0 DUP1 REVERT JUMPDEST POP CALLDATALOAD PUSH2 0xBE JUMP JUMPDEST CALLVALUE DUP1 ISZERO PUSH2 0x90 JUMPI PUSH1 0x0 DUP1 REVERT JUMPDEST POP PUSH2 0x99 PUSH2 0x10B JUMP JUMPDEST PUSH1 0x40 DUP1 MLOAD SWAP2 DUP3 MSTORE MLOAD SWAP1 DUP2 SWAP1 SUB PUSH1 0x20 ADD SWAP1 RETURN JUMPDEST PUSH1 0x1 DUP1 SLOAD PUSH1 0xFF NOT AND SWAP2 ISZERO ISZERO SWAP2 SWAP1 SWAP2 OR SWAP1 SSTORE JUMP JUMPDEST PUSH1 0x1 SLOAD PUSH1 0xFF AND ISZERO PUSH2 0x106 JUMPI PUSH1 0x40 DUP1 MLOAD PUSH3 0x461BCD PUSH1 0xE5 SHL DUP2 MSTORE PUSH1 0x20 PUSH1 0x4 DUP3 ADD MSTORE PUSH1 0xD PUSH1 0x24 DUP3 ADD MSTORE PUSH13 0x12481CDA1BDD5B190819985A5B PUSH1 0x9A SHL PUSH1 0x44 DUP3 ADD MSTORE SWAP1 MLOAD SWAP1 DUP2 SWAP1 SUB PUSH1 0x64 ADD SWAP1 REVERT JUMPDEST PUSH1 0x0 SSTORE JUMP JUMPDEST PUSH1 0x0 SLOAD DUP2 JUMP INVALID LOG2 PUSH6 0x627A7A723158 KECCAK256 SWAP3 0xce 0xd5 0xd1 0xae PUSH29 0x33BF4A9E5688A5A92F0C1CAA855248E123466C43CAB2E2FB759F64736F PUSH13 0x634300050B0032000000000000 "
        },
        "gasEstimates": {
          "creation": {
            "codeDepositCost": "65200",
            "executionCost": "117",
            "totalCost": "65317"
          },
          "external": {
            "i()": "420",
            "setShouldFail(bool)": "20409",
            "setUint256(uint256)": "20391"
          }
        },
        "methodIdentifiers": {
          "i()": "e5aa3d58",
          "setShouldFail(bool)": "a5aa5c12",
          "setUint256(uint256)": "d2282dc5"
        }
      },
      "userdoc": {
        "methods": {}
      }
    }
  }
}