{
  "_format": "hh-sol-artifact-1",
  "contractName": "UnionGovernorMock",
  "sourceName": "contracts/tests/UnionGovernorMock.sol",
  "abi": [
    {
      "inputs": [
        {
          "internalType": "contract ERC20VotesComp",
          "name": "_token",
          "type": "address"
        },
        {
          "internalType": "contract TimelockController",
          "name": "_timelock",
          "type": "address"
        }
      ],
      "stateMutability": "nonpayable",
      "type": "constructor"
    },
    {
      "anonymous": false,
      "inputs": [
        {
          "indexed": false,
          "internalType": "uint256",
          "name": "proposalId",
          "type": "uint256"
        }
      ],
      "name": "ProposalCanceled",
      "type": "event"
    },
    {
      "anonymous": false,
      "inputs": [
        {
          "indexed": false,
          "internalType": "uint256",
          "name": "proposalId",
          "type": "uint256"
        },
        {
          "indexed": false,
          "internalType": "address",
          "name": "proposer",
          "type": "address"
        },
        {
          "indexed": false,
          "internalType": "address[]",
          "name": "targets",
          "type": "address[]"
        },
        {
          "indexed": false,
          "internalType": "uint256[]",
          "name": "values",
          "type": "uint256[]"
        },
        {
          "indexed": false,
          "internalType": "string[]",
          "name": "signatures",
          "type": "string[]"
        },
        {
          "indexed": false,
          "internalType": "bytes[]",
          "name": "calldatas",
          "type": "bytes[]"
        },
        {
          "indexed": false,
          "internalType": "uint256",
          "name": "startBlock",
          "type": "uint256"
        },
        {
          "indexed": false,
          "internalType": "uint256",
          "name": "endBlock",
          "type": "uint256"
        },
        {
          "indexed": false,
          "internalType": "string",
          "name": "description",
          "type": "string"
        }
      ],
      "name": "ProposalCreated",
      "type": "event"
    },
    {
      "anonymous": false,
      "inputs": [
        {
          "indexed": false,
          "internalType": "uint256",
          "name": "proposalId",
          "type": "uint256"
        }
      ],
      "name": "ProposalExecuted",
      "type": "event"
    },
    {
      "anonymous": false,
      "inputs": [
        {
          "indexed": false,
          "internalType": "uint256",
          "name": "proposalId",
          "type": "uint256"
        },
        {
          "indexed": false,
          "internalType": "uint256",
          "name": "eta",
          "type": "uint256"
        }
      ],
      "name": "ProposalQueued",
      "type": "event"
    },
    {
      "anonymous": false,
      "inputs": [
        {
          "indexed": false,
          "internalType": "address",
          "name": "oldTimelock",
          "type": "address"
        },
        {
          "indexed": false,
          "internalType": "address",
          "name": "newTimelock",
          "type": "address"
        }
      ],
      "name": "TimelockChange",
      "type": "event"
    },
    {
      "anonymous": false,
      "inputs": [
        {
          "indexed": true,
          "internalType": "address",
          "name": "voter",
          "type": "address"
        },
        {
          "indexed": false,
          "internalType": "uint256",
          "name": "proposalId",
          "type": "uint256"
        },
        {
          "indexed": false,
          "internalType": "uint8",
          "name": "support",
          "type": "uint8"
        },
        {
          "indexed": false,
          "internalType": "uint256",
          "name": "weight",
          "type": "uint256"
        },
        {
          "indexed": false,
          "internalType": "string",
          "name": "reason",
          "type": "string"
        }
      ],
      "name": "VoteCast",
      "type": "event"
    },
    {
      "inputs": [],
      "name": "BALLOT_TYPEHASH",
      "outputs": [
        {
          "internalType": "bytes32",
          "name": "",
          "type": "bytes32"
        }
      ],
      "stateMutability": "view",
      "type": "function"
    },
    {
      "inputs": [],
      "name": "COUNTING_MODE",
      "outputs": [
        {
          "internalType": "string",
          "name": "",
          "type": "string"
        }
      ],
      "stateMutability": "pure",
      "type": "function"
    },
    {
      "inputs": [
        {
          "internalType": "uint256",
          "name": "proposalId",
          "type": "uint256"
        }
      ],
      "name": "cancel",
      "outputs": [],
      "stateMutability": "nonpayable",
      "type": "function"
    },
    {
      "inputs": [
        {
          "internalType": "uint256",
          "name": "proposalId",
          "type": "uint256"
        },
        {
          "internalType": "uint8",
          "name": "support",
          "type": "uint8"
        }
      ],
      "name": "castVote",
      "outputs": [
        {
          "internalType": "uint256",
          "name": "",
          "type": "uint256"
        }
      ],
      "stateMutability": "nonpayable",
      "type": "function"
    },
    {
      "inputs": [
        {
          "internalType": "uint256",
          "name": "proposalId",
          "type": "uint256"
        },
        {
          "internalType": "uint8",
          "name": "support",
          "type": "uint8"
        },
        {
          "internalType": "uint8",
          "name": "v",
          "type": "uint8"
        },
        {
          "internalType": "bytes32",
          "name": "r",
          "type": "bytes32"
        },
        {
          "internalType": "bytes32",
          "name": "s",
          "type": "bytes32"
        }
      ],
      "name": "castVoteBySig",
      "outputs": [
        {
          "internalType": "uint256",
          "name": "",
          "type": "uint256"
        }
      ],
      "stateMutability": "nonpayable",
      "type": "function"
    },
    {
      "inputs": [
        {
          "internalType": "uint256",
          "name": "proposalId",
          "type": "uint256"
        },
        {
          "internalType": "uint8",
          "name": "support",
          "type": "uint8"
        },
        {
          "internalType": "string",
          "name": "reason",
          "type": "string"
        }
      ],
      "name": "castVoteWithReason",
      "outputs": [
        {
          "internalType": "uint256",
          "name": "",
          "type": "uint256"
        }
      ],
      "stateMutability": "nonpayable",
      "type": "function"
    },
    {
      "inputs": [
        {
          "internalType": "address[]",
          "name": "targets",
          "type": "address[]"
        },
        {
          "internalType": "uint256[]",
          "name": "values",
          "type": "uint256[]"
        },
        {
          "internalType": "bytes[]",
          "name": "calldatas",
          "type": "bytes[]"
        },
        {
          "internalType": "bytes32",
          "name": "descriptionHash",
          "type": "bytes32"
        }
      ],
      "name": "execute",
      "outputs": [
        {
          "internalType": "uint256",
          "name": "",
          "type": "uint256"
        }
      ],
      "stateMutability": "payable",
      "type": "function"
    },
    {
      "inputs": [
        {
          "internalType": "uint256",
          "name": "proposalId",
          "type": "uint256"
        }
      ],
      "name": "execute",
      "outputs": [],
      "stateMutability": "payable",
      "type": "function"
    },
    {
      "inputs": [
        {
          "internalType": "uint256",
          "name": "proposalId",
          "type": "uint256"
        }
      ],
      "name": "getActions",
      "outputs": [
        {
          "internalType": "address[]",
          "name": "targets",
          "type": "address[]"
        },
        {
          "internalType": "uint256[]",
          "name": "values",
          "type": "uint256[]"
        },
        {
          "internalType": "string[]",
          "name": "signatures",
          "type": "string[]"
        },
        {
          "internalType": "bytes[]",
          "name": "calldatas",
          "type": "bytes[]"
        }
      ],
      "stateMutability": "view",
      "type": "function"
    },
    {
      "inputs": [
        {
          "internalType": "uint256",
          "name": "proposalId",
          "type": "uint256"
        },
        {
          "internalType": "address",
          "name": "voter",
          "type": "address"
        }
      ],
      "name": "getReceipt",
      "outputs": [
        {
          "components": [
            {
              "internalType": "bool",
              "name": "hasVoted",
              "type": "bool"
            },
            {
              "internalType": "uint8",
              "name": "support",
              "type": "uint8"
            },
            {
              "internalType": "uint96",
              "name": "votes",
              "type": "uint96"
            }
          ],
          "internalType": "struct IGovernorCompatibilityBravo.Receipt",
          "name": "",
          "type": "tuple"
        }
      ],
      "stateMutability": "view",
      "type": "function"
    },
    {
      "inputs": [
        {
          "internalType": "address",
          "name": "account",
          "type": "address"
        },
        {
          "internalType": "uint256",
          "name": "blockNumber",
          "type": "uint256"
        }
      ],
      "name": "getVotes",
      "outputs": [
        {
          "internalType": "uint256",
          "name": "",
          "type": "uint256"
        }
      ],
      "stateMutability": "view",
      "type": "function"
    },
    {
      "inputs": [
        {
          "internalType": "uint256",
          "name": "proposalId",
          "type": "uint256"
        },
        {
          "internalType": "address",
          "name": "account",
          "type": "address"
        }
      ],
      "name": "hasVoted",
      "outputs": [
        {
          "internalType": "bool",
          "name": "",
          "type": "bool"
        }
      ],
      "stateMutability": "view",
      "type": "function"
    },
    {
      "inputs": [
        {
          "internalType": "address[]",
          "name": "targets",
          "type": "address[]"
        },
        {
          "internalType": "uint256[]",
          "name": "values",
          "type": "uint256[]"
        },
        {
          "internalType": "bytes[]",
          "name": "calldatas",
          "type": "bytes[]"
        },
        {
          "internalType": "bytes32",
          "name": "descriptionHash",
          "type": "bytes32"
        }
      ],
      "name": "hashProposal",
      "outputs": [
        {
          "internalType": "uint256",
          "name": "",
          "type": "uint256"
        }
      ],
      "stateMutability": "pure",
      "type": "function"
    },
    {
      "inputs": [
        {
          "internalType": "address",
          "name": "",
          "type": "address"
        }
      ],
      "name": "latestProposalIds",
      "outputs": [
        {
          "internalType": "uint256",
          "name": "",
          "type": "uint256"
        }
      ],
      "stateMutability": "view",
      "type": "function"
    },
    {
      "inputs": [],
      "name": "name",
      "outputs": [
        {
          "internalType": "string",
          "name": "",
          "type": "string"
        }
      ],
      "stateMutability": "view",
      "type": "function"
    },
    {
      "inputs": [],
      "name": "proposalCount",
      "outputs": [
        {
          "internalType": "uint256",
          "name": "",
          "type": "uint256"
        }
      ],
      "stateMutability": "view",
      "type": "function"
    },
    {
      "inputs": [
        {
          "internalType": "uint256",
          "name": "proposalId",
          "type": "uint256"
        }
      ],
      "name": "proposalDeadline",
      "outputs": [
        {
          "internalType": "uint256",
          "name": "",
          "type": "uint256"
        }
      ],
      "stateMutability": "view",
      "type": "function"
    },
    {
      "inputs": [
        {
          "internalType": "uint256",
          "name": "proposalId",
          "type": "uint256"
        }
      ],
      "name": "proposalEta",
      "outputs": [
        {
          "internalType": "uint256",
          "name": "",
          "type": "uint256"
        }
      ],
      "stateMutability": "view",
      "type": "function"
    },
    {
      "inputs": [
        {
          "internalType": "uint256",
          "name": "proposalId",
          "type": "uint256"
        }
      ],
      "name": "proposalSnapshot",
      "outputs": [
        {
          "internalType": "uint256",
          "name": "",
          "type": "uint256"
        }
      ],
      "stateMutability": "view",
      "type": "function"
    },
    {
      "inputs": [],
      "name": "proposalThreshold",
      "outputs": [
        {
          "internalType": "uint256",
          "name": "",
          "type": "uint256"
        }
      ],
      "stateMutability": "pure",
      "type": "function"
    },
    {
      "inputs": [
        {
          "internalType": "uint256",
          "name": "proposalId",
          "type": "uint256"
        }
      ],
      "name": "proposals",
      "outputs": [
        {
          "internalType": "uint256",
          "name": "id",
          "type": "uint256"
        },
        {
          "internalType": "address",
          "name": "proposer",
          "type": "address"
        },
        {
          "internalType": "uint256",
          "name": "eta",
          "type": "uint256"
        },
        {
          "internalType": "uint256",
          "name": "startBlock",
          "type": "uint256"
        },
        {
          "internalType": "uint256",
          "name": "endBlock",
          "type": "uint256"
        },
        {
          "internalType": "uint256",
          "name": "forVotes",
          "type": "uint256"
        },
        {
          "internalType": "uint256",
          "name": "againstVotes",
          "type": "uint256"
        },
        {
          "internalType": "uint256",
          "name": "abstainVotes",
          "type": "uint256"
        },
        {
          "internalType": "bool",
          "name": "canceled",
          "type": "bool"
        },
        {
          "internalType": "bool",
          "name": "executed",
          "type": "bool"
        }
      ],
      "stateMutability": "view",
      "type": "function"
    },
    {
      "inputs": [
        {
          "internalType": "address[]",
          "name": "targets",
          "type": "address[]"
        },
        {
          "internalType": "uint256[]",
          "name": "values",
          "type": "uint256[]"
        },
        {
          "internalType": "bytes[]",
          "name": "calldatas",
          "type": "bytes[]"
        },
        {
          "internalType": "string",
          "name": "description",
          "type": "string"
        }
      ],
      "name": "propose",
      "outputs": [
        {
          "internalType": "uint256",
          "name": "",
          "type": "uint256"
        }
      ],
      "stateMutability": "nonpayable",
      "type": "function"
    },
    {
      "inputs": [
        {
          "internalType": "address[]",
          "name": "targets",
          "type": "address[]"
        },
        {
          "internalType": "uint256[]",
          "name": "values",
          "type": "uint256[]"
        },
        {
          "internalType": "string[]",
          "name": "signatures",
          "type": "string[]"
        },
        {
          "internalType": "bytes[]",
          "name": "calldatas",
          "type": "bytes[]"
        },
        {
          "internalType": "string",
          "name": "description",
          "type": "string"
        }
      ],
      "name": "propose",
      "outputs": [
        {
          "internalType": "uint256",
          "name": "",
          "type": "uint256"
        }
      ],
      "stateMutability": "nonpayable",
      "type": "function"
    },
    {
      "inputs": [
        {
          "internalType": "address[]",
          "name": "targets",
          "type": "address[]"
        },
        {
          "internalType": "uint256[]",
          "name": "values",
          "type": "uint256[]"
        },
        {
          "internalType": "bytes[]",
          "name": "calldatas",
          "type": "bytes[]"
        },
        {
          "internalType": "bytes32",
          "name": "descriptionHash",
          "type": "bytes32"
        }
      ],
      "name": "queue",
      "outputs": [
        {
          "internalType": "uint256",
          "name": "",
          "type": "uint256"
        }
      ],
      "stateMutability": "nonpayable",
      "type": "function"
    },
    {
      "inputs": [
        {
          "internalType": "uint256",
          "name": "proposalId",
          "type": "uint256"
        }
      ],
      "name": "queue",
      "outputs": [],
      "stateMutability": "nonpayable",
      "type": "function"
    },
    {
      "inputs": [
        {
          "internalType": "uint256",
          "name": "blockNumber",
          "type": "uint256"
        }
      ],
      "name": "quorum",
      "outputs": [
        {
          "internalType": "uint256",
          "name": "",
          "type": "uint256"
        }
      ],
      "stateMutability": "view",
      "type": "function"
    },
    {
      "inputs": [],
      "name": "quorumVotes",
      "outputs": [
        {
          "internalType": "uint256",
          "name": "",
          "type": "uint256"
        }
      ],
      "stateMutability": "view",
      "type": "function"
    },
    {
      "inputs": [
        {
          "internalType": "uint256",
          "name": "proposalId",
          "type": "uint256"
        }
      ],
      "name": "state",
      "outputs": [
        {
          "internalType": "enum IGovernor.ProposalState",
          "name": "",
          "type": "uint8"
        }
      ],
      "stateMutability": "view",
      "type": "function"
    },
    {
      "inputs": [
        {
          "internalType": "bytes4",
          "name": "interfaceId",
          "type": "bytes4"
        }
      ],
      "name": "supportsInterface",
      "outputs": [
        {
          "internalType": "bool",
          "name": "",
          "type": "bool"
        }
      ],
      "stateMutability": "view",
      "type": "function"
    },
    {
      "inputs": [],
      "name": "timelock",
      "outputs": [
        {
          "internalType": "address",
          "name": "",
          "type": "address"
        }
      ],
      "stateMutability": "view",
      "type": "function"
    },
    {
      "inputs": [],
      "name": "token",
      "outputs": [
        {
          "internalType": "contract ERC20VotesComp",
          "name": "",
          "type": "address"
        }
      ],
      "stateMutability": "view",
      "type": "function"
    },
    {
      "inputs": [
        {
          "internalType": "contract TimelockController",
          "name": "newTimelock",
          "type": "address"
        }
      ],
      "name": "updateTimelock",
      "outputs": [],
      "stateMutability": "nonpayable",
      "type": "function"
    },
    {
      "inputs": [],
      "name": "version",
      "outputs": [
        {
          "internalType": "string",
          "name": "",
          "type": "string"
        }
      ],
      "stateMutability": "view",
      "type": "function"
    },
    {
      "inputs": [],
      "name": "votingDelay",
      "outputs": [
        {
          "internalType": "uint256",
          "name": "",
          "type": "uint256"
        }
      ],
      "stateMutability": "pure",
      "type": "function"
    },
    {
      "inputs": [],
      "name": "votingPeriod",
      "outputs": [
        {
          "internalType": "uint256",
          "name": "",
          "type": "uint256"
        }
      ],
      "stateMutability": "pure",
      "type": "function"
    }
  ],
  "bytecode": "0x6101406040523480156200001257600080fd5b50604051620042ea380380620042ea83398101604081905262000035916200025e565b818180826040518060400160405280600e81526020016d2ab734b7b71023b7bb32b93737b960911b81525080620000716200013460201b60201c565b815160209283012081519183019190912060c082815260e08290524660a0818152604080517f8b73c3c69bb8fe3d512ecc4cf759cc79239f7b179b0ffacaa9a75d522b39400f8189018190528183019790975260608101959095526080808601939093523085830152805180860390920182529390920190925280519084012090526101005281516200010b9160009190840190620001b8565b505060601b6001600160601b0319166101205262000129816200014f565b5050505050620002f2565b6040805180820190915260018152603160f81b602082015290565b600354604080516001600160a01b03928316815291831660208301527f08f74ea46ef7894f65eabfb5e6e695de773a000b47c529ab559178069b226401910160405180910390a1600380546001600160a01b0319166001600160a01b0392909216919091179055565b828054620001c6906200029c565b90600052602060002090601f016020900481019282620001ea576000855562000235565b82601f106200020557805160ff191683800117855562000235565b8280016001018555821562000235579182015b828111156200023557825182559160200191906001019062000218565b506200024392915062000247565b5090565b5b8082111562000243576000815560010162000248565b6000806040838503121562000271578182fd5b82516200027e81620002d9565b60208401519092506200029181620002d9565b809150509250929050565b600181811c90821680620002b157607f821691505b60208210811415620002d357634e487b7160e01b600052602260045260246000fd5b50919050565b6001600160a01b0381168114620002ef57600080fd5b50565b60805160a05160c05160e051610100516101205160601c613f9762000353600039600081816107cc0152818161182e01526122140152600061239f015260006123ee015260006123c90152600061234d015260006123760152613f976000f3fe6080604052600436106102045760003560e01c80637b3c71d311610118578063da95691a116100a0578063e23a9a521161006f578063e23a9a52146106b0578063eb9019d41461077a578063f8ce560a1461079a578063fc0c546a146107ba578063fe0d94c1146107ee57600080fd5b8063da95691a146105f6578063dd4e2ba514610616578063ddf0b0091461065c578063deaaa7cc1461067c57600080fd5b8063b58131b0116100e7578063b58131b014610551578063c01f9e371461056e578063c59057e41461058e578063d33219b4146105ae578063da35c664146105e057600080fd5b80637b3c71d3146104d15780637d5e81e2146104f1578063a890c91014610511578063ab58fb8e1461053157600080fd5b80632d63f6931161019b5780633e4f49e61161016a5780633e4f49e6146103ee57806340e58ee51461041b578063438596321461043d57806354fd4d501461048757806356781388146104b157600080fd5b80632d63f6931461036a578063328dd9821461038a5780633932abb1146103ba5780633bccf4fd146103ce57600080fd5b8063160cbed7116101d7578063160cbed7146102f557806317977c611461031557806324bc1a64146103425780632656227d1461035757600080fd5b8063013cf08b1461020957806301ffc9a71461028457806302a251a3146102b457806306fdde03146102d3575b600080fd5b34801561021557600080fd5b5061022961022436600461387d565b610801565b604080519a8b526001600160a01b0390991660208b0152978901969096526060880194909452608087019290925260a086015260c085015260e084015215156101008301521515610120820152610140015b60405180910390f35b34801561029057600080fd5b506102a461029f366004613855565b6108c6565b604051901515815260200161027b565b3480156102c057600080fd5b506116805b60405190815260200161027b565b3480156102df57600080fd5b506102e86108d7565b60405161027b9190613c30565b34801561030157600080fd5b506102c5610310366004613620565b610969565b34801561032157600080fd5b506102c56103303660046135d9565b60066020526000908152604090205481565b34801561034e57600080fd5b506102c5610ba0565b6102c5610365366004613620565b610bb5565b34801561037657600080fd5b506102c561038536600461387d565b610ca4565b34801561039657600080fd5b506103aa6103a536600461387d565b610cdb565b60405161027b9493929190613be3565b3480156103c657600080fd5b5060026102c5565b3480156103da57600080fd5b506102c56103e9366004613970565b610f6c565b3480156103fa57600080fd5b5061040e61040936600461387d565b611000565b60405161027b9190613c43565b34801561042757600080fd5b5061043b61043636600461387d565b61100b565b005b34801561044957600080fd5b506102a4610458366004613895565b60008281526002602090815260408083206001600160a01b038516845260080190915290205460ff1692915050565b34801561049357600080fd5b506040805180820190915260018152603160f81b60208201526102e8565b3480156104bd57600080fd5b506102c56104cc3660046138c4565b611326565b3480156104dd57600080fd5b506102c56104ec3660046138ef565b61134f565b3480156104fd57600080fd5b506102c561050c3660046136ab565b6113a1565b34801561051d57600080fd5b5061043b61052c3660046135d9565b6113f5565b34801561053d57600080fd5b506102c561054c36600461387d565b611469565b34801561055d57600080fd5b50690a968163f0a57b4000006102c5565b34801561057a57600080fd5b506102c561058936600461387d565b611511565b34801561059a57600080fd5b506102c56105a9366004613620565b611540565b3480156105ba57600080fd5b506003546001600160a01b03165b6040516001600160a01b03909116815260200161027b565b3480156105ec57600080fd5b506102c560055481565b34801561060257600080fd5b506102c5610611366004613752565b61157a565b34801561062257600080fd5b5060408051808201909152601a81527f737570706f72743d627261766f2671756f72756d3d627261766f00000000000060208201526102e8565b34801561066857600080fd5b5061043b61067736600461387d565b611589565b34801561068857600080fd5b506102c57f150214d74d59b7d1e90c73fc22ef3d991dd0a76b046543d4d80ab92d2a50328f81565b3480156106bc57600080fd5b5061074a6106cb366004613895565b60408051606081018252600080825260208201819052918101919091525060009182526002602090815260408084206001600160a01b0393909316845260089092018152918190208151606081018352905460ff8082161515835261010082041693820193909352620100009092046001600160601b03169082015290565b6040805182511515815260208084015160ff1690820152918101516001600160601b03169082015260600161027b565b34801561078657600080fd5b506102c56107953660046135f5565b6117f7565b3480156107a657600080fd5b506102c56107b536600461387d565b611803565b3480156107c657600080fd5b506105c87f000000000000000000000000000000000000000000000000000000000000000081565b61043b6107fc36600461387d565b6118c3565b80600080808080808080806108158a611469565b97506108208b610ca4565b965061082b8b611511565b60008c815260026020526040812080546005820154600683015460078401546001600160a01b039093169e50949a50985092965091945061086b8d611000565b9050600281600781111561088f57634e487b7160e01b600052602160045260246000fd5b14935060078160078111156108b457634e487b7160e01b600052602160045260246000fd5b14925050509193959799509193959799565b60006108d182611b31565b92915050565b6060600080546108e690613ed0565b80601f016020809104026020016040519081016040528092919081815260200182805461091290613ed0565b801561095f5780601f106109345761010080835404028352916020019161095f565b820191906000526020600020905b81548152906001019060200180831161094257829003601f168201915b5050505050905090565b60008061097886868686611540565b9050600461098582611000565b60078111156109a457634e487b7160e01b600052602160045260246000fd5b146109ca5760405162461bcd60e51b81526004016109c190613cac565b60405180910390fd5b6003546040805163793d064960e11b815290516000926001600160a01b03169163f27a0c92916004808301926020929190829003018186803b158015610a0f57600080fd5b505afa158015610a23573d6000803e3d6000fd5b505050506040513d601f19601f82011682018060405250810190610a47919061383d565b60035460405163b1c5f42760e01b81529192506001600160a01b03169063b1c5f42790610a81908a908a908a906000908b90600401613b3d565b60206040518083038186803b158015610a9957600080fd5b505afa158015610aad573d6000803e3d6000fd5b505050506040513d601f19601f82011682018060405250810190610ad1919061383d565b60008381526004602081905260408083209390935560035492516308f2a0bb60e41b81526001600160a01b0390931692638f2a0bb092610b1d928c928c928c9290918c918a9101613b8b565b600060405180830381600087803b158015610b3757600080fd5b505af1158015610b4b573d6000803e3d6000fd5b505050507f9a2e42fd6722813d69113e7d0079d3d940171428df7373df9c7f7617cfda2892828242610b7d9190613e0b565b604080519283526020830191909152015b60405180910390a15095945050505050565b6000610bb06107b5600143613e8d565b905090565b600080610bc486868686611540565b90506000610bd182611000565b90506004816007811115610bf557634e487b7160e01b600052602160045260246000fd5b1480610c2057506005816007811115610c1e57634e487b7160e01b600052602160045260246000fd5b145b610c3c5760405162461bcd60e51b81526004016109c190613cac565b600082815260016020818152604092839020600201805460ff191690921790915590518381527f712ae1383f79ac853f8d882153778e0260ef8f03b504e2866e0593e04d2b291f910160405180910390a1610c9a8288888888611b56565b5095945050505050565b60008181526001602090815260408083208151928301909152546001600160401b0316908190525b6001600160401b031692915050565b60608060608060006002600087815260200190815260200160002090508060010181600201826003018360040183805480602002602001604051908101604052809291908181526020018280548015610d5d57602002820191906000526020600020905b81546001600160a01b03168152600190910190602001808311610d3f575b5050505050935082805480602002602001604051908101604052809291908181526020018280548015610daf57602002820191906000526020600020905b815481526020019060010190808311610d9b575b5050505050925081805480602002602001604051908101604052809291908181526020016000905b82821015610e83578382906000526020600020018054610df690613ed0565b80601f0160208091040260200160405190810160405280929190818152602001828054610e2290613ed0565b8015610e6f5780601f10610e4457610100808354040283529160200191610e6f565b820191906000526020600020905b815481529060010190602001808311610e5257829003601f168201915b505050505081526020019060010190610dd7565b50505050915080805480602002602001604051908101604052809291908181526020016000905b82821015610f56578382906000526020600020018054610ec990613ed0565b80601f0160208091040260200160405190810160405280929190818152602001828054610ef590613ed0565b8015610f425780601f10610f1757610100808354040283529160200191610f42565b820191906000526020600020905b815481529060010190602001808311610f2557829003601f168201915b505050505081526020019060010190610eaa565b5050505090509450945094509450509193509193565b604080517f150214d74d59b7d1e90c73fc22ef3d991dd0a76b046543d4d80ab92d2a50328f602082015290810186905260ff851660608201526000908190610fd890610fd09060800160405160208183030381529060405280519060200120611b6a565b868686611bb8565b9050610ff587828860405180602001604052806000815250611bd6565b979650505050505050565b60006108d182611cef565b600081815260026020526040902080546001600160a01b0316336001600160a01b0316148061105c5750690a968163f0a57b400000815461105a906001600160a01b0316610795600143613e8d565b105b6110b85760405162461bcd60e51b815260206004820152602760248201527f476f7665726e6f72427261766f3a2070726f706f7365722061626f76652074686044820152661c995cda1bdb1960ca1b60648201526084016109c1565b6113218160010180548060200260200160405190810160405280929190818152602001828054801561111357602002820191906000526020600020905b81546001600160a01b031681526001909101906020018083116110f5575b50505050508260020180548060200260200160405190810160405280929190818152602001828054801561116657602002820191906000526020600020905b815481526020019060010190808311611152575b505050505061131784600301805480602002602001604051908101604052809291908181526020016000905b8282101561123e5783829060005260206000200180546111b190613ed0565b80601f01602080910402602001604051908101604052809291908181526020018280546111dd90613ed0565b801561122a5780601f106111ff5761010080835404028352916020019161122a565b820191906000526020600020905b81548152906001019060200180831161120d57829003601f168201915b505050505081526020019060010190611192565b50505060048701805460408051602080840282018101909252828152935060009084015b8282101561130e57838290600052602060002001805461128190613ed0565b80601f01602080910402602001604051908101604052809291908181526020018280546112ad90613ed0565b80156112fa5780601f106112cf576101008083540402835291602001916112fa565b820191906000526020600020905b8154815290600101906020018083116112dd57829003601f168201915b505050505081526020019060010190611262565b50505050611dda565b8460090154611f8e565b505050565b60008033905061134784828560405180602001604052806000815250611bd6565b949350505050565b60008033905061139786828787878080601f016020809104026020016040519081016040528093929190818152602001838380828437600092019190915250611bd692505050565b9695505050505050565b60006113ab611fa5565b600580549060006113bb83613f05565b919050555060006113d58686868680519060200120611540565b3360009081526006602052604090208190559050611397868686866120d3565b6113fd612149565b6001600160a01b0316336001600160a01b03161461145d5760405162461bcd60e51b815260206004820152601860248201527f476f7665726e6f723a206f6e6c79476f7665726e616e6365000000000000000060448201526064016109c1565b6114668161215d565b50565b600354600082815260046020819052604080832054905163d45c443560e01b815291820152909182916001600160a01b039091169063d45c44359060240160206040518083038186803b1580156114bf57600080fd5b505afa1580156114d3573d6000803e3d6000fd5b505050506040513d601f19601f820116820180604052508101906114f7919061383d565b905080600114611507578061150a565b60005b9392505050565b60008181526001602081815260408084208151928301909152909101546001600160401b031690819052610ccc565b6000848484846040516020016115599493929190613af2565b60408051601f19818403018152919052805160209091012095945050505050565b600061139786868686866121c6565b6000818152600260209081526040918290206001810180548451818502810185019095528085529193611321939092908301828280156115f257602002820191906000526020600020905b81546001600160a01b031681526001909101906020018083116115d4575b50505050508260020180548060200260200160405190810160405280929190818152602001828054801561164557602002820191906000526020600020905b815481526020019060010190808311611631575b50505050506117ed84600301805480602002602001604051908101604052809291908181526020016000905b8282101561171d57838290600052602060002001805461169090613ed0565b80601f01602080910402602001604051908101604052809291908181526020018280546116bc90613ed0565b80156117095780601f106116de57610100808354040283529160200191611709565b820191906000526020600020905b8154815290600101906020018083116116ec57829003601f168201915b505050505081526020019060010190611671565b50505060048701805460408051602080840282018101909252828152935060009084015b8282101561130e57838290600052602060002001805461176090613ed0565b80601f016020809104026020016040519081016040528092919081815260200182805461178c90613ed0565b80156117d95780601f106117ae576101008083540402835291602001916117d9565b820191906000526020600020905b8154815290600101906020018083116117bc57829003601f168201915b505050505081526020019060010190611741565b8460090154610969565b600061150a83836121eb565b604051632394e7a360e21b815260048101829052600090670de0b6b3a7640000906001600160a01b037f00000000000000000000000000000000000000000000000000000000000000001690638e539e8c9060240160206040518083038186803b15801561187057600080fd5b505afa158015611884573d6000803e3d6000fd5b505050506040513d601f19601f820116820180604052508101906118a8919061383d565b6118b990668e1bc9bf040000613e6e565b6108d19190613e4e565b60008181526002602090815260409182902060018101805484518185028101850190955280855291936113219390929083018282801561192c57602002820191906000526020600020905b81546001600160a01b0316815260019091019060200180831161190e575b50505050508260020180548060200260200160405190810160405280929190818152602001828054801561197f57602002820191906000526020600020905b81548152602001906001019080831161196b575b5050505050611b2784600301805480602002602001604051908101604052809291908181526020016000905b82821015611a575783829060005260206000200180546119ca90613ed0565b80601f01602080910402602001604051908101604052809291908181526020018280546119f690613ed0565b8015611a435780601f10611a1857610100808354040283529160200191611a43565b820191906000526020600020905b815481529060010190602001808311611a2657829003601f168201915b5050505050815260200190600101906119ab565b50505060048701805460408051602080840282018101909252828152935060009084015b8282101561130e578382906000526020600020018054611a9a90613ed0565b80601f0160208091040260200160405190810160405280929190818152602001828054611ac690613ed0565b8015611b135780601f10611ae857610100808354040283529160200191611b13565b820191906000526020600020905b815481529060010190602001808311611af657829003601f168201915b505050505081526020019060010190611a7b565b8460090154610bb5565b60006001600160e01b03198216636e665ced60e01b14806108d157506108d1826122a0565b611b6385858585856122d5565b5050505050565b60006108d1611b77612349565b8360405161190160f01b6020820152602281018390526042810182905260009060620160405160208183030381529060405280519060200120905092915050565b6000806000611bc98787878761243c565b91509150610c9a81612529565b6000848152600160208190526040822090611bf087611000565b6007811115611c0f57634e487b7160e01b600052602160045260246000fd5b14611c685760405162461bcd60e51b815260206004820152602360248201527f476f7665726e6f723a20766f7465206e6f742063757272656e746c792061637460448201526269766560e81b60648201526084016109c1565b604080516020810190915281546001600160401b031690819052600090611c909087906117f7565b9050611c9e8787878461272a565b856001600160a01b03167fb8e138887d0aa13bab447e82de9d5c1777041ecd21ca36ba824ff1e6c07ddda488878488604051611cdd9493929190613d90565b60405180910390a29695505050505050565b600080611cfb8361273c565b90506004816007811115611d1f57634e487b7160e01b600052602160045260246000fd5b14611d2a5792915050565b60008381526004602052604090205480611d45575092915050565b600354604051632ab0f52960e01b8152600481018390526001600160a01b0390911690632ab0f5299060240160206040518083038186803b158015611d8957600080fd5b505afa158015611d9d573d6000803e3d6000fd5b505050506040513d601f19601f82011682018060405250810190611dc1919061381d565b15611dd0575060079392505050565b5060059392505050565b6060600082516001600160401b03811115611e0557634e487b7160e01b600052604160045260246000fd5b604051908082528060200260200182016040528015611e3857816020015b6060815260200190600190039081611e235790505b50905060005b8451811015611f8657848181518110611e6757634e487b7160e01b600052603260045260246000fd5b602002602001015151600014611f2157848181518110611e9757634e487b7160e01b600052603260045260246000fd5b6020026020010151848281518110611ebf57634e487b7160e01b600052603260045260246000fd5b6020026020010151604051602401611ed79190613c30565b60408051601f198184030181529082905291611ef291613ad6565b6040519081900390206020820180516001600160e01b03166001600160e01b0319909216919091179052611f4a565b838181518110611f4157634e487b7160e01b600052603260045260246000fd5b60200260200101515b828281518110611f6a57634e487b7160e01b600052603260045260246000fd5b602002602001018190525080611f7f90613f05565b9050611e3e565b509392505050565b6000611f9c85858585612890565b95945050505050565b336000908152600660205260409020548015611466576000611fc682611000565b90506001816007811115611fea57634e487b7160e01b600052602160045260246000fd5b141561204b5760405162461bcd60e51b815260206004820152602a60248201527f476f7665726e6f723a20666f756e6420616e20616c726561647920616374697660448201526919481c1c9bdc1bdcd85b60b21b60648201526084016109c1565b600081600781111561206d57634e487b7160e01b600052602160045260246000fd5b14156120cf5760405162461bcd60e51b815260206004820152602b60248201527f476f7665726e6f723a20666f756e6420616e20616c72656164792070656e646960448201526a1b99c81c1c9bdc1bdcd85b60aa1b60648201526084016109c1565b5050565b600061213d33868686516001600160401b0381111561210257634e487b7160e01b600052604160045260246000fd5b60405190808252806020026020018201604052801561213557816020015b60608152602001906001900390816121205790505b50878761293e565b611f9c858585856129fb565b6000610bb06003546001600160a01b031690565b600354604080516001600160a01b03928316815291831660208301527f08f74ea46ef7894f65eabfb5e6e695de773a000b47c529ab559178069b226401910160405180910390a1600380546001600160a01b0319166001600160a01b0392909216919091179055565b60006121d633878787878761293e565b61139786866121e58787611dda565b856113a1565b60405163782d6fe160e01b81526001600160a01b038381166004830152602482018390526000917f00000000000000000000000000000000000000000000000000000000000000009091169063782d6fe19060440160206040518083038186803b15801561225857600080fd5b505afa15801561226c573d6000803e3d6000fd5b505050506040513d601f19601f8201168201806040525081019061229091906139bd565b6001600160601b03169392505050565b60006001600160e01b0319821663bf26d89760e01b14806108d157506301ffc9a760e01b6001600160e01b03198316146108d1565b60035460405163e38335e560e01b81526001600160a01b039091169063e38335e5903490612310908890889088906000908990600401613b3d565b6000604051808303818588803b15801561232957600080fd5b505af115801561233d573d6000803e3d6000fd5b50505050505050505050565b60007f000000000000000000000000000000000000000000000000000000000000000046141561239857507f000000000000000000000000000000000000000000000000000000000000000090565b50604080517f00000000000000000000000000000000000000000000000000000000000000006020808301919091527f0000000000000000000000000000000000000000000000000000000000000000828401527f000000000000000000000000000000000000000000000000000000000000000060608301524660808301523060a0808401919091528351808403909101815260c0909201909252805191012090565b6000807f7fffffffffffffffffffffffffffffff5d576e7357a4501ddfe92f46681b20a08311156124735750600090506003612520565b8460ff16601b1415801561248b57508460ff16601c14155b1561249c5750600090506004612520565b6040805160008082526020820180845289905260ff881692820192909252606081018690526080810185905260019060a0016020604051602081039080840390855afa1580156124f0573d6000803e3d6000fd5b5050604051601f1901519150506001600160a01b03811661251957600060019250925050612520565b9150600090505b94509492505050565b600081600481111561254b57634e487b7160e01b600052602160045260246000fd5b14156125545750565b600181600481111561257657634e487b7160e01b600052602160045260246000fd5b14156125c45760405162461bcd60e51b815260206004820152601860248201527f45434453413a20696e76616c6964207369676e6174757265000000000000000060448201526064016109c1565b60028160048111156125e657634e487b7160e01b600052602160045260246000fd5b14156126345760405162461bcd60e51b815260206004820152601f60248201527f45434453413a20696e76616c6964207369676e6174757265206c656e6774680060448201526064016109c1565b600381600481111561265657634e487b7160e01b600052602160045260246000fd5b14156126af5760405162461bcd60e51b815260206004820152602260248201527f45434453413a20696e76616c6964207369676e6174757265202773272076616c604482015261756560f01b60648201526084016109c1565b60048160048111156126d157634e487b7160e01b600052602160045260246000fd5b14156114665760405162461bcd60e51b815260206004820152602260248201527f45434453413a20696e76616c6964207369676e6174757265202776272076616c604482015261756560f01b60648201526084016109c1565b61273684848484612aa3565b50505050565b6000818152600160208181526040808420815160a08101835281546001600160401b0390811660808301908152825283518086018552958301541685529283019390935260029092015460ff808216158015948401949094526101009091041615156060820152906127b15750600792915050565b8060600151156127c45750600292915050565b805151436001600160401b0390911611156127e25750600092915050565b602081015151436001600160401b0390911611156128035750600192915050565b6128108160200151612c48565b156128425761281e83612c77565b801561282e575061282e83612c82565b61283957600361150a565b60049392505050565b60405162461bcd60e51b815260206004820152601d60248201527f476f7665726e6f723a20756e6b6e6f776e2070726f706f73616c20696400000060448201526064016109c1565b50919050565b60008061289f86868686612ca1565b60008181526004602052604090205490915015611f9c5760035460008281526004602081905260409182902054915163c4d252f560e01b8152908101919091526001600160a01b039091169063c4d252f590602401600060405180830381600087803b15801561290e57600080fd5b505af1158015612922573d6000803e3d6000fd5b5050506000828152600460205260408120555095945050505050565b80516020820120600061295c87876129568888611dda565b85611540565b60008181526002602052604090206009810154919250906129f05780546001600160a01b0319166001600160a01b038a1617815587516129a590600183019060208b019061311d565b5086516129bb90600283019060208a019061317e565b5085516129d190600383019060208901906131b9565b5084516129e79060048301906020880190613212565b50600981018390555b505050505050505050565b6000690a968163f0a57b400000612a1733610795600143613e8d565b1015612a975760405162461bcd60e51b815260206004820152604360248201527f476f7665726e6f72436f6d7061746962696c697479427261766f3a2070726f7060448201527f6f73657220766f7465732062656c6f772070726f706f73616c207468726573686064820152621bdb1960ea1b608482015260a4016109c1565b611f9c85858585612dd7565b60008481526002602090815260408083206001600160a01b038716845260088101909252909120805460ff1615612b325760405162461bcd60e51b815260206004820152602d60248201527f476f7665726e6f72436f6d7061746962696c697479427261766f3a20766f746560448201526c08185b1c9958591e4818d85cdd609a1b60648201526084016109c1565b805460ff85166101000261ffff19909116176001178155612b5283613022565b81546001600160601b039190911662010000026dffffffffffffffffffffffff00001990911617815560ff8416612ba25782826006016000828254612b979190613e0b565b90915550612c409050565b60ff841660011415612bc25782826005016000828254612b979190613e0b565b60ff841660021415612be25782826007016000828254612b979190613e0b565b60405162461bcd60e51b815260206004820152602d60248201527f476f7665726e6f72436f6d7061746962696c697479427261766f3a20696e766160448201526c6c696420766f7465207479706560981b60648201526084016109c1565b505050505050565b6000612c5d82516001600160401b0316151590565b80156108d157505051436001600160401b03909116111590565b60006108d18261308e565b60008181526002602052604081206006810154600590910154116108d1565b600080612cb086868686611540565b90506000612cbd82611000565b90506002816007811115612ce157634e487b7160e01b600052602160045260246000fd5b14158015612d0f57506006816007811115612d0c57634e487b7160e01b600052602160045260246000fd5b14155b8015612d3b57506007816007811115612d3857634e487b7160e01b600052602160045260246000fd5b14155b612d875760405162461bcd60e51b815260206004820152601d60248201527f476f7665726e6f723a2070726f706f73616c206e6f742061637469766500000060448201526064016109c1565b60008281526001602052604090819020600201805461ff001916610100179055517f789cf55be980739dad1d0699b93b58e806b51c9d96619bfa8fe0a28abaa7b30c90610b8e9084815260200190565b600080612ded8686868680519060200120611540565b90508451865114612e105760405162461bcd60e51b81526004016109c190613c6b565b8351865114612e315760405162461bcd60e51b81526004016109c190613c6b565b6000865111612e825760405162461bcd60e51b815260206004820152601860248201527f476f7665726e6f723a20656d7074792070726f706f73616c000000000000000060448201526064016109c1565b600081815260016020908152604091829020825191820190925281546001600160401b03169081905215612f025760405162461bcd60e51b815260206004820152602160248201527f476f7665726e6f723a2070726f706f73616c20616c72656164792065786973746044820152607360f81b60648201526084016109c1565b6000612f0e60026130b5565b612f17436130b5565b612f219190613e23565b90506000612f306116806130b5565b612f3a9083613e23565b835467ffffffffffffffff19166001600160401b038416178455905060018301805467ffffffffffffffff19166001600160401b0383161790557f7d84a6263ae0d98d3329bd7b46bb4e8d6f98cd35a7adb45c274c8b7fd5ebd5e084338b8b8d516001600160401b03811115612fc057634e487b7160e01b600052604160045260246000fd5b604051908082528060200260200182016040528015612ff357816020015b6060815260200190600190039081612fde5790505b508c88888e60405161300d99989796959493929190613ced565b60405180910390a15091979650505050505050565b60006001600160601b0382111561308a5760405162461bcd60e51b815260206004820152602660248201527f53616665436173743a2076616c756520646f65736e27742066697420696e203960448201526536206269747360d01b60648201526084016109c1565b5090565b600081815260026020526040812060058101546130ad6107b585610ca4565b109392505050565b60006001600160401b0382111561308a5760405162461bcd60e51b815260206004820152602660248201527f53616665436173743a2076616c756520646f65736e27742066697420696e203660448201526534206269747360d01b60648201526084016109c1565b828054828255906000526020600020908101928215613172579160200282015b8281111561317257825182546001600160a01b0319166001600160a01b0390911617825560209092019160019091019061313d565b5061308a92915061326b565b828054828255906000526020600020908101928215613172579160200282015b8281111561317257825182559160200191906001019061319e565b828054828255906000526020600020908101928215613206579160200282015b8281111561320657825180516131f6918491602090910190613280565b50916020019190600101906131d9565b5061308a9291506132f3565b82805482825590600052602060002090810192821561325f579160200282015b8281111561325f578251805161324f918491602090910190613280565b5091602001919060010190613232565b5061308a929150613310565b5b8082111561308a576000815560010161326c565b82805461328c90613ed0565b90600052602060002090601f0160209004810192826132ae5760008555613172565b82601f106132c757805160ff1916838001178555613172565b82800160010185558215613172579182018281111561317257825182559160200191906001019061319e565b8082111561308a576000613307828261332d565b506001016132f3565b8082111561308a576000613324828261332d565b50600101613310565b50805461333990613ed0565b6000825580601f10613349575050565b601f016020900490600052602060002090810190611466919061326b565b60006001600160401b0383111561338057613380613f36565b613393601f8401601f1916602001613db8565b90508281528383830111156133a757600080fd5b828260208301376000602084830101529392505050565b600082601f8301126133ce578081fd5b813560206133e36133de83613de8565b613db8565b80838252828201915082860187848660051b8901011115613402578586fd5b855b8581101561342957813561341781613f4c565b84529284019290840190600101613404565b5090979650505050505050565b600082601f830112613446578081fd5b813560206134566133de83613de8565b80838252828201915082860187848660051b8901011115613475578586fd5b855b858110156134295781356001600160401b03811115613494578788fd5b8801603f81018a136134a4578788fd5b6134b58a8783013560408401613367565b8552509284019290840190600101613477565b600082601f8301126134d8578081fd5b813560206134e86133de83613de8565b80838252828201915082860187848660051b8901011115613507578586fd5b855b858110156134295781356001600160401b03811115613526578788fd5b6135348a87838c01016135a4565b8552509284019290840190600101613509565b600082601f830112613557578081fd5b813560206135676133de83613de8565b80838252828201915082860187848660051b8901011115613586578586fd5b855b8581101561342957813584529284019290840190600101613588565b600082601f8301126135b4578081fd5b61150a83833560208501613367565b803560ff811681146135d457600080fd5b919050565b6000602082840312156135ea578081fd5b813561150a81613f4c565b60008060408385031215613607578081fd5b823561361281613f4c565b946020939093013593505050565b60008060008060808587031215613635578182fd5b84356001600160401b038082111561364b578384fd5b613657888389016133be565b9550602087013591508082111561366c578384fd5b61367888838901613547565b9450604087013591508082111561368d578384fd5b5061369a87828801613436565b949793965093946060013593505050565b600080600080608085870312156136c0578182fd5b84356001600160401b03808211156136d6578384fd5b6136e2888389016133be565b955060208701359150808211156136f7578384fd5b61370388838901613547565b94506040870135915080821115613718578384fd5b61372488838901613436565b93506060870135915080821115613739578283fd5b50613746878288016135a4565b91505092959194509250565b600080600080600060a08688031215613769578283fd5b85356001600160401b038082111561377f578485fd5b61378b89838a016133be565b965060208801359150808211156137a0578485fd5b6137ac89838a01613547565b955060408801359150808211156137c1578485fd5b6137cd89838a016134c8565b945060608801359150808211156137e2578283fd5b6137ee89838a01613436565b93506080880135915080821115613803578283fd5b50613810888289016135a4565b9150509295509295909350565b60006020828403121561382e578081fd5b8151801515811461150a578182fd5b60006020828403121561384e578081fd5b5051919050565b600060208284031215613866578081fd5b81356001600160e01b03198116811461150a578182fd5b60006020828403121561388e578081fd5b5035919050565b600080604083850312156138a7578182fd5b8235915060208301356138b981613f4c565b809150509250929050565b600080604083850312156138d6578182fd5b823591506138e6602084016135c3565b90509250929050565b60008060008060608587031215613904578182fd5b84359350613914602086016135c3565b925060408501356001600160401b038082111561392f578384fd5b818701915087601f830112613942578384fd5b813581811115613950578485fd5b886020828501011115613961578485fd5b95989497505060200194505050565b600080600080600060a08688031215613987578283fd5b85359450613997602087016135c3565b93506139a5604087016135c3565b94979396509394606081013594506080013592915050565b6000602082840312156139ce578081fd5b81516001600160601b038116811461150a578182fd5b6000815180845260208085019450808401835b83811015613a1c5781516001600160a01b0316875295820195908201906001016139f7565b509495945050505050565b600081518084526020808501808196508360051b81019150828601855b85811015613a6e578284038952613a5c848351613aaa565b98850198935090840190600101613a44565b5091979650505050505050565b6000815180845260208085019450808401835b83811015613a1c57815187529582019590820190600101613a8e565b60008151808452613ac2816020860160208601613ea4565b601f01601f19169290920160200192915050565b60008251613ae8818460208701613ea4565b9190910192915050565b608081526000613b0560808301876139e4565b8281036020840152613b178187613a7b565b90508281036040840152613b2b8186613a27565b91505082606083015295945050505050565b60a081526000613b5060a08301886139e4565b8281036020840152613b628188613a7b565b90508281036040840152613b768187613a27565b60608401959095525050608001529392505050565b60c081526000613b9e60c08301896139e4565b8281036020840152613bb08189613a7b565b90508281036040840152613bc48188613a27565b60608401969096525050608081019290925260a0909101529392505050565b608081526000613bf660808301876139e4565b8281036020840152613c088187613a7b565b90508281036040840152613c1c8186613a27565b90508281036060840152610ff58185613a27565b60208152600061150a6020830184613aaa565b6020810160088310613c6557634e487b7160e01b600052602160045260246000fd5b91905290565b60208082526021908201527f476f7665726e6f723a20696e76616c69642070726f706f73616c206c656e67746040820152600d60fb1b606082015260800190565b60208082526021908201527f476f7665726e6f723a2070726f706f73616c206e6f74207375636365737366756040820152601b60fa1b606082015260800190565b8981526001600160a01b038916602082015261012060408201819052600090613d188382018b6139e4565b90508281036060840152613d2c818a613a7b565b90508281036080840152613d408189613a27565b905082810360a0840152613d548188613a27565b6001600160401b0387811660c0860152861660e08501528381036101008501529050613d808185613aaa565b9c9b505050505050505050505050565b84815260ff841660208201528260408201526080606082015260006113976080830184613aaa565b604051601f8201601f191681016001600160401b0381118282101715613de057613de0613f36565b604052919050565b60006001600160401b03821115613e0157613e01613f36565b5060051b60200190565b60008219821115613e1e57613e1e613f20565b500190565b60006001600160401b03808316818516808303821115613e4557613e45613f20565b01949350505050565b600082613e6957634e487b7160e01b81526012600452602481fd5b500490565b6000816000190483118215151615613e8857613e88613f20565b500290565b600082821015613e9f57613e9f613f20565b500390565b60005b83811015613ebf578181015183820152602001613ea7565b838111156127365750506000910152565b600181811c90821680613ee457607f821691505b6020821081141561288a57634e487b7160e01b600052602260045260246000fd5b6000600019821415613f1957613f19613f20565b5060010190565b634e487b7160e01b600052601160045260246000fd5b634e487b7160e01b600052604160045260246000fd5b6001600160a01b038116811461146657600080fdfea2646970667358221220b99d5baea2192720f0f8352e1441354fac82ece25980ed3c0f6ec3e5253faa1264736f6c63430008040033",
  "linkReferences": {},
  "deployedLinkReferences": {}
}