{
  "_format": "hh-sol-artifact-1",
  "contractName": "AaveVaultTestFactory",
  "sourceName": "contracts/test/AaveVaultTestFactory.sol",
  "abi": [
    {
      "inputs": [
        {
          "internalType": "contract IVaultGovernance",
          "name": "vaultGovernance_",
          "type": "address"
        }
      ],
      "stateMutability": "nonpayable",
      "type": "constructor"
    },
    {
      "inputs": [
        {
          "internalType": "address[]",
          "name": "vaultTokens",
          "type": "address[]"
        },
        {
          "internalType": "bytes",
          "name": "",
          "type": "bytes"
        }
      ],
      "name": "deployVault",
      "outputs": [
        {
          "internalType": "contract IVault",
          "name": "",
          "type": "address"
        }
      ],
      "stateMutability": "nonpayable",
      "type": "function"
    },
    {
      "inputs": [
        {
          "internalType": "address",
          "name": "newVaultGovernance",
          "type": "address"
        }
      ],
      "name": "setVaultGovernance",
      "outputs": [],
      "stateMutability": "nonpayable",
      "type": "function"
    },
    {
      "inputs": [],
      "name": "vaultGovernance",
      "outputs": [
        {
          "internalType": "contract IVaultGovernance",
          "name": "",
          "type": "address"
        }
      ],
      "stateMutability": "view",
      "type": "function"
    }
  ],
  "bytecode": "0x608060405234801561001057600080fd5b5060405161385438038061385483398101604081905261002f91610054565b600080546001600160a01b0319166001600160a01b0392909216919091179055610084565b60006020828403121561006657600080fd5b81516001600160a01b038116811461007d57600080fd5b9392505050565b6137c1806100936000396000f3fe60806040523480156200001157600080fd5b5060043610620000465760003560e01c80636e1e2ffd146200004b578063a4612a5d146200007e578063fe255a5e14620000b3575b600080fd5b620000626200005c3660046200024b565b620000c7565b6040516001600160a01b03909116815260200160405180910390f35b620000b16200008f3660046200032a565b600080546001600160a01b0319166001600160a01b0392909216919091179055565b005b60005462000062906001600160a01b031681565b600080546001600160a01b031633146200010c5760405162461bcd60e51b8152602060048201526002602482015261564760f01b604482015260640160405180910390fd5b600080546040516001600160a01b039091169085906200012c906200015f565b620001399291906200034f565b604051809103906000f08015801562000156573d6000803e3d6000fd5b50949350505050565b6133de80620003ae83390190565b634e487b7160e01b600052604160045260246000fd5b604051601f8201601f1916810167ffffffffffffffff81118282101715620001af57620001af6200016d565b604052919050565b80356001600160a01b0381168114620001cf57600080fd5b919050565b600082601f830112620001e657600080fd5b813567ffffffffffffffff8111156200020357620002036200016d565b62000218601f8201601f191660200162000183565b8181528460208386010111156200022e57600080fd5b816020850160208301376000918101602001919091529392505050565b600080604083850312156200025f57600080fd5b823567ffffffffffffffff808211156200027857600080fd5b818501915085601f8301126200028d57600080fd5b8135602082821115620002a457620002a46200016d565b8160051b620002b582820162000183565b928352848101820192828101908a851115620002d057600080fd5b958301955b84871015620002f957620002e987620001b7565b82529583019590830190620002d5565b97505050860135925050808211156200031157600080fd5b506200032085828601620001d4565b9150509250929050565b6000602082840312156200033d57600080fd5b6200034882620001b7565b9392505050565b6001600160a01b038381168252604060208084018290528451918401829052600092858201929091906060860190855b818110156200039f5785518516835294830194918301916001016200037f565b50909897505050505050505056fe60806040523480156200001157600080fd5b50604051620033de380380620033de8339810160408190526200003491620005b0565b8181818160016000819055506200005681620002bb60201b6200128a1760201c565b6040518060400160405280600381526020016253415560e81b815250906200009c5760405162461bcd60e51b815260040162000093919062000687565b60405180910390fd5b50600180546001600160a01b0319166001600160a01b0384161790558051620000cd9060029060208401906200048f565b5060005b81518110156200013d57600160036000848481518110620000f657620000f6620006df565b6020908102919091018101516001600160a01b03168252810191909152604001600020805460ff19169115159190911790558062000134816200070b565b915050620000d1565b50505080516001600160401b038111156200015c576200015c62000529565b60405190808252806020026020018201604052801562000186578160200160208202803683370190505b5080516200019d916005916020909101906200048f565b5060005b600254811015620002b0576000620001e360028381548110620001c857620001c8620006df565b6000918252602090912001546001600160a01b031662000370565b604080518082019091526002815261169560f21b60208201529091506001600160a01b038216620002295760405162461bcd60e51b815260040162000093919062000687565b508060058381548110620002415762000241620006df565b6000918252602082200180546001600160a01b0319166001600160a01b039390931692909217909155600680546001810182559082527ff652222313e28459528d920b65115c16c04f3efc82aaedc97be59f3f377c0d3f01555080620002a7816200070b565b915050620001a1565b50505050506200093c565b6000600282511015620002d057506001919050565b60005b60018351620002e3919062000729565b811015620003675782620002f982600162000743565b815181106200030c576200030c620006df565b60200260200101516001600160a01b0316838281518110620003325762000332620006df565b60200260200101516001600160a01b031610620003525750600092915050565b806200035e816200070b565b915050620002d3565b50600192915050565b6000806200037d62000408565b6040516335ea6a7560e01b81526001600160a01b03858116600483015291909116906335ea6a75906024016101806040518083038186803b158015620003c257600080fd5b505afa158015620003d7573d6000803e3d6000fd5b505050506040513d601f19601f82011682018060405250810190620003fd9190620007e3565b60e001519392505050565b600154604080516301a6998760e71b815290516000926001600160a01b03169163d34cc380916004808301926020929190829003018186803b1580156200044e57600080fd5b505afa15801562000463573d6000803e3d6000fd5b505050506040513d601f19601f82011682018060405250810190620004899190620008eb565b51919050565b828054828255906000526020600020908101928215620004e7579160200282015b82811115620004e757825182546001600160a01b0319166001600160a01b03909116178255602090920191600190910190620004b0565b50620004f5929150620004f9565b5090565b5b80821115620004f55760008155600101620004fa565b6001600160a01b03811681146200052657600080fd5b50565b634e487b7160e01b600052604160045260246000fd5b60405161018081016001600160401b038111828210171562000565576200056562000529565b60405290565b604051601f8201601f191681016001600160401b038111828210171562000596576200059662000529565b604052919050565b8051620005ab8162000510565b919050565b60008060408385031215620005c457600080fd5b8251620005d18162000510565b602084810151919350906001600160401b0380821115620005f157600080fd5b818601915086601f8301126200060657600080fd5b8151818111156200061b576200061b62000529565b8060051b91506200062e8483016200056b565b81815291830184019184810190898411156200064957600080fd5b938501935b83851015620006775784519250620006668362000510565b82825293850193908501906200064e565b8096505050505050509250929050565b600060208083528351808285015260005b81811015620006b65785810183015185820160400152820162000698565b81811115620006c9576000604083870101525b50601f01601f1916929092016040019392505050565b634e487b7160e01b600052603260045260246000fd5b634e487b7160e01b600052601160045260246000fd5b6000600019821415620007225762000722620006f5565b5060010190565b6000828210156200073e576200073e620006f5565b500390565b60008219821115620007595762000759620006f5565b500190565b6000602082840312156200077157600080fd5b604051602081016001600160401b038111828210171562000796576200079662000529565b6040529151825250919050565b80516001600160801b0381168114620005ab57600080fd5b805164ffffffffff81168114620005ab57600080fd5b805160ff81168114620005ab57600080fd5b60006101808284031215620007f757600080fd5b620008016200053f565b6200080d84846200075e565b81526200081d60208401620007a3565b60208201526200083060408401620007a3565b60408201526200084360608401620007a3565b60608201526200085660808401620007a3565b60808201526200086960a08401620007a3565b60a08201526200087c60c08401620007bb565b60c08201526200088f60e084016200059e565b60e0820152610100620008a48185016200059e565b90820152610120620008b88482016200059e565b90820152610140620008cc8482016200059e565b90820152610160620008e0848201620007d1565b908201529392505050565b600060208284031215620008fe57600080fd5b604051602081016001600160401b038111828210171562000923576200092362000529565b6040528251620009338162000510565b81529392505050565b612a92806200094c6000396000f3fe608060405234801561001057600080fd5b50600436106100ea5760003560e01c8063697222331161008c578063e5328e0611610066578063e5328e0614610200578063e8216b8914610208578063fe255a5e1461021b578063fe4b84df1461023657600080fd5b806369722233146101a8578063a4612a5d146101bd578063bfdb3b16146101ed57600080fd5b806327a35e5a116100c857806327a35e5a14610135578063338c4ccb1461014857806347ccca0214610184578063566ca6b41461019557600080fd5b806314b84bff146100ef57806318b4d37f146100f95780632062d7541461010c575b600080fd5b6100f7610249565b005b6100f7610107366004612431565b610321565b61011f61011a366004612574565b610569565b60405161012c919061264a565b60405180910390f35b61011f610143366004612574565b6107d6565b61017461015636600461265d565b6001600160a01b031660009081526003602052604090205460ff1690565b604051901515815260200161012c565b60045460405190815260200161012c565b61011f6101a336600461267a565b61095f565b6101b0610c74565b60405161012c919061273b565b6100f76101cb36600461265d565b600180546001600160a01b0319166001600160a01b0392909216919091179055565b6100f76101fb36600461274e565b610cd6565b61011f610ce9565b6100f7610216366004612783565b610d40565b6001546040516001600160a01b03909116815260200161012c565b6100f76102443660046127c9565b6110e1565b60005b60065481101561031e5760058181548110610269576102696127e2565b6000918252602090912001546040516370a0823160e01b81523060048201526001600160a01b03909116906370a082319060240160206040518083038186803b1580156102b557600080fd5b505afa1580156102c9573d6000803e3d6000fd5b505050506040513d601f19601f820116820180604052508101906102ed91906127f8565b60068281548110610300576103006127e2565b6000918252602090912001558061031681612827565b91505061024c565b50565b61032961132f565b600060045411604051806040016040528060048152602001631253925560e21b815250906103735760405162461bcd60e51b815260040161036a919061286e565b60405180910390fd5b5061037d33611389565b60405180604001604052806002815260200161494f60f01b815250906103b65760405162461bcd60e51b815260040161036a919061286e565b5060015460408051637ac46fbb60e01b815281516000936001600160a01b031692637ac46fbb9260048082019391829003018186803b1580156103f857600080fd5b505afa15801561040c573d6000803e3d6000fd5b505050506040513d601f19601f8201168201806040525081019061043091906128a1565b5160405163884289e360e01b81526001600160a01b0385811660048301529192509082169063884289e39060240160206040518083038186803b15801561047657600080fd5b505afa15801561048a573d6000803e3d6000fd5b505050506040513d601f19601f820116820180604052508101906104ae9190612900565b60405180604001604052806002815260200161414360f01b815250906104e75760405162461bcd60e51b815260040161036a919061286e565b50600080846001600160a01b0316846040516105039190612922565b6000604051808303816000865af19150503d8060008114610540576040519150601f19603f3d011682016040523d82523d6000602084013e610545565b606091505b5091509150816105585780518082602001fd5b5050506105656001600055565b5050565b606061057361132f565b61057c33611389565b6105ad5760405162461bcd60e51b8152602060048201526002602482015261494f60f01b604482015260640161036a565b60015460408051637ac46fbb60e01b815281516000936001600160a01b031692637ac46fbb9260048082019391829003018186803b1580156105ee57600080fd5b505afa158015610602573d6000803e3d6000fd5b505050506040513d601f19601f8201168201806040525081019061062691906128a1565b60200151600480546040516331a9108f60e11b8152918201529091506000906001600160a01b03831690636352211e9060240160206040518083038186803b15801561067157600080fd5b505afa158015610685573d6000803e3d6000fd5b505050506040513d601f19601f820116820180604052508101906106a9919061293e565b90506001600160a01b0381163314806106c657506106c68761153b565b60405180604001604052806005815260200164494e54524160d81b815250906107025760405162461bcd60e51b815260040161036a919061286e565b50600061070f8787611809565b9050600061071e8983886118f2565b905061078588600280548060200260200160405190810160405280929190818152602001828054801561077a57602002820191906000526020600020905b81546001600160a01b0316815260019091019060200180831161075c575b505050505083611aab565b94507f54f9e6ef58e36de62f59f9ee6c4b878af84989c53a3642eba415ac3ac4e11cda89866040516107b892919061295b565b60405180910390a1505050506107ce6001600055565b949350505050565b606060005b845181101561086a5760008482815181106107f8576107f86127e2565b6020026020010151111561085857610858863086848151811061081d5761081d6127e2565b6020026020010151888581518110610837576108376127e2565b60200260200101516001600160a01b0316611ccd909392919063ffffffff16565b8061086281612827565b9150506107db565b5061087684848461095f565b905060005b8451811015610956576000848281518110610898576108986127e2565b60200260200101518383815181106108b2576108b26127e2565b6020026020010151106108c6576000610904565b8282815181106108d8576108d86127e2565b60200260200101518583815181106108f2576108f26127e2565b6020026020010151610904919061297f565b90508015610943576109438782888581518110610923576109236127e2565b60200260200101516001600160a01b0316611d3e9092919063ffffffff16565b508061094e81612827565b91505061087b565b50949350505050565b606061096961132f565b6004805460408051808201909152918252631253925560e21b602083015290816109a65760405162461bcd60e51b815260040161036a919061286e565b506109b033611389565b60405180604001604052806002815260200161494f60f01b815250906109e95760405162461bcd60e51b815260040161036a919061286e565b5060015460408051637ac46fbb60e01b815281516000936001600160a01b031692637ac46fbb9260048082019391829003018186803b158015610a2b57600080fd5b505afa158015610a3f573d6000803e3d6000fd5b505050506040513d601f19601f82011682018060405250810190610a6391906128a1565b602001516040516331a9108f60e11b8152600481018490529091506000906001600160a01b03831690636352211e9060240160206040518083038186803b158015610aad57600080fd5b505afa158015610ac1573d6000803e3d6000fd5b505050506040513d601f19601f82011682018060405250810190610ae5919061293e565b60405163fcdabd2760e01b81526001600160a01b03808316600483015291925060009184169063fcdabd279060240160206040518083038186803b158015610b2c57600080fd5b505afa158015610b40573d6000803e3d6000fd5b505050506040513d601f19601f82011682018060405250810190610b6491906127f8565b9050600081116040518060400160405280600381526020016227abab60e91b81525090610ba45760405162461bcd60e51b815260040161036a919061286e565b506000610bb18989611809565b90506000610bbf8289611d73565b9050610c248a600280548060200260200160405190810160405280929190818152602001828054801561077a576020028201919060005260206000209081546001600160a01b0316815260019091019060200180831161075c57505050505083611aab565b96507f08e404e978692dd1b8275016b7a7b0b3ae4afd06b0cec7228060bb2da18c84fd81604051610c55919061264a565b60405180910390a1505050505050610c6d6001600055565b9392505050565b60606002805480602002602001604051908101604052809291908181526020018280548015610ccc57602002820191906000526020600020905b81546001600160a01b03168152600190910190602001808311610cae575b5050505050905090565b80516105659060059060208401906122eb565b60606006805480602002602001604051908101604052809291908181526020018280548015610ccc57602002820191906000526020600020905b815481526020019060010190808311610d23575050505050905090565b610d4861132f565b600060045411604051806040016040528060048152602001631253925560e21b81525090610d895760405162461bcd60e51b815260040161036a919061286e565b5060015460408051637ac46fbb60e01b815281516000936001600160a01b031692637ac46fbb9260048082019391829003018186803b158015610dcb57600080fd5b505afa158015610ddf573d6000803e3d6000fd5b505050506040513d601f19601f82011682018060405250810190610e0391906128a1565b51604051630935e01b60e21b81523360048201529091506000906001600160a01b038316906324d7806c9060240160206040518083038186803b158015610e4957600080fd5b505afa158015610e5d573d6000803e3d6000fd5b505050506040513d601f19601f82011682018060405250810190610e819190612900565b90508080610e935750610e9333611389565b6040518060400160405280600381526020016241444d60e81b81525090610ecd5760405162461bcd60e51b815260040161036a919061286e565b5080610f1a57610edc8461153b565b60405180604001604052806005815260200164494e54524160d81b81525090610f185760405162461bcd60e51b815260040161036a919061286e565b505b6000835167ffffffffffffffff811115610f3657610f3661237a565b604051908082528060200260200182016040528015610f5f578160200160208202803683370190505b50905060005b8451811015611098576000858281518110610f8257610f826127e2565b60209081029190910101516040516370a0823160e01b81523060048201529091506001600160a01b038216906370a082319060240160206040518083038186803b158015610fcf57600080fd5b505afa158015610fe3573d6000803e3d6000fd5b505050506040513d601f19601f8201168201806040525081019061100791906127f8565b838381518110611019576110196127e2565b602002602001018181525050828281518110611037576110376127e2565b60200260200101516000141561104d5750611086565b61108487848481518110611063576110636127e2565b6020026020010151836001600160a01b0316611d3e9092919063ffffffff16565b505b8061109081612827565b915050610f65565b507f9efcb26e0cf572bd9171640e114f387cef91cd3e38532ed6b3f80c7f2e758f878585836040516110cc93929190612996565b60405180910390a15050506105656001600055565b600154604080518082019091526002815261564760f01b6020820152906001600160a01b031633146111265760405162461bcd60e51b815260040161036a919061286e565b5060408051808201909152600481526304e4654360e41b6020820152816111605760405162461bcd60e51b815260040161036a919061286e565b506004805460408051808201909152918252631253925560e21b60208301521561119d5760405162461bcd60e51b815260040161036a919061286e565b50600481815560015460408051637ac46fbb60e01b815281516000946001600160a01b0390941693637ac46fbb938382019390929190829003018186803b1580156111e757600080fd5b505afa1580156111fb573d6000803e3d6000fd5b505050506040513d601f19601f8201168201806040525081019061121f91906128a1565b6020015160405163a22cb46560e01b81526001600160a01b038216600482018190526001602483015291925063a22cb46590604401600060405180830381600087803b15801561126e57600080fd5b505af1158015611282573d6000803e3d6000fd5b505050505050565b600060028251101561129e57506001919050565b60005b600183516112af919061297f565b81101561132657826112c28260016129d6565b815181106112d2576112d26127e2565b60200260200101516001600160a01b03168382815181106112f5576112f56127e2565b60200260200101516001600160a01b0316106113145750600092915050565b8061131e81612827565b9150506112a1565b50600192915050565b600260005414156113825760405162461bcd60e51b815260206004820152601f60248201527f5265656e7472616e637947756172643a207265656e7472616e742063616c6c00604482015260640161036a565b6002600055565b60015460408051637ac46fbb60e01b8152815160009384936001600160a01b0390911692637ac46fbb9260048083019392829003018186803b1580156113ce57600080fd5b505afa1580156113e2573d6000803e3d6000fd5b505050506040513d601f19601f8201168201806040525081019061140691906128a1565b602001516004549091508061141f575060009392505050565b60405163020604bf60e21b8152600481018290526001600160a01b03808616919084169063081812fc9060240160206040518083038186803b15801561146457600080fd5b505afa158015611478573d6000803e3d6000fd5b505050506040513d601f19601f8201168201806040525081019061149c919061293e565b6001600160a01b031614806107ce57506040516331a9108f60e11b8152600481018290526001600160a01b038086169190841690636352211e9060240160206040518083038186803b1580156114f157600080fd5b505afa158015611505573d6000803e3d6000fd5b505050506040513d601f19601f82011682018060405250810190611529919061293e565b6001600160a01b031614949350505050565b6000813b63ffffffff1661155157506000919050565b60015460408051637ac46fbb60e01b815281516000936001600160a01b031692637ac46fbb9260048082019391829003018186803b15801561159257600080fd5b505afa1580156115a6573d6000803e3d6000fd5b505050506040513d601f19601f820116820180604052508101906115ca91906128a1565b602001519050600454600014156115e45750600092915050565b600480546040516331a9108f60e11b8152918201526000906001600160a01b03831690636352211e9060240160206040518083038186803b15801561162857600080fd5b505afa15801561163c573d6000803e3d6000fd5b505050506040513d601f19601f82011682018060405250810190611660919061293e565b60405163fcdabd2760e01b81526001600160a01b03808316600483015291925060009184169063fcdabd279060240160206040518083038186803b1580156116a757600080fd5b505afa1580156116bb573d6000803e3d6000fd5b505050506040513d601f19601f820116820180604052508101906116df91906127f8565b9050806116f157506000949350505050565b604051638333903b60e01b815230600482015282906001600160a01b03821690638333903b9060240160206040518083038186803b15801561173257600080fd5b505afa158015611746573d6000803e3d6000fd5b505050506040513d601f19601f8201168201806040525081019061176a9190612900565b15806117ec5750604051638333903b60e01b81526001600160a01b038781166004830152821690638333903b9060240160206040518083038186803b1580156117b257600080fd5b505afa1580156117c6573d6000803e3d6000fd5b505050506040513d601f19601f820116820180604052508101906117ea9190612900565b155b156117fd5750600095945050505050565b50600195945050505050565b60606118148361128a565b6040518060400160405280600381526020016253415560e81b8152509061184e5760405162461bcd60e51b815260040161036a919061286e565b508151835114604051806040016040528060018152602001601360fa1b8152509061188c5760405162461bcd60e51b815260040161036a919061286e565b50610c6d60028054806020026020016040519081016040528092919081815260200182805480156118e657602002820191906000526020600020905b81546001600160a01b031681526001909101906020018083116118c8575b50505050508484611aab565b60606000600280548060200260200160405190810160405280929190818152602001828054801561194c57602002820191906000526020600020905b81546001600160a01b0316815260019091019060200180831161192e575b5050505050905060005b600554811015611a995760068181548110611973576119736127e2565b9060005260206000200154600014806119a55750848181518110611999576119996127e2565b60200260200101516000145b156119af57611a87565b6119b7611f32565b6001600160a01b03166369328dec8383815181106119d7576119d76127e2565b60200260200101518784815181106119f1576119f16127e2565b60209081029190910101516040516001600160e01b031960e085901b1681526001600160a01b03928316600482015260248101919091529089166044820152606401602060405180830381600087803b158015611a4d57600080fd5b505af1158015611a61573d6000803e3d6000fd5b505050506040513d601f19601f82011682018060405250810190611a8591906127f8565b505b80611a9181612827565b915050611956565b50611aa2610249565b50919392505050565b60606000845167ffffffffffffffff811115611ac957611ac961237a565b604051908082528060200260200182016040528015611af2578160200160208202803683370190505b5090506000805b865182108015611b095750855181105b15611c8857858181518110611b2057611b206127e2565b60200260200101516001600160a01b0316878381518110611b4357611b436127e2565b60200260200101516001600160a01b03161015611b8b576000838381518110611b6e57611b6e6127e2565b602090810291909101015281611b8381612827565b925050611af9565b858181518110611b9d57611b9d6127e2565b60200260200101516001600160a01b0316878381518110611bc057611bc06127e2565b60200260200101516001600160a01b03161115611c3957848181518110611be957611be96127e2565b602002602001015160001415611c0b5780611c0381612827565b915050611af9565b60405162461bcd60e51b815260206004820152600360248201526254505360e81b604482015260640161036a565b848181518110611c4b57611c4b6127e2565b6020026020010151838381518110611c6557611c656127e2565b602090810291909101015281611c7a81612827565b9250508080611c0390612827565b8651821015611cc2576000838381518110611ca557611ca56127e2565b602090810291909101015281611cba81612827565b925050611c88565b509095945050505050565b6040516001600160a01b0380851660248301528316604482015260648101829052611d389085906323b872dd60e01b906084015b60408051601f198184030181529190526020810180516001600160e01b03166001600160e01b031990931692909217909152611fb5565b50505050565b6040516001600160a01b038316602482015260448101829052611d6e90849063a9059cbb60e01b90606401611d01565b505050565b606060006002805480602002602001604051908101604052809291908181526020018280548015611dcd57602002820191906000526020600020905b81546001600160a01b03168152600190910190602001808311611daf575b5050505050905060008084511115611df65783806020019051810190611df391906127f8565b90505b60005b600554811015611f2057858181518110611e1557611e156127e2565b602002602001015160001415611e2a57611f0e565b6000838281518110611e3e57611e3e6127e2565b60200260200101519050611e518161208a565b611e59611f32565b6001600160a01b031663e8eda9df858481518110611e7957611e796127e2565b6020026020010151898581518110611e9357611e936127e2565b60209081029190910101516040516001600160e01b031960e085901b1681526001600160a01b039092166004830152602482015230604482015261ffff86166064820152608401600060405180830381600087803b158015611ef457600080fd5b505af1158015611f08573d6000803e3d6000fd5b50505050505b80611f1881612827565b915050611df9565b50611f29610249565b50929392505050565b600154604080516301a6998760e71b815290516000926001600160a01b03169163d34cc380916004808301926020929190829003018186803b158015611f7757600080fd5b505afa158015611f8b573d6000803e3d6000fd5b505050506040513d601f19601f82011682018060405250810190611faf91906129ee565b51919050565b600061200a826040518060400160405280602081526020017f5361666545524332303a206c6f772d6c6576656c2063616c6c206661696c6564815250856001600160a01b03166121cb9092919063ffffffff16565b905080516000148061202b57508080602001905181019061202b9190612900565b611d6e5760405162461bcd60e51b815260206004820152602a60248201527f5361666545524332303a204552433230206f7065726174696f6e20646964206e6044820152691bdd081cdd58d8d9595960b21b606482015260840161036a565b6120976002600019612a3a565b816001600160a01b031663dd62ed3e306120af611f32565b6040516001600160e01b031960e085901b1681526001600160a01b0392831660048201529116602482015260440160206040518083038186803b1580156120f557600080fd5b505afa158015612109573d6000803e3d6000fd5b505050506040513d601f19601f8201168201806040525081019061212d91906127f8565b101561031e57806001600160a01b031663095ea7b361214a611f32565b6040516001600160e01b031960e084901b1681526001600160a01b0390911660048201526000196024820152604401602060405180830381600087803b15801561219357600080fd5b505af11580156121a7573d6000803e3d6000fd5b505050506040513d601f19601f820116820180604052508101906105659190612900565b60606107ce848460008585600080866001600160a01b031685876040516121f29190612922565b60006040518083038185875af1925050503d806000811461222f576040519150601f19603f3d011682016040523d82523d6000602084013e612234565b606091505b509150915061224587838387612250565b979650505050505050565b606083156122bc5782516122b5576001600160a01b0385163b6122b55760405162461bcd60e51b815260206004820152601d60248201527f416464726573733a2063616c6c20746f206e6f6e2d636f6e7472616374000000604482015260640161036a565b50816107ce565b6107ce83838151156122d15781518083602001fd5b8060405162461bcd60e51b815260040161036a919061286e565b828054828255906000526020600020908101928215612340579160200282015b8281111561234057825182546001600160a01b0319166001600160a01b0390911617825560209092019160019091019061230b565b5061234c929150612350565b5090565b5b8082111561234c5760008155600101612351565b6001600160a01b038116811461031e57600080fd5b634e487b7160e01b600052604160045260246000fd5b604051601f8201601f1916810167ffffffffffffffff811182821017156123b9576123b961237a565b604052919050565b600082601f8301126123d257600080fd5b813567ffffffffffffffff8111156123ec576123ec61237a565b6123ff601f8201601f1916602001612390565b81815284602083860101111561241457600080fd5b816020850160208301376000918101602001919091529392505050565b6000806040838503121561244457600080fd5b823561244f81612365565b9150602083013567ffffffffffffffff81111561246b57600080fd5b612477858286016123c1565b9150509250929050565b600067ffffffffffffffff82111561249b5761249b61237a565b5060051b60200190565b600082601f8301126124b657600080fd5b813560206124cb6124c683612481565b612390565b82815260059290921b840181019181810190868411156124ea57600080fd5b8286015b8481101561250e57803561250181612365565b83529183019183016124ee565b509695505050505050565b600082601f83011261252a57600080fd5b8135602061253a6124c683612481565b82815260059290921b8401810191818101908684111561255957600080fd5b8286015b8481101561250e578035835291830191830161255d565b6000806000806080858703121561258a57600080fd5b843561259581612365565b9350602085013567ffffffffffffffff808211156125b257600080fd5b6125be888389016124a5565b945060408701359150808211156125d457600080fd5b6125e088838901612519565b935060608701359150808211156125f657600080fd5b50612603878288016123c1565b91505092959194509250565b600081518084526020808501945080840160005b8381101561263f57815187529582019590820190600101612623565b509495945050505050565b602081526000610c6d602083018461260f565b60006020828403121561266f57600080fd5b8135610c6d81612365565b60008060006060848603121561268f57600080fd5b833567ffffffffffffffff808211156126a757600080fd5b6126b3878388016124a5565b945060208601359150808211156126c957600080fd5b6126d587838801612519565b935060408601359150808211156126eb57600080fd5b506126f8868287016123c1565b9150509250925092565b600081518084526020808501945080840160005b8381101561263f5781516001600160a01b031687529582019590820190600101612716565b602081526000610c6d6020830184612702565b60006020828403121561276057600080fd5b813567ffffffffffffffff81111561277757600080fd5b6107ce848285016124a5565b6000806040838503121561279657600080fd5b82356127a181612365565b9150602083013567ffffffffffffffff8111156127bd57600080fd5b612477858286016124a5565b6000602082840312156127db57600080fd5b5035919050565b634e487b7160e01b600052603260045260246000fd5b60006020828403121561280a57600080fd5b5051919050565b634e487b7160e01b600052601160045260246000fd5b600060001982141561283b5761283b612811565b5060010190565b60005b8381101561285d578181015183820152602001612845565b83811115611d385750506000910152565b602081526000825180602084015261288d816040850160208701612842565b601f01601f19169190910160400192915050565b6000604082840312156128b357600080fd5b6040516040810181811067ffffffffffffffff821117156128d6576128d661237a565b60405282516128e481612365565b815260208301516128f481612365565b60208201529392505050565b60006020828403121561291257600080fd5b81518015158114610c6d57600080fd5b60008251612934818460208701612842565b9190910192915050565b60006020828403121561295057600080fd5b8151610c6d81612365565b6001600160a01b03831681526040602082018190526000906107ce9083018461260f565b60008282101561299157612991612811565b500390565b6001600160a01b03841681526060602082018190526000906129ba90830185612702565b82810360408401526129cc818561260f565b9695505050505050565b600082198211156129e9576129e9612811565b500190565b600060208284031215612a0057600080fd5b6040516020810181811067ffffffffffffffff82111715612a2357612a2361237a565b6040528251612a3181612365565b81529392505050565b600082612a5757634e487b7160e01b600052601260045260246000fd5b50049056fea2646970667358221220839ba00d2c238bf62ff5385b54b5bae85eb1d68126b5cc93e8f723a25ba6ea7664736f6c63430008090033a264697066735822122084cff2eb53414df895f7bca2d1e6c5b43d95ae964bc491d9dfbefc0788e9bf6564736f6c63430008090033",
  "linkReferences": {},
  "deployedLinkReferences": {}
}