{
  "_format": "hh-sol-artifact-1",
  "contractName": "MixinRoles",
  "sourceName": "contracts/mixins/MixinRoles.sol",
  "abi": [
    {
      "anonymous": false,
      "inputs": [
        {
          "indexed": true,
          "internalType": "address",
          "name": "account",
          "type": "address"
        }
      ],
      "name": "KeyGranterAdded",
      "type": "event"
    },
    {
      "anonymous": false,
      "inputs": [
        {
          "indexed": true,
          "internalType": "address",
          "name": "account",
          "type": "address"
        }
      ],
      "name": "KeyGranterRemoved",
      "type": "event"
    },
    {
      "anonymous": false,
      "inputs": [
        {
          "indexed": true,
          "internalType": "address",
          "name": "account",
          "type": "address"
        }
      ],
      "name": "LockManagerAdded",
      "type": "event"
    },
    {
      "anonymous": false,
      "inputs": [
        {
          "indexed": true,
          "internalType": "address",
          "name": "account",
          "type": "address"
        }
      ],
      "name": "LockManagerRemoved",
      "type": "event"
    },
    {
      "anonymous": false,
      "inputs": [
        {
          "indexed": true,
          "internalType": "bytes32",
          "name": "role",
          "type": "bytes32"
        },
        {
          "indexed": true,
          "internalType": "bytes32",
          "name": "previousAdminRole",
          "type": "bytes32"
        },
        {
          "indexed": true,
          "internalType": "bytes32",
          "name": "newAdminRole",
          "type": "bytes32"
        }
      ],
      "name": "RoleAdminChanged",
      "type": "event"
    },
    {
      "anonymous": false,
      "inputs": [
        {
          "indexed": true,
          "internalType": "bytes32",
          "name": "role",
          "type": "bytes32"
        },
        {
          "indexed": true,
          "internalType": "address",
          "name": "account",
          "type": "address"
        },
        {
          "indexed": true,
          "internalType": "address",
          "name": "sender",
          "type": "address"
        }
      ],
      "name": "RoleGranted",
      "type": "event"
    },
    {
      "anonymous": false,
      "inputs": [
        {
          "indexed": true,
          "internalType": "bytes32",
          "name": "role",
          "type": "bytes32"
        },
        {
          "indexed": true,
          "internalType": "address",
          "name": "account",
          "type": "address"
        },
        {
          "indexed": true,
          "internalType": "address",
          "name": "sender",
          "type": "address"
        }
      ],
      "name": "RoleRevoked",
      "type": "event"
    },
    {
      "inputs": [],
      "name": "DEFAULT_ADMIN_ROLE",
      "outputs": [
        {
          "internalType": "bytes32",
          "name": "",
          "type": "bytes32"
        }
      ],
      "stateMutability": "view",
      "type": "function"
    },
    {
      "inputs": [],
      "name": "KEY_GRANTER_ROLE",
      "outputs": [
        {
          "internalType": "bytes32",
          "name": "",
          "type": "bytes32"
        }
      ],
      "stateMutability": "view",
      "type": "function"
    },
    {
      "inputs": [],
      "name": "LOCK_MANAGER_ROLE",
      "outputs": [
        {
          "internalType": "bytes32",
          "name": "",
          "type": "bytes32"
        }
      ],
      "stateMutability": "view",
      "type": "function"
    },
    {
      "inputs": [
        {
          "internalType": "address",
          "name": "account",
          "type": "address"
        }
      ],
      "name": "addKeyGranter",
      "outputs": [],
      "stateMutability": "nonpayable",
      "type": "function"
    },
    {
      "inputs": [
        {
          "internalType": "address",
          "name": "account",
          "type": "address"
        }
      ],
      "name": "addLockManager",
      "outputs": [],
      "stateMutability": "nonpayable",
      "type": "function"
    },
    {
      "inputs": [
        {
          "internalType": "bytes32",
          "name": "role",
          "type": "bytes32"
        }
      ],
      "name": "getRoleAdmin",
      "outputs": [
        {
          "internalType": "bytes32",
          "name": "",
          "type": "bytes32"
        }
      ],
      "stateMutability": "view",
      "type": "function"
    },
    {
      "inputs": [
        {
          "internalType": "bytes32",
          "name": "role",
          "type": "bytes32"
        },
        {
          "internalType": "address",
          "name": "account",
          "type": "address"
        }
      ],
      "name": "grantRole",
      "outputs": [],
      "stateMutability": "nonpayable",
      "type": "function"
    },
    {
      "inputs": [
        {
          "internalType": "bytes32",
          "name": "role",
          "type": "bytes32"
        },
        {
          "internalType": "address",
          "name": "account",
          "type": "address"
        }
      ],
      "name": "hasRole",
      "outputs": [
        {
          "internalType": "bool",
          "name": "",
          "type": "bool"
        }
      ],
      "stateMutability": "view",
      "type": "function"
    },
    {
      "inputs": [
        {
          "internalType": "address",
          "name": "account",
          "type": "address"
        }
      ],
      "name": "isKeyGranter",
      "outputs": [
        {
          "internalType": "bool",
          "name": "",
          "type": "bool"
        }
      ],
      "stateMutability": "view",
      "type": "function"
    },
    {
      "inputs": [
        {
          "internalType": "address",
          "name": "account",
          "type": "address"
        }
      ],
      "name": "isLockManager",
      "outputs": [
        {
          "internalType": "bool",
          "name": "",
          "type": "bool"
        }
      ],
      "stateMutability": "view",
      "type": "function"
    },
    {
      "inputs": [],
      "name": "renounceLockManager",
      "outputs": [],
      "stateMutability": "nonpayable",
      "type": "function"
    },
    {
      "inputs": [
        {
          "internalType": "bytes32",
          "name": "role",
          "type": "bytes32"
        },
        {
          "internalType": "address",
          "name": "account",
          "type": "address"
        }
      ],
      "name": "renounceRole",
      "outputs": [],
      "stateMutability": "nonpayable",
      "type": "function"
    },
    {
      "inputs": [
        {
          "internalType": "address",
          "name": "_granter",
          "type": "address"
        }
      ],
      "name": "revokeKeyGranter",
      "outputs": [],
      "stateMutability": "nonpayable",
      "type": "function"
    },
    {
      "inputs": [
        {
          "internalType": "bytes32",
          "name": "role",
          "type": "bytes32"
        },
        {
          "internalType": "address",
          "name": "account",
          "type": "address"
        }
      ],
      "name": "revokeRole",
      "outputs": [],
      "stateMutability": "nonpayable",
      "type": "function"
    },
    {
      "inputs": [
        {
          "internalType": "bytes4",
          "name": "interfaceId",
          "type": "bytes4"
        }
      ],
      "name": "supportsInterface",
      "outputs": [
        {
          "internalType": "bool",
          "name": "",
          "type": "bool"
        }
      ],
      "stateMutability": "view",
      "type": "function"
    }
  ],
  "bytecode": "0x608060405234801561001057600080fd5b50610b58806100206000396000f3fe608060405234801561001057600080fd5b50600436106100f55760003560e01c8063564aa99d11610097578063aae4b8f711610066578063aae4b8f7146101f9578063d25034851461020c578063d547741f1461021f578063f0ba60401461023257600080fd5b8063564aa99d146101b65780638ca2fbad146101c957806391d14854146101de578063a217fddf146101f157600080fd5b80632af9162a116100d35780632af9162a146101685780632f2ff15d1461017d57806336568abe1461019057806352b0f638146101a357600080fd5b806301ffc9a7146100fa5780632310050914610122578063248a9ca314610145575b600080fd5b61010d610108366004610929565b61023a565b60405190151581526020015b60405180910390f35b610137600080516020610ae383398151915281565b604051908152602001610119565b6101376101533660046108e6565b60009081526065602052604090206001015490565b61017b6101763660046108cc565b610271565b005b61017b61018b3660046108fe565b6102fd565b61017b61019e3660046108fe565b610328565b61010d6101b13660046108cc565b6103a6565b61017b6101c43660046108cc565b6103c0565b610137600080516020610b0383398151915281565b61010d6101ec3660046108fe565b610443565b610137600081565b61010d6102073660046108cc565b61046e565b61017b61021a3660046108cc565b610488565b61017b61022d3660046108fe565b61050b565b61017b610531565b60006001600160e01b03198216637965db0b60e01b148061026b57506301ffc9a760e01b6001600160e01b03198316145b92915050565b610289600080516020610b0383398151915233610443565b6102ae5760405162461bcd60e51b81526004016102a5906109f9565b60405180910390fd5b6102c6600080516020610ae38339815191528261050b565b6040516001600160a01b038216907f766f6199fea59554b9ff688e413302b9200f85d74811c053c12d945ac6d8dd7a90600090a250565b6000828152606560205260409020600101546103198133610576565b61032383836105da565b505050565b6001600160a01b03811633146103985760405162461bcd60e51b815260206004820152602f60248201527f416363657373436f6e74726f6c3a2063616e206f6e6c792072656e6f756e636560448201526e103937b632b9903337b91039b2b63360891b60648201526084016102a5565b6103a28282610660565b5050565b600061026b600080516020610ae383398151915283610443565b6103d8600080516020610b0383398151915233610443565b6103f45760405162461bcd60e51b81526004016102a5906109f9565b61040c600080516020610ae3833981519152826102fd565b6040516001600160a01b038216907f684f8a71407db0c334454ebe9c9b288549317893a20b10dc779ec5c118dcd12190600090a250565b60009182526065602090815260408084206001600160a01b0393909316845291905290205460ff1690565b600061026b600080516020610b0383398151915283610443565b6104a0600080516020610b0383398151915233610443565b6104bc5760405162461bcd60e51b81526004016102a5906109f9565b6104d4600080516020610b03833981519152826102fd565b6040516001600160a01b038216907f91d5c045d5bd98bf59a379b259ebca05b93bf79af1845fdf87e3172385d4c7f790600090a250565b6000828152606560205260409020600101546105278133610576565b6103238383610660565b610549600080516020610b0383398151915233610328565b60405133907f42885193b8178d25fca25a38e6fcc93918501e91be06d85e0c8afb3bad95238090600090a2565b6105808282610443565b6103a257610598816001600160a01b031660146106c7565b6105a38360206106c7565b6040516020016105b4929190610951565b60408051601f198184030181529082905262461bcd60e51b82526102a5916004016109c6565b6105e48282610443565b6103a25760008281526065602090815260408083206001600160a01b03851684529091529020805460ff1916600117905561061c3390565b6001600160a01b0316816001600160a01b0316837f2f8788117e7eff1d82e926ec794901d17c78024a50270940304540a733656f0d60405160405180910390a45050565b61066a8282610443565b156103a25760008281526065602090815260408083206001600160a01b0385168085529252808320805460ff1916905551339285917ff6391f5c32d9c69d2a47ea670b442974b53935d1edc7fd64eb21e047a839171b9190a45050565b606060006106d6836002610a66565b6106e1906002610a4e565b67ffffffffffffffff81111561070757634e487b7160e01b600052604160045260246000fd5b6040519080825280601f01601f191660200182016040528015610731576020820181803683370190505b509050600360fc1b8160008151811061075a57634e487b7160e01b600052603260045260246000fd5b60200101906001600160f81b031916908160001a905350600f60fb1b8160018151811061079757634e487b7160e01b600052603260045260246000fd5b60200101906001600160f81b031916908160001a90535060006107bb846002610a66565b6107c6906001610a4e565b90505b600181111561085a576f181899199a1a9b1b9c1cb0b131b232b360811b85600f166010811061080857634e487b7160e01b600052603260045260246000fd5b1a60f81b82828151811061082c57634e487b7160e01b600052603260045260246000fd5b60200101906001600160f81b031916908160001a90535060049490941c9361085381610ab5565b90506107c9565b5083156108a95760405162461bcd60e51b815260206004820181905260248201527f537472696e67733a20686578206c656e67746820696e73756666696369656e7460448201526064016102a5565b9392505050565b80356001600160a01b03811681146108c757600080fd5b919050565b6000602082840312156108dd578081fd5b6108a9826108b0565b6000602082840312156108f7578081fd5b5035919050565b60008060408385031215610910578081fd5b82359150610920602084016108b0565b90509250929050565b60006020828403121561093a578081fd5b81356001600160e01b0319811681146108a9578182fd5b7f416363657373436f6e74726f6c3a206163636f756e7420000000000000000000815260008351610989816017850160208801610a85565b7001034b99036b4b9b9b4b733903937b6329607d1b60179184019182015283516109ba816028840160208801610a85565b01602801949350505050565b60208152600082518060208401526109e5816040850160208701610a85565b601f01601f19169190910160400192915050565b60208082526035908201527f4d6978696e526f6c65733a2063616c6c657220646f6573206e6f74206861766560408201527420746865204c6f636b4d616e6167657220726f6c6560581b606082015260800190565b60008219821115610a6157610a61610acc565b500190565b6000816000190483118215151615610a8057610a80610acc565b500290565b60005b83811015610aa0578181015183820152602001610a88565b83811115610aaf576000848401525b50505050565b600081610ac457610ac4610acc565b506000190190565b634e487b7160e01b600052601160045260246000fdfeb309c40027c81d382c3b58d8de24207a34b27e1db369b1434e4a11311f154b5eb89cdd26cddd51301940bf2715f765b626b8a5a9e2681ac62dc83cc2db2530c0a2646970667358221220ec5d4dfbfaee431a1b24e143a3cf281c78b491d5d2ea36d8d7700eb1729354b564736f6c63430008040033",
  "linkReferences": {},
  "deployedLinkReferences": {}
}