{
  "_format": "hh-sol-artifact-1",
  "contractName": "ManagerProxyTargetMockV3",
  "sourceName": "contracts/test/mocks/ManagerProxyTargetMockV3.sol",
  "abi": [
    {
      "constant": false,
      "inputs": [
        {
          "internalType": "uint8",
          "name": "_value",
          "type": "uint8"
        }
      ],
      "name": "setUint8",
      "outputs": [],
      "payable": false,
      "stateMutability": "nonpayable",
      "type": "function"
    },
    {
      "constant": true,
      "inputs": [],
      "name": "uint64Value",
      "outputs": [
        {
          "internalType": "uint64",
          "name": "",
          "type": "uint64"
        }
      ],
      "payable": false,
      "stateMutability": "view",
      "type": "function"
    },
    {
      "constant": true,
      "inputs": [],
      "name": "initValue",
      "outputs": [
        {
          "internalType": "uint256",
          "name": "",
          "type": "uint256"
        }
      ],
      "payable": false,
      "stateMutability": "view",
      "type": "function"
    },
    {
      "constant": true,
      "inputs": [],
      "name": "targetContractId",
      "outputs": [
        {
          "internalType": "bytes32",
          "name": "",
          "type": "bytes32"
        }
      ],
      "payable": false,
      "stateMutability": "view",
      "type": "function"
    },
    {
      "constant": true,
      "inputs": [],
      "name": "uint256Value",
      "outputs": [
        {
          "internalType": "uint256",
          "name": "",
          "type": "uint256"
        }
      ],
      "payable": false,
      "stateMutability": "view",
      "type": "function"
    },
    {
      "constant": true,
      "inputs": [],
      "name": "bytes32Value",
      "outputs": [
        {
          "internalType": "bytes32",
          "name": "",
          "type": "bytes32"
        }
      ],
      "payable": false,
      "stateMutability": "view",
      "type": "function"
    },
    {
      "constant": true,
      "inputs": [
        {
          "internalType": "uint256",
          "name": "",
          "type": "uint256"
        }
      ],
      "name": "kvMap",
      "outputs": [
        {
          "internalType": "uint256",
          "name": "",
          "type": "uint256"
        }
      ],
      "payable": false,
      "stateMutability": "view",
      "type": "function"
    },
    {
      "constant": false,
      "inputs": [
        {
          "internalType": "uint64",
          "name": "_value",
          "type": "uint64"
        }
      ],
      "name": "setUint64",
      "outputs": [],
      "payable": false,
      "stateMutability": "nonpayable",
      "type": "function"
    },
    {
      "constant": false,
      "inputs": [
        {
          "internalType": "address",
          "name": "_controller",
          "type": "address"
        }
      ],
      "name": "setController",
      "outputs": [],
      "payable": false,
      "stateMutability": "nonpayable",
      "type": "function"
    },
    {
      "constant": true,
      "inputs": [],
      "name": "uint8Value",
      "outputs": [
        {
          "internalType": "uint8",
          "name": "",
          "type": "uint8"
        }
      ],
      "payable": false,
      "stateMutability": "view",
      "type": "function"
    },
    {
      "constant": false,
      "inputs": [
        {
          "internalType": "bytes32",
          "name": "_value",
          "type": "bytes32"
        }
      ],
      "name": "setBytes32",
      "outputs": [],
      "payable": false,
      "stateMutability": "nonpayable",
      "type": "function"
    },
    {
      "constant": false,
      "inputs": [
        {
          "internalType": "uint256",
          "name": "_value",
          "type": "uint256"
        }
      ],
      "name": "setUint256",
      "outputs": [],
      "payable": false,
      "stateMutability": "nonpayable",
      "type": "function"
    },
    {
      "constant": true,
      "inputs": [],
      "name": "addressValue",
      "outputs": [
        {
          "internalType": "address",
          "name": "",
          "type": "address"
        }
      ],
      "payable": false,
      "stateMutability": "view",
      "type": "function"
    },
    {
      "constant": false,
      "inputs": [
        {
          "internalType": "address",
          "name": "_value",
          "type": "address"
        }
      ],
      "name": "setAddress",
      "outputs": [],
      "payable": false,
      "stateMutability": "nonpayable",
      "type": "function"
    },
    {
      "constant": false,
      "inputs": [
        {
          "internalType": "uint256",
          "name": "_key",
          "type": "uint256"
        },
        {
          "internalType": "uint256",
          "name": "_value",
          "type": "uint256"
        }
      ],
      "name": "setKv",
      "outputs": [],
      "payable": false,
      "stateMutability": "nonpayable",
      "type": "function"
    },
    {
      "constant": true,
      "inputs": [],
      "name": "controller",
      "outputs": [
        {
          "internalType": "contract IController",
          "name": "",
          "type": "address"
        }
      ],
      "payable": false,
      "stateMutability": "view",
      "type": "function"
    },
    {
      "inputs": [
        {
          "internalType": "address",
          "name": "_controller",
          "type": "address"
        }
      ],
      "payable": false,
      "stateMutability": "nonpayable",
      "type": "constructor"
    },
    {
      "anonymous": false,
      "inputs": [
        {
          "indexed": false,
          "internalType": "address",
          "name": "controller",
          "type": "address"
        }
      ],
      "name": "SetController",
      "type": "event"
    },
    {
      "anonymous": false,
      "inputs": [
        {
          "indexed": false,
          "internalType": "string",
          "name": "param",
          "type": "string"
        }
      ],
      "name": "ParameterUpdate",
      "type": "event"
    }
  ],
  "bytecode": "0x608060405234801561001057600080fd5b506040516104f03803806104f08339818101604052602081101561003357600080fd5b5051600080546001600160a01b039092166001600160a01b031990921691909117905561048b806100656000396000f3fe608060405234801561001057600080fd5b50600436106101005760003560e01c806392eefe9b11610097578063e1d16b8311610066578063e1d16b8314610240578063e30081a014610264578063f06ebc381461028a578063f77c4791146102ad57610100565b806392eefe9b146101c2578063aaef20ea146101e8578063c2b12a7314610206578063d2282dc51461022357610100565b80636498db88116100d35780636498db881461016e5780636baaa2e4146101765780636d8097cc1461017e578063822cba691461019b57610100565b80631774e646146101055780632bc2cd99146101275780632fc36f111461014c57806351720b4114610166575b600080fd5b6101256004803603602081101561011b57600080fd5b503560ff166102b5565b005b61012f6102cb565b6040805167ffffffffffffffff9092168252519081900360200190f35b6101546102e0565b60408051918252519081900360200190f35b6101546102e6565b6101546102ec565b6101546102f2565b6101546004803603602081101561019457600080fd5b50356102f8565b610125600480360360208110156101b157600080fd5b503567ffffffffffffffff1661030a565b610125600480360360208110156101d857600080fd5b50356001600160a01b0316610334565b6101f0610390565b6040805160ff9092168252519081900360200190f35b6101256004803603602081101561021c57600080fd5b5035610399565b6101256004803603602081101561023957600080fd5b503561039e565b6102486103a3565b604080516001600160a01b039092168252519081900360200190f35b6101256004803603602081101561027a57600080fd5b50356001600160a01b03166103b2565b610125600480360360408110156102a057600080fd5b50803590602001356103d4565b6102486103e6565b6003805460ff191660ff92909216919091179055565b600354610100900467ffffffffffffffff1681565b60025481565b60015481565b60045481565b60055481565b60076020526000908152604090205481565b6003805467ffffffffffffffff9092166101000268ffffffffffffffff0019909216919091179055565b61033c6103f5565b600080546001600160a01b0383166001600160a01b0319909116811790915560408051918252517f4ff638452bbf33c012645d18ae6f05515ff5f2d1dfb0cece8cbf018c60903f709181900360200190a150565b60035460ff1681565b600555565b600455565b6006546001600160a01b031681565b600680546001600160a01b0319166001600160a01b0392909216919091179055565b60009182526007602052604090912055565b6000546001600160a01b031681565b6000546001600160a01b03163314610454576040805162461bcd60e51b815260206004820152601960248201527f63616c6c6572206d75737420626520436f6e74726f6c6c657200000000000000604482015290519081900360640190fd5b56fea265627a7a723158209b4073f1d22f93984df19a70f2ee3449e94e3a6e6e6c227a4e0828a450356cc264736f6c634300050b0032",
  "linkReferences": {},
  "deployedLinkReferences": {}
}