{
  "_format": "hh-sol-artifact-1",
  "contractName": "SupplyMiner",
  "sourceName": "contracts/liquidityMining/SupplyMiner.sol",
  "abi": [
    {
      "inputs": [
        {
          "internalType": "contract IGovernanceAddressProvider",
          "name": "_addresses",
          "type": "address"
        }
      ],
      "stateMutability": "nonpayable",
      "type": "constructor"
    },
    {
      "anonymous": false,
      "inputs": [
        {
          "indexed": true,
          "internalType": "address",
          "name": "user",
          "type": "address"
        },
        {
          "indexed": false,
          "internalType": "uint256",
          "name": "stake",
          "type": "uint256"
        }
      ],
      "name": "StakeDecreased",
      "type": "event"
    },
    {
      "anonymous": false,
      "inputs": [
        {
          "indexed": true,
          "internalType": "address",
          "name": "user",
          "type": "address"
        },
        {
          "indexed": false,
          "internalType": "uint256",
          "name": "stake",
          "type": "uint256"
        }
      ],
      "name": "StakeIncreased",
      "type": "event"
    },
    {
      "inputs": [],
      "name": "a",
      "outputs": [
        {
          "internalType": "contract IGovernanceAddressProvider",
          "name": "",
          "type": "address"
        }
      ],
      "stateMutability": "view",
      "type": "function"
    },
    {
      "inputs": [
        {
          "internalType": "address",
          "name": "user",
          "type": "address"
        },
        {
          "internalType": "uint256",
          "name": "newBaseDebt",
          "type": "uint256"
        }
      ],
      "name": "baseDebtChanged",
      "outputs": [],
      "stateMutability": "nonpayable",
      "type": "function"
    },
    {
      "inputs": [
        {
          "internalType": "address",
          "name": "_user",
          "type": "address"
        }
      ],
      "name": "pendingMIMO",
      "outputs": [
        {
          "internalType": "uint256",
          "name": "",
          "type": "uint256"
        }
      ],
      "stateMutability": "view",
      "type": "function"
    },
    {
      "inputs": [
        {
          "internalType": "address",
          "name": "_user",
          "type": "address"
        }
      ],
      "name": "releaseMIMO",
      "outputs": [],
      "stateMutability": "nonpayable",
      "type": "function"
    },
    {
      "inputs": [
        {
          "internalType": "address",
          "name": "_user",
          "type": "address"
        }
      ],
      "name": "stake",
      "outputs": [
        {
          "internalType": "uint256",
          "name": "",
          "type": "uint256"
        }
      ],
      "stateMutability": "view",
      "type": "function"
    },
    {
      "inputs": [],
      "name": "totalStake",
      "outputs": [
        {
          "internalType": "uint256",
          "name": "",
          "type": "uint256"
        }
      ],
      "stateMutability": "view",
      "type": "function"
    },
    {
      "inputs": [
        {
          "internalType": "address",
          "name": "_user",
          "type": "address"
        }
      ],
      "name": "userInfo",
      "outputs": [
        {
          "components": [
            {
              "internalType": "uint256",
              "name": "stake",
              "type": "uint256"
            },
            {
              "internalType": "uint256",
              "name": "accAmountPerShare",
              "type": "uint256"
            }
          ],
          "internalType": "struct IGenericMiner.UserInfo",
          "name": "",
          "type": "tuple"
        }
      ],
      "stateMutability": "view",
      "type": "function"
    }
  ],
  "bytecode": "0x608060405234801561001057600080fd5b50604051610f8d380380610f8d83398101604081905261002f91610069565b806001600160a01b03811661004357600080fd5b600280546001600160a01b0319166001600160a01b039290921691909117905550610097565b60006020828403121561007a578081fd5b81516001600160a01b0381168114610090578182fd5b9392505050565b610ee7806100a66000396000f3fe608060405234801561001057600080fd5b506004361061007d5760003560e01c8063264762041161005b57806326476204146100d557806360ed390a146100f55780637c284c0a146101085780638b0e9f3f1461011b5761007d565b8063068a089d146100825780630dbe671f146100975780631959a002146100b5575b600080fd5b610095610090366004610c42565b610123565b005b61009f6101f1565b6040516100ac9190610cc1565b60405180910390f35b6100c86100c3366004610c26565b610200565b6040516100ac9190610e79565b6100e86100e3366004610c26565b610239565b6040516100ac9190610e90565b610095610103366004610c26565b610254565b6100e8610116366004610c26565b6103b7565b6100e861054f565b600260009054906101000a90046001600160a01b03166001600160a01b031663bd1b71466040518163ffffffff1660e01b815260040160206040518083038186803b15801561017157600080fd5b505afa158015610185573d6000803e3d6000fd5b505050506040513d601f19601f820116820180604052508101906101a99190610c8d565b6001600160a01b0316336001600160a01b0316146101e25760405162461bcd60e51b81526004016101d990610e0b565b60405180910390fd5b6101ec8282610555565b505050565b6002546001600160a01b031681565b610208610c0c565b506001600160a01b031660009081526020818152604091829020825180840190935280548352600101549082015290565b6001600160a01b031660009081526020819052604090205490565b6001600160a01b03811660009081526020819052604090206102746105ab565b600061029a61029283600101546004546106ea90919063ffffffff16565b835490610717565b6003549091506102aa90826106ea565b60035560048054600184015560025460408051636d9b182360e01b815290516001600160a01b0390921692636d9b1823928282019260209290829003018186803b1580156102f757600080fd5b505afa15801561030b573d6000803e3d6000fd5b505050506040513d601f19601f8201168201806040525081019061032f9190610c8d565b6001600160a01b031663a9059cbb84836040518363ffffffff1660e01b815260040161035c929190610cd5565b602060405180830381600087803b15801561037657600080fd5b505af115801561038a573d6000803e3d6000fd5b505050506040513d601f19601f820116820180604052508101906103ae9190610c6d565b6101ec57600080fd5b600080600260009054906101000a90046001600160a01b03166001600160a01b0316636d9b18236040518163ffffffff1660e01b815260040160206040518083038186803b15801561040857600080fd5b505afa15801561041c573d6000803e3d6000fd5b505050506040513d601f19601f820116820180604052508101906104409190610c8d565b6001600160a01b03166370a08231306040518263ffffffff1660e01b815260040161046b9190610cc1565b60206040518083038186803b15801561048357600080fd5b505afa158015610497573d6000803e3d6000fd5b505050506040513d601f19601f820116820180604052508101906104bb9190610ca9565b905060006104d4600354836106ea90919063ffffffff16565b905060006104f96104f06001548461075690919063ffffffff16565b60045490610788565b6001600160a01b038616600090815260208190526040902060010154909150610546906105279083906106ea565b6001600160a01b03871660009081526020819052604090205490610717565b95945050505050565b60015481565b6001600160a01b03821660009081526020819052604081205480831115610589576105898461058485846106ea565b6107ad565b808310156105a4576105a48461059f83866106ea565b6109a8565b5092915050565b6001546105b7576106e8565b60025460408051636d9b182360e01b815290516000926001600160a01b031691636d9b1823916004808301926020929190829003018186803b1580156105fc57600080fd5b505afa158015610610573d6000803e3d6000fd5b505050506040513d601f19601f820116820180604052508101906106349190610c8d565b6001600160a01b03166370a08231306040518263ffffffff1660e01b815260040161065f9190610cc1565b60206040518083038186803b15801561067757600080fd5b505afa15801561068b573d6000803e3d6000fd5b505050506040513d601f19601f820116820180604052508101906106af9190610ca9565b905060006106c8600354836106ea90919063ffffffff16565b60038390556001549091506106e2906104f0908390610756565b60045550505b565b60008282111561070c5760405162461bcd60e51b81526004016101d990610d25565b508082035b92915050565b600061074f6b033b2e3c9fd0803ce80000006107496107368686610ba0565b6b019d971e4fe8401e7400000090610788565b90610bda565b9392505050565b60006002820461078083610749610779876b033b2e3c9fd0803ce8000000610ba0565b8490610788565b949350505050565b60008282018381101561074f5760405162461bcd60e51b81526004016101d990610cee565b600081116107cd5760405162461bcd60e51b81526004016101d990610dd4565b6001600160a01b03821660009081526020819052604090206107ed6105ab565b8054600090156108275761081361029283600101546004546106ea90919063ffffffff16565b60035490915061082390826106ea565b6003555b6001546108349084610788565b60015581546108439084610788565b82556004546001830155801561096157600260009054906101000a90046001600160a01b03166001600160a01b0316636d9b18236040518163ffffffff1660e01b815260040160206040518083038186803b1580156108a157600080fd5b505afa1580156108b5573d6000803e3d6000fd5b505050506040513d601f19601f820116820180604052508101906108d99190610c8d565b6001600160a01b031663a9059cbb85836040518363ffffffff1660e01b8152600401610906929190610cd5565b602060405180830381600087803b15801561092057600080fd5b505af1158015610934573d6000803e3d6000fd5b505050506040513d601f19601f820116820180604052508101906109589190610c6d565b61096157600080fd5b836001600160a01b03167f8b0ed825817a2e696c9a931715af4609fc60e1701f09c89ee7645130e937eb2d8460405161099a9190610e90565b60405180910390a250505050565b600081116109c85760405162461bcd60e51b81526004016101d990610dd4565b6001600160a01b03821660009081526020819052604090208054821115610a015760405162461bcd60e51b81526004016101d990610e42565b610a096105ab565b6000610a2761029283600101546004546106ea90919063ffffffff16565b600354909150610a3790826106ea565b6003558154610a4690846106ea565b825560045460018084019190915554610a5f90846106ea565b60015560025460408051636d9b182360e01b815290516001600160a01b0390921691636d9b182391600480820192602092909190829003018186803b158015610aa757600080fd5b505afa158015610abb573d6000803e3d6000fd5b505050506040513d601f19601f82011682018060405250810190610adf9190610c8d565b6001600160a01b031663a9059cbb85836040518363ffffffff1660e01b8152600401610b0c929190610cd5565b602060405180830381600087803b158015610b2657600080fd5b505af1158015610b3a573d6000803e3d6000fd5b505050506040513d601f19601f82011682018060405250810190610b5e9190610c6d565b610b6757600080fd5b836001600160a01b03167f700865370ffb2a65a2b0242e6a64b21ac907ed5ecd46c9cffc729c177b2b1c698460405161099a9190610e90565b600082610baf57506000610711565b82820282848281610bbc57fe5b041461074f5760405162461bcd60e51b81526004016101d990610d93565b6000808211610bfb5760405162461bcd60e51b81526004016101d990610d5c565b818381610c0457fe5b049392505050565b604051806040016040528060008152602001600081525090565b600060208284031215610c37578081fd5b813561074f81610e99565b60008060408385031215610c54578081fd5b8235610c5f81610e99565b946020939093013593505050565b600060208284031215610c7e578081fd5b8151801515811461074f578182fd5b600060208284031215610c9e578081fd5b815161074f81610e99565b600060208284031215610cba578081fd5b5051919050565b6001600160a01b0391909116815260200190565b6001600160a01b03929092168252602082015260400190565b6020808252601b908201527f536166654d6174683a206164646974696f6e206f766572666c6f770000000000604082015260600190565b6020808252601e908201527f536166654d6174683a207375627472616374696f6e206f766572666c6f770000604082015260600190565b6020808252601a908201527f536166654d6174683a206469766973696f6e206279207a65726f000000000000604082015260600190565b60208082526021908201527f536166654d6174683a206d756c7469706c69636174696f6e206f766572666c6f6040820152607760f81b606082015260800190565b6020808252601f908201527f5354414b455f4d5553545f42455f475245415445525f5448414e5f5a45524f00604082015260600190565b6020808252601a908201527f43616c6c6572206973206e6f7420446562744e6f746966696572000000000000604082015260600190565b6020808252601b908201527f494e53554646494349454e545f5354414b455f464f525f555345520000000000604082015260600190565b815181526020918201519181019190915260400190565b90815260200190565b6001600160a01b0381168114610eae57600080fd5b5056fea26469706673582212201e3ce2822469cfdd5c14fb0bf8f48145fd8d97745d7fc2a7849e9a489b2febb064736f6c634300060c0033",
  "linkReferences": {},
  "deployedLinkReferences": {}
}