{
  "_format": "hh-sol-artifact-1",
  "contractName": "NFTXVaultFactoryUpgradeable2",
  "sourceName": "contracts/solidity/testing/NFTXVaultFactoryUpgradeable2.sol",
  "abi": [
    {
      "anonymous": false,
      "inputs": [
        {
          "indexed": false,
          "internalType": "uint256",
          "name": "vaultId",
          "type": "uint256"
        }
      ],
      "name": "DisableVaultFees",
      "type": "event"
    },
    {
      "anonymous": false,
      "inputs": [
        {
          "indexed": false,
          "internalType": "address",
          "name": "feeExcluded",
          "type": "address"
        },
        {
          "indexed": false,
          "internalType": "bool",
          "name": "excluded",
          "type": "bool"
        }
      ],
      "name": "FeeExclusion",
      "type": "event"
    },
    {
      "anonymous": false,
      "inputs": [
        {
          "indexed": false,
          "internalType": "address",
          "name": "oldEligManager",
          "type": "address"
        },
        {
          "indexed": false,
          "internalType": "address",
          "name": "newEligManager",
          "type": "address"
        }
      ],
      "name": "NewEligibilityManager",
      "type": "event"
    },
    {
      "anonymous": false,
      "inputs": [
        {
          "indexed": false,
          "internalType": "address",
          "name": "oldDistributor",
          "type": "address"
        },
        {
          "indexed": false,
          "internalType": "address",
          "name": "newDistributor",
          "type": "address"
        }
      ],
      "name": "NewFeeDistributor",
      "type": "event"
    },
    {
      "anonymous": false,
      "inputs": [
        {
          "indexed": true,
          "internalType": "uint256",
          "name": "vaultId",
          "type": "uint256"
        },
        {
          "indexed": false,
          "internalType": "address",
          "name": "vaultAddress",
          "type": "address"
        },
        {
          "indexed": false,
          "internalType": "address",
          "name": "assetAddress",
          "type": "address"
        }
      ],
      "name": "NewVault",
      "type": "event"
    },
    {
      "anonymous": false,
      "inputs": [
        {
          "indexed": false,
          "internalType": "address",
          "name": "oldZap",
          "type": "address"
        },
        {
          "indexed": false,
          "internalType": "address",
          "name": "newZap",
          "type": "address"
        }
      ],
      "name": "NewZapContract",
      "type": "event"
    },
    {
      "anonymous": false,
      "inputs": [
        {
          "indexed": true,
          "internalType": "address",
          "name": "previousOwner",
          "type": "address"
        },
        {
          "indexed": true,
          "internalType": "address",
          "name": "newOwner",
          "type": "address"
        }
      ],
      "name": "OwnershipTransferred",
      "type": "event"
    },
    {
      "anonymous": false,
      "inputs": [
        {
          "indexed": false,
          "internalType": "address",
          "name": "addr",
          "type": "address"
        },
        {
          "indexed": false,
          "internalType": "bool",
          "name": "isGuardian",
          "type": "bool"
        }
      ],
      "name": "SetIsGuardian",
      "type": "event"
    },
    {
      "anonymous": false,
      "inputs": [
        {
          "indexed": false,
          "internalType": "uint256",
          "name": "lockId",
          "type": "uint256"
        },
        {
          "indexed": false,
          "internalType": "bool",
          "name": "paused",
          "type": "bool"
        }
      ],
      "name": "SetPaused",
      "type": "event"
    },
    {
      "anonymous": false,
      "inputs": [
        {
          "indexed": false,
          "internalType": "uint256",
          "name": "mintFee",
          "type": "uint256"
        },
        {
          "indexed": false,
          "internalType": "uint256",
          "name": "randomRedeemFee",
          "type": "uint256"
        },
        {
          "indexed": false,
          "internalType": "uint256",
          "name": "targetRedeemFee",
          "type": "uint256"
        },
        {
          "indexed": false,
          "internalType": "uint256",
          "name": "randomSwapFee",
          "type": "uint256"
        },
        {
          "indexed": false,
          "internalType": "uint256",
          "name": "targetSwapFee",
          "type": "uint256"
        }
      ],
      "name": "UpdateFactoryFees",
      "type": "event"
    },
    {
      "anonymous": false,
      "inputs": [
        {
          "indexed": false,
          "internalType": "uint256",
          "name": "vaultId",
          "type": "uint256"
        },
        {
          "indexed": false,
          "internalType": "uint256",
          "name": "mintFee",
          "type": "uint256"
        },
        {
          "indexed": false,
          "internalType": "uint256",
          "name": "randomRedeemFee",
          "type": "uint256"
        },
        {
          "indexed": false,
          "internalType": "uint256",
          "name": "targetRedeemFee",
          "type": "uint256"
        },
        {
          "indexed": false,
          "internalType": "uint256",
          "name": "randomSwapFee",
          "type": "uint256"
        },
        {
          "indexed": false,
          "internalType": "uint256",
          "name": "targetSwapFee",
          "type": "uint256"
        }
      ],
      "name": "UpdateVaultFees",
      "type": "event"
    },
    {
      "anonymous": false,
      "inputs": [
        {
          "indexed": true,
          "internalType": "address",
          "name": "childImplementation",
          "type": "address"
        }
      ],
      "name": "Upgraded",
      "type": "event"
    },
    {
      "inputs": [
        {
          "internalType": "address",
          "name": "_vaultImpl",
          "type": "address"
        },
        {
          "internalType": "address",
          "name": "_feeDistributor",
          "type": "address"
        }
      ],
      "name": "__NFTXVaultFactory_init",
      "outputs": [],
      "stateMutability": "nonpayable",
      "type": "function"
    },
    {
      "inputs": [
        {
          "internalType": "address",
          "name": "childImplementation_",
          "type": "address"
        }
      ],
      "name": "__UpgradeableBeacon__init",
      "outputs": [],
      "stateMutability": "nonpayable",
      "type": "function"
    },
    {
      "inputs": [],
      "name": "allVaults",
      "outputs": [
        {
          "internalType": "address[]",
          "name": "",
          "type": "address[]"
        }
      ],
      "stateMutability": "view",
      "type": "function"
    },
    {
      "inputs": [],
      "name": "assignFees",
      "outputs": [],
      "stateMutability": "nonpayable",
      "type": "function"
    },
    {
      "inputs": [],
      "name": "childImplementation",
      "outputs": [
        {
          "internalType": "address",
          "name": "",
          "type": "address"
        }
      ],
      "stateMutability": "view",
      "type": "function"
    },
    {
      "inputs": [
        {
          "internalType": "string",
          "name": "name",
          "type": "string"
        },
        {
          "internalType": "string",
          "name": "symbol",
          "type": "string"
        },
        {
          "internalType": "address",
          "name": "_assetAddress",
          "type": "address"
        },
        {
          "internalType": "bool",
          "name": "is1155",
          "type": "bool"
        },
        {
          "internalType": "bool",
          "name": "allowAllItems",
          "type": "bool"
        }
      ],
      "name": "createVault",
      "outputs": [
        {
          "internalType": "uint256",
          "name": "",
          "type": "uint256"
        }
      ],
      "stateMutability": "nonpayable",
      "type": "function"
    },
    {
      "inputs": [
        {
          "internalType": "uint256",
          "name": "vaultId",
          "type": "uint256"
        }
      ],
      "name": "disableVaultFees",
      "outputs": [],
      "stateMutability": "nonpayable",
      "type": "function"
    },
    {
      "inputs": [],
      "name": "eligibilityManager",
      "outputs": [
        {
          "internalType": "address",
          "name": "",
          "type": "address"
        }
      ],
      "stateMutability": "view",
      "type": "function"
    },
    {
      "inputs": [
        {
          "internalType": "address",
          "name": "",
          "type": "address"
        }
      ],
      "name": "excludedFromFees",
      "outputs": [
        {
          "internalType": "bool",
          "name": "",
          "type": "bool"
        }
      ],
      "stateMutability": "view",
      "type": "function"
    },
    {
      "inputs": [],
      "name": "factoryMintFee",
      "outputs": [
        {
          "internalType": "uint64",
          "name": "",
          "type": "uint64"
        }
      ],
      "stateMutability": "view",
      "type": "function"
    },
    {
      "inputs": [],
      "name": "factoryRandomRedeemFee",
      "outputs": [
        {
          "internalType": "uint64",
          "name": "",
          "type": "uint64"
        }
      ],
      "stateMutability": "view",
      "type": "function"
    },
    {
      "inputs": [],
      "name": "factoryRandomSwapFee",
      "outputs": [
        {
          "internalType": "uint64",
          "name": "",
          "type": "uint64"
        }
      ],
      "stateMutability": "view",
      "type": "function"
    },
    {
      "inputs": [],
      "name": "factoryTargetRedeemFee",
      "outputs": [
        {
          "internalType": "uint64",
          "name": "",
          "type": "uint64"
        }
      ],
      "stateMutability": "view",
      "type": "function"
    },
    {
      "inputs": [],
      "name": "factoryTargetSwapFee",
      "outputs": [
        {
          "internalType": "uint64",
          "name": "",
          "type": "uint64"
        }
      ],
      "stateMutability": "view",
      "type": "function"
    },
    {
      "inputs": [],
      "name": "feeDistributor",
      "outputs": [
        {
          "internalType": "address",
          "name": "",
          "type": "address"
        }
      ],
      "stateMutability": "view",
      "type": "function"
    },
    {
      "inputs": [
        {
          "internalType": "address",
          "name": "",
          "type": "address"
        }
      ],
      "name": "isGuardian",
      "outputs": [
        {
          "internalType": "bool",
          "name": "",
          "type": "bool"
        }
      ],
      "stateMutability": "view",
      "type": "function"
    },
    {
      "inputs": [
        {
          "internalType": "uint256",
          "name": "lockId",
          "type": "uint256"
        }
      ],
      "name": "isLocked",
      "outputs": [
        {
          "internalType": "bool",
          "name": "",
          "type": "bool"
        }
      ],
      "stateMutability": "view",
      "type": "function"
    },
    {
      "inputs": [
        {
          "internalType": "uint256",
          "name": "",
          "type": "uint256"
        }
      ],
      "name": "isPaused",
      "outputs": [
        {
          "internalType": "bool",
          "name": "",
          "type": "bool"
        }
      ],
      "stateMutability": "view",
      "type": "function"
    },
    {
      "inputs": [],
      "name": "numVaults",
      "outputs": [
        {
          "internalType": "uint256",
          "name": "",
          "type": "uint256"
        }
      ],
      "stateMutability": "view",
      "type": "function"
    },
    {
      "inputs": [
        {
          "internalType": "uint256",
          "name": "lockId",
          "type": "uint256"
        }
      ],
      "name": "onlyOwnerIfPaused",
      "outputs": [],
      "stateMutability": "view",
      "type": "function"
    },
    {
      "inputs": [],
      "name": "owner",
      "outputs": [
        {
          "internalType": "address",
          "name": "",
          "type": "address"
        }
      ],
      "stateMutability": "view",
      "type": "function"
    },
    {
      "inputs": [
        {
          "internalType": "uint256",
          "name": "lockId",
          "type": "uint256"
        }
      ],
      "name": "pause",
      "outputs": [],
      "stateMutability": "nonpayable",
      "type": "function"
    },
    {
      "inputs": [],
      "name": "renounceOwnership",
      "outputs": [],
      "stateMutability": "nonpayable",
      "type": "function"
    },
    {
      "inputs": [
        {
          "internalType": "address",
          "name": "_eligibilityManager",
          "type": "address"
        }
      ],
      "name": "setEligibilityManager",
      "outputs": [],
      "stateMutability": "nonpayable",
      "type": "function"
    },
    {
      "inputs": [
        {
          "internalType": "uint256",
          "name": "mintFee",
          "type": "uint256"
        },
        {
          "internalType": "uint256",
          "name": "randomRedeemFee",
          "type": "uint256"
        },
        {
          "internalType": "uint256",
          "name": "targetRedeemFee",
          "type": "uint256"
        },
        {
          "internalType": "uint256",
          "name": "randomSwapFee",
          "type": "uint256"
        },
        {
          "internalType": "uint256",
          "name": "targetSwapFee",
          "type": "uint256"
        }
      ],
      "name": "setFactoryFees",
      "outputs": [],
      "stateMutability": "nonpayable",
      "type": "function"
    },
    {
      "inputs": [
        {
          "internalType": "address",
          "name": "_feeDistributor",
          "type": "address"
        }
      ],
      "name": "setFeeDistributor",
      "outputs": [],
      "stateMutability": "nonpayable",
      "type": "function"
    },
    {
      "inputs": [
        {
          "internalType": "address",
          "name": "_excludedAddr",
          "type": "address"
        },
        {
          "internalType": "bool",
          "name": "excluded",
          "type": "bool"
        }
      ],
      "name": "setFeeExclusion",
      "outputs": [],
      "stateMutability": "nonpayable",
      "type": "function"
    },
    {
      "inputs": [
        {
          "internalType": "address",
          "name": "addr",
          "type": "address"
        },
        {
          "internalType": "bool",
          "name": "_isGuardian",
          "type": "bool"
        }
      ],
      "name": "setIsGuardian",
      "outputs": [],
      "stateMutability": "nonpayable",
      "type": "function"
    },
    {
      "inputs": [
        {
          "internalType": "uint256",
          "name": "vaultId",
          "type": "uint256"
        },
        {
          "internalType": "uint256",
          "name": "mintFee",
          "type": "uint256"
        },
        {
          "internalType": "uint256",
          "name": "randomRedeemFee",
          "type": "uint256"
        },
        {
          "internalType": "uint256",
          "name": "targetRedeemFee",
          "type": "uint256"
        },
        {
          "internalType": "uint256",
          "name": "randomSwapFee",
          "type": "uint256"
        },
        {
          "internalType": "uint256",
          "name": "targetSwapFee",
          "type": "uint256"
        }
      ],
      "name": "setVaultFees",
      "outputs": [],
      "stateMutability": "nonpayable",
      "type": "function"
    },
    {
      "inputs": [
        {
          "internalType": "address",
          "name": "_zapContract",
          "type": "address"
        }
      ],
      "name": "setZapContract",
      "outputs": [],
      "stateMutability": "nonpayable",
      "type": "function"
    },
    {
      "inputs": [
        {
          "internalType": "address",
          "name": "newOwner",
          "type": "address"
        }
      ],
      "name": "transferOwnership",
      "outputs": [],
      "stateMutability": "nonpayable",
      "type": "function"
    },
    {
      "inputs": [],
      "name": "twiceNumVaults",
      "outputs": [
        {
          "internalType": "uint256",
          "name": "",
          "type": "uint256"
        }
      ],
      "stateMutability": "view",
      "type": "function"
    },
    {
      "inputs": [
        {
          "internalType": "uint256",
          "name": "lockId",
          "type": "uint256"
        }
      ],
      "name": "unpause",
      "outputs": [],
      "stateMutability": "nonpayable",
      "type": "function"
    },
    {
      "inputs": [
        {
          "internalType": "address",
          "name": "newChildImplementation",
          "type": "address"
        }
      ],
      "name": "upgradeChildTo",
      "outputs": [],
      "stateMutability": "nonpayable",
      "type": "function"
    },
    {
      "inputs": [
        {
          "internalType": "uint256",
          "name": "vaultId",
          "type": "uint256"
        }
      ],
      "name": "vault",
      "outputs": [
        {
          "internalType": "address",
          "name": "",
          "type": "address"
        }
      ],
      "stateMutability": "view",
      "type": "function"
    },
    {
      "inputs": [
        {
          "internalType": "uint256",
          "name": "vaultId",
          "type": "uint256"
        }
      ],
      "name": "vaultFees",
      "outputs": [
        {
          "internalType": "uint256",
          "name": "",
          "type": "uint256"
        },
        {
          "internalType": "uint256",
          "name": "",
          "type": "uint256"
        },
        {
          "internalType": "uint256",
          "name": "",
          "type": "uint256"
        },
        {
          "internalType": "uint256",
          "name": "",
          "type": "uint256"
        },
        {
          "internalType": "uint256",
          "name": "",
          "type": "uint256"
        }
      ],
      "stateMutability": "view",
      "type": "function"
    },
    {
      "inputs": [
        {
          "internalType": "address",
          "name": "assetAddress",
          "type": "address"
        }
      ],
      "name": "vaultsForAsset",
      "outputs": [
        {
          "internalType": "address[]",
          "name": "",
          "type": "address[]"
        }
      ],
      "stateMutability": "view",
      "type": "function"
    },
    {
      "inputs": [],
      "name": "zapContract",
      "outputs": [
        {
          "internalType": "address",
          "name": "",
          "type": "address"
        }
      ],
      "stateMutability": "view",
      "type": "function"
    }
  ],
  "bytecode": "0x608060405234801561001057600080fd5b5061310b806100206000396000f3fe60806040523480156200001157600080fd5b5060043610620002c75760003560e01c806381a36fb6116200017c578063da52571611620000e9578063f60c07f41162000097578063fabc1cbc116200007a578063fabc1cbc146200067b578063fc21c3f81462000692578063fcaa873714620006a757600080fd5b8063f60c07f4146200064b578063f6aacfb1146200065557600080fd5b8063e595602711620000cc578063e59560271462000606578063ef8658db146200061d578063f2fde38b146200063457600080fd5b8063da52571614620005ce578063dbe66ca014620005e057600080fd5b80639e1a88241162000147578063c182f2b2116200012a578063c182f2b21462000596578063c74b99a614620005ad578063ccfc2e8d14620005b757600080fd5b80639e1a8824146200055b578063bdf2a43c146200057057600080fd5b806381a36fb614620005045780638da5cb5b146200051b57806390f434d8146200052d5780639b084d1b146200054457600080fd5b806323845fb5116200023857806340f2d55511620001e6578063715018a611620001c9578063715018a614620004c25780637c0f44a214620004cc5780637c77b61614620004ed57600080fd5b806340f2d555146200048f5780636d14584614620004a657600080fd5b8063264a6208116200021b578063264a6208146200044e57806330b94cd514620004615780633ec93d9c146200047857600080fd5b806323845fb514620004235780632549dad9146200043a57600080fd5b8063136439dd11620002965780631f1713fc11620002795780631f1713fc14620003b5578063219962d214620003cc5780632206137914620003e357600080fd5b8063136439dd146200038857806314c77faa14620003a157600080fd5b8063063effeb14620002cc57806309d25e7914620002ee5780630c68ba2114620003245780630d43e8ad146200035b575b600080fd5b620002d6620006be565b604051620002e59190620026f6565b60405180910390f35b6071546200030a90600160801b900467ffffffffffffffff1681565b60405167ffffffffffffffff9091168152602001620002e5565b6200034a62000335366004620024e8565b60656020526000908152604090205460ff1681565b6040519015158152602001620002e5565b606a546200036f906001600160a01b031681565b6040516001600160a01b039091168152602001620002e5565b6200039f6200039936600462002611565b62000722565b005b606b546200036f906001600160a01b031681565b6200039f620003c6366004620024e8565b620007df565b6200039f620003dd36600462002665565b62000849565b620003fa620003f436600462002611565b62000c5b565b604080519586526020860194909452928401919091526060830152608082015260a001620002e5565b6200039f6200043436600462002543565b62000d9b565b6069546200036f906001600160a01b031681565b606e545b604051908152602001620002e5565b6200039f6200047236600462002543565b62000e5a565b6200039f620004893660046200250c565b62000f24565b6200039f620004a0366004620024e8565b62001033565b6071546200030a90600160c01b900467ffffffffffffffff1681565b6200039f620010f8565b6071546200030a9068010000000000000000900467ffffffffffffffff1681565b6200039f620004fe36600462002611565b6200119e565b6200036f6200051536600462002611565b62001215565b6033546001600160a01b03166200036f565b620002d66200053e366004620024e8565b62001254565b6200039f620005553660046200262a565b620012cc565b6071546200030a9067ffffffffffffffff1681565b6200034a6200058136600462002611565b60666020526000908152604090205460ff1681565b6200039f620005a736600462002611565b62001592565b6200039f620016b4565b6200039f620005c8366004620024e8565b620017c6565b6067546001600160a01b03166200036f565b6200034a620005f1366004620024e8565b606f6020526000908152604090205460ff1681565b6200039f62000617366004620024e8565b6200189f565b620004526200062e36600462002571565b62001963565b6200039f62000645366004620024e8565b62001b90565b6200045262001cc6565b6200034a6200066636600462002611565b60009081526066602052604090205460ff1690565b6200039f6200068c36600462002611565b62001cde565b6072546200030a9067ffffffffffffffff1681565b6200039f620006b8366004620024e8565b62001d88565b6060606e8054806020026020016040519081016040528092919081815260200182805480156200071857602002820191906000526020600020905b81546001600160a01b03168152600190910190602001808311620006f9575b5050505050905090565b3360009081526065602052604090205460ff16620007875760405162461bcd60e51b815260206004820152600b60248201527f43616e277420706175736500000000000000000000000000000000000000000060448201526064015b60405180910390fd5b600081815260666020908152604091829020805460ff191660019081179091558251848152918201527f77f1fcfcce67dc392d64f842056d2ec06c80986c47c910f7e79c5b23a2738d7491015b60405180910390a150565b6033546001600160a01b031633146200083b5760405162461bcd60e51b815260206004820181905260248201527f4f776e61626c653a2063616c6c6572206973206e6f7420746865206f776e657260448201526064016200077e565b620008468162001e4d565b50565b6033546001600160a01b03163314620008ea576000606e87815481106200088057634e487b7160e01b600052603260045260246000fd5b6000918252602090912001546001600160a01b03169050338114620008e85760405162461bcd60e51b815260206004820152600e60248201527f4e6f742066726f6d207661756c7400000000000000000000000000000000000060448201526064016200077e565b505b670de0b6b3a7640000851115620009375760405162461bcd60e51b815260206004820152601060248201526f21b0b73737ba101f10189032ba3432b960811b60448201526064016200077e565b670de0b6b3a7640000841115620009845760405162461bcd60e51b815260206004820152601060248201526f21b0b73737ba101f10189032ba3432b960811b60448201526064016200077e565b670de0b6b3a7640000831115620009d15760405162461bcd60e51b815260206004820152601060248201526f21b0b73737ba101f10189032ba3432b960811b60448201526064016200077e565b670de0b6b3a764000082111562000a1e5760405162461bcd60e51b815260206004820152601060248201526f21b0b73737ba101f10189032ba3432b960811b60448201526064016200077e565b670de0b6b3a764000081111562000a6b5760405162461bcd60e51b815260206004820152601060248201526f21b0b73737ba101f10189032ba3432b960811b60448201526064016200077e565b6040518060c001604052806001151581526020018667ffffffffffffffff1681526020018567ffffffffffffffff1681526020018467ffffffffffffffff1681526020018367ffffffffffffffff1681526020018267ffffffffffffffff168152506070600088815260200190815260200160002060008201518160000160006101000a81548160ff02191690831515021790555060208201518160000160016101000a81548167ffffffffffffffff021916908367ffffffffffffffff16021790555060408201518160000160096101000a81548167ffffffffffffffff021916908367ffffffffffffffff16021790555060608201518160000160116101000a81548167ffffffffffffffff021916908367ffffffffffffffff16021790555060808201518160010160006101000a81548167ffffffffffffffff021916908367ffffffffffffffff16021790555060a08201518160010160086101000a81548167ffffffffffffffff021916908367ffffffffffffffff1602179055509050507fd9ffbc90281646bcb01af117b3e6cd6ad280ffe01a9b09f6576155b4fa3f45c986868686868660405162000c4b96959493929190958652602086019490945260408501929092526060840152608083015260a082015260c00190565b60405180910390a1505050505050565b6000818152607060209081526040808320815160c081018352815460ff8116158015835267ffffffffffffffff61010083048116968401969096526901000000000000000000820486169483019490945271010000000000000000000000000000000000900484166060820152600190910154808416608083015268010000000000000000900490921660a0830152829182918291829162000d5357806020015167ffffffffffffffff16816040015167ffffffffffffffff16826060015167ffffffffffffffff16836080015167ffffffffffffffff168460a0015167ffffffffffffffff16955095509550955095505062000d92565b505060715460725467ffffffffffffffff808316965068010000000000000000830481169550600160801b830481169450600160c01b90920482169250165b91939590929450565b6033546001600160a01b0316331462000df75760405162461bcd60e51b815260206004820181905260248201527f4f776e61626c653a2063616c6c6572206973206e6f7420746865206f776e657260448201526064016200077e565b6001600160a01b038216600081815260656020908152604091829020805460ff19168515159081179091558251938452908301527fd0b6b573d5442f7c29fd50d9735ae341581c25c6ed07748d50eda519f1ffa88a910160405180910390a15050565b6033546001600160a01b0316331462000eb65760405162461bcd60e51b815260206004820181905260248201527f4f776e61626c653a2063616c6c6572206973206e6f7420746865206f776e657260448201526064016200077e565b604080516001600160a01b038416815282151560208201527f7091fe081ceb2a09a20e86451ff5cba0b3ed3a6fc7fb6557147601a616459035910160405180910390a16001600160a01b03919091166000908152606f60205260409020805460ff1916911515919091179055565b600054610100900460ff168062000f3e575060005460ff16155b62000fa35760405162461bcd60e51b815260206004820152602e60248201527f496e697469616c697a61626c653a20636f6e747261637420697320616c72656160448201526d191e481a5b9a5d1a585b1a5e995960921b60648201526084016200077e565b600054610100900460ff1615801562000fc6576000805461ffff19166101011790555b62000fd062001f0d565b62000fdb836200189f565b62000fe682620017c6565b6200101b67016345785d8a000066b1a2bc2ec5000067016345785d8a000066b1a2bc2ec5000067016345785d8a0000620012cc565b80156200102e576000805461ff00191690555b505050565b6033546001600160a01b031633146200108f5760405162461bcd60e51b815260206004820181905260248201527f4f776e61626c653a2063616c6c6572206973206e6f7420746865206f776e657260448201526064016200077e565b606b54604080516001600160a01b03928316815291831660208301527fdd1b73e02786644d6e9994c9d513f1058320c4ff857e1a76ded4c77f83ab3ea9910160405180910390a1606b80546001600160a01b0319166001600160a01b0392909216919091179055565b6033546001600160a01b03163314620011545760405162461bcd60e51b815260206004820181905260248201527f4f776e61626c653a2063616c6c6572206973206e6f7420746865206f776e657260448201526064016200077e565b6033546040516000916001600160a01b0316907f8be0079c531659141344cd1fd0a4f28419497f9722a3daafe3b4186f6b6457e0908390a3603380546001600160a01b0319169055565b60008181526066602052604090205460ff161580620011c757506033546001600160a01b031633145b620008465760405162461bcd60e51b815260206004820152600660248201527f506175736564000000000000000000000000000000000000000000000000000060448201526064016200077e565b6000606e82815481106200123957634e487b7160e01b600052603260045260246000fd5b6000918252602090912001546001600160a01b031692915050565b6001600160a01b0381166000908152606d6020908152604091829020805483518184028101840190945280845260609392830182828015620012c057602002820191906000526020600020905b81546001600160a01b03168152600190910190602001808311620012a1575b50505050509050919050565b6033546001600160a01b03163314620013285760405162461bcd60e51b815260206004820181905260248201527f4f776e61626c653a2063616c6c6572206973206e6f7420746865206f776e657260448201526064016200077e565b670de0b6b3a7640000851115620013755760405162461bcd60e51b815260206004820152601060248201526f21b0b73737ba101f10189032ba3432b960811b60448201526064016200077e565b670de0b6b3a7640000841115620013c25760405162461bcd60e51b815260206004820152601060248201526f21b0b73737ba101f10189032ba3432b960811b60448201526064016200077e565b670de0b6b3a76400008311156200140f5760405162461bcd60e51b815260206004820152601060248201526f21b0b73737ba101f10189032ba3432b960811b60448201526064016200077e565b670de0b6b3a76400008211156200145c5760405162461bcd60e51b815260206004820152601060248201526f21b0b73737ba101f10189032ba3432b960811b60448201526064016200077e565b670de0b6b3a7640000811115620014a95760405162461bcd60e51b815260206004820152601060248201526f21b0b73737ba101f10189032ba3432b960811b60448201526064016200077e565b6071805467ffffffffffffffff8781166fffffffffffffffffffffffffffffffff19909216919091176801000000000000000087831602176fffffffffffffffffffffffffffffffff16600160801b8683160277ffffffffffffffffffffffffffffffffffffffffffffffff1617600160c01b85831602179091556072805467ffffffffffffffff1916918316919091179055604080518681526020810186905290810184905260608101839052608081018290527f5ece4b6d3e9829ead7e8adb5ab3a10f91b8547a80e9e96264fc5fe012f10937a9060a00160405180910390a15050505050565b6033546001600160a01b0316331462001633576000606e8281548110620015c957634e487b7160e01b600052603260045260246000fd5b6000918252602090912001546001600160a01b03169050338114620016315760405162461bcd60e51b815260206004820152600960248201527f4e6f74207661756c74000000000000000000000000000000000000000000000060448201526064016200077e565b505b6000818152607060205260409081902080547fffffffffffffff0000000000000000000000000000000000000000000000000016815560010180546fffffffffffffffffffffffffffffffff19169055517f52fa46cefef72586d9ef48406d9aa3772833013b97e06ad9bbb4f812b105aa6890620007d49083815260200190565b60715467ffffffffffffffff16158015620016e05750607154600160801b900467ffffffffffffffff16155b6200172e5760405162461bcd60e51b815260206004820152600860248201527f41737369676e656400000000000000000000000000000000000000000000000060448201526064016200077e565b7eb1a2bc2ec50000016345785d8a000000b1a2bc2ec50000016345785d8a00006071556072805467016345785d8a000067ffffffffffffffff1990911681179091556040805182815266b1a2bc2ec500006020820181905281830184905260608201526080810192909252517f5ece4b6d3e9829ead7e8adb5ab3a10f91b8547a80e9e96264fc5fe012f10937a9181900360a00190a1565b6033546001600160a01b03163314620018225760405162461bcd60e51b815260206004820181905260248201527f4f776e61626c653a2063616c6c6572206973206e6f7420746865206f776e657260448201526064016200077e565b6001600160a01b0381166200183657600080fd5b606a54604080516001600160a01b03928316815291831660208301527ff50858c0e53e1daa79884af03c6b676de789362564e7c27ff542914c0b513ea7910160405180910390a1606a80546001600160a01b0319166001600160a01b0392909216919091179055565b600054610100900460ff1680620018b9575060005460ff16155b6200191e5760405162461bcd60e51b815260206004820152602e60248201527f496e697469616c697a61626c653a20636f6e747261637420697320616c72656160448201526d191e481a5b9a5d1a585b1a5e995960921b60648201526084016200077e565b600054610100900460ff1615801562001941576000805461ffff19166101011790555b6200194c8262001e4d565b80156200195f576000805461ff00191690555b5050565b60006200197160006200119e565b606a546001600160a01b0316620019cb5760405162461bcd60e51b815260206004820152601860248201527f4e4654583a2046656520726563656976657220756e736574000000000000000060448201526064016200077e565b6000620019e06067546001600160a01b031690565b6001600160a01b0316141562001a395760405162461bcd60e51b815260206004820181905260248201527f4e4654583a205661756c7420696d706c656d656e746174696f6e20756e73657460448201526064016200077e565b600062001a4a878787878762001fce565b606e80546001600160a01b038881166000908152606d6020908152604080832080546001808201835591855292842090920180548886166001600160a01b0319918216811790925587549384018855969093527f9930d9ff0dee0ef5ca2f7710ea66b8f84dd0f5f5351ecffe72b952cd9db7142a9091018054909516909117909355606a5492517f19d3d2a40000000000000000000000000000000000000000000000000000000081526004810183905293945090929116906319d3d2a490602401600060405180830381600087803b15801562001b2757600080fd5b505af115801562001b3c573d6000803e3d6000fd5b5050604080516001600160a01b0380871682528a1660208201528493507fb94e8fc8ad4a054390a833a774eabcd7c0547c9a62d1fafb5c54dd761c6f0aac92500160405180910390a2979650505050505050565b6033546001600160a01b0316331462001bec5760405162461bcd60e51b815260206004820181905260248201527f4f776e61626c653a2063616c6c6572206973206e6f7420746865206f776e657260448201526064016200077e565b6001600160a01b03811662001c6a5760405162461bcd60e51b815260206004820152602660248201527f4f776e61626c653a206e6577206f776e657220697320746865207a65726f206160448201527f646472657373000000000000000000000000000000000000000000000000000060648201526084016200077e565b6033546040516001600160a01b038084169216907f8be0079c531659141344cd1fd0a4f28419497f9722a3daafe3b4186f6b6457e090600090a3603380546001600160a01b0319166001600160a01b0392909216919091179055565b606e5460009062001cd990600262002797565b905090565b6033546001600160a01b0316331462001d3a5760405162461bcd60e51b815260206004820181905260248201527f4f776e61626c653a2063616c6c6572206973206e6f7420746865206f776e657260448201526064016200077e565b6000818152606660209081526040808320805460ff191690558051848152918201929092527f77f1fcfcce67dc392d64f842056d2ec06c80986c47c910f7e79c5b23a2738d749101620007d4565b6033546001600160a01b0316331462001de45760405162461bcd60e51b815260206004820181905260248201527f4f776e61626c653a2063616c6c6572206973206e6f7420746865206f776e657260448201526064016200077e565b606954604080516001600160a01b03928316815291831660208301527fd15026dcb7cbc5e2eea1bcdb50ace689a683d996a4afc44fc48644ab1eb22540910160405180910390a1606980546001600160a01b0319166001600160a01b0392909216919091179055565b803b62001ec35760405162461bcd60e51b815260206004820152603960248201527f5570677261646561626c65426561636f6e3a206368696c6420696d706c656d6560448201527f6e746174696f6e206973206e6f74206120636f6e74726163740000000000000060648201526084016200077e565b606780546001600160a01b0319166001600160a01b0383169081179091556040517fbc7cd75a20ee27fd9adebab32041f755214dbc6bffa90cc0225b39da2e5c2d3b90600090a250565b600054610100900460ff168062001f27575060005460ff16155b62001f8c5760405162461bcd60e51b815260206004820152602e60248201527f496e697469616c697a61626c653a20636f6e747261637420697320616c72656160448201526d191e481a5b9a5d1a585b1a5e995960921b60648201526084016200077e565b600054610100900460ff1615801562001faf576000805461ffff19166101011790555b62001fb9620021b7565b801562000846576000805461ff001916905550565b6000803060405162001fe0906200241d565b6001600160a01b039091168152604060208201819052600090820152606001604051809103906000f0801580156200201c573d6000803e3d6000fd5b506040517fe78458c40000000000000000000000000000000000000000000000000000000081529091506001600160a01b0382169063e78458c4906200206f908a908a908a908a908a9060040162002745565b600060405180830381600087803b1580156200208a57600080fd5b505af11580156200209f573d6000803e3d6000fd5b50506040517fd0ebdbe70000000000000000000000000000000000000000000000000000000081523360048201526001600160a01b038416925063d0ebdbe79150602401600060405180830381600087803b158015620020fe57600080fd5b505af115801562002113573d6000803e3d6000fd5b50505050806001600160a01b031663f2fde38b620021396033546001600160a01b031690565b6040517fffffffff0000000000000000000000000000000000000000000000000000000060e084901b1681526001600160a01b039091166004820152602401600060405180830381600087803b1580156200219357600080fd5b505af1158015620021a8573d6000803e3d6000fd5b50929998505050505050505050565b600054610100900460ff1680620021d1575060005460ff16155b620022365760405162461bcd60e51b815260206004820152602e60248201527f496e697469616c697a61626c653a20636f6e747261637420697320616c72656160448201526d191e481a5b9a5d1a585b1a5e995960921b60648201526084016200077e565b600054610100900460ff1615801562002259576000805461ffff19166101011790555b620022636200226d565b62001fb962002323565b600054610100900460ff168062002287575060005460ff16155b620022ec5760405162461bcd60e51b815260206004820152602e60248201527f496e697469616c697a61626c653a20636f6e747261637420697320616c72656160448201526d191e481a5b9a5d1a585b1a5e995960921b60648201526084016200077e565b600054610100900460ff1615801562001fb9576000805461ffff1916610101179055801562000846576000805461ff001916905550565b600054610100900460ff16806200233d575060005460ff16155b620023a25760405162461bcd60e51b815260206004820152602e60248201527f496e697469616c697a61626c653a20636f6e747261637420697320616c72656160448201526d191e481a5b9a5d1a585b1a5e995960921b60648201526084016200077e565b600054610100900460ff16158015620023c5576000805461ffff19166101011790555b603380546001600160a01b0319163390811790915560405181906000907f8be0079c531659141344cd1fd0a4f28419497f9722a3daafe3b4186f6b6457e0908290a350801562000846576000805461ff001916905550565b6108fc80620027da83390190565b80356001600160a01b03811681146200244357600080fd5b919050565b803580151581146200244357600080fd5b600082601f8301126200246a578081fd5b813567ffffffffffffffff80821115620024885762002488620027c3565b604051601f8301601f19908116603f01168101908282118183101715620024b357620024b3620027c3565b81604052838152866020858801011115620024cc578485fd5b8360208701602083013792830160200193909352509392505050565b600060208284031215620024fa578081fd5b62002505826200242b565b9392505050565b600080604083850312156200251f578081fd5b6200252a836200242b565b91506200253a602084016200242b565b90509250929050565b6000806040838503121562002556578182fd5b62002561836200242b565b91506200253a6020840162002448565b600080600080600060a0868803121562002589578081fd5b853567ffffffffffffffff80821115620025a1578283fd5b620025af89838a0162002459565b96506020880135915080821115620025c5578283fd5b50620025d48882890162002459565b945050620025e5604087016200242b565b9250620025f56060870162002448565b9150620026056080870162002448565b90509295509295909350565b60006020828403121562002623578081fd5b5035919050565b600080600080600060a0868803121562002642578081fd5b505083359560208501359550604085013594606081013594506080013592509050565b60008060008060008060c087890312156200267e578081fd5b505084359660208601359650604086013595606081013595506080810135945060a0013592509050565b60008151808452815b81811015620026cf57602081850181015186830182015201620026b1565b81811115620026e15782602083870101525b50601f01601f19169290920160200192915050565b6020808252825182820181905260009190848201906040850190845b81811015620027395783516001600160a01b03168352928401929184019160010162002712565b50909695505050505050565b60a0815260006200275a60a0830188620026a8565b82810360208401526200276e8188620026a8565b6001600160a01b0396909616604084015250509115156060830152151560809091015292915050565b6000816000190483118215151615620027be57634e487b7160e01b81526011600452602481fd5b500290565b634e487b7160e01b600052604160045260246000fdfe60806040526040516108fc3803806108fc8339810160408190526100229161041c565b61004d60017fa3f0ad74e5423aebfd80d3ef4346578335a9a72aeaee59ff6cb3582b35133d51610527565b6000805160206108bb8339815191521461007757634e487b7160e01b600052600160045260246000fd5b6100818282610088565b505061058c565b61009b8261024360201b6100291760201c565b6100fa5760405162461bcd60e51b815260206004820152602560248201527f426561636f6e50726f78793a20626561636f6e206973206e6f74206120636f6e6044820152641d1c9858dd60da1b60648201526084015b60405180910390fd5b61017d826001600160a01b031663da5257166040518163ffffffff1660e01b815260040160206040518083038186803b15801561013657600080fd5b505afa15801561014a573d6000803e3d6000fd5b505050506040513d601f19601f8201168201806040525081019061016e9190610402565b61024360201b6100291760201c565b6101ef5760405162461bcd60e51b815260206004820152603460248201527f426561636f6e50726f78793a20626561636f6e20696d706c656d656e7461746960448201527f6f6e206973206e6f74206120636f6e747261637400000000000000000000000060648201526084016100f1565b6000805160206108bb83398151915282815581511561023e5761023c610213610249565b836040518060600160405280602181526020016108db602191396102d660201b61002f1760201c565b505b505050565b3b151590565b60006102616000805160206108bb8339815191525490565b6001600160a01b031663da5257166040518163ffffffff1660e01b815260040160206040518083038186803b15801561029957600080fd5b505afa1580156102ad573d6000803e3d6000fd5b505050506040513d601f19601f820116820180604052508101906102d19190610402565b905090565b6060833b6103355760405162461bcd60e51b815260206004820152602660248201527f416464726573733a2064656c65676174652063616c6c20746f206e6f6e2d636f6044820152651b9d1c9858dd60d21b60648201526084016100f1565b600080856001600160a01b03168560405161035091906104d8565b600060405180830381855af49150503d806000811461038b576040519150601f19603f3d011682016040523d82523d6000602084013e610390565b606091505b5090925090506103a18282866103ad565b925050505b9392505050565b606083156103bc5750816103a6565b8251156103cc5782518084602001fd5b8160405162461bcd60e51b81526004016100f191906104f4565b80516001600160a01b03811681146103fd57600080fd5b919050565b600060208284031215610413578081fd5b6103a6826103e6565b6000806040838503121561042e578081fd5b610437836103e6565b60208401519092506001600160401b0380821115610453578283fd5b818501915085601f830112610466578283fd5b81518181111561047857610478610576565b604051601f8201601f19908116603f011681019083821181831017156104a0576104a0610576565b816040528281528860208487010111156104b8578586fd5b6104c983602083016020880161054a565b80955050505050509250929050565b600082516104ea81846020870161054a565b9190910192915050565b602081526000825180602084015261051381604085016020870161054a565b601f01601f19169190910160400192915050565b60008282101561054557634e487b7160e01b81526011600452602481fd5b500390565b60005b8381101561056557818101518382015260200161054d565b8381111561023c5750506000910152565b634e487b7160e01b600052604160045260246000fd5b6103208061059b6000396000f3fe60806040523661001357610011610017565b005b6100115b61002761002261012e565b6101da565b565b3b151590565b6060833b6100aa5760405162461bcd60e51b815260206004820152602660248201527f416464726573733a2064656c65676174652063616c6c20746f206e6f6e2d636f60448201527f6e7472616374000000000000000000000000000000000000000000000000000060648201526084015b60405180910390fd5b6000808573ffffffffffffffffffffffffffffffffffffffff16856040516100d2919061026b565b600060405180830381855af49150503d806000811461010d576040519150601f19603f3d011682016040523d82523d6000602084013e610112565b606091505b50915091506101228282866101fe565b925050505b9392505050565b60006101587fa3f0ad74e5423aebfd80d3ef4346578335a9a72aeaee59ff6cb3582b35133d505490565b73ffffffffffffffffffffffffffffffffffffffff1663da5257166040518163ffffffff1660e01b815260040160206040518083038186803b15801561019d57600080fd5b505afa1580156101b1573d6000803e3d6000fd5b505050506040513d601f19601f820116820180604052508101906101d59190610237565b905090565b3660008037600080366000845af43d6000803e8080156101f9573d6000f35b3d6000fd5b6060831561020d575081610127565b82511561021d5782518084602001fd5b8160405162461bcd60e51b81526004016100a19190610287565b600060208284031215610248578081fd5b815173ffffffffffffffffffffffffffffffffffffffff81168114610127578182fd5b6000825161027d8184602087016102ba565b9190910192915050565b60208152600082518060208401526102a68160408501602087016102ba565b601f01601f19169190910160400192915050565b60005b838110156102d55781810151838201526020016102bd565b838111156102e4576000848401525b5050505056fea2646970667358221220d6fb37f385edf477bb5b2cb6b07ef086b11922b44c01e7e13c94e97c64d067c064736f6c63430008040033a3f0ad74e5423aebfd80d3ef4346578335a9a72aeaee59ff6cb3582b35133d50426561636f6e50726f78793a2066756e6374696f6e2063616c6c206661696c6564a26469706673582212205804795801abb53a86b89327d9e1543f84d6fc05acd618fb120a4481e33dd22864736f6c63430008040033",
  "linkReferences": {},
  "deployedLinkReferences": {}
}