{
  "_format": "hh-sol-artifact-1",
  "contractName": "DemandMinerV2",
  "sourceName": "contracts/liquidityMining/v2/DemandMinerV2.sol",
  "abi": [
    {
      "inputs": [
        {
          "internalType": "contract IGovernanceAddressProvider",
          "name": "_addresses",
          "type": "address"
        },
        {
          "internalType": "contract IERC20",
          "name": "token",
          "type": "address"
        },
        {
          "internalType": "address",
          "name": "feeCollector",
          "type": "address"
        },
        {
          "components": [
            {
              "internalType": "uint256",
              "name": "a",
              "type": "uint256"
            },
            {
              "internalType": "uint256",
              "name": "b",
              "type": "uint256"
            },
            {
              "internalType": "uint256",
              "name": "c",
              "type": "uint256"
            },
            {
              "internalType": "uint256",
              "name": "d",
              "type": "uint256"
            },
            {
              "internalType": "uint256",
              "name": "e",
              "type": "uint256"
            },
            {
              "internalType": "uint256",
              "name": "maxBoost",
              "type": "uint256"
            }
          ],
          "internalType": "struct IGenericMinerV2.BoostConfig",
          "name": "_boostConfig",
          "type": "tuple"
        },
        {
          "components": [
            {
              "internalType": "uint256",
              "name": "depositFee",
              "type": "uint256"
            },
            {
              "internalType": "uint256",
              "name": "withdrawFee",
              "type": "uint256"
            }
          ],
          "internalType": "struct IDemandMinerV2.FeeConfig",
          "name": "feeConfig",
          "type": "tuple"
        }
      ],
      "stateMutability": "nonpayable",
      "type": "constructor"
    },
    {
      "anonymous": false,
      "inputs": [
        {
          "components": [
            {
              "internalType": "uint256",
              "name": "a",
              "type": "uint256"
            },
            {
              "internalType": "uint256",
              "name": "b",
              "type": "uint256"
            },
            {
              "internalType": "uint256",
              "name": "c",
              "type": "uint256"
            },
            {
              "internalType": "uint256",
              "name": "d",
              "type": "uint256"
            },
            {
              "internalType": "uint256",
              "name": "e",
              "type": "uint256"
            },
            {
              "internalType": "uint256",
              "name": "maxBoost",
              "type": "uint256"
            }
          ],
          "indexed": false,
          "internalType": "struct IGenericMinerV2.BoostConfig",
          "name": "",
          "type": "tuple"
        }
      ],
      "name": "BoostConfigSet",
      "type": "event"
    },
    {
      "anonymous": false,
      "inputs": [
        {
          "indexed": false,
          "internalType": "uint256",
          "name": "income",
          "type": "uint256"
        }
      ],
      "name": "DepositFeeReleased",
      "type": "event"
    },
    {
      "anonymous": false,
      "inputs": [
        {
          "indexed": false,
          "internalType": "address",
          "name": "feeCollector",
          "type": "address"
        }
      ],
      "name": "FeeCollectorSet",
      "type": "event"
    },
    {
      "anonymous": false,
      "inputs": [
        {
          "components": [
            {
              "internalType": "uint256",
              "name": "depositFee",
              "type": "uint256"
            },
            {
              "internalType": "uint256",
              "name": "withdrawFee",
              "type": "uint256"
            }
          ],
          "indexed": false,
          "internalType": "struct IDemandMinerV2.FeeConfig",
          "name": "",
          "type": "tuple"
        }
      ],
      "name": "FeeConfigSet",
      "type": "event"
    },
    {
      "anonymous": false,
      "inputs": [
        {
          "indexed": true,
          "internalType": "address",
          "name": "user",
          "type": "address"
        },
        {
          "indexed": false,
          "internalType": "uint256",
          "name": "stake",
          "type": "uint256"
        }
      ],
      "name": "StakeDecreased",
      "type": "event"
    },
    {
      "anonymous": false,
      "inputs": [
        {
          "indexed": true,
          "internalType": "address",
          "name": "user",
          "type": "address"
        },
        {
          "indexed": false,
          "internalType": "uint256",
          "name": "stake",
          "type": "uint256"
        }
      ],
      "name": "StakeIncreased",
      "type": "event"
    },
    {
      "anonymous": false,
      "inputs": [
        {
          "indexed": false,
          "internalType": "uint256",
          "name": "income",
          "type": "uint256"
        }
      ],
      "name": "WithdrawFeeReleased",
      "type": "event"
    },
    {
      "inputs": [],
      "name": "a",
      "outputs": [
        {
          "internalType": "contract IGovernanceAddressProvider",
          "name": "",
          "type": "address"
        }
      ],
      "stateMutability": "view",
      "type": "function"
    },
    {
      "inputs": [],
      "name": "boostConfig",
      "outputs": [
        {
          "components": [
            {
              "internalType": "uint256",
              "name": "a",
              "type": "uint256"
            },
            {
              "internalType": "uint256",
              "name": "b",
              "type": "uint256"
            },
            {
              "internalType": "uint256",
              "name": "c",
              "type": "uint256"
            },
            {
              "internalType": "uint256",
              "name": "d",
              "type": "uint256"
            },
            {
              "internalType": "uint256",
              "name": "e",
              "type": "uint256"
            },
            {
              "internalType": "uint256",
              "name": "maxBoost",
              "type": "uint256"
            }
          ],
          "internalType": "struct IGenericMinerV2.BoostConfig",
          "name": "",
          "type": "tuple"
        }
      ],
      "stateMutability": "view",
      "type": "function"
    },
    {
      "inputs": [
        {
          "internalType": "uint256",
          "name": "amount",
          "type": "uint256"
        }
      ],
      "name": "deposit",
      "outputs": [],
      "stateMutability": "nonpayable",
      "type": "function"
    },
    {
      "inputs": [],
      "name": "feeCollector",
      "outputs": [
        {
          "internalType": "address",
          "name": "",
          "type": "address"
        }
      ],
      "stateMutability": "view",
      "type": "function"
    },
    {
      "inputs": [],
      "name": "feeConfig",
      "outputs": [
        {
          "components": [
            {
              "internalType": "uint256",
              "name": "depositFee",
              "type": "uint256"
            },
            {
              "internalType": "uint256",
              "name": "withdrawFee",
              "type": "uint256"
            }
          ],
          "internalType": "struct IDemandMinerV2.FeeConfig",
          "name": "",
          "type": "tuple"
        }
      ],
      "stateMutability": "view",
      "type": "function"
    },
    {
      "inputs": [],
      "name": "par",
      "outputs": [
        {
          "internalType": "contract IERC20",
          "name": "",
          "type": "address"
        }
      ],
      "stateMutability": "view",
      "type": "function"
    },
    {
      "inputs": [
        {
          "internalType": "address",
          "name": "_user",
          "type": "address"
        }
      ],
      "name": "pendingMIMO",
      "outputs": [
        {
          "internalType": "uint256",
          "name": "",
          "type": "uint256"
        }
      ],
      "stateMutability": "view",
      "type": "function"
    },
    {
      "inputs": [
        {
          "internalType": "address",
          "name": "_user",
          "type": "address"
        }
      ],
      "name": "pendingPAR",
      "outputs": [
        {
          "internalType": "uint256",
          "name": "",
          "type": "uint256"
        }
      ],
      "stateMutability": "view",
      "type": "function"
    },
    {
      "inputs": [
        {
          "internalType": "address",
          "name": "_user",
          "type": "address"
        }
      ],
      "name": "releaseRewards",
      "outputs": [],
      "stateMutability": "nonpayable",
      "type": "function"
    },
    {
      "inputs": [
        {
          "components": [
            {
              "internalType": "uint256",
              "name": "a",
              "type": "uint256"
            },
            {
              "internalType": "uint256",
              "name": "b",
              "type": "uint256"
            },
            {
              "internalType": "uint256",
              "name": "c",
              "type": "uint256"
            },
            {
              "internalType": "uint256",
              "name": "d",
              "type": "uint256"
            },
            {
              "internalType": "uint256",
              "name": "e",
              "type": "uint256"
            },
            {
              "internalType": "uint256",
              "name": "maxBoost",
              "type": "uint256"
            }
          ],
          "internalType": "struct IGenericMinerV2.BoostConfig",
          "name": "newBoostConfig",
          "type": "tuple"
        }
      ],
      "name": "setBoostConfig",
      "outputs": [],
      "stateMutability": "nonpayable",
      "type": "function"
    },
    {
      "inputs": [
        {
          "internalType": "address",
          "name": "feeCollector",
          "type": "address"
        }
      ],
      "name": "setFeeCollector",
      "outputs": [],
      "stateMutability": "nonpayable",
      "type": "function"
    },
    {
      "inputs": [
        {
          "components": [
            {
              "internalType": "uint256",
              "name": "depositFee",
              "type": "uint256"
            },
            {
              "internalType": "uint256",
              "name": "withdrawFee",
              "type": "uint256"
            }
          ],
          "internalType": "struct IDemandMinerV2.FeeConfig",
          "name": "newFeeConfig",
          "type": "tuple"
        }
      ],
      "name": "setFeeConfig",
      "outputs": [],
      "stateMutability": "nonpayable",
      "type": "function"
    },
    {
      "inputs": [
        {
          "internalType": "address",
          "name": "_user",
          "type": "address"
        }
      ],
      "name": "stake",
      "outputs": [
        {
          "internalType": "uint256",
          "name": "",
          "type": "uint256"
        }
      ],
      "stateMutability": "view",
      "type": "function"
    },
    {
      "inputs": [
        {
          "internalType": "address",
          "name": "_user",
          "type": "address"
        }
      ],
      "name": "stakeWithBoost",
      "outputs": [
        {
          "internalType": "uint256",
          "name": "",
          "type": "uint256"
        }
      ],
      "stateMutability": "view",
      "type": "function"
    },
    {
      "inputs": [],
      "name": "token",
      "outputs": [
        {
          "internalType": "contract IERC20",
          "name": "",
          "type": "address"
        }
      ],
      "stateMutability": "view",
      "type": "function"
    },
    {
      "inputs": [],
      "name": "totalStake",
      "outputs": [
        {
          "internalType": "uint256",
          "name": "",
          "type": "uint256"
        }
      ],
      "stateMutability": "view",
      "type": "function"
    },
    {
      "inputs": [],
      "name": "totalStakeWithBoost",
      "outputs": [
        {
          "internalType": "uint256",
          "name": "",
          "type": "uint256"
        }
      ],
      "stateMutability": "view",
      "type": "function"
    },
    {
      "inputs": [
        {
          "internalType": "address",
          "name": "_user",
          "type": "address"
        }
      ],
      "name": "updateBoost",
      "outputs": [],
      "stateMutability": "nonpayable",
      "type": "function"
    },
    {
      "inputs": [
        {
          "internalType": "address",
          "name": "_user",
          "type": "address"
        }
      ],
      "name": "userInfo",
      "outputs": [
        {
          "components": [
            {
              "internalType": "uint256",
              "name": "stake",
              "type": "uint256"
            },
            {
              "internalType": "uint256",
              "name": "stakeWithBoost",
              "type": "uint256"
            },
            {
              "internalType": "uint256",
              "name": "accAmountPerShare",
              "type": "uint256"
            },
            {
              "internalType": "uint256",
              "name": "accParAmountPerShare",
              "type": "uint256"
            }
          ],
          "internalType": "struct IGenericMinerV2.UserInfo",
          "name": "",
          "type": "tuple"
        }
      ],
      "stateMutability": "view",
      "type": "function"
    },
    {
      "inputs": [
        {
          "internalType": "uint256",
          "name": "amount",
          "type": "uint256"
        }
      ],
      "name": "withdraw",
      "outputs": [],
      "stateMutability": "nonpayable",
      "type": "function"
    }
  ],
  "bytecode": "0x60e06040523480156200001157600080fd5b5060405162003bc638038062003bc683398101604081905262000034916200043b565b84826001600160a01b038216620000685760405162461bcd60e51b81526004016200005f9062000517565b60405180910390fd5b816001600160a01b031660a0816001600160a01b031660601b81525050816001600160a01b0316633df06b596040518163ffffffff1660e01b815260040160206040518083038186803b158015620000bf57600080fd5b505afa158015620000d4573d6000803e3d6000fd5b505050506040513d601f19601f82011682018060405250810190620000fa919062000415565b6001600160a01b03166316d8a5a96040518163ffffffff1660e01b815260040160206040518083038186803b1580156200013357600080fd5b505afa15801562000148573d6000803e3d6000fd5b505050506040513d601f19601f820116820180604052508101906200016e919062000415565b60601b6001600160601b031916608052805160011180159062000195575060008160600151115b8015620001a7575060018160a0015110155b620001c65760405162461bcd60e51b81526004016200005f9062000536565b8051600090815560208201516001556040808301516002556060830151600355608083015160045560a0830151600555517fdea57d5dd436931497612044567596798f2599acfc00861392dd6c8466c8e6f191620002249162000574565b60405180910390a150506001600160a01b038416620002575760405162461bcd60e51b81526004016200005f9062000517565b846001600160a01b0316636d9b18236040518163ffffffff1660e01b815260040160206040518083038186803b1580156200029157600080fd5b505afa158015620002a6573d6000803e3d6000fd5b505050506040513d601f19601f82011682018060405250810190620002cc919062000415565b6001600160a01b0316846001600160a01b03161415620003005760405162461bcd60e51b81526004016200005f9062000555565b6001600160a01b038316620003295760405162461bcd60e51b81526004016200005f9062000517565b606084901b6001600160601b03191660c052600d80546001600160a01b0319166001600160a01b0385161790558051600e556020810151600f556040517f12e1d17016b94668449f97876f4a8d5cc2c19f314db337418894734037cc19d4906200039590859062000503565b60405180910390a17f4374922e3ab77f3313bfc54e03a46a0bc4f5c8deff6d7b7ae8c31b624a6d3ce481604051620003ce9190620005b1565b60405180910390a1505050505062000608565b600060408284031215620003f3578081fd5b620003ff6040620005c8565b9050815181526020820151602082015292915050565b60006020828403121562000427578081fd5b81516200043481620005ef565b9392505050565b600080600080600085870361016081121562000455578182fd5b86516200046281620005ef565b60208801519096506200047581620005ef565b60408801519095506200048881620005ef565b935060c0605f19820112156200049c578182fd5b50620004a960c0620005c8565b606087015181526080870151602082015260a0870151604082015260c0870151606082015260e0870151608082015261010087015160a082015280925050620004f7876101208801620003e1565b90509295509295909350565b6001600160a01b0391909116815260200190565b60208082526005908201526404c4d3030360dc1b604082015260600190565b60208082526005908201526413134c0c0d60da1b604082015260600190565b6020808252600590820152644c4d30303160d81b604082015260600190565b815481526001820154602082015260028201546040820152600382015460608201526004820154608082015260059091015460a082015260c00190565b815181526020918201519181019190915260400190565b6040518181016001600160401b0381118282101715620005e757600080fd5b604052919050565b6001600160a01b03811681146200060557600080fd5b50565b60805160601c60a05160601c60c05160601c61353362000693600039806106f352806107625280610cbe5280610d2152806111b05250806102a352806102c752806103d652806109005280610a0f5280610e075280610f16528061141352806116af5280611b495280611d68525080610799528061155a52806118465280611c5952506135336000f3fe608060405234801561001057600080fd5b506004361061012c5760003560e01c8063a3898c07116100ad578063c415b95c11610071578063c415b95c14610261578063cf27596714610269578063d76da20c1461027e578063f5989e7714610286578063fc0c546a146102995761012c565b8063a3898c0714610202578063a42dce8014610215578063a91ea1ba14610228578063b6b55f251461023b578063be3473551461024e5761012c565b80632e1a7d4d116100f45780632e1a7d4d146101b9578063495d32cb146101cc578063610edec2146101d45780637c284c0a146101e75780638b0e9f3f146101fa5761012c565b80630dbe671f146101315780630e1fbe5f1461014f5780631959a002146101645780631e5eb1d0146101845780632647620414610199575b600080fd5b6101396102a1565b60405161014691906130c4565b60405180910390f35b61016261015d36600461305d565b6102c5565b005b610177610172366004612f92565b610620565b604051610146919061345e565b61018c61067a565b6040516101469190613447565b6101ac6101a7366004612f92565b61069d565b6040516101469190613489565b6101626101c7366004613090565b6106b8565b610139610797565b6101626101e2366004612f92565b6107bb565b6101ac6101f5366004612f92565b610833565b6101ac610899565b6101ac610210366004612f92565b61089f565b610162610223366004612f92565b6108fe565b610162610236366004612f92565b610c53565b610162610249366004613090565b610cb1565b6101ac61025c366004612f92565b610d8d565b610139610dab565b610271610dba565b60405161014691906133c6565b6101ac610dff565b610162610294366004613002565b610e05565b6101396111ae565b7f000000000000000000000000000000000000000000000000000000000000000090565b7f00000000000000000000000000000000000000000000000000000000000000006001600160a01b0316633df06b596040518163ffffffff1660e01b815260040160206040518083038186803b15801561031e57600080fd5b505afa158015610332573d6000803e3d6000fd5b505050506040513d601f19601f820116820180604052508101906103569190612fe6565b6001600160a01b031663f77c47916040518163ffffffff1660e01b815260040160206040518083038186803b15801561038e57600080fd5b505afa1580156103a2573d6000803e3d6000fd5b505050506040513d601f19601f820116820180604052508101906103c69190612fe6565b6001600160a01b03166391d148547f00000000000000000000000000000000000000000000000000000000000000006001600160a01b0316633df06b596040518163ffffffff1660e01b815260040160206040518083038186803b15801561042d57600080fd5b505afa158015610441573d6000803e3d6000fd5b505050506040513d601f19601f820116820180604052508101906104659190612fe6565b6001600160a01b031663f77c47916040518163ffffffff1660e01b815260040160206040518083038186803b15801561049d57600080fd5b505afa1580156104b1573d6000803e3d6000fd5b505050506040513d601f19601f820116820180604052508101906104d59190612fe6565b6001600160a01b031663ec87621c6040518163ffffffff1660e01b815260040160206040518083038186803b15801561050d57600080fd5b505afa158015610521573d6000803e3d6000fd5b505050506040513d601f19601f820116820180604052508101906105459190612fce565b336040518363ffffffff1660e01b8152600401610563929190613115565b60206040518083038186803b15801561057b57600080fd5b505afa15801561058f573d6000803e3d6000fd5b505050506040513d601f19601f820116820180604052508101906105b39190612fae565b6105d85760405162461bcd60e51b81526004016105cf90613388565b60405180910390fd5b8051600e556020810151600f556040517f4374922e3ab77f3313bfc54e03a46a0bc4f5c8deff6d7b7ae8c31b624a6d3ce490610615908390613447565b60405180910390a150565b610628612f1a565b506001600160a01b03811660009081526006602090815260409182902082516080810184528154815260018201549281019290925260028101549282019290925260039091015460608201525b919050565b610682612f42565b5060408051808201909152600e548152600f54602082015290565b6001600160a01b031660009081526006602052604090205490565b600f5481901561075557600f546000906106d39084906111d2565b90506106df828261120f565b600d5490925061071c906001600160a01b037f00000000000000000000000000000000000000000000000000000000000000008116911683611237565b7fb47887c2881056554bd7f0376f2e66cef037eb7d76529176437b1101beba11cb8160405161074b9190613489565b60405180910390a1505b6107896001600160a01b037f0000000000000000000000000000000000000000000000000000000000000000163383611237565b6107933383611292565b5050565b7f000000000000000000000000000000000000000000000000000000000000000090565b6107c3612f1a565b506001600160a01b038116600090815260066020908152604091829020825160808101845281548152600182015492810192909252600281015492820192909252600390910154606082015261081982826113ac565b600a546040820152600c5460608201526107938282611605565b600061083d612f1a565b506001600160a01b038216600090815260066020908152604091829020825160808101845281548152600182015492810183905260028201549381018490526003909101546060820152916108929190611696565b9392505050565b60075490565b60006108a9612f1a565b506001600160a01b038216600090815260066020908152604091829020825160808101845281548152600182015492810183905260028201549381019390935260030154606083018190526108929190611817565b7f00000000000000000000000000000000000000000000000000000000000000006001600160a01b0316633df06b596040518163ffffffff1660e01b815260040160206040518083038186803b15801561095757600080fd5b505afa15801561096b573d6000803e3d6000fd5b505050506040513d601f19601f8201168201806040525081019061098f9190612fe6565b6001600160a01b031663f77c47916040518163ffffffff1660e01b815260040160206040518083038186803b1580156109c757600080fd5b505afa1580156109db573d6000803e3d6000fd5b505050506040513d601f19601f820116820180604052508101906109ff9190612fe6565b6001600160a01b03166391d148547f00000000000000000000000000000000000000000000000000000000000000006001600160a01b0316633df06b596040518163ffffffff1660e01b815260040160206040518083038186803b158015610a6657600080fd5b505afa158015610a7a573d6000803e3d6000fd5b505050506040513d601f19601f82011682018060405250810190610a9e9190612fe6565b6001600160a01b031663f77c47916040518163ffffffff1660e01b815260040160206040518083038186803b158015610ad657600080fd5b505afa158015610aea573d6000803e3d6000fd5b505050506040513d601f19601f82011682018060405250810190610b0e9190612fe6565b6001600160a01b031663ec87621c6040518163ffffffff1660e01b815260040160206040518083038186803b158015610b4657600080fd5b505afa158015610b5a573d6000803e3d6000fd5b505050506040513d601f19601f82011682018060405250810190610b7e9190612fce565b336040518363ffffffff1660e01b8152600401610b9c929190613115565b60206040518083038186803b158015610bb457600080fd5b505afa158015610bc8573d6000803e3d6000fd5b505050506040513d601f19601f82011682018060405250810190610bec9190612fae565b610c085760405162461bcd60e51b81526004016105cf90613388565b600d80546001600160a01b0319166001600160a01b0383161790556040517f12e1d17016b94668449f97876f4a8d5cc2c19f314db337418894734037cc19d4906106159083906130c4565b610c5b612f1a565b506001600160a01b03811660009081526006602090815260409182902082516080810184528154815260018201549281019290925260028101549282019290925260039091015460608201526107938282611605565b610ce66001600160a01b037f000000000000000000000000000000000000000000000000000000000000000016333084611909565b600e54819015610d8357600e54600090610d019084906111d2565b9050610d0d828261120f565b600d54909250610d4a906001600160a01b037f00000000000000000000000000000000000000000000000000000000000000008116911683611237565b7f7bc991c3a16c94306417b73ca7b635346c7c731468cff6340aceacd9fed70ccb81604051610d799190613489565b60405180910390a1505b610793338261192a565b6001600160a01b031660009081526006602052604090206001015490565b600d546001600160a01b031690565b610dc2612f5c565b506040805160c08101825260005481526001546020820152600254918101919091526003546060820152600454608082015260055460a082015290565b60085490565b7f00000000000000000000000000000000000000000000000000000000000000006001600160a01b0316633df06b596040518163ffffffff1660e01b815260040160206040518083038186803b158015610e5e57600080fd5b505afa158015610e72573d6000803e3d6000fd5b505050506040513d601f19601f82011682018060405250810190610e969190612fe6565b6001600160a01b031663f77c47916040518163ffffffff1660e01b815260040160206040518083038186803b158015610ece57600080fd5b505afa158015610ee2573d6000803e3d6000fd5b505050506040513d601f19601f82011682018060405250810190610f069190612fe6565b6001600160a01b03166391d148547f00000000000000000000000000000000000000000000000000000000000000006001600160a01b0316633df06b596040518163ffffffff1660e01b815260040160206040518083038186803b158015610f6d57600080fd5b505afa158015610f81573d6000803e3d6000fd5b505050506040513d601f19601f82011682018060405250810190610fa59190612fe6565b6001600160a01b031663f77c47916040518163ffffffff1660e01b815260040160206040518083038186803b158015610fdd57600080fd5b505afa158015610ff1573d6000803e3d6000fd5b505050506040513d601f19601f820116820180604052508101906110159190612fe6565b6001600160a01b031663ec87621c6040518163ffffffff1660e01b815260040160206040518083038186803b15801561104d57600080fd5b505afa158015611061573d6000803e3d6000fd5b505050506040513d601f19601f820116820180604052508101906110859190612fce565b336040518363ffffffff1660e01b81526004016110a3929190613115565b60206040518083038186803b1580156110bb57600080fd5b505afa1580156110cf573d6000803e3d6000fd5b505050506040513d601f19601f820116820180604052508101906110f39190612fae565b61110f5760405162461bcd60e51b81526004016105cf90613388565b8051600111801590611125575060008160600151115b8015611136575060018160a0015110155b6111525760405162461bcd60e51b81526004016105cf90613288565b8051600090815560208201516001556040808301516002556060830151600355608083015160045560a0830151600555517fdea57d5dd436931497612044567596798f2599acfc00861392dd6c8466c8e6f1916106159161340a565b7f000000000000000000000000000000000000000000000000000000000000000090565b6000611206670de0b6b3a76400006112006111ed8686611a19565b6002670de0b6b3a76400005b0490611a53565b90611a78565b90505b92915050565b6000828211156112315760405162461bcd60e51b81526004016105cf906131b5565b50900390565b61128d8363a9059cbb60e01b84846040516024016112569291906130fc565b60408051601f198184030181529190526020810180516001600160e01b03166001600160e01b031990931692909217909152611aaa565b505050565b600081116112b25760405162461bcd60e51b81526004016105cf90613196565b6112ba612f1a565b506001600160a01b038216600090815260066020908152604091829020825160808101845281548082526001830154938201939093526002820154938101939093526003015460608301528211156113245760405162461bcd60e51b81526004016105cf90613269565b61132e83826113ac565b60075461133b908361120f565b600755805161134a908361120f565b8152600a546040820152600c5460608201526113668382611605565b826001600160a01b03167f700865370ffb2a65a2b0242e6a64b21ac907ed5ecd46c9cffc729c177b2b1c698360405161139f9190613489565b60405180910390a2505050565b60006113c082602001518360400151611696565b905060006113d683602001518460600151611817565b90506113e0611b39565b60208301511561140b576009546113f7908361120f565b600955600b54611407908261120f565b600b555b811561153d577f00000000000000000000000000000000000000000000000000000000000000006001600160a01b0316636d9b18236040518163ffffffff1660e01b815260040160206040518083038186803b15801561146a57600080fd5b505afa15801561147e573d6000803e3d6000fd5b505050506040513d601f19601f820116820180604052508101906114a29190612fe6565b6001600160a01b031663a9059cbb85846040518363ffffffff1660e01b81526004016114cf9291906130fc565b602060405180830381600087803b1580156114e957600080fd5b505af11580156114fd573d6000803e3d6000fd5b505050506040513d601f19601f820116820180604052508101906115219190612fae565b61153d5760405162461bcd60e51b81526004016105cf90613369565b80156115ff5760405163a9059cbb60e01b81526001600160a01b037f0000000000000000000000000000000000000000000000000000000000000000169063a9059cbb9061159190879085906004016130fc565b602060405180830381600087803b1580156115ab57600080fd5b505af11580156115bf573d6000803e3d6000fd5b505050506040513d601f19601f820116820180604052508101906115e39190612fae565b6115ff5760405162461bcd60e51b81526004016105cf90613369565b50505050565b6020810151156116245760208101516008546116209161120f565b6008555b600061162f83611d63565b825190915061163e90826111d2565b6020830181905260085461165191611a53565b600855506001600160a01b0390911660009081526006602090815260409182902083518155908301516001820155908201516002820155606090910151600390910155565b6000600854600014156116ab57506000611209565b60007f00000000000000000000000000000000000000000000000000000000000000006001600160a01b0316636d9b18236040518163ffffffff1660e01b815260040160206040518083038186803b15801561170657600080fd5b505afa15801561171a573d6000803e3d6000fd5b505050506040513d601f19601f8201168201806040525081019061173e9190612fe6565b6001600160a01b03166370a08231306040518263ffffffff1660e01b815260040161176991906130c4565b60206040518083038186803b15801561178157600080fd5b505afa158015611795573d6000803e3d6000fd5b505050506040513d601f19601f820116820180604052508101906117b99190612fce565b905060006117d26009548361120f90919063ffffffff16565b905060006117f76117ee60085484611fcc90919063ffffffff16565b600a5490611a53565b905061180d611806828761120f565b8790611ffe565b9695505050505050565b60006008546000141561182c57506000611209565b6040516370a0823160e01b81526000906001600160a01b037f000000000000000000000000000000000000000000000000000000000000000016906370a082319061187b9030906004016130c4565b60206040518083038186803b15801561189357600080fd5b505afa1580156118a7573d6000803e3d6000fd5b505050506040513d601f19601f820116820180604052508101906118cb9190612fce565b905060006118e4600b548361120f90919063ffffffff16565b905060006117f761190060085484611fcc90919063ffffffff16565b600c5490611a53565b6115ff846323b872dd60e01b858585604051602401611256939291906130d8565b6000811161194a5760405162461bcd60e51b81526004016105cf90613196565b611952612f1a565b506001600160a01b03821660009081526006602090815260409182902082516080810184528154815260018201549281019290925260028101549282019290925260039091015460608201526119a883826113ac565b6007546119b59083611a53565b60075580516119c49083611a53565b8152600a546040820152600c5460608201526119e08382611605565b826001600160a01b03167f8b0ed825817a2e696c9a931715af4609fc60e1701f09c89ee7645130e937eb2d8360405161139f9190613489565b600082611a2857506000611209565b82820282848281611a3557fe5b04146112065760405162461bcd60e51b81526004016105cf906132a7565b6000828201838110156112065760405162461bcd60e51b81526004016105cf9061315f565b6000808211611a995760405162461bcd60e51b81526004016105cf90613232565b818381611aa257fe5b049392505050565b6060611aff826040518060400160405280602081526020017f5361666545524332303a206c6f772d6c6576656c2063616c6c206661696c6564815250856001600160a01b03166120319092919063ffffffff16565b80519091501561128d5780806020019051810190611b1d9190612fae565b61128d5760405162461bcd60e51b81526004016105cf9061331f565b600754611b4557611d61565b60007f00000000000000000000000000000000000000000000000000000000000000006001600160a01b0316636d9b18236040518163ffffffff1660e01b815260040160206040518083038186803b158015611ba057600080fd5b505afa158015611bb4573d6000803e3d6000fd5b505050506040513d601f19601f82011682018060405250810190611bd89190612fe6565b6001600160a01b03166370a08231306040518263ffffffff1660e01b8152600401611c0391906130c4565b60206040518083038186803b158015611c1b57600080fd5b505afa158015611c2f573d6000803e3d6000fd5b505050506040513d601f19601f82011682018060405250810190611c539190612fce565b905060007f00000000000000000000000000000000000000000000000000000000000000006001600160a01b03166370a08231306040518263ffffffff1660e01b8152600401611ca391906130c4565b60206040518083038186803b158015611cbb57600080fd5b505afa158015611ccf573d6000803e3d6000fd5b505050506040513d601f19601f82011682018060405250810190611cf39190612fce565b90506000611d0c6009548461120f90919063ffffffff16565b90506000611d25600b548461120f90919063ffffffff16565b6009859055600854909150611d3f906117ee908490611fcc565b600a55600b839055600854611d5990611900908390611fcc565b600c55505050505b565b6000807f00000000000000000000000000000000000000000000000000000000000000006001600160a01b0316634f2bfe5b6040518163ffffffff1660e01b815260040160206040518083038186803b158015611dbf57600080fd5b505afa158015611dd3573d6000803e3d6000fd5b505050506040513d601f19601f82011682018060405250810190611df79190612fe6565b6001600160a01b03166370a08231846040518263ffffffff1660e01b8152600401611e2291906130c4565b60206040518083038186803b158015611e3a57600080fd5b505afa158015611e4e573d6000803e3d6000fd5b505050506040513d601f19601f82011682018060405250810190611e729190612fce565b905080611e8a57670de0b6b3a7640000915050610675565b60008054611e9790612040565b90506000611ea9600060010154612040565b90506000611ebb600060020154612040565b90506000611ecd600060040154612040565b90506000611ee2670de0b6b3a7640000612040565b600354909150600090611ef690889061205e565b90506000611f08600f83900b85612095565b90506000611f1882600f0b6120c9565b90506000611f2882600f0b6120eb565b90506000611f3a600f83900b89612140565b90506000611f598b611f50600f8d900b85612173565b600f0b90612140565b90506000611f76611f6e600f84900b8a6121c5565b600f0b6121fb565b905067ffffffffffffffff8116670de0b6b3a76400008110801590611f9d57506005548111155b611fb95760405162461bcd60e51b81526004016105cf906133a7565b9f9e505050505050505050505050505050565b600060028204611ff683611200611fef876b033b2e3c9fd0803ce8000000611a19565b8490611a53565b949350505050565b60006112066b033b2e3c9fd0803ce800000061120061201d8686611a19565b60026b033b2e3c9fd0803ce80000006111f9565b6060611ff68484600085612217565b6000677fffffffffffffff82111561205757600080fd5b5060401b90565b60008161206a57600080fd5b600061207684846122d8565b905060016001607f1b036001600160801b038216111561120657600080fd5b6000600f82810b9084900b0360016001607f1b031981128015906120c0575060016001607f1b038113155b61120657600080fd5b6000600f82900b60016001607f1b031914156120e457600080fd5b5060000390565b6000600160461b82600f0b1261210057600080fd5b683fffffffffffffffff1982600f0b121561211d57506000610675565b611209608083600f0b700171547652b82fe1777d0ffda0d23a7d1202901d612422565b6000600f83810b9083900b0160016001607f1b031981128015906120c0575060016001607f1b0381131561120657600080fd5b600081600f0b6000141561218657600080fd5b600082600f0b604085600f0b901b8161219b57fe5b05905060016001607f1b031981128015906120c0575060016001607f1b0381131561120657600080fd5b6000600f83810b9083900b0260401d60016001607f1b031981128015906120c0575060016001607f1b0381131561120657600080fd5b60008082600f0b121561220d57600080fd5b50600f0b60401d90565b6060824710156122395760405162461bcd60e51b81526004016105cf906131ec565b61224285612edb565b61225e5760405162461bcd60e51b81526004016105cf906132e8565b60006060866001600160a01b0316858760405161227b91906130a8565b60006040518083038185875af1925050503d80600081146122b8576040519150601f19603f3d011682016040523d82523d6000602084013e6122bd565b606091505b50915091506122cd828286612ee1565b979650505050505050565b6000816122e457600080fd5b60006001600160c01b0384116123095782604085901b8161230157fe5b04905061240e565b60c084811c6401000000008110612322576020918201911c5b620100008110612334576010918201911c5b6101008110612345576008918201911c5b60108110612355576004918201911c5b60048110612365576002918201911c5b60028110612374576001820191505b60bf820360018603901c6001018260ff0387901b8161238f57fe5b0492506001600160801b038311156123a657600080fd5b608085901c83026001600160801b038616840260c088901c604089901b828110156123d2576001820391505b608084901b929003828110156123e9576001820391505b829003608084901c82146123f957fe5b88818161240257fe5b04870196505050505050505b6001600160801b0381111561120657600080fd5b6000600160461b82600f0b1261243757600080fd5b683fffffffffffffffff1982600f0b121561245457506000610675565b6001607f1b60006780000000000000008416600f0b13156124865770016a09e667f3bcc908b2fb1366ea957d3e0260801c5b60008367400000000000000016600f0b13156124b3577001306fe0a31b7152de8d5a46305c85edec0260801c5b60008367200000000000000016600f0b13156124e0577001172b83c7d517adcdf7c8c50eb14a791f0260801c5b60008367100000000000000016600f0b131561250d5770010b5586cf9890f6298b92b71842a983630260801c5b60008367080000000000000016600f0b131561253a577001059b0d31585743ae7c548eb68ca417fd0260801c5b60008367040000000000000016600f0b131561256757700102c9a3e778060ee6f7caca4f7a29bde80260801c5b60008367020000000000000016600f0b13156125945770010163da9fb33356d84a66ae336dcdfa3f0260801c5b60008367010000000000000016600f0b13156125c157700100b1afa5abcbed6129ab13ec11dc95430260801c5b600083668000000000000016600f0b13156125ed5770010058c86da1c09ea1ff19d294cf2f679b0260801c5b600083664000000000000016600f0b1315612619577001002c605e2e8cec506d21bfc89a23a00f0260801c5b600083662000000000000016600f0b131561264557700100162f3904051fa128bca9c55c31e5df0260801c5b600083661000000000000016600f0b1315612671577001000b175effdc76ba38e31671ca9397250260801c5b600083660800000000000016600f0b131561269d57700100058ba01fb9f96d6cacd4b180917c3d0260801c5b600083660400000000000016600f0b13156126c95770010002c5cc37da9491d0985c348c68e7b30260801c5b600083660200000000000016600f0b13156126f5577001000162e525ee054754457d59952920260260801c5b600083660100000000000016600f0b13156127215770010000b17255775c040618bf4a4ade83fc0260801c5b6000836580000000000016600f0b131561274c577001000058b91b5bc9ae2eed81e9b7d4cfab0260801c5b6000836540000000000016600f0b131561277757700100002c5c89d5ec6ca4d7c8acc017b7c90260801c5b6000836520000000000016600f0b13156127a25770010000162e43f4f831060e02d839a9d16d0260801c5b6000836510000000000016600f0b13156127cd57700100000b1721bcfc99d9f890ea069117630260801c5b6000836508000000000016600f0b13156127f85770010000058b90cf1e6d97f9ca14dbcc16280260801c5b6000836504000000000016600f0b1315612823577001000002c5c863b73f016468f6bac5ca2b0260801c5b6000836502000000000016600f0b131561284e57700100000162e430e5a18f6119e3c02282a50260801c5b6000836501000000000016600f0b1315612879577001000000b1721835514b86e6d96efd1bfe0260801c5b60008364800000000016600f0b13156128a357700100000058b90c0b48c6be5df846c5b2ef0260801c5b60008364400000000016600f0b13156128cd5770010000002c5c8601cc6b9e94213c72737a0260801c5b60008364200000000016600f0b13156128f7577001000000162e42fff037df38aa2b219f060260801c5b60008364100000000016600f0b13156129215770010000000b17217fba9c739aa5819f44f90260801c5b60008364080000000016600f0b131561294b577001000000058b90bfcdee5acd3c1cedc8230260801c5b60008364040000000016600f0b131561297557700100000002c5c85fe31f35a6a30da1be500260801c5b60008364020000000016600f0b131561299f5770010000000162e42ff0999ce3541b9fffcf0260801c5b60008364010000000016600f0b13156129c957700100000000b17217f80f4ef5aadda455540260801c5b600083638000000016600f0b13156129f25770010000000058b90bfbf8479bd5a81b51ad0260801c5b600083634000000016600f0b1315612a1b577001000000002c5c85fdf84bd62ae30a74cc0260801c5b600083632000000016600f0b1315612a4457700100000000162e42fefb2fed257559bdaa0260801c5b600083631000000016600f0b1315612a6d577001000000000b17217f7d5a7716bba4a9ae0260801c5b600083630800000016600f0b1315612a9657700100000000058b90bfbe9ddbac5e109cce0260801c5b600083630400000016600f0b1315612abf5770010000000002c5c85fdf4b15de6f17eb0d0260801c5b600083630200000016600f0b1315612ae8577001000000000162e42fefa494f1478fde050260801c5b600083630100000016600f0b1315612b115770010000000000b17217f7d20cf927c8e94c0260801c5b6000836280000016600f0b1315612b39577001000000000058b90bfbe8f71cb4e4b33d0260801c5b6000836240000016600f0b1315612b6157700100000000002c5c85fdf477b662b269450260801c5b6000836220000016600f0b1315612b895770010000000000162e42fefa3ae53369388c0260801c5b6000836210000016600f0b1315612bb157700100000000000b17217f7d1d351a389d400260801c5b6000836208000016600f0b1315612bd95770010000000000058b90bfbe8e8b2d3d4ede0260801c5b6000836204000016600f0b1315612c01577001000000000002c5c85fdf4741bea6e77e0260801c5b6000836202000016600f0b1315612c2957700100000000000162e42fefa39fe95583c20260801c5b6000836201000016600f0b1315612c51577001000000000000b17217f7d1cfb72b45e10260801c5b60008361800016600f0b1315612c7857700100000000000058b90bfbe8e7cc35c3f00260801c5b60008361400016600f0b1315612c9f5770010000000000002c5c85fdf473e242ea380260801c5b60008361200016600f0b1315612cc6577001000000000000162e42fefa39f02b772c0260801c5b60008361100016600f0b1315612ced5770010000000000000b17217f7d1cf7d83c1a0260801c5b60008361080016600f0b1315612d14577001000000000000058b90bfbe8e7bdcbe2e0260801c5b60008361040016600f0b1315612d3b57700100000000000002c5c85fdf473dea871f0260801c5b60008361020016600f0b1315612d625770010000000000000162e42fefa39ef44d910260801c5b60008361010016600f0b1315612d8957700100000000000000b17217f7d1cf79e9490260801c5b600083608016600f0b1315612daf5770010000000000000058b90bfbe8e7bce5440260801c5b600083604016600f0b1315612dd5577001000000000000002c5c85fdf473de6eca0260801c5b600083602016600f0b1315612dfb57700100000000000000162e42fefa39ef366f0260801c5b600083601016600f0b1315612e21577001000000000000000b17217f7d1cf79afa0260801c5b600083600816600f0b1315612e4757700100000000000000058b90bfbe8e7bcd6d0260801c5b600083600416600f0b1315612e6d5770010000000000000002c5c85fdf473de6b20260801c5b600083600216600f0b1315612e93577001000000000000000162e42fefa39ef3580260801c5b600083600116600f0b1315612eb95770010000000000000000b17217f7d1cf79ab0260801c5b600f83810b60401d603f03900b1c60016001607f1b0381111561120957600080fd5b3b151590565b60608315612ef0575081610892565b825115612f005782518084602001fd5b8160405162461bcd60e51b81526004016105cf919061312c565b6040518060800160405280600081526020016000815260200160008152602001600081525090565b604051806040016040528060008152602001600081525090565b6040518060c001604052806000815260200160008152602001600081526020016000815260200160008152602001600081525090565b600060208284031215612fa3578081fd5b8135611206816134e5565b600060208284031215612fbf578081fd5b81518015158114611206578182fd5b600060208284031215612fdf578081fd5b5051919050565b600060208284031215612ff7578081fd5b8151611206816134e5565b600060c08284031215613013578081fd5b61301d60c0613492565b823581526020830135602082015260408301356040820152606083013560608201526080830135608082015260a083013560a08201528091505092915050565b60006040828403121561306e578081fd5b6130786040613492565b82358152602083013560208201528091505092915050565b6000602082840312156130a1578081fd5b5035919050565b600082516130ba8184602087016134b9565b9190910192915050565b6001600160a01b0391909116815260200190565b6001600160a01b039384168152919092166020820152604081019190915260600190565b6001600160a01b03929092168252602082015260400190565b9182526001600160a01b0316602082015260400190565b600060208252825180602084015261314b8160408501602087016134b9565b601f01601f19169190910160400192915050565b6020808252601b908201527f536166654d6174683a206164646974696f6e206f766572666c6f770000000000604082015260600190565b6020808252600590820152644c4d31303160d81b604082015260600190565b6020808252601e908201527f536166654d6174683a207375627472616374696f6e206f766572666c6f770000604082015260600190565b60208082526026908201527f416464726573733a20696e73756666696369656e742062616c616e636520666f6040820152651c8818d85b1b60d21b606082015260800190565b6020808252601a908201527f536166654d6174683a206469766973696f6e206279207a65726f000000000000604082015260600190565b602080825260059082015264262698981960d91b604082015260600190565b60208082526005908201526413134c0c0d60da1b604082015260600190565b60208082526021908201527f536166654d6174683a206d756c7469706c69636174696f6e206f766572666c6f6040820152607760f81b606082015260800190565b6020808252601d908201527f416464726573733a2063616c6c20746f206e6f6e2d636f6e7472616374000000604082015260600190565b6020808252602a908201527f5361666545524332303a204552433230206f7065726174696f6e20646964206e6040820152691bdd081cdd58d8d9595960b21b606082015260800190565b60208082526005908201526404c4d3130360dc1b604082015260600190565b60208082526005908201526404c4d3031360dc1b604082015260600190565b6020808252600590820152644c4d31303360d81b604082015260600190565b600060c082019050825182526020830151602083015260408301516040830152606083015160608301526080830151608083015260a083015160a083015292915050565b815481526001820154602082015260028201546040820152600382015460608201526004820154608082015260059091015460a082015260c00190565b815181526020918201519181019190915260400190565b8151815260208083015190820152604080830151908201526060918201519181019190915260800190565b90815260200190565b60405181810167ffffffffffffffff811182821017156134b157600080fd5b604052919050565b60005b838110156134d45781810151838201526020016134bc565b838111156115ff5750506000910152565b6001600160a01b03811681146134fa57600080fd5b5056fea264697066735822122034921ff637d49a2d9e6b08afdc88223d20a6aa889bf4c85c4f59fa3b4e45abe164736f6c634300060c0033",
  "linkReferences": {},
  "deployedLinkReferences": {}
}