{
  "_format": "hh-sol-artifact-1",
  "contractName": "AaveVault",
  "sourceName": "contracts/AaveVault.sol",
  "abi": [
    {
      "inputs": [
        {
          "internalType": "contract IVaultGovernance",
          "name": "vaultGovernance_",
          "type": "address"
        },
        {
          "internalType": "address[]",
          "name": "vaultTokens_",
          "type": "address[]"
        }
      ],
      "stateMutability": "nonpayable",
      "type": "constructor"
    },
    {
      "anonymous": false,
      "inputs": [
        {
          "indexed": false,
          "internalType": "address",
          "name": "to",
          "type": "address"
        },
        {
          "indexed": false,
          "internalType": "uint256[]",
          "name": "tokenAmounts",
          "type": "uint256[]"
        }
      ],
      "name": "Pull",
      "type": "event"
    },
    {
      "anonymous": false,
      "inputs": [
        {
          "indexed": false,
          "internalType": "uint256[]",
          "name": "tokenAmounts",
          "type": "uint256[]"
        }
      ],
      "name": "Push",
      "type": "event"
    },
    {
      "anonymous": false,
      "inputs": [
        {
          "indexed": false,
          "internalType": "address",
          "name": "to",
          "type": "address"
        },
        {
          "indexed": false,
          "internalType": "address[]",
          "name": "tokens",
          "type": "address[]"
        },
        {
          "indexed": false,
          "internalType": "uint256[]",
          "name": "tokenAmounts",
          "type": "uint256[]"
        }
      ],
      "name": "ReclaimTokens",
      "type": "event"
    },
    {
      "inputs": [
        {
          "internalType": "address",
          "name": "from",
          "type": "address"
        },
        {
          "internalType": "bytes",
          "name": "data",
          "type": "bytes"
        }
      ],
      "name": "claimRewards",
      "outputs": [],
      "stateMutability": "nonpayable",
      "type": "function"
    },
    {
      "inputs": [
        {
          "internalType": "uint256",
          "name": "nft_",
          "type": "uint256"
        }
      ],
      "name": "initialize",
      "outputs": [],
      "stateMutability": "nonpayable",
      "type": "function"
    },
    {
      "inputs": [
        {
          "internalType": "address",
          "name": "token",
          "type": "address"
        }
      ],
      "name": "isVaultToken",
      "outputs": [
        {
          "internalType": "bool",
          "name": "",
          "type": "bool"
        }
      ],
      "stateMutability": "view",
      "type": "function"
    },
    {
      "inputs": [],
      "name": "nft",
      "outputs": [
        {
          "internalType": "uint256",
          "name": "",
          "type": "uint256"
        }
      ],
      "stateMutability": "view",
      "type": "function"
    },
    {
      "inputs": [
        {
          "internalType": "address",
          "name": "to",
          "type": "address"
        },
        {
          "internalType": "address[]",
          "name": "tokens",
          "type": "address[]"
        },
        {
          "internalType": "uint256[]",
          "name": "tokenAmounts",
          "type": "uint256[]"
        },
        {
          "internalType": "bytes",
          "name": "options",
          "type": "bytes"
        }
      ],
      "name": "pull",
      "outputs": [
        {
          "internalType": "uint256[]",
          "name": "actualTokenAmounts",
          "type": "uint256[]"
        }
      ],
      "stateMutability": "nonpayable",
      "type": "function"
    },
    {
      "inputs": [
        {
          "internalType": "address[]",
          "name": "tokens",
          "type": "address[]"
        },
        {
          "internalType": "uint256[]",
          "name": "tokenAmounts",
          "type": "uint256[]"
        },
        {
          "internalType": "bytes",
          "name": "options",
          "type": "bytes"
        }
      ],
      "name": "push",
      "outputs": [
        {
          "internalType": "uint256[]",
          "name": "actualTokenAmounts",
          "type": "uint256[]"
        }
      ],
      "stateMutability": "nonpayable",
      "type": "function"
    },
    {
      "inputs": [
        {
          "internalType": "address",
          "name": "to",
          "type": "address"
        },
        {
          "internalType": "address[]",
          "name": "tokens",
          "type": "address[]"
        }
      ],
      "name": "reclaimTokens",
      "outputs": [],
      "stateMutability": "nonpayable",
      "type": "function"
    },
    {
      "inputs": [
        {
          "internalType": "address",
          "name": "from",
          "type": "address"
        },
        {
          "internalType": "address[]",
          "name": "tokens",
          "type": "address[]"
        },
        {
          "internalType": "uint256[]",
          "name": "tokenAmounts",
          "type": "uint256[]"
        },
        {
          "internalType": "bytes",
          "name": "options",
          "type": "bytes"
        }
      ],
      "name": "transferAndPush",
      "outputs": [
        {
          "internalType": "uint256[]",
          "name": "actualTokenAmounts",
          "type": "uint256[]"
        }
      ],
      "stateMutability": "nonpayable",
      "type": "function"
    },
    {
      "inputs": [],
      "name": "tvl",
      "outputs": [
        {
          "internalType": "uint256[]",
          "name": "tokenAmounts",
          "type": "uint256[]"
        }
      ],
      "stateMutability": "view",
      "type": "function"
    },
    {
      "inputs": [],
      "name": "updateTvls",
      "outputs": [],
      "stateMutability": "nonpayable",
      "type": "function"
    },
    {
      "inputs": [],
      "name": "vaultGovernance",
      "outputs": [
        {
          "internalType": "contract IVaultGovernance",
          "name": "",
          "type": "address"
        }
      ],
      "stateMutability": "view",
      "type": "function"
    },
    {
      "inputs": [],
      "name": "vaultTokens",
      "outputs": [
        {
          "internalType": "address[]",
          "name": "",
          "type": "address[]"
        }
      ],
      "stateMutability": "view",
      "type": "function"
    }
  ],
  "bytecode": "0x60806040523480156200001157600080fd5b506040516200329f3803806200329f8339810160408190526200003491620005ac565b818160016000819055506200005481620002b760201b620011fe1760201c565b6040518060400160405280600381526020016253415560e81b815250906200009a5760405162461bcd60e51b815260040162000091919062000683565b60405180910390fd5b50600180546001600160a01b0319166001600160a01b0384161790558051620000cb9060029060208401906200048b565b5060005b81518110156200013b57600160036000848481518110620000f457620000f4620006db565b6020908102919091018101516001600160a01b03168252810191909152604001600020805460ff191691151591909117905580620001328162000707565b915050620000cf565b50505080516001600160401b038111156200015a576200015a62000525565b60405190808252806020026020018201604052801562000184578160200160208202803683370190505b5080516200019b916005916020909101906200048b565b5060005b600254811015620002ae576000620001e160028381548110620001c657620001c6620006db565b6000918252602090912001546001600160a01b03166200036c565b604080518082019091526002815261169560f21b60208201529091506001600160a01b038216620002275760405162461bcd60e51b815260040162000091919062000683565b5080600583815481106200023f576200023f620006db565b6000918252602082200180546001600160a01b0319166001600160a01b039390931692909217909155600680546001810182559082527ff652222313e28459528d920b65115c16c04f3efc82aaedc97be59f3f377c0d3f01555080620002a58162000707565b9150506200019f565b50505062000938565b6000600282511015620002cc57506001919050565b60005b60018351620002df919062000725565b811015620003635782620002f58260016200073f565b81518110620003085762000308620006db565b60200260200101516001600160a01b03168382815181106200032e576200032e620006db565b60200260200101516001600160a01b0316106200034e5750600092915050565b806200035a8162000707565b915050620002cf565b50600192915050565b6000806200037962000404565b6040516335ea6a7560e01b81526001600160a01b03858116600483015291909116906335ea6a75906024016101806040518083038186803b158015620003be57600080fd5b505afa158015620003d3573d6000803e3d6000fd5b505050506040513d601f19601f82011682018060405250810190620003f99190620007df565b60e001519392505050565b600154604080516301a6998760e71b815290516000926001600160a01b03169163d34cc380916004808301926020929190829003018186803b1580156200044a57600080fd5b505afa1580156200045f573d6000803e3d6000fd5b505050506040513d601f19601f82011682018060405250810190620004859190620008e7565b51919050565b828054828255906000526020600020908101928215620004e3579160200282015b82811115620004e357825182546001600160a01b0319166001600160a01b03909116178255602090920191600190910190620004ac565b50620004f1929150620004f5565b5090565b5b80821115620004f15760008155600101620004f6565b6001600160a01b03811681146200052257600080fd5b50565b634e487b7160e01b600052604160045260246000fd5b60405161018081016001600160401b038111828210171562000561576200056162000525565b60405290565b604051601f8201601f191681016001600160401b038111828210171562000592576200059262000525565b604052919050565b8051620005a7816200050c565b919050565b60008060408385031215620005c057600080fd5b8251620005cd816200050c565b602084810151919350906001600160401b0380821115620005ed57600080fd5b818601915086601f8301126200060257600080fd5b81518181111562000617576200061762000525565b8060051b91506200062a84830162000567565b81815291830184019184810190898411156200064557600080fd5b938501935b8385101562000673578451925062000662836200050c565b82825293850193908501906200064a565b8096505050505050509250929050565b600060208083528351808285015260005b81811015620006b25785810183015185820160400152820162000694565b81811115620006c5576000604083870101525b50601f01601f1916929092016040019392505050565b634e487b7160e01b600052603260045260246000fd5b634e487b7160e01b600052601160045260246000fd5b60006000198214156200071e576200071e620006f1565b5060010190565b6000828210156200073a576200073a620006f1565b500390565b60008219821115620007555762000755620006f1565b500190565b6000602082840312156200076d57600080fd5b604051602081016001600160401b038111828210171562000792576200079262000525565b6040529151825250919050565b80516001600160801b0381168114620005a757600080fd5b805164ffffffffff81168114620005a757600080fd5b805160ff81168114620005a757600080fd5b60006101808284031215620007f357600080fd5b620007fd6200053b565b6200080984846200075a565b815262000819602084016200079f565b60208201526200082c604084016200079f565b60408201526200083f606084016200079f565b606082015262000852608084016200079f565b60808201526200086560a084016200079f565b60a08201526200087860c08401620007b7565b60c08201526200088b60e084016200059a565b60e0820152610100620008a08185016200059a565b90820152610120620008b48482016200059a565b90820152610140620008c88482016200059a565b90820152610160620008dc848201620007cd565b908201529392505050565b600060208284031215620008fa57600080fd5b604051602081016001600160401b03811182821017156200091f576200091f62000525565b60405282516200092f816200050c565b81529392505050565b61295780620009486000396000f3fe608060405234801561001057600080fd5b50600436106100b45760003560e01c8063566ca6b411610071578063566ca6b41461015f5780636972223314610172578063e5328e0614610187578063e8216b891461018f578063fe255a5e146101a2578063fe4b84df146101bd57600080fd5b806314b84bff146100b957806318b4d37f146100c35780632062d754146100d657806327a35e5a146100ff578063338c4ccb1461011257806347ccca021461014e575b600080fd5b6100c16101d0565b005b6100c16100d136600461232b565b6102a8565b6100e96100e436600461246e565b6104f0565b6040516100f69190612544565b60405180910390f35b6100e961010d36600461246e565b61075d565b61013e610120366004612557565b6001600160a01b031660009081526003602052604090205460ff1690565b60405190151581526020016100f6565b6004546040519081526020016100f6565b6100e961016d366004612574565b6108e6565b61017a610bfb565b6040516100f69190612635565b6100e9610c5d565b6100c161019d366004612648565b610cb4565b6001546040516001600160a01b0390911681526020016100f6565b6100c16101cb36600461268e565b611055565b60005b6006548110156102a557600581815481106101f0576101f06126a7565b6000918252602090912001546040516370a0823160e01b81523060048201526001600160a01b03909116906370a082319060240160206040518083038186803b15801561023c57600080fd5b505afa158015610250573d6000803e3d6000fd5b505050506040513d601f19601f8201168201806040525081019061027491906126bd565b60068281548110610287576102876126a7565b6000918252602090912001558061029d816126ec565b9150506101d3565b50565b6102b06112a3565b600060045411604051806040016040528060048152602001631253925560e21b815250906102fa5760405162461bcd60e51b81526004016102f19190612733565b60405180910390fd5b50610304336112fd565b60405180604001604052806002815260200161494f60f01b8152509061033d5760405162461bcd60e51b81526004016102f19190612733565b5060015460408051637ac46fbb60e01b815281516000936001600160a01b031692637ac46fbb9260048082019391829003018186803b15801561037f57600080fd5b505afa158015610393573d6000803e3d6000fd5b505050506040513d601f19601f820116820180604052508101906103b79190612766565b5160405163884289e360e01b81526001600160a01b0385811660048301529192509082169063884289e39060240160206040518083038186803b1580156103fd57600080fd5b505afa158015610411573d6000803e3d6000fd5b505050506040513d601f19601f8201168201806040525081019061043591906127c5565b60405180604001604052806002815260200161414360f01b8152509061046e5760405162461bcd60e51b81526004016102f19190612733565b50600080846001600160a01b03168460405161048a91906127e7565b6000604051808303816000865af19150503d80600081146104c7576040519150601f19603f3d011682016040523d82523d6000602084013e6104cc565b606091505b5091509150816104df5780518082602001fd5b5050506104ec6001600055565b5050565b60606104fa6112a3565b610503336112fd565b6105345760405162461bcd60e51b8152602060048201526002602482015261494f60f01b60448201526064016102f1565b60015460408051637ac46fbb60e01b815281516000936001600160a01b031692637ac46fbb9260048082019391829003018186803b15801561057557600080fd5b505afa158015610589573d6000803e3d6000fd5b505050506040513d601f19601f820116820180604052508101906105ad9190612766565b60200151600480546040516331a9108f60e11b8152918201529091506000906001600160a01b03831690636352211e9060240160206040518083038186803b1580156105f857600080fd5b505afa15801561060c573d6000803e3d6000fd5b505050506040513d601f19601f820116820180604052508101906106309190612803565b90506001600160a01b03811633148061064d575061064d876114af565b60405180604001604052806005815260200164494e54524160d81b815250906106895760405162461bcd60e51b81526004016102f19190612733565b506000610696878761177d565b905060006106a5898388611866565b905061070c88600280548060200260200160405190810160405280929190818152602001828054801561070157602002820191906000526020600020905b81546001600160a01b031681526001909101906020018083116106e3575b505050505083611a1f565b94507f54f9e6ef58e36de62f59f9ee6c4b878af84989c53a3642eba415ac3ac4e11cda898660405161073f929190612820565b60405180910390a1505050506107556001600055565b949350505050565b606060005b84518110156107f157600084828151811061077f5761077f6126a7565b602002602001015111156107df576107df86308684815181106107a4576107a46126a7565b60200260200101518885815181106107be576107be6126a7565b60200260200101516001600160a01b0316611c41909392919063ffffffff16565b806107e9816126ec565b915050610762565b506107fd8484846108e6565b905060005b84518110156108dd57600084828151811061081f5761081f6126a7565b6020026020010151838381518110610839576108396126a7565b60200260200101511061084d57600061088b565b82828151811061085f5761085f6126a7565b6020026020010151858381518110610879576108796126a7565b602002602001015161088b9190612844565b905080156108ca576108ca87828885815181106108aa576108aa6126a7565b60200260200101516001600160a01b0316611cb29092919063ffffffff16565b50806108d5816126ec565b915050610802565b50949350505050565b60606108f06112a3565b6004805460408051808201909152918252631253925560e21b6020830152908161092d5760405162461bcd60e51b81526004016102f19190612733565b50610937336112fd565b60405180604001604052806002815260200161494f60f01b815250906109705760405162461bcd60e51b81526004016102f19190612733565b5060015460408051637ac46fbb60e01b815281516000936001600160a01b031692637ac46fbb9260048082019391829003018186803b1580156109b257600080fd5b505afa1580156109c6573d6000803e3d6000fd5b505050506040513d601f19601f820116820180604052508101906109ea9190612766565b602001516040516331a9108f60e11b8152600481018490529091506000906001600160a01b03831690636352211e9060240160206040518083038186803b158015610a3457600080fd5b505afa158015610a48573d6000803e3d6000fd5b505050506040513d601f19601f82011682018060405250810190610a6c9190612803565b60405163fcdabd2760e01b81526001600160a01b03808316600483015291925060009184169063fcdabd279060240160206040518083038186803b158015610ab357600080fd5b505afa158015610ac7573d6000803e3d6000fd5b505050506040513d601f19601f82011682018060405250810190610aeb91906126bd565b9050600081116040518060400160405280600381526020016227abab60e91b81525090610b2b5760405162461bcd60e51b81526004016102f19190612733565b506000610b38898961177d565b90506000610b468289611ce7565b9050610bab8a6002805480602002602001604051908101604052809291908181526020018280548015610701576020028201919060005260206000209081546001600160a01b031681526001909101906020018083116106e357505050505083611a1f565b96507f08e404e978692dd1b8275016b7a7b0b3ae4afd06b0cec7228060bb2da18c84fd81604051610bdc9190612544565b60405180910390a1505050505050610bf46001600055565b9392505050565b60606002805480602002602001604051908101604052809291908181526020018280548015610c5357602002820191906000526020600020905b81546001600160a01b03168152600190910190602001808311610c35575b5050505050905090565b60606006805480602002602001604051908101604052809291908181526020018280548015610c5357602002820191906000526020600020905b815481526020019060010190808311610c97575050505050905090565b610cbc6112a3565b600060045411604051806040016040528060048152602001631253925560e21b81525090610cfd5760405162461bcd60e51b81526004016102f19190612733565b5060015460408051637ac46fbb60e01b815281516000936001600160a01b031692637ac46fbb9260048082019391829003018186803b158015610d3f57600080fd5b505afa158015610d53573d6000803e3d6000fd5b505050506040513d601f19601f82011682018060405250810190610d779190612766565b51604051630935e01b60e21b81523360048201529091506000906001600160a01b038316906324d7806c9060240160206040518083038186803b158015610dbd57600080fd5b505afa158015610dd1573d6000803e3d6000fd5b505050506040513d601f19601f82011682018060405250810190610df591906127c5565b90508080610e075750610e07336112fd565b6040518060400160405280600381526020016241444d60e81b81525090610e415760405162461bcd60e51b81526004016102f19190612733565b5080610e8e57610e50846114af565b60405180604001604052806005815260200164494e54524160d81b81525090610e8c5760405162461bcd60e51b81526004016102f19190612733565b505b6000835167ffffffffffffffff811115610eaa57610eaa612274565b604051908082528060200260200182016040528015610ed3578160200160208202803683370190505b50905060005b845181101561100c576000858281518110610ef657610ef66126a7565b60209081029190910101516040516370a0823160e01b81523060048201529091506001600160a01b038216906370a082319060240160206040518083038186803b158015610f4357600080fd5b505afa158015610f57573d6000803e3d6000fd5b505050506040513d601f19601f82011682018060405250810190610f7b91906126bd565b838381518110610f8d57610f8d6126a7565b602002602001018181525050828281518110610fab57610fab6126a7565b602002602001015160001415610fc15750610ffa565b610ff887848481518110610fd757610fd76126a7565b6020026020010151836001600160a01b0316611cb29092919063ffffffff16565b505b80611004816126ec565b915050610ed9565b507f9efcb26e0cf572bd9171640e114f387cef91cd3e38532ed6b3f80c7f2e758f878585836040516110409392919061285b565b60405180910390a15050506104ec6001600055565b600154604080518082019091526002815261564760f01b6020820152906001600160a01b0316331461109a5760405162461bcd60e51b81526004016102f19190612733565b5060408051808201909152600481526304e4654360e41b6020820152816110d45760405162461bcd60e51b81526004016102f19190612733565b506004805460408051808201909152918252631253925560e21b6020830152156111115760405162461bcd60e51b81526004016102f19190612733565b50600481815560015460408051637ac46fbb60e01b815281516000946001600160a01b0390941693637ac46fbb938382019390929190829003018186803b15801561115b57600080fd5b505afa15801561116f573d6000803e3d6000fd5b505050506040513d601f19601f820116820180604052508101906111939190612766565b6020015160405163a22cb46560e01b81526001600160a01b038216600482018190526001602483015291925063a22cb46590604401600060405180830381600087803b1580156111e257600080fd5b505af11580156111f6573d6000803e3d6000fd5b505050505050565b600060028251101561121257506001919050565b60005b600183516112239190612844565b81101561129a578261123682600161289b565b81518110611246576112466126a7565b60200260200101516001600160a01b0316838281518110611269576112696126a7565b60200260200101516001600160a01b0316106112885750600092915050565b80611292816126ec565b915050611215565b50600192915050565b600260005414156112f65760405162461bcd60e51b815260206004820152601f60248201527f5265656e7472616e637947756172643a207265656e7472616e742063616c6c0060448201526064016102f1565b6002600055565b60015460408051637ac46fbb60e01b8152815160009384936001600160a01b0390911692637ac46fbb9260048083019392829003018186803b15801561134257600080fd5b505afa158015611356573d6000803e3d6000fd5b505050506040513d601f19601f8201168201806040525081019061137a9190612766565b6020015160045490915080611393575060009392505050565b60405163020604bf60e21b8152600481018290526001600160a01b03808616919084169063081812fc9060240160206040518083038186803b1580156113d857600080fd5b505afa1580156113ec573d6000803e3d6000fd5b505050506040513d601f19601f820116820180604052508101906114109190612803565b6001600160a01b0316148061075557506040516331a9108f60e11b8152600481018290526001600160a01b038086169190841690636352211e9060240160206040518083038186803b15801561146557600080fd5b505afa158015611479573d6000803e3d6000fd5b505050506040513d601f19601f8201168201806040525081019061149d9190612803565b6001600160a01b031614949350505050565b6000813b63ffffffff166114c557506000919050565b60015460408051637ac46fbb60e01b815281516000936001600160a01b031692637ac46fbb9260048082019391829003018186803b15801561150657600080fd5b505afa15801561151a573d6000803e3d6000fd5b505050506040513d601f19601f8201168201806040525081019061153e9190612766565b602001519050600454600014156115585750600092915050565b600480546040516331a9108f60e11b8152918201526000906001600160a01b03831690636352211e9060240160206040518083038186803b15801561159c57600080fd5b505afa1580156115b0573d6000803e3d6000fd5b505050506040513d601f19601f820116820180604052508101906115d49190612803565b60405163fcdabd2760e01b81526001600160a01b03808316600483015291925060009184169063fcdabd279060240160206040518083038186803b15801561161b57600080fd5b505afa15801561162f573d6000803e3d6000fd5b505050506040513d601f19601f8201168201806040525081019061165391906126bd565b90508061166557506000949350505050565b604051638333903b60e01b815230600482015282906001600160a01b03821690638333903b9060240160206040518083038186803b1580156116a657600080fd5b505afa1580156116ba573d6000803e3d6000fd5b505050506040513d601f19601f820116820180604052508101906116de91906127c5565b15806117605750604051638333903b60e01b81526001600160a01b038781166004830152821690638333903b9060240160206040518083038186803b15801561172657600080fd5b505afa15801561173a573d6000803e3d6000fd5b505050506040513d601f19601f8201168201806040525081019061175e91906127c5565b155b156117715750600095945050505050565b50600195945050505050565b6060611788836111fe565b6040518060400160405280600381526020016253415560e81b815250906117c25760405162461bcd60e51b81526004016102f19190612733565b508151835114604051806040016040528060018152602001601360fa1b815250906118005760405162461bcd60e51b81526004016102f19190612733565b50610bf4600280548060200260200160405190810160405280929190818152602001828054801561185a57602002820191906000526020600020905b81546001600160a01b0316815260019091019060200180831161183c575b50505050508484611a1f565b6060600060028054806020026020016040519081016040528092919081815260200182805480156118c057602002820191906000526020600020905b81546001600160a01b031681526001909101906020018083116118a2575b5050505050905060005b600554811015611a0d57600681815481106118e7576118e76126a7565b906000526020600020015460001480611919575084818151811061190d5761190d6126a7565b60200260200101516000145b15611923576119fb565b61192b611ea6565b6001600160a01b03166369328dec83838151811061194b5761194b6126a7565b6020026020010151878481518110611965576119656126a7565b60209081029190910101516040516001600160e01b031960e085901b1681526001600160a01b03928316600482015260248101919091529089166044820152606401602060405180830381600087803b1580156119c157600080fd5b505af11580156119d5573d6000803e3d6000fd5b505050506040513d601f19601f820116820180604052508101906119f991906126bd565b505b80611a05816126ec565b9150506118ca565b50611a166101d0565b50919392505050565b60606000845167ffffffffffffffff811115611a3d57611a3d612274565b604051908082528060200260200182016040528015611a66578160200160208202803683370190505b5090506000805b865182108015611a7d5750855181105b15611bfc57858181518110611a9457611a946126a7565b60200260200101516001600160a01b0316878381518110611ab757611ab76126a7565b60200260200101516001600160a01b03161015611aff576000838381518110611ae257611ae26126a7565b602090810291909101015281611af7816126ec565b925050611a6d565b858181518110611b1157611b116126a7565b60200260200101516001600160a01b0316878381518110611b3457611b346126a7565b60200260200101516001600160a01b03161115611bad57848181518110611b5d57611b5d6126a7565b602002602001015160001415611b7f5780611b77816126ec565b915050611a6d565b60405162461bcd60e51b815260206004820152600360248201526254505360e81b60448201526064016102f1565b848181518110611bbf57611bbf6126a7565b6020026020010151838381518110611bd957611bd96126a7565b602090810291909101015281611bee816126ec565b9250508080611b77906126ec565b8651821015611c36576000838381518110611c1957611c196126a7565b602090810291909101015281611c2e816126ec565b925050611bfc565b509095945050505050565b6040516001600160a01b0380851660248301528316604482015260648101829052611cac9085906323b872dd60e01b906084015b60408051601f198184030181529190526020810180516001600160e01b03166001600160e01b031990931692909217909152611f29565b50505050565b6040516001600160a01b038316602482015260448101829052611ce290849063a9059cbb60e01b90606401611c75565b505050565b606060006002805480602002602001604051908101604052809291908181526020018280548015611d4157602002820191906000526020600020905b81546001600160a01b03168152600190910190602001808311611d23575b5050505050905060008084511115611d6a5783806020019051810190611d6791906126bd565b90505b60005b600554811015611e9457858181518110611d8957611d896126a7565b602002602001015160001415611d9e57611e82565b6000838281518110611db257611db26126a7565b60200260200101519050611dc581611ffe565b611dcd611ea6565b6001600160a01b031663e8eda9df858481518110611ded57611ded6126a7565b6020026020010151898581518110611e0757611e076126a7565b60209081029190910101516040516001600160e01b031960e085901b1681526001600160a01b039092166004830152602482015230604482015261ffff86166064820152608401600060405180830381600087803b158015611e6857600080fd5b505af1158015611e7c573d6000803e3d6000fd5b50505050505b80611e8c816126ec565b915050611d6d565b50611e9d6101d0565b50929392505050565b600154604080516301a6998760e71b815290516000926001600160a01b03169163d34cc380916004808301926020929190829003018186803b158015611eeb57600080fd5b505afa158015611eff573d6000803e3d6000fd5b505050506040513d601f19601f82011682018060405250810190611f2391906128b3565b51919050565b6000611f7e826040518060400160405280602081526020017f5361666545524332303a206c6f772d6c6576656c2063616c6c206661696c6564815250856001600160a01b031661213f9092919063ffffffff16565b9050805160001480611f9f575080806020019051810190611f9f91906127c5565b611ce25760405162461bcd60e51b815260206004820152602a60248201527f5361666545524332303a204552433230206f7065726174696f6e20646964206e6044820152691bdd081cdd58d8d9595960b21b60648201526084016102f1565b61200b60026000196128ff565b816001600160a01b031663dd62ed3e30612023611ea6565b6040516001600160e01b031960e085901b1681526001600160a01b0392831660048201529116602482015260440160206040518083038186803b15801561206957600080fd5b505afa15801561207d573d6000803e3d6000fd5b505050506040513d601f19601f820116820180604052508101906120a191906126bd565b10156102a557806001600160a01b031663095ea7b36120be611ea6565b6040516001600160e01b031960e084901b1681526001600160a01b0390911660048201526000196024820152604401602060405180830381600087803b15801561210757600080fd5b505af115801561211b573d6000803e3d6000fd5b505050506040513d601f19601f820116820180604052508101906104ec91906127c5565b6060610755848460008585600080866001600160a01b0316858760405161216691906127e7565b60006040518083038185875af1925050503d80600081146121a3576040519150601f19603f3d011682016040523d82523d6000602084013e6121a8565b606091505b50915091506121b9878383876121c4565b979650505050505050565b60608315612230578251612229576001600160a01b0385163b6122295760405162461bcd60e51b815260206004820152601d60248201527f416464726573733a2063616c6c20746f206e6f6e2d636f6e747261637400000060448201526064016102f1565b5081610755565b61075583838151156122455781518083602001fd5b8060405162461bcd60e51b81526004016102f19190612733565b6001600160a01b03811681146102a557600080fd5b634e487b7160e01b600052604160045260246000fd5b604051601f8201601f1916810167ffffffffffffffff811182821017156122b3576122b3612274565b604052919050565b600082601f8301126122cc57600080fd5b813567ffffffffffffffff8111156122e6576122e6612274565b6122f9601f8201601f191660200161228a565b81815284602083860101111561230e57600080fd5b816020850160208301376000918101602001919091529392505050565b6000806040838503121561233e57600080fd5b82356123498161225f565b9150602083013567ffffffffffffffff81111561236557600080fd5b612371858286016122bb565b9150509250929050565b600067ffffffffffffffff82111561239557612395612274565b5060051b60200190565b600082601f8301126123b057600080fd5b813560206123c56123c08361237b565b61228a565b82815260059290921b840181019181810190868411156123e457600080fd5b8286015b848110156124085780356123fb8161225f565b83529183019183016123e8565b509695505050505050565b600082601f83011261242457600080fd5b813560206124346123c08361237b565b82815260059290921b8401810191818101908684111561245357600080fd5b8286015b848110156124085780358352918301918301612457565b6000806000806080858703121561248457600080fd5b843561248f8161225f565b9350602085013567ffffffffffffffff808211156124ac57600080fd5b6124b88883890161239f565b945060408701359150808211156124ce57600080fd5b6124da88838901612413565b935060608701359150808211156124f057600080fd5b506124fd878288016122bb565b91505092959194509250565b600081518084526020808501945080840160005b838110156125395781518752958201959082019060010161251d565b509495945050505050565b602081526000610bf46020830184612509565b60006020828403121561256957600080fd5b8135610bf48161225f565b60008060006060848603121561258957600080fd5b833567ffffffffffffffff808211156125a157600080fd5b6125ad8783880161239f565b945060208601359150808211156125c357600080fd5b6125cf87838801612413565b935060408601359150808211156125e557600080fd5b506125f2868287016122bb565b9150509250925092565b600081518084526020808501945080840160005b838110156125395781516001600160a01b031687529582019590820190600101612610565b602081526000610bf460208301846125fc565b6000806040838503121561265b57600080fd5b82356126668161225f565b9150602083013567ffffffffffffffff81111561268257600080fd5b6123718582860161239f565b6000602082840312156126a057600080fd5b5035919050565b634e487b7160e01b600052603260045260246000fd5b6000602082840312156126cf57600080fd5b5051919050565b634e487b7160e01b600052601160045260246000fd5b6000600019821415612700576127006126d6565b5060010190565b60005b8381101561272257818101518382015260200161270a565b83811115611cac5750506000910152565b6020815260008251806020840152612752816040850160208701612707565b601f01601f19169190910160400192915050565b60006040828403121561277857600080fd5b6040516040810181811067ffffffffffffffff8211171561279b5761279b612274565b60405282516127a98161225f565b815260208301516127b98161225f565b60208201529392505050565b6000602082840312156127d757600080fd5b81518015158114610bf457600080fd5b600082516127f9818460208701612707565b9190910192915050565b60006020828403121561281557600080fd5b8151610bf48161225f565b6001600160a01b038316815260406020820181905260009061075590830184612509565b600082821015612856576128566126d6565b500390565b6001600160a01b038416815260606020820181905260009061287f908301856125fc565b82810360408401526128918185612509565b9695505050505050565b600082198211156128ae576128ae6126d6565b500190565b6000602082840312156128c557600080fd5b6040516020810181811067ffffffffffffffff821117156128e8576128e8612274565b60405282516128f68161225f565b81529392505050565b60008261291c57634e487b7160e01b600052601260045260246000fd5b50049056fea2646970667358221220fb4d4427c64cb687e8525591ab3d2ffe46f4b36cb4036e599c10e47b6c08f09264736f6c63430008090033",
  "linkReferences": {},
  "deployedLinkReferences": {}
}