{"abi":[{"type":"constructor","inputs":[{"name":"_lenderPool","type":"address","internalType":"address"},{"name":"_priceOracle","type":"address","internalType":"address"},{"name":"_savingsAccount","type":"address","internalType":"address"},{"name":"_strategyRegistry","type":"address","internalType":"address"},{"name":"_verification","type":"address","internalType":"address"},{"name":"_limitsManager","type":"address","internalType":"address"},{"name":"_maximumProtocolFeeFraction","type":"uint256","internalType":"uint256"}],"stateMutability":"nonpayable"},{"type":"function","name":"LENDER_POOL","inputs":[],"outputs":[{"name":"","type":"address","internalType":"contract ILenderPool"}],"stateMutability":"view"},{"type":"function","name":"LIMITS_MANAGER","inputs":[],"outputs":[{"name":"","type":"address","internalType":"contract ILimitsManager"}],"stateMutability":"view"},{"type":"function","name":"MAXIMUM_PROTOCOL_FEE_FRACTION","inputs":[],"outputs":[{"name":"","type":"uint256","internalType":"uint256"}],"stateMutability":"view"},{"type":"function","name":"PRICE_ORACLE","inputs":[],"outputs":[{"name":"","type":"address","internalType":"contract IPriceOracle"}],"stateMutability":"view"},{"type":"function","name":"SAVINGS_ACCOUNT","inputs":[],"outputs":[{"name":"","type":"address","internalType":"contract ISavingsAccount"}],"stateMutability":"view"},{"type":"function","name":"SCALING_FACTOR","inputs":[],"outputs":[{"name":"","type":"uint256","internalType":"uint256"}],"stateMutability":"view"},{"type":"function","name":"STRATEGY_REGISTRY","inputs":[],"outputs":[{"name":"","type":"address","internalType":"contract IStrategyRegistry"}],"stateMutability":"view"},{"type":"function","name":"VERIFICATION","inputs":[],"outputs":[{"name":"","type":"address","internalType":"contract IVerification"}],"stateMutability":"view"},{"type":"function","name":"accept","inputs":[{"name":"_id","type":"uint256","internalType":"uint256"},{"name":"_amount","type":"uint256","internalType":"uint256"},{"name":"_by","type":"address","internalType":"address"}],"outputs":[],"stateMutability":"nonpayable"},{"type":"function","name":"borrow","inputs":[{"name":"_id","type":"uint256","internalType":"uint256"},{"name":"_amount","type":"uint256","internalType":"uint256"}],"outputs":[],"stateMutability":"nonpayable"},{"type":"function","name":"calculateBorrowableAmount","inputs":[{"name":"_id","type":"uint256","internalType":"uint256"}],"outputs":[{"name":"","type":"uint256","internalType":"uint256"}],"stateMutability":"nonpayable"},{"type":"function","name":"calculateCurrentCollateralRatio","inputs":[{"name":"_id","type":"uint256","internalType":"uint256"}],"outputs":[{"name":"","type":"uint256","internalType":"uint256"}],"stateMutability":"nonpayable"},{"type":"function","name":"calculateCurrentDebt","inputs":[{"name":"_id","type":"uint256","internalType":"uint256"}],"outputs":[{"name":"","type":"uint256","internalType":"uint256"}],"stateMutability":"view"},{"type":"function","name":"calculateInterestAccrued","inputs":[{"name":"_id","type":"uint256","internalType":"uint256"}],"outputs":[{"name":"","type":"uint256","internalType":"uint256"}],"stateMutability":"view"},{"type":"function","name":"calculateTotalCollateralTokens","inputs":[{"name":"_id","type":"uint256","internalType":"uint256"}],"outputs":[{"name":"","type":"uint256","internalType":"uint256"}],"stateMutability":"nonpayable"},{"type":"function","name":"cancelRequest","inputs":[{"name":"_id","type":"uint256","internalType":"uint256"}],"outputs":[],"stateMutability":"nonpayable"},{"type":"function","name":"cancelRequestOnLowCollection","inputs":[{"name":"_id","type":"uint256","internalType":"uint256"}],"outputs":[],"stateMutability":"nonpayable"},{"type":"function","name":"cancelRequestOnRequestedStateAtEnd","inputs":[{"name":"_id","type":"uint256","internalType":"uint256"}],"outputs":[],"stateMutability":"nonpayable"},{"type":"function","name":"close","inputs":[{"name":"_id","type":"uint256","internalType":"uint256"}],"outputs":[],"stateMutability":"nonpayable"},{"type":"function","name":"depositCollateral","inputs":[{"name":"_id","type":"uint256","internalType":"uint256"},{"name":"_amount","type":"uint256","internalType":"uint256"},{"name":"_fromSavingsAccount","type":"bool","internalType":"bool"}],"outputs":[],"stateMutability":"nonpayable"},{"type":"function","name":"depositedCollateralInShares","inputs":[{"name":"","type":"uint256","internalType":"uint256"}],"outputs":[{"name":"","type":"uint256","internalType":"uint256"}],"stateMutability":"view"},{"type":"function","name":"getBorrowerAddress","inputs":[{"name":"_id","type":"uint256","internalType":"uint256"}],"outputs":[{"name":"","type":"address","internalType":"address"}],"stateMutability":"view"},{"type":"function","name":"getEndsAt","inputs":[{"name":"_id","type":"uint256","internalType":"uint256"}],"outputs":[{"name":"","type":"uint256","internalType":"uint256"}],"stateMutability":"view"},{"type":"function","name":"getEquivalentCollateralTokens","inputs":[{"name":"_id","type":"uint256","internalType":"uint256"},{"name":"_borrowTokenAmount","type":"uint256","internalType":"uint256"}],"outputs":[{"name":"","type":"uint256","internalType":"uint256"}],"stateMutability":"view"},{"type":"function","name":"getPrincipal","inputs":[{"name":"_id","type":"uint256","internalType":"uint256"}],"outputs":[{"name":"","type":"uint256","internalType":"uint256"}],"stateMutability":"view"},{"type":"function","name":"getRequiredCollateral","inputs":[{"name":"_id","type":"uint256","internalType":"uint256"},{"name":"_borrowTokenAmount","type":"uint256","internalType":"uint256"}],"outputs":[{"name":"","type":"uint256","internalType":"uint256"}],"stateMutability":"view"},{"type":"function","name":"getStatusAndUpdate","inputs":[{"name":"_id","type":"uint256","internalType":"uint256"}],"outputs":[{"name":"","type":"uint8","internalType":"enum IPooledCreditLineEnums.PooledCreditLineStatus"}],"stateMutability":"nonpayable"},{"type":"function","name":"initialize","inputs":[{"name":"_owner","type":"address","internalType":"address"},{"name":"_protocolFeeFraction","type":"uint256","internalType":"uint256"},{"name":"_protocolFeeCollector","type":"address","internalType":"address"}],"outputs":[],"stateMutability":"nonpayable"},{"type":"function","name":"liquidate","inputs":[{"name":"_id","type":"uint256","internalType":"uint256"}],"outputs":[{"name":"","type":"address","internalType":"address"},{"name":"","type":"uint256","internalType":"uint256"}],"stateMutability":"nonpayable"},{"type":"function","name":"owner","inputs":[],"outputs":[{"name":"","type":"address","internalType":"address"}],"stateMutability":"view"},{"type":"function","name":"pooledCreditLineConstants","inputs":[{"name":"","type":"uint256","internalType":"uint256"}],"outputs":[{"name":"borrowLimit","type":"uint128","internalType":"uint128"},{"name":"borrowRate","type":"uint128","internalType":"uint128"},{"name":"idealCollateralRatio","type":"uint256","internalType":"uint256"},{"name":"borrower","type":"address","internalType":"address"},{"name":"borrowAsset","type":"address","internalType":"address"},{"name":"collateralAsset","type":"address","internalType":"address"},{"name":"startsAt","type":"uint256","internalType":"uint256"},{"name":"endsAt","type":"uint256","internalType":"uint256"},{"name":"defaultsAt","type":"uint256","internalType":"uint256"},{"name":"borrowAssetStrategy","type":"address","internalType":"address"},{"name":"collateralAssetStrategy","type":"address","internalType":"address"},{"name":"gracePenaltyRate","type":"uint256","internalType":"uint256"}],"stateMutability":"view"},{"type":"function","name":"pooledCreditLineCounter","inputs":[],"outputs":[{"name":"","type":"uint256","internalType":"uint256"}],"stateMutability":"view"},{"type":"function","name":"pooledCreditLineVariables","inputs":[{"name":"","type":"uint256","internalType":"uint256"}],"outputs":[{"name":"status","type":"uint8","internalType":"enum IPooledCreditLineEnums.PooledCreditLineStatus"},{"name":"principal","type":"uint256","internalType":"uint256"},{"name":"totalInterestRepaid","type":"uint256","internalType":"uint256"},{"name":"lastPrincipalUpdateTime","type":"uint256","internalType":"uint256"},{"name":"interestAccruedTillLastPrincipalUpdate","type":"uint256","internalType":"uint256"}],"stateMutability":"view"},{"type":"function","name":"protocolFeeCollector","inputs":[],"outputs":[{"name":"","type":"address","internalType":"address"}],"stateMutability":"view"},{"type":"function","name":"protocolFeeFraction","inputs":[],"outputs":[{"name":"","type":"uint256","internalType":"uint256"}],"stateMutability":"view"},{"type":"function","name":"renounceOwnership","inputs":[],"outputs":[],"stateMutability":"nonpayable"},{"type":"function","name":"repay","inputs":[{"name":"_id","type":"uint256","internalType":"uint256"},{"name":"_amount","type":"uint256","internalType":"uint256"}],"outputs":[],"stateMutability":"nonpayable"},{"type":"function","name":"request","inputs":[{"name":"_request","type":"tuple","internalType":"struct IPooledCreditLineDeclarations.Request","components":[{"name":"collateralRatio","type":"uint256","internalType":"uint256"},{"name":"duration","type":"uint256","internalType":"uint256"},{"name":"lenderVerifier","type":"address","internalType":"address"},{"name":"defaultGracePeriod","type":"uint256","internalType":"uint256"},{"name":"gracePenaltyRate","type":"uint256","internalType":"uint256"},{"name":"collectionPeriod","type":"uint256","internalType":"uint256"},{"name":"minBorrowAmount","type":"uint256","internalType":"uint256"},{"name":"borrowLimit","type":"uint128","internalType":"uint128"},{"name":"borrowRate","type":"uint128","internalType":"uint128"},{"name":"collateralAsset","type":"address","internalType":"address"},{"name":"borrowAssetStrategy","type":"address","internalType":"address"},{"name":"collateralAssetStrategy","type":"address","internalType":"address"},{"name":"borrowAsset","type":"address","internalType":"address"},{"name":"borrowerVerifier","type":"address","internalType":"address"},{"name":"areTokensTransferable","type":"bool","internalType":"bool"}]}],"outputs":[{"name":"","type":"uint256","internalType":"uint256"}],"stateMutability":"nonpayable"},{"type":"function","name":"terminate","inputs":[{"name":"_id","type":"uint256","internalType":"uint256"}],"outputs":[],"stateMutability":"nonpayable"},{"type":"function","name":"transferOwnership","inputs":[{"name":"newOwner","type":"address","internalType":"address"}],"outputs":[],"stateMutability":"nonpayable"},{"type":"function","name":"updateProtocolFeeCollector","inputs":[{"name":"_protocolFeeCollector","type":"address","internalType":"address"}],"outputs":[],"stateMutability":"nonpayable"},{"type":"function","name":"updateProtocolFeeFraction","inputs":[{"name":"_protocolFeeFraction","type":"uint256","internalType":"uint256"}],"outputs":[],"stateMutability":"nonpayable"},{"type":"function","name":"withdrawAllCollateral","inputs":[{"name":"_id","type":"uint256","internalType":"uint256"},{"name":"_toSavingsAccount","type":"bool","internalType":"bool"}],"outputs":[],"stateMutability":"nonpayable"},{"type":"function","name":"withdrawCollateral","inputs":[{"name":"_id","type":"uint256","internalType":"uint256"},{"name":"_amount","type":"uint256","internalType":"uint256"},{"name":"_toSavingsAccount","type":"bool","internalType":"bool"}],"outputs":[],"stateMutability":"nonpayable"},{"type":"function","name":"withdrawableCollateral","inputs":[{"name":"_id","type":"uint256","internalType":"uint256"}],"outputs":[{"name":"","type":"uint256","internalType":"uint256"}],"stateMutability":"nonpayable"},{"type":"event","name":"BorrowedFromPooledCreditLine","inputs":[{"name":"id","type":"uint256","indexed":true,"internalType":"uint256"},{"name":"borrowShares","type":"uint256","indexed":false,"internalType":"uint256"}],"anonymous":false},{"type":"event","name":"CollateralSharesDeposited","inputs":[{"name":"id","type":"uint256","indexed":true,"internalType":"uint256"},{"name":"shares","type":"uint256","indexed":false,"internalType":"uint256"}],"anonymous":false},{"type":"event","name":"CollateralSharesWithdrawn","inputs":[{"name":"id","type":"uint256","indexed":true,"internalType":"uint256"},{"name":"shares","type":"uint256","indexed":false,"internalType":"uint256"}],"anonymous":false},{"type":"event","name":"CompletePooledCreditLineRepaid","inputs":[{"name":"id","type":"uint256","indexed":true,"internalType":"uint256"},{"name":"repayer","type":"address","indexed":true,"internalType":"address"},{"name":"repayAmount","type":"uint256","indexed":false,"internalType":"uint256"}],"anonymous":false},{"type":"event","name":"OwnershipTransferred","inputs":[{"name":"previousOwner","type":"address","indexed":true,"internalType":"address"},{"name":"newOwner","type":"address","indexed":true,"internalType":"address"}],"anonymous":false},{"type":"event","name":"PartialPooledCreditLineRepaid","inputs":[{"name":"id","type":"uint256","indexed":true,"internalType":"uint256"},{"name":"repayer","type":"address","indexed":true,"internalType":"address"},{"name":"repayAmount","type":"uint256","indexed":false,"internalType":"uint256"}],"anonymous":false},{"type":"event","name":"PooledCreditLineAccepted","inputs":[{"name":"id","type":"uint256","indexed":true,"internalType":"uint256"},{"name":"amount","type":"uint256","indexed":false,"internalType":"uint256"}],"anonymous":false},{"type":"event","name":"PooledCreditLineCancelled","inputs":[{"name":"id","type":"uint256","indexed":true,"internalType":"uint256"},{"name":"reason","type":"uint8","indexed":true,"internalType":"enum IPooledCreditLineEnums.CancellationStatus"}],"anonymous":false},{"type":"event","name":"PooledCreditLineClosed","inputs":[{"name":"id","type":"uint256","indexed":true,"internalType":"uint256"}],"anonymous":false},{"type":"event","name":"PooledCreditLineLiquidated","inputs":[{"name":"id","type":"uint256","indexed":true,"internalType":"uint256"},{"name":"shares","type":"uint256","indexed":false,"internalType":"uint256"}],"anonymous":false},{"type":"event","name":"PooledCreditLineRequested","inputs":[{"name":"id","type":"uint256","indexed":true,"internalType":"uint256"},{"name":"borrower","type":"address","indexed":true,"internalType":"address"},{"name":"borrowerVerifier","type":"address","indexed":true,"internalType":"address"}],"anonymous":false},{"type":"event","name":"PooledCreditLineTerminated","inputs":[{"name":"id","type":"uint256","indexed":true,"internalType":"uint256"}],"anonymous":false},{"type":"event","name":"ProtocolFeeCollectorUpdated","inputs":[{"name":"updatedProtocolFeeCollector","type":"address","indexed":true,"internalType":"address"}],"anonymous":false},{"type":"event","name":"ProtocolFeeFractionUpdated","inputs":[{"name":"updatedProtocolFee","type":"uint256","indexed":false,"internalType":"uint256"}],"anonymous":false}],"bytecode":{"object":"0x6101606040523480156200001257600080fd5b506040516200a0cf3803806200a0cf83398181016040528101906200003891906200047a565b600073ffffffffffffffffffffffffffffffffffffffff168773ffffffffffffffffffffffffffffffffffffffff161415620000ab576040517f08c379a0000000000000000000000000000000000000000000000000000000008152600401620000a290620006b3565b60405180910390fd5b600073ffffffffffffffffffffffffffffffffffffffff168673ffffffffffffffffffffffffffffffffffffffff1614156200011e576040517f08c379a00000000000000000000000000000000000000000000000000000000081526004016200011590620006f7565b60405180910390fd5b600073ffffffffffffffffffffffffffffffffffffffff168573ffffffffffffffffffffffffffffffffffffffff16141562000191576040517f08c379a000000000000000000000000000000000000000000000000000000000815260040162000188906200073b565b60405180910390fd5b600073ffffffffffffffffffffffffffffffffffffffff168473ffffffffffffffffffffffffffffffffffffffff16141562000204576040517f08c379a0000000000000000000000000000000000000000000000000000000008152600401620001fb906200075d565b60405180910390fd5b600073ffffffffffffffffffffffffffffffffffffffff168373ffffffffffffffffffffffffffffffffffffffff16141562000277576040517f08c379a00000000000000000000000000000000000000000000000000000000081526004016200026e90620006d5565b60405180910390fd5b600073ffffffffffffffffffffffffffffffffffffffff168273ffffffffffffffffffffffffffffffffffffffff161415620002ea576040517f08c379a0000000000000000000000000000000000000000000000000000000008152600401620002e19062000719565b60405180910390fd5b8673ffffffffffffffffffffffffffffffffffffffff1660808173ffffffffffffffffffffffffffffffffffffffff1660601b815250508573ffffffffffffffffffffffffffffffffffffffff1660c08173ffffffffffffffffffffffffffffffffffffffff1660601b815250508473ffffffffffffffffffffffffffffffffffffffff1660a08173ffffffffffffffffffffffffffffffffffffffff1660601b815250508373ffffffffffffffffffffffffffffffffffffffff166101008173ffffffffffffffffffffffffffffffffffffffff1660601b815250508273ffffffffffffffffffffffffffffffffffffffff166101208173ffffffffffffffffffffffffffffffffffffffff1660601b815250508173ffffffffffffffffffffffffffffffffffffffff1660e08173ffffffffffffffffffffffffffffffffffffffff1660601b815250508061014081815250505050505050505062000802565b6000815190506200045d81620007ce565b92915050565b6000815190506200047481620007e8565b92915050565b600080600080600080600060e0888a0312156200049657600080fd5b6000620004a68a828b016200044c565b9750506020620004b98a828b016200044c565b9650506040620004cc8a828b016200044c565b9550506060620004df8a828b016200044c565b9450506080620004f28a828b016200044c565b93505060a0620005058a828b016200044c565b92505060c0620005188a828b0162000463565b91505092959891949750929550565b6000620005366008836200077f565b91507f50434c3a434f4e310000000000000000000000000000000000000000000000006000830152602082019050919050565b6000620005786008836200077f565b91507f50434c3a434f4e350000000000000000000000000000000000000000000000006000830152602082019050919050565b6000620005ba6008836200077f565b91507f50434c3a434f4e320000000000000000000000000000000000000000000000006000830152602082019050919050565b6000620005fc6008836200077f565b91507f50434c3a434f4e360000000000000000000000000000000000000000000000006000830152602082019050919050565b60006200063e6008836200077f565b91507f50434c3a434f4e330000000000000000000000000000000000000000000000006000830152602082019050919050565b6000620006806008836200077f565b91507f50434c3a434f4e340000000000000000000000000000000000000000000000006000830152602082019050919050565b60006020820190508181036000830152620006ce8162000527565b9050919050565b60006020820190508181036000830152620006f08162000569565b9050919050565b600060208201905081810360008301526200071281620005ab565b9050919050565b600060208201905081810360008301526200073481620005ed565b9050919050565b6000602082019050818103600083015262000756816200062f565b9050919050565b60006020820190508181036000830152620007788162000671565b9050919050565b600082825260208201905092915050565b60006200079d82620007a4565b9050919050565b600073ffffffffffffffffffffffffffffffffffffffff82169050919050565b6000819050919050565b620007d98162000790565b8114620007e557600080fd5b50565b620007f381620007c4565b8114620007ff57600080fd5b50565b60805160601c60a05160601c60c05160601c60e05160601c6101005160601c6101205160601c6101405161979f6200093060003980614a625280616847525080612c8c52806135f452806145715250806132a152806139675280613a6652508061168f5280613b635280613c195280613c695280613dbe5280613dff5280613f495280613f8a52806140d35280614114528061425d528061429e52806143e75280614428525080610a195280610bd8528061285a5280613786528061488f5280615d9f525080611d2a5280611e3c52806130915280615c185280615cd05280616d955280616f4a5250806115ee528061182b528061231052806127955280612e3b528061335d52806133e95280614fc952806158515280616c215280616dd35280616f88525061979f6000f3fe608060405234801561001057600080fd5b506004361061027f5760003560e01c8063715018a61161015c578063b8cc25bd116100ce578063d8aed14511610087578063d8aed14514610808578063da4779e014610824578063de056bc914610854578063de9de06e14610884578063ef4cadc5146108a0578063f2fde38b146108be5761027f565b8063b8cc25bd1461070e578063c350a1b51461073e578063c3b0a03d1461075a578063d58ed1dc1461078a578063d68f2170146107ba578063d6e260a5146107ea5761027f565b80638878e26c116101205780638878e26c146106385780638da5cb5b146106685780638f75315b14610686578063919c1c8a146106a4578063a8c162ab146106c0578063ad724fa6146106de5761027f565b8063715018a6146105b8578063791ae748146105c25780637a828b28146105e05780637b2a2d1f146105fc578063850a15011461061a5761027f565b80633a0298eb116101f5578063565b54ea116101b9578063565b54ea146104e45780635a76c696146105005780635c8edac41461051c578063667c95ba146105385780636a46c1e1146105545780636b5da855146105845761027f565b80633a0298eb146104195780634089c7e314610437578063415f124014610467578063451226d11461049857806354a26830146104b45761027f565b806322adad3e1161024757806322adad3e146103455780632322ac3614610361578063257dc1991461039157806329199019146103af5780633015394c146103df57806334410ba4146103fb5761027f565b806303347d631461028457806306c6a002146102bf5780630a19399a146102ef5780630aebeb4e1461030d5780630ecbcdab14610329575b600080fd5b61029e60048036038101906102999190617b60565b6108da565b6040516102b69c9b9a999897969594939291906191bc565b60405180910390f35b6102d960048036038101906102d49190617b60565b610a12565b6040516102e69190619276565b60405180910390f35b6102f7610bd6565b6040516103049190618b59565b60405180910390f35b61032760048036038101906103229190617b60565b610bfa565b005b610343600480360381019061033e9190617bee565b610e98565b005b61035f600480360381019061035a9190617cb5565b610fd4565b005b61037b60048036038101906103769190617bee565b61121c565b6040516103889190619276565b60405180910390f35b6103996112f0565b6040516103a69190619276565b60405180910390f35b6103c960048036038101906103c49190617bee565b6112f6565b6040516103d69190619276565b60405180910390f35b6103f960048036038101906103f49190617b60565b6113f2565b005b61040361168d565b6040516104109190618b3e565b60405180910390f35b6104216116b1565b60405161042e9190619276565b60405180910390f35b610451600480360381019061044c9190617b60565b6116b7565b60405161045e9190618bc5565b60405180910390f35b610481600480360381019061047c9190617b60565b61178e565b60405161048f929190618afa565b60405180910390f35b6104b260048036038101906104ad9190617cb5565b611b5e565b005b6104ce60048036038101906104c99190617b60565b611f73565b6040516104db9190619276565b60405180910390f35b6104fe60048036038101906104f99190617a1a565b61212a565b005b61051a60048036038101906105159190617c66565b612276565b005b61053660048036038101906105319190617bb2565b612576565b005b610552600480360381019061054d9190617b60565b6126fb565b005b61056e60048036038101906105699190617b60565b61281f565b60405161057b9190619276565b60405180910390f35b61059e60048036038101906105999190617b60565b612ad7565b6040516105af959493929190618be0565b60405180910390f35b6105c0612b1a565b005b6105ca612c8a565b6040516105d79190618baa565b60405180910390f35b6105fa60048036038101906105f59190617b60565b612cae565b005b61060461308f565b6040516106119190618b74565b60405180910390f35b6106226130b3565b60405161062f91906188c5565b60405180910390f35b610652600480360381019061064d9190617b60565b6130d9565b60405161065f9190619276565b60405180910390f35b610670613275565b60405161067d91906188c5565b60405180910390f35b61068e61329f565b60405161069b9190618b8f565b60405180910390f35b6106be60048036038101906106b99190617b60565b6132c3565b005b6106c86133e7565b6040516106d59190618b23565b60405180910390f35b6106f860048036038101906106f39190617b60565b61340b565b6040516107059190619276565b60405180910390f35b61072860048036038101906107239190617b60565b61342b565b6040516107359190619276565b60405180910390f35b61075860048036038101906107539190617a43565b613443565b005b610774600480360381019061076f9190617b0d565b61356f565b6040516107819190619276565b60405180910390f35b6107a4600480360381019061079f9190617b60565b61477b565b6040516107b191906188c5565b60405180910390f35b6107d460048036038101906107cf9190617b60565b6147bb565b6040516107e19190619276565b60405180910390f35b6107f2614a60565b6040516107ff9190619276565b60405180910390f35b610822600480360381019061081d9190617bee565b614a84565b005b61083e60048036038101906108399190617b60565b615111565b60405161084b9190619276565b60405180910390f35b61086e60048036038101906108699190617b60565b615131565b60405161087b9190619276565b60405180910390f35b61089e60048036038101906108999190617b60565b61519e565b005b6108a861529e565b6040516108b59190619276565b60405180910390f35b6108d860048036038101906108d39190617a1a565b6152aa565b005b609c6020528060005260406000206000915090508060000160009054906101000a90046fffffffffffffffffffffffffffffffff16908060000160109054906101000a90046fffffffffffffffffffffffffffffffff16908060010154908060020160009054906101000a900473ffffffffffffffffffffffffffffffffffffffff16908060030160009054906101000a900473ffffffffffffffffffffffffffffffffffffffff16908060040160009054906101000a900473ffffffffffffffffffffffffffffffffffffffff16908060050154908060060154908060070154908060080160009054906101000a900473ffffffffffffffffffffffffffffffffffffffff16908060090160009054906101000a900473ffffffffffffffffffffffffffffffffffffffff169080600a015490508c565b60008060007f000000000000000000000000000000000000000000000000000000000000000073ffffffffffffffffffffffffffffffffffffffff166310603c11609c600087815260200190815260200160002060040160009054906101000a900473ffffffffffffffffffffffffffffffffffffffff16609c600088815260200190815260200160002060030160009054906101000a900473ffffffffffffffffffffffffffffffffffffffff166040518363ffffffff1660e01b8152600401610ade929190618909565b604080518083038186803b158015610af557600080fd5b505afa158015610b09573d6000803e3d6000fd5b505050506040513d601f19601f82011682018060405250810190610b2d9190617c2a565b915091506000610b3c85615131565b905060007fffffffffffffffffffffffffffffffffffffffffffffffffffffffffffffffff905060008214610bca57610bc783600a0a610bb9670de0b6b3a7640000610bab86610b9d8a610b8f8e6130d9565b61549f90919063ffffffff16565b61552590919063ffffffff16565b61549f90919063ffffffff16565b61552590919063ffffffff16565b90505b80945050505050919050565b7f000000000000000000000000000000000000000000000000000000000000000081565b60026001541415610c73576040517f08c379a000000000000000000000000000000000000000000000000000000000815260040180806020018281038252601f8152602001807f5265656e7472616e637947756172643a207265656e7472616e742063616c6c0081525060200191505060405180910390fd5b6002600181905550803373ffffffffffffffffffffffffffffffffffffffff16609c600083815260200190815260200160002060020160009054906101000a900473ffffffffffffffffffffffffffffffffffffffff1673ffffffffffffffffffffffffffffffffffffffff1614610d20576040517f08c379a0000000000000000000000000000000000000000000000000000000008152600401610d1790618c33565b60405180910390fd5b6000609b600084815260200190815260200160002060000160009054906101000a900460ff16905060026006811115610d5557fe5b816006811115610d6157fe5b1480610d83575060046006811115610d7557fe5b816006811115610d8157fe5b145b610dc2576040517f08c379a0000000000000000000000000000000000000000000000000000000008152600401610db9906190f3565b60405180910390fd5b6000609b60008581526020019081526020016000206001015414610e1b576040517f08c379a0000000000000000000000000000000000000000000000000000000008152600401610e1290619053565b60405180910390fd5b6003609b600085815260200190815260200160002060000160006101000a81548160ff02191690836006811115610e4e57fe5b0217905550610e5e8360006155ae565b50827f53f1452828dbeb56b2b20e6cffd1adbb78169a0ecd37967018ca8e146d90ee3660405160405180910390a250506001808190555050565b60026001541415610f11576040517f08c379a000000000000000000000000000000000000000000000000000000000815260040180806020018281038252601f8152602001807f5265656e7472616e637947756172643a207265656e7472616e742063616c6c0081525060200191505060405180910390fd5b6002600181905550813373ffffffffffffffffffffffffffffffffffffffff16609c600083815260200190815260200160002060020160009054906101000a900473ffffffffffffffffffffffffffffffffffffffff1673ffffffffffffffffffffffffffffffffffffffff1614610fbe576040517f08c379a0000000000000000000000000000000000000000000000000000000008152600401610fb590618c33565b60405180910390fd5b610fc8838361565a565b50600180819055505050565b6002600154141561104d576040517f08c379a000000000000000000000000000000000000000000000000000000000815260040180806020018281038252601f8152602001807f5265656e7472616e637947756172643a207265656e7472616e742063616c6c0081525060200191505060405180910390fd5b6002600181905550823373ffffffffffffffffffffffffffffffffffffffff16609c600083815260200190815260200160002060020160009054906101000a900473ffffffffffffffffffffffffffffffffffffffff1673ffffffffffffffffffffffffffffffffffffffff16146110fa576040517f08c379a00000000000000000000000000000000000000000000000000000000081526004016110f190618c33565b60405180910390fd5b6000611105856147bb565b90508084111561114a576040517f08c379a000000000000000000000000000000000000000000000000000000000815260040161114190618cf3565b60405180910390fd5b600084141561118e576040517f08c379a0000000000000000000000000000000000000000000000000000000008152600401611185906190b3565b60405180910390fd5b60006111d286609c600089815260200190815260200160002060040160009054906101000a900473ffffffffffffffffffffffffffffffffffffffff168787615ab4565b915050857f4a57ae76ed37bd40e42a6b2edec851a1faa115d5b81334275adb1eeddc199540826040516112059190619276565b60405180910390a250505060018081905550505050565b600080609c600085815260200190815260200160002060040160009054906101000a900473ffffffffffffffffffffffffffffffffffffffff1690506000609c600086815260200190815260200160002060030160009054906101000a900473ffffffffffffffffffffffffffffffffffffffff16905060006112a0838387615d98565b90506112e5670de0b6b3a76400006112d7609c60008a8152602001908152602001600020600101548461549f90919063ffffffff16565b61552590919063ffffffff16565b935050505092915050565b60995481565b600080609c600085815260200190815260200160002060040160009054906101000a900473ffffffffffffffffffffffffffffffffffffffff169050600073ffffffffffffffffffffffffffffffffffffffff168173ffffffffffffffffffffffffffffffffffffffff1614156113a2576040517f08c379a000000000000000000000000000000000000000000000000000000000815260040161139990618f33565b60405180910390fd5b6000609c600086815260200190815260200160002060030160009054906101000a900473ffffffffffffffffffffffffffffffffffffffff1690506113e8828286615d98565b9250505092915050565b6002600154141561146b576040517f08c379a000000000000000000000000000000000000000000000000000000000815260040180806020018281038252601f8152602001807f5265656e7472616e637947756172643a207265656e7472616e742063616c6c0081525060200191505060405180910390fd5b6002600181905550803373ffffffffffffffffffffffffffffffffffffffff16609c600083815260200190815260200160002060020160009054906101000a900473ffffffffffffffffffffffffffffffffffffffff1673ffffffffffffffffffffffffffffffffffffffff1614611518576040517f08c379a000000000000000000000000000000000000000000000000000000000815260040161150f90618c33565b60405180910390fd5b6001600681111561152557fe5b609b600084815260200190815260200160002060000160009054906101000a900460ff16600681111561155457fe5b14611594576040517f08c379a000000000000000000000000000000000000000000000000000000000815260040161158b90618c73565b60405180910390fd5b609c60008381526020019081526020016000206005015442106115ec576040517f08c379a00000000000000000000000000000000000000000000000000000000081526004016115e390619133565b60405180910390fd5b7f000000000000000000000000000000000000000000000000000000000000000073ffffffffffffffffffffffffffffffffffffffff16631523a760836040518263ffffffff1660e01b81526004016116459190619276565b600060405180830381600087803b15801561165f57600080fd5b505af1158015611673573d6000803e3d6000fd5b50505050611682826000615e84565b506001808190555050565b7f000000000000000000000000000000000000000000000000000000000000000081565b60975481565b600080609b600084815260200190815260200160002060000160009054906101000a900460ff169050600260068111156116ed57fe5b8160068111156116f957fe5b14801561171c575042609c60008581526020019081526020016000206006015411155b15611785576000609b60008581526020019081526020016000206001015414611748576004905061174d565b600390505b80609b600085815260200190815260200160002060000160006101000a81548160ff0219169083600681111561177f57fe5b02179055505b80915050919050565b6000806002600154141561180a576040517f08c379a000000000000000000000000000000000000000000000000000000000815260040180806020018281038252601f8152602001807f5265656e7472616e637947756172643a207265656e7472616e742063616c6c0081525060200191505060405180910390fd5b60026001819055503373ffffffffffffffffffffffffffffffffffffffff167f000000000000000000000000000000000000000000000000000000000000000073ffffffffffffffffffffffffffffffffffffffff16146118a0576040517f08c379a000000000000000000000000000000000000000000000000000000000815260040161189790618d53565b60405180910390fd5b60006118ab846116b7565b90506000609b6000868152602001908152602001600020600101541415611907576040517f08c379a00000000000000000000000000000000000000000000000000000000081526004016118fe90619153565b60405180910390fd5b6002600681111561191457fe5b81600681111561192057fe5b148061194257506004600681111561193457fe5b81600681111561194057fe5b145b611981576040517f08c379a000000000000000000000000000000000000000000000000000000000815260040161197890619033565b60405180910390fd5b6000609c600086815260200190815260200160002060040160009054906101000a900473ffffffffffffffffffffffffffffffffffffffff16905060006119c786610a12565b9050609c600087815260200190815260200160002060010154811080611a035750609c6000878152602001908152602001600020600701544210155b611a42576040517f08c379a0000000000000000000000000000000000000000000000000000000008152600401611a39906190d3565b60405180910390fd5b6000611a4d87615131565b90506000609c600089815260200190815260200160002060030160009054906101000a900473ffffffffffffffffffffffffffffffffffffffff1690506000611a97858385615d98565b90506000611aa48a6130d9565b905080821115611ab2578091505b6005609b60008c815260200190815260200160002060000160006101000a81548160ff02191690836006811115611ae557fe5b021790555060008060008414611b0b57611b028c89866000615ab4565b80925081935050505b8b7f302a8e22c74f98fbd33b237407a4b0f6478f4343c72e4b51c3f708fa3e31fca882604051611b3b9190619276565b60405180910390a287829a509a5050505050505050505060018081905550915091565b60026001541415611bd7576040517f08c379a000000000000000000000000000000000000000000000000000000000815260040180806020018281038252601f8152602001807f5265656e7472616e637947756172643a207265656e7472616e742063616c6c0081525060200191505060405180910390fd5b60026001819055506000821415611c23576040517f08c379a0000000000000000000000000000000000000000000000000000000008152600401611c1a90618d13565b60405180910390fd5b6000611c2e846116b7565b905060026006811115611c3d57fe5b816006811115611c4957fe5b1480611c6b575060046006811115611c5d57fe5b816006811115611c6957fe5b145b611caa576040517f08c379a0000000000000000000000000000000000000000000000000000000008152600401611ca190618c53565b60405180910390fd5b6000609c600086815260200190815260200160002060040160009054906101000a900473ffffffffffffffffffffffffffffffffffffffff1690506000609c600087815260200190815260200160002060090160009054906101000a900473ffffffffffffffffffffffffffffffffffffffff16905060008415611de2577f000000000000000000000000000000000000000000000000000000000000000073ffffffffffffffffffffffffffffffffffffffff16636e275bd2848433308b6040518663ffffffff1660e01b8152600401611d89959493929190618932565b602060405180830381600087803b158015611da357600080fd5b505af1158015611db7573d6000803e3d6000fd5b505050506040513d601f19601f82011682018060405250810190611ddb9190617b89565b9050611eee565b611e0f3330888673ffffffffffffffffffffffffffffffffffffffff1661608a909392919063ffffffff16565b611e3a82878573ffffffffffffffffffffffffffffffffffffffff1661614b9092919063ffffffff16565b7f000000000000000000000000000000000000000000000000000000000000000073ffffffffffffffffffffffffffffffffffffffff16630284c3f58484308a6040518563ffffffff1660e01b8152600401611e999493929190618a7e565b602060405180830381600087803b158015611eb357600080fd5b505af1158015611ec7573d6000803e3d6000fd5b505050506040513d601f19601f82011682018060405250810190611eeb9190617b89565b90505b611f1481609a60008a81526020019081526020016000205461631090919063ffffffff16565b609a600089815260200190815260200160002081905550867f9e88cff32121d14264221ec0dea732d75f3be502f572ccb4a73781b323cc0b7b82604051611f5b9190619276565b60405180910390a25050505060018081905550505050565b600080609b60008481526020019081526020016000206003015490506000811415611fa2576000915050612125565b6000611fb7824261639890919063ffffffff16565b90506000609c60008681526020019081526020016000206006015490506000609c6000878152602001908152602001600020600a015490506000609b60008881526020019081526020016000206001015490506000609c600089815260200190815260200160002060000160109054906101000a90046fffffffffffffffffffffffffffffffff166fffffffffffffffffffffffffffffffff169050600084871115801561206457508442115b1561208d576120868385612081884261639890919063ffffffff16565b61641b565b90506120b6565b848711156120b5576120b283856120ad8a4261639890919063ffffffff16565b61641b565b90505b5b60006120c384848961641b565b90506120d8828261631090919063ffffffff16565b905060006120ee82670de0b6b3a7640000616461565b9050612119609b60008d8152602001908152602001600020600401548261631090919063ffffffff16565b99505050505050505050505b919050565b612132616495565b73ffffffffffffffffffffffffffffffffffffffff16612150613275565b73ffffffffffffffffffffffffffffffffffffffff16146121d9576040517f08c379a00000000000000000000000000000000000000000000000000000000081526004018080602001828103825260208152602001807f4f776e61626c653a2063616c6c6572206973206e6f7420746865206f776e657281525060200191505060405180910390fd5b8073ffffffffffffffffffffffffffffffffffffffff16609860009054906101000a900473ffffffffffffffffffffffffffffffffffffffff1673ffffffffffffffffffffffffffffffffffffffff16141561226a576040517f08c379a000000000000000000000000000000000000000000000000000000000815260040161226190618f73565b60405180910390fd5b6122738161649d565b50565b600260015414156122ef576040517f08c379a000000000000000000000000000000000000000000000000000000000815260040180806020018281038252601f8152602001807f5265656e7472616e637947756172643a207265656e7472616e742063616c6c0081525060200191505060405180910390fd5b60026001819055503373ffffffffffffffffffffffffffffffffffffffff167f000000000000000000000000000000000000000000000000000000000000000073ffffffffffffffffffffffffffffffffffffffff1614612385576040517f08c379a000000000000000000000000000000000000000000000000000000000815260040161237c90618d53565b60405180910390fd5b6001600681111561239257fe5b609b600085815260200190815260200160002060000160009054906101000a900460ff1660068111156123c157fe5b14612401576040517f08c379a00000000000000000000000000000000000000000000000000000000081526004016123f890618e53565b60405180910390fd5b609c600084815260200190815260200160002060020160009054906101000a900473ffffffffffffffffffffffffffffffffffffffff1673ffffffffffffffffffffffffffffffffffffffff168173ffffffffffffffffffffffffffffffffffffffff16146124a5576040517f08c379a000000000000000000000000000000000000000000000000000000000815260040161249c90618c93565b60405180910390fd5b6002609b600085815260200190815260200160002060000160006101000a81548160ff021916908360068111156124d857fe5b02179055506124e682616594565b609c600085815260200190815260200160002060000160006101000a8154816fffffffffffffffffffffffffffffffff02191690836fffffffffffffffffffffffffffffffff160217905550827f2a7fb688f5643b4080913e2916b52eceb85834a090e91246c9f3c2f716058537836040516125629190619276565b60405180910390a260018081905550505050565b600260015414156125ef576040517f08c379a000000000000000000000000000000000000000000000000000000000815260040180806020018281038252601f8152602001807f5265656e7472616e637947756172643a207265656e7472616e742063616c6c0081525060200191505060405180910390fd5b6002600181905550813373ffffffffffffffffffffffffffffffffffffffff16609c600083815260200190815260200160002060020160009054906101000a900473ffffffffffffffffffffffffffffffffffffffff1673ffffffffffffffffffffffffffffffffffffffff161461269c576040517f08c379a000000000000000000000000000000000000000000000000000000000815260040161269390618c33565b60405180910390fd5b60006126a884846155ae565b905060008114156126ee576040517f08c379a00000000000000000000000000000000000000000000000000000000081526004016126e590618db3565b60405180910390fd5b5050600180819055505050565b60026001541415612774576040517f08c379a000000000000000000000000000000000000000000000000000000000815260040180806020018281038252601f8152602001807f5265656e7472616e637947756172643a207265656e7472616e742063616c6c0081525060200191505060405180910390fd5b60026001819055503373ffffffffffffffffffffffffffffffffffffffff167f000000000000000000000000000000000000000000000000000000000000000073ffffffffffffffffffffffffffffffffffffffff161461280a576040517f08c379a000000000000000000000000000000000000000000000000000000000815260040161280190618d53565b60405180910390fd5b612815816001615e84565b6001808190555050565b60008061282b836116b7565b90506002600681111561283a57fe5b81600681111561284657fe5b14612855576000915050612ad2565b6000807f000000000000000000000000000000000000000000000000000000000000000073ffffffffffffffffffffffffffffffffffffffff166310603c11609c600088815260200190815260200160002060040160009054906101000a900473ffffffffffffffffffffffffffffffffffffffff16609c600089815260200190815260200160002060030160009054906101000a900473ffffffffffffffffffffffffffffffffffffffff166040518363ffffffff1660e01b815260040161291f929190618909565b604080518083038186803b15801561293657600080fd5b505afa15801561294a573d6000803e3d6000fd5b505050506040513d601f19601f8201168201806040525081019061296e9190617c2a565b91509150600061297d866130d9565b9050600061298a87615131565b90506000609c600089815260200190815260200160002060010154905060007fffffffffffffffffffffffffffffffffffffffffffffffffffffffffffffffff905060008214612a2b57612a2885600a0a612a1a670de0b6b3a7640000612a0c866129fe8c8b61549f90919063ffffffff16565b61552590919063ffffffff16565b61549f90919063ffffffff16565b61552590919063ffffffff16565b90505b6000609c60008b815260200190815260200160002060000160009054906101000a90046fffffffffffffffffffffffffffffffff166fffffffffffffffffffffffffffffffff1690506000609b60008c8152602001908152602001600020600101549050848311612aa85760009950505050505050505050612ad2565b612ac6612abe828461639890919063ffffffff16565b868503616607565b99505050505050505050505b919050565b609b6020528060005260406000206000915090508060000160009054906101000a900460ff16908060010154908060020154908060030154908060040154905085565b612b22616495565b73ffffffffffffffffffffffffffffffffffffffff16612b40613275565b73ffffffffffffffffffffffffffffffffffffffff1614612bc9576040517f08c379a00000000000000000000000000000000000000000000000000000000081526004018080602001828103825260208152602001807f4f776e61626c653a2063616c6c6572206973206e6f7420746865206f776e657281525060200191505060405180910390fd5b600073ffffffffffffffffffffffffffffffffffffffff16606560009054906101000a900473ffffffffffffffffffffffffffffffffffffffff1673ffffffffffffffffffffffffffffffffffffffff167f8be0079c531659141344cd1fd0a4f28419497f9722a3daafe3b4186f6b6457e060405160405180910390a36000606560006101000a81548173ffffffffffffffffffffffffffffffffffffffff021916908373ffffffffffffffffffffffffffffffffffffffff160217905550565b7f000000000000000000000000000000000000000000000000000000000000000081565b60026001541415612d27576040517f08c379a000000000000000000000000000000000000000000000000000000000815260040180806020018281038252601f8152602001807f5265656e7472616e637947756172643a207265656e7472616e742063616c6c0081525060200191505060405180910390fd5b6002600181905550612d37616495565b73ffffffffffffffffffffffffffffffffffffffff16612d55613275565b73ffffffffffffffffffffffffffffffffffffffff1614612dde576040517f08c379a00000000000000000000000000000000000000000000000000000000081526004018080602001828103825260208152602001807f4f776e61626c653a2063616c6c6572206973206e6f7420746865206f776e657281525060200191505060405180910390fd5b6000612de9826130d9565b905060008114612e3957612e3682609c600085815260200190815260200160002060040160009054906101000a900473ffffffffffffffffffffffffffffffffffffffff16836000615ab4565b50505b7f000000000000000000000000000000000000000000000000000000000000000073ffffffffffffffffffffffffffffffffffffffff1663e554de9883336040518363ffffffff1660e01b8152600401612e949291906192ba565b600060405180830381600087803b158015612eae57600080fd5b505af1158015612ec2573d6000803e3d6000fd5b50505050609b6000838152602001908152602001600020600080820160006101000a81549060ff021916905560018201600090556002820160009055600382016000905560048201600090555050609c6000838152602001908152602001600020600080820160006101000a8154906fffffffffffffffffffffffffffffffff02191690556000820160106101000a8154906fffffffffffffffffffffffffffffffff021916905560018201600090556002820160006101000a81549073ffffffffffffffffffffffffffffffffffffffff02191690556003820160006101000a81549073ffffffffffffffffffffffffffffffffffffffff02191690556004820160006101000a81549073ffffffffffffffffffffffffffffffffffffffff02191690556005820160009055600682016000905560078201600090556008820160006101000a81549073ffffffffffffffffffffffffffffffffffffffff02191690556009820160006101000a81549073ffffffffffffffffffffffffffffffffffffffff0219169055600a8201600090555050817f6ef04f6a02e95c7c2a36deefdf7564aad6748c152756c89654cc1c06dcd86f4660405160405180910390a2506001808190555050565b7f000000000000000000000000000000000000000000000000000000000000000081565b609860009054906101000a900473ffffffffffffffffffffffffffffffffffffffff1681565b600080609c600084815260200190815260200160002060090160009054906101000a900473ffffffffffffffffffffffffffffffffffffffff169050600073ffffffffffffffffffffffffffffffffffffffff168173ffffffffffffffffffffffffffffffffffffffff161415613185576040517f08c379a000000000000000000000000000000000000000000000000000000000815260040161317c90618eb3565b60405180910390fd5b6000609c600085815260200190815260200160002060040160009054906101000a900473ffffffffffffffffffffffffffffffffffffffff1690506000609a600086815260200190815260200160002054905060008373ffffffffffffffffffffffffffffffffffffffff166359846d2983856040518363ffffffff1660e01b8152600401613215929190619291565b602060405180830381600087803b15801561322f57600080fd5b505af1158015613243573d6000803e3d6000fd5b505050506040513d601f19601f820116820180604052508101906132679190617b89565b905080945050505050919050565b6000606560009054906101000a900473ffffffffffffffffffffffffffffffffffffffff16905090565b7f000000000000000000000000000000000000000000000000000000000000000081565b6002600154141561333c576040517f08c379a000000000000000000000000000000000000000000000000000000000815260040180806020018281038252601f8152602001807f5265656e7472616e637947756172643a207265656e7472616e742063616c6c0081525060200191505060405180910390fd5b60026001819055503373ffffffffffffffffffffffffffffffffffffffff167f000000000000000000000000000000000000000000000000000000000000000073ffffffffffffffffffffffffffffffffffffffff16146133d2576040517f08c379a00000000000000000000000000000000000000000000000000000000081526004016133c990618d53565b60405180910390fd5b6133dd816002615e84565b6001808190555050565b7f000000000000000000000000000000000000000000000000000000000000000081565b6000609c6000838152602001908152602001600020600601549050919050565b609a6020528060005260406000206000915090505481565b600060019054906101000a900460ff16806134625750613461616620565b5b80613478575060008054906101000a900460ff16155b6134cd576040517f08c379a000000000000000000000000000000000000000000000000000000000815260040180806020018281038252602e8152602001806196bb602e913960400191505060405180910390fd5b60008060019054906101000a900460ff16159050801561351d576001600060016101000a81548160ff02191690831515021790555060016000806101000a81548160ff0219169083151502179055505b613525616631565b61352e846152aa565b61353661673f565b61353f83616845565b6135488261649d565b80156135695760008060016101000a81548160ff0219169083151502179055505b50505050565b6000600260015414156135ea576040517f08c379a000000000000000000000000000000000000000000000000000000000815260040180806020018281038252601f8152602001807f5265656e7472616e637947756172643a207265656e7472616e742063616c6c0081525060200191505060405180910390fd5b60026001819055507f000000000000000000000000000000000000000000000000000000000000000073ffffffffffffffffffffffffffffffffffffffff166302d43dc833846101a00160208101906136439190617a1a565b6040518363ffffffff1660e01b81526004016136609291906188e0565b60206040518083038186803b15801561367857600080fd5b505afa15801561368c573d6000803e3d6000fd5b505050506040513d601f19601f820116820180604052508101906136b09190617abb565b6136ef576040517f08c379a00000000000000000000000000000000000000000000000000000000081526004016136e690618fb3565b60405180910390fd5b816101200160208101906137039190617a1a565b73ffffffffffffffffffffffffffffffffffffffff168261018001602081019061372d9190617a1a565b73ffffffffffffffffffffffffffffffffffffffff161415613784576040517f08c379a000000000000000000000000000000000000000000000000000000000815260040161377b90619113565b60405180910390fd5b7f000000000000000000000000000000000000000000000000000000000000000073ffffffffffffffffffffffffffffffffffffffff1663633defbd836101800160208101906137d49190617a1a565b846101200160208101906137e89190617a1a565b6040518363ffffffff1660e01b8152600401613805929190618909565b60206040518083038186803b15801561381d57600080fd5b505afa158015613831573d6000803e3d6000fd5b505050506040513d601f19601f820116820180604052508101906138559190617abb565b613894576040517f08c379a000000000000000000000000000000000000000000000000000000000815260040161388b90618ef3565b60405180910390fd5b600073ffffffffffffffffffffffffffffffffffffffff16826101800160208101906138c09190617a1a565b73ffffffffffffffffffffffffffffffffffffffff16141580156139245750600073ffffffffffffffffffffffffffffffffffffffff168261012001602081019061390b9190617a1a565b73ffffffffffffffffffffffffffffffffffffffff1614155b613963576040517f08c379a000000000000000000000000000000000000000000000000000000000815260040161395a90619093565b60405180910390fd5b60007f000000000000000000000000000000000000000000000000000000000000000073ffffffffffffffffffffffffffffffffffffffff1663038defd7846101400160208101906139b59190617a1a565b6040518263ffffffff1660e01b81526004016139d191906188c5565b60206040518083038186803b1580156139e957600080fd5b505afa1580156139fd573d6000803e3d6000fd5b505050506040513d601f19601f82011682018060405250810190613a219190617b89565b1415613a62576040517f08c379a0000000000000000000000000000000000000000000000000000000008152600401613a5990618cb3565b60405180910390fd5b60007f000000000000000000000000000000000000000000000000000000000000000073ffffffffffffffffffffffffffffffffffffffff1663038defd784610160016020810190613ab49190617a1a565b6040518263ffffffff1660e01b8152600401613ad091906188c5565b60206040518083038186803b158015613ae857600080fd5b505afa158015613afc573d6000803e3d6000fd5b505050506040513d601f19601f82011682018060405250810190613b209190617b89565b1415613b61576040517f08c379a0000000000000000000000000000000000000000000000000000000008152600401613b5890618f93565b60405180910390fd5b7f000000000000000000000000000000000000000000000000000000000000000073ffffffffffffffffffffffffffffffffffffffff16630aadf52983610180016020810190613bb19190617a1a565b8460e0016020810190613bc49190617b37565b8560c001356040518463ffffffff1660e01b8152600401613be793929190618ac3565b60006040518083038186803b158015613bff57600080fd5b505afa158015613c13573d6000803e3d6000fd5b505050507f000000000000000000000000000000000000000000000000000000000000000073ffffffffffffffffffffffffffffffffffffffff16630686428d83610100016020810190613c679190617b37565b7f000000000000000000000000000000000000000000000000000000000000000073ffffffffffffffffffffffffffffffffffffffff1663793a68dd6040518163ffffffff1660e01b8152600401604080518083038186803b158015613ccc57600080fd5b505afa158015613ce0573d6000803e3d6000fd5b505050506040513d601f19601f82011682018060405250810190613d049190617ae4565b6040518363ffffffff1660e01b8152600401613d21929190619193565b60206040518083038186803b158015613d3957600080fd5b505afa158015613d4d573d6000803e3d6000fd5b505050506040513d601f19601f82011682018060405250810190613d719190617abb565b613db0576040517f08c379a0000000000000000000000000000000000000000000000000000000008152600401613da790618d33565b60405180910390fd5b6000826000013514613f47577f000000000000000000000000000000000000000000000000000000000000000073ffffffffffffffffffffffffffffffffffffffff16630686428d83600001357f000000000000000000000000000000000000000000000000000000000000000073ffffffffffffffffffffffffffffffffffffffff16630f07901b6040518163ffffffff1660e01b8152600401604080518083038186803b158015613e6257600080fd5b505afa158015613e76573d6000803e3d6000fd5b505050506040513d601f19601f82011682018060405250810190613e9a9190617ae4565b6040518363ffffffff1660e01b8152600401613eb7929190619361565b60206040518083038186803b158015613ecf57600080fd5b505afa158015613ee3573d6000803e3d6000fd5b505050506040513d601f19601f82011682018060405250810190613f079190617abb565b613f46576040517f08c379a0000000000000000000000000000000000000000000000000000000008152600401613f3d90618cd3565b60405180910390fd5b5b7f000000000000000000000000000000000000000000000000000000000000000073ffffffffffffffffffffffffffffffffffffffff16630686428d8360a001357f000000000000000000000000000000000000000000000000000000000000000073ffffffffffffffffffffffffffffffffffffffff166310ff314b6040518163ffffffff1660e01b8152600401604080518083038186803b158015613fed57600080fd5b505afa158015614001573d6000803e3d6000fd5b505050506040513d601f19601f820116820180604052508101906140259190617ae4565b6040518363ffffffff1660e01b8152600401614042929190619361565b60206040518083038186803b15801561405a57600080fd5b505afa15801561406e573d6000803e3d6000fd5b505050506040513d601f19601f820116820180604052508101906140929190617abb565b6140d1576040517f08c379a00000000000000000000000000000000000000000000000000000000081526004016140c890618f13565b60405180910390fd5b7f000000000000000000000000000000000000000000000000000000000000000073ffffffffffffffffffffffffffffffffffffffff16630686428d83602001357f000000000000000000000000000000000000000000000000000000000000000073ffffffffffffffffffffffffffffffffffffffff16635e7b8eea6040518163ffffffff1660e01b8152600401604080518083038186803b15801561417757600080fd5b505afa15801561418b573d6000803e3d6000fd5b505050506040513d601f19601f820116820180604052508101906141af9190617ae4565b6040518363ffffffff1660e01b81526004016141cc929190619361565b60206040518083038186803b1580156141e457600080fd5b505afa1580156141f8573d6000803e3d6000fd5b505050506040513d601f19601f8201168201806040525081019061421c9190617abb565b61425b576040517f08c379a000000000000000000000000000000000000000000000000000000000815260040161425290618f53565b60405180910390fd5b7f000000000000000000000000000000000000000000000000000000000000000073ffffffffffffffffffffffffffffffffffffffff16630686428d83606001357f000000000000000000000000000000000000000000000000000000000000000073ffffffffffffffffffffffffffffffffffffffff1663b99233316040518163ffffffff1660e01b8152600401604080518083038186803b15801561430157600080fd5b505afa158015614315573d6000803e3d6000fd5b505050506040513d601f19601f820116820180604052508101906143399190617ae4565b6040518363ffffffff1660e01b8152600401614356929190619361565b60206040518083038186803b15801561436e57600080fd5b505afa158015614382573d6000803e3d6000fd5b505050506040513d601f19601f820116820180604052508101906143a69190617abb565b6143e5576040517f08c379a00000000000000000000000000000000000000000000000000000000081526004016143dc90618fd3565b60405180910390fd5b7f000000000000000000000000000000000000000000000000000000000000000073ffffffffffffffffffffffffffffffffffffffff16630686428d83608001357f000000000000000000000000000000000000000000000000000000000000000073ffffffffffffffffffffffffffffffffffffffff166323aaa8b96040518163ffffffff1660e01b8152600401604080518083038186803b15801561448b57600080fd5b505afa15801561449f573d6000803e3d6000fd5b505050506040513d601f19601f820116820180604052508101906144c39190617ae4565b6040518363ffffffff1660e01b81526004016144e0929190619361565b60206040518083038186803b1580156144f857600080fd5b505afa15801561450c573d6000803e3d6000fd5b505050506040513d601f19601f820116820180604052508101906145309190617abb565b61456f576040517f08c379a000000000000000000000000000000000000000000000000000000000815260040161456690618e33565b60405180910390fd5b7f000000000000000000000000000000000000000000000000000000000000000073ffffffffffffffffffffffffffffffffffffffff16636c8244878360400160208101906145be9190617a1a565b6040518263ffffffff1660e01b81526004016145da91906188c5565b60206040518083038186803b1580156145f257600080fd5b505afa158015614606573d6000803e3d6000fd5b505050506040513d601f19601f8201168201806040525081019061462a9190617abb565b614669576040517f08c379a000000000000000000000000000000000000000000000000000000000815260040161466090619013565b60405180910390fd5b6000614674836168e9565b90506146fd8184604001602081019061468d9190617a1a565b856101800160208101906146a19190617a1a565b866101400160208101906146b59190617a1a565b8760e00160208101906146c89190617b37565b6fffffffffffffffffffffffffffffffff168860c001358960a001358a6101c00160208101906146f89190617a92565b616c1f565b826101a00160208101906147119190617a1a565b73ffffffffffffffffffffffffffffffffffffffff163373ffffffffffffffffffffffffffffffffffffffff16827fcf71adf2fa74a8b8fb4ec796a5c3545707430c3281990dc8462a5b300d650a5460405160405180910390a48091505060018081905550919050565b6000609c600083815260200190815260200160002060020160009054906101000a900473ffffffffffffffffffffffffffffffffffffffff169050919050565b6000806147c7836116b7565b9050600460068111156147d657fe5b8160068111156147e257fe5b148061480357506006808111156147f557fe5b81600681111561480157fe5b145b8061482457506001600681111561481657fe5b81600681111561482257fe5b145b15614833576000915050614a5b565b600061483e846130d9565b90506005600681111561484d57fe5b82600681111561485957fe5b148061487b57506003600681111561486d57fe5b82600681111561487957fe5b145b1561488a578092505050614a5b565b6000807f000000000000000000000000000000000000000000000000000000000000000073ffffffffffffffffffffffffffffffffffffffff166310603c11609c600089815260200190815260200160002060040160009054906101000a900473ffffffffffffffffffffffffffffffffffffffff16609c60008a815260200190815260200160002060030160009054906101000a900473ffffffffffffffffffffffffffffffffffffffff166040518363ffffffff1660e01b8152600401614954929190618909565b604080518083038186803b15801561496b57600080fd5b505afa15801561497f573d6000803e3d6000fd5b505050506040513d601f19601f820116820180604052508101906149a39190617c2a565b9150915060006149b287615131565b90506000609c60008981526020019081526020016000206001015490506000614a25670de0b6b3a7640000614a1786600a0a614a09896149fb888a61549f90919063ffffffff16565b61552590919063ffffffff16565b61549f90919063ffffffff16565b61552590919063ffffffff16565b9050858110614a3e576000975050505050505050614a5b565b614a51818761639890919063ffffffff16565b9750505050505050505b919050565b7f000000000000000000000000000000000000000000000000000000000000000081565b60026001541415614afd576040517f08c379a000000000000000000000000000000000000000000000000000000000815260040180806020018281038252601f8152602001807f5265656e7472616e637947756172643a207265656e7472616e742063616c6c0081525060200191505060405180910390fd5b60026001819055506000811415614b49576040517f08c379a0000000000000000000000000000000000000000000000000000000008152600401614b4090618d93565b60405180910390fd5b6000614b54836116b7565b905060026006811115614b6357fe5b816006811115614b6f57fe5b1480614b91575060046006811115614b8357fe5b816006811115614b8f57fe5b145b614bd0576040517f08c379a0000000000000000000000000000000000000000000000000000000008152600401614bc790618df3565b60405180910390fd5b6000609b60008581526020019081526020016000206001015490506000614bf685611f73565b90506000614c23609b6000888152602001908152602001600020600201548361639890919063ffffffff16565b90506000614c3a828561631090919063ffffffff16565b90506000811415614c80576040517f08c379a0000000000000000000000000000000000000000000000000000000008152600401614c7790619073565b60405180910390fd5b6000609c600089815260200190815260200160002060000160109054906101000a90046fffffffffffffffffffffffffffffffff166fffffffffffffffffffffffffffffffff1614614d11576000821415614d10576040517f08c379a0000000000000000000000000000000000000000000000000000000008152600401614d0790618e13565b60405180910390fd5b5b808610614d6f578095503373ffffffffffffffffffffffffffffffffffffffff16877fdf3e9ef9c3c95cbe6748ba6427861cc2b2cfca270e5d3bd7af027f0c01bfe09a88604051614d629190619276565b60405180910390a3614dbf565b3373ffffffffffffffffffffffffffffffffffffffff16877fe6da40d2dadd82e079ed582ae0b273346310df30fe97db63ef080f79b268065488604051614db69190619276565b60405180910390a35b600082871115614e6157614ddc838861639890919063ffffffff16565b9050614df1818661639890919063ffffffff16565b609b60008a81526020019081526020016000206001018190555083609b60008a81526020019081526020016000206004018190555042609b60008a81526020019081526020016000206003018190555083609b60008a815260200190815260200160002060020181905550614ea5565b614e8a87609b60008b81526020019081526020016000206002015461631090919063ffffffff16565b609b60008a8152602001908152602001600020600201819055505b6000614eba828961639890919063ffffffff16565b90506000609c60008b815260200190815260200160002060080160009054906101000a900473ffffffffffffffffffffffffffffffffffffffff1673ffffffffffffffffffffffffffffffffffffffff1663934a525283609c60008e815260200190815260200160002060030160009054906101000a900473ffffffffffffffffffffffffffffffffffffffff166040518363ffffffff1660e01b8152600401614f65929190619291565b602060405180830381600087803b158015614f7f57600080fd5b505af1158015614f93573d6000803e3d6000fd5b505050506040513d601f19601f82011682018060405250810190614fb79190617b89565b90506000614fc58b8b616cc2565b90507f000000000000000000000000000000000000000000000000000000000000000073ffffffffffffffffffffffffffffffffffffffff166391a214dd8c83856040518463ffffffff1660e01b8152600401615024939291906193b3565b600060405180830381600087803b15801561503e57600080fd5b505af1158015615052573d6000803e3d6000fd5b505050506000609b60008d81526020019081526020016000206001015414801561509257506004600681111561508457fe5b89600681111561509057fe5b145b156150fd576003609b60008d815260200190815260200160002060000160006101000a81548160ff021916908360068111156150ca57fe5b02179055508a7f53f1452828dbeb56b2b20e6cffd1adbb78169a0ecd37967018ca8e146d90ee3660405160405180910390a25b505050505050505050600180819055505050565b6000609b6000838152602001908152602001600020600101549050919050565b60008061513d83611f73565b90506000615192609b60008681526020019081526020016000206002015461518484609b60008981526020019081526020016000206001015461631090919063ffffffff16565b61639890919063ffffffff16565b90508092505050919050565b6151a6616495565b73ffffffffffffffffffffffffffffffffffffffff166151c4613275565b73ffffffffffffffffffffffffffffffffffffffff161461524d576040517f08c379a00000000000000000000000000000000000000000000000000000000081526004018080602001828103825260208152602001807f4f776e61626c653a2063616c6c6572206973206e6f7420746865206f776e657281525060200191505060405180910390fd5b806097541415615292576040517f08c379a000000000000000000000000000000000000000000000000000000000815260040161528990618ed3565b60405180910390fd5b61529b81616845565b50565b670de0b6b3a764000081565b6152b2616495565b73ffffffffffffffffffffffffffffffffffffffff166152d0613275565b73ffffffffffffffffffffffffffffffffffffffff1614615359576040517f08c379a00000000000000000000000000000000000000000000000000000000081526004018080602001828103825260208152602001807f4f776e61626c653a2063616c6c6572206973206e6f7420746865206f776e657281525060200191505060405180910390fd5b600073ffffffffffffffffffffffffffffffffffffffff168173ffffffffffffffffffffffffffffffffffffffff1614156153df576040517f08c379a00000000000000000000000000000000000000000000000000000000081526004018080602001828103825260268152602001806196486026913960400191505060405180910390fd5b8073ffffffffffffffffffffffffffffffffffffffff16606560009054906101000a900473ffffffffffffffffffffffffffffffffffffffff1673ffffffffffffffffffffffffffffffffffffffff167f8be0079c531659141344cd1fd0a4f28419497f9722a3daafe3b4186f6b6457e060405160405180910390a380606560006101000a81548173ffffffffffffffffffffffffffffffffffffffff021916908373ffffffffffffffffffffffffffffffffffffffff16021790555050565b6000808314156154b2576000905061551f565b60008284029050828482816154c357fe5b041461551a576040517f08c379a00000000000000000000000000000000000000000000000000000000081526004018080602001828103825260218152602001806196e96021913960400191505060405180910390fd5b809150505b92915050565b600080821161559c576040517f08c379a000000000000000000000000000000000000000000000000000000000815260040180806020018281038252601a8152602001807f536166654d6174683a206469766973696f6e206279207a65726f00000000000081525060200191505060405180910390fd5b8183816155a557fe5b04905092915050565b6000806155ba846147bb565b905060008114156155cf576000915050615654565b600061561385609c600088815260200190815260200160002060040160009054906101000a900473ffffffffffffffffffffffffffffffffffffffff168487615ab4565b915050847f4a57ae76ed37bd40e42a6b2edec851a1faa115d5b81334275adb1eeddc199540826040516156469190619276565b60405180910390a281925050505b92915050565b600081141561569e576040517f08c379a000000000000000000000000000000000000000000000000000000000815260040161569590619173565b60405180910390fd5b609c6000838152602001908152602001600020600501544210156156f7576040517f08c379a00000000000000000000000000000000000000000000000000000000081526004016156ee90618e73565b60405180910390fd5b6157008261281f565b811115615742576040517f08c379a000000000000000000000000000000000000000000000000000000000815260040161573990618e93565b60405180910390fd5b6000609c600084815260200190815260200160002060030160009054906101000a900473ffffffffffffffffffffffffffffffffffffffff16905060008173ffffffffffffffffffffffffffffffffffffffff166370a08231306040518263ffffffff1660e01b81526004016157b891906188c5565b60206040518083038186803b1580156157d057600080fd5b505afa1580156157e4573d6000803e3d6000fd5b505050506040513d601f19601f820116820180604052508101906158089190617b89565b9050600061584d83609c600088815260200190815260200160002060080160009054906101000a900473ffffffffffffffffffffffffffffffffffffffff1686616e72565b90507f000000000000000000000000000000000000000000000000000000000000000073ffffffffffffffffffffffffffffffffffffffff1663e959ab9786836040518363ffffffff1660e01b81526004016158aa92919061938a565b600060405180830381600087803b1580156158c457600080fd5b505af11580156158d8573d6000803e3d6000fd5b5050505060008373ffffffffffffffffffffffffffffffffffffffff166370a08231306040518263ffffffff1660e01b815260040161591791906188c5565b60206040518083038186803b15801561592f57600080fd5b505afa158015615943573d6000803e3d6000fd5b505050506040513d601f19601f820116820180604052508101906159679190617b89565b9050600061597e848361639890919063ffffffff16565b90506159b2876159ad83609b60008c81526020019081526020016000206001015461631090919063ffffffff16565b61702a565b60006159e3670de0b6b3a76400006159d56097548561549f90919063ffffffff16565b61552590919063ffffffff16565b90506159f8818361639890919063ffffffff16565b9150615a47609860009054906101000a900473ffffffffffffffffffffffffffffffffffffffff16828873ffffffffffffffffffffffffffffffffffffffff1661708d9092919063ffffffff16565b615a7233838873ffffffffffffffffffffffffffffffffffffffff1661708d9092919063ffffffff16565b877f8912bc3159039f293aecaa1228bf61dc392cff921a2bb1452620787d62d2cd5285604051615aa29190619276565b60405180910390a25050505050505050565b6000806000609c600088815260200190815260200160002060090160009054906101000a900473ffffffffffffffffffffffffffffffffffffffff16905060008173ffffffffffffffffffffffffffffffffffffffff1663934a525287896040518363ffffffff1660e01b8152600401615b2f929190619291565b602060405180830381600087803b158015615b4957600080fd5b505af1158015615b5d573d6000803e3d6000fd5b505050506040513d601f19601f82011682018060405250810190615b819190617b89565b9050600080821415615b9c5760008094509450505050615d8f565b615bf9826040518060400160405280600881526020017f50434c3a49544331000000000000000000000000000000000000000000000000815250609a60008d81526020019081526020016000205461712f9092919063ffffffff16565b609a60008b8152602001908152602001600020819055508515615cce577f000000000000000000000000000000000000000000000000000000000000000073ffffffffffffffffffffffffffffffffffffffff16637c96f053898533866040518563ffffffff1660e01b8152600401615c759493929190618985565b602060405180830381600087803b158015615c8f57600080fd5b505af1158015615ca3573d6000803e3d6000fd5b505050506040513d601f19601f82011682018060405250810190615cc79190617b89565b9050615d85565b7f000000000000000000000000000000000000000000000000000000000000000073ffffffffffffffffffffffffffffffffffffffff16635da8bf5a8985338660006040518663ffffffff1660e01b8152600401615d309594939291906189ca565b602060405180830381600087803b158015615d4a57600080fd5b505af1158015615d5e573d6000803e3d6000fd5b505050506040513d601f19601f82011682018060405250810190615d829190617b89565b90505b8082945094505050505b94509492505050565b60008060007f000000000000000000000000000000000000000000000000000000000000000073ffffffffffffffffffffffffffffffffffffffff166310603c1187876040518363ffffffff1660e01b8152600401615df8929190618909565b604080518083038186803b158015615e0f57600080fd5b505afa158015615e23573d6000803e3d6000fd5b505050506040513d601f19601f82011682018060405250810190615e479190617c2a565b915091506000615e7583615e6784600a0a8861549f90919063ffffffff16565b61552590919063ffffffff16565b90508093505050509392505050565b609b6000838152602001908152602001600020600080820160006101000a81549060ff021916905560018201600090556002820160009055600382016000905560048201600090555050609c6000838152602001908152602001600020600080820160006101000a8154906fffffffffffffffffffffffffffffffff02191690556000820160106101000a8154906fffffffffffffffffffffffffffffffff021916905560018201600090556002820160006101000a81549073ffffffffffffffffffffffffffffffffffffffff02191690556003820160006101000a81549073ffffffffffffffffffffffffffffffffffffffff02191690556004820160006101000a81549073ffffffffffffffffffffffffffffffffffffffff02191690556005820160009055600682016000905560078201600090556008820160006101000a81549073ffffffffffffffffffffffffffffffffffffffff02191690556009820160006101000a81549073ffffffffffffffffffffffffffffffffffffffff0219169055600a82016000905550506006609b600084815260200190815260200160002060000160006101000a81548160ff0219169083600681111561604857fe5b021790555080600281111561605957fe5b827f055ab9ccf797318916f0a21a3b3614d87adeb7786ccb7e85ec8717e40cefe31c60405160405180910390a35050565b616145846323b872dd60e01b858585604051602401808473ffffffffffffffffffffffffffffffffffffffff1681526020018373ffffffffffffffffffffffffffffffffffffffff1681526020018281526020019350505050604051602081830303815290604052907bffffffffffffffffffffffffffffffffffffffffffffffffffffffff19166020820180517bffffffffffffffffffffffffffffffffffffffffffffffffffffffff83818316178352505050506171e9565b50505050565b6000811480616219575060008373ffffffffffffffffffffffffffffffffffffffff1663dd62ed3e30856040518363ffffffff1660e01b8152600401808373ffffffffffffffffffffffffffffffffffffffff1681526020018273ffffffffffffffffffffffffffffffffffffffff1681526020019250505060206040518083038186803b1580156161dc57600080fd5b505afa1580156161f0573d6000803e3d6000fd5b505050506040513d602081101561620657600080fd5b8101908080519060200190929190505050145b61626e576040517f08c379a00000000000000000000000000000000000000000000000000000000081526004018080602001828103825260368152602001806197346036913960400191505060405180910390fd5b61630b8363095ea7b360e01b8484604051602401808373ffffffffffffffffffffffffffffffffffffffff16815260200182815260200192505050604051602081830303815290604052907bffffffffffffffffffffffffffffffffffffffffffffffffffffffff19166020820180517bffffffffffffffffffffffffffffffffffffffffffffffffffffffff83818316178352505050506171e9565b505050565b60008082840190508381101561638e576040517f08c379a000000000000000000000000000000000000000000000000000000000815260040180806020018281038252601b8152602001807f536166654d6174683a206164646974696f6e206f766572666c6f77000000000081525060200191505060405180910390fd5b8091505092915050565b600082821115616410576040517f08c379a000000000000000000000000000000000000000000000000000000000815260040180806020018281038252601e8152602001807f536166654d6174683a207375627472616374696f6e206f766572666c6f77000081525060200191505060405180910390fd5b818303905092915050565b60006164586301e1338061644a8461643c878961549f90919063ffffffff16565b61549f90919063ffffffff16565b61552590919063ffffffff16565b90509392505050565b600080616477838561552590919063ffffffff16565b9050838382021461648b5780806001019150505b8091505092915050565b600033905090565b600073ffffffffffffffffffffffffffffffffffffffff168173ffffffffffffffffffffffffffffffffffffffff16141561650d576040517f08c379a000000000000000000000000000000000000000000000000000000000815260040161650490618dd3565b60405180910390fd5b80609860006101000a81548173ffffffffffffffffffffffffffffffffffffffff021916908373ffffffffffffffffffffffffffffffffffffffff1602179055508073ffffffffffffffffffffffffffffffffffffffff167f33837f672315b6cffcf11894714abfdec631a913c18d7738fcaf40c444376fb660405160405180910390a250565b600070010000000000000000000000000000000082106165ff576040517f08c379a000000000000000000000000000000000000000000000000000000000815260040180806020018281038252602781526020018061966e6027913960400191505060405180910390fd5b819050919050565b60008183106166165781616618565b825b905092915050565b600061662b306172d8565b15905090565b600060019054906101000a900460ff1680616650575061664f616620565b5b80616666575060008054906101000a900460ff16155b6166bb576040517f08c379a000000000000000000000000000000000000000000000000000000000815260040180806020018281038252602e8152602001806196bb602e913960400191505060405180910390fd5b60008060019054906101000a900460ff16159050801561670b576001600060016101000a81548160ff02191690831515021790555060016000806101000a81548160ff0219169083151502179055505b6167136172eb565b61671b6173e9565b801561673c5760008060016101000a81548160ff0219169083151502179055505b50565b600060019054906101000a900460ff168061675e575061675d616620565b5b80616774575060008054906101000a900460ff16155b6167c9576040517f08c379a000000000000000000000000000000000000000000000000000000000815260040180806020018281038252602e8152602001806196bb602e913960400191505060405180910390fd5b60008060019054906101000a900460ff161590508015616819576001600060016101000a81548160ff02191690831515021790555060016000806101000a81548160ff0219169083151502179055505b616821617590565b80156168425760008060016101000a81548160ff0219169083151502179055505b50565b7f00000000000000000000000000000000000000000000000000000000000000008111156168a8576040517f08c379a000000000000000000000000000000000000000000000000000000000815260040161689f90618ff3565b60405180910390fd5b806097819055507fcfd641dab5b2592643d4b878bf2b771142aff4595263753dc7611f947749999d816040516168de9190619276565b60405180910390a150565b60008060996000815460010191905081905590506001609b600083815260200190815260200160002060000160006101000a81548160ff0219169083600681111561693057fe5b02179055506000609c60008381526020019081526020016000209050338160020160006101000a81548173ffffffffffffffffffffffffffffffffffffffff021916908373ffffffffffffffffffffffffffffffffffffffff1602179055508360e00160208101906169a29190617b37565b8160000160006101000a8154816fffffffffffffffffffffffffffffffff02191690836fffffffffffffffffffffffffffffffff16021790555083600001358160010181905550836101000160208101906169fd9190617b37565b8160000160106101000a8154816fffffffffffffffffffffffffffffffff02191690836fffffffffffffffffffffffffffffffff16021790555083610180016020810190616a4b9190617a1a565b8160030160006101000a81548173ffffffffffffffffffffffffffffffffffffffff021916908373ffffffffffffffffffffffffffffffffffffffff16021790555083610120016020810190616aa19190617a1a565b8160040160006101000a81548173ffffffffffffffffffffffffffffffffffffffff021916908373ffffffffffffffffffffffffffffffffffffffff16021790555083610160016020810190616af79190617a1a565b8160090160006101000a81548173ffffffffffffffffffffffffffffffffffffffff021916908373ffffffffffffffffffffffffffffffffffffffff1602179055506000616b688560200135616b5a8760a001354261631090919063ffffffff16565b61631090919063ffffffff16565b9050616b818560a001354261631090919063ffffffff16565b8260050181905550808260060181905550616ba985606001358261631090919063ffffffff16565b8260070181905550846080013582600a018190555084610140016020810190616bd29190617a1a565b8260080160006101000a81548173ffffffffffffffffffffffffffffffffffffffff021916908373ffffffffffffffffffffffffffffffffffffffff160217905550829350505050919050565b7f000000000000000000000000000000000000000000000000000000000000000073ffffffffffffffffffffffffffffffffffffffff16630553d90a89898989898989896040518963ffffffff1660e01b8152600401616c869897969594939291906192e3565b600060405180830381600087803b158015616ca057600080fd5b505af1158015616cb4573d6000803e3d6000fd5b505050505050505050505050565b600080609c600085815260200190815260200160002060080160009054906101000a900473ffffffffffffffffffffffffffffffffffffffff1690506000609c600086815260200190815260200160002060030160009054906101000a900473ffffffffffffffffffffffffffffffffffffffff169050616d663330868473ffffffffffffffffffffffffffffffffffffffff1661608a909392919063ffffffff16565b616d9182858373ffffffffffffffffffffffffffffffffffffffff1661614b9092919063ffffffff16565b60007f000000000000000000000000000000000000000000000000000000000000000073ffffffffffffffffffffffffffffffffffffffff16630284c3f583857f0000000000000000000000000000000000000000000000000000000000000000896040518563ffffffff1660e01b8152600401616e129493929190618a7e565b602060405180830381600087803b158015616e2c57600080fd5b505af1158015616e40573d6000803e3d6000fd5b505050506040513d601f19601f82011682018060405250810190616e649190617b89565b905080935050505092915050565b6000808373ffffffffffffffffffffffffffffffffffffffff1663934a525284876040518363ffffffff1660e01b8152600401616eb0929190619291565b602060405180830381600087803b158015616eca57600080fd5b505af1158015616ede573d6000803e3d6000fd5b505050506040513d601f19601f82011682018060405250810190616f029190617b89565b90506000811415616f48576040517f08c379a0000000000000000000000000000000000000000000000000000000008152600401616f3f90618d73565b60405180910390fd5b7f000000000000000000000000000000000000000000000000000000000000000073ffffffffffffffffffffffffffffffffffffffff1663a9736a5d86867f0000000000000000000000000000000000000000000000000000000000000000308860006040518763ffffffff1660e01b8152600401616fcc96959493929190618a1d565b602060405180830381600087803b158015616fe657600080fd5b505af1158015616ffa573d6000803e3d6000fd5b505050506040513d601f19601f8201168201806040525081019061701e9190617b89565b50809150509392505050565b600061703583611f73565b905080609b60008581526020019081526020016000206004018190555042609b60008581526020019081526020016000206003018190555081609b600085815260200190815260200160002060010181905550505050565b61712a8363a9059cbb60e01b8484604051602401808373ffffffffffffffffffffffffffffffffffffffff16815260200182815260200192505050604051602081830303815290604052907bffffffffffffffffffffffffffffffffffffffffffffffffffffffff19166020820180517bffffffffffffffffffffffffffffffffffffffffffffffffffffffff83818316178352505050506171e9565b505050565b60008383111582906171dc576040517f08c379a00000000000000000000000000000000000000000000000000000000081526004018080602001828103825283818151815260200191508051906020019080838360005b838110156171a1578082015181840152602081019050617186565b50505050905090810190601f1680156171ce5780820380516001836020036101000a031916815260200191505b509250505060405180910390fd5b5082840390509392505050565b600061724b826040518060400160405280602081526020017f5361666545524332303a206c6f772d6c6576656c2063616c6c206661696c65648152508573ffffffffffffffffffffffffffffffffffffffff166176959092919063ffffffff16565b90506000815111156172d35780806020019051602081101561726c57600080fd5b81019080805190602001909291905050506172d2576040517f08c379a000000000000000000000000000000000000000000000000000000000815260040180806020018281038252602a81526020018061970a602a913960400191505060405180910390fd5b5b505050565b600080823b905060008111915050919050565b600060019054906101000a900460ff168061730a5750617309616620565b5b80617320575060008054906101000a900460ff16155b617375576040517f08c379a000000000000000000000000000000000000000000000000000000000815260040180806020018281038252602e8152602001806196bb602e913960400191505060405180910390fd5b60008060019054906101000a900460ff1615905080156173c5576001600060016101000a81548160ff02191690831515021790555060016000806101000a81548160ff0219169083151502179055505b80156173e65760008060016101000a81548160ff0219169083151502179055505b50565b600060019054906101000a900460ff16806174085750617407616620565b5b8061741e575060008054906101000a900460ff16155b617473576040517f08c379a000000000000000000000000000000000000000000000000000000000815260040180806020018281038252602e8152602001806196bb602e913960400191505060405180910390fd5b60008060019054906101000a900460ff1615905080156174c3576001600060016101000a81548160ff02191690831515021790555060016000806101000a81548160ff0219169083151502179055505b60006174cd616495565b905080606560006101000a81548173ffffffffffffffffffffffffffffffffffffffff021916908373ffffffffffffffffffffffffffffffffffffffff1602179055508073ffffffffffffffffffffffffffffffffffffffff16600073ffffffffffffffffffffffffffffffffffffffff167f8be0079c531659141344cd1fd0a4f28419497f9722a3daafe3b4186f6b6457e060405160405180910390a350801561758d5760008060016101000a81548160ff0219169083151502179055505b50565b600060019054906101000a900460ff16806175af57506175ae616620565b5b806175c5575060008054906101000a900460ff16155b61761a576040517f08c379a000000000000000000000000000000000000000000000000000000000815260040180806020018281038252602e8152602001806196bb602e913960400191505060405180910390fd5b60008060019054906101000a900460ff16159050801561766a576001600060016101000a81548160ff02191690831515021790555060016000806101000a81548160ff0219169083151502179055505b6001808190555080156176925760008060016101000a81548160ff0219169083151502179055505b50565b60606176a484846000856176ad565b90509392505050565b606082471015617708576040517f08c379a00000000000000000000000000000000000000000000000000000000081526004018080602001828103825260268152602001806196956026913960400191505060405180910390fd5b61771185617855565b617783576040517f08c379a000000000000000000000000000000000000000000000000000000000815260040180806020018281038252601d8152602001807f416464726573733a2063616c6c20746f206e6f6e2d636f6e747261637400000081525060200191505060405180910390fd5b6000808673ffffffffffffffffffffffffffffffffffffffff1685876040518082805190602001908083835b602083106177d257805182526020820191506020810190506020830392506177af565b6001836020036101000a03801982511681845116808217855250505050505090500191505060006040518083038185875af1925050503d8060008114617834576040519150601f19603f3d011682016040523d82523d6000602084013e617839565b606091505b5091509150617849828286617868565b92505050949350505050565b600080823b905060008111915050919050565b606083156178785782905061792d565b60008351111561788b5782518084602001fd5b816040517f08c379a00000000000000000000000000000000000000000000000000000000081526004018080602001828103825283818151815260200191508051906020019080838360005b838110156178f25780820151818401526020810190506178d7565b50505050905090810190601f16801561791f5780820380516001836020036101000a031916815260200191505b509250505060405180910390fd5b9392505050565b600081359050617943816195eb565b92915050565b60008135905061795881619602565b92915050565b60008151905061796d81619602565b92915050565b60006040828403121561798557600080fd5b61798f60406193ea565b9050600061799f84828501617a05565b60008301525060206179b384828501617a05565b60208301525092915050565b60006101e082840312156179d257600080fd5b81905092915050565b6000813590506179ea81619619565b92915050565b6000813590506179ff81619630565b92915050565b600081519050617a1481619630565b92915050565b600060208284031215617a2c57600080fd5b6000617a3a84828501617934565b91505092915050565b600080600060608486031215617a5857600080fd5b6000617a6686828701617934565b9350506020617a77868287016179f0565b9250506040617a8886828701617934565b9150509250925092565b600060208284031215617aa457600080fd5b6000617ab284828501617949565b91505092915050565b600060208284031215617acd57600080fd5b6000617adb8482850161795e565b91505092915050565b600060408284031215617af657600080fd5b6000617b0484828501617973565b91505092915050565b60006101e08284031215617b2057600080fd5b6000617b2e848285016179bf565b91505092915050565b600060208284031215617b4957600080fd5b6000617b57848285016179db565b91505092915050565b600060208284031215617b7257600080fd5b6000617b80848285016179f0565b91505092915050565b600060208284031215617b9b57600080fd5b6000617ba984828501617a05565b91505092915050565b60008060408385031215617bc557600080fd5b6000617bd3858286016179f0565b9250506020617be485828601617949565b9150509250929050565b60008060408385031215617c0157600080fd5b6000617c0f858286016179f0565b9250506020617c20858286016179f0565b9150509250929050565b60008060408385031215617c3d57600080fd5b6000617c4b85828601617a05565b9250506020617c5c85828601617a05565b9150509250929050565b600080600060608486031215617c7b57600080fd5b6000617c89868287016179f0565b9350506020617c9a868287016179f0565b9250506040617cab86828701617934565b9150509250925092565b600080600060608486031215617cca57600080fd5b6000617cd8868287016179f0565b9350506020617ce9868287016179f0565b9250506040617cfa86828701617949565b9150509250925092565b617d0d816194a3565b82525050565b617d1c8161942c565b82525050565b617d2b8161943e565b82525050565b617d3a816194b5565b82525050565b617d49816194d9565b82525050565b617d58816194fd565b82525050565b617d6781619521565b82525050565b617d7681619545565b82525050565b617d8581619569565b82525050565b617d948161958d565b82525050565b6000617da760098361941b565b91507f50434c3a4f434c423100000000000000000000000000000000000000000000006000830152602082019050919050565b6000617de760078361941b565b91507f50434c3a444332000000000000000000000000000000000000000000000000006000830152602082019050919050565b6000617e2760078361941b565b91507f50434c3a435231000000000000000000000000000000000000000000000000006000830152602082019050919050565b6000617e6760068361941b565b91507f50434c3a413200000000000000000000000000000000000000000000000000006000830152602082019050919050565b6000617ea760068361941b565b91507f50434c3a523500000000000000000000000000000000000000000000000000006000830152602082019050919050565b6000617ee760068361941b565b91507f50434c3a523800000000000000000000000000000000000000000000000000006000830152602082019050919050565b6000617f2760078361941b565b91507f50434c3a574331000000000000000000000000000000000000000000000000006000830152602082019050919050565b6000617f6760078361941b565b91507f50434c3a444331000000000000000000000000000000000000000000000000006000830152602082019050919050565b6000617fa760068361941b565b91507f50434c3a523700000000000000000000000000000000000000000000000000006000830152602082019050919050565b6000617fe760088361941b565b91507f50434c3a4f4c50310000000000000000000000000000000000000000000000006000830152602082019050919050565b600061802760098361941b565b91507f50434c3a495742413100000000000000000000000000000000000000000000006000830152602082019050919050565b600061806760088361941b565b91507f50434c3a524550310000000000000000000000000000000000000000000000006000830152602082019050919050565b60006180a760088361941b565b91507f50434c3a574143310000000000000000000000000000000000000000000000006000830152602082019050919050565b60006180e7600a8361941b565b91507f50434c3a495550464331000000000000000000000000000000000000000000006000830152602082019050919050565b600061812760088361941b565b91507f50434c3a524550320000000000000000000000000000000000000000000000006000830152602082019050919050565b600061816760088361941b565b91507f50434c3a524550340000000000000000000000000000000000000000000000006000830152602082019050919050565b60006181a760078361941b565b91507f50434c3a523132000000000000000000000000000000000000000000000000006000830152602082019050919050565b60006181e760068361941b565b91507f50434c3a413100000000000000000000000000000000000000000000000000006000830152602082019050919050565b600061822760078361941b565b91507f50434c3a494232000000000000000000000000000000000000000000000000006000830152602082019050919050565b600061826760078361941b565b91507f50434c3a494233000000000000000000000000000000000000000000000000006000830152602082019050919050565b60006182a760098361941b565b91507f50434c3a435443543100000000000000000000000000000000000000000000006000830152602082019050919050565b60006182e760098361941b565b91507f50434c3a555046463100000000000000000000000000000000000000000000006000830152602082019050919050565b600061832760068361941b565b91507f50434c3a523300000000000000000000000000000000000000000000000000006000830152602082019050919050565b600061836760068361941b565b91507f50434c3a523900000000000000000000000000000000000000000000000000006000830152602082019050919050565b60006183a760098361941b565b91507f50434c3a4354544c3100000000000000000000000000000000000000000000006000830152602082019050919050565b60006183e760078361941b565b91507f50434c3a523130000000000000000000000000000000000000000000000000006000830152602082019050919050565b600061842760098361941b565b91507f50434c3a555046433100000000000000000000000000000000000000000000006000830152602082019050919050565b600061846760068361941b565b91507f50434c3a523600000000000000000000000000000000000000000000000000006000830152602082019050919050565b60006184a760068361941b565b91507f50434c3a523100000000000000000000000000000000000000000000000000006000830152602082019050919050565b60006184e760078361941b565b91507f50434c3a523131000000000000000000000000000000000000000000000000006000830152602082019050919050565b6000618527600a8361941b565b91507f50434c3a495550464631000000000000000000000000000000000000000000006000830152602082019050919050565b600061856760078361941b565b91507f50434c3a523133000000000000000000000000000000000000000000000000006000830152602082019050919050565b60006185a760068361941b565b91507f50434c3a4c3200000000000000000000000000000000000000000000000000006000830152602082019050919050565b60006185e760068361941b565b91507f50434c3a433200000000000000000000000000000000000000000000000000006000830152602082019050919050565b600061862760088361941b565b91507f50434c3a524550330000000000000000000000000000000000000000000000006000830152602082019050919050565b600061866760068361941b565b91507f50434c3a523400000000000000000000000000000000000000000000000000006000830152602082019050919050565b60006186a760078361941b565b91507f50434c3a574332000000000000000000000000000000000000000000000000006000830152602082019050919050565b60006186e760068361941b565b91507f50434c3a4c3300000000000000000000000000000000000000000000000000006000830152602082019050919050565b600061872760068361941b565b91507f50434c3a433100000000000000000000000000000000000000000000000000006000830152602082019050919050565b600061876760068361941b565b91507f50434c3a523200000000000000000000000000000000000000000000000000006000830152602082019050919050565b60006187a760078361941b565b91507f50434c3a435232000000000000000000000000000000000000000000000000006000830152602082019050919050565b60006187e760068361941b565b91507f50434c3a4c3100000000000000000000000000000000000000000000000000006000830152602082019050919050565b600061882760078361941b565b91507f50434c3a494231000000000000000000000000000000000000000000000000006000830152602082019050919050565b60408201600082015161887060008501826188a7565b50602082015161888360208501826188a7565b50505050565b6188928161945d565b82525050565b6188a18161959f565b82525050565b6188b081619499565b82525050565b6188bf81619499565b82525050565b60006020820190506188da6000830184617d13565b92915050565b60006040820190506188f56000830185617d04565b6189026020830184617d13565b9392505050565b600060408201905061891e6000830185617d13565b61892b6020830184617d13565b9392505050565b600060a0820190506189476000830188617d13565b6189546020830187617d13565b6189616040830186617d04565b61896e6060830185617d13565b61897b60808301846188b6565b9695505050505050565b600060808201905061899a6000830187617d13565b6189a76020830186617d13565b6189b46040830185617d04565b6189c160608301846188b6565b95945050505050565b600060a0820190506189df6000830188617d13565b6189ec6020830187617d13565b6189f96040830186617d04565b618a0660608301856188b6565b618a136080830184617d22565b9695505050505050565b600060c082019050618a326000830189617d13565b618a3f6020830188617d13565b618a4c6040830187617d13565b618a596060830186617d13565b618a6660808301856188b6565b618a7360a0830184617d22565b979650505050505050565b6000608082019050618a936000830187617d13565b618aa06020830186617d13565b618aad6040830185617d13565b618aba60608301846188b6565b95945050505050565b6000606082019050618ad86000830186617d13565b618ae56020830185618898565b618af260408301846188b6565b949350505050565b6000604082019050618b0f6000830185617d13565b618b1c60208301846188b6565b9392505050565b6000602082019050618b386000830184617d31565b92915050565b6000602082019050618b536000830184617d40565b92915050565b6000602082019050618b6e6000830184617d4f565b92915050565b6000602082019050618b896000830184617d5e565b92915050565b6000602082019050618ba46000830184617d6d565b92915050565b6000602082019050618bbf6000830184617d7c565b92915050565b6000602082019050618bda6000830184617d8b565b92915050565b600060a082019050618bf56000830188617d8b565b618c0260208301876188b6565b618c0f60408301866188b6565b618c1c60608301856188b6565b618c2960808301846188b6565b9695505050505050565b60006020820190508181036000830152618c4c81617d9a565b9050919050565b60006020820190508181036000830152618c6c81617dda565b9050919050565b60006020820190508181036000830152618c8c81617e1a565b9050919050565b60006020820190508181036000830152618cac81617e5a565b9050919050565b60006020820190508181036000830152618ccc81617e9a565b9050919050565b60006020820190508181036000830152618cec81617eda565b9050919050565b60006020820190508181036000830152618d0c81617f1a565b9050919050565b60006020820190508181036000830152618d2c81617f5a565b9050919050565b60006020820190508181036000830152618d4c81617f9a565b9050919050565b60006020820190508181036000830152618d6c81617fda565b9050919050565b60006020820190508181036000830152618d8c8161801a565b9050919050565b60006020820190508181036000830152618dac8161805a565b9050919050565b60006020820190508181036000830152618dcc8161809a565b9050919050565b60006020820190508181036000830152618dec816180da565b9050919050565b60006020820190508181036000830152618e0c8161811a565b9050919050565b60006020820190508181036000830152618e2c8161815a565b9050919050565b60006020820190508181036000830152618e4c8161819a565b9050919050565b60006020820190508181036000830152618e6c816181da565b9050919050565b60006020820190508181036000830152618e8c8161821a565b9050919050565b60006020820190508181036000830152618eac8161825a565b9050919050565b60006020820190508181036000830152618ecc8161829a565b9050919050565b60006020820190508181036000830152618eec816182da565b9050919050565b60006020820190508181036000830152618f0c8161831a565b9050919050565b60006020820190508181036000830152618f2c8161835a565b9050919050565b60006020820190508181036000830152618f4c8161839a565b9050919050565b60006020820190508181036000830152618f6c816183da565b9050919050565b60006020820190508181036000830152618f8c8161841a565b9050919050565b60006020820190508181036000830152618fac8161845a565b9050919050565b60006020820190508181036000830152618fcc8161849a565b9050919050565b60006020820190508181036000830152618fec816184da565b9050919050565b6000602082019050818103600083015261900c8161851a565b9050919050565b6000602082019050818103600083015261902c8161855a565b9050919050565b6000602082019050818103600083015261904c8161859a565b9050919050565b6000602082019050818103600083015261906c816185da565b9050919050565b6000602082019050818103600083015261908c8161861a565b9050919050565b600060208201905081810360008301526190ac8161865a565b9050919050565b600060208201905081810360008301526190cc8161869a565b9050919050565b600060208201905081810360008301526190ec816186da565b9050919050565b6000602082019050818103600083015261910c8161871a565b9050919050565b6000602082019050818103600083015261912c8161875a565b9050919050565b6000602082019050818103600083015261914c8161879a565b9050919050565b6000602082019050818103600083015261916c816187da565b9050919050565b6000602082019050818103600083015261918c8161881a565b9050919050565b60006060820190506191a86000830185618898565b6191b5602083018461885a565b9392505050565b6000610180820190506191d2600083018f618889565b6191df602083018e618889565b6191ec604083018d6188b6565b6191f9606083018c617d13565b619206608083018b617d13565b61921360a083018a617d13565b61922060c08301896188b6565b61922d60e08301886188b6565b61923b6101008301876188b6565b619249610120830186617d13565b619257610140830185617d13565b6192656101608301846188b6565b9d9c50505050505050505050505050565b600060208201905061928b60008301846188b6565b92915050565b60006040820190506192a660008301856188b6565b6192b36020830184617d13565b9392505050565b60006040820190506192cf60008301856188b6565b6192dc6020830184617d04565b9392505050565b6000610100820190506192f9600083018b6188b6565b619306602083018a617d13565b6193136040830189617d13565b6193206060830188617d13565b61932d60808301876188b6565b61933a60a08301866188b6565b61934760c08301856188b6565b61935460e0830184617d22565b9998505050505050505050565b600060608201905061937660008301856188b6565b619383602083018461885a565b9392505050565b600060408201905061939f60008301856188b6565b6193ac60208301846188b6565b9392505050565b60006060820190506193c860008301866188b6565b6193d560208301856188b6565b6193e260408301846188b6565b949350505050565b6000604051905081810181811067ffffffffffffffff82111715619411576194106195d5565b5b8060405250919050565b600082825260208201905092915050565b600061943782619479565b9050919050565b60008115159050919050565b6000819050619458826195d7565b919050565b60006fffffffffffffffffffffffffffffffff82169050919050565b600073ffffffffffffffffffffffffffffffffffffffff82169050919050565b6000819050919050565b60006194ae826195b1565b9050919050565b60006194c0826194c7565b9050919050565b60006194d282619479565b9050919050565b60006194e4826194eb565b9050919050565b60006194f682619479565b9050919050565b60006195088261950f565b9050919050565b600061951a82619479565b9050919050565b600061952c82619533565b9050919050565b600061953e82619479565b9050919050565b600061955082619557565b9050919050565b600061956282619479565b9050919050565b60006195748261957b565b9050919050565b600061958682619479565b9050919050565b60006195988261944a565b9050919050565b60006195aa8261945d565b9050919050565b60006195bc826195c3565b9050919050565b60006195ce82619479565b9050919050565bfe5b600781106195e8576195e76195d5565b5b50565b6195f48161942c565b81146195ff57600080fd5b50565b61960b8161943e565b811461961657600080fd5b50565b6196228161945d565b811461962d57600080fd5b50565b61963981619499565b811461964457600080fd5b5056fe4f776e61626c653a206e6577206f776e657220697320746865207a65726f206164647265737353616665436173743a2076616c756520646f65736e27742066697420696e203132382062697473416464726573733a20696e73756666696369656e742062616c616e636520666f722063616c6c496e697469616c697a61626c653a20636f6e747261637420697320616c726561647920696e697469616c697a6564536166654d6174683a206d756c7469706c69636174696f6e206f766572666c6f775361666545524332303a204552433230206f7065726174696f6e20646964206e6f7420737563636565645361666545524332303a20617070726f76652066726f6d206e6f6e2d7a65726f20746f206e6f6e2d7a65726f20616c6c6f77616e6365a2646970667358221220eeb047decc09bc94499ec3c0de93bb13c2aae6c4c8e0536fd2d141d022a2252864736f6c63430007060033","linkReferences":{}},"methodIdentifiers":{"LENDER_POOL()":"a8c162ab","LIMITS_MANAGER()":"34410ba4","MAXIMUM_PROTOCOL_FEE_FRACTION()":"d6e260a5","PRICE_ORACLE()":"0a19399a","SAVINGS_ACCOUNT()":"7b2a2d1f","SCALING_FACTOR()":"ef4cadc5","STRATEGY_REGISTRY()":"8f75315b","VERIFICATION()":"791ae748","accept(uint256,uint256,address)":"5a76c696","borrow(uint256,uint256)":"0ecbcdab","calculateBorrowableAmount(uint256)":"6a46c1e1","calculateCurrentCollateralRatio(uint256)":"06c6a002","calculateCurrentDebt(uint256)":"de056bc9","calculateInterestAccrued(uint256)":"54a26830","calculateTotalCollateralTokens(uint256)":"8878e26c","cancelRequest(uint256)":"3015394c","cancelRequestOnLowCollection(uint256)":"667c95ba","cancelRequestOnRequestedStateAtEnd(uint256)":"919c1c8a","close(uint256)":"0aebeb4e","depositCollateral(uint256,uint256,bool)":"451226d1","depositedCollateralInShares(uint256)":"b8cc25bd","getBorrowerAddress(uint256)":"d58ed1dc","getEndsAt(uint256)":"ad724fa6","getEquivalentCollateralTokens(uint256,uint256)":"29199019","getPrincipal(uint256)":"da4779e0","getRequiredCollateral(uint256,uint256)":"2322ac36","getStatusAndUpdate(uint256)":"4089c7e3","initialize(address,uint256,address)":"c350a1b5","liquidate(uint256)":"415f1240","owner()":"8da5cb5b","pooledCreditLineConstants(uint256)":"03347d63","pooledCreditLineCounter()":"257dc199","pooledCreditLineVariables(uint256)":"6b5da855","protocolFeeCollector()":"850a1501","protocolFeeFraction()":"3a0298eb","renounceOwnership()":"715018a6","repay(uint256,uint256)":"d8aed145","request((uint256,uint256,address,uint256,uint256,uint256,uint256,uint128,uint128,address,address,address,address,address,bool))":"c3b0a03d","terminate(uint256)":"7a828b28","transferOwnership(address)":"f2fde38b","updateProtocolFeeCollector(address)":"565b54ea","updateProtocolFeeFraction(uint256)":"de9de06e","withdrawAllCollateral(uint256,bool)":"5c8edac4","withdrawCollateral(uint256,uint256,bool)":"22adad3e","withdrawableCollateral(uint256)":"d68f2170"},"id":11}