{
  "_format": "hh-sol-artifact-1",
  "contractName": "CompoundMock",
  "sourceName": "contracts/tests/CompoundMock.sol",
  "abi": [
    {
      "anonymous": false,
      "inputs": [
        {
          "indexed": true,
          "internalType": "address",
          "name": "owner",
          "type": "address"
        },
        {
          "indexed": true,
          "internalType": "address",
          "name": "spender",
          "type": "address"
        },
        {
          "indexed": false,
          "internalType": "uint256",
          "name": "value",
          "type": "uint256"
        }
      ],
      "name": "Approval",
      "type": "event"
    },
    {
      "anonymous": false,
      "inputs": [
        {
          "indexed": true,
          "internalType": "address",
          "name": "from",
          "type": "address"
        },
        {
          "indexed": true,
          "internalType": "address",
          "name": "to",
          "type": "address"
        },
        {
          "indexed": false,
          "internalType": "uint256",
          "name": "value",
          "type": "uint256"
        }
      ],
      "name": "Transfer",
      "type": "event"
    },
    {
      "inputs": [],
      "name": "EXCHANGE_RATE",
      "outputs": [
        {
          "internalType": "uint256",
          "name": "",
          "type": "uint256"
        }
      ],
      "stateMutability": "view",
      "type": "function"
    },
    {
      "inputs": [
        {
          "internalType": "uint256",
          "name": "_rate",
          "type": "uint256"
        },
        {
          "internalType": "address",
          "name": "_underlyingToken",
          "type": "address"
        }
      ],
      "name": "__CompoundMock_init",
      "outputs": [],
      "stateMutability": "nonpayable",
      "type": "function"
    },
    {
      "inputs": [
        {
          "internalType": "address",
          "name": "owner",
          "type": "address"
        },
        {
          "internalType": "address",
          "name": "spender",
          "type": "address"
        }
      ],
      "name": "allowance",
      "outputs": [
        {
          "internalType": "uint256",
          "name": "",
          "type": "uint256"
        }
      ],
      "stateMutability": "view",
      "type": "function"
    },
    {
      "inputs": [
        {
          "internalType": "address",
          "name": "spender",
          "type": "address"
        },
        {
          "internalType": "uint256",
          "name": "amount",
          "type": "uint256"
        }
      ],
      "name": "approve",
      "outputs": [
        {
          "internalType": "bool",
          "name": "",
          "type": "bool"
        }
      ],
      "stateMutability": "nonpayable",
      "type": "function"
    },
    {
      "inputs": [
        {
          "internalType": "address",
          "name": "account",
          "type": "address"
        }
      ],
      "name": "balanceOf",
      "outputs": [
        {
          "internalType": "uint256",
          "name": "",
          "type": "uint256"
        }
      ],
      "stateMutability": "view",
      "type": "function"
    },
    {
      "inputs": [
        {
          "internalType": "address",
          "name": "owner",
          "type": "address"
        }
      ],
      "name": "balanceOfUnderlying",
      "outputs": [
        {
          "internalType": "uint256",
          "name": "",
          "type": "uint256"
        }
      ],
      "stateMutability": "view",
      "type": "function"
    },
    {
      "inputs": [],
      "name": "decimals",
      "outputs": [
        {
          "internalType": "uint8",
          "name": "",
          "type": "uint8"
        }
      ],
      "stateMutability": "view",
      "type": "function"
    },
    {
      "inputs": [
        {
          "internalType": "address",
          "name": "spender",
          "type": "address"
        },
        {
          "internalType": "uint256",
          "name": "subtractedValue",
          "type": "uint256"
        }
      ],
      "name": "decreaseAllowance",
      "outputs": [
        {
          "internalType": "bool",
          "name": "",
          "type": "bool"
        }
      ],
      "stateMutability": "nonpayable",
      "type": "function"
    },
    {
      "inputs": [],
      "name": "exchangeRateStored",
      "outputs": [
        {
          "internalType": "uint256",
          "name": "",
          "type": "uint256"
        }
      ],
      "stateMutability": "pure",
      "type": "function"
    },
    {
      "inputs": [
        {
          "internalType": "address",
          "name": "spender",
          "type": "address"
        },
        {
          "internalType": "uint256",
          "name": "addedValue",
          "type": "uint256"
        }
      ],
      "name": "increaseAllowance",
      "outputs": [
        {
          "internalType": "bool",
          "name": "",
          "type": "bool"
        }
      ],
      "stateMutability": "nonpayable",
      "type": "function"
    },
    {
      "inputs": [
        {
          "internalType": "uint256",
          "name": "mintAmount",
          "type": "uint256"
        }
      ],
      "name": "mint",
      "outputs": [
        {
          "internalType": "uint256",
          "name": "",
          "type": "uint256"
        }
      ],
      "stateMutability": "nonpayable",
      "type": "function"
    },
    {
      "inputs": [
        {
          "internalType": "address",
          "name": "account",
          "type": "address"
        },
        {
          "internalType": "uint256",
          "name": "mintAmount",
          "type": "uint256"
        }
      ],
      "name": "mintOther",
      "outputs": [
        {
          "internalType": "uint256",
          "name": "",
          "type": "uint256"
        }
      ],
      "stateMutability": "nonpayable",
      "type": "function"
    },
    {
      "inputs": [],
      "name": "name",
      "outputs": [
        {
          "internalType": "string",
          "name": "",
          "type": "string"
        }
      ],
      "stateMutability": "view",
      "type": "function"
    },
    {
      "inputs": [],
      "name": "rate",
      "outputs": [
        {
          "internalType": "uint256",
          "name": "",
          "type": "uint256"
        }
      ],
      "stateMutability": "view",
      "type": "function"
    },
    {
      "inputs": [
        {
          "internalType": "uint256",
          "name": "redeemAmount",
          "type": "uint256"
        }
      ],
      "name": "redeemUnderlying",
      "outputs": [
        {
          "internalType": "uint256",
          "name": "",
          "type": "uint256"
        }
      ],
      "stateMutability": "nonpayable",
      "type": "function"
    },
    {
      "inputs": [],
      "name": "supplyRatePerBlock",
      "outputs": [
        {
          "internalType": "uint256",
          "name": "",
          "type": "uint256"
        }
      ],
      "stateMutability": "view",
      "type": "function"
    },
    {
      "inputs": [],
      "name": "symbol",
      "outputs": [
        {
          "internalType": "string",
          "name": "",
          "type": "string"
        }
      ],
      "stateMutability": "view",
      "type": "function"
    },
    {
      "inputs": [],
      "name": "totalSupply",
      "outputs": [
        {
          "internalType": "uint256",
          "name": "",
          "type": "uint256"
        }
      ],
      "stateMutability": "view",
      "type": "function"
    },
    {
      "inputs": [
        {
          "internalType": "address",
          "name": "recipient",
          "type": "address"
        },
        {
          "internalType": "uint256",
          "name": "amount",
          "type": "uint256"
        }
      ],
      "name": "transfer",
      "outputs": [
        {
          "internalType": "bool",
          "name": "",
          "type": "bool"
        }
      ],
      "stateMutability": "nonpayable",
      "type": "function"
    },
    {
      "inputs": [
        {
          "internalType": "address",
          "name": "sender",
          "type": "address"
        },
        {
          "internalType": "address",
          "name": "recipient",
          "type": "address"
        },
        {
          "internalType": "uint256",
          "name": "amount",
          "type": "uint256"
        }
      ],
      "name": "transferFrom",
      "outputs": [
        {
          "internalType": "bool",
          "name": "",
          "type": "bool"
        }
      ],
      "stateMutability": "nonpayable",
      "type": "function"
    },
    {
      "inputs": [],
      "name": "underlyingToken",
      "outputs": [
        {
          "internalType": "contract IERC20Upgradeable",
          "name": "",
          "type": "address"
        }
      ],
      "stateMutability": "view",
      "type": "function"
    }
  ],
  "bytecode": "0x608060405234801561001057600080fd5b5061101b806100206000396000f3fe608060405234801561001057600080fd5b50600436106101375760003560e01c806339509351116100b857806395d89b411161007c57806395d89b4114610290578063a0712d6814610298578063a457c2d7146102ab578063a9059cbb146102be578063ae9d70b0146102d1578063dd62ed3e146102d957600080fd5b8063395093511461021b5780633af9e6691461022e57806369f0a5491461024157806370a0823114610254578063852a12e31461027d57600080fd5b8063182df0f5116100ff578063182df0f5146101b757806323b872dd146101c55780632495a599146101d85780632c4e722e14610203578063313ce5671461020c57600080fd5b806306fdde031461013c578063095ea7b31461015a57806314a8bd0d1461017d57806316ecc2fb1461019a57806318160ddd146101af575b600080fd5b610144610312565b6040516101519190610ed3565b60405180910390f35b61016d610168366004610e50565b6103a4565b6040519015158152602001610151565b61018c670de0b6b3a764000081565b604051908152602001610151565b6101ad6101a8366004610eb1565b6103ba565b005b60355461018c565b670de0b6b3a764000061018c565b61016d6101d3366004610e15565b610494565b6066546101eb906001600160a01b031681565b6040516001600160a01b039091168152602001610151565b61018c60655481565b60405160128152602001610151565b61016d610229366004610e50565b61053e565b61018c61023c366004610dc2565b61057a565b61018c61024f366004610e50565b6105bf565b61018c610262366004610dc2565b6001600160a01b031660009081526033602052604090205490565b61018c61028b366004610e99565b61067a565b61014461072e565b61018c6102a6366004610e99565b61073d565b61016d6102b9366004610e50565b6107e0565b61016d6102cc366004610e50565b610879565b60655461018c565b61018c6102e7366004610de3565b6001600160a01b03918216600090815260346020908152604080832093909416825291909152205490565b60606036805461032190610f94565b80601f016020809104026020016040519081016040528092919081815260200182805461034d90610f94565b801561039a5780601f1061036f5761010080835404028352916020019161039a565b820191906000526020600020905b81548152906001019060200180831161037d57829003601f168201915b5050505050905090565b60006103b1338484610886565b50600192915050565b600054610100900460ff16806103d3575060005460ff16155b61043b5760405162461bcd60e51b815260206004820152602e60248201527f496e697469616c697a61626c653a20636f6e747261637420697320616c72656160448201526d191e481a5b9a5d1a585b1a5e995960921b60648201526084015b60405180910390fd5b600054610100900460ff1615801561045d576000805461ffff19166101011790555b6065839055606680546001600160a01b0319166001600160a01b038416179055801561048f576000805461ff00191690555b505050565b60006104a18484846109aa565b6001600160a01b0384166000908152603460209081526040808320338452909152902054828110156105265760405162461bcd60e51b815260206004820152602860248201527f45524332303a207472616e7366657220616d6f756e74206578636565647320616044820152676c6c6f77616e636560c01b6064820152608401610432565b6105338533858403610886565b506001949350505050565b3360008181526034602090815260408083206001600160a01b038716845290915281205490916103b1918590610575908690610f26565b610886565b6000670de0b6b3a7640000806105a5846001600160a01b031660009081526033602052604090205490565b6105af9190610f5e565b6105b99190610f3e565b92915050565b6066546040516323b872dd60e01b8152336004820152306024820152604481018390526000916001600160a01b0316906323b872dd90606401602060405180830381600087803b15801561061257600080fd5b505af1158015610626573d6000803e3d6000fd5b505050506040513d601f19601f8201168201806040525081019061064a9190610e79565b5061067183670de0b6b3a76400006106628186610f5e565b61066c9190610f3e565b610b79565b50600092915050565b60665460405163a9059cbb60e01b8152336004820152602481018390526000916001600160a01b03169063a9059cbb90604401602060405180830381600087803b1580156106c757600080fd5b505af11580156106db573d6000803e3d6000fd5b505050506040513d601f19601f820116820180604052508101906106ff9190610e79565b5061072633670de0b6b3a76400006107178186610f5e565b6107219190610f3e565b610c58565b506000919050565b60606037805461032190610f94565b6066546040516323b872dd60e01b8152336004820152306024820152604481018390526000916001600160a01b0316906323b872dd90606401602060405180830381600087803b15801561079057600080fd5b505af11580156107a4573d6000803e3d6000fd5b505050506040513d601f19601f820116820180604052508101906107c89190610e79565b5061072633670de0b6b3a76400006106628186610f5e565b3360009081526034602090815260408083206001600160a01b0386168452909152812054828110156108625760405162461bcd60e51b815260206004820152602560248201527f45524332303a2064656372656173656420616c6c6f77616e63652062656c6f77604482015264207a65726f60d81b6064820152608401610432565b61086f3385858403610886565b5060019392505050565b60006103b13384846109aa565b6001600160a01b0383166108e85760405162461bcd60e51b8152602060048201526024808201527f45524332303a20617070726f76652066726f6d20746865207a65726f206164646044820152637265737360e01b6064820152608401610432565b6001600160a01b0382166109495760405162461bcd60e51b815260206004820152602260248201527f45524332303a20617070726f766520746f20746865207a65726f206164647265604482015261737360f01b6064820152608401610432565b6001600160a01b0383811660008181526034602090815260408083209487168084529482529182902085905590518481527f8c5be1e5ebec7d5bd14f71427d1e84f3dd0314c0f7b2291e5b200ac8c7c3b925910160405180910390a3505050565b6001600160a01b038316610a0e5760405162461bcd60e51b815260206004820152602560248201527f45524332303a207472616e736665722066726f6d20746865207a65726f206164604482015264647265737360d81b6064820152608401610432565b6001600160a01b038216610a705760405162461bcd60e51b815260206004820152602360248201527f45524332303a207472616e7366657220746f20746865207a65726f206164647260448201526265737360e81b6064820152608401610432565b6001600160a01b03831660009081526033602052604090205481811015610ae85760405162461bcd60e51b815260206004820152602660248201527f45524332303a207472616e7366657220616d6f756e7420657863656564732062604482015265616c616e636560d01b6064820152608401610432565b6001600160a01b03808516600090815260336020526040808220858503905591851681529081208054849290610b1f908490610f26565b92505081905550826001600160a01b0316846001600160a01b03167fddf252ad1be2c89b69c2b068fc378daa952ba7f163c4a11628f55a4df523b3ef84604051610b6b91815260200190565b60405180910390a350505050565b6001600160a01b038216610bcf5760405162461bcd60e51b815260206004820152601f60248201527f45524332303a206d696e7420746f20746865207a65726f2061646472657373006044820152606401610432565b8060356000828254610be19190610f26565b90915550506001600160a01b03821660009081526033602052604081208054839290610c0e908490610f26565b90915550506040518181526001600160a01b038316906000907fddf252ad1be2c89b69c2b068fc378daa952ba7f163c4a11628f55a4df523b3ef9060200160405180910390a35050565b6001600160a01b038216610cb85760405162461bcd60e51b815260206004820152602160248201527f45524332303a206275726e2066726f6d20746865207a65726f206164647265736044820152607360f81b6064820152608401610432565b6001600160a01b03821660009081526033602052604090205481811015610d2c5760405162461bcd60e51b815260206004820152602260248201527f45524332303a206275726e20616d6f756e7420657863656564732062616c616e604482015261636560f01b6064820152608401610432565b6001600160a01b0383166000908152603360205260408120838303905560358054849290610d5b908490610f7d565b90915550506040518281526000906001600160a01b038516907fddf252ad1be2c89b69c2b068fc378daa952ba7f163c4a11628f55a4df523b3ef9060200160405180910390a3505050565b80356001600160a01b0381168114610dbd57600080fd5b919050565b600060208284031215610dd3578081fd5b610ddc82610da6565b9392505050565b60008060408385031215610df5578081fd5b610dfe83610da6565b9150610e0c60208401610da6565b90509250929050565b600080600060608486031215610e29578081fd5b610e3284610da6565b9250610e4060208501610da6565b9150604084013590509250925092565b60008060408385031215610e62578182fd5b610e6b83610da6565b946020939093013593505050565b600060208284031215610e8a578081fd5b81518015158114610ddc578182fd5b600060208284031215610eaa578081fd5b5035919050565b60008060408385031215610ec3578182fd5b82359150610e0c60208401610da6565b6000602080835283518082850152825b81811015610eff57858101830151858201604001528201610ee3565b81811115610f105783604083870101525b50601f01601f1916929092016040019392505050565b60008219821115610f3957610f39610fcf565b500190565b600082610f5957634e487b7160e01b81526012600452602481fd5b500490565b6000816000190483118215151615610f7857610f78610fcf565b500290565b600082821015610f8f57610f8f610fcf565b500390565b600181811c90821680610fa857607f821691505b60208210811415610fc957634e487b7160e01b600052602260045260246000fd5b50919050565b634e487b7160e01b600052601160045260246000fdfea2646970667358221220b173ab402e9fc2a740cfcd0dfa301feccf6ac83918e92ab108ddf99b836574a564736f6c63430008040033",
  "linkReferences": {},
  "deployedLinkReferences": {}
}