{
  "_format": "hh-sol-artifact-1",
  "contractName": "TestPremiumModel",
  "sourceName": "contracts/mocks/TestPremiumModel.sol",
  "abi": [
    {
      "inputs": [],
      "stateMutability": "nonpayable",
      "type": "constructor"
    },
    {
      "inputs": [
        {
          "internalType": "uint256",
          "name": "_amount",
          "type": "uint256"
        },
        {
          "internalType": "uint256",
          "name": "_term",
          "type": "uint256"
        },
        {
          "internalType": "uint256",
          "name": "_totalLiquidity",
          "type": "uint256"
        },
        {
          "internalType": "uint256",
          "name": "_lockedAmount",
          "type": "uint256"
        }
      ],
      "name": "getPremium",
      "outputs": [
        {
          "internalType": "uint256",
          "name": "",
          "type": "uint256"
        }
      ],
      "stateMutability": "view",
      "type": "function"
    }
  ],
  "bytecode": "0x608060405234801561001057600080fd5b5060ea8061001f6000396000f3fe6080604052348015600f57600080fd5b506004361060285760003560e01c806338c7bf7d14602d575b600080fd5b603c60383660046062565b604e565b60405190815260200160405180910390f35b60006059600a866093565b95945050505050565b60008060008060808587031215607757600080fd5b5050823594602084013594506040840135936060013592509050565b60008260af57634e487b7160e01b600052601260045260246000fd5b50049056fea2646970667358221220f322e4ba081c1da4344661c020b807dcb8baab65d46bdb58582f22b788698c9e64736f6c63430008070033",
  "linkReferences": {},
  "deployedLinkReferences": {}
}