{
  "_format": "hh-sol-artifact-1",
  "contractName": "UniV3VaultFactory",
  "sourceName": "contracts/UniV3VaultFactory.sol",
  "abi": [
    {
      "inputs": [
        {
          "internalType": "contract IVaultGovernance",
          "name": "vaultGovernance_",
          "type": "address"
        }
      ],
      "stateMutability": "nonpayable",
      "type": "constructor"
    },
    {
      "inputs": [
        {
          "internalType": "address[]",
          "name": "vaultTokens",
          "type": "address[]"
        },
        {
          "internalType": "bytes",
          "name": "options",
          "type": "bytes"
        }
      ],
      "name": "deployVault",
      "outputs": [
        {
          "internalType": "contract IVault",
          "name": "",
          "type": "address"
        }
      ],
      "stateMutability": "nonpayable",
      "type": "function"
    },
    {
      "inputs": [],
      "name": "vaultGovernance",
      "outputs": [
        {
          "internalType": "contract IVaultGovernance",
          "name": "",
          "type": "address"
        }
      ],
      "stateMutability": "view",
      "type": "function"
    }
  ],
  "bytecode": "0x608060405234801561001057600080fd5b50604051614e99380380614e9983398101604081905261002f91610054565b600080546001600160a01b0319166001600160a01b0392909216919091179055610084565b60006020828403121561006657600080fd5b81516001600160a01b038116811461007d57600080fd5b9392505050565b614e06806100936000396000f3fe60806040523480156200001157600080fd5b50600436106200003a5760003560e01c80636e1e2ffd146200003f578063fe255a5e1462000072575b600080fd5b62000056620000503660046200021e565b62000086565b6040516001600160a01b03909116815260200160405180910390f35b60005462000056906001600160a01b031681565b60008054604080518082019091526002815261564760f01b6020820152906001600160a01b03163314620000d85760405162461bcd60e51b8152600401620000cf91906200030e565b60405180910390fd5b50600082806020019051810190620000f1919062000366565b905060008060009054906101000a90046001600160a01b031685836040516200011a906200014f565b620001289392919062000380565b604051809103906000f08015801562000145573d6000803e3d6000fd5b5095945050505050565b6149e480620003ed83390190565b634e487b7160e01b600052604160045260246000fd5b604051601f8201601f1916810167ffffffffffffffff811182821017156200019f576200019f6200015d565b604052919050565b600082601f830112620001b957600080fd5b813567ffffffffffffffff811115620001d657620001d66200015d565b620001eb601f8201601f191660200162000173565b8181528460208386010111156200020157600080fd5b816020850160208301376000918101602001919091529392505050565b600080604083850312156200023257600080fd5b823567ffffffffffffffff808211156200024b57600080fd5b818501915085601f8301126200026057600080fd5b81356020828211156200027757620002776200015d565b8160051b6200028882820162000173565b928352848101820192828101908a851115620002a357600080fd5b958301955b84871015620002dd57863592506001600160a01b0383168314620002cc5760008081fd5b8282529583019590830190620002a8565b9750505086013592505080821115620002f557600080fd5b506200030485828601620001a7565b9150509250929050565b600060208083528351808285015260005b818110156200033d578581018301518582016040015282016200031f565b8181111562000350576000604083870101525b50601f01601f1916929092016040019392505050565b6000602082840312156200037957600080fd5b5051919050565b6001600160a01b038481168252606060208084018290528551918401829052600092868201929091906080860190855b81811015620003d0578551851683529483019491830191600101620003b0565b50508094505050505062ffffff8316604083015294935050505056fe60a06040523480156200001157600080fd5b50604051620049e4380380620049e4833981016040819052620000349162000537565b828260016000819055506200005481620002ff60201b620019f41760201c565b6040518060400160405280600381526020016253415560e81b815250906200009a5760405162461bcd60e51b815260040162000091919062000620565b60405180910390fd5b50600180546001600160a01b0319166001600160a01b0384161790558051620000cb9060029060208401906200043b565b5060005b81518110156200013b57600160036000848481518110620000f457620000f462000678565b6020908102919091018101516001600160a01b03168252810191909152604001600020805460ff1916911515919091179055806200013281620006a4565b915050620000cf565b5050600280546040805180820190915282815261151360f21b60208201529250146200017c5760405162461bcd60e51b815260040162000091919062000620565b5062000187620003b4565b6001600160a01b031663c45a01556040518163ffffffff1660e01b815260040160206040518083038186803b158015620001c057600080fd5b505afa158015620001d5573d6000803e3d6000fd5b505050506040513d601f19601f82011682018060405250810190620001fb9190620006c2565b6001600160a01b0316631698ee82600260008154811062000220576200022062000678565b600091825260209091200154600280546001600160a01b0390921691600190811062000250576200025062000678565b60009182526020909120015460405160e084901b6001600160e01b03191681526001600160a01b0392831660048201529116602482015262ffffff8416604482015260640160206040518083038186803b158015620002ae57600080fd5b505afa158015620002c3573d6000803e3d6000fd5b505050506040513d601f19601f82011682018060405250810190620002e99190620006c2565b6001600160a01b0316608052506200076f915050565b60006002825110156200031457506001919050565b60005b60018351620003279190620006e9565b811015620003ab57826200033d82600162000703565b8151811062000350576200035062000678565b60200260200101516001600160a01b031683828151811062000376576200037662000678565b60200260200101516001600160a01b031610620003965750600092915050565b80620003a281620006a4565b91505062000317565b50600192915050565b600154604080516301a6998760e71b815290516000926001600160a01b03169163d34cc380916004808301926020929190829003018186803b158015620003fa57600080fd5b505afa1580156200040f573d6000803e3d6000fd5b505050506040513d601f19601f820116820180604052508101906200043591906200071e565b51919050565b82805482825590600052602060002090810192821562000493579160200282015b828111156200049357825182546001600160a01b0319166001600160a01b039091161782556020909201916001909101906200045c565b50620004a1929150620004a5565b5090565b5b80821115620004a15760008155600101620004a6565b6001600160a01b0381168114620004d257600080fd5b50565b634e487b7160e01b600052604160045260246000fd5b604051601f8201601f191681016001600160401b0381118282101715620005165762000516620004d5565b604052919050565b805162ffffff811681146200053257600080fd5b919050565b6000806000606084860312156200054d57600080fd5b83516200055a81620004bc565b602085810151919450906001600160401b03808211156200057a57600080fd5b818701915087601f8301126200058f57600080fd5b815181811115620005a457620005a4620004d5565b8060051b9150620005b7848301620004eb565b818152918301840191848101908a841115620005d257600080fd5b938501935b83851015620006005784519250620005ef83620004bc565b8282529385019390850190620005d7565b80975050505050505062000617604085016200051e565b90509250925092565b600060208083528351808285015260005b818110156200064f5785810183015185820160400152820162000631565b8181111562000662576000604083870101525b50601f01601f1916929092016040019392505050565b634e487b7160e01b600052603260045260246000fd5b634e487b7160e01b600052601160045260246000fd5b6000600019821415620006bb57620006bb6200068e565b5060010190565b600060208284031215620006d557600080fd5b8151620006e281620004bc565b9392505050565b600082821015620006fe57620006fe6200068e565b500390565b600082198211156200071957620007196200068e565b500190565b6000602082840312156200073157600080fd5b604051602081016001600160401b0381118282101715620007565762000756620004d5565b60405282516200076681620004bc565b81529392505050565b60805161424b62000799600039600081816101300152818161139c0152612dde015261424b6000f3fe608060405234801561001057600080fd5b50600436106100f55760003560e01c8063566ca6b411610097578063e8216b8911610066578063e8216b8914610243578063f4adc08b14610256578063fe255a5e1461025f578063fe4b84df1461027057600080fd5b8063566ca6b4146102005780636972223314610213578063e504cab314610228578063e5328e061461023b57600080fd5b80632062d754116100d35780632062d7541461017f57806327a35e5a1461019f578063338c4ccb146101b257806347ccca02146101ee57600080fd5b8063150b7a02146100fa57806316f0115b1461012b57806318b4d37f1461016a575b600080fd5b61010d61010836600461385a565b610283565b6040516001600160e01b031990911681526020015b60405180910390f35b6101527f000000000000000000000000000000000000000000000000000000000000000081565b6040516001600160a01b039091168152602001610122565b61017d6101783660046138c5565b6105e0565b005b61019261018d366004613a06565b61081f565b6040516101229190613acf565b6101926101ad366004613a06565b610a84565b6101de6101c0366004613ae2565b6001600160a01b031660009081526003602052604090205460ff1690565b6040519015158152602001610122565b6004545b604051908152602001610122565b61019261020e366004613aff565b610c0d565b61021b610f22565b6040516101229190613bbf565b610192610236366004613ae2565b610f84565b6101926112a5565b61017d610251366004613bd2565b6114ab565b6101f260055481565b6001546001600160a01b0316610152565b61017d61027e366004613c17565b61184b565b600061028d611a99565b6001600160a01b0316336001600160a01b0316146102df5760405162461bcd60e51b81526004016102d69060208082526004908201526314d3919560e21b604082015260600190565b60405180910390fd5b6102e885611b1c565b61031a5760405162461bcd60e51b815260206004820152600360248201526229aa2960e91b60448201526064016102d6565b600080610325611a99565b6001600160a01b03166399fbab88866040518263ffffffff1660e01b815260040161035291815260200190565b6101806040518083038186803b15801561036b57600080fd5b505afa15801561037f573d6000803e3d6000fd5b505050506040513d601f19601f820116820180604052508101906103a39190613c77565b505050505050505093509350505060026000815481106103c5576103c5613d58565b6000918252602090912001546001600160a01b038381169116148015610415575060026001815481106103fa576103fa613d58565b6000918252602090912001546001600160a01b038281169116145b6104465760405162461bcd60e51b8152602060048201526002602482015261159560f21b60448201526064016102d6565b600554156105c757600080600061045b611a99565b6001600160a01b03166399fbab886005546040518263ffffffff1660e01b815260040161048a91815260200190565b6101806040518083038186803b1580156104a357600080fd5b505afa1580156104b7573d6000803e3d6000fd5b505050506040513d601f19601f820116820180604052508101906104db9190613c77565b9b509b505050995050505050505050826001600160801b0316600014801561050a57506001600160801b038216155b801561051d57506001600160801b038116155b61054f5760405162461bcd60e51b815260206004820152600360248201526215159360ea1b60448201526064016102d6565b610557611a99565b6005546040516323b872dd60e01b81523060048201526001600160a01b038c8116602483015260448201929092529116906323b872dd90606401600060405180830381600087803b1580156105ab57600080fd5b505af11580156105bf573d6000803e3d6000fd5b505050505050505b5050506005829055630a85bd0160e11b5b949350505050565b6105e8611c28565b600060045411604051806040016040528060048152602001631253925560e21b815250906106295760405162461bcd60e51b81526004016102d69190613d9a565b5061063333611c82565b60405180604001604052806002815260200161494f60f01b8152509061066c5760405162461bcd60e51b81526004016102d69190613d9a565b5060015460408051637ac46fbb60e01b815281516000936001600160a01b031692637ac46fbb9260048082019391829003018186803b1580156106ae57600080fd5b505afa1580156106c2573d6000803e3d6000fd5b505050506040513d601f19601f820116820180604052508101906106e69190613dcd565b5160405163884289e360e01b81526001600160a01b0385811660048301529192509082169063884289e39060240160206040518083038186803b15801561072c57600080fd5b505afa158015610740573d6000803e3d6000fd5b505050506040513d601f19601f820116820180604052508101906107649190613e3b565b60405180604001604052806002815260200161414360f01b8152509061079d5760405162461bcd60e51b81526004016102d69190613d9a565b50600080846001600160a01b0316846040516107b99190613e56565b6000604051808303816000865af19150503d80600081146107f6576040519150601f19603f3d011682016040523d82523d6000602084013e6107fb565b606091505b50915091508161080e5780518082602001fd5b50505061081b6001600055565b5050565b6060610829611c28565b61083233611c82565b6108635760405162461bcd60e51b8152602060048201526002602482015261494f60f01b60448201526064016102d6565b60015460408051637ac46fbb60e01b815281516000936001600160a01b031692637ac46fbb9260048082019391829003018186803b1580156108a457600080fd5b505afa1580156108b8573d6000803e3d6000fd5b505050506040513d601f19601f820116820180604052508101906108dc9190613dcd565b60200151600480546040516331a9108f60e11b8152918201529091506000906001600160a01b03831690636352211e9060240160206040518083038186803b15801561092757600080fd5b505afa15801561093b573d6000803e3d6000fd5b505050506040513d601f19601f8201168201806040525081019061095f9190613e72565b90506001600160a01b03811633148061097c575061097c87611e34565b60405180604001604052806005815260200164494e54524160d81b815250906109b85760405162461bcd60e51b81526004016102d69190613d9a565b5060006109c58787612102565b905060006109d48983886121eb565b9050610a3b886002805480602002602001604051908101604052809291908181526020018280548015610a3057602002820191906000526020600020905b81546001600160a01b03168152600190910190602001808311610a12575b505050505083612284565b94507f54f9e6ef58e36de62f59f9ee6c4b878af84989c53a3642eba415ac3ac4e11cda8986604051610a6e929190613e8f565b60405180910390a1505050506105d86001600055565b606060005b8451811015610b18576000848281518110610aa657610aa6613d58565b60200260200101511115610b0657610b068630868481518110610acb57610acb613d58565b6020026020010151888581518110610ae557610ae5613d58565b60200260200101516001600160a01b03166124a5909392919063ffffffff16565b80610b1081613ec9565b915050610a89565b50610b24848484610c0d565b905060005b8451811015610c04576000848281518110610b4657610b46613d58565b6020026020010151838381518110610b6057610b60613d58565b602002602001015110610b74576000610bb2565b828281518110610b8657610b86613d58565b6020026020010151858381518110610ba057610ba0613d58565b6020026020010151610bb29190613ee4565b90508015610bf157610bf18782888581518110610bd157610bd1613d58565b60200260200101516001600160a01b03166125169092919063ffffffff16565b5080610bfc81613ec9565b915050610b29565b50949350505050565b6060610c17611c28565b6004805460408051808201909152918252631253925560e21b60208301529081610c545760405162461bcd60e51b81526004016102d69190613d9a565b50610c5e33611c82565b60405180604001604052806002815260200161494f60f01b81525090610c975760405162461bcd60e51b81526004016102d69190613d9a565b5060015460408051637ac46fbb60e01b815281516000936001600160a01b031692637ac46fbb9260048082019391829003018186803b158015610cd957600080fd5b505afa158015610ced573d6000803e3d6000fd5b505050506040513d601f19601f82011682018060405250810190610d119190613dcd565b602001516040516331a9108f60e11b8152600481018490529091506000906001600160a01b03831690636352211e9060240160206040518083038186803b158015610d5b57600080fd5b505afa158015610d6f573d6000803e3d6000fd5b505050506040513d601f19601f82011682018060405250810190610d939190613e72565b60405163fcdabd2760e01b81526001600160a01b03808316600483015291925060009184169063fcdabd279060240160206040518083038186803b158015610dda57600080fd5b505afa158015610dee573d6000803e3d6000fd5b505050506040513d601f19601f82011682018060405250810190610e129190613efb565b9050600081116040518060400160405280600381526020016227abab60e91b81525090610e525760405162461bcd60e51b81526004016102d69190613d9a565b506000610e5f8989612102565b90506000610e6d828961254b565b9050610ed28a6002805480602002602001604051908101604052809291908181526020018280548015610a30576020028201919060005260206000209081546001600160a01b03168152600190910190602001808311610a1257505050505083612284565b96507f08e404e978692dd1b8275016b7a7b0b3ae4afd06b0cec7228060bb2da18c84fd81604051610f039190613acf565b60405180910390a1505050505050610f1b6001600055565b9392505050565b60606002805480602002602001604051908101604052809291908181526020018280548015610f7a57602002820191906000526020600020905b81546001600160a01b03168152600190910190602001808311610f5c575b5050505050905090565b6060610f8e611c28565b610f9733611c82565b60405180604001604052806002815260200161494f60f01b81525090610fd05760405162461bcd60e51b81526004016102d69190613d9a565b5060015460408051637ac46fbb60e01b815281516000936001600160a01b031692637ac46fbb9260048082019391829003018186803b15801561101257600080fd5b505afa158015611026573d6000803e3d6000fd5b505050506040513d601f19601f8201168201806040525081019061104a9190613dcd565b60200151600480546040516331a9108f60e11b8152918201529091506000906001600160a01b03831690636352211e9060240160206040518083038186803b15801561109557600080fd5b505afa1580156110a9573d6000803e3d6000fd5b505050506040513d601f19601f820116820180604052508101906110cd9190613e72565b90506001600160a01b0381163314806110ea57506110ea84611e34565b60405180604001604052806005815260200164494e54524160d81b815250906111265760405162461bcd60e51b81526004016102d69190613d9a565b506040805160028082526060820183529091602083019080368337019050509250600080611152611a99565b6040805160808101825260055481526001600160a01b0389811660208301526001600160801b038284018190526060830152915163fc6f786560e01b8152929091169163fc6f7865916111a791600401613f14565b6040805180830381600087803b1580156111c057600080fd5b505af11580156111d4573d6000803e3d6000fd5b505050506040513d601f19601f820116820180604052508101906111f89190613f57565b91509150818560008151811061121057611210613d58565b602002602001018181525050808560018151811061123057611230613d58565b602002602001018181525050856001600160a01b0316326001600160a01b03167f148a74163008e35e1831546f25b89a4cacad54c2ff2080ca8b839d37da13b6d7848460405161128a929190918252602082015260400190565b60405180910390a3505050506112a06001600055565b919050565b6002546060906001600160401b038111156112c2576112c26137a5565b6040519080825280602002602001820160405280156112eb578160200160208202803683370190505b509050600554600014156112fc5790565b6000806000611309611a99565b6001600160a01b03166399fbab886005546040518263ffffffff1660e01b815260040161133891815260200190565b6101806040518083038186803b15801561135157600080fd5b505afa158015611365573d6000803e3d6000fd5b505050506040513d601f19601f820116820180604052508101906113899190613c77565b50505050975097509750505050505060007f00000000000000000000000000000000000000000000000000000000000000006001600160a01b0316633850c7bd6040518163ffffffff1660e01b815260040160e06040518083038186803b1580156113f357600080fd5b505afa158015611407573d6000803e3d6000fd5b505050506040513d601f19601f8201168201806040525081019061142b9190613f8d565b5050505050509050600061143e856127cf565b9050600061144b856127cf565b905060008061145c85858589612be4565b91509150818960008151811061147457611474613d58565b602002602001018181525050808960018151811061149457611494613d58565b602002602001018181525050505050505050505090565b6114b3611c28565b600060045411604051806040016040528060048152602001631253925560e21b815250906114f45760405162461bcd60e51b81526004016102d69190613d9a565b5060015460408051637ac46fbb60e01b815281516000936001600160a01b031692637ac46fbb9260048082019391829003018186803b15801561153657600080fd5b505afa15801561154a573d6000803e3d6000fd5b505050506040513d601f19601f8201168201806040525081019061156e9190613dcd565b51604051630935e01b60e21b81523360048201529091506000906001600160a01b038316906324d7806c9060240160206040518083038186803b1580156115b457600080fd5b505afa1580156115c8573d6000803e3d6000fd5b505050506040513d601f19601f820116820180604052508101906115ec9190613e3b565b905080806115fe57506115fe33611c82565b6040518060400160405280600381526020016241444d60e81b815250906116385760405162461bcd60e51b81526004016102d69190613d9a565b50806116855761164784611e34565b60405180604001604052806005815260200164494e54524160d81b815250906116835760405162461bcd60e51b81526004016102d69190613d9a565b505b600083516001600160401b038111156116a0576116a06137a5565b6040519080825280602002602001820160405280156116c9578160200160208202803683370190505b50905060005b84518110156118025760008582815181106116ec576116ec613d58565b60209081029190910101516040516370a0823160e01b81523060048201529091506001600160a01b038216906370a082319060240160206040518083038186803b15801561173957600080fd5b505afa15801561174d573d6000803e3d6000fd5b505050506040513d601f19601f820116820180604052508101906117719190613efb565b83838151811061178357611783613d58565b6020026020010181815250508282815181106117a1576117a1613d58565b6020026020010151600014156117b757506117f0565b6117ee878484815181106117cd576117cd613d58565b6020026020010151836001600160a01b03166125169092919063ffffffff16565b505b806117fa81613ec9565b9150506116cf565b507f9efcb26e0cf572bd9171640e114f387cef91cd3e38532ed6b3f80c7f2e758f878585836040516118369392919061401d565b60405180910390a150505061081b6001600055565b600154604080518082019091526002815261564760f01b6020820152906001600160a01b031633146118905760405162461bcd60e51b81526004016102d69190613d9a565b5060408051808201909152600481526304e4654360e41b6020820152816118ca5760405162461bcd60e51b81526004016102d69190613d9a565b506004805460408051808201909152918252631253925560e21b6020830152156119075760405162461bcd60e51b81526004016102d69190613d9a565b50600481815560015460408051637ac46fbb60e01b815281516000946001600160a01b0390941693637ac46fbb938382019390929190829003018186803b15801561195157600080fd5b505afa158015611965573d6000803e3d6000fd5b505050506040513d601f19601f820116820180604052508101906119899190613dcd565b6020015160405163a22cb46560e01b81526001600160a01b038216600482018190526001602483015291925063a22cb46590604401600060405180830381600087803b1580156119d857600080fd5b505af11580156119ec573d6000803e3d6000fd5b505050505050565b6000600282511015611a0857506001919050565b60005b60018351611a199190613ee4565b811015611a905782611a2c82600161405d565b81518110611a3c57611a3c613d58565b60200260200101516001600160a01b0316838281518110611a5f57611a5f613d58565b60200260200101516001600160a01b031610611a7e5750600092915050565b80611a8881613ec9565b915050611a0b565b50600192915050565b600154604080516301a6998760e71b815290516000926001600160a01b03169163d34cc380916004808301926020929190829003018186803b158015611ade57600080fd5b505afa158015611af2573d6000803e3d6000fd5b505050506040513d601f19601f82011682018060405250810190611b169190614075565b51919050565b60015460408051637ac46fbb60e01b815281516000936001600160a01b0380871694911692637ac46fbb9260048083019392829003018186803b158015611b6257600080fd5b505afa158015611b76573d6000803e3d6000fd5b505050506040513d601f19601f82011682018060405250810190611b9a9190613dcd565b602001516004805460405163020604bf60e21b8152918201526001600160a01b039091169063081812fc9060240160206040518083038186803b158015611be057600080fd5b505afa158015611bf4573d6000803e3d6000fd5b505050506040513d601f19601f82011682018060405250810190611c189190613e72565b6001600160a01b03161492915050565b60026000541415611c7b5760405162461bcd60e51b815260206004820152601f60248201527f5265656e7472616e637947756172643a207265656e7472616e742063616c6c0060448201526064016102d6565b6002600055565b60015460408051637ac46fbb60e01b8152815160009384936001600160a01b0390911692637ac46fbb9260048083019392829003018186803b158015611cc757600080fd5b505afa158015611cdb573d6000803e3d6000fd5b505050506040513d601f19601f82011682018060405250810190611cff9190613dcd565b6020015160045490915080611d18575060009392505050565b60405163020604bf60e21b8152600481018290526001600160a01b03808616919084169063081812fc9060240160206040518083038186803b158015611d5d57600080fd5b505afa158015611d71573d6000803e3d6000fd5b505050506040513d601f19601f82011682018060405250810190611d959190613e72565b6001600160a01b031614806105d857506040516331a9108f60e11b8152600481018290526001600160a01b038086169190841690636352211e9060240160206040518083038186803b158015611dea57600080fd5b505afa158015611dfe573d6000803e3d6000fd5b505050506040513d601f19601f82011682018060405250810190611e229190613e72565b6001600160a01b031614949350505050565b6000813b63ffffffff16611e4a57506000919050565b60015460408051637ac46fbb60e01b815281516000936001600160a01b031692637ac46fbb9260048082019391829003018186803b158015611e8b57600080fd5b505afa158015611e9f573d6000803e3d6000fd5b505050506040513d601f19601f82011682018060405250810190611ec39190613dcd565b60200151905060045460001415611edd5750600092915050565b600480546040516331a9108f60e11b8152918201526000906001600160a01b03831690636352211e9060240160206040518083038186803b158015611f2157600080fd5b505afa158015611f35573d6000803e3d6000fd5b505050506040513d601f19601f82011682018060405250810190611f599190613e72565b60405163fcdabd2760e01b81526001600160a01b03808316600483015291925060009184169063fcdabd279060240160206040518083038186803b158015611fa057600080fd5b505afa158015611fb4573d6000803e3d6000fd5b505050506040513d601f19601f82011682018060405250810190611fd89190613efb565b905080611fea57506000949350505050565b604051638333903b60e01b815230600482015282906001600160a01b03821690638333903b9060240160206040518083038186803b15801561202b57600080fd5b505afa15801561203f573d6000803e3d6000fd5b505050506040513d601f19601f820116820180604052508101906120639190613e3b565b15806120e55750604051638333903b60e01b81526001600160a01b038781166004830152821690638333903b9060240160206040518083038186803b1580156120ab57600080fd5b505afa1580156120bf573d6000803e3d6000fd5b505050506040513d601f19601f820116820180604052508101906120e39190613e3b565b155b156120f65750600095945050505050565b50600195945050505050565b606061210d836119f4565b6040518060400160405280600381526020016253415560e81b815250906121475760405162461bcd60e51b81526004016102d69190613d9a565b508151835114604051806040016040528060018152602001601360fa1b815250906121855760405162461bcd60e51b81526004016102d69190613d9a565b50610f1b60028054806020026020016040519081016040528092919081815260200182805480156121df57602002820191906000526020600020905b81546001600160a01b031681526001909101906020018083116121c1575b50505050508484612284565b604080516002808252606080830184529260208301908036833750506005549192505061221757610f1b565b600061222283612c80565b90506000612231858784612d29565b905080600001518360008151811061224b5761224b613d58565b60200260200101818152505080602001518360018151811061226f5761226f613d58565b60200260200101818152505050509392505050565b6060600084516001600160401b038111156122a1576122a16137a5565b6040519080825280602002602001820160405280156122ca578160200160208202803683370190505b5090506000805b8651821080156122e15750855181105b15612460578581815181106122f8576122f8613d58565b60200260200101516001600160a01b031687838151811061231b5761231b613d58565b60200260200101516001600160a01b0316101561236357600083838151811061234657612346613d58565b60209081029190910101528161235b81613ec9565b9250506122d1565b85818151811061237557612375613d58565b60200260200101516001600160a01b031687838151811061239857612398613d58565b60200260200101516001600160a01b03161115612411578481815181106123c1576123c1613d58565b6020026020010151600014156123e357806123db81613ec9565b9150506122d1565b60405162461bcd60e51b815260206004820152600360248201526254505360e81b60448201526064016102d6565b84818151811061242357612423613d58565b602002602001015183838151811061243d5761243d613d58565b60209081029190910101528161245281613ec9565b92505080806123db90613ec9565b865182101561249a57600083838151811061247d5761247d613d58565b60209081029190910101528161249281613ec9565b925050612460565b509095945050505050565b6040516001600160a01b03808516602483015283166044820152606481018290526125109085906323b872dd60e01b906084015b60408051601f198184030181529190526020810180516001600160e01b03166001600160e01b03199093169290921790915261310a565b50505050565b6040516001600160a01b03831660248201526044810182905261254690849063a9059cbb60e01b906064016124d9565b505050565b6060600060028054806020026020016040519081016040528092919081815260200182805480156125a557602002820191906000526020600020905b81546001600160a01b03168152600190910190602001808311612587575b5050505050905060005b81518110156125ec576125da8282815181106125cd576125cd613d58565b60200260200101516131df565b806125e481613ec9565b9150506125af565b50604080516002808252606082018352909160208301908036833750506005549193505061261a57506127c9565b600061262584612c80565b9050600060405180604001604052808760008151811061264757612647613d58565b602002602001015181526020018760018151811061266757612667613d58565b602002602001015181525090506000604051806040016040528084600001518152602001846020015181525090506000806126a0611a99565b6040805160c0810182526005548152865160208083019182528089015183850190815288516060850190815291890151608085019081528b86015160a08601908152955163219f5d1760e01b81529451600486015292516024850152516044840152516064830152516084820152905160a48201526001600160a01b03919091169063219f5d179060c401606060405180830381600087803b15801561274557600080fd5b505af1158015612759573d6000803e3d6000fd5b505050506040513d601f19601f8201168201806040525081019061277d91906140c0565b9250925050818760008151811061279657612796613d58565b60200260200101818152505080876001815181106127b6576127b6613d58565b6020026020010181815250505050505050505b92915050565b60008060008360020b126127e6578260020b6127f3565b8260020b6127f3906140f5565b9050612802620d89e719614112565b60020b8111156128385760405162461bcd60e51b81526020600482015260016024820152601560fa1b60448201526064016102d6565b60006001821661284c57600160801b61285e565b6ffffcb933bd6fad37aa2d162d1a5940015b70ffffffffffffffffffffffffffffffffff169050600282161561289d576080612898826ffff97272373d413259a46990580e213a614135565b901c90505b60048216156128c75760806128c2826ffff2e50f5f656932ef12357cf3c7fdcc614135565b901c90505b60088216156128f15760806128ec826fffe5caca7e10e4e61c3624eaa0941cd0614135565b901c90505b601082161561291b576080612916826fffcb9843d60f6159c9db58835c926644614135565b901c90505b6020821615612945576080612940826fff973b41fa98c081472e6896dfb254c0614135565b901c90505b604082161561296f57608061296a826fff2ea16466c96a3843ec78b326b52861614135565b901c90505b6080821615612999576080612994826ffe5dee046a99a2a811c461f1969c3053614135565b901c90505b6101008216156129c45760806129bf826ffcbe86c7900a88aedcffc83b479aa3a4614135565b901c90505b6102008216156129ef5760806129ea826ff987a7253ac413176f2b074cf7815e54614135565b901c90505b610400821615612a1a576080612a15826ff3392b0822b70005940c7a398e4b70f3614135565b901c90505b610800821615612a45576080612a40826fe7159475a2c29b7443b29c7fa6e889d9614135565b901c90505b611000821615612a70576080612a6b826fd097f3bdfd2022b8845ad8f792aa5825614135565b901c90505b612000821615612a9b576080612a96826fa9f746462d870fdf8a65dc1f90e061e5614135565b901c90505b614000821615612ac6576080612ac1826f70d869a156d2a1b890bb3df62baf32f7614135565b901c90505b618000821615612af1576080612aec826f31be135f97d08fd981231505542fcfa6614135565b901c90505b62010000821615612b1d576080612b18826f09aa508b5b7a84e1c677de54f3e99bc9614135565b901c90505b62020000821615612b48576080612b43826e5d6af8dedb81196699c329225ee604614135565b901c90505b62040000821615612b72576080612b6d826d2216e584f5fa1ea926041bedfe98614135565b901c90505b62080000821615612b9a576080612b95826b048a170391f7dc42444e8fa2614135565b901c90505b60008460020b1315612bb557612bb28160001961416a565b90505b612bc46401000000008261417e565b15612bd0576001612bd3565b60005b6105d89060ff16602083901c61405d565b600080836001600160a01b0316856001600160a01b03161115612c05579293925b846001600160a01b0316866001600160a01b031611612c3057612c29858585613321565b9150612c77565b836001600160a01b0316866001600160a01b03161015612c6957612c55868585613321565b9150612c62858785613394565b9050612c77565b612c74858585613394565b90505b94509492505050565b612ca460405180606001604052806000815260200160008152602001600081525090565b8151612cd5576040805160608101825260008082526020820152908101612ccd4261025861405d565b905292915050565b8151606014604051806040016040528060038152602001621253d360ea1b81525090612d145760405162461bcd60e51b81526004016102d69190613d9a565b50818060200190518101906127c99190614192565b6040805180820190915260008082526020820152600080600080612d4b611a99565b6001600160a01b03166399fbab886005546040518263ffffffff1660e01b8152600401612d7a91815260200190565b6101806040518083038186803b158015612d9357600080fd5b505afa158015612da7573d6000803e3d6000fd5b505050506040513d601f19601f82011682018060405250810190612dcb9190613c77565b50505050975097509750505050505060007f00000000000000000000000000000000000000000000000000000000000000006001600160a01b0316633850c7bd6040518163ffffffff1660e01b815260040160e06040518083038186803b158015612e3557600080fd5b505afa158015612e49573d6000803e3d6000fd5b505050506040513d601f19601f82011682018060405250810190612e6d9190613f8d565b50505050505090506000612e80856127cf565b90506000612e8d856127cf565b9050612ed08383838e600081518110612ea857612ea8613d58565b60200260200101518f600181518110612ec357612ec3613d58565b60200260200101516133de565b9650866001600160801b0316846001600160801b031610612ef15786612ef3565b835b96506001600160801b038716612f28576040518060400160405280600081526020016000815250975050505050505050610f1b565b505050505050600060405180604001604052808560000151815260200185602001518152509050600080612f5a611a99565b6040805160a08101825260055481526001600160801b038088166020808401918252885184860190815290890151606085019081528c860151608086019081529551630624e65f60e11b8152945160048601529151909216602484015290516044830152516064820152905160848201526001600160a01b039190911690630c49ccbe9060a4016040805180830381600087803b158015612ffa57600080fd5b505af115801561300e573d6000803e3d6000fd5b505050506040513d601f19601f820116820180604052508101906130329190613f57565b91509150600080613041611a99565b6040805160808101825260055481526001600160a01b038c811660208301526001600160801b038089168385015287166060830152915163fc6f786560e01b8152929091169163fc6f78659161309991600401613f14565b6040805180830381600087803b1580156130b257600080fd5b505af11580156130c6573d6000803e3d6000fd5b505050506040513d601f19601f820116820180604052508101906130ea9190613f57565b6040805180820190915291825260208201529a9950505050505050505050565b600061315f826040518060400160405280602081526020017f5361666545524332303a206c6f772d6c6576656c2063616c6c206661696c6564815250856001600160a01b03166134a29092919063ffffffff16565b90508051600014806131805750808060200190518101906131809190613e3b565b6125465760405162461bcd60e51b815260206004820152602a60248201527f5361666545524332303a204552433230206f7065726174696f6e20646964206e6044820152691bdd081cdd58d8d9595960b21b60648201526084016102d6565b6131ec600260001961416a565b816001600160a01b031663dd62ed3e613203611a99565b6040516001600160e01b031960e084901b1681526001600160a01b03909116600482015230602482015260440160206040518083038186803b15801561324857600080fd5b505afa15801561325c573d6000803e3d6000fd5b505050506040513d601f19601f820116820180604052508101906132809190613efb565b101561331e57806001600160a01b031663095ea7b361329d611a99565b6040516001600160e01b031960e084901b1681526001600160a01b0390911660048201526000196024820152604401602060405180830381600087803b1580156132e657600080fd5b505af11580156132fa573d6000803e3d6000fd5b505050506040513d601f19601f8201168201806040525081019061081b9190613e3b565b50565b6000826001600160a01b0316846001600160a01b03161115613341579192915b6001600160a01b03841661338a6fffffffffffffffffffffffffffffffff60601b606085901b1661337287876141ed565b6001600160a01b0316866001600160a01b03166134b1565b6105d8919061416a565b6000826001600160a01b0316846001600160a01b031611156133b4579192915b6105d86001600160801b0383166133cb86866141ed565b6001600160a01b0316600160601b6134b1565b6000836001600160a01b0316856001600160a01b031611156133fe579293925b846001600160a01b0316866001600160a01b03161161342957613422858585613564565b9050613499565b836001600160a01b0316866001600160a01b0316101561348b576000613450878686613564565b9050600061345f8789866135ce565b9050806001600160801b0316826001600160801b0316106134805780613482565b815b92505050613499565b6134968585846135ce565b90505b95945050505050565b60606105d88484600085613604565b6000808060001985870985870292508281108382030391505080600014156134eb57600084116134e057600080fd5b508290049050610f1b565b8084116134f757600080fd5b6000848688096000868103871696879004966002600389028118808a02820302808a02820302808a02820302808a02820302808a02820302808a02909103029181900381900460010186841190950394909402919094039290920491909117919091029150509392505050565b6000826001600160a01b0316846001600160a01b03161115613584579192915b60006135a7856001600160a01b0316856001600160a01b0316600160601b6134b1565b90506134996135c984836135bb89896141ed565b6001600160a01b03166134b1565b6136df565b6000826001600160a01b0316846001600160a01b031611156135ee579192915b6105d86135c983600160601b6135bb88886141ed565b6060824710156136655760405162461bcd60e51b815260206004820152602660248201527f416464726573733a20696e73756666696369656e742062616c616e636520666f6044820152651c8818d85b1b60d21b60648201526084016102d6565b600080866001600160a01b031685876040516136819190613e56565b60006040518083038185875af1925050503d80600081146136be576040519150601f19603f3d011682016040523d82523d6000602084013e6136c3565b606091505b50915091506136d4878383876136f5565b979650505050505050565b806001600160801b03811681146112a057600080fd5b6060831561376157825161375a576001600160a01b0385163b61375a5760405162461bcd60e51b815260206004820152601d60248201527f416464726573733a2063616c6c20746f206e6f6e2d636f6e747261637400000060448201526064016102d6565b50816105d8565b6105d883838151156137765781518083602001fd5b8060405162461bcd60e51b81526004016102d69190613d9a565b6001600160a01b038116811461331e57600080fd5b634e487b7160e01b600052604160045260246000fd5b604051601f8201601f191681016001600160401b03811182821017156137e3576137e36137a5565b604052919050565b600082601f8301126137fc57600080fd5b81356001600160401b03811115613815576138156137a5565b613828601f8201601f19166020016137bb565b81815284602083860101111561383d57600080fd5b816020850160208301376000918101602001919091529392505050565b6000806000806080858703121561387057600080fd5b843561387b81613790565b9350602085013561388b81613790565b92506040850135915060608501356001600160401b038111156138ad57600080fd5b6138b9878288016137eb565b91505092959194509250565b600080604083850312156138d857600080fd5b82356138e381613790565b915060208301356001600160401b038111156138fe57600080fd5b61390a858286016137eb565b9150509250929050565b60006001600160401b0382111561392d5761392d6137a5565b5060051b60200190565b600082601f83011261394857600080fd5b8135602061395d61395883613914565b6137bb565b82815260059290921b8401810191818101908684111561397c57600080fd5b8286015b848110156139a057803561399381613790565b8352918301918301613980565b509695505050505050565b600082601f8301126139bc57600080fd5b813560206139cc61395883613914565b82815260059290921b840181019181810190868411156139eb57600080fd5b8286015b848110156139a057803583529183019183016139ef565b60008060008060808587031215613a1c57600080fd5b8435613a2781613790565b935060208501356001600160401b0380821115613a4357600080fd5b613a4f88838901613937565b94506040870135915080821115613a6557600080fd5b613a71888389016139ab565b93506060870135915080821115613a8757600080fd5b506138b9878288016137eb565b600081518084526020808501945080840160005b83811015613ac457815187529582019590820190600101613aa8565b509495945050505050565b602081526000610f1b6020830184613a94565b600060208284031215613af457600080fd5b8135610f1b81613790565b600080600060608486031215613b1457600080fd5b83356001600160401b0380821115613b2b57600080fd5b613b3787838801613937565b94506020860135915080821115613b4d57600080fd5b613b59878388016139ab565b93506040860135915080821115613b6f57600080fd5b50613b7c868287016137eb565b9150509250925092565b600081518084526020808501945080840160005b83811015613ac45781516001600160a01b031687529582019590820190600101613b9a565b602081526000610f1b6020830184613b86565b60008060408385031215613be557600080fd5b8235613bf081613790565b915060208301356001600160401b03811115613c0b57600080fd5b61390a85828601613937565b600060208284031215613c2957600080fd5b5035919050565b80516112a081613790565b805162ffffff811681146112a057600080fd5b8051600281900b81146112a057600080fd5b80516001600160801b03811681146112a057600080fd5b6000806000806000806000806000806000806101808d8f031215613c9a57600080fd5b8c516bffffffffffffffffffffffff81168114613cb657600080fd5b9b50613cc460208e01613c30565b9a50613cd260408e01613c30565b9950613ce060608e01613c30565b9850613cee60808e01613c3b565b9750613cfc60a08e01613c4e565b9650613d0a60c08e01613c4e565b9550613d1860e08e01613c60565b94506101008d015193506101208d01519250613d376101408e01613c60565b9150613d466101608e01613c60565b90509295989b509295989b509295989b565b634e487b7160e01b600052603260045260246000fd5b60005b83811015613d89578181015183820152602001613d71565b838111156125105750506000910152565b6020815260008251806020840152613db9816040850160208701613d6e565b601f01601f19169190910160400192915050565b600060408284031215613ddf57600080fd5b604051604081018181106001600160401b0382111715613e0157613e016137a5565b6040528251613e0f81613790565b81526020830151613e1f81613790565b60208201529392505050565b805180151581146112a057600080fd5b600060208284031215613e4d57600080fd5b610f1b82613e2b565b60008251613e68818460208701613d6e565b9190910192915050565b600060208284031215613e8457600080fd5b8151610f1b81613790565b6001600160a01b03831681526040602082018190526000906105d890830184613a94565b634e487b7160e01b600052601160045260246000fd5b6000600019821415613edd57613edd613eb3565b5060010190565b600082821015613ef657613ef6613eb3565b500390565b600060208284031215613f0d57600080fd5b5051919050565b815181526020808301516001600160a01b0316908201526040808301516001600160801b0390811691830191909152606092830151169181019190915260800190565b60008060408385031215613f6a57600080fd5b505080516020909101519092909150565b805161ffff811681146112a057600080fd5b600080600080600080600060e0888a031215613fa857600080fd5b8751613fb381613790565b9650613fc160208901613c4e565b9550613fcf60408901613f7b565b9450613fdd60608901613f7b565b9350613feb60808901613f7b565b925060a088015160ff8116811461400157600080fd5b915061400f60c08901613e2b565b905092959891949750929550565b6001600160a01b038416815260606020820181905260009061404190830185613b86565b82810360408401526140538185613a94565b9695505050505050565b6000821982111561407057614070613eb3565b500190565b60006020828403121561408757600080fd5b604051602081018181106001600160401b03821117156140a9576140a96137a5565b60405282516140b781613790565b81529392505050565b6000806000606084860312156140d557600080fd5b6140de84613c60565b925060208401519150604084015190509250925092565b6000600160ff1b82141561410b5761410b613eb3565b5060000390565b60008160020b627fffff1981141561412c5761412c613eb3565b60000392915050565b600081600019048311821515161561414f5761414f613eb3565b500290565b634e487b7160e01b600052601260045260246000fd5b60008261417957614179614154565b500490565b60008261418d5761418d614154565b500690565b6000606082840312156141a457600080fd5b604051606081018181106001600160401b03821117156141c6576141c66137a5565b80604052508251815260208301516020820152604083015160408201528091505092915050565b60006001600160a01b038381169083168181101561420d5761420d613eb3565b03939250505056fea2646970667358221220e9eab0801648708b746045517dd0eea5ac7f75790dedad6a1fbe462f92dbd5c564736f6c63430008090033a2646970667358221220d7c96e84e231f43f5129d4958fedd91ad5c59d3d9045041e63e8df473489fde364736f6c63430008090033",
  "linkReferences": {},
  "deployedLinkReferences": {}
}