{
  "contracts/hyphen/proxy/LiquidityPoolProxy.sol": {
    "LiquidityPoolProxy": {
      "abi": [
        {
          "inputs": [
            {
              "internalType": "address",
              "name": "_implementation",
              "type": "address"
            },
            {
              "internalType": "address",
              "name": "_admin",
              "type": "address"
            }
          ],
          "stateMutability": "nonpayable",
          "type": "constructor"
        },
        {
          "anonymous": false,
          "inputs": [
            {
              "indexed": false,
              "internalType": "address",
              "name": "previousAdmin",
              "type": "address"
            },
            {
              "indexed": false,
              "internalType": "address",
              "name": "newAdmin",
              "type": "address"
            }
          ],
          "name": "AdminChanged",
          "type": "event"
        },
        {
          "anonymous": false,
          "inputs": [
            {
              "indexed": true,
              "internalType": "address",
              "name": "beacon",
              "type": "address"
            }
          ],
          "name": "BeaconUpgraded",
          "type": "event"
        },
        {
          "anonymous": false,
          "inputs": [
            {
              "indexed": true,
              "internalType": "address",
              "name": "implementation",
              "type": "address"
            }
          ],
          "name": "Upgraded",
          "type": "event"
        },
        {
          "stateMutability": "payable",
          "type": "fallback"
        },
        {
          "inputs": [],
          "name": "admin",
          "outputs": [
            {
              "internalType": "address",
              "name": "admin_",
              "type": "address"
            }
          ],
          "stateMutability": "nonpayable",
          "type": "function"
        },
        {
          "inputs": [
            {
              "internalType": "address",
              "name": "newAdmin",
              "type": "address"
            }
          ],
          "name": "changeAdmin",
          "outputs": [],
          "stateMutability": "nonpayable",
          "type": "function"
        },
        {
          "inputs": [],
          "name": "getAdmin",
          "outputs": [
            {
              "internalType": "address",
              "name": "adm",
              "type": "address"
            }
          ],
          "stateMutability": "view",
          "type": "function"
        },
        {
          "inputs": [],
          "name": "getImplementation",
          "outputs": [
            {
              "internalType": "address",
              "name": "impl",
              "type": "address"
            }
          ],
          "stateMutability": "view",
          "type": "function"
        },
        {
          "inputs": [],
          "name": "implementation",
          "outputs": [
            {
              "internalType": "address",
              "name": "implementation_",
              "type": "address"
            }
          ],
          "stateMutability": "nonpayable",
          "type": "function"
        },
        {
          "inputs": [
            {
              "internalType": "address",
              "name": "newImplementation",
              "type": "address"
            }
          ],
          "name": "upgradeTo",
          "outputs": [],
          "stateMutability": "nonpayable",
          "type": "function"
        },
        {
          "inputs": [
            {
              "internalType": "address",
              "name": "newImplementation",
              "type": "address"
            },
            {
              "internalType": "bytes",
              "name": "data",
              "type": "bytes"
            }
          ],
          "name": "upgradeToAndCall",
          "outputs": [],
          "stateMutability": "payable",
          "type": "function"
        },
        {
          "stateMutability": "payable",
          "type": "receive"
        }
      ],
      "evm": {
        "bytecode": {
          "linkReferences": {},
          "object": "60806040523480156200001157600080fd5b5060405162000f3038038062000f30833981016040819052620000349162000505565b6040805160208101909152600081528290829082816200007660017f360894a13ba1a3210667c828492db98dca3e2076cc3735a920a3ca505d382bbd6200058f565b60008051602062000ee983398151915214620000a257634e487b7160e01b600052600160045260246000fd5b620000b08282600062000122565b50620000e0905060017fb53127684a568b3173ae13b9f8a6016e243e63b6e8ee1178d6a717850b5d61046200058f565b60008051602062000ec9833981519152146200010c57634e487b7160e01b600052600160045260246000fd5b62000117826200015f565b5050505050620005e2565b6200012d83620001ba565b6000825111806200013b5750805b156200015a57620001588383620001fc60201b620002d51760201c565b505b505050565b7f7e644d79422f17c01e4894b5f4f588d331ebfa28653d42ae832dc59e38c9798f6200018a6200022b565b604080516001600160a01b03928316815291841660208301520160405180910390a1620001b78162000264565b50565b620001c58162000319565b6040516001600160a01b038216907fbc7cd75a20ee27fd9adebab32041f755214dbc6bffa90cc0225b39da2e5c2d3b90600090a250565b606062000224838360405180606001604052806027815260200162000f0960279139620003bc565b9392505050565b60006200025560008051602062000ec983398151915260001b620004a260201b620002641760201c565b546001600160a01b0316905090565b6001600160a01b038116620002cf5760405162461bcd60e51b815260206004820152602660248201527f455243313936373a206e65772061646d696e20697320746865207a65726f206160448201526564647265737360d01b60648201526084015b60405180910390fd5b80620002f860008051602062000ec983398151915260001b620004a260201b620002641760201c565b80546001600160a01b0319166001600160a01b039290921691909117905550565b6200032f81620004a560201b620003011760201c565b620003935760405162461bcd60e51b815260206004820152602d60248201527f455243313936373a206e657720696d706c656d656e746174696f6e206973206e60448201526c1bdd08184818dbdb9d1c9858dd609a1b6064820152608401620002c6565b80620002f860008051602062000ee983398151915260001b620004a260201b620002641760201c565b6060620003c984620004a5565b620004265760405162461bcd60e51b815260206004820152602660248201527f416464726573733a2064656c65676174652063616c6c20746f206e6f6e2d636f6044820152651b9d1c9858dd60d21b6064820152608401620002c6565b600080856001600160a01b0316856040516200044391906200053c565b600060405180830381855af49150503d806000811462000480576040519150601f19603f3d011682016040523d82523d6000602084013e62000485565b606091505b50909250905062000498828286620004af565b9695505050505050565b90565b803b15155b919050565b60608315620004c057508162000224565b825115620004d15782518084602001fd5b8160405162461bcd60e51b8152600401620002c691906200055a565b80516001600160a01b0381168114620004aa57600080fd5b6000806040838503121562000518578182fd5b6200052383620004ed565b91506200053360208401620004ed565b90509250929050565b6000825162000550818460208701620005b3565b9190910192915050565b60006020825282518060208401526200057b816040850160208701620005b3565b601f01601f19169190910160400192915050565b600082821015620005ae57634e487b7160e01b81526011600452602481fd5b500390565b60005b83811015620005d0578181015183820152602001620005b6565b83811115620001585750506000910152565b6108d780620005f26000396000f3fe6080604052600436106100745760003560e01c80636e9960c31161004e5780636e9960c3146100ef5780638f28397014610104578063aaf10f4214610124578063f851a4401461013957610083565b80633659cfe61461008b5780634f1ef286146100ab5780635c60da1b146100be57610083565b366100835761008161014e565b005b61008161014e565b34801561009757600080fd5b506100816100a6366004610767565b610168565b6100816100b9366004610781565b6101b4565b3480156100ca57600080fd5b506100d361022a565b6040516001600160a01b03909116815260200160405180910390f35b3480156100fb57600080fd5b506100d3610267565b34801561011057600080fd5b5061008161011f366004610767565b610276565b34801561013057600080fd5b506100d36102a0565b34801561014557600080fd5b506100d36102aa565b61015661030b565b6101666101616103af565b6103b9565b565b6101706103dd565b6001600160a01b0316336001600160a01b031614156101a9576101a481604051806020016040528060008152506000610410565b6101b1565b6101b161014e565b50565b6101bc6103dd565b6001600160a01b0316336001600160a01b0316141561021d576102188383838080601f01602080910402602001604051908101604052809392919081815260200183838082843760009201919091525060019250610410915050565b610225565b61022561014e565b505050565b60006102346103dd565b6001600160a01b0316336001600160a01b0316141561025c576102556103af565b9050610264565b61026461014e565b90565b600061027161043b565b905090565b61027e6103dd565b6001600160a01b0316336001600160a01b031614156101a9576101a481610445565b60006102716103af565b60006102b46103dd565b6001600160a01b0316336001600160a01b0316141561025c576102556103dd565b60606102fa838360405180606001604052806027815260200161087b60279139610499565b9392505050565b803b15155b919050565b6103136103dd565b6001600160a01b0316336001600160a01b031614156103aa5760405162461bcd60e51b815260206004820152604260248201527f5472616e73706172656e745570677261646561626c6550726f78793a2061646d60448201527f696e2063616e6e6f742066616c6c6261636b20746f2070726f78792074617267606482015261195d60f21b608482015260a4015b60405180910390fd5b610166565b6000610271610574565b3660008037600080366000845af43d6000803e8080156103d8573d6000f35b3d6000fd5b60007fb53127684a568b3173ae13b9f8a6016e243e63b6e8ee1178d6a717850b5d61035b546001600160a01b0316905090565b6104198361059c565b6000825111806104265750805b156102255761043583836102d5565b50505050565b60006102716103dd565b7f7e644d79422f17c01e4894b5f4f588d331ebfa28653d42ae832dc59e38c9798f61046e6103dd565b604080516001600160a01b03928316815291841660208301520160405180910390a16101b1816105dc565b60606104a484610301565b6104ff5760405162461bcd60e51b815260206004820152602660248201527f416464726573733a2064656c65676174652063616c6c20746f206e6f6e2d636f6044820152651b9d1c9858dd60d21b60648201526084016103a1565b600080856001600160a01b03168560405161051a91906107ff565b600060405180830381855af49150503d8060008114610555576040519150601f19603f3d011682016040523d82523d6000602084013e61055a565b606091505b509150915061056a828286610685565b9695505050505050565b60007f360894a13ba1a3210667c828492db98dca3e2076cc3735a920a3ca505d382bbc610401565b6105a5816106be565b6040516001600160a01b038216907fbc7cd75a20ee27fd9adebab32041f755214dbc6bffa90cc0225b39da2e5c2d3b90600090a250565b6001600160a01b0381166106415760405162461bcd60e51b815260206004820152602660248201527f455243313936373a206e65772061646d696e20697320746865207a65726f206160448201526564647265737360d01b60648201526084016103a1565b807fb53127684a568b3173ae13b9f8a6016e243e63b6e8ee1178d6a717850b5d61035b80546001600160a01b0319166001600160a01b039290921691909117905550565b606083156106945750816102fa565b8251156106a45782518084602001fd5b8160405162461bcd60e51b81526004016103a1919061081b565b6106c781610301565b6107295760405162461bcd60e51b815260206004820152602d60248201527f455243313936373a206e657720696d706c656d656e746174696f6e206973206e60448201526c1bdd08184818dbdb9d1c9858dd609a1b60648201526084016103a1565b807f360894a13ba1a3210667c828492db98dca3e2076cc3735a920a3ca505d382bbc610664565b80356001600160a01b038116811461030657600080fd5b600060208284031215610778578081fd5b6102fa82610750565b600080600060408486031215610795578182fd5b61079e84610750565b9250602084013567ffffffffffffffff808211156107ba578384fd5b818601915086601f8301126107cd578384fd5b8135818111156107db578485fd5b8760208285010111156107ec578485fd5b6020830194508093505050509250925092565b6000825161081181846020870161084e565b9190910192915050565b600060208252825180602084015261083a81604085016020870161084e565b601f01601f19169190910160400192915050565b60005b83811015610869578181015183820152602001610851565b83811115610435575050600091015256fe416464726573733a206c6f772d6c6576656c2064656c65676174652063616c6c206661696c6564a2646970667358221220d88c14382232609975ef94b0b7ce6653d9e5920ea74e2a85da93a66a5388806264736f6c63430008020033b53127684a568b3173ae13b9f8a6016e243e63b6e8ee1178d6a717850b5d6103360894a13ba1a3210667c828492db98dca3e2076cc3735a920a3ca505d382bbc416464726573733a206c6f772d6c6576656c2064656c65676174652063616c6c206661696c6564",
          "opcodes": "PUSH1 0x80 PUSH1 0x40 MSTORE CALLVALUE DUP1 ISZERO PUSH3 0x11 JUMPI PUSH1 0x0 DUP1 REVERT JUMPDEST POP PUSH1 0x40 MLOAD PUSH3 0xF30 CODESIZE SUB DUP1 PUSH3 0xF30 DUP4 CODECOPY DUP2 ADD PUSH1 0x40 DUP2 SWAP1 MSTORE PUSH3 0x34 SWAP2 PUSH3 0x505 JUMP JUMPDEST PUSH1 0x40 DUP1 MLOAD PUSH1 0x20 DUP2 ADD SWAP1 SWAP2 MSTORE PUSH1 0x0 DUP2 MSTORE DUP3 SWAP1 DUP3 SWAP1 DUP3 DUP2 PUSH3 0x76 PUSH1 0x1 PUSH32 0x360894A13BA1A3210667C828492DB98DCA3E2076CC3735A920A3CA505D382BBD PUSH3 0x58F JUMP JUMPDEST PUSH1 0x0 DUP1 MLOAD PUSH1 0x20 PUSH3 0xEE9 DUP4 CODECOPY DUP2 MLOAD SWAP2 MSTORE EQ PUSH3 0xA2 JUMPI PUSH4 0x4E487B71 PUSH1 0xE0 SHL PUSH1 0x0 MSTORE PUSH1 0x1 PUSH1 0x4 MSTORE PUSH1 0x24 PUSH1 0x0 REVERT JUMPDEST PUSH3 0xB0 DUP3 DUP3 PUSH1 0x0 PUSH3 0x122 JUMP JUMPDEST POP PUSH3 0xE0 SWAP1 POP PUSH1 0x1 PUSH32 0xB53127684A568B3173AE13B9F8A6016E243E63B6E8EE1178D6A717850B5D6104 PUSH3 0x58F JUMP JUMPDEST PUSH1 0x0 DUP1 MLOAD PUSH1 0x20 PUSH3 0xEC9 DUP4 CODECOPY DUP2 MLOAD SWAP2 MSTORE EQ PUSH3 0x10C JUMPI PUSH4 0x4E487B71 PUSH1 0xE0 SHL PUSH1 0x0 MSTORE PUSH1 0x1 PUSH1 0x4 MSTORE PUSH1 0x24 PUSH1 0x0 REVERT JUMPDEST PUSH3 0x117 DUP3 PUSH3 0x15F JUMP JUMPDEST POP POP POP POP POP PUSH3 0x5E2 JUMP JUMPDEST PUSH3 0x12D DUP4 PUSH3 0x1BA JUMP JUMPDEST PUSH1 0x0 DUP3 MLOAD GT DUP1 PUSH3 0x13B JUMPI POP DUP1 JUMPDEST ISZERO PUSH3 0x15A JUMPI PUSH3 0x158 DUP4 DUP4 PUSH3 0x1FC PUSH1 0x20 SHL PUSH3 0x2D5 OR PUSH1 0x20 SHR JUMP JUMPDEST POP JUMPDEST POP POP POP JUMP JUMPDEST PUSH32 0x7E644D79422F17C01E4894B5F4F588D331EBFA28653D42AE832DC59E38C9798F PUSH3 0x18A PUSH3 0x22B JUMP JUMPDEST PUSH1 0x40 DUP1 MLOAD PUSH1 0x1 PUSH1 0x1 PUSH1 0xA0 SHL SUB SWAP3 DUP4 AND DUP2 MSTORE SWAP2 DUP5 AND PUSH1 0x20 DUP4 ADD MSTORE ADD PUSH1 0x40 MLOAD DUP1 SWAP2 SUB SWAP1 LOG1 PUSH3 0x1B7 DUP2 PUSH3 0x264 JUMP JUMPDEST POP JUMP JUMPDEST PUSH3 0x1C5 DUP2 PUSH3 0x319 JUMP JUMPDEST PUSH1 0x40 MLOAD PUSH1 0x1 PUSH1 0x1 PUSH1 0xA0 SHL SUB DUP3 AND SWAP1 PUSH32 0xBC7CD75A20EE27FD9ADEBAB32041F755214DBC6BFFA90CC0225B39DA2E5C2D3B SWAP1 PUSH1 0x0 SWAP1 LOG2 POP JUMP JUMPDEST PUSH1 0x60 PUSH3 0x224 DUP4 DUP4 PUSH1 0x40 MLOAD DUP1 PUSH1 0x60 ADD PUSH1 0x40 MSTORE DUP1 PUSH1 0x27 DUP2 MSTORE PUSH1 0x20 ADD PUSH3 0xF09 PUSH1 0x27 SWAP2 CODECOPY PUSH3 0x3BC JUMP JUMPDEST SWAP4 SWAP3 POP POP POP JUMP JUMPDEST PUSH1 0x0 PUSH3 0x255 PUSH1 0x0 DUP1 MLOAD PUSH1 0x20 PUSH3 0xEC9 DUP4 CODECOPY DUP2 MLOAD SWAP2 MSTORE PUSH1 0x0 SHL PUSH3 0x4A2 PUSH1 0x20 SHL PUSH3 0x264 OR PUSH1 0x20 SHR JUMP JUMPDEST SLOAD PUSH1 0x1 PUSH1 0x1 PUSH1 0xA0 SHL SUB AND SWAP1 POP SWAP1 JUMP JUMPDEST PUSH1 0x1 PUSH1 0x1 PUSH1 0xA0 SHL SUB DUP2 AND PUSH3 0x2CF JUMPI PUSH1 0x40 MLOAD PUSH3 0x461BCD PUSH1 0xE5 SHL DUP2 MSTORE PUSH1 0x20 PUSH1 0x4 DUP3 ADD MSTORE PUSH1 0x26 PUSH1 0x24 DUP3 ADD MSTORE PUSH32 0x455243313936373A206E65772061646D696E20697320746865207A65726F2061 PUSH1 0x44 DUP3 ADD MSTORE PUSH6 0x646472657373 PUSH1 0xD0 SHL PUSH1 0x64 DUP3 ADD MSTORE PUSH1 0x84 ADD JUMPDEST PUSH1 0x40 MLOAD DUP1 SWAP2 SUB SWAP1 REVERT JUMPDEST DUP1 PUSH3 0x2F8 PUSH1 0x0 DUP1 MLOAD PUSH1 0x20 PUSH3 0xEC9 DUP4 CODECOPY DUP2 MLOAD SWAP2 MSTORE PUSH1 0x0 SHL PUSH3 0x4A2 PUSH1 0x20 SHL PUSH3 0x264 OR PUSH1 0x20 SHR JUMP JUMPDEST DUP1 SLOAD PUSH1 0x1 PUSH1 0x1 PUSH1 0xA0 SHL SUB NOT AND PUSH1 0x1 PUSH1 0x1 PUSH1 0xA0 SHL SUB SWAP3 SWAP1 SWAP3 AND SWAP2 SWAP1 SWAP2 OR SWAP1 SSTORE POP JUMP JUMPDEST PUSH3 0x32F DUP2 PUSH3 0x4A5 PUSH1 0x20 SHL PUSH3 0x301 OR PUSH1 0x20 SHR JUMP JUMPDEST PUSH3 0x393 JUMPI PUSH1 0x40 MLOAD PUSH3 0x461BCD PUSH1 0xE5 SHL DUP2 MSTORE PUSH1 0x20 PUSH1 0x4 DUP3 ADD MSTORE PUSH1 0x2D PUSH1 0x24 DUP3 ADD MSTORE PUSH32 0x455243313936373A206E657720696D706C656D656E746174696F6E206973206E PUSH1 0x44 DUP3 ADD MSTORE PUSH13 0x1BDD08184818DBDB9D1C9858DD PUSH1 0x9A SHL PUSH1 0x64 DUP3 ADD MSTORE PUSH1 0x84 ADD PUSH3 0x2C6 JUMP JUMPDEST DUP1 PUSH3 0x2F8 PUSH1 0x0 DUP1 MLOAD PUSH1 0x20 PUSH3 0xEE9 DUP4 CODECOPY DUP2 MLOAD SWAP2 MSTORE PUSH1 0x0 SHL PUSH3 0x4A2 PUSH1 0x20 SHL PUSH3 0x264 OR PUSH1 0x20 SHR JUMP JUMPDEST PUSH1 0x60 PUSH3 0x3C9 DUP5 PUSH3 0x4A5 JUMP JUMPDEST PUSH3 0x426 JUMPI PUSH1 0x40 MLOAD PUSH3 0x461BCD PUSH1 0xE5 SHL DUP2 MSTORE PUSH1 0x20 PUSH1 0x4 DUP3 ADD MSTORE PUSH1 0x26 PUSH1 0x24 DUP3 ADD MSTORE PUSH32 0x416464726573733A2064656C65676174652063616C6C20746F206E6F6E2D636F PUSH1 0x44 DUP3 ADD MSTORE PUSH6 0x1B9D1C9858DD PUSH1 0xD2 SHL PUSH1 0x64 DUP3 ADD MSTORE PUSH1 0x84 ADD PUSH3 0x2C6 JUMP JUMPDEST PUSH1 0x0 DUP1 DUP6 PUSH1 0x1 PUSH1 0x1 PUSH1 0xA0 SHL SUB AND DUP6 PUSH1 0x40 MLOAD PUSH3 0x443 SWAP2 SWAP1 PUSH3 0x53C JUMP JUMPDEST PUSH1 0x0 PUSH1 0x40 MLOAD DUP1 DUP4 SUB DUP2 DUP6 GAS DELEGATECALL SWAP2 POP POP RETURNDATASIZE DUP1 PUSH1 0x0 DUP2 EQ PUSH3 0x480 JUMPI PUSH1 0x40 MLOAD SWAP2 POP PUSH1 0x1F NOT PUSH1 0x3F RETURNDATASIZE ADD AND DUP3 ADD PUSH1 0x40 MSTORE RETURNDATASIZE DUP3 MSTORE RETURNDATASIZE PUSH1 0x0 PUSH1 0x20 DUP5 ADD RETURNDATACOPY PUSH3 0x485 JUMP JUMPDEST PUSH1 0x60 SWAP2 POP JUMPDEST POP SWAP1 SWAP3 POP SWAP1 POP PUSH3 0x498 DUP3 DUP3 DUP7 PUSH3 0x4AF JUMP JUMPDEST SWAP7 SWAP6 POP POP POP POP POP POP JUMP JUMPDEST SWAP1 JUMP JUMPDEST DUP1 EXTCODESIZE ISZERO ISZERO JUMPDEST SWAP2 SWAP1 POP JUMP JUMPDEST PUSH1 0x60 DUP4 ISZERO PUSH3 0x4C0 JUMPI POP DUP2 PUSH3 0x224 JUMP JUMPDEST DUP3 MLOAD ISZERO PUSH3 0x4D1 JUMPI DUP3 MLOAD DUP1 DUP5 PUSH1 0x20 ADD REVERT JUMPDEST DUP2 PUSH1 0x40 MLOAD PUSH3 0x461BCD PUSH1 0xE5 SHL DUP2 MSTORE PUSH1 0x4 ADD PUSH3 0x2C6 SWAP2 SWAP1 PUSH3 0x55A JUMP JUMPDEST DUP1 MLOAD PUSH1 0x1 PUSH1 0x1 PUSH1 0xA0 SHL SUB DUP2 AND DUP2 EQ PUSH3 0x4AA JUMPI PUSH1 0x0 DUP1 REVERT JUMPDEST PUSH1 0x0 DUP1 PUSH1 0x40 DUP4 DUP6 SUB SLT ISZERO PUSH3 0x518 JUMPI DUP2 DUP3 REVERT JUMPDEST PUSH3 0x523 DUP4 PUSH3 0x4ED JUMP JUMPDEST SWAP2 POP PUSH3 0x533 PUSH1 0x20 DUP5 ADD PUSH3 0x4ED JUMP JUMPDEST SWAP1 POP SWAP3 POP SWAP3 SWAP1 POP JUMP JUMPDEST PUSH1 0x0 DUP3 MLOAD PUSH3 0x550 DUP2 DUP5 PUSH1 0x20 DUP8 ADD PUSH3 0x5B3 JUMP JUMPDEST SWAP2 SWAP1 SWAP2 ADD SWAP3 SWAP2 POP POP JUMP JUMPDEST PUSH1 0x0 PUSH1 0x20 DUP3 MSTORE DUP3 MLOAD DUP1 PUSH1 0x20 DUP5 ADD MSTORE PUSH3 0x57B DUP2 PUSH1 0x40 DUP6 ADD PUSH1 0x20 DUP8 ADD PUSH3 0x5B3 JUMP JUMPDEST PUSH1 0x1F ADD PUSH1 0x1F NOT AND SWAP2 SWAP1 SWAP2 ADD PUSH1 0x40 ADD SWAP3 SWAP2 POP POP JUMP JUMPDEST PUSH1 0x0 DUP3 DUP3 LT ISZERO PUSH3 0x5AE JUMPI PUSH4 0x4E487B71 PUSH1 0xE0 SHL DUP2 MSTORE PUSH1 0x11 PUSH1 0x4 MSTORE PUSH1 0x24 DUP2 REVERT JUMPDEST POP SUB SWAP1 JUMP JUMPDEST PUSH1 0x0 JUMPDEST DUP4 DUP2 LT ISZERO PUSH3 0x5D0 JUMPI DUP2 DUP2 ADD MLOAD DUP4 DUP3 ADD MSTORE PUSH1 0x20 ADD PUSH3 0x5B6 JUMP JUMPDEST DUP4 DUP2 GT ISZERO PUSH3 0x158 JUMPI POP POP PUSH1 0x0 SWAP2 ADD MSTORE JUMP JUMPDEST PUSH2 0x8D7 DUP1 PUSH3 0x5F2 PUSH1 0x0 CODECOPY PUSH1 0x0 RETURN INVALID PUSH1 0x80 PUSH1 0x40 MSTORE PUSH1 0x4 CALLDATASIZE LT PUSH2 0x74 JUMPI PUSH1 0x0 CALLDATALOAD PUSH1 0xE0 SHR DUP1 PUSH4 0x6E9960C3 GT PUSH2 0x4E JUMPI DUP1 PUSH4 0x6E9960C3 EQ PUSH2 0xEF JUMPI DUP1 PUSH4 0x8F283970 EQ PUSH2 0x104 JUMPI DUP1 PUSH4 0xAAF10F42 EQ PUSH2 0x124 JUMPI DUP1 PUSH4 0xF851A440 EQ PUSH2 0x139 JUMPI PUSH2 0x83 JUMP JUMPDEST DUP1 PUSH4 0x3659CFE6 EQ PUSH2 0x8B JUMPI DUP1 PUSH4 0x4F1EF286 EQ PUSH2 0xAB JUMPI DUP1 PUSH4 0x5C60DA1B EQ PUSH2 0xBE JUMPI PUSH2 0x83 JUMP JUMPDEST CALLDATASIZE PUSH2 0x83 JUMPI PUSH2 0x81 PUSH2 0x14E JUMP JUMPDEST STOP JUMPDEST PUSH2 0x81 PUSH2 0x14E JUMP JUMPDEST CALLVALUE DUP1 ISZERO PUSH2 0x97 JUMPI PUSH1 0x0 DUP1 REVERT JUMPDEST POP PUSH2 0x81 PUSH2 0xA6 CALLDATASIZE PUSH1 0x4 PUSH2 0x767 JUMP JUMPDEST PUSH2 0x168 JUMP JUMPDEST PUSH2 0x81 PUSH2 0xB9 CALLDATASIZE PUSH1 0x4 PUSH2 0x781 JUMP JUMPDEST PUSH2 0x1B4 JUMP JUMPDEST CALLVALUE DUP1 ISZERO PUSH2 0xCA JUMPI PUSH1 0x0 DUP1 REVERT JUMPDEST POP PUSH2 0xD3 PUSH2 0x22A JUMP JUMPDEST PUSH1 0x40 MLOAD PUSH1 0x1 PUSH1 0x1 PUSH1 0xA0 SHL SUB SWAP1 SWAP2 AND DUP2 MSTORE PUSH1 0x20 ADD PUSH1 0x40 MLOAD DUP1 SWAP2 SUB SWAP1 RETURN JUMPDEST CALLVALUE DUP1 ISZERO PUSH2 0xFB JUMPI PUSH1 0x0 DUP1 REVERT JUMPDEST POP PUSH2 0xD3 PUSH2 0x267 JUMP JUMPDEST CALLVALUE DUP1 ISZERO PUSH2 0x110 JUMPI PUSH1 0x0 DUP1 REVERT JUMPDEST POP PUSH2 0x81 PUSH2 0x11F CALLDATASIZE PUSH1 0x4 PUSH2 0x767 JUMP JUMPDEST PUSH2 0x276 JUMP JUMPDEST CALLVALUE DUP1 ISZERO PUSH2 0x130 JUMPI PUSH1 0x0 DUP1 REVERT JUMPDEST POP PUSH2 0xD3 PUSH2 0x2A0 JUMP JUMPDEST CALLVALUE DUP1 ISZERO PUSH2 0x145 JUMPI PUSH1 0x0 DUP1 REVERT JUMPDEST POP PUSH2 0xD3 PUSH2 0x2AA JUMP JUMPDEST PUSH2 0x156 PUSH2 0x30B JUMP JUMPDEST PUSH2 0x166 PUSH2 0x161 PUSH2 0x3AF JUMP JUMPDEST PUSH2 0x3B9 JUMP JUMPDEST JUMP JUMPDEST PUSH2 0x170 PUSH2 0x3DD JUMP JUMPDEST PUSH1 0x1 PUSH1 0x1 PUSH1 0xA0 SHL SUB AND CALLER PUSH1 0x1 PUSH1 0x1 PUSH1 0xA0 SHL SUB AND EQ ISZERO PUSH2 0x1A9 JUMPI PUSH2 0x1A4 DUP2 PUSH1 0x40 MLOAD DUP1 PUSH1 0x20 ADD PUSH1 0x40 MSTORE DUP1 PUSH1 0x0 DUP2 MSTORE POP PUSH1 0x0 PUSH2 0x410 JUMP JUMPDEST PUSH2 0x1B1 JUMP JUMPDEST PUSH2 0x1B1 PUSH2 0x14E JUMP JUMPDEST POP JUMP JUMPDEST PUSH2 0x1BC PUSH2 0x3DD JUMP JUMPDEST PUSH1 0x1 PUSH1 0x1 PUSH1 0xA0 SHL SUB AND CALLER PUSH1 0x1 PUSH1 0x1 PUSH1 0xA0 SHL SUB AND EQ ISZERO PUSH2 0x21D JUMPI PUSH2 0x218 DUP4 DUP4 DUP4 DUP1 DUP1 PUSH1 0x1F ADD PUSH1 0x20 DUP1 SWAP2 DIV MUL PUSH1 0x20 ADD PUSH1 0x40 MLOAD SWAP1 DUP2 ADD PUSH1 0x40 MSTORE DUP1 SWAP4 SWAP3 SWAP2 SWAP1 DUP2 DUP2 MSTORE PUSH1 0x20 ADD DUP4 DUP4 DUP1 DUP3 DUP5 CALLDATACOPY PUSH1 0x0 SWAP3 ADD SWAP2 SWAP1 SWAP2 MSTORE POP PUSH1 0x1 SWAP3 POP PUSH2 0x410 SWAP2 POP POP JUMP JUMPDEST PUSH2 0x225 JUMP JUMPDEST PUSH2 0x225 PUSH2 0x14E JUMP JUMPDEST POP POP POP JUMP JUMPDEST PUSH1 0x0 PUSH2 0x234 PUSH2 0x3DD JUMP JUMPDEST PUSH1 0x1 PUSH1 0x1 PUSH1 0xA0 SHL SUB AND CALLER PUSH1 0x1 PUSH1 0x1 PUSH1 0xA0 SHL SUB AND EQ ISZERO PUSH2 0x25C JUMPI PUSH2 0x255 PUSH2 0x3AF JUMP JUMPDEST SWAP1 POP PUSH2 0x264 JUMP JUMPDEST PUSH2 0x264 PUSH2 0x14E JUMP JUMPDEST SWAP1 JUMP JUMPDEST PUSH1 0x0 PUSH2 0x271 PUSH2 0x43B JUMP JUMPDEST SWAP1 POP SWAP1 JUMP JUMPDEST PUSH2 0x27E PUSH2 0x3DD JUMP JUMPDEST PUSH1 0x1 PUSH1 0x1 PUSH1 0xA0 SHL SUB AND CALLER PUSH1 0x1 PUSH1 0x1 PUSH1 0xA0 SHL SUB AND EQ ISZERO PUSH2 0x1A9 JUMPI PUSH2 0x1A4 DUP2 PUSH2 0x445 JUMP JUMPDEST PUSH1 0x0 PUSH2 0x271 PUSH2 0x3AF JUMP JUMPDEST PUSH1 0x0 PUSH2 0x2B4 PUSH2 0x3DD JUMP JUMPDEST PUSH1 0x1 PUSH1 0x1 PUSH1 0xA0 SHL SUB AND CALLER PUSH1 0x1 PUSH1 0x1 PUSH1 0xA0 SHL SUB AND EQ ISZERO PUSH2 0x25C JUMPI PUSH2 0x255 PUSH2 0x3DD JUMP JUMPDEST PUSH1 0x60 PUSH2 0x2FA DUP4 DUP4 PUSH1 0x40 MLOAD DUP1 PUSH1 0x60 ADD PUSH1 0x40 MSTORE DUP1 PUSH1 0x27 DUP2 MSTORE PUSH1 0x20 ADD PUSH2 0x87B PUSH1 0x27 SWAP2 CODECOPY PUSH2 0x499 JUMP JUMPDEST SWAP4 SWAP3 POP POP POP JUMP JUMPDEST DUP1 EXTCODESIZE ISZERO ISZERO JUMPDEST SWAP2 SWAP1 POP JUMP JUMPDEST PUSH2 0x313 PUSH2 0x3DD JUMP JUMPDEST PUSH1 0x1 PUSH1 0x1 PUSH1 0xA0 SHL SUB AND CALLER PUSH1 0x1 PUSH1 0x1 PUSH1 0xA0 SHL SUB AND EQ ISZERO PUSH2 0x3AA JUMPI PUSH1 0x40 MLOAD PUSH3 0x461BCD PUSH1 0xE5 SHL DUP2 MSTORE PUSH1 0x20 PUSH1 0x4 DUP3 ADD MSTORE PUSH1 0x42 PUSH1 0x24 DUP3 ADD MSTORE PUSH32 0x5472616E73706172656E745570677261646561626C6550726F78793A2061646D PUSH1 0x44 DUP3 ADD MSTORE PUSH32 0x696E2063616E6E6F742066616C6C6261636B20746F2070726F78792074617267 PUSH1 0x64 DUP3 ADD MSTORE PUSH2 0x195D PUSH1 0xF2 SHL PUSH1 0x84 DUP3 ADD MSTORE PUSH1 0xA4 ADD JUMPDEST PUSH1 0x40 MLOAD DUP1 SWAP2 SUB SWAP1 REVERT JUMPDEST PUSH2 0x166 JUMP JUMPDEST PUSH1 0x0 PUSH2 0x271 PUSH2 0x574 JUMP JUMPDEST CALLDATASIZE PUSH1 0x0 DUP1 CALLDATACOPY PUSH1 0x0 DUP1 CALLDATASIZE PUSH1 0x0 DUP5 GAS DELEGATECALL RETURNDATASIZE PUSH1 0x0 DUP1 RETURNDATACOPY DUP1 DUP1 ISZERO PUSH2 0x3D8 JUMPI RETURNDATASIZE PUSH1 0x0 RETURN JUMPDEST RETURNDATASIZE PUSH1 0x0 REVERT JUMPDEST PUSH1 0x0 PUSH32 0xB53127684A568B3173AE13B9F8A6016E243E63B6E8EE1178D6A717850B5D6103 JUMPDEST SLOAD PUSH1 0x1 PUSH1 0x1 PUSH1 0xA0 SHL SUB AND SWAP1 POP SWAP1 JUMP JUMPDEST PUSH2 0x419 DUP4 PUSH2 0x59C JUMP JUMPDEST PUSH1 0x0 DUP3 MLOAD GT DUP1 PUSH2 0x426 JUMPI POP DUP1 JUMPDEST ISZERO PUSH2 0x225 JUMPI PUSH2 0x435 DUP4 DUP4 PUSH2 0x2D5 JUMP JUMPDEST POP POP POP POP JUMP JUMPDEST PUSH1 0x0 PUSH2 0x271 PUSH2 0x3DD JUMP JUMPDEST PUSH32 0x7E644D79422F17C01E4894B5F4F588D331EBFA28653D42AE832DC59E38C9798F PUSH2 0x46E PUSH2 0x3DD JUMP JUMPDEST PUSH1 0x40 DUP1 MLOAD PUSH1 0x1 PUSH1 0x1 PUSH1 0xA0 SHL SUB SWAP3 DUP4 AND DUP2 MSTORE SWAP2 DUP5 AND PUSH1 0x20 DUP4 ADD MSTORE ADD PUSH1 0x40 MLOAD DUP1 SWAP2 SUB SWAP1 LOG1 PUSH2 0x1B1 DUP2 PUSH2 0x5DC JUMP JUMPDEST PUSH1 0x60 PUSH2 0x4A4 DUP5 PUSH2 0x301 JUMP JUMPDEST PUSH2 0x4FF JUMPI PUSH1 0x40 MLOAD PUSH3 0x461BCD PUSH1 0xE5 SHL DUP2 MSTORE PUSH1 0x20 PUSH1 0x4 DUP3 ADD MSTORE PUSH1 0x26 PUSH1 0x24 DUP3 ADD MSTORE PUSH32 0x416464726573733A2064656C65676174652063616C6C20746F206E6F6E2D636F PUSH1 0x44 DUP3 ADD MSTORE PUSH6 0x1B9D1C9858DD PUSH1 0xD2 SHL PUSH1 0x64 DUP3 ADD MSTORE PUSH1 0x84 ADD PUSH2 0x3A1 JUMP JUMPDEST PUSH1 0x0 DUP1 DUP6 PUSH1 0x1 PUSH1 0x1 PUSH1 0xA0 SHL SUB AND DUP6 PUSH1 0x40 MLOAD PUSH2 0x51A SWAP2 SWAP1 PUSH2 0x7FF JUMP JUMPDEST PUSH1 0x0 PUSH1 0x40 MLOAD DUP1 DUP4 SUB DUP2 DUP6 GAS DELEGATECALL SWAP2 POP POP RETURNDATASIZE DUP1 PUSH1 0x0 DUP2 EQ PUSH2 0x555 JUMPI PUSH1 0x40 MLOAD SWAP2 POP PUSH1 0x1F NOT PUSH1 0x3F RETURNDATASIZE ADD AND DUP3 ADD PUSH1 0x40 MSTORE RETURNDATASIZE DUP3 MSTORE RETURNDATASIZE PUSH1 0x0 PUSH1 0x20 DUP5 ADD RETURNDATACOPY PUSH2 0x55A JUMP JUMPDEST PUSH1 0x60 SWAP2 POP JUMPDEST POP SWAP2 POP SWAP2 POP PUSH2 0x56A DUP3 DUP3 DUP7 PUSH2 0x685 JUMP JUMPDEST SWAP7 SWAP6 POP POP POP POP POP POP JUMP JUMPDEST PUSH1 0x0 PUSH32 0x360894A13BA1A3210667C828492DB98DCA3E2076CC3735A920A3CA505D382BBC PUSH2 0x401 JUMP JUMPDEST PUSH2 0x5A5 DUP2 PUSH2 0x6BE JUMP JUMPDEST PUSH1 0x40 MLOAD PUSH1 0x1 PUSH1 0x1 PUSH1 0xA0 SHL SUB DUP3 AND SWAP1 PUSH32 0xBC7CD75A20EE27FD9ADEBAB32041F755214DBC6BFFA90CC0225B39DA2E5C2D3B SWAP1 PUSH1 0x0 SWAP1 LOG2 POP JUMP JUMPDEST PUSH1 0x1 PUSH1 0x1 PUSH1 0xA0 SHL SUB DUP2 AND PUSH2 0x641 JUMPI PUSH1 0x40 MLOAD PUSH3 0x461BCD PUSH1 0xE5 SHL DUP2 MSTORE PUSH1 0x20 PUSH1 0x4 DUP3 ADD MSTORE PUSH1 0x26 PUSH1 0x24 DUP3 ADD MSTORE PUSH32 0x455243313936373A206E65772061646D696E20697320746865207A65726F2061 PUSH1 0x44 DUP3 ADD MSTORE PUSH6 0x646472657373 PUSH1 0xD0 SHL PUSH1 0x64 DUP3 ADD MSTORE PUSH1 0x84 ADD PUSH2 0x3A1 JUMP JUMPDEST DUP1 PUSH32 0xB53127684A568B3173AE13B9F8A6016E243E63B6E8EE1178D6A717850B5D6103 JUMPDEST DUP1 SLOAD PUSH1 0x1 PUSH1 0x1 PUSH1 0xA0 SHL SUB NOT AND PUSH1 0x1 PUSH1 0x1 PUSH1 0xA0 SHL SUB SWAP3 SWAP1 SWAP3 AND SWAP2 SWAP1 SWAP2 OR SWAP1 SSTORE POP JUMP JUMPDEST PUSH1 0x60 DUP4 ISZERO PUSH2 0x694 JUMPI POP DUP2 PUSH2 0x2FA JUMP JUMPDEST DUP3 MLOAD ISZERO PUSH2 0x6A4 JUMPI DUP3 MLOAD DUP1 DUP5 PUSH1 0x20 ADD REVERT JUMPDEST DUP2 PUSH1 0x40 MLOAD PUSH3 0x461BCD PUSH1 0xE5 SHL DUP2 MSTORE PUSH1 0x4 ADD PUSH2 0x3A1 SWAP2 SWAP1 PUSH2 0x81B JUMP JUMPDEST PUSH2 0x6C7 DUP2 PUSH2 0x301 JUMP JUMPDEST PUSH2 0x729 JUMPI PUSH1 0x40 MLOAD PUSH3 0x461BCD PUSH1 0xE5 SHL DUP2 MSTORE PUSH1 0x20 PUSH1 0x4 DUP3 ADD MSTORE PUSH1 0x2D PUSH1 0x24 DUP3 ADD MSTORE PUSH32 0x455243313936373A206E657720696D706C656D656E746174696F6E206973206E PUSH1 0x44 DUP3 ADD MSTORE PUSH13 0x1BDD08184818DBDB9D1C9858DD PUSH1 0x9A SHL PUSH1 0x64 DUP3 ADD MSTORE PUSH1 0x84 ADD PUSH2 0x3A1 JUMP JUMPDEST DUP1 PUSH32 0x360894A13BA1A3210667C828492DB98DCA3E2076CC3735A920A3CA505D382BBC PUSH2 0x664 JUMP JUMPDEST DUP1 CALLDATALOAD PUSH1 0x1 PUSH1 0x1 PUSH1 0xA0 SHL SUB DUP2 AND DUP2 EQ PUSH2 0x306 JUMPI PUSH1 0x0 DUP1 REVERT JUMPDEST PUSH1 0x0 PUSH1 0x20 DUP3 DUP5 SUB SLT ISZERO PUSH2 0x778 JUMPI DUP1 DUP2 REVERT JUMPDEST PUSH2 0x2FA DUP3 PUSH2 0x750 JUMP JUMPDEST PUSH1 0x0 DUP1 PUSH1 0x0 PUSH1 0x40 DUP5 DUP7 SUB SLT ISZERO PUSH2 0x795 JUMPI DUP2 DUP3 REVERT JUMPDEST PUSH2 0x79E DUP5 PUSH2 0x750 JUMP JUMPDEST SWAP3 POP PUSH1 0x20 DUP5 ADD CALLDATALOAD PUSH8 0xFFFFFFFFFFFFFFFF DUP1 DUP3 GT ISZERO PUSH2 0x7BA JUMPI DUP4 DUP5 REVERT JUMPDEST DUP2 DUP7 ADD SWAP2 POP DUP7 PUSH1 0x1F DUP4 ADD SLT PUSH2 0x7CD JUMPI DUP4 DUP5 REVERT JUMPDEST DUP2 CALLDATALOAD DUP2 DUP2 GT ISZERO PUSH2 0x7DB JUMPI DUP5 DUP6 REVERT JUMPDEST DUP8 PUSH1 0x20 DUP3 DUP6 ADD ADD GT ISZERO PUSH2 0x7EC JUMPI DUP5 DUP6 REVERT JUMPDEST PUSH1 0x20 DUP4 ADD SWAP5 POP DUP1 SWAP4 POP POP POP POP SWAP3 POP SWAP3 POP SWAP3 JUMP JUMPDEST PUSH1 0x0 DUP3 MLOAD PUSH2 0x811 DUP2 DUP5 PUSH1 0x20 DUP8 ADD PUSH2 0x84E JUMP JUMPDEST SWAP2 SWAP1 SWAP2 ADD SWAP3 SWAP2 POP POP JUMP JUMPDEST PUSH1 0x0 PUSH1 0x20 DUP3 MSTORE DUP3 MLOAD DUP1 PUSH1 0x20 DUP5 ADD MSTORE PUSH2 0x83A DUP2 PUSH1 0x40 DUP6 ADD PUSH1 0x20 DUP8 ADD PUSH2 0x84E JUMP JUMPDEST PUSH1 0x1F ADD PUSH1 0x1F NOT AND SWAP2 SWAP1 SWAP2 ADD PUSH1 0x40 ADD SWAP3 SWAP2 POP POP JUMP JUMPDEST PUSH1 0x0 JUMPDEST DUP4 DUP2 LT ISZERO PUSH2 0x869 JUMPI DUP2 DUP2 ADD MLOAD DUP4 DUP3 ADD MSTORE PUSH1 0x20 ADD PUSH2 0x851 JUMP JUMPDEST DUP4 DUP2 GT ISZERO PUSH2 0x435 JUMPI POP POP PUSH1 0x0 SWAP2 ADD MSTORE JUMP INVALID COINBASE PUSH5 0x6472657373 GASPRICE KECCAK256 PUSH13 0x6F772D6C6576656C2064656C65 PUSH8 0x6174652063616C6C KECCAK256 PUSH7 0x61696C6564A264 PUSH10 0x70667358221220D88C14 CODESIZE 0x22 ORIGIN PUSH1 0x99 PUSH22 0xEF94B0B7CE6653D9E5920EA74E2A85DA93A66A538880 PUSH3 0x64736F PUSH13 0x63430008020033B53127684A56 DUP12 BALANCE PUSH20 0xAE13B9F8A6016E243E63B6E8EE1178D6A717850B 0x5D PUSH2 0x336 ADDMOD SWAP5 LOG1 EXTCODESIZE LOG1 LOG3 0x21 MOD PUSH8 0xC828492DB98DCA3E KECCAK256 PUSH23 0xCC3735A920A3CA505D382BBC416464726573733A206C6F PUSH24 0x2D6C6576656C2064656C65676174652063616C6C20666169 PUSH13 0x65640000000000000000000000 "
        },
        "methodIdentifiers": {
          "admin()": "f851a440",
          "changeAdmin(address)": "8f283970",
          "getAdmin()": "6e9960c3",
          "getImplementation()": "aaf10f42",
          "implementation()": "5c60da1b",
          "upgradeTo(address)": "3659cfe6",
          "upgradeToAndCall(address,bytes)": "4f1ef286"
        }
      }
    }
  }
}