{"abi":[{"type":"constructor","inputs":[{"name":"_weth","type":"address","internalType":"address"},{"name":"_creditLines","type":"address","internalType":"address"}],"stateMutability":"nonpayable"},{"type":"function","name":"creditlines","inputs":[],"outputs":[{"name":"","type":"address","internalType":"contract ICreditline"}],"stateMutability":"view"},{"type":"function","name":"depositEthAsCollateralToCreditLine","inputs":[{"name":"_id","type":"uint256","internalType":"uint256"}],"outputs":[],"stateMutability":"payable"},{"type":"function","name":"repayEthToCreditLines","inputs":[{"name":"_id","type":"uint256","internalType":"uint256"}],"outputs":[],"stateMutability":"payable"},{"type":"function","name":"weth","inputs":[],"outputs":[{"name":"","type":"address","internalType":"contract IWETH9"}],"stateMutability":"view"}],"bytecode":{"object":"0x60c060405234801561001057600080fd5b506040516108f63803806108f68339818101604052604081101561003357600080fd5b810190808051906020019092919080519060200190929190505050600073ffffffffffffffffffffffffffffffffffffffff168273ffffffffffffffffffffffffffffffffffffffff1614156100f1576040517f08c379a00000000000000000000000000000000000000000000000000000000081526004018080602001828103825260078152602001807f434c45553a43310000000000000000000000000000000000000000000000000081525060200191505060405180910390fd5b600073ffffffffffffffffffffffffffffffffffffffff168173ffffffffffffffffffffffffffffffffffffffff161415610194576040517f08c379a00000000000000000000000000000000000000000000000000000000081526004018080602001828103825260078152602001807f434c45553a43320000000000000000000000000000000000000000000000000081525060200191505060405180910390fd5b8173ffffffffffffffffffffffffffffffffffffffff1660808173ffffffffffffffffffffffffffffffffffffffff1660601b815250508073ffffffffffffffffffffffffffffffffffffffff1660a08173ffffffffffffffffffffffffffffffffffffffff1660601b81525050505060805160601c60a05160601c6106a16102556000398061014852806102a05280610351528061052652806105d752508061012452806101e35280610264528061046952806104ea52506106a16000f3fe60806040526004361061003f5760003560e01c80633fc8cef314610044578063748e9896146100855780638b6d8e37146100c6578063fd0f0e7a146100f4575b600080fd5b34801561005057600080fd5b50610059610122565b604051808273ffffffffffffffffffffffffffffffffffffffff16815260200191505060405180910390f35b34801561009157600080fd5b5061009a610146565b604051808273ffffffffffffffffffffffffffffffffffffffff16815260200191505060405180910390f35b6100f2600480360360208110156100dc57600080fd5b810190808035906020019092919050505061016a565b005b6101206004803603602081101561010a57600080fd5b81019080803590602001909291905050506103f0565b005b7f000000000000000000000000000000000000000000000000000000000000000081565b7f000000000000000000000000000000000000000000000000000000000000000081565b60003414156101e1576040517f08c379a000000000000000000000000000000000000000000000000000000000815260040180806020018281038252600b8152602001807f434c45553a444543434c3100000000000000000000000000000000000000000081525060200191505060405180910390fd5b7f000000000000000000000000000000000000000000000000000000000000000073ffffffffffffffffffffffffffffffffffffffff1663d0e30db0346040518263ffffffff1660e01b81526004016000604051808303818588803b15801561024957600080fd5b505af115801561025d573d6000803e3d6000fd5b50505050507f000000000000000000000000000000000000000000000000000000000000000073ffffffffffffffffffffffffffffffffffffffff1663095ea7b37f0000000000000000000000000000000000000000000000000000000000000000346040518363ffffffff1660e01b8152600401808373ffffffffffffffffffffffffffffffffffffffff16815260200182815260200192505050602060405180830381600087803b15801561031357600080fd5b505af1158015610327573d6000803e3d6000fd5b505050506040513d602081101561033d57600080fd5b8101908080519060200190929190505050507f000000000000000000000000000000000000000000000000000000000000000073ffffffffffffffffffffffffffffffffffffffff1663451226d1823460006040518463ffffffff1660e01b81526004018084815260200183815260200182151581526020019350505050600060405180830381600087803b1580156103d557600080fd5b505af11580156103e9573d6000803e3d6000fd5b5050505050565b6000341415610467576040517f08c379a000000000000000000000000000000000000000000000000000000000815260040180806020018281038252600a8152602001807f434c45553a5245434c310000000000000000000000000000000000000000000081525060200191505060405180910390fd5b7f000000000000000000000000000000000000000000000000000000000000000073ffffffffffffffffffffffffffffffffffffffff1663d0e30db0346040518263ffffffff1660e01b81526004016000604051808303818588803b1580156104cf57600080fd5b505af11580156104e3573d6000803e3d6000fd5b50505050507f000000000000000000000000000000000000000000000000000000000000000073ffffffffffffffffffffffffffffffffffffffff1663095ea7b37f0000000000000000000000000000000000000000000000000000000000000000346040518363ffffffff1660e01b8152600401808373ffffffffffffffffffffffffffffffffffffffff16815260200182815260200192505050602060405180830381600087803b15801561059957600080fd5b505af11580156105ad573d6000803e3d6000fd5b505050506040513d60208110156105c357600080fd5b8101908080519060200190929190505050507f000000000000000000000000000000000000000000000000000000000000000073ffffffffffffffffffffffffffffffffffffffff1663d8aed14582346040518363ffffffff1660e01b81526004018083815260200182815260200192505050600060405180830381600087803b15801561065057600080fd5b505af1158015610664573d6000803e3d6000fd5b505050505056fea264697066735822122087fd8f9450069ecc2de1d1212dd062177c05e4d697f5f96cf105862bd32535a064736f6c63430007060033","linkReferences":{}},"methodIdentifiers":{"creditlines()":"748e9896","depositEthAsCollateralToCreditLine(uint256)":"8b6d8e37","repayEthToCreditLines(uint256)":"fd0f0e7a","weth()":"3fc8cef3"},"id":1}