{
  "_format": "hh-sol-artifact-1",
  "contractName": "RCOrderbook",
  "sourceName": "contracts/RCOrderbook.sol",
  "abi": [
    {
      "inputs": [
        {
          "internalType": "contract IRCTreasury",
          "name": "_treasury",
          "type": "address"
        }
      ],
      "stateMutability": "nonpayable",
      "type": "constructor"
    },
    {
      "anonymous": false,
      "inputs": [
        {
          "indexed": true,
          "internalType": "address",
          "name": "newOwner",
          "type": "address"
        },
        {
          "indexed": true,
          "internalType": "uint256",
          "name": "newPrice",
          "type": "uint256"
        },
        {
          "indexed": false,
          "internalType": "uint256",
          "name": "timeHeldLimit",
          "type": "uint256"
        },
        {
          "indexed": false,
          "internalType": "uint256",
          "name": "nonce",
          "type": "uint256"
        },
        {
          "indexed": true,
          "internalType": "uint256",
          "name": "tokenId",
          "type": "uint256"
        },
        {
          "indexed": false,
          "internalType": "address",
          "name": "market",
          "type": "address"
        }
      ],
      "name": "LogAddToOrderbook",
      "type": "event"
    },
    {
      "anonymous": false,
      "inputs": [
        {
          "indexed": true,
          "internalType": "address",
          "name": "owner",
          "type": "address"
        },
        {
          "indexed": true,
          "internalType": "address",
          "name": "market",
          "type": "address"
        },
        {
          "indexed": true,
          "internalType": "uint256",
          "name": "tokenId",
          "type": "uint256"
        }
      ],
      "name": "LogRemoveFromOrderbook",
      "type": "event"
    },
    {
      "anonymous": false,
      "inputs": [
        {
          "indexed": false,
          "internalType": "address",
          "name": "userAddress",
          "type": "address"
        },
        {
          "indexed": false,
          "internalType": "address",
          "name": "relayerAddress",
          "type": "address"
        },
        {
          "indexed": false,
          "internalType": "bytes",
          "name": "functionSignature",
          "type": "bytes"
        }
      ],
      "name": "MetaTransactionExecuted",
      "type": "event"
    },
    {
      "inputs": [],
      "name": "FACTORY",
      "outputs": [
        {
          "internalType": "bytes32",
          "name": "",
          "type": "bytes32"
        }
      ],
      "stateMutability": "view",
      "type": "function"
    },
    {
      "inputs": [],
      "name": "GOVERNOR",
      "outputs": [
        {
          "internalType": "bytes32",
          "name": "",
          "type": "bytes32"
        }
      ],
      "stateMutability": "view",
      "type": "function"
    },
    {
      "inputs": [],
      "name": "MARKET",
      "outputs": [
        {
          "internalType": "bytes32",
          "name": "",
          "type": "bytes32"
        }
      ],
      "stateMutability": "view",
      "type": "function"
    },
    {
      "inputs": [],
      "name": "ORDERBOOK",
      "outputs": [
        {
          "internalType": "bytes32",
          "name": "",
          "type": "bytes32"
        }
      ],
      "stateMutability": "view",
      "type": "function"
    },
    {
      "inputs": [],
      "name": "OWNER",
      "outputs": [
        {
          "internalType": "bytes32",
          "name": "",
          "type": "bytes32"
        }
      ],
      "stateMutability": "view",
      "type": "function"
    },
    {
      "inputs": [],
      "name": "TREASURY",
      "outputs": [
        {
          "internalType": "bytes32",
          "name": "",
          "type": "bytes32"
        }
      ],
      "stateMutability": "view",
      "type": "function"
    },
    {
      "inputs": [],
      "name": "UBER_OWNER",
      "outputs": [
        {
          "internalType": "bytes32",
          "name": "",
          "type": "bytes32"
        }
      ],
      "stateMutability": "view",
      "type": "function"
    },
    {
      "inputs": [],
      "name": "WHITELIST",
      "outputs": [
        {
          "internalType": "bytes32",
          "name": "",
          "type": "bytes32"
        }
      ],
      "stateMutability": "view",
      "type": "function"
    },
    {
      "inputs": [
        {
          "internalType": "address",
          "name": "_user",
          "type": "address"
        },
        {
          "internalType": "uint256",
          "name": "_card",
          "type": "uint256"
        },
        {
          "internalType": "uint256",
          "name": "_price",
          "type": "uint256"
        },
        {
          "internalType": "uint256",
          "name": "_timeHeldLimit",
          "type": "uint256"
        },
        {
          "internalType": "address",
          "name": "_prevUserAddress",
          "type": "address"
        }
      ],
      "name": "addBidToOrderbook",
      "outputs": [],
      "stateMutability": "nonpayable",
      "type": "function"
    },
    {
      "inputs": [
        {
          "internalType": "address",
          "name": "_user",
          "type": "address"
        },
        {
          "internalType": "address",
          "name": "_market",
          "type": "address"
        },
        {
          "internalType": "uint256",
          "name": "_card",
          "type": "uint256"
        }
      ],
      "name": "bidExists",
      "outputs": [
        {
          "internalType": "bool",
          "name": "",
          "type": "bool"
        }
      ],
      "stateMutability": "view",
      "type": "function"
    },
    {
      "inputs": [],
      "name": "cleanWastePile",
      "outputs": [],
      "stateMutability": "nonpayable",
      "type": "function"
    },
    {
      "inputs": [],
      "name": "cleaningLoops",
      "outputs": [
        {
          "internalType": "uint256",
          "name": "",
          "type": "uint256"
        }
      ],
      "stateMutability": "view",
      "type": "function"
    },
    {
      "inputs": [],
      "name": "closeMarket",
      "outputs": [
        {
          "internalType": "bool",
          "name": "",
          "type": "bool"
        }
      ],
      "stateMutability": "nonpayable",
      "type": "function"
    },
    {
      "inputs": [
        {
          "internalType": "uint256",
          "name": "",
          "type": "uint256"
        }
      ],
      "name": "closedMarkets",
      "outputs": [
        {
          "internalType": "address",
          "name": "",
          "type": "address"
        }
      ],
      "stateMutability": "view",
      "type": "function"
    },
    {
      "inputs": [
        {
          "internalType": "address",
          "name": "userAddress",
          "type": "address"
        },
        {
          "internalType": "bytes",
          "name": "functionSignature",
          "type": "bytes"
        },
        {
          "internalType": "bytes32",
          "name": "sigR",
          "type": "bytes32"
        },
        {
          "internalType": "bytes32",
          "name": "sigS",
          "type": "bytes32"
        },
        {
          "internalType": "uint8",
          "name": "sigV",
          "type": "uint8"
        }
      ],
      "name": "executeMetaTransaction",
      "outputs": [
        {
          "internalType": "bytes",
          "name": "",
          "type": "bytes"
        }
      ],
      "stateMutability": "payable",
      "type": "function"
    },
    {
      "inputs": [
        {
          "internalType": "uint256",
          "name": "_card",
          "type": "uint256"
        },
        {
          "internalType": "uint256",
          "name": "_timeOwnershipChanged",
          "type": "uint256"
        }
      ],
      "name": "findNewOwner",
      "outputs": [],
      "stateMutability": "nonpayable",
      "type": "function"
    },
    {
      "inputs": [
        {
          "internalType": "address",
          "name": "_market",
          "type": "address"
        },
        {
          "internalType": "address",
          "name": "_user",
          "type": "address"
        },
        {
          "internalType": "uint256",
          "name": "_card",
          "type": "uint256"
        }
      ],
      "name": "getBid",
      "outputs": [
        {
          "components": [
            {
              "internalType": "address",
              "name": "market",
              "type": "address"
            },
            {
              "internalType": "address",
              "name": "next",
              "type": "address"
            },
            {
              "internalType": "address",
              "name": "prev",
              "type": "address"
            },
            {
              "internalType": "uint64",
              "name": "card",
              "type": "uint64"
            },
            {
              "internalType": "uint128",
              "name": "price",
              "type": "uint128"
            },
            {
              "internalType": "uint64",
              "name": "timeHeldLimit",
              "type": "uint64"
            }
          ],
          "internalType": "struct IRCOrderbook.Bid",
          "name": "",
          "type": "tuple"
        }
      ],
      "stateMutability": "view",
      "type": "function"
    },
    {
      "inputs": [
        {
          "internalType": "address",
          "name": "_user",
          "type": "address"
        },
        {
          "internalType": "uint256",
          "name": "_card",
          "type": "uint256"
        }
      ],
      "name": "getBidValue",
      "outputs": [
        {
          "internalType": "uint256",
          "name": "",
          "type": "uint256"
        }
      ],
      "stateMutability": "view",
      "type": "function"
    },
    {
      "inputs": [],
      "name": "getChainId",
      "outputs": [
        {
          "internalType": "uint256",
          "name": "",
          "type": "uint256"
        }
      ],
      "stateMutability": "view",
      "type": "function"
    },
    {
      "inputs": [],
      "name": "getDomainSeperator",
      "outputs": [
        {
          "internalType": "bytes32",
          "name": "",
          "type": "bytes32"
        }
      ],
      "stateMutability": "view",
      "type": "function"
    },
    {
      "inputs": [
        {
          "internalType": "address",
          "name": "user",
          "type": "address"
        }
      ],
      "name": "getNonce",
      "outputs": [
        {
          "internalType": "uint256",
          "name": "nonce",
          "type": "uint256"
        }
      ],
      "stateMutability": "view",
      "type": "function"
    },
    {
      "inputs": [
        {
          "internalType": "address",
          "name": "_user",
          "type": "address"
        },
        {
          "internalType": "uint256",
          "name": "_card",
          "type": "uint256"
        }
      ],
      "name": "getTimeHeldlimit",
      "outputs": [
        {
          "internalType": "uint256",
          "name": "",
          "type": "uint256"
        }
      ],
      "stateMutability": "view",
      "type": "function"
    },
    {
      "inputs": [
        {
          "internalType": "address",
          "name": "",
          "type": "address"
        },
        {
          "internalType": "address",
          "name": "",
          "type": "address"
        },
        {
          "internalType": "uint256",
          "name": "",
          "type": "uint256"
        }
      ],
      "name": "index",
      "outputs": [
        {
          "internalType": "uint256",
          "name": "",
          "type": "uint256"
        }
      ],
      "stateMutability": "view",
      "type": "function"
    },
    {
      "inputs": [
        {
          "internalType": "address",
          "name": "",
          "type": "address"
        }
      ],
      "name": "market",
      "outputs": [
        {
          "internalType": "uint64",
          "name": "mode",
          "type": "uint64"
        },
        {
          "internalType": "uint64",
          "name": "cardCount",
          "type": "uint64"
        },
        {
          "internalType": "uint64",
          "name": "minimumPriceIncreasePercent",
          "type": "uint64"
        },
        {
          "internalType": "uint64",
          "name": "minimumRentalDuration",
          "type": "uint64"
        }
      ],
      "stateMutability": "view",
      "type": "function"
    },
    {
      "inputs": [],
      "name": "marketCloseLimit",
      "outputs": [
        {
          "internalType": "uint256",
          "name": "",
          "type": "uint256"
        }
      ],
      "stateMutability": "view",
      "type": "function"
    },
    {
      "inputs": [],
      "name": "maxDeletions",
      "outputs": [
        {
          "internalType": "uint256",
          "name": "",
          "type": "uint256"
        }
      ],
      "stateMutability": "view",
      "type": "function"
    },
    {
      "inputs": [],
      "name": "maxSearchIterations",
      "outputs": [
        {
          "internalType": "uint256",
          "name": "",
          "type": "uint256"
        }
      ],
      "stateMutability": "view",
      "type": "function"
    },
    {
      "inputs": [],
      "name": "nonce",
      "outputs": [
        {
          "internalType": "uint256",
          "name": "",
          "type": "uint256"
        }
      ],
      "stateMutability": "view",
      "type": "function"
    },
    {
      "inputs": [
        {
          "internalType": "address",
          "name": "",
          "type": "address"
        },
        {
          "internalType": "uint256",
          "name": "",
          "type": "uint256"
        }
      ],
      "name": "oldOwner",
      "outputs": [
        {
          "internalType": "address",
          "name": "",
          "type": "address"
        }
      ],
      "stateMutability": "view",
      "type": "function"
    },
    {
      "inputs": [
        {
          "internalType": "address",
          "name": "",
          "type": "address"
        },
        {
          "internalType": "uint256",
          "name": "",
          "type": "uint256"
        }
      ],
      "name": "oldPrice",
      "outputs": [
        {
          "internalType": "uint256",
          "name": "",
          "type": "uint256"
        }
      ],
      "stateMutability": "view",
      "type": "function"
    },
    {
      "inputs": [
        {
          "internalType": "address",
          "name": "",
          "type": "address"
        },
        {
          "internalType": "uint256",
          "name": "",
          "type": "uint256"
        }
      ],
      "name": "ownerOf",
      "outputs": [
        {
          "internalType": "address",
          "name": "",
          "type": "address"
        }
      ],
      "stateMutability": "view",
      "type": "function"
    },
    {
      "inputs": [
        {
          "internalType": "address",
          "name": "_user",
          "type": "address"
        },
        {
          "internalType": "uint256",
          "name": "_card",
          "type": "uint256"
        },
        {
          "internalType": "uint256",
          "name": "_timeToReduce",
          "type": "uint256"
        }
      ],
      "name": "reduceTimeHeldLimit",
      "outputs": [],
      "stateMutability": "nonpayable",
      "type": "function"
    },
    {
      "inputs": [
        {
          "internalType": "address",
          "name": "_user",
          "type": "address"
        },
        {
          "internalType": "uint256",
          "name": "_card",
          "type": "uint256"
        }
      ],
      "name": "removeBidFromOrderbook",
      "outputs": [],
      "stateMutability": "nonpayable",
      "type": "function"
    },
    {
      "inputs": [
        {
          "internalType": "address",
          "name": "_user",
          "type": "address"
        }
      ],
      "name": "removeOldBids",
      "outputs": [],
      "stateMutability": "nonpayable",
      "type": "function"
    },
    {
      "inputs": [
        {
          "internalType": "address",
          "name": "_user",
          "type": "address"
        }
      ],
      "name": "removeUserFromOrderbook",
      "outputs": [],
      "stateMutability": "nonpayable",
      "type": "function"
    },
    {
      "inputs": [
        {
          "internalType": "uint256",
          "name": "_cleaningLimit",
          "type": "uint256"
        }
      ],
      "name": "setCleaningLimit",
      "outputs": [],
      "stateMutability": "nonpayable",
      "type": "function"
    },
    {
      "inputs": [
        {
          "internalType": "uint256",
          "name": "_deletionLimit",
          "type": "uint256"
        }
      ],
      "name": "setDeletionLimit",
      "outputs": [],
      "stateMutability": "nonpayable",
      "type": "function"
    },
    {
      "inputs": [
        {
          "internalType": "uint256",
          "name": "_marketCloseLimit",
          "type": "uint256"
        }
      ],
      "name": "setMarketCloseLimit",
      "outputs": [],
      "stateMutability": "nonpayable",
      "type": "function"
    },
    {
      "inputs": [
        {
          "internalType": "uint256",
          "name": "_searchLimit",
          "type": "uint256"
        }
      ],
      "name": "setSearchLimit",
      "outputs": [],
      "stateMutability": "nonpayable",
      "type": "function"
    },
    {
      "inputs": [
        {
          "internalType": "address",
          "name": "_user",
          "type": "address"
        },
        {
          "internalType": "uint256",
          "name": "_card",
          "type": "uint256"
        },
        {
          "internalType": "uint256",
          "name": "_timeHeldLimit",
          "type": "uint256"
        }
      ],
      "name": "setTimeHeldlimit",
      "outputs": [],
      "stateMutability": "nonpayable",
      "type": "function"
    },
    {
      "inputs": [
        {
          "internalType": "address",
          "name": "_newTreasury",
          "type": "address"
        }
      ],
      "name": "setTreasuryAddress",
      "outputs": [],
      "stateMutability": "nonpayable",
      "type": "function"
    },
    {
      "inputs": [],
      "name": "treasury",
      "outputs": [
        {
          "internalType": "contract IRCTreasury",
          "name": "",
          "type": "address"
        }
      ],
      "stateMutability": "view",
      "type": "function"
    },
    {
      "inputs": [
        {
          "internalType": "address",
          "name": "",
          "type": "address"
        },
        {
          "internalType": "uint256",
          "name": "",
          "type": "uint256"
        }
      ],
      "name": "user",
      "outputs": [
        {
          "internalType": "address",
          "name": "market",
          "type": "address"
        },
        {
          "internalType": "address",
          "name": "next",
          "type": "address"
        },
        {
          "internalType": "address",
          "name": "prev",
          "type": "address"
        },
        {
          "internalType": "uint64",
          "name": "card",
          "type": "uint64"
        },
        {
          "internalType": "uint128",
          "name": "price",
          "type": "uint128"
        },
        {
          "internalType": "uint64",
          "name": "timeHeldLimit",
          "type": "uint64"
        }
      ],
      "stateMutability": "view",
      "type": "function"
    },
    {
      "inputs": [
        {
          "internalType": "address",
          "name": "",
          "type": "address"
        }
      ],
      "name": "userClosedMarketIndex",
      "outputs": [
        {
          "internalType": "uint256",
          "name": "",
          "type": "uint256"
        }
      ],
      "stateMutability": "view",
      "type": "function"
    }
  ],
  "bytecode": "0x60806040526103e8600f556046601055600260115560466012553480156200002657600080fd5b5060405162005b8238038062005b8283398101604081905262000049916200006f565b600e80546001600160a01b0319166001600160a01b0392909216919091179055620000a1565b6000602082840312156200008257600080fd5b81516001600160a01b03811681146200009a57600080fd5b9392505050565b615ad180620000b16000396000f3fe6080604052600436106102675760003560e01c8063678729eb11610144578063beb724c9116100b6578063f46f16c21161007a578063f46f16c214610930578063f4ee9d8c14610952578063f94fe9891461098a578063fa8cb9af146109aa578063faf9b886146109cc578063fefa6119146109ec57600080fd5b8063beb724c914610898578063c4cb4c31146108b8578063c511ed5e146108e5578063c568b024146108fa578063cc6a0e771461091a57600080fd5b806393df1ba11161010857806393df1ba1146107855780639c935d17146107a55780639f382f6a146107c55780639fc09e2f1461084d578063a471a43714610862578063affed0e01461088257600080fd5b8063678729eb1461068c5780636dc0ae22146106bc57806378200a1e146106f05780637a37f158146107245780639344dc041461076557600080fd5b80633408e470116101dd57806354cfca4d116101a157806354cfca4d146105c25780635dcba9f3146105d857806361be6baf146105ee57806361d027b31461060e5780636399af4d1461062e5780636605bfda1461066c57600080fd5b80633408e470146104c357806339544f54146104d65780633a8795e7146104f65780633d9a147c1461051657806346cb40e51461053657600080fd5b80631bb7cc991161022f5780631bb7cc99146103835780631f29d2dc146103b757806320379ee5146104105780632d0335ab146104255780632d2c55651461045b5780632dd310001461048f57600080fd5b80630b51a0011461026c5780630c53c51c1461028e578063117803e3146102b75780631430b91f146102f957806314feaa9d1461030f575b600080fd5b34801561027857600080fd5b5061028c6102873660046155a6565b610a0c565b005b6102a161029c3660046153fe565b610adb565b6040516102ae91906157d7565b60405180910390f35b3480156102c357600080fd5b506102eb7f6270edb7c868f86fda4adedba75108201087268ea345934db8bad688e1feb91b81565b6040519081526020016102ae565b34801561030557600080fd5b506102eb60105481565b34801561031b57600080fd5b5061032f61032a3660046154e3565b610cc5565b604080516001600160a01b039788168152958716602087015293909516928401929092526001600160401b0390811660608401526001600160801b03909116608083015290911660a082015260c0016102ae565b34801561038f57600080fd5b506102eb7f0af0c3ebe77999ca20698e1ff25f812bf82409a59d21ca15a41f39e0ce9f250081565b3480156103c357600080fd5b506103f86103d23660046154e3565b60096020908152600092835260408084209091529082529020546001600160a01b031681565b6040516001600160a01b0390911681526020016102ae565b34801561041c57600080fd5b506102eb610d43565b34801561043157600080fd5b506102eb6104403660046153a7565b6001600160a01b031660009081526005602052604090205490565b34801561046757600080fd5b506102eb7f06aa03964db1f7257357ef09714a5f0ca3633723df419e97015e0c7a3e83edb781565b34801561049b57600080fd5b506102eb7f547b500e425d72fd0723933cceefc203cef652b4736fd04250c3369b3e1a0a7381565b3480156104cf57600080fd5b50466102eb565b3480156104e257600080fd5b5061028c6104f13660046155a6565b610dfd565b34801561050257600080fd5b5061028c6105113660046155a6565b610ec3565b34801561052257600080fd5b5061028c6105313660046155a6565b610f89565b34801561054257600080fd5b506105566105513660046153c2565b61104f565b6040805182516001600160a01b0390811682526020808501518216908301528383015116918101919091526060808301516001600160401b03908116918301919091526080808401516001600160801b03169083015260a092830151169181019190915260c0016102ae565b3480156105ce57600080fd5b506102eb60115481565b3480156105e457600080fd5b506102eb60125481565b3480156105fa57600080fd5b506102eb6106093660046154e3565b611185565b34801561061a57600080fd5b50600e546103f8906001600160a01b031681565b34801561063a57600080fd5b506102eb6106493660046153c2565b600760209081526000938452604080852082529284528284209052825290205481565b34801561067857600080fd5b5061028c6106873660046153a7565b6112e4565b34801561069857600080fd5b506106ac6106a73660046153c2565b6113da565b60405190151581526020016102ae565b3480156106c857600080fd5b506102eb7f1a6838efa4183e08fe3607359d1259272af9d4716f65e1a7b5921f78fd5a3c6a81565b3480156106fc57600080fd5b506102eb7ffd4feb1bffe856ecab4919d7fde3e54d37812cf1161f31157b5f46ca821b7e0081565b34801561073057600080fd5b506103f861073f3660046154e3565b600a6020908152600092835260408084209091529082529020546001600160a01b031681565b34801561077157600080fd5b506102eb6107803660046154e3565b6114e9565b34801561079157600080fd5b506103f86107a03660046155a6565b61157d565b3480156107b157600080fd5b5061028c6107c036600461550d565b6115a7565b3480156107d157600080fd5b5061081a6107e03660046153a7565b6008602052600090815260409020546001600160401b0380821691600160401b8104821691600160801b8204811691600160c01b90041684565b604080516001600160401b03958616815293851660208501529184169183019190915290911660608201526080016102ae565b34801561085957600080fd5b5061028c61174a565b34801561086e57600080fd5b5061028c61087d36600461550d565b611e21565b34801561088e57600080fd5b506102eb60135481565b3480156108a457600080fd5b5061028c6108b33660046153a7565b611fb4565b3480156108c457600080fd5b506102eb6108d33660046153a7565b600d6020526000908152604090205481565b3480156108f157600080fd5b506106ac612673565b34801561090657600080fd5b5061028c6109153660046154e3565b612d24565b34801561092657600080fd5b506102eb600f5481565b34801561093c57600080fd5b506102eb600080516020615a7c83398151915281565b34801561095e57600080fd5b506102eb61096d3660046154e3565b600b60209081526000928352604080842090915290825290205481565b34801561099657600080fd5b5061028c6109a5366004615540565b612e3b565b3480156109b657600080fd5b506102eb6000805160206159ca83398151915281565b3480156109d857600080fd5b5061028c6109e73660046153a7565b6131fb565b3480156109f857600080fd5b5061028c610a073660046155d8565b6134cc565b600e546001600160a01b0316635cc77dd36000805160206159ca833981519152610a3461394e565b6040516001600160e01b031960e085901b16815260048101929092526001600160a01b0316602482015260440160206040518083038186803b158015610a7957600080fd5b505afa158015610a8d573d6000803e3d6000fd5b505050506040513d601f19601f82011682018060405250810190610ab19190615584565b610ad65760405162461bcd60e51b8152600401610acd90615812565b60405180910390fd5b601155565b60408051606081810183526001600160a01b03881660008181526005602090815290859020548452830152918101869052610b19878287878761396a565b610b6f5760405162461bcd60e51b815260206004820152602160248201527f5369676e657220616e64207369676e617475726520646f206e6f74206d6174636044820152600d60fb1b6064820152608401610acd565b6001600160a01b038716600090815260056020526040902054610b9390600161583e565b6001600160a01b0388166000908152600560205260409081902091909155517f5845892132946850460bff5a0083f71031bc5bf9aadcd40f1de79423eac9b10b90610be390899033908a90615715565b60405180910390a1600080306001600160a01b0316888a604051602001610c0b929190615642565b60408051601f1981840301815290829052610c2591615626565b6000604051808303816000865af19150503d8060008114610c62576040519150601f19603f3d011682016040523d82523d6000602084013e610c67565b606091505b509150915081610cb95760405162461bcd60e51b815260206004820152601c60248201527f46756e6374696f6e2063616c6c206e6f74207375636365737366756c000000006044820152606401610acd565b98975050505050505050565b60066020528160005260406000208181548110610ce157600080fd5b600091825260209091206004909102018054600182015460028301546003909301546001600160a01b0392831695509082169350908216916001600160401b03600160a01b9091048116916001600160801b03811691600160801b9091041686565b6000600254610d4f4690565b1415610d5c575060015490565b6040518060800160405280604f8152602001615a2d604f9139805190602001206003604051610d8b9190615679565b60405180910390206004604051610da29190615679565b604051809103902030610db24690565b60408051602081019690965285019390935260608401919091526001600160a01b0316608083015260a082015260c00160405160208183030381529060405280519060200120905090565b600e546001600160a01b0316635cc77dd36000805160206159ca833981519152610e2561394e565b6040516001600160e01b031960e085901b16815260048101929092526001600160a01b0316602482015260440160206040518083038186803b158015610e6a57600080fd5b505afa158015610e7e573d6000803e3d6000fd5b505050506040513d601f19601f82011682018060405250810190610ea29190615584565b610ebe5760405162461bcd60e51b8152600401610acd90615812565b601255565b600e546001600160a01b0316635cc77dd36000805160206159ca833981519152610eeb61394e565b6040516001600160e01b031960e085901b16815260048101929092526001600160a01b0316602482015260440160206040518083038186803b158015610f3057600080fd5b505afa158015610f44573d6000803e3d6000fd5b505050506040513d601f19601f82011682018060405250810190610f689190615584565b610f845760405162461bcd60e51b8152600401610acd90615812565b601055565b600e546001600160a01b0316635cc77dd36000805160206159ca833981519152610fb161394e565b6040516001600160e01b031960e085901b16815260048101929092526001600160a01b0316602482015260440160206040518083038186803b158015610ff657600080fd5b505afa15801561100a573d6000803e3d6000fd5b505050506040513d601f19601f8201168201806040525081019061102e9190615584565b61104a5760405162461bcd60e51b8152600401610acd90615812565b600f55565b611057615345565b6110628385846113da565b1561113c576001600160a01b038084166000908152600660209081526040808320600783528184209489168452938252808320868452909152812054825491929181106110b1576110b161599d565b60009182526020918290206040805160c081018252600490930290910180546001600160a01b03908116845260018201548116948401949094526002810154938416918301919091526001600160401b03600160a01b90930483166060830152600301546001600160801b0381166080830152600160801b900490911660a0820152915061117e9050565b611144615345565b6000815261115183613a5a565b6001600160401b03166060820152600060408201819052602082018190526080820181905260a082015290505b9392505050565b600e546000906001600160a01b0316635cc77dd3600080516020615a7c8339815191526111b061394e565b6040516001600160e01b031960e085901b16815260048101929092526001600160a01b0316602482015260440160206040518083038186803b1580156111f557600080fd5b505afa158015611209573d6000803e3d6000fd5b505050506040513d601f19601f8201168201806040525081019061122d9190615584565b6112495760405162461bcd60e51b8152600401610acd906157ea565b6001600160a01b038316600090815260066020908152604080832060079092528220909161127561394e565b6001600160a01b03166001600160a01b03168152602001908152602001600020600084815260200190815260200160002054815481106112b7576112b761599d565b6000918252602090912060049091020160030154600160801b90046001600160401b031690505b92915050565b600e546001600160a01b0316635cc77dd36000805160206159ca83398151915261130c61394e565b6040516001600160e01b031960e085901b16815260048101929092526001600160a01b0316602482015260440160206040518083038186803b15801561135157600080fd5b505afa158015611365573d6000803e3d6000fd5b505050506040513d601f19601f820116820180604052508101906113899190615584565b6113a55760405162461bcd60e51b8152600401610acd90615812565b6001600160a01b0381166113b857600080fd5b600e80546001600160a01b0319166001600160a01b0392909216919091179055565b6001600160a01b038316600090815260066020526040812054156114df576001600160a01b038085166000908152600760209081526040808320938716835292815282822085835290522054156114335750600161117e565b6001600160a01b0384811660009081526006602052604081208054928616929091906114615761146161599d565b60009182526020909120600490910201546001600160a01b03161480156114d257506001600160a01b038416600090815260066020526040812080548492906114ac576114ac61599d565b6000918252602090912060049091020160020154600160a01b90046001600160401b0316145b156114df5750600161117e565b5060009392505050565b6000806114f461394e565b90506115018482856113da565b15611573576001600160a01b0380851660009081526006602090815260408083206007835281842094861684529382528083208784529091529020548154811061154d5761154d61599d565b60009182526020909120600360049092020101546001600160801b031691506112de9050565b60009150506112de565b600c818154811061158d57600080fd5b6000918252602090912001546001600160a01b0316905081565b600e546001600160a01b0316635cc77dd3600080516020615a7c8339815191526115cf61394e565b6040516001600160e01b031960e085901b16815260048101929092526001600160a01b0316602482015260440160206040518083038186803b15801561161457600080fd5b505afa158015611628573d6000803e3d6000fd5b505050506040513d601f19601f8201168201806040525081019061164c9190615584565b6116685760405162461bcd60e51b8152600401610acd906157ea565b600061167261394e565b905061167f8482856113da565b6116bf5760405162461bcd60e51b8152602060048201526011602482015270109a5908191bd95cdb89dd08195e1a5cdd607a1b6044820152606401610acd565b6116c882613a5a565b6001600160a01b0380861660009081526006602090815260408083206007835281842094871684529382528083208884529091529020548154811061170f5761170f61599d565b906000526020600020906004020160030160106101000a8154816001600160401b0302191690836001600160401b0316021790555050505050565b60005b6011548110801561176c57503060009081526006602052604090205415155b15611e1e573060009081526006602052604081205461178d90600190615897565b30600090815260066020526040812080549293509091839081106117b3576117b361599d565b6000918252602080832060049092029091015430835260069091526040822080546001600160a01b03909216935090849081106117f2576117f261599d565b60009182526020808320600492909202909101600201543083526006909152604082208054600160a01b9092046001600160401b03169350908590811061183b5761183b61599d565b6000918252602080832060016004909302019190910154308084526006909252604090922080546001600160a01b0390931693509091869081106118815761188161599d565b60009182526020909120600160049092020101546001600160a01b03161415611943573060008181526007602090815260408083206001600160a01b03881684528252808320868452825280832083905592825260069052208054806118e9576118e9615987565b60008281526020902060046000199092019182020180546001600160a01b0319908116825560018201805490911690556002810180546001600160e01b031916905560030180546001600160c01b03191690559055611e08565b6001600160a01b0380821660008181526007602090815260408083209488168352938152838220868352815283822054928252600690529182208054919291839081106119925761199261599d565b6000918252602080832060049290920290910160010154600e546001600160a01b0387811685526006909352604090932080549183169450919092169163fd2a97fd918691869081106119e7576119e761599d565b906000526020600020906004020160030160009054906101000a90046001600160801b03166040518363ffffffff1660e01b8152600401611a299291906157b5565b600060405180830381600087803b158015611a4357600080fd5b505af1158015611a57573d6000803e3d6000fd5b5050306000908152600660205260409020805484935090915088908110611a8057611a8061599d565b6000918252602080832060049290920290910160010180546001600160a01b0319166001600160a01b03948516179055838316825260068152604080832060078352818420948a1684529382528083208884529091529020548154309291908110611aed57611aed61599d565b6000918252602080832060049290920290910160020180546001600160a01b0319166001600160a01b03948516179055918516815260069091526040812054611b3890600190615897565b9050808314611c81576001600160a01b0384166000908152600660205260409020805482908110611b6b57611b6b61599d565b906000526020600020906004020160066000866001600160a01b03166001600160a01b031681526020019081526020016000208481548110611baf57611baf61599d565b60009182526020909120825460049092020180546001600160a01b039283166001600160a01b031991821617825560018085015490830180549185169183169190911790556002808501805491840180549290951692821683178555546001600160e01b0319909116909117600160a01b918290046001600160401b0390811690920217909255600392830180549390910180546001600160801b039094166001600160801b031985168117825591546001600160c01b0319909416909117600160801b938490049092169092021790555b6001600160a01b0384166000908152600660205260409020805480611ca857611ca8615987565b6000828152602080822060046000199094019384020180546001600160a01b0319908116825560018201805490911690556002810180546001600160e01b031916905560030180546001600160c01b0319169055919092556001600160a01b03868116808452600783526040808520928b16855291835281842089855283528184208490558352600690915290205415801590611d455750808314155b15611e04576001600160a01b03841660009081526007602090815260408083206006909252822080548693919084908110611d8257611d8261599d565b600091825260208083206004909202909101546001600160a01b0390811684528382019490945260409283018220938916825260069052908120805487908110611dce57611dce61599d565b6000918252602080832060049290920290910160020154600160a01b90046001600160401b031683528201929092526040019020555b5050505b84611e1281615919565b9550505050505061174d565b50565b600e546001600160a01b0316635cc77dd3600080516020615a7c833981519152611e4961394e565b6040516001600160e01b031960e085901b16815260048101929092526001600160a01b0316602482015260440160206040518083038186803b158015611e8e57600080fd5b505afa158015611ea2573d6000803e3d6000fd5b505050506040513d601f19601f82011682018060405250810190611ec69190615584565b611ee25760405162461bcd60e51b8152600401610acd906157ea565b611eeb81613a5a565b6001600160a01b0384166000908152600660209081526040808320600790925282209091611f1761394e565b6001600160a01b03166001600160a01b0316815260200190815260200160002060008581526020019081526020016000205481548110611f5957611f5961599d565b906000526020600020906004020160030160108282829054906101000a90046001600160401b0316611f8b91906158ae565b92506101000a8154816001600160401b0302191690836001600160401b03160217905550505050565b6001600160a01b03811660009081526006602052604090205415611e1e576000806000805b600c546001600160a01b0386166000908152600d602052604090205410801561200c575060105461200a848461583e565b105b1561266c576001600160a01b0385166000908152600d6020526040902054600c8054909190811061203f5761203f61599d565b60009182526020808320909101546001600160a01b031680835260089091526040909120549094506001600160401b03600160401b909104169250825b8061208681615902565b9150506120948686836113da565b1561260d576001600160a01b038087166000818152600760209081526040808320948a168352938152838220858352815283822054928252600690529182208054919291839081106120e8576120e861599d565b60009182526020808320600360049093020191909101546001600160a01b038b16835260069091526040822080546001600160801b03909216935090849081106121345761213461599d565b60009182526020808320600260049093020191909101546001600160a01b038c811684526006909252604083208054929091169350908590811061217a5761217a61599d565b60009182526020808320600160049093020191909101546001600160a01b0390811680845260068352604080852060078552818620938f1686529284528085208a86529093529190922054825491935084929181106121db576121db61599d565b6000918252602080832060049290920290910160020180546001600160a01b0319166001600160a01b03948516179055848316825260068152604080832060078352818420948e16845293825280832089845290915290205481548392919081106122485761224861599d565b600091825260208083206001600490930201820180546001600160a01b039586166001600160a01b0319909116179055928d16825260069092526040812054909161229291615897565b90508085146123db576001600160a01b038b1660009081526006602052604090208054829081106122c5576122c561599d565b9060005260206000209060040201600660008d6001600160a01b03166001600160a01b0316815260200190815260200160002086815481106123095761230961599d565b60009182526020909120825460049092020180546001600160a01b039283166001600160a01b031991821617825560018085015490830180549185169183169190911790556002808501805491840180549290951692821683178555546001600160e01b0319909116909117600160a01b918290046001600160401b0390811690920217909255600392830180549390910180546001600160801b039094166001600160801b031985168117825591546001600160c01b0319909416909117600160801b938490049092169092021790555b6001600160a01b038b16600090815260066020526040902080548061240257612402615987565b6000828152602080822060046000199094019384020180546001600160a01b0319908116825560018201805490911690556002810180546001600160e01b031916905560030180546001600160c01b0319169055919092556001600160a01b038d8116808452600783526040808520928f1685529183528184208a85528352818420849055835260069091529020541580159061249f5750808514155b1561258f576001600160a01b038b16600090815260076020908152604080832060069092528220805488939190849081106124dc576124dc61599d565b906000526020600020906004020160000160009054906101000a90046001600160a01b03166001600160a01b03166001600160a01b031681526020019081526020016000206000600660008f6001600160a01b03166001600160a01b0316815260200190815260200160002088815481106125595761255961599d565b6000918252602080832060049290920290910160020154600160a01b90046001600160401b031683528201929092526040019020555b600e5460405163fd2a97fd60e01b81526001600160a01b038d81166004830152602482018790529091169063fd2a97fd90604401600060405180830381600087803b1580156125dd57600080fd5b505af11580156125f1573d6000803e3d6000fd5b50505050878061260090615919565b9850505050505050612635565b8161261781615919565b925050606482111561263557600091508261263181615919565b9350505b6000811161207c576001600160a01b0386166000908152600d6020526040812080549161266183615919565b919050555050611fd9565b5050505050565b600e546000906001600160a01b0316635cc77dd3600080516020615a7c83398151915261269e61394e565b6040516001600160e01b031960e085901b16815260048101929092526001600160a01b0316602482015260440160206040518083038186803b1580156126e357600080fd5b505afa1580156126f7573d6000803e3d6000fd5b505050506040513d601f19601f8201168201806040525081019061271b9190615584565b6127375760405162461bcd60e51b8152600401610acd906157ea565b600061274161394e565b905061274f818260006113da565b15612cf757600c8054600181019091557fdf6966c971051c3d54ec59162606531493a51404a002842f56009d7e5cf4a8c70180546001600160a01b0319166001600160a01b0383169081179091556000908152600660205260408120546012549091908211156127e6576012546001600160a01b0384166000908152600660205260409020546127df9190615897565b90506127ea565b5060005b816127f481615902565b6001600160a01b0385166000908152600660209081526040808320600783528184208352818420858552909252822054815493965091935091811061283b5761283b61599d565b60009182526020909120600160049092020101546001600160a01b03908116915084168114612c70576001600160a01b038082166000908152600660209081526040808320600783528184209489168452938252808320878452909152812054825491929181106128ae576128ae61599d565b60009182526020808320600360049093020191909101546001600160a01b038816835260068252604080842060078452818520845281852089865290935283205482546001600160801b03909216945090811061290d5761290d61599d565b60009182526020808320600260049093020191909101546001600160a01b0389811684526006835260408085206007855281862085528186208b8752909452909320548254939091169350889281106129685761296861599d565b6000918252602080832060049290920290910160020180546001600160a01b0319166001600160a01b03948516179055918816815260068252604080822060078452818320845281832089845290935290205481548892919081106129cf576129cf61599d565b6000918252602080832060049290920290910160010180546001600160a01b0319166001600160a01b03948516179055858316825260068152604080832060078352818420948b1684529382528083208984529091529020548154309291908110612a3c57612a3c61599d565b6000918252602080832060049290920290910160020180546001600160a01b0319166001600160a01b03948516179055838316825260068152604080832060078352818420948b1684529382528083208984529091529020548154309291908110612aa957612aa961599d565b6000918252602080832060049290920290910160010180546001600160a01b0319166001600160a01b039485161790553082526006815260408083205460078352818420948b168452938252808320898452909152902055612b09615345565b6001600160a01b0387168152612b1e86613a5a565b6001600160401b03908116606083019081526001600160a01b038085166040808601918252888316602080880191825260006080890181815260a08a01828152308352600684528583208054600181810183559185529484208c5160049687029091018054918b166001600160a01b031992831617815596519187018054928b1692909116919091179055955160028501805499518b16600160a01b026001600160e01b0319909a1691891691909117989098179097559551600390920180549451909716600160801b026001600160c01b03199094166001600160801b03929092169190911792909217909455600e549351637f47cee160e11b8152939091169263fe8f9dc292612c3a9289928d928a92909142910161574a565b600060405180830381600087803b158015612c5457600080fd5b505af1158015612c68573d6000803e3d6000fd5b505050505050505b6001600160a01b0384166000908152600660205260409020805480612c9757612c97615987565b60008281526020902060046000199092019182020180546001600160a01b0319908116825560018201805490911690556002810180546001600160e01b031916905560030180546001600160c01b03191690559055508082116127ea5750505b6001600160a01b038116600090815260066020526040902054612d1c57600191505090565b600091505090565b600e546001600160a01b0316635cc77dd3600080516020615a7c833981519152612d4c61394e565b6040516001600160e01b031960e085901b16815260048101929092526001600160a01b0316602482015260440160206040518083038186803b158015612d9157600080fd5b505afa158015612da5573d6000803e3d6000fd5b505050506040513d601f19601f82011682018060405250810190612dc99190615584565b612de55760405162461bcd60e51b8152600401610acd906157ea565b6000612def61394e565b6001600160a01b03808216600090815260096020908152604080832087845290915290205491925084811691161415612e2a57612e2a61595b565b612e35838284613ac6565b50505050565b600e546001600160a01b0316635cc77dd3600080516020615a7c833981519152612e6361394e565b6040516001600160e01b031960e085901b16815260048101929092526001600160a01b0316602482015260440160206040518083038186803b158015612ea857600080fd5b505afa158015612ebc573d6000803e3d6000fd5b505050506040513d601f19601f82011682018060405250810190612ee09190615584565b612efc5760405162461bcd60e51b8152600401610acd906157ea565b6000612f0661394e565b9050612f138182876113da565b61300f576000816001600160a01b03166381efd7086040518163ffffffff1660e01b815260040160206040518083038186803b158015612f5257600080fd5b505afa158015612f66573d6000803e3d6000fd5b505050506040513d601f19601f82011682018060405250810190612f8a91906155bf565b90506000826001600160a01b0316634ad6f0b76040518163ffffffff1660e01b815260040160206040518083038186803b158015612fc757600080fd5b505afa158015612fdb573d6000803e3d6000fd5b505050506040513d601f19601f82011682018060405250810190612fff91906155bf565b905061300c838383614054565b50505b61301761174a565b6001600160a01b03861660009081526006602052604090205461305157600c546001600160a01b0387166000908152600d60205260409020555b6001600160a01b03821661306757809150613110565b6001600160a01b03808316600090815260066020908152604080832060078352818420948616845293825280832089845290915290205481548692919081106130b2576130b261599d565b60009182526020909120600360049092020101546001600160801b031610156131105760405162461bcd60e51b815260206004820152601060248201526f4c6f636174696f6e20746f6f206c6f7760801b6044820152606401610acd565b61311b8282876113da565b6131675760405162461bcd60e51b815260206004820152601960248201527f496e76616c6964207374617274696e67206c6f636174696f6e000000000000006044820152606401610acd565b6001600160a01b038083166000908152600660209081526040808320600783528184209486168452938252808320898452909152812054825491929181106131b1576131b161599d565b906000526020600020906004020190506131cc8783886113da565b156131e4576131df8783888888866142df565b6131f2565b6131f2878388888886614a2f565b50505050505050565b600e54604051625274c560e21b81526001600160a01b03838116600483015290911690630149d3149060240160206040518083038186803b15801561323f57600080fd5b505afa158015613253573d6000803e3d6000fd5b505050506040513d601f19601f820116820180604052508101906132779190615584565b6132c35760405162461bcd60e51b815260206004820152601760248201527f55736572206d75737420626520666f7265636c6f7365640000000000000000006044820152606401610acd565b6001600160a01b03811660009081526006602052604090205480156134695760006010548211156132fe576010546132fb9083615897565b90505b8161330881615902565b6001600160a01b038516600090815260066020526040902080549194509150839081106133375761333761599d565b600091825260208083206004909202909101546001600160a01b038681168452600690925260409092208054919092169190849081106133795761337961599d565b60009182526020909120600260049092020101546001600160a01b03161461343c576001600160a01b03831660009081526006602052604081208054849081106133c5576133c561599d565b600091825260208083206004909202909101546001600160a01b038781168452600690925260408320805492909116935090859081106134075761340761599d565b6000918252602090912060049091020160020154600160a01b90046001600160401b03169050613438858383613ac6565b5050505b6001600160a01b038316600090815260066020526040902054811080156134635750600082115b6132fe57505b600e546040516384c7ffe560e01b81526001600160a01b038481166004830152909116906384c7ffe590602401600060405180830381600087803b1580156134b057600080fd5b505af11580156134c4573d6000803e3d6000fd5b505050505050565b600e546001600160a01b0316635cc77dd3600080516020615a7c8339815191526134f461394e565b6040516001600160e01b031960e085901b16815260048101929092526001600160a01b0316602482015260440160206040518083038186803b15801561353957600080fd5b505afa15801561354d573d6000803e3d6000fd5b505050506040513d601f19601f820116820180604052508101906135719190615584565b61358d5760405162461bcd60e51b8152600401610acd906157ea565b60008061359861394e565b6001600160a01b03811660009081526006602090815260408083206007835281842083528184208985529092528220548154939450919290919081106135e0576135e061599d565b600091825260208083206001600160a01b038681168552600a835260408086208b8752909352918420546004909302019350829116156136705750506001600160a01b038281166000818152600a602090815260408083208a845282528083208054948452600b83528184208b8552909252822080546001600160a01b03198516909255919091559116906136f1565b6001600160a01b0380851660008181526009602090815260408083208c845282528083205490941680835260068252848320600783528584209484529382528483208c8452909152929020548154929450909181106136d1576136d161599d565b60009182526020909120600360049092020101546001600160801b031690505b6001600160a01b03841660009081526008602052604081205461372490600160c01b90046001600160401b03168861583e565b90506000805b6001860154613743906001600160a01b0316888c613ac6565b91508061374f81615919565b600e5460018901546040516312a01dc960e21b81526001600160a01b03918216600482015260248101879052604481018e90529294508693501690634a8077249060640160206040518083038186803b1580156137ab57600080fd5b505afa1580156137bf573d6000803e3d6000fd5b505050506040513d601f19601f820116820180604052508101906137e391906155bf565b1080156137f1575060105481105b61372a5760105481146138f3576001600160a01b03871660009081526006602090815260408083206007835281842083528184208e8552909252909120548154811061383f5761383f61599d565b906000526020600020906004020160010160009054906101000a90046001600160a01b03169750600e60009054906101000a90046001600160a01b03166001600160a01b031663fe8f9dc2868a87868e6040518663ffffffff1660e01b81526004016138af95949392919061574a565b600060405180830381600087803b1580156138c957600080fd5b505af11580156138dd573d6000803e3d6000fd5b505050506138ee878b878b86614f08565b613942565b6001600160a01b038781166000818152600a602090815260408083208f8452825280832080546001600160a01b031916958b1695909517909455918152600b82528281208d8252909152208490555b50505050505050505050565b600033301415613965575060131936013560601c90565b503390565b60006001600160a01b0386166139d05760405162461bcd60e51b815260206004820152602560248201527f4e61746976654d6574615472616e73616374696f6e3a20494e56414c49445f5360448201526424a3a722a960d91b6064820152608401610acd565b60016139e36139de87614ffc565b615079565b6040805160008152602081018083529290925260ff851690820152606081018690526080810185905260a0016020604051602081039080840390855afa158015613a31573d6000803e3d6000fd5b505050602060405103516001600160a01b0316866001600160a01b031614905095945050505050565b60006001600160401b03821115613ac25760405162461bcd60e51b815260206004820152602660248201527f53616665436173743a2076616c756520646f65736e27742066697420696e203660448201526534206269747360d01b6064820152608401610acd565b5090565b6001600160a01b0380841660009081526006602090815260408083206007835281842094871684529382528083208584529091528120548254919283929091908110613b1457613b1461599d565b6000918252602080832060016004909302019182015460028301546001600160a01b03918216808652600684526040808720600786528188208c8616895286528188208b8952909552909520548354949650911692839291908110613b7b57613b7b61599d565b6000918252602080832060049290920290910160020180546001600160a01b0319166001600160a01b03948516179055838316825260068152604080832060078352818420948b1684529382528083208984529091529020548154849291908110613be857613be861599d565b6000918252602080832060049290920290910160010180546001600160a01b0319166001600160a01b03948516179055848316825260068152604080832060078352818420948b16845293825280832089845290915290205481548110613c5157613c5161599d565b60009182526020909120600491820201600390810154600e549186015460405163fd2a97fd60e01b81526001600160801b0392831698506001600160a01b039093169363fd2a97fd93613ca8938d931691016157b5565b600060405180830381600087803b158015613cc257600080fd5b505af1158015613cd6573d6000803e3d6000fd5b5050506001600160a01b038089166000818152600760209081526040808320948c1683529381528382208a83528152838220549282526006905291822054909250613d2390600190615897565b9050808214613e6c576001600160a01b0389166000908152600660205260409020805482908110613d5657613d5661599d565b9060005260206000209060040201600660008b6001600160a01b03166001600160a01b031681526020019081526020016000208381548110613d9a57613d9a61599d565b60009182526020909120825460049092020180546001600160a01b039283166001600160a01b031991821617825560018085015490830180549185169183169190911790556002808501805491840180549290951692821683178555546001600160e01b0319909116909117600160a01b918290046001600160401b0390811690920217909255600392830180549390910180546001600160801b039094166001600160801b031985168117825591546001600160c01b0319909416909117600160801b938490049092169092021790555b6001600160a01b0389166000908152600660205260409020805480613e9357613e93615987565b6000828152602080822060046000199094019384020180546001600160a01b0319908116825560018201805490911690556002810180546001600160e01b031916905560030180546001600160c01b0319169055919092556001600160a01b038b8116808452600783526040808520928d1685529183528184208b855283528184208490558352600690915290205415801590613f305750808214155b15613fef576001600160a01b03891660009081526007602090815260408083206006909252822080548593919084908110613f6d57613f6d61599d565b600091825260208083206004909202909101546001600160a01b0390811684528382019490945260409283018220938e16825260069052908120805486908110613fb957613fb961599d565b6000918252602080832060049290920290910160020154600160a01b90046001600160401b031683528201929092526040019020555b613ffa8989896113da565b156140075761400761595b565b86886001600160a01b03168a6001600160a01b03167ff3628ef5bc49bfe2baca189423a4f7a8157069684f81fcd206ab44018201078a60405160405180910390a450505050509392505050565b61405d82613a5a565b6001600160a01b038416600090815260086020526040902080546001600160401b0392909216600160401b026fffffffffffffffff0000000000000000199092169190911790556140ad81613a5a565b6001600160a01b03841660008181526008602090815260409182902080546001600160401b0395909516600160801b0267ffffffffffffffff60801b19909516949094179093558051639223d2df60e01b8152905161417193639223d2df9260048082019391829003018186803b15801561412757600080fd5b505afa15801561413b573d6000803e3d6000fd5b505050506040513d601f19601f8201168201806040525081019061415f91906155bf565b61416c9062015180615856565b613a5a565b6001600160a01b038416600090815260086020526040812080546001600160401b0393909316600160c01b026001600160c01b03909316929092179091555b82816001600160401b03161015612e35576141c9615345565b6001600160a01b038086168083526001600160401b038085166060850181815260408087018581526020808901878152600060808b0181815260a08c01898152998252600680855286832080546007875288852087528885209a85529986529683208990558452600180890187559582529290209951600490960290990180549589166001600160a01b0319968716178155985192890180549389169390951692909217909355915160028701805492518516600160a01b026001600160e01b03199093169190961617179093559151600390930180549151909216600160801b026001600160c01b03199091166001600160801b039390931692909217919091179055806142d781615934565b9150506141b0565b6001600160a01b03808716600090815260066020908152604080832060078352818420948a168452938252808320888452909152812054825491929181106143295761432961599d565b6000918252602080832060026004909302019182015460018301546001600160a01b039081168552600683526040808620600785528187208d8416885285528187208c88529094529094205482549395509316929091811061438d5761438d61599d565b600091825260208083206002600490930201820180546001600160a01b039586166001600160a01b031990911617905560018501549185015484168352600681526040808420600783528185208c8716865283528185208b865290925290922054825491909316929081106144045761440461599d565b6000918252602090912060049091020160010180546001600160a01b0319166001600160a01b039283161790556002820154878216911614614448838888886150a8565b60018201546001600160a01b03908116600090815260066020908152604080832060078352818420948e1684529382528083208c84529091528120548254939950939650929091811061449d5761449d61599d565b906000526020600020906004020190506144b6866152dc565b6003840180546001600160801b039283166001600160801b03198216179091551695506144e285613a5a565b6003840180546001600160401b0392909216600160801b0267ffffffffffffffff60801b199092169190911781556001858101805491860180546001600160a01b03199081166001600160a01b03948516179091556002858101805491890180548416928616929092179091558054938e16938216841790558154168217905590546013546040518a936001600160801b0390931692917f3a5344089910bf37045a7db5e1a71a856a9985b70c61664df433c2ef7ba7da19916145c2918b918f9092835260208301919091526001600160a01b0316604082015260600190565b60405180910390a4601380549060006145da83615919565b9091555050600e5460038401546040516399bfbf1d60e01b81526001600160a01b03909216916399bfbf1d9161461e918d916001600160801b0316906004016157b5565b600060405180830381600087803b15801561463857600080fd5b505af115801561464c573d6000803e3d6000fd5b5050600e5460405163fd2a97fd60e01b81526001600160a01b038d81166004830152602482018b9052909116925063fd2a97fd9150604401600060405180830381600087803b15801561469e57600080fd5b505af11580156146b2573d6000803e3d6000fd5b505050508180156146d2575060028301546001600160a01b038981169116145b156147725760038301546146f690899089908c9081906001600160801b0316614f08565b600e546003840154604051637f47cee160e11b81526001600160a01b039092169163fe8f9dc29161473b918d9182918c916001600160801b031690429060040161577b565b600060405180830381600087803b15801561475557600080fd5b505af1158015614769573d6000803e3d6000fd5b50505050614a24565b81801561478f575060028301546001600160a01b03898116911614155b156148ce576001600160a01b03881660009081526006602090815260408083206007835281842083528184208b8552909252822054815481106147d4576147d461599d565b60009182526020808320600160049093020191909101546001600160a01b0390811680845260068352604080852060078552818620938f1686529284528085208d8652909352918320548154929450909181106148335761483361599d565b6000918252602090912060049182020160030154600e54604051637f47cee160e11b81526001600160801b0390921693506001600160a01b03169163fe8f9dc291614888918f9187918e91889142910161574a565b600060405180830381600087803b1580156148a257600080fd5b505af11580156148b6573d6000803e3d6000fd5b505050506148c78a8a8d8585614f08565b5050614a24565b811580156148eb575060028301546001600160a01b038981169116145b15614a245760018301546001600160a01b03908116600081815260066020908152604080832060078352818420958e1684529482528083208c845290915281205483549293919281106149405761494061599d565b906000526020600020906004020160030160009054906101000a90046001600160801b03166001600160801b03169050600e60009054906101000a90046001600160a01b03166001600160a01b031663fe8f9dc2838d848960030160009054906101000a90046001600160801b0316426040518663ffffffff1660e01b81526004016149d095949392919061577b565b600060405180830381600087803b1580156149ea57600080fd5b505af11580156149fe573d6000803e3d6000fd5b5050506003860154614a2191508b908b9085908f906001600160801b0316614f08565b50505b505050505050505050565b6001600160a01b03808616600081815260096020908152604080832089845290915290205490911614614a6d57614a68818686866150a8565b935090505b60018101546001600160a01b03908116600090815260066020908152604080832060078352818420948a16845293825280832088845290915281205482549192918110614abc57614abc61599d565b90600052602060002090600402019050614ad4615345565b6001600160a01b0387168152614ae986613a5a565b6001600160401b0316606082015260028201546001600160a01b0390811660408301526001840154166020820152614b20856152dc565b6001600160801b03166080820152614b3784613a5a565b6001600160401b0390811660a08301908152600280850180546001600160a01b03808e166001600160a01b03199283168117909355600189810180548416851790556000848152600660209081526040808320805480860182558185528385208d516004909202018054918816918916919091178155928c0151838601805491881691909816179096558a0151968101805460608c01518b16600160a01b026001600160e01b03199091169890951697909717939093179095556080880151600390920180549651909716600160801b026001600160c01b03199096166001600160801b03909216919091179490941790945590529054614c389190615897565b6001600160a01b038981166000818152600760209081526040808320948d168084529482528083208c84528252918290209490945560135481518981529485015283019190915287918791907f3a5344089910bf37045a7db5e1a71a856a9985b70c61664df433c2ef7ba7da199060600160405180910390a460138054906000614cc183615919565b9091555050600e546040516399bfbf1d60e01b81526001600160a01b038a8116600483015260248201889052909116906399bfbf1d90604401600060405180830381600087803b158015614d1457600080fd5b505af1158015614d28573d6000803e3d6000fd5b505050506001600160a01b03888116600090815260066020908152604080832060078352818420948c168085529483528184208b85529092529091205481548110614d7557614d7561599d565b60009182526020909120600260049092020101546001600160a01b03161415614efe576001600160a01b03808916600090815260066020908152604080832060078352818420948c1684529382528083208a845290915281205482549192918110614de257614de261599d565b60009182526020909120600160049092020101546001600160a01b03169050614e0e8888838c8a614f08565b600e546001600160a01b038281166000908152600660209081526040808320600783528184208e8616855283528184208d8552909252909120548154929093169263fe8f9dc29285928e9290918110614e6957614e6961599d565b600091825260209091206004918202016003015460405160e086901b6001600160e01b03191681526001600160a01b03948516928101929092529190921660248301526001600160801b031660448201526064810189905242608482015260a401600060405180830381600087803b158015614ee457600080fd5b505af1158015614ef8573d6000803e3d6000fd5b50505050505b5050505050505050565b6001600160a01b038581166000818152600960209081526040808320898452825280832080546001600160a01b0319169588169586179055938252600681528382206007825284832093835292815283822088835290529182205481548110614f7357614f7361599d565b600091825260209091206004918202016003015460405163018260b560e21b8152600160801b9091046001600160401b0316925087916001600160a01b0383169163060982d491614fce91899189918c918a918a910161574a565b600060405180830381600087803b158015614fe857600080fd5b505af1158015614a21573d6000803e3d6000fd5b60006040518060800160405280604381526020016159ea604391398051602091820120835184830151604080870151805190860120905161505c950193845260208401929092526001600160a01b03166040830152606082015260800190565b604051602081830303815290604052805190602001209050919050565b6000615083610d43565b60405161190160f01b602082015260228101919091526042810183905260620161505c565b6001600160a01b0383811660008181526008602090815260408083205460018a015490951683526006825280832060078352818420948452938252808320878452909152812054825491938493600160801b9091046001600160401b03169284929081106151185761511861599d565b60009182526020822060049091020191506064615135848261583e565b600384015461514d91906001600160801b0316615878565b6151579190615856565b905060005b60038a01546001600160801b031687141580615185575060038301546001600160801b03168711155b801561519057508187105b801561519d5750600f5481105b156152485760018301546001600160a01b03908116600090815260066020908152604080832060078352818420948e1684529382528083208c84529091529020548154949b508b9481106151f3576151f361599d565b906000526020600020906004020192506064846064615212919061583e565b600385015461522a91906001600160801b0316615878565b6152349190615856565b91508061524081615919565b91505061515c565b600f54811061528e5760405162461bcd60e51b8152602060048201526012602482015271141bdcda5d1a5bdb881b9bdd08199bdd5b9960721b6044820152606401610acd565b60038a01546001600160801b0316158015906152b6575060038a01546001600160801b031687115b156152cc5760038a01546001600160801b031696505b5097989497509395505050505050565b60006001600160801b03821115613ac25760405162461bcd60e51b815260206004820152602760248201527f53616665436173743a2076616c756520646f65736e27742066697420696e20316044820152663238206269747360c81b6064820152608401610acd565b6040805160c081018252600080825260208201819052918101829052606081018290526080810182905260a081019190915290565b80356001600160a01b038116811461539157600080fd5b919050565b803560ff8116811461539157600080fd5b6000602082840312156153b957600080fd5b61117e8261537a565b6000806000606084860312156153d757600080fd5b6153e08461537a565b92506153ee6020850161537a565b9150604084013590509250925092565b600080600080600060a0868803121561541657600080fd5b61541f8661537a565b945060208601356001600160401b038082111561543b57600080fd5b818801915088601f83011261544f57600080fd5b813581811115615461576154616159b3565b604051601f8201601f19908116603f01168101908382118183101715615489576154896159b3565b816040528281528b60208487010111156154a257600080fd5b82602086016020830137600060208483010152809850505050505060408601359250606086013591506154d760808701615396565b90509295509295909350565b600080604083850312156154f657600080fd5b6154ff8361537a565b946020939093013593505050565b60008060006060848603121561552257600080fd5b61552b8461537a565b95602085013595506040909401359392505050565b600080600080600060a0868803121561555857600080fd5b6155618661537a565b94506020860135935060408601359250606086013591506154d76080870161537a565b60006020828403121561559657600080fd5b8151801515811461117e57600080fd5b6000602082840312156155b857600080fd5b5035919050565b6000602082840312156155d157600080fd5b5051919050565b600080604083850312156155eb57600080fd5b50508035926020909101359150565b600081518084526156128160208601602086016158d6565b601f01601f19169290920160200192915050565b600082516156388184602087016158d6565b9190910192915050565b600083516156548184602088016158d6565b60609390931b6bffffffffffffffffffffffff19169190920190815260140192915050565b600080835481600182811c91508083168061569557607f831692505b60208084108214156156b557634e487b7160e01b86526022600452602486fd5b8180156156c957600181146156da57615707565b60ff19861689528489019650615707565b60008a81526020902060005b868110156156ff5781548b8201529085019083016156e6565b505084890196505b509498975050505050505050565b6001600160a01b03848116825283166020820152606060408201819052600090615741908301846155fa565b95945050505050565b6001600160a01b03958616815293909416602084015260408301919091526060820152608081019190915260a00190565b6001600160a01b03958616815293909416602084015260408301919091526001600160801b03166060820152608081019190915260a00190565b6001600160a01b039290921682526001600160801b0316602082015260400190565b60208152600061117e60208301846155fa565b6020808252600e908201526d139bdd08185d5d1a1bdc9a5cd95960921b604082015260600190565b60208082526012908201527122bc3a3932b6b2b63c902b32b93137ba32b760711b604082015260600190565b6000821982111561585157615851615971565b500190565b60008261587357634e487b7160e01b600052601260045260246000fd5b500490565b600081600019048311821515161561589257615892615971565b500290565b6000828210156158a9576158a9615971565b500390565b60006001600160401b03838116908316818110156158ce576158ce615971565b039392505050565b60005b838110156158f15781810151838201526020016158d9565b83811115612e355750506000910152565b60008161591157615911615971565b506000190190565b600060001982141561592d5761592d615971565b5060010190565b60006001600160401b038083168181141561595157615951615971565b6001019392505050565b634e487b7160e01b600052600160045260246000fd5b634e487b7160e01b600052601160045260246000fd5b634e487b7160e01b600052603160045260246000fd5b634e487b7160e01b600052603260045260246000fd5b634e487b7160e01b600052604160045260246000fdfe52d1941cacb84b09158c2ca3fd9782d719422cf352918630ece583c0581f26354d6574615472616e73616374696f6e2875696e74323536206e6f6e63652c616464726573732066726f6d2c62797465732066756e6374696f6e5369676e617475726529454950373132446f6d61696e28737472696e67206e616d652c737472696e672076657273696f6e2c6164647265737320766572696679696e67436f6e74726163742c627974657333322073616c742923acc66832ff38a7ce3c1caf89922410f4374ba8fd897ffa98f088747997bc6da264697066735822122044d666f6a893e1c97d9e06439d7e69a70d537eb1ac42fb7f09d526e2784c596264736f6c63430008070033",
  "linkReferences": {},
  "deployedLinkReferences": {}
}