{
  "_format": "hh-sol-artifact-1",
  "contractName": "RCMarket",
  "sourceName": "contracts/RCMarket.sol",
  "abi": [
    {
      "anonymous": false,
      "inputs": [
        {
          "indexed": true,
          "internalType": "bool",
          "name": "didTheEventFinish",
          "type": "bool"
        }
      ],
      "name": "LogContractLocked",
      "type": "event"
    },
    {
      "anonymous": false,
      "inputs": [
        {
          "indexed": false,
          "internalType": "uint256",
          "name": "cardId",
          "type": "uint256"
        },
        {
          "indexed": false,
          "internalType": "address",
          "name": "longestOwner",
          "type": "address"
        }
      ],
      "name": "LogLongestOwner",
      "type": "event"
    },
    {
      "anonymous": false,
      "inputs": [
        {
          "indexed": true,
          "internalType": "uint256",
          "name": "cardId",
          "type": "uint256"
        },
        {
          "indexed": true,
          "internalType": "address",
          "name": "newOwner",
          "type": "address"
        }
      ],
      "name": "LogNewOwner",
      "type": "event"
    },
    {
      "anonymous": false,
      "inputs": [
        {
          "indexed": true,
          "internalType": "address",
          "name": "artistAddress",
          "type": "address"
        },
        {
          "indexed": false,
          "internalType": "address",
          "name": "marketCreatorAddress",
          "type": "address"
        },
        {
          "indexed": false,
          "internalType": "address",
          "name": "affiliateAddress",
          "type": "address"
        },
        {
          "indexed": false,
          "internalType": "address[]",
          "name": "cardAffiliateAddresses",
          "type": "address[]"
        },
        {
          "indexed": true,
          "internalType": "uint256",
          "name": "artistCut",
          "type": "uint256"
        },
        {
          "indexed": false,
          "internalType": "uint256",
          "name": "winnerCut",
          "type": "uint256"
        },
        {
          "indexed": false,
          "internalType": "uint256",
          "name": "creatorCut",
          "type": "uint256"
        },
        {
          "indexed": false,
          "internalType": "uint256",
          "name": "affiliateCut",
          "type": "uint256"
        },
        {
          "indexed": false,
          "internalType": "uint256",
          "name": "cardAffiliateCut",
          "type": "uint256"
        }
      ],
      "name": "LogPayoutDetails",
      "type": "event"
    },
    {
      "anonymous": false,
      "inputs": [
        {
          "indexed": true,
          "internalType": "address",
          "name": "marketAddress",
          "type": "address"
        },
        {
          "indexed": true,
          "internalType": "bytes32",
          "name": "questionId",
          "type": "bytes32"
        }
      ],
      "name": "LogQuestionPostedToOracle",
      "type": "event"
    },
    {
      "anonymous": false,
      "inputs": [
        {
          "indexed": false,
          "internalType": "uint256",
          "name": "rentCollected",
          "type": "uint256"
        },
        {
          "indexed": true,
          "internalType": "uint256",
          "name": "newTimeHeld",
          "type": "uint256"
        },
        {
          "indexed": true,
          "internalType": "uint256",
          "name": "cardId",
          "type": "uint256"
        },
        {
          "indexed": true,
          "internalType": "address",
          "name": "owner",
          "type": "address"
        }
      ],
      "name": "LogRentCollection",
      "type": "event"
    },
    {
      "anonymous": false,
      "inputs": [
        {
          "indexed": true,
          "internalType": "address",
          "name": "returnedTo",
          "type": "address"
        },
        {
          "indexed": true,
          "internalType": "uint256",
          "name": "amountReturned",
          "type": "uint256"
        }
      ],
      "name": "LogRentReturned",
      "type": "event"
    },
    {
      "anonymous": false,
      "inputs": [
        {
          "indexed": false,
          "internalType": "uint256",
          "name": "minRentalDayDivisor",
          "type": "uint256"
        },
        {
          "indexed": false,
          "internalType": "uint256",
          "name": "minimumPriceIncreasePercent",
          "type": "uint256"
        },
        {
          "indexed": false,
          "internalType": "uint256",
          "name": "nftsToAward",
          "type": "uint256"
        }
      ],
      "name": "LogSettings",
      "type": "event"
    },
    {
      "anonymous": false,
      "inputs": [
        {
          "indexed": true,
          "internalType": "address",
          "name": "sponsor",
          "type": "address"
        },
        {
          "indexed": true,
          "internalType": "uint256",
          "name": "amount",
          "type": "uint256"
        }
      ],
      "name": "LogSponsor",
      "type": "event"
    },
    {
      "anonymous": false,
      "inputs": [
        {
          "indexed": true,
          "internalType": "address",
          "name": "paidTo",
          "type": "address"
        },
        {
          "indexed": true,
          "internalType": "uint256",
          "name": "amountPaid",
          "type": "uint256"
        }
      ],
      "name": "LogStakeholderPaid",
      "type": "event"
    },
    {
      "anonymous": false,
      "inputs": [
        {
          "indexed": true,
          "internalType": "uint256",
          "name": "newState",
          "type": "uint256"
        }
      ],
      "name": "LogStateChange",
      "type": "event"
    },
    {
      "anonymous": false,
      "inputs": [
        {
          "indexed": true,
          "internalType": "address",
          "name": "owner",
          "type": "address"
        },
        {
          "indexed": false,
          "internalType": "uint256",
          "name": "newLimit",
          "type": "uint256"
        },
        {
          "indexed": false,
          "internalType": "uint256",
          "name": "cardId",
          "type": "uint256"
        }
      ],
      "name": "LogUpdateTimeHeldLimit",
      "type": "event"
    },
    {
      "anonymous": false,
      "inputs": [
        {
          "indexed": true,
          "internalType": "uint256",
          "name": "winningOutcome",
          "type": "uint256"
        }
      ],
      "name": "LogWinnerKnown",
      "type": "event"
    },
    {
      "anonymous": false,
      "inputs": [
        {
          "indexed": true,
          "internalType": "address",
          "name": "paidTo",
          "type": "address"
        },
        {
          "indexed": true,
          "internalType": "uint256",
          "name": "amountPaid",
          "type": "uint256"
        }
      ],
      "name": "LogWinningsPaid",
      "type": "event"
    },
    {
      "anonymous": false,
      "inputs": [
        {
          "indexed": false,
          "internalType": "address",
          "name": "userAddress",
          "type": "address"
        },
        {
          "indexed": false,
          "internalType": "address",
          "name": "relayerAddress",
          "type": "address"
        },
        {
          "indexed": false,
          "internalType": "bytes",
          "name": "functionSignature",
          "type": "bytes"
        }
      ],
      "name": "MetaTransactionExecuted",
      "type": "event"
    },
    {
      "inputs": [],
      "name": "MIN_RENTAL_VALUE",
      "outputs": [
        {
          "internalType": "uint256",
          "name": "",
          "type": "uint256"
        }
      ],
      "stateMutability": "view",
      "type": "function"
    },
    {
      "inputs": [],
      "name": "PER_MILLE",
      "outputs": [
        {
          "internalType": "uint256",
          "name": "",
          "type": "uint256"
        }
      ],
      "stateMutability": "view",
      "type": "function"
    },
    {
      "inputs": [],
      "name": "accountingComplete",
      "outputs": [
        {
          "internalType": "bool",
          "name": "",
          "type": "bool"
        }
      ],
      "stateMutability": "view",
      "type": "function"
    },
    {
      "inputs": [],
      "name": "affiliateAddress",
      "outputs": [
        {
          "internalType": "address",
          "name": "",
          "type": "address"
        }
      ],
      "stateMutability": "view",
      "type": "function"
    },
    {
      "inputs": [],
      "name": "affiliateCut",
      "outputs": [
        {
          "internalType": "uint256",
          "name": "",
          "type": "uint256"
        }
      ],
      "stateMutability": "view",
      "type": "function"
    },
    {
      "inputs": [],
      "name": "affiliatePaid",
      "outputs": [
        {
          "internalType": "bool",
          "name": "",
          "type": "bool"
        }
      ],
      "stateMutability": "view",
      "type": "function"
    },
    {
      "inputs": [],
      "name": "arbitrator",
      "outputs": [
        {
          "internalType": "address",
          "name": "",
          "type": "address"
        }
      ],
      "stateMutability": "view",
      "type": "function"
    },
    {
      "inputs": [],
      "name": "artistAddress",
      "outputs": [
        {
          "internalType": "address",
          "name": "",
          "type": "address"
        }
      ],
      "stateMutability": "view",
      "type": "function"
    },
    {
      "inputs": [],
      "name": "artistCut",
      "outputs": [
        {
          "internalType": "uint256",
          "name": "",
          "type": "uint256"
        }
      ],
      "stateMutability": "view",
      "type": "function"
    },
    {
      "inputs": [],
      "name": "artistPaid",
      "outputs": [
        {
          "internalType": "bool",
          "name": "",
          "type": "bool"
        }
      ],
      "stateMutability": "view",
      "type": "function"
    },
    {
      "inputs": [
        {
          "internalType": "uint256",
          "name": "",
          "type": "uint256"
        }
      ],
      "name": "card",
      "outputs": [
        {
          "internalType": "uint256",
          "name": "totalTimeHeld",
          "type": "uint256"
        },
        {
          "internalType": "uint256",
          "name": "timeLastCollected",
          "type": "uint256"
        },
        {
          "internalType": "address",
          "name": "longestOwner",
          "type": "address"
        },
        {
          "internalType": "uint256",
          "name": "cardTimeLimit",
          "type": "uint256"
        },
        {
          "internalType": "uint256",
          "name": "cardPrice",
          "type": "uint256"
        },
        {
          "internalType": "uint256",
          "name": "rentCollectedPerCard",
          "type": "uint256"
        },
        {
          "internalType": "bool",
          "name": "cardAffiliatePaid",
          "type": "bool"
        }
      ],
      "stateMutability": "view",
      "type": "function"
    },
    {
      "inputs": [],
      "name": "cardAccountingIndex",
      "outputs": [
        {
          "internalType": "uint256",
          "name": "",
          "type": "uint256"
        }
      ],
      "stateMutability": "view",
      "type": "function"
    },
    {
      "inputs": [
        {
          "internalType": "uint256",
          "name": "",
          "type": "uint256"
        }
      ],
      "name": "cardAffiliateAddresses",
      "outputs": [
        {
          "internalType": "address",
          "name": "",
          "type": "address"
        }
      ],
      "stateMutability": "view",
      "type": "function"
    },
    {
      "inputs": [],
      "name": "cardAffiliateCut",
      "outputs": [
        {
          "internalType": "uint256",
          "name": "",
          "type": "uint256"
        }
      ],
      "stateMutability": "view",
      "type": "function"
    },
    {
      "inputs": [],
      "name": "circuitBreaker",
      "outputs": [],
      "stateMutability": "nonpayable",
      "type": "function"
    },
    {
      "inputs": [
        {
          "internalType": "uint256",
          "name": "_card",
          "type": "uint256"
        }
      ],
      "name": "claimCard",
      "outputs": [],
      "stateMutability": "nonpayable",
      "type": "function"
    },
    {
      "inputs": [
        {
          "internalType": "uint256",
          "name": "_cardId",
          "type": "uint256"
        }
      ],
      "name": "collectRent",
      "outputs": [
        {
          "internalType": "bool",
          "name": "",
          "type": "bool"
        }
      ],
      "stateMutability": "nonpayable",
      "type": "function"
    },
    {
      "inputs": [],
      "name": "creatorCut",
      "outputs": [
        {
          "internalType": "uint256",
          "name": "",
          "type": "uint256"
        }
      ],
      "stateMutability": "view",
      "type": "function"
    },
    {
      "inputs": [],
      "name": "creatorPaid",
      "outputs": [
        {
          "internalType": "bool",
          "name": "",
          "type": "bool"
        }
      ],
      "stateMutability": "view",
      "type": "function"
    },
    {
      "inputs": [
        {
          "internalType": "address",
          "name": "userAddress",
          "type": "address"
        },
        {
          "internalType": "bytes",
          "name": "functionSignature",
          "type": "bytes"
        },
        {
          "internalType": "bytes32",
          "name": "sigR",
          "type": "bytes32"
        },
        {
          "internalType": "bytes32",
          "name": "sigS",
          "type": "bytes32"
        },
        {
          "internalType": "uint8",
          "name": "sigV",
          "type": "uint8"
        }
      ],
      "name": "executeMetaTransaction",
      "outputs": [
        {
          "internalType": "bytes",
          "name": "",
          "type": "bytes"
        }
      ],
      "stateMutability": "payable",
      "type": "function"
    },
    {
      "inputs": [
        {
          "internalType": "uint256",
          "name": "_card",
          "type": "uint256"
        }
      ],
      "name": "exit",
      "outputs": [],
      "stateMutability": "nonpayable",
      "type": "function"
    },
    {
      "inputs": [],
      "name": "exitAll",
      "outputs": [],
      "stateMutability": "nonpayable",
      "type": "function"
    },
    {
      "inputs": [
        {
          "internalType": "address",
          "name": "",
          "type": "address"
        }
      ],
      "name": "exitedTimestamp",
      "outputs": [
        {
          "internalType": "uint256",
          "name": "",
          "type": "uint256"
        }
      ],
      "stateMutability": "view",
      "type": "function"
    },
    {
      "inputs": [],
      "name": "factory",
      "outputs": [
        {
          "internalType": "contract IRCFactory",
          "name": "",
          "type": "address"
        }
      ],
      "stateMutability": "view",
      "type": "function"
    },
    {
      "inputs": [],
      "name": "getChainId",
      "outputs": [
        {
          "internalType": "uint256",
          "name": "",
          "type": "uint256"
        }
      ],
      "stateMutability": "view",
      "type": "function"
    },
    {
      "inputs": [],
      "name": "getDomainSeperator",
      "outputs": [
        {
          "internalType": "bytes32",
          "name": "",
          "type": "bytes32"
        }
      ],
      "stateMutability": "view",
      "type": "function"
    },
    {
      "inputs": [],
      "name": "getMarketInfo",
      "outputs": [
        {
          "internalType": "enum IRCMarket.States",
          "name": "",
          "type": "uint8"
        },
        {
          "internalType": "string",
          "name": "",
          "type": "string"
        },
        {
          "internalType": "uint256",
          "name": "",
          "type": "uint256"
        },
        {
          "internalType": "uint256",
          "name": "",
          "type": "uint256"
        },
        {
          "internalType": "address[]",
          "name": "",
          "type": "address[]"
        },
        {
          "internalType": "uint256[]",
          "name": "",
          "type": "uint256[]"
        }
      ],
      "stateMutability": "view",
      "type": "function"
    },
    {
      "inputs": [
        {
          "internalType": "address",
          "name": "user",
          "type": "address"
        }
      ],
      "name": "getNonce",
      "outputs": [
        {
          "internalType": "uint256",
          "name": "nonce",
          "type": "uint256"
        }
      ],
      "stateMutability": "view",
      "type": "function"
    },
    {
      "inputs": [
        {
          "internalType": "uint256",
          "name": "_card",
          "type": "uint256"
        }
      ],
      "name": "getTokenId",
      "outputs": [
        {
          "internalType": "uint256",
          "name": "_tokenId",
          "type": "uint256"
        }
      ],
      "stateMutability": "view",
      "type": "function"
    },
    {
      "inputs": [],
      "name": "getWinnerFromOracle",
      "outputs": [],
      "stateMutability": "nonpayable",
      "type": "function"
    },
    {
      "inputs": [
        {
          "internalType": "enum IRCMarket.Mode",
          "name": "_mode",
          "type": "uint8"
        },
        {
          "internalType": "uint32[]",
          "name": "_timestamps",
          "type": "uint32[]"
        },
        {
          "internalType": "uint256",
          "name": "_numberOfCards",
          "type": "uint256"
        },
        {
          "internalType": "address",
          "name": "_artistAddress",
          "type": "address"
        },
        {
          "internalType": "address",
          "name": "_affiliateAddress",
          "type": "address"
        },
        {
          "internalType": "address[]",
          "name": "_cardAffiliateAddresses",
          "type": "address[]"
        },
        {
          "internalType": "address",
          "name": "_marketCreatorAddress",
          "type": "address"
        },
        {
          "internalType": "string",
          "name": "_realitioQuestion",
          "type": "string"
        },
        {
          "internalType": "uint256",
          "name": "_nftsToAward",
          "type": "uint256"
        }
      ],
      "name": "initialize",
      "outputs": [],
      "stateMutability": "nonpayable",
      "type": "function"
    },
    {
      "inputs": [],
      "name": "isFinalized",
      "outputs": [
        {
          "internalType": "bool",
          "name": "",
          "type": "bool"
        }
      ],
      "stateMutability": "view",
      "type": "function"
    },
    {
      "inputs": [],
      "name": "isMarket",
      "outputs": [
        {
          "internalType": "bool",
          "name": "",
          "type": "bool"
        }
      ],
      "stateMutability": "view",
      "type": "function"
    },
    {
      "inputs": [],
      "name": "leaderboard",
      "outputs": [
        {
          "internalType": "contract IRCLeaderboard",
          "name": "",
          "type": "address"
        }
      ],
      "stateMutability": "view",
      "type": "function"
    },
    {
      "inputs": [],
      "name": "lockMarket",
      "outputs": [],
      "stateMutability": "nonpayable",
      "type": "function"
    },
    {
      "inputs": [
        {
          "internalType": "uint256",
          "name": "_card",
          "type": "uint256"
        }
      ],
      "name": "longestOwner",
      "outputs": [
        {
          "internalType": "address",
          "name": "",
          "type": "address"
        }
      ],
      "stateMutability": "view",
      "type": "function"
    },
    {
      "inputs": [],
      "name": "marketCreatorAddress",
      "outputs": [
        {
          "internalType": "address",
          "name": "",
          "type": "address"
        }
      ],
      "stateMutability": "view",
      "type": "function"
    },
    {
      "inputs": [],
      "name": "marketLockingTime",
      "outputs": [
        {
          "internalType": "uint32",
          "name": "",
          "type": "uint32"
        }
      ],
      "stateMutability": "view",
      "type": "function"
    },
    {
      "inputs": [],
      "name": "marketOpeningTime",
      "outputs": [
        {
          "internalType": "uint32",
          "name": "",
          "type": "uint32"
        }
      ],
      "stateMutability": "view",
      "type": "function"
    },
    {
      "inputs": [],
      "name": "maxRentIterations",
      "outputs": [
        {
          "internalType": "uint256",
          "name": "",
          "type": "uint256"
        }
      ],
      "stateMutability": "view",
      "type": "function"
    },
    {
      "inputs": [],
      "name": "maxRentIterationsToLockMarket",
      "outputs": [
        {
          "internalType": "uint256",
          "name": "",
          "type": "uint256"
        }
      ],
      "stateMutability": "view",
      "type": "function"
    },
    {
      "inputs": [],
      "name": "minRentalDayDivisor",
      "outputs": [
        {
          "internalType": "uint256",
          "name": "",
          "type": "uint256"
        }
      ],
      "stateMutability": "view",
      "type": "function"
    },
    {
      "inputs": [],
      "name": "minimumPriceIncreasePercent",
      "outputs": [
        {
          "internalType": "uint256",
          "name": "",
          "type": "uint256"
        }
      ],
      "stateMutability": "view",
      "type": "function"
    },
    {
      "inputs": [],
      "name": "mode",
      "outputs": [
        {
          "internalType": "enum IRCMarket.Mode",
          "name": "",
          "type": "uint8"
        }
      ],
      "stateMutability": "view",
      "type": "function"
    },
    {
      "inputs": [
        {
          "internalType": "uint256",
          "name": "_newPrice",
          "type": "uint256"
        },
        {
          "internalType": "uint256",
          "name": "_timeHeldLimit",
          "type": "uint256"
        },
        {
          "internalType": "address",
          "name": "_startingPosition",
          "type": "address"
        },
        {
          "internalType": "uint256",
          "name": "_card",
          "type": "uint256"
        }
      ],
      "name": "newRental",
      "outputs": [],
      "stateMutability": "nonpayable",
      "type": "function"
    },
    {
      "inputs": [],
      "name": "nfthub",
      "outputs": [
        {
          "internalType": "contract IRCNftHubL2",
          "name": "",
          "type": "address"
        }
      ],
      "stateMutability": "view",
      "type": "function"
    },
    {
      "inputs": [],
      "name": "nftsToAward",
      "outputs": [
        {
          "internalType": "uint256",
          "name": "",
          "type": "uint256"
        }
      ],
      "stateMutability": "view",
      "type": "function"
    },
    {
      "inputs": [],
      "name": "numberOfCards",
      "outputs": [
        {
          "internalType": "uint256",
          "name": "",
          "type": "uint256"
        }
      ],
      "stateMutability": "view",
      "type": "function"
    },
    {
      "inputs": [],
      "name": "oracleResolutionTime",
      "outputs": [
        {
          "internalType": "uint32",
          "name": "",
          "type": "uint32"
        }
      ],
      "stateMutability": "view",
      "type": "function"
    },
    {
      "inputs": [],
      "name": "orderbook",
      "outputs": [
        {
          "internalType": "contract IRCOrderbook",
          "name": "",
          "type": "address"
        }
      ],
      "stateMutability": "view",
      "type": "function"
    },
    {
      "inputs": [
        {
          "internalType": "uint256",
          "name": "_cardId",
          "type": "uint256"
        }
      ],
      "name": "ownerOf",
      "outputs": [
        {
          "internalType": "address",
          "name": "",
          "type": "address"
        }
      ],
      "stateMutability": "view",
      "type": "function"
    },
    {
      "inputs": [],
      "name": "payAffiliate",
      "outputs": [],
      "stateMutability": "nonpayable",
      "type": "function"
    },
    {
      "inputs": [],
      "name": "payArtist",
      "outputs": [],
      "stateMutability": "nonpayable",
      "type": "function"
    },
    {
      "inputs": [
        {
          "internalType": "uint256",
          "name": "_card",
          "type": "uint256"
        }
      ],
      "name": "payCardAffiliate",
      "outputs": [],
      "stateMutability": "nonpayable",
      "type": "function"
    },
    {
      "inputs": [],
      "name": "payMarketCreator",
      "outputs": [],
      "stateMutability": "nonpayable",
      "type": "function"
    },
    {
      "inputs": [],
      "name": "questionId",
      "outputs": [
        {
          "internalType": "bytes32",
          "name": "",
          "type": "bytes32"
        }
      ],
      "stateMutability": "view",
      "type": "function"
    },
    {
      "inputs": [],
      "name": "realitio",
      "outputs": [
        {
          "internalType": "contract IRealitio",
          "name": "",
          "type": "address"
        }
      ],
      "stateMutability": "view",
      "type": "function"
    },
    {
      "inputs": [
        {
          "internalType": "uint256",
          "name": "_maxSumOfPrices",
          "type": "uint256"
        }
      ],
      "name": "rentAllCards",
      "outputs": [],
      "stateMutability": "nonpayable",
      "type": "function"
    },
    {
      "inputs": [
        {
          "internalType": "address",
          "name": "",
          "type": "address"
        }
      ],
      "name": "rentCollectedPerUser",
      "outputs": [
        {
          "internalType": "uint256",
          "name": "",
          "type": "uint256"
        }
      ],
      "stateMutability": "view",
      "type": "function"
    },
    {
      "inputs": [
        {
          "internalType": "address",
          "name": "",
          "type": "address"
        },
        {
          "internalType": "uint256",
          "name": "",
          "type": "uint256"
        }
      ],
      "name": "rentCollectedPerUserPerCard",
      "outputs": [
        {
          "internalType": "uint256",
          "name": "",
          "type": "uint256"
        }
      ],
      "stateMutability": "view",
      "type": "function"
    },
    {
      "inputs": [
        {
          "internalType": "uint256",
          "name": "_winningOutcome",
          "type": "uint256"
        }
      ],
      "name": "setAmicableResolution",
      "outputs": [],
      "stateMutability": "nonpayable",
      "type": "function"
    },
    {
      "inputs": [
        {
          "internalType": "address",
          "name": "_sponsorAddress",
          "type": "address"
        },
        {
          "internalType": "uint256",
          "name": "_amount",
          "type": "uint256"
        }
      ],
      "name": "sponsor",
      "outputs": [],
      "stateMutability": "nonpayable",
      "type": "function"
    },
    {
      "inputs": [
        {
          "internalType": "uint256",
          "name": "_amount",
          "type": "uint256"
        }
      ],
      "name": "sponsor",
      "outputs": [],
      "stateMutability": "nonpayable",
      "type": "function"
    },
    {
      "inputs": [],
      "name": "state",
      "outputs": [
        {
          "internalType": "enum IRCMarket.States",
          "name": "",
          "type": "uint8"
        }
      ],
      "stateMutability": "view",
      "type": "function"
    },
    {
      "inputs": [
        {
          "internalType": "uint256",
          "name": "_card",
          "type": "uint256"
        },
        {
          "internalType": "address",
          "name": "_user",
          "type": "address"
        }
      ],
      "name": "timeHeld",
      "outputs": [
        {
          "internalType": "uint256",
          "name": "",
          "type": "uint256"
        }
      ],
      "stateMutability": "view",
      "type": "function"
    },
    {
      "inputs": [
        {
          "internalType": "uint256",
          "name": "_card",
          "type": "uint256"
        }
      ],
      "name": "timeLastCollected",
      "outputs": [
        {
          "internalType": "uint256",
          "name": "",
          "type": "uint256"
        }
      ],
      "stateMutability": "view",
      "type": "function"
    },
    {
      "inputs": [],
      "name": "timeout",
      "outputs": [
        {
          "internalType": "uint32",
          "name": "",
          "type": "uint32"
        }
      ],
      "stateMutability": "view",
      "type": "function"
    },
    {
      "inputs": [
        {
          "internalType": "uint256",
          "name": "",
          "type": "uint256"
        }
      ],
      "name": "tokenIds",
      "outputs": [
        {
          "internalType": "uint256",
          "name": "",
          "type": "uint256"
        }
      ],
      "stateMutability": "view",
      "type": "function"
    },
    {
      "inputs": [],
      "name": "totalRentCollected",
      "outputs": [
        {
          "internalType": "uint256",
          "name": "",
          "type": "uint256"
        }
      ],
      "stateMutability": "view",
      "type": "function"
    },
    {
      "inputs": [
        {
          "internalType": "address",
          "name": "_from",
          "type": "address"
        },
        {
          "internalType": "address",
          "name": "_to",
          "type": "address"
        },
        {
          "internalType": "uint256",
          "name": "_cardId",
          "type": "uint256"
        },
        {
          "internalType": "uint256",
          "name": "_price",
          "type": "uint256"
        },
        {
          "internalType": "uint256",
          "name": "_timeLimit",
          "type": "uint256"
        }
      ],
      "name": "transferCard",
      "outputs": [],
      "stateMutability": "nonpayable",
      "type": "function"
    },
    {
      "inputs": [],
      "name": "treasury",
      "outputs": [
        {
          "internalType": "contract IRCTreasury",
          "name": "",
          "type": "address"
        }
      ],
      "stateMutability": "view",
      "type": "function"
    },
    {
      "inputs": [
        {
          "internalType": "uint256",
          "name": "_timeHeldLimit",
          "type": "uint256"
        },
        {
          "internalType": "uint256",
          "name": "_card",
          "type": "uint256"
        }
      ],
      "name": "updateTimeHeldLimit",
      "outputs": [],
      "stateMutability": "nonpayable",
      "type": "function"
    },
    {
      "inputs": [
        {
          "internalType": "address",
          "name": "",
          "type": "address"
        }
      ],
      "name": "userAlreadyWithdrawn",
      "outputs": [
        {
          "internalType": "bool",
          "name": "",
          "type": "bool"
        }
      ],
      "stateMutability": "view",
      "type": "function"
    },
    {
      "inputs": [],
      "name": "winnerCut",
      "outputs": [
        {
          "internalType": "uint256",
          "name": "",
          "type": "uint256"
        }
      ],
      "stateMutability": "view",
      "type": "function"
    },
    {
      "inputs": [],
      "name": "winningOutcome",
      "outputs": [
        {
          "internalType": "uint256",
          "name": "",
          "type": "uint256"
        }
      ],
      "stateMutability": "view",
      "type": "function"
    },
    {
      "inputs": [],
      "name": "withdraw",
      "outputs": [],
      "stateMutability": "nonpayable",
      "type": "function"
    }
  ],
  "bytecode": "0x608060405234801561001057600080fd5b50615f5d80620000216000396000f3fe6080604052600436106104475760003560e01c80638662085011610234578063bc8802a21161012e578063d58778d6116100b6578063ec80a92c1161007a578063ec80a92c14610d8d578063ef7cfb9914610da2578063f63655d314610dbc578063f77a626b14610dd2578063fd7b771114610df257600080fd5b8063d58778d614610ced578063d7eb3f3a14610d0d578063db4e116b14610d2d578063e5f1923e14610d4d578063eb56b74014610d6d57600080fd5b8063c19d93fb116100fd578063c19d93fb14610c61578063c45a015514610c88578063c8aeff3914610ca8578063ccb3185214610cbd578063cd4399f114610cd757600080fd5b8063bc8802a214610b50578063bf70d21d14610b70578063bfcfd9b914610b94578063c18b1d5e14610c4157600080fd5b80639b34ae03116101bc578063af1915ff11610180578063af1915ff14610ace578063b06a5c5214610ae4578063b4d73fc814610afa578063b6cce5e214610b1a578063bba5674414610b3a57600080fd5b80639b34ae0314610a43578063a210c6a914610a59578063a2ba2bb314610a73578063a7150e6a14610a93578063ac76260e14610aa957600080fd5b806391cef6a81161020357806391cef6a8146109d75780639223d2df146109ec578063923573ce14610a0257806395dd1d0d14610a185780639925279a14610a2e57600080fd5b806386620850146109525780638c995e44146109725780638cb68899146109925780638d4e4083146109c257600080fd5b80634b8755ca11610345578063658f6124116102cd57806378e1cfc31161029157806378e1cfc3146108d05780637f8661a1146108e65780637f9017f81461090657806381efd70814610926578063858435a91461093c57600080fd5b8063658f61241461081f57806366434796146108575780636cc6cde11461087757806370dea79a14610897578063734c8f80146108bb57600080fd5b80635b6c508c116103145780635b6c508c1461079a5780635bfc0700146107af57806361d027b3146107c557806362631107146107e55780636352211e146107ff57600080fd5b80634b8755ca146106f35780634e76e57c1461072c5780634ecc79f71461074457806356a3467a1461076157600080fd5b8063283a9109116103d35780633986192d116103975780633986192d146106655780633c73e3591461067a5780633ccfd60b146106b25780634ad6f0b7146106c75780634ae4e2b3146106dd57600080fd5b8063283a910914610596578063295a5212146105c35780632d0335ab146105ef57806331662e87146106255780633408e4701461065257600080fd5b806316efd9411161041a57806316efd941146104e557806320379ee5146104fa57806323341a051461050f578063237b5e4f14610536578063237e53741461055657600080fd5b8063060982d41461044c5780630c53c51c1461046e5780630da400cf1461049757806314ff5ea3146104b7575b600080fd5b34801561045857600080fd5b5061046c610467366004615499565b610e12565b005b61048161047c3660046154ea565b610ec0565b60405161048e9190615aef565b60405180910390f35b3480156104a357600080fd5b5061046c6104b2366004615836565b6110aa565b3480156104c357600080fd5b506104d76104d2366004615836565b6111e2565b60405190815260200161048e565b3480156104f157600080fd5b5061046c61121b565b34801561050657600080fd5b506104d7611341565b34801561051b57600080fd5b506105246113fb565b60405161048e96959493929190615b2a565b34801561054257600080fd5b506104d761055136600461584f565b6115bb565b34801561056257600080fd5b5061058661057136600461545f565b601b6020526000908152604090205460ff1681565b604051901515815260200161048e565b3480156105a257600080fd5b506104d76105b136600461545f565b60136020526000908152604090205481565b3480156105cf57600080fd5b506007546105e290610100900460ff1681565b60405161048e9190615b02565b3480156105fb57600080fd5b506104d761060a36600461545f565b6001600160a01b031660009081526005602052604090205490565b34801561063157600080fd5b506104d761064036600461545f565b60106020526000908152604090205481565b34801561065e57600080fd5b50466104d7565b34801561067157600080fd5b5061046c6115e5565b34801561068657600080fd5b50600c5461069a906001600160a01b031681565b6040516001600160a01b03909116815260200161048e565b3480156106be57600080fd5b5061046c611715565b3480156106d357600080fd5b506104d760145481565b3480156106e957600080fd5b506104d760165481565b3480156106ff57600080fd5b5060195461071790600160201b900463ffffffff1681565b60405163ffffffff909116815260200161048e565b34801561073857600080fd5b506104d763016e360081565b34801561075057600080fd5b506019546107179063ffffffff1681565b34801561076d57600080fd5b5061069a61077c366004615836565b6000908152601860205260409020600301546001600160a01b031690565b3480156107a657600080fd5b5061046c6117ec565b3480156107bb57600080fd5b506104d760085481565b3480156107d157600080fd5b50600a5461069a906001600160a01b031681565b3480156107f157600080fd5b506020546105869060ff1681565b34801561080b57600080fd5b5061069a61081a366004615836565b611814565b34801561082b57600080fd5b506104d761083a36600461559c565b601160209081526000928352604080842090915290825290205481565b34801561086357600080fd5b50610586610872366004615836565b611906565b34801561088357600080fd5b50602a5461069a906001600160a01b031681565b3480156108a357600080fd5b50602a5461071790600160a01b900463ffffffff1681565b3480156108c757600080fd5b5061046c61193a565b3480156108dc57600080fd5b506104d760275481565b3480156108f257600080fd5b5061046c610901366004615836565b6119b3565b34801561091257600080fd5b5061046c6109213660046158a1565b611c1a565b34801561093257600080fd5b506104d760065481565b34801561094857600080fd5b506104d760175481565b34801561095e57600080fd5b5061046c61096d36600461587f565b612677565b34801561097e57600080fd5b5061046c61098d36600461559c565b61279a565b34801561099e57600080fd5b506104d76109ad366004615836565b60009081526018602052604090206002015490565b3480156109ce57600080fd5b506105866127cf565b3480156109e357600080fd5b5061046c612859565b3480156109f857600080fd5b506104d760155481565b348015610a0e57600080fd5b506104d76103e881565b348015610a2457600080fd5b506104d7601f5481565b348015610a3a57600080fd5b5061046c6128db565b348015610a4f57600080fd5b506104d7601a5481565b348015610a6557600080fd5b506024546105869060ff1681565b348015610a7f57600080fd5b5061046c610a8e366004615836565b612b3b565b348015610a9f57600080fd5b506104d760215481565b348015610ab557600080fd5b50601e5461069a9061010090046001600160a01b031681565b348015610ada57600080fd5b506104d760235481565b348015610af057600080fd5b506104d760295481565b348015610b0657600080fd5b5061046c610b153660046156d6565b612e24565b348015610b2657600080fd5b5061046c610b35366004615836565b61382c565b348015610b4657600080fd5b506104d760265481565b348015610b5c57600080fd5b50600f5461069a906001600160a01b031681565b348015610b7c57600080fd5b5060195461071790600160401b900463ffffffff1681565b348015610ba057600080fd5b50610bfc610baf366004615836565b6018602052600090815260409020600181015460028201546003830154600484015460058501546006860154600890960154949593946001600160a01b0390931693919290919060ff1687565b6040805197885260208801969096526001600160a01b03909416948601949094526060850191909152608084015260a0830191909152151560c082015260e00161048e565b348015610c4d57600080fd5b50600d5461069a906001600160a01b031681565b348015610c6d57600080fd5b50600754610c7b9060ff1681565b60405161048e9190615b1c565b348015610c9457600080fd5b50600b5461069a906001600160a01b031681565b348015610cb457600080fd5b50610586600181565b348015610cc957600080fd5b50601e546105869060ff1681565b348015610ce357600080fd5b506104d760125481565b348015610cf957600080fd5b506104d7610d08366004615836565b613842565b348015610d1957600080fd5b50601c5461069a906001600160a01b031681565b348015610d3957600080fd5b5061046c610d48366004615836565b613863565b348015610d5957600080fd5b5061069a610d68366004615836565b613960565b348015610d7957600080fd5b50600e5461069a906001600160a01b031681565b348015610d9957600080fd5b5061046c61398a565b348015610dae57600080fd5b506028546105869060ff1681565b348015610dc857600080fd5b506104d7601d5481565b348015610dde57600080fd5b5060225461069a906001600160a01b031681565b348015610dfe57600080fd5b5061046c610e0d366004615836565b613a51565b600d546001600160a01b0316610e26613bdf565b6001600160a01b031614610e715760405162461bcd60e51b815260206004820152600d60248201526c4e6f74206f72646572626f6f6b60981b60448201526064015b60405180910390fd5b610e7b6001613bfb565b846001600160a01b0316846001600160a01b031614610e9f57610e9f858585613c63565b60009283526018602052604090922060048101929092556005909101555050565b60408051606081810183526001600160a01b03881660008181526005602090815290859020548452830152918101869052610efe8782878787613d86565b610f545760405162461bcd60e51b815260206004820152602160248201527f5369676e657220616e64207369676e617475726520646f206e6f74206d6174636044820152600d60fb1b6064820152608401610e68565b6001600160a01b038716600090815260056020526040902054610f78906001615d0e565b6001600160a01b0388166000908152600560205260409081902091909155517f5845892132946850460bff5a0083f71031bc5bf9aadcd40f1de79423eac9b10b90610fc890899033908a90615ac3565b60405180910390a1600080306001600160a01b0316888a604051602001610ff092919061593c565b60408051601f198184030181529082905261100a91615920565b6000604051808303816000865af19150503d8060008114611047576040519150601f19603f3d011682016040523d82523d6000602084013e61104c565b606091505b50915091508161109e5760405162461bcd60e51b815260206004820152601c60248201527f46756e6374696f6e2063616c6c206e6f74207375636365737366756c000000006044820152606401610e68565b98975050505050505050565b6110b46003613bfb565b60008181526018602052604090206008015460ff16156111165760405162461bcd60e51b815260206004820152601b60248201527f4361726420616666696c6961746520616c7265616479207061696400000000006044820152606401610e68565b600081815260186020526040812060088101805460ff191660011790556026546006909101546103e89161114991615d48565b6111539190615d26565b905080156111de5761118c6025838154811061117157611171615e42565b6000918252602090912001546001600160a01b031682613e76565b80602583815481106111a0576111a0615e42565b60009182526020822001546040516001600160a01b03909116917fc9816216464657caa72de82ef94b3518b977959dfd512587c16d9f5bab436d9891a35b5050565b60006111ed82613efc565b6111f657600080fd5b6009828154811061120957611209615e42565b90600052602060002001549050919050565b60195461123890600160401b900463ffffffff16626ebe00615d0e565b42116112725760405162461bcd60e51b8152602060048201526009602482015268546f6f206561726c7960b81b6044820152606401610e68565b6007805460ff19166003179055600d5460408051636288f6af60e11b815290516001600160a01b039092169163c511ed5e916004808201926020929091908290030181600087803b1580156112c657600080fd5b505af11580156112da573d6000803e3d6000fd5b505050506040513d601f19601f820116820180604052508101906112fe919061564e565b5060075460ff16600381111561131657611316615e2c565b6040517f6f6deafb808434bfa1de21c54aee70c39987521b0084dbcf9f1f4af074f37aac90600090a2565b600060025461134d4690565b141561135a575060015490565b6040518060800160405280604f8152602001615ed9604f91398051906020012060036040516113899190615973565b604051809103902060046040516113a09190615973565b6040518091039020306113b04690565b60408051602081019690965285019390935260608401919091526001600160a01b0316608083015260a082015260c00160405160208183030381529060405280519060200120905090565b60006060600080606080600060065467ffffffffffffffff81111561142257611422615e58565b60405190808252806020026020018201604052801561144b578160200160208202803683370190505b509050600060065467ffffffffffffffff81111561146b5761146b615e58565b604051908082528060200260200182016040528015611494578160200160208202803683370190505b50905060005b600654811015611519576114ad81611814565b8382815181106114bf576114bf615e42565b6001600160a01b0390921660209283029190910182015260008281526018909152604090206005015482518390839081106114fc576114fc615e42565b60209081029190910101528061151181615de5565b91505061149a565b50600754600b5460405163ca4bc9eb60e01b815230600482015260ff909216916001600160a01b039091169063ca4bc9eb9060240160006040518083038186803b15801561156657600080fd5b505afa15801561157a573d6000803e3d6000fd5b505050506040513d6000823e601f3d908101601f191682016040526115a291908101906157bf565b601a54601254929b919a50985090965091945092509050565b60008281526018602090815260408083206001600160a01b03851684529091529020545b92915050565b6115ed6127cf565b6116305760405162461bcd60e51b815260206004820152601460248201527313dc9858db19481b9bdd08199a5b985b1a5cd95960621b6044820152606401610e68565b60195442600160201b90910463ffffffff1611156116865760405162461bcd60e51b815260206004820152601360248201527213585c9ad95d081b9bdd08199a5b9a5cda1959606a1b6044820152606401610e68565b600f5460295460405163684e62bf60e11b815260048101919091526000916001600160a01b03169063d09cc57e9060240160206040518083038186803b1580156116cf57600080fd5b505afa1580156116e3573d6000803e3d6000fd5b505050506040513d601f19601f820116820180604052508101906117079190615670565b905061171281613f28565b50565b61171f6003613bfb565b601b600061172b613bdf565b6001600160a01b0316815260208101919091526040016000205460ff16156117895760405162461bcd60e51b815260206004820152601160248201527020b63932b0b23c903bb4ba34323930bbb760791b6044820152606401610e68565b6001601b6000611797613bdf565b6001600160a01b0316815260208082019290925260409081016000908120805460ff191694151594909417909355601a5483526018909152902060010154156117e4576117e261400e565b565b6117e26142a5565b60005b60065481101561171257611802816119b3565b8061180c81615de5565b9150506117ef565b6000600654821061185d5760405162461bcd60e51b815260206004820152601360248201527210d85c9908191bd95cc81b9bdd08195e1a5cdd606a1b6044820152606401610e68565b61186682613efc565b156118fa576000611876836111e2565b600c546040516331a9108f60e11b8152600481018390529192506001600160a01b031690636352211e9060240160206040518083038186803b1580156118bb57600080fd5b505afa1580156118cf573d6000803e3d6000fd5b505050506040513d601f19601f820116820180604052508101906118f3919061547c565b9392505050565b5030919050565b919050565b60006119126001613bfb565b600061191f8360006143b2565b50905080156119315750600192915050565b50600092915050565b6119446003613bfb565b601e5460ff161561198d5760405162461bcd60e51b8152602060048201526013602482015272105c9d1a5cdd08185b1c9958591e481c185a59606a1b6044820152606401610e68565b601e805460ff19166001179055601d54601c546117e291906001600160a01b03166143f6565b6119bd6001613bfb565b60006119c7613bdf565b90506119d48260006143b2565b5050806001600160a01b03166119e983611814565b6001600160a01b03161415611b0b576001600160a01b03818116600090815260136020526040908190204290819055600d54915163fefa611960e01b815260048101869052602481019190915291169063fefa611990604401600060405180830381600087803b158015611a5c57600080fd5b505af1158015611a70573d6000803e3d6000fd5b5050600d5460405163678729eb60e01b81526001600160a01b03858116600483015230602483015260448201879052909116925063678729eb915060640160206040518083038186803b158015611ac657600080fd5b505afa158015611ada573d6000803e3d6000fd5b505050506040513d601f19601f82011682018060405250810190611afe919061564e565b156111de576111de615e00565b600d5460405163678729eb60e01b81526001600160a01b038381166004830152306024830152604482018590529091169063678729eb9060640160206040518083038186803b158015611b5d57600080fd5b505afa158015611b71573d6000803e3d6000fd5b505050506040513d601f19601f82011682018060405250810190611b95919061564e565b156111de576001600160a01b0381811660008181526013602052604090819020429055600d54905163315a2c0960e21b81526004810192909252602482018590529091169063c568b024906044015b600060405180830381600087803b158015611bfe57600080fd5b505af1158015611c12573d6000803e3d6000fd5b505050505050565b6019544263ffffffff90911611801590611c4a5750600060075460ff166003811115611c4857611c48615e2c565b145b15611c5757611c57614460565b60195442600160201b90910463ffffffff1611611c7657611c766128db565b600160075460ff166003811115611c8f57611c8f615e2c565b14156126715763016e3600841015611cdb5760405162461bcd60e51b815260206004820152600f60248201526e283934b1b2903132b637bb9036b4b760891b6044820152606401610e68565b6006548110611d225760405162461bcd60e51b815260206004820152601360248201527210d85c9908191bd95cc81b9bdd08195e1a5cdd606a1b6044820152606401610e68565b611d2b81613efc565b611e3357600c60009054906101000a90046001600160a01b03166001600160a01b03166318160ddd6040518163ffffffff1660e01b815260040160206040518083038186803b158015611d7d57600080fd5b505afa158015611d91573d6000803e3d6000fd5b505050506040513d601f19601f82011682018060405250810190611db59190615670565b60098281548110611dc857611dc8615e42565b600091825260209091200155600b546040516301a8429360e11b8152600481018390526001600160a01b0390911690630350852690602401600060405180830381600087803b158015611e1a57600080fd5b505af1158015611e2e573d6000803e3d6000fd5b505050505b6000611e3d613bdf565b6001600160a01b038116600090815260136020526040902054909150421415611eb65760405162461bcd60e51b815260206004820152602560248201527f43616e6e6f74206c6f736520616e642072652d72656e7420696e2073616d6520604482015264626c6f636b60d81b6064820152608401610e68565b600a54604051630d50a73f60e11b81523060048201526001600160a01b0390911690631aa14e7e9060240160206040518083038186803b158015611ef957600080fd5b505afa158015611f0d573d6000803e3d6000fd5b505050506040513d601f19601f82011682018060405250810190611f31919061564e565b158015611fc15750600a60009054906101000a90046001600160a01b03166001600160a01b031663f12d54d86040518163ffffffff1660e01b815260040160206040518083038186803b158015611f8757600080fd5b505afa158015611f9b573d6000803e3d6000fd5b505050506040513d601f19601f82011682018060405250810190611fbf919061564e565b155b6120045760405162461bcd60e51b815260206004820152601460248201527314995b9d185b1cc8185c9948191a5cd8589b195960621b6044820152606401610e68565b600a546040516375571e5b60e11b81526001600160a01b0383811660048301529091169063eaae3cb690602401602060405180830381600087803b15801561204b57600080fd5b505af115801561205f573d6000803e3d6000fd5b505050506040513d601f19601f82011682018060405250810190612083919061564e565b6120cf5760405162461bcd60e51b815260206004820152601c60248201527f4e6f7420617070726f76656420666f722074686973206d61726b6574000000006044820152606401610e68565b600a54604051625274c560e21b81526001600160a01b03838116600483015290911690630149d3149060240160206040518083038186803b15801561211357600080fd5b505afa158015612127573d6000803e3d6000fd5b505050506040513d601f19601f8201168201806040525081019061214b919061564e565b156121b057600d54604051637d7cdc4360e11b81526001600160a01b0383811660048301529091169063faf9b88690602401600060405180830381600087803b15801561219757600080fd5b505af11580156121ab573d6000803e3d6000fd5b505050505b600a54604051625274c560e21b81526001600160a01b03838116600483015290911690630149d3149060240160206040518083038186803b1580156121f457600080fd5b505afa158015612208573d6000803e3d6000fd5b505050506040513d601f19601f8201168201806040525081019061222c919061564e565b156122795760405162461bcd60e51b815260206004820152601b60248201527f43616e27742072656e74207768696c6520666f7265636c6f73656400000000006044820152606401610e68565b806001600160a01b031661228c83611814565b6001600160a01b03161415612333576000606460145460646122ae9190615d0e565b6000858152601860205260409020600501546122ca9190615d48565b6122d49190615d26565b905080861015806122f5575060008381526018602052604090206005015486105b6123315760405162461bcd60e51b815260206004820152600d60248201526c496e76616c696420707269636560981b6044820152606401610e68565b505b600d5460405163beb724c960e01b81526001600160a01b0383811660048301529091169063beb724c990602401600060405180830381600087803b15801561237a57600080fd5b505af115801561238e573d6000803e3d6000fd5b5050505061239d8260006143b2565b5050600d546040516324d1370160e21b81526001600160a01b038381166004830152602482018590526000928892911690639344dc049060440160206040518083038186803b1580156123ef57600080fd5b505afa158015612403573d6000803e3d6000fd5b505050506040513d601f19601f820116820180604052508101906124279190615670565b600a546040516358b2e87960e11b81526001600160a01b0386811660048301529091169063b165d0f29060240160206040518083038186803b15801561246c57600080fd5b505afa158015612480573d6000803e3d6000fd5b505050506040513d601f19601f820116820180604052508101906124a49190615670565b6124ae9190615d67565b6124b89190615d0e565b9050601554816124c89190615d26565b600a5460405163d1260edd60e01b81526001600160a01b0385811660048301529091169063d1260edd9060240160206040518083038186803b15801561250d57600080fd5b505afa158015612521573d6000803e3d6000fd5b505050506040513d601f19601f820116820180604052508101906125459190615670565b101561258a5760405162461bcd60e51b8152602060048201526014602482015273125b9cdd59999a58da595b9d0819195c1bdcda5d60621b6044820152606401610e68565b612593856144cb565b600d5460405163f94fe98960e01b81526001600160a01b03848116600483015260248201869052604482018990526064820188905286811660848301529091169063f94fe9899060a401600060405180830381600087803b1580156125f757600080fd5b505af115801561260b573d6000803e3d6000fd5b5050600a54604051630759ac5160e51b81526001600160a01b038681166004830152909116925063eb358a209150602401600060405180830381600087803b15801561265657600080fd5b505af115801561266a573d6000803e3d6000fd5b5050505050505b50505050565b6126816001613bfb565b600061268b613bdf565b9050600061269a8360006143b2565b5090508015612671576126ac846144cb565b600d54604051639c935d1760e01b81526001600160a01b038481166004830152602482018690526044820187905290911690639c935d1790606401600060405180830381600087803b15801561270157600080fd5b505af1158015612715573d6000803e3d6000fd5b50505050816001600160a01b031661272c84611814565b6001600160a01b031614156127505760008381526018602052604090206004018490555b60408051858152602081018590526001600160a01b038416917f33291b209461711e831cef36614482c73b8c9b7b1ec95b7f8456eae61edbfb11910160405180910390a250505050565b60006127a4613bdf565b600b549091506001600160a01b038083169116146127c0578092505b6127ca8383614526565b505050565b600f54602954604051633fc6a14f60e11b815260009283926001600160a01b0390911691637f8d429e916128099160040190815260200190565b60206040518083038186803b15801561282157600080fd5b505afa158015612835573d6000803e3d6000fd5b505050506040513d601f19601f820116820180604052508101906115df919061564e565b6128636003613bfb565b60205460ff16156128af5760405162461bcd60e51b81526020600482015260166024820152751059999a5b1a585d1948185b1c9958591e481c185a5960521b6044820152606401610e68565b6020805460ff19166001179055601f54601e546117e291906001600160a01b03610100909104166143f6565b6128e56001613bfb565b60195442600160201b90910463ffffffff1611156129455760405162461bcd60e51b815260206004820152601760248201527f4d61726b657420686173206e6f742066696e69736865640000000000000000006044820152606401610e68565b6000805b60065460275410801561295f575060285460ff16155b156129c557612970602754826143b2565b90925090508115612994576027805460009350908361298e83615de5565b91905055505b60065460275414156129b2576028805460ff191660011790556129c5565b60165481106129c0576129c5565b612949565b60285460ff1680156129d8575060175481105b156111de57600d60009054906101000a90046001600160a01b03166001600160a01b031663c511ed5e6040518163ffffffff1660e01b8152600401602060405180830381600087803b158015612a2d57600080fd5b505af1158015612a41573d6000803e3d6000fd5b505050506040513d601f19601f82011682018060405250810190612a65919061564e565b156111de57612a72614460565b60005b600654811015612b0a57612a8881613efc565b15612aa057612aa0612a9982611814565b3083613c63565b6000818152601860209081526040918290206003015482518481526001600160a01b03909116918101919091527fad2f369220c9309ea493330139b4ce96a622e85ed561069aff7900bf6707e1ec910160405180910390a180612b0281615de5565b915050612a75565b506040516001907fb282d809a37929e90947aa1697802696b8bd3ef03401dea95b465ae493d64abb90600090a25050565b612b4560006146ca565b612b4f60016146ca565b600a54604051630d50a73f60e11b81523060048201526001600160a01b0390911690631aa14e7e9060240160206040518083038186803b158015612b9257600080fd5b505afa158015612ba6573d6000803e3d6000fd5b505050506040513d601f19601f82011682018060405250810190612bca919061564e565b158015612c5a5750600a60009054906101000a90046001600160a01b03166001600160a01b031663f12d54d86040518163ffffffff1660e01b815260040160206040518083038186803b158015612c2057600080fd5b505afa158015612c34573d6000803e3d6000fd5b505050506040513d601f19601f82011682018060405250810190612c58919061564e565b155b612c995760405162461bcd60e51b815260206004820152601060248201526f13585c9ad95d081a5cc814185d5cd95960821b6044820152606401610e68565b6000612ca3613bdf565b60008381526018602090815260408083206001600160a01b038516845260070190915290205490915060ff1615612d0e5760405162461bcd60e51b815260206004820152600f60248201526e105b1c9958591e4818db185a5b5959608a1b6044820152606401610e68565b60008281526018602081815260408084206001600160a01b03808716808752600783018552928620805460ff1916600117905594879052929091526003909101549091161415612d85576111de612d6483611814565b6000848152601860205260409020600301546001600160a01b031684613c63565b600e546040516333a10cc160e01b81526001600160a01b03838116600483015260248201859052909116906333a10cc190604401600060405180830381600087803b158015612dd357600080fd5b505af1158015612de7573d6000803e3d6000fd5b5050600b5460405163a8e51a9f60e01b81526001600160a01b03858116600483015260248201879052909116925063a8e51a9f9150604401611be4565b600054610100900460ff1680612e3d575060005460ff16155b612e595760405162461bcd60e51b8152600401610e6890615bdd565b600054610100900460ff16158015612e7b576000805461ffff19166101011790555b600780548c919061ff001916610100836002811115612e9c57612e9c615e2c565b0217905550612eee604051806040016040528060128152602001711499585b1a5d1e50d85c991cd3585c9ad95d60721b815250604051806040016040528060018152602001603160f81b815250614733565b612ef6613bdf565b600b80546001600160a01b0319166001600160a01b03929092169182179055604080516361d027b360e01b815290516361d027b391600480820192602092909190829003018186803b158015612f4b57600080fd5b505afa158015612f5f573d6000803e3d6000fd5b505050506040513d601f19601f82011682018060405250810190612f83919061547c565b600a80546001600160a01b0319166001600160a01b03928316179055600b5460408051633c73e35960e01b815290519190921691633c73e359916004808301926020929190829003018186803b158015612fdc57600080fd5b505afa158015612ff0573d6000803e3d6000fd5b505050506040513d601f19601f82011682018060405250810190613014919061547c565b600c80546001600160a01b0319166001600160a01b03928316179055600b54604080516360c58eaf60e11b81529051919092169163c18b1d5e916004808301926020929190829003018186803b15801561306d57600080fd5b505afa158015613081573d6000803e3d6000fd5b505050506040513d601f19601f820116820180604052508101906130a5919061547c565b600d80546001600160a01b0319166001600160a01b03928316179055600b54604080516303ad5add60e61b81529051919092169163eb56b740916004808301926020929190829003018186803b1580156130fe57600080fd5b505afa158015613112573d6000803e3d6000fd5b505050506040513d601f19601f82011682018060405250810190613136919061547c565b600e80546001600160a01b0319166001600160a01b03928316179055600b54604080516301c88c1160e51b81529051600093929092169163391182209160048082019260a092909190829003018186803b15801561319357600080fd5b505afa1580156131a7573d6000803e3d6000fd5b505050506040513d601f19601f820116820180604052508101906131cb91906155c8565b9050600a60009054906101000a90046001600160a01b03166001600160a01b0316639223d2df6040518163ffffffff1660e01b815260040160206040518083038186803b15801561321b57600080fd5b505afa15801561322f573d6000803e3d6000fd5b505050506040513d601f19601f820116820180604052508101906132539190615670565b601555600b5460408051634ad6f0b760e01b815290516001600160a01b0390921691634ad6f0b791600480820192602092909190829003018186803b15801561329b57600080fd5b505afa1580156132af573d6000803e3d6000fd5b505050506040513d601f19601f820116820180604052508101906132d39190615670565b601455600b5460408051634ae4e2b360e01b815290516001600160a01b0390921691634ae4e2b391600480820192602092909190829003018186803b15801561331b57600080fd5b505afa15801561332f573d6000803e3d6000fd5b505050506040513d601f19601f820116820180604052508101906133539190615670565b601655600b546040805163858435a960e01b815290516001600160a01b039092169163858435a991600480820192602092909190829003018186803b15801561339b57600080fd5b505afa1580156133af573d6000803e3d6000fd5b505050506040513d601f19601f820116820180604052508101906133d39190615670565b601755600019601a5560068a905560088390558a518b906000906133f9576133f9615e42565b6020026020010151601960006101000a81548163ffffffff021916908363ffffffff1602179055508a60018151811061343457613434615e42565b6020026020010151601960046101000a81548163ffffffff021916908363ffffffff1602179055508a60028151811061346f5761346f615e42565b6020908102919091018101516019805463ffffffff909216600160401b026bffffffff000000000000000019909216919091179055601c80546001600160a01b03808d166001600160a01b031992831617909255602280548a84169216919091179055601e8054918b1661010002610100600160a81b0319909216919091179055875161350291602591908a0190615220565b508051601d556020810151602155604080820151602355606080830151601f556080830151602655600b54825163f8e9eec360e01b815292516001600160a01b039091169263f8e9eec3926004828101939192829003018186803b15801561356957600080fd5b505afa15801561357d573d6000803e3d6000fd5b505050506040513d601f19601f820116820180604052508101906135a19190615689565b602a80546001600160a01b039384166001600160a01b031963ffffffff909416600160a01b0284166001600160c01b031990921691909117179055600f805493909216921691909117905560005b8a81101561364157600980546001810182556000919091526000197f6e1540171b6c0c960b71a7020d9f60077f6af931a8bbf590da0223dacf75c7af909101558061363981615de5565b9150506135ef565b506001600160a01b038916613656576000601d555b6001600160a01b03881661366a576000601f555b89875114156136d45760005b8a8110156136ce5760006001600160a01b031688828151811061369b5761369b615e42565b60200260200101516001600160a01b031614156136bc5760006026556136ce565b806136c681615de5565b915050613676565b506136da565b60006026555b60018c60028111156136ee576136ee615e2c565b141561372e57602654601f54602354601d5461370c906103e8615d67565b6137169190615d67565b6137209190615d67565b61372a9190615d67565b6021555b61375385858d60028151811061374657613746615e42565b60200260200101516147d6565b6019544263ffffffff9091161161376c5761376c614460565b601d54896001600160a01b03167f6da513bd5014ff654d2446a575b7d31f065fed56742f59cea215e04ec8fba3c7888b6025602154602354601f546026546040516137bd9796959493929190615a3e565b60405180910390a360155460145460085460408051938452602084019290925282820152517f0b8590c82aec3bf277bc7a0da18d47ce1803fcedc40ad3d7e19cd64498c78e449181900360600190a150801561381f576000805461ff00191690555b5050505050505050505050565b6000613836613bdf565b90506111de8183614526565b6009818154811061385257600080fd5b600091825260209091200154905081565b600a546001600160a01b0316635cc77dd37f6270edb7c868f86fda4adedba75108201087268ea345934db8bad688e1feb91b61389d613bdf565b6040516001600160e01b031960e085901b16815260048101929092526001600160a01b0316602482015260440160206040518083038186803b1580156138e257600080fd5b505afa1580156138f6573d6000803e3d6000fd5b505050506040513d601f19601f8201168201806040525081019061391a919061564e565b6139575760405162461bcd60e51b815260206004820152600e60248201526d139bdd08185d5d1a1bdc9a5cd95960921b6044820152606401610e68565b61171281613f28565b6025818154811061397057600080fd5b6000918252602090912001546001600160a01b0316905081565b6139946003613bfb565b601a546000908152601860205260409020600101546139e15760405162461bcd60e51b81526020600482015260096024820152682737903bb4b73732b960b91b6044820152606401610e68565b60245460ff1615613a2b5760405162461bcd60e51b815260206004820152601460248201527310dc99585d1bdc88185b1c9958591e481c185a5960621b6044820152606401610e68565b6024805460ff191660011790556023546022546117e291906001600160a01b03166143f6565b613a5b6001613bfb565b6000805b600654811015613aea57600081815260186020526040902060050154613a9457613a8d63016e360083615d0e565b9150613ad8565b60646014546064613aa59190615d0e565b600083815260186020526040902060050154613ac19190615d48565b613acb9190615d26565b613ad59083615d0e565b91505b80613ae281615de5565b915050613a5f565b5081811115613b2d5760405162461bcd60e51b815260206004820152600f60248201526e0a0e4d2c6cae640e8dede40d0d2ced608b1b6044820152606401610e68565b60005b6006548110156127ca57613b42613bdf565b6001600160a01b0316613b5482611814565b6001600160a01b031614613bcd5760008181526018602052604081206005015415613bb75760646014546064613b8a9190615d0e565b600084815260186020526040902060050154613ba69190615d48565b613bb09190615d26565b9050613bbe565b5063016e36005b613bcb8160008085611c1a565b505b80613bd781615de5565b915050613b30565b600033301415613bf6575060131936013560601c90565b503390565b806003811115613c0d57613c0d615e2c565b60075460ff166003811115613c2457613c24615e2c565b146117125760405162461bcd60e51b815260206004820152600f60248201526e496e636f727265637420737461746560881b6044820152606401610e68565b6001600160a01b03831615801590613c8357506001600160a01b03821615155b613ccf5760405162461bcd60e51b815260206004820181905260248201527f43616e6e6f742073656e6420746f2f66726f6d207a65726f20616464726573736044820152606401610e68565b6000613cda826111e2565b600c5460405163688f666b60e11b81526001600160a01b03878116600483015286811660248301526044820184905292935091169063d11eccd690606401600060405180830381600087803b158015613d3257600080fd5b505af1158015613d46573d6000803e3d6000fd5b50506040516001600160a01b03861692508491507fdc1e7ecbd148f2c1fc0167f1f98aa0f3b412185d57970f186a9d065bf798b0b490600090a350505050565b60006001600160a01b038616613dec5760405162461bcd60e51b815260206004820152602560248201527f4e61746976654d6574615472616e73616374696f6e3a20494e56414c49445f5360448201526424a3a722a960d91b6064820152608401610e68565b6001613dff613dfa876149df565b614a5c565b6040805160008152602081018083529290925260ff851690820152606081018690526080810185905260a0016020604051602081039080840390855afa158015613e4d573d6000803e3d6000fd5b505050602060405103516001600160a01b0316866001600160a01b031614905095945050505050565b600a5460405163117de2fd60e01b81526001600160a01b038481166004830152602482018490529091169063117de2fd90604401602060405180830381600087803b158015613ec457600080fd5b505af1158015613ed8573d6000803e3d6000fd5b505050506040513d601f19601f820116820180604052508101906127ca919061564e565b600060001960098381548110613f1457613f14615e42565b906000526020600020015414159050919050565b600160075460ff166003811115613f4157613f41615e2c565b1415613fb35763ffffffff42811690811115613f8a5760405162461bcd60e51b81526020600482015260086024820152674f766572666c6f7760c01b6044820152606401610e68565b6019805467ffffffff000000001916600160201b63ffffffff841602179055613fb16128db565b505b600260075460ff166003811115613fcc57613fcc615e2c565b141561171257601a819055613fdf614460565b601a546040517fb68033fc92a074d9abf426e141fb581f2382af561ab9ac6d87220be2f7c5ea0290600090a250565b600080602354602154602654601f54601d546103e861402d9190615d67565b6140379190615d67565b6140419190615d67565b61404b9190615d67565b6140559190615d67565b905061405f613bdf565b601a546000908152601860205260409020600301546001600160a01b03908116911614801561409057506000602154115b156140b5576103e86021546012546140a89190615d48565b6140b29190615d26565b91505b60006002600754610100900460ff1660028111156140d5576140d5615e2c565b141561418257601a546000908152601860205260409020600601546012546103e89184916141039190615d67565b61410d9190615d48565b6141179190615d26565b90506103e88260116000614129613bdf565b6001600160a01b03166001600160a01b031681526020019081526020016000206000601a548152602001908152602001600020546141679190615d48565b6141719190615d26565b61417b9084615d0e565b92506141a0565b6103e8826012546141939190615d48565b61419d9190615d26565b90505b601a546000908152601860205260408120816141ba613bdf565b6001600160a01b03168152602081019190915260400160009081205491506141e28284615d48565b601a546000908152601860205260409020600101549091506142049082615d26565b61420e9086615d0e565b94506000851161424f5760405162461bcd60e51b815260206004820152600c60248201526b2737ba1030903bb4b73732b960a11b6044820152606401610e68565b61426061425a613bdf565b86613e76565b84614269613bdf565b6001600160a01b03167f0e72eb54add8566fa8248d61d8dc2b9953fbec55cfec138cdc887c8e34df495160405160405180910390a35050505050565b6000602654601f54601d546103e86142bd9190615d67565b6142c79190615d67565b6142d19190615d67565b90506000601060006142e1613bdf565b6001600160a01b03166001600160a01b03168152602001908152602001600020549050600081116143435760405162461bcd60e51b815260206004820152600c60248201526b14185a59081b9bc81c995b9d60a21b6044820152606401610e68565b60006103e86143528484615d48565b61435c9190615d26565b905061436f614369613bdf565b82613e76565b80614378613bdf565b6001600160a01b03167f40db9a7a1327f1f949933daff746d2d9be9f2ff608d832e39b6764f5f15a957360405160405180910390a3505050565b60008060015b601654841080156143c65750805b156143e8576143d485614a8b565b9050836143e081615de5565b9450506143b8565b1591508290505b9250929050565b81156111de5760006103e88360125461440f9190615d48565b6144199190615d26565b90506144258282613e76565b60405181906001600160a01b038416907fc9816216464657caa72de82ef94b3518b977959dfd512587c16d9f5bab436d9890600090a3505050565b60075460ff16600381111561447757614477615e2c565b614482906001615d0e565b600381111561449357614493615e2c565b6007805460ff191660018360038111156144af576144af615e2c565b021790555060075460ff16600381111561131657611316615e2c565b8015611712576000601554620151806144e49190615d26565b9050808210156111de5760405162461bcd60e51b815260206004820152600d60248201526c4c696d697420746f6f206c6f7760981b6044820152606401610e68565b61453060026146ca565b61453a60036146ca565b600081116145805760405162461bcd60e51b81526020600482015260136024820152724d7573742073656e6420736f6d657468696e6760681b6044820152606401610e68565b600a54604051632326579160e21b81526001600160a01b0384811660048301526024820184905290911690638c995e4490604401600060405180830381600087803b1580156145ce57600080fd5b505af11580156145e2573d6000803e3d6000fd5b50505050806012546145f49190615d0e565b6012556001600160a01b03821660009081526010602052604090205461461b908290615d0e565b6001600160a01b0383166000908152601060205260408120919091555b60065481101561468f5760065461464f9083615d26565b60008281526018602052604090206006015461466b9190615d0e565b6000828152601860205260409020600601558061468781615de5565b915050614638565b5060405181906001600160a01b038416907f199c11b40622f4fc5f68f187d037b7523f70441acdb1b7f35d821ed14165ff9890600090a35050565b8060038111156146dc576146dc615e2c565b60075460ff1660038111156146f3576146f3615e2c565b14156117125760405162461bcd60e51b815260206004820152600f60248201526e496e636f727265637420737461746560881b6044820152606401610e68565b600054610100900460ff168061474c575060005460ff16155b6147685760405162461bcd60e51b8152600401610e6890615bdd565b600054610100900460ff1615801561478a576000805461ffff19166101011790555b4660025582516147a1906003906020860190615285565b5081516147b5906004906020850190615285565b506147c08383614dba565b80156127ca576000805461ff0019169055505050565b600060029050600080828487876040516020016147f69493929190615a0f565b60408051808303601f190181528282528051602091820120602a549184018190526bffffffffffffffffffffffff19606083811b8216948601949094526001600160e01b0319600160a01b90930460e01b9290921660548501523090921b166058830152606c82018490529150608c0160408051808303601f190181529082905280516020909101206029819055600f546351577ea960e01b8352600483019190915282916001600160a01b03909116906351577ea99060240160206040518083038186803b1580156148c857600080fd5b505afa1580156148dc573d6000803e3d6000fd5b505050506040513d601f19601f820116820180604052508101906149009190615670565b146149a957600f54602a5460405163762c38fd60e01b81526001600160a01b039283169263762c38fd926149539288928c928c9291811691600160a01b90910463ffffffff16908c908b90600401615c2b565b602060405180830381600087803b15801561496d57600080fd5b505af1158015614981573d6000803e3d6000fd5b505050506040513d601f19601f820116820180604052508101906149a59190615670565b6029555b60295460405130907f16a069e041033660f7eab1ed4ef34b5dd363e6477cd4f6ccf895f18b26357c8c90600090a3505050505050565b6000604051806080016040528060438152602001615e966043913980516020918201208351848301516040808701518051908601209051614a3f950193845260208401929092526001600160a01b03166040830152606082015260800190565b604051602081830303815290604052805190602001209050919050565b6000614a66611341565b60405161190160f01b6020820152602281019190915260428101839052606201614a3f565b600080614a9783611814565b6019549091504290600160201b900463ffffffff168110614ac45750601954600160201b900463ffffffff165b6001600160a01b0382163014801590614aed575060008481526018602052604090206002015481115b15614d9b57600a5460405163a4a5734f60e01b81526001600160a01b03848116600483015260248201849052600092169063a4a5734f90604401602060405180830381600087803b158015614b4157600080fd5b505af1158015614b55573d6000803e3d6000fd5b505050506040513d601f19601f82011682018060405250810190614b799190615670565b600086815260186020526040812060048101546002909101549293509091614ba19190615d0e565b6000878152601860205260408120600401549192508315159115801590614bc757504283105b905060008083158015614bd8575082155b15614be857506000905080614c6f565b83158015614bf35750825b15614c1257849650600191508442614c0b9190615d67565b9050614c6f565b838015614c1d575082155b15614c32578596506001915060009050614c6f565b838015614c3c5750825b15614c6f5784861015614c59578596506001915060009050614c6f565b849650600191508486614c6c9190615d67565b90505b8015614d0a5760008a8152601860205260408120600501546201518090614c969084615d48565b614ca09190615d26565b600a5460405163eea758f160e01b81526001600160a01b038c811660048301526024820184905292935091169063eea758f190604401600060405180830381600087803b158015614cf057600080fd5b505af1158015614d04573d6000803e3d6000fd5b50505050505b614d15888b89614e41565b8115614d9057600d5460405163fefa611960e01b8152600481018c9052602481018990526001600160a01b039091169063fefa611990604401600060405180830381600087803b158015614d6857600080fd5b505af1158015614d7c573d6000803e3d6000fd5b5060019d9c50505050505050505050505050565b505050505050614db0565b60008481526018602052604090206002018190555b5060009392505050565b6040518060800160405280604f8152602001615ed9604f9139805190602001208280519060200120828051906020012030614df24690565b60408051602081019690965285019390935260608401919091526001600160a01b0316608083015260a082015260c00160408051601f1981840301815291905280516020909101206001555050565b6000828152601860205260408120600201546201518090614e629084615d67565b600085815260186020526040902060050154614e7e9190615d48565b614e889190615d26565b60008481526018602052604081206002015491925090614ea89084615d67565b60008581526018602052604090206004015490915015614f5857600d5460405163a471a43760e01b81526001600160a01b03878116600483015260248201879052604482018490529091169063a471a43790606401600060405180830381600087803b158015614f1757600080fd5b505af1158015614f2b573d6000803e3d6000fd5b50505060008581526018602052604081206004018054849350909190614f52908490615d67565b90915550505b60008481526018602090815260408083206001600160a01b038916845290915281208054839290614f8a908490615d0e565b909155505060008481526018602052604081206001018054839290614fb0908490615d0e565b909155505060008481526018602090815260408083206002810187905560038101546001600160a01b039081168552925280832054918816835290912054111561501f57600084815260186020526040902060030180546001600160a01b0319166001600160a01b0387161790555b600a5460405163d9e8843f60e01b8152600481018490526000916001600160a01b03169063d9e8843f90602401602060405180830381600087803b15801561506657600080fd5b505af115801561507a573d6000803e3d6000fd5b505050506040513d601f19601f8201168201806040525081019061509e9190615670565b9050806018600087815260200190815260200160002060060160008282546150c69190615d0e565b90915550506001600160a01b0386166000908152601160209081526040808320888452909152812080548392906150fe908490615d0e565b90915550506001600160a01b0386166000908152601060205260408120805483929061512b908490615d0e565b9250508190555080601260008282546151449190615d0e565b9091555050600e5460008681526018602090815260408083206001600160a01b038b8116808652919093529281902054905163268ec91f60e11b8152600481019390935260248301899052604483015290911690634d1d923e90606401600060405180830381600087803b1580156151bb57600080fd5b505af11580156151cf573d6000803e3d6000fd5b50505050856001600160a01b031685837ff5a100b7aa2a7af0af72680ec58e148a876b57f99504ea2f311fd4e14910a4138460405161521091815260200190565b60405180910390a4505050505050565b828054828255906000526020600020908101928215615275579160200282015b8281111561527557825182546001600160a01b0319166001600160a01b03909116178255602090920191600190910190615240565b506152819291506152f9565b5090565b82805461529190615daa565b90600052602060002090601f0160209004810192826152b35760008555615275565b82601f106152cc57805160ff1916838001178555615275565b82800160010185558215615275579182015b828111156152755782518255916020019190600101906152de565b5b8082111561528157600081556001016152fa565b803561190181615e6e565b600082601f83011261532a57600080fd5b8135602061533f61533a83615cc2565b615c91565b80838252828201915082860187848660051b890101111561535f57600080fd5b60005b8581101561538757813561537581615e6e565b84529284019290840190600101615362565b5090979650505050505050565b600082601f8301126153a557600080fd5b813560206153b561533a83615cc2565b80838252828201915082860187848660051b89010111156153d557600080fd5b60005b858110156153875781356153eb81615e83565b845292840192908401906001016153d8565b80356003811061190157600080fd5b60008083601f84011261541e57600080fd5b50813567ffffffffffffffff81111561543657600080fd5b6020830191508360208285010111156143ef57600080fd5b803560ff8116811461190157600080fd5b60006020828403121561547157600080fd5b81356118f381615e6e565b60006020828403121561548e57600080fd5b81516118f381615e6e565b600080600080600060a086880312156154b157600080fd5b85356154bc81615e6e565b945060208601356154cc81615e6e565b94979496505050506040830135926060810135926080909101359150565b600080600080600060a0868803121561550257600080fd5b853561550d81615e6e565b9450602086013567ffffffffffffffff81111561552957600080fd5b8601601f8101881361553a57600080fd5b803561554861533a82615ce6565b81815289602083850101111561555d57600080fd5b8160208401602083013760006020838301015280965050505060408601359250606086013591506155906080870161544e565b90509295509295909350565b600080604083850312156155af57600080fd5b82356155ba81615e6e565b946020939093013593505050565b600060a082840312156155da57600080fd5b82601f8301126155e957600080fd5b60405160a0810181811067ffffffffffffffff8211171561560c5761560c615e58565b604052808360a0810186101561562157600080fd5b60005b6005811015615643578151835260209283019290910190600101615624565b509195945050505050565b60006020828403121561566057600080fd5b815180151581146118f357600080fd5b60006020828403121561568257600080fd5b5051919050565b60008060006060848603121561569e57600080fd5b83516156a981615e6e565b60208501519093506156ba81615e6e565b60408501519092506156cb81615e83565b809150509250925092565b6000806000806000806000806000806101208b8d0312156156f657600080fd5b6156ff8b6153fd565b995060208b013567ffffffffffffffff8082111561571c57600080fd5b6157288e838f01615394565b9a5060408d0135995061573d60608e0161530e565b985061574b60808e0161530e565b975060a08d013591508082111561576157600080fd5b61576d8e838f01615319565b965061577b60c08e0161530e565b955060e08d013591508082111561579157600080fd5b5061579e8d828e0161540c565b915080945050809250506101008b013590509295989b9194979a5092959850565b6000602082840312156157d157600080fd5b815167ffffffffffffffff8111156157e857600080fd5b8201601f810184136157f957600080fd5b805161580761533a82615ce6565b81815285602083850101111561581c57600080fd5b61582d826020830160208601615d7e565b95945050505050565b60006020828403121561584857600080fd5b5035919050565b6000806040838503121561586257600080fd5b82359150602083013561587481615e6e565b809150509250929050565b6000806040838503121561589257600080fd5b50508035926020909101359150565b600080600080608085870312156158b757600080fd5b843593506020850135925060408501356158d081615e6e565b9396929550929360600135925050565b600081518084526158f8816020860160208601615d7e565b601f01601f19169290920160200192915050565b6004811061591c5761591c615e2c565b9052565b60008251615932818460208701615d7e565b9190910192915050565b6000835161594e818460208801615d7e565b60609390931b6bffffffffffffffffffffffff19169190920190815260140192915050565b600080835481600182811c91508083168061598f57607f831692505b60208084108214156159af57634e487b7160e01b86526022600452602486fd5b8180156159c357600181146159d457615a01565b60ff19861689528489019650615a01565b60008a81526020902060005b868110156159f95781548b8201529085019083016159e0565b505084890196505b509498975050505050505050565b84815260e084901b6001600160e01b031916602082015281836024830137600091016024019081529392505050565b600060e0820160018060a01b03808b1684526020818b168186015260e06040860152828a54808552610100870191508b60005282600020945060005b81811015615a98578554851683526001958601959284019201615a7a565b5050606086019990995250505050608081019390935260a083019190915260c0909101529392505050565b6001600160a01b0384811682528316602082015260606040820181905260009061582d908301846158e0565b6020815260006118f360208301846158e0565b6020810160038310615b1657615b16615e2c565b91905290565b602081016115df828461590c565b615b34818861590c565b6000602060c081840152615b4b60c08401896158e0565b6040840188905260608401879052838103608085015285518082528287019183019060005b81811015615b955783516001600160a01b031683529284019291840191600101615b70565b505084810360a0860152855180825290830191508286019060005b81811015615bcc57825184529284019291840191600101615bb0565b50919b9a5050505050505050505050565b6020808252602e908201527f496e697469616c697a61626c653a20636f6e747261637420697320616c72656160408201526d191e481a5b9a5d1a585b1a5e995960921b606082015260800190565b87815260c060208201528560c0820152858760e0830137600060e08783018101919091526001600160a01b0395909516604082015263ffffffff938416606082015291909216608082015260a0810191909152601f909201601f19169091010192915050565b604051601f8201601f1916810167ffffffffffffffff81118282101715615cba57615cba615e58565b604052919050565b600067ffffffffffffffff821115615cdc57615cdc615e58565b5060051b60200190565b600067ffffffffffffffff821115615d0057615d00615e58565b50601f01601f191660200190565b60008219821115615d2157615d21615e16565b500190565b600082615d4357634e487b7160e01b600052601260045260246000fd5b500490565b6000816000190483118215151615615d6257615d62615e16565b500290565b600082821015615d7957615d79615e16565b500390565b60005b83811015615d99578181015183820152602001615d81565b838111156126715750506000910152565b600181811c90821680615dbe57607f821691505b60208210811415615ddf57634e487b7160e01b600052602260045260246000fd5b50919050565b6000600019821415615df957615df9615e16565b5060010190565b634e487b7160e01b600052600160045260246000fd5b634e487b7160e01b600052601160045260246000fd5b634e487b7160e01b600052602160045260246000fd5b634e487b7160e01b600052603260045260246000fd5b634e487b7160e01b600052604160045260246000fd5b6001600160a01b038116811461171257600080fd5b63ffffffff8116811461171257600080fdfe4d6574615472616e73616374696f6e2875696e74323536206e6f6e63652c616464726573732066726f6d2c62797465732066756e6374696f6e5369676e617475726529454950373132446f6d61696e28737472696e67206e616d652c737472696e672076657273696f6e2c6164647265737320766572696679696e67436f6e74726163742c627974657333322073616c7429a264697066735822122059c53ace5b343adc857a8de741ba8b5c0976efde57959dd1b36b4e0a12fae87664736f6c63430008070033",
  "linkReferences": {},
  "deployedLinkReferences": {}
}