{
  "_format": "hh-sol-artifact-1",
  "contractName": "Manager",
  "sourceName": "contracts/Manager.sol",
  "abi": [
    {
      "constant": false,
      "inputs": [
        {
          "internalType": "address",
          "name": "_controller",
          "type": "address"
        }
      ],
      "name": "setController",
      "outputs": [],
      "payable": false,
      "stateMutability": "nonpayable",
      "type": "function"
    },
    {
      "constant": true,
      "inputs": [],
      "name": "controller",
      "outputs": [
        {
          "internalType": "contract IController",
          "name": "",
          "type": "address"
        }
      ],
      "payable": false,
      "stateMutability": "view",
      "type": "function"
    },
    {
      "inputs": [
        {
          "internalType": "address",
          "name": "_controller",
          "type": "address"
        }
      ],
      "payable": false,
      "stateMutability": "nonpayable",
      "type": "constructor"
    },
    {
      "anonymous": false,
      "inputs": [
        {
          "indexed": false,
          "internalType": "address",
          "name": "controller",
          "type": "address"
        }
      ],
      "name": "SetController",
      "type": "event"
    },
    {
      "anonymous": false,
      "inputs": [
        {
          "indexed": false,
          "internalType": "string",
          "name": "param",
          "type": "string"
        }
      ],
      "name": "ParameterUpdate",
      "type": "event"
    }
  ],
  "bytecode": "0x608060405234801561001057600080fd5b506040516101ed3803806101ed8339818101604052602081101561003357600080fd5b5051600080546001600160a01b039092166001600160a01b0319909216919091179055610188806100656000396000f3fe608060405234801561001057600080fd5b50600436106100365760003560e01c806392eefe9b1461003b578063f77c479114610063575b600080fd5b6100616004803603602081101561005157600080fd5b50356001600160a01b0316610087565b005b61006b6100e3565b604080516001600160a01b039092168252519081900360200190f35b61008f6100f2565b600080546001600160a01b0383166001600160a01b0319909116811790915560408051918252517f4ff638452bbf33c012645d18ae6f05515ff5f2d1dfb0cece8cbf018c60903f709181900360200190a150565b6000546001600160a01b031681565b6000546001600160a01b03163314610151576040805162461bcd60e51b815260206004820152601960248201527f63616c6c6572206d75737420626520436f6e74726f6c6c657200000000000000604482015290519081900360640190fd5b56fea265627a7a723158201682a63cb8304cb188df9ad2554885e64b88b4e28bf964bd687f9c0652f2e74064736f6c634300050b0032",
  "linkReferences": {},
  "deployedLinkReferences": {}
}