{
  "_format": "hh-sol-artifact-1",
  "contractName": "Refunder",
  "sourceName": "contracts/refund/Refunder.sol",
  "abi": [
    {
      "constant": false,
      "inputs": [
        {
          "internalType": "address payable",
          "name": "_addr",
          "type": "address"
        }
      ],
      "name": "withdraw",
      "outputs": [],
      "payable": false,
      "stateMutability": "nonpayable",
      "type": "function"
    },
    {
      "constant": true,
      "inputs": [
        {
          "internalType": "address",
          "name": "",
          "type": "address"
        }
      ],
      "name": "withdrawn",
      "outputs": [
        {
          "internalType": "bool",
          "name": "",
          "type": "bool"
        }
      ],
      "payable": false,
      "stateMutability": "view",
      "type": "function"
    },
    {
      "constant": true,
      "inputs": [],
      "name": "alphaJobsManager",
      "outputs": [
        {
          "internalType": "contract IAlphaJobsManager",
          "name": "",
          "type": "address"
        }
      ],
      "payable": false,
      "stateMutability": "view",
      "type": "function"
    },
    {
      "inputs": [
        {
          "internalType": "address",
          "name": "_alphaJobsManagerAddr",
          "type": "address"
        }
      ],
      "payable": false,
      "stateMutability": "nonpayable",
      "type": "constructor"
    },
    {
      "payable": true,
      "stateMutability": "payable",
      "type": "fallback"
    },
    {
      "anonymous": false,
      "inputs": [
        {
          "indexed": false,
          "internalType": "address",
          "name": "from",
          "type": "address"
        },
        {
          "indexed": false,
          "internalType": "uint256",
          "name": "amount",
          "type": "uint256"
        }
      ],
      "name": "FundsReceived",
      "type": "event"
    },
    {
      "anonymous": false,
      "inputs": [
        {
          "indexed": true,
          "internalType": "address",
          "name": "addr",
          "type": "address"
        },
        {
          "indexed": false,
          "internalType": "uint256",
          "name": "amount",
          "type": "uint256"
        }
      ],
      "name": "RefundWithdrawn",
      "type": "event"
    }
  ],
  "bytecode": "0x608060405234801561001057600080fd5b506040516103e63803806103e68339818101604052602081101561003357600080fd5b5051600080546001600160a01b039092166001600160a01b0319909216919091179055610381806100656000396000f3fe6080604052600436106100345760003560e01c806351cff8d9146100705780636ef61092146100a5578063997b645d146100ec575b6040805133815234602082015281517f8e47b87b0ef542cdfa1659c551d88bad38aa7f452d2bbb349ab7530dfec8be8f929181900390910190a1005b34801561007c57600080fd5b506100a36004803603602081101561009357600080fd5b50356001600160a01b031661011d565b005b3480156100b157600080fd5b506100d8600480360360208110156100c857600080fd5b50356001600160a01b03166102bc565b604080519115158252519081900360200190f35b3480156100f857600080fd5b506101016102d1565b604080516001600160a01b039092168252519081900360200190f35b6001600160a01b03811660009081526001602052604090205460ff16156101755760405162461bcd60e51b81526004018080602001828103825260368152602001806102e16036913960400191505060405180910390fd5b60008054604080516388cc109360e01b81526001600160a01b03858116600483015282519316926388cc109392602480840193919291829003018186803b1580156101bf57600080fd5b505afa1580156101d3573d6000803e3d6000fd5b505050506040513d60408110156101e957600080fd5b50519050806102295760405162461bcd60e51b81526004018080602001828103825260368152602001806103176036913960400191505060405180910390fd5b6001600160a01b0382166000818152600160208190526040808320805460ff19169092179091555183156108fc0291849190818181858888f19350505050158015610278573d6000803e3d6000fd5b506040805182815290516001600160a01b038416917f3d97f39b86d061200a7834082f5926e58ec10fd85a9d6930f497729d5e6cc35c919081900360200190a25050565b60016020526000908152604090205460ff1681565b6000546001600160a01b03168156fe616464726573732068617320616c72656164792077697468647261776e20616c706861204a6f62734d616e6167657220726566756e646164647265737320646f6573206e6f7420686176652061206465706f736974207769746820616c706861204a6f62734d616e61676572a265627a7a72315820eaa8c268976c69a60bb7ba480ee55add945ee453b0207626690a754cd0f647bb64736f6c634300050b0032",
  "linkReferences": {},
  "deployedLinkReferences": {}
}