{"abi":[{"type":"constructor","inputs":[{"name":"_usdcAsset","type":"address","internalType":"address"}],"stateMutability":"nonpayable"},{"type":"function","name":"beacon","inputs":[],"outputs":[{"name":"","type":"address","internalType":"address"}],"stateMutability":"view"},{"type":"function","name":"borrowRateLimit","inputs":[],"outputs":[{"name":"min","type":"uint256","internalType":"uint256"},{"name":"max","type":"uint256","internalType":"uint256"}],"stateMutability":"view"},{"type":"function","name":"collectionPeriod","inputs":[],"outputs":[{"name":"","type":"uint256","internalType":"uint256"}],"stateMutability":"view"},{"type":"function","name":"createPool","inputs":[{"name":"_poolSize","type":"uint256","internalType":"uint256"},{"name":"_borrowRate","type":"uint256","internalType":"uint256"},{"name":"_borrowToken","type":"address","internalType":"address"},{"name":"_collateralToken","type":"address","internalType":"address"},{"name":"_idealCollateralRatio","type":"uint256","internalType":"uint256"},{"name":"_repaymentInterval","type":"uint64","internalType":"uint64"},{"name":"_noOfRepaymentIntervals","type":"uint64","internalType":"uint64"},{"name":"_poolSavingsStrategy","type":"address","internalType":"address"},{"name":"_collateralAmount","type":"uint256","internalType":"uint256"},{"name":"_transferFromSavingsAccount","type":"bool","internalType":"bool"},{"name":"_salt","type":"bytes32","internalType":"bytes32"},{"name":"_borrowerVerifier","type":"address","internalType":"address"},{"name":"_lenderVerifier","type":"address","internalType":"address"}],"outputs":[],"stateMutability":"nonpayable"},{"type":"function","name":"getProtocolFeeData","inputs":[],"outputs":[{"name":"","type":"uint256","internalType":"uint256"},{"name":"","type":"address","internalType":"address"}],"stateMutability":"view"},{"type":"function","name":"idealCollateralRatioLimit","inputs":[],"outputs":[{"name":"min","type":"uint256","internalType":"uint256"},{"name":"max","type":"uint256","internalType":"uint256"}],"stateMutability":"view"},{"type":"function","name":"initialize","inputs":[{"name":"_admin","type":"address","internalType":"address"},{"name":"_collectionPeriod","type":"uint256","internalType":"uint256"},{"name":"_loanWithdrawalDuration","type":"uint256","internalType":"uint256"},{"name":"_marginCallDuration","type":"uint256","internalType":"uint256"},{"name":"_liquidatorRewardFraction","type":"uint256","internalType":"uint256"},{"name":"_poolCancelPenaltyMultiple","type":"uint256","internalType":"uint256"},{"name":"_minBorrowFraction","type":"uint256","internalType":"uint256"},{"name":"_protocolFeeFraction","type":"uint256","internalType":"uint256"},{"name":"_protocolFeeCollector","type":"address","internalType":"address"},{"name":"_noStrategy","type":"address","internalType":"address"},{"name":"_beacon","type":"address","internalType":"address"}],"outputs":[],"stateMutability":"nonpayable"},{"type":"function","name":"isBorrowToken","inputs":[{"name":"","type":"address","internalType":"address"}],"outputs":[{"name":"","type":"uint256","internalType":"uint256"}],"stateMutability":"view"},{"type":"function","name":"isCollateralToken","inputs":[{"name":"","type":"address","internalType":"address"}],"outputs":[{"name":"","type":"uint256","internalType":"uint256"}],"stateMutability":"view"},{"type":"function","name":"liquidatorRewardFraction","inputs":[],"outputs":[{"name":"","type":"uint256","internalType":"uint256"}],"stateMutability":"view"},{"type":"function","name":"loanWithdrawalDuration","inputs":[],"outputs":[{"name":"","type":"uint256","internalType":"uint256"}],"stateMutability":"view"},{"type":"function","name":"marginCallDuration","inputs":[],"outputs":[{"name":"","type":"uint256","internalType":"uint256"}],"stateMutability":"view"},{"type":"function","name":"minBorrowFraction","inputs":[],"outputs":[{"name":"","type":"uint256","internalType":"uint256"}],"stateMutability":"view"},{"type":"function","name":"noOfRepaymentIntervalsLimit","inputs":[],"outputs":[{"name":"min","type":"uint256","internalType":"uint256"},{"name":"max","type":"uint256","internalType":"uint256"}],"stateMutability":"view"},{"type":"function","name":"noStrategyAddress","inputs":[],"outputs":[{"name":"","type":"address","internalType":"address"}],"stateMutability":"view"},{"type":"function","name":"owner","inputs":[],"outputs":[{"name":"","type":"address","internalType":"address"}],"stateMutability":"view"},{"type":"function","name":"poolCancelPenaltyMultiple","inputs":[],"outputs":[{"name":"","type":"uint256","internalType":"uint256"}],"stateMutability":"view"},{"type":"function","name":"poolRegistry","inputs":[{"name":"","type":"address","internalType":"address"}],"outputs":[{"name":"","type":"uint256","internalType":"uint256"}],"stateMutability":"view"},{"type":"function","name":"poolSizeLimit","inputs":[],"outputs":[{"name":"min","type":"uint256","internalType":"uint256"},{"name":"max","type":"uint256","internalType":"uint256"}],"stateMutability":"view"},{"type":"function","name":"preComputeAddress","inputs":[{"name":"creator","type":"address","internalType":"address"},{"name":"salt","type":"bytes32","internalType":"bytes32"}],"outputs":[{"name":"predicted","type":"address","internalType":"address"}],"stateMutability":"view"},{"type":"function","name":"priceOracle","inputs":[],"outputs":[{"name":"","type":"address","internalType":"address"}],"stateMutability":"view"},{"type":"function","name":"protocolFeeCollector","inputs":[],"outputs":[{"name":"","type":"address","internalType":"address"}],"stateMutability":"view"},{"type":"function","name":"protocolFeeFraction","inputs":[],"outputs":[{"name":"","type":"uint256","internalType":"uint256"}],"stateMutability":"view"},{"type":"function","name":"renounceOwnership","inputs":[],"outputs":[],"stateMutability":"nonpayable"},{"type":"function","name":"repaymentImpl","inputs":[],"outputs":[{"name":"","type":"address","internalType":"address"}],"stateMutability":"view"},{"type":"function","name":"repaymentIntervalLimit","inputs":[],"outputs":[{"name":"min","type":"uint256","internalType":"uint256"},{"name":"max","type":"uint256","internalType":"uint256"}],"stateMutability":"view"},{"type":"function","name":"savingsAccount","inputs":[],"outputs":[{"name":"","type":"address","internalType":"address"}],"stateMutability":"view"},{"type":"function","name":"setImplementations","inputs":[{"name":"_repaymentImpl","type":"address","internalType":"address"},{"name":"_userRegistry","type":"address","internalType":"address"},{"name":"_strategyRegistry","type":"address","internalType":"address"},{"name":"_priceOracle","type":"address","internalType":"address"},{"name":"_savingsAccount","type":"address","internalType":"address"}],"outputs":[],"stateMutability":"nonpayable"},{"type":"function","name":"strategyRegistry","inputs":[],"outputs":[{"name":"","type":"address","internalType":"address"}],"stateMutability":"view"},{"type":"function","name":"transferOwnership","inputs":[{"name":"newOwner","type":"address","internalType":"address"}],"outputs":[],"stateMutability":"nonpayable"},{"type":"function","name":"updateBorrowRateLimit","inputs":[{"name":"_min","type":"uint256","internalType":"uint256"},{"name":"_max","type":"uint256","internalType":"uint256"}],"outputs":[],"stateMutability":"nonpayable"},{"type":"function","name":"updateCollectionPeriod","inputs":[{"name":"_collectionPeriod","type":"uint256","internalType":"uint256"}],"outputs":[],"stateMutability":"nonpayable"},{"type":"function","name":"updateLiquidatorRewardFraction","inputs":[{"name":"_liquidatorRewardFraction","type":"uint256","internalType":"uint256"}],"outputs":[],"stateMutability":"nonpayable"},{"type":"function","name":"updateLoanWithdrawalDuration","inputs":[{"name":"_loanWithdrawalDuration","type":"uint256","internalType":"uint256"}],"outputs":[],"stateMutability":"nonpayable"},{"type":"function","name":"updateMarginCallDuration","inputs":[{"name":"_marginCallDuration","type":"uint256","internalType":"uint256"}],"outputs":[],"stateMutability":"nonpayable"},{"type":"function","name":"updateMinBorrowFraction","inputs":[{"name":"_minBorrowFraction","type":"uint256","internalType":"uint256"}],"outputs":[],"stateMutability":"nonpayable"},{"type":"function","name":"updateNoOfRepaymentIntervalsLimit","inputs":[{"name":"_min","type":"uint256","internalType":"uint256"},{"name":"_max","type":"uint256","internalType":"uint256"}],"outputs":[],"stateMutability":"nonpayable"},{"type":"function","name":"updateNoStrategy","inputs":[{"name":"_noStrategy","type":"address","internalType":"address"}],"outputs":[],"stateMutability":"nonpayable"},{"type":"function","name":"updatePoolCancelPenaltyMultiple","inputs":[{"name":"_poolCancelPenaltyMultiple","type":"uint256","internalType":"uint256"}],"outputs":[],"stateMutability":"nonpayable"},{"type":"function","name":"updatePoolSizeLimit","inputs":[{"name":"_min","type":"uint256","internalType":"uint256"},{"name":"_max","type":"uint256","internalType":"uint256"}],"outputs":[],"stateMutability":"nonpayable"},{"type":"function","name":"updatePriceoracle","inputs":[{"name":"_priceOracle","type":"address","internalType":"address"}],"outputs":[],"stateMutability":"nonpayable"},{"type":"function","name":"updateProtocolFeeCollector","inputs":[{"name":"_protocolFeeCollector","type":"address","internalType":"address"}],"outputs":[],"stateMutability":"nonpayable"},{"type":"function","name":"updateProtocolFeeFraction","inputs":[{"name":"_protocolFee","type":"uint256","internalType":"uint256"}],"outputs":[],"stateMutability":"nonpayable"},{"type":"function","name":"updateRepaymentImpl","inputs":[{"name":"_repaymentImpl","type":"address","internalType":"address"}],"outputs":[],"stateMutability":"nonpayable"},{"type":"function","name":"updateRepaymentIntervalLimit","inputs":[{"name":"_min","type":"uint256","internalType":"uint256"},{"name":"_max","type":"uint256","internalType":"uint256"}],"outputs":[],"stateMutability":"nonpayable"},{"type":"function","name":"updateSavingsAccount","inputs":[{"name":"_savingsAccount","type":"address","internalType":"address"}],"outputs":[],"stateMutability":"nonpayable"},{"type":"function","name":"updateStrategyRegistry","inputs":[{"name":"_strategyRegistry","type":"address","internalType":"address"}],"outputs":[],"stateMutability":"nonpayable"},{"type":"function","name":"updateSupportedBorrowTokens","inputs":[{"name":"_borrowToken","type":"address","internalType":"address"},{"name":"_isSupported","type":"bool","internalType":"bool"}],"outputs":[],"stateMutability":"nonpayable"},{"type":"function","name":"updateSupportedCollateralTokens","inputs":[{"name":"_collateralToken","type":"address","internalType":"address"},{"name":"_isSupported","type":"bool","internalType":"bool"}],"outputs":[],"stateMutability":"nonpayable"},{"type":"function","name":"updateUserRegistry","inputs":[{"name":"_userRegistry","type":"address","internalType":"address"}],"outputs":[],"stateMutability":"nonpayable"},{"type":"function","name":"updateidealCollateralRatioLimit","inputs":[{"name":"_min","type":"uint256","internalType":"uint256"},{"name":"_max","type":"uint256","internalType":"uint256"}],"outputs":[],"stateMutability":"nonpayable"},{"type":"function","name":"usdcAsset","inputs":[],"outputs":[{"name":"","type":"address","internalType":"address"}],"stateMutability":"view"},{"type":"function","name":"userRegistry","inputs":[],"outputs":[{"name":"","type":"address","internalType":"address"}],"stateMutability":"view"},{"type":"event","name":"BorrowTokenUpdated","inputs":[{"name":"borrowToken","type":"address","indexed":true,"internalType":"address"},{"name":"isSupported","type":"bool","indexed":false,"internalType":"bool"}],"anonymous":false},{"type":"event","name":"CollateralTokenUpdated","inputs":[{"name":"collateralToken","type":"address","indexed":true,"internalType":"address"},{"name":"isSupported","type":"bool","indexed":false,"internalType":"bool"}],"anonymous":false},{"type":"event","name":"CollectionPeriodUpdated","inputs":[{"name":"updatedCollectionPeriod","type":"uint256","indexed":false,"internalType":"uint256"}],"anonymous":false},{"type":"event","name":"LimitsUpdated","inputs":[{"name":"limitType","type":"string","indexed":true,"internalType":"string"},{"name":"max","type":"uint256","indexed":false,"internalType":"uint256"},{"name":"min","type":"uint256","indexed":false,"internalType":"uint256"}],"anonymous":false},{"type":"event","name":"LiquidatorRewardFractionUpdated","inputs":[{"name":"updatedLiquidatorRewardFraction","type":"uint256","indexed":false,"internalType":"uint256"}],"anonymous":false},{"type":"event","name":"LoanWithdrawalDurationUpdated","inputs":[{"name":"updatedLoanWithdrawalDuration","type":"uint256","indexed":false,"internalType":"uint256"}],"anonymous":false},{"type":"event","name":"MarginCallDurationUpdated","inputs":[{"name":"updatedMarginCallDuration","type":"uint256","indexed":false,"internalType":"uint256"}],"anonymous":false},{"type":"event","name":"MinBorrowFractionUpdated","inputs":[{"name":"updatedMinBorrowFraction","type":"uint256","indexed":false,"internalType":"uint256"}],"anonymous":false},{"type":"event","name":"NoStrategyUpdated","inputs":[{"name":"noStrategy","type":"address","indexed":false,"internalType":"address"}],"anonymous":false},{"type":"event","name":"OwnershipTransferred","inputs":[{"name":"previousOwner","type":"address","indexed":true,"internalType":"address"},{"name":"newOwner","type":"address","indexed":true,"internalType":"address"}],"anonymous":false},{"type":"event","name":"PoolCancelPenaltyMultipleUpdated","inputs":[{"name":"updatedPoolCancelPenaltyMultiple","type":"uint256","indexed":false,"internalType":"uint256"}],"anonymous":false},{"type":"event","name":"PoolCreated","inputs":[{"name":"pool","type":"address","indexed":true,"internalType":"address"},{"name":"borrower","type":"address","indexed":true,"internalType":"address"}],"anonymous":false},{"type":"event","name":"PoolInitSelectorUpdated","inputs":[{"name":"updatedSelector","type":"bytes4","indexed":false,"internalType":"bytes4"}],"anonymous":false},{"type":"event","name":"PoolLogicUpdated","inputs":[{"name":"updatedPoolLogic","type":"address","indexed":true,"internalType":"address"}],"anonymous":false},{"type":"event","name":"PriceOracleUpdated","inputs":[{"name":"updatedPriceOracle","type":"address","indexed":true,"internalType":"address"}],"anonymous":false},{"type":"event","name":"ProtocolFeeCollectorUpdated","inputs":[{"name":"updatedProtocolFeeCollector","type":"address","indexed":false,"internalType":"address"}],"anonymous":false},{"type":"event","name":"ProtocolFeeFractionUpdated","inputs":[{"name":"updatedProtocolFee","type":"uint256","indexed":false,"internalType":"uint256"}],"anonymous":false},{"type":"event","name":"RepaymentImplUpdated","inputs":[{"name":"updatedRepaymentImpl","type":"address","indexed":true,"internalType":"address"}],"anonymous":false},{"type":"event","name":"SavingsAccountUpdated","inputs":[{"name":"savingsAccount","type":"address","indexed":true,"internalType":"address"}],"anonymous":false},{"type":"event","name":"StrategyRegistryUpdated","inputs":[{"name":"updatedStrategyRegistry","type":"address","indexed":true,"internalType":"address"}],"anonymous":false},{"type":"event","name":"UserRegistryUpdated","inputs":[{"name":"updatedBorrowerRegistry","type":"address","indexed":true,"internalType":"address"}],"anonymous":false}],"bytecode":{"object":"0x60a06040523480156200001157600080fd5b506040516200660538038062006605833981810160405260208110156200003757600080fd5b8101908080519060200190929190505050600073ffffffffffffffffffffffffffffffffffffffff168173ffffffffffffffffffffffffffffffffffffffff161415620000ec576040517f08c379a00000000000000000000000000000000000000000000000000000000081526004018080602001828103825260058152602001807f50463a433100000000000000000000000000000000000000000000000000000081525060200191505060405180910390fd5b8073ffffffffffffffffffffffffffffffffffffffff1660808173ffffffffffffffffffffffffffffffffffffffff1660601b815250505060805160601c6164be6200014760003980611d8a52806156fa52506164be6000f3fe60806040523480156200001157600080fd5b5060043610620003765760003560e01c80637cf0aec811620001e3578063c2bb7c8d116200011d578063de9de06e11620000b1578063edf7ae211162000087578063edf7ae21146200104f578063f136dd0314620010aa578063f2fde38b14620010d1578063fdc19bb714620011185762000376565b8063de9de06e1462000fad578063e030a06d1462000fde578063ecced62314620010195762000376565b8063d080bf2711620000f3578063d080bf271462000eae578063d3e024841462000ee4578063d541365f1462000f5f578063dd5f838d1462000f865762000376565b8063c2bb7c8d1462000e36578063c8ef511c1462000e56578063ce2f9f4c1462000e7d5762000376565b80638da5cb5b1162000195578063acca944f116200016b578063acca944f1462000d79578063b16c3f731462000d99578063ba9a2ba01462000dca578063bf98d5b01462000e055762000376565b80638da5cb5b1462000cc857806392f1079a1462000cfe5780639b9842c11462000d595762000376565b80637cf0aec814620009ef5780637d3edfee1462000a2a5780637faee5831462000a7d578063816a11211462000bab578063850a15011462000bcb5780638610292c1462000c015762000376565b8063461f9a0011620002b557806359659e9011620002675780636cf14f9d116200023d5780636cf14f9d146200090c578063715018a614620009535780637bad5207146200095f5780637be4a7b5146200099c5762000376565b806359659e9014620008595780635c7460d6146200088f578063651faffa14620008c55762000376565b8063461f9a0014620006ac5780634766162c14620006e25780634c1f2dc5146200073d578063525628de146200078457806352cd278314620007cb578063565b54ea14620008125762000376565b806324684daf116200032d5780632e37d82611620003035780632e37d82614620005ea5780632ecbf843146200063157806334c0af5414620006515780633a0298eb146200068c5762000376565b806324684daf146200055c5780632630c12f146200058357806329ae4a6f14620005b95762000376565b806302242546146200037b5780630485481714620004695780630971976e146200049a578063112dc9dc14620004ba578063171e108514620004eb57806317c03f071462000521575b600080fd5b6200046760048036036101608110156200039457600080fd5b81019080803573ffffffffffffffffffffffffffffffffffffffff16906020019092919080359060200190929190803590602001909291908035906020019092919080359060200190929190803590602001909291908035906020019092919080359060200190929190803573ffffffffffffffffffffffffffffffffffffffff169060200190929190803573ffffffffffffffffffffffffffffffffffffffff169060200190929190803573ffffffffffffffffffffffffffffffffffffffff1690602001909291905050506200114e565b005b62000498600480360360208110156200048157600080fd5b810190808035906020019092919050505062001322565b005b620004a46200145d565b6040518082815260200191505060405180910390f35b620004e960048036036020811015620004d257600080fd5b810190808035906020019092919050505062001463565b005b620004f56200159e565b604051808273ffffffffffffffffffffffffffffffffffffffff16815260200191505060405180910390f35b6200055a600480360360408110156200053957600080fd5b810190808035906020019092919080359060200190929190505050620015c4565b005b6200056662001823565b604051808381526020018281526020019250505060405180910390f35b6200058d62001835565b604051808273ffffffffffffffffffffffffffffffffffffffff16815260200191505060405180910390f35b620005e860048036036020811015620005d157600080fd5b81019080803590602001909291905050506200185b565b005b6200062f600480360360208110156200060257600080fd5b81019080803573ffffffffffffffffffffffffffffffffffffffff16906020019092919050505062001996565b005b6200063b62001b1d565b6040518082815260200191505060405180910390f35b6200068a600480360360408110156200066957600080fd5b81019080803590602001909291908035906020019092919050505062001b23565b005b6200069662001d82565b6040518082815260200191505060405180910390f35b620006b662001d88565b604051808273ffffffffffffffffffffffffffffffffffffffff16815260200191505060405180910390f35b6200072760048036036020811015620006fa57600080fd5b81019080803573ffffffffffffffffffffffffffffffffffffffff16906020019092919050505062001dac565b6040518082815260200191505060405180910390f35b62000782600480360360208110156200075557600080fd5b81019080803573ffffffffffffffffffffffffffffffffffffffff16906020019092919050505062001dc4565b005b620007c9600480360360208110156200079c57600080fd5b81019080803573ffffffffffffffffffffffffffffffffffffffff16906020019092919050505062001f4b565b005b6200081060048036036020811015620007e357600080fd5b81019080803573ffffffffffffffffffffffffffffffffffffffff169060200190929190505050620020d2565b005b62000857600480360360208110156200082a57600080fd5b81019080803573ffffffffffffffffffffffffffffffffffffffff16906020019092919050505062002259565b005b62000863620023e0565b604051808273ffffffffffffffffffffffffffffffffffffffff16815260200191505060405180910390f35b6200089962002406565b604051808273ffffffffffffffffffffffffffffffffffffffff16815260200191505060405180910390f35b6200090a60048036036020811015620008dd57600080fd5b81019080803573ffffffffffffffffffffffffffffffffffffffff1690602001909291905050506200242c565b005b62000951600480360360208110156200092457600080fd5b81019080803573ffffffffffffffffffffffffffffffffffffffff169060200190929190505050620025b2565b005b6200095d62002739565b005b62000969620028ae565b604051808381526020018273ffffffffffffffffffffffffffffffffffffffff1681526020019250505060405180910390f35b620009ed60048036036040811015620009b457600080fd5b81019080803573ffffffffffffffffffffffffffffffffffffffff169060200190929190803515159060200190929190505050620028df565b005b62000a286004803603604081101562000a0757600080fd5b810190808035906020019092919080359060200190929190505050620029a3565b005b62000a7b6004803603604081101562000a4257600080fd5b81019080803573ffffffffffffffffffffffffffffffffffffffff16906020019092919080351515906020019092919050505062002c02565b005b62000ba960048036036101a081101562000a9657600080fd5b810190808035906020019092919080359060200190929190803573ffffffffffffffffffffffffffffffffffffffff169060200190929190803573ffffffffffffffffffffffffffffffffffffffff16906020019092919080359060200190929190803567ffffffffffffffff169060200190929190803567ffffffffffffffff169060200190929190803573ffffffffffffffffffffffffffffffffffffffff1690602001909291908035906020019092919080351515906020019092919080359060200190929190803573ffffffffffffffffffffffffffffffffffffffff169060200190929190803573ffffffffffffffffffffffffffffffffffffffff16906020019092919050505062002cc6565b005b62000bb5620035bd565b6040518082815260200191505060405180910390f35b62000bd5620035c3565b604051808273ffffffffffffffffffffffffffffffffffffffff16815260200191505060405180910390f35b62000cc6600480360360a081101562000c1957600080fd5b81019080803573ffffffffffffffffffffffffffffffffffffffff169060200190929190803573ffffffffffffffffffffffffffffffffffffffff169060200190929190803573ffffffffffffffffffffffffffffffffffffffff169060200190929190803573ffffffffffffffffffffffffffffffffffffffff169060200190929190803573ffffffffffffffffffffffffffffffffffffffff169060200190929190505050620035e9565b005b62000cd2620036db565b604051808273ffffffffffffffffffffffffffffffffffffffff16815260200191505060405180910390f35b62000d436004803603602081101562000d1657600080fd5b81019080803573ffffffffffffffffffffffffffffffffffffffff169060200190929190505050620036ec565b6040518082815260200191505060405180910390f35b62000d6362003704565b6040518082815260200191505060405180910390f35b62000d836200370a565b6040518082815260200191505060405180910390f35b62000dc86004803603602081101562000db157600080fd5b810190808035906020019092919050505062003710565b005b62000e036004803603604081101562000de257600080fd5b8101908080359060200190929190803590602001909291905050506200384b565b005b62000e346004803603602081101562000e1d57600080fd5b810190808035906020019092919050505062003aaa565b005b62000e4062003be5565b6040518082815260200191505060405180910390f35b62000e6062003beb565b604051808381526020018281526020019250505060405180910390f35b62000eac6004803603602081101562000e9557600080fd5b810190808035906020019092919050505062003bfd565b005b62000eb862003d38565b604051808273ffffffffffffffffffffffffffffffffffffffff16815260200191505060405180910390f35b62000f336004803603604081101562000efc57600080fd5b81019080803573ffffffffffffffffffffffffffffffffffffffff1690602001909291908035906020019092919050505062003d5e565b604051808273ffffffffffffffffffffffffffffffffffffffff16815260200191505060405180910390f35b62000f6962003f80565b604051808381526020018281526020019250505060405180910390f35b62000f9062003f92565b604051808381526020018281526020019250505060405180910390f35b62000fdc6004803603602081101562000fc557600080fd5b810190808035906020019092919050505062003fa4565b005b620010176004803603604081101562000ff657600080fd5b810190808035906020019092919080359060200190929190505050620040df565b005b620010236200433e565b604051808273ffffffffffffffffffffffffffffffffffffffff16815260200191505060405180910390f35b62001094600480360360208110156200106757600080fd5b81019080803573ffffffffffffffffffffffffffffffffffffffff16906020019092919050505062004364565b6040518082815260200191505060405180910390f35b620010b46200437c565b604051808381526020018281526020019250505060405180910390f35b6200111660048036036020811015620010e957600080fd5b81019080803573ffffffffffffffffffffffffffffffffffffffff1690602001909291905050506200438e565b005b620011226200458a565b604051808273ffffffffffffffffffffffffffffffffffffffff16815260200191505060405180910390f35b600060019054906101000a900460ff16806200117057506200116f620045b0565b5b8062001187575060008054906101000a900460ff16155b620011de576040517f08c379a000000000000000000000000000000000000000000000000000000000815260040180806020018281038252602e8152602001806200643a602e913960400191505060405180910390fd5b60008060019054906101000a900460ff1615905080156200122f576001600060016101000a81548160ff02191690831515021790555060016000806101000a81548160ff0219169083151502179055505b62001239620045c3565b620012448c6200438e565b6200124f8b620046dd565b6200125a8a62004796565b62001265896200484f565b620012708862004908565b6200127b87620049c8565b620012868662004a09565b620012918562004ac9565b6200129c8462004b89565b620012a78362004cbe565b81609d60006101000a81548173ffffffffffffffffffffffffffffffffffffffff021916908373ffffffffffffffffffffffffffffffffffffffff160217905550620012f262004df3565b8015620013145760008060016101000a81548160ff0219169083151502179055505b505050505050505050505050565b6200132c62004f03565b73ffffffffffffffffffffffffffffffffffffffff166200134c620036db565b73ffffffffffffffffffffffffffffffffffffffff1614620013d6576040517f08c379a00000000000000000000000000000000000000000000000000000000081526004018080602001828103825260208152602001807f4f776e61626c653a2063616c6c6572206973206e6f7420746865206f776e657281525060200191505060405180910390fd5b80609f5414156200144f576040517f08c379a00000000000000000000000000000000000000000000000000000000081526004018080602001828103825260088152602001807f50463a554c57443100000000000000000000000000000000000000000000000081525060200191505060405180910390fd5b6200145a8162004796565b50565b609e5481565b6200146d62004f03565b73ffffffffffffffffffffffffffffffffffffffff166200148d620036db565b73ffffffffffffffffffffffffffffffffffffffff161462001517576040517f08c379a00000000000000000000000000000000000000000000000000000000081526004018080602001828103825260208152602001807f4f776e61626c653a2063616c6c6572206973206e6f7420746865206f776e657281525060200191505060405180910390fd5b8060a254141562001590576040517f08c379a00000000000000000000000000000000000000000000000000000000081526004018080602001828103825260088152602001807f50463a554c52463100000000000000000000000000000000000000000000000081525060200191505060405180910390fd5b6200159b8162004908565b50565b609960009054906101000a900473ffffffffffffffffffffffffffffffffffffffff1681565b620015ce62004f03565b73ffffffffffffffffffffffffffffffffffffffff16620015ee620036db565b73ffffffffffffffffffffffffffffffffffffffff161462001678576040517f08c379a00000000000000000000000000000000000000000000000000000000081526004018080602001828103825260208152602001807f4f776e61626c653a2063616c6c6572206973206e6f7420746865206f776e657281525060200191505060405180910390fd5b80821115620016ef576040517f08c379a00000000000000000000000000000000000000000000000000000000081526004018080602001828103825260098152602001807f50463a554e52494c31000000000000000000000000000000000000000000000081525060200191505060405180910390fd5b8160b1600001541480156200170857508060b160010154145b156200177c576040517f08c379a00000000000000000000000000000000000000000000000000000000081526004018080602001828103825260098152602001807f50463a554e52494c32000000000000000000000000000000000000000000000081525060200191505060405180910390fd5b60405180604001604052808381526020018281525060b1600082015181600001556020820151816001015590505060405180807f4e6f4f6652657061796d656e74496e74657276616c7300000000000000000000815250601601905060405180910390207fe9da20d631ef06f93c14c03acd9bc8f22141e6fce63b1066f76c903adb73ea408383604051808381526020018281526020019250505060405180910390a25050565b60ab8060000154908060010154905082565b609a60009054906101000a900473ffffffffffffffffffffffffffffffffffffffff1681565b6200186562004f03565b73ffffffffffffffffffffffffffffffffffffffff1662001885620036db565b73ffffffffffffffffffffffffffffffffffffffff16146200190f576040517f08c379a00000000000000000000000000000000000000000000000000000000081526004018080602001828103825260208152602001807f4f776e61626c653a2063616c6c6572206973206e6f7420746865206f776e657281525060200191505060405180910390fd5b80609e54141562001988576040517f08c379a00000000000000000000000000000000000000000000000000000000081526004018080602001828103825260078152602001807f50463a554350310000000000000000000000000000000000000000000000000081525060200191505060405180910390fd5b6200199381620046dd565b50565b620019a062004f03565b73ffffffffffffffffffffffffffffffffffffffff16620019c0620036db565b73ffffffffffffffffffffffffffffffffffffffff161462001a4a576040517f08c379a00000000000000000000000000000000000000000000000000000000081526004018080602001828103825260208152602001807f4f776e61626c653a2063616c6c6572206973206e6f7420746865206f776e657281525060200191505060405180910390fd5b8073ffffffffffffffffffffffffffffffffffffffff16609760009054906101000a900473ffffffffffffffffffffffffffffffffffffffff1673ffffffffffffffffffffffffffffffffffffffff16141562001b0f576040517f08c379a00000000000000000000000000000000000000000000000000000000081526004018080602001828103825260078152602001807f50463a555552310000000000000000000000000000000000000000000000000081525060200191505060405180910390fd5b62001b1a8162004f0b565b50565b609f5481565b62001b2d62004f03565b73ffffffffffffffffffffffffffffffffffffffff1662001b4d620036db565b73ffffffffffffffffffffffffffffffffffffffff161462001bd7576040517f08c379a00000000000000000000000000000000000000000000000000000000081526004018080602001828103825260208152602001807f4f776e61626c653a2063616c6c6572206973206e6f7420746865206f776e657281525060200191505060405180910390fd5b8082111562001c4e576040517f08c379a00000000000000000000000000000000000000000000000000000000081526004018080602001828103825260088152602001807f50463a5552494c3100000000000000000000000000000000000000000000000081525060200191505060405180910390fd5b8160af6000015414801562001c6757508060af60010154145b1562001cdb576040517f08c379a00000000000000000000000000000000000000000000000000000000081526004018080602001828103825260088152602001807f50463a5552494c3200000000000000000000000000000000000000000000000081525060200191505060405180910390fd5b60405180604001604052808381526020018281525060af600082015181600001556020820151816001015590505060405180807f52657061796d656e74496e74657276616c000000000000000000000000000000815250601101905060405180910390207fe9da20d631ef06f93c14c03acd9bc8f22141e6fce63b1066f76c903adb73ea408383604051808381526020018281526020019250505060405180910390a25050565b60a45481565b7f000000000000000000000000000000000000000000000000000000000000000081565b60a76020528060005260406000206000915090505481565b62001dce62004f03565b73ffffffffffffffffffffffffffffffffffffffff1662001dee620036db565b73ffffffffffffffffffffffffffffffffffffffff161462001e78576040517f08c379a00000000000000000000000000000000000000000000000000000000081526004018080602001828103825260208152602001807f4f776e61626c653a2063616c6c6572206973206e6f7420746865206f776e657281525060200191505060405180910390fd5b8073ffffffffffffffffffffffffffffffffffffffff16609860009054906101000a900473ffffffffffffffffffffffffffffffffffffffff1673ffffffffffffffffffffffffffffffffffffffff16141562001f3d576040517f08c379a00000000000000000000000000000000000000000000000000000000081526004018080602001828103825260078152602001807f50463a555352310000000000000000000000000000000000000000000000000081525060200191505060405180910390fd5b62001f488162005036565b50565b62001f5562004f03565b73ffffffffffffffffffffffffffffffffffffffff1662001f75620036db565b73ffffffffffffffffffffffffffffffffffffffff161462001fff576040517f08c379a00000000000000000000000000000000000000000000000000000000081526004018080602001828103825260208152602001807f4f776e61626c653a2063616c6c6572206973206e6f7420746865206f776e657281525060200191505060405180910390fd5b8073ffffffffffffffffffffffffffffffffffffffff16609c60009054906101000a900473ffffffffffffffffffffffffffffffffffffffff1673ffffffffffffffffffffffffffffffffffffffff161415620020c4576040517f08c379a00000000000000000000000000000000000000000000000000000000081526004018080602001828103825260078152602001807f50463a554e53310000000000000000000000000000000000000000000000000081525060200191505060405180910390fd5b620020cf8162004cbe565b50565b620020dc62004f03565b73ffffffffffffffffffffffffffffffffffffffff16620020fc620036db565b73ffffffffffffffffffffffffffffffffffffffff161462002186576040517f08c379a00000000000000000000000000000000000000000000000000000000081526004018080602001828103825260208152602001807f4f776e61626c653a2063616c6c6572206973206e6f7420746865206f776e657281525060200191505060405180910390fd5b8073ffffffffffffffffffffffffffffffffffffffff16609a60009054906101000a900473ffffffffffffffffffffffffffffffffffffffff1673ffffffffffffffffffffffffffffffffffffffff1614156200224b576040517f08c379a00000000000000000000000000000000000000000000000000000000081526004018080602001828103825260078152602001807f50463a55504f310000000000000000000000000000000000000000000000000081525060200191505060405180910390fd5b620022568162005161565b50565b6200226362004f03565b73ffffffffffffffffffffffffffffffffffffffff1662002283620036db565b73ffffffffffffffffffffffffffffffffffffffff16146200230d576040517f08c379a00000000000000000000000000000000000000000000000000000000081526004018080602001828103825260208152602001807f4f776e61626c653a2063616c6c6572206973206e6f7420746865206f776e657281525060200191505060405180910390fd5b8073ffffffffffffffffffffffffffffffffffffffff1660a560009054906101000a900473ffffffffffffffffffffffffffffffffffffffff1673ffffffffffffffffffffffffffffffffffffffff161415620023d2576040517f08c379a00000000000000000000000000000000000000000000000000000000081526004018080602001828103825260088152602001807f50463a555046433100000000000000000000000000000000000000000000000081525060200191505060405180910390fd5b620023dd8162004b89565b50565b609d60009054906101000a900473ffffffffffffffffffffffffffffffffffffffff1681565b609760009054906101000a900473ffffffffffffffffffffffffffffffffffffffff1681565b6200243662004f03565b73ffffffffffffffffffffffffffffffffffffffff1662002456620036db565b73ffffffffffffffffffffffffffffffffffffffff1614620024e0576040517f08c379a00000000000000000000000000000000000000000000000000000000081526004018080602001828103825260208152602001807f4f776e61626c653a2063616c6c6572206973206e6f7420746865206f776e657281525060200191505060405180910390fd5b8073ffffffffffffffffffffffffffffffffffffffff16609960009054906101000a900473ffffffffffffffffffffffffffffffffffffffff1673ffffffffffffffffffffffffffffffffffffffff1614620025a4576040517f08c379a00000000000000000000000000000000000000000000000000000000081526004018080602001828103825260078152602001807f50463a555249310000000000000000000000000000000000000000000000000081525060200191505060405180910390fd5b620025af816200528c565b50565b620025bc62004f03565b73ffffffffffffffffffffffffffffffffffffffff16620025dc620036db565b73ffffffffffffffffffffffffffffffffffffffff161462002666576040517f08c379a00000000000000000000000000000000000000000000000000000000081526004018080602001828103825260208152602001807f4f776e61626c653a2063616c6c6572206973206e6f7420746865206f776e657281525060200191505060405180910390fd5b8073ffffffffffffffffffffffffffffffffffffffff16609b60009054906101000a900473ffffffffffffffffffffffffffffffffffffffff1673ffffffffffffffffffffffffffffffffffffffff1614156200272b576040517f08c379a00000000000000000000000000000000000000000000000000000000081526004018080602001828103825260078152602001807f50463a555341310000000000000000000000000000000000000000000000000081525060200191505060405180910390fd5b6200273681620053b7565b50565b6200274362004f03565b73ffffffffffffffffffffffffffffffffffffffff1662002763620036db565b73ffffffffffffffffffffffffffffffffffffffff1614620027ed576040517f08c379a00000000000000000000000000000000000000000000000000000000081526004018080602001828103825260208152602001807f4f776e61626c653a2063616c6c6572206973206e6f7420746865206f776e657281525060200191505060405180910390fd5b600073ffffffffffffffffffffffffffffffffffffffff16606560009054906101000a900473ffffffffffffffffffffffffffffffffffffffff1673ffffffffffffffffffffffffffffffffffffffff167f8be0079c531659141344cd1fd0a4f28419497f9722a3daafe3b4186f6b6457e060405160405180910390a36000606560006101000a81548173ffffffffffffffffffffffffffffffffffffffff021916908373ffffffffffffffffffffffffffffffffffffffff160217905550565b60008060a45460a560009054906101000a900473ffffffffffffffffffffffffffffffffffffffff16915091509091565b620028e962004f03565b73ffffffffffffffffffffffffffffffffffffffff1662002909620036db565b73ffffffffffffffffffffffffffffffffffffffff161462002993576040517f08c379a00000000000000000000000000000000000000000000000000000000081526004018080602001828103825260208152602001807f4f776e61626c653a2063616c6c6572206973206e6f7420746865206f776e657281525060200191505060405180910390fd5b6200299f8282620054e2565b5050565b620029ad62004f03565b73ffffffffffffffffffffffffffffffffffffffff16620029cd620036db565b73ffffffffffffffffffffffffffffffffffffffff161462002a57576040517f08c379a00000000000000000000000000000000000000000000000000000000081526004018080602001828103825260208152602001807f4f776e61626c653a2063616c6c6572206973206e6f7420746865206f776e657281525060200191505060405180910390fd5b8082111562002ace576040517f08c379a00000000000000000000000000000000000000000000000000000000081526004018080602001828103825260088152602001807f50463a5550534c3100000000000000000000000000000000000000000000000081525060200191505060405180910390fd5b8160a96000015414801562002ae757508060a960010154145b1562002b5b576040517f08c379a00000000000000000000000000000000000000000000000000000000081526004018080602001828103825260088152602001807f50463a5550534c3200000000000000000000000000000000000000000000000081525060200191505060405180910390fd5b60405180604001604052808381526020018281525060a9600082015181600001556020820151816001015590505060405180807f506f6f6c53697a65000000000000000000000000000000000000000000000000815250600801905060405180910390207fe9da20d631ef06f93c14c03acd9bc8f22141e6fce63b1066f76c903adb73ea408383604051808381526020018281526020019250505060405180910390a25050565b62002c0c62004f03565b73ffffffffffffffffffffffffffffffffffffffff1662002c2c620036db565b73ffffffffffffffffffffffffffffffffffffffff161462002cb6576040517f08c379a00000000000000000000000000000000000000000000000000000000081526004018080602001828103825260208152602001807f4f776e61626c653a2063616c6c6572206973206e6f7420746865206f776e657281525060200191505060405180910390fd5b62002cc28282620055cc565b5050565b81609760009054906101000a900473ffffffffffffffffffffffffffffffffffffffff1673ffffffffffffffffffffffffffffffffffffffff166302d43dc833836040518363ffffffff1660e01b8152600401808373ffffffffffffffffffffffffffffffffffffffff1681526020018273ffffffffffffffffffffffffffffffffffffffff1681526020019250505060206040518083038186803b15801562002d6f57600080fd5b505afa15801562002d84573d6000803e3d6000fd5b505050506040513d602081101562002d9b57600080fd5b810190808051906020019092919050505062002e1f576040517f08c379a00000000000000000000000000000000000000000000000000000000081526004018080602001828103825260068152602001807f50463a4f4231000000000000000000000000000000000000000000000000000081525060200191505060405180910390fd5b6002600154141562002e99576040517f08c379a000000000000000000000000000000000000000000000000000000000815260040180806020018281038252601f8152602001807f5265656e7472616e637947756172643a207265656e7472616e742063616c6c0081525060200191505060405180910390fd5b60026001819055508a73ffffffffffffffffffffffffffffffffffffffff168c73ffffffffffffffffffffffffffffffffffffffff16141562002f44576040517f08c379a00000000000000000000000000000000000000000000000000000000081526004018080602001828103825260068152602001807f50463a435031000000000000000000000000000000000000000000000000000081525060200191505060405180910390fd5b600060a660008e73ffffffffffffffffffffffffffffffffffffffff1673ffffffffffffffffffffffffffffffffffffffff16815260200190815260200160002054141562002ffb576040517f08c379a00000000000000000000000000000000000000000000000000000000081526004018080602001828103825260068152602001807f50463a435032000000000000000000000000000000000000000000000000000081525060200191505060405180910390fd5b600060a760008d73ffffffffffffffffffffffffffffffffffffffff1673ffffffffffffffffffffffffffffffffffffffff168152602001908152602001600020541415620030b2576040517f08c379a00000000000000000000000000000000000000000000000000000000081526004018080602001828103825260068152602001807f50463a435033000000000000000000000000000000000000000000000000000081525060200191505060405180910390fd5b609a60009054906101000a900473ffffffffffffffffffffffffffffffffffffffff1673ffffffffffffffffffffffffffffffffffffffff1663633defbd8c8e6040518363ffffffff1660e01b8152600401808373ffffffffffffffffffffffffffffffffffffffff1681526020018273ffffffffffffffffffffffffffffffffffffffff1681526020019250505060206040518083038186803b1580156200315a57600080fd5b505afa1580156200316f573d6000803e3d6000fd5b505050506040513d60208110156200318657600080fd5b81019080805190602001909291905050506200320a576040517f08c379a00000000000000000000000000000000000000000000000000000000081526004018080602001828103825260068152602001807f50463a435034000000000000000000000000000000000000000000000000000081525060200191505060405180910390fd5b6000609860009054906101000a900473ffffffffffffffffffffffffffffffffffffffff1673ffffffffffffffffffffffffffffffffffffffff1663038defd7896040518263ffffffff1660e01b8152600401808273ffffffffffffffffffffffffffffffffffffffff16815260200191505060206040518083038186803b1580156200329657600080fd5b505afa158015620032ab573d6000803e3d6000fd5b505050506040513d6020811015620032c257600080fd5b8101908080519060200190929190505050141562003348576040517f08c379a00000000000000000000000000000000000000000000000000000000081526004018080602001828103825260068152602001807f50463a435035000000000000000000000000000000000000000000000000000081525060200191505060405180910390fd5b620033548c8f620056b6565b6200336b8a60ab6000015460ab600101546200588c565b620033de576040517f08c379a00000000000000000000000000000000000000000000000000000000081526004018080602001828103825260068152602001807f50463a435036000000000000000000000000000000000000000000000000000081525060200191505060405180910390fd5b620033f58d60ad6000015460ad600101546200588c565b62003468576040517f08c379a00000000000000000000000000000000000000000000000000000000081526004018080602001828103825260068152602001807f50463a435037000000000000000000000000000000000000000000000000000081525060200191505060405180910390fd5b620034898867ffffffffffffffff1660b16000015460b1600101546200588c565b620034fc576040517f08c379a00000000000000000000000000000000000000000000000000000000081526004018080602001828103825260068152602001807f50463a435038000000000000000000000000000000000000000000000000000081525060200191505060405180910390fd5b6200351d8967ffffffffffffffff1660af6000015460af600101546200588c565b62003590576040517f08c379a00000000000000000000000000000000000000000000000000000000081526004018080602001828103825260068152602001807f50463a435039000000000000000000000000000000000000000000000000000081525060200191505060405180910390fd5b620035a68e8e8e8e8e8e8e8e8e8e8e8d620058a8565b600180819055505050505050505050505050505050565b60a35481565b60a560009054906101000a900473ffffffffffffffffffffffffffffffffffffffff1681565b620035f362004f03565b73ffffffffffffffffffffffffffffffffffffffff1662003613620036db565b73ffffffffffffffffffffffffffffffffffffffff16146200369d576040517f08c379a00000000000000000000000000000000000000000000000000000000081526004018080602001828103825260208152602001807f4f776e61626c653a2063616c6c6572206973206e6f7420746865206f776e657281525060200191505060405180910390fd5b620036a8856200528c565b620036b381620053b7565b620036be8462004f0b565b620036c98362005036565b620036d48262005161565b5050505050565b6000620036e7620059c2565b905090565b60a66020528060005260406000206000915090505481565b60a05481565b60a25481565b6200371a62004f03565b73ffffffffffffffffffffffffffffffffffffffff166200373a620036db565b73ffffffffffffffffffffffffffffffffffffffff1614620037c4576040517f08c379a00000000000000000000000000000000000000000000000000000000081526004018080602001828103825260208152602001807f4f776e61626c653a2063616c6c6572206973206e6f7420746865206f776e657281525060200191505060405180910390fd5b8060a15414156200383d576040517f08c379a00000000000000000000000000000000000000000000000000000000081526004018080602001828103825260088152602001807f50463a554d42463100000000000000000000000000000000000000000000000081525060200191505060405180910390fd5b620038488162004a09565b50565b6200385562004f03565b73ffffffffffffffffffffffffffffffffffffffff1662003875620036db565b73ffffffffffffffffffffffffffffffffffffffff1614620038ff576040517f08c379a00000000000000000000000000000000000000000000000000000000081526004018080602001828103825260208152602001807f4f776e61626c653a2063616c6c6572206973206e6f7420746865206f776e657281525060200191505060405180910390fd5b8082111562003976576040517f08c379a00000000000000000000000000000000000000000000000000000000081526004018080602001828103825260098152602001807f50463a554943524c31000000000000000000000000000000000000000000000081525060200191505060405180910390fd5b8160ab600001541480156200398f57508060ab60010154145b1562003a03576040517f08c379a00000000000000000000000000000000000000000000000000000000081526004018080602001828103825260098152602001807f50463a554943524c32000000000000000000000000000000000000000000000081525060200191505060405180910390fd5b60405180604001604052808381526020018281525060ab600082015181600001556020820151816001015590505060405180807f436f6c6c61746572616c526174696f0000000000000000000000000000000000815250600f01905060405180910390207fe9da20d631ef06f93c14c03acd9bc8f22141e6fce63b1066f76c903adb73ea408383604051808381526020018281526020019250505060405180910390a25050565b62003ab462004f03565b73ffffffffffffffffffffffffffffffffffffffff1662003ad4620036db565b73ffffffffffffffffffffffffffffffffffffffff161462003b5e576040517f08c379a00000000000000000000000000000000000000000000000000000000081526004018080602001828103825260208152602001807f4f776e61626c653a2063616c6c6572206973206e6f7420746865206f776e657281525060200191505060405180910390fd5b8060a354141562003bd7576040517f08c379a00000000000000000000000000000000000000000000000000000000081526004018080602001828103825260098152602001807f50463a555043504d31000000000000000000000000000000000000000000000081525060200191505060405180910390fd5b62003be281620049c8565b50565b60a15481565b60a98060000154908060010154905082565b62003c0762004f03565b73ffffffffffffffffffffffffffffffffffffffff1662003c27620036db565b73ffffffffffffffffffffffffffffffffffffffff161462003cb1576040517f08c379a00000000000000000000000000000000000000000000000000000000081526004018080602001828103825260208152602001807f4f776e61626c653a2063616c6c6572206973206e6f7420746865206f776e657281525060200191505060405180910390fd5b8060a054141562003d2a576040517f08c379a00000000000000000000000000000000000000000000000000000000081526004018080602001828103825260088152602001807f50463a554d43443100000000000000000000000000000000000000000000000081525060200191505060405180910390fd5b62003d35816200484f565b50565b609860009054906101000a900473ffffffffffffffffffffffffffffffffffffffff1681565b60008282604051602001808373ffffffffffffffffffffffffffffffffffffffff1681526020018281526020019250505060405160208183030381529060405280519060200120915060006040518060200162003dbb90620061b0565b6020820181038252601f19601f82011660405250609d60009054906101000a900473ffffffffffffffffffffffffffffffffffffffff16604051602001808273ffffffffffffffffffffffffffffffffffffffff1681526020019150506040516020818303038152906040526040516020018083805190602001908083835b6020831062003e5f578051825260208201915060208101905060208303925062003e3a565b6001836020036101000a03801982511681845116808217855250505050505090500182805190602001908083835b6020831062003eb2578051825260208201915060208101905060208303925062003e8d565b6001836020036101000a038019825116818451168082178552505050505050905001925050506040516020818303038152906040529050600060ff60f81b3085848051906020012060405160200180857effffffffffffffffffffffffffffffffffffffffffffffffffffffffffffff191681526001018473ffffffffffffffffffffffffffffffffffffffff1660601b81526014018381526020018281526020019450505050506040516020818303038152906040528051906020012090508060001c9250505092915050565b60ad8060000154908060010154905082565b60af8060000154908060010154905082565b62003fae62004f03565b73ffffffffffffffffffffffffffffffffffffffff1662003fce620036db565b73ffffffffffffffffffffffffffffffffffffffff161462004058576040517f08c379a00000000000000000000000000000000000000000000000000000000081526004018080602001828103825260208152602001807f4f776e61626c653a2063616c6c6572206973206e6f7420746865206f776e657281525060200191505060405180910390fd5b8060a4541415620040d1576040517f08c379a00000000000000000000000000000000000000000000000000000000081526004018080602001828103825260088152602001807f50463a555046463100000000000000000000000000000000000000000000000081525060200191505060405180910390fd5b620040dc8162004ac9565b50565b620040e962004f03565b73ffffffffffffffffffffffffffffffffffffffff1662004109620036db565b73ffffffffffffffffffffffffffffffffffffffff161462004193576040517f08c379a00000000000000000000000000000000000000000000000000000000081526004018080602001828103825260208152602001807f4f776e61626c653a2063616c6c6572206973206e6f7420746865206f776e657281525060200191505060405180910390fd5b808211156200420a576040517f08c379a00000000000000000000000000000000000000000000000000000000081526004018080602001828103825260088152602001807f50463a5542524c3100000000000000000000000000000000000000000000000081525060200191505060405180910390fd5b8160ad600001541480156200422357508060ad60010154145b1562004297576040517f08c379a00000000000000000000000000000000000000000000000000000000081526004018080602001828103825260088152602001807f50463a5542524c3200000000000000000000000000000000000000000000000081525060200191505060405180910390fd5b60405180604001604052808381526020018281525060ad600082015181600001556020820151816001015590505060405180807f426f72726f775261746500000000000000000000000000000000000000000000815250600a01905060405180910390207fe9da20d631ef06f93c14c03acd9bc8f22141e6fce63b1066f76c903adb73ea408383604051808381526020018281526020019250505060405180910390a25050565b609b60009054906101000a900473ffffffffffffffffffffffffffffffffffffffff1681565b60a86020528060005260406000206000915090505481565b60b18060000154908060010154905082565b6200439862004f03565b73ffffffffffffffffffffffffffffffffffffffff16620043b8620036db565b73ffffffffffffffffffffffffffffffffffffffff161462004442576040517f08c379a00000000000000000000000000000000000000000000000000000000081526004018080602001828103825260208152602001807f4f776e61626c653a2063616c6c6572206973206e6f7420746865206f776e657281525060200191505060405180910390fd5b600073ffffffffffffffffffffffffffffffffffffffff168173ffffffffffffffffffffffffffffffffffffffff161415620044ca576040517f08c379a0000000000000000000000000000000000000000000000000000000008152600401808060200182810382526026815260200180620064146026913960400191505060405180910390fd5b8073ffffffffffffffffffffffffffffffffffffffff16606560009054906101000a900473ffffffffffffffffffffffffffffffffffffffff1673ffffffffffffffffffffffffffffffffffffffff167f8be0079c531659141344cd1fd0a4f28419497f9722a3daafe3b4186f6b6457e060405160405180910390a380606560006101000a81548173ffffffffffffffffffffffffffffffffffffffff021916908373ffffffffffffffffffffffffffffffffffffffff16021790555050565b609c60009054906101000a900473ffffffffffffffffffffffffffffffffffffffff1681565b6000620045bd30620059ec565b15905090565b600060019054906101000a900460ff1680620045e55750620045e4620045b0565b5b80620045fc575060008054906101000a900460ff16155b62004653576040517f08c379a000000000000000000000000000000000000000000000000000000000815260040180806020018281038252602e8152602001806200643a602e913960400191505060405180910390fd5b60008060019054906101000a900460ff161590508015620046a4576001600060016101000a81548160ff02191690831515021790555060016000806101000a81548160ff0219169083151502179055505b620046ae620059ff565b620046b862005b05565b8015620046da5760008060016101000a81548160ff0219169083151502179055505b50565b600081141562004755576040517f08c379a00000000000000000000000000000000000000000000000000000000081526004018080602001828103825260088152602001807f50463a495543503100000000000000000000000000000000000000000000000081525060200191505060405180910390fd5b80609e819055507f51aa68fcf65b26bbc5a9db0b5933c71c642bc16e263e1d8c9b018a3b951a2cda816040518082815260200191505060405180910390a150565b60008114156200480e576040517f08c379a00000000000000000000000000000000000000000000000000000000081526004018080602001828103825260098152602001807f50463a49554c574431000000000000000000000000000000000000000000000081525060200191505060405180910390fd5b80609f819055507fd6a9356dd756296ce3cba8ba26397e758b2901383e69042b3aa9749cb42660df816040518082815260200191505060405180910390a150565b6000811415620048c7576040517f08c379a00000000000000000000000000000000000000000000000000000000081526004018080602001828103825260098152602001807f50463a49554d434431000000000000000000000000000000000000000000000081525060200191505060405180910390fd5b8060a0819055507f1e85e6efe46a52b040a7311c9f1e10e4fcda6cae6b435437cb19b633e2e65544816040518082815260200191505060405180910390a150565b670de0b6b3a764000081111562004987576040517f08c379a00000000000000000000000000000000000000000000000000000000081526004018080602001828103825260098152602001807f50463a49554c524631000000000000000000000000000000000000000000000081525060200191505060405180910390fd5b8060a2819055507ffc9f5adb3ea0a0ee669d6b5200334f3bb22968c6e7b2eedf0e5819182319c522816040518082815260200191505060405180910390a150565b8060a3819055507f1d0216b43ffe9f782ea6ef5f36e1ab315d377139f1ca6cce36410a731da927d3816040518082815260200191505060405180910390a150565b670de0b6b3a764000081111562004a88576040517f08c379a00000000000000000000000000000000000000000000000000000000081526004018080602001828103825260098152602001807f50463a49554d424631000000000000000000000000000000000000000000000081525060200191505060405180910390fd5b8060a1819055507fab19dd83cf2702c5ea79dac2821419054aadccdd02bc909d34abca761dbcf46f816040518082815260200191505060405180910390a150565b670de0b6b3a764000081111562004b48576040517f08c379a00000000000000000000000000000000000000000000000000000000081526004018080602001828103825260098152602001807f50463a495550464631000000000000000000000000000000000000000000000081525060200191505060405180910390fd5b8060a4819055507fcfd641dab5b2592643d4b878bf2b771142aff4595263753dc7611f947749999d816040518082815260200191505060405180910390a150565b600073ffffffffffffffffffffffffffffffffffffffff168173ffffffffffffffffffffffffffffffffffffffff16141562004c2d576040517f08c379a00000000000000000000000000000000000000000000000000000000081526004018080602001828103825260098152602001807f50463a495550464331000000000000000000000000000000000000000000000081525060200191505060405180910390fd5b8060a560006101000a81548173ffffffffffffffffffffffffffffffffffffffff021916908373ffffffffffffffffffffffffffffffffffffffff1602179055507f33837f672315b6cffcf11894714abfdec631a913c18d7738fcaf40c444376fb681604051808273ffffffffffffffffffffffffffffffffffffffff16815260200191505060405180910390a150565b600073ffffffffffffffffffffffffffffffffffffffff168173ffffffffffffffffffffffffffffffffffffffff16141562004d62576040517f08c379a00000000000000000000000000000000000000000000000000000000081526004018080602001828103825260088152602001807f50463a49554e533100000000000000000000000000000000000000000000000081525060200191505060405180910390fd5b80609c60006101000a81548173ffffffffffffffffffffffffffffffffffffffff021916908373ffffffffffffffffffffffffffffffffffffffff1602179055507f5c20b3f1e74533e6e7806bcc88a942b6ed5b52427a621d9e63197f82c88e431c81604051808273ffffffffffffffffffffffffffffffffffffffff16815260200191505060405180910390a150565b600060019054906101000a900460ff168062004e15575062004e14620045b0565b5b8062004e2c575060008054906101000a900460ff16155b62004e83576040517f08c379a000000000000000000000000000000000000000000000000000000000815260040180806020018281038252602e8152602001806200643a602e913960400191505060405180910390fd5b60008060019054906101000a900460ff16159050801562004ed4576001600060016101000a81548160ff02191690831515021790555060016000806101000a81548160ff0219169083151502179055505b62004ede62005cb6565b801562004f005760008060016101000a81548160ff0219169083151502179055505b50565b600033905090565b600073ffffffffffffffffffffffffffffffffffffffff168173ffffffffffffffffffffffffffffffffffffffff16141562004faf576040517f08c379a00000000000000000000000000000000000000000000000000000000081526004018080602001828103825260088152602001807f50463a495555523100000000000000000000000000000000000000000000000081525060200191505060405180910390fd5b80609760006101000a81548173ffffffffffffffffffffffffffffffffffffffff021916908373ffffffffffffffffffffffffffffffffffffffff1602179055508073ffffffffffffffffffffffffffffffffffffffff167fed714fbe17e15258cc6c9677fcfc9b57807561d3c4ff5c776fd00508f9dc53b960405160405180910390a250565b600073ffffffffffffffffffffffffffffffffffffffff168173ffffffffffffffffffffffffffffffffffffffff161415620050da576040517f08c379a00000000000000000000000000000000000000000000000000000000081526004018080602001828103825260088152602001807f50463a495553523100000000000000000000000000000000000000000000000081525060200191505060405180910390fd5b80609860006101000a81548173ffffffffffffffffffffffffffffffffffffffff021916908373ffffffffffffffffffffffffffffffffffffffff1602179055508073ffffffffffffffffffffffffffffffffffffffff167f0ae0dc70cd51233fb6650002520dcd7be97d65702ded4fbd4fc907773269358860405160405180910390a250565b600073ffffffffffffffffffffffffffffffffffffffff168173ffffffffffffffffffffffffffffffffffffffff16141562005205576040517f08c379a00000000000000000000000000000000000000000000000000000000081526004018080602001828103825260088152602001807f50463a4955504f3100000000000000000000000000000000000000000000000081525060200191505060405180910390fd5b80609a60006101000a81548173ffffffffffffffffffffffffffffffffffffffff021916908373ffffffffffffffffffffffffffffffffffffffff1602179055508073ffffffffffffffffffffffffffffffffffffffff167fefe8ab924ca486283a79dc604baa67add51afb82af1db8ac386ebbba643cdffd60405160405180910390a250565b600073ffffffffffffffffffffffffffffffffffffffff168173ffffffffffffffffffffffffffffffffffffffff16141562005330576040517f08c379a00000000000000000000000000000000000000000000000000000000081526004018080602001828103825260088152602001807f50463a495552493100000000000000000000000000000000000000000000000081525060200191505060405180910390fd5b80609960006101000a81548173ffffffffffffffffffffffffffffffffffffffff021916908373ffffffffffffffffffffffffffffffffffffffff1602179055508073ffffffffffffffffffffffffffffffffffffffff167fc5d97bee24802645337b82f06929eb7187d3e96d3abfde102b4b5d316c1b981360405160405180910390a250565b600073ffffffffffffffffffffffffffffffffffffffff168173ffffffffffffffffffffffffffffffffffffffff1614156200545b576040517f08c379a00000000000000000000000000000000000000000000000000000000081526004018080602001828103825260088152602001807f50463a495553413100000000000000000000000000000000000000000000000081525060200191505060405180910390fd5b80609b60006101000a81548173ffffffffffffffffffffffffffffffffffffffff021916908373ffffffffffffffffffffffffffffffffffffffff1602179055508073ffffffffffffffffffffffffffffffffffffffff167f5e8a3d56d9512a62f643367551a65727148c2516dce6b54956df80926dd2536c60405160405180910390a250565b80156200553457600160a660008473ffffffffffffffffffffffffffffffffffffffff1673ffffffffffffffffffffffffffffffffffffffff1681526020019081526020016000208190555062005578565b60a660008373ffffffffffffffffffffffffffffffffffffffff1673ffffffffffffffffffffffffffffffffffffffff168152602001908152602001600020600090555b8173ffffffffffffffffffffffffffffffffffffffff167fa6c7f9eef436525b9c658fcc90c25e3f399534d7f6654a4204f89690117ec26e8260405180821515815260200191505060405180910390a25050565b80156200561e57600160a760008473ffffffffffffffffffffffffffffffffffffffff1673ffffffffffffffffffffffffffffffffffffffff1681526020019081526020016000208190555062005662565b60a760008373ffffffffffffffffffffffffffffffffffffffff1673ffffffffffffffffffffffffffffffffffffffff168152602001908152602001600020600090555b8173ffffffffffffffffffffffffffffffffffffffff167fa8465fce7714e145603abc61f76c96665912ca5d2f9b7dd67f27349d83294d628260405180821515815260200191505060405180910390a25050565b600080609a60009054906101000a900473ffffffffffffffffffffffffffffffffffffffff1673ffffffffffffffffffffffffffffffffffffffff166310603c11857f00000000000000000000000000000000000000000000000000000000000000006040518363ffffffff1660e01b8152600401808373ffffffffffffffffffffffffffffffffffffffff1681526020018273ffffffffffffffffffffffffffffffffffffffff16815260200192505050604080518083038186803b1580156200578057600080fd5b505afa15801562005795573d6000803e3d6000fd5b505050506040513d6040811015620057ac57600080fd5b810190808051906020019092919080519060200190929190505050915091506000620057f982600a0a620057ea858762005dc390919063ffffffff16565b62005e4e90919063ffffffff16565b9050620058128160a96000015460a9600101546200588c565b62005885576040517f08c379a00000000000000000000000000000000000000000000000000000000081526004018080602001828103825260088152602001807f50463a494c50553100000000000000000000000000000000000000000000000081525060200191505060405180910390fd5b5050505050565b60008284101580156200589f5750818411155b90509392505050565b3382604051602001808373ffffffffffffffffffffffffffffffffffffffff168152602001828152602001925050506040516020818303038152906040528051906020012091506000620058fc8362005ed9565b905062005914818e8e8e8e8e8e8e8e8e8e8d6200603f565b600160a860008373ffffffffffffffffffffffffffffffffffffffff1673ffffffffffffffffffffffffffffffffffffffff168152602001908152602001600020819055503373ffffffffffffffffffffffffffffffffffffffff168173ffffffffffffffffffffffffffffffffffffffff167f4f2ce4e40f623ca765fc0167a25cb7842ceaafb8d82d3dec26ca0d0e0d2d489660405160405180910390a350505050505050505050505050565b6000606560009054906101000a900473ffffffffffffffffffffffffffffffffffffffff16905090565b600080823b905060008111915050919050565b600060019054906101000a900460ff168062005a21575062005a20620045b0565b5b8062005a38575060008054906101000a900460ff16155b62005a8f576040517f08c379a000000000000000000000000000000000000000000000000000000000815260040180806020018281038252602e8152602001806200643a602e913960400191505060405180910390fd5b60008060019054906101000a900460ff16159050801562005ae0576001600060016101000a81548160ff02191690831515021790555060016000806101000a81548160ff0219169083151502179055505b801562005b025760008060016101000a81548160ff0219169083151502179055505b50565b600060019054906101000a900460ff168062005b27575062005b26620045b0565b5b8062005b3e575060008054906101000a900460ff16155b62005b95576040517f08c379a000000000000000000000000000000000000000000000000000000000815260040180806020018281038252602e8152602001806200643a602e913960400191505060405180910390fd5b60008060019054906101000a900460ff16159050801562005be6576001600060016101000a81548160ff02191690831515021790555060016000806101000a81548160ff0219169083151502179055505b600062005bf262004f03565b905080606560006101000a81548173ffffffffffffffffffffffffffffffffffffffff021916908373ffffffffffffffffffffffffffffffffffffffff1602179055508073ffffffffffffffffffffffffffffffffffffffff16600073ffffffffffffffffffffffffffffffffffffffff167f8be0079c531659141344cd1fd0a4f28419497f9722a3daafe3b4186f6b6457e060405160405180910390a350801562005cb35760008060016101000a81548160ff0219169083151502179055505b50565b600060019054906101000a900460ff168062005cd8575062005cd7620045b0565b5b8062005cef575060008054906101000a900460ff16155b62005d46576040517f08c379a000000000000000000000000000000000000000000000000000000000815260040180806020018281038252602e8152602001806200643a602e913960400191505060405180910390fd5b60008060019054906101000a900460ff16159050801562005d97576001600060016101000a81548160ff02191690831515021790555060016000806101000a81548160ff0219169083151502179055505b60018081905550801562005dc05760008060016101000a81548160ff0219169083151502179055505b50565b60008083141562005dd8576000905062005e48565b600082840290508284828162005dea57fe5b041462005e43576040517f08c379a0000000000000000000000000000000000000000000000000000000008152600401808060200182810382526021815260200180620064686021913960400191505060405180910390fd5b809150505b92915050565b600080821162005ec6576040517f08c379a000000000000000000000000000000000000000000000000000000000815260040180806020018281038252601a8152602001807f536166654d6174683a206469766973696f6e206279207a65726f00000000000081525060200191505060405180910390fd5b81838162005ed057fe5b04905092915050565b60008060006040518060200162005ef090620061b0565b6020820181038252601f19601f82011660405250609d60009054906101000a900473ffffffffffffffffffffffffffffffffffffffff16604051602001808273ffffffffffffffffffffffffffffffffffffffff1681526020019150506040516020818303038152906040526040516020018083805190602001908083835b6020831062005f94578051825260208201915060208101905060208303925062005f6f565b6001836020036101000a03801982511681845116808217855250505050505090500182805190602001908083835b6020831062005fe7578051825260208201915060208101905060208303925062005fc2565b6001836020036101000a0380198251168184511680821785525050505050509050019250505060405160208183030381529060405290508381516020830134f59150813b6200603557600080fd5b8192505050919050565b60008c90508073ffffffffffffffffffffffffffffffffffffffff1663899883638d8d338e8e8e8e8e8e8e8e8e609f54609e546040518f63ffffffff1660e01b8152600401808f81526020018e81526020018d73ffffffffffffffffffffffffffffffffffffffff1681526020018c73ffffffffffffffffffffffffffffffffffffffff1681526020018b73ffffffffffffffffffffffffffffffffffffffff1681526020018a81526020018967ffffffffffffffff1681526020018867ffffffffffffffff1681526020018773ffffffffffffffffffffffffffffffffffffffff16815260200186815260200185151581526020018473ffffffffffffffffffffffffffffffffffffffff1681526020018381526020018281526020019e505050505050505050505050505050600060405180830381600087803b1580156200618857600080fd5b505af11580156200619d573d6000803e3d6000fd5b5050505050505050505050505050505050565b61025580620061bf8339019056fe60a060405234801561001057600080fd5b506040516102553803806102558339818101604052602081101561003357600080fd5b8101908080519060200190929190505050600073ffffffffffffffffffffffffffffffffffffffff168173ffffffffffffffffffffffffffffffffffffffff1614156100e7576040517f08c379a00000000000000000000000000000000000000000000000000000000081526004018080602001828103825260078152602001807f4d4250323a43310000000000000000000000000000000000000000000000000081525060200191505060405180910390fd5b8073ffffffffffffffffffffffffffffffffffffffff1660808173ffffffffffffffffffffffffffffffffffffffff1660601b815250505060805160601c61011a61013b600039806043525061011a6000f3fe6080604052348015600f57600080fd5b5060006018603f565b90503660008037600080366000845af43d6000803e8060008114603a573d6000f35b3d6000fd5b60007f000000000000000000000000000000000000000000000000000000000000000073ffffffffffffffffffffffffffffffffffffffff16635c60da1b6040518163ffffffff1660e01b815260040160206040518083038186803b15801560a657600080fd5b505afa15801560b9573d6000803e3d6000fd5b505050506040513d602081101560ce57600080fd5b810190808051906020019092919050505090509056fea26469706673582212207ba268ffb445e5594487d8b22d8a1bfd7ee64d8a38c5559b5328e275f28f60b164736f6c634300070600334f776e61626c653a206e6577206f776e657220697320746865207a65726f2061646472657373496e697469616c697a61626c653a20636f6e747261637420697320616c726561647920696e697469616c697a6564536166654d6174683a206d756c7469706c69636174696f6e206f766572666c6f77a264697066735822122095697e946fb9338432125d177c76188a7e0fe0793ced3b4b3cb7f9102344997664736f6c63430007060033","linkReferences":{}},"methodIdentifiers":{"beacon()":"59659e90","borrowRateLimit()":"d541365f","collectionPeriod()":"0971976e","createPool(uint256,uint256,address,address,uint256,uint64,uint64,address,uint256,bool,bytes32,address,address)":"7faee583","getProtocolFeeData()":"7bad5207","idealCollateralRatioLimit()":"24684daf","initialize(address,uint256,uint256,uint256,uint256,uint256,uint256,uint256,address,address,address)":"02242546","isBorrowToken(address)":"92f1079a","isCollateralToken(address)":"4766162c","liquidatorRewardFraction()":"acca944f","loanWithdrawalDuration()":"2ecbf843","marginCallDuration()":"9b9842c1","minBorrowFraction()":"c2bb7c8d","noOfRepaymentIntervalsLimit()":"f136dd03","noStrategyAddress()":"fdc19bb7","owner()":"8da5cb5b","poolCancelPenaltyMultiple()":"816a1121","poolRegistry(address)":"edf7ae21","poolSizeLimit()":"c8ef511c","preComputeAddress(address,bytes32)":"d3e02484","priceOracle()":"2630c12f","protocolFeeCollector()":"850a1501","protocolFeeFraction()":"3a0298eb","renounceOwnership()":"715018a6","repaymentImpl()":"171e1085","repaymentIntervalLimit()":"dd5f838d","savingsAccount()":"ecced623","setImplementations(address,address,address,address,address)":"8610292c","strategyRegistry()":"d080bf27","transferOwnership(address)":"f2fde38b","updateBorrowRateLimit(uint256,uint256)":"e030a06d","updateCollectionPeriod(uint256)":"29ae4a6f","updateLiquidatorRewardFraction(uint256)":"112dc9dc","updateLoanWithdrawalDuration(uint256)":"04854817","updateMarginCallDuration(uint256)":"ce2f9f4c","updateMinBorrowFraction(uint256)":"b16c3f73","updateNoOfRepaymentIntervalsLimit(uint256,uint256)":"17c03f07","updateNoStrategy(address)":"525628de","updatePoolCancelPenaltyMultiple(uint256)":"bf98d5b0","updatePoolSizeLimit(uint256,uint256)":"7cf0aec8","updatePriceoracle(address)":"52cd2783","updateProtocolFeeCollector(address)":"565b54ea","updateProtocolFeeFraction(uint256)":"de9de06e","updateRepaymentImpl(address)":"651faffa","updateRepaymentIntervalLimit(uint256,uint256)":"34c0af54","updateSavingsAccount(address)":"6cf14f9d","updateStrategyRegistry(address)":"4c1f2dc5","updateSupportedBorrowTokens(address,bool)":"7be4a7b5","updateSupportedCollateralTokens(address,bool)":"7d3edfee","updateUserRegistry(address)":"2e37d826","updateidealCollateralRatioLimit(uint256,uint256)":"ba9a2ba0","usdcAsset()":"461f9a00","userRegistry()":"5c7460d6"},"id":7}