{
  "_format": "hh-sol-artifact-1",
  "contractName": "UniqueEligibility",
  "sourceName": "contracts/solidity/eligibility/UniqueEligibility.sol",
  "abi": [
    {
      "anonymous": false,
      "inputs": [
        {
          "indexed": false,
          "internalType": "uint256[]",
          "name": "tokenIds",
          "type": "uint256[]"
        },
        {
          "indexed": false,
          "internalType": "bool",
          "name": "isEligible",
          "type": "bool"
        }
      ],
      "name": "UniqueEligibilitiesSet",
      "type": "event"
    },
    {
      "inputs": [
        {
          "internalType": "uint256",
          "name": "tokenId",
          "type": "uint256"
        }
      ],
      "name": "isUniqueEligible",
      "outputs": [
        {
          "internalType": "bool",
          "name": "",
          "type": "bool"
        }
      ],
      "stateMutability": "view",
      "type": "function"
    }
  ],
  "bytecode": "0x608060405234801561001057600080fd5b5061014f806100206000396000f3fe608060405234801561001057600080fd5b506004361061002b5760003560e01c80633942cf3614610030575b600080fd5b61004361003e3660046100aa565b610057565b604051901515815260200160405180910390f35b600080610066610100846100c2565b600081815260208190526040902054909150610082818561008a565b949350505050565b600080610099610100846100d6565b9390931c6001908116149392505050565b6000602082840312156100bb578081fd5b5035919050565b6000826100d1576100d16100ea565b500490565b6000826100e5576100e56100ea565b500690565b7f4e487b7100000000000000000000000000000000000000000000000000000000600052601260045260246000fdfea264697066735822122057491331b2867a70be7b8203f984acf36ecf6b9b9e23dcff442b7965b2df6a5364736f6c63430008040033",
  "linkReferences": {},
  "deployedLinkReferences": {}
}