{
  "contracts/solidity/testing/CryptoPunks.sol": {
    "CryptoPunksMarket": {
      "abi": [
        {
          "inputs": [],
          "stateMutability": "payable",
          "type": "constructor"
        },
        {
          "anonymous": false,
          "inputs": [
            {
              "indexed": true,
              "internalType": "address",
              "name": "to",
              "type": "address"
            },
            {
              "indexed": false,
              "internalType": "uint256",
              "name": "punkIndex",
              "type": "uint256"
            }
          ],
          "name": "Assign",
          "type": "event"
        },
        {
          "anonymous": false,
          "inputs": [
            {
              "indexed": true,
              "internalType": "uint256",
              "name": "punkIndex",
              "type": "uint256"
            },
            {
              "indexed": false,
              "internalType": "uint256",
              "name": "value",
              "type": "uint256"
            },
            {
              "indexed": true,
              "internalType": "address",
              "name": "fromAddress",
              "type": "address"
            }
          ],
          "name": "PunkBidEntered",
          "type": "event"
        },
        {
          "anonymous": false,
          "inputs": [
            {
              "indexed": true,
              "internalType": "uint256",
              "name": "punkIndex",
              "type": "uint256"
            },
            {
              "indexed": false,
              "internalType": "uint256",
              "name": "value",
              "type": "uint256"
            },
            {
              "indexed": true,
              "internalType": "address",
              "name": "fromAddress",
              "type": "address"
            }
          ],
          "name": "PunkBidWithdrawn",
          "type": "event"
        },
        {
          "anonymous": false,
          "inputs": [
            {
              "indexed": true,
              "internalType": "uint256",
              "name": "punkIndex",
              "type": "uint256"
            },
            {
              "indexed": false,
              "internalType": "uint256",
              "name": "value",
              "type": "uint256"
            },
            {
              "indexed": true,
              "internalType": "address",
              "name": "fromAddress",
              "type": "address"
            },
            {
              "indexed": true,
              "internalType": "address",
              "name": "toAddress",
              "type": "address"
            }
          ],
          "name": "PunkBought",
          "type": "event"
        },
        {
          "anonymous": false,
          "inputs": [
            {
              "indexed": true,
              "internalType": "uint256",
              "name": "punkIndex",
              "type": "uint256"
            }
          ],
          "name": "PunkNoLongerForSale",
          "type": "event"
        },
        {
          "anonymous": false,
          "inputs": [
            {
              "indexed": true,
              "internalType": "uint256",
              "name": "punkIndex",
              "type": "uint256"
            },
            {
              "indexed": false,
              "internalType": "uint256",
              "name": "minValue",
              "type": "uint256"
            },
            {
              "indexed": true,
              "internalType": "address",
              "name": "toAddress",
              "type": "address"
            }
          ],
          "name": "PunkOffered",
          "type": "event"
        },
        {
          "anonymous": false,
          "inputs": [
            {
              "indexed": true,
              "internalType": "address",
              "name": "from",
              "type": "address"
            },
            {
              "indexed": true,
              "internalType": "address",
              "name": "to",
              "type": "address"
            },
            {
              "indexed": false,
              "internalType": "uint256",
              "name": "punkIndex",
              "type": "uint256"
            }
          ],
          "name": "PunkTransfer",
          "type": "event"
        },
        {
          "anonymous": false,
          "inputs": [
            {
              "indexed": true,
              "internalType": "address",
              "name": "from",
              "type": "address"
            },
            {
              "indexed": true,
              "internalType": "address",
              "name": "to",
              "type": "address"
            },
            {
              "indexed": false,
              "internalType": "uint256",
              "name": "value",
              "type": "uint256"
            }
          ],
          "name": "Transfer",
          "type": "event"
        },
        {
          "inputs": [
            {
              "internalType": "uint256",
              "name": "punkIndex",
              "type": "uint256"
            },
            {
              "internalType": "uint256",
              "name": "minPrice",
              "type": "uint256"
            }
          ],
          "name": "acceptBidForPunk",
          "outputs": [],
          "stateMutability": "nonpayable",
          "type": "function"
        },
        {
          "inputs": [],
          "name": "allInitialOwnersAssigned",
          "outputs": [],
          "stateMutability": "nonpayable",
          "type": "function"
        },
        {
          "inputs": [],
          "name": "allPunksAssigned",
          "outputs": [
            {
              "internalType": "bool",
              "name": "",
              "type": "bool"
            }
          ],
          "stateMutability": "view",
          "type": "function"
        },
        {
          "inputs": [
            {
              "internalType": "address",
              "name": "",
              "type": "address"
            }
          ],
          "name": "balanceOf",
          "outputs": [
            {
              "internalType": "uint256",
              "name": "",
              "type": "uint256"
            }
          ],
          "stateMutability": "view",
          "type": "function"
        },
        {
          "inputs": [
            {
              "internalType": "uint256",
              "name": "punkIndex",
              "type": "uint256"
            }
          ],
          "name": "buyPunk",
          "outputs": [],
          "stateMutability": "payable",
          "type": "function"
        },
        {
          "inputs": [],
          "name": "decimals",
          "outputs": [
            {
              "internalType": "uint8",
              "name": "",
              "type": "uint8"
            }
          ],
          "stateMutability": "view",
          "type": "function"
        },
        {
          "inputs": [
            {
              "internalType": "uint256",
              "name": "punkIndex",
              "type": "uint256"
            }
          ],
          "name": "enterBidForPunk",
          "outputs": [],
          "stateMutability": "payable",
          "type": "function"
        },
        {
          "inputs": [
            {
              "internalType": "uint256",
              "name": "punkIndex",
              "type": "uint256"
            }
          ],
          "name": "getPunk",
          "outputs": [],
          "stateMutability": "nonpayable",
          "type": "function"
        },
        {
          "inputs": [],
          "name": "imageHash",
          "outputs": [
            {
              "internalType": "string",
              "name": "",
              "type": "string"
            }
          ],
          "stateMutability": "view",
          "type": "function"
        },
        {
          "inputs": [],
          "name": "name",
          "outputs": [
            {
              "internalType": "string",
              "name": "",
              "type": "string"
            }
          ],
          "stateMutability": "view",
          "type": "function"
        },
        {
          "inputs": [],
          "name": "nextPunkIndexToAssign",
          "outputs": [
            {
              "internalType": "uint256",
              "name": "",
              "type": "uint256"
            }
          ],
          "stateMutability": "view",
          "type": "function"
        },
        {
          "inputs": [
            {
              "internalType": "uint256",
              "name": "punkIndex",
              "type": "uint256"
            },
            {
              "internalType": "uint256",
              "name": "minSalePriceInWei",
              "type": "uint256"
            }
          ],
          "name": "offerPunkForSale",
          "outputs": [],
          "stateMutability": "nonpayable",
          "type": "function"
        },
        {
          "inputs": [
            {
              "internalType": "uint256",
              "name": "punkIndex",
              "type": "uint256"
            },
            {
              "internalType": "uint256",
              "name": "minSalePriceInWei",
              "type": "uint256"
            },
            {
              "internalType": "address",
              "name": "toAddress",
              "type": "address"
            }
          ],
          "name": "offerPunkForSaleToAddress",
          "outputs": [],
          "stateMutability": "nonpayable",
          "type": "function"
        },
        {
          "inputs": [
            {
              "internalType": "address",
              "name": "",
              "type": "address"
            }
          ],
          "name": "pendingWithdrawals",
          "outputs": [
            {
              "internalType": "uint256",
              "name": "",
              "type": "uint256"
            }
          ],
          "stateMutability": "view",
          "type": "function"
        },
        {
          "inputs": [
            {
              "internalType": "uint256",
              "name": "",
              "type": "uint256"
            }
          ],
          "name": "punkBids",
          "outputs": [
            {
              "internalType": "bool",
              "name": "hasBid",
              "type": "bool"
            },
            {
              "internalType": "uint256",
              "name": "punkIndex",
              "type": "uint256"
            },
            {
              "internalType": "address",
              "name": "bidder",
              "type": "address"
            },
            {
              "internalType": "uint256",
              "name": "value",
              "type": "uint256"
            }
          ],
          "stateMutability": "view",
          "type": "function"
        },
        {
          "inputs": [
            {
              "internalType": "uint256",
              "name": "",
              "type": "uint256"
            }
          ],
          "name": "punkIndexToAddress",
          "outputs": [
            {
              "internalType": "address",
              "name": "",
              "type": "address"
            }
          ],
          "stateMutability": "view",
          "type": "function"
        },
        {
          "inputs": [
            {
              "internalType": "uint256",
              "name": "punkIndex",
              "type": "uint256"
            }
          ],
          "name": "punkNoLongerForSale",
          "outputs": [],
          "stateMutability": "nonpayable",
          "type": "function"
        },
        {
          "inputs": [
            {
              "internalType": "uint256",
              "name": "",
              "type": "uint256"
            }
          ],
          "name": "punksOfferedForSale",
          "outputs": [
            {
              "internalType": "bool",
              "name": "isForSale",
              "type": "bool"
            },
            {
              "internalType": "uint256",
              "name": "punkIndex",
              "type": "uint256"
            },
            {
              "internalType": "address",
              "name": "seller",
              "type": "address"
            },
            {
              "internalType": "uint256",
              "name": "minValue",
              "type": "uint256"
            },
            {
              "internalType": "address",
              "name": "onlySellTo",
              "type": "address"
            }
          ],
          "stateMutability": "view",
          "type": "function"
        },
        {
          "inputs": [],
          "name": "punksRemainingToAssign",
          "outputs": [
            {
              "internalType": "uint256",
              "name": "",
              "type": "uint256"
            }
          ],
          "stateMutability": "view",
          "type": "function"
        },
        {
          "inputs": [
            {
              "internalType": "address",
              "name": "to",
              "type": "address"
            },
            {
              "internalType": "uint256",
              "name": "punkIndex",
              "type": "uint256"
            }
          ],
          "name": "setInitialOwner",
          "outputs": [],
          "stateMutability": "nonpayable",
          "type": "function"
        },
        {
          "inputs": [
            {
              "internalType": "address[]",
              "name": "addresses",
              "type": "address[]"
            },
            {
              "internalType": "uint256[]",
              "name": "indices",
              "type": "uint256[]"
            }
          ],
          "name": "setInitialOwners",
          "outputs": [],
          "stateMutability": "nonpayable",
          "type": "function"
        },
        {
          "inputs": [],
          "name": "standard",
          "outputs": [
            {
              "internalType": "string",
              "name": "",
              "type": "string"
            }
          ],
          "stateMutability": "view",
          "type": "function"
        },
        {
          "inputs": [],
          "name": "symbol",
          "outputs": [
            {
              "internalType": "string",
              "name": "",
              "type": "string"
            }
          ],
          "stateMutability": "view",
          "type": "function"
        },
        {
          "inputs": [],
          "name": "totalSupply",
          "outputs": [
            {
              "internalType": "uint256",
              "name": "",
              "type": "uint256"
            }
          ],
          "stateMutability": "view",
          "type": "function"
        },
        {
          "inputs": [
            {
              "internalType": "address",
              "name": "to",
              "type": "address"
            },
            {
              "internalType": "uint256",
              "name": "punkIndex",
              "type": "uint256"
            }
          ],
          "name": "transferPunk",
          "outputs": [],
          "stateMutability": "nonpayable",
          "type": "function"
        },
        {
          "inputs": [],
          "name": "withdraw",
          "outputs": [],
          "stateMutability": "nonpayable",
          "type": "function"
        },
        {
          "inputs": [
            {
              "internalType": "uint256",
              "name": "punkIndex",
              "type": "uint256"
            }
          ],
          "name": "withdrawBidForPunk",
          "outputs": [],
          "stateMutability": "nonpayable",
          "type": "function"
        }
      ],
      "evm": {
        "bytecode": {
          "linkReferences": {},
          "object": "60e0604090815260808181529062001eae60a03980516200002991600091602090910190620000fe565b5060408051808201909152600b8082526a43727970746f50756e6b7360a81b60209092019182526200005e91600291620000fe565b5060006007556008805460ff19169055600180546001600160a01b031916331790556005600681905560095560408051808201909152600b8082526a43525950544f50554e4b5360a81b6020909201918252620000be91600391620000fe565b506040805180820190915260058082526450554e4b5360d81b6020909201918252620000ed91600491620000fe565b506005805460ff19169055620001e1565b8280546200010c90620001a4565b90600052602060002090601f0160209004810192826200013057600085556200017b565b82601f106200014b57805160ff19168380011785556200017b565b828001600101855582156200017b579182015b828111156200017b5782518255916020019190600101906200015e565b50620001899291506200018d565b5090565b5b808211156200018957600081556001016200018e565b600181811c90821680620001b957607f821691505b60208210811415620001db57634e487b7160e01b600052602260045260246000fd5b50919050565b611cbd80620001f16000396000f3fe6080604052600436106101ac5760003560e01c806370a08231116100ec578063a75a90491161008a578063c44193c311610064578063c44193c314610560578063c81d1d5b14610580578063f3f43703146105a0578063f6eeff1e146105cd57600080fd5b8063a75a90491461050a578063bf31196f1461052a578063c0d6ce631461054a57600080fd5b80638264fe98116100c65780638264fe98146104a25780638b72a2ec146104b557806395d89b41146104d5578063979bc638146104ea57600080fd5b806370a08231146104365780637ecedac9146104635780638126c38a1461047857600080fd5b806339c5dde61161015957806352f29a251161013357806352f29a251461033a57806358178168146103505780635a3b7e421461039e5780636e743fa9146103b357600080fd5b806339c5dde6146102f05780633ccfd60b1461031057806351605d801461032557600080fd5b806318160ddd1161018a57806318160ddd1461028057806323165b75146102a4578063313ce567146102c457600080fd5b806306fdde03146101b1578063088f11f3146101dc578063091dbfd21461026b575b600080fd5b3480156101bd57600080fd5b506101c66105ed565b6040516101d39190611b2e565b60405180910390f35b3480156101e857600080fd5b506102356101f7366004611ac1565b600c602052600090815260409020805460018201546002830154600384015460049094015460ff9093169391926001600160a01b0391821692911685565b60408051951515865260208601949094526001600160a01b0392831693850193909352606084015216608082015260a0016101d3565b61027e610279366004611ac1565b61067b565b005b34801561028c57600080fd5b5061029660065481565b6040519081526020016101d3565b3480156102b057600080fd5b5061027e6102bf366004611ad9565b610832565b3480156102d057600080fd5b506005546102de9060ff1681565b60405160ff90911681526020016101d3565b3480156102fc57600080fd5b5061027e61030b366004611a00565b610bd9565b34801561031c57600080fd5b5061027e610c6d565b34801561033157600080fd5b506101c6610cc1565b34801561034657600080fd5b5061029660075481565b34801561035c57600080fd5b5061038661036b366004611ac1565b600a602052600090815260409020546001600160a01b031681565b6040516001600160a01b0390911681526020016101d3565b3480156103aa57600080fd5b506101c6610cce565b3480156103bf57600080fd5b506104056103ce366004611ac1565b600d60205260009081526040902080546001820154600283015460039093015460ff9092169290916001600160a01b039091169084565b6040516101d39493929190931515845260208401929092526001600160a01b03166040830152606082015260800190565b34801561044257600080fd5b506102966104513660046119b6565b600b6020526000908152604090205481565b34801561046f57600080fd5b5061027e610cdb565b34801561048457600080fd5b506008546104929060ff1681565b60405190151581526020016101d3565b61027e6104b0366004611ac1565b610d01565b3480156104c157600080fd5b5061027e6104d03660046119d7565b61100c565b3480156104e157600080fd5b506101c661125d565b3480156104f657600080fd5b5061027e610505366004611ac1565b61126a565b34801561051657600080fd5b5061027e6105253660046119d7565b61140a565b34801561053657600080fd5b5061027e610545366004611afa565b61155a565b34801561055657600080fd5b5061029660095481565b34801561056c57600080fd5b5061027e61057b366004611ad9565b611663565b34801561058c57600080fd5b5061027e61059b366004611ac1565b611761565b3480156105ac57600080fd5b506102966105bb3660046119b6565b600e6020526000908152604090205481565b3480156105d957600080fd5b5061027e6105e8366004611ac1565b611836565b600380546105fa90611c05565b80601f016020809104026020016040519081016040528092919081815260200182805461062690611c05565b80156106735780601f1061064857610100808354040283529160200191610673565b820191906000526020600020905b81548152906001019060200180831161065657829003601f168201915b505050505081565b6005811061068857600080fd5b60085460ff1661069757600080fd5b6000818152600a60205260409020546001600160a01b03166106b857600080fd5b6000818152600a60205260409020546001600160a01b03163314156106dc57600080fd5b346106e657600080fd5b6000818152600d60209081526040918290208251608081018452815460ff161515815260018201549281019290925260028101546001600160a01b03169282019290925260039091015460608201819052341161074257600080fd5b6060810151156107835760608101516040808301516001600160a01b03166000908152600e602052908120805490919061077d908490611bd6565b90915550505b604080516080810182526001808252602080830186815233848601818152346060870181815260008b8152600d87528990209751885460ff1916901515178855935195870195909555516002860180546001600160a01b0319166001600160a01b0390921691909117905590516003909401939093559251908152909184917f5b859394fabae0c1ba88baffe67e751ab5248d2e879028b8c8d6897b0519f56a91015b60405180910390a35050565b6005821061083f57600080fd5b60085460ff1661084e57600080fd5b6000828152600a60205260409020546001600160a01b0316331461087157600080fd5b6000828152600d60209081526040918290208251608081018452815460ff161515815260018201549281019290925260028101546001600160a01b031692820192909252600390910154606082018190523391906108ce57600080fd5b82816060015110156108df57600080fd5b6040818101516000868152600a602090815283822080546001600160a01b0319166001600160a01b039485161790559185168152600b90915290812080549161092783611bee565b90915550506040808201516001600160a01b03166000908152600b60205290812080549161095483611c40565b919050555080604001516001600160a01b0316826001600160a01b03167fddf252ad1be2c89b69c2b068fc378daa952ba7f163c4a11628f55a4df523b3ef60016040516109a391815260200190565b60405180910390a36040518060a0016040528060001515815260200185815260200182604001516001600160a01b031681526020016000815260200160006001600160a01b0316815250600c600086815260200190815260200160002060008201518160000160006101000a81548160ff0219169083151502179055506020820151816001015560408201518160020160006101000a8154816001600160a01b0302191690836001600160a01b031602179055506060820151816003015560808201518160040160006101000a8154816001600160a01b0302191690836001600160a01b03160217905550905050600081606001519050604051806080016040528060001515815260200186815260200160006001600160a01b031681526020016000815250600d600087815260200190815260200160002060008201518160000160006101000a81548160ff0219169083151502179055506020820151816001015560408201518160020160006101000a8154816001600160a01b0302191690836001600160a01b031602179055506060820151816003015590505080600e6000856001600160a01b03166001600160a01b031681526020019081526020016000206000828254610b759190611bd6565b9250508190555081604001516001600160a01b0316836001600160a01b0316867f58e5d5a525e3b40bc15abaa38b5882678db1ee68befd2f60bafe3a7fd06db9e38560600151604051610bca91815260200190565b60405180910390a45050505050565b6001546001600160a01b03163314610bf057600080fd5b815160005b81811015610c6757610c55848281518110610c2057634e487b7160e01b600052603260045260246000fd5b6020026020010151848381518110610c4857634e487b7160e01b600052603260045260246000fd5b602002602001015161140a565b80610c5f81611c40565b915050610bf5565b50505050565b60085460ff16610c7c57600080fd5b336000818152600e6020526040808220805490839055905190929183156108fc02918491818181858888f19350505050158015610cbd573d6000803e3d6000fd5b5050565b600080546105fa90611c05565b600280546105fa90611c05565b6001546001600160a01b03163314610cf257600080fd5b6008805460ff19166001179055565b60085460ff16610d1057600080fd5b6000818152600c6020908152604091829020825160a081018452815460ff161515815260018201549281019290925260028101546001600160a01b03908116938301939093526003810154606083015260040154909116608082015260058210610d7957600080fd5b8051610d8457600080fd5b60808101516001600160a01b031615801590610dad575060808101516001600160a01b03163314155b15610db757600080fd5b8060600151341015610dc857600080fd5b6000828152600a60205260409081902054908201516001600160a01b03908116911614610df457600080fd5b6040808201516000848152600a602090815283822080546001600160a01b031916331790556001600160a01b0383168252600b905291822080549192610e3983611bee565b9091555050336000908152600b60205260408120805491610e5983611c40565b90915550506040516001815233906001600160a01b038316907fddf252ad1be2c89b69c2b068fc378daa952ba7f163c4a11628f55a4df523b3ef9060200160405180910390a3610ea883611836565b6001600160a01b0381166000908152600e602052604081208054349290610ed0908490611bd6565b909155505060405134815233906001600160a01b0383169085907f58e5d5a525e3b40bc15abaa38b5882678db1ee68befd2f60bafe3a7fd06db9e39060200160405180910390a46000838152600d60209081526040918290208251608081018452815460ff161515815260018201549281019290925260028101546001600160a01b031692820183905260030154606082015290331415610c67576060810151336000908152600e602052604081208054909190610f8f908490611bd6565b9091555050604080516080810182526000808252602080830188815283850183815260608501848152998452600d909252939091209151825460ff19169015151782559151600182015590516002820180546001600160a01b0319166001600160a01b039092169190911790559351600390940193909355505050565b60085460ff1661101b57600080fd5b6000818152600a60205260409020546001600160a01b0316331461103e57600080fd5b6005811061104b57600080fd5b6000818152600c602052604090205460ff161561106b5761106b81611836565b6000818152600a6020908152604080832080546001600160a01b0319166001600160a01b038716179055338352600b90915281208054916110ab83611bee565b90915550506001600160a01b0382166000908152600b602052604081208054916110d483611c40565b9091555050604051600181526001600160a01b0383169033907fddf252ad1be2c89b69c2b068fc378daa952ba7f163c4a11628f55a4df523b3ef9060200160405180910390a36040518181526001600160a01b0383169033907f05af636b70da6819000c49f85b21fa82081c632069bb626f30932034099107d89060200160405180910390a36000818152600d60209081526040918290208251608081018452815460ff161515815260018201549281019290925260028101546001600160a01b039081169383018490526003909101546060830152909190841614156112585760608101516001600160a01b0384166000908152600e6020526040812080549091906111e2908490611bd6565b9091555050604080516080810182526000808252602080830186815283850183815260608501848152888552600d909352949092209251835460ff19169015151783559051600183015591516002820180546001600160a01b0319166001600160a01b0390921691909117905590516003909101555b505050565b600480546105fa90611c05565b6005811061127757600080fd5b60085460ff1661128657600080fd5b6000818152600a60205260409020546001600160a01b03166112a757600080fd5b6000818152600a60205260409020546001600160a01b03163314156112cb57600080fd5b6000818152600d60209081526040918290208251608081018452815460ff161515815260018201549281019290925260028101546001600160a01b031692820183905260030154606082015290331461132357600080fd5b336001600160a01b0316827f6f30e1ee4d81dcc7a8a478577f65d2ed2edb120565960ac45fe7c50551c87932836060015160405161136391815260200190565b60405180910390a36060818101516040805160808101825260008082526020808301888152838501838152968401838152898452600d9092528483209351845460ff191690151517845551600184015594516002830180546001600160a01b0319166001600160a01b03909216919091179055935160039091015551909133916108fc84150291849190818181858888f19350505050158015610c67573d6000803e3d6000fd5b6001546001600160a01b0316331461142157600080fd5b60085460ff161561143157600080fd5b6005811061143e57600080fd5b6000818152600a60205260409020546001600160a01b03838116911614610cbd576000818152600a60205260409020546001600160a01b0316156114b6576000818152600a60209081526040808320546001600160a01b03168352600b90915281208054916114ac83611bee565b91905055506114cc565b600980549060006114c683611bee565b91905055505b6000818152600a6020908152604080832080546001600160a01b0319166001600160a01b0387169081179091558352600b909152812080549161150e83611c40565b9190505550816001600160a01b03167f8a0e37b73a0d9c82e205d4d1a3ff3d0b57ce5f4d7bccf6bac03336dc101cb7ba8260405161154e91815260200190565b60405180910390a25050565b60085460ff1661156957600080fd5b6000838152600a60205260409020546001600160a01b0316331461158c57600080fd5b6005831061159957600080fd5b6040805160a0810182526001808252602080830187815233848601908152606085018881526001600160a01b038881166080880181815260008d8152600c88528a90209851895460ff191690151517895594519688019690965591516002870180546001600160a01b031990811692851692909217905590516003870155915160049095018054909216941693909317909255915184815285917f3c7b682d5da98001a9b8cbda6c647d2c63d698a4184fd1d55e2ce7b66f5d21eb910160405180910390a3505050565b60085460ff1661167257600080fd5b6000828152600a60205260409020546001600160a01b0316331461169557600080fd5b600582106116a257600080fd5b6040805160a0810182526001808252602080830186815233848601908152606085018781526000608087018181528a8252600c86528882209751885460ff191690151517885593519587019590955590516002860180546001600160a01b03199081166001600160a01b0393841617909155915160038701559151600490950180549091169490911693909317909255915183815284917f3c7b682d5da98001a9b8cbda6c647d2c63d698a4184fd1d55e2ce7b66f5d21eb9101610826565b60085460ff1661177057600080fd5b60095461177c57600080fd5b6000818152600a60205260409020546001600160a01b03161561179e57600080fd5b600581106117ab57600080fd5b6000818152600a6020908152604080832080546001600160a01b031916339081179091558352600b90915281208054916117e483611c40565b9091555050600980549060006117f983611bee565b909155505060405181815233907f8a0e37b73a0d9c82e205d4d1a3ff3d0b57ce5f4d7bccf6bac03336dc101cb7ba9060200160405180910390a250565b60085460ff1661184557600080fd5b6000818152600a60205260409020546001600160a01b0316331461186857600080fd5b6005811061187557600080fd5b6040805160a08101825260008082526020808301858152338486019081526060850184815260808601858152888652600c9094528685209551865460ff191690151517865591516001860155516002850180546001600160a01b03199081166001600160a01b0393841617909155915160038601559151600490940180549091169390911692909217909155905182917fb0e0a660b4e50f26f0b7ce75c24655fc76cc66e3334a54ff410277229fa10bd491a250565b80356001600160a01b038116811461194257600080fd5b919050565b600082601f830112611957578081fd5b8135602061196c61196783611bb2565b611b81565b80838252828201915082860187848660051b890101111561198b578586fd5b855b858110156119a95781358452928401929084019060010161198d565b5090979650505050505050565b6000602082840312156119c7578081fd5b6119d08261192b565b9392505050565b600080604083850312156119e9578081fd5b6119f28361192b565b946020939093013593505050565b60008060408385031215611a12578182fd5b823567ffffffffffffffff80821115611a29578384fd5b818501915085601f830112611a3c578384fd5b81356020611a4c61196783611bb2565b8083825282820191508286018a848660051b8901011115611a6b578889fd5b8896505b84871015611a9457611a808161192b565b835260019690960195918301918301611a6f565b5096505086013592505080821115611aaa578283fd5b50611ab785828601611947565b9150509250929050565b600060208284031215611ad2578081fd5b5035919050565b60008060408385031215611aeb578182fd5b50508035926020909101359150565b600080600060608486031215611b0e578081fd5b8335925060208401359150611b256040850161192b565b90509250925092565b6000602080835283518082850152825b81811015611b5a57858101830151858201604001528201611b3e565b81811115611b6b5783604083870101525b50601f01601f1916929092016040019392505050565b604051601f8201601f1916810167ffffffffffffffff81118282101715611baa57611baa611c71565b604052919050565b600067ffffffffffffffff821115611bcc57611bcc611c71565b5060051b60200190565b60008219821115611be957611be9611c5b565b500190565b600081611bfd57611bfd611c5b565b506000190190565b600181811c90821680611c1957607f821691505b60208210811415611c3a57634e487b7160e01b600052602260045260246000fd5b50919050565b6000600019821415611c5457611c54611c5b565b5060010190565b634e487b7160e01b600052601160045260246000fd5b634e487b7160e01b600052604160045260246000fdfea264697066735822122074ea612720387764f9a0b3ad7b3c78e7375a95165e2054ecd3a625d619866d9e64736f6c6343000804003361633339616634373933313139656534366262666633353164386362366235663233646136303232323132366164643432363865323631313939613239323162",
          "opcodes": "PUSH1 0xE0 PUSH1 0x40 SWAP1 DUP2 MSTORE PUSH1 0x80 DUP2 DUP2 MSTORE SWAP1 PUSH3 0x1EAE PUSH1 0xA0 CODECOPY DUP1 MLOAD PUSH3 0x29 SWAP2 PUSH1 0x0 SWAP2 PUSH1 0x20 SWAP1 SWAP2 ADD SWAP1 PUSH3 0xFE JUMP JUMPDEST POP PUSH1 0x40 DUP1 MLOAD DUP1 DUP3 ADD SWAP1 SWAP2 MSTORE PUSH1 0xB DUP1 DUP3 MSTORE PUSH11 0x43727970746F50756E6B73 PUSH1 0xA8 SHL PUSH1 0x20 SWAP1 SWAP3 ADD SWAP2 DUP3 MSTORE PUSH3 0x5E SWAP2 PUSH1 0x2 SWAP2 PUSH3 0xFE JUMP JUMPDEST POP PUSH1 0x0 PUSH1 0x7 SSTORE PUSH1 0x8 DUP1 SLOAD PUSH1 0xFF NOT AND SWAP1 SSTORE PUSH1 0x1 DUP1 SLOAD PUSH1 0x1 PUSH1 0x1 PUSH1 0xA0 SHL SUB NOT AND CALLER OR SWAP1 SSTORE PUSH1 0x5 PUSH1 0x6 DUP2 SWAP1 SSTORE PUSH1 0x9 SSTORE PUSH1 0x40 DUP1 MLOAD DUP1 DUP3 ADD SWAP1 SWAP2 MSTORE PUSH1 0xB DUP1 DUP3 MSTORE PUSH11 0x43525950544F50554E4B53 PUSH1 0xA8 SHL PUSH1 0x20 SWAP1 SWAP3 ADD SWAP2 DUP3 MSTORE PUSH3 0xBE SWAP2 PUSH1 0x3 SWAP2 PUSH3 0xFE JUMP JUMPDEST POP PUSH1 0x40 DUP1 MLOAD DUP1 DUP3 ADD SWAP1 SWAP2 MSTORE PUSH1 0x5 DUP1 DUP3 MSTORE PUSH5 0x50554E4B53 PUSH1 0xD8 SHL PUSH1 0x20 SWAP1 SWAP3 ADD SWAP2 DUP3 MSTORE PUSH3 0xED SWAP2 PUSH1 0x4 SWAP2 PUSH3 0xFE JUMP JUMPDEST POP PUSH1 0x5 DUP1 SLOAD PUSH1 0xFF NOT AND SWAP1 SSTORE PUSH3 0x1E1 JUMP JUMPDEST DUP3 DUP1 SLOAD PUSH3 0x10C SWAP1 PUSH3 0x1A4 JUMP JUMPDEST SWAP1 PUSH1 0x0 MSTORE PUSH1 0x20 PUSH1 0x0 KECCAK256 SWAP1 PUSH1 0x1F ADD PUSH1 0x20 SWAP1 DIV DUP2 ADD SWAP3 DUP3 PUSH3 0x130 JUMPI PUSH1 0x0 DUP6 SSTORE PUSH3 0x17B JUMP JUMPDEST DUP3 PUSH1 0x1F LT PUSH3 0x14B JUMPI DUP1 MLOAD PUSH1 0xFF NOT AND DUP4 DUP1 ADD OR DUP6 SSTORE PUSH3 0x17B JUMP JUMPDEST DUP3 DUP1 ADD PUSH1 0x1 ADD DUP6 SSTORE DUP3 ISZERO PUSH3 0x17B JUMPI SWAP2 DUP3 ADD JUMPDEST DUP3 DUP2 GT ISZERO PUSH3 0x17B JUMPI DUP3 MLOAD DUP3 SSTORE SWAP2 PUSH1 0x20 ADD SWAP2 SWAP1 PUSH1 0x1 ADD SWAP1 PUSH3 0x15E JUMP JUMPDEST POP PUSH3 0x189 SWAP3 SWAP2 POP PUSH3 0x18D JUMP JUMPDEST POP SWAP1 JUMP JUMPDEST JUMPDEST DUP1 DUP3 GT ISZERO PUSH3 0x189 JUMPI PUSH1 0x0 DUP2 SSTORE PUSH1 0x1 ADD PUSH3 0x18E JUMP JUMPDEST PUSH1 0x1 DUP2 DUP2 SHR SWAP1 DUP3 AND DUP1 PUSH3 0x1B9 JUMPI PUSH1 0x7F DUP3 AND SWAP2 POP JUMPDEST PUSH1 0x20 DUP3 LT DUP2 EQ ISZERO PUSH3 0x1DB JUMPI PUSH4 0x4E487B71 PUSH1 0xE0 SHL PUSH1 0x0 MSTORE PUSH1 0x22 PUSH1 0x4 MSTORE PUSH1 0x24 PUSH1 0x0 REVERT JUMPDEST POP SWAP2 SWAP1 POP JUMP JUMPDEST PUSH2 0x1CBD DUP1 PUSH3 0x1F1 PUSH1 0x0 CODECOPY PUSH1 0x0 RETURN INVALID PUSH1 0x80 PUSH1 0x40 MSTORE PUSH1 0x4 CALLDATASIZE LT PUSH2 0x1AC JUMPI PUSH1 0x0 CALLDATALOAD PUSH1 0xE0 SHR DUP1 PUSH4 0x70A08231 GT PUSH2 0xEC JUMPI DUP1 PUSH4 0xA75A9049 GT PUSH2 0x8A JUMPI DUP1 PUSH4 0xC44193C3 GT PUSH2 0x64 JUMPI DUP1 PUSH4 0xC44193C3 EQ PUSH2 0x560 JUMPI DUP1 PUSH4 0xC81D1D5B EQ PUSH2 0x580 JUMPI DUP1 PUSH4 0xF3F43703 EQ PUSH2 0x5A0 JUMPI DUP1 PUSH4 0xF6EEFF1E EQ PUSH2 0x5CD JUMPI PUSH1 0x0 DUP1 REVERT JUMPDEST DUP1 PUSH4 0xA75A9049 EQ PUSH2 0x50A JUMPI DUP1 PUSH4 0xBF31196F EQ PUSH2 0x52A JUMPI DUP1 PUSH4 0xC0D6CE63 EQ PUSH2 0x54A JUMPI PUSH1 0x0 DUP1 REVERT JUMPDEST DUP1 PUSH4 0x8264FE98 GT PUSH2 0xC6 JUMPI DUP1 PUSH4 0x8264FE98 EQ PUSH2 0x4A2 JUMPI DUP1 PUSH4 0x8B72A2EC EQ PUSH2 0x4B5 JUMPI DUP1 PUSH4 0x95D89B41 EQ PUSH2 0x4D5 JUMPI DUP1 PUSH4 0x979BC638 EQ PUSH2 0x4EA JUMPI PUSH1 0x0 DUP1 REVERT JUMPDEST DUP1 PUSH4 0x70A08231 EQ PUSH2 0x436 JUMPI DUP1 PUSH4 0x7ECEDAC9 EQ PUSH2 0x463 JUMPI DUP1 PUSH4 0x8126C38A EQ PUSH2 0x478 JUMPI PUSH1 0x0 DUP1 REVERT JUMPDEST DUP1 PUSH4 0x39C5DDE6 GT PUSH2 0x159 JUMPI DUP1 PUSH4 0x52F29A25 GT PUSH2 0x133 JUMPI DUP1 PUSH4 0x52F29A25 EQ PUSH2 0x33A JUMPI DUP1 PUSH4 0x58178168 EQ PUSH2 0x350 JUMPI DUP1 PUSH4 0x5A3B7E42 EQ PUSH2 0x39E JUMPI DUP1 PUSH4 0x6E743FA9 EQ PUSH2 0x3B3 JUMPI PUSH1 0x0 DUP1 REVERT JUMPDEST DUP1 PUSH4 0x39C5DDE6 EQ PUSH2 0x2F0 JUMPI DUP1 PUSH4 0x3CCFD60B EQ PUSH2 0x310 JUMPI DUP1 PUSH4 0x51605D80 EQ PUSH2 0x325 JUMPI PUSH1 0x0 DUP1 REVERT JUMPDEST DUP1 PUSH4 0x18160DDD GT PUSH2 0x18A JUMPI DUP1 PUSH4 0x18160DDD EQ PUSH2 0x280 JUMPI DUP1 PUSH4 0x23165B75 EQ PUSH2 0x2A4 JUMPI DUP1 PUSH4 0x313CE567 EQ PUSH2 0x2C4 JUMPI PUSH1 0x0 DUP1 REVERT JUMPDEST DUP1 PUSH4 0x6FDDE03 EQ PUSH2 0x1B1 JUMPI DUP1 PUSH4 0x88F11F3 EQ PUSH2 0x1DC JUMPI DUP1 PUSH4 0x91DBFD2 EQ PUSH2 0x26B JUMPI JUMPDEST PUSH1 0x0 DUP1 REVERT JUMPDEST CALLVALUE DUP1 ISZERO PUSH2 0x1BD JUMPI PUSH1 0x0 DUP1 REVERT JUMPDEST POP PUSH2 0x1C6 PUSH2 0x5ED JUMP JUMPDEST PUSH1 0x40 MLOAD PUSH2 0x1D3 SWAP2 SWAP1 PUSH2 0x1B2E JUMP JUMPDEST PUSH1 0x40 MLOAD DUP1 SWAP2 SUB SWAP1 RETURN JUMPDEST CALLVALUE DUP1 ISZERO PUSH2 0x1E8 JUMPI PUSH1 0x0 DUP1 REVERT JUMPDEST POP PUSH2 0x235 PUSH2 0x1F7 CALLDATASIZE PUSH1 0x4 PUSH2 0x1AC1 JUMP JUMPDEST PUSH1 0xC PUSH1 0x20 MSTORE PUSH1 0x0 SWAP1 DUP2 MSTORE PUSH1 0x40 SWAP1 KECCAK256 DUP1 SLOAD PUSH1 0x1 DUP3 ADD SLOAD PUSH1 0x2 DUP4 ADD SLOAD PUSH1 0x3 DUP5 ADD SLOAD PUSH1 0x4 SWAP1 SWAP5 ADD SLOAD PUSH1 0xFF SWAP1 SWAP4 AND SWAP4 SWAP2 SWAP3 PUSH1 0x1 PUSH1 0x1 PUSH1 0xA0 SHL SUB SWAP2 DUP3 AND SWAP3 SWAP2 AND DUP6 JUMP JUMPDEST PUSH1 0x40 DUP1 MLOAD SWAP6 ISZERO ISZERO DUP7 MSTORE PUSH1 0x20 DUP7 ADD SWAP5 SWAP1 SWAP5 MSTORE PUSH1 0x1 PUSH1 0x1 PUSH1 0xA0 SHL SUB SWAP3 DUP4 AND SWAP4 DUP6 ADD SWAP4 SWAP1 SWAP4 MSTORE PUSH1 0x60 DUP5 ADD MSTORE AND PUSH1 0x80 DUP3 ADD MSTORE PUSH1 0xA0 ADD PUSH2 0x1D3 JUMP JUMPDEST PUSH2 0x27E PUSH2 0x279 CALLDATASIZE PUSH1 0x4 PUSH2 0x1AC1 JUMP JUMPDEST PUSH2 0x67B JUMP JUMPDEST STOP JUMPDEST CALLVALUE DUP1 ISZERO PUSH2 0x28C JUMPI PUSH1 0x0 DUP1 REVERT JUMPDEST POP PUSH2 0x296 PUSH1 0x6 SLOAD DUP2 JUMP JUMPDEST PUSH1 0x40 MLOAD SWAP1 DUP2 MSTORE PUSH1 0x20 ADD PUSH2 0x1D3 JUMP JUMPDEST CALLVALUE DUP1 ISZERO PUSH2 0x2B0 JUMPI PUSH1 0x0 DUP1 REVERT JUMPDEST POP PUSH2 0x27E PUSH2 0x2BF CALLDATASIZE PUSH1 0x4 PUSH2 0x1AD9 JUMP JUMPDEST PUSH2 0x832 JUMP JUMPDEST CALLVALUE DUP1 ISZERO PUSH2 0x2D0 JUMPI PUSH1 0x0 DUP1 REVERT JUMPDEST POP PUSH1 0x5 SLOAD PUSH2 0x2DE SWAP1 PUSH1 0xFF AND DUP2 JUMP JUMPDEST PUSH1 0x40 MLOAD PUSH1 0xFF SWAP1 SWAP2 AND DUP2 MSTORE PUSH1 0x20 ADD PUSH2 0x1D3 JUMP JUMPDEST CALLVALUE DUP1 ISZERO PUSH2 0x2FC JUMPI PUSH1 0x0 DUP1 REVERT JUMPDEST POP PUSH2 0x27E PUSH2 0x30B CALLDATASIZE PUSH1 0x4 PUSH2 0x1A00 JUMP JUMPDEST PUSH2 0xBD9 JUMP JUMPDEST CALLVALUE DUP1 ISZERO PUSH2 0x31C JUMPI PUSH1 0x0 DUP1 REVERT JUMPDEST POP PUSH2 0x27E PUSH2 0xC6D JUMP JUMPDEST CALLVALUE DUP1 ISZERO PUSH2 0x331 JUMPI PUSH1 0x0 DUP1 REVERT JUMPDEST POP PUSH2 0x1C6 PUSH2 0xCC1 JUMP JUMPDEST CALLVALUE DUP1 ISZERO PUSH2 0x346 JUMPI PUSH1 0x0 DUP1 REVERT JUMPDEST POP PUSH2 0x296 PUSH1 0x7 SLOAD DUP2 JUMP JUMPDEST CALLVALUE DUP1 ISZERO PUSH2 0x35C JUMPI PUSH1 0x0 DUP1 REVERT JUMPDEST POP PUSH2 0x386 PUSH2 0x36B CALLDATASIZE PUSH1 0x4 PUSH2 0x1AC1 JUMP JUMPDEST PUSH1 0xA PUSH1 0x20 MSTORE PUSH1 0x0 SWAP1 DUP2 MSTORE PUSH1 0x40 SWAP1 KECCAK256 SLOAD PUSH1 0x1 PUSH1 0x1 PUSH1 0xA0 SHL SUB AND DUP2 JUMP JUMPDEST PUSH1 0x40 MLOAD PUSH1 0x1 PUSH1 0x1 PUSH1 0xA0 SHL SUB SWAP1 SWAP2 AND DUP2 MSTORE PUSH1 0x20 ADD PUSH2 0x1D3 JUMP JUMPDEST CALLVALUE DUP1 ISZERO PUSH2 0x3AA JUMPI PUSH1 0x0 DUP1 REVERT JUMPDEST POP PUSH2 0x1C6 PUSH2 0xCCE JUMP JUMPDEST CALLVALUE DUP1 ISZERO PUSH2 0x3BF JUMPI PUSH1 0x0 DUP1 REVERT JUMPDEST POP PUSH2 0x405 PUSH2 0x3CE CALLDATASIZE PUSH1 0x4 PUSH2 0x1AC1 JUMP JUMPDEST PUSH1 0xD PUSH1 0x20 MSTORE PUSH1 0x0 SWAP1 DUP2 MSTORE PUSH1 0x40 SWAP1 KECCAK256 DUP1 SLOAD PUSH1 0x1 DUP3 ADD SLOAD PUSH1 0x2 DUP4 ADD SLOAD PUSH1 0x3 SWAP1 SWAP4 ADD SLOAD PUSH1 0xFF SWAP1 SWAP3 AND SWAP3 SWAP1 SWAP2 PUSH1 0x1 PUSH1 0x1 PUSH1 0xA0 SHL SUB SWAP1 SWAP2 AND SWAP1 DUP5 JUMP JUMPDEST PUSH1 0x40 MLOAD PUSH2 0x1D3 SWAP5 SWAP4 SWAP3 SWAP2 SWAP1 SWAP4 ISZERO ISZERO DUP5 MSTORE PUSH1 0x20 DUP5 ADD SWAP3 SWAP1 SWAP3 MSTORE PUSH1 0x1 PUSH1 0x1 PUSH1 0xA0 SHL SUB AND PUSH1 0x40 DUP4 ADD MSTORE PUSH1 0x60 DUP3 ADD MSTORE PUSH1 0x80 ADD SWAP1 JUMP JUMPDEST CALLVALUE DUP1 ISZERO PUSH2 0x442 JUMPI PUSH1 0x0 DUP1 REVERT JUMPDEST POP PUSH2 0x296 PUSH2 0x451 CALLDATASIZE PUSH1 0x4 PUSH2 0x19B6 JUMP JUMPDEST PUSH1 0xB PUSH1 0x20 MSTORE PUSH1 0x0 SWAP1 DUP2 MSTORE PUSH1 0x40 SWAP1 KECCAK256 SLOAD DUP2 JUMP JUMPDEST CALLVALUE DUP1 ISZERO PUSH2 0x46F JUMPI PUSH1 0x0 DUP1 REVERT JUMPDEST POP PUSH2 0x27E PUSH2 0xCDB JUMP JUMPDEST CALLVALUE DUP1 ISZERO PUSH2 0x484 JUMPI PUSH1 0x0 DUP1 REVERT JUMPDEST POP PUSH1 0x8 SLOAD PUSH2 0x492 SWAP1 PUSH1 0xFF AND DUP2 JUMP JUMPDEST PUSH1 0x40 MLOAD SWAP1 ISZERO ISZERO DUP2 MSTORE PUSH1 0x20 ADD PUSH2 0x1D3 JUMP JUMPDEST PUSH2 0x27E PUSH2 0x4B0 CALLDATASIZE PUSH1 0x4 PUSH2 0x1AC1 JUMP JUMPDEST PUSH2 0xD01 JUMP JUMPDEST CALLVALUE DUP1 ISZERO PUSH2 0x4C1 JUMPI PUSH1 0x0 DUP1 REVERT JUMPDEST POP PUSH2 0x27E PUSH2 0x4D0 CALLDATASIZE PUSH1 0x4 PUSH2 0x19D7 JUMP JUMPDEST PUSH2 0x100C JUMP JUMPDEST CALLVALUE DUP1 ISZERO PUSH2 0x4E1 JUMPI PUSH1 0x0 DUP1 REVERT JUMPDEST POP PUSH2 0x1C6 PUSH2 0x125D JUMP JUMPDEST CALLVALUE DUP1 ISZERO PUSH2 0x4F6 JUMPI PUSH1 0x0 DUP1 REVERT JUMPDEST POP PUSH2 0x27E PUSH2 0x505 CALLDATASIZE PUSH1 0x4 PUSH2 0x1AC1 JUMP JUMPDEST PUSH2 0x126A JUMP JUMPDEST CALLVALUE DUP1 ISZERO PUSH2 0x516 JUMPI PUSH1 0x0 DUP1 REVERT JUMPDEST POP PUSH2 0x27E PUSH2 0x525 CALLDATASIZE PUSH1 0x4 PUSH2 0x19D7 JUMP JUMPDEST PUSH2 0x140A JUMP JUMPDEST CALLVALUE DUP1 ISZERO PUSH2 0x536 JUMPI PUSH1 0x0 DUP1 REVERT JUMPDEST POP PUSH2 0x27E PUSH2 0x545 CALLDATASIZE PUSH1 0x4 PUSH2 0x1AFA JUMP JUMPDEST PUSH2 0x155A JUMP JUMPDEST CALLVALUE DUP1 ISZERO PUSH2 0x556 JUMPI PUSH1 0x0 DUP1 REVERT JUMPDEST POP PUSH2 0x296 PUSH1 0x9 SLOAD DUP2 JUMP JUMPDEST CALLVALUE DUP1 ISZERO PUSH2 0x56C JUMPI PUSH1 0x0 DUP1 REVERT JUMPDEST POP PUSH2 0x27E PUSH2 0x57B CALLDATASIZE PUSH1 0x4 PUSH2 0x1AD9 JUMP JUMPDEST PUSH2 0x1663 JUMP JUMPDEST CALLVALUE DUP1 ISZERO PUSH2 0x58C JUMPI PUSH1 0x0 DUP1 REVERT JUMPDEST POP PUSH2 0x27E PUSH2 0x59B CALLDATASIZE PUSH1 0x4 PUSH2 0x1AC1 JUMP JUMPDEST PUSH2 0x1761 JUMP JUMPDEST CALLVALUE DUP1 ISZERO PUSH2 0x5AC JUMPI PUSH1 0x0 DUP1 REVERT JUMPDEST POP PUSH2 0x296 PUSH2 0x5BB CALLDATASIZE PUSH1 0x4 PUSH2 0x19B6 JUMP JUMPDEST PUSH1 0xE PUSH1 0x20 MSTORE PUSH1 0x0 SWAP1 DUP2 MSTORE PUSH1 0x40 SWAP1 KECCAK256 SLOAD DUP2 JUMP JUMPDEST CALLVALUE DUP1 ISZERO PUSH2 0x5D9 JUMPI PUSH1 0x0 DUP1 REVERT JUMPDEST POP PUSH2 0x27E PUSH2 0x5E8 CALLDATASIZE PUSH1 0x4 PUSH2 0x1AC1 JUMP JUMPDEST PUSH2 0x1836 JUMP JUMPDEST PUSH1 0x3 DUP1 SLOAD PUSH2 0x5FA SWAP1 PUSH2 0x1C05 JUMP JUMPDEST DUP1 PUSH1 0x1F ADD PUSH1 0x20 DUP1 SWAP2 DIV MUL PUSH1 0x20 ADD PUSH1 0x40 MLOAD SWAP1 DUP2 ADD PUSH1 0x40 MSTORE DUP1 SWAP3 SWAP2 SWAP1 DUP2 DUP2 MSTORE PUSH1 0x20 ADD DUP3 DUP1 SLOAD PUSH2 0x626 SWAP1 PUSH2 0x1C05 JUMP JUMPDEST DUP1 ISZERO PUSH2 0x673 JUMPI DUP1 PUSH1 0x1F LT PUSH2 0x648 JUMPI PUSH2 0x100 DUP1 DUP4 SLOAD DIV MUL DUP4 MSTORE SWAP2 PUSH1 0x20 ADD SWAP2 PUSH2 0x673 JUMP JUMPDEST DUP3 ADD SWAP2 SWAP1 PUSH1 0x0 MSTORE PUSH1 0x20 PUSH1 0x0 KECCAK256 SWAP1 JUMPDEST DUP2 SLOAD DUP2 MSTORE SWAP1 PUSH1 0x1 ADD SWAP1 PUSH1 0x20 ADD DUP1 DUP4 GT PUSH2 0x656 JUMPI DUP3 SWAP1 SUB PUSH1 0x1F AND DUP3 ADD SWAP2 JUMPDEST POP POP POP POP POP DUP2 JUMP JUMPDEST PUSH1 0x5 DUP2 LT PUSH2 0x688 JUMPI PUSH1 0x0 DUP1 REVERT JUMPDEST PUSH1 0x8 SLOAD PUSH1 0xFF AND PUSH2 0x697 JUMPI PUSH1 0x0 DUP1 REVERT JUMPDEST PUSH1 0x0 DUP2 DUP2 MSTORE PUSH1 0xA PUSH1 0x20 MSTORE PUSH1 0x40 SWAP1 KECCAK256 SLOAD PUSH1 0x1 PUSH1 0x1 PUSH1 0xA0 SHL SUB AND PUSH2 0x6B8 JUMPI PUSH1 0x0 DUP1 REVERT JUMPDEST PUSH1 0x0 DUP2 DUP2 MSTORE PUSH1 0xA PUSH1 0x20 MSTORE PUSH1 0x40 SWAP1 KECCAK256 SLOAD PUSH1 0x1 PUSH1 0x1 PUSH1 0xA0 SHL SUB AND CALLER EQ ISZERO PUSH2 0x6DC JUMPI PUSH1 0x0 DUP1 REVERT JUMPDEST CALLVALUE PUSH2 0x6E6 JUMPI PUSH1 0x0 DUP1 REVERT JUMPDEST PUSH1 0x0 DUP2 DUP2 MSTORE PUSH1 0xD PUSH1 0x20 SWAP1 DUP2 MSTORE PUSH1 0x40 SWAP2 DUP3 SWAP1 KECCAK256 DUP3 MLOAD PUSH1 0x80 DUP2 ADD DUP5 MSTORE DUP2 SLOAD PUSH1 0xFF AND ISZERO ISZERO DUP2 MSTORE PUSH1 0x1 DUP3 ADD SLOAD SWAP3 DUP2 ADD SWAP3 SWAP1 SWAP3 MSTORE PUSH1 0x2 DUP2 ADD SLOAD PUSH1 0x1 PUSH1 0x1 PUSH1 0xA0 SHL SUB AND SWAP3 DUP3 ADD SWAP3 SWAP1 SWAP3 MSTORE PUSH1 0x3 SWAP1 SWAP2 ADD SLOAD PUSH1 0x60 DUP3 ADD DUP2 SWAP1 MSTORE CALLVALUE GT PUSH2 0x742 JUMPI PUSH1 0x0 DUP1 REVERT JUMPDEST PUSH1 0x60 DUP2 ADD MLOAD ISZERO PUSH2 0x783 JUMPI PUSH1 0x60 DUP2 ADD MLOAD PUSH1 0x40 DUP1 DUP4 ADD MLOAD PUSH1 0x1 PUSH1 0x1 PUSH1 0xA0 SHL SUB AND PUSH1 0x0 SWAP1 DUP2 MSTORE PUSH1 0xE PUSH1 0x20 MSTORE SWAP1 DUP2 KECCAK256 DUP1 SLOAD SWAP1 SWAP2 SWAP1 PUSH2 0x77D SWAP1 DUP5 SWAP1 PUSH2 0x1BD6 JUMP JUMPDEST SWAP1 SWAP2 SSTORE POP POP JUMPDEST PUSH1 0x40 DUP1 MLOAD PUSH1 0x80 DUP2 ADD DUP3 MSTORE PUSH1 0x1 DUP1 DUP3 MSTORE PUSH1 0x20 DUP1 DUP4 ADD DUP7 DUP2 MSTORE CALLER DUP5 DUP7 ADD DUP2 DUP2 MSTORE CALLVALUE PUSH1 0x60 DUP8 ADD DUP2 DUP2 MSTORE PUSH1 0x0 DUP12 DUP2 MSTORE PUSH1 0xD DUP8 MSTORE DUP10 SWAP1 KECCAK256 SWAP8 MLOAD DUP9 SLOAD PUSH1 0xFF NOT AND SWAP1 ISZERO ISZERO OR DUP9 SSTORE SWAP4 MLOAD SWAP6 DUP8 ADD SWAP6 SWAP1 SWAP6 SSTORE MLOAD PUSH1 0x2 DUP7 ADD DUP1 SLOAD PUSH1 0x1 PUSH1 0x1 PUSH1 0xA0 SHL SUB NOT AND PUSH1 0x1 PUSH1 0x1 PUSH1 0xA0 SHL SUB SWAP1 SWAP3 AND SWAP2 SWAP1 SWAP2 OR SWAP1 SSTORE SWAP1 MLOAD PUSH1 0x3 SWAP1 SWAP5 ADD SWAP4 SWAP1 SWAP4 SSTORE SWAP3 MLOAD SWAP1 DUP2 MSTORE SWAP1 SWAP2 DUP5 SWAP2 PUSH32 0x5B859394FABAE0C1BA88BAFFE67E751AB5248D2E879028B8C8D6897B0519F56A SWAP2 ADD JUMPDEST PUSH1 0x40 MLOAD DUP1 SWAP2 SUB SWAP1 LOG3 POP POP JUMP JUMPDEST PUSH1 0x5 DUP3 LT PUSH2 0x83F JUMPI PUSH1 0x0 DUP1 REVERT JUMPDEST PUSH1 0x8 SLOAD PUSH1 0xFF AND PUSH2 0x84E JUMPI PUSH1 0x0 DUP1 REVERT JUMPDEST PUSH1 0x0 DUP3 DUP2 MSTORE PUSH1 0xA PUSH1 0x20 MSTORE PUSH1 0x40 SWAP1 KECCAK256 SLOAD PUSH1 0x1 PUSH1 0x1 PUSH1 0xA0 SHL SUB AND CALLER EQ PUSH2 0x871 JUMPI PUSH1 0x0 DUP1 REVERT JUMPDEST PUSH1 0x0 DUP3 DUP2 MSTORE PUSH1 0xD PUSH1 0x20 SWAP1 DUP2 MSTORE PUSH1 0x40 SWAP2 DUP3 SWAP1 KECCAK256 DUP3 MLOAD PUSH1 0x80 DUP2 ADD DUP5 MSTORE DUP2 SLOAD PUSH1 0xFF AND ISZERO ISZERO DUP2 MSTORE PUSH1 0x1 DUP3 ADD SLOAD SWAP3 DUP2 ADD SWAP3 SWAP1 SWAP3 MSTORE PUSH1 0x2 DUP2 ADD SLOAD PUSH1 0x1 PUSH1 0x1 PUSH1 0xA0 SHL SUB AND SWAP3 DUP3 ADD SWAP3 SWAP1 SWAP3 MSTORE PUSH1 0x3 SWAP1 SWAP2 ADD SLOAD PUSH1 0x60 DUP3 ADD DUP2 SWAP1 MSTORE CALLER SWAP2 SWAP1 PUSH2 0x8CE JUMPI PUSH1 0x0 DUP1 REVERT JUMPDEST DUP3 DUP2 PUSH1 0x60 ADD MLOAD LT ISZERO PUSH2 0x8DF JUMPI PUSH1 0x0 DUP1 REVERT JUMPDEST PUSH1 0x40 DUP2 DUP2 ADD MLOAD PUSH1 0x0 DUP7 DUP2 MSTORE PUSH1 0xA PUSH1 0x20 SWAP1 DUP2 MSTORE DUP4 DUP3 KECCAK256 DUP1 SLOAD PUSH1 0x1 PUSH1 0x1 PUSH1 0xA0 SHL SUB NOT AND PUSH1 0x1 PUSH1 0x1 PUSH1 0xA0 SHL SUB SWAP5 DUP6 AND OR SWAP1 SSTORE SWAP2 DUP6 AND DUP2 MSTORE PUSH1 0xB SWAP1 SWAP2 MSTORE SWAP1 DUP2 KECCAK256 DUP1 SLOAD SWAP2 PUSH2 0x927 DUP4 PUSH2 0x1BEE JUMP JUMPDEST SWAP1 SWAP2 SSTORE POP POP PUSH1 0x40 DUP1 DUP3 ADD MLOAD PUSH1 0x1 PUSH1 0x1 PUSH1 0xA0 SHL SUB AND PUSH1 0x0 SWAP1 DUP2 MSTORE PUSH1 0xB PUSH1 0x20 MSTORE SWAP1 DUP2 KECCAK256 DUP1 SLOAD SWAP2 PUSH2 0x954 DUP4 PUSH2 0x1C40 JUMP JUMPDEST SWAP2 SWAP1 POP SSTORE POP DUP1 PUSH1 0x40 ADD MLOAD PUSH1 0x1 PUSH1 0x1 PUSH1 0xA0 SHL SUB AND DUP3 PUSH1 0x1 PUSH1 0x1 PUSH1 0xA0 SHL SUB AND PUSH32 0xDDF252AD1BE2C89B69C2B068FC378DAA952BA7F163C4A11628F55A4DF523B3EF PUSH1 0x1 PUSH1 0x40 MLOAD PUSH2 0x9A3 SWAP2 DUP2 MSTORE PUSH1 0x20 ADD SWAP1 JUMP JUMPDEST PUSH1 0x40 MLOAD DUP1 SWAP2 SUB SWAP1 LOG3 PUSH1 0x40 MLOAD DUP1 PUSH1 0xA0 ADD PUSH1 0x40 MSTORE DUP1 PUSH1 0x0 ISZERO ISZERO DUP2 MSTORE PUSH1 0x20 ADD DUP6 DUP2 MSTORE PUSH1 0x20 ADD DUP3 PUSH1 0x40 ADD MLOAD PUSH1 0x1 PUSH1 0x1 PUSH1 0xA0 SHL SUB AND DUP2 MSTORE PUSH1 0x20 ADD PUSH1 0x0 DUP2 MSTORE PUSH1 0x20 ADD PUSH1 0x0 PUSH1 0x1 PUSH1 0x1 PUSH1 0xA0 SHL SUB AND DUP2 MSTORE POP PUSH1 0xC PUSH1 0x0 DUP7 DUP2 MSTORE PUSH1 0x20 ADD SWAP1 DUP2 MSTORE PUSH1 0x20 ADD PUSH1 0x0 KECCAK256 PUSH1 0x0 DUP3 ADD MLOAD DUP2 PUSH1 0x0 ADD PUSH1 0x0 PUSH2 0x100 EXP DUP2 SLOAD DUP2 PUSH1 0xFF MUL NOT AND SWAP1 DUP4 ISZERO ISZERO MUL OR SWAP1 SSTORE POP PUSH1 0x20 DUP3 ADD MLOAD DUP2 PUSH1 0x1 ADD SSTORE PUSH1 0x40 DUP3 ADD MLOAD DUP2 PUSH1 0x2 ADD PUSH1 0x0 PUSH2 0x100 EXP DUP2 SLOAD DUP2 PUSH1 0x1 PUSH1 0x1 PUSH1 0xA0 SHL SUB MUL NOT AND SWAP1 DUP4 PUSH1 0x1 PUSH1 0x1 PUSH1 0xA0 SHL SUB AND MUL OR SWAP1 SSTORE POP PUSH1 0x60 DUP3 ADD MLOAD DUP2 PUSH1 0x3 ADD SSTORE PUSH1 0x80 DUP3 ADD MLOAD DUP2 PUSH1 0x4 ADD PUSH1 0x0 PUSH2 0x100 EXP DUP2 SLOAD DUP2 PUSH1 0x1 PUSH1 0x1 PUSH1 0xA0 SHL SUB MUL NOT AND SWAP1 DUP4 PUSH1 0x1 PUSH1 0x1 PUSH1 0xA0 SHL SUB AND MUL OR SWAP1 SSTORE POP SWAP1 POP POP PUSH1 0x0 DUP2 PUSH1 0x60 ADD MLOAD SWAP1 POP PUSH1 0x40 MLOAD DUP1 PUSH1 0x80 ADD PUSH1 0x40 MSTORE DUP1 PUSH1 0x0 ISZERO ISZERO DUP2 MSTORE PUSH1 0x20 ADD DUP7 DUP2 MSTORE PUSH1 0x20 ADD PUSH1 0x0 PUSH1 0x1 PUSH1 0x1 PUSH1 0xA0 SHL SUB AND DUP2 MSTORE PUSH1 0x20 ADD PUSH1 0x0 DUP2 MSTORE POP PUSH1 0xD PUSH1 0x0 DUP8 DUP2 MSTORE PUSH1 0x20 ADD SWAP1 DUP2 MSTORE PUSH1 0x20 ADD PUSH1 0x0 KECCAK256 PUSH1 0x0 DUP3 ADD MLOAD DUP2 PUSH1 0x0 ADD PUSH1 0x0 PUSH2 0x100 EXP DUP2 SLOAD DUP2 PUSH1 0xFF MUL NOT AND SWAP1 DUP4 ISZERO ISZERO MUL OR SWAP1 SSTORE POP PUSH1 0x20 DUP3 ADD MLOAD DUP2 PUSH1 0x1 ADD SSTORE PUSH1 0x40 DUP3 ADD MLOAD DUP2 PUSH1 0x2 ADD PUSH1 0x0 PUSH2 0x100 EXP DUP2 SLOAD DUP2 PUSH1 0x1 PUSH1 0x1 PUSH1 0xA0 SHL SUB MUL NOT AND SWAP1 DUP4 PUSH1 0x1 PUSH1 0x1 PUSH1 0xA0 SHL SUB AND MUL OR SWAP1 SSTORE POP PUSH1 0x60 DUP3 ADD MLOAD DUP2 PUSH1 0x3 ADD SSTORE SWAP1 POP POP DUP1 PUSH1 0xE PUSH1 0x0 DUP6 PUSH1 0x1 PUSH1 0x1 PUSH1 0xA0 SHL SUB AND PUSH1 0x1 PUSH1 0x1 PUSH1 0xA0 SHL SUB AND DUP2 MSTORE PUSH1 0x20 ADD SWAP1 DUP2 MSTORE PUSH1 0x20 ADD PUSH1 0x0 KECCAK256 PUSH1 0x0 DUP3 DUP3 SLOAD PUSH2 0xB75 SWAP2 SWAP1 PUSH2 0x1BD6 JUMP JUMPDEST SWAP3 POP POP DUP2 SWAP1 SSTORE POP DUP2 PUSH1 0x40 ADD MLOAD PUSH1 0x1 PUSH1 0x1 PUSH1 0xA0 SHL SUB AND DUP4 PUSH1 0x1 PUSH1 0x1 PUSH1 0xA0 SHL SUB AND DUP7 PUSH32 0x58E5D5A525E3B40BC15ABAA38B5882678DB1EE68BEFD2F60BAFE3A7FD06DB9E3 DUP6 PUSH1 0x60 ADD MLOAD PUSH1 0x40 MLOAD PUSH2 0xBCA SWAP2 DUP2 MSTORE PUSH1 0x20 ADD SWAP1 JUMP JUMPDEST PUSH1 0x40 MLOAD DUP1 SWAP2 SUB SWAP1 LOG4 POP POP POP POP POP JUMP JUMPDEST PUSH1 0x1 SLOAD PUSH1 0x1 PUSH1 0x1 PUSH1 0xA0 SHL SUB AND CALLER EQ PUSH2 0xBF0 JUMPI PUSH1 0x0 DUP1 REVERT JUMPDEST DUP2 MLOAD PUSH1 0x0 JUMPDEST DUP2 DUP2 LT ISZERO PUSH2 0xC67 JUMPI PUSH2 0xC55 DUP5 DUP3 DUP2 MLOAD DUP2 LT PUSH2 0xC20 JUMPI PUSH4 0x4E487B71 PUSH1 0xE0 SHL PUSH1 0x0 MSTORE PUSH1 0x32 PUSH1 0x4 MSTORE PUSH1 0x24 PUSH1 0x0 REVERT JUMPDEST PUSH1 0x20 MUL PUSH1 0x20 ADD ADD MLOAD DUP5 DUP4 DUP2 MLOAD DUP2 LT PUSH2 0xC48 JUMPI PUSH4 0x4E487B71 PUSH1 0xE0 SHL PUSH1 0x0 MSTORE PUSH1 0x32 PUSH1 0x4 MSTORE PUSH1 0x24 PUSH1 0x0 REVERT JUMPDEST PUSH1 0x20 MUL PUSH1 0x20 ADD ADD MLOAD PUSH2 0x140A JUMP JUMPDEST DUP1 PUSH2 0xC5F DUP2 PUSH2 0x1C40 JUMP JUMPDEST SWAP2 POP POP PUSH2 0xBF5 JUMP JUMPDEST POP POP POP POP JUMP JUMPDEST PUSH1 0x8 SLOAD PUSH1 0xFF AND PUSH2 0xC7C JUMPI PUSH1 0x0 DUP1 REVERT JUMPDEST CALLER PUSH1 0x0 DUP2 DUP2 MSTORE PUSH1 0xE PUSH1 0x20 MSTORE PUSH1 0x40 DUP1 DUP3 KECCAK256 DUP1 SLOAD SWAP1 DUP4 SWAP1 SSTORE SWAP1 MLOAD SWAP1 SWAP3 SWAP2 DUP4 ISZERO PUSH2 0x8FC MUL SWAP2 DUP5 SWAP2 DUP2 DUP2 DUP2 DUP6 DUP9 DUP9 CALL SWAP4 POP POP POP POP ISZERO DUP1 ISZERO PUSH2 0xCBD JUMPI RETURNDATASIZE PUSH1 0x0 DUP1 RETURNDATACOPY RETURNDATASIZE PUSH1 0x0 REVERT JUMPDEST POP POP JUMP JUMPDEST PUSH1 0x0 DUP1 SLOAD PUSH2 0x5FA SWAP1 PUSH2 0x1C05 JUMP JUMPDEST PUSH1 0x2 DUP1 SLOAD PUSH2 0x5FA SWAP1 PUSH2 0x1C05 JUMP JUMPDEST PUSH1 0x1 SLOAD PUSH1 0x1 PUSH1 0x1 PUSH1 0xA0 SHL SUB AND CALLER EQ PUSH2 0xCF2 JUMPI PUSH1 0x0 DUP1 REVERT JUMPDEST PUSH1 0x8 DUP1 SLOAD PUSH1 0xFF NOT AND PUSH1 0x1 OR SWAP1 SSTORE JUMP JUMPDEST PUSH1 0x8 SLOAD PUSH1 0xFF AND PUSH2 0xD10 JUMPI PUSH1 0x0 DUP1 REVERT JUMPDEST PUSH1 0x0 DUP2 DUP2 MSTORE PUSH1 0xC PUSH1 0x20 SWAP1 DUP2 MSTORE PUSH1 0x40 SWAP2 DUP3 SWAP1 KECCAK256 DUP3 MLOAD PUSH1 0xA0 DUP2 ADD DUP5 MSTORE DUP2 SLOAD PUSH1 0xFF AND ISZERO ISZERO DUP2 MSTORE PUSH1 0x1 DUP3 ADD SLOAD SWAP3 DUP2 ADD SWAP3 SWAP1 SWAP3 MSTORE PUSH1 0x2 DUP2 ADD SLOAD PUSH1 0x1 PUSH1 0x1 PUSH1 0xA0 SHL SUB SWAP1 DUP2 AND SWAP4 DUP4 ADD SWAP4 SWAP1 SWAP4 MSTORE PUSH1 0x3 DUP2 ADD SLOAD PUSH1 0x60 DUP4 ADD MSTORE PUSH1 0x4 ADD SLOAD SWAP1 SWAP2 AND PUSH1 0x80 DUP3 ADD MSTORE PUSH1 0x5 DUP3 LT PUSH2 0xD79 JUMPI PUSH1 0x0 DUP1 REVERT JUMPDEST DUP1 MLOAD PUSH2 0xD84 JUMPI PUSH1 0x0 DUP1 REVERT JUMPDEST PUSH1 0x80 DUP2 ADD MLOAD PUSH1 0x1 PUSH1 0x1 PUSH1 0xA0 SHL SUB AND ISZERO DUP1 ISZERO SWAP1 PUSH2 0xDAD JUMPI POP PUSH1 0x80 DUP2 ADD MLOAD PUSH1 0x1 PUSH1 0x1 PUSH1 0xA0 SHL SUB AND CALLER EQ ISZERO JUMPDEST ISZERO PUSH2 0xDB7 JUMPI PUSH1 0x0 DUP1 REVERT JUMPDEST DUP1 PUSH1 0x60 ADD MLOAD CALLVALUE LT ISZERO PUSH2 0xDC8 JUMPI PUSH1 0x0 DUP1 REVERT JUMPDEST PUSH1 0x0 DUP3 DUP2 MSTORE PUSH1 0xA PUSH1 0x20 MSTORE PUSH1 0x40 SWAP1 DUP2 SWAP1 KECCAK256 SLOAD SWAP1 DUP3 ADD MLOAD PUSH1 0x1 PUSH1 0x1 PUSH1 0xA0 SHL SUB SWAP1 DUP2 AND SWAP2 AND EQ PUSH2 0xDF4 JUMPI PUSH1 0x0 DUP1 REVERT JUMPDEST PUSH1 0x40 DUP1 DUP3 ADD MLOAD PUSH1 0x0 DUP5 DUP2 MSTORE PUSH1 0xA PUSH1 0x20 SWAP1 DUP2 MSTORE DUP4 DUP3 KECCAK256 DUP1 SLOAD PUSH1 0x1 PUSH1 0x1 PUSH1 0xA0 SHL SUB NOT AND CALLER OR SWAP1 SSTORE PUSH1 0x1 PUSH1 0x1 PUSH1 0xA0 SHL SUB DUP4 AND DUP3 MSTORE PUSH1 0xB SWAP1 MSTORE SWAP2 DUP3 KECCAK256 DUP1 SLOAD SWAP2 SWAP3 PUSH2 0xE39 DUP4 PUSH2 0x1BEE JUMP JUMPDEST SWAP1 SWAP2 SSTORE POP POP CALLER PUSH1 0x0 SWAP1 DUP2 MSTORE PUSH1 0xB PUSH1 0x20 MSTORE PUSH1 0x40 DUP2 KECCAK256 DUP1 SLOAD SWAP2 PUSH2 0xE59 DUP4 PUSH2 0x1C40 JUMP JUMPDEST SWAP1 SWAP2 SSTORE POP POP PUSH1 0x40 MLOAD PUSH1 0x1 DUP2 MSTORE CALLER SWAP1 PUSH1 0x1 PUSH1 0x1 PUSH1 0xA0 SHL SUB DUP4 AND SWAP1 PUSH32 0xDDF252AD1BE2C89B69C2B068FC378DAA952BA7F163C4A11628F55A4DF523B3EF SWAP1 PUSH1 0x20 ADD PUSH1 0x40 MLOAD DUP1 SWAP2 SUB SWAP1 LOG3 PUSH2 0xEA8 DUP4 PUSH2 0x1836 JUMP JUMPDEST PUSH1 0x1 PUSH1 0x1 PUSH1 0xA0 SHL SUB DUP2 AND PUSH1 0x0 SWAP1 DUP2 MSTORE PUSH1 0xE PUSH1 0x20 MSTORE PUSH1 0x40 DUP2 KECCAK256 DUP1 SLOAD CALLVALUE SWAP3 SWAP1 PUSH2 0xED0 SWAP1 DUP5 SWAP1 PUSH2 0x1BD6 JUMP JUMPDEST SWAP1 SWAP2 SSTORE POP POP PUSH1 0x40 MLOAD CALLVALUE DUP2 MSTORE CALLER SWAP1 PUSH1 0x1 PUSH1 0x1 PUSH1 0xA0 SHL SUB DUP4 AND SWAP1 DUP6 SWAP1 PUSH32 0x58E5D5A525E3B40BC15ABAA38B5882678DB1EE68BEFD2F60BAFE3A7FD06DB9E3 SWAP1 PUSH1 0x20 ADD PUSH1 0x40 MLOAD DUP1 SWAP2 SUB SWAP1 LOG4 PUSH1 0x0 DUP4 DUP2 MSTORE PUSH1 0xD PUSH1 0x20 SWAP1 DUP2 MSTORE PUSH1 0x40 SWAP2 DUP3 SWAP1 KECCAK256 DUP3 MLOAD PUSH1 0x80 DUP2 ADD DUP5 MSTORE DUP2 SLOAD PUSH1 0xFF AND ISZERO ISZERO DUP2 MSTORE PUSH1 0x1 DUP3 ADD SLOAD SWAP3 DUP2 ADD SWAP3 SWAP1 SWAP3 MSTORE PUSH1 0x2 DUP2 ADD SLOAD PUSH1 0x1 PUSH1 0x1 PUSH1 0xA0 SHL SUB AND SWAP3 DUP3 ADD DUP4 SWAP1 MSTORE PUSH1 0x3 ADD SLOAD PUSH1 0x60 DUP3 ADD MSTORE SWAP1 CALLER EQ ISZERO PUSH2 0xC67 JUMPI PUSH1 0x60 DUP2 ADD MLOAD CALLER PUSH1 0x0 SWAP1 DUP2 MSTORE PUSH1 0xE PUSH1 0x20 MSTORE PUSH1 0x40 DUP2 KECCAK256 DUP1 SLOAD SWAP1 SWAP2 SWAP1 PUSH2 0xF8F SWAP1 DUP5 SWAP1 PUSH2 0x1BD6 JUMP JUMPDEST SWAP1 SWAP2 SSTORE POP POP PUSH1 0x40 DUP1 MLOAD PUSH1 0x80 DUP2 ADD DUP3 MSTORE PUSH1 0x0 DUP1 DUP3 MSTORE PUSH1 0x20 DUP1 DUP4 ADD DUP9 DUP2 MSTORE DUP4 DUP6 ADD DUP4 DUP2 MSTORE PUSH1 0x60 DUP6 ADD DUP5 DUP2 MSTORE SWAP10 DUP5 MSTORE PUSH1 0xD SWAP1 SWAP3 MSTORE SWAP4 SWAP1 SWAP2 KECCAK256 SWAP2 MLOAD DUP3 SLOAD PUSH1 0xFF NOT AND SWAP1 ISZERO ISZERO OR DUP3 SSTORE SWAP2 MLOAD PUSH1 0x1 DUP3 ADD SSTORE SWAP1 MLOAD PUSH1 0x2 DUP3 ADD DUP1 SLOAD PUSH1 0x1 PUSH1 0x1 PUSH1 0xA0 SHL SUB NOT AND PUSH1 0x1 PUSH1 0x1 PUSH1 0xA0 SHL SUB SWAP1 SWAP3 AND SWAP2 SWAP1 SWAP2 OR SWAP1 SSTORE SWAP4 MLOAD PUSH1 0x3 SWAP1 SWAP5 ADD SWAP4 SWAP1 SWAP4 SSTORE POP POP POP JUMP JUMPDEST PUSH1 0x8 SLOAD PUSH1 0xFF AND PUSH2 0x101B JUMPI PUSH1 0x0 DUP1 REVERT JUMPDEST PUSH1 0x0 DUP2 DUP2 MSTORE PUSH1 0xA PUSH1 0x20 MSTORE PUSH1 0x40 SWAP1 KECCAK256 SLOAD PUSH1 0x1 PUSH1 0x1 PUSH1 0xA0 SHL SUB AND CALLER EQ PUSH2 0x103E JUMPI PUSH1 0x0 DUP1 REVERT JUMPDEST PUSH1 0x5 DUP2 LT PUSH2 0x104B JUMPI PUSH1 0x0 DUP1 REVERT JUMPDEST PUSH1 0x0 DUP2 DUP2 MSTORE PUSH1 0xC PUSH1 0x20 MSTORE PUSH1 0x40 SWAP1 KECCAK256 SLOAD PUSH1 0xFF AND ISZERO PUSH2 0x106B JUMPI PUSH2 0x106B DUP2 PUSH2 0x1836 JUMP JUMPDEST PUSH1 0x0 DUP2 DUP2 MSTORE PUSH1 0xA PUSH1 0x20 SWAP1 DUP2 MSTORE PUSH1 0x40 DUP1 DUP4 KECCAK256 DUP1 SLOAD PUSH1 0x1 PUSH1 0x1 PUSH1 0xA0 SHL SUB NOT AND PUSH1 0x1 PUSH1 0x1 PUSH1 0xA0 SHL SUB DUP8 AND OR SWAP1 SSTORE CALLER DUP4 MSTORE PUSH1 0xB SWAP1 SWAP2 MSTORE DUP2 KECCAK256 DUP1 SLOAD SWAP2 PUSH2 0x10AB DUP4 PUSH2 0x1BEE JUMP JUMPDEST SWAP1 SWAP2 SSTORE POP POP PUSH1 0x1 PUSH1 0x1 PUSH1 0xA0 SHL SUB DUP3 AND PUSH1 0x0 SWAP1 DUP2 MSTORE PUSH1 0xB PUSH1 0x20 MSTORE PUSH1 0x40 DUP2 KECCAK256 DUP1 SLOAD SWAP2 PUSH2 0x10D4 DUP4 PUSH2 0x1C40 JUMP JUMPDEST SWAP1 SWAP2 SSTORE POP POP PUSH1 0x40 MLOAD PUSH1 0x1 DUP2 MSTORE PUSH1 0x1 PUSH1 0x1 PUSH1 0xA0 SHL SUB DUP4 AND SWAP1 CALLER SWAP1 PUSH32 0xDDF252AD1BE2C89B69C2B068FC378DAA952BA7F163C4A11628F55A4DF523B3EF SWAP1 PUSH1 0x20 ADD PUSH1 0x40 MLOAD DUP1 SWAP2 SUB SWAP1 LOG3 PUSH1 0x40 MLOAD DUP2 DUP2 MSTORE PUSH1 0x1 PUSH1 0x1 PUSH1 0xA0 SHL SUB DUP4 AND SWAP1 CALLER SWAP1 PUSH32 0x5AF636B70DA6819000C49F85B21FA82081C632069BB626F30932034099107D8 SWAP1 PUSH1 0x20 ADD PUSH1 0x40 MLOAD DUP1 SWAP2 SUB SWAP1 LOG3 PUSH1 0x0 DUP2 DUP2 MSTORE PUSH1 0xD PUSH1 0x20 SWAP1 DUP2 MSTORE PUSH1 0x40 SWAP2 DUP3 SWAP1 KECCAK256 DUP3 MLOAD PUSH1 0x80 DUP2 ADD DUP5 MSTORE DUP2 SLOAD PUSH1 0xFF AND ISZERO ISZERO DUP2 MSTORE PUSH1 0x1 DUP3 ADD SLOAD SWAP3 DUP2 ADD SWAP3 SWAP1 SWAP3 MSTORE PUSH1 0x2 DUP2 ADD SLOAD PUSH1 0x1 PUSH1 0x1 PUSH1 0xA0 SHL SUB SWAP1 DUP2 AND SWAP4 DUP4 ADD DUP5 SWAP1 MSTORE PUSH1 0x3 SWAP1 SWAP2 ADD SLOAD PUSH1 0x60 DUP4 ADD MSTORE SWAP1 SWAP2 SWAP1 DUP5 AND EQ ISZERO PUSH2 0x1258 JUMPI PUSH1 0x60 DUP2 ADD MLOAD PUSH1 0x1 PUSH1 0x1 PUSH1 0xA0 SHL SUB DUP5 AND PUSH1 0x0 SWAP1 DUP2 MSTORE PUSH1 0xE PUSH1 0x20 MSTORE PUSH1 0x40 DUP2 KECCAK256 DUP1 SLOAD SWAP1 SWAP2 SWAP1 PUSH2 0x11E2 SWAP1 DUP5 SWAP1 PUSH2 0x1BD6 JUMP JUMPDEST SWAP1 SWAP2 SSTORE POP POP PUSH1 0x40 DUP1 MLOAD PUSH1 0x80 DUP2 ADD DUP3 MSTORE PUSH1 0x0 DUP1 DUP3 MSTORE PUSH1 0x20 DUP1 DUP4 ADD DUP7 DUP2 MSTORE DUP4 DUP6 ADD DUP4 DUP2 MSTORE PUSH1 0x60 DUP6 ADD DUP5 DUP2 MSTORE DUP9 DUP6 MSTORE PUSH1 0xD SWAP1 SWAP4 MSTORE SWAP5 SWAP1 SWAP3 KECCAK256 SWAP3 MLOAD DUP4 SLOAD PUSH1 0xFF NOT AND SWAP1 ISZERO ISZERO OR DUP4 SSTORE SWAP1 MLOAD PUSH1 0x1 DUP4 ADD SSTORE SWAP2 MLOAD PUSH1 0x2 DUP3 ADD DUP1 SLOAD PUSH1 0x1 PUSH1 0x1 PUSH1 0xA0 SHL SUB NOT AND PUSH1 0x1 PUSH1 0x1 PUSH1 0xA0 SHL SUB SWAP1 SWAP3 AND SWAP2 SWAP1 SWAP2 OR SWAP1 SSTORE SWAP1 MLOAD PUSH1 0x3 SWAP1 SWAP2 ADD SSTORE JUMPDEST POP POP POP JUMP JUMPDEST PUSH1 0x4 DUP1 SLOAD PUSH2 0x5FA SWAP1 PUSH2 0x1C05 JUMP JUMPDEST PUSH1 0x5 DUP2 LT PUSH2 0x1277 JUMPI PUSH1 0x0 DUP1 REVERT JUMPDEST PUSH1 0x8 SLOAD PUSH1 0xFF AND PUSH2 0x1286 JUMPI PUSH1 0x0 DUP1 REVERT JUMPDEST PUSH1 0x0 DUP2 DUP2 MSTORE PUSH1 0xA PUSH1 0x20 MSTORE PUSH1 0x40 SWAP1 KECCAK256 SLOAD PUSH1 0x1 PUSH1 0x1 PUSH1 0xA0 SHL SUB AND PUSH2 0x12A7 JUMPI PUSH1 0x0 DUP1 REVERT JUMPDEST PUSH1 0x0 DUP2 DUP2 MSTORE PUSH1 0xA PUSH1 0x20 MSTORE PUSH1 0x40 SWAP1 KECCAK256 SLOAD PUSH1 0x1 PUSH1 0x1 PUSH1 0xA0 SHL SUB AND CALLER EQ ISZERO PUSH2 0x12CB JUMPI PUSH1 0x0 DUP1 REVERT JUMPDEST PUSH1 0x0 DUP2 DUP2 MSTORE PUSH1 0xD PUSH1 0x20 SWAP1 DUP2 MSTORE PUSH1 0x40 SWAP2 DUP3 SWAP1 KECCAK256 DUP3 MLOAD PUSH1 0x80 DUP2 ADD DUP5 MSTORE DUP2 SLOAD PUSH1 0xFF AND ISZERO ISZERO DUP2 MSTORE PUSH1 0x1 DUP3 ADD SLOAD SWAP3 DUP2 ADD SWAP3 SWAP1 SWAP3 MSTORE PUSH1 0x2 DUP2 ADD SLOAD PUSH1 0x1 PUSH1 0x1 PUSH1 0xA0 SHL SUB AND SWAP3 DUP3 ADD DUP4 SWAP1 MSTORE PUSH1 0x3 ADD SLOAD PUSH1 0x60 DUP3 ADD MSTORE SWAP1 CALLER EQ PUSH2 0x1323 JUMPI PUSH1 0x0 DUP1 REVERT JUMPDEST CALLER PUSH1 0x1 PUSH1 0x1 PUSH1 0xA0 SHL SUB AND DUP3 PUSH32 0x6F30E1EE4D81DCC7A8A478577F65D2ED2EDB120565960AC45FE7C50551C87932 DUP4 PUSH1 0x60 ADD MLOAD PUSH1 0x40 MLOAD PUSH2 0x1363 SWAP2 DUP2 MSTORE PUSH1 0x20 ADD SWAP1 JUMP JUMPDEST PUSH1 0x40 MLOAD DUP1 SWAP2 SUB SWAP1 LOG3 PUSH1 0x60 DUP2 DUP2 ADD MLOAD PUSH1 0x40 DUP1 MLOAD PUSH1 0x80 DUP2 ADD DUP3 MSTORE PUSH1 0x0 DUP1 DUP3 MSTORE PUSH1 0x20 DUP1 DUP4 ADD DUP9 DUP2 MSTORE DUP4 DUP6 ADD DUP4 DUP2 MSTORE SWAP7 DUP5 ADD DUP4 DUP2 MSTORE DUP10 DUP5 MSTORE PUSH1 0xD SWAP1 SWAP3 MSTORE DUP5 DUP4 KECCAK256 SWAP4 MLOAD DUP5 SLOAD PUSH1 0xFF NOT AND SWAP1 ISZERO ISZERO OR DUP5 SSTORE MLOAD PUSH1 0x1 DUP5 ADD SSTORE SWAP5 MLOAD PUSH1 0x2 DUP4 ADD DUP1 SLOAD PUSH1 0x1 PUSH1 0x1 PUSH1 0xA0 SHL SUB NOT AND PUSH1 0x1 PUSH1 0x1 PUSH1 0xA0 SHL SUB SWAP1 SWAP3 AND SWAP2 SWAP1 SWAP2 OR SWAP1 SSTORE SWAP4 MLOAD PUSH1 0x3 SWAP1 SWAP2 ADD SSTORE MLOAD SWAP1 SWAP2 CALLER SWAP2 PUSH2 0x8FC DUP5 ISZERO MUL SWAP2 DUP5 SWAP2 SWAP1 DUP2 DUP2 DUP2 DUP6 DUP9 DUP9 CALL SWAP4 POP POP POP POP ISZERO DUP1 ISZERO PUSH2 0xC67 JUMPI RETURNDATASIZE PUSH1 0x0 DUP1 RETURNDATACOPY RETURNDATASIZE PUSH1 0x0 REVERT JUMPDEST PUSH1 0x1 SLOAD PUSH1 0x1 PUSH1 0x1 PUSH1 0xA0 SHL SUB AND CALLER EQ PUSH2 0x1421 JUMPI PUSH1 0x0 DUP1 REVERT JUMPDEST PUSH1 0x8 SLOAD PUSH1 0xFF AND ISZERO PUSH2 0x1431 JUMPI PUSH1 0x0 DUP1 REVERT JUMPDEST PUSH1 0x5 DUP2 LT PUSH2 0x143E JUMPI PUSH1 0x0 DUP1 REVERT JUMPDEST PUSH1 0x0 DUP2 DUP2 MSTORE PUSH1 0xA PUSH1 0x20 MSTORE PUSH1 0x40 SWAP1 KECCAK256 SLOAD PUSH1 0x1 PUSH1 0x1 PUSH1 0xA0 SHL SUB DUP4 DUP2 AND SWAP2 AND EQ PUSH2 0xCBD JUMPI PUSH1 0x0 DUP2 DUP2 MSTORE PUSH1 0xA PUSH1 0x20 MSTORE PUSH1 0x40 SWAP1 KECCAK256 SLOAD PUSH1 0x1 PUSH1 0x1 PUSH1 0xA0 SHL SUB AND ISZERO PUSH2 0x14B6 JUMPI PUSH1 0x0 DUP2 DUP2 MSTORE PUSH1 0xA PUSH1 0x20 SWAP1 DUP2 MSTORE PUSH1 0x40 DUP1 DUP4 KECCAK256 SLOAD PUSH1 0x1 PUSH1 0x1 PUSH1 0xA0 SHL SUB AND DUP4 MSTORE PUSH1 0xB SWAP1 SWAP2 MSTORE DUP2 KECCAK256 DUP1 SLOAD SWAP2 PUSH2 0x14AC DUP4 PUSH2 0x1BEE JUMP JUMPDEST SWAP2 SWAP1 POP SSTORE POP PUSH2 0x14CC JUMP JUMPDEST PUSH1 0x9 DUP1 SLOAD SWAP1 PUSH1 0x0 PUSH2 0x14C6 DUP4 PUSH2 0x1BEE JUMP JUMPDEST SWAP2 SWAP1 POP SSTORE POP JUMPDEST PUSH1 0x0 DUP2 DUP2 MSTORE PUSH1 0xA PUSH1 0x20 SWAP1 DUP2 MSTORE PUSH1 0x40 DUP1 DUP4 KECCAK256 DUP1 SLOAD PUSH1 0x1 PUSH1 0x1 PUSH1 0xA0 SHL SUB NOT AND PUSH1 0x1 PUSH1 0x1 PUSH1 0xA0 SHL SUB DUP8 AND SWAP1 DUP2 OR SWAP1 SWAP2 SSTORE DUP4 MSTORE PUSH1 0xB SWAP1 SWAP2 MSTORE DUP2 KECCAK256 DUP1 SLOAD SWAP2 PUSH2 0x150E DUP4 PUSH2 0x1C40 JUMP JUMPDEST SWAP2 SWAP1 POP SSTORE POP DUP2 PUSH1 0x1 PUSH1 0x1 PUSH1 0xA0 SHL SUB AND PUSH32 0x8A0E37B73A0D9C82E205D4D1A3FF3D0B57CE5F4D7BCCF6BAC03336DC101CB7BA DUP3 PUSH1 0x40 MLOAD PUSH2 0x154E SWAP2 DUP2 MSTORE PUSH1 0x20 ADD SWAP1 JUMP JUMPDEST PUSH1 0x40 MLOAD DUP1 SWAP2 SUB SWAP1 LOG2 POP POP JUMP JUMPDEST PUSH1 0x8 SLOAD PUSH1 0xFF AND PUSH2 0x1569 JUMPI PUSH1 0x0 DUP1 REVERT JUMPDEST PUSH1 0x0 DUP4 DUP2 MSTORE PUSH1 0xA PUSH1 0x20 MSTORE PUSH1 0x40 SWAP1 KECCAK256 SLOAD PUSH1 0x1 PUSH1 0x1 PUSH1 0xA0 SHL SUB AND CALLER EQ PUSH2 0x158C JUMPI PUSH1 0x0 DUP1 REVERT JUMPDEST PUSH1 0x5 DUP4 LT PUSH2 0x1599 JUMPI PUSH1 0x0 DUP1 REVERT JUMPDEST PUSH1 0x40 DUP1 MLOAD PUSH1 0xA0 DUP2 ADD DUP3 MSTORE PUSH1 0x1 DUP1 DUP3 MSTORE PUSH1 0x20 DUP1 DUP4 ADD DUP8 DUP2 MSTORE CALLER DUP5 DUP7 ADD SWAP1 DUP2 MSTORE PUSH1 0x60 DUP6 ADD DUP9 DUP2 MSTORE PUSH1 0x1 PUSH1 0x1 PUSH1 0xA0 SHL SUB DUP9 DUP2 AND PUSH1 0x80 DUP9 ADD DUP2 DUP2 MSTORE PUSH1 0x0 DUP14 DUP2 MSTORE PUSH1 0xC DUP9 MSTORE DUP11 SWAP1 KECCAK256 SWAP9 MLOAD DUP10 SLOAD PUSH1 0xFF NOT AND SWAP1 ISZERO ISZERO OR DUP10 SSTORE SWAP5 MLOAD SWAP7 DUP9 ADD SWAP7 SWAP1 SWAP7 SSTORE SWAP2 MLOAD PUSH1 0x2 DUP8 ADD DUP1 SLOAD PUSH1 0x1 PUSH1 0x1 PUSH1 0xA0 SHL SUB NOT SWAP1 DUP2 AND SWAP3 DUP6 AND SWAP3 SWAP1 SWAP3 OR SWAP1 SSTORE SWAP1 MLOAD PUSH1 0x3 DUP8 ADD SSTORE SWAP2 MLOAD PUSH1 0x4 SWAP1 SWAP6 ADD DUP1 SLOAD SWAP1 SWAP3 AND SWAP5 AND SWAP4 SWAP1 SWAP4 OR SWAP1 SWAP3 SSTORE SWAP2 MLOAD DUP5 DUP2 MSTORE DUP6 SWAP2 PUSH32 0x3C7B682D5DA98001A9B8CBDA6C647D2C63D698A4184FD1D55E2CE7B66F5D21EB SWAP2 ADD PUSH1 0x40 MLOAD DUP1 SWAP2 SUB SWAP1 LOG3 POP POP POP JUMP JUMPDEST PUSH1 0x8 SLOAD PUSH1 0xFF AND PUSH2 0x1672 JUMPI PUSH1 0x0 DUP1 REVERT JUMPDEST PUSH1 0x0 DUP3 DUP2 MSTORE PUSH1 0xA PUSH1 0x20 MSTORE PUSH1 0x40 SWAP1 KECCAK256 SLOAD PUSH1 0x1 PUSH1 0x1 PUSH1 0xA0 SHL SUB AND CALLER EQ PUSH2 0x1695 JUMPI PUSH1 0x0 DUP1 REVERT JUMPDEST PUSH1 0x5 DUP3 LT PUSH2 0x16A2 JUMPI PUSH1 0x0 DUP1 REVERT JUMPDEST PUSH1 0x40 DUP1 MLOAD PUSH1 0xA0 DUP2 ADD DUP3 MSTORE PUSH1 0x1 DUP1 DUP3 MSTORE PUSH1 0x20 DUP1 DUP4 ADD DUP7 DUP2 MSTORE CALLER DUP5 DUP7 ADD SWAP1 DUP2 MSTORE PUSH1 0x60 DUP6 ADD DUP8 DUP2 MSTORE PUSH1 0x0 PUSH1 0x80 DUP8 ADD DUP2 DUP2 MSTORE DUP11 DUP3 MSTORE PUSH1 0xC DUP7 MSTORE DUP9 DUP3 KECCAK256 SWAP8 MLOAD DUP9 SLOAD PUSH1 0xFF NOT AND SWAP1 ISZERO ISZERO OR DUP9 SSTORE SWAP4 MLOAD SWAP6 DUP8 ADD SWAP6 SWAP1 SWAP6 SSTORE SWAP1 MLOAD PUSH1 0x2 DUP7 ADD DUP1 SLOAD PUSH1 0x1 PUSH1 0x1 PUSH1 0xA0 SHL SUB NOT SWAP1 DUP2 AND PUSH1 0x1 PUSH1 0x1 PUSH1 0xA0 SHL SUB SWAP4 DUP5 AND OR SWAP1 SWAP2 SSTORE SWAP2 MLOAD PUSH1 0x3 DUP8 ADD SSTORE SWAP2 MLOAD PUSH1 0x4 SWAP1 SWAP6 ADD DUP1 SLOAD SWAP1 SWAP2 AND SWAP5 SWAP1 SWAP2 AND SWAP4 SWAP1 SWAP4 OR SWAP1 SWAP3 SSTORE SWAP2 MLOAD DUP4 DUP2 MSTORE DUP5 SWAP2 PUSH32 0x3C7B682D5DA98001A9B8CBDA6C647D2C63D698A4184FD1D55E2CE7B66F5D21EB SWAP2 ADD PUSH2 0x826 JUMP JUMPDEST PUSH1 0x8 SLOAD PUSH1 0xFF AND PUSH2 0x1770 JUMPI PUSH1 0x0 DUP1 REVERT JUMPDEST PUSH1 0x9 SLOAD PUSH2 0x177C JUMPI PUSH1 0x0 DUP1 REVERT JUMPDEST PUSH1 0x0 DUP2 DUP2 MSTORE PUSH1 0xA PUSH1 0x20 MSTORE PUSH1 0x40 SWAP1 KECCAK256 SLOAD PUSH1 0x1 PUSH1 0x1 PUSH1 0xA0 SHL SUB AND ISZERO PUSH2 0x179E JUMPI PUSH1 0x0 DUP1 REVERT JUMPDEST PUSH1 0x5 DUP2 LT PUSH2 0x17AB JUMPI PUSH1 0x0 DUP1 REVERT JUMPDEST PUSH1 0x0 DUP2 DUP2 MSTORE PUSH1 0xA PUSH1 0x20 SWAP1 DUP2 MSTORE PUSH1 0x40 DUP1 DUP4 KECCAK256 DUP1 SLOAD PUSH1 0x1 PUSH1 0x1 PUSH1 0xA0 SHL SUB NOT AND CALLER SWAP1 DUP2 OR SWAP1 SWAP2 SSTORE DUP4 MSTORE PUSH1 0xB SWAP1 SWAP2 MSTORE DUP2 KECCAK256 DUP1 SLOAD SWAP2 PUSH2 0x17E4 DUP4 PUSH2 0x1C40 JUMP JUMPDEST SWAP1 SWAP2 SSTORE POP POP PUSH1 0x9 DUP1 SLOAD SWAP1 PUSH1 0x0 PUSH2 0x17F9 DUP4 PUSH2 0x1BEE JUMP JUMPDEST SWAP1 SWAP2 SSTORE POP POP PUSH1 0x40 MLOAD DUP2 DUP2 MSTORE CALLER SWAP1 PUSH32 0x8A0E37B73A0D9C82E205D4D1A3FF3D0B57CE5F4D7BCCF6BAC03336DC101CB7BA SWAP1 PUSH1 0x20 ADD PUSH1 0x40 MLOAD DUP1 SWAP2 SUB SWAP1 LOG2 POP JUMP JUMPDEST PUSH1 0x8 SLOAD PUSH1 0xFF AND PUSH2 0x1845 JUMPI PUSH1 0x0 DUP1 REVERT JUMPDEST PUSH1 0x0 DUP2 DUP2 MSTORE PUSH1 0xA PUSH1 0x20 MSTORE PUSH1 0x40 SWAP1 KECCAK256 SLOAD PUSH1 0x1 PUSH1 0x1 PUSH1 0xA0 SHL SUB AND CALLER EQ PUSH2 0x1868 JUMPI PUSH1 0x0 DUP1 REVERT JUMPDEST PUSH1 0x5 DUP2 LT PUSH2 0x1875 JUMPI PUSH1 0x0 DUP1 REVERT JUMPDEST PUSH1 0x40 DUP1 MLOAD PUSH1 0xA0 DUP2 ADD DUP3 MSTORE PUSH1 0x0 DUP1 DUP3 MSTORE PUSH1 0x20 DUP1 DUP4 ADD DUP6 DUP2 MSTORE CALLER DUP5 DUP7 ADD SWAP1 DUP2 MSTORE PUSH1 0x60 DUP6 ADD DUP5 DUP2 MSTORE PUSH1 0x80 DUP7 ADD DUP6 DUP2 MSTORE DUP9 DUP7 MSTORE PUSH1 0xC SWAP1 SWAP5 MSTORE DUP7 DUP6 KECCAK256 SWAP6 MLOAD DUP7 SLOAD PUSH1 0xFF NOT AND SWAP1 ISZERO ISZERO OR DUP7 SSTORE SWAP2 MLOAD PUSH1 0x1 DUP7 ADD SSTORE MLOAD PUSH1 0x2 DUP6 ADD DUP1 SLOAD PUSH1 0x1 PUSH1 0x1 PUSH1 0xA0 SHL SUB NOT SWAP1 DUP2 AND PUSH1 0x1 PUSH1 0x1 PUSH1 0xA0 SHL SUB SWAP4 DUP5 AND OR SWAP1 SWAP2 SSTORE SWAP2 MLOAD PUSH1 0x3 DUP7 ADD SSTORE SWAP2 MLOAD PUSH1 0x4 SWAP1 SWAP5 ADD DUP1 SLOAD SWAP1 SWAP2 AND SWAP4 SWAP1 SWAP2 AND SWAP3 SWAP1 SWAP3 OR SWAP1 SWAP2 SSTORE SWAP1 MLOAD DUP3 SWAP2 PUSH32 0xB0E0A660B4E50F26F0B7CE75C24655FC76CC66E3334A54FF410277229FA10BD4 SWAP2 LOG2 POP JUMP JUMPDEST DUP1 CALLDATALOAD PUSH1 0x1 PUSH1 0x1 PUSH1 0xA0 SHL SUB DUP2 AND DUP2 EQ PUSH2 0x1942 JUMPI PUSH1 0x0 DUP1 REVERT JUMPDEST SWAP2 SWAP1 POP JUMP JUMPDEST PUSH1 0x0 DUP3 PUSH1 0x1F DUP4 ADD SLT PUSH2 0x1957 JUMPI DUP1 DUP2 REVERT JUMPDEST DUP2 CALLDATALOAD PUSH1 0x20 PUSH2 0x196C PUSH2 0x1967 DUP4 PUSH2 0x1BB2 JUMP JUMPDEST PUSH2 0x1B81 JUMP JUMPDEST DUP1 DUP4 DUP3 MSTORE DUP3 DUP3 ADD SWAP2 POP DUP3 DUP7 ADD DUP8 DUP5 DUP7 PUSH1 0x5 SHL DUP10 ADD ADD GT ISZERO PUSH2 0x198B JUMPI DUP6 DUP7 REVERT JUMPDEST DUP6 JUMPDEST DUP6 DUP2 LT ISZERO PUSH2 0x19A9 JUMPI DUP2 CALLDATALOAD DUP5 MSTORE SWAP3 DUP5 ADD SWAP3 SWAP1 DUP5 ADD SWAP1 PUSH1 0x1 ADD PUSH2 0x198D JUMP JUMPDEST POP SWAP1 SWAP8 SWAP7 POP POP POP POP POP POP POP JUMP JUMPDEST PUSH1 0x0 PUSH1 0x20 DUP3 DUP5 SUB SLT ISZERO PUSH2 0x19C7 JUMPI DUP1 DUP2 REVERT JUMPDEST PUSH2 0x19D0 DUP3 PUSH2 0x192B JUMP JUMPDEST SWAP4 SWAP3 POP POP POP JUMP JUMPDEST PUSH1 0x0 DUP1 PUSH1 0x40 DUP4 DUP6 SUB SLT ISZERO PUSH2 0x19E9 JUMPI DUP1 DUP2 REVERT JUMPDEST PUSH2 0x19F2 DUP4 PUSH2 0x192B JUMP JUMPDEST SWAP5 PUSH1 0x20 SWAP4 SWAP1 SWAP4 ADD CALLDATALOAD SWAP4 POP POP POP JUMP JUMPDEST PUSH1 0x0 DUP1 PUSH1 0x40 DUP4 DUP6 SUB SLT ISZERO PUSH2 0x1A12 JUMPI DUP2 DUP3 REVERT JUMPDEST DUP3 CALLDATALOAD PUSH8 0xFFFFFFFFFFFFFFFF DUP1 DUP3 GT ISZERO PUSH2 0x1A29 JUMPI DUP4 DUP5 REVERT JUMPDEST DUP2 DUP6 ADD SWAP2 POP DUP6 PUSH1 0x1F DUP4 ADD SLT PUSH2 0x1A3C JUMPI DUP4 DUP5 REVERT JUMPDEST DUP2 CALLDATALOAD PUSH1 0x20 PUSH2 0x1A4C PUSH2 0x1967 DUP4 PUSH2 0x1BB2 JUMP JUMPDEST DUP1 DUP4 DUP3 MSTORE DUP3 DUP3 ADD SWAP2 POP DUP3 DUP7 ADD DUP11 DUP5 DUP7 PUSH1 0x5 SHL DUP10 ADD ADD GT ISZERO PUSH2 0x1A6B JUMPI DUP9 DUP10 REVERT JUMPDEST DUP9 SWAP7 POP JUMPDEST DUP5 DUP8 LT ISZERO PUSH2 0x1A94 JUMPI PUSH2 0x1A80 DUP2 PUSH2 0x192B JUMP JUMPDEST DUP4 MSTORE PUSH1 0x1 SWAP7 SWAP1 SWAP7 ADD SWAP6 SWAP2 DUP4 ADD SWAP2 DUP4 ADD PUSH2 0x1A6F JUMP JUMPDEST POP SWAP7 POP POP DUP7 ADD CALLDATALOAD SWAP3 POP POP DUP1 DUP3 GT ISZERO PUSH2 0x1AAA JUMPI DUP3 DUP4 REVERT JUMPDEST POP PUSH2 0x1AB7 DUP6 DUP3 DUP7 ADD PUSH2 0x1947 JUMP JUMPDEST SWAP2 POP POP SWAP3 POP SWAP3 SWAP1 POP JUMP JUMPDEST PUSH1 0x0 PUSH1 0x20 DUP3 DUP5 SUB SLT ISZERO PUSH2 0x1AD2 JUMPI DUP1 DUP2 REVERT JUMPDEST POP CALLDATALOAD SWAP2 SWAP1 POP JUMP JUMPDEST PUSH1 0x0 DUP1 PUSH1 0x40 DUP4 DUP6 SUB SLT ISZERO PUSH2 0x1AEB JUMPI DUP2 DUP3 REVERT JUMPDEST POP POP DUP1 CALLDATALOAD SWAP3 PUSH1 0x20 SWAP1 SWAP2 ADD CALLDATALOAD SWAP2 POP JUMP JUMPDEST PUSH1 0x0 DUP1 PUSH1 0x0 PUSH1 0x60 DUP5 DUP7 SUB SLT ISZERO PUSH2 0x1B0E JUMPI DUP1 DUP2 REVERT JUMPDEST DUP4 CALLDATALOAD SWAP3 POP PUSH1 0x20 DUP5 ADD CALLDATALOAD SWAP2 POP PUSH2 0x1B25 PUSH1 0x40 DUP6 ADD PUSH2 0x192B JUMP JUMPDEST SWAP1 POP SWAP3 POP SWAP3 POP SWAP3 JUMP JUMPDEST PUSH1 0x0 PUSH1 0x20 DUP1 DUP4 MSTORE DUP4 MLOAD DUP1 DUP3 DUP6 ADD MSTORE DUP3 JUMPDEST DUP2 DUP2 LT ISZERO PUSH2 0x1B5A JUMPI DUP6 DUP2 ADD DUP4 ADD MLOAD DUP6 DUP3 ADD PUSH1 0x40 ADD MSTORE DUP3 ADD PUSH2 0x1B3E JUMP JUMPDEST DUP2 DUP2 GT ISZERO PUSH2 0x1B6B JUMPI DUP4 PUSH1 0x40 DUP4 DUP8 ADD ADD MSTORE JUMPDEST POP PUSH1 0x1F ADD PUSH1 0x1F NOT AND SWAP3 SWAP1 SWAP3 ADD PUSH1 0x40 ADD SWAP4 SWAP3 POP POP POP JUMP JUMPDEST PUSH1 0x40 MLOAD PUSH1 0x1F DUP3 ADD PUSH1 0x1F NOT AND DUP2 ADD PUSH8 0xFFFFFFFFFFFFFFFF DUP2 GT DUP3 DUP3 LT OR ISZERO PUSH2 0x1BAA JUMPI PUSH2 0x1BAA PUSH2 0x1C71 JUMP JUMPDEST PUSH1 0x40 MSTORE SWAP2 SWAP1 POP JUMP JUMPDEST PUSH1 0x0 PUSH8 0xFFFFFFFFFFFFFFFF DUP3 GT ISZERO PUSH2 0x1BCC JUMPI PUSH2 0x1BCC PUSH2 0x1C71 JUMP JUMPDEST POP PUSH1 0x5 SHL PUSH1 0x20 ADD SWAP1 JUMP JUMPDEST PUSH1 0x0 DUP3 NOT DUP3 GT ISZERO PUSH2 0x1BE9 JUMPI PUSH2 0x1BE9 PUSH2 0x1C5B JUMP JUMPDEST POP ADD SWAP1 JUMP JUMPDEST PUSH1 0x0 DUP2 PUSH2 0x1BFD JUMPI PUSH2 0x1BFD PUSH2 0x1C5B JUMP JUMPDEST POP PUSH1 0x0 NOT ADD SWAP1 JUMP JUMPDEST PUSH1 0x1 DUP2 DUP2 SHR SWAP1 DUP3 AND DUP1 PUSH2 0x1C19 JUMPI PUSH1 0x7F DUP3 AND SWAP2 POP JUMPDEST PUSH1 0x20 DUP3 LT DUP2 EQ ISZERO PUSH2 0x1C3A JUMPI PUSH4 0x4E487B71 PUSH1 0xE0 SHL PUSH1 0x0 MSTORE PUSH1 0x22 PUSH1 0x4 MSTORE PUSH1 0x24 PUSH1 0x0 REVERT JUMPDEST POP SWAP2 SWAP1 POP JUMP JUMPDEST PUSH1 0x0 PUSH1 0x0 NOT DUP3 EQ ISZERO PUSH2 0x1C54 JUMPI PUSH2 0x1C54 PUSH2 0x1C5B JUMP JUMPDEST POP PUSH1 0x1 ADD SWAP1 JUMP JUMPDEST PUSH4 0x4E487B71 PUSH1 0xE0 SHL PUSH1 0x0 MSTORE PUSH1 0x11 PUSH1 0x4 MSTORE PUSH1 0x24 PUSH1 0x0 REVERT JUMPDEST PUSH4 0x4E487B71 PUSH1 0xE0 SHL PUSH1 0x0 MSTORE PUSH1 0x41 PUSH1 0x4 MSTORE PUSH1 0x24 PUSH1 0x0 REVERT INVALID LOG2 PUSH5 0x6970667358 0x22 SLT KECCAK256 PUSH21 0xEA612720387764F9A0B3AD7B3C78E7375A95165E20 SLOAD 0xEC 0xD3 0xA6 0x25 0xD6 NOT DUP7 PUSH14 0x9E64736F6C634300080400336163 CALLER CODECOPY PUSH2 0x6634 CALLDATACOPY CODECOPY CALLER BALANCE BALANCE CODECOPY PUSH6 0x653436626266 PUSH7 0x33353164386362 CALLDATASIZE PUSH3 0x356632 CALLER PUSH5 0x6136303232 ORIGIN BALANCE ORIGIN CALLDATASIZE PUSH2 0x6464 CALLVALUE ORIGIN CALLDATASIZE CODESIZE PUSH6 0x323631313939 PUSH2 0x3239 ORIGIN BALANCE PUSH3 0x0 "
        },
        "methodIdentifiers": {
          "acceptBidForPunk(uint256,uint256)": "23165b75",
          "allInitialOwnersAssigned()": "7ecedac9",
          "allPunksAssigned()": "8126c38a",
          "balanceOf(address)": "70a08231",
          "buyPunk(uint256)": "8264fe98",
          "decimals()": "313ce567",
          "enterBidForPunk(uint256)": "091dbfd2",
          "getPunk(uint256)": "c81d1d5b",
          "imageHash()": "51605d80",
          "name()": "06fdde03",
          "nextPunkIndexToAssign()": "52f29a25",
          "offerPunkForSale(uint256,uint256)": "c44193c3",
          "offerPunkForSaleToAddress(uint256,uint256,address)": "bf31196f",
          "pendingWithdrawals(address)": "f3f43703",
          "punkBids(uint256)": "6e743fa9",
          "punkIndexToAddress(uint256)": "58178168",
          "punkNoLongerForSale(uint256)": "f6eeff1e",
          "punksOfferedForSale(uint256)": "088f11f3",
          "punksRemainingToAssign()": "c0d6ce63",
          "setInitialOwner(address,uint256)": "a75a9049",
          "setInitialOwners(address[],uint256[])": "39c5dde6",
          "standard()": "5a3b7e42",
          "symbol()": "95d89b41",
          "totalSupply()": "18160ddd",
          "transferPunk(address,uint256)": "8b72a2ec",
          "withdraw()": "3ccfd60b",
          "withdrawBidForPunk(uint256)": "979bc638"
        }
      }
    }
  }
}