{
  "_format": "hh-sol-artifact-1",
  "contractName": "MIMOBuyback",
  "sourceName": "contracts/liquidityMining/MIMOBuyBack.sol",
  "abi": [
    {
      "inputs": [
        {
          "internalType": "uint256",
          "name": "_lockExpiry",
          "type": "uint256"
        },
        {
          "internalType": "bytes32",
          "name": "_poolID",
          "type": "bytes32"
        },
        {
          "internalType": "address",
          "name": "_a",
          "type": "address"
        },
        {
          "internalType": "address",
          "name": "_mimo",
          "type": "address"
        },
        {
          "internalType": "address",
          "name": "_balancer",
          "type": "address"
        }
      ],
      "stateMutability": "nonpayable",
      "type": "constructor"
    },
    {
      "inputs": [],
      "name": "KEEPER_ROLE",
      "outputs": [
        {
          "internalType": "bytes32",
          "name": "",
          "type": "bytes32"
        }
      ],
      "stateMutability": "view",
      "type": "function"
    },
    {
      "inputs": [],
      "name": "MIMO",
      "outputs": [
        {
          "internalType": "contract IERC20",
          "name": "",
          "type": "address"
        }
      ],
      "stateMutability": "view",
      "type": "function"
    },
    {
      "inputs": [],
      "name": "PAR",
      "outputs": [
        {
          "internalType": "contract IERC20",
          "name": "",
          "type": "address"
        }
      ],
      "stateMutability": "view",
      "type": "function"
    },
    {
      "inputs": [],
      "name": "a",
      "outputs": [
        {
          "internalType": "contract IAddressProvider",
          "name": "",
          "type": "address"
        }
      ],
      "stateMutability": "view",
      "type": "function"
    },
    {
      "inputs": [],
      "name": "balancer",
      "outputs": [
        {
          "internalType": "contract IVault",
          "name": "",
          "type": "address"
        }
      ],
      "stateMutability": "view",
      "type": "function"
    },
    {
      "inputs": [],
      "name": "buyMIMO",
      "outputs": [],
      "stateMutability": "nonpayable",
      "type": "function"
    },
    {
      "inputs": [],
      "name": "lockExpiry",
      "outputs": [
        {
          "internalType": "uint256",
          "name": "",
          "type": "uint256"
        }
      ],
      "stateMutability": "view",
      "type": "function"
    },
    {
      "inputs": [],
      "name": "poolID",
      "outputs": [
        {
          "internalType": "bytes32",
          "name": "",
          "type": "bytes32"
        }
      ],
      "stateMutability": "view",
      "type": "function"
    },
    {
      "inputs": [
        {
          "internalType": "bool",
          "name": "_status",
          "type": "bool"
        }
      ],
      "name": "setWhitelistEnabled",
      "outputs": [],
      "stateMutability": "nonpayable",
      "type": "function"
    },
    {
      "inputs": [],
      "name": "whitelistEnabled",
      "outputs": [
        {
          "internalType": "bool",
          "name": "",
          "type": "bool"
        }
      ],
      "stateMutability": "view",
      "type": "function"
    },
    {
      "inputs": [
        {
          "internalType": "address",
          "name": "destination",
          "type": "address"
        }
      ],
      "name": "withdrawMIMO",
      "outputs": [],
      "stateMutability": "nonpayable",
      "type": "function"
    }
  ],
  "bytecode": "0x60806040526005805460ff60a01b191690553480156200001e57600080fd5b5060405162001230380380620012308339810160408190526200004191620001f4565b60038590556004848155600080546001600160a01b038087166001600160a01b0319928316179283905560028054878316931692909217909155604080516316d8a5a960e01b8152905192909116926316d8a5a9928282019260209290829003018186803b158015620000b357600080fd5b505afa158015620000c8573d6000803e3d6000fd5b505050506040513d601f19601f82011682018060405250810190620000ee9190620001d5565b600180546001600160a01b03199081166001600160a01b03938416179182905560058054909116848416179081905560405163095ea7b360e01b81529183169263095ea7b3926200014a9290911690600019906004016200025b565b602060405180830381600087803b1580156200016557600080fd5b505af11580156200017a573d6000803e3d6000fd5b505050506040513d601f19601f82011682018060405250810190620001a09190620001ac565b5050505050506200028d565b600060208284031215620001be578081fd5b81518015158114620001ce578182fd5b9392505050565b600060208284031215620001e7578081fd5b8151620001ce8162000274565b600080600080600060a086880312156200020c578081fd5b85519450602086015193506040860151620002278162000274565b60608701519093506200023a8162000274565b60808701519092506200024d8162000274565b809150509295509295909350565b6001600160a01b03929092168252602082015260400190565b6001600160a01b03811681146200028a57600080fd5b50565b610f93806200029d6000396000f3fe608060405234801561001057600080fd5b50600436106100a95760003560e01c80637552118e116100715780637552118e146101135780638d9344851461011b57806391951c2514610123578063a00e07c41461012b578063e563037e14610133578063f3715a4b1461013b576100a9565b8063052d9e7e146100ae5780630dbe671f146100c3578063364bc15a146100e157806341b519da146100f657806351fb012d146100fe575b600080fd5b6100c16100bc366004610cc2565b61014e565b005b6100cb610385565b6040516100d89190610dbb565b60405180910390f35b6100e9610394565b6040516100d89190610df3565b6100cb6103b8565b6101066103c7565b6040516100d89190610de8565b6100c16103d7565b6100e96108cf565b6100e96108d5565b6100cb6108db565b6100cb6108ea565b6100c1610149366004610c9f565b6108f9565b60008054906101000a90046001600160a01b03166001600160a01b031663f77c47916040518163ffffffff1660e01b815260040160206040518083038186803b15801561019a57600080fd5b505afa1580156101ae573d6000803e3d6000fd5b505050506040513d601f19601f820116820180604052508101906101d29190610d12565b6001600160a01b03166391d1485460008054906101000a90046001600160a01b03166001600160a01b031663f77c47916040518163ffffffff1660e01b815260040160206040518083038186803b15801561022c57600080fd5b505afa158015610240573d6000803e3d6000fd5b505050506040513d601f19601f820116820180604052508101906102649190610d12565b6001600160a01b031663ec87621c6040518163ffffffff1660e01b815260040160206040518083038186803b15801561029c57600080fd5b505afa1580156102b0573d6000803e3d6000fd5b505050506040513d601f19601f820116820180604052508101906102d49190610cfa565b336040518363ffffffff1660e01b81526004016102f2929190610dfc565b60206040518083038186803b15801561030a57600080fd5b505afa15801561031e573d6000803e3d6000fd5b505050506040513d601f19601f820116820180604052508101906103429190610cde565b6103675760405162461bcd60e51b815260040161035e90610e43565b60405180910390fd5b60058054911515600160a01b0260ff60a01b19909216919091179055565b6000546001600160a01b031681565b7ffc8737ab85eb45125971625a9ebdb75cc78e01d5c1fa80c4c6e5203f47bc4fab81565b6001546001600160a01b031681565b600554600160a01b900460ff1681565b600554600160a01b900460ff16158061050c575060008054906101000a90046001600160a01b03166001600160a01b031663f77c47916040518163ffffffff1660e01b815260040160206040518083038186803b15801561043757600080fd5b505afa15801561044b573d6000803e3d6000fd5b505050506040513d601f19601f8201168201806040525081019061046f9190610d12565b6001600160a01b03166391d148547ffc8737ab85eb45125971625a9ebdb75cc78e01d5c1fa80c4c6e5203f47bc4fab336040518363ffffffff1660e01b81526004016104bc929190610dfc565b60206040518083038186803b1580156104d457600080fd5b505afa1580156104e8573d6000803e3d6000fd5b505050506040513d601f19601f8201168201806040525081019061050c9190610cde565b6105285760405162461bcd60e51b815260040161035e90610e13565b60008054906101000a90046001600160a01b03166001600160a01b031663f2f4eb266040518163ffffffff1660e01b815260040160206040518083038186803b15801561057457600080fd5b505afa158015610588573d6000803e3d6000fd5b505050506040513d601f19601f820116820180604052508101906105ac9190610d12565b6001600160a01b031663c19d93fb6040518163ffffffff1660e01b815260040160206040518083038186803b1580156105e457600080fd5b505afa1580156105f8573d6000803e3d6000fd5b505050506040513d601f19601f8201168201806040525081019061061c9190610d12565b6001600160a01b031663f8ac93e86040518163ffffffff1660e01b8152600401600060405180830381600087803b15801561065657600080fd5b505af115801561066a573d6000803e3d6000fd5b5050505060008054906101000a90046001600160a01b03166001600160a01b0316630d43e8ad6040518163ffffffff1660e01b815260040160206040518083038186803b1580156106ba57600080fd5b505afa1580156106ce573d6000803e3d6000fd5b505050506040513d601f19601f820116820180604052508101906106f29190610d12565b6001600160a01b03166386d1a69f6040518163ffffffff1660e01b8152600401600060405180830381600087803b15801561072c57600080fd5b505af1158015610740573d6000803e3d6000fd5b5050604080516000815260208101909152915061075d9050610c2f565b6040805160c081018252600480548252600060208301526001546001600160a01b03908116838501819052600254909116606084015292516370a0823160e01b81529192608084019290916370a08231916107ba91309101610dbb565b60206040518083038186803b1580156107d257600080fd5b505afa1580156107e6573d6000803e3d6000fd5b505050506040513d601f19601f8201168201806040525081019061080a9190610cfa565b8152602001839052905061081c610c78565b506040805160808101825230808252600060208301819052828401919091526060820181905260055492516352bbbe2960e01b815291926001600160a01b0316916352bbbe2991610877918691869160001990600401610ea8565b602060405180830381600087803b15801561089157600080fd5b505af11580156108a5573d6000803e3d6000fd5b505050506040513d601f19601f820116820180604052508101906108c99190610cfa565b50505050565b60045481565b60035481565b6002546001600160a01b031681565b6005546001600160a01b031681565b60008054906101000a90046001600160a01b03166001600160a01b031663f77c47916040518163ffffffff1660e01b815260040160206040518083038186803b15801561094557600080fd5b505afa158015610959573d6000803e3d6000fd5b505050506040513d601f19601f8201168201806040525081019061097d9190610d12565b6001600160a01b03166391d1485460008054906101000a90046001600160a01b03166001600160a01b031663f77c47916040518163ffffffff1660e01b815260040160206040518083038186803b1580156109d757600080fd5b505afa1580156109eb573d6000803e3d6000fd5b505050506040513d601f19601f82011682018060405250810190610a0f9190610d12565b6001600160a01b031663ec87621c6040518163ffffffff1660e01b815260040160206040518083038186803b158015610a4757600080fd5b505afa158015610a5b573d6000803e3d6000fd5b505050506040513d601f19601f82011682018060405250810190610a7f9190610cfa565b336040518363ffffffff1660e01b8152600401610a9d929190610dfc565b60206040518083038186803b158015610ab557600080fd5b505afa158015610ac9573d6000803e3d6000fd5b505050506040513d601f19601f82011682018060405250810190610aed9190610cde565b610b095760405162461bcd60e51b815260040161035e90610e43565b6003544211610b2a5760405162461bcd60e51b815260040161035e90610e7a565b6002546040516370a0823160e01b81526001600160a01b039091169063a9059cbb90839083906370a0823190610b64903090600401610dbb565b60206040518083038186803b158015610b7c57600080fd5b505afa158015610b90573d6000803e3d6000fd5b505050506040513d601f19601f82011682018060405250810190610bb49190610cfa565b6040518363ffffffff1660e01b8152600401610bd1929190610dcf565b602060405180830381600087803b158015610beb57600080fd5b505af1158015610bff573d6000803e3d6000fd5b505050506040513d601f19601f82011682018060405250810190610c239190610cde565b610c2c57600080fd5b50565b6040805160c0810190915260008082526020820190815260200160006001600160a01b0316815260200160006001600160a01b0316815260200160008152602001606081525090565b60408051608081018252600080825260208201819052918101829052606081019190915290565b600060208284031215610cb0578081fd5b8135610cbb81610f3a565b9392505050565b600060208284031215610cd3578081fd5b8135610cbb81610f4f565b600060208284031215610cef578081fd5b8151610cbb81610f4f565b600060208284031215610d0b578081fd5b5051919050565b600060208284031215610d23578081fd5b8151610cbb81610f3a565b60008151808452815b81811015610d5357602081850181015186830182015201610d37565b81811115610d645782602083870101525b50601f01601f19169290920160200192915050565b6001600160a01b03169052565b80516001600160a01b039081168352602080830151151590840152604080830151909116908301526060908101511515910152565b6001600160a01b0391909116815260200190565b6001600160a01b03929092168252602082015260400190565b901515815260200190565b90815260200190565b9182526001600160a01b0316602082015260400190565b60208082526016908201527521b0b63632b91034b9903737ba10309025b2b2b832b960511b604082015260600190565b60208082526017908201527f43616c6c6572206973206e6f742061204d616e61676572000000000000000000604082015260600190565b6020808252601490820152731b1bd8dac81b9bdd08195e1c1a5c9959081e595d60621b604082015260600190565b600060e08252855160e0830152602086015160028110610ec457fe5b6101008301526040860151610edd610120840182610d79565b506060860151610ef1610140840182610d79565b50608086015161016083015260a086015160c0610180840152610f186101a0840182610d2e565b915050610f286020830186610d86565b60a082019390935260c0015292915050565b6001600160a01b0381168114610c2c57600080fd5b8015158114610c2c57600080fdfea264697066735822122085356c5f9b5e61235dd4c7ef66676de27d54a3876876bbdb9f104b76e10e144164736f6c634300060c0033",
  "linkReferences": {},
  "deployedLinkReferences": {}
}