{
  "_format": "hh-sol-artifact-1",
  "contractName": "TestFunctionEncoding",
  "sourceName": "contracts/test/TestFunctionEncoding.sol",
  "abi": [
    {
      "inputs": [
        {
          "internalType": "contract Vault",
          "name": "_vault",
          "type": "address"
        }
      ],
      "stateMutability": "nonpayable",
      "type": "constructor"
    },
    {
      "inputs": [
        {
          "internalType": "address",
          "name": "from",
          "type": "address"
        }
      ],
      "name": "encodeWithSignatureTest",
      "outputs": [],
      "stateMutability": "nonpayable",
      "type": "function"
    },
    {
      "inputs": [],
      "name": "vault",
      "outputs": [
        {
          "internalType": "contract Vault",
          "name": "",
          "type": "address"
        }
      ],
      "stateMutability": "view",
      "type": "function"
    }
  ],
  "bytecode": "0x608060405234801561001057600080fd5b5060405161026b38038061026b83398101604081905261002f91610054565b600080546001600160a01b0319166001600160a01b0392909216919091179055610084565b60006020828403121561006657600080fd5b81516001600160a01b038116811461007d57600080fd5b9392505050565b6101d8806100936000396000f3fe608060405234801561001057600080fd5b50600436106100365760003560e01c80638574fe1e1461003b578063fbfa77cf14610050575b600080fd5b61004e61004936600461010d565b61007f565b005b600054610063906001600160a01b031681565b6040516001600160a01b03909116815260200160405180910390f35b6040805160048082526024820183526020820180516001600160e01b0316637299470360e11b17905260005492516318b4d37f60e01b815291926001600160a01b0316916318b4d37f916100d791869186910161013d565b600060405180830381600087803b1580156100f157600080fd5b505af1158015610105573d6000803e3d6000fd5b505050505050565b60006020828403121561011f57600080fd5b81356001600160a01b038116811461013657600080fd5b9392505050565b60018060a01b038316815260006020604081840152835180604085015260005b818110156101795785810183015185820160600152820161015d565b8181111561018b576000606083870101525b50601f01601f19169290920160600194935050505056fea2646970667358221220ec240e19e84a363a40f60925b93aafd7ab01529a2d303460b76c481eed8f2acf64736f6c63430008090033",
  "linkReferences": {},
  "deployedLinkReferences": {}
}