{
  "_format": "hh-sol-artifact-1",
  "contractName": "MixinFunds",
  "sourceName": "contracts/mixins/MixinFunds.sol",
  "abi": [
    {
      "inputs": [],
      "name": "tokenAddress",
      "outputs": [
        {
          "internalType": "address",
          "name": "",
          "type": "address"
        }
      ],
      "stateMutability": "view",
      "type": "function"
    }
  ],
  "bytecode": "0x6080604052348015600f57600080fd5b5060918061001e6000396000f3fe6080604052348015600f57600080fd5b506004361060285760003560e01c80639d76ea5814602d575b600080fd5b600054603f906001600160a01b031681565b6040516001600160a01b03909116815260200160405180910390f3fea26469706673582212208d5bc3898d99238aac0eac396349b5f39acbb0fcc86b39316dc9ef667788bc8a64736f6c63430008040033",
  "linkReferences": {},
  "deployedLinkReferences": {}
}