{
  "_format": "hh-sol-artifact-1",
  "contractName": "MarketRegistry",
  "sourceName": "contracts/market/MarketRegistry.sol",
  "abi": [
    {
      "anonymous": false,
      "inputs": [
        {
          "indexed": false,
          "internalType": "address",
          "name": "previousAdmin",
          "type": "address"
        },
        {
          "indexed": false,
          "internalType": "address",
          "name": "newAdmin",
          "type": "address"
        }
      ],
      "name": "AdminChanged",
      "type": "event"
    },
    {
      "anonymous": false,
      "inputs": [
        {
          "indexed": true,
          "internalType": "address",
          "name": "beacon",
          "type": "address"
        }
      ],
      "name": "BeaconUpgraded",
      "type": "event"
    },
    {
      "anonymous": false,
      "inputs": [
        {
          "indexed": true,
          "internalType": "address",
          "name": "tokenAddress",
          "type": "address"
        },
        {
          "indexed": false,
          "internalType": "address",
          "name": "contractAddress",
          "type": "address"
        }
      ],
      "name": "LogAddUToken",
      "type": "event"
    },
    {
      "anonymous": false,
      "inputs": [
        {
          "indexed": true,
          "internalType": "address",
          "name": "tokenAddress",
          "type": "address"
        },
        {
          "indexed": false,
          "internalType": "address",
          "name": "contractAddress",
          "type": "address"
        }
      ],
      "name": "LogAddUserManager",
      "type": "event"
    },
    {
      "anonymous": false,
      "inputs": [
        {
          "indexed": false,
          "internalType": "address",
          "name": "account",
          "type": "address"
        }
      ],
      "name": "Paused",
      "type": "event"
    },
    {
      "anonymous": false,
      "inputs": [
        {
          "indexed": true,
          "internalType": "bytes32",
          "name": "role",
          "type": "bytes32"
        },
        {
          "indexed": true,
          "internalType": "bytes32",
          "name": "previousAdminRole",
          "type": "bytes32"
        },
        {
          "indexed": true,
          "internalType": "bytes32",
          "name": "newAdminRole",
          "type": "bytes32"
        }
      ],
      "name": "RoleAdminChanged",
      "type": "event"
    },
    {
      "anonymous": false,
      "inputs": [
        {
          "indexed": true,
          "internalType": "bytes32",
          "name": "role",
          "type": "bytes32"
        },
        {
          "indexed": true,
          "internalType": "address",
          "name": "account",
          "type": "address"
        },
        {
          "indexed": true,
          "internalType": "address",
          "name": "sender",
          "type": "address"
        }
      ],
      "name": "RoleGranted",
      "type": "event"
    },
    {
      "anonymous": false,
      "inputs": [
        {
          "indexed": true,
          "internalType": "bytes32",
          "name": "role",
          "type": "bytes32"
        },
        {
          "indexed": true,
          "internalType": "address",
          "name": "account",
          "type": "address"
        },
        {
          "indexed": true,
          "internalType": "address",
          "name": "sender",
          "type": "address"
        }
      ],
      "name": "RoleRevoked",
      "type": "event"
    },
    {
      "anonymous": false,
      "inputs": [
        {
          "indexed": false,
          "internalType": "address",
          "name": "account",
          "type": "address"
        }
      ],
      "name": "Unpaused",
      "type": "event"
    },
    {
      "anonymous": false,
      "inputs": [
        {
          "indexed": true,
          "internalType": "address",
          "name": "implementation",
          "type": "address"
        }
      ],
      "name": "Upgraded",
      "type": "event"
    },
    {
      "inputs": [],
      "name": "DEFAULT_ADMIN_ROLE",
      "outputs": [
        {
          "internalType": "bytes32",
          "name": "",
          "type": "bytes32"
        }
      ],
      "stateMutability": "view",
      "type": "function"
    },
    {
      "inputs": [],
      "name": "ROLE_ADMIN",
      "outputs": [
        {
          "internalType": "bytes32",
          "name": "",
          "type": "bytes32"
        }
      ],
      "stateMutability": "view",
      "type": "function"
    },
    {
      "inputs": [
        {
          "internalType": "address",
          "name": "admin_",
          "type": "address"
        }
      ],
      "name": "__Controller_init",
      "outputs": [],
      "stateMutability": "nonpayable",
      "type": "function"
    },
    {
      "inputs": [],
      "name": "__MarketRegistry_init",
      "outputs": [],
      "stateMutability": "nonpayable",
      "type": "function"
    },
    {
      "inputs": [
        {
          "internalType": "address",
          "name": "account",
          "type": "address"
        }
      ],
      "name": "addAdmin",
      "outputs": [],
      "stateMutability": "nonpayable",
      "type": "function"
    },
    {
      "inputs": [
        {
          "internalType": "address",
          "name": "token",
          "type": "address"
        },
        {
          "internalType": "address",
          "name": "uToken",
          "type": "address"
        }
      ],
      "name": "addUToken",
      "outputs": [],
      "stateMutability": "nonpayable",
      "type": "function"
    },
    {
      "inputs": [
        {
          "internalType": "address",
          "name": "token",
          "type": "address"
        },
        {
          "internalType": "address",
          "name": "userManager",
          "type": "address"
        }
      ],
      "name": "addUserManager",
      "outputs": [],
      "stateMutability": "nonpayable",
      "type": "function"
    },
    {
      "inputs": [
        {
          "internalType": "address",
          "name": "token",
          "type": "address"
        }
      ],
      "name": "deleteMarket",
      "outputs": [],
      "stateMutability": "nonpayable",
      "type": "function"
    },
    {
      "inputs": [
        {
          "internalType": "bytes32",
          "name": "role",
          "type": "bytes32"
        }
      ],
      "name": "getRoleAdmin",
      "outputs": [
        {
          "internalType": "bytes32",
          "name": "",
          "type": "bytes32"
        }
      ],
      "stateMutability": "view",
      "type": "function"
    },
    {
      "inputs": [],
      "name": "getUTokens",
      "outputs": [
        {
          "internalType": "address[]",
          "name": "",
          "type": "address[]"
        }
      ],
      "stateMutability": "view",
      "type": "function"
    },
    {
      "inputs": [],
      "name": "getUserManagers",
      "outputs": [
        {
          "internalType": "address[]",
          "name": "",
          "type": "address[]"
        }
      ],
      "stateMutability": "view",
      "type": "function"
    },
    {
      "inputs": [
        {
          "internalType": "bytes32",
          "name": "role",
          "type": "bytes32"
        },
        {
          "internalType": "address",
          "name": "account",
          "type": "address"
        }
      ],
      "name": "grantRole",
      "outputs": [],
      "stateMutability": "nonpayable",
      "type": "function"
    },
    {
      "inputs": [
        {
          "internalType": "bytes32",
          "name": "role",
          "type": "bytes32"
        },
        {
          "internalType": "address",
          "name": "account",
          "type": "address"
        }
      ],
      "name": "hasRole",
      "outputs": [
        {
          "internalType": "bool",
          "name": "",
          "type": "bool"
        }
      ],
      "stateMutability": "view",
      "type": "function"
    },
    {
      "inputs": [
        {
          "internalType": "address",
          "name": "account",
          "type": "address"
        }
      ],
      "name": "isAdmin",
      "outputs": [
        {
          "internalType": "bool",
          "name": "",
          "type": "bool"
        }
      ],
      "stateMutability": "view",
      "type": "function"
    },
    {
      "inputs": [],
      "name": "pause",
      "outputs": [],
      "stateMutability": "nonpayable",
      "type": "function"
    },
    {
      "inputs": [],
      "name": "pauseGuardian",
      "outputs": [
        {
          "internalType": "address",
          "name": "",
          "type": "address"
        }
      ],
      "stateMutability": "view",
      "type": "function"
    },
    {
      "inputs": [],
      "name": "paused",
      "outputs": [
        {
          "internalType": "bool",
          "name": "",
          "type": "bool"
        }
      ],
      "stateMutability": "view",
      "type": "function"
    },
    {
      "inputs": [],
      "name": "renounceAdmin",
      "outputs": [],
      "stateMutability": "nonpayable",
      "type": "function"
    },
    {
      "inputs": [
        {
          "internalType": "bytes32",
          "name": "role",
          "type": "bytes32"
        },
        {
          "internalType": "address",
          "name": "account",
          "type": "address"
        }
      ],
      "name": "renounceRole",
      "outputs": [],
      "stateMutability": "nonpayable",
      "type": "function"
    },
    {
      "inputs": [
        {
          "internalType": "bytes32",
          "name": "role",
          "type": "bytes32"
        },
        {
          "internalType": "address",
          "name": "account",
          "type": "address"
        }
      ],
      "name": "revokeRole",
      "outputs": [],
      "stateMutability": "nonpayable",
      "type": "function"
    },
    {
      "inputs": [
        {
          "internalType": "address",
          "name": "account",
          "type": "address"
        }
      ],
      "name": "setGuardian",
      "outputs": [],
      "stateMutability": "nonpayable",
      "type": "function"
    },
    {
      "inputs": [
        {
          "internalType": "bytes4",
          "name": "interfaceId",
          "type": "bytes4"
        }
      ],
      "name": "supportsInterface",
      "outputs": [
        {
          "internalType": "bool",
          "name": "",
          "type": "bool"
        }
      ],
      "stateMutability": "view",
      "type": "function"
    },
    {
      "inputs": [
        {
          "internalType": "address",
          "name": "",
          "type": "address"
        }
      ],
      "name": "tokens",
      "outputs": [
        {
          "internalType": "address",
          "name": "uToken",
          "type": "address"
        },
        {
          "internalType": "address",
          "name": "userManager",
          "type": "address"
        }
      ],
      "stateMutability": "view",
      "type": "function"
    },
    {
      "inputs": [
        {
          "internalType": "uint256",
          "name": "",
          "type": "uint256"
        }
      ],
      "name": "uTokenList",
      "outputs": [
        {
          "internalType": "address",
          "name": "",
          "type": "address"
        }
      ],
      "stateMutability": "view",
      "type": "function"
    },
    {
      "inputs": [],
      "name": "unpause",
      "outputs": [],
      "stateMutability": "nonpayable",
      "type": "function"
    },
    {
      "inputs": [
        {
          "internalType": "address",
          "name": "newImplementation",
          "type": "address"
        }
      ],
      "name": "upgradeTo",
      "outputs": [],
      "stateMutability": "nonpayable",
      "type": "function"
    },
    {
      "inputs": [
        {
          "internalType": "address",
          "name": "newImplementation",
          "type": "address"
        },
        {
          "internalType": "bytes",
          "name": "data",
          "type": "bytes"
        }
      ],
      "name": "upgradeToAndCall",
      "outputs": [],
      "stateMutability": "payable",
      "type": "function"
    },
    {
      "inputs": [
        {
          "internalType": "uint256",
          "name": "",
          "type": "uint256"
        }
      ],
      "name": "userManagerList",
      "outputs": [
        {
          "internalType": "address",
          "name": "",
          "type": "address"
        }
      ],
      "stateMutability": "view",
      "type": "function"
    }
  ],
  "bytecode": "0x60a06040523060601b60805234801561001757600080fd5b5060805160601c61214861004b6000396000818161074b0152818161078b015281816108ce015261090e01526121486000f3fe6080604052600436106101b75760003560e01c806370480275116100ec578063a217fddf1161008a578063d547741f11610064578063d547741f146104bb578063d960e94a146104db578063e4860339146104fb578063f5e157c81461055d57600080fd5b8063a217fddf14610464578063cdbffbf814610479578063d391014b1461049957600080fd5b80638a0dac4a116100c65780638a0dac4a146103fa5780638bad0c0a1461041a57806391d148541461042f5780639c93ff011461044f57600080fd5b806370480275146103a55780637f93977a146103c55780638456cb59146103e557600080fd5b806336568abe116101595780634f1ef286116101335780634f1ef2861461033a578063561b08da1461034d5780635c975abb1461036d5780636c461a731461038557600080fd5b806336568abe146102e55780633659cfe6146103055780633f4ba83a1461032557600080fd5b806324a3d6221161019557806324a3d6221461025157806324d7806c1461028e57806329225288146102ae5780632f2ff15d146102c357600080fd5b806301ffc9a7146101bc57806314833a3b146101f1578063248a9ca314610213575b600080fd5b3480156101c857600080fd5b506101dc6101d7366004611d4f565b61057d565b60405190151581526020015b60405180910390f35b3480156101fd57600080fd5b506102066105b4565b6040516101e89190611e08565b34801561021f57600080fd5b5061024361022e366004611d15565b600090815260c9602052604090206001015490565b6040519081526020016101e8565b34801561025d57600080fd5b5060fc546102769061010090046001600160a01b031681565b6040516001600160a01b0390911681526020016101e8565b34801561029a57600080fd5b506101dc6102a9366004611c0c565b610617565b3480156102ba57600080fd5b50610206610631565b3480156102cf57600080fd5b506102e36102de366004611d2d565b610692565b005b3480156102f157600080fd5b506102e3610300366004611d2d565b6106bd565b34801561031157600080fd5b506102e3610320366004611c0c565b610740565b34801561033157600080fd5b506102e3610809565b6102e3610348366004611c58565b6108c3565b34801561035957600080fd5b506102e3610368366004611c26565b610979565b34801561037957600080fd5b5060fc5460ff166101dc565b34801561039157600080fd5b506102e36103a0366004611c0c565b610adc565b3480156103b157600080fd5b506102e36103c0366004611c0c565b610c0c565b3480156103d157600080fd5b506102766103e0366004611d15565b610d44565b3480156103f157600080fd5b506102e3610d6f565b34801561040657600080fd5b506102e3610415366004611c0c565b610e23565b34801561042657600080fd5b506102e3610e7f565b34801561043b57600080fd5b506101dc61044a366004611d2d565b610eb6565b34801561045b57600080fd5b506102e3610ee1565b34801561047057600080fd5b50610243600081565b34801561048557600080fd5b506102e3610494366004611c26565b610f55565b3480156104a557600080fd5b506102436000805160206120cc83398151915281565b3480156104c757600080fd5b506102e36104d6366004611d2d565b6110a2565b3480156104e757600080fd5b506102e36104f6366004611c0c565b6110c8565b34801561050757600080fd5b5061053d610516366004611c0c565b61013160205260009081526040902080546001909101546001600160a01b03918216911682565b604080516001600160a01b039384168152929091166020830152016101e8565b34801561056957600080fd5b50610276610578366004611d15565b611414565b60006001600160e01b03198216637965db0b60e01b14806105ae57506301ffc9a760e01b6001600160e01b03198316145b92915050565b606061013080548060200260200160405190810160405280929190818152602001828054801561060d57602002820191906000526020600020905b81546001600160a01b031681526001909101906020018083116105ef575b5050505050905090565b60006105ae6000805160206120cc83398151915283610eb6565b606061012f80548060200260200160405190810160405280929190818152602001828054801561060d576020028201919060005260206000209081546001600160a01b031681526001909101906020018083116105ef575050505050905090565b600082815260c960205260409020600101546106ae8133611425565b6106b88383611489565b505050565b6001600160a01b03811633146107325760405162461bcd60e51b815260206004820152602f60248201527f416363657373436f6e74726f6c3a2063616e206f6e6c792072656e6f756e636560448201526e103937b632b9903337b91039b2b63360891b60648201526084015b60405180910390fd5b61073c828261150f565b5050565b306001600160a01b037f00000000000000000000000000000000000000000000000000000000000000001614156107895760405162461bcd60e51b815260040161072990611e88565b7f00000000000000000000000000000000000000000000000000000000000000006001600160a01b03166107bb611576565b6001600160a01b0316146107e15760405162461bcd60e51b815260040161072990611ed4565b6107ea816115a4565b60408051600080825260208201909252610806918391906115d8565b50565b60fc5461010090046001600160a01b031633146108385760405162461bcd60e51b815260040161072990611f4f565b60fc5460ff166108835760405162461bcd60e51b815260206004820152601660248201527510dbdb9d1c9bdb1b195c8e881b9bdd081c185d5cd95960521b6044820152606401610729565b60fc805460ff191690556040513381527f5db9ee0a495bf2e6ff9c91a7834c1ba4fdd244a5e8aa4e537bd38aeae4b073aa906020015b60405180910390a1565b306001600160a01b037f000000000000000000000000000000000000000000000000000000000000000016141561090c5760405162461bcd60e51b815260040161072990611e88565b7f00000000000000000000000000000000000000000000000000000000000000006001600160a01b031661093e611576565b6001600160a01b0316146109645760405162461bcd60e51b815260040161072990611ed4565b61096d826115a4565b61073c828260016115d8565b6001600160a01b038083166000908152610131602052604090206001015483911615610a025760405162461bcd60e51b815260206004820152603260248201527f4d61726b657452656769737472793a2068617320616c726561647920657869736044820152713a103a3434b9903ab9b2b926b0b730b3b2b960711b6064820152608401610729565b610a1a6000805160206120cc83398151915233610eb6565b610a365760405162461bcd60e51b815260040161072990611f20565b610130805460018082019092557f2f605e086faac1d93117bbfbc18835d434e9405fadc1ca66faf4b864746daf340180546001600160a01b038581166001600160a01b03199283168117909355861660008181526101316020908152604091829020909501805490931684179092559051918252917f081428de8cb860717cb137b42e1e2226ea2f3e6c9f6b811bc12c8d611157aaf391015b60405180910390a2505050565b600054610100900460ff1680610af5575060005460ff16155b610b115760405162461bcd60e51b815260040161072990611fa1565b600054610100900460ff16158015610b33576000805461ffff19166101011790555b6001600160a01b038216610b845760405162461bcd60e51b8152602060048201526018602482015277436f6e74726f6c6c65723a2061646472657373207a65726f60401b6044820152606401610729565b60fc805460ff191690556001600160a01b038216600081815260fb6020526040902080546001600160a01b0319169091179055610bbf611723565b610bd76000805160206120cc8339815191528361178a565b60fc8054610100600160a81b0319166101006001600160a01b03851602179055801561073c576000805461ff00191690555050565b610c246000805160206120cc83398151915233610eb6565b610c405760405162461bcd60e51b815260040161072990611f20565b6001600160a01b038116610c915760405162461bcd60e51b8152602060048201526018602482015277436f6e74726f6c6c65723a2061646472657373207a65726f60401b6044820152606401610729565b6001600160a01b03818116600090815260fb60205260409020541615610d035760405162461bcd60e51b815260206004820152602160248201527f436f6e74726f6c6c65723a2061646d696e20616c7265616479206578697374656044820152601960fa1b6064820152608401610729565b6001600160a01b038116600081815260fb6020526040902080546001600160a01b03191690911790556108066000805160206120cc8339815191528261178a565b61012f8181548110610d5557600080fd5b6000918252602090912001546001600160a01b0316905081565b60fc5461010090046001600160a01b03163314610d9e5760405162461bcd60e51b815260040161072990611f4f565b60fc5460ff1615610de65760405162461bcd60e51b815260206004820152601260248201527110dbdb9d1c9bdb1b195c8e881c185d5cd95960721b6044820152606401610729565b60fc805460ff191660011790556040513381527f62e78cea01bee320cd4e420270b5ea74000d11b0c9f74754ebdbfc544b05a258906020016108b9565b610e3b6000805160206120cc83398151915233610eb6565b610e575760405162461bcd60e51b815260040161072990611f20565b60fc80546001600160a01b0390921661010002610100600160a81b0319909216919091179055565b610e976000805160206120cc833981519152336106bd565b33600090815260fb6020526040902080546001600160a01b0319169055565b600091825260c9602090815260408084206001600160a01b0393909316845291905290205460ff1690565b600054610100900460ff1680610efa575060005460ff16155b610f165760405162461bcd60e51b815260040161072990611fa1565b600054610100900460ff16158015610f38576000805461ffff19166101011790555b610f4133610adc565b8015610806576000805461ff001916905550565b6001600160a01b038083166000908152610131602052604090205483911615610fd65760405162461bcd60e51b815260206004820152602d60248201527f4d61726b657452656769737472793a2068617320616c7265616479206578697360448201526c3a103a3434b9903aaa37b5b2b760991b6064820152608401610729565b610fee6000805160206120cc83398151915233610eb6565b61100a5760405162461bcd60e51b815260040161072990611f20565b61012f8054600181019091557f232da9e50dad2971456a78fb5cd6ff6b75019984d6e918139ce990999420f9790180546001600160a01b038481166001600160a01b031992831681179093558516600081815261013160209081526040918290208054909416851790935551928352917fa8ddf380e0018e0fe64254567490e65f8df5c1e5ad620dad96349c8eecc4475c9101610acf565b600082815260c960205260409020600101546110be8133611425565b6106b8838361150f565b6110e06000805160206120cc83398151915233610eb6565b6110fc5760405162461bcd60e51b815260040161072990611f20565b6001600160a01b03808216600090815261013160205260408120549091169080805b61012f548110156111845761012f818154811061114b57634e487b7160e01b600052603260045260246000fd5b6000918252602090912001546001600160a01b038581169116141561117257600192508091505b8061117c81612084565b91505061111e565b5081156112665761012f805461119c90600190612026565b815481106111ba57634e487b7160e01b600052603260045260246000fd5b60009182526020909120015461012f80546001600160a01b0390921691839081106111f557634e487b7160e01b600052603260045260246000fd5b9060005260206000200160006101000a8154816001600160a01b0302191690836001600160a01b0316021790555061012f80548061124357634e487b7160e01b600052603160045260246000fd5b600082815260209020810160001990810180546001600160a01b03191690550190555b6001600160a01b0380851660009081526101316020526040812080546001600160a01b0319168155600101549091169080805b610130548110156112ff5761013081815481106112c657634e487b7160e01b600052603260045260246000fd5b6000918252602090912001546001600160a01b03858116911614156112ed57600192508091505b806112f781612084565b915050611299565b5081156113e157610130805461131790600190612026565b8154811061133557634e487b7160e01b600052603260045260246000fd5b60009182526020909120015461013080546001600160a01b03909216918390811061137057634e487b7160e01b600052603260045260246000fd5b9060005260206000200160006101000a8154816001600160a01b0302191690836001600160a01b031602179055506101308054806113be57634e487b7160e01b600052603160045260246000fd5b600082815260209020810160001990810180546001600160a01b03191690550190555b5050506001600160a01b0390931660009081526101316020526040902060010180546001600160a01b0319169055505050565b6101308181548110610d5557600080fd5b61142f8282610eb6565b61073c57611447816001600160a01b03166014611794565b611452836020611794565b604051602001611463929190611d93565b60408051601f198184030181529082905262461bcd60e51b825261072991600401611e55565b6114938282610eb6565b61073c57600082815260c9602090815260408083206001600160a01b03851684529091529020805460ff191660011790556114cb3390565b6001600160a01b0316816001600160a01b0316837f2f8788117e7eff1d82e926ec794901d17c78024a50270940304540a733656f0d60405160405180910390a45050565b6115198282610eb6565b1561073c57600082815260c9602090815260408083206001600160a01b0385168085529252808320805460ff1916905551339285917ff6391f5c32d9c69d2a47ea670b442974b53935d1edc7fd64eb21e047a839171b9190a45050565b7f360894a13ba1a3210667c828492db98dca3e2076cc3735a920a3ca505d382bbc546001600160a01b031690565b6115bc6000805160206120cc83398151915233610eb6565b6108065760405162461bcd60e51b815260040161072990611f20565b60006115e2611576565b90506115ed8461197d565b6000835111806115fa5750815b1561160b576116098484611a22565b505b7f4910fdfa16fed3260ed0e7147f7cc6da11a60208b5b9406d12a635614ffd9143805460ff1661171c57805460ff191660011781556040516001600160a01b038316602482015261168a90869060440160408051601f198184030181529190526020810180516001600160e01b0316631b2ce7f360e11b179052611a22565b50805460ff1916815561169b611576565b6001600160a01b0316826001600160a01b0316146117135760405162461bcd60e51b815260206004820152602f60248201527f45524331393637557067726164653a207570677261646520627265616b73206660448201526e75727468657220757067726164657360881b6064820152608401610729565b61171c85611b0d565b5050505050565b600054610100900460ff168061173c575060005460ff16155b6117585760405162461bcd60e51b815260040161072990611fa1565b600054610100900460ff1615801561177a576000805461ffff19166101011790555b611782611b4d565b610f41611b4d565b61073c8282611489565b606060006117a3836002612007565b6117ae906002611fef565b67ffffffffffffffff8111156117d457634e487b7160e01b600052604160045260246000fd5b6040519080825280601f01601f1916602001820160405280156117fe576020820181803683370190505b509050600360fc1b8160008151811061182757634e487b7160e01b600052603260045260246000fd5b60200101906001600160f81b031916908160001a905350600f60fb1b8160018151811061186457634e487b7160e01b600052603260045260246000fd5b60200101906001600160f81b031916908160001a9053506000611888846002612007565b611893906001611fef565b90505b6001811115611927576f181899199a1a9b1b9c1cb0b131b232b360811b85600f16601081106118d557634e487b7160e01b600052603260045260246000fd5b1a60f81b8282815181106118f957634e487b7160e01b600052603260045260246000fd5b60200101906001600160f81b031916908160001a90535060049490941c936119208161206d565b9050611896565b5083156119765760405162461bcd60e51b815260206004820181905260248201527f537472696e67733a20686578206c656e67746820696e73756666696369656e746044820152606401610729565b9392505050565b803b6119e15760405162461bcd60e51b815260206004820152602d60248201527f455243313936373a206e657720696d706c656d656e746174696f6e206973206e60448201526c1bdd08184818dbdb9d1c9858dd609a1b6064820152608401610729565b7f360894a13ba1a3210667c828492db98dca3e2076cc3735a920a3ca505d382bbc80546001600160a01b0319166001600160a01b0392909216919091179055565b6060823b611a815760405162461bcd60e51b815260206004820152602660248201527f416464726573733a2064656c65676174652063616c6c20746f206e6f6e2d636f6044820152651b9d1c9858dd60d21b6064820152608401610729565b600080846001600160a01b031684604051611a9c9190611d77565b600060405180830381855af49150503d8060008114611ad7576040519150601f19603f3d011682016040523d82523d6000602084013e611adc565b606091505b5091509150611b0482826040518060600160405280602781526020016120ec60279139611bb7565b95945050505050565b611b168161197d565b6040516001600160a01b038216907fbc7cd75a20ee27fd9adebab32041f755214dbc6bffa90cc0225b39da2e5c2d3b90600090a250565b600054610100900460ff1680611b66575060005460ff16155b611b825760405162461bcd60e51b815260040161072990611fa1565b600054610100900460ff16158015610f41576000805461ffff19166101011790558015610806576000805461ff001916905550565b60608315611bc6575081611976565b825115611bd65782518084602001fd5b8160405162461bcd60e51b81526004016107299190611e55565b80356001600160a01b0381168114611c0757600080fd5b919050565b600060208284031215611c1d578081fd5b61197682611bf0565b60008060408385031215611c38578081fd5b611c4183611bf0565b9150611c4f60208401611bf0565b90509250929050565b60008060408385031215611c6a578182fd5b611c7383611bf0565b9150602083013567ffffffffffffffff80821115611c8f578283fd5b818501915085601f830112611ca2578283fd5b813581811115611cb457611cb46120b5565b604051601f8201601f19908116603f01168101908382118183101715611cdc57611cdc6120b5565b81604052828152886020848701011115611cf4578586fd5b82602086016020830137856020848301015280955050505050509250929050565b600060208284031215611d26578081fd5b5035919050565b60008060408385031215611d3f578182fd5b82359150611c4f60208401611bf0565b600060208284031215611d60578081fd5b81356001600160e01b031981168114611976578182fd5b60008251611d8981846020870161203d565b9190910192915050565b7f416363657373436f6e74726f6c3a206163636f756e7420000000000000000000815260008351611dcb81601785016020880161203d565b7001034b99036b4b9b9b4b733903937b6329607d1b6017918401918201528351611dfc81602884016020880161203d565b01602801949350505050565b6020808252825182820181905260009190848201906040850190845b81811015611e495783516001600160a01b031683529284019291840191600101611e24565b50909695505050505050565b6020815260008251806020840152611e7481604085016020870161203d565b601f01601f19169190910160400192915050565b6020808252602c908201527f46756e6374696f6e206d7573742062652063616c6c6564207468726f7567682060408201526b19195b1959d85d1958d85b1b60a21b606082015260800190565b6020808252602c908201527f46756e6374696f6e206d7573742062652063616c6c6564207468726f7567682060408201526b6163746976652070726f787960a01b606082015260800190565b60208082526015908201527421b7b73a3937b63632b91d103737ba1030b236b4b760591b604082015260600190565b60208082526032908201527f436f6e74726f6c6c65723a2063616c6c657220646f6573206e6f7420686176656040820152712074686520677561726469616e20726f6c6560701b606082015260800190565b6020808252602e908201527f496e697469616c697a61626c653a20636f6e747261637420697320616c72656160408201526d191e481a5b9a5d1a585b1a5e995960921b606082015260800190565b600082198211156120025761200261209f565b500190565b60008160001904831182151516156120215761202161209f565b500290565b6000828210156120385761203861209f565b500390565b60005b83811015612058578181015183820152602001612040565b83811115612067576000848401525b50505050565b60008161207c5761207c61209f565b506000190190565b60006000198214156120985761209861209f565b5060010190565b634e487b7160e01b600052601160045260246000fd5b634e487b7160e01b600052604160045260246000fdfe2172861495e7b85edac73e3cd5fbb42dd675baadf627720e687bcfdaca025096416464726573733a206c6f772d6c6576656c2064656c65676174652063616c6c206661696c6564a264697066735822122008c7b51a6255f077cda076e33ae88d81e6f0eb66bf29109160be77d25aa8277064736f6c63430008040033",
  "linkReferences": {},
  "deployedLinkReferences": {}
}