{"abi":[{"type":"constructor","inputs":[{"name":"_weth","type":"address","internalType":"address"},{"name":"_savingsAccount","type":"address","internalType":"address"}],"stateMutability":"nonpayable"},{"type":"function","name":"depositEth","inputs":[{"name":"_strategy","type":"address","internalType":"address"},{"name":"_to","type":"address","internalType":"address"}],"outputs":[],"stateMutability":"payable"},{"type":"function","name":"savingsAccount","inputs":[],"outputs":[{"name":"","type":"address","internalType":"contract ISavingsAccount"}],"stateMutability":"view"},{"type":"function","name":"weth","inputs":[],"outputs":[{"name":"","type":"address","internalType":"contract IWETH9"}],"stateMutability":"view"}],"bytecode":{"object":"0x60c060405234801561001057600080fd5b506040516107033803806107038339818101604052604081101561003357600080fd5b810190808051906020019092919080519060200190929190505050600073ffffffffffffffffffffffffffffffffffffffff168273ffffffffffffffffffffffffffffffffffffffff1614156100f1576040517f08c379a00000000000000000000000000000000000000000000000000000000081526004018080602001828103825260078152602001807f534145553a43310000000000000000000000000000000000000000000000000081525060200191505060405180910390fd5b600073ffffffffffffffffffffffffffffffffffffffff168173ffffffffffffffffffffffffffffffffffffffff161415610194576040517f08c379a00000000000000000000000000000000000000000000000000000000081526004018080602001828103825260078152602001807f534145553a43320000000000000000000000000000000000000000000000000081525060200191505060405180910390fd5b8173ffffffffffffffffffffffffffffffffffffffff1660808173ffffffffffffffffffffffffffffffffffffffff1660601b815250508073ffffffffffffffffffffffffffffffffffffffff1660a08173ffffffffffffffffffffffffffffffffffffffff1660601b81525050505060805160601c60a05160601c6104bd6102466000398061019b52806101c252806103135250806101fe52806102ef528061033752806103b852506104bd6000f3fe6080604052600436106100345760003560e01c80631e04e856146100395780633fc8cef31461009d578063ecced623146100de575b600080fd5b61009b6004803603604081101561004f57600080fd5b81019080803573ffffffffffffffffffffffffffffffffffffffff169060200190929190803573ffffffffffffffffffffffffffffffffffffffff16906020019092919050505061011f565b005b3480156100a957600080fd5b506100b26102ed565b604051808273ffffffffffffffffffffffffffffffffffffffff16815260200191505060405180910390f35b3480156100ea57600080fd5b506100f3610311565b604051808273ffffffffffffffffffffffffffffffffffffffff16815260200191505060405180910390f35b6000341415610196576040517f08c379a00000000000000000000000000000000000000000000000000000000081526004018080602001828103825260088152602001807f534145553a44453100000000000000000000000000000000000000000000000081525060200191505060405180910390fd5b6101c07f000000000000000000000000000000000000000000000000000000000000000034610335565b7f000000000000000000000000000000000000000000000000000000000000000073ffffffffffffffffffffffffffffffffffffffff16630284c3f57f00000000000000000000000000000000000000000000000000000000000000008484346040518563ffffffff1660e01b8152600401808573ffffffffffffffffffffffffffffffffffffffff1681526020018473ffffffffffffffffffffffffffffffffffffffff1681526020018373ffffffffffffffffffffffffffffffffffffffff168152602001828152602001945050505050602060405180830381600087803b1580156102ad57600080fd5b505af11580156102c1573d6000803e3d6000fd5b505050506040513d60208110156102d757600080fd5b8101908080519060200190929190505050505050565b7f000000000000000000000000000000000000000000000000000000000000000081565b7f000000000000000000000000000000000000000000000000000000000000000081565b7f000000000000000000000000000000000000000000000000000000000000000073ffffffffffffffffffffffffffffffffffffffff1663d0e30db0826040518263ffffffff1660e01b81526004016000604051808303818588803b15801561039d57600080fd5b505af11580156103b1573d6000803e3d6000fd5b50505050507f000000000000000000000000000000000000000000000000000000000000000073ffffffffffffffffffffffffffffffffffffffff1663095ea7b383836040518363ffffffff1660e01b8152600401808373ffffffffffffffffffffffffffffffffffffffff16815260200182815260200192505050602060405180830381600087803b15801561044757600080fd5b505af115801561045b573d6000803e3d6000fd5b505050506040513d602081101561047157600080fd5b810190808051906020019092919050505050505056fea2646970667358221220ee922d04202bbc6aa4510395f916e9c1edcdd35c5b42633e5ef84cd92efd181b64736f6c63430007060033","linkReferences":{}},"methodIdentifiers":{"depositEth(address,address)":"1e04e856","savingsAccount()":"ecced623","weth()":"3fc8cef3"},"id":14}