{"abi":[{"type":"constructor","inputs":[{"name":"_treasury","type":"address","internalType":"address"},{"name":"_savingsAccount","type":"address","internalType":"address"}],"stateMutability":"nonpayable"},{"type":"function","name":"SAVINGS_ACCOUNT","inputs":[],"outputs":[{"name":"","type":"address","internalType":"address"}],"stateMutability":"view"},{"type":"function","name":"TREASURY","inputs":[],"outputs":[{"name":"","type":"address","internalType":"address"}],"stateMutability":"view"},{"type":"function","name":"addTokenAddress","inputs":[{"name":"_asset","type":"address","internalType":"address"}],"outputs":[],"stateMutability":"nonpayable"},{"type":"function","name":"emergencyWithdraw","inputs":[{"name":"_asset","type":"address","internalType":"address"},{"name":"_amount","type":"uint256","internalType":"uint256"}],"outputs":[{"name":"","type":"uint256","internalType":"uint256"}],"stateMutability":"nonpayable"},{"type":"function","name":"getSharesForTokens","inputs":[{"name":"amount","type":"uint256","internalType":"uint256"},{"name":"","type":"address","internalType":"address"}],"outputs":[{"name":"","type":"uint256","internalType":"uint256"}],"stateMutability":"pure"},{"type":"function","name":"getTokensForShares","inputs":[{"name":"shares","type":"uint256","internalType":"uint256"},{"name":"","type":"address","internalType":"address"}],"outputs":[{"name":"","type":"uint256","internalType":"uint256"}],"stateMutability":"pure"},{"type":"function","name":"initialize","inputs":[{"name":"_owner","type":"address","internalType":"address"}],"outputs":[],"stateMutability":"nonpayable"},{"type":"function","name":"liquidityToken","inputs":[{"name":"_asset","type":"address","internalType":"address"}],"outputs":[{"name":"","type":"address","internalType":"address"}],"stateMutability":"pure"},{"type":"function","name":"lockTokens","inputs":[{"name":"user","type":"address","internalType":"address"},{"name":"asset","type":"address","internalType":"address"},{"name":"amount","type":"uint256","internalType":"uint256"}],"outputs":[{"name":"","type":"uint256","internalType":"uint256"}],"stateMutability":"nonpayable"},{"type":"function","name":"owner","inputs":[],"outputs":[{"name":"","type":"address","internalType":"address"}],"stateMutability":"view"},{"type":"function","name":"removeTokenAddress","inputs":[{"name":"_asset","type":"address","internalType":"address"}],"outputs":[],"stateMutability":"nonpayable"},{"type":"function","name":"renounceOwnership","inputs":[],"outputs":[],"stateMutability":"nonpayable"},{"type":"function","name":"tokenWhitelist","inputs":[{"name":"","type":"address","internalType":"address"}],"outputs":[{"name":"","type":"bool","internalType":"bool"}],"stateMutability":"view"},{"type":"function","name":"transferOwnership","inputs":[{"name":"newOwner","type":"address","internalType":"address"}],"outputs":[],"stateMutability":"nonpayable"},{"type":"function","name":"unlockShares","inputs":[{"name":"asset","type":"address","internalType":"address"},{"name":"to","type":"address","internalType":"address"},{"name":"amount","type":"uint256","internalType":"uint256"}],"outputs":[{"name":"","type":"uint256","internalType":"uint256"}],"stateMutability":"nonpayable"},{"type":"function","name":"unlockTokens","inputs":[{"name":"asset","type":"address","internalType":"address"},{"name":"to","type":"address","internalType":"address"},{"name":"amount","type":"uint256","internalType":"uint256"}],"outputs":[{"name":"","type":"uint256","internalType":"uint256"}],"stateMutability":"nonpayable"},{"type":"event","name":"EmergencyWithdraw","inputs":[{"name":"asset","type":"address","indexed":true,"internalType":"address"},{"name":"withdrawTo","type":"address","indexed":true,"internalType":"address"},{"name":"tokensReceived","type":"uint256","indexed":false,"internalType":"uint256"}],"anonymous":false},{"type":"event","name":"LockedTokens","inputs":[{"name":"user","type":"address","indexed":true,"internalType":"address"},{"name":"investedTo","type":"address","indexed":true,"internalType":"address"},{"name":"lpTokensReceived","type":"uint256","indexed":false,"internalType":"uint256"}],"anonymous":false},{"type":"event","name":"OwnershipTransferred","inputs":[{"name":"previousOwner","type":"address","indexed":true,"internalType":"address"},{"name":"newOwner","type":"address","indexed":true,"internalType":"address"}],"anonymous":false},{"type":"event","name":"SavingsAccountUpdated","inputs":[{"name":"savingsAccount","type":"address","indexed":true,"internalType":"address"}],"anonymous":false},{"type":"event","name":"TokenWhitelistRemoved","inputs":[{"name":"asset","type":"address","indexed":true,"internalType":"address"}],"anonymous":false},{"type":"event","name":"TokenWhitelisted","inputs":[{"name":"asset","type":"address","indexed":true,"internalType":"address"}],"anonymous":false},{"type":"event","name":"UnlockedShares","inputs":[{"name":"asset","type":"address","indexed":true,"internalType":"address"},{"name":"sharesReleased","type":"uint256","indexed":false,"internalType":"uint256"}],"anonymous":false},{"type":"event","name":"UnlockedTokens","inputs":[{"name":"investedTo","type":"address","indexed":true,"internalType":"address"},{"name":"collateralReceived","type":"uint256","indexed":false,"internalType":"uint256"}],"anonymous":false}],"bytecode":{"object":"0x60c060405234801561001057600080fd5b506040516127a43803806127a48339818101604052604081101561003357600080fd5b810190808051906020019092919080519060200190929190505050600073ffffffffffffffffffffffffffffffffffffffff168273ffffffffffffffffffffffffffffffffffffffff1614156100f1576040517f08c379a00000000000000000000000000000000000000000000000000000000081526004018080602001828103825260058152602001807f4e593a433100000000000000000000000000000000000000000000000000000081525060200191505060405180910390fd5b600073ffffffffffffffffffffffffffffffffffffffff168173ffffffffffffffffffffffffffffffffffffffff161415610194576040517f08c379a00000000000000000000000000000000000000000000000000000000081526004018080602001828103825260028152602001807f433100000000000000000000000000000000000000000000000000000000000081525060200191505060405180910390fd5b8173ffffffffffffffffffffffffffffffffffffffff1660808173ffffffffffffffffffffffffffffffffffffffff1660601b815250508073ffffffffffffffffffffffffffffffffffffffff1660a08173ffffffffffffffffffffffffffffffffffffffff1660601b81525050505060805160601c60a05160601c61255e6102466000398061097b5280610adb52806111a5528061143e525080610955528061136552806113ad525061255e6000f3fe608060405234801561001057600080fd5b50600436106101005760003560e01c8063753d75631161009757806395ccea671161006657806395ccea67146104c3578063b6ffc60314610525578063c4d66de8146105a7578063f2fde38b146105eb57610100565b8063753d75631461039f5780637b2a2d1f146103f95780638da5cb5b1461042d578063934a52521461046157610100565b80634767ceee116100d35780634767ceee1461026d57806351992fcb146102ef57806359846d2914610333578063715018a61461039557610100565b80631391abc7146101055780632496f315146101735780632d2c5565146101b75780632d452658146101eb575b600080fd5b6101476004803603602081101561011b57600080fd5b81019080803573ffffffffffffffffffffffffffffffffffffffff16906020019092919050505061062f565b604051808273ffffffffffffffffffffffffffffffffffffffff16815260200191505060405180910390f35b6101b56004803603602081101561018957600080fd5b81019080803573ffffffffffffffffffffffffffffffffffffffff169060200190929190505050610639565b005b6101bf610953565b604051808273ffffffffffffffffffffffffffffffffffffffff16815260200191505060405180910390f35b6102576004803603606081101561020157600080fd5b81019080803573ffffffffffffffffffffffffffffffffffffffff169060200190929190803573ffffffffffffffffffffffffffffffffffffffff16906020019092919080359060200190929190505050610977565b6040518082815260200191505060405180910390f35b6102d96004803603606081101561028357600080fd5b81019080803573ffffffffffffffffffffffffffffffffffffffff169060200190929190803573ffffffffffffffffffffffffffffffffffffffff16906020019092919080359060200190929190505050610ad7565b6040518082815260200191505060405180910390f35b6103316004803603602081101561030557600080fd5b81019080803573ffffffffffffffffffffffffffffffffffffffff169060200190929190505050610dfb565b005b61037f6004803603604081101561034957600080fd5b8101908080359060200190929190803573ffffffffffffffffffffffffffffffffffffffff169060200190929190505050611008565b6040518082815260200191505060405180910390f35b61039d611013565b005b6103e1600480360360208110156103b557600080fd5b81019080803573ffffffffffffffffffffffffffffffffffffffff169060200190929190505050611183565b60405180821515815260200191505060405180910390f35b6104016111a3565b604051808273ffffffffffffffffffffffffffffffffffffffff16815260200191505060405180910390f35b6104356111c7565b604051808273ffffffffffffffffffffffffffffffffffffffff16815260200191505060405180910390f35b6104ad6004803603604081101561047757600080fd5b8101908080359060200190929190803573ffffffffffffffffffffffffffffffffffffffff1690602001909291905050506111f1565b6040518082815260200191505060405180910390f35b61050f600480360360408110156104d957600080fd5b81019080803573ffffffffffffffffffffffffffffffffffffffff169060200190929190803590602001909291905050506111fc565b6040518082815260200191505060405180910390f35b6105916004803603606081101561053b57600080fd5b81019080803573ffffffffffffffffffffffffffffffffffffffff169060200190929190803573ffffffffffffffffffffffffffffffffffffffff1690602001909291908035906020019092919050505061143a565b6040518082815260200191505060405180910390f35b6105e9600480360360208110156105bd57600080fd5b81019080803573ffffffffffffffffffffffffffffffffffffffff16906020019092919050505061159a565b005b61062d6004803603602081101561060157600080fd5b81019080803573ffffffffffffffffffffffffffffffffffffffff1690602001909291905050506116b2565b005b6000819050919050565b6106416118a7565b73ffffffffffffffffffffffffffffffffffffffff1661065f6111c7565b73ffffffffffffffffffffffffffffffffffffffff16146106e8576040517f08c379a00000000000000000000000000000000000000000000000000000000081526004018080602001828103825260208152602001807f4f776e61626c653a2063616c6c6572206973206e6f7420746865206f776e657281525060200191505060405180910390fd5b609760008273ffffffffffffffffffffffffffffffffffffffff1673ffffffffffffffffffffffffffffffffffffffff16815260200190815260200160002060009054906101000a900460ff166107a7576040517f08c379a00000000000000000000000000000000000000000000000000000000081526004018080602001828103825260078152602001807f4e593a525441310000000000000000000000000000000000000000000000000081525060200191505060405180910390fd5b60008173ffffffffffffffffffffffffffffffffffffffff166370a08231306040518263ffffffff1660e01b8152600401808273ffffffffffffffffffffffffffffffffffffffff16815260200191505060206040518083038186803b15801561081057600080fd5b505afa158015610824573d6000803e3d6000fd5b505050506040513d602081101561083a57600080fd5b8101908080519060200190929190505050146108be576040517f08c379a00000000000000000000000000000000000000000000000000000000081526004018080602001828103825260078152602001807f4e593a525441320000000000000000000000000000000000000000000000000081525060200191505060405180910390fd5b609760008273ffffffffffffffffffffffffffffffffffffffff1673ffffffffffffffffffffffffffffffffffffffff16815260200190815260200160002060006101000a81549060ff02191690558073ffffffffffffffffffffffffffffffffffffffff167facb00cc2a3d7b5393605c6a193ca065623a20726be73ae645e7ebf8f558038da60405160405180910390a250565b7f000000000000000000000000000000000000000000000000000000000000000081565b60007f000000000000000000000000000000000000000000000000000000000000000073ffffffffffffffffffffffffffffffffffffffff163373ffffffffffffffffffffffffffffffffffffffff1614610a3a576040517f08c379a00000000000000000000000000000000000000000000000000000000081526004018080602001828103825260078152602001807f4e593a4f5341310000000000000000000000000000000000000000000000000081525060200191505060405180910390fd5b60026065541415610ab3576040517f08c379a000000000000000000000000000000000000000000000000000000000815260040180806020018281038252601f8152602001807f5265656e7472616e637947756172643a207265656e7472616e742063616c6c0081525060200191505060405180910390fd5b6002606581905550610ac68484846118af565b905060016065819055509392505050565b60007f000000000000000000000000000000000000000000000000000000000000000073ffffffffffffffffffffffffffffffffffffffff163373ffffffffffffffffffffffffffffffffffffffff1614610b9a576040517f08c379a00000000000000000000000000000000000000000000000000000000081526004018080602001828103825260078152602001807f4e593a4f5341310000000000000000000000000000000000000000000000000081525060200191505060405180910390fd5b60026065541415610c13576040517f08c379a000000000000000000000000000000000000000000000000000000000815260040180806020018281038252601f8152602001807f5265656e7472616e637947756172643a207265656e7472616e742063616c6c0081525060200191505060405180910390fd5b60026065819055506000821415610c92576040517f08c379a00000000000000000000000000000000000000000000000000000000081526004018080602001828103825260068152602001807f4e593a4c5431000000000000000000000000000000000000000000000000000081525060200191505060405180910390fd5b609760008473ffffffffffffffffffffffffffffffffffffffff1673ffffffffffffffffffffffffffffffffffffffff16815260200190815260200160002060009054906101000a900460ff16610d51576040517f08c379a00000000000000000000000000000000000000000000000000000000081526004018080602001828103825260068152602001807f4e593a4c5432000000000000000000000000000000000000000000000000000081525060200191505060405180910390fd5b610d7e8430848673ffffffffffffffffffffffffffffffffffffffff166119b0909392919063ffffffff16565b60008290508373ffffffffffffffffffffffffffffffffffffffff168573ffffffffffffffffffffffffffffffffffffffff167f71538b5e30c18b86003771476b5887a8f118d796b2a4a2a5960e0ac1b10962d3836040518082815260200191505060405180910390a38091505060016065819055509392505050565b610e036118a7565b73ffffffffffffffffffffffffffffffffffffffff16610e216111c7565b73ffffffffffffffffffffffffffffffffffffffff1614610eaa576040517f08c379a00000000000000000000000000000000000000000000000000000000081526004018080602001828103825260208152602001807f4f776e61626c653a2063616c6c6572206973206e6f7420746865206f776e657281525060200191505060405180910390fd5b609760008273ffffffffffffffffffffffffffffffffffffffff1673ffffffffffffffffffffffffffffffffffffffff16815260200190815260200160002060009054906101000a900460ff1615610f6a576040517f08c379a00000000000000000000000000000000000000000000000000000000081526004018080602001828103825260078152602001807f4e593a415441310000000000000000000000000000000000000000000000000081525060200191505060405180910390fd5b6001609760008373ffffffffffffffffffffffffffffffffffffffff1673ffffffffffffffffffffffffffffffffffffffff16815260200190815260200160002060006101000a81548160ff0219169083151502179055508073ffffffffffffffffffffffffffffffffffffffff167f6a65f90b1a644d2faac467a21e07e50e3f8fa5846e26231d30ae79a417d3d26260405160405180910390a250565b600082905092915050565b61101b6118a7565b73ffffffffffffffffffffffffffffffffffffffff166110396111c7565b73ffffffffffffffffffffffffffffffffffffffff16146110c2576040517f08c379a00000000000000000000000000000000000000000000000000000000081526004018080602001828103825260208152602001807f4f776e61626c653a2063616c6c6572206973206e6f7420746865206f776e657281525060200191505060405180910390fd5b600073ffffffffffffffffffffffffffffffffffffffff16603360009054906101000a900473ffffffffffffffffffffffffffffffffffffffff1673ffffffffffffffffffffffffffffffffffffffff167f8be0079c531659141344cd1fd0a4f28419497f9722a3daafe3b4186f6b6457e060405160405180910390a36000603360006101000a81548173ffffffffffffffffffffffffffffffffffffffff021916908373ffffffffffffffffffffffffffffffffffffffff160217905550565b60976020528060005260406000206000915054906101000a900460ff1681565b7f000000000000000000000000000000000000000000000000000000000000000081565b6000603360009054906101000a900473ffffffffffffffffffffffffffffffffffffffff16905090565b600082905092915050565b60006112066118a7565b73ffffffffffffffffffffffffffffffffffffffff166112246111c7565b73ffffffffffffffffffffffffffffffffffffffff16146112ad576040517f08c379a00000000000000000000000000000000000000000000000000000000081526004018080602001828103825260208152602001807f4f776e61626c653a2063616c6c6572206973206e6f7420746865206f776e657281525060200191505060405180910390fd5b60008290506000831415611360578373ffffffffffffffffffffffffffffffffffffffff166370a08231306040518263ffffffff1660e01b8152600401808273ffffffffffffffffffffffffffffffffffffffff16815260200191505060206040518083038186803b15801561132257600080fd5b505afa158015611336573d6000803e3d6000fd5b505050506040513d602081101561134c57600080fd5b810190808051906020019092919050505090505b6113ab7f0000000000000000000000000000000000000000000000000000000000000000828673ffffffffffffffffffffffffffffffffffffffff16611a719092919063ffffffff16565b7f000000000000000000000000000000000000000000000000000000000000000073ffffffffffffffffffffffffffffffffffffffff168473ffffffffffffffffffffffffffffffffffffffff167ff24ef89f38eadc1bde50701ad6e4d6d11a2dc24f7cf834a486991f3883328504836040518082815260200191505060405180910390a38091505092915050565b60007f000000000000000000000000000000000000000000000000000000000000000073ffffffffffffffffffffffffffffffffffffffff163373ffffffffffffffffffffffffffffffffffffffff16146114fd576040517f08c379a00000000000000000000000000000000000000000000000000000000081526004018080602001828103825260078152602001807f4e593a4f5341310000000000000000000000000000000000000000000000000081525060200191505060405180910390fd5b60026065541415611576576040517f08c379a000000000000000000000000000000000000000000000000000000000815260040180806020018281038252601f8152602001807f5265656e7472616e637947756172643a207265656e7472616e742063616c6c0081525060200191505060405180910390fd5b60026065819055506115898484846118af565b905060016065819055509392505050565b600060019054906101000a900460ff16806115b957506115b8611b13565b5b806115cf575060008054906101000a900460ff16155b611624576040517f08c379a000000000000000000000000000000000000000000000000000000000815260040180806020018281038252602e8152602001806124d1602e913960400191505060405180910390fd5b60008060019054906101000a900460ff161590508015611674576001600060016101000a81548160ff02191690831515021790555060016000806101000a81548160ff0219169083151502179055505b61167c611b24565b611685826116b2565b61168d611c32565b80156116ae5760008060016101000a81548160ff0219169083151502179055505b5050565b6116ba6118a7565b73ffffffffffffffffffffffffffffffffffffffff166116d86111c7565b73ffffffffffffffffffffffffffffffffffffffff1614611761576040517f08c379a00000000000000000000000000000000000000000000000000000000081526004018080602001828103825260208152602001807f4f776e61626c653a2063616c6c6572206973206e6f7420746865206f776e657281525060200191505060405180910390fd5b600073ffffffffffffffffffffffffffffffffffffffff168173ffffffffffffffffffffffffffffffffffffffff1614156117e7576040517f08c379a00000000000000000000000000000000000000000000000000000000081526004018080602001828103825260268152602001806124856026913960400191505060405180910390fd5b8073ffffffffffffffffffffffffffffffffffffffff16603360009054906101000a900473ffffffffffffffffffffffffffffffffffffffff1673ffffffffffffffffffffffffffffffffffffffff167f8be0079c531659141344cd1fd0a4f28419497f9722a3daafe3b4186f6b6457e060405160405180910390a380603360006101000a81548173ffffffffffffffffffffffffffffffffffffffff021916908373ffffffffffffffffffffffffffffffffffffffff16021790555050565b600033905090565b600080821415611927576040517f08c379a00000000000000000000000000000000000000000000000000000000081526004018080602001828103825260078152602001807f4e593a495554310000000000000000000000000000000000000000000000000081525060200191505060405180910390fd5b600082905061195784828773ffffffffffffffffffffffffffffffffffffffff16611a719092919063ffffffff16565b8473ffffffffffffffffffffffffffffffffffffffff167faf08a4db36432bb5cbbfdfcf5af1040246483dc0dae8a9616cc79816c432fee9826040518082815260200191505060405180910390a2809150509392505050565b611a6b846323b872dd60e01b858585604051602401808473ffffffffffffffffffffffffffffffffffffffff1681526020018373ffffffffffffffffffffffffffffffffffffffff1681526020018281526020019350505050604051602081830303815290604052907bffffffffffffffffffffffffffffffffffffffffffffffffffffffff19166020820180517bffffffffffffffffffffffffffffffffffffffffffffffffffffffff8381831617835250505050611d38565b50505050565b611b0e8363a9059cbb60e01b8484604051602401808373ffffffffffffffffffffffffffffffffffffffff16815260200182815260200192505050604051602081830303815290604052907bffffffffffffffffffffffffffffffffffffffffffffffffffffffff19166020820180517bffffffffffffffffffffffffffffffffffffffffffffffffffffffff8381831617835250505050611d38565b505050565b6000611b1e30611e27565b15905090565b600060019054906101000a900460ff1680611b435750611b42611b13565b5b80611b59575060008054906101000a900460ff16155b611bae576040517f08c379a000000000000000000000000000000000000000000000000000000000815260040180806020018281038252602e8152602001806124d1602e913960400191505060405180910390fd5b60008060019054906101000a900460ff161590508015611bfe576001600060016101000a81548160ff02191690831515021790555060016000806101000a81548160ff0219169083151502179055505b611c06611e3a565b611c0e611f38565b8015611c2f5760008060016101000a81548160ff0219169083151502179055505b50565b600060019054906101000a900460ff1680611c515750611c50611b13565b5b80611c67575060008054906101000a900460ff16155b611cbc576040517f08c379a000000000000000000000000000000000000000000000000000000000815260040180806020018281038252602e8152602001806124d1602e913960400191505060405180910390fd5b60008060019054906101000a900460ff161590508015611d0c576001600060016101000a81548160ff02191690831515021790555060016000806101000a81548160ff0219169083151502179055505b611d146120df565b8015611d355760008060016101000a81548160ff0219169083151502179055505b50565b6000611d9a826040518060400160405280602081526020017f5361666545524332303a206c6f772d6c6576656c2063616c6c206661696c65648152508573ffffffffffffffffffffffffffffffffffffffff166121e59092919063ffffffff16565b9050600081511115611e2257808060200190516020811015611dbb57600080fd5b8101908080519060200190929190505050611e21576040517f08c379a000000000000000000000000000000000000000000000000000000000815260040180806020018281038252602a8152602001806124ff602a913960400191505060405180910390fd5b5b505050565b600080823b905060008111915050919050565b600060019054906101000a900460ff1680611e595750611e58611b13565b5b80611e6f575060008054906101000a900460ff16155b611ec4576040517f08c379a000000000000000000000000000000000000000000000000000000000815260040180806020018281038252602e8152602001806124d1602e913960400191505060405180910390fd5b60008060019054906101000a900460ff161590508015611f14576001600060016101000a81548160ff02191690831515021790555060016000806101000a81548160ff0219169083151502179055505b8015611f355760008060016101000a81548160ff0219169083151502179055505b50565b600060019054906101000a900460ff1680611f575750611f56611b13565b5b80611f6d575060008054906101000a900460ff16155b611fc2576040517f08c379a000000000000000000000000000000000000000000000000000000000815260040180806020018281038252602e8152602001806124d1602e913960400191505060405180910390fd5b60008060019054906101000a900460ff161590508015612012576001600060016101000a81548160ff02191690831515021790555060016000806101000a81548160ff0219169083151502179055505b600061201c6118a7565b905080603360006101000a81548173ffffffffffffffffffffffffffffffffffffffff021916908373ffffffffffffffffffffffffffffffffffffffff1602179055508073ffffffffffffffffffffffffffffffffffffffff16600073ffffffffffffffffffffffffffffffffffffffff167f8be0079c531659141344cd1fd0a4f28419497f9722a3daafe3b4186f6b6457e060405160405180910390a35080156120dc5760008060016101000a81548160ff0219169083151502179055505b50565b600060019054906101000a900460ff16806120fe57506120fd611b13565b5b80612114575060008054906101000a900460ff16155b612169576040517f08c379a000000000000000000000000000000000000000000000000000000000815260040180806020018281038252602e8152602001806124d1602e913960400191505060405180910390fd5b60008060019054906101000a900460ff1615905080156121b9576001600060016101000a81548160ff02191690831515021790555060016000806101000a81548160ff0219169083151502179055505b600160658190555080156121e25760008060016101000a81548160ff0219169083151502179055505b50565b60606121f484846000856121fd565b90509392505050565b606082471015612258576040517f08c379a00000000000000000000000000000000000000000000000000000000081526004018080602001828103825260268152602001806124ab6026913960400191505060405180910390fd5b612261856123a5565b6122d3576040517f08c379a000000000000000000000000000000000000000000000000000000000815260040180806020018281038252601d8152602001807f416464726573733a2063616c6c20746f206e6f6e2d636f6e747261637400000081525060200191505060405180910390fd5b6000808673ffffffffffffffffffffffffffffffffffffffff1685876040518082805190602001908083835b6020831061232257805182526020820191506020810190506020830392506122ff565b6001836020036101000a03801982511681845116808217855250505050505090500191505060006040518083038185875af1925050503d8060008114612384576040519150601f19603f3d011682016040523d82523d6000602084013e612389565b606091505b50915091506123998282866123b8565b92505050949350505050565b600080823b905060008111915050919050565b606083156123c85782905061247d565b6000835111156123db5782518084602001fd5b816040517f08c379a00000000000000000000000000000000000000000000000000000000081526004018080602001828103825283818151815260200191508051906020019080838360005b83811015612442578082015181840152602081019050612427565b50505050905090810190601f16801561246f5780820380516001836020036101000a031916815260200191505b509250505060405180910390fd5b939250505056fe4f776e61626c653a206e6577206f776e657220697320746865207a65726f2061646472657373416464726573733a20696e73756666696369656e742062616c616e636520666f722063616c6c496e697469616c697a61626c653a20636f6e747261637420697320616c726561647920696e697469616c697a65645361666545524332303a204552433230206f7065726174696f6e20646964206e6f742073756363656564a264697066735822122030367e4e206abcbcdd3fc29b1ac309750d397406b9715b8ac05cdae8440282f364736f6c63430007060033","linkReferences":{}},"methodIdentifiers":{"SAVINGS_ACCOUNT()":"7b2a2d1f","TREASURY()":"2d2c5565","addTokenAddress(address)":"51992fcb","emergencyWithdraw(address,uint256)":"95ccea67","getSharesForTokens(uint256,address)":"934a5252","getTokensForShares(uint256,address)":"59846d29","initialize(address)":"c4d66de8","liquidityToken(address)":"1391abc7","lockTokens(address,address,uint256)":"4767ceee","owner()":"8da5cb5b","removeTokenAddress(address)":"2496f315","renounceOwnership()":"715018a6","tokenWhitelist(address)":"753d7563","transferOwnership(address)":"f2fde38b","unlockShares(address,address,uint256)":"b6ffc603","unlockTokens(address,address,uint256)":"2d452658"},"id":53}