{
  "_format": "hh-sol-artifact-1",
  "contractName": "PARMinerV2",
  "sourceName": "contracts/liquidityMining/v2/PARMinerV2.sol",
  "abi": [
    {
      "inputs": [
        {
          "internalType": "contract IGovernanceAddressProvider",
          "name": "govAP",
          "type": "address"
        },
        {
          "internalType": "contract IDexAddressProvider",
          "name": "dexAP",
          "type": "address"
        },
        {
          "components": [
            {
              "internalType": "uint256",
              "name": "a",
              "type": "uint256"
            },
            {
              "internalType": "uint256",
              "name": "b",
              "type": "uint256"
            },
            {
              "internalType": "uint256",
              "name": "c",
              "type": "uint256"
            },
            {
              "internalType": "uint256",
              "name": "d",
              "type": "uint256"
            },
            {
              "internalType": "uint256",
              "name": "e",
              "type": "uint256"
            },
            {
              "internalType": "uint256",
              "name": "maxBoost",
              "type": "uint256"
            }
          ],
          "internalType": "struct IGenericMinerV2.BoostConfig",
          "name": "boostConfig",
          "type": "tuple"
        }
      ],
      "stateMutability": "nonpayable",
      "type": "constructor"
    },
    {
      "anonymous": false,
      "inputs": [
        {
          "components": [
            {
              "internalType": "uint256",
              "name": "a",
              "type": "uint256"
            },
            {
              "internalType": "uint256",
              "name": "b",
              "type": "uint256"
            },
            {
              "internalType": "uint256",
              "name": "c",
              "type": "uint256"
            },
            {
              "internalType": "uint256",
              "name": "d",
              "type": "uint256"
            },
            {
              "internalType": "uint256",
              "name": "e",
              "type": "uint256"
            },
            {
              "internalType": "uint256",
              "name": "maxBoost",
              "type": "uint256"
            }
          ],
          "indexed": false,
          "internalType": "struct IGenericMinerV2.BoostConfig",
          "name": "",
          "type": "tuple"
        }
      ],
      "name": "BoostConfigSet",
      "type": "event"
    },
    {
      "anonymous": false,
      "inputs": [
        {
          "indexed": true,
          "internalType": "address",
          "name": "user",
          "type": "address"
        },
        {
          "indexed": false,
          "internalType": "uint256",
          "name": "stake",
          "type": "uint256"
        }
      ],
      "name": "StakeDecreased",
      "type": "event"
    },
    {
      "anonymous": false,
      "inputs": [
        {
          "indexed": true,
          "internalType": "address",
          "name": "user",
          "type": "address"
        },
        {
          "indexed": false,
          "internalType": "uint256",
          "name": "stake",
          "type": "uint256"
        }
      ],
      "name": "StakeIncreased",
      "type": "event"
    },
    {
      "inputs": [],
      "name": "a",
      "outputs": [
        {
          "internalType": "contract IGovernanceAddressProvider",
          "name": "",
          "type": "address"
        }
      ],
      "stateMutability": "view",
      "type": "function"
    },
    {
      "inputs": [],
      "name": "boostConfig",
      "outputs": [
        {
          "components": [
            {
              "internalType": "uint256",
              "name": "a",
              "type": "uint256"
            },
            {
              "internalType": "uint256",
              "name": "b",
              "type": "uint256"
            },
            {
              "internalType": "uint256",
              "name": "c",
              "type": "uint256"
            },
            {
              "internalType": "uint256",
              "name": "d",
              "type": "uint256"
            },
            {
              "internalType": "uint256",
              "name": "e",
              "type": "uint256"
            },
            {
              "internalType": "uint256",
              "name": "maxBoost",
              "type": "uint256"
            }
          ],
          "internalType": "struct IGenericMinerV2.BoostConfig",
          "name": "",
          "type": "tuple"
        }
      ],
      "stateMutability": "view",
      "type": "function"
    },
    {
      "inputs": [
        {
          "internalType": "uint256",
          "name": "amount",
          "type": "uint256"
        }
      ],
      "name": "deposit",
      "outputs": [],
      "stateMutability": "nonpayable",
      "type": "function"
    },
    {
      "inputs": [
        {
          "internalType": "uint256",
          "name": "vaultId",
          "type": "uint256"
        },
        {
          "internalType": "uint256",
          "name": "amount",
          "type": "uint256"
        },
        {
          "internalType": "uint256",
          "name": "dexIndex",
          "type": "uint256"
        },
        {
          "internalType": "bytes",
          "name": "dexTxData",
          "type": "bytes"
        }
      ],
      "name": "liquidate",
      "outputs": [],
      "stateMutability": "nonpayable",
      "type": "function"
    },
    {
      "inputs": [],
      "name": "liquidateCallerReward",
      "outputs": [
        {
          "internalType": "uint256",
          "name": "",
          "type": "uint256"
        }
      ],
      "stateMutability": "view",
      "type": "function"
    },
    {
      "inputs": [],
      "name": "par",
      "outputs": [
        {
          "internalType": "contract IERC20",
          "name": "",
          "type": "address"
        }
      ],
      "stateMutability": "view",
      "type": "function"
    },
    {
      "inputs": [
        {
          "internalType": "address",
          "name": "_user",
          "type": "address"
        }
      ],
      "name": "pendingMIMO",
      "outputs": [
        {
          "internalType": "uint256",
          "name": "",
          "type": "uint256"
        }
      ],
      "stateMutability": "view",
      "type": "function"
    },
    {
      "inputs": [
        {
          "internalType": "address",
          "name": "_user",
          "type": "address"
        }
      ],
      "name": "pendingPAR",
      "outputs": [
        {
          "internalType": "uint256",
          "name": "",
          "type": "uint256"
        }
      ],
      "stateMutability": "view",
      "type": "function"
    },
    {
      "inputs": [
        {
          "internalType": "address",
          "name": "_user",
          "type": "address"
        }
      ],
      "name": "releaseRewards",
      "outputs": [],
      "stateMutability": "nonpayable",
      "type": "function"
    },
    {
      "inputs": [
        {
          "internalType": "address",
          "name": "_user",
          "type": "address"
        }
      ],
      "name": "restakePAR",
      "outputs": [],
      "stateMutability": "nonpayable",
      "type": "function"
    },
    {
      "inputs": [
        {
          "components": [
            {
              "internalType": "uint256",
              "name": "a",
              "type": "uint256"
            },
            {
              "internalType": "uint256",
              "name": "b",
              "type": "uint256"
            },
            {
              "internalType": "uint256",
              "name": "c",
              "type": "uint256"
            },
            {
              "internalType": "uint256",
              "name": "d",
              "type": "uint256"
            },
            {
              "internalType": "uint256",
              "name": "e",
              "type": "uint256"
            },
            {
              "internalType": "uint256",
              "name": "maxBoost",
              "type": "uint256"
            }
          ],
          "internalType": "struct IGenericMinerV2.BoostConfig",
          "name": "newBoostConfig",
          "type": "tuple"
        }
      ],
      "name": "setBoostConfig",
      "outputs": [],
      "stateMutability": "nonpayable",
      "type": "function"
    },
    {
      "inputs": [
        {
          "internalType": "uint256",
          "name": "amount",
          "type": "uint256"
        }
      ],
      "name": "setLiquidateCallerReward",
      "outputs": [],
      "stateMutability": "nonpayable",
      "type": "function"
    },
    {
      "inputs": [
        {
          "internalType": "address",
          "name": "_user",
          "type": "address"
        }
      ],
      "name": "stake",
      "outputs": [
        {
          "internalType": "uint256",
          "name": "",
          "type": "uint256"
        }
      ],
      "stateMutability": "view",
      "type": "function"
    },
    {
      "inputs": [
        {
          "internalType": "address",
          "name": "_user",
          "type": "address"
        }
      ],
      "name": "stakeWithBoost",
      "outputs": [
        {
          "internalType": "uint256",
          "name": "",
          "type": "uint256"
        }
      ],
      "stateMutability": "view",
      "type": "function"
    },
    {
      "inputs": [],
      "name": "totalStake",
      "outputs": [
        {
          "internalType": "uint256",
          "name": "",
          "type": "uint256"
        }
      ],
      "stateMutability": "view",
      "type": "function"
    },
    {
      "inputs": [],
      "name": "totalStakeWithBoost",
      "outputs": [
        {
          "internalType": "uint256",
          "name": "",
          "type": "uint256"
        }
      ],
      "stateMutability": "view",
      "type": "function"
    },
    {
      "inputs": [
        {
          "internalType": "address",
          "name": "_user",
          "type": "address"
        }
      ],
      "name": "updateBoost",
      "outputs": [],
      "stateMutability": "nonpayable",
      "type": "function"
    },
    {
      "inputs": [
        {
          "internalType": "address",
          "name": "_user",
          "type": "address"
        }
      ],
      "name": "userInfo",
      "outputs": [
        {
          "components": [
            {
              "internalType": "uint256",
              "name": "stake",
              "type": "uint256"
            },
            {
              "internalType": "uint256",
              "name": "stakeWithBoost",
              "type": "uint256"
            },
            {
              "internalType": "uint256",
              "name": "accAmountPerShare",
              "type": "uint256"
            },
            {
              "internalType": "uint256",
              "name": "accParAmountPerShare",
              "type": "uint256"
            }
          ],
          "internalType": "struct IGenericMinerV2.UserInfo",
          "name": "",
          "type": "tuple"
        }
      ],
      "stateMutability": "view",
      "type": "function"
    },
    {
      "inputs": [
        {
          "internalType": "uint256",
          "name": "amount",
          "type": "uint256"
        }
      ],
      "name": "withdraw",
      "outputs": [],
      "stateMutability": "nonpayable",
      "type": "function"
    }
  ],
  "bytecode": "0x60a06040523480156200001157600080fd5b5060405162003d0b38038062003d0b83398101604081905262000034916200043e565b6001600160a01b038316620000665760405162461bcd60e51b81526004016200005d90620004f3565b60405180910390fd5b6001600160a01b0382166200008f5760405162461bcd60e51b81526004016200005d90620004f3565b8051600111801590620000a6575060008160600151115b8015620000b8575060018160a0015110155b620000d75760405162461bcd60e51b81526004016200005d9062000512565b600180546001600160a01b0319166001600160a01b038516908117909155606083901b6001600160601b031916608052680ad78ebc5ac6200000600b5560408051633df06b5960e01b81529051633df06b5991600480820192602092909190829003018186803b1580156200014b57600080fd5b505afa15801562000160573d6000803e3d6000fd5b505050506040513d601f19601f820116820180604052508101906200018691906200041f565b6001600160a01b03166316d8a5a96040518163ffffffff1660e01b815260040160206040518083038186803b158015620001bf57600080fd5b505afa158015620001d4573d6000803e3d6000fd5b505050506040513d601f19601f82011682018060405250810190620001fa91906200041f565b600080546001600160a01b0319166001600160a01b03928316179081905560015460408051633df06b5960e01b815290519284169363095ea7b393921691633df06b5991600480820192602092909190829003018186803b1580156200025f57600080fd5b505afa15801562000274573d6000803e3d6000fd5b505050506040513d601f19601f820116820180604052508101906200029a91906200041f565b6001600160a01b031663f2f4eb266040518163ffffffff1660e01b815260040160206040518083038186803b158015620002d357600080fd5b505afa158015620002e8573d6000803e3d6000fd5b505050506040513d601f19601f820116820180604052508101906200030e91906200041f565b6000196040518363ffffffff1660e01b815260040162000330929190620004da565b602060405180830381600087803b1580156200034b57600080fd5b505af115801562000360573d6000803e3d6000fd5b505050506040513d601f19601f82011682018060405250810190620003869190620003f6565b50805160025560208101516003556040808201516004556060820151600555608082015160065560a0820151600755517fdea57d5dd436931497612044567596798f2599acfc00861392dd6c8466c8e6f190620003e590839062000531565b60405180910390a1505050620005b5565b60006020828403121562000408578081fd5b8151801515811462000418578182fd5b9392505050565b60006020828403121562000431578081fd5b815162000418816200059c565b600080600083850361010081121562000455578283fd5b845162000462816200059c565b602086015190945062000475816200059c565b925060c0603f198201121562000489578182fd5b506200049660c062000575565b60408501518152606085015160208201526080850151604082015260a0850151606082015260c0850151608082015260e085015160a0820152809150509250925092565b6001600160a01b03929092168252602082015260400190565b60208082526005908201526404c4d3030360dc1b604082015260600190565b60208082526005908201526413134c0c0d60da1b604082015260600190565b600060c082019050825182526020830151602083015260408301516040830152606083015160608301526080830151608083015260a083015160a083015292915050565b6040518181016001600160401b03811182821017156200059457600080fd5b604052919050565b6001600160a01b0381168114620005b257600080fd5b50565b60805160601c613738620005d36000398061098e52506137386000f3fe608060405234801561001057600080fd5b50600436106101205760003560e01c80637c284c0a116100ad578063b6b55f2511610071578063b6b55f2514610235578063be34735514610248578063cf2759671461025b578063d76da20c14610270578063f5989e771461027857610120565b80637c284c0a146101e15780638b0e9f3f146101f45780638d4aedc0146101fc578063a3898c071461020f578063a91ea1ba1461022257610120565b806326476204116100f4578063264762041461018d5780632e1a7d4d146101a0578063331d504c146101b3578063495d32cb146101c6578063610edec2146101ce57610120565b80624e4c98146101255780630dbe671f1461013a5780630e2cd6dc146101585780631959a0021461016d575b600080fd5b6101386101333660046131ea565b61028b565b005b61014261058d565b60405161014f91906132b6565b60405180910390f35b61016061059c565b60405161014f9190613683565b61018061017b366004613081565b6105a2565b60405161014f9190613658565b61016061019b366004613081565b6105fc565b6101386101ae3660046131ea565b610617565b6101386101c1366004613202565b61063b565b610142610c55565b6101386101dc366004613081565b610c64565b6101606101ef366004613081565b610cf3565b610160610d59565b61013861020a366004613081565b610d5f565b61016061021d366004613081565b610ddd565b610138610230366004613081565b610f10565b6101386102433660046131ea565b610f6e565b610160610256366004613081565b610f90565b610263610fae565b60405161014f91906135d7565b610160610ff3565b61013861028636600461312a565b610ff9565b600160009054906101000a90046001600160a01b03166001600160a01b0316633df06b596040518163ffffffff1660e01b815260040160206040518083038186803b1580156102d957600080fd5b505afa1580156102ed573d6000803e3d6000fd5b505050506040513d601f19601f82011682018060405250810190610311919061310e565b6001600160a01b031663f77c47916040518163ffffffff1660e01b815260040160206040518083038186803b15801561034957600080fd5b505afa15801561035d573d6000803e3d6000fd5b505050506040513d601f19601f82011682018060405250810190610381919061310e565b6001600160a01b03166391d14854600160009054906101000a90046001600160a01b03166001600160a01b0316633df06b596040518163ffffffff1660e01b815260040160206040518083038186803b1580156103dd57600080fd5b505afa1580156103f1573d6000803e3d6000fd5b505050506040513d601f19601f82011682018060405250810190610415919061310e565b6001600160a01b031663f77c47916040518163ffffffff1660e01b815260040160206040518083038186803b15801561044d57600080fd5b505afa158015610461573d6000803e3d6000fd5b505050506040513d601f19601f82011682018060405250810190610485919061310e565b6001600160a01b031663ec87621c6040518163ffffffff1660e01b815260040160206040518083038186803b1580156104bd57600080fd5b505afa1580156104d1573d6000803e3d6000fd5b505050506040513d601f19601f820116820180604052508101906104f591906130f6565b336040518363ffffffff1660e01b8152600401610513929190613307565b60206040518083038186803b15801561052b57600080fd5b505afa15801561053f573d6000803e3d6000fd5b505050506040513d601f19601f8201168201806040525081019061056391906130d6565b6105885760405162461bcd60e51b815260040161057f90613599565b60405180910390fd5b600b55565b6001546001600160a01b031690565b600b5490565b6105aa612fe2565b506001600160a01b03811660009081526008602090815260409182902082516080810184528154815260018201549281019290925260028101549282019290925260039091015460608201525b919050565b6001600160a01b031660009081526008602052604090205490565b60005461062e906001600160a01b03163383611397565b61063833826113ed565b50565b600080546040516370a0823160e01b81526001600160a01b03909116906370a082319061066c9030906004016132b6565b60206040518083038186803b15801561068457600080fd5b505afa158015610698573d6000803e3d6000fd5b505050506040513d601f19601f820116820180604052508101906106bc91906130f6565b90506106c661300a565b600160009054906101000a90046001600160a01b03166001600160a01b0316633df06b596040518163ffffffff1660e01b815260040160206040518083038186803b15801561071457600080fd5b505afa158015610728573d6000803e3d6000fd5b505050506040513d601f19601f8201168201806040525081019061074c919061310e565b6001600160a01b03166365d552876040518163ffffffff1660e01b815260040160206040518083038186803b15801561078457600080fd5b505afa158015610798573d6000803e3d6000fd5b505050506040513d601f19601f820116820180604052508101906107bc919061310e565b6001600160a01b0316638c64ea4a886040518263ffffffff1660e01b81526004016107e79190613683565b60a06040518083038186803b1580156107ff57600080fd5b505afa158015610813573d6000803e3d6000fd5b505050506040513d601f19601f820116820180604052508101906108379190613185565b805160015460408051633df06b5960e01b8152905193945091926001600160a01b0390911691633df06b59916004808301926020929190829003018186803b15801561088257600080fd5b505afa158015610896573d6000803e3d6000fd5b505050506040513d601f19601f820116820180604052508101906108ba919061310e565b6001600160a01b031663f2f4eb266040518163ffffffff1660e01b815260040160206040518083038186803b1580156108f257600080fd5b505afa158015610906573d6000803e3d6000fd5b505050506040513d601f19601f8201168201806040525081019061092a919061310e565b6001600160a01b0316631e6b626789896040518363ffffffff1660e01b815260040161095792919061368c565b600060405180830381600087803b15801561097157600080fd5b505af1158015610985573d6000803e3d6000fd5b505050506000807f00000000000000000000000000000000000000000000000000000000000000006001600160a01b0316632bfac6be896040518263ffffffff1660e01b81526004016109d89190613683565b604080518083038186803b1580156109ef57600080fd5b505afa158015610a03573d6000803e3d6000fd5b505050506040513d601f19601f82011682018060405250810190610a27919061309d565b91509150826001600160a01b031663095ea7b383856001600160a01b03166370a08231306040518263ffffffff1660e01b8152600401610a6791906132b6565b60206040518083038186803b158015610a7f57600080fd5b505afa158015610a93573d6000803e3d6000fd5b505050506040513d601f19601f82011682018060405250810190610ab791906130f6565b6040518363ffffffff1660e01b8152600401610ad49291906132ee565b602060405180830381600087803b158015610aee57600080fd5b505af1158015610b02573d6000803e3d6000fd5b505050506040513d601f19601f82011682018060405250810190610b2691906130d6565b50806001600160a01b03168787604051610b4192919061328a565b6000604051808303816000865af19150503d8060008114610b7e576040519150601f19603f3d011682016040523d82523d6000602084013e610b83565b606091505b5050600b54600054610ba192506001600160a01b0316903390611397565b6000546040516370a0823160e01b815286916001600160a01b0316906370a0823190610bd19030906004016132b6565b60206040518083038186803b158015610be957600080fd5b505afa158015610bfd573d6000803e3d6000fd5b505050506040513d601f19601f82011682018060405250810190610c2191906130f6565b11610c3e5760405162461bcd60e51b815260040161057f906134da565b610c49600954611512565b50505050505050505050565b6000546001600160a01b031690565b610c6c612fe2565b60086000836001600160a01b03166001600160a01b031681526020019081526020016000206040518060800160405290816000820154815260200160018201548152602001600282015481526020016003820154815250509050610cd582826009546000611590565b600d546040820152600f546060820152610cef82826117de565b5050565b6000610cfd612fe2565b506001600160a01b03821660009081526008602090815260409182902082516080810184528154815260018201549281018390526002820154938101849052600390910154606082015291610d52919061186f565b9392505050565b60095490565b6001600160a01b0381166000908152600860205260409020610d7f6119dc565b610d8a600954611512565b6000610db3610da88360030154600f54611b1b90919063ffffffff16565b600184015490611b43565b600e54909150610dc39082611b1b565b600e55600f546003830155610dd88382611b7f565b505050565b6000610de7612fe2565b506001600160a01b038083166000908152600860209081526040808320815160808101835281548152600182015493810193909352600281015483830152600301546060830152600954835491516370a0823160e01b81529294610eb393919216906370a0823190610e5d9030906004016132b6565b60206040518083038186803b158015610e7557600080fd5b505afa158015610e89573d6000803e3d6000fd5b505050506040513d601f19601f82011682018060405250810190610ead91906130f6565b90611b1b565b90506000610ecc600e5483611b1b90919063ffffffff16565b90506000610ef1610ee8600a5484611ccc90919063ffffffff16565b600f5490611cfe565b9050610f068185602001518660600151611d23565b9695505050505050565b610f18612fe2565b506001600160a01b0381166000908152600860209081526040918290208251608081018452815481526001820154928101929092526002810154928201929092526003909101546060820152610cef82826117de565b600054610f86906001600160a01b0316333084611d4c565b6106383382611b7f565b6001600160a01b031660009081526008602052604090206001015490565b610fb661304b565b506040805160c08101825260025481526003546020820152600454918101919091526005546060820152600654608082015260075460a082015290565b600a5490565b600160009054906101000a90046001600160a01b03166001600160a01b0316633df06b596040518163ffffffff1660e01b815260040160206040518083038186803b15801561104757600080fd5b505afa15801561105b573d6000803e3d6000fd5b505050506040513d601f19601f8201168201806040525081019061107f919061310e565b6001600160a01b031663f77c47916040518163ffffffff1660e01b815260040160206040518083038186803b1580156110b757600080fd5b505afa1580156110cb573d6000803e3d6000fd5b505050506040513d601f19601f820116820180604052508101906110ef919061310e565b6001600160a01b03166391d14854600160009054906101000a90046001600160a01b03166001600160a01b0316633df06b596040518163ffffffff1660e01b815260040160206040518083038186803b15801561114b57600080fd5b505afa15801561115f573d6000803e3d6000fd5b505050506040513d601f19601f82011682018060405250810190611183919061310e565b6001600160a01b031663f77c47916040518163ffffffff1660e01b815260040160206040518083038186803b1580156111bb57600080fd5b505afa1580156111cf573d6000803e3d6000fd5b505050506040513d601f19601f820116820180604052508101906111f3919061310e565b6001600160a01b031663ec87621c6040518163ffffffff1660e01b815260040160206040518083038186803b15801561122b57600080fd5b505afa15801561123f573d6000803e3d6000fd5b505050506040513d601f19601f8201168201806040525081019061126391906130f6565b336040518363ffffffff1660e01b8152600401611281929190613307565b60206040518083038186803b15801561129957600080fd5b505afa1580156112ad573d6000803e3d6000fd5b505050506040513d601f19601f820116820180604052508101906112d191906130d6565b6112ed5760405162461bcd60e51b815260040161057f90613599565b8051600111801590611303575060008160600151115b8015611314575060018160a0015110155b6113305760405162461bcd60e51b815260040161057f9061347a565b8051600290815560208201516003556040808301516004556060830151600555608083015160065560a0830151600755517fdea57d5dd436931497612044567596798f2599acfc00861392dd6c8466c8e6f19161138c9161361b565b60405180910390a150565b610dd88363a9059cbb60e01b84846040516024016113b69291906132ee565b60408051601f198184030181529190526020810180516001600160e01b03166001600160e01b031990931692909217909152611d73565b6000811161140d5760405162461bcd60e51b815260040161057f90613388565b611415612fe2565b506001600160a01b0382166000908152600860209081526040918290208251608081018452815480825260018301549382019390935260028201549381019390935260030154606083015282111561147f5760405162461bcd60e51b815260040161057f9061345b565b60095460009061148f9084611b1b565b905061149e8483836000611590565b600981905581516114af9084611b1b565b8252600d546040830152600f5460608301526114cb84836117de565b836001600160a01b03167f700865370ffb2a65a2b0242e6a64b21ac907ed5ecd46c9cffc729c177b2b1c69846040516115049190613683565b60405180910390a250505050565b60095461151e57610638565b600080546040516370a0823160e01b81526115559184916001600160a01b03909116906370a0823190610e5d9030906004016132b6565b9050600061156e600e5483611b1b90919063ffffffff16565b600e839055600a5490915061158890610ee8908390611ccc565b600f55505050565b60006115a48460200151856040015161186f565b90506115ae6119dc565b6115b783611512565b60006115ce600f5486602001518760600151611d23565b6020860151909150156115fc57600c546115e89083611b1b565b600c55600e546115f89082611b1b565b600e555b60008111801561160a575082155b156116af5760005460405163a9059cbb60e01b81526001600160a01b039091169063a9059cbb9061164190899085906004016132ee565b602060405180830381600087803b15801561165b57600080fd5b505af115801561166f573d6000803e3d6000fd5b505050506040513d601f19601f8201168201806040525081019061169391906130d6565b6116af5760405162461bcd60e51b815260040161057f9061357a565b81156117d657600160009054906101000a90046001600160a01b03166001600160a01b0316636d9b18236040518163ffffffff1660e01b815260040160206040518083038186803b15801561170357600080fd5b505afa158015611717573d6000803e3d6000fd5b505050506040513d601f19601f8201168201806040525081019061173b919061310e565b6001600160a01b031663a9059cbb87846040518363ffffffff1660e01b81526004016117689291906132ee565b602060405180830381600087803b15801561178257600080fd5b505af1158015611796573d6000803e3d6000fd5b505050506040513d601f19601f820116820180604052508101906117ba91906130d6565b6117d65760405162461bcd60e51b815260040161057f9061357a565b505050505050565b6020810151156117fd576020810151600a546117f991611b1b565b600a555b600061180883611e02565b82519091506118179082612062565b60208301819052600a5461182a91611cfe565b600a55506001600160a01b0390911660009081526008602090815260409182902083518155908301516001820155908201516002820155606090910151600390910155565b6000600a5460001415611884575060006119d6565b60015460408051636d9b182360e01b815290516000926001600160a01b031691636d9b1823916004808301926020929190829003018186803b1580156118c957600080fd5b505afa1580156118dd573d6000803e3d6000fd5b505050506040513d601f19601f82011682018060405250810190611901919061310e565b6001600160a01b03166370a08231306040518263ffffffff1660e01b815260040161192c91906132b6565b60206040518083038186803b15801561194457600080fd5b505afa158015611958573d6000803e3d6000fd5b505050506040513d601f19601f8201168201806040525081019061197c91906130f6565b90506000611995600c5483611b1b90919063ffffffff16565b905060006119ba6119b1600a5484611ccc90919063ffffffff16565b600d5490611cfe565b90506119d06119c98287611b1b565b8790611b43565b93505050505b92915050565b6009546119e857611b19565b60015460408051636d9b182360e01b815290516000926001600160a01b031691636d9b1823916004808301926020929190829003018186803b158015611a2d57600080fd5b505afa158015611a41573d6000803e3d6000fd5b505050506040513d601f19601f82011682018060405250810190611a65919061310e565b6001600160a01b03166370a08231306040518263ffffffff1660e01b8152600401611a9091906132b6565b60206040518083038186803b158015611aa857600080fd5b505afa158015611abc573d6000803e3d6000fd5b505050506040513d601f19601f82011682018060405250810190611ae091906130f6565b90506000611af9600c5483611b1b90919063ffffffff16565b600c839055600a54909150611b13906119b1908390611ccc565b600d5550505b565b600082821115611b3d5760405162461bcd60e51b815260040161057f906133a7565b50900390565b6000610d526b033b2e3c9fd0803ce8000000611b79611b62868661208d565b60026b033b2e3c9fd0803ce80000005b0490611cfe565b906120c7565b60008111611b9f5760405162461bcd60e51b815260040161057f90613388565b611ba7612fe2565b506001600160a01b0382166000908152600860209081526040808320815160808101835281548152600182015493810193909352600281015491830191909152600301546060820152600954909190611c009084611cfe565b9050611c0f8483836001611590565b6000611c26600f5484602001518560600151611d23565b60098390558351909150611c3a9085611cfe565b8352600d546040840152600f5460608401528015611c71578251611c5e9082611cfe565b8352600954611c6d9082611cfe565b6009555b611c7b85846117de565b6001600160a01b0385167f8b0ed825817a2e696c9a931715af4609fc60e1701f09c89ee7645130e937eb2d611cb08684611cfe565b604051611cbd9190613683565b60405180910390a25050505050565b600060028204611cf683611b79611cef876b033b2e3c9fd0803ce800000061208d565b8490611cfe565b949350505050565b600082820183811015610d525760405162461bcd60e51b815260040161057f90613351565b6000600a5460001415611d3857506000610d52565b611cf6611d458584611b1b565b8490611b43565b611d6d846323b872dd60e01b8585856040516024016113b6939291906132ca565b50505050565b6060611dc8826040518060400160405280602081526020017f5361666545524332303a206c6f772d6c6576656c2063616c6c206661696c6564815250856001600160a01b03166120f99092919063ffffffff16565b805190915015610dd85780806020019051810190611de691906130d6565b610dd85760405162461bcd60e51b815260040161057f90613530565b600080600160009054906101000a90046001600160a01b03166001600160a01b0316634f2bfe5b6040518163ffffffff1660e01b815260040160206040518083038186803b158015611e5357600080fd5b505afa158015611e67573d6000803e3d6000fd5b505050506040513d601f19601f82011682018060405250810190611e8b919061310e565b6001600160a01b03166370a08231846040518263ffffffff1660e01b8152600401611eb691906132b6565b60206040518083038186803b158015611ece57600080fd5b505afa158015611ee2573d6000803e3d6000fd5b505050506040513d601f19601f82011682018060405250810190611f0691906130f6565b905080611f1e57670de0b6b3a76400009150506105f7565b6000611f2e600260000154612108565b90506000611f40600260010154612108565b90506000611f516002800154612108565b90506000611f63600260040154612108565b90506000611f78670de0b6b3a7640000612108565b600554909150600090611f8c908890612126565b90506000611f9e600f83900b8561215d565b90506000611fae82600f0b612191565b90506000611fbe82600f0b6121b3565b90506000611fd0600f83900b89612208565b90506000611fef8b611fe6600f8d900b8561223b565b600f0b90612208565b9050600061200c612004600f84900b8a61228d565b600f0b6122c3565b905067ffffffffffffffff8116670de0b6b3a7640000811080159061203357506007548111155b61204f5760405162461bcd60e51b815260040161057f906135b8565b9f9e505050505050505050505050505050565b6000610d52670de0b6b3a7640000611b7961207d868661208d565b6002670de0b6b3a7640000611b72565b60008261209c575060006119d6565b828202828482816120a957fe5b0414610d525760405162461bcd60e51b815260040161057f90613499565b60008082116120e85760405162461bcd60e51b815260040161057f90613424565b8183816120f157fe5b049392505050565b6060611cf684846000856122df565b6000677fffffffffffffff82111561211f57600080fd5b5060401b90565b60008161213257600080fd5b600061213e84846123a0565b905060016001607f1b036001600160801b0382161115610d5257600080fd5b6000600f82810b9084900b0360016001607f1b03198112801590612188575060016001607f1b038113155b610d5257600080fd5b6000600f82900b60016001607f1b031914156121ac57600080fd5b5060000390565b6000600160461b82600f0b126121c857600080fd5b683fffffffffffffffff1982600f0b12156121e5575060006105f7565b6119d6608083600f0b700171547652b82fe1777d0ffda0d23a7d1202901d6124ea565b6000600f83810b9083900b0160016001607f1b03198112801590612188575060016001607f1b03811315610d5257600080fd5b600081600f0b6000141561224e57600080fd5b600082600f0b604085600f0b901b8161226357fe5b05905060016001607f1b03198112801590612188575060016001607f1b03811315610d5257600080fd5b6000600f83810b9083900b0260401d60016001607f1b03198112801590612188575060016001607f1b03811315610d5257600080fd5b60008082600f0b12156122d557600080fd5b50600f0b60401d90565b6060824710156123015760405162461bcd60e51b815260040161057f906133de565b61230a85612fa3565b6123265760405162461bcd60e51b815260040161057f906134f9565b60006060866001600160a01b03168587604051612343919061329a565b60006040518083038185875af1925050503d8060008114612380576040519150601f19603f3d011682016040523d82523d6000602084013e612385565b606091505b5091509150612395828286612fa9565b979650505050505050565b6000816123ac57600080fd5b60006001600160c01b0384116123d15782604085901b816123c957fe5b0490506124d6565b60c084811c64010000000081106123ea576020918201911c5b6201000081106123fc576010918201911c5b610100811061240d576008918201911c5b6010811061241d576004918201911c5b6004811061242d576002918201911c5b6002811061243c576001820191505b60bf820360018603901c6001018260ff0387901b8161245757fe5b0492506001600160801b0383111561246e57600080fd5b608085901c83026001600160801b038616840260c088901c604089901b8281101561249a576001820391505b608084901b929003828110156124b1576001820391505b829003608084901c82146124c157fe5b8881816124ca57fe5b04870196505050505050505b6001600160801b03811115610d5257600080fd5b6000600160461b82600f0b126124ff57600080fd5b683fffffffffffffffff1982600f0b121561251c575060006105f7565b6001607f1b60006780000000000000008416600f0b131561254e5770016a09e667f3bcc908b2fb1366ea957d3e0260801c5b60008367400000000000000016600f0b131561257b577001306fe0a31b7152de8d5a46305c85edec0260801c5b60008367200000000000000016600f0b13156125a8577001172b83c7d517adcdf7c8c50eb14a791f0260801c5b60008367100000000000000016600f0b13156125d55770010b5586cf9890f6298b92b71842a983630260801c5b60008367080000000000000016600f0b1315612602577001059b0d31585743ae7c548eb68ca417fd0260801c5b60008367040000000000000016600f0b131561262f57700102c9a3e778060ee6f7caca4f7a29bde80260801c5b60008367020000000000000016600f0b131561265c5770010163da9fb33356d84a66ae336dcdfa3f0260801c5b60008367010000000000000016600f0b131561268957700100b1afa5abcbed6129ab13ec11dc95430260801c5b600083668000000000000016600f0b13156126b55770010058c86da1c09ea1ff19d294cf2f679b0260801c5b600083664000000000000016600f0b13156126e1577001002c605e2e8cec506d21bfc89a23a00f0260801c5b600083662000000000000016600f0b131561270d57700100162f3904051fa128bca9c55c31e5df0260801c5b600083661000000000000016600f0b1315612739577001000b175effdc76ba38e31671ca9397250260801c5b600083660800000000000016600f0b131561276557700100058ba01fb9f96d6cacd4b180917c3d0260801c5b600083660400000000000016600f0b13156127915770010002c5cc37da9491d0985c348c68e7b30260801c5b600083660200000000000016600f0b13156127bd577001000162e525ee054754457d59952920260260801c5b600083660100000000000016600f0b13156127e95770010000b17255775c040618bf4a4ade83fc0260801c5b6000836580000000000016600f0b1315612814577001000058b91b5bc9ae2eed81e9b7d4cfab0260801c5b6000836540000000000016600f0b131561283f57700100002c5c89d5ec6ca4d7c8acc017b7c90260801c5b6000836520000000000016600f0b131561286a5770010000162e43f4f831060e02d839a9d16d0260801c5b6000836510000000000016600f0b131561289557700100000b1721bcfc99d9f890ea069117630260801c5b6000836508000000000016600f0b13156128c05770010000058b90cf1e6d97f9ca14dbcc16280260801c5b6000836504000000000016600f0b13156128eb577001000002c5c863b73f016468f6bac5ca2b0260801c5b6000836502000000000016600f0b131561291657700100000162e430e5a18f6119e3c02282a50260801c5b6000836501000000000016600f0b1315612941577001000000b1721835514b86e6d96efd1bfe0260801c5b60008364800000000016600f0b131561296b57700100000058b90c0b48c6be5df846c5b2ef0260801c5b60008364400000000016600f0b13156129955770010000002c5c8601cc6b9e94213c72737a0260801c5b60008364200000000016600f0b13156129bf577001000000162e42fff037df38aa2b219f060260801c5b60008364100000000016600f0b13156129e95770010000000b17217fba9c739aa5819f44f90260801c5b60008364080000000016600f0b1315612a13577001000000058b90bfcdee5acd3c1cedc8230260801c5b60008364040000000016600f0b1315612a3d57700100000002c5c85fe31f35a6a30da1be500260801c5b60008364020000000016600f0b1315612a675770010000000162e42ff0999ce3541b9fffcf0260801c5b60008364010000000016600f0b1315612a9157700100000000b17217f80f4ef5aadda455540260801c5b600083638000000016600f0b1315612aba5770010000000058b90bfbf8479bd5a81b51ad0260801c5b600083634000000016600f0b1315612ae3577001000000002c5c85fdf84bd62ae30a74cc0260801c5b600083632000000016600f0b1315612b0c57700100000000162e42fefb2fed257559bdaa0260801c5b600083631000000016600f0b1315612b35577001000000000b17217f7d5a7716bba4a9ae0260801c5b600083630800000016600f0b1315612b5e57700100000000058b90bfbe9ddbac5e109cce0260801c5b600083630400000016600f0b1315612b875770010000000002c5c85fdf4b15de6f17eb0d0260801c5b600083630200000016600f0b1315612bb0577001000000000162e42fefa494f1478fde050260801c5b600083630100000016600f0b1315612bd95770010000000000b17217f7d20cf927c8e94c0260801c5b6000836280000016600f0b1315612c01577001000000000058b90bfbe8f71cb4e4b33d0260801c5b6000836240000016600f0b1315612c2957700100000000002c5c85fdf477b662b269450260801c5b6000836220000016600f0b1315612c515770010000000000162e42fefa3ae53369388c0260801c5b6000836210000016600f0b1315612c7957700100000000000b17217f7d1d351a389d400260801c5b6000836208000016600f0b1315612ca15770010000000000058b90bfbe8e8b2d3d4ede0260801c5b6000836204000016600f0b1315612cc9577001000000000002c5c85fdf4741bea6e77e0260801c5b6000836202000016600f0b1315612cf157700100000000000162e42fefa39fe95583c20260801c5b6000836201000016600f0b1315612d19577001000000000000b17217f7d1cfb72b45e10260801c5b60008361800016600f0b1315612d4057700100000000000058b90bfbe8e7cc35c3f00260801c5b60008361400016600f0b1315612d675770010000000000002c5c85fdf473e242ea380260801c5b60008361200016600f0b1315612d8e577001000000000000162e42fefa39f02b772c0260801c5b60008361100016600f0b1315612db55770010000000000000b17217f7d1cf7d83c1a0260801c5b60008361080016600f0b1315612ddc577001000000000000058b90bfbe8e7bdcbe2e0260801c5b60008361040016600f0b1315612e0357700100000000000002c5c85fdf473dea871f0260801c5b60008361020016600f0b1315612e2a5770010000000000000162e42fefa39ef44d910260801c5b60008361010016600f0b1315612e5157700100000000000000b17217f7d1cf79e9490260801c5b600083608016600f0b1315612e775770010000000000000058b90bfbe8e7bce5440260801c5b600083604016600f0b1315612e9d577001000000000000002c5c85fdf473de6eca0260801c5b600083602016600f0b1315612ec357700100000000000000162e42fefa39ef366f0260801c5b600083601016600f0b1315612ee9577001000000000000000b17217f7d1cf79afa0260801c5b600083600816600f0b1315612f0f57700100000000000000058b90bfbe8e7bcd6d0260801c5b600083600416600f0b1315612f355770010000000000000002c5c85fdf473de6b20260801c5b600083600216600f0b1315612f5b577001000000000000000162e42fefa39ef3580260801c5b600083600116600f0b1315612f815770010000000000000000b17217f7d1cf79ab0260801c5b600f83810b60401d603f03900b1c60016001607f1b038111156119d657600080fd5b3b151590565b60608315612fb8575081610d52565b825115612fc85782518084602001fd5b8160405162461bcd60e51b815260040161057f919061331e565b6040518060800160405280600081526020016000815260200160008152602001600081525090565b6040518060a0016040528060006001600160a01b0316815260200160006001600160a01b031681526020016000815260200160008152602001600081525090565b6040518060c001604052806000815260200160008152602001600081526020016000815260200160008152602001600081525090565b600060208284031215613092578081fd5b8135610d52816136ed565b600080604083850312156130af578081fd5b82516130ba816136ed565b60208401519092506130cb816136ed565b809150509250929050565b6000602082840312156130e7578081fd5b81518015158114610d52578182fd5b600060208284031215613107578081fd5b5051919050565b60006020828403121561311f578081fd5b8151610d52816136ed565b600060c0828403121561313b578081fd5b61314560c061369a565b823581526020830135602082015260408301356040820152606083013560608201526080830135608082015260a083013560a08201528091505092915050565b600060a08284031215613196578081fd5b6131a060a061369a565b82516131ab816136ed565b815260208301516131bb816136ed565b806020830152506040830151604082015260608301516060820152608083015160808201528091505092915050565b6000602082840312156131fb578081fd5b5035919050565b600080600080600060808688031215613219578081fd5b853594506020860135935060408601359250606086013567ffffffffffffffff80821115613245578283fd5b818801915088601f830112613258578283fd5b813581811115613266578384fd5b896020828501011115613277578384fd5b9699959850939650602001949392505050565b6000828483379101908152919050565b600082516132ac8184602087016136c1565b9190910192915050565b6001600160a01b0391909116815260200190565b6001600160a01b039384168152919092166020820152604081019190915260600190565b6001600160a01b03929092168252602082015260400190565b9182526001600160a01b0316602082015260400190565b600060208252825180602084015261333d8160408501602087016136c1565b601f01601f19169190910160400192915050565b6020808252601b908201527f536166654d6174683a206164646974696f6e206f766572666c6f770000000000604082015260600190565b6020808252600590820152644c4d31303160d81b604082015260600190565b6020808252601e908201527f536166654d6174683a207375627472616374696f6e206f766572666c6f770000604082015260600190565b60208082526026908201527f416464726573733a20696e73756666696369656e742062616c616e636520666f6040820152651c8818d85b1b60d21b606082015260800190565b6020808252601a908201527f536166654d6174683a206469766973696f6e206279207a65726f000000000000604082015260600190565b602080825260059082015264262698981960d91b604082015260600190565b60208082526005908201526413134c0c0d60da1b604082015260600190565b60208082526021908201527f536166654d6174683a206d756c7469706c69636174696f6e206f766572666c6f6040820152607760f81b606082015260800190565b60208082526005908201526413134c4c0d60da1b604082015260600190565b6020808252601d908201527f416464726573733a2063616c6c20746f206e6f6e2d636f6e7472616374000000604082015260600190565b6020808252602a908201527f5361666545524332303a204552433230206f7065726174696f6e20646964206e6040820152691bdd081cdd58d8d9595960b21b606082015260800190565b60208082526005908201526404c4d3130360dc1b604082015260600190565b60208082526005908201526404c4d3031360dc1b604082015260600190565b6020808252600590820152644c4d31303360d81b604082015260600190565b600060c082019050825182526020830151602083015260408301516040830152606083015160608301526080830151608083015260a083015160a083015292915050565b815481526001820154602082015260028201546040820152600382015460608201526004820154608082015260059091015460a082015260c00190565b8151815260208083015190820152604080830151908201526060918201519181019190915260800190565b90815260200190565b918252602082015260400190565b60405181810167ffffffffffffffff811182821017156136b957600080fd5b604052919050565b60005b838110156136dc5781810151838201526020016136c4565b83811115611d6d5750506000910152565b6001600160a01b038116811461063857600080fdfea26469706673582212205988d4ac2471d4909ed94a183b9ae8ca24b4501f0538a6c4368926f52207137064736f6c634300060c0033",
  "linkReferences": {},
  "deployedLinkReferences": {}
}