{
  "_format": "hh-sol-artifact-1",
  "contractName": "LiquidationManager",
  "sourceName": "contracts/core/LiquidiationManager.sol",
  "abi": [
    {
      "inputs": [
        {
          "internalType": "contract IAddressProvider",
          "name": "_addresses",
          "type": "address"
        }
      ],
      "stateMutability": "nonpayable",
      "type": "constructor"
    },
    {
      "inputs": [],
      "name": "HEALTH_FACTOR_LIQUIDATION_THRESHOLD",
      "outputs": [
        {
          "internalType": "uint256",
          "name": "",
          "type": "uint256"
        }
      ],
      "stateMutability": "view",
      "type": "function"
    },
    {
      "inputs": [],
      "name": "a",
      "outputs": [
        {
          "internalType": "contract IAddressProvider",
          "name": "",
          "type": "address"
        }
      ],
      "stateMutability": "view",
      "type": "function"
    },
    {
      "inputs": [
        {
          "internalType": "address",
          "name": "_collateralType",
          "type": "address"
        },
        {
          "internalType": "uint256",
          "name": "_amount",
          "type": "uint256"
        }
      ],
      "name": "applyLiquidationDiscount",
      "outputs": [
        {
          "internalType": "uint256",
          "name": "discountedAmount",
          "type": "uint256"
        }
      ],
      "stateMutability": "view",
      "type": "function"
    },
    {
      "inputs": [
        {
          "internalType": "uint256",
          "name": "_collateralValue",
          "type": "uint256"
        },
        {
          "internalType": "uint256",
          "name": "_vaultDebt",
          "type": "uint256"
        },
        {
          "internalType": "uint256",
          "name": "_minRatio",
          "type": "uint256"
        }
      ],
      "name": "calculateHealthFactor",
      "outputs": [
        {
          "internalType": "uint256",
          "name": "healthFactor",
          "type": "uint256"
        }
      ],
      "stateMutability": "view",
      "type": "function"
    },
    {
      "inputs": [
        {
          "internalType": "uint256",
          "name": "_collateralValue",
          "type": "uint256"
        },
        {
          "internalType": "uint256",
          "name": "_vaultDebt",
          "type": "uint256"
        },
        {
          "internalType": "uint256",
          "name": "_minRatio",
          "type": "uint256"
        }
      ],
      "name": "isHealthy",
      "outputs": [
        {
          "internalType": "bool",
          "name": "",
          "type": "bool"
        }
      ],
      "stateMutability": "view",
      "type": "function"
    },
    {
      "inputs": [
        {
          "internalType": "address",
          "name": "_collateralType",
          "type": "address"
        },
        {
          "internalType": "uint256",
          "name": "_amount",
          "type": "uint256"
        }
      ],
      "name": "liquidationBonus",
      "outputs": [
        {
          "internalType": "uint256",
          "name": "bonus",
          "type": "uint256"
        }
      ],
      "stateMutability": "view",
      "type": "function"
    }
  ],
  "bytecode": "0x608060405234801561001057600080fd5b5060405161070c38038061070c83398101604081905261002f9161006c565b60016000556001600160a01b03811661004757600080fd5b600180546001600160a01b0319166001600160a01b039290921691909117905561009a565b60006020828403121561007d578081fd5b81516001600160a01b0381168114610093578182fd5b9392505050565b610663806100a96000396000f3fe608060405234801561001057600080fd5b50600436106100625760003560e01c80630d6f7539146100675780630dbe671f146100905780630e84c2b3146100a55780637c0db278146100c5578063c3525c28146100d8578063d60eb91a146100e0575b600080fd5b61007a610075366004610513565b6100f3565b604051610087919061060c565b60405180910390f35b610098610143565b604051610087919061053e565b6100b86100b3366004610513565b610152565b6040516100879190610552565b61007a6100d33660046104b4565b610174565b61007a61028a565b61007a6100ee3660046104b4565b610296565b600082610109576101026103b4565b905061013c565b600061011585856103c0565b9050821561012f5761012781846103c0565b91505061013c565b670de0b6b3a76400009150505b9392505050565b6001546001600160a01b031681565b6000806101608585856100f3565b670de0b6b3a7640000111595945050505050565b6000610281600160009054906101000a90046001600160a01b03166001600160a01b03166379502c556040518163ffffffff1660e01b815260040160206040518083038186803b1580156101c757600080fd5b505afa1580156101db573d6000803e3d6000fd5b505050506040513d601f19601f820116820180604052508101906101ff91906104df565b6001600160a01b03166397e30553856040518263ffffffff1660e01b815260040161022a919061053e565b60206040518083038186803b15801561024257600080fd5b505afa158015610256573d6000803e3d6000fd5b505050506040513d601f19601f8201168201806040525081019061027a91906104fb565b83906103f4565b90505b92915050565b670de0b6b3a764000081565b60006102816103ad6102a66103b4565b600160009054906101000a90046001600160a01b03166001600160a01b03166379502c556040518163ffffffff1660e01b815260040160206040518083038186803b1580156102f457600080fd5b505afa158015610308573d6000803e3d6000fd5b505050506040513d601f19601f8201168201806040525081019061032c91906104df565b6001600160a01b03166397e30553876040518263ffffffff1660e01b8152600401610357919061053e565b60206040518083038186803b15801561036f57600080fd5b505afa158015610383573d6000803e3d6000fd5b505050506040513d601f19601f820116820180604052508101906103a791906104fb565b9061041a565b83906103c0565b670de0b6b3a764000090565b6000600282046103ec836103e66103df87670de0b6b3a7640000610448565b849061041a565b90610482565b949350505050565b6000610281670de0b6b3a76400006103e661040f8686610448565b6706f05b59d3b20000905b6000828201838110156102815760405162461bcd60e51b815260040161043f9061055d565b60405180910390fd5b60008261045757506000610284565b8282028284828161046457fe5b04146102815760405162461bcd60e51b815260040161043f906105cb565b60008082116104a35760405162461bcd60e51b815260040161043f90610594565b8183816104ac57fe5b049392505050565b600080604083850312156104c6578182fd5b82356104d181610615565b946020939093013593505050565b6000602082840312156104f0578081fd5b815161028181610615565b60006020828403121561050c578081fd5b5051919050565b600080600060608486031215610527578081fd5b505081359360208301359350604090920135919050565b6001600160a01b0391909116815260200190565b901515815260200190565b6020808252601b908201527f536166654d6174683a206164646974696f6e206f766572666c6f770000000000604082015260600190565b6020808252601a908201527f536166654d6174683a206469766973696f6e206279207a65726f000000000000604082015260600190565b60208082526021908201527f536166654d6174683a206d756c7469706c69636174696f6e206f766572666c6f6040820152607760f81b606082015260800190565b90815260200190565b6001600160a01b038116811461062a57600080fd5b5056fea26469706673582212203fb40b1b0bc8b7d8f79af5018a936e55c58dd5b3923dc84f7e74cd8541d75b9164736f6c634300060c0033",
  "linkReferences": {},
  "deployedLinkReferences": {}
}