{
  "_format": "hh-sol-artifact-1",
  "contractName": "NativeMetaTransaction",
  "sourceName": "contracts/lib/NativeMetaTransaction.sol",
  "abi": [
    {
      "anonymous": false,
      "inputs": [
        {
          "indexed": false,
          "internalType": "address",
          "name": "userAddress",
          "type": "address"
        },
        {
          "indexed": false,
          "internalType": "address",
          "name": "relayerAddress",
          "type": "address"
        },
        {
          "indexed": false,
          "internalType": "bytes",
          "name": "functionSignature",
          "type": "bytes"
        }
      ],
      "name": "MetaTransactionExecuted",
      "type": "event"
    },
    {
      "inputs": [
        {
          "internalType": "address",
          "name": "userAddress",
          "type": "address"
        },
        {
          "internalType": "bytes",
          "name": "functionSignature",
          "type": "bytes"
        },
        {
          "internalType": "bytes32",
          "name": "sigR",
          "type": "bytes32"
        },
        {
          "internalType": "bytes32",
          "name": "sigS",
          "type": "bytes32"
        },
        {
          "internalType": "uint8",
          "name": "sigV",
          "type": "uint8"
        }
      ],
      "name": "executeMetaTransaction",
      "outputs": [
        {
          "internalType": "bytes",
          "name": "",
          "type": "bytes"
        }
      ],
      "stateMutability": "payable",
      "type": "function"
    },
    {
      "inputs": [],
      "name": "getChainId",
      "outputs": [
        {
          "internalType": "uint256",
          "name": "",
          "type": "uint256"
        }
      ],
      "stateMutability": "view",
      "type": "function"
    },
    {
      "inputs": [],
      "name": "getDomainSeperator",
      "outputs": [
        {
          "internalType": "bytes32",
          "name": "",
          "type": "bytes32"
        }
      ],
      "stateMutability": "view",
      "type": "function"
    },
    {
      "inputs": [
        {
          "internalType": "address",
          "name": "user",
          "type": "address"
        }
      ],
      "name": "getNonce",
      "outputs": [
        {
          "internalType": "uint256",
          "name": "nonce",
          "type": "uint256"
        }
      ],
      "stateMutability": "view",
      "type": "function"
    }
  ],
  "bytecode": "0x608060405234801561001057600080fd5b506108ea806100206000396000f3fe60806040526004361061003f5760003560e01c80630c53c51c1461004457806320379ee51461006d5780632d0335ab146100905780633408e470146100c6575b600080fd5b61005761005236600461056d565b6100d9565b60405161006491906107a3565b60405180910390f35b34801561007957600080fd5b506100826102c8565b604051908152602001610064565b34801561009c57600080fd5b506100826100ab36600461054b565b6001600160a01b031660009081526005602052604090205490565b3480156100d257600080fd5b5046610082565b60408051606081810183526001600160a01b038816600081815260056020908152908590205484528301529181018690526101178782878787610382565b6101725760405162461bcd60e51b815260206004820152602160248201527f5369676e657220616e64207369676e617475726520646f206e6f74206d6174636044820152600d60fb1b60648201526084015b60405180910390fd5b6001600160a01b0387166000908152600560205260409020546101969060016107b6565b6001600160a01b0388166000908152600560205260409081902091909155517f5845892132946850460bff5a0083f71031bc5bf9aadcd40f1de79423eac9b10b906101e690899033908a9061076e565b60405180910390a1600080306001600160a01b0316888a60405160200161020e92919061069b565b60408051601f19818403018152908290526102289161067f565b6000604051808303816000865af19150503d8060008114610265576040519150601f19603f3d011682016040523d82523d6000602084013e61026a565b606091505b5091509150816102bc5760405162461bcd60e51b815260206004820152601c60248201527f46756e6374696f6e2063616c6c206e6f74207375636365737366756c000000006044820152606401610169565b98975050505050505050565b60006002546102d44690565b14156102e1575060015490565b6040518060800160405280604f8152602001610866604f913980519060200120600360405161031091906106d2565b6040518091039020600460405161032791906106d2565b6040518091039020306103374690565b60408051602081019690965285019390935260608401919091526001600160a01b0316608083015260a082015260c00160405160208183030381529060405280519060200120905090565b60006001600160a01b0386166103e85760405162461bcd60e51b815260206004820152602560248201527f4e61746976654d6574615472616e73616374696f6e3a20494e56414c49445f5360448201526424a3a722a960d91b6064820152608401610169565b60016103fb6103f687610472565b6104ef565b6040805160008152602081018083529290925260ff851690820152606081018690526080810185905260a0016020604051602081039080840390855afa158015610449573d6000803e3d6000fd5b505050602060405103516001600160a01b0316866001600160a01b031614905095945050505050565b600060405180608001604052806043815260200161082360439139805160209182012083518483015160408087015180519086012090516104d2950193845260208401929092526001600160a01b03166040830152606082015260800190565b604051602081830303815290604052805190602001209050919050565b60006104f96102c8565b60405161190160f01b60208201526022810191909152604281018390526062016104d2565b80356001600160a01b038116811461053557600080fd5b919050565b803560ff8116811461053557600080fd5b60006020828403121561055d57600080fd5b6105668261051e565b9392505050565b600080600080600060a0868803121561058557600080fd5b61058e8661051e565b9450602086013567ffffffffffffffff808211156105ab57600080fd5b818801915088601f8301126105bf57600080fd5b8135818111156105d1576105d161080c565b604051601f8201601f19908116603f011681019083821181831017156105f9576105f961080c565b816040528281528b602084870101111561061257600080fd5b82602086016020830137600060208483010152809850505050505060408601359250606086013591506106476080870161053a565b90509295509295909350565b6000815180845261066b8160208601602086016107dc565b601f01601f19169290920160200192915050565b600082516106918184602087016107dc565b9190910192915050565b600083516106ad8184602088016107dc565b60609390931b6bffffffffffffffffffffffff19169190920190815260140192915050565b600080835481600182811c9150808316806106ee57607f831692505b602080841082141561070e57634e487b7160e01b86526022600452602486fd5b818015610722576001811461073357610760565b60ff19861689528489019650610760565b60008a81526020902060005b868110156107585781548b82015290850190830161073f565b505084890196505b509498975050505050505050565b6001600160a01b0384811682528316602082015260606040820181905260009061079a90830184610653565b95945050505050565b6020815260006105666020830184610653565b600082198211156107d757634e487b7160e01b600052601160045260246000fd5b500190565b60005b838110156107f75781810151838201526020016107df565b83811115610806576000848401525b50505050565b634e487b7160e01b600052604160045260246000fdfe4d6574615472616e73616374696f6e2875696e74323536206e6f6e63652c616464726573732066726f6d2c62797465732066756e6374696f6e5369676e617475726529454950373132446f6d61696e28737472696e67206e616d652c737472696e672076657273696f6e2c6164647265737320766572696679696e67436f6e74726163742c627974657333322073616c7429a26469706673582212204144e34ad8b129550055db1f5b5e65c248022ef1b79c2e6333458a179a65f35364736f6c63430008070033",
  "linkReferences": {},
  "deployedLinkReferences": {}
}