{"abi":[{"type":"constructor","inputs":[{"name":"_gov","type":"address","internalType":"address"},{"name":"_val","type":"uint256","internalType":"uint256"}],"stateMutability":"nonpayable"},{"type":"function","name":"gov","inputs":[],"outputs":[{"name":"","type":"address","internalType":"address"}],"stateMutability":"view"},{"type":"function","name":"update","inputs":[{"name":"_value","type":"uint256","internalType":"uint256"}],"outputs":[],"stateMutability":"nonpayable"},{"type":"function","name":"value","inputs":[],"outputs":[{"name":"","type":"uint256","internalType":"uint256"}],"stateMutability":"view"},{"type":"event","name":"valueUpdated","inputs":[{"name":"governance","type":"address","indexed":true,"internalType":"address"},{"name":"sender","type":"address","indexed":true,"internalType":"address"},{"name":"v","type":"uint256","indexed":false,"internalType":"uint256"}],"anonymous":false}],"bytecode":{"object":"0x608060405234801561001057600080fd5b5060405161031c38038061031c8339818101604052604081101561003357600080fd5b810190808051906020019092919080519060200190929190505050816000806101000a81548173ffffffffffffffffffffffffffffffffffffffff021916908373ffffffffffffffffffffffffffffffffffffffff160217905550806001819055505050610276806100a66000396000f3fe608060405234801561001057600080fd5b50600436106100415760003560e01c806312d43a51146100465780633fa4f2451461007a57806382ab890a14610098575b600080fd5b61004e6100c6565b604051808273ffffffffffffffffffffffffffffffffffffffff16815260200191505060405180910390f35b6100826100ea565b6040518082815260200191505060405180910390f35b6100c4600480360360208110156100ae57600080fd5b81019080803590602001909291905050506100f0565b005b60008054906101000a900473ffffffffffffffffffffffffffffffffffffffff1681565b60015481565b60008054906101000a900473ffffffffffffffffffffffffffffffffffffffff1673ffffffffffffffffffffffffffffffffffffffff163373ffffffffffffffffffffffffffffffffffffffff16146101b1576040517f08c379a00000000000000000000000000000000000000000000000000000000081526004018080602001828103825260068152602001807f47543a4f4731000000000000000000000000000000000000000000000000000081525060200191505060405180910390fd5b806001819055503373ffffffffffffffffffffffffffffffffffffffff1660008054906101000a900473ffffffffffffffffffffffffffffffffffffffff1673ffffffffffffffffffffffffffffffffffffffff167f1736b6648b1e227e5303acca50ca7c142032c67a4a45b8210cbae05e9e6358cc836040518082815260200191505060405180910390a35056fea2646970667358221220d9b6c6314cac025615eb82e726d3138e91f591bc0d0a78047c095326fa6998a264736f6c63430007060033","linkReferences":{}},"methodIdentifiers":{"gov()":"12d43a51","update(uint256)":"82ab890a","value()":"3fa4f245"},"id":41}