{
  "_format": "hh-sol-artifact-1",
  "contractName": "DexAddressProvider",
  "sourceName": "contracts/dex/DexAddressProvider.sol",
  "abi": [
    {
      "inputs": [
        {
          "internalType": "contract IAddressProvider",
          "name": "a",
          "type": "address"
        },
        {
          "components": [
            {
              "internalType": "address",
              "name": "proxy",
              "type": "address"
            },
            {
              "internalType": "address",
              "name": "router",
              "type": "address"
            }
          ],
          "internalType": "struct IDexAddressProvider.Dex[]",
          "name": "dexes",
          "type": "tuple[]"
        }
      ],
      "stateMutability": "nonpayable",
      "type": "constructor"
    },
    {
      "anonymous": false,
      "inputs": [
        {
          "indexed": false,
          "internalType": "uint8",
          "name": "",
          "type": "uint8"
        }
      ],
      "name": "DexSet",
      "type": "event"
    },
    {
      "inputs": [
        {
          "internalType": "uint256",
          "name": "index",
          "type": "uint256"
        }
      ],
      "name": "dexMapping",
      "outputs": [
        {
          "internalType": "address",
          "name": "",
          "type": "address"
        },
        {
          "internalType": "address",
          "name": "",
          "type": "address"
        }
      ],
      "stateMutability": "view",
      "type": "function"
    },
    {
      "inputs": [],
      "name": "parallel",
      "outputs": [
        {
          "internalType": "contract IAddressProvider",
          "name": "",
          "type": "address"
        }
      ],
      "stateMutability": "view",
      "type": "function"
    },
    {
      "inputs": [
        {
          "internalType": "uint256",
          "name": "_index",
          "type": "uint256"
        },
        {
          "internalType": "address",
          "name": "_proxy",
          "type": "address"
        },
        {
          "internalType": "address",
          "name": "_router",
          "type": "address"
        }
      ],
      "name": "setDexMapping",
      "outputs": [],
      "stateMutability": "nonpayable",
      "type": "function"
    }
  ],
  "bytecode": "0x608060405234801561001057600080fd5b506040516107bb3803806107bb83398101604081905261002f91610168565b6001600160a01b03821661005e5760405162461bcd60e51b81526004016100559061021d565b60405180910390fd5b600080546001600160a01b0319166001600160a01b0384161781555b815181101561011d57604051806040016040528083838151811061009a57fe5b6020026020010151600001516001600160a01b031681526020018383815181106100c057fe5b6020908102919091018101518101516001600160a01b03908116909252600084815260018083526040909120845181549085166001600160a01b03199182161782559490920151918101805492909316919093161790550161007a565b505050610299565b600060408284031215610136578081fd5b610140604061023c565b9050815161014d81610281565b8152602082015161015d81610281565b602082015292915050565b600080604080848603121561017b578283fd5b835161018681610281565b602085810151919450906001600160401b038111156101a3578384fd5b8501601f810187136101b3578384fd5b80516101c66101c182610262565b61023c565b81815283810190838501868402850186018b10156101e2578788fd5b8794505b8385101561020c576101f88b82610125565b8352600194909401939185019186016101e6565b508096505050505050509250929050565b60208082526005908201526404c4d3030360dc1b604082015260600190565b6040518181016001600160401b038111828210171561025a57600080fd5b604052919050565b60006001600160401b03821115610277578081fd5b5060209081020190565b6001600160a01b038116811461029657600080fd5b50565b610513806102a86000396000f3fe608060405234801561001057600080fd5b50600436106100415760003560e01c80630932dc91146100465780632bfac6be1461005b5780633df06b5914610085575b600080fd5b610059610054366004610401565b61009a565b005b61006e6100693660046103e9565b610358565b60405161007c929190610442565b60405180910390f35b61008d61037f565b60405161007c9190610473565b60008054906101000a90046001600160a01b03166001600160a01b031663f77c47916040518163ffffffff1660e01b815260040160206040518083038186803b1580156100e657600080fd5b505afa1580156100fa573d6000803e3d6000fd5b505050506040513d601f19601f8201168201806040525081019061011e91906103cd565b6001600160a01b03166391d1485460008054906101000a90046001600160a01b03166001600160a01b031663f77c47916040518163ffffffff1660e01b815260040160206040518083038186803b15801561017857600080fd5b505afa15801561018c573d6000803e3d6000fd5b505050506040513d601f19601f820116820180604052508101906101b091906103cd565b6001600160a01b031663ec87621c6040518163ffffffff1660e01b815260040160206040518083038186803b1580156101e857600080fd5b505afa1580156101fc573d6000803e3d6000fd5b505050506040513d601f19601f8201168201806040525081019061022091906103b5565b336040518363ffffffff1660e01b815260040161023e92919061045c565b60206040518083038186803b15801561025657600080fd5b505afa15801561026a573d6000803e3d6000fd5b505050506040513d601f19601f8201168201806040525081019061028e919061038e565b6102b35760405162461bcd60e51b81526004016102aa906104a6565b60405180910390fd5b6001600160a01b0382166102d95760405162461bcd60e51b81526004016102aa90610487565b6001600160a01b0381166102ff5760405162461bcd60e51b81526004016102aa90610487565b6040805180820182526001600160a01b0393841681529183166020808401918252600095865260019081905291909420915182546001600160a01b03199081169185169190911783559351910180549093169116179055565b600090815260016020819052604090912080549101546001600160a01b0391821692911690565b6000546001600160a01b031690565b60006020828403121561039f578081fd5b815180151581146103ae578182fd5b9392505050565b6000602082840312156103c6578081fd5b5051919050565b6000602082840312156103de578081fd5b81516103ae816104c5565b6000602082840312156103fa578081fd5b5035919050565b600080600060608486031215610415578182fd5b833592506020840135610427816104c5565b91506040840135610437816104c5565b809150509250925092565b6001600160a01b0392831681529116602082015260400190565b9182526001600160a01b0316602082015260400190565b6001600160a01b0391909116815260200190565b60208082526005908201526404c4d3030360dc1b604082015260600190565b60208082526005908201526404c4d3031360dc1b604082015260600190565b6001600160a01b03811681146104da57600080fd5b5056fea2646970667358221220d2c88826b6da6f203f8e9c0707a66ecda3514c2804cd81aa0aa70b4ae41fc45864736f6c634300060c0033",
  "linkReferences": {},
  "deployedLinkReferences": {}
}