{
  "_format": "hh-sol-artifact-1",
  "contractName": "LiquidityPoolProxy",
  "sourceName": "contracts/hyphen/proxy/LiquidityPoolProxy.sol",
  "abi": [
    {
      "inputs": [
        {
          "internalType": "address",
          "name": "_implementation",
          "type": "address"
        },
        {
          "internalType": "address",
          "name": "_admin",
          "type": "address"
        }
      ],
      "stateMutability": "nonpayable",
      "type": "constructor"
    },
    {
      "anonymous": false,
      "inputs": [
        {
          "indexed": false,
          "internalType": "address",
          "name": "previousAdmin",
          "type": "address"
        },
        {
          "indexed": false,
          "internalType": "address",
          "name": "newAdmin",
          "type": "address"
        }
      ],
      "name": "AdminChanged",
      "type": "event"
    },
    {
      "anonymous": false,
      "inputs": [
        {
          "indexed": true,
          "internalType": "address",
          "name": "beacon",
          "type": "address"
        }
      ],
      "name": "BeaconUpgraded",
      "type": "event"
    },
    {
      "anonymous": false,
      "inputs": [
        {
          "indexed": true,
          "internalType": "address",
          "name": "implementation",
          "type": "address"
        }
      ],
      "name": "Upgraded",
      "type": "event"
    },
    {
      "stateMutability": "payable",
      "type": "fallback"
    },
    {
      "inputs": [],
      "name": "admin",
      "outputs": [
        {
          "internalType": "address",
          "name": "admin_",
          "type": "address"
        }
      ],
      "stateMutability": "nonpayable",
      "type": "function"
    },
    {
      "inputs": [
        {
          "internalType": "address",
          "name": "newAdmin",
          "type": "address"
        }
      ],
      "name": "changeAdmin",
      "outputs": [],
      "stateMutability": "nonpayable",
      "type": "function"
    },
    {
      "inputs": [],
      "name": "getAdmin",
      "outputs": [
        {
          "internalType": "address",
          "name": "adm",
          "type": "address"
        }
      ],
      "stateMutability": "view",
      "type": "function"
    },
    {
      "inputs": [],
      "name": "getImplementation",
      "outputs": [
        {
          "internalType": "address",
          "name": "impl",
          "type": "address"
        }
      ],
      "stateMutability": "view",
      "type": "function"
    },
    {
      "inputs": [],
      "name": "implementation",
      "outputs": [
        {
          "internalType": "address",
          "name": "implementation_",
          "type": "address"
        }
      ],
      "stateMutability": "nonpayable",
      "type": "function"
    },
    {
      "inputs": [
        {
          "internalType": "address",
          "name": "newImplementation",
          "type": "address"
        }
      ],
      "name": "upgradeTo",
      "outputs": [],
      "stateMutability": "nonpayable",
      "type": "function"
    },
    {
      "inputs": [
        {
          "internalType": "address",
          "name": "newImplementation",
          "type": "address"
        },
        {
          "internalType": "bytes",
          "name": "data",
          "type": "bytes"
        }
      ],
      "name": "upgradeToAndCall",
      "outputs": [],
      "stateMutability": "payable",
      "type": "function"
    },
    {
      "stateMutability": "payable",
      "type": "receive"
    }
  ],
  "bytecode": "0x60806040523480156200001157600080fd5b5060405162000f3038038062000f30833981016040819052620000349162000505565b6040805160208101909152600081528290829082816200007660017f360894a13ba1a3210667c828492db98dca3e2076cc3735a920a3ca505d382bbd6200058f565b60008051602062000ee983398151915214620000a257634e487b7160e01b600052600160045260246000fd5b620000b08282600062000122565b50620000e0905060017fb53127684a568b3173ae13b9f8a6016e243e63b6e8ee1178d6a717850b5d61046200058f565b60008051602062000ec9833981519152146200010c57634e487b7160e01b600052600160045260246000fd5b62000117826200015f565b5050505050620005e2565b6200012d83620001ba565b6000825111806200013b5750805b156200015a57620001588383620001fc60201b620002d51760201c565b505b505050565b7f7e644d79422f17c01e4894b5f4f588d331ebfa28653d42ae832dc59e38c9798f6200018a6200022b565b604080516001600160a01b03928316815291841660208301520160405180910390a1620001b78162000264565b50565b620001c58162000319565b6040516001600160a01b038216907fbc7cd75a20ee27fd9adebab32041f755214dbc6bffa90cc0225b39da2e5c2d3b90600090a250565b606062000224838360405180606001604052806027815260200162000f0960279139620003bc565b9392505050565b60006200025560008051602062000ec983398151915260001b620004a260201b620002641760201c565b546001600160a01b0316905090565b6001600160a01b038116620002cf5760405162461bcd60e51b815260206004820152602660248201527f455243313936373a206e65772061646d696e20697320746865207a65726f206160448201526564647265737360d01b60648201526084015b60405180910390fd5b80620002f860008051602062000ec983398151915260001b620004a260201b620002641760201c565b80546001600160a01b0319166001600160a01b039290921691909117905550565b6200032f81620004a560201b620003011760201c565b620003935760405162461bcd60e51b815260206004820152602d60248201527f455243313936373a206e657720696d706c656d656e746174696f6e206973206e60448201526c1bdd08184818dbdb9d1c9858dd609a1b6064820152608401620002c6565b80620002f860008051602062000ee983398151915260001b620004a260201b620002641760201c565b6060620003c984620004a5565b620004265760405162461bcd60e51b815260206004820152602660248201527f416464726573733a2064656c65676174652063616c6c20746f206e6f6e2d636f6044820152651b9d1c9858dd60d21b6064820152608401620002c6565b600080856001600160a01b0316856040516200044391906200053c565b600060405180830381855af49150503d806000811462000480576040519150601f19603f3d011682016040523d82523d6000602084013e62000485565b606091505b50909250905062000498828286620004af565b9695505050505050565b90565b803b15155b919050565b60608315620004c057508162000224565b825115620004d15782518084602001fd5b8160405162461bcd60e51b8152600401620002c691906200055a565b80516001600160a01b0381168114620004aa57600080fd5b6000806040838503121562000518578182fd5b6200052383620004ed565b91506200053360208401620004ed565b90509250929050565b6000825162000550818460208701620005b3565b9190910192915050565b60006020825282518060208401526200057b816040850160208701620005b3565b601f01601f19169190910160400192915050565b600082821015620005ae57634e487b7160e01b81526011600452602481fd5b500390565b60005b83811015620005d0578181015183820152602001620005b6565b83811115620001585750506000910152565b6108d780620005f26000396000f3fe6080604052600436106100745760003560e01c80636e9960c31161004e5780636e9960c3146100ef5780638f28397014610104578063aaf10f4214610124578063f851a4401461013957610083565b80633659cfe61461008b5780634f1ef286146100ab5780635c60da1b146100be57610083565b366100835761008161014e565b005b61008161014e565b34801561009757600080fd5b506100816100a6366004610767565b610168565b6100816100b9366004610781565b6101b4565b3480156100ca57600080fd5b506100d361022a565b6040516001600160a01b03909116815260200160405180910390f35b3480156100fb57600080fd5b506100d3610267565b34801561011057600080fd5b5061008161011f366004610767565b610276565b34801561013057600080fd5b506100d36102a0565b34801561014557600080fd5b506100d36102aa565b61015661030b565b6101666101616103af565b6103b9565b565b6101706103dd565b6001600160a01b0316336001600160a01b031614156101a9576101a481604051806020016040528060008152506000610410565b6101b1565b6101b161014e565b50565b6101bc6103dd565b6001600160a01b0316336001600160a01b0316141561021d576102188383838080601f01602080910402602001604051908101604052809392919081815260200183838082843760009201919091525060019250610410915050565b610225565b61022561014e565b505050565b60006102346103dd565b6001600160a01b0316336001600160a01b0316141561025c576102556103af565b9050610264565b61026461014e565b90565b600061027161043b565b905090565b61027e6103dd565b6001600160a01b0316336001600160a01b031614156101a9576101a481610445565b60006102716103af565b60006102b46103dd565b6001600160a01b0316336001600160a01b0316141561025c576102556103dd565b60606102fa838360405180606001604052806027815260200161087b60279139610499565b9392505050565b803b15155b919050565b6103136103dd565b6001600160a01b0316336001600160a01b031614156103aa5760405162461bcd60e51b815260206004820152604260248201527f5472616e73706172656e745570677261646561626c6550726f78793a2061646d60448201527f696e2063616e6e6f742066616c6c6261636b20746f2070726f78792074617267606482015261195d60f21b608482015260a4015b60405180910390fd5b610166565b6000610271610574565b3660008037600080366000845af43d6000803e8080156103d8573d6000f35b3d6000fd5b60007fb53127684a568b3173ae13b9f8a6016e243e63b6e8ee1178d6a717850b5d61035b546001600160a01b0316905090565b6104198361059c565b6000825111806104265750805b156102255761043583836102d5565b50505050565b60006102716103dd565b7f7e644d79422f17c01e4894b5f4f588d331ebfa28653d42ae832dc59e38c9798f61046e6103dd565b604080516001600160a01b03928316815291841660208301520160405180910390a16101b1816105dc565b60606104a484610301565b6104ff5760405162461bcd60e51b815260206004820152602660248201527f416464726573733a2064656c65676174652063616c6c20746f206e6f6e2d636f6044820152651b9d1c9858dd60d21b60648201526084016103a1565b600080856001600160a01b03168560405161051a91906107ff565b600060405180830381855af49150503d8060008114610555576040519150601f19603f3d011682016040523d82523d6000602084013e61055a565b606091505b509150915061056a828286610685565b9695505050505050565b60007f360894a13ba1a3210667c828492db98dca3e2076cc3735a920a3ca505d382bbc610401565b6105a5816106be565b6040516001600160a01b038216907fbc7cd75a20ee27fd9adebab32041f755214dbc6bffa90cc0225b39da2e5c2d3b90600090a250565b6001600160a01b0381166106415760405162461bcd60e51b815260206004820152602660248201527f455243313936373a206e65772061646d696e20697320746865207a65726f206160448201526564647265737360d01b60648201526084016103a1565b807fb53127684a568b3173ae13b9f8a6016e243e63b6e8ee1178d6a717850b5d61035b80546001600160a01b0319166001600160a01b039290921691909117905550565b606083156106945750816102fa565b8251156106a45782518084602001fd5b8160405162461bcd60e51b81526004016103a1919061081b565b6106c781610301565b6107295760405162461bcd60e51b815260206004820152602d60248201527f455243313936373a206e657720696d706c656d656e746174696f6e206973206e60448201526c1bdd08184818dbdb9d1c9858dd609a1b60648201526084016103a1565b807f360894a13ba1a3210667c828492db98dca3e2076cc3735a920a3ca505d382bbc610664565b80356001600160a01b038116811461030657600080fd5b600060208284031215610778578081fd5b6102fa82610750565b600080600060408486031215610795578182fd5b61079e84610750565b9250602084013567ffffffffffffffff808211156107ba578384fd5b818601915086601f8301126107cd578384fd5b8135818111156107db578485fd5b8760208285010111156107ec578485fd5b6020830194508093505050509250925092565b6000825161081181846020870161084e565b9190910192915050565b600060208252825180602084015261083a81604085016020870161084e565b601f01601f19169190910160400192915050565b60005b83811015610869578181015183820152602001610851565b83811115610435575050600091015256fe416464726573733a206c6f772d6c6576656c2064656c65676174652063616c6c206661696c6564a2646970667358221220d88c14382232609975ef94b0b7ce6653d9e5920ea74e2a85da93a66a5388806264736f6c63430008020033b53127684a568b3173ae13b9f8a6016e243e63b6e8ee1178d6a717850b5d6103360894a13ba1a3210667c828492db98dca3e2076cc3735a920a3ca505d382bbc416464726573733a206c6f772d6c6576656c2064656c65676174652063616c6c206661696c6564",
  "linkReferences": {},
  "deployedLinkReferences": {}
}