{
  "_format": "hh-sol-artifact-1",
  "contractName": "BondingManagerPreLIP36",
  "sourceName": "contracts/bonding/deprecated/BondingManagerPreLIP36.sol",
  "abi": [
    {
      "constant": true,
      "inputs": [
        {
          "internalType": "uint256",
          "name": "",
          "type": "uint256"
        }
      ],
      "name": "activeTranscoderSetDEPRECATED",
      "outputs": [
        {
          "internalType": "uint256",
          "name": "totalStake",
          "type": "uint256"
        }
      ],
      "payable": false,
      "stateMutability": "view",
      "type": "function"
    },
    {
      "constant": true,
      "inputs": [],
      "name": "maxEarningsClaimsRounds",
      "outputs": [
        {
          "internalType": "uint256",
          "name": "",
          "type": "uint256"
        }
      ],
      "payable": false,
      "stateMutability": "view",
      "type": "function"
    },
    {
      "constant": false,
      "inputs": [
        {
          "internalType": "address",
          "name": "_to",
          "type": "address"
        },
        {
          "internalType": "uint256",
          "name": "_unbondingLockId",
          "type": "uint256"
        },
        {
          "internalType": "address",
          "name": "_newPosPrev",
          "type": "address"
        },
        {
          "internalType": "address",
          "name": "_newPosNext",
          "type": "address"
        }
      ],
      "name": "rebondFromUnbondedWithHint",
      "outputs": [],
      "payable": false,
      "stateMutability": "nonpayable",
      "type": "function"
    },
    {
      "constant": true,
      "inputs": [
        {
          "internalType": "address",
          "name": "_transcoder",
          "type": "address"
        }
      ],
      "name": "isActiveTranscoder",
      "outputs": [
        {
          "internalType": "bool",
          "name": "",
          "type": "bool"
        }
      ],
      "payable": false,
      "stateMutability": "view",
      "type": "function"
    },
    {
      "constant": true,
      "inputs": [
        {
          "internalType": "address",
          "name": "_delegator",
          "type": "address"
        },
        {
          "internalType": "uint256",
          "name": "_unbondingLockId",
          "type": "uint256"
        }
      ],
      "name": "isValidUnbondingLock",
      "outputs": [
        {
          "internalType": "bool",
          "name": "",
          "type": "bool"
        }
      ],
      "payable": false,
      "stateMutability": "view",
      "type": "function"
    },
    {
      "constant": true,
      "inputs": [
        {
          "internalType": "address",
          "name": "_delegator",
          "type": "address"
        }
      ],
      "name": "delegatorStatus",
      "outputs": [
        {
          "internalType": "enum BondingManagerPreLIP36.DelegatorStatus",
          "name": "",
          "type": "uint8"
        }
      ],
      "payable": false,
      "stateMutability": "view",
      "type": "function"
    },
    {
      "constant": false,
      "inputs": [],
      "name": "reward",
      "outputs": [],
      "payable": false,
      "stateMutability": "nonpayable",
      "type": "function"
    },
    {
      "constant": false,
      "inputs": [
        {
          "internalType": "address",
          "name": "_transcoder",
          "type": "address"
        },
        {
          "internalType": "address",
          "name": "_finder",
          "type": "address"
        },
        {
          "internalType": "uint256",
          "name": "_slashAmount",
          "type": "uint256"
        },
        {
          "internalType": "uint256",
          "name": "_finderFee",
          "type": "uint256"
        }
      ],
      "name": "slashTranscoder",
      "outputs": [],
      "payable": false,
      "stateMutability": "nonpayable",
      "type": "function"
    },
    {
      "constant": true,
      "inputs": [
        {
          "internalType": "address",
          "name": "_transcoder",
          "type": "address"
        }
      ],
      "name": "getNextTranscoderInPool",
      "outputs": [
        {
          "internalType": "address",
          "name": "",
          "type": "address"
        }
      ],
      "payable": false,
      "stateMutability": "view",
      "type": "function"
    },
    {
      "constant": true,
      "inputs": [
        {
          "internalType": "address",
          "name": "_transcoder",
          "type": "address"
        },
        {
          "internalType": "uint256",
          "name": "_round",
          "type": "uint256"
        }
      ],
      "name": "getTranscoderEarningsPoolForRound",
      "outputs": [
        {
          "internalType": "uint256",
          "name": "rewardPool",
          "type": "uint256"
        },
        {
          "internalType": "uint256",
          "name": "feePool",
          "type": "uint256"
        },
        {
          "internalType": "uint256",
          "name": "totalStake",
          "type": "uint256"
        },
        {
          "internalType": "uint256",
          "name": "claimableStake",
          "type": "uint256"
        },
        {
          "internalType": "uint256",
          "name": "transcoderRewardCut",
          "type": "uint256"
        },
        {
          "internalType": "uint256",
          "name": "transcoderFeeShare",
          "type": "uint256"
        },
        {
          "internalType": "uint256",
          "name": "transcoderRewardPool",
          "type": "uint256"
        },
        {
          "internalType": "uint256",
          "name": "transcoderFeePool",
          "type": "uint256"
        },
        {
          "internalType": "bool",
          "name": "hasTranscoderRewardFeePool",
          "type": "bool"
        }
      ],
      "payable": false,
      "stateMutability": "view",
      "type": "function"
    },
    {
      "constant": false,
      "inputs": [
        {
          "internalType": "uint256",
          "name": "_endRound",
          "type": "uint256"
        }
      ],
      "name": "claimEarnings",
      "outputs": [],
      "payable": false,
      "stateMutability": "nonpayable",
      "type": "function"
    },
    {
      "constant": false,
      "inputs": [
        {
          "internalType": "uint256",
          "name": "_unbondingLockId",
          "type": "uint256"
        }
      ],
      "name": "withdrawStake",
      "outputs": [],
      "payable": false,
      "stateMutability": "nonpayable",
      "type": "function"
    },
    {
      "constant": false,
      "inputs": [
        {
          "internalType": "uint256",
          "name": "_amount",
          "type": "uint256"
        }
      ],
      "name": "unbond",
      "outputs": [],
      "payable": false,
      "stateMutability": "nonpayable",
      "type": "function"
    },
    {
      "constant": true,
      "inputs": [],
      "name": "getTranscoderPoolSize",
      "outputs": [
        {
          "internalType": "uint256",
          "name": "",
          "type": "uint256"
        }
      ],
      "payable": false,
      "stateMutability": "view",
      "type": "function"
    },
    {
      "constant": false,
      "inputs": [
        {
          "internalType": "uint256",
          "name": "_rewardCut",
          "type": "uint256"
        },
        {
          "internalType": "uint256",
          "name": "_feeShare",
          "type": "uint256"
        },
        {
          "internalType": "address",
          "name": "_newPosPrev",
          "type": "address"
        },
        {
          "internalType": "address",
          "name": "_newPosNext",
          "type": "address"
        }
      ],
      "name": "transcoderWithHint",
      "outputs": [],
      "payable": false,
      "stateMutability": "nonpayable",
      "type": "function"
    },
    {
      "constant": false,
      "inputs": [
        {
          "internalType": "address",
          "name": "_to",
          "type": "address"
        },
        {
          "internalType": "uint256",
          "name": "_unbondingLockId",
          "type": "uint256"
        }
      ],
      "name": "rebondFromUnbonded",
      "outputs": [],
      "payable": false,
      "stateMutability": "nonpayable",
      "type": "function"
    },
    {
      "constant": false,
      "inputs": [
        {
          "internalType": "address",
          "name": "_transcoder",
          "type": "address"
        },
        {
          "internalType": "uint256",
          "name": "_fees",
          "type": "uint256"
        },
        {
          "internalType": "uint256",
          "name": "_round",
          "type": "uint256"
        }
      ],
      "name": "updateTranscoderWithFees",
      "outputs": [],
      "payable": false,
      "stateMutability": "nonpayable",
      "type": "function"
    },
    {
      "constant": true,
      "inputs": [],
      "name": "numActiveTranscodersDEPRECATED",
      "outputs": [
        {
          "internalType": "uint256",
          "name": "",
          "type": "uint256"
        }
      ],
      "payable": false,
      "stateMutability": "view",
      "type": "function"
    },
    {
      "constant": true,
      "inputs": [
        {
          "internalType": "address",
          "name": "_delegator",
          "type": "address"
        },
        {
          "internalType": "uint256",
          "name": "_unbondingLockId",
          "type": "uint256"
        }
      ],
      "name": "getDelegatorUnbondingLock",
      "outputs": [
        {
          "internalType": "uint256",
          "name": "amount",
          "type": "uint256"
        },
        {
          "internalType": "uint256",
          "name": "withdrawRound",
          "type": "uint256"
        }
      ],
      "payable": false,
      "stateMutability": "view",
      "type": "function"
    },
    {
      "constant": true,
      "inputs": [],
      "name": "currentRoundTotalActiveStake",
      "outputs": [
        {
          "internalType": "uint256",
          "name": "",
          "type": "uint256"
        }
      ],
      "payable": false,
      "stateMutability": "view",
      "type": "function"
    },
    {
      "constant": false,
      "inputs": [
        {
          "internalType": "uint256",
          "name": "_rewardCut",
          "type": "uint256"
        },
        {
          "internalType": "uint256",
          "name": "_feeShare",
          "type": "uint256"
        }
      ],
      "name": "transcoder",
      "outputs": [],
      "payable": false,
      "stateMutability": "nonpayable",
      "type": "function"
    },
    {
      "constant": true,
      "inputs": [],
      "name": "nextRoundTotalActiveStake",
      "outputs": [
        {
          "internalType": "uint256",
          "name": "",
          "type": "uint256"
        }
      ],
      "payable": false,
      "stateMutability": "view",
      "type": "function"
    },
    {
      "constant": false,
      "inputs": [],
      "name": "withdrawFees",
      "outputs": [],
      "payable": false,
      "stateMutability": "nonpayable",
      "type": "function"
    },
    {
      "constant": true,
      "inputs": [],
      "name": "targetContractId",
      "outputs": [
        {
          "internalType": "bytes32",
          "name": "",
          "type": "bytes32"
        }
      ],
      "payable": false,
      "stateMutability": "view",
      "type": "function"
    },
    {
      "constant": true,
      "inputs": [],
      "name": "getTranscoderPoolMaxSize",
      "outputs": [
        {
          "internalType": "uint256",
          "name": "",
          "type": "uint256"
        }
      ],
      "payable": false,
      "stateMutability": "view",
      "type": "function"
    },
    {
      "constant": true,
      "inputs": [],
      "name": "getTotalBonded",
      "outputs": [
        {
          "internalType": "uint256",
          "name": "",
          "type": "uint256"
        }
      ],
      "payable": false,
      "stateMutability": "view",
      "type": "function"
    },
    {
      "constant": true,
      "inputs": [
        {
          "internalType": "address",
          "name": "_transcoder",
          "type": "address"
        }
      ],
      "name": "getTranscoder",
      "outputs": [
        {
          "internalType": "uint256",
          "name": "lastRewardRound",
          "type": "uint256"
        },
        {
          "internalType": "uint256",
          "name": "rewardCut",
          "type": "uint256"
        },
        {
          "internalType": "uint256",
          "name": "feeShare",
          "type": "uint256"
        },
        {
          "internalType": "uint256",
          "name": "lastActiveStakeUpdateRound",
          "type": "uint256"
        },
        {
          "internalType": "uint256",
          "name": "activationRound",
          "type": "uint256"
        },
        {
          "internalType": "uint256",
          "name": "deactivationRound",
          "type": "uint256"
        }
      ],
      "payable": false,
      "stateMutability": "view",
      "type": "function"
    },
    {
      "constant": false,
      "inputs": [
        {
          "internalType": "uint256",
          "name": "_numActiveTranscoders",
          "type": "uint256"
        }
      ],
      "name": "setNumActiveTranscoders",
      "outputs": [],
      "payable": false,
      "stateMutability": "nonpayable",
      "type": "function"
    },
    {
      "constant": true,
      "inputs": [
        {
          "internalType": "address",
          "name": "_transcoder",
          "type": "address"
        }
      ],
      "name": "isRegisteredTranscoder",
      "outputs": [
        {
          "internalType": "bool",
          "name": "",
          "type": "bool"
        }
      ],
      "payable": false,
      "stateMutability": "view",
      "type": "function"
    },
    {
      "constant": false,
      "inputs": [
        {
          "internalType": "uint256",
          "name": "_amount",
          "type": "uint256"
        },
        {
          "internalType": "address",
          "name": "_to",
          "type": "address"
        },
        {
          "internalType": "address",
          "name": "_oldDelegateNewPosPrev",
          "type": "address"
        },
        {
          "internalType": "address",
          "name": "_oldDelegateNewPosNext",
          "type": "address"
        },
        {
          "internalType": "address",
          "name": "_currDelegateNewPosPrev",
          "type": "address"
        },
        {
          "internalType": "address",
          "name": "_currDelegateNewPosNext",
          "type": "address"
        }
      ],
      "name": "bondWithHint",
      "outputs": [],
      "payable": false,
      "stateMutability": "nonpayable",
      "type": "function"
    },
    {
      "constant": true,
      "inputs": [],
      "name": "unbondingPeriod",
      "outputs": [
        {
          "internalType": "uint64",
          "name": "",
          "type": "uint64"
        }
      ],
      "payable": false,
      "stateMutability": "view",
      "type": "function"
    },
    {
      "constant": false,
      "inputs": [],
      "name": "setCurrentRoundTotalActiveStake",
      "outputs": [],
      "payable": false,
      "stateMutability": "nonpayable",
      "type": "function"
    },
    {
      "constant": false,
      "inputs": [
        {
          "internalType": "uint256",
          "name": "_maxEarningsClaimsRounds",
          "type": "uint256"
        }
      ],
      "name": "setMaxEarningsClaimsRounds",
      "outputs": [],
      "payable": false,
      "stateMutability": "nonpayable",
      "type": "function"
    },
    {
      "constant": false,
      "inputs": [
        {
          "internalType": "uint256",
          "name": "_unbondingLockId",
          "type": "uint256"
        },
        {
          "internalType": "address",
          "name": "_newPosPrev",
          "type": "address"
        },
        {
          "internalType": "address",
          "name": "_newPosNext",
          "type": "address"
        }
      ],
      "name": "rebondWithHint",
      "outputs": [],
      "payable": false,
      "stateMutability": "nonpayable",
      "type": "function"
    },
    {
      "constant": false,
      "inputs": [
        {
          "internalType": "address",
          "name": "_newPosPrev",
          "type": "address"
        },
        {
          "internalType": "address",
          "name": "_newPosNext",
          "type": "address"
        }
      ],
      "name": "rewardWithHint",
      "outputs": [],
      "payable": false,
      "stateMutability": "nonpayable",
      "type": "function"
    },
    {
      "constant": true,
      "inputs": [],
      "name": "getFirstTranscoderInPool",
      "outputs": [
        {
          "internalType": "address",
          "name": "",
          "type": "address"
        }
      ],
      "payable": false,
      "stateMutability": "view",
      "type": "function"
    },
    {
      "constant": true,
      "inputs": [
        {
          "internalType": "address",
          "name": "_transcoder",
          "type": "address"
        }
      ],
      "name": "transcoderStatus",
      "outputs": [
        {
          "internalType": "enum BondingManagerPreLIP36.TranscoderStatus",
          "name": "",
          "type": "uint8"
        }
      ],
      "payable": false,
      "stateMutability": "view",
      "type": "function"
    },
    {
      "constant": false,
      "inputs": [
        {
          "internalType": "address",
          "name": "_controller",
          "type": "address"
        }
      ],
      "name": "setController",
      "outputs": [],
      "payable": false,
      "stateMutability": "nonpayable",
      "type": "function"
    },
    {
      "constant": false,
      "inputs": [
        {
          "internalType": "uint256",
          "name": "_amount",
          "type": "uint256"
        },
        {
          "internalType": "address",
          "name": "_newPosPrev",
          "type": "address"
        },
        {
          "internalType": "address",
          "name": "_newPosNext",
          "type": "address"
        }
      ],
      "name": "unbondWithHint",
      "outputs": [],
      "payable": false,
      "stateMutability": "nonpayable",
      "type": "function"
    },
    {
      "constant": true,
      "inputs": [
        {
          "internalType": "address",
          "name": "_delegator",
          "type": "address"
        },
        {
          "internalType": "uint256",
          "name": "_endRound",
          "type": "uint256"
        }
      ],
      "name": "pendingStake",
      "outputs": [
        {
          "internalType": "uint256",
          "name": "",
          "type": "uint256"
        }
      ],
      "payable": false,
      "stateMutability": "view",
      "type": "function"
    },
    {
      "constant": true,
      "inputs": [
        {
          "internalType": "address",
          "name": "_transcoder",
          "type": "address"
        }
      ],
      "name": "transcoderTotalStake",
      "outputs": [
        {
          "internalType": "uint256",
          "name": "",
          "type": "uint256"
        }
      ],
      "payable": false,
      "stateMutability": "view",
      "type": "function"
    },
    {
      "constant": true,
      "inputs": [
        {
          "internalType": "address",
          "name": "_delegator",
          "type": "address"
        }
      ],
      "name": "getDelegator",
      "outputs": [
        {
          "internalType": "uint256",
          "name": "bondedAmount",
          "type": "uint256"
        },
        {
          "internalType": "uint256",
          "name": "fees",
          "type": "uint256"
        },
        {
          "internalType": "address",
          "name": "delegateAddress",
          "type": "address"
        },
        {
          "internalType": "uint256",
          "name": "delegatedAmount",
          "type": "uint256"
        },
        {
          "internalType": "uint256",
          "name": "startRound",
          "type": "uint256"
        },
        {
          "internalType": "uint256",
          "name": "lastClaimRound",
          "type": "uint256"
        },
        {
          "internalType": "uint256",
          "name": "nextUnbondingLockId",
          "type": "uint256"
        }
      ],
      "payable": false,
      "stateMutability": "view",
      "type": "function"
    },
    {
      "constant": false,
      "inputs": [
        {
          "internalType": "uint256",
          "name": "_amount",
          "type": "uint256"
        },
        {
          "internalType": "address",
          "name": "_to",
          "type": "address"
        }
      ],
      "name": "bond",
      "outputs": [],
      "payable": false,
      "stateMutability": "nonpayable",
      "type": "function"
    },
    {
      "constant": false,
      "inputs": [
        {
          "internalType": "uint256",
          "name": "_unbondingLockId",
          "type": "uint256"
        }
      ],
      "name": "rebond",
      "outputs": [],
      "payable": false,
      "stateMutability": "nonpayable",
      "type": "function"
    },
    {
      "constant": false,
      "inputs": [
        {
          "internalType": "uint64",
          "name": "_unbondingPeriod",
          "type": "uint64"
        }
      ],
      "name": "setUnbondingPeriod",
      "outputs": [],
      "payable": false,
      "stateMutability": "nonpayable",
      "type": "function"
    },
    {
      "constant": true,
      "inputs": [
        {
          "internalType": "address",
          "name": "_delegator",
          "type": "address"
        },
        {
          "internalType": "uint256",
          "name": "_endRound",
          "type": "uint256"
        }
      ],
      "name": "pendingFees",
      "outputs": [
        {
          "internalType": "uint256",
          "name": "",
          "type": "uint256"
        }
      ],
      "payable": false,
      "stateMutability": "view",
      "type": "function"
    },
    {
      "constant": true,
      "inputs": [],
      "name": "controller",
      "outputs": [
        {
          "internalType": "contract IController",
          "name": "",
          "type": "address"
        }
      ],
      "payable": false,
      "stateMutability": "view",
      "type": "function"
    },
    {
      "inputs": [
        {
          "internalType": "address",
          "name": "_controller",
          "type": "address"
        }
      ],
      "payable": false,
      "stateMutability": "nonpayable",
      "type": "constructor"
    },
    {
      "anonymous": false,
      "inputs": [
        {
          "indexed": true,
          "internalType": "address",
          "name": "transcoder",
          "type": "address"
        },
        {
          "indexed": false,
          "internalType": "uint256",
          "name": "rewardCut",
          "type": "uint256"
        },
        {
          "indexed": false,
          "internalType": "uint256",
          "name": "feeShare",
          "type": "uint256"
        }
      ],
      "name": "TranscoderUpdate",
      "type": "event"
    },
    {
      "anonymous": false,
      "inputs": [
        {
          "indexed": true,
          "internalType": "address",
          "name": "transcoder",
          "type": "address"
        },
        {
          "indexed": false,
          "internalType": "uint256",
          "name": "activationRound",
          "type": "uint256"
        }
      ],
      "name": "TranscoderActivated",
      "type": "event"
    },
    {
      "anonymous": false,
      "inputs": [
        {
          "indexed": true,
          "internalType": "address",
          "name": "transcoder",
          "type": "address"
        },
        {
          "indexed": false,
          "internalType": "uint256",
          "name": "deactivationRound",
          "type": "uint256"
        }
      ],
      "name": "TranscoderDeactivated",
      "type": "event"
    },
    {
      "anonymous": false,
      "inputs": [
        {
          "indexed": true,
          "internalType": "address",
          "name": "transcoder",
          "type": "address"
        },
        {
          "indexed": false,
          "internalType": "address",
          "name": "finder",
          "type": "address"
        },
        {
          "indexed": false,
          "internalType": "uint256",
          "name": "penalty",
          "type": "uint256"
        },
        {
          "indexed": false,
          "internalType": "uint256",
          "name": "finderReward",
          "type": "uint256"
        }
      ],
      "name": "TranscoderSlashed",
      "type": "event"
    },
    {
      "anonymous": false,
      "inputs": [
        {
          "indexed": true,
          "internalType": "address",
          "name": "transcoder",
          "type": "address"
        },
        {
          "indexed": false,
          "internalType": "uint256",
          "name": "amount",
          "type": "uint256"
        }
      ],
      "name": "Reward",
      "type": "event"
    },
    {
      "anonymous": false,
      "inputs": [
        {
          "indexed": true,
          "internalType": "address",
          "name": "newDelegate",
          "type": "address"
        },
        {
          "indexed": true,
          "internalType": "address",
          "name": "oldDelegate",
          "type": "address"
        },
        {
          "indexed": true,
          "internalType": "address",
          "name": "delegator",
          "type": "address"
        },
        {
          "indexed": false,
          "internalType": "uint256",
          "name": "additionalAmount",
          "type": "uint256"
        },
        {
          "indexed": false,
          "internalType": "uint256",
          "name": "bondedAmount",
          "type": "uint256"
        }
      ],
      "name": "Bond",
      "type": "event"
    },
    {
      "anonymous": false,
      "inputs": [
        {
          "indexed": true,
          "internalType": "address",
          "name": "delegate",
          "type": "address"
        },
        {
          "indexed": true,
          "internalType": "address",
          "name": "delegator",
          "type": "address"
        },
        {
          "indexed": false,
          "internalType": "uint256",
          "name": "unbondingLockId",
          "type": "uint256"
        },
        {
          "indexed": false,
          "internalType": "uint256",
          "name": "amount",
          "type": "uint256"
        },
        {
          "indexed": false,
          "internalType": "uint256",
          "name": "withdrawRound",
          "type": "uint256"
        }
      ],
      "name": "Unbond",
      "type": "event"
    },
    {
      "anonymous": false,
      "inputs": [
        {
          "indexed": true,
          "internalType": "address",
          "name": "delegate",
          "type": "address"
        },
        {
          "indexed": true,
          "internalType": "address",
          "name": "delegator",
          "type": "address"
        },
        {
          "indexed": false,
          "internalType": "uint256",
          "name": "unbondingLockId",
          "type": "uint256"
        },
        {
          "indexed": false,
          "internalType": "uint256",
          "name": "amount",
          "type": "uint256"
        }
      ],
      "name": "Rebond",
      "type": "event"
    },
    {
      "anonymous": false,
      "inputs": [
        {
          "indexed": true,
          "internalType": "address",
          "name": "delegator",
          "type": "address"
        },
        {
          "indexed": false,
          "internalType": "uint256",
          "name": "unbondingLockId",
          "type": "uint256"
        },
        {
          "indexed": false,
          "internalType": "uint256",
          "name": "amount",
          "type": "uint256"
        },
        {
          "indexed": false,
          "internalType": "uint256",
          "name": "withdrawRound",
          "type": "uint256"
        }
      ],
      "name": "WithdrawStake",
      "type": "event"
    },
    {
      "anonymous": false,
      "inputs": [
        {
          "indexed": true,
          "internalType": "address",
          "name": "delegator",
          "type": "address"
        }
      ],
      "name": "WithdrawFees",
      "type": "event"
    },
    {
      "anonymous": false,
      "inputs": [
        {
          "indexed": true,
          "internalType": "address",
          "name": "delegate",
          "type": "address"
        },
        {
          "indexed": true,
          "internalType": "address",
          "name": "delegator",
          "type": "address"
        },
        {
          "indexed": false,
          "internalType": "uint256",
          "name": "rewards",
          "type": "uint256"
        },
        {
          "indexed": false,
          "internalType": "uint256",
          "name": "fees",
          "type": "uint256"
        },
        {
          "indexed": false,
          "internalType": "uint256",
          "name": "startRound",
          "type": "uint256"
        },
        {
          "indexed": false,
          "internalType": "uint256",
          "name": "endRound",
          "type": "uint256"
        }
      ],
      "name": "EarningsClaimed",
      "type": "event"
    },
    {
      "anonymous": false,
      "inputs": [
        {
          "indexed": false,
          "internalType": "address",
          "name": "controller",
          "type": "address"
        }
      ],
      "name": "SetController",
      "type": "event"
    },
    {
      "anonymous": false,
      "inputs": [
        {
          "indexed": false,
          "internalType": "string",
          "name": "param",
          "type": "string"
        }
      ],
      "name": "ParameterUpdate",
      "type": "event"
    }
  ],
  "bytecode": "0x608060405234801561001057600080fd5b5060405162004e7b38038062004e7b8339818101604052602081101561003557600080fd5b5051600080546001600160a01b039092166001600160a01b0319909216919091179055614e1380620000686000396000f3fe608060405234801561001057600080fd5b50600436106102955760003560e01c806351720b411161016757806388a6c749116100ce578063a64ad59511610087578063a64ad595146108d1578063b78d27dc14610937578063eaffb3f914610963578063f10d1de114610980578063f595f1cc146109a7578063f77c4791146109d357610295565b806388a6c749146107e75780638b2f1652146107ef57806392eefe9b146108255780639500ed9b1461084b5780639d0b2c7a1461087f5780639ef9df94146108ab57610295565b80636bd9add4116101205780636bd9add4146106ed5780636cf6d6751461073b578063713f22161461076057806372d9f13d146107685780637fc4606f1461078557806381871056146107b957610295565b806351720b41146106395780635a2a75a9146106415780635c50c356146106495780635dce994814610651578063673a456b146106aa57806368ba170c146106c757610295565b806325d5971f1161020b5780633c725cbb116101c45780633c725cbb146105b1578063412f83b6146105b95780634196ee75146105fe57806343d3461a14610606578063465501d314610629578063476343ee1461063157610295565b806325d5971f146104d757806327de9e32146104f45780632a4e0d55146105115780633550aa10146105195780633a080e93146105535780633aeb512c1461057f57610295565b80631544fc671161025d5780631544fc6714610375578063228cb733146103bf57806322bf9d7c146103c7578063235c96031461040357806324454fc41461044557806324b1babf146104ba57610295565b8063014ee2591461029a578063038424c3146102c95780630584a373146102d1578063088023741461030f5780630fd02fc114610349575b600080fd5b6102b7600480360360208110156102b057600080fd5b50356109db565b60408051918252519081900360200190f35b6102b76109f0565b61030d600480360360808110156102e757600080fd5b506001600160a01b038135811691602081013591604082013581169160600135166109f6565b005b6103356004803603602081101561032557600080fd5b50356001600160a01b0316610c6e565b604080519115158252519081900360200190f35b6103356004803603604081101561035f57600080fd5b506001600160a01b038135169060200135610d17565b61039b6004803603602081101561038b57600080fd5b50356001600160a01b0316610d4a565b604051808260028111156103ab57fe5b60ff16815260200191505060405180910390f35b61030d610dfd565b61030d600480360360808110156103dd57600080fd5b506001600160a01b03813581169160208101359091169060408101359060600135610e0a565b6104296004803603602081101561041957600080fd5b50356001600160a01b03166112d3565b604080516001600160a01b039092168252519081900360200190f35b6104716004803603604081101561045b57600080fd5b506001600160a01b03813516906020013561136a565b60408051998a5260208a0198909852888801969096526060880194909452608087019290925260a086015260c085015260e0840152151561010083015251908190036101200190f35b61030d600480360360208110156104d057600080fd5b50356113d1565b61030d600480360360208110156104ed57600080fd5b503561158e565b61030d6004803603602081101561050a57600080fd5b5035611852565b6102b7611861565b61030d6004803603608081101561052f57600080fd5b508035906020810135906001600160a01b03604082013581169160600135166118e6565b61030d6004803603604081101561056957600080fd5b506001600160a01b038135169060200135611d25565b61030d6004803603606081101561059557600080fd5b506001600160a01b038135169060208101359060400135611d32565b6102b7611edf565b6105e5600480360360408110156105cf57600080fd5b506001600160a01b038135169060200135611ee5565b6040805192835260208301919091528051918290030190f35b6102b7611f19565b61030d6004803603604081101561061c57600080fd5b5080359060200135611f1f565b6102b7611f2c565b61030d611f32565b6102b761219c565b6102b76121a2565b6102b76121f6565b6106776004803603602081101561066757600080fd5b50356001600160a01b03166121fc565b604080519687526020870195909552858501939093526060850191909152608084015260a0830152519081900360c00190f35b61030d600480360360208110156106c057600080fd5b5035612239565b610335600480360360208110156106dd57600080fd5b50356001600160a01b031661230d565b61030d600480360360c081101561070357600080fd5b508035906001600160a01b03602082013581169160408101358216916060820135811691608081013582169160a09091013516612345565b6107436127a4565b6040805167ffffffffffffffff9092168252519081900360200190f35b61030d6127b4565b61030d6004803603602081101561077e57600080fd5b50356128ac565b61030d6004803603606081101561079b57600080fd5b508035906001600160a01b036020820135811691604001351661291c565b61030d600480360360408110156107cf57600080fd5b506001600160a01b0381358116916020013516612ad3565b610429612dce565b6108156004803603602081101561080557600080fd5b50356001600160a01b0316612e22565b604051808260018111156103ab57fe5b61030d6004803603602081101561083b57600080fd5b50356001600160a01b0316612e42565b61030d6004803603606081101561086157600080fd5b508035906001600160a01b0360208201358116916040013516612e9e565b6102b76004803603604081101561089557600080fd5b506001600160a01b0381351690602001356132ef565b6102b7600480360360208110156108c157600080fd5b50356001600160a01b031661340d565b6108f7600480360360208110156108e757600080fd5b50356001600160a01b031661342b565b6040805197885260208801969096526001600160a01b03909416868601526060860192909252608085015260a084015260c0830152519081900360e00190f35b61030d6004803603604081101561094d57600080fd5b50803590602001356001600160a01b0316613477565b61030d6004803603602081101561097957600080fd5b5035613487565b61030d6004803603602081101561099657600080fd5b503567ffffffffffffffff16613493565b6102b7600480360360408110156109bd57600080fd5b506001600160a01b03813516906020013561350e565b610429613659565b600d6020526000908152604090206002015481565b60045481565b6109fe613668565b610a06613726565b6001600160a01b031663219bc76c6040518163ffffffff1660e01b815260040160206040518083038186803b158015610a3e57600080fd5b505afa158015610a52573d6000803e3d6000fd5b505050506040513d6020811015610a6857600080fd5b5051610aa9576040805162461bcd60e51b81526020600482018190526024820152600080516020614d97833981519152604482015290519081900360640190fd5b6000610ab3613726565b6001600160a01b0316638a19c8bc6040518163ffffffff1660e01b815260040160206040518083038186803b158015610aeb57600080fd5b505afa158015610aff573d6000803e3d6000fd5b505050506040513d6020811015610b1557600080fd5b50513360009081526005602052604090206006015490915081811015610b4057610b403383836137a3565b6002610b4b33610d4a565b6002811115610b5657fe5b14610ba8576040805162461bcd60e51b815260206004820152601760248201527f63616c6c6572206d75737420626520756e626f6e646564000000000000000000604482015290519081900360640190fd5b610c256001610bb5613726565b6001600160a01b0316638a19c8bc6040518163ffffffff1660e01b815260040160206040518083038186803b158015610bed57600080fd5b505afa158015610c01573d6000803e3d6000fd5b505050506040513d6020811015610c1757600080fd5b50519063ffffffff61398f16565b3360008181526005602052604090206004810192909255600290910180546001600160a01b0319166001600160a01b038916179055610c66908686866139e9565b505050505050565b6001600160a01b038116600090815260066020526040812081610c8f613726565b6001600160a01b0316638a19c8bc6040518163ffffffff1660e01b815260040160206040518083038186803b158015610cc757600080fd5b505afa158015610cdb573d6000803e3d6000fd5b505050506040513d6020811015610cf157600080fd5b505160098301549091508110801590610d0d575081600a015481105b925050505b919050565b6001600160a01b038216600090815260056020908152604080832084845260080190915290206001015415155b92915050565b6001600160a01b03811660009081526005602052604081208054610d72576002915050610d12565b610d7a613726565b6001600160a01b0316638a19c8bc6040518163ffffffff1660e01b815260040160206040518083038186803b158015610db257600080fd5b505afa158015610dc6573d6000803e3d6000fd5b505050506040513d6020811015610ddc57600080fd5b505160048201541115610df3576000915050610d12565b6001915050610d12565b610e08600080612ad3565b565b610e12613668565b60005460408051672b32b934b334b2b960c11b81528151908190036008018120631c2d8fb360e31b8252600482015290516001600160a01b039092169163e16c7d9891602480820192602092909190829003018186803b158015610e7557600080fd5b505afa158015610e89573d6000803e3d6000fd5b505050506040513d6020811015610e9f57600080fd5b50516001600160a01b03163314610efd576040805162461bcd60e51b815260206004820152601760248201527f63616c6c6572206d757374206265205665726966696572000000000000000000604482015290519081900360640190fd5b6001600160a01b038416600090815260056020526040902080541561127d576001600160a01b038516600090815260056020526040812054610f3f9085613b03565b6040805163b0138c4760e01b8152601060048201526001600160a01b0389166024820152905191925073__$d23c89be677d40ab24c636937040b6165f$__9163b0138c4791604480820192602092909190829003018186803b158015610fa457600080fd5b505af4158015610fb8573d6000803e3d6000fd5b505050506040513d6020811015610fce57600080fd5b505115610fde57610fde86613b28565b8154610ff0908263ffffffff613c2b16565b82556001610ffd87610d4a565b600281111561100857fe5b141561105f5760028201546001600160a01b031660009081526005602052604090206003015461103e908263ffffffff613c2b16565b60028301546001600160a01b03166000908152600560205260409020600301555b806001600160a01b038616156111c457600061107b8386613b03565b9050611085613c88565b6001600160a01b031663e7a49c2b88836040518363ffffffff1660e01b815260040180836001600160a01b03166001600160a01b0316815260200182815260200192505050600060405180830381600087803b1580156110e457600080fd5b505af11580156110f8573d6000803e3d6000fd5b50505050611104613c88565b6001600160a01b031663c7ee98c2611122848463ffffffff613c2b16565b6040518263ffffffff1660e01b815260040180828152602001915050600060405180830381600087803b15801561115857600080fd5b505af115801561116c573d6000803e3d6000fd5b5050604080516001600160a01b038b81168252602082018890528183018690529151918c1693507ff4b71fed8e2c9a8c67c388bc6d35ad20b9368a24eed6d565459f2b277b6c0c22925081900360600190a250611276565b6111cc613c88565b6001600160a01b031663c7ee98c2826040518263ffffffff1660e01b815260040180828152602001915050600060405180830381600087803b15801561121157600080fd5b505af1158015611225573d6000803e3d6000fd5b5050604080516000808252602082018790528183015290516001600160a01b038b1693507ff4b71fed8e2c9a8c67c388bc6d35ad20b9368a24eed6d565459f2b277b6c0c2292509081900360600190a25b50506112cc565b604080516001600160a01b038681168252600060208301819052828401529151918716917ff4b71fed8e2c9a8c67c388bc6d35ad20b9368a24eed6d565459f2b277b6c0c229181900360600190a25b5050505050565b6040805163e189dedb60e01b8152601060048201526001600160a01b0383166024820152905160009173__$d23c89be677d40ab24c636937040b6165f$__9163e189dedb91604480820192602092909190829003018186803b15801561133857600080fd5b505af415801561134c573d6000803e3d6000fd5b505050506040513d602081101561136257600080fd5b505192915050565b6001600160a01b03909116600090815260066020818152604080842094845260079485019091529091208054600182015460028301546003840154600485015460058601549686015497860154600890960154949893979296919590949193909160ff1690565b6113d9613668565b6113e1613726565b6001600160a01b031663219bc76c6040518163ffffffff1660e01b815260040160206040518083038186803b15801561141957600080fd5b505afa15801561142d573d6000803e3d6000fd5b505050506040513d602081101561144357600080fd5b5051611484576040805162461bcd60e51b81526020600482018190526024820152600080516020614d97833981519152604482015290519081900360640190fd5b336000908152600560205260409020600601548181106114d55760405162461bcd60e51b8152600401808060200182810382526028815260200180614db76028913960400191505060405180910390fd5b6114dd613726565b6001600160a01b0316638a19c8bc6040518163ffffffff1660e01b815260040160206040518083038186803b15801561151557600080fd5b505afa158015611529573d6000803e3d6000fd5b505050506040513d602081101561153f57600080fd5b505182111561157f5760405162461bcd60e51b8152600401808060200182810382526032815260200180614cce6032913960400191505060405180910390fd5b61158a3383836137a3565b5050565b611596613668565b61159e613726565b6001600160a01b031663219bc76c6040518163ffffffff1660e01b815260040160206040518083038186803b1580156115d657600080fd5b505afa1580156115ea573d6000803e3d6000fd5b505050506040513d602081101561160057600080fd5b5051611641576040805162461bcd60e51b81526020600482018190526024820152600080516020614d97833981519152604482015290519081900360640190fd5b33600081815260056020908152604080832085845260088101909252909120909161166c9084610d17565b6116b9576040805162461bcd60e51b81526020600482015260196024820152781a5b9d985b1a59081d5b989bdb991a5b99c81b1bd8dac81251603a1b604482015290519081900360640190fd5b6116c1613726565b6001600160a01b0316638a19c8bc6040518163ffffffff1660e01b815260040160206040518083038186803b1580156116f957600080fd5b505afa15801561170d573d6000803e3d6000fd5b505050506040513d602081101561172357600080fd5b5051600182015411156117675760405162461bcd60e51b815260040180806020018281038252603b815260200180614c93603b913960400191505060405180910390fd5b80546001808301546000868152600886016020526040812081815590920191909155611791613c88565b6001600160a01b031663e7a49c2b33846040518363ffffffff1660e01b815260040180836001600160a01b03166001600160a01b0316815260200182815260200192505050600060405180830381600087803b1580156117f057600080fd5b505af1158015611804573d6000803e3d6000fd5b5050604080518881526020810186905280820185905290513393507f1340f1a8f3d456a649e1a12071dfa15655e3d09252131d0f980c3b405cc8dd2e92509081900360600190a25050505050565b61185e81600080612e9e565b50565b6000601073__$d23c89be677d40ab24c636937040b6165f$__63b32ece5890916040518263ffffffff1660e01b81526004018082815260200191505060206040518083038186803b1580156118b557600080fd5b505af41580156118c9573d6000803e3d6000fd5b505050506040513d60208110156118df57600080fd5b5051905090565b6118ee613668565b6118f6613726565b6001600160a01b031663219bc76c6040518163ffffffff1660e01b815260040160206040518083038186803b15801561192e57600080fd5b505afa158015611942573d6000803e3d6000fd5b505050506040513d602081101561195857600080fd5b5051611999576040805162461bcd60e51b81526020600482018190526024820152600080516020614d97833981519152604482015290519081900360640190fd5b6119a1613726565b6001600160a01b0316636841f2536040518163ffffffff1660e01b815260040160206040518083038186803b1580156119d957600080fd5b505afa1580156119ed573d6000803e3d6000fd5b505050506040513d6020811015611a0357600080fd5b505115611a415760405162461bcd60e51b8152600401808060200182810382526037815260200180614d606037913960400191505060405180910390fd5b611a4a84613cea565b611a9b576040805162461bcd60e51b815260206004820152601c60248201527f696e76616c6964207265776172644375742070657263656e7461676500000000604482015290519081900360640190fd5b611aa483613cea565b611af5576040805162461bcd60e51b815260206004820152601b60248201527f696e76616c69642066656553686172652070657263656e746167650000000000604482015290519081900360640190fd5b611afe3361230d565b611b4f576040805162461bcd60e51b815260206004820152601d60248201527f7472616e73636f646572206d7573742062652072656769737465726564000000604482015290519081900360640190fd5b33600090815260066020526040812090611b67613726565b6001600160a01b0316638a19c8bc6040518163ffffffff1660e01b815260040160206040518083038186803b158015611b9f57600080fd5b505afa158015611bb3573d6000803e3d6000fd5b505050506040513d6020811015611bc957600080fd5b50519050611bd633610c6e565b1580611be25750815481145b611c1d5760405162461bcd60e51b815260040180806020018281038252604f815260200180614ba1604f913960600191505060405180910390fd5b60018201869055600282018590556040805163b0138c4760e01b815260106004820152336024820152905173__$d23c89be677d40ab24c636937040b6165f$__9163b0138c47916044808301926020929190829003018186803b158015611c8357600080fd5b505af4158015611c97573d6000803e3d6000fd5b505050506040513d6020811015611cad57600080fd5b5051611ce35733600081815260056020526040902060030154611ce39190611cdc84600163ffffffff61398f16565b8787613cf3565b6040805187815260208101879052815133927f7346854431dbb3eb8e373c604abf89e90f4865b8447e1e2834d7b3e4677bf544928290030190a2505050505050565b61158a82826000806109f6565b611d3a613668565b600054604080516b2a34b1b5b2ba213937b5b2b960a11b8152815190819003600c018120631c2d8fb360e31b8252600482015290516001600160a01b039092169163e16c7d9891602480820192602092909190829003018186803b158015611da157600080fd5b505afa158015611db5573d6000803e3d6000fd5b505050506040513d6020811015611dcb57600080fd5b50516001600160a01b03163314611e29576040805162461bcd60e51b815260206004820152601b60248201527f63616c6c6572206d757374206265205469636b657442726f6b65720000000000604482015290519081900360640190fd5b611e328361230d565b611e83576040805162461bcd60e51b815260206004820152601d60248201527f7472616e73636f646572206d7573742062652072656769737465726564000000604482015290519081900360640190fd5b6001600160a01b0383166000908152600660209081526040808320848452600781019092529091208154831115611ecf5760018201546002830154611ecf91839163ffffffff61404416565b6112cc818563ffffffff61406116565b60035481565b6001600160a01b03919091166000908152600560209081526040808320938352600890930190522080546001909101549091565b600e5481565b61158a82826000806118e6565b600f5481565b611f3a613668565b611f42613726565b6001600160a01b031663219bc76c6040518163ffffffff1660e01b815260040160206040518083038186803b158015611f7a57600080fd5b505afa158015611f8e573d6000803e3d6000fd5b505050506040513d6020811015611fa457600080fd5b5051611fe5576040805162461bcd60e51b81526020600482018190526024820152600080516020614d97833981519152604482015290519081900360640190fd5b6000611fef613726565b6001600160a01b0316638a19c8bc6040518163ffffffff1660e01b815260040160206040518083038186803b15801561202757600080fd5b505afa15801561203b573d6000803e3d6000fd5b505050506040513d602081101561205157600080fd5b5051336000908152600560205260409020600601549091508181101561207c5761207c3383836137a3565b336000908152600560205260409020600101546120d6576040805162461bcd60e51b81526020600482015260136024820152726e6f206665657320746f20776974686472617760681b604482015290519081900360640190fd5b33600090815260056020526040812060010180549190556120f5613c88565b6001600160a01b03166320283da933836040518363ffffffff1660e01b815260040180836001600160a01b03166001600160a01b0316815260200182815260200192505050600060405180830381600087803b15801561215457600080fd5b505af1158015612168573d6000803e3d6000fd5b50506040513392507fd3719f04262b628e1d01a6ed24707f542cda51f144b5271149c7d0419436d00c9150600090a2505050565b60015481565b6000601073__$d23c89be677d40ab24c636937040b6165f$__63735bc2ca90916040518263ffffffff1660e01b81526004018082815260200191505060206040518083038186803b1580156118b557600080fd5b600e5490565b6001600160a01b0316600090815260066020526040902080546001820154600283015460088401546009850154600a909501549395929491939092565b6122416140e8565b6040805163a176adaf60e01b81526010600482015260248101839052905173__$d23c89be677d40ab24c636937040b6165f$__9163a176adaf916044808301926000929190829003018186803b15801561229a57600080fd5b505af41580156122ae573d6000803e3d6000fd5b5050604080516020808252601490820152736e756d4163746976655472616e73636f6465727360601b8183015290517f9f5033568d78ae30f29f01e944f97b2216493bd19d1b46d429673acff3dcd6749350908190036060019150a150565b6001600160a01b038082166000818152600560205260408120600281015491939092911614801561233e5750805415155b9392505050565b61234d613668565b612355613726565b6001600160a01b031663219bc76c6040518163ffffffff1660e01b815260040160206040518083038186803b15801561238d57600080fd5b505afa1580156123a1573d6000803e3d6000fd5b505050506040513d60208110156123b757600080fd5b50516123f8576040805162461bcd60e51b81526020600482018190526024820152600080516020614d97833981519152604482015290519081900360640190fd5b6000612402613726565b6001600160a01b0316638a19c8bc6040518163ffffffff1660e01b815260040160206040518083038186803b15801561243a57600080fd5b505afa15801561244e573d6000803e3d6000fd5b505050506040513d602081101561246457600080fd5b5051336000908152600560205260409020600601549091508181101561248f5761248f3383836137a3565b336000908152600560205260408120906124a7613726565b6001600160a01b0316638a19c8bc6040518163ffffffff1660e01b815260040160206040518083038186803b1580156124df57600080fd5b505afa1580156124f3573d6000803e3d6000fd5b505050506040513d602081101561250957600080fd5b50516002808401549192508b916001600160a01b03169061252933610d4a565b600281111561253457fe5b14156125555761254b83600163ffffffff61398f16565b6004850155612604565b6001600160a01b0381161580159061257f57508a6001600160a01b0316816001600160a01b031614155b156126045761258d3361230d565b156125c95760405162461bcd60e51b815260040180806020018281038252603d815260200180614d00603d913960400191505060405180910390fd5b6125da83600163ffffffff61398f16565b600485015583546125f290839063ffffffff61398f16565b91506126048185600001548c8c6141bd565b600082116126435760405162461bcd60e51b8152600401808060200182810382526028815260200180614c6b6028913960400191505060405180910390fd5b6002840180546001600160a01b0319166001600160a01b038d16179055835461266c908d61398f565b845561267a8b838a8a6143ba565b8b15612735576126886145b0565b6001600160a01b03166323b872dd3361269f613c88565b8f6040518463ffffffff1660e01b815260040180846001600160a01b03166001600160a01b03168152602001836001600160a01b03166001600160a01b031681526020018281526020019350505050602060405180830381600087803b15801561270857600080fd5b505af115801561271c573d6000803e3d6000fd5b505050506040513d602081101561273257600080fd5b50505b336001600160a01b0316816001600160a01b03168c6001600160a01b03167fe5917769f276ddca9f2ee7c6b0b33e1d1e1b61008010ce622c632dd20d168a238f8860000154604051808381526020018281526020019250505060405180910390a4505050505050505050505050565b60025467ffffffffffffffff1681565b600054604080516c2937bab73239a6b0b730b3b2b960991b8152815190819003600d018120631c2d8fb360e31b8252600482015290516001600160a01b039092169163e16c7d9891602480820192602092909190829003018186803b15801561281c57600080fd5b505afa158015612830573d6000803e3d6000fd5b505050506040513d602081101561284657600080fd5b50516001600160a01b031633146128a4576040805162461bcd60e51b815260206004820152601c60248201527f63616c6c6572206d75737420626520526f756e64734d616e6167657200000000604482015290519081900360640190fd5b600f54600e55565b6128b46140e8565b60048190556040805160208082526017908201527f6d61784561726e696e6773436c61696d73526f756e64730000000000000000008183015290517f9f5033568d78ae30f29f01e944f97b2216493bd19d1b46d429673acff3dcd6749181900360600190a150565b612924613668565b61292c613726565b6001600160a01b031663219bc76c6040518163ffffffff1660e01b815260040160206040518083038186803b15801561296457600080fd5b505afa158015612978573d6000803e3d6000fd5b505050506040513d602081101561298e57600080fd5b50516129cf576040805162461bcd60e51b81526020600482018190526024820152600080516020614d97833981519152604482015290519081900360640190fd5b60006129d9613726565b6001600160a01b0316638a19c8bc6040518163ffffffff1660e01b815260040160206040518083038186803b158015612a1157600080fd5b505afa158015612a25573d6000803e3d6000fd5b505050506040513d6020811015612a3b57600080fd5b50513360009081526005602052604090206006015490915081811015612a6657612a663383836137a3565b6002612a7133610d4a565b6002811115612a7c57fe5b1415612ac7576040805162461bcd60e51b815260206004820152601560248201527418d85b1b195c881b5d5cdd08189948189bdb991959605a1b604482015290519081900360640190fd5b6112cc338686866139e9565b612adb613668565b612ae3613726565b6001600160a01b031663219bc76c6040518163ffffffff1660e01b815260040160206040518083038186803b158015612b1b57600080fd5b505afa158015612b2f573d6000803e3d6000fd5b505050506040513d6020811015612b4557600080fd5b5051612b86576040805162461bcd60e51b81526020600482018190526024820152600080516020614d97833981519152604482015290519081900360640190fd5b6000612b90613726565b6001600160a01b0316638a19c8bc6040518163ffffffff1660e01b815260040160206040518083038186803b158015612bc857600080fd5b505afa158015612bdc573d6000803e3d6000fd5b505050506040513d6020811015612bf257600080fd5b50519050612bff33610c6e565b612c3a5760405162461bcd60e51b8152600401808060200182810382526023815260200180614d3d6023913960400191505060405180910390fd5b33600090815260066020526040902054811415612c885760405162461bcd60e51b8152600401808060200182810382526036815260200180614c146036913960400191505060405180910390fd5b3360009081526006602090815260408083208484526007810190925290912082825560018201546002830154612cc591839163ffffffff61404416565b600882015483811015612cf7576000818152600784016020526040902060020154612cf790839063ffffffff61461916565b6000612d01613c88565b6001600160a01b0316637dbedad58460020154600e546040518363ffffffff1660e01b81526004018083815260200182815260200192505050602060405180830381600087803b158015612d5457600080fd5b505af1158015612d68573d6000803e3d6000fd5b505050506040513d6020811015612d7e57600080fd5b50519050612d8f3382878a8a614628565b60408051828152905133917f619caafabdd75649b302ba8419e48cccf64f37f1983ac4727cfb38b57703ffc9919081900360200190a250505050505050565b6000601073__$d23c89be677d40ab24c636937040b6165f$__632ebb2fed90916040518263ffffffff1660e01b81526004018082815260200191505060206040518083038186803b1580156118b557600080fd5b6000612e2d8261230d565b15612e3a57506001610d12565b506000919050565b612e4a61466a565b600080546001600160a01b0383166001600160a01b0319909116811790915560408051918252517f4ff638452bbf33c012645d18ae6f05515ff5f2d1dfb0cece8cbf018c60903f709181900360200190a150565b612ea6613668565b612eae613726565b6001600160a01b031663219bc76c6040518163ffffffff1660e01b815260040160206040518083038186803b158015612ee657600080fd5b505afa158015612efa573d6000803e3d6000fd5b505050506040513d6020811015612f1057600080fd5b5051612f51576040805162461bcd60e51b81526020600482018190526024820152600080516020614d97833981519152604482015290519081900360640190fd5b6000612f5b613726565b6001600160a01b0316638a19c8bc6040518163ffffffff1660e01b815260040160206040518083038186803b158015612f9357600080fd5b505afa158015612fa7573d6000803e3d6000fd5b505050506040513d6020811015612fbd57600080fd5b50513360009081526005602052604090206006015490915081811015612fe857612fe83383836137a3565b6001612ff333610d4a565b6002811115612ffe57fe5b14613048576040805162461bcd60e51b815260206004820152601560248201527418d85b1b195c881b5d5cdd08189948189bdb991959605a1b604482015290519081900360640190fd5b336000908152600560205260409020856130935760405162461bcd60e51b8152600401808060200182810382526024815260200180614b7d6024913960400191505060405180910390fd5b80548611156130d35760405162461bcd60e51b8152600401808060200182810382526024815260200180614bf06024913960400191505060405180910390fd5b60028101546001600160a01b031660006130eb613726565b6001600160a01b0316638a19c8bc6040518163ffffffff1660e01b815260040160206040518083038186803b15801561312357600080fd5b505afa158015613137573d6000803e3d6000fd5b505050506040513d602081101561314d57600080fd5b505160025490915060009061317390839067ffffffffffffffff1663ffffffff61398f16565b60078501546040805180820182528c81526020808201858152600085815260088b01909252929020905181559051600191820155919250906131bc90829063ffffffff61398f16565b600786015584546131d3908b63ffffffff613c2b16565b80865561328a576002850180546001600160a01b031916905560006004808701919091556040805163b0138c4760e01b81526010928101929092523360248301525173__$d23c89be677d40ab24c636937040b6165f$__9163b0138c47916044808301926020929190829003018186803b15801561325057600080fd5b505af4158015613264573d6000803e3d6000fd5b505050506040513d602081101561327a57600080fd5b50511561328a5761328a33613b28565b613296848b8b8b6141bd565b60408051828152602081018c9052808201849052905133916001600160a01b038716917f2d5d98d189bee5496a08db2a5948cb7e5e786f09d17d0c3f228eb41776c24a069181900360600190a350505050505050505050565b6000806132fa613726565b6001600160a01b0316638a19c8bc6040518163ffffffff1660e01b815260040160206040518083038186803b15801561333257600080fd5b505afa158015613346573d6000803e3d6000fd5b505050506040513d602081101561335c57600080fd5b50519050828181111561336c5750805b6001600160a01b0385166000908152600560205260409020805460068201546001015b8681116134025760028301546001600160a01b0390811660008181526006602090815260408083208684526007019091529020918a16146133cf826146c9565b156133f8576133f56133e883868463ffffffff6146d216565b859063ffffffff61398f16565b93505b505060010161338f565b509695505050505050565b6001600160a01b031660009081526005602052604090206003015490565b6001600160a01b03908116600090815260056020526040902080546001820154600283015460038401546004850154600686015460079096015494979396929092169490939192909190565b61158a8282600080600080612345565b61185e8160008061291c565b61349b6140e8565b6002805467ffffffffffffffff191667ffffffffffffffff8316179055604080516020808252600f908201526e1d5b989bdb991a5b99d4195c9a5bd9608a1b8183015290517f9f5033568d78ae30f29f01e944f97b2216493bd19d1b46d429673acff3dcd674916060908290030190a150565b600080613519613726565b6001600160a01b0316638a19c8bc6040518163ffffffff1660e01b815260040160206040518083038186803b15801561355157600080fd5b505afa158015613565573d6000803e3d6000fd5b505050506040513d602081101561357b57600080fd5b50519050828181111561358b5750805b6001600160a01b03851660009081526005602052604090206001808201548254600684015491929091015b87811161364c5760028401546001600160a01b0316600090815260066020908152604080832084845260070190915290206135f0816146c9565b156136435760028501546001600160a01b038b811691161461362961361c83868463ffffffff61472616565b869063ffffffff61398f16565b945061363f6133e883868463ffffffff6146d216565b9350505b506001016135b6565b5090979650505050505050565b6000546001600160a01b031681565b6000809054906101000a90046001600160a01b03166001600160a01b0316635c975abb6040518163ffffffff1660e01b815260040160206040518083038186803b1580156136b557600080fd5b505afa1580156136c9573d6000803e3d6000fd5b505050506040513d60208110156136df57600080fd5b505115610e08576040805162461bcd60e51b815260206004820152601060248201526f1cde5cdd195b481a5cc81c185d5cd95960821b604482015290519081900360640190fd5b60008054604080516c2937bab73239a6b0b730b3b2b960991b8152815190819003600d018120631c2d8fb360e31b8252600482015290516001600160a01b039092169163e16c7d9891602480820192602092909190829003018186803b15801561378f57600080fd5b505afa1580156118c9573d6000803e3d6000fd5b6001600160a01b0383166000908152600560205260408120906137cd83600163ffffffff61398f16565b82546001840154600285015492935090916001600160a01b0316156138f5576004546137ff878763ffffffff613c2b16565b1115613852576040805162461bcd60e51b815260206004820181905260248201527f746f6f206d616e7920726f756e647320746f20636c61696d207468726f756768604482015290519081900360640190fd5b825b8681116138f35760028501546001600160a01b03166000908152600660209081526040808320848452600701909152902061388e816146c9565b156138ea57600286015460009081906138be90849088906001600160a01b038f811691161463ffffffff61475016565b90925090506138d3858363ffffffff61398f16565b94506138e5868263ffffffff61398f16565b955050505b50600101613854565b505b600284015484546001600160a01b03808a169216907fd7eab0765b772ea6ea859d5633baf737502198012e930f257f90013d9b2110949061393d90869063ffffffff613c2b16565b600188015461395390869063ffffffff613c2b16565b604080519283526020830191909152818101889052606082018b9052519081900360800190a36006840195909555825550600101919091555050565b60008282018381101561233e576040805162461bcd60e51b815260206004820152601b60248201527f536166654d6174683a206164646974696f6e206f766572666c6f770000000000604482015290519081900360640190fd5b6001600160a01b038416600090815260056020908152604080832086845260088101909252909120613a1b8686610d17565b613a68576040805162461bcd60e51b81526020600482015260196024820152781a5b9d985b1a59081d5b989bdb991a5b99c81b1bd8dac81251603a1b604482015290519081900360640190fd5b80548254613a7c908263ffffffff61398f16565b835560008681526008840160205260408120818155600101556002830154613aaf906001600160a01b03168287876143ba565b6002830154604080518881526020810184905281516001600160a01b03808c169416927f9f5b64cc71e1e26ff178caaa7877a04d8ce66fde989251870e80e6fbee690c17928290030190a350505050505050565b600061233e620f4240613b1c858563ffffffff61489c16565b9063ffffffff6148f516565b60408051635d35e00760e01b8152601060048201526001600160a01b0383166024820152905173__$d23c89be677d40ab24c636937040b6165f$__91635d35e007916044808301926000929190829003018186803b158015613b8957600080fd5b505af4158015613b9d573d6000803e3d6000fd5b50505050613bbc613bad8261340d565b600f549063ffffffff613c2b16565b600f556000613bce6001610bb5613726565b6001600160a01b038316600081815260066020908152604091829020600a018490558151848152915193945091927ffee3e693fc72d0a0a673805f3e606c551f4c677b9072444b90dd2d0406bc995c929181900390910190a25050565b600082821115613c82576040805162461bcd60e51b815260206004820152601e60248201527f536166654d6174683a207375627472616374696f6e206f766572666c6f770000604482015290519081900360640190fd5b50900390565b60008054604080516526b4b73a32b960d11b81528151908190036006018120631c2d8fb360e31b8252600482015290516001600160a01b039092169163e16c7d9891602480820192602092909190829003018186803b15801561378f57600080fd5b620f4240101590565b600f54604080516304aa129960e41b815260106004820152905173__$d23c89be677d40ab24c636937040b6165f$__91634aa12990916024808301926020929190829003018186803b158015613d4857600080fd5b505af4158015613d5c573d6000803e3d6000fd5b505050506040513d6020811015613d7257600080fd5b505115613f02576000601073__$d23c89be677d40ab24c636937040b6165f$__6372e40b2690916040518263ffffffff1660e01b81526004018082815260200191505060206040518083038186803b158015613dcd57600080fd5b505af4158015613de1573d6000803e3d6000fd5b505050506040513d6020811015613df757600080fd5b505190506000613e068261340d565b9050808711613e17575050506112cc565b60408051635d35e00760e01b8152601060048201526001600160a01b0384166024820152905173__$d23c89be677d40ab24c636937040b6165f$__91635d35e007916044808301926000929190829003018186803b158015613e7857600080fd5b505af4158015613e8c573d6000803e3d6000fd5b5050506001600160a01b0383166000908152600660205260409020600a0187905550613ebe838263ffffffff613c2b16565b6040805188815290519194506001600160a01b038416917ffee3e693fc72d0a0a673805f3e606c551f4c677b9072444b90dd2d0406bc995c9181900360200190a250505b604080516327dd54d360e11b8152601060048201526001600160a01b03808916602483015260448201889052808616606483015284166084820152905173__$d23c89be677d40ab24c636937040b6165f$__91634fbaa9a69160a4808301926000929190829003018186803b158015613f7a57600080fd5b505af4158015613f8e573d6000803e3d6000fd5b50505050613fa5858261398f90919063ffffffff16565b6001600160a01b03871660009081526006602090815260408083206008810189905560098101899055600019600a8201558884526007810190925290912091925090613ff7908763ffffffff61461916565b600f8290556040805186815290516001600160a01b038916917f65d72d782835d64c3287844a829608d5abdc7e864cc9affe96d910ab3db665e9919081900360200190a250505050505050565b60048301919091556005820155600801805460ff19166001179055565b600882015460ff16156140ca57600061407e828460050154613b03565b6001840154909150614096908263ffffffff61398f16565b60018401556140bf6140ae838363ffffffff613c2b16565b60078501549063ffffffff61398f16565b60078401555061158a565b60018201546140df908263ffffffff61398f16565b60018301555050565b6000809054906101000a90046001600160a01b03166001600160a01b0316638da5cb5b6040518163ffffffff1660e01b815260040160206040518083038186803b15801561413557600080fd5b505afa158015614149573d6000803e3d6000fd5b505050506040513d602081101561415f57600080fd5b50516001600160a01b03163314610e08576040805162461bcd60e51b815260206004820152601f60248201527f63616c6c6572206d75737420626520436f6e74726f6c6c6572206f776e657200604482015290519081900360640190fd5b6040805163b0138c4760e01b8152601060048201526001600160a01b0386166024820152905173__$d23c89be677d40ab24c636937040b6165f$__9163b0138c47916044808301926020929190829003018186803b15801561421e57600080fd5b505af4158015614232573d6000803e3d6000fd5b505050506040513d602081101561424857600080fd5b50511561436957600061426a8461425e8761340d565b9063ffffffff613c2b16565b9050600061427b6001610bb5613726565b60408051631c11bf7f60e11b8152601060048201526001600160a01b03808a16602483015260448201869052808816606483015286166084820152905191925073__$d23c89be677d40ab24c636937040b6165f$__916338237efe9160a480820192600092909190829003018186803b1580156142f757600080fd5b505af415801561430b573d6000803e3d6000fd5b5050600f54614323925090508663ffffffff613c2b16565b600f556001600160a01b03861660009081526006602090815260408083206008810185905584845260078101909252909120614365908463ffffffff61461916565b5050505b6001600160a01b038416600090815260056020526040902060030154614395908463ffffffff613c2b16565b6001600160a01b03909416600090815260056020526040902060030193909355505050565b6143c38461230d565b156145845760006143e3846143d78761340d565b9063ffffffff61398f16565b905060006143f46001610bb5613726565b6040805163b0138c4760e01b8152601060048201526001600160a01b0389166024820152905191925073__$d23c89be677d40ab24c636937040b6165f$__9163b0138c4791604480820192602092909190829003018186803b15801561445957600080fd5b505af415801561446d573d6000803e3d6000fd5b505050506040513d602081101561448357600080fd5b5051156145745760408051631c11bf7f60e11b8152601060048201526001600160a01b03808916602483015260448201859052808716606483015285166084820152905173__$d23c89be677d40ab24c636937040b6165f$__916338237efe9160a4808301926000929190829003018186803b15801561450257600080fd5b505af4158015614516573d6000803e3d6000fd5b5050600f5461452e925090508663ffffffff61398f16565b600f556001600160a01b038616600090815260066020908152604080832084845260078101909252909120614569908463ffffffff61461916565b600801819055614581565b6145818683838787613cf3565b50505b6001600160a01b038416600090815260056020526040902060030154614395908463ffffffff61398f16565b60008054604080516c2634bb32b832b2b92a37b5b2b760991b8152815190819003600d018120631c2d8fb360e31b8252600482015290516001600160a01b039092169163e16c7d9891602480820192602092909190829003018186803b15801561378f57600080fd5b60028201819055600390910155565b6001600160a01b0385166000908152600660209081526040808320868452600701909152902061465e818663ffffffff61495f16565b610c66868685856143ba565b6000546001600160a01b03163314610e08576040805162461bcd60e51b815260206004820152601960248201527f63616c6c6572206d75737420626520436f6e74726f6c6c657200000000000000604482015290519081900360640190fd5b60030154151590565b60088301546000908190819060ff16156146fb576146f18686866149d9565b909250905061470c565b614706868686614a26565b90925090505b61471c828263ffffffff61398f16565b9695505050505050565b60088301546000908190819060ff1615614745576146f1868686614a8e565b614706868686614ad6565b6008830154600090819081908190819081908190819060ff16156147fb576147798b8b8b614a8e565b909450925061478e848463ffffffff61398f16565b955061479b8b8b8b6149d9565b90925090506147b0828263ffffffff61398f16565b60018c01549095506147c8908563ffffffff613c2b16565b60018c01558a546147df908363ffffffff613c2b16565b8b5588156147f657600060078c0181905560068c01555b61486f565b6148068b8b8b614ad6565b909450925061481b848463ffffffff61398f16565b95506148288b8b8b614a26565b909250905061483d828263ffffffff61398f16565b60018c0154909550614855908763ffffffff613c2b16565b60018c01558a5461486c908663ffffffff613c2b16565b8b555b60038b0154614884908b63ffffffff613c2b16565b60038c0155509395509193505050505b935093915050565b6000826148ab57506000610d44565b828202828482816148b857fe5b041461233e5760405162461bcd60e51b8152600401808060200182810382526021815260200180614c4a6021913960400191505060405180910390fd5b600080821161494b576040805162461bcd60e51b815260206004820152601a60248201527f536166654d6174683a206469766973696f6e206279207a65726f000000000000604482015290519081900360640190fd5b600082848161495657fe5b04949350505050565b600882015460ff16156149c157600061497c828460040154613b03565b905061499f614991838363ffffffff613c2b16565b84549063ffffffff61398f16565b835560068301546149b6908263ffffffff61398f16565b60068401555061158a565b81546149d3908263ffffffff61398f16565b82555050565b6000806000808660030154116149f0576000614a03565b614a038660000154868860030154614b38565b905083614a1257806000614a19565b8086600601545b9250925050935093915050565b600383015460009081908190819015614a7257614a4b87600001548860040154613b03565b8754909250614a6f90614a64908463ffffffff613c2b16565b878960030154614b38565b90505b8415614a815792509050614894565b9250600091506148949050565b600080600080866003015411614aa5576000614ab8565b614ab88660010154868860030154614b38565b905083614ac757806000614a19565b60079095015494959350505050565b600383015460009081908190819015614a72576000614afd88600101548960050154613b03565b6001890154909150614b15908263ffffffff613c2b16565b9250614b2681888a60030154614b38565b9150508415614a815792509050614894565b6000614b5b620f4240613b1c614b4e8686614b63565b879063ffffffff61489c16565b949350505050565b600061233e82613b1c85620f424063ffffffff61489c1656fe756e626f6e6420616d6f756e74206d7573742062652067726561746572207468616e203063616c6c65722063616e277420626520616374697665206f72206d757374206861766520616c72656164792063616c6c65642072657761726420666f72207468652063757272656e7420726f756e64616d6f756e742069732067726561746572207468616e20626f6e64656420616d6f756e7463616c6c65722068617320616c72656164792063616c6c65642072657761726420666f72207468652063757272656e7420726f756e64536166654d6174683a206d756c7469706c69636174696f6e206f766572666c6f7764656c65676174696f6e20616d6f756e74206d7573742062652067726561746572207468616e2030776974686472617720726f756e64206d757374206265206265666f7265206f7220657175616c20746f207468652063757272656e7420726f756e64656e6420726f756e64206d757374206265206265666f7265206f7220657175616c20746f2063757272656e7420726f756e6472656769737465726564207472616e73636f646572732063616e27742064656c656761746520746f7761726473206f746865722061646472657373657363616c6c6572206d75737420626520616e20616374697665207472616e73636f64657263616e277420757064617465207472616e73636f64657220706172616d732c2063757272656e7420726f756e64206973206c6f636b656463757272656e7420726f756e64206973206e6f7420696e697469616c697a6564656e6420726f756e64206d757374206265206166746572206c61737420636c61696d20726f756e64a265627a7a72315820d72208b1de155d9dfcfa029b93f99a56adf24cd1c1c78d1e72ecc38a8b38bb0f64736f6c634300050b0032",
  "linkReferences": {
    "contracts/libraries/SortedDoublyLL.sol": {
      "SortedDoublyLL": [
        {
          "length": 20,
          "start": 4050
        },
        {
          "length": 20,
          "start": 4966
        },
        {
          "length": 20,
          "start": 6351
        },
        {
          "length": 20,
          "start": 7346
        },
        {
          "length": 20,
          "start": 8720
        },
        {
          "length": 20,
          "start": 8905
        },
        {
          "length": 20,
          "start": 11836
        },
        {
          "length": 20,
          "start": 12927
        },
        {
          "length": 20,
          "start": 15288
        },
        {
          "length": 20,
          "start": 15735
        },
        {
          "length": 20,
          "start": 15847
        },
        {
          "length": 20,
          "start": 16039
        },
        {
          "length": 20,
          "start": 16297
        },
        {
          "length": 20,
          "start": 16973
        },
        {
          "length": 20,
          "start": 17189
        },
        {
          "length": 20,
          "start": 17543
        },
        {
          "length": 20,
          "start": 17713
        }
      ]
    }
  },
  "deployedLinkReferences": {
    "contracts/libraries/SortedDoublyLL.sol": {
      "SortedDoublyLL": [
        {
          "length": 20,
          "start": 3946
        },
        {
          "length": 20,
          "start": 4862
        },
        {
          "length": 20,
          "start": 6247
        },
        {
          "length": 20,
          "start": 7242
        },
        {
          "length": 20,
          "start": 8616
        },
        {
          "length": 20,
          "start": 8801
        },
        {
          "length": 20,
          "start": 11732
        },
        {
          "length": 20,
          "start": 12823
        },
        {
          "length": 20,
          "start": 15184
        },
        {
          "length": 20,
          "start": 15631
        },
        {
          "length": 20,
          "start": 15743
        },
        {
          "length": 20,
          "start": 15935
        },
        {
          "length": 20,
          "start": 16193
        },
        {
          "length": 20,
          "start": 16869
        },
        {
          "length": 20,
          "start": 17085
        },
        {
          "length": 20,
          "start": 17439
        },
        {
          "length": 20,
          "start": 17609
        }
      ]
    }
  }
}