{
  "_format": "hh-sol-artifact-1",
  "contractName": "CommonTest",
  "sourceName": "contracts/test/libraries/CommonTest.sol",
  "abi": [
    {
      "inputs": [],
      "stateMutability": "nonpayable",
      "type": "constructor"
    },
    {
      "inputs": [
        {
          "internalType": "address[]",
          "name": "arr",
          "type": "address[]"
        }
      ],
      "name": "bubbleSort",
      "outputs": [
        {
          "internalType": "address[]",
          "name": "",
          "type": "address[]"
        }
      ],
      "stateMutability": "pure",
      "type": "function"
    },
    {
      "inputs": [
        {
          "internalType": "address",
          "name": "addr",
          "type": "address"
        }
      ],
      "name": "isContractTest",
      "outputs": [
        {
          "internalType": "bool",
          "name": "",
          "type": "bool"
        }
      ],
      "stateMutability": "view",
      "type": "function"
    },
    {
      "inputs": [
        {
          "internalType": "address[]",
          "name": "tokens",
          "type": "address[]"
        }
      ],
      "name": "isSortedAndUnique",
      "outputs": [
        {
          "internalType": "bool",
          "name": "",
          "type": "bool"
        }
      ],
      "stateMutability": "pure",
      "type": "function"
    },
    {
      "inputs": [
        {
          "internalType": "address[]",
          "name": "tokens",
          "type": "address[]"
        },
        {
          "internalType": "address[]",
          "name": "tokensToProject",
          "type": "address[]"
        },
        {
          "internalType": "uint256[]",
          "name": "tokenAmountsToProject",
          "type": "uint256[]"
        }
      ],
      "name": "projectTokenAmountsTest",
      "outputs": [
        {
          "internalType": "uint256[]",
          "name": "",
          "type": "uint256[]"
        }
      ],
      "stateMutability": "pure",
      "type": "function"
    },
    {
      "inputs": [
        {
          "internalType": "uint256[]",
          "name": "amounts",
          "type": "uint256[]"
        },
        {
          "internalType": "uint256[][]",
          "name": "weights",
          "type": "uint256[][]"
        }
      ],
      "name": "splitAmountsTest",
      "outputs": [
        {
          "internalType": "uint256[][]",
          "name": "",
          "type": "uint256[][]"
        }
      ],
      "stateMutability": "pure",
      "type": "function"
    }
  ],
  "bytecode": "0x608060405234801561001057600080fd5b50610e57806100206000396000f3fe608060405234801561001057600080fd5b50600436106100575760003560e01c80633ccac1b81461005c578063b3a7234914610085578063ccba52a3146100a8578063f5dff2bc146100c8578063fb7f8bb5146100db575b600080fd5b61006f61006a366004610a30565b6100fb565b60405161007c9190610b05565b60405180910390f35b610098610093366004610bab565b61010e565b604051901515815260200161007c565b6100bb6100b6366004610c28565b610121565b60405161007c9190610cb0565b6100986100d6366004610cf4565b610136565b6100ee6100e9366004610cf4565b610141565b60405161007c9190610d29565b60606101078383610150565b9392505050565b6000813b63ffffffff1615155b92915050565b606061012e848484610564565b949350505050565b600061011b82610786565b606061014c8261082b565b5090565b8051606090806101945760405162461bcd60e51b815260040161018b9060208082526004908201526304b4754360e41b604082015260600190565b60405180910390fd5b8351806101cc5760405162461bcd60e51b815260040161018b9060208082526004908201526304e4754360e41b604082015260600190565b60008167ffffffffffffffff8111156101e7576101e7610965565b604051908082528060200260200182016040528015610210578160200160208202803683370190505b50905060005b8381101561027e578286828151811061023157610231610d6a565b6020026020010151511461026c5760405162461bcd60e51b8152602060048201526002602482015261272b60f11b604482015260640161018b565b8061027681610d96565b915050610216565b5060005b8281101561033657600082828151811061029e5761029e610d6a565b60200260200101818152505060005b84811015610323578681815181106102c7576102c7610d6a565b602002602001015182815181106102e0576102e0610d6a565b60200260200101518383815181106102fa576102fa610d6a565b6020026020010181815161030e9190610db1565b9052508061031b81610d96565b9150506102ad565b508061032e81610d96565b915050610282565b5060008367ffffffffffffffff81111561035257610352610965565b60405190808252806020026020018201604052801561038557816020015b60608152602001906001900390816103705790505b50905060005b84811015610559578367ffffffffffffffff8111156103ac576103ac610965565b6040519080825280602002602001820160405280156103d5578160200160208202803683370190505b508282815181106103e8576103e8610d6a565b602002602001018190525060005b848110156105465783818151811061041057610410610d6a565b602002602001015160001415610481578589828151811061043357610433610d6a565b60200260200101516104459190610dc9565b83838151811061045757610457610d6a565b6020026020010151828151811061047057610470610d6a565b602002602001018181525050610534565b83818151811061049357610493610d6a565b60200260200101518883815181106104ad576104ad610d6a565b602002602001015182815181106104c6576104c6610d6a565b60200260200101518a83815181106104e0576104e0610d6a565b60200260200101516104f29190610deb565b6104fc9190610dc9565b83838151811061050e5761050e610d6a565b6020026020010151828151811061052757610527610d6a565b6020026020010181815250505b8061053e81610d96565b9150506103f6565b508061055181610d96565b91505061038b565b509695505050505050565b60606000845167ffffffffffffffff81111561058257610582610965565b6040519080825280602002602001820160405280156105ab578160200160208202803683370190505b5090506000805b8651821080156105c25750855181105b15610741578581815181106105d9576105d9610d6a565b60200260200101516001600160a01b03168783815181106105fc576105fc610d6a565b60200260200101516001600160a01b0316101561064457600083838151811061062757610627610d6a565b60209081029190910101528161063c81610d96565b9250506105b2565b85818151811061065657610656610d6a565b60200260200101516001600160a01b031687838151811061067957610679610d6a565b60200260200101516001600160a01b031611156106f2578481815181106106a2576106a2610d6a565b6020026020010151600014156106c457806106bc81610d96565b9150506105b2565b60405162461bcd60e51b815260206004820152600360248201526254505360e81b604482015260640161018b565b84818151811061070457610704610d6a565b602002602001015183838151811061071e5761071e610d6a565b60209081029190910101528161073381610d96565b92505080806106bc90610d96565b865182101561077b57600083838151811061075e5761075e610d6a565b60209081029190910101528161077381610d96565b925050610741565b509095945050505050565b600060028251101561079a57506001919050565b60005b600183516107ab9190610e0a565b81101561082257826107be826001610db1565b815181106107ce576107ce610d6a565b60200260200101516001600160a01b03168382815181106107f1576107f1610d6a565b60200260200101516001600160a01b0316106108105750600092915050565b8061081a81610d96565b91505061079d565b50600192915050565b805160005b81811015610960576000610845826001610db1565b90505b8281101561094d5783818151811061086257610862610d6a565b60200260200101516001600160a01b031684838151811061088557610885610d6a565b60200260200101516001600160a01b0316111561093b5760008483815181106108b0576108b0610d6a565b602002602001015190508482815181106108cc576108cc610d6a565b60200260200101518584815181106108e6576108e6610d6a565b60200260200101906001600160a01b031690816001600160a01b0316815250508085838151811061091957610919610d6a565b60200260200101906001600160a01b031690816001600160a01b031681525050505b8061094581610d96565b915050610848565b508061095881610d96565b915050610830565b505050565b634e487b7160e01b600052604160045260246000fd5b604051601f8201601f1916810167ffffffffffffffff811182821017156109a4576109a4610965565b604052919050565b600067ffffffffffffffff8211156109c6576109c6610965565b5060051b60200190565b600082601f8301126109e157600080fd5b813560206109f66109f1836109ac565b61097b565b82815260059290921b84018101918181019086841115610a1557600080fd5b8286015b848110156105595780358352918301918301610a19565b60008060408385031215610a4357600080fd5b823567ffffffffffffffff80821115610a5b57600080fd5b610a67868387016109d0565b9350602091508185013581811115610a7e57600080fd5b8501601f81018713610a8f57600080fd5b8035610a9d6109f1826109ac565b81815260059190911b82018401908481019089831115610abc57600080fd5b8584015b83811015610af457803586811115610ad85760008081fd5b610ae68c89838901016109d0565b845250918601918601610ac0565b508096505050505050509250929050565b6000602080830181845280855180835260408601915060408160051b87010192508387016000805b83811015610b8157888603603f19018552825180518088529088019088880190845b81811015610b6b5783518352928a0192918a0191600101610b4f565b5090975050509386019391860191600101610b2d565b509398975050505050505050565b80356001600160a01b0381168114610ba657600080fd5b919050565b600060208284031215610bbd57600080fd5b61010782610b8f565b600082601f830112610bd757600080fd5b81356020610be76109f1836109ac565b82815260059290921b84018101918181019086841115610c0657600080fd5b8286015b8481101561055957610c1b81610b8f565b8352918301918301610c0a565b600080600060608486031215610c3d57600080fd5b833567ffffffffffffffff80821115610c5557600080fd5b610c6187838801610bc6565b94506020860135915080821115610c7757600080fd5b610c8387838801610bc6565b93506040860135915080821115610c9957600080fd5b50610ca6868287016109d0565b9150509250925092565b6020808252825182820181905260009190848201906040850190845b81811015610ce857835183529284019291840191600101610ccc565b50909695505050505050565b600060208284031215610d0657600080fd5b813567ffffffffffffffff811115610d1d57600080fd5b61012e84828501610bc6565b6020808252825182820181905260009190848201906040850190845b81811015610ce85783516001600160a01b031683529284019291840191600101610d45565b634e487b7160e01b600052603260045260246000fd5b634e487b7160e01b600052601160045260246000fd5b6000600019821415610daa57610daa610d80565b5060010190565b60008219821115610dc457610dc4610d80565b500190565b600082610de657634e487b7160e01b600052601260045260246000fd5b500490565b6000816000190483118215151615610e0557610e05610d80565b500290565b600082821015610e1c57610e1c610d80565b50039056fea264697066735822122070060d3419459db9af2068bf73401214dd94e3d3da3fd7d568ccd11226ebe30164736f6c63430008090033",
  "linkReferences": {},
  "deployedLinkReferences": {}
}