{
  "_format": "hh-sol-artifact-1",
  "contractName": "PreciseMathUtils",
  "sourceName": "contracts/libraries/PreciseMathUtils.sol",
  "abi": [
    {
      "constant": true,
      "inputs": [],
      "name": "PERC_DIVISOR",
      "outputs": [
        {
          "internalType": "uint256",
          "name": "",
          "type": "uint256"
        }
      ],
      "payable": false,
      "stateMutability": "view",
      "type": "function"
    }
  ],
  "bytecode": "0x6095610024600b82828239805160001a607314601757fe5b30600052607381538281f3fe730000000000000000000000000000000000000000301460806040526004361060335760003560e01c8063cce2a078146038575b600080fd5b603e6050565b60408051918252519081900360200190f35b6b033b2e3c9fd0803ce80000008156fea265627a7a723158207203ce3fa3e328c65e0a504c822283dc315aa001f70309cb566e0e8994895d2664736f6c634300050b0032",
  "linkReferences": {},
  "deployedLinkReferences": {}
}