{"abi":[{"type":"constructor","inputs":[{"name":"_nftLoanFacilitator","type":"address","internalType":"contract NFTLoanFacilitator"},{"name":"_descriptor","type":"address","internalType":"contract NFTLoansTicketDescriptor"}],"stateMutability":"nonpayable"},{"type":"function","name":"approve","inputs":[{"name":"spender","type":"address","internalType":"address"},{"name":"id","type":"uint256","internalType":"uint256"}],"outputs":[],"stateMutability":"nonpayable"},{"type":"function","name":"balanceOf","inputs":[{"name":"","type":"address","internalType":"address"}],"outputs":[{"name":"","type":"uint256","internalType":"uint256"}],"stateMutability":"view"},{"type":"function","name":"descriptor","inputs":[],"outputs":[{"name":"","type":"address","internalType":"contract NFTLoansTicketDescriptor"}],"stateMutability":"view"},{"type":"function","name":"getApproved","inputs":[{"name":"","type":"uint256","internalType":"uint256"}],"outputs":[{"name":"","type":"address","internalType":"address"}],"stateMutability":"view"},{"type":"function","name":"isApprovedForAll","inputs":[{"name":"","type":"address","internalType":"address"},{"name":"","type":"address","internalType":"address"}],"outputs":[{"name":"","type":"bool","internalType":"bool"}],"stateMutability":"view"},{"type":"function","name":"loanFacilitatorTransfer","inputs":[{"name":"from","type":"address","internalType":"address"},{"name":"to","type":"address","internalType":"address"},{"name":"loanId","type":"uint256","internalType":"uint256"}],"outputs":[],"stateMutability":"nonpayable"},{"type":"function","name":"mint","inputs":[{"name":"to","type":"address","internalType":"address"},{"name":"tokenId","type":"uint256","internalType":"uint256"}],"outputs":[],"stateMutability":"nonpayable"},{"type":"function","name":"name","inputs":[],"outputs":[{"name":"","type":"string","internalType":"string"}],"stateMutability":"view"},{"type":"function","name":"nftLoanFacilitator","inputs":[],"outputs":[{"name":"","type":"address","internalType":"contract NFTLoanFacilitator"}],"stateMutability":"view"},{"type":"function","name":"ownerOf","inputs":[{"name":"","type":"uint256","internalType":"uint256"}],"outputs":[{"name":"","type":"address","internalType":"address"}],"stateMutability":"view"},{"type":"function","name":"safeTransferFrom","inputs":[{"name":"from","type":"address","internalType":"address"},{"name":"to","type":"address","internalType":"address"},{"name":"id","type":"uint256","internalType":"uint256"}],"outputs":[],"stateMutability":"nonpayable"},{"type":"function","name":"safeTransferFrom","inputs":[{"name":"from","type":"address","internalType":"address"},{"name":"to","type":"address","internalType":"address"},{"name":"id","type":"uint256","internalType":"uint256"},{"name":"data","type":"bytes","internalType":"bytes"}],"outputs":[],"stateMutability":"nonpayable"},{"type":"function","name":"setApprovalForAll","inputs":[{"name":"operator","type":"address","internalType":"address"},{"name":"approved","type":"bool","internalType":"bool"}],"outputs":[],"stateMutability":"nonpayable"},{"type":"function","name":"supportsInterface","inputs":[{"name":"interfaceId","type":"bytes4","internalType":"bytes4"}],"outputs":[{"name":"","type":"bool","internalType":"bool"}],"stateMutability":"pure"},{"type":"function","name":"symbol","inputs":[],"outputs":[{"name":"","type":"string","internalType":"string"}],"stateMutability":"view"},{"type":"function","name":"tokenURI","inputs":[{"name":"tokenId","type":"uint256","internalType":"uint256"}],"outputs":[{"name":"","type":"string","internalType":"string"}],"stateMutability":"view"},{"type":"function","name":"transferFrom","inputs":[{"name":"from","type":"address","internalType":"address"},{"name":"to","type":"address","internalType":"address"},{"name":"id","type":"uint256","internalType":"uint256"}],"outputs":[],"stateMutability":"nonpayable"},{"type":"event","name":"Approval","inputs":[{"name":"owner","type":"address","indexed":true,"internalType":"address"},{"name":"spender","type":"address","indexed":true,"internalType":"address"},{"name":"id","type":"uint256","indexed":true,"internalType":"uint256"}],"anonymous":false},{"type":"event","name":"ApprovalForAll","inputs":[{"name":"owner","type":"address","indexed":true,"internalType":"address"},{"name":"operator","type":"address","indexed":true,"internalType":"address"},{"name":"approved","type":"bool","indexed":false,"internalType":"bool"}],"anonymous":false},{"type":"event","name":"Transfer","inputs":[{"name":"from","type":"address","indexed":true,"internalType":"address"},{"name":"to","type":"address","indexed":true,"internalType":"address"},{"name":"id","type":"uint256","indexed":true,"internalType":"uint256"}],"anonymous":false}],"bytecode":{"object":"0x60c06040523480156200001157600080fd5b50604051620025eb380380620025eb8339818101604052810190620000379190620002c2565b6040518060400160405280600b81526020017f4c656e64205469636b65740000000000000000000000000000000000000000008152506040518060400160405280600481526020017f4c4e445400000000000000000000000000000000000000000000000000000000815250838383838160009080519060200190620000bf9291906200014f565b508060019080519060200190620000d89291906200014f565b5050508173ffffffffffffffffffffffffffffffffffffffff1660808173ffffffffffffffffffffffffffffffffffffffff16815250508073ffffffffffffffffffffffffffffffffffffffff1660a08173ffffffffffffffffffffffffffffffffffffffff16815250505050505050506200036e565b8280546200015d9062000338565b90600052602060002090601f016020900481019282620001815760008555620001cd565b82601f106200019c57805160ff1916838001178555620001cd565b82800160010185558215620001cd579182015b82811115620001cc578251825591602001919060010190620001af565b5b509050620001dc9190620001e0565b5090565b5b80821115620001fb576000816000905550600101620001e1565b5090565b600080fd5b600073ffffffffffffffffffffffffffffffffffffffff82169050919050565b6000620002318262000204565b9050919050565b6000620002458262000224565b9050919050565b620002578162000238565b81146200026357600080fd5b50565b60008151905062000277816200024c565b92915050565b60006200028a8262000224565b9050919050565b6200029c816200027d565b8114620002a857600080fd5b50565b600081519050620002bc8162000291565b92915050565b60008060408385031215620002dc57620002db620001ff565b5b6000620002ec8582860162000266565b9250506020620002ff85828601620002ab565b9150509250929050565b7f4e487b7100000000000000000000000000000000000000000000000000000000600052602260045260246000fd5b600060028204905060018216806200035157607f821691505b6020821081141562000368576200036762000309565b5b50919050565b60805160a05161223b620003b060003960008181610ace015261107701526000818161048e01528181610af201528181610e9c01526110b3015261223b6000f3fe608060405234801561001057600080fd5b506004361061010b5760003560e01c806342842e0e116100a2578063a22cb46511610071578063a22cb465146102b8578063a236897a146102d4578063b88d4fde146102f0578063c87b56dd1461030c578063e985e9c51461033c5761010b565b806342842e0e1461021e5780636352211e1461023a57806370a082311461026a57806395d89b411461029a5761010b565b8063095ea7b3116100de578063095ea7b3146101ac57806323b872dd146101c8578063303e74df146101e457806340c10f19146102025761010b565b806301ffc9a71461011057806306fdde03146101405780630793e9c81461015e578063081812fc1461017c575b600080fd5b61012a60048036038101906101259190611683565b61036c565b60405161013791906116cb565b60405180910390f35b6101486103fe565b604051610155919061177f565b60405180910390f35b61016661048c565b6040516101739190611820565b60405180910390f35b61019660048036038101906101919190611871565b6104b0565b6040516101a391906118bf565b60405180910390f35b6101c660048036038101906101c19190611906565b6104e3565b005b6101e260048036038101906101dd9190611946565b6106cc565b005b6101ec610acc565b6040516101f991906119ba565b60405180910390f35b61021c60048036038101906102179190611906565b610af0565b005b61023860048036038101906102339190611946565b610b8c565b005b610254600480360381019061024f9190611871565b610cc4565b60405161026191906118bf565b60405180910390f35b610284600480360381019061027f91906119d5565b610cf7565b6040516102919190611a11565b60405180910390f35b6102a2610d0f565b6040516102af919061177f565b60405180910390f35b6102d260048036038101906102cd9190611a58565b610d9d565b005b6102ee60048036038101906102e99190611946565b610e9a565b005b61030a60048036038101906103059190611bcd565b610f38565b005b61032660048036038101906103219190611871565b611073565b604051610333919061177f565b60405180910390f35b61035660048036038101906103519190611c50565b61113d565b60405161036391906116cb565b60405180910390f35b60006301ffc9a760e01b827bffffffffffffffffffffffffffffffffffffffffffffffffffffffff191614806103c757506380ac58cd60e01b827bffffffffffffffffffffffffffffffffffffffffffffffffffffffff1916145b806103f75750635b5e139f60e01b827bffffffffffffffffffffffffffffffffffffffffffffffffffffffff1916145b9050919050565b6000805461040b90611cbf565b80601f016020809104026020016040519081016040528092919081815260200182805461043790611cbf565b80156104845780601f1061045957610100808354040283529160200191610484565b820191906000526020600020905b81548152906001019060200180831161046757829003601f168201915b505050505081565b7f000000000000000000000000000000000000000000000000000000000000000081565b60046020528060005260406000206000915054906101000a900473ffffffffffffffffffffffffffffffffffffffff1681565b60006003600083815260200190815260200160002060009054906101000a900473ffffffffffffffffffffffffffffffffffffffff1690508073ffffffffffffffffffffffffffffffffffffffff163373ffffffffffffffffffffffffffffffffffffffff1614806105db5750600560008273ffffffffffffffffffffffffffffffffffffffff1673ffffffffffffffffffffffffffffffffffffffff16815260200190815260200160002060003373ffffffffffffffffffffffffffffffffffffffff1673ffffffffffffffffffffffffffffffffffffffff16815260200190815260200160002060009054906101000a900460ff165b61061a576040517f08c379a000000000000000000000000000000000000000000000000000000000815260040161061190611d3d565b60405180910390fd5b826004600084815260200190815260200160002060006101000a81548173ffffffffffffffffffffffffffffffffffffffff021916908373ffffffffffffffffffffffffffffffffffffffff160217905550818373ffffffffffffffffffffffffffffffffffffffff168273ffffffffffffffffffffffffffffffffffffffff167f8c5be1e5ebec7d5bd14f71427d1e84f3dd0314c0f7b2291e5b200ac8c7c3b92560405160405180910390a4505050565b6003600082815260200190815260200160002060009054906101000a900473ffffffffffffffffffffffffffffffffffffffff1673ffffffffffffffffffffffffffffffffffffffff168373ffffffffffffffffffffffffffffffffffffffff161461076d576040517f08c379a000000000000000000000000000000000000000000000000000000000815260040161076490611da9565b60405180910390fd5b600073ffffffffffffffffffffffffffffffffffffffff168273ffffffffffffffffffffffffffffffffffffffff1614156107dd576040517f08c379a00000000000000000000000000000000000000000000000000000000081526004016107d490611e15565b60405180910390fd5b8273ffffffffffffffffffffffffffffffffffffffff163373ffffffffffffffffffffffffffffffffffffffff16148061087557506004600082815260200190815260200160002060009054906101000a900473ffffffffffffffffffffffffffffffffffffffff1673ffffffffffffffffffffffffffffffffffffffff163373ffffffffffffffffffffffffffffffffffffffff16145b806109065750600560008473ffffffffffffffffffffffffffffffffffffffff1673ffffffffffffffffffffffffffffffffffffffff16815260200190815260200160002060003373ffffffffffffffffffffffffffffffffffffffff1673ffffffffffffffffffffffffffffffffffffffff16815260200190815260200160002060009054906101000a900460ff165b610945576040517f08c379a000000000000000000000000000000000000000000000000000000000815260040161093c90611d3d565b60405180910390fd5b600260008473ffffffffffffffffffffffffffffffffffffffff1673ffffffffffffffffffffffffffffffffffffffff1681526020019081526020016000206000815480929190600190039190505550600260008373ffffffffffffffffffffffffffffffffffffffff1673ffffffffffffffffffffffffffffffffffffffff16815260200190815260200160002060008154809291906001019190505550816003600083815260200190815260200160002060006101000a81548173ffffffffffffffffffffffffffffffffffffffff021916908373ffffffffffffffffffffffffffffffffffffffff1602179055506004600082815260200190815260200160002060006101000a81549073ffffffffffffffffffffffffffffffffffffffff0219169055808273ffffffffffffffffffffffffffffffffffffffff168473ffffffffffffffffffffffffffffffffffffffff167fddf252ad1be2c89b69c2b068fc378daa952ba7f163c4a11628f55a4df523b3ef60405160405180910390a4505050565b7f000000000000000000000000000000000000000000000000000000000000000081565b7f000000000000000000000000000000000000000000000000000000000000000073ffffffffffffffffffffffffffffffffffffffff163373ffffffffffffffffffffffffffffffffffffffff1614610b7e576040517f08c379a0000000000000000000000000000000000000000000000000000000008152600401610b7590611ea7565b60405180910390fd5b610b88828261116c565b5050565b610b978383836106cc565b60008273ffffffffffffffffffffffffffffffffffffffff163b1480610c80575063150b7a0260e01b7bffffffffffffffffffffffffffffffffffffffffffffffffffffffff19168273ffffffffffffffffffffffffffffffffffffffff1663150b7a023386856040518463ffffffff1660e01b8152600401610c1c93929190611efe565b6020604051808303816000875af1158015610c3b573d6000803e3d6000fd5b505050506040513d601f19601f82011682018060405250810190610c5f9190611f5d565b7bffffffffffffffffffffffffffffffffffffffffffffffffffffffff1916145b610cbf576040517f08c379a0000000000000000000000000000000000000000000000000000000008152600401610cb690611fd6565b60405180910390fd5b505050565b60036020528060005260406000206000915054906101000a900473ffffffffffffffffffffffffffffffffffffffff1681565b60026020528060005260406000206000915090505481565b60018054610d1c90611cbf565b80601f0160208091040260200160405190810160405280929190818152602001828054610d4890611cbf565b8015610d955780601f10610d6a57610100808354040283529160200191610d95565b820191906000526020600020905b815481529060010190602001808311610d7857829003601f168201915b505050505081565b80600560003373ffffffffffffffffffffffffffffffffffffffff1673ffffffffffffffffffffffffffffffffffffffff16815260200190815260200160002060008473ffffffffffffffffffffffffffffffffffffffff1673ffffffffffffffffffffffffffffffffffffffff16815260200190815260200160002060006101000a81548160ff0219169083151502179055508173ffffffffffffffffffffffffffffffffffffffff163373ffffffffffffffffffffffffffffffffffffffff167f17307eab39ab6107e8899845ad3d59bd9653f200f220920489ca2b5937696c3183604051610e8e91906116cb565b60405180910390a35050565b7f000000000000000000000000000000000000000000000000000000000000000073ffffffffffffffffffffffffffffffffffffffff163373ffffffffffffffffffffffffffffffffffffffff1614610f28576040517f08c379a0000000000000000000000000000000000000000000000000000000008152600401610f1f90611ea7565b60405180910390fd5b610f3383838361137f565b505050565b610f438484846106cc565b60008373ffffffffffffffffffffffffffffffffffffffff163b148061102e575063150b7a0260e01b7bffffffffffffffffffffffffffffffffffffffffffffffffffffffff19168373ffffffffffffffffffffffffffffffffffffffff1663150b7a02338786866040518563ffffffff1660e01b8152600401610fca949392919061203a565b6020604051808303816000875af1158015610fe9573d6000803e3d6000fd5b505050506040513d601f19601f8201168201806040525081019061100d9190611f5d565b7bffffffffffffffffffffffffffffffffffffffffffffffffffffffff1916145b61106d576040517f08c379a000000000000000000000000000000000000000000000000000000000815260040161106490611fd6565b60405180910390fd5b50505050565b60607f000000000000000000000000000000000000000000000000000000000000000073ffffffffffffffffffffffffffffffffffffffff166328205a937f0000000000000000000000000000000000000000000000000000000000000000846040518363ffffffff1660e01b81526004016110f0929190612086565b600060405180830381865afa15801561110d573d6000803e3d6000fd5b505050506040513d6000823e3d601f19601f820116820180604052508101906111369190612150565b9050919050565b60056020528160005260406000206020528060005260406000206000915091509054906101000a900460ff1681565b600073ffffffffffffffffffffffffffffffffffffffff168273ffffffffffffffffffffffffffffffffffffffff1614156111dc576040517f08c379a00000000000000000000000000000000000000000000000000000000081526004016111d390611e15565b60405180910390fd5b600073ffffffffffffffffffffffffffffffffffffffff166003600083815260200190815260200160002060009054906101000a900473ffffffffffffffffffffffffffffffffffffffff1673ffffffffffffffffffffffffffffffffffffffff161461127e576040517f08c379a0000000000000000000000000000000000000000000000000000000008152600401611275906121e5565b60405180910390fd5b600260008373ffffffffffffffffffffffffffffffffffffffff1673ffffffffffffffffffffffffffffffffffffffff16815260200190815260200160002060008154809291906001019190505550816003600083815260200190815260200160002060006101000a81548173ffffffffffffffffffffffffffffffffffffffff021916908373ffffffffffffffffffffffffffffffffffffffff160217905550808273ffffffffffffffffffffffffffffffffffffffff16600073ffffffffffffffffffffffffffffffffffffffff167fddf252ad1be2c89b69c2b068fc378daa952ba7f163c4a11628f55a4df523b3ef60405160405180910390a45050565b6003600082815260200190815260200160002060009054906101000a900473ffffffffffffffffffffffffffffffffffffffff1673ffffffffffffffffffffffffffffffffffffffff168373ffffffffffffffffffffffffffffffffffffffff1614611420576040517f08c379a000000000000000000000000000000000000000000000000000000000815260040161141790611da9565b60405180910390fd5b600073ffffffffffffffffffffffffffffffffffffffff168273ffffffffffffffffffffffffffffffffffffffff161415611490576040517f08c379a000000000000000000000000000000000000000000000000000000000815260040161148790611e15565b60405180910390fd5b600260008473ffffffffffffffffffffffffffffffffffffffff1673ffffffffffffffffffffffffffffffffffffffff1681526020019081526020016000206000815480929190600190039190505550600260008373ffffffffffffffffffffffffffffffffffffffff1673ffffffffffffffffffffffffffffffffffffffff16815260200190815260200160002060008154809291906001019190505550816003600083815260200190815260200160002060006101000a81548173ffffffffffffffffffffffffffffffffffffffff021916908373ffffffffffffffffffffffffffffffffffffffff1602179055506004600082815260200190815260200160002060006101000a81549073ffffffffffffffffffffffffffffffffffffffff0219169055808273ffffffffffffffffffffffffffffffffffffffff168473ffffffffffffffffffffffffffffffffffffffff167fddf252ad1be2c89b69c2b068fc378daa952ba7f163c4a11628f55a4df523b3ef60405160405180910390a4505050565b6000604051905090565b600080fd5b600080fd5b60007fffffffff0000000000000000000000000000000000000000000000000000000082169050919050565b6116608161162b565b811461166b57600080fd5b50565b60008135905061167d81611657565b92915050565b60006020828403121561169957611698611621565b5b60006116a78482850161166e565b91505092915050565b60008115159050919050565b6116c5816116b0565b82525050565b60006020820190506116e060008301846116bc565b92915050565b600081519050919050565b600082825260208201905092915050565b60005b83811015611720578082015181840152602081019050611705565b8381111561172f576000848401525b50505050565b6000601f19601f8301169050919050565b6000611751826116e6565b61175b81856116f1565b935061176b818560208601611702565b61177481611735565b840191505092915050565b600060208201905081810360008301526117998184611746565b905092915050565b600073ffffffffffffffffffffffffffffffffffffffff82169050919050565b6000819050919050565b60006117e66117e16117dc846117a1565b6117c1565b6117a1565b9050919050565b60006117f8826117cb565b9050919050565b600061180a826117ed565b9050919050565b61181a816117ff565b82525050565b60006020820190506118356000830184611811565b92915050565b6000819050919050565b61184e8161183b565b811461185957600080fd5b50565b60008135905061186b81611845565b92915050565b60006020828403121561188757611886611621565b5b60006118958482850161185c565b91505092915050565b60006118a9826117a1565b9050919050565b6118b98161189e565b82525050565b60006020820190506118d460008301846118b0565b92915050565b6118e38161189e565b81146118ee57600080fd5b50565b600081359050611900816118da565b92915050565b6000806040838503121561191d5761191c611621565b5b600061192b858286016118f1565b925050602061193c8582860161185c565b9150509250929050565b60008060006060848603121561195f5761195e611621565b5b600061196d868287016118f1565b935050602061197e868287016118f1565b925050604061198f8682870161185c565b9150509250925092565b60006119a4826117ed565b9050919050565b6119b481611999565b82525050565b60006020820190506119cf60008301846119ab565b92915050565b6000602082840312156119eb576119ea611621565b5b60006119f9848285016118f1565b91505092915050565b611a0b8161183b565b82525050565b6000602082019050611a266000830184611a02565b92915050565b611a35816116b0565b8114611a4057600080fd5b50565b600081359050611a5281611a2c565b92915050565b60008060408385031215611a6f57611a6e611621565b5b6000611a7d858286016118f1565b9250506020611a8e85828601611a43565b9150509250929050565b600080fd5b600080fd5b7f4e487b7100000000000000000000000000000000000000000000000000000000600052604160045260246000fd5b611ada82611735565b810181811067ffffffffffffffff82111715611af957611af8611aa2565b5b80604052505050565b6000611b0c611617565b9050611b188282611ad1565b919050565b600067ffffffffffffffff821115611b3857611b37611aa2565b5b611b4182611735565b9050602081019050919050565b82818337600083830152505050565b6000611b70611b6b84611b1d565b611b02565b905082815260208101848484011115611b8c57611b8b611a9d565b5b611b97848285611b4e565b509392505050565b600082601f830112611bb457611bb3611a98565b5b8135611bc4848260208601611b5d565b91505092915050565b60008060008060808587031215611be757611be6611621565b5b6000611bf5878288016118f1565b9450506020611c06878288016118f1565b9350506040611c178782880161185c565b925050606085013567ffffffffffffffff811115611c3857611c37611626565b5b611c4487828801611b9f565b91505092959194509250565b60008060408385031215611c6757611c66611621565b5b6000611c75858286016118f1565b9250506020611c86858286016118f1565b9150509250929050565b7f4e487b7100000000000000000000000000000000000000000000000000000000600052602260045260246000fd5b60006002820490506001821680611cd757607f821691505b60208210811415611ceb57611cea611c90565b5b50919050565b7f4e4f545f415554484f52495a4544000000000000000000000000000000000000600082015250565b6000611d27600e836116f1565b9150611d3282611cf1565b602082019050919050565b60006020820190508181036000830152611d5681611d1a565b9050919050565b7f57524f4e475f46524f4d00000000000000000000000000000000000000000000600082015250565b6000611d93600a836116f1565b9150611d9e82611d5d565b602082019050919050565b60006020820190508181036000830152611dc281611d86565b9050919050565b7f494e56414c49445f524543495049454e54000000000000000000000000000000600082015250565b6000611dff6011836116f1565b9150611e0a82611dc9565b602082019050919050565b60006020820190508181036000830152611e2e81611df2565b9050919050565b7f4e46544c6f616e5469636b65743a206f6e6c79206c6f616e20666163696c697460008201527f61746f7200000000000000000000000000000000000000000000000000000000602082015250565b6000611e916024836116f1565b9150611e9c82611e35565b604082019050919050565b60006020820190508181036000830152611ec081611e84565b9050919050565b600082825260208201905092915050565b50565b6000611ee8600083611ec7565b9150611ef382611ed8565b600082019050919050565b6000608082019050611f1360008301866118b0565b611f2060208301856118b0565b611f2d6040830184611a02565b8181036060830152611f3e81611edb565b9050949350505050565b600081519050611f5781611657565b92915050565b600060208284031215611f7357611f72611621565b5b6000611f8184828501611f48565b91505092915050565b7f554e534146455f524543495049454e5400000000000000000000000000000000600082015250565b6000611fc06010836116f1565b9150611fcb82611f8a565b602082019050919050565b60006020820190508181036000830152611fef81611fb3565b9050919050565b600081519050919050565b600061200c82611ff6565b6120168185611ec7565b9350612026818560208601611702565b61202f81611735565b840191505092915050565b600060808201905061204f60008301876118b0565b61205c60208301866118b0565b6120696040830185611a02565b818103606083015261207b8184612001565b905095945050505050565b600060408201905061209b6000830185611811565b6120a86020830184611a02565b9392505050565b600067ffffffffffffffff8211156120ca576120c9611aa2565b5b6120d382611735565b9050602081019050919050565b60006120f36120ee846120af565b611b02565b90508281526020810184848401111561210f5761210e611a9d565b5b61211a848285611702565b509392505050565b600082601f83011261213757612136611a98565b5b81516121478482602086016120e0565b91505092915050565b60006020828403121561216657612165611621565b5b600082015167ffffffffffffffff81111561218457612183611626565b5b61219084828501612122565b91505092915050565b7f414c52454144595f4d494e544544000000000000000000000000000000000000600082015250565b60006121cf600e836116f1565b91506121da82612199565b602082019050919050565b600060208201905081810360008301526121fe816121c2565b905091905056fea26469706673582212206e4945e92dfbeca81e370bb35fa5a56239914bbeb9dc53a3cbc1a107d86361ed64736f6c634300080c0033","linkReferences":{}},"methodIdentifiers":{"approve(address,uint256)":"095ea7b3","balanceOf(address)":"70a08231","descriptor()":"303e74df","getApproved(uint256)":"081812fc","isApprovedForAll(address,address)":"e985e9c5","loanFacilitatorTransfer(address,address,uint256)":"a236897a","mint(address,uint256)":"40c10f19","name()":"06fdde03","nftLoanFacilitator()":"0793e9c8","ownerOf(uint256)":"6352211e","safeTransferFrom(address,address,uint256)":"42842e0e","safeTransferFrom(address,address,uint256,bytes)":"b88d4fde","setApprovalForAll(address,bool)":"a22cb465","supportsInterface(bytes4)":"01ffc9a7","symbol()":"95d89b41","tokenURI(uint256)":"c87b56dd","transferFrom(address,address,uint256)":"23b872dd"},"id":1}