{
  "_format": "hh-sol-artifact-1",
  "contractName": "NFTXInventoryStaking",
  "sourceName": "contracts/solidity/NFTXInventoryStaking.sol",
  "abi": [
    {
      "anonymous": false,
      "inputs": [
        {
          "indexed": false,
          "internalType": "uint256",
          "name": "vaultId",
          "type": "uint256"
        },
        {
          "indexed": false,
          "internalType": "uint256",
          "name": "baseTokenAmount",
          "type": "uint256"
        },
        {
          "indexed": false,
          "internalType": "uint256",
          "name": "xTokenAmount",
          "type": "uint256"
        },
        {
          "indexed": false,
          "internalType": "uint256",
          "name": "timelockUntil",
          "type": "uint256"
        },
        {
          "indexed": false,
          "internalType": "address",
          "name": "sender",
          "type": "address"
        }
      ],
      "name": "Deposit",
      "type": "event"
    },
    {
      "anonymous": false,
      "inputs": [
        {
          "indexed": true,
          "internalType": "address",
          "name": "previousOwner",
          "type": "address"
        },
        {
          "indexed": true,
          "internalType": "address",
          "name": "newOwner",
          "type": "address"
        }
      ],
      "name": "OwnershipTransferred",
      "type": "event"
    },
    {
      "anonymous": false,
      "inputs": [
        {
          "indexed": false,
          "internalType": "address",
          "name": "addr",
          "type": "address"
        },
        {
          "indexed": false,
          "internalType": "bool",
          "name": "isGuardian",
          "type": "bool"
        }
      ],
      "name": "SetIsGuardian",
      "type": "event"
    },
    {
      "anonymous": false,
      "inputs": [
        {
          "indexed": false,
          "internalType": "uint256",
          "name": "lockId",
          "type": "uint256"
        },
        {
          "indexed": false,
          "internalType": "bool",
          "name": "paused",
          "type": "bool"
        }
      ],
      "name": "SetPaused",
      "type": "event"
    },
    {
      "anonymous": false,
      "inputs": [
        {
          "indexed": true,
          "internalType": "address",
          "name": "childImplementation",
          "type": "address"
        }
      ],
      "name": "Upgraded",
      "type": "event"
    },
    {
      "anonymous": false,
      "inputs": [
        {
          "indexed": false,
          "internalType": "uint256",
          "name": "vaultId",
          "type": "uint256"
        },
        {
          "indexed": false,
          "internalType": "uint256",
          "name": "baseTokenAmount",
          "type": "uint256"
        },
        {
          "indexed": false,
          "internalType": "uint256",
          "name": "xTokenAmount",
          "type": "uint256"
        },
        {
          "indexed": false,
          "internalType": "address",
          "name": "sender",
          "type": "address"
        }
      ],
      "name": "Withdraw",
      "type": "event"
    },
    {
      "anonymous": false,
      "inputs": [
        {
          "indexed": false,
          "internalType": "uint256",
          "name": "vaultId",
          "type": "uint256"
        },
        {
          "indexed": false,
          "internalType": "address",
          "name": "baseToken",
          "type": "address"
        },
        {
          "indexed": false,
          "internalType": "address",
          "name": "xToken",
          "type": "address"
        }
      ],
      "name": "XTokenCreated",
      "type": "event"
    },
    {
      "inputs": [],
      "name": "BASE",
      "outputs": [
        {
          "internalType": "uint256",
          "name": "",
          "type": "uint256"
        }
      ],
      "stateMutability": "view",
      "type": "function"
    },
    {
      "inputs": [],
      "name": "DEFAULT_LOCKTIME",
      "outputs": [
        {
          "internalType": "uint256",
          "name": "",
          "type": "uint256"
        }
      ],
      "stateMutability": "view",
      "type": "function"
    },
    {
      "inputs": [
        {
          "internalType": "address",
          "name": "_nftxVaultFactory",
          "type": "address"
        }
      ],
      "name": "__NFTXInventoryStaking_init",
      "outputs": [],
      "stateMutability": "nonpayable",
      "type": "function"
    },
    {
      "inputs": [
        {
          "internalType": "address",
          "name": "childImplementation_",
          "type": "address"
        }
      ],
      "name": "__UpgradeableBeacon__init",
      "outputs": [],
      "stateMutability": "nonpayable",
      "type": "function"
    },
    {
      "inputs": [
        {
          "internalType": "uint256",
          "name": "vaultId",
          "type": "uint256"
        },
        {
          "internalType": "address",
          "name": "who",
          "type": "address"
        }
      ],
      "name": "balanceOf",
      "outputs": [
        {
          "internalType": "uint256",
          "name": "",
          "type": "uint256"
        }
      ],
      "stateMutability": "view",
      "type": "function"
    },
    {
      "inputs": [],
      "name": "childImplementation",
      "outputs": [
        {
          "internalType": "address",
          "name": "",
          "type": "address"
        }
      ],
      "stateMutability": "view",
      "type": "function"
    },
    {
      "inputs": [
        {
          "internalType": "uint256",
          "name": "vaultId",
          "type": "uint256"
        }
      ],
      "name": "deployXTokenForVault",
      "outputs": [],
      "stateMutability": "nonpayable",
      "type": "function"
    },
    {
      "inputs": [
        {
          "internalType": "uint256",
          "name": "vaultId",
          "type": "uint256"
        },
        {
          "internalType": "uint256",
          "name": "_amount",
          "type": "uint256"
        }
      ],
      "name": "deposit",
      "outputs": [],
      "stateMutability": "nonpayable",
      "type": "function"
    },
    {
      "inputs": [
        {
          "internalType": "address",
          "name": "",
          "type": "address"
        }
      ],
      "name": "isGuardian",
      "outputs": [
        {
          "internalType": "bool",
          "name": "",
          "type": "bool"
        }
      ],
      "stateMutability": "view",
      "type": "function"
    },
    {
      "inputs": [
        {
          "internalType": "uint256",
          "name": "",
          "type": "uint256"
        }
      ],
      "name": "isPaused",
      "outputs": [
        {
          "internalType": "bool",
          "name": "",
          "type": "bool"
        }
      ],
      "stateMutability": "view",
      "type": "function"
    },
    {
      "inputs": [],
      "name": "nftxVaultFactory",
      "outputs": [
        {
          "internalType": "contract INFTXVaultFactory",
          "name": "",
          "type": "address"
        }
      ],
      "stateMutability": "view",
      "type": "function"
    },
    {
      "inputs": [
        {
          "internalType": "uint256",
          "name": "lockId",
          "type": "uint256"
        }
      ],
      "name": "onlyOwnerIfPaused",
      "outputs": [],
      "stateMutability": "view",
      "type": "function"
    },
    {
      "inputs": [],
      "name": "owner",
      "outputs": [
        {
          "internalType": "address",
          "name": "",
          "type": "address"
        }
      ],
      "stateMutability": "view",
      "type": "function"
    },
    {
      "inputs": [
        {
          "internalType": "uint256",
          "name": "lockId",
          "type": "uint256"
        }
      ],
      "name": "pause",
      "outputs": [],
      "stateMutability": "nonpayable",
      "type": "function"
    },
    {
      "inputs": [
        {
          "internalType": "uint256",
          "name": "vaultId",
          "type": "uint256"
        },
        {
          "internalType": "uint256",
          "name": "amount",
          "type": "uint256"
        }
      ],
      "name": "receiveRewards",
      "outputs": [
        {
          "internalType": "bool",
          "name": "",
          "type": "bool"
        }
      ],
      "stateMutability": "nonpayable",
      "type": "function"
    },
    {
      "inputs": [],
      "name": "renounceOwnership",
      "outputs": [],
      "stateMutability": "nonpayable",
      "type": "function"
    },
    {
      "inputs": [
        {
          "internalType": "address",
          "name": "addr",
          "type": "address"
        },
        {
          "internalType": "bool",
          "name": "_isGuardian",
          "type": "bool"
        }
      ],
      "name": "setIsGuardian",
      "outputs": [],
      "stateMutability": "nonpayable",
      "type": "function"
    },
    {
      "inputs": [
        {
          "internalType": "address",
          "name": "newFactory",
          "type": "address"
        }
      ],
      "name": "setNFTXVaultFactory",
      "outputs": [],
      "stateMutability": "nonpayable",
      "type": "function"
    },
    {
      "inputs": [
        {
          "internalType": "uint256",
          "name": "vaultId",
          "type": "uint256"
        },
        {
          "internalType": "uint256",
          "name": "amount",
          "type": "uint256"
        },
        {
          "internalType": "address",
          "name": "to",
          "type": "address"
        },
        {
          "internalType": "uint256",
          "name": "timelockLength",
          "type": "uint256"
        }
      ],
      "name": "timelockMintFor",
      "outputs": [
        {
          "internalType": "uint256",
          "name": "",
          "type": "uint256"
        }
      ],
      "stateMutability": "nonpayable",
      "type": "function"
    },
    {
      "inputs": [
        {
          "internalType": "uint256",
          "name": "vaultId",
          "type": "uint256"
        },
        {
          "internalType": "address",
          "name": "who",
          "type": "address"
        }
      ],
      "name": "timelockUntil",
      "outputs": [
        {
          "internalType": "uint256",
          "name": "",
          "type": "uint256"
        }
      ],
      "stateMutability": "view",
      "type": "function"
    },
    {
      "inputs": [
        {
          "internalType": "address",
          "name": "newOwner",
          "type": "address"
        }
      ],
      "name": "transferOwnership",
      "outputs": [],
      "stateMutability": "nonpayable",
      "type": "function"
    },
    {
      "inputs": [
        {
          "internalType": "uint256",
          "name": "lockId",
          "type": "uint256"
        }
      ],
      "name": "unpause",
      "outputs": [],
      "stateMutability": "nonpayable",
      "type": "function"
    },
    {
      "inputs": [
        {
          "internalType": "address",
          "name": "newChildImplementation",
          "type": "address"
        }
      ],
      "name": "upgradeChildTo",
      "outputs": [],
      "stateMutability": "nonpayable",
      "type": "function"
    },
    {
      "inputs": [
        {
          "internalType": "uint256",
          "name": "vaultId",
          "type": "uint256"
        }
      ],
      "name": "vaultXToken",
      "outputs": [
        {
          "internalType": "address",
          "name": "",
          "type": "address"
        }
      ],
      "stateMutability": "view",
      "type": "function"
    },
    {
      "inputs": [
        {
          "internalType": "uint256",
          "name": "vaultId",
          "type": "uint256"
        },
        {
          "internalType": "uint256",
          "name": "_share",
          "type": "uint256"
        }
      ],
      "name": "withdraw",
      "outputs": [],
      "stateMutability": "nonpayable",
      "type": "function"
    },
    {
      "inputs": [
        {
          "internalType": "address",
          "name": "baseToken",
          "type": "address"
        }
      ],
      "name": "xTokenAddr",
      "outputs": [
        {
          "internalType": "address",
          "name": "",
          "type": "address"
        }
      ],
      "stateMutability": "view",
      "type": "function"
    },
    {
      "inputs": [
        {
          "internalType": "uint256",
          "name": "vaultId",
          "type": "uint256"
        }
      ],
      "name": "xTokenShareValue",
      "outputs": [
        {
          "internalType": "uint256",
          "name": "",
          "type": "uint256"
        }
      ],
      "stateMutability": "view",
      "type": "function"
    }
  ],
  "bytecode": "0x608060405234801561001057600080fd5b506149b4806100206000396000f3fe60806040523480156200001157600080fd5b5060043610620001dd5760003560e01c80638da5cb5b116200010d578063e2bbb15811620000a3578063f0f2a4d7116200007a578063f0f2a4d71462000421578063f2fde38b1462000438578063f36d52da146200044f578063fabc1cbc146200046657600080fd5b8063e2bbb15814620003e3578063e595602714620003fa578063ec342ad0146200041157600080fd5b8063bdf2a43c11620000e4578063bdf2a43c146200037d578063c23c6da014620003a3578063cda13d6714620003ba578063da52571614620003d157600080fd5b80638da5cb5b146200033d578063a2700d78146200034f578063a77abced146200036657600080fd5b80633656eec211620001835780634363fcd2116200015a5780634363fcd214620002ee578063441a3e701462000305578063715018a6146200031c5780637c77b616146200032657600080fd5b80633656eec214620002ba5780633801daf114620002d157806342fb28d514620002e557600080fd5b80631f1713fc11620001b85780631f1713fc146200026657806323845fb5146200027d5780632699f55a146200029457600080fd5b8063034fc83c14620001e25780630c68ba211462000216578063136439dd146200024d575b600080fd5b620001f9620001f336600462002344565b6200047d565b6040516001600160a01b0390911681526020015b60405180910390f35b6200023c6200022736600462002200565b60656020526000908152604090205460ff1681565b60405190151581526020016200020d565b620002646200025e36600462002344565b6200056e565b005b620002646200027736600462002200565b62000627565b620002646200028e3660046200223e565b62000691565b620002ab620002a5366004620023bf565b62000750565b6040519081526020016200020d565b620002ab620002cb36600462002376565b620008b8565b606854620001f9906001600160a01b031681565b620002ab600281565b620002ab620002ff36600462002344565b62000952565b62000264620003163660046200239d565b62000be4565b6200026462000d69565b620002646200033736600462002344565b62000e0f565b6033546001600160a01b0316620001f9565b620002646200036036600462002200565b62000e86565b620002646200037736600462002200565b62000fa1565b6200023c6200038e36600462002344565b60666020526000908152604090205460ff1681565b620002ab620003b436600462002376565b62001033565b620001f9620003cb36600462002200565b6200108d565b6067546001600160a01b0316620001f9565b62000264620003f43660046200239d565b6200110b565b620002646200040b36600462002200565b62001195565b620002ab670de0b6b3a764000081565b620002646200043236600462002344565b62001258565b620002646200044936600462002200565b62001357565b6200023c620004603660046200239d565b6200148d565b620002646200047736600462002344565b620016f1565b6068546040516340d1b7db60e11b81526004810183905260009182916001600160a01b03909116906381a36fb69060240160206040518083038186803b158015620004c757600080fd5b505afa158015620004dc573d6000803e3d6000fd5b505050506040513d601f19601f820116820180604052508101906200050291906200221f565b9050600062000511826200108d565b9050803b620005675760405162461bcd60e51b815260206004820152601360248201527f58546f6b656e206e6f74206465706c6f7965640000000000000000000000000060448201526064015b60405180910390fd5b9392505050565b3360009081526065602052604090205460ff16620005cf5760405162461bcd60e51b815260206004820152600b60248201527f43616e277420706175736500000000000000000000000000000000000000000060448201526064016200055e565b600081815260666020908152604091829020805460ff191660019081179091558251848152918201527f77f1fcfcce67dc392d64f842056d2ec06c80986c47c910f7e79c5b23a2738d7491015b60405180910390a150565b6033546001600160a01b03163314620006835760405162461bcd60e51b815260206004820181905260248201527f4f776e61626c653a2063616c6c6572206973206e6f7420746865206f776e657260448201526064016200055e565b6200068e816200179b565b50565b6033546001600160a01b03163314620006ed5760405162461bcd60e51b815260206004820181905260248201527f4f776e61626c653a2063616c6c6572206973206e6f7420746865206f776e657260448201526064016200055e565b6001600160a01b038216600081815260656020908152604091829020805460ff19168515159081179091558251938452908301527fd0b6b573d5442f7c29fd50d9735ae341581c25c6ed07748d50eda519f1ffa88a910160405180910390a15050565b60006200075e600a62000e0f565b6068546040517fdbe66ca00000000000000000000000000000000000000000000000000000000081523360048201526001600160a01b039091169063dbe66ca09060240160206040518083038186803b158015620007bb57600080fd5b505afa158015620007d0573d6000803e3d6000fd5b505050506040513d601f19601f82011682018060405250810190620007f691906200227b565b620008445760405162461bcd60e51b815260206004820152600960248201527f4e6f742061207a6170000000000000000000000000000000000000000000000060448201526064016200055e565b600062000854868587866200185b565b604080518a8152602081018a9052808201839052606081018890526001600160a01b038916608082015290519194507ff6d712df0bc2e9953a525976e57448a1dcb9b85f49402ab6cce0cea20fc5249c935081900360a0019150a195945050505050565b600080620008c6846200047d565b6040516370a0823160e01b81526001600160a01b038581166004830152919250908216906370a08231906024015b60206040518083038186803b1580156200090d57600080fd5b505afa15801562000922573d6000803e3d6000fd5b505050506040513d601f19601f820116820180604052508101906200094891906200235d565b9150505b92915050565b6068546040516340d1b7db60e11b81526004810183905260009182916001600160a01b03909116906381a36fb69060240160206040518083038186803b1580156200099c57600080fd5b505afa158015620009b1573d6000803e3d6000fd5b505050506040513d601f19601f82011682018060405250810190620009d791906200221f565b90506000620009e6826200108d565b90506001600160a01b03811662000a405760405162461bcd60e51b815260206004820152601360248201527f58546f6b656e206e6f74206465706c6f7965640000000000000000000000000060448201526064016200055e565b6000670de0b6b3a764000090506000826001600160a01b03166318160ddd6040518163ffffffff1660e01b815260040160206040518083038186803b15801562000a8957600080fd5b505afa15801562000a9e573d6000803e3d6000fd5b505050506040513d601f19601f8201168201806040525081019062000ac491906200235d565b1162000ad1578062000bdb565b816001600160a01b03166318160ddd6040518163ffffffff1660e01b815260040160206040518083038186803b15801562000b0b57600080fd5b505afa15801562000b20573d6000803e3d6000fd5b505050506040513d601f19601f8201168201806040525081019062000b4691906200235d565b6040516370a0823160e01b81526001600160a01b0384811660048301528516906370a082319060240160206040518083038186803b15801562000b8857600080fd5b505afa15801562000b9d573d6000803e3d6000fd5b505050506040513d601f19601f8201168201806040525081019062000bc391906200235d565b62000bcf90836200250b565b62000bdb9190620024ea565b95945050505050565b6068546040516340d1b7db60e11b8152600481018490526000916001600160a01b0316906381a36fb69060240160206040518083038186803b15801562000c2a57600080fd5b505afa15801562000c3f573d6000803e3d6000fd5b505050506040513d601f19601f8201168201806040525081019062000c6591906200221f565b9050600062000c74826200108d565b6040517f19e616a3000000000000000000000000000000000000000000000000000000008152336004820152602481018590529091506000906001600160a01b038316906319e616a390604401602060405180830381600087803b15801562000cdc57600080fd5b505af115801562000cf1573d6000803e3d6000fd5b505050506040513d601f19601f8201168201806040525081019062000d1791906200235d565b60408051878152602081018390529081018690523360608201529091507f3049105fcf2a17b0c1862f64c05a6b2df2176ea17686f7cbf2689887594dd2f8906080015b60405180910390a15050505050565b6033546001600160a01b0316331462000dc55760405162461bcd60e51b815260206004820181905260248201527f4f776e61626c653a2063616c6c6572206973206e6f7420746865206f776e657260448201526064016200055e565b6033546040516000916001600160a01b0316907f8be0079c531659141344cd1fd0a4f28419497f9722a3daafe3b4186f6b6457e0908390a3603380546001600160a01b0319169055565b60008181526066602052604090205460ff16158062000e3857506033546001600160a01b031633145b6200068e5760405162461bcd60e51b815260206004820152600660248201527f506175736564000000000000000000000000000000000000000000000000000060448201526064016200055e565b600054610100900460ff168062000ea0575060005460ff16155b62000f055760405162461bcd60e51b815260206004820152602e60248201527f496e697469616c697a61626c653a20636f6e747261637420697320616c72656160448201526d191e481a5b9a5d1a585b1a5e995960921b60648201526084016200055e565b600054610100900460ff1615801562000f28576000805461ffff19166101011790555b62000f32620019b8565b606880546001600160a01b0319166001600160a01b03841617905560405160009062000f5e90620021e4565b604051809103906000f08015801562000f7b573d6000803e3d6000fd5b50905062000f898162001195565b50801562000f9d576000805461ff00191690555b5050565b6033546001600160a01b0316331462000ffd5760405162461bcd60e51b815260206004820181905260248201527f4f776e61626c653a2063616c6c6572206973206e6f7420746865206f776e657260448201526064016200055e565b6001600160a01b0381166200101157600080fd5b606880546001600160a01b0319166001600160a01b0392909216919091179055565b60008062001041846200047d565b6040517fc19ea0530000000000000000000000000000000000000000000000000000000081526001600160a01b0385811660048301529192509082169063c19ea05390602401620008f4565b6040516bffffffffffffffffffffffff19606083901b16602082015260009081906034016040516020818303038152906040528051906020012090506000620011038260405180602001620010e290620021f2565b6020820181038252601f19601f820116604052508051906020012062001a83565b949350505050565b62001117600a62000e0f565b60008060006200112b85338660026200185b565b91945092509050620011496001600160a01b03841633848762001af8565b6040805186815260208101869052908101829052600260608201523360808201527ff6d712df0bc2e9953a525976e57448a1dcb9b85f49402ab6cce0cea20fc5249c9060a00162000d5a565b600054610100900460ff1680620011af575060005460ff16155b620012145760405162461bcd60e51b815260206004820152602e60248201527f496e697469616c697a61626c653a20636f6e747261637420697320616c72656160448201526d191e481a5b9a5d1a585b1a5e995960921b60648201526084016200055e565b600054610100900460ff1615801562001237576000805461ffff19166101011790555b62001242826200179b565b801562000f9d576000805461ff00191690555050565b6068546040516340d1b7db60e11b8152600481018390526000916001600160a01b0316906381a36fb69060240160206040518083038186803b1580156200129e57600080fd5b505afa158015620012b3573d6000803e3d6000fd5b505050506040513d601f19601f82011682018060405250810190620012d991906200221f565b90506000620012e8826200108d565b9050803b15620012f757505050565b6000620013048362001b88565b604080518681526001600160a01b03868116602083015283168183015290519192507fb3f4e35b757d28b36d957b4485e408df4f1b3a43f1fe56a7a74eb66f9904d734919081900360600190a150505050565b6033546001600160a01b03163314620013b35760405162461bcd60e51b815260206004820181905260248201527f4f776e61626c653a2063616c6c6572206973206e6f7420746865206f776e657260448201526064016200055e565b6001600160a01b038116620014315760405162461bcd60e51b815260206004820152602660248201527f4f776e61626c653a206e6577206f776e657220697320746865207a65726f206160448201527f646472657373000000000000000000000000000000000000000000000000000060648201526084016200055e565b6033546040516001600160a01b038084169216907f8be0079c531659141344cd1fd0a4f28419497f9722a3daafe3b4186f6b6457e090600090a3603380546001600160a01b0319166001600160a01b0392909216919091179055565b6000620014a26033546001600160a01b031690565b6001600160a01b0316336001600160a01b031614806200155c5750606860009054906101000a90046001600160a01b03166001600160a01b0316630d43e8ad6040518163ffffffff1660e01b815260040160206040518083038186803b1580156200150c57600080fd5b505afa15801562001521573d6000803e3d6000fd5b505050506040513d601f19601f820116820180604052508101906200154791906200221f565b6001600160a01b0316336001600160a01b0316145b620015aa5760405162461bcd60e51b815260206004820152601960248201527f4c505374616b696e673a204e6f7420617574686f72697a65640000000000000060448201526064016200055e565b6068546040516340d1b7db60e11b8152600481018590526000916001600160a01b0316906381a36fb69060240160206040518083038186803b158015620015f057600080fd5b505afa15801562001605573d6000803e3d6000fd5b505050506040513d601f19601f820116820180604052508101906200162b91906200221f565b905060006200163a826200108d565b9050803b1580620016bd5750806001600160a01b03166318160ddd6040518163ffffffff1660e01b815260040160206040518083038186803b1580156200168057600080fd5b505afa15801562001695573d6000803e3d6000fd5b505050506040513d601f19601f82011682018060405250810190620016bb91906200235d565b155b15620016cf576000925050506200094c565b620016e66001600160a01b03831633838762001af8565b506001949350505050565b6033546001600160a01b031633146200174d5760405162461bcd60e51b815260206004820181905260248201527f4f776e61626c653a2063616c6c6572206973206e6f7420746865206f776e657260448201526064016200055e565b6000818152606660209081526040808320805460ff191690558051848152918201929092527f77f1fcfcce67dc392d64f842056d2ec06c80986c47c910f7e79c5b23a2738d7491016200061c565b803b620018115760405162461bcd60e51b815260206004820152603960248201527f5570677261646561626c65426561636f6e3a206368696c6420696d706c656d6560448201527f6e746174696f6e206973206e6f74206120636f6e74726163740000000000000060648201526084016200055e565b606780546001600160a01b0319166001600160a01b0383169081179091556040517fbc7cd75a20ee27fd9adebab32041f755214dbc6bffa90cc0225b39da2e5c2d3b90600090a250565b60008060006200186b8762001258565b6068546040516340d1b7db60e11b8152600481018990526000916001600160a01b0316906381a36fb69060240160206040518083038186803b158015620018b157600080fd5b505afa158015620018c6573d6000803e3d6000fd5b505050506040513d601f19601f82011682018060405250810190620018ec91906200221f565b90506000620018fb826200108d565b6040517f7efe41b10000000000000000000000000000000000000000000000000000000081526001600160a01b038a81166004830152602482018a905260448201899052919250600091831690637efe41b190606401602060405180830381600087803b1580156200196c57600080fd5b505af115801562001981573d6000803e3d6000fd5b505050506040513d601f19601f82011682018060405250810190620019a791906200235d565b929a91995091975095505050505050565b600054610100900460ff1680620019d2575060005460ff16155b62001a375760405162461bcd60e51b815260206004820152602e60248201527f496e697469616c697a61626c653a20636f6e747261637420697320616c72656160448201526d191e481a5b9a5d1a585b1a5e995960921b60648201526084016200055e565b600054610100900460ff1615801562001a5a576000805461ffff19166101011790555b62001a6462001d22565b62001a6e62001dd8565b80156200068e576000805461ff001916905550565b604080517fff000000000000000000000000000000000000000000000000000000000000006020808301919091526bffffffffffffffffffffffff193060601b166021830152603582018590526055808301859052835180840390910181526075909201909252805191012060009062000567565b604080516001600160a01b0385811660248301528416604482015260648082018490528251808303909101815260849091019091526020810180517bffffffffffffffffffffffffffffffffffffffffffffffffffffffff167f23b872dd0000000000000000000000000000000000000000000000000000000017905262001b8290859062001ed2565b50505050565b600080826001600160a01b03166395d89b416040518163ffffffff1660e01b815260040160006040518083038186803b15801562001bc557600080fd5b505afa15801562001bda573d6000803e3d6000fd5b505050506040513d6000823e601f3d908101601f1916820160405262001c0491908101906200229a565b90508060405160200162001c1991906200244c565b60408051601f19818403018152908290526bffffffffffffffffffffffff19606086901b1660208301529150600090603401604051602081830303815290604052805190602001209050600062001c976000836040518060200162001c7e90620021f2565b601f1982820381018352601f9091011660405262001fc3565b6040517f30fe73fd0000000000000000000000000000000000000000000000000000000081529091506001600160a01b038216906330fe73fd9062001ce59088908790819060040162002493565b600060405180830381600087803b15801562001d0057600080fd5b505af115801562001d15573d6000803e3d6000fd5b5092979650505050505050565b600054610100900460ff168062001d3c575060005460ff16155b62001da15760405162461bcd60e51b815260206004820152602e60248201527f496e697469616c697a61626c653a20636f6e747261637420697320616c72656160448201526d191e481a5b9a5d1a585b1a5e995960921b60648201526084016200055e565b600054610100900460ff1615801562001a6e576000805461ffff191661010117905580156200068e576000805461ff001916905550565b600054610100900460ff168062001df2575060005460ff16155b62001e575760405162461bcd60e51b815260206004820152602e60248201527f496e697469616c697a61626c653a20636f6e747261637420697320616c72656160448201526d191e481a5b9a5d1a585b1a5e995960921b60648201526084016200055e565b600054610100900460ff1615801562001e7a576000805461ffff19166101011790555b603380546001600160a01b0319163390811790915560405181906000907f8be0079c531659141344cd1fd0a4f28419497f9722a3daafe3b4186f6b6457e0908290a35080156200068e576000805461ff001916905550565b600062001f29826040518060400160405280602081526020017f5361666545524332303a206c6f772d6c6576656c2063616c6c206661696c6564815250856001600160a01b0316620020cb9092919063ffffffff16565b80519091501562001fbe578080602001905181019062001f4a91906200227b565b62001fbe5760405162461bcd60e51b815260206004820152602a60248201527f5361666545524332303a204552433230206f7065726174696f6e20646964206e60448201527f6f7420737563636565640000000000000000000000000000000000000000000060648201526084016200055e565b505050565b60008084471015620020185760405162461bcd60e51b815260206004820152601d60248201527f437265617465323a20696e73756666696369656e742062616c616e636500000060448201526064016200055e565b8251620020685760405162461bcd60e51b815260206004820181905260248201527f437265617465323a2062797465636f6465206c656e677468206973207a65726f60448201526064016200055e565b8383516020850187f590506001600160a01b038116620011035760405162461bcd60e51b815260206004820152601960248201527f437265617465323a204661696c6564206f6e206465706c6f790000000000000060448201526064016200055e565b606062001103848460008585843b620021275760405162461bcd60e51b815260206004820152601d60248201527f416464726573733a2063616c6c20746f206e6f6e2d636f6e747261637400000060448201526064016200055e565b600080866001600160a01b031685876040516200214591906200242e565b60006040518083038185875af1925050503d806000811462002184576040519150601f19603f3d011682016040523d82523d6000602084013e62002189565b606091505b50915091506200219b828286620021a6565b979650505050505050565b60608315620021b757508162000567565b825115620021c85782518084602001fd5b8160405162461bcd60e51b81526004016200055e9190620024d5565b611bcd80620025a283390190565b610810806200416f83390190565b60006020828403121562002212578081fd5b813562000567816200257c565b60006020828403121562002231578081fd5b815162000567816200257c565b6000806040838503121562002251578081fd5b82356200225e816200257c565b91506020830135620022708162002592565b809150509250929050565b6000602082840312156200228d578081fd5b8151620005678162002592565b600060208284031215620022ac578081fd5b815167ffffffffffffffff80821115620022c4578283fd5b818401915084601f830112620022d8578283fd5b815181811115620022ed57620022ed62002566565b604051601f8201601f19908116603f0116810190838211818310171562002318576200231862002566565b8160405282815287602084870101111562002331578586fd5b6200219b83602083016020880162002537565b60006020828403121562002356578081fd5b5035919050565b6000602082840312156200236f578081fd5b5051919050565b6000806040838503121562002389578182fd5b82359150602083013562002270816200257c565b60008060408385031215620023b0578182fd5b50508035926020909101359150565b60008060008060808587031215620023d5578182fd5b84359350602085013592506040850135620023f0816200257c565b9396929550929360600135925050565b600081518084526200241a81602086016020860162002537565b601f01601f19169290920160200192915050565b600082516200244281846020870162002537565b9190910192915050565b7f78000000000000000000000000000000000000000000000000000000000000008152600082516200248681600185016020870162002537565b9190910160010192915050565b6001600160a01b0384168152606060208201526000620024b7606083018562002400565b8281036040840152620024cb818562002400565b9695505050505050565b60208152600062000567602083018462002400565b6000826200250657634e487b7160e01b81526012600452602481fd5b500490565b60008160001904831182151516156200253257634e487b7160e01b81526011600452602481fd5b500290565b60005b83811015620025545781810151838201526020016200253a565b8381111562001b825750506000910152565b634e487b7160e01b600052604160045260246000fd5b6001600160a01b03811681146200068e57600080fd5b80151581146200068e57600080fdfe608060405234801561001057600080fd5b50611bad806100206000396000f3fe608060405234801561001057600080fd5b506004361061016c5760003560e01c80637efe41b1116100cd578063b068498d11610081578063c55dae6311610066578063c55dae63146102f4578063dd62ed3e14610307578063f2fde38b1461034057600080fd5b8063b068498d146102b8578063c19ea053146102cb57600080fd5b806395d89b41116100b257806395d89b411461028a578063a457c2d714610292578063a9059cbb146102a557600080fd5b80637efe41b1146102525780638da5cb5b1461026557600080fd5b806330fe73fd116101245780633950935111610109578063395093511461020e57806370a0823114610221578063715018a61461024a57600080fd5b806330fe73fd146101ea578063313ce567146101ff57600080fd5b806318160ddd1161015557806318160ddd146101b257806319e616a3146101c457806323b872dd146101d757600080fd5b806306fdde0314610171578063095ea7b31461018f575b600080fd5b610179610353565b6040516101869190611a4f565b60405180910390f35b6101a261019d3660046119bc565b6103e5565b6040519015158152602001610186565b6067545b604051908152602001610186565b6101b66101d23660046119bc565b6103fb565b6101a26101e5366004611910565b6105b1565b6101fd6101f836600461194b565b610679565b005b60405160128152602001610186565b6101a261021c3660046119bc565b610769565b6101b661022f3660046118c4565b6001600160a01b031660009081526065602052604090205490565b6101fd6107a0565b6101b66102603660046119e5565b610851565b6033546001600160a01b03165b6040516001600160a01b039091168152602001610186565b61017961098c565b6101a26102a03660046119bc565b61099b565b6101a26102b33660046119bc565b610a4e565b6101fd6102c63660046119bc565b610a5b565b6101b66102d93660046118c4565b6001600160a01b031660009081526098602052604090205490565b609754610272906001600160a01b031681565b6101b66103153660046118de565b6001600160a01b03918216600090815260666020908152604080832093909416825291909152205490565b6101fd61034e3660046118c4565b610b1d565b60606068805461036290611b10565b80601f016020809104026020016040519081016040528092919081815260200182805461038e90611b10565b80156103db5780601f106103b0576101008083540402835291602001916103db565b820191906000526020600020905b8154815290600101906020018083116103be57829003601f168201915b5050505050905090565b60006103f2338484610c5c565b50600192915050565b6033546000906001600160a01b0316331461045d5760405162461bcd60e51b815260206004820181905260248201527f4f776e61626c653a2063616c6c6572206973206e6f7420746865206f776e657260448201526064015b60405180910390fd5b600061046860675490565b6097546040516370a0823160e01b815230600482015291925060009183916001600160a01b0316906370a082319060240160206040518083038186803b1580156104b157600080fd5b505afa1580156104c5573d6000803e3d6000fd5b505050506040513d601f19601f820116820180604052508101906104e99190611a37565b6104f39086611ada565b6104fd9190611aba565b90506105098585610db5565b6097546040517fa9059cbb0000000000000000000000000000000000000000000000000000000081526001600160a01b038781166004830152602482018490529091169063a9059cbb90604401602060405180830381600087803b15801561057057600080fd5b505af1158015610584573d6000803e3d6000fd5b505050506040513d601f19601f820116820180604052508101906105a89190611a17565b50949350505050565b60006105be848484610e18565b6001600160a01b0384166000908152606660209081526040808320338452909152902054828110156106585760405162461bcd60e51b815260206004820152602860248201527f45524332303a207472616e7366657220616d6f756e742065786365656473206160448201527f6c6c6f77616e63650000000000000000000000000000000000000000000000006064820152608401610454565b61066c85336106678685611af9565b610c5c565b60019150505b9392505050565b600054610100900460ff1680610692575060005460ff16155b6106f55760405162461bcd60e51b815260206004820152602e60248201527f496e697469616c697a61626c653a20636f6e747261637420697320616c72656160448201526d191e481a5b9a5d1a585b1a5e995960921b6064820152608401610454565b600054610100900460ff16158015610717576000805461ffff19166101011790555b61071f610e7d565b6107298383610f40565b6097805473ffffffffffffffffffffffffffffffffffffffff19166001600160a01b0386161790558015610763576000805461ff00191690555b50505050565b3360008181526066602090815260408083206001600160a01b038716845290915281205490916103f2918590610667908690611aa2565b6033546001600160a01b031633146107fa5760405162461bcd60e51b815260206004820181905260248201527f4f776e61626c653a2063616c6c6572206973206e6f7420746865206f776e65726044820152606401610454565b6033546040516000916001600160a01b0316907f8be0079c531659141344cd1fd0a4f28419497f9722a3daafe3b4186f6b6457e0908390a36033805473ffffffffffffffffffffffffffffffffffffffff19169055565b6033546000906001600160a01b031633146108ae5760405162461bcd60e51b815260206004820181905260248201527f4f776e61626c653a2063616c6c6572206973206e6f7420746865206f776e65726044820152606401610454565b6097546040516370a0823160e01b81523060048201526000916001600160a01b0316906370a082319060240160206040518083038186803b1580156108f257600080fd5b505afa158015610906573d6000803e3d6000fd5b505050506040513d601f19601f8201168201806040525081019061092a9190611a37565b9050600061093760675490565b9050801580610944575081155b1561095e57610954868686611006565b8492505050610672565b60008261096b8388611ada565b6109759190611aba565b9050610982878287611006565b9250610672915050565b60606069805461036290611b10565b3360009081526066602090815260408083206001600160a01b038616845290915281205482811015610a355760405162461bcd60e51b815260206004820152602560248201527f45524332303a2064656372656173656420616c6c6f77616e63652062656c6f7760448201527f207a65726f0000000000000000000000000000000000000000000000000000006064820152608401610454565b610a4433856106678685611af9565b5060019392505050565b60006103f2338484610e18565b6033546001600160a01b03163314610ab55760405162461bcd60e51b815260206004820181905260248201527f4f776e61626c653a2063616c6c6572206973206e6f7420746865206f776e65726044820152606401610454565b6000610ac18242611aa2565b6001600160a01b038416600081815260986020908152604091829020849055815192835282018390529192507f38f63775093182d55eb9f15cb41c506fd976eadb1b4544ba0aeaed494ee70cde910160405180910390a1505050565b6033546001600160a01b03163314610b775760405162461bcd60e51b815260206004820181905260248201527f4f776e61626c653a2063616c6c6572206973206e6f7420746865206f776e65726044820152606401610454565b6001600160a01b038116610bf35760405162461bcd60e51b815260206004820152602660248201527f4f776e61626c653a206e6577206f776e657220697320746865207a65726f206160448201527f64647265737300000000000000000000000000000000000000000000000000006064820152608401610454565b6033546040516001600160a01b038084169216907f8be0079c531659141344cd1fd0a4f28419497f9722a3daafe3b4186f6b6457e090600090a36033805473ffffffffffffffffffffffffffffffffffffffff19166001600160a01b0392909216919091179055565b6001600160a01b038316610cd75760405162461bcd60e51b8152602060048201526024808201527f45524332303a20617070726f76652066726f6d20746865207a65726f2061646460448201527f72657373000000000000000000000000000000000000000000000000000000006064820152608401610454565b6001600160a01b038216610d535760405162461bcd60e51b815260206004820152602260248201527f45524332303a20617070726f766520746f20746865207a65726f20616464726560448201527f73730000000000000000000000000000000000000000000000000000000000006064820152608401610454565b6001600160a01b0383811660008181526066602090815260408083209487168084529482529182902085905590518481527f8c5be1e5ebec7d5bd14f71427d1e84f3dd0314c0f7b2291e5b200ac8c7c3b92591015b60405180910390a3505050565b6001600160a01b0382166000908152609860205260409020544211610e0a5760405162461bcd60e51b815260206004820152600b60248201526a155cd95c881b1bd8dad95960aa1b6044820152606401610454565b610e148282611073565b5050565b6001600160a01b0383166000908152609860205260409020544211610e6d5760405162461bcd60e51b815260206004820152600b60248201526a155cd95c881b1bd8dad95960aa1b6044820152606401610454565b610e788383836111f9565b505050565b600054610100900460ff1680610e96575060005460ff16155b610ef95760405162461bcd60e51b815260206004820152602e60248201527f496e697469616c697a61626c653a20636f6e747261637420697320616c72656160448201526d191e481a5b9a5d1a585b1a5e995960921b6064820152608401610454565b600054610100900460ff16158015610f1b576000805461ffff19166101011790555b610f2361141a565b610f2b6114cb565b8015610f3d576000805461ff00191690555b50565b600054610100900460ff1680610f59575060005460ff16155b610fbc5760405162461bcd60e51b815260206004820152602e60248201527f496e697469616c697a61626c653a20636f6e747261637420697320616c72656160448201526d191e481a5b9a5d1a585b1a5e995960921b6064820152608401610454565b600054610100900460ff16158015610fde576000805461ffff19166101011790555b610fe661141a565b610ff083836115cd565b8015610e78576000805461ff0019169055505050565b60006110128242611aa2565b6001600160a01b038516600081815260986020908152604091829020849055815192835282018390529192507f38f63775093182d55eb9f15cb41c506fd976eadb1b4544ba0aeaed494ee70cde910160405180910390a161076384846116a9565b6001600160a01b0382166110ef5760405162461bcd60e51b815260206004820152602160248201527f45524332303a206275726e2066726f6d20746865207a65726f2061646472657360448201527f73000000000000000000000000000000000000000000000000000000000000006064820152608401610454565b6001600160a01b0382166000908152606560205260409020548181101561117e5760405162461bcd60e51b815260206004820152602260248201527f45524332303a206275726e20616d6f756e7420657863656564732062616c616e60448201527f63650000000000000000000000000000000000000000000000000000000000006064820152608401610454565b6111888282611af9565b6001600160a01b038416600090815260656020526040812091909155606780548492906111b6908490611af9565b90915550506040518281526000906001600160a01b038516907fddf252ad1be2c89b69c2b068fc378daa952ba7f163c4a11628f55a4df523b3ef90602001610da8565b6001600160a01b0383166112755760405162461bcd60e51b815260206004820152602560248201527f45524332303a207472616e736665722066726f6d20746865207a65726f20616460448201527f64726573730000000000000000000000000000000000000000000000000000006064820152608401610454565b6001600160a01b0382166112f15760405162461bcd60e51b815260206004820152602360248201527f45524332303a207472616e7366657220746f20746865207a65726f206164647260448201527f65737300000000000000000000000000000000000000000000000000000000006064820152608401610454565b6001600160a01b038316600090815260656020526040902054818110156113805760405162461bcd60e51b815260206004820152602660248201527f45524332303a207472616e7366657220616d6f756e742065786365656473206260448201527f616c616e636500000000000000000000000000000000000000000000000000006064820152608401610454565b61138a8282611af9565b6001600160a01b0380861660009081526065602052604080822093909355908516815290812080548492906113c0908490611aa2565b92505081905550826001600160a01b0316846001600160a01b03167fddf252ad1be2c89b69c2b068fc378daa952ba7f163c4a11628f55a4df523b3ef8460405161140c91815260200190565b60405180910390a350505050565b600054610100900460ff1680611433575060005460ff16155b6114965760405162461bcd60e51b815260206004820152602e60248201527f496e697469616c697a61626c653a20636f6e747261637420697320616c72656160448201526d191e481a5b9a5d1a585b1a5e995960921b6064820152608401610454565b600054610100900460ff16158015610f2b576000805461ffff19166101011790558015610f3d576000805461ff001916905550565b600054610100900460ff16806114e4575060005460ff16155b6115475760405162461bcd60e51b815260206004820152602e60248201527f496e697469616c697a61626c653a20636f6e747261637420697320616c72656160448201526d191e481a5b9a5d1a585b1a5e995960921b6064820152608401610454565b600054610100900460ff16158015611569576000805461ffff19166101011790555b6033805473ffffffffffffffffffffffffffffffffffffffff19163390811790915560405181906000907f8be0079c531659141344cd1fd0a4f28419497f9722a3daafe3b4186f6b6457e0908290a3508015610f3d576000805461ff001916905550565b600054610100900460ff16806115e6575060005460ff16155b6116495760405162461bcd60e51b815260206004820152602e60248201527f496e697469616c697a61626c653a20636f6e747261637420697320616c72656160448201526d191e481a5b9a5d1a585b1a5e995960921b6064820152608401610454565b600054610100900460ff1615801561166b576000805461ffff19166101011790555b825161167e906068906020860190611788565b508151611692906069906020850190611788565b508015610e78576000805461ff0019169055505050565b6001600160a01b0382166116ff5760405162461bcd60e51b815260206004820152601f60248201527f45524332303a206d696e7420746f20746865207a65726f2061646472657373006044820152606401610454565b80606760008282546117119190611aa2565b90915550506001600160a01b0382166000908152606560205260408120805483929061173e908490611aa2565b90915550506040518181526001600160a01b038316906000907fddf252ad1be2c89b69c2b068fc378daa952ba7f163c4a11628f55a4df523b3ef9060200160405180910390a35050565b82805461179490611b10565b90600052602060002090601f0160209004810192826117b657600085556117fc565b82601f106117cf57805160ff19168380011785556117fc565b828001600101855582156117fc579182015b828111156117fc5782518255916020019190600101906117e1565b5061180892915061180c565b5090565b5b80821115611808576000815560010161180d565b80356001600160a01b038116811461183857600080fd5b919050565b600082601f83011261184d578081fd5b813567ffffffffffffffff8082111561186857611868611b61565b604051601f8301601f19908116603f0116810190828211818310171561189057611890611b61565b816040528381528660208588010111156118a8578485fd5b8360208701602083013792830160200193909352509392505050565b6000602082840312156118d5578081fd5b61067282611821565b600080604083850312156118f0578081fd5b6118f983611821565b915061190760208401611821565b90509250929050565b600080600060608486031215611924578081fd5b61192d84611821565b925061193b60208501611821565b9150604084013590509250925092565b60008060006060848603121561195f578283fd5b61196884611821565b9250602084013567ffffffffffffffff80821115611984578384fd5b6119908783880161183d565b935060408601359150808211156119a5578283fd5b506119b28682870161183d565b9150509250925092565b600080604083850312156119ce578182fd5b6119d783611821565b946020939093013593505050565b6000806000606084860312156119f9578283fd5b611a0284611821565b95602085013595506040909401359392505050565b600060208284031215611a28578081fd5b81518015158114610672578182fd5b600060208284031215611a48578081fd5b5051919050565b6000602080835283518082850152825b81811015611a7b57858101830151858201604001528201611a5f565b81811115611a8c5783604083870101525b50601f01601f1916929092016040019392505050565b60008219821115611ab557611ab5611b4b565b500190565b600082611ad557634e487b7160e01b81526012600452602481fd5b500490565b6000816000190483118215151615611af457611af4611b4b565b500290565b600082821015611b0b57611b0b611b4b565b500390565b600181811c90821680611b2457607f821691505b60208210811415611b4557634e487b7160e01b600052602260045260246000fd5b50919050565b634e487b7160e01b600052601160045260246000fd5b634e487b7160e01b600052604160045260246000fdfea26469706673582212207edd9c5032f2879a0b24892d5637f182b70baef12a43c310d7b3d2363a73649e64736f6c63430008040033608060405261002f60017fa3f0ad74e5423aebfd80d3ef4346578335a9a72aeaee59ff6cb3582b35133d51610451565b6000805160206107cf8339815191521461005957634e487b7160e01b600052600160045260246000fd5b610078336040518060200160405280600081525061007d60201b60201c565b6104a0565b6100908261023860201b6100291760201c565b6100ef5760405162461bcd60e51b815260206004820152602560248201527f426561636f6e50726f78793a20626561636f6e206973206e6f74206120636f6e6044820152641d1c9858dd60da1b60648201526084015b60405180910390fd5b610172826001600160a01b031663da5257166040518163ffffffff1660e01b815260040160206040518083038186803b15801561012b57600080fd5b505afa15801561013f573d6000803e3d6000fd5b505050506040513d601f19601f8201168201806040525081019061016391906103db565b61023860201b6100291760201c565b6101e45760405162461bcd60e51b815260206004820152603460248201527f426561636f6e50726f78793a20626561636f6e20696d706c656d656e7461746960448201527f6f6e206973206e6f74206120636f6e747261637400000000000000000000000060648201526084016100e6565b6000805160206107cf8339815191528281558151156102335761023161020861023e565b836040518060600160405280602181526020016107ef602191396102cb60201b61002f1760201c565b505b505050565b3b151590565b60006102566000805160206107cf8339815191525490565b6001600160a01b031663da5257166040518163ffffffff1660e01b815260040160206040518083038186803b15801561028e57600080fd5b505afa1580156102a2573d6000803e3d6000fd5b505050506040513d601f19601f820116820180604052508101906102c691906103db565b905090565b6060833b61032a5760405162461bcd60e51b815260206004820152602660248201527f416464726573733a2064656c65676174652063616c6c20746f206e6f6e2d636f6044820152651b9d1c9858dd60d21b60648201526084016100e6565b600080856001600160a01b0316856040516103459190610402565b600060405180830381855af49150503d8060008114610380576040519150601f19603f3d011682016040523d82523d6000602084013e610385565b606091505b5090925090506103968282866103a2565b925050505b9392505050565b606083156103b157508161039b565b8251156103c15782518084602001fd5b8160405162461bcd60e51b81526004016100e6919061041e565b6000602082840312156103ec578081fd5b81516001600160a01b038116811461039b578182fd5b60008251610414818460208701610474565b9190910192915050565b602081526000825180602084015261043d816040850160208701610474565b601f01601f19169190910160400192915050565b60008282101561046f57634e487b7160e01b81526011600452602481fd5b500390565b60005b8381101561048f578181015183820152602001610477565b838111156102315750506000910152565b610320806104af6000396000f3fe60806040523661001357610011610017565b005b6100115b61002761002261012e565b6101da565b565b3b151590565b6060833b6100aa5760405162461bcd60e51b815260206004820152602660248201527f416464726573733a2064656c65676174652063616c6c20746f206e6f6e2d636f60448201527f6e7472616374000000000000000000000000000000000000000000000000000060648201526084015b60405180910390fd5b6000808573ffffffffffffffffffffffffffffffffffffffff16856040516100d2919061026b565b600060405180830381855af49150503d806000811461010d576040519150601f19603f3d011682016040523d82523d6000602084013e610112565b606091505b50915091506101228282866101fe565b925050505b9392505050565b60006101587fa3f0ad74e5423aebfd80d3ef4346578335a9a72aeaee59ff6cb3582b35133d505490565b73ffffffffffffffffffffffffffffffffffffffff1663da5257166040518163ffffffff1660e01b815260040160206040518083038186803b15801561019d57600080fd5b505afa1580156101b1573d6000803e3d6000fd5b505050506040513d601f19601f820116820180604052508101906101d59190610237565b905090565b3660008037600080366000845af43d6000803e8080156101f9573d6000f35b3d6000fd5b6060831561020d575081610127565b82511561021d5782518084602001fd5b8160405162461bcd60e51b81526004016100a19190610287565b600060208284031215610248578081fd5b815173ffffffffffffffffffffffffffffffffffffffff81168114610127578182fd5b6000825161027d8184602087016102ba565b9190910192915050565b60208152600082518060208401526102a68160408501602087016102ba565b601f01601f19169190910160400192915050565b60005b838110156102d55781810151838201526020016102bd565b838111156102e4576000848401525b5050505056fea2646970667358221220186f38c9868951054a26d8e78dfc388c93ba31dab42cd0982029e5f5f85fc42164736f6c63430008040033a3f0ad74e5423aebfd80d3ef4346578335a9a72aeaee59ff6cb3582b35133d50426561636f6e50726f78793a2066756e6374696f6e2063616c6c206661696c6564a26469706673582212206cdf6a891cec3878ac9fd22c03f7a3e9f3f0934c24ae90c3826723a1bd11c50864736f6c63430008040033",
  "linkReferences": {},
  "deployedLinkReferences": {}
}