{
  "contractName": "BasePool",
  "abi": [
    {
      "inputs": [
        {
          "internalType": "contract IERC20Extended",
          "name": "_nativeAsset",
          "type": "address"
        },
        {
          "internalType": "contract IERC20Extended",
          "name": "_foreignAsset",
          "type": "address"
        }
      ],
      "stateMutability": "nonpayable",
      "type": "constructor"
    },
    {
      "anonymous": false,
      "inputs": [
        {
          "indexed": true,
          "internalType": "address",
          "name": "owner",
          "type": "address"
        },
        {
          "indexed": true,
          "internalType": "address",
          "name": "approved",
          "type": "address"
        },
        {
          "indexed": true,
          "internalType": "uint256",
          "name": "tokenId",
          "type": "uint256"
        }
      ],
      "name": "Approval",
      "type": "event"
    },
    {
      "anonymous": false,
      "inputs": [
        {
          "indexed": true,
          "internalType": "address",
          "name": "owner",
          "type": "address"
        },
        {
          "indexed": true,
          "internalType": "address",
          "name": "operator",
          "type": "address"
        },
        {
          "indexed": false,
          "internalType": "bool",
          "name": "approved",
          "type": "bool"
        }
      ],
      "name": "ApprovalForAll",
      "type": "event"
    },
    {
      "anonymous": false,
      "inputs": [
        {
          "indexed": true,
          "internalType": "address",
          "name": "sender",
          "type": "address"
        },
        {
          "indexed": false,
          "internalType": "uint256",
          "name": "amount0",
          "type": "uint256"
        },
        {
          "indexed": false,
          "internalType": "uint256",
          "name": "amount1",
          "type": "uint256"
        },
        {
          "indexed": true,
          "internalType": "address",
          "name": "to",
          "type": "address"
        }
      ],
      "name": "Burn",
      "type": "event"
    },
    {
      "anonymous": false,
      "inputs": [
        {
          "indexed": true,
          "internalType": "address",
          "name": "sender",
          "type": "address"
        },
        {
          "indexed": true,
          "internalType": "address",
          "name": "to",
          "type": "address"
        },
        {
          "indexed": false,
          "internalType": "uint256",
          "name": "amount0",
          "type": "uint256"
        },
        {
          "indexed": false,
          "internalType": "uint256",
          "name": "amount1",
          "type": "uint256"
        }
      ],
      "name": "Mint",
      "type": "event"
    },
    {
      "anonymous": false,
      "inputs": [
        {
          "indexed": true,
          "internalType": "address",
          "name": "previousOwner",
          "type": "address"
        },
        {
          "indexed": true,
          "internalType": "address",
          "name": "newOwner",
          "type": "address"
        }
      ],
      "name": "OwnershipTransferred",
      "type": "event"
    },
    {
      "anonymous": false,
      "inputs": [
        {
          "indexed": true,
          "internalType": "address",
          "name": "sender",
          "type": "address"
        },
        {
          "indexed": false,
          "internalType": "uint256",
          "name": "id",
          "type": "uint256"
        },
        {
          "indexed": false,
          "internalType": "uint256",
          "name": "liquidity",
          "type": "uint256"
        },
        {
          "indexed": false,
          "internalType": "uint256",
          "name": "loss",
          "type": "uint256"
        }
      ],
      "name": "PositionClosed",
      "type": "event"
    },
    {
      "anonymous": false,
      "inputs": [
        {
          "indexed": true,
          "internalType": "address",
          "name": "sender",
          "type": "address"
        },
        {
          "indexed": false,
          "internalType": "uint256",
          "name": "id",
          "type": "uint256"
        },
        {
          "indexed": false,
          "internalType": "uint256",
          "name": "liquidity",
          "type": "uint256"
        }
      ],
      "name": "PositionOpened",
      "type": "event"
    },
    {
      "anonymous": false,
      "inputs": [
        {
          "indexed": true,
          "internalType": "address",
          "name": "sender",
          "type": "address"
        },
        {
          "indexed": false,
          "internalType": "uint256",
          "name": "amount0In",
          "type": "uint256"
        },
        {
          "indexed": false,
          "internalType": "uint256",
          "name": "amount1In",
          "type": "uint256"
        },
        {
          "indexed": false,
          "internalType": "uint256",
          "name": "amount0Out",
          "type": "uint256"
        },
        {
          "indexed": false,
          "internalType": "uint256",
          "name": "amount1Out",
          "type": "uint256"
        },
        {
          "indexed": true,
          "internalType": "address",
          "name": "to",
          "type": "address"
        }
      ],
      "name": "Swap",
      "type": "event"
    },
    {
      "anonymous": false,
      "inputs": [
        {
          "indexed": false,
          "internalType": "uint256",
          "name": "reserve0",
          "type": "uint256"
        },
        {
          "indexed": false,
          "internalType": "uint256",
          "name": "reserve1",
          "type": "uint256"
        }
      ],
      "name": "Sync",
      "type": "event"
    },
    {
      "anonymous": false,
      "inputs": [
        {
          "indexed": true,
          "internalType": "address",
          "name": "from",
          "type": "address"
        },
        {
          "indexed": true,
          "internalType": "address",
          "name": "to",
          "type": "address"
        },
        {
          "indexed": true,
          "internalType": "uint256",
          "name": "tokenId",
          "type": "uint256"
        }
      ],
      "name": "Transfer",
      "type": "event"
    },
    {
      "inputs": [
        {
          "internalType": "address",
          "name": "to",
          "type": "address"
        },
        {
          "internalType": "uint256",
          "name": "tokenId",
          "type": "uint256"
        }
      ],
      "name": "approve",
      "outputs": [],
      "stateMutability": "nonpayable",
      "type": "function"
    },
    {
      "inputs": [
        {
          "internalType": "address",
          "name": "owner",
          "type": "address"
        }
      ],
      "name": "balanceOf",
      "outputs": [
        {
          "internalType": "uint256",
          "name": "",
          "type": "uint256"
        }
      ],
      "stateMutability": "view",
      "type": "function"
    },
    {
      "inputs": [],
      "name": "foreignAsset",
      "outputs": [
        {
          "internalType": "contract IERC20",
          "name": "",
          "type": "address"
        }
      ],
      "stateMutability": "view",
      "type": "function"
    },
    {
      "inputs": [
        {
          "internalType": "uint256",
          "name": "tokenId",
          "type": "uint256"
        }
      ],
      "name": "getApproved",
      "outputs": [
        {
          "internalType": "address",
          "name": "",
          "type": "address"
        }
      ],
      "stateMutability": "view",
      "type": "function"
    },
    {
      "inputs": [
        {
          "internalType": "address",
          "name": "owner",
          "type": "address"
        },
        {
          "internalType": "address",
          "name": "operator",
          "type": "address"
        }
      ],
      "name": "isApprovedForAll",
      "outputs": [
        {
          "internalType": "bool",
          "name": "",
          "type": "bool"
        }
      ],
      "stateMutability": "view",
      "type": "function"
    },
    {
      "inputs": [],
      "name": "nativeAsset",
      "outputs": [
        {
          "internalType": "contract IERC20",
          "name": "",
          "type": "address"
        }
      ],
      "stateMutability": "view",
      "type": "function"
    },
    {
      "inputs": [],
      "name": "owner",
      "outputs": [
        {
          "internalType": "address",
          "name": "",
          "type": "address"
        }
      ],
      "stateMutability": "view",
      "type": "function"
    },
    {
      "inputs": [
        {
          "internalType": "uint256",
          "name": "tokenId",
          "type": "uint256"
        }
      ],
      "name": "ownerOf",
      "outputs": [
        {
          "internalType": "address",
          "name": "",
          "type": "address"
        }
      ],
      "stateMutability": "view",
      "type": "function"
    },
    {
      "inputs": [],
      "name": "positionId",
      "outputs": [
        {
          "internalType": "uint256",
          "name": "",
          "type": "uint256"
        }
      ],
      "stateMutability": "view",
      "type": "function"
    },
    {
      "inputs": [
        {
          "internalType": "uint256",
          "name": "",
          "type": "uint256"
        }
      ],
      "name": "positions",
      "outputs": [
        {
          "internalType": "uint256",
          "name": "creation",
          "type": "uint256"
        },
        {
          "internalType": "uint256",
          "name": "liquidity",
          "type": "uint256"
        },
        {
          "internalType": "uint256",
          "name": "originalNative",
          "type": "uint256"
        },
        {
          "internalType": "uint256",
          "name": "originalForeign",
          "type": "uint256"
        }
      ],
      "stateMutability": "view",
      "type": "function"
    },
    {
      "inputs": [],
      "name": "priceForeignCumulativeLast",
      "outputs": [
        {
          "internalType": "uint256",
          "name": "",
          "type": "uint256"
        }
      ],
      "stateMutability": "view",
      "type": "function"
    },
    {
      "inputs": [],
      "name": "priceNativeCumulativeLast",
      "outputs": [
        {
          "internalType": "uint256",
          "name": "",
          "type": "uint256"
        }
      ],
      "stateMutability": "view",
      "type": "function"
    },
    {
      "inputs": [],
      "name": "renounceOwnership",
      "outputs": [],
      "stateMutability": "nonpayable",
      "type": "function"
    },
    {
      "inputs": [
        {
          "internalType": "address",
          "name": "from",
          "type": "address"
        },
        {
          "internalType": "address",
          "name": "to",
          "type": "address"
        },
        {
          "internalType": "uint256",
          "name": "tokenId",
          "type": "uint256"
        }
      ],
      "name": "safeTransferFrom",
      "outputs": [],
      "stateMutability": "nonpayable",
      "type": "function"
    },
    {
      "inputs": [
        {
          "internalType": "address",
          "name": "from",
          "type": "address"
        },
        {
          "internalType": "address",
          "name": "to",
          "type": "address"
        },
        {
          "internalType": "uint256",
          "name": "tokenId",
          "type": "uint256"
        },
        {
          "internalType": "bytes",
          "name": "data",
          "type": "bytes"
        }
      ],
      "name": "safeTransferFrom",
      "outputs": [],
      "stateMutability": "nonpayable",
      "type": "function"
    },
    {
      "inputs": [
        {
          "internalType": "address",
          "name": "operator",
          "type": "address"
        },
        {
          "internalType": "bool",
          "name": "approved",
          "type": "bool"
        }
      ],
      "name": "setApprovalForAll",
      "outputs": [],
      "stateMutability": "nonpayable",
      "type": "function"
    },
    {
      "inputs": [
        {
          "internalType": "bytes4",
          "name": "interfaceId",
          "type": "bytes4"
        }
      ],
      "name": "supportsInterface",
      "outputs": [
        {
          "internalType": "bool",
          "name": "",
          "type": "bool"
        }
      ],
      "stateMutability": "view",
      "type": "function"
    },
    {
      "inputs": [],
      "name": "symbol",
      "outputs": [
        {
          "internalType": "string",
          "name": "",
          "type": "string"
        }
      ],
      "stateMutability": "view",
      "type": "function"
    },
    {
      "inputs": [
        {
          "internalType": "uint256",
          "name": "tokenId",
          "type": "uint256"
        }
      ],
      "name": "tokenURI",
      "outputs": [
        {
          "internalType": "string",
          "name": "",
          "type": "string"
        }
      ],
      "stateMutability": "view",
      "type": "function"
    },
    {
      "inputs": [],
      "name": "totalSupply",
      "outputs": [
        {
          "internalType": "uint256",
          "name": "",
          "type": "uint256"
        }
      ],
      "stateMutability": "view",
      "type": "function"
    },
    {
      "inputs": [
        {
          "internalType": "address",
          "name": "from",
          "type": "address"
        },
        {
          "internalType": "address",
          "name": "to",
          "type": "address"
        },
        {
          "internalType": "uint256",
          "name": "tokenId",
          "type": "uint256"
        }
      ],
      "name": "transferFrom",
      "outputs": [],
      "stateMutability": "nonpayable",
      "type": "function"
    },
    {
      "inputs": [
        {
          "internalType": "address",
          "name": "newOwner",
          "type": "address"
        }
      ],
      "name": "transferOwnership",
      "outputs": [],
      "stateMutability": "nonpayable",
      "type": "function"
    },
    {
      "inputs": [],
      "name": "getReserves",
      "outputs": [
        {
          "internalType": "uint112",
          "name": "reserveNative",
          "type": "uint112"
        },
        {
          "internalType": "uint112",
          "name": "reserveForeign",
          "type": "uint112"
        },
        {
          "internalType": "uint32",
          "name": "blockTimestampLast",
          "type": "uint32"
        }
      ],
      "stateMutability": "view",
      "type": "function"
    },
    {
      "inputs": [],
      "name": "name",
      "outputs": [
        {
          "internalType": "string",
          "name": "",
          "type": "string"
        }
      ],
      "stateMutability": "view",
      "type": "function"
    },
    {
      "inputs": [
        {
          "internalType": "address",
          "name": "to",
          "type": "address"
        }
      ],
      "name": "mint",
      "outputs": [
        {
          "internalType": "uint256",
          "name": "liquidity",
          "type": "uint256"
        }
      ],
      "stateMutability": "nonpayable",
      "type": "function"
    },
    {
      "inputs": [
        {
          "internalType": "uint256",
          "name": "nativeAmountIn",
          "type": "uint256"
        },
        {
          "internalType": "uint256",
          "name": "foreignAmountIn",
          "type": "uint256"
        },
        {
          "internalType": "address",
          "name": "to",
          "type": "address"
        },
        {
          "internalType": "bytes",
          "name": "",
          "type": "bytes"
        }
      ],
      "name": "swap",
      "outputs": [
        {
          "internalType": "uint256",
          "name": "",
          "type": "uint256"
        }
      ],
      "stateMutability": "nonpayable",
      "type": "function"
    },
    {
      "inputs": [
        {
          "internalType": "uint256",
          "name": "nativeAmountIn",
          "type": "uint256"
        },
        {
          "internalType": "uint256",
          "name": "foreignAmountIn",
          "type": "uint256"
        },
        {
          "internalType": "address",
          "name": "to",
          "type": "address"
        }
      ],
      "name": "swap",
      "outputs": [
        {
          "internalType": "uint256",
          "name": "",
          "type": "uint256"
        }
      ],
      "stateMutability": "nonpayable",
      "type": "function"
    }
  ],
  "bytecode": "0x60c06040523480156200001157600080fd5b5060405162002c8d38038062002c8d8339810160408190526200003491620002a1565b604080518082018252600881526705661646572204c560c41b6020808301918252835180850190945260038452620564c560ec1b9084015281519192916200007f91600091620001de565b50805162000095906001906020840190620001de565b505050620000b2620000ac6200018860201b60201c565b6200018c565b60016007556001600160a01b03808316608052811660a0819052604080516395d89b4160e01b81529051600092916395d89b419160048083019286929190829003018186803b1580156200010557600080fd5b505afa1580156200011a573d6000803e3d6000fd5b505050506040513d6000823e601f3d908101601f1916820160405262000144919081019062000322565b604051602001620001569190620003da565b60408051601f1981840301815291905280519091506200017e90600d906020840190620001de565b505050506200045a565b3390565b600680546001600160a01b038381166001600160a01b0319831681179093556040519116919082907f8be0079c531659141344cd1fd0a4f28419497f9722a3daafe3b4186f6b6457e090600090a35050565b828054620001ec906200041d565b90600052602060002090601f0160209004810192826200021057600085556200025b565b82601f106200022b57805160ff19168380011785556200025b565b828001600101855582156200025b579182015b828111156200025b5782518255916020019190600101906200023e565b50620002699291506200026d565b5090565b5b808211156200026957600081556001016200026e565b80516001600160a01b03811681146200029c57600080fd5b919050565b60008060408385031215620002b557600080fd5b620002c08362000284565b9150620002d06020840162000284565b90509250929050565b634e487b7160e01b600052604160045260246000fd5b60005b838110156200030c578181015183820152602001620002f2565b838111156200031c576000848401525b50505050565b6000602082840312156200033557600080fd5b81516001600160401b03808211156200034d57600080fd5b818401915084601f8301126200036257600080fd5b815181811115620003775762000377620002d9565b604051601f8201601f19908116603f01168101908382118183101715620003a257620003a2620002d9565b81604052828152876020848701011115620003bc57600080fd5b620003cf836020830160208801620002ef565b979650505050505050565b6b56616465722055534456202f60a01b8152600082516200040381600c850160208701620002ef565b620204c560ec1b600c939091019283015250600f01919050565b600181811c908216806200043257607f821691505b602082108114156200045457634e487b7160e01b600052602260045260246000fd5b50919050565b60805160a0516127f16200049c600039600081816103b90152818161084d0152610c20015260008181610311015281816107b00152610bfe01526127f16000f3fe608060405234801561001057600080fd5b50600436106101a95760003560e01c8063715018a6116100f9578063a3462b1411610097578063c87b56dd11610071578063c87b56dd146103f7578063e985e9c51461040a578063f2fde38b14610446578063faa777c11461045957600080fd5b8063a3462b14146103b4578063a806437d146103db578063b88d4fde146103e457600080fd5b80638da5cb5b116100d35780638da5cb5b1461033357806395d89b411461034457806399fbab881461034c578063a22cb465146103a157600080fd5b8063715018a6146102fb57806371640de31461030357806374d32ad41461030c57600080fd5b806318160ddd116101665780636352211e116101405780636352211e146102af5780636a627842146102c25780636d9a640a146102d557806370a08231146102e857600080fd5b806318160ddd1461028057806323b872dd1461028957806342842e0e1461029c57600080fd5b806301ffc9a7146101ae578063022c0d9f146101d657806306fdde03146101f7578063081812fc1461020c5780630902f1ac14610237578063095ea7b31461026b575b600080fd5b6101c16101bc3660046120f2565b610462565b60405190151581526020015b60405180910390f35b6101e96101e4366004612126565b6104b4565b6040519081526020016101cd565b6101ff6104cb565b6040516101cd9190612212565b61021f61021a366004612225565b61055d565b6040516001600160a01b0390911681526020016101cd565b61023f610584565b604080516001600160701b03948516815293909216602084015263ffffffff16908201526060016101cd565b61027e61027936600461223e565b6105ae565b005b6101e9600c5481565b61027e610297366004612268565b6106c9565b61027e6102aa366004612268565b6106fa565b61021f6102bd366004612225565b610715565b6101e96102d03660046122a4565b610775565b6101e96102e33660046122bf565b610b40565b6101e96102f63660046122a4565b61120a565b61027e611290565b6101e9600b5481565b61021f7f000000000000000000000000000000000000000000000000000000000000000081565b6006546001600160a01b031661021f565b6101ff6112a4565b61038161035a366004612225565b600a6020526000908152604090208054600182015460028301546003909301549192909184565b6040805194855260208501939093529183015260608201526080016101cd565b61027e6103af366004612302565b6112b3565b61021f7f000000000000000000000000000000000000000000000000000000000000000081565b6101e960085481565b61027e6103f236600461234f565b6112c2565b6101ff610405366004612225565b6112fa565b6101c161041836600461242b565b6001600160a01b03918216600090815260056020908152604080832093909416825291909152205460ff1690565b61027e6104543660046122a4565b61136d565b6101e960095481565b60006001600160e01b031982166380ac58cd60e01b148061049357506001600160e01b03198216635b5e139f60e01b145b806104ae57506301ffc9a760e01b6001600160e01b03198316145b92915050565b60006104c1868686610b40565b9695505050505050565b6060600d80546104da9061245e565b80601f01602080910402602001604051908101604052809291908181526020018280546105069061245e565b80156105535780601f1061052857610100808354040283529160200191610553565b820191906000526020600020905b81548152906001019060200180831161053657829003601f168201915b5050505050905090565b6000610568826113e6565b506000908152600460205260409020546001600160a01b031690565b600e546001600160701b0380821692600160701b830490911691600160e01b900463ffffffff1690565b60006105b982610715565b9050806001600160a01b0316836001600160a01b0316141561062c5760405162461bcd60e51b815260206004820152602160248201527f4552433732313a20617070726f76616c20746f2063757272656e74206f776e656044820152603960f91b60648201526084015b60405180910390fd5b336001600160a01b038216148061064857506106488133610418565b6106ba5760405162461bcd60e51b815260206004820152603d60248201527f4552433732313a20617070726f76652063616c6c6572206973206e6f7420746f60448201527f6b656e206f776e6572206f7220617070726f76656420666f7220616c6c0000006064820152608401610623565b6106c48383611445565b505050565b6106d333826114b3565b6106ef5760405162461bcd60e51b815260040161062390612499565b6106c4838383611532565b6106c4838383604051806020016040528060008152506112c2565b6000818152600260205260408120546001600160a01b0316806104ae5760405162461bcd60e51b8152602060048201526018602482015277115490cdcc8c4e881a5b9d985b1a59081d1bdad95b88125160421b6044820152606401610623565b600061077f611696565b60008061078a610584565b506040516370a0823160e01b815230600482015291935091506000906001600160a01b037f000000000000000000000000000000000000000000000000000000000000000016906370a082319060240160206040518083038186803b1580156107f257600080fd5b505afa158015610806573d6000803e3d6000fd5b505050506040513d601f19601f8201168201806040525081019061082a91906124e6565b6040516370a0823160e01b81523060048201529091506000906001600160a01b037f000000000000000000000000000000000000000000000000000000000000000016906370a082319060240160206040518083038186803b15801561088f57600080fd5b505afa1580156108a3573d6000803e3d6000fd5b505050506040513d601f19601f820116820180604052508101906108c791906124e6565b905060006108de6001600160701b03861684612515565b905060006108f56001600160701b03861684612515565b600c5490915080610908578297506109b3565b604051630bd92c2560e01b8152600481018490526001600160701b03808916602483015260448201849052871660648201526084810182905273__VaderMath_____________________________90630bd92c259060a40160206040518083038186803b15801561097857600080fd5b505af415801561098c573d6000803e3d6000fd5b505050506040513d601f19601f820116820180604052508101906109b091906124e6565b97505b60008811610a1b5760405162461bcd60e51b815260206004820152602f60248201527f42617365506f6f6c3a3a6d696e743a20496e73756666696369656e74204c697160448201526e1d5a591a5d1e48141c9bdd9a591959608a1b6064820152608401610623565b600b805460009182610a2c8361252c565b91905055905088600c6000828254610a449190612547565b90915550610a5490508a826116f0565b6040805160808101825242815260208082018c8152828401888152606084018881526000878152600a90945294909220925183555160018301555160028201559051600390910155610aa886868a8a61187b565b60408051858152602081018590526001600160a01b038c169133917f2f00e3cdd69a77be7ed215ec7b2a36784dd158f921fca79ac29deffa353fe6ee910160405180910390a360408051828152602081018b905233917fc491b8e6940cb48fcf9cf813c35e2d45fad221af7d5f4ce18d77dc576e5bf220910160405180910390a25050505050505050610b3b6001600755565b919050565b6000610b4a611696565b600084118015610b58575082155b80610b6c575083158015610b6c5750600083115b610bcf5760405162461bcd60e51b815260206004820152602e60248201527f42617365506f6f6c3a3a737761703a204f6e6c79204f6e652d5369646564205360448201526d1dd85c1cc814dd5c1c1bdc9d195960921b6064820152608401610623565b600080610bda610584565b506040516370a0823160e01b815230600482015291935091506000908190819081907f0000000000000000000000000000000000000000000000000000000000000000907f0000000000000000000000000000000000000000000000000000000000000000906001600160a01b038316906370a082319060240160206040518083038186803b158015610c6c57600080fd5b505afa158015610c80573d6000803e3d6000fd5b505050506040513d601f19601f82011682018060405250810190610ca491906124e6565b6040516370a0823160e01b81523060048201529096506001600160a01b038216906370a082319060240160206040518083038186803b158015610ce657600080fd5b505afa158015610cfa573d6000803e3d6000fd5b505050506040513d601f19601f82011682018060405250810190610d1e91906124e6565b9450816001600160a01b03168a6001600160a01b031614158015610d545750806001600160a01b03168a6001600160a01b031614155b610da05760405162461bcd60e51b815260206004820181905260248201527f42617365506f6f6c3a3a737761703a20496e76616c69642052656365697665726044820152606401610623565b8a15610f1b57610db96001600160701b03881686612515565b8b1115610dd85760405162461bcd60e51b81526004016106239061255f565b866001600160701b03168b1115610e015760405162461bcd60e51b8152600401610623906125ab565b60405163ec6341b360e01b8152600481018c90526001600160701b0380891660248301528916604482015273__VaderMath_____________________________9063ec6341b39060640160206040518083038186803b158015610e6357600080fd5b505af4158015610e77573d6000803e3d6000fd5b505050506040513d601f19601f82011682018060405250810190610e9b91906124e6565b9350600084118015610eb65750876001600160701b03168411155b610f025760405162461bcd60e51b815260206004820152601f60248201527f42617365506f6f6c3a3a737761703a205377617020496d706f737369626c65006044820152606401610623565b610f166001600160a01b0383168b86611a37565b61108b565b610f2e6001600160701b03891687612515565b8c1115610f4d5760405162461bcd60e51b81526004016106239061255f565b876001600160701b03168c1115610f765760405162461bcd60e51b8152600401610623906125ab565b60405163ec6341b360e01b8152600481018d90526001600160701b03808a1660248301528816604482015273__VaderMath_____________________________9063ec6341b39060640160206040518083038186803b158015610fd857600080fd5b505af4158015610fec573d6000803e3d6000fd5b505050506040513d601f19601f8201168201806040525081019061101091906124e6565b925060008311801561102b5750866001600160701b03168311155b6110775760405162461bcd60e51b815260206004820152601f60248201527f42617365506f6f6c3a3a737761703a205377617020496d706f737369626c65006044820152606401610623565b61108b6001600160a01b0382168b85611a37565b6040516370a0823160e01b81523060048201526001600160a01b038316906370a082319060240160206040518083038186803b1580156110ca57600080fd5b505afa1580156110de573d6000803e3d6000fd5b505050506040513d601f19601f8201168201806040525081019061110291906124e6565b6040516370a0823160e01b81523060048201529096506001600160a01b038216906370a082319060240160206040518083038186803b15801561114457600080fd5b505afa158015611158573d6000803e3d6000fd5b505050506040513d601f19601f8201168201806040525081019061117c91906124e6565b9450505061118c8484888861187b565b604080518b8152602081018b9052908101839052606081018290526001600160a01b0389169033907fd78ad95fa46c994b6551d0da85fc275fe613ce37657fb8d5e3d130840159d8229060800160405180910390a3600082116111ef57806111f1565b815b96505050505050506112036001600755565b9392505050565b60006001600160a01b0382166112745760405162461bcd60e51b815260206004820152602960248201527f4552433732313a2061646472657373207a65726f206973206e6f7420612076616044820152683634b21037bbb732b960b91b6064820152608401610623565b506001600160a01b031660009081526003602052604090205490565b611298611a89565b6112a26000611ae3565b565b6060600180546104da9061245e565b6112be338383611b35565b5050565b6112cc33836114b3565b6112e85760405162461bcd60e51b815260040161062390612499565b6112f484848484611c04565b50505050565b6060611305826113e6565b600061131c60408051602081019091526000815290565b9050600081511161133c5760405180602001604052806000815250611203565b8061134684611c37565b6040516020016113579291906125ed565b6040516020818303038152906040529392505050565b611375611a89565b6001600160a01b0381166113da5760405162461bcd60e51b815260206004820152602660248201527f4f776e61626c653a206e6577206f776e657220697320746865207a65726f206160448201526564647265737360d01b6064820152608401610623565b6113e381611ae3565b50565b6000818152600260205260409020546001600160a01b03166113e35760405162461bcd60e51b8152602060048201526018602482015277115490cdcc8c4e881a5b9d985b1a59081d1bdad95b88125160421b6044820152606401610623565b600081815260046020526040902080546001600160a01b0319166001600160a01b038416908117909155819061147a82610715565b6001600160a01b03167f8c5be1e5ebec7d5bd14f71427d1e84f3dd0314c0f7b2291e5b200ac8c7c3b92560405160405180910390a45050565b6000806114bf83610715565b9050806001600160a01b0316846001600160a01b0316148061150657506001600160a01b0380821660009081526005602090815260408083209388168352929052205460ff165b8061152a5750836001600160a01b031661151f8461055d565b6001600160a01b0316145b949350505050565b826001600160a01b031661154582610715565b6001600160a01b03161461156b5760405162461bcd60e51b81526004016106239061261c565b6001600160a01b0382166115cd5760405162461bcd60e51b8152602060048201526024808201527f4552433732313a207472616e7366657220746f20746865207a65726f206164646044820152637265737360e01b6064820152608401610623565b826001600160a01b03166115e082610715565b6001600160a01b0316146116065760405162461bcd60e51b81526004016106239061261c565b600081815260046020908152604080832080546001600160a01b03199081169091556001600160a01b0387811680865260038552838620805460001901905590871680865283862080546001019055868652600290945282852080549092168417909155905184937fddf252ad1be2c89b69c2b068fc378daa952ba7f163c4a11628f55a4df523b3ef91a4505050565b600260075414156116e95760405162461bcd60e51b815260206004820152601f60248201527f5265656e7472616e637947756172643a207265656e7472616e742063616c6c006044820152606401610623565b6002600755565b6001600160a01b0382166117465760405162461bcd60e51b815260206004820181905260248201527f4552433732313a206d696e7420746f20746865207a65726f20616464726573736044820152606401610623565b6000818152600260205260409020546001600160a01b0316156117ab5760405162461bcd60e51b815260206004820152601c60248201527f4552433732313a20746f6b656e20616c7265616479206d696e746564000000006044820152606401610623565b6000818152600260205260409020546001600160a01b0316156118105760405162461bcd60e51b815260206004820152601c60248201527f4552433732313a20746f6b656e20616c7265616479206d696e746564000000006044820152606401610623565b6001600160a01b038216600081815260036020908152604080832080546001019055848352600290915280822080546001600160a01b0319168417905551839291907fddf252ad1be2c89b69c2b068fc378daa952ba7f163c4a11628f55a4df523b3ef908290a45050565b6001600160701b03841180159061189957506001600160701b038311155b6118f15760405162461bcd60e51b815260206004820152602360248201527f42617365506f6f6c3a3a5f7570646174653a2042616c616e6365204f766572666044820152626c6f7760e81b6064820152608401610623565b600061190264010000000042612677565b600e5490915063ffffffff600160e01b909104811682039081161580159061193257506001600160701b03841615155b801561194657506001600160701b03831615155b156119b1578063ffffffff1661196e8561195f86611cd4565b6001600160e01b031690611ced565b600880546001600160e01b03929092169290920201905563ffffffff81166119998461195f87611cd4565b600980546001600160e01b0392909216929092020190555b50600e80546001600160701b038781166001600160e01b031990921691909117600160701b91871691909102176001600160e01b0316600160e01b63ffffffff84160217905560408051868152602081018690527fcf2aa50876cdfbb541206f89af0ee78d44a2abf8d328e37fa4917f982149848a910160405180910390a15050505050565b604080516001600160a01b038416602482015260448082018490528251808303909101815260649091019091526020810180516001600160e01b031663a9059cbb60e01b1790526106c4908490611d02565b6006546001600160a01b031633146112a25760405162461bcd60e51b815260206004820181905260248201527f4f776e61626c653a2063616c6c6572206973206e6f7420746865206f776e65726044820152606401610623565b600680546001600160a01b038381166001600160a01b0319831681179093556040519116919082907f8be0079c531659141344cd1fd0a4f28419497f9722a3daafe3b4186f6b6457e090600090a35050565b816001600160a01b0316836001600160a01b03161415611b975760405162461bcd60e51b815260206004820152601960248201527f4552433732313a20617070726f766520746f2063616c6c6572000000000000006044820152606401610623565b6001600160a01b03838116600081815260056020908152604080832094871680845294825291829020805460ff191686151590811790915591519182527f17307eab39ab6107e8899845ad3d59bd9653f200f220920489ca2b5937696c31910160405180910390a3505050565b611c0f848484611532565b611c1b84848484611dd7565b6112f45760405162461bcd60e51b81526004016106239061268b565b60606000611c4483611ee4565b600101905060008167ffffffffffffffff811115611c6457611c64612339565b6040519080825280601f01601f191660200182016040528015611c8e576020820181803683370190505b5090508181016020015b600019016f181899199a1a9b1b9c1cb0b131b232b360811b600a86061a8153600a8504945084611cc757611ccc565b611c98565b509392505050565b60006104ae600160701b6001600160701b0384166126dd565b60006112036001600160701b0383168461270c565b6000611d57826040518060400160405280602081526020017f5361666545524332303a206c6f772d6c6576656c2063616c6c206661696c6564815250856001600160a01b0316611fbc9092919063ffffffff16565b9050805160001480611d78575080806020019051810190611d789190612732565b6106c45760405162461bcd60e51b815260206004820152602a60248201527f5361666545524332303a204552433230206f7065726174696f6e20646964206e6044820152691bdd081cdd58d8d9595960b21b6064820152608401610623565b60006001600160a01b0384163b15611ed957604051630a85bd0160e11b81526001600160a01b0385169063150b7a0290611e1b90339089908890889060040161274f565b602060405180830381600087803b158015611e3557600080fd5b505af1925050508015611e65575060408051601f3d908101601f19168201909252611e6291810190612782565b60015b611ebf573d808015611e93576040519150601f19603f3d011682016040523d82523d6000602084013e611e98565b606091505b508051611eb75760405162461bcd60e51b81526004016106239061268b565b805181602001fd5b6001600160e01b031916630a85bd0160e11b14905061152a565b506001949350505050565b60008072184f03e93ff9f4daa797ed6e38ed64bf6a1f0160401b8310611f235772184f03e93ff9f4daa797ed6e38ed64bf6a1f0160401b830492506040015b6d04ee2d6d415b85acef81000000008310611f4f576d04ee2d6d415b85acef8100000000830492506020015b662386f26fc100008310611f6d57662386f26fc10000830492506010015b6305f5e1008310611f85576305f5e100830492506008015b6127108310611f9957612710830492506004015b60648310611fab576064830492506002015b600a83106104ae5760010192915050565b606061152a848460008585600080866001600160a01b03168587604051611fe3919061279f565b60006040518083038185875af1925050503d8060008114612020576040519150601f19603f3d011682016040523d82523d6000602084013e612025565b606091505b509150915061203687838387612041565b979650505050505050565b606083156120ad5782516120a6576001600160a01b0385163b6120a65760405162461bcd60e51b815260206004820152601d60248201527f416464726573733a2063616c6c20746f206e6f6e2d636f6e74726163740000006044820152606401610623565b508161152a565b61152a83838151156120c25781518083602001fd5b8060405162461bcd60e51b81526004016106239190612212565b6001600160e01b0319811681146113e357600080fd5b60006020828403121561210457600080fd5b8135611203816120dc565b80356001600160a01b0381168114610b3b57600080fd5b60008060008060006080868803121561213e57600080fd5b85359450602086013593506121556040870161210f565b9250606086013567ffffffffffffffff8082111561217257600080fd5b818801915088601f83011261218657600080fd5b81358181111561219557600080fd5b8960208285010111156121a757600080fd5b9699959850939650602001949392505050565b60005b838110156121d55781810151838201526020016121bd565b838111156112f45750506000910152565b600081518084526121fe8160208601602086016121ba565b601f01601f19169290920160200192915050565b60208152600061120360208301846121e6565b60006020828403121561223757600080fd5b5035919050565b6000806040838503121561225157600080fd5b61225a8361210f565b946020939093013593505050565b60008060006060848603121561227d57600080fd5b6122868461210f565b92506122946020850161210f565b9150604084013590509250925092565b6000602082840312156122b657600080fd5b6112038261210f565b6000806000606084860312156122d457600080fd5b83359250602084013591506122eb6040850161210f565b90509250925092565b80151581146113e357600080fd5b6000806040838503121561231557600080fd5b61231e8361210f565b9150602083013561232e816122f4565b809150509250929050565b634e487b7160e01b600052604160045260246000fd5b6000806000806080858703121561236557600080fd5b61236e8561210f565b935061237c6020860161210f565b925060408501359150606085013567ffffffffffffffff808211156123a057600080fd5b818701915087601f8301126123b457600080fd5b8135818111156123c6576123c6612339565b604051601f8201601f19908116603f011681019083821181831017156123ee576123ee612339565b816040528281528a602084870101111561240757600080fd5b82602086016020830137600060208483010152809550505050505092959194509250565b6000806040838503121561243e57600080fd5b6124478361210f565b91506124556020840161210f565b90509250929050565b600181811c9082168061247257607f821691505b6020821081141561249357634e487b7160e01b600052602260045260246000fd5b50919050565b6020808252602d908201527f4552433732313a2063616c6c6572206973206e6f7420746f6b656e206f776e6560408201526c1c881bdc88185c1c1c9bdd9959609a1b606082015260800190565b6000602082840312156124f857600080fd5b5051919050565b634e487b7160e01b600052601160045260246000fd5b600082821015612527576125276124ff565b500390565b6000600019821415612540576125406124ff565b5060010190565b6000821982111561255a5761255a6124ff565b500190565b6020808252602c908201527f42617365506f6f6c3a3a737761703a20496e73756666696369656e7420546f6b60408201526b195b9cc8141c9bdd9a59195960a21b606082015260800190565b60208082526022908201527f42617365506f6f6c3a3a737761703a20556e6661766f757261626c6520547261604082015261646560f01b606082015260800190565b600083516125ff8184602088016121ba565b8351908301906126138183602088016121ba565b01949350505050565b60208082526025908201527f4552433732313a207472616e736665722066726f6d20696e636f72726563742060408201526437bbb732b960d91b606082015260800190565b634e487b7160e01b600052601260045260246000fd5b60008261268657612686612661565b500690565b60208082526032908201527f4552433732313a207472616e7366657220746f206e6f6e20455243373231526560408201527131b2b4bb32b91034b6b83632b6b2b73a32b960711b606082015260800190565b60006001600160e01b0382811684821681151582840482111615612703576127036124ff565b02949350505050565b60006001600160e01b038381168061272657612726612661565b92169190910492915050565b60006020828403121561274457600080fd5b8151611203816122f4565b6001600160a01b03858116825284166020820152604081018390526080606082018190526000906104c1908301846121e6565b60006020828403121561279457600080fd5b8151611203816120dc565b600082516127b18184602087016121ba565b919091019291505056fea2646970667358221220a5693f2121b516d76201134a3e98465500eb2ddc1201c35302d178f6d2cbb66d64736f6c63430008090033",
  "immutableReferences": {
    "11550": [
      {
        "length": 32,
        "start": 785
      },
      {
        "length": 32,
        "start": 1968
      },
      {
        "length": 32,
        "start": 3070
      }
    ],
    "11553": [
      {
        "length": 32,
        "start": 953
      },
      {
        "length": 32,
        "start": 2125
      },
      {
        "length": 32,
        "start": 3104
      }
    ]
  },
  "source": "// SPDX-License-Identifier: Unlicense\r\n\r\npragma solidity =0.8.9;\r\n\r\nimport \"@openzeppelin/contracts/access/Ownable.sol\";\r\nimport \"@openzeppelin/contracts/token/ERC721/ERC721.sol\";\r\n\r\nimport \"@openzeppelin/contracts/token/ERC20/utils/SafeERC20.sol\";\r\nimport \"@openzeppelin/contracts/security/ReentrancyGuard.sol\";\r\n\r\nimport \"../math/VaderMath.sol\";\r\n// import \"../queue/SwapQueue.sol\";\r\nimport \"../utils/GasThrottle.sol\";\r\n\r\nimport \"../../external/libraries/UQ112x112.sol\";\r\n\r\nimport \"../../interfaces/dex/pool/IBasePool.sol\";\r\nimport \"../../interfaces/shared/IERC20Extended.sol\";\r\n\r\n/*\r\n * @dev Implementation of {BasePool} contract.\r\n *\r\n * The BasePool contract represents pool of two assets termed as native and\r\n * foreign assets. The functionality in this contract allows depositing of both\r\n * of these assets to mint liquidity. Minted liquidity is associated with a\r\n * position which is represented by an NFT token.\r\n *\r\n * The contract allows burning of NFT and in turn redeems the associated liquidity,\r\n * transferring out underlying assets to the LP.\r\n *\r\n * The contract allows swapping of both native and foreign assets among themselves.\r\n *\r\n * Keeps track of the cumulative prices for both native and foreign assets and updates\r\n * them after minting and burning of liquidity, and swapping of assets.\r\n **/\r\ncontract BasePool is IBasePool, GasThrottle, ERC721, Ownable, ReentrancyGuard {\r\n    /* ========== LIBRARIES ========== */\r\n\r\n    // Used for safe token transfers\r\n    using SafeERC20 for IERC20;\r\n\r\n    // Used by Uniswap-like TWAP mechanism\r\n    using UQ112x112 for uint224;\r\n\r\n    /* ========== STATE VARIABLES ========== */\r\n\r\n    // Address of native asset (Vader or USDV).\r\n    IERC20 public immutable nativeAsset;\r\n\r\n    // Address of foreign asset with which the native asset is paired in the pool.\r\n    IERC20 public immutable foreignAsset;\r\n\r\n    // Cumulative price of native asset.\r\n    uint256 public priceNativeCumulativeLast;\r\n\r\n    // Cumulative price of foreign asset.\r\n    uint256 public priceForeignCumulativeLast;\r\n\r\n    /*\r\n     * @dev A mapping representing positions of liquidity providers. Each position\r\n     * is an Non-fungible token that is mapped against amounts of native and foreign assets\r\n     * deposited, the timestamp at which the position is created and the amount of\r\n     * liquidity assigned to the LP.\r\n     *\r\n     * Each position in the mapping is mapped against {positionId}.\r\n     **/\r\n    mapping(uint256 => Position) public positions;\r\n\r\n    // A unique id the of the position created when liquidity is added to the pool.\r\n    uint256 public positionId;\r\n\r\n    // Total amount of liquidity units minted.\r\n    uint256 public totalSupply;\r\n\r\n    // Name of the contract.\r\n    string private _name;\r\n\r\n    // Total amount of the native asset realised by the contract.\r\n    uint112 private _reserveNative; // uses single storage slot, accessible via getReserves\r\n\r\n    // Total amount of the foreign asset realised by the contract.\r\n    uint112 private _reserveForeign; // uses single storage slot, accessible via getReserves\r\n\r\n    // Last timestamp at which the cumulative prices for native and foreign assets were updated.\r\n    uint32 private _blockTimestampLast; // uses single storage slot, accessible via getReserves\r\n\r\n    /* ========== CONSTRUCTOR ========== */\r\n\r\n    /*\r\n     * @dev Initialized the contract state setting the addresses for native and foreign assets.\r\n     *\r\n     * Also computes the name of the contract and stores it in the contract's state.\r\n     **/\r\n    constructor(IERC20Extended _nativeAsset, IERC20Extended _foreignAsset)\r\n        ERC721(\"Vader LP\", \"VLP\")\r\n    {\r\n        nativeAsset = IERC20(_nativeAsset);\r\n        foreignAsset = IERC20(_foreignAsset);\r\n\r\n        string memory calculatedName = string(\r\n            abi.encodePacked(\"Vader USDV /\", _foreignAsset.symbol(), \" LP\")\r\n        );\r\n        _name = calculatedName;\r\n    }\r\n\r\n    /* ========== VIEWS ========== */\r\n\r\n    /*\r\n     * @dev Returns the realised amount of native and foreign assets, and the last timestamp\r\n     * at which the cumulative prices for native and foreign assets were updated.\r\n     **/\r\n    function getReserves()\r\n        public\r\n        view\r\n        returns (\r\n            uint112 reserveNative,\r\n            uint112 reserveForeign,\r\n            uint32 blockTimestampLast\r\n        )\r\n    {\r\n        reserveNative = _reserveNative;\r\n        reserveForeign = _reserveForeign;\r\n        blockTimestampLast = _blockTimestampLast;\r\n    }\r\n\r\n    // Returns the name of the contract.\r\n    function name() public view override returns (string memory) {\r\n        return _name;\r\n    }\r\n\r\n    /* ========== MUTATIVE FUNCTIONS ========== */\r\n\r\n    /*\r\n     * @dev Allows depositing of liquidity to the pool by accepting native and foreign assets\r\n     * and mints an NFT to the {to} address which records the amounts of the native and foreign\r\n     * assets deposited and the liquidity units minted against it in {positions} mapping.\r\n     *\r\n     * Updates the total supply of liquidity units by adding currently minted liquidity units\r\n     * to {totalSupply}.\r\n     *\r\n     * Updates the cumulative prices of native and foreign assets after minting the appropriate\r\n     * liquidity units.\r\n     *\r\n     * Requirements:\r\n     * - Amounts of native and foreign must be sent to the pool prior to calling `mint` such that\r\n     *   balance of pool for both assets must be greater than their corresponding reserves.\r\n     * - The amount of {liquidity} to be minted must be greater than 0.\r\n     **/\r\n    function mint(address to)\r\n        external\r\n        override\r\n        nonReentrant\r\n        returns (uint256 liquidity)\r\n    {\r\n        (uint112 reserveNative, uint112 reserveForeign, ) = getReserves(); // gas savings\r\n        uint256 balanceNative = nativeAsset.balanceOf(address(this));\r\n        uint256 balanceForeign = foreignAsset.balanceOf(address(this));\r\n        uint256 nativeDeposit = balanceNative - reserveNative;\r\n        uint256 foreignDeposit = balanceForeign - reserveForeign;\r\n\r\n        uint256 totalLiquidityUnits = totalSupply;\r\n        if (totalLiquidityUnits == 0)\r\n            liquidity = nativeDeposit; // TODO: Contact ThorChain on proper approach\r\n        else\r\n            liquidity = VaderMath.calculateLiquidityUnits(\r\n                nativeDeposit,\r\n                reserveNative,\r\n                foreignDeposit,\r\n                reserveForeign,\r\n                totalLiquidityUnits\r\n            );\r\n\r\n        require(\r\n            liquidity > 0,\r\n            \"BasePool::mint: Insufficient Liquidity Provided\"\r\n        );\r\n\r\n        uint256 id = positionId++;\r\n\r\n        totalSupply += liquidity;\r\n        _mint(to, id);\r\n\r\n        positions[id] = Position(\r\n            block.timestamp,\r\n            liquidity,\r\n            nativeDeposit,\r\n            foreignDeposit\r\n        );\r\n\r\n        _update(balanceNative, balanceForeign, reserveNative, reserveForeign);\r\n\r\n        emit Mint(msg.sender, to, nativeDeposit, foreignDeposit);\r\n        emit PositionOpened(msg.sender, id, liquidity);\r\n    }\r\n\r\n    /*\r\n     * @dev Allows redeeming of liquidity units by burning the NFT associated with the liquidity\r\n     * position.\r\n     *\r\n     * Computes the amounts of native and foreign assets depending upon current reserves of assets and\r\n     * the liquidity associated with the position, and transfers them to the {to} address.\r\n     *\r\n     * Burns the redeemed NFT token and decreases {totalSupply} by the {liquidity}\r\n     * associated with that NFT token.\r\n     *\r\n     * Updates the cumulative prices for native and foreign assets after transferring the assets\r\n     * to the {to} address.\r\n     *\r\n     * Requirements:\r\n     * - The NFT token being redeemed must be transferred to the pool prior to calling `_burn`.\r\n     * - The amount of native and foreign assets computed for transfer to {to} address must be greater\r\n     *   than 0.\r\n     **/\r\n    function _burn(uint256 id, address to)\r\n        internal\r\n        nonReentrant\r\n        returns (uint256 amountNative, uint256 amountForeign)\r\n    {\r\n        require(\r\n            ownerOf(id) == address(this),\r\n            \"BasePool::burn: Incorrect Ownership\"\r\n        );\r\n\r\n        (uint112 reserveNative, uint112 reserveForeign, ) = getReserves(); // gas savings\r\n        IERC20 _nativeAsset = nativeAsset; // gas savings\r\n        IERC20 _foreignAsset = foreignAsset; // gas savings\r\n        uint256 nativeBalance = IERC20(_nativeAsset).balanceOf(address(this));\r\n        uint256 foreignBalance = IERC20(_foreignAsset).balanceOf(address(this));\r\n\r\n        uint256 liquidity = positions[id].liquidity;\r\n\r\n        uint256 _totalSupply = totalSupply; // gas savings, must be defined here since totalSupply can update in _mintFee\r\n        amountNative = (liquidity * nativeBalance) / _totalSupply; // using balances ensures pro-rata distribution\r\n        amountForeign = (liquidity * foreignBalance) / _totalSupply; // using balances ensures pro-rata distribution\r\n\r\n        require(\r\n            amountNative > 0 && amountForeign > 0,\r\n            \"BasePool::burn: Insufficient Liquidity Burned\"\r\n        );\r\n\r\n        totalSupply -= liquidity;\r\n        _burn(id);\r\n\r\n        _nativeAsset.safeTransfer(to, amountNative);\r\n        _foreignAsset.safeTransfer(to, amountForeign);\r\n\r\n        nativeBalance = _nativeAsset.balanceOf(address(this));\r\n        foreignBalance = _foreignAsset.balanceOf(address(this));\r\n\r\n        _update(nativeBalance, foreignBalance, reserveNative, reserveForeign);\r\n\r\n        emit Burn(msg.sender, amountNative, amountForeign, to);\r\n    }\r\n\r\n    /*\r\n     * @dev  Allows swapping between native and foreign assets. It receives the source asset\r\n     * and computes the destination asset and transfers it to the {to} address.\r\n     *\r\n     * Internally calls {swap} function.\r\n     **/\r\n    function swap(\r\n        uint256 nativeAmountIn,\r\n        uint256 foreignAmountIn,\r\n        address to,\r\n        bytes calldata\r\n    ) external override returns (uint256) {\r\n        return swap(nativeAmountIn, foreignAmountIn, to);\r\n    }\r\n\r\n    /*\r\n     * @dev Allows swapping between native and foreign assets. It receives the source asset\r\n     * and computes the destination asset and transfers it to the {to} address.\r\n     *\r\n     * Updates the cumulative prices for native and foreign assets after performing swap.\r\n     *\r\n     * Returns the amount of destination tokens resulting from the swap.\r\n     *\r\n     * Requirements:\r\n     * - Param {nativeAmountIn} must be zero and {foreignAmountIn} must be non-zero\r\n     *   if the destination asset in swap is native asset.\r\n     * - Param {foreignAmountIn} must be zero and {nativeAmountIn} must be non zero\r\n     *   if the destination asset in swap is foreign asset.\r\n     * - Param {to} cannot be the addresses of native or foreign assets.\r\n     * - The source asset amount in the swap must be transferred to the pool prior to calling `swap`.\r\n     * - The source asset amount in the swap cannot exceed the source asset's reserve.\r\n     * - The destination asset's amount in the swap must be greater than 0 and not exceed destination\r\n     *   asset's reserve.\r\n     **/\r\n    function swap(\r\n        uint256 nativeAmountIn,\r\n        uint256 foreignAmountIn,\r\n        address to\r\n    ) public override nonReentrant validateGas returns (uint256) {\r\n        require(\r\n            (nativeAmountIn > 0 && foreignAmountIn == 0) ||\r\n                (nativeAmountIn == 0 && foreignAmountIn > 0),\r\n            \"BasePool::swap: Only One-Sided Swaps Supported\"\r\n        );\r\n        (uint112 nativeReserve, uint112 foreignReserve, ) = getReserves(); // gas savings\r\n\r\n        uint256 nativeBalance;\r\n        uint256 foreignBalance;\r\n        uint256 nativeAmountOut;\r\n        uint256 foreignAmountOut;\r\n        {\r\n            // scope for _token{0,1}, avoids stack too deep errors\r\n            IERC20 _nativeAsset = nativeAsset;\r\n            IERC20 _foreignAsset = foreignAsset;\r\n            nativeBalance = _nativeAsset.balanceOf(address(this));\r\n            foreignBalance = _foreignAsset.balanceOf(address(this));\r\n\r\n            require(\r\n                to != address(_nativeAsset) && to != address(_foreignAsset),\r\n                \"BasePool::swap: Invalid Receiver\"\r\n            );\r\n\r\n            if (foreignAmountIn > 0) {\r\n                require(\r\n                    foreignAmountIn <= foreignBalance - foreignReserve,\r\n                    \"BasePool::swap: Insufficient Tokens Provided\"\r\n                );\r\n                require(\r\n                    foreignAmountIn <= foreignReserve,\r\n                    \"BasePool::swap: Unfavourable Trade\"\r\n                );\r\n\r\n                nativeAmountOut = VaderMath.calculateSwap(\r\n                    foreignAmountIn,\r\n                    foreignReserve,\r\n                    nativeReserve\r\n                );\r\n\r\n                require(\r\n                    nativeAmountOut > 0 && nativeAmountOut <= nativeReserve,\r\n                    \"BasePool::swap: Swap Impossible\"\r\n                );\r\n\r\n                _nativeAsset.safeTransfer(to, nativeAmountOut); // optimistically transfer tokens\r\n            } else {\r\n                require(\r\n                    nativeAmountIn <= nativeBalance - nativeReserve,\r\n                    \"BasePool::swap: Insufficient Tokens Provided\"\r\n                );\r\n                require(\r\n                    nativeAmountIn <= nativeReserve,\r\n                    \"BasePool::swap: Unfavourable Trade\"\r\n                );\r\n\r\n                foreignAmountOut = VaderMath.calculateSwap(\r\n                    nativeAmountIn,\r\n                    nativeReserve,\r\n                    foreignReserve\r\n                );\r\n\r\n                require(\r\n                    foreignAmountOut > 0 && foreignAmountOut <= foreignReserve,\r\n                    \"BasePool::swap: Swap Impossible\"\r\n                );\r\n\r\n                _foreignAsset.safeTransfer(to, foreignAmountOut); // optimistically transfer tokens\r\n            }\r\n\r\n            nativeBalance = _nativeAsset.balanceOf(address(this));\r\n            foreignBalance = _foreignAsset.balanceOf(address(this));\r\n        }\r\n\r\n        _update(nativeBalance, foreignBalance, nativeReserve, foreignReserve);\r\n\r\n        emit Swap(\r\n            msg.sender,\r\n            nativeAmountIn,\r\n            foreignAmountIn,\r\n            nativeAmountOut,\r\n            foreignAmountOut,\r\n            to\r\n        );\r\n\r\n        return nativeAmountOut > 0 ? nativeAmountOut : foreignAmountOut;\r\n    }\r\n\r\n    /* ========== RESTRICTED FUNCTIONS ========== */\r\n\r\n    /* ========== INTERNAL FUNCTIONS ========== */\r\n\r\n    /*\r\n     * @dev Internally called to update the cumulative prices for native and foreign assets depending\r\n     * upon the last reserves and updates the reserves for both of the assets corresponding to their\r\n     * current balances along with the {_blockTimestampLast}.\r\n     *\r\n     * Requirements:\r\n     * - Params {balanceNative} and {balanceForeign} must not overflow type `uint112`.\r\n     *\r\n     **/\r\n    function _update(\r\n        uint256 balanceNative,\r\n        uint256 balanceForeign,\r\n        uint112 reserveNative,\r\n        uint112 reserveForeign\r\n    ) internal {\r\n        require(\r\n            balanceNative <= type(uint112).max &&\r\n                balanceForeign <= type(uint112).max,\r\n            \"BasePool::_update: Balance Overflow\"\r\n        );\r\n        uint32 blockTimestamp = uint32(block.timestamp % 2**32);\r\n        unchecked {\r\n            uint32 timeElapsed = blockTimestamp - _blockTimestampLast; // overflow is desired\r\n            if (timeElapsed > 0 && reserveNative != 0 && reserveForeign != 0) {\r\n                // * never overflows, and + overflow is desired\r\n                priceNativeCumulativeLast +=\r\n                    uint256(\r\n                        UQ112x112.encode(reserveForeign).uqdiv(reserveNative)\r\n                    ) *\r\n                    timeElapsed;\r\n                priceForeignCumulativeLast +=\r\n                    uint256(\r\n                        UQ112x112.encode(reserveNative).uqdiv(reserveForeign)\r\n                    ) *\r\n                    timeElapsed;\r\n            }\r\n        }\r\n        _reserveNative = uint112(balanceNative);\r\n        _reserveForeign = uint112(balanceForeign);\r\n        _blockTimestampLast = blockTimestamp;\r\n        emit Sync(balanceNative, balanceForeign);\r\n    }\r\n\r\n    /* ========== PRIVATE FUNCTIONS ========== */\r\n\r\n    /* ========== MODIFIERS ========== */\r\n}\r\n",
  "sourcePath": "/home/mingyue/sub_contract_content/Web3Bugs/contracts/52/contracts/dex/pool/BasePool.sol",
  "compiler": {
    "name": "solc",
    "version": "0.8.9+commit.e5eed63a.Emscripten.clang"
  },
  "schemaVersion": "3.4.16",
  "updatedAt": "2025-03-06T07:23:55.038Z",
  "devdoc": {
    "kind": "dev",
    "methods": {
      "approve(address,uint256)": {
        "details": "See {IERC721-approve}."
      },
      "balanceOf(address)": {
        "details": "See {IERC721-balanceOf}."
      },
      "getApproved(uint256)": {
        "details": "See {IERC721-getApproved}."
      },
      "isApprovedForAll(address,address)": {
        "details": "See {IERC721-isApprovedForAll}."
      },
      "name()": {
        "details": "See {IERC721Metadata-name}."
      },
      "owner()": {
        "details": "Returns the address of the current owner."
      },
      "ownerOf(uint256)": {
        "details": "See {IERC721-ownerOf}."
      },
      "renounceOwnership()": {
        "details": "Leaves the contract without owner. It will not be possible to call `onlyOwner` functions. Can only be called by the current owner. NOTE: Renouncing ownership will leave the contract without an owner, thereby disabling any functionality that is only available to the owner."
      },
      "safeTransferFrom(address,address,uint256)": {
        "details": "See {IERC721-safeTransferFrom}."
      },
      "safeTransferFrom(address,address,uint256,bytes)": {
        "details": "See {IERC721-safeTransferFrom}."
      },
      "setApprovalForAll(address,bool)": {
        "details": "See {IERC721-setApprovalForAll}."
      },
      "supportsInterface(bytes4)": {
        "details": "See {IERC165-supportsInterface}."
      },
      "symbol()": {
        "details": "See {IERC721Metadata-symbol}."
      },
      "tokenURI(uint256)": {
        "details": "See {IERC721Metadata-tokenURI}."
      },
      "transferFrom(address,address,uint256)": {
        "details": "See {IERC721-transferFrom}."
      },
      "transferOwnership(address)": {
        "details": "Transfers ownership of the contract to a new account (`newOwner`). Can only be called by the current owner."
      }
    },
    "version": 1
  },
  "userdoc": {
    "kind": "user",
    "methods": {},
    "version": 1
  }
}