{
  "contractName": "BasePoolV2",
  "abi": [
    {
      "inputs": [
        {
          "internalType": "contract IERC20",
          "name": "_nativeAsset",
          "type": "address"
        }
      ],
      "stateMutability": "nonpayable",
      "type": "constructor"
    },
    {
      "anonymous": false,
      "inputs": [
        {
          "indexed": true,
          "internalType": "address",
          "name": "owner",
          "type": "address"
        },
        {
          "indexed": true,
          "internalType": "address",
          "name": "approved",
          "type": "address"
        },
        {
          "indexed": true,
          "internalType": "uint256",
          "name": "tokenId",
          "type": "uint256"
        }
      ],
      "name": "Approval",
      "type": "event"
    },
    {
      "anonymous": false,
      "inputs": [
        {
          "indexed": true,
          "internalType": "address",
          "name": "owner",
          "type": "address"
        },
        {
          "indexed": true,
          "internalType": "address",
          "name": "operator",
          "type": "address"
        },
        {
          "indexed": false,
          "internalType": "bool",
          "name": "approved",
          "type": "bool"
        }
      ],
      "name": "ApprovalForAll",
      "type": "event"
    },
    {
      "anonymous": false,
      "inputs": [
        {
          "indexed": true,
          "internalType": "address",
          "name": "sender",
          "type": "address"
        },
        {
          "indexed": false,
          "internalType": "uint256",
          "name": "amount0",
          "type": "uint256"
        },
        {
          "indexed": false,
          "internalType": "uint256",
          "name": "amount1",
          "type": "uint256"
        },
        {
          "indexed": true,
          "internalType": "address",
          "name": "to",
          "type": "address"
        }
      ],
      "name": "Burn",
      "type": "event"
    },
    {
      "anonymous": false,
      "inputs": [
        {
          "indexed": true,
          "internalType": "address",
          "name": "sender",
          "type": "address"
        },
        {
          "indexed": true,
          "internalType": "address",
          "name": "to",
          "type": "address"
        },
        {
          "indexed": false,
          "internalType": "uint256",
          "name": "amount0",
          "type": "uint256"
        },
        {
          "indexed": false,
          "internalType": "uint256",
          "name": "amount1",
          "type": "uint256"
        }
      ],
      "name": "Mint",
      "type": "event"
    },
    {
      "anonymous": false,
      "inputs": [
        {
          "indexed": true,
          "internalType": "address",
          "name": "sender",
          "type": "address"
        },
        {
          "indexed": false,
          "internalType": "uint256",
          "name": "id",
          "type": "uint256"
        },
        {
          "indexed": false,
          "internalType": "uint256",
          "name": "liquidity",
          "type": "uint256"
        },
        {
          "indexed": false,
          "internalType": "uint256",
          "name": "loss",
          "type": "uint256"
        }
      ],
      "name": "PositionClosed",
      "type": "event"
    },
    {
      "anonymous": false,
      "inputs": [
        {
          "indexed": true,
          "internalType": "address",
          "name": "from",
          "type": "address"
        },
        {
          "indexed": true,
          "internalType": "address",
          "name": "to",
          "type": "address"
        },
        {
          "indexed": false,
          "internalType": "uint256",
          "name": "id",
          "type": "uint256"
        },
        {
          "indexed": false,
          "internalType": "uint256",
          "name": "liquidity",
          "type": "uint256"
        }
      ],
      "name": "PositionOpened",
      "type": "event"
    },
    {
      "anonymous": false,
      "inputs": [
        {
          "indexed": false,
          "internalType": "contract IERC20",
          "name": "foreignAsset",
          "type": "address"
        },
        {
          "indexed": true,
          "internalType": "address",
          "name": "sender",
          "type": "address"
        },
        {
          "indexed": false,
          "internalType": "uint256",
          "name": "amount0In",
          "type": "uint256"
        },
        {
          "indexed": false,
          "internalType": "uint256",
          "name": "amount1In",
          "type": "uint256"
        },
        {
          "indexed": false,
          "internalType": "uint256",
          "name": "amount0Out",
          "type": "uint256"
        },
        {
          "indexed": false,
          "internalType": "uint256",
          "name": "amount1Out",
          "type": "uint256"
        },
        {
          "indexed": true,
          "internalType": "address",
          "name": "to",
          "type": "address"
        }
      ],
      "name": "Swap",
      "type": "event"
    },
    {
      "anonymous": false,
      "inputs": [
        {
          "indexed": false,
          "internalType": "contract IERC20",
          "name": "foreignAsset",
          "type": "address"
        },
        {
          "indexed": false,
          "internalType": "uint256",
          "name": "reserve0",
          "type": "uint256"
        },
        {
          "indexed": false,
          "internalType": "uint256",
          "name": "reserve1",
          "type": "uint256"
        }
      ],
      "name": "Sync",
      "type": "event"
    },
    {
      "anonymous": false,
      "inputs": [
        {
          "indexed": true,
          "internalType": "address",
          "name": "from",
          "type": "address"
        },
        {
          "indexed": true,
          "internalType": "address",
          "name": "to",
          "type": "address"
        },
        {
          "indexed": true,
          "internalType": "uint256",
          "name": "tokenId",
          "type": "uint256"
        }
      ],
      "name": "Transfer",
      "type": "event"
    },
    {
      "inputs": [
        {
          "internalType": "address",
          "name": "to",
          "type": "address"
        },
        {
          "internalType": "uint256",
          "name": "tokenId",
          "type": "uint256"
        }
      ],
      "name": "approve",
      "outputs": [],
      "stateMutability": "nonpayable",
      "type": "function"
    },
    {
      "inputs": [
        {
          "internalType": "address",
          "name": "owner",
          "type": "address"
        }
      ],
      "name": "balanceOf",
      "outputs": [
        {
          "internalType": "uint256",
          "name": "",
          "type": "uint256"
        }
      ],
      "stateMutability": "view",
      "type": "function"
    },
    {
      "inputs": [
        {
          "internalType": "uint256",
          "name": "tokenId",
          "type": "uint256"
        }
      ],
      "name": "getApproved",
      "outputs": [
        {
          "internalType": "address",
          "name": "",
          "type": "address"
        }
      ],
      "stateMutability": "view",
      "type": "function"
    },
    {
      "inputs": [
        {
          "internalType": "address",
          "name": "owner",
          "type": "address"
        },
        {
          "internalType": "address",
          "name": "operator",
          "type": "address"
        }
      ],
      "name": "isApprovedForAll",
      "outputs": [
        {
          "internalType": "bool",
          "name": "",
          "type": "bool"
        }
      ],
      "stateMutability": "view",
      "type": "function"
    },
    {
      "inputs": [],
      "name": "name",
      "outputs": [
        {
          "internalType": "string",
          "name": "",
          "type": "string"
        }
      ],
      "stateMutability": "view",
      "type": "function"
    },
    {
      "inputs": [],
      "name": "nativeAsset",
      "outputs": [
        {
          "internalType": "contract IERC20",
          "name": "",
          "type": "address"
        }
      ],
      "stateMutability": "view",
      "type": "function"
    },
    {
      "inputs": [
        {
          "internalType": "uint256",
          "name": "tokenId",
          "type": "uint256"
        }
      ],
      "name": "ownerOf",
      "outputs": [
        {
          "internalType": "address",
          "name": "",
          "type": "address"
        }
      ],
      "stateMutability": "view",
      "type": "function"
    },
    {
      "inputs": [
        {
          "internalType": "contract IERC20",
          "name": "",
          "type": "address"
        }
      ],
      "name": "pairInfo",
      "outputs": [
        {
          "internalType": "uint256",
          "name": "totalSupply",
          "type": "uint256"
        },
        {
          "internalType": "uint112",
          "name": "reserveNative",
          "type": "uint112"
        },
        {
          "internalType": "uint112",
          "name": "reserveForeign",
          "type": "uint112"
        },
        {
          "internalType": "uint32",
          "name": "blockTimestampLast",
          "type": "uint32"
        },
        {
          "components": [
            {
              "internalType": "uint256",
              "name": "nativeLast",
              "type": "uint256"
            },
            {
              "internalType": "uint256",
              "name": "foreignLast",
              "type": "uint256"
            }
          ],
          "internalType": "struct IBasePoolV2.PriceCumulative",
          "name": "priceCumulative",
          "type": "tuple"
        }
      ],
      "stateMutability": "view",
      "type": "function"
    },
    {
      "inputs": [],
      "name": "positionId",
      "outputs": [
        {
          "internalType": "uint256",
          "name": "",
          "type": "uint256"
        }
      ],
      "stateMutability": "view",
      "type": "function"
    },
    {
      "inputs": [
        {
          "internalType": "uint256",
          "name": "",
          "type": "uint256"
        }
      ],
      "name": "positions",
      "outputs": [
        {
          "internalType": "contract IERC20",
          "name": "foreignAsset",
          "type": "address"
        },
        {
          "internalType": "uint256",
          "name": "creation",
          "type": "uint256"
        },
        {
          "internalType": "uint256",
          "name": "liquidity",
          "type": "uint256"
        },
        {
          "internalType": "uint256",
          "name": "originalNative",
          "type": "uint256"
        },
        {
          "internalType": "uint256",
          "name": "originalForeign",
          "type": "uint256"
        }
      ],
      "stateMutability": "view",
      "type": "function"
    },
    {
      "inputs": [],
      "name": "router",
      "outputs": [
        {
          "internalType": "address",
          "name": "",
          "type": "address"
        }
      ],
      "stateMutability": "view",
      "type": "function"
    },
    {
      "inputs": [
        {
          "internalType": "address",
          "name": "from",
          "type": "address"
        },
        {
          "internalType": "address",
          "name": "to",
          "type": "address"
        },
        {
          "internalType": "uint256",
          "name": "tokenId",
          "type": "uint256"
        }
      ],
      "name": "safeTransferFrom",
      "outputs": [],
      "stateMutability": "nonpayable",
      "type": "function"
    },
    {
      "inputs": [
        {
          "internalType": "address",
          "name": "from",
          "type": "address"
        },
        {
          "internalType": "address",
          "name": "to",
          "type": "address"
        },
        {
          "internalType": "uint256",
          "name": "tokenId",
          "type": "uint256"
        },
        {
          "internalType": "bytes",
          "name": "data",
          "type": "bytes"
        }
      ],
      "name": "safeTransferFrom",
      "outputs": [],
      "stateMutability": "nonpayable",
      "type": "function"
    },
    {
      "inputs": [
        {
          "internalType": "address",
          "name": "operator",
          "type": "address"
        },
        {
          "internalType": "bool",
          "name": "approved",
          "type": "bool"
        }
      ],
      "name": "setApprovalForAll",
      "outputs": [],
      "stateMutability": "nonpayable",
      "type": "function"
    },
    {
      "inputs": [
        {
          "internalType": "contract IERC20",
          "name": "",
          "type": "address"
        }
      ],
      "name": "supported",
      "outputs": [
        {
          "internalType": "bool",
          "name": "",
          "type": "bool"
        }
      ],
      "stateMutability": "view",
      "type": "function"
    },
    {
      "inputs": [
        {
          "internalType": "bytes4",
          "name": "interfaceId",
          "type": "bytes4"
        }
      ],
      "name": "supportsInterface",
      "outputs": [
        {
          "internalType": "bool",
          "name": "",
          "type": "bool"
        }
      ],
      "stateMutability": "view",
      "type": "function"
    },
    {
      "inputs": [],
      "name": "symbol",
      "outputs": [
        {
          "internalType": "string",
          "name": "",
          "type": "string"
        }
      ],
      "stateMutability": "view",
      "type": "function"
    },
    {
      "inputs": [
        {
          "internalType": "uint256",
          "name": "tokenId",
          "type": "uint256"
        }
      ],
      "name": "tokenURI",
      "outputs": [
        {
          "internalType": "string",
          "name": "",
          "type": "string"
        }
      ],
      "stateMutability": "view",
      "type": "function"
    },
    {
      "inputs": [
        {
          "internalType": "address",
          "name": "from",
          "type": "address"
        },
        {
          "internalType": "address",
          "name": "to",
          "type": "address"
        },
        {
          "internalType": "uint256",
          "name": "tokenId",
          "type": "uint256"
        }
      ],
      "name": "transferFrom",
      "outputs": [],
      "stateMutability": "nonpayable",
      "type": "function"
    },
    {
      "inputs": [
        {
          "internalType": "contract IERC20",
          "name": "foreignAsset",
          "type": "address"
        }
      ],
      "name": "getReserves",
      "outputs": [
        {
          "internalType": "uint112",
          "name": "reserveNative",
          "type": "uint112"
        },
        {
          "internalType": "uint112",
          "name": "reserveForeign",
          "type": "uint112"
        },
        {
          "internalType": "uint32",
          "name": "blockTimestampLast",
          "type": "uint32"
        }
      ],
      "stateMutability": "view",
      "type": "function"
    },
    {
      "inputs": [
        {
          "internalType": "uint256",
          "name": "id",
          "type": "uint256"
        }
      ],
      "name": "positionForeignAsset",
      "outputs": [
        {
          "internalType": "contract IERC20",
          "name": "",
          "type": "address"
        }
      ],
      "stateMutability": "view",
      "type": "function"
    },
    {
      "inputs": [
        {
          "internalType": "contract IERC20",
          "name": "foreignAsset",
          "type": "address"
        }
      ],
      "name": "pairSupply",
      "outputs": [
        {
          "internalType": "uint256",
          "name": "",
          "type": "uint256"
        }
      ],
      "stateMutability": "view",
      "type": "function"
    },
    {
      "inputs": [
        {
          "internalType": "contract IERC20",
          "name": "foreignAsset",
          "type": "address"
        },
        {
          "internalType": "uint256",
          "name": "nativeDeposit",
          "type": "uint256"
        },
        {
          "internalType": "uint256",
          "name": "foreignDeposit",
          "type": "uint256"
        },
        {
          "internalType": "address",
          "name": "from",
          "type": "address"
        },
        {
          "internalType": "address",
          "name": "to",
          "type": "address"
        }
      ],
      "name": "mint",
      "outputs": [
        {
          "internalType": "uint256",
          "name": "liquidity",
          "type": "uint256"
        }
      ],
      "stateMutability": "nonpayable",
      "type": "function"
    },
    {
      "inputs": [
        {
          "internalType": "contract IERC20",
          "name": "foreignAssetA",
          "type": "address"
        },
        {
          "internalType": "contract IERC20",
          "name": "foreignAssetB",
          "type": "address"
        },
        {
          "internalType": "uint256",
          "name": "foreignAmountIn",
          "type": "uint256"
        },
        {
          "internalType": "address",
          "name": "to",
          "type": "address"
        }
      ],
      "name": "doubleSwap",
      "outputs": [
        {
          "internalType": "uint256",
          "name": "foreignAmountOut",
          "type": "uint256"
        }
      ],
      "stateMutability": "nonpayable",
      "type": "function"
    },
    {
      "inputs": [
        {
          "internalType": "contract IERC20",
          "name": "foreignAsset",
          "type": "address"
        },
        {
          "internalType": "uint256",
          "name": "nativeAmountIn",
          "type": "uint256"
        },
        {
          "internalType": "uint256",
          "name": "foreignAmountIn",
          "type": "uint256"
        },
        {
          "internalType": "address",
          "name": "to",
          "type": "address"
        }
      ],
      "name": "swap",
      "outputs": [
        {
          "internalType": "uint256",
          "name": "",
          "type": "uint256"
        }
      ],
      "stateMutability": "nonpayable",
      "type": "function"
    },
    {
      "inputs": [
        {
          "internalType": "contract IERC20",
          "name": "foreignAsset",
          "type": "address"
        }
      ],
      "name": "rescue",
      "outputs": [],
      "stateMutability": "nonpayable",
      "type": "function"
    }
  ],
  "bytecode": "0x60a06040523480156200001157600080fd5b5060405162002d7338038062002d738339810160408190526200003491620001c5565b604080518082018252600881526705661646572204c560c41b6020808301918252835180850190945260038452620564c560ec1b9084015281519192916200007f916000916200011f565b508051620000959060019060208401906200011f565b50506001600655506001600160a01b0381166200010d5760405162461bcd60e51b815260206004820152602c60248201527f42617365506f6f6c56323a3a636f6e7374727563746f723a20496e636f72726560448201526b637420417267756d656e747360a01b606482015260840160405180910390fd5b6001600160a01b031660805262000234565b8280546200012d90620001f7565b90600052602060002090601f0160209004810192826200015157600085556200019c565b82601f106200016c57805160ff19168380011785556200019c565b828001600101855582156200019c579182015b828111156200019c5782518255916020019190600101906200017f565b50620001aa929150620001ae565b5090565b5b80821115620001aa5760008155600101620001af565b600060208284031215620001d857600080fd5b81516001600160a01b0381168114620001f057600080fd5b9392505050565b600181811c908216806200020c57607f821691505b602082108114156200022e57634e487b7160e01b600052602260045260246000fd5b50919050565b608051612b156200025e600039600081816102ca01528181610dfb01526112940152612b156000f3fe608060405234801561001057600080fd5b506004361061018e5760003560e01c80638597b7c9116100de578063b88d4fde11610097578063e985e9c511610071578063e985e9c5146104ac578063f3e6ea8a146104e8578063f887ea40146104fb578063ff88bb521461050e57600080fd5b8063b88d4fde146103d1578063c87b56dd146103e4578063dc0a4229146103f757600080fd5b80638597b7c9146102ff57806395d89b411461032257806399fbab881461032a578063a22cb46514610382578063b044d1e014610395578063b86ba1e0146103a857600080fd5b80633e99c1e41161014b57806370a082311161012557806370a08231146102a957806371640de3146102bc57806374d32ad4146102c5578063839006f2146102ec57600080fd5b80633e99c1e41461024457806342842e0e146102835780636352211e1461029657600080fd5b806301ffc9a71461019357806306fdde03146101bb578063081812fc146101d0578063095ea7b3146101fb57806323b872dd146102105780633981262c14610223575b600080fd5b6101a66101a13660046123b4565b610537565b60405190151581526020015b60405180910390f35b6101c3610589565b6040516101b29190612429565b6101e36101de36600461243c565b61061b565b6040516001600160a01b0390911681526020016101b2565b61020e61020936600461246a565b610642565b005b61020e61021e366004612496565b61075d565b6102366102313660046124d7565b61078e565b6040519081526020016101b2565b61025761025236600461252a565b610b8e565b604080516001600160701b03948516815293909216602084015263ffffffff16908201526060016101b2565b61020e610291366004612496565b610bd0565b6101e36102a436600461243c565b610beb565b6102366102b736600461252a565b610c4b565b610236600a5481565b6101e37f000000000000000000000000000000000000000000000000000000000000000081565b61020e6102fa36600461252a565b610cd1565b6101a661030d36600461252a565b60076020526000908152604090205460ff1681565b6101c3610da2565b61037161033836600461243c565b600960205260009081526040902080546001820154600283015460038401546004909401546001600160a01b0390931693919290919085565b6040516101b2959493929190612547565b61020e610390366004612583565b610db1565b6102366103a33660046125bc565b610dc0565b6102366103b636600461252a565b6001600160a01b031660009081526008602052604090205490565b61020e6103df366004612631565b611134565b6101c36103f236600461243c565b611166565b61046561040536600461252a565b600860209081526000918252604091829020805460018201548451808601909552600283015485526003909201549284019290925290916001600160701b0380831692600160701b810490911691600160e01b90910463ffffffff169085565b604080519586526001600160701b03948516602080880191909152949093169285019290925263ffffffff16606084015280516080840152015160a082015260c0016101b2565b6101a66104ba366004612711565b6001600160a01b03918216600090815260056020908152604080832093909416825291909152205460ff1690565b6102366104f636600461273f565b6111da565b600b546101e3906001600160a01b031681565b6101e361051c36600461243c565b6000908152600960205260409020546001600160a01b031690565b60006001600160e01b031982166380ac58cd60e01b148061056857506001600160e01b03198216635b5e139f60e01b145b8061058357506301ffc9a760e01b6001600160e01b03198316145b92915050565b6060600080546105989061277e565b80601f01602080910402602001604051908101604052809291908181526020018280546105c49061277e565b80156106115780601f106105e657610100808354040283529160200191610611565b820191906000526020600020905b8154815290600101906020018083116105f457829003601f168201915b5050505050905090565b6000610626826115d1565b506000908152600460205260409020546001600160a01b031690565b600061064d82610beb565b9050806001600160a01b0316836001600160a01b031614156106c05760405162461bcd60e51b815260206004820152602160248201527f4552433732313a20617070726f76616c20746f2063757272656e74206f776e656044820152603960f91b60648201526084015b60405180910390fd5b336001600160a01b03821614806106dc57506106dc81336104ba565b61074e5760405162461bcd60e51b815260206004820152603d60248201527f4552433732313a20617070726f76652063616c6c6572206973206e6f7420746f60448201527f6b656e206f776e6572206f7220617070726f76656420666f7220616c6c00000060648201526084016106b7565b6107588383611633565b505050565b61076733826116a1565b6107835760405162461bcd60e51b81526004016106b7906127b9565b610758838383611720565b6000610798611884565b846107a281611906565b846107ac81611906565b6107b4611985565b6000806107c089610b8e565b506040516370a0823160e01b815230600482015291935091506001600160a01b038a16906370a082319060240160206040518083038186803b15801561080557600080fd5b505afa158015610819573d6000803e3d6000fd5b505050506040513d601f19601f8201168201806040525081019061083d9190612806565b610850886001600160701b038416612835565b11156108bb5760405162461bcd60e51b815260206004820152603460248201527f42617365506f6f6c56323a3a646f75626c65537761703a20496e7375666669636044820152731a595b9d08151bdad95b9cc8141c9bdd9a59195960621b60648201526084016106b7565b60405163ec6341b360e01b8152600481018890526001600160701b0380831660248301528316604482015260009073__VaderMath_____________________________9063ec6341b39060640160206040518083038186803b15801561092057600080fd5b505af4158015610934573d6000803e3d6000fd5b505050506040513d601f19601f820116820180604052508101906109589190612806565b90506000811180156109735750826001600160701b03168111155b61098f5760405162461bcd60e51b81526004016106b79061284d565b6109c08a6109a6836001600160701b038716612894565b6109b98b6001600160701b038716612835565b86866119df565b604051309033907f236c64fd115dc00cafeeaf44b6ca2af23a66ba0e282852756756b073c5515075906109fd908e906000908e9088908390612547565b60405180910390a3610a0e89610b8e565b5060405163ec6341b360e01b8152600481018490526001600160701b03808416602483015282166044820152919450925073__VaderMath_____________________________9063ec6341b39060640160206040518083038186803b158015610a7657600080fd5b505af4158015610a8a573d6000803e3d6000fd5b505050506040513d601f19601f82011682018060405250810190610aae9190612806565b9550600086118015610ac95750816001600160701b03168611155b610ae55760405162461bcd60e51b81526004016106b79061284d565b610b0f89610afc836001600160701b038716612835565b6109b9896001600160701b038716612894565b866001600160a01b0316336001600160a01b03167f236c64fd115dc00cafeeaf44b6ca2af23a66ba0e282852756756b073c55150758b846000808c604051610b5b959493929190612547565b60405180910390a3610b776001600160a01b038a168888611bd1565b505050610b846001600655565b5050949350505050565b6001600160a01b03166000908152600860205260409020600101546001600160701b0380821692600160701b830490911691600160e01b900463ffffffff1690565b61075883838360405180602001604052806000815250611134565b6000818152600260205260408120546001600160a01b0316806105835760405162461bcd60e51b8152602060048201526018602482015277115490cdcc8c4e881a5b9d985b1a59081d1bdad95b88125160421b60448201526064016106b7565b60006001600160a01b038216610cb55760405162461bcd60e51b815260206004820152602960248201527f4552433732313a2061646472657373207a65726f206973206e6f7420612076616044820152683634b21037bbb732b960b91b60648201526084016106b7565b506001600160a01b031660009081526003602052604090205490565b6040516370a0823160e01b81523060048201526000906001600160a01b038316906370a082319060240160206040518083038186803b158015610d1357600080fd5b505afa158015610d27573d6000803e3d6000fd5b505050506040513d601f19601f82011682018060405250810190610d4b9190612806565b6001600160a01b038316600090815260086020526040812060010154919250600160701b9091046001600160701b031690610d868284612894565b9050610d9c6001600160a01b0385163383611bd1565b50505050565b6060600180546105989061277e565b610dbc338383611c34565b5050565b6000610dca611985565b610dd2611884565b85610ddc81611906565b600080610de889610b8e565b509092509050610e236001600160a01b037f00000000000000000000000000000000000000000000000000000000000000001687308b611d03565b610e386001600160a01b038a1687308a611d03565b6001600160a01b0389166000908152600860205260409020805480610e5f57899550610f0a565b604051630bd92c2560e01b8152600481018b90526001600160701b038086166024830152604482018b9052841660648201526084810182905273__VaderMath_____________________________90630bd92c259060a40160206040518083038186803b158015610ecf57600080fd5b505af4158015610ee3573d6000803e3d6000fd5b505050506040513d601f19601f82011682018060405250810190610f079190612806565b95505b60008611610f745760405162461bcd60e51b815260206004820152603160248201527f42617365506f6f6c56323a3a6d696e743a20496e73756666696369656e74204c6044820152701a5c5d5a591a5d1e48141c9bdd9a591959607a1b60648201526084016106b7565b600a805460009182610f85836128ab565b909155509050610f958783612835565b8355610fa18882611d3b565b6040518060a001604052808d6001600160a01b031681526020014281526020018881526020018c81526020018b8152506009600083815260200190815260200160002060008201518160000160006101000a8154816001600160a01b0302191690836001600160a01b031602179055506020820151816001015560408201518160020155606082015181600301556080820151816004015590505061106f8c8c876001600160701b03166110559190612835565b6110688d6001600160701b038916612835565b88886119df565b876001600160a01b0316896001600160a01b03167f2f00e3cdd69a77be7ed215ec7b2a36784dd158f921fca79ac29deffa353fe6ee8d8d6040516110bd929190918252602082015260400190565b60405180910390a3876001600160a01b0316896001600160a01b03167facb65a3732803c06afdc052d7b3aa5deba2ce8bcc52411e86bddb916a529daf9838a604051611113929190918252602082015260400190565b60405180910390a350505050505061112b6001600655565b95945050505050565b61113e33836116a1565b61115a5760405162461bcd60e51b81526004016106b7906127b9565b610d9c84848484611ec6565b6060611171826115d1565b600061118860408051602081019091526000815290565b905060008151116111a857604051806020016040528060008152506111d3565b806111b284611ef9565b6040516020016111c39291906128c6565b6040516020818303038152906040525b9392505050565b60006111e4611884565b846111ee81611906565b6111f6611985565b600085118015611204575083155b806112185750841580156112185750600084115b61127d5760405162461bcd60e51b815260206004820152603060248201527f42617365506f6f6c56323a3a737761703a204f6e6c79204f6e652d536964656460448201526f0814ddd85c1cc814dd5c1c1bdc9d195960821b60648201526084016106b7565b60008061128988610b8e565b5090925090506000807f00000000000000000000000000000000000000000000000000000000000000006001600160a01b03888116908216148015906112e157508a6001600160a01b0316886001600160a01b031614155b6113385760405162461bcd60e51b815260206004820152602260248201527f42617365506f6f6c56323a3a737761703a20496e76616c69642052656365697660448201526132b960f11b60648201526084016106b7565b88156114285760405163ec6341b360e01b8152600481018a90526001600160701b0380861660248301528616604482015273__VaderMath_____________________________9063ec6341b39060640160206040518083038186803b1580156113a057600080fd5b505af41580156113b4573d6000803e3d6000fd5b505050506040513d601f19601f820116820180604052508101906113d89190612806565b92506000831180156113f35750846001600160701b03168311155b61140f5760405162461bcd60e51b81526004016106b7906128f5565b6114236001600160a01b0382168985611bd1565b61150d565b60405163ec6341b360e01b8152600481018b90526001600160701b0380871660248301528516604482015273__VaderMath_____________________________9063ec6341b39060640160206040518083038186803b15801561148a57600080fd5b505af415801561149e573d6000803e3d6000fd5b505050506040513d601f19601f820116820180604052508101906114c29190612806565b91506000821180156114dd5750836001600160701b03168211155b6114f95760405162461bcd60e51b81526004016106b7906128f5565b61150d6001600160a01b038c168984611bd1565b506115558a8a611526856001600160701b038916612894565b6115309190612835565b8a611544856001600160701b038916612894565b61154e9190612835565b87876119df565b866001600160a01b0316336001600160a01b03167f236c64fd115dc00cafeeaf44b6ca2af23a66ba0e282852756756b073c55150758c8c8c87876040516115a0959493929190612547565b60405180910390a3600082116115b657806115b8565b815b9550505050506115c86001600655565b50949350505050565b6000818152600260205260409020546001600160a01b03166116305760405162461bcd60e51b8152602060048201526018602482015277115490cdcc8c4e881a5b9d985b1a59081d1bdad95b88125160421b60448201526064016106b7565b50565b600081815260046020526040902080546001600160a01b0319166001600160a01b038416908117909155819061166882610beb565b6001600160a01b03167f8c5be1e5ebec7d5bd14f71427d1e84f3dd0314c0f7b2291e5b200ac8c7c3b92560405160405180910390a45050565b6000806116ad83610beb565b9050806001600160a01b0316846001600160a01b031614806116f457506001600160a01b0380821660009081526005602090815260408083209388168352929052205460ff165b806117185750836001600160a01b031661170d8461061b565b6001600160a01b0316145b949350505050565b826001600160a01b031661173382610beb565b6001600160a01b0316146117595760405162461bcd60e51b81526004016106b790612936565b6001600160a01b0382166117bb5760405162461bcd60e51b8152602060048201526024808201527f4552433732313a207472616e7366657220746f20746865207a65726f206164646044820152637265737360e01b60648201526084016106b7565b826001600160a01b03166117ce82610beb565b6001600160a01b0316146117f45760405162461bcd60e51b81526004016106b790612936565b600081815260046020908152604080832080546001600160a01b03199081169091556001600160a01b0387811680865260038552838620805460001901905590871680865283862080546001019055868652600290945282852080549092168417909155905184937fddf252ad1be2c89b69c2b068fc378daa952ba7f163c4a11628f55a4df523b3ef91a4505050565b600b546001600160a01b031633146119045760405162461bcd60e51b815260206004820152603760248201527f42617365506f6f6c56323a3a5f6f6e6c79526f757465723a204f6e6c7920526f60448201527f7574657220697320616c6c6f77656420746f2063616c6c00000000000000000060648201526084016106b7565b565b6001600160a01b03811660009081526007602052604090205460ff166116305760405162461bcd60e51b815260206004820152602e60248201527f42617365506f6f6c56323a3a5f737570706f72746564546f6b656e3a20556e7360448201526d3ab83837b93a32b2102a37b5b2b760911b60648201526084016106b7565b600260065414156119d85760405162461bcd60e51b815260206004820152601f60248201527f5265656e7472616e637947756172643a207265656e7472616e742063616c6c0060448201526064016106b7565b6002600655565b6001600160701b0384118015906119fd57506001600160701b038311155b611a575760405162461bcd60e51b815260206004820152602560248201527f42617365506f6f6c56323a3a5f7570646174653a2042616c616e6365204f766560448201526472666c6f7760d81b60648201526084016106b7565b6000611a6864010000000042612991565b6001600160a01b038716600090815260086020526040902060018101549192509063ffffffff600160e01b9091048116830390811615801590611ab357506001600160701b03851615155b8015611ac757506001600160701b03841615155b15611b36578063ffffffff16611aef86611ae087611f96565b6001600160e01b031690611faf565b6002840180546001600160e01b03929092169290920201905563ffffffff8116611b1c85611ae088611f96565b6003840180546001600160e01b0392909216929092020190555b506001810180546001600160701b038881166001600160e01b031990921691909117600160701b91881691909102176001600160e01b0316600160e01b63ffffffff851602179055604080516001600160a01b0389168152602081018890529081018690527ff10fc780c78f994a214c79a2ae8d8b7bfe7cc3f0f935a8f05a29525e71d7f1279060600160405180910390a150505050505050565b6040516001600160a01b03831660248201526044810182905261075890849063a9059cbb60e01b906064015b60408051601f198184030181529190526020810180516001600160e01b03166001600160e01b031990931692909217909152611fc4565b816001600160a01b0316836001600160a01b03161415611c965760405162461bcd60e51b815260206004820152601960248201527f4552433732313a20617070726f766520746f2063616c6c65720000000000000060448201526064016106b7565b6001600160a01b03838116600081815260056020908152604080832094871680845294825291829020805460ff191686151590811790915591519182527f17307eab39ab6107e8899845ad3d59bd9653f200f220920489ca2b5937696c31910160405180910390a3505050565b6040516001600160a01b0380851660248301528316604482015260648101829052610d9c9085906323b872dd60e01b90608401611bfd565b6001600160a01b038216611d915760405162461bcd60e51b815260206004820181905260248201527f4552433732313a206d696e7420746f20746865207a65726f206164647265737360448201526064016106b7565b6000818152600260205260409020546001600160a01b031615611df65760405162461bcd60e51b815260206004820152601c60248201527f4552433732313a20746f6b656e20616c7265616479206d696e7465640000000060448201526064016106b7565b6000818152600260205260409020546001600160a01b031615611e5b5760405162461bcd60e51b815260206004820152601c60248201527f4552433732313a20746f6b656e20616c7265616479206d696e7465640000000060448201526064016106b7565b6001600160a01b038216600081815260036020908152604080832080546001019055848352600290915280822080546001600160a01b0319168417905551839291907fddf252ad1be2c89b69c2b068fc378daa952ba7f163c4a11628f55a4df523b3ef908290a45050565b611ed1848484611720565b611edd84848484612099565b610d9c5760405162461bcd60e51b81526004016106b7906129a5565b60606000611f06836121a6565b600101905060008167ffffffffffffffff811115611f2657611f2661261b565b6040519080825280601f01601f191660200182016040528015611f50576020820181803683370190505b5090508181016020015b600019016f181899199a1a9b1b9c1cb0b131b232b360811b600a86061a8153600a8504945084611f8957611f8e565b611f5a565b509392505050565b6000610583600160701b6001600160701b0384166129f7565b60006111d36001600160701b03831684612a26565b6000612019826040518060400160405280602081526020017f5361666545524332303a206c6f772d6c6576656c2063616c6c206661696c6564815250856001600160a01b031661227e9092919063ffffffff16565b905080516000148061203a57508080602001905181019061203a9190612a4c565b6107585760405162461bcd60e51b815260206004820152602a60248201527f5361666545524332303a204552433230206f7065726174696f6e20646964206e6044820152691bdd081cdd58d8d9595960b21b60648201526084016106b7565b60006001600160a01b0384163b1561219b57604051630a85bd0160e11b81526001600160a01b0385169063150b7a02906120dd903390899088908890600401612a69565b602060405180830381600087803b1580156120f757600080fd5b505af1925050508015612127575060408051601f3d908101601f1916820190925261212491810190612aa6565b60015b612181573d808015612155576040519150601f19603f3d011682016040523d82523d6000602084013e61215a565b606091505b5080516121795760405162461bcd60e51b81526004016106b7906129a5565b805181602001fd5b6001600160e01b031916630a85bd0160e11b149050611718565b506001949350505050565b60008072184f03e93ff9f4daa797ed6e38ed64bf6a1f0160401b83106121e55772184f03e93ff9f4daa797ed6e38ed64bf6a1f0160401b830492506040015b6d04ee2d6d415b85acef81000000008310612211576d04ee2d6d415b85acef8100000000830492506020015b662386f26fc10000831061222f57662386f26fc10000830492506010015b6305f5e1008310612247576305f5e100830492506008015b612710831061225b57612710830492506004015b6064831061226d576064830492506002015b600a83106105835760010192915050565b6060611718848460008585600080866001600160a01b031685876040516122a59190612ac3565b60006040518083038185875af1925050503d80600081146122e2576040519150601f19603f3d011682016040523d82523d6000602084013e6122e7565b606091505b50915091506122f887838387612303565b979650505050505050565b6060831561236f578251612368576001600160a01b0385163b6123685760405162461bcd60e51b815260206004820152601d60248201527f416464726573733a2063616c6c20746f206e6f6e2d636f6e747261637400000060448201526064016106b7565b5081611718565b61171883838151156123845781518083602001fd5b8060405162461bcd60e51b81526004016106b79190612429565b6001600160e01b03198116811461163057600080fd5b6000602082840312156123c657600080fd5b81356111d38161239e565b60005b838110156123ec5781810151838201526020016123d4565b83811115610d9c5750506000910152565b600081518084526124158160208601602086016123d1565b601f01601f19169290920160200192915050565b6020815260006111d360208301846123fd565b60006020828403121561244e57600080fd5b5035919050565b6001600160a01b038116811461163057600080fd5b6000806040838503121561247d57600080fd5b823561248881612455565b946020939093013593505050565b6000806000606084860312156124ab57600080fd5b83356124b681612455565b925060208401356124c681612455565b929592945050506040919091013590565b600080600080608085870312156124ed57600080fd5b84356124f881612455565b9350602085013561250881612455565b925060408501359150606085013561251f81612455565b939692955090935050565b60006020828403121561253c57600080fd5b81356111d381612455565b6001600160a01b03959095168552602085019390935260408401919091526060830152608082015260a00190565b801515811461163057600080fd5b6000806040838503121561259657600080fd5b82356125a181612455565b915060208301356125b181612575565b809150509250929050565b600080600080600060a086880312156125d457600080fd5b85356125df81612455565b9450602086013593506040860135925060608601356125fd81612455565b9150608086013561260d81612455565b809150509295509295909350565b634e487b7160e01b600052604160045260246000fd5b6000806000806080858703121561264757600080fd5b843561265281612455565b9350602085013561266281612455565b925060408501359150606085013567ffffffffffffffff8082111561268657600080fd5b818701915087601f83011261269a57600080fd5b8135818111156126ac576126ac61261b565b604051601f8201601f19908116603f011681019083821181831017156126d4576126d461261b565b816040528281528a60208487010111156126ed57600080fd5b82602086016020830137600060208483010152809550505050505092959194509250565b6000806040838503121561272457600080fd5b823561272f81612455565b915060208301356125b181612455565b6000806000806080858703121561275557600080fd5b843561276081612455565b93506020850135925060408501359150606085013561251f81612455565b600181811c9082168061279257607f821691505b602082108114156127b357634e487b7160e01b600052602260045260246000fd5b50919050565b6020808252602d908201527f4552433732313a2063616c6c6572206973206e6f7420746f6b656e206f776e6560408201526c1c881bdc88185c1c1c9bdd9959609a1b606082015260800190565b60006020828403121561281857600080fd5b5051919050565b634e487b7160e01b600052601160045260246000fd5b600082198211156128485761284861281f565b500190565b60208082526027908201527f42617365506f6f6c56323a3a646f75626c65537761703a205377617020496d706040820152666f737369626c6560c81b606082015260800190565b6000828210156128a6576128a661281f565b500390565b60006000198214156128bf576128bf61281f565b5060010190565b600083516128d88184602088016123d1565b8351908301906128ec8183602088016123d1565b01949350505050565b60208082526021908201527f42617365506f6f6c56323a3a737761703a205377617020496d706f737369626c6040820152606560f81b606082015260800190565b60208082526025908201527f4552433732313a207472616e736665722066726f6d20696e636f72726563742060408201526437bbb732b960d91b606082015260800190565b634e487b7160e01b600052601260045260246000fd5b6000826129a0576129a061297b565b500690565b60208082526032908201527f4552433732313a207472616e7366657220746f206e6f6e20455243373231526560408201527131b2b4bb32b91034b6b83632b6b2b73a32b960711b606082015260800190565b60006001600160e01b0382811684821681151582840482111615612a1d57612a1d61281f565b02949350505050565b60006001600160e01b0383811680612a4057612a4061297b565b92169190910492915050565b600060208284031215612a5e57600080fd5b81516111d381612575565b6001600160a01b0385811682528416602082015260408101839052608060608201819052600090612a9c908301846123fd565b9695505050505050565b600060208284031215612ab857600080fd5b81516111d38161239e565b60008251612ad58184602087016123d1565b919091019291505056fea26469706673582212207e5f548ea4c106513b4d4cf89d9cf1ff86737c078cb42cd8f16ad7a778030a0d64736f6c63430008090033",
  "immutableReferences": {
    "8411": [
      {
        "length": 32,
        "start": 714
      },
      {
        "length": 32,
        "start": 3579
      },
      {
        "length": 32,
        "start": 4756
      }
    ]
  },
  "source": "// SPDX-License-Identifier: Unlicense\r\n\r\npragma solidity =0.8.9;\r\n\r\nimport \"@openzeppelin/contracts/token/ERC721/ERC721.sol\";\r\n\r\nimport \"@openzeppelin/contracts/token/ERC20/utils/SafeERC20.sol\";\r\nimport \"@openzeppelin/contracts/security/ReentrancyGuard.sol\";\r\n\r\nimport \"../../shared/ProtocolConstants.sol\";\r\n\r\nimport \"../../dex/math/VaderMath.sol\";\r\nimport \"../../dex/utils/GasThrottle.sol\";\r\n\r\nimport \"../../external/libraries/UQ112x112.sol\";\r\n\r\nimport \"../../interfaces/dex-v2/pool/IBasePoolV2.sol\";\r\n\r\n/*\r\n * @dev Implementation of {BasePoolV2} contract.\r\n *\r\n * The BasePoolV2 contract keeps track of all the Vader pools in the form of\r\n * pairs. Each pair tracked through {pairInfo} mapping and is mapped against the\r\n * foreign asset for which the pair is created.\r\n *\r\n * Has function to deposited liquidity to any of pair by specifying the mapped\r\n * foreign asset against the pair.\r\n *\r\n * The minted liquidity is associated with a position, that is tracked by a minted NFT.\r\n * The NFT has information about the pair for which it represents the liquidity.\r\n *\r\n * The contract allows redeeming of liquidity against a particular pool by burning the\r\n * associated position representing NFT.\r\n *\r\n * The contract allows swapping of native to foreign assets and vice versa within a pair and\r\n * allows foreign to foreign asset swap across two different pairs.\r\n *\r\n * Keeps track of the cumulative prices for both native and foreign assets for\r\n * pairs and updates them after minting and burning of liquidity, and swapping of assets.\r\n **/\r\ncontract BasePoolV2 is\r\n    IBasePoolV2,\r\n    ProtocolConstants,\r\n    GasThrottle,\r\n    ERC721,\r\n    ReentrancyGuard\r\n{\r\n    /* ========== LIBRARIES ========== */\r\n\r\n    // Used for safe token transfers\r\n    using SafeERC20 for IERC20;\r\n\r\n    // Used by Uniswap-like TWAP mechanism\r\n    using UQ112x112 for uint224;\r\n\r\n    /* ========== STATE VARIABLES ========== */\r\n\r\n    // Address of native asset (Vader or USDV).\r\n    IERC20 public immutable override nativeAsset;\r\n\r\n    // Denotes what tokens are actively supported by the system\r\n    mapping(IERC20 => bool) public override supported;\r\n\r\n    /*\r\n     * @dev A mapping of foreign asset to the pool's pair.\r\n     * Each pair is represents a pool of native and foreign assets and\r\n     * contains data such as the reserves of native and foreign assets and\r\n     * the liquidity units issues against the deposits of these assets.\r\n     **/\r\n    mapping(IERC20 => PairInfo) public pairInfo;\r\n\r\n    /*\r\n     * @dev A mapping representing positions of liquidity providers. Each position\r\n     * is an Non-fungible token that is mapped against amounts of native and foreign assets\r\n     * deposited across different pools of pairs the timestamp at which the position\r\n     * is created and the amount of liquidity of a particular pool assigned to the LP.\r\n     *\r\n     * Each position in the mapping is mapped against {positionId}.\r\n     **/\r\n    mapping(uint256 => Position) public positions;\r\n\r\n    // A unique id the of the position created when liquidity is added to a pool.\r\n    uint256 public positionId;\r\n\r\n    // Address of the router contract (used for restriction)\r\n    address public router;\r\n\r\n    /* ========== CONSTRUCTOR ========== */\r\n\r\n    /*\r\n     * @dev Initializes the contract by setting address of native asset.\r\n     **/\r\n    constructor(IERC20 _nativeAsset) ERC721(\"Vader LP\", \"VLP\") {\r\n        require(\r\n            _nativeAsset != IERC20(_ZERO_ADDRESS),\r\n            \"BasePoolV2::constructor: Incorrect Arguments\"\r\n        );\r\n        nativeAsset = IERC20(_nativeAsset);\r\n    }\r\n\r\n    /* ========== VIEWS ========== */\r\n\r\n    /*\r\n     * @dev Accepts address of foreign asset {foreignAsset} to determine the pair (pool)\r\n     * and returns reserves amounts of native and foreign assets, and the last timestamp\r\n     * when cumulative prices for these assets were updated.\r\n     **/\r\n    function getReserves(IERC20 foreignAsset)\r\n        public\r\n        view\r\n        returns (\r\n            uint112 reserveNative,\r\n            uint112 reserveForeign,\r\n            uint32 blockTimestampLast\r\n        )\r\n    {\r\n        PairInfo storage pair = pairInfo[foreignAsset];\r\n        (reserveNative, reserveForeign, blockTimestampLast) = (\r\n            pair.reserveNative,\r\n            pair.reserveForeign,\r\n            pair.blockTimestampLast\r\n        );\r\n    }\r\n\r\n    /*\r\n     * @dev Accepts {id} of a liquidity position and returns foreign asset's\r\n     * address for that particular liquidity position.\r\n     **/\r\n    function positionForeignAsset(uint256 id)\r\n        external\r\n        view\r\n        override\r\n        returns (IERC20)\r\n    {\r\n        return positions[id].foreignAsset;\r\n    }\r\n\r\n    function pairSupply(IERC20 foreignAsset)\r\n        external\r\n        view\r\n        override\r\n        returns (uint256)\r\n    {\r\n        return pairInfo[foreignAsset].totalSupply;\r\n    }\r\n\r\n    /* ========== MUTATIVE FUNCTIONS ========== */\r\n\r\n    /*\r\n     * @dev Allows depositing of liquidity to a pool/pair by accepting native and foreign assets\r\n     * and mints an NFT to the {to} address which records in {positions} mapping, the amounts\r\n     * of the native and foreign assets deposited and the liquidity units minted against.\r\n     *\r\n     * The pool/pair to accept the native and foreign assets against is determined by {foreignAsset}.\r\n     *\r\n     * Updates the total supply of liquidity units by adding currently minted liquidity units\r\n     * to {pair.totalSupply} of pair/pool.\r\n     *\r\n     * Updates the cumulative prices of native and foreign assets in pool/pair after minting the appropriate\r\n     * liquidity units.\r\n     *\r\n     * Requirements:\r\n     * - Amounts of native and foreign must be approved to the pool prior to calling the `mint` function.\r\n     * - The amount of {liquidity} to be minted must be greater than 0.\r\n     * - The param {foreignAsset} must be a supported token.\r\n     * - Can only be called by Router.\r\n     **/\r\n    function mint(\r\n        IERC20 foreignAsset,\r\n        uint256 nativeDeposit,\r\n        uint256 foreignDeposit,\r\n        address from,\r\n        address to\r\n    )\r\n        external\r\n        override\r\n        nonReentrant\r\n        onlyRouter\r\n        supportedToken(foreignAsset)\r\n        returns (uint256 liquidity)\r\n    {\r\n        (uint112 reserveNative, uint112 reserveForeign, ) = getReserves(\r\n            foreignAsset\r\n        ); // gas savings\r\n\r\n        nativeAsset.safeTransferFrom(from, address(this), nativeDeposit);\r\n        foreignAsset.safeTransferFrom(from, address(this), foreignDeposit);\r\n\r\n        PairInfo storage pair = pairInfo[foreignAsset];\r\n        uint256 totalLiquidityUnits = pair.totalSupply;\r\n        if (totalLiquidityUnits == 0) liquidity = nativeDeposit;\r\n        else\r\n            liquidity = VaderMath.calculateLiquidityUnits(\r\n                nativeDeposit,\r\n                reserveNative,\r\n                foreignDeposit,\r\n                reserveForeign,\r\n                totalLiquidityUnits\r\n            );\r\n\r\n        require(\r\n            liquidity > 0,\r\n            \"BasePoolV2::mint: Insufficient Liquidity Provided\"\r\n        );\r\n\r\n        uint256 id = positionId++;\r\n\r\n        pair.totalSupply = totalLiquidityUnits + liquidity;\r\n        _mint(to, id);\r\n\r\n        positions[id] = Position(\r\n            foreignAsset,\r\n            block.timestamp,\r\n            liquidity,\r\n            nativeDeposit,\r\n            foreignDeposit\r\n        );\r\n\r\n        _update(\r\n            foreignAsset,\r\n            reserveNative + nativeDeposit,\r\n            reserveForeign + foreignDeposit,\r\n            reserveNative,\r\n            reserveForeign\r\n        );\r\n\r\n        emit Mint(from, to, nativeDeposit, foreignDeposit);\r\n        emit PositionOpened(from, to, id, liquidity);\r\n    }\r\n\r\n    /*\r\n     * @dev Allows redeeming of liquidity units by burning the NFT with {id} associated with the liquidity\r\n     * position.\r\n     *\r\n     * Computes the amounts of native and foreign assets from pool/pair against which the NFT with Id {id}\r\n     * was minted. The computed assets' amounts depends upon current reserves of assets and\r\n     * the liquidity associated with the position, and is transferred to the {to} address.\r\n     *\r\n     * Burns the redeemed NFT token and decreases {pair.totalSupply} by the {liquidity}\r\n     * associated with that NFT token.\r\n     *\r\n     * Updates the cumulative prices for native and foreign assets in pool/pair after transferring the assets\r\n     * to the {to} address.\r\n     *\r\n     * Requirements:\r\n     * - The NFT token being redeemed must be transferred to the contract prior to calling `_burn`.\r\n     * - The amount of native and foreign assets computed for transfer to {to} address must be greater\r\n     *   than 0.\r\n     **/\r\n    function _burn(uint256 id, address to)\r\n        internal\r\n        nonReentrant\r\n        returns (uint256 amountNative, uint256 amountForeign)\r\n    {\r\n        require(\r\n            ownerOf(id) == address(this),\r\n            \"BasePoolV2::burn: Incorrect Ownership\"\r\n        );\r\n\r\n        IERC20 foreignAsset = positions[id].foreignAsset;\r\n\r\n        (uint112 reserveNative, uint112 reserveForeign, ) = getReserves(\r\n            foreignAsset\r\n        ); // gas savings\r\n\r\n        uint256 liquidity = positions[id].liquidity;\r\n\r\n        PairInfo storage pair = pairInfo[foreignAsset];\r\n        uint256 _totalSupply = pair.totalSupply;\r\n        amountNative = (liquidity * reserveNative) / _totalSupply;\r\n        amountForeign = (liquidity * reserveForeign) / _totalSupply;\r\n\r\n        require(\r\n            amountNative > 0 && amountForeign > 0,\r\n            \"BasePoolV2::burn: Insufficient Liquidity Burned\"\r\n        );\r\n\r\n        pair.totalSupply = _totalSupply - liquidity;\r\n        _burn(id);\r\n\r\n        nativeAsset.safeTransfer(to, amountNative);\r\n        foreignAsset.safeTransfer(to, amountForeign);\r\n\r\n        _update(\r\n            foreignAsset,\r\n            reserveNative - amountNative,\r\n            reserveForeign - amountForeign,\r\n            reserveNative,\r\n            reserveForeign\r\n        );\r\n\r\n        emit Burn(msg.sender, amountNative, amountForeign, to);\r\n    }\r\n\r\n    /*\r\n     * @dev Allows swapping between two foreign assets from two different pools/pairs.\r\n     *\r\n     * It receives amount {foreignAmountIn} in {foreignAssetA} and returns the swapped amount in {foreignAssetB}.\r\n     *\r\n     * The amount {foreignAmountIn} is swapped to the native asset from the pair against {foreignAssetA} and the\r\n     * received native asset is swapped to foreign asset from the pair against {foreignAssetB}.\r\n     *\r\n     * Updates the cumulative prices for native and foreign assets across pools against assets {foreignAssetA} and\r\n     * {foreignAssetB}.\r\n     *\r\n     * Requirements:\r\n     * - The amount {foreignAmountIn} in {foreignAssetA} must be transferred to the contract prior to calling\r\n     *   the function `doubleSwap`.\r\n     * - The intermediary native asset retrieved from first swap must be greater than 0 and the reserve for native asset.\r\n     * - The foreign amount received from second swap must be greater than 0 and the reserve for foreign asset in the pair/pool\r\n     *   against that particular foreign asset.\r\n     * - The params {foreignAssetA} and {foreignAssetB} must be the supported tokens.\r\n     * - Can only be called by Router.\r\n     **/\r\n    function doubleSwap(\r\n        IERC20 foreignAssetA,\r\n        IERC20 foreignAssetB,\r\n        uint256 foreignAmountIn,\r\n        address to\r\n    )\r\n        external\r\n        override\r\n        onlyRouter\r\n        supportedToken(foreignAssetA)\r\n        supportedToken(foreignAssetB)\r\n        nonReentrant\r\n        validateGas\r\n        returns (uint256 foreignAmountOut)\r\n    {\r\n        (uint112 nativeReserve, uint112 foreignReserve, ) = getReserves(\r\n            foreignAssetA\r\n        ); // gas savings\r\n\r\n        require(\r\n            foreignReserve + foreignAmountIn <=\r\n                foreignAssetA.balanceOf(address(this)),\r\n            \"BasePoolV2::doubleSwap: Insufficient Tokens Provided\"\r\n        );\r\n\r\n        uint256 nativeAmountOut = VaderMath.calculateSwap(\r\n            foreignAmountIn,\r\n            foreignReserve,\r\n            nativeReserve\r\n        );\r\n\r\n        require(\r\n            nativeAmountOut > 0 && nativeAmountOut <= nativeReserve,\r\n            \"BasePoolV2::doubleSwap: Swap Impossible\"\r\n        );\r\n\r\n        _update(\r\n            foreignAssetA,\r\n            nativeReserve - nativeAmountOut,\r\n            foreignReserve + foreignAmountIn,\r\n            nativeReserve,\r\n            foreignReserve\r\n        );\r\n\r\n        emit Swap(\r\n            foreignAssetA,\r\n            msg.sender,\r\n            0,\r\n            foreignAmountIn,\r\n            nativeAmountOut,\r\n            0,\r\n            address(this)\r\n        );\r\n\r\n        (nativeReserve, foreignReserve, ) = getReserves(foreignAssetB); // gas savings\r\n\r\n        foreignAmountOut = VaderMath.calculateSwap(\r\n            nativeAmountOut,\r\n            nativeReserve,\r\n            foreignReserve\r\n        );\r\n\r\n        require(\r\n            foreignAmountOut > 0 && foreignAmountOut <= foreignReserve,\r\n            \"BasePoolV2::doubleSwap: Swap Impossible\"\r\n        );\r\n\r\n        _update(\r\n            foreignAssetB,\r\n            nativeReserve + nativeAmountOut,\r\n            foreignReserve - foreignAmountOut,\r\n            nativeReserve,\r\n            foreignReserve\r\n        );\r\n\r\n        emit Swap(\r\n            foreignAssetB,\r\n            msg.sender,\r\n            nativeAmountOut,\r\n            0,\r\n            0,\r\n            foreignAmountOut,\r\n            to\r\n        );\r\n\r\n        foreignAssetB.safeTransfer(to, foreignAmountOut);\r\n    }\r\n\r\n    /*\r\n     * @dev Allows swapping between native and foreign assets from within a single pair/pool determined\r\n     * by {foreignAsset}.\r\n     *\r\n     * It receives the source asset and computes the destination asset and transfers it to the {to} address.\r\n     *\r\n     * Updates the cumulative prices for native and foreign assets for the pair involved after performing swap.\r\n     *\r\n     * Returns the amount of destination tokens resulting from the swap.\r\n     *\r\n     * Requirements:\r\n     * - Param {nativeAmountIn} must be zero and {foreignAmountIn} must be non-zero\r\n     *   if the destination asset in swap is native asset.\r\n     * - Param {foreignAmountIn} must be zero and {nativeAmountIn} must be non zero\r\n     *   if the destination asset in swap is foreign asset.\r\n     * - Param {to} cannot be the addresses of native or foreign assets.\r\n     * - The source asset amount in the swap must be transferred to the pool prior to calling `swap`.\r\n     * - The source asset amount in the swap cannot exceed the source asset's reserve.\r\n     * - The destination asset's amount in the swap must be greater than 0 and not exceed destination\r\n     *   asset's reserve.\r\n     * - The param {foreignAsset} must be a supported token.\r\n     * - Can only be called by Router.\r\n     **/\r\n    function swap(\r\n        IERC20 foreignAsset,\r\n        uint256 nativeAmountIn,\r\n        uint256 foreignAmountIn,\r\n        address to\r\n    )\r\n        external\r\n        override\r\n        onlyRouter\r\n        supportedToken(foreignAsset)\r\n        nonReentrant\r\n        validateGas\r\n        returns (uint256)\r\n    {\r\n        require(\r\n            (nativeAmountIn > 0 && foreignAmountIn == 0) ||\r\n                (nativeAmountIn == 0 && foreignAmountIn > 0),\r\n            \"BasePoolV2::swap: Only One-Sided Swaps Supported\"\r\n        );\r\n        (uint112 nativeReserve, uint112 foreignReserve, ) = getReserves(\r\n            foreignAsset\r\n        ); // gas savings\r\n\r\n        uint256 nativeAmountOut;\r\n        uint256 foreignAmountOut;\r\n        {\r\n            // scope for _token{0,1}, avoids stack too deep errors\r\n            IERC20 _nativeAsset = nativeAsset;\r\n            require(\r\n                to != address(_nativeAsset) && to != address(foreignAsset),\r\n                \"BasePoolV2::swap: Invalid Receiver\"\r\n            );\r\n\r\n            if (foreignAmountIn > 0) {\r\n                nativeAmountOut = VaderMath.calculateSwap(\r\n                    foreignAmountIn,\r\n                    foreignReserve,\r\n                    nativeReserve\r\n                );\r\n                require(\r\n                    nativeAmountOut > 0 && nativeAmountOut <= nativeReserve,\r\n                    \"BasePoolV2::swap: Swap Impossible\"\r\n                );\r\n                _nativeAsset.safeTransfer(to, nativeAmountOut); // optimistically transfer tokens\r\n            } else {\r\n                foreignAmountOut = VaderMath.calculateSwap(\r\n                    nativeAmountIn,\r\n                    nativeReserve,\r\n                    foreignReserve\r\n                );\r\n                require(\r\n                    foreignAmountOut > 0 && foreignAmountOut <= foreignReserve,\r\n                    \"BasePoolV2::swap: Swap Impossible\"\r\n                );\r\n                foreignAsset.safeTransfer(to, foreignAmountOut); // optimistically transfer tokens\r\n            }\r\n        }\r\n\r\n        _update(\r\n            foreignAsset,\r\n            nativeReserve - nativeAmountOut + nativeAmountIn,\r\n            foreignReserve - foreignAmountOut + foreignAmountIn,\r\n            nativeReserve,\r\n            foreignReserve\r\n        );\r\n\r\n        emit Swap(\r\n            foreignAsset,\r\n            msg.sender,\r\n            nativeAmountIn,\r\n            foreignAmountIn,\r\n            nativeAmountOut,\r\n            foreignAmountOut,\r\n            to\r\n        );\r\n\r\n        return nativeAmountOut > 0 ? nativeAmountOut : foreignAmountOut;\r\n    }\r\n\r\n    /*\r\n     * @dev Allows withdrawing of unaccounted/unrealised foreign asset from the contract.\r\n     *\r\n     * Determines the realised amount of foreign asset from the pair against {foreignAsset}.\r\n     **/\r\n    function rescue(IERC20 foreignAsset) external {\r\n        uint256 foreignBalance = foreignAsset.balanceOf(address(this));\r\n        uint256 reserveForeign = pairInfo[foreignAsset].reserveForeign;\r\n\r\n        uint256 unaccounted = foreignBalance - reserveForeign;\r\n\r\n        foreignAsset.safeTransfer(msg.sender, unaccounted);\r\n    }\r\n\r\n    /* ========== RESTRICTED FUNCTIONS ========== */\r\n\r\n    /* ========== INTERNAL FUNCTIONS ========== */\r\n\r\n    /*\r\n     * @dev Internally called to update the cumulative prices for native and foreign assets for\r\n     * the pair against {foreignAsset}. The updated prices depend upon the last reserves and\r\n     * updates the reserves for both of the assets corresponding to their\r\n     * current balances along with the timestamp.\r\n     *\r\n     * Requirements:\r\n     * - Params {balanceNative} and {balanceForeign} must not overflow type `uint112`.\r\n     *\r\n     **/\r\n    function _update(\r\n        IERC20 foreignAsset,\r\n        uint256 balanceNative,\r\n        uint256 balanceForeign,\r\n        uint112 reserveNative,\r\n        uint112 reserveForeign\r\n    ) internal {\r\n        require(\r\n            balanceNative <= type(uint112).max &&\r\n                balanceForeign <= type(uint112).max,\r\n            \"BasePoolV2::_update: Balance Overflow\"\r\n        );\r\n        uint32 blockTimestamp = uint32(block.timestamp % 2**32);\r\n        PairInfo storage pair = pairInfo[foreignAsset];\r\n        unchecked {\r\n            uint32 timeElapsed = blockTimestamp - pair.blockTimestampLast; // overflow is desired\r\n            if (timeElapsed > 0 && reserveNative != 0 && reserveForeign != 0) {\r\n                // * never overflows, and + overflow is desired\r\n                pair.priceCumulative.nativeLast +=\r\n                    uint256(\r\n                        UQ112x112.encode(reserveForeign).uqdiv(reserveNative)\r\n                    ) *\r\n                    timeElapsed;\r\n                pair.priceCumulative.foreignLast +=\r\n                    uint256(\r\n                        UQ112x112.encode(reserveNative).uqdiv(reserveForeign)\r\n                    ) *\r\n                    timeElapsed;\r\n            }\r\n        }\r\n        pair.reserveNative = uint112(balanceNative);\r\n        pair.reserveForeign = uint112(balanceForeign);\r\n        pair.blockTimestampLast = blockTimestamp;\r\n        emit Sync(foreignAsset, balanceNative, balanceForeign);\r\n    }\r\n\r\n    /* ========== PRIVATE FUNCTIONS ========== */\r\n\r\n    /*\r\n     * @dev Private function that returns if the param {token} is a supported token\r\n     * or not.\r\n     **/\r\n    function _supportedToken(IERC20 token) private view {\r\n        require(\r\n            supported[token],\r\n            \"BasePoolV2::_supportedToken: Unsupported Token\"\r\n        );\r\n    }\r\n\r\n    /*\r\n     * @dev Private function that returns if {msg.sender} is a Router or not.\r\n     **/\r\n    function _onlyRouter() private view {\r\n        require(\r\n            msg.sender == router,\r\n            \"BasePoolV2::_onlyRouter: Only Router is allowed to call\"\r\n        );\r\n    }\r\n\r\n    /* ========== MODIFIERS ========== */\r\n\r\n    /*\r\n     * @dev Modifier that only allows continuation of execution\r\n     * if {msg.sender} is Router.\r\n     **/\r\n    modifier onlyRouter() {\r\n        _onlyRouter();\r\n        _;\r\n    }\r\n\r\n    /*\r\n     * @dev Modifier that only allows continuation of exectuion if the param\r\n     * {token} is a supported token.\r\n     **/\r\n    modifier supportedToken(IERC20 token) {\r\n        _supportedToken(token);\r\n        _;\r\n    }\r\n}\r\n",
  "sourcePath": "/home/mingyue/sub_contract_content/Web3Bugs/contracts/52/contracts/dex-v2/pool/BasePoolV2.sol",
  "compiler": {
    "name": "solc",
    "version": "0.8.9+commit.e5eed63a.Emscripten.clang"
  },
  "schemaVersion": "3.4.16",
  "updatedAt": "2025-03-06T07:23:55.018Z",
  "devdoc": {
    "kind": "dev",
    "methods": {
      "approve(address,uint256)": {
        "details": "See {IERC721-approve}."
      },
      "balanceOf(address)": {
        "details": "See {IERC721-balanceOf}."
      },
      "getApproved(uint256)": {
        "details": "See {IERC721-getApproved}."
      },
      "isApprovedForAll(address,address)": {
        "details": "See {IERC721-isApprovedForAll}."
      },
      "name()": {
        "details": "See {IERC721Metadata-name}."
      },
      "ownerOf(uint256)": {
        "details": "See {IERC721-ownerOf}."
      },
      "safeTransferFrom(address,address,uint256)": {
        "details": "See {IERC721-safeTransferFrom}."
      },
      "safeTransferFrom(address,address,uint256,bytes)": {
        "details": "See {IERC721-safeTransferFrom}."
      },
      "setApprovalForAll(address,bool)": {
        "details": "See {IERC721-setApprovalForAll}."
      },
      "supportsInterface(bytes4)": {
        "details": "See {IERC165-supportsInterface}."
      },
      "symbol()": {
        "details": "See {IERC721Metadata-symbol}."
      },
      "tokenURI(uint256)": {
        "details": "See {IERC721Metadata-tokenURI}."
      },
      "transferFrom(address,address,uint256)": {
        "details": "See {IERC721-transferFrom}."
      }
    },
    "version": 1
  },
  "userdoc": {
    "kind": "user",
    "methods": {},
    "version": 1
  }
}