{
  "contractName": "Converter",
  "abi": [
    {
      "inputs": [
        {
          "internalType": "contract IERC20",
          "name": "_vether",
          "type": "address"
        },
        {
          "internalType": "contract IERC20",
          "name": "_vader",
          "type": "address"
        },
        {
          "internalType": "contract ILinearVesting",
          "name": "_vesting",
          "type": "address"
        },
        {
          "internalType": "bytes32",
          "name": "_root",
          "type": "bytes32"
        }
      ],
      "stateMutability": "nonpayable",
      "type": "constructor"
    },
    {
      "anonymous": false,
      "inputs": [
        {
          "indexed": true,
          "internalType": "address",
          "name": "user",
          "type": "address"
        },
        {
          "indexed": false,
          "internalType": "uint256",
          "name": "vetherAmount",
          "type": "uint256"
        },
        {
          "indexed": false,
          "internalType": "uint256",
          "name": "vaderAmount",
          "type": "uint256"
        }
      ],
      "name": "Conversion",
      "type": "event"
    },
    {
      "inputs": [
        {
          "internalType": "bytes32",
          "name": "",
          "type": "bytes32"
        }
      ],
      "name": "claimed",
      "outputs": [
        {
          "internalType": "bool",
          "name": "",
          "type": "bool"
        }
      ],
      "stateMutability": "view",
      "type": "function"
    },
    {
      "inputs": [],
      "name": "root",
      "outputs": [
        {
          "internalType": "bytes32",
          "name": "",
          "type": "bytes32"
        }
      ],
      "stateMutability": "view",
      "type": "function"
    },
    {
      "inputs": [],
      "name": "vader",
      "outputs": [
        {
          "internalType": "contract IERC20",
          "name": "",
          "type": "address"
        }
      ],
      "stateMutability": "view",
      "type": "function"
    },
    {
      "inputs": [],
      "name": "vesting",
      "outputs": [
        {
          "internalType": "contract ILinearVesting",
          "name": "",
          "type": "address"
        }
      ],
      "stateMutability": "view",
      "type": "function"
    },
    {
      "inputs": [],
      "name": "vether",
      "outputs": [
        {
          "internalType": "contract IERC20",
          "name": "",
          "type": "address"
        }
      ],
      "stateMutability": "view",
      "type": "function"
    },
    {
      "inputs": [
        {
          "internalType": "bytes32[]",
          "name": "proof",
          "type": "bytes32[]"
        },
        {
          "internalType": "uint256",
          "name": "amount",
          "type": "uint256"
        }
      ],
      "name": "convert",
      "outputs": [
        {
          "internalType": "uint256",
          "name": "vaderReceived",
          "type": "uint256"
        }
      ],
      "stateMutability": "nonpayable",
      "type": "function"
    }
  ],
  "bytecode": "0x61010060405234801561001157600080fd5b50604051610c63380380610c6383398101604081905261003091610186565b6001600160a01b0384161580159061005057506001600160a01b03831615155b801561006457506001600160a01b03821615155b6100c55760405162461bcd60e51b815260206004820152602860248201527f436f6e7665727465723a3a636f6e7374727563746f723a204d6973636f6e666960448201526733bab930ba34b7b760c11b606482015260840160405180910390fd5b6001600160a01b0384811660805283811660a081905260405163095ea7b360e01b8152918416600483015260001960248301529063095ea7b390604401602060405180830381600087803b15801561011c57600080fd5b505af1158015610130573d6000803e3d6000fd5b505050506040513d601f19601f8201168201806040525081019061015491906101d9565b506001600160a01b0390911660c05260e052506102029050565b6001600160a01b038116811461018357600080fd5b50565b6000806000806080858703121561019c57600080fd5b84516101a78161016e565b60208601519094506101b88161016e565b60408601519093506101c98161016e565b6060959095015193969295505050565b6000602082840312156101eb57600080fd5b815180151581146101fb57600080fd5b9392505050565b60805160a05160c05160e051610a0f61025460003960008181610152015261024d01526000818160f80152610416015260008181606c01526103d301526000818160b0015261037b0152610a0f6000f3fe608060405234801561001057600080fd5b50600436106100625760003560e01c80631f494b641461006757806340d16a40146100ab578063416d7632146100d257806344c63eec146100f3578063cc3c0f061461011a578063ebf0c7171461014d575b600080fd5b61008e7f000000000000000000000000000000000000000000000000000000000000000081565b6040516001600160a01b0390911681526020015b60405180910390f35b61008e7f000000000000000000000000000000000000000000000000000000000000000081565b6100e56100e0366004610820565b610174565b6040519081526020016100a2565b61008e7f000000000000000000000000000000000000000000000000000000000000000081565b61013d61012836600461089b565b60006020819052908152604090205460ff1681565b60405190151581526020016100a2565b6100e57f000000000000000000000000000000000000000000000000000000000000000081565b6000816101ee5760405162461bcd60e51b815260206004820152603760248201527f436f6e7665727465723a3a636f6e766572743a204e6f6e2d5a65726f20436f6e60448201527f76657273696f6e20416d6f756e7420526571756972656400000000000000000060648201526084015b60405180910390fd5b6040516bffffffffffffffffffffffff193360601b1660208201526034810183905260009060540160408051601f19818403018152918152815160209283012060008181529283905291205490915060ff161580156102aa57506102aa7f0000000000000000000000000000000000000000000000000000000000000000828787808060200260200160405190810160405280939291908181526020018383602002808284376000920191909152509294939250506104839050565b61030b5760405162461bcd60e51b815260206004820152602c60248201527f436f6e7665727465723a3a636f6e766572743a20496e636f727265637420507260448201526b1bdbd988141c9bdd9a59195960a21b60648201526084016101e5565b6000818152602081905260409020805460ff191660011790556103306103e8846108ca565b604080518581526020810183905291935033917f7f5d2abcc7049d493ba3d899d9c652fd8d27e9aaf5ecf58408d04567931d4e72910160405180910390a26103b76001600160a01b037f0000000000000000000000000000000000000000000000000000000000000000163373deaddeaddeaddeaddeaddeaddeaddeaddeaddead86610499565b60006103c46002846108e9565b90506103fa6001600160a01b037f000000000000000000000000000000000000000000000000000000000000000016338361050a565b6040516394e3516960e01b8152336004820152602481018290527f00000000000000000000000000000000000000000000000000000000000000006001600160a01b0316906394e3516990604401600060405180830381600087803b15801561046257600080fd5b505af1158015610476573d6000803e3d6000fd5b5050505050509392505050565b600082610490858461053f565b14949350505050565b6040516001600160a01b03808516602483015283166044820152606481018290526105049085906323b872dd60e01b906084015b60408051601f198184030181529190526020810180516001600160e01b03166001600160e01b03199093169290921790915261058c565b50505050565b6040516001600160a01b03831660248201526044810182905261053a90849063a9059cbb60e01b906064016104cd565b505050565b600081815b845181101561058457610570828683815181106105635761056361090b565b6020026020010151610661565b91508061057c81610921565b915050610544565b509392505050565b60006105e1826040518060400160405280602081526020017f5361666545524332303a206c6f772d6c6576656c2063616c6c206661696c6564815250856001600160a01b03166106939092919063ffffffff16565b9050805160001480610602575080806020019051810190610602919061093c565b61053a5760405162461bcd60e51b815260206004820152602a60248201527f5361666545524332303a204552433230206f7065726174696f6e20646964206e6044820152691bdd081cdd58d8d9595960b21b60648201526084016101e5565b600081831061067d57600082815260208490526040902061068c565b60008381526020839052604090205b9392505050565b60606106a284846000856106aa565b949350505050565b60608247101561070b5760405162461bcd60e51b815260206004820152602660248201527f416464726573733a20696e73756666696369656e742062616c616e636520666f6044820152651c8818d85b1b60d21b60648201526084016101e5565b600080866001600160a01b03168587604051610727919061098a565b60006040518083038185875af1925050503d8060008114610764576040519150601f19603f3d011682016040523d82523d6000602084013e610769565b606091505b509150915061077a87838387610785565b979650505050505050565b606083156107f15782516107ea576001600160a01b0385163b6107ea5760405162461bcd60e51b815260206004820152601d60248201527f416464726573733a2063616c6c20746f206e6f6e2d636f6e747261637400000060448201526064016101e5565b50816106a2565b6106a283838151156108065781518083602001fd5b8060405162461bcd60e51b81526004016101e591906109a6565b60008060006040848603121561083557600080fd5b833567ffffffffffffffff8082111561084d57600080fd5b818601915086601f83011261086157600080fd5b81358181111561087057600080fd5b8760208260051b850101111561088557600080fd5b6020928301989097509590910135949350505050565b6000602082840312156108ad57600080fd5b5035919050565b634e487b7160e01b600052601160045260246000fd5b60008160001904831182151516156108e4576108e46108b4565b500290565b60008261090657634e487b7160e01b600052601260045260246000fd5b500490565b634e487b7160e01b600052603260045260246000fd5b6000600019821415610935576109356108b4565b5060010190565b60006020828403121561094e57600080fd5b8151801515811461068c57600080fd5b60005b83811015610979578181015183820152602001610961565b838111156105045750506000910152565b6000825161099c81846020870161095e565b9190910192915050565b60208152600082518060208401526109c581604085016020870161095e565b601f01601f1916919091016040019291505056fea2646970667358221220d1e47c16cde97fbef98867a2946c9dd7914920b3272a1c56cb4c8b390ed03f3364736f6c63430008090033",
  "immutableReferences": {
    "22828": [
      {
        "length": 32,
        "start": 176
      },
      {
        "length": 32,
        "start": 891
      }
    ],
    "22831": [
      {
        "length": 32,
        "start": 108
      },
      {
        "length": 32,
        "start": 979
      }
    ],
    "22834": [
      {
        "length": 32,
        "start": 248
      },
      {
        "length": 32,
        "start": 1046
      }
    ],
    "22836": [
      {
        "length": 32,
        "start": 338
      },
      {
        "length": 32,
        "start": 589
      }
    ]
  },
  "source": "// SPDX-License-Identifier: Unlicense\r\n\r\npragma solidity =0.8.9;\r\n\r\nimport \"@openzeppelin/contracts/token/ERC20/utils/SafeERC20.sol\";\r\n\r\nimport \"@openzeppelin/contracts/token/ERC20/IERC20.sol\";\r\n\r\nimport \"@openzeppelin/contracts/utils/cryptography/MerkleProof.sol\";\r\n\r\nimport \"../../shared/ProtocolConstants.sol\";\r\n\r\nimport \"../../interfaces/tokens/converter/IConverter.sol\";\r\nimport \"../../interfaces/tokens/vesting/ILinearVesting.sol\";\r\n\r\n/**\r\n * @dev Implementation of the {IConverter} interface.\r\n *\r\n * A simple converter contract that allows users to convert\r\n * their Vether tokens by \"burning\" them (See {convert}) to\r\n * acquire their equivalent Vader tokens based on the constant\r\n * {VADER_VETHER_CONVERSION_RATE}.\r\n *\r\n * The contract assumes that it has been sufficiently funded with\r\n * Vader tokens and will fail to execute trades if it has not been\r\n * done so yet.\r\n */\r\ncontract Converter is IConverter, ProtocolConstants {\r\n    /* ========== LIBRARIES ========== */\r\n\r\n    // Used for safe VADER & VETHER transfers\r\n    using SafeERC20 for IERC20;\r\n\r\n    // Using MerkleProof for validating claims\r\n    using MerkleProof for bytes32[];\r\n\r\n    /* ========== STATE VARIABLES ========== */\r\n\r\n    // The VETHER token\r\n    IERC20 public immutable vether;\r\n\r\n    // The VADER token\r\n    IERC20 public immutable vader;\r\n\r\n    // The VADER vesting contract\r\n    ILinearVesting public immutable vesting;\r\n\r\n    // The merkle proof root for validating claims\r\n    bytes32 public immutable root;\r\n\r\n    // Signals whether a particular leaf has been claimed of the merkle proof\r\n    mapping(bytes32 => bool) public claimed;\r\n\r\n    /* ========== CONSTRUCTOR ========== */\r\n\r\n    /**\r\n     * @dev Initializes the contract's {vether} and {vader} addresses.\r\n     *\r\n     * Performs rudimentary checks to ensure that the variables haven't\r\n     * been declared incorrectly.\r\n     */\r\n    constructor(\r\n        IERC20 _vether,\r\n        IERC20 _vader,\r\n        ILinearVesting _vesting,\r\n        bytes32 _root\r\n    ) {\r\n        require(\r\n            _vether != IERC20(_ZERO_ADDRESS) &&\r\n                _vader != IERC20(_ZERO_ADDRESS) &&\r\n                _vesting != ILinearVesting(_ZERO_ADDRESS),\r\n            \"Converter::constructor: Misconfiguration\"\r\n        );\r\n\r\n        vether = _vether;\r\n        vader = _vader;\r\n\r\n        _vader.approve(address(_vesting), type(uint256).max);\r\n\r\n        vesting = _vesting;\r\n        root = _root;\r\n    }\r\n\r\n    /* ========== MUTATIVE FUNCTIONS ========== */\r\n\r\n    /**\r\n     * @dev Allows a user to convert their Vether to Vader.\r\n     *\r\n     * Emits a {Conversion} event indicating the amount of Vether the user\r\n     * \"burned\" and the amount of Vader that they acquired.\r\n     *\r\n     * Here, \"burned\" refers to the action of transferring them to an irrecoverable\r\n     * address, the {BURN} address.\r\n     *\r\n     * Requirements:\r\n     *\r\n     * - the caller has approved the contract for the necessary amount via Vether\r\n     * - the amount specified is non-zero\r\n     * - the contract has been supplied with the necessary Vader amount to fulfill the trade\r\n     */\r\n    function convert(bytes32[] calldata proof, uint256 amount)\r\n        external\r\n        override\r\n        returns (uint256 vaderReceived)\r\n    {\r\n        require(\r\n            amount != 0,\r\n            \"Converter::convert: Non-Zero Conversion Amount Required\"\r\n        );\r\n\r\n        bytes32 leaf = keccak256(abi.encodePacked(msg.sender, amount));\r\n        require(\r\n            !claimed[leaf] && proof.verify(root, leaf),\r\n            \"Converter::convert: Incorrect Proof Provided\"\r\n        );\r\n        claimed[leaf] = true;\r\n\r\n        vaderReceived = amount * _VADER_VETHER_CONVERSION_RATE;\r\n\r\n        emit Conversion(msg.sender, amount, vaderReceived);\r\n\r\n        vether.safeTransferFrom(msg.sender, _BURN, amount);\r\n        uint256 half = vaderReceived / 2;\r\n        vader.safeTransfer(msg.sender, half);\r\n        vesting.vestFor(msg.sender, half);\r\n    }\r\n}\r\n",
  "sourcePath": "/home/mingyue/sub_contract_content/Web3Bugs/contracts/52/contracts/tokens/converter/Converter.sol",
  "compiler": {
    "name": "solc",
    "version": "0.8.9+commit.e5eed63a.Emscripten.clang"
  },
  "schemaVersion": "3.4.16",
  "updatedAt": "2025-03-06T07:23:55.095Z",
  "devdoc": {
    "details": "Implementation of the {IConverter} interface. A simple converter contract that allows users to convert their Vether tokens by \"burning\" them (See {convert}) to acquire their equivalent Vader tokens based on the constant {VADER_VETHER_CONVERSION_RATE}. The contract assumes that it has been sufficiently funded with Vader tokens and will fail to execute trades if it has not been done so yet.",
    "kind": "dev",
    "methods": {
      "constructor": {
        "details": "Initializes the contract's {vether} and {vader} addresses. Performs rudimentary checks to ensure that the variables haven't been declared incorrectly."
      },
      "convert(bytes32[],uint256)": {
        "details": "Allows a user to convert their Vether to Vader. Emits a {Conversion} event indicating the amount of Vether the user \"burned\" and the amount of Vader that they acquired. Here, \"burned\" refers to the action of transferring them to an irrecoverable address, the {BURN} address. Requirements: - the caller has approved the contract for the necessary amount via Vether - the amount specified is non-zero - the contract has been supplied with the necessary Vader amount to fulfill the trade"
      }
    },
    "version": 1
  },
  "userdoc": {
    "kind": "user",
    "methods": {},
    "version": 1
  }
}