{
  "contractName": "GovernorAlpha",
  "abi": [
    {
      "inputs": [
        {
          "internalType": "address",
          "name": "guardian_",
          "type": "address"
        },
        {
          "internalType": "address",
          "name": "xVader_",
          "type": "address"
        },
        {
          "internalType": "address",
          "name": "feeReceiver_",
          "type": "address"
        },
        {
          "internalType": "uint256",
          "name": "feeAmount_",
          "type": "uint256"
        },
        {
          "internalType": "address",
          "name": "council_",
          "type": "address"
        }
      ],
      "stateMutability": "nonpayable",
      "type": "constructor"
    },
    {
      "anonymous": false,
      "inputs": [
        {
          "indexed": false,
          "internalType": "address",
          "name": "oldCouncil",
          "type": "address"
        },
        {
          "indexed": false,
          "internalType": "address",
          "name": "newCouncil",
          "type": "address"
        }
      ],
      "name": "CouncilChanged",
      "type": "event"
    },
    {
      "anonymous": false,
      "inputs": [
        {
          "indexed": false,
          "internalType": "uint256",
          "name": "oldFeeAmount",
          "type": "uint256"
        },
        {
          "indexed": false,
          "internalType": "uint256",
          "name": "newFeeAmount",
          "type": "uint256"
        }
      ],
      "name": "FeeAmountChanged",
      "type": "event"
    },
    {
      "anonymous": false,
      "inputs": [
        {
          "indexed": false,
          "internalType": "address",
          "name": "oldFeeReceiver",
          "type": "address"
        },
        {
          "indexed": false,
          "internalType": "address",
          "name": "newFeeReceiver",
          "type": "address"
        }
      ],
      "name": "FeeReceiverChanged",
      "type": "event"
    },
    {
      "anonymous": false,
      "inputs": [
        {
          "indexed": false,
          "internalType": "uint256",
          "name": "id",
          "type": "uint256"
        }
      ],
      "name": "ProposalCanceled",
      "type": "event"
    },
    {
      "anonymous": false,
      "inputs": [
        {
          "indexed": false,
          "internalType": "uint256",
          "name": "id",
          "type": "uint256"
        },
        {
          "indexed": false,
          "internalType": "address",
          "name": "proposer",
          "type": "address"
        },
        {
          "indexed": false,
          "internalType": "address[]",
          "name": "targets",
          "type": "address[]"
        },
        {
          "indexed": false,
          "internalType": "uint256[]",
          "name": "values",
          "type": "uint256[]"
        },
        {
          "indexed": false,
          "internalType": "string[]",
          "name": "signatures",
          "type": "string[]"
        },
        {
          "indexed": false,
          "internalType": "bytes[]",
          "name": "calldatas",
          "type": "bytes[]"
        },
        {
          "indexed": false,
          "internalType": "uint256",
          "name": "startBlock",
          "type": "uint256"
        },
        {
          "indexed": false,
          "internalType": "uint256",
          "name": "endBlock",
          "type": "uint256"
        },
        {
          "indexed": false,
          "internalType": "string",
          "name": "description",
          "type": "string"
        }
      ],
      "name": "ProposalCreated",
      "type": "event"
    },
    {
      "anonymous": false,
      "inputs": [
        {
          "indexed": false,
          "internalType": "uint256",
          "name": "id",
          "type": "uint256"
        }
      ],
      "name": "ProposalExecuted",
      "type": "event"
    },
    {
      "anonymous": false,
      "inputs": [
        {
          "indexed": false,
          "internalType": "uint256",
          "name": "id",
          "type": "uint256"
        },
        {
          "indexed": false,
          "internalType": "uint256",
          "name": "eta",
          "type": "uint256"
        }
      ],
      "name": "ProposalQueued",
      "type": "event"
    },
    {
      "anonymous": false,
      "inputs": [
        {
          "indexed": false,
          "internalType": "uint256",
          "name": "proposalId",
          "type": "uint256"
        },
        {
          "indexed": false,
          "internalType": "bool",
          "name": "support",
          "type": "bool"
        }
      ],
      "name": "ProposalVetoed",
      "type": "event"
    },
    {
      "anonymous": false,
      "inputs": [
        {
          "indexed": false,
          "internalType": "address",
          "name": "voter",
          "type": "address"
        },
        {
          "indexed": false,
          "internalType": "uint256",
          "name": "proposalId",
          "type": "uint256"
        },
        {
          "indexed": false,
          "internalType": "bool",
          "name": "support",
          "type": "bool"
        },
        {
          "indexed": false,
          "internalType": "uint256",
          "name": "votes",
          "type": "uint256"
        }
      ],
      "name": "VoteCast",
      "type": "event"
    },
    {
      "inputs": [],
      "name": "BALLOT_TYPEHASH",
      "outputs": [
        {
          "internalType": "bytes32",
          "name": "",
          "type": "bytes32"
        }
      ],
      "stateMutability": "view",
      "type": "function"
    },
    {
      "inputs": [],
      "name": "DOMAIN_TYPEHASH",
      "outputs": [
        {
          "internalType": "bytes32",
          "name": "",
          "type": "bytes32"
        }
      ],
      "stateMutability": "view",
      "type": "function"
    },
    {
      "inputs": [],
      "name": "council",
      "outputs": [
        {
          "internalType": "address",
          "name": "",
          "type": "address"
        }
      ],
      "stateMutability": "view",
      "type": "function"
    },
    {
      "inputs": [],
      "name": "feeAmount",
      "outputs": [
        {
          "internalType": "uint256",
          "name": "",
          "type": "uint256"
        }
      ],
      "stateMutability": "view",
      "type": "function"
    },
    {
      "inputs": [],
      "name": "feeReceiver",
      "outputs": [
        {
          "internalType": "address",
          "name": "",
          "type": "address"
        }
      ],
      "stateMutability": "view",
      "type": "function"
    },
    {
      "inputs": [],
      "name": "guardian",
      "outputs": [
        {
          "internalType": "address",
          "name": "",
          "type": "address"
        }
      ],
      "stateMutability": "view",
      "type": "function"
    },
    {
      "inputs": [
        {
          "internalType": "address",
          "name": "",
          "type": "address"
        }
      ],
      "name": "latestProposalIds",
      "outputs": [
        {
          "internalType": "uint256",
          "name": "",
          "type": "uint256"
        }
      ],
      "stateMutability": "view",
      "type": "function"
    },
    {
      "inputs": [],
      "name": "name",
      "outputs": [
        {
          "internalType": "string",
          "name": "",
          "type": "string"
        }
      ],
      "stateMutability": "view",
      "type": "function"
    },
    {
      "inputs": [],
      "name": "proposalCount",
      "outputs": [
        {
          "internalType": "uint256",
          "name": "",
          "type": "uint256"
        }
      ],
      "stateMutability": "view",
      "type": "function"
    },
    {
      "inputs": [
        {
          "internalType": "uint256",
          "name": "",
          "type": "uint256"
        }
      ],
      "name": "proposals",
      "outputs": [
        {
          "internalType": "uint256",
          "name": "id",
          "type": "uint256"
        },
        {
          "internalType": "bool",
          "name": "canceled",
          "type": "bool"
        },
        {
          "internalType": "bool",
          "name": "executed",
          "type": "bool"
        },
        {
          "internalType": "address",
          "name": "proposer",
          "type": "address"
        },
        {
          "internalType": "uint256",
          "name": "eta",
          "type": "uint256"
        },
        {
          "internalType": "uint256",
          "name": "startBlock",
          "type": "uint256"
        },
        {
          "internalType": "uint256",
          "name": "endBlock",
          "type": "uint256"
        },
        {
          "internalType": "uint224",
          "name": "forVotes",
          "type": "uint224"
        },
        {
          "internalType": "uint224",
          "name": "againstVotes",
          "type": "uint224"
        },
        {
          "components": [
            {
              "internalType": "bool",
              "name": "hasBeenVetoed",
              "type": "bool"
            },
            {
              "internalType": "bool",
              "name": "support",
              "type": "bool"
            }
          ],
          "internalType": "struct GovernorAlpha.VetoStatus",
          "name": "vetoStatus",
          "type": "tuple"
        }
      ],
      "stateMutability": "view",
      "type": "function"
    },
    {
      "inputs": [],
      "name": "timelock",
      "outputs": [
        {
          "internalType": "contract ITimelock",
          "name": "",
          "type": "address"
        }
      ],
      "stateMutability": "view",
      "type": "function"
    },
    {
      "inputs": [],
      "name": "xVader",
      "outputs": [
        {
          "internalType": "contract IXVader",
          "name": "",
          "type": "address"
        }
      ],
      "stateMutability": "view",
      "type": "function"
    },
    {
      "inputs": [
        {
          "internalType": "uint256",
          "name": "blockNumber",
          "type": "uint256"
        }
      ],
      "name": "quorumVotes",
      "outputs": [
        {
          "internalType": "uint256",
          "name": "",
          "type": "uint256"
        }
      ],
      "stateMutability": "view",
      "type": "function"
    },
    {
      "inputs": [],
      "name": "proposalMaxOperations",
      "outputs": [
        {
          "internalType": "uint256",
          "name": "",
          "type": "uint256"
        }
      ],
      "stateMutability": "pure",
      "type": "function"
    },
    {
      "inputs": [],
      "name": "votingDelay",
      "outputs": [
        {
          "internalType": "uint256",
          "name": "",
          "type": "uint256"
        }
      ],
      "stateMutability": "pure",
      "type": "function"
    },
    {
      "inputs": [],
      "name": "votingPeriod",
      "outputs": [
        {
          "internalType": "uint256",
          "name": "",
          "type": "uint256"
        }
      ],
      "stateMutability": "pure",
      "type": "function"
    },
    {
      "inputs": [
        {
          "internalType": "uint256",
          "name": "proposalId",
          "type": "uint256"
        }
      ],
      "name": "getActions",
      "outputs": [
        {
          "internalType": "address[]",
          "name": "targets",
          "type": "address[]"
        },
        {
          "internalType": "uint256[]",
          "name": "values",
          "type": "uint256[]"
        },
        {
          "internalType": "string[]",
          "name": "signatures",
          "type": "string[]"
        },
        {
          "internalType": "bytes[]",
          "name": "calldatas",
          "type": "bytes[]"
        }
      ],
      "stateMutability": "view",
      "type": "function"
    },
    {
      "inputs": [
        {
          "internalType": "uint256",
          "name": "proposalId",
          "type": "uint256"
        },
        {
          "internalType": "address",
          "name": "voter",
          "type": "address"
        }
      ],
      "name": "getReceipt",
      "outputs": [
        {
          "components": [
            {
              "internalType": "bool",
              "name": "hasVoted",
              "type": "bool"
            },
            {
              "internalType": "bool",
              "name": "support",
              "type": "bool"
            },
            {
              "internalType": "uint224",
              "name": "votes",
              "type": "uint224"
            }
          ],
          "internalType": "struct GovernorAlpha.Receipt",
          "name": "",
          "type": "tuple"
        }
      ],
      "stateMutability": "view",
      "type": "function"
    },
    {
      "inputs": [
        {
          "internalType": "uint256",
          "name": "proposalId",
          "type": "uint256"
        }
      ],
      "name": "state",
      "outputs": [
        {
          "internalType": "enum GovernorAlpha.ProposalState",
          "name": "",
          "type": "uint8"
        }
      ],
      "stateMutability": "view",
      "type": "function"
    },
    {
      "inputs": [
        {
          "internalType": "address",
          "name": "_timelock",
          "type": "address"
        }
      ],
      "name": "setTimelock",
      "outputs": [],
      "stateMutability": "nonpayable",
      "type": "function"
    },
    {
      "inputs": [
        {
          "internalType": "address[]",
          "name": "targets",
          "type": "address[]"
        },
        {
          "internalType": "uint256[]",
          "name": "values",
          "type": "uint256[]"
        },
        {
          "internalType": "string[]",
          "name": "signatures",
          "type": "string[]"
        },
        {
          "internalType": "bytes[]",
          "name": "calldatas",
          "type": "bytes[]"
        },
        {
          "internalType": "string",
          "name": "description",
          "type": "string"
        }
      ],
      "name": "propose",
      "outputs": [
        {
          "internalType": "uint256",
          "name": "proposalId",
          "type": "uint256"
        }
      ],
      "stateMutability": "nonpayable",
      "type": "function"
    },
    {
      "inputs": [
        {
          "internalType": "uint256",
          "name": "proposalId",
          "type": "uint256"
        }
      ],
      "name": "queue",
      "outputs": [],
      "stateMutability": "nonpayable",
      "type": "function"
    },
    {
      "inputs": [
        {
          "internalType": "uint256",
          "name": "proposalId",
          "type": "uint256"
        }
      ],
      "name": "execute",
      "outputs": [],
      "stateMutability": "payable",
      "type": "function"
    },
    {
      "inputs": [
        {
          "internalType": "uint256",
          "name": "proposalId",
          "type": "uint256"
        },
        {
          "internalType": "bool",
          "name": "support",
          "type": "bool"
        }
      ],
      "name": "castVote",
      "outputs": [],
      "stateMutability": "nonpayable",
      "type": "function"
    },
    {
      "inputs": [
        {
          "internalType": "uint256",
          "name": "proposalId",
          "type": "uint256"
        },
        {
          "internalType": "bool",
          "name": "support",
          "type": "bool"
        },
        {
          "internalType": "uint8",
          "name": "v",
          "type": "uint8"
        },
        {
          "internalType": "bytes32",
          "name": "r",
          "type": "bytes32"
        },
        {
          "internalType": "bytes32",
          "name": "s",
          "type": "bytes32"
        }
      ],
      "name": "castVoteBySig",
      "outputs": [],
      "stateMutability": "nonpayable",
      "type": "function"
    },
    {
      "inputs": [
        {
          "internalType": "address",
          "name": "feeReceiver_",
          "type": "address"
        }
      ],
      "name": "changeFeeReceiver",
      "outputs": [],
      "stateMutability": "nonpayable",
      "type": "function"
    },
    {
      "inputs": [
        {
          "internalType": "uint256",
          "name": "feeAmount_",
          "type": "uint256"
        }
      ],
      "name": "changeFeeAmount",
      "outputs": [],
      "stateMutability": "nonpayable",
      "type": "function"
    },
    {
      "inputs": [
        {
          "internalType": "uint256",
          "name": "proposalId",
          "type": "uint256"
        },
        {
          "internalType": "bool",
          "name": "support",
          "type": "bool"
        }
      ],
      "name": "veto",
      "outputs": [],
      "stateMutability": "nonpayable",
      "type": "function"
    },
    {
      "inputs": [
        {
          "internalType": "address",
          "name": "council_",
          "type": "address"
        }
      ],
      "name": "changeCouncil",
      "outputs": [],
      "stateMutability": "nonpayable",
      "type": "function"
    },
    {
      "inputs": [
        {
          "internalType": "uint256",
          "name": "proposalId",
          "type": "uint256"
        }
      ],
      "name": "cancel",
      "outputs": [],
      "stateMutability": "nonpayable",
      "type": "function"
    },
    {
      "inputs": [],
      "name": "__acceptAdmin",
      "outputs": [],
      "stateMutability": "nonpayable",
      "type": "function"
    },
    {
      "inputs": [],
      "name": "__abdicate",
      "outputs": [],
      "stateMutability": "nonpayable",
      "type": "function"
    },
    {
      "inputs": [
        {
          "internalType": "address",
          "name": "newPendingAdmin",
          "type": "address"
        },
        {
          "internalType": "uint256",
          "name": "eta",
          "type": "uint256"
        }
      ],
      "name": "__queueSetTimelockPendingAdmin",
      "outputs": [],
      "stateMutability": "nonpayable",
      "type": "function"
    },
    {
      "inputs": [
        {
          "internalType": "address",
          "name": "newPendingAdmin",
          "type": "address"
        },
        {
          "internalType": "uint256",
          "name": "eta",
          "type": "uint256"
        }
      ],
      "name": "__executeSetTimelockPendingAdmin",
      "outputs": [],
      "stateMutability": "nonpayable",
      "type": "function"
    }
  ],
  "bytecode": "0x60a06040523480156200001157600080fd5b506040516200387938038062003879833981016040819052620000349162000250565b6001600160a01b038416620000ab5760405162461bcd60e51b815260206004820152603260248201527f476f7665726e6f72416c7068613a3a636f6e7374727563746f723a207856616460448201527165722061646472657373206973207a65726f60701b60648201526084015b60405180910390fd5b6001600160a01b03851615801590620000cc57506001600160a01b03831615155b8015620000e157506001600160a01b03811615155b620001695760405162461bcd60e51b815260206004820152604b60248201527f476f7665726e6f72416c7068613a3a636f6e7374727563746f723a206775617260448201527f6469616e2c206665655265636569766572206f7220636f756e63696c2063616e60648201526a6e6f74206265207a65726f60a81b608482015260a401620000a2565b600180546001600160a01b038781166001600160a01b03199283161790925585821660805260038054868416908316811790915560048590556005805493851693909216929092179055604080516000815260208101929092527fa4b009cc442411b602eaf94bc0579b6abdb8fd90b4ef5b9426e270038906bd03910160405180910390a16040805160008152602081018490527f628999ddb8cc6bb99cec0350ca6e43277be4a15b13e849d3e532cada20effa82910160405180910390a15050505050620002b7565b80516001600160a01b03811681146200024b57600080fd5b919050565b600080600080600060a086880312156200026957600080fd5b620002748662000233565b9450620002846020870162000233565b9350620002946040870162000233565b925060608601519150620002ab6080870162000233565b90509295509295909350565b608051613591620002e86000396000818161062e015281816108e2015281816119bd015261244d01526135916000f3fe6080604052600436106101f95760003560e01c806369e154041161010d578063bdacb303116100a0578063ddf0b0091161006f578063ddf0b009146106fb578063deaaa7cc1461071b578063e23a9a521461074f578063e2c6d41c1461081a578063fe0d94c11461083a57600080fd5b8063bdacb30314610685578063d33219b4146106a5578063da35c664146106c5578063da95691a146106db57600080fd5b806391500671116100dc57806391500671146105fc578063b3776e101461061c578063b3f0067414610650578063b9a619611461067057600080fd5b806369e154041461059d578063760fbc13146105b35780637bdbe4d0146105c85780637c08b964146105dc57600080fd5b806321f43e42116101905780633e4f49e61161015f5780633e4f49e6146104d857806340e58ee514610505578063452a9320146105255780634634c61f1461055d5780635e8b72441461057d57600080fd5b806321f43e42146104545780632f37658614610474578063328dd982146104945780633932abb1146104c457600080fd5b80630f7b1f08116101cc5780630f7b1f08146103b357806315373e3d146103d357806317977c61146103f357806320606b701461042057600080fd5b8063013cf08b146101fe57806302a251a31461032557806302c3b4361461034457806306fdde0314610366575b600080fd5b34801561020a57600080fd5b506102aa610219366004612ad1565b600660209081526000918252604091829020805460018201546002830154600784015460088501546009860154600a8701548951808b01909a52600b9097015460ff80821615158b526101009182900481161515998b019990995295988886169896860490961696620100009095046001600160a01b0316959394929391926001600160e01b03918216929116908a565b604080519a8b529815156020808c0191909152971515988a01989098526001600160a01b039095166060890152608088019390935260a087019190915260c08601526001600160e01b0390811660e0860152166101008401528151151561012084015201511515610140820152610160015b60405180910390f35b34801561033157600080fd5b506143805b60405190815260200161031c565b34801561035057600080fd5b5061036461035f366004612b06565b61084d565b005b34801561037257600080fd5b506103a660405180604001604052806014815260200173566164657220476f7665726e6f7220416c70686160601b81525081565b60405161031c9190612b80565b3480156103bf57600080fd5b506103366103ce366004612ad1565b6108be565b3480156103df57600080fd5b506103646103ee366004612ba1565b610977565b3480156103ff57600080fd5b5061033661040e366004612b06565b60076020526000908152604090205481565b34801561042c57600080fd5b506103367f8cad95687ba82c2ce50e74f7b754645e5117c3a5bec8151c0726d5857980a86681565b34801561046057600080fd5b5061036461046f366004612bd1565b610986565b34801561048057600080fd5b5061036461048f366004612ad1565b610a3d565b3480156104a057600080fd5b506104b46104af366004612ad1565b610a86565b60405161031c9493929190612cc4565b3480156104d057600080fd5b506001610336565b3480156104e457600080fd5b506104f86104f3366004612ad1565b610d17565b60405161031c9190612d32565b34801561051157600080fd5b50610364610520366004612ad1565b610f49565b34801561053157600080fd5b50600154610545906001600160a01b031681565b6040516001600160a01b03909116815260200161031c565b34801561056957600080fd5b50610364610578366004612d5a565b611155565b34801561058957600080fd5b50610364610598366004612ba1565b611369565b3480156105a957600080fd5b5061033660045481565b3480156105bf57600080fd5b506103646115e1565b3480156105d457600080fd5b50600a610336565b3480156105e857600080fd5b506103646105f7366004612b06565b6115fb565b34801561060857600080fd5b50610364610617366004612bd1565b61166c565b34801561062857600080fd5b506105457f000000000000000000000000000000000000000000000000000000000000000081565b34801561065c57600080fd5b50600354610545906001600160a01b031681565b34801561067c57600080fd5b5061036461171a565b34801561069157600080fd5b506103646106a0366004612b06565b61177d565b3480156106b157600080fd5b50600054610545906001600160a01b031681565b3480156106d157600080fd5b5061033660025481565b3480156106e757600080fd5b506103366106f6366004613080565b611823565b34801561070757600080fd5b50610364610716366004612ad1565b611d0a565b34801561072757600080fd5b506103367f8e25870c07e0b0b3884c78da52790939a455c275406c44ae8b434b692fb916ee81565b34801561075b57600080fd5b506107eb61076a366004613152565b60408051606081018252600080825260208201819052918101919091525060009182526006602090815260408084206001600160a01b03939093168452600c9092018152918190208151606081018352905460ff80821615158352610100820416151593820193909352620100009092046001600160e01b03169082015290565b60408051825115158152602080840151151590820152918101516001600160e01b03169082015260600161031c565b34801561082657600080fd5b50600554610545906001600160a01b031681565b610364610848366004612ad1565b612044565b61085561229a565b600554604080516001600160a01b03928316815291831660208301527f88738f5862bc0efb03b5d97e02e68c3afb33e476baf5f5d04dfa81a6c3fe7660910160405180910390a1600580546001600160a01b0319166001600160a01b0392909216919091179055565b604051632394e7a360e21b8152600481018290526000906064906001600160a01b037f00000000000000000000000000000000000000000000000000000000000000001690638e539e8c9060240160206040518083038186803b15801561092457600080fd5b505afa158015610938573d6000803e3d6000fd5b505050506040513d601f19601f8201168201806040525081019061095c919061317e565b6109679060046131ad565b61097191906131cc565b92915050565b610982338383612313565b5050565b61098e6125cf565b60008054604080516001600160a01b03868116602083015290921692630825f38f92849201604051602081830303815290604052856040518563ffffffff1660e01b81526004016109e294939291906131ee565b600060405180830381600087803b1580156109fc57600080fd5b505af1158015610a10573d6000803e3d6000fd5b505050506040513d6000823e601f3d908101601f19168201604052610a38919081019061325a565b505050565b610a456125cf565b60045460408051918252602082018390527f628999ddb8cc6bb99cec0350ca6e43277be4a15b13e849d3e532cada20effa82910160405180910390a1600455565b60608060608060006006600087815260200190815260200160002090508060030181600401826005018360060183805480602002602001604051908101604052809291908181526020018280548015610b0857602002820191906000526020600020905b81546001600160a01b03168152600190910190602001808311610aea575b5050505050935082805480602002602001604051908101604052809291908181526020018280548015610b5a57602002820191906000526020600020905b815481526020019060010190808311610b46575b5050505050925081805480602002602001604051908101604052809291908181526020016000905b82821015610c2e578382906000526020600020018054610ba1906132d1565b80601f0160208091040260200160405190810160405280929190818152602001828054610bcd906132d1565b8015610c1a5780601f10610bef57610100808354040283529160200191610c1a565b820191906000526020600020905b815481529060010190602001808311610bfd57829003601f168201915b505050505081526020019060010190610b82565b50505050915080805480602002602001604051908101604052809291908181526020016000905b82821015610d01578382906000526020600020018054610c74906132d1565b80601f0160208091040260200160405190810160405280929190818152602001828054610ca0906132d1565b8015610ced5780601f10610cc257610100808354040283529160200191610ced565b820191906000526020600020905b815481529060010190602001808311610cd057829003601f168201915b505050505081526020019060010190610c55565b5050505090509450945094509450509193509193565b60008160025410158015610d2b5750600082115b610d8e5760405162461bcd60e51b815260206004820152602960248201527f476f7665726e6f72416c7068613a3a73746174653a20696e76616c69642070726044820152681bdc1bdcd85b081a5960ba1b60648201526084015b60405180910390fd5b6000828152600660205260409020600181015460ff1615610db25750600292915050565b600b81015460ff1615610dff576002810154600b820154610100900460ff168015610ddb575080155b15610dea575060049392505050565b80610df9575060039392505050565b50610e83565b80600701544311610e135750600092915050565b80600801544311610e275750600192915050565b600a81015460098201546001600160e01b039182169116111580610e635750610e5381600701546108be565b60098201546001600160e01b0316105b15610e715750600392915050565b6002810154610e835750600492915050565b6001810154610100900460ff1615610e9e5750600792915050565b60008054906101000a90046001600160a01b03166001600160a01b031663c1a287e26040518163ffffffff1660e01b815260040160206040518083038186803b158015610eea57600080fd5b505afa158015610efe573d6000803e3d6000fd5b505050506040513d601f19601f82011682018060405250810190610f22919061317e565b8160020154610f31919061330c565b4210610f405750600692915050565b50600592915050565b610f516125cf565b6000610f5c82610d17565b90506007816007811115610f7257610f72612d1c565b1415610fdf5760405162461bcd60e51b815260206004820152603660248201527f476f7665726e6f72416c7068613a3a63616e63656c3a2063616e6e6f742063616044820152751b98d95b08195e1958dd5d1959081c1c9bdc1bdcd85b60521b6064820152608401610d85565b60008281526006602052604081206001808201805460ff19169091179055600381015490915b8181101561111a576000546003840180546001600160a01b039092169163591fcdfe91908490811061103957611039613324565b6000918252602090912001546004860180546001600160a01b03909216918590811061106757611067613324565b906000526020600020015486600501858154811061108757611087613324565b906000526020600020018760060186815481106110a6576110a6613324565b9060005260206000200188600201546040518663ffffffff1660e01b81526004016110d59594939291906133db565b600060405180830381600087803b1580156110ef57600080fd5b505af1158015611103573d6000803e3d6000fd5b50505050808061111290613427565b915050611005565b506040518481527f789cf55be980739dad1d0699b93b58e806b51c9d96619bfa8fe0a28abaa7b30c906020015b60405180910390a150505050565b6040805180820182526014815273566164657220476f7665726e6f7220416c70686160601b60209182015281517f8cad95687ba82c2ce50e74f7b754645e5117c3a5bec8151c0726d5857980a866818301527fc1d5a67b76b6997ba8c497a0a22cc132eea5d0b196ea2de9ebfe58d19c34332181840152466060820152306080808301919091528351808303909101815260a0820184528051908301207f8e25870c07e0b0b3884c78da52790939a455c275406c44ae8b434b692fb916ee60c083015260e08201899052871515610100808401919091528451808403909101815261012083019094528351939092019290922061190160f01b6101408401526101428301829052610162830181905290916000906101820160408051601f198184030181528282528051602091820120600080855291840180845281905260ff8a169284019290925260608301889052608083018790529092509060019060a0016020604051602081039080840390855afa1580156112d8573d6000803e3d6000fd5b5050604051601f1901519150506001600160a01b0381166113535760405162461bcd60e51b815260206004820152602f60248201527f476f7665726e6f72416c7068613a3a63617374566f746542795369673a20696e60448201526e76616c6964207369676e617475726560881b6064820152608401610d85565b61135e818a8a612313565b505050505050505050565b611371612646565b600061137c83610d17565b9050600181600781111561139257611392612d1c565b14806113af575060008160078111156113ad576113ad612d1c565b145b6114215760405162461bcd60e51b815260206004820152603c60248201527f476f7665726e6f72416c7068613a3a7665746f3a2050726f706f73616c20636160448201527f6e206f6e6c79206265207665746f6564207768656e20616374697665000000006064820152608401610d85565b600083815260066020908152604080832060038101805483518186028101860190945280845291949390919083018282801561148657602002820191906000526020600020905b81546001600160a01b03168152600190910190602001808311611468575b5050505050905060005b815181101561157257306001600160a01b03168282815181106114b5576114b5613324565b60200260200101516001600160a01b031614156115605760405162461bcd60e51b815260206004820152605f60248201527f476f7665726e6f72416c7068613a3a7665746f3a20636f756e63696c2063616e60448201527f6e6f74207665746f206f6e2070726f706f73616c20686176696e67206163746960648201527f6f6e207769746820616464726573732874686973292061732074617267657400608482015260a401610d85565b8061156a81613427565b915050611490565b50600b82018054851580156101000261ffff1990921691909117600117825561159e5761159e86611d0a565b6040805187815286151560208201527fc31b90474612d75e8105c18a29622b8a2f528aff1f2646cadf5f19b30542c61591015b60405180910390a1505050505050565b6115e96125cf565b600180546001600160a01b0319169055565b6116036125cf565b600354604080516001600160a01b03928316815291831660208301527fa4b009cc442411b602eaf94bc0579b6abdb8fd90b4ef5b9426e270038906bd03910160405180910390a1600380546001600160a01b0319166001600160a01b0392909216919091179055565b6116746125cf565b60008054604080516001600160a01b03868116602083015290921692633a66f90192849201604051602081830303815290604052856040518563ffffffff1660e01b81526004016116c894939291906131ee565b602060405180830381600087803b1580156116e257600080fd5b505af11580156116f6573d6000803e3d6000fd5b505050506040513d601f19601f82011682018060405250810190610a38919061317e565b6117226125cf565b6000805460408051630e18b68160e01b815290516001600160a01b0390921692630e18b6819260048084019382900301818387803b15801561176357600080fd5b505af1158015611777573d6000803e3d6000fd5b50505050565b6117856125cf565b6001600160a01b0381166118015760405162461bcd60e51b815260206004820152603d60248201527f476f7665726e6f72416c7068613a3a696e697454696d656c6f636b3a205f746960448201527f6d656c6f636b2063616e6e6f74206265207a65726f20616464726573730000006064820152608401610d85565b600080546001600160a01b0319166001600160a01b0392909216919091179055565b600084518651148015611837575083518651145b8015611844575082518651145b6118c45760405162461bcd60e51b8152602060048201526044602482018190527f476f7665726e6f72416c7068613a3a70726f706f73653a2070726f706f73616c908201527f2066756e6374696f6e20696e666f726d6174696f6e206172697479206d69736d6064820152630c2e8c6d60e31b608482015260a401610d85565b85516119275760405162461bcd60e51b815260206004820152602c60248201527f476f7665726e6f72416c7068613a3a70726f706f73653a206d7573742070726f60448201526b7669646520616374696f6e7360a01b6064820152608401610d85565b600a8651111561198a5760405162461bcd60e51b815260206004820152602860248201527f476f7665726e6f72416c7068613a3a70726f706f73653a20746f6f206d616e7960448201526720616374696f6e7360c01b6064820152608401610d85565b600354600480546040516323b872dd60e01b815233928101929092526001600160a01b03928316602483015260448201527f0000000000000000000000000000000000000000000000000000000000000000909116906323b872dd90606401602060405180830381600087803b158015611a0357600080fd5b505af1158015611a17573d6000803e3d6000fd5b505050506040513d601f19601f82011682018060405250810190611a3b9190613442565b50336000908152600760205260409020548015611bbd576000611a5d82610d17565b90506001816007811115611a7357611a73612d1c565b1415611b0d5760405162461bcd60e51b815260206004820152605860248201527f476f7665726e6f72416c7068613a3a70726f706f73653a206f6e65206c69766560448201527f2070726f706f73616c207065722070726f706f7365722c20666f756e6420616e60648201527f20616c7265616479206163746976652070726f706f73616c0000000000000000608482015260a401610d85565b6000816007811115611b2157611b21612d1c565b1415611bbb5760405162461bcd60e51b815260206004820152605960248201527f476f7665726e6f72416c7068613a3a70726f706f73653a206f6e65206c69766560448201527f2070726f706f73616c207065722070726f706f7365722c20666f756e6420616e60648201527f20616c72656164792070656e64696e672070726f706f73616c00000000000000608482015260a401610d85565b505b6000611bca60014361330c565b90506000611bda6143808361330c565b9050600260008154611beb90613427565b9182905550600081815260066020908152604090912082815560018101805462010000600160b01b0319163362010000021790558b5192965091611c37916003840191908d0190612880565b508851611c4d90600483019060208c01906128e5565b508751611c6390600583019060208b0190612920565b508651611c7990600683019060208a0190612979565b508281600701819055508181600801819055508460076000336001600160a01b03166001600160a01b03168152602001908152602001600020819055507f7d84a6263ae0d98d3329bd7b46bb4e8d6f98cd35a7adb45c274c8b7fd5ebd5e085338c8c8c8c89898e604051611cf59998979695949392919061345f565b60405180910390a15050505095945050505050565b6004611d1582610d17565b6007811115611d2657611d26612d1c565b14611da75760405162461bcd60e51b8152602060048201526044602482018190527f476f7665726e6f72416c7068613a3a71756575653a2070726f706f73616c2063908201527f616e206f6e6c79206265207175657565642069662069742069732073756363656064820152631959195960e21b608482015260a401610d85565b600081815260066020908152604080832083548251630d48571f60e31b815292519194936001600160a01b0390911692636a42b8f89260048083019392829003018186803b158015611df857600080fd5b505afa158015611e0c573d6000803e3d6000fd5b505050506040513d601f19601f82011682018060405250810190611e30919061317e565b611e3a904261330c565b600383015490915060005b8181101561200657611ff4846003018281548110611e6557611e65613324565b6000918252602090912001546004860180546001600160a01b039092169184908110611e9357611e93613324565b9060005260206000200154866005018481548110611eb357611eb3613324565b906000526020600020018054611ec8906132d1565b80601f0160208091040260200160405190810160405280929190818152602001828054611ef4906132d1565b8015611f415780601f10611f1657610100808354040283529160200191611f41565b820191906000526020600020905b815481529060010190602001808311611f2457829003601f168201915b5050505050876006018581548110611f5b57611f5b613324565b906000526020600020018054611f70906132d1565b80601f0160208091040260200160405190810160405280929190818152602001828054611f9c906132d1565b8015611fe95780601f10611fbe57610100808354040283529160200191611fe9565b820191906000526020600020905b815481529060010190602001808311611fcc57829003601f168201915b5050505050876126bb565b80611ffe81613427565b915050611e45565b506002830182905560408051858152602081018490527f9a2e42fd6722813d69113e7d0079d3d940171428df7373df9c7f7617cfda28929101611147565b600561204f82610d17565b600781111561206057612060612d1c565b146120e15760405162461bcd60e51b815260206004820152604560248201527f476f7665726e6f72416c7068613a3a657865637574653a2070726f706f73616c60448201527f2063616e206f6e6c7920626520657865637574656420696620697420697320716064820152641d595d595960da1b608482015260a401610d85565b600081815260066020526040812060018101805461ff001916610100179055600381015490915b81811015612261576000546004840180546001600160a01b0390921691630825f38f91908490811061213c5761213c613324565b906000526020600020015485600301848154811061215c5761215c613324565b6000918252602090912001546004870180546001600160a01b03909216918690811061218a5761218a613324565b90600052602060002001548760050186815481106121aa576121aa613324565b906000526020600020018860060187815481106121c9576121c9613324565b9060005260206000200189600201546040518763ffffffff1660e01b81526004016121f89594939291906133db565b6000604051808303818588803b15801561221157600080fd5b505af1158015612225573d6000803e3d6000fd5b50505050506040513d6000823e601f3d908101601f1916820160405261224e919081019061325a565b508061225981613427565b915050612108565b506040518381527f712ae1383f79ac853f8d882153778e0260ef8f03b504e2866e0593e04d2b291f9060200160405180910390a1505050565b6000546001600160a01b031633146123115760405162461bcd60e51b815260206004820152603460248201527f476f7665726e6f72416c7068613a3a5f6f6e6c7954696d656c6f636b3a206f6e6044820152731b1e481d1a5b595b1bd8dac818d85b8818d85b1b60621b6064820152608401610d85565b565b600161231e83610d17565b600781111561232f5761232f612d1c565b1461238f5760405162461bcd60e51b815260206004820152602a60248201527f476f7665726e6f72416c7068613a3a5f63617374566f74653a20766f74696e67604482015269081a5cc818db1bdcd95960b21b6064820152608401610d85565b60008281526006602090815260408083206001600160a01b0387168452600c8101909252909120805460ff161561241e5760405162461bcd60e51b815260206004820152602d60248201527f476f7665726e6f72416c7068613a3a5f63617374566f74653a20766f7465722060448201526c185b1c9958591e481d9bdd1959609a1b6064820152608401610d85565b6007820154604051630748d63560e31b81526001600160a01b03878116600483015260248201929092526000917f00000000000000000000000000000000000000000000000000000000000000001690633a46b1a89060440160206040518083038186803b15801561248f57600080fd5b505afa1580156124a3573d6000803e3d6000fd5b505050506040513d601f19601f820116820180604052508101906124c7919061317e565b9050831561250f5760098301546124e89082906001600160e01b03166134f7565b6009840180546001600160e01b0319166001600160e01b039290921691909117905561254b565b600a8301546125289082906001600160e01b03166134f7565b600a840180546001600160e01b0319166001600160e01b03929092169190911790555b81546001600160e01b03821662010000810262010000600160f01b0319871515610100810261ffff199095169490941760011716178455604080516001600160a01b038a168152602081018990529081019290925260608201527f877856338e13f63d0c36822ff0ef736b80934cd90574a3a5bc9262c39d217c46906080016115d1565b6001546001600160a01b031633146123115760405162461bcd60e51b815260206004820152603460248201527f476f7665726e6f72416c7068613a3a5f6f6e6c79477561726469616e3a206f6e6044820152731b1e4819dd585c991a585b8818d85b8818d85b1b60621b6064820152608401610d85565b6005546001600160a01b031633146123115760405162461bcd60e51b815260206004820152603260248201527f476f7665726e6f72416c7068613a3a5f6f6e6c79436f756e63696c3a206f6e6c6044820152711e4818dbdd5b98da5b0818d85b8818d85b1b60721b6064820152608401610d85565b6000546040516001600160a01b039091169063f2b06537906126e99088908890889088908890602001613522565b604051602081830303815290604052805190602001206040518263ffffffff1660e01b815260040161271d91815260200190565b60206040518083038186803b15801561273557600080fd5b505afa158015612749573d6000803e3d6000fd5b505050506040513d601f19601f8201168201806040525081019061276d9190613442565b156127ee5760405162461bcd60e51b8152602060048201526044602482018190527f476f7665726e6f72416c7068613a3a5f71756575654f725265766572743a2070908201527f726f706f73616c20616374696f6e20616c7265616479207175657565642061746064820152632065746160e01b608482015260a401610d85565b600054604051633a66f90160e01b81526001600160a01b0390911690633a66f901906128269088908890889088908890600401613522565b602060405180830381600087803b15801561284057600080fd5b505af1158015612854573d6000803e3d6000fd5b505050506040513d601f19601f82011682018060405250810190612878919061317e565b505050505050565b8280548282559060005260206000209081019282156128d5579160200282015b828111156128d557825182546001600160a01b0319166001600160a01b039091161782556020909201916001909101906128a0565b506128e19291506129d2565b5090565b8280548282559060005260206000209081019282156128d5579160200282015b828111156128d5578251825591602001919060010190612905565b82805482825590600052602060002090810192821561296d579160200282015b8281111561296d578251805161295d9184916020909101906129e7565b5091602001919060010190612940565b506128e1929150612a5a565b8280548282559060005260206000209081019282156129c6579160200282015b828111156129c657825180516129b69184916020909101906129e7565b5091602001919060010190612999565b506128e1929150612a77565b5b808211156128e157600081556001016129d3565b8280546129f3906132d1565b90600052602060002090601f016020900481019282612a1557600085556128d5565b82601f10612a2e57805160ff19168380011785556128d5565b828001600101855582156128d557918201828111156128d5578251825591602001919060010190612905565b808211156128e1576000612a6e8282612a94565b50600101612a5a565b808211156128e1576000612a8b8282612a94565b50600101612a77565b508054612aa0906132d1565b6000825580601f10612ab0575050565b601f016020900490600052602060002090810190612ace91906129d2565b50565b600060208284031215612ae357600080fd5b5035919050565b80356001600160a01b0381168114612b0157600080fd5b919050565b600060208284031215612b1857600080fd5b612b2182612aea565b9392505050565b60005b83811015612b43578181015183820152602001612b2b565b838111156117775750506000910152565b60008151808452612b6c816020860160208601612b28565b601f01601f19169290920160200192915050565b602081526000612b216020830184612b54565b8015158114612ace57600080fd5b60008060408385031215612bb457600080fd5b823591506020830135612bc681612b93565b809150509250929050565b60008060408385031215612be457600080fd5b612bed83612aea565b946020939093013593505050565b600081518084526020808501945080840160005b83811015612c345781516001600160a01b031687529582019590820190600101612c0f565b509495945050505050565b600081518084526020808501945080840160005b83811015612c3457815187529582019590820190600101612c53565b600081518084526020808501808196508360051b8101915082860160005b85811015612cb7578284038952612ca5848351612b54565b98850198935090840190600101612c8d565b5091979650505050505050565b608081526000612cd76080830187612bfb565b8281036020840152612ce98187612c3f565b90508281036040840152612cfd8186612c6f565b90508281036060840152612d118185612c6f565b979650505050505050565b634e487b7160e01b600052602160045260246000fd5b6020810160088310612d5457634e487b7160e01b600052602160045260246000fd5b91905290565b600080600080600060a08688031215612d7257600080fd5b853594506020860135612d8481612b93565b9350604086013560ff81168114612d9a57600080fd5b94979396509394606081013594506080013592915050565b634e487b7160e01b600052604160045260246000fd5b604051601f8201601f1916810167ffffffffffffffff81118282101715612df157612df1612db2565b604052919050565b600067ffffffffffffffff821115612e1357612e13612db2565b5060051b60200190565b600082601f830112612e2e57600080fd5b81356020612e43612e3e83612df9565b612dc8565b82815260059290921b84018101918181019086841115612e6257600080fd5b8286015b84811015612e8457612e7781612aea565b8352918301918301612e66565b509695505050505050565b600082601f830112612ea057600080fd5b81356020612eb0612e3e83612df9565b82815260059290921b84018101918181019086841115612ecf57600080fd5b8286015b84811015612e845780358352918301918301612ed3565b600067ffffffffffffffff821115612f0457612f04612db2565b50601f01601f191660200190565b6000612f20612e3e84612eea565b9050828152838383011115612f3457600080fd5b828260208301376000602084830101529392505050565b600082601f830112612f5c57600080fd5b612b2183833560208501612f12565b600082601f830112612f7c57600080fd5b81356020612f8c612e3e83612df9565b82815260059290921b84018101918181019086841115612fab57600080fd5b8286015b84811015612e8457803567ffffffffffffffff811115612fcf5760008081fd5b612fdd8986838b0101612f4b565b845250918301918301612faf565b600082601f830112612ffc57600080fd5b8135602061300c612e3e83612df9565b82815260059290921b8401810191818101908684111561302b57600080fd5b8286015b84811015612e8457803567ffffffffffffffff81111561304f5760008081fd5b8701603f810189136130615760008081fd5b613072898683013560408401612f12565b84525091830191830161302f565b600080600080600060a0868803121561309857600080fd5b853567ffffffffffffffff808211156130b057600080fd5b6130bc89838a01612e1d565b965060208801359150808211156130d257600080fd5b6130de89838a01612e8f565b955060408801359150808211156130f457600080fd5b61310089838a01612f6b565b9450606088013591508082111561311657600080fd5b61312289838a01612feb565b9350608088013591508082111561313857600080fd5b5061314588828901612f4b565b9150509295509295909350565b6000806040838503121561316557600080fd5b8235915061317560208401612aea565b90509250929050565b60006020828403121561319057600080fd5b5051919050565b634e487b7160e01b600052601160045260246000fd5b60008160001904831182151516156131c7576131c7613197565b500290565b6000826131e957634e487b7160e01b600052601260045260246000fd5b500490565b60018060a01b038516815283602082015260a06040820152601860a08201527f73657450656e64696e6741646d696e286164647265737329000000000000000060c082015260e06060820152600061324960e0830185612b54565b905082608083015295945050505050565b60006020828403121561326c57600080fd5b815167ffffffffffffffff81111561328357600080fd5b8201601f8101841361329457600080fd5b80516132a2612e3e82612eea565b8181528560208385010111156132b757600080fd5b6132c8826020830160208601612b28565b95945050505050565b600181811c908216806132e557607f821691505b6020821081141561330657634e487b7160e01b600052602260045260246000fd5b50919050565b6000821982111561331f5761331f613197565b500190565b634e487b7160e01b600052603260045260246000fd5b8054600090600181811c908083168061335457607f831692505b602080841082141561337657634e487b7160e01b600052602260045260246000fd5b83885281801561338d57600181146133a1576133cf565b60ff198616898301526040890196506133cf565b876000528160002060005b868110156133c75781548b82018501529085019083016133ac565b8a0183019750505b50505050505092915050565b60018060a01b038616815284602082015260a06040820152600061340260a083018661333a565b8281036060840152613414818661333a565b9150508260808301529695505050505050565b600060001982141561343b5761343b613197565b5060010190565b60006020828403121561345457600080fd5b8151612b2181612b93565b8981526001600160a01b03891660208201526101206040820181905260009061348a8382018b612bfb565b9050828103606084015261349e818a612c3f565b905082810360808401526134b28189612c6f565b905082810360a08401526134c68188612c6f565b90508560c08401528460e08401528281036101008401526134e78185612b54565b9c9b505050505050505050505050565b60006001600160e01b0382811684821680830382111561351957613519613197565b01949350505050565b60018060a01b038616815284602082015260a06040820152600061354960a0830186612b54565b82810360608401526134148186612b5456fea2646970667358221220ef1080122cd5ceaf07b8e149d6a6859591910c5a3cfd0cf789adc428e1544c5864736f6c63430008090033",
  "immutableReferences": {
    "17447": [
      {
        "length": 32,
        "start": 1582
      },
      {
        "length": 32,
        "start": 2274
      },
      {
        "length": 32,
        "start": 6589
      },
      {
        "length": 32,
        "start": 9293
      }
    ]
  },
  "source": "// SPDX-License-Identifier: UNLICENSED\npragma solidity =0.8.9;\npragma experimental ABIEncoderV2;\n\nimport \"../interfaces/governance/ITimelock.sol\";\nimport \"../interfaces/x-vader/IXVader.sol\";\n\n/**\n * @dev Implementation of {GovernorAlpha} contract.\n *\n * The GovernorAlpha contract allows creation of proposals by anyone\n * by depositing xVader (1000 xVader initially).\n *\n * Anyone can vote on the created proposals utilizing their xVader weight in\n * xVader contract.\n *\n * Only 1 proposal can be active at a time by a particular proposer.\n *\n * A proposal is queued when it succeeds and can be executed after a cool-off\n * time period specified by {delay} in the Timelock contract.\n *\n * A proposal can be cancelled by a {guardian} if it has not been already\n * executed.\n *\n * A proposal can be vetoed by {council} while its state is active/pending\n * and a proposal vetoed with success is also queued at the same time.\n */\ncontract GovernorAlpha {\n    // The name of this contract\n    string public constant name = \"Vader Governor Alpha\";\n\n    // The address of the Vader Protocol Timelock\n    ITimelock public timelock;\n\n    // The address of the Governor Guardian\n    address public guardian;\n\n    // The total number of proposals\n    uint256 public proposalCount;\n\n    // address of xVader token\n    IXVader public immutable xVader;\n\n    // address of fee receiver\n    address public feeReceiver;\n\n    // amount of fee deducted when proposing proposal\n    uint256 public feeAmount;\n\n    // address of council that is allowed to veto on proposals\n    address public council;\n\n    /**\n     * @dev {Proposal} struct contains parameters for a single proposal.\n     * id: Unique id for looking up a proposal.\n     * canceled: Flag marking whether the proposal has been canceled.\n     * executed: Flag marking whether the proposal has been executed.\n     * proposer: Creator of the proposal\n     * eta: The timestamp that the proposal will be available for execution, set once the vote succeeds\n     * targets: the ordered list of target addresses for calls to be made\n     * values: The ordered list of values (i.e. msg.value) to be passed to the calls to be made\n     * signatures: The ordered list of function signatures to be called\n     * calldatas: The ordered list of calldata to be passed to each call\n     * startBlock: startBlock: The block at which voting begins: holders must delegate their votes prior to this block\n     * endBlock: The block at which voting ends: votes must be cast prior to this block\n     * forVotes: Current number of votes in favor of this proposal\n     * againstVotes: Current number of votes in opposition to this proposal\n     * receipts: Receipts of ballots for the entire set of voters\n     * vetoStatus: Veto status if the proposal has been vetoed by council in favor or against\n     */\n    struct Proposal {\n        uint256 id;\n        bool canceled;\n        bool executed;\n        address proposer;\n        uint256 eta;\n        address[] targets;\n        uint256[] values;\n        string[] signatures;\n        bytes[] calldatas;\n        uint256 startBlock;\n        uint256 endBlock;\n        uint224 forVotes;\n        uint224 againstVotes;\n        VetoStatus vetoStatus;\n        mapping(address => Receipt) receipts;\n    }\n\n    /**\n     * @dev {Receipt} struct contains parameters for a voter against a particular proposal\n     * and is a ballot receipt record for a voter.\n     *\n     * hasVoted: Whether or not a vote has been casted\n     * support: Whether or not the voter supports the proposal\n     * votes: The number of votes the voter had, which were cast\n     */\n    struct Receipt {\n        bool hasVoted;\n        bool support;\n        uint224 votes;\n    }\n\n    /**\n     * @dev {VetoStatus} contains parameters representing if a proposal has been vetoed by council\n     *\n     * hasBeenVetoed: Whether proposal has been vetoed or not\n     * support: Whether veto is in favor or against of proposal\n     */\n    struct VetoStatus {\n        bool hasBeenVetoed;\n        bool support;\n    }\n\n    // Possible states that a proposal may be in\n    enum ProposalState {\n        Pending,\n        Active,\n        Canceled,\n        Defeated,\n        Succeeded,\n        Queued,\n        Expired,\n        Executed\n    }\n\n    // The official record of all proposals ever proposed\n    mapping(uint256 => Proposal) public proposals;\n\n    // The latest proposal for each proposer\n    mapping(address => uint256) public latestProposalIds;\n\n    // The EIP-712 typehash for the contract's domain\n    bytes32 public constant DOMAIN_TYPEHASH =\n        keccak256(\n            \"EIP712Domain(string name,uint256 chainId,address verifyingContract)\"\n        );\n\n    // The EIP-712 typehash for the ballot struct used by the contract\n    bytes32 public constant BALLOT_TYPEHASH =\n        keccak256(\"Ballot(uint256 proposalId,bool support)\");\n\n    // An event emitted when a new proposal is created\n    event ProposalCreated(\n        uint256 id,\n        address proposer,\n        address[] targets,\n        uint256[] values,\n        string[] signatures,\n        bytes[] calldatas,\n        uint256 startBlock,\n        uint256 endBlock,\n        string description\n    );\n\n    // An event emitted when a vote has been cast on a proposal\n    event VoteCast(\n        address voter,\n        uint256 proposalId,\n        bool support,\n        uint256 votes\n    );\n\n    // An event emitted when a proposal has been canceled\n    event ProposalCanceled(uint256 id);\n\n    // An event emitted when a proposal has been queued in the Timelock\n    event ProposalQueued(uint256 id, uint256 eta);\n\n    // An event emitted when a proposal has been executed in the Timelock\n    event ProposalExecuted(uint256 id);\n\n    // An event emitted when fee receiver is changed\n    event FeeReceiverChanged(address oldFeeReceiver, address newFeeReceiver);\n\n    // An event emitted when fee amount is changed\n    event FeeAmountChanged(uint256 oldFeeAmount, uint256 newFeeAmount);\n\n    // An event emitted when a proposal has been vetoed by the council\n    event ProposalVetoed(uint256 proposalId, bool support);\n\n    // An event emitted when council is changed\n    event CouncilChanged(address oldCouncil, address newCouncil);\n\n    /* ========== CONSTRUCTOR ========== */\n\n    /**\n     * @dev Initializes the contract's state setting xVader, fee receiver,\n     * council and guardian addresses along with the fee amount.\n     *\n     * It performs sanity checks for the address type parameters against zero\n     * address values.\n     */\n    constructor(\n        address guardian_,\n        address xVader_,\n        address feeReceiver_,\n        uint256 feeAmount_,\n        address council_\n    ) {\n        require(\n            xVader_ != address(0),\n            \"GovernorAlpha::constructor: xVader address is zero\"\n        );\n\n        require(\n            guardian_ != address(0) &&\n                feeReceiver_ != address(0) &&\n                council_ != address(0),\n            \"GovernorAlpha::constructor: guardian, feeReceiver or council cannot be zero\"\n        );\n\n        guardian = guardian_;\n        xVader = IXVader(xVader_);\n        feeReceiver = feeReceiver_;\n        feeAmount = feeAmount_;\n        council = council_;\n\n        emit FeeReceiverChanged(address(0), feeReceiver_);\n        emit FeeAmountChanged(0, feeAmount_);\n    }\n\n    /* ========== VIEWS ========== */\n\n    // The number of votes in support of a proposal required in order for a quorum to be reached and for a vote to succeed\n    function quorumVotes(uint256 blockNumber) public view returns (uint256) {\n        return (xVader.getPastTotalSupply(blockNumber) * 4) / 100; // 4% of xVader's supply at the time of proposal creation.\n    }\n\n    // The maximum number of actions that can be included in a proposal\n    function proposalMaxOperations() public pure returns (uint256) {\n        return 10; // 10 actions\n    }\n\n    // The delay before voting on a proposal may take place, once proposed\n    function votingDelay() public pure returns (uint256) {\n        return 1; // 1 block\n    }\n\n    // The duration of voting on a proposal, in blocks\n    function votingPeriod() public pure virtual returns (uint256) {\n        return 17280; // ~3 days in blocks (assuming 15s blocks)\n    }\n\n    /**\n     * @dev Returns the actions contained in a proposal with id {proposalId}.\n     */\n    function getActions(uint256 proposalId)\n        public\n        view\n        returns (\n            address[] memory targets,\n            uint256[] memory values,\n            string[] memory signatures,\n            bytes[] memory calldatas\n        )\n    {\n        Proposal storage p = proposals[proposalId];\n        return (p.targets, p.values, p.signatures, p.calldatas);\n    }\n\n    /**\n     * @dev Returns receipt of the {voter} against the proposal with id {proposalId}.\n     */\n    function getReceipt(uint256 proposalId, address voter)\n        public\n        view\n        returns (Receipt memory)\n    {\n        return proposals[proposalId].receipts[voter];\n    }\n\n    /**\n     * @dev Returns the current state of the proposal with id {proposalId}.\n     *\n     * Requirements:\n     * - The {proposalId} should be greater than 0\n     * - The {proposalId} should be less than or equal to {proposalCount}\n     */\n    function state(uint256 proposalId) public view returns (ProposalState) {\n        require(\n            proposalCount >= proposalId && proposalId > 0,\n            \"GovernorAlpha::state: invalid proposal id\"\n        );\n\n        Proposal storage proposal = proposals[proposalId];\n        if (proposal.canceled) return ProposalState.Canceled;\n\n        if (proposal.vetoStatus.hasBeenVetoed) {\n            // proposal has been vetoed\n            uint256 _eta = proposal.eta;\n\n            // proposal has been vetoed in favor, so considered succeeded\n            if (proposal.vetoStatus.support && _eta == 0)\n                return ProposalState.Succeeded;\n\n            // proposal has been vetoed against, so considered defeated\n            if (_eta == 0) return ProposalState.Defeated;\n        } else {\n            // proposal has not been vetoed, normal flow ensues\n            if (block.number <= proposal.startBlock)\n                return ProposalState.Pending;\n\n            if (block.number <= proposal.endBlock) return ProposalState.Active;\n\n            if (\n                proposal.forVotes <= proposal.againstVotes ||\n                proposal.forVotes < quorumVotes(proposal.startBlock)\n            ) return ProposalState.Defeated;\n\n            if (proposal.eta == 0) return ProposalState.Succeeded;\n        }\n\n        if (proposal.executed) return ProposalState.Executed;\n\n        if (block.timestamp >= proposal.eta + timelock.GRACE_PERIOD())\n            return ProposalState.Expired;\n\n        return ProposalState.Queued;\n    }\n\n    /* ========== MUTATIVE FUNCTIONS ========== */\n\n    /**\n     * @dev Sets timelock state variable. Contracts {GovernorAlpha} and\n     * {Timelock} have circular dependencies upon each other and constructors\n     * cannot be used to set them, hence this function is introduced to set\n     * {Timelock} in {GovernorAlpha} after it has been deployed.\n     *\n     * Requirements:\n     * - only guardian can call this function\n     */\n    function setTimelock(address _timelock) external onlyGuardian {\n        require(\n            _timelock != address(0),\n            \"GovernorAlpha::initTimelock: _timelock cannot be zero address\"\n        );\n        timelock = ITimelock(_timelock);\n    }\n\n    /**\n     * @dev Allows any to make a proposal by depositing {feeAmount} xVader.\n     * It accepts targets along with the values, signature and calldatas\n     * for the actions to perform if the proposal succeeds.\n     *\n     * Requirements:\n     * - targets, values, signatures and calldatas arrays' lengths must be greater\n     *   than zero, less than {proposalMaxOperations} and are the same.\n     * - the caller must approve {feeAmount} xVader to this contract prior to call.\n     * - the caller must not have an active/pending proposal.\n     */\n    function propose(\n        address[] memory targets,\n        uint256[] memory values,\n        string[] memory signatures,\n        bytes[] memory calldatas,\n        string memory description\n    ) public returns (uint256 proposalId) {\n        require(\n            targets.length == values.length &&\n                targets.length == signatures.length &&\n                targets.length == calldatas.length,\n            \"GovernorAlpha::propose: proposal function information arity mismatch\"\n        );\n        require(\n            targets.length != 0,\n            \"GovernorAlpha::propose: must provide actions\"\n        );\n        require(\n            targets.length <= proposalMaxOperations(),\n            \"GovernorAlpha::propose: too many actions\"\n        );\n\n        xVader.transferFrom(msg.sender, feeReceiver, feeAmount);\n\n        uint256 latestProposalId = latestProposalIds[msg.sender];\n        if (latestProposalId != 0) {\n            ProposalState proposersLatestProposalState = state(\n                latestProposalId\n            );\n            require(\n                proposersLatestProposalState != ProposalState.Active,\n                \"GovernorAlpha::propose: one live proposal per proposer, found an already active proposal\"\n            );\n            require(\n                proposersLatestProposalState != ProposalState.Pending,\n                \"GovernorAlpha::propose: one live proposal per proposer, found an already pending proposal\"\n            );\n        }\n\n        uint256 startBlock = block.number + votingDelay();\n        uint256 endBlock = startBlock + votingPeriod();\n\n        proposalId = ++proposalCount;\n        Proposal storage newProposal = proposals[proposalId];\n        newProposal.id = proposalId;\n        newProposal.proposer = msg.sender;\n        newProposal.targets = targets;\n        newProposal.values = values;\n        newProposal.signatures = signatures;\n        newProposal.calldatas = calldatas;\n        newProposal.startBlock = startBlock;\n        newProposal.endBlock = endBlock;\n\n        latestProposalIds[msg.sender] = proposalId;\n\n        emit ProposalCreated(\n            proposalId,\n            msg.sender,\n            targets,\n            values,\n            signatures,\n            calldatas,\n            startBlock,\n            endBlock,\n            description\n        );\n    }\n\n    /**\n     * @dev Queues a proposal by setting the hashes of its actions in {Timelock} contract.\n     * It also determines 'eta' for the proposal by adding timestamp to {delay} in {Timelock}\n     * and sets it against the proposal in question.\n     *\n     * Requirements:\n     * - the proposal in question must have succeeded either through majority for-votes\n     *   or has been vetoed in its favour.\n     */\n    function queue(uint256 proposalId) public {\n        require(\n            state(proposalId) == ProposalState.Succeeded,\n            \"GovernorAlpha::queue: proposal can only be queued if it is succeeded\"\n        );\n        Proposal storage proposal = proposals[proposalId];\n        uint256 eta = block.timestamp + timelock.delay();\n\n        uint256 length = proposal.targets.length;\n        for (uint256 i = 0; i < length; i++) {\n            _queueOrRevert(\n                proposal.targets[i],\n                proposal.values[i],\n                proposal.signatures[i],\n                proposal.calldatas[i],\n                eta\n            );\n        }\n        proposal.eta = eta;\n        emit ProposalQueued(proposalId, eta);\n    }\n\n    /**\n     * @dev Executes a proposal after it has been queued and cool-off time has elapsed.\n     * It sets the {executed} status of the proposal to 'true'.\n     *\n     * Requirements:\n     * - the proposal in question must have been quened and cool-off time has elapsed\n     * - none of the actions of the proposal revert upon execution\n     */\n    function execute(uint256 proposalId) public payable {\n        require(\n            state(proposalId) == ProposalState.Queued,\n            \"GovernorAlpha::execute: proposal can only be executed if it is queued\"\n        );\n        Proposal storage proposal = proposals[proposalId];\n        proposal.executed = true;\n        uint256 length = proposal.targets.length;\n        for (uint256 i = 0; i < length; i++) {\n            timelock.executeTransaction{value: proposal.values[i]}(\n                proposal.targets[i],\n                proposal.values[i],\n                proposal.signatures[i],\n                proposal.calldatas[i],\n                proposal.eta\n            );\n        }\n        emit ProposalExecuted(proposalId);\n    }\n\n    /**\n     * @dev Casts vote by {msg.sender}.\n     * It calls the internal function `_castVote` to perform vote casting.\n     */\n    function castVote(uint256 proposalId, bool support) public {\n        return _castVote(msg.sender, proposalId, support);\n    }\n\n    /**\n     * @dev Called by a relayer to cast vote by a message signer.\n     *\n     * Requirements:\n     * - {signatory} retrieved must not be a zero address\n     */\n    function castVoteBySig(\n        uint256 proposalId,\n        bool support,\n        uint8 v,\n        bytes32 r,\n        bytes32 s\n    ) public {\n        bytes32 domainSeparator = keccak256(\n            abi.encode(\n                DOMAIN_TYPEHASH,\n                keccak256(bytes(name)),\n                getChainId(),\n                address(this)\n            )\n        );\n\n        bytes32 structHash = keccak256(\n            abi.encode(BALLOT_TYPEHASH, proposalId, support)\n        );\n\n        bytes32 digest = keccak256(\n            abi.encodePacked(\"\\x19\\x01\", domainSeparator, structHash)\n        );\n\n        address signatory = ecrecover(digest, v, r, s);\n\n        require(\n            signatory != address(0),\n            \"GovernorAlpha::castVoteBySig: invalid signature\"\n        );\n\n        return _castVote(signatory, proposalId, support);\n    }\n\n    /* ========== RESTRICTED FUNCTIONS ========== */\n\n    /**\n     * @dev Changes the {feeReceiver}.\n     *\n     * Requirements:\n     * - only guardian can call\n     */\n    function changeFeeReceiver(address feeReceiver_) external onlyGuardian {\n        emit FeeReceiverChanged(feeReceiver, feeReceiver_);\n        feeReceiver = feeReceiver_;\n    }\n\n    /**\n     * @dev Changes the {feeAmount}.\n     *\n     * Requirements:\n     * - only guardian can call\n     */\n    function changeFeeAmount(uint256 feeAmount_) external onlyGuardian {\n        emit FeeAmountChanged(feeAmount, feeAmount_);\n        feeAmount = feeAmount_;\n    }\n\n    /**\n     * @dev Allows vetoeing of a proposal in favor or against it.\n     * It also queues a proposal if it has been vetoed in favor of it and.\n     * sets the veto status of the proposal.\n     *\n     * Requirements:\n     * - can only be called by {council}\n     * - proposal being vetoed must be active or pending\n     * - none of the actions in proposal being vetoed point to the contract\n     *   itself. This to restrict council from vetoing a proposal intended\n     *   to change council.\n     */\n    function veto(uint256 proposalId, bool support) external onlyCouncil {\n        ProposalState _state = state(proposalId);\n        require(\n            _state == ProposalState.Active || _state == ProposalState.Pending,\n            \"GovernorAlpha::veto: Proposal can only be vetoed when active\"\n        );\n\n        Proposal storage proposal = proposals[proposalId];\n        address[] memory _targets = proposal.targets;\n        for (uint256 i = 0; i < _targets.length; i++) {\n            if (_targets[i] == address(this)) {\n                revert(\n                    \"GovernorAlpha::veto: council cannot veto on proposal having action with address(this) as target\"\n                );\n            }\n        }\n\n        VetoStatus storage _vetoStatus = proposal.vetoStatus;\n        _vetoStatus.hasBeenVetoed = true;\n        _vetoStatus.support = support;\n\n        if (support) {\n            queue(proposalId);\n        }\n\n        emit ProposalVetoed(proposalId, support);\n    }\n\n    /**\n     * @dev Changes the {council}.\n     *\n     * Requirements:\n     * - can only be called by {Timelock} contract through a non-vetoeable proposal\n     */\n    function changeCouncil(address council_) external onlyTimelock {\n        emit CouncilChanged(council, council_);\n        council = council_;\n    }\n\n    /**\n     * @dev Cancels the proposal with id {proposalId}.\n     * It also sets the {canceled} property of {Proposal} to `true` and\n     * removes the proposal's corresponding actions from {Timelock} contract.\n     *\n     * Requirements:\n     * - proposal must not be already executed\n     */\n    function cancel(uint256 proposalId) public onlyGuardian {\n        ProposalState _state = state(proposalId);\n        require(\n            _state != ProposalState.Executed,\n            \"GovernorAlpha::cancel: cannot cancel executed proposal\"\n        );\n\n        Proposal storage proposal = proposals[proposalId];\n        proposal.canceled = true;\n        uint256 length = proposal.targets.length;\n        for (uint256 i = 0; i < length; i++) {\n            timelock.cancelTransaction(\n                proposal.targets[i],\n                proposal.values[i],\n                proposal.signatures[i],\n                proposal.calldatas[i],\n                proposal.eta\n            );\n        }\n\n        emit ProposalCanceled(proposalId);\n    }\n\n    /**\n     * @dev Calls {acceptAdmin} on {Timelock} contract and makes the current contract\n     * the admin of {Timelock} contract.\n     *\n     * Requirements:\n     * - only guardian can call it\n     * - current contract must be the `pendingAdmin` in {Timelock} contract\n     */\n    function __acceptAdmin() public onlyGuardian {\n        timelock.acceptAdmin();\n    }\n\n    /**\n     * @dev Gives up the guardian role associated with the contract.\n     *\n     * Requirements:\n     * - only callable by guardian\n     */\n    function __abdicate() public onlyGuardian {\n        guardian = address(0);\n    }\n\n    /**\n     * @dev Queues the transaction to set `pendingAdmin` in {Timelock}.\n     *\n     * Requirements:\n     * - only callable by guardian\n     */\n    function __queueSetTimelockPendingAdmin(\n        address newPendingAdmin,\n        uint256 eta\n    ) public onlyGuardian {\n        timelock.queueTransaction(\n            address(timelock),\n            0,\n            \"setPendingAdmin(address)\",\n            abi.encode(newPendingAdmin),\n            eta\n        );\n    }\n\n    /**\n     * @dev Executes the transaction to set `pendingAdmin` in {Timelock}.\n     *\n     * Requirements:\n     * - only callable by guardian\n     */\n    function __executeSetTimelockPendingAdmin(\n        address newPendingAdmin,\n        uint256 eta\n    ) public onlyGuardian {\n        timelock.executeTransaction(\n            address(timelock),\n            0,\n            \"setPendingAdmin(address)\",\n            abi.encode(newPendingAdmin),\n            eta\n        );\n    }\n\n    /* ========== INTERNAL FUNCTIONS ========== */\n\n    /**\n     * @dev Queues a transaction in {Timelock}.\n     *\n     * Requirements:\n     * - only callable by guardian\n     * - transaction is not already queued in {Timelock}\n     */\n    function _queueOrRevert(\n        address target,\n        uint256 value,\n        string memory signature,\n        bytes memory data,\n        uint256 eta\n    ) internal {\n        require(\n            !timelock.queuedTransactions(\n                keccak256(abi.encode(target, value, signature, data, eta))\n            ),\n            \"GovernorAlpha::_queueOrRevert: proposal action already queued at eta\"\n        );\n        timelock.queueTransaction(target, value, signature, data, eta);\n    }\n\n    /**\n     * @dev Casts vote against proposal with id {proposalId}.\n     * It gets the voting weight of voter from {xVader} token contract corresponding to\n     * the blocknumber when proposal started and adds those votes to either\n     * {forVotes} or {againstVotes} property of {Proposal} depending upon if\n     * the voter is voting in favor of or against the proposal.\n     *\n     * Requirements:\n     * - proposal being voted must be active\n     * - voter has not already voted against the proposal\n     */\n    function _castVote(\n        address voter,\n        uint256 proposalId,\n        bool support\n    ) internal {\n        require(\n            state(proposalId) == ProposalState.Active,\n            \"GovernorAlpha::_castVote: voting is closed\"\n        );\n\n        Proposal storage proposal = proposals[proposalId];\n        Receipt storage receipt = proposal.receipts[voter];\n\n        require(\n            !receipt.hasVoted,\n            \"GovernorAlpha::_castVote: voter already voted\"\n        );\n\n        // optimistically casting to uint224 as xVader contract performs the checks for\n        // votes to not overflow uint224.\n        uint224 votes = uint224(xVader.getPastVotes(voter, proposal.startBlock));\n\n        if (support) {\n            proposal.forVotes = proposal.forVotes + votes;\n        } else {\n            proposal.againstVotes = proposal.againstVotes + votes;\n        }\n\n        receipt.hasVoted = true;\n        receipt.support = support;\n        receipt.votes = votes;\n\n        emit VoteCast(voter, proposalId, support, votes);\n    }\n\n    // gets the chainid from current network\n    function getChainId() internal view returns (uint256 chainId) {\n        assembly {\n            chainId := chainid()\n        }\n    }\n\n    /* ========== PRIVATE FUNCTIONS ========== */\n\n    // ensures only {guardian} is able to a particular function.\n    function _onlyGuardian() private view {\n        require(\n            msg.sender == guardian,\n            \"GovernorAlpha::_onlyGuardian: only guardian can call\"\n        );\n    }\n\n    // ensures only {timelock} is able to a particular function.\n    function _onlyTimelock() private view {\n        require(\n            msg.sender == address(timelock),\n            \"GovernorAlpha::_onlyTimelock: only timelock can call\"\n        );\n    }\n\n    // ensures only {council} is able to a particular function.\n    function _onlyCouncil() private view {\n        require(\n            msg.sender == council,\n            \"GovernorAlpha::_onlyCouncil: only council can call\"\n        );\n    }\n\n    /* ========== MODIFIERS ========== */\n\n    /**\n     * @dev Throws if invoked by anyone else other than the {guardian}\n     */\n    modifier onlyGuardian() {\n        _onlyGuardian();\n        _;\n    }\n\n    /**\n     * @dev Throws if invoked by anyone else other than the {timelock}\n     */\n    modifier onlyTimelock() {\n        _onlyTimelock();\n        _;\n    }\n\n    /**\n     * @dev Throws if invoked by anyone else other than the {council}\n     */\n    modifier onlyCouncil() {\n        _onlyCouncil();\n        _;\n    }\n}\n",
  "sourcePath": "/home/mingyue/sub_contract_content/Web3Bugs/contracts/52/contracts/governance/GovernorAlpha.sol",
  "compiler": {
    "name": "solc",
    "version": "0.8.9+commit.e5eed63a.Emscripten.clang"
  },
  "schemaVersion": "3.4.16",
  "updatedAt": "2025-03-06T07:23:55.063Z",
  "devdoc": {
    "details": "Implementation of {GovernorAlpha} contract. The GovernorAlpha contract allows creation of proposals by anyone by depositing xVader (1000 xVader initially). Anyone can vote on the created proposals utilizing their xVader weight in xVader contract. Only 1 proposal can be active at a time by a particular proposer. A proposal is queued when it succeeds and can be executed after a cool-off time period specified by {delay} in the Timelock contract. A proposal can be cancelled by a {guardian} if it has not been already executed. A proposal can be vetoed by {council} while its state is active/pending and a proposal vetoed with success is also queued at the same time.",
    "kind": "dev",
    "methods": {
      "__abdicate()": {
        "details": "Gives up the guardian role associated with the contract. Requirements: - only callable by guardian"
      },
      "__acceptAdmin()": {
        "details": "Calls {acceptAdmin} on {Timelock} contract and makes the current contract the admin of {Timelock} contract. Requirements: - only guardian can call it - current contract must be the `pendingAdmin` in {Timelock} contract"
      },
      "__executeSetTimelockPendingAdmin(address,uint256)": {
        "details": "Executes the transaction to set `pendingAdmin` in {Timelock}. Requirements: - only callable by guardian"
      },
      "__queueSetTimelockPendingAdmin(address,uint256)": {
        "details": "Queues the transaction to set `pendingAdmin` in {Timelock}. Requirements: - only callable by guardian"
      },
      "cancel(uint256)": {
        "details": "Cancels the proposal with id {proposalId}. It also sets the {canceled} property of {Proposal} to `true` and removes the proposal's corresponding actions from {Timelock} contract. Requirements: - proposal must not be already executed"
      },
      "castVote(uint256,bool)": {
        "details": "Casts vote by {msg.sender}. It calls the internal function `_castVote` to perform vote casting."
      },
      "castVoteBySig(uint256,bool,uint8,bytes32,bytes32)": {
        "details": "Called by a relayer to cast vote by a message signer. Requirements: - {signatory} retrieved must not be a zero address"
      },
      "changeCouncil(address)": {
        "details": "Changes the {council}. Requirements: - can only be called by {Timelock} contract through a non-vetoeable proposal"
      },
      "changeFeeAmount(uint256)": {
        "details": "Changes the {feeAmount}. Requirements: - only guardian can call"
      },
      "changeFeeReceiver(address)": {
        "details": "Changes the {feeReceiver}. Requirements: - only guardian can call"
      },
      "constructor": {
        "details": "Initializes the contract's state setting xVader, fee receiver, council and guardian addresses along with the fee amount. It performs sanity checks for the address type parameters against zero address values."
      },
      "execute(uint256)": {
        "details": "Executes a proposal after it has been queued and cool-off time has elapsed. It sets the {executed} status of the proposal to 'true'. Requirements: - the proposal in question must have been quened and cool-off time has elapsed - none of the actions of the proposal revert upon execution"
      },
      "getActions(uint256)": {
        "details": "Returns the actions contained in a proposal with id {proposalId}."
      },
      "getReceipt(uint256,address)": {
        "details": "Returns receipt of the {voter} against the proposal with id {proposalId}."
      },
      "propose(address[],uint256[],string[],bytes[],string)": {
        "details": "Allows any to make a proposal by depositing {feeAmount} xVader. It accepts targets along with the values, signature and calldatas for the actions to perform if the proposal succeeds. Requirements: - targets, values, signatures and calldatas arrays' lengths must be greater   than zero, less than {proposalMaxOperations} and are the same. - the caller must approve {feeAmount} xVader to this contract prior to call. - the caller must not have an active/pending proposal."
      },
      "queue(uint256)": {
        "details": "Queues a proposal by setting the hashes of its actions in {Timelock} contract. It also determines 'eta' for the proposal by adding timestamp to {delay} in {Timelock} and sets it against the proposal in question. Requirements: - the proposal in question must have succeeded either through majority for-votes   or has been vetoed in its favour."
      },
      "setTimelock(address)": {
        "details": "Sets timelock state variable. Contracts {GovernorAlpha} and {Timelock} have circular dependencies upon each other and constructors cannot be used to set them, hence this function is introduced to set {Timelock} in {GovernorAlpha} after it has been deployed. Requirements: - only guardian can call this function"
      },
      "state(uint256)": {
        "details": "Returns the current state of the proposal with id {proposalId}. Requirements: - The {proposalId} should be greater than 0 - The {proposalId} should be less than or equal to {proposalCount}"
      },
      "veto(uint256,bool)": {
        "details": "Allows vetoeing of a proposal in favor or against it. It also queues a proposal if it has been vetoed in favor of it and. sets the veto status of the proposal. Requirements: - can only be called by {council} - proposal being vetoed must be active or pending - none of the actions in proposal being vetoed point to the contract   itself. This to restrict council from vetoing a proposal intended   to change council."
      }
    },
    "version": 1
  },
  "userdoc": {
    "kind": "user",
    "methods": {},
    "version": 1
  }
}