{
  "contractName": "LinearVesting",
  "abi": [
    {
      "inputs": [
        {
          "internalType": "contract IERC20",
          "name": "_vader",
          "type": "address"
        },
        {
          "internalType": "address[]",
          "name": "vesters",
          "type": "address[]"
        },
        {
          "internalType": "uint192[]",
          "name": "amounts",
          "type": "uint192[]"
        }
      ],
      "stateMutability": "nonpayable",
      "type": "constructor"
    },
    {
      "anonymous": false,
      "inputs": [
        {
          "indexed": true,
          "internalType": "address",
          "name": "previousOwner",
          "type": "address"
        },
        {
          "indexed": true,
          "internalType": "address",
          "name": "newOwner",
          "type": "address"
        }
      ],
      "name": "OwnershipTransferred",
      "type": "event"
    },
    {
      "anonymous": false,
      "inputs": [
        {
          "indexed": true,
          "internalType": "address",
          "name": "from",
          "type": "address"
        },
        {
          "indexed": false,
          "internalType": "uint256",
          "name": "amount",
          "type": "uint256"
        }
      ],
      "name": "Vested",
      "type": "event"
    },
    {
      "anonymous": false,
      "inputs": [
        {
          "indexed": false,
          "internalType": "uint256",
          "name": "duration",
          "type": "uint256"
        }
      ],
      "name": "VestingInitialized",
      "type": "event"
    },
    {
      "inputs": [],
      "name": "end",
      "outputs": [
        {
          "internalType": "uint256",
          "name": "",
          "type": "uint256"
        }
      ],
      "stateMutability": "view",
      "type": "function"
    },
    {
      "inputs": [],
      "name": "owner",
      "outputs": [
        {
          "internalType": "address",
          "name": "",
          "type": "address"
        }
      ],
      "stateMutability": "view",
      "type": "function"
    },
    {
      "inputs": [],
      "name": "renounceOwnership",
      "outputs": [],
      "stateMutability": "nonpayable",
      "type": "function"
    },
    {
      "inputs": [],
      "name": "start",
      "outputs": [
        {
          "internalType": "uint256",
          "name": "",
          "type": "uint256"
        }
      ],
      "stateMutability": "view",
      "type": "function"
    },
    {
      "inputs": [
        {
          "internalType": "address",
          "name": "newOwner",
          "type": "address"
        }
      ],
      "name": "transferOwnership",
      "outputs": [],
      "stateMutability": "nonpayable",
      "type": "function"
    },
    {
      "inputs": [],
      "name": "vader",
      "outputs": [
        {
          "internalType": "contract IERC20",
          "name": "",
          "type": "address"
        }
      ],
      "stateMutability": "view",
      "type": "function"
    },
    {
      "inputs": [
        {
          "internalType": "address",
          "name": "",
          "type": "address"
        }
      ],
      "name": "vest",
      "outputs": [
        {
          "internalType": "uint192",
          "name": "amount",
          "type": "uint192"
        },
        {
          "internalType": "uint64",
          "name": "lastClaim",
          "type": "uint64"
        },
        {
          "internalType": "uint128",
          "name": "start",
          "type": "uint128"
        },
        {
          "internalType": "uint128",
          "name": "end",
          "type": "uint128"
        }
      ],
      "stateMutability": "view",
      "type": "function"
    },
    {
      "inputs": [],
      "name": "getClaim",
      "outputs": [
        {
          "internalType": "uint256",
          "name": "vestedAmount",
          "type": "uint256"
        }
      ],
      "stateMutability": "view",
      "type": "function"
    },
    {
      "inputs": [],
      "name": "claim",
      "outputs": [
        {
          "internalType": "uint256",
          "name": "vestedAmount",
          "type": "uint256"
        }
      ],
      "stateMutability": "nonpayable",
      "type": "function"
    },
    {
      "inputs": [],
      "name": "claimConverted",
      "outputs": [
        {
          "internalType": "uint256",
          "name": "vestedAmount",
          "type": "uint256"
        }
      ],
      "stateMutability": "nonpayable",
      "type": "function"
    },
    {
      "inputs": [],
      "name": "begin",
      "outputs": [],
      "stateMutability": "nonpayable",
      "type": "function"
    },
    {
      "inputs": [
        {
          "internalType": "address",
          "name": "user",
          "type": "address"
        },
        {
          "internalType": "uint256",
          "name": "amount",
          "type": "uint256"
        }
      ],
      "name": "vestFor",
      "outputs": [],
      "stateMutability": "nonpayable",
      "type": "function"
    }
  ],
  "bytecode": "0x60a06040523480156200001157600080fd5b50604051620015593803806200155983398101604081905262000034916200051c565b6200003f33620002e0565b6001600160a01b0383161580159062000059575080518251145b620000c05760405162461bcd60e51b815260206004820152602c60248201527f4c696e65617256657374696e673a3a636f6e7374727563746f723a204d69736360448201526b37b73334b3bab930ba34b7b760a11b60648201526084015b60405180910390fd5b6001600160a01b0383166080526000805b83518110156200024857828181518110620000f057620000f062000604565b60200260200101516001600160c01b031660001415620001795760405162461bcd60e51b815260206004820152603660248201527f4c696e65617256657374696e673a3a636f6e7374727563746f723a20496e636f60448201527f727265637420416d6f756e7420537065636966696564000000000000000000006064820152608401620000b7565b8281815181106200018e576200018e62000604565b602002602001015160036000868481518110620001af57620001af62000604565b60200260200101516001600160a01b03166001600160a01b0316815260200190815260200160002060000160006101000a8154816001600160c01b0302191690836001600160c01b0316021790555082818151811062000213576200021362000604565b60200260200101516001600160c01b03168262000231919062000630565b9150806200023f816200064b565b915050620000d1565b506acecb8f27f4200f3a0000008114620002cb5760405162461bcd60e51b815260206004820152603a60248201527f4c696e65617256657374696e673a3a636f6e7374727563746f723a20496e766160448201527f6c6964205665737420416d6f756e7473205370656369666965640000000000006064820152608401620000b7565b620002d68462000330565b5050505062000669565b600080546001600160a01b038381166001600160a01b0319831681178455604051919092169283917f8be0079c531659141344cd1fd0a4f28419497f9722a3daafe3b4186f6b6457e09190a35050565b6200033a620003af565b6001600160a01b038116620003a15760405162461bcd60e51b815260206004820152602660248201527f4f776e61626c653a206e6577206f776e657220697320746865207a65726f206160448201526564647265737360d01b6064820152608401620000b7565b620003ac81620002e0565b50565b6000546001600160a01b031633146200040b5760405162461bcd60e51b815260206004820181905260248201527f4f776e61626c653a2063616c6c6572206973206e6f7420746865206f776e65726044820152606401620000b7565b565b6001600160a01b0381168114620003ac57600080fd5b634e487b7160e01b600052604160045260246000fd5b604051601f8201601f191681016001600160401b038111828210171562000464576200046462000423565b604052919050565b60006001600160401b0382111562000488576200048862000423565b5060051b60200190565b600082601f830112620004a457600080fd5b81516020620004bd620004b7836200046c565b62000439565b82815260059290921b84018101918181019086841115620004dd57600080fd5b8286015b84811015620005115780516001600160c01b0381168114620005035760008081fd5b8352918301918301620004e1565b509695505050505050565b6000806000606084860312156200053257600080fd5b83516200053f816200040d565b602085810151919450906001600160401b03808211156200055f57600080fd5b818701915087601f8301126200057457600080fd5b815162000585620004b7826200046c565b81815260059190911b8301840190848101908a831115620005a557600080fd5b938501935b82851015620005d0578451620005c0816200040d565b82529385019390850190620005aa565b60408a01519097509450505080831115620005ea57600080fd5b5050620005fa8682870162000492565b9150509250925092565b634e487b7160e01b600052603260045260246000fd5b634e487b7160e01b600052601160045260246000fd5b600082198211156200064657620006466200061a565b500190565b60006000198214156200066257620006626200061a565b5060010190565b608051610ec7620006926000396000818160e301528181610472015261079b0152610ec76000f3fe608060405234801561001057600080fd5b50600436106100b45760003560e01c80638da5cb5b116100715780638da5cb5b1461013557806394e3516914610146578063be9a655514610159578063efbe1c1c14610162578063f2fde38b1461016b578063f3c5f51e1461017e57600080fd5b806301e8ef2a146100b95780631bce6ff3146100d45780631f494b64146100de5780634e71d92d1461011d578063715018a614610125578063844a8c691461012d575b600080fd5b6100c1610218565b6040519081526020015b60405180910390f35b6100dc61049d565b005b6101057f000000000000000000000000000000000000000000000000000000000000000081565b6040516001600160a01b0390911681526020016100cb565b6100c1610513565b6100dc6105c4565b6100c16105d6565b6000546001600160a01b0316610105565b6100dc610154366004610cae565b610658565b6100c160015481565b6100c160025481565b6100dc610179366004610cd8565b6107c7565b6101d661018c366004610cd8565b600360205260009081526040902080546001909101546001600160c01b03821691600160c01b900467ffffffffffffffff16906001600160801b0380821691600160801b90041684565b604080516001600160c01b03909516855267ffffffffffffffff90931660208501526001600160801b03918216928401929092521660608201526080016100cb565b336000908152600360209081526040808320815160808101835281546001600160c01b0381168252600160c01b900467ffffffffffffffff1693810193909352600101546001600160801b03808216928401839052600160801b9091041660608301526102a05760405162461bcd60e51b815260040161029790610cfa565b60405180910390fd5b4281604001516001600160801b03161061030a5760405162461bcd60e51b815260206004820152602560248201527f4c696e65617256657374696e673a3a636c61696d3a204e6f7420537461727465604482015264190816595d60da1b6064820152608401610297565b61034b81600001516001600160c01b0316826020015167ffffffffffffffff1683604001516001600160801b031684606001516001600160801b0316610840565b9150816103a95760405162461bcd60e51b815260206004820152602660248201527f4c696e65617256657374696e673a3a636c61696d3a204e6f7468696e6720746f60448201526520636c61696d60d01b6064820152608401610297565b81816000018181516103bb9190610d5c565b6001600160c01b0390811690915267ffffffffffffffff4281166020808601918252336000818152600390925260409182902087519351909416600160c01b02929094169190911782558085015160608601516001600160801b03908116600160801b02911617600190920191909155519091507ed5958799b183a7b738d3ad5e711305293dd5076a37a4e3b7e6611dea6114f39061045d9085815260200190565b60405180910390a26104996001600160a01b037f000000000000000000000000000000000000000000000000000000000000000016338461088c565b5090565b6104a56108f4565b426001556104b86301e133806002610d84565b6104c29042610da3565b60029081557f5e1fc654b1f2de8a2a47d73f2ba9a16b9d8973961ed1492c9a74699e2e0e70bd906104f8906301e1338090610d84565b60405190815260200160405180910390a16105116105c4565b565b600061051d61094e565b33600090815260036020908152604091829020825160808101845281546001600160c01b0381168252600160c01b900467ffffffffffffffff1692810192909252600101546001600160801b03808216938301849052600160801b909104166060820152901561059f5760405162461bcd60e51b815260040161029790610cfa565b61034b81600001516001600160c01b0316826020015167ffffffffffffffff166109bc565b6105cc6108f4565b6105116000610a0f565b60006105e061094e565b33600090815260036020908152604091829020825160808101845281546001600160c01b038116808352600160c01b90910467ffffffffffffffff169382018490526001909201546001600160801b0380821695830195909552600160801b90049093166060840152610652916109bc565b91505090565b6001600160a01b0382166000908152600360205260409020546001600160c01b0316156106d95760405162461bcd60e51b815260206004820152602960248201527f4c696e65617256657374696e673a3a73656c66566573743a20416c72656164796044820152681030903b32b9ba32b960b91b6064820152608401610297565b6040518060800160405280826001600160c01b03168152602001600067ffffffffffffffff168152602001426001600160801b03168152602001426301e133806107239190610da3565b6001600160801b039081169091526001600160a01b0380851660009081526003602090815260409182902085519186015167ffffffffffffffff16600160c01b026001600160c01b03909216919091178155908401516060909401518316600160801b0293909216929092176001909101556107c3907f000000000000000000000000000000000000000000000000000000000000000016333084610a5f565b5050565b6107cf6108f4565b6001600160a01b0381166108345760405162461bcd60e51b815260206004820152602660248201527f4f776e61626c653a206e6577206f776e657220697320746865207a65726f206160448201526564647265737360d01b6064820152608401610297565b61083d81610a0f565b50565b6000814210610850575083610884565b83610859578293505b6108638483610dbb565b61086d8542610dbb565b6108779087610d84565b6108819190610dd2565b90505b949350505050565b6040516001600160a01b0383166024820152604481018290526108ef90849063a9059cbb60e01b906064015b60408051601f198184030181529190526020810180516001600160e01b03166001600160e01b031990931692909217909152610a9d565b505050565b6000546001600160a01b031633146105115760405162461bcd60e51b815260206004820181905260248201527f4f776e61626c653a2063616c6c6572206973206e6f7420746865206f776e65726044820152606401610297565b6001546105115760405162461bcd60e51b815260206004820152603660248201527f4c696e65617256657374696e673a3a5f686173537461727465643a20566573746044820152751a5b99c81a185cdb89dd081cdd185c9d1959081e595d60521b6064820152608401610297565b6002546000904281116109d25783915050610a09565b826109dd5760015492505b6109e78382610dbb565b6109f18442610dbb565b6109fb9086610d84565b610a059190610dd2565b9150505b92915050565b600080546001600160a01b038381166001600160a01b0319831681178455604051919092169283917f8be0079c531659141344cd1fd0a4f28419497f9722a3daafe3b4186f6b6457e09190a35050565b6040516001600160a01b0380851660248301528316604482015260648101829052610a979085906323b872dd60e01b906084016108b8565b50505050565b6000610af2826040518060400160405280602081526020017f5361666545524332303a206c6f772d6c6576656c2063616c6c206661696c6564815250856001600160a01b0316610b729092919063ffffffff16565b9050805160001480610b13575080806020019051810190610b139190610df4565b6108ef5760405162461bcd60e51b815260206004820152602a60248201527f5361666545524332303a204552433230206f7065726174696f6e20646964206e6044820152691bdd081cdd58d8d9595960b21b6064820152608401610297565b6060610884848460008585600080866001600160a01b03168587604051610b999190610e42565b60006040518083038185875af1925050503d8060008114610bd6576040519150601f19603f3d011682016040523d82523d6000602084013e610bdb565b606091505b5091509150610bec87838387610bf7565b979650505050505050565b60608315610c63578251610c5c576001600160a01b0385163b610c5c5760405162461bcd60e51b815260206004820152601d60248201527f416464726573733a2063616c6c20746f206e6f6e2d636f6e74726163740000006044820152606401610297565b5081610884565b6108848383815115610c785781518083602001fd5b8060405162461bcd60e51b81526004016102979190610e5e565b80356001600160a01b0381168114610ca957600080fd5b919050565b60008060408385031215610cc157600080fd5b610cca83610c92565b946020939093013593505050565b600060208284031215610cea57600080fd5b610cf382610c92565b9392505050565b6020808252602c908201527f4c696e65617256657374696e673a3a636c61696d3a20496e636f72726563742060408201526b56657374696e67205479706560a01b606082015260800190565b634e487b7160e01b600052601160045260246000fd5b60006001600160c01b0383811690831681811015610d7c57610d7c610d46565b039392505050565b6000816000190483118215151615610d9e57610d9e610d46565b500290565b60008219821115610db657610db6610d46565b500190565b600082821015610dcd57610dcd610d46565b500390565b600082610def57634e487b7160e01b600052601260045260246000fd5b500490565b600060208284031215610e0657600080fd5b81518015158114610cf357600080fd5b60005b83811015610e31578181015183820152602001610e19565b83811115610a975750506000910152565b60008251610e54818460208701610e16565b9190910192915050565b6020815260008251806020840152610e7d816040850160208701610e16565b601f01601f1916919091016040019291505056fea264697066735822122003bc6c73b8aff80e2f1e480f27a5aebc3bae2c1adc1c49476d23e4c3150e155f64736f6c63430008090033",
  "immutableReferences": {
    "23024": [
      {
        "length": 32,
        "start": 227
      },
      {
        "length": 32,
        "start": 1138
      },
      {
        "length": 32,
        "start": 1947
      }
    ]
  },
  "source": "// SPDX-License-Identifier: Unlicense\r\n\r\npragma solidity =0.8.9;\r\n\r\nimport \"@openzeppelin/contracts/access/Ownable.sol\";\r\n\r\nimport \"@openzeppelin/contracts/token/ERC20/utils/SafeERC20.sol\";\r\n\r\nimport \"@openzeppelin/contracts/token/ERC20/IERC20.sol\";\r\n\r\nimport \"../../shared/ProtocolConstants.sol\";\r\n\r\nimport \"../../interfaces/tokens/vesting/ILinearVesting.sol\";\r\n\r\n/**\r\n * @dev Implementation of the {ILinearVesting} interface.\r\n *\r\n * The straightforward vesting contract that gradually releases a\r\n * fixed supply of tokens to multiple vest parties over a 2 year\r\n * window.\r\n *\r\n * The token expects the {begin} hook to be invoked the moment\r\n * it is supplied with the necessary amount of tokens to vest,\r\n * which should be equivalent to the time the {setComponents}\r\n * function is invoked on the Vader token.\r\n */\r\ncontract LinearVesting is ILinearVesting, ProtocolConstants, Ownable {\r\n    /* ========== LIBRARIES ========== */\r\n\r\n    // Used for safe VADER transfers\r\n    using SafeERC20 for IERC20;\r\n\r\n    /* ========== STATE VARIABLES ========== */\r\n\r\n    // The Vader token\r\n    IERC20 public immutable vader;\r\n\r\n    // The start of the vesting period\r\n    uint256 public start;\r\n\r\n    // The end of the vesting period\r\n    uint256 public end;\r\n\r\n    // The status of each vesting member (Vester)\r\n    mapping(address => Vester) public vest;\r\n\r\n    /* ========== CONSTRUCTOR ========== */\r\n\r\n    /**\r\n     * @dev Initializes the contract's vesters and vesting amounts as well as sets\r\n     * the Vader token address.\r\n     *\r\n     * It conducts a sanity check to ensure that the total vesting amounts specified match\r\n     * the team allocation to ensure that the contract is deployed correctly.\r\n     *\r\n     * Additionally, it transfers ownership to the Vader contract that needs to consequently\r\n     * initiate the vesting period via {begin} after it mints the necessary amount to the contract.\r\n     */\r\n    constructor(\r\n        IERC20 _vader,\r\n        address[] memory vesters,\r\n        uint192[] memory amounts\r\n    ) {\r\n        require(\r\n            _vader != IERC20(_ZERO_ADDRESS) && vesters.length == amounts.length,\r\n            \"LinearVesting::constructor: Misconfiguration\"\r\n        );\r\n\r\n        vader = _vader;\r\n\r\n        uint256 total;\r\n        for (uint256 i = 0; i < vesters.length; i++) {\r\n            require(\r\n                amounts[i] != 0,\r\n                \"LinearVesting::constructor: Incorrect Amount Specified\"\r\n            );\r\n            vest[vesters[i]].amount = amounts[i];\r\n            total = total + amounts[i];\r\n        }\r\n        require(\r\n            total == _TEAM_ALLOCATION,\r\n            \"LinearVesting::constructor: Invalid Vest Amounts Specified\"\r\n        );\r\n\r\n        transferOwnership(address(_vader));\r\n    }\r\n\r\n    /* ========== VIEWS ========== */\r\n\r\n    /**\r\n     * @dev Returns the amount a user can claim at a given point in time.\r\n     *\r\n     * Requirements:\r\n     * - the vesting period has started\r\n     */\r\n    function getClaim()\r\n        external\r\n        view\r\n        override\r\n        hasStarted\r\n        returns (uint256 vestedAmount)\r\n    {\r\n        Vester memory vester = vest[msg.sender];\r\n        return _getClaim(vester.amount, vester.lastClaim);\r\n    }\r\n\r\n    /* ========== MUTATIVE FUNCTIONS ========== */\r\n\r\n    /**\r\n     * @dev Allows a user to claim their pending vesting amount.\r\n     *\r\n     * Emits a {Vested} event indicating the user who claimed their vested tokens\r\n     * as well as the amount that was vested.\r\n     *\r\n     * Requirements:\r\n     *\r\n     * - the vesting period has started\r\n     * - the caller must have a non-zero vested amount\r\n     */\r\n    function claim()\r\n        external\r\n        override\r\n        hasStarted\r\n        returns (uint256 vestedAmount)\r\n    {\r\n        Vester memory vester = vest[msg.sender];\r\n\r\n        require(\r\n            vester.start == 0,\r\n            \"LinearVesting::claim: Incorrect Vesting Type\"\r\n        );\r\n\r\n        vestedAmount = _getClaim(vester.amount, vester.lastClaim);\r\n\r\n        require(vestedAmount != 0, \"LinearVesting::claim: Nothing to claim\");\r\n\r\n        vester.amount -= uint192(vestedAmount);\r\n        vester.lastClaim = uint64(block.timestamp);\r\n\r\n        vest[msg.sender] = vester;\r\n\r\n        emit Vested(msg.sender, vestedAmount);\r\n\r\n        vader.safeTransfer(msg.sender, vestedAmount);\r\n    }\r\n\r\n    /**\r\n     * @dev Allows a user to claim their pending vesting amount of the vested claim\r\n     *\r\n     * Emits a {Vested} event indicating the user who claimed their vested tokens\r\n     * as well as the amount that was vested.\r\n     *\r\n     * Requirements:\r\n     *\r\n     * - the vesting period has started\r\n     * - the caller must have a non-zero vested amount\r\n     */\r\n    function claimConverted() external override returns (uint256 vestedAmount) {\r\n        Vester memory vester = vest[msg.sender];\r\n\r\n        require(\r\n            vester.start != 0,\r\n            \"LinearVesting::claim: Incorrect Vesting Type\"\r\n        );\r\n\r\n        require(\r\n            vester.start < block.timestamp,\r\n            \"LinearVesting::claim: Not Started Yet\"\r\n        );\r\n\r\n        vestedAmount = _getClaim(\r\n            vester.amount,\r\n            vester.lastClaim,\r\n            vester.start,\r\n            vester.end\r\n        );\r\n\r\n        require(vestedAmount != 0, \"LinearVesting::claim: Nothing to claim\");\r\n\r\n        vester.amount -= uint192(vestedAmount);\r\n        vester.lastClaim = uint64(block.timestamp);\r\n\r\n        vest[msg.sender] = vester;\r\n\r\n        emit Vested(msg.sender, vestedAmount);\r\n\r\n        vader.safeTransfer(msg.sender, vestedAmount);\r\n    }\r\n\r\n    /* ========== RESTRICTED FUNCTIONS ========== */\r\n\r\n    /**\r\n     * @dev Allows the vesting period to be initiated.\r\n     *\r\n     * Emits a {VestingInitialized} event from which the start and\r\n     * end can be calculated via it's attached timestamp.\r\n     *\r\n     * Requirements:\r\n     *\r\n     * - the caller must be the owner (vader token)\r\n     */\r\n    function begin() external override onlyOwner {\r\n        start = block.timestamp;\r\n        end = block.timestamp + _VESTING_DURATION;\r\n\r\n        emit VestingInitialized(_VESTING_DURATION);\r\n\r\n        renounceOwnership();\r\n    }\r\n\r\n    /**\r\n     * @dev Adds a new vesting schedule to the contract\r\n     */\r\n    function vestFor(address user, uint256 amount) external override {\r\n        require(\r\n            vest[user].amount == 0,\r\n            \"LinearVesting::selfVest: Already a vester\"\r\n        );\r\n        vest[user] = Vester(\r\n            uint192(amount),\r\n            0,\r\n            uint128(block.timestamp),\r\n            uint128(block.timestamp + 365 days)\r\n        );\r\n        vader.safeTransferFrom(msg.sender, address(this), amount);\r\n    }\r\n\r\n    /* ========== PRIVATE FUNCTIONS ========== */\r\n\r\n    /**\r\n     * @dev Calculates the amount a user's vest is due. To calculate,\r\n     * the following formula is utilized:\r\n     *\r\n     * - (remainingAmount * timeElapsed) / timeUntilEnd\r\n     *\r\n     * Each variable is described as follows:\r\n     *\r\n     * - remainingAmount (amount): Vesting amount remaining. Each claim subtracts from\r\n     * this amount to ensure calculations are properly conducted.\r\n     *\r\n     * - timeElapsed (block.timestamp.sub(lastClaim)): Time that has elapsed since the\r\n     * last claim.\r\n     *\r\n     * - timeUntilEnd (end.sub(lastClaim)): Time remaining for the particular vesting\r\n     * member's total duration.\r\n     *\r\n     * Vesting calculations are relative and always update the last\r\n     * claim timestamp as well as remaining amount whenever they\r\n     * are claimed.\r\n     */\r\n    function _getClaim(uint256 amount, uint256 lastClaim)\r\n        private\r\n        view\r\n        returns (uint256)\r\n    {\r\n        uint256 _end = end;\r\n\r\n        if (block.timestamp >= _end) return amount;\r\n        if (lastClaim == 0) lastClaim = start;\r\n\r\n        return (amount * (block.timestamp - lastClaim)) / (_end - lastClaim);\r\n    }\r\n\r\n    /**\r\n     * @dev Calculates the amount a user's vest is due. To calculate,\r\n     * the following formula is utilized:\r\n     *\r\n     * - (remainingAmount * timeElapsed) / timeUntilEnd\r\n     *\r\n     * Each variable is described as follows:\r\n     *\r\n     * - remainingAmount (amount): Vesting amount remaining. Each claim subtracts from\r\n     * this amount to ensure calculations are properly conducted.\r\n     *\r\n     * - timeElapsed (block.timestamp.sub(lastClaim)): Time that has elapsed since the\r\n     * last claim.\r\n     *\r\n     * - timeUntilEnd (end.sub(lastClaim)): Time remaining for the particular vesting\r\n     * member's total duration.\r\n     *\r\n     * Vesting calculations are relative and always update the last\r\n     * claim timestamp as well as remaining amount whenever they\r\n     * are claimed.\r\n     */\r\n    function _getClaim(\r\n        uint256 amount,\r\n        uint256 lastClaim,\r\n        uint256 _start,\r\n        uint256 _end\r\n    ) private view returns (uint256) {\r\n        if (block.timestamp >= _end) return amount;\r\n        if (lastClaim == 0) lastClaim = _start;\r\n\r\n        return (amount * (block.timestamp - lastClaim)) / (_end - lastClaim);\r\n    }\r\n\r\n    /**\r\n     * @dev Validates that the vesting period has started\r\n     */\r\n    function _hasStarted() private view {\r\n        require(\r\n            start != 0,\r\n            \"LinearVesting::_hasStarted: Vesting hasn't started yet\"\r\n        );\r\n    }\r\n\r\n    /* ========== MODIFIERS ========== */\r\n\r\n    /**\r\n     * @dev Throws if the vesting period hasn't started\r\n     */\r\n    modifier hasStarted() {\r\n        _hasStarted();\r\n        _;\r\n    }\r\n}\r\n",
  "sourcePath": "/home/mingyue/sub_contract_content/Web3Bugs/contracts/52/contracts/tokens/vesting/LinearVesting.sol",
  "compiler": {
    "name": "solc",
    "version": "0.8.9+commit.e5eed63a.Emscripten.clang"
  },
  "schemaVersion": "3.4.16",
  "updatedAt": "2025-03-06T07:23:55.097Z",
  "devdoc": {
    "details": "Implementation of the {ILinearVesting} interface. The straightforward vesting contract that gradually releases a fixed supply of tokens to multiple vest parties over a 2 year window. The token expects the {begin} hook to be invoked the moment it is supplied with the necessary amount of tokens to vest, which should be equivalent to the time the {setComponents} function is invoked on the Vader token.",
    "kind": "dev",
    "methods": {
      "begin()": {
        "details": "Allows the vesting period to be initiated. Emits a {VestingInitialized} event from which the start and end can be calculated via it's attached timestamp. Requirements: - the caller must be the owner (vader token)"
      },
      "claim()": {
        "details": "Allows a user to claim their pending vesting amount. Emits a {Vested} event indicating the user who claimed their vested tokens as well as the amount that was vested. Requirements: - the vesting period has started - the caller must have a non-zero vested amount"
      },
      "claimConverted()": {
        "details": "Allows a user to claim their pending vesting amount of the vested claim Emits a {Vested} event indicating the user who claimed their vested tokens as well as the amount that was vested. Requirements: - the vesting period has started - the caller must have a non-zero vested amount"
      },
      "constructor": {
        "details": "Initializes the contract's vesters and vesting amounts as well as sets the Vader token address. It conducts a sanity check to ensure that the total vesting amounts specified match the team allocation to ensure that the contract is deployed correctly. Additionally, it transfers ownership to the Vader contract that needs to consequently initiate the vesting period via {begin} after it mints the necessary amount to the contract."
      },
      "getClaim()": {
        "details": "Returns the amount a user can claim at a given point in time. Requirements: - the vesting period has started"
      },
      "owner()": {
        "details": "Returns the address of the current owner."
      },
      "renounceOwnership()": {
        "details": "Leaves the contract without owner. It will not be possible to call `onlyOwner` functions. Can only be called by the current owner. NOTE: Renouncing ownership will leave the contract without an owner, thereby disabling any functionality that is only available to the owner."
      },
      "transferOwnership(address)": {
        "details": "Transfers ownership of the contract to a new account (`newOwner`). Can only be called by the current owner."
      },
      "vestFor(address,uint256)": {
        "details": "Adds a new vesting schedule to the contract"
      }
    },
    "version": 1
  },
  "userdoc": {
    "kind": "user",
    "methods": {},
    "version": 1
  }
}