{
  "contractName": "LPToken",
  "abi": [
    {
      "inputs": [
        {
          "internalType": "contract IERC20Extended",
          "name": "_foreignAsset",
          "type": "address"
        },
        {
          "internalType": "contract IVaderPoolV2",
          "name": "_pool",
          "type": "address"
        }
      ],
      "stateMutability": "nonpayable",
      "type": "constructor"
    },
    {
      "anonymous": false,
      "inputs": [
        {
          "indexed": true,
          "internalType": "address",
          "name": "owner",
          "type": "address"
        },
        {
          "indexed": true,
          "internalType": "address",
          "name": "spender",
          "type": "address"
        },
        {
          "indexed": false,
          "internalType": "uint256",
          "name": "value",
          "type": "uint256"
        }
      ],
      "name": "Approval",
      "type": "event"
    },
    {
      "anonymous": false,
      "inputs": [
        {
          "indexed": true,
          "internalType": "address",
          "name": "previousOwner",
          "type": "address"
        },
        {
          "indexed": true,
          "internalType": "address",
          "name": "newOwner",
          "type": "address"
        }
      ],
      "name": "OwnershipTransferred",
      "type": "event"
    },
    {
      "anonymous": false,
      "inputs": [
        {
          "indexed": true,
          "internalType": "address",
          "name": "from",
          "type": "address"
        },
        {
          "indexed": true,
          "internalType": "address",
          "name": "to",
          "type": "address"
        },
        {
          "indexed": false,
          "internalType": "uint256",
          "name": "value",
          "type": "uint256"
        }
      ],
      "name": "Transfer",
      "type": "event"
    },
    {
      "inputs": [
        {
          "internalType": "address",
          "name": "owner",
          "type": "address"
        },
        {
          "internalType": "address",
          "name": "spender",
          "type": "address"
        }
      ],
      "name": "allowance",
      "outputs": [
        {
          "internalType": "uint256",
          "name": "",
          "type": "uint256"
        }
      ],
      "stateMutability": "view",
      "type": "function"
    },
    {
      "inputs": [
        {
          "internalType": "address",
          "name": "spender",
          "type": "address"
        },
        {
          "internalType": "uint256",
          "name": "amount",
          "type": "uint256"
        }
      ],
      "name": "approve",
      "outputs": [
        {
          "internalType": "bool",
          "name": "",
          "type": "bool"
        }
      ],
      "stateMutability": "nonpayable",
      "type": "function"
    },
    {
      "inputs": [],
      "name": "decimals",
      "outputs": [
        {
          "internalType": "uint8",
          "name": "",
          "type": "uint8"
        }
      ],
      "stateMutability": "view",
      "type": "function"
    },
    {
      "inputs": [
        {
          "internalType": "address",
          "name": "spender",
          "type": "address"
        },
        {
          "internalType": "uint256",
          "name": "subtractedValue",
          "type": "uint256"
        }
      ],
      "name": "decreaseAllowance",
      "outputs": [
        {
          "internalType": "bool",
          "name": "",
          "type": "bool"
        }
      ],
      "stateMutability": "nonpayable",
      "type": "function"
    },
    {
      "inputs": [],
      "name": "foreignAsset",
      "outputs": [
        {
          "internalType": "contract IERC20Extended",
          "name": "",
          "type": "address"
        }
      ],
      "stateMutability": "view",
      "type": "function"
    },
    {
      "inputs": [
        {
          "internalType": "address",
          "name": "spender",
          "type": "address"
        },
        {
          "internalType": "uint256",
          "name": "addedValue",
          "type": "uint256"
        }
      ],
      "name": "increaseAllowance",
      "outputs": [
        {
          "internalType": "bool",
          "name": "",
          "type": "bool"
        }
      ],
      "stateMutability": "nonpayable",
      "type": "function"
    },
    {
      "inputs": [],
      "name": "name",
      "outputs": [
        {
          "internalType": "string",
          "name": "",
          "type": "string"
        }
      ],
      "stateMutability": "view",
      "type": "function"
    },
    {
      "inputs": [],
      "name": "owner",
      "outputs": [
        {
          "internalType": "address",
          "name": "",
          "type": "address"
        }
      ],
      "stateMutability": "view",
      "type": "function"
    },
    {
      "inputs": [],
      "name": "pool",
      "outputs": [
        {
          "internalType": "contract IVaderPoolV2",
          "name": "",
          "type": "address"
        }
      ],
      "stateMutability": "view",
      "type": "function"
    },
    {
      "inputs": [],
      "name": "renounceOwnership",
      "outputs": [],
      "stateMutability": "nonpayable",
      "type": "function"
    },
    {
      "inputs": [],
      "name": "symbol",
      "outputs": [
        {
          "internalType": "string",
          "name": "",
          "type": "string"
        }
      ],
      "stateMutability": "view",
      "type": "function"
    },
    {
      "inputs": [
        {
          "internalType": "address",
          "name": "to",
          "type": "address"
        },
        {
          "internalType": "uint256",
          "name": "amount",
          "type": "uint256"
        }
      ],
      "name": "transfer",
      "outputs": [
        {
          "internalType": "bool",
          "name": "",
          "type": "bool"
        }
      ],
      "stateMutability": "nonpayable",
      "type": "function"
    },
    {
      "inputs": [
        {
          "internalType": "address",
          "name": "from",
          "type": "address"
        },
        {
          "internalType": "address",
          "name": "to",
          "type": "address"
        },
        {
          "internalType": "uint256",
          "name": "amount",
          "type": "uint256"
        }
      ],
      "name": "transferFrom",
      "outputs": [
        {
          "internalType": "bool",
          "name": "",
          "type": "bool"
        }
      ],
      "stateMutability": "nonpayable",
      "type": "function"
    },
    {
      "inputs": [
        {
          "internalType": "address",
          "name": "newOwner",
          "type": "address"
        }
      ],
      "name": "transferOwnership",
      "outputs": [],
      "stateMutability": "nonpayable",
      "type": "function"
    },
    {
      "inputs": [],
      "name": "totalSupply",
      "outputs": [
        {
          "internalType": "uint256",
          "name": "",
          "type": "uint256"
        }
      ],
      "stateMutability": "view",
      "type": "function"
    },
    {
      "inputs": [
        {
          "internalType": "address",
          "name": "user",
          "type": "address"
        }
      ],
      "name": "balanceOf",
      "outputs": [
        {
          "internalType": "uint256",
          "name": "",
          "type": "uint256"
        }
      ],
      "stateMutability": "view",
      "type": "function"
    },
    {
      "inputs": [
        {
          "internalType": "address",
          "name": "to",
          "type": "address"
        },
        {
          "internalType": "uint256",
          "name": "amount",
          "type": "uint256"
        }
      ],
      "name": "mint",
      "outputs": [],
      "stateMutability": "nonpayable",
      "type": "function"
    },
    {
      "inputs": [
        {
          "internalType": "uint256",
          "name": "amount",
          "type": "uint256"
        }
      ],
      "name": "burn",
      "outputs": [],
      "stateMutability": "nonpayable",
      "type": "function"
    }
  ],
  "bytecode": "0x60c06040523480156200001157600080fd5b50604051620014b7380380620014b7833981016040819052620000349162000470565b6200003f82620000b8565b6200004a8362000164565b81516200005f906003906020850190620003b4565b50805162000075906004906020840190620003b4565b505050620000926200008c6200022160201b60201c565b62000225565b6001600160a01b03808316608052811660a052620000b08162000277565b505062000636565b60606200015e826001600160a01b03166306fdde036040518163ffffffff1660e01b815260040160006040518083038186803b158015620000f857600080fd5b505afa1580156200010d573d6000803e3d6000fd5b505050506040513d6000823e601f3d908101601f19168201604052620001379190810190620004f8565b60408051808201909152600a8152690202d2055534456204c560b41b6020820152620002fa565b92915050565b60606200015e604051806040016040528060028152602001610ac560f31b815250836001600160a01b03166395d89b416040518163ffffffff1660e01b815260040160006040518083038186803b158015620001bf57600080fd5b505afa158015620001d4573d6000803e3d6000fd5b505050506040513d6000823e601f3d908101601f19168201604052620001fe9190810190620004f8565b6040805180820190915260068152657c555344562960d01b602082015262000325565b3390565b600580546001600160a01b038381166001600160a01b0319831681179093556040519116919082907f8be0079c531659141344cd1fd0a4f28419497f9722a3daafe3b4186f6b6457e090600090a35050565b6200028162000356565b6001600160a01b038116620002ec5760405162461bcd60e51b815260206004820152602660248201527f4f776e61626c653a206e6577206f776e657220697320746865207a65726f206160448201526564647265737360d01b60648201526084015b60405180910390fd5b620002f78162000225565b50565b60606200031e8383604051806020016040528060008152506200032560201b60201c565b9392505050565b60608383836040516020016200033e93929190620005b0565b60405160208183030381529060405290509392505050565b6005546001600160a01b03163314620003b25760405162461bcd60e51b815260206004820181905260248201527f4f776e61626c653a2063616c6c6572206973206e6f7420746865206f776e65726044820152606401620002e3565b565b828054620003c290620005f9565b90600052602060002090601f016020900481019282620003e6576000855562000431565b82601f106200040157805160ff191683800117855562000431565b8280016001018555821562000431579182015b828111156200043157825182559160200191906001019062000414565b506200043f92915062000443565b5090565b5b808211156200043f576000815560010162000444565b6001600160a01b0381168114620002f757600080fd5b600080604083850312156200048457600080fd5b825162000491816200045a565b6020840151909250620004a4816200045a565b809150509250929050565b634e487b7160e01b600052604160045260246000fd5b60005b83811015620004e2578181015183820152602001620004c8565b83811115620004f2576000848401525b50505050565b6000602082840312156200050b57600080fd5b81516001600160401b03808211156200052357600080fd5b818401915084601f8301126200053857600080fd5b8151818111156200054d576200054d620004af565b604051601f8201601f19908116603f01168101908382118183101715620005785762000578620004af565b816040528281528760208487010111156200059257600080fd5b620005a5836020830160208801620004c5565b979650505050505050565b60008451620005c4818460208901620004c5565b845190830190620005da818360208901620004c5565b8451910190620005ef818360208801620004c5565b0195945050505050565b600181811c908216806200060e57607f821691505b602082108114156200063057634e487b7160e01b600052602260045260246000fd5b50919050565b60805160a051610e466200067160003960008181610161015281816103a1015261049701526000818161024701526103760152610e466000f3fe608060405234801561001057600080fd5b50600436106101165760003560e01c806370a08231116100a2578063a3462b1411610071578063a3462b1414610242578063a457c2d714610269578063a9059cbb1461027c578063dd62ed3e1461028f578063f2fde38b146102a257600080fd5b806370a082311461020e578063715018a6146102215780638da5cb5b1461022957806395d89b411461023a57600080fd5b806323b872dd116100e957806323b872dd146101b1578063313ce567146101c457806339509351146101d357806340c10f19146101e657806342966c68146101fb57600080fd5b806306fdde031461011b578063095ea7b31461013957806316f0115b1461015c57806318160ddd1461019b575b600080fd5b6101236102b5565b6040516101309190610c37565b60405180910390f35b61014c610147366004610ca3565b610347565b6040519015158152602001610130565b6101837f000000000000000000000000000000000000000000000000000000000000000081565b6040516001600160a01b039091168152602001610130565b6101a361035f565b604051908152602001610130565b61014c6101bf366004610ccd565b610422565b60405160128152602001610130565b61014c6101e1366004610ca3565b610446565b6101f96101f4366004610ca3565b610468565b005b6101f9610209366004610d09565b61047e565b6101a361021c366004610d22565b610493565b6101f961050d565b6005546001600160a01b0316610183565b610123610521565b6101837f000000000000000000000000000000000000000000000000000000000000000081565b61014c610277366004610ca3565b610530565b61014c61028a366004610ca3565b6105b0565b6101a361029d366004610d44565b6105be565b6101f96102b0366004610d22565b6105e9565b6060600380546102c490610d77565b80601f01602080910402602001604051908101604052809291908181526020018280546102f090610d77565b801561033d5780601f106103125761010080835404028352916020019161033d565b820191906000526020600020905b81548152906001019060200180831161032057829003601f168201915b5050505050905090565b60003361035581858561065f565b5060019392505050565b6040516305c35d0f60e51b81526001600160a01b037f0000000000000000000000000000000000000000000000000000000000000000811660048301526000917f00000000000000000000000000000000000000000000000000000000000000009091169063b86ba1e09060240160206040518083038186803b1580156103e557600080fd5b505afa1580156103f9573d6000803e3d6000fd5b505050506040513d601f19601f8201168201806040525081019061041d9190610db2565b905090565b600033610430858285610784565b61043b8585856107fe565b506001949350505050565b60003361035581858561045983836105be565b6104639190610de1565b61065f565b6104706109a2565b61047a82826109fc565b5050565b6104866109a2565b6104903382610abb565b50565b60007f00000000000000000000000000000000000000000000000000000000000000006001600160a01b0316826001600160a01b031614156104ea576002546104da61035f565b6104e49190610df9565b92915050565b6001600160a01b0382166000908152602081905260409020546104e4565b919050565b6105156109a2565b61051f6000610be5565b565b6060600480546102c490610d77565b6000338161053e82866105be565b9050838110156105a35760405162461bcd60e51b815260206004820152602560248201527f45524332303a2064656372656173656420616c6c6f77616e63652062656c6f77604482015264207a65726f60d81b60648201526084015b60405180910390fd5b61043b828686840361065f565b6000336103558185856107fe565b6001600160a01b03918216600090815260016020908152604080832093909416825291909152205490565b6105f16109a2565b6001600160a01b0381166106565760405162461bcd60e51b815260206004820152602660248201527f4f776e61626c653a206e6577206f776e657220697320746865207a65726f206160448201526564647265737360d01b606482015260840161059a565b61049081610be5565b6001600160a01b0383166106c15760405162461bcd60e51b8152602060048201526024808201527f45524332303a20617070726f76652066726f6d20746865207a65726f206164646044820152637265737360e01b606482015260840161059a565b6001600160a01b0382166107225760405162461bcd60e51b815260206004820152602260248201527f45524332303a20617070726f766520746f20746865207a65726f206164647265604482015261737360f01b606482015260840161059a565b6001600160a01b0383811660008181526001602090815260408083209487168084529482529182902085905590518481527f8c5be1e5ebec7d5bd14f71427d1e84f3dd0314c0f7b2291e5b200ac8c7c3b92591015b60405180910390a3505050565b600061079084846105be565b905060001981146107f857818110156107eb5760405162461bcd60e51b815260206004820152601d60248201527f45524332303a20696e73756666696369656e7420616c6c6f77616e6365000000604482015260640161059a565b6107f8848484840361065f565b50505050565b6001600160a01b0383166108625760405162461bcd60e51b815260206004820152602560248201527f45524332303a207472616e736665722066726f6d20746865207a65726f206164604482015264647265737360d81b606482015260840161059a565b6001600160a01b0382166108c45760405162461bcd60e51b815260206004820152602360248201527f45524332303a207472616e7366657220746f20746865207a65726f206164647260448201526265737360e81b606482015260840161059a565b6001600160a01b0383166000908152602081905260409020548181101561093c5760405162461bcd60e51b815260206004820152602660248201527f45524332303a207472616e7366657220616d6f756e7420657863656564732062604482015265616c616e636560d01b606482015260840161059a565b6001600160a01b03848116600081815260208181526040808320878703905593871680835291849020805487019055925185815290927fddf252ad1be2c89b69c2b068fc378daa952ba7f163c4a11628f55a4df523b3ef910160405180910390a36107f8565b6005546001600160a01b0316331461051f5760405162461bcd60e51b815260206004820181905260248201527f4f776e61626c653a2063616c6c6572206973206e6f7420746865206f776e6572604482015260640161059a565b6001600160a01b038216610a525760405162461bcd60e51b815260206004820152601f60248201527f45524332303a206d696e7420746f20746865207a65726f206164647265737300604482015260640161059a565b8060026000828254610a649190610de1565b90915550506001600160a01b038216600081815260208181526040808320805486019055518481527fddf252ad1be2c89b69c2b068fc378daa952ba7f163c4a11628f55a4df523b3ef910160405180910390a35050565b6001600160a01b038216610b1b5760405162461bcd60e51b815260206004820152602160248201527f45524332303a206275726e2066726f6d20746865207a65726f206164647265736044820152607360f81b606482015260840161059a565b6001600160a01b03821660009081526020819052604090205481811015610b8f5760405162461bcd60e51b815260206004820152602260248201527f45524332303a206275726e20616d6f756e7420657863656564732062616c616e604482015261636560f01b606482015260840161059a565b6001600160a01b0383166000818152602081815260408083208686039055600280548790039055518581529192917fddf252ad1be2c89b69c2b068fc378daa952ba7f163c4a11628f55a4df523b3ef9101610777565b600580546001600160a01b038381166001600160a01b0319831681179093556040519116919082907f8be0079c531659141344cd1fd0a4f28419497f9722a3daafe3b4186f6b6457e090600090a35050565b600060208083528351808285015260005b81811015610c6457858101830151858201604001528201610c48565b81811115610c76576000604083870101525b50601f01601f1916929092016040019392505050565b80356001600160a01b038116811461050857600080fd5b60008060408385031215610cb657600080fd5b610cbf83610c8c565b946020939093013593505050565b600080600060608486031215610ce257600080fd5b610ceb84610c8c565b9250610cf960208501610c8c565b9150604084013590509250925092565b600060208284031215610d1b57600080fd5b5035919050565b600060208284031215610d3457600080fd5b610d3d82610c8c565b9392505050565b60008060408385031215610d5757600080fd5b610d6083610c8c565b9150610d6e60208401610c8c565b90509250929050565b600181811c90821680610d8b57607f821691505b60208210811415610dac57634e487b7160e01b600052602260045260246000fd5b50919050565b600060208284031215610dc457600080fd5b5051919050565b634e487b7160e01b600052601160045260246000fd5b60008219821115610df457610df4610dcb565b500190565b600082821015610e0b57610e0b610dcb565b50039056fea2646970667358221220afe326bc1212246506c4a733e6a58e5cd69710386a65e888e423a105a904d52a64736f6c63430008090033",
  "immutableReferences": {
    "10894": [
      {
        "length": 32,
        "start": 583
      },
      {
        "length": 32,
        "start": 886
      }
    ],
    "10897": [
      {
        "length": 32,
        "start": 353
      },
      {
        "length": 32,
        "start": 929
      },
      {
        "length": 32,
        "start": 1175
      }
    ]
  },
  "source": "// SPDX-License-Identifier: Unlicense\r\n\r\npragma solidity =0.8.9;\r\n\r\nimport \"@openzeppelin/contracts/access/Ownable.sol\";\r\nimport \"@openzeppelin/contracts/token/ERC20/ERC20.sol\";\r\n\r\nimport \"../../shared/ProtocolConstants.sol\";\r\n\r\nimport \"../../interfaces/dex-v2/pool/IVaderPoolV2.sol\";\r\nimport \"../../interfaces/dex-v2/wrapper/ILPToken.sol\";\r\n\r\ncontract LPToken is ILPToken, ProtocolConstants, ERC20, Ownable {\r\n    IERC20Extended public immutable foreignAsset;\r\n    IVaderPoolV2 public immutable pool;\r\n\r\n    /* ========== CONSTRUCTOR ========== */\r\n\r\n    constructor(IERC20Extended _foreignAsset, IVaderPoolV2 _pool)\r\n        ERC20(_calculateName(_foreignAsset), _calculateSymbol(_foreignAsset))\r\n    {\r\n        foreignAsset = _foreignAsset;\r\n        pool = _pool;\r\n        transferOwnership(address(_pool));\r\n    }\r\n\r\n    /* ========== VIEWS ========== */\r\n\r\n    function totalSupply() public view override returns (uint256) {\r\n        return pool.pairSupply(foreignAsset);\r\n    }\r\n\r\n    function balanceOf(address user) public view override returns (uint256) {\r\n        if (user == address(pool)) return totalSupply() - ERC20.totalSupply();\r\n        else return ERC20.balanceOf(user);\r\n    }\r\n\r\n    function _calculateName(IERC20Extended token)\r\n        internal\r\n        view\r\n        returns (string memory)\r\n    {\r\n        return _combine(token.name(), \" - USDV LP\");\r\n    }\r\n\r\n    function _calculateSymbol(IERC20Extended token)\r\n        internal\r\n        view\r\n        returns (string memory)\r\n    {\r\n        return _combine(\"V(\", token.symbol(), \"|USDV)\");\r\n    }\r\n\r\n    function _combine(string memory a, string memory b)\r\n        internal\r\n        pure\r\n        returns (string memory)\r\n    {\r\n        return _combine(a, b, \"\");\r\n    }\r\n\r\n    function _combine(\r\n        string memory a,\r\n        string memory b,\r\n        string memory c\r\n    ) internal pure returns (string memory) {\r\n        return string(abi.encodePacked(a, b, c));\r\n    }\r\n\r\n    /* ========== RESTRICTED FUNCTIONS ========== */\r\n\r\n    function mint(address to, uint256 amount) external onlyOwner {\r\n        _mint(to, amount);\r\n    }\r\n\r\n    function burn(uint256 amount) external onlyOwner {\r\n        _burn(msg.sender, amount);\r\n    }\r\n}\r\n",
  "sourcePath": "/home/mingyue/sub_contract_content/Web3Bugs/contracts/52/contracts/dex-v2/wrapper/LPToken.sol",
  "compiler": {
    "name": "solc",
    "version": "0.8.9+commit.e5eed63a.Emscripten.clang"
  },
  "schemaVersion": "3.4.16",
  "updatedAt": "2025-03-06T07:23:55.032Z",
  "devdoc": {
    "kind": "dev",
    "methods": {
      "allowance(address,address)": {
        "details": "See {IERC20-allowance}."
      },
      "approve(address,uint256)": {
        "details": "See {IERC20-approve}. NOTE: If `amount` is the maximum `uint256`, the allowance is not updated on `transferFrom`. This is semantically equivalent to an infinite approval. Requirements: - `spender` cannot be the zero address."
      },
      "decimals()": {
        "details": "Returns the number of decimals used to get its user representation. For example, if `decimals` equals `2`, a balance of `505` tokens should be displayed to a user as `5.05` (`505 / 10 ** 2`). Tokens usually opt for a value of 18, imitating the relationship between Ether and Wei. This is the default value returned by this function, unless it's overridden. NOTE: This information is only used for _display_ purposes: it in no way affects any of the arithmetic of the contract, including {IERC20-balanceOf} and {IERC20-transfer}."
      },
      "decreaseAllowance(address,uint256)": {
        "details": "Atomically decreases the allowance granted to `spender` by the caller. This is an alternative to {approve} that can be used as a mitigation for problems described in {IERC20-approve}. Emits an {Approval} event indicating the updated allowance. Requirements: - `spender` cannot be the zero address. - `spender` must have allowance for the caller of at least `subtractedValue`."
      },
      "increaseAllowance(address,uint256)": {
        "details": "Atomically increases the allowance granted to `spender` by the caller. This is an alternative to {approve} that can be used as a mitigation for problems described in {IERC20-approve}. Emits an {Approval} event indicating the updated allowance. Requirements: - `spender` cannot be the zero address."
      },
      "name()": {
        "details": "Returns the name of the token."
      },
      "owner()": {
        "details": "Returns the address of the current owner."
      },
      "renounceOwnership()": {
        "details": "Leaves the contract without owner. It will not be possible to call `onlyOwner` functions. Can only be called by the current owner. NOTE: Renouncing ownership will leave the contract without an owner, thereby disabling any functionality that is only available to the owner."
      },
      "symbol()": {
        "details": "Returns the symbol of the token, usually a shorter version of the name."
      },
      "totalSupply()": {
        "details": "See {IERC20-totalSupply}."
      },
      "transfer(address,uint256)": {
        "details": "See {IERC20-transfer}. Requirements: - `to` cannot be the zero address. - the caller must have a balance of at least `amount`."
      },
      "transferFrom(address,address,uint256)": {
        "details": "See {IERC20-transferFrom}. Emits an {Approval} event indicating the updated allowance. This is not required by the EIP. See the note at the beginning of {ERC20}. NOTE: Does not update the allowance if the current allowance is the maximum `uint256`. Requirements: - `from` and `to` cannot be the zero address. - `from` must have a balance of at least `amount`. - the caller must have allowance for ``from``'s tokens of at least `amount`."
      },
      "transferOwnership(address)": {
        "details": "Transfers ownership of the contract to a new account (`newOwner`). Can only be called by the current owner."
      }
    },
    "version": 1
  },
  "userdoc": {
    "kind": "user",
    "methods": {},
    "version": 1
  }
}