{
  "contractName": "MockTarget",
  "abi": [
    {
      "inputs": [
        {
          "internalType": "address",
          "name": "_timelock",
          "type": "address"
        }
      ],
      "stateMutability": "nonpayable",
      "type": "constructor"
    },
    {
      "inputs": [],
      "name": "state",
      "outputs": [
        {
          "internalType": "bool",
          "name": "",
          "type": "bool"
        }
      ],
      "stateMutability": "view",
      "type": "function"
    },
    {
      "inputs": [],
      "name": "timelock",
      "outputs": [
        {
          "internalType": "contract ITimelock",
          "name": "",
          "type": "address"
        }
      ],
      "stateMutability": "view",
      "type": "function"
    },
    {
      "inputs": [],
      "name": "setStateToTrue",
      "outputs": [],
      "stateMutability": "nonpayable",
      "type": "function"
    },
    {
      "inputs": [
        {
          "internalType": "bool",
          "name": "_state",
          "type": "bool"
        }
      ],
      "name": "changeState",
      "outputs": [],
      "stateMutability": "nonpayable",
      "type": "function"
    }
  ],
  "bytecode": "0x608060405234801561001057600080fd5b5060405161028f38038061028f83398101604081905261002f9161005a565b600080546001600160a01b0390921661010002610100600160a81b031990921691909117905561008a565b60006020828403121561006c57600080fd5b81516001600160a01b038116811461008357600080fd5b9392505050565b6101f6806100996000396000f3fe608060405234801561001057600080fd5b506004361061004c5760003560e01c80631deb0a8f14610051578063919b807114610066578063c19d93fb1461006e578063d33219b414610090575b600080fd5b61006461005f366004610197565b6100c0565b005b610064610130565b60005461007b9060ff1681565b60405190151581526020015b60405180910390f35b6000546100a89061010090046001600160a01b031681565b6040516001600160a01b039091168152602001610087565b60005461010090046001600160a01b0316331461011d5760405162461bcd60e51b81526020600482015260166024820152751bdb9b1e481d1a5b595b1bd8dac818d85b8818d85b1b60521b60448201526064015b60405180910390fd5b6000805460ff1916911515919091179055565b60005461010090046001600160a01b031633146101885760405162461bcd60e51b81526020600482015260166024820152751bdb9b1e481d1a5b595b1bd8dac818d85b8818d85b1b60521b6044820152606401610114565b6000805460ff19166001179055565b6000602082840312156101a957600080fd5b813580151581146101b957600080fd5b939250505056fea264697066735822122023d523bffe89008930df40aa3470b737c8d78164ac497827d07a0082ed223d1f64736f6c63430008090033",
  "immutableReferences": {},
  "source": "// SPDX-License-Identifier: Unlicensed\n\npragma solidity =0.8.9;\n\nimport \"../interfaces/governance/ITimelock.sol\";\n\ncontract MockTarget {\n    bool public state;\n    ITimelock public timelock;\n\n    constructor(address _timelock) {\n        timelock = ITimelock(_timelock);\n    }\n\n    function setStateToTrue() external onlyTimelock {\n        state = true;\n    }\n\n    function changeState(bool _state) external onlyTimelock {\n        state = _state;\n    }\n\n    modifier onlyTimelock() {\n        require(msg.sender == address(timelock), \"only timelock can call\");\n        _;\n    }\n}\n",
  "sourcePath": "/home/mingyue/sub_contract_content/Web3Bugs/contracts/52/contracts/mocks/MockTarget.sol",
  "compiler": {
    "name": "solc",
    "version": "0.8.9+commit.e5eed63a.Emscripten.clang"
  },
  "schemaVersion": "3.4.16",
  "updatedAt": "2025-03-06T07:23:55.078Z",
  "devdoc": {
    "kind": "dev",
    "methods": {},
    "version": 1
  },
  "userdoc": {
    "kind": "user",
    "methods": {},
    "version": 1
  }
}