{
  "contractName": "MockGovernorAlpha",
  "abi": [
    {
      "inputs": [
        {
          "internalType": "address",
          "name": "guardian_",
          "type": "address"
        },
        {
          "internalType": "address",
          "name": "xVader_",
          "type": "address"
        },
        {
          "internalType": "address",
          "name": "feeReceiver_",
          "type": "address"
        },
        {
          "internalType": "uint256",
          "name": "feeAmount_",
          "type": "uint256"
        },
        {
          "internalType": "address",
          "name": "council_",
          "type": "address"
        }
      ],
      "stateMutability": "nonpayable",
      "type": "constructor"
    },
    {
      "anonymous": false,
      "inputs": [
        {
          "indexed": false,
          "internalType": "address",
          "name": "oldCouncil",
          "type": "address"
        },
        {
          "indexed": false,
          "internalType": "address",
          "name": "newCouncil",
          "type": "address"
        }
      ],
      "name": "CouncilChanged",
      "type": "event"
    },
    {
      "anonymous": false,
      "inputs": [
        {
          "indexed": false,
          "internalType": "uint256",
          "name": "oldFeeAmount",
          "type": "uint256"
        },
        {
          "indexed": false,
          "internalType": "uint256",
          "name": "newFeeAmount",
          "type": "uint256"
        }
      ],
      "name": "FeeAmountChanged",
      "type": "event"
    },
    {
      "anonymous": false,
      "inputs": [
        {
          "indexed": false,
          "internalType": "address",
          "name": "oldFeeReceiver",
          "type": "address"
        },
        {
          "indexed": false,
          "internalType": "address",
          "name": "newFeeReceiver",
          "type": "address"
        }
      ],
      "name": "FeeReceiverChanged",
      "type": "event"
    },
    {
      "anonymous": false,
      "inputs": [
        {
          "indexed": false,
          "internalType": "uint256",
          "name": "id",
          "type": "uint256"
        }
      ],
      "name": "ProposalCanceled",
      "type": "event"
    },
    {
      "anonymous": false,
      "inputs": [
        {
          "indexed": false,
          "internalType": "uint256",
          "name": "id",
          "type": "uint256"
        },
        {
          "indexed": false,
          "internalType": "address",
          "name": "proposer",
          "type": "address"
        },
        {
          "indexed": false,
          "internalType": "address[]",
          "name": "targets",
          "type": "address[]"
        },
        {
          "indexed": false,
          "internalType": "uint256[]",
          "name": "values",
          "type": "uint256[]"
        },
        {
          "indexed": false,
          "internalType": "string[]",
          "name": "signatures",
          "type": "string[]"
        },
        {
          "indexed": false,
          "internalType": "bytes[]",
          "name": "calldatas",
          "type": "bytes[]"
        },
        {
          "indexed": false,
          "internalType": "uint256",
          "name": "startBlock",
          "type": "uint256"
        },
        {
          "indexed": false,
          "internalType": "uint256",
          "name": "endBlock",
          "type": "uint256"
        },
        {
          "indexed": false,
          "internalType": "string",
          "name": "description",
          "type": "string"
        }
      ],
      "name": "ProposalCreated",
      "type": "event"
    },
    {
      "anonymous": false,
      "inputs": [
        {
          "indexed": false,
          "internalType": "uint256",
          "name": "id",
          "type": "uint256"
        }
      ],
      "name": "ProposalExecuted",
      "type": "event"
    },
    {
      "anonymous": false,
      "inputs": [
        {
          "indexed": false,
          "internalType": "uint256",
          "name": "id",
          "type": "uint256"
        },
        {
          "indexed": false,
          "internalType": "uint256",
          "name": "eta",
          "type": "uint256"
        }
      ],
      "name": "ProposalQueued",
      "type": "event"
    },
    {
      "anonymous": false,
      "inputs": [
        {
          "indexed": false,
          "internalType": "uint256",
          "name": "proposalId",
          "type": "uint256"
        },
        {
          "indexed": false,
          "internalType": "bool",
          "name": "support",
          "type": "bool"
        }
      ],
      "name": "ProposalVetoed",
      "type": "event"
    },
    {
      "anonymous": false,
      "inputs": [
        {
          "indexed": false,
          "internalType": "address",
          "name": "voter",
          "type": "address"
        },
        {
          "indexed": false,
          "internalType": "uint256",
          "name": "proposalId",
          "type": "uint256"
        },
        {
          "indexed": false,
          "internalType": "bool",
          "name": "support",
          "type": "bool"
        },
        {
          "indexed": false,
          "internalType": "uint256",
          "name": "votes",
          "type": "uint256"
        }
      ],
      "name": "VoteCast",
      "type": "event"
    },
    {
      "inputs": [],
      "name": "BALLOT_TYPEHASH",
      "outputs": [
        {
          "internalType": "bytes32",
          "name": "",
          "type": "bytes32"
        }
      ],
      "stateMutability": "view",
      "type": "function"
    },
    {
      "inputs": [],
      "name": "DOMAIN_TYPEHASH",
      "outputs": [
        {
          "internalType": "bytes32",
          "name": "",
          "type": "bytes32"
        }
      ],
      "stateMutability": "view",
      "type": "function"
    },
    {
      "inputs": [],
      "name": "__abdicate",
      "outputs": [],
      "stateMutability": "nonpayable",
      "type": "function"
    },
    {
      "inputs": [],
      "name": "__acceptAdmin",
      "outputs": [],
      "stateMutability": "nonpayable",
      "type": "function"
    },
    {
      "inputs": [
        {
          "internalType": "address",
          "name": "newPendingAdmin",
          "type": "address"
        },
        {
          "internalType": "uint256",
          "name": "eta",
          "type": "uint256"
        }
      ],
      "name": "__executeSetTimelockPendingAdmin",
      "outputs": [],
      "stateMutability": "nonpayable",
      "type": "function"
    },
    {
      "inputs": [
        {
          "internalType": "address",
          "name": "newPendingAdmin",
          "type": "address"
        },
        {
          "internalType": "uint256",
          "name": "eta",
          "type": "uint256"
        }
      ],
      "name": "__queueSetTimelockPendingAdmin",
      "outputs": [],
      "stateMutability": "nonpayable",
      "type": "function"
    },
    {
      "inputs": [
        {
          "internalType": "uint256",
          "name": "proposalId",
          "type": "uint256"
        }
      ],
      "name": "cancel",
      "outputs": [],
      "stateMutability": "nonpayable",
      "type": "function"
    },
    {
      "inputs": [
        {
          "internalType": "uint256",
          "name": "proposalId",
          "type": "uint256"
        },
        {
          "internalType": "bool",
          "name": "support",
          "type": "bool"
        }
      ],
      "name": "castVote",
      "outputs": [],
      "stateMutability": "nonpayable",
      "type": "function"
    },
    {
      "inputs": [
        {
          "internalType": "uint256",
          "name": "proposalId",
          "type": "uint256"
        },
        {
          "internalType": "bool",
          "name": "support",
          "type": "bool"
        },
        {
          "internalType": "uint8",
          "name": "v",
          "type": "uint8"
        },
        {
          "internalType": "bytes32",
          "name": "r",
          "type": "bytes32"
        },
        {
          "internalType": "bytes32",
          "name": "s",
          "type": "bytes32"
        }
      ],
      "name": "castVoteBySig",
      "outputs": [],
      "stateMutability": "nonpayable",
      "type": "function"
    },
    {
      "inputs": [
        {
          "internalType": "address",
          "name": "council_",
          "type": "address"
        }
      ],
      "name": "changeCouncil",
      "outputs": [],
      "stateMutability": "nonpayable",
      "type": "function"
    },
    {
      "inputs": [
        {
          "internalType": "uint256",
          "name": "feeAmount_",
          "type": "uint256"
        }
      ],
      "name": "changeFeeAmount",
      "outputs": [],
      "stateMutability": "nonpayable",
      "type": "function"
    },
    {
      "inputs": [
        {
          "internalType": "address",
          "name": "feeReceiver_",
          "type": "address"
        }
      ],
      "name": "changeFeeReceiver",
      "outputs": [],
      "stateMutability": "nonpayable",
      "type": "function"
    },
    {
      "inputs": [],
      "name": "council",
      "outputs": [
        {
          "internalType": "address",
          "name": "",
          "type": "address"
        }
      ],
      "stateMutability": "view",
      "type": "function"
    },
    {
      "inputs": [
        {
          "internalType": "uint256",
          "name": "proposalId",
          "type": "uint256"
        }
      ],
      "name": "execute",
      "outputs": [],
      "stateMutability": "payable",
      "type": "function"
    },
    {
      "inputs": [],
      "name": "feeAmount",
      "outputs": [
        {
          "internalType": "uint256",
          "name": "",
          "type": "uint256"
        }
      ],
      "stateMutability": "view",
      "type": "function"
    },
    {
      "inputs": [],
      "name": "feeReceiver",
      "outputs": [
        {
          "internalType": "address",
          "name": "",
          "type": "address"
        }
      ],
      "stateMutability": "view",
      "type": "function"
    },
    {
      "inputs": [
        {
          "internalType": "uint256",
          "name": "proposalId",
          "type": "uint256"
        }
      ],
      "name": "getActions",
      "outputs": [
        {
          "internalType": "address[]",
          "name": "targets",
          "type": "address[]"
        },
        {
          "internalType": "uint256[]",
          "name": "values",
          "type": "uint256[]"
        },
        {
          "internalType": "string[]",
          "name": "signatures",
          "type": "string[]"
        },
        {
          "internalType": "bytes[]",
          "name": "calldatas",
          "type": "bytes[]"
        }
      ],
      "stateMutability": "view",
      "type": "function"
    },
    {
      "inputs": [
        {
          "internalType": "uint256",
          "name": "proposalId",
          "type": "uint256"
        },
        {
          "internalType": "address",
          "name": "voter",
          "type": "address"
        }
      ],
      "name": "getReceipt",
      "outputs": [
        {
          "components": [
            {
              "internalType": "bool",
              "name": "hasVoted",
              "type": "bool"
            },
            {
              "internalType": "bool",
              "name": "support",
              "type": "bool"
            },
            {
              "internalType": "uint224",
              "name": "votes",
              "type": "uint224"
            }
          ],
          "internalType": "struct GovernorAlpha.Receipt",
          "name": "",
          "type": "tuple"
        }
      ],
      "stateMutability": "view",
      "type": "function"
    },
    {
      "inputs": [],
      "name": "guardian",
      "outputs": [
        {
          "internalType": "address",
          "name": "",
          "type": "address"
        }
      ],
      "stateMutability": "view",
      "type": "function"
    },
    {
      "inputs": [
        {
          "internalType": "address",
          "name": "",
          "type": "address"
        }
      ],
      "name": "latestProposalIds",
      "outputs": [
        {
          "internalType": "uint256",
          "name": "",
          "type": "uint256"
        }
      ],
      "stateMutability": "view",
      "type": "function"
    },
    {
      "inputs": [],
      "name": "name",
      "outputs": [
        {
          "internalType": "string",
          "name": "",
          "type": "string"
        }
      ],
      "stateMutability": "view",
      "type": "function"
    },
    {
      "inputs": [],
      "name": "proposalCount",
      "outputs": [
        {
          "internalType": "uint256",
          "name": "",
          "type": "uint256"
        }
      ],
      "stateMutability": "view",
      "type": "function"
    },
    {
      "inputs": [],
      "name": "proposalMaxOperations",
      "outputs": [
        {
          "internalType": "uint256",
          "name": "",
          "type": "uint256"
        }
      ],
      "stateMutability": "pure",
      "type": "function"
    },
    {
      "inputs": [
        {
          "internalType": "uint256",
          "name": "",
          "type": "uint256"
        }
      ],
      "name": "proposals",
      "outputs": [
        {
          "internalType": "uint256",
          "name": "id",
          "type": "uint256"
        },
        {
          "internalType": "bool",
          "name": "canceled",
          "type": "bool"
        },
        {
          "internalType": "bool",
          "name": "executed",
          "type": "bool"
        },
        {
          "internalType": "address",
          "name": "proposer",
          "type": "address"
        },
        {
          "internalType": "uint256",
          "name": "eta",
          "type": "uint256"
        },
        {
          "internalType": "uint256",
          "name": "startBlock",
          "type": "uint256"
        },
        {
          "internalType": "uint256",
          "name": "endBlock",
          "type": "uint256"
        },
        {
          "internalType": "uint224",
          "name": "forVotes",
          "type": "uint224"
        },
        {
          "internalType": "uint224",
          "name": "againstVotes",
          "type": "uint224"
        },
        {
          "components": [
            {
              "internalType": "bool",
              "name": "hasBeenVetoed",
              "type": "bool"
            },
            {
              "internalType": "bool",
              "name": "support",
              "type": "bool"
            }
          ],
          "internalType": "struct GovernorAlpha.VetoStatus",
          "name": "vetoStatus",
          "type": "tuple"
        }
      ],
      "stateMutability": "view",
      "type": "function"
    },
    {
      "inputs": [
        {
          "internalType": "address[]",
          "name": "targets",
          "type": "address[]"
        },
        {
          "internalType": "uint256[]",
          "name": "values",
          "type": "uint256[]"
        },
        {
          "internalType": "string[]",
          "name": "signatures",
          "type": "string[]"
        },
        {
          "internalType": "bytes[]",
          "name": "calldatas",
          "type": "bytes[]"
        },
        {
          "internalType": "string",
          "name": "description",
          "type": "string"
        }
      ],
      "name": "propose",
      "outputs": [
        {
          "internalType": "uint256",
          "name": "proposalId",
          "type": "uint256"
        }
      ],
      "stateMutability": "nonpayable",
      "type": "function"
    },
    {
      "inputs": [
        {
          "internalType": "uint256",
          "name": "proposalId",
          "type": "uint256"
        }
      ],
      "name": "queue",
      "outputs": [],
      "stateMutability": "nonpayable",
      "type": "function"
    },
    {
      "inputs": [
        {
          "internalType": "uint256",
          "name": "blockNumber",
          "type": "uint256"
        }
      ],
      "name": "quorumVotes",
      "outputs": [
        {
          "internalType": "uint256",
          "name": "",
          "type": "uint256"
        }
      ],
      "stateMutability": "view",
      "type": "function"
    },
    {
      "inputs": [
        {
          "internalType": "address",
          "name": "_timelock",
          "type": "address"
        }
      ],
      "name": "setTimelock",
      "outputs": [],
      "stateMutability": "nonpayable",
      "type": "function"
    },
    {
      "inputs": [
        {
          "internalType": "uint256",
          "name": "proposalId",
          "type": "uint256"
        }
      ],
      "name": "state",
      "outputs": [
        {
          "internalType": "enum GovernorAlpha.ProposalState",
          "name": "",
          "type": "uint8"
        }
      ],
      "stateMutability": "view",
      "type": "function"
    },
    {
      "inputs": [],
      "name": "timelock",
      "outputs": [
        {
          "internalType": "contract ITimelock",
          "name": "",
          "type": "address"
        }
      ],
      "stateMutability": "view",
      "type": "function"
    },
    {
      "inputs": [
        {
          "internalType": "uint256",
          "name": "proposalId",
          "type": "uint256"
        },
        {
          "internalType": "bool",
          "name": "support",
          "type": "bool"
        }
      ],
      "name": "veto",
      "outputs": [],
      "stateMutability": "nonpayable",
      "type": "function"
    },
    {
      "inputs": [],
      "name": "votingDelay",
      "outputs": [
        {
          "internalType": "uint256",
          "name": "",
          "type": "uint256"
        }
      ],
      "stateMutability": "pure",
      "type": "function"
    },
    {
      "inputs": [],
      "name": "xVader",
      "outputs": [
        {
          "internalType": "contract IXVader",
          "name": "",
          "type": "address"
        }
      ],
      "stateMutability": "view",
      "type": "function"
    },
    {
      "inputs": [],
      "name": "votingPeriod",
      "outputs": [
        {
          "internalType": "uint256",
          "name": "",
          "type": "uint256"
        }
      ],
      "stateMutability": "pure",
      "type": "function"
    },
    {
      "inputs": [],
      "name": "CHAINID",
      "outputs": [
        {
          "internalType": "uint256",
          "name": "chainId",
          "type": "uint256"
        }
      ],
      "stateMutability": "view",
      "type": "function"
    }
  ],
  "bytecode": "0x60a06040523480156200001157600080fd5b506040516200389f3803806200389f83398101604081905262000034916200025a565b84848484846001600160a01b038416620000b05760405162461bcd60e51b815260206004820152603260248201527f476f7665726e6f72416c7068613a3a636f6e7374727563746f723a207856616460448201527165722061646472657373206973207a65726f60701b60648201526084015b60405180910390fd5b6001600160a01b03851615801590620000d157506001600160a01b03831615155b8015620000e657506001600160a01b03811615155b6200016e5760405162461bcd60e51b815260206004820152604b60248201527f476f7665726e6f72416c7068613a3a636f6e7374727563746f723a206775617260448201527f6469616e2c206665655265636569766572206f7220636f756e63696c2063616e60648201526a6e6f74206265207a65726f60a81b608482015260a401620000a7565b600180546001600160a01b038781166001600160a01b03199283161790925585821660805260038054868416908316811790915560048590556005805493851693909216929092179055604080516000815260208101929092527fa4b009cc442411b602eaf94bc0579b6abdb8fd90b4ef5b9426e270038906bd03910160405180910390a16040805160008152602081018490527f628999ddb8cc6bb99cec0350ca6e43277be4a15b13e849d3e532cada20effa82910160405180910390a150505050505050505050620002c1565b80516001600160a01b03811681146200025557600080fd5b919050565b600080600080600060a086880312156200027357600080fd5b6200027e866200023d565b94506200028e602087016200023d565b93506200029e604087016200023d565b925060608601519150620002b5608087016200023d565b90509295509295909350565b6080516135ad620002f260003960008181610638015281816108ff015281816119da015261246901526135ad6000f3fe6080604052600436106102045760003560e01c806369e1540411610118578063cc79f97b116100a0578063ddf0b0091161006f578063ddf0b00914610718578063deaaa7cc14610738578063e23a9a521461076c578063e2c6d41c14610837578063fe0d94c11461085757600080fd5b8063cc79f97b146106af578063d33219b4146106c2578063da35c664146106e2578063da95691a146106f857600080fd5b806391500671116100e75780639150067114610606578063b3776e1014610626578063b3f006741461065a578063b9a619611461067a578063bdacb3031461068f57600080fd5b806369e15404146105a7578063760fbc13146105bd5780637bdbe4d0146105d25780637c08b964146105e657600080fd5b806321f43e421161019b5780633e4f49e61161016a5780633e4f49e6146104e257806340e58ee51461050f578063452a93201461052f5780634634c61f146105675780635e8b72441461058757600080fd5b806321f43e421461045e5780632f3765861461047e578063328dd9821461049e5780633932abb1146104ce57600080fd5b80630f7b1f08116101d75780630f7b1f08146103bd57806315373e3d146103dd57806317977c61146103fd57806320606b701461042a57600080fd5b8063013cf08b1461020957806302a251a31461033057806302c3b4361461034e57806306fdde0314610370575b600080fd5b34801561021557600080fd5b506102b5610224366004612aed565b600660209081526000918252604091829020805460018201546002830154600784015460088501546009860154600a8701548951808b01909a52600b9097015460ff80821615158b526101009182900481161515998b019990995295988886169896860490961696620100009095046001600160a01b0316959394929391926001600160e01b03918216929116908a565b604080519a8b529815156020808c0191909152971515988a01989098526001600160a01b039095166060890152608088019390935260a087019190915260c08601526001600160e01b0390811660e0860152166101008401528151151561012084015201511515610140820152610160015b60405180910390f35b34801561033c57600080fd5b5060325b604051908152602001610327565b34801561035a57600080fd5b5061036e610369366004612b22565b61086a565b005b34801561037c57600080fd5b506103b060405180604001604052806014815260200173566164657220476f7665726e6f7220416c70686160601b81525081565b6040516103279190612b9c565b3480156103c957600080fd5b506103406103d8366004612aed565b6108db565b3480156103e957600080fd5b5061036e6103f8366004612bbd565b610994565b34801561040957600080fd5b50610340610418366004612b22565b60076020526000908152604090205481565b34801561043657600080fd5b506103407f8cad95687ba82c2ce50e74f7b754645e5117c3a5bec8151c0726d5857980a86681565b34801561046a57600080fd5b5061036e610479366004612bed565b6109a3565b34801561048a57600080fd5b5061036e610499366004612aed565b610a5a565b3480156104aa57600080fd5b506104be6104b9366004612aed565b610aa3565b6040516103279493929190612ce0565b3480156104da57600080fd5b506001610340565b3480156104ee57600080fd5b506105026104fd366004612aed565b610d34565b6040516103279190612d4e565b34801561051b57600080fd5b5061036e61052a366004612aed565b610f66565b34801561053b57600080fd5b5060015461054f906001600160a01b031681565b6040516001600160a01b039091168152602001610327565b34801561057357600080fd5b5061036e610582366004612d76565b611172565b34801561059357600080fd5b5061036e6105a2366004612bbd565b611386565b3480156105b357600080fd5b5061034060045481565b3480156105c957600080fd5b5061036e6115fe565b3480156105de57600080fd5b50600a610340565b3480156105f257600080fd5b5061036e610601366004612b22565b611618565b34801561061257600080fd5b5061036e610621366004612bed565b611689565b34801561063257600080fd5b5061054f7f000000000000000000000000000000000000000000000000000000000000000081565b34801561066657600080fd5b5060035461054f906001600160a01b031681565b34801561068657600080fd5b5061036e611737565b34801561069b57600080fd5b5061036e6106aa366004612b22565b61179a565b3480156106bb57600080fd5b5046610340565b3480156106ce57600080fd5b5060005461054f906001600160a01b031681565b3480156106ee57600080fd5b5061034060025481565b34801561070457600080fd5b5061034061071336600461309c565b611840565b34801561072457600080fd5b5061036e610733366004612aed565b611d26565b34801561074457600080fd5b506103407f8e25870c07e0b0b3884c78da52790939a455c275406c44ae8b434b692fb916ee81565b34801561077857600080fd5b5061080861078736600461316e565b60408051606081018252600080825260208201819052918101919091525060009182526006602090815260408084206001600160a01b03939093168452600c9092018152918190208151606081018352905460ff80821615158352610100820416151593820193909352620100009092046001600160e01b03169082015290565b60408051825115158152602080840151151590820152918101516001600160e01b031690820152606001610327565b34801561084357600080fd5b5060055461054f906001600160a01b031681565b61036e610865366004612aed565b612060565b6108726122b6565b600554604080516001600160a01b03928316815291831660208301527f88738f5862bc0efb03b5d97e02e68c3afb33e476baf5f5d04dfa81a6c3fe7660910160405180910390a1600580546001600160a01b0319166001600160a01b0392909216919091179055565b604051632394e7a360e21b8152600481018290526000906064906001600160a01b037f00000000000000000000000000000000000000000000000000000000000000001690638e539e8c9060240160206040518083038186803b15801561094157600080fd5b505afa158015610955573d6000803e3d6000fd5b505050506040513d601f19601f82011682018060405250810190610979919061319a565b6109849060046131c9565b61098e91906131e8565b92915050565b61099f33838361232f565b5050565b6109ab6125eb565b60008054604080516001600160a01b03868116602083015290921692630825f38f92849201604051602081830303815290604052856040518563ffffffff1660e01b81526004016109ff949392919061320a565b600060405180830381600087803b158015610a1957600080fd5b505af1158015610a2d573d6000803e3d6000fd5b505050506040513d6000823e601f3d908101601f19168201604052610a559190810190613276565b505050565b610a626125eb565b60045460408051918252602082018390527f628999ddb8cc6bb99cec0350ca6e43277be4a15b13e849d3e532cada20effa82910160405180910390a1600455565b60608060608060006006600087815260200190815260200160002090508060030181600401826005018360060183805480602002602001604051908101604052809291908181526020018280548015610b2557602002820191906000526020600020905b81546001600160a01b03168152600190910190602001808311610b07575b5050505050935082805480602002602001604051908101604052809291908181526020018280548015610b7757602002820191906000526020600020905b815481526020019060010190808311610b63575b5050505050925081805480602002602001604051908101604052809291908181526020016000905b82821015610c4b578382906000526020600020018054610bbe906132ed565b80601f0160208091040260200160405190810160405280929190818152602001828054610bea906132ed565b8015610c375780601f10610c0c57610100808354040283529160200191610c37565b820191906000526020600020905b815481529060010190602001808311610c1a57829003601f168201915b505050505081526020019060010190610b9f565b50505050915080805480602002602001604051908101604052809291908181526020016000905b82821015610d1e578382906000526020600020018054610c91906132ed565b80601f0160208091040260200160405190810160405280929190818152602001828054610cbd906132ed565b8015610d0a5780601f10610cdf57610100808354040283529160200191610d0a565b820191906000526020600020905b815481529060010190602001808311610ced57829003601f168201915b505050505081526020019060010190610c72565b5050505090509450945094509450509193509193565b60008160025410158015610d485750600082115b610dab5760405162461bcd60e51b815260206004820152602960248201527f476f7665726e6f72416c7068613a3a73746174653a20696e76616c69642070726044820152681bdc1bdcd85b081a5960ba1b60648201526084015b60405180910390fd5b6000828152600660205260409020600181015460ff1615610dcf5750600292915050565b600b81015460ff1615610e1c576002810154600b820154610100900460ff168015610df8575080155b15610e07575060049392505050565b80610e16575060039392505050565b50610ea0565b80600701544311610e305750600092915050565b80600801544311610e445750600192915050565b600a81015460098201546001600160e01b039182169116111580610e805750610e7081600701546108db565b60098201546001600160e01b0316105b15610e8e5750600392915050565b6002810154610ea05750600492915050565b6001810154610100900460ff1615610ebb5750600792915050565b60008054906101000a90046001600160a01b03166001600160a01b031663c1a287e26040518163ffffffff1660e01b815260040160206040518083038186803b158015610f0757600080fd5b505afa158015610f1b573d6000803e3d6000fd5b505050506040513d601f19601f82011682018060405250810190610f3f919061319a565b8160020154610f4e9190613328565b4210610f5d5750600692915050565b50600592915050565b610f6e6125eb565b6000610f7982610d34565b90506007816007811115610f8f57610f8f612d38565b1415610ffc5760405162461bcd60e51b815260206004820152603660248201527f476f7665726e6f72416c7068613a3a63616e63656c3a2063616e6e6f742063616044820152751b98d95b08195e1958dd5d1959081c1c9bdc1bdcd85b60521b6064820152608401610da2565b60008281526006602052604081206001808201805460ff19169091179055600381015490915b81811015611137576000546003840180546001600160a01b039092169163591fcdfe91908490811061105657611056613340565b6000918252602090912001546004860180546001600160a01b03909216918590811061108457611084613340565b90600052602060002001548660050185815481106110a4576110a4613340565b906000526020600020018760060186815481106110c3576110c3613340565b9060005260206000200188600201546040518663ffffffff1660e01b81526004016110f29594939291906133f7565b600060405180830381600087803b15801561110c57600080fd5b505af1158015611120573d6000803e3d6000fd5b50505050808061112f90613443565b915050611022565b506040518481527f789cf55be980739dad1d0699b93b58e806b51c9d96619bfa8fe0a28abaa7b30c906020015b60405180910390a150505050565b6040805180820182526014815273566164657220476f7665726e6f7220416c70686160601b60209182015281517f8cad95687ba82c2ce50e74f7b754645e5117c3a5bec8151c0726d5857980a866818301527fc1d5a67b76b6997ba8c497a0a22cc132eea5d0b196ea2de9ebfe58d19c34332181840152466060820152306080808301919091528351808303909101815260a0820184528051908301207f8e25870c07e0b0b3884c78da52790939a455c275406c44ae8b434b692fb916ee60c083015260e08201899052871515610100808401919091528451808403909101815261012083019094528351939092019290922061190160f01b6101408401526101428301829052610162830181905290916000906101820160408051601f198184030181528282528051602091820120600080855291840180845281905260ff8a169284019290925260608301889052608083018790529092509060019060a0016020604051602081039080840390855afa1580156112f5573d6000803e3d6000fd5b5050604051601f1901519150506001600160a01b0381166113705760405162461bcd60e51b815260206004820152602f60248201527f476f7665726e6f72416c7068613a3a63617374566f746542795369673a20696e60448201526e76616c6964207369676e617475726560881b6064820152608401610da2565b61137b818a8a61232f565b505050505050505050565b61138e612662565b600061139983610d34565b905060018160078111156113af576113af612d38565b14806113cc575060008160078111156113ca576113ca612d38565b145b61143e5760405162461bcd60e51b815260206004820152603c60248201527f476f7665726e6f72416c7068613a3a7665746f3a2050726f706f73616c20636160448201527f6e206f6e6c79206265207665746f6564207768656e20616374697665000000006064820152608401610da2565b60008381526006602090815260408083206003810180548351818602810186019094528084529194939091908301828280156114a357602002820191906000526020600020905b81546001600160a01b03168152600190910190602001808311611485575b5050505050905060005b815181101561158f57306001600160a01b03168282815181106114d2576114d2613340565b60200260200101516001600160a01b0316141561157d5760405162461bcd60e51b815260206004820152605f60248201527f476f7665726e6f72416c7068613a3a7665746f3a20636f756e63696c2063616e60448201527f6e6f74207665746f206f6e2070726f706f73616c20686176696e67206163746960648201527f6f6e207769746820616464726573732874686973292061732074617267657400608482015260a401610da2565b8061158781613443565b9150506114ad565b50600b82018054851580156101000261ffff199092169190911760011782556115bb576115bb86611d26565b6040805187815286151560208201527fc31b90474612d75e8105c18a29622b8a2f528aff1f2646cadf5f19b30542c61591015b60405180910390a1505050505050565b6116066125eb565b600180546001600160a01b0319169055565b6116206125eb565b600354604080516001600160a01b03928316815291831660208301527fa4b009cc442411b602eaf94bc0579b6abdb8fd90b4ef5b9426e270038906bd03910160405180910390a1600380546001600160a01b0319166001600160a01b0392909216919091179055565b6116916125eb565b60008054604080516001600160a01b03868116602083015290921692633a66f90192849201604051602081830303815290604052856040518563ffffffff1660e01b81526004016116e5949392919061320a565b602060405180830381600087803b1580156116ff57600080fd5b505af1158015611713573d6000803e3d6000fd5b505050506040513d601f19601f82011682018060405250810190610a55919061319a565b61173f6125eb565b6000805460408051630e18b68160e01b815290516001600160a01b0390921692630e18b6819260048084019382900301818387803b15801561178057600080fd5b505af1158015611794573d6000803e3d6000fd5b50505050565b6117a26125eb565b6001600160a01b03811661181e5760405162461bcd60e51b815260206004820152603d60248201527f476f7665726e6f72416c7068613a3a696e697454696d656c6f636b3a205f746960448201527f6d656c6f636b2063616e6e6f74206265207a65726f20616464726573730000006064820152608401610da2565b600080546001600160a01b0319166001600160a01b0392909216919091179055565b600084518651148015611854575083518651145b8015611861575082518651145b6118e15760405162461bcd60e51b8152602060048201526044602482018190527f476f7665726e6f72416c7068613a3a70726f706f73653a2070726f706f73616c908201527f2066756e6374696f6e20696e666f726d6174696f6e206172697479206d69736d6064820152630c2e8c6d60e31b608482015260a401610da2565b85516119445760405162461bcd60e51b815260206004820152602c60248201527f476f7665726e6f72416c7068613a3a70726f706f73653a206d7573742070726f60448201526b7669646520616374696f6e7360a01b6064820152608401610da2565b600a865111156119a75760405162461bcd60e51b815260206004820152602860248201527f476f7665726e6f72416c7068613a3a70726f706f73653a20746f6f206d616e7960448201526720616374696f6e7360c01b6064820152608401610da2565b600354600480546040516323b872dd60e01b815233928101929092526001600160a01b03928316602483015260448201527f0000000000000000000000000000000000000000000000000000000000000000909116906323b872dd90606401602060405180830381600087803b158015611a2057600080fd5b505af1158015611a34573d6000803e3d6000fd5b505050506040513d601f19601f82011682018060405250810190611a58919061345e565b50336000908152600760205260409020548015611bda576000611a7a82610d34565b90506001816007811115611a9057611a90612d38565b1415611b2a5760405162461bcd60e51b815260206004820152605860248201527f476f7665726e6f72416c7068613a3a70726f706f73653a206f6e65206c69766560448201527f2070726f706f73616c207065722070726f706f7365722c20666f756e6420616e60648201527f20616c7265616479206163746976652070726f706f73616c0000000000000000608482015260a401610da2565b6000816007811115611b3e57611b3e612d38565b1415611bd85760405162461bcd60e51b815260206004820152605960248201527f476f7665726e6f72416c7068613a3a70726f706f73653a206f6e65206c69766560448201527f2070726f706f73616c207065722070726f706f7365722c20666f756e6420616e60648201527f20616c72656164792070656e64696e672070726f706f73616c00000000000000608482015260a401610da2565b505b6000611be7600143613328565b90506000611bf6603283613328565b9050600260008154611c0790613443565b9182905550600081815260066020908152604090912082815560018101805462010000600160b01b0319163362010000021790558b5192965091611c53916003840191908d019061289c565b508851611c6990600483019060208c0190612901565b508751611c7f90600583019060208b019061293c565b508651611c9590600683019060208a0190612995565b508281600701819055508181600801819055508460076000336001600160a01b03166001600160a01b03168152602001908152602001600020819055507f7d84a6263ae0d98d3329bd7b46bb4e8d6f98cd35a7adb45c274c8b7fd5ebd5e085338c8c8c8c89898e604051611d119998979695949392919061347b565b60405180910390a15050505095945050505050565b6004611d3182610d34565b6007811115611d4257611d42612d38565b14611dc35760405162461bcd60e51b8152602060048201526044602482018190527f476f7665726e6f72416c7068613a3a71756575653a2070726f706f73616c2063908201527f616e206f6e6c79206265207175657565642069662069742069732073756363656064820152631959195960e21b608482015260a401610da2565b600081815260066020908152604080832083548251630d48571f60e31b815292519194936001600160a01b0390911692636a42b8f89260048083019392829003018186803b158015611e1457600080fd5b505afa158015611e28573d6000803e3d6000fd5b505050506040513d601f19601f82011682018060405250810190611e4c919061319a565b611e569042613328565b600383015490915060005b8181101561202257612010846003018281548110611e8157611e81613340565b6000918252602090912001546004860180546001600160a01b039092169184908110611eaf57611eaf613340565b9060005260206000200154866005018481548110611ecf57611ecf613340565b906000526020600020018054611ee4906132ed565b80601f0160208091040260200160405190810160405280929190818152602001828054611f10906132ed565b8015611f5d5780601f10611f3257610100808354040283529160200191611f5d565b820191906000526020600020905b815481529060010190602001808311611f4057829003601f168201915b5050505050876006018581548110611f7757611f77613340565b906000526020600020018054611f8c906132ed565b80601f0160208091040260200160405190810160405280929190818152602001828054611fb8906132ed565b80156120055780601f10611fda57610100808354040283529160200191612005565b820191906000526020600020905b815481529060010190602001808311611fe857829003601f168201915b5050505050876126d7565b8061201a81613443565b915050611e61565b506002830182905560408051858152602081018490527f9a2e42fd6722813d69113e7d0079d3d940171428df7373df9c7f7617cfda28929101611164565b600561206b82610d34565b600781111561207c5761207c612d38565b146120fd5760405162461bcd60e51b815260206004820152604560248201527f476f7665726e6f72416c7068613a3a657865637574653a2070726f706f73616c60448201527f2063616e206f6e6c7920626520657865637574656420696620697420697320716064820152641d595d595960da1b608482015260a401610da2565b600081815260066020526040812060018101805461ff001916610100179055600381015490915b8181101561227d576000546004840180546001600160a01b0390921691630825f38f91908490811061215857612158613340565b906000526020600020015485600301848154811061217857612178613340565b6000918252602090912001546004870180546001600160a01b0390921691869081106121a6576121a6613340565b90600052602060002001548760050186815481106121c6576121c6613340565b906000526020600020018860060187815481106121e5576121e5613340565b9060005260206000200189600201546040518763ffffffff1660e01b81526004016122149594939291906133f7565b6000604051808303818588803b15801561222d57600080fd5b505af1158015612241573d6000803e3d6000fd5b50505050506040513d6000823e601f3d908101601f1916820160405261226a9190810190613276565b508061227581613443565b915050612124565b506040518381527f712ae1383f79ac853f8d882153778e0260ef8f03b504e2866e0593e04d2b291f9060200160405180910390a1505050565b6000546001600160a01b0316331461232d5760405162461bcd60e51b815260206004820152603460248201527f476f7665726e6f72416c7068613a3a5f6f6e6c7954696d656c6f636b3a206f6e6044820152731b1e481d1a5b595b1bd8dac818d85b8818d85b1b60621b6064820152608401610da2565b565b600161233a83610d34565b600781111561234b5761234b612d38565b146123ab5760405162461bcd60e51b815260206004820152602a60248201527f476f7665726e6f72416c7068613a3a5f63617374566f74653a20766f74696e67604482015269081a5cc818db1bdcd95960b21b6064820152608401610da2565b60008281526006602090815260408083206001600160a01b0387168452600c8101909252909120805460ff161561243a5760405162461bcd60e51b815260206004820152602d60248201527f476f7665726e6f72416c7068613a3a5f63617374566f74653a20766f7465722060448201526c185b1c9958591e481d9bdd1959609a1b6064820152608401610da2565b6007820154604051630748d63560e31b81526001600160a01b03878116600483015260248201929092526000917f00000000000000000000000000000000000000000000000000000000000000001690633a46b1a89060440160206040518083038186803b1580156124ab57600080fd5b505afa1580156124bf573d6000803e3d6000fd5b505050506040513d601f19601f820116820180604052508101906124e3919061319a565b9050831561252b5760098301546125049082906001600160e01b0316613513565b6009840180546001600160e01b0319166001600160e01b0392909216919091179055612567565b600a8301546125449082906001600160e01b0316613513565b600a840180546001600160e01b0319166001600160e01b03929092169190911790555b81546001600160e01b03821662010000810262010000600160f01b0319871515610100810261ffff199095169490941760011716178455604080516001600160a01b038a168152602081018990529081019290925260608201527f877856338e13f63d0c36822ff0ef736b80934cd90574a3a5bc9262c39d217c46906080016115ee565b6001546001600160a01b0316331461232d5760405162461bcd60e51b815260206004820152603460248201527f476f7665726e6f72416c7068613a3a5f6f6e6c79477561726469616e3a206f6e6044820152731b1e4819dd585c991a585b8818d85b8818d85b1b60621b6064820152608401610da2565b6005546001600160a01b0316331461232d5760405162461bcd60e51b815260206004820152603260248201527f476f7665726e6f72416c7068613a3a5f6f6e6c79436f756e63696c3a206f6e6c6044820152711e4818dbdd5b98da5b0818d85b8818d85b1b60721b6064820152608401610da2565b6000546040516001600160a01b039091169063f2b0653790612705908890889088908890889060200161353e565b604051602081830303815290604052805190602001206040518263ffffffff1660e01b815260040161273991815260200190565b60206040518083038186803b15801561275157600080fd5b505afa158015612765573d6000803e3d6000fd5b505050506040513d601f19601f82011682018060405250810190612789919061345e565b1561280a5760405162461bcd60e51b8152602060048201526044602482018190527f476f7665726e6f72416c7068613a3a5f71756575654f725265766572743a2070908201527f726f706f73616c20616374696f6e20616c7265616479207175657565642061746064820152632065746160e01b608482015260a401610da2565b600054604051633a66f90160e01b81526001600160a01b0390911690633a66f90190612842908890889088908890889060040161353e565b602060405180830381600087803b15801561285c57600080fd5b505af1158015612870573d6000803e3d6000fd5b505050506040513d601f19601f82011682018060405250810190612894919061319a565b505050505050565b8280548282559060005260206000209081019282156128f1579160200282015b828111156128f157825182546001600160a01b0319166001600160a01b039091161782556020909201916001909101906128bc565b506128fd9291506129ee565b5090565b8280548282559060005260206000209081019282156128f1579160200282015b828111156128f1578251825591602001919060010190612921565b828054828255906000526020600020908101928215612989579160200282015b828111156129895782518051612979918491602090910190612a03565b509160200191906001019061295c565b506128fd929150612a76565b8280548282559060005260206000209081019282156129e2579160200282015b828111156129e257825180516129d2918491602090910190612a03565b50916020019190600101906129b5565b506128fd929150612a93565b5b808211156128fd57600081556001016129ef565b828054612a0f906132ed565b90600052602060002090601f016020900481019282612a3157600085556128f1565b82601f10612a4a57805160ff19168380011785556128f1565b828001600101855582156128f157918201828111156128f1578251825591602001919060010190612921565b808211156128fd576000612a8a8282612ab0565b50600101612a76565b808211156128fd576000612aa78282612ab0565b50600101612a93565b508054612abc906132ed565b6000825580601f10612acc575050565b601f016020900490600052602060002090810190612aea91906129ee565b50565b600060208284031215612aff57600080fd5b5035919050565b80356001600160a01b0381168114612b1d57600080fd5b919050565b600060208284031215612b3457600080fd5b612b3d82612b06565b9392505050565b60005b83811015612b5f578181015183820152602001612b47565b838111156117945750506000910152565b60008151808452612b88816020860160208601612b44565b601f01601f19169290920160200192915050565b602081526000612b3d6020830184612b70565b8015158114612aea57600080fd5b60008060408385031215612bd057600080fd5b823591506020830135612be281612baf565b809150509250929050565b60008060408385031215612c0057600080fd5b612c0983612b06565b946020939093013593505050565b600081518084526020808501945080840160005b83811015612c505781516001600160a01b031687529582019590820190600101612c2b565b509495945050505050565b600081518084526020808501945080840160005b83811015612c5057815187529582019590820190600101612c6f565b600081518084526020808501808196508360051b8101915082860160005b85811015612cd3578284038952612cc1848351612b70565b98850198935090840190600101612ca9565b5091979650505050505050565b608081526000612cf36080830187612c17565b8281036020840152612d058187612c5b565b90508281036040840152612d198186612c8b565b90508281036060840152612d2d8185612c8b565b979650505050505050565b634e487b7160e01b600052602160045260246000fd5b6020810160088310612d7057634e487b7160e01b600052602160045260246000fd5b91905290565b600080600080600060a08688031215612d8e57600080fd5b853594506020860135612da081612baf565b9350604086013560ff81168114612db657600080fd5b94979396509394606081013594506080013592915050565b634e487b7160e01b600052604160045260246000fd5b604051601f8201601f1916810167ffffffffffffffff81118282101715612e0d57612e0d612dce565b604052919050565b600067ffffffffffffffff821115612e2f57612e2f612dce565b5060051b60200190565b600082601f830112612e4a57600080fd5b81356020612e5f612e5a83612e15565b612de4565b82815260059290921b84018101918181019086841115612e7e57600080fd5b8286015b84811015612ea057612e9381612b06565b8352918301918301612e82565b509695505050505050565b600082601f830112612ebc57600080fd5b81356020612ecc612e5a83612e15565b82815260059290921b84018101918181019086841115612eeb57600080fd5b8286015b84811015612ea05780358352918301918301612eef565b600067ffffffffffffffff821115612f2057612f20612dce565b50601f01601f191660200190565b6000612f3c612e5a84612f06565b9050828152838383011115612f5057600080fd5b828260208301376000602084830101529392505050565b600082601f830112612f7857600080fd5b612b3d83833560208501612f2e565b600082601f830112612f9857600080fd5b81356020612fa8612e5a83612e15565b82815260059290921b84018101918181019086841115612fc757600080fd5b8286015b84811015612ea057803567ffffffffffffffff811115612feb5760008081fd5b612ff98986838b0101612f67565b845250918301918301612fcb565b600082601f83011261301857600080fd5b81356020613028612e5a83612e15565b82815260059290921b8401810191818101908684111561304757600080fd5b8286015b84811015612ea057803567ffffffffffffffff81111561306b5760008081fd5b8701603f8101891361307d5760008081fd5b61308e898683013560408401612f2e565b84525091830191830161304b565b600080600080600060a086880312156130b457600080fd5b853567ffffffffffffffff808211156130cc57600080fd5b6130d889838a01612e39565b965060208801359150808211156130ee57600080fd5b6130fa89838a01612eab565b9550604088013591508082111561311057600080fd5b61311c89838a01612f87565b9450606088013591508082111561313257600080fd5b61313e89838a01613007565b9350608088013591508082111561315457600080fd5b5061316188828901612f67565b9150509295509295909350565b6000806040838503121561318157600080fd5b8235915061319160208401612b06565b90509250929050565b6000602082840312156131ac57600080fd5b5051919050565b634e487b7160e01b600052601160045260246000fd5b60008160001904831182151516156131e3576131e36131b3565b500290565b60008261320557634e487b7160e01b600052601260045260246000fd5b500490565b60018060a01b038516815283602082015260a06040820152601860a08201527f73657450656e64696e6741646d696e286164647265737329000000000000000060c082015260e06060820152600061326560e0830185612b70565b905082608083015295945050505050565b60006020828403121561328857600080fd5b815167ffffffffffffffff81111561329f57600080fd5b8201601f810184136132b057600080fd5b80516132be612e5a82612f06565b8181528560208385010111156132d357600080fd5b6132e4826020830160208601612b44565b95945050505050565b600181811c9082168061330157607f821691505b6020821081141561332257634e487b7160e01b600052602260045260246000fd5b50919050565b6000821982111561333b5761333b6131b3565b500190565b634e487b7160e01b600052603260045260246000fd5b8054600090600181811c908083168061337057607f831692505b602080841082141561339257634e487b7160e01b600052602260045260246000fd5b8388528180156133a957600181146133bd576133eb565b60ff198616898301526040890196506133eb565b876000528160002060005b868110156133e35781548b82018501529085019083016133c8565b8a0183019750505b50505050505092915050565b60018060a01b038616815284602082015260a06040820152600061341e60a0830186613356565b82810360608401526134308186613356565b9150508260808301529695505050505050565b6000600019821415613457576134576131b3565b5060010190565b60006020828403121561347057600080fd5b8151612b3d81612baf565b8981526001600160a01b0389166020820152610120604082018190526000906134a68382018b612c17565b905082810360608401526134ba818a612c5b565b905082810360808401526134ce8189612c8b565b905082810360a08401526134e28188612c8b565b90508560c08401528460e08401528281036101008401526135038185612b70565b9c9b505050505050505050505050565b60006001600160e01b03828116848216808303821115613535576135356131b3565b01949350505050565b60018060a01b038616815284602082015260a06040820152600061356560a0830186612b70565b82810360608401526134308186612b7056fea26469706673582212203d336b9d9c2538d1acf7933806833530b5065ce4d8d800d004b859c1a8f1cd0464736f6c63430008090033",
  "immutableReferences": {
    "17447": [
      {
        "length": 32,
        "start": 1592
      },
      {
        "length": 32,
        "start": 2303
      },
      {
        "length": 32,
        "start": 6618
      },
      {
        "length": 32,
        "start": 9321
      }
    ]
  },
  "source": "// SPDX-License-Identifier: UNLICENSED\n\npragma solidity =0.8.9;\n\nimport \"../governance/GovernorAlpha.sol\";\n\ncontract MockGovernorAlpha is GovernorAlpha {\n    constructor(\n        address guardian_,\n        address xVader_,\n        address feeReceiver_,\n        uint256 feeAmount_,\n        address council_\n    )\n        GovernorAlpha(\n            guardian_,\n            xVader_,\n            feeReceiver_,\n            feeAmount_,\n            council_\n        )\n    {}\n\n    function votingPeriod() public pure override returns (uint256) {\n        return 50;\n    }\n\n    /// @notice mock function to get chain id from CHAINID opcode.\n    /// Using ganache in truffle sets chainid but the a separate ganache or ganache in solidity-coverage\n    /// does not set the CHAINID opcode and it default to 1, which results in web3.eth.getChainId and CHAINID opcode\n    /// both returning different values.\n    /// https://github.com/ethereum/web3.py/issues/1677\n    function CHAINID() public view returns (uint256 chainId) {\n        assembly {\n            chainId := chainid()\n        }\n    }\n}\n",
  "sourcePath": "/home/mingyue/sub_contract_content/Web3Bugs/contracts/52/contracts/mocks/MockGovernorAlpha.sol",
  "compiler": {
    "name": "solc",
    "version": "0.8.9+commit.e5eed63a.Emscripten.clang"
  },
  "schemaVersion": "3.4.16",
  "updatedAt": "2025-03-06T07:23:55.075Z",
  "devdoc": {
    "kind": "dev",
    "methods": {
      "__abdicate()": {
        "details": "Gives up the guardian role associated with the contract. Requirements: - only callable by guardian"
      },
      "__acceptAdmin()": {
        "details": "Calls {acceptAdmin} on {Timelock} contract and makes the current contract the admin of {Timelock} contract. Requirements: - only guardian can call it - current contract must be the `pendingAdmin` in {Timelock} contract"
      },
      "__executeSetTimelockPendingAdmin(address,uint256)": {
        "details": "Executes the transaction to set `pendingAdmin` in {Timelock}. Requirements: - only callable by guardian"
      },
      "__queueSetTimelockPendingAdmin(address,uint256)": {
        "details": "Queues the transaction to set `pendingAdmin` in {Timelock}. Requirements: - only callable by guardian"
      },
      "cancel(uint256)": {
        "details": "Cancels the proposal with id {proposalId}. It also sets the {canceled} property of {Proposal} to `true` and removes the proposal's corresponding actions from {Timelock} contract. Requirements: - proposal must not be already executed"
      },
      "castVote(uint256,bool)": {
        "details": "Casts vote by {msg.sender}. It calls the internal function `_castVote` to perform vote casting."
      },
      "castVoteBySig(uint256,bool,uint8,bytes32,bytes32)": {
        "details": "Called by a relayer to cast vote by a message signer. Requirements: - {signatory} retrieved must not be a zero address"
      },
      "changeCouncil(address)": {
        "details": "Changes the {council}. Requirements: - can only be called by {Timelock} contract through a non-vetoeable proposal"
      },
      "changeFeeAmount(uint256)": {
        "details": "Changes the {feeAmount}. Requirements: - only guardian can call"
      },
      "changeFeeReceiver(address)": {
        "details": "Changes the {feeReceiver}. Requirements: - only guardian can call"
      },
      "execute(uint256)": {
        "details": "Executes a proposal after it has been queued and cool-off time has elapsed. It sets the {executed} status of the proposal to 'true'. Requirements: - the proposal in question must have been quened and cool-off time has elapsed - none of the actions of the proposal revert upon execution"
      },
      "getActions(uint256)": {
        "details": "Returns the actions contained in a proposal with id {proposalId}."
      },
      "getReceipt(uint256,address)": {
        "details": "Returns receipt of the {voter} against the proposal with id {proposalId}."
      },
      "propose(address[],uint256[],string[],bytes[],string)": {
        "details": "Allows any to make a proposal by depositing {feeAmount} xVader. It accepts targets along with the values, signature and calldatas for the actions to perform if the proposal succeeds. Requirements: - targets, values, signatures and calldatas arrays' lengths must be greater   than zero, less than {proposalMaxOperations} and are the same. - the caller must approve {feeAmount} xVader to this contract prior to call. - the caller must not have an active/pending proposal."
      },
      "queue(uint256)": {
        "details": "Queues a proposal by setting the hashes of its actions in {Timelock} contract. It also determines 'eta' for the proposal by adding timestamp to {delay} in {Timelock} and sets it against the proposal in question. Requirements: - the proposal in question must have succeeded either through majority for-votes   or has been vetoed in its favour."
      },
      "setTimelock(address)": {
        "details": "Sets timelock state variable. Contracts {GovernorAlpha} and {Timelock} have circular dependencies upon each other and constructors cannot be used to set them, hence this function is introduced to set {Timelock} in {GovernorAlpha} after it has been deployed. Requirements: - only guardian can call this function"
      },
      "state(uint256)": {
        "details": "Returns the current state of the proposal with id {proposalId}. Requirements: - The {proposalId} should be greater than 0 - The {proposalId} should be less than or equal to {proposalCount}"
      },
      "veto(uint256,bool)": {
        "details": "Allows vetoeing of a proposal in favor or against it. It also queues a proposal if it has been vetoed in favor of it and. sets the veto status of the proposal. Requirements: - can only be called by {council} - proposal being vetoed must be active or pending - none of the actions in proposal being vetoed point to the contract   itself. This to restrict council from vetoing a proposal intended   to change council."
      }
    },
    "version": 1
  },
  "userdoc": {
    "kind": "user",
    "methods": {
      "CHAINID()": {
        "notice": "mock function to get chain id from CHAINID opcode. Using ganache in truffle sets chainid but the a separate ganache or ganache in solidity-coverage does not set the CHAINID opcode and it default to 1, which results in web3.eth.getChainId and CHAINID opcode both returning different values. https://github.com/ethereum/web3.py/issues/1677"
      }
    },
    "version": 1
  }
}