{
  "contractName": "MockConstants",
  "abi": [
    {
      "inputs": [],
      "name": "BURN",
      "outputs": [
        {
          "internalType": "address",
          "name": "",
          "type": "address"
        }
      ],
      "stateMutability": "view",
      "type": "function"
    },
    {
      "inputs": [],
      "name": "ECOSYSTEM_GROWTH",
      "outputs": [
        {
          "internalType": "uint256",
          "name": "",
          "type": "uint256"
        }
      ],
      "stateMutability": "view",
      "type": "function"
    },
    {
      "inputs": [],
      "name": "EMISSION_ERA",
      "outputs": [
        {
          "internalType": "uint256",
          "name": "",
          "type": "uint256"
        }
      ],
      "stateMutability": "view",
      "type": "function"
    },
    {
      "inputs": [],
      "name": "INITIAL_EMISSION_CURVE",
      "outputs": [
        {
          "internalType": "uint256",
          "name": "",
          "type": "uint256"
        }
      ],
      "stateMutability": "view",
      "type": "function"
    },
    {
      "inputs": [],
      "name": "INITIAL_VADER_SUPPLY",
      "outputs": [
        {
          "internalType": "uint256",
          "name": "",
          "type": "uint256"
        }
      ],
      "stateMutability": "view",
      "type": "function"
    },
    {
      "inputs": [],
      "name": "MAX_BASIS_POINTS",
      "outputs": [
        {
          "internalType": "uint256",
          "name": "",
          "type": "uint256"
        }
      ],
      "stateMutability": "view",
      "type": "function"
    },
    {
      "inputs": [],
      "name": "MAX_FEE_BASIS_POINTS",
      "outputs": [
        {
          "internalType": "uint256",
          "name": "",
          "type": "uint256"
        }
      ],
      "stateMutability": "view",
      "type": "function"
    },
    {
      "inputs": [],
      "name": "ONE_YEAR",
      "outputs": [
        {
          "internalType": "uint256",
          "name": "",
          "type": "uint256"
        }
      ],
      "stateMutability": "view",
      "type": "function"
    },
    {
      "inputs": [],
      "name": "TEAM_ALLOCATION",
      "outputs": [
        {
          "internalType": "uint256",
          "name": "",
          "type": "uint256"
        }
      ],
      "stateMutability": "view",
      "type": "function"
    },
    {
      "inputs": [],
      "name": "VADER_VETHER_CONVERSION_RATE",
      "outputs": [
        {
          "internalType": "uint256",
          "name": "",
          "type": "uint256"
        }
      ],
      "stateMutability": "view",
      "type": "function"
    },
    {
      "inputs": [],
      "name": "VESTING_DURATION",
      "outputs": [
        {
          "internalType": "uint256",
          "name": "",
          "type": "uint256"
        }
      ],
      "stateMutability": "view",
      "type": "function"
    },
    {
      "inputs": [],
      "name": "VETH_ALLOCATION",
      "outputs": [
        {
          "internalType": "uint256",
          "name": "",
          "type": "uint256"
        }
      ],
      "stateMutability": "view",
      "type": "function"
    }
  ],
  "bytecode": "0x608060405234801561001057600080fd5b506101eb806100206000396000f3fe608060405234801561001057600080fd5b50600436106100b45760003560e01c80639dd8d1ee116100715780639dd8d1ee146101175780639fdca0cb1461011f578063c0a2526c14610128578063cd930b6f1461015b578063f4ea93d81461016d578063fd99cbed1461015b57600080fd5b806316d3bfbb146100b95780634befe2ca146100d75780634cfc4d30146100df5780636f5b637e146100e75780637c66903b146100fa57806398a0389614610104575b600080fd5b6100c46301e1338081565b6040519081526020015b60405180910390f35b6100c4606481565b6100c4610176565b6100c46b033b2e3c9fd0803ce800000081565b6100c46201518081565b6100c46b0813f3978f8940984400000081565b6100c4600581565b6100c46103e881565b61014373deaddeaddeaddeaddeaddeaddeaddeaddeaddead81565b6040516001600160a01b0390911681526020016100ce565b6100c46acecb8f27f4200f3a00000081565b6100c461271081565b6101856301e133806002610188565b81565b60008160001904831182151516156101b057634e487b7160e01b600052601160045260246000fd5b50029056fea2646970667358221220deeda47e426f11ae15941d35ceba08bdb7a68826315da95fbfe367e05a8c429064736f6c63430008090033",
  "immutableReferences": {},
  "source": "// SPDX-License-Identifier: Unlicense\r\n\r\npragma solidity =0.8.9;\r\n\r\nimport \"../shared/ProtocolConstants.sol\";\r\n\r\ncontract MockConstants is ProtocolConstants {\r\n    // Max VADER supply\r\n    uint256 public constant INITIAL_VADER_SUPPLY = _INITIAL_VADER_SUPPLY;\r\n\r\n    // Allocation for VETH holders\r\n    uint256 public constant VETH_ALLOCATION = _VETH_ALLOCATION;\r\n\r\n    // Vader -> Vether Conversion Rate (1000:1)\r\n    uint256 public constant VADER_VETHER_CONVERSION_RATE =\r\n        _VADER_VETHER_CONVERSION_RATE;\r\n\r\n    // Team allocation vested over {VESTING_DURATION} years\r\n    uint256 public constant TEAM_ALLOCATION = _TEAM_ALLOCATION;\r\n\r\n    // Ecosystem growth fund unlocked for partnerships & USDV provision\r\n    uint256 public constant ECOSYSTEM_GROWTH = _ECOSYSTEM_GROWTH;\r\n\r\n    // Emission Era\r\n    uint256 public constant EMISSION_ERA = _EMISSION_ERA;\r\n\r\n    // One year, utility\r\n    uint256 public constant ONE_YEAR = _ONE_YEAR;\r\n\r\n    // Initial Emission Curve, 5\r\n    uint256 public constant INITIAL_EMISSION_CURVE = _INITIAL_EMISSION_CURVE;\r\n\r\n    // Vesting Duration\r\n    uint256 public constant VESTING_DURATION = _VESTING_DURATION;\r\n\r\n    // Basis Points\r\n    uint256 public constant MAX_BASIS_POINTS = _MAX_BASIS_POINTS;\r\n\r\n    // Fee Basis Points\r\n    uint256 public constant MAX_FEE_BASIS_POINTS = _MAX_FEE_BASIS_POINTS;\r\n\r\n    // Burn Address\r\n    address public constant BURN = _BURN;\r\n}\r\n",
  "sourcePath": "/home/mingyue/sub_contract_content/Web3Bugs/contracts/52/contracts/mocks/MockConstants.sol",
  "compiler": {
    "name": "solc",
    "version": "0.8.9+commit.e5eed63a.Emscripten.clang"
  },
  "schemaVersion": "3.4.16",
  "updatedAt": "2025-03-06T07:23:55.073Z",
  "devdoc": {
    "kind": "dev",
    "methods": {},
    "version": 1
  },
  "userdoc": {
    "kind": "user",
    "methods": {},
    "version": 1
  }
}