{
  "contractName": "MockUniswapV2Library",
  "abi": [
    {
      "inputs": [
        {
          "internalType": "address",
          "name": "_factory",
          "type": "address"
        },
        {
          "internalType": "address",
          "name": "_token0",
          "type": "address"
        },
        {
          "internalType": "address",
          "name": "_token1",
          "type": "address"
        }
      ],
      "name": "pairFor",
      "outputs": [
        {
          "internalType": "address",
          "name": "",
          "type": "address"
        }
      ],
      "stateMutability": "pure",
      "type": "function"
    }
  ],
  "bytecode": "0x608060405234801561001057600080fd5b506102df806100206000396000f3fe608060405234801561001057600080fd5b506004361061002b5760003560e01c80636d91c0e214610030575b600080fd5b61004361003e366004610266565b61005f565b6040516001600160a01b03909116815260200160405180910390f35b600061006c848484610074565b949350505050565b6000806000610083858561014d565b6040516bffffffffffffffffffffffff19606084811b8216602084015283901b166034820152919350915086906048016040516020818303038152906040528051906020012060405160200161012b9291906001600160f81b0319815260609290921b6bffffffffffffffffffffffff1916600183015260158201527f96e8ac4277198ff8b6f785478aa9a39f403cb768dd02cbee326c3e7da348845f603582015260550190565b60408051601f1981840301815291905280516020909101209695505050505050565b600080826001600160a01b0316846001600160a01b031614156101c55760405162461bcd60e51b815260206004820152602560248201527f556e697377617056324c6962726172793a204944454e544943414c5f41444452604482015264455353455360d81b60648201526084015b60405180910390fd5b826001600160a01b0316846001600160a01b0316106101e55782846101e8565b83835b90925090506001600160a01b0382166102435760405162461bcd60e51b815260206004820152601e60248201527f556e697377617056324c6962726172793a205a45524f5f41444452455353000060448201526064016101bc565b9250929050565b80356001600160a01b038116811461026157600080fd5b919050565b60008060006060848603121561027b57600080fd5b6102848461024a565b92506102926020850161024a565b91506102a06040850161024a565b9050925092509256fea26469706673582212203449e5ce58269efc2d7ff13d2b7d4c3e9a32630ae2946a5047f733cf7663408564736f6c63430008090033",
  "immutableReferences": {},
  "source": "// SPDX-License-Identifier: Unlicense\n\npragma solidity =0.8.9;\n\nimport \"../external/libraries/UniswapV2Library.sol\";\n\ncontract MockUniswapV2Library {\n    function pairFor(\n        address _factory,\n        address _token0,\n        address _token1\n    ) external pure returns (address) {\n        return UniswapV2Library.pairFor(_factory, _token0, _token1);\n    }\n}\n",
  "sourcePath": "/home/mingyue/sub_contract_content/Web3Bugs/contracts/52/contracts/mocks/MockUniswapV2Library.sol",
  "compiler": {
    "name": "solc",
    "version": "0.8.9+commit.e5eed63a.Emscripten.clang"
  },
  "schemaVersion": "3.4.16",
  "updatedAt": "2025-03-06T07:23:55.082Z",
  "devdoc": {
    "kind": "dev",
    "methods": {},
    "version": 1
  },
  "userdoc": {
    "kind": "user",
    "methods": {},
    "version": 1
  }
}