{
  "contractName": "StakingRewards",
  "abi": [
    {
      "inputs": [
        {
          "internalType": "address",
          "name": "_owner",
          "type": "address"
        },
        {
          "internalType": "address",
          "name": "_rewardsDistribution",
          "type": "address"
        },
        {
          "internalType": "address",
          "name": "_rewardsToken",
          "type": "address"
        },
        {
          "internalType": "address",
          "name": "_stakingToken",
          "type": "address"
        }
      ],
      "stateMutability": "nonpayable",
      "type": "constructor"
    },
    {
      "anonymous": false,
      "inputs": [
        {
          "indexed": false,
          "internalType": "address",
          "name": "oldOwner",
          "type": "address"
        },
        {
          "indexed": false,
          "internalType": "address",
          "name": "newOwner",
          "type": "address"
        }
      ],
      "name": "OwnerChanged",
      "type": "event"
    },
    {
      "anonymous": false,
      "inputs": [
        {
          "indexed": false,
          "internalType": "address",
          "name": "newOwner",
          "type": "address"
        }
      ],
      "name": "OwnerNominated",
      "type": "event"
    },
    {
      "anonymous": false,
      "inputs": [
        {
          "indexed": false,
          "internalType": "bool",
          "name": "isPaused",
          "type": "bool"
        }
      ],
      "name": "PauseChanged",
      "type": "event"
    },
    {
      "anonymous": false,
      "inputs": [
        {
          "indexed": false,
          "internalType": "address",
          "name": "token",
          "type": "address"
        },
        {
          "indexed": false,
          "internalType": "uint256",
          "name": "amount",
          "type": "uint256"
        }
      ],
      "name": "Recovered",
      "type": "event"
    },
    {
      "anonymous": false,
      "inputs": [
        {
          "indexed": false,
          "internalType": "uint256",
          "name": "reward",
          "type": "uint256"
        }
      ],
      "name": "RewardAdded",
      "type": "event"
    },
    {
      "anonymous": false,
      "inputs": [
        {
          "indexed": true,
          "internalType": "address",
          "name": "user",
          "type": "address"
        },
        {
          "indexed": false,
          "internalType": "uint256",
          "name": "reward",
          "type": "uint256"
        }
      ],
      "name": "RewardPaid",
      "type": "event"
    },
    {
      "anonymous": false,
      "inputs": [
        {
          "indexed": false,
          "internalType": "uint256",
          "name": "newDuration",
          "type": "uint256"
        }
      ],
      "name": "RewardsDurationUpdated",
      "type": "event"
    },
    {
      "anonymous": false,
      "inputs": [
        {
          "indexed": true,
          "internalType": "address",
          "name": "user",
          "type": "address"
        },
        {
          "indexed": false,
          "internalType": "uint256",
          "name": "amount",
          "type": "uint256"
        }
      ],
      "name": "Staked",
      "type": "event"
    },
    {
      "anonymous": false,
      "inputs": [
        {
          "indexed": true,
          "internalType": "address",
          "name": "user",
          "type": "address"
        },
        {
          "indexed": false,
          "internalType": "uint256",
          "name": "amount",
          "type": "uint256"
        }
      ],
      "name": "Withdrawn",
      "type": "event"
    },
    {
      "inputs": [],
      "name": "acceptOwnership",
      "outputs": [],
      "stateMutability": "nonpayable",
      "type": "function"
    },
    {
      "inputs": [],
      "name": "lastPauseTime",
      "outputs": [
        {
          "internalType": "uint256",
          "name": "",
          "type": "uint256"
        }
      ],
      "stateMutability": "view",
      "type": "function"
    },
    {
      "inputs": [],
      "name": "lastUpdateTime",
      "outputs": [
        {
          "internalType": "uint256",
          "name": "",
          "type": "uint256"
        }
      ],
      "stateMutability": "view",
      "type": "function"
    },
    {
      "inputs": [
        {
          "internalType": "address",
          "name": "_owner",
          "type": "address"
        }
      ],
      "name": "nominateNewOwner",
      "outputs": [],
      "stateMutability": "nonpayable",
      "type": "function"
    },
    {
      "inputs": [],
      "name": "nominatedOwner",
      "outputs": [
        {
          "internalType": "address",
          "name": "",
          "type": "address"
        }
      ],
      "stateMutability": "view",
      "type": "function"
    },
    {
      "inputs": [],
      "name": "owner",
      "outputs": [
        {
          "internalType": "address",
          "name": "",
          "type": "address"
        }
      ],
      "stateMutability": "view",
      "type": "function"
    },
    {
      "inputs": [],
      "name": "paused",
      "outputs": [
        {
          "internalType": "bool",
          "name": "",
          "type": "bool"
        }
      ],
      "stateMutability": "view",
      "type": "function"
    },
    {
      "inputs": [],
      "name": "periodFinish",
      "outputs": [
        {
          "internalType": "uint256",
          "name": "",
          "type": "uint256"
        }
      ],
      "stateMutability": "view",
      "type": "function"
    },
    {
      "inputs": [],
      "name": "rewardPerTokenStored",
      "outputs": [
        {
          "internalType": "uint256",
          "name": "",
          "type": "uint256"
        }
      ],
      "stateMutability": "view",
      "type": "function"
    },
    {
      "inputs": [],
      "name": "rewardRate",
      "outputs": [
        {
          "internalType": "uint256",
          "name": "",
          "type": "uint256"
        }
      ],
      "stateMutability": "view",
      "type": "function"
    },
    {
      "inputs": [
        {
          "internalType": "address",
          "name": "",
          "type": "address"
        }
      ],
      "name": "rewards",
      "outputs": [
        {
          "internalType": "uint256",
          "name": "",
          "type": "uint256"
        }
      ],
      "stateMutability": "view",
      "type": "function"
    },
    {
      "inputs": [],
      "name": "rewardsDistribution",
      "outputs": [
        {
          "internalType": "address",
          "name": "",
          "type": "address"
        }
      ],
      "stateMutability": "view",
      "type": "function"
    },
    {
      "inputs": [],
      "name": "rewardsDuration",
      "outputs": [
        {
          "internalType": "uint256",
          "name": "",
          "type": "uint256"
        }
      ],
      "stateMutability": "view",
      "type": "function"
    },
    {
      "inputs": [],
      "name": "rewardsToken",
      "outputs": [
        {
          "internalType": "contract IERC20",
          "name": "",
          "type": "address"
        }
      ],
      "stateMutability": "view",
      "type": "function"
    },
    {
      "inputs": [
        {
          "internalType": "bool",
          "name": "_paused",
          "type": "bool"
        }
      ],
      "name": "setPaused",
      "outputs": [],
      "stateMutability": "nonpayable",
      "type": "function"
    },
    {
      "inputs": [
        {
          "internalType": "address",
          "name": "_rewardsDistribution",
          "type": "address"
        }
      ],
      "name": "setRewardsDistribution",
      "outputs": [],
      "stateMutability": "nonpayable",
      "type": "function"
    },
    {
      "inputs": [],
      "name": "stakingToken",
      "outputs": [
        {
          "internalType": "contract IERC20",
          "name": "",
          "type": "address"
        }
      ],
      "stateMutability": "view",
      "type": "function"
    },
    {
      "inputs": [
        {
          "internalType": "address",
          "name": "",
          "type": "address"
        }
      ],
      "name": "userRewardPerTokenPaid",
      "outputs": [
        {
          "internalType": "uint256",
          "name": "",
          "type": "uint256"
        }
      ],
      "stateMutability": "view",
      "type": "function"
    },
    {
      "inputs": [],
      "name": "totalSupply",
      "outputs": [
        {
          "internalType": "uint256",
          "name": "",
          "type": "uint256"
        }
      ],
      "stateMutability": "view",
      "type": "function"
    },
    {
      "inputs": [
        {
          "internalType": "address",
          "name": "account",
          "type": "address"
        }
      ],
      "name": "balanceOf",
      "outputs": [
        {
          "internalType": "uint256",
          "name": "",
          "type": "uint256"
        }
      ],
      "stateMutability": "view",
      "type": "function"
    },
    {
      "inputs": [],
      "name": "lastTimeRewardApplicable",
      "outputs": [
        {
          "internalType": "uint256",
          "name": "",
          "type": "uint256"
        }
      ],
      "stateMutability": "view",
      "type": "function"
    },
    {
      "inputs": [],
      "name": "rewardPerToken",
      "outputs": [
        {
          "internalType": "uint256",
          "name": "",
          "type": "uint256"
        }
      ],
      "stateMutability": "view",
      "type": "function"
    },
    {
      "inputs": [
        {
          "internalType": "address",
          "name": "account",
          "type": "address"
        }
      ],
      "name": "earned",
      "outputs": [
        {
          "internalType": "uint256",
          "name": "",
          "type": "uint256"
        }
      ],
      "stateMutability": "view",
      "type": "function"
    },
    {
      "inputs": [],
      "name": "getRewardForDuration",
      "outputs": [
        {
          "internalType": "uint256",
          "name": "",
          "type": "uint256"
        }
      ],
      "stateMutability": "view",
      "type": "function"
    },
    {
      "inputs": [
        {
          "internalType": "uint256",
          "name": "amount",
          "type": "uint256"
        }
      ],
      "name": "stake",
      "outputs": [],
      "stateMutability": "nonpayable",
      "type": "function"
    },
    {
      "inputs": [
        {
          "internalType": "uint256",
          "name": "amount",
          "type": "uint256"
        }
      ],
      "name": "withdraw",
      "outputs": [],
      "stateMutability": "nonpayable",
      "type": "function"
    },
    {
      "inputs": [],
      "name": "getReward",
      "outputs": [],
      "stateMutability": "nonpayable",
      "type": "function"
    },
    {
      "inputs": [],
      "name": "exit",
      "outputs": [],
      "stateMutability": "nonpayable",
      "type": "function"
    },
    {
      "inputs": [
        {
          "internalType": "uint256",
          "name": "reward",
          "type": "uint256"
        }
      ],
      "name": "notifyRewardAmount",
      "outputs": [],
      "stateMutability": "nonpayable",
      "type": "function"
    },
    {
      "inputs": [
        {
          "internalType": "address",
          "name": "tokenAddress",
          "type": "address"
        },
        {
          "internalType": "uint256",
          "name": "tokenAmount",
          "type": "uint256"
        }
      ],
      "name": "recoverERC20",
      "outputs": [],
      "stateMutability": "nonpayable",
      "type": "function"
    },
    {
      "inputs": [
        {
          "internalType": "uint256",
          "name": "_rewardsDuration",
          "type": "uint256"
        }
      ],
      "name": "setRewardsDuration",
      "outputs": [],
      "stateMutability": "nonpayable",
      "type": "function"
    }
  ],
  "bytecode": "0x60c060405262093a806008553480156200001857600080fd5b506040516200187d3803806200187d8339810160408190526200003b916200029a565b836001600160a01b038116620000985760405162461bcd60e51b815260206004820152601960248201527f4f776e657220616464726573732063616e6e6f7420626520300000000000000060448201526064015b60405180910390fd5b600080546001600160a01b0319166001600160a01b03831690811782556040805192835260208301919091527fb532073b38c83145e3e5135377a08bf9aab55bc0fd7c1179cd4fb995d2a5159c910160405180910390a15060016003556000546001600160a01b0316620001435760405162461bcd60e51b815260206004820152601160248201527013dddb995c881b5d5cdd081899481cd95d607a1b60448201526064016200008f565b6001600160a01b0383166200019b5760405162461bcd60e51b815260206004820152601a60248201527f7265776172642064697374203d207a65726f206164647265737300000000000060448201526064016200008f565b6001600160a01b038216620001f35760405162461bcd60e51b815260206004820152601b60248201527f72657761726420746f6b656e203d207a65726f2061646472657373000000000060448201526064016200008f565b6001600160a01b0381166200024b5760405162461bcd60e51b815260206004820152601c60248201527f7374616b696e6720746f6b656e203d207a65726f20616464726573730000000060448201526064016200008f565b6001600160a01b03918216608052811660a052600280546001600160a01b0319169290911691909117905550620002f7565b80516001600160a01b03811681146200029557600080fd5b919050565b60008060008060808587031215620002b157600080fd5b620002bc856200027d565b9350620002cc602086016200027d565b9250620002dc604086016200027d565b9150620002ec606086016200027d565b905092959194509250565b60805160a05161153d620003406000396000818161033a015281816106b901528181610b8c0152610d990152600081816104000152818161084f0152610a0e015261153d6000f3fe608060405234801561001057600080fd5b50600436106101e45760003560e01c806372f702f31161010f578063a694fc3a116100a2578063d1af0c7d11610071578063d1af0c7d146103fb578063df136d6514610422578063e9fad8ee1461042b578063ebe2b12b1461043357600080fd5b8063a694fc3a146103c4578063c8f33c91146103d7578063cc1a378f146103e0578063cd3daf9d146103f357600080fd5b80638980f11f116100de5780638980f11f146103755780638b876347146103885780638da5cb5b146103a857806391b4ded9146103bb57600080fd5b806372f702f31461033557806379ba50971461035c5780637b0a47ee1461036457806380faa57d1461036d57600080fd5b80632e1a7d4d116101875780633fc6df6e116101565780633fc6df6e146102b157806353a47bb7146102dc5780635c975abb146102ef57806370a082311461030c57600080fd5b80632e1a7d4d1461027a578063386a95251461028d5780633c6b16ab146102965780633d18b912146102a957600080fd5b806316c38b3c116101c357806316c38b3c1461024457806318160ddd14610257578063197621431461025f5780631c1f78eb1461027257600080fd5b80628cc262146101e95780630700037d1461020f5780631627540c1461022f575b600080fd5b6101fc6101f7366004611340565b61043c565b6040519081526020015b60405180910390f35b6101fc61021d366004611340565b600c6020526000908152604090205481565b61024261023d366004611340565b6104b9565b005b610242610252366004611370565b610516565b600d546101fc565b61024261026d366004611340565b610583565b6101fc6105ad565b61024261028836600461138d565b6105c4565b6101fc60085481565b6102426102a436600461138d565b610721565b61024261097f565b6002546102c4906001600160a01b031681565b6040516001600160a01b039091168152602001610206565b6001546102c4906001600160a01b031681565b6005546102fc9060ff1681565b6040519015158152602001610206565b6101fc61031a366004611340565b6001600160a01b03166000908152600e602052604090205490565b6102c47f000000000000000000000000000000000000000000000000000000000000000081565b610242610a81565b6101fc60075481565b6101fc610b6b565b6102426103833660046113a6565b610b82565b6101fc610396366004611340565b600b6020526000908152604090205481565b6000546102c4906001600160a01b031681565b6101fc60045481565b6102426103d236600461138d565b610c70565b6101fc60095481565b6102426103ee36600461138d565b610df3565b6101fc610ecd565b6102c47f000000000000000000000000000000000000000000000000000000000000000081565b6101fc600a5481565b610242610f2f565b6101fc60065481565b6001600160a01b0381166000908152600c6020908152604080832054600b909252822054670de0b6b3a764000090610472610ecd565b61047c91906113e6565b61048691906113fd565b6001600160a01b0384166000908152600e60205260409020546104a9919061141f565b6104b3919061143e565b92915050565b6104c1610f50565b600180546001600160a01b0319166001600160a01b0383169081179091556040519081527f906a1c6bd7e3091ea86693dd029a831c19049ce77f1dce2ce0bab1cacbabce22906020015b60405180910390a150565b61051e610f50565b60055460ff16151581151514156105325750565b6005805460ff1916821580159190911790915561054e57426004555b60405181151581527f8fb6c181ee25a520cf3dd6565006ef91229fcfe5a989566c2a3b8c115570cec59060200161050b565b50565b61058b610f50565b600280546001600160a01b0319166001600160a01b0392909216919091179055565b60006008546007546105bf919061141f565b905090565b6105cc610fc2565b336105d5610ecd565b600a556105e0610b6b565b6009556001600160a01b03811615610627576105fb8161043c565b6001600160a01b0382166000908152600c6020908152604080832093909355600a54600b909152919020555b600082116106705760405162461bcd60e51b8152602060048201526011602482015270043616e6e6f74207769746864726177203607c1b60448201526064015b60405180910390fd5b81600d600082825461068291906113e6565b9091555050336000908152600e6020526040812080548492906106a69084906113e6565b909155506106e090506001600160a01b037f000000000000000000000000000000000000000000000000000000000000000016338461101c565b60405182815233907f7084f5476618d8e60b11ef0d7d3f06914655adb8793e28ff7f018d4c76d505d5906020015b60405180910390a2506105806001600355565b6002546001600160a01b0316331461077b5760405162461bcd60e51b815260206004820152601760248201527f6e6f742072657761726420646973747269627574696f6e0000000000000000006044820152606401610667565b6000610785610ecd565b600a55610790610b6b565b6009556001600160a01b038116156107d7576107ab8161043c565b6001600160a01b0382166000908152600c6020908152604080832093909355600a54600b909152919020555b60065442106107f5576008546107ed90836113fd565b600755610837565b60004260065461080591906113e6565b9050600060075482610817919061141f565b600854909150610827828661143e565b61083191906113fd565b60075550505b6040516370a0823160e01b81523060048201526000907f00000000000000000000000000000000000000000000000000000000000000006001600160a01b0316906370a082319060240160206040518083038186803b15801561089957600080fd5b505afa1580156108ad573d6000803e3d6000fd5b505050506040513d601f19601f820116820180604052508101906108d19190611456565b9050600854816108e191906113fd565b60075411156109325760405162461bcd60e51b815260206004820152601860248201527f50726f76696465642072657761726420746f6f206869676800000000000000006044820152606401610667565b4260098190556008546109449161143e565b6006556040518381527fde88a922e0d3b88b24e9623efeb464919c6bf9f66857a65e2bfcf2ce87a9433d9060200160405180910390a1505050565b610987610fc2565b33610990610ecd565b600a5561099b610b6b565b6009556001600160a01b038116156109e2576109b68161043c565b6001600160a01b0382166000908152600c6020908152604080832093909355600a54600b909152919020555b336000908152600c60205260409020548015610a7357336000818152600c6020526040812055610a3d907f00000000000000000000000000000000000000000000000000000000000000006001600160a01b0316908361101c565b60405181815233907fe2403640ba68fed3a2f88b7557551d1993f84b99bb10ff833f0cf8db0c5e04869060200160405180910390a25b5050610a7f6001600355565b565b6001546001600160a01b03163314610af95760405162461bcd60e51b815260206004820152603560248201527f596f75206d757374206265206e6f6d696e61746564206265666f726520796f7560448201527402063616e20616363657074206f776e65727368697605c1b6064820152608401610667565b600054600154604080516001600160a01b0393841681529290911660208301527fb532073b38c83145e3e5135377a08bf9aab55bc0fd7c1179cd4fb995d2a5159c910160405180910390a160018054600080546001600160a01b03199081166001600160a01b03841617909155169055565b60006006544210610b7d575060065490565b504290565b610b8a610f50565b7f00000000000000000000000000000000000000000000000000000000000000006001600160a01b0316826001600160a01b03161415610c165760405162461bcd60e51b815260206004820152602160248201527f43616e6e6f7420776974686472617720746865207374616b696e6720746f6b656044820152603760f91b6064820152608401610667565b610c2a6001600160a01b038316338361101c565b604080516001600160a01b0384168152602081018390527f8c1256b8896378cd5044f80c202f9772b9d77dc85c8a6eb51967210b09bfaa28910160405180910390a15050565b610c78610fc2565b60055460ff1615610cb45760405162461bcd60e51b81526020600482015260066024820152651c185d5cd95960d21b6044820152606401610667565b33610cbd610ecd565b600a55610cc8610b6b565b6009556001600160a01b03811615610d0f57610ce38161043c565b6001600160a01b0382166000908152600c6020908152604080832093909355600a54600b909152919020555b60008211610d505760405162461bcd60e51b815260206004820152600e60248201526d043616e6e6f74207374616b6520360941b6044820152606401610667565b81600d6000828254610d62919061143e565b9091555050336000908152600e602052604081208054849290610d8690849061143e565b90915550610dc190506001600160a01b037f000000000000000000000000000000000000000000000000000000000000000016333085611084565b60405182815233907f9e71bc8eea02a63969f509818f2dafb9254532904319f9dbda79b67bd34a5f3d9060200161070e565b610dfb610f50565b6006544211610e985760405162461bcd60e51b815260206004820152605860248201527f50726576696f7573207265776172647320706572696f64206d7573742062652060448201527f636f6d706c657465206265666f7265206368616e67696e67207468652064757260648201527f6174696f6e20666f7220746865206e657720706572696f640000000000000000608482015260a401610667565b60088190556040518181527ffb46ca5a5e06d4540d6387b930a7c978bce0db5f449ec6b3f5d07c6e1d44f2d39060200161050b565b6000600d5460001415610ee15750600a5490565b600d54600754600954610ef2610b6b565b610efc91906113e6565b610f06919061141f565b610f1890670de0b6b3a764000061141f565b610f2291906113fd565b600a546105bf919061143e565b336000908152600e6020526040902054610f48906105c4565b610a7f61097f565b6000546001600160a01b03163314610a7f5760405162461bcd60e51b815260206004820152602f60248201527f4f6e6c792074686520636f6e7472616374206f776e6572206d6179207065726660448201526e37b936903a3434b99030b1ba34b7b760891b6064820152608401610667565b600260035414156110155760405162461bcd60e51b815260206004820152601f60248201527f5265656e7472616e637947756172643a207265656e7472616e742063616c6c006044820152606401610667565b6002600355565b6040516001600160a01b03831660248201526044810182905261107f90849063a9059cbb60e01b906064015b60408051601f198184030181529190526020810180516001600160e01b03166001600160e01b0319909316929092179091526110c2565b505050565b6040516001600160a01b03808516602483015283166044820152606481018290526110bc9085906323b872dd60e01b90608401611048565b50505050565b6000611117826040518060400160405280602081526020017f5361666545524332303a206c6f772d6c6576656c2063616c6c206661696c6564815250856001600160a01b03166111979092919063ffffffff16565b9050805160001480611138575080806020019051810190611138919061146f565b61107f5760405162461bcd60e51b815260206004820152602a60248201527f5361666545524332303a204552433230206f7065726174696f6e20646964206e6044820152691bdd081cdd58d8d9595960b21b6064820152608401610667565b60606111a684846000856111ae565b949350505050565b60608247101561120f5760405162461bcd60e51b815260206004820152602660248201527f416464726573733a20696e73756666696369656e742062616c616e636520666f6044820152651c8818d85b1b60d21b6064820152608401610667565b600080866001600160a01b0316858760405161122b91906114b8565b60006040518083038185875af1925050503d8060008114611268576040519150601f19603f3d011682016040523d82523d6000602084013e61126d565b606091505b509150915061127e87838387611289565b979650505050505050565b606083156112f55782516112ee576001600160a01b0385163b6112ee5760405162461bcd60e51b815260206004820152601d60248201527f416464726573733a2063616c6c20746f206e6f6e2d636f6e74726163740000006044820152606401610667565b50816111a6565b6111a6838381511561130a5781518083602001fd5b8060405162461bcd60e51b815260040161066791906114d4565b80356001600160a01b038116811461133b57600080fd5b919050565b60006020828403121561135257600080fd5b61135b82611324565b9392505050565b801515811461058057600080fd5b60006020828403121561138257600080fd5b813561135b81611362565b60006020828403121561139f57600080fd5b5035919050565b600080604083850312156113b957600080fd5b6113c283611324565b946020939093013593505050565b634e487b7160e01b600052601160045260246000fd5b6000828210156113f8576113f86113d0565b500390565b60008261141a57634e487b7160e01b600052601260045260246000fd5b500490565b6000816000190483118215151615611439576114396113d0565b500290565b60008219821115611451576114516113d0565b500190565b60006020828403121561146857600080fd5b5051919050565b60006020828403121561148157600080fd5b815161135b81611362565b60005b838110156114a757818101518382015260200161148f565b838111156110bc5750506000910152565b600082516114ca81846020870161148c565b9190910192915050565b60208152600082518060208401526114f381604085016020870161148c565b601f01601f1916919091016040019291505056fea26469706673582212200b9ccabe46187b9c984f95001a99b9174c54ac1ebfe4496d92b22980cd3aa35264736f6c63430008090033",
  "immutableReferences": {
    "21730": [
      {
        "length": 32,
        "start": 1024
      },
      {
        "length": 32,
        "start": 2127
      },
      {
        "length": 32,
        "start": 2574
      }
    ],
    "21733": [
      {
        "length": 32,
        "start": 826
      },
      {
        "length": 32,
        "start": 1721
      },
      {
        "length": 32,
        "start": 2956
      },
      {
        "length": 32,
        "start": 3481
      }
    ]
  },
  "source": "// SPDX-License-Identifier: Unlicense\npragma solidity 0.8.9;\n\nimport \"@openzeppelin/contracts/token/ERC20/IERC20.sol\";\nimport \"@openzeppelin/contracts/token/ERC20/utils/SafeERC20.sol\";\nimport \"@openzeppelin/contracts/security/ReentrancyGuard.sol\";\n\nimport \"./IStakingRewards.sol\";\nimport \"./RewardsDistributionRecipient.sol\";\nimport \"./Pausable.sol\";\n\ncontract StakingRewards is\n    IStakingRewards,\n    RewardsDistributionRecipient,\n    ReentrancyGuard,\n    Pausable\n{\n    using SafeERC20 for IERC20;\n\n    /* ========== STATE VARIABLES ========== */\n\n    IERC20 public immutable rewardsToken;\n    IERC20 public immutable stakingToken;\n    uint public periodFinish;\n    uint public rewardRate;\n    uint public rewardsDuration = 7 days;\n    uint public lastUpdateTime;\n    uint public rewardPerTokenStored;\n\n    mapping(address => uint) public userRewardPerTokenPaid;\n    mapping(address => uint) public rewards;\n\n    uint private _totalSupply;\n    mapping(address => uint) private _balances;\n\n    /* ========== CONSTRUCTOR ========== */\n\n    constructor(\n        address _owner,\n        address _rewardsDistribution,\n        address _rewardsToken,\n        address _stakingToken\n    ) Owned(_owner) {\n        require(_rewardsDistribution != address(0), \"reward dist = zero address\");\n        require(_rewardsToken != address(0), \"reward token = zero address\");\n        require(_stakingToken != address(0), \"staking token = zero address\");\n\n        rewardsToken = IERC20(_rewardsToken);\n        stakingToken = IERC20(_stakingToken);\n        rewardsDistribution = _rewardsDistribution;\n    }\n\n    /* ========== VIEWS ========== */\n\n    function totalSupply() external view returns (uint) {\n        return _totalSupply;\n    }\n\n    function balanceOf(address account) external view returns (uint) {\n        return _balances[account];\n    }\n\n    function lastTimeRewardApplicable() public view returns (uint) {\n        return block.timestamp < periodFinish ? block.timestamp : periodFinish;\n    }\n\n    function rewardPerToken() public view returns (uint) {\n        if (_totalSupply == 0) {\n            return rewardPerTokenStored;\n        }\n        return\n            rewardPerTokenStored +\n            ((lastTimeRewardApplicable() - lastUpdateTime) * rewardRate * 1e18) /\n            _totalSupply;\n    }\n\n    function earned(address account) public view returns (uint) {\n        return\n            _balances[account] *\n            ((rewardPerToken() - userRewardPerTokenPaid[account]) / 1e18) +\n            rewards[account];\n    }\n\n    function getRewardForDuration() external view returns (uint) {\n        return rewardRate * rewardsDuration;\n    }\n\n    /* ========== MUTATIVE FUNCTIONS ========== */\n\n    function stake(uint amount)\n        external\n        nonReentrant\n        notPaused\n        updateReward(msg.sender)\n    {\n        require(amount > 0, \"Cannot stake 0\");\n        _totalSupply += amount;\n        _balances[msg.sender] += amount;\n        stakingToken.safeTransferFrom(msg.sender, address(this), amount);\n        emit Staked(msg.sender, amount);\n    }\n\n    function withdraw(uint amount) public nonReentrant updateReward(msg.sender) {\n        require(amount > 0, \"Cannot withdraw 0\");\n        _totalSupply -= amount;\n        _balances[msg.sender] -= amount;\n        stakingToken.safeTransfer(msg.sender, amount);\n        emit Withdrawn(msg.sender, amount);\n    }\n\n    function getReward() public nonReentrant updateReward(msg.sender) {\n        uint reward = rewards[msg.sender];\n        if (reward > 0) {\n            rewards[msg.sender] = 0;\n            rewardsToken.safeTransfer(msg.sender, reward);\n            emit RewardPaid(msg.sender, reward);\n        }\n    }\n\n    function exit() external {\n        withdraw(_balances[msg.sender]);\n        getReward();\n    }\n\n    /* ========== RESTRICTED FUNCTIONS ========== */\n\n    function notifyRewardAmount(uint reward)\n        external\n        override\n        onlyRewardsDistribution\n        updateReward(address(0))\n    {\n        if (block.timestamp >= periodFinish) {\n            rewardRate = reward / rewardsDuration;\n        } else {\n            uint remaining = periodFinish - block.timestamp;\n            uint leftover = remaining * rewardRate;\n            rewardRate = (reward + leftover) / rewardsDuration;\n        }\n        // Ensure the provided reward amount is not more than the balance in the contract.\n        // This keeps the reward rate in the right range, preventing overflows due to\n        // very high values of rewardRate in the earned and rewardsPerToken functions;\n        // Reward + leftover must be less than 2^256 / 10^18 to avoid overflow.\n        uint balance = rewardsToken.balanceOf(address(this));\n        require(rewardRate <= balance / rewardsDuration, \"Provided reward too high\");\n\n        lastUpdateTime = block.timestamp;\n        periodFinish = block.timestamp + rewardsDuration;\n        emit RewardAdded(reward);\n    }\n\n    // Added to support recovering LP Rewards from other systems such as BAL to be distributed to holders\n    function recoverERC20(address tokenAddress, uint tokenAmount) external onlyOwner {\n        require(\n            tokenAddress != address(stakingToken),\n            \"Cannot withdraw the staking token\"\n        );\n        IERC20(tokenAddress).safeTransfer(msg.sender, tokenAmount);\n        emit Recovered(tokenAddress, tokenAmount);\n    }\n\n    function setRewardsDuration(uint _rewardsDuration) external onlyOwner {\n        require(\n            block.timestamp > periodFinish,\n            \"Previous rewards period must be complete before changing the duration for the new period\"\n        );\n        rewardsDuration = _rewardsDuration;\n        emit RewardsDurationUpdated(_rewardsDuration);\n    }\n\n    /* ========== MODIFIERS ========== */\n\n    modifier updateReward(address account) {\n        rewardPerTokenStored = rewardPerToken();\n        lastUpdateTime = lastTimeRewardApplicable();\n        if (account != address(0)) {\n            rewards[account] = earned(account);\n            userRewardPerTokenPaid[account] = rewardPerTokenStored;\n        }\n        _;\n    }\n\n    /* ========== EVENTS ========== */\n\n    event RewardAdded(uint reward);\n    event Staked(address indexed user, uint amount);\n    event Withdrawn(address indexed user, uint amount);\n    event RewardPaid(address indexed user, uint reward);\n    event RewardsDurationUpdated(uint newDuration);\n    event Recovered(address token, uint amount);\n}\n",
  "sourcePath": "/home/mingyue/sub_contract_content/Web3Bugs/contracts/52/contracts/staking-rewards/StakingRewards.sol",
  "compiler": {
    "name": "solc",
    "version": "0.8.9+commit.e5eed63a.Emscripten.clang"
  },
  "schemaVersion": "3.4.16",
  "updatedAt": "2025-03-06T07:23:55.089Z",
  "devdoc": {
    "kind": "dev",
    "methods": {
      "setPaused(bool)": {
        "details": "Only the contract owner may call this."
      }
    },
    "version": 1
  },
  "userdoc": {
    "kind": "user",
    "methods": {
      "setPaused(bool)": {
        "notice": "Change the paused state of the contract"
      }
    },
    "version": 1
  }
}