{
  "contractName": "SwapQueue",
  "abi": [
    {
      "inputs": [
        {
          "internalType": "uint256",
          "name": "",
          "type": "uint256"
        }
      ],
      "name": "queue",
      "outputs": [
        {
          "internalType": "uint256",
          "name": "start",
          "type": "uint256"
        },
        {
          "internalType": "uint256",
          "name": "end",
          "type": "uint256"
        },
        {
          "internalType": "uint256",
          "name": "size",
          "type": "uint256"
        }
      ],
      "stateMutability": "view",
      "type": "function"
    },
    {
      "inputs": [],
      "name": "executeQueue",
      "outputs": [],
      "stateMutability": "nonpayable",
      "type": "function"
    }
  ],
  "bytecode": "0x608060405234801561001057600080fd5b50610217806100206000396000f3fe608060405234801561001057600080fd5b50600436106100365760003560e01c8063a4ec69381461003b578063ddf0b00914610045575b600080fd5b610043610096565b005b6100776100533660046101c8565b60006020819052908152604090206001810154600282015460039092015490919083565b6040805193845260208401929092529082015260600160405180910390f35b60006100a233826100a5565b50565b804710156100fa5760405162461bcd60e51b815260206004820152601d60248201527f416464726573733a20696e73756666696369656e742062616c616e636500000060448201526064015b60405180910390fd5b6000826001600160a01b03168260405160006040518083038185875af1925050503d8060008114610147576040519150601f19603f3d011682016040523d82523d6000602084013e61014c565b606091505b50509050806101c35760405162461bcd60e51b815260206004820152603a60248201527f416464726573733a20756e61626c6520746f2073656e642076616c75652c207260448201527f6563697069656e74206d6179206861766520726576657274656400000000000060648201526084016100f1565b505050565b6000602082840312156101da57600080fd5b503591905056fea2646970667358221220d6ca0024b7ea300dfec77e93ca05c0d89514982b082a90876f4de9c1071d36a964736f6c63430008090033",
  "immutableReferences": {},
  "source": "// SPDX-License-Identifier: Unlicense\r\n\r\npragma solidity =0.8.9;\r\n\r\nimport \"@openzeppelin/contracts/utils/Address.sol\";\r\n\r\nimport \"../../shared/ProtocolConstants.sol\";\r\n\r\nimport \"../../interfaces/dex/queue/ISwapQueue.sol\";\r\n\r\n// TBD\r\ncontract SwapQueue is ISwapQueue, ProtocolConstants {\r\n    using Address for address payable;\r\n\r\n    mapping(uint256 => Queue) public queue;\r\n\r\n    /* ========== STATE VARIABLES ========== */\r\n    /* ========== CONSTRUCTOR ========== */\r\n    /* ========== VIEWS ========== */\r\n    /* ========== MUTATIVE FUNCTIONS ========== */\r\n\r\n    function executeQueue() external {\r\n        uint256 reimbursement = _executeQueue();\r\n        payable(msg.sender).sendValue(reimbursement);\r\n    }\r\n\r\n    /* ========== RESTRICTED FUNCTIONS ========== */\r\n    /* ========== INTERNAL FUNCTIONS ========== */\r\n\r\n    function _insertQueue(uint256 value) internal returns (bool) {}\r\n\r\n    function _executeQueue() internal returns (uint256) {}\r\n    /* ========== PRIVATE FUNCTIONS ========== */\r\n    /* ========== MODIFIERS ========== */\r\n}\r\n",
  "sourcePath": "/home/mingyue/sub_contract_content/Web3Bugs/contracts/52/contracts/dex/queue/SwapQueue.sol",
  "compiler": {
    "name": "solc",
    "version": "0.8.9+commit.e5eed63a.Emscripten.clang"
  },
  "schemaVersion": "3.4.16",
  "updatedAt": "2025-03-06T07:23:55.045Z",
  "devdoc": {
    "kind": "dev",
    "methods": {},
    "version": 1
  },
  "userdoc": {
    "kind": "user",
    "methods": {},
    "version": 1
  }
}