{
  "contractName": "SynthFactory",
  "abi": [
    {
      "inputs": [
        {
          "internalType": "address",
          "name": "_pool",
          "type": "address"
        }
      ],
      "stateMutability": "nonpayable",
      "type": "constructor"
    },
    {
      "anonymous": false,
      "inputs": [
        {
          "indexed": true,
          "internalType": "address",
          "name": "previousOwner",
          "type": "address"
        },
        {
          "indexed": true,
          "internalType": "address",
          "name": "newOwner",
          "type": "address"
        }
      ],
      "name": "OwnershipTransferred",
      "type": "event"
    },
    {
      "inputs": [],
      "name": "owner",
      "outputs": [
        {
          "internalType": "address",
          "name": "",
          "type": "address"
        }
      ],
      "stateMutability": "view",
      "type": "function"
    },
    {
      "inputs": [],
      "name": "renounceOwnership",
      "outputs": [],
      "stateMutability": "nonpayable",
      "type": "function"
    },
    {
      "inputs": [
        {
          "internalType": "contract IERC20",
          "name": "",
          "type": "address"
        }
      ],
      "name": "synths",
      "outputs": [
        {
          "internalType": "contract ISynth",
          "name": "",
          "type": "address"
        }
      ],
      "stateMutability": "view",
      "type": "function"
    },
    {
      "inputs": [
        {
          "internalType": "address",
          "name": "newOwner",
          "type": "address"
        }
      ],
      "name": "transferOwnership",
      "outputs": [],
      "stateMutability": "nonpayable",
      "type": "function"
    },
    {
      "inputs": [
        {
          "internalType": "contract IERC20Extended",
          "name": "token",
          "type": "address"
        }
      ],
      "name": "createSynth",
      "outputs": [
        {
          "internalType": "contract ISynth",
          "name": "",
          "type": "address"
        }
      ],
      "stateMutability": "nonpayable",
      "type": "function"
    }
  ],
  "bytecode": "0x608060405234801561001057600080fd5b5060405161175538038061175583398101604081905261002f916101db565b610038336100b6565b6001600160a01b0381166100a75760405162461bcd60e51b815260206004820152602b60248201527f53796e7468466163746f72793a3a636f6e7374727563746f723a204d6973636f60448201526a373334b3bab930ba34b7b760a91b60648201526084015b60405180910390fd5b6100b081610106565b5061020b565b600080546001600160a01b038381166001600160a01b0319831681178455604051919092169283917f8be0079c531659141344cd1fd0a4f28419497f9722a3daafe3b4186f6b6457e09190a35050565b61010e61017f565b6001600160a01b0381166101735760405162461bcd60e51b815260206004820152602660248201527f4f776e61626c653a206e6577206f776e657220697320746865207a65726f206160448201526564647265737360d01b606482015260840161009e565b61017c816100b6565b50565b6000546001600160a01b031633146101d95760405162461bcd60e51b815260206004820181905260248201527f4f776e61626c653a2063616c6c6572206973206e6f7420746865206f776e6572604482015260640161009e565b565b6000602082840312156101ed57600080fd5b81516001600160a01b038116811461020457600080fd5b9392505050565b61153b8061021a6000396000f3fe608060405234801561001057600080fd5b50600436106100575760003560e01c8063715018a61461005c5780638da5cb5b146100665780639f087dd61461008f578063cf62480d146100b8578063f2fde38b146100cb575b600080fd5b6100646100de565b005b6000546001600160a01b03165b6040516001600160a01b03909116815260200160405180910390f35b61007361009d3660046103ac565b6001602052600090815260409020546001600160a01b031681565b6100736100c63660046103ac565b6100f2565b6100646100d93660046103ac565b610267565b6100e66102e0565b6100f0600061033a565b565b60006100fc6102e0565b6001600160a01b03828116600090815260016020526040902054161561017c5760405162461bcd60e51b815260206004820152602a60248201527f53796e7468466163746f72793a3a63726561746553796e74683a20416c726561604482015269191e4810dc99585d195960b21b60648201526084015b60405180910390fd5b60008260405161018b9061038a565b6001600160a01b039091168152602001604051809103906000f0801580156101b7573d6000803e3d6000fd5b509050806001600160a01b031663f2fde38b6101db6000546001600160a01b031690565b6040516001600160e01b031960e084901b1681526001600160a01b039091166004820152602401600060405180830381600087803b15801561021c57600080fd5b505af1158015610230573d6000803e3d6000fd5b505050506001600160a01b03928316600090815260016020526040902080546001600160a01b031916938216939093179092555090565b61026f6102e0565b6001600160a01b0381166102d45760405162461bcd60e51b815260206004820152602660248201527f4f776e61626c653a206e6577206f776e657220697320746865207a65726f206160448201526564647265737360d01b6064820152608401610173565b6102dd8161033a565b50565b6000546001600160a01b031633146100f05760405162461bcd60e51b815260206004820181905260248201527f4f776e61626c653a2063616c6c6572206973206e6f7420746865206f776e65726044820152606401610173565b600080546001600160a01b038381166001600160a01b0319831681178455604051919092169283917f8be0079c531659141344cd1fd0a4f28419497f9722a3daafe3b4186f6b6457e09190a35050565b611135806103d183390190565b6001600160a01b03811681146102dd57600080fd5b6000602082840312156103be57600080fd5b81356103c981610397565b939250505056fe60806040523480156200001157600080fd5b50604051620011353803806200113583398101604081905262000034916200030c565b6200003f8162000099565b6200004a8262000144565b81516200005f90600390602085019062000266565b5080516200007590600490602084019062000266565b505050620000926200008c620001e260201b60201c565b620001e6565b50620004af565b60606200013e826001600160a01b03166306fdde036040518163ffffffff1660e01b815260040160006040518083038186803b158015620000d957600080fd5b505afa158015620000ee573d6000803e3d6000fd5b505050506040513d6000823e601f3d908101601f1916820160405262000118919081019062000387565b6040805180820190915260098152680405a40eca6f2dce8d60bb1b602082015262000238565b92915050565b60606200013e826001600160a01b03166395d89b416040518163ffffffff1660e01b815260040160006040518083038186803b1580156200018457600080fd5b505afa15801562000199573d6000803e3d6000fd5b505050506040513d6000823e601f3d908101601f19168201604052620001c3919081019062000387565b604080518082019091526002815261173b60f11b602082015262000238565b3390565b600580546001600160a01b038381166001600160a01b0319831681179093556040519116919082907f8be0079c531659141344cd1fd0a4f28419497f9722a3daafe3b4186f6b6457e090600090a35050565b606082826040516020016200024f9291906200043f565b604051602081830303815290604052905092915050565b828054620002749062000472565b90600052602060002090601f016020900481019282620002985760008555620002e3565b82601f10620002b357805160ff1916838001178555620002e3565b82800160010185558215620002e3579182015b82811115620002e3578251825591602001919060010190620002c6565b50620002f1929150620002f5565b5090565b5b80821115620002f15760008155600101620002f6565b6000602082840312156200031f57600080fd5b81516001600160a01b03811681146200033757600080fd5b9392505050565b634e487b7160e01b600052604160045260246000fd5b60005b838110156200037157818101518382015260200162000357565b8381111562000381576000848401525b50505050565b6000602082840312156200039a57600080fd5b81516001600160401b0380821115620003b257600080fd5b818401915084601f830112620003c757600080fd5b815181811115620003dc57620003dc6200033e565b604051601f8201601f19908116603f011681019083821181831017156200040757620004076200033e565b816040528281528760208487010111156200042157600080fd5b6200043483602083016020880162000354565b979650505050505050565b600083516200045381846020880162000354565b8351908301906200046981836020880162000354565b01949350505050565b600181811c908216806200048757607f821691505b60208210811415620004a957634e487b7160e01b600052602260045260246000fd5b50919050565b610c7680620004bf6000396000f3fe608060405234801561001057600080fd5b50600436106101005760003560e01c806370a0823111610097578063a457c2d711610066578063a457c2d714610209578063a9059cbb1461021c578063dd62ed3e1461022f578063f2fde38b1461024257600080fd5b806370a08231146101b5578063715018a6146101de5780638da5cb5b146101e657806395d89b411461020157600080fd5b8063313ce567116100d3578063313ce5671461016b578063395093511461017a57806340c10f191461018d57806342966c68146101a257600080fd5b806306fdde0314610105578063095ea7b31461012357806318160ddd1461014657806323b872dd14610158575b600080fd5b61010d610255565b60405161011a9190610a9a565b60405180910390f35b610136610131366004610b0b565b6102e7565b604051901515815260200161011a565b6002545b60405190815260200161011a565b610136610166366004610b35565b6102ff565b6040516012815260200161011a565b610136610188366004610b0b565b610323565b6101a061019b366004610b0b565b610345565b005b6101a06101b0366004610b71565b61035b565b61014a6101c3366004610b8a565b6001600160a01b031660009081526020819052604090205490565b6101a0610370565b6005546040516001600160a01b03909116815260200161011a565b61010d610384565b610136610217366004610b0b565b610393565b61013661022a366004610b0b565b610413565b61014a61023d366004610bac565b610421565b6101a0610250366004610b8a565b61044c565b60606003805461026490610bdf565b80601f016020809104026020016040519081016040528092919081815260200182805461029090610bdf565b80156102dd5780601f106102b2576101008083540402835291602001916102dd565b820191906000526020600020905b8154815290600101906020018083116102c057829003601f168201915b5050505050905090565b6000336102f58185856104c2565b5060019392505050565b60003361030d8582856105e7565b610318858585610661565b506001949350505050565b6000336102f58185856103368383610421565b6103409190610c1a565b6104c2565b61034d610805565b610357828261085f565b5050565b610363610805565b61036d338261091e565b50565b610378610805565b6103826000610a48565b565b60606004805461026490610bdf565b600033816103a18286610421565b9050838110156104065760405162461bcd60e51b815260206004820152602560248201527f45524332303a2064656372656173656420616c6c6f77616e63652062656c6f77604482015264207a65726f60d81b60648201526084015b60405180910390fd5b61031882868684036104c2565b6000336102f5818585610661565b6001600160a01b03918216600090815260016020908152604080832093909416825291909152205490565b610454610805565b6001600160a01b0381166104b95760405162461bcd60e51b815260206004820152602660248201527f4f776e61626c653a206e6577206f776e657220697320746865207a65726f206160448201526564647265737360d01b60648201526084016103fd565b61036d81610a48565b6001600160a01b0383166105245760405162461bcd60e51b8152602060048201526024808201527f45524332303a20617070726f76652066726f6d20746865207a65726f206164646044820152637265737360e01b60648201526084016103fd565b6001600160a01b0382166105855760405162461bcd60e51b815260206004820152602260248201527f45524332303a20617070726f766520746f20746865207a65726f206164647265604482015261737360f01b60648201526084016103fd565b6001600160a01b0383811660008181526001602090815260408083209487168084529482529182902085905590518481527f8c5be1e5ebec7d5bd14f71427d1e84f3dd0314c0f7b2291e5b200ac8c7c3b92591015b60405180910390a3505050565b60006105f38484610421565b9050600019811461065b578181101561064e5760405162461bcd60e51b815260206004820152601d60248201527f45524332303a20696e73756666696369656e7420616c6c6f77616e636500000060448201526064016103fd565b61065b84848484036104c2565b50505050565b6001600160a01b0383166106c55760405162461bcd60e51b815260206004820152602560248201527f45524332303a207472616e736665722066726f6d20746865207a65726f206164604482015264647265737360d81b60648201526084016103fd565b6001600160a01b0382166107275760405162461bcd60e51b815260206004820152602360248201527f45524332303a207472616e7366657220746f20746865207a65726f206164647260448201526265737360e81b60648201526084016103fd565b6001600160a01b0383166000908152602081905260409020548181101561079f5760405162461bcd60e51b815260206004820152602660248201527f45524332303a207472616e7366657220616d6f756e7420657863656564732062604482015265616c616e636560d01b60648201526084016103fd565b6001600160a01b03848116600081815260208181526040808320878703905593871680835291849020805487019055925185815290927fddf252ad1be2c89b69c2b068fc378daa952ba7f163c4a11628f55a4df523b3ef910160405180910390a361065b565b6005546001600160a01b031633146103825760405162461bcd60e51b815260206004820181905260248201527f4f776e61626c653a2063616c6c6572206973206e6f7420746865206f776e657260448201526064016103fd565b6001600160a01b0382166108b55760405162461bcd60e51b815260206004820152601f60248201527f45524332303a206d696e7420746f20746865207a65726f20616464726573730060448201526064016103fd565b80600260008282546108c79190610c1a565b90915550506001600160a01b038216600081815260208181526040808320805486019055518481527fddf252ad1be2c89b69c2b068fc378daa952ba7f163c4a11628f55a4df523b3ef910160405180910390a35050565b6001600160a01b03821661097e5760405162461bcd60e51b815260206004820152602160248201527f45524332303a206275726e2066726f6d20746865207a65726f206164647265736044820152607360f81b60648201526084016103fd565b6001600160a01b038216600090815260208190526040902054818110156109f25760405162461bcd60e51b815260206004820152602260248201527f45524332303a206275726e20616d6f756e7420657863656564732062616c616e604482015261636560f01b60648201526084016103fd565b6001600160a01b0383166000818152602081815260408083208686039055600280548790039055518581529192917fddf252ad1be2c89b69c2b068fc378daa952ba7f163c4a11628f55a4df523b3ef91016105da565b600580546001600160a01b038381166001600160a01b0319831681179093556040519116919082907f8be0079c531659141344cd1fd0a4f28419497f9722a3daafe3b4186f6b6457e090600090a35050565b600060208083528351808285015260005b81811015610ac757858101830151858201604001528201610aab565b81811115610ad9576000604083870101525b50601f01601f1916929092016040019392505050565b80356001600160a01b0381168114610b0657600080fd5b919050565b60008060408385031215610b1e57600080fd5b610b2783610aef565b946020939093013593505050565b600080600060608486031215610b4a57600080fd5b610b5384610aef565b9250610b6160208501610aef565b9150604084013590509250925092565b600060208284031215610b8357600080fd5b5035919050565b600060208284031215610b9c57600080fd5b610ba582610aef565b9392505050565b60008060408385031215610bbf57600080fd5b610bc883610aef565b9150610bd660208401610aef565b90509250929050565b600181811c90821680610bf357607f821691505b60208210811415610c1457634e487b7160e01b600052602260045260246000fd5b50919050565b60008219821115610c3b57634e487b7160e01b600052601160045260246000fd5b50019056fea2646970667358221220442248be798b5cec1dd53fee116c981a61dd675f79068dcba45bf3e267e18f7664736f6c63430008090033a264697066735822122090b373fbd35a5b51924440927f3e3963a3ee12e4b2e6e402539204dc43dc04c364736f6c63430008090033",
  "immutableReferences": {},
  "source": "// SPDX-License-Identifier: Unlicense\r\n\r\npragma solidity =0.8.9;\r\n\r\nimport \"./Synth.sol\";\r\n\r\nimport \"../../interfaces/dex-v2/synth/ISynthFactory.sol\";\r\n\r\ncontract SynthFactory is ISynthFactory, ProtocolConstants, Ownable {\r\n    mapping(IERC20 => ISynth) public override synths;\r\n\r\n    constructor(address _pool) {\r\n        require(\r\n            _pool != _ZERO_ADDRESS,\r\n            \"SynthFactory::constructor: Misconfiguration\"\r\n        );\r\n        transferOwnership(_pool);\r\n    }\r\n\r\n    function createSynth(IERC20Extended token)\r\n        external\r\n        override\r\n        onlyOwner\r\n        returns (ISynth)\r\n    {\r\n        require(\r\n            synths[IERC20(token)] == ISynth(_ZERO_ADDRESS),\r\n            \"SynthFactory::createSynth: Already Created\"\r\n        );\r\n\r\n        Synth synth = new Synth(token);\r\n\r\n        synth.transferOwnership(owner());\r\n\r\n        synths[IERC20(token)] = synth;\r\n\r\n        return synth;\r\n    }\r\n}\r\n",
  "sourcePath": "/home/mingyue/sub_contract_content/Web3Bugs/contracts/52/contracts/dex-v2/synths/SynthFactory.sol",
  "compiler": {
    "name": "solc",
    "version": "0.8.9+commit.e5eed63a.Emscripten.clang"
  },
  "schemaVersion": "3.4.16",
  "updatedAt": "2025-03-06T07:23:55.031Z",
  "devdoc": {
    "kind": "dev",
    "methods": {
      "owner()": {
        "details": "Returns the address of the current owner."
      },
      "renounceOwnership()": {
        "details": "Leaves the contract without owner. It will not be possible to call `onlyOwner` functions. Can only be called by the current owner. NOTE: Renouncing ownership will leave the contract without an owner, thereby disabling any functionality that is only available to the owner."
      },
      "transferOwnership(address)": {
        "details": "Transfers ownership of the contract to a new account (`newOwner`). Can only be called by the current owner."
      }
    },
    "version": 1
  },
  "userdoc": {
    "kind": "user",
    "methods": {},
    "version": 1
  }
}