{
  "contractName": "TwapOracle",
  "abi": [
    {
      "inputs": [
        {
          "internalType": "address",
          "name": "vaderPool",
          "type": "address"
        },
        {
          "internalType": "uint256",
          "name": "updatePeriod",
          "type": "uint256"
        }
      ],
      "stateMutability": "nonpayable",
      "type": "constructor"
    },
    {
      "anonymous": false,
      "inputs": [
        {
          "indexed": true,
          "internalType": "address",
          "name": "previousOwner",
          "type": "address"
        },
        {
          "indexed": true,
          "internalType": "address",
          "name": "newOwner",
          "type": "address"
        }
      ],
      "name": "OwnershipTransferred",
      "type": "event"
    },
    {
      "inputs": [],
      "name": "USDV",
      "outputs": [
        {
          "internalType": "address",
          "name": "",
          "type": "address"
        }
      ],
      "stateMutability": "view",
      "type": "function"
    },
    {
      "inputs": [],
      "name": "VADER",
      "outputs": [
        {
          "internalType": "address",
          "name": "",
          "type": "address"
        }
      ],
      "stateMutability": "view",
      "type": "function"
    },
    {
      "inputs": [],
      "name": "owner",
      "outputs": [
        {
          "internalType": "address",
          "name": "",
          "type": "address"
        }
      ],
      "stateMutability": "view",
      "type": "function"
    },
    {
      "inputs": [],
      "name": "renounceOwnership",
      "outputs": [],
      "stateMutability": "nonpayable",
      "type": "function"
    },
    {
      "inputs": [
        {
          "internalType": "address",
          "name": "newOwner",
          "type": "address"
        }
      ],
      "name": "transferOwnership",
      "outputs": [],
      "stateMutability": "nonpayable",
      "type": "function"
    },
    {
      "inputs": [
        {
          "internalType": "address",
          "name": "token0",
          "type": "address"
        },
        {
          "internalType": "address",
          "name": "token1",
          "type": "address"
        }
      ],
      "name": "pairExists",
      "outputs": [
        {
          "internalType": "bool",
          "name": "",
          "type": "bool"
        }
      ],
      "stateMutability": "view",
      "type": "function"
    },
    {
      "inputs": [
        {
          "internalType": "address",
          "name": "token",
          "type": "address"
        }
      ],
      "name": "consult",
      "outputs": [
        {
          "internalType": "uint256",
          "name": "result",
          "type": "uint256"
        }
      ],
      "stateMutability": "view",
      "type": "function"
    },
    {
      "inputs": [],
      "name": "getRate",
      "outputs": [
        {
          "internalType": "uint256",
          "name": "result",
          "type": "uint256"
        }
      ],
      "stateMutability": "view",
      "type": "function"
    },
    {
      "inputs": [
        {
          "internalType": "uint256",
          "name": "usdvAmount",
          "type": "uint256"
        }
      ],
      "name": "usdvtoVader",
      "outputs": [
        {
          "internalType": "uint256",
          "name": "",
          "type": "uint256"
        }
      ],
      "stateMutability": "view",
      "type": "function"
    },
    {
      "inputs": [
        {
          "internalType": "uint256",
          "name": "vaderAmount",
          "type": "uint256"
        }
      ],
      "name": "vaderToUsdv",
      "outputs": [
        {
          "internalType": "uint256",
          "name": "",
          "type": "uint256"
        }
      ],
      "stateMutability": "view",
      "type": "function"
    },
    {
      "inputs": [
        {
          "internalType": "address",
          "name": "_usdv",
          "type": "address"
        },
        {
          "internalType": "address",
          "name": "_vader",
          "type": "address"
        }
      ],
      "name": "initialize",
      "outputs": [],
      "stateMutability": "nonpayable",
      "type": "function"
    },
    {
      "inputs": [],
      "name": "enableUSDV",
      "outputs": [],
      "stateMutability": "nonpayable",
      "type": "function"
    },
    {
      "inputs": [
        {
          "internalType": "address",
          "name": "asset",
          "type": "address"
        },
        {
          "internalType": "address",
          "name": "aggregator",
          "type": "address"
        }
      ],
      "name": "registerAggregator",
      "outputs": [],
      "stateMutability": "nonpayable",
      "type": "function"
    },
    {
      "inputs": [
        {
          "internalType": "address",
          "name": "factory",
          "type": "address"
        },
        {
          "internalType": "address",
          "name": "token0",
          "type": "address"
        },
        {
          "internalType": "address",
          "name": "token1",
          "type": "address"
        }
      ],
      "name": "registerPair",
      "outputs": [],
      "stateMutability": "nonpayable",
      "type": "function"
    },
    {
      "inputs": [],
      "name": "update",
      "outputs": [],
      "stateMutability": "nonpayable",
      "type": "function"
    }
  ],
  "bytecode": "0x60806040523480156200001157600080fd5b50604051620021ec380380620021ec8339810160408190526200003491620000b9565b6200003f3362000069565b600480546001600160a01b0319166001600160a01b039390931692909217909155600555620000f5565b600080546001600160a01b038381166001600160a01b0319831681178455604051919092169283917f8be0079c531659141344cd1fd0a4f28419497f9722a3daafe3b4186f6b6457e09190a35050565b60008060408385031215620000cd57600080fd5b82516001600160a01b0381168114620000e557600080fd5b6020939093015192949293505050565b6120e780620001056000396000f3fe608060405234801561001057600080fd5b50600436106100f55760003560e01c8063837e788511610097578063bfbd029711610066578063bfbd0297146101e5578063c2ace4f2146101f8578063e2c3b04614610200578063f2fde38b1461021357600080fd5b8063837e7885146101a65780638da5cb5b146101b957806397916dbe146101ca578063a2e62045146101dd57600080fd5b806366a7bc4b116100d357806366a7bc4b14610160578063679aefce14610183578063715018a61461018b57806378906a141461019357600080fd5b806301681315146100fa578063283583c61461012a578063485cc9551461014b575b600080fd5b60015461010d906001600160a01b031681565b6040516001600160a01b0390911681526020015b60405180910390f35b61013d610138366004611cbc565b610226565b604051908152602001610121565b61015e610159366004611cd9565b6105f2565b005b61017361016e366004611cd9565b61074c565b6040519015158152602001610121565b61013d6107de565b61015e610826565b61013d6101a1366004611d12565b61083a565b61015e6101b4366004611cd9565b61084e565b6000546001600160a01b031661010d565b61013d6101d8366004611d12565b610a4c565b61015e610a93565b61015e6101f3366004611d2b565b610d26565b61015e6114dd565b60025461010d906001600160a01b031681565b61015e610221366004611cbc565b6114fa565b6006546000908180805b838110156104ff5760006006828154811061024d5761024d611d76565b60009182526020918290206040805161010081018252600890930290910180546001600160a01b0390811684526001820154811684860190815260028301548216858501526003830154606086015260048301546080860152600583015463ffffffff1660a08601528351808701855260068401546001600160e01b03908116825260c08701919091528451968701909452600790920154909216845260e08301939093529151909250888216911614156104ec5760e081015161031d90610316906001611573565b5160701c90565b610330906001600160901b031685611da2565b60e0820151519094506001600160e01b031615610351578361035157600080fd5b6040808201516001600160a01b0390811660009081526003602052828120548351633fabe5a360e21b8152935191938493849392169163feaf968c9160048082019260a092909190829003018186803b1580156103ad57600080fd5b505afa1580156103c1573d6000803e3d6000fd5b505050506040513d601f19601f820116820180604052508101906103e59190611dd9565b94505050925092508269ffffffffffffffffffff168169ffffffffffffffffffff16101561046d5760405162461bcd60e51b815260206004820152602a60248201527f547761704f7261636c653a3a636f6e73756c743a207374616c6520636861696e6044820152696c696e6b20707269636560b01b60648201526084015b60405180910390fd5b816104cd5760405162461bcd60e51b815260206004820152602a60248201527f547761704f7261636c653a3a636f6e73756c743a20636861696e6c696e6b206d60448201526930b6333ab731ba34b7b760b11b6064820152608401610464565b6104dc826402540be400611e29565b6104e69087611da2565b95505050505b50806104f781611e48565b915050610230565b50816105605760405162461bcd60e51b815260206004820152602a60248201527f547761704f7261636c653a3a636f6e73756c743a2053756d206f66206e6174696044820152697665206973207a65726f60b01b6064820152608401610464565b81856001600160a01b031663313ce5676040518163ffffffff1660e01b815260040160206040518083038186803b15801561059a57600080fd5b505afa1580156105ae573d6000803e3d6000fd5b505050506040513d601f19601f820116820180604052508101906105d29190611e63565b6105df9060ff1683611e29565b6105e99190611e9c565b95945050505050565b6105fa611611565b6001546001600160a01b0316156106655760405162461bcd60e51b815260206004820152602960248201527f547761704f7261636c653a3a696e697469616c697a653a20566164657220616c6044820152681c9958591e481cd95d60ba1b6064820152608401610464565b6002546001600160a01b0316156106cf5760405162461bcd60e51b815260206004820152602860248201527f547761704f7261636c653a3a696e697469616c697a653a205553445620616c726044820152671958591e481cd95d60c21b6064820152608401610464565b6001600160a01b0382166106f55760405162461bcd60e51b815260040161046490611eb0565b6001600160a01b03811661071b5760405162461bcd60e51b815260040161046490611eb0565b600180546001600160a01b039283166001600160a01b03199182161790915560028054939092169216919091179055565b6000808383604051602001610762929190611f05565b6040516020818303038152906040528051906020012090506000838560405160200161078f929190611f05565b60408051601f1981840301815291815281516020928301206000858152600790935291205490915060ff16806107d3575060008181526007602052604090205460ff165b925050505b92915050565b60025460009081906107f8906001600160a01b0316610226565b600154909150600090610813906001600160a01b0316610226565b905061081f8183611e9c565b9250505090565b61082e611611565b610838600061166b565b565b60006108446107de565b6107d89083611e29565b610856611611565b6001546001600160a01b03161580159061087a57506002546001600160a01b031615155b6108965760405162461bcd60e51b815260040161046490611f2c565b6001600160a01b0382166109125760405162461bcd60e51b815260206004820152603b60248201527f547761704f7261636c653a3a726567697374657241676772656761746f723a2060448201527f6173736574207a65726f20616464726573732070726f766964656400000000006064820152608401610464565b6001600160a01b038116610990576040805162461bcd60e51b81526020600482015260248101919091527f547761704f7261636c653a3a726567697374657241676772656761746f723a2060448201527f61676772656761746f72207a65726f20616464726573732070726f76696465646064820152608401610464565b6001600160a01b038281166000908152600360205260409020541615610a1e5760405162461bcd60e51b815260206004820152603960248201527f547761704f7261636c653a3a726567697374657241676772656761746f723a2060448201527f61676772656761746f7220616c726561647920657869737473000000000000006064820152608401610464565b6001600160a01b03918216600090815260036020526040902080546001600160a01b03191691909216179055565b600254600090600160a01b900460ff16610a81576001548290610a77906001600160a01b0316610226565b6107d89190611e29565b610a896107de565b6107d89083611e9c565b610a9b611611565b6001546001600160a01b031615801590610abf57506002546001600160a01b031615155b610adb5760405162461bcd60e51b815260040161046490611f2c565b60065460005b81811015610d2257600060068281548110610afe57610afe611d76565b60009182526020822060018054600890930290910190810154909350829182916001600160a01b03908116911614610bb8576004805460028601546040516309cbfe4960e31b81526001600160a01b03918216938101939093521690634e5ff2489060240160606040518083038186803b158015610b7b57600080fd5b505afa158015610b8f573d6000803e3d6000fd5b505050506040513d601f19601f82011682018060405250810190610bb39190611f88565b610bcc565b8354610bcc906001600160a01b03166116bb565b6005808801549054939650919450925063ffffffff9081168303919082161015610c475760405162461bcd60e51b815260206004820152602660248201527f547761704f7261636c653a3a7570646174653a20506572696f64206e6f7420656044820152651b185c1cd95960d21b6064820152608401610464565b60405180602001604052808263ffffffff168760030154870381610c6d57610c6d611e86565b046001600160e01b0390811690915290516006870180546001600160e01b0319169190921617905560408051602081019091526004860154819063ffffffff841690860381610cbe57610cbe611e86565b046001600160e01b0390811690915290516007870180546001600160e01b0319169190921617905550600384019290925560048301556005909101805463ffffffff191663ffffffff90921691909117905580610d1a81611e48565b915050610ae1565b5050565b610d2e611611565b6001546001600160a01b031615801590610d5257506002546001600160a01b031615155b610d6e5760405162461bcd60e51b815260040161046490611f2c565b6001546001600160a01b0383811691161480610d9757506002546001600160a01b038381169116145b610dfc5760405162461bcd60e51b815260206004820152603060248201527f547761704f7261636c653a3a7265676973746572506169723a20496e76616c6960448201526f6420746f6b656e30206164647265737360801b6064820152608401610464565b806001600160a01b0316826001600160a01b03161415610e735760405162461bcd60e51b815260206004820152602c60248201527f547761704f7261636c653a3a7265676973746572506169723a2053616d65207460448201526b6f6b656e206164647265737360a01b6064820152608401610464565b610e7d828261074c565b15610ed85760405162461bcd60e51b815260206004820152602560248201527f547761704f7261636c653a3a7265676973746572506169723a20506169722065604482015264786973747360d81b6064820152608401610464565b600154600090819081908190819081906001600160a01b03898116911614156110ea5760405163e6a4390560e01b81526001600160a01b0389811660048301528881166024830152600091908b169063e6a439059060440160206040518083038186803b158015610f4857600080fd5b505afa158015610f5c573d6000803e3d6000fd5b505050506040513d601f19601f82011682018060405250810190610f809190611fbd565b9050809650806001600160a01b0316635909c0d56040518163ffffffff1660e01b815260040160206040518083038186803b158015610fbe57600080fd5b505afa158015610fd2573d6000803e3d6000fd5b505050506040513d601f19601f82011682018060405250810190610ff69190611fda565b9550806001600160a01b0316635a3d54936040518163ffffffff1660e01b815260040160206040518083038186803b15801561103157600080fd5b505afa158015611045573d6000803e3d6000fd5b505050506040513d601f19601f820116820180604052508101906110699190611fda565b9450806001600160a01b0316630902f1ac6040518163ffffffff1660e01b815260040160606040518083038186803b1580156110a457600080fd5b505afa1580156110b8573d6000803e3d6000fd5b505050506040513d601f19601f820116820180604052508101906110dc919061200a565b919550935091506111f99050565b600480546040516309cbfe4960e31b81526001600160a01b038a811693820193909352911696508690634e5ff2489060240160606040518083038186803b15801561113457600080fd5b505afa158015611148573d6000803e3d6000fd5b505050506040513d601f19601f8201168201806040525081019061116c9190611f88565b5060048054604051630fa6707960e21b81526001600160a01b038c8116938201939093529398509196501690633e99c1e49060240160606040518083038186803b1580156111b957600080fd5b505afa1580156111cd573d6000803e3d6000fd5b505050506040513d601f19601f820116820180604052508101906111f1919061200a565b919450925090505b6001600160701b0383161580159061121957506001600160701b03821615155b6112735760405162461bcd60e51b815260206004820152602560248201527f547761704f7261636c653a3a7265676973746572506169723a204e6f20726573604482015264657276657360d81b6064820152608401610464565b6001600760008a8a60405160200161128c929190611f05565b60408051808303601f1901815291815281516020928301208352828201939093529082016000908120805460ff1916941515949094179093558151610100810183526001600160a01b03998a1681529a89168b82019081529989168b830190815260608c0198895260808c0197885263ffffffff94851660a08d019081528351808401855285815260c08e01908152845193840190945284835260e08d019283526006805460018101825595529b517ff652222313e28459528d920b65115c16c04f3efc82aaedc97be59f3f377c0d3f600890950294850180546001600160a01b0319908116928d169290921790559a517ff652222313e28459528d920b65115c16c04f3efc82aaedc97be59f3f377c0d40850180548d16918c16919091179055517ff652222313e28459528d920b65115c16c04f3efc82aaedc97be59f3f377c0d4184018054909b1699169890981790985594517ff652222313e28459528d920b65115c16c04f3efc82aaedc97be59f3f377c0d4286015592517ff652222313e28459528d920b65115c16c04f3efc82aaedc97be59f3f377c0d43850155505093517ff652222313e28459528d920b65115c16c04f3efc82aaedc97be59f3f377c0d448201805463ffffffff191691909516179093559051517ff652222313e28459528d920b65115c16c04f3efc82aaedc97be59f3f377c0d45830180546001600160e01b03199081166001600160e01b03938416179091559151517ff652222313e28459528d920b65115c16c04f3efc82aaedc97be59f3f377c0d469093018054909216921691909117905550565b6114e5611611565b6002805460ff60a01b1916600160a01b179055565b611502611611565b6001600160a01b0381166115675760405162461bcd60e51b815260206004820152602660248201527f4f776e61626c653a206e6577206f776e657220697320746865207a65726f206160448201526564647265737360d01b6064820152608401610464565b6115708161166b565b50565b60408051602081019091526000815260008215806115b0575083516001600160e01b0316836115a28183611e29565b92506115ae9083611e9c565b145b6115fc5760405162461bcd60e51b815260206004820152601960248201527f4669786564506f696e743a3a6d756c3a206f766572666c6f77000000000000006044820152606401610464565b60408051602081019091529081529392505050565b6000546001600160a01b031633146108385760405162461bcd60e51b815260206004820181905260248201527f4f776e61626c653a2063616c6c6572206973206e6f7420746865206f776e65726044820152606401610464565b600080546001600160a01b038381166001600160a01b0319831681178455604051919092169283917f8be0079c531659141344cd1fd0a4f28419497f9722a3daafe3b4186f6b6457e09190a35050565b60008060006116c86118df565b9050836001600160a01b0316635909c0d56040518163ffffffff1660e01b815260040160206040518083038186803b15801561170357600080fd5b505afa158015611717573d6000803e3d6000fd5b505050506040513d601f19601f8201168201806040525081019061173b9190611fda565b9250836001600160a01b0316635a3d54936040518163ffffffff1660e01b815260040160206040518083038186803b15801561177657600080fd5b505afa15801561178a573d6000803e3d6000fd5b505050506040513d601f19601f820116820180604052508101906117ae9190611fda565b91506000806000866001600160a01b0316630902f1ac6040518163ffffffff1660e01b815260040160606040518083038186803b1580156117ee57600080fd5b505afa158015611802573d6000803e3d6000fd5b505050506040513d601f19601f82011682018060405250810190611826919061200a565b9250925092508363ffffffff168163ffffffff16146118d557600061184b8286612044565b90508063ffffffff16611870846001600160701b0316866001600160701b03166118f5565b5161188491906001600160e01b0316611e29565b61188e9088611da2565b96508063ffffffff166118b3856001600160701b0316856001600160701b03166118f5565b516118c791906001600160e01b0316611e29565b6118d19087611da2565b9550505b5050509193909250565b60006118f064010000000042612069565b905090565b604080516020810190915260008152600082116119635760405162461bcd60e51b815260206004820152602660248201527f4669786564506f696e743a3a6672616374696f6e3a206469766973696f6e206260448201526579207a65726f60d01b6064820152608401610464565b8261197d57506040805160208101909152600081526107d8565b6001600160901b038311611a1457600061199b83607086901b611e9c565b90506001600160e01b038111156119f45760405162461bcd60e51b815260206004820152601e60248201527f4669786564506f696e743a3a6672616374696f6e3a206f766572666c6f7700006044820152606401610464565b6040518060200160405280826001600160e01b03168152509150506107d8565b600061199b84600160701b856000806000611a2f8686611aea565b9150915060008480611a4357611a43611e86565b868809905082811115611a5e57611a5b60018361207d565b91505b611a68818461207d565b925081611a8357611a798584611e9c565b9350505050611ae3565b848210611ad25760405162461bcd60e51b815260206004820152601a60248201527f46756c6c4d6174683a2046554c4c4449565f4f564552464c4f570000000000006044820152606401610464565b611add838387611b2c565b93505050505b9392505050565b600080806000198486099050611b008486611e29565b9250611b0c838261207d565b915082811015611b2457611b2160018361207d565b91505b509250929050565b600080611b3883612094565b83169050611b468184611e9c565b9250611b528186611e9c565b945080611b5e81612094565b611b689190611e9c565b611b73906001611da2565b611b7d9085611e29565b611b879086611da2565b94506001611b958185611e29565b611ba090600261207d565b611baa9082611e29565b9050611bb68185611e29565b611bc190600261207d565b611bcb9082611e29565b9050611bd78185611e29565b611be290600261207d565b611bec9082611e29565b9050611bf88185611e29565b611c0390600261207d565b611c0d9082611e29565b9050611c198185611e29565b611c2490600261207d565b611c2e9082611e29565b9050611c3a8185611e29565b611c4590600261207d565b611c4f9082611e29565b9050611c5b8185611e29565b611c6690600261207d565b611c709082611e29565b9050611c7c8185611e29565b611c8790600261207d565b611c919082611e29565b9050611c9d8187611e29565b9695505050505050565b6001600160a01b038116811461157057600080fd5b600060208284031215611cce57600080fd5b8135611ae381611ca7565b60008060408385031215611cec57600080fd5b8235611cf781611ca7565b91506020830135611d0781611ca7565b809150509250929050565b600060208284031215611d2457600080fd5b5035919050565b600080600060608486031215611d4057600080fd5b8335611d4b81611ca7565b92506020840135611d5b81611ca7565b91506040840135611d6b81611ca7565b809150509250925092565b634e487b7160e01b600052603260045260246000fd5b634e487b7160e01b600052601160045260246000fd5b60008219821115611db557611db5611d8c565b500190565b805169ffffffffffffffffffff81168114611dd457600080fd5b919050565b600080600080600060a08688031215611df157600080fd5b611dfa86611dba565b9450602086015193506040860151925060608601519150611e1d60808701611dba565b90509295509295909350565b6000816000190483118215151615611e4357611e43611d8c565b500290565b6000600019821415611e5c57611e5c611d8c565b5060010190565b600060208284031215611e7557600080fd5b815160ff81168114611ae357600080fd5b634e487b7160e01b600052601260045260246000fd5b600082611eab57611eab611e86565b500490565b60208082526035908201527f547761704f7261636c653a3a696e697469616c697a653a2063616e206e6f742060408201527473657420746f2061207a65726f206164647265737360581b606082015260800190565b6bffffffffffffffffffffffff19606093841b811682529190921b16601482015260280190565b60208082526028908201527f547761704f7261636c653a3a696e697469616c697a65643a206e6f7420696e696040820152671d1a585b1a5e995960c21b606082015260800190565b805163ffffffff81168114611dd457600080fd5b600080600060608486031215611f9d57600080fd5b8351925060208401519150611fb460408501611f74565b90509250925092565b600060208284031215611fcf57600080fd5b8151611ae381611ca7565b600060208284031215611fec57600080fd5b5051919050565b80516001600160701b0381168114611dd457600080fd5b60008060006060848603121561201f57600080fd5b61202884611ff3565b925061203660208501611ff3565b9150611fb460408501611f74565b600063ffffffff8381169083168181101561206157612061611d8c565b039392505050565b60008261207857612078611e86565b500690565b60008282101561208f5761208f611d8c565b500390565b6000600160ff1b8214156120aa576120aa611d8c565b506000039056fea2646970667358221220d58880a2fb9bab2c51d457ee099a4ca1134c9fe20180b8a028367f7ea7acbac364736f6c63430008090033",
  "immutableReferences": {},
  "source": "// SPDX-License-Identifier: Unlicense\n\npragma solidity =0.8.9;\n\nimport \"@openzeppelin/contracts/access/Ownable.sol\";\nimport \"@openzeppelin/contracts/token/ERC20/IERC20.sol\";\nimport \"@openzeppelin/contracts/token/ERC20/extensions/IERC20Metadata.sol\";\n\nimport \"../external/interfaces/AggregatorV3Interface.sol\";\nimport \"../external/interfaces/IUniswapV2Factory.sol\";\nimport \"../external/interfaces/IUniswapV2Pair.sol\";\n\nimport \"../external/libraries/FixedPoint.sol\";\nimport \"../external/libraries/UniswapV2OracleLibrary.sol\";\nimport \"../external/libraries/UniswapV2Library.sol\";\n\nimport \"../interfaces/dex-v2/pool/IVaderPoolV2.sol\";\n\ncontract TwapOracle is Ownable {\n    /* ========== LIBRARIES ========== */\n\n    using FixedPoint for *;\n\n    /* ========== STRUCTURES ========== */\n\n    struct PairData {\n        // The address of the pair interface (IUniswapV2Pair or IVaderPoolV2)\n        address pair;\n        // The first token of the pair.\n        address token0;\n        // The second token of the pair.\n        address token1;\n        // The last cumulative price of the first token.\n        uint256 price0CumulativeLast;\n        // The last cumulative price of the second token.\n        uint256 price1CumulativeLast;\n        // The block timestamp of the last update.\n        uint32 blockTimestampLast;\n        // The average price of the first token.\n        FixedPoint.uq112x112 price0Average;\n        // The average price of the second token.\n        FixedPoint.uq112x112 price1Average;\n    }\n\n    /* ========== STATE VARIABLES ========== */\n\n    // The address of the deployed VADER token.\n    address public VADER;\n\n    // The address of the deployed USDV token.\n    address public USDV;\n\n    // A predicated which determines if USDV is enabled.\n    bool private _usdvEnabled;\n\n    // The mapping of native assets to USD aggregators.\n    mapping(address => address) private _aggregators;\n\n    // The vader pool used across all native assets.\n    IVaderPoolV2 private _vaderPool;\n\n    // The frequency that the pair collection should be updated.\n    uint256 private _updatePeriod;\n\n    // The collection of pairs tracked by the TWAP oracle.\n    PairData[] private _pairs;\n\n    // A mapping of pair hashes to existence predicates.\n    mapping(bytes32 => bool) private _pairExists;\n\n    /* ========== CONSTRUCTOR ========== */\n\n    /**\n     * @dev Constructs a new TWAP oracle with a VADER pool and update period.\n     * @param vaderPool The VADER pool address.\n     * @param updatePeriod The required period of time between each oracle update.\n     */\n    constructor(address vaderPool, uint256 updatePeriod) Ownable() {\n        _vaderPool = IVaderPoolV2(vaderPool);\n        _updatePeriod = updatePeriod;\n    }\n\n    /* ========== MODIFIERS ========== */\n\n    modifier initialized() {\n        require(\n            VADER != address(0) && USDV != address(0),\n            \"TwapOracle::initialized: not initialized\"\n        );\n        _;\n    }\n\n    /* ========== VIEWS ========== */\n\n    /**\n     * @dev Checks if a pair exists for the supplied {token0} and {token1} addresses.\n     * @param token0 The primary token address, either VADER or USDV.\n     * @param token1 The asset token address, paired to either VADER or USDV.\n     */\n    function pairExists(address token0, address token1)\n        public\n        view\n        returns (bool)\n    {\n        bytes32 pairHash0 = keccak256(abi.encodePacked(token0, token1));\n        bytes32 pairHash1 = keccak256(abi.encodePacked(token1, token0));\n        return _pairExists[pairHash0] || _pairExists[pairHash1];\n    }\n\n    /**\n     * @dev Performs a consultation to retrieve the equivalent to {amountIn} for the supplied {token} address.\n     * The {token} address must have a registered pairing, otherwise the transaction will revert.\n     * @param token The token address to consult the equivalent {amountIn} for.\n     */\n    function consult(address token) public view returns (uint256 result) {\n        uint256 pairCount = _pairs.length;\n        uint256 sumNative = 0;\n        uint256 sumUSD = 0;\n\n        for (uint256 i = 0; i < pairCount; i++) {\n            PairData memory pairData = _pairs[i];\n\n            if (token == pairData.token0) {\n                //\n                // TODO - Review:\n                //   Verify price1Average is amount of USDV against 1 unit of token1\n                //\n\n                sumNative += pairData.price1Average.mul(1).decode144(); // native asset amount\n                if (pairData.price1Average._x != 0) {\n                    require(sumNative != 0);\n                }\n\n                (\n                    uint80 roundID,\n                    int256 price,\n                    ,\n                    ,\n                    uint80 answeredInRound\n                ) = AggregatorV3Interface(_aggregators[pairData.token1])\n                        .latestRoundData();\n\n                require(\n                    answeredInRound >= roundID,\n                    \"TwapOracle::consult: stale chainlink price\"\n                );\n                require(\n                    price != 0,\n                    \"TwapOracle::consult: chainlink malfunction\"\n                );\n\n                sumUSD += uint256(price) * (10**10);\n            }\n        }\n        require(sumNative != 0, \"TwapOracle::consult: Sum of native is zero\");\n        result = ((sumUSD * IERC20Metadata(token).decimals()) / sumNative);\n    }\n\n    /**\n     * @dev Gets the exchange rate for the Vader to USDV.\n     */\n    function getRate() public view returns (uint256 result) {\n        uint256 tUSDInUSDV = consult(USDV);\n        uint256 tUSDInVader = consult(VADER);\n\n        result = tUSDInUSDV / tUSDInVader;\n    }\n\n    /**\n     * @dev Gets the VADER amount from the supplied USDV amount.\n     * @param usdvAmount The amount in USDV.\n     */\n    function usdvtoVader(uint256 usdvAmount) external view returns (uint256) {\n        return usdvAmount * getRate();\n    }\n\n    /**\n     * @dev Gets the USDV amount from the supplied VADER amount.\n     * @param vaderAmount The amount in VADER.\n     */\n    function vaderToUsdv(uint256 vaderAmount) external view returns (uint256) {\n        if (!_usdvEnabled) {\n            // consult call returns true USD amount against 1 Vader and is multiplied with {vaderAmount}.\n            return consult(VADER) * vaderAmount;\n        }\n\n        // usdv price is disabled so true USD value of both Vader and USDV is taken into account.\n        return vaderAmount / getRate();\n    }\n\n    /* ========== MUTATIVE FUNCTIONS ========== */\n\n    /**\n     * @dev Initializes the variables for VADER and USDV.\n     * @param _usdv The USDV token address.\n     * @param _vader The VADER token address.\n     */\n    function initialize(address _usdv, address _vader) external onlyOwner {\n        require(\n            VADER == address(0),\n            \"TwapOracle::initialize: Vader already set\"\n        );\n        require(USDV == address(0), \"TwapOracle::initialize: USDV already set\");\n        require(\n            _usdv != address(0),\n            \"TwapOracle::initialize: can not set to a zero address\"\n        );\n        require(\n            _vader != address(0),\n            \"TwapOracle::initialize: can not set to a zero address\"\n        );\n\n        VADER = _vader;\n        USDV = _usdv;\n    }\n\n    /**\n     * @dev Enables utilization of USDV.\n     */\n    function enableUSDV() external onlyOwner {\n        _usdvEnabled = true;\n    }\n\n    /**\n     * @dev Registers a chainlink {aggregator} for the supplied {asset} address.\n     * @param asset The address of the native asset.\n     * @param aggregator The address of the chainlink aggregator.\n     */\n    function registerAggregator(address asset, address aggregator)\n        external\n        onlyOwner\n        initialized\n    {\n        require(\n            asset != address(0),\n            \"TwapOracle::registerAggregator: asset zero address provided\"\n        );\n        require(\n            aggregator != address(0),\n            \"TwapOracle::registerAggregator: aggregator zero address provided\"\n        );\n        require(\n            _aggregators[asset] == address(0),\n            \"TwapOracle::registerAggregator: aggregator already exists\"\n        );\n\n        _aggregators[asset] = aggregator;\n    }\n\n    /**\n     * @dev Registers either a VADER or USDV pairing in the TWAP oracle.\n     * @param factory The factory address, if any.\n     * @param token0 The primary token address, either VADER or USDV.\n     * @param token1 The asset token address, paired to VADER or USDV.\n     */\n    function registerPair(\n        address factory,\n        address token0,\n        address token1\n    ) external onlyOwner initialized {\n        require(\n            token0 == VADER || token0 == USDV,\n            \"TwapOracle::registerPair: Invalid token0 address\"\n        );\n        require(\n            token0 != token1,\n            \"TwapOracle::registerPair: Same token address\"\n        );\n        require(\n            !pairExists(token0, token1),\n            \"TwapOracle::registerPair: Pair exists\"\n        );\n\n        address pairAddr;\n        uint256 price0CumulativeLast;\n        uint256 price1CumulativeLast;\n        uint112 reserve0;\n        uint112 reserve1;\n        uint32 blockTimestampLast;\n\n        if (token0 == VADER) {\n            IUniswapV2Pair pair = IUniswapV2Pair(\n                IUniswapV2Factory(factory).getPair(token0, token1)\n            );\n            pairAddr = address(pair);\n            price0CumulativeLast = pair.price0CumulativeLast();\n            price1CumulativeLast = pair.price1CumulativeLast();\n            (reserve0, reserve1, blockTimestampLast) = pair.getReserves();\n        } else {\n            pairAddr = address(_vaderPool);\n            (price0CumulativeLast, price1CumulativeLast, ) = _vaderPool\n                .cumulativePrices(IERC20(token1));\n            (reserve0, reserve1, blockTimestampLast) = _vaderPool.getReserves(\n                IERC20(token1)\n            );\n        }\n\n        require(\n            reserve0 != 0 && reserve1 != 0,\n            \"TwapOracle::registerPair: No reserves\"\n        );\n\n        _pairExists[keccak256(abi.encodePacked(token0, token1))] = true;\n\n        _pairs.push(\n            PairData({\n                pair: pairAddr,\n                token0: token0,\n                token1: token1,\n                price0CumulativeLast: price0CumulativeLast,\n                price1CumulativeLast: price1CumulativeLast,\n                blockTimestampLast: blockTimestampLast,\n                price0Average: FixedPoint.uq112x112({_x: 0}),\n                price1Average: FixedPoint.uq112x112({_x: 0})\n            })\n        );\n    }\n\n    /**\n     * @dev Updates the average prices for all token pairs registered in the TWAP oracle.\n     */\n    function update() external onlyOwner initialized {\n        uint256 pairCount = _pairs.length;\n\n        // Update all of the registered pairs in the TWAP oracle.\n        for (uint256 i = 0; i < pairCount; i++) {\n            PairData storage pairData = _pairs[i];\n\n            // Get the current cumulative prices and block timestamp of the current pairing.\n            (\n                uint256 price0Cumulative,\n                uint256 price1Cumulative,\n                uint32 blockTimestamp\n            ) = (pairData.token0 == VADER)\n                    ? UniswapV2OracleLibrary.currentCumulativePrices(\n                        pairData.pair\n                    )\n                    : _vaderPool.cumulativePrices(IERC20(pairData.token1));\n\n            unchecked {\n                // Ensure that at least one full period has passed since the pairing was last update.\n                uint32 timeElapsed = blockTimestamp -\n                    pairData.blockTimestampLast;\n                require(\n                    timeElapsed >= _updatePeriod,\n                    \"TwapOracle::update: Period not elapsed\"\n                );\n\n                // Cumulative price is in (uq112x112 price * seconds) units so we simply wrap it after division by time elapsed.\n                pairData.price0Average = FixedPoint.uq112x112(\n                    uint224(\n                        (price0Cumulative - pairData.price0CumulativeLast) /\n                            timeElapsed\n                    )\n                );\n                pairData.price1Average = FixedPoint.uq112x112(\n                    uint224(\n                        (price1Cumulative - pairData.price1CumulativeLast) /\n                            timeElapsed\n                    )\n                );\n            }\n\n            // Update the stored pairing data\n            pairData.price0CumulativeLast = price0Cumulative;\n            pairData.price1CumulativeLast = price1Cumulative;\n            pairData.blockTimestampLast = blockTimestamp;\n        }\n    }\n}\n",
  "sourcePath": "/home/mingyue/sub_contract_content/Web3Bugs/contracts/52/contracts/twap/TwapOracle.sol",
  "compiler": {
    "name": "solc",
    "version": "0.8.9+commit.e5eed63a.Emscripten.clang"
  },
  "schemaVersion": "3.4.16",
  "updatedAt": "2025-03-06T07:23:55.100Z",
  "devdoc": {
    "kind": "dev",
    "methods": {
      "constructor": {
        "details": "Constructs a new TWAP oracle with a VADER pool and update period.",
        "params": {
          "updatePeriod": "The required period of time between each oracle update.",
          "vaderPool": "The VADER pool address."
        }
      },
      "consult(address)": {
        "details": "Performs a consultation to retrieve the equivalent to {amountIn} for the supplied {token} address. The {token} address must have a registered pairing, otherwise the transaction will revert.",
        "params": {
          "token": "The token address to consult the equivalent {amountIn} for."
        }
      },
      "enableUSDV()": {
        "details": "Enables utilization of USDV."
      },
      "getRate()": {
        "details": "Gets the exchange rate for the Vader to USDV."
      },
      "initialize(address,address)": {
        "details": "Initializes the variables for VADER and USDV.",
        "params": {
          "_usdv": "The USDV token address.",
          "_vader": "The VADER token address."
        }
      },
      "owner()": {
        "details": "Returns the address of the current owner."
      },
      "pairExists(address,address)": {
        "details": "Checks if a pair exists for the supplied {token0} and {token1} addresses.",
        "params": {
          "token0": "The primary token address, either VADER or USDV.",
          "token1": "The asset token address, paired to either VADER or USDV."
        }
      },
      "registerAggregator(address,address)": {
        "details": "Registers a chainlink {aggregator} for the supplied {asset} address.",
        "params": {
          "aggregator": "The address of the chainlink aggregator.",
          "asset": "The address of the native asset."
        }
      },
      "registerPair(address,address,address)": {
        "details": "Registers either a VADER or USDV pairing in the TWAP oracle.",
        "params": {
          "factory": "The factory address, if any.",
          "token0": "The primary token address, either VADER or USDV.",
          "token1": "The asset token address, paired to VADER or USDV."
        }
      },
      "renounceOwnership()": {
        "details": "Leaves the contract without owner. It will not be possible to call `onlyOwner` functions. Can only be called by the current owner. NOTE: Renouncing ownership will leave the contract without an owner, thereby disabling any functionality that is only available to the owner."
      },
      "transferOwnership(address)": {
        "details": "Transfers ownership of the contract to a new account (`newOwner`). Can only be called by the current owner."
      },
      "update()": {
        "details": "Updates the average prices for all token pairs registered in the TWAP oracle."
      },
      "usdvtoVader(uint256)": {
        "details": "Gets the VADER amount from the supplied USDV amount.",
        "params": {
          "usdvAmount": "The amount in USDV."
        }
      },
      "vaderToUsdv(uint256)": {
        "details": "Gets the USDV amount from the supplied VADER amount.",
        "params": {
          "vaderAmount": "The amount in VADER."
        }
      }
    },
    "version": 1
  },
  "userdoc": {
    "kind": "user",
    "methods": {},
    "version": 1
  }
}