{
  "contractName": "USDV",
  "abi": [
    {
      "inputs": [
        {
          "internalType": "contract IERC20",
          "name": "_vader",
          "type": "address"
        },
        {
          "internalType": "contract IVaderReserve",
          "name": "_reserve",
          "type": "address"
        }
      ],
      "stateMutability": "nonpayable",
      "type": "constructor"
    },
    {
      "anonymous": false,
      "inputs": [
        {
          "indexed": true,
          "internalType": "address",
          "name": "owner",
          "type": "address"
        },
        {
          "indexed": true,
          "internalType": "address",
          "name": "spender",
          "type": "address"
        },
        {
          "indexed": false,
          "internalType": "uint256",
          "name": "value",
          "type": "uint256"
        }
      ],
      "name": "Approval",
      "type": "event"
    },
    {
      "anonymous": false,
      "inputs": [
        {
          "indexed": true,
          "internalType": "address",
          "name": "previousOwner",
          "type": "address"
        },
        {
          "indexed": true,
          "internalType": "address",
          "name": "newOwner",
          "type": "address"
        }
      ],
      "name": "OwnershipTransferred",
      "type": "event"
    },
    {
      "anonymous": false,
      "inputs": [
        {
          "indexed": true,
          "internalType": "address",
          "name": "from",
          "type": "address"
        },
        {
          "indexed": true,
          "internalType": "address",
          "name": "to",
          "type": "address"
        },
        {
          "indexed": false,
          "internalType": "uint256",
          "name": "value",
          "type": "uint256"
        }
      ],
      "name": "Transfer",
      "type": "event"
    },
    {
      "inputs": [
        {
          "internalType": "address",
          "name": "owner",
          "type": "address"
        },
        {
          "internalType": "address",
          "name": "spender",
          "type": "address"
        }
      ],
      "name": "allowance",
      "outputs": [
        {
          "internalType": "uint256",
          "name": "",
          "type": "uint256"
        }
      ],
      "stateMutability": "view",
      "type": "function"
    },
    {
      "inputs": [
        {
          "internalType": "address",
          "name": "spender",
          "type": "address"
        },
        {
          "internalType": "uint256",
          "name": "amount",
          "type": "uint256"
        }
      ],
      "name": "approve",
      "outputs": [
        {
          "internalType": "bool",
          "name": "",
          "type": "bool"
        }
      ],
      "stateMutability": "nonpayable",
      "type": "function"
    },
    {
      "inputs": [
        {
          "internalType": "address",
          "name": "account",
          "type": "address"
        }
      ],
      "name": "balanceOf",
      "outputs": [
        {
          "internalType": "uint256",
          "name": "",
          "type": "uint256"
        }
      ],
      "stateMutability": "view",
      "type": "function"
    },
    {
      "inputs": [],
      "name": "decimals",
      "outputs": [
        {
          "internalType": "uint8",
          "name": "",
          "type": "uint8"
        }
      ],
      "stateMutability": "view",
      "type": "function"
    },
    {
      "inputs": [
        {
          "internalType": "address",
          "name": "spender",
          "type": "address"
        },
        {
          "internalType": "uint256",
          "name": "subtractedValue",
          "type": "uint256"
        }
      ],
      "name": "decreaseAllowance",
      "outputs": [
        {
          "internalType": "bool",
          "name": "",
          "type": "bool"
        }
      ],
      "stateMutability": "nonpayable",
      "type": "function"
    },
    {
      "inputs": [
        {
          "internalType": "address",
          "name": "spender",
          "type": "address"
        },
        {
          "internalType": "uint256",
          "name": "addedValue",
          "type": "uint256"
        }
      ],
      "name": "increaseAllowance",
      "outputs": [
        {
          "internalType": "bool",
          "name": "",
          "type": "bool"
        }
      ],
      "stateMutability": "nonpayable",
      "type": "function"
    },
    {
      "inputs": [],
      "name": "name",
      "outputs": [
        {
          "internalType": "string",
          "name": "",
          "type": "string"
        }
      ],
      "stateMutability": "view",
      "type": "function"
    },
    {
      "inputs": [],
      "name": "owner",
      "outputs": [
        {
          "internalType": "address",
          "name": "",
          "type": "address"
        }
      ],
      "stateMutability": "view",
      "type": "function"
    },
    {
      "inputs": [],
      "name": "renounceOwnership",
      "outputs": [],
      "stateMutability": "nonpayable",
      "type": "function"
    },
    {
      "inputs": [],
      "name": "reserve",
      "outputs": [
        {
          "internalType": "contract IVaderReserve",
          "name": "",
          "type": "address"
        }
      ],
      "stateMutability": "view",
      "type": "function"
    },
    {
      "inputs": [],
      "name": "symbol",
      "outputs": [
        {
          "internalType": "string",
          "name": "",
          "type": "string"
        }
      ],
      "stateMutability": "view",
      "type": "function"
    },
    {
      "inputs": [],
      "name": "totalSupply",
      "outputs": [
        {
          "internalType": "uint256",
          "name": "",
          "type": "uint256"
        }
      ],
      "stateMutability": "view",
      "type": "function"
    },
    {
      "inputs": [
        {
          "internalType": "address",
          "name": "to",
          "type": "address"
        },
        {
          "internalType": "uint256",
          "name": "amount",
          "type": "uint256"
        }
      ],
      "name": "transfer",
      "outputs": [
        {
          "internalType": "bool",
          "name": "",
          "type": "bool"
        }
      ],
      "stateMutability": "nonpayable",
      "type": "function"
    },
    {
      "inputs": [
        {
          "internalType": "address",
          "name": "from",
          "type": "address"
        },
        {
          "internalType": "address",
          "name": "to",
          "type": "address"
        },
        {
          "internalType": "uint256",
          "name": "amount",
          "type": "uint256"
        }
      ],
      "name": "transferFrom",
      "outputs": [
        {
          "internalType": "bool",
          "name": "",
          "type": "bool"
        }
      ],
      "stateMutability": "nonpayable",
      "type": "function"
    },
    {
      "inputs": [
        {
          "internalType": "address",
          "name": "newOwner",
          "type": "address"
        }
      ],
      "name": "transferOwnership",
      "outputs": [],
      "stateMutability": "nonpayable",
      "type": "function"
    },
    {
      "inputs": [],
      "name": "vader",
      "outputs": [
        {
          "internalType": "contract IERC20",
          "name": "",
          "type": "address"
        }
      ],
      "stateMutability": "view",
      "type": "function"
    },
    {
      "inputs": [],
      "name": "distributeEmission",
      "outputs": [],
      "stateMutability": "nonpayable",
      "type": "function"
    }
  ],
  "bytecode": "0x60c06040523480156200001157600080fd5b5060405162000f3638038062000f3683398101604081905262000034916200024b565b6040805180820182526009815268159859195c881554d160ba1b6020808301918252835180850190945260048452632aa9a22b60e11b90840152815191929162000081916003916200018c565b508051620000979060049060208401906200018c565b505050620000b4620000ae6200013660201b60201c565b6200013a565b6001600160a01b0381166200011e5760405162461bcd60e51b815260206004820152602660248201527f555344563a3a636f6e7374727563746f723a20496e636f727265637420417267604482015265756d656e747360d01b606482015260840160405180910390fd5b6001600160a01b039182166080521660a052620002c7565b3390565b600580546001600160a01b038381166001600160a01b0319831681179093556040519116919082907f8be0079c531659141344cd1fd0a4f28419497f9722a3daafe3b4186f6b6457e090600090a35050565b8280546200019a906200028a565b90600052602060002090601f016020900481019282620001be576000855562000209565b82601f10620001d957805160ff191683800117855562000209565b8280016001018555821562000209579182015b8281111562000209578251825591602001919060010190620001ec565b50620002179291506200021b565b5090565b5b808211156200021757600081556001016200021c565b6001600160a01b03811681146200024857600080fd5b50565b600080604083850312156200025f57600080fd5b82516200026c8162000232565b60208401519092506200027f8162000232565b809150509250929050565b600181811c908216806200029f57607f821691505b60208210811415620002c157634e487b7160e01b600052602260045260246000fd5b50919050565b60805160a051610c346200030260003960008181610256015261043f015260008181610168015281816103a601526104710152610c346000f3fe608060405234801561001057600080fd5b506004361061010b5760003560e01c806370a08231116100a2578063a457c2d711610071578063a457c2d71461022b578063a9059cbb1461023e578063cd3293de14610251578063dd62ed3e14610278578063f2fde38b1461028b57600080fd5b806370a08231146101e1578063715018a61461020a5780638da5cb5b1461021257806395d89b411461022357600080fd5b806323b872dd116100de57806323b872dd146101a2578063313ce567146101b557806339509351146101c45780636bfa1dba146101d757600080fd5b806306fdde0314610110578063095ea7b31461012e57806318160ddd146101515780631f494b6414610163575b600080fd5b61011861029e565b6040516101259190610a36565b60405180910390f35b61014161013c366004610aa7565b610330565b6040519015158152602001610125565b6002545b604051908152602001610125565b61018a7f000000000000000000000000000000000000000000000000000000000000000081565b6040516001600160a01b039091168152602001610125565b6101416101b0366004610ad1565b610348565b60405160128152602001610125565b6101416101d2366004610aa7565b61036c565b6101df61038e565b005b6101556101ef366004610b0d565b6001600160a01b031660009081526020819052604090205490565b6101df6104f3565b6005546001600160a01b031661018a565b610118610507565b610141610239366004610aa7565b610516565b61014161024c366004610aa7565b610596565b61018a7f000000000000000000000000000000000000000000000000000000000000000081565b610155610286366004610b2f565b6105a4565b6101df610299366004610b0d565b6105cf565b6060600380546102ad90610b62565b80601f01602080910402602001604051908101604052809291908181526020018280546102d990610b62565b80156103265780601f106102fb57610100808354040283529160200191610326565b820191906000526020600020905b81548152906001019060200180831161030957829003601f168201915b5050505050905090565b60003361033e818585610648565b5060019392505050565b60003361035685828561076c565b6103618585856107e6565b506001949350505050565b60003361033e81858561037f83836105a4565b6103899190610b9d565b610648565b6040516370a0823160e01b81523060048201526000907f00000000000000000000000000000000000000000000000000000000000000006001600160a01b0316906370a082319060240160206040518083038186803b1580156103f057600080fd5b505afa158015610404573d6000803e3d6000fd5b505050506040513d601f19601f820116820180604052508101906104289190610bc3565b60405163a9059cbb60e01b81526001600160a01b037f000000000000000000000000000000000000000000000000000000000000000081166004830152602482018390529192507f00000000000000000000000000000000000000000000000000000000000000009091169063a9059cbb90604401602060405180830381600087803b1580156104b757600080fd5b505af11580156104cb573d6000803e3d6000fd5b505050506040513d601f19601f820116820180604052508101906104ef9190610bdc565b5050565b6104fb61098a565b61050560006109e4565b565b6060600480546102ad90610b62565b6000338161052482866105a4565b9050838110156105895760405162461bcd60e51b815260206004820152602560248201527f45524332303a2064656372656173656420616c6c6f77616e63652062656c6f77604482015264207a65726f60d81b60648201526084015b60405180910390fd5b6103618286868403610648565b60003361033e8185856107e6565b6001600160a01b03918216600090815260016020908152604080832093909416825291909152205490565b6105d761098a565b6001600160a01b03811661063c5760405162461bcd60e51b815260206004820152602660248201527f4f776e61626c653a206e6577206f776e657220697320746865207a65726f206160448201526564647265737360d01b6064820152608401610580565b610645816109e4565b50565b6001600160a01b0383166106aa5760405162461bcd60e51b8152602060048201526024808201527f45524332303a20617070726f76652066726f6d20746865207a65726f206164646044820152637265737360e01b6064820152608401610580565b6001600160a01b03821661070b5760405162461bcd60e51b815260206004820152602260248201527f45524332303a20617070726f766520746f20746865207a65726f206164647265604482015261737360f01b6064820152608401610580565b6001600160a01b0383811660008181526001602090815260408083209487168084529482529182902085905590518481527f8c5be1e5ebec7d5bd14f71427d1e84f3dd0314c0f7b2291e5b200ac8c7c3b925910160405180910390a3505050565b600061077884846105a4565b905060001981146107e057818110156107d35760405162461bcd60e51b815260206004820152601d60248201527f45524332303a20696e73756666696369656e7420616c6c6f77616e63650000006044820152606401610580565b6107e08484848403610648565b50505050565b6001600160a01b03831661084a5760405162461bcd60e51b815260206004820152602560248201527f45524332303a207472616e736665722066726f6d20746865207a65726f206164604482015264647265737360d81b6064820152608401610580565b6001600160a01b0382166108ac5760405162461bcd60e51b815260206004820152602360248201527f45524332303a207472616e7366657220746f20746865207a65726f206164647260448201526265737360e81b6064820152608401610580565b6001600160a01b038316600090815260208190526040902054818110156109245760405162461bcd60e51b815260206004820152602660248201527f45524332303a207472616e7366657220616d6f756e7420657863656564732062604482015265616c616e636560d01b6064820152608401610580565b6001600160a01b03848116600081815260208181526040808320878703905593871680835291849020805487019055925185815290927fddf252ad1be2c89b69c2b068fc378daa952ba7f163c4a11628f55a4df523b3ef910160405180910390a36107e0565b6005546001600160a01b031633146105055760405162461bcd60e51b815260206004820181905260248201527f4f776e61626c653a2063616c6c6572206973206e6f7420746865206f776e65726044820152606401610580565b600580546001600160a01b038381166001600160a01b0319831681179093556040519116919082907f8be0079c531659141344cd1fd0a4f28419497f9722a3daafe3b4186f6b6457e090600090a35050565b600060208083528351808285015260005b81811015610a6357858101830151858201604001528201610a47565b81811115610a75576000604083870101525b50601f01601f1916929092016040019392505050565b80356001600160a01b0381168114610aa257600080fd5b919050565b60008060408385031215610aba57600080fd5b610ac383610a8b565b946020939093013593505050565b600080600060608486031215610ae657600080fd5b610aef84610a8b565b9250610afd60208501610a8b565b9150604084013590509250925092565b600060208284031215610b1f57600080fd5b610b2882610a8b565b9392505050565b60008060408385031215610b4257600080fd5b610b4b83610a8b565b9150610b5960208401610a8b565b90509250929050565b600181811c90821680610b7657607f821691505b60208210811415610b9757634e487b7160e01b600052602260045260246000fd5b50919050565b60008219821115610bbe57634e487b7160e01b600052601160045260246000fd5b500190565b600060208284031215610bd557600080fd5b5051919050565b600060208284031215610bee57600080fd5b81518015158114610b2857600080fdfea2646970667358221220df297e8ec0a5cb755efce518c86fcc9a355c2f3f4510e395776f49694b6b76da64736f6c63430008090033",
  "immutableReferences": {
    "22302": [
      {
        "length": 32,
        "start": 360
      },
      {
        "length": 32,
        "start": 934
      },
      {
        "length": 32,
        "start": 1137
      }
    ],
    "22305": [
      {
        "length": 32,
        "start": 598
      },
      {
        "length": 32,
        "start": 1087
      }
    ]
  },
  "source": "// SPDX-License-Identifier: Unlicense\r\n\r\npragma solidity =0.8.9;\r\n\r\nimport \"@openzeppelin/contracts/access/Ownable.sol\";\r\nimport \"@openzeppelin/contracts/token/ERC20/ERC20.sol\";\r\n\r\nimport \"../shared/ProtocolConstants.sol\";\r\n\r\nimport \"../interfaces/tokens/IUSDV.sol\";\r\nimport \"../interfaces/reserve/IVaderReserve.sol\";\r\n\r\n// TBD\r\ncontract USDV is IUSDV, ProtocolConstants, ERC20, Ownable {\r\n    /* ========== STATE VARIABLES ========== */\r\n\r\n    IERC20 public immutable vader;\r\n    IVaderReserve public immutable reserve;\r\n\r\n    /* ========== CONSTRUCTOR ========== */\r\n\r\n    constructor(IERC20 _vader, IVaderReserve _reserve)\r\n        ERC20(\"Vader USD\", \"USDV\")\r\n    {\r\n        require(\r\n            _reserve != IVaderReserve(_ZERO_ADDRESS),\r\n            \"USDV::constructor: Incorrect Arguments\"\r\n        );\r\n        vader = _vader;\r\n        reserve = _reserve;\r\n    }\r\n\r\n    /* ========== VIEWS ========== */\r\n\r\n    /* ========== MUTATIVE FUNCTIONS ========== */\r\n\r\n    function distributeEmission() external override {\r\n        // TODO: Adjust when incentives clearly defined\r\n        uint256 balance = vader.balanceOf(address(this));\r\n        vader.transfer(address(reserve), balance);\r\n    }\r\n\r\n    /* ========== RESTRICTED FUNCTIONS ========== */\r\n\r\n    /* ========== INTERNAL FUNCTIONS ========== */\r\n\r\n    /* ========== PRIVATE FUNCTIONS ========== */\r\n\r\n    /* ========== MODIFIERS ========== */\r\n}\r\n",
  "sourcePath": "/home/mingyue/sub_contract_content/Web3Bugs/contracts/52/contracts/tokens/USDV.sol",
  "compiler": {
    "name": "solc",
    "version": "0.8.9+commit.e5eed63a.Emscripten.clang"
  },
  "schemaVersion": "3.4.16",
  "updatedAt": "2025-03-06T07:23:55.091Z",
  "devdoc": {
    "kind": "dev",
    "methods": {
      "allowance(address,address)": {
        "details": "See {IERC20-allowance}."
      },
      "approve(address,uint256)": {
        "details": "See {IERC20-approve}. NOTE: If `amount` is the maximum `uint256`, the allowance is not updated on `transferFrom`. This is semantically equivalent to an infinite approval. Requirements: - `spender` cannot be the zero address."
      },
      "balanceOf(address)": {
        "details": "See {IERC20-balanceOf}."
      },
      "decimals()": {
        "details": "Returns the number of decimals used to get its user representation. For example, if `decimals` equals `2`, a balance of `505` tokens should be displayed to a user as `5.05` (`505 / 10 ** 2`). Tokens usually opt for a value of 18, imitating the relationship between Ether and Wei. This is the default value returned by this function, unless it's overridden. NOTE: This information is only used for _display_ purposes: it in no way affects any of the arithmetic of the contract, including {IERC20-balanceOf} and {IERC20-transfer}."
      },
      "decreaseAllowance(address,uint256)": {
        "details": "Atomically decreases the allowance granted to `spender` by the caller. This is an alternative to {approve} that can be used as a mitigation for problems described in {IERC20-approve}. Emits an {Approval} event indicating the updated allowance. Requirements: - `spender` cannot be the zero address. - `spender` must have allowance for the caller of at least `subtractedValue`."
      },
      "increaseAllowance(address,uint256)": {
        "details": "Atomically increases the allowance granted to `spender` by the caller. This is an alternative to {approve} that can be used as a mitigation for problems described in {IERC20-approve}. Emits an {Approval} event indicating the updated allowance. Requirements: - `spender` cannot be the zero address."
      },
      "name()": {
        "details": "Returns the name of the token."
      },
      "owner()": {
        "details": "Returns the address of the current owner."
      },
      "renounceOwnership()": {
        "details": "Leaves the contract without owner. It will not be possible to call `onlyOwner` functions. Can only be called by the current owner. NOTE: Renouncing ownership will leave the contract without an owner, thereby disabling any functionality that is only available to the owner."
      },
      "symbol()": {
        "details": "Returns the symbol of the token, usually a shorter version of the name."
      },
      "totalSupply()": {
        "details": "See {IERC20-totalSupply}."
      },
      "transfer(address,uint256)": {
        "details": "See {IERC20-transfer}. Requirements: - `to` cannot be the zero address. - the caller must have a balance of at least `amount`."
      },
      "transferFrom(address,address,uint256)": {
        "details": "See {IERC20-transferFrom}. Emits an {Approval} event indicating the updated allowance. This is not required by the EIP. See the note at the beginning of {ERC20}. NOTE: Does not update the allowance if the current allowance is the maximum `uint256`. Requirements: - `from` and `to` cannot be the zero address. - `from` must have a balance of at least `amount`. - the caller must have allowance for ``from``'s tokens of at least `amount`."
      },
      "transferOwnership(address)": {
        "details": "Transfers ownership of the contract to a new account (`newOwner`). Can only be called by the current owner."
      }
    },
    "version": 1
  },
  "userdoc": {
    "kind": "user",
    "methods": {},
    "version": 1
  }
}