{
  "contractName": "VaderRouter",
  "abi": [
    {
      "inputs": [
        {
          "internalType": "contract IVaderPoolFactory",
          "name": "_factory",
          "type": "address"
        }
      ],
      "stateMutability": "nonpayable",
      "type": "constructor"
    },
    {
      "anonymous": false,
      "inputs": [
        {
          "indexed": true,
          "internalType": "address",
          "name": "previousOwner",
          "type": "address"
        },
        {
          "indexed": true,
          "internalType": "address",
          "name": "newOwner",
          "type": "address"
        }
      ],
      "name": "OwnershipTransferred",
      "type": "event"
    },
    {
      "inputs": [],
      "name": "factory",
      "outputs": [
        {
          "internalType": "contract IVaderPoolFactory",
          "name": "",
          "type": "address"
        }
      ],
      "stateMutability": "view",
      "type": "function"
    },
    {
      "inputs": [],
      "name": "owner",
      "outputs": [
        {
          "internalType": "address",
          "name": "",
          "type": "address"
        }
      ],
      "stateMutability": "view",
      "type": "function"
    },
    {
      "inputs": [],
      "name": "renounceOwnership",
      "outputs": [],
      "stateMutability": "nonpayable",
      "type": "function"
    },
    {
      "inputs": [],
      "name": "reserve",
      "outputs": [
        {
          "internalType": "contract IVaderReserve",
          "name": "",
          "type": "address"
        }
      ],
      "stateMutability": "view",
      "type": "function"
    },
    {
      "inputs": [
        {
          "internalType": "address",
          "name": "newOwner",
          "type": "address"
        }
      ],
      "name": "transferOwnership",
      "outputs": [],
      "stateMutability": "nonpayable",
      "type": "function"
    },
    {
      "inputs": [
        {
          "internalType": "contract IERC20",
          "name": "tokenA",
          "type": "address"
        },
        {
          "internalType": "contract IERC20",
          "name": "tokenB",
          "type": "address"
        },
        {
          "internalType": "uint256",
          "name": "amountADesired",
          "type": "uint256"
        },
        {
          "internalType": "uint256",
          "name": "amountBDesired",
          "type": "uint256"
        },
        {
          "internalType": "address",
          "name": "to",
          "type": "address"
        },
        {
          "internalType": "uint256",
          "name": "deadline",
          "type": "uint256"
        }
      ],
      "name": "addLiquidity",
      "outputs": [
        {
          "internalType": "uint256",
          "name": "amountA",
          "type": "uint256"
        },
        {
          "internalType": "uint256",
          "name": "amountB",
          "type": "uint256"
        },
        {
          "internalType": "uint256",
          "name": "liquidity",
          "type": "uint256"
        }
      ],
      "stateMutability": "nonpayable",
      "type": "function"
    },
    {
      "inputs": [
        {
          "internalType": "contract IERC20",
          "name": "tokenA",
          "type": "address"
        },
        {
          "internalType": "contract IERC20",
          "name": "tokenB",
          "type": "address"
        },
        {
          "internalType": "uint256",
          "name": "amountADesired",
          "type": "uint256"
        },
        {
          "internalType": "uint256",
          "name": "amountBDesired",
          "type": "uint256"
        },
        {
          "internalType": "uint256",
          "name": "",
          "type": "uint256"
        },
        {
          "internalType": "uint256",
          "name": "",
          "type": "uint256"
        },
        {
          "internalType": "address",
          "name": "to",
          "type": "address"
        },
        {
          "internalType": "uint256",
          "name": "deadline",
          "type": "uint256"
        }
      ],
      "name": "addLiquidity",
      "outputs": [
        {
          "internalType": "uint256",
          "name": "amountA",
          "type": "uint256"
        },
        {
          "internalType": "uint256",
          "name": "amountB",
          "type": "uint256"
        },
        {
          "internalType": "uint256",
          "name": "liquidity",
          "type": "uint256"
        }
      ],
      "stateMutability": "nonpayable",
      "type": "function"
    },
    {
      "inputs": [
        {
          "internalType": "address",
          "name": "tokenA",
          "type": "address"
        },
        {
          "internalType": "address",
          "name": "tokenB",
          "type": "address"
        },
        {
          "internalType": "uint256",
          "name": "id",
          "type": "uint256"
        },
        {
          "internalType": "uint256",
          "name": "amountAMin",
          "type": "uint256"
        },
        {
          "internalType": "uint256",
          "name": "amountBMin",
          "type": "uint256"
        },
        {
          "internalType": "address",
          "name": "to",
          "type": "address"
        },
        {
          "internalType": "uint256",
          "name": "deadline",
          "type": "uint256"
        }
      ],
      "name": "removeLiquidity",
      "outputs": [
        {
          "internalType": "uint256",
          "name": "amountA",
          "type": "uint256"
        },
        {
          "internalType": "uint256",
          "name": "amountB",
          "type": "uint256"
        }
      ],
      "stateMutability": "nonpayable",
      "type": "function"
    },
    {
      "inputs": [
        {
          "internalType": "uint256",
          "name": "amountIn",
          "type": "uint256"
        },
        {
          "internalType": "uint256",
          "name": "amountOutMin",
          "type": "uint256"
        },
        {
          "internalType": "address[]",
          "name": "path",
          "type": "address[]"
        },
        {
          "internalType": "address",
          "name": "to",
          "type": "address"
        },
        {
          "internalType": "uint256",
          "name": "deadline",
          "type": "uint256"
        }
      ],
      "name": "swapExactTokensForTokens",
      "outputs": [
        {
          "internalType": "uint256",
          "name": "amountOut",
          "type": "uint256"
        }
      ],
      "stateMutability": "nonpayable",
      "type": "function"
    },
    {
      "inputs": [
        {
          "internalType": "uint256",
          "name": "amountOut",
          "type": "uint256"
        },
        {
          "internalType": "uint256",
          "name": "amountInMax",
          "type": "uint256"
        },
        {
          "internalType": "address[]",
          "name": "path",
          "type": "address[]"
        },
        {
          "internalType": "address",
          "name": "to",
          "type": "address"
        },
        {
          "internalType": "uint256",
          "name": "deadline",
          "type": "uint256"
        }
      ],
      "name": "swapTokensForExactTokens",
      "outputs": [
        {
          "internalType": "uint256",
          "name": "amountIn",
          "type": "uint256"
        }
      ],
      "stateMutability": "nonpayable",
      "type": "function"
    },
    {
      "inputs": [
        {
          "internalType": "contract IVaderReserve",
          "name": "_reserve",
          "type": "address"
        }
      ],
      "name": "initialize",
      "outputs": [],
      "stateMutability": "nonpayable",
      "type": "function"
    },
    {
      "inputs": [
        {
          "internalType": "uint256",
          "name": "amountOut",
          "type": "uint256"
        },
        {
          "internalType": "address[]",
          "name": "path",
          "type": "address[]"
        }
      ],
      "name": "calculateInGivenOut",
      "outputs": [
        {
          "internalType": "uint256",
          "name": "amountIn",
          "type": "uint256"
        }
      ],
      "stateMutability": "view",
      "type": "function"
    },
    {
      "inputs": [
        {
          "internalType": "uint256",
          "name": "amountIn",
          "type": "uint256"
        },
        {
          "internalType": "address[]",
          "name": "path",
          "type": "address[]"
        }
      ],
      "name": "calculateOutGivenIn",
      "outputs": [
        {
          "internalType": "uint256",
          "name": "amountOut",
          "type": "uint256"
        }
      ],
      "stateMutability": "view",
      "type": "function"
    }
  ],
  "bytecode": "0x60a06040523480156200001157600080fd5b5060405162002acb38038062002acb833981016040819052620000349162000112565b6200003f33620000c2565b6001600160a01b038116620000b05760405162461bcd60e51b815260206004820152602d60248201527f5661646572526f757465723a3a636f6e7374727563746f723a20496e636f727260448201526c65637420417267756d656e747360981b606482015260840160405180910390fd5b6001600160a01b031660805262000144565b600080546001600160a01b038381166001600160a01b0319831681178455604051919092169283917f8be0079c531659141344cd1fd0a4f28419497f9722a3daafe3b4186f6b6457e09190a35050565b6000602082840312156200012557600080fd5b81516001600160a01b03811681146200013d57600080fd5b9392505050565b6080516128f4620001d7600039600081816101bd015281816103e70152818161047c0152818161071b0152818161080b01528181610c0f01528181610ca401528181610eec01528181610fdc01528181611264015281816113e601528181611785015281816118dc015281816119cc01528181611c7d01528181611d9201528181611fb7015261207a01526128f46000f3fe608060405234801561001057600080fd5b50600436106100cf5760003560e01c8063b172c2e11161008c578063c4d66de811610066578063c4d66de8146101df578063cd3293de146101f2578063e8e3370014610205578063f2fde38b1461021857600080fd5b8063b172c2e11461017d578063baa2abde14610190578063c45a0155146101b857600080fd5b806338ed1739146100d45780636ed36f88146100fa5780636f6eced214610128578063715018a61461013b5780638803dbee146101455780638da5cb5b14610158575b600080fd5b6100e76100e2366004612477565b61022b565b6040519081526020015b60405180910390f35b61010d6101083660046124ea565b6102e8565b604080519384526020840192909252908201526060016100f1565b6100e7610136366004612551565b6103d8565b610143610b2e565b005b6100e7610153366004612477565b610b42565b6000546001600160a01b03165b6040516001600160a01b0390911681526020016100f1565b6100e761018b366004612551565b610c00565b6101a361019e36600461259d565b611226565b604080519283526020830191909152016100f1565b6101657f000000000000000000000000000000000000000000000000000000000000000081565b6101436101ed36600461260f565b6115cf565b600154610165906001600160a01b031681565b61010d61021336600461262c565b611670565b61014361022636600461260f565b611697565b600081428110156102575760405162461bcd60e51b815260040161024e906126a8565b60405180910390fd5b6102638887878761170d565b9150868210156102dd576040805162461bcd60e51b81526020600482015260248101919091527f5661646572526f757465723a3a737761704578616374546f6b656e73466f725460448201527f6f6b656e733a20496e73756666696369656e74205472616465204f7574707574606482015260840161024e565b509695505050505050565b6000806000834281101561030e5760405162461bcd60e51b815260040161024e906126a8565b600061031c8b8b8b8b611fb0565b909650945090506103386001600160a01b038c16338388612112565b61034d6001600160a01b038b16338387612112565b6040516335313c2160e11b81526001600160a01b038881166004830152821690636a62784290602401602060405180830381600087803b15801561039057600080fd5b505af11580156103a4573d6000803e3d6000fd5b505050506040513d601f19601f820116820180604052508101906103c891906126df565b9250505096509650969350505050565b600060028214156107175760007f00000000000000000000000000000000000000000000000000000000000000006001600160a01b03166374d32ad46040518163ffffffff1660e01b815260040160206040518083038186803b15801561043e57600080fd5b505afa158015610452573d6000803e3d6000fd5b505050506040513d601f19601f8201168201806040525081019061047691906126f8565b905060007f00000000000000000000000000000000000000000000000000000000000000006001600160a01b031663531aa03e868660008181106104bc576104bc612715565b90506020020160208101906104d1919061260f565b878760018181106104e4576104e4612715565b90506020020160208101906104f9919061260f565b6040518363ffffffff1660e01b815260040161051692919061272b565b60206040518083038186803b15801561052e57600080fd5b505afa158015610542573d6000803e3d6000fd5b505050506040513d601f19601f8201168201806040525081019061056691906126f8565b9050600080826001600160a01b0316630902f1ac6040518163ffffffff1660e01b815260040160606040518083038186803b1580156105a457600080fd5b505afa1580156105b8573d6000803e3d6000fd5b505050506040513d601f19601f820116820180604052508101906105dc9190612761565b506001600160701b031691506001600160701b03169150836001600160a01b03168787600081811061061057610610612715565b9050602002016020810190610625919061260f565b6001600160a01b031614156106d157604051633ae5c69b60e01b815260048101899052602481018390526044810182905273__VaderMath_____________________________90633ae5c69b906064015b60206040518083038186803b15801561068e57600080fd5b505af41580156106a2573d6000803e3d6000fd5b505050506040513d601f19601f820116820180604052508101906106c691906126df565b945050505050610b27565b604051633ae5c69b60e01b815260048101899052602481018290526044810183905273__VaderMath_____________________________90633ae5c69b90606401610676565b60007f00000000000000000000000000000000000000000000000000000000000000006001600160a01b031663531aa03e8585600081811061075b5761075b612715565b9050602002016020810190610770919061260f565b8686600181811061078357610783612715565b9050602002016020810190610798919061260f565b6040518363ffffffff1660e01b81526004016107b592919061272b565b60206040518083038186803b1580156107cd57600080fd5b505afa1580156107e1573d6000803e3d6000fd5b505050506040513d601f19601f8201168201806040525081019061080591906126f8565b905060007f00000000000000000000000000000000000000000000000000000000000000006001600160a01b031663531aa03e8686600181811061084b5761084b612715565b9050602002016020810190610860919061260f565b8787600281811061087357610873612715565b9050602002016020810190610888919061260f565b6040518363ffffffff1660e01b81526004016108a592919061272b565b60206040518083038186803b1580156108bd57600080fd5b505afa1580156108d1573d6000803e3d6000fd5b505050506040513d601f19601f820116820180604052508101906108f591906126f8565b9050600080836001600160a01b0316630902f1ac6040518163ffffffff1660e01b815260040160606040518083038186803b15801561093357600080fd5b505afa158015610947573d6000803e3d6000fd5b505050506040513d601f19601f8201168201806040525081019061096b9190612761565b506001600160701b031691506001600160701b03169150600080846001600160a01b0316630902f1ac6040518163ffffffff1660e01b815260040160606040518083038186803b1580156109be57600080fd5b505afa1580156109d2573d6000803e3d6000fd5b505050506040513d601f19601f820116820180604052508101906109f69190612761565b50604051633ae5c69b60e01b8152600481018d90526001600160701b03928316602482018190529190921660448301819052909350915073__VaderMath_____________________________90633ae5c69b90829082906064015b60206040518083038186803b158015610a6957600080fd5b505af4158015610a7d573d6000803e3d6000fd5b505050506040513d601f19601f82011682018060405250810190610aa191906126df565b6040516001600160e01b031960e084901b1681526004810191909152602481018690526044810187905260640160206040518083038186803b158015610ae657600080fd5b505af4158015610afa573d6000803e3d6000fd5b505050506040513d601f19601f82011682018060405250810190610b1e91906126df565b96505050505050505b9392505050565b610b36612172565b610b4060006121cc565b565b60008142811015610b655760405162461bcd60e51b815260040161024e906126a8565b610b708887876103d8565b915081871015610be85760405162461bcd60e51b815260206004820152603860248201527f5661646572526f757465723a3a73776170546f6b656e73466f7245786163745460448201527f6f6b656e733a204c6172676520547261646520496e7075740000000000000000606482015260840161024e565b610bf48287878761170d565b50509695505050505050565b60006002821415610ee85760007f00000000000000000000000000000000000000000000000000000000000000006001600160a01b03166374d32ad46040518163ffffffff1660e01b815260040160206040518083038186803b158015610c6657600080fd5b505afa158015610c7a573d6000803e3d6000fd5b505050506040513d601f19601f82011682018060405250810190610c9e91906126f8565b905060007f00000000000000000000000000000000000000000000000000000000000000006001600160a01b031663531aa03e86866000818110610ce457610ce4612715565b9050602002016020810190610cf9919061260f565b87876001818110610d0c57610d0c612715565b9050602002016020810190610d21919061260f565b6040518363ffffffff1660e01b8152600401610d3e92919061272b565b60206040518083038186803b158015610d5657600080fd5b505afa158015610d6a573d6000803e3d6000fd5b505050506040513d601f19601f82011682018060405250810190610d8e91906126f8565b9050600080826001600160a01b0316630902f1ac6040518163ffffffff1660e01b815260040160606040518083038186803b158015610dcc57600080fd5b505afa158015610de0573d6000803e3d6000fd5b505050506040513d601f19601f82011682018060405250810190610e049190612761565b506001600160701b031691506001600160701b03169150836001600160a01b031687876000818110610e3857610e38612715565b9050602002016020810190610e4d919061260f565b6001600160a01b03161415610ea25760405163ec6341b360e01b815260048101899052602481018390526044810182905273__VaderMath_____________________________9063ec6341b390606401610676565b60405163ec6341b360e01b815260048101899052602481018290526044810183905273__VaderMath_____________________________9063ec6341b390606401610676565b60007f00000000000000000000000000000000000000000000000000000000000000006001600160a01b031663531aa03e85856000818110610f2c57610f2c612715565b9050602002016020810190610f41919061260f565b86866001818110610f5457610f54612715565b9050602002016020810190610f69919061260f565b6040518363ffffffff1660e01b8152600401610f8692919061272b565b60206040518083038186803b158015610f9e57600080fd5b505afa158015610fb2573d6000803e3d6000fd5b505050506040513d601f19601f82011682018060405250810190610fd691906126f8565b905060007f00000000000000000000000000000000000000000000000000000000000000006001600160a01b031663531aa03e8686600181811061101c5761101c612715565b9050602002016020810190611031919061260f565b8787600281811061104457611044612715565b9050602002016020810190611059919061260f565b6040518363ffffffff1660e01b815260040161107692919061272b565b60206040518083038186803b15801561108e57600080fd5b505afa1580156110a2573d6000803e3d6000fd5b505050506040513d601f19601f820116820180604052508101906110c691906126f8565b9050600080836001600160a01b0316630902f1ac6040518163ffffffff1660e01b815260040160606040518083038186803b15801561110457600080fd5b505afa158015611118573d6000803e3d6000fd5b505050506040513d601f19601f8201168201806040525081019061113c9190612761565b506001600160701b031691506001600160701b03169150600080846001600160a01b0316630902f1ac6040518163ffffffff1660e01b815260040160606040518083038186803b15801561118f57600080fd5b505afa1580156111a3573d6000803e3d6000fd5b505050506040513d601f19601f820116820180604052508101906111c79190612761565b5060405163ec6341b360e01b8152600481018d90526001600160701b03928316602482018190529190921660448301819052909350915073__VaderMath_____________________________9063ec6341b39082908290606401610a51565b600080824281101561124a5760405162461bcd60e51b815260040161024e906126a8565b60405163298d501f60e11b81526000906001600160a01b037f0000000000000000000000000000000000000000000000000000000000000000169063531aa03e9061129b908e908e9060040161272b565b60206040518083038186803b1580156112b357600080fd5b505afa1580156112c7573d6000803e3d6000fd5b505050506040513d601f19601f820116820180604052508101906112eb91906126f8565b6040516323b872dd60e01b81523360048201526001600160a01b03821660248201819052604482018c90529192506323b872dd90606401600060405180830381600087803b15801561133c57600080fd5b505af1158015611350573d6000803e3d6000fd5b5050604051633f34d4cf60e21b8152600481018c90526001600160a01b0389811660248301526000935083925082919085169063fcd3533c90604401606060405180830381600087803b1580156113a657600080fd5b505af11580156113ba573d6000803e3d6000fd5b505050506040513d601f19601f820116820180604052508101906113de91906127b1565b9250925092507f00000000000000000000000000000000000000000000000000000000000000006001600160a01b03166374d32ad46040518163ffffffff1660e01b815260040160206040518083038186803b15801561143d57600080fd5b505afa158015611451573d6000803e3d6000fd5b505050506040513d601f19601f8201168201806040525081019061147591906126f8565b6001600160a01b03168e6001600160a01b031614611494578183611497565b82825b90975095508a8710156114fb5760405162461bcd60e51b815260206004820152602660248201527f556e69737761705632526f757465723a20494e53554646494349454e545f415f604482015265105353d5539560d21b606482015260840161024e565b8986101561155a5760405162461bcd60e51b815260206004820152602660248201527f556e69737761705632526f757465723a20494e53554646494349454e545f425f604482015265105353d5539560d21b606482015260840161024e565b60015460405163b99573a360e01b8152336004820152602481018390526001600160a01b039091169063b99573a390604401600060405180830381600087803b1580156115a657600080fd5b505af11580156115ba573d6000803e3d6000fd5b50505050505050505097509795505050505050565b6115d7612172565b6001600160a01b03811661164a5760405162461bcd60e51b815260206004820152603460248201527f5661646572526f757465723a3a696e697469616c697a653a20496e636f72726560448201527318dd0814995cd95c9d994814dc1958da599a595960621b606482015260840161024e565b600180546001600160a01b0319166001600160a01b03831617905561166d610b2e565b50565b60008060006116838b8b8b8b89896102e8565b925092509250985098509895505050505050565b61169f612172565b6001600160a01b0381166117045760405162461bcd60e51b815260206004820152602660248201527f4f776e61626c653a206e6577206f776e657220697320746865207a65726f206160448201526564647265737360d01b606482015260840161024e565b61166d816121cc565b60006003831415611c17578383600181811061172b5761172b612715565b9050602002016020810190611740919061260f565b6001600160a01b03168484600081811061175c5761175c612715565b9050602002016020810190611771919061260f565b6001600160a01b03161415801561185057507f00000000000000000000000000000000000000000000000000000000000000006001600160a01b03166374d32ad46040518163ffffffff1660e01b815260040160206040518083038186803b1580156117dc57600080fd5b505afa1580156117f0573d6000803e3d6000fd5b505050506040513d601f19601f8201168201806040525081019061181491906126f8565b6001600160a01b03168484600181811061183057611830612715565b9050602002016020810190611845919061260f565b6001600160a01b0316145b80156118bc57508383600181811061186a5761186a612715565b905060200201602081019061187f919061260f565b6001600160a01b03168484600281811061189b5761189b612715565b90506020020160208101906118b0919061260f565b6001600160a01b031614155b6118d85760405162461bcd60e51b815260040161024e906127df565b60007f00000000000000000000000000000000000000000000000000000000000000006001600160a01b031663531aa03e8686600081811061191c5761191c612715565b9050602002016020810190611931919061260f565b8787600181811061194457611944612715565b9050602002016020810190611959919061260f565b6040518363ffffffff1660e01b815260040161197692919061272b565b60206040518083038186803b15801561198e57600080fd5b505afa1580156119a2573d6000803e3d6000fd5b505050506040513d601f19601f820116820180604052508101906119c691906126f8565b905060007f00000000000000000000000000000000000000000000000000000000000000006001600160a01b031663531aa03e87876001818110611a0c57611a0c612715565b9050602002016020810190611a21919061260f565b88886002818110611a3457611a34612715565b9050602002016020810190611a49919061260f565b6040518363ffffffff1660e01b8152600401611a6692919061272b565b60206040518083038186803b158015611a7e57600080fd5b505afa158015611a92573d6000803e3d6000fd5b505050506040513d601f19601f82011682018060405250810190611ab691906126f8565b9050611af733838989896000818110611ad157611ad1612715565b9050602002016020810190611ae6919061260f565b6001600160a01b0316929190612112565b6040516336cd320560e11b8152600481018890526000602482018190526001600160a01b038084166044840181905292636d9a640a92918616908390606401602060405180830381600087803b158015611b5057600080fd5b505af1158015611b64573d6000803e3d6000fd5b505050506040513d601f19601f82011682018060405250810190611b8891906126df565b6040516001600160e01b031960e085901b168152600481019290925260248201526001600160a01b03871660448201526064015b602060405180830381600087803b158015611bd657600080fd5b505af1158015611bea573d6000803e3d6000fd5b505050506040513d601f19601f82011682018060405250810190611c0e91906126df565b92505050611fa8565b60028314611c795760405162461bcd60e51b815260206004820152602960248201527f5661646572526f757465723a3a5f737761703a20496e636f72726563742050616044820152680e8d04098cadccee8d60bb1b606482015260840161024e565b60007f00000000000000000000000000000000000000000000000000000000000000006001600160a01b03166374d32ad46040518163ffffffff1660e01b815260040160206040518083038186803b158015611cd457600080fd5b505afa158015611ce8573d6000803e3d6000fd5b505050506040513d601f19601f82011682018060405250810190611d0c91906126f8565b905084846001818110611d2157611d21612715565b9050602002016020810190611d36919061260f565b6001600160a01b031685856000818110611d5257611d52612715565b9050602002016020810190611d67919061260f565b6001600160a01b03161415611d8e5760405162461bcd60e51b815260040161024e906127df565b60007f00000000000000000000000000000000000000000000000000000000000000006001600160a01b031663531aa03e87876000818110611dd257611dd2612715565b9050602002016020810190611de7919061260f565b88886001818110611dfa57611dfa612715565b9050602002016020810190611e0f919061260f565b6040518363ffffffff1660e01b8152600401611e2c92919061272b565b60206040518083038186803b158015611e4457600080fd5b505afa158015611e58573d6000803e3d6000fd5b505050506040513d601f19601f82011682018060405250810190611e7c91906126f8565b9050611e9733828989896000818110611ad157611ad1612715565b816001600160a01b031686866000818110611eb457611eb4612715565b9050602002016020810190611ec9919061260f565b6001600160a01b03161415611f14576040516336cd320560e11b815260048101889052600060248201526001600160a01b038581166044830152821690636d9a640a90606401611bbc565b816001600160a01b031686866001818110611f3157611f31612715565b9050602002016020810190611f46919061260f565b6001600160a01b031614611f6c5760405162461bcd60e51b815260040161024e906127df565b6040516336cd320560e11b815260006004820152602481018890526001600160a01b038581166044830152821690636d9a640a90606401611bbc565b949350505050565b60008060007f00000000000000000000000000000000000000000000000000000000000000006001600160a01b031663531aa03e88886040518363ffffffff1660e01b815260040161200392919061272b565b60206040518083038186803b15801561201b57600080fd5b505afa15801561202f573d6000803e3d6000fd5b505050506040513d601f19601f8201168201806040525081019061205391906126f8565b92506001600160a01b0383166121065760405163e343361560e01b81526001600160a01b037f0000000000000000000000000000000000000000000000000000000000000000169063e3433615906120b1908a908a9060040161272b565b602060405180830381600087803b1580156120cb57600080fd5b505af11580156120df573d6000803e3d6000fd5b505050506040513d601f19601f8201168201806040525081019061210391906126f8565b92505b50909592945090925050565b604080516001600160a01b0385811660248301528416604482015260648082018490528251808303909101815260849091019091526020810180516001600160e01b03166323b872dd60e01b17905261216c90859061221c565b50505050565b6000546001600160a01b03163314610b405760405162461bcd60e51b815260206004820181905260248201527f4f776e61626c653a2063616c6c6572206973206e6f7420746865206f776e6572604482015260640161024e565b600080546001600160a01b038381166001600160a01b0319831681178455604051919092169283917f8be0079c531659141344cd1fd0a4f28419497f9722a3daafe3b4186f6b6457e09190a35050565b6000612271826040518060400160405280602081526020017f5361666545524332303a206c6f772d6c6576656c2063616c6c206661696c6564815250856001600160a01b03166122f69092919063ffffffff16565b90508051600014806122925750808060200190518101906122929190612821565b6122f15760405162461bcd60e51b815260206004820152602a60248201527f5361666545524332303a204552433230206f7065726174696f6e20646964206e6044820152691bdd081cdd58d8d9595960b21b606482015260840161024e565b505050565b6060611fa8848460008585600080866001600160a01b0316858760405161231d919061286f565b60006040518083038185875af1925050503d806000811461235a576040519150601f19603f3d011682016040523d82523d6000602084013e61235f565b606091505b50915091506123708783838761237b565b979650505050505050565b606083156123e75782516123e0576001600160a01b0385163b6123e05760405162461bcd60e51b815260206004820152601d60248201527f416464726573733a2063616c6c20746f206e6f6e2d636f6e7472616374000000604482015260640161024e565b5081611fa8565b611fa883838151156123fc5781518083602001fd5b8060405162461bcd60e51b815260040161024e919061288b565b60008083601f84011261242857600080fd5b50813567ffffffffffffffff81111561244057600080fd5b6020830191508360208260051b850101111561245b57600080fd5b9250929050565b6001600160a01b038116811461166d57600080fd5b60008060008060008060a0878903121561249057600080fd5b8635955060208701359450604087013567ffffffffffffffff8111156124b557600080fd5b6124c189828a01612416565b90955093505060608701356124d581612462565b80925050608087013590509295509295509295565b60008060008060008060c0878903121561250357600080fd5b863561250e81612462565b9550602087013561251e81612462565b94506040870135935060608701359250608087013561253c81612462565b8092505060a087013590509295509295509295565b60008060006040848603121561256657600080fd5b83359250602084013567ffffffffffffffff81111561258457600080fd5b61259086828701612416565b9497909650939450505050565b600080600080600080600060e0888a0312156125b857600080fd5b87356125c381612462565b965060208801356125d381612462565b955060408801359450606088013593506080880135925060a08801356125f881612462565b8092505060c0880135905092959891949750929550565b60006020828403121561262157600080fd5b8135610b2781612462565b600080600080600080600080610100898b03121561264957600080fd5b883561265481612462565b9750602089013561266481612462565b965060408901359550606089013594506080890135935060a0890135925060c089013561269081612462565b8092505060e089013590509295985092959890939650565b6020808252601c908201527f5661646572526f757465723a3a656e737572653a204578706972656400000000604082015260600190565b6000602082840312156126f157600080fd5b5051919050565b60006020828403121561270a57600080fd5b8151610b2781612462565b634e487b7160e01b600052603260045260246000fd5b6001600160a01b0392831681529116602082015260400190565b80516001600160701b038116811461275c57600080fd5b919050565b60008060006060848603121561277657600080fd5b61277f84612745565b925061278d60208501612745565b9150604084015163ffffffff811681146127a657600080fd5b809150509250925092565b6000806000606084860312156127c657600080fd5b8351925060208401519150604084015190509250925092565b60208082526022908201527f5661646572526f757465723a3a5f737761703a20496e636f72726563742050616040820152610e8d60f31b606082015260800190565b60006020828403121561283357600080fd5b81518015158114610b2757600080fd5b60005b8381101561285e578181015183820152602001612846565b8381111561216c5750506000910152565b60008251612881818460208701612843565b9190910192915050565b60208152600082518060208401526128aa816040850160208701612843565b601f01601f1916919091016040019291505056fea264697066735822122028090b9b4fb656eadad89cfb10f9cb00e8980ef2b8414ebbfd8aaa8dcf664a5764736f6c63430008090033",
  "immutableReferences": {
    "12767": [
      {
        "length": 32,
        "start": 445
      },
      {
        "length": 32,
        "start": 999
      },
      {
        "length": 32,
        "start": 1148
      },
      {
        "length": 32,
        "start": 1819
      },
      {
        "length": 32,
        "start": 2059
      },
      {
        "length": 32,
        "start": 3087
      },
      {
        "length": 32,
        "start": 3236
      },
      {
        "length": 32,
        "start": 3820
      },
      {
        "length": 32,
        "start": 4060
      },
      {
        "length": 32,
        "start": 4708
      },
      {
        "length": 32,
        "start": 5094
      },
      {
        "length": 32,
        "start": 6021
      },
      {
        "length": 32,
        "start": 6364
      },
      {
        "length": 32,
        "start": 6604
      },
      {
        "length": 32,
        "start": 7293
      },
      {
        "length": 32,
        "start": 7570
      },
      {
        "length": 32,
        "start": 8119
      },
      {
        "length": 32,
        "start": 8314
      }
    ]
  },
  "source": "// SPDX-License-Identifier: Unlicense\r\n\r\npragma solidity =0.8.9;\r\n\r\nimport \"@openzeppelin/contracts/access/Ownable.sol\";\r\nimport \"@openzeppelin/contracts/token/ERC20/utils/SafeERC20.sol\";\r\n\r\nimport \"../../shared/ProtocolConstants.sol\";\r\n\r\nimport \"../math/VaderMath.sol\";\r\n\r\nimport \"../../interfaces/reserve/IVaderReserve.sol\";\r\nimport \"../../interfaces/dex/router/IVaderRouter.sol\";\r\nimport \"../../interfaces/dex/pool/IVaderPoolFactory.sol\";\r\n\r\n/*\r\n @dev Implementation of {VaderRouter} contract.\r\n *\r\n * The contract VaderRouter inherits from {Ownable} and {ProtocolConstants} contracts.\r\n *\r\n * It allows adding of liquidity to Vader pools and facilitate creation of Vader pools if\r\n * it does not already exist when depositing liquidity.\r\n *\r\n * Allows removing of liquidity by the users and claiming the underlying assets from\r\n * the Vader pools.\r\n *\r\n * Allows swapping between native and foreign assets within a single Vader pool.\r\n *\r\n * Allows swapping of foreign assets across two different Vader pools.\r\n *\r\n * Contains helper functions to compute the destination asset amount given the exact source\r\n * asset amount and vice versa.\r\n **/\r\ncontract VaderRouter is IVaderRouter, ProtocolConstants, Ownable {\r\n    /* ========== LIBRARIES ========== */\r\n\r\n    // Used for safe token transfers\r\n    using SafeERC20 for IERC20;\r\n\r\n    /* ========== STATE VARIABLES ========== */\r\n\r\n    // The address of Vader pool factory contract.\r\n    IVaderPoolFactory public immutable factory;\r\n\r\n    // The address of Reserve contract.\r\n    IVaderReserve public reserve;\r\n\r\n    /* ========== CONSTRUCTOR ========== */\r\n\r\n    /*\r\n     * @dev Initializes contract's state by setting the vader pool factory address.\r\n     *\r\n     * Requirements:\r\n     * - Vader pool factory address must not be zero.\r\n     **/\r\n    constructor(IVaderPoolFactory _factory) {\r\n        require(\r\n            _factory != IVaderPoolFactory(_ZERO_ADDRESS),\r\n            \"VaderRouter::constructor: Incorrect Arguments\"\r\n        );\r\n\r\n        factory = _factory;\r\n    }\r\n\r\n    /* ========== VIEWS ========== */\r\n\r\n    /* ========== MUTATIVE FUNCTIONS ========== */\r\n\r\n    /*\r\n     * @dev Allows adding of liquidity to the Vader pools.\r\n     *\r\n     * Internally calls {addLiquidity} function.\r\n     *\r\n     * Returns the amounts of assetA and assetB used in liquidity and\r\n     * the amount of liquidity units minted.\r\n     **/\r\n    // NOTE: For Uniswap V2 compliancy, necessary due to stack too deep\r\n    function addLiquidity(\r\n        IERC20 tokenA,\r\n        IERC20 tokenB,\r\n        uint256 amountADesired,\r\n        uint256 amountBDesired,\r\n        uint256, // amountAMin = unused\r\n        uint256, // amountBMin = unused\r\n        address to,\r\n        uint256 deadline\r\n    )\r\n        external\r\n        override\r\n        returns (\r\n            uint256 amountA,\r\n            uint256 amountB,\r\n            uint256 liquidity\r\n        )\r\n    {\r\n        return\r\n            addLiquidity(\r\n                tokenA,\r\n                tokenB,\r\n                amountADesired,\r\n                amountBDesired,\r\n                to,\r\n                deadline\r\n            );\r\n    }\r\n\r\n    /*\r\n     * @dev Allows adding of liquidity to the Vader pools.\r\n     *\r\n     * Internally calls {_addLiquidity} function.\r\n     *\r\n     * Transfers the amounts of tokenA and tokenB from {msg.sender} to the pool.\r\n     *\r\n     * Calls the {mint} function on the pool to deposit liquidity on the behalf of\r\n     * {to} address.\r\n     *\r\n     * Returns the amounts of assetA and assetB used in liquidity and\r\n     * the amount of liquidity units minted.\r\n     *\r\n     * Requirements:\r\n     * - The current timestamp has not exceeded the param {deadline}.\r\n     **/\r\n    function addLiquidity(\r\n        IERC20 tokenA,\r\n        IERC20 tokenB,\r\n        uint256 amountADesired,\r\n        uint256 amountBDesired,\r\n        address to,\r\n        uint256 deadline\r\n    )\r\n        public\r\n        override\r\n        ensure(deadline)\r\n        returns (\r\n            uint256 amountA,\r\n            uint256 amountB,\r\n            uint256 liquidity\r\n        )\r\n    {\r\n        IVaderPool pool;\r\n        (pool, amountA, amountB) = _addLiquidity(\r\n            address(tokenA),\r\n            address(tokenB),\r\n            amountADesired,\r\n            amountBDesired\r\n        );\r\n        tokenA.safeTransferFrom(msg.sender, address(pool), amountA);\r\n        tokenB.safeTransferFrom(msg.sender, address(pool), amountB);\r\n        liquidity = pool.mint(to);\r\n    }\r\n\r\n    /*\r\n     * @dev Allows removing of liquidity by {msg.sender} and transfers the\r\n     * underlying assets to {to} address.\r\n     *\r\n     * Transfers the NFT with Id {id} representing user's position, to the pool address,\r\n     * so the pool is able to burn it in the `burn` function call.\r\n     *\r\n     * Calls the `burn` function on the pool contract.\r\n     *\r\n     * Calls the `reimburseImpermanentLoss` on reserve contract to cover impermanent loss\r\n     * for the liquidity being removed.\r\n     *\r\n     * Requirements:\r\n     * - The underlying assets amounts of {amountA} and {amountB} must\r\n     *   be greater than or equal to {amountAMin} and {amountBMin}, respectively.\r\n     * - The current timestamp has not exceeded the param {deadline}.\r\n     **/\r\n    function removeLiquidity(\r\n        address tokenA,\r\n        address tokenB,\r\n        uint256 id,\r\n        uint256 amountAMin,\r\n        uint256 amountBMin,\r\n        address to,\r\n        uint256 deadline\r\n    )\r\n        public\r\n        override\r\n        ensure(deadline)\r\n        returns (uint256 amountA, uint256 amountB)\r\n    {\r\n        IVaderPool pool = factory.getPool(tokenA, tokenB);\r\n\r\n        pool.transferFrom(msg.sender, address(pool), id);\r\n\r\n        (\r\n            uint256 amountNative,\r\n            uint256 amountForeign,\r\n            uint256 coveredLoss\r\n        ) = pool.burn(id, to);\r\n\r\n        (amountA, amountB) = tokenA == factory.nativeAsset()\r\n            ? (amountNative, amountForeign)\r\n            : (amountForeign, amountNative);\r\n\r\n        require(\r\n            amountA >= amountAMin,\r\n            \"UniswapV2Router: INSUFFICIENT_A_AMOUNT\"\r\n        );\r\n        require(\r\n            amountB >= amountBMin,\r\n            \"UniswapV2Router: INSUFFICIENT_B_AMOUNT\"\r\n        );\r\n\r\n        reserve.reimburseImpermanentLoss(msg.sender, coveredLoss);\r\n    }\r\n\r\n    /*\r\n     * @dev Allows swapping of exact source token amount to destination\r\n     * token amount.\r\n     *\r\n     * Internally calls {_swap} function.\r\n     *\r\n     * Requirements:\r\n     * - The destination amount {amountOut} must greater than or equal to param {amountOutMin}.\r\n     * - The current timestamp has not exceeded the param {deadline}.\r\n     **/\r\n    function swapExactTokensForTokens(\r\n        uint256 amountIn,\r\n        uint256 amountOutMin,\r\n        address[] calldata path,\r\n        address to,\r\n        uint256 deadline\r\n    ) external virtual override ensure(deadline) returns (uint256 amountOut) {\r\n        amountOut = _swap(amountIn, path, to);\r\n\r\n        require(\r\n            amountOut >= amountOutMin,\r\n            \"VaderRouter::swapExactTokensForTokens: Insufficient Trade Output\"\r\n        );\r\n    }\r\n\r\n    /*\r\n     * @dev Allows swapping of source token amount to exact destination token\r\n     * amount.\r\n     *\r\n     * Internally calls {calculateInGivenOut} and {_swap} functions.\r\n     *\r\n     * Requirements:\r\n     * - Param {amountInMax} must be greater than or equal to the source amount computed {amountIn}.\r\n     * - The current timestamp has not exceeded the param {deadline}.\r\n     **/\r\n    function swapTokensForExactTokens(\r\n        uint256 amountOut,\r\n        uint256 amountInMax,\r\n        address[] calldata path,\r\n        address to,\r\n        uint256 deadline\r\n    ) external virtual ensure(deadline) returns (uint256 amountIn) {\r\n        amountIn = calculateInGivenOut(amountOut, path);\r\n\r\n        require(\r\n            amountInMax >= amountIn,\r\n            \"VaderRouter::swapTokensForExactTokens: Large Trade Input\"\r\n        );\r\n\r\n        _swap(amountIn, path, to);\r\n    }\r\n\r\n    /* ========== RESTRICTED FUNCTIONS ========== */\r\n\r\n    /*\r\n     * @dev Sets the reserve address and renounces contract's ownership.\r\n     *\r\n     * Requirements:\r\n     * - Only existing owner can call this function.\r\n     * - Param {_reserve} cannot be a zero address.\r\n     **/\r\n    function initialize(IVaderReserve _reserve) external onlyOwner {\r\n        require(\r\n            _reserve != IVaderReserve(_ZERO_ADDRESS),\r\n            \"VaderRouter::initialize: Incorrect Reserve Specified\"\r\n        );\r\n\r\n        reserve = _reserve;\r\n\r\n        renounceOwnership();\r\n    }\r\n\r\n    /* ========== INTERNAL FUNCTIONS ========== */\r\n\r\n    /* ========== PRIVATE FUNCTIONS ========== */\r\n\r\n    /*\r\n     * @dev Allows swapping of assets from within a single Vader pool or\r\n     * across two different Vader pools.\r\n     *\r\n     * In case of a single Vader pool, the native asset can be swapped for foreign\r\n     * asset and vice versa.\r\n     *\r\n     * In case of two Vader pools, the foreign asset is swapped for native asset from\r\n     * the first Vader pool and the native asset retrieved from the first Vader pool is swapped\r\n     * for foreign asset from the second Vader pool.\r\n     *\r\n     * Requirements:\r\n     * - Param {path} length can be either 2 or 3.\r\n     * - If the {path} length is 3 the index 0 and 1 must contain foreign assets' addresses\r\n     *   and index 1 must contain native asset's address.\r\n     * - If the {path} length is 2 then either of indexes must contain foreign asset's address\r\n     *   and the other one must contain native asset's address.\r\n     **/\r\n    // TODO: Refactor with central pool, perhaps diminishes security? would need directSwap & bridgeSwap\r\n    function _swap(\r\n        uint256 amountIn,\r\n        address[] calldata path,\r\n        address to\r\n    ) private returns (uint256 amountOut) {\r\n        if (path.length == 3) {\r\n            require(\r\n                path[0] != path[1] &&\r\n                    path[1] == factory.nativeAsset() &&\r\n                    path[2] != path[1],\r\n                \"VaderRouter::_swap: Incorrect Path\"\r\n            );\r\n\r\n            IVaderPool pool0 = factory.getPool(path[0], path[1]);\r\n            IVaderPool pool1 = factory.getPool(path[1], path[2]);\r\n\r\n            IERC20(path[0]).safeTransferFrom(\r\n                msg.sender,\r\n                address(pool0),\r\n                amountIn\r\n            );\r\n\r\n            return pool1.swap(0, pool0.swap(amountIn, 0, address(pool1)), to);\r\n        } else {\r\n            require(\r\n                path.length == 2,\r\n                \"VaderRouter::_swap: Incorrect Path Length\"\r\n            );\r\n            address nativeAsset = factory.nativeAsset();\r\n            require(path[0] != path[1], \"VaderRouter::_swap: Incorrect Path\");\r\n\r\n            IVaderPool pool = factory.getPool(path[0], path[1]);\r\n            IERC20(path[0]).safeTransferFrom(\r\n                msg.sender,\r\n                address(pool),\r\n                amountIn\r\n            );\r\n            if (path[0] == nativeAsset) {\r\n                return pool.swap(amountIn, 0, to);\r\n            } else {\r\n                require(\r\n                    path[1] == nativeAsset,\r\n                    \"VaderRouter::_swap: Incorrect Path\"\r\n                );\r\n                return pool.swap(0, amountIn, to);\r\n            }\r\n        }\r\n    }\r\n\r\n    /*\r\n     * @dev An internal function that returns Vader pool's address against\r\n     * the provided assets of {tokenA} and {tokenB} if it exists, otherwise\r\n     * a new Vader pool created against the provided assets.\r\n     **/\r\n    // NOTE: DEX allows asymmetric deposits\r\n    function _addLiquidity(\r\n        address tokenA,\r\n        address tokenB,\r\n        uint256 amountADesired,\r\n        uint256 amountBDesired\r\n    )\r\n        private\r\n        returns (\r\n            IVaderPool pool,\r\n            uint256 amountA,\r\n            uint256 amountB\r\n        )\r\n    {\r\n        // create the pair if it doesn't exist yet\r\n        pool = factory.getPool(tokenA, tokenB);\r\n        if (pool == IVaderPool(_ZERO_ADDRESS)) {\r\n            pool = factory.createPool(tokenA, tokenB);\r\n        }\r\n\r\n        (amountA, amountB) = (amountADesired, amountBDesired);\r\n    }\r\n\r\n    /*\r\n     * @dev Returns the amount of source asset given the amount of destination asset.\r\n     *\r\n     * Calls the {calculateSwapReverse} on VaderMath library to compute the source\r\n     * token amount.\r\n     *\r\n     * Requirements:\r\n     * - Param {path} length can be either 2 or 3.\r\n     * - If the {path} length is 3 the index 0 and 1 must contain foreign assets' addresses\r\n     *   and index 1 must contain native asset's address.\r\n     * - If the {path} length is 2 then either of indexes must contain foreign asset's address\r\n     *   and the other one must contain native asset's address.\r\n     **/\r\n    function calculateInGivenOut(uint256 amountOut, address[] calldata path)\r\n        public\r\n        view\r\n        returns (uint256 amountIn)\r\n    {\r\n        if (path.length == 2) {\r\n            address nativeAsset = factory.nativeAsset();\r\n            IVaderPool pool = factory.getPool(path[0], path[1]);\r\n            (uint256 nativeReserve, uint256 foreignReserve, ) = pool\r\n                .getReserves();\r\n            if (path[0] == nativeAsset) {\r\n                return\r\n                    VaderMath.calculateSwapReverse(\r\n                        amountOut,\r\n                        nativeReserve,\r\n                        foreignReserve\r\n                    );\r\n            } else {\r\n                return\r\n                    VaderMath.calculateSwapReverse(\r\n                        amountOut,\r\n                        foreignReserve,\r\n                        nativeReserve\r\n                    );\r\n            }\r\n        } else {\r\n            IVaderPool pool0 = factory.getPool(path[0], path[1]);\r\n            IVaderPool pool1 = factory.getPool(path[1], path[2]);\r\n            (uint256 nativeReserve0, uint256 foreignReserve0, ) = pool0\r\n                .getReserves();\r\n            (uint256 nativeReserve1, uint256 foreignReserve1, ) = pool1\r\n                .getReserves();\r\n\r\n            return\r\n                VaderMath.calculateSwapReverse(\r\n                    VaderMath.calculateSwapReverse(\r\n                        amountOut,\r\n                        nativeReserve1,\r\n                        foreignReserve1\r\n                    ),\r\n                    foreignReserve0,\r\n                    nativeReserve0\r\n                );\r\n        }\r\n    }\r\n\r\n    /*\r\n     * @dev Returns the amount of destination asset given the amount of source asset.\r\n     *\r\n     * Calls the {calculateSwap} on VaderMath library to compute the destination\r\n     * token amount.\r\n     *\r\n     * Requirements:\r\n     * - Param {path} length can be either 2 or 3.\r\n     * - If the {path} length is 3 the index 0 and 1 must contain foreign assets' addresses\r\n     *   and index 1 must contain native asset's address.\r\n     * - If the {path} length is 2 then either of indexes must contain foreign asset's address\r\n     *   and the other one must contain native asset's address.\r\n     **/\r\n    function calculateOutGivenIn(uint256 amountIn, address[] calldata path)\r\n        external\r\n        view\r\n        returns (uint256 amountOut)\r\n    {\r\n        if (path.length == 2) {\r\n            address nativeAsset = factory.nativeAsset();\r\n            IVaderPool pool = factory.getPool(path[0], path[1]);\r\n            (uint256 nativeReserve, uint256 foreignReserve, ) = pool\r\n                .getReserves();\r\n            if (path[0] == nativeAsset) {\r\n                return\r\n                    VaderMath.calculateSwap(\r\n                        amountIn,\r\n                        nativeReserve,\r\n                        foreignReserve\r\n                    );\r\n            } else {\r\n                return\r\n                    VaderMath.calculateSwap(\r\n                        amountIn,\r\n                        foreignReserve,\r\n                        nativeReserve\r\n                    );\r\n            }\r\n        } else {\r\n            IVaderPool pool0 = factory.getPool(path[0], path[1]);\r\n            IVaderPool pool1 = factory.getPool(path[1], path[2]);\r\n            (uint256 nativeReserve0, uint256 foreignReserve0, ) = pool0\r\n                .getReserves();\r\n            (uint256 nativeReserve1, uint256 foreignReserve1, ) = pool1\r\n                .getReserves();\r\n\r\n            return\r\n                VaderMath.calculateSwap(\r\n                    VaderMath.calculateSwap(\r\n                        amountIn,\r\n                        nativeReserve1,\r\n                        foreignReserve1\r\n                    ),\r\n                    foreignReserve0,\r\n                    nativeReserve0\r\n                );\r\n        }\r\n    }\r\n\r\n    /* ========== MODIFIERS ========== */\r\n\r\n    // Guard ensuring that the current timestamp has not exceeded the param {deadline}.\r\n    modifier ensure(uint256 deadline) {\r\n        require(deadline >= block.timestamp, \"VaderRouter::ensure: Expired\");\r\n        _;\r\n    }\r\n}\r\n",
  "sourcePath": "/home/mingyue/sub_contract_content/Web3Bugs/contracts/52/contracts/dex/router/VaderRouter.sol",
  "compiler": {
    "name": "solc",
    "version": "0.8.9+commit.e5eed63a.Emscripten.clang"
  },
  "schemaVersion": "3.4.16",
  "updatedAt": "2025-03-06T07:23:55.047Z",
  "devdoc": {
    "kind": "dev",
    "methods": {
      "owner()": {
        "details": "Returns the address of the current owner."
      },
      "renounceOwnership()": {
        "details": "Leaves the contract without owner. It will not be possible to call `onlyOwner` functions. Can only be called by the current owner. NOTE: Renouncing ownership will leave the contract without an owner, thereby disabling any functionality that is only available to the owner."
      },
      "transferOwnership(address)": {
        "details": "Transfers ownership of the contract to a new account (`newOwner`). Can only be called by the current owner."
      }
    },
    "version": 1
  },
  "userdoc": {
    "kind": "user",
    "methods": {},
    "version": 1
  }
}