{
  "contractName": "VaderPoolFactory",
  "abi": [
    {
      "anonymous": false,
      "inputs": [
        {
          "indexed": true,
          "internalType": "address",
          "name": "previousOwner",
          "type": "address"
        },
        {
          "indexed": true,
          "internalType": "address",
          "name": "newOwner",
          "type": "address"
        }
      ],
      "name": "OwnershipTransferred",
      "type": "event"
    },
    {
      "anonymous": false,
      "inputs": [
        {
          "indexed": false,
          "internalType": "address",
          "name": "token0",
          "type": "address"
        },
        {
          "indexed": false,
          "internalType": "address",
          "name": "token1",
          "type": "address"
        },
        {
          "indexed": false,
          "internalType": "contract IVaderPool",
          "name": "pool",
          "type": "address"
        },
        {
          "indexed": false,
          "internalType": "uint256",
          "name": "index",
          "type": "uint256"
        }
      ],
      "name": "PoolCreated",
      "type": "event"
    },
    {
      "inputs": [
        {
          "internalType": "uint256",
          "name": "",
          "type": "uint256"
        }
      ],
      "name": "allPools",
      "outputs": [
        {
          "internalType": "contract IVaderPool",
          "name": "",
          "type": "address"
        }
      ],
      "stateMutability": "view",
      "type": "function"
    },
    {
      "inputs": [
        {
          "internalType": "address",
          "name": "",
          "type": "address"
        },
        {
          "internalType": "address",
          "name": "",
          "type": "address"
        }
      ],
      "name": "getPool",
      "outputs": [
        {
          "internalType": "contract IVaderPool",
          "name": "",
          "type": "address"
        }
      ],
      "stateMutability": "view",
      "type": "function"
    },
    {
      "inputs": [],
      "name": "nativeAsset",
      "outputs": [
        {
          "internalType": "address",
          "name": "",
          "type": "address"
        }
      ],
      "stateMutability": "view",
      "type": "function"
    },
    {
      "inputs": [],
      "name": "owner",
      "outputs": [
        {
          "internalType": "address",
          "name": "",
          "type": "address"
        }
      ],
      "stateMutability": "view",
      "type": "function"
    },
    {
      "inputs": [],
      "name": "queueActive",
      "outputs": [
        {
          "internalType": "bool",
          "name": "",
          "type": "bool"
        }
      ],
      "stateMutability": "view",
      "type": "function"
    },
    {
      "inputs": [],
      "name": "renounceOwnership",
      "outputs": [],
      "stateMutability": "nonpayable",
      "type": "function"
    },
    {
      "inputs": [
        {
          "internalType": "address",
          "name": "newOwner",
          "type": "address"
        }
      ],
      "name": "transferOwnership",
      "outputs": [],
      "stateMutability": "nonpayable",
      "type": "function"
    },
    {
      "inputs": [
        {
          "internalType": "address",
          "name": "tokenA",
          "type": "address"
        },
        {
          "internalType": "address",
          "name": "tokenB",
          "type": "address"
        }
      ],
      "name": "createPool",
      "outputs": [
        {
          "internalType": "contract IVaderPool",
          "name": "pool",
          "type": "address"
        }
      ],
      "stateMutability": "nonpayable",
      "type": "function"
    },
    {
      "inputs": [
        {
          "internalType": "address",
          "name": "_nativeAsset",
          "type": "address"
        },
        {
          "internalType": "address",
          "name": "_dao",
          "type": "address"
        }
      ],
      "name": "initialize",
      "outputs": [],
      "stateMutability": "nonpayable",
      "type": "function"
    },
    {
      "inputs": [
        {
          "internalType": "address",
          "name": "token0",
          "type": "address"
        },
        {
          "internalType": "address",
          "name": "token1",
          "type": "address"
        }
      ],
      "name": "toggleQueue",
      "outputs": [],
      "stateMutability": "nonpayable",
      "type": "function"
    }
  ],
  "bytecode": "0x608060405234801561001057600080fd5b5061001a3361001f565b61006f565b600080546001600160a01b038381166001600160a01b0319831681178455604051919092169283917f8be0079c531659141344cd1fd0a4f28419497f9722a3daafe3b4186f6b6457e09190a35050565b613cb58061007e6000396000f3fe60806040523480156200001157600080fd5b5060043610620000ab5760003560e01c806374d32ad4116200006e57806374d32ad414620001645780638da5cb5b1462000178578063c7a3414b146200018a578063e343361514620001a1578063f2fde38b14620001b857600080fd5b806341d1de9714620000b0578063485cc95514620000e457806352f69f2014620000fd578063531aa03e1462000123578063715018a6146200015a575b600080fd5b620000c7620000c136600462000814565b620001cf565b6040516001600160a01b0390911681526020015b60405180910390f35b620000fb620000f53660046200084b565b620001fa565b005b6000546200011290600160a01b900460ff1681565b6040519015158152602001620000db565b620000c7620001343660046200084b565b60026020908152600092835260408084209091529082529020546001600160a01b031681565b620000fb620002bb565b600154620000c7906001600160a01b031681565b6000546001600160a01b0316620000c7565b620000fb6200019b3660046200084b565b620002d3565b620000c7620001b23660046200084b565b62000358565b620000fb620001c936600462000883565b62000654565b60038181548110620001e057600080fd5b6000918252602090912001546001600160a01b0316905081565b62000204620006d3565b6001600160a01b038216158015906200022557506001600160a01b03811615155b620002915760405162461bcd60e51b815260206004820152603160248201527f5661646572506f6f6c466163746f72793a3a696e697469616c697a653a20496e604482015270636f727265637420417267756d656e747360781b60648201526084015b60405180910390fd5b600180546001600160a01b0319166001600160a01b038416179055620002b78162000654565b5050565b620002c5620006d3565b620002d160006200072f565b565b620002dd6200077f565b6001600160a01b0380831660009081526002602090815260408083208585168452909152808220548151632684aa0960e21b81529151931692639a12a8249260048084019391929182900301818387803b1580156200033b57600080fd5b505af115801562000350573d6000803e3d6000fd5b505050505050565b600154600090819081906001600160a01b038681169116146200039c576001546001600160a01b0385811691161462000394576000806200039f565b83856200039f565b84845b91509150806001600160a01b0316826001600160a01b031614156200041e5760405162461bcd60e51b815260206004820152602e60248201527f5661646572506f6f6c466163746f72793a3a637265617465506f6f6c3a20496460448201526d656e746963616c20546f6b656e7360901b606482015260840162000288565b6001600160a01b0381166200048d5760405162461bcd60e51b815260206004820152602e60248201527f5661646572506f6f6c466163746f72793a3a637265617465506f6f6c3a20496e60448201526d32bc34b9ba32b73a102a37b5b2b760911b606482015260840162000288565b6001600160a01b03828116600090815260026020908152604080832085851684529091529020541615620005165760405162461bcd60e51b815260206004820152602960248201527f5661646572506f6f6c466163746f72793a3a637265617465506f6f6c3a20506160448201526869722045786973747360b81b606482015260840162000288565b600060149054906101000a900460ff168282604051620005369062000806565b92151583526001600160a01b039182166020840152166040820152606001604051809103906000f08015801562000571573d6000803e3d6000fd5b506001600160a01b03838116600081815260026020818152604080842088871680865290835281852080549789166001600160a01b031998891681179091559383528185208686528352818520805488168517905560038054600181018255958190527fc2575a0e9e593c00f959f8c92f12db2869c3395a3b0502d05e2516446f71f85b9095018054909716841790965592548351948552908401949094529082015260608101919091529093507febbbe9dc3a19d2f959ac76ac0372b4983cdfb945f5d6aef4873c36fabb2ba8aa9060800160405180910390a1505092915050565b6200065e620006d3565b6001600160a01b038116620006c55760405162461bcd60e51b815260206004820152602660248201527f4f776e61626c653a206e6577206f776e657220697320746865207a65726f206160448201526564647265737360d01b606482015260840162000288565b620006d0816200072f565b50565b6000546001600160a01b03163314620002d15760405162461bcd60e51b815260206004820181905260248201527f4f776e61626c653a2063616c6c6572206973206e6f7420746865206f776e6572604482015260640162000288565b600080546001600160a01b038381166001600160a01b0319831681178455604051919092169283917f8be0079c531659141344cd1fd0a4f28419497f9722a3daafe3b4186f6b6457e09190a35050565b6001546001600160a01b031615801590620007a457506000546001600160a01b031633145b620002d15760405162461bcd60e51b815260206004820152602b60248201527f42617365506f6f6c3a3a5f6f6e6c7944414f3a20496e73756666696369656e7460448201526a2050726976696c6567657360a81b606482015260840162000288565b6133d780620008a983390190565b6000602082840312156200082757600080fd5b5035919050565b80356001600160a01b03811681146200084657600080fd5b919050565b600080604083850312156200085f57600080fd5b6200086a836200082e565b91506200087a602084016200082e565b90509250929050565b6000602082840312156200089657600080fd5b620008a1826200082e565b939250505056fe60c06040523480156200001157600080fd5b50604051620033d7380380620033d78339810160408190526200003491620002ba565b604080518082018252600881526705661646572204c560c41b6020808301918252835180850190945260038452620564c560ec1b908401528151859385939290916200008391600091620001f7565b50805162000099906001906020840190620001f7565b505050620000b6620000b0620001a160201b60201c565b620001a5565b60016007556001600160a01b03808316608052811660a0819052604080516395d89b4160e01b81529051600092916395d89b419160048083019286929190829003018186803b1580156200010957600080fd5b505afa1580156200011e573d6000803e3d6000fd5b505050506040513d6000823e601f3d908101601f1916820160405262000148919081019062000353565b6040516020016200015a91906200040b565b60408051601f1981840301815291905280519091506200018290600d906020840190620001f7565b5050600f805460ff191695151595909517909455506200048b92505050565b3390565b600680546001600160a01b038381166001600160a01b0319831681179093556040519116919082907f8be0079c531659141344cd1fd0a4f28419497f9722a3daafe3b4186f6b6457e090600090a35050565b82805462000205906200044e565b90600052602060002090601f01602090048101928262000229576000855562000274565b82601f106200024457805160ff191683800117855562000274565b8280016001018555821562000274579182015b828111156200027457825182559160200191906001019062000257565b506200028292915062000286565b5090565b5b8082111562000282576000815560010162000287565b80516001600160a01b0381168114620002b557600080fd5b919050565b600080600060608486031215620002d057600080fd5b83518015158114620002e157600080fd5b9250620002f1602085016200029d565b915062000301604085016200029d565b90509250925092565b634e487b7160e01b600052604160045260246000fd5b60005b838110156200033d57818101518382015260200162000323565b838111156200034d576000848401525b50505050565b6000602082840312156200036657600080fd5b81516001600160401b03808211156200037e57600080fd5b818401915084601f8301126200039357600080fd5b815181811115620003a857620003a86200030a565b604051601f8201601f19908116603f01168101908382118183101715620003d357620003d36200030a565b81604052828152876020848701011115620003ed57600080fd5b6200040083602083016020880162000320565b979650505050505050565b6b56616465722055534456202f60a01b8152600082516200043481600c85016020870162000320565b620204c560ec1b600c939091019283015250600f01919050565b600181811c908216806200046357607f821691505b602082108114156200048557634e487b7160e01b600052602260045260246000fd5b50919050565b60805160a051612efc620004db600039600081816103ff015281816108c101528181610c940152611f7a01526000818161034f0152818161082401528181610c720152611f580152612efc6000f3fe608060405234801561001057600080fd5b50600436106101da5760003560e01c806371640de311610104578063a3462b14116100a2578063e985e9c511610071578063e985e9c514610450578063f2fde38b1461048c578063faa777c11461049f578063fcd3533c146104a857600080fd5b8063a3462b14146103fa578063a806437d14610421578063b88d4fde1461042a578063c87b56dd1461043d57600080fd5b806395d89b41116100de57806395d89b411461038257806399fbab881461038a5780639a12a824146103df578063a22cb465146103e757600080fd5b806371640de31461034157806374d32ad41461034a5780638da5cb5b1461037157600080fd5b806323b872dd1161017c5780636a6278421161014b5780636a627842146103005780636d9a640a1461031357806370a0823114610326578063715018a61461033957600080fd5b806323b872dd146102ba57806342842e0e146102cd57806352f69f20146102e05780636352211e146102ed57600080fd5b8063081812fc116101b8578063081812fc1461023d5780630902f1ac14610268578063095ea7b31461029c57806318160ddd146102b157600080fd5b806301ffc9a7146101df578063022c0d9f1461020757806306fdde0314610228575b600080fd5b6101f26101ed3660046127a7565b6104d6565b60405190151581526020015b60405180910390f35b61021a6102153660046127db565b610528565b6040519081526020016101fe565b61023061053f565b6040516101fe91906128c7565b61025061024b3660046128da565b6105d1565b6040516001600160a01b0390911681526020016101fe565b6102706105f8565b604080516001600160701b03948516815293909216602084015263ffffffff16908201526060016101fe565b6102af6102aa3660046128f3565b610622565b005b61021a600c5481565b6102af6102c836600461291d565b61073d565b6102af6102db36600461291d565b61076e565b600f546101f29060ff1681565b6102506102fb3660046128da565b610789565b61021a61030e366004612959565b6107e9565b61021a610321366004612974565b610bb4565b61021a610334366004612959565b61127e565b6102af611304565b61021a600b5481565b6102507f000000000000000000000000000000000000000000000000000000000000000081565b6006546001600160a01b0316610250565b610230611318565b6103bf6103983660046128da565b600a6020526000908152604090208054600182015460028301546003909301549192909184565b6040805194855260208501939093529183015260608201526080016101fe565b6102af611327565b6102af6103f53660046129b7565b611379565b6102507f000000000000000000000000000000000000000000000000000000000000000081565b61021a60085481565b6102af610438366004612a04565b611388565b61023061044b3660046128da565b6113c0565b6101f261045e366004612ae0565b6001600160a01b03918216600090815260056020908152604080832093909416825291909152205460ff1690565b6102af61049a366004612959565b611433565b61021a60095481565b6104bb6104b6366004612b13565b6114ac565b604080519384526020840192909252908201526060016101fe565b60006001600160e01b031982166380ac58cd60e01b148061050757506001600160e01b03198216635b5e139f60e01b145b8061052257506301ffc9a760e01b6001600160e01b03198316145b92915050565b6000610535868686610bb4565b9695505050505050565b6060600d805461054e90612b36565b80601f016020809104026020016040519081016040528092919081815260200182805461057a90612b36565b80156105c75780601f1061059c576101008083540402835291602001916105c7565b820191906000526020600020905b8154815290600101906020018083116105aa57829003601f168201915b5050505050905090565b60006105dc826115cd565b506000908152600460205260409020546001600160a01b031690565b600e546001600160701b0380821692600160701b830490911691600160e01b900463ffffffff1690565b600061062d82610789565b9050806001600160a01b0316836001600160a01b031614156106a05760405162461bcd60e51b815260206004820152602160248201527f4552433732313a20617070726f76616c20746f2063757272656e74206f776e656044820152603960f91b60648201526084015b60405180910390fd5b336001600160a01b03821614806106bc57506106bc813361045e565b61072e5760405162461bcd60e51b815260206004820152603d60248201527f4552433732313a20617070726f76652063616c6c6572206973206e6f7420746f60448201527f6b656e206f776e6572206f7220617070726f76656420666f7220616c6c0000006064820152608401610697565b610738838361162c565b505050565b610747338261169a565b6107635760405162461bcd60e51b815260040161069790612b71565b610738838383611719565b61073883838360405180602001604052806000815250611388565b6000818152600260205260408120546001600160a01b0316806105225760405162461bcd60e51b8152602060048201526018602482015277115490cdcc8c4e881a5b9d985b1a59081d1bdad95b88125160421b6044820152606401610697565b60006107f361187d565b6000806107fe6105f8565b506040516370a0823160e01b815230600482015291935091506000906001600160a01b037f000000000000000000000000000000000000000000000000000000000000000016906370a082319060240160206040518083038186803b15801561086657600080fd5b505afa15801561087a573d6000803e3d6000fd5b505050506040513d601f19601f8201168201806040525081019061089e9190612bbe565b6040516370a0823160e01b81523060048201529091506000906001600160a01b037f000000000000000000000000000000000000000000000000000000000000000016906370a082319060240160206040518083038186803b15801561090357600080fd5b505afa158015610917573d6000803e3d6000fd5b505050506040513d601f19601f8201168201806040525081019061093b9190612bbe565b905060006109526001600160701b03861684612bed565b905060006109696001600160701b03861684612bed565b600c549091508061097c57829750610a27565b604051630bd92c2560e01b8152600481018490526001600160701b03808916602483015260448201849052871660648201526084810182905273__VaderMath_____________________________90630bd92c259060a40160206040518083038186803b1580156109ec57600080fd5b505af4158015610a00573d6000803e3d6000fd5b505050506040513d601f19601f82011682018060405250810190610a249190612bbe565b97505b60008811610a8f5760405162461bcd60e51b815260206004820152602f60248201527f42617365506f6f6c3a3a6d696e743a20496e73756666696369656e74204c697160448201526e1d5a591a5d1e48141c9bdd9a591959608a1b6064820152608401610697565b600b805460009182610aa083612c04565b91905055905088600c6000828254610ab89190612c1f565b90915550610ac890508a826118d7565b6040805160808101825242815260208082018c8152828401888152606084018881526000878152600a90945294909220925183555160018301555160028201559051600390910155610b1c86868a8a611a62565b60408051858152602081018590526001600160a01b038c169133917f2f00e3cdd69a77be7ed215ec7b2a36784dd158f921fca79ac29deffa353fe6ee910160405180910390a360408051828152602081018b905233917fc491b8e6940cb48fcf9cf813c35e2d45fad221af7d5f4ce18d77dc576e5bf220910160405180910390a25050505050505050610baf6001600755565b919050565b6000610bbe61187d565b600084118015610bcc575082155b80610be0575083158015610be05750600083115b610c435760405162461bcd60e51b815260206004820152602e60248201527f42617365506f6f6c3a3a737761703a204f6e6c79204f6e652d5369646564205360448201526d1dd85c1cc814dd5c1c1bdc9d195960921b6064820152608401610697565b600080610c4e6105f8565b506040516370a0823160e01b815230600482015291935091506000908190819081907f0000000000000000000000000000000000000000000000000000000000000000907f0000000000000000000000000000000000000000000000000000000000000000906001600160a01b038316906370a082319060240160206040518083038186803b158015610ce057600080fd5b505afa158015610cf4573d6000803e3d6000fd5b505050506040513d601f19601f82011682018060405250810190610d189190612bbe565b6040516370a0823160e01b81523060048201529096506001600160a01b038216906370a082319060240160206040518083038186803b158015610d5a57600080fd5b505afa158015610d6e573d6000803e3d6000fd5b505050506040513d601f19601f82011682018060405250810190610d929190612bbe565b9450816001600160a01b03168a6001600160a01b031614158015610dc85750806001600160a01b03168a6001600160a01b031614155b610e145760405162461bcd60e51b815260206004820181905260248201527f42617365506f6f6c3a3a737761703a20496e76616c69642052656365697665726044820152606401610697565b8a15610f8f57610e2d6001600160701b03881686612bed565b8b1115610e4c5760405162461bcd60e51b815260040161069790612c37565b866001600160701b03168b1115610e755760405162461bcd60e51b815260040161069790612c83565b60405163ec6341b360e01b8152600481018c90526001600160701b0380891660248301528916604482015273__VaderMath_____________________________9063ec6341b39060640160206040518083038186803b158015610ed757600080fd5b505af4158015610eeb573d6000803e3d6000fd5b505050506040513d601f19601f82011682018060405250810190610f0f9190612bbe565b9350600084118015610f2a5750876001600160701b03168411155b610f765760405162461bcd60e51b815260206004820152601f60248201527f42617365506f6f6c3a3a737761703a205377617020496d706f737369626c65006044820152606401610697565b610f8a6001600160a01b0383168b86611c1e565b6110ff565b610fa26001600160701b03891687612bed565b8c1115610fc15760405162461bcd60e51b815260040161069790612c37565b876001600160701b03168c1115610fea5760405162461bcd60e51b815260040161069790612c83565b60405163ec6341b360e01b8152600481018d90526001600160701b03808a1660248301528816604482015273__VaderMath_____________________________9063ec6341b39060640160206040518083038186803b15801561104c57600080fd5b505af4158015611060573d6000803e3d6000fd5b505050506040513d601f19601f820116820180604052508101906110849190612bbe565b925060008311801561109f5750866001600160701b03168311155b6110eb5760405162461bcd60e51b815260206004820152601f60248201527f42617365506f6f6c3a3a737761703a205377617020496d706f737369626c65006044820152606401610697565b6110ff6001600160a01b0382168b85611c1e565b6040516370a0823160e01b81523060048201526001600160a01b038316906370a082319060240160206040518083038186803b15801561113e57600080fd5b505afa158015611152573d6000803e3d6000fd5b505050506040513d601f19601f820116820180604052508101906111769190612bbe565b6040516370a0823160e01b81523060048201529096506001600160a01b038216906370a082319060240160206040518083038186803b1580156111b857600080fd5b505afa1580156111cc573d6000803e3d6000fd5b505050506040513d601f19601f820116820180604052508101906111f09190612bbe565b9450505061120084848888611a62565b604080518b8152602081018b9052908101839052606081018290526001600160a01b0389169033907fd78ad95fa46c994b6551d0da85fc275fe613ce37657fb8d5e3d130840159d8229060800160405180910390a3600082116112635780611265565b815b96505050505050506112776001600755565b9392505050565b60006001600160a01b0382166112e85760405162461bcd60e51b815260206004820152602960248201527f4552433732313a2061646472657373207a65726f206973206e6f7420612076616044820152683634b21037bbb732b960b91b6064820152608401610697565b506001600160a01b031660009081526003602052604090205490565b61130c611c70565b6113166000611cca565b565b60606001805461054e90612b36565b61132f611c70565b600f805460ff81161560ff1990911681179091556040518181527fa065e278b99c58eb9e10d9a5104cc18270dbc59636c1e29c5ecf496fb507f8219060200160405180910390a150565b611384338383611d1c565b5050565b611392338361169a565b6113ae5760405162461bcd60e51b815260040161069790612b71565b6113ba84848484611deb565b50505050565b60606113cb826115cd565b60006113e260408051602081019091526000815290565b905060008151116114025760405180602001604052806000815250611277565b8061140c84611e1e565b60405160200161141d929190612cc5565b6040516020818303038152906040529392505050565b61143b611c70565b6001600160a01b0381166114a05760405162461bcd60e51b815260206004820152602660248201527f4f776e61626c653a206e6577206f776e657220697320746865207a65726f206160448201526564647265737360d01b6064820152608401610697565b6114a981611cca565b50565b60008060006114bb8585611ebb565b6000878152600a602052604080822080546002820180546003840180548786556001860188905592879055869055935163bfc40edd60e01b8152600481018590526024810182905260448101889052606481018790529699509497509094909391929073__VaderMath_____________________________9063bfc40edd9060840160206040518083038186803b15801561155557600080fd5b505af4158015611569573d6000803e3d6000fd5b505050506040513d601f19601f8201168201806040525081019061158d9190612bbe565b90506301e133806115ab6115a18642612bed565b6301e133806122de565b6115b59083612cf4565b6115bf9190612d29565b955050505050509250925092565b6000818152600260205260409020546001600160a01b03166114a95760405162461bcd60e51b8152602060048201526018602482015277115490cdcc8c4e881a5b9d985b1a59081d1bdad95b88125160421b6044820152606401610697565b600081815260046020526040902080546001600160a01b0319166001600160a01b038416908117909155819061166182610789565b6001600160a01b03167f8c5be1e5ebec7d5bd14f71427d1e84f3dd0314c0f7b2291e5b200ac8c7c3b92560405160405180910390a45050565b6000806116a683610789565b9050806001600160a01b0316846001600160a01b031614806116ed57506001600160a01b0380821660009081526005602090815260408083209388168352929052205460ff165b806117115750836001600160a01b0316611706846105d1565b6001600160a01b0316145b949350505050565b826001600160a01b031661172c82610789565b6001600160a01b0316146117525760405162461bcd60e51b815260040161069790612d3d565b6001600160a01b0382166117b45760405162461bcd60e51b8152602060048201526024808201527f4552433732313a207472616e7366657220746f20746865207a65726f206164646044820152637265737360e01b6064820152608401610697565b826001600160a01b03166117c782610789565b6001600160a01b0316146117ed5760405162461bcd60e51b815260040161069790612d3d565b600081815260046020908152604080832080546001600160a01b03199081169091556001600160a01b0387811680865260038552838620805460001901905590871680865283862080546001019055868652600290945282852080549092168417909155905184937fddf252ad1be2c89b69c2b068fc378daa952ba7f163c4a11628f55a4df523b3ef91a4505050565b600260075414156118d05760405162461bcd60e51b815260206004820152601f60248201527f5265656e7472616e637947756172643a207265656e7472616e742063616c6c006044820152606401610697565b6002600755565b6001600160a01b03821661192d5760405162461bcd60e51b815260206004820181905260248201527f4552433732313a206d696e7420746f20746865207a65726f20616464726573736044820152606401610697565b6000818152600260205260409020546001600160a01b0316156119925760405162461bcd60e51b815260206004820152601c60248201527f4552433732313a20746f6b656e20616c7265616479206d696e746564000000006044820152606401610697565b6000818152600260205260409020546001600160a01b0316156119f75760405162461bcd60e51b815260206004820152601c60248201527f4552433732313a20746f6b656e20616c7265616479206d696e746564000000006044820152606401610697565b6001600160a01b038216600081815260036020908152604080832080546001019055848352600290915280822080546001600160a01b0319168417905551839291907fddf252ad1be2c89b69c2b068fc378daa952ba7f163c4a11628f55a4df523b3ef908290a45050565b6001600160701b038411801590611a8057506001600160701b038311155b611ad85760405162461bcd60e51b815260206004820152602360248201527f42617365506f6f6c3a3a5f7570646174653a2042616c616e6365204f766572666044820152626c6f7760e81b6064820152608401610697565b6000611ae964010000000042612d82565b600e5490915063ffffffff600160e01b9091048116820390811615801590611b1957506001600160701b03841615155b8015611b2d57506001600160701b03831615155b15611b98578063ffffffff16611b5585611b46866122f4565b6001600160e01b03169061230d565b600880546001600160e01b03929092169290920201905563ffffffff8116611b8084611b46876122f4565b600980546001600160e01b0392909216929092020190555b50600e80546001600160701b038781166001600160e01b031990921691909117600160701b91871691909102176001600160e01b0316600160e01b63ffffffff84160217905560408051868152602081018690527fcf2aa50876cdfbb541206f89af0ee78d44a2abf8d328e37fa4917f982149848a910160405180910390a15050505050565b604080516001600160a01b038416602482015260448082018490528251808303909101815260649091019091526020810180516001600160e01b031663a9059cbb60e01b179052610738908490612322565b6006546001600160a01b031633146113165760405162461bcd60e51b815260206004820181905260248201527f4f776e61626c653a2063616c6c6572206973206e6f7420746865206f776e65726044820152606401610697565b600680546001600160a01b038381166001600160a01b0319831681179093556040519116919082907f8be0079c531659141344cd1fd0a4f28419497f9722a3daafe3b4186f6b6457e090600090a35050565b816001600160a01b0316836001600160a01b03161415611d7e5760405162461bcd60e51b815260206004820152601960248201527f4552433732313a20617070726f766520746f2063616c6c6572000000000000006044820152606401610697565b6001600160a01b03838116600081815260056020908152604080832094871680845294825291829020805460ff191686151590811790915591519182527f17307eab39ab6107e8899845ad3d59bd9653f200f220920489ca2b5937696c31910160405180910390a3505050565b611df6848484611719565b611e02848484846123f7565b6113ba5760405162461bcd60e51b815260040161069790612d96565b60606000611e2b83612504565b600101905060008167ffffffffffffffff811115611e4b57611e4b6129ee565b6040519080825280601f01601f191660200182016040528015611e75576020820181803683370190505b5090508181016020015b600019016f181899199a1a9b1b9c1cb0b131b232b360811b600a86061a8153600a8504945084611eae57611eb3565b611e7f565b509392505050565b600080611ec661187d565b30611ed085610789565b6001600160a01b031614611f325760405162461bcd60e51b815260206004820152602360248201527f42617365506f6f6c3a3a6275726e3a20496e636f7272656374204f776e65727360448201526206869760ec1b6064820152608401610697565b600080611f3d6105f8565b506040516370a0823160e01b815230600482015291935091507f0000000000000000000000000000000000000000000000000000000000000000907f0000000000000000000000000000000000000000000000000000000000000000906000906001600160a01b038416906370a082319060240160206040518083038186803b158015611fc957600080fd5b505afa158015611fdd573d6000803e3d6000fd5b505050506040513d601f19601f820116820180604052508101906120019190612bbe565b6040516370a0823160e01b81523060048201529091506000906001600160a01b038416906370a082319060240160206040518083038186803b15801561204657600080fd5b505afa15801561205a573d6000803e3d6000fd5b505050506040513d601f19601f8201168201806040525081019061207e9190612bbe565b60008b8152600a6020526040902060010154600c5491925090806120a28584612cf4565b6120ac9190612d29565b9950806120b98484612cf4565b6120c39190612d29565b985060008a1180156120d55750600089115b6121375760405162461bcd60e51b815260206004820152602d60248201527f42617365506f6f6c3a3a6275726e3a20496e73756666696369656e74204c697160448201526c1d5a591a5d1e48109d5c9b9959609a1b6064820152608401610697565b81600c60008282546121499190612bed565b9091555061215890508c6125dc565b61216c6001600160a01b0387168c8c611c1e565b6121806001600160a01b0386168c8b611c1e565b6040516370a0823160e01b81523060048201526001600160a01b038716906370a082319060240160206040518083038186803b1580156121bf57600080fd5b505afa1580156121d3573d6000803e3d6000fd5b505050506040513d601f19601f820116820180604052508101906121f79190612bbe565b6040516370a0823160e01b81523060048201529094506001600160a01b038616906370a082319060240160206040518083038186803b15801561223957600080fd5b505afa15801561224d573d6000803e3d6000fd5b505050506040513d601f19601f820116820180604052508101906122719190612bbe565b925061227f84848a8a611a62565b604080518b8152602081018b90526001600160a01b038d169133917fdccd412f0b1252819cb1fd330b93224ca42612892bb3f4f789976e6d81936496910160405180910390a350505050505050506122d76001600755565b9250929050565b60008183106122ed5781611277565b5090919050565b6000610522600160701b6001600160701b038416612de8565b60006112776001600160701b03831684612e17565b6000612377826040518060400160405280602081526020017f5361666545524332303a206c6f772d6c6576656c2063616c6c206661696c6564815250856001600160a01b03166126719092919063ffffffff16565b90508051600014806123985750808060200190518101906123989190612e3d565b6107385760405162461bcd60e51b815260206004820152602a60248201527f5361666545524332303a204552433230206f7065726174696f6e20646964206e6044820152691bdd081cdd58d8d9595960b21b6064820152608401610697565b60006001600160a01b0384163b156124f957604051630a85bd0160e11b81526001600160a01b0385169063150b7a029061243b903390899088908890600401612e5a565b602060405180830381600087803b15801561245557600080fd5b505af1925050508015612485575060408051601f3d908101601f1916820190925261248291810190612e8d565b60015b6124df573d8080156124b3576040519150601f19603f3d011682016040523d82523d6000602084013e6124b8565b606091505b5080516124d75760405162461bcd60e51b815260040161069790612d96565b805181602001fd5b6001600160e01b031916630a85bd0160e11b149050611711565b506001949350505050565b60008072184f03e93ff9f4daa797ed6e38ed64bf6a1f0160401b83106125435772184f03e93ff9f4daa797ed6e38ed64bf6a1f0160401b830492506040015b6d04ee2d6d415b85acef8100000000831061256f576d04ee2d6d415b85acef8100000000830492506020015b662386f26fc10000831061258d57662386f26fc10000830492506010015b6305f5e10083106125a5576305f5e100830492506008015b61271083106125b957612710830492506004015b606483106125cb576064830492506002015b600a83106105225760010192915050565b60006125e782610789565b90506125f282610789565b600083815260046020908152604080832080546001600160a01b03199081169091556001600160a01b0385168085526003845282852080546000190190558785526002909352818420805490911690555192935084927fddf252ad1be2c89b69c2b068fc378daa952ba7f163c4a11628f55a4df523b3ef908390a45050565b6060611711848460008585600080866001600160a01b031685876040516126989190612eaa565b60006040518083038185875af1925050503d80600081146126d5576040519150601f19603f3d011682016040523d82523d6000602084013e6126da565b606091505b50915091506126eb878383876126f6565b979650505050505050565b6060831561276257825161275b576001600160a01b0385163b61275b5760405162461bcd60e51b815260206004820152601d60248201527f416464726573733a2063616c6c20746f206e6f6e2d636f6e74726163740000006044820152606401610697565b5081611711565b61171183838151156127775781518083602001fd5b8060405162461bcd60e51b815260040161069791906128c7565b6001600160e01b0319811681146114a957600080fd5b6000602082840312156127b957600080fd5b813561127781612791565b80356001600160a01b0381168114610baf57600080fd5b6000806000806000608086880312156127f357600080fd5b853594506020860135935061280a604087016127c4565b9250606086013567ffffffffffffffff8082111561282757600080fd5b818801915088601f83011261283b57600080fd5b81358181111561284a57600080fd5b89602082850101111561285c57600080fd5b9699959850939650602001949392505050565b60005b8381101561288a578181015183820152602001612872565b838111156113ba5750506000910152565b600081518084526128b381602086016020860161286f565b601f01601f19169290920160200192915050565b602081526000611277602083018461289b565b6000602082840312156128ec57600080fd5b5035919050565b6000806040838503121561290657600080fd5b61290f836127c4565b946020939093013593505050565b60008060006060848603121561293257600080fd5b61293b846127c4565b9250612949602085016127c4565b9150604084013590509250925092565b60006020828403121561296b57600080fd5b611277826127c4565b60008060006060848603121561298957600080fd5b83359250602084013591506129a0604085016127c4565b90509250925092565b80151581146114a957600080fd5b600080604083850312156129ca57600080fd5b6129d3836127c4565b915060208301356129e3816129a9565b809150509250929050565b634e487b7160e01b600052604160045260246000fd5b60008060008060808587031215612a1a57600080fd5b612a23856127c4565b9350612a31602086016127c4565b925060408501359150606085013567ffffffffffffffff80821115612a5557600080fd5b818701915087601f830112612a6957600080fd5b813581811115612a7b57612a7b6129ee565b604051601f8201601f19908116603f01168101908382118183101715612aa357612aa36129ee565b816040528281528a6020848701011115612abc57600080fd5b82602086016020830137600060208483010152809550505050505092959194509250565b60008060408385031215612af357600080fd5b612afc836127c4565b9150612b0a602084016127c4565b90509250929050565b60008060408385031215612b2657600080fd5b82359150612b0a602084016127c4565b600181811c90821680612b4a57607f821691505b60208210811415612b6b57634e487b7160e01b600052602260045260246000fd5b50919050565b6020808252602d908201527f4552433732313a2063616c6c6572206973206e6f7420746f6b656e206f776e6560408201526c1c881bdc88185c1c1c9bdd9959609a1b606082015260800190565b600060208284031215612bd057600080fd5b5051919050565b634e487b7160e01b600052601160045260246000fd5b600082821015612bff57612bff612bd7565b500390565b6000600019821415612c1857612c18612bd7565b5060010190565b60008219821115612c3257612c32612bd7565b500190565b6020808252602c908201527f42617365506f6f6c3a3a737761703a20496e73756666696369656e7420546f6b60408201526b195b9cc8141c9bdd9a59195960a21b606082015260800190565b60208082526022908201527f42617365506f6f6c3a3a737761703a20556e6661766f757261626c6520547261604082015261646560f01b606082015260800190565b60008351612cd781846020880161286f565b835190830190612ceb81836020880161286f565b01949350505050565b6000816000190483118215151615612d0e57612d0e612bd7565b500290565b634e487b7160e01b600052601260045260246000fd5b600082612d3857612d38612d13565b500490565b60208082526025908201527f4552433732313a207472616e736665722066726f6d20696e636f72726563742060408201526437bbb732b960d91b606082015260800190565b600082612d9157612d91612d13565b500690565b60208082526032908201527f4552433732313a207472616e7366657220746f206e6f6e20455243373231526560408201527131b2b4bb32b91034b6b83632b6b2b73a32b960711b606082015260800190565b60006001600160e01b0382811684821681151582840482111615612e0e57612e0e612bd7565b02949350505050565b60006001600160e01b0383811680612e3157612e31612d13565b92169190910492915050565b600060208284031215612e4f57600080fd5b8151611277816129a9565b6001600160a01b03858116825284166020820152604081018390526080606082018190526000906105359083018461289b565b600060208284031215612e9f57600080fd5b815161127781612791565b60008251612ebc81846020870161286f565b919091019291505056fea2646970667358221220880fd663ca88c68ae632b8b50bfaf6a7dc70b6f005e348a7c356bf56f739dfd664736f6c63430008090033a2646970667358221220c4b2574f83eb06608ba1dd92dc8de9af0615330d104acb14b28710d7b79f196e64736f6c63430008090033",
  "immutableReferences": {},
  "source": "// SPDX-License-Identifier: Unlicense\r\n\r\npragma solidity =0.8.9;\r\n\r\nimport \"./VaderPool.sol\";\r\n\r\nimport \"../../shared/ProtocolConstants.sol\";\r\n\r\nimport \"../../interfaces/shared/IERC20Extended.sol\";\r\nimport \"../../interfaces/dex/pool/IVaderPoolFactory.sol\";\r\n\r\n/*\r\n * @dev Implementation of {VaderPoolFactory} contract.\r\n *\r\n * The VaderPoolFactory contract inherits from {Ownable} and {ProtocolConstants} contracts.\r\n *\r\n * Keeps track of all the created Vader pools through {getPool} mapping and\r\n * {allPools} array. Also stores the address of asset used as native asset\r\n * across all of the Vader pools created through the factory.\r\n *\r\n * Allows creation of new Vader pools.\r\n **/\r\ncontract VaderPoolFactory is IVaderPoolFactory, ProtocolConstants, Ownable {\r\n    /* ========== STATE VARIABLES ========== */\r\n\r\n    // Denotes whether the queue system is active on new pairs, disabled by default\r\n    bool public queueActive;\r\n\r\n    // Native Asset of the system\r\n    address public override nativeAsset;\r\n\r\n    // Token A -> Token B -> Pool mapping\r\n    mapping(address => mapping(address => IVaderPool)) public override getPool;\r\n\r\n    // A list of all pools\r\n    IVaderPool[] public allPools;\r\n\r\n    /* ========== VIEWS ========== */\r\n\r\n    /* ========== MUTATIVE FUNCTIONS ========== */\r\n\r\n    /*\r\n     * @dev Allows creation of a Vader pool of native and foreign assets.\r\n     *\r\n     * Populates the {getPool} mapping with the newly created Vader pool and\r\n     * pushes this pool to {allPools} array.\r\n     *\r\n     * Requirements:\r\n     * - Native and foreign assets cannot be the same.\r\n     * - Foreign asset cannot be the zero address.\r\n     * - The pool against the specified foreign asset does not already exist.\r\n     **/\r\n    // NOTE: Between deployment & initialization may be corrupted but chance small\r\n    function createPool(address tokenA, address tokenB)\r\n        external\r\n        override\r\n        returns (IVaderPool pool)\r\n    {\r\n        (address token0, address token1) = tokenA == nativeAsset\r\n            ? (tokenA, tokenB)\r\n            : tokenB == nativeAsset\r\n            ? (tokenB, tokenA)\r\n            : (_ZERO_ADDRESS, _ZERO_ADDRESS);\r\n\r\n        require(\r\n            token0 != token1,\r\n            \"VaderPoolFactory::createPool: Identical Tokens\"\r\n        );\r\n\r\n        require(\r\n            token1 != _ZERO_ADDRESS,\r\n            \"VaderPoolFactory::createPool: Inexistent Token\"\r\n        );\r\n\r\n        require(\r\n            getPool[token0][token1] == IVaderPool(_ZERO_ADDRESS),\r\n            \"VaderPoolFactory::createPool: Pair Exists\"\r\n        ); // single check is sufficient\r\n\r\n        pool = new VaderPool(\r\n            queueActive,\r\n            IERC20Extended(token0),\r\n            IERC20Extended(token1)\r\n        );\r\n        getPool[token0][token1] = pool;\r\n        getPool[token1][token0] = pool; // populate mapping in the reverse direction\r\n        allPools.push(pool);\r\n        emit PoolCreated(token0, token1, pool, allPools.length);\r\n    }\r\n\r\n    /* ========== RESTRICTED FUNCTIONS ========== */\r\n\r\n    /*\r\n     * @dev Allows initializing of the factory contract by owner by setting the\r\n     * address of native asset for all the Vader pool and also transferring the\r\n     * contract's ownership to {_dao}.\r\n     *\r\n     * Requirements:\r\n     * - Only onwer can call this function.\r\n     **/\r\n    function initialize(address _nativeAsset, address _dao) external onlyOwner {\r\n        require(\r\n            _nativeAsset != _ZERO_ADDRESS && _dao != _ZERO_ADDRESS,\r\n            \"VaderPoolFactory::initialize: Incorrect Arguments\"\r\n        );\r\n\r\n        nativeAsset = _nativeAsset;\r\n        transferOwnership(_dao);\r\n    }\r\n\r\n    /*\r\n     * @dev Allows toggling of queue system of a pool.\r\n     *\r\n     * Requirements:\r\n     * - This function can only be called when DAO is active.\r\n     **/\r\n    function toggleQueue(address token0, address token1) external onlyDAO {\r\n        getPool[token0][token1].toggleQueue();\r\n    }\r\n\r\n    /* ========== INTERNAL FUNCTIONS ========== */\r\n\r\n    /* ========== PRIVATE FUNCTIONS ========== */\r\n\r\n    /**\r\n     * @dev Ensures only the DAO is able to invoke a particular function by validating that\r\n     * the owner is the msg.sender, equivalent to the DAO address, and that the native asset\r\n     * has been set\r\n     */\r\n    function _onlyDAO() private view {\r\n        require(\r\n            nativeAsset != _ZERO_ADDRESS && owner() == _msgSender(),\r\n            \"BasePool::_onlyDAO: Insufficient Privileges\"\r\n        );\r\n    }\r\n\r\n    /* ========== MODIFIERS ========== */\r\n\r\n    /**\r\n     * @dev Throws if invoked by anyone else other than the DAO\r\n     */\r\n    modifier onlyDAO() {\r\n        _onlyDAO();\r\n        _;\r\n    }\r\n}\r\n",
  "sourcePath": "/home/mingyue/sub_contract_content/Web3Bugs/contracts/52/contracts/dex/pool/VaderPoolFactory.sol",
  "compiler": {
    "name": "solc",
    "version": "0.8.9+commit.e5eed63a.Emscripten.clang"
  },
  "schemaVersion": "3.4.16",
  "updatedAt": "2025-03-06T07:23:55.044Z",
  "devdoc": {
    "kind": "dev",
    "methods": {
      "owner()": {
        "details": "Returns the address of the current owner."
      },
      "renounceOwnership()": {
        "details": "Leaves the contract without owner. It will not be possible to call `onlyOwner` functions. Can only be called by the current owner. NOTE: Renouncing ownership will leave the contract without an owner, thereby disabling any functionality that is only available to the owner."
      },
      "transferOwnership(address)": {
        "details": "Transfers ownership of the contract to a new account (`newOwner`). Can only be called by the current owner."
      }
    },
    "version": 1
  },
  "userdoc": {
    "kind": "user",
    "methods": {},
    "version": 1
  }
}