{
  "contractName": "VaderRouterV2",
  "abi": [
    {
      "inputs": [
        {
          "internalType": "contract IVaderPoolV2",
          "name": "_pool",
          "type": "address"
        }
      ],
      "stateMutability": "nonpayable",
      "type": "constructor"
    },
    {
      "anonymous": false,
      "inputs": [
        {
          "indexed": true,
          "internalType": "address",
          "name": "previousOwner",
          "type": "address"
        },
        {
          "indexed": true,
          "internalType": "address",
          "name": "newOwner",
          "type": "address"
        }
      ],
      "name": "OwnershipTransferred",
      "type": "event"
    },
    {
      "inputs": [],
      "name": "nativeAsset",
      "outputs": [
        {
          "internalType": "contract IERC20",
          "name": "",
          "type": "address"
        }
      ],
      "stateMutability": "view",
      "type": "function"
    },
    {
      "inputs": [],
      "name": "owner",
      "outputs": [
        {
          "internalType": "address",
          "name": "",
          "type": "address"
        }
      ],
      "stateMutability": "view",
      "type": "function"
    },
    {
      "inputs": [],
      "name": "pool",
      "outputs": [
        {
          "internalType": "contract IVaderPoolV2",
          "name": "",
          "type": "address"
        }
      ],
      "stateMutability": "view",
      "type": "function"
    },
    {
      "inputs": [],
      "name": "renounceOwnership",
      "outputs": [],
      "stateMutability": "nonpayable",
      "type": "function"
    },
    {
      "inputs": [],
      "name": "reserve",
      "outputs": [
        {
          "internalType": "contract IVaderReserve",
          "name": "",
          "type": "address"
        }
      ],
      "stateMutability": "view",
      "type": "function"
    },
    {
      "inputs": [
        {
          "internalType": "address",
          "name": "newOwner",
          "type": "address"
        }
      ],
      "name": "transferOwnership",
      "outputs": [],
      "stateMutability": "nonpayable",
      "type": "function"
    },
    {
      "inputs": [
        {
          "internalType": "contract IERC20",
          "name": "tokenA",
          "type": "address"
        },
        {
          "internalType": "contract IERC20",
          "name": "tokenB",
          "type": "address"
        },
        {
          "internalType": "uint256",
          "name": "amountADesired",
          "type": "uint256"
        },
        {
          "internalType": "uint256",
          "name": "amountBDesired",
          "type": "uint256"
        },
        {
          "internalType": "address",
          "name": "to",
          "type": "address"
        },
        {
          "internalType": "uint256",
          "name": "deadline",
          "type": "uint256"
        }
      ],
      "name": "addLiquidity",
      "outputs": [
        {
          "internalType": "uint256",
          "name": "liquidity",
          "type": "uint256"
        }
      ],
      "stateMutability": "nonpayable",
      "type": "function"
    },
    {
      "inputs": [
        {
          "internalType": "contract IERC20",
          "name": "tokenA",
          "type": "address"
        },
        {
          "internalType": "contract IERC20",
          "name": "tokenB",
          "type": "address"
        },
        {
          "internalType": "uint256",
          "name": "amountADesired",
          "type": "uint256"
        },
        {
          "internalType": "uint256",
          "name": "amountBDesired",
          "type": "uint256"
        },
        {
          "internalType": "uint256",
          "name": "",
          "type": "uint256"
        },
        {
          "internalType": "uint256",
          "name": "",
          "type": "uint256"
        },
        {
          "internalType": "address",
          "name": "to",
          "type": "address"
        },
        {
          "internalType": "uint256",
          "name": "deadline",
          "type": "uint256"
        }
      ],
      "name": "addLiquidity",
      "outputs": [
        {
          "internalType": "uint256",
          "name": "liquidity",
          "type": "uint256"
        }
      ],
      "stateMutability": "nonpayable",
      "type": "function"
    },
    {
      "inputs": [
        {
          "internalType": "address",
          "name": "tokenA",
          "type": "address"
        },
        {
          "internalType": "address",
          "name": "tokenB",
          "type": "address"
        },
        {
          "internalType": "uint256",
          "name": "id",
          "type": "uint256"
        },
        {
          "internalType": "uint256",
          "name": "amountAMin",
          "type": "uint256"
        },
        {
          "internalType": "uint256",
          "name": "amountBMin",
          "type": "uint256"
        },
        {
          "internalType": "address",
          "name": "to",
          "type": "address"
        },
        {
          "internalType": "uint256",
          "name": "deadline",
          "type": "uint256"
        }
      ],
      "name": "removeLiquidity",
      "outputs": [
        {
          "internalType": "uint256",
          "name": "amountA",
          "type": "uint256"
        },
        {
          "internalType": "uint256",
          "name": "amountB",
          "type": "uint256"
        }
      ],
      "stateMutability": "nonpayable",
      "type": "function"
    },
    {
      "inputs": [
        {
          "internalType": "uint256",
          "name": "amountIn",
          "type": "uint256"
        },
        {
          "internalType": "uint256",
          "name": "amountOutMin",
          "type": "uint256"
        },
        {
          "internalType": "contract IERC20[]",
          "name": "path",
          "type": "address[]"
        },
        {
          "internalType": "address",
          "name": "to",
          "type": "address"
        },
        {
          "internalType": "uint256",
          "name": "deadline",
          "type": "uint256"
        }
      ],
      "name": "swapExactTokensForTokens",
      "outputs": [
        {
          "internalType": "uint256",
          "name": "amountOut",
          "type": "uint256"
        }
      ],
      "stateMutability": "nonpayable",
      "type": "function"
    },
    {
      "inputs": [
        {
          "internalType": "contract IVaderReserve",
          "name": "_reserve",
          "type": "address"
        }
      ],
      "name": "initialize",
      "outputs": [],
      "stateMutability": "nonpayable",
      "type": "function"
    }
  ],
  "bytecode": "0x60c06040523480156200001157600080fd5b5060405162001bad38038062001bad8339810160408190526200003491620001af565b6200003f3362000146565b6001600160a01b038116620000b25760405162461bcd60e51b815260206004820152602f60248201527f5661646572526f7574657256323a3a636f6e7374727563746f723a20496e636f60448201526e727265637420417267756d656e747360881b606482015260840160405180910390fd5b6001600160a01b038116608081905260408051631d34cab560e21b815290516374d32ad491600480820192602092909190829003018186803b158015620000f857600080fd5b505afa1580156200010d573d6000803e3d6000fd5b505050506040513d601f19601f82011682018060405250810190620001339190620001af565b6001600160a01b031660a05250620001d6565b600080546001600160a01b038381166001600160a01b0319831681178455604051919092169283917f8be0079c531659141344cd1fd0a4f28419497f9722a3daafe3b4186f6b6457e09190a35050565b6001600160a01b0381168114620001ac57600080fd5b50565b600060208284031215620001c257600080fd5b8151620001cf8162000196565b9392505050565b60805160a0516119426200026b60003960008181610135015281816102cc015281816103c8015281816106600152610e7b01526000818160b30152818161032301528181610421015281816104fb015281816105da01528181610735015281816107a601528181610b4d01528181610ca601528181610d0101528181610f2001528181610f9601526110dd01526119426000f3fe608060405234801561001057600080fd5b50600436106100a95760003560e01c80638da5cb5b116100715780638da5cb5b14610157578063baa2abde14610168578063c4d66de814610190578063cd3293de146101a3578063e8e33700146101b6578063f2fde38b146101c957600080fd5b806316f0115b146100ae57806338ed1739146100f25780636ed36f8814610113578063715018a61461012657806374d32ad414610130575b600080fd5b6100d57f000000000000000000000000000000000000000000000000000000000000000081565b6040516001600160a01b0390911681526020015b60405180910390f35b6101056101003660046114a5565b6101dc565b6040519081526020016100e9565b610105610121366004611547565b6102a2565b61012e610586565b005b6100d57f000000000000000000000000000000000000000000000000000000000000000081565b6000546001600160a01b03166100d5565b61017b6101763660046115ae565b61059a565b604080519283526020830191909152016100e9565b61012e61019e366004611620565b61099f565b6001546100d5906001600160a01b031681565b6101056101c4366004611644565b610a42565b61012e6101d7366004611620565b610a5f565b600081428110156102085760405162461bcd60e51b81526004016101ff906116c0565b60405180910390fd5b61021488878787610ad5565b9150868210156102975760405162461bcd60e51b815260206004820152604260248201527f5661646572526f7574657256323a3a737761704578616374546f6b656e73466f60448201527f72546f6b656e733a20496e73756666696369656e74205472616465204f7574706064820152611d5d60f21b608482015260a4016101ff565b509695505050505050565b600081428110156102c55760405162461bcd60e51b81526004016101ff906116c0565b60008060007f00000000000000000000000000000000000000000000000000000000000000006001600160a01b03168b6001600160a01b031614156103c657604051638597b7c960e01b81526001600160a01b038b811660048301527f00000000000000000000000000000000000000000000000000000000000000001690638597b7c99060240160206040518083038186803b15801561036557600080fd5b505afa158015610379573d6000803e3d6000fd5b505050506040513d601f19601f8201168201806040525081019061039d91906116f7565b6103b95760405162461bcd60e51b81526004016101ff90611719565b50889150879050866104c0565b7f00000000000000000000000000000000000000000000000000000000000000006001600160a01b03168a6001600160a01b031614801561049b5750604051638597b7c960e01b81526001600160a01b038c811660048301527f00000000000000000000000000000000000000000000000000000000000000001690638597b7c99060240160206040518083038186803b15801561046357600080fd5b505afa158015610477573d6000803e3d6000fd5b505050506040513d601f19601f8201168201806040525081019061049b91906116f7565b6104b75760405162461bcd60e51b81526004016101ff90611719565b50899150869050875b604051630582268f60e51b81526001600160a01b038481166004830152602482018490526044820183905233606483015288811660848301527f0000000000000000000000000000000000000000000000000000000000000000169063b044d1e09060a401602060405180830381600087803b15801561053f57600080fd5b505af1158015610553573d6000803e3d6000fd5b505050506040513d601f19601f820116820180604052508101906105779190611776565b9b9a5050505050505050505050565b61058e61117c565b61059860006111d6565b565b60008082428110156105be5760405162461bcd60e51b81526004016101ff906116c0565b6040516001623ba25760e11b03198152600481018990526000907f00000000000000000000000000000000000000000000000000000000000000006001600160a01b03169063ff88bb529060240160206040518083038186803b15801561062457600080fd5b505afa158015610638573d6000803e3d6000fd5b505050506040513d601f19601f8201168201806040525081019061065c919061178f565b90507f00000000000000000000000000000000000000000000000000000000000000006001600160a01b03808216908d161480156106ca57826001600160a01b03168c6001600160a01b0316146106c55760405162461bcd60e51b81526004016101ff906117ac565b610718565b826001600160a01b03168d6001600160a01b03161480156106fc5750816001600160a01b03168c6001600160a01b0316145b6107185760405162461bcd60e51b81526004016101ff906117ac565b6040516323b872dd60e01b81523360048201526001600160a01b037f00000000000000000000000000000000000000000000000000000000000000001660248201819052604482018d9052906323b872dd90606401600060405180830381600087803b15801561078757600080fd5b505af115801561079b573d6000803e3d6000fd5b5050505060008060007f00000000000000000000000000000000000000000000000000000000000000006001600160a01b031663fcd3533c8f8d6040518363ffffffff1660e01b81526004016108049291909182526001600160a01b0316602082015260400190565b606060405180830381600087803b15801561081e57600080fd5b505af1158015610832573d6000803e3d6000fd5b505050506040513d601f19601f820116820180604052508101906108569190611809565b9250925092508361086857818361086b565b82825b90995097508c8910156108cc5760405162461bcd60e51b8152602060048201526024808201527f5661646572526f7574657256323a20494e53554646494349454e545f415f414d60448201526313d5539560e21b60648201526084016101ff565b8b8810156109285760405162461bcd60e51b8152602060048201526024808201527f5661646572526f7574657256323a20494e53554646494349454e545f425f414d60448201526313d5539560e21b60648201526084016101ff565b60015460405163b99573a360e01b8152336004820152602481018390526001600160a01b039091169063b99573a390604401600060405180830381600087803b15801561097457600080fd5b505af1158015610988573d6000803e3d6000fd5b505050505050505050505097509795505050505050565b6109a761117c565b6001600160a01b038116610a1c5760405162461bcd60e51b815260206004820152603660248201527f5661646572526f7574657256323a3a696e697469616c697a653a20496e636f726044820152751c9958dd0814995cd95c9d994814dc1958da599a595960521b60648201526084016101ff565b600180546001600160a01b0319166001600160a01b038316179055610a3f610586565b50565b6000610a528989898987876102a2565b9998505050505050505050565b610a6761117c565b6001600160a01b038116610acc5760405162461bcd60e51b815260206004820152602660248201527f4f776e61626c653a206e6577206f776e657220697320746865207a65726f206160448201526564647265737360d01b60648201526084016101ff565b610a3f816111d6565b60006003831415610e155783836001818110610af357610af3611837565b9050602002016020810190610b089190611620565b6001600160a01b031684846000818110610b2457610b24611837565b9050602002016020810190610b399190611620565b6001600160a01b031614158015610c1857507f00000000000000000000000000000000000000000000000000000000000000006001600160a01b03166374d32ad46040518163ffffffff1660e01b815260040160206040518083038186803b158015610ba457600080fd5b505afa158015610bb8573d6000803e3d6000fd5b505050506040513d601f19601f82011682018060405250810190610bdc919061178f565b6001600160a01b031684846001818110610bf857610bf8611837565b9050602002016020810190610c0d9190611620565b6001600160a01b0316145b8015610c84575083836001818110610c3257610c32611837565b9050602002016020810190610c479190611620565b6001600160a01b031684846002818110610c6357610c63611837565b9050602002016020810190610c789190611620565b6001600160a01b031614155b610ca05760405162461bcd60e51b81526004016101ff9061184d565b610cff337f00000000000000000000000000000000000000000000000000000000000000008787876000818110610cd957610cd9611837565b9050602002016020810190610cee9190611620565b6001600160a01b0316929190611226565b7f00000000000000000000000000000000000000000000000000000000000000006001600160a01b0316633981262c85856000818110610d4157610d41611837565b9050602002016020810190610d569190611620565b86866002818110610d6957610d69611837565b9050602002016020810190610d7e9190611620565b6040516001600160e01b031960e085901b1681526001600160a01b0392831660048201529082166024820152604481018990529085166064820152608401602060405180830381600087803b158015610dd657600080fd5b505af1158015610dea573d6000803e3d6000fd5b505050506040513d601f19601f82011682018060405250810190610e0e9190611776565b9050611174565b60028314610e795760405162461bcd60e51b815260206004820152602b60248201527f5661646572526f7574657256323a3a5f737761703a20496e636f72726563742060448201526a0a0c2e8d04098cadccee8d60ab1b60648201526084016101ff565b7f000000000000000000000000000000000000000000000000000000000000000084846001818110610ead57610ead611837565b9050602002016020810190610ec29190611620565b6001600160a01b031685856000818110610ede57610ede611837565b9050602002016020810190610ef39190611620565b6001600160a01b03161415610f1a5760405162461bcd60e51b81526004016101ff9061184d565b610f53337f00000000000000000000000000000000000000000000000000000000000000008888886000818110610cd957610cd9611837565b806001600160a01b031685856000818110610f7057610f70611837565b9050602002016020810190610f859190611620565b6001600160a01b03161415611083577f00000000000000000000000000000000000000000000000000000000000000006001600160a01b031663f3e6ea8a86866001818110610fd657610fd6611837565b9050602002016020810190610feb9190611620565b6040516001600160e01b031960e084901b1681526001600160a01b039182166004820152602481018a90526000604482015290861660648201526084015b602060405180830381600087803b15801561104357600080fd5b505af1158015611057573d6000803e3d6000fd5b505050506040513d601f19601f8201168201806040525081019061107b9190611776565b915050611174565b806001600160a01b0316858560018181106110a0576110a0611837565b90506020020160208101906110b59190611620565b6001600160a01b0316146110db5760405162461bcd60e51b81526004016101ff9061184d565b7f00000000000000000000000000000000000000000000000000000000000000006001600160a01b031663f3e6ea8a8686600081811061111d5761111d611837565b90506020020160208101906111329190611620565b6040516001600160e01b031960e084901b1681526001600160a01b03918216600482015260006024820152604481018a90529086166064820152608401611029565b949350505050565b6000546001600160a01b031633146105985760405162461bcd60e51b815260206004820181905260248201527f4f776e61626c653a2063616c6c6572206973206e6f7420746865206f776e657260448201526064016101ff565b600080546001600160a01b038381166001600160a01b0319831681178455604051919092169283917f8be0079c531659141344cd1fd0a4f28419497f9722a3daafe3b4186f6b6457e09190a35050565b604080516001600160a01b0385811660248301528416604482015260648082018490528251808303909101815260849091019091526020810180516001600160e01b03166323b872dd60e01b179052611280908590611286565b50505050565b60006112db826040518060400160405280602081526020017f5361666545524332303a206c6f772d6c6576656c2063616c6c206661696c6564815250856001600160a01b03166113609092919063ffffffff16565b90508051600014806112fc5750808060200190518101906112fc91906116f7565b61135b5760405162461bcd60e51b815260206004820152602a60248201527f5361666545524332303a204552433230206f7065726174696f6e20646964206e6044820152691bdd081cdd58d8d9595960b21b60648201526084016101ff565b505050565b6060611174848460008585600080866001600160a01b0316858760405161138791906118bd565b60006040518083038185875af1925050503d80600081146113c4576040519150601f19603f3d011682016040523d82523d6000602084013e6113c9565b606091505b50915091506113da878383876113e5565b979650505050505050565b6060831561145157825161144a576001600160a01b0385163b61144a5760405162461bcd60e51b815260206004820152601d60248201527f416464726573733a2063616c6c20746f206e6f6e2d636f6e747261637400000060448201526064016101ff565b5081611174565b61117483838151156114665781518083602001fd5b8060405162461bcd60e51b81526004016101ff91906118d9565b6001600160a01b0381168114610a3f57600080fd5b80356114a081611480565b919050565b60008060008060008060a087890312156114be57600080fd5b8635955060208701359450604087013567ffffffffffffffff808211156114e457600080fd5b818901915089601f8301126114f857600080fd5b81358181111561150757600080fd5b8a60208260051b850101111561151c57600080fd5b60208301965080955050505061153460608801611495565b9150608087013590509295509295509295565b60008060008060008060c0878903121561156057600080fd5b863561156b81611480565b9550602087013561157b81611480565b94506040870135935060608701359250608087013561159981611480565b8092505060a087013590509295509295509295565b600080600080600080600060e0888a0312156115c957600080fd5b87356115d481611480565b965060208801356115e481611480565b955060408801359450606088013593506080880135925060a088013561160981611480565b8092505060c0880135905092959891949750929550565b60006020828403121561163257600080fd5b813561163d81611480565b9392505050565b600080600080600080600080610100898b03121561166157600080fd5b883561166c81611480565b9750602089013561167c81611480565b965060408901359550606089013594506080890135935060a0890135925060c08901356116a881611480565b8092505060e089013590509295985092959890939650565b6020808252601e908201527f5661646572526f7574657256323a3a656e737572653a20457870697265640000604082015260600190565b60006020828403121561170957600080fd5b8151801515811461163d57600080fd5b60208082526039908201527f5661646572526f7574657256323a3a6164644c69717569646974793a20556e7360408201527f7570706f72746564204173736574732053706563696669656400000000000000606082015260800190565b60006020828403121561178857600080fd5b5051919050565b6000602082840312156117a157600080fd5b815161163d81611480565b6020808252603d908201527f5661646572526f7574657256323a3a72656d6f76654c69717569646974793a2060408201527f496e636f72726563742041646472657373657320537065636966696564000000606082015260800190565b60008060006060848603121561181e57600080fd5b8351925060208401519150604084015190509250925092565b634e487b7160e01b600052603260045260246000fd5b60208082526024908201527f5661646572526f7574657256323a3a5f737761703a20496e636f7272656374206040820152630a0c2e8d60e31b606082015260800190565b60005b838110156118ac578181015183820152602001611894565b838111156112805750506000910152565b600082516118cf818460208701611891565b9190910192915050565b60208152600082518060208401526118f8816040850160208701611891565b601f01601f1916919091016040019291505056fea264697066735822122068af1fb0a5849527d8855fe96e5dd824cac9180067afe7459b9a964f4d45796564736f6c63430008090033",
  "immutableReferences": {
    "10156": [
      {
        "length": 32,
        "start": 179
      },
      {
        "length": 32,
        "start": 803
      },
      {
        "length": 32,
        "start": 1057
      },
      {
        "length": 32,
        "start": 1275
      },
      {
        "length": 32,
        "start": 1498
      },
      {
        "length": 32,
        "start": 1845
      },
      {
        "length": 32,
        "start": 1958
      },
      {
        "length": 32,
        "start": 2893
      },
      {
        "length": 32,
        "start": 3238
      },
      {
        "length": 32,
        "start": 3329
      },
      {
        "length": 32,
        "start": 3872
      },
      {
        "length": 32,
        "start": 3990
      },
      {
        "length": 32,
        "start": 4317
      }
    ],
    "10159": [
      {
        "length": 32,
        "start": 309
      },
      {
        "length": 32,
        "start": 716
      },
      {
        "length": 32,
        "start": 968
      },
      {
        "length": 32,
        "start": 1632
      },
      {
        "length": 32,
        "start": 3707
      }
    ]
  },
  "source": "// SPDX-License-Identifier: Unlicense\r\n\r\npragma solidity =0.8.9;\r\n\r\nimport \"@openzeppelin/contracts/access/Ownable.sol\";\r\nimport \"@openzeppelin/contracts/token/ERC20/utils/SafeERC20.sol\";\r\n\r\nimport \"../../shared/ProtocolConstants.sol\";\r\n\r\nimport \"../../dex/math/VaderMath.sol\";\r\n\r\nimport \"../../interfaces/reserve/IVaderReserve.sol\";\r\nimport \"../../interfaces/dex-v2/router/IVaderRouterV2.sol\";\r\nimport \"../../interfaces/dex-v2/pool/IVaderPoolV2.sol\";\r\n\r\n/*\r\n @dev Implementation of {VaderRouterV2} contract.\r\n *\r\n * The contract VaderRouter inherits from {Ownable} and {ProtocolConstants} contracts.\r\n *\r\n * It allows adding of liquidity to Vader pairs.\r\n *\r\n * Allows removing of liquidity by the users and claiming the underlying assets from\r\n * the Vader pairs/pools.\r\n *\r\n * Allows swapping between native and foreign assets within a single Vader pair.\r\n *\r\n * Allows swapping of foreign assets across two different Vader pairs.\r\n **/\r\ncontract VaderRouterV2 is IVaderRouterV2, ProtocolConstants, Ownable {\r\n    /* ========== LIBRARIES ========== */\r\n\r\n    // Used for safe token transfers\r\n    using SafeERC20 for IERC20;\r\n\r\n    /* ========== STATE VARIABLES ========== */\r\n\r\n    // Address of the Vader pool contract.\r\n    IVaderPoolV2 public immutable pool;\r\n\r\n    // Address of native asset (USDV or Vader).\r\n    IERC20 public immutable nativeAsset;\r\n\r\n    // Address of reserve contract.\r\n    IVaderReserve public reserve;\r\n\r\n    /* ========== CONSTRUCTOR ========== */\r\n\r\n    /*\r\n     * @dev Initialises contract by setting pool and native asset addresses.\r\n     *\r\n     * Native assets address is taken from param {_pool} and native asset's address\r\n     * is retrieved from {VaderPoolV2} contract.\r\n     **/\r\n    constructor(IVaderPoolV2 _pool) {\r\n        require(\r\n            _pool != IVaderPoolV2(_ZERO_ADDRESS),\r\n            \"VaderRouterV2::constructor: Incorrect Arguments\"\r\n        );\r\n\r\n        pool = _pool;\r\n        nativeAsset = pool.nativeAsset();\r\n    }\r\n\r\n    /* ========== VIEWS ========== */\r\n\r\n    /* ========== MUTATIVE FUNCTIONS ========== */\r\n\r\n    /*\r\n     * @dev Allows adding of liquidity to the Vader pool.\r\n     *\r\n     * Internally calls {addLiquidity} function.\r\n     *\r\n     * Returns the amount of liquidity minted.\r\n     **/\r\n    // NOTE: For Uniswap V2 compliancy, necessary due to stack too deep\r\n    function addLiquidity(\r\n        IERC20 tokenA,\r\n        IERC20 tokenB,\r\n        uint256 amountADesired,\r\n        uint256 amountBDesired,\r\n        uint256, // amountAMin = unused\r\n        uint256, // amountBMin = unused\r\n        address to,\r\n        uint256 deadline\r\n    ) external override returns (uint256 liquidity) {\r\n        return\r\n            addLiquidity(\r\n                tokenA,\r\n                tokenB,\r\n                amountADesired,\r\n                amountBDesired,\r\n                to,\r\n                deadline\r\n            );\r\n    }\r\n\r\n    /*\r\n     * @dev Allows adding of liquidity to the Vader pool.\r\n     *\r\n     * Calls `mint` function on the {BasePoolV2} contract.\r\n     *\r\n     * Pair is determined based {tokenA} and {tokenB} where one of them represents\r\n     * native asset and the other one represents foreign asset.\r\n     *\r\n     * Returns the amount of liquidity units minted against a pair.\r\n     *\r\n     * Requirements:\r\n     * - The current timestamp has not exceeded the param {deadline}.\r\n     * - Amongst {tokenA} and {tokenB}, one should be the native asset and the other\r\n     *   one must be the foreign asset.\r\n     * - The foreign asset among {tokenA} and {tokenB} must be a supported token.\r\n     **/\r\n    function addLiquidity(\r\n        IERC20 tokenA,\r\n        IERC20 tokenB,\r\n        uint256 amountADesired,\r\n        uint256 amountBDesired,\r\n        address to,\r\n        uint256 deadline\r\n    ) public override ensure(deadline) returns (uint256 liquidity) {\r\n        IERC20 foreignAsset;\r\n        uint256 nativeDeposit;\r\n        uint256 foreignDeposit;\r\n\r\n        if (tokenA == nativeAsset) {\r\n            require(\r\n                pool.supported(tokenB),\r\n                \"VaderRouterV2::addLiquidity: Unsupported Assets Specified\"\r\n            );\r\n            foreignAsset = tokenB;\r\n            foreignDeposit = amountBDesired;\r\n            nativeDeposit = amountADesired;\r\n        } else {\r\n            require(\r\n                tokenB == nativeAsset && pool.supported(tokenA),\r\n                \"VaderRouterV2::addLiquidity: Unsupported Assets Specified\"\r\n            );\r\n            foreignAsset = tokenA;\r\n            foreignDeposit = amountADesired;\r\n            nativeDeposit = amountBDesired;\r\n        }\r\n\r\n        liquidity = pool.mint(\r\n            foreignAsset,\r\n            nativeDeposit,\r\n            foreignDeposit,\r\n            msg.sender,\r\n            to\r\n        );\r\n    }\r\n\r\n    /*\r\n     * @dev Allows removing of liquidity by {msg.sender} and transfers the\r\n     * underlying assets to {to} address.\r\n     *\r\n     * The liquidity is removed from a pair represented by {tokenA} and {tokenB}.\r\n     *\r\n     * Transfers the NFT with Id {id} representing user's position, to the pool address,\r\n     * so the pool is able to burn it in the `burn` function call.\r\n     *\r\n     * Calls the `burn` function on the pool contract.\r\n     *\r\n     * Calls the `reimburseImpermanentLoss` on reserve contract to cover impermanent loss\r\n     * for the liquidity being removed.\r\n     *\r\n     * Requirements:\r\n     * - The underlying assets amounts of {amountA} and {amountB} must\r\n     *   be greater than or equal to {amountAMin} and {amountBMin}, respectively.\r\n     * - The current timestamp has not exceeded the param {deadline}.\r\n     * - Either of {tokenA} or {tokenB} should be a native asset and the other one\r\n     *   must be the foreign asset associated with the NFT representing liquidity.\r\n     **/\r\n    function removeLiquidity(\r\n        address tokenA,\r\n        address tokenB,\r\n        uint256 id,\r\n        uint256 amountAMin,\r\n        uint256 amountBMin,\r\n        address to,\r\n        uint256 deadline\r\n    )\r\n        public\r\n        override\r\n        ensure(deadline)\r\n        returns (uint256 amountA, uint256 amountB)\r\n    {\r\n        IERC20 _foreignAsset = pool.positionForeignAsset(id);\r\n        IERC20 _nativeAsset = nativeAsset;\r\n\r\n        bool isNativeA = _nativeAsset == IERC20(tokenA);\r\n\r\n        if (isNativeA) {\r\n            require(\r\n                IERC20(tokenB) == _foreignAsset,\r\n                \"VaderRouterV2::removeLiquidity: Incorrect Addresses Specified\"\r\n            );\r\n        } else {\r\n            require(\r\n                IERC20(tokenA) == _foreignAsset &&\r\n                    IERC20(tokenB) == _nativeAsset,\r\n                \"VaderRouterV2::removeLiquidity: Incorrect Addresses Specified\"\r\n            );\r\n        }\r\n\r\n        pool.transferFrom(msg.sender, address(pool), id);\r\n\r\n        (\r\n            uint256 amountNative,\r\n            uint256 amountForeign,\r\n            uint256 coveredLoss\r\n        ) = pool.burn(id, to);\r\n\r\n        (amountA, amountB) = isNativeA\r\n            ? (amountNative, amountForeign)\r\n            : (amountForeign, amountNative);\r\n\r\n        require(\r\n            amountA >= amountAMin,\r\n            \"VaderRouterV2: INSUFFICIENT_A_AMOUNT\"\r\n        );\r\n        require(\r\n            amountB >= amountBMin,\r\n            \"VaderRouterV2: INSUFFICIENT_B_AMOUNT\"\r\n        );\r\n\r\n        reserve.reimburseImpermanentLoss(msg.sender, coveredLoss);\r\n    }\r\n\r\n    /*\r\n     * @dev Allows swapping of exact source token amount to destination\r\n     * token amount.\r\n     *\r\n     * Internally calls {_swap} function.\r\n     *\r\n     * Requirements:\r\n     * - The destination amount {amountOut} must greater than or equal to param {amountOutMin}.\r\n     * - The current timestamp has not exceeded the param {deadline}.\r\n     **/\r\n    function swapExactTokensForTokens(\r\n        uint256 amountIn,\r\n        uint256 amountOutMin,\r\n        IERC20[] calldata path,\r\n        address to,\r\n        uint256 deadline\r\n    ) external virtual override ensure(deadline) returns (uint256 amountOut) {\r\n        amountOut = _swap(amountIn, path, to);\r\n\r\n        require(\r\n            amountOut >= amountOutMin,\r\n            \"VaderRouterV2::swapExactTokensForTokens: Insufficient Trade Output\"\r\n        );\r\n    }\r\n\r\n    /* ========== RESTRICTED FUNCTIONS ========== */\r\n\r\n    /*\r\n    * @dev Sets the reserve address and renounces contract's ownership.\r\n     *\r\n     * Requirements:\r\n     * - Only existing owner can call this function.\r\n     * - Param {_reserve} cannot be a zero address.\r\n     **/\r\n    function initialize(IVaderReserve _reserve) external onlyOwner {\r\n        require(\r\n            _reserve != IVaderReserve(_ZERO_ADDRESS),\r\n            \"VaderRouterV2::initialize: Incorrect Reserve Specified\"\r\n        );\r\n\r\n        reserve = _reserve;\r\n\r\n        renounceOwnership();\r\n    }\r\n\r\n    /* ========== INTERNAL FUNCTIONS ========== */\r\n\r\n    /* ========== PRIVATE FUNCTIONS ========== */\r\n\r\n    /*\r\n     * @dev Allows swapping of assets from within a single Vader pool pair or\r\n     * across two different Vader pairs.\r\n     *\r\n     * In case of a single Vader pair, the native asset can be swapped for foreign\r\n     * asset and vice versa.\r\n     *\r\n     * In case of two Vader pairs, the foreign asset is swapped for native asset from\r\n     * the first Vader pool and the native asset retrieved from the first Vader pair is swapped\r\n     * for foreign asset from the second Vader pair.\r\n     *\r\n     * Requirements:\r\n     * - Param {path} length can be either 2 or 3.\r\n     * - If the {path} length is 3 the index 0 and 1 must contain foreign assets' addresses\r\n     *   and index 1 must contain native asset's address.\r\n     * - If the {path} length is 2 then either of indexes must contain foreign asset's address\r\n     *   and the other one must contain native asset's address.\r\n     **/\r\n    function _swap(\r\n        uint256 amountIn,\r\n        IERC20[] calldata path,\r\n        address to\r\n    ) private returns (uint256 amountOut) {\r\n        if (path.length == 3) {\r\n            require(\r\n                path[0] != path[1] &&\r\n                    path[1] == pool.nativeAsset() &&\r\n                    path[2] != path[1],\r\n                \"VaderRouterV2::_swap: Incorrect Path\"\r\n            );\r\n\r\n            path[0].safeTransferFrom(msg.sender, address(pool), amountIn);\r\n\r\n            return pool.doubleSwap(path[0], path[2], amountIn, to);\r\n        } else {\r\n            require(\r\n                path.length == 2,\r\n                \"VaderRouterV2::_swap: Incorrect Path Length\"\r\n            );\r\n            IERC20 _nativeAsset = nativeAsset;\r\n            require(path[0] != path[1], \"VaderRouterV2::_swap: Incorrect Path\");\r\n\r\n            path[0].safeTransferFrom(msg.sender, address(pool), amountIn);\r\n            if (path[0] == _nativeAsset) {\r\n                return pool.swap(path[1], amountIn, 0, to);\r\n            } else {\r\n                require(\r\n                    path[1] == _nativeAsset,\r\n                    \"VaderRouterV2::_swap: Incorrect Path\"\r\n                );\r\n                return pool.swap(path[0], 0, amountIn, to);\r\n            }\r\n        }\r\n    }\r\n\r\n    /* ========== MODIFIERS ========== */\r\n\r\n    // Guard ensuring that the current timestamp has not exceeded the param {deadline}.\r\n    modifier ensure(uint256 deadline) {\r\n        require(deadline >= block.timestamp, \"VaderRouterV2::ensure: Expired\");\r\n        _;\r\n    }\r\n}\r\n",
  "sourcePath": "/home/mingyue/sub_contract_content/Web3Bugs/contracts/52/contracts/dex-v2/router/VaderRouterV2.sol",
  "compiler": {
    "name": "solc",
    "version": "0.8.9+commit.e5eed63a.Emscripten.clang"
  },
  "schemaVersion": "3.4.16",
  "updatedAt": "2025-03-06T07:23:55.027Z",
  "devdoc": {
    "kind": "dev",
    "methods": {
      "owner()": {
        "details": "Returns the address of the current owner."
      },
      "renounceOwnership()": {
        "details": "Leaves the contract without owner. It will not be possible to call `onlyOwner` functions. Can only be called by the current owner. NOTE: Renouncing ownership will leave the contract without an owner, thereby disabling any functionality that is only available to the owner."
      },
      "transferOwnership(address)": {
        "details": "Transfers ownership of the contract to a new account (`newOwner`). Can only be called by the current owner."
      }
    },
    "version": 1
  },
  "userdoc": {
    "kind": "user",
    "methods": {},
    "version": 1
  }
}