{
  "contractName": "VaderPoolV2",
  "abi": [
    {
      "inputs": [
        {
          "internalType": "bool",
          "name": "_queueActive",
          "type": "bool"
        },
        {
          "internalType": "contract IERC20",
          "name": "_nativeAsset",
          "type": "address"
        }
      ],
      "stateMutability": "nonpayable",
      "type": "constructor"
    },
    {
      "anonymous": false,
      "inputs": [
        {
          "indexed": true,
          "internalType": "address",
          "name": "owner",
          "type": "address"
        },
        {
          "indexed": true,
          "internalType": "address",
          "name": "approved",
          "type": "address"
        },
        {
          "indexed": true,
          "internalType": "uint256",
          "name": "tokenId",
          "type": "uint256"
        }
      ],
      "name": "Approval",
      "type": "event"
    },
    {
      "anonymous": false,
      "inputs": [
        {
          "indexed": true,
          "internalType": "address",
          "name": "owner",
          "type": "address"
        },
        {
          "indexed": true,
          "internalType": "address",
          "name": "operator",
          "type": "address"
        },
        {
          "indexed": false,
          "internalType": "bool",
          "name": "approved",
          "type": "bool"
        }
      ],
      "name": "ApprovalForAll",
      "type": "event"
    },
    {
      "anonymous": false,
      "inputs": [
        {
          "indexed": true,
          "internalType": "address",
          "name": "sender",
          "type": "address"
        },
        {
          "indexed": false,
          "internalType": "uint256",
          "name": "amount0",
          "type": "uint256"
        },
        {
          "indexed": false,
          "internalType": "uint256",
          "name": "amount1",
          "type": "uint256"
        },
        {
          "indexed": true,
          "internalType": "address",
          "name": "to",
          "type": "address"
        }
      ],
      "name": "Burn",
      "type": "event"
    },
    {
      "anonymous": false,
      "inputs": [
        {
          "indexed": true,
          "internalType": "address",
          "name": "sender",
          "type": "address"
        },
        {
          "indexed": true,
          "internalType": "address",
          "name": "to",
          "type": "address"
        },
        {
          "indexed": false,
          "internalType": "uint256",
          "name": "amount0",
          "type": "uint256"
        },
        {
          "indexed": false,
          "internalType": "uint256",
          "name": "amount1",
          "type": "uint256"
        }
      ],
      "name": "Mint",
      "type": "event"
    },
    {
      "anonymous": false,
      "inputs": [
        {
          "indexed": true,
          "internalType": "address",
          "name": "previousOwner",
          "type": "address"
        },
        {
          "indexed": true,
          "internalType": "address",
          "name": "newOwner",
          "type": "address"
        }
      ],
      "name": "OwnershipTransferred",
      "type": "event"
    },
    {
      "anonymous": false,
      "inputs": [
        {
          "indexed": true,
          "internalType": "address",
          "name": "sender",
          "type": "address"
        },
        {
          "indexed": false,
          "internalType": "uint256",
          "name": "id",
          "type": "uint256"
        },
        {
          "indexed": false,
          "internalType": "uint256",
          "name": "liquidity",
          "type": "uint256"
        },
        {
          "indexed": false,
          "internalType": "uint256",
          "name": "loss",
          "type": "uint256"
        }
      ],
      "name": "PositionClosed",
      "type": "event"
    },
    {
      "anonymous": false,
      "inputs": [
        {
          "indexed": true,
          "internalType": "address",
          "name": "from",
          "type": "address"
        },
        {
          "indexed": true,
          "internalType": "address",
          "name": "to",
          "type": "address"
        },
        {
          "indexed": false,
          "internalType": "uint256",
          "name": "id",
          "type": "uint256"
        },
        {
          "indexed": false,
          "internalType": "uint256",
          "name": "liquidity",
          "type": "uint256"
        }
      ],
      "name": "PositionOpened",
      "type": "event"
    },
    {
      "anonymous": false,
      "inputs": [
        {
          "indexed": false,
          "internalType": "bool",
          "name": "activated",
          "type": "bool"
        }
      ],
      "name": "QueueActive",
      "type": "event"
    },
    {
      "anonymous": false,
      "inputs": [
        {
          "indexed": false,
          "internalType": "contract IERC20",
          "name": "foreignAsset",
          "type": "address"
        },
        {
          "indexed": true,
          "internalType": "address",
          "name": "sender",
          "type": "address"
        },
        {
          "indexed": false,
          "internalType": "uint256",
          "name": "amount0In",
          "type": "uint256"
        },
        {
          "indexed": false,
          "internalType": "uint256",
          "name": "amount1In",
          "type": "uint256"
        },
        {
          "indexed": false,
          "internalType": "uint256",
          "name": "amount0Out",
          "type": "uint256"
        },
        {
          "indexed": false,
          "internalType": "uint256",
          "name": "amount1Out",
          "type": "uint256"
        },
        {
          "indexed": true,
          "internalType": "address",
          "name": "to",
          "type": "address"
        }
      ],
      "name": "Swap",
      "type": "event"
    },
    {
      "anonymous": false,
      "inputs": [
        {
          "indexed": false,
          "internalType": "contract IERC20",
          "name": "foreignAsset",
          "type": "address"
        },
        {
          "indexed": false,
          "internalType": "uint256",
          "name": "reserve0",
          "type": "uint256"
        },
        {
          "indexed": false,
          "internalType": "uint256",
          "name": "reserve1",
          "type": "uint256"
        }
      ],
      "name": "Sync",
      "type": "event"
    },
    {
      "anonymous": false,
      "inputs": [
        {
          "indexed": true,
          "internalType": "address",
          "name": "from",
          "type": "address"
        },
        {
          "indexed": true,
          "internalType": "address",
          "name": "to",
          "type": "address"
        },
        {
          "indexed": true,
          "internalType": "uint256",
          "name": "tokenId",
          "type": "uint256"
        }
      ],
      "name": "Transfer",
      "type": "event"
    },
    {
      "inputs": [
        {
          "internalType": "address",
          "name": "to",
          "type": "address"
        },
        {
          "internalType": "uint256",
          "name": "tokenId",
          "type": "uint256"
        }
      ],
      "name": "approve",
      "outputs": [],
      "stateMutability": "nonpayable",
      "type": "function"
    },
    {
      "inputs": [
        {
          "internalType": "address",
          "name": "owner",
          "type": "address"
        }
      ],
      "name": "balanceOf",
      "outputs": [
        {
          "internalType": "uint256",
          "name": "",
          "type": "uint256"
        }
      ],
      "stateMutability": "view",
      "type": "function"
    },
    {
      "inputs": [
        {
          "internalType": "contract IERC20",
          "name": "foreignAssetA",
          "type": "address"
        },
        {
          "internalType": "contract IERC20",
          "name": "foreignAssetB",
          "type": "address"
        },
        {
          "internalType": "uint256",
          "name": "foreignAmountIn",
          "type": "uint256"
        },
        {
          "internalType": "address",
          "name": "to",
          "type": "address"
        }
      ],
      "name": "doubleSwap",
      "outputs": [
        {
          "internalType": "uint256",
          "name": "foreignAmountOut",
          "type": "uint256"
        }
      ],
      "stateMutability": "nonpayable",
      "type": "function"
    },
    {
      "inputs": [
        {
          "internalType": "uint256",
          "name": "tokenId",
          "type": "uint256"
        }
      ],
      "name": "getApproved",
      "outputs": [
        {
          "internalType": "address",
          "name": "",
          "type": "address"
        }
      ],
      "stateMutability": "view",
      "type": "function"
    },
    {
      "inputs": [
        {
          "internalType": "contract IERC20",
          "name": "foreignAsset",
          "type": "address"
        }
      ],
      "name": "getReserves",
      "outputs": [
        {
          "internalType": "uint112",
          "name": "reserveNative",
          "type": "uint112"
        },
        {
          "internalType": "uint112",
          "name": "reserveForeign",
          "type": "uint112"
        },
        {
          "internalType": "uint32",
          "name": "blockTimestampLast",
          "type": "uint32"
        }
      ],
      "stateMutability": "view",
      "type": "function"
    },
    {
      "inputs": [
        {
          "internalType": "address",
          "name": "owner",
          "type": "address"
        },
        {
          "internalType": "address",
          "name": "operator",
          "type": "address"
        }
      ],
      "name": "isApprovedForAll",
      "outputs": [
        {
          "internalType": "bool",
          "name": "",
          "type": "bool"
        }
      ],
      "stateMutability": "view",
      "type": "function"
    },
    {
      "inputs": [
        {
          "internalType": "contract IERC20",
          "name": "foreignAsset",
          "type": "address"
        },
        {
          "internalType": "uint256",
          "name": "nativeDeposit",
          "type": "uint256"
        },
        {
          "internalType": "uint256",
          "name": "foreignDeposit",
          "type": "uint256"
        },
        {
          "internalType": "address",
          "name": "from",
          "type": "address"
        },
        {
          "internalType": "address",
          "name": "to",
          "type": "address"
        }
      ],
      "name": "mint",
      "outputs": [
        {
          "internalType": "uint256",
          "name": "liquidity",
          "type": "uint256"
        }
      ],
      "stateMutability": "nonpayable",
      "type": "function"
    },
    {
      "inputs": [],
      "name": "name",
      "outputs": [
        {
          "internalType": "string",
          "name": "",
          "type": "string"
        }
      ],
      "stateMutability": "view",
      "type": "function"
    },
    {
      "inputs": [],
      "name": "nativeAsset",
      "outputs": [
        {
          "internalType": "contract IERC20",
          "name": "",
          "type": "address"
        }
      ],
      "stateMutability": "view",
      "type": "function"
    },
    {
      "inputs": [],
      "name": "owner",
      "outputs": [
        {
          "internalType": "address",
          "name": "",
          "type": "address"
        }
      ],
      "stateMutability": "view",
      "type": "function"
    },
    {
      "inputs": [
        {
          "internalType": "uint256",
          "name": "tokenId",
          "type": "uint256"
        }
      ],
      "name": "ownerOf",
      "outputs": [
        {
          "internalType": "address",
          "name": "",
          "type": "address"
        }
      ],
      "stateMutability": "view",
      "type": "function"
    },
    {
      "inputs": [
        {
          "internalType": "contract IERC20",
          "name": "",
          "type": "address"
        }
      ],
      "name": "pairInfo",
      "outputs": [
        {
          "internalType": "uint256",
          "name": "totalSupply",
          "type": "uint256"
        },
        {
          "internalType": "uint112",
          "name": "reserveNative",
          "type": "uint112"
        },
        {
          "internalType": "uint112",
          "name": "reserveForeign",
          "type": "uint112"
        },
        {
          "internalType": "uint32",
          "name": "blockTimestampLast",
          "type": "uint32"
        },
        {
          "components": [
            {
              "internalType": "uint256",
              "name": "nativeLast",
              "type": "uint256"
            },
            {
              "internalType": "uint256",
              "name": "foreignLast",
              "type": "uint256"
            }
          ],
          "internalType": "struct IBasePoolV2.PriceCumulative",
          "name": "priceCumulative",
          "type": "tuple"
        }
      ],
      "stateMutability": "view",
      "type": "function"
    },
    {
      "inputs": [
        {
          "internalType": "contract IERC20",
          "name": "foreignAsset",
          "type": "address"
        }
      ],
      "name": "pairSupply",
      "outputs": [
        {
          "internalType": "uint256",
          "name": "",
          "type": "uint256"
        }
      ],
      "stateMutability": "view",
      "type": "function"
    },
    {
      "inputs": [
        {
          "internalType": "uint256",
          "name": "id",
          "type": "uint256"
        }
      ],
      "name": "positionForeignAsset",
      "outputs": [
        {
          "internalType": "contract IERC20",
          "name": "",
          "type": "address"
        }
      ],
      "stateMutability": "view",
      "type": "function"
    },
    {
      "inputs": [],
      "name": "positionId",
      "outputs": [
        {
          "internalType": "uint256",
          "name": "",
          "type": "uint256"
        }
      ],
      "stateMutability": "view",
      "type": "function"
    },
    {
      "inputs": [
        {
          "internalType": "uint256",
          "name": "",
          "type": "uint256"
        }
      ],
      "name": "positions",
      "outputs": [
        {
          "internalType": "contract IERC20",
          "name": "foreignAsset",
          "type": "address"
        },
        {
          "internalType": "uint256",
          "name": "creation",
          "type": "uint256"
        },
        {
          "internalType": "uint256",
          "name": "liquidity",
          "type": "uint256"
        },
        {
          "internalType": "uint256",
          "name": "originalNative",
          "type": "uint256"
        },
        {
          "internalType": "uint256",
          "name": "originalForeign",
          "type": "uint256"
        }
      ],
      "stateMutability": "view",
      "type": "function"
    },
    {
      "inputs": [],
      "name": "queueActive",
      "outputs": [
        {
          "internalType": "bool",
          "name": "",
          "type": "bool"
        }
      ],
      "stateMutability": "view",
      "type": "function"
    },
    {
      "inputs": [],
      "name": "renounceOwnership",
      "outputs": [],
      "stateMutability": "nonpayable",
      "type": "function"
    },
    {
      "inputs": [
        {
          "internalType": "contract IERC20",
          "name": "foreignAsset",
          "type": "address"
        }
      ],
      "name": "rescue",
      "outputs": [],
      "stateMutability": "nonpayable",
      "type": "function"
    },
    {
      "inputs": [],
      "name": "router",
      "outputs": [
        {
          "internalType": "address",
          "name": "",
          "type": "address"
        }
      ],
      "stateMutability": "view",
      "type": "function"
    },
    {
      "inputs": [
        {
          "internalType": "address",
          "name": "from",
          "type": "address"
        },
        {
          "internalType": "address",
          "name": "to",
          "type": "address"
        },
        {
          "internalType": "uint256",
          "name": "tokenId",
          "type": "uint256"
        }
      ],
      "name": "safeTransferFrom",
      "outputs": [],
      "stateMutability": "nonpayable",
      "type": "function"
    },
    {
      "inputs": [
        {
          "internalType": "address",
          "name": "from",
          "type": "address"
        },
        {
          "internalType": "address",
          "name": "to",
          "type": "address"
        },
        {
          "internalType": "uint256",
          "name": "tokenId",
          "type": "uint256"
        },
        {
          "internalType": "bytes",
          "name": "data",
          "type": "bytes"
        }
      ],
      "name": "safeTransferFrom",
      "outputs": [],
      "stateMutability": "nonpayable",
      "type": "function"
    },
    {
      "inputs": [
        {
          "internalType": "address",
          "name": "operator",
          "type": "address"
        },
        {
          "internalType": "bool",
          "name": "approved",
          "type": "bool"
        }
      ],
      "name": "setApprovalForAll",
      "outputs": [],
      "stateMutability": "nonpayable",
      "type": "function"
    },
    {
      "inputs": [
        {
          "internalType": "contract IERC20",
          "name": "",
          "type": "address"
        }
      ],
      "name": "supported",
      "outputs": [
        {
          "internalType": "bool",
          "name": "",
          "type": "bool"
        }
      ],
      "stateMutability": "view",
      "type": "function"
    },
    {
      "inputs": [
        {
          "internalType": "bytes4",
          "name": "interfaceId",
          "type": "bytes4"
        }
      ],
      "name": "supportsInterface",
      "outputs": [
        {
          "internalType": "bool",
          "name": "",
          "type": "bool"
        }
      ],
      "stateMutability": "view",
      "type": "function"
    },
    {
      "inputs": [
        {
          "internalType": "contract IERC20",
          "name": "foreignAsset",
          "type": "address"
        },
        {
          "internalType": "uint256",
          "name": "nativeAmountIn",
          "type": "uint256"
        },
        {
          "internalType": "uint256",
          "name": "foreignAmountIn",
          "type": "uint256"
        },
        {
          "internalType": "address",
          "name": "to",
          "type": "address"
        }
      ],
      "name": "swap",
      "outputs": [
        {
          "internalType": "uint256",
          "name": "",
          "type": "uint256"
        }
      ],
      "stateMutability": "nonpayable",
      "type": "function"
    },
    {
      "inputs": [],
      "name": "symbol",
      "outputs": [
        {
          "internalType": "string",
          "name": "",
          "type": "string"
        }
      ],
      "stateMutability": "view",
      "type": "function"
    },
    {
      "inputs": [],
      "name": "synthFactory",
      "outputs": [
        {
          "internalType": "contract ISynthFactory",
          "name": "",
          "type": "address"
        }
      ],
      "stateMutability": "view",
      "type": "function"
    },
    {
      "inputs": [
        {
          "internalType": "uint256",
          "name": "tokenId",
          "type": "uint256"
        }
      ],
      "name": "tokenURI",
      "outputs": [
        {
          "internalType": "string",
          "name": "",
          "type": "string"
        }
      ],
      "stateMutability": "view",
      "type": "function"
    },
    {
      "inputs": [
        {
          "internalType": "address",
          "name": "from",
          "type": "address"
        },
        {
          "internalType": "address",
          "name": "to",
          "type": "address"
        },
        {
          "internalType": "uint256",
          "name": "tokenId",
          "type": "uint256"
        }
      ],
      "name": "transferFrom",
      "outputs": [],
      "stateMutability": "nonpayable",
      "type": "function"
    },
    {
      "inputs": [
        {
          "internalType": "address",
          "name": "newOwner",
          "type": "address"
        }
      ],
      "name": "transferOwnership",
      "outputs": [],
      "stateMutability": "nonpayable",
      "type": "function"
    },
    {
      "inputs": [],
      "name": "wrapper",
      "outputs": [
        {
          "internalType": "contract ILPWrapper",
          "name": "",
          "type": "address"
        }
      ],
      "stateMutability": "view",
      "type": "function"
    },
    {
      "inputs": [
        {
          "internalType": "contract IERC20",
          "name": "foreignAsset",
          "type": "address"
        }
      ],
      "name": "cumulativePrices",
      "outputs": [
        {
          "internalType": "uint256",
          "name": "price0CumulativeLast",
          "type": "uint256"
        },
        {
          "internalType": "uint256",
          "name": "price1CumulativeLast",
          "type": "uint256"
        },
        {
          "internalType": "uint32",
          "name": "blockTimestampLast",
          "type": "uint32"
        }
      ],
      "stateMutability": "view",
      "type": "function"
    },
    {
      "inputs": [
        {
          "internalType": "contract ILPWrapper",
          "name": "_wrapper",
          "type": "address"
        },
        {
          "internalType": "contract ISynthFactory",
          "name": "_synthFactory",
          "type": "address"
        },
        {
          "internalType": "address",
          "name": "_router",
          "type": "address"
        }
      ],
      "name": "initialize",
      "outputs": [],
      "stateMutability": "nonpayable",
      "type": "function"
    },
    {
      "inputs": [
        {
          "internalType": "contract IERC20",
          "name": "foreignAsset",
          "type": "address"
        },
        {
          "internalType": "uint256",
          "name": "nativeDeposit",
          "type": "uint256"
        },
        {
          "internalType": "address",
          "name": "from",
          "type": "address"
        },
        {
          "internalType": "address",
          "name": "to",
          "type": "address"
        }
      ],
      "name": "mintSynth",
      "outputs": [
        {
          "internalType": "uint256",
          "name": "amountSynth",
          "type": "uint256"
        }
      ],
      "stateMutability": "nonpayable",
      "type": "function"
    },
    {
      "inputs": [
        {
          "internalType": "contract IERC20",
          "name": "foreignAsset",
          "type": "address"
        },
        {
          "internalType": "uint256",
          "name": "synthAmount",
          "type": "uint256"
        },
        {
          "internalType": "address",
          "name": "to",
          "type": "address"
        }
      ],
      "name": "burnSynth",
      "outputs": [
        {
          "internalType": "uint256",
          "name": "amountNative",
          "type": "uint256"
        }
      ],
      "stateMutability": "nonpayable",
      "type": "function"
    },
    {
      "inputs": [
        {
          "internalType": "uint256",
          "name": "id",
          "type": "uint256"
        },
        {
          "internalType": "address",
          "name": "to",
          "type": "address"
        }
      ],
      "name": "burn",
      "outputs": [
        {
          "internalType": "uint256",
          "name": "amountNative",
          "type": "uint256"
        },
        {
          "internalType": "uint256",
          "name": "amountForeign",
          "type": "uint256"
        },
        {
          "internalType": "uint256",
          "name": "coveredLoss",
          "type": "uint256"
        }
      ],
      "stateMutability": "nonpayable",
      "type": "function"
    },
    {
      "inputs": [
        {
          "internalType": "contract IERC20",
          "name": "foreignAsset",
          "type": "address"
        },
        {
          "internalType": "uint256",
          "name": "nativeDeposit",
          "type": "uint256"
        },
        {
          "internalType": "uint256",
          "name": "foreignDeposit",
          "type": "uint256"
        },
        {
          "internalType": "address",
          "name": "from",
          "type": "address"
        },
        {
          "internalType": "address",
          "name": "to",
          "type": "address"
        }
      ],
      "name": "mintFungible",
      "outputs": [
        {
          "internalType": "uint256",
          "name": "liquidity",
          "type": "uint256"
        }
      ],
      "stateMutability": "nonpayable",
      "type": "function"
    },
    {
      "inputs": [
        {
          "internalType": "contract IERC20",
          "name": "foreignAsset",
          "type": "address"
        },
        {
          "internalType": "uint256",
          "name": "liquidity",
          "type": "uint256"
        },
        {
          "internalType": "address",
          "name": "to",
          "type": "address"
        }
      ],
      "name": "burnFungible",
      "outputs": [
        {
          "internalType": "uint256",
          "name": "amountNative",
          "type": "uint256"
        },
        {
          "internalType": "uint256",
          "name": "amountForeign",
          "type": "uint256"
        }
      ],
      "stateMutability": "nonpayable",
      "type": "function"
    },
    {
      "inputs": [],
      "name": "toggleQueue",
      "outputs": [],
      "stateMutability": "nonpayable",
      "type": "function"
    },
    {
      "inputs": [
        {
          "internalType": "contract IERC20",
          "name": "foreignAsset",
          "type": "address"
        },
        {
          "internalType": "bool",
          "name": "support",
          "type": "bool"
        }
      ],
      "name": "setTokenSupport",
      "outputs": [],
      "stateMutability": "nonpayable",
      "type": "function"
    },
    {
      "inputs": [
        {
          "internalType": "contract IERC20",
          "name": "foreignAsset",
          "type": "address"
        }
      ],
      "name": "setFungibleTokenSupport",
      "outputs": [],
      "stateMutability": "nonpayable",
      "type": "function"
    }
  ],
  "bytecode": "0x60a06040523480156200001157600080fd5b506040516200474638038062004746833981016040819052620000349162000240565b604080518082018252600881526705661646572204c560c41b6020808301918252835180850190945260038452620564c560ec1b9084015281518493916200008091600091906200019a565b508051620000969060019060208401906200019a565b50506001600655506001600160a01b0381166200010e5760405162461bcd60e51b815260206004820152602c60248201527f42617365506f6f6c56323a3a636f6e7374727563746f723a20496e636f72726560448201526b637420417267756d656e747360a01b606482015260840160405180910390fd5b6001600160a01b0316608052620001253362000148565b50600e8054911515600160a01b0260ff60a01b19909216919091179055620002cb565b600c80546001600160a01b038381166001600160a01b0319831681179093556040519116919082907f8be0079c531659141344cd1fd0a4f28419497f9722a3daafe3b4186f6b6457e090600090a35050565b828054620001a8906200028e565b90600052602060002090601f016020900481019282620001cc576000855562000217565b82601f10620001e757805160ff191683800117855562000217565b8280016001018555821562000217579182015b8281111562000217578251825591602001919060010190620001fa565b506200022592915062000229565b5090565b5b808211156200022557600081556001016200022a565b600080604083850312156200025457600080fd5b825180151581146200026557600080fd5b60208401519092506001600160a01b03811681146200028357600080fd5b809150509250929050565b600181811c90821680620002a357607f821691505b60208210811415620002c557634e487b7160e01b600052602260045260246000fd5b50919050565b60805161442e620003186000396000818161047601528181611202015281816114c101528181611a5001528181611ad501528181611f22015281816125840152613606015261442e6000f3fe608060405234801561001057600080fd5b506004361061025e5760003560e01c80638da5cb5b11610146578063b86ba1e0116100c3578063e985e9c511610087578063e985e9c5146106f6578063f2fde38b14610732578063f3e6ea8a14610745578063f887ea4014610758578063fcd3533c1461076b578063ff88bb521461079957600080fd5b8063b86ba1e0146105df578063b88d4fde14610608578063c0c53b8b1461061b578063c87b56dd1461062e578063dc0a42291461064157600080fd5b80639e1664701161010a5780639e16647014610580578063a22cb46514610593578063ac210cc7146105a6578063b044d1e0146105b9578063b41b23b7146105cc57600080fd5b80638da5cb5b146104f457806395d89b411461050557806399fbab881461050d5780639a12a824146105655780639c88994a1461056d57600080fd5b806352f69f20116101df57806371640de3116101a357806371640de31461046857806374d32ad4146104715780637f0e538514610498578063839006f2146104ab5780638597b7c9146104be5780638628276f146104e157600080fd5b806352f69f20146103fe5780636352211e146104125780636cda6ad61461042557806370a082311461044d578063715018a61461046057600080fd5b806323b872dd1161022657806323b872dd146102f35780633981262c146103065780633e99c1e41461032757806342842e0e146103665780634e5ff2481461037957600080fd5b806301ffc9a71461026357806306fdde031461028b578063081812fc146102a0578063095ea7b3146102cb5780630c6a753f146102e0575b600080fd5b610276610271366004613b8e565b6107c2565b60405190151581526020015b60405180910390f35b610293610814565b6040516102829190613c03565b6102b36102ae366004613c16565b6108a6565b6040516001600160a01b039091168152602001610282565b6102de6102d9366004613c44565b6108cd565b005b6102de6102ee366004613c7e565b6109e8565b6102de610301366004613cb7565b610aa6565b610319610314366004613cf8565b610ad7565b604051908152602001610282565b61033a610335366004613d4b565b610ed7565b604080516001600160701b03948516815293909216602084015263ffffffff1690820152606001610282565b6102de610374366004613cb7565b610f19565b6103dd610387366004613d4b565b6001600160a01b031660008181526008602081815260408084208151808301909252600281015480835260038201549284018390529590945291905260019091015491929091600160e01b900463ffffffff1690565b60408051938452602084019290925263ffffffff1690820152606001610282565b600e5461027690600160a01b900460ff1681565b6102b3610420366004613c16565b610f34565b610438610433366004613d68565b610f94565b60408051928352602083019190915201610282565b61031961045b366004613d4b565b6112cb565b6102de611351565b610319600a5481565b6102b37f000000000000000000000000000000000000000000000000000000000000000081565b6102de6104a6366004613d4b565b611365565b6102de6104b9366004613d4b565b6113cf565b6102766104cc366004613d4b565b60076020526000908152604090205460ff1681565b6103196104ef366004613daa565b6114a0565b600c546001600160a01b03166102b3565b610293611747565b61055461051b366004613c16565b600960205260009081526040902080546001820154600283015460038401546004909401546001600160a01b0390931693919290919085565b604051610282959493929190613df2565b6102de611756565b600e546102b3906001600160a01b031681565b61031961058e366004613d68565b6117b4565b6102de6105a1366004613c7e565b611a8b565b600d546102b3906001600160a01b031681565b6103196105c7366004613e20565b611a9a565b6103196105da366004613e20565b611e0e565b6103196105ed366004613d4b565b6001600160a01b031660009081526008602052604090205490565b6102de610616366004613e95565b612196565b6102de610629366004613f75565b6121c8565b61029361063c366004613c16565b6123de565b6106af61064f366004613d4b565b600860209081526000918252604091829020805460018201548451808601909552600283015485526003909201549284019290925290916001600160701b0380831692600160701b810490911691600160e01b90910463ffffffff169085565b604080519586526001600160701b03948516602080880191909152949093169285019290925263ffffffff16606084015280516080840152015160a082015260c001610282565b610276610704366004613fb5565b6001600160a01b03918216600090815260056020908152604080832093909416825291909152205460ff1690565b6102de610740366004613d4b565b612451565b610319610753366004613fe3565b6124ca565b600b546102b3906001600160a01b031681565b61077e610779366004614022565b6128ba565b60408051938452602084019290925290820152606001610282565b6102b36107a7366004613c16565b6000908152600960205260409020546001600160a01b031690565b60006001600160e01b031982166380ac58cd60e01b14806107f357506001600160e01b03198216635b5e139f60e01b145b8061080e57506301ffc9a760e01b6001600160e01b03198316145b92915050565b60606000805461082390614047565b80601f016020809104026020016040519081016040528092919081815260200182805461084f90614047565b801561089c5780601f106108715761010080835404028352916020019161089c565b820191906000526020600020905b81548152906001019060200180831161087f57829003601f168201915b5050505050905090565b60006108b1826129f6565b506000908152600460205260409020546001600160a01b031690565b60006108d882610f34565b9050806001600160a01b0316836001600160a01b0316141561094b5760405162461bcd60e51b815260206004820152602160248201527f4552433732313a20617070726f76616c20746f2063757272656e74206f776e656044820152603960f91b60648201526084015b60405180910390fd5b336001600160a01b038216148061096757506109678133610704565b6109d95760405162461bcd60e51b815260206004820152603d60248201527f4552433732313a20617070726f76652063616c6c6572206973206e6f7420746f60448201527f6b656e206f776e6572206f7220617070726f76656420666f7220616c6c0000006064820152608401610942565b6109e38383612a55565b505050565b6109f0612ac3565b6001600160a01b03821660009081526007602052604090205460ff1615158115151415610a7b5760405162461bcd60e51b815260206004820152603360248201527f5661646572506f6f6c56323a3a737570706f7274546f6b656e3a20416c7265616044820152726479204174204465736972656420537461746560681b6064820152608401610942565b6001600160a01b03919091166000908152600760205260409020805460ff1916911515919091179055565b610ab03382612b1d565b610acc5760405162461bcd60e51b815260040161094290614082565b6109e3838383612b9b565b6000610ae1612cff565b84610aeb81612d7f565b84610af581612d7f565b610afd612dfe565b600080610b0989610ed7565b506040516370a0823160e01b815230600482015291935091506001600160a01b038a16906370a082319060240160206040518083038186803b158015610b4e57600080fd5b505afa158015610b62573d6000803e3d6000fd5b505050506040513d601f19601f82011682018060405250810190610b8691906140cf565b610b99886001600160701b0384166140fe565b1115610c045760405162461bcd60e51b815260206004820152603460248201527f42617365506f6f6c56323a3a646f75626c65537761703a20496e7375666669636044820152731a595b9d08151bdad95b9cc8141c9bdd9a59195960621b6064820152608401610942565b60405163ec6341b360e01b8152600481018890526001600160701b0380831660248301528316604482015260009073__VaderMath_____________________________9063ec6341b39060640160206040518083038186803b158015610c6957600080fd5b505af4158015610c7d573d6000803e3d6000fd5b505050506040513d601f19601f82011682018060405250810190610ca191906140cf565b9050600081118015610cbc5750826001600160701b03168111155b610cd85760405162461bcd60e51b815260040161094290614116565b610d098a610cef836001600160701b03871661415d565b610d028b6001600160701b0387166140fe565b8686612e58565b604051309033907f236c64fd115dc00cafeeaf44b6ca2af23a66ba0e282852756756b073c551507590610d46908e906000908e9088908390613df2565b60405180910390a3610d5789610ed7565b5060405163ec6341b360e01b8152600481018490526001600160701b03808416602483015282166044820152919450925073__VaderMath_____________________________9063ec6341b39060640160206040518083038186803b158015610dbf57600080fd5b505af4158015610dd3573d6000803e3d6000fd5b505050506040513d601f19601f82011682018060405250810190610df791906140cf565b9550600086118015610e125750816001600160701b03168611155b610e2e5760405162461bcd60e51b815260040161094290614116565b610e5889610e45836001600160701b0387166140fe565b610d02896001600160701b03871661415d565b866001600160a01b0316336001600160a01b03167f236c64fd115dc00cafeeaf44b6ca2af23a66ba0e282852756756b073c55150758b846000808c604051610ea4959493929190613df2565b60405180910390a3610ec06001600160a01b038a16888861304a565b505050610ecd6001600655565b5050949350505050565b6001600160a01b03166000908152600860205260409020600101546001600160701b0380821692600160701b830490911691600160e01b900463ffffffff1690565b6109e383838360405180602001604052806000815250612196565b6000818152600260205260408120546001600160a01b03168061080e5760405162461bcd60e51b8152602060048201526018602482015277115490cdcc8c4e881a5b9d985b1a59081d1bdad95b88125160421b6044820152606401610942565b600080610f9f612dfe565b600d5460405163e486033960e01b81526001600160a01b038781166004830152600092169063e48603399060240160206040518083038186803b158015610fe557600080fd5b505afa158015610ff9573d6000803e3d6000fd5b505050506040513d601f19601f8201168201806040525081019061101d9190614174565b90506001600160a01b03811661108a5760405162461bcd60e51b815260206004820152602c60248201527f5661646572506f6f6c56323a3a6275726e46756e6769626c653a20556e73757060448201526b3837b93a32b2102a37b5b2b760a11b6064820152608401610942565b61109f6001600160a01b0382163330886130ad565b604051630852cd8d60e31b8152600481018690526001600160a01b038216906342966c6890602401600060405180830381600087803b1580156110e157600080fd5b505af11580156110f5573d6000803e3d6000fd5b5050505060008061110588610ed7565b506001600160a01b038a1660009081526008602052604090208054929450909250908061113b6001600160701b0386168b614191565b61114591906141c6565b96508061115b6001600160701b0385168b614191565b61116591906141c6565b95506000871180156111775750600086115b6111e95760405162461bcd60e51b815260206004820152603860248201527f5661646572506f6f6c56323a3a6275726e46756e6769626c653a20496e73756660448201527f66696369656e74204c6971756964697479204275726e656400000000000000006064820152608401610942565b6111f3898261415d565b82556112296001600160a01b037f000000000000000000000000000000000000000000000000000000000000000016898961304a565b61123d6001600160a01b038b16898861304a565b61126e8a611254896001600160701b03881661415d565b611267896001600160701b03881661415d565b8787612e58565b60408051888152602081018890526001600160a01b038a169133917fdccd412f0b1252819cb1fd330b93224ca42612892bb3f4f789976e6d81936496910160405180910390a350505050506112c36001600655565b935093915050565b60006001600160a01b0382166113355760405162461bcd60e51b815260206004820152602960248201527f4552433732313a2061646472657373207a65726f206973206e6f7420612076616044820152683634b21037bbb732b960b91b6064820152608401610942565b506001600160a01b031660009081526003602052604090205490565b611359612ac3565b61136360006130e5565b565b61136d612ac3565b600d5460405163a7c4f0ef60e01b81526001600160a01b0383811660048301529091169063a7c4f0ef90602401600060405180830381600087803b1580156113b457600080fd5b505af11580156113c8573d6000803e3d6000fd5b5050505050565b6040516370a0823160e01b81523060048201526000906001600160a01b038316906370a082319060240160206040518083038186803b15801561141157600080fd5b505afa158015611425573d6000803e3d6000fd5b505050506040513d601f19601f8201168201806040525081019061144991906140cf565b6001600160a01b038316600090815260086020526040812060010154919250600160701b9091046001600160701b031690611484828461415d565b905061149a6001600160a01b038516338361304a565b50505050565b60006114aa612dfe565b846114b481612d7f565b6114e96001600160a01b037f0000000000000000000000000000000000000000000000000000000000000000168530886130ad565b600e54604051634f843eeb60e11b81526001600160a01b0388811660048301526000921690639f087dd69060240160206040518083038186803b15801561152f57600080fd5b505afa158015611543573d6000803e3d6000fd5b505050506040513d601f19601f820116820180604052508101906115679190614174565b90506001600160a01b0381166115f957600e5460405163cf62480d60e01b81526001600160a01b0389811660048301529091169063cf62480d90602401602060405180830381600087803b1580156115be57600080fd5b505af11580156115d2573d6000803e3d6000fd5b505050506040513d601f19601f820116820180604052508101906115f69190614174565b90505b60008061160589610ed7565b5060405163ec6341b360e01b8152600481018b90526001600160701b03808416602483015282166044820152919350915073__VaderMath_____________________________9063ec6341b39060640160206040518083038186803b15801561166d57600080fd5b505af4158015611681573d6000803e3d6000fd5b505050506040513d601f19601f820116820180604052508101906116a591906140cf565b94506116cf896116be8a6001600160701b0386166140fe565b836001600160701b03168585612e58565b6040516340c10f1960e01b81526001600160a01b038781166004830152602482018790528416906340c10f1990604401600060405180830381600087803b15801561171957600080fd5b505af115801561172d573d6000803e3d6000fd5b505050505050505061173f6001600655565b949350505050565b60606001805461082390614047565b61175e612ac3565b600e805460ff60a01b198116600160a01b9182900460ff1615918202179091556040518181527fa065e278b99c58eb9e10d9a5104cc18270dbc59636c1e29c5ecf496fb507f8219060200160405180910390a150565b60006117be612dfe565b600e54604051634f843eeb60e11b81526001600160a01b0386811660048301526000921690639f087dd69060240160206040518083038186803b15801561180457600080fd5b505afa158015611818573d6000803e3d6000fd5b505050506040513d601f19601f8201168201806040525081019061183c9190614174565b90506001600160a01b0381166118a55760405162461bcd60e51b815260206004820152602860248201527f5661646572506f6f6c56323a3a6275726e53796e74683a20496e6578697374656044820152670dce840a6f2dce8d60c31b6064820152608401610942565b6000841161190f5760405162461bcd60e51b815260206004820152603160248201527f5661646572506f6f6c56323a3a6275726e53796e74683a20496e7375666669636044820152701a595b9d0814de5b9d1a08105b5bdd5b9d607a1b6064820152608401610942565b6119246001600160a01b0382163330876130ad565b604051630852cd8d60e31b8152600481018590526001600160a01b038216906342966c6890602401600060405180830381600087803b15801561196657600080fd5b505af115801561197a573d6000803e3d6000fd5b5050505060008061198a87610ed7565b5060405163ec6341b360e01b8152600481018990526001600160701b03808316602483015283166044820152919350915073__VaderMath_____________________________9063ec6341b39060640160206040518083038186803b1580156119f257600080fd5b505af4158015611a06573d6000803e3d6000fd5b505050506040513d601f19601f82011682018060405250810190611a2a91906140cf565b9350611a43876116be866001600160701b03861661415d565b611a776001600160a01b037f000000000000000000000000000000000000000000000000000000000000000016868661304a565b505050611a846001600655565b9392505050565b611a96338383613137565b5050565b6000611aa4612dfe565b611aac612cff565b85611ab681612d7f565b600080611ac289610ed7565b509092509050611afd6001600160a01b037f00000000000000000000000000000000000000000000000000000000000000001687308b6130ad565b611b126001600160a01b038a1687308a6130ad565b6001600160a01b0389166000908152600860205260409020805480611b3957899550611be4565b604051630bd92c2560e01b8152600481018b90526001600160701b038086166024830152604482018b9052841660648201526084810182905273__VaderMath_____________________________90630bd92c259060a40160206040518083038186803b158015611ba957600080fd5b505af4158015611bbd573d6000803e3d6000fd5b505050506040513d601f19601f82011682018060405250810190611be191906140cf565b95505b60008611611c4e5760405162461bcd60e51b815260206004820152603160248201527f42617365506f6f6c56323a3a6d696e743a20496e73756666696369656e74204c6044820152701a5c5d5a591a5d1e48141c9bdd9a591959607a1b6064820152608401610942565b600a805460009182611c5f836141da565b909155509050611c6f87836140fe565b8355611c7b8882613206565b6040518060a001604052808d6001600160a01b031681526020014281526020018881526020018c81526020018b8152506009600083815260200190815260200160002060008201518160000160006101000a8154816001600160a01b0302191690836001600160a01b0316021790555060208201518160010155604082015181600201556060820151816003015560808201518160040155905050611d498c8c876001600160701b0316611d2f91906140fe565b611d428d6001600160701b0389166140fe565b8888612e58565b876001600160a01b0316896001600160a01b03167f2f00e3cdd69a77be7ed215ec7b2a36784dd158f921fca79ac29deffa353fe6ee8d8d604051611d97929190918252602082015260400190565b60405180910390a3876001600160a01b0316896001600160a01b03167facb65a3732803c06afdc052d7b3aa5deba2ce8bcc52411e86bddb916a529daf9838a604051611ded929190918252602082015260400190565b60405180910390a3505050505050611e056001600655565b95945050505050565b6000611e18612dfe565b600d5460405163e486033960e01b81526001600160a01b038881166004830152600092169063e48603399060240160206040518083038186803b158015611e5e57600080fd5b505afa158015611e72573d6000803e3d6000fd5b505050506040513d601f19601f82011682018060405250810190611e969190614174565b90506001600160a01b038116611f035760405162461bcd60e51b815260206004820152602c60248201527f5661646572506f6f6c56323a3a6d696e7446756e6769626c653a20556e73757060448201526b3837b93a32b2102a37b5b2b760a11b6064820152608401610942565b600080611f0f89610ed7565b509092509050611f4a6001600160a01b037f00000000000000000000000000000000000000000000000000000000000000001687308b6130ad565b611f5f6001600160a01b038a1687308a6130ad565b6001600160a01b0389166000908152600860205260409020805480611f8657899550612031565b604051630bd92c2560e01b8152600481018b90526001600160701b038086166024830152604482018b9052841660648201526084810182905273__VaderMath_____________________________90630bd92c259060a40160206040518083038186803b158015611ff657600080fd5b505af415801561200a573d6000803e3d6000fd5b505050506040513d601f19601f8201168201806040525081019061202e91906140cf565b95505b600086116120a75760405162461bcd60e51b815260206004820152603a60248201527f5661646572506f6f6c56323a3a6d696e7446756e6769626c653a20496e73756660448201527f66696369656e74204c69717569646974792050726f76696465640000000000006064820152608401610942565b6120b186826140fe565b82556120dd8b6120ca8c6001600160701b0388166140fe565b6112678c6001600160701b0388166140fe565b6040516340c10f1960e01b81526001600160a01b038881166004830152602482018890528616906340c10f1990604401600060405180830381600087803b15801561212757600080fd5b505af115801561213b573d6000803e3d6000fd5b5050604080518d8152602081018d90526001600160a01b03808c1694508c1692507f2f00e3cdd69a77be7ed215ec7b2a36784dd158f921fca79ac29deffa353fe6ee910160405180910390a35050505050611e056001600655565b6121a03383612b1d565b6121bc5760405162461bcd60e51b815260040161094290614082565b61149a84848484613391565b6121d0612ac3565b600d546001600160a01b03161561223e5760405162461bcd60e51b815260206004820152602c60248201527f5661646572506f6f6c56323a3a696e697469616c697a653a20416c726561647960448201526b081a5b9a5d1a585b1a5e995960a21b6064820152608401610942565b6001600160a01b0383166122b15760405162461bcd60e51b815260206004820152603460248201527f5661646572506f6f6c56323a3a696e697469616c697a653a20496e636f72726560448201527318dd0815dc985c1c195c8814dc1958da599a595960621b6064820152608401610942565b6001600160a01b03821661232d5760405162461bcd60e51b815260206004820152603960248201527f5661646572506f6f6c56323a3a696e697469616c697a653a20496e636f72726560448201527f63742053796e7468466163746f727920537065636966696564000000000000006064820152608401610942565b6001600160a01b03811661239f5760405162461bcd60e51b815260206004820152603360248201527f5661646572506f6f6c56323a3a696e697469616c697a653a20496e636f72726560448201527218dd08149bdd5d195c8814dc1958da599a5959606a1b6064820152608401610942565b600d80546001600160a01b039485166001600160a01b031991821617909155600e805493851693821693909317909255600b8054919093169116179055565b60606123e9826129f6565b600061240060408051602081019091526000815290565b905060008151116124205760405180602001604052806000815250611a84565b8061242a846133c4565b60405160200161243b9291906141f5565b6040516020818303038152906040529392505050565b612459612ac3565b6001600160a01b0381166124be5760405162461bcd60e51b815260206004820152602660248201527f4f776e61626c653a206e6577206f776e657220697320746865207a65726f206160448201526564647265737360d01b6064820152608401610942565b6124c7816130e5565b50565b60006124d4612cff565b846124de81612d7f565b6124e6612dfe565b6000851180156124f4575083155b806125085750841580156125085750600084115b61256d5760405162461bcd60e51b815260206004820152603060248201527f42617365506f6f6c56323a3a737761703a204f6e6c79204f6e652d536964656460448201526f0814ddd85c1cc814dd5c1c1bdc9d195960821b6064820152608401610942565b60008061257988610ed7565b5090925090506000807f00000000000000000000000000000000000000000000000000000000000000006001600160a01b03888116908216148015906125d157508a6001600160a01b0316886001600160a01b031614155b6126285760405162461bcd60e51b815260206004820152602260248201527f42617365506f6f6c56323a3a737761703a20496e76616c69642052656365697660448201526132b960f11b6064820152608401610942565b88156127185760405163ec6341b360e01b8152600481018a90526001600160701b0380861660248301528616604482015273__VaderMath_____________________________9063ec6341b39060640160206040518083038186803b15801561269057600080fd5b505af41580156126a4573d6000803e3d6000fd5b505050506040513d601f19601f820116820180604052508101906126c891906140cf565b92506000831180156126e35750846001600160701b03168311155b6126ff5760405162461bcd60e51b815260040161094290614224565b6127136001600160a01b038216898561304a565b6127fd565b60405163ec6341b360e01b8152600481018b90526001600160701b0380871660248301528516604482015273__VaderMath_____________________________9063ec6341b39060640160206040518083038186803b15801561277a57600080fd5b505af415801561278e573d6000803e3d6000fd5b505050506040513d601f19601f820116820180604052508101906127b291906140cf565b91506000821180156127cd5750836001600160701b03168211155b6127e95760405162461bcd60e51b815260040161094290614224565b6127fd6001600160a01b038c16898461304a565b5061283e8a8a612816856001600160701b03891661415d565b61282091906140fe565b8a612834856001600160701b03891661415d565b61126791906140fe565b866001600160a01b0316336001600160a01b03167f236c64fd115dc00cafeeaf44b6ca2af23a66ba0e282852756756b073c55150758c8c8c8787604051612889959493929190613df2565b60405180910390a36000821161289f57806128a1565b815b9550505050506128b16001600655565b50949350505050565b60008060006128c7612cff565b6128d18585613461565b6000878152600960205260408082206001810180546003830180546004808601805487546001600160a01b031916885595899055600287018990559288905591879055945163bfc40edd60e01b815290810185905260248101839052604481018890526064810187905296995094975090949192909173__VaderMath_____________________________9063bfc40edd9060840160206040518083038186803b15801561297e57600080fd5b505af4158015612992573d6000803e3d6000fd5b505050506040513d601f19601f820116820180604052508101906129b691906140cf565b90506301e133806129d46129ca864261415d565b6301e133806136c8565b6129de9083614191565b6129e891906141c6565b955050505050509250925092565b6000818152600260205260409020546001600160a01b03166124c75760405162461bcd60e51b8152602060048201526018602482015277115490cdcc8c4e881a5b9d985b1a59081d1bdad95b88125160421b6044820152606401610942565b600081815260046020526040902080546001600160a01b0319166001600160a01b0384169081179091558190612a8a82610f34565b6001600160a01b03167f8c5be1e5ebec7d5bd14f71427d1e84f3dd0314c0f7b2291e5b200ac8c7c3b92560405160405180910390a45050565b600c546001600160a01b031633146113635760405162461bcd60e51b815260206004820181905260248201527f4f776e61626c653a2063616c6c6572206973206e6f7420746865206f776e65726044820152606401610942565b600080612b2983610f34565b9050806001600160a01b0316846001600160a01b03161480612b7057506001600160a01b0380821660009081526005602090815260408083209388168352929052205460ff165b8061173f5750836001600160a01b0316612b89846108a6565b6001600160a01b031614949350505050565b826001600160a01b0316612bae82610f34565b6001600160a01b031614612bd45760405162461bcd60e51b815260040161094290614265565b6001600160a01b038216612c365760405162461bcd60e51b8152602060048201526024808201527f4552433732313a207472616e7366657220746f20746865207a65726f206164646044820152637265737360e01b6064820152608401610942565b826001600160a01b0316612c4982610f34565b6001600160a01b031614612c6f5760405162461bcd60e51b815260040161094290614265565b600081815260046020908152604080832080546001600160a01b03199081169091556001600160a01b0387811680865260038552838620805460001901905590871680865283862080546001019055868652600290945282852080549092168417909155905184937fddf252ad1be2c89b69c2b068fc378daa952ba7f163c4a11628f55a4df523b3ef91a4505050565b600b546001600160a01b031633146113635760405162461bcd60e51b815260206004820152603760248201527f42617365506f6f6c56323a3a5f6f6e6c79526f757465723a204f6e6c7920526f60448201527f7574657220697320616c6c6f77656420746f2063616c6c0000000000000000006064820152608401610942565b6001600160a01b03811660009081526007602052604090205460ff166124c75760405162461bcd60e51b815260206004820152602e60248201527f42617365506f6f6c56323a3a5f737570706f72746564546f6b656e3a20556e7360448201526d3ab83837b93a32b2102a37b5b2b760911b6064820152608401610942565b60026006541415612e515760405162461bcd60e51b815260206004820152601f60248201527f5265656e7472616e637947756172643a207265656e7472616e742063616c6c006044820152606401610942565b6002600655565b6001600160701b038411801590612e7657506001600160701b038311155b612ed05760405162461bcd60e51b815260206004820152602560248201527f42617365506f6f6c56323a3a5f7570646174653a2042616c616e6365204f766560448201526472666c6f7760d81b6064820152608401610942565b6000612ee1640100000000426142aa565b6001600160a01b038716600090815260086020526040902060018101549192509063ffffffff600160e01b9091048116830390811615801590612f2c57506001600160701b03851615155b8015612f4057506001600160701b03841615155b15612faf578063ffffffff16612f6886612f59876136de565b6001600160e01b0316906136f7565b6002840180546001600160e01b03929092169290920201905563ffffffff8116612f9585612f59886136de565b6003840180546001600160e01b0392909216929092020190555b506001810180546001600160701b038881166001600160e01b031990921691909117600160701b91881691909102176001600160e01b0316600160e01b63ffffffff851602179055604080516001600160a01b0389168152602081018890529081018690527ff10fc780c78f994a214c79a2ae8d8b7bfe7cc3f0f935a8f05a29525e71d7f1279060600160405180910390a150505050505050565b6040516001600160a01b0383166024820152604481018290526109e390849063a9059cbb60e01b906064015b60408051601f198184030181529190526020810180516001600160e01b03166001600160e01b03199093169290921790915261370c565b6040516001600160a01b038085166024830152831660448201526064810182905261149a9085906323b872dd60e01b90608401613076565b600c80546001600160a01b038381166001600160a01b0319831681179093556040519116919082907f8be0079c531659141344cd1fd0a4f28419497f9722a3daafe3b4186f6b6457e090600090a35050565b816001600160a01b0316836001600160a01b031614156131995760405162461bcd60e51b815260206004820152601960248201527f4552433732313a20617070726f766520746f2063616c6c6572000000000000006044820152606401610942565b6001600160a01b03838116600081815260056020908152604080832094871680845294825291829020805460ff191686151590811790915591519182527f17307eab39ab6107e8899845ad3d59bd9653f200f220920489ca2b5937696c31910160405180910390a3505050565b6001600160a01b03821661325c5760405162461bcd60e51b815260206004820181905260248201527f4552433732313a206d696e7420746f20746865207a65726f20616464726573736044820152606401610942565b6000818152600260205260409020546001600160a01b0316156132c15760405162461bcd60e51b815260206004820152601c60248201527f4552433732313a20746f6b656e20616c7265616479206d696e746564000000006044820152606401610942565b6000818152600260205260409020546001600160a01b0316156133265760405162461bcd60e51b815260206004820152601c60248201527f4552433732313a20746f6b656e20616c7265616479206d696e746564000000006044820152606401610942565b6001600160a01b038216600081815260036020908152604080832080546001019055848352600290915280822080546001600160a01b0319168417905551839291907fddf252ad1be2c89b69c2b068fc378daa952ba7f163c4a11628f55a4df523b3ef908290a45050565b61339c848484612b9b565b6133a8848484846137e1565b61149a5760405162461bcd60e51b8152600401610942906142be565b606060006133d1836138eb565b600101905060008167ffffffffffffffff8111156133f1576133f1613e7f565b6040519080825280601f01601f19166020018201604052801561341b576020820181803683370190505b5090508181016020015b600019016f181899199a1a9b1b9c1cb0b131b232b360811b600a86061a8153600a850494508461345457613459565b613425565b509392505050565b60008061346c612dfe565b3061347685610f34565b6001600160a01b0316146134da5760405162461bcd60e51b815260206004820152602560248201527f42617365506f6f6c56323a3a6275726e3a20496e636f7272656374204f776e65604482015264072736869760dc1b6064820152608401610942565b6000848152600960205260408120546001600160a01b031690806134fd83610ed7565b506000898152600960209081526040808320600201546001600160a01b03891684526008909252909120805493955091935091806135446001600160701b03871685614191565b61354e91906141c6565b9750806135646001600160701b03861685614191565b61356e91906141c6565b96506000881180156135805750600087115b6135e45760405162461bcd60e51b815260206004820152602f60248201527f42617365506f6f6c56323a3a6275726e3a20496e73756666696369656e74204c60448201526e1a5c5d5a591a5d1e48109d5c9b9959608a1b6064820152608401610942565b6135ee838261415d565b82556135f98a6139c3565b61362d6001600160a01b037f0000000000000000000000000000000000000000000000000000000000000000168a8a61304a565b6136416001600160a01b0387168a8961304a565b61366b866136588a6001600160701b03891661415d565b611d428a6001600160701b03891661415d565b60408051898152602081018990526001600160a01b038b169133917fdccd412f0b1252819cb1fd330b93224ca42612892bb3f4f789976e6d81936496910160405180910390a35050505050506136c16001600655565b9250929050565b60008183106136d75781611a84565b5090919050565b600061080e600160701b6001600160701b038416614310565b6000611a846001600160701b0383168461433f565b6000613761826040518060400160405280602081526020017f5361666545524332303a206c6f772d6c6576656c2063616c6c206661696c6564815250856001600160a01b0316613a589092919063ffffffff16565b90508051600014806137825750808060200190518101906137829190614365565b6109e35760405162461bcd60e51b815260206004820152602a60248201527f5361666545524332303a204552433230206f7065726174696f6e20646964206e6044820152691bdd081cdd58d8d9595960b21b6064820152608401610942565b60006001600160a01b0384163b156138e357604051630a85bd0160e11b81526001600160a01b0385169063150b7a0290613825903390899088908890600401614382565b602060405180830381600087803b15801561383f57600080fd5b505af192505050801561386f575060408051601f3d908101601f1916820190925261386c918101906143bf565b60015b6138c9573d80801561389d576040519150601f19603f3d011682016040523d82523d6000602084013e6138a2565b606091505b5080516138c15760405162461bcd60e51b8152600401610942906142be565b805181602001fd5b6001600160e01b031916630a85bd0160e11b14905061173f565b50600161173f565b60008072184f03e93ff9f4daa797ed6e38ed64bf6a1f0160401b831061392a5772184f03e93ff9f4daa797ed6e38ed64bf6a1f0160401b830492506040015b6d04ee2d6d415b85acef81000000008310613956576d04ee2d6d415b85acef8100000000830492506020015b662386f26fc10000831061397457662386f26fc10000830492506010015b6305f5e100831061398c576305f5e100830492506008015b61271083106139a057612710830492506004015b606483106139b2576064830492506002015b600a831061080e5760010192915050565b60006139ce82610f34565b90506139d982610f34565b600083815260046020908152604080832080546001600160a01b03199081169091556001600160a01b0385168085526003845282852080546000190190558785526002909352818420805490911690555192935084927fddf252ad1be2c89b69c2b068fc378daa952ba7f163c4a11628f55a4df523b3ef908390a45050565b606061173f848460008585600080866001600160a01b03168587604051613a7f91906143dc565b60006040518083038185875af1925050503d8060008114613abc576040519150601f19603f3d011682016040523d82523d6000602084013e613ac1565b606091505b5091509150613ad287838387613add565b979650505050505050565b60608315613b49578251613b42576001600160a01b0385163b613b425760405162461bcd60e51b815260206004820152601d60248201527f416464726573733a2063616c6c20746f206e6f6e2d636f6e74726163740000006044820152606401610942565b508161173f565b61173f8383815115613b5e5781518083602001fd5b8060405162461bcd60e51b81526004016109429190613c03565b6001600160e01b0319811681146124c757600080fd5b600060208284031215613ba057600080fd5b8135611a8481613b78565b60005b83811015613bc6578181015183820152602001613bae565b8381111561149a5750506000910152565b60008151808452613bef816020860160208601613bab565b601f01601f19169290920160200192915050565b602081526000611a846020830184613bd7565b600060208284031215613c2857600080fd5b5035919050565b6001600160a01b03811681146124c757600080fd5b60008060408385031215613c5757600080fd5b8235613c6281613c2f565b946020939093013593505050565b80151581146124c757600080fd5b60008060408385031215613c9157600080fd5b8235613c9c81613c2f565b91506020830135613cac81613c70565b809150509250929050565b600080600060608486031215613ccc57600080fd5b8335613cd781613c2f565b92506020840135613ce781613c2f565b929592945050506040919091013590565b60008060008060808587031215613d0e57600080fd5b8435613d1981613c2f565b93506020850135613d2981613c2f565b9250604085013591506060850135613d4081613c2f565b939692955090935050565b600060208284031215613d5d57600080fd5b8135611a8481613c2f565b600080600060608486031215613d7d57600080fd5b8335613d8881613c2f565b9250602084013591506040840135613d9f81613c2f565b809150509250925092565b60008060008060808587031215613dc057600080fd5b8435613dcb81613c2f565b9350602085013592506040850135613de281613c2f565b91506060850135613d4081613c2f565b6001600160a01b03959095168552602085019390935260408401919091526060830152608082015260a00190565b600080600080600060a08688031215613e3857600080fd5b8535613e4381613c2f565b945060208601359350604086013592506060860135613e6181613c2f565b91506080860135613e7181613c2f565b809150509295509295909350565b634e487b7160e01b600052604160045260246000fd5b60008060008060808587031215613eab57600080fd5b8435613eb681613c2f565b93506020850135613ec681613c2f565b925060408501359150606085013567ffffffffffffffff80821115613eea57600080fd5b818701915087601f830112613efe57600080fd5b813581811115613f1057613f10613e7f565b604051601f8201601f19908116603f01168101908382118183101715613f3857613f38613e7f565b816040528281528a6020848701011115613f5157600080fd5b82602086016020830137600060208483010152809550505050505092959194509250565b600080600060608486031215613f8a57600080fd5b8335613f9581613c2f565b92506020840135613fa581613c2f565b91506040840135613d9f81613c2f565b60008060408385031215613fc857600080fd5b8235613fd381613c2f565b91506020830135613cac81613c2f565b60008060008060808587031215613ff957600080fd5b843561400481613c2f565b935060208501359250604085013591506060850135613d4081613c2f565b6000806040838503121561403557600080fd5b823591506020830135613cac81613c2f565b600181811c9082168061405b57607f821691505b6020821081141561407c57634e487b7160e01b600052602260045260246000fd5b50919050565b6020808252602d908201527f4552433732313a2063616c6c6572206973206e6f7420746f6b656e206f776e6560408201526c1c881bdc88185c1c1c9bdd9959609a1b606082015260800190565b6000602082840312156140e157600080fd5b5051919050565b634e487b7160e01b600052601160045260246000fd5b60008219821115614111576141116140e8565b500190565b60208082526027908201527f42617365506f6f6c56323a3a646f75626c65537761703a205377617020496d706040820152666f737369626c6560c81b606082015260800190565b60008282101561416f5761416f6140e8565b500390565b60006020828403121561418657600080fd5b8151611a8481613c2f565b60008160001904831182151516156141ab576141ab6140e8565b500290565b634e487b7160e01b600052601260045260246000fd5b6000826141d5576141d56141b0565b500490565b60006000198214156141ee576141ee6140e8565b5060010190565b60008351614207818460208801613bab565b83519083019061421b818360208801613bab565b01949350505050565b60208082526021908201527f42617365506f6f6c56323a3a737761703a205377617020496d706f737369626c6040820152606560f81b606082015260800190565b60208082526025908201527f4552433732313a207472616e736665722066726f6d20696e636f72726563742060408201526437bbb732b960d91b606082015260800190565b6000826142b9576142b96141b0565b500690565b60208082526032908201527f4552433732313a207472616e7366657220746f206e6f6e20455243373231526560408201527131b2b4bb32b91034b6b83632b6b2b73a32b960711b606082015260800190565b60006001600160e01b0382811684821681151582840482111615614336576143366140e8565b02949350505050565b60006001600160e01b0383811680614359576143596141b0565b92169190910492915050565b60006020828403121561437757600080fd5b8151611a8481613c70565b6001600160a01b03858116825284166020820152604081018390526080606082018190526000906143b590830184613bd7565b9695505050505050565b6000602082840312156143d157600080fd5b8151611a8481613b78565b600082516143ee818460208701613bab565b919091019291505056fea2646970667358221220cdaea663ae6d4d7284da6e7d933cb07b38fbcf837b291ddb70fb382c5fed916564736f6c63430008090033",
  "immutableReferences": {
    "8411": [
      {
        "length": 32,
        "start": 1142
      },
      {
        "length": 32,
        "start": 4610
      },
      {
        "length": 32,
        "start": 5313
      },
      {
        "length": 32,
        "start": 6736
      },
      {
        "length": 32,
        "start": 6869
      },
      {
        "length": 32,
        "start": 7970
      },
      {
        "length": 32,
        "start": 9604
      },
      {
        "length": 32,
        "start": 13830
      }
    ]
  },
  "source": "// SPDX-License-Identifier: Unlicense\r\n\r\npragma solidity =0.8.9;\r\n\r\nimport \"@openzeppelin/contracts/access/Ownable.sol\";\r\n\r\nimport \"./BasePoolV2.sol\";\r\n\r\nimport \"../../interfaces/shared/IERC20Extended.sol\";\r\nimport \"../../interfaces/dex-v2/pool/IVaderPoolV2.sol\";\r\nimport \"../../interfaces/dex-v2/wrapper/ILPWrapper.sol\";\r\nimport \"../../interfaces/dex-v2/synth/ISynthFactory.sol\";\r\n\r\n/*\r\n * @dev Implementation of {VaderPoolV2} contract.\r\n *\r\n * The contract VaderPool inherits from {BasePoolV2} contract and implements\r\n * queue system.\r\n *\r\n * Extends on the liquidity redeeming function by introducing the `burn` function\r\n * that internally calls the namesake on `BasePoolV2` contract and computes the\r\n * loss covered by the position being redeemed and returns it along with amounts\r\n * of native and foreign assets sent.\r\n **/\r\ncontract VaderPoolV2 is IVaderPoolV2, BasePoolV2, Ownable {\r\n    /* ========== LIBRARIES ========== */\r\n\r\n    // Used for safe token transfers\r\n    using SafeERC20 for IERC20;\r\n\r\n    /* ========== STATE VARIABLES ========== */\r\n\r\n    // The LP wrapper contract\r\n    ILPWrapper public wrapper;\r\n\r\n    // The Synth Factory\r\n    ISynthFactory public synthFactory;\r\n\r\n    // Denotes whether the queue system is active\r\n    bool public queueActive;\r\n\r\n    /* ========== CONSTRUCTOR ========== */\r\n\r\n    /*\r\n     * @dev Initialised the contract state by passing the native asset's address\r\n     * to the inherited {BasePoolV2} contract's constructor and setting queue status\r\n     * to the {queueActive} state variable.\r\n     **/\r\n    constructor(bool _queueActive, IERC20 _nativeAsset)\r\n        BasePoolV2(_nativeAsset)\r\n    {\r\n        queueActive = _queueActive;\r\n    }\r\n\r\n    /* ========== VIEWS ========== */\r\n\r\n    /*\r\n     * @dev Returns cumulative prices and the timestamp the were last updated\r\n     * for both native and foreign assets against the pair specified by\r\n     * parameter {foreignAsset}.\r\n     **/\r\n    function cumulativePrices(IERC20 foreignAsset)\r\n        public\r\n        view\r\n        returns (\r\n            uint256 price0CumulativeLast,\r\n            uint256 price1CumulativeLast,\r\n            uint32 blockTimestampLast\r\n        )\r\n    {\r\n        PriceCumulative memory priceCumulative = pairInfo[foreignAsset]\r\n            .priceCumulative;\r\n        price0CumulativeLast = priceCumulative.nativeLast;\r\n        price1CumulativeLast = priceCumulative.foreignLast;\r\n        blockTimestampLast = pairInfo[foreignAsset].blockTimestampLast;\r\n    }\r\n\r\n    /* ========== MUTATIVE FUNCTIONS ========== */\r\n\r\n    /*\r\n     * @dev Initializes contract's state with LP wrapper, synth factory\r\n     * and router addresses.\r\n     *\r\n     * Requirements:\r\n     * - None of the parameters are zero addresses.\r\n     * - The parameters are not already set.\r\n     * - Only callable by contract owner.\r\n     **/\r\n    function initialize(\r\n        ILPWrapper _wrapper,\r\n        ISynthFactory _synthFactory,\r\n        address _router\r\n    ) external onlyOwner {\r\n        require(\r\n            wrapper == ILPWrapper(_ZERO_ADDRESS),\r\n            \"VaderPoolV2::initialize: Already initialized\"\r\n        );\r\n        require(\r\n            _wrapper != ILPWrapper(_ZERO_ADDRESS),\r\n            \"VaderPoolV2::initialize: Incorrect Wrapper Specified\"\r\n        );\r\n        require(\r\n            _synthFactory != ISynthFactory(_ZERO_ADDRESS),\r\n            \"VaderPoolV2::initialize: Incorrect SynthFactory Specified\"\r\n        );\r\n        require(\r\n            _router != _ZERO_ADDRESS,\r\n            \"VaderPoolV2::initialize: Incorrect Router Specified\"\r\n        );\r\n        wrapper = _wrapper;\r\n        synthFactory = _synthFactory;\r\n        router = _router;\r\n    }\r\n\r\n    /*\r\n     * @dev Allows minting of synthetic assets corresponding to the {foreignAsset} based\r\n     * on the native asset amount deposited and returns the minted synth asset amount.\r\n     *\r\n     * Creates the synthetic asset against {foreignAsset} if it does not already exist.\r\n     *\r\n     * Updates the cumulative prices for native and foreign assets.\r\n     *\r\n     * Requirements:\r\n     * - {foreignAsset} must be a supported token.\r\n     **/\r\n    function mintSynth(\r\n        IERC20 foreignAsset,\r\n        uint256 nativeDeposit,\r\n        address from,\r\n        address to\r\n    )\r\n        external\r\n        override\r\n        nonReentrant\r\n        supportedToken(foreignAsset)\r\n        returns (uint256 amountSynth)\r\n    {\r\n        nativeAsset.safeTransferFrom(from, address(this), nativeDeposit);\r\n\r\n        ISynth synth = synthFactory.synths(foreignAsset);\r\n\r\n        if (synth == ISynth(_ZERO_ADDRESS))\r\n            synth = synthFactory.createSynth(\r\n                IERC20Extended(address(foreignAsset))\r\n            );\r\n\r\n        (uint112 reserveNative, uint112 reserveForeign, ) = getReserves(\r\n            foreignAsset\r\n        ); // gas savings\r\n\r\n        amountSynth = VaderMath.calculateSwap(\r\n            nativeDeposit,\r\n            reserveNative,\r\n            reserveForeign\r\n        );\r\n\r\n        // TODO: Clarify\r\n        _update(\r\n            foreignAsset,\r\n            reserveNative + nativeDeposit,\r\n            reserveForeign,\r\n            reserveNative,\r\n            reserveForeign\r\n        );\r\n\r\n        synth.mint(to, amountSynth);\r\n    }\r\n\r\n    /*\r\n     * @dev Allows burning of synthetic assets corresponding to the {foreignAsset}\r\n     * and returns the redeemed amount of native asset.\r\n     *\r\n     * Updates the cumulative prices for native and foreign assets.\r\n     *\r\n     * Requirements:\r\n     * - {foreignAsset} must have a valid synthetic asset against it.\r\n     * - {synthAmount} must be greater than zero.\r\n     **/\r\n    function burnSynth(\r\n        IERC20 foreignAsset,\r\n        uint256 synthAmount,\r\n        address to\r\n    ) external override nonReentrant returns (uint256 amountNative) {\r\n        ISynth synth = synthFactory.synths(foreignAsset);\r\n\r\n        require(\r\n            synth != ISynth(_ZERO_ADDRESS),\r\n            \"VaderPoolV2::burnSynth: Inexistent Synth\"\r\n        );\r\n\r\n        require(\r\n            synthAmount > 0,\r\n            \"VaderPoolV2::burnSynth: Insufficient Synth Amount\"\r\n        );\r\n\r\n        IERC20(synth).safeTransferFrom(msg.sender, address(this), synthAmount);\r\n        synth.burn(synthAmount);\r\n\r\n        (uint112 reserveNative, uint112 reserveForeign, ) = getReserves(\r\n            foreignAsset\r\n        ); // gas savings\r\n\r\n        amountNative = VaderMath.calculateSwap(\r\n            synthAmount,\r\n            reserveForeign,\r\n            reserveNative\r\n        );\r\n\r\n        // TODO: Clarify\r\n        _update(\r\n            foreignAsset,\r\n            reserveNative - amountNative,\r\n            reserveForeign,\r\n            reserveNative,\r\n            reserveForeign\r\n        );\r\n\r\n        nativeAsset.safeTransfer(to, amountNative);\r\n    }\r\n\r\n    /*\r\n     * @dev Allows burning of NFT represented by param {id} for liquidity redeeming.\r\n     *\r\n     * Deletes the position in {positions} mapping against the burned NFT token.\r\n     *\r\n     * Internally calls `_burn` function on {BasePoolV2} contract.\r\n     *\r\n     * Calculates the impermanent loss incurred by the position.\r\n     *\r\n     * Returns the amounts for native and foreign assets sent to the {to} address\r\n     * along with the covered loss.\r\n     *\r\n     * Requirements:\r\n     * - Can only be called by the Router.\r\n     **/\r\n    // NOTE: IL is only covered via router!\r\n    function burn(uint256 id, address to)\r\n        external\r\n        override\r\n        onlyRouter\r\n        returns (\r\n            uint256 amountNative,\r\n            uint256 amountForeign,\r\n            uint256 coveredLoss\r\n        )\r\n    {\r\n        (amountNative, amountForeign) = _burn(id, to);\r\n\r\n        Position storage position = positions[id];\r\n\r\n        uint256 creation = position.creation;\r\n        uint256 originalNative = position.originalNative;\r\n        uint256 originalForeign = position.originalForeign;\r\n\r\n        delete positions[id];\r\n\r\n        // NOTE: Validate it behaves as expected for non-18 decimal tokens\r\n        uint256 loss = VaderMath.calculateLoss(\r\n            originalNative,\r\n            originalForeign,\r\n            amountNative,\r\n            amountForeign\r\n        );\r\n\r\n        // TODO: Original Implementation Applied 100 Days\r\n        coveredLoss =\r\n            (loss * _min(block.timestamp - creation, _ONE_YEAR)) /\r\n            _ONE_YEAR;\r\n    }\r\n\r\n    /*\r\n     * @dev Allows minting of liquidity in fungible tokens. The fungible token\r\n     * is a wrapped LP token against a particular pair. The liquidity issued is also\r\n     * tracked within this contract along with liquidity issued against non-fungible\r\n     * token.\r\n     *\r\n     * Updates the cumulative prices for native and foreign assets.\r\n     *\r\n     * Calls 'mint' on the LP wrapper token contract.\r\n     *\r\n     * Requirements:\r\n     * - LP wrapper token must exist against {foreignAsset}.\r\n     **/\r\n    function mintFungible(\r\n        IERC20 foreignAsset,\r\n        uint256 nativeDeposit,\r\n        uint256 foreignDeposit,\r\n        address from,\r\n        address to\r\n    ) external override nonReentrant returns (uint256 liquidity) {\r\n        IERC20Extended lp = wrapper.tokens(foreignAsset);\r\n\r\n        require(\r\n            lp != IERC20Extended(_ZERO_ADDRESS),\r\n            \"VaderPoolV2::mintFungible: Unsupported Token\"\r\n        );\r\n\r\n        (uint112 reserveNative, uint112 reserveForeign, ) = getReserves(\r\n            foreignAsset\r\n        ); // gas savings\r\n\r\n        nativeAsset.safeTransferFrom(from, address(this), nativeDeposit);\r\n        foreignAsset.safeTransferFrom(from, address(this), foreignDeposit);\r\n\r\n        PairInfo storage pair = pairInfo[foreignAsset];\r\n        uint256 totalLiquidityUnits = pair.totalSupply;\r\n        if (totalLiquidityUnits == 0) liquidity = nativeDeposit;\r\n        else\r\n            liquidity = VaderMath.calculateLiquidityUnits(\r\n                nativeDeposit,\r\n                reserveNative,\r\n                foreignDeposit,\r\n                reserveForeign,\r\n                totalLiquidityUnits\r\n            );\r\n\r\n        require(\r\n            liquidity > 0,\r\n            \"VaderPoolV2::mintFungible: Insufficient Liquidity Provided\"\r\n        );\r\n\r\n        pair.totalSupply = totalLiquidityUnits + liquidity;\r\n\r\n        _update(\r\n            foreignAsset,\r\n            reserveNative + nativeDeposit,\r\n            reserveForeign + foreignDeposit,\r\n            reserveNative,\r\n            reserveForeign\r\n        );\r\n\r\n        lp.mint(to, liquidity);\r\n\r\n        emit Mint(from, to, nativeDeposit, foreignDeposit);\r\n    }\r\n\r\n    /*\r\n     * @dev Allows burning of liquidity issued in fungible tokens.\r\n     *\r\n     * Updates the cumulative prices for native and foreign assets.\r\n     *\r\n     * Calls 'burn' on the LP wrapper token contract.\r\n     *\r\n     * Requirements:\r\n     * - LP wrapper token must exist against {foreignAsset}.\r\n     * - {amountNative} and {amountForeign} redeemed, both must be greater than zero.,\r\n     **/\r\n    function burnFungible(\r\n        IERC20 foreignAsset,\r\n        uint256 liquidity,\r\n        address to\r\n    )\r\n        external\r\n        override\r\n        nonReentrant\r\n        returns (uint256 amountNative, uint256 amountForeign)\r\n    {\r\n        IERC20Extended lp = wrapper.tokens(foreignAsset);\r\n\r\n        require(\r\n            lp != IERC20Extended(_ZERO_ADDRESS),\r\n            \"VaderPoolV2::burnFungible: Unsupported Token\"\r\n        );\r\n\r\n        IERC20(lp).safeTransferFrom(msg.sender, address(this), liquidity);\r\n        lp.burn(liquidity);\r\n\r\n        (uint112 reserveNative, uint112 reserveForeign, ) = getReserves(\r\n            foreignAsset\r\n        ); // gas savings\r\n\r\n        PairInfo storage pair = pairInfo[foreignAsset];\r\n        uint256 _totalSupply = pair.totalSupply;\r\n        amountNative = (liquidity * reserveNative) / _totalSupply;\r\n        amountForeign = (liquidity * reserveForeign) / _totalSupply;\r\n\r\n        require(\r\n            amountNative > 0 && amountForeign > 0,\r\n            \"VaderPoolV2::burnFungible: Insufficient Liquidity Burned\"\r\n        );\r\n\r\n        pair.totalSupply = _totalSupply - liquidity;\r\n\r\n        nativeAsset.safeTransfer(to, amountNative);\r\n        foreignAsset.safeTransfer(to, amountForeign);\r\n\r\n        _update(\r\n            foreignAsset,\r\n            reserveNative - amountNative,\r\n            reserveForeign - amountForeign,\r\n            reserveNative,\r\n            reserveForeign\r\n        );\r\n\r\n        emit Burn(msg.sender, amountNative, amountForeign, to);\r\n    }\r\n\r\n    /* ========== RESTRICTED FUNCTIONS ========== */\r\n\r\n    // TODO: Investigate Necessity\r\n    function toggleQueue() external override onlyOwner {\r\n        bool _queueActive = !queueActive;\r\n        queueActive = _queueActive;\r\n        emit QueueActive(_queueActive);\r\n    }\r\n\r\n    /*\r\n     * @dev Sets the supported state of the token represented by param {foreignAsset}.\r\n     *\r\n     * Requirements:\r\n     * - The param {foreignAsset} is not already a supported token.\r\n     **/\r\n    function setTokenSupport(IERC20 foreignAsset, bool support)\r\n        external\r\n        override\r\n        onlyOwner\r\n    {\r\n        require(\r\n            supported[foreignAsset] != support,\r\n            \"VaderPoolV2::supportToken: Already At Desired State\"\r\n        );\r\n        supported[foreignAsset] = support;\r\n    }\r\n\r\n    /*\r\n     * @dev Sets the supported state of the token represented by param {foreignAsset}.\r\n     *\r\n     * Requirements:\r\n     * - The param {foreignAsset} is not already a supported token.\r\n     **/\r\n    function setFungibleTokenSupport(IERC20 foreignAsset)\r\n        external\r\n        override\r\n        onlyOwner\r\n    {\r\n        wrapper.createWrapper(foreignAsset);\r\n    }\r\n\r\n    /* ========== INTERNAL FUNCTIONS ========== */\r\n\r\n    /* ========== PRIVATE FUNCTIONS ========== */\r\n\r\n    /**\r\n     * @dev Calculates the minimum of the two values\r\n     */\r\n    function _min(uint256 a, uint256 b) private pure returns (uint256) {\r\n        return a < b ? a : b;\r\n    }\r\n}\r\n",
  "sourcePath": "/home/mingyue/sub_contract_content/Web3Bugs/contracts/52/contracts/dex-v2/pool/VaderPoolV2.sol",
  "compiler": {
    "name": "solc",
    "version": "0.8.9+commit.e5eed63a.Emscripten.clang"
  },
  "schemaVersion": "3.4.16",
  "updatedAt": "2025-03-06T07:23:55.023Z",
  "devdoc": {
    "kind": "dev",
    "methods": {
      "approve(address,uint256)": {
        "details": "See {IERC721-approve}."
      },
      "balanceOf(address)": {
        "details": "See {IERC721-balanceOf}."
      },
      "getApproved(uint256)": {
        "details": "See {IERC721-getApproved}."
      },
      "isApprovedForAll(address,address)": {
        "details": "See {IERC721-isApprovedForAll}."
      },
      "name()": {
        "details": "See {IERC721Metadata-name}."
      },
      "owner()": {
        "details": "Returns the address of the current owner."
      },
      "ownerOf(uint256)": {
        "details": "See {IERC721-ownerOf}."
      },
      "renounceOwnership()": {
        "details": "Leaves the contract without owner. It will not be possible to call `onlyOwner` functions. Can only be called by the current owner. NOTE: Renouncing ownership will leave the contract without an owner, thereby disabling any functionality that is only available to the owner."
      },
      "safeTransferFrom(address,address,uint256)": {
        "details": "See {IERC721-safeTransferFrom}."
      },
      "safeTransferFrom(address,address,uint256,bytes)": {
        "details": "See {IERC721-safeTransferFrom}."
      },
      "setApprovalForAll(address,bool)": {
        "details": "See {IERC721-setApprovalForAll}."
      },
      "supportsInterface(bytes4)": {
        "details": "See {IERC165-supportsInterface}."
      },
      "symbol()": {
        "details": "See {IERC721Metadata-symbol}."
      },
      "tokenURI(uint256)": {
        "details": "See {IERC721Metadata-tokenURI}."
      },
      "transferFrom(address,address,uint256)": {
        "details": "See {IERC721-transferFrom}."
      },
      "transferOwnership(address)": {
        "details": "Transfers ownership of the contract to a new account (`newOwner`). Can only be called by the current owner."
      }
    },
    "version": 1
  },
  "userdoc": {
    "kind": "user",
    "methods": {},
    "version": 1
  }
}