{
  "contractName": "VaderMath",
  "abi": [
    {
      "inputs": [],
      "name": "ONE",
      "outputs": [
        {
          "internalType": "uint256",
          "name": "",
          "type": "uint256"
        }
      ],
      "stateMutability": "view",
      "type": "function"
    },
    {
      "inputs": [
        {
          "internalType": "uint256",
          "name": "vaderDeposited",
          "type": "uint256"
        },
        {
          "internalType": "uint256",
          "name": "vaderBalance",
          "type": "uint256"
        },
        {
          "internalType": "uint256",
          "name": "assetDeposited",
          "type": "uint256"
        },
        {
          "internalType": "uint256",
          "name": "assetBalance",
          "type": "uint256"
        },
        {
          "internalType": "uint256",
          "name": "totalPoolUnits",
          "type": "uint256"
        }
      ],
      "name": "calculateLiquidityUnits",
      "outputs": [
        {
          "internalType": "uint256",
          "name": "",
          "type": "uint256"
        }
      ],
      "stateMutability": "pure",
      "type": "function"
    },
    {
      "inputs": [
        {
          "internalType": "uint256",
          "name": "vaderDeposited",
          "type": "uint256"
        },
        {
          "internalType": "uint256",
          "name": "vaderBalance",
          "type": "uint256"
        },
        {
          "internalType": "uint256",
          "name": "assetDeposited",
          "type": "uint256"
        },
        {
          "internalType": "uint256",
          "name": "assetBalance",
          "type": "uint256"
        }
      ],
      "name": "calculateSlipAdjustment",
      "outputs": [
        {
          "internalType": "uint256",
          "name": "",
          "type": "uint256"
        }
      ],
      "stateMutability": "pure",
      "type": "function"
    },
    {
      "inputs": [
        {
          "internalType": "uint256",
          "name": "originalVader",
          "type": "uint256"
        },
        {
          "internalType": "uint256",
          "name": "originalAsset",
          "type": "uint256"
        },
        {
          "internalType": "uint256",
          "name": "releasedVader",
          "type": "uint256"
        },
        {
          "internalType": "uint256",
          "name": "releasedAsset",
          "type": "uint256"
        }
      ],
      "name": "calculateLoss",
      "outputs": [
        {
          "internalType": "uint256",
          "name": "loss",
          "type": "uint256"
        }
      ],
      "stateMutability": "pure",
      "type": "function"
    },
    {
      "inputs": [
        {
          "internalType": "uint256",
          "name": "amountIn",
          "type": "uint256"
        },
        {
          "internalType": "uint256",
          "name": "reserveIn",
          "type": "uint256"
        },
        {
          "internalType": "uint256",
          "name": "reserveOut",
          "type": "uint256"
        }
      ],
      "name": "calculateSwap",
      "outputs": [
        {
          "internalType": "uint256",
          "name": "amountOut",
          "type": "uint256"
        }
      ],
      "stateMutability": "pure",
      "type": "function"
    },
    {
      "inputs": [
        {
          "internalType": "uint256",
          "name": "amountOut",
          "type": "uint256"
        },
        {
          "internalType": "uint256",
          "name": "reserveIn",
          "type": "uint256"
        },
        {
          "internalType": "uint256",
          "name": "reserveOut",
          "type": "uint256"
        }
      ],
      "name": "calculateSwapReverse",
      "outputs": [
        {
          "internalType": "uint256",
          "name": "amountIn",
          "type": "uint256"
        }
      ],
      "stateMutability": "pure",
      "type": "function"
    },
    {
      "inputs": [
        {
          "internalType": "uint256",
          "name": "a",
          "type": "uint256"
        },
        {
          "internalType": "uint256",
          "name": "b",
          "type": "uint256"
        }
      ],
      "name": "delta",
      "outputs": [
        {
          "internalType": "uint256",
          "name": "",
          "type": "uint256"
        }
      ],
      "stateMutability": "pure",
      "type": "function"
    },
    {
      "inputs": [
        {
          "internalType": "uint256",
          "name": "a",
          "type": "uint256"
        }
      ],
      "name": "pow",
      "outputs": [
        {
          "internalType": "uint256",
          "name": "",
          "type": "uint256"
        }
      ],
      "stateMutability": "pure",
      "type": "function"
    },
    {
      "inputs": [
        {
          "internalType": "uint256",
          "name": "a",
          "type": "uint256"
        }
      ],
      "name": "root",
      "outputs": [
        {
          "internalType": "uint256",
          "name": "c",
          "type": "uint256"
        }
      ],
      "stateMutability": "pure",
      "type": "function"
    }
  ],
  "bytecode": "0x61068961003a600b82828239805160001a60731461002d57634e487b7160e01b600052600060045260246000fd5b30600052607381538281f3fe730000000000000000000000000000000000000000301460806040526004361061009d5760003560e01c8063bfc40edd11610070578063bfc40edd14610100578063c2ee3a0814610113578063cc8b7b7314610122578063e56bf02714610135578063ec6341b31461014857600080fd5b80630bd92c25146100a25780631169c5d4146100c75780633ae5c69b146100da578063b48d82cd146100ed575b600080fd5b6100b56100b03660046104f9565b61015b565b60405190815260200160405180910390f35b6100b56100d5366004610534565b6101e8565b6100b56100e8366004610566565b61025a565b6100b56100fb366004610592565b6103a7565b6100b561010e366004610534565b6103b9565b6100b5670de0b6b3a764000081565b6100b56101303660046105ab565b610421565b6100b5610143366004610592565b61044a565b6100b5610156366004610566565b6104ba565b60008061016a878787876101e8565b9050600061017885896105e3565b61018287896105e3565b61018c9190610602565b9050600085886101a5670de0b6b3a764000060026105e3565b6101af91906105e3565b6101b991906105e3565b905082816101c784886105e3565b6101d1919061061a565b6101db91906105e3565b9998505050505050505050565b6000806101f584866105e3565b9050600061020387856105e3565b905060006102118587610602565b61021b888a610602565b61022591906105e3565b9050806102328484610421565b61023c919061061a565b61024e90670de0b6b3a764000061063c565b98975050505050505050565b60008061026783856105e3565b905060006102768660026105e3565b905060006102858260026105e3565b90508481106103365760405162461bcd60e51b815260206004820152606760248201527f56616465724d6174683a3a63616c63756c61746553776170526576657273653a60448201527f2044657369726564204f75747075742045786365656473204d6178696d756d2060648201527f4f757470757420506f737369626c652028312f34206f66204c697175696469746084820152667920506f6f6c2960c81b60a482015260c40160405180910390fd5b600061034f610345838861063c565b61014390896105e3565b6103588561044a565b61036291906105e3565b9050600061037088856105e3565b905084600082610380858461063c565b61038a919061063c565b905085610397818361061a565b9c9b505050505050505050505050565b60006103b382806105e3565b92915050565b60008085836103c886886105e3565b6103d2919061061a565b6103dc9190610602565b9050600084846103ec82826105e3565b6103f6919061061a565b6104009190610602565b90508082111561041757610414818361063c565b92505b5050949350505050565b600081831161043957610434838361063c565b610443565b610443828461063c565b9392505050565b600060038211156104ab575080600061046460028361061a565b61046f906001610602565b90505b818110156104a55790508060028161048a818661061a565b6104949190610602565b61049e919061061a565b9050610472565b50919050565b81156104b5575060015b919050565b600080826104c885876105e3565b6104d291906105e3565b905060006104e36100fb8688610602565b90506104ef818361061a565b9695505050505050565b600080600080600060a0868803121561051157600080fd5b505083359560208501359550604085013594606081013594506080013592509050565b6000806000806080858703121561054a57600080fd5b5050823594602084013594506040840135936060013592509050565b60008060006060848603121561057b57600080fd5b505081359360208301359350604090920135919050565b6000602082840312156105a457600080fd5b5035919050565b600080604083850312156105be57600080fd5b50508035926020909101359150565b634e487b7160e01b600052601160045260246000fd5b60008160001904831182151516156105fd576105fd6105cd565b500290565b60008219821115610615576106156105cd565b500190565b60008261063757634e487b7160e01b600052601260045260246000fd5b500490565b60008282101561064e5761064e6105cd565b50039056fea264697066735822122098ba31a1d04481e39f04d86ec2b6943d65d51f3098fbfeec8110045aed32e74164736f6c63430008090033",
  "immutableReferences": {},
  "source": "// SPDX-License-Identifier: Unlicense\r\n\r\npragma solidity =0.8.9;\r\n\r\nlibrary VaderMath {\r\n    /* ========== CONSTANTS ========== */\r\n\r\n    uint256 public constant ONE = 1 ether;\r\n\r\n    /* ========== LIBRARY FUNCTIONS ========== */\r\n\r\n    /**\r\n     * @dev Calculates the amount of liquidity units for the {vaderDeposited}\r\n     * and {assetDeposited} amounts across {totalPoolUnits}.\r\n     *\r\n     * The {vaderBalance} and {assetBalance} are taken into account in order to\r\n     * calculate any necessary slippage adjustment.\r\n     */\r\n    function calculateLiquidityUnits(\r\n        uint256 vaderDeposited,\r\n        uint256 vaderBalance,\r\n        uint256 assetDeposited,\r\n        uint256 assetBalance,\r\n        uint256 totalPoolUnits\r\n    ) public pure returns (uint256) {\r\n        // slipAdjustment\r\n        uint256 slip = calculateSlipAdjustment(\r\n            vaderDeposited,\r\n            vaderBalance,\r\n            assetDeposited,\r\n            assetBalance\r\n        );\r\n\r\n        // (Va + vA)\r\n        uint256 poolUnitFactor = (vaderBalance * assetDeposited) +\r\n            (vaderDeposited * assetBalance);\r\n\r\n        // 2VA\r\n        uint256 denominator = ONE * 2 * vaderBalance * assetBalance;\r\n\r\n        // P * [(Va + vA) / (2 * V * A)] * slipAdjustment\r\n        return ((totalPoolUnits * poolUnitFactor) / denominator) * slip;\r\n    }\r\n\r\n    /**\r\n    * @dev Calculates the necessary slippage adjustment for the {vaderDeposited} and {assetDeposited}\r\n    * amounts across the total {vaderBalance} and {assetBalance} amounts.\r\n    */\r\n    function calculateSlipAdjustment(\r\n        uint256 vaderDeposited,\r\n        uint256 vaderBalance,\r\n        uint256 assetDeposited,\r\n        uint256 assetBalance\r\n    ) public pure returns (uint256) {\r\n        // Va\r\n        uint256 vaderAsset = vaderBalance * assetDeposited;\r\n\r\n        // aV\r\n        uint256 assetVader = assetBalance * vaderDeposited;\r\n\r\n        // (v + V) * (a + A)\r\n        uint256 denominator = (vaderDeposited + vaderBalance) *\r\n            (assetDeposited + assetBalance);\r\n\r\n        // 1 - [|Va - aV| / (v + V) * (a + A)]\r\n        return ONE - (delta(vaderAsset, assetVader) / denominator);\r\n    }\r\n\r\n    /**\r\n    * @dev Calculates the loss based on the supplied {releasedVader} and {releasedAsset}\r\n    * compared to the supplied {originalVader} and {originalAsset}.\r\n    */\r\n    function calculateLoss(\r\n        uint256 originalVader,\r\n        uint256 originalAsset,\r\n        uint256 releasedVader,\r\n        uint256 releasedAsset\r\n    ) public pure returns (uint256 loss) {\r\n        //\r\n        // TODO: Vader Formula Differs https://github.com/vetherasset/vaderprotocol-contracts/blob/main/contracts/Utils.sol#L347-L356\r\n        //\r\n\r\n        // [(A0 * P1) + V0]\r\n        uint256 originalValue = ((originalAsset * releasedVader) /\r\n            releasedAsset) + originalVader;\r\n\r\n        // [(A1 * P1) + V1]\r\n        uint256 releasedValue = ((releasedAsset * releasedVader) /\r\n            releasedAsset) + releasedVader;\r\n\r\n        // [(A0 * P1) + V0] - [(A1 * P1) + V1]\r\n        if (originalValue > releasedValue) loss = originalValue - releasedValue;\r\n    }\r\n\r\n    /**\r\n    * @dev Calculates the {amountOut} of the swap based on the supplied {amountIn}\r\n    * across the supplied {reserveIn} and {reserveOut} amounts.\r\n    */\r\n    function calculateSwap(\r\n        uint256 amountIn,\r\n        uint256 reserveIn,\r\n        uint256 reserveOut\r\n    ) public pure returns (uint256 amountOut) {\r\n        // x * Y * X\r\n        uint256 numerator = amountIn * reserveIn * reserveOut;\r\n\r\n        // (x + X) ^ 2\r\n        uint256 denominator = pow(amountIn + reserveIn);\r\n\r\n        amountOut = numerator / denominator;\r\n    }\r\n\r\n    /**\r\n    * @dev Calculates the {amountIn} of the swap based on the supplied {amountOut}\r\n    * across the supplied {reserveIn} and {reserveOut} amounts.\r\n    */\r\n    function calculateSwapReverse(\r\n        uint256 amountOut,\r\n        uint256 reserveIn,\r\n        uint256 reserveOut\r\n    ) public pure returns (uint256 amountIn) {\r\n        // X * Y\r\n        uint256 XY = reserveIn * reserveOut;\r\n\r\n        // 2y\r\n        uint256 y2 = amountOut * 2;\r\n\r\n        // 4y\r\n        uint256 y4 = y2 * 2;\r\n\r\n        require(\r\n            y4 < reserveOut,\r\n            \"VaderMath::calculateSwapReverse: Desired Output Exceeds Maximum Output Possible (1/4 of Liquidity Pool)\"\r\n        );\r\n\r\n        // root(-X^2 * Y * (4y - Y))    =>    root(X^2 * Y * (Y - 4y)) as Y - 4y >= 0    =>    Y >= 4y holds true\r\n        uint256 numeratorA = root(XY) * root(reserveIn * (reserveOut - y4));\r\n\r\n        // X * (2y - Y)    =>    2yX - XY\r\n        uint256 numeratorB = y2 * reserveIn;\r\n        uint256 numeratorC = XY;\r\n\r\n        // -1 * (root(-X^2 * Y * (4y - Y)) + (X * (2y - Y)))    =>    -1 * (root(X^2 * Y * (Y - 4y)) + 2yX - XY)    =>    XY - root(X^2 * Y * (Y - 4y) - 2yX\r\n        uint256 numerator = numeratorC - numeratorA - numeratorB;\r\n\r\n        // 2y\r\n        uint256 denominator = y2;\r\n\r\n        amountIn = numerator / denominator;\r\n    }\r\n\r\n    /**\r\n    * @dev Calculates the difference between the supplied {a} and {b} values as a positive number.\r\n    */\r\n    function delta(uint256 a, uint256 b) public pure returns (uint256) {\r\n        return a > b ? a - b : b - a;\r\n    }\r\n\r\n    /**\r\n    * @dev Calculates the power of 2 of the supplied {a} value.\r\n    */\r\n    function pow(uint256 a) public pure returns (uint256) {\r\n        return a * a;\r\n    }\r\n\r\n    /**\r\n    * @dev Calculates the square root {c} of the supplied {a} value utilizing the Babylonian method:\r\n    * https://en.wikipedia.org/wiki/Methods_of_computing_square_roots#Babylonian_method\r\n    */\r\n    function root(uint256 a) public pure returns (uint256 c) {\r\n        if (a > 3) {\r\n            c = a;\r\n            uint256 x = a / 2 + 1;\r\n            while (x < c) {\r\n                c = x;\r\n                x = (a / x + x) / 2;\r\n            }\r\n        } else if (a != 0) {\r\n            c = 1;\r\n        }\r\n    }\r\n}\r\n",
  "sourcePath": "/home/mingyue/sub_contract_content/Web3Bugs/contracts/52/contracts/dex/math/VaderMath.sol",
  "compiler": {
    "name": "solc",
    "version": "0.8.9+commit.e5eed63a.Emscripten.clang"
  },
  "schemaVersion": "3.4.16",
  "updatedAt": "2025-03-06T07:23:55.034Z",
  "devdoc": {
    "kind": "dev",
    "methods": {
      "calculateLiquidityUnits(uint256,uint256,uint256,uint256,uint256)": {
        "details": "Calculates the amount of liquidity units for the {vaderDeposited} and {assetDeposited} amounts across {totalPoolUnits}. The {vaderBalance} and {assetBalance} are taken into account in order to calculate any necessary slippage adjustment."
      },
      "calculateLoss(uint256,uint256,uint256,uint256)": {
        "details": "Calculates the loss based on the supplied {releasedVader} and {releasedAsset} compared to the supplied {originalVader} and {originalAsset}."
      },
      "calculateSlipAdjustment(uint256,uint256,uint256,uint256)": {
        "details": "Calculates the necessary slippage adjustment for the {vaderDeposited} and {assetDeposited} amounts across the total {vaderBalance} and {assetBalance} amounts."
      },
      "calculateSwap(uint256,uint256,uint256)": {
        "details": "Calculates the {amountOut} of the swap based on the supplied {amountIn} across the supplied {reserveIn} and {reserveOut} amounts."
      },
      "calculateSwapReverse(uint256,uint256,uint256)": {
        "details": "Calculates the {amountIn} of the swap based on the supplied {amountOut} across the supplied {reserveIn} and {reserveOut} amounts."
      },
      "delta(uint256,uint256)": {
        "details": "Calculates the difference between the supplied {a} and {b} values as a positive number."
      },
      "pow(uint256)": {
        "details": "Calculates the power of 2 of the supplied {a} value."
      },
      "root(uint256)": {
        "details": "Calculates the square root {c} of the supplied {a} value utilizing the Babylonian method: https://en.wikipedia.org/wiki/Methods_of_computing_square_roots#Babylonian_method"
      }
    },
    "version": 1
  },
  "userdoc": {
    "kind": "user",
    "methods": {},
    "version": 1
  }
}