{
  "contractName": "Vader",
  "abi": [
    {
      "inputs": [],
      "stateMutability": "nonpayable",
      "type": "constructor"
    },
    {
      "anonymous": false,
      "inputs": [
        {
          "indexed": true,
          "internalType": "address",
          "name": "owner",
          "type": "address"
        },
        {
          "indexed": true,
          "internalType": "address",
          "name": "spender",
          "type": "address"
        },
        {
          "indexed": false,
          "internalType": "uint256",
          "name": "value",
          "type": "uint256"
        }
      ],
      "name": "Approval",
      "type": "event"
    },
    {
      "anonymous": false,
      "inputs": [
        {
          "indexed": false,
          "internalType": "address",
          "name": "to",
          "type": "address"
        },
        {
          "indexed": false,
          "internalType": "uint256",
          "name": "amount",
          "type": "uint256"
        }
      ],
      "name": "Emission",
      "type": "event"
    },
    {
      "anonymous": false,
      "inputs": [
        {
          "indexed": false,
          "internalType": "uint256",
          "name": "previous",
          "type": "uint256"
        },
        {
          "indexed": false,
          "internalType": "uint256",
          "name": "next",
          "type": "uint256"
        }
      ],
      "name": "EmissionChanged",
      "type": "event"
    },
    {
      "anonymous": false,
      "inputs": [
        {
          "indexed": true,
          "internalType": "address",
          "name": "beneficiary",
          "type": "address"
        },
        {
          "indexed": false,
          "internalType": "uint256",
          "name": "amount",
          "type": "uint256"
        }
      ],
      "name": "GrantClaimed",
      "type": "event"
    },
    {
      "anonymous": false,
      "inputs": [
        {
          "indexed": false,
          "internalType": "uint256",
          "name": "previous",
          "type": "uint256"
        },
        {
          "indexed": false,
          "internalType": "uint256",
          "name": "next",
          "type": "uint256"
        }
      ],
      "name": "MaxSupplyChanged",
      "type": "event"
    },
    {
      "anonymous": false,
      "inputs": [
        {
          "indexed": true,
          "internalType": "address",
          "name": "previousOwner",
          "type": "address"
        },
        {
          "indexed": true,
          "internalType": "address",
          "name": "newOwner",
          "type": "address"
        }
      ],
      "name": "OwnershipTransferred",
      "type": "event"
    },
    {
      "anonymous": false,
      "inputs": [
        {
          "indexed": false,
          "internalType": "address",
          "name": "converter",
          "type": "address"
        },
        {
          "indexed": false,
          "internalType": "address",
          "name": "vest",
          "type": "address"
        },
        {
          "indexed": false,
          "internalType": "address",
          "name": "usdv",
          "type": "address"
        },
        {
          "indexed": false,
          "internalType": "address",
          "name": "dao",
          "type": "address"
        }
      ],
      "name": "ProtocolInitialized",
      "type": "event"
    },
    {
      "anonymous": false,
      "inputs": [
        {
          "indexed": true,
          "internalType": "address",
          "name": "from",
          "type": "address"
        },
        {
          "indexed": true,
          "internalType": "address",
          "name": "to",
          "type": "address"
        },
        {
          "indexed": false,
          "internalType": "uint256",
          "name": "value",
          "type": "uint256"
        }
      ],
      "name": "Transfer",
      "type": "event"
    },
    {
      "inputs": [
        {
          "internalType": "address",
          "name": "owner",
          "type": "address"
        },
        {
          "internalType": "address",
          "name": "spender",
          "type": "address"
        }
      ],
      "name": "allowance",
      "outputs": [
        {
          "internalType": "uint256",
          "name": "",
          "type": "uint256"
        }
      ],
      "stateMutability": "view",
      "type": "function"
    },
    {
      "inputs": [
        {
          "internalType": "address",
          "name": "spender",
          "type": "address"
        },
        {
          "internalType": "uint256",
          "name": "amount",
          "type": "uint256"
        }
      ],
      "name": "approve",
      "outputs": [
        {
          "internalType": "bool",
          "name": "",
          "type": "bool"
        }
      ],
      "stateMutability": "nonpayable",
      "type": "function"
    },
    {
      "inputs": [
        {
          "internalType": "address",
          "name": "account",
          "type": "address"
        }
      ],
      "name": "balanceOf",
      "outputs": [
        {
          "internalType": "uint256",
          "name": "",
          "type": "uint256"
        }
      ],
      "stateMutability": "view",
      "type": "function"
    },
    {
      "inputs": [],
      "name": "converter",
      "outputs": [
        {
          "internalType": "contract IConverter",
          "name": "",
          "type": "address"
        }
      ],
      "stateMutability": "view",
      "type": "function"
    },
    {
      "inputs": [],
      "name": "decimals",
      "outputs": [
        {
          "internalType": "uint8",
          "name": "",
          "type": "uint8"
        }
      ],
      "stateMutability": "view",
      "type": "function"
    },
    {
      "inputs": [
        {
          "internalType": "address",
          "name": "spender",
          "type": "address"
        },
        {
          "internalType": "uint256",
          "name": "subtractedValue",
          "type": "uint256"
        }
      ],
      "name": "decreaseAllowance",
      "outputs": [
        {
          "internalType": "bool",
          "name": "",
          "type": "bool"
        }
      ],
      "stateMutability": "nonpayable",
      "type": "function"
    },
    {
      "inputs": [],
      "name": "emissionCurve",
      "outputs": [
        {
          "internalType": "uint256",
          "name": "",
          "type": "uint256"
        }
      ],
      "stateMutability": "view",
      "type": "function"
    },
    {
      "inputs": [
        {
          "internalType": "address",
          "name": "spender",
          "type": "address"
        },
        {
          "internalType": "uint256",
          "name": "addedValue",
          "type": "uint256"
        }
      ],
      "name": "increaseAllowance",
      "outputs": [
        {
          "internalType": "bool",
          "name": "",
          "type": "bool"
        }
      ],
      "stateMutability": "nonpayable",
      "type": "function"
    },
    {
      "inputs": [],
      "name": "lastEmission",
      "outputs": [
        {
          "internalType": "uint256",
          "name": "",
          "type": "uint256"
        }
      ],
      "stateMutability": "view",
      "type": "function"
    },
    {
      "inputs": [],
      "name": "maxSupply",
      "outputs": [
        {
          "internalType": "uint256",
          "name": "",
          "type": "uint256"
        }
      ],
      "stateMutability": "view",
      "type": "function"
    },
    {
      "inputs": [],
      "name": "name",
      "outputs": [
        {
          "internalType": "string",
          "name": "",
          "type": "string"
        }
      ],
      "stateMutability": "view",
      "type": "function"
    },
    {
      "inputs": [],
      "name": "owner",
      "outputs": [
        {
          "internalType": "address",
          "name": "",
          "type": "address"
        }
      ],
      "stateMutability": "view",
      "type": "function"
    },
    {
      "inputs": [],
      "name": "renounceOwnership",
      "outputs": [],
      "stateMutability": "nonpayable",
      "type": "function"
    },
    {
      "inputs": [],
      "name": "symbol",
      "outputs": [
        {
          "internalType": "string",
          "name": "",
          "type": "string"
        }
      ],
      "stateMutability": "view",
      "type": "function"
    },
    {
      "inputs": [],
      "name": "totalSupply",
      "outputs": [
        {
          "internalType": "uint256",
          "name": "",
          "type": "uint256"
        }
      ],
      "stateMutability": "view",
      "type": "function"
    },
    {
      "inputs": [
        {
          "internalType": "address",
          "name": "to",
          "type": "address"
        },
        {
          "internalType": "uint256",
          "name": "amount",
          "type": "uint256"
        }
      ],
      "name": "transfer",
      "outputs": [
        {
          "internalType": "bool",
          "name": "",
          "type": "bool"
        }
      ],
      "stateMutability": "nonpayable",
      "type": "function"
    },
    {
      "inputs": [
        {
          "internalType": "address",
          "name": "from",
          "type": "address"
        },
        {
          "internalType": "address",
          "name": "to",
          "type": "address"
        },
        {
          "internalType": "uint256",
          "name": "amount",
          "type": "uint256"
        }
      ],
      "name": "transferFrom",
      "outputs": [
        {
          "internalType": "bool",
          "name": "",
          "type": "bool"
        }
      ],
      "stateMutability": "nonpayable",
      "type": "function"
    },
    {
      "inputs": [
        {
          "internalType": "address",
          "name": "newOwner",
          "type": "address"
        }
      ],
      "name": "transferOwnership",
      "outputs": [],
      "stateMutability": "nonpayable",
      "type": "function"
    },
    {
      "inputs": [
        {
          "internalType": "address",
          "name": "",
          "type": "address"
        }
      ],
      "name": "untaxed",
      "outputs": [
        {
          "internalType": "bool",
          "name": "",
          "type": "bool"
        }
      ],
      "stateMutability": "view",
      "type": "function"
    },
    {
      "inputs": [],
      "name": "usdv",
      "outputs": [
        {
          "internalType": "contract IUSDV",
          "name": "",
          "type": "address"
        }
      ],
      "stateMutability": "view",
      "type": "function"
    },
    {
      "inputs": [],
      "name": "vest",
      "outputs": [
        {
          "internalType": "contract ILinearVesting",
          "name": "",
          "type": "address"
        }
      ],
      "stateMutability": "view",
      "type": "function"
    },
    {
      "inputs": [],
      "name": "calculateFee",
      "outputs": [
        {
          "internalType": "uint256",
          "name": "basisPoints",
          "type": "uint256"
        }
      ],
      "stateMutability": "view",
      "type": "function"
    },
    {
      "inputs": [],
      "name": "getCurrentEraEmission",
      "outputs": [
        {
          "internalType": "uint256",
          "name": "",
          "type": "uint256"
        }
      ],
      "stateMutability": "view",
      "type": "function"
    },
    {
      "inputs": [
        {
          "internalType": "uint256",
          "name": "currentSupply",
          "type": "uint256"
        }
      ],
      "name": "getEraEmission",
      "outputs": [
        {
          "internalType": "uint256",
          "name": "",
          "type": "uint256"
        }
      ],
      "stateMutability": "view",
      "type": "function"
    },
    {
      "inputs": [
        {
          "internalType": "address",
          "name": "user",
          "type": "address"
        },
        {
          "internalType": "uint256",
          "name": "amount",
          "type": "uint256"
        }
      ],
      "name": "createEmission",
      "outputs": [],
      "stateMutability": "nonpayable",
      "type": "function"
    },
    {
      "inputs": [
        {
          "internalType": "contract IConverter",
          "name": "_converter",
          "type": "address"
        },
        {
          "internalType": "contract ILinearVesting",
          "name": "_vest",
          "type": "address"
        },
        {
          "internalType": "contract IUSDV",
          "name": "_usdv",
          "type": "address"
        },
        {
          "internalType": "address",
          "name": "dao",
          "type": "address"
        }
      ],
      "name": "setComponents",
      "outputs": [],
      "stateMutability": "nonpayable",
      "type": "function"
    },
    {
      "inputs": [
        {
          "internalType": "address",
          "name": "beneficiary",
          "type": "address"
        },
        {
          "internalType": "uint256",
          "name": "amount",
          "type": "uint256"
        }
      ],
      "name": "claimGrant",
      "outputs": [],
      "stateMutability": "nonpayable",
      "type": "function"
    },
    {
      "inputs": [
        {
          "internalType": "uint256",
          "name": "_maxSupply",
          "type": "uint256"
        }
      ],
      "name": "adjustMaxSupply",
      "outputs": [],
      "stateMutability": "nonpayable",
      "type": "function"
    }
  ],
  "bytecode": "0x6080604052600560095542600a556b0813f3978f89409844000000600b553480156200002a57600080fd5b50604051806040016040528060058152602001642b30b232b960d91b815250604051806040016040528060058152602001642b20a222a960d91b81525081600390805190602001906200007f9291906200028e565b508051620000959060049060208401906200028e565b505050620000b2620000ac620000cf60201b60201c565b620000d3565b620000c9306acecb8f27f4200f3a00000062000125565b62000398565b3390565b600580546001600160a01b038381166001600160a01b0319831681179093556040519116919082907f8be0079c531659141344cd1fd0a4f28419497f9722a3daafe3b4186f6b6457e090600090a35050565b6001600160a01b038216620001815760405162461bcd60e51b815260206004820152601f60248201527f45524332303a206d696e7420746f20746865207a65726f20616464726573730060448201526064015b60405180910390fd5b6200018f60008383620001fa565b8060026000828254620001a3919062000334565b90915550506001600160a01b038216600081815260208181526040808320805486019055518481527fddf252ad1be2c89b69c2b068fc378daa952ba7f163c4a11628f55a4df523b3ef910160405180910390a35050565b6001600160a01b0383166200028957600b54816200021760025490565b62000223919062000334565b1115620002895760405162461bcd60e51b815260206004820152602d60248201527f56616465723a3a5f6265666f7265546f6b656e5472616e736665723a204d696e60448201526c07420657863656564732063617609c1b606482015260840162000178565b505050565b8280546200029c906200035b565b90600052602060002090601f016020900481019282620002c057600085556200030b565b82601f10620002db57805160ff19168380011785556200030b565b828001600101855582156200030b579182015b828111156200030b578251825591602001919060010190620002ee565b50620003199291506200031d565b5090565b5b808211156200031957600081556001016200031e565b600082198211156200035657634e487b7160e01b600052601160045260246000fd5b500190565b600181811c908216806200037057607f821691505b602082108114156200039257634e487b7160e01b600052602260045260246000fd5b50919050565b61154880620003a86000396000f3fe608060405234801561001057600080fd5b50600436106101c45760003560e01c80638dfdc0ca116100f9578063bd38837b11610097578063e30de15e11610071578063e30de15e146103a6578063e6af35f0146103b9578063e9ba3184146103c1578063f2fde38b146103d457600080fd5b8063bd38837b14610377578063d5abeb011461038a578063dd62ed3e1461039357600080fd5b80639921786c116100d35780639921786c146103405780639a67759b14610348578063a457c2d714610351578063a9059cbb1461036457600080fd5b80638dfdc0ca1461031c5780639420069c1461032557806395d89b411461033857600080fd5b806345afdc8d116101665780637373aa9f116101405780637373aa9f146102c25780637e76e2c5146102d55780637e867d14146102e85780638da5cb5b1461030b57600080fd5b806345afdc8d1461027c57806370a0823114610291578063715018a6146102ba57600080fd5b806323b872dd116101a257806323b872dd1461021c578063313ce5671461022f578063395093511461023e578063458efde31461025157600080fd5b806306fdde03146101c9578063095ea7b3146101e757806318160ddd1461020a575b600080fd5b6101d16103e7565b6040516101de91906112a8565b60405180910390f35b6101fa6101f5366004611312565b610479565b60405190151581526020016101de565b6002545b6040519081526020016101de565b6101fa61022a36600461133e565b610491565b604051601281526020016101de565b6101fa61024c366004611312565b6104b5565b600754610264906001600160a01b031681565b6040516001600160a01b0390911681526020016101de565b61028f61028a36600461137f565b6104d7565b005b61020e61029f3660046113db565b6001600160a01b031660009081526020819052604090205490565b61028f610749565b61028f6102d0366004611312565b61075d565b61020e6102e33660046113ff565b6107b5565b6101fa6102f63660046113db565b600c6020526000908152604090205460ff1681565b6005546001600160a01b0316610264565b61020e600a5481565b600854610264906001600160a01b031681565b6101d16107f3565b61020e610802565b61020e60095481565b6101fa61035f366004611312565b610815565b6101fa610372366004611312565b610890565b600654610264906001600160a01b031681565b61020e600b5481565b61020e6103a1366004611418565b61089e565b61028f6103b43660046113ff565b6108c9565b61020e61098c565b61028f6103cf366004611312565b6109af565b61028f6103e23660046113db565b610a6a565b6060600380546103f690611451565b80601f016020809104026020016040519081016040528092919081815260200182805461042290611451565b801561046f5780601f106104445761010080835404028352916020019161046f565b820191906000526020600020905b81548152906001019060200180831161045257829003601f168201915b5050505050905090565b600033610487818585610ae3565b5060019392505050565b60003361049f858285610c07565b6104aa858585610c81565b506001949350505050565b6000336104878185856104c8838361089e565b6104d291906114a2565b610ae3565b6104df610cf8565b6001600160a01b038416158015906104ff57506001600160a01b03831615155b801561051357506001600160a01b03821615155b801561052757506001600160a01b03811615155b61058a5760405162461bcd60e51b815260206004820152602960248201527f56616465723a3a736574436f6d706f6e656e74733a20496e636f727265637420604482015268417267756d656e747360b81b60648201526084015b60405180910390fd5b6006546001600160a01b0316156105ed5760405162461bcd60e51b815260206004820152602160248201527f56616465723a3a736574436f6d706f6e656e74733a20416c72656164792053656044820152601d60fa1b6064820152608401610581565b600680546001600160a01b038087166001600160a01b03199283168117909355600780548783169084168117909155600880549287169290931682179092556000928352600c6020526040808420805460ff19908116600190811790925593855281852080548516821790559184529092208054909116909117905561067f846b033b2e3c9fd0803ce8000000610d52565b610694836acecb8f27f4200f3a000000610d52565b826001600160a01b0316631bce6ff36040518163ffffffff1660e01b8152600401600060405180830381600087803b1580156106cf57600080fd5b505af11580156106e3573d6000803e3d6000fd5b505050506106f081610a6a565b604080516001600160a01b0386811682528581166020830152848116828401528316606082015290517fac4d1eb40bd843ac98b3f3cc28e14e29ecb2968f64105baffe1fc38807148f059181900360800190a150505050565b610751610cf8565b61075b6000610e1d565b565b610765610cf8565b61076f8282610d52565b604080516001600160a01b0384168152602081018390527ff54dbf4cddb908bac0d67a3e6d3e4de95d0e7bc059afe2d34b37a6ebbc3879ca910160405180910390a15050565b60006107c8620151806301e133806114ba565b60095483600b546107d991906114dc565b6107e391906114ba565b6107ed91906114ba565b92915050565b6060600480546103f690611451565b60006108106102e360025490565b905090565b60003381610823828661089e565b9050838110156108835760405162461bcd60e51b815260206004820152602560248201527f45524332303a2064656372656173656420616c6c6f77616e63652062656c6f77604482015264207a65726f60d81b6064820152608401610581565b6104aa8286868403610ae3565b600033610487818585610c81565b6001600160a01b03918216600090815260016020908152604080832093909416825291909152205490565b6108d1610e6f565b60025481101561094b576040805162461bcd60e51b81526020600482015260248101919091527f56616465723a3a61646a7573744d6178537570706c793a204d6178207375707060448201527f6c792063616e6e6f7420737562636564652063757272656e7420737570706c796064820152608401610581565b600b5460408051918252602082018390527fa626f93317e2474b716846a09cf0e28aacb96052643b252fe97704208fecf9b5910160405180910390a1600b55565b6000600b5461099a60025490565b6109a59060646114f3565b61081091906114ba565b6109b7610e6f565b80610a185760405162461bcd60e51b815260206004820152602b60248201527f56616465723a3a636c61696d4772616e743a204e6f6e2d5a65726f20416d6f7560448201526a1b9d0814995c5d5a5c995960aa1b6064820152608401610581565b816001600160a01b03167f2aa1d398fac8a867531b04feb1273747a6f1ec3d4700f40a2901dce75363edc082604051610a5391815260200190565b60405180910390a2610a66308383610f32565b5050565b610a72610cf8565b6001600160a01b038116610ad75760405162461bcd60e51b815260206004820152602660248201527f4f776e61626c653a206e6577206f776e657220697320746865207a65726f206160448201526564647265737360d01b6064820152608401610581565b610ae081610e1d565b50565b6001600160a01b038316610b455760405162461bcd60e51b8152602060048201526024808201527f45524332303a20617070726f76652066726f6d20746865207a65726f206164646044820152637265737360e01b6064820152608401610581565b6001600160a01b038216610ba65760405162461bcd60e51b815260206004820152602260248201527f45524332303a20617070726f766520746f20746865207a65726f206164647265604482015261737360f01b6064820152608401610581565b6001600160a01b0383811660008181526001602090815260408083209487168084529482529182902085905590518481527f8c5be1e5ebec7d5bd14f71427d1e84f3dd0314c0f7b2291e5b200ac8c7c3b925910160405180910390a3505050565b6000610c13848461089e565b90506000198114610c7b5781811015610c6e5760405162461bcd60e51b815260206004820152601d60248201527f45524332303a20696e73756666696369656e7420616c6c6f77616e63650000006044820152606401610581565b610c7b8484848403610ae3565b50505050565b336000908152600c602052604090205460ff1615610ca957610ca4838383610f32565b505050565b6000610cb361098c565b90506000612710610cc483856114f3565b610cce91906114ba565b9050610cda81846114dc565b9250610ce685826110e1565b610cf1858585610f32565b5050505050565b6005546001600160a01b0316331461075b5760405162461bcd60e51b815260206004820181905260248201527f4f776e61626c653a2063616c6c6572206973206e6f7420746865206f776e65726044820152606401610581565b6001600160a01b038216610da85760405162461bcd60e51b815260206004820152601f60248201527f45524332303a206d696e7420746f20746865207a65726f2061646472657373006044820152606401610581565b610db46000838361121f565b8060026000828254610dc691906114a2565b90915550506001600160a01b038216600081815260208181526040808320805486019055518481527fddf252ad1be2c89b69c2b068fc378daa952ba7f163c4a11628f55a4df523b3ef910160405180910390a35050565b600580546001600160a01b038381166001600160a01b0319831681179093556040519116919082907f8be0079c531659141344cd1fd0a4f28419497f9722a3daafe3b4186f6b6457e090600090a35050565b6006546001600160a01b0316610ec75760405162461bcd60e51b815260206004820181905260248201527f56616465723a3a5f6f6e6c7944414f3a2044414f206e6f7420736574207965746044820152606401610581565b6005546001600160a01b0316331461075b5760405162461bcd60e51b815260206004820152602860248201527f56616465723a3a5f6f6e6c7944414f3a20496e73756666696369656e742050726044820152676976696c6567657360c01b6064820152608401610581565b6001600160a01b038316610f965760405162461bcd60e51b815260206004820152602560248201527f45524332303a207472616e736665722066726f6d20746865207a65726f206164604482015264647265737360d81b6064820152608401610581565b6001600160a01b038216610ff85760405162461bcd60e51b815260206004820152602360248201527f45524332303a207472616e7366657220746f20746865207a65726f206164647260448201526265737360e81b6064820152608401610581565b61100383838361121f565b6001600160a01b0383166000908152602081905260409020548181101561107b5760405162461bcd60e51b815260206004820152602660248201527f45524332303a207472616e7366657220616d6f756e7420657863656564732062604482015265616c616e636560d01b6064820152608401610581565b6001600160a01b03848116600081815260208181526040808320878703905593871680835291849020805487019055925185815290927fddf252ad1be2c89b69c2b068fc378daa952ba7f163c4a11628f55a4df523b3ef910160405180910390a3610c7b565b6001600160a01b0382166111415760405162461bcd60e51b815260206004820152602160248201527f45524332303a206275726e2066726f6d20746865207a65726f206164647265736044820152607360f81b6064820152608401610581565b61114d8260008361121f565b6001600160a01b038216600090815260208190526040902054818110156111c15760405162461bcd60e51b815260206004820152602260248201527f45524332303a206275726e20616d6f756e7420657863656564732062616c616e604482015261636560f01b6064820152608401610581565b6001600160a01b0383166000818152602081815260408083208686039055600280548790039055518581529192917fddf252ad1be2c89b69c2b068fc378daa952ba7f163c4a11628f55a4df523b3ef910160405180910390a3505050565b6001600160a01b038316610ca457600b548161123a60025490565b61124491906114a2565b1115610ca45760405162461bcd60e51b815260206004820152602d60248201527f56616465723a3a5f6265666f7265546f6b656e5472616e736665723a204d696e60448201526c07420657863656564732063617609c1b6064820152608401610581565b600060208083528351808285015260005b818110156112d5578581018301518582016040015282016112b9565b818111156112e7576000604083870101525b50601f01601f1916929092016040019392505050565b6001600160a01b0381168114610ae057600080fd5b6000806040838503121561132557600080fd5b8235611330816112fd565b946020939093013593505050565b60008060006060848603121561135357600080fd5b833561135e816112fd565b9250602084013561136e816112fd565b929592945050506040919091013590565b6000806000806080858703121561139557600080fd5b84356113a0816112fd565b935060208501356113b0816112fd565b925060408501356113c0816112fd565b915060608501356113d0816112fd565b939692955090935050565b6000602082840312156113ed57600080fd5b81356113f8816112fd565b9392505050565b60006020828403121561141157600080fd5b5035919050565b6000806040838503121561142b57600080fd5b8235611436816112fd565b91506020830135611446816112fd565b809150509250929050565b600181811c9082168061146557607f821691505b6020821081141561148657634e487b7160e01b600052602260045260246000fd5b50919050565b634e487b7160e01b600052601160045260246000fd5b600082198211156114b5576114b561148c565b500190565b6000826114d757634e487b7160e01b600052601260045260246000fd5b500490565b6000828210156114ee576114ee61148c565b500390565b600081600019048311821515161561150d5761150d61148c565b50029056fea2646970667358221220216ce588cbe191f1cbb0b09b7e003e73bf0ad497068033b19daa2ed1e469734764736f6c63430008090033",
  "immutableReferences": {},
  "source": "// SPDX-License-Identifier: Unlicense\r\n\r\npragma solidity =0.8.9;\r\n\r\nimport \"@openzeppelin/contracts/access/Ownable.sol\";\r\nimport \"@openzeppelin/contracts/token/ERC20/ERC20.sol\";\r\n\r\nimport \"../shared/ProtocolConstants.sol\";\r\n\r\nimport \"../interfaces/tokens/IUSDV.sol\";\r\nimport \"../interfaces/tokens/IVader.sol\";\r\nimport \"../interfaces/tokens/vesting/ILinearVesting.sol\";\r\nimport \"../interfaces/tokens/converter/IConverter.sol\";\r\n\r\n/**\r\n * @dev Implementation of the {IVader} interface.\r\n *\r\n * The Vader token that acts as the backbone of the Vader protocol,\r\n * burned and minted to mint and burn USDV tokens respectively.\r\n *\r\n * The token contains a dynamically adjusting fee that fluctuates\r\n * between 0% and 1% depending on the total supply of the token\r\n * in comparison to the maximum supply possible, which is initially\r\n * equal to 2.5 billion units.\r\n *\r\n * A daily emission schedule is built in the contract as well,\r\n * meant to supply the Vader USDV treasury at a diminishing\r\n * rate that inches closer to 0 as the total supply of the token\r\n * nears the maximum supply possible.\r\n */\r\ncontract Vader is IVader, ProtocolConstants, ERC20, Ownable {\r\n    /* ========== STATE VARIABLES ========== */\r\n\r\n    // The Vader <-> Vether converter contract\r\n    IConverter public converter;\r\n\r\n    // The Vader Team vesting contract\r\n    ILinearVesting public vest;\r\n\r\n    // The USDV contract, used to apply proper access control\r\n    IUSDV public usdv;\r\n\r\n    // The adjustable emission curve of the protocol, used as a divisor\r\n    uint256 public emissionCurve = _INITIAL_EMISSION_CURVE;\r\n\r\n    // The last emission's timestamp expressed in seconds\r\n    uint256 public lastEmission = block.timestamp;\r\n\r\n    // The initial maximum supply of the token, equivalent to 2.5 bn units\r\n    uint256 public maxSupply = _INITIAL_VADER_SUPPLY;\r\n\r\n    // A list of addresses that do not have a tax applied to them, used for system components\r\n    mapping(address => bool) public untaxed;\r\n\r\n    /* ========== CONSTRUCTOR ========== */\r\n\r\n    /**\r\n     * @dev Mints the ecosystem growth fund described in the whitepaper to the\r\n     * token contract itself.\r\n     *\r\n     * As the token is meant to be minted and burned freely between USDV and itself,\r\n     * there is no real initialization taking place apart from the initially minted\r\n     * supply for the following components:\r\n     *\r\n     * - Ecosystem Growth: An allocation that is released to strategic partners for the\r\n     * protocol's expansion\r\n     *\r\n     * - Team Allocation: An allocation that is gradually vested over a 2 year duration to\r\n     * the Vader team to incentivize maintainance of the protocol\r\n     *\r\n     * - Vether Holder Allocation: An allocation that is immediately available to all existing\r\n     * and future Vether holders that allows them to swap their Vether for Vader by burning the\r\n     * former\r\n     *\r\n     * The latter two of the allocations are minted at a later date given that the addresses of\r\n     * the converter and vesting contract are not known on deployment.\r\n     */\r\n    constructor() ERC20(\"Vader\", \"VADER\") {\r\n        _mint(address(this), _ECOSYSTEM_GROWTH);\r\n    }\r\n\r\n    /* ========== VIEWS ========== */\r\n\r\n    /**\r\n     * @dev Returns the current fee that the protocol applies to transactions. The fee\r\n     * organically adjusts itself as the actual total supply of the token fluctuates and\r\n     * will always hold a value between [0%, 1%] expressed in basis points.\r\n     */\r\n    function calculateFee() public view override returns (uint256 basisPoints) {\r\n        basisPoints = (_MAX_FEE_BASIS_POINTS * totalSupply()) / maxSupply;\r\n    }\r\n\r\n    /**\r\n     * @dev Returns the current era's emission based on the existing total supply of the\r\n     * token. The era emissions diminish as the total supply of the token increases, inching\r\n     * closer to 0 as the total supply reaches its cap.\r\n     */\r\n    function getCurrentEraEmission() external view override returns (uint256) {\r\n        return getEraEmission(totalSupply());\r\n    }\r\n\r\n    /**\r\n     * @dev Calculates and returns the constantly diminishing era emission based on the difference between\r\n     * the current and maximum supply spread over a one year based in on the emission's era duration.\r\n     */\r\n    function getEraEmission(uint256 currentSupply)\r\n        public\r\n        view\r\n        override\r\n        returns (uint256)\r\n    {\r\n        return\r\n            ((maxSupply - currentSupply) / emissionCurve) /\r\n            (_ONE_YEAR / _EMISSION_ERA);\r\n    }\r\n\r\n    /* ========== MUTATIVE FUNCTIONS ========== */\r\n\r\n    /**\r\n     * @dev Creates a manual emission event\r\n     *\r\n     * Emits an {Emission} event indicating the amount emitted as well as what the current\r\n     * era's timestamp is.\r\n     */\r\n    function createEmission(address user, uint256 amount)\r\n        external\r\n        override\r\n        onlyOwner\r\n    {\r\n        _mint(user, amount);\r\n        emit Emission(user, amount);\r\n    }\r\n\r\n    /* ========== RESTRICTED FUNCTIONS ========== */\r\n\r\n    /**\r\n     * @dev Sets the initial {converter}, {vest}, and {usdv} contract addresses prior to transferring\r\n     * ownership to the DAO. Additionally, mints the Vader amount available for conversion as well\r\n     * as the team allocation that is meant to be vested to each respective contract.\r\n     *\r\n     * Emits a {ProtocolInitialized} event indicating all the supplied values of the function.\r\n     *\r\n     * Requirements:\r\n     *\r\n     * - the caller must be the deployer of the contract\r\n     * - the contract must not have already been initialized\r\n     */\r\n    function setComponents(\r\n        IConverter _converter,\r\n        ILinearVesting _vest,\r\n        IUSDV _usdv,\r\n        address dao\r\n    ) external onlyOwner {\r\n        require(\r\n            _converter != IConverter(_ZERO_ADDRESS) &&\r\n                _vest != ILinearVesting(_ZERO_ADDRESS) &&\r\n                _usdv != IUSDV(_ZERO_ADDRESS) &&\r\n                dao != _ZERO_ADDRESS,\r\n            \"Vader::setComponents: Incorrect Arguments\"\r\n        );\r\n        require(\r\n            converter == IConverter(_ZERO_ADDRESS),\r\n            \"Vader::setComponents: Already Set\"\r\n        );\r\n\r\n        converter = _converter;\r\n        vest = _vest;\r\n        usdv = _usdv;\r\n\r\n        untaxed[address(_converter)] = true;\r\n        untaxed[address(_vest)] = true;\r\n        untaxed[address(_usdv)] = true;\r\n\r\n        _mint(address(_converter), _VETH_ALLOCATION);\r\n        _mint(address(_vest), _TEAM_ALLOCATION);\r\n\r\n        _vest.begin();\r\n        transferOwnership(dao);\r\n\r\n        emit ProtocolInitialized(\r\n            address(_converter),\r\n            address(_vest),\r\n            address(_usdv),\r\n            dao\r\n        );\r\n    }\r\n\r\n    /**\r\n     * @dev Allows a strategic partnership grant to be claimed.\r\n     *\r\n     * Emits a {GrantClaimed} event indicating the beneficiary of the grant as\r\n     * well as the grant amount.\r\n     *\r\n     * Requirements:\r\n     *\r\n     * - the caller must be the DAO\r\n     * - the token must hold sufficient Vader allocation for the grant\r\n     * - the grant must be of a non-zero amount\r\n     */\r\n    function claimGrant(address beneficiary, uint256 amount) external onlyDAO {\r\n        require(amount != 0, \"Vader::claimGrant: Non-Zero Amount Required\");\r\n        emit GrantClaimed(beneficiary, amount);\r\n        ERC20._transfer(address(this), beneficiary, amount);\r\n    }\r\n\r\n    /**\r\n     * @dev Allows the maximum supply of the token to be adjusted.\r\n     *\r\n     * Emits an {MaxSupplyChanged} event indicating the previous and next maximum\r\n     * total supplies.\r\n     *\r\n     * Requirements:\r\n     *\r\n     * - the caller must be the DAO\r\n     * - the new maximum supply must be greater than the current one\r\n     */\r\n    function adjustMaxSupply(uint256 _maxSupply) external onlyDAO {\r\n        require(\r\n            _maxSupply >= totalSupply(),\r\n            \"Vader::adjustMaxSupply: Max supply cannot subcede current supply\"\r\n        );\r\n        emit MaxSupplyChanged(maxSupply, _maxSupply);\r\n        maxSupply = _maxSupply;\r\n    }\r\n\r\n    /* ========== INTERNAL FUNCTIONS ========== */\r\n\r\n    /**\r\n     * @dev Ensures that the daily emission of the token gets automatically executed\r\n     * when the time is right and enforces the maximum supply limit on mint operations.\r\n     */\r\n    function _beforeTokenTransfer(\r\n        address from,\r\n        address,\r\n        uint256 amount\r\n    ) internal view override {\r\n        if (from == address(0))\r\n            require(\r\n                totalSupply() + amount <= maxSupply,\r\n                \"Vader::_beforeTokenTransfer: Mint exceeds cap\"\r\n            );\r\n\r\n        // _syncEmissions();\r\n    }\r\n\r\n    /**\r\n     * @dev Overrides the existing ERC-20 {_transfer} functionality to apply a fee on each\r\n     * transfer.\r\n     */\r\n    function _transfer(\r\n        address sender,\r\n        address recipient,\r\n        uint256 amount\r\n    ) internal override {\r\n        if (untaxed[msg.sender])\r\n            return ERC20._transfer(sender, recipient, amount);\r\n\r\n        uint256 fee = calculateFee();\r\n\r\n        uint256 tax = (amount * fee) / _MAX_BASIS_POINTS;\r\n\r\n        amount -= tax;\r\n\r\n        _burn(sender, tax);\r\n\r\n        ERC20._transfer(sender, recipient, amount);\r\n    }\r\n\r\n    /* ========== PRIVATE FUNCTIONS ========== */\r\n\r\n    /**\r\n     * @dev Ensures only the DAO is able to invoke a particular function by validating that the\r\n     * contract has been set up and that the owner is the msg.sender\r\n     */\r\n    function _onlyDAO() private view {\r\n        require(\r\n            converter != IConverter(_ZERO_ADDRESS),\r\n            \"Vader::_onlyDAO: DAO not set yet\"\r\n        );\r\n        require(\r\n            owner() == _msgSender(),\r\n            \"Vader::_onlyDAO: Insufficient Privileges\"\r\n        );\r\n    }\r\n\r\n    /* ========== MODIFIERS ========== */\r\n\r\n    /**\r\n     * @dev Throws if invoked by anyone else other than the DAO\r\n     */\r\n    modifier onlyDAO() {\r\n        _onlyDAO();\r\n        _;\r\n    }\r\n\r\n    /* ========== DEPRECATED FUNCTIONS ========== */\r\n\r\n    /**\r\n     * @dev Allows the daily emission curve of the token to be adjusted.\r\n     *\r\n     * Emits an {EmissionChanged} event indicating the previous and next emission\r\n     * curves.\r\n     *\r\n     * Requirements:\r\n     *\r\n     * - the caller must be the DAO\r\n     * - the new emission must be non-zero\r\n     */\r\n    // function adjustEmission(uint256 _emissionCurve) external onlyDAO {\r\n    //     require(\r\n    //         _emissionCurve != 0,\r\n    //         \"Vader::adjustEmission: Incorrect Curve Emission\"\r\n    //     );\r\n    //     emit EmissionChanged(emissionCurve, _emissionCurve);\r\n    //     emissionCurve = _emissionCurve;\r\n    // }\r\n\r\n    /**\r\n     * @dev Syncs the current emission schedule by advancing the necessary epochs to match the\r\n     * current timestamp and mints the corresponding Vader to the USDV contract for distribution\r\n     * via the {distributeEmission} function.\r\n     */\r\n    // function _syncEmissions() private {\r\n    //     uint256 currentSupply = totalSupply();\r\n    //     uint256 _lastEmission = lastEmission;\r\n    //     if (\r\n    //         block.timestamp >= _lastEmission + _EMISSION_ERA &&\r\n    //         maxSupply != currentSupply\r\n    //     ) {\r\n    //         uint256 eras = (block.timestamp - _lastEmission) / _EMISSION_ERA;\r\n\r\n    //         // NOTE: Current Supply + Emission guaranteed to not overflow as <= maxSupply\r\n    //         uint256 emission;\r\n    //         for (uint256 i = 0; i < eras; i++)\r\n    //             emission += getEraEmission(currentSupply + emission);\r\n\r\n    //         _mint(address(usdv), emission);\r\n\r\n    //         usdv.distributeEmission();\r\n\r\n    //         _lastEmission += (_EMISSION_ERA * eras);\r\n    //         lastEmission = _lastEmission;\r\n\r\n    //         emit Emission(emission, _lastEmission);\r\n    //     }\r\n    // }\r\n}\r\n",
  "sourcePath": "/home/mingyue/sub_contract_content/Web3Bugs/contracts/52/contracts/tokens/Vader.sol",
  "compiler": {
    "name": "solc",
    "version": "0.8.9+commit.e5eed63a.Emscripten.clang"
  },
  "schemaVersion": "3.4.16",
  "updatedAt": "2025-03-06T07:23:55.093Z",
  "devdoc": {
    "details": "Implementation of the {IVader} interface. The Vader token that acts as the backbone of the Vader protocol, burned and minted to mint and burn USDV tokens respectively. The token contains a dynamically adjusting fee that fluctuates between 0% and 1% depending on the total supply of the token in comparison to the maximum supply possible, which is initially equal to 2.5 billion units. A daily emission schedule is built in the contract as well, meant to supply the Vader USDV treasury at a diminishing rate that inches closer to 0 as the total supply of the token nears the maximum supply possible.",
    "kind": "dev",
    "methods": {
      "adjustMaxSupply(uint256)": {
        "details": "Allows the maximum supply of the token to be adjusted. Emits an {MaxSupplyChanged} event indicating the previous and next maximum total supplies. Requirements: - the caller must be the DAO - the new maximum supply must be greater than the current one"
      },
      "allowance(address,address)": {
        "details": "See {IERC20-allowance}."
      },
      "approve(address,uint256)": {
        "details": "See {IERC20-approve}. NOTE: If `amount` is the maximum `uint256`, the allowance is not updated on `transferFrom`. This is semantically equivalent to an infinite approval. Requirements: - `spender` cannot be the zero address."
      },
      "balanceOf(address)": {
        "details": "See {IERC20-balanceOf}."
      },
      "calculateFee()": {
        "details": "Returns the current fee that the protocol applies to transactions. The fee organically adjusts itself as the actual total supply of the token fluctuates and will always hold a value between [0%, 1%] expressed in basis points."
      },
      "claimGrant(address,uint256)": {
        "details": "Allows a strategic partnership grant to be claimed. Emits a {GrantClaimed} event indicating the beneficiary of the grant as well as the grant amount. Requirements: - the caller must be the DAO - the token must hold sufficient Vader allocation for the grant - the grant must be of a non-zero amount"
      },
      "constructor": {
        "details": "Mints the ecosystem growth fund described in the whitepaper to the token contract itself. As the token is meant to be minted and burned freely between USDV and itself, there is no real initialization taking place apart from the initially minted supply for the following components: - Ecosystem Growth: An allocation that is released to strategic partners for the protocol's expansion - Team Allocation: An allocation that is gradually vested over a 2 year duration to the Vader team to incentivize maintainance of the protocol - Vether Holder Allocation: An allocation that is immediately available to all existing and future Vether holders that allows them to swap their Vether for Vader by burning the former The latter two of the allocations are minted at a later date given that the addresses of the converter and vesting contract are not known on deployment."
      },
      "createEmission(address,uint256)": {
        "details": "Creates a manual emission event Emits an {Emission} event indicating the amount emitted as well as what the current era's timestamp is."
      },
      "decimals()": {
        "details": "Returns the number of decimals used to get its user representation. For example, if `decimals` equals `2`, a balance of `505` tokens should be displayed to a user as `5.05` (`505 / 10 ** 2`). Tokens usually opt for a value of 18, imitating the relationship between Ether and Wei. This is the default value returned by this function, unless it's overridden. NOTE: This information is only used for _display_ purposes: it in no way affects any of the arithmetic of the contract, including {IERC20-balanceOf} and {IERC20-transfer}."
      },
      "decreaseAllowance(address,uint256)": {
        "details": "Atomically decreases the allowance granted to `spender` by the caller. This is an alternative to {approve} that can be used as a mitigation for problems described in {IERC20-approve}. Emits an {Approval} event indicating the updated allowance. Requirements: - `spender` cannot be the zero address. - `spender` must have allowance for the caller of at least `subtractedValue`."
      },
      "getCurrentEraEmission()": {
        "details": "Returns the current era's emission based on the existing total supply of the token. The era emissions diminish as the total supply of the token increases, inching closer to 0 as the total supply reaches its cap."
      },
      "getEraEmission(uint256)": {
        "details": "Calculates and returns the constantly diminishing era emission based on the difference between the current and maximum supply spread over a one year based in on the emission's era duration."
      },
      "increaseAllowance(address,uint256)": {
        "details": "Atomically increases the allowance granted to `spender` by the caller. This is an alternative to {approve} that can be used as a mitigation for problems described in {IERC20-approve}. Emits an {Approval} event indicating the updated allowance. Requirements: - `spender` cannot be the zero address."
      },
      "name()": {
        "details": "Returns the name of the token."
      },
      "owner()": {
        "details": "Returns the address of the current owner."
      },
      "renounceOwnership()": {
        "details": "Leaves the contract without owner. It will not be possible to call `onlyOwner` functions. Can only be called by the current owner. NOTE: Renouncing ownership will leave the contract without an owner, thereby disabling any functionality that is only available to the owner."
      },
      "setComponents(address,address,address,address)": {
        "details": "Sets the initial {converter}, {vest}, and {usdv} contract addresses prior to transferring ownership to the DAO. Additionally, mints the Vader amount available for conversion as well as the team allocation that is meant to be vested to each respective contract. Emits a {ProtocolInitialized} event indicating all the supplied values of the function. Requirements: - the caller must be the deployer of the contract - the contract must not have already been initialized"
      },
      "symbol()": {
        "details": "Returns the symbol of the token, usually a shorter version of the name."
      },
      "totalSupply()": {
        "details": "See {IERC20-totalSupply}."
      },
      "transfer(address,uint256)": {
        "details": "See {IERC20-transfer}. Requirements: - `to` cannot be the zero address. - the caller must have a balance of at least `amount`."
      },
      "transferFrom(address,address,uint256)": {
        "details": "See {IERC20-transferFrom}. Emits an {Approval} event indicating the updated allowance. This is not required by the EIP. See the note at the beginning of {ERC20}. NOTE: Does not update the allowance if the current allowance is the maximum `uint256`. Requirements: - `from` and `to` cannot be the zero address. - `from` must have a balance of at least `amount`. - the caller must have allowance for ``from``'s tokens of at least `amount`."
      },
      "transferOwnership(address)": {
        "details": "Transfers ownership of the contract to a new account (`newOwner`). Can only be called by the current owner."
      }
    },
    "version": 1
  },
  "userdoc": {
    "kind": "user",
    "methods": {},
    "version": 1
  }
}