{
  "contractName": "VaderReserve",
  "abi": [
    {
      "inputs": [
        {
          "internalType": "contract IERC20",
          "name": "_vader",
          "type": "address"
        }
      ],
      "stateMutability": "nonpayable",
      "type": "constructor"
    },
    {
      "anonymous": false,
      "inputs": [
        {
          "indexed": false,
          "internalType": "address",
          "name": "recipient",
          "type": "address"
        },
        {
          "indexed": false,
          "internalType": "uint256",
          "name": "amount",
          "type": "uint256"
        }
      ],
      "name": "GrantDistributed",
      "type": "event"
    },
    {
      "anonymous": false,
      "inputs": [
        {
          "indexed": false,
          "internalType": "address",
          "name": "recipient",
          "type": "address"
        },
        {
          "indexed": false,
          "internalType": "uint256",
          "name": "amount",
          "type": "uint256"
        },
        {
          "indexed": false,
          "internalType": "uint256",
          "name": "actualAmount",
          "type": "uint256"
        }
      ],
      "name": "LossCovered",
      "type": "event"
    },
    {
      "anonymous": false,
      "inputs": [
        {
          "indexed": true,
          "internalType": "address",
          "name": "previousOwner",
          "type": "address"
        },
        {
          "indexed": true,
          "internalType": "address",
          "name": "newOwner",
          "type": "address"
        }
      ],
      "name": "OwnershipTransferred",
      "type": "event"
    },
    {
      "inputs": [],
      "name": "lastGrant",
      "outputs": [
        {
          "internalType": "uint256",
          "name": "",
          "type": "uint256"
        }
      ],
      "stateMutability": "view",
      "type": "function"
    },
    {
      "inputs": [],
      "name": "owner",
      "outputs": [
        {
          "internalType": "address",
          "name": "",
          "type": "address"
        }
      ],
      "stateMutability": "view",
      "type": "function"
    },
    {
      "inputs": [],
      "name": "renounceOwnership",
      "outputs": [],
      "stateMutability": "nonpayable",
      "type": "function"
    },
    {
      "inputs": [],
      "name": "router",
      "outputs": [
        {
          "internalType": "address",
          "name": "",
          "type": "address"
        }
      ],
      "stateMutability": "view",
      "type": "function"
    },
    {
      "inputs": [
        {
          "internalType": "address",
          "name": "newOwner",
          "type": "address"
        }
      ],
      "name": "transferOwnership",
      "outputs": [],
      "stateMutability": "nonpayable",
      "type": "function"
    },
    {
      "inputs": [],
      "name": "vader",
      "outputs": [
        {
          "internalType": "contract IERC20",
          "name": "",
          "type": "address"
        }
      ],
      "stateMutability": "view",
      "type": "function"
    },
    {
      "inputs": [],
      "name": "reserve",
      "outputs": [
        {
          "internalType": "uint256",
          "name": "",
          "type": "uint256"
        }
      ],
      "stateMutability": "view",
      "type": "function"
    },
    {
      "inputs": [
        {
          "internalType": "address",
          "name": "recipient",
          "type": "address"
        },
        {
          "internalType": "uint256",
          "name": "amount",
          "type": "uint256"
        }
      ],
      "name": "grant",
      "outputs": [],
      "stateMutability": "nonpayable",
      "type": "function"
    },
    {
      "inputs": [
        {
          "internalType": "address",
          "name": "_router",
          "type": "address"
        },
        {
          "internalType": "address",
          "name": "_dao",
          "type": "address"
        }
      ],
      "name": "initialize",
      "outputs": [],
      "stateMutability": "nonpayable",
      "type": "function"
    },
    {
      "inputs": [
        {
          "internalType": "address",
          "name": "recipient",
          "type": "address"
        },
        {
          "internalType": "uint256",
          "name": "amount",
          "type": "uint256"
        }
      ],
      "name": "reimburseImpermanentLoss",
      "outputs": [],
      "stateMutability": "nonpayable",
      "type": "function"
    }
  ],
  "bytecode": "0x60a060405234801561001057600080fd5b50604051610c76380380610c7683398101604081905261002f9161010a565b610038336100ba565b6001600160a01b0381166100a95760405162461bcd60e51b815260206004820152602e60248201527f5661646572526573657276653a3a636f6e7374727563746f723a20496e636f7260448201526d7265637420417267756d656e747360901b606482015260840160405180910390fd5b6001600160a01b031660805261013a565b600080546001600160a01b038381166001600160a01b0319831681178455604051919092169283917f8be0079c531659141344cd1fd0a4f28419497f9722a3daafe3b4186f6b6457e09190a35050565b60006020828403121561011c57600080fd5b81516001600160a01b038116811461013357600080fd5b9392505050565b608051610b0d6101696000396000818160a8015281816102ec01528181610411015261049f0152610b0d6000f3fe608060405234801561001057600080fd5b506004361061009e5760003560e01c8063980b162d11610066578063980b162d14610128578063b99573a31461013f578063cd3293de14610152578063f2fde38b1461015a578063f887ea401461016d57600080fd5b80631f494b64146100a3578063485cc955146100e75780636370920e146100fc578063715018a61461010f5780638da5cb5b14610117575b600080fd5b6100ca7f000000000000000000000000000000000000000000000000000000000000000081565b6040516001600160a01b0390911681526020015b60405180910390f35b6100fa6100f5366004610936565b610180565b005b6100fa61010a366004610969565b610237565b6100fa610359565b6000546001600160a01b03166100ca565b61013160025481565b6040519081526020016100de565b6100fa61014d366004610969565b61036d565b610131610487565b6100fa610168366004610993565b610526565b6001546100ca906001600160a01b031681565b61018861059f565b6001600160a01b038216158015906101a857506001600160a01b03811615155b61020f5760405162461bcd60e51b815260206004820152602d60248201527f5661646572526573657276653a3a696e697469616c697a653a20496e636f727260448201526c65637420417267756d656e747360981b60648201526084015b60405180910390fd5b600180546001600160a01b0319166001600160a01b03841617905561023381610526565b5050565b61023f61059f565b4262278d0060025461025191906109c4565b11156102ae5760405162461bcd60e51b815260206004820152602660248201527f5661646572526573657276653a3a7468726f74746c653a204772616e7420546f6044820152651bc811985cdd60d21b6064820152608401610206565b426002556102dd6127106103e86102c3610487565b6102cd91906109dc565b6102d791906109fb565b826105f9565b90506103136001600160a01b037f0000000000000000000000000000000000000000000000000000000000000000168383610611565b604080516001600160a01b0384168152602081018390527f2b4ce57f940201381a633093439427b832a8a6512c99f9dc44b62c556777255e910160405180910390a15050565b61036161059f565b61036b6000610668565b565b6001546001600160a01b031633146103ef576040805162461bcd60e51b81526020600482015260248101919091527f5661646572526573657276653a3a7265696d6275727365496d7065726d616e6560448201527f6e744c6f73733a20496e73756666696369656e742050726976696c65646765736064820152608401610206565b60006104026103fc610487565b836105f9565b90506104386001600160a01b037f0000000000000000000000000000000000000000000000000000000000000000168483610611565b604080516001600160a01b0385168152602081018490529081018290527f97dde5f8934bcf0f3aed0b6833b97d8b19bc4a12f025d70843d4dbebdd35b3689060600160405180910390a1505050565b6040516370a0823160e01b81523060048201526000907f00000000000000000000000000000000000000000000000000000000000000006001600160a01b0316906370a082319060240160206040518083038186803b1580156104e957600080fd5b505afa1580156104fd573d6000803e3d6000fd5b505050506040513d601f19601f820116820180604052508101906105219190610a1d565b905090565b61052e61059f565b6001600160a01b0381166105935760405162461bcd60e51b815260206004820152602660248201527f4f776e61626c653a206e6577206f776e657220697320746865207a65726f206160448201526564647265737360d01b6064820152608401610206565b61059c81610668565b50565b6000546001600160a01b0316331461036b5760405162461bcd60e51b815260206004820181905260248201527f4f776e61626c653a2063616c6c6572206973206e6f7420746865206f776e65726044820152606401610206565b6000818310610608578161060a565b825b9392505050565b604080516001600160a01b038416602482015260448082018490528251808303909101815260649091019091526020810180516001600160e01b031663a9059cbb60e01b1790526106639084906106b8565b505050565b600080546001600160a01b038381166001600160a01b0319831681178455604051919092169283917f8be0079c531659141344cd1fd0a4f28419497f9722a3daafe3b4186f6b6457e09190a35050565b600061070d826040518060400160405280602081526020017f5361666545524332303a206c6f772d6c6576656c2063616c6c206661696c6564815250856001600160a01b031661078d9092919063ffffffff16565b905080516000148061072e57508080602001905181019061072e9190610a36565b6106635760405162461bcd60e51b815260206004820152602a60248201527f5361666545524332303a204552433230206f7065726174696f6e20646964206e6044820152691bdd081cdd58d8d9595960b21b6064820152608401610206565b606061079c84846000856107a4565b949350505050565b6060824710156108055760405162461bcd60e51b815260206004820152602660248201527f416464726573733a20696e73756666696369656e742062616c616e636520666f6044820152651c8818d85b1b60d21b6064820152608401610206565b600080866001600160a01b031685876040516108219190610a88565b60006040518083038185875af1925050503d806000811461085e576040519150601f19603f3d011682016040523d82523d6000602084013e610863565b606091505b50915091506108748783838761087f565b979650505050505050565b606083156108eb5782516108e4576001600160a01b0385163b6108e45760405162461bcd60e51b815260206004820152601d60248201527f416464726573733a2063616c6c20746f206e6f6e2d636f6e74726163740000006044820152606401610206565b508161079c565b61079c83838151156109005781518083602001fd5b8060405162461bcd60e51b81526004016102069190610aa4565b80356001600160a01b038116811461093157600080fd5b919050565b6000806040838503121561094957600080fd5b6109528361091a565b91506109606020840161091a565b90509250929050565b6000806040838503121561097c57600080fd5b6109858361091a565b946020939093013593505050565b6000602082840312156109a557600080fd5b61060a8261091a565b634e487b7160e01b600052601160045260246000fd5b600082198211156109d7576109d76109ae565b500190565b60008160001904831182151516156109f6576109f66109ae565b500290565b600082610a1857634e487b7160e01b600052601260045260246000fd5b500490565b600060208284031215610a2f57600080fd5b5051919050565b600060208284031215610a4857600080fd5b8151801515811461060a57600080fd5b60005b83811015610a73578181015183820152602001610a5b565b83811115610a82576000848401525b50505050565b60008251610a9a818460208701610a58565b9190910192915050565b6020815260008251806020840152610ac3816040850160208701610a58565b601f01601f1916919091016040019291505056fea2646970667358221220291e194f15e420c8b2f20cee0d0e65465e95876ef48a3d0b099932f81fb8458f64736f6c63430008090033",
  "immutableReferences": {
    "21185": [
      {
        "length": 32,
        "start": 168
      },
      {
        "length": 32,
        "start": 748
      },
      {
        "length": 32,
        "start": 1041
      },
      {
        "length": 32,
        "start": 1183
      }
    ]
  },
  "source": "// SPDX-License-Identifier: Unlicense\r\n\r\npragma solidity =0.8.9;\r\n\r\nimport \"@openzeppelin/contracts/access/Ownable.sol\";\r\nimport \"@openzeppelin/contracts/token/ERC20/utils/SafeERC20.sol\";\r\n\r\nimport \"../shared/ProtocolConstants.sol\";\r\n\r\nimport \"../interfaces/reserve/IVaderReserve.sol\";\r\n\r\ncontract VaderReserve is IVaderReserve, ProtocolConstants, Ownable {\r\n    /* ========== LIBRARIES ========== */\r\n\r\n    // Used for safe VADER transfers\r\n    using SafeERC20 for IERC20;\r\n\r\n    /* ========== STATE VARIABLES ========== */\r\n\r\n    // The Vader token the reserve is handling\r\n    IERC20 public immutable vader;\r\n\r\n    // Router address for IL awards\r\n    address public router;\r\n\r\n    // Tracks last grant time for throttling\r\n    uint256 public lastGrant;\r\n\r\n    /* ========== CONSTRUCTOR ========== */\r\n\r\n    constructor(\r\n        IERC20 _vader\r\n    ) {\r\n        require(\r\n            _vader != IERC20(_ZERO_ADDRESS),\r\n            \"VaderReserve::constructor: Incorrect Arguments\"\r\n        );\r\n        vader = _vader;\r\n    }\r\n\r\n    /* ========== VIEWS ========== */\r\n\r\n    function reserve() public view override returns (uint256) {\r\n        return vader.balanceOf(address(this));\r\n    }\r\n\r\n    /* ========== MUTATIVE FUNCTIONS ========== */\r\n\r\n    function grant(address recipient, uint256 amount)\r\n        external\r\n        override\r\n        onlyOwner\r\n        throttle\r\n    {\r\n        amount = _min(\r\n            (reserve() * _MAX_GRANT_BASIS_POINTS) / _MAX_BASIS_POINTS,\r\n            amount\r\n        );\r\n        vader.safeTransfer(recipient, amount);\r\n\r\n        emit GrantDistributed(recipient, amount);\r\n    }\r\n\r\n    /* ========== RESTRICTED FUNCTIONS ========== */\r\n\r\n    function initialize(address _router, address _dao) external onlyOwner {\r\n         require(\r\n            _router != _ZERO_ADDRESS &&\r\n                _dao != _ZERO_ADDRESS,\r\n            \"VaderReserve::initialize: Incorrect Arguments\"\r\n        );\r\n        router = _router;\r\n        transferOwnership(_dao);\r\n    }\r\n\r\n    function reimburseImpermanentLoss(address recipient, uint256 amount)\r\n        external\r\n        override\r\n    {\r\n        require(\r\n            msg.sender == router,\r\n            \"VaderReserve::reimburseImpermanentLoss: Insufficient Priviledges\"\r\n        );\r\n\r\n        uint256 actualAmount = _min(reserve(), amount);\r\n\r\n        vader.safeTransfer(recipient, actualAmount);\r\n\r\n        emit LossCovered(recipient, amount, actualAmount);\r\n    }\r\n\r\n    /* ========== INTERNAL FUNCTIONS ========== */\r\n\r\n    /* ========== PRIVATE FUNCTIONS ========== */\r\n\r\n    /**\r\n     * @dev Calculates the minimum of the two values\r\n     */\r\n    function _min(uint256 a, uint256 b) private pure returns (uint256) {\r\n        return a < b ? a : b;\r\n    }\r\n\r\n    /* ========== MODIFIERS ========== */\r\n\r\n    modifier throttle() {\r\n        require(\r\n            lastGrant + _GRANT_DELAY <= block.timestamp,\r\n            \"VaderReserve::throttle: Grant Too Fast\"\r\n        );\r\n        lastGrant = block.timestamp;\r\n        _;\r\n    }\r\n}\r\n",
  "sourcePath": "/home/mingyue/sub_contract_content/Web3Bugs/contracts/52/contracts/reserve/VaderReserve.sol",
  "compiler": {
    "name": "solc",
    "version": "0.8.9+commit.e5eed63a.Emscripten.clang"
  },
  "schemaVersion": "3.4.16",
  "updatedAt": "2025-03-06T07:23:55.085Z",
  "devdoc": {
    "kind": "dev",
    "methods": {
      "owner()": {
        "details": "Returns the address of the current owner."
      },
      "renounceOwnership()": {
        "details": "Leaves the contract without owner. It will not be possible to call `onlyOwner` functions. Can only be called by the current owner. NOTE: Renouncing ownership will leave the contract without an owner, thereby disabling any functionality that is only available to the owner."
      },
      "transferOwnership(address)": {
        "details": "Transfers ownership of the contract to a new account (`newOwner`). Can only be called by the current owner."
      }
    },
    "version": 1
  },
  "userdoc": {
    "kind": "user",
    "methods": {},
    "version": 1
  }
}