{
  "contractName": "XVader",
  "abi": [
    {
      "inputs": [
        {
          "internalType": "contract IERC20",
          "name": "_vader",
          "type": "address"
        }
      ],
      "stateMutability": "nonpayable",
      "type": "constructor"
    },
    {
      "inputs": [],
      "name": "InvalidShortString",
      "type": "error"
    },
    {
      "inputs": [
        {
          "internalType": "string",
          "name": "str",
          "type": "string"
        }
      ],
      "name": "StringTooLong",
      "type": "error"
    },
    {
      "anonymous": false,
      "inputs": [
        {
          "indexed": true,
          "internalType": "address",
          "name": "owner",
          "type": "address"
        },
        {
          "indexed": true,
          "internalType": "address",
          "name": "spender",
          "type": "address"
        },
        {
          "indexed": false,
          "internalType": "uint256",
          "name": "value",
          "type": "uint256"
        }
      ],
      "name": "Approval",
      "type": "event"
    },
    {
      "anonymous": false,
      "inputs": [
        {
          "indexed": true,
          "internalType": "address",
          "name": "delegator",
          "type": "address"
        },
        {
          "indexed": true,
          "internalType": "address",
          "name": "fromDelegate",
          "type": "address"
        },
        {
          "indexed": true,
          "internalType": "address",
          "name": "toDelegate",
          "type": "address"
        }
      ],
      "name": "DelegateChanged",
      "type": "event"
    },
    {
      "anonymous": false,
      "inputs": [
        {
          "indexed": true,
          "internalType": "address",
          "name": "delegate",
          "type": "address"
        },
        {
          "indexed": false,
          "internalType": "uint256",
          "name": "previousBalance",
          "type": "uint256"
        },
        {
          "indexed": false,
          "internalType": "uint256",
          "name": "newBalance",
          "type": "uint256"
        }
      ],
      "name": "DelegateVotesChanged",
      "type": "event"
    },
    {
      "anonymous": false,
      "inputs": [],
      "name": "EIP712DomainChanged",
      "type": "event"
    },
    {
      "anonymous": false,
      "inputs": [
        {
          "indexed": true,
          "internalType": "address",
          "name": "from",
          "type": "address"
        },
        {
          "indexed": true,
          "internalType": "address",
          "name": "to",
          "type": "address"
        },
        {
          "indexed": false,
          "internalType": "uint256",
          "name": "value",
          "type": "uint256"
        }
      ],
      "name": "Transfer",
      "type": "event"
    },
    {
      "inputs": [],
      "name": "CLOCK_MODE",
      "outputs": [
        {
          "internalType": "string",
          "name": "",
          "type": "string"
        }
      ],
      "stateMutability": "view",
      "type": "function"
    },
    {
      "inputs": [],
      "name": "DOMAIN_SEPARATOR",
      "outputs": [
        {
          "internalType": "bytes32",
          "name": "",
          "type": "bytes32"
        }
      ],
      "stateMutability": "view",
      "type": "function"
    },
    {
      "inputs": [
        {
          "internalType": "address",
          "name": "owner",
          "type": "address"
        },
        {
          "internalType": "address",
          "name": "spender",
          "type": "address"
        }
      ],
      "name": "allowance",
      "outputs": [
        {
          "internalType": "uint256",
          "name": "",
          "type": "uint256"
        }
      ],
      "stateMutability": "view",
      "type": "function"
    },
    {
      "inputs": [
        {
          "internalType": "address",
          "name": "spender",
          "type": "address"
        },
        {
          "internalType": "uint256",
          "name": "amount",
          "type": "uint256"
        }
      ],
      "name": "approve",
      "outputs": [
        {
          "internalType": "bool",
          "name": "",
          "type": "bool"
        }
      ],
      "stateMutability": "nonpayable",
      "type": "function"
    },
    {
      "inputs": [
        {
          "internalType": "address",
          "name": "account",
          "type": "address"
        }
      ],
      "name": "balanceOf",
      "outputs": [
        {
          "internalType": "uint256",
          "name": "",
          "type": "uint256"
        }
      ],
      "stateMutability": "view",
      "type": "function"
    },
    {
      "inputs": [
        {
          "internalType": "address",
          "name": "account",
          "type": "address"
        },
        {
          "internalType": "uint32",
          "name": "pos",
          "type": "uint32"
        }
      ],
      "name": "checkpoints",
      "outputs": [
        {
          "components": [
            {
              "internalType": "uint32",
              "name": "fromBlock",
              "type": "uint32"
            },
            {
              "internalType": "uint224",
              "name": "votes",
              "type": "uint224"
            }
          ],
          "internalType": "struct ERC20Votes.Checkpoint",
          "name": "",
          "type": "tuple"
        }
      ],
      "stateMutability": "view",
      "type": "function"
    },
    {
      "inputs": [],
      "name": "clock",
      "outputs": [
        {
          "internalType": "uint48",
          "name": "",
          "type": "uint48"
        }
      ],
      "stateMutability": "view",
      "type": "function"
    },
    {
      "inputs": [],
      "name": "decimals",
      "outputs": [
        {
          "internalType": "uint8",
          "name": "",
          "type": "uint8"
        }
      ],
      "stateMutability": "view",
      "type": "function"
    },
    {
      "inputs": [
        {
          "internalType": "address",
          "name": "spender",
          "type": "address"
        },
        {
          "internalType": "uint256",
          "name": "subtractedValue",
          "type": "uint256"
        }
      ],
      "name": "decreaseAllowance",
      "outputs": [
        {
          "internalType": "bool",
          "name": "",
          "type": "bool"
        }
      ],
      "stateMutability": "nonpayable",
      "type": "function"
    },
    {
      "inputs": [
        {
          "internalType": "address",
          "name": "delegatee",
          "type": "address"
        }
      ],
      "name": "delegate",
      "outputs": [],
      "stateMutability": "nonpayable",
      "type": "function"
    },
    {
      "inputs": [
        {
          "internalType": "address",
          "name": "delegatee",
          "type": "address"
        },
        {
          "internalType": "uint256",
          "name": "nonce",
          "type": "uint256"
        },
        {
          "internalType": "uint256",
          "name": "expiry",
          "type": "uint256"
        },
        {
          "internalType": "uint8",
          "name": "v",
          "type": "uint8"
        },
        {
          "internalType": "bytes32",
          "name": "r",
          "type": "bytes32"
        },
        {
          "internalType": "bytes32",
          "name": "s",
          "type": "bytes32"
        }
      ],
      "name": "delegateBySig",
      "outputs": [],
      "stateMutability": "nonpayable",
      "type": "function"
    },
    {
      "inputs": [
        {
          "internalType": "address",
          "name": "account",
          "type": "address"
        }
      ],
      "name": "delegates",
      "outputs": [
        {
          "internalType": "address",
          "name": "",
          "type": "address"
        }
      ],
      "stateMutability": "view",
      "type": "function"
    },
    {
      "inputs": [],
      "name": "eip712Domain",
      "outputs": [
        {
          "internalType": "bytes1",
          "name": "fields",
          "type": "bytes1"
        },
        {
          "internalType": "string",
          "name": "name",
          "type": "string"
        },
        {
          "internalType": "string",
          "name": "version",
          "type": "string"
        },
        {
          "internalType": "uint256",
          "name": "chainId",
          "type": "uint256"
        },
        {
          "internalType": "address",
          "name": "verifyingContract",
          "type": "address"
        },
        {
          "internalType": "bytes32",
          "name": "salt",
          "type": "bytes32"
        },
        {
          "internalType": "uint256[]",
          "name": "extensions",
          "type": "uint256[]"
        }
      ],
      "stateMutability": "view",
      "type": "function"
    },
    {
      "inputs": [
        {
          "internalType": "uint256",
          "name": "timepoint",
          "type": "uint256"
        }
      ],
      "name": "getPastTotalSupply",
      "outputs": [
        {
          "internalType": "uint256",
          "name": "",
          "type": "uint256"
        }
      ],
      "stateMutability": "view",
      "type": "function"
    },
    {
      "inputs": [
        {
          "internalType": "address",
          "name": "account",
          "type": "address"
        },
        {
          "internalType": "uint256",
          "name": "timepoint",
          "type": "uint256"
        }
      ],
      "name": "getPastVotes",
      "outputs": [
        {
          "internalType": "uint256",
          "name": "",
          "type": "uint256"
        }
      ],
      "stateMutability": "view",
      "type": "function"
    },
    {
      "inputs": [
        {
          "internalType": "address",
          "name": "account",
          "type": "address"
        }
      ],
      "name": "getVotes",
      "outputs": [
        {
          "internalType": "uint256",
          "name": "",
          "type": "uint256"
        }
      ],
      "stateMutability": "view",
      "type": "function"
    },
    {
      "inputs": [
        {
          "internalType": "address",
          "name": "spender",
          "type": "address"
        },
        {
          "internalType": "uint256",
          "name": "addedValue",
          "type": "uint256"
        }
      ],
      "name": "increaseAllowance",
      "outputs": [
        {
          "internalType": "bool",
          "name": "",
          "type": "bool"
        }
      ],
      "stateMutability": "nonpayable",
      "type": "function"
    },
    {
      "inputs": [],
      "name": "name",
      "outputs": [
        {
          "internalType": "string",
          "name": "",
          "type": "string"
        }
      ],
      "stateMutability": "view",
      "type": "function"
    },
    {
      "inputs": [
        {
          "internalType": "address",
          "name": "owner",
          "type": "address"
        }
      ],
      "name": "nonces",
      "outputs": [
        {
          "internalType": "uint256",
          "name": "",
          "type": "uint256"
        }
      ],
      "stateMutability": "view",
      "type": "function"
    },
    {
      "inputs": [
        {
          "internalType": "address",
          "name": "account",
          "type": "address"
        }
      ],
      "name": "numCheckpoints",
      "outputs": [
        {
          "internalType": "uint32",
          "name": "",
          "type": "uint32"
        }
      ],
      "stateMutability": "view",
      "type": "function"
    },
    {
      "inputs": [
        {
          "internalType": "address",
          "name": "owner",
          "type": "address"
        },
        {
          "internalType": "address",
          "name": "spender",
          "type": "address"
        },
        {
          "internalType": "uint256",
          "name": "value",
          "type": "uint256"
        },
        {
          "internalType": "uint256",
          "name": "deadline",
          "type": "uint256"
        },
        {
          "internalType": "uint8",
          "name": "v",
          "type": "uint8"
        },
        {
          "internalType": "bytes32",
          "name": "r",
          "type": "bytes32"
        },
        {
          "internalType": "bytes32",
          "name": "s",
          "type": "bytes32"
        }
      ],
      "name": "permit",
      "outputs": [],
      "stateMutability": "nonpayable",
      "type": "function"
    },
    {
      "inputs": [],
      "name": "symbol",
      "outputs": [
        {
          "internalType": "string",
          "name": "",
          "type": "string"
        }
      ],
      "stateMutability": "view",
      "type": "function"
    },
    {
      "inputs": [],
      "name": "totalSupply",
      "outputs": [
        {
          "internalType": "uint256",
          "name": "",
          "type": "uint256"
        }
      ],
      "stateMutability": "view",
      "type": "function"
    },
    {
      "inputs": [
        {
          "internalType": "address",
          "name": "to",
          "type": "address"
        },
        {
          "internalType": "uint256",
          "name": "amount",
          "type": "uint256"
        }
      ],
      "name": "transfer",
      "outputs": [
        {
          "internalType": "bool",
          "name": "",
          "type": "bool"
        }
      ],
      "stateMutability": "nonpayable",
      "type": "function"
    },
    {
      "inputs": [
        {
          "internalType": "address",
          "name": "from",
          "type": "address"
        },
        {
          "internalType": "address",
          "name": "to",
          "type": "address"
        },
        {
          "internalType": "uint256",
          "name": "amount",
          "type": "uint256"
        }
      ],
      "name": "transferFrom",
      "outputs": [
        {
          "internalType": "bool",
          "name": "",
          "type": "bool"
        }
      ],
      "stateMutability": "nonpayable",
      "type": "function"
    },
    {
      "inputs": [],
      "name": "vader",
      "outputs": [
        {
          "internalType": "contract IERC20",
          "name": "",
          "type": "address"
        }
      ],
      "stateMutability": "view",
      "type": "function"
    },
    {
      "inputs": [
        {
          "internalType": "uint256",
          "name": "_amount",
          "type": "uint256"
        }
      ],
      "name": "enter",
      "outputs": [],
      "stateMutability": "nonpayable",
      "type": "function"
    },
    {
      "inputs": [
        {
          "internalType": "uint256",
          "name": "_shares",
          "type": "uint256"
        }
      ],
      "name": "leave",
      "outputs": [],
      "stateMutability": "nonpayable",
      "type": "function"
    }
  ],
  "bytecode": "0x6101806040523480156200001257600080fd5b5060405162002c3638038062002c36833981016040819052620000359162000388565b604051806040016040528060068152602001652c2b30b232b960d11b81525080604051806040016040528060018152602001603160f81b815250604051806040016040528060068152602001652c2b30b232b960d11b815250604051806040016040528060068152602001653c2b20a222a960d11b8152508160039080519060200190620000c5929190620002e2565b508051620000db906004906020840190620002e2565b505050620000f96005836200024860201b62000f641790919060201c565b610120526200011681600662000248602090811b62000f6417901c565b61014052815160208084019190912060e052815190820120610100524660a052620001a460e05161010051604080517f8b73c3c69bb8fe3d512ecc4cf759cc79239f7b179b0ffacaa9a75d522b39400f60208201529081019290925260608201524660808201523060a082015260009060c00160405160208183030381529060405280519060200120905090565b60805250503060c052506001600c556001600160a01b038116620002355760405162461bcd60e51b815260206004820152603460248201527f5856616465723a3a636f6e7374727563746f723a205f76616465722063616e6e60448201527f6f742062652061207a65726f206164647265737300000000000000000000000060648201526084015b60405180910390fd5b6001600160a01b03166101605262000471565b6000602083511015620002685762000260836200029c565b905062000296565b826200027f83620002df60201b62000f9b1760201c565b8151620002909260200190620002e2565b5060ff90505b92915050565b600080829050601f81511115620002ca578260405163305a27a960e01b81526004016200022c9190620003ba565b8051620002d78262000412565b179392505050565b90565b828054620002f0906200043a565b90600052602060002090601f0160209004810192826200031457600085556200035f565b82601f106200032f57805160ff19168380011785556200035f565b828001600101855582156200035f579182015b828111156200035f57825182559160200191906001019062000342565b506200036d92915062000371565b5090565b5b808211156200036d576000815560010162000372565b6000602082840312156200039b57600080fd5b81516001600160a01b0381168114620003b357600080fd5b9392505050565b600060208083528351808285015260005b81811015620003e957858101830151858201604001528201620003cb565b81811115620003fc576000604083870101525b50601f01601f1916929092016040019392505050565b8051602080830151919081101562000434576000198160200360031b1b821691505b50919050565b600181811c908216806200044f57607f821691505b602082108114156200043457634e487b7160e01b600052602260045260246000fd5b60805160a05160c05160e05161010051610120516101405161016051612743620004f360003960008181610221015281816106da0152818161079801528181610a8f0152610b7b015260006108a101526000610876015260006113c001526000611398015260006112f30152600061131d0152600061134701526127436000f3fe608060405234801561001057600080fd5b50600436106101c45760003560e01c806370a08231116100f9578063a457c2d711610097578063c3cda52011610071578063c3cda5201461040c578063d505accf1461041f578063dd62ed3e14610432578063f1127ed81461044557600080fd5b8063a457c2d7146103d3578063a59f3e0c146103e6578063a9059cbb146103f957600080fd5b80638e539e8c116100d35780638e539e8c1461038657806391ddadf41461039957806395d89b41146103b85780639ab24eb0146103c057600080fd5b806370a082311461032f5780637ecebe001461035857806384b0196e1461036b57600080fd5b80633950935111610166578063587cde1e11610140578063587cde1e146102b35780635c19a95c146102df57806367dfd4c9146102f45780636fcfff451461030757600080fd5b806339509351146102855780633a46b1a8146102985780634bf5d7e9146102ab57600080fd5b80631f494b64116101a25780631f494b641461021c57806323b872dd1461025b578063313ce5671461026e5780633644e5151461027d57600080fd5b806306fdde03146101c9578063095ea7b3146101e757806318160ddd1461020a575b600080fd5b6101d1610482565b6040516101de919061230c565b60405180910390f35b6101fa6101f536600461233b565b610514565b60405190151581526020016101de565b6002545b6040519081526020016101de565b6102437f000000000000000000000000000000000000000000000000000000000000000081565b6040516001600160a01b0390911681526020016101de565b6101fa610269366004612365565b61052e565b604051601281526020016101de565b61020e610552565b6101fa61029336600461233b565b610561565b61020e6102a636600461233b565b610583565b6101d161060d565b6102436102c13660046123a1565b6001600160a01b039081166000908152600960205260409020541690565b6102f26102ed3660046123a1565b6106a5565b005b6102f26103023660046123bc565b6106b2565b61031a6103153660046123a1565b610828565b60405163ffffffff90911681526020016101de565b61020e61033d3660046123a1565b6001600160a01b031660009081526020819052604090205490565b61020e6103663660046123a1565b61084a565b610373610868565b6040516101de97969594939291906123d5565b61020e6103943660046123bc565b6108f1565b6103a1610958565b60405165ffffffffffff90911681526020016101de565b6101d1610963565b61020e6103ce3660046123a1565b610972565b6101fa6103e136600461233b565b6109f4565b6102f26103f43660046123bc565b610a6f565b6101fa61040736600461233b565b610c0d565b6102f261041a36600461247c565b610c1b565b6102f261042d3660046124d4565b610d51565b61020e61044036600461253e565b610eb5565b610458610453366004612571565b610ee0565b60408051825163ffffffff1681526020928301516001600160e01b031692810192909252016101de565b606060038054610491906125b1565b80601f01602080910402602001604051908101604052809291908181526020018280546104bd906125b1565b801561050a5780601f106104df5761010080835404028352916020019161050a565b820191906000526020600020905b8154815290600101906020018083116104ed57829003601f168201915b5050505050905090565b600033610522818585610f9e565b60019150505b92915050565b60003361053c8582856110c2565b61054785858561113c565b506001949350505050565b600061055c6112e6565b905090565b6000336105228185856105748383610eb5565b61057e91906125fc565b610f9e565b600061058d610958565b65ffffffffffff1682106105e45760405162461bcd60e51b815260206004820152601960248201527804552433230566f7465733a20667574757265206c6f6f6b757603c1b60448201526064015b60405180910390fd5b6001600160a01b0383166000908152600a602052604090206106069083611411565b9392505050565b606043610618610958565b65ffffffffffff161461066d5760405162461bcd60e51b815260206004820152601d60248201527f4552433230566f7465733a2062726f6b656e20636c6f636b206d6f646500000060448201526064016105db565b5060408051808201909152601d81527f6d6f64653d626c6f636b6e756d6265722666726f6d3d64656661756c74000000602082015290565b6106af33826114fa565b50565b6106ba611573565b60006106c560025490565b6040516370a0823160e01b81523060048201527f00000000000000000000000000000000000000000000000000000000000000006001600160a01b0316906370a082319060240160206040518083038186803b15801561072457600080fd5b505afa158015610738573d6000803e3d6000fd5b505050506040513d601f19601f8201168201806040525081019061075c9190612614565b610766908461262d565b6107709190612662565b905061077c33836115cd565b60405163a9059cbb60e01b8152336004820152602481018290527f00000000000000000000000000000000000000000000000000000000000000006001600160a01b03169063a9059cbb90604401602060405180830381600087803b1580156107e457600080fd5b505af11580156107f8573d6000803e3d6000fd5b505050506040513d601f19601f8201168201806040525081019061081c9190612684565b50506106af6001600c55565b6001600160a01b0381166000908152600a6020526040812054610528906115e5565b6001600160a01b038116600090815260076020526040812054610528565b60006060808280808361089c7f0000000000000000000000000000000000000000000000000000000000000000600561164e565b6108c77f0000000000000000000000000000000000000000000000000000000000000000600661164e565b60408051600080825260208201909252600f60f81b9b939a50919850469750309650945092509050565b60006108fb610958565b65ffffffffffff16821061094d5760405162461bcd60e51b815260206004820152601960248201527804552433230566f7465733a20667574757265206c6f6f6b757603c1b60448201526064016105db565b610528600b83611411565b600061055c436116f2565b606060048054610491906125b1565b6001600160a01b0381166000908152600a602052604081205480156109e1576001600160a01b0383166000908152600a60205260409020805460001983019081106109bf576109bf6126a6565b60009182526020909120015464010000000090046001600160e01b03166109e4565b60005b6001600160e01b03169392505050565b60003381610a028286610eb5565b905083811015610a625760405162461bcd60e51b815260206004820152602560248201527f45524332303a2064656372656173656420616c6c6f77616e63652062656c6f77604482015264207a65726f60d81b60648201526084016105db565b6105478286868403610f9e565b610a77611573565b6040516370a0823160e01b81523060048201526000907f00000000000000000000000000000000000000000000000000000000000000006001600160a01b0316906370a082319060240160206040518083038186803b158015610ad957600080fd5b505afa158015610aed573d6000803e3d6000fd5b505050506040513d601f19601f82011682018060405250810190610b119190612614565b90506000610b1e60025490565b90506000811580610b2d575082155b610b4b5782610b3c838661262d565b610b469190612662565b610b4d565b835b9050610b593382611759565b6040516323b872dd60e01b8152336004820152306024820152604481018590527f00000000000000000000000000000000000000000000000000000000000000006001600160a01b0316906323b872dd90606401602060405180830381600087803b158015610bc757600080fd5b505af1158015610bdb573d6000803e3d6000fd5b505050506040513d601f19601f82011682018060405250810190610bff9190612684565b505050506106af6001600c55565b60003361052281858561113c565b83421115610c6b5760405162461bcd60e51b815260206004820152601d60248201527f4552433230566f7465733a207369676e6174757265206578706972656400000060448201526064016105db565b604080517fe48329057bfd03d55e49b547132e39cffd9c1820ad7b9d4c5307691425d15adf60208201526001600160a01b038816918101919091526060810186905260808101859052600090610ce590610cdd9060a001604051602081830303815290604052805190602001206117e3565b858585611810565b9050610cf081611838565b8614610d3e5760405162461bcd60e51b815260206004820152601960248201527f4552433230566f7465733a20696e76616c6964206e6f6e63650000000000000060448201526064016105db565b610d4881886114fa565b50505050505050565b83421115610da15760405162461bcd60e51b815260206004820152601d60248201527f45524332305065726d69743a206578706972656420646561646c696e6500000060448201526064016105db565b60007f6e71edae12b1b97f4d1f60370fef10105fa2faae0126114a169c64845d6126c9888888610dd08c611838565b6040805160208101969096526001600160a01b0394851690860152929091166060840152608083015260a082015260c0810186905260e0016040516020818303038152906040528051906020012090506000610e2b826117e3565b90506000610e3b82878787611810565b9050896001600160a01b0316816001600160a01b031614610e9e5760405162461bcd60e51b815260206004820152601e60248201527f45524332305065726d69743a20696e76616c6964207369676e6174757265000060448201526064016105db565b610ea98a8a8a610f9e565b50505050505050505050565b6001600160a01b03918216600090815260016020908152604080832093909416825291909152205490565b60408051808201909152600080825260208201526001600160a01b0383166000908152600a60205260409020805463ffffffff8416908110610f2457610f246126a6565b60009182526020918290206040805180820190915291015463ffffffff8116825264010000000090046001600160e01b0316918101919091529392505050565b6000602083511015610f8057610f7983611860565b9050610528565b82828151610f91926020019061222f565b5060ff9050610528565b90565b6001600160a01b0383166110005760405162461bcd60e51b8152602060048201526024808201527f45524332303a20617070726f76652066726f6d20746865207a65726f206164646044820152637265737360e01b60648201526084016105db565b6001600160a01b0382166110615760405162461bcd60e51b815260206004820152602260248201527f45524332303a20617070726f766520746f20746865207a65726f206164647265604482015261737360f01b60648201526084016105db565b6001600160a01b0383811660008181526001602090815260408083209487168084529482529182902085905590518481527f8c5be1e5ebec7d5bd14f71427d1e84f3dd0314c0f7b2291e5b200ac8c7c3b925910160405180910390a3505050565b60006110ce8484610eb5565b9050600019811461113657818110156111295760405162461bcd60e51b815260206004820152601d60248201527f45524332303a20696e73756666696369656e7420616c6c6f77616e636500000060448201526064016105db565b6111368484848403610f9e565b50505050565b6001600160a01b0383166111a05760405162461bcd60e51b815260206004820152602560248201527f45524332303a207472616e736665722066726f6d20746865207a65726f206164604482015264647265737360d81b60648201526084016105db565b6001600160a01b0382166112025760405162461bcd60e51b815260206004820152602360248201527f45524332303a207472616e7366657220746f20746865207a65726f206164647260448201526265737360e81b60648201526084016105db565b6001600160a01b0383166000908152602081905260409020548181101561127a5760405162461bcd60e51b815260206004820152602660248201527f45524332303a207472616e7366657220616d6f756e7420657863656564732062604482015265616c616e636560d01b60648201526084016105db565b6001600160a01b03848116600081815260208181526040808320878703905593871680835291849020805487019055925185815290927fddf252ad1be2c89b69c2b068fc378daa952ba7f163c4a11628f55a4df523b3ef910160405180910390a36111368484846118a3565b6000306001600160a01b037f00000000000000000000000000000000000000000000000000000000000000001614801561133f57507f000000000000000000000000000000000000000000000000000000000000000046145b1561136957507f000000000000000000000000000000000000000000000000000000000000000090565b61055c604080517f8b73c3c69bb8fe3d512ecc4cf759cc79239f7b179b0ffacaa9a75d522b39400f60208201527f0000000000000000000000000000000000000000000000000000000000000000918101919091527f000000000000000000000000000000000000000000000000000000000000000060608201524660808201523060a082015260009060c00160405160208183030381529060405280519060200120905090565b81546000908181600581111561146b57600061142c846118d5565b61143690856126bc565b600088815260209020909150869082015463ffffffff16111561145b57809150611469565b6114668160016125fc565b92505b505b808210156114b857600061147f83836119ba565b600088815260209020909150869082015463ffffffff1611156114a4578091506114b2565b6114af8160016125fc565b92505b5061146b565b80156114e4576000868152602090208101600019015464010000000090046001600160e01b03166114e7565b60005b6001600160e01b03169695505050505050565b6001600160a01b038281166000818152600960208181526040808420805485845282862054949093528787166001600160a01b03198416811790915590519190951694919391928592917f3134e8a2e6d97e929a7e54011ea5485d7d196dd5f0ba4d4ef95803e8e3fc257f9190a46111368284836119d5565b6002600c5414156115c65760405162461bcd60e51b815260206004820152601f60248201527f5265656e7472616e637947756172643a207265656e7472616e742063616c6c0060448201526064016105db565b6002600c55565b6115d78282611b12565b611136600b611c4b83611c57565b600063ffffffff82111561164a5760405162461bcd60e51b815260206004820152602660248201527f53616665436173743a2076616c756520646f65736e27742066697420696e203360448201526532206269747360d01b60648201526084016105db565b5090565b606060ff831461166157610f7983611dcc565b81805461166d906125b1565b80601f0160208091040260200160405190810160405280929190818152602001828054611699906125b1565b80156116e65780601f106116bb576101008083540402835291602001916116e6565b820191906000526020600020905b8154815290600101906020018083116116c957829003601f168201915b50505050509050610528565b600065ffffffffffff82111561164a5760405162461bcd60e51b815260206004820152602660248201527f53616665436173743a2076616c756520646f65736e27742066697420696e203460448201526538206269747360d01b60648201526084016105db565b6117638282611e0b565b6002546001600160e01b0310156117d55760405162461bcd60e51b815260206004820152603060248201527f4552433230566f7465733a20746f74616c20737570706c79207269736b73206f60448201526f766572666c6f77696e6720766f74657360801b60648201526084016105db565b611136600b611ed683611c57565b60006105286117f06112e6565b8360405161190160f01b8152600281019290925260228201526042902090565b600080600061182187878787611ee2565b9150915061182e81611fa6565b5095945050505050565b6001600160a01b03811660009081526007602052604090208054600181018255905b50919050565b600080829050601f8151111561188b578260405163305a27a960e01b81526004016105db919061230c565b8051611896826126d3565b179392505050565b505050565b6001600160a01b0383811660009081526009602052604080822054858416835291205461189e929182169116836119d5565b6000816118e457506000919050565b600060016118f1846120f4565b901c6001901b9050600181848161190a5761190a61264c565b048201901c905060018184816119225761192261264c565b048201901c9050600181848161193a5761193a61264c565b048201901c905060018184816119525761195261264c565b048201901c9050600181848161196a5761196a61264c565b048201901c905060018184816119825761198261264c565b048201901c9050600181848161199a5761199a61264c565b048201901c9050610606818285816119b4576119b461264c565b04612188565b60006119c96002848418612662565b610606908484166125fc565b816001600160a01b0316836001600160a01b0316141580156119f75750600081115b1561189e576001600160a01b03831615611a85576001600160a01b0383166000908152600a602052604081208190611a3290611c4b85611c57565b91509150846001600160a01b03167fdec2bacdd2f05b59de34da9b523dff8be42e5e38e818c82fdb0bae774387a7248383604051611a7a929190918252602082015260400190565b60405180910390a250505b6001600160a01b0382161561189e576001600160a01b0382166000908152600a602052604081208190611abb90611ed685611c57565b91509150836001600160a01b03167fdec2bacdd2f05b59de34da9b523dff8be42e5e38e818c82fdb0bae774387a7248383604051611b03929190918252602082015260400190565b60405180910390a25050505050565b6001600160a01b038216611b725760405162461bcd60e51b815260206004820152602160248201527f45524332303a206275726e2066726f6d20746865207a65726f206164647265736044820152607360f81b60648201526084016105db565b6001600160a01b03821660009081526020819052604090205481811015611be65760405162461bcd60e51b815260206004820152602260248201527f45524332303a206275726e20616d6f756e7420657863656564732062616c616e604482015261636560f01b60648201526084016105db565b6001600160a01b0383166000818152602081815260408083208686039055600280548790039055518581529192917fddf252ad1be2c89b69c2b068fc378daa952ba7f163c4a11628f55a4df523b3ef910160405180910390a361189e836000846118a3565b600061060682846126bc565b82546000908190818115611ca45760008781526020902082016000190160408051808201909152905463ffffffff8116825264010000000090046001600160e01b03166020820152611cb9565b60408051808201909152600080825260208201525b905080602001516001600160e01b03169350611cd984868863ffffffff16565b9250600082118015611d035750611cee610958565b65ffffffffffff16816000015163ffffffff16145b15611d4857611d118361219e565b60008881526020902083016000190180546001600160e01b03929092166401000000000263ffffffff909216919091179055611dc2565b866040518060400160405280611d6c611d5f610958565b65ffffffffffff166115e5565b63ffffffff168152602001611d808661219e565b6001600160e01b0390811690915282546001810184556000938452602093849020835194909301519091166401000000000263ffffffff909316929092179101555b5050935093915050565b60606000611dd983612207565b604080516020808252818301909252919250600091906020820181803683375050509182525060208101929092525090565b6001600160a01b038216611e615760405162461bcd60e51b815260206004820152601f60248201527f45524332303a206d696e7420746f20746865207a65726f20616464726573730060448201526064016105db565b8060026000828254611e7391906125fc565b90915550506001600160a01b038216600081815260208181526040808320805486019055518481527fddf252ad1be2c89b69c2b068fc378daa952ba7f163c4a11628f55a4df523b3ef910160405180910390a3611ed2600083836118a3565b5050565b600061060682846125fc565b6000807f7fffffffffffffffffffffffffffffff5d576e7357a4501ddfe92f46681b20a0831115611f195750600090506003611f9d565b6040805160008082526020820180845289905260ff881692820192909252606081018690526080810185905260019060a0016020604051602081039080840390855afa158015611f6d573d6000803e3d6000fd5b5050604051601f1901519150506001600160a01b038116611f9657600060019250925050611f9d565b9150600090505b94509492505050565b6000816004811115611fba57611fba6126f7565b1415611fc35750565b6001816004811115611fd757611fd76126f7565b14156120255760405162461bcd60e51b815260206004820152601860248201527f45434453413a20696e76616c6964207369676e6174757265000000000000000060448201526064016105db565b6002816004811115612039576120396126f7565b14156120875760405162461bcd60e51b815260206004820152601f60248201527f45434453413a20696e76616c6964207369676e6174757265206c656e6774680060448201526064016105db565b600381600481111561209b5761209b6126f7565b14156106af5760405162461bcd60e51b815260206004820152602260248201527f45434453413a20696e76616c6964207369676e6174757265202773272076616c604482015261756560f01b60648201526084016105db565b600080608083901c1561210957608092831c92015b604083901c1561211b57604092831c92015b602083901c1561212d57602092831c92015b601083901c1561213f57601092831c92015b600883901c1561215157600892831c92015b600483901c1561216357600492831c92015b600283901c1561217557600292831c92015b600183901c156105285760010192915050565b60008183106121975781610606565b5090919050565b60006001600160e01b0382111561164a5760405162461bcd60e51b815260206004820152602760248201527f53616665436173743a2076616c756520646f65736e27742066697420696e20326044820152663234206269747360c81b60648201526084016105db565b600060ff8216601f81111561052857604051632cd44ac360e21b815260040160405180910390fd5b82805461223b906125b1565b90600052602060002090601f01602090048101928261225d57600085556122a3565b82601f1061227657805160ff19168380011785556122a3565b828001600101855582156122a3579182015b828111156122a3578251825591602001919060010190612288565b5061164a9291505b8082111561164a57600081556001016122ab565b6000815180845260005b818110156122e5576020818501810151868301820152016122c9565b818111156122f7576000602083870101525b50601f01601f19169290920160200192915050565b60208152600061060660208301846122bf565b80356001600160a01b038116811461233657600080fd5b919050565b6000806040838503121561234e57600080fd5b6123578361231f565b946020939093013593505050565b60008060006060848603121561237a57600080fd5b6123838461231f565b92506123916020850161231f565b9150604084013590509250925092565b6000602082840312156123b357600080fd5b6106068261231f565b6000602082840312156123ce57600080fd5b5035919050565b60ff60f81b881681526000602060e0818401526123f560e084018a6122bf565b8381036040850152612407818a6122bf565b606085018990526001600160a01b038816608086015260a0850187905284810360c0860152855180825283870192509083019060005b818110156124595783518352928401929184019160010161243d565b50909c9b505050505050505050505050565b803560ff8116811461233657600080fd5b60008060008060008060c0878903121561249557600080fd5b61249e8761231f565b955060208701359450604087013593506124ba6060880161246b565b92506080870135915060a087013590509295509295509295565b600080600080600080600060e0888a0312156124ef57600080fd5b6124f88861231f565b96506125066020890161231f565b955060408801359450606088013593506125226080890161246b565b925060a0880135915060c0880135905092959891949750929550565b6000806040838503121561255157600080fd5b61255a8361231f565b91506125686020840161231f565b90509250929050565b6000806040838503121561258457600080fd5b61258d8361231f565b9150602083013563ffffffff811681146125a657600080fd5b809150509250929050565b600181811c908216806125c557607f821691505b6020821081141561185a57634e487b7160e01b600052602260045260246000fd5b634e487b7160e01b600052601160045260246000fd5b6000821982111561260f5761260f6125e6565b500190565b60006020828403121561262657600080fd5b5051919050565b6000816000190483118215151615612647576126476125e6565b500290565b634e487b7160e01b600052601260045260246000fd5b60008261267f57634e487b7160e01b600052601260045260246000fd5b500490565b60006020828403121561269657600080fd5b8151801515811461060657600080fd5b634e487b7160e01b600052603260045260246000fd5b6000828210156126ce576126ce6125e6565b500390565b8051602080830151919081101561185a5760001960209190910360031b1b16919050565b634e487b7160e01b600052602160045260246000fdfea26469706673582212201565fa221fe6595b6fb51f1f1d773e0ca45b327e71fb2134fb1f029a90ccab5a64736f6c63430008090033",
  "immutableReferences": {
    "4772": [
      {
        "length": 32,
        "start": 4935
      }
    ],
    "4774": [
      {
        "length": 32,
        "start": 4893
      }
    ],
    "4776": [
      {
        "length": 32,
        "start": 4851
      }
    ],
    "4778": [
      {
        "length": 32,
        "start": 5016
      }
    ],
    "4780": [
      {
        "length": 32,
        "start": 5056
      }
    ],
    "4783": [
      {
        "length": 32,
        "start": 2166
      }
    ],
    "4786": [
      {
        "length": 32,
        "start": 2209
      }
    ],
    "24295": [
      {
        "length": 32,
        "start": 545
      },
      {
        "length": 32,
        "start": 1754
      },
      {
        "length": 32,
        "start": 1944
      },
      {
        "length": 32,
        "start": 2703
      },
      {
        "length": 32,
        "start": 2939
      }
    ]
  },
  "source": "// SPDX-License-Identifier: MIT\npragma solidity 0.8.9;\n\nimport \"@openzeppelin/contracts/token/ERC20/IERC20.sol\";\nimport \"@openzeppelin/contracts/token/ERC20/extensions/ERC20Votes.sol\";\nimport \"@openzeppelin/contracts/security/ReentrancyGuard.sol\";\nimport \"../shared/ProtocolConstants.sol\";\n\ncontract XVader is ProtocolConstants, ERC20Votes, ReentrancyGuard {\n    // Address of vader token\n    IERC20 public immutable vader;\n\n    /*\n     * @dev Initializes contract's state by setting vader's tokens address and\n     * setting current token's name and symbol.\n     **/\n    constructor(IERC20 _vader)\n        ERC20Permit(\"XVader\")\n        ERC20(\"XVader\", \"xVADER\")\n    {\n        require(\n            _vader != IERC20(_ZERO_ADDRESS),\n            \"XVader::constructor: _vader cannot be a zero address\"\n        );\n        vader = _vader;\n    }\n\n    // Locks vader and mints xVader\n    function enter(uint256 _amount) external nonReentrant {\n        // Gets the amount of vader locked in the contract\n        uint256 totalVader = vader.balanceOf(address(this));\n        // Gets the amount of xVader in existence\n        uint256 totalShares = totalSupply();\n\n        uint256 xVADERToMint = totalShares == 0 || totalVader == 0\n            // If no xVader exists, mint it 1:1 to the amount put in\n            ? _amount\n            // Calculate and mint the amount of xVader the vader is worth.\n            // The ratio will change overtime, as xVader is burned/minted and\n            // vader deposited + gained from fees / withdrawn.\n            : (_amount * totalShares) / totalVader;\n\n        _mint(msg.sender, xVADERToMint);\n\n        // Lock the vader in the contract\n        vader.transferFrom(msg.sender, address(this), _amount);\n    }\n\n    // Claim back your VADER\n    // Unlocks the staked + gained vader and burns xVader\n    function leave(uint256 _shares) external nonReentrant {\n        // Calculates the amount of vader the xVader is worth\n        uint vaderAmount = (_shares * vader.balanceOf(address(this))) / totalSupply();\n\n        _burn(msg.sender, _shares);\n        vader.transfer(msg.sender, vaderAmount);\n    }\n}",
  "sourcePath": "/home/mingyue/sub_contract_content/Web3Bugs/contracts/52/contracts/x-vader/XVader.sol",
  "compiler": {
    "name": "solc",
    "version": "0.8.9+commit.e5eed63a.Emscripten.clang"
  },
  "schemaVersion": "3.4.16",
  "updatedAt": "2025-03-06T07:23:55.103Z",
  "devdoc": {
    "kind": "dev",
    "methods": {
      "CLOCK_MODE()": {
        "details": "Description of the clock"
      },
      "DOMAIN_SEPARATOR()": {
        "details": "Returns the domain separator used in the encoding of the signature for {permit}, as defined by {EIP712}."
      },
      "allowance(address,address)": {
        "details": "See {IERC20-allowance}."
      },
      "approve(address,uint256)": {
        "details": "See {IERC20-approve}. NOTE: If `amount` is the maximum `uint256`, the allowance is not updated on `transferFrom`. This is semantically equivalent to an infinite approval. Requirements: - `spender` cannot be the zero address."
      },
      "balanceOf(address)": {
        "details": "See {IERC20-balanceOf}."
      },
      "checkpoints(address,uint32)": {
        "details": "Get the `pos`-th checkpoint for `account`."
      },
      "clock()": {
        "details": "Clock used for flagging checkpoints. Can be overridden to implement timestamp based checkpoints (and voting)."
      },
      "decimals()": {
        "details": "Returns the number of decimals used to get its user representation. For example, if `decimals` equals `2`, a balance of `505` tokens should be displayed to a user as `5.05` (`505 / 10 ** 2`). Tokens usually opt for a value of 18, imitating the relationship between Ether and Wei. This is the default value returned by this function, unless it's overridden. NOTE: This information is only used for _display_ purposes: it in no way affects any of the arithmetic of the contract, including {IERC20-balanceOf} and {IERC20-transfer}."
      },
      "decreaseAllowance(address,uint256)": {
        "details": "Atomically decreases the allowance granted to `spender` by the caller. This is an alternative to {approve} that can be used as a mitigation for problems described in {IERC20-approve}. Emits an {Approval} event indicating the updated allowance. Requirements: - `spender` cannot be the zero address. - `spender` must have allowance for the caller of at least `subtractedValue`."
      },
      "delegate(address)": {
        "details": "Delegate votes from the sender to `delegatee`."
      },
      "delegateBySig(address,uint256,uint256,uint8,bytes32,bytes32)": {
        "details": "Delegates votes from signer to `delegatee`"
      },
      "delegates(address)": {
        "details": "Get the address `account` is currently delegating to."
      },
      "eip712Domain()": {
        "details": "See {EIP-5267}. _Available since v4.9._"
      },
      "getPastTotalSupply(uint256)": {
        "details": "Retrieve the `totalSupply` at the end of `timepoint`. Note, this value is the sum of all balances. It is NOT the sum of all the delegated votes! Requirements: - `timepoint` must be in the past"
      },
      "getPastVotes(address,uint256)": {
        "details": "Retrieve the number of votes for `account` at the end of `timepoint`. Requirements: - `timepoint` must be in the past"
      },
      "getVotes(address)": {
        "details": "Gets the current votes balance for `account`"
      },
      "increaseAllowance(address,uint256)": {
        "details": "Atomically increases the allowance granted to `spender` by the caller. This is an alternative to {approve} that can be used as a mitigation for problems described in {IERC20-approve}. Emits an {Approval} event indicating the updated allowance. Requirements: - `spender` cannot be the zero address."
      },
      "name()": {
        "details": "Returns the name of the token."
      },
      "nonces(address)": {
        "details": "Returns the current nonce for `owner`. This value must be included whenever a signature is generated for {permit}. Every successful call to {permit} increases ``owner``'s nonce by one. This prevents a signature from being used multiple times."
      },
      "numCheckpoints(address)": {
        "details": "Get number of checkpoints for `account`."
      },
      "permit(address,address,uint256,uint256,uint8,bytes32,bytes32)": {
        "details": "Sets `value` as the allowance of `spender` over ``owner``'s tokens, given ``owner``'s signed approval. IMPORTANT: The same issues {IERC20-approve} has related to transaction ordering also apply here. Emits an {Approval} event. Requirements: - `spender` cannot be the zero address. - `deadline` must be a timestamp in the future. - `v`, `r` and `s` must be a valid `secp256k1` signature from `owner` over the EIP712-formatted function arguments. - the signature must use ``owner``'s current nonce (see {nonces}). For more information on the signature format, see the https://eips.ethereum.org/EIPS/eip-2612#specification[relevant EIP section]. CAUTION: See Security Considerations above."
      },
      "symbol()": {
        "details": "Returns the symbol of the token, usually a shorter version of the name."
      },
      "totalSupply()": {
        "details": "See {IERC20-totalSupply}."
      },
      "transfer(address,uint256)": {
        "details": "See {IERC20-transfer}. Requirements: - `to` cannot be the zero address. - the caller must have a balance of at least `amount`."
      },
      "transferFrom(address,address,uint256)": {
        "details": "See {IERC20-transferFrom}. Emits an {Approval} event indicating the updated allowance. This is not required by the EIP. See the note at the beginning of {ERC20}. NOTE: Does not update the allowance if the current allowance is the maximum `uint256`. Requirements: - `from` and `to` cannot be the zero address. - `from` must have a balance of at least `amount`. - the caller must have allowance for ``from``'s tokens of at least `amount`."
      }
    },
    "version": 1
  },
  "userdoc": {
    "kind": "user",
    "methods": {},
    "version": 1
  }
}