{"abi":[{"type":"function","name":"decimals","inputs":[],"outputs":[{"name":"","type":"uint8","internalType":"uint8"}],"stateMutability":"view"},{"type":"function","name":"description","inputs":[],"outputs":[{"name":"","type":"string","internalType":"string"}],"stateMutability":"view"},{"type":"function","name":"getRoundData","inputs":[{"name":"","type":"uint80","internalType":"uint80"}],"outputs":[{"name":"","type":"uint80","internalType":"uint80"},{"name":"","type":"int256","internalType":"int256"},{"name":"","type":"uint256","internalType":"uint256"},{"name":"","type":"uint256","internalType":"uint256"},{"name":"","type":"uint80","internalType":"uint80"}],"stateMutability":"view"},{"type":"function","name":"latestRoundData","inputs":[],"outputs":[{"name":"roundId","type":"uint80","internalType":"uint80"},{"name":"answer","type":"int256","internalType":"int256"},{"name":"startedAt","type":"uint256","internalType":"uint256"},{"name":"updatedAt","type":"uint256","internalType":"uint256"},{"name":"answeredInRound","type":"uint80","internalType":"uint80"}],"stateMutability":"view"},{"type":"function","name":"setValue","inputs":[{"name":"newVal","type":"int256","internalType":"int256"}],"outputs":[],"stateMutability":"nonpayable"},{"type":"function","name":"value","inputs":[],"outputs":[{"name":"","type":"int256","internalType":"int256"}],"stateMutability":"view"},{"type":"function","name":"version","inputs":[],"outputs":[{"name":"","type":"uint256","internalType":"uint256"}],"stateMutability":"view"}],"bytecode":{"object":"0x6080604052600360005560016003556005600460006101000a81548169ffffffffffffffffffff021916908369ffffffffffffffffffff16021790555034801561004857600080fd5b506103a7806100586000396000f3fe608060405234801561001057600080fd5b506004361061007d5760003560e01c806354fd4d501161005b57806354fd4d50146100ef5780637284e4161461010d5780639a6fc8f514610190578063feaf968c146102125761007d565b8063313ce567146100825780633fa4f245146100a35780635093dc7d146100c1575b600080fd5b61008a610264565b604051808260ff16815260200191505060405180910390f35b6100ab610277565b6040518082815260200191505060405180910390f35b6100ed600480360360208110156100d757600080fd5b810190808035906020019092919050505061027d565b005b6100f7610287565b6040518082815260200191505060405180910390f35b61011561028d565b6040518080602001828103825283818151815260200191508051906020019080838360005b8381101561015557808201518184015260208101905061013a565b50505050905090810190601f1680156101825780820380516001836020036101000a031916815260200191505b509250505060405180910390f35b6101c8600480360360208110156101a657600080fd5b81019080803569ffffffffffffffffffff16906020019092919050505061032b565b604051808669ffffffffffffffffffff1681526020018581526020018481526020018381526020018269ffffffffffffffffffff1681526020019550505050505060405180910390f35b61021a61034f565b604051808669ffffffffffffffffffff1681526020018581526020018481526020018381526020018269ffffffffffffffffffff1681526020019550505050505060405180910390f35b600160009054906101000a900460ff1681565b60035481565b8060038190555050565b60005481565b60028054600181600116156101000203166002900480601f0160208091040260200160405190810160405280929190818152602001828054600181600116156101000203166002900480156103235780601f106102f857610100808354040283529160200191610323565b820191906000526020600020905b81548152906001019060200180831161030657829003601f168201915b505050505081565b60008060008060008060035460008060009450945094509450945091939590929450565b600080600080600080600354600080600094509450945094509450909192939456fea2646970667358221220c390cb19b3b0c57f66b199f12ff5c2a891a6d959cd92c3b360bd3b0820a2a13d64736f6c63430007060033","linkReferences":{}},"methodIdentifiers":{"decimals()":"313ce567","description()":"7284e416","getRoundData(uint80)":"9a6fc8f5","latestRoundData()":"feaf968c","setValue(int256)":"5093dc7d","value()":"3fa4f245","version()":"54fd4d50"},"id":40}