{
  "_format": "hh-sol-artifact-1",
  "contractName": "RCFactory",
  "sourceName": "contracts/RCFactory.sol",
  "abi": [
    {
      "inputs": [
        {
          "internalType": "contract IRCTreasury",
          "name": "_treasury",
          "type": "address"
        },
        {
          "internalType": "address",
          "name": "_realitioAddress",
          "type": "address"
        },
        {
          "internalType": "address",
          "name": "_arbitratorAddress",
          "type": "address"
        }
      ],
      "stateMutability": "nonpayable",
      "type": "constructor"
    },
    {
      "anonymous": false,
      "inputs": [
        {
          "indexed": false,
          "internalType": "address",
          "name": "market",
          "type": "address"
        },
        {
          "indexed": false,
          "internalType": "bool",
          "name": "approved",
          "type": "bool"
        }
      ],
      "name": "LogMarketApproved",
      "type": "event"
    },
    {
      "anonymous": false,
      "inputs": [
        {
          "indexed": false,
          "internalType": "address",
          "name": "contractAddress",
          "type": "address"
        },
        {
          "indexed": false,
          "internalType": "address",
          "name": "treasuryAddress",
          "type": "address"
        },
        {
          "indexed": false,
          "internalType": "address",
          "name": "nftHubAddress",
          "type": "address"
        },
        {
          "indexed": false,
          "internalType": "uint256",
          "name": "referenceContractVersion",
          "type": "uint256"
        }
      ],
      "name": "LogMarketCreated1",
      "type": "event"
    },
    {
      "anonymous": false,
      "inputs": [
        {
          "indexed": false,
          "internalType": "address",
          "name": "contractAddress",
          "type": "address"
        },
        {
          "indexed": false,
          "internalType": "enum IRCMarket.Mode",
          "name": "mode",
          "type": "uint8"
        },
        {
          "indexed": false,
          "internalType": "string[]",
          "name": "tokenURIs",
          "type": "string[]"
        },
        {
          "indexed": false,
          "internalType": "string",
          "name": "ipfsHash",
          "type": "string"
        },
        {
          "indexed": false,
          "internalType": "uint32[]",
          "name": "timestamps",
          "type": "uint32[]"
        },
        {
          "indexed": false,
          "internalType": "uint256",
          "name": "totalNftMintCount",
          "type": "uint256"
        }
      ],
      "name": "LogMarketCreated2",
      "type": "event"
    },
    {
      "anonymous": false,
      "inputs": [
        {
          "indexed": false,
          "internalType": "uint256",
          "name": "_newAdvancedWarning",
          "type": "uint256"
        },
        {
          "indexed": false,
          "internalType": "uint256",
          "name": "_newMinimumDuration",
          "type": "uint256"
        },
        {
          "indexed": false,
          "internalType": "uint256",
          "name": "_newMaximumDuration",
          "type": "uint256"
        }
      ],
      "name": "LogMarketTimeRestrictions",
      "type": "event"
    },
    {
      "anonymous": false,
      "inputs": [
        {
          "indexed": false,
          "internalType": "uint256",
          "name": "_cardId",
          "type": "uint256"
        },
        {
          "indexed": false,
          "internalType": "address",
          "name": "_market",
          "type": "address"
        },
        {
          "indexed": false,
          "internalType": "uint256",
          "name": "_tokenId",
          "type": "uint256"
        }
      ],
      "name": "LogMintNFT",
      "type": "event"
    },
    {
      "anonymous": false,
      "inputs": [
        {
          "indexed": false,
          "internalType": "uint256",
          "name": "_originalTokenId",
          "type": "uint256"
        },
        {
          "indexed": false,
          "internalType": "address",
          "name": "_newOwner",
          "type": "address"
        },
        {
          "indexed": false,
          "internalType": "uint256",
          "name": "_newTokenId",
          "type": "uint256"
        }
      ],
      "name": "LogMintNFTCopy",
      "type": "event"
    },
    {
      "anonymous": false,
      "inputs": [
        {
          "indexed": false,
          "internalType": "address",
          "name": "userAddress",
          "type": "address"
        },
        {
          "indexed": false,
          "internalType": "address",
          "name": "relayerAddress",
          "type": "address"
        },
        {
          "indexed": false,
          "internalType": "bytes",
          "name": "functionSignature",
          "type": "bytes"
        }
      ],
      "name": "MetaTransactionExecuted",
      "type": "event"
    },
    {
      "inputs": [],
      "name": "AFFILIATE",
      "outputs": [
        {
          "internalType": "bytes32",
          "name": "",
          "type": "bytes32"
        }
      ],
      "stateMutability": "view",
      "type": "function"
    },
    {
      "inputs": [],
      "name": "ARTIST",
      "outputs": [
        {
          "internalType": "bytes32",
          "name": "",
          "type": "bytes32"
        }
      ],
      "stateMutability": "view",
      "type": "function"
    },
    {
      "inputs": [],
      "name": "CARD_AFFILIATE",
      "outputs": [
        {
          "internalType": "bytes32",
          "name": "",
          "type": "bytes32"
        }
      ],
      "stateMutability": "view",
      "type": "function"
    },
    {
      "inputs": [],
      "name": "GOVERNOR",
      "outputs": [
        {
          "internalType": "bytes32",
          "name": "",
          "type": "bytes32"
        }
      ],
      "stateMutability": "view",
      "type": "function"
    },
    {
      "inputs": [],
      "name": "MARKET",
      "outputs": [
        {
          "internalType": "bytes32",
          "name": "",
          "type": "bytes32"
        }
      ],
      "stateMutability": "view",
      "type": "function"
    },
    {
      "inputs": [],
      "name": "ORDERBOOK",
      "outputs": [
        {
          "internalType": "bytes32",
          "name": "",
          "type": "bytes32"
        }
      ],
      "stateMutability": "view",
      "type": "function"
    },
    {
      "inputs": [],
      "name": "OWNER",
      "outputs": [
        {
          "internalType": "bytes32",
          "name": "",
          "type": "bytes32"
        }
      ],
      "stateMutability": "view",
      "type": "function"
    },
    {
      "inputs": [],
      "name": "PER_MILLE",
      "outputs": [
        {
          "internalType": "uint256",
          "name": "",
          "type": "uint256"
        }
      ],
      "stateMutability": "view",
      "type": "function"
    },
    {
      "inputs": [],
      "name": "TREASURY",
      "outputs": [
        {
          "internalType": "bytes32",
          "name": "",
          "type": "bytes32"
        }
      ],
      "stateMutability": "view",
      "type": "function"
    },
    {
      "inputs": [],
      "name": "UBER_OWNER",
      "outputs": [
        {
          "internalType": "bytes32",
          "name": "",
          "type": "bytes32"
        }
      ],
      "stateMutability": "view",
      "type": "function"
    },
    {
      "inputs": [
        {
          "internalType": "address",
          "name": "_newAffiliate",
          "type": "address"
        }
      ],
      "name": "addAffiliate",
      "outputs": [],
      "stateMutability": "nonpayable",
      "type": "function"
    },
    {
      "inputs": [
        {
          "internalType": "address",
          "name": "_newArtist",
          "type": "address"
        }
      ],
      "name": "addArtist",
      "outputs": [],
      "stateMutability": "nonpayable",
      "type": "function"
    },
    {
      "inputs": [
        {
          "internalType": "address",
          "name": "",
          "type": "address"
        }
      ],
      "name": "addressToSlug",
      "outputs": [
        {
          "internalType": "string",
          "name": "",
          "type": "string"
        }
      ],
      "stateMutability": "view",
      "type": "function"
    },
    {
      "inputs": [],
      "name": "advancedWarning",
      "outputs": [
        {
          "internalType": "uint32",
          "name": "",
          "type": "uint32"
        }
      ],
      "stateMutability": "view",
      "type": "function"
    },
    {
      "inputs": [],
      "name": "approvedAffiliatesOnly",
      "outputs": [
        {
          "internalType": "bool",
          "name": "",
          "type": "bool"
        }
      ],
      "stateMutability": "view",
      "type": "function"
    },
    {
      "inputs": [],
      "name": "approvedArtistsOnly",
      "outputs": [
        {
          "internalType": "bool",
          "name": "",
          "type": "bool"
        }
      ],
      "stateMutability": "view",
      "type": "function"
    },
    {
      "inputs": [],
      "name": "arbitrator",
      "outputs": [
        {
          "internalType": "address",
          "name": "",
          "type": "address"
        }
      ],
      "stateMutability": "view",
      "type": "function"
    },
    {
      "inputs": [],
      "name": "cardLimit",
      "outputs": [
        {
          "internalType": "uint256",
          "name": "",
          "type": "uint256"
        }
      ],
      "stateMutability": "view",
      "type": "function"
    },
    {
      "inputs": [],
      "name": "changeApprovedAffilliatesOnly",
      "outputs": [],
      "stateMutability": "nonpayable",
      "type": "function"
    },
    {
      "inputs": [],
      "name": "changeApprovedArtistsOnly",
      "outputs": [],
      "stateMutability": "nonpayable",
      "type": "function"
    },
    {
      "inputs": [
        {
          "internalType": "address",
          "name": "_market",
          "type": "address"
        }
      ],
      "name": "changeMarketApproval",
      "outputs": [],
      "stateMutability": "nonpayable",
      "type": "function"
    },
    {
      "inputs": [],
      "name": "changeMarketCreationGovernorsOnly",
      "outputs": [],
      "stateMutability": "nonpayable",
      "type": "function"
    },
    {
      "inputs": [
        {
          "internalType": "uint32",
          "name": "_mode",
          "type": "uint32"
        },
        {
          "internalType": "string",
          "name": "_ipfsHash",
          "type": "string"
        },
        {
          "internalType": "string",
          "name": "_slug",
          "type": "string"
        },
        {
          "internalType": "uint32[]",
          "name": "_timestamps",
          "type": "uint32[]"
        },
        {
          "internalType": "string[]",
          "name": "_tokenURIs",
          "type": "string[]"
        },
        {
          "internalType": "address",
          "name": "_artistAddress",
          "type": "address"
        },
        {
          "internalType": "address",
          "name": "_affiliateAddress",
          "type": "address"
        },
        {
          "internalType": "address[]",
          "name": "_cardAffiliateAddresses",
          "type": "address[]"
        },
        {
          "internalType": "string",
          "name": "_realitioQuestion",
          "type": "string"
        },
        {
          "internalType": "uint256",
          "name": "_sponsorship",
          "type": "uint256"
        }
      ],
      "name": "createMarket",
      "outputs": [
        {
          "internalType": "address",
          "name": "",
          "type": "address"
        }
      ],
      "stateMutability": "nonpayable",
      "type": "function"
    },
    {
      "inputs": [
        {
          "internalType": "address",
          "name": "userAddress",
          "type": "address"
        },
        {
          "internalType": "bytes",
          "name": "functionSignature",
          "type": "bytes"
        },
        {
          "internalType": "bytes32",
          "name": "sigR",
          "type": "bytes32"
        },
        {
          "internalType": "bytes32",
          "name": "sigS",
          "type": "bytes32"
        },
        {
          "internalType": "uint8",
          "name": "sigV",
          "type": "uint8"
        }
      ],
      "name": "executeMetaTransaction",
      "outputs": [
        {
          "internalType": "bytes",
          "name": "",
          "type": "bytes"
        }
      ],
      "stateMutability": "payable",
      "type": "function"
    },
    {
      "inputs": [
        {
          "internalType": "enum IRCMarket.Mode",
          "name": "_mode",
          "type": "uint8"
        }
      ],
      "name": "getAllMarkets",
      "outputs": [
        {
          "internalType": "address[]",
          "name": "",
          "type": "address[]"
        }
      ],
      "stateMutability": "view",
      "type": "function"
    },
    {
      "inputs": [],
      "name": "getChainId",
      "outputs": [
        {
          "internalType": "uint256",
          "name": "",
          "type": "uint256"
        }
      ],
      "stateMutability": "view",
      "type": "function"
    },
    {
      "inputs": [],
      "name": "getDomainSeperator",
      "outputs": [
        {
          "internalType": "bytes32",
          "name": "",
          "type": "bytes32"
        }
      ],
      "stateMutability": "view",
      "type": "function"
    },
    {
      "inputs": [
        {
          "internalType": "enum IRCMarket.Mode",
          "name": "_mode",
          "type": "uint8"
        },
        {
          "internalType": "uint256",
          "name": "_state",
          "type": "uint256"
        },
        {
          "internalType": "uint256",
          "name": "_skipResults",
          "type": "uint256"
        }
      ],
      "name": "getMarketInfo",
      "outputs": [
        {
          "internalType": "address[]",
          "name": "",
          "type": "address[]"
        },
        {
          "internalType": "string[]",
          "name": "",
          "type": "string[]"
        },
        {
          "internalType": "string[]",
          "name": "",
          "type": "string[]"
        },
        {
          "internalType": "uint256[]",
          "name": "",
          "type": "uint256[]"
        }
      ],
      "stateMutability": "view",
      "type": "function"
    },
    {
      "inputs": [
        {
          "internalType": "enum IRCMarket.Mode",
          "name": "_mode",
          "type": "uint8"
        }
      ],
      "name": "getMostRecentMarket",
      "outputs": [
        {
          "internalType": "address",
          "name": "",
          "type": "address"
        }
      ],
      "stateMutability": "view",
      "type": "function"
    },
    {
      "inputs": [
        {
          "internalType": "address",
          "name": "user",
          "type": "address"
        }
      ],
      "name": "getNonce",
      "outputs": [
        {
          "internalType": "uint256",
          "name": "nonce",
          "type": "uint256"
        }
      ],
      "stateMutability": "view",
      "type": "function"
    },
    {
      "inputs": [],
      "name": "getOracleSettings",
      "outputs": [
        {
          "internalType": "contract IRealitio",
          "name": "",
          "type": "address"
        },
        {
          "internalType": "address",
          "name": "",
          "type": "address"
        },
        {
          "internalType": "uint32",
          "name": "",
          "type": "uint32"
        }
      ],
      "stateMutability": "view",
      "type": "function"
    },
    {
      "inputs": [],
      "name": "getPotDistribution",
      "outputs": [
        {
          "internalType": "uint256[5]",
          "name": "",
          "type": "uint256[5]"
        }
      ],
      "stateMutability": "view",
      "type": "function"
    },
    {
      "inputs": [
        {
          "internalType": "address",
          "name": "",
          "type": "address"
        }
      ],
      "name": "ipfsHash",
      "outputs": [
        {
          "internalType": "string",
          "name": "",
          "type": "string"
        }
      ],
      "stateMutability": "view",
      "type": "function"
    },
    {
      "inputs": [
        {
          "internalType": "address",
          "name": "",
          "type": "address"
        }
      ],
      "name": "isMarketApproved",
      "outputs": [
        {
          "internalType": "bool",
          "name": "",
          "type": "bool"
        }
      ],
      "stateMutability": "view",
      "type": "function"
    },
    {
      "inputs": [],
      "name": "leaderboard",
      "outputs": [
        {
          "internalType": "contract IRCLeaderboard",
          "name": "",
          "type": "address"
        }
      ],
      "stateMutability": "view",
      "type": "function"
    },
    {
      "inputs": [
        {
          "internalType": "enum IRCMarket.Mode",
          "name": "",
          "type": "uint8"
        },
        {
          "internalType": "uint256",
          "name": "",
          "type": "uint256"
        }
      ],
      "name": "marketAddresses",
      "outputs": [
        {
          "internalType": "address",
          "name": "",
          "type": "address"
        }
      ],
      "stateMutability": "view",
      "type": "function"
    },
    {
      "inputs": [],
      "name": "marketCreationGovernorsOnly",
      "outputs": [
        {
          "internalType": "bool",
          "name": "",
          "type": "bool"
        }
      ],
      "stateMutability": "view",
      "type": "function"
    },
    {
      "inputs": [],
      "name": "marketInfoResults",
      "outputs": [
        {
          "internalType": "uint256",
          "name": "",
          "type": "uint256"
        }
      ],
      "stateMutability": "view",
      "type": "function"
    },
    {
      "inputs": [],
      "name": "marketPausedDefaultState",
      "outputs": [
        {
          "internalType": "bool",
          "name": "",
          "type": "bool"
        }
      ],
      "stateMutability": "view",
      "type": "function"
    },
    {
      "inputs": [],
      "name": "maxRentIterations",
      "outputs": [
        {
          "internalType": "uint256",
          "name": "",
          "type": "uint256"
        }
      ],
      "stateMutability": "view",
      "type": "function"
    },
    {
      "inputs": [],
      "name": "maxRentIterationsToLockMarket",
      "outputs": [
        {
          "internalType": "uint256",
          "name": "",
          "type": "uint256"
        }
      ],
      "stateMutability": "view",
      "type": "function"
    },
    {
      "inputs": [],
      "name": "maximumDuration",
      "outputs": [
        {
          "internalType": "uint32",
          "name": "",
          "type": "uint32"
        }
      ],
      "stateMutability": "view",
      "type": "function"
    },
    {
      "inputs": [],
      "name": "minimumDuration",
      "outputs": [
        {
          "internalType": "uint32",
          "name": "",
          "type": "uint32"
        }
      ],
      "stateMutability": "view",
      "type": "function"
    },
    {
      "inputs": [],
      "name": "minimumPriceIncreasePercent",
      "outputs": [
        {
          "internalType": "uint256",
          "name": "",
          "type": "uint256"
        }
      ],
      "stateMutability": "view",
      "type": "function"
    },
    {
      "inputs": [
        {
          "internalType": "address",
          "name": "_user",
          "type": "address"
        },
        {
          "internalType": "uint256",
          "name": "_cardId",
          "type": "uint256"
        }
      ],
      "name": "mintCopyOfNFT",
      "outputs": [],
      "stateMutability": "nonpayable",
      "type": "function"
    },
    {
      "inputs": [
        {
          "internalType": "uint256",
          "name": "_card",
          "type": "uint256"
        }
      ],
      "name": "mintMarketNFT",
      "outputs": [],
      "stateMutability": "nonpayable",
      "type": "function"
    },
    {
      "inputs": [],
      "name": "nfthub",
      "outputs": [
        {
          "internalType": "contract IRCNftHubL2",
          "name": "",
          "type": "address"
        }
      ],
      "stateMutability": "view",
      "type": "function"
    },
    {
      "inputs": [],
      "name": "nftsToAward",
      "outputs": [
        {
          "internalType": "uint256",
          "name": "",
          "type": "uint256"
        }
      ],
      "stateMutability": "view",
      "type": "function"
    },
    {
      "inputs": [],
      "name": "orderbook",
      "outputs": [
        {
          "internalType": "contract IRCOrderbook",
          "name": "",
          "type": "address"
        }
      ],
      "stateMutability": "view",
      "type": "function"
    },
    {
      "inputs": [
        {
          "internalType": "uint256",
          "name": "",
          "type": "uint256"
        }
      ],
      "name": "potDistribution",
      "outputs": [
        {
          "internalType": "uint256",
          "name": "",
          "type": "uint256"
        }
      ],
      "stateMutability": "view",
      "type": "function"
    },
    {
      "inputs": [],
      "name": "realitio",
      "outputs": [
        {
          "internalType": "contract IRealitio",
          "name": "",
          "type": "address"
        }
      ],
      "stateMutability": "view",
      "type": "function"
    },
    {
      "inputs": [],
      "name": "referenceContractAddress",
      "outputs": [
        {
          "internalType": "address",
          "name": "",
          "type": "address"
        }
      ],
      "stateMutability": "view",
      "type": "function"
    },
    {
      "inputs": [],
      "name": "referenceContractVersion",
      "outputs": [
        {
          "internalType": "uint256",
          "name": "",
          "type": "uint256"
        }
      ],
      "stateMutability": "view",
      "type": "function"
    },
    {
      "inputs": [
        {
          "internalType": "address",
          "name": "_oldAffiliate",
          "type": "address"
        }
      ],
      "name": "removeAffiliate",
      "outputs": [],
      "stateMutability": "nonpayable",
      "type": "function"
    },
    {
      "inputs": [
        {
          "internalType": "address",
          "name": "_oldArtist",
          "type": "address"
        }
      ],
      "name": "removeArtist",
      "outputs": [],
      "stateMutability": "nonpayable",
      "type": "function"
    },
    {
      "inputs": [
        {
          "internalType": "address",
          "name": "_newAddress",
          "type": "address"
        }
      ],
      "name": "setArbitrator",
      "outputs": [],
      "stateMutability": "nonpayable",
      "type": "function"
    },
    {
      "inputs": [
        {
          "internalType": "uint256",
          "name": "_cardLimit",
          "type": "uint256"
        }
      ],
      "name": "setCardLimit",
      "outputs": [],
      "stateMutability": "nonpayable",
      "type": "function"
    },
    {
      "inputs": [
        {
          "internalType": "contract IRCLeaderboard",
          "name": "_newLeaderboard",
          "type": "address"
        }
      ],
      "name": "setLeaderboardAddress",
      "outputs": [],
      "stateMutability": "nonpayable",
      "type": "function"
    },
    {
      "inputs": [
        {
          "internalType": "uint256",
          "name": "_results",
          "type": "uint256"
        }
      ],
      "name": "setMarketInfoResults",
      "outputs": [],
      "stateMutability": "nonpayable",
      "type": "function"
    },
    {
      "inputs": [
        {
          "internalType": "bool",
          "name": "_state",
          "type": "bool"
        }
      ],
      "name": "setMarketPausedDefaultState",
      "outputs": [],
      "stateMutability": "nonpayable",
      "type": "function"
    },
    {
      "inputs": [
        {
          "internalType": "uint32",
          "name": "_newAdvancedWarning",
          "type": "uint32"
        },
        {
          "internalType": "uint32",
          "name": "_newMinimumDuration",
          "type": "uint32"
        },
        {
          "internalType": "uint32",
          "name": "_newMaximumDuration",
          "type": "uint32"
        }
      ],
      "name": "setMarketTimeRestrictions",
      "outputs": [],
      "stateMutability": "nonpayable",
      "type": "function"
    },
    {
      "inputs": [
        {
          "internalType": "uint256",
          "name": "_rentLimit",
          "type": "uint256"
        },
        {
          "internalType": "uint256",
          "name": "_rentLimitLocking",
          "type": "uint256"
        }
      ],
      "name": "setMaxRentIterations",
      "outputs": [],
      "stateMutability": "nonpayable",
      "type": "function"
    },
    {
      "inputs": [
        {
          "internalType": "uint256",
          "name": "_percentIncrease",
          "type": "uint256"
        }
      ],
      "name": "setMinimumPriceIncreasePercent",
      "outputs": [],
      "stateMutability": "nonpayable",
      "type": "function"
    },
    {
      "inputs": [
        {
          "internalType": "contract IRCNftHubL2",
          "name": "_newAddress",
          "type": "address"
        }
      ],
      "name": "setNftHubAddress",
      "outputs": [],
      "stateMutability": "nonpayable",
      "type": "function"
    },
    {
      "inputs": [
        {
          "internalType": "uint256",
          "name": "_nftsToAward",
          "type": "uint256"
        }
      ],
      "name": "setNumberOfNFTsToAward",
      "outputs": [],
      "stateMutability": "nonpayable",
      "type": "function"
    },
    {
      "inputs": [
        {
          "internalType": "contract IRCOrderbook",
          "name": "_newOrderbook",
          "type": "address"
        }
      ],
      "name": "setOrderbookAddress",
      "outputs": [],
      "stateMutability": "nonpayable",
      "type": "function"
    },
    {
      "inputs": [
        {
          "internalType": "uint256",
          "name": "_artistCut",
          "type": "uint256"
        },
        {
          "internalType": "uint256",
          "name": "_winnerCut",
          "type": "uint256"
        },
        {
          "internalType": "uint256",
          "name": "_creatorCut",
          "type": "uint256"
        },
        {
          "internalType": "uint256",
          "name": "_affiliateCut",
          "type": "uint256"
        },
        {
          "internalType": "uint256",
          "name": "_cardAffiliateCut",
          "type": "uint256"
        }
      ],
      "name": "setPotDistribution",
      "outputs": [],
      "stateMutability": "nonpayable",
      "type": "function"
    },
    {
      "inputs": [
        {
          "internalType": "address",
          "name": "_newAddress",
          "type": "address"
        }
      ],
      "name": "setRealitioAddress",
      "outputs": [],
      "stateMutability": "nonpayable",
      "type": "function"
    },
    {
      "inputs": [
        {
          "internalType": "address",
          "name": "_newAddress",
          "type": "address"
        }
      ],
      "name": "setReferenceContractAddress",
      "outputs": [],
      "stateMutability": "nonpayable",
      "type": "function"
    },
    {
      "inputs": [
        {
          "internalType": "uint256",
          "name": "_amount",
          "type": "uint256"
        }
      ],
      "name": "setSponsorshipRequired",
      "outputs": [],
      "stateMutability": "nonpayable",
      "type": "function"
    },
    {
      "inputs": [
        {
          "internalType": "uint32",
          "name": "_newTimeout",
          "type": "uint32"
        }
      ],
      "name": "setTimeout",
      "outputs": [],
      "stateMutability": "nonpayable",
      "type": "function"
    },
    {
      "inputs": [
        {
          "internalType": "string",
          "name": "",
          "type": "string"
        }
      ],
      "name": "slugToAddress",
      "outputs": [
        {
          "internalType": "address",
          "name": "",
          "type": "address"
        }
      ],
      "stateMutability": "view",
      "type": "function"
    },
    {
      "inputs": [],
      "name": "sponsorshipRequired",
      "outputs": [
        {
          "internalType": "uint256",
          "name": "",
          "type": "uint256"
        }
      ],
      "stateMutability": "view",
      "type": "function"
    },
    {
      "inputs": [],
      "name": "timeout",
      "outputs": [
        {
          "internalType": "uint32",
          "name": "",
          "type": "uint32"
        }
      ],
      "stateMutability": "view",
      "type": "function"
    },
    {
      "inputs": [],
      "name": "treasury",
      "outputs": [
        {
          "internalType": "contract IRCTreasury",
          "name": "",
          "type": "address"
        }
      ],
      "stateMutability": "view",
      "type": "function"
    },
    {
      "inputs": [
        {
          "internalType": "address",
          "name": "_market",
          "type": "address"
        },
        {
          "internalType": "uint256",
          "name": "_cardId",
          "type": "uint256"
        },
        {
          "internalType": "string",
          "name": "_newTokenURI",
          "type": "string"
        },
        {
          "internalType": "string",
          "name": "_newCopyTokenURI",
          "type": "string"
        }
      ],
      "name": "updateTokenURI",
      "outputs": [],
      "stateMutability": "nonpayable",
      "type": "function"
    }
  ],
  "bytecode": "0x6080604052601a805462ffffff60601b19166e0101010000000000000000000000001790553480156200003157600080fd5b5060405162006bbd38038062006bbd833981016040819052620000549162000cfc565b6001600160a01b038316620000a35760405162461bcd60e51b815260206004820152601060248201526f4d75737420736574204164647265737360801b60448201526064015b60405180910390fd5b620001036040518060400160405280601381526020017f5265616c6974794361726473466163746f727900000000000000000000000000815250604051806040016040528060018152602001603160f81b8152506200018f60201b60201c565b600680546001600160a01b0319166001600160a01b03851617905562000130601460008082606462000285565b6200013c600a620003fa565b620001486003620004e8565b620001546064620005d6565b6200016260326019620006c4565b6200016d81620007b8565b620001788262000911565b620001866201518062000a6a565b50505062000dcd565b600054610100900460ff1680620001a9575060005460ff16155b6200020e5760405162461bcd60e51b815260206004820152602e60248201527f496e697469616c697a61626c653a20636f6e747261637420697320616c72656160448201526d191e481a5b9a5d1a585b1a5e995960921b60648201526084016200009a565b600054610100900460ff1615801562000231576000805461ffff19166101011790555b4660025582516200024a90600390602086019062000c2b565b5081516200026090600490602085019062000c2b565b506200026d838362000b7d565b801562000280576000805461ff00191690555b505050565b6006546001600160a01b0316635cc77dd360008051602062006b9d833981519152620002b062000c0e565b6040516001600160e01b031960e085901b16815260048101929092526001600160a01b0316602482015260440160206040518083038186803b158015620002f657600080fd5b505afa1580156200030b573d6000803e3d6000fd5b505050506040513d601f19601f8201168201806040525081019062000331919062000cd1565b6200036e5760405162461bcd60e51b815260206004820152600c60248201526b139bdd08185c1c1c9bdd995960a21b60448201526064016200009a565b6103e881838562000380888a62000d50565b6200038c919062000d50565b62000398919062000d50565b620003a4919062000d50565b1115620003e35760405162461bcd60e51b815260206004820152600c60248201526b4375747320746f6f2062696760a01b60448201526064016200009a565b601294909455601392909255601455601555601655565b6006546001600160a01b0316635cc77dd360008051602062006b9d8339815191526200042562000c0e565b6040516001600160e01b031960e085901b16815260048101929092526001600160a01b0316602482015260440160206040518083038186803b1580156200046b57600080fd5b505afa15801562000480573d6000803e3d6000fd5b505050506040513d601f19601f82011682018060405250810190620004a6919062000cd1565b620004e35760405162461bcd60e51b815260206004820152600c60248201526b139bdd08185c1c1c9bdd995960a21b60448201526064016200009a565b601855565b6006546001600160a01b0316635cc77dd360008051602062006b9d8339815191526200051362000c0e565b6040516001600160e01b031960e085901b16815260048101929092526001600160a01b0316602482015260440160206040518083038186803b1580156200055957600080fd5b505afa1580156200056e573d6000803e3d6000fd5b505050506040513d601f19601f8201168201806040525081019062000594919062000cd1565b620005d15760405162461bcd60e51b815260206004820152600c60248201526b139bdd08185c1c1c9bdd995960a21b60448201526064016200009a565b601955565b6006546001600160a01b0316635cc77dd360008051602062006b9d8339815191526200060162000c0e565b6040516001600160e01b031960e085901b16815260048101929092526001600160a01b0316602482015260440160206040518083038186803b1580156200064757600080fd5b505afa1580156200065c573d6000803e3d6000fd5b505050506040513d601f19601f8201168201806040525081019062000682919062000cd1565b620006bf5760405162461bcd60e51b815260206004820152600c60248201526b139bdd08185c1c1c9bdd995960a21b60448201526064016200009a565b601e55565b6006546001600160a01b0316635cc77dd360008051602062006b9d833981519152620006ef62000c0e565b6040516001600160e01b031960e085901b16815260048101929092526001600160a01b0316602482015260440160206040518083038186803b1580156200073557600080fd5b505afa1580156200074a573d6000803e3d6000fd5b505050506040513d601f19601f8201168201806040525081019062000770919062000cd1565b620007ad5760405162461bcd60e51b815260206004820152600c60248201526b139bdd08185c1c1c9bdd995960a21b60448201526064016200009a565b601b91909155601c55565b6006546001600160a01b0316635cc77dd360008051602062006b9d833981519152620007e362000c0e565b6040516001600160e01b031960e085901b16815260048101929092526001600160a01b0316602482015260440160206040518083038186803b1580156200082957600080fd5b505afa1580156200083e573d6000803e3d6000fd5b505050506040513d601f19601f8201168201806040525081019062000864919062000cd1565b620008a15760405162461bcd60e51b815260206004820152600c60248201526b139bdd08185c1c1c9bdd995960a21b60448201526064016200009a565b6001600160a01b038116620008ef5760405162461bcd60e51b81526020600482015260136024820152724d7573742073657420616e206164647265737360681b60448201526064016200009a565b601d80546001600160a01b0319166001600160a01b0392909216919091179055565b6006546001600160a01b0316635cc77dd360008051602062006b9d8339815191526200093c62000c0e565b6040516001600160e01b031960e085901b16815260048101929092526001600160a01b0316602482015260440160206040518083038186803b1580156200098257600080fd5b505afa15801562000997573d6000803e3d6000fd5b505050506040513d601f19601f82011682018060405250810190620009bd919062000cd1565b620009fa5760405162461bcd60e51b815260206004820152600c60248201526b139bdd08185c1c1c9bdd995960a21b60448201526064016200009a565b6001600160a01b03811662000a485760405162461bcd60e51b81526020600482015260136024820152724d7573742073657420616e206164647265737360681b60448201526064016200009a565b600a80546001600160a01b0319166001600160a01b0392909216919091179055565b6006546001600160a01b0316635cc77dd360008051602062006b9d83398151915262000a9562000c0e565b6040516001600160e01b031960e085901b16815260048101929092526001600160a01b0316602482015260440160206040518083038186803b15801562000adb57600080fd5b505afa15801562000af0573d6000803e3d6000fd5b505050506040513d601f19601f8201168201806040525081019062000b16919062000cd1565b62000b535760405162461bcd60e51b815260206004820152600c60248201526b139bdd08185c1c1c9bdd995960a21b60448201526064016200009a565b601d805463ffffffff909216600160a01b0263ffffffff60a01b19909216919091179055565b4690565b6040518060800160405280604f815260200162006b4e604f913980519060200120828051906020012082805190602001203062000bbf62000b7960201b60201c565b60408051602081019690965285019390935260608401919091526001600160a01b0316608083015260a082015260c00160408051601f1981840301815291905280516020909101206001555050565b60003330141562000c26575060131936013560601c90565b503390565b82805462000c399062000d77565b90600052602060002090601f01602090048101928262000c5d576000855562000ca8565b82601f1062000c7857805160ff191683800117855562000ca8565b8280016001018555821562000ca8579182015b8281111562000ca857825182559160200191906001019062000c8b565b5062000cb692915062000cba565b5090565b5b8082111562000cb6576000815560010162000cbb565b60006020828403121562000ce457600080fd5b8151801515811462000cf557600080fd5b9392505050565b60008060006060848603121562000d1257600080fd5b835162000d1f8162000db4565b602085015190935062000d328162000db4565b604085015190925062000d458162000db4565b809150509250925092565b6000821982111562000d7257634e487b7160e01b600052601160045260246000fd5b500190565b600181811c9082168062000d8c57607f821691505b6020821081141562000dae57634e487b7160e01b600052602260045260246000fd5b50919050565b6001600160a01b038116811462000dca57600080fd5b50565b615d718062000ddd6000396000f3fe6080604052600436106104475760003560e01c8063789dca8911610234578063b0eefabe1161012e578063d8a855c2116100b6578063eb56b7401161007a578063eb56b74014610da2578063f029e7e014610dc2578063f46f16c214610de3578063f8e9eec314610e05578063fa8cb9af14610e4b57600080fd5b8063d8a855c214610d02578063dc80d10414610d22578063e681e40814610d42578063e9308f3a14610d62578063ea761fdd14610d8257600080fd5b8063c5824c76116100fd578063c5824c7614610c64578063c9e9ce3514610c84578063ca4bc9eb14610ca1578063cb247d6214610cc1578063d31d527d14610ce257600080fd5b8063b0eefabe14610bef578063bc8802a214610c0f578063c0811d5d14610c2f578063c18b1d5e14610c4457600080fd5b8063923573ce116101bc578063a8e51a9f11610180578063a8e51a9f14610b2c578063ab9dfb9e14610b4c578063acab31d014610b8d578063acae6ab714610bad578063acf4094a14610bcd57600080fd5b8063923573ce14610aa057806394937a4814610ab6578063978d5b7614610ad65780639a52671114610af6578063a72f528614610b0c57600080fd5b806382817eda1161020357806382817eda146109e157806383d38b7f14610a15578063858435a914610a45578063885ddfd714610a5b5780639165cfbd14610a8b57600080fd5b8063789dca891461096057806378c11e3c14610980578063803d8a00146109a057806381ea4ea6146109c157600080fd5b80633ba3bd25116103455780635bfc0700116102cd5780636f9760a6116102915780636f9760a61461089b57806370dea79a146108bb57806375779b53146108df57806376fc831a146108ff57806378200a1e1461092c57600080fd5b80635bfc0700146107f257806361d027b31461080857806363ec42a4146108285780636cc6cde1146108595780636dc0ae221461087957600080fd5b80634ae4e2b3116103145780634ae4e2b3146107665780634ae54eee1461077c5780634d287f2b1461079c5780635309da99146107bc5780635a0c46de146107d257600080fd5b80633ba3bd25146106ec5780633c73e3591461070c5780633e3ee5a21461072c5780634ad6f0b71461075057600080fd5b80632486ac24116103d357806333a3b7251161039757806333a3b725146106495780633408e4701461065f57806337e006061461067257806339118220146106aa5780633b9ff843146106cc57600080fd5b80632486ac24146105945780632919f2f6146105aa5780632d0335ab146105bf5780632d2c5565146105f55780632e0fe94b1461062957600080fd5b8063117803e31161041a578063117803e3146104e35780631a543ccf146105055780631b549e3e146105255780631e25aa8c1461054557806320379ee51461057f57600080fd5b8063035085261461044c57806309c590561461046e5780630c53c51c146104a357806310082fd5146104c3575b600080fd5b34801561045857600080fd5b5061046c6104673660046152aa565b610e7f565b005b34801561047a57600080fd5b50610490600080516020615d1c83398151915281565b6040519081526020015b60405180910390f35b6104b66104b136600461503e565b611093565b60405161049a919061591f565b3480156104cf57600080fd5b5061046c6104de3660046152aa565b61127d565b3480156104ef57600080fd5b50610490600080516020615cbc83398151915281565b34801561051157600080fd5b5061046c610520366004615186565b611333565b34801561053157600080fd5b5061046c6105403660046152fe565b611402565b34801561055157600080fd5b50601a5461056a90640100000000900463ffffffff1681565b60405163ffffffff909116815260200161049a565b34801561058b57600080fd5b50610490611535565b3480156105a057600080fd5b5061049060175481565b3480156105b657600080fd5b5061046c6115ef565b3480156105cb57600080fd5b506104906105da366004615021565b6001600160a01b031660009081526005602052604090205490565b34801561060157600080fd5b506104907f06aa03964db1f7257357ef09714a5f0ca3633723df419e97015e0c7a3e83edb781565b34801561063557600080fd5b5061046c610644366004615021565b6116c1565b34801561065557600080fd5b50610490601e5481565b34801561066b57600080fd5b5046610490565b34801561067e57600080fd5b50600b54610692906001600160a01b031681565b6040516001600160a01b03909116815260200161049a565b3480156106b657600080fd5b506106bf6117e0565b60405161049a91906158d7565b3480156106d857600080fd5b5061046c6106e7366004615021565b61181b565b3480156106f857600080fd5b5061046c610707366004615021565b611941565b34801561071857600080fd5b50600754610692906001600160a01b031681565b34801561073857600080fd5b50601a5461056a90600160401b900463ffffffff1681565b34801561075c57600080fd5b5061049060185481565b34801561077257600080fd5b50610490601b5481565b34801561078857600080fd5b5061046c610797366004615021565b611a6f565b3480156107a857600080fd5b5061046c6107b7366004615021565b611d0c565b3480156107c857600080fd5b5061049060115481565b3480156107de57600080fd5b5061046c6107ed3660046152aa565b611dfd565b3480156107fe57600080fd5b5061049060195481565b34801561081457600080fd5b50600654610692906001600160a01b031681565b34801561083457600080fd5b50601a5461084990600160701b900460ff1681565b604051901515815260200161049a565b34801561086557600080fd5b50601d54610692906001600160a01b031681565b34801561088557600080fd5b50610490600080516020615cfc83398151915281565b3480156108a757600080fd5b506106926108b63660046151fa565b611eb3565b3480156108c757600080fd5b50601d5461056a90600160a01b900463ffffffff1681565b3480156108eb57600080fd5b5061046c6108fa3660046152aa565b611eeb565b34801561090b57600080fd5b5061091f61091a3660046151c0565b611fa1565b60405161049a9190615846565b34801561093857600080fd5b506104907ffd4feb1bffe856ecab4919d7fde3e54d37812cf1161f31157b5f46ca821b7e0081565b34801561096c57600080fd5b5061046c61097b3660046152aa565b612038565b34801561098c57600080fd5b5061069261099b3660046151c0565b6120ee565b3480156109ac57600080fd5b50601a5461084990600160601b900460ff1681565b3480156109cd57600080fd5b5061046c6109dc366004615021565b612194565b3480156109ed57600080fd5b506104907fb753fbb77d4c8d14c4c381bdfbc2eb6d1410547edecc58d3f703e69b0bb805ec81565b348015610a2157600080fd5b50610a35610a30366004615218565b612285565b60405161049a9493929190615859565b348015610a5157600080fd5b50610490601c5481565b348015610a6757600080fd5b50610849610a76366004615021565b601f6020526000908152604090205460ff1681565b348015610a9757600080fd5b5061046c6127aa565b348015610aac57600080fd5b506104906103e881565b348015610ac257600080fd5b5061046c610ad1366004615021565b61287c565b348015610ae257600080fd5b5061046c610af1366004615021565b612961565b348015610b0257600080fd5b50610490600c5481565b348015610b1857600080fd5b5061046c610b27366004615021565b612a52565b348015610b3857600080fd5b5061046c610b473660046150cf565b612c11565b348015610b5857600080fd5b50610692610b6736600461526e565b8051602081830181018051600f825292820191909301209152546001600160a01b031681565b348015610b9957600080fd5b5061046c610ba83660046152dc565b612eaf565b348015610bb957600080fd5b50610692610bc8366004615373565b612f6b565b348015610bd957600080fd5b50610490600080516020615c0a83398151915281565b348015610bfb57600080fd5b5061046c610c0a366004615021565b6139e1565b348015610c1b57600080fd5b50600a54610692906001600160a01b031681565b348015610c3b57600080fd5b5061046c613b00565b348015610c5057600080fd5b50600854610692906001600160a01b031681565b348015610c7057600080fd5b5061046c610c7f3660046150fb565b613bd2565b348015610c9057600080fd5b50601a5461056a9063ffffffff1681565b348015610cad57600080fd5b506104b6610cbc366004615021565b614207565b348015610ccd57600080fd5b50601d5461084990600160c01b900460ff1681565b348015610cee57600080fd5b506104b6610cfd366004615021565b6142a1565b348015610d0e57600080fd5b50610490610d1d3660046152aa565b6142ba565b348015610d2e57600080fd5b5061046c610d3d366004615339565b6142d1565b348015610d4e57600080fd5b5061046c610d5d3660046154a6565b6143a8565b348015610d6e57600080fd5b5061046c610d7d366004615021565b6144e1565b348015610d8e57600080fd5b5061046c610d9d3660046152aa565b6145c6565b348015610dae57600080fd5b50600954610692906001600160a01b031681565b348015610dce57600080fd5b50601a5461084990600160681b900460ff1681565b348015610def57600080fd5b50610490600080516020615cdc83398151915281565b348015610e1157600080fd5b50600a54601d54604080516001600160a01b0393841681529282166020840152600160a01b90910463ffffffff169082015260600161049a565b348015610e5757600080fd5b506104907f52d1941cacb84b09158c2ca3fd9782d719422cf352918630ece583c0581f263581565b6006546001600160a01b0316635cc77dd3600080516020615cdc833981519152610ea761467c565b6040518363ffffffff1660e01b8152600401610ec4929190615908565b60206040518083038186803b158015610edc57600080fd5b505afa158015610ef0573d6000803e3d6000fd5b505050506040513d601f19601f82011682018060405250810190610f1491906151a3565b610f395760405162461bcd60e51b8152600401610f30906159bb565b60405180910390fd5b600754604080516318160ddd60e01b815290516000926001600160a01b0316916318160ddd916004808301926020929190829003018186803b158015610f7e57600080fd5b505afa158015610f92573d6000803e3d6000fd5b505050506040513d601f19601f82011682018060405250810190610fb691906152c3565b90506000610fc261467c565b6007546001600160a01b038083166000908152602080805260408083208984529091529081902090516334ff261960e21b815293945091169163d3fc986491611011918591879160040161581f565b600060405180830381600087803b15801561102b57600080fd5b505af115801561103f573d6000803e3d6000fd5b5050604080518681526001600160a01b03851660208201529081018590527ff50d0edd354011295f316ad7e68da483c44e09ccf787786bdd19931ba8583cc6925060600190505b60405180910390a1505050565b60408051606081810183526001600160a01b038816600081815260056020908152908590205484528301529181018690526110d18782878787614698565b6111275760405162461bcd60e51b815260206004820152602160248201527f5369676e657220616e64207369676e617475726520646f206e6f74206d6174636044820152600d60fb1b6064820152608401610f30565b6001600160a01b03871660009081526005602052604090205461114b906001615a34565b6001600160a01b0388166000908152600560205260409081902091909155517f5845892132946850460bff5a0083f71031bc5bf9aadcd40f1de79423eac9b10b9061119b90899033908a90615740565b60405180910390a1600080306001600160a01b0316888a6040516020016111c3929190615697565b60408051601f19818403018152908290526111dd9161567b565b6000604051808303816000865af19150503d806000811461121a576040519150601f19603f3d011682016040523d82523d6000602084013e61121f565b606091505b5091509150816112715760405162461bcd60e51b815260206004820152601c60248201527f46756e6374696f6e2063616c6c206e6f74207375636365737366756c000000006044820152606401610f30565b98975050505050505050565b6006546001600160a01b0316635cc77dd3600080516020615cbc8339815191526112a561467c565b6040518363ffffffff1660e01b81526004016112c2929190615908565b60206040518083038186803b1580156112da57600080fd5b505afa1580156112ee573d6000803e3d6000fd5b505050506040513d601f19601f8201168201806040525081019061131291906151a3565b61132e5760405162461bcd60e51b8152600401610f30906159bb565b601955565b6006546001600160a01b0316635cc77dd3600080516020615cbc83398151915261135b61467c565b6040518363ffffffff1660e01b8152600401611378929190615908565b60206040518083038186803b15801561139057600080fd5b505afa1580156113a4573d6000803e3d6000fd5b505050506040513d601f19601f820116820180604052508101906113c891906151a3565b6113e45760405162461bcd60e51b8152600401610f30906159bb565b601d8054911515600160c01b0260ff60c01b19909216919091179055565b6006546001600160a01b0316635cc77dd3600080516020615cbc83398151915261142a61467c565b6040518363ffffffff1660e01b8152600401611447929190615908565b60206040518083038186803b15801561145f57600080fd5b505afa158015611473573d6000803e3d6000fd5b505050506040513d601f19601f8201168201806040525081019061149791906151a3565b6114b35760405162461bcd60e51b8152600401610f30906159bb565b6103e88183856114c3888a615a34565b6114cd9190615a34565b6114d79190615a34565b6114e19190615a34565b111561151e5760405162461bcd60e51b815260206004820152600c60248201526b4375747320746f6f2062696760a01b6044820152606401610f30565b601294909455601392909255601455601555601655565b60006002546115414690565b141561154e575060015490565b6040518060800160405280604f8152602001615c6d604f913980519060200120600360405161157d91906156ce565b6040518091039020600460405161159491906156ce565b6040518091039020306115a44690565b60408051602081019690965285019390935260608401919091526001600160a01b0316608083015260a082015260c00160405160208183030381529060405280519060200120905090565b6006546001600160a01b0316635cc77dd3600080516020615cbc83398151915261161761467c565b6040518363ffffffff1660e01b8152600401611634929190615908565b60206040518083038186803b15801561164c57600080fd5b505afa158015611660573d6000803e3d6000fd5b505050506040513d601f19601f8201168201806040525081019061168491906151a3565b6116a05760405162461bcd60e51b8152600401610f30906159bb565b601a805460ff60681b198116600160681b9182900460ff1615909102179055565b6006546001600160a01b0316635cc77dd3600080516020615cbc8339815191526116e961467c565b6040518363ffffffff1660e01b8152600401611706929190615908565b60206040518083038186803b15801561171e57600080fd5b505afa158015611732573d6000803e3d6000fd5b505050506040513d601f19601f8201168201806040525081019061175691906151a3565b6117725760405162461bcd60e51b8152600401610f30906159bb565b6001600160a01b0381166117be5760405162461bcd60e51b81526020600482015260136024820152724d7573742073657420616e206164647265737360681b6044820152606401610f30565b600a80546001600160a01b0319166001600160a01b0392909216919091179055565b6117e8614ca5565b6040805160a08101918290529060129060059082845b8154815260200190600101908083116117fe575050505050905090565b6006546001600160a01b0316635cc77dd3600080516020615cfc83398151915261184361467c565b6040518363ffffffff1660e01b8152600401611860929190615908565b60206040518083038186803b15801561187857600080fd5b505afa15801561188c573d6000803e3d6000fd5b505050506040513d601f19601f820116820180604052508101906118b091906151a3565b6118cc5760405162461bcd60e51b8152600401610f30906159bb565b60065460405163d547741f60e01b81526001600160a01b039091169063d547741f9061190c90600080516020615d1c833981519152908590600401615908565b600060405180830381600087803b15801561192657600080fd5b505af115801561193a573d6000803e3d6000fd5b5050505050565b6006546001600160a01b0316635cc77dd37f52d1941cacb84b09158c2ca3fd9782d719422cf352918630ece583c0581f263561197b61467c565b6040518363ffffffff1660e01b8152600401611998929190615908565b60206040518083038186803b1580156119b057600080fd5b505afa1580156119c4573d6000803e3d6000fd5b505050506040513d601f19601f820116820180604052508101906119e891906151a3565b611a045760405162461bcd60e51b8152600401610f30906159bb565b6001600160a01b038116611a4d5760405162461bcd60e51b815260206004820152601060248201526f4d75737420736574204164647265737360801b6044820152606401610f30565b600780546001600160a01b0319166001600160a01b0392909216919091179055565b6006546001600160a01b0316635cc77dd3600080516020615cfc833981519152611a9761467c565b6040518363ffffffff1660e01b8152600401611ab4929190615908565b60206040518083038186803b158015611acc57600080fd5b505afa158015611ae0573d6000803e3d6000fd5b505050506040513d601f19601f82011682018060405250810190611b0491906151a3565b611b205760405162461bcd60e51b8152600401610f30906159bb565b6001600160a01b038116611b695760405162461bcd60e51b815260206004820152601060248201526f4d75737420736574204164647265737360801b6044820152606401610f30565b600654604051635cc77dd360e01b81526001600160a01b0390911690635cc77dd390611ba990600080516020615cdc833981519152908590600401615908565b60206040518083038186803b158015611bc157600080fd5b505afa158015611bd5573d6000803e3d6000fd5b505050506040513d601f19601f82011682018060405250810190611bf991906151a3565b611c325760405162461bcd60e51b815260206004820152600a602482015269139bdd0813585c9ad95d60b21b6044820152606401610f30565b6001600160a01b038181166000818152601f602052604090819020805460ff81161560ff1990911617905560065490516369930ef160e11b815260048101929092529091169063d3261de290602401600060405180830381600087803b158015611c9b57600080fd5b505af1158015611caf573d6000803e3d6000fd5b505050506001600160a01b0381166000818152601f602090815260409182902054825193845260ff161515908301527f162a795c7ae0cbe3db0e3c8bc276ccff7d0b452d287195f5a3a9d100e4b79172910160405180910390a150565b6006546001600160a01b0316635cc77dd3600080516020615cfc833981519152611d3461467c565b6040518363ffffffff1660e01b8152600401611d51929190615908565b60206040518083038186803b158015611d6957600080fd5b505afa158015611d7d573d6000803e3d6000fd5b505050506040513d601f19601f82011682018060405250810190611da191906151a3565b611dbd5760405162461bcd60e51b8152600401610f30906159bb565b600654604051632f2ff15d60e01b81526001600160a01b0390911690632f2ff15d9061190c90600080516020615c0a833981519152908590600401615908565b6006546001600160a01b0316635cc77dd3600080516020615cbc833981519152611e2561467c565b6040518363ffffffff1660e01b8152600401611e42929190615908565b60206040518083038186803b158015611e5a57600080fd5b505afa158015611e6e573d6000803e3d6000fd5b505050506040513d601f19601f82011682018060405250810190611e9291906151a3565b611eae5760405162461bcd60e51b8152600401610f30906159bb565b601155565b600d6020528160005260406000208181548110611ecf57600080fd5b6000918252602090912001546001600160a01b03169150829050565b6006546001600160a01b0316635cc77dd3600080516020615cbc833981519152611f1361467c565b6040518363ffffffff1660e01b8152600401611f30929190615908565b60206040518083038186803b158015611f4857600080fd5b505afa158015611f5c573d6000803e3d6000fd5b505050506040513d601f19601f82011682018060405250810190611f8091906151a3565b611f9c5760405162461bcd60e51b8152600401610f30906159bb565b601e55565b6060600d6000836002811115611fb957611fb9615b85565b6002811115611fca57611fca615b85565b815260200190815260200160002080548060200260200160405190810160405280929190818152602001828054801561202c57602002820191906000526020600020905b81546001600160a01b0316815260019091019060200180831161200e575b50505050509050919050565b6006546001600160a01b0316635cc77dd3600080516020615cbc83398151915261206061467c565b6040518363ffffffff1660e01b815260040161207d929190615908565b60206040518083038186803b15801561209557600080fd5b505afa1580156120a9573d6000803e3d6000fd5b505050506040513d601f19601f820116820180604052508101906120cd91906151a3565b6120e95760405162461bcd60e51b8152600401610f30906159bb565b601855565b6000600d600083600281111561210657612106615b85565b600281111561211757612117615b85565b81526020019081526020016000206001600d600085600281111561213d5761213d615b85565b600281111561214e5761214e615b85565b81526020810191909152604001600020546121699190615a96565b8154811061217957612179615b9b565b6000918252602090912001546001600160a01b031692915050565b6006546001600160a01b0316635cc77dd3600080516020615cfc8339815191526121bc61467c565b6040518363ffffffff1660e01b81526004016121d9929190615908565b60206040518083038186803b1580156121f157600080fd5b505afa158015612205573d6000803e3d6000fd5b505050506040513d601f19601f8201168201806040525081019061222991906151a3565b6122455760405162461bcd60e51b8152600401610f30906159bb565b600654604051632f2ff15d60e01b81526001600160a01b0390911690632f2ff15d9061190c90600080516020615d1c833981519152908590600401615908565b6060806060806000600d60008960028111156122a3576122a3615b85565b60028111156122b4576122b4615b85565b81526020019081526020016000208054905090506000806011546001600160401b038111156122e5576122e5615bb1565b60405190808252806020026020018201604052801561230e578160200160208202803683370190505b50905060006011546001600160401b0381111561232d5761232d615bb1565b60405190808252806020026020018201604052801561236057816020015b606081526020019060019003908161234b5790505b50905060006011546001600160401b0381111561237f5761237f615bb1565b6040519080825280602002602001820160405280156123a8578160200160208202803683370190505b50905060006011546001600160401b038111156123c7576123c7615bb1565b6040519080825280602002602001820160405280156123fa57816020015b60608152602001906001900390816123e55790505b5090505b6011548510801561240f5750600186115b15612796578561241e81615b02565b9650506000600d60008f600281111561243957612439615b85565b600281111561244a5761244a615b85565b8152602001908152602001600020878154811061246957612469615b9b565b6000918252602090912001546001600160a01b031690508c600381111561249257612492615b85565b60038111156124a3576124a3615b85565b816001600160a01b031663c19d93fb6040518163ffffffff1660e01b815260040160206040518083038186803b1580156124dc57600080fd5b505afa1580156124f0573d6000803e3d6000fd5b505050506040513d601f19601f82011682018060405250810190612514919061524d565b600381111561252557612525615b85565b1415612790578b861015612545578561253d81615b54565b965050612790565b8085878151811061255857612558615b9b565b6001600160a01b039283166020918202929092018101919091529082166000908152600e90915260409020805461258e90615b19565b80601f01602080910402602001604051908101604052809291908181526020018280546125ba90615b19565b80156126075780601f106125dc57610100808354040283529160200191612607565b820191906000526020600020905b8154815290600101906020018083116125ea57829003601f168201915b505050505084878151811061261e5761261e615b9b565b602002602001018190525060106000826001600160a01b03166001600160a01b03168152602001908152602001600020805461265990615b19565b80601f016020809104026020016040519081016040528092919081815260200182805461268590615b19565b80156126d25780601f106126a7576101008083540402835291602001916126d2565b820191906000526020600020905b8154815290600101906020018083116126b557829003601f168201915b50505050508287815181106126e9576126e9615b9b565b6020026020010181905250806001600160a01b031663cd4399f16040518163ffffffff1660e01b815260040160206040518083038186803b15801561272d57600080fd5b505afa158015612741573d6000803e3d6000fd5b505050506040513d601f19601f8201168201806040525081019061276591906152c3565b83878151811061277757612777615b9b565b60209081029190910101528561278c81615b54565b9650505b506123fe565b929c919b5091995090975095505050505050565b6006546001600160a01b0316635cc77dd3600080516020615cbc8339815191526127d261467c565b6040518363ffffffff1660e01b81526004016127ef929190615908565b60206040518083038186803b15801561280757600080fd5b505afa15801561281b573d6000803e3d6000fd5b505050506040513d601f19601f8201168201806040525081019061283f91906151a3565b61285b5760405162461bcd60e51b8152600401610f30906159bb565b601a805460ff60701b198116600160701b9182900460ff1615909102179055565b6006546001600160a01b0316635cc77dd37f06aa03964db1f7257357ef09714a5f0ca3633723df419e97015e0c7a3e83edb76128b661467c565b6040518363ffffffff1660e01b81526004016128d3929190615908565b60206040518083038186803b1580156128eb57600080fd5b505afa1580156128ff573d6000803e3d6000fd5b505050506040513d601f19601f8201168201806040525081019061292391906151a3565b61293f5760405162461bcd60e51b8152600401610f30906159bb565b600880546001600160a01b0319166001600160a01b0392909216919091179055565b6006546001600160a01b0316635cc77dd3600080516020615cfc83398151915261298961467c565b6040518363ffffffff1660e01b81526004016129a6929190615908565b60206040518083038186803b1580156129be57600080fd5b505afa1580156129d2573d6000803e3d6000fd5b505050506040513d601f19601f820116820180604052508101906129f691906151a3565b612a125760405162461bcd60e51b8152600401610f30906159bb565b60065460405163d547741f60e01b81526001600160a01b039091169063d547741f9061190c90600080516020615c0a833981519152908590600401615908565b6006546001600160a01b0316635cc77dd37f52d1941cacb84b09158c2ca3fd9782d719422cf352918630ece583c0581f2635612a8c61467c565b6040518363ffffffff1660e01b8152600401612aa9929190615908565b60206040518083038186803b158015612ac157600080fd5b505afa158015612ad5573d6000803e3d6000fd5b505050506040513d601f19601f82011682018060405250810190612af991906151a3565b612b155760405162461bcd60e51b8152600401610f30906159bb565b6001600160a01b038116612b2857600080fd5b6000819050806001600160a01b031663c8aeff396040518163ffffffff1660e01b815260040160206040518083038186803b158015612b6657600080fd5b505afa158015612b7a573d6000803e3d6000fd5b505050506040513d601f19601f82011682018060405250810190612b9e91906151a3565b612bd75760405162461bcd60e51b815260206004820152600a602482015269139bdd0813585c9ad95d60b21b6044820152606401610f30565b600b80546001600160a01b0319166001600160a01b038416179055600c805460019190600090612c08908490615a34565b90915550505050565b6006546001600160a01b0316635cc77dd3600080516020615cdc833981519152612c3961467c565b6040518363ffffffff1660e01b8152600401612c56929190615908565b60206040518083038186803b158015612c6e57600080fd5b505afa158015612c82573d6000803e3d6000fd5b505050506040513d601f19601f82011682018060405250810190612ca691906151a3565b612cc25760405162461bcd60e51b8152600401610f30906159bb565b6000612ccc61467c565b90506000600760009054906101000a90046001600160a01b03166001600160a01b03166318160ddd6040518163ffffffff1660e01b815260040160206040518083038186803b158015612d1e57600080fd5b505afa158015612d32573d6000803e3d6000fd5b505050506040513d601f19601f82011682018060405250810190612d5691906152c3565b90506000826001600160a01b03166381efd7086040518163ffffffff1660e01b815260040160206040518083038186803b158015612d9357600080fd5b505afa158015612da7573d6000803e3d6000fd5b505050506040513d601f19601f82011682018060405250810190612dcb91906152c3565b6007546001600160a01b038581166000908152602080526040812093945091169163d3fc98649188918691612e00878b615a34565b81526020019081526020016000206040518463ffffffff1660e01b8152600401612e2c9392919061581f565b600060405180830381600087803b158015612e4657600080fd5b505af1158015612e5a573d6000803e3d6000fd5b5050604080518781526001600160a01b03891660208201529081018590527f67cf46c21894ed54b5a14903180060829fc2af702bc1fc9296acfa90ec63a1ac9250606001905060405180910390a15050505050565b6006546001600160a01b0316635cc77dd3600080516020615cbc833981519152612ed761467c565b6040518363ffffffff1660e01b8152600401612ef4929190615908565b60206040518083038186803b158015612f0c57600080fd5b505afa158015612f20573d6000803e3d6000fd5b505050506040513d601f19601f82011682018060405250810190612f4491906151a3565b612f605760405162461bcd60e51b8152600401610f30906159bb565b601b91909155601c55565b600080612f7661467c565b6007549091506001600160a01b0316612fc25760405162461bcd60e51b815260206004820152600e60248201526d13999d1a1d58881b9bdd081cd95d60921b6044820152606401610f30565b6017548310156130145760405162461bcd60e51b815260206004820152601860248201527f496e73756666696369656e742073706f6e736f727368697000000000000000006044820152606401610f30565b600654604051639c402b2360e01b81526001600160a01b0383811660048301526024820186905290911690639c402b239060440160006040518083038186803b15801561306057600080fd5b505afa158015613074573d6000803e3d6000fd5b50505050601e54600289516130899190615a74565b11156130d75760405162461bcd60e51b815260206004820152601760248201527f546f6f206d616e7920746f6b656e7320746f206d696e740000000000000000006044820152606401610f30565b601a54600160701b900460ff16156131cc576001600160a01b038716158061318a5750600654604051635cc77dd360e01b81526001600160a01b0390911690635cc77dd39061313a90600080516020615c0a833981519152908b90600401615908565b60206040518083038186803b15801561315257600080fd5b505afa158015613166573d6000803e3d6000fd5b505050506040513d601f19601f8201168201806040525081019061318a91906151a3565b6131cc5760405162461bcd60e51b8152602060048201526013602482015272105c9d1a5cdd081b9bdd08185c1c1c9bdd9959606a1b6044820152606401610f30565b845115806131e75750600288516131e39190615a74565b8551145b6132335760405162461bcd60e51b815260206004820152601b60248201527f4361726420416666696c69617465204c656e677468204572726f7200000000006044820152606401610f30565b601a54600160681b900460ff161561348c576001600160a01b03861615806132e65750600654604051635cc77dd360e01b81526001600160a01b0390911690635cc77dd39061329690600080516020615d1c833981519152908a90600401615908565b60206040518083038186803b1580156132ae57600080fd5b505afa1580156132c2573d6000803e3d6000fd5b505050506040513d601f19601f820116820180604052508101906132e691906151a3565b61332b5760405162461bcd60e51b81526020600482015260166024820152751059999a5b1a585d19481b9bdd08185c1c1c9bdd995960521b6044820152606401610f30565b60005b855181101561348a5760006001600160a01b031686828151811061335457613354615b9b565b60200260200101516001600160a01b0316148061342c575060065486516001600160a01b0390911690635cc77dd3907fb753fbb77d4c8d14c4c381bdfbc2eb6d1410547edecc58d3f703e69b0bb805ec908990859081106133b7576133b7615b9b565b60200260200101516040518363ffffffff1660e01b81526004016133dc929190615908565b60206040518083038186803b1580156133f457600080fd5b505afa158015613408573d6000803e3d6000fd5b505050506040513d601f19601f8201168201806040525081019061342c91906151a3565b6134785760405162461bcd60e51b815260206004820152601b60248201527f4361726420616666696c69617465206e6f7420617070726f76656400000000006044820152606401610f30565b8061348281615b54565b91505061332e565b505b601a54600160601b900460ff161561354a57600654604051635cc77dd360e01b81526001600160a01b0390911690635cc77dd3906134de90600080516020615cfc833981519152908590600401615908565b60206040518083038186803b1580156134f657600080fd5b505afa15801561350a573d6000803e3d6000fd5b505050506040513d601f19601f8201168201806040525081019061352e91906151a3565b61354a5760405162461bcd60e51b8152600401610f30906159bb565b61355389614788565b600b5460009061356b906001600160a01b0316614b5c565b600654600754600c54604080516001600160a01b038681168252948516602082015293909216838301526060830152519192507f221b9071ac706689e9c018403262c54d4bf4cde25a3b9938a2fa8b7c5f72795c919081900360800190a17ff2d9f66f1b36262a2ad5ffacd4d5e14b995ea268491e7a5d717ddd18c32466a6818e63ffffffff16600281111561360357613603615b85565b8b8f8e600760009054906101000a90046001600160a01b03166001600160a01b03166318160ddd6040518163ffffffff1660e01b815260040160206040518083038186803b15801561365457600080fd5b505afa158015613668573d6000803e3d6000fd5b505050506040513d601f19601f8201168201806040525081019061368c91906152c3565b60405161369e96959493929190615775565b60405180910390a1600654601d5460405163298e260360e21b81526001600160a01b038481166004830152600160c01b90920460ff161515602482015291169063a638980c90604401600060405180830381600087803b15801561370157600080fd5b505af1158015613715573d6000803e3d6000fd5b50506007546040516393e3063360e01b81526001600160a01b03858116600483015290911692506393e306339150602401600060405180830381600087803b15801561376057600080fd5b505af1158015613774573d6000803e3d6000fd5b50505050600d60008e63ffffffff16600281111561379457613794615b85565b60028111156137a5576137a5615b85565b60028111156137b6576137b6615b85565b81526020808201929092526040908101600090812080546001810182559082528382200180546001600160a01b0319166001600160a01b0386169081179091558152600e8352208d5161380b928f0190614cc3565b5080600f8c60405161381d919061567b565b908152604080516020928190038301902080546001600160a01b0319166001600160a01b03948516179055918316600090815260108252919091208c51613866928e0190614cc3565b50806001600160a01b031663b4d73fc88e63ffffffff16600281111561388e5761388e615b85565b8c60028d5161389d9190615a74565b8c8c8c898d6019546040518a63ffffffff1660e01b81526004016138c999989796959493929190615932565b600060405180830381600087803b1580156138e357600080fd5b505af11580156138f7573d6000803e3d6000fd5b5050505060005b89518110156139675789818151811061391957613919615b9b565b6020908102919091018101516001600160a01b0384166000908152828052604080822085835284529020815161395493919290910190614cc3565b508061395f81615b54565b9150506138fe565b5083156139d157604051632326579160e21b81526001600160a01b03838116600483015260248201869052821690638c995e4490604401600060405180830381600087803b1580156139b857600080fd5b505af11580156139cc573d6000803e3d6000fd5b505050505b9c9b505050505050505050505050565b6006546001600160a01b0316635cc77dd3600080516020615cbc833981519152613a0961467c565b6040518363ffffffff1660e01b8152600401613a26929190615908565b60206040518083038186803b158015613a3e57600080fd5b505afa158015613a52573d6000803e3d6000fd5b505050506040513d601f19601f82011682018060405250810190613a7691906151a3565b613a925760405162461bcd60e51b8152600401610f30906159bb565b6001600160a01b038116613ade5760405162461bcd60e51b81526020600482015260136024820152724d7573742073657420616e206164647265737360681b6044820152606401610f30565b601d80546001600160a01b0319166001600160a01b0392909216919091179055565b6006546001600160a01b0316635cc77dd3600080516020615cbc833981519152613b2861467c565b6040518363ffffffff1660e01b8152600401613b45929190615908565b60206040518083038186803b158015613b5d57600080fd5b505afa158015613b71573d6000803e3d6000fd5b505050506040513d601f19601f82011682018060405250810190613b9591906151a3565b613bb15760405162461bcd60e51b8152600401610f30906159bb565b601a805460ff60601b198116600160601b9182900460ff1615909102179055565b6006546001600160a01b0316635cc77dd3600080516020615cbc833981519152613bfa61467c565b6040518363ffffffff1660e01b8152600401613c17929190615908565b60206040518083038186803b158015613c2f57600080fd5b505afa158015613c43573d6000803e3d6000fd5b505050506040513d601f19601f82011682018060405250810190613c6791906151a3565b613c835760405162461bcd60e51b8152600401610f30906159bb565b6000866001600160a01b031663295a52126040518163ffffffff1660e01b815260040160206040518083038186803b158015613cbe57600080fd5b505afa158015613cd2573d6000803e3d6000fd5b505050506040513d601f19601f82011682018060405250810190613cf691906151dd565b90506000876001600160a01b03166381efd7086040518163ffffffff1660e01b815260040160206040518083038186803b158015613d3357600080fd5b505afa158015613d47573d6000803e3d6000fd5b505050506040513d601f19601f82011682018060405250810190613d6b91906152c3565b6001600160a01b0389166000908152602080805260408083208b84529091529020909150613d9a908787614d47565b506001600160a01b038816600090815260208052604081208591859190613dc1858c615a34565b81526020019081526020016000209190613ddc929190614d47565b506000816001600160401b03811115613df757613df7615bb1565b604051908082528060200260200182016040528015613e2a57816020015b6060815260200190600190039081613e155790505b50905060005b8151811015613f13576001600160a01b038a1660009081526020808052604080832084845290915290208054613e6590615b19565b80601f0160208091040260200160405190810160405280929190818152602001828054613e9190615b19565b8015613ede5780601f10613eb357610100808354040283529160200191613ede565b820191906000526020600020905b815481529060010190602001808311613ec157829003601f168201915b5050505050828281518110613ef557613ef5615b9b565b60200260200101819052508080613f0b90615b54565b915050613e30565b506040805160038082526080820190925260009160208201606080368337019050509050896001600160a01b0316634ecc79f76040518163ffffffff1660e01b815260040160206040518083038186803b158015613f7057600080fd5b505afa158015613f84573d6000803e3d6000fd5b505050506040513d601f19601f82011682018060405250810190613fa89190615356565b81600081518110613fbb57613fbb615b9b565b602002602001019063ffffffff16908163ffffffff1681525050896001600160a01b0316634b8755ca6040518163ffffffff1660e01b815260040160206040518083038186803b15801561400e57600080fd5b505afa158015614022573d6000803e3d6000fd5b505050506040513d601f19601f820116820180604052508101906140469190615356565b8160018151811061405957614059615b9b565b602002602001019063ffffffff16908163ffffffff1681525050896001600160a01b031663bf70d21d6040518163ffffffff1660e01b815260040160206040518083038186803b1580156140ac57600080fd5b505afa1580156140c0573d6000803e3d6000fd5b505050506040513d601f19601f820116820180604052508101906140e49190615356565b816002815181106140f7576140f7615b9b565b602002602001019063ffffffff16908163ffffffff16815250507ff2d9f66f1b36262a2ad5ffacd4d5e14b995ea268491e7a5d717ddd18c32466a68a8584600e60008f6001600160a01b03166001600160a01b0316815260200190815260200160002085600760009054906101000a90046001600160a01b03166001600160a01b03166318160ddd6040518163ffffffff1660e01b815260040160206040518083038186803b1580156141a957600080fd5b505afa1580156141bd573d6000803e3d6000fd5b505050506040513d601f19601f820116820180604052508101906141e191906152c3565b6040516141f3969594939291906157de565b60405180910390a150505050505050505050565b600e602052600090815260409020805461422090615b19565b80601f016020809104026020016040519081016040528092919081815260200182805461424c90615b19565b80156142995780601f1061426e57610100808354040283529160200191614299565b820191906000526020600020905b81548152906001019060200180831161427c57829003601f168201915b505050505081565b6010602052600090815260409020805461422090615b19565b601281600581106142ca57600080fd5b0154905081565b6006546001600160a01b0316635cc77dd3600080516020615cbc8339815191526142f961467c565b6040518363ffffffff1660e01b8152600401614316929190615908565b60206040518083038186803b15801561432e57600080fd5b505afa158015614342573d6000803e3d6000fd5b505050506040513d601f19601f8201168201806040525081019061436691906151a3565b6143825760405162461bcd60e51b8152600401610f30906159bb565b601d805463ffffffff909216600160a01b0263ffffffff60a01b19909216919091179055565b6006546001600160a01b0316635cc77dd3600080516020615cbc8339815191526143d061467c565b6040518363ffffffff1660e01b81526004016143ed929190615908565b60206040518083038186803b15801561440557600080fd5b505afa158015614419573d6000803e3d6000fd5b505050506040513d601f19601f8201168201806040525081019061443d91906151a3565b6144595760405162461bcd60e51b8152600401610f30906159bb565b601a805463ffffffff838116640100000000810267ffffffff0000000019878416600160401b81026bffffffff00000000ffffffff19909616948a16948517959095171617909355604080519182526020820192909252908101919091527f40595ad688ced68d274e8236e06352e35055c3f364d82f9b43afcb3d5b30f73c90606001611086565b6006546001600160a01b0316635cc77dd37f06aa03964db1f7257357ef09714a5f0ca3633723df419e97015e0c7a3e83edb761451b61467c565b6040518363ffffffff1660e01b8152600401614538929190615908565b60206040518083038186803b15801561455057600080fd5b505afa158015614564573d6000803e3d6000fd5b505050506040513d601f19601f8201168201806040525081019061458891906151a3565b6145a45760405162461bcd60e51b8152600401610f30906159bb565b600980546001600160a01b0319166001600160a01b0392909216919091179055565b6006546001600160a01b0316635cc77dd3600080516020615cbc8339815191526145ee61467c565b6040518363ffffffff1660e01b815260040161460b929190615908565b60206040518083038186803b15801561462357600080fd5b505afa158015614637573d6000803e3d6000fd5b505050506040513d601f19601f8201168201806040525081019061465b91906151a3565b6146775760405162461bcd60e51b8152600401610f30906159bb565b601755565b600033301415614693575060131936013560601c90565b503390565b60006001600160a01b0386166146fe5760405162461bcd60e51b815260206004820152602560248201527f4e61746976654d6574615472616e73616374696f6e3a20494e56414c49445f5360448201526424a3a722a960d91b6064820152608401610f30565b600161471161470c87614bf9565b614c76565b6040805160008152602081018083529290925260ff851690820152606081018690526080810185905260a0016020604051602081039080840390855afa15801561475f573d6000803e3d6000fd5b505050602060405103516001600160a01b0316866001600160a01b031614905095945050505050565b80516003146147e45760405162461bcd60e51b815260206004820152602260248201527f496e636f7272656374206e756d626572206f6620617272617920656c656d656e604482015261747360f01b6064820152608401610f30565b601a5463ffffffff16156148de57428160008151811061480657614806615b9b565b602002602001015163ffffffff1610156148625760405162461bcd60e51b815260206004820152601b60248201527f4d61726b6574206f70656e696e672074696d65206e6f742073657400000000006044820152606401610f30565b601a548151429163ffffffff1690839060009061488157614881615b9b565b60200260200101516148939190615aad565b63ffffffff16116148de5760405162461bcd60e51b815260206004820152601560248201527426b0b935b2ba1037b832b739903a37b79039b7b7b760591b6044820152606401610f30565b601a54640100000000900463ffffffff161561497557601a5461490f90640100000000900463ffffffff1642615a34565b8160018151811061492257614922615b9b565b602002602001015163ffffffff16106149755760405162461bcd60e51b81526020600482015260156024820152744d61726b6574206c6f636b7320746f6f206c61746560581b6044820152606401610f30565b8060018151811061498857614988615b9b565b602002602001015163ffffffff16601a60089054906101000a900463ffffffff16826000815181106149bc576149bc615b9b565b60200260200101516149ce9190615a4c565b63ffffffff16108015614a1a5750806001815181106149ef576149ef615b9b565b6020908102919091010151601a5463ffffffff91821691614a1891600160401b90041642615a34565b105b614a705760405162461bcd60e51b815260206004820152602160248201527f4d61726b6574206c6f636b206d757374206265206166746572206f70656e696e6044820152606760f81b6064820152608401610f30565b80600281518110614a8357614a83615b9b565b602002602001015163ffffffff1681600181518110614aa457614aa4615b9b565b602002602001015162093a80614aba9190615a4c565b63ffffffff16118015614b0d575080600281518110614adb57614adb615b9b565b602002602001015163ffffffff1681600181518110614afc57614afc615b9b565b602002602001015163ffffffff1611155b614b595760405162461bcd60e51b815260206004820152601c60248201527f4f7261636c65207265736f6c7574696f6e2074696d65206572726f72000000006044820152606401610f30565b50565b6000604051733d602d80600a3d3981f3363d3d373d3d3d363d7360601b81528260601b60148201526e5af43d82803e903d91602b57fd5bf360881b60288201526037816000f09150506001600160a01b038116614bf45760405162461bcd60e51b8152602060048201526016602482015275115490cc4c4d8dce8818dc99585d194819985a5b195960521b6044820152606401610f30565b919050565b6000604051806080016040528060438152602001615c2a6043913980516020918201208351848301516040808701518051908601209051614c59950193845260208401929092526001600160a01b03166040830152606082015260800190565b604051602081830303815290604052805190602001209050919050565b6000614c80611535565b60405161190160f01b6020820152602281019190915260428101839052606201614c59565b6040518060a001604052806005906020820280368337509192915050565b828054614ccf90615b19565b90600052602060002090601f016020900481019282614cf15760008555614d37565b82601f10614d0a57805160ff1916838001178555614d37565b82800160010185558215614d37579182015b82811115614d37578251825591602001919060010190614d1c565b50614d43929150614dbb565b5090565b828054614d5390615b19565b90600052602060002090601f016020900481019282614d755760008555614d37565b82601f10614d8e5782800160ff19823516178555614d37565b82800160010185558215614d37579182015b82811115614d37578235825591602001919060010190614da0565b5b80821115614d435760008155600101614dbc565b60006001600160401b03831115614de957614de9615bb1565b614dfc601f8401601f19166020016159e1565b9050828152838383011115614e1057600080fd5b828260208301376000602084830101529392505050565b8035614bf481615bc7565b600082601f830112614e4357600080fd5b81356020614e58614e5383615a11565b6159e1565b80838252828201915082860187848660051b8901011115614e7857600080fd5b60005b85811015614ea0578135614e8e81615bc7565b84529284019290840190600101614e7b565b5090979650505050505050565b600082601f830112614ebe57600080fd5b81356020614ece614e5383615a11565b80838252828201915082860187848660051b8901011115614eee57600080fd5b6000805b86811015614f305782356001600160401b03811115614f0f578283fd5b614f1d8b88838d0101614fef565b8652509385019391850191600101614ef2565b509198975050505050505050565b600082601f830112614f4f57600080fd5b81356020614f5f614e5383615a11565b80838252828201915082860187848660051b8901011115614f7f57600080fd5b60005b85811015614ea0578135614f9581615bf7565b84529284019290840190600101614f82565b60008083601f840112614fb957600080fd5b5081356001600160401b03811115614fd057600080fd5b602083019150836020828501011115614fe857600080fd5b9250929050565b600082601f83011261500057600080fd5b61500f83833560208501614dd0565b9392505050565b8035614bf481615bf7565b60006020828403121561503357600080fd5b813561500f81615bc7565b600080600080600060a0868803121561505657600080fd5b853561506181615bc7565b945060208601356001600160401b0381111561507c57600080fd5b8601601f8101881361508d57600080fd5b61509c88823560208401614dd0565b9450506040860135925060608601359150608086013560ff811681146150c157600080fd5b809150509295509295909350565b600080604083850312156150e257600080fd5b82356150ed81615bc7565b946020939093013593505050565b6000806000806000806080878903121561511457600080fd5b863561511f81615bc7565b95506020870135945060408701356001600160401b038082111561514257600080fd5b61514e8a838b01614fa7565b9096509450606089013591508082111561516757600080fd5b5061517489828a01614fa7565b979a9699509497509295939492505050565b60006020828403121561519857600080fd5b813561500f81615bdc565b6000602082840312156151b557600080fd5b815161500f81615bdc565b6000602082840312156151d257600080fd5b813561500f81615bea565b6000602082840312156151ef57600080fd5b815161500f81615bea565b6000806040838503121561520d57600080fd5b82356150ed81615bea565b60008060006060848603121561522d57600080fd5b833561523881615bea565b95602085013595506040909401359392505050565b60006020828403121561525f57600080fd5b81516004811061500f57600080fd5b60006020828403121561528057600080fd5b81356001600160401b0381111561529657600080fd5b6152a284828501614fef565b949350505050565b6000602082840312156152bc57600080fd5b5035919050565b6000602082840312156152d557600080fd5b5051919050565b600080604083850312156152ef57600080fd5b50508035926020909101359150565b600080600080600060a0868803121561531657600080fd5b505083359560208501359550604085013594606081013594506080013592509050565b60006020828403121561534b57600080fd5b813561500f81615bf7565b60006020828403121561536857600080fd5b815161500f81615bf7565b6000806000806000806000806000806101408b8d03121561539357600080fd5b61539c8b615016565b995060208b01356001600160401b03808211156153b857600080fd5b6153c48e838f01614fef565b9a5060408d01359150808211156153da57600080fd5b6153e68e838f01614fef565b995060608d01359150808211156153fc57600080fd5b6154088e838f01614f3e565b985060808d013591508082111561541e57600080fd5b61542a8e838f01614ead565b975061543860a08e01614e27565b965061544660c08e01614e27565b955060e08d013591508082111561545c57600080fd5b6154688e838f01614e32565b94506101008d013591508082111561547f57600080fd5b5061548c8d828e01614fef565b9250506101208b013590509295989b9194979a5092959850565b6000806000606084860312156154bb57600080fd5b83356154c681615bf7565b925060208401356154d681615bf7565b915060408401356154e681615bf7565b809150509250925092565b600081518084526020808501945080840160005b8381101561552a5781516001600160a01b031687529582019590820190600101615505565b509495945050505050565b600082825180855260208086019550808260051b84010181860160005b84811015614ea057601f1986840301895261556e8383516155b6565b98840198925090830190600101615552565b600081518084526020808501945080840160005b8381101561552a57815163ffffffff1687529582019590820190600101615594565b600081518084526155ce816020860160208601615ad2565b601f01601f19169290920160200192915050565b6003811061560057634e487b7160e01b600052602160045260246000fd5b9052565b6000815461561181615b19565b80855260206001838116801561562e576001811461564257615670565b60ff19851688840152604088019550615670565b866000528260002060005b858110156156685781548a820186015290830190840161564d565b890184019650505b505050505092915050565b6000825161568d818460208701615ad2565b9190910192915050565b600083516156a9818460208801615ad2565b60609390931b6bffffffffffffffffffffffff19169190920190815260140192915050565b60008083546156dc81615b19565b600182811680156156f4576001811461570557615734565b60ff19841687528287019450615734565b8760005260208060002060005b8581101561572b5781548a820152908401908201615712565b50505082870194505b50929695505050505050565b6001600160a01b0384811682528316602082015260606040820181905260009061576c908301846155b6565b95945050505050565b6001600160a01b038716815261578e60208201876155e2565b60c0604082015260006157a460c0830187615535565b82810360608401526157b681876155b6565b905082810360808401526157ca8186615580565b9150508260a0830152979650505050505050565b6001600160a01b03871681526157f760208201876155e2565b60c06040820152600061580d60c0830187615535565b82810360608401526157b68187615604565b60018060a01b038416815282602082015260606040820152600061576c6060830184615604565b60208152600061500f60208301846154f1565b60808152600061586c60808301876154f1565b60208382038185015261587f8288615535565b915083820360408501526158938287615535565b8481036060860152855180825282870193509082019060005b818110156158c8578451835293830193918301916001016158ac565b50909998505050505050505050565b60a08101818360005b60058110156158ff5781518352602092830192909101906001016158e0565b50505092915050565b9182526001600160a01b0316602082015260400190565b60208152600061500f60208301846155b6565b6000610120615941838d6155e2565b8060208401526159538184018c615580565b604084018b90526001600160a01b038a81166060860152898116608086015284820360a086015290915061598782896154f1565b90871660c085015283810360e085015290506159a381866155b6565b915050826101008301529a9950505050505050505050565b6020808252600c908201526b139bdd08185c1c1c9bdd995960a21b604082015260600190565b604051601f8201601f191681016001600160401b0381118282101715615a0957615a09615bb1565b604052919050565b60006001600160401b03821115615a2a57615a2a615bb1565b5060051b60200190565b60008219821115615a4757615a47615b6f565b500190565b600063ffffffff808316818516808303821115615a6b57615a6b615b6f565b01949350505050565b600082615a9157634e487b7160e01b600052601260045260246000fd5b500490565b600082821015615aa857615aa8615b6f565b500390565b600063ffffffff83811690831681811015615aca57615aca615b6f565b039392505050565b60005b83811015615aed578181015183820152602001615ad5565b83811115615afc576000848401525b50505050565b600081615b1157615b11615b6f565b506000190190565b600181811c90821680615b2d57607f821691505b60208210811415615b4e57634e487b7160e01b600052602260045260246000fd5b50919050565b6000600019821415615b6857615b68615b6f565b5060010190565b634e487b7160e01b600052601160045260246000fd5b634e487b7160e01b600052602160045260246000fd5b634e487b7160e01b600052603260045260246000fd5b634e487b7160e01b600052604160045260246000fd5b6001600160a01b0381168114614b5957600080fd5b8015158114614b5957600080fd5b60038110614b5957600080fd5b63ffffffff81168114614b5957600080fdfe6bdd6eec7bc953f67e3ae90ab8ab4bd466543d6dbd19cb8d62eed396b8427a054d6574615472616e73616374696f6e2875696e74323536206e6f6e63652c616464726573732066726f6d2c62797465732066756e6374696f6e5369676e617475726529454950373132446f6d61696e28737472696e67206e616d652c737472696e672076657273696f6e2c6164647265737320766572696679696e67436f6e74726163742c627974657333322073616c74296270edb7c868f86fda4adedba75108201087268ea345934db8bad688e1feb91b23acc66832ff38a7ce3c1caf89922410f4374ba8fd897ffa98f088747997bc6d1a6838efa4183e08fe3607359d1259272af9d4716f65e1a7b5921f78fd5a3c6afdf5cf7b97a3a158dc25b3f02458feb3a6f48426bf701a6ae2403d3dff43cf0da26469706673582212204071fc488fd63797ad411034d7e32f6467d0ac2142a7b632af1e13336ba4e76d64736f6c63430008070033454950373132446f6d61696e28737472696e67206e616d652c737472696e672076657273696f6e2c6164647265737320766572696679696e67436f6e74726163742c627974657333322073616c74296270edb7c868f86fda4adedba75108201087268ea345934db8bad688e1feb91b",
  "linkReferences": {},
  "deployedLinkReferences": {}
}