{
  "_format": "hh-sol-artifact-1",
  "contractName": "TestErc20PausableToken",
  "sourceName": "contracts/test-artifacts/TestErc20PausableToken.sol",
  "abi": [
    {
      "inputs": [],
      "payable": false,
      "stateMutability": "nonpayable",
      "type": "constructor"
    },
    {
      "anonymous": false,
      "inputs": [
        {
          "indexed": true,
          "internalType": "address",
          "name": "owner",
          "type": "address"
        },
        {
          "indexed": true,
          "internalType": "address",
          "name": "spender",
          "type": "address"
        },
        {
          "indexed": false,
          "internalType": "uint256",
          "name": "value",
          "type": "uint256"
        }
      ],
      "name": "Approval",
      "type": "event"
    },
    {
      "anonymous": false,
      "inputs": [
        {
          "indexed": true,
          "internalType": "address",
          "name": "account",
          "type": "address"
        }
      ],
      "name": "MinterAdded",
      "type": "event"
    },
    {
      "anonymous": false,
      "inputs": [
        {
          "indexed": true,
          "internalType": "address",
          "name": "account",
          "type": "address"
        }
      ],
      "name": "MinterRemoved",
      "type": "event"
    },
    {
      "anonymous": false,
      "inputs": [
        {
          "indexed": false,
          "internalType": "address",
          "name": "account",
          "type": "address"
        }
      ],
      "name": "Paused",
      "type": "event"
    },
    {
      "anonymous": false,
      "inputs": [
        {
          "indexed": true,
          "internalType": "address",
          "name": "account",
          "type": "address"
        }
      ],
      "name": "PauserAdded",
      "type": "event"
    },
    {
      "anonymous": false,
      "inputs": [
        {
          "indexed": true,
          "internalType": "address",
          "name": "account",
          "type": "address"
        }
      ],
      "name": "PauserRemoved",
      "type": "event"
    },
    {
      "anonymous": false,
      "inputs": [
        {
          "indexed": true,
          "internalType": "address",
          "name": "from",
          "type": "address"
        },
        {
          "indexed": true,
          "internalType": "address",
          "name": "to",
          "type": "address"
        },
        {
          "indexed": false,
          "internalType": "uint256",
          "name": "value",
          "type": "uint256"
        }
      ],
      "name": "Transfer",
      "type": "event"
    },
    {
      "anonymous": false,
      "inputs": [
        {
          "indexed": false,
          "internalType": "address",
          "name": "account",
          "type": "address"
        }
      ],
      "name": "Unpaused",
      "type": "event"
    },
    {
      "constant": false,
      "inputs": [
        {
          "internalType": "address",
          "name": "account",
          "type": "address"
        }
      ],
      "name": "addMinter",
      "outputs": [],
      "payable": false,
      "stateMutability": "nonpayable",
      "type": "function"
    },
    {
      "constant": false,
      "inputs": [
        {
          "internalType": "address",
          "name": "account",
          "type": "address"
        }
      ],
      "name": "addPauser",
      "outputs": [],
      "payable": false,
      "stateMutability": "nonpayable",
      "type": "function"
    },
    {
      "constant": true,
      "inputs": [
        {
          "internalType": "address",
          "name": "owner",
          "type": "address"
        },
        {
          "internalType": "address",
          "name": "spender",
          "type": "address"
        }
      ],
      "name": "allowance",
      "outputs": [
        {
          "internalType": "uint256",
          "name": "",
          "type": "uint256"
        }
      ],
      "payable": false,
      "stateMutability": "view",
      "type": "function"
    },
    {
      "constant": false,
      "inputs": [
        {
          "internalType": "address",
          "name": "spender",
          "type": "address"
        },
        {
          "internalType": "uint256",
          "name": "value",
          "type": "uint256"
        }
      ],
      "name": "approve",
      "outputs": [
        {
          "internalType": "bool",
          "name": "",
          "type": "bool"
        }
      ],
      "payable": false,
      "stateMutability": "nonpayable",
      "type": "function"
    },
    {
      "constant": true,
      "inputs": [
        {
          "internalType": "address",
          "name": "account",
          "type": "address"
        }
      ],
      "name": "balanceOf",
      "outputs": [
        {
          "internalType": "uint256",
          "name": "",
          "type": "uint256"
        }
      ],
      "payable": false,
      "stateMutability": "view",
      "type": "function"
    },
    {
      "constant": false,
      "inputs": [
        {
          "internalType": "address",
          "name": "spender",
          "type": "address"
        },
        {
          "internalType": "uint256",
          "name": "subtractedValue",
          "type": "uint256"
        }
      ],
      "name": "decreaseAllowance",
      "outputs": [
        {
          "internalType": "bool",
          "name": "",
          "type": "bool"
        }
      ],
      "payable": false,
      "stateMutability": "nonpayable",
      "type": "function"
    },
    {
      "constant": false,
      "inputs": [
        {
          "internalType": "address",
          "name": "spender",
          "type": "address"
        },
        {
          "internalType": "uint256",
          "name": "addedValue",
          "type": "uint256"
        }
      ],
      "name": "increaseAllowance",
      "outputs": [
        {
          "internalType": "bool",
          "name": "",
          "type": "bool"
        }
      ],
      "payable": false,
      "stateMutability": "nonpayable",
      "type": "function"
    },
    {
      "constant": false,
      "inputs": [
        {
          "internalType": "address",
          "name": "sender",
          "type": "address"
        }
      ],
      "name": "initialize",
      "outputs": [],
      "payable": false,
      "stateMutability": "nonpayable",
      "type": "function"
    },
    {
      "constant": true,
      "inputs": [
        {
          "internalType": "address",
          "name": "account",
          "type": "address"
        }
      ],
      "name": "isMinter",
      "outputs": [
        {
          "internalType": "bool",
          "name": "",
          "type": "bool"
        }
      ],
      "payable": false,
      "stateMutability": "view",
      "type": "function"
    },
    {
      "constant": true,
      "inputs": [
        {
          "internalType": "address",
          "name": "account",
          "type": "address"
        }
      ],
      "name": "isPauser",
      "outputs": [
        {
          "internalType": "bool",
          "name": "",
          "type": "bool"
        }
      ],
      "payable": false,
      "stateMutability": "view",
      "type": "function"
    },
    {
      "constant": false,
      "inputs": [
        {
          "internalType": "address",
          "name": "account",
          "type": "address"
        },
        {
          "internalType": "uint256",
          "name": "amount",
          "type": "uint256"
        }
      ],
      "name": "mint",
      "outputs": [
        {
          "internalType": "bool",
          "name": "",
          "type": "bool"
        }
      ],
      "payable": false,
      "stateMutability": "nonpayable",
      "type": "function"
    },
    {
      "constant": false,
      "inputs": [],
      "name": "pause",
      "outputs": [],
      "payable": false,
      "stateMutability": "nonpayable",
      "type": "function"
    },
    {
      "constant": true,
      "inputs": [],
      "name": "paused",
      "outputs": [
        {
          "internalType": "bool",
          "name": "",
          "type": "bool"
        }
      ],
      "payable": false,
      "stateMutability": "view",
      "type": "function"
    },
    {
      "constant": false,
      "inputs": [],
      "name": "renounceMinter",
      "outputs": [],
      "payable": false,
      "stateMutability": "nonpayable",
      "type": "function"
    },
    {
      "constant": false,
      "inputs": [],
      "name": "renouncePauser",
      "outputs": [],
      "payable": false,
      "stateMutability": "nonpayable",
      "type": "function"
    },
    {
      "constant": true,
      "inputs": [],
      "name": "totalSupply",
      "outputs": [
        {
          "internalType": "uint256",
          "name": "",
          "type": "uint256"
        }
      ],
      "payable": false,
      "stateMutability": "view",
      "type": "function"
    },
    {
      "constant": false,
      "inputs": [
        {
          "internalType": "address",
          "name": "to",
          "type": "address"
        },
        {
          "internalType": "uint256",
          "name": "value",
          "type": "uint256"
        }
      ],
      "name": "transfer",
      "outputs": [
        {
          "internalType": "bool",
          "name": "",
          "type": "bool"
        }
      ],
      "payable": false,
      "stateMutability": "nonpayable",
      "type": "function"
    },
    {
      "constant": false,
      "inputs": [
        {
          "internalType": "address",
          "name": "from",
          "type": "address"
        },
        {
          "internalType": "address",
          "name": "to",
          "type": "address"
        },
        {
          "internalType": "uint256",
          "name": "value",
          "type": "uint256"
        }
      ],
      "name": "transferFrom",
      "outputs": [
        {
          "internalType": "bool",
          "name": "",
          "type": "bool"
        }
      ],
      "payable": false,
      "stateMutability": "nonpayable",
      "type": "function"
    },
    {
      "constant": false,
      "inputs": [],
      "name": "unpause",
      "outputs": [],
      "payable": false,
      "stateMutability": "nonpayable",
      "type": "function"
    }
  ],
  "bytecode": "0x60806040523480156200001157600080fd5b5062000028336200004460201b6200089d1760201c565b6200003e336200010e60201b620012ea1760201c565b62000609565b600054610100900460ff1680620000695750620000696001600160e01b03620001c116565b8062000078575060005460ff16155b620000b55760405162461bcd60e51b815260040180806020018281038252602e81526020018062001c61602e913960400191505060405180910390fd5b600054610100900460ff16158015620000e1576000805460ff1961ff0019909116610100171660011790555b620000f782620001c760201b62000d6e1760201c565b80156200010a576000805461ff00191690555b5050565b600054610100900460ff1680620001335750620001336001600160e01b03620001c116565b8062000142575060005460ff16155b6200017f5760405162461bcd60e51b815260040180806020018281038252602e81526020018062001c61602e913960400191505060405180910390fd5b600054610100900460ff16158015620001ab576000805460ff1961ff0019909116610100171660011790555b620000f7826200029b60201b6200137c1760201c565b303b1590565b600054610100900460ff1680620001ec5750620001ec6001600160e01b03620001c116565b80620001fb575060005460ff16155b620002385760405162461bcd60e51b815260040180806020018281038252602e81526020018062001c61602e913960400191505060405180910390fd5b600054610100900460ff1615801562000264576000805460ff1961ff0019909116610100171660011790555b6200027a826200036560201b620012471760201c565b610100805460ff1916905580156200010a576000805461ff00191690555050565b600054610100900460ff1680620002c05750620002c06001600160e01b03620001c116565b80620002cf575060005460ff16155b6200030c5760405162461bcd60e51b815260040180806020018281038252602e81526020018062001c61602e913960400191505060405180910390fd5b600054610100900460ff1615801562000338576000805460ff1961ff0019909116610100171660011790555b6200034c826001600160e01b036200042f16565b620000f757620000f7826001600160e01b036200045216565b600054610100900460ff16806200038a57506200038a6001600160e01b03620001c116565b8062000399575060005460ff16155b620003d65760405162461bcd60e51b815260040180806020018281038252602e81526020018062001c61602e913960400191505060405180910390fd5b600054610100900460ff1615801562000402576000805460ff1961ff0019909116610100171660011790555b62000416826001600160e01b03620004a416565b620000f757620000f7826001600160e01b03620004c116565b60006200044c8260686200051360201b62000b5f1790919060201c565b92915050565b6200046d8160686200057c60201b620011c61790919060201c565b6040516001600160a01b038216907f6ae172837ea30b801fbfcdd4108aa1d5bf8ff775444fd70256b44e6bf3dfc3f690600090a250565b60006200044c8260cd6200051360201b62000b5f1790919060201c565b620004dc8160cd6200057c60201b620011c61790919060201c565b6040516001600160a01b038216907f6719d08c1888103bea251a4ed56406bd0c3e69723c8a1686e017e7bbe159b6f890600090a250565b60006001600160a01b0382166200055c5760405162461bcd60e51b815260040180806020018281038252602281526020018062001c3f6022913960400191505060405180910390fd5b506001600160a01b03166000908152602091909152604090205460ff1690565b6200059182826001600160e01b036200051316565b15620005e4576040805162461bcd60e51b815260206004820152601f60248201527f526f6c65733a206163636f756e7420616c72656164792068617320726f6c6500604482015290519081900360640190fd5b6001600160a01b0316600090815260209190915260409020805460ff19166001179055565b61162680620006196000396000f3fe608060405234801561001057600080fd5b50600436106101215760003560e01c806370a08231116100ad578063a457c2d711610071578063a457c2d7146102d0578063a9059cbb146102fc578063aa271e1a14610328578063c4d66de81461034e578063dd62ed3e1461037457610121565b806370a082311461024e57806382dc1ec4146102745780638456cb591461029a578063983b2d56146102a257806398650275146102c857610121565b80633f4ba83a116100f45780633f4ba83a146101e257806340c10f19146101ec57806346fbf68e146102185780635c975abb1461023e5780636ef8d66d1461024657610121565b8063095ea7b31461012657806318160ddd1461016657806323b872dd1461018057806339509351146101b6575b600080fd5b6101526004803603604081101561013c57600080fd5b506001600160a01b0381351690602001356103a2565b604080519115158252519081900360200190f35b61016e610402565b60408051918252519081900360200190f35b6101526004803603606081101561019657600080fd5b506001600160a01b03813581169160208101359091169060400135610408565b610152600480360360408110156101cc57600080fd5b506001600160a01b03813516906020013561046a565b6101ea6104c3565b005b6101526004803603604081101561020257600080fd5b506001600160a01b0381351690602001356105ae565b6101526004803603602081101561022e57600080fd5b50356001600160a01b031661060e565b610152610627565b6101ea610631565b61016e6004803603602081101561026457600080fd5b50356001600160a01b0316610643565b6101ea6004803603602081101561028a57600080fd5b50356001600160a01b031661065e565b6101ea6106b0565b6101ea600480360360208110156102b857600080fd5b50356001600160a01b0316610779565b6101ea6107c8565b610152600480360360408110156102e657600080fd5b506001600160a01b0381351690602001356107d8565b6101526004803603604081101561031257600080fd5b506001600160a01b038135169060200135610831565b6101526004803603602081101561033e57600080fd5b50356001600160a01b031661088a565b6101ea6004803603602081101561036457600080fd5b50356001600160a01b031661089d565b61016e6004803603604081101561038a57600080fd5b506001600160a01b0381358116916020013516610949565b6101005460009060ff16156103f1576040805162461bcd60e51b815260206004820152601060248201526f14185d5cd8589b194e881c185d5cd95960821b604482015290519081900360640190fd5b6103fb8383610974565b9392505050565b60355490565b6101005460009060ff1615610457576040805162461bcd60e51b815260206004820152601060248201526f14185d5cd8589b194e881c185d5cd95960821b604482015290519081900360640190fd5b610462848484610988565b949350505050565b6101005460009060ff16156104b9576040805162461bcd60e51b815260206004820152601060248201526f14185d5cd8589b194e881c185d5cd95960821b604482015290519081900360640190fd5b6103fb8383610a15565b6104d36104ce610a69565b61060e565b61050e5760405162461bcd60e51b81526004018080602001828103825260308152602001806114436030913960400191505060405180910390fd5b6101005460ff1661055d576040805162461bcd60e51b815260206004820152601460248201527314185d5cd8589b194e881b9bdd081c185d5cd95960621b604482015290519081900360640190fd5b610100805460ff191690557f5db9ee0a495bf2e6ff9c91a7834c1ba4fdd244a5e8aa4e537bd38aeae4b073aa610591610a69565b604080516001600160a01b039092168252519081900360200190a1565b60006105c06105bb610a69565b61088a565b6105fb5760405162461bcd60e51b81526004018080602001828103825260308152602001806114bb6030913960400191505060405180910390fd5b6106058383610a6d565b50600192915050565b600061062160cd8363ffffffff610b5f16565b92915050565b6101005460ff1690565b61064161063c610a69565b610bc6565b565b6001600160a01b031660009081526033602052604090205490565b6106696104ce610a69565b6106a45760405162461bcd60e51b81526004018080602001828103825260308152602001806114436030913960400191505060405180910390fd5b6106ad81610c0e565b50565b6106bb6104ce610a69565b6106f65760405162461bcd60e51b81526004018080602001828103825260308152602001806114436030913960400191505060405180910390fd5b6101005460ff1615610742576040805162461bcd60e51b815260206004820152601060248201526f14185d5cd8589b194e881c185d5cd95960821b604482015290519081900360640190fd5b610100805460ff191660011790557f62e78cea01bee320cd4e420270b5ea74000d11b0c9f74754ebdbfc544b05a258610591610a69565b6107846105bb610a69565b6107bf5760405162461bcd60e51b81526004018080602001828103825260308152602001806114bb6030913960400191505060405180910390fd5b6106ad81610c56565b6106416107d3610a69565b610c9e565b6101005460009060ff1615610827576040805162461bcd60e51b815260206004820152601060248201526f14185d5cd8589b194e881c185d5cd95960821b604482015290519081900360640190fd5b6103fb8383610ce6565b6101005460009060ff1615610880576040805162461bcd60e51b815260206004820152601060248201526f14185d5cd8589b194e881c185d5cd95960821b604482015290519081900360640190fd5b6103fb8383610d54565b600061062160688363ffffffff610b5f16565b600054610100900460ff16806108b657506108b6610d68565b806108c4575060005460ff16155b6108ff5760405162461bcd60e51b815260040180806020018281038252602e815260200180611556602e913960400191505060405180910390fd5b600054610100900460ff1615801561092a576000805460ff1961ff0019909116610100171660011790555b61093382610d6e565b8015610945576000805461ff00191690555b5050565b6001600160a01b03918216600090815260346020908152604080832093909416825291909152205490565b6000610605610981610a69565b8484610e24565b6000610995848484610f10565b610a0b846109a1610a69565b610a068560405180606001604052806028815260200161150c602891396001600160a01b038a166000908152603460205260408120906109df610a69565b6001600160a01b03168152602081019190915260400160002054919063ffffffff61106e16565b610e24565b5060019392505050565b6000610605610a22610a69565b84610a068560346000610a33610a69565b6001600160a01b03908116825260208083019390935260409182016000908120918c16815292529020549063ffffffff61110516565b3390565b6001600160a01b038216610ac8576040805162461bcd60e51b815260206004820152601f60248201527f45524332303a206d696e7420746f20746865207a65726f206164647265737300604482015290519081900360640190fd5b603554610adb908263ffffffff61110516565b6035556001600160a01b038216600090815260336020526040902054610b07908263ffffffff61110516565b6001600160a01b03831660008181526033602090815260408083209490945583518581529351929391927fddf252ad1be2c89b69c2b068fc378daa952ba7f163c4a11628f55a4df523b3ef9281900390910190a35050565b60006001600160a01b038216610ba65760405162461bcd60e51b81526004018080602001828103825260228152602001806115346022913960400191505060405180910390fd5b506001600160a01b03166000908152602091909152604090205460ff1690565b610bd760cd8263ffffffff61115f16565b6040516001600160a01b038216907fcd265ebaf09df2871cc7bd4133404a235ba12eff2041bb89d9c714a2621c7c7e90600090a250565b610c1f60cd8263ffffffff6111c616565b6040516001600160a01b038216907f6719d08c1888103bea251a4ed56406bd0c3e69723c8a1686e017e7bbe159b6f890600090a250565b610c6760688263ffffffff6111c616565b6040516001600160a01b038216907f6ae172837ea30b801fbfcdd4108aa1d5bf8ff775444fd70256b44e6bf3dfc3f690600090a250565b610caf60688263ffffffff61115f16565b6040516001600160a01b038216907fe94479a9f7e1952cc78f2d6baab678adc1b772d936c6583def489e524cb6669290600090a250565b6000610605610cf3610a69565b84610a06856040518060600160405280602581526020016115cd6025913960346000610d1d610a69565b6001600160a01b03908116825260208083019390935260409182016000908120918d1681529252902054919063ffffffff61106e16565b6000610605610d61610a69565b8484610f10565b303b1590565b600054610100900460ff1680610d875750610d87610d68565b80610d95575060005460ff16155b610dd05760405162461bcd60e51b815260040180806020018281038252602e815260200180611556602e913960400191505060405180910390fd5b600054610100900460ff16158015610dfb576000805460ff1961ff0019909116610100171660011790555b610e0482611247565b610100805460ff191690558015610945576000805461ff00191690555050565b6001600160a01b038316610e695760405162461bcd60e51b81526004018080602001828103825260248152602001806115a96024913960400191505060405180910390fd5b6001600160a01b038216610eae5760405162461bcd60e51b81526004018080602001828103825260228152602001806114736022913960400191505060405180910390fd5b6001600160a01b03808416600081815260346020908152604080832094871680845294825291829020859055815185815291517f8c5be1e5ebec7d5bd14f71427d1e84f3dd0314c0f7b2291e5b200ac8c7c3b9259281900390910190a3505050565b6001600160a01b038316610f555760405162461bcd60e51b81526004018080602001828103825260258152602001806115846025913960400191505060405180910390fd5b6001600160a01b038216610f9a5760405162461bcd60e51b81526004018080602001828103825260238152602001806114206023913960400191505060405180910390fd5b610fdd81604051806060016040528060268152602001611495602691396001600160a01b038616600090815260336020526040902054919063ffffffff61106e16565b6001600160a01b038085166000908152603360205260408082209390935590841681522054611012908263ffffffff61110516565b6001600160a01b0380841660008181526033602090815260409182902094909455805185815290519193928716927fddf252ad1be2c89b69c2b068fc378daa952ba7f163c4a11628f55a4df523b3ef92918290030190a3505050565b600081848411156110fd5760405162461bcd60e51b81526004018080602001828103825283818151815260200191508051906020019080838360005b838110156110c25781810151838201526020016110aa565b50505050905090810190601f1680156110ef5780820380516001836020036101000a031916815260200191505b509250505060405180910390fd5b505050900390565b6000828201838110156103fb576040805162461bcd60e51b815260206004820152601b60248201527f536166654d6174683a206164646974696f6e206f766572666c6f770000000000604482015290519081900360640190fd5b6111698282610b5f565b6111a45760405162461bcd60e51b81526004018080602001828103825260218152602001806114eb6021913960400191505060405180910390fd5b6001600160a01b0316600090815260209190915260409020805460ff19169055565b6111d08282610b5f565b15611222576040805162461bcd60e51b815260206004820152601f60248201527f526f6c65733a206163636f756e7420616c72656164792068617320726f6c6500604482015290519081900360640190fd5b6001600160a01b0316600090815260209190915260409020805460ff19166001179055565b600054610100900460ff16806112605750611260610d68565b8061126e575060005460ff16155b6112a95760405162461bcd60e51b815260040180806020018281038252602e815260200180611556602e913960400191505060405180910390fd5b600054610100900460ff161580156112d4576000805460ff1961ff0019909116610100171660011790555b6112dd8261060e565b6109335761093382610c0e565b600054610100900460ff16806113035750611303610d68565b80611311575060005460ff16155b61134c5760405162461bcd60e51b815260040180806020018281038252602e815260200180611556602e913960400191505060405180910390fd5b600054610100900460ff16158015611377576000805460ff1961ff0019909116610100171660011790555b610933825b600054610100900460ff16806113955750611395610d68565b806113a3575060005460ff16155b6113de5760405162461bcd60e51b815260040180806020018281038252602e815260200180611556602e913960400191505060405180910390fd5b600054610100900460ff16158015611409576000805460ff1961ff0019909116610100171660011790555b6114128261088a565b6109335761093382610c5656fe45524332303a207472616e7366657220746f20746865207a65726f2061646472657373506175736572526f6c653a2063616c6c657220646f6573206e6f742068617665207468652050617573657220726f6c6545524332303a20617070726f766520746f20746865207a65726f206164647265737345524332303a207472616e7366657220616d6f756e7420657863656564732062616c616e63654d696e746572526f6c653a2063616c6c657220646f6573206e6f74206861766520746865204d696e74657220726f6c65526f6c65733a206163636f756e7420646f6573206e6f74206861766520726f6c6545524332303a207472616e7366657220616d6f756e74206578636565647320616c6c6f77616e6365526f6c65733a206163636f756e7420697320746865207a65726f2061646472657373436f6e747261637420696e7374616e63652068617320616c7265616479206265656e20696e697469616c697a656445524332303a207472616e736665722066726f6d20746865207a65726f206164647265737345524332303a20617070726f76652066726f6d20746865207a65726f206164647265737345524332303a2064656372656173656420616c6c6f77616e63652062656c6f77207a65726fa265627a7a72315820d3d57da7d0cfcb8c2902ff85af69416c273ae0e8c89deb5d273e3093d18fe85f64736f6c63430005110032526f6c65733a206163636f756e7420697320746865207a65726f2061646472657373436f6e747261637420696e7374616e63652068617320616c7265616479206265656e20696e697469616c697a6564",
  "linkReferences": {},
  "deployedLinkReferences": {}
}