{
  "_format": "hh-sol-artifact-1",
  "contractName": "InsureDAOERC20Mock",
  "sourceName": "contracts/mocks/InsureDAOERC20Mock.sol",
  "abi": [
    {
      "inputs": [],
      "stateMutability": "nonpayable",
      "type": "constructor"
    },
    {
      "anonymous": false,
      "inputs": [
        {
          "indexed": true,
          "internalType": "address",
          "name": "owner",
          "type": "address"
        },
        {
          "indexed": true,
          "internalType": "address",
          "name": "spender",
          "type": "address"
        },
        {
          "indexed": false,
          "internalType": "uint256",
          "name": "value",
          "type": "uint256"
        }
      ],
      "name": "Approval",
      "type": "event"
    },
    {
      "anonymous": false,
      "inputs": [
        {
          "indexed": true,
          "internalType": "address",
          "name": "from",
          "type": "address"
        },
        {
          "indexed": true,
          "internalType": "address",
          "name": "to",
          "type": "address"
        },
        {
          "indexed": false,
          "internalType": "uint256",
          "name": "value",
          "type": "uint256"
        }
      ],
      "name": "Transfer",
      "type": "event"
    },
    {
      "inputs": [
        {
          "internalType": "address",
          "name": "owner",
          "type": "address"
        },
        {
          "internalType": "address",
          "name": "spender",
          "type": "address"
        }
      ],
      "name": "allowance",
      "outputs": [
        {
          "internalType": "uint256",
          "name": "",
          "type": "uint256"
        }
      ],
      "stateMutability": "view",
      "type": "function"
    },
    {
      "inputs": [
        {
          "internalType": "address",
          "name": "spender",
          "type": "address"
        },
        {
          "internalType": "uint256",
          "name": "amount",
          "type": "uint256"
        }
      ],
      "name": "approve",
      "outputs": [
        {
          "internalType": "bool",
          "name": "",
          "type": "bool"
        }
      ],
      "stateMutability": "nonpayable",
      "type": "function"
    },
    {
      "inputs": [
        {
          "internalType": "address",
          "name": "account",
          "type": "address"
        }
      ],
      "name": "balanceOf",
      "outputs": [
        {
          "internalType": "uint256",
          "name": "",
          "type": "uint256"
        }
      ],
      "stateMutability": "view",
      "type": "function"
    },
    {
      "inputs": [
        {
          "internalType": "uint256",
          "name": "_amount",
          "type": "uint256"
        }
      ],
      "name": "burn",
      "outputs": [],
      "stateMutability": "nonpayable",
      "type": "function"
    },
    {
      "inputs": [],
      "name": "decimals",
      "outputs": [
        {
          "internalType": "uint8",
          "name": "",
          "type": "uint8"
        }
      ],
      "stateMutability": "view",
      "type": "function"
    },
    {
      "inputs": [
        {
          "internalType": "address",
          "name": "spender",
          "type": "address"
        },
        {
          "internalType": "uint256",
          "name": "subtractedValue",
          "type": "uint256"
        }
      ],
      "name": "decreaseAllowance",
      "outputs": [
        {
          "internalType": "bool",
          "name": "",
          "type": "bool"
        }
      ],
      "stateMutability": "nonpayable",
      "type": "function"
    },
    {
      "inputs": [
        {
          "internalType": "address",
          "name": "spender",
          "type": "address"
        },
        {
          "internalType": "uint256",
          "name": "addedValue",
          "type": "uint256"
        }
      ],
      "name": "increaseAllowance",
      "outputs": [
        {
          "internalType": "bool",
          "name": "",
          "type": "bool"
        }
      ],
      "stateMutability": "nonpayable",
      "type": "function"
    },
    {
      "inputs": [
        {
          "internalType": "string",
          "name": "name_",
          "type": "string"
        },
        {
          "internalType": "string",
          "name": "symbol_",
          "type": "string"
        },
        {
          "internalType": "uint8",
          "name": "decimals_",
          "type": "uint8"
        }
      ],
      "name": "initialize",
      "outputs": [],
      "stateMutability": "nonpayable",
      "type": "function"
    },
    {
      "inputs": [
        {
          "internalType": "address",
          "name": "_account",
          "type": "address"
        },
        {
          "internalType": "uint256",
          "name": "_amount",
          "type": "uint256"
        }
      ],
      "name": "mint",
      "outputs": [],
      "stateMutability": "nonpayable",
      "type": "function"
    },
    {
      "inputs": [],
      "name": "name",
      "outputs": [
        {
          "internalType": "string",
          "name": "",
          "type": "string"
        }
      ],
      "stateMutability": "view",
      "type": "function"
    },
    {
      "inputs": [],
      "name": "symbol",
      "outputs": [
        {
          "internalType": "string",
          "name": "",
          "type": "string"
        }
      ],
      "stateMutability": "view",
      "type": "function"
    },
    {
      "inputs": [],
      "name": "totalSupply",
      "outputs": [
        {
          "internalType": "uint256",
          "name": "",
          "type": "uint256"
        }
      ],
      "stateMutability": "view",
      "type": "function"
    },
    {
      "inputs": [
        {
          "internalType": "address",
          "name": "recipient",
          "type": "address"
        },
        {
          "internalType": "uint256",
          "name": "amount",
          "type": "uint256"
        }
      ],
      "name": "transfer",
      "outputs": [
        {
          "internalType": "bool",
          "name": "",
          "type": "bool"
        }
      ],
      "stateMutability": "nonpayable",
      "type": "function"
    },
    {
      "inputs": [
        {
          "internalType": "address",
          "name": "sender",
          "type": "address"
        },
        {
          "internalType": "address",
          "name": "recipient",
          "type": "address"
        },
        {
          "internalType": "uint256",
          "name": "amount",
          "type": "uint256"
        }
      ],
      "name": "transferFrom",
      "outputs": [
        {
          "internalType": "bool",
          "name": "",
          "type": "bool"
        }
      ],
      "stateMutability": "nonpayable",
      "type": "function"
    }
  ],
  "bytecode": "0x60c0604052601260808190527124b739bab932a220a7902628102a37b5b2b760711b60a090815262000035916004919062000084565b50604080518082019091526003808252620694c560ec1b6020909201918252620000629160059162000084565b506006805460ff191660121790553480156200007d57600080fd5b5062000167565b82805462000092906200012a565b90600052602060002090601f016020900481019282620000b6576000855562000101565b82601f10620000d157805160ff191683800117855562000101565b8280016001018555821562000101579182015b8281111562000101578251825591602001919060010190620000e4565b506200010f92915062000113565b5090565b5b808211156200010f576000815560010162000114565b600181811c908216806200013f57607f821691505b602082108114156200016157634e487b7160e01b600052602260045260246000fd5b50919050565b610e1c80620001776000396000f3fe608060405234801561001057600080fd5b50600436106100ea5760003560e01c806340c10f191161008c57806395d89b411161006657806395d89b41146101e1578063a457c2d7146101e9578063a9059cbb146101fc578063dd62ed3e1461020f57600080fd5b806340c10f191461019257806342966c68146101a557806370a08231146101b857600080fd5b806318160ddd116100c857806318160ddd1461014557806323b872dd14610157578063313ce5671461016a578063395093511461017f57600080fd5b806306fdde03146100ef578063095ea7b31461010d5780631624f6c614610130575b600080fd5b6100f7610248565b6040516101049190610ce5565b60405180910390f35b61012061011b366004610c24565b6102da565b6040519015158152602001610104565b61014361013e366004610c4e565b6102f0565b005b6002545b604051908152602001610104565b610120610165366004610be8565b610300565b60065460405160ff9091168152602001610104565b61012061018d366004610c24565b6103b6565b6101436101a0366004610c24565b6103ed565b6101436101b3366004610ccc565b6103fb565b6101496101c6366004610b93565b6001600160a01b031660009081526020819052604090205490565b6100f7610408565b6101206101f7366004610c24565b610417565b61012061020a366004610c24565b6104b2565b61014961021d366004610bb5565b6001600160a01b03918216600090815260016020908152604080832093909416825291909152205490565b60606004805461025790610d69565b80601f016020809104026020016040519081016040528092919081815260200182805461028390610d69565b80156102d05780601f106102a5576101008083540402835291602001916102d0565b820191906000526020600020905b8154815290600101906020018083116102b357829003601f168201915b5050505050905090565b60006102e73384846104bf565b50600192915050565b6102fb8383836105e3565b505050565b600061030d848484610643565b6001600160a01b0384166000908152600160209081526040808320338452909152902054828110156103975760405162461bcd60e51b815260206004820152602860248201527f45524332303a207472616e7366657220616d6f756e74206578636565647320616044820152676c6c6f77616e636560c01b60648201526084015b60405180910390fd5b6103ab85336103a68685610d52565b6104bf565b506001949350505050565b3360008181526001602090815260408083206001600160a01b038716845290915281205490916102e79185906103a6908690610d3a565b6103f7828261081b565b5050565b61040533826108fa565b50565b60606005805461025790610d69565b3360009081526001602090815260408083206001600160a01b0386168452909152812054828110156104995760405162461bcd60e51b815260206004820152602560248201527f45524332303a2064656372656173656420616c6c6f77616e63652062656c6f77604482015264207a65726f60d81b606482015260840161038e565b6104a833856103a68685610d52565b5060019392505050565b60006102e7338484610643565b6001600160a01b0383166105215760405162461bcd60e51b8152602060048201526024808201527f45524332303a20617070726f76652066726f6d20746865207a65726f206164646044820152637265737360e01b606482015260840161038e565b6001600160a01b0382166105825760405162461bcd60e51b815260206004820152602260248201527f45524332303a20617070726f766520746f20746865207a65726f206164647265604482015261737360f01b606482015260840161038e565b6001600160a01b0383811660008181526001602090815260408083209487168084529482529182902085905590518481527f8c5be1e5ebec7d5bd14f71427d1e84f3dd0314c0f7b2291e5b200ac8c7c3b925910160405180910390a3505050565b60035460ff16156105f6576105f6610da4565b6003805460ff191660011790558251610616906004906020860190610a51565b50815161062a906005906020850190610a51565b506006805460ff191660ff929092169190911790555050565b6001600160a01b0383166106a75760405162461bcd60e51b815260206004820152602560248201527f45524332303a207472616e736665722066726f6d20746865207a65726f206164604482015264647265737360d81b606482015260840161038e565b6001600160a01b0382166107095760405162461bcd60e51b815260206004820152602360248201527f45524332303a207472616e7366657220746f20746865207a65726f206164647260448201526265737360e81b606482015260840161038e565b6001600160a01b038316600090815260208190526040902054818110156107815760405162461bcd60e51b815260206004820152602660248201527f45524332303a207472616e7366657220616d6f756e7420657863656564732062604482015265616c616e636560d01b606482015260840161038e565b61078b8282610d52565b6001600160a01b0380861660009081526020819052604080822093909355908516815290812080548492906107c1908490610d3a565b92505081905550826001600160a01b0316846001600160a01b03167fddf252ad1be2c89b69c2b068fc378daa952ba7f163c4a11628f55a4df523b3ef8460405161080d91815260200190565b60405180910390a350505050565b6001600160a01b0382166108715760405162461bcd60e51b815260206004820152601f60248201527f45524332303a206d696e7420746f20746865207a65726f206164647265737300604482015260640161038e565b80600260008282546108839190610d3a565b90915550506001600160a01b038216600090815260208190526040812080548392906108b0908490610d3a565b90915550506040518181526001600160a01b038316906000907fddf252ad1be2c89b69c2b068fc378daa952ba7f163c4a11628f55a4df523b3ef9060200160405180910390a35050565b6001600160a01b03821661095a5760405162461bcd60e51b815260206004820152602160248201527f45524332303a206275726e2066726f6d20746865207a65726f206164647265736044820152607360f81b606482015260840161038e565b6001600160a01b038216600090815260208190526040902054818110156109ce5760405162461bcd60e51b815260206004820152602260248201527f45524332303a206275726e20616d6f756e7420657863656564732062616c616e604482015261636560f01b606482015260840161038e565b6109d88282610d52565b6001600160a01b03841660009081526020819052604081209190915560028054849290610a06908490610d52565b90915550506040518281526000906001600160a01b038516907fddf252ad1be2c89b69c2b068fc378daa952ba7f163c4a11628f55a4df523b3ef9060200160405180910390a3505050565b828054610a5d90610d69565b90600052602060002090601f016020900481019282610a7f5760008555610ac5565b82601f10610a9857805160ff1916838001178555610ac5565b82800160010185558215610ac5579182015b82811115610ac5578251825591602001919060010190610aaa565b50610ad1929150610ad5565b5090565b5b80821115610ad15760008155600101610ad6565b80356001600160a01b0381168114610b0157600080fd5b919050565b600082601f830112610b1757600080fd5b813567ffffffffffffffff80821115610b3257610b32610dd0565b604051601f8301601f19908116603f01168101908282118183101715610b5a57610b5a610dd0565b81604052838152866020858801011115610b7357600080fd5b836020870160208301376000602085830101528094505050505092915050565b600060208284031215610ba557600080fd5b610bae82610aea565b9392505050565b60008060408385031215610bc857600080fd5b610bd183610aea565b9150610bdf60208401610aea565b90509250929050565b600080600060608486031215610bfd57600080fd5b610c0684610aea565b9250610c1460208501610aea565b9150604084013590509250925092565b60008060408385031215610c3757600080fd5b610c4083610aea565b946020939093013593505050565b600080600060608486031215610c6357600080fd5b833567ffffffffffffffff80821115610c7b57600080fd5b610c8787838801610b06565b94506020860135915080821115610c9d57600080fd5b50610caa86828701610b06565b925050604084013560ff81168114610cc157600080fd5b809150509250925092565b600060208284031215610cde57600080fd5b5035919050565b600060208083528351808285015260005b81811015610d1257858101830151858201604001528201610cf6565b81811115610d24576000604083870101525b50601f01601f1916929092016040019392505050565b60008219821115610d4d57610d4d610dba565b500190565b600082821015610d6457610d64610dba565b500390565b600181811c90821680610d7d57607f821691505b60208210811415610d9e57634e487b7160e01b600052602260045260246000fd5b50919050565b634e487b7160e01b600052600160045260246000fd5b634e487b7160e01b600052601160045260246000fd5b634e487b7160e01b600052604160045260246000fdfea2646970667358221220b97a3128f79144f09451ea4ba030b8d97e732fb06c431dbee51f316e33caca8d64736f6c63430008070033",
  "linkReferences": {},
  "deployedLinkReferences": {}
}