{
  "_format": "hh-sol-artifact-1",
  "contractName": "LpIssuerGovernance",
  "sourceName": "contracts/LpIssuerGovernance.sol",
  "abi": [
    {
      "inputs": [
        {
          "components": [
            {
              "internalType": "contract IProtocolGovernance",
              "name": "protocolGovernance",
              "type": "address"
            },
            {
              "internalType": "contract IVaultRegistry",
              "name": "registry",
              "type": "address"
            }
          ],
          "internalType": "struct IVaultGovernance.InternalParams",
          "name": "internalParams_",
          "type": "tuple"
        },
        {
          "components": [
            {
              "internalType": "uint256",
              "name": "managementFeeChargeDelay",
              "type": "uint256"
            }
          ],
          "internalType": "struct ILpIssuerGovernance.DelayedProtocolParams",
          "name": "delayedProtocolParams_",
          "type": "tuple"
        }
      ],
      "stateMutability": "nonpayable",
      "type": "constructor"
    },
    {
      "anonymous": false,
      "inputs": [
        {
          "indexed": true,
          "internalType": "address",
          "name": "origin",
          "type": "address"
        },
        {
          "indexed": true,
          "internalType": "address",
          "name": "sender",
          "type": "address"
        },
        {
          "components": [
            {
              "internalType": "uint256",
              "name": "managementFeeChargeDelay",
              "type": "uint256"
            }
          ],
          "indexed": false,
          "internalType": "struct ILpIssuerGovernance.DelayedProtocolParams",
          "name": "params",
          "type": "tuple"
        }
      ],
      "name": "CommitDelayedProtocolParams",
      "type": "event"
    },
    {
      "anonymous": false,
      "inputs": [
        {
          "indexed": true,
          "internalType": "address",
          "name": "origin",
          "type": "address"
        },
        {
          "indexed": true,
          "internalType": "address",
          "name": "sender",
          "type": "address"
        },
        {
          "indexed": true,
          "internalType": "uint256",
          "name": "nft",
          "type": "uint256"
        },
        {
          "components": [
            {
              "internalType": "uint256",
              "name": "protocolFee",
              "type": "uint256"
            }
          ],
          "indexed": false,
          "internalType": "struct ILpIssuerGovernance.DelayedProtocolPerVaultParams",
          "name": "params",
          "type": "tuple"
        }
      ],
      "name": "CommitDelayedProtocolPerVaultParams",
      "type": "event"
    },
    {
      "anonymous": false,
      "inputs": [
        {
          "indexed": true,
          "internalType": "address",
          "name": "origin",
          "type": "address"
        },
        {
          "indexed": true,
          "internalType": "address",
          "name": "sender",
          "type": "address"
        },
        {
          "indexed": true,
          "internalType": "uint256",
          "name": "nft",
          "type": "uint256"
        },
        {
          "components": [
            {
              "internalType": "address",
              "name": "strategyTreasury",
              "type": "address"
            },
            {
              "internalType": "address",
              "name": "strategyPerformanceTreasury",
              "type": "address"
            },
            {
              "internalType": "uint256",
              "name": "managementFee",
              "type": "uint256"
            },
            {
              "internalType": "uint256",
              "name": "performanceFee",
              "type": "uint256"
            }
          ],
          "indexed": false,
          "internalType": "struct ILpIssuerGovernance.DelayedStrategyParams",
          "name": "params",
          "type": "tuple"
        }
      ],
      "name": "CommitDelayedStrategyParams",
      "type": "event"
    },
    {
      "anonymous": false,
      "inputs": [
        {
          "indexed": true,
          "internalType": "address",
          "name": "origin",
          "type": "address"
        },
        {
          "indexed": true,
          "internalType": "address",
          "name": "sender",
          "type": "address"
        },
        {
          "components": [
            {
              "internalType": "contract IProtocolGovernance",
              "name": "protocolGovernance",
              "type": "address"
            },
            {
              "internalType": "contract IVaultRegistry",
              "name": "registry",
              "type": "address"
            }
          ],
          "indexed": false,
          "internalType": "struct IVaultGovernance.InternalParams",
          "name": "params",
          "type": "tuple"
        }
      ],
      "name": "CommitedInternalParams",
      "type": "event"
    },
    {
      "anonymous": false,
      "inputs": [
        {
          "indexed": true,
          "internalType": "address",
          "name": "origin",
          "type": "address"
        },
        {
          "indexed": true,
          "internalType": "address",
          "name": "sender",
          "type": "address"
        },
        {
          "indexed": false,
          "internalType": "address[]",
          "name": "vaultTokens",
          "type": "address[]"
        },
        {
          "indexed": false,
          "internalType": "bytes",
          "name": "options",
          "type": "bytes"
        },
        {
          "indexed": false,
          "internalType": "address",
          "name": "owner",
          "type": "address"
        },
        {
          "indexed": false,
          "internalType": "address",
          "name": "vaultAddress",
          "type": "address"
        },
        {
          "indexed": false,
          "internalType": "uint256",
          "name": "vaultNft",
          "type": "uint256"
        }
      ],
      "name": "DeployedVault",
      "type": "event"
    },
    {
      "anonymous": false,
      "inputs": [
        {
          "indexed": true,
          "internalType": "address",
          "name": "origin",
          "type": "address"
        },
        {
          "indexed": true,
          "internalType": "address",
          "name": "sender",
          "type": "address"
        },
        {
          "indexed": true,
          "internalType": "uint256",
          "name": "nft",
          "type": "uint256"
        },
        {
          "components": [
            {
              "internalType": "uint256",
              "name": "tokenLimitPerAddress",
              "type": "uint256"
            }
          ],
          "indexed": false,
          "internalType": "struct ILpIssuerGovernance.StrategyParams",
          "name": "params",
          "type": "tuple"
        }
      ],
      "name": "SetStrategyParams",
      "type": "event"
    },
    {
      "anonymous": false,
      "inputs": [
        {
          "indexed": true,
          "internalType": "address",
          "name": "origin",
          "type": "address"
        },
        {
          "indexed": true,
          "internalType": "address",
          "name": "sender",
          "type": "address"
        },
        {
          "components": [
            {
              "internalType": "uint256",
              "name": "managementFeeChargeDelay",
              "type": "uint256"
            }
          ],
          "indexed": false,
          "internalType": "struct ILpIssuerGovernance.DelayedProtocolParams",
          "name": "params",
          "type": "tuple"
        },
        {
          "indexed": false,
          "internalType": "uint256",
          "name": "when",
          "type": "uint256"
        }
      ],
      "name": "StageDelayedProtocolParams",
      "type": "event"
    },
    {
      "anonymous": false,
      "inputs": [
        {
          "indexed": true,
          "internalType": "address",
          "name": "origin",
          "type": "address"
        },
        {
          "indexed": true,
          "internalType": "address",
          "name": "sender",
          "type": "address"
        },
        {
          "indexed": true,
          "internalType": "uint256",
          "name": "nft",
          "type": "uint256"
        },
        {
          "components": [
            {
              "internalType": "uint256",
              "name": "protocolFee",
              "type": "uint256"
            }
          ],
          "indexed": false,
          "internalType": "struct ILpIssuerGovernance.DelayedProtocolPerVaultParams",
          "name": "params",
          "type": "tuple"
        },
        {
          "indexed": false,
          "internalType": "uint256",
          "name": "when",
          "type": "uint256"
        }
      ],
      "name": "StageDelayedProtocolPerVaultParams",
      "type": "event"
    },
    {
      "anonymous": false,
      "inputs": [
        {
          "indexed": true,
          "internalType": "address",
          "name": "origin",
          "type": "address"
        },
        {
          "indexed": true,
          "internalType": "address",
          "name": "sender",
          "type": "address"
        },
        {
          "indexed": true,
          "internalType": "uint256",
          "name": "nft",
          "type": "uint256"
        },
        {
          "components": [
            {
              "internalType": "address",
              "name": "strategyTreasury",
              "type": "address"
            },
            {
              "internalType": "address",
              "name": "strategyPerformanceTreasury",
              "type": "address"
            },
            {
              "internalType": "uint256",
              "name": "managementFee",
              "type": "uint256"
            },
            {
              "internalType": "uint256",
              "name": "performanceFee",
              "type": "uint256"
            }
          ],
          "indexed": false,
          "internalType": "struct ILpIssuerGovernance.DelayedStrategyParams",
          "name": "params",
          "type": "tuple"
        },
        {
          "indexed": false,
          "internalType": "uint256",
          "name": "when",
          "type": "uint256"
        }
      ],
      "name": "StageDelayedStrategyParams",
      "type": "event"
    },
    {
      "anonymous": false,
      "inputs": [
        {
          "indexed": true,
          "internalType": "address",
          "name": "origin",
          "type": "address"
        },
        {
          "indexed": true,
          "internalType": "address",
          "name": "sender",
          "type": "address"
        },
        {
          "components": [
            {
              "internalType": "contract IProtocolGovernance",
              "name": "protocolGovernance",
              "type": "address"
            },
            {
              "internalType": "contract IVaultRegistry",
              "name": "registry",
              "type": "address"
            }
          ],
          "indexed": false,
          "internalType": "struct IVaultGovernance.InternalParams",
          "name": "params",
          "type": "tuple"
        },
        {
          "indexed": false,
          "internalType": "uint256",
          "name": "when",
          "type": "uint256"
        }
      ],
      "name": "StagedInternalParams",
      "type": "event"
    },
    {
      "inputs": [],
      "name": "MAX_MANAGEMENT_FEE",
      "outputs": [
        {
          "internalType": "uint256",
          "name": "",
          "type": "uint256"
        }
      ],
      "stateMutability": "view",
      "type": "function"
    },
    {
      "inputs": [],
      "name": "MAX_PERFORMANCE_FEE",
      "outputs": [
        {
          "internalType": "uint256",
          "name": "",
          "type": "uint256"
        }
      ],
      "stateMutability": "view",
      "type": "function"
    },
    {
      "inputs": [],
      "name": "MAX_PROTOCOL_FEE",
      "outputs": [
        {
          "internalType": "uint256",
          "name": "",
          "type": "uint256"
        }
      ],
      "stateMutability": "view",
      "type": "function"
    },
    {
      "inputs": [],
      "name": "commitDelayedProtocolParams",
      "outputs": [],
      "stateMutability": "nonpayable",
      "type": "function"
    },
    {
      "inputs": [
        {
          "internalType": "uint256",
          "name": "nft",
          "type": "uint256"
        }
      ],
      "name": "commitDelayedProtocolPerVaultParams",
      "outputs": [],
      "stateMutability": "nonpayable",
      "type": "function"
    },
    {
      "inputs": [
        {
          "internalType": "uint256",
          "name": "nft",
          "type": "uint256"
        }
      ],
      "name": "commitDelayedStrategyParams",
      "outputs": [],
      "stateMutability": "nonpayable",
      "type": "function"
    },
    {
      "inputs": [],
      "name": "commitInternalParams",
      "outputs": [],
      "stateMutability": "nonpayable",
      "type": "function"
    },
    {
      "inputs": [],
      "name": "delayedProtocolParams",
      "outputs": [
        {
          "components": [
            {
              "internalType": "uint256",
              "name": "managementFeeChargeDelay",
              "type": "uint256"
            }
          ],
          "internalType": "struct ILpIssuerGovernance.DelayedProtocolParams",
          "name": "",
          "type": "tuple"
        }
      ],
      "stateMutability": "view",
      "type": "function"
    },
    {
      "inputs": [],
      "name": "delayedProtocolParamsTimestamp",
      "outputs": [
        {
          "internalType": "uint256",
          "name": "",
          "type": "uint256"
        }
      ],
      "stateMutability": "view",
      "type": "function"
    },
    {
      "inputs": [
        {
          "internalType": "uint256",
          "name": "nft",
          "type": "uint256"
        }
      ],
      "name": "delayedProtocolPerVaultParams",
      "outputs": [
        {
          "components": [
            {
              "internalType": "uint256",
              "name": "protocolFee",
              "type": "uint256"
            }
          ],
          "internalType": "struct ILpIssuerGovernance.DelayedProtocolPerVaultParams",
          "name": "",
          "type": "tuple"
        }
      ],
      "stateMutability": "view",
      "type": "function"
    },
    {
      "inputs": [
        {
          "internalType": "uint256",
          "name": "nft",
          "type": "uint256"
        }
      ],
      "name": "delayedProtocolPerVaultParamsTimestamp",
      "outputs": [
        {
          "internalType": "uint256",
          "name": "",
          "type": "uint256"
        }
      ],
      "stateMutability": "view",
      "type": "function"
    },
    {
      "inputs": [
        {
          "internalType": "uint256",
          "name": "nft",
          "type": "uint256"
        }
      ],
      "name": "delayedStrategyParams",
      "outputs": [
        {
          "components": [
            {
              "internalType": "address",
              "name": "strategyTreasury",
              "type": "address"
            },
            {
              "internalType": "address",
              "name": "strategyPerformanceTreasury",
              "type": "address"
            },
            {
              "internalType": "uint256",
              "name": "managementFee",
              "type": "uint256"
            },
            {
              "internalType": "uint256",
              "name": "performanceFee",
              "type": "uint256"
            }
          ],
          "internalType": "struct ILpIssuerGovernance.DelayedStrategyParams",
          "name": "",
          "type": "tuple"
        }
      ],
      "stateMutability": "view",
      "type": "function"
    },
    {
      "inputs": [
        {
          "internalType": "uint256",
          "name": "nft",
          "type": "uint256"
        }
      ],
      "name": "delayedStrategyParamsTimestamp",
      "outputs": [
        {
          "internalType": "uint256",
          "name": "",
          "type": "uint256"
        }
      ],
      "stateMutability": "view",
      "type": "function"
    },
    {
      "inputs": [
        {
          "internalType": "address[]",
          "name": "vaultTokens",
          "type": "address[]"
        },
        {
          "internalType": "bytes",
          "name": "options",
          "type": "bytes"
        },
        {
          "internalType": "address",
          "name": "",
          "type": "address"
        }
      ],
      "name": "deployVault",
      "outputs": [
        {
          "internalType": "contract IVault",
          "name": "vault",
          "type": "address"
        },
        {
          "internalType": "uint256",
          "name": "nft",
          "type": "uint256"
        }
      ],
      "stateMutability": "nonpayable",
      "type": "function"
    },
    {
      "inputs": [],
      "name": "factory",
      "outputs": [
        {
          "internalType": "contract IVaultFactory",
          "name": "",
          "type": "address"
        }
      ],
      "stateMutability": "view",
      "type": "function"
    },
    {
      "inputs": [
        {
          "internalType": "contract IVaultFactory",
          "name": "factory_",
          "type": "address"
        }
      ],
      "name": "initialize",
      "outputs": [],
      "stateMutability": "nonpayable",
      "type": "function"
    },
    {
      "inputs": [],
      "name": "initialized",
      "outputs": [
        {
          "internalType": "bool",
          "name": "",
          "type": "bool"
        }
      ],
      "stateMutability": "view",
      "type": "function"
    },
    {
      "inputs": [],
      "name": "internalParams",
      "outputs": [
        {
          "components": [
            {
              "internalType": "contract IProtocolGovernance",
              "name": "protocolGovernance",
              "type": "address"
            },
            {
              "internalType": "contract IVaultRegistry",
              "name": "registry",
              "type": "address"
            }
          ],
          "internalType": "struct IVaultGovernance.InternalParams",
          "name": "",
          "type": "tuple"
        }
      ],
      "stateMutability": "view",
      "type": "function"
    },
    {
      "inputs": [],
      "name": "internalParamsTimestamp",
      "outputs": [
        {
          "internalType": "uint256",
          "name": "",
          "type": "uint256"
        }
      ],
      "stateMutability": "view",
      "type": "function"
    },
    {
      "inputs": [
        {
          "internalType": "address",
          "name": "",
          "type": "address"
        },
        {
          "internalType": "address",
          "name": "",
          "type": "address"
        },
        {
          "internalType": "uint256",
          "name": "",
          "type": "uint256"
        },
        {
          "internalType": "bytes",
          "name": "",
          "type": "bytes"
        }
      ],
      "name": "onERC721Received",
      "outputs": [
        {
          "internalType": "bytes4",
          "name": "",
          "type": "bytes4"
        }
      ],
      "stateMutability": "view",
      "type": "function"
    },
    {
      "inputs": [
        {
          "internalType": "uint256",
          "name": "nft",
          "type": "uint256"
        },
        {
          "components": [
            {
              "internalType": "uint256",
              "name": "tokenLimitPerAddress",
              "type": "uint256"
            }
          ],
          "internalType": "struct ILpIssuerGovernance.StrategyParams",
          "name": "params",
          "type": "tuple"
        }
      ],
      "name": "setStrategyParams",
      "outputs": [],
      "stateMutability": "nonpayable",
      "type": "function"
    },
    {
      "inputs": [
        {
          "components": [
            {
              "internalType": "uint256",
              "name": "managementFeeChargeDelay",
              "type": "uint256"
            }
          ],
          "internalType": "struct ILpIssuerGovernance.DelayedProtocolParams",
          "name": "params",
          "type": "tuple"
        }
      ],
      "name": "stageDelayedProtocolParams",
      "outputs": [],
      "stateMutability": "nonpayable",
      "type": "function"
    },
    {
      "inputs": [
        {
          "internalType": "uint256",
          "name": "nft",
          "type": "uint256"
        },
        {
          "components": [
            {
              "internalType": "uint256",
              "name": "protocolFee",
              "type": "uint256"
            }
          ],
          "internalType": "struct ILpIssuerGovernance.DelayedProtocolPerVaultParams",
          "name": "params",
          "type": "tuple"
        }
      ],
      "name": "stageDelayedProtocolPerVaultParams",
      "outputs": [],
      "stateMutability": "nonpayable",
      "type": "function"
    },
    {
      "inputs": [
        {
          "internalType": "uint256",
          "name": "nft",
          "type": "uint256"
        },
        {
          "components": [
            {
              "internalType": "address",
              "name": "strategyTreasury",
              "type": "address"
            },
            {
              "internalType": "address",
              "name": "strategyPerformanceTreasury",
              "type": "address"
            },
            {
              "internalType": "uint256",
              "name": "managementFee",
              "type": "uint256"
            },
            {
              "internalType": "uint256",
              "name": "performanceFee",
              "type": "uint256"
            }
          ],
          "internalType": "struct ILpIssuerGovernance.DelayedStrategyParams",
          "name": "params",
          "type": "tuple"
        }
      ],
      "name": "stageDelayedStrategyParams",
      "outputs": [],
      "stateMutability": "nonpayable",
      "type": "function"
    },
    {
      "inputs": [
        {
          "components": [
            {
              "internalType": "contract IProtocolGovernance",
              "name": "protocolGovernance",
              "type": "address"
            },
            {
              "internalType": "contract IVaultRegistry",
              "name": "registry",
              "type": "address"
            }
          ],
          "internalType": "struct IVaultGovernance.InternalParams",
          "name": "newParams",
          "type": "tuple"
        }
      ],
      "name": "stageInternalParams",
      "outputs": [],
      "stateMutability": "nonpayable",
      "type": "function"
    },
    {
      "inputs": [],
      "name": "stagedDelayedProtocolParams",
      "outputs": [
        {
          "components": [
            {
              "internalType": "uint256",
              "name": "managementFeeChargeDelay",
              "type": "uint256"
            }
          ],
          "internalType": "struct ILpIssuerGovernance.DelayedProtocolParams",
          "name": "",
          "type": "tuple"
        }
      ],
      "stateMutability": "view",
      "type": "function"
    },
    {
      "inputs": [
        {
          "internalType": "uint256",
          "name": "nft",
          "type": "uint256"
        }
      ],
      "name": "stagedDelayedProtocolPerVaultParams",
      "outputs": [
        {
          "components": [
            {
              "internalType": "uint256",
              "name": "protocolFee",
              "type": "uint256"
            }
          ],
          "internalType": "struct ILpIssuerGovernance.DelayedProtocolPerVaultParams",
          "name": "",
          "type": "tuple"
        }
      ],
      "stateMutability": "view",
      "type": "function"
    },
    {
      "inputs": [
        {
          "internalType": "uint256",
          "name": "nft",
          "type": "uint256"
        }
      ],
      "name": "stagedDelayedStrategyParams",
      "outputs": [
        {
          "components": [
            {
              "internalType": "address",
              "name": "strategyTreasury",
              "type": "address"
            },
            {
              "internalType": "address",
              "name": "strategyPerformanceTreasury",
              "type": "address"
            },
            {
              "internalType": "uint256",
              "name": "managementFee",
              "type": "uint256"
            },
            {
              "internalType": "uint256",
              "name": "performanceFee",
              "type": "uint256"
            }
          ],
          "internalType": "struct ILpIssuerGovernance.DelayedStrategyParams",
          "name": "",
          "type": "tuple"
        }
      ],
      "stateMutability": "view",
      "type": "function"
    },
    {
      "inputs": [],
      "name": "stagedInternalParams",
      "outputs": [
        {
          "components": [
            {
              "internalType": "contract IProtocolGovernance",
              "name": "protocolGovernance",
              "type": "address"
            },
            {
              "internalType": "contract IVaultRegistry",
              "name": "registry",
              "type": "address"
            }
          ],
          "internalType": "struct IVaultGovernance.InternalParams",
          "name": "",
          "type": "tuple"
        }
      ],
      "stateMutability": "view",
      "type": "function"
    },
    {
      "inputs": [
        {
          "internalType": "uint256",
          "name": "nft",
          "type": "uint256"
        }
      ],
      "name": "strategyParams",
      "outputs": [
        {
          "components": [
            {
              "internalType": "uint256",
              "name": "tokenLimitPerAddress",
              "type": "uint256"
            }
          ],
          "internalType": "struct ILpIssuerGovernance.StrategyParams",
          "name": "",
          "type": "tuple"
        }
      ],
      "stateMutability": "view",
      "type": "function"
    }
  ],
  "bytecode": "0x60e06040523480156200001157600080fd5b5060405162002bb938038062002bb98339810160408190526200003491620001d1565b8151600080546001600160a01b03199081166001600160a01b03938416179091556020808501516001805490931693169290921790556040805183518184015281518082038401815290820190915280516200009592600b920190620000db565b50620000a7633b9aca00600562000280565b608052620000bb633b9aca00600a62000280565b60a052620000cf633b9aca00603262000280565b60c05250620002eb9050565b828054620000e990620002ae565b90600052602060002090601f0160209004810192826200010d576000855562000158565b82601f106200012857805160ff191683800117855562000158565b8280016001018555821562000158579182015b82811115620001585782518255916020019190600101906200013b565b50620001669291506200016a565b5090565b5b808211156200016657600081556001016200016b565b604051602081016001600160401b0381118282101715620001b257634e487b7160e01b600052604160045260246000fd5b60405290565b6001600160a01b0381168114620001ce57600080fd5b50565b6000808284036060811215620001e657600080fd5b6040811215620001f557600080fd5b604080519081016001600160401b03811182821017156200022657634e487b7160e01b600052604160045260246000fd5b60405284516200023681620001b8565b815260208501516200024881620001b8565b602082810191909152909350603f19820112156200026557600080fd5b506200027062000181565b6040939093015183525092909150565b6000816000190483118215151615620002a957634e487b7160e01b600052601160045260246000fd5b500290565b600181811c90821680620002c357607f821691505b60208210811415620002e557634e487b7160e01b600052602260045260246000fd5b50919050565b60805160a05160c05161288962000330600039600081816104250152610c390152600081816103b10152610bd90152600081816103fe015261077c01526128896000f3fe608060405234801561001057600080fd5b50600436106101da5760003560e01c80639908840c11610104578063c4d66de8116100a2578063e4af6e7911610071578063e4af6e79146104b0578063ee2d59f4146104b8578063f50506ab146104cb578063fc7a8117146104fd57600080fd5b8063c4d66de81461047a578063d34cc3801461048d578063d4a07d3414610495578063dbb1c35f1461049d57600080fd5b8063b8ca3b83116100de578063b8ca3b83146103f9578063bdca916514610420578063c2cbdc6714610447578063c45a01551461044f57600080fd5b80639908840c146103ac5780639ccddcb9146103d3578063b2f04613146103e657600080fd5b806359f3dae71161017c5780638860d2481161014b5780638860d2481461036b5780638e207dda1461037e57806395d2a4191461039157806398347a5d146103a457600080fd5b806359f3dae7146102b05780636707acee146102d05780637ac46fbb146102f057806386c6be3e1461033257600080fd5b8063158ef93e116101b8578063158ef93e146102475780631c7f4c731461026b578063511ce7981461027d57806359331d781461029d57600080fd5b80630bdedd56146101df57806312466b68146101f4578063150b7a021461021b575b600080fd5b6101f26101ed366004612013565b610510565b005b610207610202366004612013565b610603565b604051905181526020015b60405180910390f35b61022e610229366004612051565b6106f7565b6040516001600160e01b03199091168152602001610212565b60105461025b90600160a01b900460ff1681565b6040519015158152602001610212565b6004545b604051908152602001610212565b61026f61028b366004612013565b6000908152600a602052604090205490565b6101f26102ab366004612108565b610760565b6102c36102be366004612013565b61083c565b6040516102129190612135565b61026f6102de366004612013565b60009081526007602052604090205490565b604080518082018252600080825260209182018190528251808401909352546001600160a01b03908116835260015416908201525b604051610212919061216e565b604080518082018252600080825260209182015281518083019092526002546001600160a01b0390811683526003541690820152610325565b6102c3610379366004612013565b610938565b61020761038c366004612013565b6109a3565b6101f261039f366004612108565b610a00565b6101f2610a63565b61026f7f000000000000000000000000000000000000000000000000000000000000000081565b6101f26103e1366004612192565b610b53565b6101f26103f43660046121b5565b610bbd565b61026f7f000000000000000000000000000000000000000000000000000000000000000081565b61026f7f000000000000000000000000000000000000000000000000000000000000000081565b610207610cec565b601054610462906001600160a01b031681565b6040516001600160a01b039091168152602001610212565b6101f26104883660046121ed565b610dc6565b610207610e35565b6101f2610e79565b6102076104ab366004612013565b610f78565b600d5461026f565b6101f26104c6366004612013565b610fd5565b6104de6104d93660046122cf565b6110bf565b604080516001600160a01b039093168352602083019190915201610212565b6101f261050b3660046123b3565b6111e9565b610519816112dc565b600081815260056020526040902080548291339132917f1f61ab0406af917197cf6da536fd403cf71660279943df198675488bf449d6d29161055a90612412565b80601f016020809104026020016040519081016040528092919081815260200182805461058690612412565b80156105d35780601f106105a8576101008083540402835291602001916105d3565b820191906000526020600020905b8154815290600101906020018083116105b657829003601f168201915b50505050508060200190518101906105eb9190612447565b6040516105f89190612135565b60405180910390a450565b6040805160208101909152600081526000828152600e60205260409020805461062b90612412565b1515905061064757505060408051602081019091526000815290565b6000828152600e60205260409020805461066090612412565b80601f016020809104026020016040519081016040528092919081815260200182805461068c90612412565b80156106d95780601f106106ae576101008083540402835291602001916106d9565b820191906000526020600020905b8154815290600101906020018083116106bc57829003601f168201915b50505050508060200190518101906106f191906124fe565b92915050565b60015460408051808201909152600581526427232a2b2960d91b60208201526000916001600160a01b03169033821461074c5760405162461bcd60e51b81526004016107439190612576565b60405180910390fd5b50630a85bd0160e11b979650505050505050565b60408051808201909152600381526226a82360e91b60208201527f0000000000000000000000000000000000000000000000000000000000000000823511156107bc5760405162461bcd60e51b81526004016107439190612576565b506107e982826040516020016107d59135815260200190565b6040516020818303038152906040526113e4565b60008281526007602090815260409182902054825184358152918201528391339132917fcd7599c34365da52fcd641b487f51044152e43bf05893c1ef6d2a2259de7252a91015b60405180910390a45050565b610844611e8b565b6000828152600660205260409020805461085d90612412565b1515905061088e57505060408051608081018252600080825260208201819052918101829052606081019190915290565b600082815260066020526040902080546108a790612412565b80601f01602080910402602001604051908101604052809291908181526020018280546108d390612412565b80156109205780601f106108f557610100808354040283529160200191610920565b820191906000526020600020905b81548152906001019060200180831161090357829003601f168201915b50505050508060200190518101906106f19190612447565b610940611e8b565b6000828152600560205260409020805461095990612412565b1515905061098a57505060408051608081018252600080825260208201819052918101829052606081019190915290565b600082815260056020526040902080546108a790612412565b604080516020810190915260008152600082815260096020526040902080546109cb90612412565b151590506109e757505060408051602081019091526000815290565b6000828152600960205260409020805461066090612412565b610a2c8282604051602001610a189135815260200190565b6040516020818303038152906040526114ef565b604051813581528290339032907f558be75d60787b48185057fb9d84f974085e83ce9d7158e24b0b52b48f669d5190602001610830565b610a6b61151c565b336001600160a01b0316326001600160a01b03167fd6ead9ed25b8c6c3151e02c6c7144c8a604c84eefc6115d4955cf18b24ad1f15600b8054610aad90612412565b80601f0160208091040260200160405190810160405280929190818152602001828054610ad990612412565b8015610b265780601f10610afb57610100808354040283529160200191610b26565b820191906000526020600020905b815481529060010190602001808311610b0957829003601f168201915b5050505050806020019051810190610b3e91906124fe565b604051905181526020015b60405180910390a3565b6040805182356020820152610b7791016040516020818303038152906040526115d5565b600d5460408051833581526020810192909252339132917fca225683ef8d781265de089dcfc06ddbe92692fc6c69c36fe27d9af66d6de99291015b60405180910390a350565b604080518082018252600381526226a6a360e91b6020820152907f0000000000000000000000000000000000000000000000000000000000000000908301351115610c1b5760405162461bcd60e51b81526004016107439190612576565b5060408051808201909152600481526326a8232360e11b60208201527f000000000000000000000000000000000000000000000000000000000000000060608301351115610c7c5760405162461bcd60e51b81526004016107439190612576565b50610ca68282604051602001610c9291906125cb565b6040516020818303038152906040526116b0565b600082815260076020526040908190205490518391339132917f1d7b6934fa65be1a3b19bf15b905c982c4a8ecba13fa0161728c7712be24177c916108309187916125d9565b604080516020810190915260008152600c8054610d0890612412565b15159050610d23575060408051602081019091526000815290565b600c8054610d3090612412565b80601f0160208091040260200160405190810160405280929190818152602001828054610d5c90612412565b8015610da95780601f10610d7e57610100808354040283529160200191610da9565b820191906000526020600020905b815481529060010190602001808311610d8c57829003601f168201915b5050505050806020019051810190610dc191906124fe565b905090565b6010546040805180820190915260048152631253925560e21b602082015290600160a01b900460ff1615610e0d5760405162461bcd60e51b81526004016107439190612576565b50601080546001600160a81b0319166001600160a01b0390921691909117600160a01b179055565b604080516020810190915260008152600b8054610e5190612412565b15159050610e6c575060408051602081019091526000815290565b600b8054610d3090612412565b610e816117bc565b600060045411604051806040016040528060048152602001631395531360e21b81525090610ec25760405162461bcd60e51b81526004016107439190612576565b5060045442101560405180604001604052806002815260200161545360f01b81525090610f025760405162461bcd60e51b81526004016107439190612576565b50600254600080546001600160a01b039283166001600160a01b031991821681178355600354600180549190951692168217909355600491909155604080519283526020830191909152339132917f1e35451923245ee6ebcfa4eaa530093af09bcf5278d751ff4b9897ca024d02b49101610b49565b60408051602081019091526000815260008281526008602052604090208054610fa090612412565b15159050610fbc57505060408051602081019091526000815290565b6000828152600860205260409020805461066090612412565b610fde81611874565b600081815260086020526040902080548291339132917f813fb1cc9255f5a8d21316ecd3e0cc533da05634409ca6b43f4db5ee1cc4cdf89161101f90612412565b80601f016020809104026020016040519081016040528092919081815260200182805461104b90612412565b80156110985780601f1061106d57610100808354040283529160200191611098565b820191906000526020600020905b81548152906001019060200180831161107b57829003601f168201915b50505050508060200190518101906110b091906124fe565b604051905181526020016105f8565b6000806000806000868060200190518101906110db9190612641565b92509250925061110d8883836040516020016110f89291906126ae565b6040516020818303038152906040523361197b565b600154604051630966ad5360e21b8152600481018790529297509095506001600160a01b03908116919087169063259ab54c90602401600060405180830381600087803b15801561115d57600080fd5b505af1158015611171573d6000803e3d6000fd5b5050604051632142170760e11b81523360048201526001600160a01b03898116602483015260448201889052841692506342842e0e9150606401600060405180830381600087803b1580156111c557600080fd5b505af11580156111d9573d6000803e3d6000fd5b5050505050505050935093915050565b6111f16117bc565b8051600280546001600160a01b03199081166001600160a01b039384161790915560208084015160038054909316908416179091556000546040805163bba3293960e01b81529051919093169263bba32939926004808301939192829003018186803b15801561126057600080fd5b505afa158015611274573d6000803e3d6000fd5b505050506040513d601f19601f8201168201806040525081019061129891906126dc565b6112a2904261270b565b6004819055604051339132917f4b5caddc4df608f00754b735b313f6450a3c994df1519ef40bdd5cd315206e7191610bb291869190612723565b6112e581611cb8565b6000600760008381526020019081526020016000205411604051806040016040528060048152602001631395531360e21b815250906113375760405162461bcd60e51b81526004016107439190612576565b50600760008281526020019081526020016000205442101560405180604001604052806002815260200161545360f01b815250906113885760405162461bcd60e51b81526004016107439190612576565b506000818152600660209081526040808320600590925290912081549091906113b090612412565b6113bb929190611ec5565b5060008181526006602052604081206113d391611f50565b600090815260076020526040812055565b6113ec6117bc565b6000828152600960209081526040909120825161140b92840190611f8a565b506000828152600860205260408120805461142590612412565b159050611433576001611436565b60005b60ff169050806000800160009054906101000a90046001600160a01b03166001600160a01b031663bba329396040518163ffffffff1660e01b815260040160206040518083038186803b15801561148c57600080fd5b505afa1580156114a0573d6000803e3d6000fd5b505050506040513d601f19601f820116820180604052508101906114c491906126dc565b6114ce9190612754565b6114d8904261270b565b6000938452600a6020526040909320929092555050565b6114f882611cb8565b6000828152600e60209081526040909120825161151792840190611f8a565b505050565b6115246117bc565b6000600d5411604051806040016040528060048152602001631395531360e21b815250906115655760405162461bcd60e51b81526004016107439190612576565b50600d5442101560405180604001604052806002815260200161545360f01b815250906115a55760405162461bcd60e51b81526004016107439190612576565b50600c600b9080546115b690612412565b6115c1929190611ec5565b506115ce600c6000611f50565b6000600d55565b6115dd6117bc565b6000600b80546115ec90612412565b1590506115fa5760016115fd565b60005b60ff16905081600c9080519060200190611618929190611f8a565b506000546040805163bba3293960e01b8152905183926001600160a01b03169163bba32939916004808301926020929190829003018186803b15801561165d57600080fd5b505afa158015611671573d6000803e3d6000fd5b505050506040513d601f19601f8201168201806040525081019061169591906126dc565b61169f9190612754565b6116a9904261270b565b600d555050565b6116b982611cb8565b600082815260066020908152604090912082516116d892840190611f8a565b50600082815260056020526040812080546116f290612412565b159050611700576001611703565b60005b60ff169050806000800160009054906101000a90046001600160a01b03166001600160a01b031663bba329396040518163ffffffff1660e01b815260040160206040518083038186803b15801561175957600080fd5b505afa15801561176d573d6000803e3d6000fd5b505050506040513d601f19601f8201168201806040525081019061179191906126dc565b61179b9190612754565b6117a5904261270b565b600093845260076020526040909320929092555050565b600054604051630935e01b60e21b81523360048201526001600160a01b03909116906324d7806c9060240160206040518083038186803b1580156117ff57600080fd5b505afa158015611813573d6000803e3d6000fd5b505050506040513d601f19601f820116820180604052508101906118379190612773565b6040518060400160405280600381526020016241444d60e81b815250906118715760405162461bcd60e51b81526004016107439190612576565b50565b61187c6117bc565b6000600a60008381526020019081526020016000205411604051806040016040528060048152602001631395531360e21b815250906118ce5760405162461bcd60e51b81526004016107439190612576565b50600a60008281526020019081526020016000205442101560405180604001604052806002815260200161545360f01b8152509061191f5760405162461bcd60e51b81526004016107439190612576565b5060008181526009602090815260408083206008909252909120815490919061194790612412565b611952929190611ec5565b50600081815260096020526040812061196a91611f50565b6000908152600a6020526040812055565b6010546040805180820190915260048152631253925560e21b6020820152600091829190600160a01b900460ff166119c65760405162461bcd60e51b81526004016107439190612576565b506000546040805163a1256f9f60e01b815290516001600160a01b0390921691829163a1256f9f916004808301926020929190829003018186803b158015611a0d57600080fd5b505afa158015611a21573d6000803e3d6000fd5b505050506040513d601f19601f82011682018060405250810190611a459190612773565b80611ac25750604051630935e01b60e21b81523360048201526001600160a01b038216906324d7806c9060240160206040518083038186803b158015611a8a57600080fd5b505afa158015611a9e573d6000803e3d6000fd5b505050506040513d601f19601f82011682018060405250810190611ac29190612773565b60405180604001604052806003815260200162504f4160e81b81525090611afc5760405162461bcd60e51b81526004016107439190612576565b50601054604051636e1e2ffd60e01b81526001600160a01b0390911690636e1e2ffd90611b2f90899089906004016127d9565b602060405180830381600087803b158015611b4957600080fd5b505af1158015611b5d573d6000803e3d6000fd5b505050506040513d601f19601f82011682018060405250810190611b8191906127ec565b6001546040516305c4fdf960e01b81526001600160a01b03808416600483015280881660248301529295508692909116906305c4fdf990604401602060405180830381600087803b158015611bd557600080fd5b505af1158015611be9573d6000803e3d6000fd5b505050506040513d601f19601f82011682018060405250810190611c0d91906126dc565b60405163fe4b84df60e01b8152600481018290529093506001600160a01b0385169063fe4b84df90602401600060405180830381600087803b158015611c5257600080fd5b505af1158015611c66573d6000803e3d6000fd5b50506040513392503291507f8a4513c05d15df8ece912856923273e166e39f5c9c2b43d2b38594023494a0e090611ca6908b908b9087908b908b90612809565b60405180910390a35050935093915050565b600054604051630935e01b60e21b81523360048201526001600160a01b03909116906324d7806c9060240160206040518083038186803b158015611cfb57600080fd5b505afa158015611d0f573d6000803e3d6000fd5b505050506040513d601f19601f82011682018060405250810190611d339190612773565b80611dc0575060015460405163020604bf60e21b81526004810183905233916001600160a01b03169063081812fc9060240160206040518083038186803b158015611d7d57600080fd5b505afa158015611d91573d6000803e3d6000fd5b505050506040513d601f19601f82011682018060405250810190611db591906127ec565b6001600160a01b0316145b80611e4d57506001546040516331a9108f60e11b81526004810183905233916001600160a01b031690636352211e9060240160206040518083038186803b158015611e0a57600080fd5b505afa158015611e1e573d6000803e3d6000fd5b505050506040513d601f19601f82011682018060405250810190611e4291906127ec565b6001600160a01b0316145b604051806040016040528060038152602001621494d560ea1b81525090611e875760405162461bcd60e51b81526004016107439190612576565b5050565b604051806080016040528060006001600160a01b0316815260200160006001600160a01b0316815260200160008152602001600081525090565b828054611ed190612412565b90600052602060002090601f016020900481019282611ef35760008555611f40565b82601f10611f045780548555611f40565b82800160010185558215611f4057600052602060002091601f016020900482015b82811115611f40578254825591600101919060010190611f25565b50611f4c929150611ffe565b5090565b508054611f5c90612412565b6000825580601f10611f6c575050565b601f0160209004906000526020600020908101906118719190611ffe565b828054611f9690612412565b90600052602060002090601f016020900481019282611fb85760008555611f40565b82601f10611fd157805160ff1916838001178555611f40565b82800160010185558215611f40579182015b82811115611f40578251825591602001919060010190611fe3565b5b80821115611f4c5760008155600101611fff565b60006020828403121561202557600080fd5b5035919050565b6001600160a01b038116811461187157600080fd5b803561204c8161202c565b919050565b60008060008060006080868803121561206957600080fd5b85356120748161202c565b945060208601356120848161202c565b935060408601359250606086013567ffffffffffffffff808211156120a857600080fd5b818801915088601f8301126120bc57600080fd5b8135818111156120cb57600080fd5b8960208285010111156120dd57600080fd5b9699959850939650602001949392505050565b60006020828403121561210257600080fd5b50919050565b6000806040838503121561211b57600080fd5b8235915061212c84602085016120f0565b90509250929050565b81516001600160a01b03908116825260208084015190911690820152604080830151908201526060918201519181019190915260800190565b604081016106f1828480516001600160a01b03908116835260209182015116910152565b6000602082840312156121a457600080fd5b6121ae83836120f0565b9392505050565b60008082840360a08112156121c957600080fd5b833592506080601f19820112156121df57600080fd5b506020830190509250929050565b6000602082840312156121ff57600080fd5b81356121ae8161202c565b634e487b7160e01b600052604160045260246000fd5b604051601f8201601f1916810167ffffffffffffffff811182821017156122495761224961220a565b604052919050565b600067ffffffffffffffff82111561226b5761226b61220a565b50601f01601f191660200190565b600082601f83011261228a57600080fd5b813561229d61229882612251565b612220565b8181528460208386010111156122b257600080fd5b816020850160208301376000918101602001919091529392505050565b6000806000606084860312156122e457600080fd5b833567ffffffffffffffff808211156122fc57600080fd5b818601915086601f83011261231057600080fd5b81356020828211156123245761232461220a565b8160051b612333828201612220565b928352848101820192828101908b85111561234d57600080fd5b958301955b8487101561237757863592506123678361202c565b8282529583019590830190612352565b985050508701359250508082111561238e57600080fd5b5061239b86828701612279565b9250506123aa60408501612041565b90509250925092565b6000604082840312156123c557600080fd5b6040516040810181811067ffffffffffffffff821117156123e8576123e861220a565b60405282356123f68161202c565b815260208301356124068161202c565b60208201529392505050565b600181811c9082168061242657607f821691505b6020821081141561210257634e487b7160e01b600052602260045260246000fd5b60006080828403121561245957600080fd5b6040516080810181811067ffffffffffffffff8211171561247c5761247c61220a565b604052825161248a8161202c565b8152602083015161249a8161202c565b6020820152604083810151908201526060928301519281019290925250919050565b6000602082840312156124ce57600080fd5b6040516020810181811067ffffffffffffffff821117156124f1576124f161220a565b6040529151825250919050565b60006020828403121561251057600080fd5b6121ae83836124bc565b60005b8381101561253557818101518382015260200161251d565b83811115612544576000848401525b50505050565b6000815180845261256281602086016020860161251a565b601f01601f19169290920160200192915050565b6020815260006121ae602083018461254a565b80356125948161202c565b6001600160a01b0390811683526020820135906125b08261202c565b16602083015260408181013590830152606090810135910152565b608081016106f18284612589565b60a081016125e78285612589565b8260808301529392505050565b600082601f83011261260557600080fd5b815161261361229882612251565b81815284602083860101111561262857600080fd5b61263982602083016020870161251a565b949350505050565b60008060006060848603121561265657600080fd5b83519250602084015167ffffffffffffffff8082111561267557600080fd5b612681878388016125f4565b9350604086015191508082111561269757600080fd5b506126a4868287016125f4565b9150509250925092565b6040815260006126c1604083018561254a565b82810360208401526126d3818561254a565b95945050505050565b6000602082840312156126ee57600080fd5b5051919050565b634e487b7160e01b600052601160045260246000fd5b6000821982111561271e5761271e6126f5565b500190565b60608101612747828580516001600160a01b03908116835260209182015116910152565b8260408301529392505050565b600081600019048311821515161561276e5761276e6126f5565b500290565b60006020828403121561278557600080fd5b815180151581146121ae57600080fd5b600081518084526020808501945080840160005b838110156127ce5781516001600160a01b0316875295820195908201906001016127a9565b509495945050505050565b6040815260006126c16040830185612795565b6000602082840312156127fe57600080fd5b81516121ae8161202c565b60a08152600061281c60a0830188612795565b828103602084015261282e818861254a565b6001600160a01b0396871660408501529490951660608301525060800152939250505056fea2646970667358221220ca9605ee9dc720990ba9eecc4271aaf7416654a6edb09f40fa27921914e7fadf64736f6c63430008090033",
  "linkReferences": {},
  "deployedLinkReferences": {}
}