{"contracts/XDEFIDistribution.sol":{"XDEFIDistribution":{"abi":[{"inputs":[{"internalType":"address","name":"XDEFI_","type":"address"},{"internalType":"string","name":"baseURI_","type":"string"},{"internalType":"uint256","name":"zeroDurationPointBase_","type":"uint256"}],"stateMutability":"nonpayable","type":"constructor"},{"anonymous":false,"inputs":[{"indexed":true,"internalType":"address","name":"owner","type":"address"},{"indexed":true,"internalType":"address","name":"approved","type":"address"},{"indexed":true,"internalType":"uint256","name":"tokenId","type":"uint256"}],"name":"Approval","type":"event"},{"anonymous":false,"inputs":[{"indexed":true,"internalType":"address","name":"owner","type":"address"},{"indexed":true,"internalType":"address","name":"operator","type":"address"},{"indexed":false,"internalType":"bool","name":"approved","type":"bool"}],"name":"ApprovalForAll","type":"event"},{"anonymous":false,"inputs":[{"indexed":true,"internalType":"address","name":"caller","type":"address"},{"indexed":false,"internalType":"uint256","name":"amount","type":"uint256"}],"name":"DistributionUpdated","type":"event"},{"anonymous":false,"inputs":[{"indexed":false,"internalType":"uint256","name":"duration","type":"uint256"},{"indexed":false,"internalType":"uint8","name":"bonusMultiplier","type":"uint8"}],"name":"LockPeriodSet","type":"event"},{"anonymous":false,"inputs":[{"indexed":true,"internalType":"uint256","name":"tokenId","type":"uint256"},{"indexed":true,"internalType":"address","name":"owner","type":"address"},{"indexed":false,"internalType":"uint256","name":"amount","type":"uint256"},{"indexed":false,"internalType":"uint256","name":"duration","type":"uint256"}],"name":"LockPositionCreated","type":"event"},{"anonymous":false,"inputs":[{"indexed":true,"internalType":"uint256","name":"tokenId","type":"uint256"},{"indexed":true,"internalType":"address","name":"owner","type":"address"},{"indexed":false,"internalType":"uint256","name":"amount","type":"uint256"}],"name":"LockPositionWithdrawn","type":"event"},{"anonymous":false,"inputs":[{"indexed":true,"internalType":"address","name":"previousOwner","type":"address"},{"indexed":true,"internalType":"address","name":"owner","type":"address"}],"name":"OwnershipAccepted","type":"event"},{"anonymous":false,"inputs":[{"indexed":true,"internalType":"address","name":"owner","type":"address"},{"indexed":true,"internalType":"address","name":"pendingOwner","type":"address"}],"name":"OwnershipProposed","type":"event"},{"anonymous":false,"inputs":[{"indexed":true,"internalType":"address","name":"from","type":"address"},{"indexed":true,"internalType":"address","name":"to","type":"address"},{"indexed":true,"internalType":"uint256","name":"tokenId","type":"uint256"}],"name":"Transfer","type":"event"},{"inputs":[],"name":"XDEFI","outputs":[{"internalType":"address","name":"","type":"address"}],"stateMutability":"view","type":"function"},{"inputs":[],"name":"acceptOwnership","outputs":[],"stateMutability":"nonpayable","type":"function"},{"inputs":[{"internalType":"address","name":"to","type":"address"},{"internalType":"uint256","name":"tokenId","type":"uint256"}],"name":"approve","outputs":[],"stateMutability":"nonpayable","type":"function"},{"inputs":[{"internalType":"address","name":"owner","type":"address"}],"name":"balanceOf","outputs":[{"internalType":"uint256","name":"","type":"uint256"}],"stateMutability":"view","type":"function"},{"inputs":[],"name":"baseURI","outputs":[{"internalType":"string","name":"","type":"string"}],"stateMutability":"view","type":"function"},{"inputs":[{"internalType":"uint256","name":"","type":"uint256"}],"name":"bonusMultiplierOf","outputs":[{"internalType":"uint8","name":"","type":"uint8"}],"stateMutability":"view","type":"function"},{"inputs":[],"name":"distributableXDEFI","outputs":[{"internalType":"uint256","name":"","type":"uint256"}],"stateMutability":"view","type":"function"},{"inputs":[{"internalType":"uint256","name":"tokenId","type":"uint256"}],"name":"getApproved","outputs":[{"internalType":"address","name":"","type":"address"}],"stateMutability":"view","type":"function"},{"inputs":[{"internalType":"uint256","name":"amount_","type":"uint256"},{"internalType":"uint256","name":"duration_","type":"uint256"}],"name":"getPoints","outputs":[{"internalType":"uint256","name":"points_","type":"uint256"}],"stateMutability":"view","type":"function"},{"inputs":[{"internalType":"address","name":"owner","type":"address"},{"internalType":"address","name":"operator","type":"address"}],"name":"isApprovedForAll","outputs":[{"internalType":"bool","name":"","type":"bool"}],"stateMutability":"view","type":"function"},{"inputs":[{"internalType":"uint256","name":"amount_","type":"uint256"},{"internalType":"uint256","name":"duration_","type":"uint256"},{"internalType":"address","name":"destination_","type":"address"}],"name":"lock","outputs":[{"internalType":"uint256","name":"tokenId_","type":"uint256"}],"stateMutability":"nonpayable","type":"function"},{"inputs":[{"internalType":"uint256","name":"amount_","type":"uint256"},{"internalType":"uint256","name":"duration_","type":"uint256"},{"internalType":"address","name":"destination_","type":"address"},{"internalType":"uint256","name":"deadline_","type":"uint256"},{"internalType":"uint8","name":"v_","type":"uint8"},{"internalType":"bytes32","name":"r_","type":"bytes32"},{"internalType":"bytes32","name":"s_","type":"bytes32"}],"name":"lockWithPermit","outputs":[{"internalType":"uint256","name":"tokenId_","type":"uint256"}],"stateMutability":"nonpayable","type":"function"},{"inputs":[{"internalType":"uint256[]","name":"tokenIds_","type":"uint256[]"},{"internalType":"address","name":"destination_","type":"address"}],"name":"merge","outputs":[{"internalType":"uint256","name":"tokenId_","type":"uint256"}],"stateMutability":"nonpayable","type":"function"},{"inputs":[],"name":"name","outputs":[{"internalType":"string","name":"","type":"string"}],"stateMutability":"view","type":"function"},{"inputs":[],"name":"owner","outputs":[{"internalType":"address","name":"","type":"address"}],"stateMutability":"view","type":"function"},{"inputs":[{"internalType":"uint256","name":"tokenId","type":"uint256"}],"name":"ownerOf","outputs":[{"internalType":"address","name":"","type":"address"}],"stateMutability":"view","type":"function"},{"inputs":[],"name":"pendingOwner","outputs":[{"internalType":"address","name":"","type":"address"}],"stateMutability":"view","type":"function"},{"inputs":[{"internalType":"uint256","name":"tokenId_","type":"uint256"}],"name":"pointsOf","outputs":[{"internalType":"uint256","name":"points_","type":"uint256"}],"stateMutability":"view","type":"function"},{"inputs":[{"internalType":"uint256","name":"","type":"uint256"}],"name":"positionOf","outputs":[{"internalType":"uint96","name":"units","type":"uint96"},{"internalType":"uint88","name":"depositedXDEFI","type":"uint88"},{"internalType":"uint32","name":"expiry","type":"uint32"},{"internalType":"uint32","name":"created","type":"uint32"},{"internalType":"uint8","name":"bonusMultiplier","type":"uint8"},{"internalType":"int256","name":"pointsCorrection","type":"int256"}],"stateMutability":"view","type":"function"},{"inputs":[{"internalType":"address","name":"newOwner_","type":"address"}],"name":"proposeOwnership","outputs":[],"stateMutability":"nonpayable","type":"function"},{"inputs":[{"internalType":"uint256","name":"tokenId_","type":"uint256"},{"internalType":"uint256","name":"lockAmount_","type":"uint256"},{"internalType":"uint256","name":"duration_","type":"uint256"},{"internalType":"address","name":"destination_","type":"address"}],"name":"relock","outputs":[{"internalType":"uint256","name":"amountUnlocked_","type":"uint256"},{"internalType":"uint256","name":"newTokenId_","type":"uint256"}],"stateMutability":"nonpayable","type":"function"},{"inputs":[{"internalType":"uint256[]","name":"tokenIds_","type":"uint256[]"},{"internalType":"uint256","name":"lockAmount_","type":"uint256"},{"internalType":"uint256","name":"duration_","type":"uint256"},{"internalType":"address","name":"destination_","type":"address"}],"name":"relockBatch","outputs":[{"internalType":"uint256","name":"amountUnlocked_","type":"uint256"},{"internalType":"uint256","name":"newTokenId_","type":"uint256"}],"stateMutability":"nonpayable","type":"function"},{"inputs":[{"internalType":"address","name":"from","type":"address"},{"internalType":"address","name":"to","type":"address"},{"internalType":"uint256","name":"tokenId","type":"uint256"}],"name":"safeTransferFrom","outputs":[],"stateMutability":"nonpayable","type":"function"},{"inputs":[{"internalType":"address","name":"from","type":"address"},{"internalType":"address","name":"to","type":"address"},{"internalType":"uint256","name":"tokenId","type":"uint256"},{"internalType":"bytes","name":"data","type":"bytes"}],"name":"safeTransferFrom","outputs":[],"stateMutability":"nonpayable","type":"function"},{"inputs":[{"internalType":"address","name":"operator","type":"address"},{"internalType":"bool","name":"approved","type":"bool"}],"name":"setApprovalForAll","outputs":[],"stateMutability":"nonpayable","type":"function"},{"inputs":[{"internalType":"string","name":"baseURI_","type":"string"}],"name":"setBaseURI","outputs":[],"stateMutability":"nonpayable","type":"function"},{"inputs":[{"internalType":"uint256[]","name":"durations_","type":"uint256[]"},{"internalType":"uint8[]","name":"multipliers","type":"uint8[]"}],"name":"setLockPeriods","outputs":[],"stateMutability":"nonpayable","type":"function"},{"inputs":[{"internalType":"bytes4","name":"interfaceId","type":"bytes4"}],"name":"supportsInterface","outputs":[{"internalType":"bool","name":"","type":"bool"}],"stateMutability":"view","type":"function"},{"inputs":[],"name":"symbol","outputs":[{"internalType":"string","name":"","type":"string"}],"stateMutability":"view","type":"function"},{"inputs":[{"internalType":"uint256","name":"index","type":"uint256"}],"name":"tokenByIndex","outputs":[{"internalType":"uint256","name":"","type":"uint256"}],"stateMutability":"view","type":"function"},{"inputs":[{"internalType":"address","name":"owner","type":"address"},{"internalType":"uint256","name":"index","type":"uint256"}],"name":"tokenOfOwnerByIndex","outputs":[{"internalType":"uint256","name":"","type":"uint256"}],"stateMutability":"view","type":"function"},{"inputs":[{"internalType":"uint256","name":"tokenId_","type":"uint256"}],"name":"tokenURI","outputs":[{"internalType":"string","name":"tokenURI_","type":"string"}],"stateMutability":"view","type":"function"},{"inputs":[],"name":"totalDepositedXDEFI","outputs":[{"internalType":"uint256","name":"","type":"uint256"}],"stateMutability":"view","type":"function"},{"inputs":[],"name":"totalSupply","outputs":[{"internalType":"uint256","name":"","type":"uint256"}],"stateMutability":"view","type":"function"},{"inputs":[],"name":"totalUnits","outputs":[{"internalType":"uint256","name":"","type":"uint256"}],"stateMutability":"view","type":"function"},{"inputs":[{"internalType":"address","name":"from","type":"address"},{"internalType":"address","name":"to","type":"address"},{"internalType":"uint256","name":"tokenId","type":"uint256"}],"name":"transferFrom","outputs":[],"stateMutability":"nonpayable","type":"function"},{"inputs":[{"internalType":"uint256","name":"tokenId_","type":"uint256"},{"internalType":"address","name":"destination_","type":"address"}],"name":"unlock","outputs":[{"internalType":"uint256","name":"amountUnlocked_","type":"uint256"}],"stateMutability":"nonpayable","type":"function"},{"inputs":[{"internalType":"uint256[]","name":"tokenIds_","type":"uint256[]"},{"internalType":"address","name":"destination_","type":"address"}],"name":"unlockBatch","outputs":[{"internalType":"uint256","name":"amountUnlocked_","type":"uint256"}],"stateMutability":"nonpayable","type":"function"},{"inputs":[],"name":"updateDistribution","outputs":[],"stateMutability":"nonpayable","type":"function"},{"inputs":[{"internalType":"uint256","name":"tokenId_","type":"uint256"}],"name":"withdrawableOf","outputs":[{"internalType":"uint256","name":"withdrawableXDEFI_","type":"uint256"}],"stateMutability":"view","type":"function"}],"evm":{"bytecode":{"linkReferences":{},"object":"60c0604052600a80546001600160581b0319166ac685fa11e01ec6f00000001790553480156200002e57600080fd5b50604051620038ac380380620038ac8339810160408190526200005191620001fc565b604080518082018252600c81526b4c6f636b656420584445464960a01b6020808301918252835180850190945260068452656c584445464960d01b908401528151919291620000a39160009162000140565b508051620000b990600190602084019062000140565b5050506001600160a01b03831660808190526200010c5760405162461bcd60e51b815260206004820152600d60248201526c24a72b20a624a22faa27a5a2a760991b604482015260640160405180910390fd5b601280546001600160a01b0319163317905581516200013390601190602085019062000140565b5060a05250620003429050565b8280546200014e9062000305565b90600052602060002090601f016020900481019282620001725760008555620001bd565b82601f106200018d57805160ff1916838001178555620001bd565b82800160010185558215620001bd579182015b82811115620001bd578251825591602001919060010190620001a0565b50620001cb929150620001cf565b5090565b5b80821115620001cb5760008155600101620001d0565b634e487b7160e01b600052604160045260246000fd5b6000806000606084860312156200021257600080fd5b83516001600160a01b03811681146200022a57600080fd5b602085810151919450906001600160401b03808211156200024a57600080fd5b818701915087601f8301126200025f57600080fd5b815181811115620002745762000274620001e6565b604051601f8201601f19908116603f011681019083821181831017156200029f576200029f620001e6565b816040528281528a86848701011115620002b857600080fd5b600093505b82841015620002dc5784840186015181850187015292850192620002bd565b82841115620002ee5760008684830101525b809750505050505050604084015190509250925092565b600181811c908216806200031a57607f821691505b602082108114156200033c57634e487b7160e01b600052602260045260246000fd5b50919050565b60805160a05161351a620003926000396000611cf101526000818161054101528181610a1501528181610c190152818161130d01528181611376015281816114220152611960015261351a6000f3fe608060405234801561001057600080fd5b50600436106102485760003560e01c806370a082311161013b578063b88d4fde116100b8578063d35cf7901161007c578063d35cf7901461059c578063d3646e79146105af578063e30c3978146105e4578063e985e9c5146105f7578063f1d2ec1d1461063357600080fd5b8063b88d4fde14610529578063b8d1cd481461053c578063c87b56dd14610563578063cc1168f214610576578063d1fdb3e81461058957600080fd5b806395d89b41116100ff57806395d89b41146104ea578063a22cb465146104f2578063a372e77114610505578063a83d4dda14610518578063aa8badc11461052157600080fd5b806370a0823114610496578063710bf322146104a957806379ba5097146104bc57806382411358146104c45780638da5cb5b146104d757600080fd5b80632f588cd4116101c95780634f6ccce71161018d5780634f6ccce71461044c57806355f804b31461045f5780636352211e146104725780636c0360eb146104855780636d86acc41461048d57600080fd5b80632f588cd41461034a5780632f745c591461035d57806342842e0e1461037057806346f96023146103835780634d4c71a31461043957600080fd5b8063159d97fc11610210578063159d97fc146102e157806318160ddd146102f457806321a43aa2146102fc57806323b872dd146103245780632b5806291461033757600080fd5b806301ffc9a71461024d57806306fdde0314610275578063074737421461028a578063081812fc146102a1578063095ea7b3146102cc575b600080fd5b61026061025b366004612a8e565b610646565b60405190151581526020015b60405180910390f35b61027d610671565b60405161026c9190612b03565b610293600d5481565b60405190815260200161026c565b6102b46102af366004612b16565b610703565b6040516001600160a01b03909116815260200161026c565b6102df6102da366004612b46565b61072a565b005b6102df6102ef366004612c57565b610845565b600854610293565b61030f61030a366004612d19565b610969565b6040805192835260208301919091520161026c565b6102df610332366004612d7a565b610a55565b610293610345366004612db6565b610a86565b610293610358366004612db6565b610bdf565b61029361036b366004612b46565b610c53565b6102df61037e366004612d7a565b610ce9565b6103ed610391366004612b16565b600f60205260009081526040902080546001909101546001600160601b03821691600160601b81046001600160581b031691600160b81b820463ffffffff90811692600160d81b810490911691600160f81b90910460ff169086565b604080516001600160601b0390971687526001600160581b03909516602087015263ffffffff938416948601949094529116606084015260ff16608083015260a082015260c00161026c565b610293610447366004612e04565b610d04565b61029361045a366004612b16565b610d17565b6102df61046d366004612e7e565b610daa565b6102b4610480366004612b16565b610deb565b61027d610e4b565b610293600e5481565b6102936104a4366004612ec7565b610ed9565b6102df6104b7366004612ec7565b610f5f565b6102df610fdb565b6102936104d2366004612b16565b611081565b6012546102b4906001600160a01b031681565b61027d6110da565b6102df610500366004612ef0565b6110e9565b61030f610513366004612f27565b6110f4565b610293600c5481565b6102df611128565b6102df610537366004612f5b565b6111ee565b6102b47f000000000000000000000000000000000000000000000000000000000000000081565b61027d610571366004612b16565b611220565b610293610584366004612fd7565b6112a4565b610293610597366004612b16565b6113b9565b6102936105aa36600461303a565b6113f4565b6105d26105bd366004612b16565b60106020526000908152604090205460ff1681565b60405160ff909116815260200161026c565b6013546102b4906001600160a01b031681565b61026061060536600461306f565b6001600160a01b03918216600090815260056020908152604080832093909416825291909152205460ff1690565b610293610641366004613099565b611461565b60006001600160e01b0319821663780e9d6360e01b148061066b575061066b82611494565b92915050565b606060008054610680906130bc565b80601f01602080910402602001604051908101604052809291908181526020018280546106ac906130bc565b80156106f95780601f106106ce576101008083540402835291602001916106f9565b820191906000526020600020905b8154815290600101906020018083116106dc57829003601f168201915b5050505050905090565b600061070e826114e4565b506000908152600460205260409020546001600160a01b031690565b600061073582610deb565b9050806001600160a01b0316836001600160a01b031614156107a85760405162461bcd60e51b815260206004820152602160248201527f4552433732313a20617070726f76616c20746f2063757272656e74206f776e656044820152603960f91b60648201526084015b60405180910390fd5b336001600160a01b03821614806107c457506107c48133610605565b6108365760405162461bcd60e51b815260206004820152603d60248201527f4552433732313a20617070726f76652063616c6c6572206973206e6f7420746f60448201527f6b656e206f776e6572206f7220617070726f76656420666f7220616c6c000000606482015260840161079f565b6108408383611546565b505050565b6012546001600160a01b0316331461086f5760405162461bcd60e51b815260040161079f906130f7565b815160005b818110156109635760008482815181106108905761089061311a565b60200260200101519050635dfc0f008111156108e15760405162461bcd60e51b815260206004820152601060248201526f24a72b20a624a22fa22aa920aa24a7a760811b604482015260640161079f565b7ffc13abab9eef7fa87c9be4bc9806ada68a2c7a8e79a26b1b3d3204014aedaa1f818584815181106109155761091561311a565b602090810291909101810151600085815260108352604090819020805460ff191660ff90931692831790558051938452918301520160405180910390a15061095c81613146565b9050610874565b50505050565b60008060145460001461098e5760405162461bcd60e51b815260040161079f90613161565b600160145561099d33876115b4565b9150818511156109ef5760405162461bcd60e51b815260206004820152601c60248201527f494e53554646494349454e545f414d4f554e545f554e4c4f434b454400000000604482015260640161079f565b6109fa858585611640565b90506000610a088684613181565b90508015610a3b57610a3b7f000000000000000000000000000000000000000000000000000000000000000085836118dc565b610a4361193f565b50506000601455909590945092505050565b610a5f3382611a07565b610a7b5760405162461bcd60e51b815260040161079f90613198565b610840838383611a86565b815160009060018111610acc5760405162461bcd60e51b815260206004820152600e60248201526d4d494e5f325f544f5f4d4552474560901b604482015260640161079f565b6000805b82811015610bc1576000868281518110610aec57610aec61311a565b60200260200101519050336001600160a01b0316610b0982610deb565b6001600160a01b031614610b2f5760405162461bcd60e51b815260040161079f906130f7565b6000818152600f6020526040902054600160b81b900463ffffffff1615610b905760405162461bcd60e51b81526020600482015260156024820152741413d4d2551253d397d393d517d5539313d0d2d151605a1b604482015260640161079f565b610b9981611bf7565b610ba38160801c90565b610bad90846131e5565b92505080610bba90613146565b9050610ad0565b50610bd784610bcf83611c9a565b945084611cd0565b505092915050565b6000601454600014610c035760405162461bcd60e51b815260040161079f90613161565b6001601455610c1233846115b4565b9050610c3f7f000000000000000000000000000000000000000000000000000000000000000083836118dc565b610c4761193f565b50600060145592915050565b6000610c5e83610ed9565b8210610cc05760405162461bcd60e51b815260206004820152602b60248201527f455243373231456e756d657261626c653a206f776e657220696e646578206f7560448201526a74206f6620626f756e647360a81b606482015260840161079f565b506001600160a01b03919091166000908152600660209081526040808320938352929052205490565b610840838383604051806020016040528060008152506111ee565b6000610d108383611cea565b9392505050565b6000610d2260085490565b8210610d855760405162461bcd60e51b815260206004820152602c60248201527f455243373231456e756d657261626c653a20676c6f62616c20696e646578206f60448201526b7574206f6620626f756e647360a01b606482015260840161079f565b60088281548110610d9857610d9861311a565b90600052602060002001549050919050565b6012546001600160a01b03163314610dd45760405162461bcd60e51b815260040161079f906130f7565b8051610de79060119060208401906129e8565b5050565b6000818152600260205260408120546001600160a01b03168061066b5760405162461bcd60e51b8152602060048201526018602482015277115490cdcc8c4e881a5b9d985b1a59081d1bdad95b88125160421b604482015260640161079f565b60118054610e58906130bc565b80601f0160208091040260200160405190810160405280929190818152602001828054610e84906130bc565b8015610ed15780601f10610ea657610100808354040283529160200191610ed1565b820191906000526020600020905b815481529060010190602001808311610eb457829003601f168201915b505050505081565b60006001600160a01b038216610f435760405162461bcd60e51b815260206004820152602960248201527f4552433732313a2061646472657373207a65726f206973206e6f7420612076616044820152683634b21037bbb732b960b91b606482015260840161079f565b506001600160a01b031660009081526003602052604090205490565b6012546001600160a01b03163314610f895760405162461bcd60e51b815260040161079f906130f7565b601380546001600160a01b0319166001600160a01b03838116918217909255601254604051919216907fb51454ce8c7f26becd312a46c4815553887f2ec876a0b8dc813b87f62edf6f8090600090a350565b6013546001600160a01b031633146110295760405162461bcd60e51b81526020600482015260116024820152702727aa2fa822a72224a723afa7aba722a960791b604482015260640161079f565b60125460405133916001600160a01b0316907f357bdeb5828fa83945f38a88510ce5cd7d628dafb346d767efbc693149fdd97c90600090a3601280546001600160a01b03199081163317909155601380549091169055565b6000818152600260205260408120546001600160a01b03166110d05760405162461bcd60e51b81526020600482015260086024820152672727afaa27a5a2a760c11b604482015260640161079f565b61066b8260801c90565b606060018054610680906130bc565b610de7338383611d20565b6000806014546000146111195760405162461bcd60e51b815260040161079f90613161565b600160145561099d3387611def565b600e54806111695760405162461bcd60e51b815260206004820152600e60248201526d4e4f5f554e49545f535550504c5960901b604482015260640161079f565b600061117b61117661193f565b611fa6565b905080611186575050565b81611195600160801b836131fd565b61119f919061321c565b600b60008282546111b091906131e5565b909155505060405181815233907f46749f2362413a5f0f53f7f11249e02052d810c56ead7bea2544c4a93a0828ee9060200160405180910390a25050565b6111f83383611a07565b6112145760405162461bcd60e51b815260040161079f90613198565b61096384848484611fbc565b6000818152600260205260409020546060906001600160a01b03166112725760405162461bcd60e51b81526020600482015260086024820152672727afaa27a5a2a760c11b604482015260640161079f565b601161127d83611fef565b60405160200161128e92919061325a565b6040516020818303038152906040529050919050565b60006014546000146112c85760405162461bcd60e51b815260040161079f90613161565b600160145560405163d505accf60e01b8152336004820152306024820152604481018990526064810186905260ff8516608482015260a4810184905260c481018390527f00000000000000000000000000000000000000000000000000000000000000006001600160a01b03169063d505accf9060e401600060405180830381600087803b15801561135957600080fd5b505af115801561136d573d6000803e3d6000fd5b5050505061139d7f000000000000000000000000000000000000000000000000000000000000000033308b61208c565b6113a8888888611640565b600060145598975050505050505050565b6000818152600f6020526040812080546001820154610d10916001600160601b03811691600160601b9091046001600160581b0316906120c4565b60006014546000146114185760405162461bcd60e51b815260040161079f90613161565b60016014556114497f000000000000000000000000000000000000000000000000000000000000000033308761208c565b611454848484611640565b6000601455949350505050565b60006014546000146114855760405162461bcd60e51b815260040161079f90613161565b6001601455610c123384611def565b60006001600160e01b031982166380ac58cd60e01b14806114c557506001600160e01b03198216635b5e139f60e01b145b8061066b57506301ffc9a760e01b6001600160e01b031983161461066b565b6000818152600260205260409020546001600160a01b03166115435760405162461bcd60e51b8152602060048201526018602482015277115490cdcc8c4e881a5b9d985b1a59081d1bdad95b88125160421b604482015260640161079f565b50565b600081815260046020526040902080546001600160a01b0319166001600160a01b038416908117909155819061157b82610deb565b6001600160a01b03167f8c5be1e5ebec7d5bd14f71427d1e84f3dd0314c0f7b2291e5b200ac8c7c3b92560405160405180910390a45050565b8051600090600181116115f65760405162461bcd60e51b815260206004820152600a6024820152695553455f554e4c4f434b60b01b604482015260640161079f565b60005b81811015610bd757611624858583815181106116175761161761311a565b6020026020010151611def565b61162e90846131e5565b925061163981613146565b90506115f9565b6000831580159061165c5750600a546001600160581b03168411155b6116995760405162461bcd60e51b815260206004820152600e60248201526d1253959053125117d05353d5539560921b604482015260640161079f565b60008381526010602052604090205460ff16806116eb5760405162461bcd60e51b815260206004820152601060248201526f24a72b20a624a22fa22aa920aa24a7a760811b604482015260640161079f565b611709836117016116fc8888611cea565b611c9a565b935083611cd0565b84600d600082825461171b91906131e5565b9091555060009050606461173260ff8416886131fd565b61173c919061321c565b9050806001600160601b0316600e600082825461175991906131e5565b90915550506040805160c0810182526001600160601b03831681526001600160581b038816602082015290810161179087426131e5565b63ffffffff1681526020014263ffffffff1681526020018360ff1681526020016117cf836001600160601b0316600b546117ca91906131fd565b612111565b6117d890613301565b90526000848152600f6020908152604091829020835181548584015186860151606088015160808901516001600160601b039095166001600160b81b031990941693909317600160601b6001600160581b03909316929092029190911767ffffffffffffffff60b81b1916600160b81b63ffffffff9283160263ffffffff60d81b191617600160d81b9190921602176001600160f81b0316600160f81b60ff9092169190910217815560a09093015160019093019290925580518881529182018790526001600160a01b0386169185917f90cb42f510ce5c0169b63666274740c2e6d975a476c3758664f3795699fc654e910160405180910390a350509392505050565b6040516001600160a01b03831660248201526044810182905261084090849063a9059cbb60e01b906064015b60408051601f198184030181529190526020810180516001600160e01b03166001600160e01b031990931692909217909152612128565b600c54600d546040516370a0823160e01b81523060048201526000929183917f00000000000000000000000000000000000000000000000000000000000000006001600160a01b0316906370a0823190602401602060405180830381865afa1580156119af573d6000803e3d6000fd5b505050506040513d601f19601f820116820180604052508101906119d3919061331e565b6119dd9190613181565b600c81905590506119ed82612111565b6119f682612111565b611a009190613337565b9250505090565b600080611a1383610deb565b9050806001600160a01b0316846001600160a01b03161480611a5a57506001600160a01b0380821660009081526005602090815260408083209388168352929052205460ff165b80611a7e5750836001600160a01b0316611a7384610703565b6001600160a01b0316145b949350505050565b826001600160a01b0316611a9982610deb565b6001600160a01b031614611abf5760405162461bcd60e51b815260040161079f90613376565b6001600160a01b038216611b215760405162461bcd60e51b8152602060048201526024808201527f4552433732313a207472616e7366657220746f20746865207a65726f206164646044820152637265737360e01b606482015260840161079f565b611b2e83838360016121fd565b826001600160a01b0316611b4182610deb565b6001600160a01b031614611b675760405162461bcd60e51b815260040161079f90613376565b600081815260046020908152604080832080546001600160a01b03199081169091556001600160a01b0387811680865260038552838620805460001901905590871680865283862080546001019055868652600290945282852080549092168417909155905184937fddf252ad1be2c89b69c2b068fc378daa952ba7f163c4a11628f55a4df523b3ef91a4505050565b6000611c0282610deb565b9050611c128160008460016121fd565b611c1b82610deb565b600083815260046020908152604080832080546001600160a01b03199081169091556001600160a01b0385168085526003845282852080546000190190558785526002909352818420805490911690555192935084927fddf252ad1be2c89b69c2b068fc378daa952ba7f163c4a11628f55a4df523b3ef908390a45050565b6000611ca560085490565b611cb09060016131e5565b61066b906fffffffffffffffffffffffffffffffff16608084901b6131e5565b610de7828260405180602001604052806000815250612331565b6000611d167f0000000000000000000000000000000000000000000000000000000000000000836131e5565b610d1090846131fd565b816001600160a01b0316836001600160a01b03161415611d825760405162461bcd60e51b815260206004820152601960248201527f4552433732313a20617070726f766520746f2063616c6c657200000000000000604482015260640161079f565b6001600160a01b03838116600081815260056020908152604080832094871680845294825291829020805460ff191686151590811790915591519182527f17307eab39ab6107e8899845ad3d59bd9653f200f220920489ca2b5937696c31910160405180910390a3505050565b6000826001600160a01b0316611e0483610deb565b6001600160a01b031614611e2a5760405162461bcd60e51b815260040161079f906130f7565b6000828152600f6020526040902080546001600160601b03811690600160601b81046001600160581b031690600160b81b900463ffffffff1680611ea55760405162461bcd60e51b81526020600482015260126024820152712727afa627a1a5a2a22fa827a9a4aa24a7a760711b604482015260640161079f565b8063ffffffff16421015611eeb5760405162461bcd60e51b815260206004820152600d60248201526c43414e4e4f545f554e4c4f434b60981b604482015260640161079f565b611efa838386600101546120c4565b9450816001600160581b0316600d6000828254611f179190613181565b92505081905550826001600160601b0316600e6000828254611f399190613181565b90915550506000868152600f602052604080822082815560010191909155516001600160a01b0388169087907face2274efdcecc9282116630e8cb1c7f6156ca3cb8f3fde20c4c3d3fe646704290611f949089815260200190565b60405180910390a35050505092915050565b600080821215611fb857611fb86133bb565b5090565b611fc7848484611a86565b611fd384848484612364565b6109635760405162461bcd60e51b815260040161079f906133d1565b60606000611ffc83612462565b600101905060008167ffffffffffffffff81111561201c5761201c612b70565b6040519080825280601f01601f191660200182016040528015612046576020820181803683370190505b5090508181016020015b600019016f181899199a1a9b1b9c1cb0b131b232b360811b600a86061a8153600a850494508461207f57612084565b612050565b509392505050565b6040516001600160a01b03808516602483015283166044820152606481018290526109639085906323b872dd60e01b90608401611908565b6000826001600160581b0316600160801b6120fd846120f3886001600160601b0316600b546117ca91906131fd565b6111769190613423565b612107919061321c565b611a7e91906131e5565b806000811215612123576121236133bb565b919050565b600061217d826040518060400160405280602081526020017f5361666545524332303a206c6f772d6c6576656c2063616c6c206661696c6564815250856001600160a01b031661253a9092919063ffffffff16565b905080516000148061219e57508080602001905181019061219e9190613464565b6108405760405162461bcd60e51b815260206004820152602a60248201527f5361666545524332303a204552433230206f7065726174696f6e20646964206e6044820152691bdd081cdd58d8d9595960b21b606482015260840161079f565b600181111561226c5760405162461bcd60e51b815260206004820152603560248201527f455243373231456e756d657261626c653a20636f6e7365637574697665207472604482015274185b9cd9995c9cc81b9bdd081cdd5c1c1bdc9d1959605a1b606482015260840161079f565b816001600160a01b0385166122c8576122c381600880546000838152600960205260408120829055600182018355919091527ff3f7a9fe364faab93b216da50a3214154f22a0a2b415b23a84c8169e8b636ee30155565b6122eb565b836001600160a01b0316856001600160a01b0316146122eb576122eb8582612549565b6001600160a01b03841661230757612302816125e6565b61232a565b846001600160a01b0316846001600160a01b03161461232a5761232a8482612695565b5050505050565b61233b83836126d9565b6123486000848484612364565b6108405760405162461bcd60e51b815260040161079f906133d1565b60006001600160a01b0384163b1561245757604051630a85bd0160e11b81526001600160a01b0385169063150b7a02906123a8903390899088908890600401613481565b6020604051808303816000875af19250505080156123e3575060408051601f3d908101601f191682019092526123e0918101906134be565b60015b61243d573d808015612411576040519150601f19603f3d011682016040523d82523d6000602084013e612416565b606091505b5080516124355760405162461bcd60e51b815260040161079f906133d1565b805181602001fd5b6001600160e01b031916630a85bd0160e11b149050611a7e565b506001949350505050565b60008072184f03e93ff9f4daa797ed6e38ed64bf6a1f0160401b83106124a15772184f03e93ff9f4daa797ed6e38ed64bf6a1f0160401b830492506040015b6d04ee2d6d415b85acef810000000083106124cd576d04ee2d6d415b85acef8100000000830492506020015b662386f26fc1000083106124eb57662386f26fc10000830492506010015b6305f5e1008310612503576305f5e100830492506008015b612710831061251757612710830492506004015b60648310612529576064830492506002015b600a831061066b5760010192915050565b6060611a7e8484600085612872565b6000600161255684610ed9565b6125609190613181565b6000838152600760205260409020549091508082146125b3576001600160a01b03841660009081526006602090815260408083208584528252808320548484528184208190558352600790915290208190555b5060009182526007602090815260408084208490556001600160a01b039094168352600681528383209183525290812055565b6008546000906125f890600190613181565b600083815260096020526040812054600880549394509092849081106126205761262061311a565b9060005260206000200154905080600883815481106126415761264161311a565b6000918252602080832090910192909255828152600990915260408082208490558582528120556008805480612679576126796134db565b6001900381819060005260206000200160009055905550505050565b60006126a083610ed9565b6001600160a01b039093166000908152600660209081526040808320868452825280832085905593825260079052919091209190915550565b6001600160a01b03821661272f5760405162461bcd60e51b815260206004820181905260248201527f4552433732313a206d696e7420746f20746865207a65726f2061646472657373604482015260640161079f565b6000818152600260205260409020546001600160a01b0316156127945760405162461bcd60e51b815260206004820152601c60248201527f4552433732313a20746f6b656e20616c7265616479206d696e74656400000000604482015260640161079f565b6127a26000838360016121fd565b6000818152600260205260409020546001600160a01b0316156128075760405162461bcd60e51b815260206004820152601c60248201527f4552433732313a20746f6b656e20616c7265616479206d696e74656400000000604482015260640161079f565b6001600160a01b038216600081815260036020908152604080832080546001019055848352600290915280822080546001600160a01b0319168417905551839291907fddf252ad1be2c89b69c2b068fc378daa952ba7f163c4a11628f55a4df523b3ef908290a45050565b6060824710156128d35760405162461bcd60e51b815260206004820152602660248201527f416464726573733a20696e73756666696369656e742062616c616e636520666f6044820152651c8818d85b1b60d21b606482015260840161079f565b600080866001600160a01b031685876040516128ef91906134f1565b60006040518083038185875af1925050503d806000811461292c576040519150601f19603f3d011682016040523d82523d6000602084013e612931565b606091505b50915091506129428783838761294d565b979650505050505050565b606083156129b95782516129b2576001600160a01b0385163b6129b25760405162461bcd60e51b815260206004820152601d60248201527f416464726573733a2063616c6c20746f206e6f6e2d636f6e7472616374000000604482015260640161079f565b5081611a7e565b611a7e83838151156129ce5781518083602001fd5b8060405162461bcd60e51b815260040161079f9190612b03565b8280546129f4906130bc565b90600052602060002090601f016020900481019282612a165760008555612a5c565b82601f10612a2f57805160ff1916838001178555612a5c565b82800160010185558215612a5c579182015b82811115612a5c578251825591602001919060010190612a41565b50611fb89291505b80821115611fb85760008155600101612a64565b6001600160e01b03198116811461154357600080fd5b600060208284031215612aa057600080fd5b8135610d1081612a78565b60005b83811015612ac6578181015183820152602001612aae565b838111156109635750506000910152565b60008151808452612aef816020860160208601612aab565b601f01601f19169290920160200192915050565b602081526000610d106020830184612ad7565b600060208284031215612b2857600080fd5b5035919050565b80356001600160a01b038116811461212357600080fd5b60008060408385031215612b5957600080fd5b612b6283612b2f565b946020939093013593505050565b634e487b7160e01b600052604160045260246000fd5b604051601f8201601f1916810167ffffffffffffffff81118282101715612baf57612baf612b70565b604052919050565b600067ffffffffffffffff821115612bd157612bd1612b70565b5060051b60200190565b600082601f830112612bec57600080fd5b81356020612c01612bfc83612bb7565b612b86565b82815260059290921b84018101918181019086841115612c2057600080fd5b8286015b84811015612c3b5780358352918301918301612c24565b509695505050505050565b803560ff8116811461212357600080fd5b60008060408385031215612c6a57600080fd5b823567ffffffffffffffff80821115612c8257600080fd5b612c8e86838701612bdb565b9350602091508185013581811115612ca557600080fd5b85019050601f81018613612cb857600080fd5b8035612cc6612bfc82612bb7565b81815260059190911b82018301908381019088831115612ce557600080fd5b928401925b82841015612d0a57612cfb84612c46565b82529284019290840190612cea565b80955050505050509250929050565b60008060008060808587031215612d2f57600080fd5b843567ffffffffffffffff811115612d4657600080fd5b612d5287828801612bdb565b9450506020850135925060408501359150612d6f60608601612b2f565b905092959194509250565b600080600060608486031215612d8f57600080fd5b612d9884612b2f565b9250612da660208501612b2f565b9150604084013590509250925092565b60008060408385031215612dc957600080fd5b823567ffffffffffffffff811115612de057600080fd5b612dec85828601612bdb565b925050612dfb60208401612b2f565b90509250929050565b60008060408385031215612e1757600080fd5b50508035926020909101359150565b600067ffffffffffffffff831115612e4057612e40612b70565b612e53601f8401601f1916602001612b86565b9050828152838383011115612e6757600080fd5b828260208301376000602084830101529392505050565b600060208284031215612e9057600080fd5b813567ffffffffffffffff811115612ea757600080fd5b8201601f81018413612eb857600080fd5b611a7e84823560208401612e26565b600060208284031215612ed957600080fd5b610d1082612b2f565b801515811461154357600080fd5b60008060408385031215612f0357600080fd5b612f0c83612b2f565b91506020830135612f1c81612ee2565b809150509250929050565b60008060008060808587031215612f3d57600080fd5b843593506020850135925060408501359150612d6f60608601612b2f565b60008060008060808587031215612f7157600080fd5b612f7a85612b2f565b9350612f8860208601612b2f565b925060408501359150606085013567ffffffffffffffff811115612fab57600080fd5b8501601f81018713612fbc57600080fd5b612fcb87823560208401612e26565b91505092959194509250565b600080600080600080600060e0888a031215612ff257600080fd5b873596506020880135955061300960408901612b2f565b94506060880135935061301e60808901612c46565b925060a0880135915060c0880135905092959891949750929550565b60008060006060848603121561304f57600080fd5b833592506020840135915061306660408501612b2f565b90509250925092565b6000806040838503121561308257600080fd5b61308b83612b2f565b9150612dfb60208401612b2f565b600080604083850312156130ac57600080fd5b82359150612dfb60208401612b2f565b600181811c908216806130d057607f821691505b602082108114156130f157634e487b7160e01b600052602260045260246000fd5b50919050565b6020808252600990820152682727aa2fa7aba722a960b91b604082015260600190565b634e487b7160e01b600052603260045260246000fd5b634e487b7160e01b600052601160045260246000fd5b600060001982141561315a5761315a613130565b5060010190565b6020808252600690820152651313d0d2d15160d21b604082015260600190565b60008282101561319357613193613130565b500390565b6020808252602d908201527f4552433732313a2063616c6c6572206973206e6f7420746f6b656e206f776e6560408201526c1c881bdc88185c1c1c9bdd9959609a1b606082015260800190565b600082198211156131f8576131f8613130565b500190565b600081600019048311821515161561321757613217613130565b500290565b60008261323957634e487b7160e01b600052601260045260246000fd5b500490565b60008151613250818560208601612aab565b9290920192915050565b600080845481600182811c91508083168061327657607f831692505b602080841082141561329657634e487b7160e01b86526022600452602486fd5b8180156132aa57600181146132bb576132e8565b60ff198616895284890196506132e8565b60008b81526020902060005b868110156132e05781548b8201529085019083016132c7565b505084890196505b5050505050506132f8818561323e565b95945050505050565b6000600160ff1b82141561331757613317613130565b5060000390565b60006020828403121561333057600080fd5b5051919050565b60008083128015600160ff1b85018412161561335557613355613130565b6001600160ff1b038401831381161561337057613370613130565b50500390565b60208082526025908201527f4552433732313a207472616e736665722066726f6d20696e636f72726563742060408201526437bbb732b960d91b606082015260800190565b634e487b7160e01b600052600160045260246000fd5b60208082526032908201527f4552433732313a207472616e7366657220746f206e6f6e20455243373231526560408201527131b2b4bb32b91034b6b83632b6b2b73a32b960711b606082015260800190565b600080821280156001600160ff1b038490038513161561344557613445613130565b600160ff1b839003841281161561345e5761345e613130565b50500190565b60006020828403121561347657600080fd5b8151610d1081612ee2565b6001600160a01b03858116825284166020820152604081018390526080606082018190526000906134b490830184612ad7565b9695505050505050565b6000602082840312156134d057600080fd5b8151610d1081612a78565b634e487b7160e01b600052603160045260246000fd5b60008251613503818460208701612aab565b919091019291505056fea164736f6c634300080a000a","opcodes":"PUSH1 0xC0 PUSH1 0x40 MSTORE PUSH1 0xA DUP1 SLOAD PUSH1 0x1 PUSH1 0x1 PUSH1 0x58 SHL SUB NOT AND PUSH11 0xC685FA11E01EC6F0000000 OR SWAP1 SSTORE CALLVALUE DUP1 ISZERO PUSH3 0x2E JUMPI PUSH1 0x0 DUP1 REVERT JUMPDEST POP PUSH1 0x40 MLOAD PUSH3 0x38AC CODESIZE SUB DUP1 PUSH3 0x38AC DUP4 CODECOPY DUP2 ADD PUSH1 0x40 DUP2 SWAP1 MSTORE PUSH3 0x51 SWAP2 PUSH3 0x1FC JUMP JUMPDEST PUSH1 0x40 DUP1 MLOAD DUP1 DUP3 ADD DUP3 MSTORE PUSH1 0xC DUP2 MSTORE PUSH12 0x4C6F636B6564205844454649 PUSH1 0xA0 SHL PUSH1 0x20 DUP1 DUP4 ADD SWAP2 DUP3 MSTORE DUP4 MLOAD DUP1 DUP6 ADD SWAP1 SWAP5 MSTORE PUSH1 0x6 DUP5 MSTORE PUSH6 0x6C5844454649 PUSH1 0xD0 SHL SWAP1 DUP5 ADD MSTORE DUP2 MLOAD SWAP2 SWAP3 SWAP2 PUSH3 0xA3 SWAP2 PUSH1 0x0 SWAP2 PUSH3 0x140 JUMP JUMPDEST POP DUP1 MLOAD PUSH3 0xB9 SWAP1 PUSH1 0x1 SWAP1 PUSH1 0x20 DUP5 ADD SWAP1 PUSH3 0x140 JUMP JUMPDEST POP POP POP PUSH1 0x1 PUSH1 0x1 PUSH1 0xA0 SHL SUB DUP4 AND PUSH1 0x80 DUP2 SWAP1 MSTORE PUSH3 0x10C JUMPI PUSH1 0x40 MLOAD PUSH3 0x461BCD PUSH1 0xE5 SHL DUP2 MSTORE PUSH1 0x20 PUSH1 0x4 DUP3 ADD MSTORE PUSH1 0xD PUSH1 0x24 DUP3 ADD MSTORE PUSH13 0x24A72B20A624A22FAA27A5A2A7 PUSH1 0x99 SHL PUSH1 0x44 DUP3 ADD MSTORE PUSH1 0x64 ADD PUSH1 0x40 MLOAD DUP1 SWAP2 SUB SWAP1 REVERT JUMPDEST PUSH1 0x12 DUP1 SLOAD PUSH1 0x1 PUSH1 0x1 PUSH1 0xA0 SHL SUB NOT AND CALLER OR SWAP1 SSTORE DUP2 MLOAD PUSH3 0x133 SWAP1 PUSH1 0x11 SWAP1 PUSH1 0x20 DUP6 ADD SWAP1 PUSH3 0x140 JUMP JUMPDEST POP PUSH1 0xA0 MSTORE POP PUSH3 0x342 SWAP1 POP JUMP JUMPDEST DUP3 DUP1 SLOAD PUSH3 0x14E SWAP1 PUSH3 0x305 JUMP JUMPDEST SWAP1 PUSH1 0x0 MSTORE PUSH1 0x20 PUSH1 0x0 KECCAK256 SWAP1 PUSH1 0x1F ADD PUSH1 0x20 SWAP1 DIV DUP2 ADD SWAP3 DUP3 PUSH3 0x172 JUMPI PUSH1 0x0 DUP6 SSTORE PUSH3 0x1BD JUMP JUMPDEST DUP3 PUSH1 0x1F LT PUSH3 0x18D JUMPI DUP1 MLOAD PUSH1 0xFF NOT AND DUP4 DUP1 ADD OR DUP6 SSTORE PUSH3 0x1BD JUMP JUMPDEST DUP3 DUP1 ADD PUSH1 0x1 ADD DUP6 SSTORE DUP3 ISZERO PUSH3 0x1BD JUMPI SWAP2 DUP3 ADD JUMPDEST DUP3 DUP2 GT ISZERO PUSH3 0x1BD JUMPI DUP3 MLOAD DUP3 SSTORE SWAP2 PUSH1 0x20 ADD SWAP2 SWAP1 PUSH1 0x1 ADD SWAP1 PUSH3 0x1A0 JUMP JUMPDEST POP PUSH3 0x1CB SWAP3 SWAP2 POP PUSH3 0x1CF JUMP JUMPDEST POP SWAP1 JUMP JUMPDEST JUMPDEST DUP1 DUP3 GT ISZERO PUSH3 0x1CB JUMPI PUSH1 0x0 DUP2 SSTORE PUSH1 0x1 ADD PUSH3 0x1D0 JUMP JUMPDEST PUSH4 0x4E487B71 PUSH1 0xE0 SHL PUSH1 0x0 MSTORE PUSH1 0x41 PUSH1 0x4 MSTORE PUSH1 0x24 PUSH1 0x0 REVERT JUMPDEST PUSH1 0x0 DUP1 PUSH1 0x0 PUSH1 0x60 DUP5 DUP7 SUB SLT ISZERO PUSH3 0x212 JUMPI PUSH1 0x0 DUP1 REVERT JUMPDEST DUP4 MLOAD PUSH1 0x1 PUSH1 0x1 PUSH1 0xA0 SHL SUB DUP2 AND DUP2 EQ PUSH3 0x22A JUMPI PUSH1 0x0 DUP1 REVERT JUMPDEST PUSH1 0x20 DUP6 DUP2 ADD MLOAD SWAP2 SWAP5 POP SWAP1 PUSH1 0x1 PUSH1 0x1 PUSH1 0x40 SHL SUB DUP1 DUP3 GT ISZERO PUSH3 0x24A JUMPI PUSH1 0x0 DUP1 REVERT JUMPDEST DUP2 DUP8 ADD SWAP2 POP DUP8 PUSH1 0x1F DUP4 ADD SLT PUSH3 0x25F JUMPI PUSH1 0x0 DUP1 REVERT JUMPDEST DUP2 MLOAD DUP2 DUP2 GT ISZERO PUSH3 0x274 JUMPI PUSH3 0x274 PUSH3 0x1E6 JUMP JUMPDEST PUSH1 0x40 MLOAD PUSH1 0x1F DUP3 ADD PUSH1 0x1F NOT SWAP1 DUP2 AND PUSH1 0x3F ADD AND DUP2 ADD SWAP1 DUP4 DUP3 GT DUP2 DUP4 LT OR ISZERO PUSH3 0x29F JUMPI PUSH3 0x29F PUSH3 0x1E6 JUMP JUMPDEST DUP2 PUSH1 0x40 MSTORE DUP3 DUP2 MSTORE DUP11 DUP7 DUP5 DUP8 ADD ADD GT ISZERO PUSH3 0x2B8 JUMPI PUSH1 0x0 DUP1 REVERT JUMPDEST PUSH1 0x0 SWAP4 POP JUMPDEST DUP3 DUP5 LT ISZERO PUSH3 0x2DC JUMPI DUP5 DUP5 ADD DUP7 ADD MLOAD DUP2 DUP6 ADD DUP8 ADD MSTORE SWAP3 DUP6 ADD SWAP3 PUSH3 0x2BD JUMP JUMPDEST DUP3 DUP5 GT ISZERO PUSH3 0x2EE JUMPI PUSH1 0x0 DUP7 DUP5 DUP4 ADD ADD MSTORE JUMPDEST DUP1 SWAP8 POP POP POP POP POP POP POP PUSH1 0x40 DUP5 ADD MLOAD SWAP1 POP SWAP3 POP SWAP3 POP SWAP3 JUMP JUMPDEST PUSH1 0x1 DUP2 DUP2 SHR SWAP1 DUP3 AND DUP1 PUSH3 0x31A JUMPI PUSH1 0x7F DUP3 AND SWAP2 POP JUMPDEST PUSH1 0x20 DUP3 LT DUP2 EQ ISZERO PUSH3 0x33C JUMPI PUSH4 0x4E487B71 PUSH1 0xE0 SHL PUSH1 0x0 MSTORE PUSH1 0x22 PUSH1 0x4 MSTORE PUSH1 0x24 PUSH1 0x0 REVERT JUMPDEST POP SWAP2 SWAP1 POP JUMP JUMPDEST PUSH1 0x80 MLOAD PUSH1 0xA0 MLOAD PUSH2 0x351A PUSH3 0x392 PUSH1 0x0 CODECOPY PUSH1 0x0 PUSH2 0x1CF1 ADD MSTORE PUSH1 0x0 DUP2 DUP2 PUSH2 0x541 ADD MSTORE DUP2 DUP2 PUSH2 0xA15 ADD MSTORE DUP2 DUP2 PUSH2 0xC19 ADD MSTORE DUP2 DUP2 PUSH2 0x130D ADD MSTORE DUP2 DUP2 PUSH2 0x1376 ADD MSTORE DUP2 DUP2 PUSH2 0x1422 ADD MSTORE PUSH2 0x1960 ADD MSTORE PUSH2 0x351A PUSH1 0x0 RETURN INVALID PUSH1 0x80 PUSH1 0x40 MSTORE CALLVALUE DUP1 ISZERO PUSH2 0x10 JUMPI PUSH1 0x0 DUP1 REVERT JUMPDEST POP PUSH1 0x4 CALLDATASIZE LT PUSH2 0x248 JUMPI PUSH1 0x0 CALLDATALOAD PUSH1 0xE0 SHR DUP1 PUSH4 0x70A08231 GT PUSH2 0x13B JUMPI DUP1 PUSH4 0xB88D4FDE GT PUSH2 0xB8 JUMPI DUP1 PUSH4 0xD35CF790 GT PUSH2 0x7C JUMPI DUP1 PUSH4 0xD35CF790 EQ PUSH2 0x59C JUMPI DUP1 PUSH4 0xD3646E79 EQ PUSH2 0x5AF JUMPI DUP1 PUSH4 0xE30C3978 EQ PUSH2 0x5E4 JUMPI DUP1 PUSH4 0xE985E9C5 EQ PUSH2 0x5F7 JUMPI DUP1 PUSH4 0xF1D2EC1D EQ PUSH2 0x633 JUMPI PUSH1 0x0 DUP1 REVERT JUMPDEST DUP1 PUSH4 0xB88D4FDE EQ PUSH2 0x529 JUMPI DUP1 PUSH4 0xB8D1CD48 EQ PUSH2 0x53C JUMPI DUP1 PUSH4 0xC87B56DD EQ PUSH2 0x563 JUMPI DUP1 PUSH4 0xCC1168F2 EQ PUSH2 0x576 JUMPI DUP1 PUSH4 0xD1FDB3E8 EQ PUSH2 0x589 JUMPI PUSH1 0x0 DUP1 REVERT JUMPDEST DUP1 PUSH4 0x95D89B41 GT PUSH2 0xFF JUMPI DUP1 PUSH4 0x95D89B41 EQ PUSH2 0x4EA JUMPI DUP1 PUSH4 0xA22CB465 EQ PUSH2 0x4F2 JUMPI DUP1 PUSH4 0xA372E771 EQ PUSH2 0x505 JUMPI DUP1 PUSH4 0xA83D4DDA EQ PUSH2 0x518 JUMPI DUP1 PUSH4 0xAA8BADC1 EQ PUSH2 0x521 JUMPI PUSH1 0x0 DUP1 REVERT JUMPDEST DUP1 PUSH4 0x70A08231 EQ PUSH2 0x496 JUMPI DUP1 PUSH4 0x710BF322 EQ PUSH2 0x4A9 JUMPI DUP1 PUSH4 0x79BA5097 EQ PUSH2 0x4BC JUMPI DUP1 PUSH4 0x82411358 EQ PUSH2 0x4C4 JUMPI DUP1 PUSH4 0x8DA5CB5B EQ PUSH2 0x4D7 JUMPI PUSH1 0x0 DUP1 REVERT JUMPDEST DUP1 PUSH4 0x2F588CD4 GT PUSH2 0x1C9 JUMPI DUP1 PUSH4 0x4F6CCCE7 GT PUSH2 0x18D JUMPI DUP1 PUSH4 0x4F6CCCE7 EQ PUSH2 0x44C JUMPI DUP1 PUSH4 0x55F804B3 EQ PUSH2 0x45F JUMPI DUP1 PUSH4 0x6352211E EQ PUSH2 0x472 JUMPI DUP1 PUSH4 0x6C0360EB EQ PUSH2 0x485 JUMPI DUP1 PUSH4 0x6D86ACC4 EQ PUSH2 0x48D JUMPI PUSH1 0x0 DUP1 REVERT JUMPDEST DUP1 PUSH4 0x2F588CD4 EQ PUSH2 0x34A JUMPI DUP1 PUSH4 0x2F745C59 EQ PUSH2 0x35D JUMPI DUP1 PUSH4 0x42842E0E EQ PUSH2 0x370 JUMPI DUP1 PUSH4 0x46F96023 EQ PUSH2 0x383 JUMPI DUP1 PUSH4 0x4D4C71A3 EQ PUSH2 0x439 JUMPI PUSH1 0x0 DUP1 REVERT JUMPDEST DUP1 PUSH4 0x159D97FC GT PUSH2 0x210 JUMPI DUP1 PUSH4 0x159D97FC EQ PUSH2 0x2E1 JUMPI DUP1 PUSH4 0x18160DDD EQ PUSH2 0x2F4 JUMPI DUP1 PUSH4 0x21A43AA2 EQ PUSH2 0x2FC JUMPI DUP1 PUSH4 0x23B872DD EQ PUSH2 0x324 JUMPI DUP1 PUSH4 0x2B580629 EQ PUSH2 0x337 JUMPI PUSH1 0x0 DUP1 REVERT JUMPDEST DUP1 PUSH4 0x1FFC9A7 EQ PUSH2 0x24D JUMPI DUP1 PUSH4 0x6FDDE03 EQ PUSH2 0x275 JUMPI DUP1 PUSH4 0x7473742 EQ PUSH2 0x28A JUMPI DUP1 PUSH4 0x81812FC EQ PUSH2 0x2A1 JUMPI DUP1 PUSH4 0x95EA7B3 EQ PUSH2 0x2CC JUMPI JUMPDEST PUSH1 0x0 DUP1 REVERT JUMPDEST PUSH2 0x260 PUSH2 0x25B CALLDATASIZE PUSH1 0x4 PUSH2 0x2A8E JUMP JUMPDEST PUSH2 0x646 JUMP JUMPDEST PUSH1 0x40 MLOAD SWAP1 ISZERO ISZERO DUP2 MSTORE PUSH1 0x20 ADD JUMPDEST PUSH1 0x40 MLOAD DUP1 SWAP2 SUB SWAP1 RETURN JUMPDEST PUSH2 0x27D PUSH2 0x671 JUMP JUMPDEST PUSH1 0x40 MLOAD PUSH2 0x26C SWAP2 SWAP1 PUSH2 0x2B03 JUMP JUMPDEST PUSH2 0x293 PUSH1 0xD SLOAD DUP2 JUMP JUMPDEST PUSH1 0x40 MLOAD SWAP1 DUP2 MSTORE PUSH1 0x20 ADD PUSH2 0x26C JUMP JUMPDEST PUSH2 0x2B4 PUSH2 0x2AF CALLDATASIZE PUSH1 0x4 PUSH2 0x2B16 JUMP JUMPDEST PUSH2 0x703 JUMP JUMPDEST PUSH1 0x40 MLOAD PUSH1 0x1 PUSH1 0x1 PUSH1 0xA0 SHL SUB SWAP1 SWAP2 AND DUP2 MSTORE PUSH1 0x20 ADD PUSH2 0x26C JUMP JUMPDEST PUSH2 0x2DF PUSH2 0x2DA CALLDATASIZE PUSH1 0x4 PUSH2 0x2B46 JUMP JUMPDEST PUSH2 0x72A JUMP JUMPDEST STOP JUMPDEST PUSH2 0x2DF PUSH2 0x2EF CALLDATASIZE PUSH1 0x4 PUSH2 0x2C57 JUMP JUMPDEST PUSH2 0x845 JUMP JUMPDEST PUSH1 0x8 SLOAD PUSH2 0x293 JUMP JUMPDEST PUSH2 0x30F PUSH2 0x30A CALLDATASIZE PUSH1 0x4 PUSH2 0x2D19 JUMP JUMPDEST PUSH2 0x969 JUMP JUMPDEST PUSH1 0x40 DUP1 MLOAD SWAP3 DUP4 MSTORE PUSH1 0x20 DUP4 ADD SWAP2 SWAP1 SWAP2 MSTORE ADD PUSH2 0x26C JUMP JUMPDEST PUSH2 0x2DF PUSH2 0x332 CALLDATASIZE PUSH1 0x4 PUSH2 0x2D7A JUMP JUMPDEST PUSH2 0xA55 JUMP JUMPDEST PUSH2 0x293 PUSH2 0x345 CALLDATASIZE PUSH1 0x4 PUSH2 0x2DB6 JUMP JUMPDEST PUSH2 0xA86 JUMP JUMPDEST PUSH2 0x293 PUSH2 0x358 CALLDATASIZE PUSH1 0x4 PUSH2 0x2DB6 JUMP JUMPDEST PUSH2 0xBDF JUMP JUMPDEST PUSH2 0x293 PUSH2 0x36B CALLDATASIZE PUSH1 0x4 PUSH2 0x2B46 JUMP JUMPDEST PUSH2 0xC53 JUMP JUMPDEST PUSH2 0x2DF PUSH2 0x37E CALLDATASIZE PUSH1 0x4 PUSH2 0x2D7A JUMP JUMPDEST PUSH2 0xCE9 JUMP JUMPDEST PUSH2 0x3ED PUSH2 0x391 CALLDATASIZE PUSH1 0x4 PUSH2 0x2B16 JUMP JUMPDEST PUSH1 0xF PUSH1 0x20 MSTORE PUSH1 0x0 SWAP1 DUP2 MSTORE PUSH1 0x40 SWAP1 KECCAK256 DUP1 SLOAD PUSH1 0x1 SWAP1 SWAP2 ADD SLOAD PUSH1 0x1 PUSH1 0x1 PUSH1 0x60 SHL SUB DUP3 AND SWAP2 PUSH1 0x1 PUSH1 0x60 SHL DUP2 DIV PUSH1 0x1 PUSH1 0x1 PUSH1 0x58 SHL SUB AND SWAP2 PUSH1 0x1 PUSH1 0xB8 SHL DUP3 DIV PUSH4 0xFFFFFFFF SWAP1 DUP2 AND SWAP3 PUSH1 0x1 PUSH1 0xD8 SHL DUP2 DIV SWAP1 SWAP2 AND SWAP2 PUSH1 0x1 PUSH1 0xF8 SHL SWAP1 SWAP2 DIV PUSH1 0xFF AND SWAP1 DUP7 JUMP JUMPDEST PUSH1 0x40 DUP1 MLOAD PUSH1 0x1 PUSH1 0x1 PUSH1 0x60 SHL SUB SWAP1 SWAP8 AND DUP8 MSTORE PUSH1 0x1 PUSH1 0x1 PUSH1 0x58 SHL SUB SWAP1 SWAP6 AND PUSH1 0x20 DUP8 ADD MSTORE PUSH4 0xFFFFFFFF SWAP4 DUP5 AND SWAP5 DUP7 ADD SWAP5 SWAP1 SWAP5 MSTORE SWAP2 AND PUSH1 0x60 DUP5 ADD MSTORE PUSH1 0xFF AND PUSH1 0x80 DUP4 ADD MSTORE PUSH1 0xA0 DUP3 ADD MSTORE PUSH1 0xC0 ADD PUSH2 0x26C JUMP JUMPDEST PUSH2 0x293 PUSH2 0x447 CALLDATASIZE PUSH1 0x4 PUSH2 0x2E04 JUMP JUMPDEST PUSH2 0xD04 JUMP JUMPDEST PUSH2 0x293 PUSH2 0x45A CALLDATASIZE PUSH1 0x4 PUSH2 0x2B16 JUMP JUMPDEST PUSH2 0xD17 JUMP JUMPDEST PUSH2 0x2DF PUSH2 0x46D CALLDATASIZE PUSH1 0x4 PUSH2 0x2E7E JUMP JUMPDEST PUSH2 0xDAA JUMP JUMPDEST PUSH2 0x2B4 PUSH2 0x480 CALLDATASIZE PUSH1 0x4 PUSH2 0x2B16 JUMP JUMPDEST PUSH2 0xDEB JUMP JUMPDEST PUSH2 0x27D PUSH2 0xE4B JUMP JUMPDEST PUSH2 0x293 PUSH1 0xE SLOAD DUP2 JUMP JUMPDEST PUSH2 0x293 PUSH2 0x4A4 CALLDATASIZE PUSH1 0x4 PUSH2 0x2EC7 JUMP JUMPDEST PUSH2 0xED9 JUMP JUMPDEST PUSH2 0x2DF PUSH2 0x4B7 CALLDATASIZE PUSH1 0x4 PUSH2 0x2EC7 JUMP JUMPDEST PUSH2 0xF5F JUMP JUMPDEST PUSH2 0x2DF PUSH2 0xFDB JUMP JUMPDEST PUSH2 0x293 PUSH2 0x4D2 CALLDATASIZE PUSH1 0x4 PUSH2 0x2B16 JUMP JUMPDEST PUSH2 0x1081 JUMP JUMPDEST PUSH1 0x12 SLOAD PUSH2 0x2B4 SWAP1 PUSH1 0x1 PUSH1 0x1 PUSH1 0xA0 SHL SUB AND DUP2 JUMP JUMPDEST PUSH2 0x27D PUSH2 0x10DA JUMP JUMPDEST PUSH2 0x2DF PUSH2 0x500 CALLDATASIZE PUSH1 0x4 PUSH2 0x2EF0 JUMP JUMPDEST PUSH2 0x10E9 JUMP JUMPDEST PUSH2 0x30F PUSH2 0x513 CALLDATASIZE PUSH1 0x4 PUSH2 0x2F27 JUMP JUMPDEST PUSH2 0x10F4 JUMP JUMPDEST PUSH2 0x293 PUSH1 0xC SLOAD DUP2 JUMP JUMPDEST PUSH2 0x2DF PUSH2 0x1128 JUMP JUMPDEST PUSH2 0x2DF PUSH2 0x537 CALLDATASIZE PUSH1 0x4 PUSH2 0x2F5B JUMP JUMPDEST PUSH2 0x11EE JUMP JUMPDEST PUSH2 0x2B4 PUSH32 0x0 DUP2 JUMP JUMPDEST PUSH2 0x27D PUSH2 0x571 CALLDATASIZE PUSH1 0x4 PUSH2 0x2B16 JUMP JUMPDEST PUSH2 0x1220 JUMP JUMPDEST PUSH2 0x293 PUSH2 0x584 CALLDATASIZE PUSH1 0x4 PUSH2 0x2FD7 JUMP JUMPDEST PUSH2 0x12A4 JUMP JUMPDEST PUSH2 0x293 PUSH2 0x597 CALLDATASIZE PUSH1 0x4 PUSH2 0x2B16 JUMP JUMPDEST PUSH2 0x13B9 JUMP JUMPDEST PUSH2 0x293 PUSH2 0x5AA CALLDATASIZE PUSH1 0x4 PUSH2 0x303A JUMP JUMPDEST PUSH2 0x13F4 JUMP JUMPDEST PUSH2 0x5D2 PUSH2 0x5BD CALLDATASIZE PUSH1 0x4 PUSH2 0x2B16 JUMP JUMPDEST PUSH1 0x10 PUSH1 0x20 MSTORE PUSH1 0x0 SWAP1 DUP2 MSTORE PUSH1 0x40 SWAP1 KECCAK256 SLOAD PUSH1 0xFF AND DUP2 JUMP JUMPDEST PUSH1 0x40 MLOAD PUSH1 0xFF SWAP1 SWAP2 AND DUP2 MSTORE PUSH1 0x20 ADD PUSH2 0x26C JUMP JUMPDEST PUSH1 0x13 SLOAD PUSH2 0x2B4 SWAP1 PUSH1 0x1 PUSH1 0x1 PUSH1 0xA0 SHL SUB AND DUP2 JUMP JUMPDEST PUSH2 0x260 PUSH2 0x605 CALLDATASIZE PUSH1 0x4 PUSH2 0x306F JUMP JUMPDEST PUSH1 0x1 PUSH1 0x1 PUSH1 0xA0 SHL SUB SWAP2 DUP3 AND PUSH1 0x0 SWAP1 DUP2 MSTORE PUSH1 0x5 PUSH1 0x20 SWAP1 DUP2 MSTORE PUSH1 0x40 DUP1 DUP4 KECCAK256 SWAP4 SWAP1 SWAP5 AND DUP3 MSTORE SWAP2 SWAP1 SWAP2 MSTORE KECCAK256 SLOAD PUSH1 0xFF AND SWAP1 JUMP JUMPDEST PUSH2 0x293 PUSH2 0x641 CALLDATASIZE PUSH1 0x4 PUSH2 0x3099 JUMP JUMPDEST PUSH2 0x1461 JUMP JUMPDEST PUSH1 0x0 PUSH1 0x1 PUSH1 0x1 PUSH1 0xE0 SHL SUB NOT DUP3 AND PUSH4 0x780E9D63 PUSH1 0xE0 SHL EQ DUP1 PUSH2 0x66B JUMPI POP PUSH2 0x66B DUP3 PUSH2 0x1494 JUMP JUMPDEST SWAP3 SWAP2 POP POP JUMP JUMPDEST PUSH1 0x60 PUSH1 0x0 DUP1 SLOAD PUSH2 0x680 SWAP1 PUSH2 0x30BC JUMP JUMPDEST DUP1 PUSH1 0x1F ADD PUSH1 0x20 DUP1 SWAP2 DIV MUL PUSH1 0x20 ADD PUSH1 0x40 MLOAD SWAP1 DUP2 ADD PUSH1 0x40 MSTORE DUP1 SWAP3 SWAP2 SWAP1 DUP2 DUP2 MSTORE PUSH1 0x20 ADD DUP3 DUP1 SLOAD PUSH2 0x6AC SWAP1 PUSH2 0x30BC JUMP JUMPDEST DUP1 ISZERO PUSH2 0x6F9 JUMPI DUP1 PUSH1 0x1F LT PUSH2 0x6CE JUMPI PUSH2 0x100 DUP1 DUP4 SLOAD DIV MUL DUP4 MSTORE SWAP2 PUSH1 0x20 ADD SWAP2 PUSH2 0x6F9 JUMP JUMPDEST DUP3 ADD SWAP2 SWAP1 PUSH1 0x0 MSTORE PUSH1 0x20 PUSH1 0x0 KECCAK256 SWAP1 JUMPDEST DUP2 SLOAD DUP2 MSTORE SWAP1 PUSH1 0x1 ADD SWAP1 PUSH1 0x20 ADD DUP1 DUP4 GT PUSH2 0x6DC JUMPI DUP3 SWAP1 SUB PUSH1 0x1F AND DUP3 ADD SWAP2 JUMPDEST POP POP POP POP POP SWAP1 POP SWAP1 JUMP JUMPDEST PUSH1 0x0 PUSH2 0x70E DUP3 PUSH2 0x14E4 JUMP JUMPDEST POP PUSH1 0x0 SWAP1 DUP2 MSTORE PUSH1 0x4 PUSH1 0x20 MSTORE PUSH1 0x40 SWAP1 KECCAK256 SLOAD PUSH1 0x1 PUSH1 0x1 PUSH1 0xA0 SHL SUB AND SWAP1 JUMP JUMPDEST PUSH1 0x0 PUSH2 0x735 DUP3 PUSH2 0xDEB JUMP JUMPDEST SWAP1 POP DUP1 PUSH1 0x1 PUSH1 0x1 PUSH1 0xA0 SHL SUB AND DUP4 PUSH1 0x1 PUSH1 0x1 PUSH1 0xA0 SHL SUB AND EQ ISZERO PUSH2 0x7A8 JUMPI PUSH1 0x40 MLOAD PUSH3 0x461BCD PUSH1 0xE5 SHL DUP2 MSTORE PUSH1 0x20 PUSH1 0x4 DUP3 ADD MSTORE PUSH1 0x21 PUSH1 0x24 DUP3 ADD MSTORE PUSH32 0x4552433732313A20617070726F76616C20746F2063757272656E74206F776E65 PUSH1 0x44 DUP3 ADD MSTORE PUSH1 0x39 PUSH1 0xF9 SHL PUSH1 0x64 DUP3 ADD MSTORE PUSH1 0x84 ADD JUMPDEST PUSH1 0x40 MLOAD DUP1 SWAP2 SUB SWAP1 REVERT JUMPDEST CALLER PUSH1 0x1 PUSH1 0x1 PUSH1 0xA0 SHL SUB DUP3 AND EQ DUP1 PUSH2 0x7C4 JUMPI POP PUSH2 0x7C4 DUP2 CALLER PUSH2 0x605 JUMP JUMPDEST PUSH2 0x836 JUMPI PUSH1 0x40 MLOAD PUSH3 0x461BCD PUSH1 0xE5 SHL DUP2 MSTORE PUSH1 0x20 PUSH1 0x4 DUP3 ADD MSTORE PUSH1 0x3D PUSH1 0x24 DUP3 ADD MSTORE PUSH32 0x4552433732313A20617070726F76652063616C6C6572206973206E6F7420746F PUSH1 0x44 DUP3 ADD MSTORE PUSH32 0x6B656E206F776E6572206F7220617070726F76656420666F7220616C6C000000 PUSH1 0x64 DUP3 ADD MSTORE PUSH1 0x84 ADD PUSH2 0x79F JUMP JUMPDEST PUSH2 0x840 DUP4 DUP4 PUSH2 0x1546 JUMP JUMPDEST POP POP POP JUMP JUMPDEST PUSH1 0x12 SLOAD PUSH1 0x1 PUSH1 0x1 PUSH1 0xA0 SHL SUB AND CALLER EQ PUSH2 0x86F JUMPI PUSH1 0x40 MLOAD PUSH3 0x461BCD PUSH1 0xE5 SHL DUP2 MSTORE PUSH1 0x4 ADD PUSH2 0x79F SWAP1 PUSH2 0x30F7 JUMP JUMPDEST DUP2 MLOAD PUSH1 0x0 JUMPDEST DUP2 DUP2 LT ISZERO PUSH2 0x963 JUMPI PUSH1 0x0 DUP5 DUP3 DUP2 MLOAD DUP2 LT PUSH2 0x890 JUMPI PUSH2 0x890 PUSH2 0x311A JUMP JUMPDEST PUSH1 0x20 MUL PUSH1 0x20 ADD ADD MLOAD SWAP1 POP PUSH4 0x5DFC0F00 DUP2 GT ISZERO PUSH2 0x8E1 JUMPI PUSH1 0x40 MLOAD PUSH3 0x461BCD PUSH1 0xE5 SHL DUP2 MSTORE PUSH1 0x20 PUSH1 0x4 DUP3 ADD MSTORE PUSH1 0x10 PUSH1 0x24 DUP3 ADD MSTORE PUSH16 0x24A72B20A624A22FA22AA920AA24A7A7 PUSH1 0x81 SHL PUSH1 0x44 DUP3 ADD MSTORE PUSH1 0x64 ADD PUSH2 0x79F JUMP JUMPDEST PUSH32 0xFC13ABAB9EEF7FA87C9BE4BC9806ADA68A2C7A8E79A26B1B3D3204014AEDAA1F DUP2 DUP6 DUP5 DUP2 MLOAD DUP2 LT PUSH2 0x915 JUMPI PUSH2 0x915 PUSH2 0x311A JUMP JUMPDEST PUSH1 0x20 SWAP1 DUP2 MUL SWAP2 SWAP1 SWAP2 ADD DUP2 ADD MLOAD PUSH1 0x0 DUP6 DUP2 MSTORE PUSH1 0x10 DUP4 MSTORE PUSH1 0x40 SWAP1 DUP2 SWAP1 KECCAK256 DUP1 SLOAD PUSH1 0xFF NOT AND PUSH1 0xFF SWAP1 SWAP4 AND SWAP3 DUP4 OR SWAP1 SSTORE DUP1 MLOAD SWAP4 DUP5 MSTORE SWAP2 DUP4 ADD MSTORE ADD PUSH1 0x40 MLOAD DUP1 SWAP2 SUB SWAP1 LOG1 POP PUSH2 0x95C DUP2 PUSH2 0x3146 JUMP JUMPDEST SWAP1 POP PUSH2 0x874 JUMP JUMPDEST POP POP POP POP JUMP JUMPDEST PUSH1 0x0 DUP1 PUSH1 0x14 SLOAD PUSH1 0x0 EQ PUSH2 0x98E JUMPI PUSH1 0x40 MLOAD PUSH3 0x461BCD PUSH1 0xE5 SHL DUP2 MSTORE PUSH1 0x4 ADD PUSH2 0x79F SWAP1 PUSH2 0x3161 JUMP JUMPDEST PUSH1 0x1 PUSH1 0x14 SSTORE PUSH2 0x99D CALLER DUP8 PUSH2 0x15B4 JUMP JUMPDEST SWAP2 POP DUP2 DUP6 GT ISZERO PUSH2 0x9EF JUMPI PUSH1 0x40 MLOAD PUSH3 0x461BCD PUSH1 0xE5 SHL DUP2 MSTORE PUSH1 0x20 PUSH1 0x4 DUP3 ADD MSTORE PUSH1 0x1C PUSH1 0x24 DUP3 ADD MSTORE PUSH32 0x494E53554646494349454E545F414D4F554E545F554E4C4F434B454400000000 PUSH1 0x44 DUP3 ADD MSTORE PUSH1 0x64 ADD PUSH2 0x79F JUMP JUMPDEST PUSH2 0x9FA DUP6 DUP6 DUP6 PUSH2 0x1640 JUMP JUMPDEST SWAP1 POP PUSH1 0x0 PUSH2 0xA08 DUP7 DUP5 PUSH2 0x3181 JUMP JUMPDEST SWAP1 POP DUP1 ISZERO PUSH2 0xA3B JUMPI PUSH2 0xA3B PUSH32 0x0 DUP6 DUP4 PUSH2 0x18DC JUMP JUMPDEST PUSH2 0xA43 PUSH2 0x193F JUMP JUMPDEST POP POP PUSH1 0x0 PUSH1 0x14 SSTORE SWAP1 SWAP6 SWAP1 SWAP5 POP SWAP3 POP POP POP JUMP JUMPDEST PUSH2 0xA5F CALLER DUP3 PUSH2 0x1A07 JUMP JUMPDEST PUSH2 0xA7B JUMPI PUSH1 0x40 MLOAD PUSH3 0x461BCD PUSH1 0xE5 SHL DUP2 MSTORE PUSH1 0x4 ADD PUSH2 0x79F SWAP1 PUSH2 0x3198 JUMP JUMPDEST PUSH2 0x840 DUP4 DUP4 DUP4 PUSH2 0x1A86 JUMP JUMPDEST DUP2 MLOAD PUSH1 0x0 SWAP1 PUSH1 0x1 DUP2 GT PUSH2 0xACC JUMPI PUSH1 0x40 MLOAD PUSH3 0x461BCD PUSH1 0xE5 SHL DUP2 MSTORE PUSH1 0x20 PUSH1 0x4 DUP3 ADD MSTORE PUSH1 0xE PUSH1 0x24 DUP3 ADD MSTORE PUSH14 0x4D494E5F325F544F5F4D45524745 PUSH1 0x90 SHL PUSH1 0x44 DUP3 ADD MSTORE PUSH1 0x64 ADD PUSH2 0x79F JUMP JUMPDEST PUSH1 0x0 DUP1 JUMPDEST DUP3 DUP2 LT ISZERO PUSH2 0xBC1 JUMPI PUSH1 0x0 DUP7 DUP3 DUP2 MLOAD DUP2 LT PUSH2 0xAEC JUMPI PUSH2 0xAEC PUSH2 0x311A JUMP JUMPDEST PUSH1 0x20 MUL PUSH1 0x20 ADD ADD MLOAD SWAP1 POP CALLER PUSH1 0x1 PUSH1 0x1 PUSH1 0xA0 SHL SUB AND PUSH2 0xB09 DUP3 PUSH2 0xDEB JUMP JUMPDEST PUSH1 0x1 PUSH1 0x1 PUSH1 0xA0 SHL SUB AND EQ PUSH2 0xB2F JUMPI PUSH1 0x40 MLOAD PUSH3 0x461BCD PUSH1 0xE5 SHL DUP2 MSTORE PUSH1 0x4 ADD PUSH2 0x79F SWAP1 PUSH2 0x30F7 JUMP JUMPDEST PUSH1 0x0 DUP2 DUP2 MSTORE PUSH1 0xF PUSH1 0x20 MSTORE PUSH1 0x40 SWAP1 KECCAK256 SLOAD PUSH1 0x1 PUSH1 0xB8 SHL SWAP1 DIV PUSH4 0xFFFFFFFF AND ISZERO PUSH2 0xB90 JUMPI PUSH1 0x40 MLOAD PUSH3 0x461BCD PUSH1 0xE5 SHL DUP2 MSTORE PUSH1 0x20 PUSH1 0x4 DUP3 ADD MSTORE PUSH1 0x15 PUSH1 0x24 DUP3 ADD MSTORE PUSH21 0x1413D4D2551253D397D393D517D5539313D0D2D151 PUSH1 0x5A SHL PUSH1 0x44 DUP3 ADD MSTORE PUSH1 0x64 ADD PUSH2 0x79F JUMP JUMPDEST PUSH2 0xB99 DUP2 PUSH2 0x1BF7 JUMP JUMPDEST PUSH2 0xBA3 DUP2 PUSH1 0x80 SHR SWAP1 JUMP JUMPDEST PUSH2 0xBAD SWAP1 DUP5 PUSH2 0x31E5 JUMP JUMPDEST SWAP3 POP POP DUP1 PUSH2 0xBBA SWAP1 PUSH2 0x3146 JUMP JUMPDEST SWAP1 POP PUSH2 0xAD0 JUMP JUMPDEST POP PUSH2 0xBD7 DUP5 PUSH2 0xBCF DUP4 PUSH2 0x1C9A JUMP JUMPDEST SWAP5 POP DUP5 PUSH2 0x1CD0 JUMP JUMPDEST POP POP SWAP3 SWAP2 POP POP JUMP JUMPDEST PUSH1 0x0 PUSH1 0x14 SLOAD PUSH1 0x0 EQ PUSH2 0xC03 JUMPI PUSH1 0x40 MLOAD PUSH3 0x461BCD PUSH1 0xE5 SHL DUP2 MSTORE PUSH1 0x4 ADD PUSH2 0x79F SWAP1 PUSH2 0x3161 JUMP JUMPDEST PUSH1 0x1 PUSH1 0x14 SSTORE PUSH2 0xC12 CALLER DUP5 PUSH2 0x15B4 JUMP JUMPDEST SWAP1 POP PUSH2 0xC3F PUSH32 0x0 DUP4 DUP4 PUSH2 0x18DC JUMP JUMPDEST PUSH2 0xC47 PUSH2 0x193F JUMP JUMPDEST POP PUSH1 0x0 PUSH1 0x14 SSTORE SWAP3 SWAP2 POP POP JUMP JUMPDEST PUSH1 0x0 PUSH2 0xC5E DUP4 PUSH2 0xED9 JUMP JUMPDEST DUP3 LT PUSH2 0xCC0 JUMPI PUSH1 0x40 MLOAD PUSH3 0x461BCD PUSH1 0xE5 SHL DUP2 MSTORE PUSH1 0x20 PUSH1 0x4 DUP3 ADD MSTORE PUSH1 0x2B PUSH1 0x24 DUP3 ADD MSTORE PUSH32 0x455243373231456E756D657261626C653A206F776E657220696E646578206F75 PUSH1 0x44 DUP3 ADD MSTORE PUSH11 0x74206F6620626F756E6473 PUSH1 0xA8 SHL PUSH1 0x64 DUP3 ADD MSTORE PUSH1 0x84 ADD PUSH2 0x79F JUMP JUMPDEST POP PUSH1 0x1 PUSH1 0x1 PUSH1 0xA0 SHL SUB SWAP2 SWAP1 SWAP2 AND PUSH1 0x0 SWAP1 DUP2 MSTORE PUSH1 0x6 PUSH1 0x20 SWAP1 DUP2 MSTORE PUSH1 0x40 DUP1 DUP4 KECCAK256 SWAP4 DUP4 MSTORE SWAP3 SWAP1 MSTORE KECCAK256 SLOAD SWAP1 JUMP JUMPDEST PUSH2 0x840 DUP4 DUP4 DUP4 PUSH1 0x40 MLOAD DUP1 PUSH1 0x20 ADD PUSH1 0x40 MSTORE DUP1 PUSH1 0x0 DUP2 MSTORE POP PUSH2 0x11EE JUMP JUMPDEST PUSH1 0x0 PUSH2 0xD10 DUP4 DUP4 PUSH2 0x1CEA JUMP JUMPDEST SWAP4 SWAP3 POP POP POP JUMP JUMPDEST PUSH1 0x0 PUSH2 0xD22 PUSH1 0x8 SLOAD SWAP1 JUMP JUMPDEST DUP3 LT PUSH2 0xD85 JUMPI PUSH1 0x40 MLOAD PUSH3 0x461BCD PUSH1 0xE5 SHL DUP2 MSTORE PUSH1 0x20 PUSH1 0x4 DUP3 ADD MSTORE PUSH1 0x2C PUSH1 0x24 DUP3 ADD MSTORE PUSH32 0x455243373231456E756D657261626C653A20676C6F62616C20696E646578206F PUSH1 0x44 DUP3 ADD MSTORE PUSH12 0x7574206F6620626F756E6473 PUSH1 0xA0 SHL PUSH1 0x64 DUP3 ADD MSTORE PUSH1 0x84 ADD PUSH2 0x79F JUMP JUMPDEST PUSH1 0x8 DUP3 DUP2 SLOAD DUP2 LT PUSH2 0xD98 JUMPI PUSH2 0xD98 PUSH2 0x311A JUMP JUMPDEST SWAP1 PUSH1 0x0 MSTORE PUSH1 0x20 PUSH1 0x0 KECCAK256 ADD SLOAD SWAP1 POP SWAP2 SWAP1 POP JUMP JUMPDEST PUSH1 0x12 SLOAD PUSH1 0x1 PUSH1 0x1 PUSH1 0xA0 SHL SUB AND CALLER EQ PUSH2 0xDD4 JUMPI PUSH1 0x40 MLOAD PUSH3 0x461BCD PUSH1 0xE5 SHL DUP2 MSTORE PUSH1 0x4 ADD PUSH2 0x79F SWAP1 PUSH2 0x30F7 JUMP JUMPDEST DUP1 MLOAD PUSH2 0xDE7 SWAP1 PUSH1 0x11 SWAP1 PUSH1 0x20 DUP5 ADD SWAP1 PUSH2 0x29E8 JUMP JUMPDEST POP POP JUMP JUMPDEST PUSH1 0x0 DUP2 DUP2 MSTORE PUSH1 0x2 PUSH1 0x20 MSTORE PUSH1 0x40 DUP2 KECCAK256 SLOAD PUSH1 0x1 PUSH1 0x1 PUSH1 0xA0 SHL SUB AND DUP1 PUSH2 0x66B JUMPI PUSH1 0x40 MLOAD PUSH3 0x461BCD PUSH1 0xE5 SHL DUP2 MSTORE PUSH1 0x20 PUSH1 0x4 DUP3 ADD MSTORE PUSH1 0x18 PUSH1 0x24 DUP3 ADD MSTORE PUSH24 0x115490CDCC8C4E881A5B9D985B1A59081D1BDAD95B881251 PUSH1 0x42 SHL PUSH1 0x44 DUP3 ADD MSTORE PUSH1 0x64 ADD PUSH2 0x79F JUMP JUMPDEST PUSH1 0x11 DUP1 SLOAD PUSH2 0xE58 SWAP1 PUSH2 0x30BC JUMP JUMPDEST DUP1 PUSH1 0x1F ADD PUSH1 0x20 DUP1 SWAP2 DIV MUL PUSH1 0x20 ADD PUSH1 0x40 MLOAD SWAP1 DUP2 ADD PUSH1 0x40 MSTORE DUP1 SWAP3 SWAP2 SWAP1 DUP2 DUP2 MSTORE PUSH1 0x20 ADD DUP3 DUP1 SLOAD PUSH2 0xE84 SWAP1 PUSH2 0x30BC JUMP JUMPDEST DUP1 ISZERO PUSH2 0xED1 JUMPI DUP1 PUSH1 0x1F LT PUSH2 0xEA6 JUMPI PUSH2 0x100 DUP1 DUP4 SLOAD DIV MUL DUP4 MSTORE SWAP2 PUSH1 0x20 ADD SWAP2 PUSH2 0xED1 JUMP JUMPDEST DUP3 ADD SWAP2 SWAP1 PUSH1 0x0 MSTORE PUSH1 0x20 PUSH1 0x0 KECCAK256 SWAP1 JUMPDEST DUP2 SLOAD DUP2 MSTORE SWAP1 PUSH1 0x1 ADD SWAP1 PUSH1 0x20 ADD DUP1 DUP4 GT PUSH2 0xEB4 JUMPI DUP3 SWAP1 SUB PUSH1 0x1F AND DUP3 ADD SWAP2 JUMPDEST POP POP POP POP POP DUP2 JUMP JUMPDEST PUSH1 0x0 PUSH1 0x1 PUSH1 0x1 PUSH1 0xA0 SHL SUB DUP3 AND PUSH2 0xF43 JUMPI PUSH1 0x40 MLOAD PUSH3 0x461BCD PUSH1 0xE5 SHL DUP2 MSTORE PUSH1 0x20 PUSH1 0x4 DUP3 ADD MSTORE PUSH1 0x29 PUSH1 0x24 DUP3 ADD MSTORE PUSH32 0x4552433732313A2061646472657373207A65726F206973206E6F742061207661 PUSH1 0x44 DUP3 ADD MSTORE PUSH9 0x3634B21037BBB732B9 PUSH1 0xB9 SHL PUSH1 0x64 DUP3 ADD MSTORE PUSH1 0x84 ADD PUSH2 0x79F JUMP JUMPDEST POP PUSH1 0x1 PUSH1 0x1 PUSH1 0xA0 SHL SUB AND PUSH1 0x0 SWAP1 DUP2 MSTORE PUSH1 0x3 PUSH1 0x20 MSTORE PUSH1 0x40 SWAP1 KECCAK256 SLOAD SWAP1 JUMP JUMPDEST PUSH1 0x12 SLOAD PUSH1 0x1 PUSH1 0x1 PUSH1 0xA0 SHL SUB AND CALLER EQ PUSH2 0xF89 JUMPI PUSH1 0x40 MLOAD PUSH3 0x461BCD PUSH1 0xE5 SHL DUP2 MSTORE PUSH1 0x4 ADD PUSH2 0x79F SWAP1 PUSH2 0x30F7 JUMP JUMPDEST PUSH1 0x13 DUP1 SLOAD PUSH1 0x1 PUSH1 0x1 PUSH1 0xA0 SHL SUB NOT AND PUSH1 0x1 PUSH1 0x1 PUSH1 0xA0 SHL SUB DUP4 DUP2 AND SWAP2 DUP3 OR SWAP1 SWAP3 SSTORE PUSH1 0x12 SLOAD PUSH1 0x40 MLOAD SWAP2 SWAP3 AND SWAP1 PUSH32 0xB51454CE8C7F26BECD312A46C4815553887F2EC876A0B8DC813B87F62EDF6F80 SWAP1 PUSH1 0x0 SWAP1 LOG3 POP JUMP JUMPDEST PUSH1 0x13 SLOAD PUSH1 0x1 PUSH1 0x1 PUSH1 0xA0 SHL SUB AND CALLER EQ PUSH2 0x1029 JUMPI PUSH1 0x40 MLOAD PUSH3 0x461BCD PUSH1 0xE5 SHL DUP2 MSTORE PUSH1 0x20 PUSH1 0x4 DUP3 ADD MSTORE PUSH1 0x11 PUSH1 0x24 DUP3 ADD MSTORE PUSH17 0x2727AA2FA822A72224A723AFA7ABA722A9 PUSH1 0x79 SHL PUSH1 0x44 DUP3 ADD MSTORE PUSH1 0x64 ADD PUSH2 0x79F JUMP JUMPDEST PUSH1 0x12 SLOAD PUSH1 0x40 MLOAD CALLER SWAP2 PUSH1 0x1 PUSH1 0x1 PUSH1 0xA0 SHL SUB AND SWAP1 PUSH32 0x357BDEB5828FA83945F38A88510CE5CD7D628DAFB346D767EFBC693149FDD97C SWAP1 PUSH1 0x0 SWAP1 LOG3 PUSH1 0x12 DUP1 SLOAD PUSH1 0x1 PUSH1 0x1 PUSH1 0xA0 SHL SUB NOT SWAP1 DUP2 AND CALLER OR SWAP1 SWAP2 SSTORE PUSH1 0x13 DUP1 SLOAD SWAP1 SWAP2 AND SWAP1 SSTORE JUMP JUMPDEST PUSH1 0x0 DUP2 DUP2 MSTORE PUSH1 0x2 PUSH1 0x20 MSTORE PUSH1 0x40 DUP2 KECCAK256 SLOAD PUSH1 0x1 PUSH1 0x1 PUSH1 0xA0 SHL SUB AND PUSH2 0x10D0 JUMPI PUSH1 0x40 MLOAD PUSH3 0x461BCD PUSH1 0xE5 SHL DUP2 MSTORE PUSH1 0x20 PUSH1 0x4 DUP3 ADD MSTORE PUSH1 0x8 PUSH1 0x24 DUP3 ADD MSTORE PUSH8 0x2727AFAA27A5A2A7 PUSH1 0xC1 SHL PUSH1 0x44 DUP3 ADD MSTORE PUSH1 0x64 ADD PUSH2 0x79F JUMP JUMPDEST PUSH2 0x66B DUP3 PUSH1 0x80 SHR SWAP1 JUMP JUMPDEST PUSH1 0x60 PUSH1 0x1 DUP1 SLOAD PUSH2 0x680 SWAP1 PUSH2 0x30BC JUMP JUMPDEST PUSH2 0xDE7 CALLER DUP4 DUP4 PUSH2 0x1D20 JUMP JUMPDEST PUSH1 0x0 DUP1 PUSH1 0x14 SLOAD PUSH1 0x0 EQ PUSH2 0x1119 JUMPI PUSH1 0x40 MLOAD PUSH3 0x461BCD PUSH1 0xE5 SHL DUP2 MSTORE PUSH1 0x4 ADD PUSH2 0x79F SWAP1 PUSH2 0x3161 JUMP JUMPDEST PUSH1 0x1 PUSH1 0x14 SSTORE PUSH2 0x99D CALLER DUP8 PUSH2 0x1DEF JUMP JUMPDEST PUSH1 0xE SLOAD DUP1 PUSH2 0x1169 JUMPI PUSH1 0x40 MLOAD PUSH3 0x461BCD PUSH1 0xE5 SHL DUP2 MSTORE PUSH1 0x20 PUSH1 0x4 DUP3 ADD MSTORE PUSH1 0xE PUSH1 0x24 DUP3 ADD MSTORE PUSH14 0x4E4F5F554E49545F535550504C59 PUSH1 0x90 SHL PUSH1 0x44 DUP3 ADD MSTORE PUSH1 0x64 ADD PUSH2 0x79F JUMP JUMPDEST PUSH1 0x0 PUSH2 0x117B PUSH2 0x1176 PUSH2 0x193F JUMP JUMPDEST PUSH2 0x1FA6 JUMP JUMPDEST SWAP1 POP DUP1 PUSH2 0x1186 JUMPI POP POP JUMP JUMPDEST DUP2 PUSH2 0x1195 PUSH1 0x1 PUSH1 0x80 SHL DUP4 PUSH2 0x31FD JUMP JUMPDEST PUSH2 0x119F SWAP2 SWAP1 PUSH2 0x321C JUMP JUMPDEST PUSH1 0xB PUSH1 0x0 DUP3 DUP3 SLOAD PUSH2 0x11B0 SWAP2 SWAP1 PUSH2 0x31E5 JUMP JUMPDEST SWAP1 SWAP2 SSTORE POP POP PUSH1 0x40 MLOAD DUP2 DUP2 MSTORE CALLER SWAP1 PUSH32 0x46749F2362413A5F0F53F7F11249E02052D810C56EAD7BEA2544C4A93A0828EE SWAP1 PUSH1 0x20 ADD PUSH1 0x40 MLOAD DUP1 SWAP2 SUB SWAP1 LOG2 POP POP JUMP JUMPDEST PUSH2 0x11F8 CALLER DUP4 PUSH2 0x1A07 JUMP JUMPDEST PUSH2 0x1214 JUMPI PUSH1 0x40 MLOAD PUSH3 0x461BCD PUSH1 0xE5 SHL DUP2 MSTORE PUSH1 0x4 ADD PUSH2 0x79F SWAP1 PUSH2 0x3198 JUMP JUMPDEST PUSH2 0x963 DUP5 DUP5 DUP5 DUP5 PUSH2 0x1FBC JUMP JUMPDEST PUSH1 0x0 DUP2 DUP2 MSTORE PUSH1 0x2 PUSH1 0x20 MSTORE PUSH1 0x40 SWAP1 KECCAK256 SLOAD PUSH1 0x60 SWAP1 PUSH1 0x1 PUSH1 0x1 PUSH1 0xA0 SHL SUB AND PUSH2 0x1272 JUMPI PUSH1 0x40 MLOAD PUSH3 0x461BCD PUSH1 0xE5 SHL DUP2 MSTORE PUSH1 0x20 PUSH1 0x4 DUP3 ADD MSTORE PUSH1 0x8 PUSH1 0x24 DUP3 ADD MSTORE PUSH8 0x2727AFAA27A5A2A7 PUSH1 0xC1 SHL PUSH1 0x44 DUP3 ADD MSTORE PUSH1 0x64 ADD PUSH2 0x79F JUMP JUMPDEST PUSH1 0x11 PUSH2 0x127D DUP4 PUSH2 0x1FEF JUMP JUMPDEST PUSH1 0x40 MLOAD PUSH1 0x20 ADD PUSH2 0x128E SWAP3 SWAP2 SWAP1 PUSH2 0x325A JUMP JUMPDEST PUSH1 0x40 MLOAD PUSH1 0x20 DUP2 DUP4 SUB SUB DUP2 MSTORE SWAP1 PUSH1 0x40 MSTORE SWAP1 POP SWAP2 SWAP1 POP JUMP JUMPDEST PUSH1 0x0 PUSH1 0x14 SLOAD PUSH1 0x0 EQ PUSH2 0x12C8 JUMPI PUSH1 0x40 MLOAD PUSH3 0x461BCD PUSH1 0xE5 SHL DUP2 MSTORE PUSH1 0x4 ADD PUSH2 0x79F SWAP1 PUSH2 0x3161 JUMP JUMPDEST PUSH1 0x1 PUSH1 0x14 SSTORE PUSH1 0x40 MLOAD PUSH4 0xD505ACCF PUSH1 0xE0 SHL DUP2 MSTORE CALLER PUSH1 0x4 DUP3 ADD MSTORE ADDRESS PUSH1 0x24 DUP3 ADD MSTORE PUSH1 0x44 DUP2 ADD DUP10 SWAP1 MSTORE PUSH1 0x64 DUP2 ADD DUP7 SWAP1 MSTORE PUSH1 0xFF DUP6 AND PUSH1 0x84 DUP3 ADD MSTORE PUSH1 0xA4 DUP2 ADD DUP5 SWAP1 MSTORE PUSH1 0xC4 DUP2 ADD DUP4 SWAP1 MSTORE PUSH32 0x0 PUSH1 0x1 PUSH1 0x1 PUSH1 0xA0 SHL SUB AND SWAP1 PUSH4 0xD505ACCF SWAP1 PUSH1 0xE4 ADD PUSH1 0x0 PUSH1 0x40 MLOAD DUP1 DUP4 SUB DUP2 PUSH1 0x0 DUP8 DUP1 EXTCODESIZE ISZERO DUP1 ISZERO PUSH2 0x1359 JUMPI PUSH1 0x0 DUP1 REVERT JUMPDEST POP GAS CALL ISZERO DUP1 ISZERO PUSH2 0x136D JUMPI RETURNDATASIZE PUSH1 0x0 DUP1 RETURNDATACOPY RETURNDATASIZE PUSH1 0x0 REVERT JUMPDEST POP POP POP POP PUSH2 0x139D PUSH32 0x0 CALLER ADDRESS DUP12 PUSH2 0x208C JUMP JUMPDEST PUSH2 0x13A8 DUP9 DUP9 DUP9 PUSH2 0x1640 JUMP JUMPDEST PUSH1 0x0 PUSH1 0x14 SSTORE SWAP9 SWAP8 POP POP POP POP POP POP POP POP JUMP JUMPDEST PUSH1 0x0 DUP2 DUP2 MSTORE PUSH1 0xF PUSH1 0x20 MSTORE PUSH1 0x40 DUP2 KECCAK256 DUP1 SLOAD PUSH1 0x1 DUP3 ADD SLOAD PUSH2 0xD10 SWAP2 PUSH1 0x1 PUSH1 0x1 PUSH1 0x60 SHL SUB DUP2 AND SWAP2 PUSH1 0x1 PUSH1 0x60 SHL SWAP1 SWAP2 DIV PUSH1 0x1 PUSH1 0x1 PUSH1 0x58 SHL SUB AND SWAP1 PUSH2 0x20C4 JUMP JUMPDEST PUSH1 0x0 PUSH1 0x14 SLOAD PUSH1 0x0 EQ PUSH2 0x1418 JUMPI PUSH1 0x40 MLOAD PUSH3 0x461BCD PUSH1 0xE5 SHL DUP2 MSTORE PUSH1 0x4 ADD PUSH2 0x79F SWAP1 PUSH2 0x3161 JUMP JUMPDEST PUSH1 0x1 PUSH1 0x14 SSTORE PUSH2 0x1449 PUSH32 0x0 CALLER ADDRESS DUP8 PUSH2 0x208C JUMP JUMPDEST PUSH2 0x1454 DUP5 DUP5 DUP5 PUSH2 0x1640 JUMP JUMPDEST PUSH1 0x0 PUSH1 0x14 SSTORE SWAP5 SWAP4 POP POP POP POP JUMP JUMPDEST PUSH1 0x0 PUSH1 0x14 SLOAD PUSH1 0x0 EQ PUSH2 0x1485 JUMPI PUSH1 0x40 MLOAD PUSH3 0x461BCD PUSH1 0xE5 SHL DUP2 MSTORE PUSH1 0x4 ADD PUSH2 0x79F SWAP1 PUSH2 0x3161 JUMP JUMPDEST PUSH1 0x1 PUSH1 0x14 SSTORE PUSH2 0xC12 CALLER DUP5 PUSH2 0x1DEF JUMP JUMPDEST PUSH1 0x0 PUSH1 0x1 PUSH1 0x1 PUSH1 0xE0 SHL SUB NOT DUP3 AND PUSH4 0x80AC58CD PUSH1 0xE0 SHL EQ DUP1 PUSH2 0x14C5 JUMPI POP PUSH1 0x1 PUSH1 0x1 PUSH1 0xE0 SHL SUB NOT DUP3 AND PUSH4 0x5B5E139F PUSH1 0xE0 SHL EQ JUMPDEST DUP1 PUSH2 0x66B JUMPI POP PUSH4 0x1FFC9A7 PUSH1 0xE0 SHL PUSH1 0x1 PUSH1 0x1 PUSH1 0xE0 SHL SUB NOT DUP4 AND EQ PUSH2 0x66B JUMP JUMPDEST PUSH1 0x0 DUP2 DUP2 MSTORE PUSH1 0x2 PUSH1 0x20 MSTORE PUSH1 0x40 SWAP1 KECCAK256 SLOAD PUSH1 0x1 PUSH1 0x1 PUSH1 0xA0 SHL SUB AND PUSH2 0x1543 JUMPI PUSH1 0x40 MLOAD PUSH3 0x461BCD PUSH1 0xE5 SHL DUP2 MSTORE PUSH1 0x20 PUSH1 0x4 DUP3 ADD MSTORE PUSH1 0x18 PUSH1 0x24 DUP3 ADD MSTORE PUSH24 0x115490CDCC8C4E881A5B9D985B1A59081D1BDAD95B881251 PUSH1 0x42 SHL PUSH1 0x44 DUP3 ADD MSTORE PUSH1 0x64 ADD PUSH2 0x79F JUMP JUMPDEST POP JUMP JUMPDEST PUSH1 0x0 DUP2 DUP2 MSTORE PUSH1 0x4 PUSH1 0x20 MSTORE PUSH1 0x40 SWAP1 KECCAK256 DUP1 SLOAD PUSH1 0x1 PUSH1 0x1 PUSH1 0xA0 SHL SUB NOT AND PUSH1 0x1 PUSH1 0x1 PUSH1 0xA0 SHL SUB DUP5 AND SWAP1 DUP2 OR SWAP1 SWAP2 SSTORE DUP2 SWAP1 PUSH2 0x157B DUP3 PUSH2 0xDEB JUMP JUMPDEST PUSH1 0x1 PUSH1 0x1 PUSH1 0xA0 SHL SUB AND PUSH32 0x8C5BE1E5EBEC7D5BD14F71427D1E84F3DD0314C0F7B2291E5B200AC8C7C3B925 PUSH1 0x40 MLOAD PUSH1 0x40 MLOAD DUP1 SWAP2 SUB SWAP1 LOG4 POP POP JUMP JUMPDEST DUP1 MLOAD PUSH1 0x0 SWAP1 PUSH1 0x1 DUP2 GT PUSH2 0x15F6 JUMPI PUSH1 0x40 MLOAD PUSH3 0x461BCD PUSH1 0xE5 SHL DUP2 MSTORE PUSH1 0x20 PUSH1 0x4 DUP3 ADD MSTORE PUSH1 0xA PUSH1 0x24 DUP3 ADD MSTORE PUSH10 0x5553455F554E4C4F434B PUSH1 0xB0 SHL PUSH1 0x44 DUP3 ADD MSTORE PUSH1 0x64 ADD PUSH2 0x79F JUMP JUMPDEST PUSH1 0x0 JUMPDEST DUP2 DUP2 LT ISZERO PUSH2 0xBD7 JUMPI PUSH2 0x1624 DUP6 DUP6 DUP4 DUP2 MLOAD DUP2 LT PUSH2 0x1617 JUMPI PUSH2 0x1617 PUSH2 0x311A JUMP JUMPDEST PUSH1 0x20 MUL PUSH1 0x20 ADD ADD MLOAD PUSH2 0x1DEF JUMP JUMPDEST PUSH2 0x162E SWAP1 DUP5 PUSH2 0x31E5 JUMP JUMPDEST SWAP3 POP PUSH2 0x1639 DUP2 PUSH2 0x3146 JUMP JUMPDEST SWAP1 POP PUSH2 0x15F9 JUMP JUMPDEST PUSH1 0x0 DUP4 ISZERO DUP1 ISZERO SWAP1 PUSH2 0x165C JUMPI POP PUSH1 0xA SLOAD PUSH1 0x1 PUSH1 0x1 PUSH1 0x58 SHL SUB AND DUP5 GT ISZERO JUMPDEST PUSH2 0x1699 JUMPI PUSH1 0x40 MLOAD PUSH3 0x461BCD PUSH1 0xE5 SHL DUP2 MSTORE PUSH1 0x20 PUSH1 0x4 DUP3 ADD MSTORE PUSH1 0xE PUSH1 0x24 DUP3 ADD MSTORE PUSH14 0x1253959053125117D05353D55395 PUSH1 0x92 SHL PUSH1 0x44 DUP3 ADD MSTORE PUSH1 0x64 ADD PUSH2 0x79F JUMP JUMPDEST PUSH1 0x0 DUP4 DUP2 MSTORE PUSH1 0x10 PUSH1 0x20 MSTORE PUSH1 0x40 SWAP1 KECCAK256 SLOAD PUSH1 0xFF AND DUP1 PUSH2 0x16EB JUMPI PUSH1 0x40 MLOAD PUSH3 0x461BCD PUSH1 0xE5 SHL DUP2 MSTORE PUSH1 0x20 PUSH1 0x4 DUP3 ADD MSTORE PUSH1 0x10 PUSH1 0x24 DUP3 ADD MSTORE PUSH16 0x24A72B20A624A22FA22AA920AA24A7A7 PUSH1 0x81 SHL PUSH1 0x44 DUP3 ADD MSTORE PUSH1 0x64 ADD PUSH2 0x79F JUMP JUMPDEST PUSH2 0x1709 DUP4 PUSH2 0x1701 PUSH2 0x16FC DUP9 DUP9 PUSH2 0x1CEA JUMP JUMPDEST PUSH2 0x1C9A JUMP JUMPDEST SWAP4 POP DUP4 PUSH2 0x1CD0 JUMP JUMPDEST DUP5 PUSH1 0xD PUSH1 0x0 DUP3 DUP3 SLOAD PUSH2 0x171B SWAP2 SWAP1 PUSH2 0x31E5 JUMP JUMPDEST SWAP1 SWAP2 SSTORE POP PUSH1 0x0 SWAP1 POP PUSH1 0x64 PUSH2 0x1732 PUSH1 0xFF DUP5 AND DUP9 PUSH2 0x31FD JUMP JUMPDEST PUSH2 0x173C SWAP2 SWAP1 PUSH2 0x321C JUMP JUMPDEST SWAP1 POP DUP1 PUSH1 0x1 PUSH1 0x1 PUSH1 0x60 SHL SUB AND PUSH1 0xE PUSH1 0x0 DUP3 DUP3 SLOAD PUSH2 0x1759 SWAP2 SWAP1 PUSH2 0x31E5 JUMP JUMPDEST SWAP1 SWAP2 SSTORE POP POP PUSH1 0x40 DUP1 MLOAD PUSH1 0xC0 DUP2 ADD DUP3 MSTORE PUSH1 0x1 PUSH1 0x1 PUSH1 0x60 SHL SUB DUP4 AND DUP2 MSTORE PUSH1 0x1 PUSH1 0x1 PUSH1 0x58 SHL SUB DUP9 AND PUSH1 0x20 DUP3 ADD MSTORE SWAP1 DUP2 ADD PUSH2 0x1790 DUP8 TIMESTAMP PUSH2 0x31E5 JUMP JUMPDEST PUSH4 0xFFFFFFFF AND DUP2 MSTORE PUSH1 0x20 ADD TIMESTAMP PUSH4 0xFFFFFFFF AND DUP2 MSTORE PUSH1 0x20 ADD DUP4 PUSH1 0xFF AND DUP2 MSTORE PUSH1 0x20 ADD PUSH2 0x17CF DUP4 PUSH1 0x1 PUSH1 0x1 PUSH1 0x60 SHL SUB AND PUSH1 0xB SLOAD PUSH2 0x17CA SWAP2 SWAP1 PUSH2 0x31FD JUMP JUMPDEST PUSH2 0x2111 JUMP JUMPDEST PUSH2 0x17D8 SWAP1 PUSH2 0x3301 JUMP JUMPDEST SWAP1 MSTORE PUSH1 0x0 DUP5 DUP2 MSTORE PUSH1 0xF PUSH1 0x20 SWAP1 DUP2 MSTORE PUSH1 0x40 SWAP2 DUP3 SWAP1 KECCAK256 DUP4 MLOAD DUP2 SLOAD DUP6 DUP5 ADD MLOAD DUP7 DUP7 ADD MLOAD PUSH1 0x60 DUP9 ADD MLOAD PUSH1 0x80 DUP10 ADD MLOAD PUSH1 0x1 PUSH1 0x1 PUSH1 0x60 SHL SUB SWAP1 SWAP6 AND PUSH1 0x1 PUSH1 0x1 PUSH1 0xB8 SHL SUB NOT SWAP1 SWAP5 AND SWAP4 SWAP1 SWAP4 OR PUSH1 0x1 PUSH1 0x60 SHL PUSH1 0x1 PUSH1 0x1 PUSH1 0x58 SHL SUB SWAP1 SWAP4 AND SWAP3 SWAP1 SWAP3 MUL SWAP2 SWAP1 SWAP2 OR PUSH8 0xFFFFFFFFFFFFFFFF PUSH1 0xB8 SHL NOT AND PUSH1 0x1 PUSH1 0xB8 SHL PUSH4 0xFFFFFFFF SWAP3 DUP4 AND MUL PUSH4 0xFFFFFFFF PUSH1 0xD8 SHL NOT AND OR PUSH1 0x1 PUSH1 0xD8 SHL SWAP2 SWAP1 SWAP3 AND MUL OR PUSH1 0x1 PUSH1 0x1 PUSH1 0xF8 SHL SUB AND PUSH1 0x1 PUSH1 0xF8 SHL PUSH1 0xFF SWAP1 SWAP3 AND SWAP2 SWAP1 SWAP2 MUL OR DUP2 SSTORE PUSH1 0xA0 SWAP1 SWAP4 ADD MLOAD PUSH1 0x1 SWAP1 SWAP4 ADD SWAP3 SWAP1 SWAP3 SSTORE DUP1 MLOAD DUP9 DUP2 MSTORE SWAP2 DUP3 ADD DUP8 SWAP1 MSTORE PUSH1 0x1 PUSH1 0x1 PUSH1 0xA0 SHL SUB DUP7 AND SWAP2 DUP6 SWAP2 PUSH32 0x90CB42F510CE5C0169B63666274740C2E6D975A476C3758664F3795699FC654E SWAP2 ADD PUSH1 0x40 MLOAD DUP1 SWAP2 SUB SWAP1 LOG3 POP POP SWAP4 SWAP3 POP POP POP JUMP JUMPDEST PUSH1 0x40 MLOAD PUSH1 0x1 PUSH1 0x1 PUSH1 0xA0 SHL SUB DUP4 AND PUSH1 0x24 DUP3 ADD MSTORE PUSH1 0x44 DUP2 ADD DUP3 SWAP1 MSTORE PUSH2 0x840 SWAP1 DUP5 SWAP1 PUSH4 0xA9059CBB PUSH1 0xE0 SHL SWAP1 PUSH1 0x64 ADD JUMPDEST PUSH1 0x40 DUP1 MLOAD PUSH1 0x1F NOT DUP2 DUP5 SUB ADD DUP2 MSTORE SWAP2 SWAP1 MSTORE PUSH1 0x20 DUP2 ADD DUP1 MLOAD PUSH1 0x1 PUSH1 0x1 PUSH1 0xE0 SHL SUB AND PUSH1 0x1 PUSH1 0x1 PUSH1 0xE0 SHL SUB NOT SWAP1 SWAP4 AND SWAP3 SWAP1 SWAP3 OR SWAP1 SWAP2 MSTORE PUSH2 0x2128 JUMP JUMPDEST PUSH1 0xC SLOAD PUSH1 0xD SLOAD PUSH1 0x40 MLOAD PUSH4 0x70A08231 PUSH1 0xE0 SHL DUP2 MSTORE ADDRESS PUSH1 0x4 DUP3 ADD MSTORE PUSH1 0x0 SWAP3 SWAP2 DUP4 SWAP2 PUSH32 0x0 PUSH1 0x1 PUSH1 0x1 PUSH1 0xA0 SHL SUB AND SWAP1 PUSH4 0x70A08231 SWAP1 PUSH1 0x24 ADD PUSH1 0x20 PUSH1 0x40 MLOAD DUP1 DUP4 SUB DUP2 DUP7 GAS STATICCALL ISZERO DUP1 ISZERO PUSH2 0x19AF JUMPI RETURNDATASIZE PUSH1 0x0 DUP1 RETURNDATACOPY RETURNDATASIZE PUSH1 0x0 REVERT JUMPDEST POP POP POP POP PUSH1 0x40 MLOAD RETURNDATASIZE PUSH1 0x1F NOT PUSH1 0x1F DUP3 ADD AND DUP3 ADD DUP1 PUSH1 0x40 MSTORE POP DUP2 ADD SWAP1 PUSH2 0x19D3 SWAP2 SWAP1 PUSH2 0x331E JUMP JUMPDEST PUSH2 0x19DD SWAP2 SWAP1 PUSH2 0x3181 JUMP JUMPDEST PUSH1 0xC DUP2 SWAP1 SSTORE SWAP1 POP PUSH2 0x19ED DUP3 PUSH2 0x2111 JUMP JUMPDEST PUSH2 0x19F6 DUP3 PUSH2 0x2111 JUMP JUMPDEST PUSH2 0x1A00 SWAP2 SWAP1 PUSH2 0x3337 JUMP JUMPDEST SWAP3 POP POP POP SWAP1 JUMP JUMPDEST PUSH1 0x0 DUP1 PUSH2 0x1A13 DUP4 PUSH2 0xDEB JUMP JUMPDEST SWAP1 POP DUP1 PUSH1 0x1 PUSH1 0x1 PUSH1 0xA0 SHL SUB AND DUP5 PUSH1 0x1 PUSH1 0x1 PUSH1 0xA0 SHL SUB AND EQ DUP1 PUSH2 0x1A5A JUMPI POP PUSH1 0x1 PUSH1 0x1 PUSH1 0xA0 SHL SUB DUP1 DUP3 AND PUSH1 0x0 SWAP1 DUP2 MSTORE PUSH1 0x5 PUSH1 0x20 SWAP1 DUP2 MSTORE PUSH1 0x40 DUP1 DUP4 KECCAK256 SWAP4 DUP9 AND DUP4 MSTORE SWAP3 SWAP1 MSTORE KECCAK256 SLOAD PUSH1 0xFF AND JUMPDEST DUP1 PUSH2 0x1A7E JUMPI POP DUP4 PUSH1 0x1 PUSH1 0x1 PUSH1 0xA0 SHL SUB AND PUSH2 0x1A73 DUP5 PUSH2 0x703 JUMP JUMPDEST PUSH1 0x1 PUSH1 0x1 PUSH1 0xA0 SHL SUB AND EQ JUMPDEST SWAP5 SWAP4 POP POP POP POP JUMP JUMPDEST DUP3 PUSH1 0x1 PUSH1 0x1 PUSH1 0xA0 SHL SUB AND PUSH2 0x1A99 DUP3 PUSH2 0xDEB JUMP JUMPDEST PUSH1 0x1 PUSH1 0x1 PUSH1 0xA0 SHL SUB AND EQ PUSH2 0x1ABF JUMPI PUSH1 0x40 MLOAD PUSH3 0x461BCD PUSH1 0xE5 SHL DUP2 MSTORE PUSH1 0x4 ADD PUSH2 0x79F SWAP1 PUSH2 0x3376 JUMP JUMPDEST PUSH1 0x1 PUSH1 0x1 PUSH1 0xA0 SHL SUB DUP3 AND PUSH2 0x1B21 JUMPI PUSH1 0x40 MLOAD PUSH3 0x461BCD PUSH1 0xE5 SHL DUP2 MSTORE PUSH1 0x20 PUSH1 0x4 DUP3 ADD MSTORE PUSH1 0x24 DUP1 DUP3 ADD MSTORE PUSH32 0x4552433732313A207472616E7366657220746F20746865207A65726F20616464 PUSH1 0x44 DUP3 ADD MSTORE PUSH4 0x72657373 PUSH1 0xE0 SHL PUSH1 0x64 DUP3 ADD MSTORE PUSH1 0x84 ADD PUSH2 0x79F JUMP JUMPDEST PUSH2 0x1B2E DUP4 DUP4 DUP4 PUSH1 0x1 PUSH2 0x21FD JUMP JUMPDEST DUP3 PUSH1 0x1 PUSH1 0x1 PUSH1 0xA0 SHL SUB AND PUSH2 0x1B41 DUP3 PUSH2 0xDEB JUMP JUMPDEST PUSH1 0x1 PUSH1 0x1 PUSH1 0xA0 SHL SUB AND EQ PUSH2 0x1B67 JUMPI PUSH1 0x40 MLOAD PUSH3 0x461BCD PUSH1 0xE5 SHL DUP2 MSTORE PUSH1 0x4 ADD PUSH2 0x79F SWAP1 PUSH2 0x3376 JUMP JUMPDEST PUSH1 0x0 DUP2 DUP2 MSTORE PUSH1 0x4 PUSH1 0x20 SWAP1 DUP2 MSTORE PUSH1 0x40 DUP1 DUP4 KECCAK256 DUP1 SLOAD PUSH1 0x1 PUSH1 0x1 PUSH1 0xA0 SHL SUB NOT SWAP1 DUP2 AND SWAP1 SWAP2 SSTORE PUSH1 0x1 PUSH1 0x1 PUSH1 0xA0 SHL SUB DUP8 DUP2 AND DUP1 DUP7 MSTORE PUSH1 0x3 DUP6 MSTORE DUP4 DUP7 KECCAK256 DUP1 SLOAD PUSH1 0x0 NOT ADD SWAP1 SSTORE SWAP1 DUP8 AND DUP1 DUP7 MSTORE DUP4 DUP7 KECCAK256 DUP1 SLOAD PUSH1 0x1 ADD SWAP1 SSTORE DUP7 DUP7 MSTORE PUSH1 0x2 SWAP1 SWAP5 MSTORE DUP3 DUP6 KECCAK256 DUP1 SLOAD SWAP1 SWAP3 AND DUP5 OR SWAP1 SWAP2 SSTORE SWAP1 MLOAD DUP5 SWAP4 PUSH32 0xDDF252AD1BE2C89B69C2B068FC378DAA952BA7F163C4A11628F55A4DF523B3EF SWAP2 LOG4 POP POP POP JUMP JUMPDEST PUSH1 0x0 PUSH2 0x1C02 DUP3 PUSH2 0xDEB JUMP JUMPDEST SWAP1 POP PUSH2 0x1C12 DUP2 PUSH1 0x0 DUP5 PUSH1 0x1 PUSH2 0x21FD JUMP JUMPDEST PUSH2 0x1C1B DUP3 PUSH2 0xDEB JUMP JUMPDEST PUSH1 0x0 DUP4 DUP2 MSTORE PUSH1 0x4 PUSH1 0x20 SWAP1 DUP2 MSTORE PUSH1 0x40 DUP1 DUP4 KECCAK256 DUP1 SLOAD PUSH1 0x1 PUSH1 0x1 PUSH1 0xA0 SHL SUB NOT SWAP1 DUP2 AND SWAP1 SWAP2 SSTORE PUSH1 0x1 PUSH1 0x1 PUSH1 0xA0 SHL SUB DUP6 AND DUP1 DUP6 MSTORE PUSH1 0x3 DUP5 MSTORE DUP3 DUP6 KECCAK256 DUP1 SLOAD PUSH1 0x0 NOT ADD SWAP1 SSTORE DUP8 DUP6 MSTORE PUSH1 0x2 SWAP1 SWAP4 MSTORE DUP2 DUP5 KECCAK256 DUP1 SLOAD SWAP1 SWAP2 AND SWAP1 SSTORE MLOAD SWAP3 SWAP4 POP DUP5 SWAP3 PUSH32 0xDDF252AD1BE2C89B69C2B068FC378DAA952BA7F163C4A11628F55A4DF523B3EF SWAP1 DUP4 SWAP1 LOG4 POP POP JUMP JUMPDEST PUSH1 0x0 PUSH2 0x1CA5 PUSH1 0x8 SLOAD SWAP1 JUMP JUMPDEST PUSH2 0x1CB0 SWAP1 PUSH1 0x1 PUSH2 0x31E5 JUMP JUMPDEST PUSH2 0x66B SWAP1 PUSH16 0xFFFFFFFFFFFFFFFFFFFFFFFFFFFFFFFF AND PUSH1 0x80 DUP5 SWAP1 SHL PUSH2 0x31E5 JUMP JUMPDEST PUSH2 0xDE7 DUP3 DUP3 PUSH1 0x40 MLOAD DUP1 PUSH1 0x20 ADD PUSH1 0x40 MSTORE DUP1 PUSH1 0x0 DUP2 MSTORE POP PUSH2 0x2331 JUMP JUMPDEST PUSH1 0x0 PUSH2 0x1D16 PUSH32 0x0 DUP4 PUSH2 0x31E5 JUMP JUMPDEST PUSH2 0xD10 SWAP1 DUP5 PUSH2 0x31FD JUMP JUMPDEST DUP2 PUSH1 0x1 PUSH1 0x1 PUSH1 0xA0 SHL SUB AND DUP4 PUSH1 0x1 PUSH1 0x1 PUSH1 0xA0 SHL SUB AND EQ ISZERO PUSH2 0x1D82 JUMPI PUSH1 0x40 MLOAD PUSH3 0x461BCD PUSH1 0xE5 SHL DUP2 MSTORE PUSH1 0x20 PUSH1 0x4 DUP3 ADD MSTORE PUSH1 0x19 PUSH1 0x24 DUP3 ADD MSTORE PUSH32 0x4552433732313A20617070726F766520746F2063616C6C657200000000000000 PUSH1 0x44 DUP3 ADD MSTORE PUSH1 0x64 ADD PUSH2 0x79F JUMP JUMPDEST PUSH1 0x1 PUSH1 0x1 PUSH1 0xA0 SHL SUB DUP4 DUP2 AND PUSH1 0x0 DUP2 DUP2 MSTORE PUSH1 0x5 PUSH1 0x20 SWAP1 DUP2 MSTORE PUSH1 0x40 DUP1 DUP4 KECCAK256 SWAP5 DUP8 AND DUP1 DUP5 MSTORE SWAP5 DUP3 MSTORE SWAP2 DUP3 SWAP1 KECCAK256 DUP1 SLOAD PUSH1 0xFF NOT AND DUP7 ISZERO ISZERO SWAP1 DUP2 OR SWAP1 SWAP2 SSTORE SWAP2 MLOAD SWAP2 DUP3 MSTORE PUSH32 0x17307EAB39AB6107E8899845AD3D59BD9653F200F220920489CA2B5937696C31 SWAP2 ADD PUSH1 0x40 MLOAD DUP1 SWAP2 SUB SWAP1 LOG3 POP POP POP JUMP JUMPDEST PUSH1 0x0 DUP3 PUSH1 0x1 PUSH1 0x1 PUSH1 0xA0 SHL SUB AND PUSH2 0x1E04 DUP4 PUSH2 0xDEB JUMP JUMPDEST PUSH1 0x1 PUSH1 0x1 PUSH1 0xA0 SHL SUB AND EQ PUSH2 0x1E2A JUMPI PUSH1 0x40 MLOAD PUSH3 0x461BCD PUSH1 0xE5 SHL DUP2 MSTORE PUSH1 0x4 ADD PUSH2 0x79F SWAP1 PUSH2 0x30F7 JUMP JUMPDEST PUSH1 0x0 DUP3 DUP2 MSTORE PUSH1 0xF PUSH1 0x20 MSTORE PUSH1 0x40 SWAP1 KECCAK256 DUP1 SLOAD PUSH1 0x1 PUSH1 0x1 PUSH1 0x60 SHL SUB DUP2 AND SWAP1 PUSH1 0x1 PUSH1 0x60 SHL DUP2 DIV PUSH1 0x1 PUSH1 0x1 PUSH1 0x58 SHL SUB AND SWAP1 PUSH1 0x1 PUSH1 0xB8 SHL SWAP1 DIV PUSH4 0xFFFFFFFF AND DUP1 PUSH2 0x1EA5 JUMPI PUSH1 0x40 MLOAD PUSH3 0x461BCD PUSH1 0xE5 SHL DUP2 MSTORE PUSH1 0x20 PUSH1 0x4 DUP3 ADD MSTORE PUSH1 0x12 PUSH1 0x24 DUP3 ADD MSTORE PUSH18 0x2727AFA627A1A5A2A22FA827A9A4AA24A7A7 PUSH1 0x71 SHL PUSH1 0x44 DUP3 ADD MSTORE PUSH1 0x64 ADD PUSH2 0x79F JUMP JUMPDEST DUP1 PUSH4 0xFFFFFFFF AND TIMESTAMP LT ISZERO PUSH2 0x1EEB JUMPI PUSH1 0x40 MLOAD PUSH3 0x461BCD PUSH1 0xE5 SHL DUP2 MSTORE PUSH1 0x20 PUSH1 0x4 DUP3 ADD MSTORE PUSH1 0xD PUSH1 0x24 DUP3 ADD MSTORE PUSH13 0x43414E4E4F545F554E4C4F434B PUSH1 0x98 SHL PUSH1 0x44 DUP3 ADD MSTORE PUSH1 0x64 ADD PUSH2 0x79F JUMP JUMPDEST PUSH2 0x1EFA DUP4 DUP4 DUP7 PUSH1 0x1 ADD SLOAD PUSH2 0x20C4 JUMP JUMPDEST SWAP5 POP DUP2 PUSH1 0x1 PUSH1 0x1 PUSH1 0x58 SHL SUB AND PUSH1 0xD PUSH1 0x0 DUP3 DUP3 SLOAD PUSH2 0x1F17 SWAP2 SWAP1 PUSH2 0x3181 JUMP JUMPDEST SWAP3 POP POP DUP2 SWAP1 SSTORE POP DUP3 PUSH1 0x1 PUSH1 0x1 PUSH1 0x60 SHL SUB AND PUSH1 0xE PUSH1 0x0 DUP3 DUP3 SLOAD PUSH2 0x1F39 SWAP2 SWAP1 PUSH2 0x3181 JUMP JUMPDEST SWAP1 SWAP2 SSTORE POP POP PUSH1 0x0 DUP7 DUP2 MSTORE PUSH1 0xF PUSH1 0x20 MSTORE PUSH1 0x40 DUP1 DUP3 KECCAK256 DUP3 DUP2 SSTORE PUSH1 0x1 ADD SWAP2 SWAP1 SWAP2 SSTORE MLOAD PUSH1 0x1 PUSH1 0x1 PUSH1 0xA0 SHL SUB DUP9 AND SWAP1 DUP8 SWAP1 PUSH32 0xACE2274EFDCECC9282116630E8CB1C7F6156CA3CB8F3FDE20C4C3D3FE6467042 SWAP1 PUSH2 0x1F94 SWAP1 DUP10 DUP2 MSTORE PUSH1 0x20 ADD SWAP1 JUMP JUMPDEST PUSH1 0x40 MLOAD DUP1 SWAP2 SUB SWAP1 LOG3 POP POP POP POP SWAP3 SWAP2 POP POP JUMP JUMPDEST PUSH1 0x0 DUP1 DUP3 SLT ISZERO PUSH2 0x1FB8 JUMPI PUSH2 0x1FB8 PUSH2 0x33BB JUMP JUMPDEST POP SWAP1 JUMP JUMPDEST PUSH2 0x1FC7 DUP5 DUP5 DUP5 PUSH2 0x1A86 JUMP JUMPDEST PUSH2 0x1FD3 DUP5 DUP5 DUP5 DUP5 PUSH2 0x2364 JUMP JUMPDEST PUSH2 0x963 JUMPI PUSH1 0x40 MLOAD PUSH3 0x461BCD PUSH1 0xE5 SHL DUP2 MSTORE PUSH1 0x4 ADD PUSH2 0x79F SWAP1 PUSH2 0x33D1 JUMP JUMPDEST PUSH1 0x60 PUSH1 0x0 PUSH2 0x1FFC DUP4 PUSH2 0x2462 JUMP JUMPDEST PUSH1 0x1 ADD SWAP1 POP PUSH1 0x0 DUP2 PUSH8 0xFFFFFFFFFFFFFFFF DUP2 GT ISZERO PUSH2 0x201C JUMPI PUSH2 0x201C PUSH2 0x2B70 JUMP JUMPDEST PUSH1 0x40 MLOAD SWAP1 DUP1 DUP3 MSTORE DUP1 PUSH1 0x1F ADD PUSH1 0x1F NOT AND PUSH1 0x20 ADD DUP3 ADD PUSH1 0x40 MSTORE DUP1 ISZERO PUSH2 0x2046 JUMPI PUSH1 0x20 DUP3 ADD DUP2 DUP1 CALLDATASIZE DUP4 CALLDATACOPY ADD SWAP1 POP JUMPDEST POP SWAP1 POP DUP2 DUP2 ADD PUSH1 0x20 ADD JUMPDEST PUSH1 0x0 NOT ADD PUSH16 0x181899199A1A9B1B9C1CB0B131B232B3 PUSH1 0x81 SHL PUSH1 0xA DUP7 MOD BYTE DUP2 MSTORE8 PUSH1 0xA DUP6 DIV SWAP5 POP DUP5 PUSH2 0x207F JUMPI PUSH2 0x2084 JUMP JUMPDEST PUSH2 0x2050 JUMP JUMPDEST POP SWAP4 SWAP3 POP POP POP JUMP JUMPDEST PUSH1 0x40 MLOAD PUSH1 0x1 PUSH1 0x1 PUSH1 0xA0 SHL SUB DUP1 DUP6 AND PUSH1 0x24 DUP4 ADD MSTORE DUP4 AND PUSH1 0x44 DUP3 ADD MSTORE PUSH1 0x64 DUP2 ADD DUP3 SWAP1 MSTORE PUSH2 0x963 SWAP1 DUP6 SWAP1 PUSH4 0x23B872DD PUSH1 0xE0 SHL SWAP1 PUSH1 0x84 ADD PUSH2 0x1908 JUMP JUMPDEST PUSH1 0x0 DUP3 PUSH1 0x1 PUSH1 0x1 PUSH1 0x58 SHL SUB AND PUSH1 0x1 PUSH1 0x80 SHL PUSH2 0x20FD DUP5 PUSH2 0x20F3 DUP9 PUSH1 0x1 PUSH1 0x1 PUSH1 0x60 SHL SUB AND PUSH1 0xB SLOAD PUSH2 0x17CA SWAP2 SWAP1 PUSH2 0x31FD JUMP JUMPDEST PUSH2 0x1176 SWAP2 SWAP1 PUSH2 0x3423 JUMP JUMPDEST PUSH2 0x2107 SWAP2 SWAP1 PUSH2 0x321C JUMP JUMPDEST PUSH2 0x1A7E SWAP2 SWAP1 PUSH2 0x31E5 JUMP JUMPDEST DUP1 PUSH1 0x0 DUP2 SLT ISZERO PUSH2 0x2123 JUMPI PUSH2 0x2123 PUSH2 0x33BB JUMP JUMPDEST SWAP2 SWAP1 POP JUMP JUMPDEST PUSH1 0x0 PUSH2 0x217D DUP3 PUSH1 0x40 MLOAD DUP1 PUSH1 0x40 ADD PUSH1 0x40 MSTORE DUP1 PUSH1 0x20 DUP2 MSTORE PUSH1 0x20 ADD PUSH32 0x5361666545524332303A206C6F772D6C6576656C2063616C6C206661696C6564 DUP2 MSTORE POP DUP6 PUSH1 0x1 PUSH1 0x1 PUSH1 0xA0 SHL SUB AND PUSH2 0x253A SWAP1 SWAP3 SWAP2 SWAP1 PUSH4 0xFFFFFFFF AND JUMP JUMPDEST SWAP1 POP DUP1 MLOAD PUSH1 0x0 EQ DUP1 PUSH2 0x219E JUMPI POP DUP1 DUP1 PUSH1 0x20 ADD SWAP1 MLOAD DUP2 ADD SWAP1 PUSH2 0x219E SWAP2 SWAP1 PUSH2 0x3464 JUMP JUMPDEST PUSH2 0x840 JUMPI PUSH1 0x40 MLOAD PUSH3 0x461BCD PUSH1 0xE5 SHL DUP2 MSTORE PUSH1 0x20 PUSH1 0x4 DUP3 ADD MSTORE PUSH1 0x2A PUSH1 0x24 DUP3 ADD MSTORE PUSH32 0x5361666545524332303A204552433230206F7065726174696F6E20646964206E PUSH1 0x44 DUP3 ADD MSTORE PUSH10 0x1BDD081CDD58D8D95959 PUSH1 0xB2 SHL PUSH1 0x64 DUP3 ADD MSTORE PUSH1 0x84 ADD PUSH2 0x79F JUMP JUMPDEST PUSH1 0x1 DUP2 GT ISZERO PUSH2 0x226C JUMPI PUSH1 0x40 MLOAD PUSH3 0x461BCD PUSH1 0xE5 SHL DUP2 MSTORE PUSH1 0x20 PUSH1 0x4 DUP3 ADD MSTORE PUSH1 0x35 PUSH1 0x24 DUP3 ADD MSTORE PUSH32 0x455243373231456E756D657261626C653A20636F6E7365637574697665207472 PUSH1 0x44 DUP3 ADD MSTORE PUSH21 0x185B9CD9995C9CC81B9BDD081CDD5C1C1BDC9D1959 PUSH1 0x5A SHL PUSH1 0x64 DUP3 ADD MSTORE PUSH1 0x84 ADD PUSH2 0x79F JUMP JUMPDEST DUP2 PUSH1 0x1 PUSH1 0x1 PUSH1 0xA0 SHL SUB DUP6 AND PUSH2 0x22C8 JUMPI PUSH2 0x22C3 DUP2 PUSH1 0x8 DUP1 SLOAD PUSH1 0x0 DUP4 DUP2 MSTORE PUSH1 0x9 PUSH1 0x20 MSTORE PUSH1 0x40 DUP2 KECCAK256 DUP3 SWAP1 SSTORE PUSH1 0x1 DUP3 ADD DUP4 SSTORE SWAP2 SWAP1 SWAP2 MSTORE PUSH32 0xF3F7A9FE364FAAB93B216DA50A3214154F22A0A2B415B23A84C8169E8B636EE3 ADD SSTORE JUMP JUMPDEST PUSH2 0x22EB JUMP JUMPDEST DUP4 PUSH1 0x1 PUSH1 0x1 PUSH1 0xA0 SHL SUB AND DUP6 PUSH1 0x1 PUSH1 0x1 PUSH1 0xA0 SHL SUB AND EQ PUSH2 0x22EB JUMPI PUSH2 0x22EB DUP6 DUP3 PUSH2 0x2549 JUMP JUMPDEST PUSH1 0x1 PUSH1 0x1 PUSH1 0xA0 SHL SUB DUP5 AND PUSH2 0x2307 JUMPI PUSH2 0x2302 DUP2 PUSH2 0x25E6 JUMP JUMPDEST PUSH2 0x232A JUMP JUMPDEST DUP5 PUSH1 0x1 PUSH1 0x1 PUSH1 0xA0 SHL SUB AND DUP5 PUSH1 0x1 PUSH1 0x1 PUSH1 0xA0 SHL SUB AND EQ PUSH2 0x232A JUMPI PUSH2 0x232A DUP5 DUP3 PUSH2 0x2695 JUMP JUMPDEST POP POP POP POP POP JUMP JUMPDEST PUSH2 0x233B DUP4 DUP4 PUSH2 0x26D9 JUMP JUMPDEST PUSH2 0x2348 PUSH1 0x0 DUP5 DUP5 DUP5 PUSH2 0x2364 JUMP JUMPDEST PUSH2 0x840 JUMPI PUSH1 0x40 MLOAD PUSH3 0x461BCD PUSH1 0xE5 SHL DUP2 MSTORE PUSH1 0x4 ADD PUSH2 0x79F SWAP1 PUSH2 0x33D1 JUMP JUMPDEST PUSH1 0x0 PUSH1 0x1 PUSH1 0x1 PUSH1 0xA0 SHL SUB DUP5 AND EXTCODESIZE ISZERO PUSH2 0x2457 JUMPI PUSH1 0x40 MLOAD PUSH4 0xA85BD01 PUSH1 0xE1 SHL DUP2 MSTORE PUSH1 0x1 PUSH1 0x1 PUSH1 0xA0 SHL SUB DUP6 AND SWAP1 PUSH4 0x150B7A02 SWAP1 PUSH2 0x23A8 SWAP1 CALLER SWAP1 DUP10 SWAP1 DUP9 SWAP1 DUP9 SWAP1 PUSH1 0x4 ADD PUSH2 0x3481 JUMP JUMPDEST PUSH1 0x20 PUSH1 0x40 MLOAD DUP1 DUP4 SUB DUP2 PUSH1 0x0 DUP8 GAS CALL SWAP3 POP POP POP DUP1 ISZERO PUSH2 0x23E3 JUMPI POP PUSH1 0x40 DUP1 MLOAD PUSH1 0x1F RETURNDATASIZE SWAP1 DUP2 ADD PUSH1 0x1F NOT AND DUP3 ADD SWAP1 SWAP3 MSTORE PUSH2 0x23E0 SWAP2 DUP2 ADD SWAP1 PUSH2 0x34BE JUMP JUMPDEST PUSH1 0x1 JUMPDEST PUSH2 0x243D JUMPI RETURNDATASIZE DUP1 DUP1 ISZERO PUSH2 0x2411 JUMPI PUSH1 0x40 MLOAD SWAP2 POP PUSH1 0x1F NOT PUSH1 0x3F RETURNDATASIZE ADD AND DUP3 ADD PUSH1 0x40 MSTORE RETURNDATASIZE DUP3 MSTORE RETURNDATASIZE PUSH1 0x0 PUSH1 0x20 DUP5 ADD RETURNDATACOPY PUSH2 0x2416 JUMP JUMPDEST PUSH1 0x60 SWAP2 POP JUMPDEST POP DUP1 MLOAD PUSH2 0x2435 JUMPI PUSH1 0x40 MLOAD PUSH3 0x461BCD PUSH1 0xE5 SHL DUP2 MSTORE PUSH1 0x4 ADD PUSH2 0x79F SWAP1 PUSH2 0x33D1 JUMP JUMPDEST DUP1 MLOAD DUP2 PUSH1 0x20 ADD REVERT JUMPDEST PUSH1 0x1 PUSH1 0x1 PUSH1 0xE0 SHL SUB NOT AND PUSH4 0xA85BD01 PUSH1 0xE1 SHL EQ SWAP1 POP PUSH2 0x1A7E JUMP JUMPDEST POP PUSH1 0x1 SWAP5 SWAP4 POP POP POP POP JUMP JUMPDEST PUSH1 0x0 DUP1 PUSH19 0x184F03E93FF9F4DAA797ED6E38ED64BF6A1F01 PUSH1 0x40 SHL DUP4 LT PUSH2 0x24A1 JUMPI PUSH19 0x184F03E93FF9F4DAA797ED6E38ED64BF6A1F01 PUSH1 0x40 SHL DUP4 DIV SWAP3 POP PUSH1 0x40 ADD JUMPDEST PUSH14 0x4EE2D6D415B85ACEF8100000000 DUP4 LT PUSH2 0x24CD JUMPI PUSH14 0x4EE2D6D415B85ACEF8100000000 DUP4 DIV SWAP3 POP PUSH1 0x20 ADD JUMPDEST PUSH7 0x2386F26FC10000 DUP4 LT PUSH2 0x24EB JUMPI PUSH7 0x2386F26FC10000 DUP4 DIV SWAP3 POP PUSH1 0x10 ADD JUMPDEST PUSH4 0x5F5E100 DUP4 LT PUSH2 0x2503 JUMPI PUSH4 0x5F5E100 DUP4 DIV SWAP3 POP PUSH1 0x8 ADD JUMPDEST PUSH2 0x2710 DUP4 LT PUSH2 0x2517 JUMPI PUSH2 0x2710 DUP4 DIV SWAP3 POP PUSH1 0x4 ADD JUMPDEST PUSH1 0x64 DUP4 LT PUSH2 0x2529 JUMPI PUSH1 0x64 DUP4 DIV SWAP3 POP PUSH1 0x2 ADD JUMPDEST PUSH1 0xA DUP4 LT PUSH2 0x66B JUMPI PUSH1 0x1 ADD SWAP3 SWAP2 POP POP JUMP JUMPDEST PUSH1 0x60 PUSH2 0x1A7E DUP5 DUP5 PUSH1 0x0 DUP6 PUSH2 0x2872 JUMP JUMPDEST PUSH1 0x0 PUSH1 0x1 PUSH2 0x2556 DUP5 PUSH2 0xED9 JUMP JUMPDEST PUSH2 0x2560 SWAP2 SWAP1 PUSH2 0x3181 JUMP JUMPDEST PUSH1 0x0 DUP4 DUP2 MSTORE PUSH1 0x7 PUSH1 0x20 MSTORE PUSH1 0x40 SWAP1 KECCAK256 SLOAD SWAP1 SWAP2 POP DUP1 DUP3 EQ PUSH2 0x25B3 JUMPI PUSH1 0x1 PUSH1 0x1 PUSH1 0xA0 SHL SUB DUP5 AND PUSH1 0x0 SWAP1 DUP2 MSTORE PUSH1 0x6 PUSH1 0x20 SWAP1 DUP2 MSTORE PUSH1 0x40 DUP1 DUP4 KECCAK256 DUP6 DUP5 MSTORE DUP3 MSTORE DUP1 DUP4 KECCAK256 SLOAD DUP5 DUP5 MSTORE DUP2 DUP5 KECCAK256 DUP2 SWAP1 SSTORE DUP4 MSTORE PUSH1 0x7 SWAP1 SWAP2 MSTORE SWAP1 KECCAK256 DUP2 SWAP1 SSTORE JUMPDEST POP PUSH1 0x0 SWAP2 DUP3 MSTORE PUSH1 0x7 PUSH1 0x20 SWAP1 DUP2 MSTORE PUSH1 0x40 DUP1 DUP5 KECCAK256 DUP5 SWAP1 SSTORE PUSH1 0x1 PUSH1 0x1 PUSH1 0xA0 SHL SUB SWAP1 SWAP5 AND DUP4 MSTORE PUSH1 0x6 DUP2 MSTORE DUP4 DUP4 KECCAK256 SWAP2 DUP4 MSTORE MSTORE SWAP1 DUP2 KECCAK256 SSTORE JUMP JUMPDEST PUSH1 0x8 SLOAD PUSH1 0x0 SWAP1 PUSH2 0x25F8 SWAP1 PUSH1 0x1 SWAP1 PUSH2 0x3181 JUMP JUMPDEST PUSH1 0x0 DUP4 DUP2 MSTORE PUSH1 0x9 PUSH1 0x20 MSTORE PUSH1 0x40 DUP2 KECCAK256 SLOAD PUSH1 0x8 DUP1 SLOAD SWAP4 SWAP5 POP SWAP1 SWAP3 DUP5 SWAP1 DUP2 LT PUSH2 0x2620 JUMPI PUSH2 0x2620 PUSH2 0x311A JUMP JUMPDEST SWAP1 PUSH1 0x0 MSTORE PUSH1 0x20 PUSH1 0x0 KECCAK256 ADD SLOAD SWAP1 POP DUP1 PUSH1 0x8 DUP4 DUP2 SLOAD DUP2 LT PUSH2 0x2641 JUMPI PUSH2 0x2641 PUSH2 0x311A JUMP JUMPDEST PUSH1 0x0 SWAP2 DUP3 MSTORE PUSH1 0x20 DUP1 DUP4 KECCAK256 SWAP1 SWAP2 ADD SWAP3 SWAP1 SWAP3 SSTORE DUP3 DUP2 MSTORE PUSH1 0x9 SWAP1 SWAP2 MSTORE PUSH1 0x40 DUP1 DUP3 KECCAK256 DUP5 SWAP1 SSTORE DUP6 DUP3 MSTORE DUP2 KECCAK256 SSTORE PUSH1 0x8 DUP1 SLOAD DUP1 PUSH2 0x2679 JUMPI PUSH2 0x2679 PUSH2 0x34DB JUMP JUMPDEST PUSH1 0x1 SWAP1 SUB DUP2 DUP2 SWAP1 PUSH1 0x0 MSTORE PUSH1 0x20 PUSH1 0x0 KECCAK256 ADD PUSH1 0x0 SWAP1 SSTORE SWAP1 SSTORE POP POP POP POP JUMP JUMPDEST PUSH1 0x0 PUSH2 0x26A0 DUP4 PUSH2 0xED9 JUMP JUMPDEST PUSH1 0x1 PUSH1 0x1 PUSH1 0xA0 SHL SUB SWAP1 SWAP4 AND PUSH1 0x0 SWAP1 DUP2 MSTORE PUSH1 0x6 PUSH1 0x20 SWAP1 DUP2 MSTORE PUSH1 0x40 DUP1 DUP4 KECCAK256 DUP7 DUP5 MSTORE DUP3 MSTORE DUP1 DUP4 KECCAK256 DUP6 SWAP1 SSTORE SWAP4 DUP3 MSTORE PUSH1 0x7 SWAP1 MSTORE SWAP2 SWAP1 SWAP2 KECCAK256 SWAP2 SWAP1 SWAP2 SSTORE POP JUMP JUMPDEST PUSH1 0x1 PUSH1 0x1 PUSH1 0xA0 SHL SUB DUP3 AND PUSH2 0x272F JUMPI PUSH1 0x40 MLOAD PUSH3 0x461BCD PUSH1 0xE5 SHL DUP2 MSTORE PUSH1 0x20 PUSH1 0x4 DUP3 ADD DUP2 SWAP1 MSTORE PUSH1 0x24 DUP3 ADD MSTORE PUSH32 0x4552433732313A206D696E7420746F20746865207A65726F2061646472657373 PUSH1 0x44 DUP3 ADD MSTORE PUSH1 0x64 ADD PUSH2 0x79F JUMP JUMPDEST PUSH1 0x0 DUP2 DUP2 MSTORE PUSH1 0x2 PUSH1 0x20 MSTORE PUSH1 0x40 SWAP1 KECCAK256 SLOAD PUSH1 0x1 PUSH1 0x1 PUSH1 0xA0 SHL SUB AND ISZERO PUSH2 0x2794 JUMPI PUSH1 0x40 MLOAD PUSH3 0x461BCD PUSH1 0xE5 SHL DUP2 MSTORE PUSH1 0x20 PUSH1 0x4 DUP3 ADD MSTORE PUSH1 0x1C PUSH1 0x24 DUP3 ADD MSTORE PUSH32 0x4552433732313A20746F6B656E20616C7265616479206D696E74656400000000 PUSH1 0x44 DUP3 ADD MSTORE PUSH1 0x64 ADD PUSH2 0x79F JUMP JUMPDEST PUSH2 0x27A2 PUSH1 0x0 DUP4 DUP4 PUSH1 0x1 PUSH2 0x21FD JUMP JUMPDEST PUSH1 0x0 DUP2 DUP2 MSTORE PUSH1 0x2 PUSH1 0x20 MSTORE PUSH1 0x40 SWAP1 KECCAK256 SLOAD PUSH1 0x1 PUSH1 0x1 PUSH1 0xA0 SHL SUB AND ISZERO PUSH2 0x2807 JUMPI PUSH1 0x40 MLOAD PUSH3 0x461BCD PUSH1 0xE5 SHL DUP2 MSTORE PUSH1 0x20 PUSH1 0x4 DUP3 ADD MSTORE PUSH1 0x1C PUSH1 0x24 DUP3 ADD MSTORE PUSH32 0x4552433732313A20746F6B656E20616C7265616479206D696E74656400000000 PUSH1 0x44 DUP3 ADD MSTORE PUSH1 0x64 ADD PUSH2 0x79F JUMP JUMPDEST PUSH1 0x1 PUSH1 0x1 PUSH1 0xA0 SHL SUB DUP3 AND PUSH1 0x0 DUP2 DUP2 MSTORE PUSH1 0x3 PUSH1 0x20 SWAP1 DUP2 MSTORE PUSH1 0x40 DUP1 DUP4 KECCAK256 DUP1 SLOAD PUSH1 0x1 ADD SWAP1 SSTORE DUP5 DUP4 MSTORE PUSH1 0x2 SWAP1 SWAP2 MSTORE DUP1 DUP3 KECCAK256 DUP1 SLOAD PUSH1 0x1 PUSH1 0x1 PUSH1 0xA0 SHL SUB NOT AND DUP5 OR SWAP1 SSTORE MLOAD DUP4 SWAP3 SWAP2 SWAP1 PUSH32 0xDDF252AD1BE2C89B69C2B068FC378DAA952BA7F163C4A11628F55A4DF523B3EF SWAP1 DUP3 SWAP1 LOG4 POP POP JUMP JUMPDEST PUSH1 0x60 DUP3 SELFBALANCE LT ISZERO PUSH2 0x28D3 JUMPI PUSH1 0x40 MLOAD PUSH3 0x461BCD PUSH1 0xE5 SHL DUP2 MSTORE PUSH1 0x20 PUSH1 0x4 DUP3 ADD MSTORE PUSH1 0x26 PUSH1 0x24 DUP3 ADD MSTORE PUSH32 0x416464726573733A20696E73756666696369656E742062616C616E636520666F PUSH1 0x44 DUP3 ADD MSTORE PUSH6 0x1C8818D85B1B PUSH1 0xD2 SHL PUSH1 0x64 DUP3 ADD MSTORE PUSH1 0x84 ADD PUSH2 0x79F JUMP JUMPDEST PUSH1 0x0 DUP1 DUP7 PUSH1 0x1 PUSH1 0x1 PUSH1 0xA0 SHL SUB AND DUP6 DUP8 PUSH1 0x40 MLOAD PUSH2 0x28EF SWAP2 SWAP1 PUSH2 0x34F1 JUMP JUMPDEST PUSH1 0x0 PUSH1 0x40 MLOAD DUP1 DUP4 SUB DUP2 DUP6 DUP8 GAS CALL SWAP3 POP POP POP RETURNDATASIZE DUP1 PUSH1 0x0 DUP2 EQ PUSH2 0x292C JUMPI PUSH1 0x40 MLOAD SWAP2 POP PUSH1 0x1F NOT PUSH1 0x3F RETURNDATASIZE ADD AND DUP3 ADD PUSH1 0x40 MSTORE RETURNDATASIZE DUP3 MSTORE RETURNDATASIZE PUSH1 0x0 PUSH1 0x20 DUP5 ADD RETURNDATACOPY PUSH2 0x2931 JUMP JUMPDEST PUSH1 0x60 SWAP2 POP JUMPDEST POP SWAP2 POP SWAP2 POP PUSH2 0x2942 DUP8 DUP4 DUP4 DUP8 PUSH2 0x294D JUMP JUMPDEST SWAP8 SWAP7 POP POP POP POP POP POP POP JUMP JUMPDEST PUSH1 0x60 DUP4 ISZERO PUSH2 0x29B9 JUMPI DUP3 MLOAD PUSH2 0x29B2 JUMPI PUSH1 0x1 PUSH1 0x1 PUSH1 0xA0 SHL SUB DUP6 AND EXTCODESIZE PUSH2 0x29B2 JUMPI PUSH1 0x40 MLOAD PUSH3 0x461BCD PUSH1 0xE5 SHL DUP2 MSTORE PUSH1 0x20 PUSH1 0x4 DUP3 ADD MSTORE PUSH1 0x1D PUSH1 0x24 DUP3 ADD MSTORE PUSH32 0x416464726573733A2063616C6C20746F206E6F6E2D636F6E7472616374000000 PUSH1 0x44 DUP3 ADD MSTORE PUSH1 0x64 ADD PUSH2 0x79F JUMP JUMPDEST POP DUP2 PUSH2 0x1A7E JUMP JUMPDEST PUSH2 0x1A7E DUP4 DUP4 DUP2 MLOAD ISZERO PUSH2 0x29CE JUMPI DUP2 MLOAD DUP1 DUP4 PUSH1 0x20 ADD REVERT JUMPDEST DUP1 PUSH1 0x40 MLOAD PUSH3 0x461BCD PUSH1 0xE5 SHL DUP2 MSTORE PUSH1 0x4 ADD PUSH2 0x79F SWAP2 SWAP1 PUSH2 0x2B03 JUMP JUMPDEST DUP3 DUP1 SLOAD PUSH2 0x29F4 SWAP1 PUSH2 0x30BC JUMP JUMPDEST SWAP1 PUSH1 0x0 MSTORE PUSH1 0x20 PUSH1 0x0 KECCAK256 SWAP1 PUSH1 0x1F ADD PUSH1 0x20 SWAP1 DIV DUP2 ADD SWAP3 DUP3 PUSH2 0x2A16 JUMPI PUSH1 0x0 DUP6 SSTORE PUSH2 0x2A5C JUMP JUMPDEST DUP3 PUSH1 0x1F LT PUSH2 0x2A2F JUMPI DUP1 MLOAD PUSH1 0xFF NOT AND DUP4 DUP1 ADD OR DUP6 SSTORE PUSH2 0x2A5C JUMP JUMPDEST DUP3 DUP1 ADD PUSH1 0x1 ADD DUP6 SSTORE DUP3 ISZERO PUSH2 0x2A5C JUMPI SWAP2 DUP3 ADD JUMPDEST DUP3 DUP2 GT ISZERO PUSH2 0x2A5C JUMPI DUP3 MLOAD DUP3 SSTORE SWAP2 PUSH1 0x20 ADD SWAP2 SWAP1 PUSH1 0x1 ADD SWAP1 PUSH2 0x2A41 JUMP JUMPDEST POP PUSH2 0x1FB8 SWAP3 SWAP2 POP JUMPDEST DUP1 DUP3 GT ISZERO PUSH2 0x1FB8 JUMPI PUSH1 0x0 DUP2 SSTORE PUSH1 0x1 ADD PUSH2 0x2A64 JUMP JUMPDEST PUSH1 0x1 PUSH1 0x1 PUSH1 0xE0 SHL SUB NOT DUP2 AND DUP2 EQ PUSH2 0x1543 JUMPI PUSH1 0x0 DUP1 REVERT JUMPDEST PUSH1 0x0 PUSH1 0x20 DUP3 DUP5 SUB SLT ISZERO PUSH2 0x2AA0 JUMPI PUSH1 0x0 DUP1 REVERT JUMPDEST DUP2 CALLDATALOAD PUSH2 0xD10 DUP2 PUSH2 0x2A78 JUMP JUMPDEST PUSH1 0x0 JUMPDEST DUP4 DUP2 LT ISZERO PUSH2 0x2AC6 JUMPI DUP2 DUP2 ADD MLOAD DUP4 DUP3 ADD MSTORE PUSH1 0x20 ADD PUSH2 0x2AAE JUMP JUMPDEST DUP4 DUP2 GT ISZERO PUSH2 0x963 JUMPI POP POP PUSH1 0x0 SWAP2 ADD MSTORE JUMP JUMPDEST PUSH1 0x0 DUP2 MLOAD DUP1 DUP5 MSTORE PUSH2 0x2AEF DUP2 PUSH1 0x20 DUP7 ADD PUSH1 0x20 DUP7 ADD PUSH2 0x2AAB JUMP JUMPDEST PUSH1 0x1F ADD PUSH1 0x1F NOT AND SWAP3 SWAP1 SWAP3 ADD PUSH1 0x20 ADD SWAP3 SWAP2 POP POP JUMP JUMPDEST PUSH1 0x20 DUP2 MSTORE PUSH1 0x0 PUSH2 0xD10 PUSH1 0x20 DUP4 ADD DUP5 PUSH2 0x2AD7 JUMP JUMPDEST PUSH1 0x0 PUSH1 0x20 DUP3 DUP5 SUB SLT ISZERO PUSH2 0x2B28 JUMPI PUSH1 0x0 DUP1 REVERT JUMPDEST POP CALLDATALOAD SWAP2 SWAP1 POP JUMP JUMPDEST DUP1 CALLDATALOAD PUSH1 0x1 PUSH1 0x1 PUSH1 0xA0 SHL SUB DUP2 AND DUP2 EQ PUSH2 0x2123 JUMPI PUSH1 0x0 DUP1 REVERT JUMPDEST PUSH1 0x0 DUP1 PUSH1 0x40 DUP4 DUP6 SUB SLT ISZERO PUSH2 0x2B59 JUMPI PUSH1 0x0 DUP1 REVERT JUMPDEST PUSH2 0x2B62 DUP4 PUSH2 0x2B2F JUMP JUMPDEST SWAP5 PUSH1 0x20 SWAP4 SWAP1 SWAP4 ADD CALLDATALOAD SWAP4 POP POP POP JUMP JUMPDEST PUSH4 0x4E487B71 PUSH1 0xE0 SHL PUSH1 0x0 MSTORE PUSH1 0x41 PUSH1 0x4 MSTORE PUSH1 0x24 PUSH1 0x0 REVERT JUMPDEST PUSH1 0x40 MLOAD PUSH1 0x1F DUP3 ADD PUSH1 0x1F NOT AND DUP2 ADD PUSH8 0xFFFFFFFFFFFFFFFF DUP2 GT DUP3 DUP3 LT OR ISZERO PUSH2 0x2BAF JUMPI PUSH2 0x2BAF PUSH2 0x2B70 JUMP JUMPDEST PUSH1 0x40 MSTORE SWAP2 SWAP1 POP JUMP JUMPDEST PUSH1 0x0 PUSH8 0xFFFFFFFFFFFFFFFF DUP3 GT ISZERO PUSH2 0x2BD1 JUMPI PUSH2 0x2BD1 PUSH2 0x2B70 JUMP JUMPDEST POP PUSH1 0x5 SHL PUSH1 0x20 ADD SWAP1 JUMP JUMPDEST PUSH1 0x0 DUP3 PUSH1 0x1F DUP4 ADD SLT PUSH2 0x2BEC JUMPI PUSH1 0x0 DUP1 REVERT JUMPDEST DUP2 CALLDATALOAD PUSH1 0x20 PUSH2 0x2C01 PUSH2 0x2BFC DUP4 PUSH2 0x2BB7 JUMP JUMPDEST PUSH2 0x2B86 JUMP JUMPDEST DUP3 DUP2 MSTORE PUSH1 0x5 SWAP3 SWAP1 SWAP3 SHL DUP5 ADD DUP2 ADD SWAP2 DUP2 DUP2 ADD SWAP1 DUP7 DUP5 GT ISZERO PUSH2 0x2C20 JUMPI PUSH1 0x0 DUP1 REVERT JUMPDEST DUP3 DUP7 ADD JUMPDEST DUP5 DUP2 LT ISZERO PUSH2 0x2C3B JUMPI DUP1 CALLDATALOAD DUP4 MSTORE SWAP2 DUP4 ADD SWAP2 DUP4 ADD PUSH2 0x2C24 JUMP JUMPDEST POP SWAP7 SWAP6 POP POP POP POP POP POP JUMP JUMPDEST DUP1 CALLDATALOAD PUSH1 0xFF DUP2 AND DUP2 EQ PUSH2 0x2123 JUMPI PUSH1 0x0 DUP1 REVERT JUMPDEST PUSH1 0x0 DUP1 PUSH1 0x40 DUP4 DUP6 SUB SLT ISZERO PUSH2 0x2C6A JUMPI PUSH1 0x0 DUP1 REVERT JUMPDEST DUP3 CALLDATALOAD PUSH8 0xFFFFFFFFFFFFFFFF DUP1 DUP3 GT ISZERO PUSH2 0x2C82 JUMPI PUSH1 0x0 DUP1 REVERT JUMPDEST PUSH2 0x2C8E DUP7 DUP4 DUP8 ADD PUSH2 0x2BDB JUMP JUMPDEST SWAP4 POP PUSH1 0x20 SWAP2 POP DUP2 DUP6 ADD CALLDATALOAD DUP2 DUP2 GT ISZERO PUSH2 0x2CA5 JUMPI PUSH1 0x0 DUP1 REVERT JUMPDEST DUP6 ADD SWAP1 POP PUSH1 0x1F DUP2 ADD DUP7 SGT PUSH2 0x2CB8 JUMPI PUSH1 0x0 DUP1 REVERT JUMPDEST DUP1 CALLDATALOAD PUSH2 0x2CC6 PUSH2 0x2BFC DUP3 PUSH2 0x2BB7 JUMP JUMPDEST DUP2 DUP2 MSTORE PUSH1 0x5 SWAP2 SWAP1 SWAP2 SHL DUP3 ADD DUP4 ADD SWAP1 DUP4 DUP2 ADD SWAP1 DUP9 DUP4 GT ISZERO PUSH2 0x2CE5 JUMPI PUSH1 0x0 DUP1 REVERT JUMPDEST SWAP3 DUP5 ADD SWAP3 JUMPDEST DUP3 DUP5 LT ISZERO PUSH2 0x2D0A JUMPI PUSH2 0x2CFB DUP5 PUSH2 0x2C46 JUMP JUMPDEST DUP3 MSTORE SWAP3 DUP5 ADD SWAP3 SWAP1 DUP5 ADD SWAP1 PUSH2 0x2CEA JUMP JUMPDEST DUP1 SWAP6 POP POP POP POP POP POP SWAP3 POP SWAP3 SWAP1 POP JUMP JUMPDEST PUSH1 0x0 DUP1 PUSH1 0x0 DUP1 PUSH1 0x80 DUP6 DUP8 SUB SLT ISZERO PUSH2 0x2D2F JUMPI PUSH1 0x0 DUP1 REVERT JUMPDEST DUP5 CALLDATALOAD PUSH8 0xFFFFFFFFFFFFFFFF DUP2 GT ISZERO PUSH2 0x2D46 JUMPI PUSH1 0x0 DUP1 REVERT JUMPDEST PUSH2 0x2D52 DUP8 DUP3 DUP9 ADD PUSH2 0x2BDB JUMP JUMPDEST SWAP5 POP POP PUSH1 0x20 DUP6 ADD CALLDATALOAD SWAP3 POP PUSH1 0x40 DUP6 ADD CALLDATALOAD SWAP2 POP PUSH2 0x2D6F PUSH1 0x60 DUP7 ADD PUSH2 0x2B2F JUMP JUMPDEST SWAP1 POP SWAP3 SWAP6 SWAP2 SWAP5 POP SWAP3 POP JUMP JUMPDEST PUSH1 0x0 DUP1 PUSH1 0x0 PUSH1 0x60 DUP5 DUP7 SUB SLT ISZERO PUSH2 0x2D8F JUMPI PUSH1 0x0 DUP1 REVERT JUMPDEST PUSH2 0x2D98 DUP5 PUSH2 0x2B2F JUMP JUMPDEST SWAP3 POP PUSH2 0x2DA6 PUSH1 0x20 DUP6 ADD PUSH2 0x2B2F JUMP JUMPDEST SWAP2 POP PUSH1 0x40 DUP5 ADD CALLDATALOAD SWAP1 POP SWAP3 POP SWAP3 POP SWAP3 JUMP JUMPDEST PUSH1 0x0 DUP1 PUSH1 0x40 DUP4 DUP6 SUB SLT ISZERO PUSH2 0x2DC9 JUMPI PUSH1 0x0 DUP1 REVERT JUMPDEST DUP3 CALLDATALOAD PUSH8 0xFFFFFFFFFFFFFFFF DUP2 GT ISZERO PUSH2 0x2DE0 JUMPI PUSH1 0x0 DUP1 REVERT JUMPDEST PUSH2 0x2DEC DUP6 DUP3 DUP7 ADD PUSH2 0x2BDB JUMP JUMPDEST SWAP3 POP POP PUSH2 0x2DFB PUSH1 0x20 DUP5 ADD PUSH2 0x2B2F JUMP JUMPDEST SWAP1 POP SWAP3 POP SWAP3 SWAP1 POP JUMP JUMPDEST PUSH1 0x0 DUP1 PUSH1 0x40 DUP4 DUP6 SUB SLT ISZERO PUSH2 0x2E17 JUMPI PUSH1 0x0 DUP1 REVERT JUMPDEST POP POP DUP1 CALLDATALOAD SWAP3 PUSH1 0x20 SWAP1 SWAP2 ADD CALLDATALOAD SWAP2 POP JUMP JUMPDEST PUSH1 0x0 PUSH8 0xFFFFFFFFFFFFFFFF DUP4 GT ISZERO PUSH2 0x2E40 JUMPI PUSH2 0x2E40 PUSH2 0x2B70 JUMP JUMPDEST PUSH2 0x2E53 PUSH1 0x1F DUP5 ADD PUSH1 0x1F NOT AND PUSH1 0x20 ADD PUSH2 0x2B86 JUMP JUMPDEST SWAP1 POP DUP3 DUP2 MSTORE DUP4 DUP4 DUP4 ADD GT ISZERO PUSH2 0x2E67 JUMPI PUSH1 0x0 DUP1 REVERT JUMPDEST DUP3 DUP3 PUSH1 0x20 DUP4 ADD CALLDATACOPY PUSH1 0x0 PUSH1 0x20 DUP5 DUP4 ADD ADD MSTORE SWAP4 SWAP3 POP POP POP JUMP JUMPDEST PUSH1 0x0 PUSH1 0x20 DUP3 DUP5 SUB SLT ISZERO PUSH2 0x2E90 JUMPI PUSH1 0x0 DUP1 REVERT JUMPDEST DUP2 CALLDATALOAD PUSH8 0xFFFFFFFFFFFFFFFF DUP2 GT ISZERO PUSH2 0x2EA7 JUMPI PUSH1 0x0 DUP1 REVERT JUMPDEST DUP3 ADD PUSH1 0x1F DUP2 ADD DUP5 SGT PUSH2 0x2EB8 JUMPI PUSH1 0x0 DUP1 REVERT JUMPDEST PUSH2 0x1A7E DUP5 DUP3 CALLDATALOAD PUSH1 0x20 DUP5 ADD PUSH2 0x2E26 JUMP JUMPDEST PUSH1 0x0 PUSH1 0x20 DUP3 DUP5 SUB SLT ISZERO PUSH2 0x2ED9 JUMPI PUSH1 0x0 DUP1 REVERT JUMPDEST PUSH2 0xD10 DUP3 PUSH2 0x2B2F JUMP JUMPDEST DUP1 ISZERO ISZERO DUP2 EQ PUSH2 0x1543 JUMPI PUSH1 0x0 DUP1 REVERT JUMPDEST PUSH1 0x0 DUP1 PUSH1 0x40 DUP4 DUP6 SUB SLT ISZERO PUSH2 0x2F03 JUMPI PUSH1 0x0 DUP1 REVERT JUMPDEST PUSH2 0x2F0C DUP4 PUSH2 0x2B2F JUMP JUMPDEST SWAP2 POP PUSH1 0x20 DUP4 ADD CALLDATALOAD PUSH2 0x2F1C DUP2 PUSH2 0x2EE2 JUMP JUMPDEST DUP1 SWAP2 POP POP SWAP3 POP SWAP3 SWAP1 POP JUMP JUMPDEST PUSH1 0x0 DUP1 PUSH1 0x0 DUP1 PUSH1 0x80 DUP6 DUP8 SUB SLT ISZERO PUSH2 0x2F3D JUMPI PUSH1 0x0 DUP1 REVERT JUMPDEST DUP5 CALLDATALOAD SWAP4 POP PUSH1 0x20 DUP6 ADD CALLDATALOAD SWAP3 POP PUSH1 0x40 DUP6 ADD CALLDATALOAD SWAP2 POP PUSH2 0x2D6F PUSH1 0x60 DUP7 ADD PUSH2 0x2B2F JUMP JUMPDEST PUSH1 0x0 DUP1 PUSH1 0x0 DUP1 PUSH1 0x80 DUP6 DUP8 SUB SLT ISZERO PUSH2 0x2F71 JUMPI PUSH1 0x0 DUP1 REVERT JUMPDEST PUSH2 0x2F7A DUP6 PUSH2 0x2B2F JUMP JUMPDEST SWAP4 POP PUSH2 0x2F88 PUSH1 0x20 DUP7 ADD PUSH2 0x2B2F JUMP JUMPDEST SWAP3 POP PUSH1 0x40 DUP6 ADD CALLDATALOAD SWAP2 POP PUSH1 0x60 DUP6 ADD CALLDATALOAD PUSH8 0xFFFFFFFFFFFFFFFF DUP2 GT ISZERO PUSH2 0x2FAB JUMPI PUSH1 0x0 DUP1 REVERT JUMPDEST DUP6 ADD PUSH1 0x1F DUP2 ADD DUP8 SGT PUSH2 0x2FBC JUMPI PUSH1 0x0 DUP1 REVERT JUMPDEST PUSH2 0x2FCB DUP8 DUP3 CALLDATALOAD PUSH1 0x20 DUP5 ADD PUSH2 0x2E26 JUMP JUMPDEST SWAP2 POP POP SWAP3 SWAP6 SWAP2 SWAP5 POP SWAP3 POP JUMP JUMPDEST PUSH1 0x0 DUP1 PUSH1 0x0 DUP1 PUSH1 0x0 DUP1 PUSH1 0x0 PUSH1 0xE0 DUP9 DUP11 SUB SLT ISZERO PUSH2 0x2FF2 JUMPI PUSH1 0x0 DUP1 REVERT JUMPDEST DUP8 CALLDATALOAD SWAP7 POP PUSH1 0x20 DUP9 ADD CALLDATALOAD SWAP6 POP PUSH2 0x3009 PUSH1 0x40 DUP10 ADD PUSH2 0x2B2F JUMP JUMPDEST SWAP5 POP PUSH1 0x60 DUP9 ADD CALLDATALOAD SWAP4 POP PUSH2 0x301E PUSH1 0x80 DUP10 ADD PUSH2 0x2C46 JUMP JUMPDEST SWAP3 POP PUSH1 0xA0 DUP9 ADD CALLDATALOAD SWAP2 POP PUSH1 0xC0 DUP9 ADD CALLDATALOAD SWAP1 POP SWAP3 SWAP6 SWAP9 SWAP2 SWAP5 SWAP8 POP SWAP3 SWAP6 POP JUMP JUMPDEST PUSH1 0x0 DUP1 PUSH1 0x0 PUSH1 0x60 DUP5 DUP7 SUB SLT ISZERO PUSH2 0x304F JUMPI PUSH1 0x0 DUP1 REVERT JUMPDEST DUP4 CALLDATALOAD SWAP3 POP PUSH1 0x20 DUP5 ADD CALLDATALOAD SWAP2 POP PUSH2 0x3066 PUSH1 0x40 DUP6 ADD PUSH2 0x2B2F JUMP JUMPDEST SWAP1 POP SWAP3 POP SWAP3 POP SWAP3 JUMP JUMPDEST PUSH1 0x0 DUP1 PUSH1 0x40 DUP4 DUP6 SUB SLT ISZERO PUSH2 0x3082 JUMPI PUSH1 0x0 DUP1 REVERT JUMPDEST PUSH2 0x308B DUP4 PUSH2 0x2B2F JUMP JUMPDEST SWAP2 POP PUSH2 0x2DFB PUSH1 0x20 DUP5 ADD PUSH2 0x2B2F JUMP JUMPDEST PUSH1 0x0 DUP1 PUSH1 0x40 DUP4 DUP6 SUB SLT ISZERO PUSH2 0x30AC JUMPI PUSH1 0x0 DUP1 REVERT JUMPDEST DUP3 CALLDATALOAD SWAP2 POP PUSH2 0x2DFB PUSH1 0x20 DUP5 ADD PUSH2 0x2B2F JUMP JUMPDEST PUSH1 0x1 DUP2 DUP2 SHR SWAP1 DUP3 AND DUP1 PUSH2 0x30D0 JUMPI PUSH1 0x7F DUP3 AND SWAP2 POP JUMPDEST PUSH1 0x20 DUP3 LT DUP2 EQ ISZERO PUSH2 0x30F1 JUMPI PUSH4 0x4E487B71 PUSH1 0xE0 SHL PUSH1 0x0 MSTORE PUSH1 0x22 PUSH1 0x4 MSTORE PUSH1 0x24 PUSH1 0x0 REVERT JUMPDEST POP SWAP2 SWAP1 POP JUMP JUMPDEST PUSH1 0x20 DUP1 DUP3 MSTORE PUSH1 0x9 SWAP1 DUP3 ADD MSTORE PUSH9 0x2727AA2FA7ABA722A9 PUSH1 0xB9 SHL PUSH1 0x40 DUP3 ADD MSTORE PUSH1 0x60 ADD SWAP1 JUMP JUMPDEST PUSH4 0x4E487B71 PUSH1 0xE0 SHL PUSH1 0x0 MSTORE PUSH1 0x32 PUSH1 0x4 MSTORE PUSH1 0x24 PUSH1 0x0 REVERT JUMPDEST PUSH4 0x4E487B71 PUSH1 0xE0 SHL PUSH1 0x0 MSTORE PUSH1 0x11 PUSH1 0x4 MSTORE PUSH1 0x24 PUSH1 0x0 REVERT JUMPDEST PUSH1 0x0 PUSH1 0x0 NOT DUP3 EQ ISZERO PUSH2 0x315A JUMPI PUSH2 0x315A PUSH2 0x3130 JUMP JUMPDEST POP PUSH1 0x1 ADD SWAP1 JUMP JUMPDEST PUSH1 0x20 DUP1 DUP3 MSTORE PUSH1 0x6 SWAP1 DUP3 ADD MSTORE PUSH6 0x1313D0D2D151 PUSH1 0xD2 SHL PUSH1 0x40 DUP3 ADD MSTORE PUSH1 0x60 ADD SWAP1 JUMP JUMPDEST PUSH1 0x0 DUP3 DUP3 LT ISZERO PUSH2 0x3193 JUMPI PUSH2 0x3193 PUSH2 0x3130 JUMP JUMPDEST POP SUB SWAP1 JUMP JUMPDEST PUSH1 0x20 DUP1 DUP3 MSTORE PUSH1 0x2D SWAP1 DUP3 ADD MSTORE PUSH32 0x4552433732313A2063616C6C6572206973206E6F7420746F6B656E206F776E65 PUSH1 0x40 DUP3 ADD MSTORE PUSH13 0x1C881BDC88185C1C1C9BDD9959 PUSH1 0x9A SHL PUSH1 0x60 DUP3 ADD MSTORE PUSH1 0x80 ADD SWAP1 JUMP JUMPDEST PUSH1 0x0 DUP3 NOT DUP3 GT ISZERO PUSH2 0x31F8 JUMPI PUSH2 0x31F8 PUSH2 0x3130 JUMP JUMPDEST POP ADD SWAP1 JUMP JUMPDEST PUSH1 0x0 DUP2 PUSH1 0x0 NOT DIV DUP4 GT DUP3 ISZERO ISZERO AND ISZERO PUSH2 0x3217 JUMPI PUSH2 0x3217 PUSH2 0x3130 JUMP JUMPDEST POP MUL SWAP1 JUMP JUMPDEST PUSH1 0x0 DUP3 PUSH2 0x3239 JUMPI PUSH4 0x4E487B71 PUSH1 0xE0 SHL PUSH1 0x0 MSTORE PUSH1 0x12 PUSH1 0x4 MSTORE PUSH1 0x24 PUSH1 0x0 REVERT JUMPDEST POP DIV SWAP1 JUMP JUMPDEST PUSH1 0x0 DUP2 MLOAD PUSH2 0x3250 DUP2 DUP6 PUSH1 0x20 DUP7 ADD PUSH2 0x2AAB JUMP JUMPDEST SWAP3 SWAP1 SWAP3 ADD SWAP3 SWAP2 POP POP JUMP JUMPDEST PUSH1 0x0 DUP1 DUP5 SLOAD DUP2 PUSH1 0x1 DUP3 DUP2 SHR SWAP2 POP DUP1 DUP4 AND DUP1 PUSH2 0x3276 JUMPI PUSH1 0x7F DUP4 AND SWAP3 POP JUMPDEST PUSH1 0x20 DUP1 DUP5 LT DUP3 EQ ISZERO PUSH2 0x3296 JUMPI PUSH4 0x4E487B71 PUSH1 0xE0 SHL DUP7 MSTORE PUSH1 0x22 PUSH1 0x4 MSTORE PUSH1 0x24 DUP7 REVERT JUMPDEST DUP2 DUP1 ISZERO PUSH2 0x32AA JUMPI PUSH1 0x1 DUP2 EQ PUSH2 0x32BB JUMPI PUSH2 0x32E8 JUMP JUMPDEST PUSH1 0xFF NOT DUP7 AND DUP10 MSTORE DUP5 DUP10 ADD SWAP7 POP PUSH2 0x32E8 JUMP JUMPDEST PUSH1 0x0 DUP12 DUP2 MSTORE PUSH1 0x20 SWAP1 KECCAK256 PUSH1 0x0 JUMPDEST DUP7 DUP2 LT ISZERO PUSH2 0x32E0 JUMPI DUP2 SLOAD DUP12 DUP3 ADD MSTORE SWAP1 DUP6 ADD SWAP1 DUP4 ADD PUSH2 0x32C7 JUMP JUMPDEST POP POP DUP5 DUP10 ADD SWAP7 POP JUMPDEST POP POP POP POP POP POP PUSH2 0x32F8 DUP2 DUP6 PUSH2 0x323E JUMP JUMPDEST SWAP6 SWAP5 POP POP POP POP POP JUMP JUMPDEST PUSH1 0x0 PUSH1 0x1 PUSH1 0xFF SHL DUP3 EQ ISZERO PUSH2 0x3317 JUMPI PUSH2 0x3317 PUSH2 0x3130 JUMP JUMPDEST POP PUSH1 0x0 SUB SWAP1 JUMP JUMPDEST PUSH1 0x0 PUSH1 0x20 DUP3 DUP5 SUB SLT ISZERO PUSH2 0x3330 JUMPI PUSH1 0x0 DUP1 REVERT JUMPDEST POP MLOAD SWAP2 SWAP1 POP JUMP JUMPDEST PUSH1 0x0 DUP1 DUP4 SLT DUP1 ISZERO PUSH1 0x1 PUSH1 0xFF SHL DUP6 ADD DUP5 SLT AND ISZERO PUSH2 0x3355 JUMPI PUSH2 0x3355 PUSH2 0x3130 JUMP JUMPDEST PUSH1 0x1 PUSH1 0x1 PUSH1 0xFF SHL SUB DUP5 ADD DUP4 SGT DUP2 AND ISZERO PUSH2 0x3370 JUMPI PUSH2 0x3370 PUSH2 0x3130 JUMP JUMPDEST POP POP SUB SWAP1 JUMP JUMPDEST PUSH1 0x20 DUP1 DUP3 MSTORE PUSH1 0x25 SWAP1 DUP3 ADD MSTORE PUSH32 0x4552433732313A207472616E736665722066726F6D20696E636F727265637420 PUSH1 0x40 DUP3 ADD MSTORE PUSH5 0x37BBB732B9 PUSH1 0xD9 SHL PUSH1 0x60 DUP3 ADD MSTORE PUSH1 0x80 ADD SWAP1 JUMP JUMPDEST PUSH4 0x4E487B71 PUSH1 0xE0 SHL PUSH1 0x0 MSTORE PUSH1 0x1 PUSH1 0x4 MSTORE PUSH1 0x24 PUSH1 0x0 REVERT JUMPDEST PUSH1 0x20 DUP1 DUP3 MSTORE PUSH1 0x32 SWAP1 DUP3 ADD MSTORE PUSH32 0x4552433732313A207472616E7366657220746F206E6F6E204552433732315265 PUSH1 0x40 DUP3 ADD MSTORE PUSH18 0x31B2B4BB32B91034B6B83632B6B2B73A32B9 PUSH1 0x71 SHL PUSH1 0x60 DUP3 ADD MSTORE PUSH1 0x80 ADD SWAP1 JUMP JUMPDEST PUSH1 0x0 DUP1 DUP3 SLT DUP1 ISZERO PUSH1 0x1 PUSH1 0x1 PUSH1 0xFF SHL SUB DUP5 SWAP1 SUB DUP6 SGT AND ISZERO PUSH2 0x3445 JUMPI PUSH2 0x3445 PUSH2 0x3130 JUMP JUMPDEST PUSH1 0x1 PUSH1 0xFF SHL DUP4 SWAP1 SUB DUP5 SLT DUP2 AND ISZERO PUSH2 0x345E JUMPI PUSH2 0x345E PUSH2 0x3130 JUMP JUMPDEST POP POP ADD SWAP1 JUMP JUMPDEST PUSH1 0x0 PUSH1 0x20 DUP3 DUP5 SUB SLT ISZERO PUSH2 0x3476 JUMPI PUSH1 0x0 DUP1 REVERT JUMPDEST DUP2 MLOAD PUSH2 0xD10 DUP2 PUSH2 0x2EE2 JUMP JUMPDEST PUSH1 0x1 PUSH1 0x1 PUSH1 0xA0 SHL SUB DUP6 DUP2 AND DUP3 MSTORE DUP5 AND PUSH1 0x20 DUP3 ADD MSTORE PUSH1 0x40 DUP2 ADD DUP4 SWAP1 MSTORE PUSH1 0x80 PUSH1 0x60 DUP3 ADD DUP2 SWAP1 MSTORE PUSH1 0x0 SWAP1 PUSH2 0x34B4 SWAP1 DUP4 ADD DUP5 PUSH2 0x2AD7 JUMP JUMPDEST SWAP7 SWAP6 POP POP POP POP POP POP JUMP JUMPDEST PUSH1 0x0 PUSH1 0x20 DUP3 DUP5 SUB SLT ISZERO PUSH2 0x34D0 JUMPI PUSH1 0x0 DUP1 REVERT JUMPDEST DUP2 MLOAD PUSH2 0xD10 DUP2 PUSH2 0x2A78 JUMP JUMPDEST PUSH4 0x4E487B71 PUSH1 0xE0 SHL PUSH1 0x0 MSTORE PUSH1 0x31 PUSH1 0x4 MSTORE PUSH1 0x24 PUSH1 0x0 REVERT JUMPDEST PUSH1 0x0 DUP3 MLOAD PUSH2 0x3503 DUP2 DUP5 PUSH1 0x20 DUP8 ADD PUSH2 0x2AAB JUMP JUMPDEST SWAP2 SWAP1 SWAP2 ADD SWAP3 SWAP2 POP POP JUMP INVALID LOG1 PUSH5 0x736F6C6343 STOP ADDMOD EXP STOP EXP "},"methodIdentifiers":{"XDEFI()":"b8d1cd48","acceptOwnership()":"79ba5097","approve(address,uint256)":"095ea7b3","balanceOf(address)":"70a08231","baseURI()":"6c0360eb","bonusMultiplierOf(uint256)":"d3646e79","distributableXDEFI()":"a83d4dda","getApproved(uint256)":"081812fc","getPoints(uint256,uint256)":"4d4c71a3","isApprovedForAll(address,address)":"e985e9c5","lock(uint256,uint256,address)":"d35cf790","lockWithPermit(uint256,uint256,address,uint256,uint8,bytes32,bytes32)":"cc1168f2","merge(uint256[],address)":"2b580629","name()":"06fdde03","owner()":"8da5cb5b","ownerOf(uint256)":"6352211e","pendingOwner()":"e30c3978","pointsOf(uint256)":"82411358","positionOf(uint256)":"46f96023","proposeOwnership(address)":"710bf322","relock(uint256,uint256,uint256,address)":"a372e771","relockBatch(uint256[],uint256,uint256,address)":"21a43aa2","safeTransferFrom(address,address,uint256)":"42842e0e","safeTransferFrom(address,address,uint256,bytes)":"b88d4fde","setApprovalForAll(address,bool)":"a22cb465","setBaseURI(string)":"55f804b3","setLockPeriods(uint256[],uint8[])":"159d97fc","supportsInterface(bytes4)":"01ffc9a7","symbol()":"95d89b41","tokenByIndex(uint256)":"4f6ccce7","tokenOfOwnerByIndex(address,uint256)":"2f745c59","tokenURI(uint256)":"c87b56dd","totalDepositedXDEFI()":"07473742","totalSupply()":"18160ddd","totalUnits()":"6d86acc4","transferFrom(address,address,uint256)":"23b872dd","unlock(uint256,address)":"f1d2ec1d","unlockBatch(uint256[],address)":"2f588cd4","updateDistribution()":"aa8badc1","withdrawableOf(uint256)":"d1fdb3e8"}}}}}