{"contracts/descriptors/BorrowTicketDescriptor.sol":{"BorrowTicketDescriptor":{"abi":[{"type":"constructor","inputs":[{"name":"_svgHelper","type":"address","internalType":"contract ITicketTypeSpecificSVGHelper"}],"stateMutability":"nonpayable"},{"type":"function","name":"nftType","inputs":[],"outputs":[{"name":"","type":"string","internalType":"string"}],"stateMutability":"view"},{"type":"function","name":"svgHelper","inputs":[],"outputs":[{"name":"","type":"address","internalType":"contract ITicketTypeSpecificSVGHelper"}],"stateMutability":"view"},{"type":"function","name":"uri","inputs":[{"name":"nftLoanFacilitator","type":"address","internalType":"contract NFTLoanFacilitator"},{"name":"id","type":"uint256","internalType":"uint256"}],"outputs":[{"name":"","type":"string","internalType":"string"}],"stateMutability":"view"}],"userdoc":{},"devdoc":{},"evm":{"bytecode":{"object":"60a06040523480156200001157600080fd5b5060405162005629380380620056298339818101604052810190620000379190620001f2565b6040518060400160405280600681526020017f426f72726f77000000000000000000000000000000000000000000000000000081525081816000908051906020019062000086929190620000c4565b508073ffffffffffffffffffffffffffffffffffffffff1660808173ffffffffffffffffffffffffffffffffffffffff168152505050505062000289565b828054620000d29062000253565b90600052602060002090601f016020900481019282620000f6576000855562000142565b82601f106200011157805160ff191683800117855562000142565b8280016001018555821562000142579182015b828111156200014157825182559160200191906001019062000124565b5b50905062000151919062000155565b5090565b5b808211156200017057600081600090555060010162000156565b5090565b600080fd5b600073ffffffffffffffffffffffffffffffffffffffff82169050919050565b6000620001a68262000179565b9050919050565b6000620001ba8262000199565b9050919050565b620001cc81620001ad565b8114620001d857600080fd5b50565b600081519050620001ec81620001c1565b92915050565b6000602082840312156200020b576200020a62000174565b5b60006200021b84828501620001db565b91505092915050565b7f4e487b7100000000000000000000000000000000000000000000000000000000600052602260045260246000fd5b600060028204905060018216806200026c57607f821691505b6020821081141562000283576200028262000224565b5b50919050565b60805161537d620002ac600039600081816101fe015261048b015261537d6000f3fe608060405234801561001057600080fd5b50600436106100415760003560e01c806328205a93146100465780636fac889b14610076578063c1329ede14610094575b600080fd5b610060600480360381019061005b919061237a565b6100b2565b60405161006d9190612453565b60405180910390f35b61007e61016e565b60405161008b9190612453565b60405180910390f35b61009c6101fc565b6040516100a991906124d4565b60405180910390f35b60606100bc6121f9565b600080546100c99061251e565b80601f01602080910402602001604051908101604052809291908181526020018280546100f59061251e565b80156101425780601f1061011757610100808354040283529160200191610142565b820191906000526020600020905b81548152906001019060200180831161012557829003601f168201915b5050505050816000018190525061015a818585610220565b905061016581610443565b91505092915050565b6000805461017b9061251e565b80601f01602080910402602001604051908101604052809291908181526020018280546101a79061251e565b80156101f45780601f106101c9576101008083540402835291602001916101f4565b820191906000526020600020905b8154815290600101906020018083116101d757829003601f168201915b505050505081565b7f000000000000000000000000000000000000000000000000000000000000000081565b6102286121f9565b6000806000806000806000808a73ffffffffffffffffffffffffffffffffffffffff16638349d6be8b6040518263ffffffff1660e01b815260040161026d919061255f565b61012060405180830381865afa15801561028b573d6000803e3d6000fd5b505050506040513d601f19601f820116820180604052508101906102af91906126ee565b98506fffffffffffffffffffffffffffffffff169850509750975064ffffffffff16975063ffffffff16975061ffff16975097506102ec8a610502565b8c602001819052506102ff85878a610663565b8c604001819052506103118b8861077e565b8c6060018190525061032483601461080e565b8c6080018190525061033583610a8c565b8c60a0018190525061034884601461080e565b8c60c0018190525061035d84600a6028610b09565b8c60e0018190525061036e84610f0b565b8c610100018190525061038081610502565b8c61012001819052506103938284610f88565b8c61014001819052506103a78b8b8561100c565b8c61016001819052506103c762015180876103c29190612816565b610502565b8c6101800181905250600085146103f1576103ec86866103e79190612847565b61110a565b610428565b6040518060400160405280600381526020017f6e2f6100000000000000000000000000000000000000000000000000000000008152505b8c6101a001819052508b985050505050505050509392505050565b60606104dc8260000151836020015161045f8560200151611191565b61048286608001518760a001518860c001518961010001518a61012001516111b6565b6104b46104af887f00000000000000000000000000000000000000000000000000000000000000006111eb565b611250565b6040516020016104c89594939291906129e3565b604051602081830303815290604052611250565b6040516020016104ec9190612abd565b6040516020818303038152906040529050919050565b6060600082141561054a576040518060400160405280600181526020017f3000000000000000000000000000000000000000000000000000000000000000815250905061065e565b600082905060005b6000821461057c57808061056590612ae3565b915050600a826105759190612816565b9150610552565b60008167ffffffffffffffff81111561059857610597612b2c565b5b6040519080825280601f01601f1916602001820160405280156105ca5781602001600182028036833780820191505090505b5090505b60008514610657576001826105e39190612b5b565b9150600a856105f29190612b8f565b60306105fe9190612847565b60f81b81838151811061061457610613612bc0565b5b60200101907effffffffffffffffffffffffffffffffffffffffffffffffffffffffffffff1916908160001a905350600a856106509190612816565b94506105ce565b8093505050505b919050565b606060008414156106ab576040518060400160405280600f81526020017f6177616974696e67206c656e64657200000000000000000000000000000000008152509050610777565b81156106ee576040518060400160405280600681526020017f636c6f73656400000000000000000000000000000000000000000000000000008152509050610777565b82846106fa9190612847565b42111561073e576040518060400160405280600881526020017f70617374206475650000000000000000000000000000000000000000000000008152509050610777565b6040518060400160405280601181526020017f6163637275696e6720696e74657265737400000000000000000000000000000081525090505b9392505050565b60606108068260028573ffffffffffffffffffffffffffffffffffffffff166366234ffa6040518163ffffffff1660e01b8152600401602060405180830381865afa1580156107d1573d6000803e3d6000fd5b505050506040513d601f19601f820116820180604052508101906107f59190612c28565b6107ff9190612c55565b60016113d5565b905092915050565b6060600060028360026108219190612c89565b61082b9190612847565b67ffffffffffffffff81111561084457610843612b2c565b5b6040519080825280601f01601f1916602001820160405280156108765781602001600182028036833780820191505090505b5090507f3000000000000000000000000000000000000000000000000000000000000000816000815181106108ae576108ad612bc0565b5b60200101907effffffffffffffffffffffffffffffffffffffffffffffffffffffffffffff1916908160001a9053507f78000000000000000000000000000000000000000000000000000000000000008160018151811061091257610911612bc0565b5b60200101907effffffffffffffffffffffffffffffffffffffffffffffffffffffffffffff1916908160001a905350600060018460026109529190612c89565b61095c9190612847565b90505b6001811115610a28577f3031323334353637383961626364656600000000000000000000000000000000600f861673ffffffffffffffffffffffffffffffffffffffff16601081106109b4576109b3612bc0565b5b1a60f81b8282815181106109cb576109ca612bc0565b5b60200101907effffffffffffffffffffffffffffffffffffffffffffffffffffffffffffff1916908160001a90535060048573ffffffffffffffffffffffffffffffffffffffff16901c945080610a2190612ce3565b905061095f565b5060008473ffffffffffffffffffffffffffffffffffffffff1614610a82576040517f08c379a0000000000000000000000000000000000000000000000000000000008152600401610a7990612d7f565b60405180910390fd5b8091505092915050565b60608173ffffffffffffffffffffffffffffffffffffffff166395d89b416040518163ffffffff1660e01b8152600401600060405180830381865afa158015610ad9573d6000803e3d6000fd5b505050506040513d6000823e3d601f19601f82011682018060405250810190610b029190612e96565b9050919050565b60606000600584610b1a9190612edf565b60ff1667ffffffffffffffff811115610b3657610b35612b2c565b5b6040519080825280601f01601f191660200182016040528015610b685781602001600182028036833780820191505090505b5090507f300000000000000000000000000000000000000000000000000000000000000081600081518110610ba057610b9f612bc0565b5b60200101907effffffffffffffffffffffffffffffffffffffffffffffffffffffffffffff1916908160001a9053507f780000000000000000000000000000000000000000000000000000000000000081600181518110610c0457610c03612bc0565b5b60200101907effffffffffffffffffffffffffffffffffffffffffffffffffffffffffffff1916908160001a9053506000600185610c429190612edf565b90508484610c509190612c55565b6004610c5c9190612f16565b60ff168673ffffffffffffffffffffffffffffffffffffffff16901c955060008190505b60018160ff161115610d4f577f3031323334353637383961626364656600000000000000000000000000000000600f881673ffffffffffffffffffffffffffffffffffffffff1660108110610cd857610cd7612bc0565b5b1a60f81b838260ff1681518110610cf257610cf1612bc0565b5b60200101907effffffffffffffffffffffffffffffffffffffffffffffffffffffffffffff1916908160001a90535060048773ffffffffffffffffffffffffffffffffffffffff16901c965080610d4890612f51565b9050610c80565b5060008673ffffffffffffffffffffffffffffffffffffffff1614610da9576040517f08c379a0000000000000000000000000000000000000000000000000000000008152600401610da090612d7f565b60405180910390fd5b7f2e0000000000000000000000000000000000000000000000000000000000000082600183610dd89190612edf565b60ff1681518110610dec57610deb612bc0565b5b60200101907effffffffffffffffffffffffffffffffffffffffffffffffffffffffffffff1916908160001a9053507f2e0000000000000000000000000000000000000000000000000000000000000082600283610e4a9190612edf565b60ff1681518110610e5e57610e5d612bc0565b5b60200101907effffffffffffffffffffffffffffffffffffffffffffffffffffffffffffff1916908160001a9053507f2e0000000000000000000000000000000000000000000000000000000000000082600383610ebc9190612edf565b60ff1681518110610ed057610ecf612bc0565b5b60200101907effffffffffffffffffffffffffffffffffffffffffffffffffffffffffffff1916908160001a90535081925050509392505050565b60608173ffffffffffffffffffffffffffffffffffffffff166395d89b416040518163ffffffff1660e01b8152600401600060405180830381865afa158015610f58573d6000803e3d6000fd5b505050506040513d6000823e3d601f19601f82011682018060405250810190610f819190612e96565b9050919050565b6060611004838373ffffffffffffffffffffffffffffffffffffffff1663313ce5676040518163ffffffff1660e01b8152600401602060405180830381865afa158015610fd9573d6000803e3d6000fd5b505050506040513d601f19601f82011682018060405250810190610ffd9190612c28565b60006113d5565b905092915050565b60606111018473ffffffffffffffffffffffffffffffffffffffff166310780bed856040518263ffffffff1660e01b815260040161104a919061255f565b602060405180830381865afa158015611067573d6000803e3d6000fd5b505050506040513d601f19601f8201168201806040525081019061108b9190612f7b565b8373ffffffffffffffffffffffffffffffffffffffff1663313ce5676040518163ffffffff1660e01b8152600401602060405180830381865afa1580156110d6573d6000803e3d6000fd5b505050506040513d601f19601f820116820180604052508101906110fa9190612c28565b60006113d5565b90509392505050565b606060008060008060008061111e886116cb565b95509550955095509550955061113386610502565b61113c86610502565b61114586610502565b61114e86610502565b61115786610502565b61116086610502565b60405160200161117596959493929190613040565b6040516020818303038152906040529650505050505050919050565b6060604051806101a0016040528061016f81526020016151d961016f91399050919050565b606083838388886040516020016111d195949392919061326e565b604051602081830303815290604052905095945050505050565b606061120582846020015185608001518660c00151611752565b61121384600001518461195f565b61121d8585611b5d565b61122686611c88565b6040516020016112399493929190613504565b604051602081830303815290604052905092915050565b6060600082511415611273576040518060200160405280600081525090506113d0565b600060405180606001604052806040815260200161519960409139905060006003600285516112a29190612847565b6112ac9190612816565b60046112b89190612c89565b905060006020826112c99190612847565b67ffffffffffffffff8111156112e2576112e1612b2c565b5b6040519080825280601f01601f1916602001820160405280156113145781602001600182028036833780820191505090505b509050818152600183018586518101602084015b8183101561138f576003830192508251603f8160121c1685015160f81b8252600182019150603f81600c1c1685015160f81b8252600182019150603f8160061c1685015160f81b8252600182019150603f811685015160f81b825260018201915050611328565b6003895106600181146113a957600281146113b9576113c4565b613d3d60f01b60028303526113c4565b603d60f81b60018303525b50505050508093505050505b919050565b6060600084141561145e5781611420576040518060400160405280600181526020017f3000000000000000000000000000000000000000000000000000000000000000815250611457565b6040518060400160405280600281526020017f30250000000000000000000000000000000000000000000000000000000000008152505b90506116c4565b60008261146c57600061146f565b60015b9050600084600a61148091906136a5565b905060008690506000805b600083146114f85760008160ff1611156114b25780806114aa906136f0565b9150506114d6565b6000600a846114c19190612b8f565b146114d55780806114d1906136f0565b9150505b5b81806114e1906136f0565b925050600a836114f19190612816565b925061148b565b611500612268565b878160e00190151590811515815250508860ff1682846115209190612c55565b60ff161061158057848a6115349190612816565b81600001818152505088836115499190612c55565b816040019060ff16908160ff168152505085816040015161156a9190612edf565b816020019060ff16908160ff1681525050611691565b818361158c9190612c55565b600a61159891906136a5565b8a6115a39190612816565b81600001818152505089851115611648576002816080019060ff16908160ff16815250506002838a6115d59190612c55565b6115df9190612edf565b8160a0019060ff16908160ff16815250508060a00151826116009190612edf565b816040019060ff16908160ff16815250508581604001516116219190612edf565b816020019060ff16908160ff168152505060018160c0019015159081151581525050611690565b6001826116559190612edf565b816040019060ff16908160ff1681525050600189846116749190612c55565b61167e9190612edf565b816060019060ff16908160ff16815250505b5b8581604001516116a19190612edf565b816020019060ff16908160ff16815250506116bb81611cde565b96505050505050505b9392505050565b6000806000806000806116eb62015180886116e69190612816565b61205a565b809650819750829850505050600062015180886117089190612b8f565b9050610e10816117189190612816565b9350610e10816117289190612b8f565b9050603c816117379190612816565b9250603c816117469190612b8f565b91505091939550919395565b60608473ffffffffffffffffffffffffffffffffffffffff166381c30ab784846040518363ffffffff1660e01b815260040161178f92919061371a565b600060405180830381865afa1580156117ac573d6000803e3d6000fd5b505050506040513d6000823e3d601f19601f820116820180604052508101906117d59190612e96565b8573ffffffffffffffffffffffffffffffffffffffff1663822b68976040518163ffffffff1660e01b8152600401600060405180830381865afa158015611820573d6000803e3d6000fd5b505050506040513d6000823e3d601f19601f820116820180604052508101906118499190612e96565b8673ffffffffffffffffffffffffffffffffffffffff1663a9b3636f6040518163ffffffff1660e01b8152600401600060405180830381865afa158015611894573d6000803e3d6000fd5b505050506040513d6000823e3d601f19601f820116820180604052508101906118bd9190612e96565b8773ffffffffffffffffffffffffffffffffffffffff16634cad441a6040518163ffffffff1660e01b8152600401600060405180830381865afa158015611908573d6000803e3d6000fd5b505050506040513d6000823e3d601f19601f820116820180604052508101906119319190612e96565b87604051602001611946959493929190614143565b6040516020818303038152906040529050949350505050565b60608173ffffffffffffffffffffffffffffffffffffffff16637c1881be6040518163ffffffff1660e01b8152600401600060405180830381865afa1580156119ac573d6000803e3d6000fd5b505050506040513d6000823e3d601f19601f820116820180604052508101906119d59190612e96565b8273ffffffffffffffffffffffffffffffffffffffff16632652f3366040518163ffffffff1660e01b8152600401600060405180830381865afa158015611a20573d6000803e3d6000fd5b505050506040513d6000823e3d601f19601f82011682018060405250810190611a499190612e96565b8373ffffffffffffffffffffffffffffffffffffffff1663f99ba69f6040518163ffffffff1660e01b8152600401600060405180830381865afa158015611a94573d6000803e3d6000fd5b505050506040513d6000823e3d601f19601f82011682018060405250810190611abd9190612e96565b858573ffffffffffffffffffffffffffffffffffffffff1663822b68976040518163ffffffff1660e01b8152600401600060405180830381865afa158015611b09573d6000803e3d6000fd5b505050506040513d6000823e3d601f19601f82011682018060405250810190611b329190612e96565b604051602001611b469594939291906148da565b604051602081830303815290604052905092915050565b60608173ffffffffffffffffffffffffffffffffffffffff16634cad441a6040518163ffffffff1660e01b8152600401600060405180830381865afa158015611baa573d6000803e3d6000fd5b505050506040513d6000823e3d601f19601f82011682018060405250810190611bd39190612e96565b8273ffffffffffffffffffffffffffffffffffffffff16635e44e8376040518163ffffffff1660e01b8152600401600060405180830381865afa158015611c1e573d6000803e3d6000fd5b505050506040513d6000823e3d601f19601f82011682018060405250810190611c479190612e96565b8461014001518560a0015186606001518760400151604051602001611c7196959493929190614beb565b604051602081830303815290604052905092915050565b60608161016001518260a001518361010001518460e00151856101200151866101800151876101a00151604051602001611cc89796959493929190614dcc565b6040516020818303038152906040529050919050565b60606000826020015160ff1667ffffffffffffffff811115611d0357611d02612b2c565b5b6040519080825280601f01601f191660200182016040528015611d355781602001600182028036833780820191505090505b5090508260e0015115611db3577f25000000000000000000000000000000000000000000000000000000000000008160018351611d729190612b5b565b81518110611d8357611d82612bc0565b5b60200101907effffffffffffffffffffffffffffffffffffffffffffffffffffffffffffff1916908160001a9053505b8260c0015115611e86577f300000000000000000000000000000000000000000000000000000000000000081600081518110611df257611df1612bc0565b5b60200101907effffffffffffffffffffffffffffffffffffffffffffffffffffffffffffff1916908160001a9053507f2e0000000000000000000000000000000000000000000000000000000000000081600181518110611e5657611e55612bc0565b5b60200101907effffffffffffffffffffffffffffffffffffffffffffffffffffffffffffff1916908160001a9053505b6000836080015160ff1690505b8360a0015160ff16811015611efc57603060f81b828281518110611eba57611eb9612bc0565b5b60200101907effffffffffffffffffffffffffffffffffffffffffffffffffffffffffffff1916908160001a9053508080611ef490612ae3565b915050611e93565b505b600083600001511115612051576000836060015160ff16118015611f2f5750826060015160ff16836040015160ff16145b15611fb4577f2e0000000000000000000000000000000000000000000000000000000000000081846040018051611f6590612f51565b60ff16908160ff1681525060ff1681518110611f8457611f83612bc0565b5b60200101907effffffffffffffffffffffffffffffffffffffffffffffffffffffffffffff1916908160001a9053505b600a8360000151611fc59190612b8f565b6030611fd19190612847565b60f81b81846040018051611fe490612f51565b60ff16908160ff1681525060ff168151811061200357612002612bc0565b5b60200101907effffffffffffffffffffffffffffffffffffffffffffffffffffffffffffff1916908160001a905350600a836000018181516120459190612816565b91508181525050611efe565b80915050919050565b600080600080849050600062253d8c62010bd9836120789190614eef565b6120829190614eef565b9050600062023ab18260046120979190614f83565b6120a1919061509a565b9050600460038262023ab16120b69190614f83565b6120c09190614eef565b6120ca919061509a565b826120d59190615104565b9150600062164b096001846120ea9190614eef565b610fa06120f79190614f83565b612101919061509a565b9050601f6004826105b56121159190614f83565b61211f919061509a565b8461212a9190615104565b6121349190614eef565b9250600061098f8460506121489190614f83565b612152919061509a565b9050600060508261098f6121669190614f83565b612170919061509a565b8561217b9190615104565b9050600b8261218a919061509a565b945084600c6121999190614f83565b6002836121a69190614eef565b6121b09190615104565b915084836031866121c19190615104565b60646121cd9190614f83565b6121d79190614eef565b6121e19190614eef565b92508298508197508096505050505050509193909250565b604051806101c0016040528060608152602001606081526020016060815260200160608152602001606081526020016060815260200160608152602001606081526020016060815260200160608152602001606081526020016060815260200160608152602001606081525090565b60405180610100016040528060008152602001600060ff168152602001600060ff168152602001600060ff168152602001600060ff168152602001600060ff1681526020016000151581526020016000151581525090565b6000604051905090565b600080fd5b600080fd5b600073ffffffffffffffffffffffffffffffffffffffff82169050919050565b60006122ff826122d4565b9050919050565b6000612311826122f4565b9050919050565b61232181612306565b811461232c57600080fd5b50565b60008135905061233e81612318565b92915050565b6000819050919050565b61235781612344565b811461236257600080fd5b50565b6000813590506123748161234e565b92915050565b60008060408385031215612391576123906122ca565b5b600061239f8582860161232f565b92505060206123b085828601612365565b9150509250929050565b600081519050919050565b600082825260208201905092915050565b60005b838110156123f45780820151818401526020810190506123d9565b83811115612403576000848401525b50505050565b6000601f19601f8301169050919050565b6000612425826123ba565b61242f81856123c5565b935061243f8185602086016123d6565b61244881612409565b840191505092915050565b6000602082019050818103600083015261246d818461241a565b905092915050565b6000819050919050565b600061249a612495612490846122d4565b612475565b6122d4565b9050919050565b60006124ac8261247f565b9050919050565b60006124be826124a1565b9050919050565b6124ce816124b3565b82525050565b60006020820190506124e960008301846124c5565b92915050565b7f4e487b7100000000000000000000000000000000000000000000000000000000600052602260045260246000fd5b6000600282049050600182168061253657607f821691505b6020821081141561254a576125496124ef565b5b50919050565b61255981612344565b82525050565b60006020820190506125746000830184612550565b92915050565b60008115159050919050565b61258f8161257a565b811461259a57600080fd5b50565b6000815190506125ac81612586565b92915050565b600061ffff82169050919050565b6125c9816125b2565b81146125d457600080fd5b50565b6000815190506125e6816125c0565b92915050565b600063ffffffff82169050919050565b612605816125ec565b811461261057600080fd5b50565b600081519050612622816125fc565b92915050565b600064ffffffffff82169050919050565b61264281612628565b811461264d57600080fd5b50565b60008151905061265f81612639565b92915050565b61266e816122f4565b811461267957600080fd5b50565b60008151905061268b81612665565b92915050565b60006fffffffffffffffffffffffffffffffff82169050919050565b6126b681612691565b81146126c157600080fd5b50565b6000815190506126d3816126ad565b92915050565b6000815190506126e88161234e565b92915050565b60008060008060008060008060006101208a8c031215612711576127106122ca565b5b600061271f8c828d0161259d565b99505060206127308c828d016125d7565b98505060406127418c828d01612613565b97505060606127528c828d01612650565b96505060806127638c828d0161267c565b95505060a06127748c828d0161267c565b94505060c06127858c828d016126c4565b93505060e06127968c828d016126c4565b9250506101006127a88c828d016126d9565b9150509295985092959850929598565b7f4e487b7100000000000000000000000000000000000000000000000000000000600052601260045260246000fd5b7f4e487b7100000000000000000000000000000000000000000000000000000000600052601160045260246000fd5b600061282182612344565b915061282c83612344565b92508261283c5761283b6127b8565b5b828204905092915050565b600061285282612344565b915061285d83612344565b9250827fffffffffffffffffffffffffffffffffffffffffffffffffffffffffffffffff03821115612892576128916127e7565b5b828201905092915050565b7f7b226e616d65223a220000000000000000000000000000000000000000000000815250565b600081905092915050565b60006128d9826123ba565b6128e381856128c3565b93506128f38185602086016123d6565b80840191505092915050565b7f207469636b657400000000000000000000000000000000000000000000000000815250565b7f2023000000000000000000000000000000000000000000000000000000000000815250565b7f222c20226465736372697074696f6e223a220000000000000000000000000000815250565b7f222c2022696d616765223a202200000000000000000000000000000000000000815250565b7f646174613a696d6167652f7376672b786d6c3b6261736536342c000000000000815250565b7f227d000000000000000000000000000000000000000000000000000000000000815250565b60006129ee8261289d565b6009820191506129fe82886128ce565b9150612a09826128ff565b600782019150612a1882612925565b600282019150612a2882876128ce565b9150612a338261294b565b601282019150612a4382866128ce565b9150612a4f82856128ce565b9150612a5a82612971565b600d82019150612a6982612997565b601a82019150612a7982846128ce565b9150612a84826129bd565b6002820191508190509695505050505050565b7f646174613a6170706c69636174696f6e2f6a736f6e3b6261736536342c000000815250565b6000612ac882612a97565b601d82019150612ad882846128ce565b915081905092915050565b6000612aee82612344565b91507fffffffffffffffffffffffffffffffffffffffffffffffffffffffffffffffff821415612b2157612b206127e7565b5b600182019050919050565b7f4e487b7100000000000000000000000000000000000000000000000000000000600052604160045260246000fd5b6000612b6682612344565b9150612b7183612344565b925082821015612b8457612b836127e7565b5b828203905092915050565b6000612b9a82612344565b9150612ba583612344565b925082612bb557612bb46127b8565b5b828206905092915050565b7f4e487b7100000000000000000000000000000000000000000000000000000000600052603260045260246000fd5b600060ff82169050919050565b612c0581612bef565b8114612c1057600080fd5b50565b600081519050612c2281612bfc565b92915050565b600060208284031215612c3e57612c3d6122ca565b5b6000612c4c84828501612c13565b91505092915050565b6000612c6082612bef565b9150612c6b83612bef565b925082821015612c7e57612c7d6127e7565b5b828203905092915050565b6000612c9482612344565b9150612c9f83612344565b9250817fffffffffffffffffffffffffffffffffffffffffffffffffffffffffffffffff0483118215151615612cd857612cd76127e7565b5b828202905092915050565b6000612cee82612344565b91506000821415612d0257612d016127e7565b5b600182039050919050565b7f486578537472696e67733a20686578206c656e67746820696e7375666669636960008201527f656e740000000000000000000000000000000000000000000000000000000000602082015250565b6000612d696023836123c5565b9150612d7482612d0d565b604082019050919050565b60006020820190508181036000830152612d9881612d5c565b9050919050565b600080fd5b600080fd5b612db282612409565b810181811067ffffffffffffffff82111715612dd157612dd0612b2c565b5b80604052505050565b6000612de46122c0565b9050612df08282612da9565b919050565b600067ffffffffffffffff821115612e1057612e0f612b2c565b5b612e1982612409565b9050602081019050919050565b6000612e39612e3484612df5565b612dda565b905082815260208101848484011115612e5557612e54612da4565b5b612e608482856123d6565b509392505050565b600082601f830112612e7d57612e7c612d9f565b5b8151612e8d848260208601612e26565b91505092915050565b600060208284031215612eac57612eab6122ca565b5b600082015167ffffffffffffffff811115612eca57612ec96122cf565b5b612ed684828501612e68565b91505092915050565b6000612eea82612bef565b9150612ef583612bef565b92508260ff03821115612f0b57612f0a6127e7565b5b828201905092915050565b6000612f2182612bef565b9150612f2c83612bef565b92508160ff0483118215151615612f4657612f456127e7565b5b828202905092915050565b6000612f5c82612bef565b91506000821415612f7057612f6f6127e7565b5b600182039050919050565b600060208284031215612f9157612f906122ca565b5b6000612f9f848285016126d9565b91505092915050565b7f2d00000000000000000000000000000000000000000000000000000000000000815250565b7f2000000000000000000000000000000000000000000000000000000000000000815250565b7f3a00000000000000000000000000000000000000000000000000000000000000815250565b7f2055544300000000000000000000000000000000000000000000000000000000815250565b600061304c82896128ce565b915061305782612fa8565b60018201915061306782886128ce565b915061307282612fa8565b60018201915061308282876128ce565b915061308d82612fce565b60018201915061309d82866128ce565b91506130a882612ff4565b6001820191506130b882856128ce565b91506130c382612ff4565b6001820191506130d382846128ce565b91506130de8261301a565b600482019150819050979650505050505050565b7f5c6e5c6e436f6c6c61746572616c20416464726573733a200000000000000000815250565b7f2028000000000000000000000000000000000000000000000000000000000000815250565b7f295c6e5c6e000000000000000000000000000000000000000000000000000000815250565b7f436f6c6c61746572616c2049443a200000000000000000000000000000000000815250565b7f5c6e5c6e00000000000000000000000000000000000000000000000000000000815250565b7f4c6f616e20417373657420416464726573733a20000000000000000000000000815250565b7f5741524e494e473a20446f20796f7572206f776e20726573656172636820746f60008201527f2076657269667920746865206c65676974696d616379206f662074686520617360208201527f736574732072656c6174656420746f2074686973207469636b65740000000000604082015250565b6000613258605b836128c3565b9150613263826131d6565b605b82019050919050565b6000613279826130f2565b60188201915061328982886128ce565b915061329482613118565b6002820191506132a482876128ce565b91506132af8261313e565b6005820191506132be82613164565b600f820191506132ce82866128ce565b91506132d98261318a565b6004820191506132e8826131b0565b6014820191506132f882856128ce565b915061330382613118565b60028201915061331382846128ce565b915061331e8261313e565b60058201915061332d8261324b565b91508190509695505050505050565b7f3c7376672076657273696f6e3d22312e31222069643d224c617965725f31222060008201527f786d6c6e733d22687474703a2f2f7777772e77332e6f72672f323030302f737660208201527f6722200000000000000000000000000000000000000000000000000000000000604082015250565b60006133be6043836128c3565b91506133c98261333c565b604382019050919050565b7f786d6c6e733a786c696e6b3d22687474703a2f2f7777772e77332e6f72672f3160008201527f3939392f786c696e6b2220783d223070782220793d2230707822200000000000602082015250565b6000613430603b836128c3565b915061343b826133d4565b603b82019050919050565b7f76696577426f783d22302030203330302033303022207374796c653d22656e6160008201527f626c652d6261636b67726f756e643a6e65772030203020333030203330303b2260208201527f20786d6c3a73706163653d227072657365727665223e00000000000000000000604082015250565b60006134c86056836128c3565b91506134d382613446565b605682019050919050565b7f3c2f7376673e0000000000000000000000000000000000000000000000000000815250565b600061350f826133b1565b915061351a82613423565b9150613525826134bb565b915061353182876128ce565b915061353d82866128ce565b915061354982856128ce565b915061355582846128ce565b9150613560826134de565b60068201915081905095945050505050565b60008160011c9050919050565b6000808291508390505b60018511156135c9578086048111156135a5576135a46127e7565b5b60018516156135b45780820291505b80810290506135c285613572565b9450613589565b94509492505050565b6000826135e2576001905061369e565b816135f0576000905061369e565b816001811461360657600281146136105761363f565b600191505061369e565b60ff841115613622576136216127e7565b5b8360020a915084821115613639576136386127e7565b5b5061369e565b5060208310610133831016604e8410600b84101617156136745782820a90508381111561366f5761366e6127e7565b5b61369e565b613681848484600161357f565b92509050818404811115613698576136976127e7565b5b81810290505b9392505050565b60006136b082612344565b91506136bb83612bef565b92506136e87fffffffffffffffffffffffffffffffffffffffffffffffffffffffffffffffff84846135d2565b905092915050565b60006136fb82612bef565b915060ff82141561370f5761370e6127e7565b5b600182019050919050565b60006040820190508181036000830152613734818561241a565b90508181036020830152613748818461241a565b90509392505050565b7f3c7374796c6520747970653d22746578742f637373223e000000000000000000815250565b7f2e7374307b66696c6c3a75726c282377617368293b7d00000000000000000000815250565b7f2e7374317b77696474683a2031373170783b206865696768743a20323370783b60008201527f206f7061636974793a302e36353b2066696c6c3a234646464646463b7d000000602082015250565b60006137f9603d836128c3565b91506138048261379d565b603d82019050919050565b7f2e7374327b77696474683a2031373170783b206865696768743a20323370783b60008201527f206f7061636974793a302e34353b2066696c6c3a234646464646463b7d000000602082015250565b600061386b603d836128c3565b91506138768261380f565b603d82019050919050565b7f2e7374337b77696474683a20393870783b206865696768743a20323370783b2060008201527f6f7061636974793a302e323b2066696c6c3a234646464646463b7d0000000000602082015250565b60006138dd603b836128c3565b91506138e882613881565b603b82019050919050565b7f2e7374347b77696474683a20393870783b206865696768743a20323370783b2060008201527f6f7061636974793a302e33353b2066696c6c3a234646464646463b7d00000000602082015250565b600061394f603c836128c3565b915061395a826138f3565b603c82019050919050565b7f2e7374357b666f6e742d66616d696c793a206d6f6e6f73706163652c206d6f6e60008201527f6f73706163653b20666f6e742d73697a653a20323870783b7d00000000000000602082015250565b60006139c16039836128c3565b91506139cc82613965565b603982019050919050565b7f2e7374377b666f6e742d66616d696c793a206d6f6e6f73706163652c206d6f6e60008201527f6f73706163653b20666f6e742d73697a653a313070783b2066696c6c3a23303060208201527f303030303b206f7061636974793a202e393b7d00000000000000000000000000604082015250565b6000613a596053836128c3565b9150613a64826139d7565b605382019050919050565b7f2e7374387b77696474683a20393870783b206865696768743a20353470783b2060008201527f6f7061636974793a302e33353b2066696c6c3a234646464646463b7d00000000602082015250565b6000613acb603c836128c3565b9150613ad682613a6f565b603c82019050919050565b7f2e7374397b77696474683a2031373170783b206865696768743a20353470783b60008201527f206f7061636974793a302e36353b2066696c6c3a234646464646463b7d000000602082015250565b6000613b3d603d836128c3565b9150613b4882613ae1565b603d82019050919050565b7f2e72696768747b746578742d616e63686f723a20656e643b7d00000000000000815250565b7f2e6c6566747b746578742d616e63686f723a2073746172743b7d000000000000815250565b7f3c2f7374796c653e000000000000000000000000000000000000000000000000815250565b7f3c646566733e0000000000000000000000000000000000000000000000000000815250565b7f3c72616469616c4772616469656e742069643d2277617368222063783d22313260008201527f30222063793d2234302220723d2231343022206772616469656e745472616e7360208201527f666f726d3d22736b657759283529222000000000000000000000000000000000604082015250565b6000613c6d6050836128c3565b9150613c7882613beb565b605082019050919050565b7f6772616469656e74556e6974733d227573657253706163654f6e557365223e00815250565b7f3c73746f7020206f66667365743d2230252220636c6173733d22686967686c6960008201527f6768742d687565222f3e00000000000000000000000000000000000000000000602082015250565b6000613d05602a836128c3565b9150613d1082613ca9565b602a82019050919050565b7f3c73746f7020206f66667365743d22313030252220636c6173733d226869676860008201527f6c696768742d6f6666736574222f3e0000000000000000000000000000000000602082015250565b6000613d77602f836128c3565b9150613d8282613d1b565b602f82019050919050565b7f3c616e696d617465206174747269627574654e616d653d2272222076616c756560008201527f733d223330303b3532303b3332303b3432303b33303022206475723d2232357360208201527f2220726570656174436f756e743d22696e646566696e697465222f3e00000000604082015250565b6000613e0f605c836128c3565b9150613e1a82613d8d565b605c82019050919050565b7f3c616e696d617465206174747269627574654e616d653d226378222076616c7560008201527f65733d223132303b3432303b3236303b3132303b36303b31323022206475723d60208201527f223235732220726570656174436f756e743d22696e646566696e697465222f3e604082015250565b6000613ea76060836128c3565b9150613eb282613e25565b606082019050919050565b7f3c616e696d617465206174747269627574654e616d653d226379222076616c7560008201527f65733d2234303b3330303b34303b3235303b3339303b343022206475723d223260208201527f35732220726570656174436f756e743d22696e646566696e697465222f3e0000604082015250565b6000613f3f605e836128c3565b9150613f4a82613ebd565b605e82019050919050565b7f3c2f72616469616c4772616469656e743e000000000000000000000000000000815250565b7f3c2f646566733e00000000000000000000000000000000000000000000000000815250565b7f3c7265637420783d22302220636c6173733d22737430222077696474683d223360008201527f303022206865696768743d22333030222f3e0000000000000000000000000000602082015250565b6000613ffd6032836128c3565b915061400882613fa1565b603282019050919050565b7f3c7265637420793d2233312220783d2200000000000000000000000000000000815250565b7f222077696474683d2231373122206865696768743d22353422207374796c653d60008201527f226f7061636974793a302e36353b2066696c6c3a234646464646463b222f3e00602082015250565b6000614095603f836128c3565b91506140a082614039565b603f82019050919050565b7f3c7465787420783d220000000000000000000000000000000000000000000000815250565b7f2220793d2236392220636c6173733d2273743520000000000000000000000000815250565b7f222066696c6c3d22626c61636b223e0000000000000000000000000000000000815250565b7f3c2f746578743e00000000000000000000000000000000000000000000000000815250565b600061414e82613751565b60178201915061415d82613777565b60168201915061416c826137ec565b91506141778261385e565b9150614182826138d0565b915061418d82613942565b9150614198826139b4565b91506141a382613a4c565b91506141ae82613abe565b91506141b982613b30565b91506141c482613b53565b6019820191506141d382613b79565b601a820191506141e382886128ce565b91506141ee82613b9f565b6008820191506141fd82613bc5565b60068201915061420c82613c60565b915061421782613c83565b601f8201915061422682613cf8565b915061423182613d6a565b915061423c82613e02565b915061424782613e9a565b915061425282613f32565b915061425d82613f55565b60118201915061426c82613f7b565b60078201915061427b82613ff0565b915061428682614013565b60108201915061429682876128ce565b91506142a182614088565b91506142ac826140ab565b6009820191506142bc82866128ce565b91506142c7826140d1565b6014820191506142d782856128ce565b91506142e2826140f7565b600f820191506142f282846128ce565b91506142fd8261411d565b6007820191508190509695505050505050565b7f3c67207472616e73666f726d3d227472616e736c617465280000000000000000815250565b7f2c3029223e000000000000000000000000000000000000000000000000000000815250565b7f3c7265637420793d2233312220636c6173733d22737438222f3e000000000000815250565b7f3c7265637420793d2238352220636c6173733d22737433222f3e000000000000815250565b7f3c7265637420793d223130382220636c6173733d22737434222f3e0000000000815250565b7f3c7265637420793d223133312220636c6173733d22737433222f3e0000000000815250565b7f3c7265637420793d223135342220636c6173733d22737434222f3e0000000000815250565b7f3c7265637420793d223137372220636c6173733d22737433222f3e0000000000815250565b7f3c7265637420793d223230302220636c6173733d22737434222f3e0000000000815250565b7f3c7265637420793d223232332220636c6173733d22737433222f3e0000000000815250565b7f3c7265637420793d223234362220636c6173733d22737434222f3e0000000000815250565b7f3c2f673e00000000000000000000000000000000000000000000000000000000815250565b7f3c6720636c6173733d2273743720000000000000000000000000000000000000815250565b7f22207472616e73666f726d3d227472616e736c61746528000000000000000000815250565b7f3c7465787420793d223536223e00000000000000000000000000000000000000815250565b7f65723c2f746578743e0000000000000000000000000000000000000000000000815250565b7f3c7465787420793d223730223e5469636b65743c2f746578743e000000000000815250565b7f3c7465787420793d223939223e4c6f616e20416d6f756e743c2f746578743e00815250565b7f3c7465787420793d22313232223e496e74657265737420526174653c2f74657860008201527f743e000000000000000000000000000000000000000000000000000000000000602082015250565b60006146186022836128c3565b9150614623826145bc565b602282019050919050565b7f3c7465787420793d22313435223e5374617475733c2f746578743e0000000000815250565b7f3c7465787420793d22313638223e416363727565643c2f746578743e00000000815250565b7f3c7465787420793d22313931223e436f6c6c61746572616c204e46543c2f746560008201527f78743e0000000000000000000000000000000000000000000000000000000000602082015250565b60006146d66023836128c3565b91506146e18261467a565b602382019050919050565b7f3c7465787420793d22323134223e436f6c6c61746572616c2049443c2f74657860008201527f743e000000000000000000000000000000000000000000000000000000000000602082015250565b60006147486022836128c3565b9150614753826146ec565b602282019050919050565b7f3c7465787420793d22323337223e4475726174696f6e3c2f746578743e000000815250565b7f3c7465787420793d22323630223e456e6420446174653c2f746578743e000000815250565b7f3c7265637420793d223234362220636c6173733d22737431222f3e0000000000815250565b7f3c7265637420793d223232332220636c6173733d22737432222f3e0000000000815250565b7f3c7265637420793d223230302220636c6173733d22737431222f3e0000000000815250565b7f3c7265637420793d223137372220636c6173733d22737432222f3e0000000000815250565b7f3c7265637420793d223135342220636c6173733d22737431222f3e0000000000815250565b7f3c7265637420793d223133312220636c6173733d22737432222f3e0000000000815250565b7f3c7265637420793d223130382220636c6173733d22737431222f3e0000000000815250565b7f3c7265637420793d2238352220636c6173733d22737432222f3e000000000000815250565b60006148e582614310565b6018820191506148f582886128ce565b915061490082614336565b60058201915061490f8261435c565b601a8201915061491e82614382565b601a8201915061492d826143a8565b601b8201915061493c826143ce565b601b8201915061494b826143f4565b601b8201915061495a8261441a565b601b8201915061496982614440565b601b8201915061497882614466565b601b820191506149878261448c565b601b82019150614996826144b2565b6004820191506149a5826144d8565b600e820191506149b582876128ce565b91506149c0826144fe565b6017820191506149d082866128ce565b91506149db82614336565b6005820191506149ea82614524565b600d820191506149fa82856128ce565b9150614a058261454a565b600982019150614a1482614570565b601a82019150614a2382614596565b601f82019150614a328261460b565b9150614a3d8261462e565b601b82019150614a4c82614654565b601c82019150614a5b826146c9565b9150614a668261473b565b9150614a718261475e565b601d82019150614a8082614784565b601d82019150614a8f826144b2565b600482019150614a9e82614310565b601882019150614aae82846128ce565b9150614ab982614336565b600582019150614ac8826147aa565b601b82019150614ad7826147d0565b601b82019150614ae6826147f6565b601b82019150614af58261481c565b601b82019150614b0482614842565b601b82019150614b1382614868565b601b82019150614b228261488e565b601b82019150614b31826148b4565b601a82019150614b40826144b2565b6004820191508190509695505050505050565b7f3c7465787420793d223939223e00000000000000000000000000000000000000815250565b7f3c7465787420793d22313232223e000000000000000000000000000000000000815250565b7f3c7465787420793d22313435223e000000000000000000000000000000000000815250565b7f3c7465787420793d22313638223e000000000000000000000000000000000000815250565b6000614bf6826144d8565b600e82019150614c0682896128ce565b9150614c11826144fe565b601782019150614c2182886128ce565b9150614c2c82614336565b600582019150614c3b82614b53565b600d82019150614c4b82876128ce565b9150614c5682612fce565b600182019150614c6682866128ce565b9150614c718261411d565b600782019150614c8082614b79565b600e82019150614c9082856128ce565b9150614c9b8261411d565b600782019150614caa82614b9f565b600e82019150614cba82846128ce565b9150614cc58261411d565b600782019150614cd482614bc5565b600e82019150819050979650505050505050565b7f3c7465787420793d22313931223e280000000000000000000000000000000000815250565b7f2920000000000000000000000000000000000000000000000000000000000000815250565b7f3c7465787420793d22323134223e000000000000000000000000000000000000815250565b7f3c7465787420793d22323337223e000000000000000000000000000000000000815250565b7f2064617973203c2f746578743e00000000000000000000000000000000000000815250565b7f3c7465787420793d22323630223e000000000000000000000000000000000000815250565b6000614dd8828a6128ce565b9150614de382612fce565b600182019150614df382896128ce565b9150614dfe8261411d565b600782019150614e0d82614ce8565b600f82019150614e1d82886128ce565b9150614e2882614d0e565b600282019150614e3882876128ce565b9150614e438261411d565b600782019150614e5282614d34565b600e82019150614e6282866128ce565b9150614e6d8261411d565b600782019150614e7c82614d5a565b600e82019150614e8c82856128ce565b9150614e9782614d80565b600d82019150614ea682614da6565b600e82019150614eb682846128ce565b9150614ec18261411d565b600782019150614ed0826144b2565b60048201915081905098975050505050505050565b6000819050919050565b6000614efa82614ee5565b9150614f0583614ee5565b9250817f7fffffffffffffffffffffffffffffffffffffffffffffffffffffffffffffff03831360008312151615614f4057614f3f6127e7565b5b817f8000000000000000000000000000000000000000000000000000000000000000038312600083121615614f7857614f776127e7565b5b828201905092915050565b6000614f8e82614ee5565b9150614f9983614ee5565b9250827f7fffffffffffffffffffffffffffffffffffffffffffffffffffffffffffffff0482116000841360008413161615614fd857614fd76127e7565b5b817f80000000000000000000000000000000000000000000000000000000000000000583126000841260008413161615615015576150146127e7565b5b827f80000000000000000000000000000000000000000000000000000000000000000582126000841360008412161615615052576150516127e7565b5b827f7fffffffffffffffffffffffffffffffffffffffffffffffffffffffffffffff058212600084126000841216161561508f5761508e6127e7565b5b828202905092915050565b60006150a582614ee5565b91506150b083614ee5565b9250826150c0576150bf6127b8565b5b600160000383147f8000000000000000000000000000000000000000000000000000000000000000831416156150f9576150f86127e7565b5b828205905092915050565b600061510f82614ee5565b915061511a83614ee5565b9250827f800000000000000000000000000000000000000000000000000000000000000001821260008412151615615155576151546127e7565b5b827f7fffffffffffffffffffffffffffffffffffffffffffffffffffffffffffffff01821360008412161561518d5761518c6127e7565b5b82820390509291505056fe4142434445464748494a4b4c4d4e4f505152535455565758595a6162636465666768696a6b6c6d6e6f707172737475767778797a303132333435363738392b2f5468697320426f72726f77205469636b6574204e465420776173206372656174656420627920746865206465706f736974206f6620616e204e465420696e746f20746865204e4654204c6f616e20466163696c6961746f7220636f6e747261637420746f20736572766520617320636f6c6c61746572616c20666f722061206c6f616e2e20496620746865206c6f616e20697320756e6465727772697474656e2c2066756e64732077696c6c206265207472616e7366657272656420746f2074686520626f72726f77207469636b657420686f6c6465722e20496620746865206c6f616e206973207265706169642c20746865204e465420636f6c6c61746572616c206973207472616e7366657272656420746f2074686520626f72726f77207469636b657420686f6c6465722e20496620746865206c6f616e206973206d61726b656420636c6f7365642c2074686520636f6c6c61746572616c20686173206265656e2077697468647261776e2ea26469706673582212209dc8a05163f1a16b7a6d5415861ce69a08f186587c704addeb927e8b512c530d64736f6c634300080c0033","linkReferences":{}},"methodIdentifiers":{"nftType()":"6fac889b","svgHelper()":"c1329ede","uri(address,uint256)":"28205a93"}}}}}