{"contracts/descriptors/BorrowTicketSVGHelper.sol":{"BorrowTicketSVGHelper":{"abi":[{"type":"function","name":"alignmentClass","inputs":[],"outputs":[{"name":"","type":"string","internalType":"string"}],"stateMutability":"pure"},{"type":"function","name":"backgroundColorsStyles","inputs":[{"name":"collateralAsset","type":"string","internalType":"string"},{"name":"loanAsset","type":"string","internalType":"string"}],"outputs":[{"name":"","type":"string","internalType":"string"}],"stateMutability":"pure"},{"type":"function","name":"backgroundTitleRectsXTranslate","inputs":[],"outputs":[{"name":"","type":"string","internalType":"string"}],"stateMutability":"pure"},{"type":"function","name":"backgroundValueRectsXTranslate","inputs":[],"outputs":[{"name":"","type":"string","internalType":"string"}],"stateMutability":"pure"},{"type":"function","name":"ticketIdXCoordinate","inputs":[],"outputs":[{"name":"","type":"string","internalType":"string"}],"stateMutability":"pure"},{"type":"function","name":"titlesPositionClass","inputs":[],"outputs":[{"name":"","type":"string","internalType":"string"}],"stateMutability":"pure"},{"type":"function","name":"titlesXTranslate","inputs":[],"outputs":[{"name":"","type":"string","internalType":"string"}],"stateMutability":"pure"},{"type":"function","name":"valuesXTranslate","inputs":[],"outputs":[{"name":"","type":"string","internalType":"string"}],"stateMutability":"pure"}],"userdoc":{},"devdoc":{},"evm":{"bytecode":{"object":"608060405234801561001057600080fd5b50610d47806100206000396000f3fe608060405234801561001057600080fd5b50600436106100885760003560e01c806381c30ab71161005b57806381c30ab714610105578063822b689714610135578063a9b3636f14610153578063f99ba69f1461017157610088565b80632652f3361461008d5780634cad441a146100ab5780635e44e837146100c95780637c1881be146100e7575b600080fd5b61009561018f565b6040516100a291906106c3565b60405180910390f35b6100b36101cc565b6040516100c091906106c3565b60405180910390f35b6100d1610209565b6040516100de91906106c3565b60405180910390f35b6100ef610246565b6040516100fc91906106c3565b60405180910390f35b61011f600480360381019061011a919061082e565b610283565b60405161012c91906106c3565b60405180910390f35b61013d610297565b60405161014a91906106c3565b60405180910390f35b61015b6102d4565b60405161016891906106c3565b60405180910390f35b610179610311565b60405161018691906106c3565b60405180910390f35b60606040518060400160405280600581526020017f7269676874000000000000000000000000000000000000000000000000000000815250905090565b60606040518060400160405280600481526020017f6c65667400000000000000000000000000000000000000000000000000000000815250905090565b60606040518060400160405280600381526020017f3133360000000000000000000000000000000000000000000000000000000000815250905090565b60606040518060400160405280600281526020017f3331000000000000000000000000000000000000000000000000000000000000815250905090565b606061028f838361034e565b905092915050565b60606040518060400160405280600381526020017f3132390000000000000000000000000000000000000000000000000000000000815250905090565b60606040518060400160405280600381526020017f3133340000000000000000000000000000000000000000000000000000000000815250905090565b60606040518060400160405280600381526020017f3132310000000000000000000000000000000000000000000000000000000000815250905090565b60606103598361038a565b6103628361038a565b604051602001610373929190610954565b604051602081830303815290604052905092915050565b606060008260405160200161039f91906109b4565b6040516020818303038152906040528051906020012090506000610168826001602081106103d0576103cf6109cb565b5b1a60f81b60f81c60ff16836000602081106103ee576103ed6109cb565b5b1a60f81b60f81c60ff166104029190610a33565b61040c9190610ab8565b90506000601483600260208110610426576104256109cb565b5b1a60f81b60f81c6104379190610af6565b60506104439190610b27565b60ff1690506000600a846003602081106104605761045f6109cb565b5b1a60f81b60f81c6104719190610af6565b605061047d9190610b27565b60ff16905061048b836104c9565b610494836104c9565b61049d836104c9565b6040516020016104af93929190610bf6565b604051602081830303815290604052945050505050919050565b60606000821415610511576040518060400160405280600181526020017f30000000000000000000000000000000000000000000000000000000000000008152509050610625565b600082905060005b6000821461054357808061052c90610c63565b915050600a8261053c9190610cac565b9150610519565b60008167ffffffffffffffff81111561055f5761055e610703565b5b6040519080825280601f01601f1916602001820160405280156105915781602001600182028036833780820191505090505b5090505b6000851461061e576001826105aa9190610cdd565b9150600a856105b99190610ab8565b60306105c59190610a33565b60f81b8183815181106105db576105da6109cb565b5b60200101907effffffffffffffffffffffffffffffffffffffffffffffffffffffffffffff1916908160001a905350600a856106179190610cac565b9450610595565b8093505050505b919050565b600081519050919050565b600082825260208201905092915050565b60005b83811015610664578082015181840152602081019050610649565b83811115610673576000848401525b50505050565b6000601f19601f8301169050919050565b60006106958261062a565b61069f8185610635565b93506106af818560208601610646565b6106b881610679565b840191505092915050565b600060208201905081810360008301526106dd818461068a565b905092915050565b6000604051905090565b600080fd5b600080fd5b600080fd5b600080fd5b7f4e487b7100000000000000000000000000000000000000000000000000000000600052604160045260246000fd5b61073b82610679565b810181811067ffffffffffffffff8211171561075a57610759610703565b5b80604052505050565b600061076d6106e5565b90506107798282610732565b919050565b600067ffffffffffffffff82111561079957610798610703565b5b6107a282610679565b9050602081019050919050565b82818337600083830152505050565b60006107d16107cc8461077e565b610763565b9050828152602081018484840111156107ed576107ec6106fe565b5b6107f88482856107af565b509392505050565b600082601f830112610815576108146106f9565b5b81356108258482602086016107be565b91505092915050565b60008060408385031215610845576108446106ef565b5b600083013567ffffffffffffffff811115610863576108626106f4565b5b61086f85828601610800565b925050602083013567ffffffffffffffff8111156108905761088f6106f4565b5b61089c85828601610800565b9150509250929050565b7f2e686967686c696768742d6875657b73746f702d636f6c6f723a000000000000815250565b600081905092915050565b60006108e28261062a565b6108ec81856108cc565b93506108fc818560208601610646565b80840191505092915050565b7f7d00000000000000000000000000000000000000000000000000000000000000815250565b7f2e686967686c696768742d6f66667365747b73746f702d636f6c6f723a000000815250565b600061095f826108a6565b601a8201915061096f82856108d7565b915061097a82610908565b6001820191506109898261092e565b601d8201915061099982846108d7565b91506109a482610908565b6001820191508190509392505050565b60006109c082846108d7565b915081905092915050565b7f4e487b7100000000000000000000000000000000000000000000000000000000600052603260045260246000fd5b6000819050919050565b7f4e487b7100000000000000000000000000000000000000000000000000000000600052601160045260246000fd5b6000610a3e826109fa565b9150610a49836109fa565b9250827fffffffffffffffffffffffffffffffffffffffffffffffffffffffffffffffff03821115610a7e57610a7d610a04565b5b828201905092915050565b7f4e487b7100000000000000000000000000000000000000000000000000000000600052601260045260246000fd5b6000610ac3826109fa565b9150610ace836109fa565b925082610ade57610add610a89565b5b828206905092915050565b600060ff82169050919050565b6000610b0182610ae9565b9150610b0c83610ae9565b925082610b1c57610b1b610a89565b5b828206905092915050565b6000610b3282610ae9565b9150610b3d83610ae9565b92508260ff03821115610b5357610b52610a04565b5b828201905092915050565b7f68736c2800000000000000000000000000000000000000000000000000000000815250565b7f2c00000000000000000000000000000000000000000000000000000000000000815250565b7f252c000000000000000000000000000000000000000000000000000000000000815250565b7f2529000000000000000000000000000000000000000000000000000000000000815250565b6000610c0182610b5e565b600482019150610c1182866108d7565b9150610c1c82610b84565b600182019150610c2c82856108d7565b9150610c3782610baa565b600282019150610c4782846108d7565b9150610c5282610bd0565b600282019150819050949350505050565b6000610c6e826109fa565b91507fffffffffffffffffffffffffffffffffffffffffffffffffffffffffffffffff821415610ca157610ca0610a04565b5b600182019050919050565b6000610cb7826109fa565b9150610cc2836109fa565b925082610cd257610cd1610a89565b5b828204905092915050565b6000610ce8826109fa565b9150610cf3836109fa565b925082821015610d0657610d05610a04565b5b82820390509291505056fea2646970667358221220e7a4090b69001fc52b6468c07131d2af458675ebcb9b9a58d0b893d740adc47a64736f6c634300080c0033","linkReferences":{}},"methodIdentifiers":{"alignmentClass()":"4cad441a","backgroundColorsStyles(string,string)":"81c30ab7","backgroundTitleRectsXTranslate()":"7c1881be","backgroundValueRectsXTranslate()":"822b6897","ticketIdXCoordinate()":"a9b3636f","titlesPositionClass()":"2652f336","titlesXTranslate()":"f99ba69f","valuesXTranslate()":"5e44e837"}}}}}