{"contracts/BorrowTicket.sol":{"BorrowTicket":{"abi":[{"type":"constructor","inputs":[{"name":"_nftLoanFacilitator","type":"address","internalType":"contract NFTLoanFacilitator"},{"name":"_descriptor","type":"address","internalType":"contract NFTLoansTicketDescriptor"}],"stateMutability":"nonpayable"},{"type":"function","name":"approve","inputs":[{"name":"spender","type":"address","internalType":"address"},{"name":"id","type":"uint256","internalType":"uint256"}],"outputs":[],"stateMutability":"nonpayable"},{"type":"function","name":"balanceOf","inputs":[{"name":"","type":"address","internalType":"address"}],"outputs":[{"name":"","type":"uint256","internalType":"uint256"}],"stateMutability":"view"},{"type":"function","name":"descriptor","inputs":[],"outputs":[{"name":"","type":"address","internalType":"contract NFTLoansTicketDescriptor"}],"stateMutability":"view"},{"type":"function","name":"getApproved","inputs":[{"name":"","type":"uint256","internalType":"uint256"}],"outputs":[{"name":"","type":"address","internalType":"address"}],"stateMutability":"view"},{"type":"function","name":"isApprovedForAll","inputs":[{"name":"","type":"address","internalType":"address"},{"name":"","type":"address","internalType":"address"}],"outputs":[{"name":"","type":"bool","internalType":"bool"}],"stateMutability":"view"},{"type":"function","name":"mint","inputs":[{"name":"to","type":"address","internalType":"address"},{"name":"tokenId","type":"uint256","internalType":"uint256"}],"outputs":[],"stateMutability":"nonpayable"},{"type":"function","name":"name","inputs":[],"outputs":[{"name":"","type":"string","internalType":"string"}],"stateMutability":"view"},{"type":"function","name":"nftLoanFacilitator","inputs":[],"outputs":[{"name":"","type":"address","internalType":"contract NFTLoanFacilitator"}],"stateMutability":"view"},{"type":"function","name":"ownerOf","inputs":[{"name":"","type":"uint256","internalType":"uint256"}],"outputs":[{"name":"","type":"address","internalType":"address"}],"stateMutability":"view"},{"type":"function","name":"safeTransferFrom","inputs":[{"name":"from","type":"address","internalType":"address"},{"name":"to","type":"address","internalType":"address"},{"name":"id","type":"uint256","internalType":"uint256"}],"outputs":[],"stateMutability":"nonpayable"},{"type":"function","name":"safeTransferFrom","inputs":[{"name":"from","type":"address","internalType":"address"},{"name":"to","type":"address","internalType":"address"},{"name":"id","type":"uint256","internalType":"uint256"},{"name":"data","type":"bytes","internalType":"bytes"}],"outputs":[],"stateMutability":"nonpayable"},{"type":"function","name":"setApprovalForAll","inputs":[{"name":"operator","type":"address","internalType":"address"},{"name":"approved","type":"bool","internalType":"bool"}],"outputs":[],"stateMutability":"nonpayable"},{"type":"function","name":"supportsInterface","inputs":[{"name":"interfaceId","type":"bytes4","internalType":"bytes4"}],"outputs":[{"name":"","type":"bool","internalType":"bool"}],"stateMutability":"pure"},{"type":"function","name":"symbol","inputs":[],"outputs":[{"name":"","type":"string","internalType":"string"}],"stateMutability":"view"},{"type":"function","name":"tokenURI","inputs":[{"name":"tokenId","type":"uint256","internalType":"uint256"}],"outputs":[{"name":"","type":"string","internalType":"string"}],"stateMutability":"view"},{"type":"function","name":"transferFrom","inputs":[{"name":"from","type":"address","internalType":"address"},{"name":"to","type":"address","internalType":"address"},{"name":"id","type":"uint256","internalType":"uint256"}],"outputs":[],"stateMutability":"nonpayable"},{"type":"event","name":"Approval","inputs":[{"name":"owner","type":"address","indexed":true,"internalType":"address"},{"name":"spender","type":"address","indexed":true,"internalType":"address"},{"name":"id","type":"uint256","indexed":true,"internalType":"uint256"}],"anonymous":false},{"type":"event","name":"ApprovalForAll","inputs":[{"name":"owner","type":"address","indexed":true,"internalType":"address"},{"name":"operator","type":"address","indexed":true,"internalType":"address"},{"name":"approved","type":"bool","indexed":false,"internalType":"bool"}],"anonymous":false},{"type":"event","name":"Transfer","inputs":[{"name":"from","type":"address","indexed":true,"internalType":"address"},{"name":"to","type":"address","indexed":true,"internalType":"address"},{"name":"id","type":"uint256","indexed":true,"internalType":"uint256"}],"anonymous":false}],"userdoc":{},"devdoc":{},"evm":{"bytecode":{"object":"60c06040523480156200001157600080fd5b5060405162002287380380620022878339818101604052810190620000379190620002c2565b6040518060400160405280600d81526020017f426f72726f77205469636b6574000000000000000000000000000000000000008152506040518060400160405280600481526020017f4252575400000000000000000000000000000000000000000000000000000000815250838383838160009080519060200190620000bf9291906200014f565b508060019080519060200190620000d89291906200014f565b5050508173ffffffffffffffffffffffffffffffffffffffff1660808173ffffffffffffffffffffffffffffffffffffffff16815250508073ffffffffffffffffffffffffffffffffffffffff1660a08173ffffffffffffffffffffffffffffffffffffffff16815250505050505050506200036e565b8280546200015d9062000338565b90600052602060002090601f016020900481019282620001815760008555620001cd565b82601f106200019c57805160ff1916838001178555620001cd565b82800160010185558215620001cd579182015b82811115620001cc578251825591602001919060010190620001af565b5b509050620001dc9190620001e0565b5090565b5b80821115620001fb576000816000905550600101620001e1565b5090565b600080fd5b600073ffffffffffffffffffffffffffffffffffffffff82169050919050565b6000620002318262000204565b9050919050565b6000620002458262000224565b9050919050565b620002578162000238565b81146200026357600080fd5b50565b60008151905062000277816200024c565b92915050565b60006200028a8262000224565b9050919050565b6200029c816200027d565b8114620002a857600080fd5b50565b600081519050620002bc8162000291565b92915050565b60008060408385031215620002dc57620002db620001ff565b5b6000620002ec8582860162000266565b9250506020620002ff85828601620002ab565b9150509250929050565b7f4e487b7100000000000000000000000000000000000000000000000000000000600052602260045260246000fd5b600060028204905060018216806200035157607f821691505b6020821081141562000368576200036762000309565b5b50919050565b60805160a051611ede620003a960003960008181610aa70152610fb201526000818161046701528181610acb0152610fee0152611ede6000f3fe608060405234801561001057600080fd5b50600436106101005760003560e01c806342842e0e11610097578063a22cb46511610066578063a22cb465146102ad578063b88d4fde146102c9578063c87b56dd146102e5578063e985e9c51461031557610100565b806342842e0e146102135780636352211e1461022f57806370a082311461025f57806395d89b411461028f57610100565b8063095ea7b3116100d3578063095ea7b3146101a157806323b872dd146101bd578063303e74df146101d957806340c10f19146101f757610100565b806301ffc9a71461010557806306fdde03146101355780630793e9c814610153578063081812fc14610171575b600080fd5b61011f600480360381019061011a9190611326565b610345565b60405161012c919061136e565b60405180910390f35b61013d6103d7565b60405161014a9190611422565b60405180910390f35b61015b610465565b60405161016891906114c3565b60405180910390f35b61018b60048036038101906101869190611514565b610489565b6040516101989190611562565b60405180910390f35b6101bb60048036038101906101b691906115a9565b6104bc565b005b6101d760048036038101906101d291906115e9565b6106a5565b005b6101e1610aa5565b6040516101ee919061165d565b60405180910390f35b610211600480360381019061020c91906115a9565b610ac9565b005b61022d600480360381019061022891906115e9565b610b65565b005b61024960048036038101906102449190611514565b610c9d565b6040516102569190611562565b60405180910390f35b61027960048036038101906102749190611678565b610cd0565b60405161028691906116b4565b60405180910390f35b610297610ce8565b6040516102a49190611422565b60405180910390f35b6102c760048036038101906102c291906116fb565b610d76565b005b6102e360048036038101906102de9190611870565b610e73565b005b6102ff60048036038101906102fa9190611514565b610fae565b60405161030c9190611422565b60405180910390f35b61032f600480360381019061032a91906118f3565b611078565b60405161033c919061136e565b60405180910390f35b60006301ffc9a760e01b827bffffffffffffffffffffffffffffffffffffffffffffffffffffffff191614806103a057506380ac58cd60e01b827bffffffffffffffffffffffffffffffffffffffffffffffffffffffff1916145b806103d05750635b5e139f60e01b827bffffffffffffffffffffffffffffffffffffffffffffffffffffffff1916145b9050919050565b600080546103e490611962565b80601f016020809104026020016040519081016040528092919081815260200182805461041090611962565b801561045d5780601f106104325761010080835404028352916020019161045d565b820191906000526020600020905b81548152906001019060200180831161044057829003601f168201915b505050505081565b7f000000000000000000000000000000000000000000000000000000000000000081565b60046020528060005260406000206000915054906101000a900473ffffffffffffffffffffffffffffffffffffffff1681565b60006003600083815260200190815260200160002060009054906101000a900473ffffffffffffffffffffffffffffffffffffffff1690508073ffffffffffffffffffffffffffffffffffffffff163373ffffffffffffffffffffffffffffffffffffffff1614806105b45750600560008273ffffffffffffffffffffffffffffffffffffffff1673ffffffffffffffffffffffffffffffffffffffff16815260200190815260200160002060003373ffffffffffffffffffffffffffffffffffffffff1673ffffffffffffffffffffffffffffffffffffffff16815260200190815260200160002060009054906101000a900460ff165b6105f3576040517f08c379a00000000000000000000000000000000000000000000000000000000081526004016105ea906119e0565b60405180910390fd5b826004600084815260200190815260200160002060006101000a81548173ffffffffffffffffffffffffffffffffffffffff021916908373ffffffffffffffffffffffffffffffffffffffff160217905550818373ffffffffffffffffffffffffffffffffffffffff168273ffffffffffffffffffffffffffffffffffffffff167f8c5be1e5ebec7d5bd14f71427d1e84f3dd0314c0f7b2291e5b200ac8c7c3b92560405160405180910390a4505050565b6003600082815260200190815260200160002060009054906101000a900473ffffffffffffffffffffffffffffffffffffffff1673ffffffffffffffffffffffffffffffffffffffff168373ffffffffffffffffffffffffffffffffffffffff1614610746576040517f08c379a000000000000000000000000000000000000000000000000000000000815260040161073d90611a4c565b60405180910390fd5b600073ffffffffffffffffffffffffffffffffffffffff168273ffffffffffffffffffffffffffffffffffffffff1614156107b6576040517f08c379a00000000000000000000000000000000000000000000000000000000081526004016107ad90611ab8565b60405180910390fd5b8273ffffffffffffffffffffffffffffffffffffffff163373ffffffffffffffffffffffffffffffffffffffff16148061084e57506004600082815260200190815260200160002060009054906101000a900473ffffffffffffffffffffffffffffffffffffffff1673ffffffffffffffffffffffffffffffffffffffff163373ffffffffffffffffffffffffffffffffffffffff16145b806108df5750600560008473ffffffffffffffffffffffffffffffffffffffff1673ffffffffffffffffffffffffffffffffffffffff16815260200190815260200160002060003373ffffffffffffffffffffffffffffffffffffffff1673ffffffffffffffffffffffffffffffffffffffff16815260200190815260200160002060009054906101000a900460ff165b61091e576040517f08c379a0000000000000000000000000000000000000000000000000000000008152600401610915906119e0565b60405180910390fd5b600260008473ffffffffffffffffffffffffffffffffffffffff1673ffffffffffffffffffffffffffffffffffffffff1681526020019081526020016000206000815480929190600190039190505550600260008373ffffffffffffffffffffffffffffffffffffffff1673ffffffffffffffffffffffffffffffffffffffff16815260200190815260200160002060008154809291906001019190505550816003600083815260200190815260200160002060006101000a81548173ffffffffffffffffffffffffffffffffffffffff021916908373ffffffffffffffffffffffffffffffffffffffff1602179055506004600082815260200190815260200160002060006101000a81549073ffffffffffffffffffffffffffffffffffffffff0219169055808273ffffffffffffffffffffffffffffffffffffffff168473ffffffffffffffffffffffffffffffffffffffff167fddf252ad1be2c89b69c2b068fc378daa952ba7f163c4a11628f55a4df523b3ef60405160405180910390a4505050565b7f000000000000000000000000000000000000000000000000000000000000000081565b7f000000000000000000000000000000000000000000000000000000000000000073ffffffffffffffffffffffffffffffffffffffff163373ffffffffffffffffffffffffffffffffffffffff1614610b57576040517f08c379a0000000000000000000000000000000000000000000000000000000008152600401610b4e90611b4a565b60405180910390fd5b610b6182826110a7565b5050565b610b708383836106a5565b60008273ffffffffffffffffffffffffffffffffffffffff163b1480610c59575063150b7a0260e01b7bffffffffffffffffffffffffffffffffffffffffffffffffffffffff19168273ffffffffffffffffffffffffffffffffffffffff1663150b7a023386856040518463ffffffff1660e01b8152600401610bf593929190611ba1565b6020604051808303816000875af1158015610c14573d6000803e3d6000fd5b505050506040513d601f19601f82011682018060405250810190610c389190611c00565b7bffffffffffffffffffffffffffffffffffffffffffffffffffffffff1916145b610c98576040517f08c379a0000000000000000000000000000000000000000000000000000000008152600401610c8f90611c79565b60405180910390fd5b505050565b60036020528060005260406000206000915054906101000a900473ffffffffffffffffffffffffffffffffffffffff1681565b60026020528060005260406000206000915090505481565b60018054610cf590611962565b80601f0160208091040260200160405190810160405280929190818152602001828054610d2190611962565b8015610d6e5780601f10610d4357610100808354040283529160200191610d6e565b820191906000526020600020905b815481529060010190602001808311610d5157829003601f168201915b505050505081565b80600560003373ffffffffffffffffffffffffffffffffffffffff1673ffffffffffffffffffffffffffffffffffffffff16815260200190815260200160002060008473ffffffffffffffffffffffffffffffffffffffff1673ffffffffffffffffffffffffffffffffffffffff16815260200190815260200160002060006101000a81548160ff0219169083151502179055508173ffffffffffffffffffffffffffffffffffffffff163373ffffffffffffffffffffffffffffffffffffffff167f17307eab39ab6107e8899845ad3d59bd9653f200f220920489ca2b5937696c3183604051610e67919061136e565b60405180910390a35050565b610e7e8484846106a5565b60008373ffffffffffffffffffffffffffffffffffffffff163b1480610f69575063150b7a0260e01b7bffffffffffffffffffffffffffffffffffffffffffffffffffffffff19168373ffffffffffffffffffffffffffffffffffffffff1663150b7a02338786866040518563ffffffff1660e01b8152600401610f059493929190611cdd565b6020604051808303816000875af1158015610f24573d6000803e3d6000fd5b505050506040513d601f19601f82011682018060405250810190610f489190611c00565b7bffffffffffffffffffffffffffffffffffffffffffffffffffffffff1916145b610fa8576040517f08c379a0000000000000000000000000000000000000000000000000000000008152600401610f9f90611c79565b60405180910390fd5b50505050565b60607f000000000000000000000000000000000000000000000000000000000000000073ffffffffffffffffffffffffffffffffffffffff166328205a937f0000000000000000000000000000000000000000000000000000000000000000846040518363ffffffff1660e01b815260040161102b929190611d29565b600060405180830381865afa158015611048573d6000803e3d6000fd5b505050506040513d6000823e3d601f19601f820116820180604052508101906110719190611df3565b9050919050565b60056020528160005260406000206020528060005260406000206000915091509054906101000a900460ff1681565b600073ffffffffffffffffffffffffffffffffffffffff168273ffffffffffffffffffffffffffffffffffffffff161415611117576040517f08c379a000000000000000000000000000000000000000000000000000000000815260040161110e90611ab8565b60405180910390fd5b600073ffffffffffffffffffffffffffffffffffffffff166003600083815260200190815260200160002060009054906101000a900473ffffffffffffffffffffffffffffffffffffffff1673ffffffffffffffffffffffffffffffffffffffff16146111b9576040517f08c379a00000000000000000000000000000000000000000000000000000000081526004016111b090611e88565b60405180910390fd5b600260008373ffffffffffffffffffffffffffffffffffffffff1673ffffffffffffffffffffffffffffffffffffffff16815260200190815260200160002060008154809291906001019190505550816003600083815260200190815260200160002060006101000a81548173ffffffffffffffffffffffffffffffffffffffff021916908373ffffffffffffffffffffffffffffffffffffffff160217905550808273ffffffffffffffffffffffffffffffffffffffff16600073ffffffffffffffffffffffffffffffffffffffff167fddf252ad1be2c89b69c2b068fc378daa952ba7f163c4a11628f55a4df523b3ef60405160405180910390a45050565b6000604051905090565b600080fd5b600080fd5b60007fffffffff0000000000000000000000000000000000000000000000000000000082169050919050565b611303816112ce565b811461130e57600080fd5b50565b600081359050611320816112fa565b92915050565b60006020828403121561133c5761133b6112c4565b5b600061134a84828501611311565b91505092915050565b60008115159050919050565b61136881611353565b82525050565b6000602082019050611383600083018461135f565b92915050565b600081519050919050565b600082825260208201905092915050565b60005b838110156113c35780820151818401526020810190506113a8565b838111156113d2576000848401525b50505050565b6000601f19601f8301169050919050565b60006113f482611389565b6113fe8185611394565b935061140e8185602086016113a5565b611417816113d8565b840191505092915050565b6000602082019050818103600083015261143c81846113e9565b905092915050565b600073ffffffffffffffffffffffffffffffffffffffff82169050919050565b6000819050919050565b600061148961148461147f84611444565b611464565b611444565b9050919050565b600061149b8261146e565b9050919050565b60006114ad82611490565b9050919050565b6114bd816114a2565b82525050565b60006020820190506114d860008301846114b4565b92915050565b6000819050919050565b6114f1816114de565b81146114fc57600080fd5b50565b60008135905061150e816114e8565b92915050565b60006020828403121561152a576115296112c4565b5b6000611538848285016114ff565b91505092915050565b600061154c82611444565b9050919050565b61155c81611541565b82525050565b60006020820190506115776000830184611553565b92915050565b61158681611541565b811461159157600080fd5b50565b6000813590506115a38161157d565b92915050565b600080604083850312156115c0576115bf6112c4565b5b60006115ce85828601611594565b92505060206115df858286016114ff565b9150509250929050565b600080600060608486031215611602576116016112c4565b5b600061161086828701611594565b935050602061162186828701611594565b9250506040611632868287016114ff565b9150509250925092565b600061164782611490565b9050919050565b6116578161163c565b82525050565b6000602082019050611672600083018461164e565b92915050565b60006020828403121561168e5761168d6112c4565b5b600061169c84828501611594565b91505092915050565b6116ae816114de565b82525050565b60006020820190506116c960008301846116a5565b92915050565b6116d881611353565b81146116e357600080fd5b50565b6000813590506116f5816116cf565b92915050565b60008060408385031215611712576117116112c4565b5b600061172085828601611594565b9250506020611731858286016116e6565b9150509250929050565b600080fd5b600080fd5b7f4e487b7100000000000000000000000000000000000000000000000000000000600052604160045260246000fd5b61177d826113d8565b810181811067ffffffffffffffff8211171561179c5761179b611745565b5b80604052505050565b60006117af6112ba565b90506117bb8282611774565b919050565b600067ffffffffffffffff8211156117db576117da611745565b5b6117e4826113d8565b9050602081019050919050565b82818337600083830152505050565b600061181361180e846117c0565b6117a5565b90508281526020810184848401111561182f5761182e611740565b5b61183a8482856117f1565b509392505050565b600082601f8301126118575761185661173b565b5b8135611867848260208601611800565b91505092915050565b6000806000806080858703121561188a576118896112c4565b5b600061189887828801611594565b94505060206118a987828801611594565b93505060406118ba878288016114ff565b925050606085013567ffffffffffffffff8111156118db576118da6112c9565b5b6118e787828801611842565b91505092959194509250565b6000806040838503121561190a576119096112c4565b5b600061191885828601611594565b925050602061192985828601611594565b9150509250929050565b7f4e487b7100000000000000000000000000000000000000000000000000000000600052602260045260246000fd5b6000600282049050600182168061197a57607f821691505b6020821081141561198e5761198d611933565b5b50919050565b7f4e4f545f415554484f52495a4544000000000000000000000000000000000000600082015250565b60006119ca600e83611394565b91506119d582611994565b602082019050919050565b600060208201905081810360008301526119f9816119bd565b9050919050565b7f57524f4e475f46524f4d00000000000000000000000000000000000000000000600082015250565b6000611a36600a83611394565b9150611a4182611a00565b602082019050919050565b60006020820190508181036000830152611a6581611a29565b9050919050565b7f494e56414c49445f524543495049454e54000000000000000000000000000000600082015250565b6000611aa2601183611394565b9150611aad82611a6c565b602082019050919050565b60006020820190508181036000830152611ad181611a95565b9050919050565b7f4e46544c6f616e5469636b65743a206f6e6c79206c6f616e20666163696c697460008201527f61746f7200000000000000000000000000000000000000000000000000000000602082015250565b6000611b34602483611394565b9150611b3f82611ad8565b604082019050919050565b60006020820190508181036000830152611b6381611b27565b9050919050565b600082825260208201905092915050565b50565b6000611b8b600083611b6a565b9150611b9682611b7b565b600082019050919050565b6000608082019050611bb66000830186611553565b611bc36020830185611553565b611bd060408301846116a5565b8181036060830152611be181611b7e565b9050949350505050565b600081519050611bfa816112fa565b92915050565b600060208284031215611c1657611c156112c4565b5b6000611c2484828501611beb565b91505092915050565b7f554e534146455f524543495049454e5400000000000000000000000000000000600082015250565b6000611c63601083611394565b9150611c6e82611c2d565b602082019050919050565b60006020820190508181036000830152611c9281611c56565b9050919050565b600081519050919050565b6000611caf82611c99565b611cb98185611b6a565b9350611cc98185602086016113a5565b611cd2816113d8565b840191505092915050565b6000608082019050611cf26000830187611553565b611cff6020830186611553565b611d0c60408301856116a5565b8181036060830152611d1e8184611ca4565b905095945050505050565b6000604082019050611d3e60008301856114b4565b611d4b60208301846116a5565b9392505050565b600067ffffffffffffffff821115611d6d57611d6c611745565b5b611d76826113d8565b9050602081019050919050565b6000611d96611d9184611d52565b6117a5565b905082815260208101848484011115611db257611db1611740565b5b611dbd8482856113a5565b509392505050565b600082601f830112611dda57611dd961173b565b5b8151611dea848260208601611d83565b91505092915050565b600060208284031215611e0957611e086112c4565b5b600082015167ffffffffffffffff811115611e2757611e266112c9565b5b611e3384828501611dc5565b91505092915050565b7f414c52454144595f4d494e544544000000000000000000000000000000000000600082015250565b6000611e72600e83611394565b9150611e7d82611e3c565b602082019050919050565b60006020820190508181036000830152611ea181611e65565b905091905056fea26469706673582212204fe006d710b90353485d75096d7da70ebd93da6b60fac88194fdec27fca66d6064736f6c634300080c0033","linkReferences":{}},"methodIdentifiers":{"approve(address,uint256)":"095ea7b3","balanceOf(address)":"70a08231","descriptor()":"303e74df","getApproved(uint256)":"081812fc","isApprovedForAll(address,address)":"e985e9c5","mint(address,uint256)":"40c10f19","name()":"06fdde03","nftLoanFacilitator()":"0793e9c8","ownerOf(uint256)":"6352211e","safeTransferFrom(address,address,uint256)":"42842e0e","safeTransferFrom(address,address,uint256,bytes)":"b88d4fde","setApprovalForAll(address,bool)":"a22cb465","supportsInterface(bytes4)":"01ffc9a7","symbol()":"95d89b41","tokenURI(uint256)":"c87b56dd","transferFrom(address,address,uint256)":"23b872dd"}}}}}