{"contracts/NFTLoanFacilitator.sol":{"NFTLoanFacilitator":{"abi":[{"type":"constructor","inputs":[{"name":"_manager","type":"address","internalType":"address"}],"stateMutability":"nonpayable"},{"type":"function","name":"INTEREST_RATE_DECIMALS","inputs":[],"outputs":[{"name":"","type":"uint8","internalType":"uint8"}],"stateMutability":"view"},{"type":"function","name":"SCALAR","inputs":[],"outputs":[{"name":"","type":"uint256","internalType":"uint256"}],"stateMutability":"view"},{"type":"function","name":"borrowTicketContract","inputs":[],"outputs":[{"name":"","type":"address","internalType":"address"}],"stateMutability":"view"},{"type":"function","name":"closeLoan","inputs":[{"name":"loanId","type":"uint256","internalType":"uint256"},{"name":"sendCollateralTo","type":"address","internalType":"address"}],"outputs":[],"stateMutability":"nonpayable"},{"type":"function","name":"createLoan","inputs":[{"name":"collateralTokenId","type":"uint256","internalType":"uint256"},{"name":"collateralContractAddress","type":"address","internalType":"address"},{"name":"maxPerAnumInterest","type":"uint16","internalType":"uint16"},{"name":"minLoanAmount","type":"uint128","internalType":"uint128"},{"name":"loanAssetContractAddress","type":"address","internalType":"address"},{"name":"minDurationSeconds","type":"uint32","internalType":"uint32"},{"name":"mintBorrowTicketTo","type":"address","internalType":"address"}],"outputs":[{"name":"id","type":"uint256","internalType":"uint256"}],"stateMutability":"nonpayable"},{"type":"function","name":"interestOwed","inputs":[{"name":"loanId","type":"uint256","internalType":"uint256"}],"outputs":[{"name":"","type":"uint256","internalType":"uint256"}],"stateMutability":"view"},{"type":"function","name":"lend","inputs":[{"name":"loanId","type":"uint256","internalType":"uint256"},{"name":"interestRate","type":"uint16","internalType":"uint16"},{"name":"amount","type":"uint128","internalType":"uint128"},{"name":"durationSeconds","type":"uint32","internalType":"uint32"},{"name":"sendLendTicketTo","type":"address","internalType":"address"}],"outputs":[],"stateMutability":"nonpayable"},{"type":"function","name":"lendTicketContract","inputs":[],"outputs":[{"name":"","type":"address","internalType":"address"}],"stateMutability":"view"},{"type":"function","name":"loanEndSeconds","inputs":[{"name":"loanId","type":"uint256","internalType":"uint256"}],"outputs":[{"name":"","type":"uint256","internalType":"uint256"}],"stateMutability":"view"},{"type":"function","name":"loanInfo","inputs":[{"name":"","type":"uint256","internalType":"uint256"}],"outputs":[{"name":"closed","type":"bool","internalType":"bool"},{"name":"perAnumInterestRate","type":"uint16","internalType":"uint16"},{"name":"durationSeconds","type":"uint32","internalType":"uint32"},{"name":"lastAccumulatedTimestamp","type":"uint40","internalType":"uint40"},{"name":"collateralContractAddress","type":"address","internalType":"address"},{"name":"loanAssetContractAddress","type":"address","internalType":"address"},{"name":"accumulatedInterest","type":"uint128","internalType":"uint128"},{"name":"loanAmount","type":"uint128","internalType":"uint128"},{"name":"collateralTokenId","type":"uint256","internalType":"uint256"}],"stateMutability":"view"},{"type":"function","name":"loanInfoStruct","inputs":[{"name":"loanId","type":"uint256","internalType":"uint256"}],"outputs":[{"name":"","type":"tuple","internalType":"struct INFTLoanFacilitator.Loan","components":[{"name":"closed","type":"bool","internalType":"bool"},{"name":"perAnumInterestRate","type":"uint16","internalType":"uint16"},{"name":"durationSeconds","type":"uint32","internalType":"uint32"},{"name":"lastAccumulatedTimestamp","type":"uint40","internalType":"uint40"},{"name":"collateralContractAddress","type":"address","internalType":"address"},{"name":"loanAssetContractAddress","type":"address","internalType":"address"},{"name":"accumulatedInterest","type":"uint128","internalType":"uint128"},{"name":"loanAmount","type":"uint128","internalType":"uint128"},{"name":"collateralTokenId","type":"uint256","internalType":"uint256"}]}],"stateMutability":"view"},{"type":"function","name":"originationFeeRate","inputs":[],"outputs":[{"name":"","type":"uint256","internalType":"uint256"}],"stateMutability":"view"},{"type":"function","name":"owner","inputs":[],"outputs":[{"name":"","type":"address","internalType":"address"}],"stateMutability":"view"},{"type":"function","name":"renounceOwnership","inputs":[],"outputs":[],"stateMutability":"nonpayable"},{"type":"function","name":"repayAndCloseLoan","inputs":[{"name":"loanId","type":"uint256","internalType":"uint256"}],"outputs":[],"stateMutability":"nonpayable"},{"type":"function","name":"requiredImprovementRate","inputs":[],"outputs":[{"name":"","type":"uint256","internalType":"uint256"}],"stateMutability":"view"},{"type":"function","name":"seizeCollateral","inputs":[{"name":"loanId","type":"uint256","internalType":"uint256"},{"name":"sendCollateralTo","type":"address","internalType":"address"}],"outputs":[],"stateMutability":"nonpayable"},{"type":"function","name":"setBorrowTicketContract","inputs":[{"name":"_contract","type":"address","internalType":"address"}],"outputs":[],"stateMutability":"nonpayable"},{"type":"function","name":"setLendTicketContract","inputs":[{"name":"_contract","type":"address","internalType":"address"}],"outputs":[],"stateMutability":"nonpayable"},{"type":"function","name":"totalOwed","inputs":[{"name":"loanId","type":"uint256","internalType":"uint256"}],"outputs":[{"name":"","type":"uint256","internalType":"uint256"}],"stateMutability":"view"},{"type":"function","name":"transferOwnership","inputs":[{"name":"newOwner","type":"address","internalType":"address"}],"outputs":[],"stateMutability":"nonpayable"},{"type":"function","name":"updateOriginationFeeRate","inputs":[{"name":"_originationFeeRate","type":"uint32","internalType":"uint32"}],"outputs":[],"stateMutability":"nonpayable"},{"type":"function","name":"updateRequiredImprovementRate","inputs":[{"name":"_improvementRate","type":"uint256","internalType":"uint256"}],"outputs":[],"stateMutability":"nonpayable"},{"type":"function","name":"withdrawOriginationFees","inputs":[{"name":"asset","type":"address","internalType":"address"},{"name":"amount","type":"uint256","internalType":"uint256"},{"name":"to","type":"address","internalType":"address"}],"outputs":[],"stateMutability":"nonpayable"},{"type":"event","name":"BuyoutLender","inputs":[{"name":"id","type":"uint256","indexed":true,"internalType":"uint256"},{"name":"lender","type":"address","indexed":true,"internalType":"address"},{"name":"replacedLoanOwner","type":"address","indexed":true,"internalType":"address"},{"name":"interestEarned","type":"uint256","indexed":false,"internalType":"uint256"},{"name":"replacedAmount","type":"uint256","indexed":false,"internalType":"uint256"}],"anonymous":false},{"type":"event","name":"Close","inputs":[{"name":"id","type":"uint256","indexed":true,"internalType":"uint256"}],"anonymous":false},{"type":"event","name":"CreateLoan","inputs":[{"name":"id","type":"uint256","indexed":true,"internalType":"uint256"},{"name":"minter","type":"address","indexed":true,"internalType":"address"},{"name":"collateralTokenId","type":"uint256","indexed":false,"internalType":"uint256"},{"name":"collateralContract","type":"address","indexed":false,"internalType":"address"},{"name":"maxInterestRate","type":"uint256","indexed":false,"internalType":"uint256"},{"name":"loanAssetContract","type":"address","indexed":false,"internalType":"address"},{"name":"minLoanAmount","type":"uint256","indexed":false,"internalType":"uint256"},{"name":"minDurationSeconds","type":"uint256","indexed":false,"internalType":"uint256"}],"anonymous":false},{"type":"event","name":"Lend","inputs":[{"name":"id","type":"uint256","indexed":true,"internalType":"uint256"},{"name":"lender","type":"address","indexed":true,"internalType":"address"},{"name":"interestRate","type":"uint256","indexed":false,"internalType":"uint256"},{"name":"loanAmount","type":"uint256","indexed":false,"internalType":"uint256"},{"name":"durationSeconds","type":"uint256","indexed":false,"internalType":"uint256"}],"anonymous":false},{"type":"event","name":"OwnershipTransferred","inputs":[{"name":"previousOwner","type":"address","indexed":true,"internalType":"address"},{"name":"newOwner","type":"address","indexed":true,"internalType":"address"}],"anonymous":false},{"type":"event","name":"Repay","inputs":[{"name":"id","type":"uint256","indexed":true,"internalType":"uint256"},{"name":"repayer","type":"address","indexed":true,"internalType":"address"},{"name":"loanOwner","type":"address","indexed":true,"internalType":"address"},{"name":"interestEarned","type":"uint256","indexed":false,"internalType":"uint256"},{"name":"loanAmount","type":"uint256","indexed":false,"internalType":"uint256"}],"anonymous":false},{"type":"event","name":"SeizeCollateral","inputs":[{"name":"id","type":"uint256","indexed":true,"internalType":"uint256"}],"anonymous":false},{"type":"event","name":"UpdateOriginationFeeRate","inputs":[{"name":"feeRate","type":"uint32","indexed":false,"internalType":"uint32"}],"anonymous":false},{"type":"event","name":"UpdateRequiredImprovementRate","inputs":[{"name":"improvementRate","type":"uint256","indexed":false,"internalType":"uint256"}],"anonymous":false},{"type":"event","name":"WithdrawOriginationFees","inputs":[{"name":"asset","type":"address","indexed":false,"internalType":"address"},{"name":"amount","type":"uint256","indexed":false,"internalType":"uint256"},{"name":"to","type":"address","indexed":false,"internalType":"address"}],"anonymous":false}],"userdoc":{},"devdoc":{},"evm":{"bytecode":{"object":"60806040526002600362000014919062000372565b600a6200002291906200050b565b6001556001600362000035919062000372565b600a6200004391906200050b565b60025560016006553480156200005857600080fd5b506040516200504f3803806200504f83398181016040528101906200007e9190620005c6565b6000620000906200014660201b60201c565b9050806000806101000a81548173ffffffffffffffffffffffffffffffffffffffff021916908373ffffffffffffffffffffffffffffffffffffffff1602179055508073ffffffffffffffffffffffffffffffffffffffff16600073ffffffffffffffffffffffffffffffffffffffff167f8be0079c531659141344cd1fd0a4f28419497f9722a3daafe3b4186f6b6457e060405160405180910390a3506200013f816200014e60201b60201c565b5062000713565b600033905090565b6200015e6200014660201b60201c565b73ffffffffffffffffffffffffffffffffffffffff16620001846200030d60201b60201c565b73ffffffffffffffffffffffffffffffffffffffff1614620001dd576040517f08c379a0000000000000000000000000000000000000000000000000000000008152600401620001d49062000659565b60405180910390fd5b600073ffffffffffffffffffffffffffffffffffffffff168173ffffffffffffffffffffffffffffffffffffffff16141562000250576040517f08c379a00000000000000000000000000000000000000000000000000000000081526004016200024790620006f1565b60405180910390fd5b8073ffffffffffffffffffffffffffffffffffffffff1660008054906101000a900473ffffffffffffffffffffffffffffffffffffffff1673ffffffffffffffffffffffffffffffffffffffff167f8be0079c531659141344cd1fd0a4f28419497f9722a3daafe3b4186f6b6457e060405160405180910390a3806000806101000a81548173ffffffffffffffffffffffffffffffffffffffff021916908373ffffffffffffffffffffffffffffffffffffffff16021790555050565b60008060009054906101000a900473ffffffffffffffffffffffffffffffffffffffff16905090565b600060ff82169050919050565b7f4e487b7100000000000000000000000000000000000000000000000000000000600052601160045260246000fd5b60006200037f8262000336565b91506200038c8362000336565b925082821015620003a257620003a162000343565b5b828203905092915050565b60008160011c9050919050565b6000808291508390505b60018511156200040c57808604811115620003e457620003e362000343565b5b6001851615620003f45780820291505b80810290506200040485620003ad565b9450620003c4565b94509492505050565b600082620004275760019050620004fa565b81620004375760009050620004fa565b81600181146200045057600281146200045b5762000491565b6001915050620004fa565b60ff84111562000470576200046f62000343565b5b8360020a9150848211156200048a576200048962000343565b5b50620004fa565b5060208310610133831016604e8410600b8410161715620004cb5782820a905083811115620004c557620004c462000343565b5b620004fa565b620004da8484846001620003ba565b92509050818404811115620004f457620004f362000343565b5b81810290505b9392505050565b6000819050919050565b6000620005188262000501565b9150620005258362000336565b9250620005547fffffffffffffffffffffffffffffffffffffffffffffffffffffffffffffffff848462000415565b905092915050565b600080fd5b600073ffffffffffffffffffffffffffffffffffffffff82169050919050565b60006200058e8262000561565b9050919050565b620005a08162000581565b8114620005ac57600080fd5b50565b600081519050620005c08162000595565b92915050565b600060208284031215620005df57620005de6200055c565b5b6000620005ef84828501620005af565b91505092915050565b600082825260208201905092915050565b7f4f776e61626c653a2063616c6c6572206973206e6f7420746865206f776e6572600082015250565b600062000641602083620005f8565b91506200064e8262000609565b602082019050919050565b60006020820190508181036000830152620006748162000632565b9050919050565b7f4f776e61626c653a206e6577206f776e657220697320746865207a65726f206160008201527f6464726573730000000000000000000000000000000000000000000000000000602082015250565b6000620006d9602683620005f8565b9150620006e6826200067b565b604082019050919050565b600060208201905081810360008301526200070c81620006ca565b9050919050565b61492c80620007236000396000f3fe608060405234801561001057600080fd5b50600436106101585760003560e01c80637a0815c0116100c3578063ac9cf4db1161007c578063ac9cf4db14610395578063b6ecac57146103b1578063b8efff83146103e1578063e926e9af146103fd578063f2fde38b1461042d578063fc9445c51461044957610158565b80637a0815c0146102cd5780637af26c1f146102e95780637e8400b2146103075780638349d6be146103235780638da5cb5b1461035b578063a27158d71461037957610158565b80635ecd2173116101155780635ecd21731461021d578063654ea0981461024d57806366234ffa1461026957806367cec5a3146102875780636bf301a4146102a5578063715018a6146102c357610158565b806310780bed1461015d578063300ed99b1461018d578063311f13c6146101a957806337bb105c146101c75780633b817496146101e35780633f58184814610201575b600080fd5b6101776004803603810190610172919061320b565b610479565b6040516101849190613247565b60405180910390f35b6101a760048036038101906101a2919061329e565b610584565b005b6101b16106b5565b6040516101be9190613247565b60405180910390f35b6101e160048036038101906101dc9190613329565b6106bb565b005b6101eb61080c565b6040516101f89190613247565b60405180910390f35b61021b60048036038101906102169190613329565b610812565b005b6102376004803603810190610232919061320b565b610963565b6040516102449190613247565b60405180910390f35b61026760048036038101906102629190613356565b6109c5565b005b610271610aac565b60405161027e91906133c5565b60405180910390f35b61028f610ab1565b60405161029c91906133ef565b60405180910390f35b6102ad610ad7565b6040516102ba9190613247565b60405180910390f35b6102cb610ae8565b005b6102e760048036038101906102e2919061320b565b610c22565b005b6102f1610d22565b6040516102fe91906133ef565b60405180910390f35b610321600480360381019061031c919061340a565b610d48565b005b61033d6004803603810190610338919061320b565b611013565b604051610352999897969594939291906134dc565b60405180910390f35b610363611115565b60405161037091906133ef565b60405180910390f35b610393600480360381019061038e919061320b565b61113e565b005b6103af60048036038101906103aa919061340a565b611599565b005b6103cb60048036038101906103c6919061320b565b6118b5565b6040516103d89190613689565b60405180910390f35b6103fb60048036038101906103f691906136fd565b611ab7565b005b6104176004803603810190610412919061320b565b612799565b6040516104249190613247565b60405180910390f35b61044760048036038101906104429190613329565b6128f3565b005b610463600480360381019061045e9190613778565b612a9c565b6040516104709190613247565b60405180910390f35b6000806005600084815260200190815260200160002090508060000160009054906101000a900460ff16806104ca575060008160000160079054906101000a900464ffffffffff1664ffffffffff16145b156104d957600091505061057f565b61057b8160020160109054906101000a90046fffffffffffffffffffffffffffffffff166fffffffffffffffffffffffffffffffff168260000160079054906101000a900464ffffffffff1664ffffffffff168360000160019054906101000a900461ffff1661ffff168460020160009054906101000a90046fffffffffffffffffffffffffffffffff166fffffffffffffffffffffffffffffffff16612ef8565b9150505b919050565b61058c612f67565b73ffffffffffffffffffffffffffffffffffffffff166105aa611115565b73ffffffffffffffffffffffffffffffffffffffff1614610600576040517f08c379a00000000000000000000000000000000000000000000000000000000081526004016105f790613877565b60405180910390fd5b6002600361060e91906138c6565b600a61061a9190613a2d565b60056106269190613a78565b8163ffffffff16111561066e576040517f08c379a000000000000000000000000000000000000000000000000000000000815260040161066590613b1e565b60405180910390fd5b8063ffffffff166001819055507f5318780da42901eb551b3beab1953fa2673bf9592c023ed47f8929cfd705a426816040516106aa9190613b3e565b60405180910390a150565b60025481565b6106c3612f67565b73ffffffffffffffffffffffffffffffffffffffff166106e1611115565b73ffffffffffffffffffffffffffffffffffffffff1614610737576040517f08c379a000000000000000000000000000000000000000000000000000000000815260040161072e90613877565b60405180910390fd5b600073ffffffffffffffffffffffffffffffffffffffff16600460009054906101000a900473ffffffffffffffffffffffffffffffffffffffff1673ffffffffffffffffffffffffffffffffffffffff16146107c8576040517f08c379a00000000000000000000000000000000000000000000000000000000081526004016107bf90613ba5565b60405180910390fd5b80600460006101000a81548173ffffffffffffffffffffffffffffffffffffffff021916908373ffffffffffffffffffffffffffffffffffffffff16021790555050565b60015481565b61081a612f67565b73ffffffffffffffffffffffffffffffffffffffff16610838611115565b73ffffffffffffffffffffffffffffffffffffffff161461088e576040517f08c379a000000000000000000000000000000000000000000000000000000000815260040161088590613877565b60405180910390fd5b600073ffffffffffffffffffffffffffffffffffffffff16600360009054906101000a900473ffffffffffffffffffffffffffffffffffffffff1673ffffffffffffffffffffffffffffffffffffffff161461091f576040517f08c379a000000000000000000000000000000000000000000000000000000000815260040161091690613ba5565b60405180910390fd5b80600360006101000a81548173ffffffffffffffffffffffffffffffffffffffff021916908373ffffffffffffffffffffffffffffffffffffffff16021790555050565b6000806005600084815260200190815260200160002090508060000160079054906101000a900464ffffffffff168160000160039054906101000a900463ffffffff1663ffffffff166109b69190613bc5565b64ffffffffff16915050919050565b6109cd612f67565b73ffffffffffffffffffffffffffffffffffffffff166109eb611115565b73ffffffffffffffffffffffffffffffffffffffff1614610a41576040517f08c379a0000000000000000000000000000000000000000000000000000000008152600401610a3890613877565b60405180910390fd5b610a6c81838573ffffffffffffffffffffffffffffffffffffffff16612f6f9092919063ffffffff16565b7fa8790deb319345e298343f10ed7d6a75b74909da42818501958de9e08f73869e838383604051610a9f93929190613c00565b60405180910390a1505050565b600381565b600360009054906101000a900473ffffffffffffffffffffffffffffffffffffffff1681565b6003600a610ae59190613a2d565b81565b610af0612f67565b73ffffffffffffffffffffffffffffffffffffffff16610b0e611115565b73ffffffffffffffffffffffffffffffffffffffff1614610b64576040517f08c379a0000000000000000000000000000000000000000000000000000000008152600401610b5b90613877565b60405180910390fd5b600073ffffffffffffffffffffffffffffffffffffffff1660008054906101000a900473ffffffffffffffffffffffffffffffffffffffff1673ffffffffffffffffffffffffffffffffffffffff167f8be0079c531659141344cd1fd0a4f28419497f9722a3daafe3b4186f6b6457e060405160405180910390a360008060006101000a81548173ffffffffffffffffffffffffffffffffffffffff021916908373ffffffffffffffffffffffffffffffffffffffff160217905550565b610c2a612f67565b73ffffffffffffffffffffffffffffffffffffffff16610c48611115565b73ffffffffffffffffffffffffffffffffffffffff1614610c9e576040517f08c379a0000000000000000000000000000000000000000000000000000000008152600401610c9590613877565b60405180910390fd5b60008111610ce1576040517f08c379a0000000000000000000000000000000000000000000000000000000008152600401610cd890613ca9565b60405180910390fd5b806002819055507f955a84aca3e56ae377e1e799c430fec3709dda2c19da07f13e6c1a33df3cbf2281604051610d179190613247565b60405180910390a150565b600460009054906101000a900473ffffffffffffffffffffffffffffffffffffffff1681565b816005600082815260200190815260200160002060000160009054906101000a900460ff1615610dad576040517f08c379a0000000000000000000000000000000000000000000000000000000008152600401610da490613d15565b60405180910390fd5b3373ffffffffffffffffffffffffffffffffffffffff16600460009054906101000a900473ffffffffffffffffffffffffffffffffffffffff1673ffffffffffffffffffffffffffffffffffffffff16636352211e856040518263ffffffff1660e01b8152600401610e1f9190613247565b602060405180830381865afa158015610e3c573d6000803e3d6000fd5b505050506040513d601f19601f82011682018060405250810190610e609190613d4a565b73ffffffffffffffffffffffffffffffffffffffff1614610eb6576040517f08c379a0000000000000000000000000000000000000000000000000000000008152600401610ead90613de9565b60405180910390fd5b600060056000858152602001908152602001600020905060008160000160079054906101000a900464ffffffffff1664ffffffffff1614610f2c576040517f08c379a0000000000000000000000000000000000000000000000000000000008152600401610f2390613e7b565b60405180910390fd5b60018160000160006101000a81548160ff02191690831515021790555080600001600c9054906101000a900473ffffffffffffffffffffffffffffffffffffffff1673ffffffffffffffffffffffffffffffffffffffff166323b872dd308584600301546040518463ffffffff1660e01b8152600401610fae93929190613e9b565b600060405180830381600087803b158015610fc857600080fd5b505af1158015610fdc573d6000803e3d6000fd5b50505050837fbf67515a38ee520223d32c1266d52101c30d936ed1f3e436c8caeb0a43cb06bf60405160405180910390a250505050565b60056020528060005260406000206000915090508060000160009054906101000a900460ff16908060000160019054906101000a900461ffff16908060000160039054906101000a900463ffffffff16908060000160079054906101000a900464ffffffffff169080600001600c9054906101000a900473ffffffffffffffffffffffffffffffffffffffff16908060010160009054906101000a900473ffffffffffffffffffffffffffffffffffffffff16908060020160009054906101000a90046fffffffffffffffffffffffffffffffff16908060020160109054906101000a90046fffffffffffffffffffffffffffffffff16908060030154905089565b60008060009054906101000a900473ffffffffffffffffffffffffffffffffffffffff16905090565b806005600082815260200190815260200160002060000160009054906101000a900460ff16156111a3576040517f08c379a000000000000000000000000000000000000000000000000000000000815260040161119a90613d15565b60405180910390fd5b6000600560008481526020019081526020016000209050600061125e8260020160109054906101000a90046fffffffffffffffffffffffffffffffff166fffffffffffffffffffffffffffffffff168360000160079054906101000a900464ffffffffff1664ffffffffff168460000160019054906101000a900461ffff1661ffff168560020160009054906101000a90046fffffffffffffffffffffffffffffffff166fffffffffffffffffffffffffffffffff16612ef8565b90506000600360009054906101000a900473ffffffffffffffffffffffffffffffffffffffff1673ffffffffffffffffffffffffffffffffffffffff16636352211e866040518263ffffffff1660e01b81526004016112bd9190613247565b602060405180830381865afa1580156112da573d6000803e3d6000fd5b505050506040513d601f19601f820116820180604052508101906112fe9190613d4a565b905060018360000160006101000a81548160ff0219169083151502179055506113ab33828560020160109054906101000a90046fffffffffffffffffffffffffffffffff166fffffffffffffffffffffffffffffffff16856113609190613ed2565b8660010160009054906101000a900473ffffffffffffffffffffffffffffffffffffffff1673ffffffffffffffffffffffffffffffffffffffff16613015909392919063ffffffff16565b82600001600c9054906101000a900473ffffffffffffffffffffffffffffffffffffffff1673ffffffffffffffffffffffffffffffffffffffff166342842e0e30600460009054906101000a900473ffffffffffffffffffffffffffffffffffffffff1673ffffffffffffffffffffffffffffffffffffffff16636352211e896040518263ffffffff1660e01b81526004016114479190613247565b602060405180830381865afa158015611464573d6000803e3d6000fd5b505050506040513d601f19601f820116820180604052508101906114889190613d4a565b86600301546040518463ffffffff1660e01b81526004016114ab93929190613e9b565b600060405180830381600087803b1580156114c557600080fd5b505af11580156114d9573d6000803e3d6000fd5b505050508073ffffffffffffffffffffffffffffffffffffffff163373ffffffffffffffffffffffffffffffffffffffff16867f9181b2981704b7cf4448130f29cb5da1f41e0418d000e7f8880000b09bcbea45858760020160109054906101000a90046fffffffffffffffffffffffffffffffff1660405161155d929190613f63565b60405180910390a4847fbf67515a38ee520223d32c1266d52101c30d936ed1f3e436c8caeb0a43cb06bf60405160405180910390a25050505050565b816005600082815260200190815260200160002060000160009054906101000a900460ff16156115fe576040517f08c379a00000000000000000000000000000000000000000000000000000000081526004016115f590613d15565b60405180910390fd5b3373ffffffffffffffffffffffffffffffffffffffff16600360009054906101000a900473ffffffffffffffffffffffffffffffffffffffff1673ffffffffffffffffffffffffffffffffffffffff16636352211e856040518263ffffffff1660e01b81526004016116709190613247565b602060405180830381865afa15801561168d573d6000803e3d6000fd5b505050506040513d601f19601f820116820180604052508101906116b19190613d4a565b73ffffffffffffffffffffffffffffffffffffffff1614611707576040517f08c379a00000000000000000000000000000000000000000000000000000000081526004016116fe90613ffe565b60405180910390fd5b60006005600085815260200190815260200160002090508060000160079054906101000a900464ffffffffff168160000160039054906101000a900463ffffffff1663ffffffff166117599190613bc5565b64ffffffffff1642116117a1576040517f08c379a000000000000000000000000000000000000000000000000000000000815260040161179890614090565b60405180910390fd5b60018160000160006101000a81548160ff02191690831515021790555080600001600c9054906101000a900473ffffffffffffffffffffffffffffffffffffffff1673ffffffffffffffffffffffffffffffffffffffff166342842e0e308584600301546040518463ffffffff1660e01b815260040161182393929190613e9b565b600060405180830381600087803b15801561183d57600080fd5b505af1158015611851573d6000803e3d6000fd5b50505050837f19f0d220035b967365e70d19ca7093af2e75a9741c08ef27c5017d6f463febd960405160405180910390a2837fbf67515a38ee520223d32c1266d52101c30d936ed1f3e436c8caeb0a43cb06bf60405160405180910390a250505050565b6118bd613121565b60056000838152602001908152602001600020604051806101200160405290816000820160009054906101000a900460ff161515151581526020016000820160019054906101000a900461ffff1661ffff1661ffff1681526020016000820160039054906101000a900463ffffffff1663ffffffff1663ffffffff1681526020016000820160079054906101000a900464ffffffffff1664ffffffffff1664ffffffffff16815260200160008201600c9054906101000a900473ffffffffffffffffffffffffffffffffffffffff1673ffffffffffffffffffffffffffffffffffffffff1673ffffffffffffffffffffffffffffffffffffffff1681526020016001820160009054906101000a900473ffffffffffffffffffffffffffffffffffffffff1673ffffffffffffffffffffffffffffffffffffffff1673ffffffffffffffffffffffffffffffffffffffff1681526020016002820160009054906101000a90046fffffffffffffffffffffffffffffffff166fffffffffffffffffffffffffffffffff166fffffffffffffffffffffffffffffffff1681526020016002820160109054906101000a90046fffffffffffffffffffffffffffffffff166fffffffffffffffffffffffffffffffff166fffffffffffffffffffffffffffffffff1681526020016003820154815250509050919050565b846005600082815260200190815260200160002060000160009054906101000a900460ff1615611b1c576040517f08c379a0000000000000000000000000000000000000000000000000000000008152600401611b1390613d15565b60405180910390fd5b600060056000888152602001908152602001600020905060008160000160079054906101000a900464ffffffffff1664ffffffffff161415611fce5760008160010160009054906101000a900473ffffffffffffffffffffffffffffffffffffffff169050600073ffffffffffffffffffffffffffffffffffffffff168173ffffffffffffffffffffffffffffffffffffffff161415611bf1576040517f08c379a0000000000000000000000000000000000000000000000000000000008152600401611be8906140fc565b60405180910390fd5b8160000160019054906101000a900461ffff1661ffff168761ffff161115611c4e576040517f08c379a0000000000000000000000000000000000000000000000000000000008152600401611c459061418e565b60405180910390fd5b8160000160039054906101000a900463ffffffff1663ffffffff168563ffffffff161015611cb1576040517f08c379a0000000000000000000000000000000000000000000000000000000008152600401611ca890614220565b60405180910390fd5b8160020160109054906101000a90046fffffffffffffffffffffffffffffffff166fffffffffffffffffffffffffffffffff16866fffffffffffffffffffffffffffffffff161015611d38576040517f08c379a0000000000000000000000000000000000000000000000000000000008152600401611d2f906142b2565b60405180910390fd5b868260000160016101000a81548161ffff021916908361ffff160217905550428260000160076101000a81548164ffffffffff021916908364ffffffffff160217905550848260000160036101000a81548163ffffffff021916908363ffffffff160217905550858260020160106101000a8154816fffffffffffffffffffffffffffffffff02191690836fffffffffffffffffffffffffffffffff160217905550611e193330886fffffffffffffffffffffffffffffffff168473ffffffffffffffffffffffffffffffffffffffff16613015909392919063ffffffff16565b60006003600a611e299190613a2d565b600154886fffffffffffffffffffffffffffffffff16611e499190613a78565b611e539190614301565b9050611f38600460009054906101000a900473ffffffffffffffffffffffffffffffffffffffff1673ffffffffffffffffffffffffffffffffffffffff16636352211e8b6040518263ffffffff1660e01b8152600401611eb39190613247565b602060405180830381865afa158015611ed0573d6000803e3d6000fd5b505050506040513d601f19601f82011682018060405250810190611ef49190613d4a565b82896fffffffffffffffffffffffffffffffff16611f129190614332565b8473ffffffffffffffffffffffffffffffffffffffff16612f6f9092919063ffffffff16565b600360009054906101000a900473ffffffffffffffffffffffffffffffffffffffff1673ffffffffffffffffffffffffffffffffffffffff166340c10f19868b6040518363ffffffff1660e01b8152600401611f95929190614366565b600060405180830381600087803b158015611faf57600080fd5b505af1158015611fc3573d6000803e3d6000fd5b50505050505061273d565b60008160020160109054906101000a90046fffffffffffffffffffffffffffffffff166fffffffffffffffffffffffffffffffff169050600081876fffffffffffffffffffffffffffffffff166120259190614332565b905060008360000160019054906101000a900461ffff1661ffff16905060008460000160039054906101000a900463ffffffff1663ffffffff169050818a61ffff1611156120a8576040517f08c379a000000000000000000000000000000000000000000000000000000000815260040161209f9061418e565b60405180910390fd5b808863ffffffff1610156120f1576040517f08c379a00000000000000000000000000000000000000000000000000000000081526004016120e890614220565b60405180910390fd5b826003600a6121009190613a2d565b6002548661210e9190613a78565b6121189190614301565b11158061215b57508763ffffffff166003600a6121359190613a2d565b600254836121439190613a78565b61214d9190614301565b826121589190613ed2565b11155b806121a75750600082141580156121a657508961ffff166003600a6121809190613a2d565b6002548461218e9190613a78565b6121989190614301565b836121a39190614332565b10155b5b6121e6576040517f08c379a00000000000000000000000000000000000000000000000000000000081526004016121dd90614427565b60405180910390fd5b5050600061225a838560000160079054906101000a900464ffffffffff1664ffffffffff168660000160019054906101000a900461ffff1661ffff168760020160009054906101000a90046fffffffffffffffffffffffffffffffff166fffffffffffffffffffffffffffffffff16612ef8565b90506fffffffffffffffffffffffffffffffff80168111156122b1576040517f08c379a00000000000000000000000000000000000000000000000000000000081526004016122a8906144b9565b60405180910390fd5b888460000160016101000a81548161ffff021916908361ffff160217905550428460000160076101000a81548164ffffffffff021916908364ffffffffff160217905550868460000160036101000a81548163ffffffff021916908363ffffffff160217905550878460020160106101000a8154816fffffffffffffffffffffffffffffffff02191690836fffffffffffffffffffffffffffffffff160217905550808460020160006101000a8154816fffffffffffffffffffffffffffffffff02191690836fffffffffffffffffffffffffffffffff1602179055506000600360009054906101000a900473ffffffffffffffffffffffffffffffffffffffff1673ffffffffffffffffffffffffffffffffffffffff16636352211e8c6040518263ffffffff1660e01b81526004016123eb9190613247565b602060405180830381865afa158015612408573d6000803e3d6000fd5b505050506040513d601f19601f8201168201806040525081019061242c9190613d4a565b905060008311156125e25760008560010160009054906101000a900473ffffffffffffffffffffffffffffffffffffffff1690506124aa3330858d6fffffffffffffffffffffffffffffffff166124839190613ed2565b8473ffffffffffffffffffffffffffffffffffffffff16613015909392919063ffffffff16565b6124e08286856124ba9190613ed2565b8373ffffffffffffffffffffffffffffffffffffffff16612f6f9092919063ffffffff16565b60006003600a6124f09190613a2d565b600154866124fe9190613a78565b6125089190614301565b90506125db600460009054906101000a900473ffffffffffffffffffffffffffffffffffffffff1673ffffffffffffffffffffffffffffffffffffffff16636352211e8f6040518263ffffffff1660e01b81526004016125689190613247565b602060405180830381865afa158015612585573d6000803e3d6000fd5b505050506040513d601f19601f820116820180604052508101906125a99190613d4a565b82876125b59190614332565b8473ffffffffffffffffffffffffffffffffffffffff16612f6f9092919063ffffffff16565b505061263f565b61263e338286856125f39190613ed2565b8860010160009054906101000a900473ffffffffffffffffffffffffffffffffffffffff1673ffffffffffffffffffffffffffffffffffffffff16613015909392919063ffffffff16565b5b600360009054906101000a900473ffffffffffffffffffffffffffffffffffffffff1673ffffffffffffffffffffffffffffffffffffffff1663a236897a82898e6040518463ffffffff1660e01b815260040161269e93929190613e9b565b600060405180830381600087803b1580156126b857600080fd5b505af11580156126cc573d6000803e3d6000fd5b505050508073ffffffffffffffffffffffffffffffffffffffff163373ffffffffffffffffffffffffffffffffffffffff168c7f060231091bad585835f99d8cadcc3ff7fa49943bd1b52cde44a74762102aba4485886040516127309291906144d9565b60405180910390a4505050505b3373ffffffffffffffffffffffffffffffffffffffff16877f5f20982d2196b477a67cf9eec22865b0093715235a896e9202a55d2acb85dba388888860405161278893929190614564565b60405180910390a350505050505050565b6000806005600084815260200190815260200160002090508060000160009054906101000a900460ff16806127ea575060008160000160079054906101000a900464ffffffffff1664ffffffffff16145b156127f95760009150506128ee565b61289b8160020160109054906101000a90046fffffffffffffffffffffffffffffffff166fffffffffffffffffffffffffffffffff168260000160079054906101000a900464ffffffffff1664ffffffffff168360000160019054906101000a900461ffff1661ffff168460020160009054906101000a90046fffffffffffffffffffffffffffffffff166fffffffffffffffffffffffffffffffff16612ef8565b6005600085815260200190815260200160002060020160109054906101000a90046fffffffffffffffffffffffffffffffff166fffffffffffffffffffffffffffffffff166128ea9190613ed2565b9150505b919050565b6128fb612f67565b73ffffffffffffffffffffffffffffffffffffffff16612919611115565b73ffffffffffffffffffffffffffffffffffffffff161461296f576040517f08c379a000000000000000000000000000000000000000000000000000000000815260040161296690613877565b60405180910390fd5b600073ffffffffffffffffffffffffffffffffffffffff168173ffffffffffffffffffffffffffffffffffffffff1614156129df576040517f08c379a00000000000000000000000000000000000000000000000000000000081526004016129d69061460d565b60405180910390fd5b8073ffffffffffffffffffffffffffffffffffffffff1660008054906101000a900473ffffffffffffffffffffffffffffffffffffffff1673ffffffffffffffffffffffffffffffffffffffff167f8be0079c531659141344cd1fd0a4f28419497f9722a3daafe3b4186f6b6457e060405160405180910390a3806000806101000a81548173ffffffffffffffffffffffffffffffffffffffff021916908373ffffffffffffffffffffffffffffffffffffffff16021790555050565b6000808363ffffffff161415612ae7576040517f08c379a0000000000000000000000000000000000000000000000000000000008152600401612ade90614679565b60405180910390fd5b6000856fffffffffffffffffffffffffffffffff161415612b3d576040517f08c379a0000000000000000000000000000000000000000000000000000000008152600401612b349061470b565b60405180910390fd5b600360009054906101000a900473ffffffffffffffffffffffffffffffffffffffff1673ffffffffffffffffffffffffffffffffffffffff168773ffffffffffffffffffffffffffffffffffffffff161415612bce576040517f08c379a0000000000000000000000000000000000000000000000000000000008152600401612bc59061479d565b60405180910390fd5b600460009054906101000a900473ffffffffffffffffffffffffffffffffffffffff1673ffffffffffffffffffffffffffffffffffffffff168773ffffffffffffffffffffffffffffffffffffffff161415612c5f576040517f08c379a0000000000000000000000000000000000000000000000000000000008152600401612c569061479d565b60405180910390fd5b8673ffffffffffffffffffffffffffffffffffffffff166323b872dd33308b6040518463ffffffff1660e01b8152600401612c9c93929190613e9b565b600060405180830381600087803b158015612cb657600080fd5b505af1158015612cca573d6000803e3d6000fd5b50505050600660008154809291906001019190505590506000600560008381526020019081526020016000209050848160010160006101000a81548173ffffffffffffffffffffffffffffffffffffffff021916908373ffffffffffffffffffffffffffffffffffffffff160217905550858160020160106101000a8154816fffffffffffffffffffffffffffffffff02191690836fffffffffffffffffffffffffffffffff1602179055508881600301819055508781600001600c6101000a81548173ffffffffffffffffffffffffffffffffffffffff021916908373ffffffffffffffffffffffffffffffffffffffff160217905550868160000160016101000a81548161ffff021916908361ffff160217905550838160000160036101000a81548163ffffffff021916908363ffffffff160217905550600460009054906101000a900473ffffffffffffffffffffffffffffffffffffffff1673ffffffffffffffffffffffffffffffffffffffff166340c10f1984846040518363ffffffff1660e01b8152600401612e61929190614366565b600060405180830381600087803b158015612e7b57600080fd5b505af1158015612e8f573d6000803e3d6000fd5b505050503373ffffffffffffffffffffffffffffffffffffffff16827ffdaefc42969fb3fa46e66478273186d5b076bf2e0ee15e142737dfc062015d0a8b8b8b8a8c8b604051612ee4969594939291906147bd565b60405180910390a350979650505050505050565b600081683635c9adc5dea000006301e13380670de0b6b3a764000086612f1e9190613a78565b612f289190614301565b8642612f349190614332565b88612f3f9190613a78565b612f499190613a78565b612f539190614301565b612f5d9190613ed2565b9050949350505050565b600033905090565b60006040517fa9059cbb00000000000000000000000000000000000000000000000000000000815273ffffffffffffffffffffffffffffffffffffffff841660048201528260248201526000806044836000895af1915050612fd0816130d8565b61300f576040517f08c379a00000000000000000000000000000000000000000000000000000000081526004016130069061486a565b60405180910390fd5b50505050565b60006040517f23b872dd00000000000000000000000000000000000000000000000000000000815273ffffffffffffffffffffffffffffffffffffffff8516600482015273ffffffffffffffffffffffffffffffffffffffff8416602482015282604482015260008060648360008a5af1915050613092816130d8565b6130d1576040517f08c379a00000000000000000000000000000000000000000000000000000000081526004016130c8906148d6565b60405180910390fd5b5050505050565b60003d826130ea57806000803e806000fd5b80602081146131045760008114613115576000925061311a565b816000803e6000511515925061311a565b600192505b5050919050565b604051806101200160405280600015158152602001600061ffff168152602001600063ffffffff168152602001600064ffffffffff168152602001600073ffffffffffffffffffffffffffffffffffffffff168152602001600073ffffffffffffffffffffffffffffffffffffffff16815260200160006fffffffffffffffffffffffffffffffff16815260200160006fffffffffffffffffffffffffffffffff168152602001600081525090565b600080fd5b6000819050919050565b6131e8816131d5565b81146131f357600080fd5b50565b600081359050613205816131df565b92915050565b600060208284031215613221576132206131d0565b5b600061322f848285016131f6565b91505092915050565b613241816131d5565b82525050565b600060208201905061325c6000830184613238565b92915050565b600063ffffffff82169050919050565b61327b81613262565b811461328657600080fd5b50565b60008135905061329881613272565b92915050565b6000602082840312156132b4576132b36131d0565b5b60006132c284828501613289565b91505092915050565b600073ffffffffffffffffffffffffffffffffffffffff82169050919050565b60006132f6826132cb565b9050919050565b613306816132eb565b811461331157600080fd5b50565b600081359050613323816132fd565b92915050565b60006020828403121561333f5761333e6131d0565b5b600061334d84828501613314565b91505092915050565b60008060006060848603121561336f5761336e6131d0565b5b600061337d86828701613314565b935050602061338e868287016131f6565b925050604061339f86828701613314565b9150509250925092565b600060ff82169050919050565b6133bf816133a9565b82525050565b60006020820190506133da60008301846133b6565b92915050565b6133e9816132eb565b82525050565b600060208201905061340460008301846133e0565b92915050565b60008060408385031215613421576134206131d0565b5b600061342f858286016131f6565b925050602061344085828601613314565b9150509250929050565b60008115159050919050565b61345f8161344a565b82525050565b600061ffff82169050919050565b61347c81613465565b82525050565b61348b81613262565b82525050565b600064ffffffffff82169050919050565b6134ab81613491565b82525050565b60006fffffffffffffffffffffffffffffffff82169050919050565b6134d6816134b1565b82525050565b6000610120820190506134f2600083018c613456565b6134ff602083018b613473565b61350c604083018a613482565b61351960608301896134a2565b61352660808301886133e0565b61353360a08301876133e0565b61354060c08301866134cd565b61354d60e08301856134cd565b61355b610100830184613238565b9a9950505050505050505050565b6135728161344a565b82525050565b61358181613465565b82525050565b61359081613262565b82525050565b61359f81613491565b82525050565b6135ae816132eb565b82525050565b6135bd816134b1565b82525050565b6135cc816131d5565b82525050565b610120820160008201516135e96000850182613569565b5060208201516135fc6020850182613578565b50604082015161360f6040850182613587565b5060608201516136226060850182613596565b50608082015161363560808501826135a5565b5060a082015161364860a08501826135a5565b5060c082015161365b60c08501826135b4565b5060e082015161366e60e08501826135b4565b506101008201516136836101008501826135c3565b50505050565b60006101208201905061369f60008301846135d2565b92915050565b6136ae81613465565b81146136b957600080fd5b50565b6000813590506136cb816136a5565b92915050565b6136da816134b1565b81146136e557600080fd5b50565b6000813590506136f7816136d1565b92915050565b600080600080600060a08688031215613719576137186131d0565b5b6000613727888289016131f6565b9550506020613738888289016136bc565b9450506040613749888289016136e8565b935050606061375a88828901613289565b925050608061376b88828901613314565b9150509295509295909350565b600080600080600080600060e0888a031215613797576137966131d0565b5b60006137a58a828b016131f6565b97505060206137b68a828b01613314565b96505060406137c78a828b016136bc565b95505060606137d88a828b016136e8565b94505060806137e98a828b01613314565b93505060a06137fa8a828b01613289565b92505060c061380b8a828b01613314565b91505092959891949750929550565b600082825260208201905092915050565b7f4f776e61626c653a2063616c6c6572206973206e6f7420746865206f776e6572600082015250565b600061386160208361381a565b915061386c8261382b565b602082019050919050565b6000602082019050818103600083015261389081613854565b9050919050565b7f4e487b7100000000000000000000000000000000000000000000000000000000600052601160045260246000fd5b60006138d1826133a9565b91506138dc836133a9565b9250828210156138ef576138ee613897565b5b828203905092915050565b60008160011c9050919050565b6000808291508390505b60018511156139515780860481111561392d5761392c613897565b5b600185161561393c5780820291505b808102905061394a856138fa565b9450613911565b94509492505050565b60008261396a5760019050613a26565b816139785760009050613a26565b816001811461398e5760028114613998576139c7565b6001915050613a26565b60ff8411156139aa576139a9613897565b5b8360020a9150848211156139c1576139c0613897565b5b50613a26565b5060208310610133831016604e8410600b84101617156139fc5782820a9050838111156139f7576139f6613897565b5b613a26565b613a098484846001613907565b92509050818404811115613a2057613a1f613897565b5b81810290505b9392505050565b6000613a38826131d5565b9150613a43836133a9565b9250613a707fffffffffffffffffffffffffffffffffffffffffffffffffffffffffffffffff848461395a565b905092915050565b6000613a83826131d5565b9150613a8e836131d5565b9250817fffffffffffffffffffffffffffffffffffffffffffffffffffffffffffffffff0483118215151615613ac757613ac6613897565b5b828202905092915050565b7f4e46544c6f616e466163696c697461746f723a206d6178206665652035250000600082015250565b6000613b08601e8361381a565b9150613b1382613ad2565b602082019050919050565b60006020820190508181036000830152613b3781613afb565b9050919050565b6000602082019050613b536000830184613482565b92915050565b7f4e46544c6f616e466163696c697461746f723a20616c72656164792073657400600082015250565b6000613b8f601f8361381a565b9150613b9a82613b59565b602082019050919050565b60006020820190508181036000830152613bbe81613b82565b9050919050565b6000613bd082613491565b9150613bdb83613491565b92508264ffffffffff03821115613bf557613bf4613897565b5b828201905092915050565b6000606082019050613c1560008301866133e0565b613c226020830185613238565b613c2f60408301846133e0565b949350505050565b7f4e46544c6f616e466163696c697461746f723a203020696d70726f76656d656e60008201527f7420726174650000000000000000000000000000000000000000000000000000602082015250565b6000613c9360268361381a565b9150613c9e82613c37565b604082019050919050565b60006020820190508181036000830152613cc281613c86565b9050919050565b7f4e46544c6f616e466163696c697461746f723a206c6f616e20636c6f73656400600082015250565b6000613cff601f8361381a565b9150613d0a82613cc9565b602082019050919050565b60006020820190508181036000830152613d2e81613cf2565b9050919050565b600081519050613d44816132fd565b92915050565b600060208284031215613d6057613d5f6131d0565b5b6000613d6e84828501613d35565b91505092915050565b7f4e46544c6f616e466163696c697461746f723a20626f72726f77207469636b6560008201527f7420686f6c646572206f6e6c7900000000000000000000000000000000000000602082015250565b6000613dd3602d8361381a565b9150613dde82613d77565b604082019050919050565b60006020820190508181036000830152613e0281613dc6565b9050919050565b7f4e46544c6f616e466163696c697461746f723a20686173206c656e6465722c2060008201527f757365207265706179416e64436c6f73654c6f616e0000000000000000000000602082015250565b6000613e6560358361381a565b9150613e7082613e09565b604082019050919050565b60006020820190508181036000830152613e9481613e58565b9050919050565b6000606082019050613eb060008301866133e0565b613ebd60208301856133e0565b613eca6040830184613238565b949350505050565b6000613edd826131d5565b9150613ee8836131d5565b9250827fffffffffffffffffffffffffffffffffffffffffffffffffffffffffffffffff03821115613f1d57613f1c613897565b5b828201905092915050565b6000819050919050565b6000613f4d613f48613f43846134b1565b613f28565b6131d5565b9050919050565b613f5d81613f32565b82525050565b6000604082019050613f786000830185613238565b613f856020830184613f54565b9392505050565b7f4e46544c6f616e466163696c697461746f723a206c656e64207469636b65742060008201527f686f6c646572206f6e6c79000000000000000000000000000000000000000000602082015250565b6000613fe8602b8361381a565b9150613ff382613f8c565b604082019050919050565b6000602082019050818103600083015261401781613fdb565b9050919050565b7f4e46544c6f616e466163696c697461746f723a207061796d656e74206973206e60008201527f6f74206c61746500000000000000000000000000000000000000000000000000602082015250565b600061407a60278361381a565b91506140858261401e565b604082019050919050565b600060208201905081810360008301526140a98161406d565b9050919050565b7f4e46544c6f616e466163696c697461746f723a20696e76616c6964206c6f616e600082015250565b60006140e660208361381a565b91506140f1826140b0565b602082019050919050565b60006020820190508181036000830152614115816140d9565b9050919050565b7f4e46544c6f616e466163696c697461746f723a207261746520746f6f2068696760008201527f6800000000000000000000000000000000000000000000000000000000000000602082015250565b600061417860218361381a565b91506141838261411c565b604082019050919050565b600060208201905081810360008301526141a78161416b565b9050919050565b7f4e46544c6f616e466163696c697461746f723a206475726174696f6e20746f6f60008201527f206c6f7700000000000000000000000000000000000000000000000000000000602082015250565b600061420a60248361381a565b9150614215826141ae565b604082019050919050565b60006020820190508181036000830152614239816141fd565b9050919050565b7f4e46544c6f616e466163696c697461746f723a20616d6f756e7420746f6f206c60008201527f6f77000000000000000000000000000000000000000000000000000000000000602082015250565b600061429c60228361381a565b91506142a782614240565b604082019050919050565b600060208201905081810360008301526142cb8161428f565b9050919050565b7f4e487b7100000000000000000000000000000000000000000000000000000000600052601260045260246000fd5b600061430c826131d5565b9150614317836131d5565b925082614327576143266142d2565b5b828204905092915050565b600061433d826131d5565b9150614348836131d5565b92508282101561435b5761435a613897565b5b828203905092915050565b600060408201905061437b60008301856133e0565b6143886020830184613238565b9392505050565b7f4e46544c6f616e466163696c697461746f723a2070726f706f7365642074657260008201527f6d73206d75737420626520626574746572207468616e206578697374696e672060208201527f7465726d73000000000000000000000000000000000000000000000000000000604082015250565b600061441160458361381a565b915061441c8261438f565b606082019050919050565b6000602082019050818103600083015261444081614404565b9050919050565b7f4e46544c6f616e466163696c697461746f723a20616363756d756c617465642060008201527f696e74657265737420657863656564732075696e743132380000000000000000602082015250565b60006144a360388361381a565b91506144ae82614447565b604082019050919050565b600060208201905081810360008301526144d281614496565b9050919050565b60006040820190506144ee6000830185613238565b6144fb6020830184613238565b9392505050565b600061451d61451861451384613465565b613f28565b6131d5565b9050919050565b61452d81614502565b82525050565b600061454e61454961454484613262565b613f28565b6131d5565b9050919050565b61455e81614533565b82525050565b60006060820190506145796000830186614524565b6145866020830185613f54565b6145936040830184614555565b949350505050565b7f4f776e61626c653a206e6577206f776e657220697320746865207a65726f206160008201527f6464726573730000000000000000000000000000000000000000000000000000602082015250565b60006145f760268361381a565b91506146028261459b565b604082019050919050565b60006020820190508181036000830152614626816145ea565b9050919050565b7f4e46544c6f616e466163696c697461746f723a2030206475726174696f6e0000600082015250565b6000614663601e8361381a565b915061466e8261462d565b602082019050919050565b6000602082019050818103600083015261469281614656565b9050919050565b7f4e46544c6f616e466163696c697461746f723a2030206c6f616e20616d6f756e60008201527f7400000000000000000000000000000000000000000000000000000000000000602082015250565b60006146f560218361381a565b915061470082614699565b604082019050919050565b60006020820190508181036000830152614724816146e8565b9050919050565b7f4e46544c6f616e466163696c697461746f723a2063616e6e6f7420757365207460008201527f69636b65747320617320636f6c6c61746572616c000000000000000000000000602082015250565b600061478760348361381a565b91506147928261472b565b604082019050919050565b600060208201905081810360008301526147b68161477a565b9050919050565b600060c0820190506147d26000830189613238565b6147df60208301886133e0565b6147ec6040830187614524565b6147f960608301866133e0565b6148066080830185613f54565b61481360a0830184614555565b979650505050505050565b7f5452414e534645525f4641494c45440000000000000000000000000000000000600082015250565b6000614854600f8361381a565b915061485f8261481e565b602082019050919050565b6000602082019050818103600083015261488381614847565b9050919050565b7f5452414e534645525f46524f4d5f4641494c4544000000000000000000000000600082015250565b60006148c060148361381a565b91506148cb8261488a565b602082019050919050565b600060208201905081810360008301526148ef816148b3565b905091905056fea264697066735822122080226e74b7b496c39253809e224e7d387d9b7f188811a4cece0bd44af4110a9964736f6c634300080c0033","linkReferences":{}},"methodIdentifiers":{"INTEREST_RATE_DECIMALS()":"66234ffa","SCALAR()":"6bf301a4","borrowTicketContract()":"7af26c1f","closeLoan(uint256,address)":"7e8400b2","createLoan(uint256,address,uint16,uint128,address,uint32,address)":"fc9445c5","interestOwed(uint256)":"10780bed","lend(uint256,uint16,uint128,uint32,address)":"b8efff83","lendTicketContract()":"67cec5a3","loanEndSeconds(uint256)":"5ecd2173","loanInfo(uint256)":"8349d6be","loanInfoStruct(uint256)":"b6ecac57","originationFeeRate()":"3b817496","owner()":"8da5cb5b","renounceOwnership()":"715018a6","repayAndCloseLoan(uint256)":"a27158d7","requiredImprovementRate()":"311f13c6","seizeCollateral(uint256,address)":"ac9cf4db","setBorrowTicketContract(address)":"37bb105c","setLendTicketContract(address)":"3f581848","totalOwed(uint256)":"e926e9af","transferOwnership(address)":"f2fde38b","updateOriginationFeeRate(uint32)":"300ed99b","updateRequiredImprovementRate(uint256)":"7a0815c0","withdrawOriginationFees(address,uint256,address)":"654ea098"}}}}}