{"contracts/descriptors/LendTicketDescriptor.sol":{"LendTicketDescriptor":{"abi":[{"type":"constructor","inputs":[{"name":"_svgHelper","type":"address","internalType":"contract ITicketTypeSpecificSVGHelper"}],"stateMutability":"nonpayable"},{"type":"function","name":"nftType","inputs":[],"outputs":[{"name":"","type":"string","internalType":"string"}],"stateMutability":"view"},{"type":"function","name":"svgHelper","inputs":[],"outputs":[{"name":"","type":"address","internalType":"contract ITicketTypeSpecificSVGHelper"}],"stateMutability":"view"},{"type":"function","name":"uri","inputs":[{"name":"nftLoanFacilitator","type":"address","internalType":"contract NFTLoanFacilitator"},{"name":"id","type":"uint256","internalType":"uint256"}],"outputs":[{"name":"","type":"string","internalType":"string"}],"stateMutability":"view"}],"userdoc":{},"devdoc":{},"evm":{"bytecode":{"object":"60a06040523480156200001157600080fd5b50604051620056cd380380620056cd8339818101604052810190620000379190620001f2565b6040518060400160405280600481526020017f4c656e640000000000000000000000000000000000000000000000000000000081525081816000908051906020019062000086929190620000c4565b508073ffffffffffffffffffffffffffffffffffffffff1660808173ffffffffffffffffffffffffffffffffffffffff168152505050505062000289565b828054620000d29062000253565b90600052602060002090601f016020900481019282620000f6576000855562000142565b82601f106200011157805160ff191683800117855562000142565b8280016001018555821562000142579182015b828111156200014157825182559160200191906001019062000124565b5b50905062000151919062000155565b5090565b5b808211156200017057600081600090555060010162000156565b5090565b600080fd5b600073ffffffffffffffffffffffffffffffffffffffff82169050919050565b6000620001a68262000179565b9050919050565b6000620001ba8262000199565b9050919050565b620001cc81620001ad565b8114620001d857600080fd5b50565b600081519050620001ec81620001c1565b92915050565b6000602082840312156200020b576200020a62000174565b5b60006200021b84828501620001db565b91505092915050565b7f4e487b7100000000000000000000000000000000000000000000000000000000600052602260045260246000fd5b600060028204905060018216806200026c57607f821691505b6020821081141562000283576200028262000224565b5b50919050565b608051615421620002ac600039600081816101fe015261048b01526154216000f3fe608060405234801561001057600080fd5b50600436106100415760003560e01c806328205a93146100465780636fac889b14610076578063c1329ede14610094575b600080fd5b610060600480360381019061005b919061237e565b6100b2565b60405161006d9190612457565b60405180910390f35b61007e61016e565b60405161008b9190612457565b60405180910390f35b61009c6101fc565b6040516100a991906124d8565b60405180910390f35b60606100bc6121fd565b600080546100c990612522565b80601f01602080910402602001604051908101604052809291908181526020018280546100f590612522565b80156101425780601f1061011757610100808354040283529160200191610142565b820191906000526020600020905b81548152906001019060200180831161012557829003601f168201915b5050505050816000018190525061015a818585610220565b905061016581610443565b91505092915050565b6000805461017b90612522565b80601f01602080910402602001604051908101604052809291908181526020018280546101a790612522565b80156101f45780601f106101c9576101008083540402835291602001916101f4565b820191906000526020600020905b8154815290600101906020018083116101d757829003601f168201915b505050505081565b7f000000000000000000000000000000000000000000000000000000000000000081565b6102286121fd565b6000806000806000806000808a73ffffffffffffffffffffffffffffffffffffffff16638349d6be8b6040518263ffffffff1660e01b815260040161026d9190612563565b61012060405180830381865afa15801561028b573d6000803e3d6000fd5b505050506040513d601f19601f820116820180604052508101906102af91906126f2565b98506fffffffffffffffffffffffffffffffff169850509750975064ffffffffff16975063ffffffff16975061ffff16975097506102ec8a610502565b8c602001819052506102ff85878a610663565b8c604001819052506103118b8861077e565b8c6060018190525061032483601461080e565b8c6080018190525061033583610a8c565b8c60a0018190525061034884601461080e565b8c60c0018190525061035d84600a6028610b09565b8c60e0018190525061036e84610f0b565b8c610100018190525061038081610502565b8c61012001819052506103938284610f88565b8c61014001819052506103a78b8b8561100c565b8c61016001819052506103c762015180876103c2919061281a565b610502565b8c6101800181905250600085146103f1576103ec86866103e7919061284b565b61110a565b610428565b6040518060400160405280600381526020017f6e2f6100000000000000000000000000000000000000000000000000000000008152505b8c6101a001819052508b985050505050505050509392505050565b60606104dc8260000151836020015161045f8560200151611191565b61048286608001518760a001518860c001518961010001518a61012001516111ba565b6104b46104af887f00000000000000000000000000000000000000000000000000000000000000006111ef565b611254565b6040516020016104c89594939291906129e7565b604051602081830303815290604052611254565b6040516020016104ec9190612ac1565b6040516020818303038152906040529050919050565b6060600082141561054a576040518060400160405280600181526020017f3000000000000000000000000000000000000000000000000000000000000000815250905061065e565b600082905060005b6000821461057c57808061056590612ae7565b915050600a82610575919061281a565b9150610552565b60008167ffffffffffffffff81111561059857610597612b30565b5b6040519080825280601f01601f1916602001820160405280156105ca5781602001600182028036833780820191505090505b5090505b60008514610657576001826105e39190612b5f565b9150600a856105f29190612b93565b60306105fe919061284b565b60f81b81838151811061061457610613612bc4565b5b60200101907effffffffffffffffffffffffffffffffffffffffffffffffffffffffffffff1916908160001a905350600a85610650919061281a565b94506105ce565b8093505050505b919050565b606060008414156106ab576040518060400160405280600f81526020017f6177616974696e67206c656e64657200000000000000000000000000000000008152509050610777565b81156106ee576040518060400160405280600681526020017f636c6f73656400000000000000000000000000000000000000000000000000008152509050610777565b82846106fa919061284b565b42111561073e576040518060400160405280600881526020017f70617374206475650000000000000000000000000000000000000000000000008152509050610777565b6040518060400160405280601181526020017f6163637275696e6720696e74657265737400000000000000000000000000000081525090505b9392505050565b60606108068260028573ffffffffffffffffffffffffffffffffffffffff166366234ffa6040518163ffffffff1660e01b8152600401602060405180830381865afa1580156107d1573d6000803e3d6000fd5b505050506040513d601f19601f820116820180604052508101906107f59190612c2c565b6107ff9190612c59565b60016113d9565b905092915050565b6060600060028360026108219190612c8d565b61082b919061284b565b67ffffffffffffffff81111561084457610843612b30565b5b6040519080825280601f01601f1916602001820160405280156108765781602001600182028036833780820191505090505b5090507f3000000000000000000000000000000000000000000000000000000000000000816000815181106108ae576108ad612bc4565b5b60200101907effffffffffffffffffffffffffffffffffffffffffffffffffffffffffffff1916908160001a9053507f78000000000000000000000000000000000000000000000000000000000000008160018151811061091257610911612bc4565b5b60200101907effffffffffffffffffffffffffffffffffffffffffffffffffffffffffffff1916908160001a905350600060018460026109529190612c8d565b61095c919061284b565b90505b6001811115610a28577f3031323334353637383961626364656600000000000000000000000000000000600f861673ffffffffffffffffffffffffffffffffffffffff16601081106109b4576109b3612bc4565b5b1a60f81b8282815181106109cb576109ca612bc4565b5b60200101907effffffffffffffffffffffffffffffffffffffffffffffffffffffffffffff1916908160001a90535060048573ffffffffffffffffffffffffffffffffffffffff16901c945080610a2190612ce7565b905061095f565b5060008473ffffffffffffffffffffffffffffffffffffffff1614610a82576040517f08c379a0000000000000000000000000000000000000000000000000000000008152600401610a7990612d83565b60405180910390fd5b8091505092915050565b60608173ffffffffffffffffffffffffffffffffffffffff166395d89b416040518163ffffffff1660e01b8152600401600060405180830381865afa158015610ad9573d6000803e3d6000fd5b505050506040513d6000823e3d601f19601f82011682018060405250810190610b029190612e9a565b9050919050565b60606000600584610b1a9190612ee3565b60ff1667ffffffffffffffff811115610b3657610b35612b30565b5b6040519080825280601f01601f191660200182016040528015610b685781602001600182028036833780820191505090505b5090507f300000000000000000000000000000000000000000000000000000000000000081600081518110610ba057610b9f612bc4565b5b60200101907effffffffffffffffffffffffffffffffffffffffffffffffffffffffffffff1916908160001a9053507f780000000000000000000000000000000000000000000000000000000000000081600181518110610c0457610c03612bc4565b5b60200101907effffffffffffffffffffffffffffffffffffffffffffffffffffffffffffff1916908160001a9053506000600185610c429190612ee3565b90508484610c509190612c59565b6004610c5c9190612f1a565b60ff168673ffffffffffffffffffffffffffffffffffffffff16901c955060008190505b60018160ff161115610d4f577f3031323334353637383961626364656600000000000000000000000000000000600f881673ffffffffffffffffffffffffffffffffffffffff1660108110610cd857610cd7612bc4565b5b1a60f81b838260ff1681518110610cf257610cf1612bc4565b5b60200101907effffffffffffffffffffffffffffffffffffffffffffffffffffffffffffff1916908160001a90535060048773ffffffffffffffffffffffffffffffffffffffff16901c965080610d4890612f55565b9050610c80565b5060008673ffffffffffffffffffffffffffffffffffffffff1614610da9576040517f08c379a0000000000000000000000000000000000000000000000000000000008152600401610da090612d83565b60405180910390fd5b7f2e0000000000000000000000000000000000000000000000000000000000000082600183610dd89190612ee3565b60ff1681518110610dec57610deb612bc4565b5b60200101907effffffffffffffffffffffffffffffffffffffffffffffffffffffffffffff1916908160001a9053507f2e0000000000000000000000000000000000000000000000000000000000000082600283610e4a9190612ee3565b60ff1681518110610e5e57610e5d612bc4565b5b60200101907effffffffffffffffffffffffffffffffffffffffffffffffffffffffffffff1916908160001a9053507f2e0000000000000000000000000000000000000000000000000000000000000082600383610ebc9190612ee3565b60ff1681518110610ed057610ecf612bc4565b5b60200101907effffffffffffffffffffffffffffffffffffffffffffffffffffffffffffff1916908160001a90535081925050509392505050565b60608173ffffffffffffffffffffffffffffffffffffffff166395d89b416040518163ffffffff1660e01b8152600401600060405180830381865afa158015610f58573d6000803e3d6000fd5b505050506040513d6000823e3d601f19601f82011682018060405250810190610f819190612e9a565b9050919050565b6060611004838373ffffffffffffffffffffffffffffffffffffffff1663313ce5676040518163ffffffff1660e01b8152600401602060405180830381865afa158015610fd9573d6000803e3d6000fd5b505050506040513d601f19601f82011682018060405250810190610ffd9190612c2c565b60006113d9565b905092915050565b60606111018473ffffffffffffffffffffffffffffffffffffffff166310780bed856040518263ffffffff1660e01b815260040161104a9190612563565b602060405180830381865afa158015611067573d6000803e3d6000fd5b505050506040513d601f19601f8201168201806040525081019061108b9190612f7f565b8373ffffffffffffffffffffffffffffffffffffffff1663313ce5676040518163ffffffff1660e01b8152600401602060405180830381865afa1580156110d6573d6000803e3d6000fd5b505050506040513d601f19601f820116820180604052508101906110fa9190612c2c565b60006113d9565b90509392505050565b606060008060008060008061111e886116cf565b95509550955095509550955061113386610502565b61113c86610502565b61114586610502565b61114e86610502565b61115786610502565b61116086610502565b60405160200161117596959493929190613044565b6040516020818303038152906040529650505050505050919050565b6060816040516020016111a491906132be565b6040516020818303038152906040529050919050565b606083838388886040516020016111d5959493929190613481565b604051602081830303815290604052905095945050505050565b606061120982846020015185608001518660c00151611756565b611217846000015184611963565b6112218585611b61565b61122a86611c8c565b60405160200161123d9493929190613717565b604051602081830303815290604052905092915050565b6060600082511415611277576040518060200160405280600081525090506113d4565b60006040518060600160405280604081526020016153ac60409139905060006003600285516112a6919061284b565b6112b0919061281a565b60046112bc9190612c8d565b905060006020826112cd919061284b565b67ffffffffffffffff8111156112e6576112e5612b30565b5b6040519080825280601f01601f1916602001820160405280156113185781602001600182028036833780820191505090505b509050818152600183018586518101602084015b81831015611393576003830192508251603f8160121c1685015160f81b8252600182019150603f81600c1c1685015160f81b8252600182019150603f8160061c1685015160f81b8252600182019150603f811685015160f81b82526001820191505061132c565b6003895106600181146113ad57600281146113bd576113c8565b613d3d60f01b60028303526113c8565b603d60f81b60018303525b50505050508093505050505b919050565b606060008414156114625781611424576040518060400160405280600181526020017f300000000000000000000000000000000000000000000000000000000000000081525061145b565b6040518060400160405280600281526020017f30250000000000000000000000000000000000000000000000000000000000008152505b90506116c8565b600082611470576000611473565b60015b9050600084600a61148491906138b8565b905060008690506000805b600083146114fc5760008160ff1611156114b65780806114ae90613903565b9150506114da565b6000600a846114c59190612b93565b146114d95780806114d590613903565b9150505b5b81806114e590613903565b925050600a836114f5919061281a565b925061148f565b61150461226c565b878160e00190151590811515815250508860ff1682846115249190612c59565b60ff161061158457848a611538919061281a565b816000018181525050888361154d9190612c59565b816040019060ff16908160ff168152505085816040015161156e9190612ee3565b816020019060ff16908160ff1681525050611695565b81836115909190612c59565b600a61159c91906138b8565b8a6115a7919061281a565b8160000181815250508985111561164c576002816080019060ff16908160ff16815250506002838a6115d99190612c59565b6115e39190612ee3565b8160a0019060ff16908160ff16815250508060a00151826116049190612ee3565b816040019060ff16908160ff16815250508581604001516116259190612ee3565b816020019060ff16908160ff168152505060018160c0019015159081151581525050611694565b6001826116599190612ee3565b816040019060ff16908160ff1681525050600189846116789190612c59565b6116829190612ee3565b816060019060ff16908160ff16815250505b5b8581604001516116a59190612ee3565b816020019060ff16908160ff16815250506116bf81611ce2565b96505050505050505b9392505050565b6000806000806000806116ef62015180886116ea919061281a565b61205e565b8096508197508298505050506000620151808861170c9190612b93565b9050610e108161171c919061281a565b9350610e108161172c9190612b93565b9050603c8161173b919061281a565b9250603c8161174a9190612b93565b91505091939550919395565b60608473ffffffffffffffffffffffffffffffffffffffff166381c30ab784846040518363ffffffff1660e01b815260040161179392919061392d565b600060405180830381865afa1580156117b0573d6000803e3d6000fd5b505050506040513d6000823e3d601f19601f820116820180604052508101906117d99190612e9a565b8573ffffffffffffffffffffffffffffffffffffffff1663822b68976040518163ffffffff1660e01b8152600401600060405180830381865afa158015611824573d6000803e3d6000fd5b505050506040513d6000823e3d601f19601f8201168201806040525081019061184d9190612e9a565b8673ffffffffffffffffffffffffffffffffffffffff1663a9b3636f6040518163ffffffff1660e01b8152600401600060405180830381865afa158015611898573d6000803e3d6000fd5b505050506040513d6000823e3d601f19601f820116820180604052508101906118c19190612e9a565b8773ffffffffffffffffffffffffffffffffffffffff16634cad441a6040518163ffffffff1660e01b8152600401600060405180830381865afa15801561190c573d6000803e3d6000fd5b505050506040513d6000823e3d601f19601f820116820180604052508101906119359190612e9a565b8760405160200161194a959493929190614356565b6040516020818303038152906040529050949350505050565b60608173ffffffffffffffffffffffffffffffffffffffff16637c1881be6040518163ffffffff1660e01b8152600401600060405180830381865afa1580156119b0573d6000803e3d6000fd5b505050506040513d6000823e3d601f19601f820116820180604052508101906119d99190612e9a565b8273ffffffffffffffffffffffffffffffffffffffff16632652f3366040518163ffffffff1660e01b8152600401600060405180830381865afa158015611a24573d6000803e3d6000fd5b505050506040513d6000823e3d601f19601f82011682018060405250810190611a4d9190612e9a565b8373ffffffffffffffffffffffffffffffffffffffff1663f99ba69f6040518163ffffffff1660e01b8152600401600060405180830381865afa158015611a98573d6000803e3d6000fd5b505050506040513d6000823e3d601f19601f82011682018060405250810190611ac19190612e9a565b858573ffffffffffffffffffffffffffffffffffffffff1663822b68976040518163ffffffff1660e01b8152600401600060405180830381865afa158015611b0d573d6000803e3d6000fd5b505050506040513d6000823e3d601f19601f82011682018060405250810190611b369190612e9a565b604051602001611b4a959493929190614aed565b604051602081830303815290604052905092915050565b60608173ffffffffffffffffffffffffffffffffffffffff16634cad441a6040518163ffffffff1660e01b8152600401600060405180830381865afa158015611bae573d6000803e3d6000fd5b505050506040513d6000823e3d601f19601f82011682018060405250810190611bd79190612e9a565b8273ffffffffffffffffffffffffffffffffffffffff16635e44e8376040518163ffffffff1660e01b8152600401600060405180830381865afa158015611c22573d6000803e3d6000fd5b505050506040513d6000823e3d601f19601f82011682018060405250810190611c4b9190612e9a565b8461014001518560a0015186606001518760400151604051602001611c7596959493929190614dfe565b604051602081830303815290604052905092915050565b60608161016001518260a001518361010001518460e00151856101200151866101800151876101a00151604051602001611ccc9796959493929190614fdf565b6040516020818303038152906040529050919050565b60606000826020015160ff1667ffffffffffffffff811115611d0757611d06612b30565b5b6040519080825280601f01601f191660200182016040528015611d395781602001600182028036833780820191505090505b5090508260e0015115611db7577f25000000000000000000000000000000000000000000000000000000000000008160018351611d769190612b5f565b81518110611d8757611d86612bc4565b5b60200101907effffffffffffffffffffffffffffffffffffffffffffffffffffffffffffff1916908160001a9053505b8260c0015115611e8a577f300000000000000000000000000000000000000000000000000000000000000081600081518110611df657611df5612bc4565b5b60200101907effffffffffffffffffffffffffffffffffffffffffffffffffffffffffffff1916908160001a9053507f2e0000000000000000000000000000000000000000000000000000000000000081600181518110611e5a57611e59612bc4565b5b60200101907effffffffffffffffffffffffffffffffffffffffffffffffffffffffffffff1916908160001a9053505b6000836080015160ff1690505b8360a0015160ff16811015611f0057603060f81b828281518110611ebe57611ebd612bc4565b5b60200101907effffffffffffffffffffffffffffffffffffffffffffffffffffffffffffff1916908160001a9053508080611ef890612ae7565b915050611e97565b505b600083600001511115612055576000836060015160ff16118015611f335750826060015160ff16836040015160ff16145b15611fb8577f2e0000000000000000000000000000000000000000000000000000000000000081846040018051611f6990612f55565b60ff16908160ff1681525060ff1681518110611f8857611f87612bc4565b5b60200101907effffffffffffffffffffffffffffffffffffffffffffffffffffffffffffff1916908160001a9053505b600a8360000151611fc99190612b93565b6030611fd5919061284b565b60f81b81846040018051611fe890612f55565b60ff16908160ff1681525060ff168151811061200757612006612bc4565b5b60200101907effffffffffffffffffffffffffffffffffffffffffffffffffffffffffffff1916908160001a905350600a83600001818151612049919061281a565b91508181525050611f02565b80915050919050565b600080600080849050600062253d8c62010bd98361207c9190615102565b6120869190615102565b9050600062023ab182600461209b9190615196565b6120a591906152ad565b9050600460038262023ab16120ba9190615196565b6120c49190615102565b6120ce91906152ad565b826120d99190615317565b9150600062164b096001846120ee9190615102565b610fa06120fb9190615196565b61210591906152ad565b9050601f6004826105b56121199190615196565b61212391906152ad565b8461212e9190615317565b6121389190615102565b9250600061098f84605061214c9190615196565b61215691906152ad565b9050600060508261098f61216a9190615196565b61217491906152ad565b8561217f9190615317565b9050600b8261218e91906152ad565b945084600c61219d9190615196565b6002836121aa9190615102565b6121b49190615317565b915084836031866121c59190615317565b60646121d19190615196565b6121db9190615102565b6121e59190615102565b92508298508197508096505050505050509193909250565b604051806101c0016040528060608152602001606081526020016060815260200160608152602001606081526020016060815260200160608152602001606081526020016060815260200160608152602001606081526020016060815260200160608152602001606081525090565b60405180610100016040528060008152602001600060ff168152602001600060ff168152602001600060ff168152602001600060ff168152602001600060ff1681526020016000151581526020016000151581525090565b6000604051905090565b600080fd5b600080fd5b600073ffffffffffffffffffffffffffffffffffffffff82169050919050565b6000612303826122d8565b9050919050565b6000612315826122f8565b9050919050565b6123258161230a565b811461233057600080fd5b50565b6000813590506123428161231c565b92915050565b6000819050919050565b61235b81612348565b811461236657600080fd5b50565b60008135905061237881612352565b92915050565b60008060408385031215612395576123946122ce565b5b60006123a385828601612333565b92505060206123b485828601612369565b9150509250929050565b600081519050919050565b600082825260208201905092915050565b60005b838110156123f85780820151818401526020810190506123dd565b83811115612407576000848401525b50505050565b6000601f19601f8301169050919050565b6000612429826123be565b61243381856123c9565b93506124438185602086016123da565b61244c8161240d565b840191505092915050565b60006020820190508181036000830152612471818461241e565b905092915050565b6000819050919050565b600061249e612499612494846122d8565b612479565b6122d8565b9050919050565b60006124b082612483565b9050919050565b60006124c2826124a5565b9050919050565b6124d2816124b7565b82525050565b60006020820190506124ed60008301846124c9565b92915050565b7f4e487b7100000000000000000000000000000000000000000000000000000000600052602260045260246000fd5b6000600282049050600182168061253a57607f821691505b6020821081141561254e5761254d6124f3565b5b50919050565b61255d81612348565b82525050565b60006020820190506125786000830184612554565b92915050565b60008115159050919050565b6125938161257e565b811461259e57600080fd5b50565b6000815190506125b08161258a565b92915050565b600061ffff82169050919050565b6125cd816125b6565b81146125d857600080fd5b50565b6000815190506125ea816125c4565b92915050565b600063ffffffff82169050919050565b612609816125f0565b811461261457600080fd5b50565b60008151905061262681612600565b92915050565b600064ffffffffff82169050919050565b6126468161262c565b811461265157600080fd5b50565b6000815190506126638161263d565b92915050565b612672816122f8565b811461267d57600080fd5b50565b60008151905061268f81612669565b92915050565b60006fffffffffffffffffffffffffffffffff82169050919050565b6126ba81612695565b81146126c557600080fd5b50565b6000815190506126d7816126b1565b92915050565b6000815190506126ec81612352565b92915050565b60008060008060008060008060006101208a8c031215612715576127146122ce565b5b60006127238c828d016125a1565b99505060206127348c828d016125db565b98505060406127458c828d01612617565b97505060606127568c828d01612654565b96505060806127678c828d01612680565b95505060a06127788c828d01612680565b94505060c06127898c828d016126c8565b93505060e061279a8c828d016126c8565b9250506101006127ac8c828d016126dd565b9150509295985092959850929598565b7f4e487b7100000000000000000000000000000000000000000000000000000000600052601260045260246000fd5b7f4e487b7100000000000000000000000000000000000000000000000000000000600052601160045260246000fd5b600061282582612348565b915061283083612348565b9250826128405761283f6127bc565b5b828204905092915050565b600061285682612348565b915061286183612348565b9250827fffffffffffffffffffffffffffffffffffffffffffffffffffffffffffffffff03821115612896576128956127eb565b5b828201905092915050565b7f7b226e616d65223a220000000000000000000000000000000000000000000000815250565b600081905092915050565b60006128dd826123be565b6128e781856128c7565b93506128f78185602086016123da565b80840191505092915050565b7f207469636b657400000000000000000000000000000000000000000000000000815250565b7f2023000000000000000000000000000000000000000000000000000000000000815250565b7f222c20226465736372697074696f6e223a220000000000000000000000000000815250565b7f222c2022696d616765223a202200000000000000000000000000000000000000815250565b7f646174613a696d6167652f7376672b786d6c3b6261736536342c000000000000815250565b7f227d000000000000000000000000000000000000000000000000000000000000815250565b60006129f2826128a1565b600982019150612a0282886128d2565b9150612a0d82612903565b600782019150612a1c82612929565b600282019150612a2c82876128d2565b9150612a378261294f565b601282019150612a4782866128d2565b9150612a5382856128d2565b9150612a5e82612975565b600d82019150612a6d8261299b565b601a82019150612a7d82846128d2565b9150612a88826129c1565b6002820191508190509695505050505050565b7f646174613a6170706c69636174696f6e2f6a736f6e3b6261736536342c000000815250565b6000612acc82612a9b565b601d82019150612adc82846128d2565b915081905092915050565b6000612af282612348565b91507fffffffffffffffffffffffffffffffffffffffffffffffffffffffffffffffff821415612b2557612b246127eb565b5b600182019050919050565b7f4e487b7100000000000000000000000000000000000000000000000000000000600052604160045260246000fd5b6000612b6a82612348565b9150612b7583612348565b925082821015612b8857612b876127eb565b5b828203905092915050565b6000612b9e82612348565b9150612ba983612348565b925082612bb957612bb86127bc565b5b828206905092915050565b7f4e487b7100000000000000000000000000000000000000000000000000000000600052603260045260246000fd5b600060ff82169050919050565b612c0981612bf3565b8114612c1457600080fd5b50565b600081519050612c2681612c00565b92915050565b600060208284031215612c4257612c416122ce565b5b6000612c5084828501612c17565b91505092915050565b6000612c6482612bf3565b9150612c6f83612bf3565b925082821015612c8257612c816127eb565b5b828203905092915050565b6000612c9882612348565b9150612ca383612348565b9250817fffffffffffffffffffffffffffffffffffffffffffffffffffffffffffffffff0483118215151615612cdc57612cdb6127eb565b5b828202905092915050565b6000612cf282612348565b91506000821415612d0657612d056127eb565b5b600182039050919050565b7f486578537472696e67733a20686578206c656e67746820696e7375666669636960008201527f656e740000000000000000000000000000000000000000000000000000000000602082015250565b6000612d6d6023836123c9565b9150612d7882612d11565b604082019050919050565b60006020820190508181036000830152612d9c81612d60565b9050919050565b600080fd5b600080fd5b612db68261240d565b810181811067ffffffffffffffff82111715612dd557612dd4612b30565b5b80604052505050565b6000612de86122c4565b9050612df48282612dad565b919050565b600067ffffffffffffffff821115612e1457612e13612b30565b5b612e1d8261240d565b9050602081019050919050565b6000612e3d612e3884612df9565b612dde565b905082815260208101848484011115612e5957612e58612da8565b5b612e648482856123da565b509392505050565b600082601f830112612e8157612e80612da3565b5b8151612e91848260208601612e2a565b91505092915050565b600060208284031215612eb057612eaf6122ce565b5b600082015167ffffffffffffffff811115612ece57612ecd6122d3565b5b612eda84828501612e6c565b91505092915050565b6000612eee82612bf3565b9150612ef983612bf3565b92508260ff03821115612f0f57612f0e6127eb565b5b828201905092915050565b6000612f2582612bf3565b9150612f3083612bf3565b92508160ff0483118215151615612f4a57612f496127eb565b5b828202905092915050565b6000612f6082612bf3565b91506000821415612f7457612f736127eb565b5b600182039050919050565b600060208284031215612f9557612f946122ce565b5b6000612fa3848285016126dd565b91505092915050565b7f2d00000000000000000000000000000000000000000000000000000000000000815250565b7f2000000000000000000000000000000000000000000000000000000000000000815250565b7f3a00000000000000000000000000000000000000000000000000000000000000815250565b7f2055544300000000000000000000000000000000000000000000000000000000815250565b600061305082896128d2565b915061305b82612fac565b60018201915061306b82886128d2565b915061307682612fac565b60018201915061308682876128d2565b915061309182612fd2565b6001820191506130a182866128d2565b91506130ac82612ff8565b6001820191506130bc82856128d2565b91506130c782612ff8565b6001820191506130d782846128d2565b91506130e28261301e565b600482019150819050979650505050505050565b7f54686973204c656e64205469636b6574204e465420776173206372656174656460008201527f207768656e204e4654204c6f616e202300000000000000000000000000000000602082015250565b60006131526030836128c7565b915061315d826130f6565b603082019050919050565b7f2077617320756e6465727772697474656e2e204f6e206c6f616e20726570617960008201527f6d656e742c2066756e64732077696c6c206265207472616e736665727265642060208201527f746f20746865206c656e64207469636b657420686f6c6465722e200000000000604082015250565b60006131ea605b836128c7565b91506131f582613168565b605b82019050919050565b7f496620746865206c6f616e206973206e6f742070616964206261636b206f6e2060008201527f74696d652c20746865206c656e64207469636b657420686f6c6465722069732060208201527f656e7469746c656420746f200000000000000000000000000000000000000000604082015250565b6000613282604c836128c7565b915061328d82613200565b604c82019050919050565b7f7365697a6520746865204e465420636f6c6c61746572616c2e00000000000000815250565b60006132c982613145565b91506132d582846128d2565b91506132e0826131dd565b91506132eb82613275565b91506132f682613298565b60198201915081905092915050565b7f5c6e5c6e436f6c6c61746572616c20416464726573733a200000000000000000815250565b7f2028000000000000000000000000000000000000000000000000000000000000815250565b7f295c6e5c6e000000000000000000000000000000000000000000000000000000815250565b7f436f6c6c61746572616c2049443a200000000000000000000000000000000000815250565b7f5c6e5c6e00000000000000000000000000000000000000000000000000000000815250565b7f4c6f616e20417373657420416464726573733a20000000000000000000000000815250565b7f5741524e494e473a20446f20796f7572206f776e20726573656172636820746f60008201527f2076657269667920746865206c65676974696d616379206f662074686520617360208201527f736574732072656c6174656420746f2074686973207469636b65740000000000604082015250565b600061346b605b836128c7565b9150613476826133e9565b605b82019050919050565b600061348c82613305565b60188201915061349c82886128d2565b91506134a78261332b565b6002820191506134b782876128d2565b91506134c282613351565b6005820191506134d182613377565b600f820191506134e182866128d2565b91506134ec8261339d565b6004820191506134fb826133c3565b60148201915061350b82856128d2565b91506135168261332b565b60028201915061352682846128d2565b915061353182613351565b6005820191506135408261345e565b91508190509695505050505050565b7f3c7376672076657273696f6e3d22312e31222069643d224c617965725f31222060008201527f786d6c6e733d22687474703a2f2f7777772e77332e6f72672f323030302f737660208201527f6722200000000000000000000000000000000000000000000000000000000000604082015250565b60006135d16043836128c7565b91506135dc8261354f565b604382019050919050565b7f786d6c6e733a786c696e6b3d22687474703a2f2f7777772e77332e6f72672f3160008201527f3939392f786c696e6b2220783d223070782220793d2230707822200000000000602082015250565b6000613643603b836128c7565b915061364e826135e7565b603b82019050919050565b7f76696577426f783d22302030203330302033303022207374796c653d22656e6160008201527f626c652d6261636b67726f756e643a6e65772030203020333030203330303b2260208201527f20786d6c3a73706163653d227072657365727665223e00000000000000000000604082015250565b60006136db6056836128c7565b91506136e682613659565b605682019050919050565b7f3c2f7376673e0000000000000000000000000000000000000000000000000000815250565b6000613722826135c4565b915061372d82613636565b9150613738826136ce565b915061374482876128d2565b915061375082866128d2565b915061375c82856128d2565b915061376882846128d2565b9150613773826136f1565b60068201915081905095945050505050565b60008160011c9050919050565b6000808291508390505b60018511156137dc578086048111156137b8576137b76127eb565b5b60018516156137c75780820291505b80810290506137d585613785565b945061379c565b94509492505050565b6000826137f557600190506138b1565b8161380357600090506138b1565b8160018114613819576002811461382357613852565b60019150506138b1565b60ff841115613835576138346127eb565b5b8360020a91508482111561384c5761384b6127eb565b5b506138b1565b5060208310610133831016604e8410600b84101617156138875782820a905083811115613882576138816127eb565b5b6138b1565b6138948484846001613792565b925090508184048111156138ab576138aa6127eb565b5b81810290505b9392505050565b60006138c382612348565b91506138ce83612bf3565b92506138fb7fffffffffffffffffffffffffffffffffffffffffffffffffffffffffffffffff84846137e5565b905092915050565b600061390e82612bf3565b915060ff821415613922576139216127eb565b5b600182019050919050565b60006040820190508181036000830152613947818561241e565b9050818103602083015261395b818461241e565b90509392505050565b7f3c7374796c6520747970653d22746578742f637373223e000000000000000000815250565b7f2e7374307b66696c6c3a75726c282377617368293b7d00000000000000000000815250565b7f2e7374317b77696474683a2031373170783b206865696768743a20323370783b60008201527f206f7061636974793a302e36353b2066696c6c3a234646464646463b7d000000602082015250565b6000613a0c603d836128c7565b9150613a17826139b0565b603d82019050919050565b7f2e7374327b77696474683a2031373170783b206865696768743a20323370783b60008201527f206f7061636974793a302e34353b2066696c6c3a234646464646463b7d000000602082015250565b6000613a7e603d836128c7565b9150613a8982613a22565b603d82019050919050565b7f2e7374337b77696474683a20393870783b206865696768743a20323370783b2060008201527f6f7061636974793a302e323b2066696c6c3a234646464646463b7d0000000000602082015250565b6000613af0603b836128c7565b9150613afb82613a94565b603b82019050919050565b7f2e7374347b77696474683a20393870783b206865696768743a20323370783b2060008201527f6f7061636974793a302e33353b2066696c6c3a234646464646463b7d00000000602082015250565b6000613b62603c836128c7565b9150613b6d82613b06565b603c82019050919050565b7f2e7374357b666f6e742d66616d696c793a206d6f6e6f73706163652c206d6f6e60008201527f6f73706163653b20666f6e742d73697a653a20323870783b7d00000000000000602082015250565b6000613bd46039836128c7565b9150613bdf82613b78565b603982019050919050565b7f2e7374377b666f6e742d66616d696c793a206d6f6e6f73706163652c206d6f6e60008201527f6f73706163653b20666f6e742d73697a653a313070783b2066696c6c3a23303060208201527f303030303b206f7061636974793a202e393b7d00000000000000000000000000604082015250565b6000613c6c6053836128c7565b9150613c7782613bea565b605382019050919050565b7f2e7374387b77696474683a20393870783b206865696768743a20353470783b2060008201527f6f7061636974793a302e33353b2066696c6c3a234646464646463b7d00000000602082015250565b6000613cde603c836128c7565b9150613ce982613c82565b603c82019050919050565b7f2e7374397b77696474683a2031373170783b206865696768743a20353470783b60008201527f206f7061636974793a302e36353b2066696c6c3a234646464646463b7d000000602082015250565b6000613d50603d836128c7565b9150613d5b82613cf4565b603d82019050919050565b7f2e72696768747b746578742d616e63686f723a20656e643b7d00000000000000815250565b7f2e6c6566747b746578742d616e63686f723a2073746172743b7d000000000000815250565b7f3c2f7374796c653e000000000000000000000000000000000000000000000000815250565b7f3c646566733e0000000000000000000000000000000000000000000000000000815250565b7f3c72616469616c4772616469656e742069643d2277617368222063783d22313260008201527f30222063793d2234302220723d2231343022206772616469656e745472616e7360208201527f666f726d3d22736b657759283529222000000000000000000000000000000000604082015250565b6000613e806050836128c7565b9150613e8b82613dfe565b605082019050919050565b7f6772616469656e74556e6974733d227573657253706163654f6e557365223e00815250565b7f3c73746f7020206f66667365743d2230252220636c6173733d22686967686c6960008201527f6768742d687565222f3e00000000000000000000000000000000000000000000602082015250565b6000613f18602a836128c7565b9150613f2382613ebc565b602a82019050919050565b7f3c73746f7020206f66667365743d22313030252220636c6173733d226869676860008201527f6c696768742d6f6666736574222f3e0000000000000000000000000000000000602082015250565b6000613f8a602f836128c7565b9150613f9582613f2e565b602f82019050919050565b7f3c616e696d617465206174747269627574654e616d653d2272222076616c756560008201527f733d223330303b3532303b3332303b3432303b33303022206475723d2232357360208201527f2220726570656174436f756e743d22696e646566696e697465222f3e00000000604082015250565b6000614022605c836128c7565b915061402d82613fa0565b605c82019050919050565b7f3c616e696d617465206174747269627574654e616d653d226378222076616c7560008201527f65733d223132303b3432303b3236303b3132303b36303b31323022206475723d60208201527f223235732220726570656174436f756e743d22696e646566696e697465222f3e604082015250565b60006140ba6060836128c7565b91506140c582614038565b606082019050919050565b7f3c616e696d617465206174747269627574654e616d653d226379222076616c7560008201527f65733d2234303b3330303b34303b3235303b3339303b343022206475723d223260208201527f35732220726570656174436f756e743d22696e646566696e697465222f3e0000604082015250565b6000614152605e836128c7565b915061415d826140d0565b605e82019050919050565b7f3c2f72616469616c4772616469656e743e000000000000000000000000000000815250565b7f3c2f646566733e00000000000000000000000000000000000000000000000000815250565b7f3c7265637420783d22302220636c6173733d22737430222077696474683d223360008201527f303022206865696768743d22333030222f3e0000000000000000000000000000602082015250565b60006142106032836128c7565b915061421b826141b4565b603282019050919050565b7f3c7265637420793d2233312220783d2200000000000000000000000000000000815250565b7f222077696474683d2231373122206865696768743d22353422207374796c653d60008201527f226f7061636974793a302e36353b2066696c6c3a234646464646463b222f3e00602082015250565b60006142a8603f836128c7565b91506142b38261424c565b603f82019050919050565b7f3c7465787420783d220000000000000000000000000000000000000000000000815250565b7f2220793d2236392220636c6173733d2273743520000000000000000000000000815250565b7f222066696c6c3d22626c61636b223e0000000000000000000000000000000000815250565b7f3c2f746578743e00000000000000000000000000000000000000000000000000815250565b600061436182613964565b6017820191506143708261398a565b60168201915061437f826139ff565b915061438a82613a71565b915061439582613ae3565b91506143a082613b55565b91506143ab82613bc7565b91506143b682613c5f565b91506143c182613cd1565b91506143cc82613d43565b91506143d782613d66565b6019820191506143e682613d8c565b601a820191506143f682886128d2565b915061440182613db2565b60088201915061441082613dd8565b60068201915061441f82613e73565b915061442a82613e96565b601f8201915061443982613f0b565b915061444482613f7d565b915061444f82614015565b915061445a826140ad565b915061446582614145565b915061447082614168565b60118201915061447f8261418e565b60078201915061448e82614203565b915061449982614226565b6010820191506144a982876128d2565b91506144b48261429b565b91506144bf826142be565b6009820191506144cf82866128d2565b91506144da826142e4565b6014820191506144ea82856128d2565b91506144f58261430a565b600f8201915061450582846128d2565b915061451082614330565b6007820191508190509695505050505050565b7f3c67207472616e73666f726d3d227472616e736c617465280000000000000000815250565b7f2c3029223e000000000000000000000000000000000000000000000000000000815250565b7f3c7265637420793d2233312220636c6173733d22737438222f3e000000000000815250565b7f3c7265637420793d2238352220636c6173733d22737433222f3e000000000000815250565b7f3c7265637420793d223130382220636c6173733d22737434222f3e0000000000815250565b7f3c7265637420793d223133312220636c6173733d22737433222f3e0000000000815250565b7f3c7265637420793d223135342220636c6173733d22737434222f3e0000000000815250565b7f3c7265637420793d223137372220636c6173733d22737433222f3e0000000000815250565b7f3c7265637420793d223230302220636c6173733d22737434222f3e0000000000815250565b7f3c7265637420793d223232332220636c6173733d22737433222f3e0000000000815250565b7f3c7265637420793d223234362220636c6173733d22737434222f3e0000000000815250565b7f3c2f673e00000000000000000000000000000000000000000000000000000000815250565b7f3c6720636c6173733d2273743720000000000000000000000000000000000000815250565b7f22207472616e73666f726d3d227472616e736c61746528000000000000000000815250565b7f3c7465787420793d223536223e00000000000000000000000000000000000000815250565b7f65723c2f746578743e0000000000000000000000000000000000000000000000815250565b7f3c7465787420793d223730223e5469636b65743c2f746578743e000000000000815250565b7f3c7465787420793d223939223e4c6f616e20416d6f756e743c2f746578743e00815250565b7f3c7465787420793d22313232223e496e74657265737420526174653c2f74657860008201527f743e000000000000000000000000000000000000000000000000000000000000602082015250565b600061482b6022836128c7565b9150614836826147cf565b602282019050919050565b7f3c7465787420793d22313435223e5374617475733c2f746578743e0000000000815250565b7f3c7465787420793d22313638223e416363727565643c2f746578743e00000000815250565b7f3c7465787420793d22313931223e436f6c6c61746572616c204e46543c2f746560008201527f78743e0000000000000000000000000000000000000000000000000000000000602082015250565b60006148e96023836128c7565b91506148f48261488d565b602382019050919050565b7f3c7465787420793d22323134223e436f6c6c61746572616c2049443c2f74657860008201527f743e000000000000000000000000000000000000000000000000000000000000602082015250565b600061495b6022836128c7565b9150614966826148ff565b602282019050919050565b7f3c7465787420793d22323337223e4475726174696f6e3c2f746578743e000000815250565b7f3c7465787420793d22323630223e456e6420446174653c2f746578743e000000815250565b7f3c7265637420793d223234362220636c6173733d22737431222f3e0000000000815250565b7f3c7265637420793d223232332220636c6173733d22737432222f3e0000000000815250565b7f3c7265637420793d223230302220636c6173733d22737431222f3e0000000000815250565b7f3c7265637420793d223137372220636c6173733d22737432222f3e0000000000815250565b7f3c7265637420793d223135342220636c6173733d22737431222f3e0000000000815250565b7f3c7265637420793d223133312220636c6173733d22737432222f3e0000000000815250565b7f3c7265637420793d223130382220636c6173733d22737431222f3e0000000000815250565b7f3c7265637420793d2238352220636c6173733d22737432222f3e000000000000815250565b6000614af882614523565b601882019150614b0882886128d2565b9150614b1382614549565b600582019150614b228261456f565b601a82019150614b3182614595565b601a82019150614b40826145bb565b601b82019150614b4f826145e1565b601b82019150614b5e82614607565b601b82019150614b6d8261462d565b601b82019150614b7c82614653565b601b82019150614b8b82614679565b601b82019150614b9a8261469f565b601b82019150614ba9826146c5565b600482019150614bb8826146eb565b600e82019150614bc882876128d2565b9150614bd382614711565b601782019150614be382866128d2565b9150614bee82614549565b600582019150614bfd82614737565b600d82019150614c0d82856128d2565b9150614c188261475d565b600982019150614c2782614783565b601a82019150614c36826147a9565b601f82019150614c458261481e565b9150614c5082614841565b601b82019150614c5f82614867565b601c82019150614c6e826148dc565b9150614c798261494e565b9150614c8482614971565b601d82019150614c9382614997565b601d82019150614ca2826146c5565b600482019150614cb182614523565b601882019150614cc182846128d2565b9150614ccc82614549565b600582019150614cdb826149bd565b601b82019150614cea826149e3565b601b82019150614cf982614a09565b601b82019150614d0882614a2f565b601b82019150614d1782614a55565b601b82019150614d2682614a7b565b601b82019150614d3582614aa1565b601b82019150614d4482614ac7565b601a82019150614d53826146c5565b6004820191508190509695505050505050565b7f3c7465787420793d223939223e00000000000000000000000000000000000000815250565b7f3c7465787420793d22313232223e000000000000000000000000000000000000815250565b7f3c7465787420793d22313435223e000000000000000000000000000000000000815250565b7f3c7465787420793d22313638223e000000000000000000000000000000000000815250565b6000614e09826146eb565b600e82019150614e1982896128d2565b9150614e2482614711565b601782019150614e3482886128d2565b9150614e3f82614549565b600582019150614e4e82614d66565b600d82019150614e5e82876128d2565b9150614e6982612fd2565b600182019150614e7982866128d2565b9150614e8482614330565b600782019150614e9382614d8c565b600e82019150614ea382856128d2565b9150614eae82614330565b600782019150614ebd82614db2565b600e82019150614ecd82846128d2565b9150614ed882614330565b600782019150614ee782614dd8565b600e82019150819050979650505050505050565b7f3c7465787420793d22313931223e280000000000000000000000000000000000815250565b7f2920000000000000000000000000000000000000000000000000000000000000815250565b7f3c7465787420793d22323134223e000000000000000000000000000000000000815250565b7f3c7465787420793d22323337223e000000000000000000000000000000000000815250565b7f2064617973203c2f746578743e00000000000000000000000000000000000000815250565b7f3c7465787420793d22323630223e000000000000000000000000000000000000815250565b6000614feb828a6128d2565b9150614ff682612fd2565b60018201915061500682896128d2565b915061501182614330565b60078201915061502082614efb565b600f8201915061503082886128d2565b915061503b82614f21565b60028201915061504b82876128d2565b915061505682614330565b60078201915061506582614f47565b600e8201915061507582866128d2565b915061508082614330565b60078201915061508f82614f6d565b600e8201915061509f82856128d2565b91506150aa82614f93565b600d820191506150b982614fb9565b600e820191506150c982846128d2565b91506150d482614330565b6007820191506150e3826146c5565b60048201915081905098975050505050505050565b6000819050919050565b600061510d826150f8565b9150615118836150f8565b9250817f7fffffffffffffffffffffffffffffffffffffffffffffffffffffffffffffff03831360008312151615615153576151526127eb565b5b817f800000000000000000000000000000000000000000000000000000000000000003831260008312161561518b5761518a6127eb565b5b828201905092915050565b60006151a1826150f8565b91506151ac836150f8565b9250827f7fffffffffffffffffffffffffffffffffffffffffffffffffffffffffffffff04821160008413600084131616156151eb576151ea6127eb565b5b817f80000000000000000000000000000000000000000000000000000000000000000583126000841260008413161615615228576152276127eb565b5b827f80000000000000000000000000000000000000000000000000000000000000000582126000841360008412161615615265576152646127eb565b5b827f7fffffffffffffffffffffffffffffffffffffffffffffffffffffffffffffff05821260008412600084121616156152a2576152a16127eb565b5b828202905092915050565b60006152b8826150f8565b91506152c3836150f8565b9250826152d3576152d26127bc565b5b600160000383147f80000000000000000000000000000000000000000000000000000000000000008314161561530c5761530b6127eb565b5b828205905092915050565b6000615322826150f8565b915061532d836150f8565b9250827f800000000000000000000000000000000000000000000000000000000000000001821260008412151615615368576153676127eb565b5b827f7fffffffffffffffffffffffffffffffffffffffffffffffffffffffffffffff0182136000841216156153a05761539f6127eb565b5b82820390509291505056fe4142434445464748494a4b4c4d4e4f505152535455565758595a6162636465666768696a6b6c6d6e6f707172737475767778797a303132333435363738392b2fa2646970667358221220436bdd59df9ed29bddc6237479a4f25cff52295f5afce421519c0fc11ed3698964736f6c634300080c0033","linkReferences":{}},"methodIdentifiers":{"nftType()":"6fac889b","svgHelper()":"c1329ede","uri(address,uint256)":"28205a93"}}}}}