{
  "_format": "hh-sol-artifact-1",
  "contractName": "TestSortedDoublyLLInsert",
  "sourceName": "contracts/test/TestSortedDoublyLLInsert.sol",
  "abi": [
    {
      "constant": false,
      "inputs": [],
      "name": "beforeEach",
      "outputs": [],
      "payable": false,
      "stateMutability": "nonpayable",
      "type": "function"
    },
    {
      "constant": false,
      "inputs": [],
      "name": "test_insert_updateHead",
      "outputs": [],
      "payable": false,
      "stateMutability": "nonpayable",
      "type": "function"
    },
    {
      "constant": false,
      "inputs": [],
      "name": "test_insert_updateTail",
      "outputs": [],
      "payable": false,
      "stateMutability": "nonpayable",
      "type": "function"
    },
    {
      "constant": false,
      "inputs": [],
      "name": "beforeAll",
      "outputs": [],
      "payable": false,
      "stateMutability": "nonpayable",
      "type": "function"
    },
    {
      "constant": false,
      "inputs": [],
      "name": "test_setMaxSize_decreaseSize",
      "outputs": [],
      "payable": false,
      "stateMutability": "nonpayable",
      "type": "function"
    },
    {
      "constant": false,
      "inputs": [],
      "name": "test_insert_atPosition",
      "outputs": [],
      "payable": false,
      "stateMutability": "nonpayable",
      "type": "function"
    },
    {
      "constant": false,
      "inputs": [],
      "name": "test_insert_full",
      "outputs": [],
      "payable": false,
      "stateMutability": "nonpayable",
      "type": "function"
    },
    {
      "constant": false,
      "inputs": [],
      "name": "test_setMaxSize",
      "outputs": [],
      "payable": false,
      "stateMutability": "nonpayable",
      "type": "function"
    },
    {
      "constant": false,
      "inputs": [],
      "name": "test_insert_empty",
      "outputs": [],
      "payable": false,
      "stateMutability": "nonpayable",
      "type": "function"
    },
    {
      "constant": false,
      "inputs": [],
      "name": "test_insert_null",
      "outputs": [],
      "payable": false,
      "stateMutability": "nonpayable",
      "type": "function"
    },
    {
      "constant": false,
      "inputs": [],
      "name": "test_setMaxSize_update",
      "outputs": [],
      "payable": false,
      "stateMutability": "nonpayable",
      "type": "function"
    },
    {
      "constant": false,
      "inputs": [],
      "name": "test_insert_zeroKey",
      "outputs": [],
      "payable": false,
      "stateMutability": "nonpayable",
      "type": "function"
    },
    {
      "constant": false,
      "inputs": [],
      "name": "test_insert_containsId",
      "outputs": [],
      "payable": false,
      "stateMutability": "nonpayable",
      "type": "function"
    }
  ],
  "bytecode": "0x61014060405260016080908152600260a052600360c052600460e0526005610100526006610120819052620000379160009162000099565b506040518060e00160405280600d8152602001600b815260200160098152602001600781526020016005815260200160058152602001600381525060019060076200008492919062000103565b503480156200009257600080fd5b5062000196565b828054828255906000526020600020908101928215620000f1579160200282015b82811115620000f157825182546001600160a01b0319166001600160a01b03909116178255602090920191600190910190620000ba565b50620000ff9291506200014f565b5090565b82805482825590600052602060002090810192821562000141579160200282015b828111156200014157825182559160200191906001019062000124565b50620000ff92915062000179565b6200017691905b80821115620000ff5780546001600160a01b031916815560010162000156565b90565b6200017691905b80821115620000ff576000815560010162000180565b6129a080620001a66000396000f3fe608060405234801561001057600080fd5b50600436106100cf5760003560e01c80639a3441701161008c578063bed36fee11610066578063bed36fee1461011e578063cf710b7314610126578063e98bf38e1461012e578063f3b15ffd14610136576100cf565b80639a34417014610106578063a99852601461010e578063acc3e28314610116576100cf565b80636331e7d4146100d4578063730b1952146100de5780637b564b7f146100e65780637fea0d4b146100ee578063973885c0146100f657806397c93398146100fe575b600080fd5b6100dc61013e565b005b6100dc6101e1565b6100dc610788565b6100dc610cab565b6100dc610cf6565b6100dc610e13565b6100dc61143f565b6100dc61176a565b6100dc611809565b6100dc611a7c565b6100dc611aa0565b6100dc611baf565b6100dc611c33565b60405161014a90611fa4565b604051809103906000f080158015610166573d6000803e3d6000fd5b50600280546001600160a01b0319166001600160a01b0392831617908190556040805163205b845f60e21b8152600360048201529051919092169163816e117c91602480830192600092919082900301818387803b1580156101c757600080fd5b505af11580156101db573d6000803e3d6000fd5b50505050565b600254600080546001600160a01b03909216916346f7cf879190600190811061020657fe5b600091825260209091200154600180546001600160a01b03909216918190811061022c57fe5b6000918252602082200154604080516001600160e01b031960e087901b1681526001600160a01b039094166004850152602484019190915260448301829052606483018290525160848084019382900301818387803b15801561028e57600080fd5b505af11580156102a2573d6000803e3d6000fd5b5050600254600080546001600160a01b0390921693506346f7cf8792509081906102c857fe5b6000918252602082200154600180546001600160a01b039092169290916102eb57fe5b906000526020600020015460008060018154811061030557fe5b6000918252602082200154604080516001600160e01b031960e089901b1681526001600160a01b03968716600482015260248101959095529285166044850152939093166064830152516084808301939282900301818387803b15801561036b57600080fd5b505af115801561037f573d6000803e3d6000fd5b50505050610429600260009054906101000a90046001600160a01b03166001600160a01b031663de8fa4316040518163ffffffff1660e01b815260040160206040518083038186803b1580156103d457600080fd5b505afa1580156103e8573d6000803e3d6000fd5b505050506040513d60208110156103fe57600080fd5b505160408051808201909152600a81526977726f6e672073697a6560b01b6020820152600290611d37565b5060025460408051631e22314360e01b815290516104ee926001600160a01b031691631e223143916004808301926020929190829003018186803b15801561047057600080fd5b505afa158015610484573d6000803e3d6000fd5b505050506040513d602081101561049a57600080fd5b50516000805481906104a857fe5b9060005260206000200160009054906101000a90046001600160a01b03166040518060400160405280600a8152602001691ddc9bdb99c81a19585960b21b815250611e2e565b50600254600080546105cb926001600160a01b0316916393790f4491819061051257fe5b60009182526020918290200154604080516001600160e01b031960e086901b1681526001600160a01b0390921660048301525160248083019392829003018186803b15801561056057600080fd5b505afa158015610574573d6000803e3d6000fd5b505050506040513d602081101561058a57600080fd5b50516001805460009061059957fe5b90600052602060002001546040518060400160405280600981526020016877726f6e67206b657960b81b815250611d37565b50600254600080546106be926001600160a01b03169163765e01599181906105ef57fe5b60009182526020918290200154604080516001600160e01b031960e086901b1681526001600160a01b0390921660048301525160248083019392829003018186803b15801561063d57600080fd5b505afa158015610651573d6000803e3d6000fd5b505050506040513d602081101561066757600080fd5b505160008054600190811061067857fe5b9060005260206000200160009054906101000a90046001600160a01b03166040518060400160405280600a8152602001691ddc9bdb99c81b995e1d60b21b815250611e2e565b5060025460008054610785926001600160a01b03169163b72703ac9181906106e257fe5b60009182526020918290200154604080516001600160e01b031960e086901b1681526001600160a01b0390921660048301525160248083019392829003018186803b15801561073057600080fd5b505afa158015610744573d6000803e3d6000fd5b505050506040513d602081101561075a57600080fd5b505160408051808201909152600a8152693bb937b73390383932bb60b11b6020820152600090611e2e565b50565b600254600080546001600160a01b03909216916346f7cf87919081906107aa57fe5b6000918252602082200154600180546001600160a01b039092169290916107cd57fe5b6000918252602082200154604080516001600160e01b031960e087901b1681526001600160a01b039094166004850152602484019190915260448301829052606483018290525160848084019382900301818387803b15801561082f57600080fd5b505af1158015610843573d6000803e3d6000fd5b5050600254600080546001600160a01b0390921693506346f7cf87925090600190811061086c57fe5b600091825260209091200154600180546001600160a01b03909216918190811061089257fe5b9060005260206000200154600080815481106108aa57fe5b6000918252602082200154604080516001600160e01b031960e088901b1681526001600160a01b0395861660048201526024810194909452931660448301526064820181905291516084808301939282900301818387803b15801561090e57600080fd5b505af1158015610922573d6000803e3d6000fd5b50505050610977600260009054906101000a90046001600160a01b03166001600160a01b031663de8fa4316040518163ffffffff1660e01b815260040160206040518083038186803b1580156103d457600080fd5b5060025460408051634d62283160e01b81529051610a3f926001600160a01b031691634d622831916004808301926020929190829003018186803b1580156109be57600080fd5b505afa1580156109d2573d6000803e3d6000fd5b505050506040513d60208110156109e857600080fd5b50516000805460019081106109f957fe5b9060005260206000200160009054906101000a90046001600160a01b03166040518060400160405280600a8152602001691ddc9bdb99c81d185a5b60b21b815250611e2e565b5060025460008054610aee926001600160a01b0316916393790f44916001908110610a6657fe5b60009182526020918290200154604080516001600160e01b031960e086901b1681526001600160a01b0390921660048301525160248083019392829003018186803b158015610ab457600080fd5b505afa158015610ac8573d6000803e3d6000fd5b505050506040513d6020811015610ade57600080fd5b5051600180548190811061059957fe5b5060025460008054610bb8926001600160a01b03169163765e0159916001908110610b1557fe5b60009182526020918290200154604080516001600160e01b031960e086901b1681526001600160a01b0390921660048301525160248083019392829003018186803b158015610b6357600080fd5b505afa158015610b77573d6000803e3d6000fd5b505050506040513d6020811015610b8d57600080fd5b505160408051808201909152600a8152691ddc9bdb99c81b995e1d60b21b6020820152600090611e2e565b5060025460008054610785926001600160a01b03169163b72703ac916001908110610bdf57fe5b60009182526020918290200154604080516001600160e01b031960e086901b1681526001600160a01b0390921660048301525160248083019392829003018186803b158015610c2d57600080fd5b505afa158015610c41573d6000803e3d6000fd5b505050506040513d6020811015610c5757600080fd5b5051600080548190610c6557fe5b9060005260206000200160009054906101000a90046001600160a01b03166040518060400160405280600a8152602001693bb937b73390383932bb60b11b815250611e2e565b604051610cb790611fb1565b604051809103906000f080158015610cd3573d6000803e3d6000fd5b50600380546001600160a01b0319166001600160a01b0392909216919091179055565b6003546040805163205b845f60e21b81526001600482015290516001600160a01b039092169163816e117c9160248082019260009290919082900301818387803b158015610d4357600080fd5b505af1158015610d57573d6000803e3d6000fd5b5050600354600254604080516325b2724960e11b81526001600160a01b039283166004820152905160009550919092169250634b64e4929160248082019260209290919082900301818787803b158015610db057600080fd5b505af1158015610dc4573d6000803e3d6000fd5b505050506040513d6020811015610dda57600080fd5b505160408051808201909152600e81526d191a59081b9bdd081c995d995c9d60921b6020820152909150610e0f908290611eb3565b5050565b600254600080546001600160a01b03909216916346f7cf8791908190610e3557fe5b6000918252602082200154600180546001600160a01b03909216929091610e5857fe5b6000918252602082200154604080516001600160e01b031960e087901b1681526001600160a01b039094166004850152602484019190915260448301829052606483018290525160848084019382900301818387803b158015610eba57600080fd5b505af1158015610ece573d6000803e3d6000fd5b505060028054600080546001600160a01b0390921694506346f7cf87935091908110610ef657fe5b600091825260209091200154600180546001600160a01b03909216916002908110610f1d57fe5b906000526020600020015460008081548110610f3557fe5b6000918252602082200154604080516001600160e01b031960e088901b1681526001600160a01b0395861660048201526024810194909452931660448301526064820181905291516084808301939282900301818387803b158015610f9957600080fd5b505af1158015610fad573d6000803e3d6000fd5b5050600254600080546001600160a01b0390921693506346f7cf879250906001908110610fd657fe5b600091825260209091200154600180546001600160a01b039092169181908110610ffc57fe5b90600052602060002001546000808154811061101457fe5b600091825260208220015481546001600160a01b039091169190600290811061103957fe5b6000918252602082200154604080516001600160e01b031960e089901b1681526001600160a01b03968716600482015260248101959095529285166044850152939093166064830152516084808301939282900301818387803b15801561109f57600080fd5b505af11580156110b3573d6000803e3d6000fd5b5050505061115d600260009054906101000a90046001600160a01b03166001600160a01b031663de8fa4316040518163ffffffff1660e01b815260040160206040518083038186803b15801561110857600080fd5b505afa15801561111c573d6000803e3d6000fd5b505050506040513d602081101561113257600080fd5b505160408051808201909152600a81526977726f6e672073697a6560b01b6020820152600390611d37565b5060025460008054611240926001600160a01b0316916393790f4491600190811061118457fe5b60009182526020918290200154604080516001600160e01b031960e086901b1681526001600160a01b0390921660048301525160248083019392829003018186803b1580156111d257600080fd5b505afa1580156111e6573d6000803e3d6000fd5b505050506040513d60208110156111fc57600080fd5b5051600180548190811061120c57fe5b90600052602060002001546040518060400160405280600b81526020016a77726f6e67207374616b6560a81b815250611d37565b5060025460008054611341926001600160a01b03169163765e015991600190811061126757fe5b60009182526020918290200154604080516001600160e01b031960e086901b1681526001600160a01b0390921660048301525160248083019392829003018186803b1580156112b557600080fd5b505afa1580156112c9573d6000803e3d6000fd5b505050506040513d60208110156112df57600080fd5b50516000805460029081106112f057fe5b9060005260206000200160009054906101000a90046001600160a01b0316604051806040016040528060158152602001743bb937b733903732bc3a103a3930b739b1b7b232b960591b815250611e2e565b5060025460008054610785926001600160a01b03169163b72703ac91600190811061136857fe5b60009182526020918290200154604080516001600160e01b031960e086901b1681526001600160a01b0390921660048301525160248083019392829003018186803b1580156113b657600080fd5b505afa1580156113ca573d6000803e3d6000fd5b505050506040513d60208110156113e057600080fd5b50516000805481906113ee57fe5b9060005260206000200160009054906101000a90046001600160a01b0316604051806040016040528060158152602001743bb937b73390383932bb103a3930b739b1b7b232b960591b815250611e2e565b600254600080546001600160a01b03909216916346f7cf879190819061146157fe5b6000918252602082200154600180546001600160a01b0390921692909161148457fe5b6000918252602082200154604080516001600160e01b031960e087901b1681526001600160a01b039094166004850152602484019190915260448301829052606483018290525160848084019382900301818387803b1580156114e657600080fd5b505af11580156114fa573d6000803e3d6000fd5b5050600254600080546001600160a01b0390921693506346f7cf87925090600190811061152357fe5b600091825260209091200154600180546001600160a01b03909216918190811061154957fe5b90600052602060002001546000808154811061156157fe5b6000918252602082200154604080516001600160e01b031960e088901b1681526001600160a01b0395861660048201526024810194909452931660448301526064820181905291516084808301939282900301818387803b1580156115c557600080fd5b505af11580156115d9573d6000803e3d6000fd5b505060028054600080546001600160a01b0390921694506346f7cf8793509190811061160157fe5b600091825260209091200154600180546001600160a01b0390921691600290811061162857fe5b9060005260206000200154600060018154811061164157fe5b6000918252602082200154604080516001600160e01b031960e088901b1681526001600160a01b0395861660048201526024810194909452931660448301526064820181905291516084808301939282900301818387803b1580156116a557600080fd5b505af11580156116b9573d6000803e3d6000fd5b505060038054600080546001600160a01b0390921694506346f7cf879350919081106116e157fe5b600091825260209091200154600180546001600160a01b0390921691600390811061170857fe5b6000918252602082200154604080516001600160e01b031960e087901b1681526001600160a01b039094166004850152602484019190915260448301829052606483018290525160848084019382900301818387803b158015610d4357600080fd5b600254604080516318f8755f60e21b81529051610785926001600160a01b0316916363e1d57c916004808301926020929190829003018186803b1580156117b057600080fd5b505afa1580156117c4573d6000803e3d6000fd5b505050506040513d60208110156117da57600080fd5b505160408051808201909152600e81526d77726f6e67206d61782073697a6560901b6020820152600390611d37565b600254600080546001600160a01b03909216916346f7cf879190819061182b57fe5b6000918252602082200154600180546001600160a01b0390921692909161184e57fe5b6000918252602082200154604080516001600160e01b031960e087901b1681526001600160a01b039094166004850152602484019190915260448301829052606483018290525160848084019382900301818387803b1580156118b057600080fd5b505af11580156118c4573d6000803e3d6000fd5b5050505061196e600260009054906101000a90046001600160a01b03166001600160a01b031663de8fa4316040518163ffffffff1660e01b815260040160206040518083038186803b15801561191957600080fd5b505afa15801561192d573d6000803e3d6000fd5b505050506040513d602081101561194357600080fd5b505160408051808201909152600a81526977726f6e672073697a6560b01b6020820152600190611d37565b5060025460408051631e22314360e01b815290516119b5926001600160a01b031691631e223143916004808301926020929190829003018186803b15801561047057600080fd5b5060025460408051634d62283160e01b81529051611a34926001600160a01b031691634d622831916004808301926020929190829003018186803b1580156119fc57600080fd5b505afa158015611a10573d6000803e3d6000fd5b505050506040513d6020811015611a2657600080fd5b50516000805481906109f957fe5b5060025460008054611a58926001600160a01b0316916393790f4491819061051257fe5b50600254600080546106be926001600160a01b03169163765e0159918190610b1557fe5b600354600180546001600160a01b03909216916346f7cf8791600091829061170857fe5b6002546040805163205b845f60e21b8152600a600482015290516001600160a01b039092169163816e117c9160248082019260009290919082900301818387803b158015611aed57600080fd5b505af1158015611b01573d6000803e3d6000fd5b50505050610785600260009054906101000a90046001600160a01b03166001600160a01b03166363e1d57c6040518163ffffffff1660e01b815260040160206040518083038186803b158015611b5657600080fd5b505afa158015611b6a573d6000803e3d6000fd5b505050506040513d6020811015611b8057600080fd5b505160408051808201909152600e81526d77726f6e67206d61782073697a6560901b6020820152600a90611d37565b600354600080546001600160a01b03909216916346f7cf8791908190611bd157fe5b6000918252602082200154604080516001600160e01b031960e086901b1681526001600160a01b039092166004830152602482018390526044820183905260648201839052516084808301939282900301818387803b158015610d4357600080fd5b600254600080546001600160a01b03909216916346f7cf8791908190611c5557fe5b6000918252602082200154600180546001600160a01b03909216929091611c7857fe5b6000918252602082200154604080516001600160e01b031960e087901b1681526001600160a01b039094166004850152602484019190915260448301829052606483018290525160848084019382900301818387803b158015611cda57600080fd5b505af1158015611cee573d6000803e3d6000fd5b5050600354600080546001600160a01b0390921693506346f7cf879250908190611d1457fe5b6000918252602082200154600180546001600160a01b0390921692909161170857fe5b600073__$e901dca744fb84f4a971fc691ff70ddea6$__63abcd79608585856040518463ffffffff1660e01b81526004018084815260200183815260200180602001828103825283818151815260200191508051906020019080838360005b83811015611dae578181015183820152602001611d96565b50505050905090810190601f168015611ddb5780820380516001836020036101000a031916815260200191505b5094505050505060206040518083038186803b158015611dfa57600080fd5b505af4158015611e0e573d6000803e3d6000fd5b505050506040513d6020811015611e2457600080fd5b5051949350505050565b604051635fdd2eeb60e11b81526001600160a01b0380851660048301908152908416602483015260606044830190815283516064840152835160009373__$1a5b6593da9104f28ce39fb5c69f6721d9$__9363bfba5dd693899389938993929160849091019060208501908083838d8315611dae578181015183820152602001611d96565b604080516337c3cf8760e21b8152831515600482019081526024820192835283516044830152835160009373__$c251312a8326b3dca0be11840a52f0a21e$__9363df0f3e1c938893889391926064019060208501908083838c5b83811015611f26578181015183820152602001611f0e565b50505050905090810190601f168015611f535780820380516001836020036101000a031916815260200191505b50935050505060206040518083038186803b158015611f7157600080fd5b505af4158015611f85573d6000803e3d6000fd5b505050506040513d6020811015611f9b57600080fd5b50519392505050565b61078e80611fbf83390190565b61021f8061274d8339019056fe608060405234801561001057600080fd5b5061076e806100206000396000f3fe608060405234801561001057600080fd5b50600436106100b45760003560e01c806363e1d57c1161007157806363e1d57c146101bf578063765e0159146101d9578063816e117c146101ff57806393790f441461021c578063b72703ac14610242578063de8fa43114610268576100b4565b80631e223143146100b957806329092d0e146100dd5780633855323f1461010557806346f7cf87146101415780634d6228311461017d5780635dbe47e814610185575b600080fd5b6100c1610270565b604080516001600160a01b039092168252519081900360200190f35b610103600480360360208110156100f357600080fd5b50356001600160a01b03166102f4565b005b6101036004803603608081101561011b57600080fd5b506001600160a01b0381358116916020810135916040820135811691606001351661036e565b6101036004803603608081101561015757600080fd5b506001600160a01b03813581169160208101359160408201358116916060013516610402565b6100c1610478565b6101ab6004803603602081101561019b57600080fd5b50356001600160a01b03166104cb565b604080519115158252519081900360200190f35b6101c7610560565b60408051918252519081900360200190f35b6100c1600480360360208110156101ef57600080fd5b50356001600160a01b0316610566565b6101036004803603602081101561021557600080fd5b50356105c9565b6101c76004803603602081101561023257600080fd5b50356001600160a01b0316610620565b6100c16004803603602081101561025857600080fd5b50356001600160a01b0316610683565b6101c76106e6565b60008073__$d23c89be677d40ab24c636937040b6165f$__632ebb2fed90916040518263ffffffff1660e01b81526004018082815260200191505060206040518083038186803b1580156102c357600080fd5b505af41580156102d7573d6000803e3d6000fd5b505050506040513d60208110156102ed57600080fd5b5051905090565b60408051635d35e00760e01b81526000600482018190526001600160a01b0384166024830152915173__$d23c89be677d40ab24c636937040b6165f$__92635d35e0079260448082019391829003018186803b15801561035357600080fd5b505af4158015610367573d6000803e3d6000fd5b5050505050565b60408051631c11bf7f60e11b81526000600482018190526001600160a01b03808816602484015260448301879052808616606484015284166084830152915173__$d23c89be677d40ab24c636937040b6165f$__926338237efe9260a48082019391829003018186803b1580156103e457600080fd5b505af41580156103f8573d6000803e3d6000fd5b5050505050505050565b604080516327dd54d360e11b81526000600482018190526001600160a01b03808816602484015260448301879052808616606484015284166084830152915173__$d23c89be677d40ab24c636937040b6165f$__92634fbaa9a69260a48082019391829003018186803b1580156103e457600080fd5b60008073__$d23c89be677d40ab24c636937040b6165f$__6372e40b2690916040518263ffffffff1660e01b81526004018082815260200191505060206040518083038186803b1580156102c357600080fd5b6040805163b0138c4760e01b81526000600482018190526001600160a01b0384166024830152915173__$d23c89be677d40ab24c636937040b6165f$__9163b0138c47916044808301926020929190829003018186803b15801561052e57600080fd5b505af4158015610542573d6000803e3d6000fd5b505050506040513d602081101561055857600080fd5b505192915050565b60025490565b6040805163e189dedb60e01b81526000600482018190526001600160a01b0384166024830152915173__$d23c89be677d40ab24c636937040b6165f$__9163e189dedb916044808301926020929190829003018186803b15801561052e57600080fd5b6040805163a176adaf60e01b815260006004820181905260248201849052915173__$d23c89be677d40ab24c636937040b6165f$__9263a176adaf9260448082019391829003018186803b15801561035357600080fd5b60408051631b0d022560e31b81526000600482018190526001600160a01b0384166024830152915173__$d23c89be677d40ab24c636937040b6165f$__9163d8681128916044808301926020929190829003018186803b15801561052e57600080fd5b6040805163fe1ee71960e01b81526000600482018190526001600160a01b0384166024830152915173__$d23c89be677d40ab24c636937040b6165f$__9163fe1ee719916044808301926020929190829003018186803b15801561052e57600080fd5b60008073__$d23c89be677d40ab24c636937040b6165f$__63b32ece5890916040518263ffffffff1660e01b81526004018082815260200191505060206040518083038186803b1580156102c357600080fdfea265627a7a72315820b39cc4041cda08b17200809d582476abfa4290e4cc0e8a7a54800f225e0b191764736f6c634300050b0032608060405234801561001057600080fd5b506101ff806100206000396000f3fe608060405234801561001057600080fd5b506004361061002b5760003560e01c80634b64e4921461003a575b6100376000803661012f565b50005b6100606004803603602081101561005057600080fd5b50356001600160a01b0316610074565b604080519115158252519081900360200190f35b600080826001600160a01b0316600060405180828054600181600116156101000203166002900480156100de5780601f106100bc5761010080835404028352918201916100de565b820191906000526020600020905b8154815290600101906020018083116100ca575b50509150506000604051808303816000865af19150503d8060008114610120576040519150601f19603f3d011682016040523d82523d6000602084013e610125565b606091505b5090949350505050565b828054600181600116156101000203166002900490600052602060002090601f016020900481019282601f106101705782800160ff1982351617855561019d565b8280016001018555821561019d579182015b8281111561019d578235825591602001919060010190610182565b506101a99291506101ad565b5090565b6101c791905b808211156101a957600081556001016101b3565b9056fea265627a7a72315820000c2c313f1b2f63296820515782bcfe10390cd6082d4f01b46589715877b7f164736f6c634300050b0032a265627a7a72315820afaea439b6e45349df647e4e5f7109a3283547e09febf6b0e457b2359f0463fe64736f6c634300050b0032",
  "linkReferences": {
    "contracts/libraries/SortedDoublyLL.sol": {
      "SortedDoublyLL": [
        {
          "length": 20,
          "start": 9210
        },
        {
          "length": 20,
          "start": 9379
        },
        {
          "length": 20,
          "start": 9524
        },
        {
          "length": 20,
          "start": 9672
        },
        {
          "length": 20,
          "start": 9730
        },
        {
          "length": 20,
          "start": 9850
        },
        {
          "length": 20,
          "start": 10005
        },
        {
          "length": 20,
          "start": 10096
        },
        {
          "length": 20,
          "start": 10191
        },
        {
          "length": 20,
          "start": 10290
        },
        {
          "length": 20,
          "start": 10352
        }
      ]
    },
    "contracts/test/helpers/truffle/AssertAddress.sol": {
      "AssertAddress": [
        {
          "length": 20,
          "start": 8210
        }
      ]
    },
    "contracts/test/helpers/truffle/AssertBool.sol": {
      "AssertBool": [
        {
          "length": 20,
          "start": 8326
        }
      ]
    },
    "contracts/test/helpers/truffle/AssertUint.sol": {
      "AssertUint": [
        {
          "length": 20,
          "start": 7905
        }
      ]
    }
  },
  "deployedLinkReferences": {
    "contracts/libraries/SortedDoublyLL.sol": {
      "SortedDoublyLL": [
        {
          "length": 20,
          "start": 8788
        },
        {
          "length": 20,
          "start": 8957
        },
        {
          "length": 20,
          "start": 9102
        },
        {
          "length": 20,
          "start": 9250
        },
        {
          "length": 20,
          "start": 9308
        },
        {
          "length": 20,
          "start": 9428
        },
        {
          "length": 20,
          "start": 9583
        },
        {
          "length": 20,
          "start": 9674
        },
        {
          "length": 20,
          "start": 9769
        },
        {
          "length": 20,
          "start": 9868
        },
        {
          "length": 20,
          "start": 9930
        }
      ]
    },
    "contracts/test/helpers/truffle/AssertAddress.sol": {
      "AssertAddress": [
        {
          "length": 20,
          "start": 7788
        }
      ]
    },
    "contracts/test/helpers/truffle/AssertBool.sol": {
      "AssertBool": [
        {
          "length": 20,
          "start": 7904
        }
      ]
    },
    "contracts/test/helpers/truffle/AssertUint.sol": {
      "AssertUint": [
        {
          "length": 20,
          "start": 7483
        }
      ]
    }
  }
}