{
  "_format": "hh-sol-artifact-1",
  "contractName": "KeyManagerMock",
  "sourceName": "contracts/mocks/KeyManagerMock.sol",
  "abi": [
    {
      "anonymous": false,
      "inputs": [
        {
          "indexed": true,
          "internalType": "address",
          "name": "owner",
          "type": "address"
        },
        {
          "indexed": true,
          "internalType": "address",
          "name": "approved",
          "type": "address"
        },
        {
          "indexed": true,
          "internalType": "uint256",
          "name": "tokenId",
          "type": "uint256"
        }
      ],
      "name": "Approval",
      "type": "event"
    },
    {
      "anonymous": false,
      "inputs": [
        {
          "indexed": true,
          "internalType": "address",
          "name": "owner",
          "type": "address"
        },
        {
          "indexed": true,
          "internalType": "address",
          "name": "operator",
          "type": "address"
        },
        {
          "indexed": false,
          "internalType": "bool",
          "name": "approved",
          "type": "bool"
        }
      ],
      "name": "ApprovalForAll",
      "type": "event"
    },
    {
      "anonymous": false,
      "inputs": [
        {
          "indexed": true,
          "internalType": "uint256",
          "name": "tokenId",
          "type": "uint256"
        },
        {
          "indexed": true,
          "internalType": "address",
          "name": "owner",
          "type": "address"
        },
        {
          "indexed": true,
          "internalType": "address",
          "name": "sendTo",
          "type": "address"
        },
        {
          "indexed": false,
          "internalType": "uint256",
          "name": "refund",
          "type": "uint256"
        }
      ],
      "name": "CancelKey",
      "type": "event"
    },
    {
      "anonymous": false,
      "inputs": [],
      "name": "Disable",
      "type": "event"
    },
    {
      "anonymous": false,
      "inputs": [
        {
          "indexed": true,
          "internalType": "uint256",
          "name": "_tokenId",
          "type": "uint256"
        },
        {
          "indexed": false,
          "internalType": "uint256",
          "name": "_amount",
          "type": "uint256"
        },
        {
          "indexed": false,
          "internalType": "bool",
          "name": "_timeAdded",
          "type": "bool"
        }
      ],
      "name": "ExpirationChanged",
      "type": "event"
    },
    {
      "anonymous": false,
      "inputs": [
        {
          "indexed": true,
          "internalType": "uint256",
          "name": "tokenId",
          "type": "uint256"
        }
      ],
      "name": "ExpireKey",
      "type": "event"
    },
    {
      "anonymous": false,
      "inputs": [
        {
          "indexed": true,
          "internalType": "address",
          "name": "account",
          "type": "address"
        }
      ],
      "name": "KeyGranterAdded",
      "type": "event"
    },
    {
      "anonymous": false,
      "inputs": [
        {
          "indexed": true,
          "internalType": "address",
          "name": "account",
          "type": "address"
        }
      ],
      "name": "KeyGranterRemoved",
      "type": "event"
    },
    {
      "anonymous": false,
      "inputs": [
        {
          "indexed": true,
          "internalType": "uint256",
          "name": "_tokenId",
          "type": "uint256"
        },
        {
          "indexed": true,
          "internalType": "address",
          "name": "_newManager",
          "type": "address"
        }
      ],
      "name": "KeyManagerChanged",
      "type": "event"
    },
    {
      "anonymous": false,
      "inputs": [
        {
          "indexed": true,
          "internalType": "address",
          "name": "account",
          "type": "address"
        }
      ],
      "name": "LockManagerAdded",
      "type": "event"
    },
    {
      "anonymous": false,
      "inputs": [
        {
          "indexed": true,
          "internalType": "address",
          "name": "account",
          "type": "address"
        }
      ],
      "name": "LockManagerRemoved",
      "type": "event"
    },
    {
      "anonymous": false,
      "inputs": [
        {
          "indexed": false,
          "internalType": "string",
          "name": "symbol",
          "type": "string"
        }
      ],
      "name": "NewLockSymbol",
      "type": "event"
    },
    {
      "anonymous": false,
      "inputs": [
        {
          "indexed": false,
          "internalType": "uint256",
          "name": "oldKeyPrice",
          "type": "uint256"
        },
        {
          "indexed": false,
          "internalType": "uint256",
          "name": "keyPrice",
          "type": "uint256"
        },
        {
          "indexed": false,
          "internalType": "address",
          "name": "oldTokenAddress",
          "type": "address"
        },
        {
          "indexed": false,
          "internalType": "address",
          "name": "tokenAddress",
          "type": "address"
        }
      ],
      "name": "PricingChanged",
      "type": "event"
    },
    {
      "anonymous": false,
      "inputs": [
        {
          "indexed": false,
          "internalType": "uint256",
          "name": "freeTrialLength",
          "type": "uint256"
        },
        {
          "indexed": false,
          "internalType": "uint256",
          "name": "refundPenaltyBasisPoints",
          "type": "uint256"
        }
      ],
      "name": "RefundPenaltyChanged",
      "type": "event"
    },
    {
      "anonymous": false,
      "inputs": [
        {
          "indexed": true,
          "internalType": "address",
          "name": "owner",
          "type": "address"
        },
        {
          "indexed": false,
          "internalType": "uint256",
          "name": "newExpiration",
          "type": "uint256"
        }
      ],
      "name": "RenewKeyPurchase",
      "type": "event"
    },
    {
      "anonymous": false,
      "inputs": [
        {
          "indexed": true,
          "internalType": "bytes32",
          "name": "role",
          "type": "bytes32"
        },
        {
          "indexed": true,
          "internalType": "bytes32",
          "name": "previousAdminRole",
          "type": "bytes32"
        },
        {
          "indexed": true,
          "internalType": "bytes32",
          "name": "newAdminRole",
          "type": "bytes32"
        }
      ],
      "name": "RoleAdminChanged",
      "type": "event"
    },
    {
      "anonymous": false,
      "inputs": [
        {
          "indexed": true,
          "internalType": "bytes32",
          "name": "role",
          "type": "bytes32"
        },
        {
          "indexed": true,
          "internalType": "address",
          "name": "account",
          "type": "address"
        },
        {
          "indexed": true,
          "internalType": "address",
          "name": "sender",
          "type": "address"
        }
      ],
      "name": "RoleGranted",
      "type": "event"
    },
    {
      "anonymous": false,
      "inputs": [
        {
          "indexed": true,
          "internalType": "bytes32",
          "name": "role",
          "type": "bytes32"
        },
        {
          "indexed": true,
          "internalType": "address",
          "name": "account",
          "type": "address"
        },
        {
          "indexed": true,
          "internalType": "address",
          "name": "sender",
          "type": "address"
        }
      ],
      "name": "RoleRevoked",
      "type": "event"
    },
    {
      "anonymous": false,
      "inputs": [
        {
          "indexed": true,
          "internalType": "address",
          "name": "from",
          "type": "address"
        },
        {
          "indexed": true,
          "internalType": "address",
          "name": "to",
          "type": "address"
        },
        {
          "indexed": true,
          "internalType": "uint256",
          "name": "tokenId",
          "type": "uint256"
        }
      ],
      "name": "Transfer",
      "type": "event"
    },
    {
      "anonymous": false,
      "inputs": [
        {
          "indexed": false,
          "internalType": "uint256",
          "name": "transferFeeBasisPoints",
          "type": "uint256"
        }
      ],
      "name": "TransferFeeChanged",
      "type": "event"
    },
    {
      "anonymous": false,
      "inputs": [
        {
          "indexed": true,
          "internalType": "address",
          "name": "sender",
          "type": "address"
        },
        {
          "indexed": true,
          "internalType": "address",
          "name": "tokenAddress",
          "type": "address"
        },
        {
          "indexed": true,
          "internalType": "address",
          "name": "beneficiary",
          "type": "address"
        },
        {
          "indexed": false,
          "internalType": "uint256",
          "name": "amount",
          "type": "uint256"
        }
      ],
      "name": "Withdrawal",
      "type": "event"
    },
    {
      "stateMutability": "payable",
      "type": "fallback"
    },
    {
      "inputs": [],
      "name": "DEFAULT_ADMIN_ROLE",
      "outputs": [
        {
          "internalType": "bytes32",
          "name": "",
          "type": "bytes32"
        }
      ],
      "stateMutability": "view",
      "type": "function"
    },
    {
      "inputs": [],
      "name": "KEY_GRANTER_ROLE",
      "outputs": [
        {
          "internalType": "bytes32",
          "name": "",
          "type": "bytes32"
        }
      ],
      "stateMutability": "view",
      "type": "function"
    },
    {
      "inputs": [],
      "name": "LOCK_MANAGER_ROLE",
      "outputs": [
        {
          "internalType": "bytes32",
          "name": "",
          "type": "bytes32"
        }
      ],
      "stateMutability": "view",
      "type": "function"
    },
    {
      "inputs": [
        {
          "internalType": "address",
          "name": "account",
          "type": "address"
        }
      ],
      "name": "addKeyGranter",
      "outputs": [],
      "stateMutability": "nonpayable",
      "type": "function"
    },
    {
      "inputs": [
        {
          "internalType": "address",
          "name": "account",
          "type": "address"
        }
      ],
      "name": "addLockManager",
      "outputs": [],
      "stateMutability": "nonpayable",
      "type": "function"
    },
    {
      "inputs": [
        {
          "internalType": "address",
          "name": "_approved",
          "type": "address"
        },
        {
          "internalType": "uint256",
          "name": "_tokenId",
          "type": "uint256"
        }
      ],
      "name": "approve",
      "outputs": [],
      "stateMutability": "nonpayable",
      "type": "function"
    },
    {
      "inputs": [
        {
          "internalType": "address",
          "name": "_spender",
          "type": "address"
        },
        {
          "internalType": "uint256",
          "name": "_amount",
          "type": "uint256"
        }
      ],
      "name": "approveBeneficiary",
      "outputs": [
        {
          "internalType": "bool",
          "name": "",
          "type": "bool"
        }
      ],
      "stateMutability": "nonpayable",
      "type": "function"
    },
    {
      "inputs": [
        {
          "internalType": "address",
          "name": "_keyOwner",
          "type": "address"
        }
      ],
      "name": "balanceOf",
      "outputs": [
        {
          "internalType": "uint256",
          "name": "",
          "type": "uint256"
        }
      ],
      "stateMutability": "view",
      "type": "function"
    },
    {
      "inputs": [],
      "name": "beneficiary",
      "outputs": [
        {
          "internalType": "address payable",
          "name": "",
          "type": "address"
        }
      ],
      "stateMutability": "view",
      "type": "function"
    },
    {
      "inputs": [
        {
          "internalType": "uint256",
          "name": "_tokenId",
          "type": "uint256"
        }
      ],
      "name": "cancelAndRefund",
      "outputs": [],
      "stateMutability": "nonpayable",
      "type": "function"
    },
    {
      "inputs": [],
      "name": "disableLock",
      "outputs": [],
      "stateMutability": "nonpayable",
      "type": "function"
    },
    {
      "inputs": [],
      "name": "expirationDuration",
      "outputs": [
        {
          "internalType": "uint256",
          "name": "",
          "type": "uint256"
        }
      ],
      "stateMutability": "view",
      "type": "function"
    },
    {
      "inputs": [
        {
          "internalType": "address payable",
          "name": "_keyOwner",
          "type": "address"
        },
        {
          "internalType": "uint256",
          "name": "amount",
          "type": "uint256"
        }
      ],
      "name": "expireAndRefundFor",
      "outputs": [],
      "stateMutability": "nonpayable",
      "type": "function"
    },
    {
      "inputs": [],
      "name": "freeTrialLength",
      "outputs": [
        {
          "internalType": "uint256",
          "name": "",
          "type": "uint256"
        }
      ],
      "stateMutability": "view",
      "type": "function"
    },
    {
      "inputs": [
        {
          "internalType": "uint256",
          "name": "_tokenId",
          "type": "uint256"
        }
      ],
      "name": "getApproved",
      "outputs": [
        {
          "internalType": "address",
          "name": "",
          "type": "address"
        }
      ],
      "stateMutability": "view",
      "type": "function"
    },
    {
      "inputs": [
        {
          "internalType": "address",
          "name": "_keyOwner",
          "type": "address"
        }
      ],
      "name": "getCancelAndRefundValueFor",
      "outputs": [
        {
          "internalType": "uint256",
          "name": "refund",
          "type": "uint256"
        }
      ],
      "stateMutability": "view",
      "type": "function"
    },
    {
      "inputs": [
        {
          "internalType": "address",
          "name": "_keyOwner",
          "type": "address"
        }
      ],
      "name": "getHasValidKey",
      "outputs": [
        {
          "internalType": "bool",
          "name": "",
          "type": "bool"
        }
      ],
      "stateMutability": "view",
      "type": "function"
    },
    {
      "inputs": [
        {
          "internalType": "bytes32",
          "name": "role",
          "type": "bytes32"
        }
      ],
      "name": "getRoleAdmin",
      "outputs": [
        {
          "internalType": "bytes32",
          "name": "",
          "type": "bytes32"
        }
      ],
      "stateMutability": "view",
      "type": "function"
    },
    {
      "inputs": [
        {
          "internalType": "address",
          "name": "_account",
          "type": "address"
        }
      ],
      "name": "getTokenIdFor",
      "outputs": [
        {
          "internalType": "uint256",
          "name": "",
          "type": "uint256"
        }
      ],
      "stateMutability": "view",
      "type": "function"
    },
    {
      "inputs": [
        {
          "internalType": "address",
          "name": "_keyOwner",
          "type": "address"
        },
        {
          "internalType": "uint256",
          "name": "_time",
          "type": "uint256"
        }
      ],
      "name": "getTransferFee",
      "outputs": [
        {
          "internalType": "uint256",
          "name": "",
          "type": "uint256"
        }
      ],
      "stateMutability": "view",
      "type": "function"
    },
    {
      "inputs": [
        {
          "internalType": "address[]",
          "name": "_recipients",
          "type": "address[]"
        },
        {
          "internalType": "uint256[]",
          "name": "_expirationTimestamps",
          "type": "uint256[]"
        },
        {
          "internalType": "address[]",
          "name": "_keyManagers",
          "type": "address[]"
        }
      ],
      "name": "grantKeys",
      "outputs": [],
      "stateMutability": "nonpayable",
      "type": "function"
    },
    {
      "inputs": [
        {
          "internalType": "bytes32",
          "name": "role",
          "type": "bytes32"
        },
        {
          "internalType": "address",
          "name": "account",
          "type": "address"
        }
      ],
      "name": "grantRole",
      "outputs": [],
      "stateMutability": "nonpayable",
      "type": "function"
    },
    {
      "inputs": [
        {
          "internalType": "bytes32",
          "name": "role",
          "type": "bytes32"
        },
        {
          "internalType": "address",
          "name": "account",
          "type": "address"
        }
      ],
      "name": "hasRole",
      "outputs": [
        {
          "internalType": "bool",
          "name": "",
          "type": "bool"
        }
      ],
      "stateMutability": "view",
      "type": "function"
    },
    {
      "inputs": [
        {
          "internalType": "address payable",
          "name": "_lockCreator",
          "type": "address"
        },
        {
          "internalType": "uint256",
          "name": "_expirationDuration",
          "type": "uint256"
        },
        {
          "internalType": "address",
          "name": "_tokenAddress",
          "type": "address"
        },
        {
          "internalType": "uint256",
          "name": "_keyPrice",
          "type": "uint256"
        },
        {
          "internalType": "uint256",
          "name": "_maxNumberOfKeys",
          "type": "uint256"
        },
        {
          "internalType": "string",
          "name": "_lockName",
          "type": "string"
        }
      ],
      "name": "initialize",
      "outputs": [],
      "stateMutability": "nonpayable",
      "type": "function"
    },
    {
      "inputs": [],
      "name": "isAlive",
      "outputs": [
        {
          "internalType": "bool",
          "name": "",
          "type": "bool"
        }
      ],
      "stateMutability": "view",
      "type": "function"
    },
    {
      "inputs": [
        {
          "internalType": "address",
          "name": "_owner",
          "type": "address"
        },
        {
          "internalType": "address",
          "name": "_operator",
          "type": "address"
        }
      ],
      "name": "isApprovedForAll",
      "outputs": [
        {
          "internalType": "bool",
          "name": "",
          "type": "bool"
        }
      ],
      "stateMutability": "view",
      "type": "function"
    },
    {
      "inputs": [
        {
          "internalType": "address",
          "name": "account",
          "type": "address"
        }
      ],
      "name": "isKeyGranter",
      "outputs": [
        {
          "internalType": "bool",
          "name": "",
          "type": "bool"
        }
      ],
      "stateMutability": "view",
      "type": "function"
    },
    {
      "inputs": [
        {
          "internalType": "uint256",
          "name": "_tokenId",
          "type": "uint256"
        },
        {
          "internalType": "address",
          "name": "_keyManager",
          "type": "address"
        }
      ],
      "name": "isKeyManager",
      "outputs": [
        {
          "internalType": "bool",
          "name": "",
          "type": "bool"
        }
      ],
      "stateMutability": "view",
      "type": "function"
    },
    {
      "inputs": [
        {
          "internalType": "address",
          "name": "account",
          "type": "address"
        }
      ],
      "name": "isLockManager",
      "outputs": [
        {
          "internalType": "bool",
          "name": "",
          "type": "bool"
        }
      ],
      "stateMutability": "view",
      "type": "function"
    },
    {
      "inputs": [
        {
          "internalType": "address",
          "name": "_keyOwner",
          "type": "address"
        }
      ],
      "name": "keyExpirationTimestampFor",
      "outputs": [
        {
          "internalType": "uint256",
          "name": "",
          "type": "uint256"
        }
      ],
      "stateMutability": "view",
      "type": "function"
    },
    {
      "inputs": [
        {
          "internalType": "uint256",
          "name": "",
          "type": "uint256"
        }
      ],
      "name": "keyManagerOf",
      "outputs": [
        {
          "internalType": "address",
          "name": "",
          "type": "address"
        }
      ],
      "stateMutability": "view",
      "type": "function"
    },
    {
      "inputs": [],
      "name": "keyPrice",
      "outputs": [
        {
          "internalType": "uint256",
          "name": "",
          "type": "uint256"
        }
      ],
      "stateMutability": "view",
      "type": "function"
    },
    {
      "inputs": [],
      "name": "maxNumberOfKeys",
      "outputs": [
        {
          "internalType": "uint256",
          "name": "",
          "type": "uint256"
        }
      ],
      "stateMutability": "view",
      "type": "function"
    },
    {
      "inputs": [],
      "name": "name",
      "outputs": [
        {
          "internalType": "string",
          "name": "",
          "type": "string"
        }
      ],
      "stateMutability": "view",
      "type": "function"
    },
    {
      "inputs": [],
      "name": "numberOfOwners",
      "outputs": [
        {
          "internalType": "uint256",
          "name": "",
          "type": "uint256"
        }
      ],
      "stateMutability": "view",
      "type": "function"
    },
    {
      "inputs": [],
      "name": "onKeyCancelHook",
      "outputs": [
        {
          "internalType": "contract ILockKeyCancelHook",
          "name": "",
          "type": "address"
        }
      ],
      "stateMutability": "view",
      "type": "function"
    },
    {
      "inputs": [],
      "name": "onKeyPurchaseHook",
      "outputs": [
        {
          "internalType": "contract ILockKeyPurchaseHook",
          "name": "",
          "type": "address"
        }
      ],
      "stateMutability": "view",
      "type": "function"
    },
    {
      "inputs": [
        {
          "internalType": "uint256",
          "name": "_tokenId",
          "type": "uint256"
        }
      ],
      "name": "ownerOf",
      "outputs": [
        {
          "internalType": "address",
          "name": "",
          "type": "address"
        }
      ],
      "stateMutability": "view",
      "type": "function"
    },
    {
      "inputs": [
        {
          "internalType": "uint256",
          "name": "",
          "type": "uint256"
        }
      ],
      "name": "owners",
      "outputs": [
        {
          "internalType": "address",
          "name": "",
          "type": "address"
        }
      ],
      "stateMutability": "view",
      "type": "function"
    },
    {
      "inputs": [],
      "name": "publicLockVersion",
      "outputs": [
        {
          "internalType": "uint16",
          "name": "",
          "type": "uint16"
        }
      ],
      "stateMutability": "pure",
      "type": "function"
    },
    {
      "inputs": [
        {
          "internalType": "uint256",
          "name": "_value",
          "type": "uint256"
        },
        {
          "internalType": "address",
          "name": "_recipient",
          "type": "address"
        },
        {
          "internalType": "address",
          "name": "_referrer",
          "type": "address"
        },
        {
          "internalType": "bytes",
          "name": "_data",
          "type": "bytes"
        }
      ],
      "name": "purchase",
      "outputs": [],
      "stateMutability": "payable",
      "type": "function"
    },
    {
      "inputs": [
        {
          "internalType": "address",
          "name": "_recipient",
          "type": "address"
        },
        {
          "internalType": "address",
          "name": "_referrer",
          "type": "address"
        },
        {
          "internalType": "bytes",
          "name": "_data",
          "type": "bytes"
        }
      ],
      "name": "purchasePriceFor",
      "outputs": [
        {
          "internalType": "uint256",
          "name": "minKeyPrice",
          "type": "uint256"
        }
      ],
      "stateMutability": "view",
      "type": "function"
    },
    {
      "inputs": [],
      "name": "refundPenaltyBasisPoints",
      "outputs": [
        {
          "internalType": "uint256",
          "name": "",
          "type": "uint256"
        }
      ],
      "stateMutability": "view",
      "type": "function"
    },
    {
      "inputs": [],
      "name": "renounceLockManager",
      "outputs": [],
      "stateMutability": "nonpayable",
      "type": "function"
    },
    {
      "inputs": [
        {
          "internalType": "bytes32",
          "name": "role",
          "type": "bytes32"
        },
        {
          "internalType": "address",
          "name": "account",
          "type": "address"
        }
      ],
      "name": "renounceRole",
      "outputs": [],
      "stateMutability": "nonpayable",
      "type": "function"
    },
    {
      "inputs": [
        {
          "internalType": "address",
          "name": "_granter",
          "type": "address"
        }
      ],
      "name": "revokeKeyGranter",
      "outputs": [],
      "stateMutability": "nonpayable",
      "type": "function"
    },
    {
      "inputs": [
        {
          "internalType": "bytes32",
          "name": "role",
          "type": "bytes32"
        },
        {
          "internalType": "address",
          "name": "account",
          "type": "address"
        }
      ],
      "name": "revokeRole",
      "outputs": [],
      "stateMutability": "nonpayable",
      "type": "function"
    },
    {
      "inputs": [
        {
          "internalType": "address",
          "name": "_from",
          "type": "address"
        },
        {
          "internalType": "address",
          "name": "_to",
          "type": "address"
        },
        {
          "internalType": "uint256",
          "name": "_tokenId",
          "type": "uint256"
        }
      ],
      "name": "safeTransferFrom",
      "outputs": [],
      "stateMutability": "nonpayable",
      "type": "function"
    },
    {
      "inputs": [
        {
          "internalType": "address",
          "name": "_from",
          "type": "address"
        },
        {
          "internalType": "address",
          "name": "_to",
          "type": "address"
        },
        {
          "internalType": "uint256",
          "name": "_tokenId",
          "type": "uint256"
        },
        {
          "internalType": "bytes",
          "name": "_data",
          "type": "bytes"
        }
      ],
      "name": "safeTransferFrom",
      "outputs": [],
      "stateMutability": "nonpayable",
      "type": "function"
    },
    {
      "inputs": [
        {
          "internalType": "address",
          "name": "_to",
          "type": "address"
        },
        {
          "internalType": "bool",
          "name": "_approved",
          "type": "bool"
        }
      ],
      "name": "setApprovalForAll",
      "outputs": [],
      "stateMutability": "nonpayable",
      "type": "function"
    },
    {
      "inputs": [
        {
          "internalType": "string",
          "name": "_baseTokenURI",
          "type": "string"
        }
      ],
      "name": "setBaseTokenURI",
      "outputs": [],
      "stateMutability": "nonpayable",
      "type": "function"
    },
    {
      "inputs": [
        {
          "internalType": "address",
          "name": "_onKeyPurchaseHook",
          "type": "address"
        },
        {
          "internalType": "address",
          "name": "_onKeyCancelHook",
          "type": "address"
        }
      ],
      "name": "setEventHooks",
      "outputs": [],
      "stateMutability": "nonpayable",
      "type": "function"
    },
    {
      "inputs": [
        {
          "internalType": "uint256",
          "name": "_tokenId",
          "type": "uint256"
        },
        {
          "internalType": "address",
          "name": "_keyManager",
          "type": "address"
        }
      ],
      "name": "setKeyManagerOf",
      "outputs": [],
      "stateMutability": "nonpayable",
      "type": "function"
    },
    {
      "inputs": [
        {
          "internalType": "address",
          "name": "_to",
          "type": "address"
        },
        {
          "internalType": "uint256",
          "name": "_tokenId",
          "type": "uint256"
        },
        {
          "internalType": "uint256",
          "name": "_timeShared",
          "type": "uint256"
        }
      ],
      "name": "shareKey",
      "outputs": [],
      "stateMutability": "nonpayable",
      "type": "function"
    },
    {
      "inputs": [
        {
          "internalType": "bytes4",
          "name": "interfaceId",
          "type": "bytes4"
        }
      ],
      "name": "supportsInterface",
      "outputs": [
        {
          "internalType": "bool",
          "name": "",
          "type": "bool"
        }
      ],
      "stateMutability": "view",
      "type": "function"
    },
    {
      "inputs": [],
      "name": "symbol",
      "outputs": [
        {
          "internalType": "string",
          "name": "",
          "type": "string"
        }
      ],
      "stateMutability": "view",
      "type": "function"
    },
    {
      "inputs": [],
      "name": "tokenAddress",
      "outputs": [
        {
          "internalType": "address",
          "name": "",
          "type": "address"
        }
      ],
      "stateMutability": "view",
      "type": "function"
    },
    {
      "inputs": [
        {
          "internalType": "uint256",
          "name": "_index",
          "type": "uint256"
        }
      ],
      "name": "tokenByIndex",
      "outputs": [
        {
          "internalType": "uint256",
          "name": "",
          "type": "uint256"
        }
      ],
      "stateMutability": "view",
      "type": "function"
    },
    {
      "inputs": [
        {
          "internalType": "address",
          "name": "_keyOwner",
          "type": "address"
        },
        {
          "internalType": "uint256",
          "name": "_index",
          "type": "uint256"
        }
      ],
      "name": "tokenOfOwnerByIndex",
      "outputs": [
        {
          "internalType": "uint256",
          "name": "",
          "type": "uint256"
        }
      ],
      "stateMutability": "view",
      "type": "function"
    },
    {
      "inputs": [
        {
          "internalType": "uint256",
          "name": "_tokenId",
          "type": "uint256"
        }
      ],
      "name": "tokenURI",
      "outputs": [
        {
          "internalType": "string",
          "name": "",
          "type": "string"
        }
      ],
      "stateMutability": "view",
      "type": "function"
    },
    {
      "inputs": [],
      "name": "totalSupply",
      "outputs": [
        {
          "internalType": "uint256",
          "name": "",
          "type": "uint256"
        }
      ],
      "stateMutability": "view",
      "type": "function"
    },
    {
      "inputs": [
        {
          "internalType": "address",
          "name": "_to",
          "type": "address"
        },
        {
          "internalType": "uint256",
          "name": "_value",
          "type": "uint256"
        }
      ],
      "name": "transfer",
      "outputs": [
        {
          "internalType": "bool",
          "name": "success",
          "type": "bool"
        }
      ],
      "stateMutability": "nonpayable",
      "type": "function"
    },
    {
      "inputs": [],
      "name": "transferFeeBasisPoints",
      "outputs": [
        {
          "internalType": "uint256",
          "name": "",
          "type": "uint256"
        }
      ],
      "stateMutability": "view",
      "type": "function"
    },
    {
      "inputs": [
        {
          "internalType": "address",
          "name": "_from",
          "type": "address"
        },
        {
          "internalType": "address",
          "name": "_recipient",
          "type": "address"
        },
        {
          "internalType": "uint256",
          "name": "_tokenId",
          "type": "uint256"
        }
      ],
      "name": "transferFrom",
      "outputs": [],
      "stateMutability": "nonpayable",
      "type": "function"
    },
    {
      "inputs": [],
      "name": "unlockProtocol",
      "outputs": [
        {
          "internalType": "contract IUnlock",
          "name": "",
          "type": "address"
        }
      ],
      "stateMutability": "view",
      "type": "function"
    },
    {
      "inputs": [
        {
          "internalType": "address payable",
          "name": "_beneficiary",
          "type": "address"
        }
      ],
      "name": "updateBeneficiary",
      "outputs": [],
      "stateMutability": "nonpayable",
      "type": "function"
    },
    {
      "inputs": [
        {
          "internalType": "uint256",
          "name": "_keyPrice",
          "type": "uint256"
        },
        {
          "internalType": "address",
          "name": "_tokenAddress",
          "type": "address"
        }
      ],
      "name": "updateKeyPricing",
      "outputs": [],
      "stateMutability": "nonpayable",
      "type": "function"
    },
    {
      "inputs": [
        {
          "internalType": "string",
          "name": "_lockName",
          "type": "string"
        }
      ],
      "name": "updateLockName",
      "outputs": [],
      "stateMutability": "nonpayable",
      "type": "function"
    },
    {
      "inputs": [
        {
          "internalType": "string",
          "name": "_lockSymbol",
          "type": "string"
        }
      ],
      "name": "updateLockSymbol",
      "outputs": [],
      "stateMutability": "nonpayable",
      "type": "function"
    },
    {
      "inputs": [
        {
          "internalType": "uint256",
          "name": "_freeTrialLength",
          "type": "uint256"
        },
        {
          "internalType": "uint256",
          "name": "_refundPenaltyBasisPoints",
          "type": "uint256"
        }
      ],
      "name": "updateRefundPenalty",
      "outputs": [],
      "stateMutability": "nonpayable",
      "type": "function"
    },
    {
      "inputs": [
        {
          "internalType": "uint256",
          "name": "_transferFeeBasisPoints",
          "type": "uint256"
        }
      ],
      "name": "updateTransferFee",
      "outputs": [],
      "stateMutability": "nonpayable",
      "type": "function"
    },
    {
      "inputs": [
        {
          "internalType": "address",
          "name": "_tokenAddress",
          "type": "address"
        },
        {
          "internalType": "uint256",
          "name": "_amount",
          "type": "uint256"
        }
      ],
      "name": "withdraw",
      "outputs": [],
      "stateMutability": "nonpayable",
      "type": "function"
    },
    {
      "stateMutability": "payable",
      "type": "receive"
    }
  ],
  "bytecode": "0x608060405234801561001057600080fd5b506153ed806100206000396000f3fe6080604052600436106103ef5760003560e01c80636eadde4311610206578063aae4b8f711610117578063d2503485116100a5578063f0ba604011610077578063f0ba604014610c81578063f12c6b6e14610c96578063f3fef3a314610cb6578063f433462214610cd6578063fc42b58f14610cf657005b8063d250348514610c01578063d32bfb6c14610c21578063d547741f14610c41578063e985e9c514610c6157005b8063b585a6d5116100e9578063b585a6d514610b70578063b88d4fde14610b90578063c1c98d0314610bb0578063c87b56dd14610bc5578063d1bbd49c14610be557005b8063aae4b8f714610ad7578063abdf82ce14610af7578063ad0e0a4d14610b30578063b11d7ec114610b5057005b806395d89b4111610194578063a217fddf11610166578063a217fddf14610a4c578063a22cb46514610a61578063a2e4cd2e14610a81578063a375cb0514610aa1578063a9059cbb14610ab757005b806395d89b41146109c1578063970aaeb7146109d657806397aa390a14610a0c5780639d76ea5814610a2c57005b806381a3c943116101d857806381a3c9431461092a5780638577a6d51461094a5780638ca2fbad1461096a57806391d148541461098c57806393fd1844146109ac57005b80636eadde43146108b457806370a08231146108d457806374b6c106146108f4578063782a4ade1461090a57005b80632f2ff15d116103005780634d025fed1161028e578063550ef3a811610260578063550ef3a814610808578063564aa99d1461082857806356e0d51f146108485780636352211e1461085e5780636d8ea5b41461089457005b80634d025fed146107725780634f6ccce7146107a857806352b0f638146107c857806352d6a8e4146107e857005b806338af3eed116102d257806338af3eed146106de57806339f46986146106fe5780633f33133a1461071e5780634136aa351461073157806342842e0e1461075257005b80632f2ff15d1461065e5780632f745c591461067e57806330176e131461069e57806336568abe146106be57005b806311a4c03a1161037d578063231005091161034f57806323100509146105ac57806323b872dd146105ce578063248a9ca3146105ee5780632af9162a1461061e5780632d33dd5b1461063e57005b806311a4c03a1461054b57806318160ddd14610561578063183767da14610576578063217751bc1461058c57005b8063095ea7b3116103c1578063095ea7b3146104a7578063097ba333146104c75780630aaffd2a146104f55780630f15023b1461051557806310e569731461053557005b806301ffc9a7146103f8578063025e7c271461042d57806306fdde0314610465578063081812fc1461048757005b366103f657005b005b34801561040457600080fd5b50610418610413366004614c57565b610d16565b60405190151581526020015b60405180910390f35b34801561043957600080fd5b5061044d610448366004614c1b565b610d27565b6040516001600160a01b039091168152602001610424565b34801561047157600080fd5b5061047a610d51565b604051610424919061500f565b34801561049357600080fd5b5061044d6104a2366004614c1b565b610ddf565b3480156104b357600080fd5b506103f66104c2366004614b24565b610e59565b3480156104d357600080fd5b506104e76104e23660046149af565b610f91565b604051908152602001610424565b34801561050157600080fd5b506103f66105103660046148ad565b610fe0565b34801561052157600080fd5b5060ca5461044d906001600160a01b031681565b34801561054157600080fd5b506104e760cc5481565b34801561055757600080fd5b506104e760cb5481565b34801561056d57600080fd5b5060ce546104e7565b34801561058257600080fd5b506104e760db5481565b34801561059857600080fd5b5060d15461044d906001600160a01b031681565b3480156105b857600080fd5b506104e760008051602061535883398151915281565b3480156105da57600080fd5b506103f66105e9366004614a11565b611091565b3480156105fa57600080fd5b506104e7610609366004614c1b565b60009081526097602052604090206001015490565b34801561062a57600080fd5b506103f66106393660046148ad565b611307565b34801561064a57600080fd5b5060d05461044d906001600160a01b031681565b34801561066a57600080fd5b506103f6610679366004614c33565b61138a565b34801561068a57600080fd5b506104e7610699366004614b24565b6113b5565b3480156106aa57600080fd5b506103f66106b9366004614c8f565b61141f565b3480156106ca57600080fd5b506103f66106d9366004614c33565b61145f565b3480156106ea57600080fd5b5060cf5461044d906001600160a01b031681565b34801561070a57600080fd5b506103f6610719366004614dc8565b6114dd565b6103f661072c366004614d58565b611555565b34801561073d57600080fd5b5060c95461041890600160a01b900460ff1681565b34801561075e57600080fd5b506103f661076d366004614a11565b6119cf565b34801561077e57600080fd5b5061044d61078d366004614c1b565b60d5602052600090815260409020546001600160a01b031681565b3480156107b457600080fd5b506104e76107c3366004614c1b565b6119ea565b3480156107d457600080fd5b506104186107e33660046148ad565b611a30565b3480156107f457600080fd5b506104e76108033660046148ad565b611a4a565b34801561081457600080fd5b506103f6610823366004614c8f565b611a55565b34801561083457600080fd5b506103f66108433660046148ad565b611a95565b34801561085457600080fd5b506104e760dc5481565b34801561086a57600080fd5b5061044d610879366004614c1b565b600090815260d360205260409020546001600160a01b031690565b3480156108a057600080fd5b506104186108af3660046148ad565b611b18565b3480156108c057600080fd5b506103f66108cf3660046148f4565b611b38565b3480156108e057600080fd5b506104e76108ef3660046148ad565b611c0e565b34801561090057600080fd5b506104e760cd5481565b34801561091657600080fd5b506103f6610925366004614c8f565b611c56565b34801561093657600080fd5b506103f6610945366004614b6a565b611cd4565b34801561095657600080fd5b506103f6610965366004614c1b565b611f41565b34801561097657600080fd5b506104e760008051602061539883398151915281565b34801561099857600080fd5b506104186109a7366004614c33565b611fad565b3480156109b857600080fd5b5060d4546104e7565b3480156109cd57600080fd5b5061047a611fd8565b3480156109e257600080fd5b506104e76109f13660046148ad565b6001600160a01b0316600090815260d2602052604090205490565b348015610a1857600080fd5b506103f6610a273660046148c9565b61210e565b348015610a3857600080fd5b5060c95461044d906001600160a01b031681565b348015610a5857600080fd5b506104e7600081565b348015610a6d57600080fd5b506103f6610a7c366004614af7565b612172565b348015610a8d57600080fd5b506103f6610a9c366004614c33565b61224f565b348015610aad57600080fd5b506104e760dd5481565b348015610ac357600080fd5b50610418610ad2366004614b24565b6123e9565b348015610ae357600080fd5b50610418610af23660046148ad565b612456565b348015610b0357600080fd5b506104e7610b123660046148ad565b6001600160a01b0316600090815260d2602052604090206001015490565b348015610b3c57600080fd5b506103f6610b4b366004614977565b612470565b348015610b5c57600080fd5b506103f6610b6b366004614c33565b6125a8565b348015610b7c57600080fd5b50610418610b8b366004614b24565b61266b565b348015610b9c57600080fd5b506103f6610bab366004614a51565b61275d565b348015610bbc57600080fd5b506103f66127c6565b348015610bd157600080fd5b5061047a610be0366004614c1b565b61285b565b348015610bf157600080fd5b5060405160098152602001610424565b348015610c0d57600080fd5b506103f6610c1c3660046148ad565b612a21565b348015610c2d57600080fd5b506103f6610c3c366004614c1b565b612aa4565b348015610c4d57600080fd5b506103f6610c5c366004614c33565b612b31565b348015610c6d57600080fd5b50610418610c7c366004614977565b612b57565b348015610c8d57600080fd5b506103f6612bec565b348015610ca257600080fd5b506103f6610cb1366004614b36565b612c31565b348015610cc257600080fd5b506103f6610cd1366004614b24565b612f25565b348015610ce257600080fd5b50610418610cf1366004614c33565b6130df565b348015610d0257600080fd5b506104e7610d11366004614b24565b6130eb565b6000610d2182613162565b92915050565b60d48181548110610d3757600080fd5b6000918252602090912001546001600160a01b0316905081565b60d88054610d5e906152a2565b80601f0160208091040260200160405190810160405280929190818152602001828054610d8a906152a2565b8015610dd75780601f10610dac57610100808354040283529160200191610dd7565b820191906000526020600020905b815481529060010190602001808311610dba57829003601f168201915b505050505081565b600081815260d3602052604081205482906001600160a01b0316610e385760405162461bcd60e51b815260206004820152600b60248201526a4e4f5f535543485f4b455960a81b60448201526064015b60405180910390fd5b600083815260d660205260409020546001600160a01b031691505b50919050565b60c954600160a01b900460ff16610e825760405162461bcd60e51b8152600401610e2f9061514c565b80610e8d813361316d565b80610e9d5750610e9d81336131e3565b80610ec55750600081815260d36020526040902054610ec5906001600160a01b031633612b57565b610ee15760405162461bcd60e51b8152600401610e2f90615072565b336001600160a01b0384161415610f295760405162461bcd60e51b815260206004820152600c60248201526b20a8282927ab22afa9a2a62360a11b6044820152606401610e2f565b600082815260d66020908152604080832080546001600160a01b0319166001600160a01b0388811691821790925560d3909352818420549151869492909116917f8c5be1e5ebec7d5bd14f71427d1e84f3dd0314c0f7b2291e5b200ac8c7c3b92591a4505050565b6000610fd4858585858080601f01602080910402602001604051908101604052809392919081815260200183838082843760009201919091525061320492505050565b50909695505050505050565b60cf546001600160a01b0316331480610ffd5750610ffd33612456565b6110495760405162461bcd60e51b815260206004820152601f60248201527f4f4e4c595f42454e45464943494152595f4f525f4c4f434b4d414e41474552006044820152606401610e2f565b6001600160a01b03811661106f5760405162461bcd60e51b8152600401610e2f90615022565b60cf80546001600160a01b0319166001600160a01b0392909216919091179055565b60c954600160a01b900460ff166110ba5760405162461bcd60e51b8152600401610e2f9061514c565b826110c481611b18565b6110e05760405162461bcd60e51b8152600401610e2f9061504b565b816110eb813361316d565b806110fb57506110fb81336131e3565b806111235750600081815260d36020526040902054611123906001600160a01b031633612b57565b61113f5760405162461bcd60e51b8152600401610e2f90615072565b600083815260d360205260409020546001600160a01b038681169116146111a85760405162461bcd60e51b815260206004820152601c60248201527f5452414e534645525f46524f4d3a204e4f545f4b45595f4f574e4552000000006044820152606401610e2f565b61271060db54106111f45760405162461bcd60e51b815260206004820152601660248201527512d15657d514905394d1915494d7d11254d05093115160521b6044820152606401610e2f565b6001600160a01b03841661121a5760405162461bcd60e51b8152600401610e2f90615022565b60006112278660006130eb565b6001600160a01b03808816600090815260d2602052604080822092891682528120600181015493945091929061126090889086906133a3565b815461127c5786825561127388886134a4565b61127c8761352b565b4281116112aa576001808401549083015586825561129b876000613568565b6112a588886134a4565b6112cb565b428184600101546112bb91906151cc565b6112c59190615248565b60018301555b426001840155600080845560405188916001600160a01b03808c1692908d169160008051602061537883398151915291a4505050505050505050565b61131f60008051602061539883398151915233611fad565b61133b5760405162461bcd60e51b8152600401610e2f906150f7565b61135360008051602061535883398151915282612b31565b6040516001600160a01b038216907f766f6199fea59554b9ff688e413302b9200f85d74811c053c12d945ac6d8dd7a90600090a250565b6000828152609760205260409020600101546113a681336135ea565b6113b0838361364e565b505050565b600081156113fe5760405162461bcd60e51b815260206004820152601660248201527527a7262cafa7a722afa5a2acafa822a92fa7aba722a960511b6044820152606401610e2f565b6001600160a01b038316600090815260d260205260409020545b9392505050565b61143760008051602061539883398151915233611fad565b6114535760405162461bcd60e51b8152600401610e2f906150f7565b6113b060da8383614795565b6001600160a01b03811633146114cf5760405162461bcd60e51b815260206004820152602f60248201527f416363657373436f6e74726f6c3a2063616e206f6e6c792072656e6f756e636560448201526e103937b632b9903337b91039b2b63360891b6064820152608401610e2f565b6114d982826136d4565b5050565b6114f560008051602061539883398151915233611fad565b6115115760405162461bcd60e51b8152600401610e2f906150f7565b60408051838152602081018390527fd6867bc538320e67d7bdc35860c27c08486eb490b4fd9b820fff18fb28381d3c910160405180910390a160dd9190915560dc55565b60c954600160a01b900460ff1661157e5760405162461bcd60e51b8152600401610e2f9061514c565b60ce5460cd54116115c15760405162461bcd60e51b815260206004820152600d60248201526c1313d0d2d7d4d3d31117d3d555609a1b6044820152606401610e2f565b6001600160a01b0384166115e75760405162461bcd60e51b8152600401610e2f90615022565b6001600160a01b038416600090815260d2602052604081208054909181611661576116118361373b565b8254915061161f87836134a4565b60cb5461162c90426151cc565b6001840181905560405190915082906001600160a01b03891690600090600080516020615378833981519152908290a4611731565b42836001015411156116cc5760cb54836001015461167f91906151cc565b600184018190556040518181529091506001600160a01b038816907f872bd7c99ad5e7b6ed7f0a890f348839cb8e225c9deaa3909afedae54c93d17d9060200160405180910390a2611731565b60cb546116d990426151cc565b6001840181905590506116ed826000613568565b866001600160a01b03167f872bd7c99ad5e7b6ed7f0a890f348839cb8e225c9deaa3909afedae54c93d17d8260405161172891815260200190565b60405180910390a25b60008060006117778a8a8a8a8080601f01602080910402602001604051908101604052809392919081815260200183838082843760009201919091525061320492505050565b9194509250905081156117ea5760ca54604051633652466360e01b815260048101849052602481018390526001600160a01b0390911690633652466390604401600060405180830381600087803b1580156117d157600080fd5b505af11580156117e5573d6000803e3d6000fd5b505050505b60ca5460405163939d9f1f60e01b8152600481018590526001600160a01b038b811660248301529091169063939d9f1f90604401600060405180830381600087803b15801561183857600080fd5b505af115801561184c573d6000803e3d6000fd5b505060c954600092506001600160a01b03161590506118f9575060c9546040516323b872dd60e01b8152336004820152306024820152604481018d90528c916001600160a01b03169081906323b872dd90606401602060405180830381600087803b1580156118ba57600080fd5b505af11580156118ce573d6000803e3d6000fd5b505050506040513d601f19601f820116820180604052508101906118f29190614bff565b50506118fc565b50345b838110156119415760405162461bcd60e51b8152602060048201526012602482015271494e53554646494349454e545f56414c554560701b6044820152606401610e2f565b60d0546001600160a01b0316156119c15760d054604051639849965760e01b81526001600160a01b039091169063984996579061198e9033908f908f908f908f908c908a90600401614f49565b600060405180830381600087803b1580156119a857600080fd5b505af11580156119bc573d6000803e3d6000fd5b505050505b505050505050505050505050565b6113b08383836040518060200160405280600081525061275d565b600060ce548210611a2c5760405162461bcd60e51b815260206004820152600c60248201526b4f55545f4f465f52414e474560a01b6044820152606401610e2f565b5090565b6000610d2160008051602061535883398151915283611fad565b6000610d218261375d565b611a6d60008051602061539883398151915233611fad565b611a895760405162461bcd60e51b8152600401610e2f906150f7565b6113b060d88383614795565b611aad60008051602061539883398151915233611fad565b611ac95760405162461bcd60e51b8152600401610e2f906150f7565b611ae16000805160206153588339815191528261138a565b6040516001600160a01b038216907f684f8a71407db0c334454ebe9c9b288549317893a20b10dc779ec5c118dcd12190600090a250565b6001600160a01b0316600090815260d26020526040902060010154421090565b600054610100900460ff1680611b51575060005460ff16155b611b6d5760405162461bcd60e51b8152600401610e2f906150a9565b600054610100900460ff16158015611b8f576000805461ffff19166101011790555b611b988661385a565b611bb060c9805460ff60a01b1916600160a01b179055565b611bbc88888787613930565b611bc683836139c1565b611bce6139e6565b611bd96103e860dc55565b611be2886139f8565b611bf26380ac58cd60e01b613a80565b8015611c04576000805461ff00191690555b5050505050505050565b60006001600160a01b038216611c365760405162461bcd60e51b8152600401610e2f90615022565b611c3f82611b18565b611c4a576000611c4d565b60015b60ff1692915050565b611c6e60008051602061539883398151915233611fad565b611c8a5760405162461bcd60e51b8152600401610e2f906150f7565b611c9660d98383614795565b507f8868e22e84ebf32da89b2ebcb0ac642816304ea3863b257f240df9098719cb978282604051611cc8929190614ffb565b60405180910390a15050565b611cdd33611a30565b80611cec5750611cec33612456565b611d6a5760405162461bcd60e51b815260206004820152604360248201527f4d6978696e526f6c65733a2063616c6c657220646f6573206e6f74206861766560448201527f20746865204b65794772616e746572206f72204c6f636b4d616e6167657220726064820152626f6c6560e81b608482015260a401610e2f565b60005b85811015611f38576000878783818110611d9757634e487b7160e01b600052603260045260246000fd5b9050602002016020810190611dac91906148ad565b90506000868684818110611dd057634e487b7160e01b600052603260045260246000fd5b9050602002013590506000858585818110611dfb57634e487b7160e01b600052603260045260246000fd5b9050602002016020810190611e1091906148ad565b90506001600160a01b038316611e385760405162461bcd60e51b8152600401610e2f90615022565b6001600160a01b038316600090815260d26020526040902060018101548311611e965760405162461bcd60e51b815260206004820152601060248201526f414c52454144595f4f574e535f4b455960801b6044820152606401610e2f565b805480611eb357611ea68261373b565b508054611eb385826134a4565b611ebd8184613568565b6040516001600160a01b0384169082907f9d2895c45a420624de863a2f437b022d879f457bf7a829044055a10c5a6fd5e390600090a36001820184905560405181906001600160a01b03871690600090600080516020615378833981519152908290a450505050508080611f30906152d7565b915050611d6d565b50505050505050565b611f5960008051602061539883398151915233611fad565b611f755760405162461bcd60e51b8152600401610e2f906150f7565b6040518181527f0496ed1e61eb69727f9659a8e859288db4758ffb1f744d1c1424634f90a257f49060200160405180910390a160db55565b60009182526097602090815260408084206001600160a01b0393909316845291905290205460ff1690565b606060d98054611fe7906152a2565b1515905061207e5760ca60009054906101000a90046001600160a01b03166001600160a01b031663cec410526040518163ffffffff1660e01b815260040160006040518083038186803b15801561203d57600080fd5b505afa158015612051573d6000803e3d6000fd5b505050506040513d6000823e601f3d908101601f191682016040526120799190810190614cce565b905090565b60d9805461208b906152a2565b80601f01602080910402602001604051908101604052809291908181526020018280546120b7906152a2565b80156121045780601f106120d957610100808354040283529160200191612104565b820191906000526020600020905b8154815290600101906020018083116120e757829003601f168201915b5050505050905090565b61212660008051602061539883398151915233611fad565b6121425760405162461bcd60e51b8152600401610e2f906150f7565b8161214c81611b18565b6121685760405162461bcd60e51b8152600401610e2f9061504b565b6113b08383613aff565b60c954600160a01b900460ff1661219b5760405162461bcd60e51b8152600401610e2f9061514c565b6001600160a01b0382163314156121e35760405162461bcd60e51b815260206004820152600c60248201526b20a8282927ab22afa9a2a62360a11b6044820152606401610e2f565b33600081815260d7602090815260408083206001600160a01b03871680855290835292819020805460ff191686151590811790915590519081529192917f17307eab39ab6107e8899845ad3d59bd9653f200f220920489ca2b5937696c31910160405180910390a35050565b61226760008051602061539883398151915233611fad565b6122835760405162461bcd60e51b8152600401610e2f906150f7565b60c954600160a01b900460ff166122ac5760405162461bcd60e51b8152600401610e2f9061514c565b60cc5460c9546001600160a01b03908116908316158061233c57506000836001600160a01b03166318160ddd6040518163ffffffff1660e01b815260040160206040518083038186803b15801561230257600080fd5b505afa158015612316573d6000803e3d6000fd5b505050506040513d601f19601f8201168201806040525081019061233a9190614d40565b115b6123785760405162461bcd60e51b815260206004820152600d60248201526c24a72b20a624a22faa27a5a2a760991b6044820152606401610e2f565b60cc84905560c980546001600160a01b0319166001600160a01b0385811691821790925560408051858152602081018890529284169083015260608201527f3615065ccf48367ac483ac86701248e2e5ff55bdd9be845007d34a3b68d719d49060800160405180910390a150505050565b60008060cb54836123fa9190615229565b33600090815260d26020526040812060018101549293509161241d904290615248565b90508083101561243b5761243686836000015485612c31565b61244a565b61244a33878460000154611091565b50600195945050505050565b6000610d2160008051602061539883398151915283611fad565b61248860008051602061539883398151915233611fad565b6124a45760405162461bcd60e51b8152600401610e2f906150f7565b6001600160a01b03821615806124c357506001600160a01b0382163b15155b61250f5760405162461bcd60e51b815260206004820152601860248201527f494e56414c49445f4f4e5f4b45595f534f4c445f484f4f4b00000000000000006044820152606401610e2f565b6001600160a01b038116158061252e57506001600160a01b0381163b15155b61257a5760405162461bcd60e51b815260206004820152601a60248201527f494e56414c49445f4f4e5f4b45595f43414e43454c5f484f4f4b0000000000006044820152606401610e2f565b60d080546001600160a01b039384166001600160a01b03199182161790915560d18054929093169116179055565b600082815260d3602052604090205482906001600160a01b03166125fc5760405162461bcd60e51b815260206004820152600b60248201526a4e4f5f535543485f4b455960a81b6044820152606401610e2f565b612606833361316d565b80612615575061261533612456565b6126615760405162461bcd60e51b815260206004820152601f60248201527f554e415554484f52495a45445f4b45595f4d414e414745525f555044415445006044820152606401610e2f565b6113b08383613568565b600061267633612456565b8061268b575060cf546001600160a01b031633145b6126d75760405162461bcd60e51b815260206004820181905260248201527f4f4e4c595f4c4f434b5f4d414e414745525f4f525f42454e45464943494152596044820152606401610e2f565b60c95460405163095ea7b360e01b81526001600160a01b038581166004830152602482018590529091169063095ea7b390604401602060405180830381600087803b15801561272557600080fd5b505af1158015612739573d6000803e3d6000fd5b505050506040513d601f19601f820116820180604052508101906114189190614bff565b612768848484611091565b61277484848484613bf6565b6127c05760405162461bcd60e51b815260206004820152601d60248201527f4e4f4e5f434f4d504c49414e545f4552433732315f52454345495645520000006044820152606401610e2f565b50505050565b6127de60008051602061539883398151915233611fad565b6127fa5760405162461bcd60e51b8152600401610e2f906150f7565b60c954600160a01b900460ff166128235760405162461bcd60e51b8152600401610e2f9061514c565b6040517f25a311358326fb18c62efc24bc28d3126acee8d2a67fd8b2145b757dc8bd1bc190600090a160c9805460ff60a01b19169055565b60608080600061286a30613cb5565b9050606085156128845761287d86613f10565b9250612897565b6040518060200160405280600081525092505b60da80546128a4906152a2565b151590506129595760ca60009054906101000a90046001600160a01b03166001600160a01b031663a998e9fb6040518163ffffffff1660e01b815260040160006040518083038186803b1580156128fa57600080fd5b505afa15801561290e573d6000803e3d6000fd5b505050506040513d6000823e601f3d908101601f191682016040526129369190810190614cce565b9350604051806040016040528060018152602001602f60f81b8152509050612a0b565b60da8054612966906152a2565b80601f0160208091040260200160405190810160405280929190818152602001828054612992906152a2565b80156129df5780601f106129b4576101008083540402835291602001916129df565b820191906000526020600020905b8154815290600101906020018083116129c257829003601f168201915b505050505093506040518060200160405280600081525090506040518060200160405280600081525091505b612a1784838386614058565b9695505050505050565b612a3960008051602061539883398151915233611fad565b612a555760405162461bcd60e51b8152600401610e2f906150f7565b612a6d6000805160206153988339815191528261138a565b6040516001600160a01b038216907f91d5c045d5bd98bf59a379b259ebca05b93bf79af1845fdf87e3172385d4c7f790600090a250565b80612aaf813361316d565b80612abf5750612abf81336131e3565b80612ae75750600081815260d36020526040902054612ae7906001600160a01b031633612b57565b612b035760405162461bcd60e51b8152600401610e2f90615072565b600082815260d360205260408120546001600160a01b031690612b258261375d565b90506127c08282613aff565b600082815260976020526040902060010154612b4d81336135ea565b6113b083836136d4565b6001600160a01b03808316600090815260d2602090815260408083205480845260d5909252822054919290911680612bba575050506001600160a01b03808316600090815260d7602090815260408083209385168352929052205460ff16610d21565b6001600160a01b03908116600090815260d7602090815260408083209387168352929052205460ff169150610d219050565b612c046000805160206153988339815191523361145f565b60405133907f42885193b8178d25fca25a38e6fcc93918501e91be06d85e0c8afb3bad95238090600090a2565b60c954600160a01b900460ff16612c5a5760405162461bcd60e51b8152600401610e2f9061514c565b81612c65813361316d565b80612c755750612c7581336131e3565b80612c9d5750600081815260d36020526040902054612c9d906001600160a01b031633612b57565b612cb95760405162461bcd60e51b8152600401610e2f90615072565b61271060db5410612d055760405162461bcd60e51b815260206004820152601660248201527512d15657d514905394d1915494d7d11254d05093115160521b6044820152606401610e2f565b6001600160a01b038416612d2b5760405162461bcd60e51b8152600401610e2f90615022565b600083815260d360205260409020546001600160a01b0316612d4c81611b18565b612d685760405162461bcd60e51b8152600401610e2f9061504b565b6001600160a01b03808216600090815260d260205260408082209288168252812080546001840154919290918190612da1904290615248565b90506000612daf878a6130eb565b90506000612dbd828b6151cc565b905082811015612ddb57899350612dd68b8260006133a3565b612e26565b612de588846130eb565b9150612df18284615248565b4260018901556040519094508b907f59f2fe866dd27a1c2d34115520888c3150365cbc931aab97fa88c4b9ab40b79590600090a25b84612e6d57612e348661373b565b85549450612e428c866134a4565b60405185906001600160a01b038e1690600090600080516020615378833981519152908290a4612e83565b42866001015411612e8357612e83856000613568565b612e8f858560016133a3565b848c6001600160a01b0316896001600160a01b031660008051602061537883398151915260405160405180910390a4612ed9888d8d60405180602001604052806000815250613bf6565b6119c15760405162461bcd60e51b815260206004820152601d60248201527f4e4f4e5f434f4d504c49414e545f4552433732315f52454345495645520000006044820152606401610e2f565b612f2e33612456565b80612f43575060cf546001600160a01b031633145b612f8f5760405162461bcd60e51b815260206004820181905260248201527f4f4e4c595f4c4f434b5f4d414e414745525f4f525f42454e45464943494152596044820152606401610e2f565b60006001600160a01b038316612fa6575047613020565b6040516370a0823160e01b81523060048201526001600160a01b038416906370a082319060240160206040518083038186803b158015612fe557600080fd5b505afa158015612ff9573d6000803e3d6000fd5b505050506040513d601f19601f8201168201806040525081019061301d9190614d40565b90505b600082158061302e57508183115b1561307d57600082116130765760405162461bcd60e51b815260206004820152601060248201526f4e4f545f454e4f5547485f46554e445360801b6044820152606401610e2f565b5080613080565b50815b60cf546040518281526001600160a01b039182169186169033907f342e7ff505a8a0364cd0dc2ff195c315e43bce86b204846ecd36913e117b109e9060200160405180910390a460cf546127c09085906001600160a01b03168361408a565b6000611418838361316d565b60006130f683611b18565b61310257506000610d21565b6001600160a01b038316600090815260d260205260408120908084613138574283600101546131319190615248565b915061313c565b8491505b61271060db548361314d9190615229565b6131579190615209565b9350610d2192505050565b6000610d21826140c6565b600082815260d560205260408120546001600160a01b03838116911614806131ce5750600083815260d560205260409020546001600160a01b03161580156131ce5750600083815260d360205260409020546001600160a01b038381169116145b156131db57506001610d21565b506000610d21565b600091825260d66020526040909120546001600160a01b0391821691161490565b60d054600090819081906001600160a01b0316156132a95760d05460405163221c1fd160e01b81526001600160a01b039091169063221c1fd1906132529033908a908a908a90600401614f94565b60206040518083038186803b15801561326a57600080fd5b505afa15801561327e573d6000803e3d6000fd5b505050506040513d601f19601f820116820180604052508101906132a29190614d40565b92506132af565b60cc5492505b821561339a5760ca54604051630cb175e360e01b81526001600160a01b0388811660048301526024820186905290911690630cb175e390604401604080518083038186803b15801561330057600080fd5b505afa158015613314573d6000803e3d6000fd5b505050506040513d601f19601f820116820180604052508101906133389190614de9565b90925090508282111561338d5760405162461bcd60e51b815260206004820152601c60248201527f494e56414c49445f444953434f554e545f46524f4d5f554e4c4f434b000000006044820152606401610e2f565b6133978284615248565b92505b93509350939050565b600083815260d360205260409020546001600160a01b0316806133fb5760405162461bcd60e51b815260206004820152601060248201526f4e4f4e5f4558495354454e545f4b455960801b6044820152606401610e2f565b6001600160a01b038116600090815260d2602052604081206001810154909161342384611b18565b9050841561344f5780156134455761343b86836151cc565b600184015561345f565b61343b86426151cc565b6134598683615248565b60018401555b60408051878152861515602082015288917fe9408df99703ae33a9d01185bcad328ea8683fb1f920da9c30959c192f21b5b3910160405180910390a250505050505050565b600081815260d360205260409020546001600160a01b038381169116146114d95760d48054600181019091557f9780e26d96b1f2a9a18ef8fc72d589dbf03ef788137b64f43897e83a91e7feec0180546001600160a01b0384166001600160a01b03199182168117909255600083815260d360205260409020805490911690911790555050565b600081815260d660205260409020546001600160a01b03161561356557600081815260d66020526040902080546001600160a01b03191690555b50565b600082815260d560205260409020546001600160a01b038281169116146114d957600082815260d56020526040902080546001600160a01b0319166001600160a01b0383161790556135b98261352b565b60405160009083907f9d2895c45a420624de863a2f437b022d879f457bf7a829044055a10c5a6fd5e3908390a35050565b6135f48282611fad565b6114d95761360c816001600160a01b031660146140d1565b6136178360206140d1565b604051602001613628929190614ed4565b60408051601f198184030181529082905262461bcd60e51b8252610e2f9160040161500f565b6136588282611fad565b6114d95760008281526097602090815260408083206001600160a01b03851684529091529020805460ff191660011790556136903390565b6001600160a01b0316816001600160a01b0316837f2f8788117e7eff1d82e926ec794901d17c78024a50270940304540a733656f0d60405160405180910390a45050565b6136de8282611fad565b156114d95760008281526097602090815260408083206001600160a01b0385168085529252808320805460ff1916905551339285917ff6391f5c32d9c69d2a47ea670b442974b53935d1edc7fd64eb21e047a839171b9190a45050565b80546135655760ce8054906000613751836152d7565b909155505060ce549055565b60008161376981611b18565b6137855760405162461bcd60e51b8152600401610e2f9061504b565b6001600160a01b038316600090815260d26020526040812060018101549091906137b0904290615248565b905060cb5460dd54826137c391906151cc565b106137d25760cc5493506137f0565b60cb548160cc546137e39190615229565b6137ed9190615209565b93505b60dd54158061380c575060cb5460dd5461380a90836151cc565b105b1561385257600061271060dc5460cc546138269190615229565b6138309190615209565b90508085111561384b576138448186615248565b9450613850565b600094505b505b505050919050565b60c980546001600160a01b0319166001600160a01b03831690811790915515806138f457506000816001600160a01b03166318160ddd6040518163ffffffff1660e01b815260040160206040518083038186803b1580156138ba57600080fd5b505afa1580156138ce573d6000803e3d6000fd5b505050506040513d601f19601f820116820180604052508101906138f29190614d40565b115b6135655760405162461bcd60e51b815260206004820152600d60248201526c24a72b20a624a22faa27a5a2a760991b6044820152606401610e2f565b63bbf81e008311156139845760405162461bcd60e51b815260206004820152601860248201527f4d41585f45585049524154494f4e5f3130305f594541525300000000000000006044820152606401610e2f565b60ca8054336001600160a01b03199182161790915560cf80549091166001600160a01b03959095169490941790935560cb9190915560cc5560cd55565b6139c96142b2565b6139d560d88383614795565b506114d9635b5e139f60e01b613a80565b6139f663780e9d6360e01b613a80565b565b613a106000805160206153988339815191528061432d565b613a3660008051602061535883398151915260008051602061539883398151915261432d565b613a3f81612456565b613a5b57613a5b60008051602061539883398151915282614378565b613a6481611a30565b6135655761356560008051602061535883398151915282614378565b6001600160e01b03198082161415613ada5760405162461bcd60e51b815260206004820152601c60248201527f4552433136353a20696e76616c696420696e74657266616365206964000000006044820152606401610e2f565b6001600160e01b0319166000908152606560205260409020805460ff19166001179055565b6001600160a01b038216600081815260d2602052604090819020805491519092339290917f0a7068a9989857441c039a14a42b67ed71dd1fcfe5a9b17cc87b252e47bce52890613b529087815260200190565b60405180910390a44260018201558115613b7d5760c954613b7d906001600160a01b0316848461408a565b60d1546001600160a01b0316156113b05760d15460405163b499b6c560e01b81523360048201526001600160a01b038581166024830152604482018590529091169063b499b6c590606401600060405180830381600087803b158015613be257600080fd5b505af1158015611f38573d6000803e3d6000fd5b60006001600160a01b0384163b613c0f57506001613cad565b604051630a85bd0160e11b81526000906001600160a01b0386169063150b7a0290613c449033908a9089908990600401614fc8565b602060405180830381600087803b158015613c5e57600080fd5b505af1158015613c72573d6000803e3d6000fd5b505050506040513d601f19601f82011682018060405250810190613c969190614c73565b6001600160e01b031916630a85bd0160e11b149150505b949350505050565b604080518082018252601081526f181899199a1a9b1b9c1cb0b131b232b360811b60208201528151602a80825260608281019094526001600160a01b0385169291600091602082018180368337019050509050600360fc1b81600081518110613d2e57634e487b7160e01b600052603260045260246000fd5b60200101906001600160f81b031916908160001a905350600f60fb1b81600181518110613d6b57634e487b7160e01b600052603260045260246000fd5b60200101906001600160f81b031916908160001a90535060005b6014811015613f075782600485613d9d84600c6151cc565b60208110613dbb57634e487b7160e01b600052603260045260246000fd5b1a60f81b6001600160f81b031916901c60f81c60ff1681518110613def57634e487b7160e01b600052603260045260246000fd5b01602001516001600160f81b03191682613e0a836002615229565b613e159060026151cc565b81518110613e3357634e487b7160e01b600052603260045260246000fd5b60200101906001600160f81b031916908160001a9053508284613e5783600c6151cc565b60208110613e7557634e487b7160e01b600052603260045260246000fd5b825191901a600f16908110613e9a57634e487b7160e01b600052603260045260246000fd5b01602001516001600160f81b03191682613eb5836002615229565b613ec09060036151cc565b81518110613ede57634e487b7160e01b600052603260045260246000fd5b60200101906001600160f81b031916908160001a90535080613eff816152d7565b915050613d85565b50949350505050565b60608180613f375750506040805180820190915260018152600360fc1b6020820152919050565b8260005b8115613f615780613f4b816152d7565b9150613f5a9050600a83615209565b9150613f3b565b6000816001600160401b03811115613f8957634e487b7160e01b600052604160045260246000fd5b6040519080825280601f01601f191660200182016040528015613fb3576020820181803683370190505b509050815b841561404e57613fc9600182615248565b90506000613fd8600a87615209565b613fe390600a615229565b613fed9087615248565b613ff89060306151e4565b905060008160f81b90508084848151811061402357634e487b7160e01b600052603260045260246000fd5b60200101906001600160f81b031916908160001a905350614045600a88615209565b96505050613fb8565b5095945050505050565b6060848484846040516020016140719493929190614e7d565b6040516020818303038152906040529050949350505050565b80156113b0576001600160a01b0383166140b1576113b06001600160a01b03831682614382565b826127c06001600160a01b038216848461449b565b6000610d21826144ed565b606060006140e0836002615229565b6140eb9060026151cc565b6001600160401b0381111561411057634e487b7160e01b600052604160045260246000fd5b6040519080825280601f01601f19166020018201604052801561413a576020820181803683370190505b509050600360fc1b8160008151811061416357634e487b7160e01b600052603260045260246000fd5b60200101906001600160f81b031916908160001a905350600f60fb1b816001815181106141a057634e487b7160e01b600052603260045260246000fd5b60200101906001600160f81b031916908160001a90535060006141c4846002615229565b6141cf9060016151cc565b90505b6001811115614263576f181899199a1a9b1b9c1cb0b131b232b360811b85600f166010811061421157634e487b7160e01b600052603260045260246000fd5b1a60f81b82828151811061423557634e487b7160e01b600052603260045260246000fd5b60200101906001600160f81b031916908160001a90535060049490941c9361425c8161528b565b90506141d2565b5083156114185760405162461bcd60e51b815260206004820181905260248201527f537472696e67733a20686578206c656e67746820696e73756666696369656e746044820152606401610e2f565b600054610100900460ff16806142cb575060005460ff16155b6142e75760405162461bcd60e51b8152600401610e2f906150a9565b600054610100900460ff16158015614309576000805461ffff19166101011790555b614311614512565b614319614512565b8015613565576000805461ff001916905550565b600082815260976020526040808220600101805490849055905190918391839186917fbd79b86ffe0ab8e8776151514217cd7cacd52c909f66475c3af44e129f0b00ff9190a4505050565b6114d9828261364e565b804710156143d25760405162461bcd60e51b815260206004820152601d60248201527f416464726573733a20696e73756666696369656e742062616c616e63650000006044820152606401610e2f565b6000826001600160a01b03168260405160006040518083038185875af1925050503d806000811461441f576040519150601f19603f3d011682016040523d82523d6000602084013e614424565b606091505b50509050806113b05760405162461bcd60e51b815260206004820152603a60248201527f416464726573733a20756e61626c6520746f2073656e642076616c75652c207260448201527f6563697069656e74206d617920686176652072657665727465640000000000006064820152608401610e2f565b604080516001600160a01b038416602482015260448082018490528251808303909101815260649091019091526020810180516001600160e01b031663a9059cbb60e01b1790526113b090849061457c565b60006001600160e01b03198216637965db0b60e01b1480610d215750610d218261464e565b600054610100900460ff168061452b575060005460ff16155b6145475760405162461bcd60e51b8152600401610e2f906150a9565b600054610100900460ff16158015614319576000805461ffff19166101011790558015613565576000805461ff001916905550565b60006145d1826040518060400160405280602081526020017f5361666545524332303a206c6f772d6c6576656c2063616c6c206661696c6564815250856001600160a01b031661468a9092919063ffffffff16565b8051909150156113b057808060200190518101906145ef9190614bff565b6113b05760405162461bcd60e51b815260206004820152602a60248201527f5361666545524332303a204552433230206f7065726174696f6e20646964206e6044820152691bdd081cdd58d8d9595960b21b6064820152608401610e2f565b60006301ffc9a760e01b6001600160e01b031983161480610d215750506001600160e01b03191660009081526065602052604090205460ff1690565b6060613cad848460008585843b6146e35760405162461bcd60e51b815260206004820152601d60248201527f416464726573733a2063616c6c20746f206e6f6e2d636f6e74726163740000006044820152606401610e2f565b600080866001600160a01b031685876040516146ff9190614e61565b60006040518083038185875af1925050503d806000811461473c576040519150601f19603f3d011682016040523d82523d6000602084013e614741565b606091505b509150915061475182828661475c565b979650505050505050565b6060831561476b575081611418565b82511561477b5782518084602001fd5b8160405162461bcd60e51b8152600401610e2f919061500f565b8280546147a1906152a2565b90600052602060002090601f0160209004810192826147c35760008555614809565b82601f106147dc5782800160ff19823516178555614809565b82800160010185558215614809579182015b828111156148095782358255916020019190600101906147ee565b50611a2c9291505b80821115611a2c5760008155600101614811565b60008083601f840112614836578182fd5b5081356001600160401b0381111561484c578182fd5b6020830191508360208260051b850101111561486757600080fd5b9250929050565b60008083601f84011261487f578182fd5b5081356001600160401b03811115614895578182fd5b60208301915083602082850101111561486757600080fd5b6000602082840312156148be578081fd5b81356114188161531e565b600080604083850312156148db578081fd5b82356148e68161531e565b946020939093013593505050565b600080600080600080600060c0888a03121561490e578283fd5b87356149198161531e565b96506020880135955060408801356149308161531e565b9450606088013593506080880135925060a08801356001600160401b03811115614958578283fd5b6149648a828b0161486e565b989b979a50959850939692959293505050565b60008060408385031215614989578182fd5b82356149948161531e565b915060208301356149a48161531e565b809150509250929050565b600080600080606085870312156149c4578384fd5b84356149cf8161531e565b935060208501356149df8161531e565b925060408501356001600160401b038111156149f9578283fd5b614a058782880161486e565b95989497509550505050565b600080600060608486031215614a25578283fd5b8335614a308161531e565b92506020840135614a408161531e565b929592945050506040919091013590565b60008060008060808587031215614a66578182fd5b8435614a718161531e565b93506020850135614a818161531e565b92506040850135915060608501356001600160401b03811115614aa2578182fd5b8501601f81018713614ab2578182fd5b8035614ac5614ac0826151a5565b615175565b818152886020838501011115614ad9578384fd5b81602084016020830137908101602001929092525092959194509250565b60008060408385031215614b09578182fd5b8235614b148161531e565b915060208301356149a481615333565b600080604083850312156148db578182fd5b600080600060608486031215614b4a578081fd5b8335614b558161531e565b95602085013595506040909401359392505050565b60008060008060008060608789031215614b82578384fd5b86356001600160401b0380821115614b98578586fd5b614ba48a838b01614825565b90985096506020890135915080821115614bbc578586fd5b614bc88a838b01614825565b90965094506040890135915080821115614be0578384fd5b50614bed89828a01614825565b979a9699509497509295939492505050565b600060208284031215614c10578081fd5b815161141881615333565b600060208284031215614c2c578081fd5b5035919050565b60008060408385031215614c45578182fd5b8235915060208301356149a48161531e565b600060208284031215614c68578081fd5b813561141881615341565b600060208284031215614c84578081fd5b815161141881615341565b60008060208385031215614ca1578182fd5b82356001600160401b03811115614cb6578283fd5b614cc28582860161486e565b90969095509350505050565b600060208284031215614cdf578081fd5b81516001600160401b03811115614cf4578182fd5b8201601f81018413614d04578182fd5b8051614d12614ac0826151a5565b818152856020838501011115614d26578384fd5b614d3782602083016020860161525f565b95945050505050565b600060208284031215614d51578081fd5b5051919050565b600080600080600060808688031215614d6f578283fd5b853594506020860135614d818161531e565b93506040860135614d918161531e565b925060608601356001600160401b03811115614dab578182fd5b614db78882890161486e565b969995985093965092949392505050565b60008060408385031215614dda578182fd5b50508035926020909101359150565b60008060408385031215614dfb578182fd5b505080516020909101519092909150565b81835281816020850137506000828201602090810191909152601f909101601f19169091010190565b60008151808452614e4d81602086016020860161525f565b601f01601f19169290920160200192915050565b60008251614e7381846020870161525f565b9190910192915050565b60008551614e8f818460208a0161525f565b855190830190614ea3818360208a0161525f565b8551910190614eb681836020890161525f565b8451910190614ec981836020880161525f565b019695505050505050565b7f416363657373436f6e74726f6c3a206163636f756e7420000000000000000000815260008351614f0c81601785016020880161525f565b7001034b99036b4b9b9b4b733903937b6329607d1b6017918401918201528351614f3d81602884016020880161525f565b01602801949350505050565b6001600160a01b03888116825287811660208301528616604082015260c060608201819052600090614f7e9083018688614e0c565b60808301949094525060a0015295945050505050565b6001600160a01b038581168252848116602083015283166040820152608060608201819052600090612a1790830184614e35565b6001600160a01b0385811682528416602082015260408101839052608060608201819052600090612a1790830184614e35565b602081526000613cad602083018486614e0c565b6020815260006114186020830184614e35565b6020808252600f908201526e494e56414c49445f4144445245535360881b604082015260600190565b6020808252600d908201526c12d15657d393d517d590531251609a1b604082015260600190565b6020808252601c908201527f4f4e4c595f4b45595f4d414e414745525f4f525f415050524f56454400000000604082015260600190565b6020808252602e908201527f496e697469616c697a61626c653a20636f6e747261637420697320616c72656160408201526d191e481a5b9a5d1a585b1a5e995960921b606082015260800190565b60208082526035908201527f4d6978696e526f6c65733a2063616c6c657220646f6573206e6f74206861766560408201527420746865204c6f636b4d616e6167657220726f6c6560581b606082015260800190565b6020808252600f908201526e1313d0d2d7d11154149150d0551151608a1b604082015260600190565b604051601f8201601f191681016001600160401b038111828210171561519d5761519d615308565b604052919050565b60006001600160401b038211156151be576151be615308565b50601f01601f191660200190565b600082198211156151df576151df6152f2565b500190565b600060ff821660ff84168060ff03821115615201576152016152f2565b019392505050565b60008261522457634e487b7160e01b81526012600452602481fd5b500490565b6000816000190483118215151615615243576152436152f2565b500290565b60008282101561525a5761525a6152f2565b500390565b60005b8381101561527a578181015183820152602001615262565b838111156127c05750506000910152565b60008161529a5761529a6152f2565b506000190190565b600181811c908216806152b657607f821691505b60208210811415610e5357634e487b7160e01b600052602260045260246000fd5b60006000198214156152eb576152eb6152f2565b5060010190565b634e487b7160e01b600052601160045260246000fd5b634e487b7160e01b600052604160045260246000fd5b6001600160a01b038116811461356557600080fd5b801515811461356557600080fd5b6001600160e01b03198116811461356557600080fdfeb309c40027c81d382c3b58d8de24207a34b27e1db369b1434e4a11311f154b5eddf252ad1be2c89b69c2b068fc378daa952ba7f163c4a11628f55a4df523b3efb89cdd26cddd51301940bf2715f765b626b8a5a9e2681ac62dc83cc2db2530c0a2646970667358221220fb7cb3acc9afb2f75311197fb9b489cce9e28938593a8ba9a90c9dc82da40da264736f6c63430008040033",
  "linkReferences": {},
  "deployedLinkReferences": {}
}