{
  "_format": "hh-sol-artifact-1",
  "contractName": "SumOfTrustMock",
  "sourceName": "contracts/tests/SumOfTrustMock.sol",
  "abi": [
    {
      "inputs": [
        {
          "internalType": "uint256",
          "name": "effectiveNumber_",
          "type": "uint256"
        }
      ],
      "stateMutability": "nonpayable",
      "type": "constructor"
    },
    {
      "inputs": [],
      "name": "effectiveNumber",
      "outputs": [
        {
          "internalType": "uint256",
          "name": "",
          "type": "uint256"
        }
      ],
      "stateMutability": "view",
      "type": "function"
    },
    {
      "inputs": [
        {
          "internalType": "uint256[]",
          "name": "vouchs",
          "type": "uint256[]"
        }
      ],
      "name": "getCreditLimit",
      "outputs": [
        {
          "internalType": "uint256",
          "name": "",
          "type": "uint256"
        }
      ],
      "stateMutability": "view",
      "type": "function"
    },
    {
      "inputs": [
        {
          "components": [
            {
              "internalType": "address",
              "name": "staker",
              "type": "address"
            },
            {
              "internalType": "uint256",
              "name": "vouchingAmount",
              "type": "uint256"
            },
            {
              "internalType": "uint256",
              "name": "lockedAmount",
              "type": "uint256"
            },
            {
              "internalType": "uint256",
              "name": "availableStakingAmount",
              "type": "uint256"
            }
          ],
          "internalType": "struct SumOfTrustMock.LockedInfo[]",
          "name": "array",
          "type": "tuple[]"
        },
        {
          "internalType": "address",
          "name": "account",
          "type": "address"
        },
        {
          "internalType": "uint256",
          "name": "amount",
          "type": "uint256"
        },
        {
          "internalType": "bool",
          "name": "isIncrease",
          "type": "bool"
        }
      ],
      "name": "getLockedAmount",
      "outputs": [
        {
          "internalType": "uint256",
          "name": "",
          "type": "uint256"
        }
      ],
      "stateMutability": "pure",
      "type": "function"
    },
    {
      "inputs": [],
      "name": "isCreditLimitModel",
      "outputs": [
        {
          "internalType": "bool",
          "name": "",
          "type": "bool"
        }
      ],
      "stateMutability": "view",
      "type": "function"
    },
    {
      "inputs": [
        {
          "internalType": "uint256",
          "name": "number",
          "type": "uint256"
        }
      ],
      "name": "setEffectNumber",
      "outputs": [],
      "stateMutability": "nonpayable",
      "type": "function"
    }
  ],
  "bytecode": "0x608060405234801561001057600080fd5b50604051610b74380380610b7483398101604081905261002f91610037565b60005561004f565b600060208284031215610048578081fd5b5051919050565b610b168061005e6000396000f3fe608060405234801561001057600080fd5b50600436106100575760003560e01c80634c9cc6731461005c57806351118cfb14610082578063747bcf8f1461008b578063a0d9987b146100a0578063b0db4930146100b3575b600080fd5b61006f61006a366004610941565b6100cb565b6040519081526020015b60405180910390f35b61006f60005481565b61009e6100993660046109d4565b600055565b005b61006f6100ae366004610840565b61013e565b6100bb600181565b6040519015158152602001610079565b60008054825110610131576000805b835181101561012a5783818151811061010357634e487b7160e01b600052603260045260246000fd5b6020026020010151826101169190610a6a565b91508061012281610a99565b9150506100da565b5092915050565b506000919050565b919050565b60008451600014156101525750600061059a565b8260008315610464576101668760016105a2565b965060005b875181101561045e57600088828151811061019657634e487b7160e01b600052603260045260246000fd5b6020026020010151604001518983815181106101c257634e487b7160e01b600052603260045260246000fd5b602002602001015160200151111561023d578882815181106101f457634e487b7160e01b600052603260045260246000fd5b60200260200101516040015189838151811061022057634e487b7160e01b600052603260045260246000fd5b6020026020010151602001516102369190610a82565b9050610241565b5060005b88828151811061026157634e487b7160e01b600052603260045260246000fd5b60200260200101516060015181111561038b578389838151811061029557634e487b7160e01b600052603260045260246000fd5b60200260200101516060015111156102e957838983815181106102c857634e487b7160e01b600052603260045260246000fd5b6020026020010151604001516102de9190610a6a565b9250600093506103fa565b88828151811061030957634e487b7160e01b600052603260045260246000fd5b60200260200101516060015189838151811061033557634e487b7160e01b600052603260045260246000fd5b60200260200101516040015161034b9190610a6a565b925088828151811061036d57634e487b7160e01b600052603260045260246000fd5b602002602001015160600151846103849190610a82565b93506103fa565b838111156103b457838983815181106102c857634e487b7160e01b600052603260045260246000fd5b808983815181106103d557634e487b7160e01b600052603260045260246000fd5b6020026020010151604001516103eb9190610a6a565b92506103f78185610a82565b93505b88828151811061041a57634e487b7160e01b600052603260045260246000fd5b6020026020010151600001516001600160a01b0316886001600160a01b0316141561044b578294505050505061059a565b508061045681610a99565b91505061016b565b50610593565b61046f8760006105a2565b965060005b8751811015610591578288828151811061049e57634e487b7160e01b600052603260045260246000fd5b60200260200101516040015111156104f257828882815181106104d157634e487b7160e01b600052603260045260246000fd5b6020026020010151604001516104e79190610a82565b915060009250610530565b6000915087818151811061051657634e487b7160e01b600052603260045260246000fd5b6020026020010151604001518361052d9190610a82565b92505b87818151811061055057634e487b7160e01b600052603260045260246000fd5b6020026020010151600001516001600160a01b0316876001600160a01b0316141561057f5750915061059a9050565b8061058981610a99565b915050610474565b505b6000925050505b949350505050565b815160609060005b818110156108105760006105bf826001610a6a565b90505b828110156107fd5784156106e0578581815181106105f057634e487b7160e01b600052603260045260246000fd5b60200260200101516020015186838151811061061c57634e487b7160e01b600052603260045260246000fd5b60200260200101516020015110156106db57600086828151811061065057634e487b7160e01b600052603260045260246000fd5b6020026020010151905086838151811061067a57634e487b7160e01b600052603260045260246000fd5b60200260200101518783815181106106a257634e487b7160e01b600052603260045260246000fd5b6020026020010181905250808784815181106106ce57634e487b7160e01b600052603260045260246000fd5b6020026020010181905250505b6107eb565b85818151811061070057634e487b7160e01b600052603260045260246000fd5b60200260200101516020015186838151811061072c57634e487b7160e01b600052603260045260246000fd5b60200260200101516020015111156107eb57600086828151811061076057634e487b7160e01b600052603260045260246000fd5b6020026020010151905086838151811061078a57634e487b7160e01b600052603260045260246000fd5b60200260200101518783815181106107b257634e487b7160e01b600052603260045260246000fd5b6020026020010181905250808784815181106107de57634e487b7160e01b600052603260045260246000fd5b6020026020010181905250505b806107f581610a99565b9150506105c2565b508061080881610a99565b9150506105aa565b50929392505050565b80356001600160a01b038116811461013957600080fd5b8035801515811461013957600080fd5b6000806000806080808688031215610856578485fd5b853567ffffffffffffffff81111561086c578586fd5b8601601f8101881361087c578586fd5b8035602061089161088c83610a46565b610a15565b8083825282820191508285018c848660071b88010111156108b0578a8bfd5b8a95505b8486101561090d5786818e0312156108ca578a8bfd5b6108d26109ec565b6108db82610819565b8152818501358582015260408083013590820152606080830135908201528352600195909501949183019186016108b4565b50985061091d9050898201610819565b9650505050506040850135915061093660608601610830565b905092959194509250565b60006020808385031215610953578182fd5b823567ffffffffffffffff811115610969578283fd5b8301601f81018513610979578283fd5b803561098761088c82610a46565b80828252848201915084840188868560051b87010111156109a6578687fd5b8694505b838510156109c85780358352600194909401939185019185016109aa565b50979650505050505050565b6000602082840312156109e5578081fd5b5035919050565b6040516080810167ffffffffffffffff81118282101715610a0f57610a0f610aca565b60405290565b604051601f8201601f1916810167ffffffffffffffff81118282101715610a3e57610a3e610aca565b604052919050565b600067ffffffffffffffff821115610a6057610a60610aca565b5060051b60200190565b60008219821115610a7d57610a7d610ab4565b500190565b600082821015610a9457610a94610ab4565b500390565b6000600019821415610aad57610aad610ab4565b5060010190565b634e487b7160e01b600052601160045260246000fd5b634e487b7160e01b600052604160045260246000fdfea2646970667358221220a8d0e132617dedd81c4d97169ab42dbbcd7e7bd211d8a63ceb65beabdd5006cf64736f6c63430008040033",
  "linkReferences": {},
  "deployedLinkReferences": {}
}