{
  "_format": "hh-sol-artifact-1",
  "contractName": "Controller",
  "sourceName": "contracts/v3/controllers/Controller.sol",
  "abi": [
    {
      "inputs": [
        {
          "internalType": "address",
          "name": "_manager",
          "type": "address"
        }
      ],
      "stateMutability": "nonpayable",
      "type": "constructor"
    },
    {
      "anonymous": false,
      "inputs": [
        {
          "indexed": true,
          "internalType": "address",
          "name": "strategy",
          "type": "address"
        }
      ],
      "name": "Harvest",
      "type": "event"
    },
    {
      "anonymous": false,
      "inputs": [
        {
          "indexed": true,
          "internalType": "address",
          "name": "vault",
          "type": "address"
        },
        {
          "indexed": true,
          "internalType": "address",
          "name": "strategy1",
          "type": "address"
        },
        {
          "indexed": true,
          "internalType": "address",
          "name": "strategy2",
          "type": "address"
        }
      ],
      "name": "StrategiesReordered",
      "type": "event"
    },
    {
      "anonymous": false,
      "inputs": [
        {
          "indexed": true,
          "internalType": "address",
          "name": "vault",
          "type": "address"
        },
        {
          "indexed": true,
          "internalType": "address",
          "name": "strategy",
          "type": "address"
        },
        {
          "indexed": false,
          "internalType": "uint256",
          "name": "cap",
          "type": "uint256"
        }
      ],
      "name": "StrategyAdded",
      "type": "event"
    },
    {
      "anonymous": false,
      "inputs": [
        {
          "indexed": true,
          "internalType": "address",
          "name": "vault",
          "type": "address"
        },
        {
          "indexed": true,
          "internalType": "address",
          "name": "strategy",
          "type": "address"
        }
      ],
      "name": "StrategyRemoved",
      "type": "event"
    },
    {
      "inputs": [
        {
          "internalType": "address",
          "name": "_vault",
          "type": "address"
        },
        {
          "internalType": "address",
          "name": "_strategy",
          "type": "address"
        },
        {
          "internalType": "uint256",
          "name": "_cap",
          "type": "uint256"
        },
        {
          "internalType": "uint256",
          "name": "_timeout",
          "type": "uint256"
        }
      ],
      "name": "addStrategy",
      "outputs": [],
      "stateMutability": "nonpayable",
      "type": "function"
    },
    {
      "inputs": [],
      "name": "balanceOf",
      "outputs": [
        {
          "internalType": "uint256",
          "name": "_balance",
          "type": "uint256"
        }
      ],
      "stateMutability": "view",
      "type": "function"
    },
    {
      "inputs": [
        {
          "internalType": "address",
          "name": "_vault",
          "type": "address"
        }
      ],
      "name": "converter",
      "outputs": [
        {
          "internalType": "address",
          "name": "",
          "type": "address"
        }
      ],
      "stateMutability": "view",
      "type": "function"
    },
    {
      "inputs": [
        {
          "internalType": "address",
          "name": "_strategy",
          "type": "address"
        },
        {
          "internalType": "address",
          "name": "_token",
          "type": "address"
        },
        {
          "internalType": "uint256",
          "name": "_amount",
          "type": "uint256"
        }
      ],
      "name": "earn",
      "outputs": [],
      "stateMutability": "nonpayable",
      "type": "function"
    },
    {
      "inputs": [
        {
          "internalType": "address",
          "name": "_vault",
          "type": "address"
        },
        {
          "internalType": "address",
          "name": "_strategy",
          "type": "address"
        }
      ],
      "name": "getCap",
      "outputs": [
        {
          "internalType": "uint256",
          "name": "",
          "type": "uint256"
        }
      ],
      "stateMutability": "view",
      "type": "function"
    },
    {
      "inputs": [],
      "name": "globalInvestEnabled",
      "outputs": [
        {
          "internalType": "bool",
          "name": "",
          "type": "bool"
        }
      ],
      "stateMutability": "view",
      "type": "function"
    },
    {
      "inputs": [
        {
          "internalType": "address",
          "name": "_strategy",
          "type": "address"
        },
        {
          "internalType": "uint256",
          "name": "_estimatedWETH",
          "type": "uint256"
        },
        {
          "internalType": "uint256",
          "name": "_estimatedYAXIS",
          "type": "uint256"
        }
      ],
      "name": "harvestStrategy",
      "outputs": [],
      "stateMutability": "nonpayable",
      "type": "function"
    },
    {
      "inputs": [
        {
          "internalType": "address",
          "name": "_strategy",
          "type": "address"
        },
        {
          "internalType": "address",
          "name": "_token",
          "type": "address"
        }
      ],
      "name": "inCaseStrategyGetStuck",
      "outputs": [],
      "stateMutability": "nonpayable",
      "type": "function"
    },
    {
      "inputs": [
        {
          "internalType": "address",
          "name": "_token",
          "type": "address"
        },
        {
          "internalType": "uint256",
          "name": "_amount",
          "type": "uint256"
        }
      ],
      "name": "inCaseTokensGetStuck",
      "outputs": [],
      "stateMutability": "nonpayable",
      "type": "function"
    },
    {
      "inputs": [],
      "name": "investEnabled",
      "outputs": [
        {
          "internalType": "bool",
          "name": "",
          "type": "bool"
        }
      ],
      "stateMutability": "view",
      "type": "function"
    },
    {
      "inputs": [],
      "name": "manager",
      "outputs": [
        {
          "internalType": "contract IManager",
          "name": "",
          "type": "address"
        }
      ],
      "stateMutability": "view",
      "type": "function"
    },
    {
      "inputs": [],
      "name": "maxStrategies",
      "outputs": [
        {
          "internalType": "uint256",
          "name": "",
          "type": "uint256"
        }
      ],
      "stateMutability": "view",
      "type": "function"
    },
    {
      "inputs": [
        {
          "internalType": "address",
          "name": "_vault",
          "type": "address"
        },
        {
          "internalType": "address",
          "name": "_strategy",
          "type": "address"
        },
        {
          "internalType": "uint256",
          "name": "_timeout",
          "type": "uint256"
        }
      ],
      "name": "removeStrategy",
      "outputs": [],
      "stateMutability": "nonpayable",
      "type": "function"
    },
    {
      "inputs": [
        {
          "internalType": "address",
          "name": "_vault",
          "type": "address"
        },
        {
          "internalType": "address",
          "name": "_strategy1",
          "type": "address"
        },
        {
          "internalType": "address",
          "name": "_strategy2",
          "type": "address"
        }
      ],
      "name": "reorderStrategies",
      "outputs": [],
      "stateMutability": "nonpayable",
      "type": "function"
    },
    {
      "inputs": [
        {
          "internalType": "address",
          "name": "_vault",
          "type": "address"
        },
        {
          "internalType": "address",
          "name": "_strategy",
          "type": "address"
        },
        {
          "internalType": "uint256",
          "name": "_cap",
          "type": "uint256"
        },
        {
          "internalType": "address",
          "name": "_convert",
          "type": "address"
        }
      ],
      "name": "setCap",
      "outputs": [],
      "stateMutability": "nonpayable",
      "type": "function"
    },
    {
      "inputs": [
        {
          "internalType": "address",
          "name": "_vault",
          "type": "address"
        },
        {
          "internalType": "address",
          "name": "_converter",
          "type": "address"
        }
      ],
      "name": "setConverter",
      "outputs": [],
      "stateMutability": "nonpayable",
      "type": "function"
    },
    {
      "inputs": [
        {
          "internalType": "bool",
          "name": "_investEnabled",
          "type": "bool"
        }
      ],
      "name": "setInvestEnabled",
      "outputs": [],
      "stateMutability": "nonpayable",
      "type": "function"
    },
    {
      "inputs": [
        {
          "internalType": "uint256",
          "name": "_maxStrategies",
          "type": "uint256"
        }
      ],
      "name": "setMaxStrategies",
      "outputs": [],
      "stateMutability": "nonpayable",
      "type": "function"
    },
    {
      "inputs": [
        {
          "internalType": "address",
          "name": "_strategy",
          "type": "address"
        }
      ],
      "name": "skim",
      "outputs": [],
      "stateMutability": "nonpayable",
      "type": "function"
    },
    {
      "inputs": [
        {
          "internalType": "address",
          "name": "_vault",
          "type": "address"
        }
      ],
      "name": "strategies",
      "outputs": [
        {
          "internalType": "address[]",
          "name": "",
          "type": "address[]"
        }
      ],
      "stateMutability": "view",
      "type": "function"
    },
    {
      "inputs": [],
      "name": "strategies",
      "outputs": [
        {
          "internalType": "uint256",
          "name": "",
          "type": "uint256"
        }
      ],
      "stateMutability": "view",
      "type": "function"
    },
    {
      "inputs": [
        {
          "internalType": "address",
          "name": "_token",
          "type": "address"
        },
        {
          "internalType": "uint256",
          "name": "_amount",
          "type": "uint256"
        }
      ],
      "name": "withdraw",
      "outputs": [],
      "stateMutability": "nonpayable",
      "type": "function"
    },
    {
      "inputs": [
        {
          "internalType": "address",
          "name": "_strategy",
          "type": "address"
        },
        {
          "internalType": "address",
          "name": "_convert",
          "type": "address"
        }
      ],
      "name": "withdrawAll",
      "outputs": [],
      "stateMutability": "nonpayable",
      "type": "function"
    }
  ],
  "bytecode": "0x60a060405234801561001057600080fd5b506040516200424a3803806200424a8339818101604052602081101561003557600080fd5b50516001600160601b031960609190911b166080526000805460ff19166001908117909155600a905560805160601c6141106200013a6000398061052452806105f452806109db5280610a9c5280610b7a5280610ece5280610ef25280610fb2528061108652806111465280611215528061146052806115fb52806116bb528061178b52806118685280611ad95280611c245280611ce45280611db3528061204b528061210b52806121ed52806122ad528061237d528061280e52806129475280612a535280612b135280612be25280612eab5280612f6b528061303a52806131475280613217528061341c52806134ee52806135a25280613b7b52506141106000f3fe608060405234801561001057600080fd5b506004361061014d5760003560e01c806376e2008d116100c3578063b23fa5621161007c578063b23fa56214610466578063bc25cf7714610494578063c6d758cb146104ba578063c79c21b7146104e6578063d9f9027f146104ee578063f3fef3a3146104f65761014d565b806376e2008d146103375780638c12f286146103735780638fc1ea1e146103ab57806392530a55146103ca57806395c2204614610406578063a8671c31146104345761014d565b8063481c6a7511610115578063481c6a751461028a5780634ff173d7146102ae5780636bb3722e146102cb5780636e0b4f901461030157806371f4f3fb14610327578063722713f71461032f5761014d565b806309cae2c814610152578063123e63d31461018257806319c494501461019e57806338e88610146101de57806339ebf82314610214575b600080fd5b6101806004803603604081101561016857600080fd5b506001600160a01b0381358116916020013516610522565b005b61018a6109a1565b604080519115158252519081900360200190f35b6101cc600480360360408110156101b457600080fd5b506001600160a01b03813581169160200135166109aa565b60408051918252519081900360200190f35b610180600480360360608110156101f457600080fd5b506001600160a01b038135811691602081013590911690604001356109d9565b61023a6004803603602081101561022a57600080fd5b50356001600160a01b0316610e53565b60408051602080825283518183015283519192839290830191858101910280838360005b8381101561027657818101518382015260200161025e565b505050509050019250505060405180910390f35b610292610ecc565b604080516001600160a01b039092168252519081900360200190f35b610180600480360360208110156102c457600080fd5b5035610ef0565b610180600480360360608110156102e157600080fd5b506001600160a01b03813581169160208101359091169060400135611084565b6102926004803603602081101561031757600080fd5b50356001600160a01b0316611596565b61018a6115b4565b6101cc6115e3565b6101806004803603608081101561034d57600080fd5b506001600160a01b038135811691602081013590911690604081013590606001356115f9565b6101806004803603606081101561038957600080fd5b506001600160a01b038135811691602081013582169160409091013516611c22565b610180600480360360208110156103c157600080fd5b50351515612049565b610180600480360360808110156103e057600080fd5b506001600160a01b038135811691602081013582169160408201359160600135166121eb565b6101806004803603604081101561041c57600080fd5b506001600160a01b038135811691602001351661280c565b6101806004803603606081101561044a57600080fd5b506001600160a01b038135169060208101359060400135612a51565b6101806004803603604081101561047c57600080fd5b506001600160a01b0381358116916020013516612ea9565b610180600480360360208110156104aa57600080fd5b50356001600160a01b0316613145565b610180600480360360408110156104d057600080fd5b506001600160a01b03813516906020013561341a565b6101cc613582565b6101cc613588565b6101806004803603604081101561050c57600080fd5b506001600160a01b03813516906020013561359f565b7f00000000000000000000000000000000000000000000000000000000000000006001600160a01b0316631fe4a6866040518163ffffffff1660e01b815260040160206040518083038186803b15801561057b57600080fd5b505afa15801561058f573d6000803e3d6000fd5b505050506040513d60208110156105a557600080fd5b50516001600160a01b031633146105f1576040805162461bcd60e51b815260206004820152600b60248201526a085cdd1c985d1959da5cdd60aa1b604482015290519081900360640190fd5b817f00000000000000000000000000000000000000000000000000000000000000006001600160a01b0316637ae6c8d4826040518263ffffffff1660e01b815260040180826001600160a01b0316815260200191505060206040518083038186803b15801561065f57600080fd5b505afa158015610673573d6000803e3d6000fd5b505050506040513d602081101561068957600080fd5b50516106cf576040805162461bcd60e51b815260206004820152601060248201526f21616c6c6f776564537472617465677960801b604482015290519081900360640190fd5b6000836001600160a01b0316631f1fcd516040518163ffffffff1660e01b815260040160206040518083038186803b15801561070a57600080fd5b505afa15801561071e573d6000803e3d6000fd5b505050506040513d602081101561073457600080fd5b50516040805163429c145b60e11b815290519192506001600160a01b0386169163853828b69160048082019260009290919082900301818387803b15801561077b57600080fd5b505af115801561078f573d6000803e3d6000fd5b505050506000816001600160a01b03166370a08231306040518263ffffffff1660e01b815260040180826001600160a01b0316815260200191505060206040518083038186803b1580156107e257600080fd5b505afa1580156107f6573d6000803e3d6000fd5b505050506040513d602081101561080c57600080fd5b50516001600160a01b038087166000908152600360205260409020549192501661083681876139cf565b6001600160a01b03851615610919576001600160a01b0380821660009081526002602052604090205481169061086f9085168285613a64565b604080516375892cf160e01b81526001600160a01b038681166004830152888116602483015260448201869052600160648301529151918316916375892cf1916084808201926020929091908290030181600087803b1580156108d157600080fd5b505af11580156108e5573d6000803e3d6000fd5b505050506040513d60208110156108fb57600080fd5b505192506109136001600160a01b0387168385613a64565b5061092d565b61092d6001600160a01b0384168284613a64565b6001600160a01b03811660009081526002602052604090206001015482811061097b5761095a8184613ab6565b6001600160a01b038316600090815260026020526040902060010155610998565b6001600160a01b0382166000908152600260205260408120600101555b50505050505050565b60005460ff1681565b6001600160a01b0391821660009081526002602090815260408083209390941682526005909201909152205490565b7f00000000000000000000000000000000000000000000000000000000000000006001600160a01b031663b9b8af0b6040518163ffffffff1660e01b815260040160206040518083038186803b158015610a3257600080fd5b505afa158015610a46573d6000803e3d6000fd5b505050506040513d6020811015610a5c57600080fd5b505115610a99576040805162461bcd60e51b81526020600482015260066024820152651a185b1d195960d21b604482015290519081900360640190fd5b827f00000000000000000000000000000000000000000000000000000000000000006001600160a01b0316637ae6c8d4826040518263ffffffff1660e01b815260040180826001600160a01b0316815260200191505060206040518083038186803b158015610b0757600080fd5b505afa158015610b1b573d6000803e3d6000fd5b505050506040513d6020811015610b3157600080fd5b5051610b77576040805162461bcd60e51b815260206004820152601060248201526f21616c6c6f776564537472617465677960801b604482015290519081900360640190fd5b827f00000000000000000000000000000000000000000000000000000000000000006001600160a01b031663a622ee7c826040518263ffffffff1660e01b815260040180826001600160a01b0316815260200191505060206040518083038186803b158015610be557600080fd5b505afa158015610bf9573d6000803e3d6000fd5b505050506040513d6020811015610c0f57600080fd5b50516001600160a01b03163314610c56576040805162461bcd60e51b8152602060048201526006602482015265085d985d5b1d60d21b604482015290519081900360640190fd5b6000856001600160a01b0316631f1fcd516040518163ffffffff1660e01b815260040160206040518083038186803b158015610c9157600080fd5b505afa158015610ca5573d6000803e3d6000fd5b505050506040513d6020811015610cbb57600080fd5b505190506001600160a01b0380821690861614610da557336000908152600260205260409020546001600160a01b0390811690610cfb9087168287613a64565b604080516375892cf160e01b81526001600160a01b038881166004830152848116602483015260448201889052600160648301529151918316916375892cf1916084808201926020929091908290030181600087803b158015610d5d57600080fd5b505af1158015610d71573d6000803e3d6000fd5b505050506040513d6020811015610d8757600080fd5b50519450610d9f6001600160a01b0383168887613a64565b50610db9565b610db96001600160a01b0386168786613a64565b33600090815260026020526040902060010154610dd69085613b13565b33600090815260026020526040808220600101929092558151630d0e30db60e41b815291516001600160a01b0389169263d0e30db092600480830193919282900301818387803b158015610e2957600080fd5b505af1158015610e3d573d6000803e3d6000fd5b50505050610e4b33876139cf565b505050505050565b6001600160a01b038116600090815260026020818152604092839020909101805483518184028101840190945280845260609392830182828015610ec057602002820191906000526020600020905b81546001600160a01b03168152600190910190602001808311610ea2575b50505050509050919050565b7f000000000000000000000000000000000000000000000000000000000000000081565b7f00000000000000000000000000000000000000000000000000000000000000006001600160a01b031663b9b8af0b6040518163ffffffff1660e01b815260040160206040518083038186803b158015610f4957600080fd5b505afa158015610f5d573d6000803e3d6000fd5b505050506040513d6020811015610f7357600080fd5b505115610fb0576040805162461bcd60e51b81526020600482015260066024820152651a185b1d195960d21b604482015290519081900360640190fd5b7f00000000000000000000000000000000000000000000000000000000000000006001600160a01b0316631fe4a6866040518163ffffffff1660e01b815260040160206040518083038186803b15801561100957600080fd5b505afa15801561101d573d6000803e3d6000fd5b505050506040513d602081101561103357600080fd5b50516001600160a01b0316331461107f576040805162461bcd60e51b815260206004820152600b60248201526a085cdd1c985d1959da5cdd60aa1b604482015290519081900360640190fd5b600155565b7f00000000000000000000000000000000000000000000000000000000000000006001600160a01b031663b9b8af0b6040518163ffffffff1660e01b815260040160206040518083038186803b1580156110dd57600080fd5b505afa1580156110f1573d6000803e3d6000fd5b505050506040513d602081101561110757600080fd5b505115611144576040805162461bcd60e51b81526020600482015260066024820152651a185b1d195960d21b604482015290519081900360640190fd5b7f00000000000000000000000000000000000000000000000000000000000000006001600160a01b0316631fe4a6866040518163ffffffff1660e01b815260040160206040518083038186803b15801561119d57600080fd5b505afa1580156111b1573d6000803e3d6000fd5b505050506040513d60208110156111c757600080fd5b50516001600160a01b03163314611213576040805162461bcd60e51b815260206004820152600b60248201526a085cdd1c985d1959da5cdd60aa1b604482015290519081900360640190fd5b7f00000000000000000000000000000000000000000000000000000000000000006001600160a01b031663e8d76bce846040518263ffffffff1660e01b815260040180826001600160a01b0316815260200191505060206040518083038186803b15801561128057600080fd5b505afa158015611294573d6000803e3d6000fd5b505050506040513d60208110156112aa57600080fd5b50516112e7576040805162461bcd60e51b81526020600482015260076024820152660857dd985d5b1d60ca1b604482015290519081900360640190fd5b6001600160a01b03808416600090815260026020818152604080842094871684526004850190915282205490830154909190611324906001613ab6565b9050600083600201828154811061133757fe5b6000918252602090912001546002850180546001600160a01b03909216925082918590811061136257fe5b600091825260208083209190910180546001600160a01b0319166001600160a01b0394851617905591831681526004860190915260409020839055600284018054806113aa57fe5b60008281526020808220830160001990810180546001600160a01b031990811690915593019093556001600160a01b03891680825260048089018552604080842084905560058a0186528084208490556003808b0187528185208590559095528483208054909416909355835163429c145b60e11b81529351909363853828b69381810193929182900301818387803b15801561144657600080fd5b505af115801561145a573d6000803e3d6000fd5b505050507f00000000000000000000000000000000000000000000000000000000000000006001600160a01b0316634bdaeac16040518163ffffffff1660e01b815260040160206040518083038186803b1580156114b757600080fd5b505afa1580156114cb573d6000803e3d6000fd5b505050506040513d60208110156114e157600080fd5b5051604080516335d9b91760e11b81526001600160a01b038a8116600483015289811660248301526044820189905291519190921691636bb3722e91606480830192600092919082900301818387803b15801561153d57600080fd5b505af1158015611551573d6000803e3d6000fd5b50506040516001600160a01b03808a1693508a1691507f64a0e13af5f4bc5a68b1b79d9ff6e775f93e814ee8b0c97d620520190d04bae290600090a350505050505050565b6001600160a01b039081166000908152600260205260409020541690565b6000805460ff16156115dc5750336000908152600260208190526040909120015415156115e0565b5060005b90565b3360009081526002602052604090206001015490565b7f00000000000000000000000000000000000000000000000000000000000000006001600160a01b031663b9b8af0b6040518163ffffffff1660e01b815260040160206040518083038186803b15801561165257600080fd5b505afa158015611666573d6000803e3d6000fd5b505050506040513d602081101561167c57600080fd5b5051156116b9576040805162461bcd60e51b81526020600482015260066024820152651a185b1d195960d21b604482015290519081900360640190fd5b7f00000000000000000000000000000000000000000000000000000000000000006001600160a01b0316631fe4a6866040518163ffffffff1660e01b815260040160206040518083038186803b15801561171257600080fd5b505afa158015611726573d6000803e3d6000fd5b505050506040513d602081101561173c57600080fd5b50516001600160a01b03163314611788576040805162461bcd60e51b815260206004820152600b60248201526a085cdd1c985d1959da5cdd60aa1b604482015290519081900360640190fd5b827f00000000000000000000000000000000000000000000000000000000000000006001600160a01b0316637ae6c8d4826040518263ffffffff1660e01b815260040180826001600160a01b0316815260200191505060206040518083038186803b1580156117f657600080fd5b505afa15801561180a573d6000803e3d6000fd5b505050506040513d602081101561182057600080fd5b5051611866576040805162461bcd60e51b815260206004820152601060248201526f21616c6c6f776564537472617465677960801b604482015290519081900360640190fd5b7f00000000000000000000000000000000000000000000000000000000000000006001600160a01b031663e8d76bce866040518263ffffffff1660e01b815260040180826001600160a01b0316815260200191505060206040518083038186803b1580156118d357600080fd5b505afa1580156118e7573d6000803e3d6000fd5b505050506040513d60208110156118fd57600080fd5b505161193a576040805162461bcd60e51b81526020600482015260076024820152660857dd985d5b1d60ca1b604482015290519081900360640190fd5b6001600160a01b0385811660009081526002602052604090205416611993576040805162461bcd60e51b815260206004820152600a60248201526910b1b7b73b32b93a32b960b11b604482015290519081900360640190fd5b6001600160a01b038481166000908152600360205260409020541615611a00576040805162461bcd60e51b815260206004820152601960248201527f537472617465677920697320616c726561647920616464656400000000000000604482015290519081900360640190fd5b6001600160a01b038516600090815260026020819052604090912001546001548110611a64576040805162461bcd60e51b815260206004820152600e60248201526d216d61785374726174656769657360901b604482015290519081900360640190fd5b6001600160a01b0386811660008181526002602081815260408084209283018054600181018255908552828520018054968c166001600160a01b0319978816811790915584526005830182528084208a90556004909201815281832086905560039052902080549092161790558215611bcf577f00000000000000000000000000000000000000000000000000000000000000006001600160a01b0316634bdaeac16040518163ffffffff1660e01b815260040160206040518083038186803b158015611b3057600080fd5b505afa158015611b44573d6000803e3d6000fd5b505050506040513d6020811015611b5a57600080fd5b505160408051634b704acd60e01b81526001600160a01b03898116600483015288811660248301526044820187905291519190921691634b704acd91606480830192600092919082900301818387803b158015611bb657600080fd5b505af1158015611bca573d6000803e3d6000fd5b505050505b846001600160a01b0316866001600160a01b03167fc2008aa15e9b0989ec7ae02bc3d8054428c527c989269ffb2a5bff829028a012866040518082815260200191505060405180910390a3505050505050565b7f00000000000000000000000000000000000000000000000000000000000000006001600160a01b031663b9b8af0b6040518163ffffffff1660e01b815260040160206040518083038186803b158015611c7b57600080fd5b505afa158015611c8f573d6000803e3d6000fd5b505050506040513d6020811015611ca557600080fd5b505115611ce2576040805162461bcd60e51b81526020600482015260066024820152651a185b1d195960d21b604482015290519081900360640190fd5b7f00000000000000000000000000000000000000000000000000000000000000006001600160a01b0316631fe4a6866040518163ffffffff1660e01b815260040160206040518083038186803b158015611d3b57600080fd5b505afa158015611d4f573d6000803e3d6000fd5b505050506040513d6020811015611d6557600080fd5b50516001600160a01b03163314611db1576040805162461bcd60e51b815260206004820152600b60248201526a085cdd1c985d1959da5cdd60aa1b604482015290519081900360640190fd5b7f00000000000000000000000000000000000000000000000000000000000000006001600160a01b031663e8d76bce846040518263ffffffff1660e01b815260040180826001600160a01b0316815260200191505060206040518083038186803b158015611e1e57600080fd5b505afa158015611e32573d6000803e3d6000fd5b505050506040513d6020811015611e4857600080fd5b5051611e85576040805162461bcd60e51b81526020600482015260076024820152660857dd985d5b1d60ca1b604482015290519081900360640190fd5b6001600160a01b03828116600090815260036020526040902054811690841614611ee4576040805162461bcd60e51b815260206004820152600b60248201526a215f73747261746567793160a81b604482015290519081900360640190fd5b6001600160a01b03818116600090815260036020526040902054811690841614611f43576040805162461bcd60e51b815260206004820152600b60248201526a10afb9ba3930ba32b3bc9960a91b604482015290519081900360640190fd5b6001600160a01b03808416600090815260026020818152604080842087861685526004810190925280842054948616845290922054908201805492939285919084908110611f8d57fe5b9060005260206000200160006101000a8154816001600160a01b0302191690836001600160a01b0316021790555084836002018281548110611fcb57fe5b600091825260208083209190910180546001600160a01b0319166001600160a01b03948516179055878316808352600487019091526040808320859055878416808452818420879055905190939192918a16917ffea1ac549b0e10ecbe67c9d07de370cb3976ed51ef1fd559cf7472021417467891a4505050505050565b7f00000000000000000000000000000000000000000000000000000000000000006001600160a01b031663b9b8af0b6040518163ffffffff1660e01b815260040160206040518083038186803b1580156120a257600080fd5b505afa1580156120b6573d6000803e3d6000fd5b505050506040513d60208110156120cc57600080fd5b505115612109576040805162461bcd60e51b81526020600482015260066024820152651a185b1d195960d21b604482015290519081900360640190fd5b7f00000000000000000000000000000000000000000000000000000000000000006001600160a01b0316631fe4a6866040518163ffffffff1660e01b815260040160206040518083038186803b15801561216257600080fd5b505afa158015612176573d6000803e3d6000fd5b505050506040513d602081101561218c57600080fd5b50516001600160a01b031633146121d8576040805162461bcd60e51b815260206004820152600b60248201526a085cdd1c985d1959da5cdd60aa1b604482015290519081900360640190fd5b6000805460ff1916911515919091179055565b7f00000000000000000000000000000000000000000000000000000000000000006001600160a01b031663b9b8af0b6040518163ffffffff1660e01b815260040160206040518083038186803b15801561224457600080fd5b505afa158015612258573d6000803e3d6000fd5b505050506040513d602081101561226e57600080fd5b5051156122ab576040805162461bcd60e51b81526020600482015260066024820152651a185b1d195960d21b604482015290519081900360640190fd5b7f00000000000000000000000000000000000000000000000000000000000000006001600160a01b0316631fe4a6866040518163ffffffff1660e01b815260040160206040518083038186803b15801561230457600080fd5b505afa158015612318573d6000803e3d6000fd5b505050506040513d602081101561232e57600080fd5b50516001600160a01b0316331461237a576040805162461bcd60e51b815260206004820152600b60248201526a085cdd1c985d1959da5cdd60aa1b604482015290519081900360640190fd5b827f00000000000000000000000000000000000000000000000000000000000000006001600160a01b0316637ae6c8d4826040518263ffffffff1660e01b815260040180826001600160a01b0316815260200191505060206040518083038186803b1580156123e857600080fd5b505afa1580156123fc573d6000803e3d6000fd5b505050506040513d602081101561241257600080fd5b5051612458576040805162461bcd60e51b815260206004820152601060248201526f21616c6c6f776564537472617465677960801b604482015290519081900360640190fd5b6001600160a01b03808616600090815260026020908152604080832093881680845260059094018252808320879055805163722713f760e01b8152905192939263722713f792600480840193919291829003018186803b1580156124bb57600080fd5b505afa1580156124cf573d6000803e3d6000fd5b505050506040513d60208110156124e557600080fd5b5051905083811180156124f757508315155b15610e4b5760006125088286613ab6565b9050856001600160a01b0316632e1a7d4d826040518263ffffffff1660e01b815260040180828152602001915050600060405180830381600087803b15801561255057600080fd5b505af1158015612564573d6000803e3d6000fd5b5050505061257287876139cf565b856001600160a01b031663722713f76040518163ffffffff1660e01b815260040160206040518083038186803b1580156125ab57600080fd5b505afa1580156125bf573d6000803e3d6000fd5b505050506040513d60208110156125d557600080fd5b50516001600160a01b0388166000908152600260205260409020600101549092506126009082613ab6565b60026000896001600160a01b03166001600160a01b03168152602001908152602001600020600101819055506000866001600160a01b0316631f1fcd516040518163ffffffff1660e01b815260040160206040518083038186803b15801561266757600080fd5b505afa15801561267b573d6000803e3d6000fd5b505050506040513d602081101561269157600080fd5b5051604080516370a0823160e01b815230600482015290519192506001600160a01b038316916370a0823191602480820192602092909190829003018186803b1580156126dd57600080fd5b505afa1580156126f1573d6000803e3d6000fd5b505050506040513d602081101561270757600080fd5b505192506001600160a01b038516156127ee576001600160a01b038089166000908152600260205260409020548116906127449083168286613a64565b604080516375892cf160e01b81526001600160a01b038481166004830152888116602483015260448201879052600160648301529151918316916375892cf1916084808201926020929091908290030181600087803b1580156127a657600080fd5b505af11580156127ba573d6000803e3d6000fd5b505050506040513d60208110156127d057600080fd5b505193506127e86001600160a01b0387168a86613a64565b50612802565b6128026001600160a01b0382168985613a64565b5050505050505050565b7f00000000000000000000000000000000000000000000000000000000000000006001600160a01b0316631fe4a6866040518163ffffffff1660e01b815260040160206040518083038186803b15801561286557600080fd5b505afa158015612879573d6000803e3d6000fd5b505050506040513d602081101561288f57600080fd5b50516001600160a01b031633146128db576040805162461bcd60e51b815260206004820152600b60248201526a085cdd1c985d1959da5cdd60aa1b604482015290519081900360640190fd5b816001600160a01b03166351cff8d9826040518263ffffffff1660e01b815260040180826001600160a01b03168152602001915050600060405180830381600087803b15801561292a57600080fd5b505af115801561293e573d6000803e3d6000fd5b50505050612a4d7f00000000000000000000000000000000000000000000000000000000000000006001600160a01b03166361d027b36040518163ffffffff1660e01b815260040160206040518083038186803b15801561299e57600080fd5b505afa1580156129b2573d6000803e3d6000fd5b505050506040513d60208110156129c857600080fd5b5051604080516370a0823160e01b815230600482015290516001600160a01b038516916370a08231916024808301926020929190829003018186803b158015612a1057600080fd5b505afa158015612a24573d6000803e3d6000fd5b505050506040513d6020811015612a3a57600080fd5b50516001600160a01b0384169190613a64565b5050565b7f00000000000000000000000000000000000000000000000000000000000000006001600160a01b031663b9b8af0b6040518163ffffffff1660e01b815260040160206040518083038186803b158015612aaa57600080fd5b505afa158015612abe573d6000803e3d6000fd5b505050506040513d6020811015612ad457600080fd5b505115612b11576040805162461bcd60e51b81526020600482015260066024820152651a185b1d195960d21b604482015290519081900360640190fd5b7f00000000000000000000000000000000000000000000000000000000000000006001600160a01b0316634bdaeac16040518163ffffffff1660e01b815260040160206040518083038186803b158015612b6a57600080fd5b505afa158015612b7e573d6000803e3d6000fd5b505050506040513d6020811015612b9457600080fd5b50516001600160a01b03163314612bdf576040805162461bcd60e51b815260206004820152600a60248201526910b430b93b32b9ba32b960b11b604482015290519081900360640190fd5b827f00000000000000000000000000000000000000000000000000000000000000006001600160a01b0316637ae6c8d4826040518263ffffffff1660e01b815260040180826001600160a01b0316815260200191505060206040518083038186803b158015612c4d57600080fd5b505afa158015612c61573d6000803e3d6000fd5b505050506040513d6020811015612c7757600080fd5b5051612cbd576040805162461bcd60e51b815260206004820152601060248201526f21616c6c6f776564537472617465677960801b604482015290519081900360640190fd5b6000846001600160a01b031663722713f76040518163ffffffff1660e01b815260040160206040518083038186803b158015612cf857600080fd5b505afa158015612d0c573d6000803e3d6000fd5b505050506040513d6020811015612d2257600080fd5b50516040805163e4a4b7b160e01b8152600481018790526024810186905290519192506001600160a01b0387169163e4a4b7b19160448082019260009290919082900301818387803b158015612d7757600080fd5b505af1158015612d8b573d6000803e3d6000fd5b505050506000856001600160a01b031663722713f76040518163ffffffff1660e01b815260040160206040518083038186803b158015612dca57600080fd5b505afa158015612dde573d6000803e3d6000fd5b505050506040513d6020811015612df457600080fd5b50516001600160a01b0380881660009081526003602052604090205491925016612e43612e218385613ab6565b6001600160a01b03831660009081526002602052604090206001015490613b13565b6001600160a01b0380831660009081526002602090815260408083206001810195909555928b168083526003909401905281812085905590517f188a622567eeca997c3d494fd65f76ca910b90a50a0c44d5e37b2ea5539e027b9190a250505050505050565b7f00000000000000000000000000000000000000000000000000000000000000006001600160a01b031663b9b8af0b6040518163ffffffff1660e01b815260040160206040518083038186803b158015612f0257600080fd5b505afa158015612f16573d6000803e3d6000fd5b505050506040513d6020811015612f2c57600080fd5b505115612f69576040805162461bcd60e51b81526020600482015260066024820152651a185b1d195960d21b604482015290519081900360640190fd5b7f00000000000000000000000000000000000000000000000000000000000000006001600160a01b0316631fe4a6866040518163ffffffff1660e01b815260040160206040518083038186803b158015612fc257600080fd5b505afa158015612fd6573d6000803e3d6000fd5b505050506040513d6020811015612fec57600080fd5b50516001600160a01b03163314613038576040805162461bcd60e51b815260206004820152600b60248201526a085cdd1c985d1959da5cdd60aa1b604482015290519081900360640190fd5b7f00000000000000000000000000000000000000000000000000000000000000006001600160a01b03166383649674826040518263ffffffff1660e01b815260040180826001600160a01b0316815260200191505060206040518083038186803b1580156130a557600080fd5b505afa1580156130b9573d6000803e3d6000fd5b505050506040513d60208110156130cf57600080fd5b5051613117576040805162461bcd60e51b815260206004820152601260248201527121616c6c6f776564436f6e7665727465727360701b604482015290519081900360640190fd5b6001600160a01b03918216600090815260026020526040902080546001600160a01b03191691909216179055565b7f00000000000000000000000000000000000000000000000000000000000000006001600160a01b0316631fe4a6866040518163ffffffff1660e01b815260040160206040518083038186803b15801561319e57600080fd5b505afa1580156131b2573d6000803e3d6000fd5b505050506040513d60208110156131c857600080fd5b50516001600160a01b03163314613214576040805162461bcd60e51b815260206004820152600b60248201526a085cdd1c985d1959da5cdd60aa1b604482015290519081900360640190fd5b807f00000000000000000000000000000000000000000000000000000000000000006001600160a01b0316637ae6c8d4826040518263ffffffff1660e01b815260040180826001600160a01b0316815260200191505060206040518083038186803b15801561328257600080fd5b505afa158015613296573d6000803e3d6000fd5b505050506040513d60208110156132ac57600080fd5b50516132f2576040805162461bcd60e51b815260206004820152601060248201526f21616c6c6f776564537472617465677960801b604482015290519081900360640190fd5b6000826001600160a01b0316631f1fcd516040518163ffffffff1660e01b815260040160206040518083038186803b15801561332d57600080fd5b505afa158015613341573d6000803e3d6000fd5b505050506040513d602081101561335757600080fd5b505160408051630774672d60e21b815290519192506001600160a01b03851691631dd19cb49160048082019260009290919082900301818387803b15801561339e57600080fd5b505af11580156133b2573d6000803e3d6000fd5b5050506001600160a01b038085166000908152600360209081526040918290205482516370a0823160e01b815230600482015292516134159550908416938616926370a08231926024808301939192829003018186803b158015612a1057600080fd5b505050565b7f00000000000000000000000000000000000000000000000000000000000000006001600160a01b0316631fe4a6866040518163ffffffff1660e01b815260040160206040518083038186803b15801561347357600080fd5b505afa158015613487573d6000803e3d6000fd5b505050506040513d602081101561349d57600080fd5b50516001600160a01b031633146134e9576040805162461bcd60e51b815260206004820152600b60248201526a085cdd1c985d1959da5cdd60aa1b604482015290519081900360640190fd5b612a4d7f00000000000000000000000000000000000000000000000000000000000000006001600160a01b03166361d027b36040518163ffffffff1660e01b815260040160206040518083038186803b15801561354557600080fd5b505afa158015613559573d6000803e3d6000fd5b505050506040513d602081101561356f57600080fd5b50516001600160a01b0384169083613a64565b60015481565b336000908152600260208190526040909120015490565b817f00000000000000000000000000000000000000000000000000000000000000006001600160a01b031663a622ee7c826040518263ffffffff1660e01b815260040180826001600160a01b0316815260200191505060206040518083038186803b15801561360d57600080fd5b505afa158015613621573d6000803e3d6000fd5b505050506040513d602081101561363757600080fd5b50516001600160a01b0316331461367e576040805162461bcd60e51b8152602060048201526006602482015265085d985d5b1d60d21b604482015290519081900360640190fd5b60608061368b8585613b74565b9150915060005b825181101561390a5760006001600160a01b03168382815181106136b257fe5b60200260200101516001600160a01b031614156136ce5761390a565b8281815181106136da57fe5b60200260200101516001600160a01b0316632e1a7d4d8383815181106136fc57fe5b60200260200101516040518263ffffffff1660e01b815260040180828152602001915050600060405180830381600087803b15801561373a57600080fd5b505af115801561374e573d6000803e3d6000fd5b5050505061376f3384838151811061376257fe5b60200260200101516139cf565b600083828151811061377d57fe5b60200260200101516001600160a01b0316631f1fcd516040518163ffffffff1660e01b815260040160206040518083038186803b1580156137bd57600080fd5b505afa1580156137d1573d6000803e3d6000fd5b505050506040513d60208110156137e757600080fd5b505190506001600160a01b0380821690881614613901573360009081526002602052604090205483516001600160a01b039091169061384f90829086908690811061382e57fe5b6020026020010151846001600160a01b0316613a649092919063ffffffff16565b806001600160a01b03166375892cf1838a87878151811061386c57fe5b602002602001015160016040518563ffffffff1660e01b815260040180856001600160a01b03168152602001846001600160a01b03168152602001838152602001828152602001945050505050602060405180830381600087803b1580156138d357600080fd5b505af11580156138e7573d6000803e3d6000fd5b505050506040513d60208110156138fd57600080fd5b5050505b50600101613692565b50604080516370a0823160e01b815230600482015290516001600160a01b038716916370a08231916024808301926020929190829003018186803b15801561395157600080fd5b505afa158015613965573d6000803e3d6000fd5b505050506040513d602081101561397b57600080fd5b50513360009081526002602052604090206001015490945061399d9085613ab6565b336000818152600260205260409020600101919091556139c8906001600160a01b0387169086613a64565b5050505050565b806001600160a01b031663722713f76040518163ffffffff1660e01b815260040160206040518083038186803b158015613a0857600080fd5b505afa158015613a1c573d6000803e3d6000fd5b505050506040513d6020811015613a3257600080fd5b50516001600160a01b039283166000908152600260209081526040808320949095168252600390930190925291902055565b604080516001600160a01b038416602482015260448082018490528251808303909101815260649091019091526020810180516001600160e01b031663a9059cbb60e01b179052613415908490613dbc565b600082821115613b0d576040805162461bcd60e51b815260206004820152601e60248201527f536166654d6174683a207375627472616374696f6e206f766572666c6f770000604482015290519081900360640190fd5b50900390565b600082820183811015613b6d576040805162461bcd60e51b815260206004820152601b60248201527f536166654d6174683a206164646974696f6e206f766572666c6f770000000000604482015290519081900360640190fd5b9392505050565b60608060007f00000000000000000000000000000000000000000000000000000000000000006001600160a01b031663a622ee7c866040518263ffffffff1660e01b815260040180826001600160a01b0316815260200191505060206040518083038186803b158015613be657600080fd5b505afa158015613bfa573d6000803e3d6000fd5b505050506040513d6020811015613c1057600080fd5b50516001600160a01b038116600090815260026020819052604090912001549091508067ffffffffffffffff81118015613c4957600080fd5b50604051908082528060200260200182016040528015613c73578160200160208202803683370190505b5093508067ffffffffffffffff81118015613c8d57600080fd5b50604051908082528060200260200182016040528015613cb7578160200160208202803683370190505b50925060008060005b83811015613db0576001600160a01b038516600090815260026020819052604090912001805482908110613cf057fe5b9060005260206000200160009054906101000a90046001600160a01b0316925082878281518110613d1d57fe5b6001600160a01b039283166020918202929092018101919091528682166000908152600282526040808220938716825260039093019091522054915087821015613d8a5781868281518110613d6e57fe5b6020908102919091010152613d838883613ab6565b9750613da8565b87868281518110613d9757fe5b602002602001018181525050613db0565b600101613cc0565b50505050509250929050565b6060613e11826040518060400160405280602081526020017f5361666545524332303a206c6f772d6c6576656c2063616c6c206661696c6564815250856001600160a01b0316613e6d9092919063ffffffff16565b80519091501561341557808060200190516020811015613e3057600080fd5b50516134155760405162461bcd60e51b815260040180806020018281038252602a8152602001806140b1602a913960400191505060405180910390fd5b6060613e7c8484600085613e84565b949350505050565b606082471015613ec55760405162461bcd60e51b815260040180806020018281038252602681526020018061408b6026913960400191505060405180910390fd5b613ece85613fe0565b613f1f576040805162461bcd60e51b815260206004820152601d60248201527f416464726573733a2063616c6c20746f206e6f6e2d636f6e7472616374000000604482015290519081900360640190fd5b60006060866001600160a01b031685876040518082805190602001908083835b60208310613f5e5780518252601f199092019160209182019101613f3f565b6001836020036101000a03801982511681845116808217855250505050505090500191505060006040518083038185875af1925050503d8060008114613fc0576040519150601f19603f3d011682016040523d82523d6000602084013e613fc5565b606091505b5091509150613fd5828286613fe6565b979650505050505050565b3b151590565b60608315613ff5575081613b6d565b8251156140055782518084602001fd5b8160405162461bcd60e51b81526004018080602001828103825283818151815260200191508051906020019080838360005b8381101561404f578181015183820152602001614037565b50505050905090810190601f16801561407c5780820380516001836020036101000a031916815260200191505b509250505060405180910390fdfe416464726573733a20696e73756666696369656e742062616c616e636520666f722063616c6c5361666545524332303a204552433230206f7065726174696f6e20646964206e6f742073756363656564a26469706673582212202c26a3585a614b9a8210a13fb8482540542375b714c6b8108d01c9c66c239f3664736f6c634300060c0033",
  "linkReferences": {},
  "deployedLinkReferences": {}
}