{
  "_format": "hh-sol-artifact-1",
  "contractName": "UnionTokenMock",
  "sourceName": "contracts/tests/UnionTokenMock.sol",
  "abi": [
    {
      "inputs": [
        {
          "internalType": "string",
          "name": "name",
          "type": "string"
        },
        {
          "internalType": "string",
          "name": "symbol",
          "type": "string"
        }
      ],
      "stateMutability": "nonpayable",
      "type": "constructor"
    },
    {
      "anonymous": false,
      "inputs": [
        {
          "indexed": true,
          "internalType": "address",
          "name": "owner",
          "type": "address"
        },
        {
          "indexed": true,
          "internalType": "address",
          "name": "spender",
          "type": "address"
        },
        {
          "indexed": false,
          "internalType": "uint256",
          "name": "value",
          "type": "uint256"
        }
      ],
      "name": "Approval",
      "type": "event"
    },
    {
      "anonymous": false,
      "inputs": [
        {
          "indexed": true,
          "internalType": "address",
          "name": "delegator",
          "type": "address"
        },
        {
          "indexed": true,
          "internalType": "address",
          "name": "fromDelegate",
          "type": "address"
        },
        {
          "indexed": true,
          "internalType": "address",
          "name": "toDelegate",
          "type": "address"
        }
      ],
      "name": "DelegateChanged",
      "type": "event"
    },
    {
      "anonymous": false,
      "inputs": [
        {
          "indexed": true,
          "internalType": "address",
          "name": "delegate",
          "type": "address"
        },
        {
          "indexed": false,
          "internalType": "uint256",
          "name": "previousBalance",
          "type": "uint256"
        },
        {
          "indexed": false,
          "internalType": "uint256",
          "name": "newBalance",
          "type": "uint256"
        }
      ],
      "name": "DelegateVotesChanged",
      "type": "event"
    },
    {
      "anonymous": false,
      "inputs": [
        {
          "indexed": true,
          "internalType": "address",
          "name": "from",
          "type": "address"
        },
        {
          "indexed": true,
          "internalType": "address",
          "name": "to",
          "type": "address"
        },
        {
          "indexed": false,
          "internalType": "uint256",
          "name": "value",
          "type": "uint256"
        }
      ],
      "name": "Transfer",
      "type": "event"
    },
    {
      "inputs": [],
      "name": "DELEGATION_TYPEHASH",
      "outputs": [
        {
          "internalType": "bytes32",
          "name": "",
          "type": "bytes32"
        }
      ],
      "stateMutability": "view",
      "type": "function"
    },
    {
      "inputs": [],
      "name": "DOMAIN_SEPARATOR",
      "outputs": [
        {
          "internalType": "bytes32",
          "name": "",
          "type": "bytes32"
        }
      ],
      "stateMutability": "view",
      "type": "function"
    },
    {
      "inputs": [],
      "name": "DOMAIN_TYPEHASH",
      "outputs": [
        {
          "internalType": "bytes32",
          "name": "",
          "type": "bytes32"
        }
      ],
      "stateMutability": "view",
      "type": "function"
    },
    {
      "inputs": [],
      "name": "INIT_CIRCULATING",
      "outputs": [
        {
          "internalType": "uint256",
          "name": "",
          "type": "uint256"
        }
      ],
      "stateMutability": "view",
      "type": "function"
    },
    {
      "inputs": [],
      "name": "PERMIT_TYPEHASH",
      "outputs": [
        {
          "internalType": "bytes32",
          "name": "",
          "type": "bytes32"
        }
      ],
      "stateMutability": "view",
      "type": "function"
    },
    {
      "inputs": [
        {
          "internalType": "address",
          "name": "owner",
          "type": "address"
        },
        {
          "internalType": "address",
          "name": "spender",
          "type": "address"
        }
      ],
      "name": "allowance",
      "outputs": [
        {
          "internalType": "uint256",
          "name": "",
          "type": "uint256"
        }
      ],
      "stateMutability": "view",
      "type": "function"
    },
    {
      "inputs": [
        {
          "internalType": "address",
          "name": "spender",
          "type": "address"
        },
        {
          "internalType": "uint256",
          "name": "amount",
          "type": "uint256"
        }
      ],
      "name": "approve",
      "outputs": [
        {
          "internalType": "bool",
          "name": "",
          "type": "bool"
        }
      ],
      "stateMutability": "nonpayable",
      "type": "function"
    },
    {
      "inputs": [
        {
          "internalType": "address",
          "name": "account",
          "type": "address"
        }
      ],
      "name": "balanceOf",
      "outputs": [
        {
          "internalType": "uint256",
          "name": "",
          "type": "uint256"
        }
      ],
      "stateMutability": "view",
      "type": "function"
    },
    {
      "inputs": [
        {
          "internalType": "uint256",
          "name": "amount",
          "type": "uint256"
        }
      ],
      "name": "burn",
      "outputs": [],
      "stateMutability": "nonpayable",
      "type": "function"
    },
    {
      "inputs": [
        {
          "internalType": "address",
          "name": "account",
          "type": "address"
        },
        {
          "internalType": "uint256",
          "name": "amount",
          "type": "uint256"
        }
      ],
      "name": "burnFrom",
      "outputs": [],
      "stateMutability": "nonpayable",
      "type": "function"
    },
    {
      "inputs": [
        {
          "internalType": "address",
          "name": "account",
          "type": "address"
        },
        {
          "internalType": "uint32",
          "name": "pos",
          "type": "uint32"
        }
      ],
      "name": "checkpoints",
      "outputs": [
        {
          "components": [
            {
              "internalType": "uint32",
              "name": "fromBlock",
              "type": "uint32"
            },
            {
              "internalType": "uint224",
              "name": "votes",
              "type": "uint224"
            }
          ],
          "internalType": "struct ERC20Votes.Checkpoint",
          "name": "",
          "type": "tuple"
        }
      ],
      "stateMutability": "view",
      "type": "function"
    },
    {
      "inputs": [],
      "name": "decimals",
      "outputs": [
        {
          "internalType": "uint8",
          "name": "",
          "type": "uint8"
        }
      ],
      "stateMutability": "view",
      "type": "function"
    },
    {
      "inputs": [
        {
          "internalType": "address",
          "name": "spender",
          "type": "address"
        },
        {
          "internalType": "uint256",
          "name": "subtractedValue",
          "type": "uint256"
        }
      ],
      "name": "decreaseAllowance",
      "outputs": [
        {
          "internalType": "bool",
          "name": "",
          "type": "bool"
        }
      ],
      "stateMutability": "nonpayable",
      "type": "function"
    },
    {
      "inputs": [
        {
          "internalType": "address",
          "name": "delegatee",
          "type": "address"
        }
      ],
      "name": "delegate",
      "outputs": [],
      "stateMutability": "nonpayable",
      "type": "function"
    },
    {
      "inputs": [
        {
          "internalType": "address",
          "name": "delegatee",
          "type": "address"
        },
        {
          "internalType": "uint256",
          "name": "nonce",
          "type": "uint256"
        },
        {
          "internalType": "uint256",
          "name": "expiry",
          "type": "uint256"
        },
        {
          "internalType": "uint8",
          "name": "v",
          "type": "uint8"
        },
        {
          "internalType": "bytes32",
          "name": "r",
          "type": "bytes32"
        },
        {
          "internalType": "bytes32",
          "name": "s",
          "type": "bytes32"
        }
      ],
      "name": "delegateBySig",
      "outputs": [],
      "stateMutability": "nonpayable",
      "type": "function"
    },
    {
      "inputs": [
        {
          "internalType": "address",
          "name": "account",
          "type": "address"
        }
      ],
      "name": "delegates",
      "outputs": [
        {
          "internalType": "address",
          "name": "",
          "type": "address"
        }
      ],
      "stateMutability": "view",
      "type": "function"
    },
    {
      "inputs": [
        {
          "internalType": "address",
          "name": "account",
          "type": "address"
        }
      ],
      "name": "getCurrentVotes",
      "outputs": [
        {
          "internalType": "uint96",
          "name": "",
          "type": "uint96"
        }
      ],
      "stateMutability": "view",
      "type": "function"
    },
    {
      "inputs": [
        {
          "internalType": "uint256",
          "name": "blockNumber",
          "type": "uint256"
        }
      ],
      "name": "getPastTotalSupply",
      "outputs": [
        {
          "internalType": "uint256",
          "name": "",
          "type": "uint256"
        }
      ],
      "stateMutability": "view",
      "type": "function"
    },
    {
      "inputs": [
        {
          "internalType": "address",
          "name": "account",
          "type": "address"
        },
        {
          "internalType": "uint256",
          "name": "blockNumber",
          "type": "uint256"
        }
      ],
      "name": "getPastVotes",
      "outputs": [
        {
          "internalType": "uint256",
          "name": "",
          "type": "uint256"
        }
      ],
      "stateMutability": "view",
      "type": "function"
    },
    {
      "inputs": [
        {
          "internalType": "address",
          "name": "account",
          "type": "address"
        },
        {
          "internalType": "uint256",
          "name": "blockNumber",
          "type": "uint256"
        }
      ],
      "name": "getPriorVotes",
      "outputs": [
        {
          "internalType": "uint96",
          "name": "",
          "type": "uint96"
        }
      ],
      "stateMutability": "view",
      "type": "function"
    },
    {
      "inputs": [
        {
          "internalType": "address",
          "name": "account",
          "type": "address"
        }
      ],
      "name": "getVotes",
      "outputs": [
        {
          "internalType": "uint256",
          "name": "",
          "type": "uint256"
        }
      ],
      "stateMutability": "view",
      "type": "function"
    },
    {
      "inputs": [
        {
          "internalType": "address",
          "name": "spender",
          "type": "address"
        },
        {
          "internalType": "uint256",
          "name": "addedValue",
          "type": "uint256"
        }
      ],
      "name": "increaseAllowance",
      "outputs": [
        {
          "internalType": "bool",
          "name": "",
          "type": "bool"
        }
      ],
      "stateMutability": "nonpayable",
      "type": "function"
    },
    {
      "inputs": [],
      "name": "minimumTimeBetweenMints",
      "outputs": [
        {
          "internalType": "uint256",
          "name": "",
          "type": "uint256"
        }
      ],
      "stateMutability": "view",
      "type": "function"
    },
    {
      "inputs": [
        {
          "internalType": "address",
          "name": "dst",
          "type": "address"
        },
        {
          "internalType": "uint256",
          "name": "amount",
          "type": "uint256"
        }
      ],
      "name": "mint",
      "outputs": [
        {
          "internalType": "bool",
          "name": "",
          "type": "bool"
        }
      ],
      "stateMutability": "nonpayable",
      "type": "function"
    },
    {
      "inputs": [],
      "name": "mintCap",
      "outputs": [
        {
          "internalType": "uint256",
          "name": "",
          "type": "uint256"
        }
      ],
      "stateMutability": "view",
      "type": "function"
    },
    {
      "inputs": [],
      "name": "mintingAllowedAfter",
      "outputs": [
        {
          "internalType": "uint256",
          "name": "",
          "type": "uint256"
        }
      ],
      "stateMutability": "view",
      "type": "function"
    },
    {
      "inputs": [],
      "name": "name",
      "outputs": [
        {
          "internalType": "string",
          "name": "",
          "type": "string"
        }
      ],
      "stateMutability": "view",
      "type": "function"
    },
    {
      "inputs": [
        {
          "internalType": "address",
          "name": "owner",
          "type": "address"
        }
      ],
      "name": "nonces",
      "outputs": [
        {
          "internalType": "uint256",
          "name": "",
          "type": "uint256"
        }
      ],
      "stateMutability": "view",
      "type": "function"
    },
    {
      "inputs": [
        {
          "internalType": "address",
          "name": "account",
          "type": "address"
        }
      ],
      "name": "numCheckpoints",
      "outputs": [
        {
          "internalType": "uint32",
          "name": "",
          "type": "uint32"
        }
      ],
      "stateMutability": "view",
      "type": "function"
    },
    {
      "inputs": [
        {
          "internalType": "address",
          "name": "owner",
          "type": "address"
        },
        {
          "internalType": "address",
          "name": "spender",
          "type": "address"
        },
        {
          "internalType": "uint256",
          "name": "value",
          "type": "uint256"
        },
        {
          "internalType": "uint256",
          "name": "deadline",
          "type": "uint256"
        },
        {
          "internalType": "uint8",
          "name": "v",
          "type": "uint8"
        },
        {
          "internalType": "bytes32",
          "name": "r",
          "type": "bytes32"
        },
        {
          "internalType": "bytes32",
          "name": "s",
          "type": "bytes32"
        }
      ],
      "name": "permit",
      "outputs": [],
      "stateMutability": "nonpayable",
      "type": "function"
    },
    {
      "inputs": [],
      "name": "symbol",
      "outputs": [
        {
          "internalType": "string",
          "name": "",
          "type": "string"
        }
      ],
      "stateMutability": "view",
      "type": "function"
    },
    {
      "inputs": [],
      "name": "totalSupply",
      "outputs": [
        {
          "internalType": "uint256",
          "name": "",
          "type": "uint256"
        }
      ],
      "stateMutability": "view",
      "type": "function"
    },
    {
      "inputs": [
        {
          "internalType": "address",
          "name": "recipient",
          "type": "address"
        },
        {
          "internalType": "uint256",
          "name": "amount",
          "type": "uint256"
        }
      ],
      "name": "transfer",
      "outputs": [
        {
          "internalType": "bool",
          "name": "",
          "type": "bool"
        }
      ],
      "stateMutability": "nonpayable",
      "type": "function"
    },
    {
      "inputs": [
        {
          "internalType": "address",
          "name": "sender",
          "type": "address"
        },
        {
          "internalType": "address",
          "name": "recipient",
          "type": "address"
        },
        {
          "internalType": "uint256",
          "name": "amount",
          "type": "uint256"
        }
      ],
      "name": "transferFrom",
      "outputs": [
        {
          "internalType": "bool",
          "name": "",
          "type": "bool"
        }
      ],
      "stateMutability": "nonpayable",
      "type": "function"
    }
  ],
  "bytecode": "0x6101406040527f6e71edae12b1b97f4d1f60370fef10105fa2faae0126114a169c64845d6126c9610120523480156200003757600080fd5b5060405162002c9938038062002c998339810160408190526200005a9162000961565b8180604051806040016040528060018152602001603160f81b815250848481600390805190602001906200009092919062000812565b508051620000a690600490602084019062000812565b5050825160209384012082519284019290922060c083815260e08290524660a0818152604080517f8b73c3c69bb8fe3d512ecc4cf759cc79239f7b179b0ffacaa9a75d522b39400f818a01819052818301989098526060810195909552608080860193909352308583015280518086039092018252939092018352815191860191909120905261010092909252503360009081529182905290205490506200015f576200015f336a52b7d2dcc80cd2e400000062000167565b505062000a66565b6200017e8282620001ed60201b62000dd81760201c565b600954421015620001d65760405162461bcd60e51b815260206004820152601760248201527f6d696e74696e67206e6f7420616c6c6f7765642079657400000000000000000060448201526064015b60405180910390fd5b620001e6426301e13380620009c8565b6009555050565b6200020482826200029e60201b62000e681760201c565b6001600160601b036200021660025490565b11156200027f5760405162461bcd60e51b815260206004820152603060248201527f4552433230566f7465733a20746f74616c20737570706c79207269736b73206f60448201526f766572666c6f77696e6720766f74657360801b6064820152608401620001cd565b62000298600862000f536200039f60201b1783620003b4565b50505050565b6001600160a01b038216620002f65760405162461bcd60e51b815260206004820152601f60248201527f45524332303a206d696e7420746f20746865207a65726f2061646472657373006044820152606401620001cd565b62000304600083836200058a565b8060026000828254620003189190620009c8565b90915550506001600160a01b0382166000908152602081905260408120805483929062000347908490620009c8565b90915550506040518181526001600160a01b038316906000907fddf252ad1be2c89b69c2b068fc378daa952ba7f163c4a11628f55a4df523b3ef9060200160405180910390a36200039b60008383620005a7565b5050565b6000620003ad8284620009c8565b9392505050565b825460009081908015620004125785620003d0600183620009e3565b81548110620003ef57634e487b7160e01b600052603260045260246000fd5b60009182526020909120015464010000000090046001600160e01b031662000415565b60005b6001600160e01b031692506200042c83858760201c565b91506000811180156200047c5750438662000449600184620009e3565b815481106200046857634e487b7160e01b600052603260045260246000fd5b60009182526020909120015463ffffffff16145b15620004fc576200049882620005bf60201b62000f5f1760201c565b86620004a6600184620009e3565b81548110620004c557634e487b7160e01b600052603260045260246000fd5b9060005260206000200160000160046101000a8154816001600160e01b0302191690836001600160e01b0316021790555062000581565b8560405180604001604052806200051e436200062e60201b62000fcc1760201c565b63ffffffff1681526020016200053f85620005bf60201b62000f5f1760201c565b6001600160e01b0390811690915282546001810184556000938452602093849020835194909301519091166401000000000263ffffffff909316929092179101555b50935093915050565b620005a2838383620005a260201b620008d51760201c565b505050565b620005a28383836200069560201b620010311760201c565b60006001600160e01b038211156200062a5760405162461bcd60e51b815260206004820152602760248201527f53616665436173743a2076616c756520646f65736e27742066697420696e20326044820152663234206269747360c81b6064820152608401620001cd565b5090565b600063ffffffff8211156200062a5760405162461bcd60e51b815260206004820152602660248201527f53616665436173743a2076616c756520646f65736e27742066697420696e203360448201526532206269747360d01b6064820152608401620001cd565b620006ad838383620005a260201b620008d51760201c565b6001600160a01b03838116600090815260066020526040808220548584168352912054620005a292918216911683818314801590620006ec5750600081115b15620005a2576001600160a01b0383161562000779576001600160a01b03831660009081526007602090815260408220829162000736919062000804901b620010631785620003b4565b91509150846001600160a01b031660008051602062002c7983398151915283836040516200076e929190918252602082015260400190565b60405180910390a250505b6001600160a01b03821615620005a2576001600160a01b038216600090815260076020908152604082208291620007bd91906200039f901b62000f531785620003b4565b91509150836001600160a01b031660008051602062002c798339815191528383604051620007f5929190918252602082015260400190565b60405180910390a25050505050565b6000620003ad8284620009e3565b8280546200082090620009fd565b90600052602060002090601f0160209004810192826200084457600085556200088f565b82601f106200085f57805160ff19168380011785556200088f565b828001600101855582156200088f579182015b828111156200088f57825182559160200191906001019062000872565b506200062a9291505b808211156200062a576000815560010162000898565b600082601f830112620008bf578081fd5b81516001600160401b0380821115620008dc57620008dc62000a50565b604051601f8301601f19908116603f0116810190828211818310171562000907576200090762000a50565b8160405283815260209250868385880101111562000923578485fd5b8491505b8382101562000946578582018301518183018401529082019062000927565b838211156200095757848385830101525b9695505050505050565b6000806040838503121562000974578182fd5b82516001600160401b03808211156200098b578384fd5b6200099986838701620008ae565b93506020850151915080821115620009af578283fd5b50620009be85828601620008ae565b9150509250929050565b60008219821115620009de57620009de62000a3a565b500190565b600082821015620009f857620009f862000a3a565b500390565b600181811c9082168062000a1257607f821691505b6020821081141562000a3457634e487b7160e01b600052602260045260246000fd5b50919050565b634e487b7160e01b600052601160045260246000fd5b634e487b7160e01b600052604160045260246000fd5b60805160a05160c05160e05161010051610120516121c362000ab66000396000610c36015260006113bd0152600061140c015260006113e70152600061136b0152600061139401526121c36000f3fe608060405234801561001057600080fd5b50600436106102065760003560e01c806370a082311161011a578063a457c2d7116100ad578063d505accf1161007c578063d505accf146104b3578063dd62ed3e146104c6578063e7a324dc146104ff578063f1127ed814610526578063f557d6571461056357600080fd5b8063a457c2d714610467578063a9059cbb1461047a578063b4b5ea571461048d578063c3cda520146104a057600080fd5b80637ecebe00116100e95780637ecebe00146104265780638e539e8c1461043957806395d89b411461044c5780639ab24eb01461045457600080fd5b806370a08231146103b757806376c71ca1146103e0578063782d6fe1146103e857806379cc67901461041357600080fd5b80633644e5151161019d57806342966c681161016c57806342966c6814610318578063587cde1e1461032d5780635c11d62f146103715780635c19a95c1461037c5780636fcfff451461038f57600080fd5b80633644e515146102d757806339509351146102df5780633a46b1a8146102f257806340c10f191461030557600080fd5b806323b872dd116101d957806323b872dd1461028557806330adf81f1461029857806330b36cef146102bf578063313ce567146102c857600080fd5b806306fdde031461020b578063095ea7b31461022957806318160ddd1461024c57806320606b701461025e575b600080fd5b610213610575565b6040516102209190612081565b60405180910390f35b61023c610237366004611fab565b610607565b6040519015158152602001610220565b6002545b604051908152602001610220565b6102507f8cad95687ba82c2ce50e74f7b754645e5117c3a5bec8151c0726d5857980a86681565b61023c610293366004611f07565b61061d565b6102507f6e71edae12b1b97f4d1f60370fef10105fa2faae0126114a169c64845d6126c981565b61025060095481565b60405160128152602001610220565b6102506106cc565b61023c6102ed366004611fab565b6106db565b610250610300366004611fab565b610717565b61023c610313366004611fab565b610791565b61032b610326366004612069565b610801565b005b61035961033b366004611ebb565b6001600160a01b039081166000908152600660205260409020541690565b6040516001600160a01b039091168152602001610220565b6102506301e1338081565b61032b61038a366004611ebb565b61080e565b6103a261039d366004611ebb565b610818565b60405163ffffffff9091168152602001610220565b6102506103c5366004611ebb565b6001600160a01b031660009081526020819052604090205490565b610250600481565b6103fb6103f6366004611fab565b610840565b6040516001600160601b039091168152602001610220565b61032b610421366004611fab565b610854565b610250610434366004611ebb565b6108da565b610250610447366004612069565b6108f8565b610213610954565b610250610462366004611ebb565b610963565b61023c610475366004611fab565b6109f8565b61023c610488366004611fab565b610a91565b6103fb61049b366004611ebb565b610a9e565b61032b6104ae366004611fd4565b610aac565b61032b6104c1366004611f42565b610be2565b6102506104d4366004611ed5565b6001600160a01b03918216600090815260016020908152604080832093909416825291909152205490565b6102507fe48329057bfd03d55e49b547132e39cffd9c1820ad7b9d4c5307691425d15adf81565b61053961053436600461202b565b610d46565b60408051825163ffffffff1681526020928301516001600160e01b03169281019290925201610220565b6102506a52b7d2dcc80cd2e400000081565b60606003805461058490612142565b80601f01602080910402602001604051908101604052809291908181526020018280546105b090612142565b80156105fd5780601f106105d2576101008083540402835291602001916105fd565b820191906000526020600020905b8154815290600101906020018083116105e057829003601f168201915b5050505050905090565b600061061433848461106f565b50600192915050565b600061062a848484611193565b6001600160a01b0384166000908152600160209081526040808320338452909152902054828110156106b45760405162461bcd60e51b815260206004820152602860248201527f45524332303a207472616e7366657220616d6f756e74206578636565647320616044820152676c6c6f77616e636560c01b60648201526084015b60405180910390fd5b6106c1853385840361106f565b506001949350505050565b60006106d6611367565b905090565b3360008181526001602090815260408083206001600160a01b038716845290915281205490916106149185906107129086906120d4565b61106f565b60004382106107685760405162461bcd60e51b815260206004820152601f60248201527f4552433230566f7465733a20626c6f636b206e6f7420796574206d696e65640060448201526064016106ab565b6001600160a01b038316600090815260076020526040902061078a908361145a565b9392505050565b6000606460046107a060025490565b6107aa919061210c565b6107b491906120ec565b8211156107f75760405162461bcd60e51b815260206004820152601160248201527006578636565646564206d696e742063617607c1b60448201526064016106ab565b6106148383611533565b61080b33826115a4565b50565b61080b33826115ae565b6001600160a01b03811660009081526007602052604081205461083a90610fcc565b92915050565b600061078a61084f8484610717565b611627565b600061086083336104d4565b9050818110156108be5760405162461bcd60e51b8152602060048201526024808201527f45524332303a206275726e20616d6f756e74206578636565647320616c6c6f77604482015263616e636560e01b60648201526084016106ab565b6108cb833384840361106f565b6108d583836115a4565b505050565b6001600160a01b03811660009081526005602052604081205461083a565b60004382106109495760405162461bcd60e51b815260206004820152601f60248201527f4552433230566f7465733a20626c6f636b206e6f7420796574206d696e65640060448201526064016106ab565b61083a60088361145a565b60606004805461058490612142565b6001600160a01b03811660009081526007602052604081205480156109e5576001600160a01b03831660009081526007602052604090206109a560018361212b565b815481106109c357634e487b7160e01b600052603260045260246000fd5b60009182526020909120015464010000000090046001600160e01b03166109e8565b60005b6001600160e01b03169392505050565b3360009081526001602090815260408083206001600160a01b038616845290915281205482811015610a7a5760405162461bcd60e51b815260206004820152602560248201527f45524332303a2064656372656173656420616c6c6f77616e63652062656c6f77604482015264207a65726f60d81b60648201526084016106ab565b610a87338585840361106f565b5060019392505050565b6000610614338484611193565b600061083a61084f83610963565b83421115610afc5760405162461bcd60e51b815260206004820152601d60248201527f4552433230566f7465733a207369676e6174757265206578706972656400000060448201526064016106ab565b604080517fe48329057bfd03d55e49b547132e39cffd9c1820ad7b9d4c5307691425d15adf60208201526001600160a01b038816918101919091526060810186905260808101859052600090610b7690610b6e9060a0016040516020818303038152906040528051906020012061168f565b8585856116dd565b9050610b8181611705565b8614610bcf5760405162461bcd60e51b815260206004820152601960248201527f4552433230566f7465733a20696e76616c6964206e6f6e63650000000000000060448201526064016106ab565b610bd981886115ae565b50505050505050565b83421115610c325760405162461bcd60e51b815260206004820152601d60248201527f45524332305065726d69743a206578706972656420646561646c696e6500000060448201526064016106ab565b60007f0000000000000000000000000000000000000000000000000000000000000000888888610c618c611705565b6040805160208101969096526001600160a01b0394851690860152929091166060840152608083015260a082015260c0810186905260e0016040516020818303038152906040528051906020012090506000610cbc8261168f565b90506000610ccc828787876116dd565b9050896001600160a01b0316816001600160a01b031614610d2f5760405162461bcd60e51b815260206004820152601e60248201527f45524332305065726d69743a20696e76616c6964207369676e6174757265000060448201526064016106ab565b610d3a8a8a8a61106f565b50505050505050505050565b60408051808201909152600080825260208201526001600160a01b0383166000908152600760205260409020805463ffffffff8416908110610d9857634e487b7160e01b600052603260045260246000fd5b60009182526020918290206040805180820190915291015463ffffffff8116825264010000000090046001600160e01b0316918101919091529392505050565b610de28282610e68565b6002546001600160601b031015610e545760405162461bcd60e51b815260206004820152603060248201527f4552433230566f7465733a20746f74616c20737570706c79207269736b73206f60448201526f766572666c6f77696e6720766f74657360801b60648201526084016106ab565b610e626008610f538361172d565b50505050565b6001600160a01b038216610ebe5760405162461bcd60e51b815260206004820152601f60248201527f45524332303a206d696e7420746f20746865207a65726f20616464726573730060448201526064016106ab565b8060026000828254610ed091906120d4565b90915550506001600160a01b03821660009081526020819052604081208054839290610efd9084906120d4565b90915550506040518181526001600160a01b038316906000907fddf252ad1be2c89b69c2b068fc378daa952ba7f163c4a11628f55a4df523b3ef9060200160405180910390a3610f4f600083836118d0565b5050565b600061078a82846120d4565b60006001600160e01b03821115610fc85760405162461bcd60e51b815260206004820152602760248201527f53616665436173743a2076616c756520646f65736e27742066697420696e20326044820152663234206269747360c81b60648201526084016106ab565b5090565b600063ffffffff821115610fc85760405162461bcd60e51b815260206004820152602660248201527f53616665436173743a2076616c756520646f65736e27742066697420696e203360448201526532206269747360d01b60648201526084016106ab565b6001600160a01b038381166000908152600660205260408082205485841683529120546108d5929182169116836118db565b600061078a828461212b565b6001600160a01b0383166110d15760405162461bcd60e51b8152602060048201526024808201527f45524332303a20617070726f76652066726f6d20746865207a65726f206164646044820152637265737360e01b60648201526084016106ab565b6001600160a01b0382166111325760405162461bcd60e51b815260206004820152602260248201527f45524332303a20617070726f766520746f20746865207a65726f206164647265604482015261737360f01b60648201526084016106ab565b6001600160a01b0383811660008181526001602090815260408083209487168084529482529182902085905590518481527f8c5be1e5ebec7d5bd14f71427d1e84f3dd0314c0f7b2291e5b200ac8c7c3b925910160405180910390a3505050565b6001600160a01b0383166111f75760405162461bcd60e51b815260206004820152602560248201527f45524332303a207472616e736665722066726f6d20746865207a65726f206164604482015264647265737360d81b60648201526084016106ab565b6001600160a01b0382166112595760405162461bcd60e51b815260206004820152602360248201527f45524332303a207472616e7366657220746f20746865207a65726f206164647260448201526265737360e81b60648201526084016106ab565b6001600160a01b038316600090815260208190526040902054818110156112d15760405162461bcd60e51b815260206004820152602660248201527f45524332303a207472616e7366657220616d6f756e7420657863656564732062604482015265616c616e636560d01b60648201526084016106ab565b6001600160a01b038085166000908152602081905260408082208585039055918516815290812080548492906113089084906120d4565b92505081905550826001600160a01b0316846001600160a01b03167fddf252ad1be2c89b69c2b068fc378daa952ba7f163c4a11628f55a4df523b3ef8460405161135491815260200190565b60405180910390a3610e628484846118d0565b60007f00000000000000000000000000000000000000000000000000000000000000004614156113b657507f000000000000000000000000000000000000000000000000000000000000000090565b50604080517f00000000000000000000000000000000000000000000000000000000000000006020808301919091527f0000000000000000000000000000000000000000000000000000000000000000828401527f000000000000000000000000000000000000000000000000000000000000000060608301524660808301523060a0808401919091528351808403909101815260c0909201909252805191012090565b8154600090815b818110156114cc5760006114758284611a18565b90508486828154811061149857634e487b7160e01b600052603260045260246000fd5b60009182526020909120015463ffffffff1611156114b8578092506114c6565b6114c38160016120d4565b91505b50611461565b811561151e57846114de60018461212b565b815481106114fc57634e487b7160e01b600052603260045260246000fd5b60009182526020909120015464010000000090046001600160e01b0316611521565b60005b6001600160e01b031695945050505050565b61153d8282610dd8565b60095442101561158f5760405162461bcd60e51b815260206004820152601760248201527f6d696e74696e67206e6f7420616c6c6f7765642079657400000000000000000060448201526064016106ab565b61159d426301e133806120d4565b6009555050565b610f4f8282611a33565b6001600160a01b038281166000818152600660208181526040808420805485845282862054949093528787166001600160a01b03198416811790915590519190951694919391928592917f3134e8a2e6d97e929a7e54011ea5485d7d196dd5f0ba4d4ef95803e8e3fc257f9190a4610e628284836118db565b60006001600160601b03821115610fc85760405162461bcd60e51b815260206004820152602660248201527f53616665436173743a2076616c756520646f65736e27742066697420696e203960448201526536206269747360d01b60648201526084016106ab565b600061083a61169c611367565b8360405161190160f01b6020820152602281018390526042810182905260009060620160405160208183030381529060405280519060200120905092915050565b60008060006116ee87878787611a4b565b915091506116fb81611b38565b5095945050505050565b6001600160a01b03811660009081526005602052604090208054600181018255905b50919050565b825460009081908015611786578561174660018361212b565b8154811061176457634e487b7160e01b600052603260045260246000fd5b60009182526020909120015464010000000090046001600160e01b0316611789565b60005b6001600160e01b031692506117a283858763ffffffff16565b91506000811180156117ee575043866117bc60018461212b565b815481106117da57634e487b7160e01b600052603260045260246000fd5b60009182526020909120015463ffffffff16145b1561185c576117fc82610f5f565b8661180860018461212b565b8154811061182657634e487b7160e01b600052603260045260246000fd5b9060005260206000200160000160046101000a8154816001600160e01b0302191690836001600160e01b031602179055506118c7565b85604051806040016040528061187143610fcc565b63ffffffff16815260200161188585610f5f565b6001600160e01b0390811690915282546001810184556000938452602093849020835194909301519091166401000000000263ffffffff909316929092179101555b50935093915050565b6108d5838383611031565b816001600160a01b0316836001600160a01b0316141580156118fd5750600081115b156108d5576001600160a01b0383161561198b576001600160a01b03831660009081526007602052604081208190611938906110638561172d565b91509150846001600160a01b03167fdec2bacdd2f05b59de34da9b523dff8be42e5e38e818c82fdb0bae774387a7248383604051611980929190918252602082015260400190565b60405180910390a250505b6001600160a01b038216156108d5576001600160a01b038216600090815260076020526040812081906119c190610f538561172d565b91509150836001600160a01b03167fdec2bacdd2f05b59de34da9b523dff8be42e5e38e818c82fdb0bae774387a7248383604051611a09929190918252602082015260400190565b60405180910390a25050505050565b6000611a2760028484186120ec565b61078a908484166120d4565b611a3d8282611d39565b610e6260086110638361172d565b6000807f7fffffffffffffffffffffffffffffff5d576e7357a4501ddfe92f46681b20a0831115611a825750600090506003611b2f565b8460ff16601b14158015611a9a57508460ff16601c14155b15611aab5750600090506004611b2f565b6040805160008082526020820180845289905260ff881692820192909252606081018690526080810185905260019060a0016020604051602081039080840390855afa158015611aff573d6000803e3d6000fd5b5050604051601f1901519150506001600160a01b038116611b2857600060019250925050611b2f565b9150600090505b94509492505050565b6000816004811115611b5a57634e487b7160e01b600052602160045260246000fd5b1415611b635750565b6001816004811115611b8557634e487b7160e01b600052602160045260246000fd5b1415611bd35760405162461bcd60e51b815260206004820152601860248201527f45434453413a20696e76616c6964207369676e6174757265000000000000000060448201526064016106ab565b6002816004811115611bf557634e487b7160e01b600052602160045260246000fd5b1415611c435760405162461bcd60e51b815260206004820152601f60248201527f45434453413a20696e76616c6964207369676e6174757265206c656e6774680060448201526064016106ab565b6003816004811115611c6557634e487b7160e01b600052602160045260246000fd5b1415611cbe5760405162461bcd60e51b815260206004820152602260248201527f45434453413a20696e76616c6964207369676e6174757265202773272076616c604482015261756560f01b60648201526084016106ab565b6004816004811115611ce057634e487b7160e01b600052602160045260246000fd5b141561080b5760405162461bcd60e51b815260206004820152602260248201527f45434453413a20696e76616c6964207369676e6174757265202776272076616c604482015261756560f01b60648201526084016106ab565b6001600160a01b038216611d995760405162461bcd60e51b815260206004820152602160248201527f45524332303a206275726e2066726f6d20746865207a65726f206164647265736044820152607360f81b60648201526084016106ab565b6001600160a01b03821660009081526020819052604090205481811015611e0d5760405162461bcd60e51b815260206004820152602260248201527f45524332303a206275726e20616d6f756e7420657863656564732062616c616e604482015261636560f01b60648201526084016106ab565b6001600160a01b0383166000908152602081905260408120838303905560028054849290611e3c90849061212b565b90915550506040518281526000906001600160a01b038516907fddf252ad1be2c89b69c2b068fc378daa952ba7f163c4a11628f55a4df523b3ef9060200160405180910390a36108d5836000846118d0565b80356001600160a01b0381168114611ea557600080fd5b919050565b803560ff81168114611ea557600080fd5b600060208284031215611ecc578081fd5b61078a82611e8e565b60008060408385031215611ee7578081fd5b611ef083611e8e565b9150611efe60208401611e8e565b90509250929050565b600080600060608486031215611f1b578081fd5b611f2484611e8e565b9250611f3260208501611e8e565b9150604084013590509250925092565b600080600080600080600060e0888a031215611f5c578283fd5b611f6588611e8e565b9650611f7360208901611e8e565b95506040880135945060608801359350611f8f60808901611eaa565b925060a0880135915060c0880135905092959891949750929550565b60008060408385031215611fbd578182fd5b611fc683611e8e565b946020939093013593505050565b60008060008060008060c08789031215611fec578182fd5b611ff587611e8e565b9550602087013594506040870135935061201160608801611eaa565b92506080870135915060a087013590509295509295509295565b6000806040838503121561203d578182fd5b61204683611e8e565b9150602083013563ffffffff8116811461205e578182fd5b809150509250929050565b60006020828403121561207a578081fd5b5035919050565b6000602080835283518082850152825b818110156120ad57858101830151858201604001528201612091565b818111156120be5783604083870101525b50601f01601f1916929092016040019392505050565b600082198211156120e7576120e7612177565b500190565b60008261210757634e487b7160e01b81526012600452602481fd5b500490565b600081600019048311821515161561212657612126612177565b500290565b60008282101561213d5761213d612177565b500390565b600181811c9082168061215657607f821691505b6020821081141561172757634e487b7160e01b600052602260045260246000fd5b634e487b7160e01b600052601160045260246000fdfea26469706673582212207307becfb434fb659812f5a1a5b4843f94114e60c94dfae2cdeba034da8ba8eb64736f6c63430008040033dec2bacdd2f05b59de34da9b523dff8be42e5e38e818c82fdb0bae774387a724",
  "linkReferences": {},
  "deployedLinkReferences": {}
}