{
  "_format": "hh-sol-artifact-1",
  "contractName": "CreditLimitByMedian",
  "sourceName": "contracts/user/CreditLimitByMedian.sol",
  "abi": [
    {
      "inputs": [
        {
          "internalType": "uint256",
          "name": "effectiveNumber_",
          "type": "uint256"
        }
      ],
      "stateMutability": "nonpayable",
      "type": "constructor"
    },
    {
      "anonymous": false,
      "inputs": [
        {
          "indexed": true,
          "internalType": "address",
          "name": "previousOwner",
          "type": "address"
        },
        {
          "indexed": true,
          "internalType": "address",
          "name": "newOwner",
          "type": "address"
        }
      ],
      "name": "OwnershipTransferred",
      "type": "event"
    },
    {
      "inputs": [],
      "name": "effectiveNumber",
      "outputs": [
        {
          "internalType": "uint256",
          "name": "",
          "type": "uint256"
        }
      ],
      "stateMutability": "view",
      "type": "function"
    },
    {
      "inputs": [
        {
          "internalType": "uint256[]",
          "name": "vouchs",
          "type": "uint256[]"
        }
      ],
      "name": "getCreditLimit",
      "outputs": [
        {
          "internalType": "uint256",
          "name": "",
          "type": "uint256"
        }
      ],
      "stateMutability": "view",
      "type": "function"
    },
    {
      "inputs": [
        {
          "components": [
            {
              "internalType": "address",
              "name": "staker",
              "type": "address"
            },
            {
              "internalType": "uint256",
              "name": "vouchingAmount",
              "type": "uint256"
            },
            {
              "internalType": "uint256",
              "name": "lockedAmount",
              "type": "uint256"
            },
            {
              "internalType": "uint256",
              "name": "availableStakingAmount",
              "type": "uint256"
            }
          ],
          "internalType": "struct ICreditLimitModel.LockedInfo[]",
          "name": "array",
          "type": "tuple[]"
        },
        {
          "internalType": "address",
          "name": "account",
          "type": "address"
        },
        {
          "internalType": "uint256",
          "name": "amount",
          "type": "uint256"
        },
        {
          "internalType": "bool",
          "name": "isIncrease",
          "type": "bool"
        }
      ],
      "name": "getLockedAmount",
      "outputs": [
        {
          "internalType": "uint256",
          "name": "",
          "type": "uint256"
        }
      ],
      "stateMutability": "pure",
      "type": "function"
    },
    {
      "inputs": [],
      "name": "isCreditLimitModel",
      "outputs": [
        {
          "internalType": "bool",
          "name": "",
          "type": "bool"
        }
      ],
      "stateMutability": "view",
      "type": "function"
    },
    {
      "inputs": [],
      "name": "owner",
      "outputs": [
        {
          "internalType": "address",
          "name": "",
          "type": "address"
        }
      ],
      "stateMutability": "view",
      "type": "function"
    },
    {
      "inputs": [],
      "name": "renounceOwnership",
      "outputs": [],
      "stateMutability": "nonpayable",
      "type": "function"
    },
    {
      "inputs": [
        {
          "internalType": "uint256",
          "name": "number",
          "type": "uint256"
        }
      ],
      "name": "setEffectNumber",
      "outputs": [],
      "stateMutability": "nonpayable",
      "type": "function"
    },
    {
      "inputs": [
        {
          "internalType": "address",
          "name": "newOwner",
          "type": "address"
        }
      ],
      "name": "transferOwnership",
      "outputs": [],
      "stateMutability": "nonpayable",
      "type": "function"
    }
  ],
  "bytecode": "0x608060405234801561001057600080fd5b50604051610d04380380610d0483398101604081905261002f91610090565b61003833610040565b6001556100a8565b600080546001600160a01b038381166001600160a01b0319831681178455604051919092169283917f8be0079c531659141344cd1fd0a4f28419497f9722a3daafe3b4186f6b6457e09190a35050565b6000602082840312156100a1578081fd5b5051919050565b610c4d806100b76000396000f3fe608060405234801561001057600080fd5b50600436106100885760003560e01c80638da5cb5b1161005b5780638da5cb5b146100d9578063a0d9987b146100f4578063b0db493014610107578063f2fde38b1461011f57600080fd5b80634c9cc6731461008d57806351118cfb146100b3578063715018a6146100bc578063747bcf8f146100c6575b600080fd5b6100a061009b366004610a05565b610132565b6040519081526020015b60405180910390f35b6100a060015481565b6100c461015a565b005b6100c46100d4366004610a98565b610199565b6000546040516001600160a01b0390911681526020016100aa565b6100a0610102366004610904565b6101c8565b61010f600181565b60405190151581526020016100aa565b6100c461012d3660046108ea565b61056b565b600060015482511061014d5761014782610606565b92915050565b506000919050565b919050565b6000546001600160a01b0316331461018d5760405162461bcd60e51b815260040161018490610ab0565b60405180910390fd5b61019760006106f7565b565b6000546001600160a01b031633146101c35760405162461bcd60e51b815260040161018490610ab0565b600155565b60008451600014156101dc57506000610563565b600082156104795760005b865181101561047357600087828151811061021257634e487b7160e01b600052603260045260246000fd5b60200260200101516040015188838151811061023e57634e487b7160e01b600052603260045260246000fd5b60200260200101516020015111156102b95787828151811061027057634e487b7160e01b600052603260045260246000fd5b60200260200101516040015188838151811061029c57634e487b7160e01b600052603260045260246000fd5b6020026020010151602001516102b29190610b8f565b90506102bd565b5060005b8782815181106102dd57634e487b7160e01b600052603260045260246000fd5b6020026020010151606001518111156103ad578588838151811061031157634e487b7160e01b600052603260045260246000fd5b6020026020010151606001511115610361578588838151811061034457634e487b7160e01b600052603260045260246000fd5b60200260200101516040015161035a9190610b63565b9250610410565b87828151811061038157634e487b7160e01b600052603260045260246000fd5b60200260200101516060015188838151811061034457634e487b7160e01b600052603260045260246000fd5b858111156103d6578588838151811061034457634e487b7160e01b600052603260045260246000fd5b808883815181106103f757634e487b7160e01b600052603260045260246000fd5b60200260200101516040015161040d9190610b63565b92505b87828151811061043057634e487b7160e01b600052603260045260246000fd5b6020026020010151600001516001600160a01b0316876001600160a01b0316141561046057829350505050610563565b508061046b81610ba6565b9150506101e7565b5061055d565b60005b865181101561055b57848782815181106104a657634e487b7160e01b600052603260045260246000fd5b60200260200101516040015111156104f75760018782815181106104da57634e487b7160e01b600052603260045260246000fd5b6020026020010151604001516104f09190610b8f565b91506104fc565b600091505b86818151811061051c57634e487b7160e01b600052603260045260246000fd5b6020026020010151600001516001600160a01b0316866001600160a01b0316141561054957509050610563565b8061055381610ba6565b91505061047c565b505b60009150505b949350505050565b6000546001600160a01b031633146105955760405162461bcd60e51b815260040161018490610ab0565b6001600160a01b0381166105fa5760405162461bcd60e51b815260206004820152602660248201527f4f776e61626c653a206e6577206f776e657220697320746865207a65726f206160448201526564647265737360d01b6064820152608401610184565b610603816106f7565b50565b60008061061283610747565b90508051600014156106275750600092915050565b600281516106359190610bc1565b6106c25760008160018351901c8151811061066057634e487b7160e01b600052603260045260246000fd5b602002602001015190506000826001808551901c61067e9190610b8f565b8151811061069c57634e487b7160e01b600052603260045260246000fd5b602002602001015190506106b981836108a190919063ffffffff16565b95945050505050565b8060018251901c815181106106e757634e487b7160e01b600052603260045260246000fd5b6020026020010151915050919050565b600080546001600160a01b038381166001600160a01b0319831681178455604051919092169283917f8be0079c531659141344cd1fd0a4f28419497f9722a3daafe3b4186f6b6457e09190a35050565b805160609060005b81811015610899576000610764826001610b63565b90505b828110156108865784818151811061078f57634e487b7160e01b600052603260045260246000fd5b60200260200101518583815181106107b757634e487b7160e01b600052603260045260246000fd5b602002602001015110156108745760008582815181106107e757634e487b7160e01b600052603260045260246000fd5b6020026020010151905085838151811061081157634e487b7160e01b600052603260045260246000fd5b602002602001015186838151811061083957634e487b7160e01b600052603260045260246000fd5b6020026020010181815250508086848151811061086657634e487b7160e01b600052603260045260246000fd5b602002602001018181525050505b8061087e81610ba6565b915050610767565b508061089181610ba6565b91505061074f565b509192915050565b60006108b06002848418610b7b565b6108bc90848416610b63565b9392505050565b80356001600160a01b038116811461015557600080fd5b8035801515811461015557600080fd5b6000602082840312156108fb578081fd5b6108bc826108c3565b600080600080608080868803121561091a578384fd5b853567ffffffffffffffff811115610930578485fd5b8601601f81018813610940578485fd5b8035602061095561095083610b3f565b610b0e565b8083825282820191508285018c848660071b880101111561097457898afd5b8995505b848610156109d15786818e03121561098e57898afd5b610996610ae5565b61099f826108c3565b815281850135858201526040808301359082015260608083013590820152835260019590950194918301918601610978565b5098506109e190508982016108c3565b965050505050604085013591506109fa606086016108da565b905092959194509250565b60006020808385031215610a17578182fd5b823567ffffffffffffffff811115610a2d578283fd5b8301601f81018513610a3d578283fd5b8035610a4b61095082610b3f565b80828252848201915084840188868560051b8701011115610a6a578687fd5b8694505b83851015610a8c578035835260019490940193918501918501610a6e565b50979650505050505050565b600060208284031215610aa9578081fd5b5035919050565b6020808252818101527f4f776e61626c653a2063616c6c6572206973206e6f7420746865206f776e6572604082015260600190565b6040516080810167ffffffffffffffff81118282101715610b0857610b08610c01565b60405290565b604051601f8201601f1916810167ffffffffffffffff81118282101715610b3757610b37610c01565b604052919050565b600067ffffffffffffffff821115610b5957610b59610c01565b5060051b60200190565b60008219821115610b7657610b76610bd5565b500190565b600082610b8a57610b8a610beb565b500490565b600082821015610ba157610ba1610bd5565b500390565b6000600019821415610bba57610bba610bd5565b5060010190565b600082610bd057610bd0610beb565b500690565b634e487b7160e01b600052601160045260246000fd5b634e487b7160e01b600052601260045260246000fd5b634e487b7160e01b600052604160045260246000fdfea2646970667358221220a2867f49ecaacb5157e887aa797bc828762d6ec937cccd41b3db22fbcccbf49c64736f6c63430008040033",
  "linkReferences": {},
  "deployedLinkReferences": {}
}