{
  "_format": "hh-sol-artifact-1",
  "contractName": "LivepeerTokenFaucet",
  "sourceName": "contracts/token/LivepeerTokenFaucet.sol",
  "abi": [
    {
      "constant": true,
      "inputs": [],
      "name": "requestWait",
      "outputs": [
        {
          "internalType": "uint256",
          "name": "",
          "type": "uint256"
        }
      ],
      "payable": false,
      "stateMutability": "view",
      "type": "function"
    },
    {
      "constant": true,
      "inputs": [
        {
          "internalType": "address",
          "name": "",
          "type": "address"
        }
      ],
      "name": "nextValidRequest",
      "outputs": [
        {
          "internalType": "uint256",
          "name": "",
          "type": "uint256"
        }
      ],
      "payable": false,
      "stateMutability": "view",
      "type": "function"
    },
    {
      "constant": false,
      "inputs": [],
      "name": "request",
      "outputs": [],
      "payable": false,
      "stateMutability": "nonpayable",
      "type": "function"
    },
    {
      "constant": true,
      "inputs": [
        {
          "internalType": "address",
          "name": "",
          "type": "address"
        }
      ],
      "name": "isWhitelisted",
      "outputs": [
        {
          "internalType": "bool",
          "name": "",
          "type": "bool"
        }
      ],
      "payable": false,
      "stateMutability": "view",
      "type": "function"
    },
    {
      "constant": false,
      "inputs": [
        {
          "internalType": "address",
          "name": "_addr",
          "type": "address"
        }
      ],
      "name": "removeFromWhitelist",
      "outputs": [],
      "payable": false,
      "stateMutability": "nonpayable",
      "type": "function"
    },
    {
      "constant": true,
      "inputs": [],
      "name": "owner",
      "outputs": [
        {
          "internalType": "address",
          "name": "",
          "type": "address"
        }
      ],
      "payable": false,
      "stateMutability": "view",
      "type": "function"
    },
    {
      "constant": false,
      "inputs": [
        {
          "internalType": "address",
          "name": "_addr",
          "type": "address"
        }
      ],
      "name": "addToWhitelist",
      "outputs": [],
      "payable": false,
      "stateMutability": "nonpayable",
      "type": "function"
    },
    {
      "constant": false,
      "inputs": [
        {
          "internalType": "address",
          "name": "newOwner",
          "type": "address"
        }
      ],
      "name": "transferOwnership",
      "outputs": [],
      "payable": false,
      "stateMutability": "nonpayable",
      "type": "function"
    },
    {
      "constant": true,
      "inputs": [],
      "name": "requestAmount",
      "outputs": [
        {
          "internalType": "uint256",
          "name": "",
          "type": "uint256"
        }
      ],
      "payable": false,
      "stateMutability": "view",
      "type": "function"
    },
    {
      "constant": true,
      "inputs": [],
      "name": "token",
      "outputs": [
        {
          "internalType": "contract ILivepeerToken",
          "name": "",
          "type": "address"
        }
      ],
      "payable": false,
      "stateMutability": "view",
      "type": "function"
    },
    {
      "inputs": [
        {
          "internalType": "address",
          "name": "_token",
          "type": "address"
        },
        {
          "internalType": "uint256",
          "name": "_requestAmount",
          "type": "uint256"
        },
        {
          "internalType": "uint256",
          "name": "_requestWait",
          "type": "uint256"
        }
      ],
      "payable": false,
      "stateMutability": "nonpayable",
      "type": "constructor"
    },
    {
      "anonymous": false,
      "inputs": [
        {
          "indexed": true,
          "internalType": "address",
          "name": "to",
          "type": "address"
        },
        {
          "indexed": false,
          "internalType": "uint256",
          "name": "amount",
          "type": "uint256"
        }
      ],
      "name": "Request",
      "type": "event"
    },
    {
      "anonymous": false,
      "inputs": [
        {
          "indexed": true,
          "internalType": "address",
          "name": "previousOwner",
          "type": "address"
        },
        {
          "indexed": true,
          "internalType": "address",
          "name": "newOwner",
          "type": "address"
        }
      ],
      "name": "OwnershipTransferred",
      "type": "event"
    }
  ],
  "bytecode": "0x608060405234801561001057600080fd5b506040516104fa3803806104fa8339818101604052606081101561003357600080fd5b5080516020820151604090920151600080546001600160a01b03199081163317909155600180546001600160a01b039094169390911692909217909155600291909155600355610472806100886000396000f3fe608060405234801561001057600080fd5b506004361061009e5760003560e01c80638da5cb5b116100665780638da5cb5b1461014d578063e43252d714610171578063f2fde38b14610197578063f52ec46c146101bd578063fc0c546a146101c55761009e565b80630d6c51b3146100a3578063207f5ce6146100bd578063338cdca1146100e35780633af32abf146100ed5780638ab1d68114610127575b600080fd5b6100ab6101cd565b60408051918252519081900360200190f35b6100ab600480360360208110156100d357600080fd5b50356001600160a01b03166101d3565b6100eb6101e5565b005b6101136004803603602081101561010357600080fd5b50356001600160a01b031661030c565b604080519115158252519081900360200190f35b6100eb6004803603602081101561013d57600080fd5b50356001600160a01b0316610321565b610155610359565b604080516001600160a01b039092168252519081900360200190f35b6100eb6004803603602081101561018757600080fd5b50356001600160a01b0316610368565b6100eb600480360360208110156101ad57600080fd5b50356001600160a01b03166103a3565b6100ab610428565b61015561042e565b60035481565b60046020526000908152604090205481565b3360009081526005602052604090205460ff16806102125750336000908152600460205260409020544210155b61021b57600080fd5b3360009081526005602052604090205460ff1661024f57600354336000908152600460205260409020610e10909102420190555b6001546002546040805163a9059cbb60e01b81523360048201526024810192909252516001600160a01b039092169163a9059cbb916044808201926020929091908290030181600087803b1580156102a657600080fd5b505af11580156102ba573d6000803e3d6000fd5b505050506040513d60208110156102d057600080fd5b5050600254604080519182525133917fe31c60e37ab1301f69f01b436a1d13486e6c16cc22c888a08c0e64a39230b6ac919081900360200190a2565b60056020526000908152604090205460ff1681565b6000546001600160a01b0316331461033857600080fd5b6001600160a01b03166000908152600560205260409020805460ff19169055565b6000546001600160a01b031681565b6000546001600160a01b0316331461037f57600080fd5b6001600160a01b03166000908152600560205260409020805460ff19166001179055565b6000546001600160a01b031633146103ba57600080fd5b6001600160a01b0381166103cd57600080fd5b600080546040516001600160a01b03808516939216917f8be0079c531659141344cd1fd0a4f28419497f9722a3daafe3b4186f6b6457e091a3600080546001600160a01b0319166001600160a01b0392909216919091179055565b60025481565b6001546001600160a01b03168156fea265627a7a7231582068c2891823df1397ad0abb42b56509f7c6c006c93a6ad19916c8a2f4eef4a67c64736f6c634300050b0032",
  "linkReferences": {},
  "deployedLinkReferences": {}
}