{
  "_format": "hh-sol-artifact-1",
  "contractName": "UToken",
  "sourceName": "contracts/market/UToken.sol",
  "abi": [
    {
      "anonymous": false,
      "inputs": [
        {
          "indexed": false,
          "internalType": "address",
          "name": "previousAdmin",
          "type": "address"
        },
        {
          "indexed": false,
          "internalType": "address",
          "name": "newAdmin",
          "type": "address"
        }
      ],
      "name": "AdminChanged",
      "type": "event"
    },
    {
      "anonymous": false,
      "inputs": [
        {
          "indexed": true,
          "internalType": "address",
          "name": "beacon",
          "type": "address"
        }
      ],
      "name": "BeaconUpgraded",
      "type": "event"
    },
    {
      "anonymous": false,
      "inputs": [
        {
          "indexed": true,
          "internalType": "address",
          "name": "account",
          "type": "address"
        },
        {
          "indexed": false,
          "internalType": "uint256",
          "name": "amount",
          "type": "uint256"
        },
        {
          "indexed": false,
          "internalType": "uint256",
          "name": "fee",
          "type": "uint256"
        }
      ],
      "name": "LogBorrow",
      "type": "event"
    },
    {
      "anonymous": false,
      "inputs": [
        {
          "indexed": false,
          "internalType": "address",
          "name": "minter",
          "type": "address"
        },
        {
          "indexed": false,
          "internalType": "uint256",
          "name": "underlyingAmount",
          "type": "uint256"
        },
        {
          "indexed": false,
          "internalType": "uint256",
          "name": "uTokenAmount",
          "type": "uint256"
        }
      ],
      "name": "LogMint",
      "type": "event"
    },
    {
      "anonymous": false,
      "inputs": [
        {
          "indexed": false,
          "internalType": "address",
          "name": "oldInterestRateModel",
          "type": "address"
        },
        {
          "indexed": false,
          "internalType": "address",
          "name": "newInterestRateModel",
          "type": "address"
        }
      ],
      "name": "LogNewMarketInterestRateModel",
      "type": "event"
    },
    {
      "anonymous": false,
      "inputs": [
        {
          "indexed": false,
          "internalType": "address",
          "name": "redeemer",
          "type": "address"
        },
        {
          "indexed": false,
          "internalType": "uint256",
          "name": "redeemTokensIn",
          "type": "uint256"
        },
        {
          "indexed": false,
          "internalType": "uint256",
          "name": "redeemAmountIn",
          "type": "uint256"
        },
        {
          "indexed": false,
          "internalType": "uint256",
          "name": "redeemAmount",
          "type": "uint256"
        }
      ],
      "name": "LogRedeem",
      "type": "event"
    },
    {
      "anonymous": false,
      "inputs": [
        {
          "indexed": true,
          "internalType": "address",
          "name": "account",
          "type": "address"
        },
        {
          "indexed": false,
          "internalType": "uint256",
          "name": "amount",
          "type": "uint256"
        }
      ],
      "name": "LogRepay",
      "type": "event"
    },
    {
      "anonymous": false,
      "inputs": [
        {
          "indexed": false,
          "internalType": "address",
          "name": "reserver",
          "type": "address"
        },
        {
          "indexed": false,
          "internalType": "uint256",
          "name": "actualAddAmount",
          "type": "uint256"
        },
        {
          "indexed": false,
          "internalType": "uint256",
          "name": "totalReservesNew",
          "type": "uint256"
        }
      ],
      "name": "LogReservesAdded",
      "type": "event"
    },
    {
      "anonymous": false,
      "inputs": [
        {
          "indexed": false,
          "internalType": "address",
          "name": "receiver",
          "type": "address"
        },
        {
          "indexed": false,
          "internalType": "uint256",
          "name": "reduceAmount",
          "type": "uint256"
        },
        {
          "indexed": false,
          "internalType": "uint256",
          "name": "totalReservesNew",
          "type": "uint256"
        }
      ],
      "name": "LogReservesReduced",
      "type": "event"
    },
    {
      "anonymous": false,
      "inputs": [
        {
          "indexed": false,
          "internalType": "address",
          "name": "account",
          "type": "address"
        }
      ],
      "name": "Paused",
      "type": "event"
    },
    {
      "anonymous": false,
      "inputs": [
        {
          "indexed": true,
          "internalType": "bytes32",
          "name": "role",
          "type": "bytes32"
        },
        {
          "indexed": true,
          "internalType": "bytes32",
          "name": "previousAdminRole",
          "type": "bytes32"
        },
        {
          "indexed": true,
          "internalType": "bytes32",
          "name": "newAdminRole",
          "type": "bytes32"
        }
      ],
      "name": "RoleAdminChanged",
      "type": "event"
    },
    {
      "anonymous": false,
      "inputs": [
        {
          "indexed": true,
          "internalType": "bytes32",
          "name": "role",
          "type": "bytes32"
        },
        {
          "indexed": true,
          "internalType": "address",
          "name": "account",
          "type": "address"
        },
        {
          "indexed": true,
          "internalType": "address",
          "name": "sender",
          "type": "address"
        }
      ],
      "name": "RoleGranted",
      "type": "event"
    },
    {
      "anonymous": false,
      "inputs": [
        {
          "indexed": true,
          "internalType": "bytes32",
          "name": "role",
          "type": "bytes32"
        },
        {
          "indexed": true,
          "internalType": "address",
          "name": "account",
          "type": "address"
        },
        {
          "indexed": true,
          "internalType": "address",
          "name": "sender",
          "type": "address"
        }
      ],
      "name": "RoleRevoked",
      "type": "event"
    },
    {
      "anonymous": false,
      "inputs": [
        {
          "indexed": false,
          "internalType": "address",
          "name": "account",
          "type": "address"
        }
      ],
      "name": "Unpaused",
      "type": "event"
    },
    {
      "anonymous": false,
      "inputs": [
        {
          "indexed": true,
          "internalType": "address",
          "name": "implementation",
          "type": "address"
        }
      ],
      "name": "Upgraded",
      "type": "event"
    },
    {
      "inputs": [],
      "name": "DEFAULT_ADMIN_ROLE",
      "outputs": [
        {
          "internalType": "bytes32",
          "name": "",
          "type": "bytes32"
        }
      ],
      "stateMutability": "view",
      "type": "function"
    },
    {
      "inputs": [],
      "name": "IS_UTOKEN",
      "outputs": [
        {
          "internalType": "bool",
          "name": "",
          "type": "bool"
        }
      ],
      "stateMutability": "view",
      "type": "function"
    },
    {
      "inputs": [],
      "name": "ROLE_ADMIN",
      "outputs": [
        {
          "internalType": "bytes32",
          "name": "",
          "type": "bytes32"
        }
      ],
      "stateMutability": "view",
      "type": "function"
    },
    {
      "inputs": [],
      "name": "WAD",
      "outputs": [
        {
          "internalType": "uint256",
          "name": "",
          "type": "uint256"
        }
      ],
      "stateMutability": "view",
      "type": "function"
    },
    {
      "inputs": [
        {
          "internalType": "address",
          "name": "admin_",
          "type": "address"
        }
      ],
      "name": "__Controller_init",
      "outputs": [],
      "stateMutability": "nonpayable",
      "type": "function"
    },
    {
      "inputs": [
        {
          "internalType": "contract IUErc20",
          "name": "uErc20_",
          "type": "address"
        },
        {
          "internalType": "address",
          "name": "underlying_",
          "type": "address"
        },
        {
          "internalType": "uint256",
          "name": "initialExchangeRateMantissa_",
          "type": "uint256"
        },
        {
          "internalType": "uint256",
          "name": "reserveFactorMantissa_",
          "type": "uint256"
        },
        {
          "internalType": "uint256",
          "name": "originationFee_",
          "type": "uint256"
        },
        {
          "internalType": "uint256",
          "name": "debtCeiling_",
          "type": "uint256"
        },
        {
          "internalType": "uint256",
          "name": "maxBorrow_",
          "type": "uint256"
        },
        {
          "internalType": "uint256",
          "name": "minBorrow_",
          "type": "uint256"
        },
        {
          "internalType": "uint256",
          "name": "overdueBlocks_",
          "type": "uint256"
        },
        {
          "internalType": "address",
          "name": "admin_",
          "type": "address"
        }
      ],
      "name": "__UToken_init",
      "outputs": [],
      "stateMutability": "nonpayable",
      "type": "function"
    },
    {
      "inputs": [],
      "name": "accrualBlockNumber",
      "outputs": [
        {
          "internalType": "uint256",
          "name": "",
          "type": "uint256"
        }
      ],
      "stateMutability": "view",
      "type": "function"
    },
    {
      "inputs": [],
      "name": "accrueInterest",
      "outputs": [
        {
          "internalType": "bool",
          "name": "",
          "type": "bool"
        }
      ],
      "stateMutability": "nonpayable",
      "type": "function"
    },
    {
      "inputs": [
        {
          "internalType": "address",
          "name": "account",
          "type": "address"
        }
      ],
      "name": "addAdmin",
      "outputs": [],
      "stateMutability": "nonpayable",
      "type": "function"
    },
    {
      "inputs": [
        {
          "internalType": "uint256",
          "name": "addAmount",
          "type": "uint256"
        }
      ],
      "name": "addReserves",
      "outputs": [],
      "stateMutability": "nonpayable",
      "type": "function"
    },
    {
      "inputs": [],
      "name": "assetManager",
      "outputs": [
        {
          "internalType": "address",
          "name": "",
          "type": "address"
        }
      ],
      "stateMutability": "view",
      "type": "function"
    },
    {
      "inputs": [
        {
          "internalType": "address",
          "name": "owner",
          "type": "address"
        }
      ],
      "name": "balanceOfUnderlying",
      "outputs": [
        {
          "internalType": "uint256",
          "name": "",
          "type": "uint256"
        }
      ],
      "stateMutability": "nonpayable",
      "type": "function"
    },
    {
      "inputs": [
        {
          "internalType": "address[]",
          "name": "accounts",
          "type": "address[]"
        }
      ],
      "name": "batchUpdateOverdueInfos",
      "outputs": [],
      "stateMutability": "nonpayable",
      "type": "function"
    },
    {
      "inputs": [
        {
          "internalType": "uint256",
          "name": "amount",
          "type": "uint256"
        }
      ],
      "name": "borrow",
      "outputs": [],
      "stateMutability": "nonpayable",
      "type": "function"
    },
    {
      "inputs": [
        {
          "internalType": "address",
          "name": "account",
          "type": "address"
        }
      ],
      "name": "borrowBalanceView",
      "outputs": [
        {
          "internalType": "uint256",
          "name": "",
          "type": "uint256"
        }
      ],
      "stateMutability": "view",
      "type": "function"
    },
    {
      "inputs": [],
      "name": "borrowIndex",
      "outputs": [
        {
          "internalType": "uint256",
          "name": "",
          "type": "uint256"
        }
      ],
      "stateMutability": "view",
      "type": "function"
    },
    {
      "inputs": [],
      "name": "borrowRatePerBlock",
      "outputs": [
        {
          "internalType": "uint256",
          "name": "",
          "type": "uint256"
        }
      ],
      "stateMutability": "view",
      "type": "function"
    },
    {
      "inputs": [
        {
          "internalType": "uint256",
          "name": "amount",
          "type": "uint256"
        }
      ],
      "name": "calculatingFee",
      "outputs": [
        {
          "internalType": "uint256",
          "name": "",
          "type": "uint256"
        }
      ],
      "stateMutability": "view",
      "type": "function"
    },
    {
      "inputs": [
        {
          "internalType": "address",
          "name": "account",
          "type": "address"
        }
      ],
      "name": "calculatingInterest",
      "outputs": [
        {
          "internalType": "uint256",
          "name": "",
          "type": "uint256"
        }
      ],
      "stateMutability": "view",
      "type": "function"
    },
    {
      "inputs": [
        {
          "internalType": "address",
          "name": "account",
          "type": "address"
        }
      ],
      "name": "checkIsOverdue",
      "outputs": [
        {
          "internalType": "bool",
          "name": "isOverdue",
          "type": "bool"
        }
      ],
      "stateMutability": "view",
      "type": "function"
    },
    {
      "inputs": [],
      "name": "debtCeiling",
      "outputs": [
        {
          "internalType": "uint256",
          "name": "",
          "type": "uint256"
        }
      ],
      "stateMutability": "view",
      "type": "function"
    },
    {
      "inputs": [
        {
          "internalType": "address",
          "name": "borrower",
          "type": "address"
        },
        {
          "internalType": "uint256",
          "name": "amount",
          "type": "uint256"
        }
      ],
      "name": "debtWriteOff",
      "outputs": [],
      "stateMutability": "nonpayable",
      "type": "function"
    },
    {
      "inputs": [],
      "name": "exchangeRateCurrent",
      "outputs": [
        {
          "internalType": "uint256",
          "name": "",
          "type": "uint256"
        }
      ],
      "stateMutability": "nonpayable",
      "type": "function"
    },
    {
      "inputs": [],
      "name": "exchangeRateStored",
      "outputs": [
        {
          "internalType": "uint256",
          "name": "",
          "type": "uint256"
        }
      ],
      "stateMutability": "view",
      "type": "function"
    },
    {
      "inputs": [
        {
          "internalType": "address",
          "name": "account",
          "type": "address"
        }
      ],
      "name": "getBorrowed",
      "outputs": [
        {
          "internalType": "uint256",
          "name": "borrowed",
          "type": "uint256"
        }
      ],
      "stateMutability": "view",
      "type": "function"
    },
    {
      "inputs": [
        {
          "internalType": "address",
          "name": "account",
          "type": "address"
        }
      ],
      "name": "getInterestIndex",
      "outputs": [
        {
          "internalType": "uint256",
          "name": "interestIndex",
          "type": "uint256"
        }
      ],
      "stateMutability": "view",
      "type": "function"
    },
    {
      "inputs": [
        {
          "internalType": "address",
          "name": "account",
          "type": "address"
        }
      ],
      "name": "getLastRepay",
      "outputs": [
        {
          "internalType": "uint256",
          "name": "lastRepay",
          "type": "uint256"
        }
      ],
      "stateMutability": "view",
      "type": "function"
    },
    {
      "inputs": [
        {
          "internalType": "address",
          "name": "member",
          "type": "address"
        }
      ],
      "name": "getLoan",
      "outputs": [
        {
          "internalType": "uint256",
          "name": "principal",
          "type": "uint256"
        },
        {
          "internalType": "uint256",
          "name": "totalBorrowed",
          "type": "uint256"
        },
        {
          "internalType": "address",
          "name": "asset",
          "type": "address"
        },
        {
          "internalType": "uint256",
          "name": "apr",
          "type": "uint256"
        },
        {
          "internalType": "int256",
          "name": "limit",
          "type": "int256"
        },
        {
          "internalType": "bool",
          "name": "isOverdue",
          "type": "bool"
        },
        {
          "internalType": "uint256",
          "name": "lastRepay",
          "type": "uint256"
        }
      ],
      "stateMutability": "view",
      "type": "function"
    },
    {
      "inputs": [],
      "name": "getRemainingLoanSize",
      "outputs": [
        {
          "internalType": "uint256",
          "name": "",
          "type": "uint256"
        }
      ],
      "stateMutability": "view",
      "type": "function"
    },
    {
      "inputs": [
        {
          "internalType": "bytes32",
          "name": "role",
          "type": "bytes32"
        }
      ],
      "name": "getRoleAdmin",
      "outputs": [
        {
          "internalType": "bytes32",
          "name": "",
          "type": "bytes32"
        }
      ],
      "stateMutability": "view",
      "type": "function"
    },
    {
      "inputs": [
        {
          "internalType": "bytes32",
          "name": "role",
          "type": "bytes32"
        },
        {
          "internalType": "address",
          "name": "account",
          "type": "address"
        }
      ],
      "name": "grantRole",
      "outputs": [],
      "stateMutability": "nonpayable",
      "type": "function"
    },
    {
      "inputs": [
        {
          "internalType": "bytes32",
          "name": "role",
          "type": "bytes32"
        },
        {
          "internalType": "address",
          "name": "account",
          "type": "address"
        }
      ],
      "name": "hasRole",
      "outputs": [
        {
          "internalType": "bool",
          "name": "",
          "type": "bool"
        }
      ],
      "stateMutability": "view",
      "type": "function"
    },
    {
      "inputs": [],
      "name": "interestRateModel",
      "outputs": [
        {
          "internalType": "contract IInterestRateModel",
          "name": "",
          "type": "address"
        }
      ],
      "stateMutability": "view",
      "type": "function"
    },
    {
      "inputs": [
        {
          "internalType": "address",
          "name": "account",
          "type": "address"
        }
      ],
      "name": "isAdmin",
      "outputs": [
        {
          "internalType": "bool",
          "name": "",
          "type": "bool"
        }
      ],
      "stateMutability": "view",
      "type": "function"
    },
    {
      "inputs": [],
      "name": "maxBorrow",
      "outputs": [
        {
          "internalType": "uint256",
          "name": "",
          "type": "uint256"
        }
      ],
      "stateMutability": "view",
      "type": "function"
    },
    {
      "inputs": [],
      "name": "minBorrow",
      "outputs": [
        {
          "internalType": "uint256",
          "name": "",
          "type": "uint256"
        }
      ],
      "stateMutability": "view",
      "type": "function"
    },
    {
      "inputs": [
        {
          "internalType": "uint256",
          "name": "mintAmount",
          "type": "uint256"
        }
      ],
      "name": "mint",
      "outputs": [],
      "stateMutability": "nonpayable",
      "type": "function"
    },
    {
      "inputs": [],
      "name": "originationFee",
      "outputs": [
        {
          "internalType": "uint256",
          "name": "",
          "type": "uint256"
        }
      ],
      "stateMutability": "view",
      "type": "function"
    },
    {
      "inputs": [],
      "name": "overdueBlocks",
      "outputs": [
        {
          "internalType": "uint256",
          "name": "",
          "type": "uint256"
        }
      ],
      "stateMutability": "view",
      "type": "function"
    },
    {
      "inputs": [],
      "name": "pause",
      "outputs": [],
      "stateMutability": "nonpayable",
      "type": "function"
    },
    {
      "inputs": [],
      "name": "pauseGuardian",
      "outputs": [
        {
          "internalType": "address",
          "name": "",
          "type": "address"
        }
      ],
      "stateMutability": "view",
      "type": "function"
    },
    {
      "inputs": [],
      "name": "paused",
      "outputs": [
        {
          "internalType": "bool",
          "name": "",
          "type": "bool"
        }
      ],
      "stateMutability": "view",
      "type": "function"
    },
    {
      "inputs": [
        {
          "internalType": "uint256",
          "name": "redeemTokens",
          "type": "uint256"
        }
      ],
      "name": "redeem",
      "outputs": [],
      "stateMutability": "nonpayable",
      "type": "function"
    },
    {
      "inputs": [
        {
          "internalType": "uint256",
          "name": "redeemAmount",
          "type": "uint256"
        }
      ],
      "name": "redeemUnderlying",
      "outputs": [],
      "stateMutability": "nonpayable",
      "type": "function"
    },
    {
      "inputs": [
        {
          "internalType": "address",
          "name": "receiver",
          "type": "address"
        },
        {
          "internalType": "uint256",
          "name": "reduceAmount",
          "type": "uint256"
        }
      ],
      "name": "removeReserves",
      "outputs": [],
      "stateMutability": "nonpayable",
      "type": "function"
    },
    {
      "inputs": [],
      "name": "renounceAdmin",
      "outputs": [],
      "stateMutability": "nonpayable",
      "type": "function"
    },
    {
      "inputs": [
        {
          "internalType": "bytes32",
          "name": "role",
          "type": "bytes32"
        },
        {
          "internalType": "address",
          "name": "account",
          "type": "address"
        }
      ],
      "name": "renounceRole",
      "outputs": [],
      "stateMutability": "nonpayable",
      "type": "function"
    },
    {
      "inputs": [
        {
          "internalType": "uint256",
          "name": "repayAmount",
          "type": "uint256"
        }
      ],
      "name": "repayBorrow",
      "outputs": [],
      "stateMutability": "nonpayable",
      "type": "function"
    },
    {
      "inputs": [
        {
          "internalType": "address",
          "name": "borrower",
          "type": "address"
        },
        {
          "internalType": "uint256",
          "name": "repayAmount",
          "type": "uint256"
        }
      ],
      "name": "repayBorrowBehalf",
      "outputs": [],
      "stateMutability": "nonpayable",
      "type": "function"
    },
    {
      "inputs": [
        {
          "internalType": "address",
          "name": "borrower",
          "type": "address"
        },
        {
          "internalType": "uint256",
          "name": "amount",
          "type": "uint256"
        },
        {
          "internalType": "uint256",
          "name": "nonce",
          "type": "uint256"
        },
        {
          "internalType": "uint256",
          "name": "expiry",
          "type": "uint256"
        },
        {
          "internalType": "uint8",
          "name": "v",
          "type": "uint8"
        },
        {
          "internalType": "bytes32",
          "name": "r",
          "type": "bytes32"
        },
        {
          "internalType": "bytes32",
          "name": "s",
          "type": "bytes32"
        }
      ],
      "name": "repayBorrowWithPermit",
      "outputs": [],
      "stateMutability": "nonpayable",
      "type": "function"
    },
    {
      "inputs": [],
      "name": "reserveFactorMantissa",
      "outputs": [
        {
          "internalType": "uint256",
          "name": "",
          "type": "uint256"
        }
      ],
      "stateMutability": "view",
      "type": "function"
    },
    {
      "inputs": [
        {
          "internalType": "bytes32",
          "name": "role",
          "type": "bytes32"
        },
        {
          "internalType": "address",
          "name": "account",
          "type": "address"
        }
      ],
      "name": "revokeRole",
      "outputs": [],
      "stateMutability": "nonpayable",
      "type": "function"
    },
    {
      "inputs": [
        {
          "internalType": "address",
          "name": "assetManager_",
          "type": "address"
        }
      ],
      "name": "setAssetManager",
      "outputs": [],
      "stateMutability": "nonpayable",
      "type": "function"
    },
    {
      "inputs": [
        {
          "internalType": "uint256",
          "name": "debtCeiling_",
          "type": "uint256"
        }
      ],
      "name": "setDebtCeiling",
      "outputs": [],
      "stateMutability": "nonpayable",
      "type": "function"
    },
    {
      "inputs": [
        {
          "internalType": "address",
          "name": "account",
          "type": "address"
        }
      ],
      "name": "setGuardian",
      "outputs": [],
      "stateMutability": "nonpayable",
      "type": "function"
    },
    {
      "inputs": [
        {
          "internalType": "address",
          "name": "newInterestRateModel",
          "type": "address"
        }
      ],
      "name": "setInterestRateModel",
      "outputs": [],
      "stateMutability": "nonpayable",
      "type": "function"
    },
    {
      "inputs": [
        {
          "internalType": "uint256",
          "name": "maxBorrow_",
          "type": "uint256"
        }
      ],
      "name": "setMaxBorrow",
      "outputs": [],
      "stateMutability": "nonpayable",
      "type": "function"
    },
    {
      "inputs": [
        {
          "internalType": "uint256",
          "name": "minBorrow_",
          "type": "uint256"
        }
      ],
      "name": "setMinBorrow",
      "outputs": [],
      "stateMutability": "nonpayable",
      "type": "function"
    },
    {
      "inputs": [
        {
          "internalType": "uint256",
          "name": "originationFee_",
          "type": "uint256"
        }
      ],
      "name": "setOriginationFee",
      "outputs": [],
      "stateMutability": "nonpayable",
      "type": "function"
    },
    {
      "inputs": [
        {
          "internalType": "uint256",
          "name": "overdueBlocks_",
          "type": "uint256"
        }
      ],
      "name": "setOverdueBlocks",
      "outputs": [],
      "stateMutability": "nonpayable",
      "type": "function"
    },
    {
      "inputs": [
        {
          "internalType": "uint256",
          "name": "reserveFactorMantissa_",
          "type": "uint256"
        }
      ],
      "name": "setReserveFactor",
      "outputs": [],
      "stateMutability": "nonpayable",
      "type": "function"
    },
    {
      "inputs": [
        {
          "internalType": "address",
          "name": "userManager_",
          "type": "address"
        }
      ],
      "name": "setUserManager",
      "outputs": [],
      "stateMutability": "nonpayable",
      "type": "function"
    },
    {
      "inputs": [],
      "name": "supplyRatePerBlock",
      "outputs": [
        {
          "internalType": "uint256",
          "name": "",
          "type": "uint256"
        }
      ],
      "stateMutability": "view",
      "type": "function"
    },
    {
      "inputs": [
        {
          "internalType": "bytes4",
          "name": "interfaceId",
          "type": "bytes4"
        }
      ],
      "name": "supportsInterface",
      "outputs": [
        {
          "internalType": "bool",
          "name": "",
          "type": "bool"
        }
      ],
      "stateMutability": "view",
      "type": "function"
    },
    {
      "inputs": [],
      "name": "totalBorrows",
      "outputs": [
        {
          "internalType": "uint256",
          "name": "",
          "type": "uint256"
        }
      ],
      "stateMutability": "view",
      "type": "function"
    },
    {
      "inputs": [],
      "name": "totalRedeemable",
      "outputs": [
        {
          "internalType": "uint256",
          "name": "",
          "type": "uint256"
        }
      ],
      "stateMutability": "view",
      "type": "function"
    },
    {
      "inputs": [],
      "name": "totalReserves",
      "outputs": [
        {
          "internalType": "uint256",
          "name": "",
          "type": "uint256"
        }
      ],
      "stateMutability": "view",
      "type": "function"
    },
    {
      "inputs": [],
      "name": "uErc20",
      "outputs": [
        {
          "internalType": "contract IUErc20",
          "name": "",
          "type": "address"
        }
      ],
      "stateMutability": "view",
      "type": "function"
    },
    {
      "inputs": [],
      "name": "underlying",
      "outputs": [
        {
          "internalType": "address",
          "name": "",
          "type": "address"
        }
      ],
      "stateMutability": "view",
      "type": "function"
    },
    {
      "inputs": [],
      "name": "unpause",
      "outputs": [],
      "stateMutability": "nonpayable",
      "type": "function"
    },
    {
      "inputs": [
        {
          "internalType": "address",
          "name": "account",
          "type": "address"
        }
      ],
      "name": "updateOverdueInfo",
      "outputs": [],
      "stateMutability": "nonpayable",
      "type": "function"
    },
    {
      "inputs": [
        {
          "internalType": "address",
          "name": "newImplementation",
          "type": "address"
        }
      ],
      "name": "upgradeTo",
      "outputs": [],
      "stateMutability": "nonpayable",
      "type": "function"
    },
    {
      "inputs": [
        {
          "internalType": "address",
          "name": "newImplementation",
          "type": "address"
        },
        {
          "internalType": "bytes",
          "name": "data",
          "type": "bytes"
        }
      ],
      "name": "upgradeToAndCall",
      "outputs": [],
      "stateMutability": "payable",
      "type": "function"
    },
    {
      "inputs": [],
      "name": "userManager",
      "outputs": [
        {
          "internalType": "address",
          "name": "",
          "type": "address"
        }
      ],
      "stateMutability": "view",
      "type": "function"
    }
  ],
  "bytecode": "0x60a06040523060601b60805234801561001757600080fd5b5060805160601c615a0c6200004c60003960008181611549015281816115890152818161185301526118930152615a0c6000f3fe6080604052600436106104315760003560e01c80636d2d1e5811610229578063a0712d681161012e578063bd6d894d116100b6578063e1c84ea41161007a578063e1c84ea414611084578063f3fdb15a1461109b578063f7763b3a146110bc578063f8f9da2814611116578063fb3b43f01461112b57600080fd5b8063bd6d894d14610fc0578063c5ebeaec14610fd5578063d391014b14610fff578063d547741f14611021578063db006a751461105a57600080fd5b8063ae9d70b0116100fd578063ae9d70b014610eb4578063b1511cc914610ec9578063b84dd68314610ef3578063b8845f7514610f70578063b8bb5c4214610fa957600080fd5b8063a0712d6814610e49578063a217fddf14610e73578063a6afed9514610e88578063aa5af0fd14610e9d57600080fd5b80638bad0c0a116101b15780638ff45d37116101805780638ff45d3714610d5657806391d1485414610d8957806394217ad114610dc257806397d0b02c14610de35780639b53307a14610e1657600080fd5b80638bad0c0a14610cc45780638bcd401614610cd95780638c2c351f14610d0c5780638f840ddd14610d3f57600080fd5b80637821a514116101f85780637821a51414610bfe5780637f2006a014610c285780638456cb5914610c52578063852a12e314610c675780638a0dac4a14610c9157600080fd5b80636d2d1e5814610b075780636f307dc314610b3a5780637048027514610b5b57806376a2e17b14610b8e57600080fd5b80633659cfe61161033a5780634f1ef286116102c2578063613ae34911610286578063613ae34914610a60578063626cca9e14610a775780636a14602414610aa15780636c461a7314610abd5780636c540baf14610af057600080fd5b80634f1ef286146108f75780635c8a7687146109ad5780635c975abb146109ce5780635f4cbedb146109e65780636011163e14610a1f57600080fd5b80633ffb54d1116103095780633ffb54d11461084d578063418f490914610877578063430602371461089857806347bd3718146108cb5780634c196bfb146108e257600080fd5b80633659cfe6146107a85780633af9e669146107db5780633bffb9a51461080e5780633f4ba83a1461083857600080fd5b8063248a9ca3116103bd5780632608f8181161038c5780632608f818146106715780632f2ff15d146106aa5780632fac0266146106e357806333481fc9146106fa57806336568abe1461076f57600080fd5b8063248a9ca31461057f57806324a3d622146105b957806324d7806c146105fa5780632592fb671461062d57600080fd5b8063182df0f511610404578063182df0f5146104ea5780631c446983146104ff5780631d54164b146105295780631edbcf6c1461055357806320bcc5591461056a57600080fd5b806301ffc9a7146104365780630cc0bfa51461047e5780630e752702146104a7578063173b9904146104d3575b600080fd5b34801561044257600080fd5b5061046a6004803603602081101561045957600080fd5b50356001600160e01b03191661116f565b604080519115158252519081900360200190f35b34801561048a57600080fd5b5061049561016d5481565b60408051918252519081900360200190f35b3480156104b357600080fd5b506104d1600480360360208110156104ca57600080fd5b50356111a6565b005b3480156104df57600080fd5b506104956101645481565b3480156104f657600080fd5b50610495611210565b34801561050b57600080fd5b506104d16004803603602081101561052257600080fd5b50356112c6565b34801561053557600080fd5b506104d16004803603602081101561054c57600080fd5b503561135d565b34801561055f57600080fd5b506104956101695481565b34801561057657600080fd5b5061046a600181565b34801561058b57600080fd5b50610495600480360360208110156105a257600080fd5b5035600090815260c9602052604090206001015490565b3480156105c557600080fd5b5060fc546105de9061010090046001600160a01b031681565b604080516001600160a01b039092168252519081900360200190f35b34801561060657600080fd5b5061046a6004803603602081101561061d57600080fd5b50356001600160a01b0316611397565b34801561063957600080fd5b506104956004803603602081101561065057600080fd5b50356001600160a01b03166000908152610172602052604090206003015490565b34801561067d57600080fd5b506104d16004803603604081101561069457600080fd5b506001600160a01b0381351690602001356113b1565b3480156106b657600080fd5b506104d1600480360360408110156106cd57600080fd5b50803590602001356001600160a01b0316611413565b3480156106ef57600080fd5b5061049561016e5481565b34801561070657600080fd5b5061072d6004803603602081101561071d57600080fd5b50356001600160a01b031661143e565b6040805197885260208801969096526001600160a01b039094168686015260608601929092526080850152151560a084015260c0830152519081900360e00190f35b34801561077b57600080fd5b506104d16004803603604081101561079257600080fd5b50803590602001356001600160a01b03166114c0565b3480156107b457600080fd5b506104d1600480360360208110156107cb57600080fd5b50356001600160a01b031661153e565b3480156107e757600080fd5b50610495600480360360208110156107fe57600080fd5b50356001600160a01b0316611607565b34801561081a57600080fd5b506104d16004803603602081101561083157600080fd5b5035611697565b34801561084457600080fd5b506104d16116d1565b34801561085957600080fd5b506104d16004803603602081101561087057600080fd5b503561178b565b34801561088357600080fd5b50610171546105de906001600160a01b031681565b3480156108a457600080fd5b506104d1600480360360208110156108bb57600080fd5b50356001600160a01b03166117c5565b3480156108d757600080fd5b506104956101675481565b3480156108ee57600080fd5b5061049561181c565b6104d16004803603604081101561090d57600080fd5b6001600160a01b03823516919081019060408101602082013564010000000081111561093857600080fd5b82018360208201111561094a57600080fd5b8035906020019184600183028401116401000000008311171561096c57600080fd5b91908080601f016020809104026020016040519081016040528093929190818152602001838380828437600092019190915250929550611848945050505050565b3480156109b957600080fd5b50610170546105de906001600160a01b031681565b3480156109da57600080fd5b5060fc5460ff1661046a565b3480156109f257600080fd5b506104d160048036036040811015610a0957600080fd5b506001600160a01b0381351690602001356118fe565b348015610a2b57600080fd5b5061049560048036036020811015610a4257600080fd5b50356001600160a01b03166000908152610172602052604090205490565b348015610a6c57600080fd5b5061049561016a5481565b348015610a8357600080fd5b5061049560048036036020811015610a9a57600080fd5b5035611ba2565b348015610aad57600080fd5b50610495670de0b6b3a764000081565b348015610ac957600080fd5b506104d160048036036020811015610ae057600080fd5b50356001600160a01b0316611bc6565b348015610afc57600080fd5b506104956101655481565b348015610b1357600080fd5b5061049560048036036020811015610b2a57600080fd5b50356001600160a01b0316611cf6565b348015610b4657600080fd5b50610161546105de906001600160a01b031681565b348015610b6757600080fd5b506104d160048036036020811015610b7e57600080fd5b50356001600160a01b0316611e19565b348015610b9a57600080fd5b506104d16004803603610140811015610bb257600080fd5b506001600160a01b038135811691602081013582169160408201359160608101359160808201359160a08101359160c08201359160e08101359161010082013591610120013516611f51565b348015610c0a57600080fd5b506104d160048036036020811015610c2157600080fd5b5035612143565b348015610c3457600080fd5b506104d160048036036020811015610c4b57600080fd5b503561258b565b348015610c5e57600080fd5b506104d16125c5565b348015610c7357600080fd5b506104d160048036036020811015610c8a57600080fd5b5035612654565b348015610c9d57600080fd5b506104d160048036036020811015610cb457600080fd5b50356001600160a01b03166126f4565b348015610cd057600080fd5b506104d1612750565b348015610ce557600080fd5b506104d160048036036020811015610cfc57600080fd5b50356001600160a01b0316612787565b348015610d1857600080fd5b5061049560048036036020811015610d2f57600080fd5b50356001600160a01b03166127c4565b348015610d4b57600080fd5b506104956101685481565b348015610d6257600080fd5b506104d160048036036020811015610d7957600080fd5b50356001600160a01b03166127f3565b348015610d9557600080fd5b5061046a60048036036040811015610dac57600080fd5b50803590602001356001600160a01b0316612895565b348015610dce57600080fd5b5061016f546105de906001600160a01b031681565b348015610def57600080fd5b506104d160048036036020811015610e0657600080fd5b50356001600160a01b03166128c0565b348015610e2257600080fd5b5061046a60048036036020811015610e3957600080fd5b50356001600160a01b0316612917565b348015610e5557600080fd5b506104d160048036036020811015610e6c57600080fd5b5035612972565b348015610e7f57600080fd5b50610495600081565b348015610e9457600080fd5b5061046a612dfe565b348015610ea957600080fd5b506104956101665481565b348015610ec057600080fd5b50610495612eb5565b348015610ed557600080fd5b506104d160048036036020811015610eec57600080fd5b5035612f37565b348015610eff57600080fd5b506104d160048036036020811015610f1657600080fd5b810190602081018135640100000000811115610f3157600080fd5b820183602082011115610f4357600080fd5b80359060200191846020830284011164010000000083111715610f6557600080fd5b509092509050612f71565b348015610f7c57600080fd5b506104d160048036036040811015610f9357600080fd5b506001600160a01b03813516906020013561322a565b348015610fb557600080fd5b5061049561016b5481565b348015610fcc57600080fd5b50610495613309565b348015610fe157600080fd5b506104d160048036036020811015610ff857600080fd5b503561338f565b34801561100b57600080fd5b5061049560008051602061583483398151915281565b34801561102d57600080fd5b506104d16004803603604081101561104457600080fd5b50803590602001356001600160a01b0316613a3b565b34801561106657600080fd5b506104d16004803603602081101561107d57600080fd5b5035613a61565b34801561109057600080fd5b5061049561016c5481565b3480156110a757600080fd5b50610162546105de906001600160a01b031681565b3480156110c857600080fd5b506104d1600480360360e08110156110df57600080fd5b506001600160a01b038135169060208101359060408101359060608101359060ff6080820135169060a08101359060c00135613b01565b34801561112257600080fd5b50610495613bc8565b34801561113757600080fd5b506104956004803603602081101561114e57600080fd5b50356001600160a01b03166000908152610172602052604090206002015490565b60006001600160e01b03198216637965db0b60e01b14806111a057506301ffc9a760e01b6001600160e01b03198316145b92915050565b60fc5460ff16156111d25760405162461bcd60e51b81526004016111c990615661565b60405180910390fd5b600261012f5414156111f65760405162461bcd60e51b81526004016111c99061562a565b600261012f55611207338083613ca8565b50600161012f55565b60008061017160009054906101000a90046001600160a01b03166001600160a01b03166318160ddd6040518163ffffffff1660e01b815260040160206040518083038186803b15801561126257600080fd5b505afa158015611276573d6000803e3d6000fd5b505050506040513d602081101561128c57600080fd5b505190508061129e5750506101635490565b80670de0b6b3a7640000610169546112b691906156c5565b6112c091906156a5565b91505090565b6112de60008051602061583483398151915233612895565b6112fa5760405162461bcd60e51b81526004016111c99061555b565b670de0b6b3a7640000811115611357576040805162461bcd60e51b815260206004820152601b60248201527f72657365727665466163746f724d616e7469737361206572726f720000000000604482015290519081900360640190fd5b61016455565b61137560008051602061583483398151915233612895565b6113915760405162461bcd60e51b81526004016111c99061555b565b61016d55565b60006111a060008051602061583483398151915283612895565b60fc5460ff16156113d45760405162461bcd60e51b81526004016111c990615661565b600261012f5414156113f85760405162461bcd60e51b81526004016111c99061562a565b600261012f55611409338383613ca8565b5050600161012f55565b600082815260c9602052604090206001015461142f8133614308565b611439838361436c565b505050565b336000908152610172602052604081205490808080808061145e886143f2565b610161549096506001600160a01b03169450611478613bc8565b935061149d886001600160a01b03166000908152610172602052604090206003015490565b90506114a888614486565b92506114b388612917565b9150919395979092949650565b6001600160a01b03811633146115305760405162461bcd60e51b815260206004820152602f60248201527f416363657373436f6e74726f6c3a2063616e206f6e6c792072656e6f756e636560448201526e103937b632b9903337b91039b2b63360891b60648201526084016111c9565b61153a828261450a565b5050565b306001600160a01b037f00000000000000000000000000000000000000000000000000000000000000001614156115875760405162461bcd60e51b81526004016111c9906154c3565b7f00000000000000000000000000000000000000000000000000000000000000006001600160a01b03166115b9614571565b6001600160a01b0316146115df5760405162461bcd60e51b81526004016111c99061550f565b6115e88161459f565b60408051600080825260208201909252611604918391906145d3565b50565b61017154604080516370a0823160e01b81526001600160a01b038481166004830152915160009392909216916370a0823191602480820192602092909190829003018186803b15801561165957600080fd5b505afa15801561166d573d6000803e3d6000fd5b505050506040513d602081101561168357600080fd5b505161168d613309565b6111a091906156c5565b6116af60008051602061583483398151915233612895565b6116cb5760405162461bcd60e51b81526004016111c99061555b565b61016a55565b60fc5461010090046001600160a01b031633146117005760405162461bcd60e51b81526004016111c99061558a565b60fc5460ff1661174b5760405162461bcd60e51b815260206004820152601660248201527510dbdb9d1c9bdb1b195c8e881b9bdd081c185d5cd95960521b60448201526064016111c9565b60fc805460ff191690556040513381527f5db9ee0a495bf2e6ff9c91a7834c1ba4fdd244a5e8aa4e537bd38aeae4b073aa906020015b60405180910390a1565b6117a360008051602061583483398151915233612895565b6117bf5760405162461bcd60e51b81526004016111c99061555b565b61016e55565b6117dd60008051602061583483398151915233612895565b6117f95760405162461bcd60e51b81526004016111c99061555b565b61016f80546001600160a01b0319166001600160a01b0392909216919091179055565b60006101675461016c5410611842576101675461016c5461183d91906156e4565b905090565b50600090565b306001600160a01b037f00000000000000000000000000000000000000000000000000000000000000001614156118915760405162461bcd60e51b81526004016111c9906154c3565b7f00000000000000000000000000000000000000000000000000000000000000006001600160a01b03166118c3614571565b6001600160a01b0316146118e95760405162461bcd60e51b81526004016111c99061550f565b6118f28261459f565b61153a828260016145d3565b60fc5460ff16156119215760405162461bcd60e51b81526004016111c990615661565b600261012f5414156119455760405162461bcd60e51b81526004016111c99061562a565b600261012f5561196360008051602061583483398151915233612895565b61197f5760405162461bcd60e51b81526004016111c99061555b565b611987612dfe565b6119c6576040805162461bcd60e51b815260206004820152601e60248201526000805160206158a6833981519152604482015290519081900360640190fd5b61016854811115611a085760405162461bcd60e51b81526004018080602001828103825260228152602001806158126022913960400191505060405180910390fd5b61016f54610168546001600160a01b0390911690600090611a2a9084906156e4565b905061016854811115611a6e5760405162461bcd60e51b81526004018080602001828103825260248152602001806159b36024913960400191505060405180910390fd5b6101688190556101615460408051636ce5768960e11b81526001600160a01b03928316600482015286831660248201526044810186905290519184169163d9caed12916064808201926020929091908290030181600087803b158015611ad357600080fd5b505af1158015611ae7573d6000803e3d6000fd5b505050506040513d6020811015611afd57600080fd5b5051611b4d576040805162461bcd60e51b815260206004820152601a60248201527955546f6b656e3a204661696c656420746f20776974686472617760301b604482015290519081900360640190fd5b604080516001600160a01b03861681526020810185905280820183905290517f3935a21c4c6c0ed8a59526c636d4ec1f88fed93a0d52f7f279a398bb5ff3929c9181900360600190a15050600161012f555050565b6000670de0b6b3a76400008261016b54611bbc91906156c5565b6111a091906156a5565b600054610100900460ff1680611bdf575060005460ff16155b611bfb5760405162461bcd60e51b81526004016111c9906155dc565b600054610100900460ff16158015611c1d576000805461ffff19166101011790555b6001600160a01b038216611c6e5760405162461bcd60e51b8152602060048201526018602482015277436f6e74726f6c6c65723a2061646472657373207a65726f60401b60448201526064016111c9565b60fc805460ff191690556001600160a01b038216600081815260fb6020526040902080546001600160a01b0319169091179055611ca9614717565b611cc160008051602061583483398151915283614792565b60fc8054610100600160a81b0319166101006001600160a01b03851602179055801561153a576000805461ff00191690555050565b6001600160a01b0381166000908152610172602090815260408083208151608081018352815480825260018301549482019490945260028201549281019290925260030154606082015290611d4e5750600092915050565b6000611d58613bc8565b610165549091504390600090611d6e90836156e4565b90506000611d7c82856156c5565b61016654909150600090670de0b6b3a7640000611d9982856156c5565b611da391906156a5565b611dad919061568d565b905060008187602001518860000151611dc6919061568d565b611dd091906156c5565b90506000876040015182611de491906156a5565b6001600160a01b038b1660009081526101726020526040902054909150611e0b90826156e4565b9a9950505050505050505050565b611e3160008051602061583483398151915233612895565b611e4d5760405162461bcd60e51b81526004016111c99061555b565b6001600160a01b038116611e9e5760405162461bcd60e51b8152602060048201526018602482015277436f6e74726f6c6c65723a2061646472657373207a65726f60401b60448201526064016111c9565b6001600160a01b03818116600090815260fb60205260409020541615611f105760405162461bcd60e51b815260206004820152602160248201527f436f6e74726f6c6c65723a2061646d696e20616c7265616479206578697374656044820152601960fa1b60648201526084016111c9565b6001600160a01b038116600081815260fb6020526040902080546001600160a01b031916909117905561160460008051602061583483398151915282614792565b600054610100900460ff1680611f6a575060005460ff16155b611f865760405162461bcd60e51b81526004016111c9906155dc565b600054610100900460ff16158015611fa8576000805461ffff19166101011790555b60008911611fe75760405162461bcd60e51b81526004018080602001828103825260308152602001806157c16030913960400191505060405180910390fd5b6001600160a01b038a16612042576040805162461bcd60e51b815260206004820152601860248201527f756e6465726c79696e6720746f6b656e206973207a65726f0000000000000000604482015290519081900360640190fd5b670de0b6b3a764000088111561209f576040805162461bcd60e51b815260206004820152601b60248201527f72657365727665466163746f724d616e7469737361206572726f720000000000604482015290519081900360640190fd5b61017180546001600160a01b0319166001600160a01b038d161790556120c482611bc6565b6120cc61479c565b61016180546001600160a01b0319166001600160a01b038c1617905561016b87905561016c86905561016d85905561016e84905561016a8390556101638990556101648890554361016555670de0b6b3a7640000610166558015612136576000805461ff00191690555b5050505050505050505050565b60fc5460ff16156121665760405162461bcd60e51b81526004016111c990615661565b600261012f54141561218a5760405162461bcd60e51b81526004016111c99061562a565b600261012f55612198612dfe565b6121d7576040805162461bcd60e51b815260206004820152601e60248201526000805160206158a6833981519152604482015290519081900360640190fd5b61016154604080516370a0823160e01b815230600482015290516001600160a01b039092169160009183916370a0823191602480820192602092909190829003018186803b15801561222857600080fd5b505afa15801561223c573d6000803e3d6000fd5b505050506040513d602081101561225257600080fd5b505160408051636eb1769f60e11b8152336004820152306024820152905191925084916001600160a01b0385169163dd62ed3e916044808301926020929190829003018186803b1580156122a557600080fd5b505afa1580156122b9573d6000803e3d6000fd5b505050506040513d60208110156122cf57600080fd5b50511015612324576040805162461bcd60e51b815260206004820152601c60248201527f55546f6b656e3a204e6f7420656e6f75676820616c6c6f77616e636500000000604482015290519081900360640190fd5b6123396001600160a01b0383163330866147fb565b6000826001600160a01b03166370a08231306040518263ffffffff1660e01b815260040180826001600160a01b0316815260200191505060206040518083038186803b15801561238857600080fd5b505afa15801561239c573d6000803e3d6000fd5b505050506040513d60208110156123b257600080fd5b5051905060006123c283836156e4565b9050600081610168546123d5919061568d565b90506101685481101561242f576040805162461bcd60e51b815260206004820181905260248201527f61646420726573657276657320756e6578706563746564206f766572666c6f77604482015290519081900360640190fd5b61016881905561016f54612451906001600160a01b038781169116600061486c565b61016f5461246c906001600160a01b0387811691168561486c565b61016f5461016154604080516311f9fbc960e21b81526001600160a01b03928316600482015260248101879052905191909216916347e7ef249160448083019260209291908290030181600087803b1580156124c757600080fd5b505af11580156124db573d6000803e3d6000fd5b505050506040513d60208110156124f157600080fd5b505161253d576040805162461bcd60e51b815260206004820152601660248201527515551bdad95b8e8811195c1bdcda5d0819985a5b195960521b604482015290519081900360640190fd5b604080513381526020810184905280820183905290517f028de5691a4350cc942bc5300a512d556819f5d7bf9c4d2eec2feb4e4fa1bab19181900360600190a15050600161012f5550505050565b6125a360008051602061583483398151915233612895565b6125bf5760405162461bcd60e51b81526004016111c99061555b565b61016b55565b60fc5461010090046001600160a01b031633146125f45760405162461bcd60e51b81526004016111c99061558a565b60fc5460ff16156126175760405162461bcd60e51b81526004016111c990615661565b60fc805460ff191660011790556040513381527f62e78cea01bee320cd4e420270b5ea74000d11b0c9f74754ebdbfc544b05a25890602001611781565b60fc5460ff16156126775760405162461bcd60e51b81526004016111c990615661565b600261012f54141561269b5760405162461bcd60e51b81526004016111c99061562a565b600261012f556126a9612dfe565b6126e8576040805162461bcd60e51b815260206004820152601e60248201526000805160206158a6833981519152604482015290519081900360640190fd5b61120733600083614990565b61270c60008051602061583483398151915233612895565b6127285760405162461bcd60e51b81526004016111c99061555b565b60fc80546001600160a01b0390921661010002610100600160a81b0319909216919091179055565b612768600080516020615834833981519152336114c0565b33600090815260fb6020526040902080546001600160a01b0319169055565b61279f60008051602061583483398151915233612895565b6127bb5760405162461bcd60e51b81526004016111c99061555b565b61160481614c48565b60006127cf82611cf6565b6001600160a01b038316600090815261017260205260409020546111a0919061568d565b60fc5460ff16156128165760405162461bcd60e51b81526004016111c990615661565b61281f81612917565b1561160457610170546040805163591d637d60e01b81526001600160a01b038481166004830152600160248301529151919092169163591d637d91604480830192600092919082900301818387803b15801561287a57600080fd5b505af115801561288e573d6000803e3d6000fd5b5050505050565b600091825260c9602090815260408084206001600160a01b0393909316845291905290205460ff1690565b6128d860008051602061583483398151915233612895565b6128f45760405162461bcd60e51b81526004016111c99061555b565b61017080546001600160a01b0319166001600160a01b0392909216919091179055565b6001600160a01b0381166000908152610172602052604081205461293d57506000919050565b6001600160a01b038216600090815261017260205260408120600301549061296582436156e4565b61016a5410949350505050565b60fc5460ff16156129955760405162461bcd60e51b81526004016111c990615661565b600261012f5414156129b95760405162461bcd60e51b81526004016111c99061562a565b600261012f556129c7612dfe565b612a06576040805162461bcd60e51b815260206004820152601e60248201526000805160206158a6833981519152604482015290519081900360640190fd5b6000612a10611210565b61016154604080516370a0823160e01b815230600482015290519293506001600160a01b039091169160009183916370a0823191602480820192602092909190829003018186803b158015612a6457600080fd5b505afa158015612a78573d6000803e3d6000fd5b505050506040513d6020811015612a8e57600080fd5b505160408051636eb1769f60e11b8152336004820152306024820152905191925085916001600160a01b0385169163dd62ed3e916044808301926020929190829003018186803b158015612ae157600080fd5b505afa158015612af5573d6000803e3d6000fd5b505050506040513d6020811015612b0b57600080fd5b50511015612b60576040805162461bcd60e51b815260206004820152601c60248201527f55546f6b656e3a204e6f7420656e6f75676820616c6c6f77616e636500000000604482015290519081900360640190fd5b612b756001600160a01b0383163330876147fb565b6000826001600160a01b03166370a08231306040518263ffffffff1660e01b815260040180826001600160a01b0316815260200191505060206040518083038186803b158015612bc457600080fd5b505afa158015612bd8573d6000803e3d6000fd5b505050506040513d6020811015612bee57600080fd5b505190506000612bfe83836156e4565b9050806101696000828254612c13919061568d565b909155506000905085612c2e670de0b6b3a7640000846156c5565b612c3891906156a5565b61017154604080516340c10f1960e01b81523360048201526024810184905290519293506001600160a01b03909116916340c10f199160448082019260009290919082900301818387803b158015612c8f57600080fd5b505af1158015612ca3573d6000803e3d6000fd5b505061016f54612cc392506001600160a01b03888116925016600061486c565b61016f54612cde906001600160a01b0387811691168461486c565b61016f5461016154604080516311f9fbc960e21b81526001600160a01b03928316600482015260248101869052905191909216916347e7ef249160448083019260209291908290030181600087803b158015612d3957600080fd5b505af1158015612d4d573d6000803e3d6000fd5b505050506040513d6020811015612d6357600080fd5b5051612daf576040805162461bcd60e51b815260206004820152601660248201527515551bdad95b8e8811195c1bdcda5d0819985a5b195960521b604482015290519081900360640190fd5b604080513381526020810184905280820183905290517fa82a7ea15c804d00dba1b969024b510969fde70fac8e0d5da860cf1f7376d3179181900360600190a15050600161012f555050505050565b600080612e09613bc8565b610165549091504390600090612e1f90836156e4565b90506000612e2d82856156c5565b90506000670de0b6b3a76400006101675483612e4991906156c5565b612e5391906156a5565b905060006101675482612e66919061568d565b61016654909150600090670de0b6b3a7640000612e8382876156c5565b612e8d91906156a5565b612e97919061568d565b61016596909655506101669490945550505061016755506001919050565b61016254610164546040805163d955759d60e01b81526004810192909252516000926001600160a01b03169163d955759d916024808301926020929190829003018186803b158015612f0657600080fd5b505afa158015612f1a573d6000803e3d6000fd5b505050506040513d6020811015612f3057600080fd5b5051919050565b612f4f60008051602061583483398151915233612895565b612f6b5760405162461bcd60e51b81526004016111c99061555b565b61016c55565b60fc5460ff1615612f945760405162461bcd60e51b81526004016111c990615661565b60008167ffffffffffffffff811115612fbd57634e487b7160e01b600052604160045260246000fd5b604051908082528060200260200182016040528015612fe6578160200160208202803683370190505b50905060008267ffffffffffffffff81111561301257634e487b7160e01b600052604160045260246000fd5b60405190808252806020026020018201604052801561303b578160200160208202803683370190505b50905060005b8381101561313b5761308185858381811061306c57634e487b7160e01b600052603260045260246000fd5b905060200201356001600160a01b0316612917565b15613129578484828181106130a657634e487b7160e01b600052603260045260246000fd5b905060200201356001600160a01b03168382815181106130d657634e487b7160e01b600052603260045260246000fd5b60200260200101906001600160a01b031690816001600160a01b031681525050600182828151811061311857634e487b7160e01b600052603260045260246000fd5b911515602092830291909101909101525b806131338161573e565b915050613041565b506101705460408051632ea06d8f60e11b8152600481019182528451604482015284516001600160a01b0390931692635d40db1e9286928692829160248101916064909101906020808801910280838360005b838110156131a657818101518382015260200161318e565b50505050905001838103825284818151815260200191508051906020019060200280838360005b838110156131e55781810151838201526020016131cd565b50505050905001945050505050600060405180830381600087803b15801561320c57600080fd5b505af1158015613220573d6000803e3d6000fd5b5050505050505050565b60fc5460ff161561324d5760405162461bcd60e51b81526004016111c990615661565b610170546001600160a01b031633146132975760405162461bcd60e51b81526004018080602001828103825260218152602001806157f16021913960400191505060405180910390fd5b6001600160a01b0382166000908152610172602052604081205490818311156132c15750806132c4565b50815b6132ce81836156e4565b6001600160a01b0385166000908152610172602052604081209190915561016780548392906132fe9084906156e4565b909155505050505050565b6000600261012f54141561332f5760405162461bcd60e51b81526004016111c99061562a565b600261012f5561333d612dfe565b61337c576040805162461bcd60e51b815260206004820152601e60248201526000805160206158a6833981519152604482015290519081900360640190fd5b613384611210565b9050600161012f5590565b61017054604080516321d2a57360e01b81523360048201819052915191926001600160a01b0316916321d2a57391602480820192602092909190829003018186803b1580156133dd57600080fd5b505afa1580156133f1573d6000803e3d6000fd5b505050506040513d602081101561340757600080fd5b505161345a576040805162461bcd60e51b815260206004820152601e60248201527f55546f6b656e3a2063616c6c6572206973206e6f742061206d656d6265720000604482015290519081900360640190fd5b60fc5460ff161561347d5760405162461bcd60e51b81526004016111c990615661565b600261012f5414156134a15760405162461bcd60e51b81526004016111c99061562a565b600261012f5561016f5461016e546001600160a01b03909116908310156134f95760405162461bcd60e51b815260040180806020018281038252602681526020018061598d6026913960400191505060405180910390fd5b61350161181c565b83111561353f5760405162461bcd60e51b815260040180806020018281038252602d8152602001806158ef602d913960400191505060405180910390fd5b600061354a84611ba2565b905061016d54818561355b336127c4565b613565919061568d565b61356f919061568d565b11156135ac5760405162461bcd60e51b81526004018080602001828103825260298152602001806158c66029913960400191505060405180910390fd5b6135b533612917565b15613607576040805162461bcd60e51b815260206004820181905260248201527f55546f6b656e3a204d656d62657220686173206c6f616e73206f766572647565604482015290519081900360640190fd5b61016154604080516270341160e01b81526001600160a01b0392831660048201529051918416916270341191602480820192602092909190829003018186803b15801561365357600080fd5b505afa158015613667573d6000803e3d6000fd5b505050506040513d602081101561367d57600080fd5b50518411156136d3576040805162461bcd60e51b815260206004820152601e60248201527f55546f6b656e3a204e6f7420656e6f75676820746f206c656e64206f75740000604482015290519081900360640190fd5b6136dd818561568d565b6136e633614486565b10156137235760405162461bcd60e51b815260040180806020018281038252603d81526020018061591c603d913960400191505060405180910390fd5b61372b612dfe565b61376a576040805162461bcd60e51b815260206004820152601e60248201526000805160206158a6833981519152604482015290519081900360640190fd5b6000613775336143f2565b33600090815261017260205260409020600301549091506137a6574333600090815261017260205260409020600301555b6000826137b3878461568d565b6137bd919061568d565b905060008387610167546137d1919061568d565b6137db919061568d565b33600090815261017260205260409020549091506137f9858961568d565b33600090815261017260205260408120805490919061381990849061568d565b909155505033600081815261017260205260409020546101705490916001600160a01b039091169063ab4ffaa99061385185856156e4565b60016040518463ffffffff1660e01b815260040180846001600160a01b0316815260200183815260200182151581526020019350505050600060405180830381600087803b1580156138a257600080fd5b505af11580156138b6573d6000803e3d6000fd5b505033600090815261017260205260409020546138d692509050856156e4565b33600090815261017260205260408120600181019290925561016654600290920191909155610167849055610168805488929061391490849061568d565b90915550506101615460408051636ce5768960e11b81526001600160a01b039283166004820152336024820152604481018c905290519189169163d9caed12916064808201926020929091908290030181600087803b15801561397657600080fd5b505af115801561398a573d6000803e3d6000fd5b505050506040513d60208110156139a057600080fd5b50516139f0576040805162461bcd60e51b815260206004820152601a60248201527955546f6b656e3a204661696c656420746f20776974686472617760301b604482015290519081900360640190fd5b604080518a815260208101889052815133927fe1b17d743be0011d9bba06fe70f26f50edb5da84de0c4db5fcaf609549db7036928290030190a25050600161012f5550505050505050565b600082815260c96020526040902060010154613a578133614308565b611439838361450a565b60fc5460ff1615613a845760405162461bcd60e51b81526004016111c990615661565b600261012f541415613aa85760405162461bcd60e51b81526004016111c99061562a565b600261012f55613ab6612dfe565b613af5576040805162461bcd60e51b815260206004820152601e60248201526000805160206158a6833981519152604482015290519081900360640190fd5b61120733826000614990565b60fc5460ff1615613b245760405162461bcd60e51b81526004016111c990615661565b61016154604080516323f2ebc360e21b815233600482015230602482015260448101889052606481018790526001608482015260ff861660a482015260c4810185905260e4810184905290516001600160a01b03909216918291638fcbaf0c9161010480830192600092919082900301818387803b158015613ba557600080fd5b505af1158015613bb9573d6000803e3d6000fd5b50505050613220338989613ca8565b60008061016260009054906101000a90046001600160a01b03166001600160a01b031663ba1c5e806040518163ffffffff1660e01b815260040160206040518083038186803b158015613c1a57600080fd5b505afa158015613c2e573d6000803e3d6000fd5b505050506040513d6020811015613c4457600080fd5b5051905065048c27395000811115613ca3576040805162461bcd60e51b815260206004820152601c60248201527f626f72726f772072617465206973206162737572646c79206869676800000000604482015290519081900360640190fd5b919050565b610161546001600160a01b03166000613cc084612917565b6001600160a01b03851660009081526101726020526040902054909150613ce5612dfe565b613d24576040805162461bcd60e51b815260206004820152601e60248201526000805160206158a6833981519152604482015290519081900360640190fd5b436101655414613d7b576040805162461bcd60e51b815260206004820152601860248201527f55546f6b656e3a206d61726b6574206e6f742066726573680000000000000000604482015290519081900360640190fd5b6000613d8686611cf6565b90506000613d93876143f2565b9050600081871115613da6575080613da9565b50855b60008111613de85760405162461bcd60e51b815260040180806020018281038252602b81526020018061587b602b913960400191505060405180910390fd5b60408051636eb1769f60e11b81526001600160a01b038b811660048301523060248301529151839289169163dd62ed3e916044808301926020929190829003018186803b158015613e3857600080fd5b505afa158015613e4c573d6000803e3d6000fd5b505050506040513d6020811015613e6257600080fd5b50511015613ea15760405162461bcd60e51b815260040180806020018281038252602581526020018061579c6025913960400191505060405180910390fd5b60008084831061404c57670de0b6b3a76400006101645486613ec391906156c5565b613ecd91906156a5565b9150613ed982866156e4565b90508615613fd957610170546040805163591d637d60e01b81526001600160a01b038d81166004830152600060248301819052925193169263591d637d9260448084019391929182900301818387803b158015613f3557600080fd5b505af1158015613f49573d6000803e3d6000fd5b505061017054610161546001600160a01b038e81166000818152610172602052604080822060030154815163293512c560e01b8152600481019490945294841660248401526044830194909452925191909316945063293512c5935060648084019382900301818387803b158015613fc057600080fd5b505af1158015613fd4573d6000803e3d6000fd5b505050505b613fe383856156e4565b6001600160a01b038b1660009081526101726020526040812082815560010155614029576001600160a01b038a16600090815261017260205260408120600301556140a4565b436001600160a01b038b16600090815261017260205260409020600301556140a4565b670de0b6b3a7640000610164548461406491906156c5565b61406e91906156a5565b915061407a82846156e4565b905061408683866156e4565b6001600160a01b038b16600090815261017260205260409020600101555b8161016860008282546140b7919061568d565b925050819055508061016960008282546140d1919061568d565b90915550506001600160a01b038a166000908152610172602052604081208054610166546002909201919091556101678054919286926141129084906156e4565b9091555050610170546001600160a01b031663ab4ffaa98c614134848b6156e4565b60006040518463ffffffff1660e01b815260040180846001600160a01b0316815260200183815260200182151581526020019350505050600060405180830381600087803b15801561418557600080fd5b505af1158015614199573d6000803e3d6000fd5b506141b3925050506001600160a01b038a168d30876147fb565b61016f546141cf906001600160a01b038b81169116600061486c565b61016f546141ea906001600160a01b038b811691168661486c565b61016f5461016154604080516311f9fbc960e21b81526001600160a01b03928316600482015260248101889052905191909216916347e7ef249160448083019260209291908290030181600087803b15801561424557600080fd5b505af1158015614259573d6000803e3d6000fd5b505050506040513d602081101561426f57600080fd5b50516142bb576040805162461bcd60e51b815260206004820152601660248201527515551bdad95b8e8811195c1bdcda5d0819985a5b195960521b604482015290519081900360640190fd5b6040805185815290516001600160a01b038d16917fcd300581542c5eab58e736a0b08b42cec829c4504d1c16af90f4630b27e30de3919081900360200190a2505050505050505050505050565b6143128282612895565b61153a5761432a816001600160a01b03166014614d5d565b614335836020614d5d565b60405160200161434692919061541b565b60408051601f198184030181529082905262461bcd60e51b82526111c991600401615490565b6143768282612895565b61153a57600082815260c9602090815260408083206001600160a01b03851684529091529020805460ff191660011790556143ae3390565b6001600160a01b0316816001600160a01b0316837f2f8788117e7eff1d82e926ec794901d17c78024a50270940304540a733656f0d60405160405180910390a45050565b6001600160a01b038116600090815261017260209081526040808320815160808101835281548082526001830154948201949094526002820154928101929092526003015460608201529061444a5750600092915050565b6101665460208201518251600092916144629161568d565b61446c91906156c5565b905081604001518161447e91906156a5565b949350505050565b6101705460408051632c333e2560e01b81526001600160a01b03848116600483015291516000939290921691632c333e2591602480820192602092909190829003018186803b1580156144d857600080fd5b505afa1580156144ec573d6000803e3d6000fd5b505050506040513d602081101561450257600080fd5b505192915050565b6145148282612895565b1561153a57600082815260c9602090815260408083206001600160a01b0385168085529252808320805460ff1916905551339285917ff6391f5c32d9c69d2a47ea670b442974b53935d1edc7fd64eb21e047a839171b9190a45050565b7f360894a13ba1a3210667c828492db98dca3e2076cc3735a920a3ca505d382bbc546001600160a01b031690565b6145b760008051602061583483398151915233612895565b6116045760405162461bcd60e51b81526004016111c99061555b565b60006145dd614571565b90506145e884614f46565b6000835111806145f55750815b15614606576146048484614feb565b505b7f4910fdfa16fed3260ed0e7147f7cc6da11a60208b5b9406d12a635614ffd9143805460ff1661288e57805460ff191660011781556040516001600160a01b038316602482015261468590869060440160408051601f198184030181529190526020810180516001600160e01b0316631b2ce7f360e11b179052614feb565b50805460ff19168155614696614571565b6001600160a01b0316826001600160a01b03161461470e5760405162461bcd60e51b815260206004820152602f60248201527f45524331393637557067726164653a207570677261646520627265616b73206660448201526e75727468657220757067726164657360881b60648201526084016111c9565b61288e856150d6565b600054610100900460ff1680614730575060005460ff16155b61474c5760405162461bcd60e51b81526004016111c9906155dc565b600054610100900460ff1615801561476e576000805461ffff19166101011790555b614776615116565b61477e615116565b8015611604576000805461ff001916905550565b61153a828261436c565b600054610100900460ff16806147b5575060005460ff16155b6147d15760405162461bcd60e51b81526004016111c9906155dc565b600054610100900460ff161580156147f3576000805461ffff19166101011790555b61477e615180565b6040516001600160a01b03808516602483015283166044820152606481018290526148669085906323b872dd60e01b906084015b60408051601f198184030181529190526020810180516001600160e01b03166001600160e01b0319909316929092179091526151f1565b50505050565b8015806148f55750604051636eb1769f60e11b81523060048201526001600160a01b03838116602483015284169063dd62ed3e9060440160206040518083038186803b1580156148bb57600080fd5b505afa1580156148cf573d6000803e3d6000fd5b505050506040513d601f19601f820116820180604052508101906148f391906153ee565b155b6149605760405162461bcd60e51b815260206004820152603660248201527f5361666545524332303a20617070726f76652066726f6d206e6f6e2d7a65726f60448201527520746f206e6f6e2d7a65726f20616c6c6f77616e636560501b60648201526084016111c9565b6040516001600160a01b03831660248201526044810182905261143990849063095ea7b360e01b9060640161482f565b81158061499b575080155b6149d65760405162461bcd60e51b81526004018080602001828103825260348152602001806159596034913960400191505060405180910390fd5b61016f546001600160a01b031660006149ed611210565b90506000808515614a1f57859150670de0b6b3a7640000614a0e84846156c5565b614a1891906156a5565b9050614a42565b82614a32670de0b6b3a7640000876156c5565b614a3c91906156a5565b91508490505b80610169541015614a90576040805162461bcd60e51b81526020600482015260136024820152723932b232b2b69030b6b7bab73a1032b93937b960691b604482015290519081900360640190fd5b806101696000828254614aa391906156e4565b90915550506101715460408051632770a7eb60e21b81526001600160a01b038a811660048301526024820186905291519190921691639dc29fac91604480830192600092919082900301818387803b158015614afe57600080fd5b505af1158015614b12573d6000803e3d6000fd5b50506101615460408051636ce5768960e11b81526001600160a01b0392831660048201528b83166024820152604481018690529051918816935063d9caed1292506064808201926020929091908290030181600087803b158015614b7557600080fd5b505af1158015614b89573d6000803e3d6000fd5b505050506040513d6020811015614b9f57600080fd5b5051614bef576040805162461bcd60e51b815260206004820152601a60248201527955546f6b656e3a204661696c656420746f20776974686472617760301b604482015290519081900360640190fd5b604080516001600160a01b0389168152602081018890528082018790526060810183905290517faf488116a12f56ff590ab3ca73f6bf9d11028ca9e63e965223b3d156fe18f5939181900360800190a150505050505050565b61016254604080516310c8fc9560e11b815290516001600160a01b0392831692849290831691632191f92a91600480820192602092909190829003018186803b158015614c9457600080fd5b505afa158015614ca8573d6000803e3d6000fd5b505050506040513d6020811015614cbe57600080fd5b5051614cfb5760405162461bcd60e51b815260040180806020018281038252602c815260200180615770602c913960400191505060405180910390fd5b61016280546001600160a01b0319166001600160a01b03838116918217909255604080519285168352602083019190915280517f0e0ca793e1618235d3c398af13a5a145bc17d407237e2f0687475941f6fbbac79281900390910190a1505050565b60606000614d6c8360026156c5565b614d7790600261568d565b67ffffffffffffffff811115614d9d57634e487b7160e01b600052604160045260246000fd5b6040519080825280601f01601f191660200182016040528015614dc7576020820181803683370190505b509050600360fc1b81600081518110614df057634e487b7160e01b600052603260045260246000fd5b60200101906001600160f81b031916908160001a905350600f60fb1b81600181518110614e2d57634e487b7160e01b600052603260045260246000fd5b60200101906001600160f81b031916908160001a9053506000614e518460026156c5565b614e5c90600161568d565b90505b6001811115614ef0576f181899199a1a9b1b9c1cb0b131b232b360811b85600f1660108110614e9e57634e487b7160e01b600052603260045260246000fd5b1a60f81b828281518110614ec257634e487b7160e01b600052603260045260246000fd5b60200101906001600160f81b031916908160001a90535060049490941c93614ee981615727565b9050614e5f565b508315614f3f5760405162461bcd60e51b815260206004820181905260248201527f537472696e67733a20686578206c656e67746820696e73756666696369656e7460448201526064016111c9565b9392505050565b803b614faa5760405162461bcd60e51b815260206004820152602d60248201527f455243313936373a206e657720696d706c656d656e746174696f6e206973206e60448201526c1bdd08184818dbdb9d1c9858dd609a1b60648201526084016111c9565b7f360894a13ba1a3210667c828492db98dca3e2076cc3735a920a3ca505d382bbc80546001600160a01b0319166001600160a01b0392909216919091179055565b6060823b61504a5760405162461bcd60e51b815260206004820152602660248201527f416464726573733a2064656c65676174652063616c6c20746f206e6f6e2d636f6044820152651b9d1c9858dd60d21b60648201526084016111c9565b600080846001600160a01b03168460405161506591906153ff565b600060405180830381855af49150503d80600081146150a0576040519150601f19603f3d011682016040523d82523d6000602084013e6150a5565b606091505b50915091506150cd8282604051806060016040528060278152602001615854602791396152c3565b95945050505050565b6150df81614f46565b6040516001600160a01b038216907fbc7cd75a20ee27fd9adebab32041f755214dbc6bffa90cc0225b39da2e5c2d3b90600090a250565b600054610100900460ff168061512f575060005460ff16155b61514b5760405162461bcd60e51b81526004016111c9906155dc565b600054610100900460ff1615801561477e576000805461ffff19166101011790558015611604576000805461ff001916905550565b600054610100900460ff1680615199575060005460ff16155b6151b55760405162461bcd60e51b81526004016111c9906155dc565b600054610100900460ff161580156151d7576000805461ffff19166101011790555b600161012f558015611604576000805461ff001916905550565b6000615246826040518060400160405280602081526020017f5361666545524332303a206c6f772d6c6576656c2063616c6c206661696c6564815250856001600160a01b03166152fc9092919063ffffffff16565b805190915015611439578080602001905181019061526491906153ce565b6114395760405162461bcd60e51b815260206004820152602a60248201527f5361666545524332303a204552433230206f7065726174696f6e20646964206e6044820152691bdd081cdd58d8d9595960b21b60648201526084016111c9565b606083156152d2575081614f3f565b8251156152e25782518084602001fd5b8160405162461bcd60e51b81526004016111c99190615490565b606061447e848460008585843b6153555760405162461bcd60e51b815260206004820152601d60248201527f416464726573733a2063616c6c20746f206e6f6e2d636f6e747261637400000060448201526064016111c9565b600080866001600160a01b0316858760405161537191906153ff565b60006040518083038185875af1925050503d80600081146153ae576040519150601f19603f3d011682016040523d82523d6000602084013e6153b3565b606091505b50915091506153c38282866152c3565b979650505050505050565b6000602082840312156153df578081fd5b81518015158114614f3f578182fd5b600060208284031215612f30578081fd5b600082516154118184602087016156fb565b9190910192915050565b7f416363657373436f6e74726f6c3a206163636f756e74200000000000000000008152600083516154538160178501602088016156fb565b7001034b99036b4b9b9b4b733903937b6329607d1b60179184019182015283516154848160288401602088016156fb565b01602801949350505050565b60208152600082518060208401526154af8160408501602087016156fb565b601f01601f19169190910160400192915050565b6020808252602c908201527f46756e6374696f6e206d7573742062652063616c6c6564207468726f7567682060408201526b19195b1959d85d1958d85b1b60a21b606082015260800190565b6020808252602c908201527f46756e6374696f6e206d7573742062652063616c6c6564207468726f7567682060408201526b6163746976652070726f787960a01b606082015260800190565b60208082526015908201527421b7b73a3937b63632b91d103737ba1030b236b4b760591b604082015260600190565b60208082526032908201527f436f6e74726f6c6c65723a2063616c6c657220646f6573206e6f7420686176656040820152712074686520677561726469616e20726f6c6560701b606082015260800190565b6020808252602e908201527f496e697469616c697a61626c653a20636f6e747261637420697320616c72656160408201526d191e481a5b9a5d1a585b1a5e995960921b606082015260800190565b6020808252601f908201527f5265656e7472616e637947756172643a207265656e7472616e742063616c6c00604082015260600190565b60208082526012908201527110dbdb9d1c9bdb1b195c8e881c185d5cd95960721b604082015260600190565b600082198211156156a0576156a0615759565b500190565b6000826156c057634e487b7160e01b81526012600452602481fd5b500490565b60008160001904831182151516156156df576156df615759565b500290565b6000828210156156f6576156f6615759565b500390565b60005b838110156157165781810151838201526020016156fe565b838111156148665750506000910152565b60008161573657615736615759565b506000190190565b600060001982141561575257615752615759565b5060010190565b634e487b7160e01b600052601160045260246000fdfe55546f6b656e3a206e6577206d6f64656c206973206e6f74206120696e746572657374526174654d6f64656c55546f6b656e3a204e6f7420656e6f75676820616c6c6f77616e636520746f207265706179696e697469616c2065786368616e67652072617465206d7573742062652067726561746572207468616e207a65726f2e55546f6b656e3a2063616c6c6572206973206e6f7420757365724d616e61676572616d6f756e74206973206c61726765207468616e20746f74616c52657365727665732172861495e7b85edac73e3cd5fbb42dd675baadf627720e687bcfdaca025096416464726573733a206c6f772d6c6576656c2064656c65676174652063616c6c206661696c656455546f6b656e3a20726570617920616d6f756e74206f72206f77656420616d6f756e74206973207a65726f55546f6b656e3a2061636372756520696e746572657374206661696c6564000055546f6b656e3a20616d6f756e74206c61726765207468616e20626f72726f772073697a65206d617855546f6b656e3a20616d6f756e74206d6f7265207468616e206c6f616e20676c6f62616c2073697a65206d617855546f6b656e3a20546865206c6f616e20616d6f756e7420706c7573206665652069732067726561746572207468616e20637265646974206c696d69746f6e65206f662072656465656d546f6b656e73496e206f722072656465656d416d6f756e74496e206d757374206265207a65726f55546f6b656e3a20616d6f756e74206c657373207468616e206c6f616e2073697a65206d696e72656475636520726573657276657320756e657870656374656420756e646572666c6f77a2646970667358221220f9e29faabd603bcbdbead482cd622f1167ca61b45e91275d3177e459599a313764736f6c63430008040033",
  "linkReferences": {},
  "deployedLinkReferences": {}
}