{
  "_format": "hh-sol-artifact-1",
  "contractName": "TestVaultUpgrade",
  "sourceName": "contracts/solidity/testing/TestVaultUpgrade.sol",
  "abi": [
    {
      "anonymous": false,
      "inputs": [
        {
          "indexed": true,
          "internalType": "address",
          "name": "owner",
          "type": "address"
        },
        {
          "indexed": true,
          "internalType": "address",
          "name": "spender",
          "type": "address"
        },
        {
          "indexed": false,
          "internalType": "uint256",
          "name": "value",
          "type": "uint256"
        }
      ],
      "name": "Approval",
      "type": "event"
    },
    {
      "anonymous": false,
      "inputs": [
        {
          "indexed": false,
          "internalType": "uint256",
          "name": "moduleIndex",
          "type": "uint256"
        },
        {
          "indexed": false,
          "internalType": "address",
          "name": "eligibilityAddr",
          "type": "address"
        }
      ],
      "name": "EligibilityDeployed",
      "type": "event"
    },
    {
      "anonymous": false,
      "inputs": [
        {
          "indexed": false,
          "internalType": "bool",
          "name": "enabled",
          "type": "bool"
        }
      ],
      "name": "EnableMintUpdated",
      "type": "event"
    },
    {
      "anonymous": false,
      "inputs": [
        {
          "indexed": false,
          "internalType": "bool",
          "name": "enabled",
          "type": "bool"
        }
      ],
      "name": "EnableRandomRedeemUpdated",
      "type": "event"
    },
    {
      "anonymous": false,
      "inputs": [
        {
          "indexed": false,
          "internalType": "bool",
          "name": "enabled",
          "type": "bool"
        }
      ],
      "name": "EnableRandomSwapUpdated",
      "type": "event"
    },
    {
      "anonymous": false,
      "inputs": [
        {
          "indexed": false,
          "internalType": "bool",
          "name": "enabled",
          "type": "bool"
        }
      ],
      "name": "EnableTargetRedeemUpdated",
      "type": "event"
    },
    {
      "anonymous": false,
      "inputs": [
        {
          "indexed": false,
          "internalType": "bool",
          "name": "enabled",
          "type": "bool"
        }
      ],
      "name": "EnableTargetSwapUpdated",
      "type": "event"
    },
    {
      "anonymous": false,
      "inputs": [
        {
          "indexed": false,
          "internalType": "address",
          "name": "manager",
          "type": "address"
        }
      ],
      "name": "ManagerSet",
      "type": "event"
    },
    {
      "anonymous": false,
      "inputs": [
        {
          "indexed": false,
          "internalType": "uint256[]",
          "name": "nftIds",
          "type": "uint256[]"
        },
        {
          "indexed": false,
          "internalType": "uint256[]",
          "name": "amounts",
          "type": "uint256[]"
        },
        {
          "indexed": false,
          "internalType": "address",
          "name": "to",
          "type": "address"
        }
      ],
      "name": "Minted",
      "type": "event"
    },
    {
      "anonymous": false,
      "inputs": [
        {
          "indexed": true,
          "internalType": "address",
          "name": "previousOwner",
          "type": "address"
        },
        {
          "indexed": true,
          "internalType": "address",
          "name": "newOwner",
          "type": "address"
        }
      ],
      "name": "OwnershipTransferred",
      "type": "event"
    },
    {
      "anonymous": false,
      "inputs": [
        {
          "indexed": false,
          "internalType": "uint256[]",
          "name": "nftIds",
          "type": "uint256[]"
        },
        {
          "indexed": false,
          "internalType": "uint256[]",
          "name": "specificIds",
          "type": "uint256[]"
        },
        {
          "indexed": false,
          "internalType": "address",
          "name": "to",
          "type": "address"
        }
      ],
      "name": "Redeemed",
      "type": "event"
    },
    {
      "anonymous": false,
      "inputs": [
        {
          "indexed": false,
          "internalType": "uint256[]",
          "name": "nftIds",
          "type": "uint256[]"
        },
        {
          "indexed": false,
          "internalType": "uint256[]",
          "name": "amounts",
          "type": "uint256[]"
        },
        {
          "indexed": false,
          "internalType": "uint256[]",
          "name": "specificIds",
          "type": "uint256[]"
        },
        {
          "indexed": false,
          "internalType": "uint256[]",
          "name": "redeemedIds",
          "type": "uint256[]"
        },
        {
          "indexed": false,
          "internalType": "address",
          "name": "to",
          "type": "address"
        }
      ],
      "name": "Swapped",
      "type": "event"
    },
    {
      "anonymous": false,
      "inputs": [
        {
          "indexed": true,
          "internalType": "address",
          "name": "from",
          "type": "address"
        },
        {
          "indexed": true,
          "internalType": "address",
          "name": "to",
          "type": "address"
        },
        {
          "indexed": false,
          "internalType": "uint256",
          "name": "value",
          "type": "uint256"
        }
      ],
      "name": "Transfer",
      "type": "event"
    },
    {
      "anonymous": false,
      "inputs": [
        {
          "indexed": true,
          "internalType": "uint256",
          "name": "vaultId",
          "type": "uint256"
        },
        {
          "indexed": false,
          "internalType": "address",
          "name": "assetAddress",
          "type": "address"
        },
        {
          "indexed": false,
          "internalType": "bool",
          "name": "is1155",
          "type": "bool"
        },
        {
          "indexed": false,
          "internalType": "bool",
          "name": "allowAllItems",
          "type": "bool"
        }
      ],
      "name": "VaultInit",
      "type": "event"
    },
    {
      "inputs": [
        {
          "internalType": "string",
          "name": "_name",
          "type": "string"
        },
        {
          "internalType": "string",
          "name": "_symbol",
          "type": "string"
        },
        {
          "internalType": "address",
          "name": "_assetAddress",
          "type": "address"
        },
        {
          "internalType": "bool",
          "name": "_is1155",
          "type": "bool"
        },
        {
          "internalType": "bool",
          "name": "_allowAllItems",
          "type": "bool"
        }
      ],
      "name": "__NFTXVault_init",
      "outputs": [],
      "stateMutability": "nonpayable",
      "type": "function"
    },
    {
      "inputs": [],
      "name": "allHoldings",
      "outputs": [
        {
          "internalType": "uint256[]",
          "name": "",
          "type": "uint256[]"
        }
      ],
      "stateMutability": "view",
      "type": "function"
    },
    {
      "inputs": [
        {
          "internalType": "uint256[]",
          "name": "tokenIds",
          "type": "uint256[]"
        }
      ],
      "name": "allValidNFTs",
      "outputs": [
        {
          "internalType": "bool",
          "name": "",
          "type": "bool"
        }
      ],
      "stateMutability": "view",
      "type": "function"
    },
    {
      "inputs": [],
      "name": "allowAllItems",
      "outputs": [
        {
          "internalType": "bool",
          "name": "",
          "type": "bool"
        }
      ],
      "stateMutability": "view",
      "type": "function"
    },
    {
      "inputs": [
        {
          "internalType": "address",
          "name": "owner",
          "type": "address"
        },
        {
          "internalType": "address",
          "name": "spender",
          "type": "address"
        }
      ],
      "name": "allowance",
      "outputs": [
        {
          "internalType": "uint256",
          "name": "",
          "type": "uint256"
        }
      ],
      "stateMutability": "view",
      "type": "function"
    },
    {
      "inputs": [
        {
          "internalType": "address",
          "name": "spender",
          "type": "address"
        },
        {
          "internalType": "uint256",
          "name": "amount",
          "type": "uint256"
        }
      ],
      "name": "approve",
      "outputs": [
        {
          "internalType": "bool",
          "name": "",
          "type": "bool"
        }
      ],
      "stateMutability": "nonpayable",
      "type": "function"
    },
    {
      "inputs": [],
      "name": "assetAddress",
      "outputs": [
        {
          "internalType": "address",
          "name": "",
          "type": "address"
        }
      ],
      "stateMutability": "view",
      "type": "function"
    },
    {
      "inputs": [],
      "name": "assignDefaultFeatures",
      "outputs": [],
      "stateMutability": "nonpayable",
      "type": "function"
    },
    {
      "inputs": [
        {
          "internalType": "address",
          "name": "account",
          "type": "address"
        }
      ],
      "name": "balanceOf",
      "outputs": [
        {
          "internalType": "uint256",
          "name": "",
          "type": "uint256"
        }
      ],
      "stateMutability": "view",
      "type": "function"
    },
    {
      "inputs": [],
      "name": "decimals",
      "outputs": [
        {
          "internalType": "uint8",
          "name": "",
          "type": "uint8"
        }
      ],
      "stateMutability": "view",
      "type": "function"
    },
    {
      "inputs": [
        {
          "internalType": "address",
          "name": "spender",
          "type": "address"
        },
        {
          "internalType": "uint256",
          "name": "subtractedValue",
          "type": "uint256"
        }
      ],
      "name": "decreaseAllowance",
      "outputs": [
        {
          "internalType": "bool",
          "name": "",
          "type": "bool"
        }
      ],
      "stateMutability": "nonpayable",
      "type": "function"
    },
    {
      "inputs": [
        {
          "internalType": "uint256",
          "name": "moduleIndex",
          "type": "uint256"
        },
        {
          "internalType": "bytes",
          "name": "initData",
          "type": "bytes"
        }
      ],
      "name": "deployEligibilityStorage",
      "outputs": [
        {
          "internalType": "address",
          "name": "",
          "type": "address"
        }
      ],
      "stateMutability": "nonpayable",
      "type": "function"
    },
    {
      "inputs": [],
      "name": "disableVaultFees",
      "outputs": [],
      "stateMutability": "nonpayable",
      "type": "function"
    },
    {
      "inputs": [],
      "name": "eligibilityStorage",
      "outputs": [
        {
          "internalType": "contract INFTXEligibility",
          "name": "",
          "type": "address"
        }
      ],
      "stateMutability": "view",
      "type": "function"
    },
    {
      "inputs": [],
      "name": "enableMint",
      "outputs": [
        {
          "internalType": "bool",
          "name": "",
          "type": "bool"
        }
      ],
      "stateMutability": "view",
      "type": "function"
    },
    {
      "inputs": [],
      "name": "enableRandomRedeem",
      "outputs": [
        {
          "internalType": "bool",
          "name": "",
          "type": "bool"
        }
      ],
      "stateMutability": "view",
      "type": "function"
    },
    {
      "inputs": [],
      "name": "enableRandomSwap",
      "outputs": [
        {
          "internalType": "bool",
          "name": "",
          "type": "bool"
        }
      ],
      "stateMutability": "view",
      "type": "function"
    },
    {
      "inputs": [],
      "name": "enableTargetRedeem",
      "outputs": [
        {
          "internalType": "bool",
          "name": "",
          "type": "bool"
        }
      ],
      "stateMutability": "view",
      "type": "function"
    },
    {
      "inputs": [],
      "name": "enableTargetSwap",
      "outputs": [
        {
          "internalType": "bool",
          "name": "",
          "type": "bool"
        }
      ],
      "stateMutability": "view",
      "type": "function"
    },
    {
      "inputs": [],
      "name": "finalizeVault",
      "outputs": [],
      "stateMutability": "nonpayable",
      "type": "function"
    },
    {
      "inputs": [
        {
          "internalType": "address",
          "name": "token",
          "type": "address"
        },
        {
          "internalType": "uint256",
          "name": "amount",
          "type": "uint256"
        }
      ],
      "name": "flashFee",
      "outputs": [
        {
          "internalType": "uint256",
          "name": "",
          "type": "uint256"
        }
      ],
      "stateMutability": "view",
      "type": "function"
    },
    {
      "inputs": [
        {
          "internalType": "contract IERC3156FlashBorrowerUpgradeable",
          "name": "receiver",
          "type": "address"
        },
        {
          "internalType": "address",
          "name": "token",
          "type": "address"
        },
        {
          "internalType": "uint256",
          "name": "amount",
          "type": "uint256"
        },
        {
          "internalType": "bytes",
          "name": "data",
          "type": "bytes"
        }
      ],
      "name": "flashLoan",
      "outputs": [
        {
          "internalType": "bool",
          "name": "",
          "type": "bool"
        }
      ],
      "stateMutability": "nonpayable",
      "type": "function"
    },
    {
      "inputs": [
        {
          "internalType": "address",
          "name": "spender",
          "type": "address"
        },
        {
          "internalType": "uint256",
          "name": "addedValue",
          "type": "uint256"
        }
      ],
      "name": "increaseAllowance",
      "outputs": [
        {
          "internalType": "bool",
          "name": "",
          "type": "bool"
        }
      ],
      "stateMutability": "nonpayable",
      "type": "function"
    },
    {
      "inputs": [],
      "name": "is1155",
      "outputs": [
        {
          "internalType": "bool",
          "name": "",
          "type": "bool"
        }
      ],
      "stateMutability": "view",
      "type": "function"
    },
    {
      "inputs": [],
      "name": "isUpgraded",
      "outputs": [
        {
          "internalType": "bool",
          "name": "",
          "type": "bool"
        }
      ],
      "stateMutability": "pure",
      "type": "function"
    },
    {
      "inputs": [],
      "name": "manager",
      "outputs": [
        {
          "internalType": "address",
          "name": "",
          "type": "address"
        }
      ],
      "stateMutability": "view",
      "type": "function"
    },
    {
      "inputs": [
        {
          "internalType": "address",
          "name": "token",
          "type": "address"
        }
      ],
      "name": "maxFlashLoan",
      "outputs": [
        {
          "internalType": "uint256",
          "name": "",
          "type": "uint256"
        }
      ],
      "stateMutability": "view",
      "type": "function"
    },
    {
      "inputs": [
        {
          "internalType": "uint256[]",
          "name": "tokenIds",
          "type": "uint256[]"
        },
        {
          "internalType": "uint256[]",
          "name": "amounts",
          "type": "uint256[]"
        }
      ],
      "name": "mint",
      "outputs": [
        {
          "internalType": "uint256",
          "name": "",
          "type": "uint256"
        }
      ],
      "stateMutability": "nonpayable",
      "type": "function"
    },
    {
      "inputs": [],
      "name": "mintFee",
      "outputs": [
        {
          "internalType": "uint256",
          "name": "",
          "type": "uint256"
        }
      ],
      "stateMutability": "view",
      "type": "function"
    },
    {
      "inputs": [
        {
          "internalType": "uint256[]",
          "name": "tokenIds",
          "type": "uint256[]"
        },
        {
          "internalType": "uint256[]",
          "name": "amounts",
          "type": "uint256[]"
        },
        {
          "internalType": "address",
          "name": "to",
          "type": "address"
        }
      ],
      "name": "mintTo",
      "outputs": [
        {
          "internalType": "uint256",
          "name": "",
          "type": "uint256"
        }
      ],
      "stateMutability": "nonpayable",
      "type": "function"
    },
    {
      "inputs": [],
      "name": "name",
      "outputs": [
        {
          "internalType": "string",
          "name": "",
          "type": "string"
        }
      ],
      "stateMutability": "view",
      "type": "function"
    },
    {
      "inputs": [
        {
          "internalType": "uint256",
          "name": "holdingsIndex",
          "type": "uint256"
        }
      ],
      "name": "nftIdAt",
      "outputs": [
        {
          "internalType": "uint256",
          "name": "",
          "type": "uint256"
        }
      ],
      "stateMutability": "view",
      "type": "function"
    },
    {
      "inputs": [
        {
          "internalType": "address",
          "name": "operator",
          "type": "address"
        },
        {
          "internalType": "address",
          "name": "",
          "type": "address"
        },
        {
          "internalType": "uint256[]",
          "name": "",
          "type": "uint256[]"
        },
        {
          "internalType": "uint256[]",
          "name": "",
          "type": "uint256[]"
        },
        {
          "internalType": "bytes",
          "name": "",
          "type": "bytes"
        }
      ],
      "name": "onERC1155BatchReceived",
      "outputs": [
        {
          "internalType": "bytes4",
          "name": "",
          "type": "bytes4"
        }
      ],
      "stateMutability": "nonpayable",
      "type": "function"
    },
    {
      "inputs": [
        {
          "internalType": "address",
          "name": "operator",
          "type": "address"
        },
        {
          "internalType": "address",
          "name": "",
          "type": "address"
        },
        {
          "internalType": "uint256",
          "name": "",
          "type": "uint256"
        },
        {
          "internalType": "uint256",
          "name": "",
          "type": "uint256"
        },
        {
          "internalType": "bytes",
          "name": "",
          "type": "bytes"
        }
      ],
      "name": "onERC1155Received",
      "outputs": [
        {
          "internalType": "bytes4",
          "name": "",
          "type": "bytes4"
        }
      ],
      "stateMutability": "nonpayable",
      "type": "function"
    },
    {
      "inputs": [
        {
          "internalType": "address",
          "name": "operator",
          "type": "address"
        },
        {
          "internalType": "address",
          "name": "",
          "type": "address"
        },
        {
          "internalType": "uint256",
          "name": "",
          "type": "uint256"
        },
        {
          "internalType": "bytes",
          "name": "",
          "type": "bytes"
        }
      ],
      "name": "onERC721Received",
      "outputs": [
        {
          "internalType": "bytes4",
          "name": "",
          "type": "bytes4"
        }
      ],
      "stateMutability": "nonpayable",
      "type": "function"
    },
    {
      "inputs": [],
      "name": "owner",
      "outputs": [
        {
          "internalType": "address",
          "name": "",
          "type": "address"
        }
      ],
      "stateMutability": "view",
      "type": "function"
    },
    {
      "inputs": [],
      "name": "randomRedeemFee",
      "outputs": [
        {
          "internalType": "uint256",
          "name": "",
          "type": "uint256"
        }
      ],
      "stateMutability": "view",
      "type": "function"
    },
    {
      "inputs": [],
      "name": "randomSwapFee",
      "outputs": [
        {
          "internalType": "uint256",
          "name": "",
          "type": "uint256"
        }
      ],
      "stateMutability": "view",
      "type": "function"
    },
    {
      "inputs": [
        {
          "internalType": "uint256",
          "name": "amount",
          "type": "uint256"
        },
        {
          "internalType": "uint256[]",
          "name": "specificIds",
          "type": "uint256[]"
        }
      ],
      "name": "redeem",
      "outputs": [
        {
          "internalType": "uint256[]",
          "name": "",
          "type": "uint256[]"
        }
      ],
      "stateMutability": "nonpayable",
      "type": "function"
    },
    {
      "inputs": [
        {
          "internalType": "uint256",
          "name": "amount",
          "type": "uint256"
        },
        {
          "internalType": "uint256[]",
          "name": "specificIds",
          "type": "uint256[]"
        },
        {
          "internalType": "address",
          "name": "to",
          "type": "address"
        }
      ],
      "name": "redeemTo",
      "outputs": [
        {
          "internalType": "uint256[]",
          "name": "",
          "type": "uint256[]"
        }
      ],
      "stateMutability": "nonpayable",
      "type": "function"
    },
    {
      "inputs": [],
      "name": "renounceOwnership",
      "outputs": [],
      "stateMutability": "nonpayable",
      "type": "function"
    },
    {
      "inputs": [
        {
          "internalType": "uint256",
          "name": "_mintFee",
          "type": "uint256"
        },
        {
          "internalType": "uint256",
          "name": "_randomRedeemFee",
          "type": "uint256"
        },
        {
          "internalType": "uint256",
          "name": "_targetRedeemFee",
          "type": "uint256"
        },
        {
          "internalType": "uint256",
          "name": "_randomSwapFee",
          "type": "uint256"
        },
        {
          "internalType": "uint256",
          "name": "_targetSwapFee",
          "type": "uint256"
        }
      ],
      "name": "setFees",
      "outputs": [],
      "stateMutability": "nonpayable",
      "type": "function"
    },
    {
      "inputs": [
        {
          "internalType": "address",
          "name": "_manager",
          "type": "address"
        }
      ],
      "name": "setManager",
      "outputs": [],
      "stateMutability": "nonpayable",
      "type": "function"
    },
    {
      "inputs": [
        {
          "internalType": "bool",
          "name": "_enableMint",
          "type": "bool"
        },
        {
          "internalType": "bool",
          "name": "_enableRandomRedeem",
          "type": "bool"
        },
        {
          "internalType": "bool",
          "name": "_enableTargetRedeem",
          "type": "bool"
        },
        {
          "internalType": "bool",
          "name": "_enableRandomSwap",
          "type": "bool"
        },
        {
          "internalType": "bool",
          "name": "_enableTargetSwap",
          "type": "bool"
        }
      ],
      "name": "setVaultFeatures",
      "outputs": [],
      "stateMutability": "nonpayable",
      "type": "function"
    },
    {
      "inputs": [
        {
          "internalType": "string",
          "name": "name_",
          "type": "string"
        },
        {
          "internalType": "string",
          "name": "symbol_",
          "type": "string"
        }
      ],
      "name": "setVaultMetadata",
      "outputs": [],
      "stateMutability": "nonpayable",
      "type": "function"
    },
    {
      "inputs": [
        {
          "internalType": "bytes4",
          "name": "interfaceId",
          "type": "bytes4"
        }
      ],
      "name": "supportsInterface",
      "outputs": [
        {
          "internalType": "bool",
          "name": "",
          "type": "bool"
        }
      ],
      "stateMutability": "view",
      "type": "function"
    },
    {
      "inputs": [
        {
          "internalType": "uint256[]",
          "name": "tokenIds",
          "type": "uint256[]"
        },
        {
          "internalType": "uint256[]",
          "name": "amounts",
          "type": "uint256[]"
        },
        {
          "internalType": "uint256[]",
          "name": "specificIds",
          "type": "uint256[]"
        }
      ],
      "name": "swap",
      "outputs": [
        {
          "internalType": "uint256[]",
          "name": "",
          "type": "uint256[]"
        }
      ],
      "stateMutability": "nonpayable",
      "type": "function"
    },
    {
      "inputs": [
        {
          "internalType": "uint256[]",
          "name": "tokenIds",
          "type": "uint256[]"
        },
        {
          "internalType": "uint256[]",
          "name": "amounts",
          "type": "uint256[]"
        },
        {
          "internalType": "uint256[]",
          "name": "specificIds",
          "type": "uint256[]"
        },
        {
          "internalType": "address",
          "name": "to",
          "type": "address"
        }
      ],
      "name": "swapTo",
      "outputs": [
        {
          "internalType": "uint256[]",
          "name": "",
          "type": "uint256[]"
        }
      ],
      "stateMutability": "nonpayable",
      "type": "function"
    },
    {
      "inputs": [],
      "name": "symbol",
      "outputs": [
        {
          "internalType": "string",
          "name": "",
          "type": "string"
        }
      ],
      "stateMutability": "view",
      "type": "function"
    },
    {
      "inputs": [],
      "name": "targetRedeemFee",
      "outputs": [
        {
          "internalType": "uint256",
          "name": "",
          "type": "uint256"
        }
      ],
      "stateMutability": "view",
      "type": "function"
    },
    {
      "inputs": [],
      "name": "targetSwapFee",
      "outputs": [
        {
          "internalType": "uint256",
          "name": "",
          "type": "uint256"
        }
      ],
      "stateMutability": "view",
      "type": "function"
    },
    {
      "inputs": [],
      "name": "totalHoldings",
      "outputs": [
        {
          "internalType": "uint256",
          "name": "",
          "type": "uint256"
        }
      ],
      "stateMutability": "view",
      "type": "function"
    },
    {
      "inputs": [],
      "name": "totalSupply",
      "outputs": [
        {
          "internalType": "uint256",
          "name": "",
          "type": "uint256"
        }
      ],
      "stateMutability": "view",
      "type": "function"
    },
    {
      "inputs": [
        {
          "internalType": "address",
          "name": "recipient",
          "type": "address"
        },
        {
          "internalType": "uint256",
          "name": "amount",
          "type": "uint256"
        }
      ],
      "name": "transfer",
      "outputs": [
        {
          "internalType": "bool",
          "name": "",
          "type": "bool"
        }
      ],
      "stateMutability": "nonpayable",
      "type": "function"
    },
    {
      "inputs": [
        {
          "internalType": "address",
          "name": "sender",
          "type": "address"
        },
        {
          "internalType": "address",
          "name": "recipient",
          "type": "address"
        },
        {
          "internalType": "uint256",
          "name": "amount",
          "type": "uint256"
        }
      ],
      "name": "transferFrom",
      "outputs": [
        {
          "internalType": "bool",
          "name": "",
          "type": "bool"
        }
      ],
      "stateMutability": "nonpayable",
      "type": "function"
    },
    {
      "inputs": [
        {
          "internalType": "address",
          "name": "newOwner",
          "type": "address"
        }
      ],
      "name": "transferOwnership",
      "outputs": [],
      "stateMutability": "nonpayable",
      "type": "function"
    },
    {
      "inputs": [],
      "name": "vaultFactory",
      "outputs": [
        {
          "internalType": "contract INFTXVaultFactory",
          "name": "",
          "type": "address"
        }
      ],
      "stateMutability": "view",
      "type": "function"
    },
    {
      "inputs": [],
      "name": "vaultFees",
      "outputs": [
        {
          "internalType": "uint256",
          "name": "",
          "type": "uint256"
        },
        {
          "internalType": "uint256",
          "name": "",
          "type": "uint256"
        },
        {
          "internalType": "uint256",
          "name": "",
          "type": "uint256"
        },
        {
          "internalType": "uint256",
          "name": "",
          "type": "uint256"
        },
        {
          "internalType": "uint256",
          "name": "",
          "type": "uint256"
        }
      ],
      "stateMutability": "view",
      "type": "function"
    },
    {
      "inputs": [],
      "name": "vaultId",
      "outputs": [
        {
          "internalType": "uint256",
          "name": "",
          "type": "uint256"
        }
      ],
      "stateMutability": "view",
      "type": "function"
    },
    {
      "inputs": [],
      "name": "version",
      "outputs": [
        {
          "internalType": "string",
          "name": "",
          "type": "string"
        }
      ],
      "stateMutability": "pure",
      "type": "function"
    }
  ],
  "bytecode": "0x608060405234801561001057600080fd5b50614e0b806100206000396000f3fe608060405234801561001057600080fd5b50600436106103a35760003560e01c806372188e3f116101e9578063d0ebdbe71161010f578063e78458c4116100ad578063f2fde38b1161007c578063f2fde38b14610887578063f7fce3341461089a578063fcc0e381146108a2578063feb8eba5146108b757600080fd5b8063e78458c414610821578063e9ec2e9914610834578063f1d20dd41461083c578063f23a6e611461084f57600080fd5b8063d8a06f73116100e9578063d8a06f73146107af578063d9d98ce4146107c2578063dd62ed3e146107d5578063e0a8b97a1461080e57600080fd5b8063d0ebdbe714610781578063d53f621714610794578063d6ee4a931461079c57600080fd5b80639d54def611610187578063bc197c8111610156578063bc197c811461071b578063c3cb8c1414610753578063c4a0db961461075b578063c4ff52471461076e57600080fd5b80639d54def6146106cf578063a457c2d7146106e2578063a9059cbb146106f5578063b10402ea1461070857600080fd5b80638da5cb5b116101c35780638da5cb5b1461069b5780638f878a43146106ac5780638fc871d3146106bf57806395d89b41146106c757600080fd5b806372188e3f1461064257806379309658146106725780638c8508141461068857600080fd5b806335dca76c116102ce5780635035434a1161026c578063613255ab1161023b578063613255ab146105eb5780636b948a35146105fe57806370a0823114610611578063715018a61461063a57600080fd5b80635035434a1461057e57806354fd4d501461058c5780635877aee6146105c55780635cffe9de146105d857600080fd5b806342c80fc9116102a857806342c80fc91461053d57806344b28d591461054457806345a0b65214610558578063481c6a751461056b57600080fd5b806335dca76c1461050f57806339509351146105175780633d5d190c1461052a57600080fd5b806313966db51161034657806323b872dd1161031557806323b872dd146104cf57806325705d8d146104e2578063313ce567146104f757806333194c0a1461050657600080fd5b806313966db514610436578063150b7a021461044c57806318160ddd1461049c5780631ba46cfd146104a457600080fd5b806306f26dc21161038257806306f26dc2146103ed57806306fdde03146103fb578063095ea7b3146104105780630d636a091461042357600080fd5b8062518161146103a857806301ffc9a7146103b257806304a66b48146103da575b600080fd5b6103b06108bf565b005b6103c56103c03660046147b5565b610949565b60405190151581526020015b60405180910390f35b6103b06103e83660046149d6565b6109b2565b610104546103c59060ff1681565b610403610a5f565b6040516103d19190614c1c565b6103c561041e3660046144a8565b610af1565b6103b061043136600461472d565b610b07565b61043e610c7b565b6040519081526020016103d1565b61048361045a3660046143d7565b7f150b7a0200000000000000000000000000000000000000000000000000000000949350505050565b6040516001600160e01b031990911681526020016103d1565b60675461043e565b60fd546104b7906001600160a01b031681565b6040516001600160a01b0390911681526020016103d1565b6103c56104dd366004614397565b610d10565b6104ea610ddb565b6040516103d19190614b61565b604051601281526020016103d1565b61043e60fb5481565b61043e610e9c565b6103c56105253660046144a8565b610f30565b61043e6105383660046144d3565b610f67565b60016103c5565b610104546103c59062010000900460ff1681565b61043e6105663660046148c0565b610fe1565b60fc546104b7906001600160a01b031681565b610108546103c59060ff1681565b60408051808201909152600681527f76312e302e3500000000000000000000000000000000000000000000000000006020820152610403565b6104b76105d336600461495f565b610fef565b6103c56105e63660046147dd565b611204565b61043e6105f936600461427d565b61121c565b610104546103c590610100900460ff1681565b61043e61061f36600461427d565b6001600160a01b031660009081526065602052604090205490565b6103b0611244565b61064a6112e8565b604080519586526020860194909452928401919091526060830152608082015260a0016103d1565b610104546103c590640100000000900460ff1681565b6104ea61069636600461467a565b611382565b6033546001600160a01b03166104b7565b60ff546104b7906001600160a01b031681565b6103b061161b565b610403611738565b6104ea6106dd366004614922565b611747565b6103c56106f03660046144a8565b61194c565b6103c56107033660046144a8565b6119ff565b61043e610716366004614605565b611a0c565b6104836107293660046142ed565b7fbc197c810000000000000000000000000000000000000000000000000000000095945050505050565b6103b0611b5c565b6104ea6107693660046148d8565b611b68565b610108546103c590610100900460ff1681565b6103b061078f36600461427d565b611bb1565b61043e611c0d565b6104ea6107aa36600461453c565b611ca1565b60fe546104b7906001600160a01b031681565b61043e6107d03660046144a8565b611d4e565b61043e6107e33660046142b5565b6001600160a01b03918216600090815260666020908152604080832093909416825291909152205490565b6103b061081c3660046147f2565b611db1565b6103b061082f366004614853565b611dc7565b61043e61201d565b6103c561084a3660046145d2565b61202f565b61048361085d366004614441565b7ff23a6e610000000000000000000000000000000000000000000000000000000095945050505050565b6103b061089536600461427d565b612101565b61043e612233565b610104546103c5906301000000900460ff1681565b61043e6122c8565b6108c761235d565b60fe5460fb546040517fc182f2b20000000000000000000000000000000000000000000000000000000081526001600160a01b039092169163c182f2b2916109159160040190815260200190565b600060405180830381600087803b15801561092f57600080fd5b505af1158015610943573d6000803e3d6000fd5b50505050565b60006001600160e01b031982167f4e2312e00000000000000000000000000000000000000000000000000000000014806109ac57507f01ffc9a7000000000000000000000000000000000000000000000000000000006001600160e01b03198316145b92915050565b6109ba61235d565b60fe5460fb546040517f219962d200000000000000000000000000000000000000000000000000000000815260048101919091526024810187905260448101869052606481018590526084810184905260a481018390526001600160a01b039091169063219962d29060c401600060405180830381600087803b158015610a4057600080fd5b505af1158015610a54573d6000803e3d6000fd5b505050505050505050565b606060688054610a6e90614d10565b80601f0160208091040260200160405190810160405280929190818152602001828054610a9a90614d10565b8015610ae75780601f10610abc57610100808354040283529160200191610ae7565b820191906000526020600020905b815481529060010190602001808311610aca57829003601f168201915b5050505050905090565b6000610afe338484612421565b50600192915050565b610b0f61235d565b610104805463ffff000019166201000087151590810263ff0000001916919091176301000000871515021764ff0000000019166401000000008615150217909155610108805461ffff191684151561ff00191617610100841515021790556040519081527fc604be2f834727754dc1ec1225c14d1ecde48e7d12fa7b745dfb137a3db998bd9060200160405180910390a160405184151581527f835d9397f97f5df575f718046bb3e918f911d39d7edfa79aa8d40ddc7d5ce2a59060200160405180910390a160405183151581527f64b60f32742df47d4ccb5b31ca12fee1bc20695467bfe8fa058b00ec446c15639060200160405180910390a160405182151581527f7e8b58aeb3d1d3a1777185c996f374a5d3c46ef3cd25a07ec6eb2569488d50589060200160405180910390a160405181151581527fbfb092a6cb2d49526b6982acab35d64782cf1c05f8c8f0dd88008b288bfa5af59060200160405180910390a15050505050565b60fe5460fb54604051632206137960e01b815260009283926001600160a01b0390911691632206137991610cb59160040190815260200190565b60a06040518083038186803b158015610ccd57600080fd5b505afa158015610ce1573d6000803e3d6000fd5b505050506040513d601f19601f82011682018060405250810190610d059190614a10565b509295945050505050565b6000610d1d84848461257a565b6001600160a01b038416600090815260666020908152604080832033845290915290205482811015610dbc5760405162461bcd60e51b815260206004820152602860248201527f45524332303a207472616e7366657220616d6f756e742065786365656473206160448201527f6c6c6f77616e636500000000000000000000000000000000000000000000000060648201526084015b60405180910390fd5b610dd08533610dcb8685614ccd565b612421565b506001949350505050565b60606000610dea61010561279b565b905060008167ffffffffffffffff811115610e1557634e487b7160e01b600052604160045260246000fd5b604051908082528060200260200182016040528015610e3e578160200160208202803683370190505b50905060005b82811015610e9557610e58610105826127a5565b828281518110610e7857634e487b7160e01b600052603260045260246000fd5b602090810291909101015280610e8d81614d4b565b915050610e44565b5092915050565b60fe5460fb54604051632206137960e01b815260009283926001600160a01b0390911691632206137991610ed69160040190815260200190565b60a06040518083038186803b158015610eee57600080fd5b505afa158015610f02573d6000803e3d6000fd5b505050506040513d601f19601f82011682018060405250810190610f269190614a10565b9695505050505050565b3360008181526066602090815260408083206001600160a01b03871684529091528120549091610afe918590610dcb908690614c96565b6000610fd885858080602002602001604051908101604052809392919081815260200183836020028082843760009201919091525050604080516020808902828101820190935288825290935088925087918291850190849080828437600092019190915250339250611a0c915050565b95945050505050565b60006109ac610105836127a5565b6000610ff961235d565b60ff546001600160a01b0316156110785760405162461bcd60e51b815260206004820152602260248201527f4e4654585661756c743a20656c69676962696c69747920616c7265616479207360448201527f65740000000000000000000000000000000000000000000000000000000000006064820152608401610db3565b60fe54604080517f14c77faa00000000000000000000000000000000000000000000000000000000815290516000926001600160a01b0316916314c77faa916004808301926020929190829003018186803b1580156110d657600080fd5b505afa1580156110ea573d6000803e3d6000fd5b505050506040513d601f19601f8201168201806040525081019061110e9190614299565b90506000816001600160a01b031663576ff9088787876040518463ffffffff1660e01b815260040161114293929190614c2f565b602060405180830381600087803b15801561115c57600080fd5b505af1158015611170573d6000803e3d6000fd5b505050506040513d601f19601f820116820180604052508101906111949190614299565b60ff80546001600160a01b0319166001600160a01b038316908117909155610104805461ff00191690556040805189815260208101929092529192507fe14c63b3d4272158635bee1d1b95b51bb8de042ee95a15cbfaf2865b4d0af811910160405180910390a195945050505050565b600061121060046127b1565b610fd8858585856128ab565b60006001600160a01b03821630146112355760006109ac565b6067546109ac90600019614ccd565b6033546001600160a01b0316331461129e5760405162461bcd60e51b815260206004820181905260248201527f4f776e61626c653a2063616c6c6572206973206e6f7420746865206f776e65726044820152606401610db3565b6033546040516000916001600160a01b0316907f8be0079c531659141344cd1fd0a4f28419497f9722a3daafe3b4186f6b6457e0908390a3603380546001600160a01b0319169055565b60fe5460fb54604051632206137960e01b8152600481019190915260009182918291829182916001600160a01b03169063220613799060240160a06040518083038186803b15801561133957600080fd5b505afa15801561134d573d6000803e3d6000fd5b505050506040513d601f19601f820116820180604052508101906113719190614a10565b945094509450945094509091929394565b6060600260c95414156113d75760405162461bcd60e51b815260206004820152601f60248201527f5265656e7472616e637947756172643a207265656e7472616e742063616c6c006044820152606401610db3565b600260c9556113e660036127b1565b6101045460009060ff16156114a35760005b865181101561149d57600086828151811061142357634e487b7160e01b600052603260045260246000fd5b602002602001015190506000811161147d5760405162461bcd60e51b815260206004820152601b60248201527f4e4654585661756c743a207472616e7366657272696e67203c203100000000006044820152606401610db3565b6114878184614c96565b925050808061149590614d4b565b9150506113f8565b506114a7565b5084515b83518114806114b957506101085460ff165b6115055760405162461bcd60e51b815260206004820152601f60248201527f4e4654585661756c743a2052616e646f6d20737761702064697361626c6564006044820152606401610db3565b8351158061151b575061010854610100900460ff165b6115675760405162461bcd60e51b815260206004820152601f60248201527f4e4654585661756c743a2054617267657420737761702064697361626c6564006044820152606401610db3565b60008451826115769190614ccd565b61157e611c0d565b6115889190614cae565b8551611592610e9c565b61159c9190614cae565b6115a69190614c96565b90506115b23382612acf565b60006115bf838787612c91565b90506115cb8888612e94565b507f66982ed4a058811a8004bdcec9adcb3671f2b4f1a788667a3a74959d7c09af3c8888888489604051611603959493929190614bb3565b60405180910390a1600160c955979650505050505050565b73dea9196dcdd2173d6e369c2acc0facc83fd9346a331461167e5760405162461bcd60e51b815260206004820152600760248201527f4e6f7420646576000000000000000000000000000000000000000000000000006044820152606401610db3565b61010454610108805461ffff19166301000000830460ff908116151561ff00191691909117610100640100000000909404821615159390930292909217908190556040519116151581527f7e8b58aeb3d1d3a1777185c996f374a5d3c46ef3cd25a07ec6eb2569488d50589060200160405180910390a16101085460405161010090910460ff16151581527fbfb092a6cb2d49526b6982acab35d64782cf1c05f8c8f0dd88008b288bfa5af59060200160405180910390a1565b606060698054610a6e90614d10565b6060600260c954141561179c5760405162461bcd60e51b815260206004820152601f60248201527f5265656e7472616e637947756172643a207265656e7472616e742063616c6c006044820152606401610db3565b600260c98190556117ac906127b1565b82518414806117c55750610104546301000000900460ff165b61181d5760405162461bcd60e51b8152602060048201526024808201527f4e4654585661756c743a2052616e646f6d2072656465656d206e6f7420656e61604482015263189b195960e21b6064820152608401610db3565b82511580611836575061010454640100000000900460ff165b61188e5760405162461bcd60e51b8152602060048201526024808201527f4e4654585661756c743a205461726765742072656465656d206e6f7420656e61604482015263189b195960e21b6064820152608401610db3565b6118a9336118a486670de0b6b3a7640000614cae565b613119565b60008351856118b89190614ccd565b6118c0612233565b6118ca9190614cae565b84516118d46122c8565b6118de9190614cae565b6118e89190614c96565b90506118f43382612acf565b6000611901868686612c91565b90507f63b13f6307f284441e029836b0c22eb91eb62a7ad555670061157930ce884f4e81868660405161193693929190614b74565b60405180910390a1600160c95595945050505050565b3360009081526066602090815260408083206001600160a01b0386168452909152812054828110156119e65760405162461bcd60e51b815260206004820152602560248201527f45524332303a2064656372656173656420616c6c6f77616e63652062656c6f7760448201527f207a65726f0000000000000000000000000000000000000000000000000000006064820152608401610db3565b6119f53385610dcb8685614ccd565b5060019392505050565b6000610afe33848461257a565b6000600260c9541415611a615760405162461bcd60e51b815260206004820152601f60248201527f5265656e7472616e637947756172643a207265656e7472616e742063616c6c006044820152606401610db3565b600260c955611a7060016127b1565b6101045462010000900460ff16611ac95760405162461bcd60e51b815260206004820152601360248201527f4d696e74696e67206e6f7420656e61626c6564000000000000000000000000006044820152606401610db3565b6000611ad58585612e94565b9050611af283611aed83670de0b6b3a7640000614cae565b61329f565b600081611afd610c7b565b611b079190614cae565b9050611b138482612acf565b7f1f72ad2a14447fa756b6f5aca53504645af79813493aca2d906b69e4aaeb9492868686604051611b4693929190614b74565b60405180910390a150600160c955949350505050565b611b666000611bb1565b565b6060611ba984848480806020026020016040519081016040528093929190818152602001838360200280828437600092019190915250339250611747915050565b949350505050565b611bb961235d565b60fc80546001600160a01b0319166001600160a01b0383169081179091556040519081527f60a0f5b9f9e81e98216071b85826681c796256fe3d1354ecb675580fba64fa699060200160405180910390a150565b60fe5460fb54604051632206137960e01b815260009283926001600160a01b0390911691632206137991611c479160040190815260200190565b60a06040518083038186803b158015611c5f57600080fd5b505afa158015611c73573d6000803e3d6000fd5b505050506040513d601f19601f82011682018060405250810190611c979190614a10565b5095945050505050565b6060611d4387878080602002602001604051908101604052809392919081815260200183836020028082843760009201919091525050604080516020808b0282810182019093528a82529093508a92508991829185019084908082843760009201919091525050604080516020808a02828101820190935289825290935089925088918291850190849080828437600092019190915250339250611382915050565b979650505050505050565b60006001600160a01b0383163014611da85760405162461bcd60e51b815260206004820152601b60248201527f4552433230466c6173684d696e743a2077726f6e6720746f6b656e00000000006044820152606401610db3565b50600092915050565b611db961235d565b611dc3828261337e565b5050565b600054610100900460ff1680611de0575060005460ff16155b611e435760405162461bcd60e51b815260206004820152602e60248201527f496e697469616c697a61626c653a20636f6e747261637420697320616c72656160448201526d191e481a5b9a5d1a585b1a5e995960921b6064820152608401610db3565b600054610100900460ff16158015611e65576000805461ffff19166101011790555b611e6d6133aa565b611e77868661346c565b6001600160a01b038416611ecd5760405162461bcd60e51b815260206004820152601360248201527f417373657420213d2061646472657373283029000000000000000000000000006044820152606401610db3565b60fd80546001600160a01b03199081166001600160a01b0387161790915560fe805433921682179055604080517f264a6208000000000000000000000000000000000000000000000000000000008152905163264a620891600480820192602092909190829003018186803b158015611f4557600080fd5b505afa158015611f59573d6000803e3d6000fd5b505050506040513d601f19601f82011682018060405250810190611f7d919061479d565b60fb8190556101048054841515610100810261ff001988151590811661ffff199094169390931717909255604080516001600160a01b038916815260208101929092528101919091527f18ecce5c418b882a3d89e5b6cc8100dc3383309b8e78525266fe1283a7f934d69060600160405180910390a26120036001806001806001610b07565b8015612015576000805461ff00191690555b505050505050565b600061202a61010561279b565b905090565b61010454600090610100900460ff161561204b57506001919050565b60ff546001600160a01b0316806120655750600092915050565b6040517f84ca9f850000000000000000000000000000000000000000000000000000000081526001600160a01b038216906384ca9f85906120aa908690600401614b61565b60206040518083038186803b1580156120c257600080fd5b505afa1580156120d6573d6000803e3d6000fd5b505050506040513d601f19601f820116820180604052508101906120fa9190614711565b9392505050565b6033546001600160a01b0316331461215b5760405162461bcd60e51b815260206004820181905260248201527f4f776e61626c653a2063616c6c6572206973206e6f7420746865206f776e65726044820152606401610db3565b6001600160a01b0381166121d75760405162461bcd60e51b815260206004820152602660248201527f4f776e61626c653a206e6577206f776e657220697320746865207a65726f206160448201527f64647265737300000000000000000000000000000000000000000000000000006064820152608401610db3565b6033546040516001600160a01b038084169216907f8be0079c531659141344cd1fd0a4f28419497f9722a3daafe3b4186f6b6457e090600090a3603380546001600160a01b0319166001600160a01b0392909216919091179055565b60fe5460fb54604051632206137960e01b815260009283926001600160a01b039091169163220613799161226d9160040190815260200190565b60a06040518083038186803b15801561228557600080fd5b505afa158015612299573d6000803e3d6000fd5b505050506040513d601f19601f820116820180604052508101906122bd9190614a10565b509195945050505050565b60fe5460fb54604051632206137960e01b815260009283926001600160a01b03909116916322061379916123029160040190815260200190565b60a06040518083038186803b15801561231a57600080fd5b505afa15801561232e573d6000803e3d6000fd5b505050506040513d601f19601f820116820180604052508101906123529190614a10565b509095945050505050565b60fc546001600160a01b03166123c7576033546001600160a01b03163314611b665760405162461bcd60e51b815260206004820152600960248201527f4e6f74206f776e657200000000000000000000000000000000000000000000006044820152606401610db3565b60fc546001600160a01b03163314611b665760405162461bcd60e51b815260206004820152600b60248201527f4e6f74206d616e616765720000000000000000000000000000000000000000006044820152606401610db3565b6001600160a01b03831661249c5760405162461bcd60e51b8152602060048201526024808201527f45524332303a20617070726f76652066726f6d20746865207a65726f2061646460448201527f72657373000000000000000000000000000000000000000000000000000000006064820152608401610db3565b6001600160a01b0382166125185760405162461bcd60e51b815260206004820152602260248201527f45524332303a20617070726f766520746f20746865207a65726f20616464726560448201527f73730000000000000000000000000000000000000000000000000000000000006064820152608401610db3565b6001600160a01b0383811660008181526066602090815260408083209487168084529482529182902085905590518481527f8c5be1e5ebec7d5bd14f71427d1e84f3dd0314c0f7b2291e5b200ac8c7c3b92591015b60405180910390a3505050565b6001600160a01b0383166125f65760405162461bcd60e51b815260206004820152602560248201527f45524332303a207472616e736665722066726f6d20746865207a65726f20616460448201527f64726573730000000000000000000000000000000000000000000000000000006064820152608401610db3565b6001600160a01b0382166126725760405162461bcd60e51b815260206004820152602360248201527f45524332303a207472616e7366657220746f20746865207a65726f206164647260448201527f65737300000000000000000000000000000000000000000000000000000000006064820152608401610db3565b6001600160a01b038316600090815260656020526040902054818110156127015760405162461bcd60e51b815260206004820152602660248201527f45524332303a207472616e7366657220616d6f756e742065786365656473206260448201527f616c616e636500000000000000000000000000000000000000000000000000006064820152608401610db3565b61270b8282614ccd565b6001600160a01b038086166000908152606560205260408082209390935590851681529081208054849290612741908490614c96565b92505081905550826001600160a01b0316846001600160a01b03167fddf252ad1be2c89b69c2b068fc378daa952ba7f163c4a11628f55a4df523b3ef8460405161278d91815260200190565b60405180910390a350505050565b60006109ac825490565b60006120fa8383613532565b60fe546040517ff6aacfb1000000000000000000000000000000000000000000000000000000008152600481018390526001600160a01b039091169063f6aacfb19060240160206040518083038186803b15801561280e57600080fd5b505afa158015612822573d6000803e3d6000fd5b505050506040513d601f19601f820116820180604052508101906128469190614711565b158061285c57506033546001600160a01b031633145b6128a85760405162461bcd60e51b815260206004820152600660248201527f50617573656400000000000000000000000000000000000000000000000000006044820152606401610db3565b50565b6000806128b88585611d4e565b90506128c4868561329f565b6040517f23e30c8b0000000000000000000000000000000000000000000000000000000081527f439148f0bbc682ca079e46d6e2c2f0c1e3b820f1a291b069d8882abf8cf18dd9906001600160a01b038816906323e30c8b906129339033908a908a9088908b90600401614b29565b602060405180830381600087803b15801561294d57600080fd5b505af1158015612961573d6000803e3d6000fd5b505050506040513d601f19601f82011682018060405250810190612985919061479d565b146129f75760405162461bcd60e51b8152602060048201526024808201527f4552433230466c6173684d696e743a20696e76616c69642072657475726e207660448201527f616c7565000000000000000000000000000000000000000000000000000000006064820152608401610db3565b6001600160a01b0386166000908152606660209081526040808320308452909152902054612a258286614c96565b811015612a9a5760405162461bcd60e51b815260206004820152602f60248201527f4552433230466c6173684d696e743a20616c6c6f77616e636520646f6573206e60448201527f6f7420616c6c6f7720726566756e6400000000000000000000000000000000006064820152608401610db3565b612ab4873084612aaa8986614ccd565b610dcb9190614ccd565b612ac2876118a48488614c96565b5060019695505050505050565b60fe546040517fdbe66ca00000000000000000000000000000000000000000000000000000000081523360048201526001600160a01b039091169063dbe66ca09060240160206040518083038186803b158015612b2b57600080fd5b505afa158015612b3f573d6000803e3d6000fd5b505050506040513d601f19601f82011682018060405250810190612b639190614711565b15612b6c575050565b8015611dc35760fe54604080517f0d43e8ad00000000000000000000000000000000000000000000000000000000815290516000926001600160a01b031691630d43e8ad916004808301926020929190829003018186803b158015612bd057600080fd5b505afa158015612be4573d6000803e3d6000fd5b505050506040513d601f19601f82011682018060405250810190612c089190614299565b9050612c1583828461257a565b60fb546040517f91c05b0b00000000000000000000000000000000000000000000000000000000815260048101919091526001600160a01b038216906391c05b0b90602401600060405180830381600087803b158015612c7457600080fd5b505af1158015612c88573d6000803e3d6000fd5b50505050505050565b6101045460fd5460609160ff16906001600160a01b031660008667ffffffffffffffff811115612cd157634e487b7160e01b600052604160045260246000fd5b604051908082528060200260200182016040528015612cfa578160200160208202803683370190505b50905060005b87811015612e8a57600087518210612d1f57612d1a61356a565b612d48565b878281518110612d3f57634e487b7160e01b600052603260045260246000fd5b60200260200101515b905080838381518110612d6b57634e487b7160e01b600052603260045260246000fd5b6020026020010181815250508415612e5f57600081815261010760205260408120805460019290612d9d908490614ccd565b909155505060008181526101076020526040902054612dc457612dc26101058261360e565b505b6040517ff242432a0000000000000000000000000000000000000000000000000000000081523060048201526001600160a01b038881166024830152604482018390526001606483015260a06084830152600060a483015285169063f242432a9060c401600060405180830381600087803b158015612e4257600080fd5b505af1158015612e56573d6000803e3d6000fd5b50505050612e77565b612e6b6101058261360e565b50612e7784888361361a565b5080612e8281614d4b565b915050612d00565b50610f26816137f6565b6000612e9f8361202f565b612eeb5760405162461bcd60e51b815260206004820152601760248201527f4e4654585661756c743a206e6f7420656c696769626c650000000000000000006044820152606401610db3565b6101045460ff161561309f5760fd546040517f2eb2c2d60000000000000000000000000000000000000000000000000000000081526001600160a01b0390911690632eb2c2d690612f46903390309088908890600401614ad1565b600060405180830381600087803b158015612f6057600080fd5b505af1158015612f74573d6000803e3d6000fd5b5060009250829150505b8451811015613097576000858281518110612fa957634e487b7160e01b600052603260045260246000fd5b602002602001015190506000858381518110612fd557634e487b7160e01b600052603260045260246000fd5b602002602001015190506000811161302f5760405162461bcd60e51b815260206004820152601b60248201527f4e4654585661756c743a207472616e7366657272696e67203c203100000000006044820152606401610db3565b600082815261010760205260409020546130515761304f6101058361387e565b505b6000828152610107602052604081208054839290613070908490614c96565b9091555061308090508185614c96565b93505050808061308f90614d4b565b915050612f7e565b5090506109ac565b60fd546001600160a01b031660005b845181101561310e5760008582815181106130d957634e487b7160e01b600052603260045260246000fd5b602002602001015190506130ed838261388a565b6130f96101058261387e565b5050808061310690614d4b565b9150506130ae565b5083519150506109ac565b6001600160a01b0382166131955760405162461bcd60e51b815260206004820152602160248201527f45524332303a206275726e2066726f6d20746865207a65726f2061646472657360448201527f73000000000000000000000000000000000000000000000000000000000000006064820152608401610db3565b6001600160a01b038216600090815260656020526040902054818110156132245760405162461bcd60e51b815260206004820152602260248201527f45524332303a206275726e20616d6f756e7420657863656564732062616c616e60448201527f63650000000000000000000000000000000000000000000000000000000000006064820152608401610db3565b61322e8282614ccd565b6001600160a01b0384166000908152606560205260408120919091556067805484929061325c908490614ccd565b90915550506040518281526000906001600160a01b038516907fddf252ad1be2c89b69c2b068fc378daa952ba7f163c4a11628f55a4df523b3ef9060200161256d565b6001600160a01b0382166132f55760405162461bcd60e51b815260206004820152601f60248201527f45524332303a206d696e7420746f20746865207a65726f2061646472657373006044820152606401610db3565b80606760008282546133079190614c96565b90915550506001600160a01b03821660009081526065602052604081208054839290613334908490614c96565b90915550506040518181526001600160a01b038316906000907fddf252ad1be2c89b69c2b068fc378daa952ba7f163c4a11628f55a4df523b3ef9060200160405180910390a35050565b81516133919060689060208501906140ac565b5080516133a59060699060208401906140ac565b505050565b600054610100900460ff16806133c3575060005460ff16155b6134265760405162461bcd60e51b815260206004820152602e60248201527f496e697469616c697a61626c653a20636f6e747261637420697320616c72656160448201526d191e481a5b9a5d1a585b1a5e995960921b6064820152608401610db3565b600054610100900460ff16158015613448576000805461ffff19166101011790555b613450613cbe565b613458613d6f565b80156128a8576000805461ff001916905550565b600054610100900460ff1680613485575060005460ff16155b6134e85760405162461bcd60e51b815260206004820152602e60248201527f496e697469616c697a61626c653a20636f6e747261637420697320616c72656160448201526d191e481a5b9a5d1a585b1a5e995960921b6064820152608401610db3565b600054610100900460ff1615801561350a576000805461ffff19166101011790555b613512613cbe565b61351c8383613e64565b80156133a5576000805461ff0019169055505050565b600082600001828154811061355757634e487b7160e01b600052603260045260246000fd5b9060005260206000200154905092915050565b60008061357861010561279b565b613583600143614ccd565b61010054604080519240602084015282015241606090811b6bffffffffffffffffffffffff19169082015244607482015242609482015260b4016040516020818303038152906040528051906020012060001c6135e09190614d66565b9050600161010060008282546135f69190614c96565b909155506136089050610105826127a5565b91505090565b60006120fa8383613f40565b7306012c8cf97bead5deae237070f9587f8e7a266d73b47e3cd837ddf8e4c57f05d70ab865de6e193bbb60606001600160a01b0386168314156136bd576040516001600160a01b03861660248201526044810185905260640160408051601f198184030181529190526020810180516001600160e01b03167fa9059cbb00000000000000000000000000000000000000000000000000000000179052905061378c565b816001600160a01b0316866001600160a01b0316141561373d576040516001600160a01b03861660248201526044810185905260640160408051601f198184030181529190526020810180516001600160e01b03167f8b72a2ec00000000000000000000000000000000000000000000000000000000179052905061378c565b6040513060248201526001600160a01b03861660448201526064810185905260840160408051601f198184030181529190526020810180516001600160e01b0316632142170760e11b17905290505b6000866001600160a01b0316826040516137a69190614ab5565b6000604051808303816000865af19150503d80600081146137e3576040519150601f19603f3d011682016040523d82523d6000602084013e6137e8565b606091505b5050905080612c8857600080fd5b60ff546001600160a01b03168061380b575050565b6040517f5e2f9b520000000000000000000000000000000000000000000000000000000081526001600160a01b03821690635e2f9b5290613850908590600401614b61565b600060405180830381600087803b15801561386a57600080fd5b505af1158015612015573d6000803e3d6000fd5b60006120fa838361405d565b7306012c8cf97bead5deae237070f9587f8e7a266d73b47e3cd837ddf8e4c57f05d70ab865de6e193bbb60606001600160a01b03851683141561392a576040513360248201523060448201526064810185905260840160408051601f198184030181529190526020810180516001600160e01b03167f23b872dd000000000000000000000000000000000000000000000000000000001790529050613c32565b816001600160a01b0316856001600160a01b03161415613ad55760008460405160240161395991815260200190565b60408051601f198184030181529181526020820180516001600160e01b03167f58178168000000000000000000000000000000000000000000000000000000001790525190915060009081906001600160a01b038916906139bb908590614ab5565b600060405180830381855afa9150503d80600081146139f6576040519150601f19603f3d011682016040523d82523d6000602084013e6139fb565b606091505b5091509150600081806020019051810190613a169190614299565b9050828015613a2d57506001600160a01b03811633145b613a795760405162461bcd60e51b815260206004820152600d60248201527f4e6f7420746865206f776e6572000000000000000000000000000000000000006044820152606401610db3565b6040516024810189905260440160408051601f198184030181529190526020810180516001600160e01b03167f8264fe98000000000000000000000000000000000000000000000000000000001790529450613c329350505050565b60fd546040517f6352211e0000000000000000000000000000000000000000000000000000000081526004810186905230916001600160a01b031690636352211e9060240160206040518083038186803b158015613b3257600080fd5b505afa158015613b46573d6000803e3d6000fd5b505050506040513d601f19601f82011682018060405250810190613b6a9190614299565b6001600160a01b03161415613bec57613b9861010585600081815260018301602052604081205415156120fa565b15613be55760405162461bcd60e51b815260206004820152601a60248201527f547279696e6720746f2075736520616e206f776e6564204e46540000000000006044820152606401610db3565b5050505050565b6040513360248201523060448201526064810185905260840160408051601f198184030181529190526020810180516001600160e01b0316632142170760e11b17905290505b600080866001600160a01b031683604051613c4d9190614ab5565b6000604051808303816000865af19150503d8060008114613c8a576040519150601f19603f3d011682016040523d82523d6000602084013e613c8f565b606091505b5091509150818190613cb45760405162461bcd60e51b8152600401610db39190614c1c565b5050505050505050565b600054610100900460ff1680613cd7575060005460ff16155b613d3a5760405162461bcd60e51b815260206004820152602e60248201527f496e697469616c697a61626c653a20636f6e747261637420697320616c72656160448201526d191e481a5b9a5d1a585b1a5e995960921b6064820152608401610db3565b600054610100900460ff16158015613458576000805461ffff191661010117905580156128a8576000805461ff001916905550565b600054610100900460ff1680613d88575060005460ff16155b613deb5760405162461bcd60e51b815260206004820152602e60248201527f496e697469616c697a61626c653a20636f6e747261637420697320616c72656160448201526d191e481a5b9a5d1a585b1a5e995960921b6064820152608401610db3565b600054610100900460ff16158015613e0d576000805461ffff19166101011790555b603380546001600160a01b0319163390811790915560405181906000907f8be0079c531659141344cd1fd0a4f28419497f9722a3daafe3b4186f6b6457e0908290a35080156128a8576000805461ff001916905550565b600054610100900460ff1680613e7d575060005460ff16155b613ee05760405162461bcd60e51b815260206004820152602e60248201527f496e697469616c697a61626c653a20636f6e747261637420697320616c72656160448201526d191e481a5b9a5d1a585b1a5e995960921b6064820152608401610db3565b600054610100900460ff16158015613f02576000805461ffff19166101011790555b8251613f159060689060208601906140ac565b508151613f299060699060208501906140ac565b5080156133a5576000805461ff0019169055505050565b60008181526001830160205260408120548015614053576000613f64600183614ccd565b8554909150600090613f7890600190614ccd565b9050818114613ff9576000866000018281548110613fa657634e487b7160e01b600052603260045260246000fd5b9060005260206000200154905080876000018481548110613fd757634e487b7160e01b600052603260045260246000fd5b6000918252602080832090910192909255918252600188019052604090208390555b855486908061401857634e487b7160e01b600052603160045260246000fd5b6001900381819060005260206000200160009055905585600101600086815260200190815260200160002060009055600193505050506109ac565b60009150506109ac565b60008181526001830160205260408120546140a4575081546001818101845560008481526020808220909301849055845484825282860190935260409020919091556109ac565b5060006109ac565b8280546140b890614d10565b90600052602060002090601f0160209004810192826140da5760008555614120565b82601f106140f357805160ff1916838001178555614120565b82800160010185558215614120579182015b82811115614120578251825591602001919060010190614105565b5061412c929150614130565b5090565b5b8082111561412c5760008155600101614131565b60008083601f840112614156578182fd5b50813567ffffffffffffffff81111561416d578182fd5b6020830191508360208260051b850101111561418857600080fd5b9250929050565b600082601f83011261419f578081fd5b8135602067ffffffffffffffff8211156141bb576141bb614d9c565b8160051b6141ca828201614c65565b8381528281019086840183880185018910156141e4578687fd5b8693505b858410156142065780358352600193909301929184019184016141e8565b50979650505050505050565b600082601f830112614222578081fd5b813567ffffffffffffffff81111561423c5761423c614d9c565b61424f601f8201601f1916602001614c65565b818152846020838601011115614263578283fd5b816020850160208301379081016020019190915292915050565b60006020828403121561428e578081fd5b81356120fa81614db2565b6000602082840312156142aa578081fd5b81516120fa81614db2565b600080604083850312156142c7578081fd5b82356142d281614db2565b915060208301356142e281614db2565b809150509250929050565b600080600080600060a08688031215614304578081fd5b853561430f81614db2565b9450602086013561431f81614db2565b9350604086013567ffffffffffffffff8082111561433b578283fd5b61434789838a0161418f565b9450606088013591508082111561435c578283fd5b61436889838a0161418f565b9350608088013591508082111561437d578283fd5b5061438a88828901614212565b9150509295509295909350565b6000806000606084860312156143ab578283fd5b83356143b681614db2565b925060208401356143c681614db2565b929592945050506040919091013590565b600080600080608085870312156143ec578384fd5b84356143f781614db2565b9350602085013561440781614db2565b925060408501359150606085013567ffffffffffffffff811115614429578182fd5b61443587828801614212565b91505092959194509250565b600080600080600060a08688031215614458578283fd5b853561446381614db2565b9450602086013561447381614db2565b93506040860135925060608601359150608086013567ffffffffffffffff81111561449c578182fd5b61438a88828901614212565b600080604083850312156144ba578182fd5b82356144c581614db2565b946020939093013593505050565b600080600080604085870312156144e8578182fd5b843567ffffffffffffffff808211156144ff578384fd5b61450b88838901614145565b90965094506020870135915080821115614523578384fd5b5061453087828801614145565b95989497509550505050565b60008060008060008060608789031215614554578384fd5b863567ffffffffffffffff8082111561456b578586fd5b6145778a838b01614145565b9098509650602089013591508082111561458f578586fd5b61459b8a838b01614145565b909650945060408901359150808211156145b3578283fd5b506145c089828a01614145565b979a9699509497509295939492505050565b6000602082840312156145e3578081fd5b813567ffffffffffffffff8111156145f9578182fd5b611ba98482850161418f565b600080600060608486031215614619578081fd5b833567ffffffffffffffff80821115614630578283fd5b61463c8783880161418f565b94506020860135915080821115614651578283fd5b5061465e8682870161418f565b925050604084013561466f81614db2565b809150509250925092565b6000806000806080858703121561468f578182fd5b843567ffffffffffffffff808211156146a6578384fd5b6146b28883890161418f565b955060208701359150808211156146c7578384fd5b6146d38883890161418f565b945060408701359150808211156146e8578384fd5b506146f58782880161418f565b925050606085013561470681614db2565b939692955090935050565b600060208284031215614722578081fd5b81516120fa81614dc7565b600080600080600060a08688031215614744578283fd5b853561474f81614dc7565b9450602086013561475f81614dc7565b9350604086013561476f81614dc7565b9250606086013561477f81614dc7565b9150608086013561478f81614dc7565b809150509295509295909350565b6000602082840312156147ae578081fd5b5051919050565b6000602082840312156147c6578081fd5b81356001600160e01b0319811681146120fa578182fd5b600080600080608085870312156143ec578182fd5b60008060408385031215614804578182fd5b823567ffffffffffffffff8082111561481b578384fd5b61482786838701614212565b9350602085013591508082111561483c578283fd5b5061484985828601614212565b9150509250929050565b600080600080600060a0868803121561486a578283fd5b853567ffffffffffffffff80821115614881578485fd5b61488d89838a01614212565b965060208801359150808211156148a2578485fd5b506148af88828901614212565b945050604086013561476f81614db2565b6000602082840312156148d1578081fd5b5035919050565b6000806000604084860312156148ec578081fd5b83359250602084013567ffffffffffffffff811115614909578182fd5b61491586828701614145565b9497909650939450505050565b600080600060608486031215614936578081fd5b83359250602084013567ffffffffffffffff811115614953578182fd5b61465e8682870161418f565b600080600060408486031215614973578081fd5b83359250602084013567ffffffffffffffff80821115614991578283fd5b818601915086601f8301126149a4578283fd5b8135818111156149b2578384fd5b8760208285010111156149c3578384fd5b6020830194508093505050509250925092565b600080600080600060a086880312156149ed578283fd5b505083359560208501359550604085013594606081013594506080013592509050565b600080600080600060a08688031215614a27578283fd5b5050835160208501516040860151606087015160809097015192989197509594509092509050565b6000815180845260208085019450808401835b83811015614a7e57815187529582019590820190600101614a62565b509495945050505050565b60008151808452614aa1816020860160208601614ce4565b601f01601f19169290920160200192915050565b60008251614ac7818460208701614ce4565b9190910192915050565b60006001600160a01b03808716835280861660208401525060a06040830152614afd60a0830185614a4f565b8281036060840152614b0f8185614a4f565b838103608090940193909352508152602001949350505050565b60006001600160a01b03808816835280871660208401525084604083015283606083015260a06080830152611d4360a0830184614a89565b6020815260006120fa6020830184614a4f565b606081526000614b876060830186614a4f565b8281036020840152614b998186614a4f565b9150506001600160a01b0383166040830152949350505050565b60a081526000614bc660a0830188614a4f565b8281036020840152614bd88188614a4f565b90508281036040840152614bec8187614a4f565b90508281036060840152614c008186614a4f565b9150506001600160a01b03831660808301529695505050505050565b6020815260006120fa6020830184614a89565b83815260406020820152816040820152818360608301376000818301606090810191909152601f909201601f1916010192915050565b604051601f8201601f1916810167ffffffffffffffff81118282101715614c8e57614c8e614d9c565b604052919050565b60008219821115614ca957614ca9614d86565b500190565b6000816000190483118215151615614cc857614cc8614d86565b500290565b600082821015614cdf57614cdf614d86565b500390565b60005b83811015614cff578181015183820152602001614ce7565b838111156109435750506000910152565b600181811c90821680614d2457607f821691505b60208210811415614d4557634e487b7160e01b600052602260045260246000fd5b50919050565b6000600019821415614d5f57614d5f614d86565b5060010190565b600082614d8157634e487b7160e01b81526012600452602481fd5b500690565b634e487b7160e01b600052601160045260246000fd5b634e487b7160e01b600052604160045260246000fd5b6001600160a01b03811681146128a857600080fd5b80151581146128a857600080fdfea26469706673582212201cdd615b5436b3e836d66cfd8469b11497ba309b8f0bde17e320070e9d6cf62d64736f6c63430008040033",
  "linkReferences": {},
  "deployedLinkReferences": {}
}