{"abi":[{"type":"function","name":"BLOCKLISTED_ROLE","inputs":[],"outputs":[{"name":"","type":"bytes32","internalType":"bytes32"}],"stateMutability":"view"},{"type":"function","name":"BLOCKLIST_MANAGER_ROLE","inputs":[],"outputs":[{"name":"","type":"bytes32","internalType":"bytes32"}],"stateMutability":"view"},{"type":"function","name":"CITADEL_MINTER_ROLE","inputs":[],"outputs":[{"name":"","type":"bytes32","internalType":"bytes32"}],"stateMutability":"view"},{"type":"function","name":"CONTRACT_GOVERNANCE_ROLE","inputs":[],"outputs":[{"name":"","type":"bytes32","internalType":"bytes32"}],"stateMutability":"view"},{"type":"function","name":"DEFAULT_ADMIN_ROLE","inputs":[],"outputs":[{"name":"","type":"bytes32","internalType":"bytes32"}],"stateMutability":"view"},{"type":"function","name":"KEEPER_ROLE","inputs":[],"outputs":[{"name":"","type":"bytes32","internalType":"bytes32"}],"stateMutability":"view"},{"type":"function","name":"PAUSER_ROLE","inputs":[],"outputs":[{"name":"","type":"bytes32","internalType":"bytes32"}],"stateMutability":"view"},{"type":"function","name":"POLICY_OPERATIONS_ROLE","inputs":[],"outputs":[{"name":"","type":"bytes32","internalType":"bytes32"}],"stateMutability":"view"},{"type":"function","name":"TECH_OPERATIONS_ROLE","inputs":[],"outputs":[{"name":"","type":"bytes32","internalType":"bytes32"}],"stateMutability":"view"},{"type":"function","name":"TREASURY_GOVERNANCE_ROLE","inputs":[],"outputs":[{"name":"","type":"bytes32","internalType":"bytes32"}],"stateMutability":"view"},{"type":"function","name":"TREASURY_OPERATIONS_ROLE","inputs":[],"outputs":[{"name":"","type":"bytes32","internalType":"bytes32"}],"stateMutability":"view"},{"type":"function","name":"UNPAUSER_ROLE","inputs":[],"outputs":[{"name":"","type":"bytes32","internalType":"bytes32"}],"stateMutability":"view"},{"type":"function","name":"getRoleAdmin","inputs":[{"name":"role","type":"bytes32","internalType":"bytes32"}],"outputs":[{"name":"","type":"bytes32","internalType":"bytes32"}],"stateMutability":"view"},{"type":"function","name":"getRoleMember","inputs":[{"name":"role","type":"bytes32","internalType":"bytes32"},{"name":"index","type":"uint256","internalType":"uint256"}],"outputs":[{"name":"","type":"address","internalType":"address"}],"stateMutability":"view"},{"type":"function","name":"getRoleMemberCount","inputs":[{"name":"role","type":"bytes32","internalType":"bytes32"}],"outputs":[{"name":"","type":"uint256","internalType":"uint256"}],"stateMutability":"view"},{"type":"function","name":"grantRole","inputs":[{"name":"role","type":"bytes32","internalType":"bytes32"},{"name":"account","type":"address","internalType":"address"}],"outputs":[],"stateMutability":"nonpayable"},{"type":"function","name":"hasRole","inputs":[{"name":"role","type":"bytes32","internalType":"bytes32"},{"name":"account","type":"address","internalType":"address"}],"outputs":[{"name":"","type":"bool","internalType":"bool"}],"stateMutability":"view"},{"type":"function","name":"initialize","inputs":[{"name":"_initialContractGovernance","type":"address","internalType":"address"}],"outputs":[],"stateMutability":"nonpayable"},{"type":"function","name":"initializeNewRole","inputs":[{"name":"role","type":"bytes32","internalType":"bytes32"},{"name":"roleString","type":"string","internalType":"string"},{"name":"adminRole","type":"bytes32","internalType":"bytes32"}],"outputs":[],"stateMutability":"nonpayable"},{"type":"function","name":"pause","inputs":[],"outputs":[],"stateMutability":"nonpayable"},{"type":"function","name":"paused","inputs":[],"outputs":[{"name":"","type":"bool","internalType":"bool"}],"stateMutability":"view"},{"type":"function","name":"renounceRole","inputs":[{"name":"role","type":"bytes32","internalType":"bytes32"},{"name":"account","type":"address","internalType":"address"}],"outputs":[],"stateMutability":"nonpayable"},{"type":"function","name":"revokeRole","inputs":[{"name":"role","type":"bytes32","internalType":"bytes32"},{"name":"account","type":"address","internalType":"address"}],"outputs":[],"stateMutability":"nonpayable"},{"type":"function","name":"supportsInterface","inputs":[{"name":"interfaceId","type":"bytes4","internalType":"bytes4"}],"outputs":[{"name":"","type":"bool","internalType":"bool"}],"stateMutability":"view"},{"type":"function","name":"transferFromDisabled","inputs":[],"outputs":[{"name":"","type":"bool","internalType":"bool"}],"stateMutability":"view"},{"type":"function","name":"unpause","inputs":[],"outputs":[],"stateMutability":"nonpayable"},{"type":"event","name":"Paused","inputs":[{"name":"account","type":"address","indexed":false,"internalType":"address"}],"anonymous":false},{"type":"event","name":"RoleAdminChanged","inputs":[{"name":"role","type":"bytes32","indexed":true,"internalType":"bytes32"},{"name":"previousAdminRole","type":"bytes32","indexed":true,"internalType":"bytes32"},{"name":"newAdminRole","type":"bytes32","indexed":true,"internalType":"bytes32"}],"anonymous":false},{"type":"event","name":"RoleGranted","inputs":[{"name":"role","type":"bytes32","indexed":true,"internalType":"bytes32"},{"name":"account","type":"address","indexed":true,"internalType":"address"},{"name":"sender","type":"address","indexed":true,"internalType":"address"}],"anonymous":false},{"type":"event","name":"RoleRevoked","inputs":[{"name":"role","type":"bytes32","indexed":true,"internalType":"bytes32"},{"name":"account","type":"address","indexed":true,"internalType":"address"},{"name":"sender","type":"address","indexed":true,"internalType":"address"}],"anonymous":false},{"type":"event","name":"Unpaused","inputs":[{"name":"account","type":"address","indexed":false,"internalType":"address"}],"anonymous":false}],"bytecode":{"object":"0x608060405234801561001057600080fd5b50612689806100206000396000f3fe608060405234801561001057600080fd5b506004361061018e5760003560e01c80633f4ba83a116100de578063a217fddf11610097578063ca15c87311610071578063ca15c8731461043f578063d547741f1461046f578063e63ab1e91461048b578063fb1bb9de146104a95761018e565b8063a217fddf146103e7578063c4d66de814610405578063c73940b3146104215761018e565b80633f4ba83a146103375780635c975abb146103415780635fcd7bd31461035f5780638456cb591461037d5780639010d07c1461038757806391d14854146103b75761018e565b8063242502f91161014b5780632f2ff15d116101255780632f2ff15d146102c35780633392c706146102df578063364bc15a146102fd57806336568abe1461031b5761018e565b8063242502f914610257578063248a9ca31461027557806326b2f404146102a55761018e565b806301ffc9a71461019357806309ece8ee146101c35780630a5e318e146101e15780630b0cca89146101fd578063104b58a81461021b5780631872223f14610239575b600080fd5b6101ad60048036038101906101a891906119f6565b6104c7565b6040516101ba9190611a3e565b60405180910390f35b6101cb610541565b6040516101d89190611a72565b60405180910390f35b6101fb60048036038101906101f69190611bff565b610565565b005b610205610626565b6040516102129190611a72565b60405180910390f35b61022361064a565b6040516102309190611a72565b60405180910390f35b61024161066e565b60405161024e9190611a72565b60405180910390f35b61025f610692565b60405161026c9190611a72565b60405180910390f35b61028f600480360381019061028a9190611c6e565b6106b6565b60405161029c9190611a72565b60405180910390f35b6102ad6106d6565b6040516102ba9190611a72565b60405180910390f35b6102dd60048036038101906102d89190611cf9565b6106fa565b005b6102e761071b565b6040516102f49190611a72565b60405180910390f35b61030561073f565b6040516103129190611a72565b60405180910390f35b61033560048036038101906103309190611cf9565b610763565b005b61033f6107e6565b005b610349610859565b6040516103569190611a3e565b60405180910390f35b610367610870565b6040516103749190611a3e565b60405180910390f35b610385610883565b005b6103a1600480360381019061039c9190611d6f565b6108f6565b6040516103ae9190611dbe565b60405180910390f35b6103d160048036038101906103cc9190611cf9565b610925565b6040516103de9190611a3e565b60405180910390f35b6103ef610990565b6040516103fc9190611a72565b60405180910390f35b61041f600480360381019061041a9190611dd9565b610997565b005b610429610d6a565b6040516104369190611a72565b60405180910390f35b61045960048036038101906104549190611c6e565b610d8e565b6040516104669190611e15565b60405180910390f35b61048960048036038101906104849190611cf9565b610db2565b005b610493610dd3565b6040516104a09190611a72565b60405180910390f35b6104b1610df7565b6040516104be9190611a72565b60405180910390f35b60007f5a05180f000000000000000000000000000000000000000000000000000000007bffffffffffffffffffffffffffffffffffffffffffffffffffffffff1916827bffffffffffffffffffffffffffffffffffffffffffffffffffffffff1916148061053a575061053982610e1b565b5b9050919050565b7f0ae097b90fd4eb85125339aa384674b34376a7d2431b48d50d88b599a2bda6f581565b61058f7f32522ae3fcc93c551ea7d30f39aaf5cf6e316c65a500706f77e9ecdd09ee113633610925565b6105ce576040517f08c379a00000000000000000000000000000000000000000000000000000000081526004016105c590611e8d565b60405180910390fd5b82828051906020012014610617576040517f08c379a000000000000000000000000000000000000000000000000000000000815260040161060e90611f1f565b60405180910390fd5b6106218382610e95565b505050565b7f32522ae3fcc93c551ea7d30f39aaf5cf6e316c65a500706f77e9ecdd09ee113681565b7f0debe7e94d836570f2b0c65462dc2523a36349f2df7755e52c9b79d6fba3b5ca81565b7f4c6fe25f3a39278aefc6c9ccdf3bce8dfd53184196650cdcdbb6fe4b1d91716181565b7f7c58f6f6addcc53de50626e103e7eb4a75f2aa59d03c52bdba93d74a719bee7881565b600060656000838152602001908152602001600020600101549050919050565b7f90565f473acba990c953ecc83c4ef11c3dd8ed52a592a609c6e09518c2eef3c681565b610703826106b6565b61070c81610ef1565b6107168383610f05565b505050565b7ff569e5f3f5937cbac9b65efc7a737c2c076c5c85f21b131e09a93cb09c14b65881565b7ffc8737ab85eb45125971625a9ebdb75cc78e01d5c1fa80c4c6e5203f47bc4fab81565b61076b610f39565b73ffffffffffffffffffffffffffffffffffffffff168173ffffffffffffffffffffffffffffffffffffffff16146107d8576040517f08c379a00000000000000000000000000000000000000000000000000000000081526004016107cf90611fb1565b60405180910390fd5b6107e28282610f41565b5050565b6108107f427da25fe773164f88948d3e215c94b6554e2ed5e5f203a821c9f2f6131cf75a33610925565b61084f576040517f08c379a00000000000000000000000000000000000000000000000000000000081526004016108469061201d565b60405180910390fd5b610857610f75565b565b600060c960009054906101000a900460ff16905090565b60fb60009054906101000a900460ff1681565b6108ad7f65d7a28e3265b37a6474929f336521b332c1681b933f6cb9f3376673440d862a33610925565b6108ec576040517f08c379a00000000000000000000000000000000000000000000000000000000081526004016108e390612089565b60405180910390fd5b6108f4611017565b565b600061091d82609760008681526020019081526020016000206110ba90919063ffffffff16565b905092915050565b60006065600084815260200190815260200160002060000160008373ffffffffffffffffffffffffffffffffffffffff1673ffffffffffffffffffffffffffffffffffffffff16815260200190815260200160002060009054906101000a900460ff16905092915050565b6000801b81565b600060019054906101000a900460ff166109bf5760008054906101000a900460ff16156109c8565b6109c76110d4565b5b610a07576040517f08c379a00000000000000000000000000000000000000000000000000000000081526004016109fe9061211b565b60405180910390fd5b60008060019054906101000a900460ff161590508015610a57576001600060016101000a81548160ff02191690831515021790555060016000806101000a81548160ff0219169083151502179055505b610a5f6110e5565b610a67611136565b610a746000801b8361118f565b610a9e7f32522ae3fcc93c551ea7d30f39aaf5cf6e316c65a500706f77e9ecdd09ee11368361118f565b610ac87f32522ae3fcc93c551ea7d30f39aaf5cf6e316c65a500706f77e9ecdd09ee113680610e95565b610b127ff569e5f3f5937cbac9b65efc7a737c2c076c5c85f21b131e09a93cb09c14b6587f32522ae3fcc93c551ea7d30f39aaf5cf6e316c65a500706f77e9ecdd09ee1136610e95565b610b5c7f0ae097b90fd4eb85125339aa384674b34376a7d2431b48d50d88b599a2bda6f57f32522ae3fcc93c551ea7d30f39aaf5cf6e316c65a500706f77e9ecdd09ee1136610e95565b610ba67f65d7a28e3265b37a6474929f336521b332c1681b933f6cb9f3376673440d862a7f32522ae3fcc93c551ea7d30f39aaf5cf6e316c65a500706f77e9ecdd09ee1136610e95565b610bf07f427da25fe773164f88948d3e215c94b6554e2ed5e5f203a821c9f2f6131cf75a7f32522ae3fcc93c551ea7d30f39aaf5cf6e316c65a500706f77e9ecdd09ee1136610e95565b610c3a7f4c6fe25f3a39278aefc6c9ccdf3bce8dfd53184196650cdcdbb6fe4b1d9171617f32522ae3fcc93c551ea7d30f39aaf5cf6e316c65a500706f77e9ecdd09ee1136610e95565b610c847f7c58f6f6addcc53de50626e103e7eb4a75f2aa59d03c52bdba93d74a719bee787f32522ae3fcc93c551ea7d30f39aaf5cf6e316c65a500706f77e9ecdd09ee1136610e95565b610cce7ffc8737ab85eb45125971625a9ebdb75cc78e01d5c1fa80c4c6e5203f47bc4fab7f32522ae3fcc93c551ea7d30f39aaf5cf6e316c65a500706f77e9ecdd09ee1136610e95565b610cfb6000801b7f32522ae3fcc93c551ea7d30f39aaf5cf6e316c65a500706f77e9ecdd09ee1136610e95565b610d457f0debe7e94d836570f2b0c65462dc2523a36349f2df7755e52c9b79d6fba3b5ca7f4c6fe25f3a39278aefc6c9ccdf3bce8dfd53184196650cdcdbb6fe4b1d917161610e95565b8015610d665760008060016101000a81548160ff0219169083151502179055505b5050565b7f337ba9dc64713e3c4bdd6225b5a90c898a60c14899ce4ed20d62795472e1761b81565b6000610dab6097600084815260200190815260200160002061119d565b9050919050565b610dbb826106b6565b610dc481610ef1565b610dce8383610f41565b505050565b7f65d7a28e3265b37a6474929f336521b332c1681b933f6cb9f3376673440d862a81565b7f427da25fe773164f88948d3e215c94b6554e2ed5e5f203a821c9f2f6131cf75a81565b60007f7965db0b000000000000000000000000000000000000000000000000000000007bffffffffffffffffffffffffffffffffffffffffffffffffffffffff1916827bffffffffffffffffffffffffffffffffffffffffffffffffffffffff19161480610e8e5750610e8d826111b2565b5b9050919050565b6000610ea0836106b6565b90508160656000858152602001908152602001600020600101819055508181847fbd79b86ffe0ab8e8776151514217cd7cacd52c909f66475c3af44e129f0b00ff60405160405180910390a4505050565b610f0281610efd610f39565b61121c565b50565b610f0f82826112b9565b610f34816097600085815260200190815260200160002061139a90919063ffffffff16565b505050565b600033905090565b610f4b82826113ca565b610f7081609760008581526020019081526020016000206114ac90919063ffffffff16565b505050565b610f7d610859565b610fbc576040517f08c379a0000000000000000000000000000000000000000000000000000000008152600401610fb390612187565b60405180910390fd5b600060c960006101000a81548160ff0219169083151502179055507f5db9ee0a495bf2e6ff9c91a7834c1ba4fdd244a5e8aa4e537bd38aeae4b073aa611000610f39565b60405161100d9190611dbe565b60405180910390a1565b61101f610859565b1561105f576040517f08c379a0000000000000000000000000000000000000000000000000000000008152600401611056906121f3565b60405180910390fd5b600160c960006101000a81548160ff0219169083151502179055507f62e78cea01bee320cd4e420270b5ea74000d11b0c9f74754ebdbfc544b05a2586110a3610f39565b6040516110b09190611dbe565b60405180910390a1565b60006110c983600001836114dc565b60001c905092915050565b60006110df30611507565b15905090565b600060019054906101000a900460ff16611134576040517f08c379a000000000000000000000000000000000000000000000000000000000815260040161112b90612285565b60405180910390fd5b565b600060019054906101000a900460ff16611185576040517f08c379a000000000000000000000000000000000000000000000000000000000815260040161117c90612285565b60405180910390fd5b61118d61152a565b565b6111998282610f05565b5050565b60006111ab82600001611596565b9050919050565b60007f01ffc9a7000000000000000000000000000000000000000000000000000000007bffffffffffffffffffffffffffffffffffffffffffffffffffffffff1916827bffffffffffffffffffffffffffffffffffffffffffffffffffffffff1916149050919050565b6112268282610925565b6112b55761124b8173ffffffffffffffffffffffffffffffffffffffff1660146115a7565b6112598360001c60206115a7565b60405160200161126a9291906123b7565b6040516020818303038152906040526040517f08c379a00000000000000000000000000000000000000000000000000000000081526004016112ac919061242a565b60405180910390fd5b5050565b6112c38282610925565b6113965760016065600084815260200190815260200160002060000160008373ffffffffffffffffffffffffffffffffffffffff1673ffffffffffffffffffffffffffffffffffffffff16815260200190815260200160002060006101000a81548160ff02191690831515021790555061133b610f39565b73ffffffffffffffffffffffffffffffffffffffff168173ffffffffffffffffffffffffffffffffffffffff16837f2f8788117e7eff1d82e926ec794901d17c78024a50270940304540a733656f0d60405160405180910390a45b5050565b60006113c2836000018373ffffffffffffffffffffffffffffffffffffffff1660001b6117e3565b905092915050565b6113d48282610925565b156114a85760006065600084815260200190815260200160002060000160008373ffffffffffffffffffffffffffffffffffffffff1673ffffffffffffffffffffffffffffffffffffffff16815260200190815260200160002060006101000a81548160ff02191690831515021790555061144d610f39565b73ffffffffffffffffffffffffffffffffffffffff168173ffffffffffffffffffffffffffffffffffffffff16837ff6391f5c32d9c69d2a47ea670b442974b53935d1edc7fd64eb21e047a839171b60405160405180910390a45b5050565b60006114d4836000018373ffffffffffffffffffffffffffffffffffffffff1660001b611853565b905092915050565b60008260000182815481106114f4576114f361244c565b5b9060005260206000200154905092915050565b6000808273ffffffffffffffffffffffffffffffffffffffff163b119050919050565b600060019054906101000a900460ff16611579576040517f08c379a000000000000000000000000000000000000000000000000000000000815260040161157090612285565b60405180910390fd5b600060c960006101000a81548160ff021916908315150217905550565b600081600001805490509050919050565b6060600060028360026115ba91906124aa565b6115c49190612504565b67ffffffffffffffff8111156115dd576115dc611ad4565b5b6040519080825280601f01601f19166020018201604052801561160f5781602001600182028036833780820191505090505b5090507f3000000000000000000000000000000000000000000000000000000000000000816000815181106116475761164661244c565b5b60200101907effffffffffffffffffffffffffffffffffffffffffffffffffffffffffffff1916908160001a9053507f7800000000000000000000000000000000000000000000000000000000000000816001815181106116ab576116aa61244c565b5b60200101907effffffffffffffffffffffffffffffffffffffffffffffffffffffffffffff1916908160001a905350600060018460026116eb91906124aa565b6116f59190612504565b90505b6001811115611795577f3031323334353637383961626364656600000000000000000000000000000000600f8616601081106117375761173661244c565b5b1a60f81b82828151811061174e5761174d61244c565b5b60200101907effffffffffffffffffffffffffffffffffffffffffffffffffffffffffffff1916908160001a905350600485901c94508061178e9061255a565b90506116f8565b50600084146117d9576040517f08c379a00000000000000000000000000000000000000000000000000000000081526004016117d0906125d0565b60405180910390fd5b8091505092915050565b60006117ef8383611967565b61184857826000018290806001815401808255809150506001900390600052602060002001600090919091909150558260000180549050836001016000848152602001908152602001600020819055506001905061184d565b600090505b92915050565b6000808360010160008481526020019081526020016000205490506000811461195b57600060018261188591906125f0565b905060006001866000018054905061189d91906125f0565b905081811461190c5760008660000182815481106118be576118bd61244c565b5b90600052602060002001549050808760000184815481106118e2576118e161244c565b5b90600052602060002001819055508387600101600083815260200190815260200160002081905550505b856000018054806119205761191f612624565b5b600190038181906000526020600020016000905590558560010160008681526020019081526020016000206000905560019350505050611961565b60009150505b92915050565b600080836001016000848152602001908152602001600020541415905092915050565b6000604051905090565b600080fd5b600080fd5b60007fffffffff0000000000000000000000000000000000000000000000000000000082169050919050565b6119d38161199e565b81146119de57600080fd5b50565b6000813590506119f0816119ca565b92915050565b600060208284031215611a0c57611a0b611994565b5b6000611a1a848285016119e1565b91505092915050565b60008115159050919050565b611a3881611a23565b82525050565b6000602082019050611a536000830184611a2f565b92915050565b6000819050919050565b611a6c81611a59565b82525050565b6000602082019050611a876000830184611a63565b92915050565b611a9681611a59565b8114611aa157600080fd5b50565b600081359050611ab381611a8d565b92915050565b600080fd5b600080fd5b6000601f19601f8301169050919050565b7f4e487b7100000000000000000000000000000000000000000000000000000000600052604160045260246000fd5b611b0c82611ac3565b810181811067ffffffffffffffff82111715611b2b57611b2a611ad4565b5b80604052505050565b6000611b3e61198a565b9050611b4a8282611b03565b919050565b600067ffffffffffffffff821115611b6a57611b69611ad4565b5b611b7382611ac3565b9050602081019050919050565b82818337600083830152505050565b6000611ba2611b9d84611b4f565b611b34565b905082815260208101848484011115611bbe57611bbd611abe565b5b611bc9848285611b80565b509392505050565b600082601f830112611be657611be5611ab9565b5b8135611bf6848260208601611b8f565b91505092915050565b600080600060608486031215611c1857611c17611994565b5b6000611c2686828701611aa4565b935050602084013567ffffffffffffffff811115611c4757611c46611999565b5b611c5386828701611bd1565b9250506040611c6486828701611aa4565b9150509250925092565b600060208284031215611c8457611c83611994565b5b6000611c9284828501611aa4565b91505092915050565b600073ffffffffffffffffffffffffffffffffffffffff82169050919050565b6000611cc682611c9b565b9050919050565b611cd681611cbb565b8114611ce157600080fd5b50565b600081359050611cf381611ccd565b92915050565b60008060408385031215611d1057611d0f611994565b5b6000611d1e85828601611aa4565b9250506020611d2f85828601611ce4565b9150509250929050565b6000819050919050565b611d4c81611d39565b8114611d5757600080fd5b50565b600081359050611d6981611d43565b92915050565b60008060408385031215611d8657611d85611994565b5b6000611d9485828601611aa4565b9250506020611da585828601611d5a565b9150509250929050565b611db881611cbb565b82525050565b6000602082019050611dd36000830184611daf565b92915050565b600060208284031215611def57611dee611994565b5b6000611dfd84828501611ce4565b91505092915050565b611e0f81611d39565b82525050565b6000602082019050611e2a6000830184611e06565b92915050565b600082825260208201905092915050565b7f434f4e54524143545f474f5645524e414e43455f524f4c450000000000000000600082015250565b6000611e77601883611e30565b9150611e8282611e41565b602082019050919050565b60006020820190508181036000830152611ea681611e6a565b9050919050565b7f526f6c6520737472696e6720616e6420726f6c6520646f206e6f74206d61746360008201527f6800000000000000000000000000000000000000000000000000000000000000602082015250565b6000611f09602183611e30565b9150611f1482611ead565b604082019050919050565b60006020820190508181036000830152611f3881611efc565b9050919050565b7f416363657373436f6e74726f6c3a2063616e206f6e6c792072656e6f756e636560008201527f20726f6c657320666f722073656c660000000000000000000000000000000000602082015250565b6000611f9b602f83611e30565b9150611fa682611f3f565b604082019050919050565b60006020820190508181036000830152611fca81611f8e565b9050919050565b7f554e5041555345525f524f4c4500000000000000000000000000000000000000600082015250565b6000612007600d83611e30565b915061201282611fd1565b602082019050919050565b6000602082019050818103600083015261203681611ffa565b9050919050565b7f5041555345525f524f4c45000000000000000000000000000000000000000000600082015250565b6000612073600b83611e30565b915061207e8261203d565b602082019050919050565b600060208201905081810360008301526120a281612066565b9050919050565b7f496e697469616c697a61626c653a20636f6e747261637420697320616c72656160008201527f647920696e697469616c697a6564000000000000000000000000000000000000602082015250565b6000612105602e83611e30565b9150612110826120a9565b604082019050919050565b60006020820190508181036000830152612134816120f8565b9050919050565b7f5061757361626c653a206e6f7420706175736564000000000000000000000000600082015250565b6000612171601483611e30565b915061217c8261213b565b602082019050919050565b600060208201905081810360008301526121a081612164565b9050919050565b7f5061757361626c653a2070617573656400000000000000000000000000000000600082015250565b60006121dd601083611e30565b91506121e8826121a7565b602082019050919050565b6000602082019050818103600083015261220c816121d0565b9050919050565b7f496e697469616c697a61626c653a20636f6e7472616374206973206e6f74206960008201527f6e697469616c697a696e67000000000000000000000000000000000000000000602082015250565b600061226f602b83611e30565b915061227a82612213565b604082019050919050565b6000602082019050818103600083015261229e81612262565b9050919050565b600081905092915050565b7f416363657373436f6e74726f6c3a206163636f756e7420000000000000000000600082015250565b60006122e66017836122a5565b91506122f1826122b0565b601782019050919050565b600081519050919050565b60005b8381101561232557808201518184015260208101905061230a565b83811115612334576000848401525b50505050565b6000612345826122fc565b61234f81856122a5565b935061235f818560208601612307565b80840191505092915050565b7f206973206d697373696e6720726f6c6520000000000000000000000000000000600082015250565b60006123a16011836122a5565b91506123ac8261236b565b601182019050919050565b60006123c2826122d9565b91506123ce828561233a565b91506123d982612394565b91506123e5828461233a565b91508190509392505050565b60006123fc826122fc565b6124068185611e30565b9350612416818560208601612307565b61241f81611ac3565b840191505092915050565b6000602082019050818103600083015261244481846123f1565b905092915050565b7f4e487b7100000000000000000000000000000000000000000000000000000000600052603260045260246000fd5b7f4e487b7100000000000000000000000000000000000000000000000000000000600052601160045260246000fd5b60006124b582611d39565b91506124c083611d39565b9250817fffffffffffffffffffffffffffffffffffffffffffffffffffffffffffffffff04831182151516156124f9576124f861247b565b5b828202905092915050565b600061250f82611d39565b915061251a83611d39565b9250827fffffffffffffffffffffffffffffffffffffffffffffffffffffffffffffffff0382111561254f5761254e61247b565b5b828201905092915050565b600061256582611d39565b915060008214156125795761257861247b565b5b600182039050919050565b7f537472696e67733a20686578206c656e67746820696e73756666696369656e74600082015250565b60006125ba602083611e30565b91506125c582612584565b602082019050919050565b600060208201905081810360008301526125e9816125ad565b9050919050565b60006125fb82611d39565b915061260683611d39565b9250828210156126195761261861247b565b5b828203905092915050565b7f4e487b7100000000000000000000000000000000000000000000000000000000600052603160045260246000fdfea26469706673582212201014f34630d672f8c54ab39a904dda886cb7b6172920559383076b535744c33664736f6c634300080c0033","linkReferences":{}},"methodIdentifiers":{"BLOCKLISTED_ROLE()":"104b58a8","BLOCKLIST_MANAGER_ROLE()":"1872223f","CITADEL_MINTER_ROLE()":"242502f9","CONTRACT_GOVERNANCE_ROLE()":"0b0cca89","DEFAULT_ADMIN_ROLE()":"a217fddf","KEEPER_ROLE()":"364bc15a","PAUSER_ROLE()":"e63ab1e9","POLICY_OPERATIONS_ROLE()":"3392c706","TECH_OPERATIONS_ROLE()":"26b2f404","TREASURY_GOVERNANCE_ROLE()":"09ece8ee","TREASURY_OPERATIONS_ROLE()":"c73940b3","UNPAUSER_ROLE()":"fb1bb9de","getRoleAdmin(bytes32)":"248a9ca3","getRoleMember(bytes32,uint256)":"9010d07c","getRoleMemberCount(bytes32)":"ca15c873","grantRole(bytes32,address)":"2f2ff15d","hasRole(bytes32,address)":"91d14854","initialize(address)":"c4d66de8","initializeNewRole(bytes32,string,bytes32)":"0a5e318e","pause()":"8456cb59","paused()":"5c975abb","renounceRole(bytes32,address)":"36568abe","revokeRole(bytes32,address)":"d547741f","supportsInterface(bytes4)":"01ffc9a7","transferFromDisabled()":"5fcd7bd3","unpause()":"3f4ba83a"},"id":22}