{"abi":[{"type":"constructor","inputs":[{"name":"_usdc","type":"address","internalType":"address"},{"name":"_priceOracle","type":"address","internalType":"address"}],"stateMutability":"nonpayable"},{"type":"function","name":"PRICE_ORACLE","inputs":[],"outputs":[{"name":"","type":"address","internalType":"contract IPriceOracle"}],"stateMutability":"view"},{"type":"function","name":"USDC","inputs":[],"outputs":[{"name":"","type":"address","internalType":"address"}],"stateMutability":"view"},{"type":"function","name":"getBorrowRateLimits","inputs":[],"outputs":[{"name":"","type":"tuple","internalType":"struct ILimitsManager.Limits","components":[{"name":"min","type":"uint256","internalType":"uint256"},{"name":"max","type":"uint256","internalType":"uint256"}]}],"stateMutability":"view"},{"type":"function","name":"getCollectionPeriodLimits","inputs":[],"outputs":[{"name":"","type":"tuple","internalType":"struct ILimitsManager.Limits","components":[{"name":"min","type":"uint256","internalType":"uint256"},{"name":"max","type":"uint256","internalType":"uint256"}]}],"stateMutability":"view"},{"type":"function","name":"getDefaultGracePeriodLimits","inputs":[],"outputs":[{"name":"","type":"tuple","internalType":"struct ILimitsManager.Limits","components":[{"name":"min","type":"uint256","internalType":"uint256"},{"name":"max","type":"uint256","internalType":"uint256"}]}],"stateMutability":"view"},{"type":"function","name":"getDurationLimits","inputs":[],"outputs":[{"name":"","type":"tuple","internalType":"struct ILimitsManager.Limits","components":[{"name":"min","type":"uint256","internalType":"uint256"},{"name":"max","type":"uint256","internalType":"uint256"}]}],"stateMutability":"view"},{"type":"function","name":"getGracePenaltyRateLimits","inputs":[],"outputs":[{"name":"","type":"tuple","internalType":"struct ILimitsManager.Limits","components":[{"name":"min","type":"uint256","internalType":"uint256"},{"name":"max","type":"uint256","internalType":"uint256"}]}],"stateMutability":"view"},{"type":"function","name":"getIdealCollateralRatioLimits","inputs":[],"outputs":[{"name":"","type":"tuple","internalType":"struct ILimitsManager.Limits","components":[{"name":"min","type":"uint256","internalType":"uint256"},{"name":"max","type":"uint256","internalType":"uint256"}]}],"stateMutability":"view"},{"type":"function","name":"initialize","inputs":[{"name":"_owner","type":"address","internalType":"address"}],"outputs":[],"stateMutability":"nonpayable"},{"type":"function","name":"isWithinLimits","inputs":[{"name":"_value","type":"uint256","internalType":"uint256"},{"name":"_limits","type":"tuple","internalType":"struct ILimitsManager.Limits","components":[{"name":"min","type":"uint256","internalType":"uint256"},{"name":"max","type":"uint256","internalType":"uint256"}]}],"outputs":[{"name":"","type":"bool","internalType":"bool"}],"stateMutability":"pure"},{"type":"function","name":"limitBorrowedInUSDC","inputs":[{"name":"_borrowAsset","type":"address","internalType":"address"},{"name":"_borrowLimit","type":"uint256","internalType":"uint256"},{"name":"_minBorrowAmount","type":"uint256","internalType":"uint256"}],"outputs":[],"stateMutability":"view"},{"type":"function","name":"owner","inputs":[],"outputs":[{"name":"","type":"address","internalType":"address"}],"stateMutability":"view"},{"type":"function","name":"renounceOwnership","inputs":[],"outputs":[],"stateMutability":"nonpayable"},{"type":"function","name":"transferOwnership","inputs":[{"name":"newOwner","type":"address","internalType":"address"}],"outputs":[],"stateMutability":"nonpayable"},{"type":"function","name":"updateBorrowAmountUSDCLimits","inputs":[{"name":"_min","type":"uint256","internalType":"uint256"},{"name":"_max","type":"uint256","internalType":"uint256"}],"outputs":[],"stateMutability":"nonpayable"},{"type":"function","name":"updateBorrowRateLimits","inputs":[{"name":"_min","type":"uint256","internalType":"uint256"},{"name":"_max","type":"uint256","internalType":"uint256"}],"outputs":[],"stateMutability":"nonpayable"},{"type":"function","name":"updateCollectionPeriodLimits","inputs":[{"name":"_min","type":"uint256","internalType":"uint256"},{"name":"_max","type":"uint256","internalType":"uint256"}],"outputs":[],"stateMutability":"nonpayable"},{"type":"function","name":"updateDefaultGracePeriodLimits","inputs":[{"name":"_min","type":"uint256","internalType":"uint256"},{"name":"_max","type":"uint256","internalType":"uint256"}],"outputs":[],"stateMutability":"nonpayable"},{"type":"function","name":"updateDurationLimits","inputs":[{"name":"_min","type":"uint256","internalType":"uint256"},{"name":"_max","type":"uint256","internalType":"uint256"}],"outputs":[],"stateMutability":"nonpayable"},{"type":"function","name":"updateGracePenaltyRateLimits","inputs":[{"name":"_min","type":"uint256","internalType":"uint256"},{"name":"_max","type":"uint256","internalType":"uint256"}],"outputs":[],"stateMutability":"nonpayable"},{"type":"function","name":"updateIdealCollateralRatioLimits","inputs":[{"name":"_min","type":"uint256","internalType":"uint256"},{"name":"_max","type":"uint256","internalType":"uint256"}],"outputs":[],"stateMutability":"nonpayable"},{"type":"event","name":"LimitsUpdated","inputs":[{"name":"limitType","type":"string","indexed":true,"internalType":"string"},{"name":"min","type":"uint256","indexed":false,"internalType":"uint256"},{"name":"max","type":"uint256","indexed":false,"internalType":"uint256"}],"anonymous":false},{"type":"event","name":"OwnershipTransferred","inputs":[{"name":"previousOwner","type":"address","indexed":true,"internalType":"address"},{"name":"newOwner","type":"address","indexed":true,"internalType":"address"}],"anonymous":false}],"bytecode":{"object":"0x60c06040523480156200001157600080fd5b5060405162002de838038062002de88339818101604052810190620000379190620001aa565b600073ffffffffffffffffffffffffffffffffffffffff168273ffffffffffffffffffffffffffffffffffffffff161415620000aa576040517f08c379a0000000000000000000000000000000000000000000000000000000008152600401620000a1906200026f565b60405180910390fd5b600073ffffffffffffffffffffffffffffffffffffffff168173ffffffffffffffffffffffffffffffffffffffff1614156200011d576040517f08c379a0000000000000000000000000000000000000000000000000000000008152600401620001149062000291565b60405180910390fd5b8173ffffffffffffffffffffffffffffffffffffffff1660808173ffffffffffffffffffffffffffffffffffffffff1660601b815250508073ffffffffffffffffffffffffffffffffffffffff1660a08173ffffffffffffffffffffffffffffffffffffffff1660601b81525050505062000312565b600081519050620001a481620002f8565b92915050565b60008060408385031215620001be57600080fd5b6000620001ce8582860162000193565b9250506020620001e18582860162000193565b9150509250929050565b6000620001fa600783620002b3565b91507f4c4d3a434f4e31000000000000000000000000000000000000000000000000006000830152602082019050919050565b60006200023c600783620002b3565b91507f4c4d3a434f4e32000000000000000000000000000000000000000000000000006000830152602082019050919050565b600060208201905081810360008301526200028a81620001eb565b9050919050565b60006020820190508181036000830152620002ac816200022d565b9050919050565b600082825260208201905092915050565b6000620002d182620002d8565b9050919050565b600073ffffffffffffffffffffffffffffffffffffffff82169050919050565b6200030381620002c4565b81146200030f57600080fd5b50565b60805160601c60a05160601c612aa262000346600039806103c052806103e7525080610424528061131c5250612aa26000f3fe608060405234801561001057600080fd5b50600436106101375760003560e01c806353cdc562116100b857806389a302711161007c57806389a30271146102ee5780638da5cb5b1461030c578063b99233311461032a578063c4d66de814610348578063e3d7e24c14610364578063f2fde38b1461038057610137565b806353cdc562146102705780635e7b8eea1461028c578063715018a6146102aa578063793a68dd146102b457806386ace9ab146102d257610137565b80631b6fff13116100ff5780631b6fff13146101e257806323aaa8b9146101fe5780633142fd8e1461021c5780634b2fd8ca1461023857806350264fcf1461025457610137565b80630686428d1461013c5780630a19399a1461016c5780630aadf5291461018a5780630f07901b146101a657806310ff314b146101c4575b600080fd5b61015660048036038101906101519190611e6f565b61039c565b6040516101639190612674565b60405180910390f35b6101746103be565b604051610181919061268f565b60405180910390f35b6101a4600480360381019061019f9190611e20565b6103e2565b005b6101ae61060e565b6040516101bb91906128ca565b60405180910390f35b6101cc61063c565b6040516101d991906128ca565b60405180910390f35b6101fc60048036038101906101f79190611eab565b61066a565b005b610206610833565b60405161021391906128ca565b60405180910390f35b61023660048036038101906102319190611eab565b610861565b005b610252600480360381019061024d9190611eab565b610a2a565b005b61026e60048036038101906102699190611eab565b610bf3565b005b61028a60048036038101906102859190611eab565b610dbc565b005b610294610f85565b6040516102a191906128ca565b60405180910390f35b6102b2610fb3565b005b6102bc611123565b6040516102c991906128ca565b60405180910390f35b6102ec60048036038101906102e79190611eab565b611151565b005b6102f661131a565b6040516103039190612630565b60405180910390f35b61031461133e565b6040516103219190612630565b60405180910390f35b610332611368565b60405161033f91906128ca565b60405180910390f35b610362600480360381019061035d9190611df7565b611396565b005b61037e60048036038101906103799190611eab565b6114a6565b005b61039a60048036038101906103959190611df7565b61166f565b005b6000816000015183101580156103b6575081602001518311155b905092915050565b7f000000000000000000000000000000000000000000000000000000000000000081565b6000807f000000000000000000000000000000000000000000000000000000000000000073ffffffffffffffffffffffffffffffffffffffff166310603c11867f00000000000000000000000000000000000000000000000000000000000000006040518363ffffffff1660e01b815260040161046092919061264b565b604080518083038186803b15801561047757600080fd5b505afa15801561048b573d6000803e3d6000fd5b505050506040513d601f19601f820116820180604052508101906104af9190611ee7565b9150915060006104dd82600a0a6104cf858861186490919063ffffffff16565b6118ea90919063ffffffff16565b9050600060656000015490506105138260656040518060400160405290816000820154815260200160018201548152505061039c565b610552576040517f08c379a0000000000000000000000000000000000000000000000000000000008152600401610549906126ca565b60405180910390fd5b85851115610595576040517f08c379a000000000000000000000000000000000000000000000000000000000815260040161058c9061284a565b60405180910390fd5b60006105bf84600a0a6105b1878961186490919063ffffffff16565b6118ea90919063ffffffff16565b905081811015610604576040517f08c379a00000000000000000000000000000000000000000000000000000000081526004016105fb9061272a565b60405180910390fd5b5050505050505050565b610616611d52565b606760405180604001604052908160008201548152602001600182015481525050905090565b610644611d52565b606b60405180604001604052908160008201548152602001600182015481525050905090565b610672611973565b73ffffffffffffffffffffffffffffffffffffffff1661069061133e565b73ffffffffffffffffffffffffffffffffffffffff1614610719576040517f08c379a00000000000000000000000000000000000000000000000000000000081526004018080602001828103825260208152602001807f4f776e61626c653a2063616c6c6572206973206e6f7420746865206f776e657281525060200191505060405180910390fd5b8082111561075c576040517f08c379a0000000000000000000000000000000000000000000000000000000008152600401610753906126ea565b60405180910390fd5b81606960000154148015610774575080606960010154145b156107b4576040517f08c379a00000000000000000000000000000000000000000000000000000000081526004016107ab9061274a565b60405180910390fd5b604051806040016040528083815260200182815250606960008201518160000155602082015181600101559050506040516107ee906125f1565b60405180910390207fe9da20d631ef06f93c14c03acd9bc8f22141e6fce63b1066f76c903adb73ea4083836040516108279291906128e5565b60405180910390a25050565b61083b611d52565b607160405180604001604052908160008201548152602001600182015481525050905090565b610869611973565b73ffffffffffffffffffffffffffffffffffffffff1661088761133e565b73ffffffffffffffffffffffffffffffffffffffff1614610910576040517f08c379a00000000000000000000000000000000000000000000000000000000081526004018080602001828103825260208152602001807f4f776e61626c653a2063616c6c6572206973206e6f7420746865206f776e657281525060200191505060405180910390fd5b80821115610953576040517f08c379a000000000000000000000000000000000000000000000000000000000815260040161094a906126aa565b60405180910390fd5b81606f6000015414801561096b575080606f60010154145b156109ab576040517f08c379a00000000000000000000000000000000000000000000000000000000081526004016109a2906127aa565b60405180910390fd5b604051806040016040528083815260200182815250606f60008201518160000155602082015181600101559050506040516109e5906125b2565b60405180910390207fe9da20d631ef06f93c14c03acd9bc8f22141e6fce63b1066f76c903adb73ea408383604051610a1e9291906128e5565b60405180910390a25050565b610a32611973565b73ffffffffffffffffffffffffffffffffffffffff16610a5061133e565b73ffffffffffffffffffffffffffffffffffffffff1614610ad9576040517f08c379a00000000000000000000000000000000000000000000000000000000081526004018080602001828103825260208152602001807f4f776e61626c653a2063616c6c6572206973206e6f7420746865206f776e657281525060200191505060405180910390fd5b80821115610b1c576040517f08c379a0000000000000000000000000000000000000000000000000000000008152600401610b139061278a565b60405180910390fd5b81606d60000154148015610b34575080606d60010154145b15610b74576040517f08c379a0000000000000000000000000000000000000000000000000000000008152600401610b6b906127ea565b60405180910390fd5b604051806040016040528083815260200182815250606d6000820151816000015560208201518160010155905050604051610bae9061261b565b60405180910390207fe9da20d631ef06f93c14c03acd9bc8f22141e6fce63b1066f76c903adb73ea408383604051610be79291906128e5565b60405180910390a25050565b610bfb611973565b73ffffffffffffffffffffffffffffffffffffffff16610c1961133e565b73ffffffffffffffffffffffffffffffffffffffff1614610ca2576040517f08c379a00000000000000000000000000000000000000000000000000000000081526004018080602001828103825260208152602001807f4f776e61626c653a2063616c6c6572206973206e6f7420746865206f776e657281525060200191505060405180910390fd5b80821115610ce5576040517f08c379a0000000000000000000000000000000000000000000000000000000008152600401610cdc9061288a565b60405180910390fd5b81606760000154148015610cfd575080606760010154145b15610d3d576040517f08c379a0000000000000000000000000000000000000000000000000000000008152600401610d34906128aa565b60405180910390fd5b60405180604001604052808381526020018281525060676000820151816000015560208201518160010155905050604051610d7790612606565b60405180910390207fe9da20d631ef06f93c14c03acd9bc8f22141e6fce63b1066f76c903adb73ea408383604051610db09291906128e5565b60405180910390a25050565b610dc4611973565b73ffffffffffffffffffffffffffffffffffffffff16610de261133e565b73ffffffffffffffffffffffffffffffffffffffff1614610e6b576040517f08c379a00000000000000000000000000000000000000000000000000000000081526004018080602001828103825260208152602001807f4f776e61626c653a2063616c6c6572206973206e6f7420746865206f776e657281525060200191505060405180910390fd5b80821115610eae576040517f08c379a0000000000000000000000000000000000000000000000000000000008152600401610ea59061286a565b60405180910390fd5b81606560000154148015610ec6575080606560010154145b15610f06576040517f08c379a0000000000000000000000000000000000000000000000000000000008152600401610efd9061280a565b60405180910390fd5b60405180604001604052808381526020018281525060656000820151816000015560208201518160010155905050604051610f40906125c7565b60405180910390207fe9da20d631ef06f93c14c03acd9bc8f22141e6fce63b1066f76c903adb73ea408383604051610f799291906128e5565b60405180910390a25050565b610f8d611d52565b606d60405180604001604052908160008201548152602001600182015481525050905090565b610fbb611973565b73ffffffffffffffffffffffffffffffffffffffff16610fd961133e565b73ffffffffffffffffffffffffffffffffffffffff1614611062576040517f08c379a00000000000000000000000000000000000000000000000000000000081526004018080602001828103825260208152602001807f4f776e61626c653a2063616c6c6572206973206e6f7420746865206f776e657281525060200191505060405180910390fd5b600073ffffffffffffffffffffffffffffffffffffffff16603360009054906101000a900473ffffffffffffffffffffffffffffffffffffffff1673ffffffffffffffffffffffffffffffffffffffff167f8be0079c531659141344cd1fd0a4f28419497f9722a3daafe3b4186f6b6457e060405160405180910390a36000603360006101000a81548173ffffffffffffffffffffffffffffffffffffffff021916908373ffffffffffffffffffffffffffffffffffffffff160217905550565b61112b611d52565b606960405180604001604052908160008201548152602001600182015481525050905090565b611159611973565b73ffffffffffffffffffffffffffffffffffffffff1661117761133e565b73ffffffffffffffffffffffffffffffffffffffff1614611200576040517f08c379a00000000000000000000000000000000000000000000000000000000081526004018080602001828103825260208152602001807f4f776e61626c653a2063616c6c6572206973206e6f7420746865206f776e657281525060200191505060405180910390fd5b80821115611243576040517f08c379a000000000000000000000000000000000000000000000000000000000815260040161123a9061270a565b60405180910390fd5b8160716000015414801561125b575080607160010154145b1561129b576040517f08c379a00000000000000000000000000000000000000000000000000000000081526004016112929061282a565b60405180910390fd5b604051806040016040528083815260200182815250607160008201518160000155602082015181600101559050506040516112d5906125dc565b60405180910390207fe9da20d631ef06f93c14c03acd9bc8f22141e6fce63b1066f76c903adb73ea40838360405161130e9291906128e5565b60405180910390a25050565b7f000000000000000000000000000000000000000000000000000000000000000081565b6000603360009054906101000a900473ffffffffffffffffffffffffffffffffffffffff16905090565b611370611d52565b606f60405180604001604052908160008201548152602001600182015481525050905090565b600060019054906101000a900460ff16806113b557506113b461197b565b5b806113cb575060008054906101000a900460ff16155b611420576040517f08c379a000000000000000000000000000000000000000000000000000000000815260040180806020018281038252602e815260200180612a1e602e913960400191505060405180910390fd5b60008060019054906101000a900460ff161590508015611470576001600060016101000a81548160ff02191690831515021790555060016000806101000a81548160ff0219169083151502179055505b61147861198c565b6114818261166f565b80156114a25760008060016101000a81548160ff0219169083151502179055505b5050565b6114ae611973565b73ffffffffffffffffffffffffffffffffffffffff166114cc61133e565b73ffffffffffffffffffffffffffffffffffffffff1614611555576040517f08c379a00000000000000000000000000000000000000000000000000000000081526004018080602001828103825260208152602001807f4f776e61626c653a2063616c6c6572206973206e6f7420746865206f776e657281525060200191505060405180910390fd5b80821115611598576040517f08c379a000000000000000000000000000000000000000000000000000000000815260040161158f906127ca565b60405180910390fd5b81606b600001541480156115b0575080606b60010154145b156115f0576040517f08c379a00000000000000000000000000000000000000000000000000000000081526004016115e79061276a565b60405180910390fd5b604051806040016040528083815260200182815250606b600082015181600001556020820151816001015590505060405161162a9061259d565b60405180910390207fe9da20d631ef06f93c14c03acd9bc8f22141e6fce63b1066f76c903adb73ea4083836040516116639291906128e5565b60405180910390a25050565b611677611973565b73ffffffffffffffffffffffffffffffffffffffff1661169561133e565b73ffffffffffffffffffffffffffffffffffffffff161461171e576040517f08c379a00000000000000000000000000000000000000000000000000000000081526004018080602001828103825260208152602001807f4f776e61626c653a2063616c6c6572206973206e6f7420746865206f776e657281525060200191505060405180910390fd5b600073ffffffffffffffffffffffffffffffffffffffff168173ffffffffffffffffffffffffffffffffffffffff1614156117a4576040517f08c379a00000000000000000000000000000000000000000000000000000000081526004018080602001828103825260268152602001806129f86026913960400191505060405180910390fd5b8073ffffffffffffffffffffffffffffffffffffffff16603360009054906101000a900473ffffffffffffffffffffffffffffffffffffffff1673ffffffffffffffffffffffffffffffffffffffff167f8be0079c531659141344cd1fd0a4f28419497f9722a3daafe3b4186f6b6457e060405160405180910390a380603360006101000a81548173ffffffffffffffffffffffffffffffffffffffff021916908373ffffffffffffffffffffffffffffffffffffffff16021790555050565b60008083141561187757600090506118e4565b600082840290508284828161188857fe5b04146118df576040517f08c379a0000000000000000000000000000000000000000000000000000000008152600401808060200182810382526021815260200180612a4c6021913960400191505060405180910390fd5b809150505b92915050565b6000808211611961576040517f08c379a000000000000000000000000000000000000000000000000000000000815260040180806020018281038252601a8152602001807f536166654d6174683a206469766973696f6e206279207a65726f00000000000081525060200191505060405180910390fd5b81838161196a57fe5b04905092915050565b600033905090565b600061198630611a9a565b15905090565b600060019054906101000a900460ff16806119ab57506119aa61197b565b5b806119c1575060008054906101000a900460ff16155b611a16576040517f08c379a000000000000000000000000000000000000000000000000000000000815260040180806020018281038252602e815260200180612a1e602e913960400191505060405180910390fd5b60008060019054906101000a900460ff161590508015611a66576001600060016101000a81548160ff02191690831515021790555060016000806101000a81548160ff0219169083151502179055505b611a6e611aad565b611a76611bab565b8015611a975760008060016101000a81548160ff0219169083151502179055505b50565b600080823b905060008111915050919050565b600060019054906101000a900460ff1680611acc5750611acb61197b565b5b80611ae2575060008054906101000a900460ff16155b611b37576040517f08c379a000000000000000000000000000000000000000000000000000000000815260040180806020018281038252602e815260200180612a1e602e913960400191505060405180910390fd5b60008060019054906101000a900460ff161590508015611b87576001600060016101000a81548160ff02191690831515021790555060016000806101000a81548160ff0219169083151502179055505b8015611ba85760008060016101000a81548160ff0219169083151502179055505b50565b600060019054906101000a900460ff1680611bca5750611bc961197b565b5b80611be0575060008054906101000a900460ff16155b611c35576040517f08c379a000000000000000000000000000000000000000000000000000000000815260040180806020018281038252602e815260200180612a1e602e913960400191505060405180910390fd5b60008060019054906101000a900460ff161590508015611c85576001600060016101000a81548160ff02191690831515021790555060016000806101000a81548160ff0219169083151502179055505b6000611c8f611973565b905080603360006101000a81548173ffffffffffffffffffffffffffffffffffffffff021916908373ffffffffffffffffffffffffffffffffffffffff1602179055508073ffffffffffffffffffffffffffffffffffffffff16600073ffffffffffffffffffffffffffffffffffffffff167f8be0079c531659141344cd1fd0a4f28419497f9722a3daafe3b4186f6b6457e060405160405180910390a3508015611d4f5760008060016101000a81548160ff0219169083151502179055505b50565b604051806040016040528060008152602001600081525090565b600081359050611d7b816129c9565b92915050565b600060408284031215611d9357600080fd5b611d9d604061290e565b90506000611dad84828501611dcd565b6000830152506020611dc184828501611dcd565b60208301525092915050565b600081359050611ddc816129e0565b92915050565b600081519050611df1816129e0565b92915050565b600060208284031215611e0957600080fd5b6000611e1784828501611d6c565b91505092915050565b600080600060608486031215611e3557600080fd5b6000611e4386828701611d6c565b9350506020611e5486828701611dcd565b9250506040611e6586828701611dcd565b9150509250925092565b60008060608385031215611e8257600080fd5b6000611e9085828601611dcd565b9250506020611ea185828601611d81565b9150509250929050565b60008060408385031215611ebe57600080fd5b6000611ecc85828601611dcd565b9250506020611edd85828601611dcd565b9150509250929050565b60008060408385031215611efa57600080fd5b6000611f0885828601611de2565b9250506020611f1985828601611de2565b9150509250929050565b611f2c8161295b565b82525050565b611f3b8161296d565b82525050565b611f4a816129a3565b82525050565b6000611f5d600a8361293f565b91507f50434c3a554447504c31000000000000000000000000000000000000000000006000830152602082019050919050565b6000611f9d601083612950565b91507f636f6c6c656374696f6e506572696f64000000000000000000000000000000006000830152601082019050919050565b6000611fdd60088361293f565b91507f50434c3a494c42310000000000000000000000000000000000000000000000006000830152602082019050919050565b600061201d60098361293f565b91507f50434c3a5542524c3100000000000000000000000000000000000000000000006000830152602082019050919050565b600061205d600a8361293f565b91507f50434c3a554750524c31000000000000000000000000000000000000000000006000830152602082019050919050565b600061209d60088361293f565b91507f50434c3a494c42330000000000000000000000000000000000000000000000006000830152602082019050919050565b60006120dd601283612950565b91507f64656661756c744772616365506572696f6400000000000000000000000000006000830152601282019050919050565b600061211d600b83612950565b91507f626f72726f774c696d69740000000000000000000000000000000000000000006000830152600b82019050919050565b600061215d601083612950565b91507f677261636550656e616c747952617465000000000000000000000000000000006000830152601082019050919050565b600061219d60098361293f565b91507f50434c3a5542524c3200000000000000000000000000000000000000000000006000830152602082019050919050565b60006121dd60098361293f565b91507f50434c3a5543504c3200000000000000000000000000000000000000000000006000830152602082019050919050565b600061221d60088361293f565b91507f50434c3a55444c310000000000000000000000000000000000000000000000006000830152602082019050919050565b600061225d600a8361293f565b91507f50434c3a554447504c32000000000000000000000000000000000000000000006000830152602082019050919050565b600061229d600a83612950565b91507f626f72726f7752617465000000000000000000000000000000000000000000006000830152600a82019050919050565b60006122dd60098361293f565b91507f50434c3a5543504c3100000000000000000000000000000000000000000000006000830152602082019050919050565b600061231d60088361293f565b91507f50434c3a55444c320000000000000000000000000000000000000000000000006000830152602082019050919050565b600061235d601483612950565b91507f696465616c436f6c6c61746572616c526174696f0000000000000000000000006000830152601482019050919050565b600061239d60098361293f565b91507f50434c3a55424c4c3200000000000000000000000000000000000000000000006000830152602082019050919050565b60006123dd600a8361293f565b91507f50434c3a554750524c32000000000000000000000000000000000000000000006000830152602082019050919050565b600061241d60088361293f565b91507f50434c3a494c42320000000000000000000000000000000000000000000000006000830152602082019050919050565b600061245d60098361293f565b91507f50434c3a55424c4c3100000000000000000000000000000000000000000000006000830152602082019050919050565b600061249d600a8361293f565b91507f50434c3a554943524c31000000000000000000000000000000000000000000006000830152602082019050919050565b60006124dd600a8361293f565b91507f50434c3a554943524c32000000000000000000000000000000000000000000006000830152602082019050919050565b600061251d600883612950565b91507f6475726174696f6e0000000000000000000000000000000000000000000000006000830152600882019050919050565b604082016000820151612566600085018261257f565b506020820151612579602085018261257f565b50505050565b61258881612999565b82525050565b61259781612999565b82525050565b60006125a882611f90565b9150819050919050565b60006125bd826120d0565b9150819050919050565b60006125d282612110565b9150819050919050565b60006125e782612150565b9150819050919050565b60006125fc82612290565b9150819050919050565b600061261182612350565b9150819050919050565b600061262682612510565b9150819050919050565b60006020820190506126456000830184611f23565b92915050565b60006040820190506126606000830185611f23565b61266d6020830184611f23565b9392505050565b60006020820190506126896000830184611f32565b92915050565b60006020820190506126a46000830184611f41565b92915050565b600060208201905081810360008301526126c381611f50565b9050919050565b600060208201905081810360008301526126e381611fd0565b9050919050565b6000602082019050818103600083015261270381612010565b9050919050565b6000602082019050818103600083015261272381612050565b9050919050565b6000602082019050818103600083015261274381612090565b9050919050565b6000602082019050818103600083015261276381612190565b9050919050565b60006020820190508181036000830152612783816121d0565b9050919050565b600060208201905081810360008301526127a381612210565b9050919050565b600060208201905081810360008301526127c381612250565b9050919050565b600060208201905081810360008301526127e3816122d0565b9050919050565b6000602082019050818103600083015261280381612310565b9050919050565b6000602082019050818103600083015261282381612390565b9050919050565b60006020820190508181036000830152612843816123d0565b9050919050565b6000602082019050818103600083015261286381612410565b9050919050565b6000602082019050818103600083015261288381612450565b9050919050565b600060208201905081810360008301526128a381612490565b9050919050565b600060208201905081810360008301526128c3816124d0565b9050919050565b60006040820190506128df6000830184612550565b92915050565b60006040820190506128fa600083018561258e565b612907602083018461258e565b9392505050565b6000604051905081810181811067ffffffffffffffff82111715612935576129346129c7565b5b8060405250919050565b600082825260208201905092915050565b600081905092915050565b600061296682612979565b9050919050565b60008115159050919050565b600073ffffffffffffffffffffffffffffffffffffffff82169050919050565b6000819050919050565b60006129ae826129b5565b9050919050565b60006129c082612979565b9050919050565bfe5b6129d28161295b565b81146129dd57600080fd5b50565b6129e981612999565b81146129f457600080fd5b5056fe4f776e61626c653a206e6577206f776e657220697320746865207a65726f2061646472657373496e697469616c697a61626c653a20636f6e747261637420697320616c726561647920696e697469616c697a6564536166654d6174683a206d756c7469706c69636174696f6e206f766572666c6f77a26469706673582212208a9a1b680aecde2a2aeed6f8beb94fde12b09bcb3891078eed5c87e4cc345a2064736f6c63430007060033","linkReferences":{}},"methodIdentifiers":{"PRICE_ORACLE()":"0a19399a","USDC()":"89a30271","getBorrowRateLimits()":"793a68dd","getCollectionPeriodLimits()":"10ff314b","getDefaultGracePeriodLimits()":"b9923331","getDurationLimits()":"5e7b8eea","getGracePenaltyRateLimits()":"23aaa8b9","getIdealCollateralRatioLimits()":"0f07901b","initialize(address)":"c4d66de8","isWithinLimits(uint256,(uint256,uint256))":"0686428d","limitBorrowedInUSDC(address,uint256,uint256)":"0aadf529","owner()":"8da5cb5b","renounceOwnership()":"715018a6","transferOwnership(address)":"f2fde38b","updateBorrowAmountUSDCLimits(uint256,uint256)":"53cdc562","updateBorrowRateLimits(uint256,uint256)":"1b6fff13","updateCollectionPeriodLimits(uint256,uint256)":"e3d7e24c","updateDefaultGracePeriodLimits(uint256,uint256)":"3142fd8e","updateDurationLimits(uint256,uint256)":"4b2fd8ca","updateGracePenaltyRateLimits(uint256,uint256)":"86ace9ab","updateIdealCollateralRatioLimits(uint256,uint256)":"50264fcf"},"id":10}