{
  "_format": "hh-sol-artifact-1",
  "contractName": "TestEncoding",
  "sourceName": "contracts/test/TestEncoding.sol",
  "abi": [
    {
      "inputs": [],
      "name": "getAddress",
      "outputs": [
        {
          "internalType": "address",
          "name": "",
          "type": "address"
        }
      ],
      "stateMutability": "view",
      "type": "function"
    },
    {
      "inputs": [],
      "name": "getData",
      "outputs": [
        {
          "components": [
            {
              "internalType": "bool",
              "name": "permissionless",
              "type": "bool"
            },
            {
              "internalType": "uint256",
              "name": "maxTokensPerVault",
              "type": "uint256"
            },
            {
              "internalType": "uint256",
              "name": "governanceDelay",
              "type": "uint256"
            },
            {
              "internalType": "address",
              "name": "protocolTreasury",
              "type": "address"
            }
          ],
          "internalType": "struct IProtocolGovernance.Params",
          "name": "",
          "type": "tuple"
        }
      ],
      "stateMutability": "view",
      "type": "function"
    },
    {
      "inputs": [
        {
          "internalType": "bytes",
          "name": "_addr",
          "type": "bytes"
        }
      ],
      "name": "setAddress",
      "outputs": [],
      "stateMutability": "nonpayable",
      "type": "function"
    },
    {
      "inputs": [
        {
          "internalType": "bytes",
          "name": "tempData",
          "type": "bytes"
        }
      ],
      "name": "setDataCalldata",
      "outputs": [],
      "stateMutability": "nonpayable",
      "type": "function"
    },
    {
      "inputs": [
        {
          "internalType": "bytes",
          "name": "tempData",
          "type": "bytes"
        }
      ],
      "name": "setDataMemory",
      "outputs": [],
      "stateMutability": "nonpayable",
      "type": "function"
    }
  ],
  "bytecode": "0x608060405234801561001057600080fd5b506104a2806100206000396000f3fe608060405234801561001057600080fd5b50600436106100575760003560e01c806305a37dec1461005c57806338cc4831146100715780633bc5de3014610091578063523f07b9146101155780635fb6a2b414610128575b600080fd5b61006f61006a36600461021e565b61013b565b005b6004546040516001600160a01b0390911681526020015b60405180910390f35b604080516080808201835260008083526020808401829052838501829052606093840182905284518084018652915460ff1615158083526001548383019081526002548488019081526003546001600160a01b0390811695880195865288519384529151938301939093529151958101959095529051169183019190915201610088565b61006f6101233660046102cf565b610191565b61006f61013636600461021e565b6101ee565b610147818301836103a6565b80516000805460ff19169115159190911790556020810151600155604081015160025560600151600380546001600160a01b0319166001600160a01b039092169190911790555050565b808060200190518101906101a591906103fd565b80516000805460ff19169115159190911790556020810151600155604081015160025560600151600380546001600160a01b0319166001600160a01b0390921691909117905550565b6101fa81830183610448565b600480546001600160a01b0319166001600160a01b03929092169190911790555050565b6000806020838503121561023157600080fd5b823567ffffffffffffffff8082111561024957600080fd5b818501915085601f83011261025d57600080fd5b81358181111561026c57600080fd5b86602082850101111561027e57600080fd5b60209290920196919550909350505050565b634e487b7160e01b600052604160045260246000fd5b6040516080810167ffffffffffffffff811182821017156102c9576102c9610290565b60405290565b6000602082840312156102e157600080fd5b813567ffffffffffffffff808211156102f957600080fd5b818401915084601f83011261030d57600080fd5b81358181111561031f5761031f610290565b604051601f8201601f19908116603f0116810190838211818310171561034757610347610290565b8160405282815287602084870101111561036057600080fd5b826020860160208301376000928101602001929092525095945050505050565b801515811461038e57600080fd5b50565b6001600160a01b038116811461038e57600080fd5b6000608082840312156103b857600080fd5b6103c06102a6565b82356103cb81610380565b80825250602083013560208201526040830135604082015260608301356103f181610391565b60608201529392505050565b60006080828403121561040f57600080fd5b6104176102a6565b825161042281610380565b80825250602083015160208201526040830151604082015260608301516103f181610391565b60006020828403121561045a57600080fd5b813561046581610391565b939250505056fea2646970667358221220b12331afbfa18c208b9b06dbd9f0580f3b862fef2272404a877ff84295ed84ca64736f6c63430008090033",
  "linkReferences": {},
  "deployedLinkReferences": {}
}