{
  "_format": "hh-sol-artifact-1",
  "contractName": "ControllerMock",
  "sourceName": "contracts/tests/ControllerMock.sol",
  "abi": [
    {
      "anonymous": false,
      "inputs": [
        {
          "indexed": false,
          "internalType": "address",
          "name": "previousAdmin",
          "type": "address"
        },
        {
          "indexed": false,
          "internalType": "address",
          "name": "newAdmin",
          "type": "address"
        }
      ],
      "name": "AdminChanged",
      "type": "event"
    },
    {
      "anonymous": false,
      "inputs": [
        {
          "indexed": true,
          "internalType": "address",
          "name": "beacon",
          "type": "address"
        }
      ],
      "name": "BeaconUpgraded",
      "type": "event"
    },
    {
      "anonymous": false,
      "inputs": [
        {
          "indexed": false,
          "internalType": "address",
          "name": "account",
          "type": "address"
        }
      ],
      "name": "Paused",
      "type": "event"
    },
    {
      "anonymous": false,
      "inputs": [
        {
          "indexed": true,
          "internalType": "bytes32",
          "name": "role",
          "type": "bytes32"
        },
        {
          "indexed": true,
          "internalType": "bytes32",
          "name": "previousAdminRole",
          "type": "bytes32"
        },
        {
          "indexed": true,
          "internalType": "bytes32",
          "name": "newAdminRole",
          "type": "bytes32"
        }
      ],
      "name": "RoleAdminChanged",
      "type": "event"
    },
    {
      "anonymous": false,
      "inputs": [
        {
          "indexed": true,
          "internalType": "bytes32",
          "name": "role",
          "type": "bytes32"
        },
        {
          "indexed": true,
          "internalType": "address",
          "name": "account",
          "type": "address"
        },
        {
          "indexed": true,
          "internalType": "address",
          "name": "sender",
          "type": "address"
        }
      ],
      "name": "RoleGranted",
      "type": "event"
    },
    {
      "anonymous": false,
      "inputs": [
        {
          "indexed": true,
          "internalType": "bytes32",
          "name": "role",
          "type": "bytes32"
        },
        {
          "indexed": true,
          "internalType": "address",
          "name": "account",
          "type": "address"
        },
        {
          "indexed": true,
          "internalType": "address",
          "name": "sender",
          "type": "address"
        }
      ],
      "name": "RoleRevoked",
      "type": "event"
    },
    {
      "anonymous": false,
      "inputs": [
        {
          "indexed": false,
          "internalType": "address",
          "name": "account",
          "type": "address"
        }
      ],
      "name": "Unpaused",
      "type": "event"
    },
    {
      "anonymous": false,
      "inputs": [
        {
          "indexed": true,
          "internalType": "address",
          "name": "implementation",
          "type": "address"
        }
      ],
      "name": "Upgraded",
      "type": "event"
    },
    {
      "inputs": [],
      "name": "DEFAULT_ADMIN_ROLE",
      "outputs": [
        {
          "internalType": "bytes32",
          "name": "",
          "type": "bytes32"
        }
      ],
      "stateMutability": "view",
      "type": "function"
    },
    {
      "inputs": [],
      "name": "ROLE_ADMIN",
      "outputs": [
        {
          "internalType": "bytes32",
          "name": "",
          "type": "bytes32"
        }
      ],
      "stateMutability": "view",
      "type": "function"
    },
    {
      "inputs": [
        {
          "internalType": "address",
          "name": "admin_",
          "type": "address"
        }
      ],
      "name": "__Controller_init",
      "outputs": [],
      "stateMutability": "nonpayable",
      "type": "function"
    },
    {
      "inputs": [
        {
          "internalType": "address",
          "name": "account",
          "type": "address"
        }
      ],
      "name": "addAdmin",
      "outputs": [],
      "stateMutability": "nonpayable",
      "type": "function"
    },
    {
      "inputs": [
        {
          "internalType": "bytes32",
          "name": "role",
          "type": "bytes32"
        }
      ],
      "name": "getRoleAdmin",
      "outputs": [
        {
          "internalType": "bytes32",
          "name": "",
          "type": "bytes32"
        }
      ],
      "stateMutability": "view",
      "type": "function"
    },
    {
      "inputs": [
        {
          "internalType": "bytes32",
          "name": "role",
          "type": "bytes32"
        },
        {
          "internalType": "address",
          "name": "account",
          "type": "address"
        }
      ],
      "name": "grantRole",
      "outputs": [],
      "stateMutability": "nonpayable",
      "type": "function"
    },
    {
      "inputs": [
        {
          "internalType": "bytes32",
          "name": "role",
          "type": "bytes32"
        },
        {
          "internalType": "address",
          "name": "account",
          "type": "address"
        }
      ],
      "name": "hasRole",
      "outputs": [
        {
          "internalType": "bool",
          "name": "",
          "type": "bool"
        }
      ],
      "stateMutability": "view",
      "type": "function"
    },
    {
      "inputs": [
        {
          "internalType": "address",
          "name": "account",
          "type": "address"
        }
      ],
      "name": "isAdmin",
      "outputs": [
        {
          "internalType": "bool",
          "name": "",
          "type": "bool"
        }
      ],
      "stateMutability": "view",
      "type": "function"
    },
    {
      "inputs": [],
      "name": "pause",
      "outputs": [],
      "stateMutability": "nonpayable",
      "type": "function"
    },
    {
      "inputs": [],
      "name": "pauseGuardian",
      "outputs": [
        {
          "internalType": "address",
          "name": "",
          "type": "address"
        }
      ],
      "stateMutability": "view",
      "type": "function"
    },
    {
      "inputs": [],
      "name": "paused",
      "outputs": [
        {
          "internalType": "bool",
          "name": "",
          "type": "bool"
        }
      ],
      "stateMutability": "view",
      "type": "function"
    },
    {
      "inputs": [],
      "name": "renounceAdmin",
      "outputs": [],
      "stateMutability": "nonpayable",
      "type": "function"
    },
    {
      "inputs": [
        {
          "internalType": "bytes32",
          "name": "role",
          "type": "bytes32"
        },
        {
          "internalType": "address",
          "name": "account",
          "type": "address"
        }
      ],
      "name": "renounceRole",
      "outputs": [],
      "stateMutability": "nonpayable",
      "type": "function"
    },
    {
      "inputs": [
        {
          "internalType": "bytes32",
          "name": "role",
          "type": "bytes32"
        },
        {
          "internalType": "address",
          "name": "account",
          "type": "address"
        }
      ],
      "name": "revokeRole",
      "outputs": [],
      "stateMutability": "nonpayable",
      "type": "function"
    },
    {
      "inputs": [
        {
          "internalType": "address",
          "name": "account",
          "type": "address"
        }
      ],
      "name": "setGuardian",
      "outputs": [],
      "stateMutability": "nonpayable",
      "type": "function"
    },
    {
      "inputs": [
        {
          "internalType": "bytes4",
          "name": "interfaceId",
          "type": "bytes4"
        }
      ],
      "name": "supportsInterface",
      "outputs": [
        {
          "internalType": "bool",
          "name": "",
          "type": "bool"
        }
      ],
      "stateMutability": "view",
      "type": "function"
    },
    {
      "inputs": [],
      "name": "unpause",
      "outputs": [],
      "stateMutability": "nonpayable",
      "type": "function"
    },
    {
      "inputs": [
        {
          "internalType": "address",
          "name": "newImplementation",
          "type": "address"
        }
      ],
      "name": "upgradeTo",
      "outputs": [],
      "stateMutability": "nonpayable",
      "type": "function"
    },
    {
      "inputs": [
        {
          "internalType": "address",
          "name": "newImplementation",
          "type": "address"
        },
        {
          "internalType": "bytes",
          "name": "data",
          "type": "bytes"
        }
      ],
      "name": "upgradeToAndCall",
      "outputs": [],
      "stateMutability": "payable",
      "type": "function"
    }
  ],
  "bytecode": "0x60a06040523060601b60805234801561001757600080fd5b5060805160601c61175361004b60003960008181610496015281816104d601528181610619015261065901526117536000f3fe6080604052600436106101145760003560e01c80635c975abb116100a05780638bad0c0a116100645780638bad0c0a1461030057806391d1485414610315578063a217fddf14610335578063d391014b1461034a578063d547741f1461036c57600080fd5b80635c975abb146102735780636c461a731461028b57806370480275146102ab5780638456cb59146102cb5780638a0dac4a146102e057600080fd5b80632f2ff15d116100e75780632f2ff15d146101e957806336568abe1461020b5780633659cfe61461022b5780633f4ba83a1461024b5780634f1ef2861461026057600080fd5b806301ffc9a714610119578063248a9ca31461014e57806324a3d6221461018c57806324d7806c146101c9575b600080fd5b34801561012557600080fd5b506101396101343660046113d9565b61038c565b60405190151581526020015b60405180910390f35b34801561015a57600080fd5b5061017e610169366004611396565b600090815260c9602052604090206001015490565b604051908152602001610145565b34801561019857600080fd5b5060fc546101b19061010090046001600160a01b031681565b6040516001600160a01b039091168152602001610145565b3480156101d557600080fd5b506101396101e43660046112bf565b6103c3565b3480156101f557600080fd5b506102096102043660046113ae565b6103dd565b005b34801561021757600080fd5b506102096102263660046113ae565b610408565b34801561023757600080fd5b506102096102463660046112bf565b61048b565b34801561025757600080fd5b50610209610554565b61020961026e3660046112d9565b61060e565b34801561027f57600080fd5b5060fc5460ff16610139565b34801561029757600080fd5b506102096102a63660046112bf565b6106c4565b3480156102b757600080fd5b506102096102c63660046112bf565b6107f4565b3480156102d757600080fd5b5061020961092c565b3480156102ec57600080fd5b506102096102fb3660046112bf565b6109e0565b34801561030c57600080fd5b50610209610a3c565b34801561032157600080fd5b506101396103303660046113ae565b610a73565b34801561034157600080fd5b5061017e600081565b34801561035657600080fd5b5061017e6000805160206116d783398151915281565b34801561037857600080fd5b506102096103873660046113ae565b610a9e565b60006001600160e01b03198216637965db0b60e01b14806103bd57506301ffc9a760e01b6001600160e01b03198316145b92915050565b60006103bd6000805160206116d783398151915283610a73565b600082815260c960205260409020600101546103f98133610ac4565b6104038383610b28565b505050565b6001600160a01b038116331461047d5760405162461bcd60e51b815260206004820152602f60248201527f416363657373436f6e74726f6c3a2063616e206f6e6c792072656e6f756e636560448201526e103937b632b9903337b91039b2b63360891b60648201526084015b60405180910390fd5b6104878282610bae565b5050565b306001600160a01b037f00000000000000000000000000000000000000000000000000000000000000001614156104d45760405162461bcd60e51b8152600401610474906114c5565b7f00000000000000000000000000000000000000000000000000000000000000006001600160a01b0316610506610c15565b6001600160a01b03161461052c5760405162461bcd60e51b815260040161047490611511565b61053581610c43565b6040805160008082526020820190925261055191839190610c77565b50565b60fc5461010090046001600160a01b031633146105835760405162461bcd60e51b81526004016104749061158c565b60fc5460ff166105ce5760405162461bcd60e51b815260206004820152601660248201527510dbdb9d1c9bdb1b195c8e881b9bdd081c185d5cd95960521b6044820152606401610474565b60fc805460ff191690556040513381527f5db9ee0a495bf2e6ff9c91a7834c1ba4fdd244a5e8aa4e537bd38aeae4b073aa906020015b60405180910390a1565b306001600160a01b037f00000000000000000000000000000000000000000000000000000000000000001614156106575760405162461bcd60e51b8152600401610474906114c5565b7f00000000000000000000000000000000000000000000000000000000000000006001600160a01b0316610689610c15565b6001600160a01b0316146106af5760405162461bcd60e51b815260040161047490611511565b6106b882610c43565b61048782826001610c77565b600054610100900460ff16806106dd575060005460ff16155b6106f95760405162461bcd60e51b8152600401610474906115de565b600054610100900460ff1615801561071b576000805461ffff19166101011790555b6001600160a01b03821661076c5760405162461bcd60e51b8152602060048201526018602482015277436f6e74726f6c6c65723a2061646472657373207a65726f60401b6044820152606401610474565b60fc805460ff191690556001600160a01b038216600081815260fb6020526040902080546001600160a01b03191690911790556107a7610dc2565b6107bf6000805160206116d783398151915283610e3d565b60fc8054610100600160a81b0319166101006001600160a01b038516021790558015610487576000805461ff00191690555050565b61080c6000805160206116d783398151915233610a73565b6108285760405162461bcd60e51b81526004016104749061155d565b6001600160a01b0381166108795760405162461bcd60e51b8152602060048201526018602482015277436f6e74726f6c6c65723a2061646472657373207a65726f60401b6044820152606401610474565b6001600160a01b03818116600090815260fb602052604090205416156108eb5760405162461bcd60e51b815260206004820152602160248201527f436f6e74726f6c6c65723a2061646d696e20616c7265616479206578697374656044820152601960fa1b6064820152608401610474565b6001600160a01b038116600081815260fb6020526040902080546001600160a01b03191690911790556105516000805160206116d783398151915282610e3d565b60fc5461010090046001600160a01b0316331461095b5760405162461bcd60e51b81526004016104749061158c565b60fc5460ff16156109a35760405162461bcd60e51b815260206004820152601260248201527110dbdb9d1c9bdb1b195c8e881c185d5cd95960721b6044820152606401610474565b60fc805460ff191660011790556040513381527f62e78cea01bee320cd4e420270b5ea74000d11b0c9f74754ebdbfc544b05a25890602001610604565b6109f86000805160206116d783398151915233610a73565b610a145760405162461bcd60e51b81526004016104749061155d565b60fc80546001600160a01b0390921661010002610100600160a81b0319909216919091179055565b610a546000805160206116d783398151915233610408565b33600090815260fb6020526040902080546001600160a01b0319169055565b600091825260c9602090815260408084206001600160a01b0393909316845291905290205460ff1690565b600082815260c96020526040902060010154610aba8133610ac4565b6104038383610bae565b610ace8282610a73565b61048757610ae6816001600160a01b03166014610e47565b610af1836020610e47565b604051602001610b0292919061141d565b60408051601f198184030181529082905262461bcd60e51b825261047491600401611492565b610b328282610a73565b61048757600082815260c9602090815260408083206001600160a01b03851684529091529020805460ff19166001179055610b6a3390565b6001600160a01b0316816001600160a01b0316837f2f8788117e7eff1d82e926ec794901d17c78024a50270940304540a733656f0d60405160405180910390a45050565b610bb88282610a73565b1561048757600082815260c9602090815260408083206001600160a01b0385168085529252808320805460ff1916905551339285917ff6391f5c32d9c69d2a47ea670b442974b53935d1edc7fd64eb21e047a839171b9190a45050565b7f360894a13ba1a3210667c828492db98dca3e2076cc3735a920a3ca505d382bbc546001600160a01b031690565b610c5b6000805160206116d783398151915233610a73565b6105515760405162461bcd60e51b81526004016104749061155d565b6000610c81610c15565b9050610c8c84611030565b600083511180610c995750815b15610caa57610ca884846110d5565b505b7f4910fdfa16fed3260ed0e7147f7cc6da11a60208b5b9406d12a635614ffd9143805460ff16610dbb57805460ff191660011781556040516001600160a01b0383166024820152610d2990869060440160408051601f198184030181529190526020810180516001600160e01b0316631b2ce7f360e11b1790526110d5565b50805460ff19168155610d3a610c15565b6001600160a01b0316826001600160a01b031614610db25760405162461bcd60e51b815260206004820152602f60248201527f45524331393637557067726164653a207570677261646520627265616b73206660448201526e75727468657220757067726164657360881b6064820152608401610474565b610dbb856111c0565b5050505050565b600054610100900460ff1680610ddb575060005460ff16155b610df75760405162461bcd60e51b8152600401610474906115de565b600054610100900460ff16158015610e19576000805461ffff19166101011790555b610e21611200565b610e29611200565b8015610551576000805461ff001916905550565b6104878282610b28565b60606000610e56836002611644565b610e6190600261162c565b67ffffffffffffffff811115610e8757634e487b7160e01b600052604160045260246000fd5b6040519080825280601f01601f191660200182016040528015610eb1576020820181803683370190505b509050600360fc1b81600081518110610eda57634e487b7160e01b600052603260045260246000fd5b60200101906001600160f81b031916908160001a905350600f60fb1b81600181518110610f1757634e487b7160e01b600052603260045260246000fd5b60200101906001600160f81b031916908160001a9053506000610f3b846002611644565b610f4690600161162c565b90505b6001811115610fda576f181899199a1a9b1b9c1cb0b131b232b360811b85600f1660108110610f8857634e487b7160e01b600052603260045260246000fd5b1a60f81b828281518110610fac57634e487b7160e01b600052603260045260246000fd5b60200101906001600160f81b031916908160001a90535060049490941c93610fd381611693565b9050610f49565b5083156110295760405162461bcd60e51b815260206004820181905260248201527f537472696e67733a20686578206c656e67746820696e73756666696369656e746044820152606401610474565b9392505050565b803b6110945760405162461bcd60e51b815260206004820152602d60248201527f455243313936373a206e657720696d706c656d656e746174696f6e206973206e60448201526c1bdd08184818dbdb9d1c9858dd609a1b6064820152608401610474565b7f360894a13ba1a3210667c828492db98dca3e2076cc3735a920a3ca505d382bbc80546001600160a01b0319166001600160a01b0392909216919091179055565b6060823b6111345760405162461bcd60e51b815260206004820152602660248201527f416464726573733a2064656c65676174652063616c6c20746f206e6f6e2d636f6044820152651b9d1c9858dd60d21b6064820152608401610474565b600080846001600160a01b03168460405161114f9190611401565b600060405180830381855af49150503d806000811461118a576040519150601f19603f3d011682016040523d82523d6000602084013e61118f565b606091505b50915091506111b782826040518060600160405280602781526020016116f76027913961126a565b95945050505050565b6111c981611030565b6040516001600160a01b038216907fbc7cd75a20ee27fd9adebab32041f755214dbc6bffa90cc0225b39da2e5c2d3b90600090a250565b600054610100900460ff1680611219575060005460ff16155b6112355760405162461bcd60e51b8152600401610474906115de565b600054610100900460ff16158015610e29576000805461ffff19166101011790558015610551576000805461ff001916905550565b60608315611279575081611029565b8251156112895782518084602001fd5b8160405162461bcd60e51b81526004016104749190611492565b80356001600160a01b03811681146112ba57600080fd5b919050565b6000602082840312156112d0578081fd5b611029826112a3565b600080604083850312156112eb578081fd5b6112f4836112a3565b9150602083013567ffffffffffffffff80821115611310578283fd5b818501915085601f830112611323578283fd5b813581811115611335576113356116c0565b604051601f8201601f19908116603f0116810190838211818310171561135d5761135d6116c0565b81604052828152886020848701011115611375578586fd5b82602086016020830137856020848301015280955050505050509250929050565b6000602082840312156113a7578081fd5b5035919050565b600080604083850312156113c0578182fd5b823591506113d0602084016112a3565b90509250929050565b6000602082840312156113ea578081fd5b81356001600160e01b031981168114611029578182fd5b60008251611413818460208701611663565b9190910192915050565b7f416363657373436f6e74726f6c3a206163636f756e7420000000000000000000815260008351611455816017850160208801611663565b7001034b99036b4b9b9b4b733903937b6329607d1b6017918401918201528351611486816028840160208801611663565b01602801949350505050565b60208152600082518060208401526114b1816040850160208701611663565b601f01601f19169190910160400192915050565b6020808252602c908201527f46756e6374696f6e206d7573742062652063616c6c6564207468726f7567682060408201526b19195b1959d85d1958d85b1b60a21b606082015260800190565b6020808252602c908201527f46756e6374696f6e206d7573742062652063616c6c6564207468726f7567682060408201526b6163746976652070726f787960a01b606082015260800190565b60208082526015908201527421b7b73a3937b63632b91d103737ba1030b236b4b760591b604082015260600190565b60208082526032908201527f436f6e74726f6c6c65723a2063616c6c657220646f6573206e6f7420686176656040820152712074686520677561726469616e20726f6c6560701b606082015260800190565b6020808252602e908201527f496e697469616c697a61626c653a20636f6e747261637420697320616c72656160408201526d191e481a5b9a5d1a585b1a5e995960921b606082015260800190565b6000821982111561163f5761163f6116aa565b500190565b600081600019048311821515161561165e5761165e6116aa565b500290565b60005b8381101561167e578181015183820152602001611666565b8381111561168d576000848401525b50505050565b6000816116a2576116a26116aa565b506000190190565b634e487b7160e01b600052601160045260246000fd5b634e487b7160e01b600052604160045260246000fdfe2172861495e7b85edac73e3cd5fbb42dd675baadf627720e687bcfdaca025096416464726573733a206c6f772d6c6576656c2064656c65676174652063616c6c206661696c6564a2646970667358221220415c3ca8e184e41bcd64b13ccfda15fc08dbb391e146d949e024e52ef5e506de64736f6c63430008040033",
  "linkReferences": {},
  "deployedLinkReferences": {}
}