{"abi":[{"type":"constructor","inputs":[{"name":"_strategyRegistry","type":"address","internalType":"address"}],"stateMutability":"nonpayable"},{"type":"function","name":"STRATEGY_REGISTRY","inputs":[],"outputs":[{"name":"","type":"address","internalType":"contract IStrategyRegistry"}],"stateMutability":"view"},{"type":"function","name":"allowance","inputs":[{"name":"","type":"address","internalType":"address"},{"name":"","type":"address","internalType":"address"},{"name":"","type":"address","internalType":"address"}],"outputs":[{"name":"","type":"uint256","internalType":"uint256"}],"stateMutability":"view"},{"type":"function","name":"approve","inputs":[{"name":"_token","type":"address","internalType":"address"},{"name":"_to","type":"address","internalType":"address"},{"name":"_amount","type":"uint256","internalType":"uint256"}],"outputs":[],"stateMutability":"nonpayable"},{"type":"function","name":"balanceInShares","inputs":[{"name":"","type":"address","internalType":"address"},{"name":"","type":"address","internalType":"address"},{"name":"","type":"address","internalType":"address"}],"outputs":[{"name":"","type":"uint256","internalType":"uint256"}],"stateMutability":"view"},{"type":"function","name":"decreaseAllowance","inputs":[{"name":"_token","type":"address","internalType":"address"},{"name":"_to","type":"address","internalType":"address"},{"name":"_amount","type":"uint256","internalType":"uint256"}],"outputs":[],"stateMutability":"nonpayable"},{"type":"function","name":"deposit","inputs":[{"name":"_token","type":"address","internalType":"address"},{"name":"_strategy","type":"address","internalType":"address"},{"name":"_to","type":"address","internalType":"address"},{"name":"_amount","type":"uint256","internalType":"uint256"}],"outputs":[{"name":"","type":"uint256","internalType":"uint256"}],"stateMutability":"nonpayable"},{"type":"function","name":"getTotalTokens","inputs":[{"name":"_user","type":"address","internalType":"address"},{"name":"_token","type":"address","internalType":"address"}],"outputs":[{"name":"","type":"uint256","internalType":"uint256"}],"stateMutability":"nonpayable"},{"type":"function","name":"increaseAllowance","inputs":[{"name":"_token","type":"address","internalType":"address"},{"name":"_to","type":"address","internalType":"address"},{"name":"_amount","type":"uint256","internalType":"uint256"}],"outputs":[],"stateMutability":"nonpayable"},{"type":"function","name":"initialize","inputs":[{"name":"_owner","type":"address","internalType":"address"}],"outputs":[],"stateMutability":"nonpayable"},{"type":"function","name":"owner","inputs":[],"outputs":[{"name":"","type":"address","internalType":"address"}],"stateMutability":"view"},{"type":"function","name":"renounceOwnership","inputs":[],"outputs":[],"stateMutability":"nonpayable"},{"type":"function","name":"switchStrategy","inputs":[{"name":"_currentStrategy","type":"address","internalType":"address"},{"name":"_newStrategy","type":"address","internalType":"address"},{"name":"_token","type":"address","internalType":"address"},{"name":"_amount","type":"uint256","internalType":"uint256"}],"outputs":[],"stateMutability":"nonpayable"},{"type":"function","name":"transfer","inputs":[{"name":"_token","type":"address","internalType":"address"},{"name":"_strategy","type":"address","internalType":"address"},{"name":"_to","type":"address","internalType":"address"},{"name":"_amount","type":"uint256","internalType":"uint256"}],"outputs":[{"name":"","type":"uint256","internalType":"uint256"}],"stateMutability":"nonpayable"},{"type":"function","name":"transferFrom","inputs":[{"name":"_token","type":"address","internalType":"address"},{"name":"_strategy","type":"address","internalType":"address"},{"name":"_from","type":"address","internalType":"address"},{"name":"_to","type":"address","internalType":"address"},{"name":"_amount","type":"uint256","internalType":"uint256"}],"outputs":[{"name":"","type":"uint256","internalType":"uint256"}],"stateMutability":"nonpayable"},{"type":"function","name":"transferOwnership","inputs":[{"name":"newOwner","type":"address","internalType":"address"}],"outputs":[],"stateMutability":"nonpayable"},{"type":"function","name":"transferShares","inputs":[{"name":"_token","type":"address","internalType":"address"},{"name":"_strategy","type":"address","internalType":"address"},{"name":"_to","type":"address","internalType":"address"},{"name":"_shares","type":"uint256","internalType":"uint256"}],"outputs":[{"name":"","type":"uint256","internalType":"uint256"}],"stateMutability":"nonpayable"},{"type":"function","name":"transferSharesFrom","inputs":[{"name":"_token","type":"address","internalType":"address"},{"name":"_strategy","type":"address","internalType":"address"},{"name":"_from","type":"address","internalType":"address"},{"name":"_to","type":"address","internalType":"address"},{"name":"_shares","type":"uint256","internalType":"uint256"}],"outputs":[{"name":"","type":"uint256","internalType":"uint256"}],"stateMutability":"nonpayable"},{"type":"function","name":"withdraw","inputs":[{"name":"_token","type":"address","internalType":"address"},{"name":"_strategy","type":"address","internalType":"address"},{"name":"_to","type":"address","internalType":"address"},{"name":"_amount","type":"uint256","internalType":"uint256"},{"name":"_receiveShares","type":"bool","internalType":"bool"}],"outputs":[{"name":"","type":"uint256","internalType":"uint256"}],"stateMutability":"nonpayable"},{"type":"function","name":"withdrawAll","inputs":[{"name":"_token","type":"address","internalType":"address"},{"name":"_strategy","type":"address","internalType":"address"}],"outputs":[{"name":"","type":"uint256","internalType":"uint256"}],"stateMutability":"nonpayable"},{"type":"function","name":"withdrawAll","inputs":[{"name":"_token","type":"address","internalType":"address"}],"outputs":[{"name":"","type":"uint256","internalType":"uint256"}],"stateMutability":"nonpayable"},{"type":"function","name":"withdrawFrom","inputs":[{"name":"_token","type":"address","internalType":"address"},{"name":"_strategy","type":"address","internalType":"address"},{"name":"_from","type":"address","internalType":"address"},{"name":"_to","type":"address","internalType":"address"},{"name":"_amount","type":"uint256","internalType":"uint256"},{"name":"_receiveShares","type":"bool","internalType":"bool"}],"outputs":[{"name":"","type":"uint256","internalType":"uint256"}],"stateMutability":"nonpayable"},{"type":"function","name":"withdrawShares","inputs":[{"name":"_token","type":"address","internalType":"address"},{"name":"_strategy","type":"address","internalType":"address"},{"name":"_to","type":"address","internalType":"address"},{"name":"_shares","type":"uint256","internalType":"uint256"},{"name":"_receiveShares","type":"bool","internalType":"bool"}],"outputs":[{"name":"","type":"uint256","internalType":"uint256"}],"stateMutability":"nonpayable"},{"type":"function","name":"withdrawSharesFrom","inputs":[{"name":"_token","type":"address","internalType":"address"},{"name":"_strategy","type":"address","internalType":"address"},{"name":"_from","type":"address","internalType":"address"},{"name":"_to","type":"address","internalType":"address"},{"name":"_shares","type":"uint256","internalType":"uint256"},{"name":"_receiveShares","type":"bool","internalType":"bool"}],"outputs":[{"name":"","type":"uint256","internalType":"uint256"}],"stateMutability":"nonpayable"},{"type":"event","name":"Approved","inputs":[{"name":"token","type":"address","indexed":true,"internalType":"address"},{"name":"from","type":"address","indexed":true,"internalType":"address"},{"name":"to","type":"address","indexed":true,"internalType":"address"},{"name":"amount","type":"uint256","indexed":false,"internalType":"uint256"}],"anonymous":false},{"type":"event","name":"Deposited","inputs":[{"name":"user","type":"address","indexed":true,"internalType":"address"},{"name":"sharesReceived","type":"uint256","indexed":false,"internalType":"uint256"},{"name":"token","type":"address","indexed":true,"internalType":"address"},{"name":"strategy","type":"address","indexed":true,"internalType":"address"}],"anonymous":false},{"type":"event","name":"OwnershipTransferred","inputs":[{"name":"previousOwner","type":"address","indexed":true,"internalType":"address"},{"name":"newOwner","type":"address","indexed":true,"internalType":"address"}],"anonymous":false},{"type":"event","name":"StrategyRegistryUpdated","inputs":[{"name":"updatedStrategyRegistry","type":"address","indexed":true,"internalType":"address"}],"anonymous":false},{"type":"event","name":"StrategySwitched","inputs":[{"name":"user","type":"address","indexed":true,"internalType":"address"},{"name":"token","type":"address","indexed":true,"internalType":"address"},{"name":"sharesDecreasedInCurrentStrategy","type":"uint256","indexed":false,"internalType":"uint256"},{"name":"sharesIncreasedInNewStrategy","type":"uint256","indexed":false,"internalType":"uint256"},{"name":"currentStrategy","type":"address","indexed":false,"internalType":"address"},{"name":"newStrategy","type":"address","indexed":true,"internalType":"address"}],"anonymous":false},{"type":"event","name":"Transfer","inputs":[{"name":"token","type":"address","indexed":true,"internalType":"address"},{"name":"strategy","type":"address","indexed":false,"internalType":"address"},{"name":"from","type":"address","indexed":true,"internalType":"address"},{"name":"to","type":"address","indexed":true,"internalType":"address"},{"name":"amount","type":"uint256","indexed":false,"internalType":"uint256"}],"anonymous":false},{"type":"event","name":"TransferShares","inputs":[{"name":"token","type":"address","indexed":true,"internalType":"address"},{"name":"strategy","type":"address","indexed":false,"internalType":"address"},{"name":"from","type":"address","indexed":true,"internalType":"address"},{"name":"to","type":"address","indexed":true,"internalType":"address"},{"name":"shares","type":"uint256","indexed":false,"internalType":"uint256"}],"anonymous":false},{"type":"event","name":"Withdrawn","inputs":[{"name":"from","type":"address","indexed":true,"internalType":"address"},{"name":"to","type":"address","indexed":true,"internalType":"address"},{"name":"sharesWithdrawn","type":"uint256","indexed":false,"internalType":"uint256"},{"name":"token","type":"address","indexed":true,"internalType":"address"},{"name":"strategy","type":"address","indexed":false,"internalType":"address"},{"name":"receiveShares","type":"bool","indexed":false,"internalType":"bool"}],"anonymous":false},{"type":"event","name":"WithdrawnAll","inputs":[{"name":"user","type":"address","indexed":true,"internalType":"address"},{"name":"tokenReceived","type":"uint256","indexed":false,"internalType":"uint256"},{"name":"token","type":"address","indexed":true,"internalType":"address"}],"anonymous":false}],"bytecode":{"object":"0x60a06040523480156200001157600080fd5b5060405162006d0538038062006d05833981810160405260208110156200003757600080fd5b8101908080519060200190929190505050600073ffffffffffffffffffffffffffffffffffffffff168173ffffffffffffffffffffffffffffffffffffffff161415620000ec576040517f08c379a00000000000000000000000000000000000000000000000000000000081526004018080602001828103825260028152602001807f433100000000000000000000000000000000000000000000000000000000000081525060200191505060405180910390fd5b8073ffffffffffffffffffffffffffffffffffffffff1660808173ffffffffffffffffffffffffffffffffffffffff1660601b815250505060805160601c616b7d6200018860003980610e9f528061159f528061183b5280611da95280611edf528061289d5280612dc85280613261528061340b52806135cc5280613a4a5280613c6652806145d852806149975280614e1d5250616b7d6000f3fe608060405234801561001057600080fd5b506004361061014d5760003560e01c80638f75315b116100c3578063d73b1dc91161007c578063d73b1dc914610a22578063e1f21c6714610a90578063f18d03cc14610afe578063f284d82514610ba0578063f2fde38b14610c62578063fa09e63014610ca65761014d565b80638f75315b1461071e5780639267d86f14610752578063927da10514610800578063a9736a5d14610898578063ab608e0b14610966578063c4d66de8146109de5761014d565b80636c43a2ca116101155780636c43a2ca146104765780636e275bd2146104e4578063715018a6146105a65780637c96f053146105b05780638ae44be9146106525780638da5cb5b146106ea5761014d565b80630284c3f514610152578063081a5e70146101f457806309cae2c8146102c257806343e145341461033a5780635da8bf5a146103c8575b600080fd5b6101de6004803603608081101561016857600080fd5b81019080803573ffffffffffffffffffffffffffffffffffffffff169060200190929190803573ffffffffffffffffffffffffffffffffffffffff169060200190929190803573ffffffffffffffffffffffffffffffffffffffff16906020019092919080359060200190929190505050610cfe565b6040518082815260200191505060405180910390f35b6102ac600480360360c081101561020a57600080fd5b81019080803573ffffffffffffffffffffffffffffffffffffffff169060200190929190803573ffffffffffffffffffffffffffffffffffffffff169060200190929190803573ffffffffffffffffffffffffffffffffffffffff169060200190929190803573ffffffffffffffffffffffffffffffffffffffff1690602001909291908035906020019092919080351515906020019092919050505061135d565b6040518082815260200191505060405180910390f35b610324600480360360408110156102d857600080fd5b81019080803573ffffffffffffffffffffffffffffffffffffffff169060200190929190803573ffffffffffffffffffffffffffffffffffffffff1690602001909291905050506117b6565b6040518082815260200191505060405180910390f35b6103c66004803603608081101561035057600080fd5b81019080803573ffffffffffffffffffffffffffffffffffffffff169060200190929190803573ffffffffffffffffffffffffffffffffffffffff169060200190929190803573ffffffffffffffffffffffffffffffffffffffff16906020019092919080359060200190929190505050611c82565b005b610460600480360360a08110156103de57600080fd5b81019080803573ffffffffffffffffffffffffffffffffffffffff169060200190929190803573ffffffffffffffffffffffffffffffffffffffff169060200190929190803573ffffffffffffffffffffffffffffffffffffffff169060200190929190803590602001909291908035151590602001909291905050506126fe565b6040518082815260200191505060405180910390f35b6104e26004803603606081101561048c57600080fd5b81019080803573ffffffffffffffffffffffffffffffffffffffff169060200190929190803573ffffffffffffffffffffffffffffffffffffffff169060200190929190803590602001909291905050506129f6565b005b610590600480360360a08110156104fa57600080fd5b81019080803573ffffffffffffffffffffffffffffffffffffffff169060200190929190803573ffffffffffffffffffffffffffffffffffffffff169060200190929190803573ffffffffffffffffffffffffffffffffffffffff169060200190929190803573ffffffffffffffffffffffffffffffffffffffff16906020019092919080359060200190929190505050612c06565b6040518082815260200191505060405180910390f35b6105ae612fd2565b005b61063c600480360360808110156105c657600080fd5b81019080803573ffffffffffffffffffffffffffffffffffffffff169060200190929190803573ffffffffffffffffffffffffffffffffffffffff169060200190929190803573ffffffffffffffffffffffffffffffffffffffff16906020019092919080359060200190929190505050613142565b6040518082815260200191505060405180910390f35b6106d46004803603606081101561066857600080fd5b81019080803573ffffffffffffffffffffffffffffffffffffffff169060200190929190803573ffffffffffffffffffffffffffffffffffffffff169060200190929190803573ffffffffffffffffffffffffffffffffffffffff1690602001909291905050506133ad565b6040518082815260200191505060405180910390f35b6106f26133df565b604051808273ffffffffffffffffffffffffffffffffffffffff16815260200191505060405180910390f35b610726613409565b604051808273ffffffffffffffffffffffffffffffffffffffff16815260200191505060405180910390f35b6107ea600480360360a081101561076857600080fd5b81019080803573ffffffffffffffffffffffffffffffffffffffff169060200190929190803573ffffffffffffffffffffffffffffffffffffffff169060200190929190803573ffffffffffffffffffffffffffffffffffffffff1690602001909291908035906020019092919080351515906020019092919050505061342d565b6040518082815260200191505060405180910390f35b6108826004803603606081101561081657600080fd5b81019080803573ffffffffffffffffffffffffffffffffffffffff169060200190929190803573ffffffffffffffffffffffffffffffffffffffff169060200190929190803573ffffffffffffffffffffffffffffffffffffffff1690602001909291905050506137d6565b6040518082815260200191505060405180910390f35b610950600480360360c08110156108ae57600080fd5b81019080803573ffffffffffffffffffffffffffffffffffffffff169060200190929190803573ffffffffffffffffffffffffffffffffffffffff169060200190929190803573ffffffffffffffffffffffffffffffffffffffff169060200190929190803573ffffffffffffffffffffffffffffffffffffffff16906020019092919080359060200190929190803515159060200190929190505050613808565b6040518082815260200191505060405180910390f35b6109c86004803603604081101561097c57600080fd5b81019080803573ffffffffffffffffffffffffffffffffffffffff169060200190929190803573ffffffffffffffffffffffffffffffffffffffff169060200190929190505050613c61565b6040518082815260200191505060405180910390f35b610a20600480360360208110156109f457600080fd5b81019080803573ffffffffffffffffffffffffffffffffffffffff169060200190929190505050613f79565b005b610a8e60048036036060811015610a3857600080fd5b81019080803573ffffffffffffffffffffffffffffffffffffffff169060200190929190803573ffffffffffffffffffffffffffffffffffffffff16906020019092919080359060200190929190505050614091565b005b610afc60048036036060811015610aa657600080fd5b81019080803573ffffffffffffffffffffffffffffffffffffffff169060200190929190803573ffffffffffffffffffffffffffffffffffffffff169060200190929190803590602001909291905050506142d8565b005b610b8a60048036036080811015610b1457600080fd5b81019080803573ffffffffffffffffffffffffffffffffffffffff169060200190929190803573ffffffffffffffffffffffffffffffffffffffff169060200190929190803573ffffffffffffffffffffffffffffffffffffffff169060200190929190803590602001909291905050506144b9565b6040518082815260200191505060405180910390f35b610c4c600480360360a0811015610bb657600080fd5b81019080803573ffffffffffffffffffffffffffffffffffffffff169060200190929190803573ffffffffffffffffffffffffffffffffffffffff169060200190929190803573ffffffffffffffffffffffffffffffffffffffff169060200190929190803573ffffffffffffffffffffffffffffffffffffffff169060200190929190803590602001909291905050506147d5565b6040518082815260200191505060405180910390f35b610ca460048036036020811015610c7857600080fd5b81019080803573ffffffffffffffffffffffffffffffffffffffff169060200190929190505050614ba1565b005b610ce860048036036020811015610cbc57600080fd5b81019080803573ffffffffffffffffffffffffffffffffffffffff169060200190929190505050614d96565b6040518082815260200191505060405180910390f35b600060026065541415610d79576040517f08c379a000000000000000000000000000000000000000000000000000000000815260040180806020018281038252601f8152602001807f5265656e7472616e637947756172643a207265656e7472616e742063616c6c0081525060200191505060405180910390fd5b6002606581905550600073ffffffffffffffffffffffffffffffffffffffff168373ffffffffffffffffffffffffffffffffffffffff161415610e24576040517f08c379a00000000000000000000000000000000000000000000000000000000081526004018080602001828103825260058152602001807f53413a443100000000000000000000000000000000000000000000000000000081525060200191505060405180910390fd5b6000821415610e9b576040517f08c379a00000000000000000000000000000000000000000000000000000000081526004018080602001828103825260058152602001807f53413a443200000000000000000000000000000000000000000000000000000081525060200191505060405180910390fd5b60007f000000000000000000000000000000000000000000000000000000000000000073ffffffffffffffffffffffffffffffffffffffff1663038defd7866040518263ffffffff1660e01b8152600401808273ffffffffffffffffffffffffffffffffffffffff16815260200191505060206040518083038186803b158015610f2457600080fd5b505afa158015610f38573d6000803e3d6000fd5b505050506040513d6020811015610f4e57600080fd5b81019080805190602001909291905050501415610fd3576040517f08c379a00000000000000000000000000000000000000000000000000000000081526004018080602001828103825260058152602001807f53413a443300000000000000000000000000000000000000000000000000000081525060200191505060405180910390fd5b600073ffffffffffffffffffffffffffffffffffffffff168573ffffffffffffffffffffffffffffffffffffffff161415611076576040517f08c379a00000000000000000000000000000000000000000000000000000000081526004018080602001828103825260058152602001807f53413a443400000000000000000000000000000000000000000000000000000081525060200191505060405180910390fd5b60008473ffffffffffffffffffffffffffffffffffffffff16634767ceee3388866040518463ffffffff1660e01b8152600401808473ffffffffffffffffffffffffffffffffffffffff1681526020018373ffffffffffffffffffffffffffffffffffffffff1681526020018281526020019350505050602060405180830381600087803b15801561110757600080fd5b505af115801561111b573d6000803e3d6000fd5b505050506040513d602081101561113157600080fd5b8101908080519060200190929190505050905061121081609760008773ffffffffffffffffffffffffffffffffffffffff1673ffffffffffffffffffffffffffffffffffffffff16815260200190815260200160002060008973ffffffffffffffffffffffffffffffffffffffff1673ffffffffffffffffffffffffffffffffffffffff16815260200190815260200160002060008873ffffffffffffffffffffffffffffffffffffffff1673ffffffffffffffffffffffffffffffffffffffff168152602001908152602001600020546152a690919063ffffffff16565b609760008673ffffffffffffffffffffffffffffffffffffffff1673ffffffffffffffffffffffffffffffffffffffff16815260200190815260200160002060008873ffffffffffffffffffffffffffffffffffffffff1673ffffffffffffffffffffffffffffffffffffffff16815260200190815260200160002060008773ffffffffffffffffffffffffffffffffffffffff1673ffffffffffffffffffffffffffffffffffffffff168152602001908152602001600020819055508473ffffffffffffffffffffffffffffffffffffffff168673ffffffffffffffffffffffffffffffffffffffff168573ffffffffffffffffffffffffffffffffffffffff167f53d3a44a3fc80dc86c6d50d5d2082bb2c5f0ee5621b9f50a7be8d1bd202c8aba846040518082815260200191505060405180910390a4809150506001606581905550949350505050565b6000600260655414156113d8576040517f08c379a000000000000000000000000000000000000000000000000000000000815260040180806020018281038252601f8152602001807f5265656e7472616e637947756172643a207265656e7472616e742063616c6c0081525060200191505060405180910390fd5b60026065819055506000831415611457576040517f08c379a00000000000000000000000000000000000000000000000000000000081526004018080602001828103825260078152602001807f53413a575346310000000000000000000000000000000000000000000000000081525060200191505060405180910390fd5b600073ffffffffffffffffffffffffffffffffffffffff168573ffffffffffffffffffffffffffffffffffffffff1614156114fa576040517f08c379a00000000000000000000000000000000000000000000000000000000081526004018080602001828103825260078152602001807f53413a575346320000000000000000000000000000000000000000000000000081525060200191505060405180910390fd5b600073ffffffffffffffffffffffffffffffffffffffff168473ffffffffffffffffffffffffffffffffffffffff16141561159d576040517f08c379a00000000000000000000000000000000000000000000000000000000081526004018080602001828103825260078152602001807f53413a575346330000000000000000000000000000000000000000000000000081525060200191505060405180910390fd5b7f000000000000000000000000000000000000000000000000000000000000000073ffffffffffffffffffffffffffffffffffffffff1663c02d1727876040518263ffffffff1660e01b8152600401808273ffffffffffffffffffffffffffffffffffffffff16815260200191505060206040518083038186803b15801561162457600080fd5b505afa158015611638573d6000803e3d6000fd5b505050506040513d602081101561164e57600080fd5b81019080805190602001909291905050506116d1576040517f08c379a00000000000000000000000000000000000000000000000000000000081526004018080602001828103825260078152602001807f53413a575346340000000000000000000000000000000000000000000000000081525060200191505060405180910390fd5b60008673ffffffffffffffffffffffffffffffffffffffff166359846d29858a6040518363ffffffff1660e01b8152600401808381526020018273ffffffffffffffffffffffffffffffffffffffff16815260200192505050602060405180830381600087803b15801561174457600080fd5b505af1158015611758573d6000803e3d6000fd5b505050506040513d602081101561176e57600080fd5b8101908080519060200190929190505050905061178d8887338461532e565b600061179d898989898989615522565b9050809250505060016065819055509695505050505050565b600060026065541415611831576040517f08c379a000000000000000000000000000000000000000000000000000000000815260040180806020018281038252601f8152602001807f5265656e7472616e637947756172643a207265656e7472616e742063616c6c0081525060200191505060405180910390fd5b60026065819055507f000000000000000000000000000000000000000000000000000000000000000073ffffffffffffffffffffffffffffffffffffffff1663c02d1727836040518263ffffffff1660e01b8152600401808273ffffffffffffffffffffffffffffffffffffffff16815260200191505060206040518083038186803b1580156118c057600080fd5b505afa1580156118d4573d6000803e3d6000fd5b505050506040513d60208110156118ea57600080fd5b810190808051906020019092919050505061196d576040517f08c379a00000000000000000000000000000000000000000000000000000000081526004018080602001828103825260068152602001807f53413a574131000000000000000000000000000000000000000000000000000081525060200191505060405180910390fd5b6000609760003373ffffffffffffffffffffffffffffffffffffffff1673ffffffffffffffffffffffffffffffffffffffff16815260200190815260200160002060008573ffffffffffffffffffffffffffffffffffffffff1673ffffffffffffffffffffffffffffffffffffffff16815260200190815260200160002060008473ffffffffffffffffffffffffffffffffffffffff1673ffffffffffffffffffffffffffffffffffffffff1681526020019081526020016000205490506000811415611a3e576000915050611c74565b609760003373ffffffffffffffffffffffffffffffffffffffff1673ffffffffffffffffffffffffffffffffffffffff16815260200190815260200160002060008573ffffffffffffffffffffffffffffffffffffffff1673ffffffffffffffffffffffffffffffffffffffff16815260200190815260200160002060008473ffffffffffffffffffffffffffffffffffffffff1673ffffffffffffffffffffffffffffffffffffffff1681526020019081526020016000206000905560008373ffffffffffffffffffffffffffffffffffffffff16632d4526588633856040518463ffffffff1660e01b8152600401808473ffffffffffffffffffffffffffffffffffffffff1681526020018373ffffffffffffffffffffffffffffffffffffffff1681526020018281526020019350505050602060405180830381600087803b158015611b8c57600080fd5b505af1158015611ba0573d6000803e3d6000fd5b505050506040513d6020811015611bb657600080fd5b810190808051906020019092919050505090508473ffffffffffffffffffffffffffffffffffffffff163373ffffffffffffffffffffffffffffffffffffffff163373ffffffffffffffffffffffffffffffffffffffff167fa3614eabab5a709f8def9bca9367292f012979070df200bc277d27eba3aff2e984886000604051808481526020018373ffffffffffffffffffffffffffffffffffffffff1681526020018215158152602001935050505060405180910390a480925050505b600160658190555092915050565b60026065541415611cfb576040517f08c379a000000000000000000000000000000000000000000000000000000000815260040180806020018281038252601f8152602001807f5265656e7472616e637947756172643a207265656e7472616e742063616c6c0081525060200191505060405180910390fd5b60026065819055508273ffffffffffffffffffffffffffffffffffffffff168473ffffffffffffffffffffffffffffffffffffffff161415611da5576040517f08c379a00000000000000000000000000000000000000000000000000000000081526004018080602001828103825260068152602001807f53413a535331000000000000000000000000000000000000000000000000000081525060200191505060405180910390fd5b60007f000000000000000000000000000000000000000000000000000000000000000073ffffffffffffffffffffffffffffffffffffffff1663038defd7856040518263ffffffff1660e01b8152600401808273ffffffffffffffffffffffffffffffffffffffff16815260200191505060206040518083038186803b158015611e2e57600080fd5b505afa158015611e42573d6000803e3d6000fd5b505050506040513d6020811015611e5857600080fd5b81019080805190602001909291905050501415611edd576040517f08c379a00000000000000000000000000000000000000000000000000000000081526004018080602001828103825260068152602001807f53413a535332000000000000000000000000000000000000000000000000000081525060200191505060405180910390fd5b7f000000000000000000000000000000000000000000000000000000000000000073ffffffffffffffffffffffffffffffffffffffff1663c02d1727856040518263ffffffff1660e01b8152600401808273ffffffffffffffffffffffffffffffffffffffff16815260200191505060206040518083038186803b158015611f6457600080fd5b505afa158015611f78573d6000803e3d6000fd5b505050506040513d6020811015611f8e57600080fd5b8101908080519060200190929190505050612011576040517f08c379a00000000000000000000000000000000000000000000000000000000081526004018080602001828103825260068152602001807f53413a535333000000000000000000000000000000000000000000000000000081525060200191505060405180910390fd5b6000811415612088576040517f08c379a00000000000000000000000000000000000000000000000000000000081526004018080602001828103825260068152602001807f53413a535334000000000000000000000000000000000000000000000000000081525060200191505060405180910390fd5b60008490508073ffffffffffffffffffffffffffffffffffffffff1663934a525283856040518363ffffffff1660e01b8152600401808381526020018273ffffffffffffffffffffffffffffffffffffffff16815260200192505050602060405180830381600087803b1580156120fe57600080fd5b505af1158015612112573d6000803e3d6000fd5b505050506040513d602081101561212857600080fd5b8101908080519060200190929190505050915061223e826040518060400160405280600681526020017f53413a5353350000000000000000000000000000000000000000000000000000815250609760003373ffffffffffffffffffffffffffffffffffffffff1673ffffffffffffffffffffffffffffffffffffffff16815260200190815260200160002060008773ffffffffffffffffffffffffffffffffffffffff1673ffffffffffffffffffffffffffffffffffffffff16815260200190815260200160002060008973ffffffffffffffffffffffffffffffffffffffff1673ffffffffffffffffffffffffffffffffffffffff16815260200190815260200160002054615a8b9092919063ffffffff16565b609760003373ffffffffffffffffffffffffffffffffffffffff1673ffffffffffffffffffffffffffffffffffffffff16815260200190815260200160002060008573ffffffffffffffffffffffffffffffffffffffff1673ffffffffffffffffffffffffffffffffffffffff16815260200190815260200160002060008773ffffffffffffffffffffffffffffffffffffffff1673ffffffffffffffffffffffffffffffffffffffff1681526020019081526020016000208190555060008173ffffffffffffffffffffffffffffffffffffffff16632d4526588530866040518463ffffffff1660e01b8152600401808473ffffffffffffffffffffffffffffffffffffffff1681526020018373ffffffffffffffffffffffffffffffffffffffff1681526020018281526020019350505050602060405180830381600087803b15801561238c57600080fd5b505af11580156123a0573d6000803e3d6000fd5b505050506040513d60208110156123b657600080fd5b810190808051906020019092919050505090506123f485828673ffffffffffffffffffffffffffffffffffffffff16615b459092919063ffffffff16565b60008573ffffffffffffffffffffffffffffffffffffffff16634767ceee3087856040518463ffffffff1660e01b8152600401808473ffffffffffffffffffffffffffffffffffffffff1681526020018373ffffffffffffffffffffffffffffffffffffffff1681526020018281526020019350505050602060405180830381600087803b15801561248557600080fd5b505af1158015612499573d6000803e3d6000fd5b505050506040513d60208110156124af57600080fd5b8101908080519060200190929190505050905061258e81609760003373ffffffffffffffffffffffffffffffffffffffff1673ffffffffffffffffffffffffffffffffffffffff16815260200190815260200160002060008873ffffffffffffffffffffffffffffffffffffffff1673ffffffffffffffffffffffffffffffffffffffff16815260200190815260200160002060008973ffffffffffffffffffffffffffffffffffffffff1673ffffffffffffffffffffffffffffffffffffffff168152602001908152602001600020546152a690919063ffffffff16565b609760003373ffffffffffffffffffffffffffffffffffffffff1673ffffffffffffffffffffffffffffffffffffffff16815260200190815260200160002060008773ffffffffffffffffffffffffffffffffffffffff1673ffffffffffffffffffffffffffffffffffffffff16815260200190815260200160002060008873ffffffffffffffffffffffffffffffffffffffff1673ffffffffffffffffffffffffffffffffffffffff168152602001908152602001600020819055508573ffffffffffffffffffffffffffffffffffffffff168573ffffffffffffffffffffffffffffffffffffffff163373ffffffffffffffffffffffffffffffffffffffff167f754b97326986feda0e4d36ff4a366b8e1ab6623765932f01d31f5305d58449ae87858c604051808481526020018381526020018273ffffffffffffffffffffffffffffffffffffffff168152602001935050505060405180910390a4505050600160658190555050505050565b600060026065541415612779576040517f08c379a000000000000000000000000000000000000000000000000000000000815260040180806020018281038252601f8152602001807f5265656e7472616e637947756172643a207265656e7472616e742063616c6c0081525060200191505060405180910390fd5b600260658190555060008314156127f8576040517f08c379a00000000000000000000000000000000000000000000000000000000081526004018080602001828103825260068152602001807f53413a575331000000000000000000000000000000000000000000000000000081525060200191505060405180910390fd5b600073ffffffffffffffffffffffffffffffffffffffff168473ffffffffffffffffffffffffffffffffffffffff16141561289b576040517f08c379a00000000000000000000000000000000000000000000000000000000081526004018080602001828103825260068152602001807f53413a575332000000000000000000000000000000000000000000000000000081525060200191505060405180910390fd5b7f000000000000000000000000000000000000000000000000000000000000000073ffffffffffffffffffffffffffffffffffffffff1663c02d1727866040518263ffffffff1660e01b8152600401808273ffffffffffffffffffffffffffffffffffffffff16815260200191505060206040518083038186803b15801561292257600080fd5b505afa158015612936573d6000803e3d6000fd5b505050506040513d602081101561294c57600080fd5b81019080805190602001909291905050506129cf576040517f08c379a00000000000000000000000000000000000000000000000000000000081526004018080602001828103825260068152602001807f53413a575333000000000000000000000000000000000000000000000000000081525060200191505060405180910390fd5b60006129df878733888888615522565b905080915050600160658190555095945050505050565b6000612ac482609860003373ffffffffffffffffffffffffffffffffffffffff1673ffffffffffffffffffffffffffffffffffffffff16815260200190815260200160002060008773ffffffffffffffffffffffffffffffffffffffff1673ffffffffffffffffffffffffffffffffffffffff16815260200190815260200160002060008673ffffffffffffffffffffffffffffffffffffffff1673ffffffffffffffffffffffffffffffffffffffff168152602001908152602001600020546152a690919063ffffffff16565b905080609860003373ffffffffffffffffffffffffffffffffffffffff1673ffffffffffffffffffffffffffffffffffffffff16815260200190815260200160002060008673ffffffffffffffffffffffffffffffffffffffff1673ffffffffffffffffffffffffffffffffffffffff16815260200190815260200160002060008573ffffffffffffffffffffffffffffffffffffffff1673ffffffffffffffffffffffffffffffffffffffff168152602001908152602001600020819055508273ffffffffffffffffffffffffffffffffffffffff163373ffffffffffffffffffffffffffffffffffffffff168573ffffffffffffffffffffffffffffffffffffffff167f8d924fb660ea5dc99861c06d5104285681bb68ef281ebe73b6245e399a1ce2ff846040518082815260200191505060405180910390a450505050565b600080821415612c7e576040517f08c379a00000000000000000000000000000000000000000000000000000000081526004018080602001828103825260068152602001807f53413a544631000000000000000000000000000000000000000000000000000081525060200191505060405180910390fd5b600073ffffffffffffffffffffffffffffffffffffffff168473ffffffffffffffffffffffffffffffffffffffff161415612d21576040517f08c379a00000000000000000000000000000000000000000000000000000000081526004018080602001828103825260068152602001807f53413a544632000000000000000000000000000000000000000000000000000081525060200191505060405180910390fd5b600073ffffffffffffffffffffffffffffffffffffffff168373ffffffffffffffffffffffffffffffffffffffff161415612dc4576040517f08c379a00000000000000000000000000000000000000000000000000000000081526004018080602001828103825260068152602001807f53413a544633000000000000000000000000000000000000000000000000000081525060200191505060405180910390fd5b60007f000000000000000000000000000000000000000000000000000000000000000073ffffffffffffffffffffffffffffffffffffffff1663038defd7876040518263ffffffff1660e01b8152600401808273ffffffffffffffffffffffffffffffffffffffff16815260200191505060206040518083038186803b158015612e4d57600080fd5b505afa158015612e61573d6000803e3d6000fd5b505050506040513d6020811015612e7757600080fd5b81019080805190602001909291905050501415612efc576040517f08c379a00000000000000000000000000000000000000000000000000000000081526004018080602001828103825260068152602001807f53413a544634000000000000000000000000000000000000000000000000000081525060200191505060405180910390fd5b612f088685338561532e565b60008573ffffffffffffffffffffffffffffffffffffffff1663934a525284896040518363ffffffff1660e01b8152600401808381526020018273ffffffffffffffffffffffffffffffffffffffff16815260200192505050602060405180830381600087803b158015612f7b57600080fd5b505af1158015612f8f573d6000803e3d6000fd5b505050506040513d6020811015612fa557600080fd5b81019080805190602001909291905050509050612fc58787878785615d0a565b8091505095945050505050565b612fda6160f4565b73ffffffffffffffffffffffffffffffffffffffff16612ff86133df565b73ffffffffffffffffffffffffffffffffffffffff1614613081576040517f08c379a00000000000000000000000000000000000000000000000000000000081526004018080602001828103825260208152602001807f4f776e61626c653a2063616c6c6572206973206e6f7420746865206f776e657281525060200191505060405180910390fd5b600073ffffffffffffffffffffffffffffffffffffffff16603360009054906101000a900473ffffffffffffffffffffffffffffffffffffffff1673ffffffffffffffffffffffffffffffffffffffff167f8be0079c531659141344cd1fd0a4f28419497f9722a3daafe3b4186f6b6457e060405160405180910390a36000603360006101000a81548173ffffffffffffffffffffffffffffffffffffffff021916908373ffffffffffffffffffffffffffffffffffffffff160217905550565b6000808214156131ba576040517f08c379a00000000000000000000000000000000000000000000000000000000081526004018080602001828103825260068152602001807f53413a545331000000000000000000000000000000000000000000000000000081525060200191505060405180910390fd5b600073ffffffffffffffffffffffffffffffffffffffff168373ffffffffffffffffffffffffffffffffffffffff16141561325d576040517f08c379a00000000000000000000000000000000000000000000000000000000081526004018080602001828103825260068152602001807f53413a545332000000000000000000000000000000000000000000000000000081525060200191505060405180910390fd5b60007f000000000000000000000000000000000000000000000000000000000000000073ffffffffffffffffffffffffffffffffffffffff1663038defd7866040518263ffffffff1660e01b8152600401808273ffffffffffffffffffffffffffffffffffffffff16815260200191505060206040518083038186803b1580156132e657600080fd5b505afa1580156132fa573d6000803e3d6000fd5b505050506040513d602081101561331057600080fd5b81019080805190602001909291905050501415613395576040517f08c379a00000000000000000000000000000000000000000000000000000000081526004018080602001828103825260068152602001807f53413a545333000000000000000000000000000000000000000000000000000081525060200191505060405180910390fd5b6133a28585338686615d0a565b819050949350505050565b609760205282600052604060002060205281600052604060002060205280600052604060002060009250925050505481565b6000603360009054906101000a900473ffffffffffffffffffffffffffffffffffffffff16905090565b7f000000000000000000000000000000000000000000000000000000000000000081565b6000600260655414156134a8576040517f08c379a000000000000000000000000000000000000000000000000000000000815260040180806020018281038252601f8152602001807f5265656e7472616e637947756172643a207265656e7472616e742063616c6c0081525060200191505060405180910390fd5b60026065819055506000831415613527576040517f08c379a00000000000000000000000000000000000000000000000000000000081526004018080602001828103825260058152602001807f53413a573100000000000000000000000000000000000000000000000000000081525060200191505060405180910390fd5b600073ffffffffffffffffffffffffffffffffffffffff168473ffffffffffffffffffffffffffffffffffffffff1614156135ca576040517f08c379a00000000000000000000000000000000000000000000000000000000081526004018080602001828103825260058152602001807f53413a573200000000000000000000000000000000000000000000000000000081525060200191505060405180910390fd5b7f000000000000000000000000000000000000000000000000000000000000000073ffffffffffffffffffffffffffffffffffffffff1663c02d1727866040518263ffffffff1660e01b8152600401808273ffffffffffffffffffffffffffffffffffffffff16815260200191505060206040518083038186803b15801561365157600080fd5b505afa158015613665573d6000803e3d6000fd5b505050506040513d602081101561367b57600080fd5b81019080805190602001909291905050506136fe576040517f08c379a00000000000000000000000000000000000000000000000000000000081526004018080602001828103825260058152602001807f53413a573300000000000000000000000000000000000000000000000000000081525060200191505060405180910390fd5b60008573ffffffffffffffffffffffffffffffffffffffff1663934a525285896040518363ffffffff1660e01b8152600401808381526020018273ffffffffffffffffffffffffffffffffffffffff16815260200192505050602060405180830381600087803b15801561377157600080fd5b505af1158015613785573d6000803e3d6000fd5b505050506040513d602081101561379b57600080fd5b8101908080519060200190929190505050905060006137be888833898689615522565b90508092505050600160658190555095945050505050565b609860205282600052604060002060205281600052604060002060205280600052604060002060009250925050505481565b600060026065541415613883576040517f08c379a000000000000000000000000000000000000000000000000000000000815260040180806020018281038252601f8152602001807f5265656e7472616e637947756172643a207265656e7472616e742063616c6c0081525060200191505060405180910390fd5b60026065819055506000831415613902576040517f08c379a00000000000000000000000000000000000000000000000000000000081526004018080602001828103825260068152602001807f53413a574631000000000000000000000000000000000000000000000000000081525060200191505060405180910390fd5b600073ffffffffffffffffffffffffffffffffffffffff168573ffffffffffffffffffffffffffffffffffffffff1614156139a5576040517f08c379a00000000000000000000000000000000000000000000000000000000081526004018080602001828103825260068152602001807f53413a574632000000000000000000000000000000000000000000000000000081525060200191505060405180910390fd5b600073ffffffffffffffffffffffffffffffffffffffff168473ffffffffffffffffffffffffffffffffffffffff161415613a48576040517f08c379a00000000000000000000000000000000000000000000000000000000081526004018080602001828103825260068152602001807f53413a574633000000000000000000000000000000000000000000000000000081525060200191505060405180910390fd5b7f000000000000000000000000000000000000000000000000000000000000000073ffffffffffffffffffffffffffffffffffffffff1663c02d1727876040518263ffffffff1660e01b8152600401808273ffffffffffffffffffffffffffffffffffffffff16815260200191505060206040518083038186803b158015613acf57600080fd5b505afa158015613ae3573d6000803e3d6000fd5b505050506040513d6020811015613af957600080fd5b8101908080519060200190929190505050613b7c576040517f08c379a00000000000000000000000000000000000000000000000000000000081526004018080602001828103825260068152602001807f53413a574634000000000000000000000000000000000000000000000000000081525060200191505060405180910390fd5b613b888786338661532e565b60008673ffffffffffffffffffffffffffffffffffffffff1663934a5252858a6040518363ffffffff1660e01b8152600401808381526020018273ffffffffffffffffffffffffffffffffffffffff16815260200192505050602060405180830381600087803b158015613bfb57600080fd5b505af1158015613c0f573d6000803e3d6000fd5b505050506040513d6020811015613c2557600080fd5b810190808051906020019092919050505090506000613c48898989898689615522565b9050809250505060016065819055509695505050505050565b6000807f000000000000000000000000000000000000000000000000000000000000000073ffffffffffffffffffffffffffffffffffffffff1663b49a60bb6040518163ffffffff1660e01b815260040160006040518083038186803b158015613cca57600080fd5b505afa158015613cde573d6000803e3d6000fd5b505050506040513d6000823e3d601f19601f820116820180604052506020811015613d0857600080fd5b8101908080516040519392919084640100000000821115613d2857600080fd5b83820191506020820185811115613d3e57600080fd5b8251866020820283011164010000000082111715613d5b57600080fd5b8083526020830192505050908051906020019060200280838360005b83811015613d92578082015181840152602081019050613d77565b5050505090500160405250505090506000805b8251811015613f6d576000609760008873ffffffffffffffffffffffffffffffffffffffff1673ffffffffffffffffffffffffffffffffffffffff16815260200190815260200160002060008773ffffffffffffffffffffffffffffffffffffffff1673ffffffffffffffffffffffffffffffffffffffff1681526020019081526020016000206000858481518110613e3a57fe5b602002602001015173ffffffffffffffffffffffffffffffffffffffff1673ffffffffffffffffffffffffffffffffffffffff16815260200190815260200160002054905060008114613f61576000848381518110613e9557fe5b602002602001015173ffffffffffffffffffffffffffffffffffffffff166359846d2983896040518363ffffffff1660e01b8152600401808381526020018273ffffffffffffffffffffffffffffffffffffffff16815260200192505050602060405180830381600087803b158015613f0d57600080fd5b505af1158015613f21573d6000803e3d6000fd5b505050506040513d6020811015613f3757600080fd5b81019080805190602001909291905050509050613f5d81856152a690919063ffffffff16565b9350505b50806001019050613da5565b50809250505092915050565b600060019054906101000a900460ff1680613f985750613f976160fc565b5b80613fae575060008054906101000a900460ff16155b614003576040517f08c379a000000000000000000000000000000000000000000000000000000000815260040180806020018281038252602e815260200180616aba602e913960400191505060405180910390fd5b60008060019054906101000a900460ff161590508015614053576001600060016101000a81548160ff02191690831515021790555060016000806101000a81548160ff0219169083151502179055505b61405b61610d565b61406482614ba1565b61406c61621b565b801561408d5760008060016101000a81548160ff0219169083151502179055505b5050565b6000614196826040518060400160405280600681526020017f53413a4441310000000000000000000000000000000000000000000000000000815250609860003373ffffffffffffffffffffffffffffffffffffffff1673ffffffffffffffffffffffffffffffffffffffff16815260200190815260200160002060008873ffffffffffffffffffffffffffffffffffffffff1673ffffffffffffffffffffffffffffffffffffffff16815260200190815260200160002060008773ffffffffffffffffffffffffffffffffffffffff1673ffffffffffffffffffffffffffffffffffffffff16815260200190815260200160002054615a8b9092919063ffffffff16565b905080609860003373ffffffffffffffffffffffffffffffffffffffff1673ffffffffffffffffffffffffffffffffffffffff16815260200190815260200160002060008673ffffffffffffffffffffffffffffffffffffffff1673ffffffffffffffffffffffffffffffffffffffff16815260200190815260200160002060008573ffffffffffffffffffffffffffffffffffffffff1673ffffffffffffffffffffffffffffffffffffffff168152602001908152602001600020819055508273ffffffffffffffffffffffffffffffffffffffff163373ffffffffffffffffffffffffffffffffffffffff168573ffffffffffffffffffffffffffffffffffffffff167f8d924fb660ea5dc99861c06d5104285681bb68ef281ebe73b6245e399a1ce2ff846040518082815260200191505060405180910390a450505050565b8173ffffffffffffffffffffffffffffffffffffffff163373ffffffffffffffffffffffffffffffffffffffff16141561437a576040517f08c379a00000000000000000000000000000000000000000000000000000000081526004018080602001828103825260058152602001807f53413a413100000000000000000000000000000000000000000000000000000081525060200191505060405180910390fd5b80609860003373ffffffffffffffffffffffffffffffffffffffff1673ffffffffffffffffffffffffffffffffffffffff16815260200190815260200160002060008573ffffffffffffffffffffffffffffffffffffffff1673ffffffffffffffffffffffffffffffffffffffff16815260200190815260200160002060008473ffffffffffffffffffffffffffffffffffffffff1673ffffffffffffffffffffffffffffffffffffffff168152602001908152602001600020819055508173ffffffffffffffffffffffffffffffffffffffff163373ffffffffffffffffffffffffffffffffffffffff168473ffffffffffffffffffffffffffffffffffffffff167f8d924fb660ea5dc99861c06d5104285681bb68ef281ebe73b6245e399a1ce2ff846040518082815260200191505060405180910390a4505050565b600080821415614531576040517f08c379a00000000000000000000000000000000000000000000000000000000081526004018080602001828103825260058152602001807f53413a543100000000000000000000000000000000000000000000000000000081525060200191505060405180910390fd5b600073ffffffffffffffffffffffffffffffffffffffff168373ffffffffffffffffffffffffffffffffffffffff1614156145d4576040517f08c379a00000000000000000000000000000000000000000000000000000000081526004018080602001828103825260058152602001807f53413a543200000000000000000000000000000000000000000000000000000081525060200191505060405180910390fd5b60007f000000000000000000000000000000000000000000000000000000000000000073ffffffffffffffffffffffffffffffffffffffff1663038defd7866040518263ffffffff1660e01b8152600401808273ffffffffffffffffffffffffffffffffffffffff16815260200191505060206040518083038186803b15801561465d57600080fd5b505afa158015614671573d6000803e3d6000fd5b505050506040513d602081101561468757600080fd5b8101908080519060200190929190505050141561470c576040517f08c379a00000000000000000000000000000000000000000000000000000000081526004018080602001828103825260058152602001807f53413a543300000000000000000000000000000000000000000000000000000081525060200191505060405180910390fd5b60008473ffffffffffffffffffffffffffffffffffffffff1663934a525284886040518363ffffffff1660e01b8152600401808381526020018273ffffffffffffffffffffffffffffffffffffffff16815260200192505050602060405180830381600087803b15801561477f57600080fd5b505af1158015614793573d6000803e3d6000fd5b505050506040513d60208110156147a957600080fd5b810190808051906020019092919050505090506147c98686338785615d0a565b80915050949350505050565b60008082141561484d576040517f08c379a00000000000000000000000000000000000000000000000000000000081526004018080602001828103825260078152602001807f53413a544653310000000000000000000000000000000000000000000000000081525060200191505060405180910390fd5b600073ffffffffffffffffffffffffffffffffffffffff168473ffffffffffffffffffffffffffffffffffffffff1614156148f0576040517f08c379a00000000000000000000000000000000000000000000000000000000081526004018080602001828103825260078152602001807f53413a544653320000000000000000000000000000000000000000000000000081525060200191505060405180910390fd5b600073ffffffffffffffffffffffffffffffffffffffff168373ffffffffffffffffffffffffffffffffffffffff161415614993576040517f08c379a00000000000000000000000000000000000000000000000000000000081526004018080602001828103825260078152602001807f53413a544653330000000000000000000000000000000000000000000000000081525060200191505060405180910390fd5b60007f000000000000000000000000000000000000000000000000000000000000000073ffffffffffffffffffffffffffffffffffffffff1663038defd7876040518263ffffffff1660e01b8152600401808273ffffffffffffffffffffffffffffffffffffffff16815260200191505060206040518083038186803b158015614a1c57600080fd5b505afa158015614a30573d6000803e3d6000fd5b505050506040513d6020811015614a4657600080fd5b81019080805190602001909291905050501415614acb576040517f08c379a00000000000000000000000000000000000000000000000000000000081526004018080602001828103825260078152602001807f53413a544653340000000000000000000000000000000000000000000000000081525060200191505060405180910390fd5b60008573ffffffffffffffffffffffffffffffffffffffff166359846d2984896040518363ffffffff1660e01b8152600401808381526020018273ffffffffffffffffffffffffffffffffffffffff16815260200192505050602060405180830381600087803b158015614b3e57600080fd5b505af1158015614b52573d6000803e3d6000fd5b505050506040513d6020811015614b6857600080fd5b81019080805190602001909291905050509050614b878786338461532e565b614b948787878787615d0a565b8291505095945050505050565b614ba96160f4565b73ffffffffffffffffffffffffffffffffffffffff16614bc76133df565b73ffffffffffffffffffffffffffffffffffffffff1614614c50576040517f08c379a00000000000000000000000000000000000000000000000000000000081526004018080602001828103825260208152602001807f4f776e61626c653a2063616c6c6572206973206e6f7420746865206f776e657281525060200191505060405180910390fd5b600073ffffffffffffffffffffffffffffffffffffffff168173ffffffffffffffffffffffffffffffffffffffff161415614cd6576040517f08c379a0000000000000000000000000000000000000000000000000000000008152600401808060200182810382526026815260200180616a6e6026913960400191505060405180910390fd5b8073ffffffffffffffffffffffffffffffffffffffff16603360009054906101000a900473ffffffffffffffffffffffffffffffffffffffff1673ffffffffffffffffffffffffffffffffffffffff167f8be0079c531659141344cd1fd0a4f28419497f9722a3daafe3b4186f6b6457e060405160405180910390a380603360006101000a81548173ffffffffffffffffffffffffffffffffffffffff021916908373ffffffffffffffffffffffffffffffffffffffff16021790555050565b600060026065541415614e11576040517f08c379a000000000000000000000000000000000000000000000000000000000815260040180806020018281038252601f8152602001807f5265656e7472616e637947756172643a207265656e7472616e742063616c6c0081525060200191505060405180910390fd5b600260658190555060007f000000000000000000000000000000000000000000000000000000000000000073ffffffffffffffffffffffffffffffffffffffff1663b49a60bb6040518163ffffffff1660e01b815260040160006040518083038186803b158015614e8157600080fd5b505afa158015614e95573d6000803e3d6000fd5b505050506040513d6000823e3d601f19601f820116820180604052506020811015614ebf57600080fd5b8101908080516040519392919084640100000000821115614edf57600080fd5b83820191506020820185811115614ef557600080fd5b8251866020820283011164010000000082111715614f1257600080fd5b8083526020830192505050908051906020019060200280838360005b83811015614f49578082015181840152602081019050614f2e565b5050505090500160405250505090506000805b8251811015615219576000609760003373ffffffffffffffffffffffffffffffffffffffff1673ffffffffffffffffffffffffffffffffffffffff16815260200190815260200160002060008773ffffffffffffffffffffffffffffffffffffffff1673ffffffffffffffffffffffffffffffffffffffff1681526020019081526020016000206000858481518110614ff157fe5b602002602001015173ffffffffffffffffffffffffffffffffffffffff1673ffffffffffffffffffffffffffffffffffffffff1681526020019081526020016000205490506000811415615045575061520e565b609760003373ffffffffffffffffffffffffffffffffffffffff1673ffffffffffffffffffffffffffffffffffffffff16815260200190815260200160002060008773ffffffffffffffffffffffffffffffffffffffff1673ffffffffffffffffffffffffffffffffffffffff16815260200190815260200160002060008584815181106150cf57fe5b602002602001015173ffffffffffffffffffffffffffffffffffffffff1673ffffffffffffffffffffffffffffffffffffffff16815260200190815260200160002060009055600084838151811061512357fe5b602002602001015173ffffffffffffffffffffffffffffffffffffffff16632d4526588833856040518463ffffffff1660e01b8152600401808473ffffffffffffffffffffffffffffffffffffffff1681526020018373ffffffffffffffffffffffffffffffffffffffff1681526020018281526020019350505050602060405180830381600087803b1580156151b957600080fd5b505af11580156151cd573d6000803e3d6000fd5b505050506040513d60208110156151e357600080fd5b8101908080519060200190929190505050905061520981856152a690919063ffffffff16565b935050505b806001019050614f5c565b50600081141561522e57600092505050615299565b8373ffffffffffffffffffffffffffffffffffffffff163373ffffffffffffffffffffffffffffffffffffffff167f328db4c25b66e05dd2f9a763caa536ec2d870c6128ee9e34fb6de0cf3693ec91836040518082815260200191505060405180910390a380925050505b6001606581905550919050565b600080828401905083811015615324576040517f08c379a000000000000000000000000000000000000000000000000000000000815260040180806020018281038252601b8152602001807f536166654d6174683a206164646974696f6e206f766572666c6f77000000000081525060200191505060405180910390fd5b8091505092915050565b6000609860008573ffffffffffffffffffffffffffffffffffffffff1673ffffffffffffffffffffffffffffffffffffffff16815260200190815260200160002060008673ffffffffffffffffffffffffffffffffffffffff1673ffffffffffffffffffffffffffffffffffffffff16815260200190815260200160002060008473ffffffffffffffffffffffffffffffffffffffff1673ffffffffffffffffffffffffffffffffffffffff1681526020019081526020016000205490507fffffffffffffffffffffffffffffffffffffffffffffffffffffffffffffffff811461551b5761545d826040518060400160405280600781526020017f53413a495341310000000000000000000000000000000000000000000000000081525083615a8b9092919063ffffffff16565b609860008673ffffffffffffffffffffffffffffffffffffffff1673ffffffffffffffffffffffffffffffffffffffff16815260200190815260200160002060008773ffffffffffffffffffffffffffffffffffffffff1673ffffffffffffffffffffffffffffffffffffffff16815260200190815260200160002060008573ffffffffffffffffffffffffffffffffffffffff1673ffffffffffffffffffffffffffffffffffffffff168152602001908152602001600020819055505b5050505050565b6000615627836040518060400160405280600681526020017f53413a4957310000000000000000000000000000000000000000000000000000815250609760008973ffffffffffffffffffffffffffffffffffffffff1673ffffffffffffffffffffffffffffffffffffffff16815260200190815260200160002060008b73ffffffffffffffffffffffffffffffffffffffff1673ffffffffffffffffffffffffffffffffffffffff16815260200190815260200160002060008a73ffffffffffffffffffffffffffffffffffffffff1673ffffffffffffffffffffffffffffffffffffffff16815260200190815260200160002054615a8b9092919063ffffffff16565b609760008773ffffffffffffffffffffffffffffffffffffffff1673ffffffffffffffffffffffffffffffffffffffff16815260200190815260200160002060008973ffffffffffffffffffffffffffffffffffffffff1673ffffffffffffffffffffffffffffffffffffffff16815260200190815260200160002060008873ffffffffffffffffffffffffffffffffffffffff1673ffffffffffffffffffffffffffffffffffffffff16815260200190815260200160002081905550600080879050831561590b5760008173ffffffffffffffffffffffffffffffffffffffff16631391abc78b6040518263ffffffff1660e01b8152600401808273ffffffffffffffffffffffffffffffffffffffff16815260200191505060206040518083038186803b15801561575957600080fd5b505afa15801561576d573d6000803e3d6000fd5b505050506040513d602081101561578357600080fd5b81019080805190602001909291905050509050600073ffffffffffffffffffffffffffffffffffffffff168173ffffffffffffffffffffffffffffffffffffffff161415615839576040517f08c379a00000000000000000000000000000000000000000000000000000000081526004018080602001828103825260068152602001807f53413a495732000000000000000000000000000000000000000000000000000081525060200191505060405180910390fd5b8173ffffffffffffffffffffffffffffffffffffffff1663b6ffc6038289896040518463ffffffff1660e01b8152600401808473ffffffffffffffffffffffffffffffffffffffff1681526020018373ffffffffffffffffffffffffffffffffffffffff1681526020018281526020019350505050602060405180830381600087803b1580156158c857600080fd5b505af11580156158dc573d6000803e3d6000fd5b505050506040513d60208110156158f257600080fd5b81019080805190602001909291905050509250506159d8565b8073ffffffffffffffffffffffffffffffffffffffff16632d4526588a88886040518463ffffffff1660e01b8152600401808473ffffffffffffffffffffffffffffffffffffffff1681526020018373ffffffffffffffffffffffffffffffffffffffff1681526020018281526020019350505050602060405180830381600087803b15801561599a57600080fd5b505af11580156159ae573d6000803e3d6000fd5b505050506040513d60208110156159c457600080fd5b810190808051906020019092919050505091505b8873ffffffffffffffffffffffffffffffffffffffff168673ffffffffffffffffffffffffffffffffffffffff168873ffffffffffffffffffffffffffffffffffffffff167fa3614eabab5a709f8def9bca9367292f012979070df200bc277d27eba3aff2e9888c89604051808481526020018373ffffffffffffffffffffffffffffffffffffffff1681526020018215158152602001935050505060405180910390a481925050509695505050505050565b6000838311158290615b38576040517f08c379a00000000000000000000000000000000000000000000000000000000081526004018080602001828103825283818151815260200191508051906020019080838360005b83811015615afd578082015181840152602081019050615ae2565b50505050905090810190601f168015615b2a5780820380516001836020036101000a031916815260200191505b509250505060405180910390fd5b5082840390509392505050565b6000811480615c13575060008373ffffffffffffffffffffffffffffffffffffffff1663dd62ed3e30856040518363ffffffff1660e01b8152600401808373ffffffffffffffffffffffffffffffffffffffff1681526020018273ffffffffffffffffffffffffffffffffffffffff1681526020019250505060206040518083038186803b158015615bd657600080fd5b505afa158015615bea573d6000803e3d6000fd5b505050506040513d6020811015615c0057600080fd5b8101908080519060200190929190505050145b615c68576040517f08c379a0000000000000000000000000000000000000000000000000000000008152600401808060200182810382526036815260200180616b126036913960400191505060405180910390fd5b615d058363095ea7b360e01b8484604051602401808373ffffffffffffffffffffffffffffffffffffffff16815260200182815260200192505050604051602081830303815290604052907bffffffffffffffffffffffffffffffffffffffffffffffffffffffff19166020820180517bffffffffffffffffffffffffffffffffffffffffffffffffffffffff8381831617835250505050616321565b505050565b615e0d816040518060400160405280600681526020017f53413a4954310000000000000000000000000000000000000000000000000000815250609760008773ffffffffffffffffffffffffffffffffffffffff1673ffffffffffffffffffffffffffffffffffffffff16815260200190815260200160002060008973ffffffffffffffffffffffffffffffffffffffff1673ffffffffffffffffffffffffffffffffffffffff16815260200190815260200160002060008873ffffffffffffffffffffffffffffffffffffffff1673ffffffffffffffffffffffffffffffffffffffff16815260200190815260200160002054615a8b9092919063ffffffff16565b609760008573ffffffffffffffffffffffffffffffffffffffff1673ffffffffffffffffffffffffffffffffffffffff16815260200190815260200160002060008773ffffffffffffffffffffffffffffffffffffffff1673ffffffffffffffffffffffffffffffffffffffff16815260200190815260200160002060008673ffffffffffffffffffffffffffffffffffffffff1673ffffffffffffffffffffffffffffffffffffffff16815260200190815260200160002081905550615f9681609760008573ffffffffffffffffffffffffffffffffffffffff1673ffffffffffffffffffffffffffffffffffffffff16815260200190815260200160002060008873ffffffffffffffffffffffffffffffffffffffff1673ffffffffffffffffffffffffffffffffffffffff16815260200190815260200160002060008773ffffffffffffffffffffffffffffffffffffffff1673ffffffffffffffffffffffffffffffffffffffff168152602001908152602001600020546152a690919063ffffffff16565b609760008473ffffffffffffffffffffffffffffffffffffffff1673ffffffffffffffffffffffffffffffffffffffff16815260200190815260200160002060008773ffffffffffffffffffffffffffffffffffffffff1673ffffffffffffffffffffffffffffffffffffffff16815260200190815260200160002060008673ffffffffffffffffffffffffffffffffffffffff1673ffffffffffffffffffffffffffffffffffffffff168152602001908152602001600020819055508173ffffffffffffffffffffffffffffffffffffffff168373ffffffffffffffffffffffffffffffffffffffff168673ffffffffffffffffffffffffffffffffffffffff167f5b21a3c624a398df3917a0a930f91e3837519b8eab3302b834746433065f29598785604051808373ffffffffffffffffffffffffffffffffffffffff1681526020018281526020019250505060405180910390a45050505050565b600033905090565b600061610730616410565b15905090565b600060019054906101000a900460ff168061612c575061612b6160fc565b5b80616142575060008054906101000a900460ff16155b616197576040517f08c379a000000000000000000000000000000000000000000000000000000000815260040180806020018281038252602e815260200180616aba602e913960400191505060405180910390fd5b60008060019054906101000a900460ff1615905080156161e7576001600060016101000a81548160ff02191690831515021790555060016000806101000a81548160ff0219169083151502179055505b6161ef616423565b6161f7616521565b80156162185760008060016101000a81548160ff0219169083151502179055505b50565b600060019054906101000a900460ff168061623a57506162396160fc565b5b80616250575060008054906101000a900460ff16155b6162a5576040517f08c379a000000000000000000000000000000000000000000000000000000000815260040180806020018281038252602e815260200180616aba602e913960400191505060405180910390fd5b60008060019054906101000a900460ff1615905080156162f5576001600060016101000a81548160ff02191690831515021790555060016000806101000a81548160ff0219169083151502179055505b6162fd6166c8565b801561631e5760008060016101000a81548160ff0219169083151502179055505b50565b6000616383826040518060400160405280602081526020017f5361666545524332303a206c6f772d6c6576656c2063616c6c206661696c65648152508573ffffffffffffffffffffffffffffffffffffffff166167ce9092919063ffffffff16565b905060008151111561640b578080602001905160208110156163a457600080fd5b810190808051906020019092919050505061640a576040517f08c379a000000000000000000000000000000000000000000000000000000000815260040180806020018281038252602a815260200180616ae8602a913960400191505060405180910390fd5b5b505050565b600080823b905060008111915050919050565b600060019054906101000a900460ff168061644257506164416160fc565b5b80616458575060008054906101000a900460ff16155b6164ad576040517f08c379a000000000000000000000000000000000000000000000000000000000815260040180806020018281038252602e815260200180616aba602e913960400191505060405180910390fd5b60008060019054906101000a900460ff1615905080156164fd576001600060016101000a81548160ff02191690831515021790555060016000806101000a81548160ff0219169083151502179055505b801561651e5760008060016101000a81548160ff0219169083151502179055505b50565b600060019054906101000a900460ff1680616540575061653f6160fc565b5b80616556575060008054906101000a900460ff16155b6165ab576040517f08c379a000000000000000000000000000000000000000000000000000000000815260040180806020018281038252602e815260200180616aba602e913960400191505060405180910390fd5b60008060019054906101000a900460ff1615905080156165fb576001600060016101000a81548160ff02191690831515021790555060016000806101000a81548160ff0219169083151502179055505b60006166056160f4565b905080603360006101000a81548173ffffffffffffffffffffffffffffffffffffffff021916908373ffffffffffffffffffffffffffffffffffffffff1602179055508073ffffffffffffffffffffffffffffffffffffffff16600073ffffffffffffffffffffffffffffffffffffffff167f8be0079c531659141344cd1fd0a4f28419497f9722a3daafe3b4186f6b6457e060405160405180910390a35080156166c55760008060016101000a81548160ff0219169083151502179055505b50565b600060019054906101000a900460ff16806166e757506166e66160fc565b5b806166fd575060008054906101000a900460ff16155b616752576040517f08c379a000000000000000000000000000000000000000000000000000000000815260040180806020018281038252602e815260200180616aba602e913960400191505060405180910390fd5b60008060019054906101000a900460ff1615905080156167a2576001600060016101000a81548160ff02191690831515021790555060016000806101000a81548160ff0219169083151502179055505b600160658190555080156167cb5760008060016101000a81548160ff0219169083151502179055505b50565b60606167dd84846000856167e6565b90509392505050565b606082471015616841576040517f08c379a0000000000000000000000000000000000000000000000000000000008152600401808060200182810382526026815260200180616a946026913960400191505060405180910390fd5b61684a8561698e565b6168bc576040517f08c379a000000000000000000000000000000000000000000000000000000000815260040180806020018281038252601d8152602001807f416464726573733a2063616c6c20746f206e6f6e2d636f6e747261637400000081525060200191505060405180910390fd5b6000808673ffffffffffffffffffffffffffffffffffffffff1685876040518082805190602001908083835b6020831061690b57805182526020820191506020810190506020830392506168e8565b6001836020036101000a03801982511681845116808217855250505050505090500191505060006040518083038185875af1925050503d806000811461696d576040519150601f19603f3d011682016040523d82523d6000602084013e616972565b606091505b50915091506169828282866169a1565b92505050949350505050565b600080823b905060008111915050919050565b606083156169b157829050616a66565b6000835111156169c45782518084602001fd5b816040517f08c379a00000000000000000000000000000000000000000000000000000000081526004018080602001828103825283818151815260200191508051906020019080838360005b83811015616a2b578082015181840152602081019050616a10565b50505050905090810190601f168015616a585780820380516001836020036101000a031916815260200191505b509250505060405180910390fd5b939250505056fe4f776e61626c653a206e6577206f776e657220697320746865207a65726f2061646472657373416464726573733a20696e73756666696369656e742062616c616e636520666f722063616c6c496e697469616c697a61626c653a20636f6e747261637420697320616c726561647920696e697469616c697a65645361666545524332303a204552433230206f7065726174696f6e20646964206e6f7420737563636565645361666545524332303a20617070726f76652066726f6d206e6f6e2d7a65726f20746f206e6f6e2d7a65726f20616c6c6f77616e6365a264697066735822122053b6fb1d5522c70244c91aeec3914f89aa65fc92443e2e4891c9db5280c5737464736f6c63430007060033","linkReferences":{}},"methodIdentifiers":{"STRATEGY_REGISTRY()":"8f75315b","allowance(address,address,address)":"927da105","approve(address,address,uint256)":"e1f21c67","balanceInShares(address,address,address)":"8ae44be9","decreaseAllowance(address,address,uint256)":"d73b1dc9","deposit(address,address,address,uint256)":"0284c3f5","getTotalTokens(address,address)":"ab608e0b","increaseAllowance(address,address,uint256)":"6c43a2ca","initialize(address)":"c4d66de8","owner()":"8da5cb5b","renounceOwnership()":"715018a6","switchStrategy(address,address,address,uint256)":"43e14534","transfer(address,address,address,uint256)":"f18d03cc","transferFrom(address,address,address,address,uint256)":"6e275bd2","transferOwnership(address)":"f2fde38b","transferShares(address,address,address,uint256)":"7c96f053","transferSharesFrom(address,address,address,address,uint256)":"f284d825","withdraw(address,address,address,uint256,bool)":"9267d86f","withdrawAll(address)":"fa09e630","withdrawAll(address,address)":"09cae2c8","withdrawFrom(address,address,address,address,uint256,bool)":"a9736a5d","withdrawShares(address,address,address,uint256,bool)":"5da8bf5a","withdrawSharesFrom(address,address,address,address,uint256,bool)":"081a5e70"},"id":13}