{
  "_format": "hh-sol-artifact-1",
  "contractName": "EIP712Base",
  "sourceName": "contracts/lib/EIP712Base.sol",
  "abi": [
    {
      "inputs": [],
      "name": "getChainId",
      "outputs": [
        {
          "internalType": "uint256",
          "name": "",
          "type": "uint256"
        }
      ],
      "stateMutability": "view",
      "type": "function"
    },
    {
      "inputs": [],
      "name": "getDomainSeperator",
      "outputs": [
        {
          "internalType": "bytes32",
          "name": "",
          "type": "bytes32"
        }
      ],
      "stateMutability": "view",
      "type": "function"
    }
  ],
  "bytecode": "0x608060405234801561001057600080fd5b50610236806100206000396000f3fe608060405234801561001057600080fd5b50600436106100365760003560e01c806320379ee51461003b5780633408e47014610055575b600080fd5b61004361005b565b60405190815260200160405180910390f35b46610043565b60006002546100674690565b1415610074575060015490565b6040518060800160405280604f81526020016101b2604f91398051906020012060036040516100a39190610115565b604051809103902060046040516100ba9190610115565b6040518091039020306100ca4690565b60408051602081019690965285019390935260608401919091526001600160a01b0316608083015260a082015260c00160405160208183030381529060405280519060200120905090565b600080835481600182811c91508083168061013157607f831692505b602080841082141561015157634e487b7160e01b86526022600452602486fd5b8180156101655760018114610176576101a3565b60ff198616895284890196506101a3565b60008a81526020902060005b8681101561019b5781548b820152908501908301610182565b505084890196505b50949897505050505050505056fe454950373132446f6d61696e28737472696e67206e616d652c737472696e672076657273696f6e2c6164647265737320766572696679696e67436f6e74726163742c627974657333322073616c7429a2646970667358221220892f0eaa7fb1a5133e72164e1ab095f1dca53590aa70da8d3df3ececc8f56e2d64736f6c63430008070033",
  "linkReferences": {},
  "deployedLinkReferences": {}
}