{
  "_format": "hh-sol-artifact-1",
  "contractName": "GatewayVault",
  "sourceName": "contracts/GatewayVault.sol",
  "abi": [
    {
      "inputs": [
        {
          "internalType": "contract IVaultGovernance",
          "name": "vaultGovernance_",
          "type": "address"
        },
        {
          "internalType": "address[]",
          "name": "vaultTokens_",
          "type": "address[]"
        }
      ],
      "stateMutability": "nonpayable",
      "type": "constructor"
    },
    {
      "anonymous": false,
      "inputs": [
        {
          "indexed": false,
          "internalType": "address",
          "name": "protocolTreasury",
          "type": "address"
        },
        {
          "indexed": false,
          "internalType": "address[]",
          "name": "tokens",
          "type": "address[]"
        },
        {
          "indexed": false,
          "internalType": "uint256[]",
          "name": "amounts",
          "type": "uint256[]"
        }
      ],
      "name": "CollectProtocolFees",
      "type": "event"
    },
    {
      "anonymous": false,
      "inputs": [
        {
          "indexed": false,
          "internalType": "address",
          "name": "strategyTreasury",
          "type": "address"
        },
        {
          "indexed": false,
          "internalType": "address[]",
          "name": "tokens",
          "type": "address[]"
        },
        {
          "indexed": false,
          "internalType": "uint256[]",
          "name": "amounts",
          "type": "uint256[]"
        }
      ],
      "name": "CollectStrategyFees",
      "type": "event"
    },
    {
      "anonymous": false,
      "inputs": [
        {
          "indexed": false,
          "internalType": "address",
          "name": "to",
          "type": "address"
        },
        {
          "indexed": false,
          "internalType": "uint256[]",
          "name": "tokenAmounts",
          "type": "uint256[]"
        }
      ],
      "name": "Pull",
      "type": "event"
    },
    {
      "anonymous": false,
      "inputs": [
        {
          "indexed": false,
          "internalType": "uint256[]",
          "name": "tokenAmounts",
          "type": "uint256[]"
        }
      ],
      "name": "Push",
      "type": "event"
    },
    {
      "anonymous": false,
      "inputs": [
        {
          "indexed": false,
          "internalType": "address",
          "name": "to",
          "type": "address"
        },
        {
          "indexed": false,
          "internalType": "address[]",
          "name": "tokens",
          "type": "address[]"
        },
        {
          "indexed": false,
          "internalType": "uint256[]",
          "name": "tokenAmounts",
          "type": "uint256[]"
        }
      ],
      "name": "ReclaimTokens",
      "type": "event"
    },
    {
      "inputs": [
        {
          "internalType": "uint256[]",
          "name": "nfts",
          "type": "uint256[]"
        }
      ],
      "name": "addSubvaults",
      "outputs": [],
      "stateMutability": "nonpayable",
      "type": "function"
    },
    {
      "inputs": [
        {
          "internalType": "address",
          "name": "from",
          "type": "address"
        },
        {
          "internalType": "bytes",
          "name": "data",
          "type": "bytes"
        }
      ],
      "name": "claimRewards",
      "outputs": [],
      "stateMutability": "nonpayable",
      "type": "function"
    },
    {
      "inputs": [
        {
          "internalType": "address",
          "name": "vault",
          "type": "address"
        }
      ],
      "name": "hasSubvault",
      "outputs": [
        {
          "internalType": "bool",
          "name": "",
          "type": "bool"
        }
      ],
      "stateMutability": "view",
      "type": "function"
    },
    {
      "inputs": [
        {
          "internalType": "uint256",
          "name": "nft_",
          "type": "uint256"
        }
      ],
      "name": "initialize",
      "outputs": [],
      "stateMutability": "nonpayable",
      "type": "function"
    },
    {
      "inputs": [
        {
          "internalType": "address",
          "name": "token",
          "type": "address"
        }
      ],
      "name": "isVaultToken",
      "outputs": [
        {
          "internalType": "bool",
          "name": "",
          "type": "bool"
        }
      ],
      "stateMutability": "view",
      "type": "function"
    },
    {
      "inputs": [],
      "name": "nft",
      "outputs": [
        {
          "internalType": "uint256",
          "name": "",
          "type": "uint256"
        }
      ],
      "stateMutability": "view",
      "type": "function"
    },
    {
      "inputs": [
        {
          "internalType": "address",
          "name": "",
          "type": "address"
        },
        {
          "internalType": "address",
          "name": "",
          "type": "address"
        },
        {
          "internalType": "uint256",
          "name": "tokenId",
          "type": "uint256"
        },
        {
          "internalType": "bytes",
          "name": "",
          "type": "bytes"
        }
      ],
      "name": "onERC721Received",
      "outputs": [
        {
          "internalType": "bytes4",
          "name": "",
          "type": "bytes4"
        }
      ],
      "stateMutability": "nonpayable",
      "type": "function"
    },
    {
      "inputs": [
        {
          "internalType": "address",
          "name": "to",
          "type": "address"
        },
        {
          "internalType": "address[]",
          "name": "tokens",
          "type": "address[]"
        },
        {
          "internalType": "uint256[]",
          "name": "tokenAmounts",
          "type": "uint256[]"
        },
        {
          "internalType": "bytes",
          "name": "options",
          "type": "bytes"
        }
      ],
      "name": "pull",
      "outputs": [
        {
          "internalType": "uint256[]",
          "name": "actualTokenAmounts",
          "type": "uint256[]"
        }
      ],
      "stateMutability": "nonpayable",
      "type": "function"
    },
    {
      "inputs": [
        {
          "internalType": "address[]",
          "name": "tokens",
          "type": "address[]"
        },
        {
          "internalType": "uint256[]",
          "name": "tokenAmounts",
          "type": "uint256[]"
        },
        {
          "internalType": "bytes",
          "name": "options",
          "type": "bytes"
        }
      ],
      "name": "push",
      "outputs": [
        {
          "internalType": "uint256[]",
          "name": "actualTokenAmounts",
          "type": "uint256[]"
        }
      ],
      "stateMutability": "nonpayable",
      "type": "function"
    },
    {
      "inputs": [
        {
          "internalType": "address",
          "name": "to",
          "type": "address"
        },
        {
          "internalType": "address[]",
          "name": "tokens",
          "type": "address[]"
        }
      ],
      "name": "reclaimTokens",
      "outputs": [],
      "stateMutability": "nonpayable",
      "type": "function"
    },
    {
      "inputs": [
        {
          "internalType": "address",
          "name": "strategy",
          "type": "address"
        },
        {
          "internalType": "uint256[]",
          "name": "nfts",
          "type": "uint256[]"
        }
      ],
      "name": "setApprovalsForStrategy",
      "outputs": [],
      "stateMutability": "nonpayable",
      "type": "function"
    },
    {
      "inputs": [],
      "name": "subvaultNfts",
      "outputs": [
        {
          "internalType": "uint256[]",
          "name": "",
          "type": "uint256[]"
        }
      ],
      "stateMutability": "view",
      "type": "function"
    },
    {
      "inputs": [
        {
          "internalType": "uint256",
          "name": "vaultNum",
          "type": "uint256"
        }
      ],
      "name": "subvaultTvl",
      "outputs": [
        {
          "internalType": "uint256[]",
          "name": "",
          "type": "uint256[]"
        }
      ],
      "stateMutability": "view",
      "type": "function"
    },
    {
      "inputs": [],
      "name": "subvaultsTvl",
      "outputs": [
        {
          "internalType": "uint256[][]",
          "name": "tokenAmounts",
          "type": "uint256[][]"
        }
      ],
      "stateMutability": "view",
      "type": "function"
    },
    {
      "inputs": [
        {
          "internalType": "address",
          "name": "from",
          "type": "address"
        },
        {
          "internalType": "address[]",
          "name": "tokens",
          "type": "address[]"
        },
        {
          "internalType": "uint256[]",
          "name": "tokenAmounts",
          "type": "uint256[]"
        },
        {
          "internalType": "bytes",
          "name": "options",
          "type": "bytes"
        }
      ],
      "name": "transferAndPush",
      "outputs": [
        {
          "internalType": "uint256[]",
          "name": "actualTokenAmounts",
          "type": "uint256[]"
        }
      ],
      "stateMutability": "nonpayable",
      "type": "function"
    },
    {
      "inputs": [],
      "name": "tvl",
      "outputs": [
        {
          "internalType": "uint256[]",
          "name": "tokenAmounts",
          "type": "uint256[]"
        }
      ],
      "stateMutability": "view",
      "type": "function"
    },
    {
      "inputs": [],
      "name": "vaultGovernance",
      "outputs": [
        {
          "internalType": "contract IVaultGovernance",
          "name": "",
          "type": "address"
        }
      ],
      "stateMutability": "view",
      "type": "function"
    },
    {
      "inputs": [],
      "name": "vaultTokens",
      "outputs": [
        {
          "internalType": "address[]",
          "name": "",
          "type": "address[]"
        }
      ],
      "stateMutability": "view",
      "type": "function"
    }
  ],
  "bytecode": "0x60806040523480156200001157600080fd5b5060405162004f3d38038062004f3d8339810160408190526200003491620002bd565b8181600160008190555062000054816200014660201b6200218a1760201c565b6040518060400160405280600381526020016253415560e81b815250906200009a5760405162461bcd60e51b8152600401620000919190620003a8565b60405180910390fd5b50600180546001600160a01b0319166001600160a01b0384161790558051620000cb906002906020840190620001fb565b5060005b81518110156200013b57600160036000848481518110620000f457620000f462000400565b6020908102919091018101516001600160a01b03168252810191909152604001600020805460ff19169115159190911790558062000132816200042c565b915050620000cf565b50505050506200047f565b60006002825110156200015b57506001919050565b60005b600183516200016e91906200044a565b811015620001f257826200018482600162000464565b8151811062000197576200019762000400565b60200260200101516001600160a01b0316838281518110620001bd57620001bd62000400565b60200260200101516001600160a01b031610620001dd5750600092915050565b80620001e9816200042c565b9150506200015e565b50600192915050565b82805482825590600052602060002090810192821562000253579160200282015b828111156200025357825182546001600160a01b0319166001600160a01b039091161782556020909201916001909101906200021c565b506200026192915062000265565b5090565b5b8082111562000261576000815560010162000266565b6001600160a01b03811681146200029257600080fd5b50565b634e487b7160e01b600052604160045260246000fd5b8051620002b8816200027c565b919050565b60008060408385031215620002d157600080fd5b8251620002de816200027c565b602084810151919350906001600160401b0380821115620002fe57600080fd5b818601915086601f8301126200031357600080fd5b81518181111562000328576200032862000295565b8060051b604051601f19603f8301168101818110858211171562000350576200035062000295565b6040529182528482019250838101850191898311156200036f57600080fd5b938501935b8285101562000398576200038885620002ab565b8452938501939285019262000374565b8096505050505050509250929050565b600060208083528351808285015260005b81811015620003d757858101830151858201604001528201620003b9565b81811115620003ea576000604083870101525b50601f01601f1916929092016040019392505050565b634e487b7160e01b600052603260045260246000fd5b634e487b7160e01b600052601160045260246000fd5b600060001982141562000443576200044362000416565b5060010190565b6000828210156200045f576200045f62000416565b500390565b600082198211156200047a576200047a62000416565b500190565b614aae806200048f6000396000f3fe608060405234801561001057600080fd5b50600436106101165760003560e01c80636d0a866e116100a2578063b9d487f211610071578063b9d487f21461025f578063e5328e0614610272578063e8216b891461027a578063fe255a5e1461028d578063fe4b84df146102a857600080fd5b80636d0a866e1461021c578063791839731461022f5780638333903b14610237578063a03ba1ea1461024a57600080fd5b806327a35e5a116100e957806327a35e5a14610194578063338c4ccb146101a757806347ccca02146101e3578063566ca6b4146101f4578063697222331461020757600080fd5b8063150b7a021461011b57806318b4d37f1461014c5780632062d7541461016157806326829ad114610181575b600080fd5b61012e610129366004613f18565b6102bb565b6040516001600160e01b031990911681526020015b60405180910390f35b61015f61015a366004614079565b610417565b005b61017461016f3660046141aa565b610656565b604051610143919061427f565b61015f61018f366004614292565b6108c3565b6101746101a23660046141aa565b610d0c565b6101d36101b53660046142c6565b6001600160a01b031660009081526003602052604090205460ff1690565b6040519015158152602001610143565b600454604051908152602001610143565b6101746102023660046142e3565b610e95565b61020f6111aa565b60405161014391906143a3565b61017461022a3660046143b6565b61120c565b6101746113a4565b6101d36102453660046142c6565b6113fb565b61025261153e565b60405161014391906143cf565b61015f61026d366004614459565b611824565b6101746119d4565b61015f61028836600461449e565b611c41565b6001546040516001600160a01b039091168152602001610143565b61015f6102b63660046143b6565b611fe1565b60006102c561222f565b60015460408051637ac46fbb60e01b815281516000936001600160a01b031692637ac46fbb9260048082019391829003018186803b15801561030657600080fd5b505afa15801561031a573d6000803e3d6000fd5b505050506040513d601f19601f8201168201806040525081019061033e91906144e3565b602001519050806001600160a01b0316336001600160a01b0316146040518060400160405280600581526020016427232a2b2960d91b8152509061039e5760405162461bcd60e51b81526004016103959190614599565b60405180910390fd5b50604051634dcbc73960e01b8152600481018690526001600160a01b03821690634dcbc73990602401600060405180830381600087803b1580156103e157600080fd5b505af11580156103f5573d6000803e3d6000fd5b50630a85bd0160e11b94505050505061040e6001600055565b95945050505050565b61041f61222f565b600060045411604051806040016040528060048152602001631253925560e21b815250906104605760405162461bcd60e51b81526004016103959190614599565b5061046a33612289565b60405180604001604052806002815260200161494f60f01b815250906104a35760405162461bcd60e51b81526004016103959190614599565b5060015460408051637ac46fbb60e01b815281516000936001600160a01b031692637ac46fbb9260048082019391829003018186803b1580156104e557600080fd5b505afa1580156104f9573d6000803e3d6000fd5b505050506040513d601f19601f8201168201806040525081019061051d91906144e3565b5160405163884289e360e01b81526001600160a01b0385811660048301529192509082169063884289e39060240160206040518083038186803b15801561056357600080fd5b505afa158015610577573d6000803e3d6000fd5b505050506040513d601f19601f8201168201806040525081019061059b91906145c1565b60405180604001604052806002815260200161414360f01b815250906105d45760405162461bcd60e51b81526004016103959190614599565b50600080846001600160a01b0316846040516105f091906145dc565b6000604051808303816000865af19150503d806000811461062d576040519150601f19603f3d011682016040523d82523d6000602084013e610632565b606091505b5091509150816106455780518082602001fd5b5050506106526001600055565b5050565b606061066061222f565b61066933612289565b61069a5760405162461bcd60e51b8152602060048201526002602482015261494f60f01b6044820152606401610395565b60015460408051637ac46fbb60e01b815281516000936001600160a01b031692637ac46fbb9260048082019391829003018186803b1580156106db57600080fd5b505afa1580156106ef573d6000803e3d6000fd5b505050506040513d601f19601f8201168201806040525081019061071391906144e3565b60200151600480546040516331a9108f60e11b8152918201529091506000906001600160a01b03831690636352211e9060240160206040518083038186803b15801561075e57600080fd5b505afa158015610772573d6000803e3d6000fd5b505050506040513d601f19601f8201168201806040525081019061079691906145f8565b90506001600160a01b0381163314806107b357506107b38761243b565b60405180604001604052806005815260200164494e54524160d81b815250906107ef5760405162461bcd60e51b81526004016103959190614599565b5060006107fc8787612709565b9050600061080b8983886127f2565b905061087288600280548060200260200160405190810160405280929190818152602001828054801561086757602002820191906000526020600020905b81546001600160a01b03168152600190910190602001808311610849575b505050505083612cf8565b94507f54f9e6ef58e36de62f59f9ee6c4b878af84989c53a3642eba415ac3ac4e11cda89866040516108a5929190614615565b60405180910390a1505050506108bb6001600055565b949350505050565b600154604080518082019091526002815261564760f01b6020820152906001600160a01b031633146109085760405162461bcd60e51b81526004016103959190614599565b5060055460408051808201909152600481526329a124a760e11b602082015290156109465760405162461bcd60e51b81526004016103959190614599565b5060008151116040518060400160405280600381526020016214d09360ea1b815250906109865760405162461bcd60e51b81526004016103959190614599565b50600060028054806020026020016040519081016040528092919081815260200182805480156109df57602002820191906000526020600020905b81546001600160a01b031681526001909101906020018083116109c1575b505050505090506000600160009054906101000a90046001600160a01b03166001600160a01b0316637ac46fbb6040518163ffffffff1660e01b8152600401604080518083038186803b158015610a3557600080fd5b505afa158015610a49573d6000803e3d6000fd5b505050506040513d601f19601f82011682018060405250810190610a6d91906144e3565b60200151905060005b8351811015610d06576000848281518110610a9357610a93614639565b60200260200101519050600081116040518060400160405280600481526020016304e4654360e41b81525090610adc5760405162461bcd60e51b81526004016103959190614599565b50604051639c94d85360e01b8152600481018290526000906001600160a01b03851690639c94d8539060240160206040518083038186803b158015610b2057600080fd5b505afa158015610b34573d6000803e3d6000fd5b505050506040513d601f19601f82011682018060405250810190610b5891906145f8565b90506000816001600160a01b031663697222336040518163ffffffff1660e01b815260040160006040518083038186803b158015610b9557600080fd5b505afa158015610ba9573d6000803e3d6000fd5b505050506040513d6000823e601f3d908101601f19168201604052610bd1919081019061464f565b90508051865114604051806040016040528060018152602001601360fa1b81525090610c105760405162461bcd60e51b81526004016103959190614599565b5060005b8651811015610cb057818181518110610c2f57610c2f614639565b60200260200101516001600160a01b0316878281518110610c5257610c52614639565b60200260200101516001600160a01b03161460405180604001604052806002815260200161159560f21b81525090610c9d5760405162461bcd60e51b81526004016103959190614599565b5080610ca8816146f3565b915050610c14565b505060058054600181019091557f036b6384b5eca791c62761152d0c79bb0604c104a5fb6f4eb0703f3154bb3db00182905550600090815260066020526040902081905580610cfe816146f3565b915050610a76565b50505050565b606060005b8451811015610da0576000848281518110610d2e57610d2e614639565b60200260200101511115610d8e57610d8e8630868481518110610d5357610d53614639565b6020026020010151888581518110610d6d57610d6d614639565b60200260200101516001600160a01b0316612f19909392919063ffffffff16565b80610d98816146f3565b915050610d11565b50610dac848484610e95565b905060005b8451811015610e8c576000848281518110610dce57610dce614639565b6020026020010151838381518110610de857610de8614639565b602002602001015110610dfc576000610e3a565b828281518110610e0e57610e0e614639565b6020026020010151858381518110610e2857610e28614639565b6020026020010151610e3a919061470e565b90508015610e7957610e798782888581518110610e5957610e59614639565b60200260200101516001600160a01b0316612f849092919063ffffffff16565b5080610e84816146f3565b915050610db1565b50949350505050565b6060610e9f61222f565b6004805460408051808201909152918252631253925560e21b60208301529081610edc5760405162461bcd60e51b81526004016103959190614599565b50610ee633612289565b60405180604001604052806002815260200161494f60f01b81525090610f1f5760405162461bcd60e51b81526004016103959190614599565b5060015460408051637ac46fbb60e01b815281516000936001600160a01b031692637ac46fbb9260048082019391829003018186803b158015610f6157600080fd5b505afa158015610f75573d6000803e3d6000fd5b505050506040513d601f19601f82011682018060405250810190610f9991906144e3565b602001516040516331a9108f60e11b8152600481018490529091506000906001600160a01b03831690636352211e9060240160206040518083038186803b158015610fe357600080fd5b505afa158015610ff7573d6000803e3d6000fd5b505050506040513d601f19601f8201168201806040525081019061101b91906145f8565b60405163fcdabd2760e01b81526001600160a01b03808316600483015291925060009184169063fcdabd279060240160206040518083038186803b15801561106257600080fd5b505afa158015611076573d6000803e3d6000fd5b505050506040513d601f19601f8201168201806040525081019061109a9190614725565b9050600081116040518060400160405280600381526020016227abab60e91b815250906110da5760405162461bcd60e51b81526004016103959190614599565b5060006110e78989612709565b905060006110f58289612fb9565b905061115a8a6002805480602002602001604051908101604052809291908181526020018280548015610867576020028201919060005260206000209081546001600160a01b0316815260019091019060200180831161084957505050505083612cf8565b96507f08e404e978692dd1b8275016b7a7b0b3ae4afd06b0cec7228060bb2da18c84fd8160405161118b919061427f565b60405180910390a15050505050506111a36001600055565b9392505050565b6060600280548060200260200160405190810160405280929190818152602001828054801561120257602002820191906000526020600020905b81546001600160a01b031681526001909101906020018083116111e4575b5050505050905090565b60015460408051637ac46fbb60e01b815281516060936000936001600160a01b0390911692637ac46fbb9260048083019392829003018186803b15801561125257600080fd5b505afa158015611266573d6000803e3d6000fd5b505050506040513d601f19601f8201168201806040525081019061128a91906144e3565b6020015190506000816001600160a01b0316639c94d853600586815481106112b4576112b4614639565b90600052602060002001546040518263ffffffff1660e01b81526004016112dd91815260200190565b60206040518083038186803b1580156112f557600080fd5b505afa158015611309573d6000803e3d6000fd5b505050506040513d601f19601f8201168201806040525081019061132d91906145f8565b9050806001600160a01b031663e5328e066040518163ffffffff1660e01b815260040160006040518083038186803b15801561136857600080fd5b505afa15801561137c573d6000803e3d6000fd5b505050506040513d6000823e601f3d908101601f191682016040526108bb9190810190614799565b6060600580548060200260200160405190810160405280929190818152602001828054801561120257602002820191906000526020600020905b8154815260200190600101908083116113de575050505050905090565b60015460408051637ac46fbb60e01b8152815160009384936001600160a01b0390911692637ac46fbb9260048083019392829003018186803b15801561144057600080fd5b505afa158015611454573d6000803e3d6000fd5b505050506040513d601f19601f8201168201806040525081019061147891906144e3565b6020015160405163fcdabd2760e01b81526001600160a01b03858116600483015291925060009183169063fcdabd279060240160206040518083038186803b1580156114c357600080fd5b505afa1580156114d7573d6000803e3d6000fd5b505050506040513d601f19601f820116820180604052508101906114fb9190614725565b6000818152600660205260409020549091501515806108bb575080600560008154811061152a5761152a614639565b906000526020600020015414949350505050565b60015460408051637ac46fbb60e01b815281516060936000936001600160a01b0390911692637ac46fbb9260048083019392829003018186803b15801561158457600080fd5b505afa158015611598573d6000803e3d6000fd5b505050506040513d601f19601f820116820180604052508101906115bc91906144e3565b60200151600254600554919250906001600160401b038111156115e1576115e1613fb6565b60405190808252806020026020018201604052801561161457816020015b60608152602001906001900390816115ff5790505b50925060005b60055481101561181e576000836001600160a01b0316639c94d8536005848154811061164857611648614639565b90600052602060002001546040518263ffffffff1660e01b815260040161167191815260200190565b60206040518083038186803b15801561168957600080fd5b505afa15801561169d573d6000803e3d6000fd5b505050506040513d601f19601f820116820180604052508101906116c191906145f8565b90506000816001600160a01b031663e5328e066040518163ffffffff1660e01b815260040160006040518083038186803b1580156116fe57600080fd5b505afa158015611712573d6000803e3d6000fd5b505050506040513d6000823e601f3d908101601f1916820160405261173a9190810190614799565b9050836001600160401b0381111561175457611754613fb6565b60405190808252806020026020018201604052801561177d578160200160208202803683370190505b5086848151811061179057611790614639565b602002602001018190525060005b84811015611808578181815181106117b8576117b8614639565b60200260200101518785815181106117d2576117d2614639565b602002602001015182815181106117eb576117eb614639565b602090810291909101015280611800816146f3565b91505061179e565b5050508080611816906146f3565b91505061161a565b50505090565b600154604080518082019091526002815261564760f01b6020820152906001600160a01b031633146118695760405162461bcd60e51b81526004016103959190614599565b506040805180820190915260028152615a5360f01b60208201526001600160a01b0383166118aa5760405162461bcd60e51b81526004016103959190614599565b5060015460408051637ac46fbb60e01b815281516000936001600160a01b031692637ac46fbb9260048082019391829003018186803b1580156118ec57600080fd5b505afa158015611900573d6000803e3d6000fd5b505050506040513d601f19601f8201168201806040525081019061192491906144e3565b60200151905060005b8251811015610d0657816001600160a01b031663095ea7b38585848151811061195857611958614639565b60200260200101516040518363ffffffff1660e01b81526004016119919291906001600160a01b03929092168252602082015260400190565b600060405180830381600087803b1580156119ab57600080fd5b505af11580156119bf573d6000803e3d6000fd5b50505050806119cd906146f3565b905061192d565b60015460408051637ac46fbb60e01b815281516060936000936001600160a01b0390911692637ac46fbb9260048083019392829003018186803b158015611a1a57600080fd5b505afa158015611a2e573d6000803e3d6000fd5b505050506040513d601f19601f82011682018060405250810190611a5291906144e3565b602001516002549091506001600160401b03811115611a7357611a73613fb6565b604051908082528060200260200182016040528015611a9c578160200160208202803683370190505b50915060005b600554811015611c3c576000826001600160a01b0316639c94d85360058481548110611ad057611ad0614639565b90600052602060002001546040518263ffffffff1660e01b8152600401611af991815260200190565b60206040518083038186803b158015611b1157600080fd5b505afa158015611b25573d6000803e3d6000fd5b505050506040513d601f19601f82011682018060405250810190611b4991906145f8565b90506000816001600160a01b031663e5328e066040518163ffffffff1660e01b815260040160006040518083038186803b158015611b8657600080fd5b505afa158015611b9a573d6000803e3d6000fd5b505050506040513d6000823e601f3d908101601f19168201604052611bc29190810190614799565b905060005b600254811015611c2657818181518110611be357611be3614639565b6020026020010151868281518110611bfd57611bfd614639565b60200260200101818151611c1191906147cd565b90525080611c1e816146f3565b915050611bc7565b5050508080611c34906146f3565b915050611aa2565b505090565b611c4961222f565b600060045411604051806040016040528060048152602001631253925560e21b81525090611c8a5760405162461bcd60e51b81526004016103959190614599565b5060015460408051637ac46fbb60e01b815281516000936001600160a01b031692637ac46fbb9260048082019391829003018186803b158015611ccc57600080fd5b505afa158015611ce0573d6000803e3d6000fd5b505050506040513d601f19601f82011682018060405250810190611d0491906144e3565b51604051630935e01b60e21b81523360048201529091506000906001600160a01b038316906324d7806c9060240160206040518083038186803b158015611d4a57600080fd5b505afa158015611d5e573d6000803e3d6000fd5b505050506040513d601f19601f82011682018060405250810190611d8291906145c1565b90508080611d945750611d9433612289565b6040518060400160405280600381526020016241444d60e81b81525090611dce5760405162461bcd60e51b81526004016103959190614599565b5080611e1b57611ddd8461243b565b60405180604001604052806005815260200164494e54524160d81b81525090611e195760405162461bcd60e51b81526004016103959190614599565b505b600083516001600160401b03811115611e3657611e36613fb6565b604051908082528060200260200182016040528015611e5f578160200160208202803683370190505b50905060005b8451811015611f98576000858281518110611e8257611e82614639565b60209081029190910101516040516370a0823160e01b81523060048201529091506001600160a01b038216906370a082319060240160206040518083038186803b158015611ecf57600080fd5b505afa158015611ee3573d6000803e3d6000fd5b505050506040513d601f19601f82011682018060405250810190611f079190614725565b838381518110611f1957611f19614639565b602002602001018181525050828281518110611f3757611f37614639565b602002602001015160001415611f4d5750611f86565b611f8487848481518110611f6357611f63614639565b6020026020010151836001600160a01b0316612f849092919063ffffffff16565b505b80611f90816146f3565b915050611e65565b507f9efcb26e0cf572bd9171640e114f387cef91cd3e38532ed6b3f80c7f2e758f87858583604051611fcc939291906147e5565b60405180910390a15050506106526001600055565b600154604080518082019091526002815261564760f01b6020820152906001600160a01b031633146120265760405162461bcd60e51b81526004016103959190614599565b5060408051808201909152600481526304e4654360e41b6020820152816120605760405162461bcd60e51b81526004016103959190614599565b506004805460408051808201909152918252631253925560e21b60208301521561209d5760405162461bcd60e51b81526004016103959190614599565b50600481815560015460408051637ac46fbb60e01b815281516000946001600160a01b0390941693637ac46fbb938382019390929190829003018186803b1580156120e757600080fd5b505afa1580156120fb573d6000803e3d6000fd5b505050506040513d601f19601f8201168201806040525081019061211f91906144e3565b6020015160405163a22cb46560e01b81526001600160a01b038216600482018190526001602483015291925063a22cb46590604401600060405180830381600087803b15801561216e57600080fd5b505af1158015612182573d6000803e3d6000fd5b505050505050565b600060028251101561219e57506001919050565b60005b600183516121af919061470e565b81101561222657826121c28260016147cd565b815181106121d2576121d2614639565b60200260200101516001600160a01b03168382815181106121f5576121f5614639565b60200260200101516001600160a01b0316106122145750600092915050565b8061221e816146f3565b9150506121a1565b50600192915050565b600260005414156122825760405162461bcd60e51b815260206004820152601f60248201527f5265656e7472616e637947756172643a207265656e7472616e742063616c6c006044820152606401610395565b6002600055565b60015460408051637ac46fbb60e01b8152815160009384936001600160a01b0390911692637ac46fbb9260048083019392829003018186803b1580156122ce57600080fd5b505afa1580156122e2573d6000803e3d6000fd5b505050506040513d601f19601f8201168201806040525081019061230691906144e3565b602001516004549091508061231f575060009392505050565b60405163020604bf60e21b8152600481018290526001600160a01b03808616919084169063081812fc9060240160206040518083038186803b15801561236457600080fd5b505afa158015612378573d6000803e3d6000fd5b505050506040513d601f19601f8201168201806040525081019061239c91906145f8565b6001600160a01b031614806108bb57506040516331a9108f60e11b8152600481018290526001600160a01b038086169190841690636352211e9060240160206040518083038186803b1580156123f157600080fd5b505afa158015612405573d6000803e3d6000fd5b505050506040513d601f19601f8201168201806040525081019061242991906145f8565b6001600160a01b031614949350505050565b6000813b63ffffffff1661245157506000919050565b60015460408051637ac46fbb60e01b815281516000936001600160a01b031692637ac46fbb9260048082019391829003018186803b15801561249257600080fd5b505afa1580156124a6573d6000803e3d6000fd5b505050506040513d601f19601f820116820180604052508101906124ca91906144e3565b602001519050600454600014156124e45750600092915050565b600480546040516331a9108f60e11b8152918201526000906001600160a01b03831690636352211e9060240160206040518083038186803b15801561252857600080fd5b505afa15801561253c573d6000803e3d6000fd5b505050506040513d601f19601f8201168201806040525081019061256091906145f8565b60405163fcdabd2760e01b81526001600160a01b03808316600483015291925060009184169063fcdabd279060240160206040518083038186803b1580156125a757600080fd5b505afa1580156125bb573d6000803e3d6000fd5b505050506040513d601f19601f820116820180604052508101906125df9190614725565b9050806125f157506000949350505050565b604051638333903b60e01b815230600482015282906001600160a01b03821690638333903b9060240160206040518083038186803b15801561263257600080fd5b505afa158015612646573d6000803e3d6000fd5b505050506040513d601f19601f8201168201806040525081019061266a91906145c1565b15806126ec5750604051638333903b60e01b81526001600160a01b038781166004830152821690638333903b9060240160206040518083038186803b1580156126b257600080fd5b505afa1580156126c6573d6000803e3d6000fd5b505050506040513d601f19601f820116820180604052508101906126ea91906145c1565b155b156126fd5750600095945050505050565b50600195945050505050565b60606127148361218a565b6040518060400160405280600381526020016253415560e81b8152509061274e5760405162461bcd60e51b81526004016103959190614599565b508151835114604051806040016040528060018152602001601360fa1b8152509061278c5760405162461bcd60e51b81526004016103959190614599565b506111a360028054806020026020016040519081016040528092919081815260200182805480156127e657602002820191906000526020600020905b81546001600160a01b031681526001909101906020018083116127c8575b50505050508484612cf8565b606060008061280084613769565b6005546040805180820190915260048152631253925560e21b60208201529294509092506128415760405162461bcd60e51b81526004016103959190614599565b5060015460408051637ac46fbb60e01b815281516000936001600160a01b031692637ac46fbb9260048082019391829003018186803b15801561288357600080fd5b505afa158015612897573d6000803e3d6000fd5b505050506040513d601f19601f820116820180604052508101906128bb91906144e3565b60200151905060006128cb61153e565b905060006128d988836137ee565b6001546004805460405163110c1a4960e31b8152918201529192506000916001600160a01b0390911690638860d2489060240160006040518083038186803b15801561292457600080fd5b505afa158015612938573d6000803e3d6000fd5b505050506040513d6000823e601f3d908101601f191682016040526129609190810190614889565b519050858015612971575060008151115b15612ac15760005b600554811015612abf5781818151811061299557612995614639565b6020026020010151600014156129aa57612aad565b60005b600254811015612aab576000600660008585815181106129cf576129cf614639565b602002602001015181526020019081526020016000205490508483815181106129fa576129fa614639565b60200260200101518281518110612a1357612a13614639565b6020026020010151858281518110612a2d57612a2d614639565b60200260200101518381518110612a4657612a46614639565b60200260200101818151612a5a91906147cd565b9052508451600090869085908110612a7457612a74614639565b60200260200101518381518110612a8d57612a8d614639565b60209081029190910101525080612aa3816146f3565b9150506129ad565b505b80612ab7816146f3565b915050612979565b505b6002546001600160401b03811115612adb57612adb613fb6565b604051908082528060200260200182016040528015612b04578160200160208202803683370190505b50965060005b600554811015612cea576000856001600160a01b0316639c94d85360058481548110612b3857612b38614639565b90600052602060002001546040518263ffffffff1660e01b8152600401612b6191815260200190565b60206040518083038186803b158015612b7957600080fd5b505afa158015612b8d573d6000803e3d6000fd5b505050506040513d601f19601f82011682018060405250810190612bb191906145f8565b90506000816001600160a01b0316632062d7548e6002888781518110612bd957612bd9614639565b60200260200101518c8881518110612bf357612bf3614639565b60200260200101516040518563ffffffff1660e01b8152600401612c1a94939291906148bd565b600060405180830381600087803b158015612c3457600080fd5b505af1158015612c48573d6000803e3d6000fd5b505050506040513d6000823e601f3d908101601f19168201604052612c709190810190614799565b905060005b600254811015612cd457818181518110612c9157612c91614639565b60200260200101518b8281518110612cab57612cab614639565b60200260200101818151612cbf91906147cd565b90525080612ccc816146f3565b915050612c75565b5050508080612ce2906146f3565b915050612b0a565b505050505050509392505050565b6060600084516001600160401b03811115612d1557612d15613fb6565b604051908082528060200260200182016040528015612d3e578160200160208202803683370190505b5090506000805b865182108015612d555750855181105b15612ed457858181518110612d6c57612d6c614639565b60200260200101516001600160a01b0316878381518110612d8f57612d8f614639565b60200260200101516001600160a01b03161015612dd7576000838381518110612dba57612dba614639565b602090810291909101015281612dcf816146f3565b925050612d45565b858181518110612de957612de9614639565b60200260200101516001600160a01b0316878381518110612e0c57612e0c614639565b60200260200101516001600160a01b03161115612e8557848181518110612e3557612e35614639565b602002602001015160001415612e575780612e4f816146f3565b915050612d45565b60405162461bcd60e51b815260206004820152600360248201526254505360e81b6044820152606401610395565b848181518110612e9757612e97614639565b6020026020010151838381518110612eb157612eb1614639565b602090810291909101015281612ec6816146f3565b9250508080612e4f906146f3565b8651821015612f0e576000838381518110612ef157612ef1614639565b602090810291909101015281612f06816146f3565b925050612ed4565b509095945050505050565b6040516001600160a01b0380851660248301528316604482015260648101829052610d069085906323b872dd60e01b906084015b60408051601f198184030181529190526020810180516001600160e01b03166001600160e01b031990931692909217909152613bf6565b6040516001600160a01b038316602482015260448101829052612fb490849063a9059cbb60e01b90606401612f4d565b505050565b6005546040805180820190915260048152631253925560e21b6020820152606091612ff75760405162461bcd60e51b81526004016103959190614599565b506000606061300584613769565b60015460408051637ac46fbb60e01b815281519496509294506000936001600160a01b0390921692637ac46fbb9260048083019392829003018186803b15801561304e57600080fd5b505afa158015613062573d6000803e3d6000fd5b505050506040513d601f19601f8201168201806040525081019061308691906144e3565b602001519050600061309661153e565b6002549091506000906001600160401b038111156130b6576130b6613fb6565b6040519080825280602002602001820160405280156130df578160200160208202803683370190505b50905060006130ee89846137ee565b6001546004805460405163110c1a4960e31b8152918201529192506000916001600160a01b0390911690638860d2489060240160006040518083038186803b15801561313957600080fd5b505afa15801561314d573d6000803e3d6000fd5b505050506040513d6000823e601f3d908101601f191682016040526131759190810190614889565b9050868015613185575080515115155b156132db5760005b6005548110156132d95781518051829081106131ab576131ab614639565b6020026020010151600014156131c0576132c7565b60005b6002548110156132c557600060066000856000015185815181106131e9576131e9614639565b6020026020010151815260200190815260200160002054905084838151811061321457613214614639565b6020026020010151828151811061322d5761322d614639565b602002602001015185828151811061324757613247614639565b6020026020010151838151811061326057613260614639565b6020026020010181815161327491906147cd565b905250845160009086908590811061328e5761328e614639565b602002602001015183815181106132a7576132a7614639565b602090810291909101015250806132bd816146f3565b9150506131c3565b505b806132d1816146f3565b91505061318d565b505b6002546001600160401b038111156132f5576132f5613fb6565b60405190808252806020026020018201604052801561331e578160200160208202803683370190505b50975060005b600554811015613621578780156133575750815180518290811061334a5761334a614639565b6020026020010151600014155b156133615761360f565b6000866001600160a01b0316639c94d8536005848154811061338557613385614639565b90600052602060002001546040518263ffffffff1660e01b81526004016133ae91815260200190565b60206040518083038186803b1580156133c657600080fd5b505afa1580156133da573d6000803e3d6000fd5b505050506040513d601f19601f820116820180604052508101906133fe91906145f8565b905060005b60025481101561348b57600085848151811061342157613421614639565b6020026020010151828151811061343a5761343a614639565b60200260200101511115613479576134796002828154811061345e5761345e614639565b6000918252602090912001546001600160a01b031683613ccb565b80613483816146f3565b915050613403565b506000816001600160a01b03166327a35e5a3060028887815181106134b2576134b2614639565b60200260200101518d88815181106134cc576134cc614639565b60200260200101516040518563ffffffff1660e01b81526004016134f394939291906148bd565b600060405180830381600087803b15801561350d57600080fd5b505af1158015613521573d6000803e3d6000fd5b505050506040513d6000823e601f3d908101601f191682016040526135499190810190614799565b905060005b60025481101561360b5781818151811061356a5761356a614639565b60200260200101518c828151811061358457613584614639565b6020026020010181815161359891906147cd565b90525087518890859081106135af576135af614639565b602002602001015181815181106135c8576135c8614639565b60200260200101518782815181106135e2576135e2614639565b602002602001018181516135f691906147cd565b90525080613603816146f3565b91505061354e565b5050505b80613619816146f3565b915050613324565b5060015460048054604051630248cd6d60e31b8152918201526000916001600160a01b0316906312466b689060240160006040518083038186803b15801561366857600080fd5b505afa15801561367c573d6000803e3d6000fd5b505050506040513d6000823e601f3d908101601f191682016040526136a49190810190614889565b51905060005b60025481101561375a578181815181106136c6576136c6614639565b60200260200101518a82815181106136e0576136e0614639565b60200260200101518683815181106136fa576136fa614639565b602002602001015161370c91906147cd565b10604051806040016040528060038152602001624c494d60e81b815250906137475760405162461bcd60e51b81526004016103959190614599565b5080613752816146f3565b9150506136aa565b50505050505050505092915050565b600060608251600014156137d1576005546000906001600160401b0381111561379457613794613fb6565b6040519080825280602002602001820160405280156137c757816020015b60608152602001906001900390816137b25790505b5091509150915091565b828060200190518101906137e59190614939565b91509150915091565b8051606090806138295760405162461bcd60e51b81526004016103959060208082526004908201526304b4754360e41b604082015260600190565b8351806138615760405162461bcd60e51b81526004016103959060208082526004908201526304e4754360e41b604082015260600190565b6000816001600160401b0381111561387b5761387b613fb6565b6040519080825280602002602001820160405280156138a4578160200160208202803683370190505b50905060005b8381101561391257828682815181106138c5576138c5614639565b602002602001015151146139005760405162461bcd60e51b8152602060048201526002602482015261272b60f11b6044820152606401610395565b8061390a816146f3565b9150506138aa565b5060005b828110156139ca57600082828151811061393257613932614639565b60200260200101818152505060005b848110156139b75786818151811061395b5761395b614639565b6020026020010151828151811061397457613974614639565b602002602001015183838151811061398e5761398e614639565b602002602001018181516139a291906147cd565b905250806139af816146f3565b915050613941565b50806139c2816146f3565b915050613916565b506000836001600160401b038111156139e5576139e5613fb6565b604051908082528060200260200182016040528015613a1857816020015b6060815260200190600190039081613a035790505b50905060005b84811015613beb57836001600160401b03811115613a3e57613a3e613fb6565b604051908082528060200260200182016040528015613a67578160200160208202803683370190505b50828281518110613a7a57613a7a614639565b602002602001018190525060005b84811015613bd857838181518110613aa257613aa2614639565b602002602001015160001415613b135785898281518110613ac557613ac5614639565b6020026020010151613ad79190614a37565b838381518110613ae957613ae9614639565b60200260200101518281518110613b0257613b02614639565b602002602001018181525050613bc6565b838181518110613b2557613b25614639565b6020026020010151888381518110613b3f57613b3f614639565b60200260200101518281518110613b5857613b58614639565b60200260200101518a8381518110613b7257613b72614639565b6020026020010151613b849190614a59565b613b8e9190614a37565b838381518110613ba057613ba0614639565b60200260200101518281518110613bb957613bb9614639565b6020026020010181815250505b80613bd0816146f3565b915050613a88565b5080613be3816146f3565b915050613a1e565b509695505050505050565b6000613c4b826040518060400160405280602081526020017f5361666545524332303a206c6f772d6c6576656c2063616c6c206661696c6564815250856001600160a01b0316613de09092919063ffffffff16565b9050805160001480613c6c575080806020019051810190613c6c91906145c1565b612fb45760405162461bcd60e51b815260206004820152602a60248201527f5361666545524332303a204552433230206f7065726174696f6e20646964206e6044820152691bdd081cdd58d8d9595960b21b6064820152608401610395565b613cd86002600019614a37565b604051636eb1769f60e11b81523060048201526001600160a01b03838116602483015284169063dd62ed3e9060440160206040518083038186803b158015613d1f57600080fd5b505afa158015613d33573d6000803e3d6000fd5b505050506040513d601f19601f82011682018060405250810190613d579190614725565b10156106525760405163095ea7b360e01b81526001600160a01b038281166004830152600019602483015283169063095ea7b390604401602060405180830381600087803b158015613da857600080fd5b505af1158015613dbc573d6000803e3d6000fd5b505050506040513d601f19601f82011682018060405250810190612fb491906145c1565b60606108bb848460008585600080866001600160a01b03168587604051613e0791906145dc565b60006040518083038185875af1925050503d8060008114613e44576040519150601f19603f3d011682016040523d82523d6000602084013e613e49565b606091505b5091509150613e5a87838387613e65565b979650505050505050565b60608315613ed1578251613eca576001600160a01b0385163b613eca5760405162461bcd60e51b815260206004820152601d60248201527f416464726573733a2063616c6c20746f206e6f6e2d636f6e74726163740000006044820152606401610395565b50816108bb565b6108bb8383815115613ee65781518083602001fd5b8060405162461bcd60e51b81526004016103959190614599565b6001600160a01b0381168114613f1557600080fd5b50565b600080600080600060808688031215613f3057600080fd5b8535613f3b81613f00565b94506020860135613f4b81613f00565b93506040860135925060608601356001600160401b0380821115613f6e57600080fd5b818801915088601f830112613f8257600080fd5b813581811115613f9157600080fd5b896020828501011115613fa357600080fd5b9699959850939650602001949392505050565b634e487b7160e01b600052604160045260246000fd5b604051601f8201601f191681016001600160401b0381118282101715613ff457613ff4613fb6565b604052919050565b60006001600160401b0382111561401557614015613fb6565b50601f01601f191660200190565b600082601f83011261403457600080fd5b813561404761404282613ffc565b613fcc565b81815284602083860101111561405c57600080fd5b816020850160208301376000918101602001919091529392505050565b6000806040838503121561408c57600080fd5b823561409781613f00565b915060208301356001600160401b038111156140b257600080fd5b6140be85828601614023565b9150509250929050565b60006001600160401b038211156140e1576140e1613fb6565b5060051b60200190565b600082601f8301126140fc57600080fd5b8135602061410c614042836140c8565b82815260059290921b8401810191818101908684111561412b57600080fd5b8286015b84811015613beb57803561414281613f00565b835291830191830161412f565b600082601f83011261416057600080fd5b81356020614170614042836140c8565b82815260059290921b8401810191818101908684111561418f57600080fd5b8286015b84811015613beb5780358352918301918301614193565b600080600080608085870312156141c057600080fd5b84356141cb81613f00565b935060208501356001600160401b03808211156141e757600080fd5b6141f3888389016140eb565b9450604087013591508082111561420957600080fd5b6142158883890161414f565b9350606087013591508082111561422b57600080fd5b5061423887828801614023565b91505092959194509250565b600081518084526020808501945080840160005b8381101561427457815187529582019590820190600101614258565b509495945050505050565b6020815260006111a36020830184614244565b6000602082840312156142a457600080fd5b81356001600160401b038111156142ba57600080fd5b6108bb8482850161414f565b6000602082840312156142d857600080fd5b81356111a381613f00565b6000806000606084860312156142f857600080fd5b83356001600160401b038082111561430f57600080fd5b61431b878388016140eb565b9450602086013591508082111561433157600080fd5b61433d8783880161414f565b9350604086013591508082111561435357600080fd5b5061436086828701614023565b9150509250925092565b600081518084526020808501945080840160005b838110156142745781516001600160a01b03168752958201959082019060010161437e565b6020815260006111a3602083018461436a565b6000602082840312156143c857600080fd5b5035919050565b6000602080830181845280855180835260408601915060408160051b87010192508387016000805b8381101561444b57888603603f19018552825180518088529088019088880190845b818110156144355783518352928a0192918a0191600101614419565b50909750505093860193918601916001016143f7565b509398975050505050505050565b6000806040838503121561446c57600080fd5b823561447781613f00565b915060208301356001600160401b0381111561449257600080fd5b6140be8582860161414f565b600080604083850312156144b157600080fd5b82356144bc81613f00565b915060208301356001600160401b038111156144d757600080fd5b6140be858286016140eb565b6000604082840312156144f557600080fd5b604051604081018181106001600160401b038211171561451757614517613fb6565b604052825161452581613f00565b8152602083015161453581613f00565b60208201529392505050565b60005b8381101561455c578181015183820152602001614544565b83811115610d065750506000910152565b60008151808452614585816020860160208601614541565b601f01601f19169290920160200192915050565b6020815260006111a3602083018461456d565b805180151581146145bc57600080fd5b919050565b6000602082840312156145d357600080fd5b6111a3826145ac565b600082516145ee818460208701614541565b9190910192915050565b60006020828403121561460a57600080fd5b81516111a381613f00565b6001600160a01b03831681526040602082018190526000906108bb90830184614244565b634e487b7160e01b600052603260045260246000fd5b6000602080838503121561466257600080fd5b82516001600160401b0381111561467857600080fd5b8301601f8101851361468957600080fd5b8051614697614042826140c8565b81815260059190911b820183019083810190878311156146b657600080fd5b928401925b82841015613e5a5783516146ce81613f00565b825292840192908401906146bb565b634e487b7160e01b600052601160045260246000fd5b6000600019821415614707576147076146dd565b5060010190565b600082821015614720576147206146dd565b500390565b60006020828403121561473757600080fd5b5051919050565b600082601f83011261474f57600080fd5b8151602061475f614042836140c8565b82815260059290921b8401810191818101908684111561477e57600080fd5b8286015b84811015613beb5780518352918301918301614782565b6000602082840312156147ab57600080fd5b81516001600160401b038111156147c157600080fd5b6108bb8482850161473e565b600082198211156147e0576147e06146dd565b500190565b6001600160a01b03841681526060602082018190526000906148099083018561436a565b828103604084015261481b8185614244565b9695505050505050565b60006020828403121561483757600080fd5b604051602081016001600160401b03828210818311171561485a5761485a613fb6565b81604052829350845191508082111561487257600080fd5b5061487f8582860161473e565b8252505092915050565b60006020828403121561489b57600080fd5b81516001600160401b038111156148b157600080fd5b6108bb84828501614825565b60006080820160018060a01b038088168452602060808186015282885480855260a0870191508960005282600020945060005b8181101561490e5785548516835260019586019592840192016148f0565b505085810360408701526149228189614244565b93505050508281036060840152613e5a818561456d565b600080604080848603121561494d57600080fd5b614956846145ac565b92506020808501516001600160401b038082111561497357600080fd5b818701915087601f83011261498757600080fd5b8151614995614042826140c8565b81815260059190911b8301840190848101908a8311156149b457600080fd5b8585015b83811015614a25578051858111156149d05760008081fd5b8601603f81018d136149e25760008081fd5b878101516149f261404282613ffc565b8181528e8b838501011115614a075760008081fd5b614a16828b83018d8601614541565b855250509186019186016149b8565b50809750505050505050509250929050565b600082614a5457634e487b7160e01b600052601260045260246000fd5b500490565b6000816000190483118215151615614a7357614a736146dd565b50029056fea2646970667358221220e91a0d86a5d830ea54444a4546619f9978e414720d2a81fd996b8106a64a80d164736f6c63430008090033",
  "linkReferences": {},
  "deployedLinkReferences": {}
}