{
  "_format": "hh-sol-artifact-1",
  "contractName": "SortedDoublyLLFixture",
  "sourceName": "contracts/test/mocks/SortedDoublyLLFixture.sol",
  "abi": [
    {
      "constant": true,
      "inputs": [],
      "name": "getFirst",
      "outputs": [
        {
          "internalType": "address",
          "name": "",
          "type": "address"
        }
      ],
      "payable": false,
      "stateMutability": "view",
      "type": "function"
    },
    {
      "constant": false,
      "inputs": [
        {
          "internalType": "address",
          "name": "_id",
          "type": "address"
        }
      ],
      "name": "remove",
      "outputs": [],
      "payable": false,
      "stateMutability": "nonpayable",
      "type": "function"
    },
    {
      "constant": false,
      "inputs": [
        {
          "internalType": "address",
          "name": "_id",
          "type": "address"
        },
        {
          "internalType": "uint256",
          "name": "_newKey",
          "type": "uint256"
        },
        {
          "internalType": "address",
          "name": "_prevId",
          "type": "address"
        },
        {
          "internalType": "address",
          "name": "_nextId",
          "type": "address"
        }
      ],
      "name": "updateKey",
      "outputs": [],
      "payable": false,
      "stateMutability": "nonpayable",
      "type": "function"
    },
    {
      "constant": false,
      "inputs": [
        {
          "internalType": "address",
          "name": "_id",
          "type": "address"
        },
        {
          "internalType": "uint256",
          "name": "_key",
          "type": "uint256"
        },
        {
          "internalType": "address",
          "name": "_prevId",
          "type": "address"
        },
        {
          "internalType": "address",
          "name": "_nextId",
          "type": "address"
        }
      ],
      "name": "insert",
      "outputs": [],
      "payable": false,
      "stateMutability": "nonpayable",
      "type": "function"
    },
    {
      "constant": true,
      "inputs": [],
      "name": "getLast",
      "outputs": [
        {
          "internalType": "address",
          "name": "",
          "type": "address"
        }
      ],
      "payable": false,
      "stateMutability": "view",
      "type": "function"
    },
    {
      "constant": true,
      "inputs": [
        {
          "internalType": "address",
          "name": "_id",
          "type": "address"
        }
      ],
      "name": "contains",
      "outputs": [
        {
          "internalType": "bool",
          "name": "",
          "type": "bool"
        }
      ],
      "payable": false,
      "stateMutability": "view",
      "type": "function"
    },
    {
      "constant": true,
      "inputs": [],
      "name": "getMaxSize",
      "outputs": [
        {
          "internalType": "uint256",
          "name": "",
          "type": "uint256"
        }
      ],
      "payable": false,
      "stateMutability": "view",
      "type": "function"
    },
    {
      "constant": true,
      "inputs": [
        {
          "internalType": "address",
          "name": "_id",
          "type": "address"
        }
      ],
      "name": "getNext",
      "outputs": [
        {
          "internalType": "address",
          "name": "",
          "type": "address"
        }
      ],
      "payable": false,
      "stateMutability": "view",
      "type": "function"
    },
    {
      "constant": false,
      "inputs": [
        {
          "internalType": "uint256",
          "name": "_size",
          "type": "uint256"
        }
      ],
      "name": "setMaxSize",
      "outputs": [],
      "payable": false,
      "stateMutability": "nonpayable",
      "type": "function"
    },
    {
      "constant": true,
      "inputs": [
        {
          "internalType": "address",
          "name": "_id",
          "type": "address"
        }
      ],
      "name": "getKey",
      "outputs": [
        {
          "internalType": "uint256",
          "name": "",
          "type": "uint256"
        }
      ],
      "payable": false,
      "stateMutability": "view",
      "type": "function"
    },
    {
      "constant": true,
      "inputs": [
        {
          "internalType": "address",
          "name": "_id",
          "type": "address"
        }
      ],
      "name": "getPrev",
      "outputs": [
        {
          "internalType": "address",
          "name": "",
          "type": "address"
        }
      ],
      "payable": false,
      "stateMutability": "view",
      "type": "function"
    },
    {
      "constant": true,
      "inputs": [],
      "name": "getSize",
      "outputs": [
        {
          "internalType": "uint256",
          "name": "",
          "type": "uint256"
        }
      ],
      "payable": false,
      "stateMutability": "view",
      "type": "function"
    }
  ],
  "bytecode": "0x608060405234801561001057600080fd5b5061076e806100206000396000f3fe608060405234801561001057600080fd5b50600436106100b45760003560e01c806363e1d57c1161007157806363e1d57c146101bf578063765e0159146101d9578063816e117c146101ff57806393790f441461021c578063b72703ac14610242578063de8fa43114610268576100b4565b80631e223143146100b957806329092d0e146100dd5780633855323f1461010557806346f7cf87146101415780634d6228311461017d5780635dbe47e814610185575b600080fd5b6100c1610270565b604080516001600160a01b039092168252519081900360200190f35b610103600480360360208110156100f357600080fd5b50356001600160a01b03166102f4565b005b6101036004803603608081101561011b57600080fd5b506001600160a01b0381358116916020810135916040820135811691606001351661036e565b6101036004803603608081101561015757600080fd5b506001600160a01b03813581169160208101359160408201358116916060013516610402565b6100c1610478565b6101ab6004803603602081101561019b57600080fd5b50356001600160a01b03166104cb565b604080519115158252519081900360200190f35b6101c7610560565b60408051918252519081900360200190f35b6100c1600480360360208110156101ef57600080fd5b50356001600160a01b0316610566565b6101036004803603602081101561021557600080fd5b50356105c9565b6101c76004803603602081101561023257600080fd5b50356001600160a01b0316610620565b6100c16004803603602081101561025857600080fd5b50356001600160a01b0316610683565b6101c76106e6565b60008073__$d23c89be677d40ab24c636937040b6165f$__632ebb2fed90916040518263ffffffff1660e01b81526004018082815260200191505060206040518083038186803b1580156102c357600080fd5b505af41580156102d7573d6000803e3d6000fd5b505050506040513d60208110156102ed57600080fd5b5051905090565b60408051635d35e00760e01b81526000600482018190526001600160a01b0384166024830152915173__$d23c89be677d40ab24c636937040b6165f$__92635d35e0079260448082019391829003018186803b15801561035357600080fd5b505af4158015610367573d6000803e3d6000fd5b5050505050565b60408051631c11bf7f60e11b81526000600482018190526001600160a01b03808816602484015260448301879052808616606484015284166084830152915173__$d23c89be677d40ab24c636937040b6165f$__926338237efe9260a48082019391829003018186803b1580156103e457600080fd5b505af41580156103f8573d6000803e3d6000fd5b5050505050505050565b604080516327dd54d360e11b81526000600482018190526001600160a01b03808816602484015260448301879052808616606484015284166084830152915173__$d23c89be677d40ab24c636937040b6165f$__92634fbaa9a69260a48082019391829003018186803b1580156103e457600080fd5b60008073__$d23c89be677d40ab24c636937040b6165f$__6372e40b2690916040518263ffffffff1660e01b81526004018082815260200191505060206040518083038186803b1580156102c357600080fd5b6040805163b0138c4760e01b81526000600482018190526001600160a01b0384166024830152915173__$d23c89be677d40ab24c636937040b6165f$__9163b0138c47916044808301926020929190829003018186803b15801561052e57600080fd5b505af4158015610542573d6000803e3d6000fd5b505050506040513d602081101561055857600080fd5b505192915050565b60025490565b6040805163e189dedb60e01b81526000600482018190526001600160a01b0384166024830152915173__$d23c89be677d40ab24c636937040b6165f$__9163e189dedb916044808301926020929190829003018186803b15801561052e57600080fd5b6040805163a176adaf60e01b815260006004820181905260248201849052915173__$d23c89be677d40ab24c636937040b6165f$__9263a176adaf9260448082019391829003018186803b15801561035357600080fd5b60408051631b0d022560e31b81526000600482018190526001600160a01b0384166024830152915173__$d23c89be677d40ab24c636937040b6165f$__9163d8681128916044808301926020929190829003018186803b15801561052e57600080fd5b6040805163fe1ee71960e01b81526000600482018190526001600160a01b0384166024830152915173__$d23c89be677d40ab24c636937040b6165f$__9163fe1ee719916044808301926020929190829003018186803b15801561052e57600080fd5b60008073__$d23c89be677d40ab24c636937040b6165f$__63b32ece5890916040518263ffffffff1660e01b81526004018082815260200191505060206040518083038186803b1580156102c357600080fdfea265627a7a72315820b39cc4041cda08b17200809d582476abfa4290e4cc0e8a7a54800f225e0b191764736f6c634300050b0032",
  "linkReferences": {
    "contracts/libraries/SortedDoublyLL.sol": {
      "SortedDoublyLL": [
        {
          "length": 20,
          "start": 661
        },
        {
          "length": 20,
          "start": 830
        },
        {
          "length": 20,
          "start": 975
        },
        {
          "length": 20,
          "start": 1123
        },
        {
          "length": 20,
          "start": 1181
        },
        {
          "length": 20,
          "start": 1301
        },
        {
          "length": 20,
          "start": 1456
        },
        {
          "length": 20,
          "start": 1547
        },
        {
          "length": 20,
          "start": 1642
        },
        {
          "length": 20,
          "start": 1741
        },
        {
          "length": 20,
          "start": 1803
        }
      ]
    }
  },
  "deployedLinkReferences": {
    "contracts/libraries/SortedDoublyLL.sol": {
      "SortedDoublyLL": [
        {
          "length": 20,
          "start": 629
        },
        {
          "length": 20,
          "start": 798
        },
        {
          "length": 20,
          "start": 943
        },
        {
          "length": 20,
          "start": 1091
        },
        {
          "length": 20,
          "start": 1149
        },
        {
          "length": 20,
          "start": 1269
        },
        {
          "length": 20,
          "start": 1424
        },
        {
          "length": 20,
          "start": 1515
        },
        {
          "length": 20,
          "start": 1610
        },
        {
          "length": 20,
          "start": 1709
        },
        {
          "length": 20,
          "start": 1771
        }
      ]
    }
  }
}