{
  "_format": "hh-sol-artifact-1",
  "contractName": "SimplePoolMock",
  "sourceName": "contracts/mocks/SimplePoolMock.sol",
  "abi": [
    {
      "inputs": [],
      "stateMutability": "nonpayable",
      "type": "constructor"
    },
    {
      "inputs": [
        {
          "internalType": "uint256",
          "name": "_u",
          "type": "uint256"
        }
      ],
      "name": "changeU",
      "outputs": [],
      "stateMutability": "nonpayable",
      "type": "function"
    },
    {
      "inputs": [],
      "name": "utilizationRate",
      "outputs": [
        {
          "internalType": "uint256",
          "name": "",
          "type": "uint256"
        }
      ],
      "stateMutability": "view",
      "type": "function"
    }
  ],
  "bytecode": "0x6080604052348015600f57600080fd5b5060ac8061001e6000396000f3fe6080604052348015600f57600080fd5b506004361060325760003560e01c806312de38321460375780636c321c8a146049575b600080fd5b60476042366004605e565b600055565b005b60005460405190815260200160405180910390f35b600060208284031215606f57600080fd5b503591905056fea2646970667358221220944476ff6b02d23e5753a24d4d0764bd8b4d52581d83ee11decdbba63a2d68e264736f6c63430008070033",
  "linkReferences": {},
  "deployedLinkReferences": {}
}