{
  "_format": "hh-sol-artifact-1",
  "contractName": "PureTokenAdapter",
  "sourceName": "contracts/asset/PureTokenAdapter.sol",
  "abi": [
    {
      "anonymous": false,
      "inputs": [
        {
          "indexed": false,
          "internalType": "address",
          "name": "previousAdmin",
          "type": "address"
        },
        {
          "indexed": false,
          "internalType": "address",
          "name": "newAdmin",
          "type": "address"
        }
      ],
      "name": "AdminChanged",
      "type": "event"
    },
    {
      "anonymous": false,
      "inputs": [
        {
          "indexed": true,
          "internalType": "address",
          "name": "beacon",
          "type": "address"
        }
      ],
      "name": "BeaconUpgraded",
      "type": "event"
    },
    {
      "anonymous": false,
      "inputs": [
        {
          "indexed": false,
          "internalType": "address",
          "name": "account",
          "type": "address"
        }
      ],
      "name": "Paused",
      "type": "event"
    },
    {
      "anonymous": false,
      "inputs": [
        {
          "indexed": true,
          "internalType": "bytes32",
          "name": "role",
          "type": "bytes32"
        },
        {
          "indexed": true,
          "internalType": "bytes32",
          "name": "previousAdminRole",
          "type": "bytes32"
        },
        {
          "indexed": true,
          "internalType": "bytes32",
          "name": "newAdminRole",
          "type": "bytes32"
        }
      ],
      "name": "RoleAdminChanged",
      "type": "event"
    },
    {
      "anonymous": false,
      "inputs": [
        {
          "indexed": true,
          "internalType": "bytes32",
          "name": "role",
          "type": "bytes32"
        },
        {
          "indexed": true,
          "internalType": "address",
          "name": "account",
          "type": "address"
        },
        {
          "indexed": true,
          "internalType": "address",
          "name": "sender",
          "type": "address"
        }
      ],
      "name": "RoleGranted",
      "type": "event"
    },
    {
      "anonymous": false,
      "inputs": [
        {
          "indexed": true,
          "internalType": "bytes32",
          "name": "role",
          "type": "bytes32"
        },
        {
          "indexed": true,
          "internalType": "address",
          "name": "account",
          "type": "address"
        },
        {
          "indexed": true,
          "internalType": "address",
          "name": "sender",
          "type": "address"
        }
      ],
      "name": "RoleRevoked",
      "type": "event"
    },
    {
      "anonymous": false,
      "inputs": [
        {
          "indexed": false,
          "internalType": "address",
          "name": "account",
          "type": "address"
        }
      ],
      "name": "Unpaused",
      "type": "event"
    },
    {
      "anonymous": false,
      "inputs": [
        {
          "indexed": true,
          "internalType": "address",
          "name": "implementation",
          "type": "address"
        }
      ],
      "name": "Upgraded",
      "type": "event"
    },
    {
      "inputs": [],
      "name": "DEFAULT_ADMIN_ROLE",
      "outputs": [
        {
          "internalType": "bytes32",
          "name": "",
          "type": "bytes32"
        }
      ],
      "stateMutability": "view",
      "type": "function"
    },
    {
      "inputs": [],
      "name": "ROLE_ADMIN",
      "outputs": [
        {
          "internalType": "bytes32",
          "name": "",
          "type": "bytes32"
        }
      ],
      "stateMutability": "view",
      "type": "function"
    },
    {
      "inputs": [
        {
          "internalType": "address",
          "name": "admin_",
          "type": "address"
        }
      ],
      "name": "__Controller_init",
      "outputs": [],
      "stateMutability": "nonpayable",
      "type": "function"
    },
    {
      "inputs": [
        {
          "internalType": "address",
          "name": "_assetManager",
          "type": "address"
        }
      ],
      "name": "__PureTokenAdapter_init",
      "outputs": [],
      "stateMutability": "nonpayable",
      "type": "function"
    },
    {
      "inputs": [
        {
          "internalType": "address",
          "name": "account",
          "type": "address"
        }
      ],
      "name": "addAdmin",
      "outputs": [],
      "stateMutability": "nonpayable",
      "type": "function"
    },
    {
      "inputs": [],
      "name": "assetManager",
      "outputs": [
        {
          "internalType": "address",
          "name": "",
          "type": "address"
        }
      ],
      "stateMutability": "view",
      "type": "function"
    },
    {
      "inputs": [
        {
          "internalType": "address",
          "name": "",
          "type": "address"
        }
      ],
      "name": "ceilingMap",
      "outputs": [
        {
          "internalType": "uint256",
          "name": "",
          "type": "uint256"
        }
      ],
      "stateMutability": "view",
      "type": "function"
    },
    {
      "inputs": [
        {
          "internalType": "address",
          "name": "tokenAddress",
          "type": "address"
        },
        {
          "internalType": "address",
          "name": "recipient",
          "type": "address"
        }
      ],
      "name": "claimTokens",
      "outputs": [],
      "stateMutability": "nonpayable",
      "type": "function"
    },
    {
      "inputs": [
        {
          "internalType": "address",
          "name": "tokenAddress",
          "type": "address"
        }
      ],
      "name": "deposit",
      "outputs": [],
      "stateMutability": "view",
      "type": "function"
    },
    {
      "inputs": [
        {
          "internalType": "address",
          "name": "",
          "type": "address"
        }
      ],
      "name": "floorMap",
      "outputs": [
        {
          "internalType": "uint256",
          "name": "",
          "type": "uint256"
        }
      ],
      "stateMutability": "view",
      "type": "function"
    },
    {
      "inputs": [
        {
          "internalType": "address",
          "name": "",
          "type": "address"
        }
      ],
      "name": "getRate",
      "outputs": [
        {
          "internalType": "uint256",
          "name": "",
          "type": "uint256"
        }
      ],
      "stateMutability": "pure",
      "type": "function"
    },
    {
      "inputs": [
        {
          "internalType": "bytes32",
          "name": "role",
          "type": "bytes32"
        }
      ],
      "name": "getRoleAdmin",
      "outputs": [
        {
          "internalType": "bytes32",
          "name": "",
          "type": "bytes32"
        }
      ],
      "stateMutability": "view",
      "type": "function"
    },
    {
      "inputs": [
        {
          "internalType": "address",
          "name": "tokenAddress",
          "type": "address"
        }
      ],
      "name": "getSupply",
      "outputs": [
        {
          "internalType": "uint256",
          "name": "",
          "type": "uint256"
        }
      ],
      "stateMutability": "view",
      "type": "function"
    },
    {
      "inputs": [
        {
          "internalType": "address",
          "name": "tokenAddress",
          "type": "address"
        }
      ],
      "name": "getSupplyView",
      "outputs": [
        {
          "internalType": "uint256",
          "name": "",
          "type": "uint256"
        }
      ],
      "stateMutability": "view",
      "type": "function"
    },
    {
      "inputs": [
        {
          "internalType": "bytes32",
          "name": "role",
          "type": "bytes32"
        },
        {
          "internalType": "address",
          "name": "account",
          "type": "address"
        }
      ],
      "name": "grantRole",
      "outputs": [],
      "stateMutability": "nonpayable",
      "type": "function"
    },
    {
      "inputs": [
        {
          "internalType": "bytes32",
          "name": "role",
          "type": "bytes32"
        },
        {
          "internalType": "address",
          "name": "account",
          "type": "address"
        }
      ],
      "name": "hasRole",
      "outputs": [
        {
          "internalType": "bool",
          "name": "",
          "type": "bool"
        }
      ],
      "stateMutability": "view",
      "type": "function"
    },
    {
      "inputs": [
        {
          "internalType": "address",
          "name": "account",
          "type": "address"
        }
      ],
      "name": "isAdmin",
      "outputs": [
        {
          "internalType": "bool",
          "name": "",
          "type": "bool"
        }
      ],
      "stateMutability": "view",
      "type": "function"
    },
    {
      "inputs": [],
      "name": "pause",
      "outputs": [],
      "stateMutability": "nonpayable",
      "type": "function"
    },
    {
      "inputs": [],
      "name": "pauseGuardian",
      "outputs": [
        {
          "internalType": "address",
          "name": "",
          "type": "address"
        }
      ],
      "stateMutability": "view",
      "type": "function"
    },
    {
      "inputs": [],
      "name": "paused",
      "outputs": [
        {
          "internalType": "bool",
          "name": "",
          "type": "bool"
        }
      ],
      "stateMutability": "view",
      "type": "function"
    },
    {
      "inputs": [],
      "name": "renounceAdmin",
      "outputs": [],
      "stateMutability": "nonpayable",
      "type": "function"
    },
    {
      "inputs": [
        {
          "internalType": "bytes32",
          "name": "role",
          "type": "bytes32"
        },
        {
          "internalType": "address",
          "name": "account",
          "type": "address"
        }
      ],
      "name": "renounceRole",
      "outputs": [],
      "stateMutability": "nonpayable",
      "type": "function"
    },
    {
      "inputs": [
        {
          "internalType": "bytes32",
          "name": "role",
          "type": "bytes32"
        },
        {
          "internalType": "address",
          "name": "account",
          "type": "address"
        }
      ],
      "name": "revokeRole",
      "outputs": [],
      "stateMutability": "nonpayable",
      "type": "function"
    },
    {
      "inputs": [
        {
          "internalType": "address",
          "name": "_assetManager",
          "type": "address"
        }
      ],
      "name": "setAssetManager",
      "outputs": [],
      "stateMutability": "nonpayable",
      "type": "function"
    },
    {
      "inputs": [
        {
          "internalType": "address",
          "name": "tokenAddress",
          "type": "address"
        },
        {
          "internalType": "uint256",
          "name": "ceiling",
          "type": "uint256"
        }
      ],
      "name": "setCeiling",
      "outputs": [],
      "stateMutability": "nonpayable",
      "type": "function"
    },
    {
      "inputs": [
        {
          "internalType": "address",
          "name": "tokenAddress",
          "type": "address"
        },
        {
          "internalType": "uint256",
          "name": "floor",
          "type": "uint256"
        }
      ],
      "name": "setFloor",
      "outputs": [],
      "stateMutability": "nonpayable",
      "type": "function"
    },
    {
      "inputs": [
        {
          "internalType": "address",
          "name": "account",
          "type": "address"
        }
      ],
      "name": "setGuardian",
      "outputs": [],
      "stateMutability": "nonpayable",
      "type": "function"
    },
    {
      "inputs": [
        {
          "internalType": "bytes4",
          "name": "interfaceId",
          "type": "bytes4"
        }
      ],
      "name": "supportsInterface",
      "outputs": [
        {
          "internalType": "bool",
          "name": "",
          "type": "bool"
        }
      ],
      "stateMutability": "view",
      "type": "function"
    },
    {
      "inputs": [
        {
          "internalType": "address",
          "name": "tokenAddress",
          "type": "address"
        }
      ],
      "name": "supportsToken",
      "outputs": [
        {
          "internalType": "bool",
          "name": "",
          "type": "bool"
        }
      ],
      "stateMutability": "view",
      "type": "function"
    },
    {
      "inputs": [],
      "name": "unpause",
      "outputs": [],
      "stateMutability": "nonpayable",
      "type": "function"
    },
    {
      "inputs": [
        {
          "internalType": "address",
          "name": "newImplementation",
          "type": "address"
        }
      ],
      "name": "upgradeTo",
      "outputs": [],
      "stateMutability": "nonpayable",
      "type": "function"
    },
    {
      "inputs": [
        {
          "internalType": "address",
          "name": "newImplementation",
          "type": "address"
        },
        {
          "internalType": "bytes",
          "name": "data",
          "type": "bytes"
        }
      ],
      "name": "upgradeToAndCall",
      "outputs": [],
      "stateMutability": "payable",
      "type": "function"
    },
    {
      "inputs": [
        {
          "internalType": "address",
          "name": "tokenAddress",
          "type": "address"
        },
        {
          "internalType": "address",
          "name": "recipient",
          "type": "address"
        },
        {
          "internalType": "uint256",
          "name": "tokenAmount",
          "type": "uint256"
        }
      ],
      "name": "withdraw",
      "outputs": [],
      "stateMutability": "nonpayable",
      "type": "function"
    },
    {
      "inputs": [
        {
          "internalType": "address",
          "name": "tokenAddress",
          "type": "address"
        },
        {
          "internalType": "address",
          "name": "recipient",
          "type": "address"
        }
      ],
      "name": "withdrawAll",
      "outputs": [],
      "stateMutability": "nonpayable",
      "type": "function"
    }
  ],
  "bytecode": "0x60a06040523060601b60805234801561001757600080fd5b5060805160601c6123b261004b60003960008181610c4101528181610c8101528181610e1b0152610e5b01526123b26000f3fe6080604052600436106101f95760003560e01c806369ffa08a1161010d57806391d14854116100a0578063d391014b1161006f578063d391014b14610823578063d547741f14610845578063d9caed121461087e578063ed8a1e54146102e9578063f340fa01146108c157600080fd5b806391d148541461077b57806394217ad1146107b4578063a217fddf146107d5578063c99c7d93146107ea57600080fd5b80638456cb59116100dc5780638456cb59146106dd5780638a0dac4a146106f25780638bad0c0a14610725578063904d32611461073a57600080fd5b806369ffa08a146106035780636c00c7f01461063e5780636c461a731461067757806370480275146106aa57600080fd5b80632f2ff15d1161019057806337cef7911161015f57806337cef791146104c25780633f4ba83a146104ed57806343060237146105025780634f1ef286146105355780635c975abb146105eb57600080fd5b80632f2ff15d146103dc578063363f68ce1461041557806336568abe146104565780633659cfe61461048f57600080fd5b80631fd433aa116101cc5780631fd433aa146102e9578063248a9ca31461032e57806324a3d6221461036857806324d7806c146103a957600080fd5b806301ffc9a7146101fe578063061f76501461024657806309b12ff51461027957806309cae2c8146102ae575b600080fd5b34801561020a57600080fd5b506102326004803603602081101561022157600080fd5b50356001600160e01b0319166108f4565b604080519115158252519081900360200190f35b34801561025257600080fd5b506102326004803603602081101561026957600080fd5b50356001600160a01b031661092b565b34801561028557600080fd5b506102ac6004803603602081101561029c57600080fd5b50356001600160a01b0316610936565b005b3480156102ba57600080fd5b506102ac600480360360408110156102d157600080fd5b506001600160a01b03813581169160200135166109d1565b3480156102f557600080fd5b5061031c6004803603602081101561030c57600080fd5b50356001600160a01b0316610af9565b60408051918252519081900360200190f35b34801561033a57600080fd5b5061031c6004803603602081101561035157600080fd5b5035600090815260c9602052604090206001015490565b34801561037457600080fd5b5060fc5461038d9061010090046001600160a01b031681565b604080516001600160a01b039092168252519081900360200190f35b3480156103b557600080fd5b50610232600480360360208110156103cc57600080fd5b50356001600160a01b0316610b77565b3480156103e857600080fd5b506102ac600480360360408110156103ff57600080fd5b50803590602001356001600160a01b0316610b91565b34801561042157600080fd5b5061031c6004803603602081101561043857600080fd5b50610131602052356001600160a01b03166000908152604090205481565b34801561046257600080fd5b506102ac6004803603604081101561047957600080fd5b50803590602001356001600160a01b0316610bbc565b34801561049b57600080fd5b506102ac600480360360208110156104b257600080fd5b50356001600160a01b0316610c36565b3480156104ce57600080fd5b5061031c600480360360208110156104e557600080fd5b506000919050565b3480156104f957600080fd5b506102ac610cff565b34801561050e57600080fd5b506102ac6004803603602081101561052557600080fd5b50356001600160a01b0316610db9565b6102ac6004803603604081101561054b57600080fd5b6001600160a01b03823516919081019060408101602082013564010000000081111561057657600080fd5b82018360208201111561058857600080fd5b803590602001918460018302840111640100000000831117156105aa57600080fd5b91908080601f016020809104026020016040519081016040528093929190818152602001838380828437600092019190915250929550610e10945050505050565b3480156105f757600080fd5b5060fc5460ff16610232565b34801561060f57600080fd5b506102ac6004803603604081101561062657600080fd5b506001600160a01b0381358116916020013516610ec6565b34801561064a57600080fd5b506102ac6004803603604081101561066157600080fd5b506001600160a01b038135169060200135610f1a565b34801561068357600080fd5b506102ac6004803603602081101561069a57600080fd5b50356001600160a01b0316610f6b565b3480156106b657600080fd5b506102ac600480360360208110156106cd57600080fd5b50356001600160a01b031661109b565b3480156106e957600080fd5b506102ac6111d3565b3480156106fe57600080fd5b506102ac6004803603602081101561071557600080fd5b50356001600160a01b0316611287565b34801561073157600080fd5b506102ac6112e3565b34801561074657600080fd5b5061031c6004803603602081101561075d57600080fd5b50610130602052356001600160a01b03166000908152604090205481565b34801561078757600080fd5b506102326004803603604081101561079e57600080fd5b50803590602001356001600160a01b031661131a565b3480156107c057600080fd5b5061012f5461038d906001600160a01b031681565b3480156107e157600080fd5b5061031c600081565b3480156107f657600080fd5b506102ac6004803603604081101561080d57600080fd5b506001600160a01b038135169060200135611345565b34801561082f57600080fd5b5061031c60008051602061233683398151915281565b34801561085157600080fd5b506102ac6004803603604081101561086857600080fd5b50803590602001356001600160a01b0316611396565b34801561088a57600080fd5b506102ac600480360360608110156108a157600080fd5b506001600160a01b038135811691602081013590911690604001356113bc565b3480156108cd57600080fd5b506102ac600480360360208110156108e457600080fd5b50356001600160a01b0316611467565b60006001600160e01b03198216637965db0b60e01b148061092557506301ffc9a760e01b6001600160e01b03198316145b92915050565b6000610925826114ac565b600054610100900460ff168061094f575060005460ff16155b6109745760405162461bcd60e51b815260040161096b90612205565b60405180910390fd5b600054610100900460ff16158015610996576000805461ffff19166101011790555b61099f33610f6b565b61012f80546001600160a01b0319166001600160a01b03841617905580156109cd576000805461ff00191690555b5050565b61012f546001600160a01b03163314610a1b5760405162461bcd60e51b815260040180806020018281038252602d815260200180612309602d913960400191505060405180910390fd5b81610a25816114ac565b610a605760405162461bcd60e51b81526004018080602001828103825260258152602001806122e46025913960400191505060405180910390fd5b6000839050610af383826001600160a01b03166370a08231306040518263ffffffff1660e01b815260040180826001600160a01b0316815260200191505060206040518083038186803b158015610ab657600080fd5b505afa158015610aca573d6000803e3d6000fd5b505050506040513d6020811015610ae057600080fd5b50516001600160a01b0384169190611547565b50505050565b604080516370a0823160e01b8152306004820152905160009183916001600160a01b038316916370a08231916024808301926020929190829003018186803b158015610b4457600080fd5b505afa158015610b58573d6000803e3d6000fd5b505050506040513d6020811015610b6e57600080fd5b50519392505050565b60006109256000805160206123368339815191528361131a565b600082815260c96020526040902060010154610bad8133611599565b610bb783836115fd565b505050565b6001600160a01b0381163314610c2c5760405162461bcd60e51b815260206004820152602f60248201527f416363657373436f6e74726f6c3a2063616e206f6e6c792072656e6f756e636560448201526e103937b632b9903337b91039b2b63360891b606482015260840161096b565b6109cd8282611683565b306001600160a01b037f0000000000000000000000000000000000000000000000000000000000000000161415610c7f5760405162461bcd60e51b815260040161096b906120ec565b7f00000000000000000000000000000000000000000000000000000000000000006001600160a01b0316610cb16116ea565b6001600160a01b031614610cd75760405162461bcd60e51b815260040161096b90612138565b610ce081611718565b60408051600080825260208201909252610cfc9183919061174c565b50565b60fc5461010090046001600160a01b03163314610d2e5760405162461bcd60e51b815260040161096b906121b3565b60fc5460ff16610d795760405162461bcd60e51b815260206004820152601660248201527510dbdb9d1c9bdb1b195c8e881b9bdd081c185d5cd95960521b604482015260640161096b565b60fc805460ff191690556040513381527f5db9ee0a495bf2e6ff9c91a7834c1ba4fdd244a5e8aa4e537bd38aeae4b073aa906020015b60405180910390a1565b610dd16000805160206123368339815191523361131a565b610ded5760405162461bcd60e51b815260040161096b90612184565b61012f80546001600160a01b0319166001600160a01b0392909216919091179055565b306001600160a01b037f0000000000000000000000000000000000000000000000000000000000000000161415610e595760405162461bcd60e51b815260040161096b906120ec565b7f00000000000000000000000000000000000000000000000000000000000000006001600160a01b0316610e8b6116ea565b6001600160a01b031614610eb15760405162461bcd60e51b815260040161096b90612138565b610eba82611718565b6109cd8282600161174c565b61012f546001600160a01b03163314610f105760405162461bcd60e51b815260040180806020018281038252602d815260200180612309602d913960400191505060405180910390fd5b6109cd8282611890565b610f326000805160206123368339815191523361131a565b610f4e5760405162461bcd60e51b815260040161096b90612184565b6001600160a01b0390911660009081526101316020526040902055565b600054610100900460ff1680610f84575060005460ff16155b610fa05760405162461bcd60e51b815260040161096b90612205565b600054610100900460ff16158015610fc2576000805461ffff19166101011790555b6001600160a01b0382166110135760405162461bcd60e51b8152602060048201526018602482015277436f6e74726f6c6c65723a2061646472657373207a65726f60401b604482015260640161096b565b60fc805460ff191690556001600160a01b038216600081815260fb6020526040902080546001600160a01b031916909117905561104e61191d565b61106660008051602061233683398151915283611998565b60fc8054610100600160a81b0319166101006001600160a01b0385160217905580156109cd576000805461ff00191690555050565b6110b36000805160206123368339815191523361131a565b6110cf5760405162461bcd60e51b815260040161096b90612184565b6001600160a01b0381166111205760405162461bcd60e51b8152602060048201526018602482015277436f6e74726f6c6c65723a2061646472657373207a65726f60401b604482015260640161096b565b6001600160a01b03818116600090815260fb602052604090205416156111925760405162461bcd60e51b815260206004820152602160248201527f436f6e74726f6c6c65723a2061646d696e20616c7265616479206578697374656044820152601960fa1b606482015260840161096b565b6001600160a01b038116600081815260fb6020526040902080546001600160a01b0319169091179055610cfc60008051602061233683398151915282611998565b60fc5461010090046001600160a01b031633146112025760405162461bcd60e51b815260040161096b906121b3565b60fc5460ff161561124a5760405162461bcd60e51b815260206004820152601260248201527110dbdb9d1c9bdb1b195c8e881c185d5cd95960721b604482015260640161096b565b60fc805460ff191660011790556040513381527f62e78cea01bee320cd4e420270b5ea74000d11b0c9f74754ebdbfc544b05a25890602001610daf565b61129f6000805160206123368339815191523361131a565b6112bb5760405162461bcd60e51b815260040161096b90612184565b60fc80546001600160a01b0390921661010002610100600160a81b0319909216919091179055565b6112fb60008051602061233683398151915233610bbc565b33600090815260fb6020526040902080546001600160a01b0319169055565b600091825260c9602090815260408084206001600160a01b0393909316845291905290205460ff1690565b61135d6000805160206123368339815191523361131a565b6113795760405162461bcd60e51b815260040161096b90612184565b6001600160a01b0390911660009081526101306020526040902055565b600082815260c960205260409020600101546113b28133611599565b610bb78383611683565b61012f546001600160a01b031633146114065760405162461bcd60e51b815260040180806020018281038252602d815260200180612309602d913960400191505060405180910390fd5b82611410816114ac565b61144b5760405162461bcd60e51b81526004018080602001828103825260258152602001806122e46025913960400191505060405180910390fd5b836114606001600160a01b0382168585611547565b5050505050565b80611471816114ac565b6109cd5760405162461bcd60e51b81526004018080602001828103825260258152602001806122e46025913960400191505060405180910390fd5b6000816001600160a01b0381161580159061154057506000816001600160a01b03166370a08231306040518263ffffffff1660e01b815260040180826001600160a01b0316815260200191505060206040518083038186803b15801561151157600080fd5b505afa158015611525573d6000803e3d6000fd5b505050506040513d602081101561153b57600080fd5b505110155b9392505050565b604080516001600160a01b038416602482015260448082018490528251808303909101815260649091019091526020810180516001600160e01b031663a9059cbb60e01b179052610bb79084906119a2565b6115a3828261131a565b6109cd576115bb816001600160a01b03166014611a74565b6115c6836020611a74565b6040516020016115d7929190612044565b60408051601f198184030181529082905262461bcd60e51b825261096b916004016120b9565b611607828261131a565b6109cd57600082815260c9602090815260408083206001600160a01b03851684529091529020805460ff1916600117905561163f3390565b6001600160a01b0316816001600160a01b0316837f2f8788117e7eff1d82e926ec794901d17c78024a50270940304540a733656f0d60405160405180910390a45050565b61168d828261131a565b156109cd57600082815260c9602090815260408083206001600160a01b0385168085529252808320805460ff1916905551339285917ff6391f5c32d9c69d2a47ea670b442974b53935d1edc7fd64eb21e047a839171b9190a45050565b7f360894a13ba1a3210667c828492db98dca3e2076cc3735a920a3ca505d382bbc546001600160a01b031690565b6117306000805160206123368339815191523361131a565b610cfc5760405162461bcd60e51b815260040161096b90612184565b60006117566116ea565b905061176184611c56565b60008351118061176e5750815b1561177f5761177d8484611cfb565b505b7f4910fdfa16fed3260ed0e7147f7cc6da11a60208b5b9406d12a635614ffd9143805460ff1661146057805460ff191660011781556040516001600160a01b03831660248201526117fe90869060440160408051601f198184030181529190526020810180516001600160e01b0316631b2ce7f360e11b179052611cfb565b50805460ff1916815561180f6116ea565b6001600160a01b0316826001600160a01b0316146118875760405162461bcd60e51b815260206004820152602f60248201527f45524331393637557067726164653a207570677261646520627265616b73206660448201526e75727468657220757067726164657360881b606482015260840161096b565b61146085611de6565b604080516370a0823160e01b8152306004820152905183916000916001600160a01b038416916370a08231916024808301926020929190829003018186803b1580156118db57600080fd5b505afa1580156118ef573d6000803e3d6000fd5b505050506040513d602081101561190557600080fd5b50519050610af36001600160a01b0383168483611547565b600054610100900460ff1680611936575060005460ff16155b6119525760405162461bcd60e51b815260040161096b90612205565b600054610100900460ff16158015611974576000805461ffff19166101011790555b61197c611e26565b611984611e26565b8015610cfc576000805461ff001916905550565b6109cd82826115fd565b60006119f7826040518060400160405280602081526020017f5361666545524332303a206c6f772d6c6576656c2063616c6c206661696c6564815250856001600160a01b0316611e909092919063ffffffff16565b805190915015610bb75780806020019051810190611a159190612008565b610bb75760405162461bcd60e51b815260206004820152602a60248201527f5361666545524332303a204552433230206f7065726174696f6e20646964206e6044820152691bdd081cdd58d8d9595960b21b606482015260840161096b565b60606000611a8383600261226b565b611a8e906002612253565b67ffffffffffffffff811115611ab457634e487b7160e01b600052604160045260246000fd5b6040519080825280601f01601f191660200182016040528015611ade576020820181803683370190505b509050600360fc1b81600081518110611b0757634e487b7160e01b600052603260045260246000fd5b60200101906001600160f81b031916908160001a905350600f60fb1b81600181518110611b4457634e487b7160e01b600052603260045260246000fd5b60200101906001600160f81b031916908160001a9053506000611b6884600261226b565b611b73906001612253565b90505b6001811115611c07576f181899199a1a9b1b9c1cb0b131b232b360811b85600f1660108110611bb557634e487b7160e01b600052603260045260246000fd5b1a60f81b828281518110611bd957634e487b7160e01b600052603260045260246000fd5b60200101906001600160f81b031916908160001a90535060049490941c93611c00816122b6565b9050611b76565b5083156115405760405162461bcd60e51b815260206004820181905260248201527f537472696e67733a20686578206c656e67746820696e73756666696369656e74604482015260640161096b565b803b611cba5760405162461bcd60e51b815260206004820152602d60248201527f455243313936373a206e657720696d706c656d656e746174696f6e206973206e60448201526c1bdd08184818dbdb9d1c9858dd609a1b606482015260840161096b565b7f360894a13ba1a3210667c828492db98dca3e2076cc3735a920a3ca505d382bbc80546001600160a01b0319166001600160a01b0392909216919091179055565b6060823b611d5a5760405162461bcd60e51b815260206004820152602660248201527f416464726573733a2064656c65676174652063616c6c20746f206e6f6e2d636f6044820152651b9d1c9858dd60d21b606482015260840161096b565b600080846001600160a01b031684604051611d759190612028565b600060405180830381855af49150503d8060008114611db0576040519150601f19603f3d011682016040523d82523d6000602084013e611db5565b606091505b5091509150611ddd828260405180606001604052806027815260200161235660279139611ea7565b95945050505050565b611def81611c56565b6040516001600160a01b038216907fbc7cd75a20ee27fd9adebab32041f755214dbc6bffa90cc0225b39da2e5c2d3b90600090a250565b600054610100900460ff1680611e3f575060005460ff16155b611e5b5760405162461bcd60e51b815260040161096b90612205565b600054610100900460ff16158015611984576000805461ffff19166101011790558015610cfc576000805461ff001916905550565b6060611e9f8484600085611ee0565b949350505050565b60608315611eb6575081611540565b825115611ec65782518084602001fd5b8160405162461bcd60e51b815260040161096b91906120b9565b606082471015611f415760405162461bcd60e51b815260206004820152602660248201527f416464726573733a20696e73756666696369656e742062616c616e636520666f6044820152651c8818d85b1b60d21b606482015260840161096b565b843b611f8f5760405162461bcd60e51b815260206004820152601d60248201527f416464726573733a2063616c6c20746f206e6f6e2d636f6e7472616374000000604482015260640161096b565b600080866001600160a01b03168587604051611fab9190612028565b60006040518083038185875af1925050503d8060008114611fe8576040519150601f19603f3d011682016040523d82523d6000602084013e611fed565b606091505b5091509150611ffd828286611ea7565b979650505050505050565b600060208284031215612019578081fd5b81518015158114611540578182fd5b6000825161203a81846020870161228a565b9190910192915050565b7f416363657373436f6e74726f6c3a206163636f756e742000000000000000000081526000835161207c81601785016020880161228a565b7001034b99036b4b9b9b4b733903937b6329607d1b60179184019182015283516120ad81602884016020880161228a565b01602801949350505050565b60208152600082518060208401526120d881604085016020870161228a565b601f01601f19169190910160400192915050565b6020808252602c908201527f46756e6374696f6e206d7573742062652063616c6c6564207468726f7567682060408201526b19195b1959d85d1958d85b1b60a21b606082015260800190565b6020808252602c908201527f46756e6374696f6e206d7573742062652063616c6c6564207468726f7567682060408201526b6163746976652070726f787960a01b606082015260800190565b60208082526015908201527421b7b73a3937b63632b91d103737ba1030b236b4b760591b604082015260600190565b60208082526032908201527f436f6e74726f6c6c65723a2063616c6c657220646f6573206e6f7420686176656040820152712074686520677561726469616e20726f6c6560701b606082015260800190565b6020808252602e908201527f496e697469616c697a61626c653a20636f6e747261637420697320616c72656160408201526d191e481a5b9a5d1a585b1a5e995960921b606082015260800190565b60008219821115612266576122666122cd565b500190565b6000816000190483118215151615612285576122856122cd565b500290565b60005b838110156122a557818101518382015260200161228d565b83811115610af35750506000910152565b6000816122c5576122c56122cd565b506000190190565b634e487b7160e01b600052601160045260246000fdfe50757265546f6b656e416461707465723a20746f6b656e206e6f7420737570706f7274656450757265546f6b656e416461707465723a206f6e6c79206173736574206d616e616765722063616e2063616c6c2172861495e7b85edac73e3cd5fbb42dd675baadf627720e687bcfdaca025096416464726573733a206c6f772d6c6576656c2064656c65676174652063616c6c206661696c6564a2646970667358221220145a9499a8ed4e60ed5532c737eda63d539ba99ce05064f785cdc0fcd236577164736f6c63430008040033",
  "linkReferences": {},
  "deployedLinkReferences": {}
}