{
  "_format": "hh-sol-artifact-1",
  "contractName": "MockGenericMinerV2",
  "sourceName": "contracts/mocks/MockGenericMinerV2.sol",
  "abi": [
    {
      "inputs": [
        {
          "internalType": "contract IGovernanceAddressProvider",
          "name": "_addresses",
          "type": "address"
        },
        {
          "components": [
            {
              "internalType": "uint256",
              "name": "a",
              "type": "uint256"
            },
            {
              "internalType": "uint256",
              "name": "b",
              "type": "uint256"
            },
            {
              "internalType": "uint256",
              "name": "c",
              "type": "uint256"
            },
            {
              "internalType": "uint256",
              "name": "d",
              "type": "uint256"
            },
            {
              "internalType": "uint256",
              "name": "e",
              "type": "uint256"
            },
            {
              "internalType": "uint256",
              "name": "maxBoost",
              "type": "uint256"
            }
          ],
          "internalType": "struct IGenericMinerV2.BoostConfig",
          "name": "_boostConfig",
          "type": "tuple"
        }
      ],
      "stateMutability": "nonpayable",
      "type": "constructor"
    },
    {
      "anonymous": false,
      "inputs": [
        {
          "components": [
            {
              "internalType": "uint256",
              "name": "a",
              "type": "uint256"
            },
            {
              "internalType": "uint256",
              "name": "b",
              "type": "uint256"
            },
            {
              "internalType": "uint256",
              "name": "c",
              "type": "uint256"
            },
            {
              "internalType": "uint256",
              "name": "d",
              "type": "uint256"
            },
            {
              "internalType": "uint256",
              "name": "e",
              "type": "uint256"
            },
            {
              "internalType": "uint256",
              "name": "maxBoost",
              "type": "uint256"
            }
          ],
          "indexed": false,
          "internalType": "struct IGenericMinerV2.BoostConfig",
          "name": "",
          "type": "tuple"
        }
      ],
      "name": "BoostConfigSet",
      "type": "event"
    },
    {
      "anonymous": false,
      "inputs": [
        {
          "indexed": true,
          "internalType": "address",
          "name": "user",
          "type": "address"
        },
        {
          "indexed": false,
          "internalType": "uint256",
          "name": "stake",
          "type": "uint256"
        }
      ],
      "name": "StakeDecreased",
      "type": "event"
    },
    {
      "anonymous": false,
      "inputs": [
        {
          "indexed": true,
          "internalType": "address",
          "name": "user",
          "type": "address"
        },
        {
          "indexed": false,
          "internalType": "uint256",
          "name": "stake",
          "type": "uint256"
        }
      ],
      "name": "StakeIncreased",
      "type": "event"
    },
    {
      "inputs": [],
      "name": "a",
      "outputs": [
        {
          "internalType": "contract IGovernanceAddressProvider",
          "name": "",
          "type": "address"
        }
      ],
      "stateMutability": "view",
      "type": "function"
    },
    {
      "inputs": [],
      "name": "boostConfig",
      "outputs": [
        {
          "components": [
            {
              "internalType": "uint256",
              "name": "a",
              "type": "uint256"
            },
            {
              "internalType": "uint256",
              "name": "b",
              "type": "uint256"
            },
            {
              "internalType": "uint256",
              "name": "c",
              "type": "uint256"
            },
            {
              "internalType": "uint256",
              "name": "d",
              "type": "uint256"
            },
            {
              "internalType": "uint256",
              "name": "e",
              "type": "uint256"
            },
            {
              "internalType": "uint256",
              "name": "maxBoost",
              "type": "uint256"
            }
          ],
          "internalType": "struct IGenericMinerV2.BoostConfig",
          "name": "",
          "type": "tuple"
        }
      ],
      "stateMutability": "view",
      "type": "function"
    },
    {
      "inputs": [
        {
          "internalType": "address",
          "name": "user",
          "type": "address"
        },
        {
          "internalType": "uint256",
          "name": "value",
          "type": "uint256"
        }
      ],
      "name": "decreaseStake",
      "outputs": [],
      "stateMutability": "nonpayable",
      "type": "function"
    },
    {
      "inputs": [
        {
          "internalType": "address",
          "name": "user",
          "type": "address"
        },
        {
          "internalType": "uint256",
          "name": "value",
          "type": "uint256"
        }
      ],
      "name": "increaseStake",
      "outputs": [],
      "stateMutability": "nonpayable",
      "type": "function"
    },
    {
      "inputs": [],
      "name": "par",
      "outputs": [
        {
          "internalType": "contract IERC20",
          "name": "",
          "type": "address"
        }
      ],
      "stateMutability": "view",
      "type": "function"
    },
    {
      "inputs": [
        {
          "internalType": "address",
          "name": "_user",
          "type": "address"
        }
      ],
      "name": "pendingMIMO",
      "outputs": [
        {
          "internalType": "uint256",
          "name": "",
          "type": "uint256"
        }
      ],
      "stateMutability": "view",
      "type": "function"
    },
    {
      "inputs": [
        {
          "internalType": "address",
          "name": "_user",
          "type": "address"
        }
      ],
      "name": "pendingPAR",
      "outputs": [
        {
          "internalType": "uint256",
          "name": "",
          "type": "uint256"
        }
      ],
      "stateMutability": "view",
      "type": "function"
    },
    {
      "inputs": [
        {
          "internalType": "address",
          "name": "_user",
          "type": "address"
        }
      ],
      "name": "releaseRewards",
      "outputs": [],
      "stateMutability": "nonpayable",
      "type": "function"
    },
    {
      "inputs": [
        {
          "components": [
            {
              "internalType": "uint256",
              "name": "a",
              "type": "uint256"
            },
            {
              "internalType": "uint256",
              "name": "b",
              "type": "uint256"
            },
            {
              "internalType": "uint256",
              "name": "c",
              "type": "uint256"
            },
            {
              "internalType": "uint256",
              "name": "d",
              "type": "uint256"
            },
            {
              "internalType": "uint256",
              "name": "e",
              "type": "uint256"
            },
            {
              "internalType": "uint256",
              "name": "maxBoost",
              "type": "uint256"
            }
          ],
          "internalType": "struct IGenericMinerV2.BoostConfig",
          "name": "newBoostConfig",
          "type": "tuple"
        }
      ],
      "name": "setBoostConfig",
      "outputs": [],
      "stateMutability": "nonpayable",
      "type": "function"
    },
    {
      "inputs": [
        {
          "internalType": "address",
          "name": "_user",
          "type": "address"
        }
      ],
      "name": "stake",
      "outputs": [
        {
          "internalType": "uint256",
          "name": "",
          "type": "uint256"
        }
      ],
      "stateMutability": "view",
      "type": "function"
    },
    {
      "inputs": [
        {
          "internalType": "address",
          "name": "_user",
          "type": "address"
        }
      ],
      "name": "stakeWithBoost",
      "outputs": [
        {
          "internalType": "uint256",
          "name": "",
          "type": "uint256"
        }
      ],
      "stateMutability": "view",
      "type": "function"
    },
    {
      "inputs": [],
      "name": "totalStake",
      "outputs": [
        {
          "internalType": "uint256",
          "name": "",
          "type": "uint256"
        }
      ],
      "stateMutability": "view",
      "type": "function"
    },
    {
      "inputs": [],
      "name": "totalStakeWithBoost",
      "outputs": [
        {
          "internalType": "uint256",
          "name": "",
          "type": "uint256"
        }
      ],
      "stateMutability": "view",
      "type": "function"
    },
    {
      "inputs": [
        {
          "internalType": "address",
          "name": "_user",
          "type": "address"
        }
      ],
      "name": "updateBoost",
      "outputs": [],
      "stateMutability": "nonpayable",
      "type": "function"
    },
    {
      "inputs": [
        {
          "internalType": "address",
          "name": "_user",
          "type": "address"
        }
      ],
      "name": "userInfo",
      "outputs": [
        {
          "components": [
            {
              "internalType": "uint256",
              "name": "stake",
              "type": "uint256"
            },
            {
              "internalType": "uint256",
              "name": "stakeWithBoost",
              "type": "uint256"
            },
            {
              "internalType": "uint256",
              "name": "accAmountPerShare",
              "type": "uint256"
            },
            {
              "internalType": "uint256",
              "name": "accParAmountPerShare",
              "type": "uint256"
            }
          ],
          "internalType": "struct IGenericMinerV2.UserInfo",
          "name": "",
          "type": "tuple"
        }
      ],
      "stateMutability": "view",
      "type": "function"
    }
  ],
  "bytecode": "0x60c06040523480156200001157600080fd5b5060405162002c1c38038062002c1c83398101604081905262000034916200025c565b81816001600160a01b038216620000685760405162461bcd60e51b81526004016200005f90620002fa565b60405180910390fd5b816001600160a01b031660a0816001600160a01b031660601b81525050816001600160a01b0316633df06b596040518163ffffffff1660e01b815260040160206040518083038186803b158015620000bf57600080fd5b505afa158015620000d4573d6000803e3d6000fd5b505050506040513d601f19601f82011682018060405250810190620000fa919062000236565b6001600160a01b03166316d8a5a96040518163ffffffff1660e01b815260040160206040518083038186803b1580156200013357600080fd5b505afa15801562000148573d6000803e3d6000fd5b505050506040513d601f19601f820116820180604052508101906200016e919062000236565b60601b6001600160601b031916608052805160011180159062000195575060008160600151115b8015620001a7575060018160a0015110155b620001c65760405162461bcd60e51b81526004016200005f9062000319565b8051600090815560208201516001556040808301516002556060830151600355608083015160045560a0830151600555517fdea57d5dd436931497612044567596798f2599acfc00861392dd6c8466c8e6f191620002249162000338565b60405180910390a1505050506200038e565b60006020828403121562000248578081fd5b8151620002558162000375565b9392505050565b60008082840360e081121562000270578182fd5b83516200027d8162000375565b925060c0601f198201121562000291578182fd5b5060405160c081016001600160401b0381118282101715620002b1578283fd5b80604052506020840151815260408401516020820152606084015160408201526080840151606082015260a0840151608082015260c084015160a0820152809150509250929050565b60208082526005908201526404c4d3030360dc1b604082015260600190565b60208082526005908201526413134c0c0d60da1b604082015260600190565b815481526001820154602082015260028201546040820152600382015460608201526004820154608082015260059091015460a082015260c00190565b6001600160a01b03811681146200038b57600080fd5b50565b60805160601c60a05160601c612837620003e5600039806102215280610500528061060f5280610b2b5280610dc75280611080528061129f5250806102c85280610c725280610f60528061119052506128376000f3fe608060405234801561001057600080fd5b50600436106100f55760003560e01c80637c284c0a11610097578063be34735511610066578063be347355146101dc578063cf275967146101ef578063d76da20c14610204578063f5989e771461020c576100f5565b80637c284c0a1461019b5780638b0e9f3f146101ae578063a3898c07146101b6578063a91ea1ba146101c9576100f5565b806326476204116100d3578063264762041461014d578063495d32cb1461016d5780635d7e946714610175578063610edec214610188576100f5565b80630dbe671f146100fa5780631959a002146101185780631a73ba0114610138575b600080fd5b61010261021f565b60405161010f9190612550565b60405180910390f35b61012b610126366004612440565b610243565b60405161010f91906127b5565b61014b61014636600461245c565b61029d565b005b61016061015b366004612440565b6102ab565b60405161010f91906127e0565b6101026102c6565b61014b61018336600461245c565b6102ea565b61014b610196366004612440565b6102f4565b6101606101a9366004612440565b61036c565b6101606103d2565b6101606101c4366004612440565b6103d8565b61014b6101d7366004612440565b610437565b6101606101ea366004612440565b610495565b6101f76104b3565b60405161010f9190612734565b6101606104f8565b61014b61021a3660046124db565b6104fe565b7f000000000000000000000000000000000000000000000000000000000000000090565b61024b6123e2565b506001600160a01b03811660009081526006602090815260409182902082516080810184528154815260018201549281019290925260028101549282019290925260039091015460608201525b919050565b6102a782826108bb565b5050565b6001600160a01b031660009081526006602052604090205490565b7f000000000000000000000000000000000000000000000000000000000000000090565b6102a782826109d5565b6102fc6123e2565b506001600160a01b03811660009081526006602090815260409182902082516080810184528154815260018201549281019290925260028101549282019290925260039091015460608201526103528282610ac4565b600a546040820152600c5460608201526102a78282610d1d565b60006103766123e2565b506001600160a01b038216600090815260066020908152604091829020825160808101845281548152600182015492810183905260028201549381018490526003909101546060820152916103cb9190610dae565b9392505050565b60075490565b60006103e26123e2565b506001600160a01b038216600090815260066020908152604091829020825160808101845281548152600182015492810183905260028201549381019390935260030154606083018190526103cb9190610f31565b61043f6123e2565b506001600160a01b03811660009081526006602090815260409182902082516080810184528154815260018201549281019290925260028101549282019290925260039091015460608201526102a78282610d1d565b6001600160a01b031660009081526006602052604090206001015490565b6104bb61240a565b506040805160c08101825260005481526001546020820152600254918101919091526003546060820152600454608082015260055460a082015290565b60085490565b7f00000000000000000000000000000000000000000000000000000000000000006001600160a01b0316633df06b596040518163ffffffff1660e01b815260040160206040518083038186803b15801561055757600080fd5b505afa15801561056b573d6000803e3d6000fd5b505050506040513d601f19601f8201168201806040525081019061058f91906124bf565b6001600160a01b031663f77c47916040518163ffffffff1660e01b815260040160206040518083038186803b1580156105c757600080fd5b505afa1580156105db573d6000803e3d6000fd5b505050506040513d601f19601f820116820180604052508101906105ff91906124bf565b6001600160a01b03166391d148547f00000000000000000000000000000000000000000000000000000000000000006001600160a01b0316633df06b596040518163ffffffff1660e01b815260040160206040518083038186803b15801561066657600080fd5b505afa15801561067a573d6000803e3d6000fd5b505050506040513d601f19601f8201168201806040525081019061069e91906124bf565b6001600160a01b031663f77c47916040518163ffffffff1660e01b815260040160206040518083038186803b1580156106d657600080fd5b505afa1580156106ea573d6000803e3d6000fd5b505050506040513d601f19601f8201168201806040525081019061070e91906124bf565b6001600160a01b031663ec87621c6040518163ffffffff1660e01b815260040160206040518083038186803b15801561074657600080fd5b505afa15801561075a573d6000803e3d6000fd5b505050506040513d601f19601f8201168201806040525081019061077e91906124a7565b336040518363ffffffff1660e01b815260040161079c92919061257d565b60206040518083038186803b1580156107b457600080fd5b505afa1580156107c8573d6000803e3d6000fd5b505050506040513d601f19601f820116820180604052508101906107ec9190612487565b6108115760405162461bcd60e51b8152600401610808906126f6565b60405180910390fd5b8051600111801590610827575060008160600151115b8015610838575060018160a0015110155b6108545760405162461bcd60e51b815260040161080890612677565b8051600090815560208201516001556040808301516002556060830151600355608083015160045560a0830151600555517fdea57d5dd436931497612044567596798f2599acfc00861392dd6c8466c8e6f1916108b091612778565b60405180910390a150565b600081116108db5760405162461bcd60e51b8152600401610808906125cb565b6108e36123e2565b506001600160a01b0382166000908152600660209081526040918290208251608081018452815480825260018301549382019390935260028201549381019390935260030154606083015282111561094d5760405162461bcd60e51b815260040161080890612658565b6109578382610ac4565b6007546109649083611023565b60075580516109739083611023565b8152600a546040820152600c54606082015261098f8382610d1d565b826001600160a01b03167f700865370ffb2a65a2b0242e6a64b21ac907ed5ecd46c9cffc729c177b2b1c69836040516109c891906127e0565b60405180910390a2505050565b600081116109f55760405162461bcd60e51b8152600401610808906125cb565b6109fd6123e2565b506001600160a01b0382166000908152600660209081526040918290208251608081018452815481526001820154928101929092526002810154928201929092526003909101546060820152610a538382610ac4565b600754610a60908361104b565b6007558051610a6f908361104b565b8152600a546040820152600c546060820152610a8b8382610d1d565b826001600160a01b03167f8b0ed825817a2e696c9a931715af4609fc60e1701f09c89ee7645130e937eb2d836040516109c891906127e0565b6000610ad882602001518360400151610dae565b90506000610aee83602001518460600151610f31565b9050610af8611070565b602083015115610b2357600954610b0f9083611023565b600955600b54610b1f9082611023565b600b555b8115610c55577f00000000000000000000000000000000000000000000000000000000000000006001600160a01b0316636d9b18236040518163ffffffff1660e01b815260040160206040518083038186803b158015610b8257600080fd5b505afa158015610b96573d6000803e3d6000fd5b505050506040513d601f19601f82011682018060405250810190610bba91906124bf565b6001600160a01b031663a9059cbb85846040518363ffffffff1660e01b8152600401610be7929190612564565b602060405180830381600087803b158015610c0157600080fd5b505af1158015610c15573d6000803e3d6000fd5b505050506040513d601f19601f82011682018060405250810190610c399190612487565b610c555760405162461bcd60e51b8152600401610808906126d7565b8015610d175760405163a9059cbb60e01b81526001600160a01b037f0000000000000000000000000000000000000000000000000000000000000000169063a9059cbb90610ca99087908590600401612564565b602060405180830381600087803b158015610cc357600080fd5b505af1158015610cd7573d6000803e3d6000fd5b505050506040513d601f19601f82011682018060405250810190610cfb9190612487565b610d175760405162461bcd60e51b8152600401610808906126d7565b50505050565b602081015115610d3c576020810151600854610d3891611023565b6008555b6000610d478361129a565b8251909150610d569082611503565b60208301819052600854610d699161104b565b600855506001600160a01b0390911660009081526006602090815260409182902083518155908301516001820155908201516002820155606090910151600390910155565b600060085460001415610dc357506000610f2b565b60007f00000000000000000000000000000000000000000000000000000000000000006001600160a01b0316636d9b18236040518163ffffffff1660e01b815260040160206040518083038186803b158015610e1e57600080fd5b505afa158015610e32573d6000803e3d6000fd5b505050506040513d601f19601f82011682018060405250810190610e5691906124bf565b6001600160a01b03166370a08231306040518263ffffffff1660e01b8152600401610e819190612550565b60206040518083038186803b158015610e9957600080fd5b505afa158015610ead573d6000803e3d6000fd5b505050506040513d601f19601f82011682018060405250810190610ed191906124a7565b90506000610eea6009548361102390919063ffffffff16565b90506000610f0f610f066008548461153790919063ffffffff16565b600a549061104b565b9050610f25610f1e8287611023565b8790611569565b93505050505b92915050565b600060085460001415610f4657506000610f2b565b6040516370a0823160e01b81526000906001600160a01b037f000000000000000000000000000000000000000000000000000000000000000016906370a0823190610f95903090600401612550565b60206040518083038186803b158015610fad57600080fd5b505afa158015610fc1573d6000803e3d6000fd5b505050506040513d601f19601f82011682018060405250810190610fe591906124a7565b90506000610ffe600b548361102390919063ffffffff16565b90506000610f0f61101a6008548461153790919063ffffffff16565b600c549061104b565b6000828211156110455760405162461bcd60e51b8152600401610808906125ea565b50900390565b6000828201838110156103cb5760405162461bcd60e51b815260040161080890612594565b60075461107c57611298565b60007f00000000000000000000000000000000000000000000000000000000000000006001600160a01b0316636d9b18236040518163ffffffff1660e01b815260040160206040518083038186803b1580156110d757600080fd5b505afa1580156110eb573d6000803e3d6000fd5b505050506040513d601f19601f8201168201806040525081019061110f91906124bf565b6001600160a01b03166370a08231306040518263ffffffff1660e01b815260040161113a9190612550565b60206040518083038186803b15801561115257600080fd5b505afa158015611166573d6000803e3d6000fd5b505050506040513d601f19601f8201168201806040525081019061118a91906124a7565b905060007f00000000000000000000000000000000000000000000000000000000000000006001600160a01b03166370a08231306040518263ffffffff1660e01b81526004016111da9190612550565b60206040518083038186803b1580156111f257600080fd5b505afa158015611206573d6000803e3d6000fd5b505050506040513d601f19601f8201168201806040525081019061122a91906124a7565b905060006112436009548461102390919063ffffffff16565b9050600061125c600b548461102390919063ffffffff16565b600985905560085490915061127690610f06908490611537565b600a55600b8390556008546112909061101a908390611537565b600c55505050505b565b6000807f00000000000000000000000000000000000000000000000000000000000000006001600160a01b0316634f2bfe5b6040518163ffffffff1660e01b815260040160206040518083038186803b1580156112f657600080fd5b505afa15801561130a573d6000803e3d6000fd5b505050506040513d601f19601f8201168201806040525081019061132e91906124bf565b6001600160a01b03166370a08231846040518263ffffffff1660e01b81526004016113599190612550565b60206040518083038186803b15801561137157600080fd5b505afa158015611385573d6000803e3d6000fd5b505050506040513d601f19601f820116820180604052508101906113a991906124a7565b9050806113c157670de0b6b3a7640000915050610298565b600080546113ce9061159c565b905060006113e060006001015461159c565b905060006113f260006002015461159c565b9050600061140460006004015461159c565b90506000611419670de0b6b3a764000061159c565b60035490915060009061142d9088906115ba565b9050600061143f600f83900b856115f1565b9050600061144f82600f0b611625565b9050600061145f82600f0b611647565b90506000611471600f83900b8961169c565b905060006114908b611487600f8d900b856116cf565b600f0b9061169c565b905060006114ad6114a5600f84900b8a611721565b600f0b611757565b905067ffffffffffffffff8116670de0b6b3a764000081108015906114d457506005548111155b6114f05760405162461bcd60e51b815260040161080890612715565b9f9e505050505050505050505050505050565b60006103cb670de0b6b3a764000061153161151e8686611773565b6002670de0b6b3a76400005b049061104b565b906117ad565b6000600282046115618361153161155a876b033b2e3c9fd0803ce8000000611773565b849061104b565b949350505050565b60006103cb6b033b2e3c9fd0803ce80000006115316115888686611773565b60026b033b2e3c9fd0803ce800000061152a565b6000677fffffffffffffff8211156115b357600080fd5b5060401b90565b6000816115c657600080fd5b60006115d284846117df565b905060016001607f1b036001600160801b03821611156103cb57600080fd5b6000600f82810b9084900b0360016001607f1b0319811280159061161c575060016001607f1b038113155b6103cb57600080fd5b6000600f82900b60016001607f1b0319141561164057600080fd5b5060000390565b6000600160461b82600f0b1261165c57600080fd5b683fffffffffffffffff1982600f0b121561167957506000610298565b610f2b608083600f0b700171547652b82fe1777d0ffda0d23a7d1202901d611929565b6000600f83810b9083900b0160016001607f1b0319811280159061161c575060016001607f1b038113156103cb57600080fd5b600081600f0b600014156116e257600080fd5b600082600f0b604085600f0b901b816116f757fe5b05905060016001607f1b0319811280159061161c575060016001607f1b038113156103cb57600080fd5b6000600f83810b9083900b0260401d60016001607f1b0319811280159061161c575060016001607f1b038113156103cb57600080fd5b60008082600f0b121561176957600080fd5b50600f0b60401d90565b60008261178257506000610f2b565b8282028284828161178f57fe5b04146103cb5760405162461bcd60e51b815260040161080890612696565b60008082116117ce5760405162461bcd60e51b815260040161080890612621565b8183816117d757fe5b049392505050565b6000816117eb57600080fd5b60006001600160c01b0384116118105782604085901b8161180857fe5b049050611915565b60c084811c6401000000008110611829576020918201911c5b62010000811061183b576010918201911c5b610100811061184c576008918201911c5b6010811061185c576004918201911c5b6004811061186c576002918201911c5b6002811061187b576001820191505b60bf820360018603901c6001018260ff0387901b8161189657fe5b0492506001600160801b038311156118ad57600080fd5b608085901c83026001600160801b038616840260c088901c604089901b828110156118d9576001820391505b608084901b929003828110156118f0576001820391505b829003608084901c821461190057fe5b88818161190957fe5b04870196505050505050505b6001600160801b038111156103cb57600080fd5b6000600160461b82600f0b1261193e57600080fd5b683fffffffffffffffff1982600f0b121561195b57506000610298565b6001607f1b60006780000000000000008416600f0b131561198d5770016a09e667f3bcc908b2fb1366ea957d3e0260801c5b60008367400000000000000016600f0b13156119ba577001306fe0a31b7152de8d5a46305c85edec0260801c5b60008367200000000000000016600f0b13156119e7577001172b83c7d517adcdf7c8c50eb14a791f0260801c5b60008367100000000000000016600f0b1315611a145770010b5586cf9890f6298b92b71842a983630260801c5b60008367080000000000000016600f0b1315611a41577001059b0d31585743ae7c548eb68ca417fd0260801c5b60008367040000000000000016600f0b1315611a6e57700102c9a3e778060ee6f7caca4f7a29bde80260801c5b60008367020000000000000016600f0b1315611a9b5770010163da9fb33356d84a66ae336dcdfa3f0260801c5b60008367010000000000000016600f0b1315611ac857700100b1afa5abcbed6129ab13ec11dc95430260801c5b600083668000000000000016600f0b1315611af45770010058c86da1c09ea1ff19d294cf2f679b0260801c5b600083664000000000000016600f0b1315611b20577001002c605e2e8cec506d21bfc89a23a00f0260801c5b600083662000000000000016600f0b1315611b4c57700100162f3904051fa128bca9c55c31e5df0260801c5b600083661000000000000016600f0b1315611b78577001000b175effdc76ba38e31671ca9397250260801c5b600083660800000000000016600f0b1315611ba457700100058ba01fb9f96d6cacd4b180917c3d0260801c5b600083660400000000000016600f0b1315611bd05770010002c5cc37da9491d0985c348c68e7b30260801c5b600083660200000000000016600f0b1315611bfc577001000162e525ee054754457d59952920260260801c5b600083660100000000000016600f0b1315611c285770010000b17255775c040618bf4a4ade83fc0260801c5b6000836580000000000016600f0b1315611c53577001000058b91b5bc9ae2eed81e9b7d4cfab0260801c5b6000836540000000000016600f0b1315611c7e57700100002c5c89d5ec6ca4d7c8acc017b7c90260801c5b6000836520000000000016600f0b1315611ca95770010000162e43f4f831060e02d839a9d16d0260801c5b6000836510000000000016600f0b1315611cd457700100000b1721bcfc99d9f890ea069117630260801c5b6000836508000000000016600f0b1315611cff5770010000058b90cf1e6d97f9ca14dbcc16280260801c5b6000836504000000000016600f0b1315611d2a577001000002c5c863b73f016468f6bac5ca2b0260801c5b6000836502000000000016600f0b1315611d5557700100000162e430e5a18f6119e3c02282a50260801c5b6000836501000000000016600f0b1315611d80577001000000b1721835514b86e6d96efd1bfe0260801c5b60008364800000000016600f0b1315611daa57700100000058b90c0b48c6be5df846c5b2ef0260801c5b60008364400000000016600f0b1315611dd45770010000002c5c8601cc6b9e94213c72737a0260801c5b60008364200000000016600f0b1315611dfe577001000000162e42fff037df38aa2b219f060260801c5b60008364100000000016600f0b1315611e285770010000000b17217fba9c739aa5819f44f90260801c5b60008364080000000016600f0b1315611e52577001000000058b90bfcdee5acd3c1cedc8230260801c5b60008364040000000016600f0b1315611e7c57700100000002c5c85fe31f35a6a30da1be500260801c5b60008364020000000016600f0b1315611ea65770010000000162e42ff0999ce3541b9fffcf0260801c5b60008364010000000016600f0b1315611ed057700100000000b17217f80f4ef5aadda455540260801c5b600083638000000016600f0b1315611ef95770010000000058b90bfbf8479bd5a81b51ad0260801c5b600083634000000016600f0b1315611f22577001000000002c5c85fdf84bd62ae30a74cc0260801c5b600083632000000016600f0b1315611f4b57700100000000162e42fefb2fed257559bdaa0260801c5b600083631000000016600f0b1315611f74577001000000000b17217f7d5a7716bba4a9ae0260801c5b600083630800000016600f0b1315611f9d57700100000000058b90bfbe9ddbac5e109cce0260801c5b600083630400000016600f0b1315611fc65770010000000002c5c85fdf4b15de6f17eb0d0260801c5b600083630200000016600f0b1315611fef577001000000000162e42fefa494f1478fde050260801c5b600083630100000016600f0b13156120185770010000000000b17217f7d20cf927c8e94c0260801c5b6000836280000016600f0b1315612040577001000000000058b90bfbe8f71cb4e4b33d0260801c5b6000836240000016600f0b131561206857700100000000002c5c85fdf477b662b269450260801c5b6000836220000016600f0b13156120905770010000000000162e42fefa3ae53369388c0260801c5b6000836210000016600f0b13156120b857700100000000000b17217f7d1d351a389d400260801c5b6000836208000016600f0b13156120e05770010000000000058b90bfbe8e8b2d3d4ede0260801c5b6000836204000016600f0b1315612108577001000000000002c5c85fdf4741bea6e77e0260801c5b6000836202000016600f0b131561213057700100000000000162e42fefa39fe95583c20260801c5b6000836201000016600f0b1315612158577001000000000000b17217f7d1cfb72b45e10260801c5b60008361800016600f0b131561217f57700100000000000058b90bfbe8e7cc35c3f00260801c5b60008361400016600f0b13156121a65770010000000000002c5c85fdf473e242ea380260801c5b60008361200016600f0b13156121cd577001000000000000162e42fefa39f02b772c0260801c5b60008361100016600f0b13156121f45770010000000000000b17217f7d1cf7d83c1a0260801c5b60008361080016600f0b131561221b577001000000000000058b90bfbe8e7bdcbe2e0260801c5b60008361040016600f0b131561224257700100000000000002c5c85fdf473dea871f0260801c5b60008361020016600f0b13156122695770010000000000000162e42fefa39ef44d910260801c5b60008361010016600f0b131561229057700100000000000000b17217f7d1cf79e9490260801c5b600083608016600f0b13156122b65770010000000000000058b90bfbe8e7bce5440260801c5b600083604016600f0b13156122dc577001000000000000002c5c85fdf473de6eca0260801c5b600083602016600f0b131561230257700100000000000000162e42fefa39ef366f0260801c5b600083601016600f0b1315612328577001000000000000000b17217f7d1cf79afa0260801c5b600083600816600f0b131561234e57700100000000000000058b90bfbe8e7bcd6d0260801c5b600083600416600f0b13156123745770010000000000000002c5c85fdf473de6b20260801c5b600083600216600f0b131561239a577001000000000000000162e42fefa39ef3580260801c5b600083600116600f0b13156123c05770010000000000000000b17217f7d1cf79ab0260801c5b600f83810b60401d603f03900b1c60016001607f1b03811115610f2b57600080fd5b6040518060800160405280600081526020016000815260200160008152602001600081525090565b6040518060c001604052806000815260200160008152602001600081526020016000815260200160008152602001600081525090565b600060208284031215612451578081fd5b81356103cb816127e9565b6000806040838503121561246e578081fd5b8235612479816127e9565b946020939093013593505050565b600060208284031215612498578081fd5b815180151581146103cb578182fd5b6000602082840312156124b8578081fd5b5051919050565b6000602082840312156124d0578081fd5b81516103cb816127e9565b600060c082840312156124ec578081fd5b60405160c0810181811067ffffffffffffffff8211171561250b578283fd5b8060405250823581526020830135602082015260408301356040820152606083013560608201526080830135608082015260a083013560a08201528091505092915050565b6001600160a01b0391909116815260200190565b6001600160a01b03929092168252602082015260400190565b9182526001600160a01b0316602082015260400190565b6020808252601b908201527f536166654d6174683a206164646974696f6e206f766572666c6f770000000000604082015260600190565b6020808252600590820152644c4d31303160d81b604082015260600190565b6020808252601e908201527f536166654d6174683a207375627472616374696f6e206f766572666c6f770000604082015260600190565b6020808252601a908201527f536166654d6174683a206469766973696f6e206279207a65726f000000000000604082015260600190565b602080825260059082015264262698981960d91b604082015260600190565b60208082526005908201526413134c0c0d60da1b604082015260600190565b60208082526021908201527f536166654d6174683a206d756c7469706c69636174696f6e206f766572666c6f6040820152607760f81b606082015260800190565b60208082526005908201526404c4d3130360dc1b604082015260600190565b60208082526005908201526404c4d3031360dc1b604082015260600190565b6020808252600590820152644c4d31303360d81b604082015260600190565b600060c082019050825182526020830151602083015260408301516040830152606083015160608301526080830151608083015260a083015160a083015292915050565b815481526001820154602082015260028201546040820152600382015460608201526004820154608082015260059091015460a082015260c00190565b8151815260208083015190820152604080830151908201526060918201519181019190915260800190565b90815260200190565b6001600160a01b03811681146127fe57600080fd5b5056fea264697066735822122097cd054bb6facebc869eb6ddd7f1cf0a4bf72b94f2880d1ece44930fb28748e964736f6c634300060c0033",
  "linkReferences": {},
  "deployedLinkReferences": {}
}