{"abi":[{"type":"function","name":"MANAGEMENT_FEE_HARD_CAP","inputs":[],"outputs":[{"name":"","type":"uint256","internalType":"uint256"}],"stateMutability":"view"},{"type":"function","name":"MAX_BPS","inputs":[],"outputs":[{"name":"","type":"uint256","internalType":"uint256"}],"stateMutability":"view"},{"type":"function","name":"PERFORMANCE_FEE_HARD_CAP","inputs":[],"outputs":[{"name":"","type":"uint256","internalType":"uint256"}],"stateMutability":"view"},{"type":"function","name":"SECS_PER_YEAR","inputs":[],"outputs":[{"name":"","type":"uint256","internalType":"uint256"}],"stateMutability":"view"},{"type":"function","name":"WITHDRAWAL_FEE_HARD_CAP","inputs":[],"outputs":[{"name":"","type":"uint256","internalType":"uint256"}],"stateMutability":"view"},{"type":"function","name":"additionalTokensEarned","inputs":[{"name":"","type":"address","internalType":"address"}],"outputs":[{"name":"","type":"uint256","internalType":"uint256"}],"stateMutability":"view"},{"type":"function","name":"allowance","inputs":[{"name":"owner","type":"address","internalType":"address"},{"name":"spender","type":"address","internalType":"address"}],"outputs":[{"name":"","type":"uint256","internalType":"uint256"}],"stateMutability":"view"},{"type":"function","name":"approve","inputs":[{"name":"spender","type":"address","internalType":"address"},{"name":"amount","type":"uint256","internalType":"uint256"}],"outputs":[{"name":"","type":"bool","internalType":"bool"}],"stateMutability":"nonpayable"},{"type":"function","name":"assetsAtLastHarvest","inputs":[],"outputs":[{"name":"","type":"uint256","internalType":"uint256"}],"stateMutability":"view"},{"type":"function","name":"available","inputs":[],"outputs":[{"name":"","type":"uint256","internalType":"uint256"}],"stateMutability":"view"},{"type":"function","name":"badgerTree","inputs":[],"outputs":[{"name":"","type":"address","internalType":"address"}],"stateMutability":"view"},{"type":"function","name":"balance","inputs":[],"outputs":[{"name":"","type":"uint256","internalType":"uint256"}],"stateMutability":"view"},{"type":"function","name":"balanceOf","inputs":[{"name":"account","type":"address","internalType":"address"}],"outputs":[{"name":"","type":"uint256","internalType":"uint256"}],"stateMutability":"view"},{"type":"function","name":"decimals","inputs":[],"outputs":[{"name":"","type":"uint8","internalType":"uint8"}],"stateMutability":"view"},{"type":"function","name":"decreaseAllowance","inputs":[{"name":"spender","type":"address","internalType":"address"},{"name":"subtractedValue","type":"uint256","internalType":"uint256"}],"outputs":[{"name":"","type":"bool","internalType":"bool"}],"stateMutability":"nonpayable"},{"type":"function","name":"deposit","inputs":[{"name":"_amount","type":"uint256","internalType":"uint256"},{"name":"proof","type":"bytes32[]","internalType":"bytes32[]"}],"outputs":[],"stateMutability":"nonpayable"},{"type":"function","name":"deposit","inputs":[{"name":"_amount","type":"uint256","internalType":"uint256"}],"outputs":[],"stateMutability":"nonpayable"},{"type":"function","name":"depositAll","inputs":[{"name":"proof","type":"bytes32[]","internalType":"bytes32[]"}],"outputs":[],"stateMutability":"nonpayable"},{"type":"function","name":"depositAll","inputs":[],"outputs":[],"stateMutability":"nonpayable"},{"type":"function","name":"depositFor","inputs":[{"name":"_recipient","type":"address","internalType":"address"},{"name":"_amount","type":"uint256","internalType":"uint256"}],"outputs":[],"stateMutability":"nonpayable"},{"type":"function","name":"depositFor","inputs":[{"name":"_recipient","type":"address","internalType":"address"},{"name":"_amount","type":"uint256","internalType":"uint256"},{"name":"proof","type":"bytes32[]","internalType":"bytes32[]"}],"outputs":[],"stateMutability":"nonpayable"},{"type":"function","name":"earn","inputs":[],"outputs":[],"stateMutability":"nonpayable"},{"type":"function","name":"emitNonProtectedToken","inputs":[{"name":"_token","type":"address","internalType":"address"}],"outputs":[],"stateMutability":"nonpayable"},{"type":"function","name":"getPricePerFullShare","inputs":[],"outputs":[{"name":"","type":"uint256","internalType":"uint256"}],"stateMutability":"view"},{"type":"function","name":"governance","inputs":[],"outputs":[{"name":"","type":"address","internalType":"address"}],"stateMutability":"view"},{"type":"function","name":"guardian","inputs":[],"outputs":[{"name":"","type":"address","internalType":"address"}],"stateMutability":"view"},{"type":"function","name":"guestList","inputs":[],"outputs":[{"name":"","type":"address","internalType":"contract IBadgerGuestlist"}],"stateMutability":"view"},{"type":"function","name":"increaseAllowance","inputs":[{"name":"spender","type":"address","internalType":"address"},{"name":"addedValue","type":"uint256","internalType":"uint256"}],"outputs":[{"name":"","type":"bool","internalType":"bool"}],"stateMutability":"nonpayable"},{"type":"function","name":"initialize","inputs":[{"name":"_token","type":"address","internalType":"address"},{"name":"_governance","type":"address","internalType":"address"},{"name":"_keeper","type":"address","internalType":"address"},{"name":"_guardian","type":"address","internalType":"address"},{"name":"_treasury","type":"address","internalType":"address"},{"name":"_strategist","type":"address","internalType":"address"},{"name":"_badgerTree","type":"address","internalType":"address"},{"name":"_vesting","type":"address","internalType":"address"},{"name":"_name","type":"string","internalType":"string"},{"name":"_symbol","type":"string","internalType":"string"},{"name":"_feeConfig","type":"uint256[4]","internalType":"uint256[4]"}],"outputs":[],"stateMutability":"nonpayable"},{"type":"function","name":"keeper","inputs":[],"outputs":[{"name":"","type":"address","internalType":"address"}],"stateMutability":"view"},{"type":"function","name":"lastAdditionalTokenAmount","inputs":[{"name":"","type":"address","internalType":"address"}],"outputs":[{"name":"","type":"uint256","internalType":"uint256"}],"stateMutability":"view"},{"type":"function","name":"lastHarvestAmount","inputs":[],"outputs":[{"name":"","type":"uint256","internalType":"uint256"}],"stateMutability":"view"},{"type":"function","name":"lastHarvestedAt","inputs":[],"outputs":[{"name":"","type":"uint256","internalType":"uint256"}],"stateMutability":"view"},{"type":"function","name":"lifeTimeEarned","inputs":[],"outputs":[{"name":"","type":"uint256","internalType":"uint256"}],"stateMutability":"view"},{"type":"function","name":"managementFee","inputs":[],"outputs":[{"name":"","type":"uint256","internalType":"uint256"}],"stateMutability":"view"},{"type":"function","name":"maxManagementFee","inputs":[],"outputs":[{"name":"","type":"uint256","internalType":"uint256"}],"stateMutability":"view"},{"type":"function","name":"maxPerformanceFee","inputs":[],"outputs":[{"name":"","type":"uint256","internalType":"uint256"}],"stateMutability":"view"},{"type":"function","name":"maxWithdrawalFee","inputs":[],"outputs":[{"name":"","type":"uint256","internalType":"uint256"}],"stateMutability":"view"},{"type":"function","name":"name","inputs":[],"outputs":[{"name":"","type":"string","internalType":"string"}],"stateMutability":"view"},{"type":"function","name":"pause","inputs":[],"outputs":[],"stateMutability":"nonpayable"},{"type":"function","name":"pauseDeposits","inputs":[],"outputs":[],"stateMutability":"nonpayable"},{"type":"function","name":"paused","inputs":[],"outputs":[{"name":"","type":"bool","internalType":"bool"}],"stateMutability":"view"},{"type":"function","name":"pausedDeposit","inputs":[],"outputs":[{"name":"","type":"bool","internalType":"bool"}],"stateMutability":"view"},{"type":"function","name":"performanceFeeGovernance","inputs":[],"outputs":[{"name":"","type":"uint256","internalType":"uint256"}],"stateMutability":"view"},{"type":"function","name":"performanceFeeStrategist","inputs":[],"outputs":[{"name":"","type":"uint256","internalType":"uint256"}],"stateMutability":"view"},{"type":"function","name":"reportAdditionalToken","inputs":[{"name":"_token","type":"address","internalType":"address"}],"outputs":[],"stateMutability":"nonpayable"},{"type":"function","name":"reportHarvest","inputs":[{"name":"_harvestedAmount","type":"uint256","internalType":"uint256"}],"outputs":[],"stateMutability":"nonpayable"},{"type":"function","name":"setGovernance","inputs":[{"name":"_governance","type":"address","internalType":"address"}],"outputs":[],"stateMutability":"nonpayable"},{"type":"function","name":"setGuardian","inputs":[{"name":"_guardian","type":"address","internalType":"address"}],"outputs":[],"stateMutability":"nonpayable"},{"type":"function","name":"setGuestList","inputs":[{"name":"_guestList","type":"address","internalType":"address"}],"outputs":[],"stateMutability":"nonpayable"},{"type":"function","name":"setKeeper","inputs":[{"name":"_keeper","type":"address","internalType":"address"}],"outputs":[],"stateMutability":"nonpayable"},{"type":"function","name":"setManagementFee","inputs":[{"name":"_fees","type":"uint256","internalType":"uint256"}],"outputs":[],"stateMutability":"nonpayable"},{"type":"function","name":"setMaxManagementFee","inputs":[{"name":"_fees","type":"uint256","internalType":"uint256"}],"outputs":[],"stateMutability":"nonpayable"},{"type":"function","name":"setMaxPerformanceFee","inputs":[{"name":"_fees","type":"uint256","internalType":"uint256"}],"outputs":[],"stateMutability":"nonpayable"},{"type":"function","name":"setMaxWithdrawalFee","inputs":[{"name":"_fees","type":"uint256","internalType":"uint256"}],"outputs":[],"stateMutability":"nonpayable"},{"type":"function","name":"setPerformanceFeeGovernance","inputs":[{"name":"_performanceFeeGovernance","type":"uint256","internalType":"uint256"}],"outputs":[],"stateMutability":"nonpayable"},{"type":"function","name":"setPerformanceFeeStrategist","inputs":[{"name":"_performanceFeeStrategist","type":"uint256","internalType":"uint256"}],"outputs":[],"stateMutability":"nonpayable"},{"type":"function","name":"setStrategist","inputs":[{"name":"_strategist","type":"address","internalType":"address"}],"outputs":[],"stateMutability":"nonpayable"},{"type":"function","name":"setStrategy","inputs":[{"name":"_strategy","type":"address","internalType":"address"}],"outputs":[],"stateMutability":"nonpayable"},{"type":"function","name":"setToEarnBps","inputs":[{"name":"_newToEarnBps","type":"uint256","internalType":"uint256"}],"outputs":[],"stateMutability":"nonpayable"},{"type":"function","name":"setTreasury","inputs":[{"name":"_treasury","type":"address","internalType":"address"}],"outputs":[],"stateMutability":"nonpayable"},{"type":"function","name":"setVesting","inputs":[{"name":"_vesting","type":"address","internalType":"address"}],"outputs":[],"stateMutability":"nonpayable"},{"type":"function","name":"setWithdrawalFee","inputs":[{"name":"_withdrawalFee","type":"uint256","internalType":"uint256"}],"outputs":[],"stateMutability":"nonpayable"},{"type":"function","name":"strategist","inputs":[],"outputs":[{"name":"","type":"address","internalType":"address"}],"stateMutability":"view"},{"type":"function","name":"strategy","inputs":[],"outputs":[{"name":"","type":"address","internalType":"address"}],"stateMutability":"view"},{"type":"function","name":"sweepExtraToken","inputs":[{"name":"_token","type":"address","internalType":"address"}],"outputs":[],"stateMutability":"nonpayable"},{"type":"function","name":"symbol","inputs":[],"outputs":[{"name":"","type":"string","internalType":"string"}],"stateMutability":"view"},{"type":"function","name":"toEarnBps","inputs":[],"outputs":[{"name":"","type":"uint256","internalType":"uint256"}],"stateMutability":"view"},{"type":"function","name":"token","inputs":[],"outputs":[{"name":"","type":"address","internalType":"contract IERC20Upgradeable"}],"stateMutability":"view"},{"type":"function","name":"totalSupply","inputs":[],"outputs":[{"name":"","type":"uint256","internalType":"uint256"}],"stateMutability":"view"},{"type":"function","name":"transfer","inputs":[{"name":"to","type":"address","internalType":"address"},{"name":"amount","type":"uint256","internalType":"uint256"}],"outputs":[{"name":"","type":"bool","internalType":"bool"}],"stateMutability":"nonpayable"},{"type":"function","name":"transferFrom","inputs":[{"name":"from","type":"address","internalType":"address"},{"name":"to","type":"address","internalType":"address"},{"name":"amount","type":"uint256","internalType":"uint256"}],"outputs":[{"name":"","type":"bool","internalType":"bool"}],"stateMutability":"nonpayable"},{"type":"function","name":"treasury","inputs":[],"outputs":[{"name":"","type":"address","internalType":"address"}],"stateMutability":"view"},{"type":"function","name":"unpause","inputs":[],"outputs":[],"stateMutability":"nonpayable"},{"type":"function","name":"unpauseDeposits","inputs":[],"outputs":[],"stateMutability":"nonpayable"},{"type":"function","name":"version","inputs":[],"outputs":[{"name":"","type":"string","internalType":"string"}],"stateMutability":"pure"},{"type":"function","name":"vesting","inputs":[],"outputs":[{"name":"","type":"address","internalType":"address"}],"stateMutability":"view"},{"type":"function","name":"withdraw","inputs":[{"name":"_shares","type":"uint256","internalType":"uint256"}],"outputs":[],"stateMutability":"nonpayable"},{"type":"function","name":"withdrawAll","inputs":[],"outputs":[],"stateMutability":"nonpayable"},{"type":"function","name":"withdrawToVault","inputs":[],"outputs":[],"stateMutability":"nonpayable"},{"type":"function","name":"withdrawalFee","inputs":[],"outputs":[{"name":"","type":"uint256","internalType":"uint256"}],"stateMutability":"view"},{"type":"event","name":"Approval","inputs":[{"name":"owner","type":"address","indexed":true,"internalType":"address"},{"name":"spender","type":"address","indexed":true,"internalType":"address"},{"name":"value","type":"uint256","indexed":false,"internalType":"uint256"}],"anonymous":false},{"type":"event","name":"Harvested","inputs":[{"name":"token","type":"address","indexed":true,"internalType":"address"},{"name":"amount","type":"uint256","indexed":false,"internalType":"uint256"},{"name":"blockNumber","type":"uint256","indexed":true,"internalType":"uint256"},{"name":"timestamp","type":"uint256","indexed":false,"internalType":"uint256"}],"anonymous":false},{"type":"event","name":"PauseDeposits","inputs":[{"name":"pausedBy","type":"address","indexed":true,"internalType":"address"}],"anonymous":false},{"type":"event","name":"Paused","inputs":[{"name":"account","type":"address","indexed":false,"internalType":"address"}],"anonymous":false},{"type":"event","name":"SetGuardian","inputs":[{"name":"newGuardian","type":"address","indexed":true,"internalType":"address"}],"anonymous":false},{"type":"event","name":"SetGuestList","inputs":[{"name":"newGuestList","type":"address","indexed":true,"internalType":"address"}],"anonymous":false},{"type":"event","name":"SetManagementFee","inputs":[{"name":"newManagementFee","type":"uint256","indexed":false,"internalType":"uint256"}],"anonymous":false},{"type":"event","name":"SetMaxManagementFee","inputs":[{"name":"newMaxManagementFee","type":"uint256","indexed":false,"internalType":"uint256"}],"anonymous":false},{"type":"event","name":"SetMaxPerformanceFee","inputs":[{"name":"newMaxPerformanceFee","type":"uint256","indexed":false,"internalType":"uint256"}],"anonymous":false},{"type":"event","name":"SetMaxWithdrawalFee","inputs":[{"name":"newMaxWithdrawalFee","type":"uint256","indexed":false,"internalType":"uint256"}],"anonymous":false},{"type":"event","name":"SetPerformanceFeeGovernance","inputs":[{"name":"newPerformanceFeeGovernance","type":"uint256","indexed":false,"internalType":"uint256"}],"anonymous":false},{"type":"event","name":"SetPerformanceFeeStrategist","inputs":[{"name":"newPerformanceFeeStrategist","type":"uint256","indexed":false,"internalType":"uint256"}],"anonymous":false},{"type":"event","name":"SetStrategy","inputs":[{"name":"newStrategy","type":"address","indexed":true,"internalType":"address"}],"anonymous":false},{"type":"event","name":"SetToEarnBps","inputs":[{"name":"newEarnToBps","type":"uint256","indexed":false,"internalType":"uint256"}],"anonymous":false},{"type":"event","name":"SetTreasury","inputs":[{"name":"newTreasury","type":"address","indexed":true,"internalType":"address"}],"anonymous":false},{"type":"event","name":"SetVesting","inputs":[{"name":"newVesting","type":"address","indexed":true,"internalType":"address"}],"anonymous":false},{"type":"event","name":"SetWithdrawalFee","inputs":[{"name":"newWithdrawalFee","type":"uint256","indexed":false,"internalType":"uint256"}],"anonymous":false},{"type":"event","name":"Transfer","inputs":[{"name":"from","type":"address","indexed":true,"internalType":"address"},{"name":"to","type":"address","indexed":true,"internalType":"address"},{"name":"value","type":"uint256","indexed":false,"internalType":"uint256"}],"anonymous":false},{"type":"event","name":"TreeDistribution","inputs":[{"name":"token","type":"address","indexed":true,"internalType":"address"},{"name":"amount","type":"uint256","indexed":false,"internalType":"uint256"},{"name":"blockNumber","type":"uint256","indexed":true,"internalType":"uint256"},{"name":"timestamp","type":"uint256","indexed":false,"internalType":"uint256"}],"anonymous":false},{"type":"event","name":"UnpauseDeposits","inputs":[{"name":"pausedBy","type":"address","indexed":true,"internalType":"address"}],"anonymous":false},{"type":"event","name":"Unpaused","inputs":[{"name":"account","type":"address","indexed":false,"internalType":"address"}],"anonymous":false}],"bytecode":{"object":"0x608060405234801561001057600080fd5b50617d6480620000216000396000f3fe608060405234801561001057600080fd5b506004361061048b5760003560e01c80638456cb5911610262578063c783ee9111610151578063e782786c116100ce578063f55462f411610092578063f55462f414610d2a578063f9f44f4e14610d46578063fbdfdb4414610d64578063fc0c546a14610d82578063fd967f4714610da0578063fe56e23214610dbe5761048b565b8063e782786c14610c98578063eb4442e214610cb6578063ec1c0a9914610cd2578063ecb9da7714610cf0578063f0f4426014610d0e5761048b565b8063dab7b06e11610115578063dab7b06e14610c08578063dc7da29914610c24578063dd62ed3e14610c40578063de5f626814610c70578063e06bacb714610c7a5761048b565b8063c783ee9114610b7a578063c7b9d53014610baa578063d389800f14610bc6578063d6c2cadd14610bd0578063da04299414610bec5761048b565b8063a457c2d7116101df578063ac1e5025116101a3578063ac1e502514610aea578063aced166114610b06578063b69ef8a814610b24578063b6b55f2514610b42578063bad91bdb14610b5e5761048b565b8063a457c2d714610a32578063a6f7f5d614610a62578063a8c62e7614610a80578063a9059cbb14610a9e578063ab033ea914610ace5761048b565b80638a0dac4a116102265780638a0dac4a146109a25780638bc7e8c4146109be57806395d89b41146109dc578063a0fd55e4146109fa578063a234985e14610a165761048b565b80638456cb591461094a5780638457213a1461095457806384f2272114610970578063853828b61461097a57806389483695146109845761048b565b806344c63eec1161037e57806361d027b3116102fb57806370a08231116102bf57806370a08231146108a4578063748747e6146108d457806377c7b8fc146108f05780637ca077231461090e5780637dbe79201461092c5761048b565b806361d027b31461082657806362be3cde1461084457806363d8882a1461086057806364b032751461086a5780636f6ff3bc146108885761048b565b8063504a164711610342578063504a1647146107905780635265ed61146107ae57806354fd4d50146107cc5780635aa6e675146107ea5780635c975abb146108085761048b565b806344c63eec146106fc578063452a93201461071a57806346d558751461073857806348a0d754146107565780634c4c909b146107745761048b565b80632170121b1161040c578063313ce567116103d0578063313ce5671461066c57806333a100ca1461068a57806335ac79c3146106a657806339509351146106c25780633f4ba83a146106f25761048b565b80632170121b146105b657806323b872dd146105e657806328998af0146106165780632e1a7d4d146106345780632f4f21e2146106505761048b565b8063130e928411610453578063130e92841461052257806315b18ddd1461054057806318160ddd1461055e5780631992a0881461057c5780631fe4a686146105985761048b565b8063021919801461049057806306fdde031461049a578063095ea7b3146104b85780630b313206146104e85780630b5b78eb14610506575b600080fd5b610498610dda565b005b6104a2610e42565b6040516104af9190615b4e565b60405180910390f35b6104d260048036038101906104cd9190615c18565b610ed4565b6040516104df9190615c73565b60405180910390f35b6104f0610ef7565b6040516104fd9190615c9d565b60405180910390f35b610520600480360381019061051b9190615cb8565b610efe565b005b61052a610fd5565b6040516105379190615c9d565b60405180910390f35b610548610fda565b6040516105559190615c9d565b60405180910390f35b610566610fe1565b6040516105739190615c9d565b60405180910390f35b61059660048036038101906105919190615ce5565b610feb565b005b6105a0611079565b6040516105ad9190615d21565b60405180910390f35b6105d060048036038101906105cb9190615cb8565b61109f565b6040516105dd9190615c9d565b60405180910390f35b61060060048036038101906105fb9190615d3c565b6110b8565b60405161060d9190615c73565b60405180910390f35b61061e6110e7565b60405161062b9190615c9d565b60405180910390f35b61064e60048036038101906106499190615ce5565b6110ef565b005b61066a60048036038101906106659190615c18565b611143565b005b6106746111e3565b6040516106819190615dab565b60405180910390f35b6106a4600480360381019061069f9190615cb8565b6111ec565b005b6106c060048036038101906106bb9190615f44565b611460565b005b6106dc60048036038101906106d79190615c18565b6114b6565b6040516106e99190615c73565b60405180910390f35b6106fa6114ed565b005b6107046114ff565b6040516107119190615d21565b60405180910390f35b610722611526565b60405161072f9190615d21565b60405180910390f35b61074061154d565b60405161074d9190615fff565b60405180910390f35b61075e611573565b60405161076b9190615c9d565b60405180910390f35b61078e60048036038101906107899190615cb8565b611631565b005b610798611a54565b6040516107a59190615c9d565b60405180910390f35b6107b6611a5b565b6040516107c39190615c9d565b60405180910390f35b6107d4611a62565b6040516107e19190615b4e565b60405180910390f35b6107f2611a9f565b6040516107ff9190615d21565b60405180910390f35b610810611ac5565b60405161081d9190615c73565b60405180910390f35b61082e611adc565b60405161083b9190615d21565b60405180910390f35b61085e60048036038101906108599190615ce5565b611b03565b005b610868611bda565b005b610872611c42565b60405161087f9190615c9d565b60405180910390f35b6108a2600480360381019061089d9190615cb8565b611c47565b005b6108be60048036038101906108b99190615cb8565b611d47565b6040516108cb9190615c9d565b60405180910390f35b6108ee60048036038101906108e99190615cb8565b611d90565b005b6108f8611ddc565b6040516109059190615c9d565b60405180910390f35b610916611e30565b6040516109239190615c9d565b60405180910390f35b610934611e36565b6040516109419190615c9d565b60405180910390f35b610952611e3d565b005b61096e60048036038101906109699190615ce5565b611e4f565b005b610978611f27565b005b610982611fb4565b005b61098c61200f565b6040516109999190615d21565b60405180910390f35b6109bc60048036038101906109b79190615cb8565b612036565b005b6109c6612136565b6040516109d39190615c9d565b60405180910390f35b6109e461213d565b6040516109f19190615b4e565b60405180910390f35b610a146004803603810190610a0f9190615cb8565b6121cf565b005b610a306004803603810190610a2b9190615cb8565b612268565b005b610a4c6004803603810190610a479190615c18565b612458565b604051610a599190615c73565b60405180910390f35b610a6a6124cf565b604051610a779190615c9d565b60405180910390f35b610a886124d6565b604051610a959190615d21565b60405180910390f35b610ab86004803603810190610ab39190615c18565b6124fd565b604051610ac59190615c73565b60405180910390f35b610ae86004803603810190610ae39190615cb8565b612520565b005b610b046004803603810190610aff9190615ce5565b61256c565b005b610b0e612644565b604051610b1b9190615d21565b60405180910390f35b610b2c61266a565b604051610b399190615c9d565b60405180910390f35b610b5c6004803603810190610b579190615ce5565b61270d565b005b610b786004803603810190610b73919061601a565b6127ab565b005b610b946004803603810190610b8f9190615cb8565b61289b565b604051610ba19190615c9d565b60405180910390f35b610bc46004803603810190610bbf9190615cb8565b6128b4565b005b610bce612900565b005b610bea6004803603810190610be59190616063565b612a5a565b005b610c066004803603810190610c019190616238565b612ab2565b005b610c226004803603810190610c1d9190615ce5565b61344e565b005b610c3e6004803603810190610c399190615ce5565b6134dd565b005b610c5a6004803603810190610c559190616364565b613628565b604051610c679190615c9d565b60405180910390f35b610c786136af565b005b610c826137e7565b604051610c8f9190615c73565b60405180910390f35b610ca06137fa565b604051610cad9190615c9d565b60405180910390f35b610cd06004803603810190610ccb9190615ce5565b613801565b005b610cda61388f565b604051610ce79190615c9d565b60405180910390f35b610cf8613896565b604051610d059190615c9d565b60405180910390f35b610d286004803603810190610d239190615cb8565b61389d565b005b610d446004803603810190610d3f9190615ce5565b6139e5565b005b610d4e613abd565b604051610d5b9190615c9d565b60405180910390f35b610d6c613ac4565b604051610d799190615c9d565b60405180910390f35b610d8a613acb565b604051610d9791906163c5565b60405180910390f35b610da8613af1565b604051610db59190615c9d565b60405180910390f35b610dd86004803603810190610dd39190615ce5565b613af7565b005b610de2613bcf565b600160ff60146101000a81548160ff0219169083151502179055503373ffffffffffffffffffffffffffffffffffffffff167fd7a915337e28a7bf3a13770590fb6701cbeb9d0f25a71e84d106b10a8e6a4ab160405160405180910390a2565b606060368054610e519061640f565b80601f0160208091040260200160405190810160405280929190818152602001828054610e7d9061640f565b8015610eca5780601f10610e9f57610100808354040283529160200191610eca565b820191906000526020600020905b815481529060010190602001808311610ead57829003601f168201915b5050505050905090565b600080610edf613cba565b9050610eec818585613cc2565b600191505092915050565b6101115481565b610f06611ac5565b15610f46576040517f08c379a0000000000000000000000000000000000000000000000000000000008152600401610f3d9061648d565b60405180910390fd5b610f4e613e8d565b8060ff60006101000a81548173ffffffffffffffffffffffffffffffffffffffff021916908373ffffffffffffffffffffffffffffffffffffffff1602179055508073ffffffffffffffffffffffffffffffffffffffff167fcf4ebfb08408f66bc4a7a6945a6842089eeee844a2cc7615e8cf517ce520f3da60405160405180910390a250565b60c881565b61010b5481565b6000603554905090565b610ff3613f77565b60c8811115611037576040517f08c379a000000000000000000000000000000000000000000000000000000000815260040161102e906164f9565b60405180910390fd5b80610110819055507fa254b26086a7ddac6321f8f7b7ae1301e48e0734fc6ad56fb6a4eb58dbd8c49c8160405161106e9190615c9d565b60405180910390a150565b606660009054906101000a900473ffffffffffffffffffffffffffffffffffffffff1681565b6101096020528060005260406000206000915090505481565b6000806110c3613cba565b90506110d0858285614009565b6110db858585614095565b60019150509392505050565b6301e1855881565b6110f7611ac5565b15611137576040517f08c379a000000000000000000000000000000000000000000000000000000000815260040161112e9061648d565b60405180910390fd5b61114081614319565b50565b61114b611ac5565b1561118b576040517f08c379a00000000000000000000000000000000000000000000000000000000081526004016111829061648d565b60405180910390fd5b6111df8282600067ffffffffffffffff8111156111ab576111aa615dcb565b5b6040519080825280602002602001820160405280156111d95781602001602082028036833780820191505090505b5061476b565b5050565b60006012905090565b6111f4611ac5565b15611234576040517f08c379a000000000000000000000000000000000000000000000000000000000815260040161122b9061648d565b60405180910390fd5b61123c613f77565b600073ffffffffffffffffffffffffffffffffffffffff168173ffffffffffffffffffffffffffffffffffffffff1614156112ac576040517f08c379a00000000000000000000000000000000000000000000000000000000081526004016112a390616565565b60405180910390fd5b600073ffffffffffffffffffffffffffffffffffffffff1661010060009054906101000a900473ffffffffffffffffffffffffffffffffffffffff1673ffffffffffffffffffffffffffffffffffffffff16146113d857600061010060009054906101000a900473ffffffffffffffffffffffffffffffffffffffff1673ffffffffffffffffffffffffffffffffffffffff1663722713f76040518163ffffffff1660e01b8152600401602060405180830381865afa158015611373573d6000803e3d6000fd5b505050506040513d601f19601f82011682018060405250810190611397919061659a565b146113d7576040517f08c379a00000000000000000000000000000000000000000000000000000000081526004016113ce90616639565b60405180910390fd5b5b8061010060006101000a81548173ffffffffffffffffffffffffffffffffffffffff021916908373ffffffffffffffffffffffffffffffffffffffff1602179055508073ffffffffffffffffffffffffffffffffffffffff167f3412691e1ea2503d6eec15597247048016213c19646b73d4320a20c790b67ee260405160405180910390a250565b611468611ac5565b156114a8576040517f08c379a000000000000000000000000000000000000000000000000000000000815260040161149f9061648d565b60405180910390fd5b6114b282826148b0565b5050565b6000806114c1613cba565b90506114e28185856114d38589613628565b6114dd9190616688565b613cc2565b600191505092915050565b6114f5613f77565b6114fd6148bf565b565b61010460009054906101000a900473ffffffffffffffffffffffffffffffffffffffff1681565b61010160009054906101000a900473ffffffffffffffffffffffffffffffffffffffff1681565b60ff60009054906101000a900473ffffffffffffffffffffffffffffffffffffffff1681565b60006127106101125460fe60009054906101000a900473ffffffffffffffffffffffffffffffffffffffff1673ffffffffffffffffffffffffffffffffffffffff166370a08231306040518263ffffffff1660e01b81526004016115d79190615d21565b602060405180830381865afa1580156115f4573d6000803e3d6000fd5b505050506040513d601f19601f82011682018060405250810190611618919061659a565b61162291906166de565b61162c9190616767565b905090565b600260cc541415611677576040517f08c379a000000000000000000000000000000000000000000000000000000000815260040161166e906167e4565b60405180910390fd5b600260cc81905550611687614961565b8073ffffffffffffffffffffffffffffffffffffffff1660fe60009054906101000a900473ffffffffffffffffffffffffffffffffffffffff1673ffffffffffffffffffffffffffffffffffffffff161415611718576040517f08c379a000000000000000000000000000000000000000000000000000000000815260040161170f90616850565b60405180910390fd5b60008173ffffffffffffffffffffffffffffffffffffffff166370a08231306040518263ffffffff1660e01b81526004016117539190615d21565b602060405180830381865afa158015611770573d6000803e3d6000fd5b505050506040513d601f19601f82011682018060405250810190611794919061659a565b90508061010960008473ffffffffffffffffffffffffffffffffffffffff1673ffffffffffffffffffffffffffffffffffffffff168152602001908152602001600020546117e29190616688565b61010960008473ffffffffffffffffffffffffffffffffffffffff1673ffffffffffffffffffffffffffffffffffffffff168152602001908152602001600020819055508061010a60008473ffffffffffffffffffffffffffffffffffffffff1673ffffffffffffffffffffffffffffffffffffffff16815260200190815260200160002081905550600061187a8261010b546149f4565b9050600061188b8361010c546149f4565b90506118db61010260009054906101000a900473ffffffffffffffffffffffffffffffffffffffff16838673ffffffffffffffffffffffffffffffffffffffff16614a2f9092919063ffffffff16565b611928606660009054906101000a900473ffffffffffffffffffffffffffffffffffffffff16828673ffffffffffffffffffffffffffffffffffffffff16614a2f9092919063ffffffff16565b60008473ffffffffffffffffffffffffffffffffffffffff166370a08231306040518263ffffffff1660e01b81526004016119639190615d21565b602060405180830381865afa158015611980573d6000803e3d6000fd5b505050506040513d601f19601f820116820180604052508101906119a4919061659a565b90506119f461010360009054906101000a900473ffffffffffffffffffffffffffffffffffffffff16828773ffffffffffffffffffffffffffffffffffffffff16614a2f9092919063ffffffff16565b438573ffffffffffffffffffffffffffffffffffffffff167f17cc18c044bdfa5f365fb0f6140ffbaa76843012681aedb2015580693fa49b948342604051611a3d929190616870565b60405180910390a350505050600160cc8190555050565b61010c5481565b61010f5481565b60606040518060400160405280600381526020017f312e350000000000000000000000000000000000000000000000000000000000815250905090565b606560009054906101000a900473ffffffffffffffffffffffffffffffffffffffff1681565b6000609a60009054906101000a900460ff16905090565b61010260009054906101000a900473ffffffffffffffffffffffffffffffffffffffff1681565b611b0b611ac5565b15611b4b576040517f08c379a0000000000000000000000000000000000000000000000000000000008152600401611b429061648d565b60405180910390fd5b611b53613e8d565b612710811115611b98576040517f08c379a0000000000000000000000000000000000000000000000000000000008152600401611b8f906168e5565b60405180910390fd5b80610112819055507f5cc7e39e46826190c353c144fe457f6621996ec0f604b3d78e3ac26fd1b4bde281604051611bcf9190615c9d565b60405180910390a150565b611be2613f77565b600060ff60146101000a81548160ff0219169083151502179055503373ffffffffffffffffffffffffffffffffffffffff167f136ece421d83ae8c5fe0d9b95b96b35315050bfc3cf21cb5751128f683eb59be60405160405180910390a2565b60c881565b611c4f613f77565b600073ffffffffffffffffffffffffffffffffffffffff168173ffffffffffffffffffffffffffffffffffffffff161415611cbf576040517f08c379a0000000000000000000000000000000000000000000000000000000008152600401611cb690616951565b60405180910390fd5b8061010460006101000a81548173ffffffffffffffffffffffffffffffffffffffff021916908373ffffffffffffffffffffffffffffffffffffffff1602179055508073ffffffffffffffffffffffffffffffffffffffff167f2a30d19b71664191f89776ac1803e993bde24724c26f7ee6c86060a115a60c7a60405160405180910390a250565b6000603360008373ffffffffffffffffffffffffffffffffffffffff1673ffffffffffffffffffffffffffffffffffffffff168152602001908152602001600020549050919050565b611d98613f77565b80606760006101000a81548173ffffffffffffffffffffffffffffffffffffffff021916908373ffffffffffffffffffffffffffffffffffffffff16021790555050565b600080611de7610fe1565b1415611dfd57670de0b6b3a76400009050611e2d565b611e05610fe1565b670de0b6b3a7640000611e1661266a565b611e2091906166de565b611e2a9190616767565b90505b90565b610bb881565b6101075481565b611e45613bcf565b611e4d614ab5565b565b611e57611ac5565b15611e97576040517f08c379a0000000000000000000000000000000000000000000000000000000008152600401611e8e9061648d565b60405180910390fd5b611e9f613e8d565b61010f54811115611ee5576040517f08c379a0000000000000000000000000000000000000000000000000000000008152600401611edc906169e3565b60405180910390fd5b8061010b819055507f1776ab2b6ca2ecf6879162cd3f7f99594a9d5b67ac64d0d41e63f1e804969ef281604051611f1c9190615c9d565b60405180910390a150565b611f2f613e8d565b61010060009054906101000a900473ffffffffffffffffffffffffffffffffffffffff1673ffffffffffffffffffffffffffffffffffffffff166384f227216040518163ffffffff1660e01b8152600401600060405180830381600087803b158015611f9a57600080fd5b505af1158015611fae573d6000803e3d6000fd5b50505050565b611fbc611ac5565b15611ffc576040517f08c379a0000000000000000000000000000000000000000000000000000000008152600401611ff39061648d565b60405180910390fd5b61200d61200833611d47565b614319565b565b61010360009054906101000a900473ffffffffffffffffffffffffffffffffffffffff1681565b61203e613f77565b600073ffffffffffffffffffffffffffffffffffffffff168173ffffffffffffffffffffffffffffffffffffffff1614156120ae576040517f08c379a00000000000000000000000000000000000000000000000000000000081526004016120a590616951565b60405180910390fd5b8061010160006101000a81548173ffffffffffffffffffffffffffffffffffffffff021916908373ffffffffffffffffffffffffffffffffffffffff1602179055508073ffffffffffffffffffffffffffffffffffffffff167f31845eceb9cde510c7e8b37f76301c688feb70bc9653aa4c28a3734999840fd860405160405180910390a250565b61010d5481565b60606037805461214c9061640f565b80601f01602080910402602001604051908101604052809291908181526020018280546121789061640f565b80156121c55780601f1061219a576101008083540402835291602001916121c5565b820191906000526020600020905b8154815290600101906020018083116121a857829003601f168201915b5050505050905090565b6121d7613e8d565b61010060009054906101000a900473ffffffffffffffffffffffffffffffffffffffff1673ffffffffffffffffffffffffffffffffffffffff1663a0fd55e4826040518263ffffffff1660e01b81526004016122339190615d21565b600060405180830381600087803b15801561224d57600080fd5b505af1158015612261573d6000803e3d6000fd5b5050505050565b612270613e8d565b8073ffffffffffffffffffffffffffffffffffffffff1660fe60009054906101000a900473ffffffffffffffffffffffffffffffffffffffff1673ffffffffffffffffffffffffffffffffffffffff161415612301576040517f08c379a00000000000000000000000000000000000000000000000000000000081526004016122f890616850565b60405180910390fd5b61010060009054906101000a900473ffffffffffffffffffffffffffffffffffffffff1673ffffffffffffffffffffffffffffffffffffffff16631bd43be3826040518263ffffffff1660e01b815260040161235d9190615d21565b600060405180830381600087803b15801561237757600080fd5b505af115801561238b573d6000803e3d6000fd5b50505050612455606560009054906101000a900473ffffffffffffffffffffffffffffffffffffffff168273ffffffffffffffffffffffffffffffffffffffff166370a08231306040518263ffffffff1660e01b81526004016123ee9190615d21565b602060405180830381865afa15801561240b573d6000803e3d6000fd5b505050506040513d601f19601f8201168201806040525081019061242f919061659a565b8373ffffffffffffffffffffffffffffffffffffffff16614a2f9092919063ffffffff16565b50565b600080612463613cba565b905060006124718286613628565b9050838110156124b6576040517f08c379a00000000000000000000000000000000000000000000000000000000081526004016124ad90616a75565b60405180910390fd5b6124c38286868403613cc2565b60019250505092915050565b61010e5481565b61010060009054906101000a900473ffffffffffffffffffffffffffffffffffffffff1681565b600080612508613cba565b9050612515818585614095565b600191505092915050565b612528613f77565b80606560006101000a81548173ffffffffffffffffffffffffffffffffffffffff021916908373ffffffffffffffffffffffffffffffffffffffff16021790555050565b612574611ac5565b156125b4576040517f08c379a00000000000000000000000000000000000000000000000000000000081526004016125ab9061648d565b60405180910390fd5b6125bc613e8d565b61011054811115612602576040517f08c379a00000000000000000000000000000000000000000000000000000000081526004016125f990616ae1565b60405180910390fd5b8061010d819055507f3aa4413905e8f015896ec5880bdde24088ccb19b578f9fcf6800354d5320d4af816040516126399190615c9d565b60405180910390a150565b606760009054906101000a900473ffffffffffffffffffffffffffffffffffffffff1681565b600060fe60009054906101000a900473ffffffffffffffffffffffffffffffffffffffff1673ffffffffffffffffffffffffffffffffffffffff166370a08231306040518263ffffffff1660e01b81526004016126c79190615d21565b602060405180830381865afa1580156126e4573d6000803e3d6000fd5b505050506040513d601f19601f82011682018060405250810190612708919061659a565b905090565b612715611ac5565b15612755576040517f08c379a000000000000000000000000000000000000000000000000000000000815260040161274c9061648d565b60405180910390fd5b6127a881600067ffffffffffffffff81111561277457612773615dcb565b5b6040519080825280602002602001820160405280156127a25781602001602082028036833780820191505090505b506148b0565b50565b6127b3611ac5565b156127f3576040517f08c379a00000000000000000000000000000000000000000000000000000000081526004016127ea9061648d565b60405180910390fd5b61289860fe60009054906101000a900473ffffffffffffffffffffffffffffffffffffffff1673ffffffffffffffffffffffffffffffffffffffff166370a08231336040518263ffffffff1660e01b81526004016128519190615d21565b602060405180830381865afa15801561286e573d6000803e3d6000fd5b505050506040513d601f19601f82011682018060405250810190612892919061659a565b826148b0565b50565b61010a6020528060005260406000206000915090505481565b6128bc613f77565b80606660006101000a81548173ffffffffffffffffffffffffffffffffffffffff021916908373ffffffffffffffffffffffffffffffffffffffff16021790555050565b60ff60149054906101000a900460ff1615612950576040517f08c379a000000000000000000000000000000000000000000000000000000000815260040161294790616b4d565b60405180910390fd5b612958614b58565b6000612962611573565b90506129d461010060009054906101000a900473ffffffffffffffffffffffffffffffffffffffff168260fe60009054906101000a900473ffffffffffffffffffffffffffffffffffffffff1673ffffffffffffffffffffffffffffffffffffffff16614a2f9092919063ffffffff16565b61010060009054906101000a900473ffffffffffffffffffffffffffffffffffffffff1673ffffffffffffffffffffffffffffffffffffffff1663d389800f6040518163ffffffff1660e01b8152600401600060405180830381600087803b158015612a3f57600080fd5b505af1158015612a53573d6000803e3d6000fd5b5050505050565b612a62611ac5565b15612aa2576040517f08c379a0000000000000000000000000000000000000000000000000000000008152600401612a999061648d565b60405180910390fd5b612aad83838361476b565b505050565b600060019054906101000a900460ff16612ada5760008054906101000a900460ff1615612ae3565b612ae2614c42565b5b612b22576040517f08c379a0000000000000000000000000000000000000000000000000000000008152600401612b1990616bdf565b60405180910390fd5b60008060019054906101000a900460ff161590508015612b72576001600060016101000a81548160ff02191690831515021790555060016000806101000a81548160ff0219169083151502179055505b612b7a611ac5565b15612bba576040517f08c379a0000000000000000000000000000000000000000000000000000000008152600401612bb19061648d565b60405180910390fd5b600073ffffffffffffffffffffffffffffffffffffffff168c73ffffffffffffffffffffffffffffffffffffffff161415612bf457600080fd5b600073ffffffffffffffffffffffffffffffffffffffff168b73ffffffffffffffffffffffffffffffffffffffff161415612c2e57600080fd5b600073ffffffffffffffffffffffffffffffffffffffff168a73ffffffffffffffffffffffffffffffffffffffff161415612c6857600080fd5b600073ffffffffffffffffffffffffffffffffffffffff168973ffffffffffffffffffffffffffffffffffffffff161415612ca257600080fd5b600073ffffffffffffffffffffffffffffffffffffffff168873ffffffffffffffffffffffffffffffffffffffff161415612cdc57600080fd5b600073ffffffffffffffffffffffffffffffffffffffff168773ffffffffffffffffffffffffffffffffffffffff161415612d1657600080fd5b600073ffffffffffffffffffffffffffffffffffffffff168673ffffffffffffffffffffffffffffffffffffffff161415612d5057600080fd5b600073ffffffffffffffffffffffffffffffffffffffff168573ffffffffffffffffffffffffffffffffffffffff161415612d8a57600080fd5b610bb882600060048110612da157612da0616bff565b5b60200201511115612de7576040517f08c379a0000000000000000000000000000000000000000000000000000000008152600401612dde90616ca0565b60405180910390fd5b610bb882600160048110612dfe57612dfd616bff565b5b60200201511115612e44576040517f08c379a0000000000000000000000000000000000000000000000000000000008152600401612e3b90616d32565b60405180910390fd5b60c882600260048110612e5a57612e59616bff565b5b60200201511115612ea0576040517f08c379a0000000000000000000000000000000000000000000000000000000008152600401612e97906164f9565b60405180910390fd5b60c882600360048110612eb657612eb5616bff565b5b60200201511115612efc576040517f08c379a0000000000000000000000000000000000000000000000000000000008152600401612ef390616d9e565b60405180910390fd5b60608060008e90507fc5d2460186f7233c927e7db2dcc703c0e500b653ca82273b7bfad8045d85a47087604051602001612f369190616dfa565b6040516020818303038152906040528051906020012014612f5957869250613026565b6040518060400160405280600781526020017f5374616b656420000000000000000000000000000000000000000000000000008152508173ffffffffffffffffffffffffffffffffffffffff166306fdde036040518163ffffffff1660e01b8152600401600060405180830381865afa158015612fda573d6000803e3d6000fd5b505050506040513d6000823e3d601f19601f820116820180604052508101906130039190616e81565b604051602001613014929190616eca565b60405160208183030381529060405292505b7fc5d2460186f7233c927e7db2dcc703c0e500b653ca82273b7bfad8045d85a470866040516020016130589190616dfa565b604051602081830303815290604052805190602001201461307b57859150613148565b6040518060400160405280600181526020017f78000000000000000000000000000000000000000000000000000000000000008152508173ffffffffffffffffffffffffffffffffffffffff166395d89b416040518163ffffffff1660e01b8152600401600060405180830381865afa1580156130fc573d6000803e3d6000fd5b505050506040513d6000823e3d601f19601f820116820180604052508101906131259190616e81565b604051602001613136929190616eca565b60405160208183030381529060405291505b6131528383614c53565b61315a614cb0565b613162614d09565b8e60fe60006101000a81548173ffffffffffffffffffffffffffffffffffffffff021916908373ffffffffffffffffffffffffffffffffffffffff1602179055508d606560006101000a81548173ffffffffffffffffffffffffffffffffffffffff021916908373ffffffffffffffffffffffffffffffffffffffff1602179055508a61010260006101000a81548173ffffffffffffffffffffffffffffffffffffffff021916908373ffffffffffffffffffffffffffffffffffffffff16021790555089606660006101000a81548173ffffffffffffffffffffffffffffffffffffffff021916908373ffffffffffffffffffffffffffffffffffffffff1602179055508c606760006101000a81548173ffffffffffffffffffffffffffffffffffffffff021916908373ffffffffffffffffffffffffffffffffffffffff1602179055508b61010160006101000a81548173ffffffffffffffffffffffffffffffffffffffff021916908373ffffffffffffffffffffffffffffffffffffffff1602179055508861010360006101000a81548173ffffffffffffffffffffffffffffffffffffffff021916908373ffffffffffffffffffffffffffffffffffffffff1602179055508761010460006101000a81548173ffffffffffffffffffffffffffffffffffffffff021916908373ffffffffffffffffffffffffffffffffffffffff16021790555042610106819055508460006004811061338a57613389616bff565b5b602002015161010b81905550846001600481106133aa576133a9616bff565b5b602002015161010c81905550846002600481106133ca576133c9616bff565b5b602002015161010d81905550846003600481106133ea576133e9616bff565b5b602002015161010e81905550610bb861010f8190555060c86101108190555060c86101118190555061251c6101128190555050505080156134405760008060016101000a81548160ff0219169083151502179055505b505050505050505050505050565b613456613f77565b610bb881111561349b576040517f08c379a000000000000000000000000000000000000000000000000000000000815260040161349290616d32565b60405180910390fd5b8061010f819055507fd7fabec26d79f18c91fcbf04b6e1650fcd90cd4f7d6c389feeca8339c012f9bb816040516134d29190615c9d565b60405180910390a150565b600260cc541415613523576040517f08c379a000000000000000000000000000000000000000000000000000000000815260040161351a906167e4565b60405180910390fd5b600260cc81905550613533614961565b600042905060008261354361266a565b61354d9190616eee565b90506135598383614d62565b82610107819055506000811461357657806101088190555061358a565b6000831415613589576000610108819055505b5b82610105546135999190616688565b6101058190555081610106819055504360fe60009054906101000a900473ffffffffffffffffffffffffffffffffffffffff1673ffffffffffffffffffffffffffffffffffffffff167fe48bba143e2a0b557fa6f3234bd6ffc704518cc98c7de6a2385549fae27d1b758542604051613613929190616870565b60405180910390a35050600160cc8190555050565b6000603460008473ffffffffffffffffffffffffffffffffffffffff1673ffffffffffffffffffffffffffffffffffffffff16815260200190815260200160002060008373ffffffffffffffffffffffffffffffffffffffff1673ffffffffffffffffffffffffffffffffffffffff16815260200190815260200160002054905092915050565b6136b7611ac5565b156136f7576040517f08c379a00000000000000000000000000000000000000000000000000000000081526004016136ee9061648d565b60405180910390fd5b6137e560fe60009054906101000a900473ffffffffffffffffffffffffffffffffffffffff1673ffffffffffffffffffffffffffffffffffffffff166370a08231336040518263ffffffff1660e01b81526004016137559190615d21565b602060405180830381865afa158015613772573d6000803e3d6000fd5b505050506040513d601f19601f82011682018060405250810190613796919061659a565b600067ffffffffffffffff8111156137b1576137b0615dcb565b5b6040519080825280602002602001820160405280156137df5781602001602082028036833780820191505090505b506148b0565b565b60ff60149054906101000a900460ff1681565b6101085481565b613809613f77565b60c881111561384d576040517f08c379a000000000000000000000000000000000000000000000000000000000815260040161384490616d9e565b60405180910390fd5b80610111819055507f4c7b8194b874abd9829fc99a7fd17528dd31a043b15b067e806b9aed5e2febb3816040516138849190615c9d565b60405180910390a150565b6101105481565b6101065481565b6138a5611ac5565b156138e5576040517f08c379a00000000000000000000000000000000000000000000000000000000081526004016138dc9061648d565b60405180910390fd5b6138ed613f77565b600073ffffffffffffffffffffffffffffffffffffffff168173ffffffffffffffffffffffffffffffffffffffff16141561395d576040517f08c379a000000000000000000000000000000000000000000000000000000000815260040161395490616565565b60405180910390fd5b8061010260006101000a81548173ffffffffffffffffffffffffffffffffffffffff021916908373ffffffffffffffffffffffffffffffffffffffff1602179055508073ffffffffffffffffffffffffffffffffffffffff167fcb7ef3e545f5cdb893f5c568ba710fe08f336375a2d9fd66e161033f8fc09ef360405160405180910390a250565b6139ed611ac5565b15613a2d576040517f08c379a0000000000000000000000000000000000000000000000000000000008152600401613a249061648d565b60405180910390fd5b613a35613e8d565b61010f54811115613a7b576040517f08c379a0000000000000000000000000000000000000000000000000000000008152600401613a7290616f94565b60405180910390fd5b8061010c819055507fa2b496c086c66c1966a950920059fb82fdb25b562982c79b2aa490fde65f647b81604051613ab29190615c9d565b60405180910390a150565b6101055481565b6101125481565b60fe60009054906101000a900473ffffffffffffffffffffffffffffffffffffffff1681565b61271081565b613aff611ac5565b15613b3f576040517f08c379a0000000000000000000000000000000000000000000000000000000008152600401613b369061648d565b60405180910390fd5b613b47613e8d565b61011154811115613b8d576040517f08c379a0000000000000000000000000000000000000000000000000000000008152600401613b8490617000565b60405180910390fd5b8061010e819055507fd87632b1c6ebfa21acbca0e3279b3cf6385a377cb8fda51e5b866baa6e6012ab81604051613bc49190615c9d565b60405180910390a150565b61010160009054906101000a900473ffffffffffffffffffffffffffffffffffffffff1673ffffffffffffffffffffffffffffffffffffffff163373ffffffffffffffffffffffffffffffffffffffff161480613c795750606560009054906101000a900473ffffffffffffffffffffffffffffffffffffffff1673ffffffffffffffffffffffffffffffffffffffff163373ffffffffffffffffffffffffffffffffffffffff16145b613cb8576040517f08c379a0000000000000000000000000000000000000000000000000000000008152600401613caf9061706c565b60405180910390fd5b565b600033905090565b600073ffffffffffffffffffffffffffffffffffffffff168373ffffffffffffffffffffffffffffffffffffffff161415613d32576040517f08c379a0000000000000000000000000000000000000000000000000000000008152600401613d29906170fe565b60405180910390fd5b600073ffffffffffffffffffffffffffffffffffffffff168273ffffffffffffffffffffffffffffffffffffffff161415613da2576040517f08c379a0000000000000000000000000000000000000000000000000000000008152600401613d9990617190565b60405180910390fd5b80603460008573ffffffffffffffffffffffffffffffffffffffff1673ffffffffffffffffffffffffffffffffffffffff16815260200190815260200160002060008473ffffffffffffffffffffffffffffffffffffffff1673ffffffffffffffffffffffffffffffffffffffff168152602001908152602001600020819055508173ffffffffffffffffffffffffffffffffffffffff168373ffffffffffffffffffffffffffffffffffffffff167f8c5be1e5ebec7d5bd14f71427d1e84f3dd0314c0f7b2291e5b200ac8c7c3b92583604051613e809190615c9d565b60405180910390a3505050565b606660009054906101000a900473ffffffffffffffffffffffffffffffffffffffff1673ffffffffffffffffffffffffffffffffffffffff163373ffffffffffffffffffffffffffffffffffffffff161480613f365750606560009054906101000a900473ffffffffffffffffffffffffffffffffffffffff1673ffffffffffffffffffffffffffffffffffffffff163373ffffffffffffffffffffffffffffffffffffffff16145b613f75576040517f08c379a0000000000000000000000000000000000000000000000000000000008152600401613f6c906171fc565b60405180910390fd5b565b606560009054906101000a900473ffffffffffffffffffffffffffffffffffffffff1673ffffffffffffffffffffffffffffffffffffffff163373ffffffffffffffffffffffffffffffffffffffff1614614007576040517f08c379a0000000000000000000000000000000000000000000000000000000008152600401613ffe90617268565b60405180910390fd5b565b60006140158484613628565b90507fffffffffffffffffffffffffffffffffffffffffffffffffffffffffffffffff811461408f5781811015614081576040517f08c379a0000000000000000000000000000000000000000000000000000000008152600401614078906172d4565b60405180910390fd5b61408e8484848403613cc2565b5b50505050565b600073ffffffffffffffffffffffffffffffffffffffff168373ffffffffffffffffffffffffffffffffffffffff161415614105576040517f08c379a00000000000000000000000000000000000000000000000000000000081526004016140fc90617366565b60405180910390fd5b600073ffffffffffffffffffffffffffffffffffffffff168273ffffffffffffffffffffffffffffffffffffffff161415614175576040517f08c379a000000000000000000000000000000000000000000000000000000000815260040161416c906173f8565b60405180910390fd5b614180838383614ef4565b6000603360008573ffffffffffffffffffffffffffffffffffffffff1673ffffffffffffffffffffffffffffffffffffffff16815260200190815260200160002054905081811015614207576040517f08c379a00000000000000000000000000000000000000000000000000000000081526004016141fe9061748a565b60405180910390fd5b818103603360008673ffffffffffffffffffffffffffffffffffffffff1673ffffffffffffffffffffffffffffffffffffffff1681526020019081526020016000208190555081603360008573ffffffffffffffffffffffffffffffffffffffff1673ffffffffffffffffffffffffffffffffffffffff168152602001908152602001600020600082825461429c9190616688565b925050819055508273ffffffffffffffffffffffffffffffffffffffff168473ffffffffffffffffffffffffffffffffffffffff167fddf252ad1be2c89b69c2b068fc378daa952ba7f163c4a11628f55a4df523b3ef846040516143009190615c9d565b60405180910390a3614313848484614ef9565b50505050565b600260cc54141561435f576040517f08c379a0000000000000000000000000000000000000000000000000000000008152600401614356906167e4565b60405180910390fd5b600260cc8190555060008114156143ab576040517f08c379a00000000000000000000000000000000000000000000000000000000081526004016143a2906174f6565b60405180910390fd5b60006143b5610fe1565b826143be61266a565b6143c891906166de565b6143d29190616767565b90506143de3383614efe565b600060fe60009054906101000a900473ffffffffffffffffffffffffffffffffffffffff1673ffffffffffffffffffffffffffffffffffffffff166370a08231306040518263ffffffff1660e01b815260040161443b9190615d21565b602060405180830381865afa158015614458573d6000803e3d6000fd5b505050506040513d601f19601f8201168201806040525081019061447c919061659a565b9050818110156145ef57600081836144949190616eee565b905061010060009054906101000a900473ffffffffffffffffffffffffffffffffffffffff1673ffffffffffffffffffffffffffffffffffffffff16632e1a7d4d826040518263ffffffff1660e01b81526004016144f29190615c9d565b600060405180830381600087803b15801561450c57600080fd5b505af1158015614520573d6000803e3d6000fd5b50505050600060fe60009054906101000a900473ffffffffffffffffffffffffffffffffffffffff1673ffffffffffffffffffffffffffffffffffffffff166370a08231306040518263ffffffff1660e01b81526004016145819190615d21565b602060405180830381865afa15801561459e573d6000803e3d6000fd5b505050506040513d601f19601f820116820180604052508101906145c2919061659a565b9050600083826145d29190616eee565b9050828110156145eb5780846145e89190616688565b94505b5050505b60006145fe8361010d546149f4565b90506000818461460e9190616eee565b905061010460009054906101000a900473ffffffffffffffffffffffffffffffffffffffff1673ffffffffffffffffffffffffffffffffffffffff16638bc6eff93383426040518463ffffffff1660e01b815260040161467093929190617516565b600060405180830381600087803b15801561468a57600080fd5b505af115801561469e573d6000803e3d6000fd5b5050505061471261010460009054906101000a900473ffffffffffffffffffffffffffffffffffffffff168260fe60009054906101000a900473ffffffffffffffffffffffffffffffffffffffff1673ffffffffffffffffffffffffffffffffffffffff16614a2f9092919063ffffffff16565b600082111561475c5761475b61010260009054906101000a900473ffffffffffffffffffffffffffffffffffffffff16838461474c61266a565b6147569190616eee565b6150d7565b5b50505050600160cc8190555050565b600073ffffffffffffffffffffffffffffffffffffffff1660ff60009054906101000a900473ffffffffffffffffffffffffffffffffffffffff1673ffffffffffffffffffffffffffffffffffffffff16146148a15760ff60009054906101000a900473ffffffffffffffffffffffffffffffffffffffff1673ffffffffffffffffffffffffffffffffffffffff16631a9ee26f8484846040518463ffffffff1660e01b81526004016148209392919061760b565b602060405180830381865afa15801561483d573d6000803e3d6000fd5b505050506040513d601f19601f820116820180604052508101906148619190617675565b6148a0576040517f08c379a0000000000000000000000000000000000000000000000000000000008152600401614897906176ee565b60405180910390fd5b5b6148ab8383615121565b505050565b6148bb33838361476b565b5050565b6148c7611ac5565b614906576040517f08c379a00000000000000000000000000000000000000000000000000000000081526004016148fd9061775a565b60405180910390fd5b6000609a60006101000a81548160ff0219169083151502179055507f5db9ee0a495bf2e6ff9c91a7834c1ba4fdd244a5e8aa4e537bd38aeae4b073aa61494a613cba565b6040516149579190615d21565b60405180910390a1565b61010060009054906101000a900473ffffffffffffffffffffffffffffffffffffffff1673ffffffffffffffffffffffffffffffffffffffff163373ffffffffffffffffffffffffffffffffffffffff16146149f2576040517f08c379a00000000000000000000000000000000000000000000000000000000081526004016149e9906177c6565b60405180910390fd5b565b600080821415614a075760009050614a29565b60006127108385614a1891906166de565b614a229190616767565b9050809150505b92915050565b614ab08363a9059cbb60e01b8484604051602401614a4e9291906177e6565b604051602081830303815290604052907bffffffffffffffffffffffffffffffffffffffffffffffffffffffff19166020820180517bffffffffffffffffffffffffffffffffffffffffffffffffffffffff8381831617835250505050615433565b505050565b614abd611ac5565b15614afd576040517f08c379a0000000000000000000000000000000000000000000000000000000008152600401614af49061648d565b60405180910390fd5b6001609a60006101000a81548160ff0219169083151502179055507f62e78cea01bee320cd4e420270b5ea74000d11b0c9f74754ebdbfc544b05a258614b41613cba565b604051614b4e9190615d21565b60405180910390a1565b606760009054906101000a900473ffffffffffffffffffffffffffffffffffffffff1673ffffffffffffffffffffffffffffffffffffffff163373ffffffffffffffffffffffffffffffffffffffff161480614c015750606560009054906101000a900473ffffffffffffffffffffffffffffffffffffffff1673ffffffffffffffffffffffffffffffffffffffff163373ffffffffffffffffffffffffffffffffffffffff16145b614c40576040517f08c379a0000000000000000000000000000000000000000000000000000000008152600401614c379061785b565b60405180910390fd5b565b6000614c4d306154fa565b15905090565b600060019054906101000a900460ff16614ca2576040517f08c379a0000000000000000000000000000000000000000000000000000000008152600401614c99906178ed565b60405180910390fd5b614cac828261551d565b5050565b600060019054906101000a900460ff16614cff576040517f08c379a0000000000000000000000000000000000000000000000000000000008152600401614cf6906178ed565b60405180910390fd5b614d0761559e565b565b600060019054906101000a900460ff16614d58576040517f08c379a0000000000000000000000000000000000000000000000000000000008152600401614d4f906178ed565b60405180910390fd5b614d6061560a565b565b600080614d6e84615663565b9150915060006101065484614d839190616eee565b905060008061010e5411614d98576000614de1565b6127106301e185588388614daa61266a565b614db49190616eee565b61010e54614dc291906166de565b614dcc91906166de565b614dd69190616767565b614de09190616767565b5b905060008185614df19190616688565b905060008482614dff61266a565b614e099190616eee565b614e139190616eee565b905060008214614e4c57614e4b61010260009054906101000a900473ffffffffffffffffffffffffffffffffffffffff1683836150d7565b5b60008514158015614eac5750600073ffffffffffffffffffffffffffffffffffffffff16606660009054906101000a900473ffffffffffffffffffffffffffffffffffffffff1673ffffffffffffffffffffffffffffffffffffffff1614155b15614eea57614ee9606660009054906101000a900473ffffffffffffffffffffffffffffffffffffffff16868484614ee49190616688565b6150d7565b5b5050505050505050565b505050565b505050565b600073ffffffffffffffffffffffffffffffffffffffff168273ffffffffffffffffffffffffffffffffffffffff161415614f6e576040517f08c379a0000000000000000000000000000000000000000000000000000000008152600401614f659061797f565b60405180910390fd5b614f7a82600083614ef4565b6000603360008473ffffffffffffffffffffffffffffffffffffffff1673ffffffffffffffffffffffffffffffffffffffff16815260200190815260200160002054905081811015615001576040517f08c379a0000000000000000000000000000000000000000000000000000000008152600401614ff890617a11565b60405180910390fd5b818103603360008573ffffffffffffffffffffffffffffffffffffffff1673ffffffffffffffffffffffffffffffffffffffff1681526020019081526020016000208190555081603560008282546150599190616eee565b92505081905550600073ffffffffffffffffffffffffffffffffffffffff168373ffffffffffffffffffffffffffffffffffffffff167fddf252ad1be2c89b69c2b068fc378daa952ba7f163c4a11628f55a4df523b3ef846040516150be9190615c9d565b60405180910390a36150d283600084614ef9565b505050565b6000806150e2610fe1565b14156150f057829050615111565b816150f9610fe1565b8461510491906166de565b61510e9190616767565b90505b61511b8482615695565b50505050565b600260cc541415615167576040517f08c379a000000000000000000000000000000000000000000000000000000000815260040161515e906167e4565b60405180910390fd5b600260cc81905550600073ffffffffffffffffffffffffffffffffffffffff168273ffffffffffffffffffffffffffffffffffffffff1614156151df576040517f08c379a00000000000000000000000000000000000000000000000000000000081526004016151d690616565565b60405180910390fd5b6000811415615223576040517f08c379a000000000000000000000000000000000000000000000000000000000815260040161521a90617a7d565b60405180910390fd5b60ff60149054906101000a900460ff1615615273576040517f08c379a000000000000000000000000000000000000000000000000000000000815260040161526a90616b4d565b60405180910390fd5b600061527d61266a565b9050600060fe60009054906101000a900473ffffffffffffffffffffffffffffffffffffffff1673ffffffffffffffffffffffffffffffffffffffff166370a08231306040518263ffffffff1660e01b81526004016152dc9190615d21565b602060405180830381865afa1580156152f9573d6000803e3d6000fd5b505050506040513d601f19601f8201168201806040525081019061531d919061659a565b905061536e33308560fe60009054906101000a900473ffffffffffffffffffffffffffffffffffffffff1673ffffffffffffffffffffffffffffffffffffffff166157f6909392919063ffffffff16565b600060fe60009054906101000a900473ffffffffffffffffffffffffffffffffffffffff1673ffffffffffffffffffffffffffffffffffffffff166370a08231306040518263ffffffff1660e01b81526004016153cb9190615d21565b602060405180830381865afa1580156153e8573d6000803e3d6000fd5b505050506040513d601f19601f8201168201806040525081019061540c919061659a565b905061542485838361541e9190616eee565b856150d7565b505050600160cc819055505050565b6000615495826040518060400160405280602081526020017f5361666545524332303a206c6f772d6c6576656c2063616c6c206661696c65648152508573ffffffffffffffffffffffffffffffffffffffff1661587f9092919063ffffffff16565b90506000815111156154f557808060200190518101906154b59190617675565b6154f4576040517f08c379a00000000000000000000000000000000000000000000000000000000081526004016154eb90617b0f565b60405180910390fd5b5b505050565b6000808273ffffffffffffffffffffffffffffffffffffffff163b119050919050565b600060019054906101000a900460ff1661556c576040517f08c379a0000000000000000000000000000000000000000000000000000000008152600401615563906178ed565b60405180910390fd5b8160369080519060200190615582929190615a12565b508060379080519060200190615599929190615a12565b505050565b600060019054906101000a900460ff166155ed576040517f08c379a00000000000000000000000000000000000000000000000000000000081526004016155e4906178ed565b60405180910390fd5b6000609a60006101000a81548160ff021916908315150217905550565b600060019054906101000a900460ff16615659576040517f08c379a0000000000000000000000000000000000000000000000000000000008152600401615650906178ed565b60405180910390fd5b600160cc81905550565b60008060006156758461010b546149f4565b905060006156868561010c546149f4565b90508181935093505050915091565b600073ffffffffffffffffffffffffffffffffffffffff168273ffffffffffffffffffffffffffffffffffffffff161415615705576040517f08c379a00000000000000000000000000000000000000000000000000000000081526004016156fc90617b7b565b60405180910390fd5b61571160008383614ef4565b80603560008282546157239190616688565b9250508190555080603360008473ffffffffffffffffffffffffffffffffffffffff1673ffffffffffffffffffffffffffffffffffffffff16815260200190815260200160002060008282546157799190616688565b925050819055508173ffffffffffffffffffffffffffffffffffffffff16600073ffffffffffffffffffffffffffffffffffffffff167fddf252ad1be2c89b69c2b068fc378daa952ba7f163c4a11628f55a4df523b3ef836040516157de9190615c9d565b60405180910390a36157f260008383614ef9565b5050565b615879846323b872dd60e01b85858560405160240161581793929190617b9b565b604051602081830303815290604052907bffffffffffffffffffffffffffffffffffffffffffffffffffffffff19166020820180517bffffffffffffffffffffffffffffffffffffffffffffffffffffffff8381831617835250505050615433565b50505050565b606061588e8484600085615897565b90509392505050565b6060824710156158dc576040517f08c379a00000000000000000000000000000000000000000000000000000000081526004016158d390617c44565b60405180910390fd5b6158e5856154fa565b615924576040517f08c379a000000000000000000000000000000000000000000000000000000000815260040161591b90617cb0565b60405180910390fd5b6000808673ffffffffffffffffffffffffffffffffffffffff16858760405161594d9190617d17565b60006040518083038185875af1925050503d806000811461598a576040519150601f19603f3d011682016040523d82523d6000602084013e61598f565b606091505b509150915061599f8282866159ab565b92505050949350505050565b606083156159bb57829050615a0b565b6000835111156159ce5782518084602001fd5b816040517f08c379a0000000000000000000000000000000000000000000000000000000008152600401615a029190615b4e565b60405180910390fd5b9392505050565b828054615a1e9061640f565b90600052602060002090601f016020900481019282615a405760008555615a87565b82601f10615a5957805160ff1916838001178555615a87565b82800160010185558215615a87579182015b82811115615a86578251825591602001919060010190615a6b565b5b509050615a949190615a98565b5090565b5b80821115615ab1576000816000905550600101615a99565b5090565b600081519050919050565b600082825260208201905092915050565b60005b83811015615aef578082015181840152602081019050615ad4565b83811115615afe576000848401525b50505050565b6000601f19601f8301169050919050565b6000615b2082615ab5565b615b2a8185615ac0565b9350615b3a818560208601615ad1565b615b4381615b04565b840191505092915050565b60006020820190508181036000830152615b688184615b15565b905092915050565b6000604051905090565b600080fd5b600080fd5b600073ffffffffffffffffffffffffffffffffffffffff82169050919050565b6000615baf82615b84565b9050919050565b615bbf81615ba4565b8114615bca57600080fd5b50565b600081359050615bdc81615bb6565b92915050565b6000819050919050565b615bf581615be2565b8114615c0057600080fd5b50565b600081359050615c1281615bec565b92915050565b60008060408385031215615c2f57615c2e615b7a565b5b6000615c3d85828601615bcd565b9250506020615c4e85828601615c03565b9150509250929050565b60008115159050919050565b615c6d81615c58565b82525050565b6000602082019050615c886000830184615c64565b92915050565b615c9781615be2565b82525050565b6000602082019050615cb26000830184615c8e565b92915050565b600060208284031215615cce57615ccd615b7a565b5b6000615cdc84828501615bcd565b91505092915050565b600060208284031215615cfb57615cfa615b7a565b5b6000615d0984828501615c03565b91505092915050565b615d1b81615ba4565b82525050565b6000602082019050615d366000830184615d12565b92915050565b600080600060608486031215615d5557615d54615b7a565b5b6000615d6386828701615bcd565b9350506020615d7486828701615bcd565b9250506040615d8586828701615c03565b9150509250925092565b600060ff82169050919050565b615da581615d8f565b82525050565b6000602082019050615dc06000830184615d9c565b92915050565b600080fd5b7f4e487b7100000000000000000000000000000000000000000000000000000000600052604160045260246000fd5b615e0382615b04565b810181811067ffffffffffffffff82111715615e2257615e21615dcb565b5b80604052505050565b6000615e35615b70565b9050615e418282615dfa565b919050565b600067ffffffffffffffff821115615e6157615e60615dcb565b5b602082029050602081019050919050565b600080fd5b6000819050919050565b615e8a81615e77565b8114615e9557600080fd5b50565b600081359050615ea781615e81565b92915050565b6000615ec0615ebb84615e46565b615e2b565b90508083825260208201905060208402830185811115615ee357615ee2615e72565b5b835b81811015615f0c5780615ef88882615e98565b845260208401935050602081019050615ee5565b5050509392505050565b600082601f830112615f2b57615f2a615dc6565b5b8135615f3b848260208601615ead565b91505092915050565b60008060408385031215615f5b57615f5a615b7a565b5b6000615f6985828601615c03565b925050602083013567ffffffffffffffff811115615f8a57615f89615b7f565b5b615f9685828601615f16565b9150509250929050565b6000819050919050565b6000615fc5615fc0615fbb84615b84565b615fa0565b615b84565b9050919050565b6000615fd782615faa565b9050919050565b6000615fe982615fcc565b9050919050565b615ff981615fde565b82525050565b60006020820190506160146000830184615ff0565b92915050565b6000602082840312156160305761602f615b7a565b5b600082013567ffffffffffffffff81111561604e5761604d615b7f565b5b61605a84828501615f16565b91505092915050565b60008060006060848603121561607c5761607b615b7a565b5b600061608a86828701615bcd565b935050602061609b86828701615c03565b925050604084013567ffffffffffffffff8111156160bc576160bb615b7f565b5b6160c886828701615f16565b9150509250925092565b600080fd5b600067ffffffffffffffff8211156160f2576160f1615dcb565b5b6160fb82615b04565b9050602081019050919050565b82818337600083830152505050565b600061612a616125846160d7565b615e2b565b905082815260208101848484011115616146576161456160d2565b5b616151848285616108565b509392505050565b600082601f83011261616e5761616d615dc6565b5b813561617e848260208601616117565b91505092915050565b600067ffffffffffffffff8211156161a2576161a1615dcb565b5b602082029050919050565b60006161c06161bb84616187565b615e2b565b905080602084028301858111156161da576161d9615e72565b5b835b8181101561620357806161ef8882615c03565b8452602084019350506020810190506161dc565b5050509392505050565b600082601f83011261622257616221615dc6565b5b600461622f8482856161ad565b91505092915050565b60008060008060008060008060008060006101c08c8e03121561625e5761625d615b7a565b5b600061626c8e828f01615bcd565b9b5050602061627d8e828f01615bcd565b9a5050604061628e8e828f01615bcd565b995050606061629f8e828f01615bcd565b98505060806162b08e828f01615bcd565b97505060a06162c18e828f01615bcd565b96505060c06162d28e828f01615bcd565b95505060e06162e38e828f01615bcd565b9450506101008c013567ffffffffffffffff81111561630557616304615b7f565b5b6163118e828f01616159565b9350506101208c013567ffffffffffffffff81111561633357616332615b7f565b5b61633f8e828f01616159565b9250506101406163518e828f0161620d565b9150509295989b509295989b9093969950565b6000806040838503121561637b5761637a615b7a565b5b600061638985828601615bcd565b925050602061639a85828601615bcd565b9150509250929050565b60006163af82615fcc565b9050919050565b6163bf816163a4565b82525050565b60006020820190506163da60008301846163b6565b92915050565b7f4e487b7100000000000000000000000000000000000000000000000000000000600052602260045260246000fd5b6000600282049050600182168061642757607f821691505b6020821081141561643b5761643a6163e0565b5b50919050565b7f5061757361626c653a2070617573656400000000000000000000000000000000600082015250565b6000616477601083615ac0565b915061648282616441565b602082019050919050565b600060208201905081810360008301526164a68161646a565b9050919050565b7f7769746864726177616c46656520746f6f206869676800000000000000000000600082015250565b60006164e3601683615ac0565b91506164ee826164ad565b602082019050919050565b60006020820190508181036000830152616512816164d6565b9050919050565b7f4164647265737320300000000000000000000000000000000000000000000000600082015250565b600061654f600983615ac0565b915061655a82616519565b602082019050919050565b6000602082019050818103600083015261657e81616542565b9050919050565b60008151905061659481615bec565b92915050565b6000602082840312156165b0576165af615b7a565b5b60006165be84828501616585565b91505092915050565b7f506c65617365207769746864726177546f5661756c74206265666f726520636860008201527f616e67696e672073747261740000000000000000000000000000000000000000602082015250565b6000616623602c83615ac0565b915061662e826165c7565b604082019050919050565b6000602082019050818103600083015261665281616616565b9050919050565b7f4e487b7100000000000000000000000000000000000000000000000000000000600052601160045260246000fd5b600061669382615be2565b915061669e83615be2565b9250827fffffffffffffffffffffffffffffffffffffffffffffffffffffffffffffffff038211156166d3576166d2616659565b5b828201905092915050565b60006166e982615be2565b91506166f483615be2565b9250817fffffffffffffffffffffffffffffffffffffffffffffffffffffffffffffffff048311821515161561672d5761672c616659565b5b828202905092915050565b7f4e487b7100000000000000000000000000000000000000000000000000000000600052601260045260246000fd5b600061677282615be2565b915061677d83615be2565b92508261678d5761678c616738565b5b828204905092915050565b7f5265656e7472616e637947756172643a207265656e7472616e742063616c6c00600082015250565b60006167ce601f83615ac0565b91506167d982616798565b602082019050919050565b600060208201905081810360008301526167fd816167c1565b9050919050565b7f4e6f2077616e7400000000000000000000000000000000000000000000000000600082015250565b600061683a600783615ac0565b915061684582616804565b602082019050919050565b600060208201905081810360008301526168698161682d565b9050919050565b60006040820190506168856000830185615c8e565b6168926020830184615c8e565b9392505050565b7f746f4561726e4270732073686f756c64206265203c3d204d41585f4250530000600082015250565b60006168cf601e83615ac0565b91506168da82616899565b602082019050919050565b600060208201905081810360008301526168fe816168c2565b9050919050565b7f416464726573732063616e6e6f74206265203078300000000000000000000000600082015250565b600061693b601583615ac0565b915061694682616905565b602082019050919050565b6000602082019050818103600083015261696a8161692e565b9050919050565b7f45786365737369766520676f7665726e616e636520706572666f726d616e636560008201527f2066656500000000000000000000000000000000000000000000000000000000602082015250565b60006169cd602483615ac0565b91506169d882616971565b604082019050919050565b600060208201905081810360008301526169fc816169c0565b9050919050565b7f45524332303a2064656372656173656420616c6c6f77616e63652062656c6f7760008201527f207a65726f000000000000000000000000000000000000000000000000000000602082015250565b6000616a5f602583615ac0565b9150616a6a82616a03565b604082019050919050565b60006020820190508181036000830152616a8e81616a52565b9050919050565b7f457863657373697665207769746864726177616c206665650000000000000000600082015250565b6000616acb601883615ac0565b9150616ad682616a95565b602082019050919050565b60006020820190508181036000830152616afa81616abe565b9050919050565b7f7061757365644465706f73697400000000000000000000000000000000000000600082015250565b6000616b37600d83615ac0565b9150616b4282616b01565b602082019050919050565b60006020820190508181036000830152616b6681616b2a565b9050919050565b7f496e697469616c697a61626c653a20636f6e747261637420697320616c72656160008201527f647920696e697469616c697a6564000000000000000000000000000000000000602082015250565b6000616bc9602e83615ac0565b9150616bd482616b6d565b604082019050919050565b60006020820190508181036000830152616bf881616bbc565b9050919050565b7f4e487b7100000000000000000000000000000000000000000000000000000000600052603260045260246000fd5b7f706572666f726d616e6365466565476f7665726e616e636520746f6f2068696760008201527f6800000000000000000000000000000000000000000000000000000000000000602082015250565b6000616c8a602183615ac0565b9150616c9582616c2e565b604082019050919050565b60006020820190508181036000830152616cb981616c7d565b9050919050565b7f706572666f726d616e63654665655374726174656769737420746f6f2068696760008201527f6800000000000000000000000000000000000000000000000000000000000000602082015250565b6000616d1c602183615ac0565b9150616d2782616cc0565b604082019050919050565b60006020820190508181036000830152616d4b81616d0f565b9050919050565b7f6d616e6167656d656e7446656520746f6f206869676800000000000000000000600082015250565b6000616d88601683615ac0565b9150616d9382616d52565b602082019050919050565b60006020820190508181036000830152616db781616d7b565b9050919050565b600081905092915050565b6000616dd482615ab5565b616dde8185616dbe565b9350616dee818560208601615ad1565b80840191505092915050565b6000616e068284616dc9565b915081905092915050565b6000616e24616e1f846160d7565b615e2b565b905082815260208101848484011115616e4057616e3f6160d2565b5b616e4b848285615ad1565b509392505050565b600082601f830112616e6857616e67615dc6565b5b8151616e78848260208601616e11565b91505092915050565b600060208284031215616e9757616e96615b7a565b5b600082015167ffffffffffffffff811115616eb557616eb4615b7f565b5b616ec184828501616e53565b91505092915050565b6000616ed68285616dc9565b9150616ee28284616dc9565b91508190509392505050565b6000616ef982615be2565b9150616f0483615be2565b925082821015616f1757616f16616659565b5b828203905092915050565b7f457863657373697665207374726174656769737420706572666f726d616e636560008201527f2066656500000000000000000000000000000000000000000000000000000000602082015250565b6000616f7e602483615ac0565b9150616f8982616f22565b604082019050919050565b60006020820190508181036000830152616fad81616f71565b9050919050565b7f457863657373697665206d616e6167656d656e74206665650000000000000000600082015250565b6000616fea601883615ac0565b9150616ff582616fb4565b602082019050919050565b6000602082019050818103600083015261701981616fdd565b9050919050565b7f6f6e6c7950617573657273000000000000000000000000000000000000000000600082015250565b6000617056600b83615ac0565b915061706182617020565b602082019050919050565b6000602082019050818103600083015261708581617049565b9050919050565b7f45524332303a20617070726f76652066726f6d20746865207a65726f2061646460008201527f7265737300000000000000000000000000000000000000000000000000000000602082015250565b60006170e8602483615ac0565b91506170f38261708c565b604082019050919050565b60006020820190508181036000830152617117816170db565b9050919050565b7f45524332303a20617070726f766520746f20746865207a65726f20616464726560008201527f7373000000000000000000000000000000000000000000000000000000000000602082015250565b600061717a602283615ac0565b91506171858261711e565b604082019050919050565b600060208201905081810360008301526171a98161716d565b9050919050565b7f6f6e6c79476f7665726e616e63654f7253747261746567697374000000000000600082015250565b60006171e6601a83615ac0565b91506171f1826171b0565b602082019050919050565b60006020820190508181036000830152617215816171d9565b9050919050565b7f6f6e6c79476f7665726e616e6365000000000000000000000000000000000000600082015250565b6000617252600e83615ac0565b915061725d8261721c565b602082019050919050565b6000602082019050818103600083015261728181617245565b9050919050565b7f45524332303a20696e73756666696369656e7420616c6c6f77616e6365000000600082015250565b60006172be601d83615ac0565b91506172c982617288565b602082019050919050565b600060208201905081810360008301526172ed816172b1565b9050919050565b7f45524332303a207472616e736665722066726f6d20746865207a65726f20616460008201527f6472657373000000000000000000000000000000000000000000000000000000602082015250565b6000617350602583615ac0565b915061735b826172f4565b604082019050919050565b6000602082019050818103600083015261737f81617343565b9050919050565b7f45524332303a207472616e7366657220746f20746865207a65726f206164647260008201527f6573730000000000000000000000000000000000000000000000000000000000602082015250565b60006173e2602383615ac0565b91506173ed82617386565b604082019050919050565b60006020820190508181036000830152617411816173d5565b9050919050565b7f45524332303a207472616e7366657220616d6f756e742065786365656473206260008201527f616c616e63650000000000000000000000000000000000000000000000000000602082015250565b6000617474602683615ac0565b915061747f82617418565b604082019050919050565b600060208201905081810360008301526174a381617467565b9050919050565b7f3020536861726573000000000000000000000000000000000000000000000000600082015250565b60006174e0600883615ac0565b91506174eb826174aa565b602082019050919050565b6000602082019050818103600083015261750f816174d3565b9050919050565b600060608201905061752b6000830186615d12565b6175386020830185615c8e565b6175456040830184615c8e565b949350505050565b600081519050919050565b600082825260208201905092915050565b6000819050602082019050919050565b61758281615e77565b82525050565b60006175948383617579565b60208301905092915050565b6000602082019050919050565b60006175b88261754d565b6175c28185617558565b93506175cd83617569565b8060005b838110156175fe5781516175e58882617588565b97506175f0836175a0565b9250506001810190506175d1565b5085935050505092915050565b60006060820190506176206000830186615d12565b61762d6020830185615c8e565b818103604083015261763f81846175ad565b9050949350505050565b61765281615c58565b811461765d57600080fd5b50565b60008151905061766f81617649565b92915050565b60006020828403121561768b5761768a615b7a565b5b600061769984828501617660565b91505092915050565b7f47756573744c6973743a204e6f7420417574686f72697a656400000000000000600082015250565b60006176d8601983615ac0565b91506176e3826176a2565b602082019050919050565b60006020820190508181036000830152617707816176cb565b9050919050565b7f5061757361626c653a206e6f7420706175736564000000000000000000000000600082015250565b6000617744601483615ac0565b915061774f8261770e565b602082019050919050565b6000602082019050818103600083015261777381617737565b9050919050565b7f6f6e6c7953747261746567790000000000000000000000000000000000000000600082015250565b60006177b0600c83615ac0565b91506177bb8261777a565b602082019050919050565b600060208201905081810360008301526177df816177a3565b9050919050565b60006040820190506177fb6000830185615d12565b6178086020830184615c8e565b9392505050565b7f6f6e6c79417574686f72697a65644163746f7273000000000000000000000000600082015250565b6000617845601483615ac0565b91506178508261780f565b602082019050919050565b6000602082019050818103600083015261787481617838565b9050919050565b7f496e697469616c697a61626c653a20636f6e7472616374206973206e6f74206960008201527f6e697469616c697a696e67000000000000000000000000000000000000000000602082015250565b60006178d7602b83615ac0565b91506178e28261787b565b604082019050919050565b60006020820190508181036000830152617906816178ca565b9050919050565b7f45524332303a206275726e2066726f6d20746865207a65726f2061646472657360008201527f7300000000000000000000000000000000000000000000000000000000000000602082015250565b6000617969602183615ac0565b91506179748261790d565b604082019050919050565b600060208201905081810360008301526179988161795c565b9050919050565b7f45524332303a206275726e20616d6f756e7420657863656564732062616c616e60008201527f6365000000000000000000000000000000000000000000000000000000000000602082015250565b60006179fb602283615ac0565b9150617a068261799f565b604082019050919050565b60006020820190508181036000830152617a2a816179ee565b9050919050565b7f416d6f756e742030000000000000000000000000000000000000000000000000600082015250565b6000617a67600883615ac0565b9150617a7282617a31565b602082019050919050565b60006020820190508181036000830152617a9681617a5a565b9050919050565b7f5361666545524332303a204552433230206f7065726174696f6e20646964206e60008201527f6f74207375636365656400000000000000000000000000000000000000000000602082015250565b6000617af9602a83615ac0565b9150617b0482617a9d565b604082019050919050565b60006020820190508181036000830152617b2881617aec565b9050919050565b7f45524332303a206d696e7420746f20746865207a65726f206164647265737300600082015250565b6000617b65601f83615ac0565b9150617b7082617b2f565b602082019050919050565b60006020820190508181036000830152617b9481617b58565b9050919050565b6000606082019050617bb06000830186615d12565b617bbd6020830185615d12565b617bca6040830184615c8e565b949350505050565b7f416464726573733a20696e73756666696369656e742062616c616e636520666f60008201527f722063616c6c0000000000000000000000000000000000000000000000000000602082015250565b6000617c2e602683615ac0565b9150617c3982617bd2565b604082019050919050565b60006020820190508181036000830152617c5d81617c21565b9050919050565b7f416464726573733a2063616c6c20746f206e6f6e2d636f6e7472616374000000600082015250565b6000617c9a601d83615ac0565b9150617ca582617c64565b602082019050919050565b60006020820190508181036000830152617cc981617c8d565b9050919050565b600081519050919050565b600081905092915050565b6000617cf182617cd0565b617cfb8185617cdb565b9350617d0b818560208601615ad1565b80840191505092915050565b6000617d238284617ce6565b91508190509291505056fea2646970667358221220920192393670f5ab79a2204b4d399588914bbc444ce8378054af7318e83a4a1964736f6c634300080c0033","linkReferences":{}},"methodIdentifiers":{"MANAGEMENT_FEE_HARD_CAP()":"64b03275","MAX_BPS()":"fd967f47","PERFORMANCE_FEE_HARD_CAP()":"7ca07723","SECS_PER_YEAR()":"28998af0","WITHDRAWAL_FEE_HARD_CAP()":"130e9284","additionalTokensEarned(address)":"2170121b","allowance(address,address)":"dd62ed3e","approve(address,uint256)":"095ea7b3","assetsAtLastHarvest()":"e782786c","available()":"48a0d754","badgerTree()":"89483695","balance()":"b69ef8a8","balanceOf(address)":"70a08231","decimals()":"313ce567","decreaseAllowance(address,uint256)":"a457c2d7","deposit(uint256)":"b6b55f25","deposit(uint256,bytes32[])":"35ac79c3","depositAll()":"de5f6268","depositAll(bytes32[])":"bad91bdb","depositFor(address,uint256)":"2f4f21e2","depositFor(address,uint256,bytes32[])":"d6c2cadd","earn()":"d389800f","emitNonProtectedToken(address)":"a0fd55e4","getPricePerFullShare()":"77c7b8fc","governance()":"5aa6e675","guardian()":"452a9320","guestList()":"46d55875","increaseAllowance(address,uint256)":"39509351","initialize(address,address,address,address,address,address,address,address,string,string,uint256[4])":"da042994","keeper()":"aced1661","lastAdditionalTokenAmount(address)":"c783ee91","lastHarvestAmount()":"7dbe7920","lastHarvestedAt()":"ecb9da77","lifeTimeEarned()":"f9f44f4e","managementFee()":"a6f7f5d6","maxManagementFee()":"0b313206","maxPerformanceFee()":"5265ed61","maxWithdrawalFee()":"ec1c0a99","name()":"06fdde03","pause()":"8456cb59","pauseDeposits()":"02191980","paused()":"5c975abb","pausedDeposit()":"e06bacb7","performanceFeeGovernance()":"15b18ddd","performanceFeeStrategist()":"504a1647","reportAdditionalToken(address)":"4c4c909b","reportHarvest(uint256)":"dc7da299","setGovernance(address)":"ab033ea9","setGuardian(address)":"8a0dac4a","setGuestList(address)":"0b5b78eb","setKeeper(address)":"748747e6","setManagementFee(uint256)":"fe56e232","setMaxManagementFee(uint256)":"eb4442e2","setMaxPerformanceFee(uint256)":"dab7b06e","setMaxWithdrawalFee(uint256)":"1992a088","setPerformanceFeeGovernance(uint256)":"8457213a","setPerformanceFeeStrategist(uint256)":"f55462f4","setStrategist(address)":"c7b9d530","setStrategy(address)":"33a100ca","setToEarnBps(uint256)":"62be3cde","setTreasury(address)":"f0f44260","setVesting(address)":"6f6ff3bc","setWithdrawalFee(uint256)":"ac1e5025","strategist()":"1fe4a686","strategy()":"a8c62e76","sweepExtraToken(address)":"a234985e","symbol()":"95d89b41","toEarnBps()":"fbdfdb44","token()":"fc0c546a","totalSupply()":"18160ddd","transfer(address,uint256)":"a9059cbb","transferFrom(address,address,uint256)":"23b872dd","treasury()":"61d027b3","unpause()":"3f4ba83a","unpauseDeposits()":"63d8882a","version()":"54fd4d50","vesting()":"44c63eec","withdraw(uint256)":"2e1a7d4d","withdrawAll()":"853828b6","withdrawToVault()":"84f22721","withdrawalFee()":"8bc7e8c4"},"id":24}