{
  "_format": "hh-sol-artifact-1",
  "contractName": "NFTXMintRequestEligibility",
  "sourceName": "contracts/solidity/eligibility/NFTXMintRequestEligibility.sol",
  "abi": [
    {
      "anonymous": false,
      "inputs": [
        {
          "indexed": false,
          "internalType": "bool",
          "name": "allow",
          "type": "bool"
        }
      ],
      "name": "AllowTrustedApprovalsSet",
      "type": "event"
    },
    {
      "anonymous": false,
      "inputs": [
        {
          "indexed": false,
          "internalType": "uint256[]",
          "name": "nftIds",
          "type": "uint256[]"
        }
      ],
      "name": "Approve",
      "type": "event"
    },
    {
      "anonymous": false,
      "inputs": [
        {
          "indexed": false,
          "internalType": "address",
          "name": "owner",
          "type": "address"
        },
        {
          "indexed": false,
          "internalType": "uint256[]",
          "name": "tokenIds",
          "type": "uint256[]"
        }
      ],
      "name": "NFTXEligibilityInit",
      "type": "event"
    },
    {
      "anonymous": false,
      "inputs": [
        {
          "indexed": true,
          "internalType": "address",
          "name": "previousOwner",
          "type": "address"
        },
        {
          "indexed": true,
          "internalType": "address",
          "name": "newOwner",
          "type": "address"
        }
      ],
      "name": "OwnershipTransferred",
      "type": "event"
    },
    {
      "anonymous": false,
      "inputs": [
        {
          "indexed": false,
          "internalType": "uint256[]",
          "name": "nftIds",
          "type": "uint256[]"
        }
      ],
      "name": "Reject",
      "type": "event"
    },
    {
      "anonymous": false,
      "inputs": [
        {
          "indexed": false,
          "internalType": "address",
          "name": "sender",
          "type": "address"
        },
        {
          "indexed": false,
          "internalType": "uint256[]",
          "name": "nftIds",
          "type": "uint256[]"
        },
        {
          "indexed": false,
          "internalType": "uint256[]",
          "name": "amounts",
          "type": "uint256[]"
        }
      ],
      "name": "Request",
      "type": "event"
    },
    {
      "anonymous": false,
      "inputs": [
        {
          "indexed": false,
          "internalType": "address",
          "name": "addr",
          "type": "address"
        },
        {
          "indexed": false,
          "internalType": "bool",
          "name": "isGuardian",
          "type": "bool"
        }
      ],
      "name": "SetIsGuardian",
      "type": "event"
    },
    {
      "anonymous": false,
      "inputs": [
        {
          "indexed": false,
          "internalType": "uint256",
          "name": "lockId",
          "type": "uint256"
        },
        {
          "indexed": false,
          "internalType": "bool",
          "name": "paused",
          "type": "bool"
        }
      ],
      "name": "SetPaused",
      "type": "event"
    },
    {
      "anonymous": false,
      "inputs": [
        {
          "indexed": false,
          "internalType": "uint256[]",
          "name": "tokenIds",
          "type": "uint256[]"
        },
        {
          "indexed": false,
          "internalType": "bool",
          "name": "isEligible",
          "type": "bool"
        }
      ],
      "name": "UniqueEligibilitiesSet",
      "type": "event"
    },
    {
      "inputs": [
        {
          "internalType": "address",
          "name": "_owner",
          "type": "address"
        },
        {
          "internalType": "address",
          "name": "vaultAddress",
          "type": "address"
        },
        {
          "internalType": "bool",
          "name": "_negateEligOnRedeem",
          "type": "bool"
        },
        {
          "internalType": "uint256[]",
          "name": "tokenIds",
          "type": "uint256[]"
        }
      ],
      "name": "__NFTXEligibility_init",
      "outputs": [],
      "stateMutability": "nonpayable",
      "type": "function"
    },
    {
      "inputs": [
        {
          "internalType": "bytes",
          "name": "_configData",
          "type": "bytes"
        }
      ],
      "name": "__NFTXEligibility_init_bytes",
      "outputs": [],
      "stateMutability": "nonpayable",
      "type": "function"
    },
    {
      "inputs": [
        {
          "internalType": "uint256[]",
          "name": "tokenIds",
          "type": "uint256[]"
        }
      ],
      "name": "afterMintHook",
      "outputs": [],
      "stateMutability": "nonpayable",
      "type": "function"
    },
    {
      "inputs": [
        {
          "internalType": "uint256[]",
          "name": "tokenIds",
          "type": "uint256[]"
        }
      ],
      "name": "afterRedeemHook",
      "outputs": [],
      "stateMutability": "nonpayable",
      "type": "function"
    },
    {
      "inputs": [],
      "name": "allowTrustedApprovals",
      "outputs": [
        {
          "internalType": "bool",
          "name": "",
          "type": "bool"
        }
      ],
      "stateMutability": "view",
      "type": "function"
    },
    {
      "inputs": [
        {
          "internalType": "uint256[]",
          "name": "tokenIds",
          "type": "uint256[]"
        },
        {
          "internalType": "address[]",
          "name": "addresses",
          "type": "address[]"
        },
        {
          "internalType": "bool",
          "name": "mint",
          "type": "bool"
        }
      ],
      "name": "approveMintRequests",
      "outputs": [],
      "stateMutability": "nonpayable",
      "type": "function"
    },
    {
      "inputs": [
        {
          "internalType": "uint256[]",
          "name": "tokenIds",
          "type": "uint256[]"
        }
      ],
      "name": "beforeMintHook",
      "outputs": [],
      "stateMutability": "nonpayable",
      "type": "function"
    },
    {
      "inputs": [
        {
          "internalType": "uint256[]",
          "name": "tokenIds",
          "type": "uint256[]"
        }
      ],
      "name": "beforeRedeemHook",
      "outputs": [],
      "stateMutability": "nonpayable",
      "type": "function"
    },
    {
      "inputs": [
        {
          "internalType": "uint256[]",
          "name": "tokenIds",
          "type": "uint256[]"
        }
      ],
      "name": "checkAllEligible",
      "outputs": [
        {
          "internalType": "bool",
          "name": "",
          "type": "bool"
        }
      ],
      "stateMutability": "view",
      "type": "function"
    },
    {
      "inputs": [
        {
          "internalType": "uint256[]",
          "name": "tokenIds",
          "type": "uint256[]"
        }
      ],
      "name": "checkAllIneligible",
      "outputs": [
        {
          "internalType": "bool",
          "name": "",
          "type": "bool"
        }
      ],
      "stateMutability": "view",
      "type": "function"
    },
    {
      "inputs": [
        {
          "internalType": "uint256[]",
          "name": "tokenIds",
          "type": "uint256[]"
        }
      ],
      "name": "checkEligible",
      "outputs": [
        {
          "internalType": "bool[]",
          "name": "",
          "type": "bool[]"
        }
      ],
      "stateMutability": "view",
      "type": "function"
    },
    {
      "inputs": [
        {
          "internalType": "uint256",
          "name": "tokenId",
          "type": "uint256"
        }
      ],
      "name": "checkIsEligible",
      "outputs": [
        {
          "internalType": "bool",
          "name": "",
          "type": "bool"
        }
      ],
      "stateMutability": "view",
      "type": "function"
    },
    {
      "inputs": [
        {
          "internalType": "uint256[]",
          "name": "tokenIds",
          "type": "uint256[]"
        },
        {
          "internalType": "address[]",
          "name": "addresses",
          "type": "address[]"
        }
      ],
      "name": "claimUnminted",
      "outputs": [],
      "stateMutability": "nonpayable",
      "type": "function"
    },
    {
      "inputs": [],
      "name": "finalizeEligibility",
      "outputs": [],
      "stateMutability": "nonpayable",
      "type": "function"
    },
    {
      "inputs": [],
      "name": "finalized",
      "outputs": [
        {
          "internalType": "bool",
          "name": "",
          "type": "bool"
        }
      ],
      "stateMutability": "view",
      "type": "function"
    },
    {
      "inputs": [],
      "name": "is1155",
      "outputs": [
        {
          "internalType": "bool",
          "name": "",
          "type": "bool"
        }
      ],
      "stateMutability": "view",
      "type": "function"
    },
    {
      "inputs": [
        {
          "internalType": "address",
          "name": "",
          "type": "address"
        }
      ],
      "name": "isGuardian",
      "outputs": [
        {
          "internalType": "bool",
          "name": "",
          "type": "bool"
        }
      ],
      "stateMutability": "view",
      "type": "function"
    },
    {
      "inputs": [],
      "name": "isInitialized",
      "outputs": [
        {
          "internalType": "bool",
          "name": "",
          "type": "bool"
        }
      ],
      "stateMutability": "view",
      "type": "function"
    },
    {
      "inputs": [
        {
          "internalType": "uint256",
          "name": "",
          "type": "uint256"
        }
      ],
      "name": "isPaused",
      "outputs": [
        {
          "internalType": "bool",
          "name": "",
          "type": "bool"
        }
      ],
      "stateMutability": "view",
      "type": "function"
    },
    {
      "inputs": [
        {
          "internalType": "uint256",
          "name": "tokenId",
          "type": "uint256"
        }
      ],
      "name": "isUniqueEligible",
      "outputs": [
        {
          "internalType": "bool",
          "name": "",
          "type": "bool"
        }
      ],
      "stateMutability": "view",
      "type": "function"
    },
    {
      "inputs": [],
      "name": "name",
      "outputs": [
        {
          "internalType": "string",
          "name": "",
          "type": "string"
        }
      ],
      "stateMutability": "pure",
      "type": "function"
    },
    {
      "inputs": [],
      "name": "negateEligOnRedeem",
      "outputs": [
        {
          "internalType": "bool",
          "name": "",
          "type": "bool"
        }
      ],
      "stateMutability": "view",
      "type": "function"
    },
    {
      "inputs": [
        {
          "internalType": "address",
          "name": "",
          "type": "address"
        },
        {
          "internalType": "address",
          "name": "",
          "type": "address"
        },
        {
          "internalType": "uint256[]",
          "name": "",
          "type": "uint256[]"
        },
        {
          "internalType": "uint256[]",
          "name": "",
          "type": "uint256[]"
        },
        {
          "internalType": "bytes",
          "name": "",
          "type": "bytes"
        }
      ],
      "name": "onERC1155BatchReceived",
      "outputs": [
        {
          "internalType": "bytes4",
          "name": "",
          "type": "bytes4"
        }
      ],
      "stateMutability": "nonpayable",
      "type": "function"
    },
    {
      "inputs": [
        {
          "internalType": "address",
          "name": "",
          "type": "address"
        },
        {
          "internalType": "address",
          "name": "",
          "type": "address"
        },
        {
          "internalType": "uint256",
          "name": "",
          "type": "uint256"
        },
        {
          "internalType": "uint256",
          "name": "",
          "type": "uint256"
        },
        {
          "internalType": "bytes",
          "name": "",
          "type": "bytes"
        }
      ],
      "name": "onERC1155Received",
      "outputs": [
        {
          "internalType": "bytes4",
          "name": "",
          "type": "bytes4"
        }
      ],
      "stateMutability": "nonpayable",
      "type": "function"
    },
    {
      "inputs": [
        {
          "internalType": "address",
          "name": "",
          "type": "address"
        },
        {
          "internalType": "address",
          "name": "",
          "type": "address"
        },
        {
          "internalType": "uint256",
          "name": "",
          "type": "uint256"
        },
        {
          "internalType": "bytes",
          "name": "",
          "type": "bytes"
        }
      ],
      "name": "onERC721Received",
      "outputs": [
        {
          "internalType": "bytes4",
          "name": "",
          "type": "bytes4"
        }
      ],
      "stateMutability": "nonpayable",
      "type": "function"
    },
    {
      "inputs": [
        {
          "internalType": "uint256",
          "name": "lockId",
          "type": "uint256"
        }
      ],
      "name": "onlyOwnerIfPaused",
      "outputs": [],
      "stateMutability": "view",
      "type": "function"
    },
    {
      "inputs": [],
      "name": "owner",
      "outputs": [
        {
          "internalType": "address",
          "name": "",
          "type": "address"
        }
      ],
      "stateMutability": "view",
      "type": "function"
    },
    {
      "inputs": [
        {
          "internalType": "uint256",
          "name": "lockId",
          "type": "uint256"
        }
      ],
      "name": "pause",
      "outputs": [],
      "stateMutability": "nonpayable",
      "type": "function"
    },
    {
      "inputs": [
        {
          "internalType": "uint256[]",
          "name": "tokenIds",
          "type": "uint256[]"
        }
      ],
      "name": "reclaimRequestedMint",
      "outputs": [],
      "stateMutability": "nonpayable",
      "type": "function"
    },
    {
      "inputs": [],
      "name": "renounceOwnership",
      "outputs": [],
      "stateMutability": "nonpayable",
      "type": "function"
    },
    {
      "inputs": [
        {
          "internalType": "uint256[]",
          "name": "tokenIds",
          "type": "uint256[]"
        },
        {
          "internalType": "uint256[]",
          "name": "amounts",
          "type": "uint256[]"
        }
      ],
      "name": "requestMint",
      "outputs": [],
      "stateMutability": "nonpayable",
      "type": "function"
    },
    {
      "inputs": [
        {
          "internalType": "bool",
          "name": "_allowTrustedApprovals",
          "type": "bool"
        }
      ],
      "name": "setEligibilityPreferences",
      "outputs": [],
      "stateMutability": "nonpayable",
      "type": "function"
    },
    {
      "inputs": [
        {
          "internalType": "address",
          "name": "addr",
          "type": "address"
        },
        {
          "internalType": "bool",
          "name": "_isGuardian",
          "type": "bool"
        }
      ],
      "name": "setIsGuardian",
      "outputs": [],
      "stateMutability": "nonpayable",
      "type": "function"
    },
    {
      "inputs": [
        {
          "internalType": "uint256[]",
          "name": "tokenIds",
          "type": "uint256[]"
        },
        {
          "internalType": "bool",
          "name": "_isEligible",
          "type": "bool"
        }
      ],
      "name": "setUniqueEligibilities",
      "outputs": [],
      "stateMutability": "nonpayable",
      "type": "function"
    },
    {
      "inputs": [
        {
          "internalType": "bytes4",
          "name": "interfaceId",
          "type": "bytes4"
        }
      ],
      "name": "supportsInterface",
      "outputs": [
        {
          "internalType": "bool",
          "name": "",
          "type": "bool"
        }
      ],
      "stateMutability": "view",
      "type": "function"
    },
    {
      "inputs": [],
      "name": "targetAsset",
      "outputs": [
        {
          "internalType": "address",
          "name": "",
          "type": "address"
        }
      ],
      "stateMutability": "pure",
      "type": "function"
    },
    {
      "inputs": [
        {
          "internalType": "address",
          "name": "newOwner",
          "type": "address"
        }
      ],
      "name": "transferOwnership",
      "outputs": [],
      "stateMutability": "nonpayable",
      "type": "function"
    },
    {
      "inputs": [
        {
          "internalType": "uint256",
          "name": "lockId",
          "type": "uint256"
        }
      ],
      "name": "unpause",
      "outputs": [],
      "stateMutability": "nonpayable",
      "type": "function"
    },
    {
      "inputs": [],
      "name": "vault",
      "outputs": [
        {
          "internalType": "contract INFTXVault",
          "name": "",
          "type": "address"
        }
      ],
      "stateMutability": "view",
      "type": "function"
    }
  ],
  "bytecode": "0x608060405234801561001057600080fd5b50612f55806100206000396000f3fe608060405234801561001057600080fd5b50600436106102ad5760003560e01c80637c77b6161161017b578063ca373f28116100d8578063f23a6e611161008c578063fabc1cbc11610071578063fabc1cbc14610617578063fbd5cb201461062a578063fbfa77cf1461063d57600080fd5b8063f23a6e61146105cc578063f2fde38b1461060457600080fd5b8063d6eed937116100bd578063d6eed93714610592578063e23268d4146105a6578063f09064db146105b957600080fd5b8063ca373f281461056c578063d2a096e81461057f57600080fd5b80639ee0362c1161012f578063bc197c8111610114578063bc197c8114610511578063bd8affde146103e3578063bdf2a43c1461054957600080fd5b80639ee0362c146104f6578063b3f05b971461050957600080fd5b80638da5cb5b116101605780638da5cb5b146104be578063920aa5d2146104cf57806393cb666d146104e257600080fd5b80637c77b6161461049857806384ca9f85146104ab57600080fd5b806336eb0862116102295780634998b7f3116101dd5780636c47d595116101c25780636c47d595146103e35780636cd9126014610470578063715018a61461049057600080fd5b80634998b7f31461044a5780635e2f9b521461045d57600080fd5b80633942cf361161020e5780633942cf36146104095780633d4403ac1461041c578063423515c41461043757600080fd5b806336eb0862146103e3578063392e53cd146103f557600080fd5b80630c68ba2111610280578063150b7a0211610265578063150b7a0214610378578063194ab4d8146103c857806323845fb5146103d057600080fd5b80630c68ba2114610342578063136439dd1461036557600080fd5b806301ffc9a7146102b2578063047d066c146102da57806306f26dc2146102ef57806306fdde0314610303575b600080fd5b6102c56102c0366004612ba6565b610650565b60405190151581526020015b60405180910390f35b6102ed6102e836600461288f565b6106b9565b005b6068546102c590600160a81b900460ff1681565b604080518082018252600b81527f4d696e7452657175657374000000000000000000000000000000000000000000602082015290516102d19190612dd9565b6102c56103503660046126de565b60656020526000908152604090205460ff1681565b6102ed610373366004612c01565b6109ce565b6103af610386366004612902565b7f150b7a0200000000000000000000000000000000000000000000000000000000949350505050565b6040516001600160e01b031990911681526020016102d1565b6102ed610a85565b6102ed6103de3660046129c7565b610ae9565b6102ed6103f13660046129ff565b5050565b6068546102c590600160a01b900460ff1681565b6102c5610417366004612c01565b610ba6565b60005b6040516001600160a01b0390911681526020016102d1565b6102ed610445366004612b6e565b610bd9565b6102ed610458366004612bce565b610c9b565b6102ed61046b3660046129ff565b610d80565b61048361047e3660046129ff565b610de5565b6040516102d19190612d1c565b6102ed610ec0565b6102ed6104a6366004612c01565b610f71565b6102c56104b93660046129ff565b610fe8565b6033546001600160a01b031661041f565b6102ed6104dd3660046129ff565b611041565b6068546102c590600160b81b900460ff1681565b6102ed610504366004612a3f565b611313565b6102c5611687565b6103af61051f3660046127e5565b7fbc197c810000000000000000000000000000000000000000000000000000000095945050505050565b6102c5610557366004612c01565b60666020526000908152604090205460ff1681565b6102c561057a3660046129ff565b6116c2565b6102c561058d366004612c01565b611712565b6068546102c590600160b01b900460ff1681565b6102ed6105b4366004612a3f565b61171d565b6102ed6105c7366004612aa8565b611b16565b6103af6105da366004612960565b7ff23a6e610000000000000000000000000000000000000000000000000000000095945050505050565b6102ed6106123660046126de565b611f46565b6102ed610625366004612c01565b612085565b6102ed610638366004612b29565b61212c565b60685461041f906001600160a01b031681565b60006001600160e01b031982167f4e2312e00000000000000000000000000000000000000000000000000000000014806106b357507f01ffc9a7000000000000000000000000000000000000000000000000000000006001600160e01b03198316145b92915050565b600054610100900460ff16806106d2575060005460ff16155b61073a5760405162461bcd60e51b815260206004820152602e60248201527f496e697469616c697a61626c653a20636f6e747261637420697320616c72656160448201526d191e481a5b9a5d1a585b1a5e995960921b60648201526084015b60405180910390fd5b600054610100900460ff1615801561075c576000805461ffff19166101011790555b61076461217b565b606880547fffffffffffffffffffffff00ffffffffffffffffffffffffffffffffffffffff16600160a01b17905561079d82600161223d565b6107a685611f46565b606880546001600160a01b0386167fffffffffffffffffff00ffff00000000000000000000000000000000000000009091168117600160b01b8615150217909155604080517f06f26dc200000000000000000000000000000000000000000000000000000000815290516306f26dc291600480820192602092909190829003018186803b15801561083657600080fd5b505afa15801561084a573d6000803e3d6000fd5b505050506040513d601f19601f8201168201806040525081019061086e9190612b8a565b606860156101000a81548160ff0219169083151502179055506000846001600160a01b0316631ba46cfd6040518163ffffffff1660e01b815260040160206040518083038186803b1580156108c257600080fd5b505afa1580156108d6573d6000803e3d6000fd5b505050506040513d601f19601f820116820180604052508101906108fa91906126fa565b6068546040517fa22cb4650000000000000000000000000000000000000000000000000000000081526001600160a01b0391821660048201526001602482015291925082169063a22cb46590604401600060405180830381600087803b15801561096357600080fd5b505af1158015610977573d6000803e3d6000fd5b505050507f7bc77c0b30e14218218c321182385b620a19a395362de610f7478a989d37eeb486846040516109ac929190612cfa565b60405180910390a15080156109c7576000805461ff00191690555b5050505050565b3360009081526065602052604090205460ff16610a2d5760405162461bcd60e51b815260206004820152600b60248201527f43616e27742070617573650000000000000000000000000000000000000000006044820152606401610731565b600081815260666020908152604091829020805460ff191660019081179091558251848152918201527f77f1fcfcce67dc392d64f842056d2ec06c80986c47c910f7e79c5b23a2738d7491015b60405180910390a150565b6033546001600160a01b03163314610adf5760405162461bcd60e51b815260206004820181905260248201527f4f776e61626c653a2063616c6c6572206973206e6f7420746865206f776e65726044820152606401610731565b610ae7610ec0565b565b6033546001600160a01b03163314610b435760405162461bcd60e51b815260206004820181905260248201527f4f776e61626c653a2063616c6c6572206973206e6f7420746865206f776e65726044820152606401610731565b6001600160a01b038216600081815260656020908152604091829020805460ff19168515159081179091558251938452908301527fd0b6b573d5442f7c29fd50d9735ae341581c25c6ed07748d50eda519f1ffa88a910160405180910390a15050565b600080610bb561010084612e81565b600081815260676020526040902054909150610bd1818561234d565b949350505050565b6033546001600160a01b03163314610c335760405162461bcd60e51b815260206004820181905260248201527f4f776e61626c653a2063616c6c6572206973206e6f7420746865206f776e65726044820152606401610731565b60688054821515600160b81b027fffffffffffffffff00ffffffffffffffffffffffffffffffffffffffffffffff9091161790556040517f265b2675575500edc646c9c2fbbd54edb9abe02267907927c3c43a620c59d95090610a7a90831515815260200190565b600054610100900460ff1680610cb4575060005460ff16155b610d175760405162461bcd60e51b815260206004820152602e60248201527f496e697469616c697a61626c653a20636f6e747261637420697320616c72656160448201526d191e481a5b9a5d1a585b1a5e995960921b6064820152608401610731565b600054610100900460ff16158015610d39576000805461ffff19166101011790555b60008060008085806020019051810190610d539190612716565b9350935093509350610d67848484846106b9565b5050505080156103f1576000805461ff00191690555050565b6068546001600160a01b03163314610d9757600080fd5b606854600160b01b900460ff16156103f1576103f18282808060200260200160405190810160405280939291908181526020018383602002808284376000920182905250925061223d915050565b606060008267ffffffffffffffff811115610e1057634e487b7160e01b600052604160045260246000fd5b604051908082528060200260200182016040528015610e39578160200160208202803683370190505b50905060005b83811015610eb857610e76858583818110610e6a57634e487b7160e01b600052603260045260246000fd5b9050602002013561236d565b828281518110610e9657634e487b7160e01b600052603260045260246000fd5b9115156020928302919091019091015280610eb081612e95565b915050610e3f565b509392505050565b6033546001600160a01b03163314610f1a5760405162461bcd60e51b815260206004820181905260248201527f4f776e61626c653a2063616c6c6572206973206e6f7420746865206f776e65726044820152606401610731565b6033546040516000916001600160a01b0316907f8be0079c531659141344cd1fd0a4f28419497f9722a3daafe3b4186f6b6457e0908390a36033805473ffffffffffffffffffffffffffffffffffffffff19169055565b60008181526066602052604090205460ff161580610f9957506033546001600160a01b031633145b610fe55760405162461bcd60e51b815260206004820152600660248201527f50617573656400000000000000000000000000000000000000000000000000006044820152606401610731565b50565b6000805b8281101561103757611017848483818110610e6a57634e487b7160e01b600052603260045260246000fd5b6110255760009150506106b3565b8061102f81612e95565b915050610fec565b5060019392505050565b60685460408051631ba46cfd60e01b815290516000926001600160a01b031691631ba46cfd916004808301926020929190829003018186803b15801561108657600080fd5b505afa15801561109a573d6000803e3d6000fd5b505050506040513d601f19601f820116820180604052508101906110be91906126fa565b606854909150600160a81b900460ff1660005b838110156109c75760008585838181106110fb57634e487b7160e01b600052603260045260246000fd5b336000908152606a602090815260408083209382029590950135808352929052929092205491925050806111715760405162461bcd60e51b815260206004820152601d60248201527f4e4654585661756c743a206e6f7468696e6720746f207265636c61696d0000006044820152606401610731565b33600090815260696020908152604080832085845290915290205460ff16156111dc5760405162461bcd60e51b815260206004820152601f60248201527f456c69676962696c6974793a2063616e6e6f7420626520617070726f766564006044820152606401610731565b336000818152606a60209081526040808320868452825280832083905592825260698152828220858352905220805460ff19169055831561129757604051637921219560e11b8152306004820152336024820152604481018390526064810182905260a06084820152600060a48201526001600160a01b0386169063f242432a9060c401600060405180830381600087803b15801561127a57600080fd5b505af115801561128e573d6000803e3d6000fd5b505050506112fe565b604051632142170760e11b8152306004820152336024820152604481018390526001600160a01b038616906342842e0e90606401600060405180830381600087803b1580156112e557600080fd5b505af11580156112f9573d6000803e3d6000fd5b505050505b5050808061130b90612e95565b9150506110d1565b61131d6000610f71565b82811461132957600080fd5b60685460408051631ba46cfd60e01b8152905160ff600160a81b840416926000926001600160a01b0390911691631ba46cfd91600480820192602092909190829003018186803b15801561137c57600080fd5b505afa158015611390573d6000803e3d6000fd5b505050506040513d601f19601f820116820180604052508101906113b491906126fa565b905060005b8581101561163f5760008787838181106113e357634e487b7160e01b600052603260045260246000fd5b905060200201359050600086868481811061140e57634e487b7160e01b600052603260045260246000fd5b336000908152606a6020908152604080832088845282529091205491029290920135925050156114805760405162461bcd60e51b815260206004820152601360248201527f4e6f206578697374696e672072657175657374000000000000000000000000006044820152606401610731565b336000908152606a602090815260408083208584529091529020819055841561157357600081116114f35760405162461bcd60e51b815260206004820152601e60248201527f4d75737420726571756573742077697468206174206c65617374206f6e6500006044820152606401610731565b604051637921219560e11b8152336004820152306024820152604481018390526064810182905260a06084820152600060a48201526001600160a01b0385169063f242432a9060c401600060405180830381600087803b15801561155657600080fd5b505af115801561156a573d6000803e3d6000fd5b5050505061162a565b806001146115c35760405162461bcd60e51b815260206004820152601a60248201527f4d75737420726571756573742077697468206f6e6c79206f6e650000000000006044820152606401610731565b604051632142170760e11b8152336004820152306024820152604481018390526001600160a01b038516906342842e0e90606401600060405180830381600087803b15801561161157600080fd5b505af1158015611625573d6000803e3d6000fd5b505050505b5050808061163790612e95565b9150506113b9565b507f82a3bdcbe86d2a7b5d30b7d06d6be36f5a2899a83922820dbed635afc0a2ef193387878787604051611677959493929190612cb8565b60405180910390a1505050505050565b606854600090600160a01b900460ff1680156116bd575060006116b26033546001600160a01b031690565b6001600160a01b0316145b905090565b6000805b82811015611037576116f1848483818110610e6a57634e487b7160e01b600052603260045260246000fd5b156117005760009150506106b3565b8061170a81612e95565b9150506116c6565b60006106b38261236d565b82811461172957600080fd5b6068546001600160a01b031660005b84811015611b0e57600086868381811061176257634e487b7160e01b600052603260045260246000fd5b9050602002013590506000606a600087878681811061179157634e487b7160e01b600052603260045260246000fd5b90506020020160208101906117a691906126de565b6001600160a01b03166001600160a01b031681526020019081526020016000206000838152602001908152602001600020549050600081116118185760405162461bcd60e51b815260206004820152600b60248201526a4e6f20726571756573747360a81b6044820152606401610731565b6069600087878681811061183c57634e487b7160e01b600052603260045260246000fd5b905060200201602081019061185191906126de565b6001600160a01b031681526020808201929092526040908101600090812085825290925290205460ff166118c75760405162461bcd60e51b815260206004820152600c60248201527f4e6f7420617070726f76656400000000000000000000000000000000000000006044820152606401610731565b6000606960008888878181106118ed57634e487b7160e01b600052603260045260246000fd5b905060200201602081019061190291906126de565b6001600160a01b03168152602080820192909252604090810160009081208682529092528120805460ff191692151592909217909155606a8188888781811061195b57634e487b7160e01b600052603260045260246000fd5b905060200201602081019061197091906126de565b6001600160a01b031681526020808201929092526040908101600090812086825283528181209390935580516001808252818301909252918281019080368337505060408051600180825281830190925292935060009291506020808301908036833701905050905083826000815181106119fb57634e487b7160e01b600052603260045260246000fd5b6020026020010181815250508281600081518110611a2957634e487b7160e01b600052603260045260246000fd5b602002602001018181525050611a4082600161223d565b856001600160a01b031663b10402ea83838b8b8a818110611a7157634e487b7160e01b600052603260045260246000fd5b9050602002016020810190611a8691906126de565b6040518463ffffffff1660e01b8152600401611aa493929190612d76565b602060405180830381600087803b158015611abe57600080fd5b505af1158015611ad2573d6000803e3d6000fd5b505050506040513d601f19601f82011682018060405250810190611af69190612c19565b50505050508080611b0690612e95565b915050611738565b505050505050565b611b206000610f71565b838214611b2c57600080fd5b606854600160b81b900460ff161580611b5557503360009081526065602052604090205460ff16155b15611b6257611b62612378565b6068546001600160a01b031660005b85811015611f14576000878783818110611b9b57634e487b7160e01b600052603260045260246000fd5b9050602002013590506000606a6000888886818110611bca57634e487b7160e01b600052603260045260246000fd5b9050602002016020810190611bdf91906126de565b6001600160a01b03166001600160a01b03168152602001908152602001600020600083815260200190815260200160002054905060008111611c515760405162461bcd60e51b815260206004820152600b60248201526a4e6f20726571756573747360a81b6044820152606401610731565b8415611e8e57600060696000898987818110611c7d57634e487b7160e01b600052603260045260246000fd5b9050602002016020810190611c9291906126de565b6001600160a01b03168152602080820192909252604090810160009081208682529092528120805460ff191692151592909217909155606a81898987818110611ceb57634e487b7160e01b600052603260045260246000fd5b9050602002016020810190611d0091906126de565b6001600160a01b03168152602080820192909252604090810160009081208682528352818120939093558051600180825281830190925291828101908036833750506040805160018082528183019092529293506000929150602080830190803683370190505090508382600081518110611d8b57634e487b7160e01b600052603260045260246000fd5b6020026020010181815250508281600081518110611db957634e487b7160e01b600052603260045260246000fd5b602002602001018181525050611dd082600161223d565b856001600160a01b031663b10402ea83838c8c8a818110611e0157634e487b7160e01b600052603260045260246000fd5b9050602002016020810190611e1691906126de565b6040518463ffffffff1660e01b8152600401611e3493929190612d76565b602060405180830381600087803b158015611e4e57600080fd5b505af1158015611e62573d6000803e3d6000fd5b505050506040513d601f19601f82011682018060405250810190611e869190612c19565b505050611eff565b600160696000898987818110611eb457634e487b7160e01b600052603260045260246000fd5b9050602002016020810190611ec991906126de565b6001600160a01b03168152602080820192909252604090810160009081208682529092529020805460ff19169115159190911790555b50508080611f0c90612e95565b915050611b71565b507ffcaa564cf1fd9419442b64a8ecd5417f0674fcf5a55a6a53694f14250a73b5d08686604051611677929190612d62565b6033546001600160a01b03163314611fa05760405162461bcd60e51b815260206004820181905260248201527f4f776e61626c653a2063616c6c6572206973206e6f7420746865206f776e65726044820152606401610731565b6001600160a01b03811661201c5760405162461bcd60e51b815260206004820152602660248201527f4f776e61626c653a206e6577206f776e657220697320746865207a65726f206160448201527f64647265737300000000000000000000000000000000000000000000000000006064820152608401610731565b6033546040516001600160a01b038084169216907f8be0079c531659141344cd1fd0a4f28419497f9722a3daafe3b4186f6b6457e090600090a36033805473ffffffffffffffffffffffffffffffffffffffff19166001600160a01b0392909216919091179055565b6033546001600160a01b031633146120df5760405162461bcd60e51b815260206004820181905260248201527f4f776e61626c653a2063616c6c6572206973206e6f7420746865206f776e65726044820152606401610731565b6000818152606660209081526040808320805460ff191690558051848152918201929092527f77f1fcfcce67dc392d64f842056d2ec06c80986c47c910f7e79c5b23a2738d749101610a7a565b606854600160b81b900460ff16158061215557503360009081526065602052604090205460ff16155b1561216757612162612378565b612171565b6121716000610f71565b6103f1828261223d565b600054610100900460ff1680612194575060005460ff16155b6121f75760405162461bcd60e51b815260206004820152602e60248201527f496e697469616c697a61626c653a20636f6e747261637420697320616c72656160448201526d191e481a5b9a5d1a585b1a5e995960921b6064820152608401610731565b600054610100900460ff16158015612219576000805461ffff19166101011790555b6122216123d2565b612229612483565b8015610fe5576000805461ff001916905550565b600080805260676020527fd4e1ac8b62c3ff1e2c1b7113742533b8310ce5ab8a8767ead9ba8b250c7e3cc95490805b84518110156122fb57600085828151811061229757634e487b7160e01b600052603260045260246000fd5b602002602001015190506000610100826122b19190612e81565b90508381146122d9576000938452606760205260408085209590955580845293909220549291825b6122e4858388612585565b9450505080806122f390612e95565b91505061226c565b5060008181526067602052604090819020839055517ffacde3821ab1224682dd0ab6a805f71860b6ca6982ad044c8c4927ea4c6f14019061233f9086908690612db5565b60405180910390a150505050565b60008061235c61010084612ebc565b9390931c6001908116149392505050565b60006106b382610ba6565b6033546001600160a01b03163314610ae75760405162461bcd60e51b815260206004820152600960248201527f4e6f74206f776e657200000000000000000000000000000000000000000000006044820152606401610731565b600054610100900460ff16806123eb575060005460ff16155b61244e5760405162461bcd60e51b815260206004820152602e60248201527f496e697469616c697a61626c653a20636f6e747261637420697320616c72656160448201526d191e481a5b9a5d1a585b1a5e995960921b6064820152608401610731565b600054610100900460ff16158015612229576000805461ffff19166101011790558015610fe5576000805461ff001916905550565b600054610100900460ff168061249c575060005460ff16155b6124ff5760405162461bcd60e51b815260206004820152602e60248201527f496e697469616c697a61626c653a20636f6e747261637420697320616c72656160448201526d191e481a5b9a5d1a585b1a5e995960921b6064820152608401610731565b600054610100900460ff16158015612521576000805461ffff19166101011790555b6033805473ffffffffffffffffffffffffffffffffffffffff19163390811790915560405181906000907f8be0079c531659141344cd1fd0a4f28419497f9722a3daafe3b4186f6b6457e0908290a3508015610fe5576000805461ff001916905550565b60008061259461010085612ebc565b905082156125a9576001901b841790506125b3565b6001901b19841690505b9392505050565b60008083601f8401126125cb578182fd5b50813567ffffffffffffffff8111156125e2578182fd5b6020830191508360208260051b85010111156125fd57600080fd5b9250929050565b600082601f830112612614578081fd5b8135602061262961262483612e5d565b612e2c565b80838252828201915082860187848660051b8901011115612648578586fd5b855b858110156126665781358452928401929084019060010161264a565b5090979650505050505050565b600082601f830112612683578081fd5b813567ffffffffffffffff81111561269d5761269d612ee6565b6126b0601f8201601f1916602001612e2c565b8181528460208386010111156126c4578283fd5b816020850160208301379081016020019190915292915050565b6000602082840312156126ef578081fd5b81356125b381612efc565b60006020828403121561270b578081fd5b81516125b381612efc565b6000806000806080858703121561272b578283fd5b845161273681612efc565b8094505060208086015161274981612efc565b604087015190945061275a81612f11565b606087015190935067ffffffffffffffff811115612776578283fd5b8601601f81018813612786578283fd5b805161279461262482612e5d565b8082825284820191508484018b868560051b87010111156127b3578687fd5b8694505b838510156127d55780518352600194909401939185019185016127b7565b50979a9699509497505050505050565b600080600080600060a086880312156127fc578081fd5b853561280781612efc565b9450602086013561281781612efc565b9350604086013567ffffffffffffffff80821115612833578283fd5b61283f89838a01612604565b94506060880135915080821115612854578283fd5b61286089838a01612604565b93506080880135915080821115612875578283fd5b5061288288828901612673565b9150509295509295909350565b600080600080608085870312156128a4578384fd5b84356128af81612efc565b935060208501356128bf81612efc565b925060408501356128cf81612f11565b9150606085013567ffffffffffffffff8111156128ea578182fd5b6128f687828801612604565b91505092959194509250565b60008060008060808587031215612917578384fd5b843561292281612efc565b9350602085013561293281612efc565b925060408501359150606085013567ffffffffffffffff811115612954578182fd5b6128f687828801612673565b600080600080600060a08688031215612977578283fd5b853561298281612efc565b9450602086013561299281612efc565b93506040860135925060608601359150608086013567ffffffffffffffff8111156129bb578182fd5b61288288828901612673565b600080604083850312156129d9578182fd5b82356129e481612efc565b915060208301356129f481612f11565b809150509250929050565b60008060208385031215612a11578182fd5b823567ffffffffffffffff811115612a27578283fd5b612a33858286016125ba565b90969095509350505050565b60008060008060408587031215612a54578182fd5b843567ffffffffffffffff80821115612a6b578384fd5b612a77888389016125ba565b90965094506020870135915080821115612a8f578384fd5b50612a9c878288016125ba565b95989497509550505050565b600080600080600060608688031215612abf578283fd5b853567ffffffffffffffff80821115612ad6578485fd5b612ae289838a016125ba565b90975095506020880135915080821115612afa578485fd5b50612b07888289016125ba565b9094509250506040860135612b1b81612f11565b809150509295509295909350565b60008060408385031215612b3b578182fd5b823567ffffffffffffffff811115612b51578283fd5b612b5d85828601612604565b92505060208301356129f481612f11565b600060208284031215612b7f578081fd5b81356125b381612f11565b600060208284031215612b9b578081fd5b81516125b381612f11565b600060208284031215612bb7578081fd5b81356001600160e01b0319811681146125b3578182fd5b600060208284031215612bdf578081fd5b813567ffffffffffffffff811115612bf5578182fd5b610bd184828501612673565b600060208284031215612c12578081fd5b5035919050565b600060208284031215612c2a578081fd5b5051919050565b81835260007f07ffffffffffffffffffffffffffffffffffffffffffffffffffffffffffffff831115612c62578081fd5b8260051b80836020870137939093016020019283525090919050565b6000815180845260208085019450808401835b83811015612cad57815187529582019590820190600101612c91565b509495945050505050565b6001600160a01b0386168152606060208201526000612cdb606083018688612c31565b8281036040840152612cee818587612c31565b98975050505050505050565b6001600160a01b0383168152604060208201526000610bd16040830184612c7e565b6020808252825182820181905260009190848201906040850190845b81811015612d56578351151583529284019291840191600101612d38565b50909695505050505050565b602081526000610bd1602083018486612c31565b606081526000612d896060830186612c7e565b8281036020840152612d9b8186612c7e565b9150506001600160a01b0383166040830152949350505050565b604081526000612dc86040830185612c7e565b905082151560208301529392505050565b6000602080835283518082850152825b81811015612e0557858101830151858201604001528201612de9565b81811115612e165783604083870101525b50601f01601f1916929092016040019392505050565b604051601f8201601f1916810167ffffffffffffffff81118282101715612e5557612e55612ee6565b604052919050565b600067ffffffffffffffff821115612e7757612e77612ee6565b5060051b60200190565b600082612e9057612e90612ed0565b500490565b6000600019821415612eb557634e487b7160e01b81526011600452602481fd5b5060010190565b600082612ecb57612ecb612ed0565b500690565b634e487b7160e01b600052601260045260246000fd5b634e487b7160e01b600052604160045260246000fd5b6001600160a01b0381168114610fe557600080fd5b8015158114610fe557600080fdfea264697066735822122081e15b683cc8ad7253063f2246cf89e90cee26e5e7b47d17d53da8f64afbe96464736f6c63430008040033",
  "linkReferences": {},
  "deployedLinkReferences": {}
}