{
  "_format": "hh-sol-artifact-1",
  "contractName": "MarketMock",
  "sourceName": "contracts/mocks/MarketMock.sol",
  "abi": [
    {
      "inputs": [],
      "stateMutability": "nonpayable",
      "type": "constructor"
    },
    {
      "anonymous": false,
      "inputs": [
        {
          "indexed": true,
          "internalType": "address",
          "name": "owner",
          "type": "address"
        },
        {
          "indexed": true,
          "internalType": "address",
          "name": "spender",
          "type": "address"
        },
        {
          "indexed": false,
          "internalType": "uint256",
          "name": "value",
          "type": "uint256"
        }
      ],
      "name": "Approval",
      "type": "event"
    },
    {
      "anonymous": false,
      "inputs": [
        {
          "indexed": false,
          "internalType": "uint256",
          "name": "pending",
          "type": "uint256"
        },
        {
          "indexed": false,
          "internalType": "uint256",
          "name": "payoutNumerator",
          "type": "uint256"
        },
        {
          "indexed": false,
          "internalType": "uint256",
          "name": "payoutDenominator",
          "type": "uint256"
        },
        {
          "indexed": false,
          "internalType": "uint256",
          "name": "incidentTimestamp",
          "type": "uint256"
        },
        {
          "indexed": false,
          "internalType": "bytes32",
          "name": "merkleRoot",
          "type": "bytes32"
        },
        {
          "indexed": false,
          "internalType": "string",
          "name": "rawdata",
          "type": "string"
        },
        {
          "indexed": false,
          "internalType": "string",
          "name": "memo",
          "type": "string"
        }
      ],
      "name": "CoverApplied",
      "type": "event"
    },
    {
      "anonymous": false,
      "inputs": [
        {
          "indexed": true,
          "internalType": "address",
          "name": "withdrawer",
          "type": "address"
        },
        {
          "indexed": false,
          "internalType": "uint256",
          "name": "credit",
          "type": "uint256"
        }
      ],
      "name": "CreditDecrease",
      "type": "event"
    },
    {
      "anonymous": false,
      "inputs": [
        {
          "indexed": true,
          "internalType": "address",
          "name": "depositor",
          "type": "address"
        },
        {
          "indexed": false,
          "internalType": "uint256",
          "name": "credit",
          "type": "uint256"
        }
      ],
      "name": "CreditIncrease",
      "type": "event"
    },
    {
      "anonymous": false,
      "inputs": [
        {
          "indexed": true,
          "internalType": "address",
          "name": "depositor",
          "type": "address"
        },
        {
          "indexed": false,
          "internalType": "uint256",
          "name": "amount",
          "type": "uint256"
        },
        {
          "indexed": false,
          "internalType": "uint256",
          "name": "mint",
          "type": "uint256"
        }
      ],
      "name": "Deposit",
      "type": "event"
    },
    {
      "anonymous": false,
      "inputs": [
        {
          "indexed": true,
          "internalType": "uint256",
          "name": "id",
          "type": "uint256"
        },
        {
          "indexed": false,
          "internalType": "uint256",
          "name": "amount",
          "type": "uint256"
        },
        {
          "indexed": false,
          "internalType": "bytes32",
          "name": "target",
          "type": "bytes32"
        },
        {
          "indexed": false,
          "internalType": "uint256",
          "name": "startTime",
          "type": "uint256"
        },
        {
          "indexed": false,
          "internalType": "uint256",
          "name": "endTime",
          "type": "uint256"
        },
        {
          "indexed": false,
          "internalType": "address",
          "name": "insured",
          "type": "address"
        },
        {
          "indexed": false,
          "internalType": "uint256",
          "name": "premium",
          "type": "uint256"
        }
      ],
      "name": "Insured",
      "type": "event"
    },
    {
      "anonymous": false,
      "inputs": [
        {
          "indexed": false,
          "internalType": "enum PoolTemplate.MarketStatus",
          "name": "statusValue",
          "type": "uint8"
        }
      ],
      "name": "MarketStatusChanged",
      "type": "event"
    },
    {
      "anonymous": false,
      "inputs": [
        {
          "indexed": false,
          "internalType": "string",
          "name": "metadata",
          "type": "string"
        }
      ],
      "name": "MetadataChanged",
      "type": "event"
    },
    {
      "anonymous": false,
      "inputs": [
        {
          "indexed": false,
          "internalType": "bool",
          "name": "paused",
          "type": "bool"
        }
      ],
      "name": "Paused",
      "type": "event"
    },
    {
      "anonymous": false,
      "inputs": [
        {
          "indexed": true,
          "internalType": "uint256",
          "name": "id",
          "type": "uint256"
        },
        {
          "indexed": false,
          "internalType": "address",
          "name": "insured",
          "type": "address"
        },
        {
          "indexed": false,
          "internalType": "bytes32",
          "name": "target",
          "type": "bytes32"
        },
        {
          "indexed": false,
          "internalType": "uint256",
          "name": "amount",
          "type": "uint256"
        },
        {
          "indexed": false,
          "internalType": "uint256",
          "name": "payout",
          "type": "uint256"
        }
      ],
      "name": "Redeemed",
      "type": "event"
    },
    {
      "anonymous": false,
      "inputs": [
        {
          "indexed": true,
          "internalType": "address",
          "name": "from",
          "type": "address"
        },
        {
          "indexed": true,
          "internalType": "address",
          "name": "to",
          "type": "address"
        },
        {
          "indexed": false,
          "internalType": "uint256",
          "name": "value",
          "type": "uint256"
        }
      ],
      "name": "Transfer",
      "type": "event"
    },
    {
      "anonymous": false,
      "inputs": [
        {
          "indexed": true,
          "internalType": "uint256",
          "name": "id",
          "type": "uint256"
        },
        {
          "indexed": false,
          "internalType": "address",
          "name": "from",
          "type": "address"
        },
        {
          "indexed": false,
          "internalType": "address",
          "name": "to",
          "type": "address"
        }
      ],
      "name": "TransferInsurance",
      "type": "event"
    },
    {
      "anonymous": false,
      "inputs": [
        {
          "indexed": true,
          "internalType": "uint256",
          "name": "id",
          "type": "uint256"
        },
        {
          "indexed": false,
          "internalType": "uint256",
          "name": "amount",
          "type": "uint256"
        }
      ],
      "name": "Unlocked",
      "type": "event"
    },
    {
      "anonymous": false,
      "inputs": [
        {
          "indexed": true,
          "internalType": "address",
          "name": "withdrawer",
          "type": "address"
        },
        {
          "indexed": false,
          "internalType": "uint256",
          "name": "amount",
          "type": "uint256"
        },
        {
          "indexed": false,
          "internalType": "uint256",
          "name": "retVal",
          "type": "uint256"
        }
      ],
      "name": "Withdraw",
      "type": "event"
    },
    {
      "anonymous": false,
      "inputs": [
        {
          "indexed": true,
          "internalType": "address",
          "name": "withdrawer",
          "type": "address"
        },
        {
          "indexed": false,
          "internalType": "uint256",
          "name": "amount",
          "type": "uint256"
        },
        {
          "indexed": false,
          "internalType": "uint256",
          "name": "time",
          "type": "uint256"
        }
      ],
      "name": "WithdrawRequested",
      "type": "event"
    },
    {
      "inputs": [],
      "name": "MAGIC_SCALE_1E6",
      "outputs": [
        {
          "internalType": "uint256",
          "name": "",
          "type": "uint256"
        }
      ],
      "stateMutability": "view",
      "type": "function"
    },
    {
      "inputs": [],
      "name": "allInsuranceCount",
      "outputs": [
        {
          "internalType": "uint256",
          "name": "",
          "type": "uint256"
        }
      ],
      "stateMutability": "view",
      "type": "function"
    },
    {
      "inputs": [
        {
          "internalType": "uint256",
          "name": "_credit",
          "type": "uint256"
        }
      ],
      "name": "allocateCredit",
      "outputs": [
        {
          "internalType": "uint256",
          "name": "_pending",
          "type": "uint256"
        }
      ],
      "stateMutability": "nonpayable",
      "type": "function"
    },
    {
      "inputs": [
        {
          "internalType": "address",
          "name": "_index",
          "type": "address"
        }
      ],
      "name": "allocatedCredit",
      "outputs": [
        {
          "internalType": "uint256",
          "name": "",
          "type": "uint256"
        }
      ],
      "stateMutability": "view",
      "type": "function"
    },
    {
      "inputs": [
        {
          "internalType": "address",
          "name": "owner",
          "type": "address"
        },
        {
          "internalType": "address",
          "name": "spender",
          "type": "address"
        }
      ],
      "name": "allowance",
      "outputs": [
        {
          "internalType": "uint256",
          "name": "",
          "type": "uint256"
        }
      ],
      "stateMutability": "view",
      "type": "function"
    },
    {
      "inputs": [
        {
          "internalType": "uint256",
          "name": "_pending",
          "type": "uint256"
        },
        {
          "internalType": "uint256",
          "name": "_payoutNumerator",
          "type": "uint256"
        },
        {
          "internalType": "uint256",
          "name": "_payoutDenominator",
          "type": "uint256"
        },
        {
          "internalType": "uint256",
          "name": "_incidentTimestamp",
          "type": "uint256"
        },
        {
          "internalType": "bytes32",
          "name": "_merkleRoot",
          "type": "bytes32"
        },
        {
          "internalType": "string",
          "name": "_rawdata",
          "type": "string"
        },
        {
          "internalType": "string",
          "name": "_memo",
          "type": "string"
        }
      ],
      "name": "applyCover",
      "outputs": [],
      "stateMutability": "nonpayable",
      "type": "function"
    },
    {
      "inputs": [
        {
          "internalType": "address",
          "name": "spender",
          "type": "address"
        },
        {
          "internalType": "uint256",
          "name": "amount",
          "type": "uint256"
        }
      ],
      "name": "approve",
      "outputs": [
        {
          "internalType": "bool",
          "name": "",
          "type": "bool"
        }
      ],
      "stateMutability": "nonpayable",
      "type": "function"
    },
    {
      "inputs": [],
      "name": "attributionDebt",
      "outputs": [
        {
          "internalType": "uint256",
          "name": "",
          "type": "uint256"
        }
      ],
      "stateMutability": "view",
      "type": "function"
    },
    {
      "inputs": [],
      "name": "availableBalance",
      "outputs": [
        {
          "internalType": "uint256",
          "name": "_balance",
          "type": "uint256"
        }
      ],
      "stateMutability": "view",
      "type": "function"
    },
    {
      "inputs": [
        {
          "internalType": "address",
          "name": "account",
          "type": "address"
        }
      ],
      "name": "balanceOf",
      "outputs": [
        {
          "internalType": "uint256",
          "name": "",
          "type": "uint256"
        }
      ],
      "stateMutability": "view",
      "type": "function"
    },
    {
      "inputs": [
        {
          "internalType": "string",
          "name": "_metadata",
          "type": "string"
        }
      ],
      "name": "changeMetadata",
      "outputs": [],
      "stateMutability": "nonpayable",
      "type": "function"
    },
    {
      "inputs": [],
      "name": "decimals",
      "outputs": [
        {
          "internalType": "uint8",
          "name": "",
          "type": "uint8"
        }
      ],
      "stateMutability": "view",
      "type": "function"
    },
    {
      "inputs": [
        {
          "internalType": "address",
          "name": "spender",
          "type": "address"
        },
        {
          "internalType": "uint256",
          "name": "subtractedValue",
          "type": "uint256"
        }
      ],
      "name": "decreaseAllowance",
      "outputs": [
        {
          "internalType": "bool",
          "name": "",
          "type": "bool"
        }
      ],
      "stateMutability": "nonpayable",
      "type": "function"
    },
    {
      "inputs": [
        {
          "internalType": "uint256",
          "name": "_amount",
          "type": "uint256"
        }
      ],
      "name": "deposit",
      "outputs": [
        {
          "internalType": "uint256",
          "name": "_mintAmount",
          "type": "uint256"
        }
      ],
      "stateMutability": "nonpayable",
      "type": "function"
    },
    {
      "inputs": [
        {
          "internalType": "uint256",
          "name": "_amount",
          "type": "uint256"
        },
        {
          "internalType": "uint256",
          "name": "_span",
          "type": "uint256"
        }
      ],
      "name": "getPremium",
      "outputs": [
        {
          "internalType": "uint256",
          "name": "premium",
          "type": "uint256"
        }
      ],
      "stateMutability": "view",
      "type": "function"
    },
    {
      "inputs": [],
      "name": "incident",
      "outputs": [
        {
          "internalType": "uint256",
          "name": "payoutNumerator",
          "type": "uint256"
        },
        {
          "internalType": "uint256",
          "name": "payoutDenominator",
          "type": "uint256"
        },
        {
          "internalType": "uint256",
          "name": "incidentTimestamp",
          "type": "uint256"
        },
        {
          "internalType": "bytes32",
          "name": "merkleRoot",
          "type": "bytes32"
        }
      ],
      "stateMutability": "view",
      "type": "function"
    },
    {
      "inputs": [
        {
          "internalType": "address",
          "name": "spender",
          "type": "address"
        },
        {
          "internalType": "uint256",
          "name": "addedValue",
          "type": "uint256"
        }
      ],
      "name": "increaseAllowance",
      "outputs": [
        {
          "internalType": "bool",
          "name": "",
          "type": "bool"
        }
      ],
      "stateMutability": "nonpayable",
      "type": "function"
    },
    {
      "inputs": [
        {
          "internalType": "uint256",
          "name": "",
          "type": "uint256"
        }
      ],
      "name": "indexList",
      "outputs": [
        {
          "internalType": "address",
          "name": "",
          "type": "address"
        }
      ],
      "stateMutability": "view",
      "type": "function"
    },
    {
      "inputs": [
        {
          "internalType": "address",
          "name": "",
          "type": "address"
        }
      ],
      "name": "indicies",
      "outputs": [
        {
          "internalType": "uint256",
          "name": "credit",
          "type": "uint256"
        },
        {
          "internalType": "uint256",
          "name": "rewardDebt",
          "type": "uint256"
        },
        {
          "internalType": "bool",
          "name": "exist",
          "type": "bool"
        }
      ],
      "stateMutability": "view",
      "type": "function"
    },
    {
      "inputs": [
        {
          "internalType": "string",
          "name": "_metaData",
          "type": "string"
        },
        {
          "internalType": "uint256[]",
          "name": "_conditions",
          "type": "uint256[]"
        },
        {
          "internalType": "address[]",
          "name": "_references",
          "type": "address[]"
        }
      ],
      "name": "initialize",
      "outputs": [],
      "stateMutability": "nonpayable",
      "type": "function"
    },
    {
      "inputs": [],
      "name": "initialized",
      "outputs": [
        {
          "internalType": "bool",
          "name": "",
          "type": "bool"
        }
      ],
      "stateMutability": "view",
      "type": "function"
    },
    {
      "inputs": [
        {
          "internalType": "uint256",
          "name": "",
          "type": "uint256"
        }
      ],
      "name": "insurances",
      "outputs": [
        {
          "internalType": "uint256",
          "name": "id",
          "type": "uint256"
        },
        {
          "internalType": "uint256",
          "name": "startTime",
          "type": "uint256"
        },
        {
          "internalType": "uint256",
          "name": "endTime",
          "type": "uint256"
        },
        {
          "internalType": "uint256",
          "name": "amount",
          "type": "uint256"
        },
        {
          "internalType": "bytes32",
          "name": "target",
          "type": "bytes32"
        },
        {
          "internalType": "address",
          "name": "insured",
          "type": "address"
        },
        {
          "internalType": "bool",
          "name": "status",
          "type": "bool"
        }
      ],
      "stateMutability": "view",
      "type": "function"
    },
    {
      "inputs": [
        {
          "internalType": "uint256",
          "name": "_amount",
          "type": "uint256"
        },
        {
          "internalType": "uint256",
          "name": "_maxCost",
          "type": "uint256"
        },
        {
          "internalType": "uint256",
          "name": "_span",
          "type": "uint256"
        },
        {
          "internalType": "bytes32",
          "name": "_target",
          "type": "bytes32"
        }
      ],
      "name": "insure",
      "outputs": [
        {
          "internalType": "uint256",
          "name": "",
          "type": "uint256"
        }
      ],
      "stateMutability": "nonpayable",
      "type": "function"
    },
    {
      "inputs": [],
      "name": "lockedAmount",
      "outputs": [
        {
          "internalType": "uint256",
          "name": "",
          "type": "uint256"
        }
      ],
      "stateMutability": "view",
      "type": "function"
    },
    {
      "inputs": [],
      "name": "marketStatus",
      "outputs": [
        {
          "internalType": "enum PoolTemplate.MarketStatus",
          "name": "",
          "type": "uint8"
        }
      ],
      "stateMutability": "view",
      "type": "function"
    },
    {
      "inputs": [],
      "name": "metadata",
      "outputs": [
        {
          "internalType": "string",
          "name": "",
          "type": "string"
        }
      ],
      "stateMutability": "view",
      "type": "function"
    },
    {
      "inputs": [
        {
          "internalType": "address",
          "name": "_to",
          "type": "address"
        },
        {
          "internalType": "uint256",
          "name": "_amount",
          "type": "uint256"
        }
      ],
      "name": "mint",
      "outputs": [],
      "stateMutability": "nonpayable",
      "type": "function"
    },
    {
      "inputs": [],
      "name": "name",
      "outputs": [
        {
          "internalType": "string",
          "name": "",
          "type": "string"
        }
      ],
      "stateMutability": "view",
      "type": "function"
    },
    {
      "inputs": [],
      "name": "originalLiquidity",
      "outputs": [
        {
          "internalType": "uint256",
          "name": "_balance",
          "type": "uint256"
        }
      ],
      "stateMutability": "view",
      "type": "function"
    },
    {
      "inputs": [],
      "name": "parameters",
      "outputs": [
        {
          "internalType": "contract IParameters",
          "name": "",
          "type": "address"
        }
      ],
      "stateMutability": "view",
      "type": "function"
    },
    {
      "inputs": [],
      "name": "paused",
      "outputs": [
        {
          "internalType": "bool",
          "name": "",
          "type": "bool"
        }
      ],
      "stateMutability": "view",
      "type": "function"
    },
    {
      "inputs": [],
      "name": "pendingEnd",
      "outputs": [
        {
          "internalType": "uint256",
          "name": "",
          "type": "uint256"
        }
      ],
      "stateMutability": "view",
      "type": "function"
    },
    {
      "inputs": [
        {
          "internalType": "address",
          "name": "_index",
          "type": "address"
        }
      ],
      "name": "pendingPremium",
      "outputs": [
        {
          "internalType": "uint256",
          "name": "",
          "type": "uint256"
        }
      ],
      "stateMutability": "view",
      "type": "function"
    },
    {
      "inputs": [],
      "name": "rate",
      "outputs": [
        {
          "internalType": "uint256",
          "name": "",
          "type": "uint256"
        }
      ],
      "stateMutability": "view",
      "type": "function"
    },
    {
      "inputs": [
        {
          "internalType": "uint256",
          "name": "_id",
          "type": "uint256"
        },
        {
          "internalType": "bytes32[]",
          "name": "_merkleProof",
          "type": "bytes32[]"
        }
      ],
      "name": "redeem",
      "outputs": [],
      "stateMutability": "nonpayable",
      "type": "function"
    },
    {
      "inputs": [],
      "name": "registry",
      "outputs": [
        {
          "internalType": "contract IRegistry",
          "name": "",
          "type": "address"
        }
      ],
      "stateMutability": "view",
      "type": "function"
    },
    {
      "inputs": [
        {
          "internalType": "uint256",
          "name": "_amount",
          "type": "uint256"
        }
      ],
      "name": "requestWithdraw",
      "outputs": [],
      "stateMutability": "nonpayable",
      "type": "function"
    },
    {
      "inputs": [],
      "name": "resume",
      "outputs": [],
      "stateMutability": "nonpayable",
      "type": "function"
    },
    {
      "inputs": [],
      "name": "rewardPerCredit",
      "outputs": [
        {
          "internalType": "uint256",
          "name": "",
          "type": "uint256"
        }
      ],
      "stateMutability": "view",
      "type": "function"
    },
    {
      "inputs": [
        {
          "internalType": "bool",
          "name": "_state",
          "type": "bool"
        }
      ],
      "name": "setPaused",
      "outputs": [],
      "stateMutability": "nonpayable",
      "type": "function"
    },
    {
      "inputs": [],
      "name": "symbol",
      "outputs": [
        {
          "internalType": "string",
          "name": "",
          "type": "string"
        }
      ],
      "stateMutability": "view",
      "type": "function"
    },
    {
      "inputs": [],
      "name": "totalCredit",
      "outputs": [
        {
          "internalType": "uint256",
          "name": "",
          "type": "uint256"
        }
      ],
      "stateMutability": "view",
      "type": "function"
    },
    {
      "inputs": [],
      "name": "totalLiquidity",
      "outputs": [
        {
          "internalType": "uint256",
          "name": "_balance",
          "type": "uint256"
        }
      ],
      "stateMutability": "view",
      "type": "function"
    },
    {
      "inputs": [],
      "name": "totalSupply",
      "outputs": [
        {
          "internalType": "uint256",
          "name": "",
          "type": "uint256"
        }
      ],
      "stateMutability": "view",
      "type": "function"
    },
    {
      "inputs": [
        {
          "internalType": "address",
          "name": "recipient",
          "type": "address"
        },
        {
          "internalType": "uint256",
          "name": "amount",
          "type": "uint256"
        }
      ],
      "name": "transfer",
      "outputs": [
        {
          "internalType": "bool",
          "name": "",
          "type": "bool"
        }
      ],
      "stateMutability": "nonpayable",
      "type": "function"
    },
    {
      "inputs": [
        {
          "internalType": "address",
          "name": "sender",
          "type": "address"
        },
        {
          "internalType": "address",
          "name": "recipient",
          "type": "address"
        },
        {
          "internalType": "uint256",
          "name": "amount",
          "type": "uint256"
        }
      ],
      "name": "transferFrom",
      "outputs": [
        {
          "internalType": "bool",
          "name": "",
          "type": "bool"
        }
      ],
      "stateMutability": "nonpayable",
      "type": "function"
    },
    {
      "inputs": [
        {
          "internalType": "uint256",
          "name": "_id",
          "type": "uint256"
        },
        {
          "internalType": "address",
          "name": "_to",
          "type": "address"
        }
      ],
      "name": "transferInsurance",
      "outputs": [],
      "stateMutability": "nonpayable",
      "type": "function"
    },
    {
      "inputs": [
        {
          "internalType": "uint256",
          "name": "_id",
          "type": "uint256"
        }
      ],
      "name": "unlock",
      "outputs": [],
      "stateMutability": "nonpayable",
      "type": "function"
    },
    {
      "inputs": [
        {
          "internalType": "uint256[]",
          "name": "_ids",
          "type": "uint256[]"
        }
      ],
      "name": "unlockBatch",
      "outputs": [],
      "stateMutability": "nonpayable",
      "type": "function"
    },
    {
      "inputs": [],
      "name": "utilizationRate",
      "outputs": [
        {
          "internalType": "uint256",
          "name": "_rate",
          "type": "uint256"
        }
      ],
      "stateMutability": "view",
      "type": "function"
    },
    {
      "inputs": [
        {
          "internalType": "address",
          "name": "_owner",
          "type": "address"
        }
      ],
      "name": "valueOfUnderlying",
      "outputs": [
        {
          "internalType": "uint256",
          "name": "",
          "type": "uint256"
        }
      ],
      "stateMutability": "view",
      "type": "function"
    },
    {
      "inputs": [],
      "name": "vault",
      "outputs": [
        {
          "internalType": "contract IVault",
          "name": "",
          "type": "address"
        }
      ],
      "stateMutability": "view",
      "type": "function"
    },
    {
      "inputs": [
        {
          "internalType": "uint256",
          "name": "_amount",
          "type": "uint256"
        }
      ],
      "name": "withdraw",
      "outputs": [
        {
          "internalType": "uint256",
          "name": "_retVal",
          "type": "uint256"
        }
      ],
      "stateMutability": "nonpayable",
      "type": "function"
    },
    {
      "inputs": [
        {
          "internalType": "uint256",
          "name": "_credit",
          "type": "uint256"
        }
      ],
      "name": "withdrawCredit",
      "outputs": [
        {
          "internalType": "uint256",
          "name": "_pending",
          "type": "uint256"
        }
      ],
      "stateMutability": "nonpayable",
      "type": "function"
    },
    {
      "inputs": [
        {
          "internalType": "address",
          "name": "",
          "type": "address"
        }
      ],
      "name": "withdrawalReq",
      "outputs": [
        {
          "internalType": "uint256",
          "name": "timestamp",
          "type": "uint256"
        },
        {
          "internalType": "uint256",
          "name": "amount",
          "type": "uint256"
        }
      ],
      "stateMutability": "view",
      "type": "function"
    },
    {
      "inputs": [
        {
          "internalType": "uint256",
          "name": "_value",
          "type": "uint256"
        }
      ],
      "name": "worth",
      "outputs": [
        {
          "internalType": "uint256",
          "name": "_amount",
          "type": "uint256"
        }
      ],
      "stateMutability": "view",
      "type": "function"
    }
  ],
  "bytecode": "0x60c0604052601260808190527124b739bab932a220a7902628102a37b5b2b760711b60a090815262000035916004919062000093565b50604080518082019091526003808252620694c560ec1b6020909201918252620000629160059162000093565b506006805460ff191660121790553480156200007d57600080fd5b506006805461ff00191661010017905562000176565b828054620000a19062000139565b90600052602060002090601f016020900481019282620000c5576000855562000110565b82601f10620000e057805160ff191683800117855562000110565b8280016001018555821562000110579182015b8281111562000110578251825591602001919060010190620000f3565b506200011e92915062000122565b5090565b5b808211156200011e576000815560010162000123565b600181811c908216806200014e57607f821691505b602082108114156200017057634e487b7160e01b600052602260045260246000fd5b50919050565b614b0980620001866000396000f3fe608060405234801561001057600080fd5b50600436106103775760003560e01c80636c321c8a116101d3578063a9059cbb11610104578063d9b6225e116100a2578063e0e081d71161007c578063e0e081d714610859578063ef6f886a14610873578063efb6f55c14610886578063fbfa77cf1461088f57600080fd5b8063d9b6225e146107fa578063dd1400dd1461080d578063dd62ed3e1461082057600080fd5b8063b0d9420a116100de578063b0d9420a146107c1578063b6b55f25146107d4578063c7c9ed7f146107e7578063ca145f34146107f157600080fd5b8063a9059cbb14610793578063ab2f0e51146107a6578063ac738742146107ae57600080fd5b806388470ef0116101715780639d4c6d911161014b5780639d4c6d911461075b5780639fe6980014610764578063a43d640414610777578063a457c2d71461078057600080fd5b806388470ef01461072d578063890357301461074057806395d89b411461075357600080fd5b80637b103999116101ad5780637b103999146106c957806382275208146106f4578063865435c814610707578063876ce18f1461071a57600080fd5b80636c321c8a1461068557806370a082311461068d578063745400c9146106b657600080fd5b80632e1a7d4d116102ad5780634201cde61161024b5780635c975abb116102255780635c975abb146106075780635d9e8ff71461061a5780636198e339146106695780636ab28bc81461067c57600080fd5b80634201cde61461052657806359fb49f9146105395780635c37bcdd146105d157600080fd5b8063392f37e911610287578063392f37e9146104e557806339509351146104ed578063409c71821461050057806340c10f191461051357600080fd5b80632e1a7d4d14610481578063313ce5671461049457806335c84548146104a957600080fd5b806316c38b3c1161031a5780631e34b3d7116102f45780631e34b3d71461044a57806323b872dd1461045357806329d7873d146104665780632c4e722e1461047957600080fd5b806316c38b3c1461041c57806318160ddd1461042f5780631872f73c1461043757600080fd5b8063095ea7b311610356578063095ea7b3146103b65780630e3ee73d146103d957806315770f9214610402578063158ef93e1461040a57600080fd5b8062d89ed61461037c578063046f7da21461039757806306fdde03146103a1575b600080fd5b6103846108a2565b6040519081526020015b60405180910390f35b61039f6109ad565b005b6103a9610d5c565b60405161038e91906147ed565b6103c96103c43660046142ab565b610dee565b604051901515815260200161038e565b6103846103e73660046141f7565b6001600160a01b031660009081526010602052604090205490565b610384610e05565b6006546103c990610100900460ff1681565b61039f61042a3660046143a1565b610e1c565b600254610384565b6103846104453660046141f7565b610f40565b610384600e5481565b6103c961046136600461426a565b610fb4565b61039f61047436600461458a565b611065565b610384611181565b61038461048f366004614558565b6111bc565b60065460405160ff909116815260200161038e565b6104d06104b73660046141f7565b6013602052600090815260409020805460019091015482565b6040805192835260208301919091520161038e565b6103a961170a565b6103c96104fb3660046142ab565b611798565b61038461050e36600461461d565b6117cf565b61039f6105213660046142ab565b611e32565b61039f61053436600461464f565b611e40565b610591610547366004614558565b60146020526000908152604090208054600182015460028301546003840154600485015460059095015493949293919290916001600160a01b03811690600160a01b900460ff1687565b60408051978852602088019690965294860193909352606085019190915260808401526001600160a01b031660a0830152151560c082015260e00161038e565b6016546017546018546019546105e79392919084565b60408051948552602085019390935291830152606082015260800161038e565b6006546103c99062010000900460ff1681565b61064c6106283660046141f7565b60106020526000908152604090208054600182015460029092015490919060ff1683565b60408051938452602084019290925215159082015260600161038e565b61039f610677366004614558565b6120df565b610384600c5481565b610384612281565b61038461069b3660046141f7565b6001600160a01b031660009081526020819052604090205490565b61039f6106c4366004614558565b6122a5565b6009546106dc906001600160a01b031681565b6040516001600160a01b03909116815260200161038e565b6103846107023660046145fb565b6123a2565b610384610715366004614558565b61244a565b6106dc610728366004614558565b6124bd565b61039f61073b3660046145af565b6124e7565b6008546106dc906001600160a01b031681565b6103a96128f1565b61038460155481565b61039f61077236600461435f565b612900565b610384600d5481565b6103c961078e3660046142ab565b612943565b6103c96107a13660046142ab565b6129de565b6103846129eb565b6103846107bc3660046141f7565b612a07565b6103846107cf366004614558565b612a4d565b6103846107e2366004614558565b612ce3565b610384620f424081565b610384600f5481565b61039f6108083660046143db565b612e7e565b61039f61081b366004614411565b612f7e565b61038461082e366004614231565b6001600160a01b03918216600090815260016020908152604080832093909416825291909152205490565b6012546108669060ff1681565b60405161038e91906147b1565b610384610881366004614558565b613570565b610384600b5481565b600a546106dc906001600160a01b031681565b600a54600b5460405163f8ba677f60e01b815260048101919091526000916001600160a01b03169063f8ba677f9060240160206040518083038186803b1580156108eb57600080fd5b505afa1580156108ff573d6000803e3d6000fd5b505050506040513d601f19601f820116820180604052508101906109239190614571565b600a546040516317cf780960e11b81523060048201526001600160a01b0390911690632f9ef0129060240160206040518083038186803b15801561096657600080fd5b505afa15801561097a573d6000803e3d6000fd5b505050506040513d601f19601f8201168201806040525081019061099e9190614571565b6109a89190614985565b905090565b600160125460ff1660018111156109c6576109c6614a6e565b1480156109d4575042600f54105b610a255760405162461bcd60e51b815260206004820152601760248201527f4552524f523a20554e41424c455f544f5f524553554d4500000000000000000060448201526064015b60405180910390fd5b600a54604051632ecd4e7d60e01b81523060048201526000916001600160a01b031690632ecd4e7d9060240160206040518083038186803b158015610a6957600080fd5b505afa158015610a7d573d6000803e3d6000fd5b505050506040513d601f19601f82011682018060405250810190610aa19190614571565b600d549091506000610ab1610e05565b620f4240610abf8486614966565b610ac99190614966565b610ad39190614952565b90506000805b601154811015610bef57600060118281548110610af857610af8614a84565b60009182526020808320909101546001600160a01b031680835260109091526040909120549091508015610bda57600086610b36620f424084614966565b610b409190614952565b90506000610b4e8783613794565b60405163f46c0f2960e01b8152600481018290529091506001600160a01b0385169063f46c0f2990602401602060405180830381600087803b158015610b9357600080fd5b505af1158015610ba7573d6000803e3d6000fd5b505050506040513d601f19601f82011682018060405250810190610bcb9190614571565b610bd5908761493a565b955050505b50508080610be7906149fd565b915050610ad9565b506000610bff620f424084614952565b610c099086614985565b9050600082610c1b620f424086614952565b610c259190614985565b90508115610cb357600a5460405163f314ad8360e01b8152600481018490523060248201526001600160a01b039091169063f314ad8390604401602060405180830381600087803b158015610c7957600080fd5b505af1158015610c8d573d6000803e3d6000fd5b505050506040513d601f19601f82011682018060405250810190610cb19190614571565b505b600a54604051637d42977b60e01b8152600481018390526001600160a01b0390911690637d42977b90602401600060405180830381600087803b158015610cf957600080fd5b505af1158015610d0d573d6000803e3d6000fd5b50506012805460ff1916905550506040517fb786c19cad4ec6fc2aeb481fb6b1473feb22fe8caf8abfcb7702a077e98845e490610d4c906000906147b1565b60405180910390a1505050505050565b606060048054610d6b906149c8565b80601f0160208091040260200160405190810160405280929190818152602001828054610d97906149c8565b8015610de45780601f10610db957610100808354040283529160200191610de4565b820191906000526020600020905b815481529060010190602001808311610dc757829003601f168201915b5050505050905090565b6000610dfb3384846137d2565b5060015b92915050565b6000600d54610e126108a2565b6109a8919061493a565b600860009054906101000a90046001600160a01b03166001600160a01b031663893d20e86040518163ffffffff1660e01b815260040160206040518083038186803b158015610e6a57600080fd5b505afa158015610e7e573d6000803e3d6000fd5b505050506040513d601f19601f82011682018060405250810190610ea29190614214565b6001600160a01b0316336001600160a01b031614610ed25760405162461bcd60e51b8152600401610a1c90614820565b60065460ff6201000090910416151581151514610f3d5760068054821515620100000262ff0000199091161790556040517f0e2fb031ee032dc02d8011dc50b816eb450cf856abd8261680dac74f72165bd290610f3490831515815260200190565b60405180910390a15b50565b6001600160a01b03811660009081526010602052604081205480610f675750600092915050565b610fa7620f4240600e5483610f7c9190614966565b610f869190614952565b6001600160a01b0385166000908152601060205260409020600101546138f6565b9392505050565b50919050565b6000610fc1848484613919565b6001600160a01b0384166000908152600160209081526040808320338452909152902054828110156110465760405162461bcd60e51b815260206004820152602860248201527f45524332303a207472616e7366657220616d6f756e74206578636565647320616044820152676c6c6f77616e636560c01b6064820152608401610a1c565b61105a85336110558685614985565b6137d2565b506001949350505050565b60008281526014602052604090206001600160a01b03821615801590611097575060058101546001600160a01b031633145b80156110a7575042816002015410155b80156110c357506005810154600160a01b900460ff1615156001145b6111205760405162461bcd60e51b815260206004820152602860248201527f4552524f523a20494e535552414e43455f5452414e534645525f4241445f434f6044820152674e444954494f4e5360c01b6064820152608401610a1c565b6005810180546001600160a01b0319166001600160a01b03841690811790915560408051338152602081019290925284917fd6ef8c97cfce9acf205f5496ffd6a7e294607ff94c4ce7ab6a78ad475242e977910160405180910390a2505050565b60008061118d60025490565b11156111b657600254620f42406111a26108a2565b6111ac9190614966565b6109a89190614952565b50600090565b6000806111c860025490565b9050806112175760405162461bcd60e51b815260206004820152601d60248201527f4552524f523a204e4f5f415641494c41424c455f4c49515549444954590000006044820152606401610a1c565b60006112216108a2565b90508161122e8286614966565b6112389190614952565b9250600060125460ff16600181111561125357611253614a6e565b146112a05760405162461bcd60e51b815260206004820152601960248201527f4552524f523a205749544844524157414c5f50454e44494e47000000000000006044820152606401610a1c565b6008546040516319ebf47360e21b815233600482015242916001600160a01b0316906367afd1cc9060240160206040518083038186803b1580156112e357600080fd5b505afa1580156112f7573d6000803e3d6000fd5b505050506040513d601f19601f8201168201806040525081019061131b9190614571565b33600090815260136020526040902054611335919061493a565b106113825760405162461bcd60e51b815260206004820152601760248201527f4552524f523a205749544844524157414c5f51554555450000000000000000006044820152606401610a1c565b600854604051631966357360e11b815233600482015242916001600160a01b0316906332cc6ae69060240160206040518083038186803b1580156113c557600080fd5b505afa1580156113d9573d6000803e3d6000fd5b505050506040513d601f19601f820116820180604052508101906113fd9190614571565b6008546040516319ebf47360e21b81523360048201526001600160a01b03909116906367afd1cc9060240160206040518083038186803b15801561144057600080fd5b505afa158015611454573d6000803e3d6000fd5b505050506040513d601f19601f820116820180604052508101906114789190614571565b33600090815260136020526040902054611492919061493a565b61149c919061493a565b116114f55760405162461bcd60e51b815260206004820152602360248201527f4552524f523a205749544844524157414c5f4e4f5f4143544956455f524551556044820152621154d560ea1b6064820152608401610a1c565b336000908152601360205260409020600101548411156115625760405162461bcd60e51b815260206004820152602260248201527f4552524f523a205749544844524157414c5f45584345454445445f524551554560448201526114d560f21b6064820152608401610a1c565b600084116115ab5760405162461bcd60e51b81526020600482015260166024820152754552524f523a205749544844524157414c5f5a45524f60501b6044820152606401610a1c565b6115b36129eb565b8311156116115760405162461bcd60e51b815260206004820152602660248201527f4552524f523a2057495448445241575f494e53554646494349454e545f4c495160448201526555494449545960d01b6064820152608401610a1c565b3360009081526013602052604081206001018054869290611633908490614985565b9091555061164390503385613afd565b600a546040516308b67eeb60e41b8152600481018590523360248201526001600160a01b0390911690638b67eeb090604401602060405180830381600087803b15801561168f57600080fd5b505af11580156116a3573d6000803e3d6000fd5b505050506040513d601f19601f820116820180604052508101906116c79190614571565b50604080518581526020810185905233917ff279e6a1f5e320cca91135676d9cb6e44ca8a08c0b88342bcdb1144f6511b568910160405180910390a25050919050565b60078054611717906149c8565b80601f0160208091040260200160405190810160405280929190818152602001828054611743906149c8565b80156117905780601f1061176557610100808354040283529160200191611790565b820191906000526020600020905b81548152906001019060200180831161177357829003601f168201915b505050505081565b3360008181526001602090815260408083206001600160a01b03871684529091528120549091610dfb91859061105590869061493a565b6000806117dc428561493a565b905060006117ea87866123a2565b600854604051638198edbf60e01b81523360048201529192506000916001600160a01b0390911690638198edbf9060240160206040518083038186803b15801561183357600080fd5b505afa158015611847573d6000803e3d6000fd5b505050506040513d601f19601f8201168201806040525081019061186b9190614571565b90506118756129eb565b8811156118d55760405162461bcd60e51b815260206004820152602860248201527f4552524f523a20494e535552455f45584345454445445f415641494c41424c456044820152675f42414c414e434560c01b6064820152608401610a1c565b868211156119255760405162461bcd60e51b815260206004820152601f60248201527f4552524f523a20494e535552455f45584345454445445f4d41585f434f5354006044820152606401610a1c565b6301e133808611156119795760405162461bcd60e51b815260206004820152601f60248201527f4552524f523a20494e535552455f45584345454445445f4d41585f5350414e006044820152606401610a1c565b6008546040516343866cb160e11b815233600482015287916001600160a01b03169063870cd9629060240160206040518083038186803b1580156119bc57600080fd5b505afa1580156119d0573d6000803e3d6000fd5b505050506040513d601f19601f820116820180604052508101906119f49190614571565b1115611a425760405162461bcd60e51b815260206004820152601c60248201527f4552524f523a20494e535552455f5350414e5f42454c4f575f4d494e000000006044820152606401610a1c565b600060125460ff166001811115611a5b57611a5b614a6e565b14611aa85760405162461bcd60e51b815260206004820152601c60248201527f4552524f523a20494e535552455f4d41524b45545f50454e44494e47000000006044820152606401610a1c565b60065462010000900460ff1615611b015760405162461bcd60e51b815260206004820152601b60248201527f4552524f523a20494e535552455f4d41524b45545f50415553454400000000006044820152606401610a1c565b6000611b0b610e05565b600d54600a546040805180820182523081526008548251631127a41d60e31b8152925195965093946000946001600160a01b03948516946385f18432948b94339490936020808601949091169263893d20e89260048083019392829003018186803b158015611b7957600080fd5b505afa158015611b8d573d6000803e3d6000fd5b505050506040513d601f19601f82011682018060405250810190611bb19190614214565b6001600160a01b031690526040805180820190915280611bd48b620f4240614985565b81526020018a8152506040518563ffffffff1660e01b8152600401611bfc949392919061486c565b6040805180830381600087803b158015611c1557600080fd5b505af1158015611c29573d6000803e3d6000fd5b505050506040513d601f19601f82011682018060405250810190611c4d91906142d7565b9050600060155490508b600c6000828254611c68919061493a565b9250508190555060006040518060e001604052808381526020014281526020018981526020018e81526020018b8152602001336001600160a01b031681526020016001151581525090508060146000848152602001908152602001600020600082015181600001556020820151816001015560408201518160020155606082015181600301556080820151816004015560a08201518160050160006101000a8154816001600160a01b0302191690836001600160a01b0316021790555060c08201518160050160146101000a81548160ff021916908315150217905550905050600160156000828254611d5b919061493a565b90915550508315611dcc5782516000908690611d78908790614966565b611d829190614952565b905080600b6000828254611d96919061493a565b90915550859050611daa620f424083614966565b611db49190614952565b600e6000828254611dc5919061493a565b9091555050505b604080518e8152602081018c90524281830152606081018a905233608082015260a08101899052905183917f19478cb209682ddc3b04605ea51dab116bd0fb31b534400943aee4b4c3f75063919081900360c00190a2509b9a5050505050505050505050565b611e3c8282613c60565b5050565b600860009054906101000a90046001600160a01b03166001600160a01b031663893d20e86040518163ffffffff1660e01b815260040160206040518083038186803b158015611e8e57600080fd5b505afa158015611ea2573d6000803e3d6000fd5b505050506040513d601f19601f82011682018060405250810190611ec69190614214565b6001600160a01b0316336001600160a01b031614611ef65760405162461bcd60e51b8152600401610a1c90614820565b60065462010000900460ff1615611f485760405162461bcd60e51b81526020600482015260166024820152754552524f523a20554e41424c455f544f5f4150504c5960501b6044820152606401610a1c565b60168890556017879055601886905560198590556012805460ff19166001179055611f73894261493a565b600f5560005b60115481101561204d5760006010600060118481548110611f9c57611f9c614a84565b60009182526020808320909101546001600160a01b03168352820192909252604001902054111561203b5760118181548110611fda57611fda614a84565b600091825260208220015460408051637c1e845d60e11b815290516001600160a01b039092169263f83d08ba9260048084019382900301818387803b15801561202257600080fd5b505af1158015612036573d6000803e3d6000fd5b505050505b80612045816149fd565b915050611f79565b507fbe613fdb10d9985b2203a3ca4203aa12d4726f4b02807807a93cbdfe80c4fdd889898989898989898960405161208d999897969594939291906148e5565b60405180910390a16012546040517fb786c19cad4ec6fc2aeb481fb6b1473feb22fe8caf8abfcb7702a077e98845e4916120cc9160ff909116906147b1565b60405180910390a1505050505050505050565b600081815260146020526040902060050154600160a01b900460ff16151560011480156121225750600060125460ff16600181111561212057612120614a6e565b145b80156121c257506008546040516334a92e4560e01b815233600482015242916001600160a01b0316906334a92e459060240160206040518083038186803b15801561216c57600080fd5b505afa158015612180573d6000803e3d6000fd5b505050506040513d601f19601f820116820180604052508101906121a49190614571565b6000838152601460205260409020600201546121c0919061493a565b105b61220e5760405162461bcd60e51b815260206004820152601d60248201527f4552524f523a20554e4c4f434b5f4241445f434f494e444954494f4e530000006044820152606401610a1c565b600081815260146020526040902060030154600c5461222d9190614985565b600c556000818152601460205260409081902060030154905182917f6a4ab9eaabc176a1c70b5f19a39c8f7a220e8f3f649ddb5a7e8c1f957ac112ab9161227691815260200190565b60405180910390a250565b600c54600090156111b657612294610e05565b620f4240600c546111ac9190614966565b33600090815260208190526040902054818110156123055760405162461bcd60e51b815260206004820152601d60248201527f4552524f523a20524551554553545f4558434545445f42414c414e43450000006044820152606401610a1c565b6000821161234b5760405162461bcd60e51b81526020600482015260136024820152724552524f523a20524551554553545f5a45524f60681b6044820152606401610a1c565b336000818152601360209081526040918290204280825560019091018690558251868152918201527fd72eb5d043f24a0168ae744d5c44f9596fd673a26bf74d9646bff4b844882d14910160405180910390a25050565b6008546000906001600160a01b031663106f883684846123c0610e05565b600c546040516001600160e01b031960e087901b168152600481019490945260248401929092526044830152606482015230608482015260a40160206040518083038186803b15801561241257600080fd5b505afa158015612426573d6000803e3d6000fd5b505050506040513d601f19601f82011682018060405250810190610fa79190614571565b60008061245660025490565b905060006124626108a2565b90506000821180156124745750600081115b1561249557806124848386614966565b61248e9190614952565b92506124b6565b6000821180156124a3575080155b156124b25761248e8285614966565b8392505b5050919050565b601181815481106124cd57600080fd5b6000918252602090912001546001600160a01b0316905081565b60008381526014602052604090206005810154600160a01b900460ff1615156001146125555760405162461bcd60e51b815260206004820152601b60248201527f4552524f523a20494e535552414e43455f4e4f545f41435449564500000000006044820152606401610a1c565b601654601754601854601954600160125460ff16600181111561257a5761257a614a6e565b146125c75760405162461bcd60e51b815260206004820152601d60248201527f4552524f523a204e4f5f4150504c494341424c455f494e434944454e540000006044820152606401610a1c565b60058501546001600160a01b031633146126235760405162461bcd60e51b815260206004820152601960248201527f4552524f523a204e4f545f594f55525f494e535552414e4345000000000000006044820152606401610a1c565b600160125460ff16600181111561263c5761263c614a6e565b14801561264d575081856001015411155b801561265d575081856002015410155b6126a95760405162461bcd60e51b815260206004820152601f60248201527f4552524f523a20494e535552414e43455f4e4f545f4150504c494341424c45006044820152606401610a1c565b61273b87878080602002602001604051908101604052809392919081815260200183836020028082843760009201919091525050506004880154600589015460405186935061272092916001600160a01b03169060200191825260601b6bffffffffffffffffffffffff1916602082015260340190565b60405160208183030381529060405280519060200120613d4b565b806127995750612799878780806020026020016040519081016040528093929190818152602001838360200280828437600092018290525060048b015460408051602081019290925281019190915286935060540191506127209050565b6127e55760405162461bcd60e51b815260206004820152601960248201527f4552524f523a20494e535552414e43455f4558454d50544544000000000000006044820152606401610a1c565b60058501805460ff60a01b191690556003850154600c805460009061280b908490614985565b925050819055506000838587600301546128259190614966565b61282f9190614952565b600a54604051630570564160e31b8152600481018390523360248201529192506001600160a01b031690632b82b20890604401600060405180830381600087803b15801561287c57600080fd5b505af1158015612890573d6000803e3d6000fd5b50505060048701546003880154604080513381526020810193909352820152606081018390528a91507fb79eb0228d62ac16b8955ac93b2ff0f7c731ca061e5d87c9a0ea3bb58a0eef829060800160405180910390a2505050505050505050565b606060058054610d6b906149c8565b60005b8181101561293e5761292c83838381811061292057612920614a84565b905060200201356120df565b80612936816149fd565b915050612903565b505050565b3360009081526001602090815260408083206001600160a01b0386168452909152812054828110156129c55760405162461bcd60e51b815260206004820152602560248201527f45524332303a2064656372656173656420616c6c6f77616e63652062656c6f77604482015264207a65726f60d81b6064820152608401610a1c565b6129d433856110558685614985565b5060019392505050565b6000610dfb338484613919565b6000806129f6610e05565b11156111b657600c5461099e610e05565b6001600160a01b03811660009081526020819052604081205480612a2e5750600092915050565b600254612a396108a2565b612a439083614966565b610fa79190614952565b600954604051637bca031760e11b81523360048201526000916001600160a01b03169063f794062e9060240160206040518083038186803b158015612a9157600080fd5b505afa158015612aa5573d6000803e3d6000fd5b505050506040513d601f19601f82011682018060405250810190612ac991906143be565b612b235760405162461bcd60e51b815260206004820152602560248201527f4552524f523a20414c4c4f434154455f4352454449545f4241445f434f4e444960448201526454494f4e5360d81b6064820152608401610a1c565b336000908152601060205260409020600e54600282015460ff16612b965760028201805460ff191660019081179091556011805491820181556000527f31ecc21a745e3968a04e9570e4425bc18fa8019c68028196b546d1669c200c680180546001600160a01b03191633179055612c4c565b815415612c4c57612bc8620f4240828460000154612bb49190614966565b612bbe9190614952565b83600101546138f6565b92508215612c4c57600a546040516302df6ab360e31b8152600481018590523360248201526001600160a01b03909116906316fb559890604401600060405180830381600087803b158015612c1c57600080fd5b505af1158015612c30573d6000803e3d6000fd5b5050505082600b6000828254612c469190614985565b90915550505b8315612cb85783600d6000828254612c64919061493a565b9091555050815484908390600090612c7d90849061493a565b909155505060405184815233907f831a2e4a810f489f3aa4a498b64c24e2a09e83d0e8b2cb47ff00dbb61c5536d59060200160405180910390a25b8154620f424090612cca908390614966565b612cd49190614952565b82600101819055505050919050565b60008060125460ff166001811115612cfd57612cfd614a6e565b148015612d13575060065462010000900460ff16155b612d595760405162461bcd60e51b815260206004820152601760248201527611549493d48e8811115413d4d25517d11254d050931151604a1b6044820152606401610a1c565b60008211612d9f5760405162461bcd60e51b81526020600482015260136024820152724552524f523a204445504f5349545f5a45524f60681b6044820152606401610a1c565b612da88261244a565b600a54604051635547056160e11b8152600481018590523360248201523060448201529192506001600160a01b03169063aa8e0ac290606401602060405180830381600087803b158015612dfb57600080fd5b505af1158015612e0f573d6000803e3d6000fd5b505050506040513d601f19601f82011682018060405250810190612e339190614571565b50604080518381526020810183905233917f90890809c654f11d6e72a28fa60149770a0d11ec6c92319d6ceb2bb0a4ea1a15910160405180910390a2612e793382613c60565b919050565b600860009054906101000a90046001600160a01b03166001600160a01b031663893d20e86040518163ffffffff1660e01b815260040160206040518083038186803b158015612ecc57600080fd5b505afa158015612ee0573d6000803e3d6000fd5b505050506040513d601f19601f82011682018060405250810190612f049190614214565b6001600160a01b0316336001600160a01b031614612f345760405162461bcd60e51b8152600401610a1c90614820565b612f406007838361405c565b507fc5e8f06e682be1cb96bb6e6f0b17a64299e4f96d2e3d04003c3d9c3a8de22f3d8282604051612f729291906147d9565b60405180910390a15050565b600654610100900460ff16158015612f9557508415155b8015612fcf5750600082828281612fae57612fae614a84565b9050602002016020810190612fc391906141f7565b6001600160a01b031614155b801561300c5750600082826001818110612feb57612feb614a84565b905060200201602081019061300091906141f7565b6001600160a01b031614155b8015613049575060008282600281811061302857613028614a84565b905060200201602081019061303d91906141f7565b6001600160a01b031614155b8015613086575060008282600381811061306557613065614a84565b905060200201602081019061307a91906141f7565b6001600160a01b031614155b80156130c357506000828260048181106130a2576130a2614a84565b90506020020160208101906130b791906141f7565b6001600160a01b031614155b80156131015750838360018181106130dd576130dd614a84565b90506020020135848460008181106130f7576130f7614a84565b9050602002013511155b6131595760405162461bcd60e51b8152602060048201526024808201527f4552524f523a20494e495449414c495a4154494f4e5f4241445f434f4e444954604482015263494f4e5360e01b6064820152608401610a1c565b6006805461ff00191661010017905560008282600181811061317d5761317d614a84565b905060200201602081019061319291906141f7565b6001600160a01b03166306fdde036040518163ffffffff1660e01b815260040160006040518083038186803b1580156131ca57600080fd5b505afa1580156131de573d6000803e3d6000fd5b505050506040513d6000823e601f3d908101601f1916820160405261320691908101906144ab565b604051602001613216919061473d565b604051602081830303815290604052905060008383600181811061323c5761323c614a84565b905060200201602081019061325191906141f7565b6001600160a01b03166395d89b416040518163ffffffff1660e01b815260040160006040518083038186803b15801561328957600080fd5b505afa15801561329d573d6000803e3d6000fd5b505050506040513d6000823e601f3d908101601f191682016040526132c591908101906144ab565b6040516020016132d59190614787565b60405160208183030381529060405290506000848460008181106132fb576132fb614a84565b905060200201602081019061331091906141f7565b6001600160a01b031663313ce5676040518163ffffffff1660e01b815260040160206040518083038186803b15801561334857600080fd5b505afa15801561335c573d6000803e3d6000fd5b505050506040513d601f19601f8201168201806040525081019061338091906146f1565b905061338d838383613d61565b848460028181106133a0576133a0614a84565b90506020020160208101906133b591906141f7565b600980546001600160a01b0319166001600160a01b0392909216919091179055848460038181106133e8576133e8614a84565b90506020020160208101906133fd91906141f7565b600880546001600160a01b0319166001600160a01b03929092169182179055630eb9af388686600181811061343457613434614a84565b905060200201602081019061344991906141f7565b6040516001600160e01b031960e084901b1681526001600160a01b03909116600482015260240160206040518083038186803b15801561348857600080fd5b505afa15801561349c573d6000803e3d6000fd5b505050506040513d601f19601f820116820180604052508101906134c09190614214565b600a80546001600160a01b0319166001600160a01b03929092169190911790556134ec60078a8a61405c565b506012805460ff1916905560008787600181811061350c5761350c614a84565b905060200201351115613565576135638787600181811061352f5761352f614a84565b905060200201358686600481811061354957613549614a84565b905060200201602081019061355e91906141f7565b613dc1565b505b505050505050505050565b33600081815260106020526040808220600e546009549251637bca031760e11b8152600481019590955292939092916001600160a01b03169063f794062e9060240160206040518083038186803b1580156135ca57600080fd5b505afa1580156135de573d6000803e3d6000fd5b505050506040513d601f19601f8201168201806040525081019061360291906143be565b801561360f575081548411155b8015613622575061361e6129eb565b8411155b61367c5760405162461bcd60e51b815260206004820152602560248201527f4552524f523a2057495448445241575f4352454449545f4241445f434f4e444960448201526454494f4e5360d81b6064820152608401610a1c565b613693620f4240828460000154612bb49190614966565b925083156137015783600d60008282546136ad9190614985565b90915550508154849083906000906136c6908490614985565b909155505060405184815233907f0970ee8b719cdfcfd160d036ec78c48d87503e51e74987debb85e70364b76cfb9060200160405180910390a25b82156124b657600a546040516302df6ab360e31b8152600481018590523360248201526001600160a01b03909116906316fb559890604401600060405180830381600087803b15801561375357600080fd5b505af1158015613767573d6000803e3d6000fd5b5050505082600b600082825461377d9190614985565b90915550508154620f424090612cca908390614966565b60008082116137a257600080fd5b60006137ae8385614952565b90506137ba8385614a18565b15610fa7576137ca81600161493a565b949350505050565b6001600160a01b0383166138345760405162461bcd60e51b8152602060048201526024808201527f45524332303a20617070726f76652066726f6d20746865207a65726f206164646044820152637265737360e01b6064820152608401610a1c565b6001600160a01b0382166138955760405162461bcd60e51b815260206004820152602260248201527f45524332303a20617070726f766520746f20746865207a65726f206164647265604482015261737360f01b6064820152608401610a1c565b6001600160a01b0383811660008181526001602090815260408083209487168084529482529182902085905590518481527f8c5be1e5ebec7d5bd14f71427d1e84f3dd0314c0f7b2291e5b200ac8c7c3b925910160405180910390a3505050565b60008183101561390857506000610dff565b6139128284614985565b9050610dff565b6001600160a01b03831661397d5760405162461bcd60e51b815260206004820152602560248201527f45524332303a207472616e736665722066726f6d20746865207a65726f206164604482015264647265737360d81b6064820152608401610a1c565b6001600160a01b0382166139df5760405162461bcd60e51b815260206004820152602360248201527f45524332303a207472616e7366657220746f20746865207a65726f206164647260448201526265737360e81b6064820152608401610a1c565b6139ea838383613f63565b6001600160a01b03831660009081526020819052604090205481811015613a625760405162461bcd60e51b815260206004820152602660248201527f45524332303a207472616e7366657220616d6f756e7420657863656564732062604482015265616c616e636560d01b6064820152608401610a1c565b613a6c8282614985565b6001600160a01b038086166000908152602081905260408082209390935590851681529081208054849290613aa290849061493a565b92505081905550826001600160a01b0316846001600160a01b03167fddf252ad1be2c89b69c2b068fc378daa952ba7f163c4a11628f55a4df523b3ef84604051613aee91815260200190565b60405180910390a35b50505050565b6001600160a01b038216613b5d5760405162461bcd60e51b815260206004820152602160248201527f45524332303a206275726e2066726f6d20746865207a65726f206164647265736044820152607360f81b6064820152608401610a1c565b613b6982600083613f63565b6001600160a01b03821660009081526020819052604090205481811015613bdd5760405162461bcd60e51b815260206004820152602260248201527f45524332303a206275726e20616d6f756e7420657863656564732062616c616e604482015261636560f01b6064820152608401610a1c565b613be78282614985565b6001600160a01b03841660009081526020819052604081209190915560028054849290613c15908490614985565b90915550506040518281526000906001600160a01b038516907fddf252ad1be2c89b69c2b068fc378daa952ba7f163c4a11628f55a4df523b3ef9060200160405180910390a3505050565b6001600160a01b038216613cb65760405162461bcd60e51b815260206004820152601f60248201527f45524332303a206d696e7420746f20746865207a65726f2061646472657373006044820152606401610a1c565b613cc260008383613f63565b8060026000828254613cd4919061493a565b90915550506001600160a01b03821660009081526020819052604081208054839290613d0190849061493a565b90915550506040518181526001600160a01b038316906000907fddf252ad1be2c89b69c2b068fc378daa952ba7f163c4a11628f55a4df523b3ef9060200160405180910390a35050565b600082613d588584613fe0565b14949350505050565b60035460ff1615613d7457613d74614a2c565b6003805460ff191660011790558251613d949060049060208601906140e0565b508151613da89060059060208501906140e0565b506006805460ff191660ff929092169190911790555050565b60008060125460ff166001811115613ddb57613ddb614a6e565b148015613df1575060065462010000900460ff16155b613e375760405162461bcd60e51b815260206004820152601760248201527611549493d48e8811115413d4d25517d11254d050931151604a1b6044820152606401610a1c565b60008311613e7d5760405162461bcd60e51b81526020600482015260136024820152724552524f523a204445504f5349545f5a45524f60681b6044820152606401610a1c565b613e868361244a565b600a54604051635547056160e11b8152600481018690526001600160a01b03858116602483015230604483015292935091169063aa8e0ac290606401602060405180830381600087803b158015613edc57600080fd5b505af1158015613ef0573d6000803e3d6000fd5b505050506040513d601f19601f82011682018060405250810190613f149190614571565b5060408051848152602081018390526001600160a01b038416917f90890809c654f11d6e72a28fa60149770a0d11ec6c92319d6ceb2bb0a4ea1a15910160405180910390a2610dff8282613c60565b6001600160a01b0383161561293e576001600160a01b038316600090815260208190526040812054613f96908390614985565b6001600160a01b038516600090815260136020526040902060010154909150811015613af7576001600160a01b038416600090815260136020526040902060010181905550505050565b600081815b8451811015614025576140118286838151811061400457614004614a84565b602002602001015161402d565b91508061401d816149fd565b915050613fe5565b509392505050565b6000818310614049576000828152602084905260409020610fa7565b6000838152602083905260409020610fa7565b828054614068906149c8565b90600052602060002090601f01602090048101928261408a57600085556140d0565b82601f106140a35782800160ff198235161785556140d0565b828001600101855582156140d0579182015b828111156140d05782358255916020019190600101906140b5565b506140dc929150614154565b5090565b8280546140ec906149c8565b90600052602060002090601f01602090048101928261410e57600085556140d0565b82601f1061412757805160ff19168380011785556140d0565b828001600101855582156140d0579182015b828111156140d0578251825591602001919060010190614139565b5b808211156140dc5760008155600101614155565b60008083601f84011261417b57600080fd5b50813567ffffffffffffffff81111561419357600080fd5b6020830191508360208260051b85010111156141ae57600080fd5b9250929050565b60008083601f8401126141c757600080fd5b50813567ffffffffffffffff8111156141df57600080fd5b6020830191508360208285010111156141ae57600080fd5b60006020828403121561420957600080fd5b8135610fa781614ab0565b60006020828403121561422657600080fd5b8151610fa781614ab0565b6000806040838503121561424457600080fd5b823561424f81614ab0565b9150602083013561425f81614ab0565b809150509250929050565b60008060006060848603121561427f57600080fd5b833561428a81614ab0565b9250602084013561429a81614ab0565b929592945050506040919091013590565b600080604083850312156142be57600080fd5b82356142c981614ab0565b946020939093013593505050565b6000604082840312156142e957600080fd5b82601f8301126142f857600080fd5b6040516040810181811067ffffffffffffffff8211171561431b5761431b614a9a565b806040525080838560408601111561433257600080fd5b60005b6002811015614354578151835260209283019290910190600101614335565b509195945050505050565b6000806020838503121561437257600080fd5b823567ffffffffffffffff81111561438957600080fd5b61439585828601614169565b90969095509350505050565b6000602082840312156143b357600080fd5b8135610fa781614ac5565b6000602082840312156143d057600080fd5b8151610fa781614ac5565b600080602083850312156143ee57600080fd5b823567ffffffffffffffff81111561440557600080fd5b614395858286016141b5565b6000806000806000806060878903121561442a57600080fd5b863567ffffffffffffffff8082111561444257600080fd5b61444e8a838b016141b5565b9098509650602089013591508082111561446757600080fd5b6144738a838b01614169565b9096509450604089013591508082111561448c57600080fd5b5061449989828a01614169565b979a9699509497509295939492505050565b6000602082840312156144bd57600080fd5b815167ffffffffffffffff808211156144d557600080fd5b818401915084601f8301126144e957600080fd5b8151818111156144fb576144fb614a9a565b604051601f8201601f19908116603f0116810190838211818310171561452357614523614a9a565b8160405282815287602084870101111561453c57600080fd5b61454d83602083016020880161499c565b979650505050505050565b60006020828403121561456a57600080fd5b5035919050565b60006020828403121561458357600080fd5b5051919050565b6000806040838503121561459d57600080fd5b82359150602083013561425f81614ab0565b6000806000604084860312156145c457600080fd5b83359250602084013567ffffffffffffffff8111156145e257600080fd5b6145ee86828701614169565b9497909650939450505050565b6000806040838503121561460e57600080fd5b50508035926020909101359150565b6000806000806080858703121561463357600080fd5b5050823594602084013594506040840135936060013592509050565b600080600080600080600080600060e08a8c03121561466d57600080fd5b8935985060208a0135975060408a0135965060608a0135955060808a0135945060a08a013567ffffffffffffffff808211156146a857600080fd5b6146b48d838e016141b5565b909650945060c08c01359150808211156146cd57600080fd5b506146da8c828d016141b5565b915080935050809150509295985092959850929598565b60006020828403121561470357600080fd5b815160ff81168114610fa757600080fd5b81835281816020850137506000828201602090810191909152601f909101601f19169091010190565b69496e7375726544414f2d60b01b81526000825161476281600a85016020870161499c565b6d2d506f6f6c496e737572616e636560901b600a939091019283015250601801919050565b61692d60f01b8152600082516147a481600285016020870161499c565b9190910160020192915050565b60208101600283106147d357634e487b7160e01b600052602160045260246000fd5b91905290565b6020815260006137ca602083018486614714565b602081526000825180602084015261480c81604085016020870161499c565b601f01601f19169190910160400192915050565b6020808252602c908201527f526573747269637465643a2063616c6c6572206973206e6f7420616c6c6f776560408201526b6420746f206f70657261746560a01b606082015260800190565b8481526001600160a01b0384811660208084019190915260c0830191604084018660005b60028110156148af578151841683529184019190840190600101614890565b50505050608083018460005b60028110156148d8578151835291830191908301906001016148bb565b5050505095945050505050565b89815288602082015287604082015286606082015285608082015260e060a0820152600061491760e083018688614714565b82810360c084015261492a818587614714565b9c9b505050505050505050505050565b6000821982111561494d5761494d614a42565b500190565b60008261496157614961614a58565b500490565b600081600019048311821515161561498057614980614a42565b500290565b60008282101561499757614997614a42565b500390565b60005b838110156149b757818101518382015260200161499f565b83811115613af75750506000910152565b600181811c908216806149dc57607f821691505b60208210811415610fae57634e487b7160e01b600052602260045260246000fd5b6000600019821415614a1157614a11614a42565b5060010190565b600082614a2757614a27614a58565b500690565b634e487b7160e01b600052600160045260246000fd5b634e487b7160e01b600052601160045260246000fd5b634e487b7160e01b600052601260045260246000fd5b634e487b7160e01b600052602160045260246000fd5b634e487b7160e01b600052603260045260246000fd5b634e487b7160e01b600052604160045260246000fd5b6001600160a01b0381168114610f3d57600080fd5b8015158114610f3d57600080fdfea264697066735822122078274a6f2703f91cbb90a4cc72b7e1919265616634cdf67b8a50ed9183d775af64736f6c63430008070033",
  "linkReferences": {},
  "deployedLinkReferences": {}
}