{
  "_format": "hh-sol-artifact-1",
  "contractName": "Crowdsale",
  "sourceName": "contracts/Auctions/Crowdsale.sol",
  "abi": [
    {
      "anonymous": false,
      "inputs": [
        {
          "indexed": false,
          "internalType": "address",
          "name": "addr",
          "type": "address"
        },
        {
          "indexed": false,
          "internalType": "uint256",
          "name": "commitment",
          "type": "uint256"
        }
      ],
      "name": "AddedCommitment",
      "type": "event"
    },
    {
      "anonymous": false,
      "inputs": [
        {
          "indexed": true,
          "internalType": "address",
          "name": "beneficiary",
          "type": "address"
        },
        {
          "indexed": true,
          "internalType": "address",
          "name": "caller",
          "type": "address"
        }
      ],
      "name": "AdminRoleGranted",
      "type": "event"
    },
    {
      "anonymous": false,
      "inputs": [
        {
          "indexed": true,
          "internalType": "address",
          "name": "beneficiary",
          "type": "address"
        },
        {
          "indexed": true,
          "internalType": "address",
          "name": "caller",
          "type": "address"
        }
      ],
      "name": "AdminRoleRemoved",
      "type": "event"
    },
    {
      "anonymous": false,
      "inputs": [],
      "name": "AuctionCancelled",
      "type": "event"
    },
    {
      "anonymous": false,
      "inputs": [],
      "name": "AuctionFinalized",
      "type": "event"
    },
    {
      "anonymous": false,
      "inputs": [
        {
          "indexed": false,
          "internalType": "uint256",
          "name": "rate",
          "type": "uint256"
        },
        {
          "indexed": false,
          "internalType": "uint256",
          "name": "goal",
          "type": "uint256"
        }
      ],
      "name": "AuctionPriceUpdated",
      "type": "event"
    },
    {
      "anonymous": false,
      "inputs": [
        {
          "indexed": false,
          "internalType": "uint256",
          "name": "startTime",
          "type": "uint256"
        },
        {
          "indexed": false,
          "internalType": "uint256",
          "name": "endTime",
          "type": "uint256"
        }
      ],
      "name": "AuctionTimeUpdated",
      "type": "event"
    },
    {
      "anonymous": false,
      "inputs": [
        {
          "indexed": false,
          "internalType": "address",
          "name": "wallet",
          "type": "address"
        }
      ],
      "name": "AuctionWalletUpdated",
      "type": "event"
    },
    {
      "anonymous": false,
      "inputs": [
        {
          "indexed": true,
          "internalType": "string",
          "name": "_name",
          "type": "string"
        },
        {
          "indexed": false,
          "internalType": "string",
          "name": "_data",
          "type": "string"
        }
      ],
      "name": "DocumentRemoved",
      "type": "event"
    },
    {
      "anonymous": false,
      "inputs": [
        {
          "indexed": true,
          "internalType": "string",
          "name": "_name",
          "type": "string"
        },
        {
          "indexed": false,
          "internalType": "string",
          "name": "_data",
          "type": "string"
        }
      ],
      "name": "DocumentUpdated",
      "type": "event"
    },
    {
      "anonymous": false,
      "inputs": [
        {
          "indexed": true,
          "internalType": "address",
          "name": "beneficiary",
          "type": "address"
        },
        {
          "indexed": true,
          "internalType": "address",
          "name": "caller",
          "type": "address"
        }
      ],
      "name": "MinterRoleGranted",
      "type": "event"
    },
    {
      "anonymous": false,
      "inputs": [
        {
          "indexed": true,
          "internalType": "address",
          "name": "beneficiary",
          "type": "address"
        },
        {
          "indexed": true,
          "internalType": "address",
          "name": "caller",
          "type": "address"
        }
      ],
      "name": "MinterRoleRemoved",
      "type": "event"
    },
    {
      "anonymous": false,
      "inputs": [
        {
          "indexed": true,
          "internalType": "address",
          "name": "beneficiary",
          "type": "address"
        },
        {
          "indexed": true,
          "internalType": "address",
          "name": "caller",
          "type": "address"
        }
      ],
      "name": "OperatorRoleGranted",
      "type": "event"
    },
    {
      "anonymous": false,
      "inputs": [
        {
          "indexed": true,
          "internalType": "address",
          "name": "beneficiary",
          "type": "address"
        },
        {
          "indexed": true,
          "internalType": "address",
          "name": "caller",
          "type": "address"
        }
      ],
      "name": "OperatorRoleRemoved",
      "type": "event"
    },
    {
      "anonymous": false,
      "inputs": [
        {
          "indexed": true,
          "internalType": "bytes32",
          "name": "role",
          "type": "bytes32"
        },
        {
          "indexed": true,
          "internalType": "bytes32",
          "name": "previousAdminRole",
          "type": "bytes32"
        },
        {
          "indexed": true,
          "internalType": "bytes32",
          "name": "newAdminRole",
          "type": "bytes32"
        }
      ],
      "name": "RoleAdminChanged",
      "type": "event"
    },
    {
      "anonymous": false,
      "inputs": [
        {
          "indexed": true,
          "internalType": "bytes32",
          "name": "role",
          "type": "bytes32"
        },
        {
          "indexed": true,
          "internalType": "address",
          "name": "account",
          "type": "address"
        },
        {
          "indexed": true,
          "internalType": "address",
          "name": "sender",
          "type": "address"
        }
      ],
      "name": "RoleGranted",
      "type": "event"
    },
    {
      "anonymous": false,
      "inputs": [
        {
          "indexed": true,
          "internalType": "bytes32",
          "name": "role",
          "type": "bytes32"
        },
        {
          "indexed": true,
          "internalType": "address",
          "name": "account",
          "type": "address"
        },
        {
          "indexed": true,
          "internalType": "address",
          "name": "sender",
          "type": "address"
        }
      ],
      "name": "RoleRevoked",
      "type": "event"
    },
    {
      "anonymous": false,
      "inputs": [
        {
          "indexed": true,
          "internalType": "address",
          "name": "beneficiary",
          "type": "address"
        },
        {
          "indexed": true,
          "internalType": "address",
          "name": "caller",
          "type": "address"
        }
      ],
      "name": "SmartContractRoleGranted",
      "type": "event"
    },
    {
      "anonymous": false,
      "inputs": [
        {
          "indexed": true,
          "internalType": "address",
          "name": "beneficiary",
          "type": "address"
        },
        {
          "indexed": true,
          "internalType": "address",
          "name": "caller",
          "type": "address"
        }
      ],
      "name": "SmartContractRoleRemoved",
      "type": "event"
    },
    {
      "inputs": [],
      "name": "DEFAULT_ADMIN_ROLE",
      "outputs": [
        {
          "internalType": "bytes32",
          "name": "",
          "type": "bytes32"
        }
      ],
      "stateMutability": "view",
      "type": "function"
    },
    {
      "inputs": [],
      "name": "MINTER_ROLE",
      "outputs": [
        {
          "internalType": "bytes32",
          "name": "",
          "type": "bytes32"
        }
      ],
      "stateMutability": "view",
      "type": "function"
    },
    {
      "inputs": [],
      "name": "OPERATOR_ROLE",
      "outputs": [
        {
          "internalType": "bytes32",
          "name": "",
          "type": "bytes32"
        }
      ],
      "stateMutability": "view",
      "type": "function"
    },
    {
      "inputs": [],
      "name": "SMART_CONTRACT_ROLE",
      "outputs": [
        {
          "internalType": "bytes32",
          "name": "",
          "type": "bytes32"
        }
      ],
      "stateMutability": "view",
      "type": "function"
    },
    {
      "inputs": [
        {
          "internalType": "address",
          "name": "_address",
          "type": "address"
        }
      ],
      "name": "addAdminRole",
      "outputs": [],
      "stateMutability": "nonpayable",
      "type": "function"
    },
    {
      "inputs": [
        {
          "internalType": "address",
          "name": "_address",
          "type": "address"
        }
      ],
      "name": "addMinterRole",
      "outputs": [],
      "stateMutability": "nonpayable",
      "type": "function"
    },
    {
      "inputs": [
        {
          "internalType": "address",
          "name": "_address",
          "type": "address"
        }
      ],
      "name": "addOperatorRole",
      "outputs": [],
      "stateMutability": "nonpayable",
      "type": "function"
    },
    {
      "inputs": [
        {
          "internalType": "address",
          "name": "_address",
          "type": "address"
        }
      ],
      "name": "addSmartContractRole",
      "outputs": [],
      "stateMutability": "nonpayable",
      "type": "function"
    },
    {
      "inputs": [],
      "name": "auctionEnded",
      "outputs": [
        {
          "internalType": "bool",
          "name": "",
          "type": "bool"
        }
      ],
      "stateMutability": "view",
      "type": "function"
    },
    {
      "inputs": [],
      "name": "auctionSuccessful",
      "outputs": [
        {
          "internalType": "bool",
          "name": "",
          "type": "bool"
        }
      ],
      "stateMutability": "view",
      "type": "function"
    },
    {
      "inputs": [],
      "name": "auctionToken",
      "outputs": [
        {
          "internalType": "address",
          "name": "",
          "type": "address"
        }
      ],
      "stateMutability": "view",
      "type": "function"
    },
    {
      "inputs": [
        {
          "internalType": "bytes[]",
          "name": "calls",
          "type": "bytes[]"
        },
        {
          "internalType": "bool",
          "name": "revertOnFail",
          "type": "bool"
        }
      ],
      "name": "batch",
      "outputs": [
        {
          "internalType": "bool[]",
          "name": "successes",
          "type": "bool[]"
        },
        {
          "internalType": "bytes[]",
          "name": "results",
          "type": "bytes[]"
        }
      ],
      "stateMutability": "payable",
      "type": "function"
    },
    {
      "inputs": [
        {
          "internalType": "uint256",
          "name": "_commitment",
          "type": "uint256"
        }
      ],
      "name": "calculateCommitment",
      "outputs": [
        {
          "internalType": "uint256",
          "name": "committed",
          "type": "uint256"
        }
      ],
      "stateMutability": "view",
      "type": "function"
    },
    {
      "inputs": [],
      "name": "cancelAuction",
      "outputs": [],
      "stateMutability": "nonpayable",
      "type": "function"
    },
    {
      "inputs": [
        {
          "internalType": "address",
          "name": "",
          "type": "address"
        }
      ],
      "name": "claimed",
      "outputs": [
        {
          "internalType": "uint256",
          "name": "",
          "type": "uint256"
        }
      ],
      "stateMutability": "view",
      "type": "function"
    },
    {
      "inputs": [
        {
          "internalType": "address payable",
          "name": "_beneficiary",
          "type": "address"
        },
        {
          "internalType": "bool",
          "name": "readAndAgreedToMarketParticipationAgreement",
          "type": "bool"
        }
      ],
      "name": "commitEth",
      "outputs": [],
      "stateMutability": "payable",
      "type": "function"
    },
    {
      "inputs": [
        {
          "internalType": "uint256",
          "name": "_amount",
          "type": "uint256"
        },
        {
          "internalType": "bool",
          "name": "readAndAgreedToMarketParticipationAgreement",
          "type": "bool"
        }
      ],
      "name": "commitTokens",
      "outputs": [],
      "stateMutability": "nonpayable",
      "type": "function"
    },
    {
      "inputs": [
        {
          "internalType": "address",
          "name": "_from",
          "type": "address"
        },
        {
          "internalType": "uint256",
          "name": "_amount",
          "type": "uint256"
        },
        {
          "internalType": "bool",
          "name": "readAndAgreedToMarketParticipationAgreement",
          "type": "bool"
        }
      ],
      "name": "commitTokensFrom",
      "outputs": [],
      "stateMutability": "nonpayable",
      "type": "function"
    },
    {
      "inputs": [
        {
          "internalType": "address",
          "name": "",
          "type": "address"
        }
      ],
      "name": "commitments",
      "outputs": [
        {
          "internalType": "uint256",
          "name": "",
          "type": "uint256"
        }
      ],
      "stateMutability": "view",
      "type": "function"
    },
    {
      "inputs": [
        {
          "internalType": "bool",
          "name": "_status",
          "type": "bool"
        }
      ],
      "name": "enableList",
      "outputs": [],
      "stateMutability": "nonpayable",
      "type": "function"
    },
    {
      "inputs": [],
      "name": "finalize",
      "outputs": [],
      "stateMutability": "nonpayable",
      "type": "function"
    },
    {
      "inputs": [],
      "name": "finalizeTimeExpired",
      "outputs": [
        {
          "internalType": "bool",
          "name": "",
          "type": "bool"
        }
      ],
      "stateMutability": "view",
      "type": "function"
    },
    {
      "inputs": [],
      "name": "finalized",
      "outputs": [
        {
          "internalType": "bool",
          "name": "",
          "type": "bool"
        }
      ],
      "stateMutability": "view",
      "type": "function"
    },
    {
      "inputs": [],
      "name": "getAllDocuments",
      "outputs": [
        {
          "internalType": "string[]",
          "name": "",
          "type": "string[]"
        }
      ],
      "stateMutability": "view",
      "type": "function"
    },
    {
      "inputs": [],
      "name": "getBaseInformation",
      "outputs": [
        {
          "internalType": "address",
          "name": "",
          "type": "address"
        },
        {
          "internalType": "uint64",
          "name": "",
          "type": "uint64"
        },
        {
          "internalType": "uint64",
          "name": "",
          "type": "uint64"
        },
        {
          "internalType": "bool",
          "name": "",
          "type": "bool"
        }
      ],
      "stateMutability": "view",
      "type": "function"
    },
    {
      "inputs": [
        {
          "internalType": "address",
          "name": "_funder",
          "type": "address"
        },
        {
          "internalType": "address",
          "name": "_token",
          "type": "address"
        },
        {
          "internalType": "address",
          "name": "_paymentCurrency",
          "type": "address"
        },
        {
          "internalType": "uint256",
          "name": "_totalTokens",
          "type": "uint256"
        },
        {
          "internalType": "uint256",
          "name": "_startTime",
          "type": "uint256"
        },
        {
          "internalType": "uint256",
          "name": "_endTime",
          "type": "uint256"
        },
        {
          "internalType": "uint256",
          "name": "_rate",
          "type": "uint256"
        },
        {
          "internalType": "uint256",
          "name": "_goal",
          "type": "uint256"
        },
        {
          "internalType": "address",
          "name": "_admin",
          "type": "address"
        },
        {
          "internalType": "address",
          "name": "_pointList",
          "type": "address"
        },
        {
          "internalType": "address payable",
          "name": "_wallet",
          "type": "address"
        }
      ],
      "name": "getCrowdsaleInitData",
      "outputs": [
        {
          "internalType": "bytes",
          "name": "_data",
          "type": "bytes"
        }
      ],
      "stateMutability": "pure",
      "type": "function"
    },
    {
      "inputs": [
        {
          "internalType": "string",
          "name": "_name",
          "type": "string"
        }
      ],
      "name": "getDocument",
      "outputs": [
        {
          "internalType": "string",
          "name": "",
          "type": "string"
        },
        {
          "internalType": "uint256",
          "name": "",
          "type": "uint256"
        }
      ],
      "stateMutability": "view",
      "type": "function"
    },
    {
      "inputs": [],
      "name": "getDocumentCount",
      "outputs": [
        {
          "internalType": "uint256",
          "name": "",
          "type": "uint256"
        }
      ],
      "stateMutability": "view",
      "type": "function"
    },
    {
      "inputs": [
        {
          "internalType": "uint256",
          "name": "_index",
          "type": "uint256"
        }
      ],
      "name": "getDocumentName",
      "outputs": [
        {
          "internalType": "string",
          "name": "",
          "type": "string"
        }
      ],
      "stateMutability": "view",
      "type": "function"
    },
    {
      "inputs": [
        {
          "internalType": "bytes32",
          "name": "role",
          "type": "bytes32"
        }
      ],
      "name": "getRoleAdmin",
      "outputs": [
        {
          "internalType": "bytes32",
          "name": "",
          "type": "bytes32"
        }
      ],
      "stateMutability": "view",
      "type": "function"
    },
    {
      "inputs": [
        {
          "internalType": "bytes32",
          "name": "role",
          "type": "bytes32"
        },
        {
          "internalType": "uint256",
          "name": "index",
          "type": "uint256"
        }
      ],
      "name": "getRoleMember",
      "outputs": [
        {
          "internalType": "address",
          "name": "",
          "type": "address"
        }
      ],
      "stateMutability": "view",
      "type": "function"
    },
    {
      "inputs": [
        {
          "internalType": "bytes32",
          "name": "role",
          "type": "bytes32"
        }
      ],
      "name": "getRoleMemberCount",
      "outputs": [
        {
          "internalType": "uint256",
          "name": "",
          "type": "uint256"
        }
      ],
      "stateMutability": "view",
      "type": "function"
    },
    {
      "inputs": [
        {
          "internalType": "uint256",
          "name": "_amount",
          "type": "uint256"
        }
      ],
      "name": "getTokenAmount",
      "outputs": [
        {
          "internalType": "uint256",
          "name": "",
          "type": "uint256"
        }
      ],
      "stateMutability": "view",
      "type": "function"
    },
    {
      "inputs": [],
      "name": "getTotalTokens",
      "outputs": [
        {
          "internalType": "uint256",
          "name": "",
          "type": "uint256"
        }
      ],
      "stateMutability": "view",
      "type": "function"
    },
    {
      "inputs": [
        {
          "internalType": "bytes32",
          "name": "role",
          "type": "bytes32"
        },
        {
          "internalType": "address",
          "name": "account",
          "type": "address"
        }
      ],
      "name": "grantRole",
      "outputs": [],
      "stateMutability": "nonpayable",
      "type": "function"
    },
    {
      "inputs": [
        {
          "internalType": "address",
          "name": "_address",
          "type": "address"
        }
      ],
      "name": "hasAdminRole",
      "outputs": [
        {
          "internalType": "bool",
          "name": "",
          "type": "bool"
        }
      ],
      "stateMutability": "view",
      "type": "function"
    },
    {
      "inputs": [
        {
          "internalType": "address",
          "name": "_address",
          "type": "address"
        }
      ],
      "name": "hasMinterRole",
      "outputs": [
        {
          "internalType": "bool",
          "name": "",
          "type": "bool"
        }
      ],
      "stateMutability": "view",
      "type": "function"
    },
    {
      "inputs": [
        {
          "internalType": "address",
          "name": "_address",
          "type": "address"
        }
      ],
      "name": "hasOperatorRole",
      "outputs": [
        {
          "internalType": "bool",
          "name": "",
          "type": "bool"
        }
      ],
      "stateMutability": "view",
      "type": "function"
    },
    {
      "inputs": [
        {
          "internalType": "bytes32",
          "name": "role",
          "type": "bytes32"
        },
        {
          "internalType": "address",
          "name": "account",
          "type": "address"
        }
      ],
      "name": "hasRole",
      "outputs": [
        {
          "internalType": "bool",
          "name": "",
          "type": "bool"
        }
      ],
      "stateMutability": "view",
      "type": "function"
    },
    {
      "inputs": [
        {
          "internalType": "address",
          "name": "_address",
          "type": "address"
        }
      ],
      "name": "hasSmartContractRole",
      "outputs": [
        {
          "internalType": "bool",
          "name": "",
          "type": "bool"
        }
      ],
      "stateMutability": "view",
      "type": "function"
    },
    {
      "inputs": [
        {
          "internalType": "bytes",
          "name": "_data",
          "type": "bytes"
        }
      ],
      "name": "init",
      "outputs": [],
      "stateMutability": "payable",
      "type": "function"
    },
    {
      "inputs": [
        {
          "internalType": "address",
          "name": "_admin",
          "type": "address"
        }
      ],
      "name": "initAccessControls",
      "outputs": [],
      "stateMutability": "nonpayable",
      "type": "function"
    },
    {
      "inputs": [
        {
          "internalType": "address",
          "name": "_funder",
          "type": "address"
        },
        {
          "internalType": "address",
          "name": "_token",
          "type": "address"
        },
        {
          "internalType": "address",
          "name": "_paymentCurrency",
          "type": "address"
        },
        {
          "internalType": "uint256",
          "name": "_totalTokens",
          "type": "uint256"
        },
        {
          "internalType": "uint256",
          "name": "_startTime",
          "type": "uint256"
        },
        {
          "internalType": "uint256",
          "name": "_endTime",
          "type": "uint256"
        },
        {
          "internalType": "uint256",
          "name": "_rate",
          "type": "uint256"
        },
        {
          "internalType": "uint256",
          "name": "_goal",
          "type": "uint256"
        },
        {
          "internalType": "address",
          "name": "_admin",
          "type": "address"
        },
        {
          "internalType": "address",
          "name": "_pointList",
          "type": "address"
        },
        {
          "internalType": "address payable",
          "name": "_wallet",
          "type": "address"
        }
      ],
      "name": "initCrowdsale",
      "outputs": [],
      "stateMutability": "nonpayable",
      "type": "function"
    },
    {
      "inputs": [
        {
          "internalType": "bytes",
          "name": "_data",
          "type": "bytes"
        }
      ],
      "name": "initMarket",
      "outputs": [],
      "stateMutability": "nonpayable",
      "type": "function"
    },
    {
      "inputs": [],
      "name": "isOpen",
      "outputs": [
        {
          "internalType": "bool",
          "name": "",
          "type": "bool"
        }
      ],
      "stateMutability": "view",
      "type": "function"
    },
    {
      "inputs": [],
      "name": "marketInfo",
      "outputs": [
        {
          "internalType": "uint64",
          "name": "startTime",
          "type": "uint64"
        },
        {
          "internalType": "uint64",
          "name": "endTime",
          "type": "uint64"
        },
        {
          "internalType": "uint128",
          "name": "totalTokens",
          "type": "uint128"
        }
      ],
      "stateMutability": "view",
      "type": "function"
    },
    {
      "inputs": [],
      "name": "marketParticipationAgreement",
      "outputs": [
        {
          "internalType": "string",
          "name": "",
          "type": "string"
        }
      ],
      "stateMutability": "pure",
      "type": "function"
    },
    {
      "inputs": [],
      "name": "marketPrice",
      "outputs": [
        {
          "internalType": "uint128",
          "name": "rate",
          "type": "uint128"
        },
        {
          "internalType": "uint128",
          "name": "goal",
          "type": "uint128"
        }
      ],
      "stateMutability": "view",
      "type": "function"
    },
    {
      "inputs": [],
      "name": "marketStatus",
      "outputs": [
        {
          "internalType": "uint128",
          "name": "commitmentsTotal",
          "type": "uint128"
        },
        {
          "internalType": "bool",
          "name": "finalized",
          "type": "bool"
        },
        {
          "internalType": "bool",
          "name": "usePointList",
          "type": "bool"
        }
      ],
      "stateMutability": "view",
      "type": "function"
    },
    {
      "inputs": [],
      "name": "marketTemplate",
      "outputs": [
        {
          "internalType": "uint256",
          "name": "",
          "type": "uint256"
        }
      ],
      "stateMutability": "view",
      "type": "function"
    },
    {
      "inputs": [],
      "name": "paymentCurrency",
      "outputs": [
        {
          "internalType": "address",
          "name": "",
          "type": "address"
        }
      ],
      "stateMutability": "view",
      "type": "function"
    },
    {
      "inputs": [
        {
          "internalType": "contract IERC20",
          "name": "token",
          "type": "address"
        },
        {
          "internalType": "address",
          "name": "from",
          "type": "address"
        },
        {
          "internalType": "address",
          "name": "to",
          "type": "address"
        },
        {
          "internalType": "uint256",
          "name": "amount",
          "type": "uint256"
        },
        {
          "internalType": "uint256",
          "name": "deadline",
          "type": "uint256"
        },
        {
          "internalType": "uint8",
          "name": "v",
          "type": "uint8"
        },
        {
          "internalType": "bytes32",
          "name": "r",
          "type": "bytes32"
        },
        {
          "internalType": "bytes32",
          "name": "s",
          "type": "bytes32"
        }
      ],
      "name": "permitToken",
      "outputs": [],
      "stateMutability": "nonpayable",
      "type": "function"
    },
    {
      "inputs": [],
      "name": "pointList",
      "outputs": [
        {
          "internalType": "address",
          "name": "",
          "type": "address"
        }
      ],
      "stateMutability": "view",
      "type": "function"
    },
    {
      "inputs": [
        {
          "internalType": "address",
          "name": "_address",
          "type": "address"
        }
      ],
      "name": "removeAdminRole",
      "outputs": [],
      "stateMutability": "nonpayable",
      "type": "function"
    },
    {
      "inputs": [
        {
          "internalType": "string",
          "name": "_name",
          "type": "string"
        }
      ],
      "name": "removeDocument",
      "outputs": [],
      "stateMutability": "nonpayable",
      "type": "function"
    },
    {
      "inputs": [
        {
          "internalType": "address",
          "name": "_address",
          "type": "address"
        }
      ],
      "name": "removeMinterRole",
      "outputs": [],
      "stateMutability": "nonpayable",
      "type": "function"
    },
    {
      "inputs": [
        {
          "internalType": "address",
          "name": "_address",
          "type": "address"
        }
      ],
      "name": "removeOperatorRole",
      "outputs": [],
      "stateMutability": "nonpayable",
      "type": "function"
    },
    {
      "inputs": [
        {
          "internalType": "address",
          "name": "_address",
          "type": "address"
        }
      ],
      "name": "removeSmartContractRole",
      "outputs": [],
      "stateMutability": "nonpayable",
      "type": "function"
    },
    {
      "inputs": [
        {
          "internalType": "bytes32",
          "name": "role",
          "type": "bytes32"
        },
        {
          "internalType": "address",
          "name": "account",
          "type": "address"
        }
      ],
      "name": "renounceRole",
      "outputs": [],
      "stateMutability": "nonpayable",
      "type": "function"
    },
    {
      "inputs": [
        {
          "internalType": "bytes32",
          "name": "role",
          "type": "bytes32"
        },
        {
          "internalType": "address",
          "name": "account",
          "type": "address"
        }
      ],
      "name": "revokeRole",
      "outputs": [],
      "stateMutability": "nonpayable",
      "type": "function"
    },
    {
      "inputs": [
        {
          "internalType": "uint256",
          "name": "_rate",
          "type": "uint256"
        },
        {
          "internalType": "uint256",
          "name": "_goal",
          "type": "uint256"
        }
      ],
      "name": "setAuctionPrice",
      "outputs": [],
      "stateMutability": "nonpayable",
      "type": "function"
    },
    {
      "inputs": [
        {
          "internalType": "uint256",
          "name": "_startTime",
          "type": "uint256"
        },
        {
          "internalType": "uint256",
          "name": "_endTime",
          "type": "uint256"
        }
      ],
      "name": "setAuctionTime",
      "outputs": [],
      "stateMutability": "nonpayable",
      "type": "function"
    },
    {
      "inputs": [
        {
          "internalType": "address payable",
          "name": "_wallet",
          "type": "address"
        }
      ],
      "name": "setAuctionWallet",
      "outputs": [],
      "stateMutability": "nonpayable",
      "type": "function"
    },
    {
      "inputs": [
        {
          "internalType": "string",
          "name": "_name",
          "type": "string"
        },
        {
          "internalType": "string",
          "name": "_data",
          "type": "string"
        }
      ],
      "name": "setDocument",
      "outputs": [],
      "stateMutability": "nonpayable",
      "type": "function"
    },
    {
      "inputs": [
        {
          "internalType": "string[]",
          "name": "_name",
          "type": "string[]"
        },
        {
          "internalType": "string[]",
          "name": "_data",
          "type": "string[]"
        }
      ],
      "name": "setDocuments",
      "outputs": [],
      "stateMutability": "nonpayable",
      "type": "function"
    },
    {
      "inputs": [
        {
          "internalType": "address",
          "name": "_list",
          "type": "address"
        }
      ],
      "name": "setList",
      "outputs": [],
      "stateMutability": "nonpayable",
      "type": "function"
    },
    {
      "inputs": [],
      "name": "tokenPrice",
      "outputs": [
        {
          "internalType": "uint256",
          "name": "",
          "type": "uint256"
        }
      ],
      "stateMutability": "view",
      "type": "function"
    },
    {
      "inputs": [
        {
          "internalType": "address",
          "name": "_user",
          "type": "address"
        }
      ],
      "name": "tokensClaimable",
      "outputs": [
        {
          "internalType": "uint256",
          "name": "claimerCommitment",
          "type": "uint256"
        }
      ],
      "stateMutability": "view",
      "type": "function"
    },
    {
      "inputs": [],
      "name": "wallet",
      "outputs": [
        {
          "internalType": "address payable",
          "name": "",
          "type": "address"
        }
      ],
      "stateMutability": "view",
      "type": "function"
    },
    {
      "inputs": [
        {
          "internalType": "address payable",
          "name": "beneficiary",
          "type": "address"
        }
      ],
      "name": "withdrawTokens",
      "outputs": [],
      "stateMutability": "nonpayable",
      "type": "function"
    },
    {
      "inputs": [],
      "name": "withdrawTokens",
      "outputs": [],
      "stateMutability": "nonpayable",
      "type": "function"
    },
    {
      "stateMutability": "payable",
      "type": "receive"
    }
  ],
  "bytecode": "0x608060405234801561001057600080fd5b506001600555614e5f806100256000396000f3fe6080604052600436106104145760003560e01c8063864333741161021e578063c884ef8311610123578063dccfe310116100ab578063e8fcf7231161007a578063e8fcf72314610be6578063f04899d314610c06578063f08b82e614610c1b578063f5b541a614610c30578063fc4e3e0a14610c4557610423565b8063dccfe31014610b62578063dde51f6d14610b82578063e0e081d714610ba2578063e6594abd14610bc657610423565b8063d2423b51116100f2578063d2423b5114610acc578063d539139314610aed578063d547741f14610b02578063d69d3e6214610b22578063dc97e08214610b4257610423565b8063c884ef8314610a4c578063c92bce8714610a6c578063c9fab05914610a8c578063ca15c87314610aac57610423565b80639c64d0ae116101a6578063b3f05b9711610175578063b3f05b97146109b7578063b7928b1d146109cc578063c2507ac1146109ec578063c395fcb314610a0c578063c6b547e614610a2c57610423565b80639c64d0ae146109405780639fa5f50b14610960578063a217fddf14610982578063adbf37761461099757610423565b80639010d07c116101ed5780639010d07c146108ab57806391d14854146108cb5780639478941c146108eb57806399fdb3201461090b5780639a87222c1461092057610423565b8063864333741461084c5780638a845fc0146108615780638d8f2adb146108815780638fa8b7901461089657610423565b806345a15388116103245780636595171c116102ac5780637c516e941161027b5780637c516e94146107b45780637ccb6a64146107d45780637ff9b5961461080257806381353c8e14610817578063857d26081461083757610423565b80636595171c1461073f5780636ae260c11461075f57806373973fcb1461077f57806374cf9fc51461079f57610423565b80634bb278f3116102f35780634bb278f3146106c25780634dc80e15146106d75780634ddf47d4146106f7578063521eb2731461070a57806354f1e1261461071f57610423565b806345a153881461064a57806347535d7b1461066d57806349df728c146106825780634b3e6abb146106a257610423565b806324e4025b116103a757806336568abe1161037657806336568abe146105be57806336d0054b146105de5780633d15cc6d146105f35780633d1c2273146106155780633f16431a1461062a57610423565b806324e4025b1461054657806329762960146105665780632f2ff15d14610579578063314148e21461059957610423565b806317026455116103e357806317026455146104cf5780631b3e460e146104e4578063212f8a8114610506578063248a9ca31461052657610423565b8063031bee0014610428578063099db017146104555780630cc4c03314610482578063113b0ab2146104af57610423565b3661042357610421610c65565b005b600080fd5b34801561043457600080fd5b5061043d610c86565b60405161044c93929190614b9e565b60405180910390f35b34801561046157600080fd5b50610475610470366004613741565b610cb3565b60405161044c9190613eee565b34801561048e57600080fd5b506104a261049d366004613852565b610cd5565b60405161044c9190613f02565b3480156104bb57600080fd5b506104756104ca366004613741565b610d1c565b3480156104db57600080fd5b50610475610d36565b3480156104f057600080fd5b506104f9610d54565b60405161044c9190613ef9565b34801561051257600080fd5b50610421610521366004613873565b610d59565b34801561053257600080fd5b506104f961054136600461399d565b610e0c565b34801561055257600080fd5b506104216105613660046139d9565b610e21565b61042161057436600461381a565b610f57565b34801561058557600080fd5b506104216105943660046139b5565b611060565b3480156105a557600080fd5b506105ae6110a8565b60405161044c9493929190613dc2565b3480156105ca57600080fd5b506104216105d93660046139b5565b6110e0565b3480156105ea57600080fd5b50610475611122565b3480156105ff57600080fd5b50610608611141565b60405161044c9190613cd1565b34801561062157600080fd5b506104f9611150565b34801561063657600080fd5b50610421610645366004613741565b611156565b34801561065657600080fd5b5061065f6111b8565b60405161044c929190614b76565b34801561067957600080fd5b506104756111d2565b34801561068e57600080fd5b5061042161069d366004613741565b611207565b3480156106ae57600080fd5b506104216106bd366004613965565b611351565b3480156106ce57600080fd5b50610421611381565b3480156106e357600080fd5b506104f96106f2366004613741565b61155d565b6104216107053660046139fa565b6110a4565b34801561071657600080fd5b50610608611642565b34801561072b57600080fd5b5061042161073a366004613741565b611651565b34801561074b57600080fd5b5061042161075a366004613741565b6116b3565b34801561076b57600080fd5b5061042161077a3660046139d9565b611708565b34801561078b57600080fd5b506104f961079a36600461399d565b61185b565b3480156107ab57600080fd5b506104a26118df565b3480156107c057600080fd5b506104216107cf366004613a39565b611902565b3480156107e057600080fd5b506107f46107ef3660046139fa565b611976565b60405161044c929190613f44565b34801561080e57600080fd5b506104f9611a63565b34801561082357600080fd5b506104216108323660046139fa565b611a72565b34801561084357600080fd5b506104f9611ac2565b34801561085857600080fd5b50610475611ad4565b34801561086d57600080fd5b5061042161087c366004613741565b611b1f565b34801561088d57600080fd5b50610421611b81565b3480156108a257600080fd5b50610421611b8c565b3480156108b757600080fd5b506106086108c63660046139d9565b611c8b565b3480156108d757600080fd5b506104756108e63660046139b5565b611cac565b3480156108f757600080fd5b50610421610906366004613741565b611cc4565b34801561091757600080fd5b50610608611d26565b34801561092c57600080fd5b5061042161093b366004613741565b611d35565b34801561094c57600080fd5b5061042161095b366004613abb565b611dc3565b34801561096c57600080fd5b50610975611de7565b60405161044c9190613e8e565b34801561098e57600080fd5b506104f9611ebf565b3480156109a357600080fd5b506104216109b2366004613741565b611ec4565b3480156109c357600080fd5b50610475611f26565b3480156109d857600080fd5b506104216109e7366004613741565b611f36565b3480156109f857600080fd5b506104f9610a0736600461399d565b611f98565b348015610a1857600080fd5b50610475610a27366004613741565b611fa3565b348015610a3857600080fd5b506104a2610a4736600461399d565b611faf565b348015610a5857600080fd5b506104f9610a67366004613741565b61207a565b348015610a7857600080fd5b50610421610a873660046138fd565b61208c565b348015610a9857600080fd5b50610421610aa7366004613852565b6120fe565b348015610ab857600080fd5b506104f9610ac736600461399d565b6124de565b610adf610ada3660046138b4565b6124f5565b60405161044c929190613df4565b348015610af957600080fd5b506104f9612685565b348015610b0e57600080fd5b50610421610b1d3660046139b5565b612697565b348015610b2e57600080fd5b50610421610b3d366004613741565b6126d1565b348015610b4e57600080fd5b50610421610b5d366004613bc9565b6126ef565b348015610b6e57600080fd5b50610421610b7d366004613741565b6126fa565b348015610b8e57600080fd5b50610421610b9d3660046139fa565b61274f565b348015610bae57600080fd5b50610bb761276b565b60405161044c93929190614b53565b348015610bd257600080fd5b50610421610be1366004613741565b612790565b348015610bf257600080fd5b506104f9610c01366004613741565b6127f3565b348015610c1257600080fd5b50610608612805565b348015610c2757600080fd5b506104f9612814565b348015610c3c57600080fd5b506104f961282a565b348015610c5157600080fd5b50610475610c60366004613741565b61283c565b60405162461bcd60e51b8152600401610c7d9061417c565b60405180910390fd5b6007546001600160401b0380821691600160401b810490911690600160801b90046001600160801b031683565b6000610ccd600080516020614cb983398151915283611cac565b90505b919050565b60608b8b8b8b8b8b8b8b8b8b8b604051602001610cfc9b9a99989796959493929190613ce5565b60405160208183030381529060405290509b9a5050505050505050505050565b6000610ccd600080516020614c7983398151915283611cac565b60075442600160401b9091046001600160401b031662093a80011090565b600181565b60026005541415610d7c5760405162461bcd60e51b8152600401610c7d906149ae565b6002600555600b546001600160a01b031673eeeeeeeeeeeeeeeeeeeeeeeeeeeeeeeeeeeeeeee1415610dc05760405162461bcd60e51b8152600401610c7d90614adb565b80610dcd57610dcd610c65565b6000610dd88361185b565b90508015610e0157600b54610df7906001600160a01b03163383612856565b610e018482612933565b505060016005555050565b60009081526020819052604090206002015490565b610e2a33611fa3565b610e3357600080fd5b60008111610e535760405162461bcd60e51b8152600401610c7d90614a5e565b60008211610e735760405162461bcd60e51b8152600401610c7d9061446f565b6008546001600160801b031615610e9c5760405162461bcd60e51b8152600401610c7d9061426f565b610ea582612afe565b600680546001600160801b0319166001600160801b0392909216919091179055610ece81612afe565b600680546001600160801b03908116600160801b9382168402179091556007549190910416610efc82612b2b565b1115610f1a5760405162461bcd60e51b8152600401610c7d906147f0565b7f622a57040c34e45abc5fadeb22e4c3c687cf48a096c86694cd21a7be9e7851ee8282604051610f4b929190614b90565b60405180910390a15050565b60026005541415610f7a5760405162461bcd60e51b8152600401610c7d906149ae565b6002600555600b546001600160a01b031673eeeeeeeeeeeeeeeeeeeeeeeeeeeeeeeeeeeeeeee14610fbd5760405162461bcd60e51b8152600401610c7d9061467d565b80610fca57610fca610c65565b6000610fd53461185b565b90506000610fe33483612b56565b90508115610ff557610ff58483612933565b8015611033576040516001600160a01b0385169082156108fc029083906000818181858888f19350505050158015611031573d6000803e3d6000fd5b505b600854476001600160801b039091161115610e015760405162461bcd60e51b8152600401610c7d90614129565b60008281526020819052604090206002015461107e906108e6612b79565b61109a5760405162461bcd60e51b8152600401610c7d9061408e565b6110a48282612b7d565b5050565b6009546007546008546001600160a01b03909216926001600160401b0380831693600160401b9093041691600160801b900460ff1690565b6110e8612b79565b6001600160a01b0316816001600160a01b0316146111185760405162461bcd60e51b8152600401610c7d90614a8c565b6110a48282612be6565b6006546008546001600160801b03600160801b90920482169116101590565b600b546001600160a01b031681565b60045490565b61116e600080516020614c7983398151915282611060565b611176612b79565b6001600160a01b0316816001600160a01b03167f1d5f9ec24c6f91be922ea13ceaad919ad6554a41b5c26087f96289a9baf98ad260405160405180910390a350565b6006546001600160801b0380821691600160801b90041682565b6007546000906001600160401b031642108015906112025750600754600160401b90046001600160401b03164211155b905090565b6002600554141561122a5760405162461bcd60e51b8152600401610c7d906149ae565b6002600555611237611122565b156112e757600854600160801b900460ff166112655760405162461bcd60e51b8152600401610c7d906147b9565b60006112708261155d565b9050600081116112925760405162461bcd60e51b8152600401610c7d90614977565b6001600160a01b0382166000908152600e60205260409020546112b59082612c4f565b6001600160a01b038084166000908152600e60205260409020919091556009546112e191168383612c72565b50611349565b600754600160401b90046001600160401b031642116113185760405162461bcd60e51b8152600401610c7d90614772565b6001600160a01b038082166000908152600d602052604081208054919055600b54909161134791168383612c72565b505b506001600555565b61135a33611fa3565b61136357600080fd5b60088054911515600160881b0260ff60881b19909216919091179055565b600260055414156113a45760405162461bcd60e51b8152600401610c7d906149ae565b60026005556113b233611fa3565b806113c75750600a546001600160a01b031633145b806113d657506113d633610d1c565b806113e457506113e4610d36565b6114005760405162461bcd60e51b8152600401610c7d90614a1c565b60088054600160801b900460ff161561142b5760405162461bcd60e51b8152600401610c7d906142bd565b6007611435611ad4565b6114515760405162461bcd60e51b8152600401610c7d906146c3565b611459611122565b156114eb57600b54600a548354611486926001600160a01b039081169216906001600160801b0316612c72565b815460009061149d906001600160801b0316612b2b565b82549091506000906114bf90600160801b90046001600160801b031683612b56565b905080156114e457600954600a546114e4916001600160a01b03908116911683612c72565b505061151a565b600954600a54825461151a926001600160a01b03908116921690600160801b90046001600160801b0316612c72565b815460ff60801b1916600160801b1782556040517f32bebcfd2d04dbae321298091d96d2cb1d07279f59718cd83bd98245b8b82b5a90600090a150506001600555565b6009546040516370a0823160e01b815260009182916001600160a01b03909116906370a0823190611592903090600401613cd1565b60206040518083038186803b1580156115aa57600080fd5b505afa1580156115be573d6000803e3d6000fd5b505050506040513d601f19601f820116820180604052508101906115e29190613bb1565b6001600160a01b0384166000908152600d602052604090205490915061160790612b2b565b6001600160a01b0384166000908152600e602052604090205490925061162e908390612b56565b91508082111561163c578091505b50919050565b600a546001600160a01b031681565b611669600080516020614cb983398151915282612697565b611671612b79565b6001600160a01b0316816001600160a01b03167f56692a161ffec953ddf9def93b958ea8d1ec95e21b80870c66be91a4374dc4e360405160405180910390a350565b6116be600082611060565b6116c6612b79565b6001600160a01b0316816001600160a01b03167f2570ac42fd8b322dc453ada624dc2ed0e9bdd67f16f201a25bbd30468f2aa18760405160405180910390a350565b61171133611fa3565b61171a57600080fd5b6402540be400821061173e5760405162461bcd60e51b8152600401610c7d9061491a565b6402540be40081106117625760405162461bcd60e51b8152600401610c7d9061491a565b428210156117825760405162461bcd60e51b8152600401610c7d906140dd565b8181116117a15760405162461bcd60e51b8152600401610c7d906144e5565b6008546001600160801b0316156117ca5760405162461bcd60e51b8152600401610c7d9061426f565b6117d382612cb6565b6007805467ffffffffffffffff19166001600160401b03929092169190911790556117fd81612cb6565b600780546001600160401b0392909216600160401b0267ffffffffffffffff60401b199092169190911790556040517f5725d1e4352d6944889e54837ffaefde55cdc0b55796b831365d61cd4c87fdb890610f4b9084908490614b90565b60008061186783612b2b565b600854909150600090611882906001600160801b0316612b2b565b600754909150600160801b90046001600160801b03166118a28284612c4f565b11156118d7576007546118ce906118c990600160801b90046001600160801b031683612b56565b612cdf565b92505050610cd0565b509192915050565b60606040518061018001604052806101518152602001614cd96101519139905090565b60405163d505accf60e01b81526001600160a01b0389169063d505accf9061193a908a908a908a908a908a908a908a90600401613d68565b600060405180830381600087803b15801561195457600080fd5b505af1158015611968573d6000803e3d6000fd5b505050505050505050505050565b606060006002848460405161198c929190613c35565b9081526020016040518091039020600101600285856040516119af929190613c35565b908152604080516020928190038301812054845460026101006001831615026000190190911604601f810185900485028301850190935282825264010000000090046001600160401b03169290918491830182828015611a505780601f10611a2557610100808354040283529160200191611a50565b820191906000526020600020905b815481529060010190602001808311611a3357829003601f168201915b50505050509150915091505b9250929050565b6006546001600160801b031690565b600080808080808080808080611a8a8c8e018e613764565b9a509a509a509a509a509a509a509a509a509a509a50611ab38b8b8b8b8b8b8b8b8b8b8b6120fe565b50505050505050505050505050565b600080516020614c7983398151915281565b600754600090600160401b90046001600160401b031642118061120257506007546008546001600160801b03600160801b909204821691611b189116600101612b2b565b1015905090565b611b37600080516020614c7983398151915282612697565b611b3f612b79565b6001600160a01b0316816001600160a01b03167fe5f1aa9e528307345194b88b24a32401c13926e0823060f1049d9b26c0bb62b260405160405180910390a350565b611b8a33611207565b565b60026005541415611baf5760405162461bcd60e51b8152600401610c7d906149ae565b6002600555611bbd33611fa3565b611bc657600080fd5b60088054600160801b900460ff1615611bf15760405162461bcd60e51b8152600401610c7d906142bd565b80546001600160801b031615611c195760405162461bcd60e51b8152600401610c7d90614581565b600954600a54600754611c49926001600160a01b03908116921690600160801b90046001600160801b0316612c72565b805460ff60801b1916600160801b1781556040517fa5fb31e47bd1eca58bf14a3312d5e6aeafdc4ee787c8ed348c15c2b092324d9390600090a1506001600555565b6000828152602081905260408120611ca39083612d07565b90505b92915050565b6000828152602081905260408120611ca39083612d13565b611cdc600080516020614c9983398151915282612697565b611ce4612b79565b6001600160a01b0316816001600160a01b03167f70b25138b6fadeb9992d18b9653564271823e34b3e3257515d12a6d4b15fcddf60405160405180910390a350565b6009546001600160a01b031681565b611d3e33611fa3565b611d4757600080fd5b6001600160a01b038116611d6d5760405162461bcd60e51b8152600401610c7d9061489e565b600a80546001600160a01b0319166001600160a01b0383161790556040517f34ae2bad9265f0212d4cf341708b8250949164bb54f9d0e4f442024f83bb2f9090611db8908390613cd1565b60405180910390a150565b611dcc33611fa3565b611dd557600080fd5b611de184848484612d28565b50505050565b60606004805480602002602001604051908101604052809291908181526020016000905b82821015611eb65760008481526020908190208301805460408051601f6002600019610100600187161502019094169390930492830185900485028101850190915281815292830182828015611ea25780601f10611e7757610100808354040283529160200191611ea2565b820191906000526020600020905b815481529060010190602001808311611e8557829003601f168201915b505050505081526020019060010190611e0b565b50505050905090565b600081565b611edc600080516020614cb983398151915282611060565b611ee4612b79565b6001600160a01b0316816001600160a01b03167f0be6ab9784c7401fafb73f7bc47bc67cc4ef8c47a60ad3cb66d1de0353a0784c60405160405180910390a350565b600854600160801b900460ff1690565b611f4e600080516020614c9983398151915282611060565b611f56612b79565b6001600160a01b0316816001600160a01b03167f2d45ee102874989882745a26688d0b4fffee125a18df26536b12582c7fde4e1760405160405180910390a350565b600061163c82612b2b565b6000610ccd8183611cac565b6004546060908210611fd35760405162461bcd60e51b8152600401610c7d9061483a565b60048281548110611fe057fe5b600091825260209182902001805460408051601f600260001961010060018716150201909416939093049283018590048502810185019091528181529283018282801561206e5780601f106120435761010080835404028352916020019161206e565b820191906000526020600020905b81548152906001019060200180831161205157829003601f168201915b50505050509050919050565b600e6020526000908152604090205481565b61209533611fa3565b61209e57600080fd5b8260005b818110156120f6576120ee8686838181106120b957fe5b90506020028101906120cb9190614bca565b8686858181106120d757fe5b90506020028101906120e99190614bca565b612d28565b6001016120a2565b505050505050565b6402540be40087106121225760405162461bcd60e51b8152600401610c7d9061491a565b6402540be40086106121465760405162461bcd60e51b8152600401610c7d9061491a565b428710156121665760405162461bcd60e51b8152600401610c7d906140dd565b8686116121855760405162461bcd60e51b8152600401610c7d906141f4565b600085116121a55760405162461bcd60e51b8152600401610c7d9061446f565b6001600160a01b0381166121cb5760405162461bcd60e51b8152600401610c7d9061489e565b6001600160a01b0383166121f15760405162461bcd60e51b8152600401610c7d906145b8565b600088116122115760405162461bcd60e51b8152600401610c7d90614867565b600084116122315760405162461bcd60e51b8152600401610c7d90614a5e565b896001600160a01b031663313ce5676040518163ffffffff1660e01b815260040160206040518083038186803b15801561226a57600080fd5b505afa15801561227e573d6000803e3d6000fd5b505050506040513d601f19601f820116820180604052508101906122a29190613bed565b60ff166012146122c45760405162461bcd60e51b8152600401610c7d90614537565b6001600160a01b03891673eeeeeeeeeeeeeeeeeeeeeeeeeeeeeeeeeeeeeeee1461237b576000896001600160a01b031663313ce5676040518163ffffffff1660e01b815260040160206040518083038186803b15801561232357600080fd5b505afa158015612337573d6000803e3d6000fd5b505050506040513d601f19601f8201168201806040525081019061235b9190613bed565b60ff161161237b5760405162461bcd60e51b8152600401610c7d9061449d565b61238485612afe565b600680546001600160801b0319166001600160801b03929092169190911790556123ad84612afe565b600680546001600160801b03928316600160801b0292169190911790556123d387612cb6565b6007805467ffffffffffffffff19166001600160401b03929092169190911790556123fd86612cb6565b600780546001600160401b0392909216600160401b0267ffffffffffffffff60401b1990921691909117905561243288612afe565b600780546001600160801b03928316600160801b029216919091179055600980546001600160a01b03808d166001600160a01b031992831617909255600b80548c8416908316179055600a80549284169290911691909117905561249583612790565b61249e82612f7a565b876124a885612b2b565b11156124c65760405162461bcd60e51b8152600401610c7d9061437b565b6124d18a8c8a612856565b5050505050505050505050565b6000818152602081905260408120610ccd90612fbc565b606080836001600160401b038111801561250e57600080fd5b50604051908082528060200260200182016040528015612538578160200160208202803683370190505b509150836001600160401b038111801561255157600080fd5b5060405190808252806020026020018201604052801561258557816020015b60608152602001906001900390816125705790505b50905060005b8481101561267c5760006060308888858181106125a457fe5b90506020028101906125b69190614bca565b6040516125c4929190613c35565b600060405180830381855af49150503d80600081146125ff576040519150601f19603f3d011682016040523d82523d6000602084013e612604565b606091505b50915091508180612613575085155b61261c82612fc7565b9061263a5760405162461bcd60e51b8152600401610c7d9190613f02565b508185848151811061264857fe5b6020026020010190151590811515815250508084848151811061266757fe5b6020908102919091010152505060010161258b565b50935093915050565b600080516020614cb983398151915281565b6000828152602081905260409020600201546126b5906108e6612b79565b6111185760405162461bcd60e51b8152600401610c7d9061432b565b6126da33611fa3565b6126e357600080fd5b6126ec81612f7a565b50565b6110a4338383610d59565b612705600082612697565b61270d612b79565b6001600160a01b0316816001600160a01b03167f21ba1239795d4e22874e3dc55f0a9d7b65bfb23069d32965d7c23be9524ccf9560405160405180910390a350565b61275833611fa3565b61276157600080fd5b6110a48282613027565b6008546001600160801b0381169060ff600160801b8204811691600160881b90041683565b60015460ff16156127b35760405162461bcd60e51b8152600401610c7d9061401f565b6001600160a01b0381166127d95760405162461bcd60e51b8152600401610c7d90614446565b6127e460008261109a565b506001805460ff191681179055565b600d6020526000908152604090205481565b600c546001600160a01b031681565b600754600160801b90046001600160801b031690565b600080516020614c9983398151915281565b6000610ccd600080516020614c9983398151915283611cac565b60006060846001600160a01b03166323b872dd85308660405160240161287e93929190613d44565b6040516020818303038152906040529060e01b6020820180516001600160e01b0383818316178352505050506040516128b79190613c45565b6000604051808303816000865af19150503d80600081146128f4576040519150601f19603f3d011682016040523d82523d6000602084013e6128f9565b606091505b50915091508180156129235750805115806129235750808060200190518101906129239190613981565b61292c57600080fd5b5050505050565b6007546001600160401b031642108015906129605750600754600160401b90046001600160401b03164211155b61297c5760405162461bcd60e51b8152600401610c7d9061473d565b6001600160a01b0382166129a25760405162461bcd60e51b8152600401610c7d90614633565b6001600160a01b0382166000908152600d60205260408120546129c59083612c4f565b600854909150600160881b900460ff1615612a6557600c54604051631cd53d5560e01b81526001600160a01b0390911690631cd53d5590612a0c9086908590600401613da9565b60206040518083038186803b158015612a2457600080fd5b505afa158015612a38573d6000803e3d6000fd5b505050506040513d601f19601f82011682018060405250810190612a5c9190613981565b612a6557600080fd5b6001600160a01b0383166000908152600d60205260409020819055600854612a9f90612a9a906001600160801b031684612c4f565b612afe565b600880546001600160801b0319166001600160801b03929092169190911790556040517f077511a636ba1f10551cc7b89c13ff66a6ac9344e8a917527817a9690b15af7a90612af19085908590613da9565b60405180910390a1505050565b60006001600160801b03821115612b275760405162461bcd60e51b8152600401610c7d906142f4565b5090565b600654600090610ccd906001600160801b0316612b5084670de0b6b3a7640000613258565b9061328f565b80820382811115611ca65760405162461bcd60e51b8152600401610c7d90613ff0565b3390565b6000828152602081905260409020612b9590826132c1565b156110a457612ba2612b79565b6001600160a01b0316816001600160a01b0316837f2f8788117e7eff1d82e926ec794901d17c78024a50270940304540a733656f0d60405160405180910390a45050565b6000828152602081905260409020612bfe90826132d6565b156110a457612c0b612b79565b6001600160a01b0316816001600160a01b0316837ff6391f5c32d9c69d2a47ea670b442974b53935d1edc7fd64eb21e047a839171b60405160405180910390a45050565b81810181811015611ca65760405162461bcd60e51b8152600401610c7d906143d8565b6001600160a01b03831673eeeeeeeeeeeeeeeeeeeeeeeeeeeeeeeeeeeeeeee1415612ca657612ca182826132eb565b612cb1565b612cb1838383613378565b505050565b60006001600160401b03821115612b275760405162461bcd60e51b8152600401610c7d906145fc565b600654600090610ccd90670de0b6b3a764000090612b509085906001600160801b0316613258565b6000611ca3838361339e565b6000611ca3836001600160a01b0384166133e3565b82612d455760405162461bcd60e51b8152600401610c7d9061440f565b80612d625760405162461bcd60e51b8152600401610c7d906148e3565b60006001600160401b031660028585604051612d7f929190613c35565b908152604051908190036020019020546001600160401b03640100000000909104161415612e255760048054600181018255600091909152612de4907f8a35acfbc15ff81a39ae7d344fd709f28e8600b4aa8c65c6b64bfe7fe36bd19b01858561350f565b50600454604051600290612dfb9087908790613c35565b908152604051908190036020019020805463ffffffff9290921663ffffffff199092169190911790555b604051806060016040528060028686604051612e42929190613c35565b90815260408051602092819003830190205463ffffffff168352426001600160401b0316838301528051601f860183900483028101830182528581529201919085908590819084018382808284376000920191909152505050915250604051600290612eb19087908790613c35565b9081526040805191829003602090810190922083518154858501516001600160401b0316640100000000026bffffffffffffffff000000001963ffffffff90931663ffffffff1990921691909117919091161781559083015180519192612f2092600185019290910190613589565b5050604051612f33915085908590613c35565b60405180910390207fbaa206e5ea800eb88bce099f453fee53295b793b9d5d1cfc4ce4b6db06a34f538383604051612f6c929190613f15565b60405180910390a250505050565b6001600160a01b038116156126ec57600c80546001600160a01b0383166001600160a01b03199091161790556008805460ff60881b1916600160881b17905550565b6000610ccd826133fb565b606060448251101561300d575060408051808201909152601d81527f5472616e73616374696f6e2072657665727465642073696c656e746c790000006020820152610cd0565b60048201915081806020019051810190610ccd9190613b17565b60006001600160401b031660028383604051613044929190613c35565b908152604051908190036020019020546001600160401b036401000000009091041614156130845760405162461bcd60e51b8152600401610c7d90614240565b600060016002848460405161309a929190613c35565b9081526040519081900360200190205460045463ffffffff91821692909203925082166000199091011461317b576004805460001981019081106130da57fe5b9060005260206000200160048263ffffffff16815481106130f757fe5b9060005260206000200190805460018160011615610100020316600290046131209291906135f7565b5080600101600260048363ffffffff168154811061313a57fe5b906000526020600020016040516131519190613c61565b908152604051908190036020019020805463ffffffff9290921663ffffffff199092169190911790555b600480548061318657fe5b6001900381819060005260206000200160006131a2919061366c565b905582826040516131b4929190613c35565b60405180910390207f4b5338540b4d1c0f6dd0308a25f633b7ff60472f894d711cff9dd64e35c613b2600285856040516131ef929190613c35565b908152602001604051809103902060010160405161320d9190613f66565b60405180910390a260028383604051613227929190613c35565b90815260405190819003602001902080546bffffffffffffffffffffffff19168155600061292c600183018261366c565b60008115806132735750508082028282828161327057fe5b04145b611ca65760405162461bcd60e51b8152600401610c7d906149e5565b60008082116132b05760405162461bcd60e51b8152600401610c7d90614b25565b8183816132b957fe5b049392505050565b6000611ca3836001600160a01b0384166133ff565b6000611ca3836001600160a01b038416613449565b604080516000808252602082019092526001600160a01b0384169083906040516133159190613c45565b60006040518083038185875af1925050503d8060008114613352576040519150601f19603f3d011682016040523d82523d6000602084013e613357565b606091505b5050905080612cb15760405162461bcd60e51b8152600401610c7d906146fa565b60006060846001600160a01b031663a9059cbb858560405160240161287e929190613da9565b815460009082106133c15760405162461bcd60e51b8152600401610c7d9061404c565b8260000182815481106133d057fe5b9060005260206000200154905092915050565b60009081526001919091016020526040902054151590565b5490565b600061340b83836133e3565b61344157508154600181810184556000848152602080822090930184905584548482528286019093526040902091909155611ca6565b506000611ca6565b60008181526001830160205260408120548015613505578354600019808301919081019060009087908390811061347c57fe5b906000526020600020015490508087600001848154811061349957fe5b6000918252602080832090910192909255828152600189810190925260409020908401905586548790806134c957fe5b60019003818190600052602060002001600090559055866001016000878152602001908152602001600020600090556001945050505050611ca6565b6000915050611ca6565b828054600181600116156101000203166002900490600052602060002090601f016020900481019282601f106135505782800160ff1982351617855561357d565b8280016001018555821561357d579182015b8281111561357d578235825591602001919060010190613562565b50612b279291506136ac565b828054600181600116156101000203166002900490600052602060002090601f016020900481019282601f106135ca57805160ff191683800117855561357d565b8280016001018555821561357d579182015b8281111561357d5782518255916020019190600101906135dc565b828054600181600116156101000203166002900490600052602060002090601f016020900481019282601f10613630578054855561357d565b8280016001018555821561357d57600052602060002091601f016020900482015b8281111561357d578254825591600101919060010190613651565b50805460018160011615610100020316600290046000825580601f1061369257506126ec565b601f0160209004906000526020600020908101906126ec91905b5b80821115612b2757600081556001016136ad565b60008083601f8401126136d2578182fd5b5081356001600160401b038111156136e8578182fd5b6020830191508360208083028501011115611a5c57600080fd5b60008083601f840112613713578182fd5b5081356001600160401b03811115613729578182fd5b602083019150836020828501011115611a5c57600080fd5b600060208284031215613752578081fd5b813561375d81614c46565b9392505050565b60008060008060008060008060008060006101608c8e031215613785578687fd5b8b3561379081614c46565b9a5060208c01356137a081614c46565b995060408c01356137b081614c46565b985060608c0135975060808c0135965060a08c0135955060c08c0135945060e08c013593506101008c01356137e481614c46565b92506101208c01356137f581614c46565b91506101408c013561380681614c46565b809150509295989b509295989b9093969950565b6000806040838503121561382c578182fd5b823561383781614c46565b9150602083013561384781614c5b565b809150509250929050565b60008060008060008060008060008060006101608c8e031215613785578081fd5b600080600060608486031215613887578283fd5b833561389281614c46565b92506020840135915060408401356138a981614c5b565b809150509250925092565b6000806000604084860312156138c8578081fd5b83356001600160401b038111156138dd578182fd5b6138e9868287016136c1565b90945092505060208401356138a981614c5b565b60008060008060408587031215613912578182fd5b84356001600160401b0380821115613928578384fd5b613934888389016136c1565b9096509450602087013591508082111561394c578384fd5b50613959878288016136c1565b95989497509550505050565b600060208284031215613976578081fd5b813561375d81614c5b565b600060208284031215613992578081fd5b815161375d81614c5b565b6000602082840312156139ae578081fd5b5035919050565b600080604083850312156139c7578182fd5b82359150602083013561384781614c46565b600080604083850312156139eb578182fd5b50508035926020909101359150565b60008060208385031215613a0c578182fd5b82356001600160401b03811115613a21578283fd5b613a2d85828601613702565b90969095509350505050565b600080600080600080600080610100898b031215613a55578182fd5b8835613a6081614c46565b97506020890135613a7081614c46565b96506040890135613a8081614c46565b9550606089013594506080890135935060a0890135613a9e81614c69565b979a969950949793969295929450505060c08201359160e0013590565b60008060008060408587031215613ad0578182fd5b84356001600160401b0380821115613ae6578384fd5b613af288838901613702565b90965094506020870135915080821115613b0a578384fd5b5061395987828801613702565b600060208284031215613b28578081fd5b81516001600160401b0380821115613b3e578283fd5b818401915084601f830112613b51578283fd5b815181811115613b5f578384fd5b604051601f8201601f191681016020018381118282101715613b7f578586fd5b604052818152838201602001871015613b96578485fd5b613ba7826020830160208701614c1a565b9695505050505050565b600060208284031215613bc2578081fd5b5051919050565b60008060408385031215613bdb578182fd5b82359150602083013561384781614c5b565b600060208284031215613bfe578081fd5b815161375d81614c69565b60008151808452613c21816020860160208601614c1a565b601f01601f19169290920160200192915050565b6000828483379101908152919050565b60008251613c57818460208701614c1a565b9190910192915050565b6000808354600180821660008114613c805760018114613c9757613cc6565b60ff198316865260028304607f1686019350613cc6565b600283048786526020808720875b83811015613cbe5781548a820152908501908201613ca5565b505050860193505b509195945050505050565b6001600160a01b0391909116815260200190565b6001600160a01b039b8c168152998b1660208b0152978a1660408a01526060890196909652608088019490945260a087019290925260c086015260e0850152841661010084015283166101208301529091166101408201526101600190565b6001600160a01b039384168152919092166020820152604081019190915260600190565b6001600160a01b0397881681529590961660208601526040850193909352606084019190915260ff16608083015260a082015260c081019190915260e00190565b6001600160a01b03929092168252602082015260400190565b6001600160a01b039490941684526001600160401b039283166020850152911660408301521515606082015260800190565b604080825283519082018190526000906020906060840190828701845b82811015613e2f578151151584529284019290840190600101613e11565b50505083810382850152808551613e468184613ef9565b91508192508381028201848801865b83811015613e7f578583038552613e6d838351613c09565b94870194925090860190600101613e55565b50909998505050505050505050565b6000602080830181845280855180835260408601915060408482028701019250838701855b82811015613ee157603f19888603018452613ecf858351613c09565b94509285019290850190600101613eb3565b5092979650505050505050565b901515815260200190565b90815260200190565b600060208252611ca36020830184613c09565b60006020825282602083015282846040840137818301604090810191909152601f909201601f19160101919050565b600060408252613f576040830185613c09565b90508260208301529392505050565b60006020808301818452828554600180821660008114613f8d5760018114613fab57613fe3565b60028304607f16855260ff1983166040890152606088019350613fe3565b60028304808652613fbb8a614c0e565b885b82811015613fd95781548b820160400152908401908801613fbd565b8a01604001955050505b5091979650505050505050565b602080825260159082015274426f72696e674d6174683a20556e646572666c6f7760581b604082015260600190565b602080825260139082015272105b1c9958591e481a5b9a5d1a585b1a5cd959606a1b604082015260600190565b60208082526022908201527f456e756d657261626c655365743a20696e646578206f7574206f6620626f756e604082015261647360f01b606082015260800190565b6020808252602f908201527f416363657373436f6e74726f6c3a2073656e646572206d75737420626520616e60408201526e0818591b5a5b881d1bc819dc985b9d608a1b606082015260800190565b6020808252602c908201527f43726f776473616c653a2073746172742074696d65206973206265666f72652060408201526b63757272656e742074696d6560a01b606082015260800190565b60208082526033908201527f447574636841756374696f6e3a2054686520636f6d6d6974746564204554482060408201527265786365656473207468652062616c616e636560681b606082015260800190565b60208082526052908201527f4e6f2061677265656d656e742070726f76696465642c20706c6561736520726560408201527f766965772074686520736d61727420636f6e7472616374206265666f726520696060820152711b9d195c9858dd1a5b99c81dda5d1a081a5d60721b608082015260a00190565b6020808252602c908201527f43726f776473616c653a2073746172742074696d65206973206e6f742062656660408201526b6f726520656e642074696d6560a01b606082015260800190565b602080825260159082015274111bd8dd5b595b9d081cda1bdd5b1908195e1a5cdd605a1b604082015260600190565b6020808252602e908201527f43726f776473616c653a2061756374696f6e2063616e6e6f742068617665206160408201526d1b1c9958591e481cdd185c9d195960921b606082015260800190565b6020808252601c908201527f43726f776473616c653a20616c72656164792066696e616c697a656400000000604082015260600190565b6020808252601c908201527f426f72696e674d6174683a2075696e74313238204f766572666c6f7700000000604082015260600190565b60208082526030908201527f416363657373436f6e74726f6c3a2073656e646572206d75737420626520616e60408201526f2061646d696e20746f207265766f6b6560801b606082015260800190565b6020808252603d908201527f43726f776473616c653a20676f616c2073686f756c6420626520657175616c2060408201527f746f206f72206c6f776572207468616e20746f74616c20746f6b656e73000000606082015260800190565b60208082526018908201527f426f72696e674d6174683a20416464204f766572666c6f770000000000000000604082015260600190565b60208082526018908201527f5a65726f206e616d65206973206e6f7420616c6c6f7765640000000000000000604082015260600190565b6020808252600f908201526e125b98dbdc9c9958dd081a5b9c1d5d608a1b604082015260600190565b602080825260149082015273043726f776473616c653a207261746520697320360641b604082015260600190565b60208082526028908201527f43726f776473616c653a205061796d656e742063757272656e6379206973206e60408201526706f742045524332360c41b606082015260800190565b60208082526032908201527f43726f776473616c653a20656e642074696d65206d757374206265206f6c646560408201527172207468616e20737461727420707269636560701b606082015260800190565b6020808252602a908201527f43726f776473616c653a20546f6b656e20646f6573206e6f74206861766520316040820152693820646563696d616c7360b01b606082015260800190565b6020808252601f908201527f43726f776473616c653a2046756e647320616c72656164792072616973656400604082015260600190565b60208082526024908201527f43726f776473616c653a2061646d696e20697320746865207a65726f206164646040820152637265737360e01b606082015260800190565b6020808252601b908201527f426f72696e674d6174683a2075696e743634204f766572666c6f770000000000604082015260600190565b6020808252602a908201527f43726f776473616c653a2062656e656669636961727920697320746865207a65604082015269726f206164647265737360b01b606082015260800190565b60208082526026908201527f43726f776473616c653a205061796d656e742063757272656e6379206973206e6040820152650dee8408aa8960d31b606082015260800190565b6020808252601f908201527f43726f776473616c653a20486173206e6f742066696e69736865642079657400604082015260600190565b60208082526023908201527f5472616e7366657248656c7065723a204554485f5452414e534645525f46414960408201526213115160ea1b606082015260800190565b6020808252818101527f43726f776473616c653a206f7574736964652061756374696f6e20686f757273604082015260600190565b60208082526027908201527f43726f776473616c653a2061756374696f6e20686173206e6f742066696e69736040820152661a1959081e595d60ca1b606082015260800190565b60208082526018908201527f43726f776473616c653a206e6f742066696e616c697a65640000000000000000604082015260600190565b6020808252602a908201527f43726f776473616c653a206d696e696d756d20746172676574206578636565646040820152690732068617264206361760b41b606082015260800190565b602080825260139082015272496e646578206f7574206f6620626f756e647360681b604082015260600190565b6020808252601c908201527f43726f776473616c653a20746f74616c20746f6b656e73206973203000000000604082015260600190565b60208082526025908201527f43726f776473616c653a2077616c6c657420697320746865207a65726f206164604082015264647265737360d81b606082015260800190565b6020808252601a908201527f53686f756c64206e6f74206265206120656d7074792064617461000000000000604082015260600190565b6020808252603e908201527f43726f776473616c653a20656e74657220616e20756e69782074696d6573746160408201527f6d7020696e207365636f6e64732c206e6f74206d696c697365636f6e64730000606082015260800190565b6020808252601d908201527f43726f776473616c653a206e6f20746f6b656e7320746f20636c61696d000000604082015260600190565b6020808252601f908201527f5265656e7472616e637947756172643a207265656e7472616e742063616c6c00604082015260600190565b60208082526018908201527f426f72696e674d6174683a204d756c204f766572666c6f770000000000000000604082015260600190565b60208082526022908201527f43726f776473616c653a2073656e646572206d75737420626520616e2061646d60408201526134b760f11b606082015260800190565b602080825260149082015273043726f776473616c653a20676f616c20697320360641b604082015260600190565b6020808252602f908201527f416363657373436f6e74726f6c3a2063616e206f6e6c792072656e6f756e636560408201526e103937b632b9903337b91039b2b63360891b606082015260800190565b6020808252602a908201527f43726f776473616c653a205061796d656e742063757272656e6379206973206e60408201526937ba1030903a37b5b2b760b11b606082015260800190565b602080825260149082015273426f72696e674d6174683a20446976207a65726f60601b604082015260600190565b6001600160801b0393909316835290151560208301521515604082015260600190565b6001600160801b0392831681529116602082015260400190565b918252602082015260400190565b6001600160401b0393841681529190921660208201526001600160801b03909116604082015260600190565b6000808335601e19843603018112614be0578283fd5b8301803591506001600160401b03821115614bf9578283fd5b602001915036819003821315611a5c57600080fd5b60009081526020902090565b60005b83811015614c35578181015183820152602001614c1d565b83811115611de15750506000910152565b6001600160a01b03811681146126ec57600080fd5b80151581146126ec57600080fd5b60ff811681146126ec57600080fdfe9d49f397ae9ef1a834b569acb967799a367061e305932181a44f5773da873bfd97667070c54ef182b0f5858b034beac1b6f3089aa2d3188bb1e8929f4fa9b9299f2df0fed2c77648de5860a4cc508cd0818c85b8b8a1ab4ceeef8d981c8956a64920756e6465727374616e642074686174204920616d20696e746572616374696e672077697468206120736d61727420636f6e74726163742e204920756e6465727374616e64207468617420746f6b656e7320636f6d6d6974656420617265207375626a65637420746f2074686520746f6b656e2069737375657220616e64206c6f63616c206c617773207768657265206170706c696361626c652e204920726576696577656420636f6465206f662074686520736d61727420636f6e747261637420616e6420756e6465727374616e642069742066756c6c792e204920616772656520746f206e6f7420686f6c6420646576656c6f70657273206f72206f746865722070656f706c65206173736f6369617465642077697468207468652070726f6a656374206c6961626c6520666f7220616e79206c6f73736573206f72206d6973756e6465727374616e64696e6773a2646970667358221220238e889001049c41a19bd2c149845a3b9d971168f26a235afdcff1a0fd1df01b64736f6c634300060c0033",
  "linkReferences": {},
  "deployedLinkReferences": {}
}