{
  "_format": "hh-sol-artifact-1",
  "contractName": "VaultsCore",
  "sourceName": "contracts/core/VaultsCore.sol",
  "abi": [
    {
      "inputs": [
        {
          "internalType": "contract IAddressProvider",
          "name": "_addresses",
          "type": "address"
        },
        {
          "internalType": "contract IWETH",
          "name": "_IWETH",
          "type": "address"
        },
        {
          "internalType": "contract IVaultsCoreState",
          "name": "_vaultsCoreState",
          "type": "address"
        }
      ],
      "stateMutability": "nonpayable",
      "type": "constructor"
    },
    {
      "anonymous": false,
      "inputs": [
        {
          "indexed": true,
          "internalType": "uint256",
          "name": "vaultId",
          "type": "uint256"
        },
        {
          "indexed": false,
          "internalType": "uint256",
          "name": "amount",
          "type": "uint256"
        },
        {
          "indexed": true,
          "internalType": "address",
          "name": "sender",
          "type": "address"
        }
      ],
      "name": "Borrowed",
      "type": "event"
    },
    {
      "anonymous": false,
      "inputs": [
        {
          "indexed": true,
          "internalType": "uint256",
          "name": "vaultId",
          "type": "uint256"
        },
        {
          "indexed": false,
          "internalType": "uint256",
          "name": "amount",
          "type": "uint256"
        },
        {
          "indexed": true,
          "internalType": "address",
          "name": "sender",
          "type": "address"
        }
      ],
      "name": "Deposited",
      "type": "event"
    },
    {
      "anonymous": false,
      "inputs": [
        {
          "indexed": true,
          "internalType": "uint256",
          "name": "vaultId",
          "type": "uint256"
        },
        {
          "indexed": false,
          "internalType": "uint256",
          "name": "insuranceAmount",
          "type": "uint256"
        },
        {
          "indexed": true,
          "internalType": "address",
          "name": "sender",
          "type": "address"
        }
      ],
      "name": "InsurancePaid",
      "type": "event"
    },
    {
      "anonymous": false,
      "inputs": [
        {
          "indexed": true,
          "internalType": "uint256",
          "name": "vaultId",
          "type": "uint256"
        },
        {
          "indexed": false,
          "internalType": "uint256",
          "name": "debtRepaid",
          "type": "uint256"
        },
        {
          "indexed": false,
          "internalType": "uint256",
          "name": "collateralLiquidated",
          "type": "uint256"
        },
        {
          "indexed": true,
          "internalType": "address",
          "name": "owner",
          "type": "address"
        },
        {
          "indexed": true,
          "internalType": "address",
          "name": "sender",
          "type": "address"
        }
      ],
      "name": "Liquidated",
      "type": "event"
    },
    {
      "anonymous": false,
      "inputs": [
        {
          "indexed": true,
          "internalType": "uint256",
          "name": "vaultId",
          "type": "uint256"
        },
        {
          "indexed": true,
          "internalType": "address",
          "name": "collateralType",
          "type": "address"
        },
        {
          "indexed": true,
          "internalType": "address",
          "name": "owner",
          "type": "address"
        }
      ],
      "name": "Opened",
      "type": "event"
    },
    {
      "anonymous": false,
      "inputs": [
        {
          "indexed": true,
          "internalType": "uint256",
          "name": "vaultId",
          "type": "uint256"
        },
        {
          "indexed": false,
          "internalType": "uint256",
          "name": "amount",
          "type": "uint256"
        },
        {
          "indexed": true,
          "internalType": "address",
          "name": "sender",
          "type": "address"
        }
      ],
      "name": "Repaid",
      "type": "event"
    },
    {
      "anonymous": false,
      "inputs": [
        {
          "indexed": true,
          "internalType": "uint256",
          "name": "vaultId",
          "type": "uint256"
        },
        {
          "indexed": false,
          "internalType": "uint256",
          "name": "amount",
          "type": "uint256"
        },
        {
          "indexed": true,
          "internalType": "address",
          "name": "sender",
          "type": "address"
        }
      ],
      "name": "Withdrawn",
      "type": "event"
    },
    {
      "inputs": [],
      "name": "WETH",
      "outputs": [
        {
          "internalType": "contract IWETH",
          "name": "",
          "type": "address"
        }
      ],
      "stateMutability": "view",
      "type": "function"
    },
    {
      "inputs": [],
      "name": "a",
      "outputs": [
        {
          "internalType": "contract IAddressProvider",
          "name": "",
          "type": "address"
        }
      ],
      "stateMutability": "view",
      "type": "function"
    },
    {
      "inputs": [
        {
          "internalType": "address payable",
          "name": "_oldVaultsCore",
          "type": "address"
        }
      ],
      "name": "acceptUpgrade",
      "outputs": [],
      "stateMutability": "nonpayable",
      "type": "function"
    },
    {
      "inputs": [
        {
          "internalType": "uint256",
          "name": "_vaultId",
          "type": "uint256"
        },
        {
          "internalType": "uint256",
          "name": "_amount",
          "type": "uint256"
        }
      ],
      "name": "borrow",
      "outputs": [],
      "stateMutability": "nonpayable",
      "type": "function"
    },
    {
      "inputs": [
        {
          "internalType": "address",
          "name": "_collateralType",
          "type": "address"
        }
      ],
      "name": "cumulativeRates",
      "outputs": [
        {
          "internalType": "uint256",
          "name": "",
          "type": "uint256"
        }
      ],
      "stateMutability": "view",
      "type": "function"
    },
    {
      "inputs": [],
      "name": "debtNotifier",
      "outputs": [
        {
          "internalType": "contract IDebtNotifier",
          "name": "",
          "type": "address"
        }
      ],
      "stateMutability": "view",
      "type": "function"
    },
    {
      "inputs": [
        {
          "internalType": "address",
          "name": "_collateralType",
          "type": "address"
        },
        {
          "internalType": "uint256",
          "name": "_amount",
          "type": "uint256"
        }
      ],
      "name": "deposit",
      "outputs": [],
      "stateMutability": "nonpayable",
      "type": "function"
    },
    {
      "inputs": [
        {
          "internalType": "address",
          "name": "_collateralType",
          "type": "address"
        },
        {
          "internalType": "uint256",
          "name": "_depositAmount",
          "type": "uint256"
        },
        {
          "internalType": "uint256",
          "name": "_borrowAmount",
          "type": "uint256"
        }
      ],
      "name": "depositAndBorrow",
      "outputs": [],
      "stateMutability": "nonpayable",
      "type": "function"
    },
    {
      "inputs": [
        {
          "internalType": "uint256",
          "name": "_vaultId",
          "type": "uint256"
        },
        {
          "internalType": "uint256",
          "name": "_amount",
          "type": "uint256"
        }
      ],
      "name": "depositByVaultId",
      "outputs": [],
      "stateMutability": "nonpayable",
      "type": "function"
    },
    {
      "inputs": [],
      "name": "depositETH",
      "outputs": [],
      "stateMutability": "payable",
      "type": "function"
    },
    {
      "inputs": [
        {
          "internalType": "uint256",
          "name": "_borrowAmount",
          "type": "uint256"
        }
      ],
      "name": "depositETHAndBorrow",
      "outputs": [],
      "stateMutability": "payable",
      "type": "function"
    },
    {
      "inputs": [
        {
          "internalType": "uint256",
          "name": "_vaultId",
          "type": "uint256"
        }
      ],
      "name": "depositETHByVaultId",
      "outputs": [],
      "stateMutability": "payable",
      "type": "function"
    },
    {
      "inputs": [
        {
          "internalType": "uint256",
          "name": "_vaultId",
          "type": "uint256"
        }
      ],
      "name": "liquidate",
      "outputs": [],
      "stateMutability": "nonpayable",
      "type": "function"
    },
    {
      "inputs": [
        {
          "internalType": "uint256",
          "name": "_vaultId",
          "type": "uint256"
        },
        {
          "internalType": "uint256",
          "name": "_amount",
          "type": "uint256"
        }
      ],
      "name": "liquidatePartial",
      "outputs": [],
      "stateMutability": "nonpayable",
      "type": "function"
    },
    {
      "inputs": [
        {
          "internalType": "uint256",
          "name": "_vaultId",
          "type": "uint256"
        },
        {
          "internalType": "uint256",
          "name": "_amount",
          "type": "uint256"
        }
      ],
      "name": "repay",
      "outputs": [],
      "stateMutability": "nonpayable",
      "type": "function"
    },
    {
      "inputs": [
        {
          "internalType": "uint256",
          "name": "_vaultId",
          "type": "uint256"
        }
      ],
      "name": "repayAll",
      "outputs": [],
      "stateMutability": "nonpayable",
      "type": "function"
    },
    {
      "inputs": [
        {
          "internalType": "contract IDebtNotifier",
          "name": "_debtNotifier",
          "type": "address"
        }
      ],
      "name": "setDebtNotifier",
      "outputs": [],
      "stateMutability": "nonpayable",
      "type": "function"
    },
    {
      "inputs": [],
      "name": "state",
      "outputs": [
        {
          "internalType": "contract IVaultsCoreState",
          "name": "",
          "type": "address"
        }
      ],
      "stateMutability": "view",
      "type": "function"
    },
    {
      "inputs": [
        {
          "internalType": "address payable",
          "name": "_newVaultsCore",
          "type": "address"
        }
      ],
      "name": "upgrade",
      "outputs": [],
      "stateMutability": "nonpayable",
      "type": "function"
    },
    {
      "inputs": [
        {
          "internalType": "uint256",
          "name": "_vaultId",
          "type": "uint256"
        },
        {
          "internalType": "uint256",
          "name": "_amount",
          "type": "uint256"
        }
      ],
      "name": "withdraw",
      "outputs": [],
      "stateMutability": "nonpayable",
      "type": "function"
    },
    {
      "inputs": [
        {
          "internalType": "uint256",
          "name": "_vaultId",
          "type": "uint256"
        },
        {
          "internalType": "uint256",
          "name": "_amount",
          "type": "uint256"
        }
      ],
      "name": "withdrawETH",
      "outputs": [],
      "stateMutability": "nonpayable",
      "type": "function"
    },
    {
      "stateMutability": "payable",
      "type": "receive"
    }
  ],
  "bytecode": "0x60806040523480156200001157600080fd5b5060405162005cfa38038062005cfa8339810160408190526200003491620000b8565b60016000556001600160a01b0383166200004d57600080fd5b6001600160a01b0382166200006157600080fd5b6001600160a01b0381166200007557600080fd5b600180546001600160a01b039485166001600160a01b03199182161790915560028054938516938216939093179092556003805491909316911617905562000124565b600080600060608486031215620000cd578283fd5b8351620000da816200010b565b6020850151909350620000ed816200010b565b604085015190925062000100816200010b565b809150509250925092565b6001600160a01b03811681146200012157600080fd5b50565b615bc680620001346000396000f3fe60806040526004361061012e5760003560e01c806385d36cd7116100ab578063c7cdea371161006f578063c7cdea371461031b578063ce2810411461033b578063cfc1b4191461035b578063d18343f31461037b578063d8aed1451461038e578063f6326fb3146103ae5761014c565b806385d36cd71461028f578063a1789085146102bc578063ad5c4648146102dc578063bd1b7146146102f1578063c19d93fb146103065761014c565b8063415f1240116100f2578063415f1240146101fc578063441a3e701461021c57806347e7ef241461023c5780634b9698661461025c57806357f256e31461027c5761014c565b80630900f010146101515780630dbe671f146101715780630ecbcdab1461019c5780631e6b6267146101bc5780633221be54146101dc5761014c565b3661014c576002546001600160a01b0316331461014a57600080fd5b005b600080fd5b34801561015d57600080fd5b5061014a61016c36600461564c565b6103b6565b34801561017d57600080fd5b506101866108fa565b6040516101939190615852565b60405180910390f35b3480156101a857600080fd5b5061014a6101b7366004615815565b610909565b3480156101c857600080fd5b5061014a6101d7366004615815565b6117c0565b3480156101e857600080fd5b5061014a6101f73660046157fd565b61282e565b34801561020857600080fd5b5061014a6102173660046157fd565b61283d565b34801561022857600080fd5b5061014a610237366004615815565b612849565b34801561024857600080fd5b5061014a610257366004615684565b612ac8565b34801561026857600080fd5b5061014a61027736600461564c565b612bf7565b61014a61028a3660046157fd565b612e2d565b34801561029b57600080fd5b506102af6102aa36600461564c565b612f41565b6040516101939190615afb565b3480156102c857600080fd5b5061014a6102d73660046156af565b612fc8565b3480156102e857600080fd5b506101866130de565b3480156102fd57600080fd5b506101866130ed565b34801561031257600080fd5b506101866130fc565b34801561032757600080fd5b5061014a610336366004615815565b61310b565b34801561034757600080fd5b5061014a610356366004615815565b613413565b34801561036757600080fd5b5061014a61037636600461564c565b613554565b61014a6103893660046157fd565b613aa3565b34801561039a57600080fd5b5061014a6103a9366004615815565b613c3e565b61014a614070565b600160009054906101000a90046001600160a01b03166001600160a01b031663f77c47916040518163ffffffff1660e01b815260040160206040518083038186803b15801561040457600080fd5b505afa158015610418573d6000803e3d6000fd5b505050506040513d601f19601f8201168201806040525081019061043c9190615668565b6001600160a01b03166391d14854600160009054906101000a90046001600160a01b03166001600160a01b031663f77c47916040518163ffffffff1660e01b815260040160206040518083038186803b15801561049857600080fd5b505afa1580156104ac573d6000803e3d6000fd5b505050506040513d601f19601f820116820180604052508101906104d09190615668565b6001600160a01b031663ec87621c6040518163ffffffff1660e01b815260040160206040518083038186803b15801561050857600080fd5b505afa15801561051c573d6000803e3d6000fd5b505050506040513d601f19601f820116820180604052508101906105409190615703565b336040518363ffffffff1660e01b815260040161055e9291906158bd565b60206040518083038186803b15801561057657600080fd5b505afa15801561058a573d6000803e3d6000fd5b505050506040513d601f19601f820116820180604052508101906105ae91906156e3565b6105b757600080fd5b6001600160a01b0381166105ca57600080fd5b600160009054906101000a90046001600160a01b03166001600160a01b03166316d8a5a96040518163ffffffff1660e01b815260040160206040518083038186803b15801561061857600080fd5b505afa15801561062c573d6000803e3d6000fd5b505050506040513d601f19601f820116820180604052508101906106509190615668565b6001600160a01b031663095ea7b3826000196040518363ffffffff1660e01b815260040161067f929190615866565b602060405180830381600087803b15801561069957600080fd5b505af11580156106ad573d6000803e3d6000fd5b505050506040513d601f19601f820116820180604052508101906106d191906156e3565b6106da57600080fd5b60015b600160009054906101000a90046001600160a01b03166001600160a01b03166379502c556040518163ffffffff1660e01b815260040160206040518083038186803b15801561072b57600080fd5b505afa15801561073f573d6000803e3d6000fd5b505050506040513d601f19601f820116820180604052508101906107639190615668565b6001600160a01b031663d47e470d6040518163ffffffff1660e01b815260040160206040518083038186803b15801561079b57600080fd5b505afa1580156107af573d6000803e3d6000fd5b505050506040513d601f19601f820116820180604052508101906107d39190615703565b81116108f657600154604080516379502c5560e01b815290516000926001600160a01b0316916379502c55916004808301926020929190829003018186803b15801561081e57600080fd5b505afa158015610832573d6000803e3d6000fd5b505050506040513d601f19601f820116820180604052508101906108569190615668565b6001600160a01b0316634a6e0dd0836040518263ffffffff1660e01b81526004016108819190615afb565b6101006040518083038186803b15801561089a57600080fd5b505afa1580156108ae573d6000803e3d6000fd5b505050506040513d601f19601f820116820180604052508101906108d2919061571b565b519050806108ec6001600160a01b038216856000196140f3565b50506001016106dd565b5050565b6001546001600160a01b031681565b81336001600160a01b0316600160009054906101000a90046001600160a01b03166001600160a01b03166365d552876040518163ffffffff1660e01b815260040160206040518083038186803b15801561096257600080fd5b505afa158015610976573d6000803e3d6000fd5b505050506040513d601f19601f8201168201806040525081019061099a9190615668565b6001600160a01b0316633c2ecfe5836040518263ffffffff1660e01b81526004016109c59190615afb565b60206040518083038186803b1580156109dd57600080fd5b505afa1580156109f1573d6000803e3d6000fd5b505050506040513d601f19601f82011682018060405250810190610a159190615668565b6001600160a01b031614610a2857600080fd5b60026000541415610a545760405162461bcd60e51b8152600401610a4b90615a6e565b60405180910390fd5b6002600055610a6161560b565b600160009054906101000a90046001600160a01b03166001600160a01b03166365d552876040518163ffffffff1660e01b815260040160206040518083038186803b158015610aaf57600080fd5b505afa158015610ac3573d6000803e3d6000fd5b505050506040513d601f19601f82011682018060405250810190610ae79190615668565b6001600160a01b0316638c64ea4a856040518263ffffffff1660e01b8152600401610b129190615afb565b60a06040518083038186803b158015610b2a57600080fd5b505afa158015610b3e573d6000803e3d6000fd5b505050506040513d601f19601f82011682018060405250810190610b629190615798565b600354815160405163fe042ceb60e01b81529293506001600160a01b039091169163fe042ceb91610b9591600401615852565b600060405180830381600087803b158015610baf57600080fd5b505af1158015610bc3573d6000803e3d6000fd5b505050506000600160009054906101000a90046001600160a01b03166001600160a01b03166379502c556040518163ffffffff1660e01b815260040160206040518083038186803b158015610c1757600080fd5b505afa158015610c2b573d6000803e3d6000fd5b505050506040513d601f19601f82011682018060405250810190610c4f9190615668565b8251604051631775a5f760e21b81526001600160a01b039290921691635dd697dc91610c7d91600401615852565b60206040518083038186803b158015610c9557600080fd5b505afa158015610ca9573d6000803e3d6000fd5b505050506040513d601f19601f82011682018060405250810190610ccd9190615703565b9050838115610ced57610cea610ce386846141ed565b8290614224565b90505b6001546040805163b8091c5b60e01b815290516000926001600160a01b03169163b8091c5b916004808301926020929190829003018186803b158015610d3257600080fd5b505afa158015610d46573d6000803e3d6000fd5b505050506040513d601f19601f82011682018060405250810190610d6a9190615668565b6001600160a01b0316633a282c0a83610d868760000151612f41565b6040518363ffffffff1660e01b8152600401610da3929190615b04565b60206040518083038186803b158015610dbb57600080fd5b505afa158015610dcf573d6000803e3d6000fd5b505050506040513d601f19601f82011682018060405250810190610df39190615703565b9050600160009054906101000a90046001600160a01b03166001600160a01b03166365d552876040518163ffffffff1660e01b815260040160206040518083038186803b158015610e4357600080fd5b505afa158015610e57573d6000803e3d6000fd5b505050506040513d601f19601f82011682018060405250810190610e7b9190615668565b6001600160a01b031663ef18fcb488610ea184886060015161422490919063ffffffff16565b6040518363ffffffff1660e01b8152600401610ebe929190615b04565b600060405180830381600087803b158015610ed857600080fd5b505af1158015610eec573d6000803e3d6000fd5b505050506000600160009054906101000a90046001600160a01b03166001600160a01b031663741bef1a6040518163ffffffff1660e01b815260040160206040518083038186803b158015610f4057600080fd5b505afa158015610f54573d6000803e3d6000fd5b505050506040513d601f19601f82011682018060405250810190610f789190615668565b6001600160a01b031663724091e0866000015187604001516040518363ffffffff1660e01b8152600401610fad929190615866565b60206040518083038186803b158015610fc557600080fd5b505afa158015610fd9573d6000803e3d6000fd5b505050506040513d601f19601f82011682018060405250810190610ffd9190615703565b90506000600160009054906101000a90046001600160a01b03166001600160a01b03166365d552876040518163ffffffff1660e01b815260040160206040518083038186803b15801561104f57600080fd5b505afa158015611063573d6000803e3d6000fd5b505050506040513d601f19601f820116820180604052508101906110879190615668565b6001600160a01b031663d310f49b8a6040518263ffffffff1660e01b81526004016110b29190615afb565b60206040518083038186803b1580156110ca57600080fd5b505afa1580156110de573d6000803e3d6000fd5b505050506040513d601f19601f820116820180604052508101906111029190615703565b9050600160009054906101000a90046001600160a01b03166001600160a01b03166379502c556040518163ffffffff1660e01b815260040160206040518083038186803b15801561115257600080fd5b505afa158015611166573d6000803e3d6000fd5b505050506040513d601f19601f8201168201806040525081019061118a9190615668565b8651604051638a98b12d60e01b81526001600160a01b039290921691638a98b12d916111b891600401615852565b60206040518083038186803b1580156111d057600080fd5b505afa1580156111e4573d6000803e3d6000fd5b505050506040513d601f19601f820116820180604052508101906112089190615703565b600160009054906101000a90046001600160a01b03166001600160a01b03166365d552876040518163ffffffff1660e01b815260040160206040518083038186803b15801561125657600080fd5b505afa15801561126a573d6000803e3d6000fd5b505050506040513d601f19601f8201168201806040525081019061128e9190615668565b87516040516309552ee360e11b81526001600160a01b0392909216916312aa5dc6916112bc91600401615852565b60206040518083038186803b1580156112d457600080fd5b505afa1580156112e8573d6000803e3d6000fd5b505050506040513d601f19601f8201168201806040525081019061130c9190615703565b111561131757600080fd5b600154604080516307bce81360e21b815290516000926001600160a01b031691631ef3a04c916004808301926020929190829003018186803b15801561135c57600080fd5b505afa158015611370573d6000803e3d6000fd5b505050506040513d601f19601f820116820180604052508101906113949190615668565b6001600160a01b0316630e84c2b38484600160009054906101000a90046001600160a01b03166001600160a01b03166379502c556040518163ffffffff1660e01b815260040160206040518083038186803b1580156113f257600080fd5b505afa158015611406573d6000803e3d6000fd5b505050506040513d601f19601f8201168201806040525081019061142a9190615668565b6001600160a01b0316634a6e0dd0600160009054906101000a90046001600160a01b03166001600160a01b03166379502c556040518163ffffffff1660e01b815260040160206040518083038186803b15801561148657600080fd5b505afa15801561149a573d6000803e3d6000fd5b505050506040513d601f19601f820116820180604052508101906114be9190615668565b8d5160405163db67c4d560e01b81526001600160a01b03929092169163db67c4d5916114ec91600401615852565b60206040518083038186803b15801561150457600080fd5b505afa158015611518573d6000803e3d6000fd5b505050506040513d601f19601f8201168201806040525081019061153c9190615703565b6040518263ffffffff1660e01b81526004016115589190615afb565b6101006040518083038186803b15801561157157600080fd5b505afa158015611585573d6000803e3d6000fd5b505050506040513d601f19601f820116820180604052508101906115a9919061571b565b606001516040518463ffffffff1660e01b81526004016115cb93929190615b12565b60206040518083038186803b1580156115e357600080fd5b505afa1580156115f7573d6000803e3d6000fd5b505050506040513d601f19601f8201168201806040525081019061161b91906156e3565b90508061162757600080fd5b600160009054906101000a90046001600160a01b03166001600160a01b03166316d8a5a96040518163ffffffff1660e01b815260040160206040518083038186803b15801561167557600080fd5b505afa158015611689573d6000803e3d6000fd5b505050506040513d601f19601f820116820180604052508101906116ad9190615668565b6001600160a01b03166340c10f19338b6040518363ffffffff1660e01b81526004016116da929190615866565b600060405180830381600087803b1580156116f457600080fd5b505af1158015611708573d6000803e3d6000fd5b505060048054604051631d3fa1c760e31b81526001600160a01b03909116935063e9fd0e38925061173b918e9101615afb565b600060405180830381600087803b15801561175557600080fd5b505af1158015611769573d6000803e3d6000fd5b50505050336001600160a01b03168a7feaf3bd02ad76e4b07064f7a219cd7722f0124fcc8b391721b63bc069aa4cbeb88b6040516117a79190615afb565b60405180910390a3505060016000555050505050505050565b600260005414156117e35760405162461bcd60e51b8152600401610a4b90615a6e565b60026000556117f061560b565b600160009054906101000a90046001600160a01b03166001600160a01b03166365d552876040518163ffffffff1660e01b815260040160206040518083038186803b15801561183e57600080fd5b505afa158015611852573d6000803e3d6000fd5b505050506040513d601f19601f820116820180604052508101906118769190615668565b6001600160a01b0316638c64ea4a846040518263ffffffff1660e01b81526004016118a19190615afb565b60a06040518083038186803b1580156118b957600080fd5b505afa1580156118cd573d6000803e3d6000fd5b505050506040513d601f19601f820116820180604052508101906118f19190615798565b600354815160405163fe042ceb60e01b81529293506001600160a01b039091169163fe042ceb9161192491600401615852565b600060405180830381600087803b15801561193e57600080fd5b505af1158015611952573d6000803e3d6000fd5b505050506000600160009054906101000a90046001600160a01b03166001600160a01b031663741bef1a6040518163ffffffff1660e01b815260040160206040518083038186803b1580156119a657600080fd5b505afa1580156119ba573d6000803e3d6000fd5b505050506040513d601f19601f820116820180604052508101906119de9190615668565b6001600160a01b031663724091e0836000015184604001516040518363ffffffff1660e01b8152600401611a13929190615866565b60206040518083038186803b158015611a2b57600080fd5b505afa158015611a3f573d6000803e3d6000fd5b505050506040513d601f19601f82011682018060405250810190611a639190615703565b90506000600160009054906101000a90046001600160a01b03166001600160a01b03166365d552876040518163ffffffff1660e01b815260040160206040518083038186803b158015611ab557600080fd5b505afa158015611ac9573d6000803e3d6000fd5b505050506040513d601f19601f82011682018060405250810190611aed9190615668565b6001600160a01b031663d310f49b866040518263ffffffff1660e01b8152600401611b189190615afb565b60206040518083038186803b158015611b3057600080fd5b505afa158015611b44573d6000803e3d6000fd5b505050506040513d601f19601f82011682018060405250810190611b689190615703565b9050600160009054906101000a90046001600160a01b03166001600160a01b0316631ef3a04c6040518163ffffffff1660e01b815260040160206040518083038186803b158015611bb857600080fd5b505afa158015611bcc573d6000803e3d6000fd5b505050506040513d601f19601f82011682018060405250810190611bf09190615668565b6001600160a01b0316630e84c2b38383600160009054906101000a90046001600160a01b03166001600160a01b03166379502c556040518163ffffffff1660e01b815260040160206040518083038186803b158015611c4e57600080fd5b505afa158015611c62573d6000803e3d6000fd5b505050506040513d601f19601f82011682018060405250810190611c869190615668565b6001600160a01b0316634a6e0dd0600160009054906101000a90046001600160a01b03166001600160a01b03166379502c556040518163ffffffff1660e01b815260040160206040518083038186803b158015611ce257600080fd5b505afa158015611cf6573d6000803e3d6000fd5b505050506040513d601f19601f82011682018060405250810190611d1a9190615668565b895160405163db67c4d560e01b81526001600160a01b03929092169163db67c4d591611d4891600401615852565b60206040518083038186803b158015611d6057600080fd5b505afa158015611d74573d6000803e3d6000fd5b505050506040513d601f19601f82011682018060405250810190611d989190615703565b6040518263ffffffff1660e01b8152600401611db49190615afb565b6101006040518083038186803b158015611dcd57600080fd5b505afa158015611de1573d6000803e3d6000fd5b505050506040513d601f19601f82011682018060405250810190611e05919061571b565b604001516040518463ffffffff1660e01b8152600401611e2793929190615b12565b60206040518083038186803b158015611e3f57600080fd5b505afa158015611e53573d6000803e3d6000fd5b505050506040513d601f19601f82011682018060405250810190611e7791906156e3565b15611e8157600080fd5b6000611f98600160009054906101000a90046001600160a01b03166001600160a01b03166379502c556040518163ffffffff1660e01b815260040160206040518083038186803b158015611ed457600080fd5b505afa158015611ee8573d6000803e3d6000fd5b505050506040513d601f19601f82011682018060405250810190611f0c9190615668565b8551604051637df10f2360e01b81526001600160a01b039290921691637df10f2391611f3a91600401615852565b60206040518083038186803b158015611f5257600080fd5b505afa158015611f66573d6000803e3d6000fd5b505050506040513d601f19601f82011682018060405250810190611f8a9190615703565b611f92614249565b90614255565b90506000611fa6838361427d565b9050600081871115611fbc575094508482611fc9565b611fc687846141ed565b90505b60006120db600160009054906101000a90046001600160a01b03166001600160a01b0316631ef3a04c6040518163ffffffff1660e01b815260040160206040518083038186803b15801561201c57600080fd5b505afa158015612030573d6000803e3d6000fd5b505050506040513d601f19601f820116820180604052508101906120549190615668565b8851604051630f81b64f60e31b81526001600160a01b039290921691637c0db27891612084918d90600401615866565b60206040518083038186803b15801561209c57600080fd5b505afa1580156120b0573d6000803e3d6000fd5b505050506040513d601f19601f820116820180604052508101906120d49190615703565b8990614224565b9050600086821061244157600154604080516307bce81360e21b815290518994506000926001600160a01b031691631ef3a04c916004808301926020929190829003018186803b15801561212e57600080fd5b505afa158015612142573d6000803e3d6000fd5b505050506040513d601f19601f820116820180604052508101906121669190615668565b8951604051636b075c8d60e11b81526001600160a01b03929092169163d60eb91a91612196918c90600401615866565b60206040518083038186803b1580156121ae57600080fd5b505afa1580156121c2573d6000803e3d6000fd5b505050506040513d601f19601f820116820180604052508101906121e69190615703565b905080871115612431576121fa8782614255565b915081600160009054906101000a90046001600160a01b03166001600160a01b03166316d8a5a96040518163ffffffff1660e01b815260040160206040518083038186803b15801561224b57600080fd5b505afa15801561225f573d6000803e3d6000fd5b505050506040513d601f19601f820116820180604052508101906122839190615668565b6001600160a01b03166370a08231306040518263ffffffff1660e01b81526004016122ae9190615852565b60206040518083038186803b1580156122c657600080fd5b505afa1580156122da573d6000803e3d6000fd5b505050506040513d601f19601f820116820180604052508101906122fe9190615703565b101561230957600080fd5b600160009054906101000a90046001600160a01b03166001600160a01b03166316d8a5a96040518163ffffffff1660e01b815260040160206040518083038186803b15801561235757600080fd5b505afa15801561236b573d6000803e3d6000fd5b505050506040513d601f19601f8201168201806040525081019061238f9190615668565b6001600160a01b0316639dc29fac30846040518363ffffffff1660e01b81526004016123bc929190615866565b600060405180830381600087803b1580156123d657600080fd5b505af11580156123ea573d6000803e3d6000fd5b50505050336001600160a01b03168b7fee59f0ab11beb3caf57d8bff0a6295df41b8a08d3adcabc7840e70ad1e4c9c57846040516124289190615afb565b60405180910390a35b61243b8783614255565b90995092505b6124548a61244f8584614224565b6142ab565b600160009054906101000a90046001600160a01b03166001600160a01b03166316d8a5a96040518163ffffffff1660e01b815260040160206040518083038186803b1580156124a257600080fd5b505afa1580156124b6573d6000803e3d6000fd5b505050506040513d601f19601f820116820180604052508101906124da9190615668565b6001600160a01b0316639dc29fac338b6040518363ffffffff1660e01b8152600401612507929190615866565b600060405180830381600087803b15801561252157600080fd5b505af1158015612535573d6000803e3d6000fd5b505050506000600160009054906101000a90046001600160a01b03166001600160a01b031663741bef1a6040518163ffffffff1660e01b815260040160206040518083038186803b15801561258957600080fd5b505afa15801561259d573d6000803e3d6000fd5b505050506040513d601f19601f820116820180604052508101906125c19190615668565b8951604051639bfa518160e01b81526001600160a01b039290921691639bfa5181916125f1918790600401615866565b60206040518083038186803b15801561260957600080fd5b505afa15801561261d573d6000803e3d6000fd5b505050506040513d601f19601f820116820180604052508101906126419190615703565b9050600160009054906101000a90046001600160a01b03166001600160a01b03166365d552876040518163ffffffff1660e01b815260040160206040518083038186803b15801561269157600080fd5b505afa1580156126a5573d6000803e3d6000fd5b505050506040513d601f19601f820116820180604052508101906126c99190615668565b6001600160a01b031663c7eb222b8c6126ef848d6040015161425590919063ffffffff16565b6040518363ffffffff1660e01b815260040161270c929190615b04565b600060405180830381600087803b15801561272657600080fd5b505af115801561273a573d6000803e3d6000fd5b50508a51915061275690506001600160a01b03821633846147a0565b600460009054906101000a90046001600160a01b03166001600160a01b031663e9fd0e388d6040518263ffffffff1660e01b81526004016127979190615afb565b600060405180830381600087803b1580156127b157600080fd5b505af11580156127c5573d6000803e3d6000fd5b50505050336001600160a01b03168a602001516001600160a01b03168d7faba5d629ca14a7d184b55def9058e247debfb64f6ccebd9782b8c9c65307ccb08886604051612813929190615b04565b60405180910390a45050600160005550505050505050505050565b61283a81600019613c3e565b50565b61283a816000196117c0565b81336001600160a01b0316600160009054906101000a90046001600160a01b03166001600160a01b03166365d552876040518163ffffffff1660e01b815260040160206040518083038186803b1580156128a257600080fd5b505afa1580156128b6573d6000803e3d6000fd5b505050506040513d601f19601f820116820180604052508101906128da9190615668565b6001600160a01b0316633c2ecfe5836040518263ffffffff1660e01b81526004016129059190615afb565b60206040518083038186803b15801561291d57600080fd5b505afa158015612931573d6000803e3d6000fd5b505050506040513d601f19601f820116820180604052508101906129559190615668565b6001600160a01b03161461296857600080fd5b6002600054141561298b5760405162461bcd60e51b8152600401610a4b90615a6e565b600260005561299a83836147bf565b6129a261560b565b600160009054906101000a90046001600160a01b03166001600160a01b03166365d552876040518163ffffffff1660e01b815260040160206040518083038186803b1580156129f057600080fd5b505afa158015612a04573d6000803e3d6000fd5b505050506040513d601f19601f82011682018060405250810190612a289190615668565b6001600160a01b0316638c64ea4a856040518263ffffffff1660e01b8152600401612a539190615afb565b60a06040518083038186803b158015612a6b57600080fd5b505afa158015612a7f573d6000803e3d6000fd5b505050506040513d601f19601f82011682018060405250810190612aa39190615798565b8051909150612abc6001600160a01b03821633866147a0565b50506001600055505050565b600160009054906101000a90046001600160a01b03166001600160a01b03166379502c556040518163ffffffff1660e01b815260040160206040518083038186803b158015612b1657600080fd5b505afa158015612b2a573d6000803e3d6000fd5b505050506040513d601f19601f82011682018060405250810190612b4e9190615668565b6001600160a01b031663db67c4d5836040518263ffffffff1660e01b8152600401612b799190615852565b60206040518083038186803b158015612b9157600080fd5b505afa158015612ba5573d6000803e3d6000fd5b505050506040513d601f19601f82011682018060405250810190612bc99190615703565b612bd257600080fd5b81612be86001600160a01b038216333085614faa565b612bf28383614fcb565b505050565b600160009054906101000a90046001600160a01b03166001600160a01b031663f77c47916040518163ffffffff1660e01b815260040160206040518083038186803b158015612c4557600080fd5b505afa158015612c59573d6000803e3d6000fd5b505050506040513d601f19601f82011682018060405250810190612c7d9190615668565b6001600160a01b03166391d14854600160009054906101000a90046001600160a01b03166001600160a01b031663f77c47916040518163ffffffff1660e01b815260040160206040518083038186803b158015612cd957600080fd5b505afa158015612ced573d6000803e3d6000fd5b505050506040513d601f19601f82011682018060405250810190612d119190615668565b6001600160a01b031663ec87621c6040518163ffffffff1660e01b815260040160206040518083038186803b158015612d4957600080fd5b505afa158015612d5d573d6000803e3d6000fd5b505050506040513d601f19601f82011682018060405250810190612d819190615703565b336040518363ffffffff1660e01b8152600401612d9f9291906158bd565b60206040518083038186803b158015612db757600080fd5b505afa158015612dcb573d6000803e3d6000fd5b505050506040513d601f19601f82011682018060405250810190612def91906156e3565b612df857600080fd5b6001600160a01b038116612e0b57600080fd5b600480546001600160a01b0319166001600160a01b0392909216919091179055565b612e35614070565b600154604080516365d5528760e01b815290516000926001600160a01b0316916365d55287916004808301926020929190829003018186803b158015612e7a57600080fd5b505afa158015612e8e573d6000803e3d6000fd5b505050506040513d601f19601f82011682018060405250810190612eb29190615668565b60025460405163bd44815f60e01b81526001600160a01b039283169263bd44815f92612ee592911690339060040161587f565b60206040518083038186803b158015612efd57600080fd5b505afa158015612f11573d6000803e3d6000fd5b505050506040513d601f19601f82011682018060405250810190612f359190615703565b90506108f68183610909565b6003546040516385d36cd760e01b81526000916001600160a01b0316906385d36cd790612f72908590600401615852565b60206040518083038186803b158015612f8a57600080fd5b505afa158015612f9e573d6000803e3d6000fd5b505050506040513d601f19601f82011682018060405250810190612fc29190615703565b92915050565b612fd28383612ac8565b600154604080516365d5528760e01b815290516000926001600160a01b0316916365d55287916004808301926020929190829003018186803b15801561301757600080fd5b505afa15801561302b573d6000803e3d6000fd5b505050506040513d601f19601f8201168201806040525081019061304f9190615668565b6001600160a01b031663bd44815f85336040518363ffffffff1660e01b815260040161307c92919061587f565b60206040518083038186803b15801561309457600080fd5b505afa1580156130a8573d6000803e3d6000fd5b505050506040513d601f19601f820116820180604052508101906130cc9190615703565b90506130d88183610909565b50505050565b6002546001600160a01b031681565b6004546001600160a01b031681565b6003546001600160a01b031681565b81336001600160a01b0316600160009054906101000a90046001600160a01b03166001600160a01b03166365d552876040518163ffffffff1660e01b815260040160206040518083038186803b15801561316457600080fd5b505afa158015613178573d6000803e3d6000fd5b505050506040513d601f19601f8201168201806040525081019061319c9190615668565b6001600160a01b0316633c2ecfe5836040518263ffffffff1660e01b81526004016131c79190615afb565b60206040518083038186803b1580156131df57600080fd5b505afa1580156131f3573d6000803e3d6000fd5b505050506040513d601f19601f820116820180604052508101906132179190615668565b6001600160a01b03161461322a57600080fd5b6002600054141561324d5760405162461bcd60e51b8152600401610a4b90615a6e565b600260005561325c83836147bf565b61326461560b565b600160009054906101000a90046001600160a01b03166001600160a01b03166365d552876040518163ffffffff1660e01b815260040160206040518083038186803b1580156132b257600080fd5b505afa1580156132c6573d6000803e3d6000fd5b505050506040513d601f19601f820116820180604052508101906132ea9190615668565b6001600160a01b0316638c64ea4a856040518263ffffffff1660e01b81526004016133159190615afb565b60a06040518083038186803b15801561332d57600080fd5b505afa158015613341573d6000803e3d6000fd5b505050506040513d601f19601f820116820180604052508101906133659190615798565b60025481519192506001600160a01b0391821691161461338457600080fd5b600254604051632e1a7d4d60e01b81526001600160a01b0390911690632e1a7d4d906133b4908690600401615afb565b600060405180830381600087803b1580156133ce57600080fd5b505af11580156133e2573d6000803e3d6000fd5b505060405133925085156108fc02915085906000818181858888f19350505050158015612abc573d6000803e3d6000fd5b61341b61560b565b600160009054906101000a90046001600160a01b03166001600160a01b03166365d552876040518163ffffffff1660e01b815260040160206040518083038186803b15801561346957600080fd5b505afa15801561347d573d6000803e3d6000fd5b505050506040513d601f19601f820116820180604052508101906134a19190615668565b6001600160a01b0316638c64ea4a846040518263ffffffff1660e01b81526004016134cc9190615afb565b60a06040518083038186803b1580156134e457600080fd5b505afa1580156134f8573d6000803e3d6000fd5b505050506040513d601f19601f8201168201806040525081019061351c9190615798565b80519091506001600160a01b031661353357600080fd5b805161354a6001600160a01b038216333086614faa565b6130d884846151da565b600160009054906101000a90046001600160a01b03166001600160a01b031663f77c47916040518163ffffffff1660e01b815260040160206040518083038186803b1580156135a257600080fd5b505afa1580156135b6573d6000803e3d6000fd5b505050506040513d601f19601f820116820180604052508101906135da9190615668565b6001600160a01b03166391d14854600160009054906101000a90046001600160a01b03166001600160a01b031663f77c47916040518163ffffffff1660e01b815260040160206040518083038186803b15801561363657600080fd5b505afa15801561364a573d6000803e3d6000fd5b505050506040513d601f19601f8201168201806040525081019061366e9190615668565b6001600160a01b031663ec87621c6040518163ffffffff1660e01b815260040160206040518083038186803b1580156136a657600080fd5b505afa1580156136ba573d6000803e3d6000fd5b505050506040513d601f19601f820116820180604052508101906136de9190615703565b336040518363ffffffff1660e01b81526004016136fc9291906158bd565b60206040518083038186803b15801561371457600080fd5b505afa158015613728573d6000803e3d6000fd5b505050506040513d601f19601f8201168201806040525081019061374c91906156e3565b61375557600080fd5b600154604080516316d8a5a960e01b815290516000926001600160a01b0316916316d8a5a9916004808301926020929190829003018186803b15801561379a57600080fd5b505afa1580156137ae573d6000803e3d6000fd5b505050506040513d601f19601f820116820180604052508101906137d29190615668565b90506138678230836001600160a01b03166370a08231866040518263ffffffff1660e01b81526004016138059190615852565b60206040518083038186803b15801561381d57600080fd5b505afa158015613831573d6000803e3d6000fd5b505050506040513d601f19601f820116820180604052508101906138559190615703565b6001600160a01b038516929190614faa565b60015b600160009054906101000a90046001600160a01b03166001600160a01b03166379502c556040518163ffffffff1660e01b815260040160206040518083038186803b1580156138b857600080fd5b505afa1580156138cc573d6000803e3d6000fd5b505050506040513d601f19601f820116820180604052508101906138f09190615668565b6001600160a01b031663d47e470d6040518163ffffffff1660e01b815260040160206040518083038186803b15801561392857600080fd5b505afa15801561393c573d6000803e3d6000fd5b505050506040513d601f19601f820116820180604052508101906139609190615703565b8111612bf257600154604080516379502c5560e01b815290516000926001600160a01b0316916379502c55916004808301926020929190829003018186803b1580156139ab57600080fd5b505afa1580156139bf573d6000803e3d6000fd5b505050506040513d601f19601f820116820180604052508101906139e39190615668565b6001600160a01b0316634a6e0dd0836040518263ffffffff1660e01b8152600401613a0e9190615afb565b6101006040518083038186803b158015613a2757600080fd5b505afa158015613a3b573d6000803e3d6000fd5b505050506040513d601f19601f82011682018060405250810190613a5f919061571b565b516040516370a0823160e01b81529091508190613a9990869030906001600160a01b038516906370a0823190613805908590600401615852565b505060010161386a565b613aab61560b565b600160009054906101000a90046001600160a01b03166001600160a01b03166365d552876040518163ffffffff1660e01b815260040160206040518083038186803b158015613af957600080fd5b505afa158015613b0d573d6000803e3d6000fd5b505050506040513d601f19601f82011682018060405250810190613b319190615668565b6001600160a01b0316638c64ea4a836040518263ffffffff1660e01b8152600401613b5c9190615afb565b60a06040518083038186803b158015613b7457600080fd5b505afa158015613b88573d6000803e3d6000fd5b505050506040513d601f19601f82011682018060405250810190613bac9190615798565b60025481519192506001600160a01b03918216911614613bcb57600080fd5b600260009054906101000a90046001600160a01b03166001600160a01b031663d0e30db0346040518263ffffffff1660e01b81526004016000604051808303818588803b158015613c1b57600080fd5b505af1158015613c2f573d6000803e3d6000fd5b50505050506108f682346151da565b60026000541415613c615760405162461bcd60e51b8152600401610a4b90615a6e565b60026000908155600154604080516365d5528760e01b815290516001600160a01b03909216916365d5528791600480820192602092909190829003018186803b158015613cad57600080fd5b505afa158015613cc1573d6000803e3d6000fd5b505050506040513d601f19601f82011682018060405250810190613ce59190615668565b6001600160a01b031663b508bc59846040518263ffffffff1660e01b8152600401613d109190615afb565b60206040518083038186803b158015613d2857600080fd5b505afa158015613d3c573d6000803e3d6000fd5b505050506040513d601f19601f82011682018060405250810190613d609190615668565b60035460405163fe042ceb60e01b81529192506001600160a01b03169063fe042ceb90613d91908490600401615852565b600060405180830381600087803b158015613dab57600080fd5b505af1158015613dbf573d6000803e3d6000fd5b505050506000600160009054906101000a90046001600160a01b03166001600160a01b03166365d552876040518163ffffffff1660e01b815260040160206040518083038186803b158015613e1357600080fd5b505afa158015613e27573d6000803e3d6000fd5b505050506040513d601f19601f82011682018060405250810190613e4b9190615668565b6001600160a01b031663d310f49b856040518263ffffffff1660e01b8152600401613e769190615afb565b60206040518083038186803b158015613e8e57600080fd5b505afa158015613ea2573d6000803e3d6000fd5b505050506040513d601f19601f82011682018060405250810190613ec69190615703565b9050808310613ed3578092505b613edd84846142ab565b600160009054906101000a90046001600160a01b03166001600160a01b03166316d8a5a96040518163ffffffff1660e01b815260040160206040518083038186803b158015613f2b57600080fd5b505afa158015613f3f573d6000803e3d6000fd5b505050506040513d601f19601f82011682018060405250810190613f639190615668565b6001600160a01b0316639dc29fac33856040518363ffffffff1660e01b8152600401613f90929190615866565b600060405180830381600087803b158015613faa57600080fd5b505af1158015613fbe573d6000803e3d6000fd5b505060048054604051631d3fa1c760e31b81526001600160a01b03909116935063e9fd0e389250613ff191889101615afb565b600060405180830381600087803b15801561400b57600080fd5b505af115801561401f573d6000803e3d6000fd5b50505050336001600160a01b0316847fec0b41ca9a2a301ec07412b3c841535558e6b49d98c606aeca50e85f164182f28560405161405d9190615afb565b60405180910390a3505060016000555050565b600260009054906101000a90046001600160a01b03166001600160a01b031663d0e30db0346040518263ffffffff1660e01b81526004016000604051808303818588803b1580156140c057600080fd5b505af11580156140d4573d6000803e3d6000fd5b50506002546140f193506001600160a01b03169150349050614fcb565b565b80158061417b5750604051636eb1769f60e11b81526001600160a01b0384169063dd62ed3e90614129903090869060040161587f565b60206040518083038186803b15801561414157600080fd5b505afa158015614155573d6000803e3d6000fd5b505050506040513d601f19601f820116820180604052508101906141799190615703565b155b6141975760405162461bcd60e51b8152600401610a4b90615aa5565b612bf28363095ea7b360e01b84846040516024016141b6929190615866565b60408051601f198184030181529190526020810180516001600160e01b03166001600160e01b031990931692909217909152615427565b600061421d670de0b6b3a764000061421761420886866154b6565b6706f05b59d3b2000090614224565b906154f0565b9392505050565b60008282018381101561421d5760405162461bcd60e51b8152600401610a4b90615907565b670de0b6b3a764000090565b6000828211156142775760405162461bcd60e51b8152600401610a4b9061593e565b50900390565b6000600282046142a38361421761429c87670de0b6b3a76400006154b6565b8490614224565b949350505050565b600154604080516365d5528760e01b815290516000926001600160a01b0316916365d55287916004808301926020929190829003018186803b1580156142f057600080fd5b505afa158015614304573d6000803e3d6000fd5b505050506040513d601f19601f820116820180604052508101906143289190615668565b6001600160a01b031663b508bc59846040518263ffffffff1660e01b81526004016143539190615afb565b60206040518083038186803b15801561436b57600080fd5b505afa15801561437f573d6000803e3d6000fd5b505050506040513d601f19601f820116820180604052508101906143a39190615668565b90506000600160009054906101000a90046001600160a01b03166001600160a01b03166365d552876040518163ffffffff1660e01b815260040160206040518083038186803b1580156143f557600080fd5b505afa158015614409573d6000803e3d6000fd5b505050506040513d601f19601f8201168201806040525081019061442d9190615668565b6001600160a01b031663d310f49b856040518263ffffffff1660e01b81526004016144589190615afb565b60206040518083038186803b15801561447057600080fd5b505afa158015614484573d6000803e3d6000fd5b505050506040513d601f19601f820116820180604052508101906144a89190615703565b905060006144b68285614255565b905060006144c384612f41565b9050816145b557600160009054906101000a90046001600160a01b03166001600160a01b03166365d552876040518163ffffffff1660e01b815260040160206040518083038186803b15801561451857600080fd5b505afa15801561452c573d6000803e3d6000fd5b505050506040513d601f19601f820116820180604052508101906145509190615668565b6001600160a01b031663ef18fcb48760006040518363ffffffff1660e01b815260040161457e929190615b04565b600060405180830381600087803b15801561459857600080fd5b505af11580156145ac573d6000803e3d6000fd5b50505050614798565b6001546040805163b8091c5b60e01b815290516000926001600160a01b03169163b8091c5b916004808301926020929190829003018186803b1580156145fa57600080fd5b505afa15801561460e573d6000803e3d6000fd5b505050506040513d601f19601f820116820180604052508101906146329190615668565b6001600160a01b0316633a282c0a84846040518363ffffffff1660e01b815260040161465f929190615b04565b60206040518083038186803b15801561467757600080fd5b505afa15801561468b573d6000803e3d6000fd5b505050506040513d601f19601f820116820180604052508101906146af9190615703565b9050600160009054906101000a90046001600160a01b03166001600160a01b03166365d552876040518163ffffffff1660e01b815260040160206040518083038186803b1580156146ff57600080fd5b505afa158015614713573d6000803e3d6000fd5b505050506040513d601f19601f820116820180604052508101906147379190615668565b6001600160a01b031663ef18fcb488836040518363ffffffff1660e01b8152600401614764929190615b04565b600060405180830381600087803b15801561477e57600080fd5b505af1158015614792573d6000803e3d6000fd5b50505050505b505050505050565b612bf28363a9059cbb60e01b84846040516024016141b6929190615866565b6147c761560b565b600160009054906101000a90046001600160a01b03166001600160a01b03166365d552876040518163ffffffff1660e01b815260040160206040518083038186803b15801561481557600080fd5b505afa158015614829573d6000803e3d6000fd5b505050506040513d601f19601f8201168201806040525081019061484d9190615668565b6001600160a01b0316638c64ea4a846040518263ffffffff1660e01b81526004016148789190615afb565b60a06040518083038186803b15801561489057600080fd5b505afa1580156148a4573d6000803e3d6000fd5b505050506040513d601f19601f820116820180604052508101906148c89190615798565b905080604001518211156148db57600080fd5b60408101516000906148ed9084614255565b9050600160009054906101000a90046001600160a01b03166001600160a01b03166365d552876040518163ffffffff1660e01b815260040160206040518083038186803b15801561493d57600080fd5b505afa158015614951573d6000803e3d6000fd5b505050506040513d601f19601f820116820180604052508101906149759190615668565b6001600160a01b031663c7eb222b85836040518363ffffffff1660e01b81526004016149a2929190615b04565b600060405180830381600087803b1580156149bc57600080fd5b505af11580156149d0573d6000803e3d6000fd5b50505050606082015115614f6257600354825160405163fe042ceb60e01b81526001600160a01b039092169163fe042ceb91614a0e91600401615852565b600060405180830381600087803b158015614a2857600080fd5b505af1158015614a3c573d6000803e3d6000fd5b505050506000600160009054906101000a90046001600160a01b03166001600160a01b031663741bef1a6040518163ffffffff1660e01b815260040160206040518083038186803b158015614a9057600080fd5b505afa158015614aa4573d6000803e3d6000fd5b505050506040513d601f19601f82011682018060405250810190614ac89190615668565b8351604051630392048f60e51b81526001600160a01b03929092169163724091e091614af8918690600401615866565b60206040518083038186803b158015614b1057600080fd5b505afa158015614b24573d6000803e3d6000fd5b505050506040513d601f19601f82011682018060405250810190614b489190615703565b9050600160009054906101000a90046001600160a01b03166001600160a01b0316631ef3a04c6040518163ffffffff1660e01b815260040160206040518083038186803b158015614b9857600080fd5b505afa158015614bac573d6000803e3d6000fd5b505050506040513d601f19601f82011682018060405250810190614bd09190615668565b6001600160a01b0316630e84c2b382600160009054906101000a90046001600160a01b03166001600160a01b03166365d552876040518163ffffffff1660e01b815260040160206040518083038186803b158015614c2d57600080fd5b505afa158015614c41573d6000803e3d6000fd5b505050506040513d601f19601f82011682018060405250810190614c659190615668565b6001600160a01b031663d310f49b896040518263ffffffff1660e01b8152600401614c909190615afb565b60206040518083038186803b158015614ca857600080fd5b505afa158015614cbc573d6000803e3d6000fd5b505050506040513d601f19601f82011682018060405250810190614ce09190615703565b600160009054906101000a90046001600160a01b03166001600160a01b03166379502c556040518163ffffffff1660e01b815260040160206040518083038186803b158015614d2e57600080fd5b505afa158015614d42573d6000803e3d6000fd5b505050506040513d601f19601f82011682018060405250810190614d669190615668565b6001600160a01b0316634a6e0dd0600160009054906101000a90046001600160a01b03166001600160a01b03166379502c556040518163ffffffff1660e01b815260040160206040518083038186803b158015614dc257600080fd5b505afa158015614dd6573d6000803e3d6000fd5b505050506040513d601f19601f82011682018060405250810190614dfa9190615668565b895160405163db67c4d560e01b81526001600160a01b03929092169163db67c4d591614e2891600401615852565b60206040518083038186803b158015614e4057600080fd5b505afa158015614e54573d6000803e3d6000fd5b505050506040513d601f19601f82011682018060405250810190614e789190615703565b6040518263ffffffff1660e01b8152600401614e949190615afb565b6101006040518083038186803b158015614ead57600080fd5b505afa158015614ec1573d6000803e3d6000fd5b505050506040513d601f19601f82011682018060405250810190614ee5919061571b565b606001516040518463ffffffff1660e01b8152600401614f0793929190615b12565b60206040518083038186803b158015614f1f57600080fd5b505afa158015614f33573d6000803e3d6000fd5b505050506040513d601f19601f82011682018060405250810190614f5791906156e3565b614f6057600080fd5b505b336001600160a01b0316847f02ffa641367f5b897c0f8be81bce51f2ef055b4113d7a1e4fd082feea749bf5285604051614f9c9190615afb565b60405180910390a350505050565b6130d8846323b872dd60e01b8585856040516024016141b693929190615899565b600154604080516365d5528760e01b815290516000926001600160a01b0316916365d55287916004808301926020929190829003018186803b15801561501057600080fd5b505afa158015615024573d6000803e3d6000fd5b505050506040513d601f19601f820116820180604052508101906150489190615668565b6001600160a01b031663bd44815f84336040518363ffffffff1660e01b815260040161507592919061587f565b60206040518083038186803b15801561508d57600080fd5b505afa1580156150a1573d6000803e3d6000fd5b505050506040513d601f19601f820116820180604052508101906150c59190615703565b9050806151d457600160009054906101000a90046001600160a01b03166001600160a01b03166365d552876040518163ffffffff1660e01b815260040160206040518083038186803b15801561511a57600080fd5b505afa15801561512e573d6000803e3d6000fd5b505050506040513d601f19601f820116820180604052508101906151529190615668565b6001600160a01b031663cc92d31c84336040518363ffffffff1660e01b815260040161517f92919061587f565b602060405180830381600087803b15801561519957600080fd5b505af11580156151ad573d6000803e3d6000fd5b505050506040513d601f19601f820116820180604052508101906151d19190615703565b90505b612bf281835b6151e261560b565b600160009054906101000a90046001600160a01b03166001600160a01b03166365d552876040518163ffffffff1660e01b815260040160206040518083038186803b15801561523057600080fd5b505afa158015615244573d6000803e3d6000fd5b505050506040513d601f19601f820116820180604052508101906152689190615668565b6001600160a01b0316638c64ea4a846040518263ffffffff1660e01b81526004016152939190615afb565b60a06040518083038186803b1580156152ab57600080fd5b505afa1580156152bf573d6000803e3d6000fd5b505050506040513d601f19601f820116820180604052508101906152e39190615798565b9050600160009054906101000a90046001600160a01b03166001600160a01b03166365d552876040518163ffffffff1660e01b815260040160206040518083038186803b15801561533357600080fd5b505afa158015615347573d6000803e3d6000fd5b505050506040513d601f19601f8201168201806040525081019061536b9190615668565b6001600160a01b031663c7eb222b8461539185856040015161422490919063ffffffff16565b6040518363ffffffff1660e01b81526004016153ae929190615b04565b600060405180830381600087803b1580156153c857600080fd5b505af11580156153dc573d6000803e3d6000fd5b50505050336001600160a01b0316837ffaddc2a572d923daf0944fe20bf804595e90ca57c85045b1081d338d1510bf148460405161541a9190615afb565b60405180910390a3505050565b606061547c826040518060400160405280602081526020017f5361666545524332303a206c6f772d6c6576656c2063616c6c206661696c6564815250856001600160a01b03166155229092919063ffffffff16565b805190915015612bf2578080602001905181019061549a91906156e3565b612bf25760405162461bcd60e51b8152600401610a4b90615a24565b6000826154c557506000612fc2565b828202828482816154d257fe5b041461421d5760405162461bcd60e51b8152600401610a4b906159ac565b60008082116155115760405162461bcd60e51b8152600401610a4b90615975565b81838161551a57fe5b049392505050565b60606142a3848460008585615536856155cc565b6155525760405162461bcd60e51b8152600401610a4b906159ed565b60006060866001600160a01b0316858760405161556f9190615836565b60006040518083038185875af1925050503d80600081146155ac576040519150601f19603f3d011682016040523d82523d6000602084013e6155b1565b606091505b50915091506155c18282866155d2565b979650505050505050565b3b151590565b606083156155e157508161421d565b8251156155f15782518084602001fd5b8160405162461bcd60e51b8152600401610a4b91906158d4565b6040518060a0016040528060006001600160a01b0316815260200160006001600160a01b031681526020016000815260200160008152602001600081525090565b60006020828403121561565d578081fd5b813561421d81615b7b565b600060208284031215615679578081fd5b815161421d81615b7b565b60008060408385031215615696578081fd5b82356156a181615b7b565b946020939093013593505050565b6000806000606084860312156156c3578081fd5b83356156ce81615b7b565b95602085013595506040909401359392505050565b6000602082840312156156f4578081fd5b8151801515811461421d578182fd5b600060208284031215615714578081fd5b5051919050565b600061010080838503121561572e578182fd5b61573781615b28565b9050825161574481615b7b565b808252506020830151602082015260408301516040820152606083015160608201526080830151608082015260a083015160a082015260c083015160c082015260e083015160e08201528091505092915050565b600060a082840312156157a9578081fd5b6157b360a0615b28565b82516157be81615b7b565b815260208301516157ce81615b7b565b806020830152506040830151604082015260608301516060820152608083015160808201528091505092915050565b60006020828403121561580e578081fd5b5035919050565b60008060408385031215615827578182fd5b50508035926020909101359150565b60008251615848818460208701615b4f565b9190910192915050565b6001600160a01b0391909116815260200190565b6001600160a01b03929092168252602082015260400190565b6001600160a01b0392831681529116602082015260400190565b6001600160a01b039384168152919092166020820152604081019190915260600190565b9182526001600160a01b0316602082015260400190565b60006020825282518060208401526158f3816040850160208701615b4f565b601f01601f19169190910160400192915050565b6020808252601b908201527f536166654d6174683a206164646974696f6e206f766572666c6f770000000000604082015260600190565b6020808252601e908201527f536166654d6174683a207375627472616374696f6e206f766572666c6f770000604082015260600190565b6020808252601a908201527f536166654d6174683a206469766973696f6e206279207a65726f000000000000604082015260600190565b60208082526021908201527f536166654d6174683a206d756c7469706c69636174696f6e206f766572666c6f6040820152607760f81b606082015260800190565b6020808252601d908201527f416464726573733a2063616c6c20746f206e6f6e2d636f6e7472616374000000604082015260600190565b6020808252602a908201527f5361666545524332303a204552433230206f7065726174696f6e20646964206e6040820152691bdd081cdd58d8d9595960b21b606082015260800190565b6020808252601f908201527f5265656e7472616e637947756172643a207265656e7472616e742063616c6c00604082015260600190565b60208082526036908201527f5361666545524332303a20617070726f76652066726f6d206e6f6e2d7a65726f60408201527520746f206e6f6e2d7a65726f20616c6c6f77616e636560501b606082015260800190565b90815260200190565b918252602082015260400190565b9283526020830191909152604082015260600190565b60405181810167ffffffffffffffff81118282101715615b4757600080fd5b604052919050565b60005b83811015615b6a578181015183820152602001615b52565b838111156130d85750506000910152565b6001600160a01b038116811461283a57600080fdfea2646970667358221220e42f8a67f238c2fc30778e9d6c03d20649f5a6f23cc59ce8865022b3f0e14c9c64736f6c634300060c0033",
  "linkReferences": {},
  "deployedLinkReferences": {}
}