{
  "_format": "hh-sol-artifact-1",
  "contractName": "DefaultAccessControl",
  "sourceName": "contracts/DefaultAccessControl.sol",
  "abi": [
    {
      "inputs": [
        {
          "internalType": "address",
          "name": "admin",
          "type": "address"
        }
      ],
      "stateMutability": "nonpayable",
      "type": "constructor"
    },
    {
      "anonymous": false,
      "inputs": [
        {
          "indexed": true,
          "internalType": "bytes32",
          "name": "role",
          "type": "bytes32"
        },
        {
          "indexed": true,
          "internalType": "bytes32",
          "name": "previousAdminRole",
          "type": "bytes32"
        },
        {
          "indexed": true,
          "internalType": "bytes32",
          "name": "newAdminRole",
          "type": "bytes32"
        }
      ],
      "name": "RoleAdminChanged",
      "type": "event"
    },
    {
      "anonymous": false,
      "inputs": [
        {
          "indexed": true,
          "internalType": "bytes32",
          "name": "role",
          "type": "bytes32"
        },
        {
          "indexed": true,
          "internalType": "address",
          "name": "account",
          "type": "address"
        },
        {
          "indexed": true,
          "internalType": "address",
          "name": "sender",
          "type": "address"
        }
      ],
      "name": "RoleGranted",
      "type": "event"
    },
    {
      "anonymous": false,
      "inputs": [
        {
          "indexed": true,
          "internalType": "bytes32",
          "name": "role",
          "type": "bytes32"
        },
        {
          "indexed": true,
          "internalType": "address",
          "name": "account",
          "type": "address"
        },
        {
          "indexed": true,
          "internalType": "address",
          "name": "sender",
          "type": "address"
        }
      ],
      "name": "RoleRevoked",
      "type": "event"
    },
    {
      "inputs": [],
      "name": "ADMIN_DELEGATE_ROLE",
      "outputs": [
        {
          "internalType": "bytes32",
          "name": "",
          "type": "bytes32"
        }
      ],
      "stateMutability": "view",
      "type": "function"
    },
    {
      "inputs": [],
      "name": "ADMIN_ROLE",
      "outputs": [
        {
          "internalType": "bytes32",
          "name": "",
          "type": "bytes32"
        }
      ],
      "stateMutability": "view",
      "type": "function"
    },
    {
      "inputs": [],
      "name": "DEFAULT_ADMIN_ROLE",
      "outputs": [
        {
          "internalType": "bytes32",
          "name": "",
          "type": "bytes32"
        }
      ],
      "stateMutability": "view",
      "type": "function"
    },
    {
      "inputs": [
        {
          "internalType": "bytes32",
          "name": "role",
          "type": "bytes32"
        }
      ],
      "name": "getRoleAdmin",
      "outputs": [
        {
          "internalType": "bytes32",
          "name": "",
          "type": "bytes32"
        }
      ],
      "stateMutability": "view",
      "type": "function"
    },
    {
      "inputs": [
        {
          "internalType": "bytes32",
          "name": "role",
          "type": "bytes32"
        },
        {
          "internalType": "uint256",
          "name": "index",
          "type": "uint256"
        }
      ],
      "name": "getRoleMember",
      "outputs": [
        {
          "internalType": "address",
          "name": "",
          "type": "address"
        }
      ],
      "stateMutability": "view",
      "type": "function"
    },
    {
      "inputs": [
        {
          "internalType": "bytes32",
          "name": "role",
          "type": "bytes32"
        }
      ],
      "name": "getRoleMemberCount",
      "outputs": [
        {
          "internalType": "uint256",
          "name": "",
          "type": "uint256"
        }
      ],
      "stateMutability": "view",
      "type": "function"
    },
    {
      "inputs": [
        {
          "internalType": "bytes32",
          "name": "role",
          "type": "bytes32"
        },
        {
          "internalType": "address",
          "name": "account",
          "type": "address"
        }
      ],
      "name": "grantRole",
      "outputs": [],
      "stateMutability": "nonpayable",
      "type": "function"
    },
    {
      "inputs": [
        {
          "internalType": "bytes32",
          "name": "role",
          "type": "bytes32"
        },
        {
          "internalType": "address",
          "name": "account",
          "type": "address"
        }
      ],
      "name": "hasRole",
      "outputs": [
        {
          "internalType": "bool",
          "name": "",
          "type": "bool"
        }
      ],
      "stateMutability": "view",
      "type": "function"
    },
    {
      "inputs": [
        {
          "internalType": "address",
          "name": "sender",
          "type": "address"
        }
      ],
      "name": "isAdmin",
      "outputs": [
        {
          "internalType": "bool",
          "name": "",
          "type": "bool"
        }
      ],
      "stateMutability": "view",
      "type": "function"
    },
    {
      "inputs": [
        {
          "internalType": "bytes32",
          "name": "role",
          "type": "bytes32"
        },
        {
          "internalType": "address",
          "name": "account",
          "type": "address"
        }
      ],
      "name": "renounceRole",
      "outputs": [],
      "stateMutability": "nonpayable",
      "type": "function"
    },
    {
      "inputs": [
        {
          "internalType": "bytes32",
          "name": "role",
          "type": "bytes32"
        },
        {
          "internalType": "address",
          "name": "account",
          "type": "address"
        }
      ],
      "name": "revokeRole",
      "outputs": [],
      "stateMutability": "nonpayable",
      "type": "function"
    },
    {
      "inputs": [
        {
          "internalType": "bytes4",
          "name": "interfaceId",
          "type": "bytes4"
        }
      ],
      "name": "supportsInterface",
      "outputs": [
        {
          "internalType": "bool",
          "name": "",
          "type": "bool"
        }
      ],
      "stateMutability": "view",
      "type": "function"
    }
  ],
  "bytecode": "0x60806040523480156200001157600080fd5b5060405162000ed938038062000ed98339810160408190526200003491620002ab565b6040805180820190915260048152635a41444d60e01b60208201526001600160a01b038216620000825760405162461bcd60e51b8152600401620000799190620002dd565b60405180910390fd5b506200009e60008051602062000eb983398151915282620000fb565b620000b960008051602062000eb9833981519152806200010b565b620000f47fc171260023d22a25a00a2789664c9334017843b831138c8ef03cc8897e5873d760008051602062000eb98339815191526200010b565b5062000335565b62000107828262000156565b5050565b600082815260208190526040808220600101805490849055905190918391839186917fbd79b86ffe0ab8e8776151514217cd7cacd52c909f66475c3af44e129f0b00ff9190a4505050565b6200016d82826200019960201b620003bf1760201c565b6000828152600160209081526040909120620001949183906200044362000239821b17901c565b505050565b6000828152602081815260408083206001600160a01b038516845290915290205460ff1662000107576000828152602081815260408083206001600160a01b03851684529091529020805460ff19166001179055620001f53390565b6001600160a01b0316816001600160a01b0316837f2f8788117e7eff1d82e926ec794901d17c78024a50270940304540a733656f0d60405160405180910390a45050565b600062000250836001600160a01b03841662000259565b90505b92915050565b6000818152600183016020526040812054620002a25750815460018181018455600084815260208082209093018490558454848252828601909352604090209190915562000253565b50600062000253565b600060208284031215620002be57600080fd5b81516001600160a01b0381168114620002d657600080fd5b9392505050565b600060208083528351808285015260005b818110156200030c57858101830151858201604001528201620002ee565b818111156200031f576000604083870101525b50601f01601f1916929092016040019392505050565b610b7480620003456000396000f3fe608060405234801561001057600080fd5b50600436106100b45760003560e01c806375b238fc1161007157806375b238fc146101745780639010d07c1461019b57806391d14854146101c6578063a217fddf146101d9578063ca15c873146101e1578063d547741f146101f457600080fd5b806301ffc9a7146100b95780630952ff54146100e1578063248a9ca31461011657806324d7806c146101395780632f2ff15d1461014c57806336568abe14610161575b600080fd5b6100cc6100c73660046108e1565b610207565b60405190151581526020015b60405180910390f35b6101087fc171260023d22a25a00a2789664c9334017843b831138c8ef03cc8897e5873d781565b6040519081526020016100d8565b61010861012436600461090b565b60009081526020819052604090206001015490565b6100cc610147366004610940565b610232565b61015f61015a36600461095b565b61028e565b005b61015f61016f36600461095b565b6102b8565b6101087ff23ec0bb4210edd5cba85afd05127efcd2fc6a781bfed49188da1081670b22d881565b6101ae6101a9366004610987565b61033b565b6040516001600160a01b0390911681526020016100d8565b6100cc6101d436600461095b565b61035a565b610108600081565b6101086101ef36600461090b565b610383565b61015f61020236600461095b565b61039a565b60006001600160e01b03198216635a05180f60e01b148061022c575061022c82610458565b92915050565b600061025e7ff23ec0bb4210edd5cba85afd05127efcd2fc6a781bfed49188da1081670b22d88361035a565b8061022c575061022c7fc171260023d22a25a00a2789664c9334017843b831138c8ef03cc8897e5873d78361035a565b6000828152602081905260409020600101546102a98161048d565b6102b3838361049a565b505050565b6001600160a01b038116331461032d5760405162461bcd60e51b815260206004820152602f60248201527f416363657373436f6e74726f6c3a2063616e206f6e6c792072656e6f756e636560448201526e103937b632b9903337b91039b2b63360891b60648201526084015b60405180910390fd5b61033782826104bc565b5050565b600082815260016020526040812061035390836104de565b9392505050565b6000918252602082815260408084206001600160a01b0393909316845291905290205460ff1690565b600081815260016020526040812061022c906104ea565b6000828152602081905260409020600101546103b58161048d565b6102b383836104bc565b6103c9828261035a565b610337576000828152602081815260408083206001600160a01b03851684529091529020805460ff191660011790556103ff3390565b6001600160a01b0316816001600160a01b0316837f2f8788117e7eff1d82e926ec794901d17c78024a50270940304540a733656f0d60405160405180910390a45050565b6000610353836001600160a01b0384166104f4565b60006001600160e01b03198216637965db0b60e01b148061022c57506301ffc9a760e01b6001600160e01b031983161461022c565b6104978133610543565b50565b6104a482826103bf565b60008281526001602052604090206102b39082610443565b6104c6828261059c565b60008281526001602052604090206102b39082610601565b60006103538383610616565b600061022c825490565b600081815260018301602052604081205461053b5750815460018181018455600084815260208082209093018490558454848252828601909352604090209190915561022c565b50600061022c565b61054d828261035a565b6103375761055a81610640565b610565836020610652565b6040516020016105769291906109d9565b60408051601f198184030181529082905262461bcd60e51b825261032491600401610a4e565b6105a6828261035a565b15610337576000828152602081815260408083206001600160a01b0385168085529252808320805460ff1916905551339285917ff6391f5c32d9c69d2a47ea670b442974b53935d1edc7fd64eb21e047a839171b9190a45050565b6000610353836001600160a01b0384166107ee565b600082600001828154811061062d5761062d610a81565b9060005260206000200154905092915050565b606061022c6001600160a01b03831660145b60606000610661836002610aad565b61066c906002610acc565b67ffffffffffffffff81111561068457610684610ae4565b6040519080825280601f01601f1916602001820160405280156106ae576020820181803683370190505b509050600360fc1b816000815181106106c9576106c9610a81565b60200101906001600160f81b031916908160001a905350600f60fb1b816001815181106106f8576106f8610a81565b60200101906001600160f81b031916908160001a905350600061071c846002610aad565b610727906001610acc565b90505b600181111561079f576f181899199a1a9b1b9c1cb0b131b232b360811b85600f166010811061075b5761075b610a81565b1a60f81b82828151811061077157610771610a81565b60200101906001600160f81b031916908160001a90535060049490941c9361079881610afa565b905061072a565b5083156103535760405162461bcd60e51b815260206004820181905260248201527f537472696e67733a20686578206c656e67746820696e73756666696369656e746044820152606401610324565b600081815260018301602052604081205480156108d7576000610812600183610b11565b855490915060009061082690600190610b11565b905081811461088b57600086600001828154811061084657610846610a81565b906000526020600020015490508087600001848154811061086957610869610a81565b6000918252602080832090910192909255918252600188019052604090208390555b855486908061089c5761089c610b28565b60019003818190600052602060002001600090559055856001016000868152602001908152602001600020600090556001935050505061022c565b600091505061022c565b6000602082840312156108f357600080fd5b81356001600160e01b03198116811461035357600080fd5b60006020828403121561091d57600080fd5b5035919050565b80356001600160a01b038116811461093b57600080fd5b919050565b60006020828403121561095257600080fd5b61035382610924565b6000806040838503121561096e57600080fd5b8235915061097e60208401610924565b90509250929050565b6000806040838503121561099a57600080fd5b50508035926020909101359150565b60005b838110156109c45781810151838201526020016109ac565b838111156109d3576000848401525b50505050565b7f416363657373436f6e74726f6c3a206163636f756e7420000000000000000000815260008351610a118160178501602088016109a9565b7001034b99036b4b9b9b4b733903937b6329607d1b6017918401918201528351610a428160288401602088016109a9565b01602801949350505050565b6020815260008251806020840152610a6d8160408501602087016109a9565b601f01601f19169190910160400192915050565b634e487b7160e01b600052603260045260246000fd5b634e487b7160e01b600052601160045260246000fd5b6000816000190483118215151615610ac757610ac7610a97565b500290565b60008219821115610adf57610adf610a97565b500190565b634e487b7160e01b600052604160045260246000fd5b600081610b0957610b09610a97565b506000190190565b600082821015610b2357610b23610a97565b500390565b634e487b7160e01b600052603160045260246000fdfea2646970667358221220b854e3c1c4e76f01285a9796a9ee7c74dca038bae0c1f33a6a40aee6f74d4b9b64736f6c63430008090033f23ec0bb4210edd5cba85afd05127efcd2fc6a781bfed49188da1081670b22d8",
  "linkReferences": {},
  "deployedLinkReferences": {}
}