{
  "_format": "hh-sol-artifact-1",
  "contractName": "ERC20Token",
  "sourceName": "contracts/test/ERC20Token.sol",
  "abi": [
    {
      "anonymous": false,
      "inputs": [
        {
          "indexed": true,
          "internalType": "address",
          "name": "owner",
          "type": "address"
        },
        {
          "indexed": true,
          "internalType": "address",
          "name": "spender",
          "type": "address"
        },
        {
          "indexed": false,
          "internalType": "uint256",
          "name": "value",
          "type": "uint256"
        }
      ],
      "name": "Approval",
      "type": "event"
    },
    {
      "anonymous": false,
      "inputs": [
        {
          "indexed": true,
          "internalType": "address",
          "name": "from",
          "type": "address"
        },
        {
          "indexed": true,
          "internalType": "address",
          "name": "to",
          "type": "address"
        },
        {
          "indexed": false,
          "internalType": "uint256",
          "name": "value",
          "type": "uint256"
        }
      ],
      "name": "Transfer",
      "type": "event"
    },
    {
      "inputs": [
        {
          "internalType": "address",
          "name": "owner",
          "type": "address"
        },
        {
          "internalType": "address",
          "name": "spender",
          "type": "address"
        }
      ],
      "name": "allowance",
      "outputs": [
        {
          "internalType": "uint256",
          "name": "",
          "type": "uint256"
        }
      ],
      "stateMutability": "view",
      "type": "function"
    },
    {
      "inputs": [
        {
          "internalType": "address",
          "name": "spender",
          "type": "address"
        },
        {
          "internalType": "uint256",
          "name": "amount",
          "type": "uint256"
        }
      ],
      "name": "approve",
      "outputs": [
        {
          "internalType": "bool",
          "name": "",
          "type": "bool"
        }
      ],
      "stateMutability": "nonpayable",
      "type": "function"
    },
    {
      "inputs": [
        {
          "internalType": "address",
          "name": "account",
          "type": "address"
        }
      ],
      "name": "balanceOf",
      "outputs": [
        {
          "internalType": "uint256",
          "name": "",
          "type": "uint256"
        }
      ],
      "stateMutability": "view",
      "type": "function"
    },
    {
      "inputs": [],
      "name": "decimals",
      "outputs": [
        {
          "internalType": "uint8",
          "name": "",
          "type": "uint8"
        }
      ],
      "stateMutability": "view",
      "type": "function"
    },
    {
      "inputs": [
        {
          "internalType": "address",
          "name": "spender",
          "type": "address"
        },
        {
          "internalType": "uint256",
          "name": "subtractedValue",
          "type": "uint256"
        }
      ],
      "name": "decreaseAllowance",
      "outputs": [
        {
          "internalType": "bool",
          "name": "",
          "type": "bool"
        }
      ],
      "stateMutability": "nonpayable",
      "type": "function"
    },
    {
      "inputs": [
        {
          "internalType": "address",
          "name": "spender",
          "type": "address"
        },
        {
          "internalType": "uint256",
          "name": "addedValue",
          "type": "uint256"
        }
      ],
      "name": "increaseAllowance",
      "outputs": [
        {
          "internalType": "bool",
          "name": "",
          "type": "bool"
        }
      ],
      "stateMutability": "nonpayable",
      "type": "function"
    },
    {
      "inputs": [
        {
          "internalType": "string",
          "name": "_name",
          "type": "string"
        },
        {
          "internalType": "string",
          "name": "_symbol",
          "type": "string"
        }
      ],
      "name": "initialize",
      "outputs": [],
      "stateMutability": "nonpayable",
      "type": "function"
    },
    {
      "inputs": [
        {
          "internalType": "address",
          "name": "_to",
          "type": "address"
        },
        {
          "internalType": "uint256",
          "name": "_amount",
          "type": "uint256"
        }
      ],
      "name": "mint",
      "outputs": [],
      "stateMutability": "nonpayable",
      "type": "function"
    },
    {
      "inputs": [],
      "name": "name",
      "outputs": [
        {
          "internalType": "string",
          "name": "",
          "type": "string"
        }
      ],
      "stateMutability": "view",
      "type": "function"
    },
    {
      "inputs": [],
      "name": "symbol",
      "outputs": [
        {
          "internalType": "string",
          "name": "",
          "type": "string"
        }
      ],
      "stateMutability": "view",
      "type": "function"
    },
    {
      "inputs": [],
      "name": "totalSupply",
      "outputs": [
        {
          "internalType": "uint256",
          "name": "",
          "type": "uint256"
        }
      ],
      "stateMutability": "view",
      "type": "function"
    },
    {
      "inputs": [
        {
          "internalType": "address",
          "name": "recipient",
          "type": "address"
        },
        {
          "internalType": "uint256",
          "name": "amount",
          "type": "uint256"
        }
      ],
      "name": "transfer",
      "outputs": [
        {
          "internalType": "bool",
          "name": "",
          "type": "bool"
        }
      ],
      "stateMutability": "nonpayable",
      "type": "function"
    },
    {
      "inputs": [
        {
          "internalType": "address",
          "name": "sender",
          "type": "address"
        },
        {
          "internalType": "address",
          "name": "recipient",
          "type": "address"
        },
        {
          "internalType": "uint256",
          "name": "amount",
          "type": "uint256"
        }
      ],
      "name": "transferFrom",
      "outputs": [
        {
          "internalType": "bool",
          "name": "",
          "type": "bool"
        }
      ],
      "stateMutability": "nonpayable",
      "type": "function"
    }
  ],
  "bytecode": "0x608060405234801561001057600080fd5b50610ef8806100206000396000f3fe608060405234801561001057600080fd5b50600436106100cf5760003560e01c806340c10f191161008c57806395d89b411161006657806395d89b411461019d578063a457c2d7146101a5578063a9059cbb146101b8578063dd62ed3e146101cb576100cf565b806340c10f19146101625780634cd88b761461017757806370a082311461018a576100cf565b806306fdde03146100d4578063095ea7b3146100f257806318160ddd1461011257806323b872dd14610127578063313ce5671461013a578063395093511461014f575b600080fd5b6100dc6101de565b6040516100e99190610b7d565b60405180910390f35b610105610100366004610ae8565b610270565b6040516100e99190610b72565b61011a61028d565b6040516100e99190610e36565b610105610135366004610aad565b610293565b61014261032c565b6040516100e99190610e3f565b61010561015d366004610ae8565b610331565b610175610170366004610ae8565b610385565b005b610175610185366004610b11565b610393565b61011a610198366004610a5a565b610414565b6100dc610433565b6101056101b3366004610ae8565b610442565b6101056101c6366004610ae8565b6104bb565b61011a6101d9366004610a7b565b6104cf565b6060603680546101ed90610e71565b80601f016020809104026020016040519081016040528092919081815260200182805461021990610e71565b80156102665780601f1061023b57610100808354040283529160200191610266565b820191906000526020600020905b81548152906001019060200180831161024957829003601f168201915b5050505050905090565b600061028461027d6104fa565b84846104fe565b50600192915050565b60355490565b60006102a08484846105b2565b6001600160a01b0384166000908152603460205260408120816102c16104fa565b6001600160a01b03166001600160a01b031681526020019081526020016000205490508281101561030d5760405162461bcd60e51b815260040161030490610ce9565b60405180910390fd5b610321856103196104fa565b8584036104fe565b506001949350505050565b601290565b600061028461033e6104fa565b84846034600061034c6104fa565b6001600160a01b03908116825260208083019390935260409182016000908120918b16815292529020546103809190610e4d565b6104fe565b61038f82826106dc565b5050565b600054610100900460ff16806103ac575060005460ff16155b6103c85760405162461bcd60e51b815260040161030490610c9b565b600054610100900460ff161580156103f3576000805460ff1961ff0019909116610100171660011790555b6103fd83836107a4565b801561040f576000805461ff00191690555b505050565b6001600160a01b0381166000908152603360205260409020545b919050565b6060603780546101ed90610e71565b600080603460006104516104fa565b6001600160a01b039081168252602080830193909352604091820160009081209188168152925290205490508281101561049d5760405162461bcd60e51b815260040161030490610dba565b6104b16104a86104fa565b858584036104fe565b5060019392505050565b60006102846104c86104fa565b84846105b2565b6001600160a01b03918216600090815260346020908152604080832093909416825291909152205490565b3390565b6001600160a01b0383166105245760405162461bcd60e51b815260040161030490610d76565b6001600160a01b03821661054a5760405162461bcd60e51b815260040161030490610c13565b6001600160a01b0380841660008181526034602090815260408083209487168084529490915290819020849055517f8c5be1e5ebec7d5bd14f71427d1e84f3dd0314c0f7b2291e5b200ac8c7c3b925906105a5908590610e36565b60405180910390a3505050565b6001600160a01b0383166105d85760405162461bcd60e51b815260040161030490610d31565b6001600160a01b0382166105fe5760405162461bcd60e51b815260040161030490610bd0565b61060983838361040f565b6001600160a01b038316600090815260336020526040902054818110156106425760405162461bcd60e51b815260040161030490610c55565b6001600160a01b03808516600090815260336020526040808220858503905591851681529081208054849290610679908490610e4d565b92505081905550826001600160a01b0316846001600160a01b03167fddf252ad1be2c89b69c2b068fc378daa952ba7f163c4a11628f55a4df523b3ef846040516106c39190610e36565b60405180910390a36106d684848461040f565b50505050565b6001600160a01b0382166107025760405162461bcd60e51b815260040161030490610dff565b61070e6000838361040f565b80603560008282546107209190610e4d565b90915550506001600160a01b0382166000908152603360205260408120805483929061074d908490610e4d565b90915550506040516001600160a01b038316906000907fddf252ad1be2c89b69c2b068fc378daa952ba7f163c4a11628f55a4df523b3ef90610790908590610e36565b60405180910390a361038f6000838361040f565b600054610100900460ff16806107bd575060005460ff16155b6107d95760405162461bcd60e51b815260040161030490610c9b565b600054610100900460ff16158015610804576000805460ff1961ff0019909116610100171660011790555b61080c610816565b6103fd838361088b565b600054610100900460ff168061082f575060005460ff16155b61084b5760405162461bcd60e51b815260040161030490610c9b565b600054610100900460ff16158015610876576000805460ff1961ff0019909116610100171660011790555b8015610888576000805461ff00191690555b50565b600054610100900460ff16806108a4575060005460ff16155b6108c05760405162461bcd60e51b815260040161030490610c9b565b600054610100900460ff161580156108eb576000805460ff1961ff0019909116610100171660011790555b82516108fe906036906020860190610929565b508151610912906037906020850190610929565b50801561040f576000805461ff0019169055505050565b82805461093590610e71565b90600052602060002090601f016020900481019282610957576000855561099d565b82601f1061097057805160ff191683800117855561099d565b8280016001018555821561099d579182015b8281111561099d578251825591602001919060010190610982565b506109a99291506109ad565b5090565b5b808211156109a957600081556001016109ae565b80356001600160a01b038116811461042e57600080fd5b600082601f8301126109e9578081fd5b813567ffffffffffffffff80821115610a0457610a04610eac565b604051601f8301601f191681016020018281118282101715610a2857610a28610eac565b604052828152848301602001861015610a3f578384fd5b82602086016020830137918201602001929092529392505050565b600060208284031215610a6b578081fd5b610a74826109c2565b9392505050565b60008060408385031215610a8d578081fd5b610a96836109c2565b9150610aa4602084016109c2565b90509250929050565b600080600060608486031215610ac1578081fd5b610aca846109c2565b9250610ad8602085016109c2565b9150604084013590509250925092565b60008060408385031215610afa578182fd5b610b03836109c2565b946020939093013593505050565b60008060408385031215610b23578182fd5b823567ffffffffffffffff80821115610b3a578384fd5b610b46868387016109d9565b93506020850135915080821115610b5b578283fd5b50610b68858286016109d9565b9150509250929050565b901515815260200190565b6000602080835283518082850152825b81811015610ba957858101830151858201604001528201610b8d565b81811115610bba5783604083870101525b50601f01601f1916929092016040019392505050565b60208082526023908201527f45524332303a207472616e7366657220746f20746865207a65726f206164647260408201526265737360e81b606082015260800190565b60208082526022908201527f45524332303a20617070726f766520746f20746865207a65726f206164647265604082015261737360f01b606082015260800190565b60208082526026908201527f45524332303a207472616e7366657220616d6f756e7420657863656564732062604082015265616c616e636560d01b606082015260800190565b6020808252602e908201527f496e697469616c697a61626c653a20636f6e747261637420697320616c72656160408201526d191e481a5b9a5d1a585b1a5e995960921b606082015260800190565b60208082526028908201527f45524332303a207472616e7366657220616d6f756e74206578636565647320616040820152676c6c6f77616e636560c01b606082015260800190565b60208082526025908201527f45524332303a207472616e736665722066726f6d20746865207a65726f206164604082015264647265737360d81b606082015260800190565b60208082526024908201527f45524332303a20617070726f76652066726f6d20746865207a65726f206164646040820152637265737360e01b606082015260800190565b60208082526025908201527f45524332303a2064656372656173656420616c6c6f77616e63652062656c6f77604082015264207a65726f60d81b606082015260800190565b6020808252601f908201527f45524332303a206d696e7420746f20746865207a65726f206164647265737300604082015260600190565b90815260200190565b60ff91909116815260200190565b60008219821115610e6c57634e487b7160e01b81526011600452602481fd5b500190565b600281046001821680610e8557607f821691505b60208210811415610ea657634e487b7160e01b600052602260045260246000fd5b50919050565b634e487b7160e01b600052604160045260246000fdfea2646970667358221220cf0400532408338489fb33747fa4f0e13e2d0d30b4c6fafbe91983d91a6ba70c64736f6c63430008000033",
  "linkReferences": {},
  "deployedLinkReferences": {}
}