{"abi":[{"type":"function","name":"isUser","inputs":[{"name":"_user","type":"address","internalType":"address"},{"name":"_verifier","type":"address","internalType":"address"}],"outputs":[{"name":"","type":"bool","internalType":"bool"}],"stateMutability":"view"},{"type":"function","name":"unverifyUser","inputs":[{"name":"_user","type":"address","internalType":"address"}],"outputs":[],"stateMutability":"nonpayable"},{"type":"function","name":"verifiedUsers","inputs":[{"name":"","type":"address","internalType":"address"},{"name":"","type":"address","internalType":"address"}],"outputs":[{"name":"","type":"bool","internalType":"bool"}],"stateMutability":"view"},{"type":"function","name":"verifiers","inputs":[{"name":"","type":"address","internalType":"address"}],"outputs":[{"name":"","type":"bool","internalType":"bool"}],"stateMutability":"view"},{"type":"function","name":"verifyUser","inputs":[{"name":"_user","type":"address","internalType":"address"},{"name":"_verifier","type":"address","internalType":"address"}],"outputs":[],"stateMutability":"nonpayable"},{"type":"function","name":"whitelistVerifier","inputs":[{"name":"_verifier","type":"address","internalType":"address"}],"outputs":[],"stateMutability":"nonpayable"}],"bytecode":{"object":"0x608060405234801561001057600080fd5b5061081c806100206000396000f3fe608060405234801561001057600080fd5b50600436106100625760003560e01c806302d43dc8146100675780631a78192b146100e15780636c8244871461015b57806396603b87146101b5578063c4633334146101f9578063f3b9025c1461023d575b600080fd5b6100c96004803603604081101561007d57600080fd5b81019080803573ffffffffffffffffffffffffffffffffffffffff169060200190929190803573ffffffffffffffffffffffffffffffffffffffff1690602001909291905050506102a1565b60405180821515815260200191505060405180910390f35b610143600480360360408110156100f757600080fd5b81019080803573ffffffffffffffffffffffffffffffffffffffff169060200190929190803573ffffffffffffffffffffffffffffffffffffffff169060200190929190505050610335565b60405180821515815260200191505060405180910390f35b61019d6004803603602081101561017157600080fd5b81019080803573ffffffffffffffffffffffffffffffffffffffff169060200190929190505050610364565b60405180821515815260200191505060405180910390f35b6101f7600480360360208110156101cb57600080fd5b81019080803573ffffffffffffffffffffffffffffffffffffffff169060200190929190505050610384565b005b61023b6004803603602081101561020f57600080fd5b81019080803573ffffffffffffffffffffffffffffffffffffffff1690602001909291905050506103de565b005b61029f6004803603604081101561025357600080fd5b81019080803573ffffffffffffffffffffffffffffffffffffffff169060200190929190803573ffffffffffffffffffffffffffffffffffffffff1690602001909291905050506105fd565b005b6000600160008373ffffffffffffffffffffffffffffffffffffffff1673ffffffffffffffffffffffffffffffffffffffff16815260200190815260200160002060008473ffffffffffffffffffffffffffffffffffffffff1673ffffffffffffffffffffffffffffffffffffffff16815260200190815260200160002060009054906101000a900460ff16905092915050565b60016020528160005260406000206020528060005260406000206000915091509054906101000a900460ff1681565b60006020528060005260406000206000915054906101000a900460ff1681565b60016000808373ffffffffffffffffffffffffffffffffffffffff1673ffffffffffffffffffffffffffffffffffffffff16815260200190815260200160002060006101000a81548160ff02191690831515021790555050565b6000803373ffffffffffffffffffffffffffffffffffffffff1673ffffffffffffffffffffffffffffffffffffffff16815260200190815260200160002060009054906101000a900460ff1661047f576040517f08c379a000000000000000000000000000000000000000000000000000000000815260040180806020018281038252602c815260200180610782602c913960400191505060405180910390fd5b60001515600160003373ffffffffffffffffffffffffffffffffffffffff1673ffffffffffffffffffffffffffffffffffffffff16815260200190815260200160002060008373ffffffffffffffffffffffffffffffffffffffff1673ffffffffffffffffffffffffffffffffffffffff16815260200190815260200160002060009054906101000a900460ff16151514610565576040517f08c379a00000000000000000000000000000000000000000000000000000000081526004018080602001828103825260398152602001806107ae6039913960400191505060405180910390fd5b6000600160003373ffffffffffffffffffffffffffffffffffffffff1673ffffffffffffffffffffffffffffffffffffffff16815260200190815260200160002060008373ffffffffffffffffffffffffffffffffffffffff1673ffffffffffffffffffffffffffffffffffffffff16815260200190815260200160002060006101000a81548160ff02191690831515021790555050565b6000808273ffffffffffffffffffffffffffffffffffffffff1673ffffffffffffffffffffffffffffffffffffffff16815260200190815260200160002060009054906101000a900460ff16156106e75760018060008373ffffffffffffffffffffffffffffffffffffffff1673ffffffffffffffffffffffffffffffffffffffff16815260200190815260200160002060008473ffffffffffffffffffffffffffffffffffffffff1673ffffffffffffffffffffffffffffffffffffffff16815260200190815260200160002060006101000a81548160ff02191690831515021790555061077d565b6000600160008373ffffffffffffffffffffffffffffffffffffffff1673ffffffffffffffffffffffffffffffffffffffff16815260200190815260200160002060008473ffffffffffffffffffffffffffffffffffffffff1673ffffffffffffffffffffffffffffffffffffffff16815260200190815260200160002060006101000a81548160ff0219169083151502179055505b505056fe4f6e6c7920617574686f72697a6564207665726966696572732063616e20756e766572696679207573657273557365722065697468657220616c726561647920756e7665726966696564206f7220776173206e6f7420766572696669656420627920796f75a2646970667358221220d9b682e1dd1dcc28a5be4804ff20ef2f6cbc691902813a36188b4b6af2d06d6664736f6c63430007060033","linkReferences":{}},"methodIdentifiers":{"isUser(address,address)":"02d43dc8","unverifyUser(address)":"c4633334","verifiedUsers(address,address)":"1a78192b","verifiers(address)":"6c824487","verifyUser(address,address)":"f3b9025c","whitelistVerifier(address)":"96603b87"},"id":49}