{
  "_format": "hh-sol-artifact-1",
  "contractName": "GatewayVaultGovernance",
  "sourceName": "contracts/GatewayVaultGovernance.sol",
  "abi": [
    {
      "inputs": [
        {
          "components": [
            {
              "internalType": "contract IProtocolGovernance",
              "name": "protocolGovernance",
              "type": "address"
            },
            {
              "internalType": "contract IVaultRegistry",
              "name": "registry",
              "type": "address"
            }
          ],
          "internalType": "struct IVaultGovernance.InternalParams",
          "name": "internalParams_",
          "type": "tuple"
        }
      ],
      "stateMutability": "nonpayable",
      "type": "constructor"
    },
    {
      "anonymous": false,
      "inputs": [
        {
          "indexed": true,
          "internalType": "address",
          "name": "origin",
          "type": "address"
        },
        {
          "indexed": true,
          "internalType": "address",
          "name": "sender",
          "type": "address"
        },
        {
          "indexed": true,
          "internalType": "uint256",
          "name": "nft",
          "type": "uint256"
        },
        {
          "components": [
            {
              "internalType": "uint256[]",
              "name": "redirects",
              "type": "uint256[]"
            }
          ],
          "indexed": false,
          "internalType": "struct IGatewayVaultGovernance.DelayedStrategyParams",
          "name": "params",
          "type": "tuple"
        }
      ],
      "name": "CommitDelayedStrategyParams",
      "type": "event"
    },
    {
      "anonymous": false,
      "inputs": [
        {
          "indexed": true,
          "internalType": "address",
          "name": "origin",
          "type": "address"
        },
        {
          "indexed": true,
          "internalType": "address",
          "name": "sender",
          "type": "address"
        },
        {
          "components": [
            {
              "internalType": "contract IProtocolGovernance",
              "name": "protocolGovernance",
              "type": "address"
            },
            {
              "internalType": "contract IVaultRegistry",
              "name": "registry",
              "type": "address"
            }
          ],
          "indexed": false,
          "internalType": "struct IVaultGovernance.InternalParams",
          "name": "params",
          "type": "tuple"
        }
      ],
      "name": "CommitedInternalParams",
      "type": "event"
    },
    {
      "anonymous": false,
      "inputs": [
        {
          "indexed": true,
          "internalType": "address",
          "name": "origin",
          "type": "address"
        },
        {
          "indexed": true,
          "internalType": "address",
          "name": "sender",
          "type": "address"
        },
        {
          "indexed": false,
          "internalType": "address[]",
          "name": "vaultTokens",
          "type": "address[]"
        },
        {
          "indexed": false,
          "internalType": "bytes",
          "name": "options",
          "type": "bytes"
        },
        {
          "indexed": false,
          "internalType": "address",
          "name": "owner",
          "type": "address"
        },
        {
          "indexed": false,
          "internalType": "address",
          "name": "vaultAddress",
          "type": "address"
        },
        {
          "indexed": false,
          "internalType": "uint256",
          "name": "vaultNft",
          "type": "uint256"
        }
      ],
      "name": "DeployedVault",
      "type": "event"
    },
    {
      "anonymous": false,
      "inputs": [
        {
          "indexed": true,
          "internalType": "address",
          "name": "origin",
          "type": "address"
        },
        {
          "indexed": true,
          "internalType": "address",
          "name": "sender",
          "type": "address"
        },
        {
          "indexed": true,
          "internalType": "uint256",
          "name": "nft",
          "type": "uint256"
        },
        {
          "components": [
            {
              "internalType": "uint256[]",
              "name": "limits",
              "type": "uint256[]"
            }
          ],
          "indexed": false,
          "internalType": "struct IGatewayVaultGovernance.StrategyParams",
          "name": "params",
          "type": "tuple"
        }
      ],
      "name": "SetStrategyParams",
      "type": "event"
    },
    {
      "anonymous": false,
      "inputs": [
        {
          "indexed": true,
          "internalType": "address",
          "name": "origin",
          "type": "address"
        },
        {
          "indexed": true,
          "internalType": "address",
          "name": "sender",
          "type": "address"
        },
        {
          "indexed": true,
          "internalType": "uint256",
          "name": "nft",
          "type": "uint256"
        },
        {
          "components": [
            {
              "internalType": "uint256[]",
              "name": "redirects",
              "type": "uint256[]"
            }
          ],
          "indexed": false,
          "internalType": "struct IGatewayVaultGovernance.DelayedStrategyParams",
          "name": "params",
          "type": "tuple"
        },
        {
          "indexed": false,
          "internalType": "uint256",
          "name": "when",
          "type": "uint256"
        }
      ],
      "name": "StageDelayedStrategyParams",
      "type": "event"
    },
    {
      "anonymous": false,
      "inputs": [
        {
          "indexed": true,
          "internalType": "address",
          "name": "origin",
          "type": "address"
        },
        {
          "indexed": true,
          "internalType": "address",
          "name": "sender",
          "type": "address"
        },
        {
          "components": [
            {
              "internalType": "contract IProtocolGovernance",
              "name": "protocolGovernance",
              "type": "address"
            },
            {
              "internalType": "contract IVaultRegistry",
              "name": "registry",
              "type": "address"
            }
          ],
          "indexed": false,
          "internalType": "struct IVaultGovernance.InternalParams",
          "name": "params",
          "type": "tuple"
        },
        {
          "indexed": false,
          "internalType": "uint256",
          "name": "when",
          "type": "uint256"
        }
      ],
      "name": "StagedInternalParams",
      "type": "event"
    },
    {
      "inputs": [
        {
          "internalType": "uint256",
          "name": "nft",
          "type": "uint256"
        }
      ],
      "name": "commitDelayedStrategyParams",
      "outputs": [],
      "stateMutability": "nonpayable",
      "type": "function"
    },
    {
      "inputs": [],
      "name": "commitInternalParams",
      "outputs": [],
      "stateMutability": "nonpayable",
      "type": "function"
    },
    {
      "inputs": [],
      "name": "delayedProtocolParamsTimestamp",
      "outputs": [
        {
          "internalType": "uint256",
          "name": "",
          "type": "uint256"
        }
      ],
      "stateMutability": "view",
      "type": "function"
    },
    {
      "inputs": [
        {
          "internalType": "uint256",
          "name": "nft",
          "type": "uint256"
        }
      ],
      "name": "delayedProtocolPerVaultParamsTimestamp",
      "outputs": [
        {
          "internalType": "uint256",
          "name": "",
          "type": "uint256"
        }
      ],
      "stateMutability": "view",
      "type": "function"
    },
    {
      "inputs": [
        {
          "internalType": "uint256",
          "name": "nft",
          "type": "uint256"
        }
      ],
      "name": "delayedStrategyParams",
      "outputs": [
        {
          "components": [
            {
              "internalType": "uint256[]",
              "name": "redirects",
              "type": "uint256[]"
            }
          ],
          "internalType": "struct IGatewayVaultGovernance.DelayedStrategyParams",
          "name": "",
          "type": "tuple"
        }
      ],
      "stateMutability": "view",
      "type": "function"
    },
    {
      "inputs": [
        {
          "internalType": "uint256",
          "name": "nft",
          "type": "uint256"
        }
      ],
      "name": "delayedStrategyParamsTimestamp",
      "outputs": [
        {
          "internalType": "uint256",
          "name": "",
          "type": "uint256"
        }
      ],
      "stateMutability": "view",
      "type": "function"
    },
    {
      "inputs": [
        {
          "internalType": "address[]",
          "name": "vaultTokens",
          "type": "address[]"
        },
        {
          "internalType": "bytes",
          "name": "options",
          "type": "bytes"
        },
        {
          "internalType": "address",
          "name": "strategy",
          "type": "address"
        }
      ],
      "name": "deployVault",
      "outputs": [
        {
          "internalType": "contract IVault",
          "name": "vault",
          "type": "address"
        },
        {
          "internalType": "uint256",
          "name": "nft",
          "type": "uint256"
        }
      ],
      "stateMutability": "nonpayable",
      "type": "function"
    },
    {
      "inputs": [],
      "name": "factory",
      "outputs": [
        {
          "internalType": "contract IVaultFactory",
          "name": "",
          "type": "address"
        }
      ],
      "stateMutability": "view",
      "type": "function"
    },
    {
      "inputs": [
        {
          "internalType": "contract IVaultFactory",
          "name": "factory_",
          "type": "address"
        }
      ],
      "name": "initialize",
      "outputs": [],
      "stateMutability": "nonpayable",
      "type": "function"
    },
    {
      "inputs": [],
      "name": "initialized",
      "outputs": [
        {
          "internalType": "bool",
          "name": "",
          "type": "bool"
        }
      ],
      "stateMutability": "view",
      "type": "function"
    },
    {
      "inputs": [],
      "name": "internalParams",
      "outputs": [
        {
          "components": [
            {
              "internalType": "contract IProtocolGovernance",
              "name": "protocolGovernance",
              "type": "address"
            },
            {
              "internalType": "contract IVaultRegistry",
              "name": "registry",
              "type": "address"
            }
          ],
          "internalType": "struct IVaultGovernance.InternalParams",
          "name": "",
          "type": "tuple"
        }
      ],
      "stateMutability": "view",
      "type": "function"
    },
    {
      "inputs": [],
      "name": "internalParamsTimestamp",
      "outputs": [
        {
          "internalType": "uint256",
          "name": "",
          "type": "uint256"
        }
      ],
      "stateMutability": "view",
      "type": "function"
    },
    {
      "inputs": [
        {
          "internalType": "uint256",
          "name": "nft",
          "type": "uint256"
        },
        {
          "components": [
            {
              "internalType": "uint256[]",
              "name": "limits",
              "type": "uint256[]"
            }
          ],
          "internalType": "struct IGatewayVaultGovernance.StrategyParams",
          "name": "params",
          "type": "tuple"
        }
      ],
      "name": "setStrategyParams",
      "outputs": [],
      "stateMutability": "nonpayable",
      "type": "function"
    },
    {
      "inputs": [
        {
          "internalType": "uint256",
          "name": "nft",
          "type": "uint256"
        },
        {
          "components": [
            {
              "internalType": "uint256[]",
              "name": "redirects",
              "type": "uint256[]"
            }
          ],
          "internalType": "struct IGatewayVaultGovernance.DelayedStrategyParams",
          "name": "params",
          "type": "tuple"
        }
      ],
      "name": "stageDelayedStrategyParams",
      "outputs": [],
      "stateMutability": "nonpayable",
      "type": "function"
    },
    {
      "inputs": [
        {
          "components": [
            {
              "internalType": "contract IProtocolGovernance",
              "name": "protocolGovernance",
              "type": "address"
            },
            {
              "internalType": "contract IVaultRegistry",
              "name": "registry",
              "type": "address"
            }
          ],
          "internalType": "struct IVaultGovernance.InternalParams",
          "name": "newParams",
          "type": "tuple"
        }
      ],
      "name": "stageInternalParams",
      "outputs": [],
      "stateMutability": "nonpayable",
      "type": "function"
    },
    {
      "inputs": [
        {
          "internalType": "uint256",
          "name": "nft",
          "type": "uint256"
        }
      ],
      "name": "stagedDelayedStrategyParams",
      "outputs": [
        {
          "components": [
            {
              "internalType": "uint256[]",
              "name": "redirects",
              "type": "uint256[]"
            }
          ],
          "internalType": "struct IGatewayVaultGovernance.DelayedStrategyParams",
          "name": "",
          "type": "tuple"
        }
      ],
      "stateMutability": "view",
      "type": "function"
    },
    {
      "inputs": [],
      "name": "stagedInternalParams",
      "outputs": [
        {
          "components": [
            {
              "internalType": "contract IProtocolGovernance",
              "name": "protocolGovernance",
              "type": "address"
            },
            {
              "internalType": "contract IVaultRegistry",
              "name": "registry",
              "type": "address"
            }
          ],
          "internalType": "struct IVaultGovernance.InternalParams",
          "name": "",
          "type": "tuple"
        }
      ],
      "stateMutability": "view",
      "type": "function"
    },
    {
      "inputs": [
        {
          "internalType": "uint256",
          "name": "nft",
          "type": "uint256"
        }
      ],
      "name": "strategyParams",
      "outputs": [
        {
          "components": [
            {
              "internalType": "uint256[]",
              "name": "limits",
              "type": "uint256[]"
            }
          ],
          "internalType": "struct IGatewayVaultGovernance.StrategyParams",
          "name": "",
          "type": "tuple"
        }
      ],
      "stateMutability": "view",
      "type": "function"
    }
  ],
  "bytecode": "0x60806040523480156200001157600080fd5b506040516200204e3803806200204e833981016040819052620000349162000086565b8051600080546001600160a01b03199081166001600160a01b0393841617909155602090920151600180549093169116179055620000f8565b6001600160a01b03811681146200008357600080fd5b50565b6000604082840312156200009957600080fd5b604080519081016001600160401b0381118282101715620000ca57634e487b7160e01b600052604160045260246000fd5b6040528251620000da816200006d565b81526020830151620000ec816200006d565b60208201529392505050565b611f4680620001086000396000f3fe608060405234801561001057600080fd5b50600436106101165760003560e01c80637b9f5203116100a2578063c4d66de811610071578063c4d66de8146102c1578063d4a07d34146102d4578063e4af6e79146102dc578063f50506ab146102e4578063fc7a81171461031657600080fd5b80637b9f52031461023757806386c6be3e1461024a5780638860d24814610283578063c45a01551461029657600080fd5b8063220cd29e116100e9578063220cd29e1461018f578063511ce798146101a257806359f3dae7146101c25780636707acee146101d55780637ac46fbb146101f557600080fd5b80630bdedd561461011b57806312466b6814610130578063158ef93e146101595780631c7f4c731461017d575b600080fd5b61012e6101293660046116cb565b610329565b005b61014361013e3660046116cb565b61041c565b604051610150919061172c565b60405180910390f35b60105461016d90600160a01b900460ff1681565b6040519015158152602001610150565b6004545b604051908152602001610150565b61012e61019d36600461175e565b61053d565b6101816101b03660046116cb565b6000908152600a602052604090205490565b6101436101d03660046116cb565b610712565b6101816101e33660046116cb565b60009081526007602052604090205490565b604080518082018252600080825260209182018190528251808401909352546001600160a01b03908116835260015416908201525b60405161015091906117a5565b61012e61024536600461175e565b61076e565b604080518082018252600080825260209182015281518083019092526002546001600160a01b039081168352600354169082015261022a565b6101436102913660046116cb565b6107e7565b6010546102a9906001600160a01b031681565b6040516001600160a01b039091168152602001610150565b61012e6102cf3660046117de565b610843565b61012e6108b2565b600d54610181565b6102f76102f23660046118e6565b6109b6565b604080516001600160a01b039093168352602083019190915201610150565b61012e6103243660046119bd565b610c76565b61033281610d74565b600081815260056020526040902080548291339132917f171c166479705107090a5f311a42ed2a28b841cb8810c018c036087f869aa9419161037390611a1c565b80601f016020809104026020016040519081016040528092919081815260200182805461039f90611a1c565b80156103ec5780601f106103c1576101008083540402835291602001916103ec565b820191906000526020600020905b8154815290600101906020018083116103cf57829003601f168201915b50505050508060200190518101906104049190611b11565b604051610411919061172c565b60405180910390a450565b6040805160208101909152606081526000828152600e60205260409020805461044490611a1c565b1515905061048d5760408051602081019091528060005b604051908082528060200260200182016040528015610484578160200160208202803683370190505b50905292915050565b6000828152600e6020526040902080546104a690611a1c565b80601f01602080910402602001604051908101604052809291908181526020018280546104d290611a1c565b801561051f5780601f106104f45761010080835404028352916020019161051f565b820191906000526020600020905b81548152906001019060200180831161050257829003601f168201915b50505050508060200190518101906105379190611b11565b92915050565b600154604051639c94d85360e01b8152600481018490526000916001600160a01b031690639c94d8539060240160206040518083038186803b15801561058257600080fd5b505afa158015610596573d6000803e3d6000fd5b505050506040513d601f19601f820116820180604052508101906105ba9190611b4e565b90506105c68280611b6b565b159050806106535750806001600160a01b031663791839736040518163ffffffff1660e01b815260040160006040518083038186803b15801561060857600080fd5b505afa15801561061c573d6000803e3d6000fd5b505050506040513d6000823e601f3d908101601f191682016040526106449190810190611bbc565b5161064f8380611b6b565b9050145b60405180604001604052806002815260200161149360f21b815250906106955760405162461bcd60e51b815260040161068c9190611c3e565b60405180910390fd5b506106bf83836040516020016106ab9190611cce565b604051602081830303815290604052610e7c565b600083815260076020526040908190205490518491339132917fac2ced4f8413c1f23260d141129631e934546a00f511b17d79623b65d45b0e6991610705918891611ce1565b60405180910390a4505050565b6040805160208101909152606081526000828152600660205260409020805461073a90611a1c565b1515905061075557604080516020810190915280600061045b565b600082815260066020526040902080546104a690611a1c565b61079782826040516020016107839190611cce565b604051602081830303815290604052610f88565b81336001600160a01b0316326001600160a01b03167f3fdc2496303855ef022dbac55928d27e6ecbaf0ef27fff7ae4a296bde64b5e32846040516107db9190611cce565b60405180910390a45050565b6040805160208101909152606081526000828152600560205260409020805461080f90611a1c565b1515905061082a57604080516020810190915280600061045b565b600082815260056020526040902080546104a690611a1c565b6010546040805180820190915260048152631253925560e21b602082015290600160a01b900460ff161561088a5760405162461bcd60e51b815260040161068c9190611c3e565b50601080546001600160a81b0319166001600160a01b0390921691909117600160a01b179055565b6108ba610fb5565b600060045411604051806040016040528060048152602001631395531360e21b815250906108fb5760405162461bcd60e51b815260040161068c9190611c3e565b5060045442101560405180604001604052806002815260200161545360f01b8152509061093b5760405162461bcd60e51b815260040161068c9190611c3e565b50600254600080546001600160a01b039283166001600160a01b031991821681178355600354600180549190951692168217909355600491909155604080519283526020830191909152339132917f1e35451923245ee6ebcfa4eaa530093af09bcf5278d751ff4b9897ca024d02b4910160405180910390a3565b60008060005b8551811015610ab35760005486516001600160a01b039091169063cbe230c3908890849081106109ee576109ee611d03565b60200260200101516040518263ffffffff1660e01b8152600401610a2191906001600160a01b0391909116815260200190565b60206040518083038186803b158015610a3957600080fd5b505afa158015610a4d573d6000803e3d6000fd5b505050506040513d601f19601f82011682018060405250810190610a719190611d19565b610aa35760405162461bcd60e51b8152602060048201526003602482015262544e4160e81b604482015260640161068c565b610aac81611d51565b90506109bc565b50610ace85604051806020016040528060008152503361106d565b85519193509150600090610aeb9086016020908101908701611bbc565b6001546040516326829ad160e01b81529192506001600160a01b0390811691908516906326829ad190610b22908590600401611da7565b600060405180830381600087803b158015610b3c57600080fd5b505af1158015610b50573d6000803e3d6000fd5b5050505060005b8251811015610c0857816001600160a01b03166342842e0e3387868581518110610b8357610b83611d03565b60209081029190910101516040516001600160e01b031960e086901b1681526001600160a01b0393841660048201529290911660248301526044820152606401600060405180830381600087803b158015610bdd57600080fd5b505af1158015610bf1573d6000803e3d6000fd5b505050508080610c0090611d51565b915050610b57565b50604051635cea43f960e11b815284906001600160a01b0382169063b9d487f290610c399089908790600401611dba565b600060405180830381600087803b158015610c5357600080fd5b505af1158015610c67573d6000803e3d6000fd5b50505050505050935093915050565b610c7e610fb5565b8051600280546001600160a01b03199081166001600160a01b039384161790915560208084015160038054909316908416179091556000546040805163bba3293960e01b81529051919093169263bba32939926004808301939192829003018186803b158015610ced57600080fd5b505afa158015610d01573d6000803e3d6000fd5b505050506040513d601f19601f82011682018060405250810190610d259190611dde565b610d2f9042611df7565b6004819055604051339132917f4b5caddc4df608f00754b735b313f6450a3c994df1519ef40bdd5cd315206e7191610d6991869190611e0f565b60405180910390a350565b610d7d816113aa565b6000600760008381526020019081526020016000205411604051806040016040528060048152602001631395531360e21b81525090610dcf5760405162461bcd60e51b815260040161068c9190611c3e565b50600760008281526020019081526020016000205442101560405180604001604052806002815260200161545360f01b81525090610e205760405162461bcd60e51b815260040161068c9190611c3e565b50600081815260066020908152604080832060059092529091208154909190610e4890611a1c565b610e5392919061157d565b506000818152600660205260408120610e6b91611608565b600090815260076020526040812055565b610e85826113aa565b60008281526006602090815260409091208251610ea492840190611642565b5060008281526005602052604081208054610ebe90611a1c565b159050610ecc576001610ecf565b60005b60ff169050806000800160009054906101000a90046001600160a01b03166001600160a01b031663bba329396040518163ffffffff1660e01b815260040160206040518083038186803b158015610f2557600080fd5b505afa158015610f39573d6000803e3d6000fd5b505050506040513d601f19601f82011682018060405250810190610f5d9190611dde565b610f679190611e40565b610f719042611df7565b600093845260076020526040909320929092555050565b610f91826113aa565b6000828152600e602090815260409091208251610fb092840190611642565b505050565b600054604051630935e01b60e21b81523360048201526001600160a01b03909116906324d7806c9060240160206040518083038186803b158015610ff857600080fd5b505afa15801561100c573d6000803e3d6000fd5b505050506040513d601f19601f820116820180604052508101906110309190611d19565b6040518060400160405280600381526020016241444d60e81b8152509061106a5760405162461bcd60e51b815260040161068c9190611c3e565b50565b6010546040805180820190915260048152631253925560e21b6020820152600091829190600160a01b900460ff166110b85760405162461bcd60e51b815260040161068c9190611c3e565b506000546040805163a1256f9f60e01b815290516001600160a01b0390921691829163a1256f9f916004808301926020929190829003018186803b1580156110ff57600080fd5b505afa158015611113573d6000803e3d6000fd5b505050506040513d601f19601f820116820180604052508101906111379190611d19565b806111b45750604051630935e01b60e21b81523360048201526001600160a01b038216906324d7806c9060240160206040518083038186803b15801561117c57600080fd5b505afa158015611190573d6000803e3d6000fd5b505050506040513d601f19601f820116820180604052508101906111b49190611d19565b60405180604001604052806003815260200162504f4160e81b815250906111ee5760405162461bcd60e51b815260040161068c9190611c3e565b50601054604051636e1e2ffd60e01b81526001600160a01b0390911690636e1e2ffd906112219089908990600401611e98565b602060405180830381600087803b15801561123b57600080fd5b505af115801561124f573d6000803e3d6000fd5b505050506040513d601f19601f820116820180604052508101906112739190611b4e565b6001546040516305c4fdf960e01b81526001600160a01b03808416600483015280881660248301529295508692909116906305c4fdf990604401602060405180830381600087803b1580156112c757600080fd5b505af11580156112db573d6000803e3d6000fd5b505050506040513d601f19601f820116820180604052508101906112ff9190611dde565b60405163fe4b84df60e01b8152600481018290529093506001600160a01b0385169063fe4b84df90602401600060405180830381600087803b15801561134457600080fd5b505af1158015611358573d6000803e3d6000fd5b50506040513392503291507f8a4513c05d15df8ece912856923273e166e39f5c9c2b43d2b38594023494a0e090611398908b908b9087908b908b90611ec6565b60405180910390a35050935093915050565b600054604051630935e01b60e21b81523360048201526001600160a01b03909116906324d7806c9060240160206040518083038186803b1580156113ed57600080fd5b505afa158015611401573d6000803e3d6000fd5b505050506040513d601f19601f820116820180604052508101906114259190611d19565b806114b2575060015460405163020604bf60e21b81526004810183905233916001600160a01b03169063081812fc9060240160206040518083038186803b15801561146f57600080fd5b505afa158015611483573d6000803e3d6000fd5b505050506040513d601f19601f820116820180604052508101906114a79190611b4e565b6001600160a01b0316145b8061153f57506001546040516331a9108f60e11b81526004810183905233916001600160a01b031690636352211e9060240160206040518083038186803b1580156114fc57600080fd5b505afa158015611510573d6000803e3d6000fd5b505050506040513d601f19601f820116820180604052508101906115349190611b4e565b6001600160a01b0316145b604051806040016040528060038152602001621494d560ea1b815250906115795760405162461bcd60e51b815260040161068c9190611c3e565b5050565b82805461158990611a1c565b90600052602060002090601f0160209004810192826115ab57600085556115f8565b82601f106115bc57805485556115f8565b828001600101855582156115f857600052602060002091601f016020900482015b828111156115f85782548255916001019190600101906115dd565b506116049291506116b6565b5090565b50805461161490611a1c565b6000825580601f10611624575050565b601f01602090049060005260206000209081019061106a91906116b6565b82805461164e90611a1c565b90600052602060002090601f01602090048101928261167057600085556115f8565b82601f1061168957805160ff19168380011785556115f8565b828001600101855582156115f8579182015b828111156115f857825182559160200191906001019061169b565b5b8082111561160457600081556001016116b7565b6000602082840312156116dd57600080fd5b5035919050565b805160208084528151848201819052600092820190839060408701905b808310156117215783518252928401926001929092019190840190611701565b509695505050505050565b60208152600061173f60208301846116e4565b9392505050565b60006020828403121561175857600080fd5b50919050565b6000806040838503121561177157600080fd5b82359150602083013567ffffffffffffffff81111561178f57600080fd5b61179b85828601611746565b9150509250929050565b60408101610537828480516001600160a01b03908116835260209182015116910152565b6001600160a01b038116811461106a57600080fd5b6000602082840312156117f057600080fd5b813561173f816117c9565b634e487b7160e01b600052604160045260246000fd5b604051601f8201601f1916810167ffffffffffffffff8111828210171561183a5761183a6117fb565b604052919050565b600067ffffffffffffffff82111561185c5761185c6117fb565b5060051b60200190565b8035611871816117c9565b919050565b600082601f83011261188757600080fd5b813567ffffffffffffffff8111156118a1576118a16117fb565b6118b4601f8201601f1916602001611811565b8181528460208386010111156118c957600080fd5b816020850160208301376000918101602001919091529392505050565b6000806000606084860312156118fb57600080fd5b833567ffffffffffffffff8082111561191357600080fd5b818601915086601f83011261192757600080fd5b8135602061193c61193783611842565b611811565b82815260059290921b8401810191818101908a84111561195b57600080fd5b948201945b83861015611982578535611973816117c9565b82529482019490820190611960565b9750508701359250508082111561199857600080fd5b506119a586828701611876565b9250506119b460408501611866565b90509250925092565b6000604082840312156119cf57600080fd5b6040516040810181811067ffffffffffffffff821117156119f2576119f26117fb565b6040528235611a00816117c9565b81526020830135611a10816117c9565b60208201529392505050565b600181811c90821680611a3057607f821691505b6020821081141561175857634e487b7160e01b600052602260045260246000fd5b600082601f830112611a6257600080fd5b81516020611a7261193783611842565b82815260059290921b84018101918181019086841115611a9157600080fd5b8286015b848110156117215780518352918301918301611a95565b600060208284031215611abe57600080fd5b6040516020810167ffffffffffffffff8282108183111715611ae257611ae26117fb565b816040528293508451915080821115611afa57600080fd5b50611b0785828601611a51565b8252505092915050565b600060208284031215611b2357600080fd5b815167ffffffffffffffff811115611b3a57600080fd5b611b4684828501611aac565b949350505050565b600060208284031215611b6057600080fd5b815161173f816117c9565b6000808335601e19843603018112611b8257600080fd5b83018035915067ffffffffffffffff821115611b9d57600080fd5b6020019150600581901b3603821315611bb557600080fd5b9250929050565b600060208284031215611bce57600080fd5b815167ffffffffffffffff811115611be557600080fd5b611b4684828501611a51565b6000815180845260005b81811015611c1757602081850181015186830182015201611bfb565b81811115611c29576000602083870101525b50601f01601f19169290920160200192915050565b60208152600061173f6020830184611bf1565b60008135601e19833603018112611c6757600080fd5b8201803567ffffffffffffffff811115611c8057600080fd5b8060051b803603851315611c9357600080fd5b602080875286018290526001600160fb1b03821115611cb157600080fd5b806020840160408801376000950160400194855250929392505050565b60208152600061173f6020830184611c51565b604081526000611cf46040830185611c51565b90508260208301529392505050565b634e487b7160e01b600052603260045260246000fd5b600060208284031215611d2b57600080fd5b8151801515811461173f57600080fd5b634e487b7160e01b600052601160045260246000fd5b6000600019821415611d6557611d65611d3b565b5060010190565b600081518084526020808501945080840160005b83811015611d9c57815187529582019590820190600101611d80565b509495945050505050565b60208152600061173f6020830184611d6c565b6001600160a01b0383168152604060208201819052600090611b4690830184611d6c565b600060208284031215611df057600080fd5b5051919050565b60008219821115611e0a57611e0a611d3b565b500190565b60608101611e33828580516001600160a01b03908116835260209182015116910152565b8260408301529392505050565b6000816000190483118215151615611e5a57611e5a611d3b565b500290565b600081518084526020808501945080840160005b83811015611d9c5781516001600160a01b031687529582019590820190600101611e73565b604081526000611eab6040830185611e5f565b8281036020840152611ebd8185611bf1565b95945050505050565b60a081526000611ed960a0830188611e5f565b8281036020840152611eeb8188611bf1565b6001600160a01b0396871660408501529490951660608301525060800152939250505056fea2646970667358221220c185f1edb28b50dcf299f0946b6ef2e07a450f4599a850c9e70ccffc585b7cea64736f6c63430008090033",
  "linkReferences": {},
  "deployedLinkReferences": {}
}