{
  "_format": "hh-sol-artifact-1",
  "contractName": "ManagerProxy",
  "sourceName": "contracts/ManagerProxy.sol",
  "abi": [
    {
      "constant": true,
      "inputs": [],
      "name": "targetContractId",
      "outputs": [
        {
          "internalType": "bytes32",
          "name": "",
          "type": "bytes32"
        }
      ],
      "payable": false,
      "stateMutability": "view",
      "type": "function"
    },
    {
      "constant": false,
      "inputs": [
        {
          "internalType": "address",
          "name": "_controller",
          "type": "address"
        }
      ],
      "name": "setController",
      "outputs": [],
      "payable": false,
      "stateMutability": "nonpayable",
      "type": "function"
    },
    {
      "constant": true,
      "inputs": [],
      "name": "controller",
      "outputs": [
        {
          "internalType": "contract IController",
          "name": "",
          "type": "address"
        }
      ],
      "payable": false,
      "stateMutability": "view",
      "type": "function"
    },
    {
      "inputs": [
        {
          "internalType": "address",
          "name": "_controller",
          "type": "address"
        },
        {
          "internalType": "bytes32",
          "name": "_targetContractId",
          "type": "bytes32"
        }
      ],
      "payable": false,
      "stateMutability": "nonpayable",
      "type": "constructor"
    },
    {
      "payable": true,
      "stateMutability": "payable",
      "type": "fallback"
    },
    {
      "anonymous": false,
      "inputs": [
        {
          "indexed": false,
          "internalType": "address",
          "name": "controller",
          "type": "address"
        }
      ],
      "name": "SetController",
      "type": "event"
    },
    {
      "anonymous": false,
      "inputs": [
        {
          "indexed": false,
          "internalType": "string",
          "name": "param",
          "type": "string"
        }
      ],
      "name": "ParameterUpdate",
      "type": "event"
    }
  ],
  "bytecode": "0x608060405234801561001057600080fd5b5060405161034c38038061034c8339818101604052604081101561003357600080fd5b508051602090910151600080546001600160a01b0319166001600160a01b039093169290921782556001556102de90819061006e90396000f3fe6080604052600436106100345760003560e01c806351720b411461012857806392eefe9b1461014f578063f77c479114610184575b6000805460015460408051631c2d8fb360e31b81526004810192909252516001600160a01b039092169163e16c7d9891602480820192602092909190829003018186803b15801561008457600080fd5b505afa158015610098573d6000803e3d6000fd5b505050506040513d60208110156100ae57600080fd5b505190506001600160a01b0381166100f75760405162461bcd60e51b81526004018080602001828103825260228152602001806102886022913960400191505060405180910390fd5b60408051368101825236600082376000803683865af482513d810184523d6000823e818015610124573d82f35b3d82fd5b34801561013457600080fd5b5061013d6101b5565b60408051918252519081900360200190f35b34801561015b57600080fd5b506101826004803603602081101561017257600080fd5b50356001600160a01b03166101bb565b005b34801561019057600080fd5b50610199610217565b604080516001600160a01b039092168252519081900360200190f35b60015481565b6101c3610226565b600080546001600160a01b0383166001600160a01b0319909116811790915560408051918252517f4ff638452bbf33c012645d18ae6f05515ff5f2d1dfb0cece8cbf018c60903f709181900360200190a150565b6000546001600160a01b031681565b6000546001600160a01b03163314610285576040805162461bcd60e51b815260206004820152601960248201527f63616c6c6572206d75737420626520436f6e74726f6c6c657200000000000000604482015290519081900360640190fd5b56fe74617267657420636f6e7472616374206d7573742062652072656769737465726564a265627a7a72315820ec6be63d4b75925d4140a2c9c97713b3b4abf6e1a29cea028e646021596c41f964736f6c634300050b0032",
  "linkReferences": {},
  "deployedLinkReferences": {}
}