{
  "_format": "hh-sol-artifact-1",
  "contractName": "ChiefTrader",
  "sourceName": "contracts/trader/ChiefTrader.sol",
  "abi": [
    {
      "inputs": [
        {
          "internalType": "address",
          "name": "_protocolGovernance",
          "type": "address"
        }
      ],
      "stateMutability": "nonpayable",
      "type": "constructor"
    },
    {
      "anonymous": false,
      "inputs": [
        {
          "indexed": true,
          "internalType": "uint256",
          "name": "traderId",
          "type": "uint256"
        },
        {
          "indexed": false,
          "internalType": "address",
          "name": "traderAddress",
          "type": "address"
        }
      ],
      "name": "AddedTrader",
      "type": "event"
    },
    {
      "inputs": [
        {
          "internalType": "address",
          "name": "traderAddress",
          "type": "address"
        }
      ],
      "name": "addTrader",
      "outputs": [],
      "stateMutability": "nonpayable",
      "type": "function"
    },
    {
      "inputs": [
        {
          "internalType": "address",
          "name": "",
          "type": "address"
        }
      ],
      "name": "addedTraders",
      "outputs": [
        {
          "internalType": "bool",
          "name": "",
          "type": "bool"
        }
      ],
      "stateMutability": "view",
      "type": "function"
    },
    {
      "inputs": [
        {
          "internalType": "uint256",
          "name": "_index",
          "type": "uint256"
        }
      ],
      "name": "getTrader",
      "outputs": [
        {
          "internalType": "address",
          "name": "",
          "type": "address"
        }
      ],
      "stateMutability": "view",
      "type": "function"
    },
    {
      "inputs": [],
      "name": "protocolGovernance",
      "outputs": [
        {
          "internalType": "address",
          "name": "",
          "type": "address"
        }
      ],
      "stateMutability": "view",
      "type": "function"
    },
    {
      "inputs": [
        {
          "internalType": "bytes4",
          "name": "interfaceId",
          "type": "bytes4"
        }
      ],
      "name": "supportsInterface",
      "outputs": [
        {
          "internalType": "bool",
          "name": "",
          "type": "bool"
        }
      ],
      "stateMutability": "pure",
      "type": "function"
    },
    {
      "inputs": [
        {
          "internalType": "uint256",
          "name": "traderId",
          "type": "uint256"
        },
        {
          "internalType": "uint256",
          "name": "amount",
          "type": "uint256"
        },
        {
          "internalType": "address",
          "name": "",
          "type": "address"
        },
        {
          "components": [
            {
              "internalType": "address",
              "name": "token0",
              "type": "address"
            },
            {
              "internalType": "address",
              "name": "token1",
              "type": "address"
            },
            {
              "internalType": "bytes",
              "name": "options",
              "type": "bytes"
            }
          ],
          "internalType": "struct ITrader.PathItem[]",
          "name": "path",
          "type": "tuple[]"
        },
        {
          "internalType": "bytes",
          "name": "options",
          "type": "bytes"
        }
      ],
      "name": "swapExactInput",
      "outputs": [
        {
          "internalType": "uint256",
          "name": "",
          "type": "uint256"
        }
      ],
      "stateMutability": "nonpayable",
      "type": "function"
    },
    {
      "inputs": [
        {
          "internalType": "uint256",
          "name": "traderId",
          "type": "uint256"
        },
        {
          "internalType": "uint256",
          "name": "amount",
          "type": "uint256"
        },
        {
          "internalType": "address",
          "name": "",
          "type": "address"
        },
        {
          "components": [
            {
              "internalType": "address",
              "name": "token0",
              "type": "address"
            },
            {
              "internalType": "address",
              "name": "token1",
              "type": "address"
            },
            {
              "internalType": "bytes",
              "name": "options",
              "type": "bytes"
            }
          ],
          "internalType": "struct ITrader.PathItem[]",
          "name": "path",
          "type": "tuple[]"
        },
        {
          "internalType": "bytes",
          "name": "options",
          "type": "bytes"
        }
      ],
      "name": "swapExactOutput",
      "outputs": [
        {
          "internalType": "uint256",
          "name": "",
          "type": "uint256"
        }
      ],
      "stateMutability": "nonpayable",
      "type": "function"
    },
    {
      "inputs": [],
      "name": "traders",
      "outputs": [
        {
          "internalType": "address[]",
          "name": "",
          "type": "address[]"
        }
      ],
      "stateMutability": "view",
      "type": "function"
    },
    {
      "inputs": [],
      "name": "tradersCount",
      "outputs": [
        {
          "internalType": "uint256",
          "name": "",
          "type": "uint256"
        }
      ],
      "stateMutability": "view",
      "type": "function"
    }
  ],
  "bytecode": "0x60a060405234801561001057600080fd5b5060405161107e38038061107e83398101604081905261002f91610040565b6001600160a01b0316608052610070565b60006020828403121561005257600080fd5b81516001600160a01b038116811461006957600080fd5b9392505050565b608051610fe66100986000396000818160d7015281816106a701526107670152610fe66000f3fe608060405234801561001057600080fd5b50600436106100935760003560e01c8063671918af11610066578063671918af14610126578063a76c005a14610139578063b80757ad1461015c578063bcfbd4451461016f578063ddbdf2421461018257600080fd5b806301ffc9a71461009857806307a99ac6146100c05780635227ce4c146100d25780635d428e0814610111575b600080fd5b6100ab6100a6366004610a1f565b610197565b60405190151581526020015b60405180910390f35b6000545b6040519081526020016100b7565b6100f97f000000000000000000000000000000000000000000000000000000000000000081565b6040516001600160a01b0390911681526020016100b7565b61012461011f366004610a6c565b6101e9565b005b6100c4610134366004610ad0565b610450565b6100ab610147366004610a6c565b60016020526000908152604090205460ff1681565b6100c461016a366004610ad0565b61055b565b6100f961017d366004610b95565b610601565b61018a610630565b6040516100b79190610bae565b60006001600160e01b031982166301ffc9a760e01b14806101c857506001600160e01b03198216636f8f278160e11b145b806101e357506001600160e01b0319821663698afc8560e01b145b92915050565b6101f1610692565b604080518082019091526002815261524560f01b60208201526001600160a01b03821630141561023d5760405162461bcd60e51b81526004016102349190610bfb565b60405180910390fd5b506001600160a01b0381166000908152600160209081526040918290205482518084019093526002835261544560f01b9183019190915260ff16156102955760405162461bcd60e51b81526004016102349190610bfb565b506040516301ffc9a760e01b8152636f8f278160e11b60048201526001600160a01b038216906301ffc9a79060240160206040518083038186803b1580156102dc57600080fd5b505afa1580156102f0573d6000803e3d6000fd5b505050506040513d601f19601f820116820180604052508101906103149190610c50565b61031d57600080fd5b6040516301ffc9a760e01b815263698afc8560e01b60048201526001600160a01b038216906301ffc9a79060240160206040518083038186803b15801561036357600080fd5b505afa158015610377573d6000803e3d6000fd5b505050506040513d601f19601f8201168201806040525081019061039b9190610c50565b156103a557600080fd5b60008054600180820183557f290decd9548b62a8d60345a988386fc84ba6bc95484008f6362f93160ef3e56390910180546001600160a01b0319166001600160a01b0385169081179091558252602081905260408220805460ff19168217905590546104119190610c88565b6040516001600160a01b03831681527f49d14a1e955eb6819a135871d8a0d30be6769563a68f5e2a5eb909bd9ee642359060200160405180910390a250565b60008054604080518082019091526002815261155560f21b602082015290891061048d5760405162461bcd60e51b81526004016102349190610bfb565b506104a061049b8587610d0f565b610765565b60008089815481106104b4576104b4610e35565b600091825260208220015460405163671918af60e01b81526001600160a01b0390911692503391839163671918af916104fb918d9086908d908d908d908d90600401610e74565b602060405180830381600087803b15801561051557600080fd5b505af1158015610529573d6000803e3d6000fd5b505050506040513d601f19601f8201168201806040525081019061054d9190610f7c565b9a9950505050505050505050565b60008054604080518082019091526002815261155560f21b60208201529089106105985760405162461bcd60e51b81526004016102349190610bfb565b506105a661049b8587610d0f565b60008089815481106105ba576105ba610e35565b600091825260208220015460405163b80757ad60e01b81526001600160a01b0390911692503391839163b80757ad916104fb918d9086908d908d908d908d90600401610e74565b600080828154811061061557610615610e35565b6000918252602090912001546001600160a01b031692915050565b6060600080548060200260200160405190810160405280929190818152602001828054801561068857602002820191906000526020600020905b81546001600160a01b0316815260019091019060200180831161066a575b5050505050905090565b604051630935e01b60e21b81523360048201527f00000000000000000000000000000000000000000000000000000000000000006001600160a01b0316906324d7806c9060240160206040518083038186803b1580156106f157600080fd5b505afa158015610705573d6000803e3d6000fd5b505050506040513d601f19601f820116820180604052508101906107299190610c50565b60405180604001604052806002815260200161504160f01b815250906107625760405162461bcd60e51b81526004016102349190610bfb565b50565b7f000000000000000000000000000000000000000000000000000000000000000060015b825181101561092f57816001600160a01b031663cbe230c38483815181106107b3576107b3610e35565b6020908102919091010151516040516001600160e01b031960e084901b1681526001600160a01b03909116600482015260240160206040518083038186803b1580156107fe57600080fd5b505afa158015610812573d6000803e3d6000fd5b505050506040513d601f19601f820116820180604052508101906108369190610c50565b80156108e55750816001600160a01b031663cbe230c384838151811061085e5761085e610e35565b6020026020010151602001516040518263ffffffff1660e01b815260040161089591906001600160a01b0391909116815260200190565b60206040518083038186803b1580156108ad57600080fd5b505afa1580156108c1573d6000803e3d6000fd5b505050506040513d601f19601f820116820180604052508101906108e59190610c50565b60405180604001604052806002815260200161544160f01b8152509061091e5760405162461bcd60e51b81526004016102349190610bfb565b5061092881610f95565b9050610789565b50815115610a1b57806001600160a01b031663cbe230c38360008151811061095957610959610e35565b6020026020010151602001516040518263ffffffff1660e01b815260040161099091906001600160a01b0391909116815260200190565b60206040518083038186803b1580156109a857600080fd5b505afa1580156109bc573d6000803e3d6000fd5b505050506040513d601f19601f820116820180604052508101906109e09190610c50565b60405180604001604052806002815260200161544160f01b81525090610a195760405162461bcd60e51b81526004016102349190610bfb565b505b5050565b600060208284031215610a3157600080fd5b81356001600160e01b031981168114610a4957600080fd5b9392505050565b80356001600160a01b0381168114610a6757600080fd5b919050565b600060208284031215610a7e57600080fd5b610a4982610a50565b60008083601f840112610a9957600080fd5b50813567ffffffffffffffff811115610ab157600080fd5b602083019150836020828501011115610ac957600080fd5b9250929050565b600080600080600080600060a0888a031215610aeb57600080fd5b8735965060208801359550610b0260408901610a50565b9450606088013567ffffffffffffffff80821115610b1f57600080fd5b818a0191508a601f830112610b3357600080fd5b813581811115610b4257600080fd5b8b60208260051b8501011115610b5757600080fd5b6020830196508095505060808a0135915080821115610b7557600080fd5b50610b828a828b01610a87565b989b979a50959850939692959293505050565b600060208284031215610ba757600080fd5b5035919050565b6020808252825182820181905260009190848201906040850190845b81811015610bef5783516001600160a01b031683529284019291840191600101610bca565b50909695505050505050565b600060208083528351808285015260005b81811015610c2857858101830151858201604001528201610c0c565b81811115610c3a576000604083870101525b50601f01601f1916929092016040019392505050565b600060208284031215610c6257600080fd5b81518015158114610a4957600080fd5b634e487b7160e01b600052601160045260246000fd5b600082821015610c9a57610c9a610c72565b500390565b634e487b7160e01b600052604160045260246000fd5b6040516060810167ffffffffffffffff81118282101715610cd857610cd8610c9f565b60405290565b604051601f8201601f1916810167ffffffffffffffff81118282101715610d0757610d07610c9f565b604052919050565b600067ffffffffffffffff80841115610d2a57610d2a610c9f565b8360051b6020610d3b818301610cde565b868152918501918181019036841115610d5357600080fd5b865b84811015610e2957803586811115610d6d5760008081fd5b88016060368290031215610d815760008081fd5b610d89610cb5565b610d9282610a50565b8152610d9f868301610a50565b8682015260408083013589811115610db75760008081fd5b9290920191601f3681850112610dcd5760008081fd5b83358a811115610ddf57610ddf610c9f565b610df0818301601f19168a01610cde565b91508082523689828701011115610e075760008081fd5b808986018a840137600090820189015290820152845250918301918301610d55565b50979650505050505050565b634e487b7160e01b600052603260045260246000fd5b81835281816020850137506000828201602090810191909152601f909101601f19169091010190565b600060a0820189835260208981850152604060018060a01b03808b1682870152606060a081880152848a865260c08801905060c08b60051b89010195508b60005b8c811015610f625789880360bf190183528135368f9003605e19018112610edb57600080fd5b8e0185610ee782610a50565b16895285610ef6898301610a50565b16888a015286810135601e19823603018112610f1157600080fd5b8101803567ffffffffffffffff811115610f2a57600080fd5b803603831315610f3957600080fd5b86898c0152610f4d878c01828c8501610e4b565b9a505050928701925090860190600101610eb5565b50505050505050828103608084015261054d818587610e4b565b600060208284031215610f8e57600080fd5b5051919050565b6000600019821415610fa957610fa9610c72565b506001019056fea26469706673582212206db236ae06460ab3c54b163beaba70fcca63cdf002289be52cd2e8490b4b742464736f6c63430008090033",
  "linkReferences": {},
  "deployedLinkReferences": {}
}