{
  "_format": "hh-sol-artifact-1",
  "contractName": "MockGUniPool",
  "sourceName": "contracts/mocks/MockGUniPool.sol",
  "abi": [
    {
      "inputs": [
        {
          "internalType": "address",
          "name": "_token0",
          "type": "address"
        },
        {
          "internalType": "address",
          "name": "_token1",
          "type": "address"
        }
      ],
      "stateMutability": "nonpayable",
      "type": "constructor"
    },
    {
      "inputs": [],
      "name": "balance0",
      "outputs": [
        {
          "internalType": "uint256",
          "name": "",
          "type": "uint256"
        }
      ],
      "stateMutability": "view",
      "type": "function"
    },
    {
      "inputs": [],
      "name": "balance1",
      "outputs": [
        {
          "internalType": "uint256",
          "name": "",
          "type": "uint256"
        }
      ],
      "stateMutability": "view",
      "type": "function"
    },
    {
      "inputs": [
        {
          "internalType": "uint160",
          "name": "",
          "type": "uint160"
        }
      ],
      "name": "getUnderlyingBalancesAtPrice",
      "outputs": [
        {
          "internalType": "uint256",
          "name": "",
          "type": "uint256"
        },
        {
          "internalType": "uint256",
          "name": "",
          "type": "uint256"
        }
      ],
      "stateMutability": "view",
      "type": "function"
    },
    {
      "inputs": [
        {
          "internalType": "uint256",
          "name": "_balance0",
          "type": "uint256"
        },
        {
          "internalType": "uint256",
          "name": "_balance1",
          "type": "uint256"
        }
      ],
      "name": "setBalance",
      "outputs": [],
      "stateMutability": "nonpayable",
      "type": "function"
    },
    {
      "inputs": [
        {
          "internalType": "uint256",
          "name": "supply",
          "type": "uint256"
        }
      ],
      "name": "setTotalSupply",
      "outputs": [],
      "stateMutability": "nonpayable",
      "type": "function"
    },
    {
      "inputs": [],
      "name": "token0",
      "outputs": [
        {
          "internalType": "address",
          "name": "",
          "type": "address"
        }
      ],
      "stateMutability": "view",
      "type": "function"
    },
    {
      "inputs": [],
      "name": "token1",
      "outputs": [
        {
          "internalType": "address",
          "name": "",
          "type": "address"
        }
      ],
      "stateMutability": "view",
      "type": "function"
    },
    {
      "inputs": [],
      "name": "totalSupply",
      "outputs": [
        {
          "internalType": "uint256",
          "name": "",
          "type": "uint256"
        }
      ],
      "stateMutability": "view",
      "type": "function"
    }
  ],
  "bytecode": "0x608060405234801561001057600080fd5b5060405161025f38038061025f8339818101604052604081101561003357600080fd5b508051602090910151600080546001600160a01b039384166001600160a01b031991821617909155600180549390921692169190911790556101e58061007a6000396000f3fe608060405234801561001057600080fd5b50600436106100885760003560e01c8063b670ed7d1161005b578063b670ed7d146100f8578063c45c4f5814610137578063d21220a71461013f578063f7ea7a3d1461014757610088565b80630dfe16811461008d57806318160ddd146100b15780631c69ad00146100cb5780634a4b9feb146100d3575b600080fd5b610095610164565b604080516001600160a01b039092168252519081900360200190f35b6100b9610173565b60408051918252519081900360200190f35b6100b9610179565b6100f6600480360360408110156100e957600080fd5b508035906020013561017f565b005b61011e6004803603602081101561010e57600080fd5b50356001600160a01b031661018a565b6040805192835260208301919091528051918290030190f35b6100b9610195565b61009561019b565b6100f66004803603602081101561015d57600080fd5b50356101aa565b6000546001600160a01b031681565b60025481565b60035481565b600391909155600455565b600354600454915091565b60045481565b6001546001600160a01b031681565b60025556fea26469706673582212207c122a8fc3b822f61c6be4dad88ab070628ed08f6559b74ab5c7c5ccd1a2a43364736f6c634300060c0033",
  "linkReferences": {},
  "deployedLinkReferences": {}
}