{
  "_format": "hh-sol-artifact-1",
  "contractName": "AssetManager",
  "sourceName": "contracts/asset/AssetManager.sol",
  "abi": [
    {
      "anonymous": false,
      "inputs": [
        {
          "indexed": false,
          "internalType": "address",
          "name": "previousAdmin",
          "type": "address"
        },
        {
          "indexed": false,
          "internalType": "address",
          "name": "newAdmin",
          "type": "address"
        }
      ],
      "name": "AdminChanged",
      "type": "event"
    },
    {
      "anonymous": false,
      "inputs": [
        {
          "indexed": true,
          "internalType": "address",
          "name": "beacon",
          "type": "address"
        }
      ],
      "name": "BeaconUpgraded",
      "type": "event"
    },
    {
      "anonymous": false,
      "inputs": [
        {
          "indexed": true,
          "internalType": "address",
          "name": "token",
          "type": "address"
        },
        {
          "indexed": true,
          "internalType": "address",
          "name": "account",
          "type": "address"
        },
        {
          "indexed": false,
          "internalType": "uint256",
          "name": "amount",
          "type": "uint256"
        }
      ],
      "name": "LogDeposit",
      "type": "event"
    },
    {
      "anonymous": false,
      "inputs": [
        {
          "indexed": false,
          "internalType": "address",
          "name": "tokenAddress",
          "type": "address"
        },
        {
          "indexed": false,
          "internalType": "uint256[]",
          "name": "percentages",
          "type": "uint256[]"
        }
      ],
      "name": "LogRebalance",
      "type": "event"
    },
    {
      "anonymous": false,
      "inputs": [
        {
          "indexed": true,
          "internalType": "address",
          "name": "token",
          "type": "address"
        },
        {
          "indexed": true,
          "internalType": "address",
          "name": "account",
          "type": "address"
        },
        {
          "indexed": false,
          "internalType": "uint256",
          "name": "amount",
          "type": "uint256"
        },
        {
          "indexed": false,
          "internalType": "uint256",
          "name": "remaining",
          "type": "uint256"
        }
      ],
      "name": "LogWithdraw",
      "type": "event"
    },
    {
      "anonymous": false,
      "inputs": [
        {
          "indexed": false,
          "internalType": "address",
          "name": "account",
          "type": "address"
        }
      ],
      "name": "Paused",
      "type": "event"
    },
    {
      "anonymous": false,
      "inputs": [
        {
          "indexed": true,
          "internalType": "bytes32",
          "name": "role",
          "type": "bytes32"
        },
        {
          "indexed": true,
          "internalType": "bytes32",
          "name": "previousAdminRole",
          "type": "bytes32"
        },
        {
          "indexed": true,
          "internalType": "bytes32",
          "name": "newAdminRole",
          "type": "bytes32"
        }
      ],
      "name": "RoleAdminChanged",
      "type": "event"
    },
    {
      "anonymous": false,
      "inputs": [
        {
          "indexed": true,
          "internalType": "bytes32",
          "name": "role",
          "type": "bytes32"
        },
        {
          "indexed": true,
          "internalType": "address",
          "name": "account",
          "type": "address"
        },
        {
          "indexed": true,
          "internalType": "address",
          "name": "sender",
          "type": "address"
        }
      ],
      "name": "RoleGranted",
      "type": "event"
    },
    {
      "anonymous": false,
      "inputs": [
        {
          "indexed": true,
          "internalType": "bytes32",
          "name": "role",
          "type": "bytes32"
        },
        {
          "indexed": true,
          "internalType": "address",
          "name": "account",
          "type": "address"
        },
        {
          "indexed": true,
          "internalType": "address",
          "name": "sender",
          "type": "address"
        }
      ],
      "name": "RoleRevoked",
      "type": "event"
    },
    {
      "anonymous": false,
      "inputs": [
        {
          "indexed": false,
          "internalType": "address",
          "name": "account",
          "type": "address"
        }
      ],
      "name": "Unpaused",
      "type": "event"
    },
    {
      "anonymous": false,
      "inputs": [
        {
          "indexed": true,
          "internalType": "address",
          "name": "implementation",
          "type": "address"
        }
      ],
      "name": "Upgraded",
      "type": "event"
    },
    {
      "inputs": [],
      "name": "DEFAULT_ADMIN_ROLE",
      "outputs": [
        {
          "internalType": "bytes32",
          "name": "",
          "type": "bytes32"
        }
      ],
      "stateMutability": "view",
      "type": "function"
    },
    {
      "inputs": [],
      "name": "ROLE_ADMIN",
      "outputs": [
        {
          "internalType": "bytes32",
          "name": "",
          "type": "bytes32"
        }
      ],
      "stateMutability": "view",
      "type": "function"
    },
    {
      "inputs": [
        {
          "internalType": "address",
          "name": "_marketRegistry",
          "type": "address"
        }
      ],
      "name": "__AssetManager_init",
      "outputs": [],
      "stateMutability": "nonpayable",
      "type": "function"
    },
    {
      "inputs": [
        {
          "internalType": "address",
          "name": "admin_",
          "type": "address"
        }
      ],
      "name": "__Controller_init",
      "outputs": [],
      "stateMutability": "nonpayable",
      "type": "function"
    },
    {
      "inputs": [
        {
          "internalType": "address",
          "name": "adapterAddress",
          "type": "address"
        }
      ],
      "name": "addAdapter",
      "outputs": [],
      "stateMutability": "nonpayable",
      "type": "function"
    },
    {
      "inputs": [
        {
          "internalType": "address",
          "name": "account",
          "type": "address"
        }
      ],
      "name": "addAdmin",
      "outputs": [],
      "stateMutability": "nonpayable",
      "type": "function"
    },
    {
      "inputs": [
        {
          "internalType": "address",
          "name": "tokenAddress",
          "type": "address"
        }
      ],
      "name": "addToken",
      "outputs": [],
      "stateMutability": "nonpayable",
      "type": "function"
    },
    {
      "inputs": [
        {
          "internalType": "address",
          "name": "tokenAddress",
          "type": "address"
        }
      ],
      "name": "approveAllMarketsMax",
      "outputs": [],
      "stateMutability": "nonpayable",
      "type": "function"
    },
    {
      "inputs": [
        {
          "internalType": "address",
          "name": "adapterAddress",
          "type": "address"
        }
      ],
      "name": "approveAllTokensMax",
      "outputs": [],
      "stateMutability": "nonpayable",
      "type": "function"
    },
    {
      "inputs": [
        {
          "internalType": "address",
          "name": "",
          "type": "address"
        },
        {
          "internalType": "address",
          "name": "",
          "type": "address"
        }
      ],
      "name": "balances",
      "outputs": [
        {
          "internalType": "uint256",
          "name": "",
          "type": "uint256"
        }
      ],
      "stateMutability": "view",
      "type": "function"
    },
    {
      "inputs": [
        {
          "internalType": "uint256[]",
          "name": "newSeq",
          "type": "uint256[]"
        }
      ],
      "name": "changeWithdrawSequence",
      "outputs": [],
      "stateMutability": "nonpayable",
      "type": "function"
    },
    {
      "inputs": [
        {
          "internalType": "address",
          "name": "tokenAddress",
          "type": "address"
        },
        {
          "internalType": "address",
          "name": "recipient",
          "type": "address"
        }
      ],
      "name": "claimTokens",
      "outputs": [],
      "stateMutability": "nonpayable",
      "type": "function"
    },
    {
      "inputs": [
        {
          "internalType": "uint256",
          "name": "index",
          "type": "uint256"
        },
        {
          "internalType": "address",
          "name": "tokenAddress",
          "type": "address"
        },
        {
          "internalType": "address",
          "name": "recipient",
          "type": "address"
        }
      ],
      "name": "claimTokensFromAdapter",
      "outputs": [],
      "stateMutability": "nonpayable",
      "type": "function"
    },
    {
      "inputs": [
        {
          "internalType": "address",
          "name": "token",
          "type": "address"
        },
        {
          "internalType": "uint256",
          "name": "amount",
          "type": "uint256"
        }
      ],
      "name": "debtWriteOff",
      "outputs": [],
      "stateMutability": "nonpayable",
      "type": "function"
    },
    {
      "inputs": [
        {
          "internalType": "address",
          "name": "token",
          "type": "address"
        },
        {
          "internalType": "uint256",
          "name": "amount",
          "type": "uint256"
        }
      ],
      "name": "deposit",
      "outputs": [
        {
          "internalType": "bool",
          "name": "",
          "type": "bool"
        }
      ],
      "stateMutability": "nonpayable",
      "type": "function"
    },
    {
      "inputs": [
        {
          "internalType": "address",
          "name": "tokenAddress",
          "type": "address"
        }
      ],
      "name": "getLoanableAmount",
      "outputs": [
        {
          "internalType": "uint256",
          "name": "",
          "type": "uint256"
        }
      ],
      "stateMutability": "view",
      "type": "function"
    },
    {
      "inputs": [
        {
          "internalType": "address",
          "name": "tokenAddress",
          "type": "address"
        },
        {
          "internalType": "uint256",
          "name": "marketId",
          "type": "uint256"
        }
      ],
      "name": "getMoneyMarket",
      "outputs": [
        {
          "internalType": "uint256",
          "name": "rate",
          "type": "uint256"
        },
        {
          "internalType": "uint256",
          "name": "tokenSupply",
          "type": "uint256"
        }
      ],
      "stateMutability": "view",
      "type": "function"
    },
    {
      "inputs": [
        {
          "internalType": "address",
          "name": "tokenAddress",
          "type": "address"
        }
      ],
      "name": "getPoolBalance",
      "outputs": [
        {
          "internalType": "uint256",
          "name": "",
          "type": "uint256"
        }
      ],
      "stateMutability": "view",
      "type": "function"
    },
    {
      "inputs": [
        {
          "internalType": "bytes32",
          "name": "role",
          "type": "bytes32"
        }
      ],
      "name": "getRoleAdmin",
      "outputs": [
        {
          "internalType": "bytes32",
          "name": "",
          "type": "bytes32"
        }
      ],
      "stateMutability": "view",
      "type": "function"
    },
    {
      "inputs": [
        {
          "internalType": "bytes32",
          "name": "role",
          "type": "bytes32"
        },
        {
          "internalType": "address",
          "name": "account",
          "type": "address"
        }
      ],
      "name": "grantRole",
      "outputs": [],
      "stateMutability": "nonpayable",
      "type": "function"
    },
    {
      "inputs": [
        {
          "internalType": "bytes32",
          "name": "role",
          "type": "bytes32"
        },
        {
          "internalType": "address",
          "name": "account",
          "type": "address"
        }
      ],
      "name": "hasRole",
      "outputs": [
        {
          "internalType": "bool",
          "name": "",
          "type": "bool"
        }
      ],
      "stateMutability": "view",
      "type": "function"
    },
    {
      "inputs": [
        {
          "internalType": "address",
          "name": "account",
          "type": "address"
        }
      ],
      "name": "isAdmin",
      "outputs": [
        {
          "internalType": "bool",
          "name": "",
          "type": "bool"
        }
      ],
      "stateMutability": "view",
      "type": "function"
    },
    {
      "inputs": [
        {
          "internalType": "address",
          "name": "tokenAddress",
          "type": "address"
        }
      ],
      "name": "isMarketSupported",
      "outputs": [
        {
          "internalType": "bool",
          "name": "",
          "type": "bool"
        }
      ],
      "stateMutability": "view",
      "type": "function"
    },
    {
      "inputs": [],
      "name": "marketRegistry",
      "outputs": [
        {
          "internalType": "address",
          "name": "",
          "type": "address"
        }
      ],
      "stateMutability": "view",
      "type": "function"
    },
    {
      "inputs": [
        {
          "internalType": "uint256",
          "name": "",
          "type": "uint256"
        }
      ],
      "name": "moneyMarkets",
      "outputs": [
        {
          "internalType": "contract IMoneyMarketAdapter",
          "name": "",
          "type": "address"
        }
      ],
      "stateMutability": "view",
      "type": "function"
    },
    {
      "inputs": [],
      "name": "moneyMarketsCount",
      "outputs": [
        {
          "internalType": "uint256",
          "name": "",
          "type": "uint256"
        }
      ],
      "stateMutability": "view",
      "type": "function"
    },
    {
      "inputs": [
        {
          "internalType": "address[]",
          "name": "adapters",
          "type": "address[]"
        }
      ],
      "name": "overwriteAdapters",
      "outputs": [],
      "stateMutability": "nonpayable",
      "type": "function"
    },
    {
      "inputs": [],
      "name": "pause",
      "outputs": [],
      "stateMutability": "nonpayable",
      "type": "function"
    },
    {
      "inputs": [],
      "name": "pauseGuardian",
      "outputs": [
        {
          "internalType": "address",
          "name": "",
          "type": "address"
        }
      ],
      "stateMutability": "view",
      "type": "function"
    },
    {
      "inputs": [],
      "name": "paused",
      "outputs": [
        {
          "internalType": "bool",
          "name": "",
          "type": "bool"
        }
      ],
      "stateMutability": "view",
      "type": "function"
    },
    {
      "inputs": [
        {
          "internalType": "address",
          "name": "tokenAddress",
          "type": "address"
        },
        {
          "internalType": "uint256[]",
          "name": "percentages",
          "type": "uint256[]"
        }
      ],
      "name": "rebalance",
      "outputs": [],
      "stateMutability": "nonpayable",
      "type": "function"
    },
    {
      "inputs": [],
      "name": "renounceAdmin",
      "outputs": [],
      "stateMutability": "nonpayable",
      "type": "function"
    },
    {
      "inputs": [
        {
          "internalType": "bytes32",
          "name": "role",
          "type": "bytes32"
        },
        {
          "internalType": "address",
          "name": "account",
          "type": "address"
        }
      ],
      "name": "renounceRole",
      "outputs": [],
      "stateMutability": "nonpayable",
      "type": "function"
    },
    {
      "inputs": [
        {
          "internalType": "bytes32",
          "name": "role",
          "type": "bytes32"
        },
        {
          "internalType": "address",
          "name": "account",
          "type": "address"
        }
      ],
      "name": "revokeRole",
      "outputs": [],
      "stateMutability": "nonpayable",
      "type": "function"
    },
    {
      "inputs": [
        {
          "internalType": "address",
          "name": "account",
          "type": "address"
        }
      ],
      "name": "setGuardian",
      "outputs": [],
      "stateMutability": "nonpayable",
      "type": "function"
    },
    {
      "inputs": [
        {
          "internalType": "address",
          "name": "_marketRegistry",
          "type": "address"
        }
      ],
      "name": "setMarketRegistry",
      "outputs": [],
      "stateMutability": "nonpayable",
      "type": "function"
    },
    {
      "inputs": [
        {
          "internalType": "address",
          "name": "",
          "type": "address"
        }
      ],
      "name": "supportedMarkets",
      "outputs": [
        {
          "internalType": "bool",
          "name": "isSupported",
          "type": "bool"
        }
      ],
      "stateMutability": "view",
      "type": "function"
    },
    {
      "inputs": [],
      "name": "supportedTokensCount",
      "outputs": [
        {
          "internalType": "uint256",
          "name": "",
          "type": "uint256"
        }
      ],
      "stateMutability": "view",
      "type": "function"
    },
    {
      "inputs": [
        {
          "internalType": "uint256",
          "name": "",
          "type": "uint256"
        }
      ],
      "name": "supportedTokensList",
      "outputs": [
        {
          "internalType": "address",
          "name": "",
          "type": "address"
        }
      ],
      "stateMutability": "view",
      "type": "function"
    },
    {
      "inputs": [
        {
          "internalType": "bytes4",
          "name": "interfaceId",
          "type": "bytes4"
        }
      ],
      "name": "supportsInterface",
      "outputs": [
        {
          "internalType": "bool",
          "name": "",
          "type": "bool"
        }
      ],
      "stateMutability": "view",
      "type": "function"
    },
    {
      "inputs": [
        {
          "internalType": "address",
          "name": "",
          "type": "address"
        }
      ],
      "name": "totalPrincipal",
      "outputs": [
        {
          "internalType": "uint256",
          "name": "",
          "type": "uint256"
        }
      ],
      "stateMutability": "view",
      "type": "function"
    },
    {
      "inputs": [
        {
          "internalType": "address",
          "name": "tokenAddress",
          "type": "address"
        }
      ],
      "name": "totalSupply",
      "outputs": [
        {
          "internalType": "uint256",
          "name": "",
          "type": "uint256"
        }
      ],
      "stateMutability": "nonpayable",
      "type": "function"
    },
    {
      "inputs": [
        {
          "internalType": "address",
          "name": "tokenAddress",
          "type": "address"
        }
      ],
      "name": "totalSupplyView",
      "outputs": [
        {
          "internalType": "uint256",
          "name": "",
          "type": "uint256"
        }
      ],
      "stateMutability": "view",
      "type": "function"
    },
    {
      "inputs": [],
      "name": "unpause",
      "outputs": [],
      "stateMutability": "nonpayable",
      "type": "function"
    },
    {
      "inputs": [
        {
          "internalType": "address",
          "name": "newImplementation",
          "type": "address"
        }
      ],
      "name": "upgradeTo",
      "outputs": [],
      "stateMutability": "nonpayable",
      "type": "function"
    },
    {
      "inputs": [
        {
          "internalType": "address",
          "name": "newImplementation",
          "type": "address"
        },
        {
          "internalType": "bytes",
          "name": "data",
          "type": "bytes"
        }
      ],
      "name": "upgradeToAndCall",
      "outputs": [],
      "stateMutability": "payable",
      "type": "function"
    },
    {
      "inputs": [
        {
          "internalType": "address",
          "name": "token",
          "type": "address"
        },
        {
          "internalType": "address",
          "name": "account",
          "type": "address"
        },
        {
          "internalType": "uint256",
          "name": "amount",
          "type": "uint256"
        }
      ],
      "name": "withdraw",
      "outputs": [
        {
          "internalType": "bool",
          "name": "",
          "type": "bool"
        }
      ],
      "stateMutability": "nonpayable",
      "type": "function"
    },
    {
      "inputs": [
        {
          "internalType": "uint256",
          "name": "",
          "type": "uint256"
        }
      ],
      "name": "withdrawSeq",
      "outputs": [
        {
          "internalType": "uint256",
          "name": "",
          "type": "uint256"
        }
      ],
      "stateMutability": "view",
      "type": "function"
    }
  ],
  "bytecode": "0x60a06040523060601b60805234801561001757600080fd5b5060805160601c614a8461004b600039600081816110e2015281816111220152818161220801526122480152614a846000f3fe6080604052600436106102925760003560e01c80638a0dac4a1161015a578063c23f001f116100c1578063d85797041161007a578063d857970414610c49578063d9caed1214610c7c578063e49fba6b14610cbf578063e4dc2aa414610cd5578063ecb96fe614610d08578063f9e1111c14610d2957600080fd5b8063c23f001f14610b03578063cbfe49af14610b55578063d28682ea14610b88578063d391014b14610bbb578063d48bfca714610bdd578063d547741f14610c1057600080fd5b8063a2d11a7711610113578063a2d11a7714610976578063acc04b58146109a0578063b19c897314610a1b578063b8845f7514610a45578063bae6f74014610a7e578063bb904dc014610ab157600080fd5b80638a0dac4a1461087a5780638bad0c0a146108ad57806391d14854146108c257806393737049146108fb5780639d386f2a1461092e578063a217fddf1461096157600080fd5b80633f4ba83a116101fe57806360d54d41116101b757806360d54d411461076757806363c918771461079a57806369ffa08a146107c45780636c461a73146107ff57806370480275146108325780638456cb591461086557600080fd5b80633f4ba83a146105ac57806347e7ef24146105c15780634ef51c3f146105fa5780634f1ef286146106855780635af9f139146107395780635c975abb1461074f57600080fd5b806324a3d6221161025057806324a3d6221461046057806324d7806c146104a15780632f2ff15d146104d457806336568abe1461050d5780633659cfe6146105465780633e80427d1461057957600080fd5b80627034111461029757806301ffc9a7146102dc57806310d0bbe314610324578063129ac68c146103a157806320761fc4146103e2578063248a9ca314610426575b600080fd5b3480156102a357600080fd5b506102ca600480360360208110156102ba57600080fd5b50356001600160a01b0316610d6a565b60408051918252519081900360200190f35b3480156102e857600080fd5b50610310600480360360208110156102ff57600080fd5b50356001600160e01b031916610dce565b604080519115158252519081900360200190f35b34801561033057600080fd5b5061039f6004803603602081101561034757600080fd5b810190602081018135600160201b81111561036157600080fd5b82018360208201111561037357600080fd5b803590602001918460208302840111600160201b8311171561039457600080fd5b509092509050610e05565b005b3480156103ad57600080fd5b5061039f600480360360608110156103c457600080fd5b508035906001600160a01b0360208201358116916040013516610f46565b3480156103ee57600080fd5b506103106004803603602081101561040557600080fd5b50610162602052356001600160a01b03166000908152604090205460ff1681565b34801561043257600080fd5b506102ca6004803603602081101561044957600080fd5b5035600090815260c9602052604090206001015490565b34801561046c57600080fd5b5060fc546104859061010090046001600160a01b031681565b604080516001600160a01b039092168252519081900360200190f35b3480156104ad57600080fd5b50610310600480360360208110156104c457600080fd5b50356001600160a01b0316611019565b3480156104e057600080fd5b5061039f600480360360408110156104f757600080fd5b50803590602001356001600160a01b0316611033565b34801561051957600080fd5b5061039f6004803603604081101561053057600080fd5b50803590602001356001600160a01b0316611059565b34801561055257600080fd5b5061039f6004803603602081101561056957600080fd5b50356001600160a01b03166110d7565b34801561058557600080fd5b5061039f6004803603602081101561059c57600080fd5b50356001600160a01b03166111a0565b3480156105b857600080fd5b5061039f611252565b3480156105cd57600080fd5b50610310600480360360408110156105e457600080fd5b506001600160a01b03813516906020013561130c565b34801561060657600080fd5b5061039f6004803603604081101561061d57600080fd5b6001600160a01b038235169190810190604081016020820135600160201b81111561064757600080fd5b82018360208201111561065957600080fd5b803590602001918460208302840111600160201b8311171561067a57600080fd5b5090925090506119f5565b61039f6004803603604081101561069b57600080fd5b6001600160a01b038235169190810190604081016020820135600160201b8111156106c557600080fd5b8201836020820111156106d757600080fd5b803590602001918460018302840111600160201b831117156106f857600080fd5b91908080601f0160208091040260200160405190810160405280939291908181526020018383808284376000920191909152509295506121fd945050505050565b34801561074557600080fd5b50610161546102ca565b34801561075b57600080fd5b5060fc5460ff16610310565b34801561077357600080fd5b5061039f6004803603602081101561078a57600080fd5b50356001600160a01b03166122b3565b3480156107a657600080fd5b50610485600480360360208110156107bd57600080fd5b50356123aa565b3480156107d057600080fd5b5061039f600480360360408110156107e757600080fd5b506001600160a01b03813581169160200135166123d5565b34801561080b57600080fd5b5061039f6004803603602081101561082257600080fd5b50356001600160a01b03166124e1565b34801561083e57600080fd5b5061039f6004803603602081101561085557600080fd5b50356001600160a01b0316612611565b34801561087157600080fd5b5061039f612749565b34801561088657600080fd5b5061039f6004803603602081101561089d57600080fd5b50356001600160a01b03166127d8565b3480156108b957600080fd5b5061039f612834565b3480156108ce57600080fd5b50610310600480360360408110156108e557600080fd5b50803590602001356001600160a01b031661286b565b34801561090757600080fd5b506102ca6004803603602081101561091e57600080fd5b50356001600160a01b0316612896565b34801561093a57600080fd5b5061039f6004803603602081101561095157600080fd5b50356001600160a01b0316612a2d565b34801561096d57600080fd5b506102ca600081565b34801561098257600080fd5b506102ca6004803603602081101561099957600080fd5b5035612ac6565b3480156109ac57600080fd5b5061039f600480360360208110156109c357600080fd5b810190602081018135600160201b8111156109dd57600080fd5b8201836020820111156109ef57600080fd5b803590602001918460208302840111600160201b83111715610a1057600080fd5b509092509050612ae8565b348015610a2757600080fd5b5061048560048036036020811015610a3e57600080fd5b5035612b29565b348015610a5157600080fd5b5061039f60048036036040811015610a6857600080fd5b506001600160a01b038135169060200135612b3a565b348015610a8a57600080fd5b5061039f60048036036020811015610aa157600080fd5b50356001600160a01b0316612c1e565b348015610abd57600080fd5b50610aea60048036036040811015610ad457600080fd5b506001600160a01b038135169060200135612cfd565b6040805192835260208301919091528051918290030190f35b348015610b0f57600080fd5b506102ca60048036036040811015610b2657600080fd5b5061016460209081526001600160a01b0382358116600090815260408082208452929093013516825290205481565b348015610b6157600080fd5b5061031060048036036020811015610b7857600080fd5b50356001600160a01b0316612e5a565b348015610b9457600080fd5b506102ca60048036036020811015610bab57600080fd5b50356001600160a01b0316612e79565b348015610bc757600080fd5b506102ca6000805160206149e483398151915281565b348015610be957600080fd5b5061039f60048036036020811015610c0057600080fd5b50356001600160a01b0316612f26565b348015610c1c57600080fd5b5061039f60048036036040811015610c3357600080fd5b50803590602001356001600160a01b0316613037565b348015610c5557600080fd5b5061039f60048036036020811015610c6c57600080fd5b50356001600160a01b031661305d565b348015610c8857600080fd5b5061031060048036036060811015610c9f57600080fd5b506001600160a01b038135811691602081013590911690604001356130b4565b348015610ccb57600080fd5b50610163546102ca565b348015610ce157600080fd5b506102ca60048036036020811015610cf857600080fd5b50356001600160a01b03166135db565b348015610d1457600080fd5b5061016654610485906001600160a01b031681565b348015610d3557600080fd5b506102ca60048036036020811015610d4c57600080fd5b50610165602052356001600160a01b03166000908152604090205481565b600080610d7683612e79565b6001600160a01b03841660009081526101656020526040902054909150811115610dc5576001600160a01b03831660009081526101656020526040902054610dbe908261489f565b9392505050565b50600092915050565b60006001600160e01b03198216637965db0b60e01b1480610dff57506301ffc9a760e01b6001600160e01b03198316145b92915050565b610e1d6000805160206149e48339815191523361286b565b610e425760405162461bcd60e51b8152600401610e399061474d565b60405180910390fd5b8067ffffffffffffffff811115610e6957634e487b7160e01b600052604160045260246000fd5b604051908082528060200260200182016040528015610e92578160200160208202803683370190505b508051610ea89161016191602090910190614504565b5060005b81811015610f4157828282818110610ed457634e487b7160e01b600052603260045260246000fd5b905060200201356001600160a01b03166101618281548110610f0657634e487b7160e01b600052603260045260246000fd5b600091825260209091200180546001600160a01b0319166001600160a01b039290921691909117905580610f39816148f9565b915050610eac565b505050565b610f5e6000805160206149e48339815191523361286b565b610f7a5760405162461bcd60e51b8152600401610e399061474d565b60006101618481548110610f9e57634e487b7160e01b600052603260045260246000fd5b6000918252602082200154604080516334ffd04560e11b81526001600160a01b0387811660048301528681166024830152915191909216935083926369ffa08a926044808201939182900301818387803b158015610ffb57600080fd5b505af115801561100f573d6000803e3d6000fd5b5050505050505050565b6000610dff6000805160206149e48339815191528361286b565b600082815260c9602052604090206001015461104f813361377c565b610f4183836137e0565b6001600160a01b03811633146110c95760405162461bcd60e51b815260206004820152602f60248201527f416363657373436f6e74726f6c3a2063616e206f6e6c792072656e6f756e636560448201526e103937b632b9903337b91039b2b63360891b6064820152608401610e39565b6110d38282613866565b5050565b306001600160a01b037f00000000000000000000000000000000000000000000000000000000000000001614156111205760405162461bcd60e51b8152600401610e39906146b5565b7f00000000000000000000000000000000000000000000000000000000000000006001600160a01b03166111526138cd565b6001600160a01b0316146111785760405162461bcd60e51b8152600401610e3990614701565b611181816138fb565b6040805160008082526020820190925261119d9183919061392f565b50565b6111b86000805160206149e48339815191523361286b565b6111d45760405162461bcd60e51b8152600401610e399061474d565b60005b610163548110156110d3576000610163828154811061120657634e487b7160e01b600052603260045260246000fd5b60009182526020822001546001600160a01b031691506112299082908590613a7a565b61123f6001600160a01b03821684600019613a7a565b508061124a816148f9565b9150506111d7565b60fc5461010090046001600160a01b031633146112815760405162461bcd60e51b8152600401610e399061477c565b60fc5460ff166112cc5760405162461bcd60e51b815260206004820152601660248201527510dbdb9d1c9bdb1b195c8e881b9bdd081c185d5cd95960521b6044820152606401610e39565b60fc805460ff191690556040513381527f5db9ee0a495bf2e6ff9c91a7834c1ba4fdd244a5e8aa4e537bd38aeae4b073aa906020015b60405180910390a1565b60fc5460009060ff16156113325760405162461bcd60e51b8152600401610e399061481c565b8261133d3382613bd1565b8061134d575061134d3382613c63565b6113885760405162461bcd60e51b815260040180806020018281038252602f8152602001806149b5602f913960400191505060405180910390fd5b600261012f5414156113dc5760405162461bcd60e51b815260206004820152601f60248201527f5265656e7472616e637947756172643a207265656e7472616e742063616c6c006044820152606401610e39565b600261012f55838361141f5760405162461bcd60e51b8152600401808060200182810382526024815260200180614a046024913960400191505060405180910390fd5b6114293386613bd1565b61149557336000908152610164602090815260408083206001600160a01b038916845290915281208054869290611461908490614848565b90915550506001600160a01b038516600090815261016560205260408120805486929061148f908490614848565b90915550505b60016114a086612e5a565b156119875760005b61016154811080156114b75750815b156116fb57600061016182815481106114e057634e487b7160e01b600052603260045260246000fd5b60009182526020918290200154604080516261f76560e41b81526001600160a01b038c811660048301529151919092169350839263061f76509260248082019391829003018186803b15801561153557600080fd5b505afa158015611549573d6000803e3d6000fd5b505050506040513d602081101561155f57600080fd5b505161156b57506116e9565b806001600160a01b0316631fd433aa896040518263ffffffff1660e01b815260040180826001600160a01b03168152602001915050602060405180830381600087803b1580156115ba57600080fd5b505af11580156115ce573d6000803e3d6000fd5b505050506040513d60208110156115e457600080fd5b50516040805163904d326160e01b81526001600160a01b038b8116600483015291519184169163904d326191602480820192602092909190829003018186803b15801561163057600080fd5b505afa158015611644573d6000803e3d6000fd5b505050506040513d602081101561165a57600080fd5b50511161166757506116e9565b61167c6001600160a01b03851633838a613cf8565b806001600160a01b031663f340fa01896040518263ffffffff1660e01b815260040180826001600160a01b03168152602001915050600060405180830381600087803b1580156116cb57600080fd5b505af11580156116df573d6000803e3d6000fd5b5050505060009250505b806116f3816148f9565b9150506114a8565b50610161545b60008111801561170e5750815b1561198557600061016161172360018461489f565b8154811061174157634e487b7160e01b600052603260045260246000fd5b60009182526020918290200154604080516261f76560e41b81526001600160a01b038c811660048301529151919092169350839263061f76509260248082019391829003018186803b15801561179657600080fd5b505afa1580156117aa573d6000803e3d6000fd5b505050506040513d60208110156117c057600080fd5b50516117cc5750611973565b6000816001600160a01b0316631fd433aa8a6040518263ffffffff1660e01b815260040180826001600160a01b03168152602001915050602060405180830381600087803b15801561181d57600080fd5b505af1158015611831573d6000803e3d6000fd5b505050506040513d602081101561184757600080fd5b505160408051631b1fb46760e11b81526001600160a01b038c8116600483015291519293506000929185169163363f68ce91602480820192602092909190829003018186803b15801561189957600080fd5b505afa1580156118ad573d6000803e3d6000fd5b505050506040513d60208110156118c357600080fd5b505190508181116118d657505050611973565b806118e18a84614848565b11156118ef57505050611973565b6119046001600160a01b03871633858c613cf8565b826001600160a01b031663f340fa018b6040518263ffffffff1660e01b815260040180826001600160a01b03168152602001915050600060405180830381600087803b15801561195357600080fd5b505af1158015611967573d6000803e3d6000fd5b50505050600094505050505b8061197d816148e2565b915050611701565b505b80156119a2576119a26001600160a01b038316333088613cf8565b60408051868152905133916001600160a01b038916917f5c8d1f77b6233deba47b516a690497af4c7f1be42a768e331832cb02b3400d6b9181900360200190a360019350505050600161012f5592915050565b826119ff81612e5a565b611a50576040805162461bcd60e51b815260206004820152601f60248201527f41737365744d616e616765723a20746f6b656e206e6f7420737570706f727400604482015290519081900360640190fd5b611a686000805160206149e48339815191523361286b565b611a845760405162461bcd60e51b8152600401610e399061474d565b610161548490611a95846001614848565b14611ae7576040805162461bcd60e51b815260206004820152601f60248201527f41737365744d616e616765723a2070657263656e7461676573206572726f7200604482015290519081900360640190fd5b60005b61016154811015611c43576101618181548110611b1757634e487b7160e01b600052603260045260246000fd5b60009182526020918290200154604080516261f76560e41b81526001600160a01b038a811660048301529151919092169263061f76509260248082019391829003018186803b158015611b6957600080fd5b505afa158015611b7d573d6000803e3d6000fd5b505050506040513d6020811015611b9357600080fd5b5051611b9e57611c31565b6101618181548110611bc057634e487b7160e01b600052603260045260246000fd5b6000918252602082200154604080516301395c5960e31b81526001600160a01b038a81166004830152306024830152915191909216926309cae2c8926044808201939182900301818387803b158015611c1857600080fd5b505af1158015611c2c573d6000803e3d6000fd5b505050505b80611c3b816148f9565b915050611aea565b506000816001600160a01b03166370a08231306040518263ffffffff1660e01b815260040180826001600160a01b0316815260200191505060206040518083038186803b158015611c9357600080fd5b505afa158015611ca7573d6000803e3d6000fd5b505050506040513d6020811015611cbd57600080fd5b5051905060005b84811015611ea7576101618181548110611cee57634e487b7160e01b600052603260045260246000fd5b60009182526020918290200154604080516261f76560e41b81526001600160a01b038b811660048301529151919092169263061f76509260248082019391829003018186803b158015611d4057600080fd5b505afa158015611d54573d6000803e3d6000fd5b505050506040513d6020811015611d6a57600080fd5b5051611d7557611e95565b6000612710878784818110611d9a57634e487b7160e01b600052603260045260246000fd5b9050602002013584611dac9190614880565b611db69190614860565b905080611dc35750611e95565b611e076101618381548110611de857634e487b7160e01b600052603260045260246000fd5b6000918252602090912001546001600160a01b03868116911683613d30565b6101618281548110611e2957634e487b7160e01b600052603260045260246000fd5b60009182526020822001546040805163f340fa0160e01b81526001600160a01b038c811660048301529151919092169263f340fa01926024808201939182900301818387803b158015611e7b57600080fd5b505af1158015611e8f573d6000803e3d6000fd5b50505050505b80611e9f816148f9565b915050611cc4565b506000826001600160a01b03166370a08231306040518263ffffffff1660e01b815260040180826001600160a01b0316815260200191505060206040518083038186803b158015611ef757600080fd5b505afa158015611f0b573d6000803e3d6000fd5b505050506040513d6020811015611f2157600080fd5b5051610161805491925090611f389060019061489f565b81548110611f5657634e487b7160e01b600052603260045260246000fd5b60009182526020918290200154604080516261f76560e41b81526001600160a01b038b811660048301529151919092169263061f76509260248082019391829003018186803b158015611fa857600080fd5b505afa158015611fbc573d6000803e3d6000fd5b505050506040513d6020811015611fd257600080fd5b50518015611fe05750600081115b156120d25761016180546120389190611ffb9060019061489f565b8154811061201957634e487b7160e01b600052603260045260246000fd5b6000918252602090912001546001600160a01b03858116911683613d30565b61016180546120499060019061489f565b8154811061206757634e487b7160e01b600052603260045260246000fd5b60009182526020822001546040805163f340fa0160e01b81526001600160a01b038b811660048301529151919092169263f340fa01926024808201939182900301818387803b1580156120b957600080fd5b505af11580156120cd573d6000803e3d6000fd5b505050505b604080516370a0823160e01b815230600482015290516001600160a01b038516916370a08231916024808301926020929190829003018186803b15801561211857600080fd5b505afa15801561212c573d6000803e3d6000fd5b505050506040513d602081101561214257600080fd5b5051156121805760405162461bcd60e51b81526004018080602001828103825260388152602001806149576038913960400191505060405180910390fd5b7f533315164704ded1aa86acf715b7aaf2c43680da34563ff042e27a574d42814f87878760405180846001600160a01b03168152602001806020018281038252848482818152602001925060200280828437600083820152604051601f909101601f1916909201829003965090945050505050a150505050505050565b306001600160a01b037f00000000000000000000000000000000000000000000000000000000000000001614156122465760405162461bcd60e51b8152600401610e39906146b5565b7f00000000000000000000000000000000000000000000000000000000000000006001600160a01b03166122786138cd565b6001600160a01b03161461229e5760405162461bcd60e51b8152600401610e3990614701565b6122a7826138fb565b6110d38282600161392f565b6122cb6000805160206149e48339815191523361286b565b6122e75760405162461bcd60e51b8152600401610e399061474d565b6000805b6101615481101561234e57610161818154811061231857634e487b7160e01b600052603260045260246000fd5b6000918252602090912001546001600160a01b038481169116141561233c57600191505b80612346816148f9565b9150506122eb565b50806123a15761016180546001810182556000919091527fafbb1c043347995df017ce3291b765e028ad5f784d2aa00c3f5e073760a4de8b0180546001600160a01b0319166001600160a01b0384161790555b6110d3826111a0565b61016381815481106123bb57600080fd5b6000918252602090912001546001600160a01b0316905081565b6123ed6000805160206149e48339815191523361286b565b6124095760405162461bcd60e51b8152600401610e399061474d565b6001600160a01b03811661244e5760405162461bcd60e51b815260040180806020018281038252602681526020018061498f6026913960400191505060405180910390fd5b604080516370a0823160e01b8152306004820152905183916000916001600160a01b038416916370a08231916024808301926020929190829003018186803b15801561249957600080fd5b505afa1580156124ad573d6000803e3d6000fd5b505050506040513d60208110156124c357600080fd5b505190506124db6001600160a01b0383168483613d30565b50505050565b600054610100900460ff16806124fa575060005460ff16155b6125165760405162461bcd60e51b8152600401610e39906147ce565b600054610100900460ff16158015612538576000805461ffff19166101011790555b6001600160a01b0382166125895760405162461bcd60e51b8152602060048201526018602482015277436f6e74726f6c6c65723a2061646472657373207a65726f60401b6044820152606401610e39565b60fc805460ff191690556001600160a01b038216600081815260fb6020526040902080546001600160a01b03191690911790556125c4613d60565b6125dc6000805160206149e483398151915283613ddb565b60fc8054610100600160a81b0319166101006001600160a01b0385160217905580156110d3576000805461ff00191690555050565b6126296000805160206149e48339815191523361286b565b6126455760405162461bcd60e51b8152600401610e399061474d565b6001600160a01b0381166126965760405162461bcd60e51b8152602060048201526018602482015277436f6e74726f6c6c65723a2061646472657373207a65726f60401b6044820152606401610e39565b6001600160a01b03818116600090815260fb602052604090205416156127085760405162461bcd60e51b815260206004820152602160248201527f436f6e74726f6c6c65723a2061646d696e20616c7265616479206578697374656044820152601960fa1b6064820152608401610e39565b6001600160a01b038116600081815260fb6020526040902080546001600160a01b031916909117905561119d6000805160206149e483398151915282613ddb565b60fc5461010090046001600160a01b031633146127785760405162461bcd60e51b8152600401610e399061477c565b60fc5460ff161561279b5760405162461bcd60e51b8152600401610e399061481c565b60fc805460ff191660011790556040513381527f62e78cea01bee320cd4e420270b5ea74000d11b0c9f74754ebdbfc544b05a25890602001611302565b6127f06000805160206149e48339815191523361286b565b61280c5760405162461bcd60e51b8152600401610e399061474d565b60fc80546001600160a01b0390921661010002610100600160a81b0319909216919091179055565b61284c6000805160206149e483398151915233611059565b33600090815260fb6020526040902080546001600160a01b0319169055565b600091825260c9602090815260408084206001600160a01b0393909316845291905290205460ff1690565b60006128a182612e5a565b15612a25576000805b61016154811015612a1e5761016181815481106128d757634e487b7160e01b600052603260045260246000fd5b60009182526020918290200154604080516261f76560e41b81526001600160a01b0388811660048301529151919092169263061f76509260248082019391829003018186803b15801561292957600080fd5b505afa15801561293d573d6000803e3d6000fd5b505050506040513d602081101561295357600080fd5b505161295e57612a0c565b610161818154811061298057634e487b7160e01b600052603260045260246000fd5b6000918252602091829020015460408051633b62879560e21b81526001600160a01b0388811660048301529151919092169263ed8a1e549260248082019391829003018186803b1580156129d357600080fd5b505afa1580156129e7573d6000803e3d6000fd5b505050506040513d60208110156129fd57600080fd5b5051612a099083614848565b91505b80612a16816148f9565b9150506128aa565b5092915050565b506000919050565b600054610100900460ff1680612a46575060005460ff16155b612a625760405162461bcd60e51b8152600401610e39906147ce565b600054610100900460ff16158015612a84576000805461ffff19166101011790555b612a8d336124e1565b612a95613de5565b61016680546001600160a01b0319166001600160a01b03841617905580156110d3576000805461ff00191690555050565b6101678181548110612ad757600080fd5b600091825260209091200154905081565b612b006000805160206149e48339815191523361286b565b612b1c5760405162461bcd60e51b8152600401610e399061474d565b610f416101678383614569565b61016181815481106123bb57600080fd5b336000908152610164602090815260408083206001600160a01b0386168452909152902054811115612bb3576040805162461bcd60e51b815260206004820181905260248201527f41737365744d616e616765723a2062616c616e6365206e6f7420656e6f756768604482015290519081900360640190fd5b336000908152610164602090815260408083206001600160a01b038616845290915281208054839290612be790849061489f565b90915550506001600160a01b0382166000908152610165602052604081208054839290612c1590849061489f565b90915550505050565b612c366000805160206149e48339815191523361286b565b612c525760405162461bcd60e51b8152600401610e399061474d565b8060005b61016154811015610f4157612ca56101618281548110612c8657634e487b7160e01b600052603260045260246000fd5b60009182526020822001546001600160a01b0385811692911690613a7a565b612ceb6101618281548110612cca57634e487b7160e01b600052603260045260246000fd5b6000918252602090912001546001600160a01b038481169116600019613a7a565b80612cf5816148f9565b915050612c56565b6000806101618381548110612d2257634e487b7160e01b600052603260045260246000fd5b60009182526020918290200154604080516337cef79160e01b81526001600160a01b038881166004830152915191909216926337cef7919260248082019391829003018186803b158015612d7557600080fd5b505afa158015612d89573d6000803e3d6000fd5b505050506040513d6020811015612d9f57600080fd5b505161016180549193509084908110612dc857634e487b7160e01b600052603260045260246000fd5b6000918252602091829020015460408051633b62879560e21b81526001600160a01b0388811660048301529151919092169263ed8a1e549260248082019391829003018186803b158015612e1b57600080fd5b505afa158015612e2f573d6000803e3d6000fd5b505050506040513d6020811015612e4557600080fd5b5051612e519082614848565b90509250929050565b6001600160a01b03166000908152610162602052604090205460ff1690565b6000808290506000816001600160a01b03166370a08231306040518263ffffffff1660e01b815260040180826001600160a01b0316815260200191505060206040518083038186803b158015612ece57600080fd5b505afa158015612ee2573d6000803e3d6000fd5b505050506040513d6020811015612ef857600080fd5b50519050612f0584612e5a565b15610dbe5780612f1485612896565b612f1e9190614848565b949350505050565b612f3e6000805160206149e48339815191523361286b565b612f5a5760405162461bcd60e51b8152600401610e399061474d565b6001600160a01b0381166000908152610162602052604090205460ff1615612fc9576040805162461bcd60e51b815260206004820152601c60248201527f41737365744d616e616765723a20746f6b656e20697320657869737400000000604482015290519081900360640190fd5b610163805460018082019092557fb0f3e90519fd0de3100ca1a24094c0a25e5cbf467d74a2603172b5a5204555b30180546001600160a01b0319166001600160a01b038416908117909155600090815261016260205260409020805460ff1916909117905561119d81612c1e565b600082815260c96020526040902060010154613053813361377c565b610f418383613866565b6130756000805160206149e48339815191523361286b565b6130915760405162461bcd60e51b8152600401610e399061474d565b61016680546001600160a01b0319166001600160a01b0392909216919091179055565b60fc5460009060ff16156130da5760405162461bcd60e51b8152600401610e399061481c565b600261012f54141561312e5760405162461bcd60e51b815260206004820152601f60248201527f5265656e7472616e637947756172643a207265656e7472616e742063616c6c006044820152606401610e39565b600261012f558361313f3382613bd1565b8061314f575061314f3382613c63565b61318a5760405162461bcd60e51b815260040180806020018281038252602f8152602001806149b5602f913960400191505060405180910390fd5b613195338685613e44565b6131d05760405162461bcd60e51b815260040180806020018281038252602c81526020018061492b602c913960400191505060405180910390fd5b604080516370a0823160e01b8152306004820152905184916000916001600160a01b038916916370a08231916024808301926020929190829003018186803b15801561321b57600080fd5b505afa15801561322f573d6000803e3d6000fd5b505050506040513d602081101561324557600080fd5b50519050801561328457600082821061325e5782613260565b815b905061326c818461489f565b92506132826001600160a01b0389168883613d30565b505b61328d87612e5a565b156134c95760005b61016754811080156132a75750600083115b156134c757600061016161016783815481106132d357634e487b7160e01b600052603260045260246000fd5b9060005260206000200154815481106132fc57634e487b7160e01b600052603260045260246000fd5b60009182526020918290200154604080516261f76560e41b81526001600160a01b038d811660048301529151919092169350839263061f76509260248082019391829003018186803b15801561335157600080fd5b505afa158015613365573d6000803e3d6000fd5b505050506040513d602081101561337b57600080fd5b505161338757506134b5565b6000816001600160a01b0316631fd433aa8b6040518263ffffffff1660e01b815260040180826001600160a01b03168152602001915050602060405180830381600087803b1580156133d857600080fd5b505af11580156133ec573d6000803e3d6000fd5b505050506040513d602081101561340257600080fd5b50519050806134125750506134b5565b60008582106134215785613423565b815b905061342f818761489f565b9550826001600160a01b031663d9caed128c8c846040518463ffffffff1660e01b815260040180846001600160a01b03168152602001836001600160a01b031681526020018281526020019350505050600060405180830381600087803b15801561349957600080fd5b505af11580156134ad573d6000803e3d6000fd5b505050505050505b806134bf816148f9565b915050613295565b505b6134d33388613bd1565b61357457336000908152610164602090815260408083206001600160a01b038b168452909152902054829061350990879061489f565b6135139190614848565b336000908152610164602090815260408083206001600160a01b038c16845282528083209390935561016590522054829061354f90879061489f565b6135599190614848565b6001600160a01b038816600090815261016560205260409020555b856001600160a01b0316876001600160a01b03167f74217ce088f00bfd283666b763c64f0d1b1c345591dfdd01891dddf52446694e8785604051808381526020018281526020019250505060405180910390a360019350505050600161012f559392505050565b60006135e682612e5a565b15612a25576000805b61016154811015612a1e57610161818154811061361c57634e487b7160e01b600052603260045260246000fd5b60009182526020918290200154604080516261f76560e41b81526001600160a01b0388811660048301529151919092169263061f76509260248082019391829003018186803b15801561366e57600080fd5b505afa158015613682573d6000803e3d6000fd5b505050506040513d602081101561369857600080fd5b50516136a35761376a565b61016181815481106136c557634e487b7160e01b600052603260045260246000fd5b9060005260206000200160009054906101000a90046001600160a01b03166001600160a01b0316631fd433aa856040518263ffffffff1660e01b815260040180826001600160a01b03168152602001915050602060405180830381600087803b15801561373157600080fd5b505af1158015613745573d6000803e3d6000fd5b505050506040513d602081101561375b57600080fd5b50516137679083614848565b91505b80613774816148f9565b9150506135ef565b613786828261286b565b6110d35761379e816001600160a01b03166014613e9a565b6137a9836020613e9a565b6040516020016137ba92919061460d565b60408051601f198184030181529082905262461bcd60e51b8252610e3991600401614682565b6137ea828261286b565b6110d357600082815260c9602090815260408083206001600160a01b03851684529091529020805460ff191660011790556138223390565b6001600160a01b0316816001600160a01b0316837f2f8788117e7eff1d82e926ec794901d17c78024a50270940304540a733656f0d60405160405180910390a45050565b613870828261286b565b156110d357600082815260c9602090815260408083206001600160a01b0385168085529252808320805460ff1916905551339285917ff6391f5c32d9c69d2a47ea670b442974b53935d1edc7fd64eb21e047a839171b9190a45050565b7f360894a13ba1a3210667c828492db98dca3e2076cc3735a920a3ca505d382bbc546001600160a01b031690565b6139136000805160206149e48339815191523361286b565b61119d5760405162461bcd60e51b8152600401610e399061474d565b60006139396138cd565b90506139448461407c565b6000835111806139515750815b15613962576139608484614121565b505b7f4910fdfa16fed3260ed0e7147f7cc6da11a60208b5b9406d12a635614ffd9143805460ff16613a7357805460ff191660011781556040516001600160a01b03831660248201526139e190869060440160408051601f198184030181529190526020810180516001600160e01b0316631b2ce7f360e11b179052614121565b50805460ff191681556139f26138cd565b6001600160a01b0316826001600160a01b031614613a6a5760405162461bcd60e51b815260206004820152602f60248201527f45524331393637557067726164653a207570677261646520627265616b73206660448201526e75727468657220757067726164657360881b6064820152608401610e39565b613a738561420c565b5050505050565b801580613b035750604051636eb1769f60e11b81523060048201526001600160a01b03838116602483015284169063dd62ed3e9060440160206040518083038186803b158015613ac957600080fd5b505afa158015613add573d6000803e3d6000fd5b505050506040513d601f19601f82011682018060405250810190613b0191906145d9565b155b613b6e5760405162461bcd60e51b815260206004820152603660248201527f5361666545524332303a20617070726f76652066726f6d206e6f6e2d7a65726f60448201527520746f206e6f6e2d7a65726f20616c6c6f77616e636560501b6064820152608401610e39565b6040516001600160a01b038316602482015260448101829052610f4190849063095ea7b360e01b906064015b60408051601f198184030181529190526020810180516001600160e01b03166001600160e01b03199093169290921790915261424c565b610166546040805163e486033960e01b81526001600160a01b0384811660048301528251600094859492169263e4860339926024808301939192829003018186803b158015613c1f57600080fd5b505afa158015613c33573d6000803e3d6000fd5b505050506040513d6040811015613c4957600080fd5b50516001600160a01b039081169085161491505092915050565b610166546040805163e486033960e01b81526001600160a01b0384811660048301528251600094859492169263e4860339926024808301939192829003018186803b158015613cb157600080fd5b505afa158015613cc5573d6000803e3d6000fd5b505050506040513d6040811015613cdb57600080fd5b50602001516001600160a01b039081169085161491505092915050565b6040516001600160a01b03808516602483015283166044820152606481018290526124db9085906323b872dd60e01b90608401613b9a565b6040516001600160a01b038316602482015260448101829052610f4190849063a9059cbb60e01b90606401613b9a565b600054610100900460ff1680613d79575060005460ff16155b613d955760405162461bcd60e51b8152600401610e39906147ce565b600054610100900460ff16158015613db7576000805461ffff19166101011790555b613dbf61431e565b613dc761431e565b801561119d576000805461ff001916905550565b6110d382826137e0565b600054610100900460ff1680613dfe575060005460ff16155b613e1a5760405162461bcd60e51b8152600401610e39906147ce565b600054610100900460ff16158015613e3c576000805461ffff19166101011790555b613dc7614388565b6000613e508484613bd1565b15613e685781613e5f84610d6a565b10159050610dbe565b506001600160a01b03808416600090815261016460209081526040808320938616835292905220548111159392505050565b60606000613ea9836002614880565b613eb4906002614848565b67ffffffffffffffff811115613eda57634e487b7160e01b600052604160045260246000fd5b6040519080825280601f01601f191660200182016040528015613f04576020820181803683370190505b509050600360fc1b81600081518110613f2d57634e487b7160e01b600052603260045260246000fd5b60200101906001600160f81b031916908160001a905350600f60fb1b81600181518110613f6a57634e487b7160e01b600052603260045260246000fd5b60200101906001600160f81b031916908160001a9053506000613f8e846002614880565b613f99906001614848565b90505b600181111561402d576f181899199a1a9b1b9c1cb0b131b232b360811b85600f1660108110613fdb57634e487b7160e01b600052603260045260246000fd5b1a60f81b828281518110613fff57634e487b7160e01b600052603260045260246000fd5b60200101906001600160f81b031916908160001a90535060049490941c93614026816148e2565b9050613f9c565b508315610dbe5760405162461bcd60e51b815260206004820181905260248201527f537472696e67733a20686578206c656e67746820696e73756666696369656e746044820152606401610e39565b803b6140e05760405162461bcd60e51b815260206004820152602d60248201527f455243313936373a206e657720696d706c656d656e746174696f6e206973206e60448201526c1bdd08184818dbdb9d1c9858dd609a1b6064820152608401610e39565b7f360894a13ba1a3210667c828492db98dca3e2076cc3735a920a3ca505d382bbc80546001600160a01b0319166001600160a01b0392909216919091179055565b6060823b6141805760405162461bcd60e51b815260206004820152602660248201527f416464726573733a2064656c65676174652063616c6c20746f206e6f6e2d636f6044820152651b9d1c9858dd60d21b6064820152608401610e39565b600080846001600160a01b03168460405161419b91906145f1565b600060405180830381855af49150503d80600081146141d6576040519150601f19603f3d011682016040523d82523d6000602084013e6141db565b606091505b50915091506142038282604051806060016040528060278152602001614a28602791396143f9565b95945050505050565b6142158161407c565b6040516001600160a01b038216907fbc7cd75a20ee27fd9adebab32041f755214dbc6bffa90cc0225b39da2e5c2d3b90600090a250565b60006142a1826040518060400160405280602081526020017f5361666545524332303a206c6f772d6c6576656c2063616c6c206661696c6564815250856001600160a01b03166144329092919063ffffffff16565b805190915015610f4157808060200190518101906142bf91906145b9565b610f415760405162461bcd60e51b815260206004820152602a60248201527f5361666545524332303a204552433230206f7065726174696f6e20646964206e6044820152691bdd081cdd58d8d9595960b21b6064820152608401610e39565b600054610100900460ff1680614337575060005460ff16155b6143535760405162461bcd60e51b8152600401610e39906147ce565b600054610100900460ff16158015613dc7576000805461ffff1916610101179055801561119d576000805461ff001916905550565b600054610100900460ff16806143a1575060005460ff16155b6143bd5760405162461bcd60e51b8152600401610e39906147ce565b600054610100900460ff161580156143df576000805461ffff19166101011790555b600161012f55801561119d576000805461ff001916905550565b60608315614408575081610dbe565b8251156144185782518084602001fd5b8160405162461bcd60e51b8152600401610e399190614682565b6060612f1e848460008585843b61448b5760405162461bcd60e51b815260206004820152601d60248201527f416464726573733a2063616c6c20746f206e6f6e2d636f6e74726163740000006044820152606401610e39565b600080866001600160a01b031685876040516144a791906145f1565b60006040518083038185875af1925050503d80600081146144e4576040519150601f19603f3d011682016040523d82523d6000602084013e6144e9565b606091505b50915091506144f98282866143f9565b979650505050505050565b828054828255906000526020600020908101928215614559579160200282015b8281111561455957825182546001600160a01b0319166001600160a01b03909116178255602090920191600190910190614524565b506145659291506145a4565b5090565b828054828255906000526020600020908101928215614559579160200282015b82811115614559578235825591602001919060010190614589565b5b8082111561456557600081556001016145a5565b6000602082840312156145ca578081fd5b81518015158114610dbe578182fd5b6000602082840312156145ea578081fd5b5051919050565b600082516146038184602087016148b6565b9190910192915050565b7f416363657373436f6e74726f6c3a206163636f756e74200000000000000000008152600083516146458160178501602088016148b6565b7001034b99036b4b9b9b4b733903937b6329607d1b60179184019182015283516146768160288401602088016148b6565b01602801949350505050565b60208152600082518060208401526146a18160408501602087016148b6565b601f01601f19169190910160400192915050565b6020808252602c908201527f46756e6374696f6e206d7573742062652063616c6c6564207468726f7567682060408201526b19195b1959d85d1958d85b1b60a21b606082015260800190565b6020808252602c908201527f46756e6374696f6e206d7573742062652063616c6c6564207468726f7567682060408201526b6163746976652070726f787960a01b606082015260800190565b60208082526015908201527421b7b73a3937b63632b91d103737ba1030b236b4b760591b604082015260600190565b60208082526032908201527f436f6e74726f6c6c65723a2063616c6c657220646f6573206e6f7420686176656040820152712074686520677561726469616e20726f6c6560701b606082015260800190565b6020808252602e908201527f496e697469616c697a61626c653a20636f6e747261637420697320616c72656160408201526d191e481a5b9a5d1a585b1a5e995960921b606082015260800190565b60208082526012908201527110dbdb9d1c9bdb1b195c8e881c185d5cd95960721b604082015260600190565b6000821982111561485b5761485b614914565b500190565b60008261487b57634e487b7160e01b81526012600452602481fd5b500490565b600081600019048311821515161561489a5761489a614914565b500290565b6000828210156148b1576148b1614914565b500390565b60005b838110156148d15781810151838201526020016148b9565b838111156124db5750506000910152565b6000816148f1576148f1614914565b506000190190565b600060001982141561490d5761490d614914565b5060010190565b634e487b7160e01b600052601160045260246000fdfe41737365744d616e616765723a2062616c616e6365206e6f7420656e6f75676820746f20776974686472617741737365744d616e616765723a207468657265206172652072656d61696e696e672066756e647320696e207468652066756e6420706f6f6c417373744d616e616765723a20726563697069656e742063616e206e6f74206265207a65726f41737365744d616e616765723a2073656e646572206d7573742075546f6b656e206f7220757365724d616e616765722172861495e7b85edac73e3cd5fbb42dd675baadf627720e687bcfdaca02509641737365744d616e616765723a20616d6f756e742063616e206e6f74206265207a65726f416464726573733a206c6f772d6c6576656c2064656c65676174652063616c6c206661696c6564a2646970667358221220bd2ed81f74c9507046c3bc7ed4df315cf44a988ea74e79d831254fa6c34182bb64736f6c63430008040033",
  "linkReferences": {},
  "deployedLinkReferences": {}
}