{
  "_format": "hh-sol-artifact-1",
  "contractName": "MockChainlinkFeed",
  "sourceName": "contracts/mocks/MockChainlinkFeed.sol",
  "abi": [
    {
      "inputs": [
        {
          "internalType": "uint8",
          "name": "_decimals",
          "type": "uint8"
        },
        {
          "internalType": "uint256",
          "name": "_price",
          "type": "uint256"
        },
        {
          "internalType": "string",
          "name": "_description",
          "type": "string"
        }
      ],
      "stateMutability": "nonpayable",
      "type": "constructor"
    },
    {
      "anonymous": false,
      "inputs": [
        {
          "indexed": true,
          "internalType": "address",
          "name": "previousOwner",
          "type": "address"
        },
        {
          "indexed": true,
          "internalType": "address",
          "name": "newOwner",
          "type": "address"
        }
      ],
      "name": "OwnershipTransferred",
      "type": "event"
    },
    {
      "inputs": [],
      "name": "decimals",
      "outputs": [
        {
          "internalType": "uint8",
          "name": "",
          "type": "uint8"
        }
      ],
      "stateMutability": "view",
      "type": "function"
    },
    {
      "inputs": [],
      "name": "description",
      "outputs": [
        {
          "internalType": "string",
          "name": "",
          "type": "string"
        }
      ],
      "stateMutability": "view",
      "type": "function"
    },
    {
      "inputs": [
        {
          "internalType": "uint80",
          "name": "_roundId",
          "type": "uint80"
        }
      ],
      "name": "getRoundData",
      "outputs": [
        {
          "internalType": "uint80",
          "name": "roundId",
          "type": "uint80"
        },
        {
          "internalType": "int256",
          "name": "answer",
          "type": "int256"
        },
        {
          "internalType": "uint256",
          "name": "startedAt",
          "type": "uint256"
        },
        {
          "internalType": "uint256",
          "name": "updatedAt",
          "type": "uint256"
        },
        {
          "internalType": "uint80",
          "name": "answeredInRound",
          "type": "uint80"
        }
      ],
      "stateMutability": "view",
      "type": "function"
    },
    {
      "inputs": [],
      "name": "latestRoundData",
      "outputs": [
        {
          "internalType": "uint80",
          "name": "roundId",
          "type": "uint80"
        },
        {
          "internalType": "int256",
          "name": "answer",
          "type": "int256"
        },
        {
          "internalType": "uint256",
          "name": "startedAt",
          "type": "uint256"
        },
        {
          "internalType": "uint256",
          "name": "updatedAt",
          "type": "uint256"
        },
        {
          "internalType": "uint80",
          "name": "answeredInRound",
          "type": "uint80"
        }
      ],
      "stateMutability": "view",
      "type": "function"
    },
    {
      "inputs": [],
      "name": "owner",
      "outputs": [
        {
          "internalType": "address",
          "name": "",
          "type": "address"
        }
      ],
      "stateMutability": "view",
      "type": "function"
    },
    {
      "inputs": [],
      "name": "renounceOwnership",
      "outputs": [],
      "stateMutability": "nonpayable",
      "type": "function"
    },
    {
      "inputs": [
        {
          "internalType": "uint256",
          "name": "price",
          "type": "uint256"
        }
      ],
      "name": "setLatestPrice",
      "outputs": [],
      "stateMutability": "nonpayable",
      "type": "function"
    },
    {
      "inputs": [
        {
          "internalType": "address",
          "name": "newOwner",
          "type": "address"
        }
      ],
      "name": "transferOwnership",
      "outputs": [],
      "stateMutability": "nonpayable",
      "type": "function"
    },
    {
      "inputs": [],
      "name": "version",
      "outputs": [
        {
          "internalType": "uint256",
          "name": "",
          "type": "uint256"
        }
      ],
      "stateMutability": "view",
      "type": "function"
    }
  ],
  "bytecode": "0x60806040526003805534801561001457600080fd5b506040516107f63803806107f68339818101604052606081101561003757600080fd5b8151602083015160408085018051915193959294830192918464010000000082111561006257600080fd5b90830190602082018581111561007757600080fd5b825164010000000081118282018810171561009157600080fd5b82525081516020918201929091019080838360005b838110156100be5781810151838201526020016100a6565b50505050905090810190601f1680156100eb5780820380516001836020036101000a031916815260200191505b50604052505050600061010261017c60201b60201c565b600080546001600160a01b0319166001600160a01b0383169081178255604051929350917f8be0079c531659141344cd1fd0a4f28419497f9722a3daafe3b4186f6b6457e0908290a3506004805460ff191660ff851617905560018290558051610173906002906020840190610180565b50505050610213565b3390565b828054600181600116156101000203166002900490600052602060002090601f016020900481019282601f106101c157805160ff19168380011785556101ee565b828001600101855582156101ee579182015b828111156101ee5782518255916020019190600101906101d3565b506101fa9291506101fe565b5090565b5b808211156101fa57600081556001016101ff565b6105d4806102226000396000f3fe608060405234801561001057600080fd5b50600436106100935760003560e01c80638da5cb5b116100665780638da5cb5b146101575780639a6fc8f51461017b578063f2fde38b146101ee578063fc9bb7fe14610214578063feaf968c1461023157610093565b8063313ce5671461009857806354fd4d50146100b6578063715018a6146100d05780637284e416146100da575b600080fd5b6100a0610239565b6040805160ff9092168252519081900360200190f35b6100be610242565b60408051918252519081900360200190f35b6100d8610248565b005b6100e2610306565b6040805160208082528351818301528351919283929083019185019080838360005b8381101561011c578181015183820152602001610104565b50505050905090810190601f1680156101495780820380516001836020036101000a031916815260200191505b509250505060405180910390f35b61015f610391565b604080516001600160a01b039092168252519081900360200190f35b6101a46004803603602081101561019157600080fd5b503569ffffffffffffffffffff166103a0565b604051808669ffffffffffffffffffff1681526020018581526020018481526020018381526020018269ffffffffffffffffffff1681526020019550505050505060405180910390f35b6100d86004803603602081101561020457600080fd5b50356001600160a01b03166103b5565b6100d86004803603602081101561022a57600080fd5b50356104c9565b6101a4610562565b60045460ff1681565b60035481565b610250610574565b6001600160a01b0316610261610391565b6001600160a01b0316146102bc576040805162461bcd60e51b815260206004820181905260248201527f4f776e61626c653a2063616c6c6572206973206e6f7420746865206f776e6572604482015290519081900360640190fd5b600080546040516001600160a01b03909116907f8be0079c531659141344cd1fd0a4f28419497f9722a3daafe3b4186f6b6457e0908390a3600080546001600160a01b0319169055565b6002805460408051602060018416156101000260001901909316849004601f810184900484028201840190925281815292918301828280156103895780601f1061035e57610100808354040283529160200191610389565b820191906000526020600020905b81548152906001019060200180831161036c57829003601f168201915b505050505081565b6000546001600160a01b031690565b6001549091635f36ba2f90635f3ae4fc908490565b6103bd610574565b6001600160a01b03166103ce610391565b6001600160a01b031614610429576040805162461bcd60e51b815260206004820181905260248201527f4f776e61626c653a2063616c6c6572206973206e6f7420746865206f776e6572604482015290519081900360640190fd5b6001600160a01b03811661046e5760405162461bcd60e51b81526004018080602001828103825260268152602001806105796026913960400191505060405180910390fd5b600080546040516001600160a01b03808516939216917f8be0079c531659141344cd1fd0a4f28419497f9722a3daafe3b4186f6b6457e091a3600080546001600160a01b0319166001600160a01b0392909216919091179055565b6104d1610574565b6001600160a01b03166104e2610391565b6001600160a01b03161461053d576040805162461bcd60e51b815260206004820181905260248201527f4f776e61626c653a2063616c6c6572206973206e6f7420746865206f776e6572604482015290519081900360640190fd5b63068efa5c811161054d57600080fd5b6307c0275c811061055d57600080fd5b600155565b600154606591635f36ba2f9042908490565b339056fe4f776e61626c653a206e6577206f776e657220697320746865207a65726f2061646472657373a26469706673582212206898c213a7db0406b1206d75f420a5a84843e946fa21ac7e12037340e9364c6664736f6c634300060c0033",
  "linkReferences": {},
  "deployedLinkReferences": {}
}