{
  "_format": "hh-sol-artifact-1",
  "contractName": "MinterMock",
  "sourceName": "contracts/mocks/MinterMock.sol",
  "abi": [
    {
      "inputs": [],
      "stateMutability": "nonpayable",
      "type": "constructor"
    },
    {
      "inputs": [
        {
          "internalType": "address",
          "name": "_tokenOut",
          "type": "address"
        },
        {
          "internalType": "uint256",
          "name": "_amountOut",
          "type": "uint256"
        }
      ],
      "name": "emergency_mint",
      "outputs": [],
      "stateMutability": "nonpayable",
      "type": "function"
    }
  ],
  "bytecode": "0x608060405234801561001057600080fd5b5061010c806100206000396000f3fe6080604052348015600f57600080fd5b506004361060285760003560e01c8063c14626d314602d575b600080fd5b603c603836600460a0565b603e565b005b6040516340c10f1960e01b8152336004820152602481018290526001600160a01b038316906340c10f1990604401600060405180830381600087803b158015608557600080fd5b505af11580156098573d6000803e3d6000fd5b505050505050565b6000806040838503121560b257600080fd5b82356001600160a01b038116811460c857600080fd5b94602093909301359350505056fea264697066735822122057c8d338f0b41af55a9fe2c1b8fe296b326f8c0376e9cddca92746e4ae0cd0cf64736f6c63430008070033",
  "linkReferences": {},
  "deployedLinkReferences": {}
}