{"abi":[{"type":"function","name":"CONTRACT_GOVERNANCE_ROLE","inputs":[],"outputs":[{"name":"","type":"bytes32","internalType":"bytes32"}],"stateMutability":"view"},{"type":"function","name":"PAUSER_ROLE","inputs":[],"outputs":[{"name":"","type":"bytes32","internalType":"bytes32"}],"stateMutability":"view"},{"type":"function","name":"TECH_OPERATIONS_ROLE","inputs":[],"outputs":[{"name":"","type":"bytes32","internalType":"bytes32"}],"stateMutability":"view"},{"type":"function","name":"TREASURY_GOVERNANCE_ROLE","inputs":[],"outputs":[{"name":"","type":"bytes32","internalType":"bytes32"}],"stateMutability":"view"},{"type":"function","name":"TREASURY_OPERATIONS_ROLE","inputs":[],"outputs":[{"name":"","type":"bytes32","internalType":"bytes32"}],"stateMutability":"view"},{"type":"function","name":"UNPAUSER_ROLE","inputs":[],"outputs":[{"name":"","type":"bytes32","internalType":"bytes32"}],"stateMutability":"view"},{"type":"function","name":"__GlobalAccessControlManaged_init","inputs":[{"name":"_globalAccessControl","type":"address","internalType":"address"}],"outputs":[],"stateMutability":"nonpayable"},{"type":"function","name":"boughtAmounts","inputs":[{"name":"","type":"address","internalType":"address"}],"outputs":[{"name":"","type":"uint256","internalType":"uint256"}],"stateMutability":"view"},{"type":"function","name":"buy","inputs":[{"name":"_tokenInAmount","type":"uint256","internalType":"uint256"},{"name":"_daoId","type":"uint8","internalType":"uint8"},{"name":"_proof","type":"bytes32[]","internalType":"bytes32[]"}],"outputs":[{"name":"tokenOutAmount_","type":"uint256","internalType":"uint256"}],"stateMutability":"nonpayable"},{"type":"function","name":"claim","inputs":[],"outputs":[{"name":"tokenOutAmount_","type":"uint256","internalType":"uint256"}],"stateMutability":"nonpayable"},{"type":"function","name":"daoCommitments","inputs":[{"name":"","type":"uint8","internalType":"uint8"}],"outputs":[{"name":"","type":"uint256","internalType":"uint256"}],"stateMutability":"view"},{"type":"function","name":"daoVotedFor","inputs":[{"name":"","type":"address","internalType":"address"}],"outputs":[{"name":"","type":"uint8","internalType":"uint8"}],"stateMutability":"view"},{"type":"function","name":"finalize","inputs":[],"outputs":[],"stateMutability":"nonpayable"},{"type":"function","name":"finalized","inputs":[],"outputs":[{"name":"","type":"bool","internalType":"bool"}],"stateMutability":"view"},{"type":"function","name":"gac","inputs":[],"outputs":[{"name":"","type":"address","internalType":"contract IGac"}],"stateMutability":"view"},{"type":"function","name":"getAmountOut","inputs":[{"name":"_tokenInAmount","type":"uint256","internalType":"uint256"}],"outputs":[{"name":"tokenOutAmount_","type":"uint256","internalType":"uint256"}],"stateMutability":"view"},{"type":"function","name":"getTokenInLimitLeft","inputs":[],"outputs":[{"name":"limitLeft_","type":"uint256","internalType":"uint256"}],"stateMutability":"view"},{"type":"function","name":"guestlist","inputs":[],"outputs":[{"name":"","type":"address","internalType":"contract IBadgerVipGuestlist"}],"stateMutability":"view"},{"type":"function","name":"hasClaimed","inputs":[{"name":"","type":"address","internalType":"address"}],"outputs":[{"name":"","type":"bool","internalType":"bool"}],"stateMutability":"view"},{"type":"function","name":"initialize","inputs":[{"name":"_globalAccessControl","type":"address","internalType":"address"},{"name":"_tokenOut","type":"address","internalType":"address"},{"name":"_tokenIn","type":"address","internalType":"address"},{"name":"_saleStart","type":"uint256","internalType":"uint256"},{"name":"_saleDuration","type":"uint256","internalType":"uint256"},{"name":"_tokenOutPrice","type":"uint256","internalType":"uint256"},{"name":"_saleRecipient","type":"address","internalType":"address"},{"name":"_guestlist","type":"address","internalType":"address"},{"name":"_tokenInLimit","type":"uint256","internalType":"uint256"}],"outputs":[],"stateMutability":"nonpayable"},{"type":"function","name":"pause","inputs":[],"outputs":[],"stateMutability":"nonpayable"},{"type":"function","name":"paused","inputs":[],"outputs":[{"name":"","type":"bool","internalType":"bool"}],"stateMutability":"view"},{"type":"function","name":"saleDuration","inputs":[],"outputs":[{"name":"","type":"uint256","internalType":"uint256"}],"stateMutability":"view"},{"type":"function","name":"saleEnded","inputs":[],"outputs":[{"name":"hasEnded_","type":"bool","internalType":"bool"}],"stateMutability":"view"},{"type":"function","name":"saleRecipient","inputs":[],"outputs":[{"name":"","type":"address","internalType":"address"}],"stateMutability":"view"},{"type":"function","name":"saleStart","inputs":[],"outputs":[{"name":"","type":"uint256","internalType":"uint256"}],"stateMutability":"view"},{"type":"function","name":"setGuestlist","inputs":[{"name":"_guestlist","type":"address","internalType":"address"}],"outputs":[],"stateMutability":"nonpayable"},{"type":"function","name":"setSaleDuration","inputs":[{"name":"_saleDuration","type":"uint256","internalType":"uint256"}],"outputs":[],"stateMutability":"nonpayable"},{"type":"function","name":"setSaleRecipient","inputs":[{"name":"_saleRecipient","type":"address","internalType":"address"}],"outputs":[],"stateMutability":"nonpayable"},{"type":"function","name":"setSaleStart","inputs":[{"name":"_saleStart","type":"uint256","internalType":"uint256"}],"outputs":[],"stateMutability":"nonpayable"},{"type":"function","name":"setTokenInLimit","inputs":[{"name":"_tokenInLimit","type":"uint256","internalType":"uint256"}],"outputs":[],"stateMutability":"nonpayable"},{"type":"function","name":"setTokenOutPrice","inputs":[{"name":"_tokenOutPrice","type":"uint256","internalType":"uint256"}],"outputs":[],"stateMutability":"nonpayable"},{"type":"function","name":"sweep","inputs":[{"name":"_token","type":"address","internalType":"address"}],"outputs":[],"stateMutability":"nonpayable"},{"type":"function","name":"tokenIn","inputs":[],"outputs":[{"name":"","type":"address","internalType":"contract ERC20Upgradeable"}],"stateMutability":"view"},{"type":"function","name":"tokenInLimit","inputs":[],"outputs":[{"name":"","type":"uint256","internalType":"uint256"}],"stateMutability":"view"},{"type":"function","name":"tokenInNormalizationValue","inputs":[],"outputs":[{"name":"","type":"uint256","internalType":"uint256"}],"stateMutability":"view"},{"type":"function","name":"tokenOut","inputs":[],"outputs":[{"name":"","type":"address","internalType":"contract ERC20Upgradeable"}],"stateMutability":"view"},{"type":"function","name":"tokenOutPrice","inputs":[],"outputs":[{"name":"","type":"uint256","internalType":"uint256"}],"stateMutability":"view"},{"type":"function","name":"totalTokenIn","inputs":[],"outputs":[{"name":"","type":"uint256","internalType":"uint256"}],"stateMutability":"view"},{"type":"function","name":"totalTokenOutBought","inputs":[],"outputs":[{"name":"","type":"uint256","internalType":"uint256"}],"stateMutability":"view"},{"type":"function","name":"totalTokenOutClaimed","inputs":[],"outputs":[{"name":"","type":"uint256","internalType":"uint256"}],"stateMutability":"view"},{"type":"function","name":"unpause","inputs":[],"outputs":[],"stateMutability":"nonpayable"},{"type":"event","name":"Claim","inputs":[{"name":"claimer","type":"address","indexed":true,"internalType":"address"},{"name":"amount","type":"uint256","indexed":false,"internalType":"uint256"}],"anonymous":false},{"type":"event","name":"Finalized","inputs":[],"anonymous":false},{"type":"event","name":"GuestlistUpdated","inputs":[{"name":"guestlist","type":"address","indexed":true,"internalType":"address"}],"anonymous":false},{"type":"event","name":"Paused","inputs":[{"name":"account","type":"address","indexed":false,"internalType":"address"}],"anonymous":false},{"type":"event","name":"Sale","inputs":[{"name":"buyer","type":"address","indexed":true,"internalType":"address"},{"name":"daoId","type":"uint8","indexed":true,"internalType":"uint8"},{"name":"amountIn","type":"uint256","indexed":false,"internalType":"uint256"},{"name":"amountOut","type":"uint256","indexed":false,"internalType":"uint256"}],"anonymous":false},{"type":"event","name":"SaleDurationUpdated","inputs":[{"name":"saleDuration","type":"uint256","indexed":false,"internalType":"uint256"}],"anonymous":false},{"type":"event","name":"SaleRecipientUpdated","inputs":[{"name":"recipient","type":"address","indexed":true,"internalType":"address"}],"anonymous":false},{"type":"event","name":"SaleStartUpdated","inputs":[{"name":"saleStart","type":"uint256","indexed":false,"internalType":"uint256"}],"anonymous":false},{"type":"event","name":"Sweep","inputs":[{"name":"token","type":"address","indexed":true,"internalType":"address"},{"name":"amount","type":"uint256","indexed":false,"internalType":"uint256"}],"anonymous":false},{"type":"event","name":"TokenInLimitUpdated","inputs":[{"name":"tokenInLimit","type":"uint256","indexed":false,"internalType":"uint256"}],"anonymous":false},{"type":"event","name":"TokenOutPriceUpdated","inputs":[{"name":"tokenOutPrice","type":"uint256","indexed":false,"internalType":"uint256"}],"anonymous":false},{"type":"event","name":"Unpaused","inputs":[{"name":"account","type":"address","indexed":false,"internalType":"address"}],"anonymous":false}],"bytecode":{"object":"0x608060405234801561001057600080fd5b5061497b806100206000396000f3fe608060405234801561001057600080fd5b506004361061025e5760003560e01c806373b2e80e11610146578063b3f05b97116100c3578063e9a2f2e011610087578063e9a2f2e0146106ab578063f49af3fa146106c9578063f4e79fc3146106e5578063fb1bb9de14610703578063fd7e60a914610721578063fee839c61461073d5761025e565b8063b3f05b9714610615578063c73940b314610633578063d0202d3b14610651578063e63ab1e91461066f578063e74c03381461068d5761025e565b80639b8906ae1161010a5780639b8906ae1461056d578063a1d9eecf1461058b578063ab0bcc41146105bb578063abf017e9146105d9578063afb8a52e146105f75761025e565b806373b2e80e146104dd5780637a3dbd6a1461050d5780637e12180e146105295780638456cb59146105455780638b2342151461054f5761025e565b80633711d9fb116101df5780635b019b76116101a35780635b019b76146104055780635c195217146104235780635c975abb14610453578063618426fc1461047157806368c91d8f1461048f5780636daf390b146104bf5761025e565b80633711d9fb146103975780633f4ba83a146103b55780634bb278f3146103bf5780634e71d92d146103c9578063564f0848146103e75761025e565b80631e5f5702116102265780631e5f5702146102f3578063240877101461030f57806324f3dd2f1461033f57806326b2f4041461035d5780632f181f541461037b5761025e565b806301681a621461026357806309ece8ee1461027f5780630b0cca891461029d5780630d4ec845146102bb5780631c908d98146102d7575b600080fd5b61027d6004803603810190610278919061313a565b61076d565b005b610287610bb5565b6040516102949190613180565b60405180910390f35b6102a5610bd9565b6040516102b29190613180565b60405180910390f35b6102d560048036038101906102d0919061313a565b610bfd565b005b6102f160048036038101906102ec919061313a565b610d83565b005b61030d600480360381019061030891906131d1565b610f79565b005b6103296004803603810190610324919061313a565b61136b565b60405161033691906132b7565b60405180910390f35b61034761138b565b60405161035491906132e1565b60405180910390f35b610365611391565b6040516103729190613180565b60405180910390f35b610395600480360381019061039091906132fc565b6113b5565b005b61039f611588565b6040516103ac91906132e1565b60405180910390f35b6103bd61158e565b005b6103c761165f565b005b6103d161191e565b6040516103de91906132e1565b60405180910390f35b6103ef611ca4565b6040516103fc91906132e1565b60405180910390f35b61040d611caa565b60405161041a9190613338565b60405180910390f35b61043d600480360381019061043891906132fc565b611cd0565b60405161044a91906132e1565b60405180910390f35b61045b611cf4565b604051610468919061336e565b60405180910390f35b610479611d0b565b60405161048691906132e1565b60405180910390f35b6104a960048036038101906104a4919061313a565b611d11565b6040516104b691906132e1565b60405180910390f35b6104c7611d29565b6040516104d491906133e8565b60405180910390f35b6104f760048036038101906104f2919061313a565b611d4f565b604051610504919061336e565b60405180910390f35b6105276004803603810190610522919061313a565b611d6f565b005b610543600480360381019061053e91906132fc565b611e0a565b005b61054d611fdd565b005b6105576120ae565b6040516105649190613424565b60405180910390f35b6105756120d4565b604051610582919061336e565b60405180910390f35b6105a560048036038101906105a091906134d0565b6120fd565b6040516105b291906132e1565b60405180910390f35b6105c361274a565b6040516105d091906132e1565b60405180910390f35b6105e1612750565b6040516105ee91906132e1565b60405180910390f35b6105ff612756565b60405161060c91906132e1565b60405180910390f35b61061d61277a565b60405161062a919061336e565b60405180910390f35b61063b61278d565b6040516106489190613180565b60405180910390f35b6106596127b1565b60405161066691906133e8565b60405180910390f35b6106776127d7565b6040516106849190613180565b60405180910390f35b6106956127fb565b6040516106a291906132e1565b60405180910390f35b6106b3612801565b6040516106c091906132e1565b60405180910390f35b6106e360048036038101906106de91906132fc565b612807565b005b6106ed612997565b6040516106fa9190613565565b60405180910390f35b61070b6129bd565b6040516107189190613180565b60405180910390f35b61073b600480360381019061073691906132fc565b6129e1565b005b61075760048036038101906107529190613580565b612b64565b60405161076491906132e1565b60405180910390f35b606560009054906101000a900473ffffffffffffffffffffffffffffffffffffffff1673ffffffffffffffffffffffffffffffffffffffff16635c975abb6040518163ffffffff1660e01b8152600401602060405180830381865afa1580156107da573d6000803e3d6000fd5b505050506040513d601f19601f820116820180604052508101906107fe91906135d9565b1561083e576040517f08c379a000000000000000000000000000000000000000000000000000000000815260040161083590613663565b60405180910390fd5b610846611cf4565b15610886576040517f08c379a000000000000000000000000000000000000000000000000000000000815260040161087d906136cf565b60405180910390fd5b600260665414156108cc576040517f08c379a00000000000000000000000000000000000000000000000000000000081526004016108c39061373b565b60405180910390fd5b60026066819055507f337ba9dc64713e3c4bdd6225b5a90c898a60c14899ce4ed20d62795472e1761b606560009054906101000a900473ffffffffffffffffffffffffffffffffffffffff1673ffffffffffffffffffffffffffffffffffffffff166391d1485482336040518363ffffffff1660e01b815260040161095292919061375b565b602060405180830381865afa15801561096f573d6000803e3d6000fd5b505050506040513d601f19601f8201168201806040525081019061099391906135d9565b6109d2576040517f08c379a00000000000000000000000000000000000000000000000000000000081526004016109c9906137d0565b60405180910390fd5b60008273ffffffffffffffffffffffffffffffffffffffff166370a08231306040518263ffffffff1660e01b8152600401610a0d9190613338565b602060405180830381865afa158015610a2a573d6000803e3d6000fd5b505050506040513d601f19601f82011682018060405250810190610a4e9190613805565b9050609860009054906101000a900473ffffffffffffffffffffffffffffffffffffffff1673ffffffffffffffffffffffffffffffffffffffff168373ffffffffffffffffffffffffffffffffffffffff161415610aca57600060a25460a154610ab89190613861565b90508082610ac69190613861565b9150505b60008111610b0d576040517f08c379a0000000000000000000000000000000000000000000000000000000008152600401610b04906138e1565b60405180910390fd5b8273ffffffffffffffffffffffffffffffffffffffff167fab2246061d7b0dd3631d037e3f6da75782ae489eeb9f6af878a4b25df9b07c7782604051610b5391906132e1565b60405180910390a2610ba8609c60009054906101000a900473ffffffffffffffffffffffffffffffffffffffff16828573ffffffffffffffffffffffffffffffffffffffff16612b7c9092919063ffffffff16565b5050600160668190555050565b7f0ae097b90fd4eb85125339aa384674b34376a7d2431b48d50d88b599a2bda6f581565b7f32522ae3fcc93c551ea7d30f39aaf5cf6e316c65a500706f77e9ecdd09ee113681565b7f90565f473acba990c953ecc83c4ef11c3dd8ed52a592a609c6e09518c2eef3c6606560009054906101000a900473ffffffffffffffffffffffffffffffffffffffff1673ffffffffffffffffffffffffffffffffffffffff166391d1485482336040518363ffffffff1660e01b8152600401610c7b92919061375b565b602060405180830381865afa158015610c98573d6000803e3d6000fd5b505050506040513d601f19601f82011682018060405250810190610cbc91906135d9565b610cfb576040517f08c379a0000000000000000000000000000000000000000000000000000000008152600401610cf2906137d0565b60405180910390fd5b8160a560006101000a81548173ffffffffffffffffffffffffffffffffffffffff021916908373ffffffffffffffffffffffffffffffffffffffff1602179055508173ffffffffffffffffffffffffffffffffffffffff167f650070ede2ab0ad22a57e15b88d668804b8f7c361a1ee8560093705f4d78abdd60405160405180910390a25050565b7f32522ae3fcc93c551ea7d30f39aaf5cf6e316c65a500706f77e9ecdd09ee1136606560009054906101000a900473ffffffffffffffffffffffffffffffffffffffff1673ffffffffffffffffffffffffffffffffffffffff166391d1485482336040518363ffffffff1660e01b8152600401610e0192919061375b565b602060405180830381865afa158015610e1e573d6000803e3d6000fd5b505050506040513d601f19601f82011682018060405250810190610e4291906135d9565b610e81576040517f08c379a0000000000000000000000000000000000000000000000000000000008152600401610e78906137d0565b60405180910390fd5b600073ffffffffffffffffffffffffffffffffffffffff168273ffffffffffffffffffffffffffffffffffffffff161415610ef1576040517f08c379a0000000000000000000000000000000000000000000000000000000008152600401610ee890613973565b60405180910390fd5b81609c60006101000a81548173ffffffffffffffffffffffffffffffffffffffff021916908373ffffffffffffffffffffffffffffffffffffffff1602179055508173ffffffffffffffffffffffffffffffffffffffff167f22fcd0f303ce9972cac865bf07f264510ba86521618196591c01ad233f97826660405160405180910390a25050565b600060019054906101000a900460ff16610fa15760008054906101000a900460ff1615610faa565b610fa9612c02565b5b610fe9576040517f08c379a0000000000000000000000000000000000000000000000000000000008152600401610fe090613a05565b60405180910390fd5b60008060019054906101000a900460ff161590508015611039576001600060016101000a81548160ff02191690831515021790555060016000806101000a81548160ff0219169083151502179055505b4287101561107c576040517f08c379a000000000000000000000000000000000000000000000000000000000815260040161107390613a97565b60405180910390fd5b600086116110bf576040517f08c379a00000000000000000000000000000000000000000000000000000000081526004016110b690613b29565b60405180910390fd5b60008511611102576040517f08c379a00000000000000000000000000000000000000000000000000000000081526004016110f990613bbb565b60405180910390fd5b600073ffffffffffffffffffffffffffffffffffffffff168473ffffffffffffffffffffffffffffffffffffffff161415611172576040517f08c379a000000000000000000000000000000000000000000000000000000000815260040161116990613973565b60405180910390fd5b61117b8a611d6f565b88609860006101000a81548173ffffffffffffffffffffffffffffffffffffffff021916908373ffffffffffffffffffffffffffffffffffffffff16021790555087609960006101000a81548173ffffffffffffffffffffffffffffffffffffffff021916908373ffffffffffffffffffffffffffffffffffffffff16021790555086609a8190555085609b8190555084609d8190555083609c60006101000a81548173ffffffffffffffffffffffffffffffffffffffff021916908373ffffffffffffffffffffffffffffffffffffffff1602179055508260a560006101000a81548173ffffffffffffffffffffffffffffffffffffffff021916908373ffffffffffffffffffffffffffffffffffffffff1602179055508160a381905550609960009054906101000a900473ffffffffffffffffffffffffffffffffffffffff1673ffffffffffffffffffffffffffffffffffffffff1663313ce5676040518163ffffffff1660e01b8152600401602060405180830381865afa158015611308573d6000803e3d6000fd5b505050506040513d601f19601f8201168201806040525081019061132c9190613bf0565b600a6113389190613d50565b60a481905550801561135f5760008060016101000a81548160ff0219169083151502179055505b50505050505050505050565b60a76020528060005260406000206000915054906101000a900460ff1681565b60a35481565b7f90565f473acba990c953ecc83c4ef11c3dd8ed52a592a609c6e09518c2eef3c681565b7f32522ae3fcc93c551ea7d30f39aaf5cf6e316c65a500706f77e9ecdd09ee1136606560009054906101000a900473ffffffffffffffffffffffffffffffffffffffff1673ffffffffffffffffffffffffffffffffffffffff166391d1485482336040518363ffffffff1660e01b815260040161143392919061375b565b602060405180830381865afa158015611450573d6000803e3d6000fd5b505050506040513d601f19601f8201168201806040525081019061147491906135d9565b6114b3576040517f08c379a00000000000000000000000000000000000000000000000000000000081526004016114aa906137d0565b60405180910390fd5b428210156114f6576040517f08c379a00000000000000000000000000000000000000000000000000000000081526004016114ed90613a97565b60405180910390fd5b609c60149054906101000a900460ff1615611546576040517f08c379a000000000000000000000000000000000000000000000000000000000815260040161153d90613e0d565b60405180910390fd5b81609a819055507f135254114ee4f45d212c82997d0c54980f52cddb02dc57d9ba84ef67e5a3d0258260405161157c91906132e1565b60405180910390a15050565b609b5481565b606560009054906101000a900473ffffffffffffffffffffffffffffffffffffffff1673ffffffffffffffffffffffffffffffffffffffff166391d148547f427da25fe773164f88948d3e215c94b6554e2ed5e5f203a821c9f2f6131cf75a336040518363ffffffff1660e01b815260040161160b92919061375b565b602060405180830381865afa158015611628573d6000803e3d6000fd5b505050506040513d601f19601f8201168201806040525081019061164c91906135d9565b61165557600080fd5b61165d612c13565b565b7f32522ae3fcc93c551ea7d30f39aaf5cf6e316c65a500706f77e9ecdd09ee1136606560009054906101000a900473ffffffffffffffffffffffffffffffffffffffff1673ffffffffffffffffffffffffffffffffffffffff166391d1485482336040518363ffffffff1660e01b81526004016116dd92919061375b565b602060405180830381865afa1580156116fa573d6000803e3d6000fd5b505050506040513d601f19601f8201168201806040525081019061171e91906135d9565b61175d576040517f08c379a0000000000000000000000000000000000000000000000000000000008152600401611754906137d0565b60405180910390fd5b609c60149054906101000a900460ff16156117ad576040517f08c379a00000000000000000000000000000000000000000000000000000000081526004016117a490613e0d565b60405180910390fd5b6117b56120d4565b6117f4576040517f08c379a00000000000000000000000000000000000000000000000000000000081526004016117eb90613e79565b60405180910390fd5b60a154609860009054906101000a900473ffffffffffffffffffffffffffffffffffffffff1673ffffffffffffffffffffffffffffffffffffffff166370a08231306040518263ffffffff1660e01b81526004016118529190613338565b602060405180830381865afa15801561186f573d6000803e3d6000fd5b505050506040513d601f19601f820116820180604052508101906118939190613805565b10156118d4576040517f08c379a00000000000000000000000000000000000000000000000000000000081526004016118cb90613f0b565b60405180910390fd5b6001609c60146101000a81548160ff0219169083151502179055507f6823b073d48d6e3a7d385eeb601452d680e74bb46afe3255a7d778f3a9b1768160405160405180910390a150565b6000606560009054906101000a900473ffffffffffffffffffffffffffffffffffffffff1673ffffffffffffffffffffffffffffffffffffffff16635c975abb6040518163ffffffff1660e01b8152600401602060405180830381865afa15801561198d573d6000803e3d6000fd5b505050506040513d601f19601f820116820180604052508101906119b191906135d9565b156119f1576040517f08c379a00000000000000000000000000000000000000000000000000000000081526004016119e890613663565b60405180910390fd5b6119f9611cf4565b15611a39576040517f08c379a0000000000000000000000000000000000000000000000000000000008152600401611a30906136cf565b60405180910390fd5b609c60149054906101000a900460ff16611a88576040517f08c379a0000000000000000000000000000000000000000000000000000000008152600401611a7f90613f77565b60405180910390fd5b609f60003373ffffffffffffffffffffffffffffffffffffffff1673ffffffffffffffffffffffffffffffffffffffff16815260200190815260200160002060009054906101000a900460ff1615611b15576040517f08c379a0000000000000000000000000000000000000000000000000000000008152600401611b0c90613fe3565b60405180910390fd5b609e60003373ffffffffffffffffffffffffffffffffffffffff1673ffffffffffffffffffffffffffffffffffffffff16815260200190815260200160002054905060008111611b9a576040517f08c379a0000000000000000000000000000000000000000000000000000000008152600401611b919061404f565b60405180910390fd5b6001609f60003373ffffffffffffffffffffffffffffffffffffffff1673ffffffffffffffffffffffffffffffffffffffff16815260200190815260200160002060006101000a81548160ff0219169083151502179055508060a254611c00919061406f565b60a281905550611c533382609860009054906101000a900473ffffffffffffffffffffffffffffffffffffffff1673ffffffffffffffffffffffffffffffffffffffff16612b7c9092919063ffffffff16565b3373ffffffffffffffffffffffffffffffffffffffff167f47cee97cb7acd717b3c0aa1435d004cd5b3c8c57d70dbceb4e4458bbd60e39d482604051611c9991906132e1565b60405180910390a290565b60a25481565b609c60009054906101000a900473ffffffffffffffffffffffffffffffffffffffff1681565b600060a454609d5483611ce391906140c5565b611ced919061414e565b9050919050565b6000603360009054906101000a900460ff16905090565b60a15481565b609e6020528060005260406000206000915090505481565b609960009054906101000a900473ffffffffffffffffffffffffffffffffffffffff1681565b609f6020528060005260406000206000915054906101000a900460ff1681565b600060019054906101000a900460ff16611dbe576040517f08c379a0000000000000000000000000000000000000000000000000000000008152600401611db5906141f1565b60405180910390fd5b611dc6612cb5565b80606560006101000a81548173ffffffffffffffffffffffffffffffffffffffff021916908373ffffffffffffffffffffffffffffffffffffffff16021790555050565b7f32522ae3fcc93c551ea7d30f39aaf5cf6e316c65a500706f77e9ecdd09ee1136606560009054906101000a900473ffffffffffffffffffffffffffffffffffffffff1673ffffffffffffffffffffffffffffffffffffffff166391d1485482336040518363ffffffff1660e01b8152600401611e8892919061375b565b602060405180830381865afa158015611ea5573d6000803e3d6000fd5b505050506040513d601f19601f82011682018060405250810190611ec991906135d9565b611f08576040517f08c379a0000000000000000000000000000000000000000000000000000000008152600401611eff906137d0565b60405180910390fd5b60008211611f4b576040517f08c379a0000000000000000000000000000000000000000000000000000000008152600401611f4290613b29565b60405180910390fd5b609c60149054906101000a900460ff1615611f9b576040517f08c379a0000000000000000000000000000000000000000000000000000000008152600401611f9290613e0d565b60405180910390fd5b81609b819055507fff172fd971adb5d887f59d7df55b4db207def39aacf56e01eecfd7b120894e0a82604051611fd191906132e1565b60405180910390a15050565b606560009054906101000a900473ffffffffffffffffffffffffffffffffffffffff1673ffffffffffffffffffffffffffffffffffffffff166391d148547f65d7a28e3265b37a6474929f336521b332c1681b933f6cb9f3376673440d862a336040518363ffffffff1660e01b815260040161205a92919061375b565b602060405180830381865afa158015612077573d6000803e3d6000fd5b505050506040513d601f19601f8201168201806040525081019061209b91906135d9565b6120a457600080fd5b6120ac612d21565b565b60a560009054906101000a900473ffffffffffffffffffffffffffffffffffffffff1681565b6000609b54609a546120e6919061406f565b421015806120f8575060a35460a05410155b905090565b6000606560009054906101000a900473ffffffffffffffffffffffffffffffffffffffff1673ffffffffffffffffffffffffffffffffffffffff16635c975abb6040518163ffffffff1660e01b8152600401602060405180830381865afa15801561216c573d6000803e3d6000fd5b505050506040513d601f19601f8201168201806040525081019061219091906135d9565b156121d0576040517f08c379a00000000000000000000000000000000000000000000000000000000081526004016121c790613663565b60405180910390fd5b6121d8611cf4565b15612218576040517f08c379a000000000000000000000000000000000000000000000000000000000815260040161220f906136cf565b60405180910390fd5b42609a54111561225d576040517f08c379a00000000000000000000000000000000000000000000000000000000081526004016122549061425d565b60405180910390fd5b609b54609a5461226d919061406f565b42106122ae576040517f08c379a00000000000000000000000000000000000000000000000000000000081526004016122a5906142c9565b60405180910390fd5b600085116122f1576040517f08c379a00000000000000000000000000000000000000000000000000000000081526004016122e890614335565b60405180910390fd5b60a3548560a054612302919061406f565b1115612343576040517f08c379a000000000000000000000000000000000000000000000000000000000815260040161233a906143a1565b60405180910390fd5b600073ffffffffffffffffffffffffffffffffffffffff1660a560009054906101000a900473ffffffffffffffffffffffffffffffffffffffff1673ffffffffffffffffffffffffffffffffffffffff16146124795760a560009054906101000a900473ffffffffffffffffffffffffffffffffffffffff1673ffffffffffffffffffffffffffffffffffffffff1663612494043385856040518463ffffffff1660e01b81526004016123f893929190614442565b602060405180830381865afa158015612415573d6000803e3d6000fd5b505050506040513d601f19601f8201168201806040525081019061243991906135d9565b612478576040517f08c379a000000000000000000000000000000000000000000000000000000000815260040161246f906144c0565b60405180910390fd5b5b6000609e60003373ffffffffffffffffffffffffffffffffffffffff1673ffffffffffffffffffffffffffffffffffffffff168152602001908152602001600020549050600081111561255f5760a760003373ffffffffffffffffffffffffffffffffffffffff1673ffffffffffffffffffffffffffffffffffffffff16815260200190815260200160002060009054906101000a900460ff1660ff168560ff161461255a576040517f08c379a00000000000000000000000000000000000000000000000000000000081526004016125519061452c565b60405180910390fd5b6125b8565b8460a760003373ffffffffffffffffffffffffffffffffffffffff1673ffffffffffffffffffffffffffffffffffffffff16815260200190815260200160002060006101000a81548160ff021916908360ff1602179055505b6125c186611cd0565b915081816125cf919061406f565b609e60003373ffffffffffffffffffffffffffffffffffffffff1673ffffffffffffffffffffffffffffffffffffffff168152602001908152602001600020819055508160a660008760ff1660ff16815260200190815260200160002054612637919061406f565b60a660008760ff1660ff168152602001908152602001600020819055508560a054612662919061406f565b60a0819055508160a154612676919061406f565b60a1819055506126ed33609c60009054906101000a900473ffffffffffffffffffffffffffffffffffffffff1688609960009054906101000a900473ffffffffffffffffffffffffffffffffffffffff1673ffffffffffffffffffffffffffffffffffffffff16612dc4909392919063ffffffff16565b8460ff163373ffffffffffffffffffffffffffffffffffffffff167f1ec0c95078c890035e941915909bcfe875eca2b01352f0caaf74680fe1d297ce888560405161273992919061454c565b60405180910390a350949350505050565b609a5481565b609d5481565b600060a35460a05410156127775760a05460a3546127749190613861565b90505b90565b609c60149054906101000a900460ff1681565b7f337ba9dc64713e3c4bdd6225b5a90c898a60c14899ce4ed20d62795472e1761b81565b609860009054906101000a900473ffffffffffffffffffffffffffffffffffffffff1681565b7f65d7a28e3265b37a6474929f336521b332c1681b933f6cb9f3376673440d862a81565b60a45481565b60a05481565b7f90565f473acba990c953ecc83c4ef11c3dd8ed52a592a609c6e09518c2eef3c6606560009054906101000a900473ffffffffffffffffffffffffffffffffffffffff1673ffffffffffffffffffffffffffffffffffffffff166391d1485482336040518363ffffffff1660e01b815260040161288592919061375b565b602060405180830381865afa1580156128a2573d6000803e3d6000fd5b505050506040513d601f19601f820116820180604052508101906128c691906135d9565b612905576040517f08c379a00000000000000000000000000000000000000000000000000000000081526004016128fc906137d0565b60405180910390fd5b609c60149054906101000a900460ff1615612955576040517f08c379a000000000000000000000000000000000000000000000000000000000815260040161294c90613e0d565b60405180910390fd5b8160a3819055507fc03e813ac3c72b419d55e3347033254b7730e1c13579c72e3b0258faa1c228a78260405161298b91906132e1565b60405180910390a15050565b606560009054906101000a900473ffffffffffffffffffffffffffffffffffffffff1681565b7f427da25fe773164f88948d3e215c94b6554e2ed5e5f203a821c9f2f6131cf75a81565b7f32522ae3fcc93c551ea7d30f39aaf5cf6e316c65a500706f77e9ecdd09ee1136606560009054906101000a900473ffffffffffffffffffffffffffffffffffffffff1673ffffffffffffffffffffffffffffffffffffffff166391d1485482336040518363ffffffff1660e01b8152600401612a5f92919061375b565b602060405180830381865afa158015612a7c573d6000803e3d6000fd5b505050506040513d601f19601f82011682018060405250810190612aa091906135d9565b612adf576040517f08c379a0000000000000000000000000000000000000000000000000000000008152600401612ad6906137d0565b60405180910390fd5b60008211612b22576040517f08c379a0000000000000000000000000000000000000000000000000000000008152600401612b1990613bbb565b60405180910390fd5b81609d819055507f1547cf4f4e088a233f379adf2a2ca21d8007a1a0273ac91fa1ec95d0c8e8414b82604051612b5891906132e1565b60405180910390a15050565b60a66020528060005260406000206000915090505481565b612bfd8363a9059cbb60e01b8484604051602401612b9b929190614575565b604051602081830303815290604052907bffffffffffffffffffffffffffffffffffffffffffffffffffffffff19166020820180517bffffffffffffffffffffffffffffffffffffffffffffffffffffffff8381831617835250505050612e4d565b505050565b6000612c0d30612f14565b15905090565b612c1b611cf4565b612c5a576040517f08c379a0000000000000000000000000000000000000000000000000000000008152600401612c51906145ea565b60405180910390fd5b6000603360006101000a81548160ff0219169083151502179055507f5db9ee0a495bf2e6ff9c91a7834c1ba4fdd244a5e8aa4e537bd38aeae4b073aa612c9e612f37565b604051612cab9190613338565b60405180910390a1565b600060019054906101000a900460ff16612d04576040517f08c379a0000000000000000000000000000000000000000000000000000000008152600401612cfb906141f1565b60405180910390fd5b6000603360006101000a81548160ff021916908315150217905550565b612d29611cf4565b15612d69576040517f08c379a0000000000000000000000000000000000000000000000000000000008152600401612d6090614656565b60405180910390fd5b6001603360006101000a81548160ff0219169083151502179055507f62e78cea01bee320cd4e420270b5ea74000d11b0c9f74754ebdbfc544b05a258612dad612f37565b604051612dba9190613338565b60405180910390a1565b612e47846323b872dd60e01b858585604051602401612de593929190614676565b604051602081830303815290604052907bffffffffffffffffffffffffffffffffffffffffffffffffffffffff19166020820180517bffffffffffffffffffffffffffffffffffffffffffffffffffffffff8381831617835250505050612e4d565b50505050565b6000612eaf826040518060400160405280602081526020017f5361666545524332303a206c6f772d6c6576656c2063616c6c206661696c65648152508573ffffffffffffffffffffffffffffffffffffffff16612f3f9092919063ffffffff16565b9050600081511115612f0f5780806020019051810190612ecf91906135d9565b612f0e576040517f08c379a0000000000000000000000000000000000000000000000000000000008152600401612f059061471f565b60405180910390fd5b5b505050565b6000808273ffffffffffffffffffffffffffffffffffffffff163b119050919050565b600033905090565b6060612f4e8484600085612f57565b90509392505050565b606082471015612f9c576040517f08c379a0000000000000000000000000000000000000000000000000000000008152600401612f93906147b1565b60405180910390fd5b612fa585612f14565b612fe4576040517f08c379a0000000000000000000000000000000000000000000000000000000008152600401612fdb9061481d565b60405180910390fd5b6000808673ffffffffffffffffffffffffffffffffffffffff16858760405161300d91906148b7565b60006040518083038185875af1925050503d806000811461304a576040519150601f19603f3d011682016040523d82523d6000602084013e61304f565b606091505b509150915061305f82828661306b565b92505050949350505050565b6060831561307b578290506130cb565b60008351111561308e5782518084602001fd5b816040517f08c379a00000000000000000000000000000000000000000000000000000000081526004016130c29190614923565b60405180910390fd5b9392505050565b600080fd5b600080fd5b600073ffffffffffffffffffffffffffffffffffffffff82169050919050565b6000613107826130dc565b9050919050565b613117816130fc565b811461312257600080fd5b50565b6000813590506131348161310e565b92915050565b6000602082840312156131505761314f6130d2565b5b600061315e84828501613125565b91505092915050565b6000819050919050565b61317a81613167565b82525050565b60006020820190506131956000830184613171565b92915050565b6000819050919050565b6131ae8161319b565b81146131b957600080fd5b50565b6000813590506131cb816131a5565b92915050565b60008060008060008060008060006101208a8c0312156131f4576131f36130d2565b5b60006132028c828d01613125565b99505060206132138c828d01613125565b98505060406132248c828d01613125565b97505060606132358c828d016131bc565b96505060806132468c828d016131bc565b95505060a06132578c828d016131bc565b94505060c06132688c828d01613125565b93505060e06132798c828d01613125565b92505061010061328b8c828d016131bc565b9150509295985092959850929598565b600060ff82169050919050565b6132b18161329b565b82525050565b60006020820190506132cc60008301846132a8565b92915050565b6132db8161319b565b82525050565b60006020820190506132f660008301846132d2565b92915050565b600060208284031215613312576133116130d2565b5b6000613320848285016131bc565b91505092915050565b613332816130fc565b82525050565b600060208201905061334d6000830184613329565b92915050565b60008115159050919050565b61336881613353565b82525050565b6000602082019050613383600083018461335f565b92915050565b6000819050919050565b60006133ae6133a96133a4846130dc565b613389565b6130dc565b9050919050565b60006133c082613393565b9050919050565b60006133d2826133b5565b9050919050565b6133e2816133c7565b82525050565b60006020820190506133fd60008301846133d9565b92915050565b600061340e826133b5565b9050919050565b61341e81613403565b82525050565b60006020820190506134396000830184613415565b92915050565b6134488161329b565b811461345357600080fd5b50565b6000813590506134658161343f565b92915050565b600080fd5b600080fd5b600080fd5b60008083601f8401126134905761348f61346b565b5b8235905067ffffffffffffffff8111156134ad576134ac613470565b5b6020830191508360208202830111156134c9576134c8613475565b5b9250929050565b600080600080606085870312156134ea576134e96130d2565b5b60006134f8878288016131bc565b945050602061350987828801613456565b935050604085013567ffffffffffffffff81111561352a576135296130d7565b5b6135368782880161347a565b925092505092959194509250565b600061354f826133b5565b9050919050565b61355f81613544565b82525050565b600060208201905061357a6000830184613556565b92915050565b600060208284031215613596576135956130d2565b5b60006135a484828501613456565b91505092915050565b6135b681613353565b81146135c157600080fd5b50565b6000815190506135d3816135ad565b92915050565b6000602082840312156135ef576135ee6130d2565b5b60006135fd848285016135c4565b91505092915050565b600082825260208201905092915050565b7f676c6f62616c2d70617573656400000000000000000000000000000000000000600082015250565b600061364d600d83613606565b915061365882613617565b602082019050919050565b6000602082019050818103600083015261367c81613640565b9050919050565b7f6c6f63616c2d7061757365640000000000000000000000000000000000000000600082015250565b60006136b9600c83613606565b91506136c482613683565b602082019050919050565b600060208201905081810360008301526136e8816136ac565b9050919050565b7f5265656e7472616e637947756172643a207265656e7472616e742063616c6c00600082015250565b6000613725601f83613606565b9150613730826136ef565b602082019050919050565b6000602082019050818103600083015261375481613718565b9050919050565b60006040820190506137706000830185613171565b61377d6020830184613329565b9392505050565b7f4741433a20696e76616c69642d63616c6c65722d726f6c650000000000000000600082015250565b60006137ba601883613606565b91506137c582613784565b602082019050919050565b600060208201905081810360008301526137e9816137ad565b9050919050565b6000815190506137ff816131a5565b92915050565b60006020828403121561381b5761381a6130d2565b5b6000613829848285016137f0565b91505092915050565b7f4e487b7100000000000000000000000000000000000000000000000000000000600052601160045260246000fd5b600061386c8261319b565b91506138778361319b565b92508282101561388a57613889613832565b5b828203905092915050565b7f6e6f7468696e6720746f20737765657000000000000000000000000000000000600082015250565b60006138cb601083613606565b91506138d682613895565b602082019050919050565b600060208201905081810360008301526138fa816138be565b9050919050565b7f4b6e69676874696e67526f756e643a2073616c6520726563697069656e74207360008201527f686f756c64206e6f74206265207a65726f000000000000000000000000000000602082015250565b600061395d603183613606565b915061396882613901565b604082019050919050565b6000602082019050818103600083015261398c81613950565b9050919050565b7f496e697469616c697a61626c653a20636f6e747261637420697320616c72656160008201527f647920696e697469616c697a6564000000000000000000000000000000000000602082015250565b60006139ef602e83613606565b91506139fa82613993565b604082019050919050565b60006020820190508181036000830152613a1e816139e2565b9050919050565b7f4b6e69676874696e67526f756e643a2073746172742064617465206d6179206e60008201527f6f7420626520696e207468652070617374000000000000000000000000000000602082015250565b6000613a81603183613606565b9150613a8c82613a25565b604082019050919050565b60006020820190508181036000830152613ab081613a74565b9050919050565b7f4b6e69676874696e67526f756e643a207468652073616c65206475726174696f60008201527f6e206d757374206e6f74206265207a65726f0000000000000000000000000000602082015250565b6000613b13603283613606565b9150613b1e82613ab7565b604082019050919050565b60006020820190508181036000830152613b4281613b06565b9050919050565b7f4b6e69676874696e67526f756e643a20746865207072696365206d757374206e60008201527f6f74206265207a65726f00000000000000000000000000000000000000000000602082015250565b6000613ba5602a83613606565b9150613bb082613b49565b604082019050919050565b60006020820190508181036000830152613bd481613b98565b9050919050565b600081519050613bea8161343f565b92915050565b600060208284031215613c0657613c056130d2565b5b6000613c1484828501613bdb565b91505092915050565b60008160011c9050919050565b6000808291508390505b6001851115613c7457808604811115613c5057613c4f613832565b5b6001851615613c5f5780820291505b8081029050613c6d85613c1d565b9450613c34565b94509492505050565b600082613c8d5760019050613d49565b81613c9b5760009050613d49565b8160018114613cb15760028114613cbb57613cea565b6001915050613d49565b60ff841115613ccd57613ccc613832565b5b8360020a915084821115613ce457613ce3613832565b5b50613d49565b5060208310610133831016604e8410600b8410161715613d1f5782820a905083811115613d1a57613d19613832565b5b613d49565b613d2c8484846001613c2a565b92509050818404811115613d4357613d42613832565b5b81810290505b9392505050565b6000613d5b8261319b565b9150613d668361329b565b9250613d937fffffffffffffffffffffffffffffffffffffffffffffffffffffffffffffffff8484613c7d565b905092915050565b7f4b6e69676874696e67526f756e643a20616c72656164792066696e616c697a6560008201527f6400000000000000000000000000000000000000000000000000000000000000602082015250565b6000613df7602183613606565b9150613e0282613d9b565b604082019050919050565b60006020820190508181036000830152613e2681613dea565b9050919050565b7f4b6e69676874696e67526f756e643a206e6f742066696e697368656400000000600082015250565b6000613e63601c83613606565b9150613e6e82613e2d565b602082019050919050565b60006020820190508181036000830152613e9281613e56565b9050919050565b7f4b6e69676874696e67526f756e643a206e6f7420656e6f7567682062616c616e60008201527f6365000000000000000000000000000000000000000000000000000000000000602082015250565b6000613ef5602283613606565b9150613f0082613e99565b604082019050919050565b60006020820190508181036000830152613f2481613ee8565b9050919050565b7f73616c65206e6f742066696e616c697a65640000000000000000000000000000600082015250565b6000613f61601283613606565b9150613f6c82613f2b565b602082019050919050565b60006020820190508181036000830152613f9081613f54565b9050919050565b7f616c726561647920636c61696d65640000000000000000000000000000000000600082015250565b6000613fcd600f83613606565b9150613fd882613f97565b602082019050919050565b60006020820190508181036000830152613ffc81613fc0565b9050919050565b7f6e6f7468696e6720746f20636c61696d00000000000000000000000000000000600082015250565b6000614039601083613606565b915061404482614003565b602082019050919050565b600060208201905081810360008301526140688161402c565b9050919050565b600061407a8261319b565b91506140858361319b565b9250827fffffffffffffffffffffffffffffffffffffffffffffffffffffffffffffffff038211156140ba576140b9613832565b5b828201905092915050565b60006140d08261319b565b91506140db8361319b565b9250817fffffffffffffffffffffffffffffffffffffffffffffffffffffffffffffffff048311821515161561411457614113613832565b5b828202905092915050565b7f4e487b7100000000000000000000000000000000000000000000000000000000600052601260045260246000fd5b60006141598261319b565b91506141648361319b565b9250826141745761417361411f565b5b828204905092915050565b7f496e697469616c697a61626c653a20636f6e7472616374206973206e6f74206960008201527f6e697469616c697a696e67000000000000000000000000000000000000000000602082015250565b60006141db602b83613606565b91506141e68261417f565b604082019050919050565b6000602082019050818103600083015261420a816141ce565b9050919050565b7f4b6e69676874696e67526f756e643a206e6f7420737461727465640000000000600082015250565b6000614247601b83613606565b915061425282614211565b602082019050919050565b600060208201905081810360008301526142768161423a565b9050919050565b7f4b6e69676874696e67526f756e643a20616c726561647920656e646564000000600082015250565b60006142b3601d83613606565b91506142be8261427d565b602082019050919050565b600060208201905081810360008301526142e2816142a6565b9050919050565b7f5f746f6b656e496e416d6f756e742073686f756c64206265203e203000000000600082015250565b600061431f601c83613606565b915061432a826142e9565b602082019050919050565b6000602082019050818103600083015261434e81614312565b9050919050565b7f746f74616c20616d6f756e742065786365656465640000000000000000000000600082015250565b600061438b601583613606565b915061439682614355565b602082019050919050565b600060208201905081810360008301526143ba8161437e565b9050919050565b600082825260208201905092915050565b600080fd5b82818337600083830152505050565b60006143f283856143c1565b93507f07ffffffffffffffffffffffffffffffffffffffffffffffffffffffffffffff831115614425576144246143d2565b5b6020830292506144368385846143d7565b82840190509392505050565b60006040820190506144576000830186613329565b818103602083015261446a8184866143e6565b9050949350505050565b7f6e6f7420617574686f72697a6564000000000000000000000000000000000000600082015250565b60006144aa600e83613606565b91506144b582614474565b602082019050919050565b600060208201905081810360008301526144d98161449d565b9050919050565b7f63616e277420766f746520666f72206d756c7469706c652064616f7300000000600082015250565b6000614516601c83613606565b9150614521826144e0565b602082019050919050565b6000602082019050818103600083015261454581614509565b9050919050565b600060408201905061456160008301856132d2565b61456e60208301846132d2565b9392505050565b600060408201905061458a6000830185613329565b61459760208301846132d2565b9392505050565b7f5061757361626c653a206e6f7420706175736564000000000000000000000000600082015250565b60006145d4601483613606565b91506145df8261459e565b602082019050919050565b60006020820190508181036000830152614603816145c7565b9050919050565b7f5061757361626c653a2070617573656400000000000000000000000000000000600082015250565b6000614640601083613606565b915061464b8261460a565b602082019050919050565b6000602082019050818103600083015261466f81614633565b9050919050565b600060608201905061468b6000830186613329565b6146986020830185613329565b6146a560408301846132d2565b949350505050565b7f5361666545524332303a204552433230206f7065726174696f6e20646964206e60008201527f6f74207375636365656400000000000000000000000000000000000000000000602082015250565b6000614709602a83613606565b9150614714826146ad565b604082019050919050565b60006020820190508181036000830152614738816146fc565b9050919050565b7f416464726573733a20696e73756666696369656e742062616c616e636520666f60008201527f722063616c6c0000000000000000000000000000000000000000000000000000602082015250565b600061479b602683613606565b91506147a68261473f565b604082019050919050565b600060208201905081810360008301526147ca8161478e565b9050919050565b7f416464726573733a2063616c6c20746f206e6f6e2d636f6e7472616374000000600082015250565b6000614807601d83613606565b9150614812826147d1565b602082019050919050565b60006020820190508181036000830152614836816147fa565b9050919050565b600081519050919050565b600081905092915050565b60005b83811015614871578082015181840152602081019050614856565b83811115614880576000848401525b50505050565b60006148918261483d565b61489b8185614848565b93506148ab818560208601614853565b80840191505092915050565b60006148c38284614886565b915081905092915050565b600081519050919050565b6000601f19601f8301169050919050565b60006148f5826148ce565b6148ff8185613606565b935061490f818560208601614853565b614918816148d9565b840191505092915050565b6000602082019050818103600083015261493d81846148ea565b90509291505056fea2646970667358221220170530ecd9faf33bb6f96c4c56af4ffeb27b1906849bf807b5fffc07fff52e9d64736f6c634300080c0033","linkReferences":{}},"methodIdentifiers":{"CONTRACT_GOVERNANCE_ROLE()":"0b0cca89","PAUSER_ROLE()":"e63ab1e9","TECH_OPERATIONS_ROLE()":"26b2f404","TREASURY_GOVERNANCE_ROLE()":"09ece8ee","TREASURY_OPERATIONS_ROLE()":"c73940b3","UNPAUSER_ROLE()":"fb1bb9de","__GlobalAccessControlManaged_init(address)":"7a3dbd6a","boughtAmounts(address)":"68c91d8f","buy(uint256,uint8,bytes32[])":"a1d9eecf","claim()":"4e71d92d","daoCommitments(uint8)":"fee839c6","daoVotedFor(address)":"24087710","finalize()":"4bb278f3","finalized()":"b3f05b97","gac()":"f4e79fc3","getAmountOut(uint256)":"5c195217","getTokenInLimitLeft()":"afb8a52e","guestlist()":"8b234215","hasClaimed(address)":"73b2e80e","initialize(address,address,address,uint256,uint256,uint256,address,address,uint256)":"1e5f5702","pause()":"8456cb59","paused()":"5c975abb","saleDuration()":"3711d9fb","saleEnded()":"9b8906ae","saleRecipient()":"5b019b76","saleStart()":"ab0bcc41","setGuestlist(address)":"0d4ec845","setSaleDuration(uint256)":"7e12180e","setSaleRecipient(address)":"1c908d98","setSaleStart(uint256)":"2f181f54","setTokenInLimit(uint256)":"f49af3fa","setTokenOutPrice(uint256)":"fd7e60a9","sweep(address)":"01681a62","tokenIn()":"6daf390b","tokenInLimit()":"24f3dd2f","tokenInNormalizationValue()":"e74c0338","tokenOut()":"d0202d3b","tokenOutPrice()":"abf017e9","totalTokenIn()":"e9a2f2e0","totalTokenOutBought()":"618426fc","totalTokenOutClaimed()":"564f0848","unpause()":"3f4ba83a"},"id":23}