{
  "_format": "hh-sol-artifact-1",
  "contractName": "BaseHelper",
  "sourceName": "contracts/Helper/MISOHelper.sol",
  "abi": [
    {
      "inputs": [],
      "name": "accessControls",
      "outputs": [
        {
          "internalType": "contract MISOAccessControls",
          "name": "",
          "type": "address"
        }
      ],
      "stateMutability": "view",
      "type": "function"
    },
    {
      "inputs": [],
      "name": "farmFactory",
      "outputs": [
        {
          "internalType": "contract IMisoFarmFactory",
          "name": "",
          "type": "address"
        }
      ],
      "stateMutability": "view",
      "type": "function"
    },
    {
      "inputs": [],
      "name": "launcher",
      "outputs": [
        {
          "internalType": "address",
          "name": "",
          "type": "address"
        }
      ],
      "stateMutability": "view",
      "type": "function"
    },
    {
      "inputs": [],
      "name": "market",
      "outputs": [
        {
          "internalType": "contract IMisoMarketFactory",
          "name": "",
          "type": "address"
        }
      ],
      "stateMutability": "view",
      "type": "function"
    },
    {
      "inputs": [
        {
          "internalType": "address",
          "name": "_tokenFactory",
          "type": "address"
        },
        {
          "internalType": "address",
          "name": "_market",
          "type": "address"
        },
        {
          "internalType": "address",
          "name": "_launcher",
          "type": "address"
        },
        {
          "internalType": "address",
          "name": "_farmFactory",
          "type": "address"
        }
      ],
      "name": "setContracts",
      "outputs": [],
      "stateMutability": "nonpayable",
      "type": "function"
    },
    {
      "inputs": [],
      "name": "tokenFactory",
      "outputs": [
        {
          "internalType": "contract IMisoTokenFactory",
          "name": "",
          "type": "address"
        }
      ],
      "stateMutability": "view",
      "type": "function"
    }
  ],
  "bytecode": "0x608060405234801561001057600080fd5b50610375806100206000396000f3fe608060405234801561001057600080fd5b50600436106100625760003560e01c806316eebd1e146100675780636d25e17514610085578063748365ef1461008d57806380f5560514610095578063bf989b6e1461009d578063e77772fe146100b2575b600080fd5b61006f6100ba565b60405161007c91906102f6565b60405180910390f35b61006f6100c9565b61006f6100d8565b61006f6100e7565b6100b06100ab366004610278565b6100f6565b005b61006f61024c565b6003546001600160a01b031681565b6002546001600160a01b031681565b6004546001600160a01b031681565b6000546001600160a01b031681565b6004805460405163c395fcb360e01b81526001600160a01b039091169163c395fcb391610125913391016102f6565b60206040518083038186803b15801561013d57600080fd5b505afa158015610151573d6000803e3d6000fd5b505050506040513d601f19601f8201168201806040525081019061017591906102cf565b61019a5760405162461bcd60e51b81526004016101919061030a565b60405180910390fd5b6001600160a01b038316156101c557600080546001600160a01b0319166001600160a01b0385161790555b6001600160a01b038416156101f057600180546001600160a01b0319166001600160a01b0386161790555b6001600160a01b0382161561021b57600380546001600160a01b0319166001600160a01b0384161790555b6001600160a01b0381161561024657600280546001600160a01b0319166001600160a01b0383161790555b50505050565b6001546001600160a01b031681565b80356001600160a01b038116811461027257600080fd5b92915050565b6000806000806080858703121561028d578384fd5b610297868661025b565b93506102a6866020870161025b565b92506102b5866040870161025b565b91506102c4866060870161025b565b905092959194509250565b6000602082840312156102e0578081fd5b815180151581146102ef578182fd5b9392505050565b6001600160a01b0391909116815260200190565b6020808252818101527f4d49534f48656c7065723a2053656e646572206d7573742062652041646d696e60408201526060019056fea26469706673582212200db50936631e844e9dbd54e692f314d0ae3aaf9ef918f89d85a572eada8ce88e64736f6c634300060c0033",
  "linkReferences": {},
  "deployedLinkReferences": {}
}