{
  "_format": "hh-sol-artifact-1",
  "contractName": "MarketHelper",
  "sourceName": "contracts/Helper/MISOHelper.sol",
  "abi": [
    {
      "inputs": [],
      "name": "accessControls",
      "outputs": [
        {
          "internalType": "contract MISOAccessControls",
          "name": "",
          "type": "address"
        }
      ],
      "stateMutability": "view",
      "type": "function"
    },
    {
      "inputs": [
        {
          "internalType": "address",
          "name": "_token",
          "type": "address"
        },
        {
          "internalType": "address",
          "name": "_owner",
          "type": "address"
        },
        {
          "internalType": "address",
          "name": "_spender",
          "type": "address"
        }
      ],
      "name": "allowance",
      "outputs": [
        {
          "internalType": "uint256",
          "name": "",
          "type": "uint256"
        }
      ],
      "stateMutability": "view",
      "type": "function"
    },
    {
      "inputs": [],
      "name": "farmFactory",
      "outputs": [
        {
          "internalType": "contract IMisoFarmFactory",
          "name": "",
          "type": "address"
        }
      ],
      "stateMutability": "view",
      "type": "function"
    },
    {
      "inputs": [
        {
          "internalType": "address payable",
          "name": "_batchAuction",
          "type": "address"
        }
      ],
      "name": "getBatchAuctionInfo",
      "outputs": [
        {
          "components": [
            {
              "internalType": "address",
              "name": "addr",
              "type": "address"
            },
            {
              "internalType": "address",
              "name": "paymentCurrency",
              "type": "address"
            },
            {
              "internalType": "uint64",
              "name": "startTime",
              "type": "uint64"
            },
            {
              "internalType": "uint64",
              "name": "endTime",
              "type": "uint64"
            },
            {
              "internalType": "uint128",
              "name": "totalTokens",
              "type": "uint128"
            },
            {
              "internalType": "uint256",
              "name": "commitmentsTotal",
              "type": "uint256"
            },
            {
              "internalType": "uint256",
              "name": "minimumCommitmentAmount",
              "type": "uint256"
            },
            {
              "internalType": "bool",
              "name": "finalized",
              "type": "bool"
            },
            {
              "internalType": "bool",
              "name": "usePointList",
              "type": "bool"
            },
            {
              "internalType": "bool",
              "name": "auctionSuccessful",
              "type": "bool"
            },
            {
              "components": [
                {
                  "internalType": "address",
                  "name": "addr",
                  "type": "address"
                },
                {
                  "internalType": "uint256",
                  "name": "decimals",
                  "type": "uint256"
                },
                {
                  "internalType": "string",
                  "name": "name",
                  "type": "string"
                },
                {
                  "internalType": "string",
                  "name": "symbol",
                  "type": "string"
                }
              ],
              "internalType": "struct TokenHelper.TokenInfo",
              "name": "tokenInfo",
              "type": "tuple"
            },
            {
              "components": [
                {
                  "internalType": "address",
                  "name": "addr",
                  "type": "address"
                },
                {
                  "internalType": "uint256",
                  "name": "decimals",
                  "type": "uint256"
                },
                {
                  "internalType": "string",
                  "name": "name",
                  "type": "string"
                },
                {
                  "internalType": "string",
                  "name": "symbol",
                  "type": "string"
                }
              ],
              "internalType": "struct TokenHelper.TokenInfo",
              "name": "paymentCurrencyInfo",
              "type": "tuple"
            },
            {
              "components": [
                {
                  "internalType": "string",
                  "name": "name",
                  "type": "string"
                },
                {
                  "internalType": "string",
                  "name": "data",
                  "type": "string"
                },
                {
                  "internalType": "uint256",
                  "name": "lastModified",
                  "type": "uint256"
                }
              ],
              "internalType": "struct DocumentHepler.Document[]",
              "name": "documents",
              "type": "tuple[]"
            }
          ],
          "internalType": "struct MarketHelper.BatchAuctionInfo",
          "name": "",
          "type": "tuple"
        }
      ],
      "stateMutability": "view",
      "type": "function"
    },
    {
      "inputs": [
        {
          "internalType": "address",
          "name": "_crowdsale",
          "type": "address"
        }
      ],
      "name": "getCrowdsaleInfo",
      "outputs": [
        {
          "components": [
            {
              "internalType": "address",
              "name": "addr",
              "type": "address"
            },
            {
              "internalType": "address",
              "name": "paymentCurrency",
              "type": "address"
            },
            {
              "internalType": "uint128",
              "name": "commitmentsTotal",
              "type": "uint128"
            },
            {
              "internalType": "uint128",
              "name": "totalTokens",
              "type": "uint128"
            },
            {
              "internalType": "uint128",
              "name": "rate",
              "type": "uint128"
            },
            {
              "internalType": "uint128",
              "name": "goal",
              "type": "uint128"
            },
            {
              "internalType": "uint64",
              "name": "startTime",
              "type": "uint64"
            },
            {
              "internalType": "uint64",
              "name": "endTime",
              "type": "uint64"
            },
            {
              "internalType": "bool",
              "name": "finalized",
              "type": "bool"
            },
            {
              "internalType": "bool",
              "name": "usePointList",
              "type": "bool"
            },
            {
              "internalType": "bool",
              "name": "auctionSuccessful",
              "type": "bool"
            },
            {
              "components": [
                {
                  "internalType": "address",
                  "name": "addr",
                  "type": "address"
                },
                {
                  "internalType": "uint256",
                  "name": "decimals",
                  "type": "uint256"
                },
                {
                  "internalType": "string",
                  "name": "name",
                  "type": "string"
                },
                {
                  "internalType": "string",
                  "name": "symbol",
                  "type": "string"
                }
              ],
              "internalType": "struct TokenHelper.TokenInfo",
              "name": "tokenInfo",
              "type": "tuple"
            },
            {
              "components": [
                {
                  "internalType": "address",
                  "name": "addr",
                  "type": "address"
                },
                {
                  "internalType": "uint256",
                  "name": "decimals",
                  "type": "uint256"
                },
                {
                  "internalType": "string",
                  "name": "name",
                  "type": "string"
                },
                {
                  "internalType": "string",
                  "name": "symbol",
                  "type": "string"
                }
              ],
              "internalType": "struct TokenHelper.TokenInfo",
              "name": "paymentCurrencyInfo",
              "type": "tuple"
            },
            {
              "components": [
                {
                  "internalType": "string",
                  "name": "name",
                  "type": "string"
                },
                {
                  "internalType": "string",
                  "name": "data",
                  "type": "string"
                },
                {
                  "internalType": "uint256",
                  "name": "lastModified",
                  "type": "uint256"
                }
              ],
              "internalType": "struct DocumentHepler.Document[]",
              "name": "documents",
              "type": "tuple[]"
            }
          ],
          "internalType": "struct MarketHelper.CrowdsaleInfo",
          "name": "",
          "type": "tuple"
        }
      ],
      "stateMutability": "view",
      "type": "function"
    },
    {
      "inputs": [
        {
          "internalType": "address",
          "name": "_document",
          "type": "address"
        }
      ],
      "name": "getDocuments",
      "outputs": [
        {
          "components": [
            {
              "internalType": "string",
              "name": "name",
              "type": "string"
            },
            {
              "internalType": "string",
              "name": "data",
              "type": "string"
            },
            {
              "internalType": "uint256",
              "name": "lastModified",
              "type": "uint256"
            }
          ],
          "internalType": "struct DocumentHepler.Document[]",
          "name": "",
          "type": "tuple[]"
        }
      ],
      "stateMutability": "view",
      "type": "function"
    },
    {
      "inputs": [
        {
          "internalType": "address payable",
          "name": "_dutchAuction",
          "type": "address"
        }
      ],
      "name": "getDutchAuctionInfo",
      "outputs": [
        {
          "components": [
            {
              "internalType": "address",
              "name": "addr",
              "type": "address"
            },
            {
              "internalType": "address",
              "name": "paymentCurrency",
              "type": "address"
            },
            {
              "internalType": "uint64",
              "name": "startTime",
              "type": "uint64"
            },
            {
              "internalType": "uint64",
              "name": "endTime",
              "type": "uint64"
            },
            {
              "internalType": "uint128",
              "name": "totalTokens",
              "type": "uint128"
            },
            {
              "internalType": "uint128",
              "name": "startPrice",
              "type": "uint128"
            },
            {
              "internalType": "uint128",
              "name": "minimumPrice",
              "type": "uint128"
            },
            {
              "internalType": "uint128",
              "name": "commitmentsTotal",
              "type": "uint128"
            },
            {
              "internalType": "bool",
              "name": "finalized",
              "type": "bool"
            },
            {
              "internalType": "bool",
              "name": "usePointList",
              "type": "bool"
            },
            {
              "internalType": "bool",
              "name": "auctionSuccessful",
              "type": "bool"
            },
            {
              "components": [
                {
                  "internalType": "address",
                  "name": "addr",
                  "type": "address"
                },
                {
                  "internalType": "uint256",
                  "name": "decimals",
                  "type": "uint256"
                },
                {
                  "internalType": "string",
                  "name": "name",
                  "type": "string"
                },
                {
                  "internalType": "string",
                  "name": "symbol",
                  "type": "string"
                }
              ],
              "internalType": "struct TokenHelper.TokenInfo",
              "name": "tokenInfo",
              "type": "tuple"
            },
            {
              "components": [
                {
                  "internalType": "address",
                  "name": "addr",
                  "type": "address"
                },
                {
                  "internalType": "uint256",
                  "name": "decimals",
                  "type": "uint256"
                },
                {
                  "internalType": "string",
                  "name": "name",
                  "type": "string"
                },
                {
                  "internalType": "string",
                  "name": "symbol",
                  "type": "string"
                }
              ],
              "internalType": "struct TokenHelper.TokenInfo",
              "name": "paymentCurrencyInfo",
              "type": "tuple"
            },
            {
              "components": [
                {
                  "internalType": "string",
                  "name": "name",
                  "type": "string"
                },
                {
                  "internalType": "string",
                  "name": "data",
                  "type": "string"
                },
                {
                  "internalType": "uint256",
                  "name": "lastModified",
                  "type": "uint256"
                }
              ],
              "internalType": "struct DocumentHepler.Document[]",
              "name": "documents",
              "type": "tuple[]"
            }
          ],
          "internalType": "struct MarketHelper.DutchAuctionInfo",
          "name": "",
          "type": "tuple"
        }
      ],
      "stateMutability": "view",
      "type": "function"
    },
    {
      "inputs": [
        {
          "internalType": "address payable",
          "name": "_hyperbolicAuction",
          "type": "address"
        }
      ],
      "name": "getHyperbolicAuctionInfo",
      "outputs": [
        {
          "components": [
            {
              "internalType": "address",
              "name": "addr",
              "type": "address"
            },
            {
              "internalType": "address",
              "name": "paymentCurrency",
              "type": "address"
            },
            {
              "internalType": "uint64",
              "name": "startTime",
              "type": "uint64"
            },
            {
              "internalType": "uint64",
              "name": "endTime",
              "type": "uint64"
            },
            {
              "internalType": "uint128",
              "name": "totalTokens",
              "type": "uint128"
            },
            {
              "internalType": "uint128",
              "name": "minimumPrice",
              "type": "uint128"
            },
            {
              "internalType": "uint128",
              "name": "alpha",
              "type": "uint128"
            },
            {
              "internalType": "uint128",
              "name": "commitmentsTotal",
              "type": "uint128"
            },
            {
              "internalType": "bool",
              "name": "finalized",
              "type": "bool"
            },
            {
              "internalType": "bool",
              "name": "usePointList",
              "type": "bool"
            },
            {
              "internalType": "bool",
              "name": "auctionSuccessful",
              "type": "bool"
            },
            {
              "components": [
                {
                  "internalType": "address",
                  "name": "addr",
                  "type": "address"
                },
                {
                  "internalType": "uint256",
                  "name": "decimals",
                  "type": "uint256"
                },
                {
                  "internalType": "string",
                  "name": "name",
                  "type": "string"
                },
                {
                  "internalType": "string",
                  "name": "symbol",
                  "type": "string"
                }
              ],
              "internalType": "struct TokenHelper.TokenInfo",
              "name": "tokenInfo",
              "type": "tuple"
            },
            {
              "components": [
                {
                  "internalType": "address",
                  "name": "addr",
                  "type": "address"
                },
                {
                  "internalType": "uint256",
                  "name": "decimals",
                  "type": "uint256"
                },
                {
                  "internalType": "string",
                  "name": "name",
                  "type": "string"
                },
                {
                  "internalType": "string",
                  "name": "symbol",
                  "type": "string"
                }
              ],
              "internalType": "struct TokenHelper.TokenInfo",
              "name": "paymentCurrencyInfo",
              "type": "tuple"
            },
            {
              "components": [
                {
                  "internalType": "string",
                  "name": "name",
                  "type": "string"
                },
                {
                  "internalType": "string",
                  "name": "data",
                  "type": "string"
                },
                {
                  "internalType": "uint256",
                  "name": "lastModified",
                  "type": "uint256"
                }
              ],
              "internalType": "struct DocumentHepler.Document[]",
              "name": "documents",
              "type": "tuple[]"
            }
          ],
          "internalType": "struct MarketHelper.HyperbolicAuctionInfo",
          "name": "",
          "type": "tuple"
        }
      ],
      "stateMutability": "view",
      "type": "function"
    },
    {
      "inputs": [
        {
          "internalType": "uint256",
          "name": "pageSize",
          "type": "uint256"
        },
        {
          "internalType": "uint256",
          "name": "pageNbr",
          "type": "uint256"
        },
        {
          "internalType": "uint256",
          "name": "offset",
          "type": "uint256"
        }
      ],
      "name": "getMarkets",
      "outputs": [
        {
          "components": [
            {
              "internalType": "address",
              "name": "addr",
              "type": "address"
            },
            {
              "internalType": "uint64",
              "name": "templateId",
              "type": "uint64"
            },
            {
              "internalType": "uint64",
              "name": "startTime",
              "type": "uint64"
            },
            {
              "internalType": "uint64",
              "name": "endTime",
              "type": "uint64"
            },
            {
              "internalType": "bool",
              "name": "finalized",
              "type": "bool"
            },
            {
              "components": [
                {
                  "internalType": "address",
                  "name": "addr",
                  "type": "address"
                },
                {
                  "internalType": "uint256",
                  "name": "decimals",
                  "type": "uint256"
                },
                {
                  "internalType": "string",
                  "name": "name",
                  "type": "string"
                },
                {
                  "internalType": "string",
                  "name": "symbol",
                  "type": "string"
                }
              ],
              "internalType": "struct TokenHelper.TokenInfo",
              "name": "tokenInfo",
              "type": "tuple"
            }
          ],
          "internalType": "struct MarketHelper.MarketBaseInfo[]",
          "name": "",
          "type": "tuple[]"
        }
      ],
      "stateMutability": "view",
      "type": "function"
    },
    {
      "inputs": [
        {
          "internalType": "uint256",
          "name": "pageSize",
          "type": "uint256"
        },
        {
          "internalType": "uint256",
          "name": "pageNbr",
          "type": "uint256"
        }
      ],
      "name": "getMarkets",
      "outputs": [
        {
          "components": [
            {
              "internalType": "address",
              "name": "addr",
              "type": "address"
            },
            {
              "internalType": "uint64",
              "name": "templateId",
              "type": "uint64"
            },
            {
              "internalType": "uint64",
              "name": "startTime",
              "type": "uint64"
            },
            {
              "internalType": "uint64",
              "name": "endTime",
              "type": "uint64"
            },
            {
              "internalType": "bool",
              "name": "finalized",
              "type": "bool"
            },
            {
              "components": [
                {
                  "internalType": "address",
                  "name": "addr",
                  "type": "address"
                },
                {
                  "internalType": "uint256",
                  "name": "decimals",
                  "type": "uint256"
                },
                {
                  "internalType": "string",
                  "name": "name",
                  "type": "string"
                },
                {
                  "internalType": "string",
                  "name": "symbol",
                  "type": "string"
                }
              ],
              "internalType": "struct TokenHelper.TokenInfo",
              "name": "tokenInfo",
              "type": "tuple"
            }
          ],
          "internalType": "struct MarketHelper.MarketBaseInfo[]",
          "name": "",
          "type": "tuple[]"
        }
      ],
      "stateMutability": "view",
      "type": "function"
    },
    {
      "inputs": [],
      "name": "getMarkets",
      "outputs": [
        {
          "components": [
            {
              "internalType": "address",
              "name": "addr",
              "type": "address"
            },
            {
              "internalType": "uint64",
              "name": "templateId",
              "type": "uint64"
            },
            {
              "internalType": "uint64",
              "name": "startTime",
              "type": "uint64"
            },
            {
              "internalType": "uint64",
              "name": "endTime",
              "type": "uint64"
            },
            {
              "internalType": "bool",
              "name": "finalized",
              "type": "bool"
            },
            {
              "components": [
                {
                  "internalType": "address",
                  "name": "addr",
                  "type": "address"
                },
                {
                  "internalType": "uint256",
                  "name": "decimals",
                  "type": "uint256"
                },
                {
                  "internalType": "string",
                  "name": "name",
                  "type": "string"
                },
                {
                  "internalType": "string",
                  "name": "symbol",
                  "type": "string"
                }
              ],
              "internalType": "struct TokenHelper.TokenInfo",
              "name": "tokenInfo",
              "type": "tuple"
            }
          ],
          "internalType": "struct MarketHelper.MarketBaseInfo[]",
          "name": "",
          "type": "tuple[]"
        }
      ],
      "stateMutability": "view",
      "type": "function"
    },
    {
      "inputs": [
        {
          "internalType": "address",
          "name": "_address",
          "type": "address"
        }
      ],
      "name": "getTokenInfo",
      "outputs": [
        {
          "components": [
            {
              "internalType": "address",
              "name": "addr",
              "type": "address"
            },
            {
              "internalType": "uint256",
              "name": "decimals",
              "type": "uint256"
            },
            {
              "internalType": "string",
              "name": "name",
              "type": "string"
            },
            {
              "internalType": "string",
              "name": "symbol",
              "type": "string"
            }
          ],
          "internalType": "struct TokenHelper.TokenInfo",
          "name": "",
          "type": "tuple"
        }
      ],
      "stateMutability": "view",
      "type": "function"
    },
    {
      "inputs": [
        {
          "internalType": "address[]",
          "name": "addresses",
          "type": "address[]"
        }
      ],
      "name": "getTokensInfo",
      "outputs": [
        {
          "components": [
            {
              "internalType": "address",
              "name": "addr",
              "type": "address"
            },
            {
              "internalType": "uint256",
              "name": "decimals",
              "type": "uint256"
            },
            {
              "internalType": "string",
              "name": "name",
              "type": "string"
            },
            {
              "internalType": "string",
              "name": "symbol",
              "type": "string"
            }
          ],
          "internalType": "struct TokenHelper.TokenInfo[]",
          "name": "",
          "type": "tuple[]"
        }
      ],
      "stateMutability": "view",
      "type": "function"
    },
    {
      "inputs": [
        {
          "internalType": "address",
          "name": "_action",
          "type": "address"
        },
        {
          "internalType": "address",
          "name": "_user",
          "type": "address"
        }
      ],
      "name": "getUserMarketInfo",
      "outputs": [
        {
          "components": [
            {
              "internalType": "uint256",
              "name": "commitments",
              "type": "uint256"
            },
            {
              "internalType": "uint256",
              "name": "tokensClaimable",
              "type": "uint256"
            },
            {
              "internalType": "uint256",
              "name": "claimed",
              "type": "uint256"
            },
            {
              "internalType": "bool",
              "name": "isAdmin",
              "type": "bool"
            }
          ],
          "internalType": "struct MarketHelper.UserMarketInfo",
          "name": "userInfo",
          "type": "tuple"
        }
      ],
      "stateMutability": "view",
      "type": "function"
    },
    {
      "inputs": [],
      "name": "launcher",
      "outputs": [
        {
          "internalType": "address",
          "name": "",
          "type": "address"
        }
      ],
      "stateMutability": "view",
      "type": "function"
    },
    {
      "inputs": [],
      "name": "market",
      "outputs": [
        {
          "internalType": "contract IMisoMarketFactory",
          "name": "",
          "type": "address"
        }
      ],
      "stateMutability": "view",
      "type": "function"
    },
    {
      "inputs": [
        {
          "internalType": "address",
          "name": "_tokenFactory",
          "type": "address"
        },
        {
          "internalType": "address",
          "name": "_market",
          "type": "address"
        },
        {
          "internalType": "address",
          "name": "_launcher",
          "type": "address"
        },
        {
          "internalType": "address",
          "name": "_farmFactory",
          "type": "address"
        }
      ],
      "name": "setContracts",
      "outputs": [],
      "stateMutability": "nonpayable",
      "type": "function"
    },
    {
      "inputs": [],
      "name": "tokenFactory",
      "outputs": [
        {
          "internalType": "contract IMisoTokenFactory",
          "name": "",
          "type": "address"
        }
      ],
      "stateMutability": "view",
      "type": "function"
    }
  ],
  "bytecode": "0x608060405234801561001057600080fd5b50612814806100206000396000f3fe608060405234801561001057600080fd5b50600436106101165760003560e01c80636306377d116100a257806380f556051161007157806380f556051461025c578063927da10514610264578063bf989b6e14610284578063e77772fe14610299578063ec2c9016146102a157610116565b80636306377d1461011b5780636d25e17514610239578063748365ef1461024157806380968d481461024957610116565b806327f50a2d116100e957806327f50a2d14610199578063372cfb93146101b957806338d9893b146101d95780633c74720c146101f957806346a0fe471461021957610116565b8063156ec6811461011b57806316eebd1e14610144578063193d1362146101595780631f69565f14610179575b600080fd5b61012e610129366004611ba7565b6102a9565b60405161013b91906126c1565b60405180910390f35b61014c61065e565b60405161013b91906122bd565b61016c610167366004611ba7565b61066d565b60405161013b919061249d565b61018c610187366004611ba7565b61095b565b60405161013b91906126d4565b6101ac6101a7366004611ba7565b610af1565b60405161013b91906122eb565b6101cc6101c7366004611bdf565b610d35565b60405161013b91906126e7565b6101ec6101e7366004611fa3565b610f4b565b60405161013b919061234b565b61020c610207366004611ba7565b611113565b60405161013b91906125aa565b61022c610227366004611d14565b6113a8565b60405161013b9190612402565b61014c61144d565b61014c61145c565b6101ec610257366004611f55565b61146b565b61014c611482565b610277610272366004611c17565b611491565b60405161013b9190612714565b610297610292366004611c61565b61151a565b005b61014c611670565b6101ec61167f565b6102b161197f565b816102ba61197f565b6001600160a01b0382168082526040805162018df760e91b8152905163031bee0091600480820192606092909190829003018186803b1580156102fc57600080fd5b505afa158015610310573d6000803e3d6000fd5b505050506040513d601f19601f820116820180604052508101906103349190611fe9565b6001600160801b031660808401526001600160401b0390811660608401521660408083019190915280516308b42a7160e31b815281516001600160a01b038516926345a153889260048082019391829003018186803b15801561039657600080fd5b505afa1580156103aa573d6000803e3d6000fd5b505050506040513d601f19601f820116820180604052508101906103ce9190611f0f565b6001600160801b0390811660c08401521660a0820152604080516336d0054b60e01b815290516001600160a01b038416916336d0054b916004808301926020929190829003018186803b15801561042457600080fd5b505afa158015610438573d6000803e3d6000fd5b505050506040513d601f19601f8201168201806040525081019061045c9190611e3c565b15156101408201526040805163e0e081d760e01b815290516001600160a01b0384169163e0e081d7916004808301926060929190829003018186803b1580156104a457600080fd5b505afa1580156104b8573d6000803e3d6000fd5b505050506040513d601f19601f820116820180604052508101906104dc9190611ece565b151561012084015215156101008301526001600160801b031660e0820152604080516304cfed9960e51b81529051610577916001600160a01b038516916399fdb32091600480820192602092909190829003018186803b15801561053f57600080fd5b505afa158015610553573d6000803e3d6000fd5b505050506040513d601f19601f820116820180604052508101906101879190611bc3565b8161016001819052506000826001600160a01b0316633d15cc6d6040518163ffffffff1660e01b815260040160206040518083038186803b1580156105bb57600080fd5b505afa1580156105cf573d6000803e3d6000fd5b505050506040513d601f19601f820116820180604052508101906105f39190611bc3565b90506105fd6119ff565b6001600160a01b03821673eeeeeeeeeeeeeeeeeeeeeeeeeeeeeeeeeeeeeeee14156106315761062a6117b1565b905061063d565b61063a8261095b565b90505b610180830181905261064e86610af1565b6101a08401525090949350505050565b6003546001600160a01b031681565b610675611a30565b8161067e611a30565b6001600160a01b0382168082526040805162018df760e91b8152905163031bee0091600480820192606092909190829003018186803b1580156106c057600080fd5b505afa1580156106d4573d6000803e3d6000fd5b505050506040513d601f19601f820116820180604052508101906106f89190611fe9565b6001600160801b031660808401526001600160401b0390811660608401521660408083019190915280516336d0054b60e01b815290516001600160a01b038416916336d0054b916004808301926020929190829003018186803b15801561075e57600080fd5b505afa158015610772573d6000803e3d6000fd5b505050506040513d601f19601f820116820180604052508101906107969190611e3c565b15156101208201526040805163e0e081d760e01b815290516001600160a01b0384169163e0e081d7916004808301926080929190829003018186803b1580156107de57600080fd5b505afa1580156107f2573d6000803e3d6000fd5b505050506040513d601f19601f820116820180604052508101906108169190611f76565b1515610100850152151560e084015260c083015260a0820152604080516304cfed9960e51b81529051610874916001600160a01b038516916399fdb32091600480820192602092909190829003018186803b15801561053f57600080fd5b8161014001819052506000826001600160a01b0316633d15cc6d6040518163ffffffff1660e01b815260040160206040518083038186803b1580156108b857600080fd5b505afa1580156108cc573d6000803e3d6000fd5b505050506040513d601f19601f820116820180604052508101906108f09190611bc3565b90506108fa6119ff565b6001600160a01b03821673eeeeeeeeeeeeeeeeeeeeeeeeeeeeeeeeeeeeeeee141561092e576109276117b1565b905061093a565b6109378261095b565b90505b610160830181905261094b86610af1565b6101808401525090949350505050565b6109636119ff565b61096b6119ff565b6001600160a01b038316808252604080516306fdde0360e01b815290518592916306fdde03916004808301926000929190829003018186803b1580156109b057600080fd5b505afa1580156109c4573d6000803e3d6000fd5b505050506040513d6000823e601f3d908101601f191682016040526109ec9190810190611e58565b8260400181905250806001600160a01b03166395d89b416040518163ffffffff1660e01b815260040160006040518083038186803b158015610a2d57600080fd5b505afa158015610a41573d6000803e3d6000fd5b505050506040513d6000823e601f3d908101601f19168201604052610a699190810190611e58565b8260600181905250806001600160a01b031663313ce5676040518163ffffffff1660e01b815260040160206040518083038186803b158015610aaa57600080fd5b505afa158015610abe573d6000803e3d6000fd5b505050506040513d601f19601f82011682018060405250810190610ae2919061202a565b60ff1660208301525092915050565b606060008290506000816001600160a01b0316633d1c22736040518163ffffffff1660e01b815260040160206040518083038186803b158015610b3357600080fd5b505afa158015610b47573d6000803e3d6000fd5b505050506040513d601f19601f82011682018060405250810190610b6b9190611f3d565b90506060816001600160401b0381118015610b8557600080fd5b50604051908082528060200260200182016040528015610bbf57816020015b610bac611a8e565b815260200190600190039081610ba45790505b50905060005b82811015610d2c5760405163635aa3f360e11b81526060906001600160a01b0386169063c6b547e690610bfc908590600401612714565b60006040518083038186803b158015610c1457600080fd5b505afa158015610c28573d6000803e3d6000fd5b505050506040513d6000823e601f3d908101601f19168201604052610c509190810190611e58565b604051631f32da9960e21b81529091506001600160a01b03861690637ccb6a6490610c7f908490600401612455565b60006040518083038186803b158015610c9757600080fd5b505afa158015610cab573d6000803e3d6000fd5b505050506040513d6000823e601f3d908101601f19168201604052610cd39190810190611e8a565b848481518110610cdf57fe5b6020026020010151602001858581518110610cf657fe5b602002602001015160400182815250829052505080838381518110610d1757fe5b60209081029190910101515250600101610bc5565b50949350505050565b610d3d611aaf565b60405163e8fcf72360e01b815283906001600160a01b0382169063e8fcf72390610d6b9086906004016122bd565b60206040518083038186803b158015610d8357600080fd5b505afa158015610d97573d6000803e3d6000fd5b505050506040513d601f19601f82011682018060405250810190610dbb9190611f3d565b8252604051634dc80e1560e01b81526001600160a01b03821690634dc80e1590610de99086906004016122bd565b60206040518083038186803b158015610e0157600080fd5b505afa158015610e15573d6000803e3d6000fd5b505050506040513d601f19601f82011682018060405250810190610e399190611f3d565b602083015260405163c884ef8360e01b81526001600160a01b0382169063c884ef8390610e6a9086906004016122bd565b60206040518083038186803b158015610e8257600080fd5b505afa158015610e96573d6000803e3d6000fd5b505050506040513d601f19601f82011682018060405250810190610eba9190611f3d565b6040808401919091525163c395fcb360e01b81526001600160a01b0382169063c395fcb390610eed9086906004016122bd565b60206040518083038186803b158015610f0557600080fd5b505afa158015610f19573d6000803e3d6000fd5b505050506040513d601f19601f82011682018060405250810190610f3d9190611e3c565b151560608301525092915050565b600080546040805163286cea3960e11b81529051606093926001600160a01b0316916350d9d472916004808301926020929190829003018186803b158015610f9257600080fd5b505afa158015610fa6573d6000803e3d6000fd5b505050506040513d601f19601f82011682018060405250810190610fca9190611f3d565b90508385028301808601606083821115610fe2578391505b82821015610ff557935061110c92505050565b8282036001600160401b038111801561100d57600080fd5b5060405190808252806020026020018201604052801561104757816020015b611034611ad9565b81526020019060019003908161102c5790505b50905060005b82848201101561110557600080546040516302b8d13560e51b81526001600160a01b039091169063571a26a09061108a9085890190600401612714565b60206040518083038186803b1580156110a257600080fd5b505afa1580156110b6573d6000803e3d6000fd5b505050506040513d601f19601f820116820180604052508101906110da9190611bc3565b90506110e581611821565b8383815181106110f157fe5b60209081029190910101525060010161104d565b5093505050505b9392505050565b61111b61197f565b8161112461197f565b6001600160a01b0382168082526040805163e0e081d760e01b8152905163e0e081d791600480820192606092909190829003018186803b15801561116757600080fd5b505afa15801561117b573d6000803e3d6000fd5b505050506040513d601f19601f8201168201806040525081019061119f9190611ece565b151561012084015215156101008301526001600160801b0316604080830191909152805162018df760e91b815290516001600160a01b0384169163031bee00916004808301926060929190829003018186803b1580156111fe57600080fd5b505afa158015611212573d6000803e3d6000fd5b505050506040513d601f19601f820116820180604052508101906112369190611fe9565b6001600160801b031660608401526001600160401b0390811660e08401521660c0820152604080516308b42a7160e31b815281516001600160a01b038516926345a153889260048082019391829003018186803b15801561129657600080fd5b505afa1580156112aa573d6000803e3d6000fd5b505050506040513d601f19601f820116820180604052508101906112ce9190611f0f565b6001600160801b0390811660a0840152166080820152604080516336d0054b60e01b815290516001600160a01b038416916336d0054b916004808301926020929190829003018186803b15801561132457600080fd5b505afa158015611338573d6000803e3d6000fd5b505050506040513d601f19601f8201168201806040525081019061135c9190611e3c565b81610140019015159081151581525050610577826001600160a01b03166399fdb3206040518163ffffffff1660e01b815260040160206040518083038186803b15801561053f57600080fd5b60608082516001600160401b03811180156113c257600080fd5b506040519080825280602002602001820160405280156113fc57816020015b6113e96119ff565b8152602001906001900390816113e15790505b50905060005b83518110156114465761142784828151811061141a57fe5b602002602001015161095b565b82828151811061143357fe5b6020908102919091010152600101611402565b5092915050565b6002546001600160a01b031681565b6004546001600160a01b031681565b606061147983836000610f4b565b90505b92915050565b6000546001600160a01b031681565b604051636eb1769f60e11b81526000906001600160a01b0385169063dd62ed3e906114c290869086906004016122d1565b60206040518083038186803b1580156114da57600080fd5b505afa1580156114ee573d6000803e3d6000fd5b505050506040513d601f19601f820116820180604052508101906115129190611f3d565b949350505050565b6004805460405163c395fcb360e01b81526001600160a01b039091169163c395fcb391611549913391016122bd565b60206040518083038186803b15801561156157600080fd5b505afa158015611575573d6000803e3d6000fd5b505050506040513d601f19601f820116820180604052508101906115999190611e3c565b6115be5760405162461bcd60e51b81526004016115b590612468565b60405180910390fd5b6001600160a01b038316156115e957600080546001600160a01b0319166001600160a01b0385161790555b6001600160a01b0384161561161457600180546001600160a01b0319166001600160a01b0386161790555b6001600160a01b0382161561163f57600380546001600160a01b0319166001600160a01b0384161790555b6001600160a01b0381161561166a57600280546001600160a01b0319166001600160a01b0383161790555b50505050565b6001546001600160a01b031681565b6000805460408051637616480b60e11b8152905160609384936001600160a01b03169263ec2c90169260048083019392829003018186803b1580156116c357600080fd5b505afa1580156116d7573d6000803e3d6000fd5b505050506040513d6000823e601f3d908101601f191682016040526116ff9190810190611db0565b9050606081516001600160401b038111801561171a57600080fd5b5060405190808252806020026020018201604052801561175457816020015b611741611ad9565b8152602001906001900390816117395790505b50905060005b82518110156117aa5761176b611ad9565b61178784838151811061177a57fe5b6020026020010151611821565b90508083838151811061179657fe5b60209081029190910101525060010161175a565b5091505090565b6117b96119ff565b73eeeeeeeeeeeeeeeeeeeeeeeeeeeeeeeeeeeeeeee81526040805180820182526008815267455448455245554d60c01b602080830191909152828401919091528151808301909252600382526208aa8960eb1b82820152606083019190915260129082015290565b611829611ad9565b6000805460405163b034349360e01b81526001600160a01b039091169063b03434939061185a9086906004016122bd565b60206040518083038186803b15801561187257600080fd5b505afa158015611886573d6000803e3d6000fd5b505050506040513d601f19601f820116820180604052508101906118aa9190611fce565b9050600080600080866001600160a01b031663314148e26040518163ffffffff1660e01b815260040160806040518083038186803b1580156118eb57600080fd5b505afa1580156118ff573d6000803e3d6000fd5b505050506040513d601f19601f820116820180604052508101906119239190611cbc565b929650909450925090506119356119ff565b61193e8561095b565b6001600160a01b039098168752506001600160401b03948516602087015291841660408601529092166060840152501515608082015260a081019190915290565b604080516101c081018252600080825260208201819052918101829052606081018290526080810182905260a0810182905260c0810182905260e081018290526101008101829052610120810182905261014081019190915261016081016119e56119ff565b81526020016119f26119ff565b8152602001606081525090565b604051806080016040528060006001600160a01b031681526020016000815260200160608152602001606081525090565b604080516101a081018252600080825260208201819052918101829052606081018290526080810182905260a0810182905260c0810182905260e08101829052610100810182905261012081019190915261014081016119e56119ff565b60405180606001604052806060815260200160608152602001600081525090565b60405180608001604052806000815260200160008152602001600081526020016000151581525090565b6040805160c08101825260008082526020820181905291810182905260608101829052608081019190915260a08101611b106119ff565b905290565b803561147c8161278e565b8051801515811461147c57600080fd5b600082601f830112611b40578081fd5b81516001600160401b03811115611b55578182fd5b611b68601f8201601f191660200161271d565b9150808252836020828501011115611b7f57600080fd5b611446816020840160208601612762565b80516001600160401b038116811461147c57600080fd5b600060208284031215611bb8578081fd5b813561110c8161278e565b600060208284031215611bd4578081fd5b815161110c8161278e565b60008060408385031215611bf1578081fd5b8235611bfc8161278e565b91506020830135611c0c8161278e565b809150509250929050565b600080600060608486031215611c2b578081fd5b8335611c368161278e565b92506020840135611c468161278e565b91506040840135611c568161278e565b809150509250925092565b60008060008060808587031215611c76578081fd5b8435611c818161278e565b93506020850135611c918161278e565b92506040850135611ca18161278e565b91506060850135611cb18161278e565b939692955090935050565b60008060008060808587031215611cd1578384fd5b8451611cdc8161278e565b9350611ceb8660208701611b90565b9250611cfa8660408701611b90565b9150611d098660608701611b20565b905092959194509250565b60006020808385031215611d26578182fd5b82356001600160401b03811115611d3b578283fd5b8301601f81018513611d4b578283fd5b8035611d5e611d5982612743565b61271d565b8181528381019083850185840285018601891015611d7a578687fd5b8694505b83851015611da457611d908982611b15565b835260019490940193918501918501611d7e565b50979650505050505050565b60006020808385031215611dc2578182fd5b82516001600160401b03811115611dd7578283fd5b8301601f81018513611de7578283fd5b8051611df5611d5982612743565b8181528381019083850185840285018601891015611e11578687fd5b8694505b83851015611da4578051611e288161278e565b835260019490940193918501918501611e15565b600060208284031215611e4d578081fd5b815161110c816127a6565b600060208284031215611e69578081fd5b81516001600160401b03811115611e7e578182fd5b61151284828501611b30565b60008060408385031215611e9c578081fd5b82516001600160401b03811115611eb1578182fd5b611ebd85828601611b30565b925050602083015190509250929050565b600080600060608486031215611ee2578081fd5b8351611eed816127b4565b6020850151909350611efe816127a6565b6040850151909250611c56816127a6565b60008060408385031215611f21578182fd5b8251611f2c816127b4565b6020840151909250611c0c816127b4565b600060208284031215611f4e578081fd5b5051919050565b60008060408385031215611f67578182fd5b50508035926020909101359150565b60008060008060808587031215611f8b578182fd5b8451935060208501519250611cfa8660408701611b20565b600080600060608486031215611fb7578081fd5b505081359360208301359350604090920135919050565b600060208284031215611fdf578081fd5b6114798383611b90565b600080600060608486031215611ffd578081fd5b8351612008816127c9565b6020850151909350612019816127c9565b6040850151909250611c56816127b4565b60006020828403121561203b578081fd5b815160ff8116811461110c578182fd5b600081516060845261206060608501826120f6565b90506020830151848203602086015261207982826120f6565b915050604083015160408501528091505092915050565b6001600160a01b03169052565b6000815180845260208085018081965082840281019150828601855b858110156120e35782840389526120d184835161204b565b988501989350908401906001016120b9565b5091979650505050505050565b15159052565b6000815180845261210e816020860160208601612762565b601f01601f19169290920160200192915050565b60006101c0612132848451612090565b60208301516121446020860182612090565b50604083015161215760408601826122b0565b50606083015161216a60608601826122b0565b50608083015161217d60808601826122a3565b5060a083015161219060a08601826122a3565b5060c08301516121a360c08601826122a3565b5060e08301516121b660e08601826122a3565b50610100808401516121ca828701826120f0565b5050610120808401516121df828701826120f0565b5050610140808401516121f4828701826120f0565b505061016080840151828287015261220e83870182612250565b92505050610180808401518583038287015261222a8382612250565b925050506101a08084015185830382870152612246838261209d565b9695505050505050565b600060018060a01b0382511683526020820151602084015260408201516080604085015261228160808501826120f6565b90506060830151848203606086015261229a82826120f6565b95945050505050565b6001600160801b03169052565b6001600160401b03169052565b6001600160a01b0391909116815260200190565b6001600160a01b0392831681529116602082015260400190565b6000602080830181845280855180835260408601915060408482028701019250838701855b8281101561233e57603f1988860301845261232c85835161204b565b94509285019290850190600101612310565b5092979650505050505050565b60208082528251828201819052600091906040908185019080840286018301878501865b838110156123f457888303603f19018552815180516001600160a01b03168452878101516001600160401b0390811689860152878201518116888601526060808301519091169085015260808082015115159085015260a09081015160c0918501829052906123e081860183612250565b96890196945050509086019060010161236f565b509098975050505050505050565b6000602080830181845280855180835260408601915060408482028701019250838701855b8281101561233e57603f19888603018452612443858351612250565b94509285019290850190600101612427565b60006020825261147960208301846120f6565b6020808252818101527f4d49534f48656c7065723a2053656e646572206d7573742062652041646d696e604082015260600190565b6000602082526124b1602083018451612090565b60208301516124c36040840182612090565b5060408301516124d660608401826122b0565b5060608301516124e960808401826122b0565b5060808301516124fc60a08401826122a3565b5060a083015160c083015260c083015160e083015260e0830151610100612525818501836120f0565b8401519050610120612539848201836120f0565b840151905061014061254d848201836120f0565b808501519150506101a0610160818186015261256d6101c0860184612250565b9250808601519050601f1961018081878603018188015261258e8584612250565b908801518782039092018488015293509050612246838261209d565b6000602082526125be602083018451612090565b60208301516125d06040840182612090565b5060408301516125e360608401826122a3565b5060608301516125f660808401826122a3565b50608083015161260960a08401826122a3565b5060a083015161261c60c08401826122a3565b5060c083015161262f60e08401826122b0565b5060e0830151610100612644818501836122b0565b8401519050610120612658848201836120f0565b840151905061014061266c848201836120f0565b8401519050610160612680848201836120f0565b808501519150506101c061018081818601526126a06101e0860184612250565b9250808601519050601f196101a081878603018188015261258e8584612250565b6000602082526114796020830184612122565b6000602082526114796020830184612250565b81518152602080830151908201526040808301519082015260609182015115159181019190915260800190565b90815260200190565b6040518181016001600160401b038111828210171561273b57600080fd5b604052919050565b60006001600160401b03821115612758578081fd5b5060209081020190565b60005b8381101561277d578181015183820152602001612765565b8381111561166a5750506000910152565b6001600160a01b03811681146127a357600080fd5b50565b80151581146127a357600080fd5b6001600160801b03811681146127a357600080fd5b6001600160401b03811681146127a357600080fdfea2646970667358221220430431dad3071d177aedcc3b2a7b96309625f2b29b2496a0947c24b915ce601964736f6c634300060c0033",
  "linkReferences": {},
  "deployedLinkReferences": {}
}