{
  "_format": "hh-sol-artifact-1",
  "contractName": "TokenHelper",
  "sourceName": "contracts/Helper/MISOHelper.sol",
  "abi": [
    {
      "inputs": [
        {
          "internalType": "address",
          "name": "_token",
          "type": "address"
        },
        {
          "internalType": "address",
          "name": "_owner",
          "type": "address"
        },
        {
          "internalType": "address",
          "name": "_spender",
          "type": "address"
        }
      ],
      "name": "allowance",
      "outputs": [
        {
          "internalType": "uint256",
          "name": "",
          "type": "uint256"
        }
      ],
      "stateMutability": "view",
      "type": "function"
    },
    {
      "inputs": [
        {
          "internalType": "address",
          "name": "_address",
          "type": "address"
        }
      ],
      "name": "getTokenInfo",
      "outputs": [
        {
          "components": [
            {
              "internalType": "address",
              "name": "addr",
              "type": "address"
            },
            {
              "internalType": "uint256",
              "name": "decimals",
              "type": "uint256"
            },
            {
              "internalType": "string",
              "name": "name",
              "type": "string"
            },
            {
              "internalType": "string",
              "name": "symbol",
              "type": "string"
            }
          ],
          "internalType": "struct TokenHelper.TokenInfo",
          "name": "",
          "type": "tuple"
        }
      ],
      "stateMutability": "view",
      "type": "function"
    },
    {
      "inputs": [
        {
          "internalType": "address[]",
          "name": "addresses",
          "type": "address[]"
        }
      ],
      "name": "getTokensInfo",
      "outputs": [
        {
          "components": [
            {
              "internalType": "address",
              "name": "addr",
              "type": "address"
            },
            {
              "internalType": "uint256",
              "name": "decimals",
              "type": "uint256"
            },
            {
              "internalType": "string",
              "name": "name",
              "type": "string"
            },
            {
              "internalType": "string",
              "name": "symbol",
              "type": "string"
            }
          ],
          "internalType": "struct TokenHelper.TokenInfo[]",
          "name": "",
          "type": "tuple[]"
        }
      ],
      "stateMutability": "view",
      "type": "function"
    }
  ],
  "bytecode": "0x608060405234801561001057600080fd5b5061074d806100206000396000f3fe608060405234801561001057600080fd5b50600436106100415760003560e01c80631f69565f1461004657806346a0fe471461006f578063927da1051461008f575b600080fd5b6100596100543660046103c2565b6100af565b6040516100669190610684565b60405180910390f35b61008261007d366004610429565b610245565b6040516100669190610624565b6100a261009d3660046103e4565b6102eb565b6040516100669190610697565b6100b7610374565b6100bf610374565b6001600160a01b038316808252604080516306fdde0360e01b815290518592916306fdde03916004808301926000929190829003018186803b15801561010457600080fd5b505afa158015610118573d6000803e3d6000fd5b505050506040513d6000823e601f3d908101601f1916820160405261014091908101906104c6565b8260400181905250806001600160a01b03166395d89b416040518163ffffffff1660e01b815260040160006040518083038186803b15801561018157600080fd5b505afa158015610195573d6000803e3d6000fd5b505050506040513d6000823e601f3d908101601f191682016040526101bd91908101906104c6565b8260600181905250806001600160a01b031663313ce5676040518163ffffffff1660e01b815260040160206040518083038186803b1580156101fe57600080fd5b505afa158015610212573d6000803e3d6000fd5b505050506040513d601f19601f82011682018060405250810190610236919061056a565b60ff1660208301525092915050565b606080825167ffffffffffffffff8111801561026057600080fd5b5060405190808252806020026020018201604052801561029a57816020015b610287610374565b81526020019060019003908161027f5790505b50905060005b83518110156102e4576102c58482815181106102b857fe5b60200260200101516100af565b8282815181106102d157fe5b60209081029190910101526001016102a0565b5092915050565b604051636eb1769f60e11b81526000906001600160a01b0385169063dd62ed3e9061031c908690869060040161060a565b60206040518083038186803b15801561033457600080fd5b505afa158015610348573d6000803e3d6000fd5b505050506040513d601f19601f8201168201806040525081019061036c9190610552565b949350505050565b604051806080016040528060006001600160a01b031681526020016000815260200160608152602001606081525090565b80356001600160a01b03811681146103bc57600080fd5b92915050565b6000602082840312156103d3578081fd5b6103dd83836103a5565b9392505050565b6000806000606084860312156103f8578182fd5b61040285856103a5565b925061041185602086016103a5565b915061042085604086016103a5565b90509250925092565b6000602080838503121561043b578182fd5b823567ffffffffffffffff811115610451578283fd5b8301601f81018513610461578283fd5b803561047461046f826106c7565b6106a0565b8181528381019083850185840285018601891015610490578687fd5b8694505b838510156104ba576104a689826103a5565b835260019490940193918501918501610494565b50979650505050505050565b6000602082840312156104d7578081fd5b815167ffffffffffffffff808211156104ee578283fd5b818401915084601f830112610501578283fd5b81518181111561050f578384fd5b610522601f8201601f19166020016106a0565b9150808252856020828501011115610538578384fd5b6105498160208401602086016106e7565b50949350505050565b600060208284031215610563578081fd5b5051919050565b60006020828403121561057b578081fd5b815160ff811681146103dd578182fd5b600081518084526105a38160208601602086016106e7565b601f01601f19169290920160200192915050565b600060018060a01b038251168352602082015160208401526040820151608060408501526105e8608085018261058b565b905060608301518482036060860152610601828261058b565b95945050505050565b6001600160a01b0392831681529116602082015260400190565b6000602080830181845280855180835260408601915060408482028701019250838701855b8281101561067757603f198886030184526106658583516105b7565b94509285019290850190600101610649565b5092979650505050505050565b6000602082526103dd60208301846105b7565b90815260200190565b60405181810167ffffffffffffffff811182821017156106bf57600080fd5b604052919050565b600067ffffffffffffffff8211156106dd578081fd5b5060209081020190565b60005b838110156107025781810151838201526020016106ea565b83811115610711576000848401525b5050505056fea26469706673582212205786bbbf2eab073aeae3f3ac7242936292f4c8c401c4ef3fecb877d72a2167b564736f6c634300060c0033",
  "linkReferences": {},
  "deployedLinkReferences": {}
}